{
	"contracts/Conflict.sol": {
		"Conflict": {
			"abi": [
				{
					"anonymous": false,
					"inputs": [
						{
							"indexed": false,
							"internalType": "uint256",
							"name": "projectNumber",
							"type": "uint256"
						},
						{
							"indexed": false,
							"internalType": "uint256",
							"name": "serviceNumber",
							"type": "uint256"
						},
						{
							"indexed": false,
							"internalType": "uint256",
							"name": "milestoneNumber",
							"type": "uint256"
						},
						{
							"indexed": false,
							"internalType": "address",
							"name": "serviceRequester",
							"type": "address"
						},
						{
							"indexed": false,
							"internalType": "address",
							"name": "serviceProvider",
							"type": "address"
						},
						{
							"indexed": false,
							"internalType": "uint256",
							"name": "totalVoters",
							"type": "uint256"
						}
					],
					"name": "conflictCreated",
					"type": "event"
				},
				{
					"anonymous": false,
					"inputs": [
						{
							"indexed": false,
							"internalType": "uint256",
							"name": "projectNumber",
							"type": "uint256"
						},
						{
							"indexed": false,
							"internalType": "uint256",
							"name": "serviceNumber",
							"type": "uint256"
						},
						{
							"indexed": false,
							"internalType": "uint256",
							"name": "milestoneNumber",
							"type": "uint256"
						},
						{
							"indexed": false,
							"internalType": "address",
							"name": "serviceProvider",
							"type": "address"
						}
					],
					"name": "conflictRaised",
					"type": "event"
				},
				{
					"anonymous": false,
					"inputs": [
						{
							"indexed": false,
							"internalType": "uint256",
							"name": "projectNumber",
							"type": "uint256"
						},
						{
							"indexed": false,
							"internalType": "uint256",
							"name": "serviceNumber",
							"type": "uint256"
						},
						{
							"indexed": false,
							"internalType": "uint256",
							"name": "milestoneNumber",
							"type": "uint256"
						},
						{
							"indexed": false,
							"internalType": "uint8",
							"name": "result",
							"type": "uint8"
						}
					],
					"name": "conflictResult",
					"type": "event"
				},
				{
					"anonymous": false,
					"inputs": [
						{
							"indexed": false,
							"internalType": "uint256",
							"name": "projectNumber",
							"type": "uint256"
						},
						{
							"indexed": false,
							"internalType": "uint256",
							"name": "serviceNumber",
							"type": "uint256"
						},
						{
							"indexed": false,
							"internalType": "uint256",
							"name": "milestoneNumber",
							"type": "uint256"
						},
						{
							"indexed": false,
							"internalType": "address",
							"name": "voter",
							"type": "address"
						},
						{
							"indexed": false,
							"internalType": "uint8",
							"name": "vote",
							"type": "uint8"
						}
					],
					"name": "conflictVoted",
					"type": "event"
				},
				{
					"inputs": [
						{
							"internalType": "uint256",
							"name": "projectNumber",
							"type": "uint256"
						},
						{
							"internalType": "uint256",
							"name": "serviceNumber",
							"type": "uint256"
						},
						{
							"internalType": "uint256",
							"name": "milestoneNumber",
							"type": "uint256"
						},
						{
							"internalType": "string",
							"name": "title",
							"type": "string"
						},
						{
							"internalType": "string",
							"name": "description",
							"type": "string"
						},
						{
							"internalType": "address",
							"name": "serviceRequester",
							"type": "address"
						},
						{
							"internalType": "address",
							"name": "serviceProvider",
							"type": "address"
						},
						{
							"internalType": "uint256",
							"name": "totalVoters",
							"type": "uint256"
						}
					],
					"name": "createConflict",
					"outputs": [],
					"stateMutability": "nonpayable",
					"type": "function"
				},
				{
					"inputs": [
						{
							"internalType": "uint256",
							"name": "projectNumber",
							"type": "uint256"
						},
						{
							"internalType": "uint256",
							"name": "serviceNumber",
							"type": "uint256"
						},
						{
							"internalType": "uint256",
							"name": "milestoneNumber",
							"type": "uint256"
						}
					],
					"name": "deleteConflict",
					"outputs": [],
					"stateMutability": "nonpayable",
					"type": "function"
				},
				{
					"inputs": [
						{
							"internalType": "uint256",
							"name": "projectNumber",
							"type": "uint256"
						},
						{
							"internalType": "uint256",
							"name": "serviceNumber",
							"type": "uint256"
						},
						{
							"internalType": "uint256",
							"name": "milestoneNumber",
							"type": "uint256"
						}
					],
					"name": "getConflictStatus",
					"outputs": [
						{
							"internalType": "enum Conflict.ConflictStatus",
							"name": "",
							"type": "uint8"
						}
					],
					"stateMutability": "view",
					"type": "function"
				},
				{
					"inputs": [
						{
							"internalType": "uint256",
							"name": "projectNumber",
							"type": "uint256"
						},
						{
							"internalType": "uint256",
							"name": "serviceNumber",
							"type": "uint256"
						},
						{
							"internalType": "uint256",
							"name": "milestoneNumber",
							"type": "uint256"
						}
					],
					"name": "getResults",
					"outputs": [
						{
							"internalType": "uint256",
							"name": "",
							"type": "uint256"
						}
					],
					"stateMutability": "view",
					"type": "function"
				},
				{
					"inputs": [
						{
							"internalType": "uint256",
							"name": "projectNumber",
							"type": "uint256"
						},
						{
							"internalType": "uint256",
							"name": "serviceNumber",
							"type": "uint256"
						},
						{
							"internalType": "uint256",
							"name": "milestoneNumber",
							"type": "uint256"
						}
					],
					"name": "getVotesCollected",
					"outputs": [
						{
							"internalType": "uint256",
							"name": "",
							"type": "uint256"
						}
					],
					"stateMutability": "view",
					"type": "function"
				},
				{
					"inputs": [
						{
							"internalType": "uint256",
							"name": "projectNumber",
							"type": "uint256"
						},
						{
							"internalType": "uint256",
							"name": "serviceNumber",
							"type": "uint256"
						},
						{
							"internalType": "uint256",
							"name": "milestoneNumber",
							"type": "uint256"
						}
					],
					"name": "getVotesforProvider",
					"outputs": [
						{
							"internalType": "uint256",
							"name": "",
							"type": "uint256"
						}
					],
					"stateMutability": "view",
					"type": "function"
				},
				{
					"inputs": [
						{
							"internalType": "uint256",
							"name": "projectNumber",
							"type": "uint256"
						},
						{
							"internalType": "uint256",
							"name": "serviceNumber",
							"type": "uint256"
						},
						{
							"internalType": "uint256",
							"name": "milestoneNumber",
							"type": "uint256"
						}
					],
					"name": "getVotesforRequester",
					"outputs": [
						{
							"internalType": "uint256",
							"name": "",
							"type": "uint256"
						}
					],
					"stateMutability": "view",
					"type": "function"
				},
				{
					"inputs": [
						{
							"internalType": "uint256",
							"name": "projectNumber",
							"type": "uint256"
						},
						{
							"internalType": "uint256",
							"name": "serviceNumber",
							"type": "uint256"
						},
						{
							"internalType": "uint256",
							"name": "milestoneNumber",
							"type": "uint256"
						},
						{
							"internalType": "string",
							"name": "title",
							"type": "string"
						},
						{
							"internalType": "string",
							"name": "description",
							"type": "string"
						}
					],
					"name": "updateConflict",
					"outputs": [],
					"stateMutability": "nonpayable",
					"type": "function"
				},
				{
					"inputs": [
						{
							"internalType": "uint256",
							"name": "projectNumber",
							"type": "uint256"
						},
						{
							"internalType": "uint256",
							"name": "serviceNumber",
							"type": "uint256"
						},
						{
							"internalType": "uint256",
							"name": "milestoneNumber",
							"type": "uint256"
						},
						{
							"internalType": "address",
							"name": "sender",
							"type": "address"
						},
						{
							"internalType": "uint8",
							"name": "vote",
							"type": "uint8"
						}
					],
					"name": "voteConflict",
					"outputs": [],
					"stateMutability": "nonpayable",
					"type": "function"
				}
			],
			"devdoc": {
				"kind": "dev",
				"methods": {},
				"version": 1
			},
			"evm": {
				"assembly": "    /* \"contracts/Conflict.sol\":192:6694  contract Conflict {... */\n  mstore(0x40, 0x80)\n  callvalue\n  dup1\n  iszero\n  tag_1\n  jumpi\n  0x00\n  dup1\n  revert\ntag_1:\n  pop\n  dataSize(sub_0)\n  dup1\n  dataOffset(sub_0)\n  0x00\n  codecopy\n  0x00\n  return\nstop\n\nsub_0: assembly {\n        /* \"contracts/Conflict.sol\":192:6694  contract Conflict {... */\n      mstore(0x40, 0x80)\n      callvalue\n      dup1\n      iszero\n      tag_1\n      jumpi\n      0x00\n      dup1\n      revert\n    tag_1:\n      pop\n      jumpi(tag_2, lt(calldatasize, 0x04))\n      shr(0xe0, calldataload(0x00))\n      dup1\n      0xc171bdf7\n      gt\n      tag_12\n      jumpi\n      dup1\n      0xc171bdf7\n      eq\n      tag_7\n      jumpi\n      dup1\n      0xcb4389ce\n      eq\n      tag_8\n      jumpi\n      dup1\n      0xd1e992a7\n      eq\n      tag_9\n      jumpi\n      dup1\n      0xe3d87718\n      eq\n      tag_10\n      jumpi\n      dup1\n      0xe62fac27\n      eq\n      tag_11\n      jumpi\n      jump(tag_2)\n    tag_12:\n      dup1\n      0x3f489f\n      eq\n      tag_3\n      jumpi\n      dup1\n      0x0366cef2\n      eq\n      tag_4\n      jumpi\n      dup1\n      0x3c45fe31\n      eq\n      tag_5\n      jumpi\n      dup1\n      0x9ac78879\n      eq\n      tag_6\n      jumpi\n    tag_2:\n      0x00\n      dup1\n      revert\n        /* \"contracts/Conflict.sol\":3228:3427  function deleteConflict(uint256 projectNumber, uint256 serviceNumber, uint256 milestoneNumber) external {... */\n    tag_3:\n      tag_13\n      0x04\n      dup1\n      calldatasize\n      sub\n      dup2\n      add\n      swap1\n      tag_14\n      swap2\n      swap1\n      tag_15\n      jump\t// in\n    tag_14:\n      tag_16\n      jump\t// in\n    tag_13:\n      stop\n        /* \"contracts/Conflict.sol\":5140:5764  function getResults(uint256 projectNumber, uint256 serviceNumber, uint256 milestoneNumber) public view returns (uint) {... */\n    tag_4:\n      tag_17\n      0x04\n      dup1\n      calldatasize\n      sub\n      dup2\n      add\n      swap1\n      tag_18\n      swap2\n      swap1\n      tag_15\n      jump\t// in\n    tag_18:\n      tag_19\n      jump\t// in\n    tag_17:\n      mload(0x40)\n      tag_20\n      swap2\n      swap1\n      tag_21\n      jump\t// in\n    tag_20:\n      mload(0x40)\n      dup1\n      swap2\n      sub\n      swap1\n      return\n        /* \"contracts/Conflict.sol\":6006:6229  function getVotesCollected(uint256 projectNumber, uint256 serviceNumber, uint256 milestoneNumber) public view returns (uint256) {... */\n    tag_5:\n      tag_22\n      0x04\n      dup1\n      calldatasize\n      sub\n      dup2\n      add\n      swap1\n      tag_23\n      swap2\n      swap1\n      tag_15\n      jump\t// in\n    tag_23:\n      tag_24\n      jump\t// in\n    tag_22:\n      mload(0x40)\n      tag_25\n      swap2\n      swap1\n      tag_21\n      jump\t// in\n    tag_25:\n      mload(0x40)\n      dup1\n      swap2\n      sub\n      swap1\n      return\n        /* \"contracts/Conflict.sol\":6467:6691  function getVotesforProvider(uint256 projectNumber, uint256 serviceNumber, uint256 milestoneNumber) public view returns (uint256) {... */\n    tag_6:\n      tag_26\n      0x04\n      dup1\n      calldatasize\n      sub\n      dup2\n      add\n      swap1\n      tag_27\n      swap2\n      swap1\n      tag_15\n      jump\t// in\n    tag_27:\n      tag_28\n      jump\t// in\n    tag_26:\n      mload(0x40)\n      tag_29\n      swap2\n      swap1\n      tag_21\n      jump\t// in\n    tag_29:\n      mload(0x40)\n      dup1\n      swap2\n      sub\n      swap1\n      return\n        /* \"contracts/Conflict.sol\":3472:5102  function voteConflict(uint256 projectNumber, uint256 serviceNumber, uint256 milestoneNumber, address sender, uint8 vote) public {... */\n    tag_7:\n      tag_30\n      0x04\n      dup1\n      calldatasize\n      sub\n      dup2\n      add\n      swap1\n      tag_31\n      swap2\n      swap1\n      tag_32\n      jump\t// in\n    tag_31:\n      tag_33\n      jump\t// in\n    tag_30:\n      stop\n        /* \"contracts/Conflict.sol\":5770:6000  function getConflictStatus(uint256 projectNumber, uint256 serviceNumber, uint256 milestoneNumber) public view returns (ConflictStatus) {... */\n    tag_8:\n      tag_34\n      0x04\n      dup1\n      calldatasize\n      sub\n      dup2\n      add\n      swap1\n      tag_35\n      swap2\n      swap1\n      tag_15\n      jump\t// in\n    tag_35:\n      tag_36\n      jump\t// in\n    tag_34:\n      mload(0x40)\n      tag_37\n      swap2\n      swap1\n      tag_38\n      jump\t// in\n    tag_37:\n      mload(0x40)\n      dup1\n      swap2\n      sub\n      swap1\n      return\n        /* \"contracts/Conflict.sol\":2849:3180  function updateConflict(uint256 projectNumber, uint256 serviceNumber, uint256 milestoneNumber, string memory title, string memory description) external {... */\n    tag_9:\n      tag_39\n      0x04\n      dup1\n      calldatasize\n      sub\n      dup2\n      add\n      swap1\n      tag_40\n      swap2\n      swap1\n      tag_41\n      jump\t// in\n    tag_40:\n      tag_42\n      jump\t// in\n    tag_39:\n      stop\n        /* \"contracts/Conflict.sol\":6235:6461  function getVotesforRequester(uint256 projectNumber, uint256 serviceNumber, uint256 milestoneNumber) public view returns (uint256) {... */\n    tag_10:\n      tag_43\n      0x04\n      dup1\n      calldatasize\n      sub\n      dup2\n      add\n      swap1\n      tag_44\n      swap2\n      swap1\n      tag_15\n      jump\t// in\n    tag_44:\n      tag_45\n      jump\t// in\n    tag_43:\n      mload(0x40)\n      tag_46\n      swap2\n      swap1\n      tag_21\n      jump\t// in\n    tag_46:\n      mload(0x40)\n      dup1\n      swap2\n      sub\n      swap1\n      return\n        /* \"contracts/Conflict.sol\":1496:2802  function createConflict(uint256 projectNumber, uint256 serviceNumber, uint256 milestoneNumber, string memory title, string memory description, address serviceRequester, address serviceProvider,  uint256 totalVoters) public {... */\n    tag_11:\n      tag_47\n      0x04\n      dup1\n      calldatasize\n      sub\n      dup2\n      add\n      swap1\n      tag_48\n      swap2\n      swap1\n      tag_49\n      jump\t// in\n    tag_48:\n      tag_50\n      jump\t// in\n    tag_47:\n      stop\n        /* \"contracts/Conflict.sol\":3228:3427  function deleteConflict(uint256 projectNumber, uint256 serviceNumber, uint256 milestoneNumber) external {... */\n    tag_16:\n        /* \"contracts/Conflict.sol\":3407:3412  false */\n      0x00\n        /* \"contracts/Conflict.sol\":3342:3351  conflicts */\n      dup1\n        /* \"contracts/Conflict.sol\":3342:3366  conflicts[projectNumber] */\n      0x00\n        /* \"contracts/Conflict.sol\":3352:3365  projectNumber */\n      dup6\n        /* \"contracts/Conflict.sol\":3342:3366  conflicts[projectNumber] */\n      dup2\n      mstore\n      0x20\n      add\n      swap1\n      dup2\n      mstore\n      0x20\n      add\n      0x00\n      keccak256\n        /* \"contracts/Conflict.sol\":3342:3381  conflicts[projectNumber][serviceNumber] */\n      0x00\n        /* \"contracts/Conflict.sol\":3367:3380  serviceNumber */\n      dup5\n        /* \"contracts/Conflict.sol\":3342:3381  conflicts[projectNumber][serviceNumber] */\n      dup2\n      mstore\n      0x20\n      add\n      swap1\n      dup2\n      mstore\n      0x20\n      add\n      0x00\n      keccak256\n        /* \"contracts/Conflict.sol\":3342:3398  conflicts[projectNumber][serviceNumber][milestoneNumber] */\n      0x00\n        /* \"contracts/Conflict.sol\":3382:3397  milestoneNumber */\n      dup4\n        /* \"contracts/Conflict.sol\":3342:3398  conflicts[projectNumber][serviceNumber][milestoneNumber] */\n      dup2\n      mstore\n      0x20\n      add\n      swap1\n      dup2\n      mstore\n      0x20\n      add\n      0x00\n      keccak256\n        /* \"contracts/Conflict.sol\":3342:3404  conflicts[projectNumber][serviceNumber][milestoneNumber].exist */\n      0x0b\n      add\n      0x00\n        /* \"contracts/Conflict.sol\":3342:3412  conflicts[projectNumber][serviceNumber][milestoneNumber].exist = false */\n      0x0100\n      exp\n      dup2\n      sload\n      dup2\n      0xff\n      mul\n      not\n      and\n      swap1\n      dup4\n      iszero\n      iszero\n      mul\n      or\n      swap1\n      sstore\n      pop\n        /* \"contracts/Conflict.sol\":3228:3427  function deleteConflict(uint256 projectNumber, uint256 serviceNumber, uint256 milestoneNumber) external {... */\n      pop\n      pop\n      pop\n      jump\t// out\n        /* \"contracts/Conflict.sol\":5140:5764  function getResults(uint256 projectNumber, uint256 serviceNumber, uint256 milestoneNumber) public view returns (uint) {... */\n    tag_19:\n        /* \"contracts/Conflict.sol\":5252:5256  uint */\n      0x00\n        /* \"contracts/Conflict.sol\":5351:5360  conflicts */\n      dup1\n        /* \"contracts/Conflict.sol\":5351:5375  conflicts[projectNumber] */\n      0x00\n        /* \"contracts/Conflict.sol\":5361:5374  projectNumber */\n      dup6\n        /* \"contracts/Conflict.sol\":5351:5375  conflicts[projectNumber] */\n      dup2\n      mstore\n      0x20\n      add\n      swap1\n      dup2\n      mstore\n      0x20\n      add\n      0x00\n      keccak256\n        /* \"contracts/Conflict.sol\":5351:5390  conflicts[projectNumber][serviceNumber] */\n      0x00\n        /* \"contracts/Conflict.sol\":5376:5389  serviceNumber */\n      dup5\n        /* \"contracts/Conflict.sol\":5351:5390  conflicts[projectNumber][serviceNumber] */\n      dup2\n      mstore\n      0x20\n      add\n      swap1\n      dup2\n      mstore\n      0x20\n      add\n      0x00\n      keccak256\n        /* \"contracts/Conflict.sol\":5351:5407  conflicts[projectNumber][serviceNumber][milestoneNumber] */\n      0x00\n        /* \"contracts/Conflict.sol\":5391:5406  milestoneNumber */\n      dup4\n        /* \"contracts/Conflict.sol\":5351:5407  conflicts[projectNumber][serviceNumber][milestoneNumber] */\n      dup2\n      mstore\n      0x20\n      add\n      swap1\n      dup2\n      mstore\n      0x20\n      add\n      0x00\n      keccak256\n        /* \"contracts/Conflict.sol\":5351:5414  conflicts[projectNumber][serviceNumber][milestoneNumber].voters */\n      0x07\n      add\n      sload\n        /* \"contracts/Conflict.sol\":5276:5285  conflicts */\n      0x00\n        /* \"contracts/Conflict.sol\":5276:5300  conflicts[projectNumber] */\n      dup1\n        /* \"contracts/Conflict.sol\":5286:5299  projectNumber */\n      dup7\n        /* \"contracts/Conflict.sol\":5276:5300  conflicts[projectNumber] */\n      dup2\n      mstore\n      0x20\n      add\n      swap1\n      dup2\n      mstore\n      0x20\n      add\n      0x00\n      keccak256\n        /* \"contracts/Conflict.sol\":5276:5315  conflicts[projectNumber][serviceNumber] */\n      0x00\n        /* \"contracts/Conflict.sol\":5301:5314  serviceNumber */\n      dup6\n        /* \"contracts/Conflict.sol\":5276:5315  conflicts[projectNumber][serviceNumber] */\n      dup2\n      mstore\n      0x20\n      add\n      swap1\n      dup2\n      mstore\n      0x20\n      add\n      0x00\n      keccak256\n        /* \"contracts/Conflict.sol\":5276:5332  conflicts[projectNumber][serviceNumber][milestoneNumber] */\n      0x00\n        /* \"contracts/Conflict.sol\":5316:5331  milestoneNumber */\n      dup5\n        /* \"contracts/Conflict.sol\":5276:5332  conflicts[projectNumber][serviceNumber][milestoneNumber] */\n      dup2\n      mstore\n      0x20\n      add\n      swap1\n      dup2\n      mstore\n      0x20\n      add\n      0x00\n      keccak256\n        /* \"contracts/Conflict.sol\":5276:5347  conflicts[projectNumber][serviceNumber][milestoneNumber].votesCollected */\n      0x08\n      add\n      sload\n        /* \"contracts/Conflict.sol\":5276:5414  conflicts[projectNumber][serviceNumber][milestoneNumber].votesCollected == conflicts[projectNumber][serviceNumber][milestoneNumber].voters */\n      eq\n        /* \"contracts/Conflict.sol\":5268:5493  require(conflicts[projectNumber][serviceNumber][milestoneNumber].votesCollected == conflicts[projectNumber][serviceNumber][milestoneNumber].voters, \"Not everyone has voted, please prompt all other members of project to vote\") */\n      tag_53\n      jumpi\n      mload(0x40)\n      0x08c379a000000000000000000000000000000000000000000000000000000000\n      dup2\n      mstore\n      0x04\n      add\n      tag_54\n      swap1\n      tag_55\n      jump\t// in\n    tag_54:\n      mload(0x40)\n      dup1\n      swap2\n      sub\n      swap1\n      revert\n    tag_53:\n        /* \"contracts/Conflict.sol\":5586:5610  ConflictStatus.completed */\n      0x02\n        /* \"contracts/Conflict.sol\":5511:5610  conflicts[projectNumber][serviceNumber][milestoneNumber].conflictstatus == ConflictStatus.completed */\n      dup1\n      dup2\n      gt\n      iszero\n      tag_56\n      jumpi\n      tag_57\n      tag_58\n      jump\t// in\n    tag_57:\n    tag_56:\n        /* \"contracts/Conflict.sol\":5511:5520  conflicts */\n      0x00\n        /* \"contracts/Conflict.sol\":5511:5535  conflicts[projectNumber] */\n      dup1\n        /* \"contracts/Conflict.sol\":5521:5534  projectNumber */\n      dup7\n        /* \"contracts/Conflict.sol\":5511:5535  conflicts[projectNumber] */\n      dup2\n      mstore\n      0x20\n      add\n      swap1\n      dup2\n      mstore\n      0x20\n      add\n      0x00\n      keccak256\n        /* \"contracts/Conflict.sol\":5511:5550  conflicts[projectNumber][serviceNumber] */\n      0x00\n        /* \"contracts/Conflict.sol\":5536:5549  serviceNumber */\n      dup6\n        /* \"contracts/Conflict.sol\":5511:5550  conflicts[projectNumber][serviceNumber] */\n      dup2\n      mstore\n      0x20\n      add\n      swap1\n      dup2\n      mstore\n      0x20\n      add\n      0x00\n      keccak256\n        /* \"contracts/Conflict.sol\":5511:5567  conflicts[projectNumber][serviceNumber][milestoneNumber] */\n      0x00\n        /* \"contracts/Conflict.sol\":5551:5566  milestoneNumber */\n      dup5\n        /* \"contracts/Conflict.sol\":5511:5567  conflicts[projectNumber][serviceNumber][milestoneNumber] */\n      dup2\n      mstore\n      0x20\n      add\n      swap1\n      dup2\n      mstore\n      0x20\n      add\n      0x00\n      keccak256\n        /* \"contracts/Conflict.sol\":5511:5582  conflicts[projectNumber][serviceNumber][milestoneNumber].conflictstatus */\n      0x06\n      add\n      0x14\n      swap1\n      sload\n      swap1\n      0x0100\n      exp\n      swap1\n      div\n      0xff\n      and\n        /* \"contracts/Conflict.sol\":5511:5610  conflicts[projectNumber][serviceNumber][milestoneNumber].conflictstatus == ConflictStatus.completed */\n      0x02\n      dup2\n      gt\n      iszero\n      tag_59\n      jumpi\n      tag_60\n      tag_58\n      jump\t// in\n    tag_60:\n    tag_59:\n      eq\n        /* \"contracts/Conflict.sol\":5503:5676  require(conflicts[projectNumber][serviceNumber][milestoneNumber].conflictstatus == ConflictStatus.completed, \"Voting has not been completed yet. Please wait for it to end.\") */\n      tag_61\n      jumpi\n      mload(0x40)\n      0x08c379a000000000000000000000000000000000000000000000000000000000\n      dup2\n      mstore\n      0x04\n      add\n      tag_62\n      swap1\n      tag_63\n      jump\t// in\n    tag_62:\n      mload(0x40)\n      dup1\n      swap2\n      sub\n      swap1\n      revert\n    tag_61:\n        /* \"contracts/Conflict.sol\":5694:5703  conflicts */\n      0x00\n        /* \"contracts/Conflict.sol\":5694:5718  conflicts[projectNumber] */\n      dup1\n        /* \"contracts/Conflict.sol\":5704:5717  projectNumber */\n      dup6\n        /* \"contracts/Conflict.sol\":5694:5718  conflicts[projectNumber] */\n      dup2\n      mstore\n      0x20\n      add\n      swap1\n      dup2\n      mstore\n      0x20\n      add\n      0x00\n      keccak256\n        /* \"contracts/Conflict.sol\":5694:5733  conflicts[projectNumber][serviceNumber] */\n      0x00\n        /* \"contracts/Conflict.sol\":5719:5732  serviceNumber */\n      dup5\n        /* \"contracts/Conflict.sol\":5694:5733  conflicts[projectNumber][serviceNumber] */\n      dup2\n      mstore\n      0x20\n      add\n      swap1\n      dup2\n      mstore\n      0x20\n      add\n      0x00\n      keccak256\n        /* \"contracts/Conflict.sol\":5694:5750  conflicts[projectNumber][serviceNumber][milestoneNumber] */\n      0x00\n        /* \"contracts/Conflict.sol\":5734:5749  milestoneNumber */\n      dup4\n        /* \"contracts/Conflict.sol\":5694:5750  conflicts[projectNumber][serviceNumber][milestoneNumber] */\n      dup2\n      mstore\n      0x20\n      add\n      swap1\n      dup2\n      mstore\n      0x20\n      add\n      0x00\n      keccak256\n        /* \"contracts/Conflict.sol\":5694:5757  conflicts[projectNumber][serviceNumber][milestoneNumber].result */\n      0x0b\n      add\n      0x01\n      swap1\n      sload\n      swap1\n      0x0100\n      exp\n      swap1\n      div\n      0xff\n      and\n        /* \"contracts/Conflict.sol\":5687:5757  return conflicts[projectNumber][serviceNumber][milestoneNumber].result */\n      0xff\n      and\n      swap1\n      pop\n        /* \"contracts/Conflict.sol\":5140:5764  function getResults(uint256 projectNumber, uint256 serviceNumber, uint256 milestoneNumber) public view returns (uint) {... */\n      swap4\n      swap3\n      pop\n      pop\n      pop\n      jump\t// out\n        /* \"contracts/Conflict.sol\":6006:6229  function getVotesCollected(uint256 projectNumber, uint256 serviceNumber, uint256 milestoneNumber) public view returns (uint256) {... */\n    tag_24:\n        /* \"contracts/Conflict.sol\":6125:6132  uint256 */\n      0x00\n        /* \"contracts/Conflict.sol\":6151:6160  conflicts */\n      dup1\n        /* \"contracts/Conflict.sol\":6151:6175  conflicts[projectNumber] */\n      0x00\n        /* \"contracts/Conflict.sol\":6161:6174  projectNumber */\n      dup6\n        /* \"contracts/Conflict.sol\":6151:6175  conflicts[projectNumber] */\n      dup2\n      mstore\n      0x20\n      add\n      swap1\n      dup2\n      mstore\n      0x20\n      add\n      0x00\n      keccak256\n        /* \"contracts/Conflict.sol\":6151:6190  conflicts[projectNumber][serviceNumber] */\n      0x00\n        /* \"contracts/Conflict.sol\":6176:6189  serviceNumber */\n      dup5\n        /* \"contracts/Conflict.sol\":6151:6190  conflicts[projectNumber][serviceNumber] */\n      dup2\n      mstore\n      0x20\n      add\n      swap1\n      dup2\n      mstore\n      0x20\n      add\n      0x00\n      keccak256\n        /* \"contracts/Conflict.sol\":6151:6207  conflicts[projectNumber][serviceNumber][milestoneNumber] */\n      0x00\n        /* \"contracts/Conflict.sol\":6191:6206  milestoneNumber */\n      dup4\n        /* \"contracts/Conflict.sol\":6151:6207  conflicts[projectNumber][serviceNumber][milestoneNumber] */\n      dup2\n      mstore\n      0x20\n      add\n      swap1\n      dup2\n      mstore\n      0x20\n      add\n      0x00\n      keccak256\n        /* \"contracts/Conflict.sol\":6151:6222  conflicts[projectNumber][serviceNumber][milestoneNumber].votesCollected */\n      0x08\n      add\n      sload\n        /* \"contracts/Conflict.sol\":6144:6222  return conflicts[projectNumber][serviceNumber][milestoneNumber].votesCollected */\n      swap1\n      pop\n        /* \"contracts/Conflict.sol\":6006:6229  function getVotesCollected(uint256 projectNumber, uint256 serviceNumber, uint256 milestoneNumber) public view returns (uint256) {... */\n      swap4\n      swap3\n      pop\n      pop\n      pop\n      jump\t// out\n        /* \"contracts/Conflict.sol\":6467:6691  function getVotesforProvider(uint256 projectNumber, uint256 serviceNumber, uint256 milestoneNumber) public view returns (uint256) {... */\n    tag_28:\n        /* \"contracts/Conflict.sol\":6588:6595  uint256 */\n      0x00\n        /* \"contracts/Conflict.sol\":6614:6623  conflicts */\n      dup1\n        /* \"contracts/Conflict.sol\":6614:6638  conflicts[projectNumber] */\n      0x00\n        /* \"contracts/Conflict.sol\":6624:6637  projectNumber */\n      dup6\n        /* \"contracts/Conflict.sol\":6614:6638  conflicts[projectNumber] */\n      dup2\n      mstore\n      0x20\n      add\n      swap1\n      dup2\n      mstore\n      0x20\n      add\n      0x00\n      keccak256\n        /* \"contracts/Conflict.sol\":6614:6653  conflicts[projectNumber][serviceNumber] */\n      0x00\n        /* \"contracts/Conflict.sol\":6639:6652  serviceNumber */\n      dup5\n        /* \"contracts/Conflict.sol\":6614:6653  conflicts[projectNumber][serviceNumber] */\n      dup2\n      mstore\n      0x20\n      add\n      swap1\n      dup2\n      mstore\n      0x20\n      add\n      0x00\n      keccak256\n        /* \"contracts/Conflict.sol\":6614:6670  conflicts[projectNumber][serviceNumber][milestoneNumber] */\n      0x00\n        /* \"contracts/Conflict.sol\":6654:6669  milestoneNumber */\n      dup4\n        /* \"contracts/Conflict.sol\":6614:6670  conflicts[projectNumber][serviceNumber][milestoneNumber] */\n      dup2\n      mstore\n      0x20\n      add\n      swap1\n      dup2\n      mstore\n      0x20\n      add\n      0x00\n      keccak256\n        /* \"contracts/Conflict.sol\":6614:6684  conflicts[projectNumber][serviceNumber][milestoneNumber].providerVotes */\n      0x0a\n      add\n      sload\n        /* \"contracts/Conflict.sol\":6607:6684  return conflicts[projectNumber][serviceNumber][milestoneNumber].providerVotes */\n      swap1\n      pop\n        /* \"contracts/Conflict.sol\":6467:6691  function getVotesforProvider(uint256 projectNumber, uint256 serviceNumber, uint256 milestoneNumber) public view returns (uint256) {... */\n      swap4\n      swap3\n      pop\n      pop\n      pop\n      jump\t// out\n        /* \"contracts/Conflict.sol\":3472:5102  function voteConflict(uint256 projectNumber, uint256 serviceNumber, uint256 milestoneNumber, address sender, uint8 vote) public {... */\n    tag_33:\n        /* \"contracts/Conflict.sol\":3695:3701  sender */\n      dup2\n        /* \"contracts/Conflict.sol\":3618:3701  conflicts[projectNumber][serviceNumber][milestoneNumber].serviceRequester != sender */\n      0xffffffffffffffffffffffffffffffffffffffff\n      and\n        /* \"contracts/Conflict.sol\":3618:3627  conflicts */\n      0x00\n        /* \"contracts/Conflict.sol\":3618:3642  conflicts[projectNumber] */\n      dup1\n        /* \"contracts/Conflict.sol\":3628:3641  projectNumber */\n      dup8\n        /* \"contracts/Conflict.sol\":3618:3642  conflicts[projectNumber] */\n      dup2\n      mstore\n      0x20\n      add\n      swap1\n      dup2\n      mstore\n      0x20\n      add\n      0x00\n      keccak256\n        /* \"contracts/Conflict.sol\":3618:3657  conflicts[projectNumber][serviceNumber] */\n      0x00\n        /* \"contracts/Conflict.sol\":3643:3656  serviceNumber */\n      dup7\n        /* \"contracts/Conflict.sol\":3618:3657  conflicts[projectNumber][serviceNumber] */\n      dup2\n      mstore\n      0x20\n      add\n      swap1\n      dup2\n      mstore\n      0x20\n      add\n      0x00\n      keccak256\n        /* \"contracts/Conflict.sol\":3618:3674  conflicts[projectNumber][serviceNumber][milestoneNumber] */\n      0x00\n        /* \"contracts/Conflict.sol\":3658:3673  milestoneNumber */\n      dup6\n        /* \"contracts/Conflict.sol\":3618:3674  conflicts[projectNumber][serviceNumber][milestoneNumber] */\n      dup2\n      mstore\n      0x20\n      add\n      swap1\n      dup2\n      mstore\n      0x20\n      add\n      0x00\n      keccak256\n        /* \"contracts/Conflict.sol\":3618:3691  conflicts[projectNumber][serviceNumber][milestoneNumber].serviceRequester */\n      0x05\n      add\n      0x00\n      swap1\n      sload\n      swap1\n      0x0100\n      exp\n      swap1\n      div\n      0xffffffffffffffffffffffffffffffffffffffff\n      and\n        /* \"contracts/Conflict.sol\":3618:3701  conflicts[projectNumber][serviceNumber][milestoneNumber].serviceRequester != sender */\n      0xffffffffffffffffffffffffffffffffffffffff\n      and\n      eq\n      iszero\n        /* \"contracts/Conflict.sol\":3610:3755  require(conflicts[projectNumber][serviceNumber][milestoneNumber].serviceRequester != sender , \"You raised this conflict. You cannot vote on it.\") */\n      tag_67\n      jumpi\n      mload(0x40)\n      0x08c379a000000000000000000000000000000000000000000000000000000000\n      dup2\n      mstore\n      0x04\n      add\n      tag_68\n      swap1\n      tag_69\n      jump\t// in\n    tag_68:\n      mload(0x40)\n      dup1\n      swap2\n      sub\n      swap1\n      revert\n    tag_67:\n        /* \"contracts/Conflict.sol\":3849:3855  sender */\n      dup2\n        /* \"contracts/Conflict.sol\":3773:3855  conflicts[projectNumber][serviceNumber][milestoneNumber].serviceProvider != sender */\n      0xffffffffffffffffffffffffffffffffffffffff\n      and\n        /* \"contracts/Conflict.sol\":3773:3782  conflicts */\n      0x00\n        /* \"contracts/Conflict.sol\":3773:3797  conflicts[projectNumber] */\n      dup1\n        /* \"contracts/Conflict.sol\":3783:3796  projectNumber */\n      dup8\n        /* \"contracts/Conflict.sol\":3773:3797  conflicts[projectNumber] */\n      dup2\n      mstore\n      0x20\n      add\n      swap1\n      dup2\n      mstore\n      0x20\n      add\n      0x00\n      keccak256\n        /* \"contracts/Conflict.sol\":3773:3812  conflicts[projectNumber][serviceNumber] */\n      0x00\n        /* \"contracts/Conflict.sol\":3798:3811  serviceNumber */\n      dup7\n        /* \"contracts/Conflict.sol\":3773:3812  conflicts[projectNumber][serviceNumber] */\n      dup2\n      mstore\n      0x20\n      add\n      swap1\n      dup2\n      mstore\n      0x20\n      add\n      0x00\n      keccak256\n        /* \"contracts/Conflict.sol\":3773:3829  conflicts[projectNumber][serviceNumber][milestoneNumber] */\n      0x00\n        /* \"contracts/Conflict.sol\":3813:3828  milestoneNumber */\n      dup6\n        /* \"contracts/Conflict.sol\":3773:3829  conflicts[projectNumber][serviceNumber][milestoneNumber] */\n      dup2\n      mstore\n      0x20\n      add\n      swap1\n      dup2\n      mstore\n      0x20\n      add\n      0x00\n      keccak256\n        /* \"contracts/Conflict.sol\":3773:3845  conflicts[projectNumber][serviceNumber][milestoneNumber].serviceProvider */\n      0x06\n      add\n      0x00\n      swap1\n      sload\n      swap1\n      0x0100\n      exp\n      swap1\n      div\n      0xffffffffffffffffffffffffffffffffffffffff\n      and\n        /* \"contracts/Conflict.sol\":3773:3855  conflicts[projectNumber][serviceNumber][milestoneNumber].serviceProvider != sender */\n      0xffffffffffffffffffffffffffffffffffffffff\n      and\n      eq\n      iszero\n        /* \"contracts/Conflict.sol\":3765:3917  require(conflicts[projectNumber][serviceNumber][milestoneNumber].serviceProvider != sender, \"You are involved in this conflict. You cannot vote on it.\") */\n      tag_70\n      jumpi\n      mload(0x40)\n      0x08c379a000000000000000000000000000000000000000000000000000000000\n      dup2\n      mstore\n      0x04\n      add\n      tag_71\n      swap1\n      tag_72\n      jump\t// in\n    tag_71:\n      mload(0x40)\n      dup1\n      swap2\n      sub\n      swap1\n      revert\n    tag_70:\n        /* \"contracts/Conflict.sol\":4018:4027  conflicts */\n      0x00\n        /* \"contracts/Conflict.sol\":4018:4042  conflicts[projectNumber] */\n      dup1\n        /* \"contracts/Conflict.sol\":4028:4041  projectNumber */\n      dup7\n        /* \"contracts/Conflict.sol\":4018:4042  conflicts[projectNumber] */\n      dup2\n      mstore\n      0x20\n      add\n      swap1\n      dup2\n      mstore\n      0x20\n      add\n      0x00\n      keccak256\n        /* \"contracts/Conflict.sol\":4018:4057  conflicts[projectNumber][serviceNumber] */\n      0x00\n        /* \"contracts/Conflict.sol\":4043:4056  serviceNumber */\n      dup6\n        /* \"contracts/Conflict.sol\":4018:4057  conflicts[projectNumber][serviceNumber] */\n      dup2\n      mstore\n      0x20\n      add\n      swap1\n      dup2\n      mstore\n      0x20\n      add\n      0x00\n      keccak256\n        /* \"contracts/Conflict.sol\":4018:4074  conflicts[projectNumber][serviceNumber][milestoneNumber] */\n      0x00\n        /* \"contracts/Conflict.sol\":4058:4073  milestoneNumber */\n      dup5\n        /* \"contracts/Conflict.sol\":4018:4074  conflicts[projectNumber][serviceNumber][milestoneNumber] */\n      dup2\n      mstore\n      0x20\n      add\n      swap1\n      dup2\n      mstore\n      0x20\n      add\n      0x00\n      keccak256\n        /* \"contracts/Conflict.sol\":4018:4081  conflicts[projectNumber][serviceNumber][milestoneNumber].voters */\n      0x07\n      add\n      sload\n        /* \"contracts/Conflict.sol\":3944:3953  conflicts */\n      0x00\n        /* \"contracts/Conflict.sol\":3944:3968  conflicts[projectNumber] */\n      dup1\n        /* \"contracts/Conflict.sol\":3954:3967  projectNumber */\n      dup8\n        /* \"contracts/Conflict.sol\":3944:3968  conflicts[projectNumber] */\n      dup2\n      mstore\n      0x20\n      add\n      swap1\n      dup2\n      mstore\n      0x20\n      add\n      0x00\n      keccak256\n        /* \"contracts/Conflict.sol\":3944:3983  conflicts[projectNumber][serviceNumber] */\n      0x00\n        /* \"contracts/Conflict.sol\":3969:3982  serviceNumber */\n      dup7\n        /* \"contracts/Conflict.sol\":3944:3983  conflicts[projectNumber][serviceNumber] */\n      dup2\n      mstore\n      0x20\n      add\n      swap1\n      dup2\n      mstore\n      0x20\n      add\n      0x00\n      keccak256\n        /* \"contracts/Conflict.sol\":3944:4000  conflicts[projectNumber][serviceNumber][milestoneNumber] */\n      0x00\n        /* \"contracts/Conflict.sol\":3984:3999  milestoneNumber */\n      dup6\n        /* \"contracts/Conflict.sol\":3944:4000  conflicts[projectNumber][serviceNumber][milestoneNumber] */\n      dup2\n      mstore\n      0x20\n      add\n      swap1\n      dup2\n      mstore\n      0x20\n      add\n      0x00\n      keccak256\n        /* \"contracts/Conflict.sol\":3944:4015  conflicts[projectNumber][serviceNumber][milestoneNumber].votesCollected */\n      0x08\n      add\n      sload\n        /* \"contracts/Conflict.sol\":3944:4081  conflicts[projectNumber][serviceNumber][milestoneNumber].votesCollected < conflicts[projectNumber][serviceNumber][milestoneNumber].voters */\n      lt\n        /* \"contracts/Conflict.sol\":3936:4118  require(conflicts[projectNumber][serviceNumber][milestoneNumber].votesCollected < conflicts[projectNumber][serviceNumber][milestoneNumber].voters, \"Enough votes have been collected\") */\n      tag_73\n      jumpi\n      mload(0x40)\n      0x08c379a000000000000000000000000000000000000000000000000000000000\n      dup2\n      mstore\n      0x04\n      add\n      tag_74\n      swap1\n      tag_75\n      jump\t// in\n    tag_74:\n      mload(0x40)\n      dup1\n      swap2\n      sub\n      swap1\n      revert\n    tag_73:\n        /* \"contracts/Conflict.sol\":4210:4211  0 */\n      0x00\n        /* \"contracts/Conflict.sol\":4136:4145  conflicts */\n      dup1\n        /* \"contracts/Conflict.sol\":4136:4160  conflicts[projectNumber] */\n      0x00\n        /* \"contracts/Conflict.sol\":4146:4159  projectNumber */\n      dup8\n        /* \"contracts/Conflict.sol\":4136:4160  conflicts[projectNumber] */\n      dup2\n      mstore\n      0x20\n      add\n      swap1\n      dup2\n      mstore\n      0x20\n      add\n      0x00\n      keccak256\n        /* \"contracts/Conflict.sol\":4136:4175  conflicts[projectNumber][serviceNumber] */\n      0x00\n        /* \"contracts/Conflict.sol\":4161:4174  serviceNumber */\n      dup7\n        /* \"contracts/Conflict.sol\":4136:4175  conflicts[projectNumber][serviceNumber] */\n      dup2\n      mstore\n      0x20\n      add\n      swap1\n      dup2\n      mstore\n      0x20\n      add\n      0x00\n      keccak256\n        /* \"contracts/Conflict.sol\":4136:4192  conflicts[projectNumber][serviceNumber][milestoneNumber] */\n      0x00\n        /* \"contracts/Conflict.sol\":4176:4191  milestoneNumber */\n      dup6\n        /* \"contracts/Conflict.sol\":4136:4192  conflicts[projectNumber][serviceNumber][milestoneNumber] */\n      dup2\n      mstore\n      0x20\n      add\n      swap1\n      dup2\n      mstore\n      0x20\n      add\n      0x00\n      keccak256\n        /* \"contracts/Conflict.sol\":4136:4198  conflicts[projectNumber][serviceNumber][milestoneNumber].votes */\n      0x0c\n      add\n        /* \"contracts/Conflict.sol\":4136:4206  conflicts[projectNumber][serviceNumber][milestoneNumber].votes[sender] */\n      0x00\n        /* \"contracts/Conflict.sol\":4199:4205  sender */\n      dup5\n        /* \"contracts/Conflict.sol\":4136:4206  conflicts[projectNumber][serviceNumber][milestoneNumber].votes[sender] */\n      0xffffffffffffffffffffffffffffffffffffffff\n      and\n      0xffffffffffffffffffffffffffffffffffffffff\n      and\n      dup2\n      mstore\n      0x20\n      add\n      swap1\n      dup2\n      mstore\n      0x20\n      add\n      0x00\n      keccak256\n      0x00\n      swap1\n      sload\n      swap1\n      0x0100\n      exp\n      swap1\n      div\n      0xff\n      and\n        /* \"contracts/Conflict.sol\":4136:4211  conflicts[projectNumber][serviceNumber][milestoneNumber].votes[sender] == 0 */\n      0xff\n      and\n      eq\n        /* \"contracts/Conflict.sol\":4128:4262  require(conflicts[projectNumber][serviceNumber][milestoneNumber].votes[sender] == 0 , \"You have already voted, you cannot vote again\") */\n      tag_76\n      jumpi\n      mload(0x40)\n      0x08c379a000000000000000000000000000000000000000000000000000000000\n      dup2\n      mstore\n      0x04\n      add\n      tag_77\n      swap1\n      tag_78\n      jump\t// in\n    tag_77:\n      mload(0x40)\n      dup1\n      swap2\n      sub\n      swap1\n      revert\n    tag_76:\n        /* \"contracts/Conflict.sol\":4288:4289  1 */\n      0x01\n        /* \"contracts/Conflict.sol\":4280:4284  vote */\n      dup2\n        /* \"contracts/Conflict.sol\":4280:4289  vote == 1 */\n      0xff\n      and\n      eq\n        /* \"contracts/Conflict.sol\":4280:4302  vote == 1 || vote == 2 */\n      dup1\n      tag_79\n      jumpi\n      pop\n        /* \"contracts/Conflict.sol\":4301:4302  2 */\n      0x02\n        /* \"contracts/Conflict.sol\":4293:4297  vote */\n      dup2\n        /* \"contracts/Conflict.sol\":4293:4302  vote == 2 */\n      0xff\n      and\n      eq\n        /* \"contracts/Conflict.sol\":4280:4302  vote == 1 || vote == 2 */\n    tag_79:\n        /* \"contracts/Conflict.sol\":4272:4394  require(vote == 1 || vote == 2, \"You have not input a right vote. You can either vote 1 for Requester or 2 for Provider.\") */\n      tag_80\n      jumpi\n      mload(0x40)\n      0x08c379a000000000000000000000000000000000000000000000000000000000\n      dup2\n      mstore\n      0x04\n      add\n      tag_81\n      swap1\n      tag_82\n      jump\t// in\n    tag_81:\n      mload(0x40)\n      dup1\n      swap2\n      sub\n      swap1\n      revert\n    tag_80:\n        /* \"contracts/Conflict.sol\":4405:4423  conflict storage C */\n      0x00\n        /* \"contracts/Conflict.sol\":4426:4435  conflicts */\n      dup1\n        /* \"contracts/Conflict.sol\":4426:4450  conflicts[projectNumber] */\n      0x00\n        /* \"contracts/Conflict.sol\":4436:4449  projectNumber */\n      dup8\n        /* \"contracts/Conflict.sol\":4426:4450  conflicts[projectNumber] */\n      dup2\n      mstore\n      0x20\n      add\n      swap1\n      dup2\n      mstore\n      0x20\n      add\n      0x00\n      keccak256\n        /* \"contracts/Conflict.sol\":4426:4465  conflicts[projectNumber][serviceNumber] */\n      0x00\n        /* \"contracts/Conflict.sol\":4451:4464  serviceNumber */\n      dup7\n        /* \"contracts/Conflict.sol\":4426:4465  conflicts[projectNumber][serviceNumber] */\n      dup2\n      mstore\n      0x20\n      add\n      swap1\n      dup2\n      mstore\n      0x20\n      add\n      0x00\n      keccak256\n        /* \"contracts/Conflict.sol\":4426:4482  conflicts[projectNumber][serviceNumber][milestoneNumber] */\n      0x00\n        /* \"contracts/Conflict.sol\":4466:4481  milestoneNumber */\n      dup6\n        /* \"contracts/Conflict.sol\":4426:4482  conflicts[projectNumber][serviceNumber][milestoneNumber] */\n      dup2\n      mstore\n      0x20\n      add\n      swap1\n      dup2\n      mstore\n      0x20\n      add\n      0x00\n      keccak256\n        /* \"contracts/Conflict.sol\":4405:4482  conflict storage C = conflicts[projectNumber][serviceNumber][milestoneNumber] */\n      swap1\n      pop\n        /* \"contracts/Conflict.sol\":4510:4514  vote */\n      dup2\n        /* \"contracts/Conflict.sol\":4492:4493  C */\n      dup2\n        /* \"contracts/Conflict.sol\":4492:4499  C.votes */\n      0x0c\n      add\n        /* \"contracts/Conflict.sol\":4492:4507  C.votes[sender] */\n      0x00\n        /* \"contracts/Conflict.sol\":4500:4506  sender */\n      dup6\n        /* \"contracts/Conflict.sol\":4492:4507  C.votes[sender] */\n      0xffffffffffffffffffffffffffffffffffffffff\n      and\n      0xffffffffffffffffffffffffffffffffffffffff\n      and\n      dup2\n      mstore\n      0x20\n      add\n      swap1\n      dup2\n      mstore\n      0x20\n      add\n      0x00\n      keccak256\n      0x00\n        /* \"contracts/Conflict.sol\":4492:4514  C.votes[sender] = vote */\n      0x0100\n      exp\n      dup2\n      sload\n      dup2\n      0xff\n      mul\n      not\n      and\n      swap1\n      dup4\n      0xff\n      and\n      mul\n      or\n      swap1\n      sstore\n      pop\n        /* \"contracts/Conflict.sol\":4537:4538  1 */\n      0x01\n        /* \"contracts/Conflict.sol\":4529:4533  vote */\n      dup3\n        /* \"contracts/Conflict.sol\":4529:4538  vote == 1 */\n      0xff\n      and\n      eq\n        /* \"contracts/Conflict.sol\":4525:4563  if (vote == 1) { C.requesterVotes++; } */\n      iszero\n      tag_83\n      jumpi\n        /* \"contracts/Conflict.sol\":4542:4543  C */\n      dup1\n        /* \"contracts/Conflict.sol\":4542:4558  C.requesterVotes */\n      0x09\n      add\n      0x00\n        /* \"contracts/Conflict.sol\":4542:4560  C.requesterVotes++ */\n      dup2\n      sload\n      dup1\n      swap3\n      swap2\n      swap1\n      tag_84\n      swap1\n      tag_85\n      jump\t// in\n    tag_84:\n      swap2\n      swap1\n      pop\n      sstore\n      pop\n        /* \"contracts/Conflict.sol\":4525:4563  if (vote == 1) { C.requesterVotes++; } */\n    tag_83:\n        /* \"contracts/Conflict.sol\":4584:4585  2 */\n      0x02\n        /* \"contracts/Conflict.sol\":4576:4580  vote */\n      dup3\n        /* \"contracts/Conflict.sol\":4576:4585  vote == 2 */\n      0xff\n      and\n      eq\n        /* \"contracts/Conflict.sol\":4572:4609  if (vote == 2) { C.providerVotes++; } */\n      iszero\n      tag_86\n      jumpi\n        /* \"contracts/Conflict.sol\":4589:4590  C */\n      dup1\n        /* \"contracts/Conflict.sol\":4589:4604  C.providerVotes */\n      0x0a\n      add\n      0x00\n        /* \"contracts/Conflict.sol\":4589:4606  C.providerVotes++ */\n      dup2\n      sload\n      dup1\n      swap3\n      swap2\n      swap1\n      tag_87\n      swap1\n      tag_85\n      jump\t// in\n    tag_87:\n      swap2\n      swap1\n      pop\n      sstore\n      pop\n        /* \"contracts/Conflict.sol\":4572:4609  if (vote == 2) { C.providerVotes++; } */\n    tag_86:\n        /* \"contracts/Conflict.sol\":4618:4619  C */\n      dup1\n        /* \"contracts/Conflict.sol\":4618:4634  C.votesCollected */\n      0x08\n      add\n      0x00\n        /* \"contracts/Conflict.sol\":4618:4636  C.votesCollected++ */\n      dup2\n      sload\n      dup1\n      swap3\n      swap2\n      swap1\n      tag_88\n      swap1\n      tag_85\n      jump\t// in\n    tag_88:\n      swap2\n      swap1\n      pop\n      sstore\n      pop\n        /* \"contracts/Conflict.sol\":4652:4730  conflictVoted(projectNumber, serviceNumber, milestoneNumber, msg.sender, vote) */\n      0x20211b974adbe11ce3687d51504ce7ef1fcfbb9c00405ba7aca7b283903f345a\n        /* \"contracts/Conflict.sol\":4666:4679  projectNumber */\n      dup7\n        /* \"contracts/Conflict.sol\":4681:4694  serviceNumber */\n      dup7\n        /* \"contracts/Conflict.sol\":4696:4711  milestoneNumber */\n      dup7\n        /* \"contracts/Conflict.sol\":4713:4723  msg.sender */\n      caller\n        /* \"contracts/Conflict.sol\":4725:4729  vote */\n      dup7\n        /* \"contracts/Conflict.sol\":4652:4730  conflictVoted(projectNumber, serviceNumber, milestoneNumber, msg.sender, vote) */\n      mload(0x40)\n      tag_89\n      swap6\n      swap5\n      swap4\n      swap3\n      swap2\n      swap1\n      tag_90\n      jump\t// in\n    tag_89:\n      mload(0x40)\n      dup1\n      swap2\n      sub\n      swap1\n      log1\n        /* \"contracts/Conflict.sol\":4765:4766  C */\n      dup1\n        /* \"contracts/Conflict.sol\":4765:4773  C.voters */\n      0x07\n      add\n      sload\n        /* \"contracts/Conflict.sol\":4745:4746  C */\n      dup2\n        /* \"contracts/Conflict.sol\":4745:4761  C.votesCollected */\n      0x08\n      add\n      sload\n        /* \"contracts/Conflict.sol\":4745:4773  C.votesCollected == C.voters */\n      eq\n        /* \"contracts/Conflict.sol\":4741:5096  if (C.votesCollected == C.voters) {... */\n      iszero\n      tag_91\n      jumpi\n        /* \"contracts/Conflict.sol\":4811:4812  C */\n      dup1\n        /* \"contracts/Conflict.sol\":4811:4827  C.requesterVotes */\n      0x09\n      add\n      sload\n        /* \"contracts/Conflict.sol\":4793:4794  C */\n      dup2\n        /* \"contracts/Conflict.sol\":4793:4808  C.providerVotes */\n      0x0a\n      add\n      sload\n        /* \"contracts/Conflict.sol\":4793:4827  C.providerVotes > C.requesterVotes */\n      gt\n        /* \"contracts/Conflict.sol\":4789:4878  if (C.providerVotes > C.requesterVotes) {C.result = 2; }... */\n      iszero\n      tag_92\n      jumpi\n        /* \"contracts/Conflict.sol\":4841:4842  2 */\n      0x02\n        /* \"contracts/Conflict.sol\":4830:4831  C */\n      dup2\n        /* \"contracts/Conflict.sol\":4830:4838  C.result */\n      0x0b\n      add\n      0x01\n        /* \"contracts/Conflict.sol\":4830:4842  C.result = 2 */\n      0x0100\n      exp\n      dup2\n      sload\n      dup2\n      0xff\n      mul\n      not\n      and\n      swap1\n      dup4\n      0xff\n      and\n      mul\n      or\n      swap1\n      sstore\n      pop\n        /* \"contracts/Conflict.sol\":4789:4878  if (C.providerVotes > C.requesterVotes) {C.result = 2; }... */\n      jump(tag_93)\n    tag_92:\n        /* \"contracts/Conflict.sol\":4875:4876  1 */\n      0x01\n        /* \"contracts/Conflict.sol\":4864:4865  C */\n      dup2\n        /* \"contracts/Conflict.sol\":4864:4872  C.result */\n      0x0b\n      add\n      0x01\n        /* \"contracts/Conflict.sol\":4864:4876  C.result = 1 */\n      0x0100\n      exp\n      dup2\n      sload\n      dup2\n      0xff\n      mul\n      not\n      and\n      swap1\n      dup4\n      0xff\n      and\n      mul\n      or\n      swap1\n      sstore\n      pop\n        /* \"contracts/Conflict.sol\":4789:4878  if (C.providerVotes > C.requesterVotes) {C.result = 2; }... */\n    tag_93:\n        /* \"contracts/Conflict.sol\":4970:4994  ConflictStatus.completed */\n      0x02\n        /* \"contracts/Conflict.sol\":4951:4952  C */\n      dup2\n        /* \"contracts/Conflict.sol\":4951:4967  C.conflictstatus */\n      0x06\n      add\n      0x14\n        /* \"contracts/Conflict.sol\":4951:4994  C.conflictstatus = ConflictStatus.completed */\n      0x0100\n      exp\n      dup2\n      sload\n      dup2\n      0xff\n      mul\n      not\n      and\n      swap1\n      dup4\n      0x02\n      dup2\n      gt\n      iszero\n      tag_94\n      jumpi\n      tag_95\n      tag_58\n      jump\t// in\n    tag_95:\n    tag_94:\n      mul\n      or\n      swap1\n      sstore\n      pop\n        /* \"contracts/Conflict.sol\":5014:5085  conflictResult(projectNumber, serviceNumber, milestoneNumber, C.result) */\n      0xe59fdbc65a5dd63c529717c2a71d04b136038f05301755de242dd05990c02814\n        /* \"contracts/Conflict.sol\":5029:5042  projectNumber */\n      dup7\n        /* \"contracts/Conflict.sol\":5044:5057  serviceNumber */\n      dup7\n        /* \"contracts/Conflict.sol\":5059:5074  milestoneNumber */\n      dup7\n        /* \"contracts/Conflict.sol\":5076:5077  C */\n      dup5\n        /* \"contracts/Conflict.sol\":5076:5084  C.result */\n      0x0b\n      add\n      0x01\n      swap1\n      sload\n      swap1\n      0x0100\n      exp\n      swap1\n      div\n      0xff\n      and\n        /* \"contracts/Conflict.sol\":5014:5085  conflictResult(projectNumber, serviceNumber, milestoneNumber, C.result) */\n      mload(0x40)\n      tag_96\n      swap5\n      swap4\n      swap3\n      swap2\n      swap1\n      tag_97\n      jump\t// in\n    tag_96:\n      mload(0x40)\n      dup1\n      swap2\n      sub\n      swap1\n      log1\n        /* \"contracts/Conflict.sol\":4741:5096  if (C.votesCollected == C.voters) {... */\n    tag_91:\n        /* \"contracts/Conflict.sol\":3600:5102  {... */\n      pop\n        /* \"contracts/Conflict.sol\":3472:5102  function voteConflict(uint256 projectNumber, uint256 serviceNumber, uint256 milestoneNumber, address sender, uint8 vote) public {... */\n      pop\n      pop\n      pop\n      pop\n      pop\n      jump\t// out\n        /* \"contracts/Conflict.sol\":5770:6000  function getConflictStatus(uint256 projectNumber, uint256 serviceNumber, uint256 milestoneNumber) public view returns (ConflictStatus) {... */\n    tag_36:\n        /* \"contracts/Conflict.sol\":5889:5903  ConflictStatus */\n      0x00\n        /* \"contracts/Conflict.sol\":5922:5931  conflicts */\n      dup1\n        /* \"contracts/Conflict.sol\":5922:5946  conflicts[projectNumber] */\n      0x00\n        /* \"contracts/Conflict.sol\":5932:5945  projectNumber */\n      dup6\n        /* \"contracts/Conflict.sol\":5922:5946  conflicts[projectNumber] */\n      dup2\n      mstore\n      0x20\n      add\n      swap1\n      dup2\n      mstore\n      0x20\n      add\n      0x00\n      keccak256\n        /* \"contracts/Conflict.sol\":5922:5961  conflicts[projectNumber][serviceNumber] */\n      0x00\n        /* \"contracts/Conflict.sol\":5947:5960  serviceNumber */\n      dup5\n        /* \"contracts/Conflict.sol\":5922:5961  conflicts[projectNumber][serviceNumber] */\n      dup2\n      mstore\n      0x20\n      add\n      swap1\n      dup2\n      mstore\n      0x20\n      add\n      0x00\n      keccak256\n        /* \"contracts/Conflict.sol\":5922:5978  conflicts[projectNumber][serviceNumber][milestoneNumber] */\n      0x00\n        /* \"contracts/Conflict.sol\":5962:5977  milestoneNumber */\n      dup4\n        /* \"contracts/Conflict.sol\":5922:5978  conflicts[projectNumber][serviceNumber][milestoneNumber] */\n      dup2\n      mstore\n      0x20\n      add\n      swap1\n      dup2\n      mstore\n      0x20\n      add\n      0x00\n      keccak256\n        /* \"contracts/Conflict.sol\":5922:5993  conflicts[projectNumber][serviceNumber][milestoneNumber].conflictstatus */\n      0x06\n      add\n      0x14\n      swap1\n      sload\n      swap1\n      0x0100\n      exp\n      swap1\n      div\n      0xff\n      and\n        /* \"contracts/Conflict.sol\":5915:5993  return conflicts[projectNumber][serviceNumber][milestoneNumber].conflictstatus */\n      swap1\n      pop\n        /* \"contracts/Conflict.sol\":5770:6000  function getConflictStatus(uint256 projectNumber, uint256 serviceNumber, uint256 milestoneNumber) public view returns (ConflictStatus) {... */\n      swap4\n      swap3\n      pop\n      pop\n      pop\n      jump\t// out\n        /* \"contracts/Conflict.sol\":2849:3180  function updateConflict(uint256 projectNumber, uint256 serviceNumber, uint256 milestoneNumber, string memory title, string memory description) external {... */\n    tag_42:\n        /* \"contracts/Conflict.sol\":3076:3081  title */\n      dup2\n        /* \"contracts/Conflict.sol\":3011:3020  conflicts */\n      0x00\n        /* \"contracts/Conflict.sol\":3011:3035  conflicts[projectNumber] */\n      dup1\n        /* \"contracts/Conflict.sol\":3021:3034  projectNumber */\n      dup8\n        /* \"contracts/Conflict.sol\":3011:3035  conflicts[projectNumber] */\n      dup2\n      mstore\n      0x20\n      add\n      swap1\n      dup2\n      mstore\n      0x20\n      add\n      0x00\n      keccak256\n        /* \"contracts/Conflict.sol\":3011:3050  conflicts[projectNumber][serviceNumber] */\n      0x00\n        /* \"contracts/Conflict.sol\":3036:3049  serviceNumber */\n      dup7\n        /* \"contracts/Conflict.sol\":3011:3050  conflicts[projectNumber][serviceNumber] */\n      dup2\n      mstore\n      0x20\n      add\n      swap1\n      dup2\n      mstore\n      0x20\n      add\n      0x00\n      keccak256\n        /* \"contracts/Conflict.sol\":3011:3067  conflicts[projectNumber][serviceNumber][milestoneNumber] */\n      0x00\n        /* \"contracts/Conflict.sol\":3051:3066  milestoneNumber */\n      dup6\n        /* \"contracts/Conflict.sol\":3011:3067  conflicts[projectNumber][serviceNumber][milestoneNumber] */\n      dup2\n      mstore\n      0x20\n      add\n      swap1\n      dup2\n      mstore\n      0x20\n      add\n      0x00\n      keccak256\n        /* \"contracts/Conflict.sol\":3011:3073  conflicts[projectNumber][serviceNumber][milestoneNumber].title */\n      0x03\n      add\n        /* \"contracts/Conflict.sol\":3011:3081  conflicts[projectNumber][serviceNumber][milestoneNumber].title = title */\n      swap1\n      dup1\n      mload\n      swap1\n      0x20\n      add\n      swap1\n      tag_100\n      swap3\n      swap2\n      swap1\n      tag_101\n      jump\t// in\n    tag_100:\n      pop\n        /* \"contracts/Conflict.sol\":3162:3173  description */\n      dup1\n        /* \"contracts/Conflict.sol\":3091:3100  conflicts */\n      0x00\n        /* \"contracts/Conflict.sol\":3091:3115  conflicts[projectNumber] */\n      dup1\n        /* \"contracts/Conflict.sol\":3101:3114  projectNumber */\n      dup8\n        /* \"contracts/Conflict.sol\":3091:3115  conflicts[projectNumber] */\n      dup2\n      mstore\n      0x20\n      add\n      swap1\n      dup2\n      mstore\n      0x20\n      add\n      0x00\n      keccak256\n        /* \"contracts/Conflict.sol\":3091:3130  conflicts[projectNumber][serviceNumber] */\n      0x00\n        /* \"contracts/Conflict.sol\":3116:3129  serviceNumber */\n      dup7\n        /* \"contracts/Conflict.sol\":3091:3130  conflicts[projectNumber][serviceNumber] */\n      dup2\n      mstore\n      0x20\n      add\n      swap1\n      dup2\n      mstore\n      0x20\n      add\n      0x00\n      keccak256\n        /* \"contracts/Conflict.sol\":3091:3147  conflicts[projectNumber][serviceNumber][milestoneNumber] */\n      0x00\n        /* \"contracts/Conflict.sol\":3131:3146  milestoneNumber */\n      dup6\n        /* \"contracts/Conflict.sol\":3091:3147  conflicts[projectNumber][serviceNumber][milestoneNumber] */\n      dup2\n      mstore\n      0x20\n      add\n      swap1\n      dup2\n      mstore\n      0x20\n      add\n      0x00\n      keccak256\n        /* \"contracts/Conflict.sol\":3091:3159  conflicts[projectNumber][serviceNumber][milestoneNumber].description */\n      0x04\n      add\n        /* \"contracts/Conflict.sol\":3091:3173  conflicts[projectNumber][serviceNumber][milestoneNumber].description = description */\n      swap1\n      dup1\n      mload\n      swap1\n      0x20\n      add\n      swap1\n      tag_102\n      swap3\n      swap2\n      swap1\n      tag_101\n      jump\t// in\n    tag_102:\n      pop\n        /* \"contracts/Conflict.sol\":2849:3180  function updateConflict(uint256 projectNumber, uint256 serviceNumber, uint256 milestoneNumber, string memory title, string memory description) external {... */\n      pop\n      pop\n      pop\n      pop\n      pop\n      jump\t// out\n        /* \"contracts/Conflict.sol\":6235:6461  function getVotesforRequester(uint256 projectNumber, uint256 serviceNumber, uint256 milestoneNumber) public view returns (uint256) {... */\n    tag_45:\n        /* \"contracts/Conflict.sol\":6357:6364  uint256 */\n      0x00\n        /* \"contracts/Conflict.sol\":6383:6392  conflicts */\n      dup1\n        /* \"contracts/Conflict.sol\":6383:6407  conflicts[projectNumber] */\n      0x00\n        /* \"contracts/Conflict.sol\":6393:6406  projectNumber */\n      dup6\n        /* \"contracts/Conflict.sol\":6383:6407  conflicts[projectNumber] */\n      dup2\n      mstore\n      0x20\n      add\n      swap1\n      dup2\n      mstore\n      0x20\n      add\n      0x00\n      keccak256\n        /* \"contracts/Conflict.sol\":6383:6422  conflicts[projectNumber][serviceNumber] */\n      0x00\n        /* \"contracts/Conflict.sol\":6408:6421  serviceNumber */\n      dup5\n        /* \"contracts/Conflict.sol\":6383:6422  conflicts[projectNumber][serviceNumber] */\n      dup2\n      mstore\n      0x20\n      add\n      swap1\n      dup2\n      mstore\n      0x20\n      add\n      0x00\n      keccak256\n        /* \"contracts/Conflict.sol\":6383:6439  conflicts[projectNumber][serviceNumber][milestoneNumber] */\n      0x00\n        /* \"contracts/Conflict.sol\":6423:6438  milestoneNumber */\n      dup4\n        /* \"contracts/Conflict.sol\":6383:6439  conflicts[projectNumber][serviceNumber][milestoneNumber] */\n      dup2\n      mstore\n      0x20\n      add\n      swap1\n      dup2\n      mstore\n      0x20\n      add\n      0x00\n      keccak256\n        /* \"contracts/Conflict.sol\":6383:6454  conflicts[projectNumber][serviceNumber][milestoneNumber].requesterVotes */\n      0x09\n      add\n      sload\n        /* \"contracts/Conflict.sol\":6376:6454  return conflicts[projectNumber][serviceNumber][milestoneNumber].requesterVotes */\n      swap1\n      pop\n        /* \"contracts/Conflict.sol\":6235:6461  function getVotesforRequester(uint256 projectNumber, uint256 serviceNumber, uint256 milestoneNumber) public view returns (uint256) {... */\n      swap4\n      swap3\n      pop\n      pop\n      pop\n      jump\t// out\n        /* \"contracts/Conflict.sol\":1496:2802  function createConflict(uint256 projectNumber, uint256 serviceNumber, uint256 milestoneNumber, string memory title, string memory description, address serviceRequester, address serviceProvider,  uint256 totalVoters) public {... */\n    tag_50:\n        /* \"contracts/Conflict.sol\":1803:1807  true */\n      0x01\n        /* \"contracts/Conflict.sol\":1737:1807  conflicts[projectNumber][serviceNumber][milestoneNumber].exist != true */\n      iszero\n      iszero\n        /* \"contracts/Conflict.sol\":1737:1746  conflicts */\n      0x00\n        /* \"contracts/Conflict.sol\":1737:1761  conflicts[projectNumber] */\n      dup1\n        /* \"contracts/Conflict.sol\":1747:1760  projectNumber */\n      dup11\n        /* \"contracts/Conflict.sol\":1737:1761  conflicts[projectNumber] */\n      dup2\n      mstore\n      0x20\n      add\n      swap1\n      dup2\n      mstore\n      0x20\n      add\n      0x00\n      keccak256\n        /* \"contracts/Conflict.sol\":1737:1776  conflicts[projectNumber][serviceNumber] */\n      0x00\n        /* \"contracts/Conflict.sol\":1762:1775  serviceNumber */\n      dup10\n        /* \"contracts/Conflict.sol\":1737:1776  conflicts[projectNumber][serviceNumber] */\n      dup2\n      mstore\n      0x20\n      add\n      swap1\n      dup2\n      mstore\n      0x20\n      add\n      0x00\n      keccak256\n        /* \"contracts/Conflict.sol\":1737:1793  conflicts[projectNumber][serviceNumber][milestoneNumber] */\n      0x00\n        /* \"contracts/Conflict.sol\":1777:1792  milestoneNumber */\n      dup9\n        /* \"contracts/Conflict.sol\":1737:1793  conflicts[projectNumber][serviceNumber][milestoneNumber] */\n      dup2\n      mstore\n      0x20\n      add\n      swap1\n      dup2\n      mstore\n      0x20\n      add\n      0x00\n      keccak256\n        /* \"contracts/Conflict.sol\":1737:1799  conflicts[projectNumber][serviceNumber][milestoneNumber].exist */\n      0x0b\n      add\n      0x00\n      swap1\n      sload\n      swap1\n      0x0100\n      exp\n      swap1\n      div\n      0xff\n      and\n        /* \"contracts/Conflict.sol\":1737:1807  conflicts[projectNumber][serviceNumber][milestoneNumber].exist != true */\n      iszero\n      iszero\n      eq\n      iszero\n        /* \"contracts/Conflict.sol\":1729:1890  require(conflicts[projectNumber][serviceNumber][milestoneNumber].exist != true , \"Conflict has already been created. Please do not create more than 1 conflict.\") */\n      tag_105\n      jumpi\n      mload(0x40)\n      0x08c379a000000000000000000000000000000000000000000000000000000000\n      dup2\n      mstore\n      0x04\n      add\n      tag_106\n      swap1\n      tag_107\n      jump\t// in\n    tag_106:\n      mload(0x40)\n      dup1\n      swap2\n      sub\n      swap1\n      revert\n    tag_105:\n        /* \"contracts/Conflict.sol\":1926:1954  conflict storage newConflict */\n      0x00\n        /* \"contracts/Conflict.sol\":1957:1966  conflicts */\n      dup1\n        /* \"contracts/Conflict.sol\":1957:1981  conflicts[projectNumber] */\n      0x00\n        /* \"contracts/Conflict.sol\":1967:1980  projectNumber */\n      dup11\n        /* \"contracts/Conflict.sol\":1957:1981  conflicts[projectNumber] */\n      dup2\n      mstore\n      0x20\n      add\n      swap1\n      dup2\n      mstore\n      0x20\n      add\n      0x00\n      keccak256\n        /* \"contracts/Conflict.sol\":1957:1996  conflicts[projectNumber][serviceNumber] */\n      0x00\n        /* \"contracts/Conflict.sol\":1982:1995  serviceNumber */\n      dup10\n        /* \"contracts/Conflict.sol\":1957:1996  conflicts[projectNumber][serviceNumber] */\n      dup2\n      mstore\n      0x20\n      add\n      swap1\n      dup2\n      mstore\n      0x20\n      add\n      0x00\n      keccak256\n        /* \"contracts/Conflict.sol\":1957:2013  conflicts[projectNumber][serviceNumber][milestoneNumber] */\n      0x00\n        /* \"contracts/Conflict.sol\":1997:2012  milestoneNumber */\n      dup9\n        /* \"contracts/Conflict.sol\":1957:2013  conflicts[projectNumber][serviceNumber][milestoneNumber] */\n      dup2\n      mstore\n      0x20\n      add\n      swap1\n      dup2\n      mstore\n      0x20\n      add\n      0x00\n      keccak256\n        /* \"contracts/Conflict.sol\":1926:2013  conflict storage newConflict = conflicts[projectNumber][serviceNumber][milestoneNumber] */\n      swap1\n      pop\n        /* \"contracts/Conflict.sol\":2051:2064  projectNumber */\n      dup9\n        /* \"contracts/Conflict.sol\":2023:2034  newConflict */\n      dup2\n        /* \"contracts/Conflict.sol\":2023:2048  newConflict.projectNumber */\n      0x00\n      add\n        /* \"contracts/Conflict.sol\":2023:2064  newConflict.projectNumber = projectNumber */\n      dup2\n      swap1\n      sstore\n      pop\n        /* \"contracts/Conflict.sol\":2107:2120  serviceNumber */\n      dup8\n        /* \"contracts/Conflict.sol\":2079:2090  newConflict */\n      dup2\n        /* \"contracts/Conflict.sol\":2079:2104  newConflict.serviceNumber */\n      0x01\n      add\n        /* \"contracts/Conflict.sol\":2079:2120  newConflict.serviceNumber = serviceNumber */\n      dup2\n      swap1\n      sstore\n      pop\n        /* \"contracts/Conflict.sol\":2168:2183  milestoneNumber */\n      dup7\n        /* \"contracts/Conflict.sol\":2138:2149  newConflict */\n      dup2\n        /* \"contracts/Conflict.sol\":2138:2165  newConflict.milestoneNumber */\n      0x02\n      add\n        /* \"contracts/Conflict.sol\":2138:2183  newConflict.milestoneNumber = milestoneNumber */\n      dup2\n      swap1\n      sstore\n      pop\n        /* \"contracts/Conflict.sol\":2213:2218  title */\n      dup6\n        /* \"contracts/Conflict.sol\":2193:2204  newConflict */\n      dup2\n        /* \"contracts/Conflict.sol\":2193:2210  newConflict.title */\n      0x03\n      add\n        /* \"contracts/Conflict.sol\":2193:2218  newConflict.title = title */\n      swap1\n      dup1\n      mload\n      swap1\n      0x20\n      add\n      swap1\n      tag_108\n      swap3\n      swap2\n      swap1\n      tag_101\n      jump\t// in\n    tag_108:\n      pop\n        /* \"contracts/Conflict.sol\":2254:2265  description */\n      dup5\n        /* \"contracts/Conflict.sol\":2228:2239  newConflict */\n      dup2\n        /* \"contracts/Conflict.sol\":2228:2251  newConflict.description */\n      0x04\n      add\n        /* \"contracts/Conflict.sol\":2228:2265  newConflict.description = description */\n      swap1\n      dup1\n      mload\n      swap1\n      0x20\n      add\n      swap1\n      tag_109\n      swap3\n      swap2\n      swap1\n      tag_101\n      jump\t// in\n    tag_109:\n      pop\n        /* \"contracts/Conflict.sol\":2306:2322  serviceRequester */\n      dup4\n        /* \"contracts/Conflict.sol\":2275:2286  newConflict */\n      dup2\n        /* \"contracts/Conflict.sol\":2275:2303  newConflict.serviceRequester */\n      0x05\n      add\n      0x00\n        /* \"contracts/Conflict.sol\":2275:2322  newConflict.serviceRequester = serviceRequester */\n      0x0100\n      exp\n      dup2\n      sload\n      dup2\n      0xffffffffffffffffffffffffffffffffffffffff\n      mul\n      not\n      and\n      swap1\n      dup4\n      0xffffffffffffffffffffffffffffffffffffffff\n      and\n      mul\n      or\n      swap1\n      sstore\n      pop\n        /* \"contracts/Conflict.sol\":2362:2377  serviceProvider */\n      dup3\n        /* \"contracts/Conflict.sol\":2332:2343  newConflict */\n      dup2\n        /* \"contracts/Conflict.sol\":2332:2359  newConflict.serviceProvider */\n      0x06\n      add\n      0x00\n        /* \"contracts/Conflict.sol\":2332:2377  newConflict.serviceProvider = serviceProvider */\n      0x0100\n      exp\n      dup2\n      sload\n      dup2\n      0xffffffffffffffffffffffffffffffffffffffff\n      mul\n      not\n      and\n      swap1\n      dup4\n      0xffffffffffffffffffffffffffffffffffffffff\n      and\n      mul\n      or\n      swap1\n      sstore\n      pop\n        /* \"contracts/Conflict.sol\":2416:2438  ConflictStatus.pending */\n      0x01\n        /* \"contracts/Conflict.sol\":2387:2398  newConflict */\n      dup2\n        /* \"contracts/Conflict.sol\":2387:2413  newConflict.conflictstatus */\n      0x06\n      add\n      0x14\n        /* \"contracts/Conflict.sol\":2387:2438  newConflict.conflictstatus = ConflictStatus.pending */\n      0x0100\n      exp\n      dup2\n      sload\n      dup2\n      0xff\n      mul\n      not\n      and\n      swap1\n      dup4\n      0x02\n      dup2\n      gt\n      iszero\n      tag_110\n      jumpi\n      tag_111\n      tag_58\n      jump\t// in\n    tag_111:\n    tag_110:\n      mul\n      or\n      swap1\n      sstore\n      pop\n        /* \"contracts/Conflict.sol\":2469:2480  totalVoters */\n      dup2\n        /* \"contracts/Conflict.sol\":2448:2459  newConflict */\n      dup2\n        /* \"contracts/Conflict.sol\":2448:2466  newConflict.voters */\n      0x07\n      add\n        /* \"contracts/Conflict.sol\":2448:2480  newConflict.voters = totalVoters */\n      dup2\n      swap1\n      sstore\n      pop\n        /* \"contracts/Conflict.sol\":2519:2520  0 */\n      0x00\n        /* \"contracts/Conflict.sol\":2490:2501  newConflict */\n      dup2\n        /* \"contracts/Conflict.sol\":2490:2516  newConflict.votesCollected */\n      0x08\n      add\n        /* \"contracts/Conflict.sol\":2490:2520  newConflict.votesCollected = 0 */\n      dup2\n      swap1\n      sstore\n      pop\n        /* \"contracts/Conflict.sol\":2559:2560  0 */\n      0x00\n        /* \"contracts/Conflict.sol\":2530:2541  newConflict */\n      dup2\n        /* \"contracts/Conflict.sol\":2530:2556  newConflict.requesterVotes */\n      0x09\n      add\n        /* \"contracts/Conflict.sol\":2530:2560  newConflict.requesterVotes = 0 */\n      dup2\n      swap1\n      sstore\n      pop\n        /* \"contracts/Conflict.sol\":2598:2599  0 */\n      0x00\n        /* \"contracts/Conflict.sol\":2570:2581  newConflict */\n      dup2\n        /* \"contracts/Conflict.sol\":2570:2595  newConflict.providerVotes */\n      0x0a\n      add\n        /* \"contracts/Conflict.sol\":2570:2599  newConflict.providerVotes = 0 */\n      dup2\n      swap1\n      sstore\n      pop\n        /* \"contracts/Conflict.sol\":2633:2637  true */\n      0x01\n        /* \"contracts/Conflict.sol\":2613:2624  newConflict */\n      dup2\n        /* \"contracts/Conflict.sol\":2613:2630  newConflict.exist */\n      0x0b\n      add\n      0x00\n        /* \"contracts/Conflict.sol\":2613:2637  newConflict.exist = true */\n      0x0100\n      exp\n      dup2\n      sload\n      dup2\n      0xff\n      mul\n      not\n      and\n      swap1\n      dup4\n      iszero\n      iszero\n      mul\n      or\n      swap1\n      sstore\n      pop\n        /* \"contracts/Conflict.sol\":2668:2669  0 */\n      0x00\n        /* \"contracts/Conflict.sol\":2647:2658  newConflict */\n      dup2\n        /* \"contracts/Conflict.sol\":2647:2665  newConflict.result */\n      0x0b\n      add\n      0x01\n        /* \"contracts/Conflict.sol\":2647:2669  newConflict.result = 0 */\n      0x0100\n      exp\n      dup2\n      sload\n      dup2\n      0xff\n      mul\n      not\n      and\n      swap1\n      dup4\n      0xff\n      and\n      mul\n      or\n      swap1\n      sstore\n      pop\n        /* \"contracts/Conflict.sol\":2685:2795  conflictCreated(projectNumber, serviceNumber, milestoneNumber, serviceRequester, serviceProvider, totalVoters) */\n      0xfa127411522a1139d16c2142db999e127aef2288bd98a0558006bb115666ab1b\n        /* \"contracts/Conflict.sol\":2701:2714  projectNumber */\n      dup10\n        /* \"contracts/Conflict.sol\":2716:2729  serviceNumber */\n      dup10\n        /* \"contracts/Conflict.sol\":2731:2746  milestoneNumber */\n      dup10\n        /* \"contracts/Conflict.sol\":2748:2764  serviceRequester */\n      dup8\n        /* \"contracts/Conflict.sol\":2766:2781  serviceProvider */\n      dup8\n        /* \"contracts/Conflict.sol\":2783:2794  totalVoters */\n      dup8\n        /* \"contracts/Conflict.sol\":2685:2795  conflictCreated(projectNumber, serviceNumber, milestoneNumber, serviceRequester, serviceProvider, totalVoters) */\n      mload(0x40)\n      tag_112\n      swap7\n      swap6\n      swap5\n      swap4\n      swap3\n      swap2\n      swap1\n      tag_113\n      jump\t// in\n    tag_112:\n      mload(0x40)\n      dup1\n      swap2\n      sub\n      swap1\n      log1\n        /* \"contracts/Conflict.sol\":1719:2802  {... */\n      pop\n        /* \"contracts/Conflict.sol\":1496:2802  function createConflict(uint256 projectNumber, uint256 serviceNumber, uint256 milestoneNumber, string memory title, string memory description, address serviceRequester, address serviceProvider,  uint256 totalVoters) public {... */\n      pop\n      pop\n      pop\n      pop\n      pop\n      pop\n      pop\n      pop\n      jump\t// out\n    tag_101:\n      dup3\n      dup1\n      sload\n      tag_114\n      swap1\n      tag_115\n      jump\t// in\n    tag_114:\n      swap1\n      0x00\n      mstore\n      keccak256(0x00, 0x20)\n      swap1\n      0x1f\n      add\n      0x20\n      swap1\n      div\n      dup2\n      add\n      swap3\n      dup3\n      tag_117\n      jumpi\n      0x00\n      dup6\n      sstore\n      jump(tag_116)\n    tag_117:\n      dup3\n      0x1f\n      lt\n      tag_118\n      jumpi\n      dup1\n      mload\n      not(0xff)\n      and\n      dup4\n      dup1\n      add\n      or\n      dup6\n      sstore\n      jump(tag_116)\n    tag_118:\n      dup3\n      dup1\n      add\n      0x01\n      add\n      dup6\n      sstore\n      dup3\n      iszero\n      tag_116\n      jumpi\n      swap2\n      dup3\n      add\n    tag_119:\n      dup3\n      dup2\n      gt\n      iszero\n      tag_120\n      jumpi\n      dup3\n      mload\n      dup3\n      sstore\n      swap2\n      0x20\n      add\n      swap2\n      swap1\n      0x01\n      add\n      swap1\n      jump(tag_119)\n    tag_120:\n    tag_116:\n      pop\n      swap1\n      pop\n      tag_121\n      swap2\n      swap1\n      tag_122\n      jump\t// in\n    tag_121:\n      pop\n      swap1\n      jump\t// out\n    tag_122:\n    tag_123:\n      dup1\n      dup3\n      gt\n      iszero\n      tag_124\n      jumpi\n      0x00\n      dup2\n      0x00\n      swap1\n      sstore\n      pop\n      0x01\n      add\n      jump(tag_123)\n    tag_124:\n      pop\n      swap1\n      jump\t// out\n        /* \"#utility.yul\":7:419   */\n    tag_126:\n        /* \"#utility.yul\":85:90   */\n      0x00\n        /* \"#utility.yul\":110:176   */\n      tag_128\n        /* \"#utility.yul\":126:175   */\n      tag_129\n        /* \"#utility.yul\":168:174   */\n      dup5\n        /* \"#utility.yul\":126:175   */\n      tag_130\n      jump\t// in\n    tag_129:\n        /* \"#utility.yul\":110:176   */\n      tag_131\n      jump\t// in\n    tag_128:\n        /* \"#utility.yul\":101:176   */\n      swap1\n      pop\n        /* \"#utility.yul\":199:205   */\n      dup3\n        /* \"#utility.yul\":192:197   */\n      dup2\n        /* \"#utility.yul\":185:206   */\n      mstore\n        /* \"#utility.yul\":237:241   */\n      0x20\n        /* \"#utility.yul\":230:235   */\n      dup2\n        /* \"#utility.yul\":226:242   */\n      add\n        /* \"#utility.yul\":275:278   */\n      dup5\n        /* \"#utility.yul\":266:272   */\n      dup5\n        /* \"#utility.yul\":261:264   */\n      dup5\n        /* \"#utility.yul\":257:273   */\n      add\n        /* \"#utility.yul\":254:279   */\n      gt\n        /* \"#utility.yul\":251:363   */\n      iszero\n      tag_132\n      jumpi\n        /* \"#utility.yul\":282:361   */\n      tag_133\n      tag_134\n      jump\t// in\n    tag_133:\n        /* \"#utility.yul\":251:363   */\n    tag_132:\n        /* \"#utility.yul\":372:413   */\n      tag_135\n        /* \"#utility.yul\":406:412   */\n      dup5\n        /* \"#utility.yul\":401:404   */\n      dup3\n        /* \"#utility.yul\":396:399   */\n      dup6\n        /* \"#utility.yul\":372:413   */\n      tag_136\n      jump\t// in\n    tag_135:\n        /* \"#utility.yul\":91:419   */\n      pop\n        /* \"#utility.yul\":7:419   */\n      swap4\n      swap3\n      pop\n      pop\n      pop\n      jump\t// out\n        /* \"#utility.yul\":425:564   */\n    tag_137:\n        /* \"#utility.yul\":471:476   */\n      0x00\n        /* \"#utility.yul\":509:515   */\n      dup2\n        /* \"#utility.yul\":496:516   */\n      calldataload\n        /* \"#utility.yul\":487:516   */\n      swap1\n      pop\n        /* \"#utility.yul\":525:558   */\n      tag_139\n        /* \"#utility.yul\":552:557   */\n      dup2\n        /* \"#utility.yul\":525:558   */\n      tag_140\n      jump\t// in\n    tag_139:\n        /* \"#utility.yul\":425:564   */\n      swap3\n      swap2\n      pop\n      pop\n      jump\t// out\n        /* \"#utility.yul\":584:924   */\n    tag_141:\n        /* \"#utility.yul\":640:645   */\n      0x00\n        /* \"#utility.yul\":689:692   */\n      dup3\n        /* \"#utility.yul\":682:686   */\n      0x1f\n        /* \"#utility.yul\":674:680   */\n      dup4\n        /* \"#utility.yul\":670:687   */\n      add\n        /* \"#utility.yul\":666:693   */\n      slt\n        /* \"#utility.yul\":656:778   */\n      tag_143\n      jumpi\n        /* \"#utility.yul\":697:776   */\n      tag_144\n      tag_145\n      jump\t// in\n    tag_144:\n        /* \"#utility.yul\":656:778   */\n    tag_143:\n        /* \"#utility.yul\":814:820   */\n      dup2\n        /* \"#utility.yul\":801:821   */\n      calldataload\n        /* \"#utility.yul\":839:918   */\n      tag_146\n        /* \"#utility.yul\":914:917   */\n      dup5\n        /* \"#utility.yul\":906:912   */\n      dup3\n        /* \"#utility.yul\":899:903   */\n      0x20\n        /* \"#utility.yul\":891:897   */\n      dup7\n        /* \"#utility.yul\":887:904   */\n      add\n        /* \"#utility.yul\":839:918   */\n      tag_126\n      jump\t// in\n    tag_146:\n        /* \"#utility.yul\":830:918   */\n      swap2\n      pop\n        /* \"#utility.yul\":646:924   */\n      pop\n        /* \"#utility.yul\":584:924   */\n      swap3\n      swap2\n      pop\n      pop\n      jump\t// out\n        /* \"#utility.yul\":930:1069   */\n    tag_147:\n        /* \"#utility.yul\":976:981   */\n      0x00\n        /* \"#utility.yul\":1014:1020   */\n      dup2\n        /* \"#utility.yul\":1001:1021   */\n      calldataload\n        /* \"#utility.yul\":992:1021   */\n      swap1\n      pop\n        /* \"#utility.yul\":1030:1063   */\n      tag_149\n        /* \"#utility.yul\":1057:1062   */\n      dup2\n        /* \"#utility.yul\":1030:1063   */\n      tag_150\n      jump\t// in\n    tag_149:\n        /* \"#utility.yul\":930:1069   */\n      swap3\n      swap2\n      pop\n      pop\n      jump\t// out\n        /* \"#utility.yul\":1075:1210   */\n    tag_151:\n        /* \"#utility.yul\":1119:1124   */\n      0x00\n        /* \"#utility.yul\":1157:1163   */\n      dup2\n        /* \"#utility.yul\":1144:1164   */\n      calldataload\n        /* \"#utility.yul\":1135:1164   */\n      swap1\n      pop\n        /* \"#utility.yul\":1173:1204   */\n      tag_153\n        /* \"#utility.yul\":1198:1203   */\n      dup2\n        /* \"#utility.yul\":1173:1204   */\n      tag_154\n      jump\t// in\n    tag_153:\n        /* \"#utility.yul\":1075:1210   */\n      swap3\n      swap2\n      pop\n      pop\n      jump\t// out\n        /* \"#utility.yul\":1216:1835   */\n    tag_15:\n        /* \"#utility.yul\":1293:1299   */\n      0x00\n        /* \"#utility.yul\":1301:1307   */\n      dup1\n        /* \"#utility.yul\":1309:1315   */\n      0x00\n        /* \"#utility.yul\":1358:1360   */\n      0x60\n        /* \"#utility.yul\":1346:1355   */\n      dup5\n        /* \"#utility.yul\":1337:1344   */\n      dup7\n        /* \"#utility.yul\":1333:1356   */\n      sub\n        /* \"#utility.yul\":1329:1361   */\n      slt\n        /* \"#utility.yul\":1326:1445   */\n      iszero\n      tag_156\n      jumpi\n        /* \"#utility.yul\":1364:1443   */\n      tag_157\n      tag_158\n      jump\t// in\n    tag_157:\n        /* \"#utility.yul\":1326:1445   */\n    tag_156:\n        /* \"#utility.yul\":1484:1485   */\n      0x00\n        /* \"#utility.yul\":1509:1562   */\n      tag_159\n        /* \"#utility.yul\":1554:1561   */\n      dup7\n        /* \"#utility.yul\":1545:1551   */\n      dup3\n        /* \"#utility.yul\":1534:1543   */\n      dup8\n        /* \"#utility.yul\":1530:1552   */\n      add\n        /* \"#utility.yul\":1509:1562   */\n      tag_147\n      jump\t// in\n    tag_159:\n        /* \"#utility.yul\":1499:1562   */\n      swap4\n      pop\n        /* \"#utility.yul\":1455:1572   */\n      pop\n        /* \"#utility.yul\":1611:1613   */\n      0x20\n        /* \"#utility.yul\":1637:1690   */\n      tag_160\n        /* \"#utility.yul\":1682:1689   */\n      dup7\n        /* \"#utility.yul\":1673:1679   */\n      dup3\n        /* \"#utility.yul\":1662:1671   */\n      dup8\n        /* \"#utility.yul\":1658:1680   */\n      add\n        /* \"#utility.yul\":1637:1690   */\n      tag_147\n      jump\t// in\n    tag_160:\n        /* \"#utility.yul\":1627:1690   */\n      swap3\n      pop\n        /* \"#utility.yul\":1582:1700   */\n      pop\n        /* \"#utility.yul\":1739:1741   */\n      0x40\n        /* \"#utility.yul\":1765:1818   */\n      tag_161\n        /* \"#utility.yul\":1810:1817   */\n      dup7\n        /* \"#utility.yul\":1801:1807   */\n      dup3\n        /* \"#utility.yul\":1790:1799   */\n      dup8\n        /* \"#utility.yul\":1786:1808   */\n      add\n        /* \"#utility.yul\":1765:1818   */\n      tag_147\n      jump\t// in\n    tag_161:\n        /* \"#utility.yul\":1755:1818   */\n      swap2\n      pop\n        /* \"#utility.yul\":1710:1828   */\n      pop\n        /* \"#utility.yul\":1216:1835   */\n      swap3\n      pop\n      swap3\n      pop\n      swap3\n      jump\t// out\n        /* \"#utility.yul\":1841:2748   */\n    tag_32:\n        /* \"#utility.yul\":1934:1940   */\n      0x00\n        /* \"#utility.yul\":1942:1948   */\n      dup1\n        /* \"#utility.yul\":1950:1956   */\n      0x00\n        /* \"#utility.yul\":1958:1964   */\n      dup1\n        /* \"#utility.yul\":1966:1972   */\n      0x00\n        /* \"#utility.yul\":2015:2018   */\n      0xa0\n        /* \"#utility.yul\":2003:2012   */\n      dup7\n        /* \"#utility.yul\":1994:2001   */\n      dup9\n        /* \"#utility.yul\":1990:2013   */\n      sub\n        /* \"#utility.yul\":1986:2019   */\n      slt\n        /* \"#utility.yul\":1983:2103   */\n      iszero\n      tag_163\n      jumpi\n        /* \"#utility.yul\":2022:2101   */\n      tag_164\n      tag_158\n      jump\t// in\n    tag_164:\n        /* \"#utility.yul\":1983:2103   */\n    tag_163:\n        /* \"#utility.yul\":2142:2143   */\n      0x00\n        /* \"#utility.yul\":2167:2220   */\n      tag_165\n        /* \"#utility.yul\":2212:2219   */\n      dup9\n        /* \"#utility.yul\":2203:2209   */\n      dup3\n        /* \"#utility.yul\":2192:2201   */\n      dup10\n        /* \"#utility.yul\":2188:2210   */\n      add\n        /* \"#utility.yul\":2167:2220   */\n      tag_147\n      jump\t// in\n    tag_165:\n        /* \"#utility.yul\":2157:2220   */\n      swap6\n      pop\n        /* \"#utility.yul\":2113:2230   */\n      pop\n        /* \"#utility.yul\":2269:2271   */\n      0x20\n        /* \"#utility.yul\":2295:2348   */\n      tag_166\n        /* \"#utility.yul\":2340:2347   */\n      dup9\n        /* \"#utility.yul\":2331:2337   */\n      dup3\n        /* \"#utility.yul\":2320:2329   */\n      dup10\n        /* \"#utility.yul\":2316:2338   */\n      add\n        /* \"#utility.yul\":2295:2348   */\n      tag_147\n      jump\t// in\n    tag_166:\n        /* \"#utility.yul\":2285:2348   */\n      swap5\n      pop\n        /* \"#utility.yul\":2240:2358   */\n      pop\n        /* \"#utility.yul\":2397:2399   */\n      0x40\n        /* \"#utility.yul\":2423:2476   */\n      tag_167\n        /* \"#utility.yul\":2468:2475   */\n      dup9\n        /* \"#utility.yul\":2459:2465   */\n      dup3\n        /* \"#utility.yul\":2448:2457   */\n      dup10\n        /* \"#utility.yul\":2444:2466   */\n      add\n        /* \"#utility.yul\":2423:2476   */\n      tag_147\n      jump\t// in\n    tag_167:\n        /* \"#utility.yul\":2413:2476   */\n      swap4\n      pop\n        /* \"#utility.yul\":2368:2486   */\n      pop\n        /* \"#utility.yul\":2525:2527   */\n      0x60\n        /* \"#utility.yul\":2551:2604   */\n      tag_168\n        /* \"#utility.yul\":2596:2603   */\n      dup9\n        /* \"#utility.yul\":2587:2593   */\n      dup3\n        /* \"#utility.yul\":2576:2585   */\n      dup10\n        /* \"#utility.yul\":2572:2594   */\n      add\n        /* \"#utility.yul\":2551:2604   */\n      tag_137\n      jump\t// in\n    tag_168:\n        /* \"#utility.yul\":2541:2604   */\n      swap3\n      pop\n        /* \"#utility.yul\":2496:2614   */\n      pop\n        /* \"#utility.yul\":2653:2656   */\n      0x80\n        /* \"#utility.yul\":2680:2731   */\n      tag_169\n        /* \"#utility.yul\":2723:2730   */\n      dup9\n        /* \"#utility.yul\":2714:2720   */\n      dup3\n        /* \"#utility.yul\":2703:2712   */\n      dup10\n        /* \"#utility.yul\":2699:2721   */\n      add\n        /* \"#utility.yul\":2680:2731   */\n      tag_151\n      jump\t// in\n    tag_169:\n        /* \"#utility.yul\":2670:2731   */\n      swap2\n      pop\n        /* \"#utility.yul\":2624:2741   */\n      pop\n        /* \"#utility.yul\":1841:2748   */\n      swap3\n      swap6\n      pop\n      swap3\n      swap6\n      swap1\n      swap4\n      pop\n      jump\t// out\n        /* \"#utility.yul\":2754:4025   */\n    tag_41:\n        /* \"#utility.yul\":2869:2875   */\n      0x00\n        /* \"#utility.yul\":2877:2883   */\n      dup1\n        /* \"#utility.yul\":2885:2891   */\n      0x00\n        /* \"#utility.yul\":2893:2899   */\n      dup1\n        /* \"#utility.yul\":2901:2907   */\n      0x00\n        /* \"#utility.yul\":2950:2953   */\n      0xa0\n        /* \"#utility.yul\":2938:2947   */\n      dup7\n        /* \"#utility.yul\":2929:2936   */\n      dup9\n        /* \"#utility.yul\":2925:2948   */\n      sub\n        /* \"#utility.yul\":2921:2954   */\n      slt\n        /* \"#utility.yul\":2918:3038   */\n      iszero\n      tag_171\n      jumpi\n        /* \"#utility.yul\":2957:3036   */\n      tag_172\n      tag_158\n      jump\t// in\n    tag_172:\n        /* \"#utility.yul\":2918:3038   */\n    tag_171:\n        /* \"#utility.yul\":3077:3078   */\n      0x00\n        /* \"#utility.yul\":3102:3155   */\n      tag_173\n        /* \"#utility.yul\":3147:3154   */\n      dup9\n        /* \"#utility.yul\":3138:3144   */\n      dup3\n        /* \"#utility.yul\":3127:3136   */\n      dup10\n        /* \"#utility.yul\":3123:3145   */\n      add\n        /* \"#utility.yul\":3102:3155   */\n      tag_147\n      jump\t// in\n    tag_173:\n        /* \"#utility.yul\":3092:3155   */\n      swap6\n      pop\n        /* \"#utility.yul\":3048:3165   */\n      pop\n        /* \"#utility.yul\":3204:3206   */\n      0x20\n        /* \"#utility.yul\":3230:3283   */\n      tag_174\n        /* \"#utility.yul\":3275:3282   */\n      dup9\n        /* \"#utility.yul\":3266:3272   */\n      dup3\n        /* \"#utility.yul\":3255:3264   */\n      dup10\n        /* \"#utility.yul\":3251:3273   */\n      add\n        /* \"#utility.yul\":3230:3283   */\n      tag_147\n      jump\t// in\n    tag_174:\n        /* \"#utility.yul\":3220:3283   */\n      swap5\n      pop\n        /* \"#utility.yul\":3175:3293   */\n      pop\n        /* \"#utility.yul\":3332:3334   */\n      0x40\n        /* \"#utility.yul\":3358:3411   */\n      tag_175\n        /* \"#utility.yul\":3403:3410   */\n      dup9\n        /* \"#utility.yul\":3394:3400   */\n      dup3\n        /* \"#utility.yul\":3383:3392   */\n      dup10\n        /* \"#utility.yul\":3379:3401   */\n      add\n        /* \"#utility.yul\":3358:3411   */\n      tag_147\n      jump\t// in\n    tag_175:\n        /* \"#utility.yul\":3348:3411   */\n      swap4\n      pop\n        /* \"#utility.yul\":3303:3421   */\n      pop\n        /* \"#utility.yul\":3488:3490   */\n      0x60\n        /* \"#utility.yul\":3477:3486   */\n      dup7\n        /* \"#utility.yul\":3473:3491   */\n      add\n        /* \"#utility.yul\":3460:3492   */\n      calldataload\n        /* \"#utility.yul\":3519:3537   */\n      0xffffffffffffffff\n        /* \"#utility.yul\":3511:3517   */\n      dup2\n        /* \"#utility.yul\":3508:3538   */\n      gt\n        /* \"#utility.yul\":3505:3622   */\n      iszero\n      tag_176\n      jumpi\n        /* \"#utility.yul\":3541:3620   */\n      tag_177\n      tag_178\n      jump\t// in\n    tag_177:\n        /* \"#utility.yul\":3505:3622   */\n    tag_176:\n        /* \"#utility.yul\":3646:3709   */\n      tag_179\n        /* \"#utility.yul\":3701:3708   */\n      dup9\n        /* \"#utility.yul\":3692:3698   */\n      dup3\n        /* \"#utility.yul\":3681:3690   */\n      dup10\n        /* \"#utility.yul\":3677:3699   */\n      add\n        /* \"#utility.yul\":3646:3709   */\n      tag_141\n      jump\t// in\n    tag_179:\n        /* \"#utility.yul\":3636:3709   */\n      swap3\n      pop\n        /* \"#utility.yul\":3431:3719   */\n      pop\n        /* \"#utility.yul\":3786:3789   */\n      0x80\n        /* \"#utility.yul\":3775:3784   */\n      dup7\n        /* \"#utility.yul\":3771:3790   */\n      add\n        /* \"#utility.yul\":3758:3791   */\n      calldataload\n        /* \"#utility.yul\":3818:3836   */\n      0xffffffffffffffff\n        /* \"#utility.yul\":3810:3816   */\n      dup2\n        /* \"#utility.yul\":3807:3837   */\n      gt\n        /* \"#utility.yul\":3804:3921   */\n      iszero\n      tag_180\n      jumpi\n        /* \"#utility.yul\":3840:3919   */\n      tag_181\n      tag_178\n      jump\t// in\n    tag_181:\n        /* \"#utility.yul\":3804:3921   */\n    tag_180:\n        /* \"#utility.yul\":3945:4008   */\n      tag_182\n        /* \"#utility.yul\":4000:4007   */\n      dup9\n        /* \"#utility.yul\":3991:3997   */\n      dup3\n        /* \"#utility.yul\":3980:3989   */\n      dup10\n        /* \"#utility.yul\":3976:3998   */\n      add\n        /* \"#utility.yul\":3945:4008   */\n      tag_141\n      jump\t// in\n    tag_182:\n        /* \"#utility.yul\":3935:4008   */\n      swap2\n      pop\n        /* \"#utility.yul\":3729:4018   */\n      pop\n        /* \"#utility.yul\":2754:4025   */\n      swap3\n      swap6\n      pop\n      swap3\n      swap6\n      swap1\n      swap4\n      pop\n      jump\t// out\n        /* \"#utility.yul\":4031:5740   */\n    tag_49:\n        /* \"#utility.yul\":4173:4179   */\n      0x00\n        /* \"#utility.yul\":4181:4187   */\n      dup1\n        /* \"#utility.yul\":4189:4195   */\n      0x00\n        /* \"#utility.yul\":4197:4203   */\n      dup1\n        /* \"#utility.yul\":4205:4211   */\n      0x00\n        /* \"#utility.yul\":4213:4219   */\n      dup1\n        /* \"#utility.yul\":4221:4227   */\n      0x00\n        /* \"#utility.yul\":4229:4235   */\n      dup1\n        /* \"#utility.yul\":4278:4281   */\n      0x0100\n        /* \"#utility.yul\":4266:4275   */\n      dup10\n        /* \"#utility.yul\":4257:4264   */\n      dup12\n        /* \"#utility.yul\":4253:4276   */\n      sub\n        /* \"#utility.yul\":4249:4282   */\n      slt\n        /* \"#utility.yul\":4246:4366   */\n      iszero\n      tag_184\n      jumpi\n        /* \"#utility.yul\":4285:4364   */\n      tag_185\n      tag_158\n      jump\t// in\n    tag_185:\n        /* \"#utility.yul\":4246:4366   */\n    tag_184:\n        /* \"#utility.yul\":4405:4406   */\n      0x00\n        /* \"#utility.yul\":4430:4483   */\n      tag_186\n        /* \"#utility.yul\":4475:4482   */\n      dup12\n        /* \"#utility.yul\":4466:4472   */\n      dup3\n        /* \"#utility.yul\":4455:4464   */\n      dup13\n        /* \"#utility.yul\":4451:4473   */\n      add\n        /* \"#utility.yul\":4430:4483   */\n      tag_147\n      jump\t// in\n    tag_186:\n        /* \"#utility.yul\":4420:4483   */\n      swap9\n      pop\n        /* \"#utility.yul\":4376:4493   */\n      pop\n        /* \"#utility.yul\":4532:4534   */\n      0x20\n        /* \"#utility.yul\":4558:4611   */\n      tag_187\n        /* \"#utility.yul\":4603:4610   */\n      dup12\n        /* \"#utility.yul\":4594:4600   */\n      dup3\n        /* \"#utility.yul\":4583:4592   */\n      dup13\n        /* \"#utility.yul\":4579:4601   */\n      add\n        /* \"#utility.yul\":4558:4611   */\n      tag_147\n      jump\t// in\n    tag_187:\n        /* \"#utility.yul\":4548:4611   */\n      swap8\n      pop\n        /* \"#utility.yul\":4503:4621   */\n      pop\n        /* \"#utility.yul\":4660:4662   */\n      0x40\n        /* \"#utility.yul\":4686:4739   */\n      tag_188\n        /* \"#utility.yul\":4731:4738   */\n      dup12\n        /* \"#utility.yul\":4722:4728   */\n      dup3\n        /* \"#utility.yul\":4711:4720   */\n      dup13\n        /* \"#utility.yul\":4707:4729   */\n      add\n        /* \"#utility.yul\":4686:4739   */\n      tag_147\n      jump\t// in\n    tag_188:\n        /* \"#utility.yul\":4676:4739   */\n      swap7\n      pop\n        /* \"#utility.yul\":4631:4749   */\n      pop\n        /* \"#utility.yul\":4816:4818   */\n      0x60\n        /* \"#utility.yul\":4805:4814   */\n      dup10\n        /* \"#utility.yul\":4801:4819   */\n      add\n        /* \"#utility.yul\":4788:4820   */\n      calldataload\n        /* \"#utility.yul\":4847:4865   */\n      0xffffffffffffffff\n        /* \"#utility.yul\":4839:4845   */\n      dup2\n        /* \"#utility.yul\":4836:4866   */\n      gt\n        /* \"#utility.yul\":4833:4950   */\n      iszero\n      tag_189\n      jumpi\n        /* \"#utility.yul\":4869:4948   */\n      tag_190\n      tag_178\n      jump\t// in\n    tag_190:\n        /* \"#utility.yul\":4833:4950   */\n    tag_189:\n        /* \"#utility.yul\":4974:5037   */\n      tag_191\n        /* \"#utility.yul\":5029:5036   */\n      dup12\n        /* \"#utility.yul\":5020:5026   */\n      dup3\n        /* \"#utility.yul\":5009:5018   */\n      dup13\n        /* \"#utility.yul\":5005:5027   */\n      add\n        /* \"#utility.yul\":4974:5037   */\n      tag_141\n      jump\t// in\n    tag_191:\n        /* \"#utility.yul\":4964:5037   */\n      swap6\n      pop\n        /* \"#utility.yul\":4759:5047   */\n      pop\n        /* \"#utility.yul\":5114:5117   */\n      0x80\n        /* \"#utility.yul\":5103:5112   */\n      dup10\n        /* \"#utility.yul\":5099:5118   */\n      add\n        /* \"#utility.yul\":5086:5119   */\n      calldataload\n        /* \"#utility.yul\":5146:5164   */\n      0xffffffffffffffff\n        /* \"#utility.yul\":5138:5144   */\n      dup2\n        /* \"#utility.yul\":5135:5165   */\n      gt\n        /* \"#utility.yul\":5132:5249   */\n      iszero\n      tag_192\n      jumpi\n        /* \"#utility.yul\":5168:5247   */\n      tag_193\n      tag_178\n      jump\t// in\n    tag_193:\n        /* \"#utility.yul\":5132:5249   */\n    tag_192:\n        /* \"#utility.yul\":5273:5336   */\n      tag_194\n        /* \"#utility.yul\":5328:5335   */\n      dup12\n        /* \"#utility.yul\":5319:5325   */\n      dup3\n        /* \"#utility.yul\":5308:5317   */\n      dup13\n        /* \"#utility.yul\":5304:5326   */\n      add\n        /* \"#utility.yul\":5273:5336   */\n      tag_141\n      jump\t// in\n    tag_194:\n        /* \"#utility.yul\":5263:5336   */\n      swap5\n      pop\n        /* \"#utility.yul\":5057:5346   */\n      pop\n        /* \"#utility.yul\":5385:5388   */\n      0xa0\n        /* \"#utility.yul\":5412:5465   */\n      tag_195\n        /* \"#utility.yul\":5457:5464   */\n      dup12\n        /* \"#utility.yul\":5448:5454   */\n      dup3\n        /* \"#utility.yul\":5437:5446   */\n      dup13\n        /* \"#utility.yul\":5433:5455   */\n      add\n        /* \"#utility.yul\":5412:5465   */\n      tag_137\n      jump\t// in\n    tag_195:\n        /* \"#utility.yul\":5402:5465   */\n      swap4\n      pop\n        /* \"#utility.yul\":5356:5475   */\n      pop\n        /* \"#utility.yul\":5514:5517   */\n      0xc0\n        /* \"#utility.yul\":5541:5594   */\n      tag_196\n        /* \"#utility.yul\":5586:5593   */\n      dup12\n        /* \"#utility.yul\":5577:5583   */\n      dup3\n        /* \"#utility.yul\":5566:5575   */\n      dup13\n        /* \"#utility.yul\":5562:5584   */\n      add\n        /* \"#utility.yul\":5541:5594   */\n      tag_137\n      jump\t// in\n    tag_196:\n        /* \"#utility.yul\":5531:5594   */\n      swap3\n      pop\n        /* \"#utility.yul\":5485:5604   */\n      pop\n        /* \"#utility.yul\":5643:5646   */\n      0xe0\n        /* \"#utility.yul\":5670:5723   */\n      tag_197\n        /* \"#utility.yul\":5715:5722   */\n      dup12\n        /* \"#utility.yul\":5706:5712   */\n      dup3\n        /* \"#utility.yul\":5695:5704   */\n      dup13\n        /* \"#utility.yul\":5691:5713   */\n      add\n        /* \"#utility.yul\":5670:5723   */\n      tag_147\n      jump\t// in\n    tag_197:\n        /* \"#utility.yul\":5660:5723   */\n      swap2\n      pop\n        /* \"#utility.yul\":5614:5733   */\n      pop\n        /* \"#utility.yul\":4031:5740   */\n      swap3\n      swap6\n      swap9\n      pop\n      swap3\n      swap6\n      swap9\n      swap1\n      swap4\n      swap7\n      pop\n      jump\t// out\n        /* \"#utility.yul\":5746:5864   */\n    tag_198:\n        /* \"#utility.yul\":5833:5857   */\n      tag_200\n        /* \"#utility.yul\":5851:5856   */\n      dup2\n        /* \"#utility.yul\":5833:5857   */\n      tag_201\n      jump\t// in\n    tag_200:\n        /* \"#utility.yul\":5828:5831   */\n      dup3\n        /* \"#utility.yul\":5821:5858   */\n      mstore\n        /* \"#utility.yul\":5746:5864   */\n      pop\n      pop\n      jump\t// out\n        /* \"#utility.yul\":5870:6029   */\n    tag_202:\n        /* \"#utility.yul\":5971:6022   */\n      tag_204\n        /* \"#utility.yul\":6016:6021   */\n      dup2\n        /* \"#utility.yul\":5971:6022   */\n      tag_205\n      jump\t// in\n    tag_204:\n        /* \"#utility.yul\":5966:5969   */\n      dup3\n        /* \"#utility.yul\":5959:6023   */\n      mstore\n        /* \"#utility.yul\":5870:6029   */\n      pop\n      pop\n      jump\t// out\n        /* \"#utility.yul\":6035:6401   */\n    tag_206:\n        /* \"#utility.yul\":6177:6180   */\n      0x00\n        /* \"#utility.yul\":6198:6265   */\n      tag_208\n        /* \"#utility.yul\":6262:6264   */\n      0x57\n        /* \"#utility.yul\":6257:6260   */\n      dup4\n        /* \"#utility.yul\":6198:6265   */\n      tag_209\n      jump\t// in\n    tag_208:\n        /* \"#utility.yul\":6191:6265   */\n      swap2\n      pop\n        /* \"#utility.yul\":6274:6367   */\n      tag_210\n        /* \"#utility.yul\":6363:6366   */\n      dup3\n        /* \"#utility.yul\":6274:6367   */\n      tag_211\n      jump\t// in\n    tag_210:\n        /* \"#utility.yul\":6392:6394   */\n      0x60\n        /* \"#utility.yul\":6387:6390   */\n      dup3\n        /* \"#utility.yul\":6383:6395   */\n      add\n        /* \"#utility.yul\":6376:6395   */\n      swap1\n      pop\n        /* \"#utility.yul\":6035:6401   */\n      swap2\n      swap1\n      pop\n      jump\t// out\n        /* \"#utility.yul\":6407:6773   */\n    tag_212:\n        /* \"#utility.yul\":6549:6552   */\n      0x00\n        /* \"#utility.yul\":6570:6637   */\n      tag_214\n        /* \"#utility.yul\":6634:6636   */\n      0x2d\n        /* \"#utility.yul\":6629:6632   */\n      dup4\n        /* \"#utility.yul\":6570:6637   */\n      tag_209\n      jump\t// in\n    tag_214:\n        /* \"#utility.yul\":6563:6637   */\n      swap2\n      pop\n        /* \"#utility.yul\":6646:6739   */\n      tag_215\n        /* \"#utility.yul\":6735:6738   */\n      dup3\n        /* \"#utility.yul\":6646:6739   */\n      tag_216\n      jump\t// in\n    tag_215:\n        /* \"#utility.yul\":6764:6766   */\n      0x40\n        /* \"#utility.yul\":6759:6762   */\n      dup3\n        /* \"#utility.yul\":6755:6767   */\n      add\n        /* \"#utility.yul\":6748:6767   */\n      swap1\n      pop\n        /* \"#utility.yul\":6407:6773   */\n      swap2\n      swap1\n      pop\n      jump\t// out\n        /* \"#utility.yul\":6779:7145   */\n    tag_217:\n        /* \"#utility.yul\":6921:6924   */\n      0x00\n        /* \"#utility.yul\":6942:7009   */\n      tag_219\n        /* \"#utility.yul\":7006:7008   */\n      0x30\n        /* \"#utility.yul\":7001:7004   */\n      dup4\n        /* \"#utility.yul\":6942:7009   */\n      tag_209\n      jump\t// in\n    tag_219:\n        /* \"#utility.yul\":6935:7009   */\n      swap2\n      pop\n        /* \"#utility.yul\":7018:7111   */\n      tag_220\n        /* \"#utility.yul\":7107:7110   */\n      dup3\n        /* \"#utility.yul\":7018:7111   */\n      tag_221\n      jump\t// in\n    tag_220:\n        /* \"#utility.yul\":7136:7138   */\n      0x40\n        /* \"#utility.yul\":7131:7134   */\n      dup3\n        /* \"#utility.yul\":7127:7139   */\n      add\n        /* \"#utility.yul\":7120:7139   */\n      swap1\n      pop\n        /* \"#utility.yul\":6779:7145   */\n      swap2\n      swap1\n      pop\n      jump\t// out\n        /* \"#utility.yul\":7151:7517   */\n    tag_222:\n        /* \"#utility.yul\":7293:7296   */\n      0x00\n        /* \"#utility.yul\":7314:7381   */\n      tag_224\n        /* \"#utility.yul\":7378:7380   */\n      0x3d\n        /* \"#utility.yul\":7373:7376   */\n      dup4\n        /* \"#utility.yul\":7314:7381   */\n      tag_209\n      jump\t// in\n    tag_224:\n        /* \"#utility.yul\":7307:7381   */\n      swap2\n      pop\n        /* \"#utility.yul\":7390:7483   */\n      tag_225\n        /* \"#utility.yul\":7479:7482   */\n      dup3\n        /* \"#utility.yul\":7390:7483   */\n      tag_226\n      jump\t// in\n    tag_225:\n        /* \"#utility.yul\":7508:7510   */\n      0x40\n        /* \"#utility.yul\":7503:7506   */\n      dup3\n        /* \"#utility.yul\":7499:7511   */\n      add\n        /* \"#utility.yul\":7492:7511   */\n      swap1\n      pop\n        /* \"#utility.yul\":7151:7517   */\n      swap2\n      swap1\n      pop\n      jump\t// out\n        /* \"#utility.yul\":7523:7889   */\n    tag_227:\n        /* \"#utility.yul\":7665:7668   */\n      0x00\n        /* \"#utility.yul\":7686:7753   */\n      tag_229\n        /* \"#utility.yul\":7750:7752   */\n      0x4a\n        /* \"#utility.yul\":7745:7748   */\n      dup4\n        /* \"#utility.yul\":7686:7753   */\n      tag_209\n      jump\t// in\n    tag_229:\n        /* \"#utility.yul\":7679:7753   */\n      swap2\n      pop\n        /* \"#utility.yul\":7762:7855   */\n      tag_230\n        /* \"#utility.yul\":7851:7854   */\n      dup3\n        /* \"#utility.yul\":7762:7855   */\n      tag_231\n      jump\t// in\n    tag_230:\n        /* \"#utility.yul\":7880:7882   */\n      0x60\n        /* \"#utility.yul\":7875:7878   */\n      dup3\n        /* \"#utility.yul\":7871:7883   */\n      add\n        /* \"#utility.yul\":7864:7883   */\n      swap1\n      pop\n        /* \"#utility.yul\":7523:7889   */\n      swap2\n      swap1\n      pop\n      jump\t// out\n        /* \"#utility.yul\":7895:8261   */\n    tag_232:\n        /* \"#utility.yul\":8037:8040   */\n      0x00\n        /* \"#utility.yul\":8058:8125   */\n      tag_234\n        /* \"#utility.yul\":8122:8124   */\n      0x39\n        /* \"#utility.yul\":8117:8120   */\n      dup4\n        /* \"#utility.yul\":8058:8125   */\n      tag_209\n      jump\t// in\n    tag_234:\n        /* \"#utility.yul\":8051:8125   */\n      swap2\n      pop\n        /* \"#utility.yul\":8134:8227   */\n      tag_235\n        /* \"#utility.yul\":8223:8226   */\n      dup3\n        /* \"#utility.yul\":8134:8227   */\n      tag_236\n      jump\t// in\n    tag_235:\n        /* \"#utility.yul\":8252:8254   */\n      0x40\n        /* \"#utility.yul\":8247:8250   */\n      dup3\n        /* \"#utility.yul\":8243:8255   */\n      add\n        /* \"#utility.yul\":8236:8255   */\n      swap1\n      pop\n        /* \"#utility.yul\":7895:8261   */\n      swap2\n      swap1\n      pop\n      jump\t// out\n        /* \"#utility.yul\":8267:8633   */\n    tag_237:\n        /* \"#utility.yul\":8409:8412   */\n      0x00\n        /* \"#utility.yul\":8430:8497   */\n      tag_239\n        /* \"#utility.yul\":8494:8496   */\n      0x20\n        /* \"#utility.yul\":8489:8492   */\n      dup4\n        /* \"#utility.yul\":8430:8497   */\n      tag_209\n      jump\t// in\n    tag_239:\n        /* \"#utility.yul\":8423:8497   */\n      swap2\n      pop\n        /* \"#utility.yul\":8506:8599   */\n      tag_240\n        /* \"#utility.yul\":8595:8598   */\n      dup3\n        /* \"#utility.yul\":8506:8599   */\n      tag_241\n      jump\t// in\n    tag_240:\n        /* \"#utility.yul\":8624:8626   */\n      0x20\n        /* \"#utility.yul\":8619:8622   */\n      dup3\n        /* \"#utility.yul\":8615:8627   */\n      add\n        /* \"#utility.yul\":8608:8627   */\n      swap1\n      pop\n        /* \"#utility.yul\":8267:8633   */\n      swap2\n      swap1\n      pop\n      jump\t// out\n        /* \"#utility.yul\":8639:9005   */\n    tag_242:\n        /* \"#utility.yul\":8781:8784   */\n      0x00\n        /* \"#utility.yul\":8802:8869   */\n      tag_244\n        /* \"#utility.yul\":8866:8868   */\n      0x4d\n        /* \"#utility.yul\":8861:8864   */\n      dup4\n        /* \"#utility.yul\":8802:8869   */\n      tag_209\n      jump\t// in\n    tag_244:\n        /* \"#utility.yul\":8795:8869   */\n      swap2\n      pop\n        /* \"#utility.yul\":8878:8971   */\n      tag_245\n        /* \"#utility.yul\":8967:8970   */\n      dup3\n        /* \"#utility.yul\":8878:8971   */\n      tag_246\n      jump\t// in\n    tag_245:\n        /* \"#utility.yul\":8996:8998   */\n      0x60\n        /* \"#utility.yul\":8991:8994   */\n      dup3\n        /* \"#utility.yul\":8987:8999   */\n      add\n        /* \"#utility.yul\":8980:8999   */\n      swap1\n      pop\n        /* \"#utility.yul\":8639:9005   */\n      swap2\n      swap1\n      pop\n      jump\t// out\n        /* \"#utility.yul\":9011:9129   */\n    tag_247:\n        /* \"#utility.yul\":9098:9122   */\n      tag_249\n        /* \"#utility.yul\":9116:9121   */\n      dup2\n        /* \"#utility.yul\":9098:9122   */\n      tag_250\n      jump\t// in\n    tag_249:\n        /* \"#utility.yul\":9093:9096   */\n      dup3\n        /* \"#utility.yul\":9086:9123   */\n      mstore\n        /* \"#utility.yul\":9011:9129   */\n      pop\n      pop\n      jump\t// out\n        /* \"#utility.yul\":9135:9247   */\n    tag_251:\n        /* \"#utility.yul\":9218:9240   */\n      tag_253\n        /* \"#utility.yul\":9234:9239   */\n      dup2\n        /* \"#utility.yul\":9218:9240   */\n      tag_254\n      jump\t// in\n    tag_253:\n        /* \"#utility.yul\":9213:9216   */\n      dup3\n        /* \"#utility.yul\":9206:9241   */\n      mstore\n        /* \"#utility.yul\":9135:9247   */\n      pop\n      pop\n      jump\t// out\n        /* \"#utility.yul\":9253:9503   */\n    tag_38:\n        /* \"#utility.yul\":9360:9364   */\n      0x00\n        /* \"#utility.yul\":9398:9400   */\n      0x20\n        /* \"#utility.yul\":9387:9396   */\n      dup3\n        /* \"#utility.yul\":9383:9401   */\n      add\n        /* \"#utility.yul\":9375:9401   */\n      swap1\n      pop\n        /* \"#utility.yul\":9411:9496   */\n      tag_256\n        /* \"#utility.yul\":9493:9494   */\n      0x00\n        /* \"#utility.yul\":9482:9491   */\n      dup4\n        /* \"#utility.yul\":9478:9495   */\n      add\n        /* \"#utility.yul\":9469:9475   */\n      dup5\n        /* \"#utility.yul\":9411:9496   */\n      tag_202\n      jump\t// in\n    tag_256:\n        /* \"#utility.yul\":9253:9503   */\n      swap3\n      swap2\n      pop\n      pop\n      jump\t// out\n        /* \"#utility.yul\":9509:9928   */\n    tag_82:\n        /* \"#utility.yul\":9675:9679   */\n      0x00\n        /* \"#utility.yul\":9713:9715   */\n      0x20\n        /* \"#utility.yul\":9702:9711   */\n      dup3\n        /* \"#utility.yul\":9698:9716   */\n      add\n        /* \"#utility.yul\":9690:9716   */\n      swap1\n      pop\n        /* \"#utility.yul\":9762:9771   */\n      dup2\n        /* \"#utility.yul\":9756:9760   */\n      dup2\n        /* \"#utility.yul\":9752:9772   */\n      sub\n        /* \"#utility.yul\":9748:9749   */\n      0x00\n        /* \"#utility.yul\":9737:9746   */\n      dup4\n        /* \"#utility.yul\":9733:9750   */\n      add\n        /* \"#utility.yul\":9726:9773   */\n      mstore\n        /* \"#utility.yul\":9790:9921   */\n      tag_258\n        /* \"#utility.yul\":9916:9920   */\n      dup2\n        /* \"#utility.yul\":9790:9921   */\n      tag_206\n      jump\t// in\n    tag_258:\n        /* \"#utility.yul\":9782:9921   */\n      swap1\n      pop\n        /* \"#utility.yul\":9509:9928   */\n      swap2\n      swap1\n      pop\n      jump\t// out\n        /* \"#utility.yul\":9934:10353   */\n    tag_78:\n        /* \"#utility.yul\":10100:10104   */\n      0x00\n        /* \"#utility.yul\":10138:10140   */\n      0x20\n        /* \"#utility.yul\":10127:10136   */\n      dup3\n        /* \"#utility.yul\":10123:10141   */\n      add\n        /* \"#utility.yul\":10115:10141   */\n      swap1\n      pop\n        /* \"#utility.yul\":10187:10196   */\n      dup2\n        /* \"#utility.yul\":10181:10185   */\n      dup2\n        /* \"#utility.yul\":10177:10197   */\n      sub\n        /* \"#utility.yul\":10173:10174   */\n      0x00\n        /* \"#utility.yul\":10162:10171   */\n      dup4\n        /* \"#utility.yul\":10158:10175   */\n      add\n        /* \"#utility.yul\":10151:10198   */\n      mstore\n        /* \"#utility.yul\":10215:10346   */\n      tag_260\n        /* \"#utility.yul\":10341:10345   */\n      dup2\n        /* \"#utility.yul\":10215:10346   */\n      tag_212\n      jump\t// in\n    tag_260:\n        /* \"#utility.yul\":10207:10346   */\n      swap1\n      pop\n        /* \"#utility.yul\":9934:10353   */\n      swap2\n      swap1\n      pop\n      jump\t// out\n        /* \"#utility.yul\":10359:10778   */\n    tag_69:\n        /* \"#utility.yul\":10525:10529   */\n      0x00\n        /* \"#utility.yul\":10563:10565   */\n      0x20\n        /* \"#utility.yul\":10552:10561   */\n      dup3\n        /* \"#utility.yul\":10548:10566   */\n      add\n        /* \"#utility.yul\":10540:10566   */\n      swap1\n      pop\n        /* \"#utility.yul\":10612:10621   */\n      dup2\n        /* \"#utility.yul\":10606:10610   */\n      dup2\n        /* \"#utility.yul\":10602:10622   */\n      sub\n        /* \"#utility.yul\":10598:10599   */\n      0x00\n        /* \"#utility.yul\":10587:10596   */\n      dup4\n        /* \"#utility.yul\":10583:10600   */\n      add\n        /* \"#utility.yul\":10576:10623   */\n      mstore\n        /* \"#utility.yul\":10640:10771   */\n      tag_262\n        /* \"#utility.yul\":10766:10770   */\n      dup2\n        /* \"#utility.yul\":10640:10771   */\n      tag_217\n      jump\t// in\n    tag_262:\n        /* \"#utility.yul\":10632:10771   */\n      swap1\n      pop\n        /* \"#utility.yul\":10359:10778   */\n      swap2\n      swap1\n      pop\n      jump\t// out\n        /* \"#utility.yul\":10784:11203   */\n    tag_63:\n        /* \"#utility.yul\":10950:10954   */\n      0x00\n        /* \"#utility.yul\":10988:10990   */\n      0x20\n        /* \"#utility.yul\":10977:10986   */\n      dup3\n        /* \"#utility.yul\":10973:10991   */\n      add\n        /* \"#utility.yul\":10965:10991   */\n      swap1\n      pop\n        /* \"#utility.yul\":11037:11046   */\n      dup2\n        /* \"#utility.yul\":11031:11035   */\n      dup2\n        /* \"#utility.yul\":11027:11047   */\n      sub\n        /* \"#utility.yul\":11023:11024   */\n      0x00\n        /* \"#utility.yul\":11012:11021   */\n      dup4\n        /* \"#utility.yul\":11008:11025   */\n      add\n        /* \"#utility.yul\":11001:11048   */\n      mstore\n        /* \"#utility.yul\":11065:11196   */\n      tag_264\n        /* \"#utility.yul\":11191:11195   */\n      dup2\n        /* \"#utility.yul\":11065:11196   */\n      tag_222\n      jump\t// in\n    tag_264:\n        /* \"#utility.yul\":11057:11196   */\n      swap1\n      pop\n        /* \"#utility.yul\":10784:11203   */\n      swap2\n      swap1\n      pop\n      jump\t// out\n        /* \"#utility.yul\":11209:11628   */\n    tag_55:\n        /* \"#utility.yul\":11375:11379   */\n      0x00\n        /* \"#utility.yul\":11413:11415   */\n      0x20\n        /* \"#utility.yul\":11402:11411   */\n      dup3\n        /* \"#utility.yul\":11398:11416   */\n      add\n        /* \"#utility.yul\":11390:11416   */\n      swap1\n      pop\n        /* \"#utility.yul\":11462:11471   */\n      dup2\n        /* \"#utility.yul\":11456:11460   */\n      dup2\n        /* \"#utility.yul\":11452:11472   */\n      sub\n        /* \"#utility.yul\":11448:11449   */\n      0x00\n        /* \"#utility.yul\":11437:11446   */\n      dup4\n        /* \"#utility.yul\":11433:11450   */\n      add\n        /* \"#utility.yul\":11426:11473   */\n      mstore\n        /* \"#utility.yul\":11490:11621   */\n      tag_266\n        /* \"#utility.yul\":11616:11620   */\n      dup2\n        /* \"#utility.yul\":11490:11621   */\n      tag_227\n      jump\t// in\n    tag_266:\n        /* \"#utility.yul\":11482:11621   */\n      swap1\n      pop\n        /* \"#utility.yul\":11209:11628   */\n      swap2\n      swap1\n      pop\n      jump\t// out\n        /* \"#utility.yul\":11634:12053   */\n    tag_72:\n        /* \"#utility.yul\":11800:11804   */\n      0x00\n        /* \"#utility.yul\":11838:11840   */\n      0x20\n        /* \"#utility.yul\":11827:11836   */\n      dup3\n        /* \"#utility.yul\":11823:11841   */\n      add\n        /* \"#utility.yul\":11815:11841   */\n      swap1\n      pop\n        /* \"#utility.yul\":11887:11896   */\n      dup2\n        /* \"#utility.yul\":11881:11885   */\n      dup2\n        /* \"#utility.yul\":11877:11897   */\n      sub\n        /* \"#utility.yul\":11873:11874   */\n      0x00\n        /* \"#utility.yul\":11862:11871   */\n      dup4\n        /* \"#utility.yul\":11858:11875   */\n      add\n        /* \"#utility.yul\":11851:11898   */\n      mstore\n        /* \"#utility.yul\":11915:12046   */\n      tag_268\n        /* \"#utility.yul\":12041:12045   */\n      dup2\n        /* \"#utility.yul\":11915:12046   */\n      tag_232\n      jump\t// in\n    tag_268:\n        /* \"#utility.yul\":11907:12046   */\n      swap1\n      pop\n        /* \"#utility.yul\":11634:12053   */\n      swap2\n      swap1\n      pop\n      jump\t// out\n        /* \"#utility.yul\":12059:12478   */\n    tag_75:\n        /* \"#utility.yul\":12225:12229   */\n      0x00\n        /* \"#utility.yul\":12263:12265   */\n      0x20\n        /* \"#utility.yul\":12252:12261   */\n      dup3\n        /* \"#utility.yul\":12248:12266   */\n      add\n        /* \"#utility.yul\":12240:12266   */\n      swap1\n      pop\n        /* \"#utility.yul\":12312:12321   */\n      dup2\n        /* \"#utility.yul\":12306:12310   */\n      dup2\n        /* \"#utility.yul\":12302:12322   */\n      sub\n        /* \"#utility.yul\":12298:12299   */\n      0x00\n        /* \"#utility.yul\":12287:12296   */\n      dup4\n        /* \"#utility.yul\":12283:12300   */\n      add\n        /* \"#utility.yul\":12276:12323   */\n      mstore\n        /* \"#utility.yul\":12340:12471   */\n      tag_270\n        /* \"#utility.yul\":12466:12470   */\n      dup2\n        /* \"#utility.yul\":12340:12471   */\n      tag_237\n      jump\t// in\n    tag_270:\n        /* \"#utility.yul\":12332:12471   */\n      swap1\n      pop\n        /* \"#utility.yul\":12059:12478   */\n      swap2\n      swap1\n      pop\n      jump\t// out\n        /* \"#utility.yul\":12484:12903   */\n    tag_107:\n        /* \"#utility.yul\":12650:12654   */\n      0x00\n        /* \"#utility.yul\":12688:12690   */\n      0x20\n        /* \"#utility.yul\":12677:12686   */\n      dup3\n        /* \"#utility.yul\":12673:12691   */\n      add\n        /* \"#utility.yul\":12665:12691   */\n      swap1\n      pop\n        /* \"#utility.yul\":12737:12746   */\n      dup2\n        /* \"#utility.yul\":12731:12735   */\n      dup2\n        /* \"#utility.yul\":12727:12747   */\n      sub\n        /* \"#utility.yul\":12723:12724   */\n      0x00\n        /* \"#utility.yul\":12712:12721   */\n      dup4\n        /* \"#utility.yul\":12708:12725   */\n      add\n        /* \"#utility.yul\":12701:12748   */\n      mstore\n        /* \"#utility.yul\":12765:12896   */\n      tag_272\n        /* \"#utility.yul\":12891:12895   */\n      dup2\n        /* \"#utility.yul\":12765:12896   */\n      tag_242\n      jump\t// in\n    tag_272:\n        /* \"#utility.yul\":12757:12896   */\n      swap1\n      pop\n        /* \"#utility.yul\":12484:12903   */\n      swap2\n      swap1\n      pop\n      jump\t// out\n        /* \"#utility.yul\":12909:13131   */\n    tag_21:\n        /* \"#utility.yul\":13002:13006   */\n      0x00\n        /* \"#utility.yul\":13040:13042   */\n      0x20\n        /* \"#utility.yul\":13029:13038   */\n      dup3\n        /* \"#utility.yul\":13025:13043   */\n      add\n        /* \"#utility.yul\":13017:13043   */\n      swap1\n      pop\n        /* \"#utility.yul\":13053:13124   */\n      tag_274\n        /* \"#utility.yul\":13121:13122   */\n      0x00\n        /* \"#utility.yul\":13110:13119   */\n      dup4\n        /* \"#utility.yul\":13106:13123   */\n      add\n        /* \"#utility.yul\":13097:13103   */\n      dup5\n        /* \"#utility.yul\":13053:13124   */\n      tag_247\n      jump\t// in\n    tag_274:\n        /* \"#utility.yul\":12909:13131   */\n      swap3\n      swap2\n      pop\n      pop\n      jump\t// out\n        /* \"#utility.yul\":13137:13912   */\n    tag_113:\n        /* \"#utility.yul\":13370:13374   */\n      0x00\n        /* \"#utility.yul\":13408:13411   */\n      0xc0\n        /* \"#utility.yul\":13397:13406   */\n      dup3\n        /* \"#utility.yul\":13393:13412   */\n      add\n        /* \"#utility.yul\":13385:13412   */\n      swap1\n      pop\n        /* \"#utility.yul\":13422:13493   */\n      tag_276\n        /* \"#utility.yul\":13490:13491   */\n      0x00\n        /* \"#utility.yul\":13479:13488   */\n      dup4\n        /* \"#utility.yul\":13475:13492   */\n      add\n        /* \"#utility.yul\":13466:13472   */\n      dup10\n        /* \"#utility.yul\":13422:13493   */\n      tag_247\n      jump\t// in\n    tag_276:\n        /* \"#utility.yul\":13503:13575   */\n      tag_277\n        /* \"#utility.yul\":13571:13573   */\n      0x20\n        /* \"#utility.yul\":13560:13569   */\n      dup4\n        /* \"#utility.yul\":13556:13574   */\n      add\n        /* \"#utility.yul\":13547:13553   */\n      dup9\n        /* \"#utility.yul\":13503:13575   */\n      tag_247\n      jump\t// in\n    tag_277:\n        /* \"#utility.yul\":13585:13657   */\n      tag_278\n        /* \"#utility.yul\":13653:13655   */\n      0x40\n        /* \"#utility.yul\":13642:13651   */\n      dup4\n        /* \"#utility.yul\":13638:13656   */\n      add\n        /* \"#utility.yul\":13629:13635   */\n      dup8\n        /* \"#utility.yul\":13585:13657   */\n      tag_247\n      jump\t// in\n    tag_278:\n        /* \"#utility.yul\":13667:13739   */\n      tag_279\n        /* \"#utility.yul\":13735:13737   */\n      0x60\n        /* \"#utility.yul\":13724:13733   */\n      dup4\n        /* \"#utility.yul\":13720:13738   */\n      add\n        /* \"#utility.yul\":13711:13717   */\n      dup7\n        /* \"#utility.yul\":13667:13739   */\n      tag_198\n      jump\t// in\n    tag_279:\n        /* \"#utility.yul\":13749:13822   */\n      tag_280\n        /* \"#utility.yul\":13817:13820   */\n      0x80\n        /* \"#utility.yul\":13806:13815   */\n      dup4\n        /* \"#utility.yul\":13802:13821   */\n      add\n        /* \"#utility.yul\":13793:13799   */\n      dup6\n        /* \"#utility.yul\":13749:13822   */\n      tag_198\n      jump\t// in\n    tag_280:\n        /* \"#utility.yul\":13832:13905   */\n      tag_281\n        /* \"#utility.yul\":13900:13903   */\n      0xa0\n        /* \"#utility.yul\":13889:13898   */\n      dup4\n        /* \"#utility.yul\":13885:13904   */\n      add\n        /* \"#utility.yul\":13876:13882   */\n      dup5\n        /* \"#utility.yul\":13832:13905   */\n      tag_247\n      jump\t// in\n    tag_281:\n        /* \"#utility.yul\":13137:13912   */\n      swap8\n      swap7\n      pop\n      pop\n      pop\n      pop\n      pop\n      pop\n      pop\n      jump\t// out\n        /* \"#utility.yul\":13918:14574   */\n    tag_90:\n        /* \"#utility.yul\":14119:14123   */\n      0x00\n        /* \"#utility.yul\":14157:14160   */\n      0xa0\n        /* \"#utility.yul\":14146:14155   */\n      dup3\n        /* \"#utility.yul\":14142:14161   */\n      add\n        /* \"#utility.yul\":14134:14161   */\n      swap1\n      pop\n        /* \"#utility.yul\":14171:14242   */\n      tag_283\n        /* \"#utility.yul\":14239:14240   */\n      0x00\n        /* \"#utility.yul\":14228:14237   */\n      dup4\n        /* \"#utility.yul\":14224:14241   */\n      add\n        /* \"#utility.yul\":14215:14221   */\n      dup9\n        /* \"#utility.yul\":14171:14242   */\n      tag_247\n      jump\t// in\n    tag_283:\n        /* \"#utility.yul\":14252:14324   */\n      tag_284\n        /* \"#utility.yul\":14320:14322   */\n      0x20\n        /* \"#utility.yul\":14309:14318   */\n      dup4\n        /* \"#utility.yul\":14305:14323   */\n      add\n        /* \"#utility.yul\":14296:14302   */\n      dup8\n        /* \"#utility.yul\":14252:14324   */\n      tag_247\n      jump\t// in\n    tag_284:\n        /* \"#utility.yul\":14334:14406   */\n      tag_285\n        /* \"#utility.yul\":14402:14404   */\n      0x40\n        /* \"#utility.yul\":14391:14400   */\n      dup4\n        /* \"#utility.yul\":14387:14405   */\n      add\n        /* \"#utility.yul\":14378:14384   */\n      dup7\n        /* \"#utility.yul\":14334:14406   */\n      tag_247\n      jump\t// in\n    tag_285:\n        /* \"#utility.yul\":14416:14488   */\n      tag_286\n        /* \"#utility.yul\":14484:14486   */\n      0x60\n        /* \"#utility.yul\":14473:14482   */\n      dup4\n        /* \"#utility.yul\":14469:14487   */\n      add\n        /* \"#utility.yul\":14460:14466   */\n      dup6\n        /* \"#utility.yul\":14416:14488   */\n      tag_198\n      jump\t// in\n    tag_286:\n        /* \"#utility.yul\":14498:14567   */\n      tag_287\n        /* \"#utility.yul\":14562:14565   */\n      0x80\n        /* \"#utility.yul\":14551:14560   */\n      dup4\n        /* \"#utility.yul\":14547:14566   */\n      add\n        /* \"#utility.yul\":14538:14544   */\n      dup5\n        /* \"#utility.yul\":14498:14567   */\n      tag_251\n      jump\t// in\n    tag_287:\n        /* \"#utility.yul\":13918:14574   */\n      swap7\n      swap6\n      pop\n      pop\n      pop\n      pop\n      pop\n      pop\n      jump\t// out\n        /* \"#utility.yul\":14580:15125   */\n    tag_97:\n        /* \"#utility.yul\":14753:14757   */\n      0x00\n        /* \"#utility.yul\":14791:14794   */\n      0x80\n        /* \"#utility.yul\":14780:14789   */\n      dup3\n        /* \"#utility.yul\":14776:14795   */\n      add\n        /* \"#utility.yul\":14768:14795   */\n      swap1\n      pop\n        /* \"#utility.yul\":14805:14876   */\n      tag_289\n        /* \"#utility.yul\":14873:14874   */\n      0x00\n        /* \"#utility.yul\":14862:14871   */\n      dup4\n        /* \"#utility.yul\":14858:14875   */\n      add\n        /* \"#utility.yul\":14849:14855   */\n      dup8\n        /* \"#utility.yul\":14805:14876   */\n      tag_247\n      jump\t// in\n    tag_289:\n        /* \"#utility.yul\":14886:14958   */\n      tag_290\n        /* \"#utility.yul\":14954:14956   */\n      0x20\n        /* \"#utility.yul\":14943:14952   */\n      dup4\n        /* \"#utility.yul\":14939:14957   */\n      add\n        /* \"#utility.yul\":14930:14936   */\n      dup7\n        /* \"#utility.yul\":14886:14958   */\n      tag_247\n      jump\t// in\n    tag_290:\n        /* \"#utility.yul\":14968:15040   */\n      tag_291\n        /* \"#utility.yul\":15036:15038   */\n      0x40\n        /* \"#utility.yul\":15025:15034   */\n      dup4\n        /* \"#utility.yul\":15021:15039   */\n      add\n        /* \"#utility.yul\":15012:15018   */\n      dup6\n        /* \"#utility.yul\":14968:15040   */\n      tag_247\n      jump\t// in\n    tag_291:\n        /* \"#utility.yul\":15050:15118   */\n      tag_292\n        /* \"#utility.yul\":15114:15116   */\n      0x60\n        /* \"#utility.yul\":15103:15112   */\n      dup4\n        /* \"#utility.yul\":15099:15117   */\n      add\n        /* \"#utility.yul\":15090:15096   */\n      dup5\n        /* \"#utility.yul\":15050:15118   */\n      tag_251\n      jump\t// in\n    tag_292:\n        /* \"#utility.yul\":14580:15125   */\n      swap6\n      swap5\n      pop\n      pop\n      pop\n      pop\n      pop\n      jump\t// out\n        /* \"#utility.yul\":15131:15260   */\n    tag_131:\n        /* \"#utility.yul\":15165:15171   */\n      0x00\n        /* \"#utility.yul\":15192:15212   */\n      tag_294\n      tag_295\n      jump\t// in\n    tag_294:\n        /* \"#utility.yul\":15182:15212   */\n      swap1\n      pop\n        /* \"#utility.yul\":15221:15254   */\n      tag_296\n        /* \"#utility.yul\":15249:15253   */\n      dup3\n        /* \"#utility.yul\":15241:15247   */\n      dup3\n        /* \"#utility.yul\":15221:15254   */\n      tag_297\n      jump\t// in\n    tag_296:\n        /* \"#utility.yul\":15131:15260   */\n      swap2\n      swap1\n      pop\n      jump\t// out\n        /* \"#utility.yul\":15266:15341   */\n    tag_295:\n        /* \"#utility.yul\":15299:15305   */\n      0x00\n        /* \"#utility.yul\":15332:15334   */\n      0x40\n        /* \"#utility.yul\":15326:15335   */\n      mload\n        /* \"#utility.yul\":15316:15335   */\n      swap1\n      pop\n        /* \"#utility.yul\":15266:15341   */\n      swap1\n      jump\t// out\n        /* \"#utility.yul\":15347:15655   */\n    tag_130:\n        /* \"#utility.yul\":15409:15413   */\n      0x00\n        /* \"#utility.yul\":15499:15517   */\n      0xffffffffffffffff\n        /* \"#utility.yul\":15491:15497   */\n      dup3\n        /* \"#utility.yul\":15488:15518   */\n      gt\n        /* \"#utility.yul\":15485:15541   */\n      iszero\n      tag_300\n      jumpi\n        /* \"#utility.yul\":15521:15539   */\n      tag_301\n      tag_302\n      jump\t// in\n    tag_301:\n        /* \"#utility.yul\":15485:15541   */\n    tag_300:\n        /* \"#utility.yul\":15559:15588   */\n      tag_303\n        /* \"#utility.yul\":15581:15587   */\n      dup3\n        /* \"#utility.yul\":15559:15588   */\n      tag_304\n      jump\t// in\n    tag_303:\n        /* \"#utility.yul\":15551:15588   */\n      swap1\n      pop\n        /* \"#utility.yul\":15643:15647   */\n      0x20\n        /* \"#utility.yul\":15637:15641   */\n      dup2\n        /* \"#utility.yul\":15633:15648   */\n      add\n        /* \"#utility.yul\":15625:15648   */\n      swap1\n      pop\n        /* \"#utility.yul\":15347:15655   */\n      swap2\n      swap1\n      pop\n      jump\t// out\n        /* \"#utility.yul\":15661:15830   */\n    tag_209:\n        /* \"#utility.yul\":15745:15756   */\n      0x00\n        /* \"#utility.yul\":15779:15785   */\n      dup3\n        /* \"#utility.yul\":15774:15777   */\n      dup3\n        /* \"#utility.yul\":15767:15786   */\n      mstore\n        /* \"#utility.yul\":15819:15823   */\n      0x20\n        /* \"#utility.yul\":15814:15817   */\n      dup3\n        /* \"#utility.yul\":15810:15824   */\n      add\n        /* \"#utility.yul\":15795:15824   */\n      swap1\n      pop\n        /* \"#utility.yul\":15661:15830   */\n      swap3\n      swap2\n      pop\n      pop\n      jump\t// out\n        /* \"#utility.yul\":15836:15932   */\n    tag_201:\n        /* \"#utility.yul\":15873:15880   */\n      0x00\n        /* \"#utility.yul\":15902:15926   */\n      tag_307\n        /* \"#utility.yul\":15920:15925   */\n      dup3\n        /* \"#utility.yul\":15902:15926   */\n      tag_308\n      jump\t// in\n    tag_307:\n        /* \"#utility.yul\":15891:15926   */\n      swap1\n      pop\n        /* \"#utility.yul\":15836:15932   */\n      swap2\n      swap1\n      pop\n      jump\t// out\n        /* \"#utility.yul\":15938:16081   */\n    tag_309:\n        /* \"#utility.yul\":15991:15998   */\n      0x00\n        /* \"#utility.yul\":16020:16025   */\n      dup2\n        /* \"#utility.yul\":16009:16025   */\n      swap1\n      pop\n        /* \"#utility.yul\":16026:16075   */\n      tag_311\n        /* \"#utility.yul\":16069:16074   */\n      dup3\n        /* \"#utility.yul\":16026:16075   */\n      tag_312\n      jump\t// in\n    tag_311:\n        /* \"#utility.yul\":15938:16081   */\n      swap2\n      swap1\n      pop\n      jump\t// out\n        /* \"#utility.yul\":16087:16213   */\n    tag_308:\n        /* \"#utility.yul\":16124:16131   */\n      0x00\n        /* \"#utility.yul\":16164:16206   */\n      0xffffffffffffffffffffffffffffffffffffffff\n        /* \"#utility.yul\":16157:16162   */\n      dup3\n        /* \"#utility.yul\":16153:16207   */\n      and\n        /* \"#utility.yul\":16142:16207   */\n      swap1\n      pop\n        /* \"#utility.yul\":16087:16213   */\n      swap2\n      swap1\n      pop\n      jump\t// out\n        /* \"#utility.yul\":16219:16296   */\n    tag_250:\n        /* \"#utility.yul\":16256:16263   */\n      0x00\n        /* \"#utility.yul\":16285:16290   */\n      dup2\n        /* \"#utility.yul\":16274:16290   */\n      swap1\n      pop\n        /* \"#utility.yul\":16219:16296   */\n      swap2\n      swap1\n      pop\n      jump\t// out\n        /* \"#utility.yul\":16302:16388   */\n    tag_254:\n        /* \"#utility.yul\":16337:16344   */\n      0x00\n        /* \"#utility.yul\":16377:16381   */\n      0xff\n        /* \"#utility.yul\":16370:16375   */\n      dup3\n        /* \"#utility.yul\":16366:16382   */\n      and\n        /* \"#utility.yul\":16355:16382   */\n      swap1\n      pop\n        /* \"#utility.yul\":16302:16388   */\n      swap2\n      swap1\n      pop\n      jump\t// out\n        /* \"#utility.yul\":16394:16537   */\n    tag_205:\n        /* \"#utility.yul\":16458:16467   */\n      0x00\n        /* \"#utility.yul\":16491:16531   */\n      tag_317\n        /* \"#utility.yul\":16525:16530   */\n      dup3\n        /* \"#utility.yul\":16491:16531   */\n      tag_309\n      jump\t// in\n    tag_317:\n        /* \"#utility.yul\":16478:16531   */\n      swap1\n      pop\n        /* \"#utility.yul\":16394:16537   */\n      swap2\n      swap1\n      pop\n      jump\t// out\n        /* \"#utility.yul\":16543:16697   */\n    tag_136:\n        /* \"#utility.yul\":16627:16633   */\n      dup3\n        /* \"#utility.yul\":16622:16625   */\n      dup2\n        /* \"#utility.yul\":16617:16620   */\n      dup4\n        /* \"#utility.yul\":16604:16634   */\n      calldatacopy\n        /* \"#utility.yul\":16689:16690   */\n      0x00\n        /* \"#utility.yul\":16680:16686   */\n      dup4\n        /* \"#utility.yul\":16675:16678   */\n      dup4\n        /* \"#utility.yul\":16671:16687   */\n      add\n        /* \"#utility.yul\":16664:16691   */\n      mstore\n        /* \"#utility.yul\":16543:16697   */\n      pop\n      pop\n      pop\n      jump\t// out\n        /* \"#utility.yul\":16703:17023   */\n    tag_115:\n        /* \"#utility.yul\":16747:16753   */\n      0x00\n        /* \"#utility.yul\":16784:16785   */\n      0x02\n        /* \"#utility.yul\":16778:16782   */\n      dup3\n        /* \"#utility.yul\":16774:16786   */\n      div\n        /* \"#utility.yul\":16764:16786   */\n      swap1\n      pop\n        /* \"#utility.yul\":16831:16832   */\n      0x01\n        /* \"#utility.yul\":16825:16829   */\n      dup3\n        /* \"#utility.yul\":16821:16833   */\n      and\n        /* \"#utility.yul\":16852:16870   */\n      dup1\n        /* \"#utility.yul\":16842:16923   */\n      tag_320\n      jumpi\n        /* \"#utility.yul\":16908:16912   */\n      0x7f\n        /* \"#utility.yul\":16900:16906   */\n      dup3\n        /* \"#utility.yul\":16896:16913   */\n      and\n        /* \"#utility.yul\":16886:16913   */\n      swap2\n      pop\n        /* \"#utility.yul\":16842:16923   */\n    tag_320:\n        /* \"#utility.yul\":16970:16972   */\n      0x20\n        /* \"#utility.yul\":16962:16968   */\n      dup3\n        /* \"#utility.yul\":16959:16973   */\n      lt\n        /* \"#utility.yul\":16939:16957   */\n      dup2\n        /* \"#utility.yul\":16936:16974   */\n      eq\n        /* \"#utility.yul\":16933:17017   */\n      iszero\n      tag_321\n      jumpi\n        /* \"#utility.yul\":16989:17007   */\n      tag_322\n      tag_323\n      jump\t// in\n    tag_322:\n        /* \"#utility.yul\":16933:17017   */\n    tag_321:\n        /* \"#utility.yul\":16754:17023   */\n      pop\n        /* \"#utility.yul\":16703:17023   */\n      swap2\n      swap1\n      pop\n      jump\t// out\n        /* \"#utility.yul\":17029:17310   */\n    tag_297:\n        /* \"#utility.yul\":17112:17139   */\n      tag_325\n        /* \"#utility.yul\":17134:17138   */\n      dup3\n        /* \"#utility.yul\":17112:17139   */\n      tag_304\n      jump\t// in\n    tag_325:\n        /* \"#utility.yul\":17104:17110   */\n      dup2\n        /* \"#utility.yul\":17100:17140   */\n      add\n        /* \"#utility.yul\":17242:17248   */\n      dup2\n        /* \"#utility.yul\":17230:17240   */\n      dup2\n        /* \"#utility.yul\":17227:17249   */\n      lt\n        /* \"#utility.yul\":17206:17224   */\n      0xffffffffffffffff\n        /* \"#utility.yul\":17194:17204   */\n      dup3\n        /* \"#utility.yul\":17191:17225   */\n      gt\n        /* \"#utility.yul\":17188:17250   */\n      or\n        /* \"#utility.yul\":17185:17273   */\n      iszero\n      tag_326\n      jumpi\n        /* \"#utility.yul\":17253:17271   */\n      tag_327\n      tag_302\n      jump\t// in\n    tag_327:\n        /* \"#utility.yul\":17185:17273   */\n    tag_326:\n        /* \"#utility.yul\":17293:17303   */\n      dup1\n        /* \"#utility.yul\":17289:17291   */\n      0x40\n        /* \"#utility.yul\":17282:17304   */\n      mstore\n        /* \"#utility.yul\":17072:17310   */\n      pop\n        /* \"#utility.yul\":17029:17310   */\n      pop\n      pop\n      jump\t// out\n        /* \"#utility.yul\":17316:17549   */\n    tag_85:\n        /* \"#utility.yul\":17355:17358   */\n      0x00\n        /* \"#utility.yul\":17378:17402   */\n      tag_329\n        /* \"#utility.yul\":17396:17401   */\n      dup3\n        /* \"#utility.yul\":17378:17402   */\n      tag_250\n      jump\t// in\n    tag_329:\n        /* \"#utility.yul\":17369:17402   */\n      swap2\n      pop\n        /* \"#utility.yul\":17424:17490   */\n      0xffffffffffffffffffffffffffffffffffffffffffffffffffffffffffffffff\n        /* \"#utility.yul\":17417:17422   */\n      dup3\n        /* \"#utility.yul\":17414:17491   */\n      eq\n        /* \"#utility.yul\":17411:17514   */\n      iszero\n      tag_330\n      jumpi\n        /* \"#utility.yul\":17494:17512   */\n      tag_331\n      tag_332\n      jump\t// in\n    tag_331:\n        /* \"#utility.yul\":17411:17514   */\n    tag_330:\n        /* \"#utility.yul\":17541:17542   */\n      0x01\n        /* \"#utility.yul\":17534:17539   */\n      dup3\n        /* \"#utility.yul\":17530:17543   */\n      add\n        /* \"#utility.yul\":17523:17543   */\n      swap1\n      pop\n        /* \"#utility.yul\":17316:17549   */\n      swap2\n      swap1\n      pop\n      jump\t// out\n        /* \"#utility.yul\":17555:17735   */\n    tag_332:\n        /* \"#utility.yul\":17603:17680   */\n      0x4e487b7100000000000000000000000000000000000000000000000000000000\n        /* \"#utility.yul\":17600:17601   */\n      0x00\n        /* \"#utility.yul\":17593:17681   */\n      mstore\n        /* \"#utility.yul\":17700:17704   */\n      0x11\n        /* \"#utility.yul\":17697:17698   */\n      0x04\n        /* \"#utility.yul\":17690:17705   */\n      mstore\n        /* \"#utility.yul\":17724:17728   */\n      0x24\n        /* \"#utility.yul\":17721:17722   */\n      0x00\n        /* \"#utility.yul\":17714:17729   */\n      revert\n        /* \"#utility.yul\":17741:17921   */\n    tag_58:\n        /* \"#utility.yul\":17789:17866   */\n      0x4e487b7100000000000000000000000000000000000000000000000000000000\n        /* \"#utility.yul\":17786:17787   */\n      0x00\n        /* \"#utility.yul\":17779:17867   */\n      mstore\n        /* \"#utility.yul\":17886:17890   */\n      0x21\n        /* \"#utility.yul\":17883:17884   */\n      0x04\n        /* \"#utility.yul\":17876:17891   */\n      mstore\n        /* \"#utility.yul\":17910:17914   */\n      0x24\n        /* \"#utility.yul\":17907:17908   */\n      0x00\n        /* \"#utility.yul\":17900:17915   */\n      revert\n        /* \"#utility.yul\":17927:18107   */\n    tag_323:\n        /* \"#utility.yul\":17975:18052   */\n      0x4e487b7100000000000000000000000000000000000000000000000000000000\n        /* \"#utility.yul\":17972:17973   */\n      0x00\n        /* \"#utility.yul\":17965:18053   */\n      mstore\n        /* \"#utility.yul\":18072:18076   */\n      0x22\n        /* \"#utility.yul\":18069:18070   */\n      0x04\n        /* \"#utility.yul\":18062:18077   */\n      mstore\n        /* \"#utility.yul\":18096:18100   */\n      0x24\n        /* \"#utility.yul\":18093:18094   */\n      0x00\n        /* \"#utility.yul\":18086:18101   */\n      revert\n        /* \"#utility.yul\":18113:18293   */\n    tag_302:\n        /* \"#utility.yul\":18161:18238   */\n      0x4e487b7100000000000000000000000000000000000000000000000000000000\n        /* \"#utility.yul\":18158:18159   */\n      0x00\n        /* \"#utility.yul\":18151:18239   */\n      mstore\n        /* \"#utility.yul\":18258:18262   */\n      0x41\n        /* \"#utility.yul\":18255:18256   */\n      0x04\n        /* \"#utility.yul\":18248:18263   */\n      mstore\n        /* \"#utility.yul\":18282:18286   */\n      0x24\n        /* \"#utility.yul\":18279:18280   */\n      0x00\n        /* \"#utility.yul\":18272:18287   */\n      revert\n        /* \"#utility.yul\":18299:18416   */\n    tag_145:\n        /* \"#utility.yul\":18408:18409   */\n      0x00\n        /* \"#utility.yul\":18405:18406   */\n      dup1\n        /* \"#utility.yul\":18398:18410   */\n      revert\n        /* \"#utility.yul\":18422:18539   */\n    tag_134:\n        /* \"#utility.yul\":18531:18532   */\n      0x00\n        /* \"#utility.yul\":18528:18529   */\n      dup1\n        /* \"#utility.yul\":18521:18533   */\n      revert\n        /* \"#utility.yul\":18545:18662   */\n    tag_178:\n        /* \"#utility.yul\":18654:18655   */\n      0x00\n        /* \"#utility.yul\":18651:18652   */\n      dup1\n        /* \"#utility.yul\":18644:18656   */\n      revert\n        /* \"#utility.yul\":18668:18785   */\n    tag_158:\n        /* \"#utility.yul\":18777:18778   */\n      0x00\n        /* \"#utility.yul\":18774:18775   */\n      dup1\n        /* \"#utility.yul\":18767:18779   */\n      revert\n        /* \"#utility.yul\":18791:18893   */\n    tag_304:\n        /* \"#utility.yul\":18832:18838   */\n      0x00\n        /* \"#utility.yul\":18883:18885   */\n      0x1f\n        /* \"#utility.yul\":18879:18886   */\n      not\n        /* \"#utility.yul\":18874:18876   */\n      0x1f\n        /* \"#utility.yul\":18867:18872   */\n      dup4\n        /* \"#utility.yul\":18863:18877   */\n      add\n        /* \"#utility.yul\":18859:18887   */\n      and\n        /* \"#utility.yul\":18849:18887   */\n      swap1\n      pop\n        /* \"#utility.yul\":18791:18893   */\n      swap2\n      swap1\n      pop\n      jump\t// out\n        /* \"#utility.yul\":18899:19210   */\n    tag_211:\n        /* \"#utility.yul\":19039:19073   */\n      0x596f752068617665206e6f7420696e707574206120726967687420766f74652e\n        /* \"#utility.yul\":19035:19036   */\n      0x00\n        /* \"#utility.yul\":19027:19033   */\n      dup3\n        /* \"#utility.yul\":19023:19037   */\n      add\n        /* \"#utility.yul\":19016:19074   */\n      mstore\n        /* \"#utility.yul\":19108:19142   */\n      0x20596f752063616e2065697468657220766f7465203120666f72205265717565\n        /* \"#utility.yul\":19103:19105   */\n      0x20\n        /* \"#utility.yul\":19095:19101   */\n      dup3\n        /* \"#utility.yul\":19091:19106   */\n      add\n        /* \"#utility.yul\":19084:19143   */\n      mstore\n        /* \"#utility.yul\":19177:19202   */\n      0x73746572206f72203220666f722050726f76696465722e000000000000000000\n        /* \"#utility.yul\":19172:19174   */\n      0x40\n        /* \"#utility.yul\":19164:19170   */\n      dup3\n        /* \"#utility.yul\":19160:19175   */\n      add\n        /* \"#utility.yul\":19153:19203   */\n      mstore\n        /* \"#utility.yul\":18899:19210   */\n      pop\n      jump\t// out\n        /* \"#utility.yul\":19216:19448   */\n    tag_216:\n        /* \"#utility.yul\":19356:19390   */\n      0x596f75206861766520616c726561647920766f7465642c20796f752063616e6e\n        /* \"#utility.yul\":19352:19353   */\n      0x00\n        /* \"#utility.yul\":19344:19350   */\n      dup3\n        /* \"#utility.yul\":19340:19354   */\n      add\n        /* \"#utility.yul\":19333:19391   */\n      mstore\n        /* \"#utility.yul\":19425:19440   */\n      0x6f7420766f746520616761696e00000000000000000000000000000000000000\n        /* \"#utility.yul\":19420:19422   */\n      0x20\n        /* \"#utility.yul\":19412:19418   */\n      dup3\n        /* \"#utility.yul\":19408:19423   */\n      add\n        /* \"#utility.yul\":19401:19441   */\n      mstore\n        /* \"#utility.yul\":19216:19448   */\n      pop\n      jump\t// out\n        /* \"#utility.yul\":19454:19689   */\n    tag_221:\n        /* \"#utility.yul\":19594:19628   */\n      0x596f7520726169736564207468697320636f6e666c6963742e20596f75206361\n        /* \"#utility.yul\":19590:19591   */\n      0x00\n        /* \"#utility.yul\":19582:19588   */\n      dup3\n        /* \"#utility.yul\":19578:19592   */\n      add\n        /* \"#utility.yul\":19571:19629   */\n      mstore\n        /* \"#utility.yul\":19663:19681   */\n      0x6e6e6f7420766f7465206f6e2069742e00000000000000000000000000000000\n        /* \"#utility.yul\":19658:19660   */\n      0x20\n        /* \"#utility.yul\":19650:19656   */\n      dup3\n        /* \"#utility.yul\":19646:19661   */\n      add\n        /* \"#utility.yul\":19639:19682   */\n      mstore\n        /* \"#utility.yul\":19454:19689   */\n      pop\n      jump\t// out\n        /* \"#utility.yul\":19695:19943   */\n    tag_226:\n        /* \"#utility.yul\":19835:19869   */\n      0x566f74696e6720686173206e6f74206265656e20636f6d706c65746564207965\n        /* \"#utility.yul\":19831:19832   */\n      0x00\n        /* \"#utility.yul\":19823:19829   */\n      dup3\n        /* \"#utility.yul\":19819:19833   */\n      add\n        /* \"#utility.yul\":19812:19870   */\n      mstore\n        /* \"#utility.yul\":19904:19935   */\n      0x742e20506c65617365207761697420666f7220697420746f20656e642e000000\n        /* \"#utility.yul\":19899:19901   */\n      0x20\n        /* \"#utility.yul\":19891:19897   */\n      dup3\n        /* \"#utility.yul\":19887:19902   */\n      add\n        /* \"#utility.yul\":19880:19936   */\n      mstore\n        /* \"#utility.yul\":19695:19943   */\n      pop\n      jump\t// out\n        /* \"#utility.yul\":19949:20247   */\n    tag_231:\n        /* \"#utility.yul\":20089:20123   */\n      0x4e6f742065766572796f6e652068617320766f7465642c20706c656173652070\n        /* \"#utility.yul\":20085:20086   */\n      0x00\n        /* \"#utility.yul\":20077:20083   */\n      dup3\n        /* \"#utility.yul\":20073:20087   */\n      add\n        /* \"#utility.yul\":20066:20124   */\n      mstore\n        /* \"#utility.yul\":20158:20192   */\n      0x726f6d707420616c6c206f74686572206d656d62657273206f662070726f6a65\n        /* \"#utility.yul\":20153:20155   */\n      0x20\n        /* \"#utility.yul\":20145:20151   */\n      dup3\n        /* \"#utility.yul\":20141:20156   */\n      add\n        /* \"#utility.yul\":20134:20193   */\n      mstore\n        /* \"#utility.yul\":20227:20239   */\n      0x637420746f20766f746500000000000000000000000000000000000000000000\n        /* \"#utility.yul\":20222:20224   */\n      0x40\n        /* \"#utility.yul\":20214:20220   */\n      dup3\n        /* \"#utility.yul\":20210:20225   */\n      add\n        /* \"#utility.yul\":20203:20240   */\n      mstore\n        /* \"#utility.yul\":19949:20247   */\n      pop\n      jump\t// out\n        /* \"#utility.yul\":20253:20497   */\n    tag_236:\n        /* \"#utility.yul\":20393:20427   */\n      0x596f752061726520696e766f6c76656420696e207468697320636f6e666c6963\n        /* \"#utility.yul\":20389:20390   */\n      0x00\n        /* \"#utility.yul\":20381:20387   */\n      dup3\n        /* \"#utility.yul\":20377:20391   */\n      add\n        /* \"#utility.yul\":20370:20428   */\n      mstore\n        /* \"#utility.yul\":20462:20489   */\n      0x742e20596f752063616e6e6f7420766f7465206f6e2069742e00000000000000\n        /* \"#utility.yul\":20457:20459   */\n      0x20\n        /* \"#utility.yul\":20449:20455   */\n      dup3\n        /* \"#utility.yul\":20445:20460   */\n      add\n        /* \"#utility.yul\":20438:20490   */\n      mstore\n        /* \"#utility.yul\":20253:20497   */\n      pop\n      jump\t// out\n        /* \"#utility.yul\":20503:20685   */\n    tag_241:\n        /* \"#utility.yul\":20643:20677   */\n      0x456e6f75676820766f7465732068617665206265656e20636f6c6c6563746564\n        /* \"#utility.yul\":20639:20640   */\n      0x00\n        /* \"#utility.yul\":20631:20637   */\n      dup3\n        /* \"#utility.yul\":20627:20641   */\n      add\n        /* \"#utility.yul\":20620:20678   */\n      mstore\n        /* \"#utility.yul\":20503:20685   */\n      pop\n      jump\t// out\n        /* \"#utility.yul\":20691:20992   */\n    tag_246:\n        /* \"#utility.yul\":20831:20865   */\n      0x436f6e666c6963742068617320616c7265616479206265656e20637265617465\n        /* \"#utility.yul\":20827:20828   */\n      0x00\n        /* \"#utility.yul\":20819:20825   */\n      dup3\n        /* \"#utility.yul\":20815:20829   */\n      add\n        /* \"#utility.yul\":20808:20866   */\n      mstore\n        /* \"#utility.yul\":20900:20934   */\n      0x642e20506c6561736520646f206e6f7420637265617465206d6f726520746861\n        /* \"#utility.yul\":20895:20897   */\n      0x20\n        /* \"#utility.yul\":20887:20893   */\n      dup3\n        /* \"#utility.yul\":20883:20898   */\n      add\n        /* \"#utility.yul\":20876:20935   */\n      mstore\n        /* \"#utility.yul\":20969:20984   */\n      0x6e203120636f6e666c6963742e00000000000000000000000000000000000000\n        /* \"#utility.yul\":20964:20966   */\n      0x40\n        /* \"#utility.yul\":20956:20962   */\n      dup3\n        /* \"#utility.yul\":20952:20967   */\n      add\n        /* \"#utility.yul\":20945:20985   */\n      mstore\n        /* \"#utility.yul\":20691:20992   */\n      pop\n      jump\t// out\n        /* \"#utility.yul\":20998:21119   */\n    tag_312:\n        /* \"#utility.yul\":21087:21088   */\n      0x03\n        /* \"#utility.yul\":21080:21085   */\n      dup2\n        /* \"#utility.yul\":21077:21089   */\n      lt\n        /* \"#utility.yul\":21067:21113   */\n      tag_351\n      jumpi\n        /* \"#utility.yul\":21093:21111   */\n      tag_352\n      tag_58\n      jump\t// in\n    tag_352:\n        /* \"#utility.yul\":21067:21113   */\n    tag_351:\n        /* \"#utility.yul\":20998:21119   */\n      pop\n      jump\t// out\n        /* \"#utility.yul\":21125:21247   */\n    tag_140:\n        /* \"#utility.yul\":21198:21222   */\n      tag_354\n        /* \"#utility.yul\":21216:21221   */\n      dup2\n        /* \"#utility.yul\":21198:21222   */\n      tag_201\n      jump\t// in\n    tag_354:\n        /* \"#utility.yul\":21191:21196   */\n      dup2\n        /* \"#utility.yul\":21188:21223   */\n      eq\n        /* \"#utility.yul\":21178:21241   */\n      tag_355\n      jumpi\n        /* \"#utility.yul\":21237:21238   */\n      0x00\n        /* \"#utility.yul\":21234:21235   */\n      dup1\n        /* \"#utility.yul\":21227:21239   */\n      revert\n        /* \"#utility.yul\":21178:21241   */\n    tag_355:\n        /* \"#utility.yul\":21125:21247   */\n      pop\n      jump\t// out\n        /* \"#utility.yul\":21253:21375   */\n    tag_150:\n        /* \"#utility.yul\":21326:21350   */\n      tag_357\n        /* \"#utility.yul\":21344:21349   */\n      dup2\n        /* \"#utility.yul\":21326:21350   */\n      tag_250\n      jump\t// in\n    tag_357:\n        /* \"#utility.yul\":21319:21324   */\n      dup2\n        /* \"#utility.yul\":21316:21351   */\n      eq\n        /* \"#utility.yul\":21306:21369   */\n      tag_358\n      jumpi\n        /* \"#utility.yul\":21365:21366   */\n      0x00\n        /* \"#utility.yul\":21362:21363   */\n      dup1\n        /* \"#utility.yul\":21355:21367   */\n      revert\n        /* \"#utility.yul\":21306:21369   */\n    tag_358:\n        /* \"#utility.yul\":21253:21375   */\n      pop\n      jump\t// out\n        /* \"#utility.yul\":21381:21499   */\n    tag_154:\n        /* \"#utility.yul\":21452:21474   */\n      tag_360\n        /* \"#utility.yul\":21468:21473   */\n      dup2\n        /* \"#utility.yul\":21452:21474   */\n      tag_254\n      jump\t// in\n    tag_360:\n        /* \"#utility.yul\":21445:21450   */\n      dup2\n        /* \"#utility.yul\":21442:21475   */\n      eq\n        /* \"#utility.yul\":21432:21493   */\n      tag_361\n      jumpi\n        /* \"#utility.yul\":21489:21490   */\n      0x00\n        /* \"#utility.yul\":21486:21487   */\n      dup1\n        /* \"#utility.yul\":21479:21491   */\n      revert\n        /* \"#utility.yul\":21432:21493   */\n    tag_361:\n        /* \"#utility.yul\":21381:21499   */\n      pop\n      jump\t// out\n\n    auxdata: 0xa2646970667358221220f68f7fcb735e403388a605d6fe660ccf5159fa07c3ddf373085981ab1e480ea064736f6c63430008070033\n}\n",
				"bytecode": {
					"linkReferences": {},
					"object": "608060405234801561001057600080fd5b50611aa1806100206000396000f3fe608060405234801561001057600080fd5b50600436106100925760003560e01c8063c171bdf711610066578063c171bdf714610143578063cb4389ce1461015f578063d1e992a71461018f578063e3d87718146101ab578063e62fac27146101db57610092565b80623f489f146100975780630366cef2146100b35780633c45fe31146100e35780639ac7887914610113575b600080fd5b6100b160048036038101906100ac9190610eeb565b6101f7565b005b6100cd60048036038101906100c89190610eeb565b61024c565b6040516100da91906113c9565b60405180910390f35b6100fd60048036038101906100f89190610eeb565b6103f9565b60405161010a91906113c9565b60405180910390f35b61012d60048036038101906101289190610eeb565b61043c565b60405161013a91906113c9565b60405180910390f35b61015d60048036038101906101589190610f3e565b61047f565b005b61017960048036038101906101749190610eeb565b6109f5565b60405161018691906112ae565b60405180910390f35b6101a960048036038101906101a49190610fb9565b610a45565b005b6101c560048036038101906101c09190610eeb565b610ae4565b6040516101d291906113c9565b60405180910390f35b6101f560048036038101906101f0919061106c565b610b27565b005b600080600085815260200190815260200160002060008481526020019081526020016000206000838152602001908152602001600020600b0160006101000a81548160ff021916908315150217905550505050565b600080600085815260200190815260200160002060008481526020019081526020016000206000838152602001908152602001600020600701546000808681526020019081526020016000206000858152602001908152602001600020600084815260200190815260200160002060080154146102fe576040517f08c379a00000000000000000000000000000000000000000000000000000000081526004016102f590611349565b60405180910390fd5b6002808111156103115761031061169c565b5b6000808681526020019081526020016000206000858152602001908152602001600020600084815260200190815260200160002060060160149054906101000a900460ff1660028111156103685761036761169c565b5b146103a8576040517f08c379a000000000000000000000000000000000000000000000000000000000815260040161039f90611329565b60405180910390fd5b60008085815260200190815260200160002060008481526020019081526020016000206000838152602001908152602001600020600b0160019054906101000a900460ff1660ff1690509392505050565b6000806000858152602001908152602001600020600084815260200190815260200160002060008381526020019081526020016000206008015490509392505050565b600080600085815260200190815260200160002060008481526020019081526020016000206000838152602001908152602001600020600a015490509392505050565b8173ffffffffffffffffffffffffffffffffffffffff166000808781526020019081526020016000206000868152602001908152602001600020600085815260200190815260200160002060050160009054906101000a900473ffffffffffffffffffffffffffffffffffffffff1673ffffffffffffffffffffffffffffffffffffffff161415610545576040517f08c379a000000000000000000000000000000000000000000000000000000000815260040161053c90611309565b60405180910390fd5b8173ffffffffffffffffffffffffffffffffffffffff166000808781526020019081526020016000206000868152602001908152602001600020600085815260200190815260200160002060060160009054906101000a900473ffffffffffffffffffffffffffffffffffffffff1673ffffffffffffffffffffffffffffffffffffffff16141561060b576040517f08c379a000000000000000000000000000000000000000000000000000000000815260040161060290611369565b60405180910390fd5b60008086815260200190815260200160002060008581526020019081526020016000206000848152602001908152602001600020600701546000808781526020019081526020016000206000868152602001908152602001600020600085815260200190815260200160002060080154106106bb576040517f08c379a00000000000000000000000000000000000000000000000000000000081526004016106b290611389565b60405180910390fd5b600080600087815260200190815260200160002060008681526020019081526020016000206000858152602001908152602001600020600c0160008473ffffffffffffffffffffffffffffffffffffffff1673ffffffffffffffffffffffffffffffffffffffff16815260200190815260200160002060009054906101000a900460ff1660ff1614610782576040517f08c379a0000000000000000000000000000000000000000000000000000000008152600401610779906112e9565b60405180910390fd5b60018160ff161480610797575060028160ff16145b6107d6576040517f08c379a00000000000000000000000000000000000000000000000000000000081526004016107cd906112c9565b60405180910390fd5b60008060008781526020019081526020016000206000868152602001908152602001600020600085815260200190815260200160002090508181600c0160008573ffffffffffffffffffffffffffffffffffffffff1673ffffffffffffffffffffffffffffffffffffffff16815260200190815260200160002060006101000a81548160ff021916908360ff16021790555060018260ff16141561088f5780600901600081548092919061088990611624565b91905055505b60028260ff1614156108b65780600a0160008154809291906108b090611624565b91905055505b8060080160008154809291906108cb90611624565b91905055507f20211b974adbe11ce3687d51504ce7ef1fcfbb9c00405ba7aca7b283903f345a8686863386604051610907959493929190611445565b60405180910390a18060070154816008015414156109ed57806009015481600a0154111561095257600281600b0160016101000a81548160ff021916908360ff160217905550610971565b600181600b0160016101000a81548160ff021916908360ff1602179055505b60028160060160146101000a81548160ff021916908360028111156109995761099861169c565b5b02179055507fe59fdbc65a5dd63c529717c2a71d04b136038f05301755de242dd05990c0281486868684600b0160019054906101000a900460ff166040516109e49493929190611498565b60405180910390a15b505050505050565b60008060008581526020019081526020016000206000848152602001908152602001600020600083815260200190815260200160002060060160149054906101000a900460ff1690509392505050565b81600080878152602001908152602001600020600086815260200190815260200160002060008581526020019081526020016000206003019080519060200190610a90929190610d99565b5080600080878152602001908152602001600020600086815260200190815260200160002060008581526020019081526020016000206004019080519060200190610adc929190610d99565b505050505050565b6000806000858152602001908152602001600020600084815260200190815260200160002060008381526020019081526020016000206009015490509392505050565b600115156000808a815260200190815260200160002060008981526020019081526020016000206000888152602001908152602001600020600b0160009054906101000a900460ff1615151415610bb3576040517f08c379a0000000000000000000000000000000000000000000000000000000008152600401610baa906113a9565b60405180910390fd5b60008060008a815260200190815260200160002060008981526020019081526020016000206000888152602001908152602001600020905088816000018190555087816001018190555086816002018190555085816003019080519060200190610c1e929190610d99565b5084816004019080519060200190610c37929190610d99565b50838160050160006101000a81548173ffffffffffffffffffffffffffffffffffffffff021916908373ffffffffffffffffffffffffffffffffffffffff160217905550828160060160006101000a81548173ffffffffffffffffffffffffffffffffffffffff021916908373ffffffffffffffffffffffffffffffffffffffff16021790555060018160060160146101000a81548160ff02191690836002811115610ce657610ce561169c565b5b02179055508181600701819055506000816008018190555060008160090181905550600081600a0181905550600181600b0160006101000a81548160ff021916908315150217905550600081600b0160016101000a81548160ff021916908360ff1602179055507ffa127411522a1139d16c2142db999e127aef2288bd98a0558006bb115666ab1b898989878787604051610d86969594939291906113e4565b60405180910390a1505050505050505050565b828054610da5906115c1565b90600052602060002090601f016020900481019282610dc75760008555610e0e565b82601f10610de057805160ff1916838001178555610e0e565b82800160010185558215610e0e579182015b82811115610e0d578251825591602001919060010190610df2565b5b509050610e1b9190610e1f565b5090565b5b80821115610e38576000816000905550600101610e20565b5090565b6000610e4f610e4a84611502565b6114dd565b905082815260208101848484011115610e6b57610e6a61172e565b5b610e768482856115b2565b509392505050565b600081359050610e8d81611a26565b92915050565b600082601f830112610ea857610ea7611729565b5b8135610eb8848260208601610e3c565b91505092915050565b600081359050610ed081611a3d565b92915050565b600081359050610ee581611a54565b92915050565b600080600060608486031215610f0457610f03611738565b5b6000610f1286828701610ec1565b9350506020610f2386828701610ec1565b9250506040610f3486828701610ec1565b9150509250925092565b600080600080600060a08688031215610f5a57610f59611738565b5b6000610f6888828901610ec1565b9550506020610f7988828901610ec1565b9450506040610f8a88828901610ec1565b9350506060610f9b88828901610e7e565b9250506080610fac88828901610ed6565b9150509295509295909350565b600080600080600060a08688031215610fd557610fd4611738565b5b6000610fe388828901610ec1565b9550506020610ff488828901610ec1565b945050604061100588828901610ec1565b935050606086013567ffffffffffffffff81111561102657611025611733565b5b61103288828901610e93565b925050608086013567ffffffffffffffff81111561105357611052611733565b5b61105f88828901610e93565b9150509295509295909350565b600080600080600080600080610100898b03121561108d5761108c611738565b5b600061109b8b828c01610ec1565b98505060206110ac8b828c01610ec1565b97505060406110bd8b828c01610ec1565b965050606089013567ffffffffffffffff8111156110de576110dd611733565b5b6110ea8b828c01610e93565b955050608089013567ffffffffffffffff81111561110b5761110a611733565b5b6111178b828c01610e93565b94505060a06111288b828c01610e7e565b93505060c06111398b828c01610e7e565b92505060e061114a8b828c01610ec1565b9150509295985092959890939650565b61116381611544565b82525050565b611172816115a0565b82525050565b6000611185605783611533565b91506111908261174e565b606082019050919050565b60006111a8602d83611533565b91506111b3826117c3565b604082019050919050565b60006111cb603083611533565b91506111d682611812565b604082019050919050565b60006111ee603d83611533565b91506111f982611861565b604082019050919050565b6000611211604a83611533565b915061121c826118b0565b606082019050919050565b6000611234603983611533565b915061123f82611925565b604082019050919050565b6000611257602083611533565b915061126282611974565b602082019050919050565b600061127a604d83611533565b91506112858261199d565b606082019050919050565b61129981611589565b82525050565b6112a881611593565b82525050565b60006020820190506112c36000830184611169565b92915050565b600060208201905081810360008301526112e281611178565b9050919050565b600060208201905081810360008301526113028161119b565b9050919050565b60006020820190508181036000830152611322816111be565b9050919050565b60006020820190508181036000830152611342816111e1565b9050919050565b6000602082019050818103600083015261136281611204565b9050919050565b6000602082019050818103600083015261138281611227565b9050919050565b600060208201905081810360008301526113a28161124a565b9050919050565b600060208201905081810360008301526113c28161126d565b9050919050565b60006020820190506113de6000830184611290565b92915050565b600060c0820190506113f96000830189611290565b6114066020830188611290565b6114136040830187611290565b611420606083018661115a565b61142d608083018561115a565b61143a60a0830184611290565b979650505050505050565b600060a08201905061145a6000830188611290565b6114676020830187611290565b6114746040830186611290565b611481606083018561115a565b61148e608083018461129f565b9695505050505050565b60006080820190506114ad6000830187611290565b6114ba6020830186611290565b6114c76040830185611290565b6114d4606083018461129f565b95945050505050565b60006114e76114f8565b90506114f382826115f3565b919050565b6000604051905090565b600067ffffffffffffffff82111561151d5761151c6116fa565b5b6115268261173d565b9050602081019050919050565b600082825260208201905092915050565b600061154f82611569565b9050919050565b600081905061156482611a12565b919050565b600073ffffffffffffffffffffffffffffffffffffffff82169050919050565b6000819050919050565b600060ff82169050919050565b60006115ab82611556565b9050919050565b82818337600083830152505050565b600060028204905060018216806115d957607f821691505b602082108114156115ed576115ec6116cb565b5b50919050565b6115fc8261173d565b810181811067ffffffffffffffff8211171561161b5761161a6116fa565b5b80604052505050565b600061162f82611589565b91507fffffffffffffffffffffffffffffffffffffffffffffffffffffffffffffffff8214156116625761166161166d565b5b600182019050919050565b7f4e487b7100000000000000000000000000000000000000000000000000000000600052601160045260246000fd5b7f4e487b7100000000000000000000000000000000000000000000000000000000600052602160045260246000fd5b7f4e487b7100000000000000000000000000000000000000000000000000000000600052602260045260246000fd5b7f4e487b7100000000000000000000000000000000000000000000000000000000600052604160045260246000fd5b600080fd5b600080fd5b600080fd5b600080fd5b6000601f19601f8301169050919050565b7f596f752068617665206e6f7420696e707574206120726967687420766f74652e60008201527f20596f752063616e2065697468657220766f7465203120666f7220526571756560208201527f73746572206f72203220666f722050726f76696465722e000000000000000000604082015250565b7f596f75206861766520616c726561647920766f7465642c20796f752063616e6e60008201527f6f7420766f746520616761696e00000000000000000000000000000000000000602082015250565b7f596f7520726169736564207468697320636f6e666c6963742e20596f7520636160008201527f6e6e6f7420766f7465206f6e2069742e00000000000000000000000000000000602082015250565b7f566f74696e6720686173206e6f74206265656e20636f6d706c6574656420796560008201527f742e20506c65617365207761697420666f7220697420746f20656e642e000000602082015250565b7f4e6f742065766572796f6e652068617320766f7465642c20706c65617365207060008201527f726f6d707420616c6c206f74686572206d656d62657273206f662070726f6a6560208201527f637420746f20766f746500000000000000000000000000000000000000000000604082015250565b7f596f752061726520696e766f6c76656420696e207468697320636f6e666c696360008201527f742e20596f752063616e6e6f7420766f7465206f6e2069742e00000000000000602082015250565b7f456e6f75676820766f7465732068617665206265656e20636f6c6c6563746564600082015250565b7f436f6e666c6963742068617320616c7265616479206265656e2063726561746560008201527f642e20506c6561736520646f206e6f7420637265617465206d6f72652074686160208201527f6e203120636f6e666c6963742e00000000000000000000000000000000000000604082015250565b60038110611a2357611a2261169c565b5b50565b611a2f81611544565b8114611a3a57600080fd5b50565b611a4681611589565b8114611a5157600080fd5b50565b611a5d81611593565b8114611a6857600080fd5b5056fea2646970667358221220f68f7fcb735e403388a605d6fe660ccf5159fa07c3ddf373085981ab1e480ea064736f6c63430008070033",
					"opcodes": "PUSH1 0x80 PUSH1 0x40 MSTORE CALLVALUE DUP1 ISZERO PUSH2 0x10 JUMPI PUSH1 0x0 DUP1 REVERT JUMPDEST POP PUSH2 0x1AA1 DUP1 PUSH2 0x20 PUSH1 0x0 CODECOPY PUSH1 0x0 RETURN INVALID PUSH1 0x80 PUSH1 0x40 MSTORE CALLVALUE DUP1 ISZERO PUSH2 0x10 JUMPI PUSH1 0x0 DUP1 REVERT JUMPDEST POP PUSH1 0x4 CALLDATASIZE LT PUSH2 0x92 JUMPI PUSH1 0x0 CALLDATALOAD PUSH1 0xE0 SHR DUP1 PUSH4 0xC171BDF7 GT PUSH2 0x66 JUMPI DUP1 PUSH4 0xC171BDF7 EQ PUSH2 0x143 JUMPI DUP1 PUSH4 0xCB4389CE EQ PUSH2 0x15F JUMPI DUP1 PUSH4 0xD1E992A7 EQ PUSH2 0x18F JUMPI DUP1 PUSH4 0xE3D87718 EQ PUSH2 0x1AB JUMPI DUP1 PUSH4 0xE62FAC27 EQ PUSH2 0x1DB JUMPI PUSH2 0x92 JUMP JUMPDEST DUP1 PUSH3 0x3F489F EQ PUSH2 0x97 JUMPI DUP1 PUSH4 0x366CEF2 EQ PUSH2 0xB3 JUMPI DUP1 PUSH4 0x3C45FE31 EQ PUSH2 0xE3 JUMPI DUP1 PUSH4 0x9AC78879 EQ PUSH2 0x113 JUMPI JUMPDEST PUSH1 0x0 DUP1 REVERT JUMPDEST PUSH2 0xB1 PUSH1 0x4 DUP1 CALLDATASIZE SUB DUP2 ADD SWAP1 PUSH2 0xAC SWAP2 SWAP1 PUSH2 0xEEB JUMP JUMPDEST PUSH2 0x1F7 JUMP JUMPDEST STOP JUMPDEST PUSH2 0xCD PUSH1 0x4 DUP1 CALLDATASIZE SUB DUP2 ADD SWAP1 PUSH2 0xC8 SWAP2 SWAP1 PUSH2 0xEEB JUMP JUMPDEST PUSH2 0x24C JUMP JUMPDEST PUSH1 0x40 MLOAD PUSH2 0xDA SWAP2 SWAP1 PUSH2 0x13C9 JUMP JUMPDEST PUSH1 0x40 MLOAD DUP1 SWAP2 SUB SWAP1 RETURN JUMPDEST PUSH2 0xFD PUSH1 0x4 DUP1 CALLDATASIZE SUB DUP2 ADD SWAP1 PUSH2 0xF8 SWAP2 SWAP1 PUSH2 0xEEB JUMP JUMPDEST PUSH2 0x3F9 JUMP JUMPDEST PUSH1 0x40 MLOAD PUSH2 0x10A SWAP2 SWAP1 PUSH2 0x13C9 JUMP JUMPDEST PUSH1 0x40 MLOAD DUP1 SWAP2 SUB SWAP1 RETURN JUMPDEST PUSH2 0x12D PUSH1 0x4 DUP1 CALLDATASIZE SUB DUP2 ADD SWAP1 PUSH2 0x128 SWAP2 SWAP1 PUSH2 0xEEB JUMP JUMPDEST PUSH2 0x43C JUMP JUMPDEST PUSH1 0x40 MLOAD PUSH2 0x13A SWAP2 SWAP1 PUSH2 0x13C9 JUMP JUMPDEST PUSH1 0x40 MLOAD DUP1 SWAP2 SUB SWAP1 RETURN JUMPDEST PUSH2 0x15D PUSH1 0x4 DUP1 CALLDATASIZE SUB DUP2 ADD SWAP1 PUSH2 0x158 SWAP2 SWAP1 PUSH2 0xF3E JUMP JUMPDEST PUSH2 0x47F JUMP JUMPDEST STOP JUMPDEST PUSH2 0x179 PUSH1 0x4 DUP1 CALLDATASIZE SUB DUP2 ADD SWAP1 PUSH2 0x174 SWAP2 SWAP1 PUSH2 0xEEB JUMP JUMPDEST PUSH2 0x9F5 JUMP JUMPDEST PUSH1 0x40 MLOAD PUSH2 0x186 SWAP2 SWAP1 PUSH2 0x12AE JUMP JUMPDEST PUSH1 0x40 MLOAD DUP1 SWAP2 SUB SWAP1 RETURN JUMPDEST PUSH2 0x1A9 PUSH1 0x4 DUP1 CALLDATASIZE SUB DUP2 ADD SWAP1 PUSH2 0x1A4 SWAP2 SWAP1 PUSH2 0xFB9 JUMP JUMPDEST PUSH2 0xA45 JUMP JUMPDEST STOP JUMPDEST PUSH2 0x1C5 PUSH1 0x4 DUP1 CALLDATASIZE SUB DUP2 ADD SWAP1 PUSH2 0x1C0 SWAP2 SWAP1 PUSH2 0xEEB JUMP JUMPDEST PUSH2 0xAE4 JUMP JUMPDEST PUSH1 0x40 MLOAD PUSH2 0x1D2 SWAP2 SWAP1 PUSH2 0x13C9 JUMP JUMPDEST PUSH1 0x40 MLOAD DUP1 SWAP2 SUB SWAP1 RETURN JUMPDEST PUSH2 0x1F5 PUSH1 0x4 DUP1 CALLDATASIZE SUB DUP2 ADD SWAP1 PUSH2 0x1F0 SWAP2 SWAP1 PUSH2 0x106C JUMP JUMPDEST PUSH2 0xB27 JUMP JUMPDEST STOP JUMPDEST PUSH1 0x0 DUP1 PUSH1 0x0 DUP6 DUP2 MSTORE PUSH1 0x20 ADD SWAP1 DUP2 MSTORE PUSH1 0x20 ADD PUSH1 0x0 KECCAK256 PUSH1 0x0 DUP5 DUP2 MSTORE PUSH1 0x20 ADD SWAP1 DUP2 MSTORE PUSH1 0x20 ADD PUSH1 0x0 KECCAK256 PUSH1 0x0 DUP4 DUP2 MSTORE PUSH1 0x20 ADD SWAP1 DUP2 MSTORE PUSH1 0x20 ADD PUSH1 0x0 KECCAK256 PUSH1 0xB ADD PUSH1 0x0 PUSH2 0x100 EXP DUP2 SLOAD DUP2 PUSH1 0xFF MUL NOT AND SWAP1 DUP4 ISZERO ISZERO MUL OR SWAP1 SSTORE POP POP POP POP JUMP JUMPDEST PUSH1 0x0 DUP1 PUSH1 0x0 DUP6 DUP2 MSTORE PUSH1 0x20 ADD SWAP1 DUP2 MSTORE PUSH1 0x20 ADD PUSH1 0x0 KECCAK256 PUSH1 0x0 DUP5 DUP2 MSTORE PUSH1 0x20 ADD SWAP1 DUP2 MSTORE PUSH1 0x20 ADD PUSH1 0x0 KECCAK256 PUSH1 0x0 DUP4 DUP2 MSTORE PUSH1 0x20 ADD SWAP1 DUP2 MSTORE PUSH1 0x20 ADD PUSH1 0x0 KECCAK256 PUSH1 0x7 ADD SLOAD PUSH1 0x0 DUP1 DUP7 DUP2 MSTORE PUSH1 0x20 ADD SWAP1 DUP2 MSTORE PUSH1 0x20 ADD PUSH1 0x0 KECCAK256 PUSH1 0x0 DUP6 DUP2 MSTORE PUSH1 0x20 ADD SWAP1 DUP2 MSTORE PUSH1 0x20 ADD PUSH1 0x0 KECCAK256 PUSH1 0x0 DUP5 DUP2 MSTORE PUSH1 0x20 ADD SWAP1 DUP2 MSTORE PUSH1 0x20 ADD PUSH1 0x0 KECCAK256 PUSH1 0x8 ADD SLOAD EQ PUSH2 0x2FE JUMPI PUSH1 0x40 MLOAD PUSH32 0x8C379A000000000000000000000000000000000000000000000000000000000 DUP2 MSTORE PUSH1 0x4 ADD PUSH2 0x2F5 SWAP1 PUSH2 0x1349 JUMP JUMPDEST PUSH1 0x40 MLOAD DUP1 SWAP2 SUB SWAP1 REVERT JUMPDEST PUSH1 0x2 DUP1 DUP2 GT ISZERO PUSH2 0x311 JUMPI PUSH2 0x310 PUSH2 0x169C JUMP JUMPDEST JUMPDEST PUSH1 0x0 DUP1 DUP7 DUP2 MSTORE PUSH1 0x20 ADD SWAP1 DUP2 MSTORE PUSH1 0x20 ADD PUSH1 0x0 KECCAK256 PUSH1 0x0 DUP6 DUP2 MSTORE PUSH1 0x20 ADD SWAP1 DUP2 MSTORE PUSH1 0x20 ADD PUSH1 0x0 KECCAK256 PUSH1 0x0 DUP5 DUP2 MSTORE PUSH1 0x20 ADD SWAP1 DUP2 MSTORE PUSH1 0x20 ADD PUSH1 0x0 KECCAK256 PUSH1 0x6 ADD PUSH1 0x14 SWAP1 SLOAD SWAP1 PUSH2 0x100 EXP SWAP1 DIV PUSH1 0xFF AND PUSH1 0x2 DUP2 GT ISZERO PUSH2 0x368 JUMPI PUSH2 0x367 PUSH2 0x169C JUMP JUMPDEST JUMPDEST EQ PUSH2 0x3A8 JUMPI PUSH1 0x40 MLOAD PUSH32 0x8C379A000000000000000000000000000000000000000000000000000000000 DUP2 MSTORE PUSH1 0x4 ADD PUSH2 0x39F SWAP1 PUSH2 0x1329 JUMP JUMPDEST PUSH1 0x40 MLOAD DUP1 SWAP2 SUB SWAP1 REVERT JUMPDEST PUSH1 0x0 DUP1 DUP6 DUP2 MSTORE PUSH1 0x20 ADD SWAP1 DUP2 MSTORE PUSH1 0x20 ADD PUSH1 0x0 KECCAK256 PUSH1 0x0 DUP5 DUP2 MSTORE PUSH1 0x20 ADD SWAP1 DUP2 MSTORE PUSH1 0x20 ADD PUSH1 0x0 KECCAK256 PUSH1 0x0 DUP4 DUP2 MSTORE PUSH1 0x20 ADD SWAP1 DUP2 MSTORE PUSH1 0x20 ADD PUSH1 0x0 KECCAK256 PUSH1 0xB ADD PUSH1 0x1 SWAP1 SLOAD SWAP1 PUSH2 0x100 EXP SWAP1 DIV PUSH1 0xFF AND PUSH1 0xFF AND SWAP1 POP SWAP4 SWAP3 POP POP POP JUMP JUMPDEST PUSH1 0x0 DUP1 PUSH1 0x0 DUP6 DUP2 MSTORE PUSH1 0x20 ADD SWAP1 DUP2 MSTORE PUSH1 0x20 ADD PUSH1 0x0 KECCAK256 PUSH1 0x0 DUP5 DUP2 MSTORE PUSH1 0x20 ADD SWAP1 DUP2 MSTORE PUSH1 0x20 ADD PUSH1 0x0 KECCAK256 PUSH1 0x0 DUP4 DUP2 MSTORE PUSH1 0x20 ADD SWAP1 DUP2 MSTORE PUSH1 0x20 ADD PUSH1 0x0 KECCAK256 PUSH1 0x8 ADD SLOAD SWAP1 POP SWAP4 SWAP3 POP POP POP JUMP JUMPDEST PUSH1 0x0 DUP1 PUSH1 0x0 DUP6 DUP2 MSTORE PUSH1 0x20 ADD SWAP1 DUP2 MSTORE PUSH1 0x20 ADD PUSH1 0x0 KECCAK256 PUSH1 0x0 DUP5 DUP2 MSTORE PUSH1 0x20 ADD SWAP1 DUP2 MSTORE PUSH1 0x20 ADD PUSH1 0x0 KECCAK256 PUSH1 0x0 DUP4 DUP2 MSTORE PUSH1 0x20 ADD SWAP1 DUP2 MSTORE PUSH1 0x20 ADD PUSH1 0x0 KECCAK256 PUSH1 0xA ADD SLOAD SWAP1 POP SWAP4 SWAP3 POP POP POP JUMP JUMPDEST DUP2 PUSH20 0xFFFFFFFFFFFFFFFFFFFFFFFFFFFFFFFFFFFFFFFF AND PUSH1 0x0 DUP1 DUP8 DUP2 MSTORE PUSH1 0x20 ADD SWAP1 DUP2 MSTORE PUSH1 0x20 ADD PUSH1 0x0 KECCAK256 PUSH1 0x0 DUP7 DUP2 MSTORE PUSH1 0x20 ADD SWAP1 DUP2 MSTORE PUSH1 0x20 ADD PUSH1 0x0 KECCAK256 PUSH1 0x0 DUP6 DUP2 MSTORE PUSH1 0x20 ADD SWAP1 DUP2 MSTORE PUSH1 0x20 ADD PUSH1 0x0 KECCAK256 PUSH1 0x5 ADD PUSH1 0x0 SWAP1 SLOAD SWAP1 PUSH2 0x100 EXP SWAP1 DIV PUSH20 0xFFFFFFFFFFFFFFFFFFFFFFFFFFFFFFFFFFFFFFFF AND PUSH20 0xFFFFFFFFFFFFFFFFFFFFFFFFFFFFFFFFFFFFFFFF AND EQ ISZERO PUSH2 0x545 JUMPI PUSH1 0x40 MLOAD PUSH32 0x8C379A000000000000000000000000000000000000000000000000000000000 DUP2 MSTORE PUSH1 0x4 ADD PUSH2 0x53C SWAP1 PUSH2 0x1309 JUMP JUMPDEST PUSH1 0x40 MLOAD DUP1 SWAP2 SUB SWAP1 REVERT JUMPDEST DUP2 PUSH20 0xFFFFFFFFFFFFFFFFFFFFFFFFFFFFFFFFFFFFFFFF AND PUSH1 0x0 DUP1 DUP8 DUP2 MSTORE PUSH1 0x20 ADD SWAP1 DUP2 MSTORE PUSH1 0x20 ADD PUSH1 0x0 KECCAK256 PUSH1 0x0 DUP7 DUP2 MSTORE PUSH1 0x20 ADD SWAP1 DUP2 MSTORE PUSH1 0x20 ADD PUSH1 0x0 KECCAK256 PUSH1 0x0 DUP6 DUP2 MSTORE PUSH1 0x20 ADD SWAP1 DUP2 MSTORE PUSH1 0x20 ADD PUSH1 0x0 KECCAK256 PUSH1 0x6 ADD PUSH1 0x0 SWAP1 SLOAD SWAP1 PUSH2 0x100 EXP SWAP1 DIV PUSH20 0xFFFFFFFFFFFFFFFFFFFFFFFFFFFFFFFFFFFFFFFF AND PUSH20 0xFFFFFFFFFFFFFFFFFFFFFFFFFFFFFFFFFFFFFFFF AND EQ ISZERO PUSH2 0x60B JUMPI PUSH1 0x40 MLOAD PUSH32 0x8C379A000000000000000000000000000000000000000000000000000000000 DUP2 MSTORE PUSH1 0x4 ADD PUSH2 0x602 SWAP1 PUSH2 0x1369 JUMP JUMPDEST PUSH1 0x40 MLOAD DUP1 SWAP2 SUB SWAP1 REVERT JUMPDEST PUSH1 0x0 DUP1 DUP7 DUP2 MSTORE PUSH1 0x20 ADD SWAP1 DUP2 MSTORE PUSH1 0x20 ADD PUSH1 0x0 KECCAK256 PUSH1 0x0 DUP6 DUP2 MSTORE PUSH1 0x20 ADD SWAP1 DUP2 MSTORE PUSH1 0x20 ADD PUSH1 0x0 KECCAK256 PUSH1 0x0 DUP5 DUP2 MSTORE PUSH1 0x20 ADD SWAP1 DUP2 MSTORE PUSH1 0x20 ADD PUSH1 0x0 KECCAK256 PUSH1 0x7 ADD SLOAD PUSH1 0x0 DUP1 DUP8 DUP2 MSTORE PUSH1 0x20 ADD SWAP1 DUP2 MSTORE PUSH1 0x20 ADD PUSH1 0x0 KECCAK256 PUSH1 0x0 DUP7 DUP2 MSTORE PUSH1 0x20 ADD SWAP1 DUP2 MSTORE PUSH1 0x20 ADD PUSH1 0x0 KECCAK256 PUSH1 0x0 DUP6 DUP2 MSTORE PUSH1 0x20 ADD SWAP1 DUP2 MSTORE PUSH1 0x20 ADD PUSH1 0x0 KECCAK256 PUSH1 0x8 ADD SLOAD LT PUSH2 0x6BB JUMPI PUSH1 0x40 MLOAD PUSH32 0x8C379A000000000000000000000000000000000000000000000000000000000 DUP2 MSTORE PUSH1 0x4 ADD PUSH2 0x6B2 SWAP1 PUSH2 0x1389 JUMP JUMPDEST PUSH1 0x40 MLOAD DUP1 SWAP2 SUB SWAP1 REVERT JUMPDEST PUSH1 0x0 DUP1 PUSH1 0x0 DUP8 DUP2 MSTORE PUSH1 0x20 ADD SWAP1 DUP2 MSTORE PUSH1 0x20 ADD PUSH1 0x0 KECCAK256 PUSH1 0x0 DUP7 DUP2 MSTORE PUSH1 0x20 ADD SWAP1 DUP2 MSTORE PUSH1 0x20 ADD PUSH1 0x0 KECCAK256 PUSH1 0x0 DUP6 DUP2 MSTORE PUSH1 0x20 ADD SWAP1 DUP2 MSTORE PUSH1 0x20 ADD PUSH1 0x0 KECCAK256 PUSH1 0xC ADD PUSH1 0x0 DUP5 PUSH20 0xFFFFFFFFFFFFFFFFFFFFFFFFFFFFFFFFFFFFFFFF AND PUSH20 0xFFFFFFFFFFFFFFFFFFFFFFFFFFFFFFFFFFFFFFFF AND DUP2 MSTORE PUSH1 0x20 ADD SWAP1 DUP2 MSTORE PUSH1 0x20 ADD PUSH1 0x0 KECCAK256 PUSH1 0x0 SWAP1 SLOAD SWAP1 PUSH2 0x100 EXP SWAP1 DIV PUSH1 0xFF AND PUSH1 0xFF AND EQ PUSH2 0x782 JUMPI PUSH1 0x40 MLOAD PUSH32 0x8C379A000000000000000000000000000000000000000000000000000000000 DUP2 MSTORE PUSH1 0x4 ADD PUSH2 0x779 SWAP1 PUSH2 0x12E9 JUMP JUMPDEST PUSH1 0x40 MLOAD DUP1 SWAP2 SUB SWAP1 REVERT JUMPDEST PUSH1 0x1 DUP2 PUSH1 0xFF AND EQ DUP1 PUSH2 0x797 JUMPI POP PUSH1 0x2 DUP2 PUSH1 0xFF AND EQ JUMPDEST PUSH2 0x7D6 JUMPI PUSH1 0x40 MLOAD PUSH32 0x8C379A000000000000000000000000000000000000000000000000000000000 DUP2 MSTORE PUSH1 0x4 ADD PUSH2 0x7CD SWAP1 PUSH2 0x12C9 JUMP JUMPDEST PUSH1 0x40 MLOAD DUP1 SWAP2 SUB SWAP1 REVERT JUMPDEST PUSH1 0x0 DUP1 PUSH1 0x0 DUP8 DUP2 MSTORE PUSH1 0x20 ADD SWAP1 DUP2 MSTORE PUSH1 0x20 ADD PUSH1 0x0 KECCAK256 PUSH1 0x0 DUP7 DUP2 MSTORE PUSH1 0x20 ADD SWAP1 DUP2 MSTORE PUSH1 0x20 ADD PUSH1 0x0 KECCAK256 PUSH1 0x0 DUP6 DUP2 MSTORE PUSH1 0x20 ADD SWAP1 DUP2 MSTORE PUSH1 0x20 ADD PUSH1 0x0 KECCAK256 SWAP1 POP DUP2 DUP2 PUSH1 0xC ADD PUSH1 0x0 DUP6 PUSH20 0xFFFFFFFFFFFFFFFFFFFFFFFFFFFFFFFFFFFFFFFF AND PUSH20 0xFFFFFFFFFFFFFFFFFFFFFFFFFFFFFFFFFFFFFFFF AND DUP2 MSTORE PUSH1 0x20 ADD SWAP1 DUP2 MSTORE PUSH1 0x20 ADD PUSH1 0x0 KECCAK256 PUSH1 0x0 PUSH2 0x100 EXP DUP2 SLOAD DUP2 PUSH1 0xFF MUL NOT AND SWAP1 DUP4 PUSH1 0xFF AND MUL OR SWAP1 SSTORE POP PUSH1 0x1 DUP3 PUSH1 0xFF AND EQ ISZERO PUSH2 0x88F JUMPI DUP1 PUSH1 0x9 ADD PUSH1 0x0 DUP2 SLOAD DUP1 SWAP3 SWAP2 SWAP1 PUSH2 0x889 SWAP1 PUSH2 0x1624 JUMP JUMPDEST SWAP2 SWAP1 POP SSTORE POP JUMPDEST PUSH1 0x2 DUP3 PUSH1 0xFF AND EQ ISZERO PUSH2 0x8B6 JUMPI DUP1 PUSH1 0xA ADD PUSH1 0x0 DUP2 SLOAD DUP1 SWAP3 SWAP2 SWAP1 PUSH2 0x8B0 SWAP1 PUSH2 0x1624 JUMP JUMPDEST SWAP2 SWAP1 POP SSTORE POP JUMPDEST DUP1 PUSH1 0x8 ADD PUSH1 0x0 DUP2 SLOAD DUP1 SWAP3 SWAP2 SWAP1 PUSH2 0x8CB SWAP1 PUSH2 0x1624 JUMP JUMPDEST SWAP2 SWAP1 POP SSTORE POP PUSH32 0x20211B974ADBE11CE3687D51504CE7EF1FCFBB9C00405BA7ACA7B283903F345A DUP7 DUP7 DUP7 CALLER DUP7 PUSH1 0x40 MLOAD PUSH2 0x907 SWAP6 SWAP5 SWAP4 SWAP3 SWAP2 SWAP1 PUSH2 0x1445 JUMP JUMPDEST PUSH1 0x40 MLOAD DUP1 SWAP2 SUB SWAP1 LOG1 DUP1 PUSH1 0x7 ADD SLOAD DUP2 PUSH1 0x8 ADD SLOAD EQ ISZERO PUSH2 0x9ED JUMPI DUP1 PUSH1 0x9 ADD SLOAD DUP2 PUSH1 0xA ADD SLOAD GT ISZERO PUSH2 0x952 JUMPI PUSH1 0x2 DUP2 PUSH1 0xB ADD PUSH1 0x1 PUSH2 0x100 EXP DUP2 SLOAD DUP2 PUSH1 0xFF MUL NOT AND SWAP1 DUP4 PUSH1 0xFF AND MUL OR SWAP1 SSTORE POP PUSH2 0x971 JUMP JUMPDEST PUSH1 0x1 DUP2 PUSH1 0xB ADD PUSH1 0x1 PUSH2 0x100 EXP DUP2 SLOAD DUP2 PUSH1 0xFF MUL NOT AND SWAP1 DUP4 PUSH1 0xFF AND MUL OR SWAP1 SSTORE POP JUMPDEST PUSH1 0x2 DUP2 PUSH1 0x6 ADD PUSH1 0x14 PUSH2 0x100 EXP DUP2 SLOAD DUP2 PUSH1 0xFF MUL NOT AND SWAP1 DUP4 PUSH1 0x2 DUP2 GT ISZERO PUSH2 0x999 JUMPI PUSH2 0x998 PUSH2 0x169C JUMP JUMPDEST JUMPDEST MUL OR SWAP1 SSTORE POP PUSH32 0xE59FDBC65A5DD63C529717C2A71D04B136038F05301755DE242DD05990C02814 DUP7 DUP7 DUP7 DUP5 PUSH1 0xB ADD PUSH1 0x1 SWAP1 SLOAD SWAP1 PUSH2 0x100 EXP SWAP1 DIV PUSH1 0xFF AND PUSH1 0x40 MLOAD PUSH2 0x9E4 SWAP5 SWAP4 SWAP3 SWAP2 SWAP1 PUSH2 0x1498 JUMP JUMPDEST PUSH1 0x40 MLOAD DUP1 SWAP2 SUB SWAP1 LOG1 JUMPDEST POP POP POP POP POP POP JUMP JUMPDEST PUSH1 0x0 DUP1 PUSH1 0x0 DUP6 DUP2 MSTORE PUSH1 0x20 ADD SWAP1 DUP2 MSTORE PUSH1 0x20 ADD PUSH1 0x0 KECCAK256 PUSH1 0x0 DUP5 DUP2 MSTORE PUSH1 0x20 ADD SWAP1 DUP2 MSTORE PUSH1 0x20 ADD PUSH1 0x0 KECCAK256 PUSH1 0x0 DUP4 DUP2 MSTORE PUSH1 0x20 ADD SWAP1 DUP2 MSTORE PUSH1 0x20 ADD PUSH1 0x0 KECCAK256 PUSH1 0x6 ADD PUSH1 0x14 SWAP1 SLOAD SWAP1 PUSH2 0x100 EXP SWAP1 DIV PUSH1 0xFF AND SWAP1 POP SWAP4 SWAP3 POP POP POP JUMP JUMPDEST DUP2 PUSH1 0x0 DUP1 DUP8 DUP2 MSTORE PUSH1 0x20 ADD SWAP1 DUP2 MSTORE PUSH1 0x20 ADD PUSH1 0x0 KECCAK256 PUSH1 0x0 DUP7 DUP2 MSTORE PUSH1 0x20 ADD SWAP1 DUP2 MSTORE PUSH1 0x20 ADD PUSH1 0x0 KECCAK256 PUSH1 0x0 DUP6 DUP2 MSTORE PUSH1 0x20 ADD SWAP1 DUP2 MSTORE PUSH1 0x20 ADD PUSH1 0x0 KECCAK256 PUSH1 0x3 ADD SWAP1 DUP1 MLOAD SWAP1 PUSH1 0x20 ADD SWAP1 PUSH2 0xA90 SWAP3 SWAP2 SWAP1 PUSH2 0xD99 JUMP JUMPDEST POP DUP1 PUSH1 0x0 DUP1 DUP8 DUP2 MSTORE PUSH1 0x20 ADD SWAP1 DUP2 MSTORE PUSH1 0x20 ADD PUSH1 0x0 KECCAK256 PUSH1 0x0 DUP7 DUP2 MSTORE PUSH1 0x20 ADD SWAP1 DUP2 MSTORE PUSH1 0x20 ADD PUSH1 0x0 KECCAK256 PUSH1 0x0 DUP6 DUP2 MSTORE PUSH1 0x20 ADD SWAP1 DUP2 MSTORE PUSH1 0x20 ADD PUSH1 0x0 KECCAK256 PUSH1 0x4 ADD SWAP1 DUP1 MLOAD SWAP1 PUSH1 0x20 ADD SWAP1 PUSH2 0xADC SWAP3 SWAP2 SWAP1 PUSH2 0xD99 JUMP JUMPDEST POP POP POP POP POP POP JUMP JUMPDEST PUSH1 0x0 DUP1 PUSH1 0x0 DUP6 DUP2 MSTORE PUSH1 0x20 ADD SWAP1 DUP2 MSTORE PUSH1 0x20 ADD PUSH1 0x0 KECCAK256 PUSH1 0x0 DUP5 DUP2 MSTORE PUSH1 0x20 ADD SWAP1 DUP2 MSTORE PUSH1 0x20 ADD PUSH1 0x0 KECCAK256 PUSH1 0x0 DUP4 DUP2 MSTORE PUSH1 0x20 ADD SWAP1 DUP2 MSTORE PUSH1 0x20 ADD PUSH1 0x0 KECCAK256 PUSH1 0x9 ADD SLOAD SWAP1 POP SWAP4 SWAP3 POP POP POP JUMP JUMPDEST PUSH1 0x1 ISZERO ISZERO PUSH1 0x0 DUP1 DUP11 DUP2 MSTORE PUSH1 0x20 ADD SWAP1 DUP2 MSTORE PUSH1 0x20 ADD PUSH1 0x0 KECCAK256 PUSH1 0x0 DUP10 DUP2 MSTORE PUSH1 0x20 ADD SWAP1 DUP2 MSTORE PUSH1 0x20 ADD PUSH1 0x0 KECCAK256 PUSH1 0x0 DUP9 DUP2 MSTORE PUSH1 0x20 ADD SWAP1 DUP2 MSTORE PUSH1 0x20 ADD PUSH1 0x0 KECCAK256 PUSH1 0xB ADD PUSH1 0x0 SWAP1 SLOAD SWAP1 PUSH2 0x100 EXP SWAP1 DIV PUSH1 0xFF AND ISZERO ISZERO EQ ISZERO PUSH2 0xBB3 JUMPI PUSH1 0x40 MLOAD PUSH32 0x8C379A000000000000000000000000000000000000000000000000000000000 DUP2 MSTORE PUSH1 0x4 ADD PUSH2 0xBAA SWAP1 PUSH2 0x13A9 JUMP JUMPDEST PUSH1 0x40 MLOAD DUP1 SWAP2 SUB SWAP1 REVERT JUMPDEST PUSH1 0x0 DUP1 PUSH1 0x0 DUP11 DUP2 MSTORE PUSH1 0x20 ADD SWAP1 DUP2 MSTORE PUSH1 0x20 ADD PUSH1 0x0 KECCAK256 PUSH1 0x0 DUP10 DUP2 MSTORE PUSH1 0x20 ADD SWAP1 DUP2 MSTORE PUSH1 0x20 ADD PUSH1 0x0 KECCAK256 PUSH1 0x0 DUP9 DUP2 MSTORE PUSH1 0x20 ADD SWAP1 DUP2 MSTORE PUSH1 0x20 ADD PUSH1 0x0 KECCAK256 SWAP1 POP DUP9 DUP2 PUSH1 0x0 ADD DUP2 SWAP1 SSTORE POP DUP8 DUP2 PUSH1 0x1 ADD DUP2 SWAP1 SSTORE POP DUP7 DUP2 PUSH1 0x2 ADD DUP2 SWAP1 SSTORE POP DUP6 DUP2 PUSH1 0x3 ADD SWAP1 DUP1 MLOAD SWAP1 PUSH1 0x20 ADD SWAP1 PUSH2 0xC1E SWAP3 SWAP2 SWAP1 PUSH2 0xD99 JUMP JUMPDEST POP DUP5 DUP2 PUSH1 0x4 ADD SWAP1 DUP1 MLOAD SWAP1 PUSH1 0x20 ADD SWAP1 PUSH2 0xC37 SWAP3 SWAP2 SWAP1 PUSH2 0xD99 JUMP JUMPDEST POP DUP4 DUP2 PUSH1 0x5 ADD PUSH1 0x0 PUSH2 0x100 EXP DUP2 SLOAD DUP2 PUSH20 0xFFFFFFFFFFFFFFFFFFFFFFFFFFFFFFFFFFFFFFFF MUL NOT AND SWAP1 DUP4 PUSH20 0xFFFFFFFFFFFFFFFFFFFFFFFFFFFFFFFFFFFFFFFF AND MUL OR SWAP1 SSTORE POP DUP3 DUP2 PUSH1 0x6 ADD PUSH1 0x0 PUSH2 0x100 EXP DUP2 SLOAD DUP2 PUSH20 0xFFFFFFFFFFFFFFFFFFFFFFFFFFFFFFFFFFFFFFFF MUL NOT AND SWAP1 DUP4 PUSH20 0xFFFFFFFFFFFFFFFFFFFFFFFFFFFFFFFFFFFFFFFF AND MUL OR SWAP1 SSTORE POP PUSH1 0x1 DUP2 PUSH1 0x6 ADD PUSH1 0x14 PUSH2 0x100 EXP DUP2 SLOAD DUP2 PUSH1 0xFF MUL NOT AND SWAP1 DUP4 PUSH1 0x2 DUP2 GT ISZERO PUSH2 0xCE6 JUMPI PUSH2 0xCE5 PUSH2 0x169C JUMP JUMPDEST JUMPDEST MUL OR SWAP1 SSTORE POP DUP2 DUP2 PUSH1 0x7 ADD DUP2 SWAP1 SSTORE POP PUSH1 0x0 DUP2 PUSH1 0x8 ADD DUP2 SWAP1 SSTORE POP PUSH1 0x0 DUP2 PUSH1 0x9 ADD DUP2 SWAP1 SSTORE POP PUSH1 0x0 DUP2 PUSH1 0xA ADD DUP2 SWAP1 SSTORE POP PUSH1 0x1 DUP2 PUSH1 0xB ADD PUSH1 0x0 PUSH2 0x100 EXP DUP2 SLOAD DUP2 PUSH1 0xFF MUL NOT AND SWAP1 DUP4 ISZERO ISZERO MUL OR SWAP1 SSTORE POP PUSH1 0x0 DUP2 PUSH1 0xB ADD PUSH1 0x1 PUSH2 0x100 EXP DUP2 SLOAD DUP2 PUSH1 0xFF MUL NOT AND SWAP1 DUP4 PUSH1 0xFF AND MUL OR SWAP1 SSTORE POP PUSH32 0xFA127411522A1139D16C2142DB999E127AEF2288BD98A0558006BB115666AB1B DUP10 DUP10 DUP10 DUP8 DUP8 DUP8 PUSH1 0x40 MLOAD PUSH2 0xD86 SWAP7 SWAP6 SWAP5 SWAP4 SWAP3 SWAP2 SWAP1 PUSH2 0x13E4 JUMP JUMPDEST PUSH1 0x40 MLOAD DUP1 SWAP2 SUB SWAP1 LOG1 POP POP POP POP POP POP POP POP POP JUMP JUMPDEST DUP3 DUP1 SLOAD PUSH2 0xDA5 SWAP1 PUSH2 0x15C1 JUMP JUMPDEST SWAP1 PUSH1 0x0 MSTORE PUSH1 0x20 PUSH1 0x0 KECCAK256 SWAP1 PUSH1 0x1F ADD PUSH1 0x20 SWAP1 DIV DUP2 ADD SWAP3 DUP3 PUSH2 0xDC7 JUMPI PUSH1 0x0 DUP6 SSTORE PUSH2 0xE0E JUMP JUMPDEST DUP3 PUSH1 0x1F LT PUSH2 0xDE0 JUMPI DUP1 MLOAD PUSH1 0xFF NOT AND DUP4 DUP1 ADD OR DUP6 SSTORE PUSH2 0xE0E JUMP JUMPDEST DUP3 DUP1 ADD PUSH1 0x1 ADD DUP6 SSTORE DUP3 ISZERO PUSH2 0xE0E JUMPI SWAP2 DUP3 ADD JUMPDEST DUP3 DUP2 GT ISZERO PUSH2 0xE0D JUMPI DUP3 MLOAD DUP3 SSTORE SWAP2 PUSH1 0x20 ADD SWAP2 SWAP1 PUSH1 0x1 ADD SWAP1 PUSH2 0xDF2 JUMP JUMPDEST JUMPDEST POP SWAP1 POP PUSH2 0xE1B SWAP2 SWAP1 PUSH2 0xE1F JUMP JUMPDEST POP SWAP1 JUMP JUMPDEST JUMPDEST DUP1 DUP3 GT ISZERO PUSH2 0xE38 JUMPI PUSH1 0x0 DUP2 PUSH1 0x0 SWAP1 SSTORE POP PUSH1 0x1 ADD PUSH2 0xE20 JUMP JUMPDEST POP SWAP1 JUMP JUMPDEST PUSH1 0x0 PUSH2 0xE4F PUSH2 0xE4A DUP5 PUSH2 0x1502 JUMP JUMPDEST PUSH2 0x14DD JUMP JUMPDEST SWAP1 POP DUP3 DUP2 MSTORE PUSH1 0x20 DUP2 ADD DUP5 DUP5 DUP5 ADD GT ISZERO PUSH2 0xE6B JUMPI PUSH2 0xE6A PUSH2 0x172E JUMP JUMPDEST JUMPDEST PUSH2 0xE76 DUP5 DUP3 DUP6 PUSH2 0x15B2 JUMP JUMPDEST POP SWAP4 SWAP3 POP POP POP JUMP JUMPDEST PUSH1 0x0 DUP2 CALLDATALOAD SWAP1 POP PUSH2 0xE8D DUP2 PUSH2 0x1A26 JUMP JUMPDEST SWAP3 SWAP2 POP POP JUMP JUMPDEST PUSH1 0x0 DUP3 PUSH1 0x1F DUP4 ADD SLT PUSH2 0xEA8 JUMPI PUSH2 0xEA7 PUSH2 0x1729 JUMP JUMPDEST JUMPDEST DUP2 CALLDATALOAD PUSH2 0xEB8 DUP5 DUP3 PUSH1 0x20 DUP7 ADD PUSH2 0xE3C JUMP JUMPDEST SWAP2 POP POP SWAP3 SWAP2 POP POP JUMP JUMPDEST PUSH1 0x0 DUP2 CALLDATALOAD SWAP1 POP PUSH2 0xED0 DUP2 PUSH2 0x1A3D JUMP JUMPDEST SWAP3 SWAP2 POP POP JUMP JUMPDEST PUSH1 0x0 DUP2 CALLDATALOAD SWAP1 POP PUSH2 0xEE5 DUP2 PUSH2 0x1A54 JUMP JUMPDEST SWAP3 SWAP2 POP POP JUMP JUMPDEST PUSH1 0x0 DUP1 PUSH1 0x0 PUSH1 0x60 DUP5 DUP7 SUB SLT ISZERO PUSH2 0xF04 JUMPI PUSH2 0xF03 PUSH2 0x1738 JUMP JUMPDEST JUMPDEST PUSH1 0x0 PUSH2 0xF12 DUP7 DUP3 DUP8 ADD PUSH2 0xEC1 JUMP JUMPDEST SWAP4 POP POP PUSH1 0x20 PUSH2 0xF23 DUP7 DUP3 DUP8 ADD PUSH2 0xEC1 JUMP JUMPDEST SWAP3 POP POP PUSH1 0x40 PUSH2 0xF34 DUP7 DUP3 DUP8 ADD PUSH2 0xEC1 JUMP JUMPDEST SWAP2 POP POP SWAP3 POP SWAP3 POP SWAP3 JUMP JUMPDEST PUSH1 0x0 DUP1 PUSH1 0x0 DUP1 PUSH1 0x0 PUSH1 0xA0 DUP7 DUP9 SUB SLT ISZERO PUSH2 0xF5A JUMPI PUSH2 0xF59 PUSH2 0x1738 JUMP JUMPDEST JUMPDEST PUSH1 0x0 PUSH2 0xF68 DUP9 DUP3 DUP10 ADD PUSH2 0xEC1 JUMP JUMPDEST SWAP6 POP POP PUSH1 0x20 PUSH2 0xF79 DUP9 DUP3 DUP10 ADD PUSH2 0xEC1 JUMP JUMPDEST SWAP5 POP POP PUSH1 0x40 PUSH2 0xF8A DUP9 DUP3 DUP10 ADD PUSH2 0xEC1 JUMP JUMPDEST SWAP4 POP POP PUSH1 0x60 PUSH2 0xF9B DUP9 DUP3 DUP10 ADD PUSH2 0xE7E JUMP JUMPDEST SWAP3 POP POP PUSH1 0x80 PUSH2 0xFAC DUP9 DUP3 DUP10 ADD PUSH2 0xED6 JUMP JUMPDEST SWAP2 POP POP SWAP3 SWAP6 POP SWAP3 SWAP6 SWAP1 SWAP4 POP JUMP JUMPDEST PUSH1 0x0 DUP1 PUSH1 0x0 DUP1 PUSH1 0x0 PUSH1 0xA0 DUP7 DUP9 SUB SLT ISZERO PUSH2 0xFD5 JUMPI PUSH2 0xFD4 PUSH2 0x1738 JUMP JUMPDEST JUMPDEST PUSH1 0x0 PUSH2 0xFE3 DUP9 DUP3 DUP10 ADD PUSH2 0xEC1 JUMP JUMPDEST SWAP6 POP POP PUSH1 0x20 PUSH2 0xFF4 DUP9 DUP3 DUP10 ADD PUSH2 0xEC1 JUMP JUMPDEST SWAP5 POP POP PUSH1 0x40 PUSH2 0x1005 DUP9 DUP3 DUP10 ADD PUSH2 0xEC1 JUMP JUMPDEST SWAP4 POP POP PUSH1 0x60 DUP7 ADD CALLDATALOAD PUSH8 0xFFFFFFFFFFFFFFFF DUP2 GT ISZERO PUSH2 0x1026 JUMPI PUSH2 0x1025 PUSH2 0x1733 JUMP JUMPDEST JUMPDEST PUSH2 0x1032 DUP9 DUP3 DUP10 ADD PUSH2 0xE93 JUMP JUMPDEST SWAP3 POP POP PUSH1 0x80 DUP7 ADD CALLDATALOAD PUSH8 0xFFFFFFFFFFFFFFFF DUP2 GT ISZERO PUSH2 0x1053 JUMPI PUSH2 0x1052 PUSH2 0x1733 JUMP JUMPDEST JUMPDEST PUSH2 0x105F DUP9 DUP3 DUP10 ADD PUSH2 0xE93 JUMP JUMPDEST SWAP2 POP POP SWAP3 SWAP6 POP SWAP3 SWAP6 SWAP1 SWAP4 POP JUMP JUMPDEST PUSH1 0x0 DUP1 PUSH1 0x0 DUP1 PUSH1 0x0 DUP1 PUSH1 0x0 DUP1 PUSH2 0x100 DUP10 DUP12 SUB SLT ISZERO PUSH2 0x108D JUMPI PUSH2 0x108C PUSH2 0x1738 JUMP JUMPDEST JUMPDEST PUSH1 0x0 PUSH2 0x109B DUP12 DUP3 DUP13 ADD PUSH2 0xEC1 JUMP JUMPDEST SWAP9 POP POP PUSH1 0x20 PUSH2 0x10AC DUP12 DUP3 DUP13 ADD PUSH2 0xEC1 JUMP JUMPDEST SWAP8 POP POP PUSH1 0x40 PUSH2 0x10BD DUP12 DUP3 DUP13 ADD PUSH2 0xEC1 JUMP JUMPDEST SWAP7 POP POP PUSH1 0x60 DUP10 ADD CALLDATALOAD PUSH8 0xFFFFFFFFFFFFFFFF DUP2 GT ISZERO PUSH2 0x10DE JUMPI PUSH2 0x10DD PUSH2 0x1733 JUMP JUMPDEST JUMPDEST PUSH2 0x10EA DUP12 DUP3 DUP13 ADD PUSH2 0xE93 JUMP JUMPDEST SWAP6 POP POP PUSH1 0x80 DUP10 ADD CALLDATALOAD PUSH8 0xFFFFFFFFFFFFFFFF DUP2 GT ISZERO PUSH2 0x110B JUMPI PUSH2 0x110A PUSH2 0x1733 JUMP JUMPDEST JUMPDEST PUSH2 0x1117 DUP12 DUP3 DUP13 ADD PUSH2 0xE93 JUMP JUMPDEST SWAP5 POP POP PUSH1 0xA0 PUSH2 0x1128 DUP12 DUP3 DUP13 ADD PUSH2 0xE7E JUMP JUMPDEST SWAP4 POP POP PUSH1 0xC0 PUSH2 0x1139 DUP12 DUP3 DUP13 ADD PUSH2 0xE7E JUMP JUMPDEST SWAP3 POP POP PUSH1 0xE0 PUSH2 0x114A DUP12 DUP3 DUP13 ADD PUSH2 0xEC1 JUMP JUMPDEST SWAP2 POP POP SWAP3 SWAP6 SWAP9 POP SWAP3 SWAP6 SWAP9 SWAP1 SWAP4 SWAP7 POP JUMP JUMPDEST PUSH2 0x1163 DUP2 PUSH2 0x1544 JUMP JUMPDEST DUP3 MSTORE POP POP JUMP JUMPDEST PUSH2 0x1172 DUP2 PUSH2 0x15A0 JUMP JUMPDEST DUP3 MSTORE POP POP JUMP JUMPDEST PUSH1 0x0 PUSH2 0x1185 PUSH1 0x57 DUP4 PUSH2 0x1533 JUMP JUMPDEST SWAP2 POP PUSH2 0x1190 DUP3 PUSH2 0x174E JUMP JUMPDEST PUSH1 0x60 DUP3 ADD SWAP1 POP SWAP2 SWAP1 POP JUMP JUMPDEST PUSH1 0x0 PUSH2 0x11A8 PUSH1 0x2D DUP4 PUSH2 0x1533 JUMP JUMPDEST SWAP2 POP PUSH2 0x11B3 DUP3 PUSH2 0x17C3 JUMP JUMPDEST PUSH1 0x40 DUP3 ADD SWAP1 POP SWAP2 SWAP1 POP JUMP JUMPDEST PUSH1 0x0 PUSH2 0x11CB PUSH1 0x30 DUP4 PUSH2 0x1533 JUMP JUMPDEST SWAP2 POP PUSH2 0x11D6 DUP3 PUSH2 0x1812 JUMP JUMPDEST PUSH1 0x40 DUP3 ADD SWAP1 POP SWAP2 SWAP1 POP JUMP JUMPDEST PUSH1 0x0 PUSH2 0x11EE PUSH1 0x3D DUP4 PUSH2 0x1533 JUMP JUMPDEST SWAP2 POP PUSH2 0x11F9 DUP3 PUSH2 0x1861 JUMP JUMPDEST PUSH1 0x40 DUP3 ADD SWAP1 POP SWAP2 SWAP1 POP JUMP JUMPDEST PUSH1 0x0 PUSH2 0x1211 PUSH1 0x4A DUP4 PUSH2 0x1533 JUMP JUMPDEST SWAP2 POP PUSH2 0x121C DUP3 PUSH2 0x18B0 JUMP JUMPDEST PUSH1 0x60 DUP3 ADD SWAP1 POP SWAP2 SWAP1 POP JUMP JUMPDEST PUSH1 0x0 PUSH2 0x1234 PUSH1 0x39 DUP4 PUSH2 0x1533 JUMP JUMPDEST SWAP2 POP PUSH2 0x123F DUP3 PUSH2 0x1925 JUMP JUMPDEST PUSH1 0x40 DUP3 ADD SWAP1 POP SWAP2 SWAP1 POP JUMP JUMPDEST PUSH1 0x0 PUSH2 0x1257 PUSH1 0x20 DUP4 PUSH2 0x1533 JUMP JUMPDEST SWAP2 POP PUSH2 0x1262 DUP3 PUSH2 0x1974 JUMP JUMPDEST PUSH1 0x20 DUP3 ADD SWAP1 POP SWAP2 SWAP1 POP JUMP JUMPDEST PUSH1 0x0 PUSH2 0x127A PUSH1 0x4D DUP4 PUSH2 0x1533 JUMP JUMPDEST SWAP2 POP PUSH2 0x1285 DUP3 PUSH2 0x199D JUMP JUMPDEST PUSH1 0x60 DUP3 ADD SWAP1 POP SWAP2 SWAP1 POP JUMP JUMPDEST PUSH2 0x1299 DUP2 PUSH2 0x1589 JUMP JUMPDEST DUP3 MSTORE POP POP JUMP JUMPDEST PUSH2 0x12A8 DUP2 PUSH2 0x1593 JUMP JUMPDEST DUP3 MSTORE POP POP JUMP JUMPDEST PUSH1 0x0 PUSH1 0x20 DUP3 ADD SWAP1 POP PUSH2 0x12C3 PUSH1 0x0 DUP4 ADD DUP5 PUSH2 0x1169 JUMP JUMPDEST SWAP3 SWAP2 POP POP JUMP JUMPDEST PUSH1 0x0 PUSH1 0x20 DUP3 ADD SWAP1 POP DUP2 DUP2 SUB PUSH1 0x0 DUP4 ADD MSTORE PUSH2 0x12E2 DUP2 PUSH2 0x1178 JUMP JUMPDEST SWAP1 POP SWAP2 SWAP1 POP JUMP JUMPDEST PUSH1 0x0 PUSH1 0x20 DUP3 ADD SWAP1 POP DUP2 DUP2 SUB PUSH1 0x0 DUP4 ADD MSTORE PUSH2 0x1302 DUP2 PUSH2 0x119B JUMP JUMPDEST SWAP1 POP SWAP2 SWAP1 POP JUMP JUMPDEST PUSH1 0x0 PUSH1 0x20 DUP3 ADD SWAP1 POP DUP2 DUP2 SUB PUSH1 0x0 DUP4 ADD MSTORE PUSH2 0x1322 DUP2 PUSH2 0x11BE JUMP JUMPDEST SWAP1 POP SWAP2 SWAP1 POP JUMP JUMPDEST PUSH1 0x0 PUSH1 0x20 DUP3 ADD SWAP1 POP DUP2 DUP2 SUB PUSH1 0x0 DUP4 ADD MSTORE PUSH2 0x1342 DUP2 PUSH2 0x11E1 JUMP JUMPDEST SWAP1 POP SWAP2 SWAP1 POP JUMP JUMPDEST PUSH1 0x0 PUSH1 0x20 DUP3 ADD SWAP1 POP DUP2 DUP2 SUB PUSH1 0x0 DUP4 ADD MSTORE PUSH2 0x1362 DUP2 PUSH2 0x1204 JUMP JUMPDEST SWAP1 POP SWAP2 SWAP1 POP JUMP JUMPDEST PUSH1 0x0 PUSH1 0x20 DUP3 ADD SWAP1 POP DUP2 DUP2 SUB PUSH1 0x0 DUP4 ADD MSTORE PUSH2 0x1382 DUP2 PUSH2 0x1227 JUMP JUMPDEST SWAP1 POP SWAP2 SWAP1 POP JUMP JUMPDEST PUSH1 0x0 PUSH1 0x20 DUP3 ADD SWAP1 POP DUP2 DUP2 SUB PUSH1 0x0 DUP4 ADD MSTORE PUSH2 0x13A2 DUP2 PUSH2 0x124A JUMP JUMPDEST SWAP1 POP SWAP2 SWAP1 POP JUMP JUMPDEST PUSH1 0x0 PUSH1 0x20 DUP3 ADD SWAP1 POP DUP2 DUP2 SUB PUSH1 0x0 DUP4 ADD MSTORE PUSH2 0x13C2 DUP2 PUSH2 0x126D JUMP JUMPDEST SWAP1 POP SWAP2 SWAP1 POP JUMP JUMPDEST PUSH1 0x0 PUSH1 0x20 DUP3 ADD SWAP1 POP PUSH2 0x13DE PUSH1 0x0 DUP4 ADD DUP5 PUSH2 0x1290 JUMP JUMPDEST SWAP3 SWAP2 POP POP JUMP JUMPDEST PUSH1 0x0 PUSH1 0xC0 DUP3 ADD SWAP1 POP PUSH2 0x13F9 PUSH1 0x0 DUP4 ADD DUP10 PUSH2 0x1290 JUMP JUMPDEST PUSH2 0x1406 PUSH1 0x20 DUP4 ADD DUP9 PUSH2 0x1290 JUMP JUMPDEST PUSH2 0x1413 PUSH1 0x40 DUP4 ADD DUP8 PUSH2 0x1290 JUMP JUMPDEST PUSH2 0x1420 PUSH1 0x60 DUP4 ADD DUP7 PUSH2 0x115A JUMP JUMPDEST PUSH2 0x142D PUSH1 0x80 DUP4 ADD DUP6 PUSH2 0x115A JUMP JUMPDEST PUSH2 0x143A PUSH1 0xA0 DUP4 ADD DUP5 PUSH2 0x1290 JUMP JUMPDEST SWAP8 SWAP7 POP POP POP POP POP POP POP JUMP JUMPDEST PUSH1 0x0 PUSH1 0xA0 DUP3 ADD SWAP1 POP PUSH2 0x145A PUSH1 0x0 DUP4 ADD DUP9 PUSH2 0x1290 JUMP JUMPDEST PUSH2 0x1467 PUSH1 0x20 DUP4 ADD DUP8 PUSH2 0x1290 JUMP JUMPDEST PUSH2 0x1474 PUSH1 0x40 DUP4 ADD DUP7 PUSH2 0x1290 JUMP JUMPDEST PUSH2 0x1481 PUSH1 0x60 DUP4 ADD DUP6 PUSH2 0x115A JUMP JUMPDEST PUSH2 0x148E PUSH1 0x80 DUP4 ADD DUP5 PUSH2 0x129F JUMP JUMPDEST SWAP7 SWAP6 POP POP POP POP POP POP JUMP JUMPDEST PUSH1 0x0 PUSH1 0x80 DUP3 ADD SWAP1 POP PUSH2 0x14AD PUSH1 0x0 DUP4 ADD DUP8 PUSH2 0x1290 JUMP JUMPDEST PUSH2 0x14BA PUSH1 0x20 DUP4 ADD DUP7 PUSH2 0x1290 JUMP JUMPDEST PUSH2 0x14C7 PUSH1 0x40 DUP4 ADD DUP6 PUSH2 0x1290 JUMP JUMPDEST PUSH2 0x14D4 PUSH1 0x60 DUP4 ADD DUP5 PUSH2 0x129F JUMP JUMPDEST SWAP6 SWAP5 POP POP POP POP POP JUMP JUMPDEST PUSH1 0x0 PUSH2 0x14E7 PUSH2 0x14F8 JUMP JUMPDEST SWAP1 POP PUSH2 0x14F3 DUP3 DUP3 PUSH2 0x15F3 JUMP JUMPDEST SWAP2 SWAP1 POP JUMP JUMPDEST PUSH1 0x0 PUSH1 0x40 MLOAD SWAP1 POP SWAP1 JUMP JUMPDEST PUSH1 0x0 PUSH8 0xFFFFFFFFFFFFFFFF DUP3 GT ISZERO PUSH2 0x151D JUMPI PUSH2 0x151C PUSH2 0x16FA JUMP JUMPDEST JUMPDEST PUSH2 0x1526 DUP3 PUSH2 0x173D JUMP JUMPDEST SWAP1 POP PUSH1 0x20 DUP2 ADD SWAP1 POP SWAP2 SWAP1 POP JUMP JUMPDEST PUSH1 0x0 DUP3 DUP3 MSTORE PUSH1 0x20 DUP3 ADD SWAP1 POP SWAP3 SWAP2 POP POP JUMP JUMPDEST PUSH1 0x0 PUSH2 0x154F DUP3 PUSH2 0x1569 JUMP JUMPDEST SWAP1 POP SWAP2 SWAP1 POP JUMP JUMPDEST PUSH1 0x0 DUP2 SWAP1 POP PUSH2 0x1564 DUP3 PUSH2 0x1A12 JUMP JUMPDEST SWAP2 SWAP1 POP JUMP JUMPDEST PUSH1 0x0 PUSH20 0xFFFFFFFFFFFFFFFFFFFFFFFFFFFFFFFFFFFFFFFF DUP3 AND SWAP1 POP SWAP2 SWAP1 POP JUMP JUMPDEST PUSH1 0x0 DUP2 SWAP1 POP SWAP2 SWAP1 POP JUMP JUMPDEST PUSH1 0x0 PUSH1 0xFF DUP3 AND SWAP1 POP SWAP2 SWAP1 POP JUMP JUMPDEST PUSH1 0x0 PUSH2 0x15AB DUP3 PUSH2 0x1556 JUMP JUMPDEST SWAP1 POP SWAP2 SWAP1 POP JUMP JUMPDEST DUP3 DUP2 DUP4 CALLDATACOPY PUSH1 0x0 DUP4 DUP4 ADD MSTORE POP POP POP JUMP JUMPDEST PUSH1 0x0 PUSH1 0x2 DUP3 DIV SWAP1 POP PUSH1 0x1 DUP3 AND DUP1 PUSH2 0x15D9 JUMPI PUSH1 0x7F DUP3 AND SWAP2 POP JUMPDEST PUSH1 0x20 DUP3 LT DUP2 EQ ISZERO PUSH2 0x15ED JUMPI PUSH2 0x15EC PUSH2 0x16CB JUMP JUMPDEST JUMPDEST POP SWAP2 SWAP1 POP JUMP JUMPDEST PUSH2 0x15FC DUP3 PUSH2 0x173D JUMP JUMPDEST DUP2 ADD DUP2 DUP2 LT PUSH8 0xFFFFFFFFFFFFFFFF DUP3 GT OR ISZERO PUSH2 0x161B JUMPI PUSH2 0x161A PUSH2 0x16FA JUMP JUMPDEST JUMPDEST DUP1 PUSH1 0x40 MSTORE POP POP POP JUMP JUMPDEST PUSH1 0x0 PUSH2 0x162F DUP3 PUSH2 0x1589 JUMP JUMPDEST SWAP2 POP PUSH32 0xFFFFFFFFFFFFFFFFFFFFFFFFFFFFFFFFFFFFFFFFFFFFFFFFFFFFFFFFFFFFFFFF DUP3 EQ ISZERO PUSH2 0x1662 JUMPI PUSH2 0x1661 PUSH2 0x166D JUMP JUMPDEST JUMPDEST PUSH1 0x1 DUP3 ADD SWAP1 POP SWAP2 SWAP1 POP JUMP JUMPDEST PUSH32 0x4E487B7100000000000000000000000000000000000000000000000000000000 PUSH1 0x0 MSTORE PUSH1 0x11 PUSH1 0x4 MSTORE PUSH1 0x24 PUSH1 0x0 REVERT JUMPDEST PUSH32 0x4E487B7100000000000000000000000000000000000000000000000000000000 PUSH1 0x0 MSTORE PUSH1 0x21 PUSH1 0x4 MSTORE PUSH1 0x24 PUSH1 0x0 REVERT JUMPDEST PUSH32 0x4E487B7100000000000000000000000000000000000000000000000000000000 PUSH1 0x0 MSTORE PUSH1 0x22 PUSH1 0x4 MSTORE PUSH1 0x24 PUSH1 0x0 REVERT JUMPDEST PUSH32 0x4E487B7100000000000000000000000000000000000000000000000000000000 PUSH1 0x0 MSTORE PUSH1 0x41 PUSH1 0x4 MSTORE PUSH1 0x24 PUSH1 0x0 REVERT JUMPDEST PUSH1 0x0 DUP1 REVERT JUMPDEST PUSH1 0x0 DUP1 REVERT JUMPDEST PUSH1 0x0 DUP1 REVERT JUMPDEST PUSH1 0x0 DUP1 REVERT JUMPDEST PUSH1 0x0 PUSH1 0x1F NOT PUSH1 0x1F DUP4 ADD AND SWAP1 POP SWAP2 SWAP1 POP JUMP JUMPDEST PUSH32 0x596F752068617665206E6F7420696E707574206120726967687420766F74652E PUSH1 0x0 DUP3 ADD MSTORE PUSH32 0x20596F752063616E2065697468657220766F7465203120666F72205265717565 PUSH1 0x20 DUP3 ADD MSTORE PUSH32 0x73746572206F72203220666F722050726F76696465722E000000000000000000 PUSH1 0x40 DUP3 ADD MSTORE POP JUMP JUMPDEST PUSH32 0x596F75206861766520616C726561647920766F7465642C20796F752063616E6E PUSH1 0x0 DUP3 ADD MSTORE PUSH32 0x6F7420766F746520616761696E00000000000000000000000000000000000000 PUSH1 0x20 DUP3 ADD MSTORE POP JUMP JUMPDEST PUSH32 0x596F7520726169736564207468697320636F6E666C6963742E20596F75206361 PUSH1 0x0 DUP3 ADD MSTORE PUSH32 0x6E6E6F7420766F7465206F6E2069742E00000000000000000000000000000000 PUSH1 0x20 DUP3 ADD MSTORE POP JUMP JUMPDEST PUSH32 0x566F74696E6720686173206E6F74206265656E20636F6D706C65746564207965 PUSH1 0x0 DUP3 ADD MSTORE PUSH32 0x742E20506C65617365207761697420666F7220697420746F20656E642E000000 PUSH1 0x20 DUP3 ADD MSTORE POP JUMP JUMPDEST PUSH32 0x4E6F742065766572796F6E652068617320766F7465642C20706C656173652070 PUSH1 0x0 DUP3 ADD MSTORE PUSH32 0x726F6D707420616C6C206F74686572206D656D62657273206F662070726F6A65 PUSH1 0x20 DUP3 ADD MSTORE PUSH32 0x637420746F20766F746500000000000000000000000000000000000000000000 PUSH1 0x40 DUP3 ADD MSTORE POP JUMP JUMPDEST PUSH32 0x596F752061726520696E766F6C76656420696E207468697320636F6E666C6963 PUSH1 0x0 DUP3 ADD MSTORE PUSH32 0x742E20596F752063616E6E6F7420766F7465206F6E2069742E00000000000000 PUSH1 0x20 DUP3 ADD MSTORE POP JUMP JUMPDEST PUSH32 0x456E6F75676820766F7465732068617665206265656E20636F6C6C6563746564 PUSH1 0x0 DUP3 ADD MSTORE POP JUMP JUMPDEST PUSH32 0x436F6E666C6963742068617320616C7265616479206265656E20637265617465 PUSH1 0x0 DUP3 ADD MSTORE PUSH32 0x642E20506C6561736520646F206E6F7420637265617465206D6F726520746861 PUSH1 0x20 DUP3 ADD MSTORE PUSH32 0x6E203120636F6E666C6963742E00000000000000000000000000000000000000 PUSH1 0x40 DUP3 ADD MSTORE POP JUMP JUMPDEST PUSH1 0x3 DUP2 LT PUSH2 0x1A23 JUMPI PUSH2 0x1A22 PUSH2 0x169C JUMP JUMPDEST JUMPDEST POP JUMP JUMPDEST PUSH2 0x1A2F DUP2 PUSH2 0x1544 JUMP JUMPDEST DUP2 EQ PUSH2 0x1A3A JUMPI PUSH1 0x0 DUP1 REVERT JUMPDEST POP JUMP JUMPDEST PUSH2 0x1A46 DUP2 PUSH2 0x1589 JUMP JUMPDEST DUP2 EQ PUSH2 0x1A51 JUMPI PUSH1 0x0 DUP1 REVERT JUMPDEST POP JUMP JUMPDEST PUSH2 0x1A5D DUP2 PUSH2 0x1593 JUMP JUMPDEST DUP2 EQ PUSH2 0x1A68 JUMPI PUSH1 0x0 DUP1 REVERT JUMPDEST POP JUMP INVALID LOG2 PUSH5 0x6970667358 0x22 SLT KECCAK256 0xF6 DUP16 PUSH32 0xCB735E403388A605D6FE660CCF5159FA07C3DDF373085981AB1E480EA064736F PUSH13 0x63430008070033000000000000 "
				},
				"gasEstimates": {
					"creation": {
						"codeDepositCost": "1363400",
						"executionCost": "1424",
						"totalCost": "1364824"
					},
					"external": {
						"createConflict(uint256,uint256,uint256,string,string,address,address,uint256)": "infinite",
						"deleteConflict(uint256,uint256,uint256)": "infinite",
						"getConflictStatus(uint256,uint256,uint256)": "infinite",
						"getResults(uint256,uint256,uint256)": "infinite",
						"getVotesCollected(uint256,uint256,uint256)": "infinite",
						"getVotesforProvider(uint256,uint256,uint256)": "infinite",
						"getVotesforRequester(uint256,uint256,uint256)": "infinite",
						"updateConflict(uint256,uint256,uint256,string,string)": "infinite",
						"voteConflict(uint256,uint256,uint256,address,uint8)": "infinite"
					}
				},
				"methodIdentifiers": {
					"createConflict(uint256,uint256,uint256,string,string,address,address,uint256)": "e62fac27",
					"deleteConflict(uint256,uint256,uint256)": "003f489f",
					"getConflictStatus(uint256,uint256,uint256)": "cb4389ce",
					"getResults(uint256,uint256,uint256)": "0366cef2",
					"getVotesCollected(uint256,uint256,uint256)": "3c45fe31",
					"getVotesforProvider(uint256,uint256,uint256)": "9ac78879",
					"getVotesforRequester(uint256,uint256,uint256)": "e3d87718",
					"updateConflict(uint256,uint256,uint256,string,string)": "d1e992a7",
					"voteConflict(uint256,uint256,uint256,address,uint8)": "c171bdf7"
				}
			},
			"userdoc": {
				"kind": "user",
				"methods": {},
				"version": 1
			}
		}
	}
}