{
	"contracts/Conflict.sol": {
		"Conflict": {
			"abi": [
				{
					"anonymous": false,
					"inputs": [
						{
							"indexed": false,
							"internalType": "uint256",
							"name": "projectNumber",
							"type": "uint256"
						},
						{
							"indexed": false,
							"internalType": "uint256",
							"name": "serviceNumber",
							"type": "uint256"
						},
						{
							"indexed": false,
							"internalType": "uint256",
							"name": "milestoneNumber",
							"type": "uint256"
						},
						{
							"indexed": false,
							"internalType": "address",
							"name": "serviceRequester",
							"type": "address"
						},
						{
							"indexed": false,
							"internalType": "address",
							"name": "serviceProvider",
							"type": "address"
						},
						{
							"indexed": false,
							"internalType": "uint256",
							"name": "totalVoters",
							"type": "uint256"
						}
					],
					"name": "conflictCreated",
					"type": "event"
				},
				{
					"anonymous": false,
					"inputs": [
						{
							"indexed": false,
							"internalType": "uint256",
							"name": "projectNumber",
							"type": "uint256"
						},
						{
							"indexed": false,
							"internalType": "uint256",
							"name": "serviceNumber",
							"type": "uint256"
						},
						{
							"indexed": false,
							"internalType": "uint256",
							"name": "milestoneNumber",
							"type": "uint256"
						},
						{
							"indexed": false,
							"internalType": "address",
							"name": "serviceProvider",
							"type": "address"
						}
					],
					"name": "conflictRaised",
					"type": "event"
				},
				{
					"anonymous": false,
					"inputs": [
						{
							"indexed": false,
							"internalType": "uint256",
							"name": "projectNumber",
							"type": "uint256"
						},
						{
							"indexed": false,
							"internalType": "uint256",
							"name": "serviceNumber",
							"type": "uint256"
						},
						{
							"indexed": false,
							"internalType": "uint256",
							"name": "milestoneNumber",
							"type": "uint256"
						},
						{
							"indexed": false,
							"internalType": "uint8",
							"name": "result",
							"type": "uint8"
						}
					],
					"name": "conflictResult",
					"type": "event"
				},
				{
					"anonymous": false,
					"inputs": [
						{
							"indexed": false,
							"internalType": "uint256",
							"name": "projectNumber",
							"type": "uint256"
						},
						{
							"indexed": false,
							"internalType": "uint256",
							"name": "serviceNumber",
							"type": "uint256"
						},
						{
							"indexed": false,
							"internalType": "uint256",
							"name": "milestoneNumber",
							"type": "uint256"
						},
						{
							"indexed": false,
							"internalType": "address",
							"name": "voter",
							"type": "address"
						},
						{
							"indexed": false,
							"internalType": "uint8",
							"name": "vote",
							"type": "uint8"
						}
					],
					"name": "conflictVoted",
					"type": "event"
				},
				{
					"inputs": [
						{
							"internalType": "uint256",
							"name": "projectNumber",
							"type": "uint256"
						},
						{
							"internalType": "uint256",
							"name": "serviceNumber",
							"type": "uint256"
						},
						{
							"internalType": "uint256",
							"name": "milestoneNumber",
							"type": "uint256"
						},
						{
							"internalType": "string",
							"name": "title",
							"type": "string"
						},
						{
							"internalType": "string",
							"name": "description",
							"type": "string"
						},
						{
							"internalType": "address payable",
							"name": "serviceRequester",
							"type": "address"
						},
						{
							"internalType": "address payable",
							"name": "serviceProvider",
							"type": "address"
						},
						{
							"internalType": "uint256",
							"name": "totalVoters",
							"type": "uint256"
						}
					],
					"name": "createConflict",
					"outputs": [],
					"stateMutability": "nonpayable",
					"type": "function"
				},
				{
					"inputs": [
						{
							"internalType": "uint256",
							"name": "projectNumber",
							"type": "uint256"
						},
						{
							"internalType": "uint256",
							"name": "serviceNumber",
							"type": "uint256"
						},
						{
							"internalType": "uint256",
							"name": "milestoneNumber",
							"type": "uint256"
						}
					],
					"name": "deleteConflict",
					"outputs": [],
					"stateMutability": "nonpayable",
					"type": "function"
				},
				{
					"inputs": [
						{
							"internalType": "uint256",
							"name": "projectNumber",
							"type": "uint256"
						},
						{
							"internalType": "uint256",
							"name": "serviceNumber",
							"type": "uint256"
						},
						{
							"internalType": "uint256",
							"name": "milestoneNumber",
							"type": "uint256"
						}
					],
					"name": "getConflictStatus",
					"outputs": [
						{
							"internalType": "enum States.ConflictStatus",
							"name": "",
							"type": "uint8"
						}
					],
					"stateMutability": "view",
					"type": "function"
				},
				{
					"inputs": [
						{
							"internalType": "uint256",
							"name": "projectNumber",
							"type": "uint256"
						},
						{
							"internalType": "uint256",
							"name": "serviceNumber",
							"type": "uint256"
						},
						{
							"internalType": "uint256",
							"name": "milestoneNumber",
							"type": "uint256"
						}
					],
					"name": "getResults",
					"outputs": [
						{
							"internalType": "uint256",
							"name": "",
							"type": "uint256"
						}
					],
					"stateMutability": "view",
					"type": "function"
				},
				{
					"inputs": [
						{
							"internalType": "uint256",
							"name": "projectNumber",
							"type": "uint256"
						},
						{
							"internalType": "uint256",
							"name": "serviceNumber",
							"type": "uint256"
						},
						{
							"internalType": "uint256",
							"name": "milestoneNumber",
							"type": "uint256"
						}
					],
					"name": "getVotesCollected",
					"outputs": [
						{
							"internalType": "uint256",
							"name": "",
							"type": "uint256"
						}
					],
					"stateMutability": "view",
					"type": "function"
				},
				{
					"inputs": [
						{
							"internalType": "uint256",
							"name": "projectNumber",
							"type": "uint256"
						},
						{
							"internalType": "uint256",
							"name": "serviceNumber",
							"type": "uint256"
						},
						{
							"internalType": "uint256",
							"name": "milestoneNumber",
							"type": "uint256"
						}
					],
					"name": "getVotesforProvider",
					"outputs": [
						{
							"internalType": "uint256",
							"name": "",
							"type": "uint256"
						}
					],
					"stateMutability": "view",
					"type": "function"
				},
				{
					"inputs": [
						{
							"internalType": "uint256",
							"name": "projectNumber",
							"type": "uint256"
						},
						{
							"internalType": "uint256",
							"name": "serviceNumber",
							"type": "uint256"
						},
						{
							"internalType": "uint256",
							"name": "milestoneNumber",
							"type": "uint256"
						}
					],
					"name": "getVotesforRequester",
					"outputs": [
						{
							"internalType": "uint256",
							"name": "",
							"type": "uint256"
						}
					],
					"stateMutability": "view",
					"type": "function"
				},
				{
					"inputs": [
						{
							"internalType": "uint256",
							"name": "projectNumber",
							"type": "uint256"
						},
						{
							"internalType": "uint256",
							"name": "serviceNumber",
							"type": "uint256"
						},
						{
							"internalType": "uint256",
							"name": "milestoneNumber",
							"type": "uint256"
						}
					],
					"name": "startVote",
					"outputs": [],
					"stateMutability": "nonpayable",
					"type": "function"
				},
				{
					"inputs": [
						{
							"internalType": "uint256",
							"name": "projectNumber",
							"type": "uint256"
						},
						{
							"internalType": "uint256",
							"name": "serviceNumber",
							"type": "uint256"
						},
						{
							"internalType": "uint256",
							"name": "milestoneNumber",
							"type": "uint256"
						},
						{
							"internalType": "string",
							"name": "title",
							"type": "string"
						},
						{
							"internalType": "string",
							"name": "description",
							"type": "string"
						}
					],
					"name": "updateConflict",
					"outputs": [],
					"stateMutability": "nonpayable",
					"type": "function"
				},
				{
					"inputs": [
						{
							"internalType": "uint256",
							"name": "projectNumber",
							"type": "uint256"
						},
						{
							"internalType": "uint256",
							"name": "serviceNumber",
							"type": "uint256"
						},
						{
							"internalType": "uint256",
							"name": "milestoneNumber",
							"type": "uint256"
						},
						{
							"internalType": "address",
							"name": "_from",
							"type": "address"
						},
						{
							"internalType": "uint8",
							"name": "vote",
							"type": "uint8"
						}
					],
					"name": "voteConflict",
					"outputs": [],
					"stateMutability": "nonpayable",
					"type": "function"
				}
			],
			"devdoc": {
				"kind": "dev",
				"methods": {},
				"version": 1
			},
			"evm": {
				"assembly": "    /* \"contracts/Conflict.sol\":192:9052  contract Conflict {... */\n  mstore(0x40, 0x80)\n  callvalue\n  dup1\n  iszero\n  tag_1\n  jumpi\n  0x00\n  dup1\n  revert\ntag_1:\n  pop\n  dataSize(sub_0)\n  dup1\n  dataOffset(sub_0)\n  0x00\n  codecopy\n  0x00\n  return\nstop\n\nsub_0: assembly {\n        /* \"contracts/Conflict.sol\":192:9052  contract Conflict {... */\n      mstore(0x40, 0x80)\n      callvalue\n      dup1\n      iszero\n      tag_1\n      jumpi\n      0x00\n      dup1\n      revert\n    tag_1:\n      pop\n      jumpi(tag_2, lt(calldatasize, 0x04))\n      shr(0xe0, calldataload(0x00))\n      dup1\n      0xc171bdf7\n      gt\n      tag_13\n      jumpi\n      dup1\n      0xc171bdf7\n      eq\n      tag_8\n      jumpi\n      dup1\n      0xcb4389ce\n      eq\n      tag_9\n      jumpi\n      dup1\n      0xd1e992a7\n      eq\n      tag_10\n      jumpi\n      dup1\n      0xe3d87718\n      eq\n      tag_11\n      jumpi\n      dup1\n      0xe62fac27\n      eq\n      tag_12\n      jumpi\n      jump(tag_2)\n    tag_13:\n      dup1\n      0x3f489f\n      eq\n      tag_3\n      jumpi\n      dup1\n      0x0366cef2\n      eq\n      tag_4\n      jumpi\n      dup1\n      0x3c45fe31\n      eq\n      tag_5\n      jumpi\n      dup1\n      0x9ac78879\n      eq\n      tag_6\n      jumpi\n      dup1\n      0x9c87a5e9\n      eq\n      tag_7\n      jumpi\n    tag_2:\n      0x00\n      dup1\n      revert\n        /* \"contracts/Conflict.sol\":4811:5278  function deleteConflict(uint256 projectNumber, uint256 serviceNumber, uint256 milestoneNumber) external ... */\n    tag_3:\n      tag_14\n      0x04\n      dup1\n      calldatasize\n      sub\n      dup2\n      add\n      swap1\n      tag_15\n      swap2\n      swap1\n      tag_16\n      jump\t// in\n    tag_15:\n      tag_17\n      jump\t// in\n    tag_14:\n      stop\n        /* \"contracts/Conflict.sol\":7484:8115  function getResults(uint256 projectNumber, uint256 serviceNumber, uint256 milestoneNumber) public view returns (uint) {... */\n    tag_4:\n      tag_18\n      0x04\n      dup1\n      calldatasize\n      sub\n      dup2\n      add\n      swap1\n      tag_19\n      swap2\n      swap1\n      tag_16\n      jump\t// in\n    tag_19:\n      tag_20\n      jump\t// in\n    tag_18:\n      mload(0x40)\n      tag_21\n      swap2\n      swap1\n      tag_22\n      jump\t// in\n    tag_21:\n      mload(0x40)\n      dup1\n      swap2\n      sub\n      swap1\n      return\n        /* \"contracts/Conflict.sol\":8364:8587  function getVotesCollected(uint256 projectNumber, uint256 serviceNumber, uint256 milestoneNumber) public view returns (uint256) {... */\n    tag_5:\n      tag_23\n      0x04\n      dup1\n      calldatasize\n      sub\n      dup2\n      add\n      swap1\n      tag_24\n      swap2\n      swap1\n      tag_16\n      jump\t// in\n    tag_24:\n      tag_25\n      jump\t// in\n    tag_23:\n      mload(0x40)\n      tag_26\n      swap2\n      swap1\n      tag_22\n      jump\t// in\n    tag_26:\n      mload(0x40)\n      dup1\n      swap2\n      sub\n      swap1\n      return\n        /* \"contracts/Conflict.sol\":8825:9049  function getVotesforProvider(uint256 projectNumber, uint256 serviceNumber, uint256 milestoneNumber) public view returns (uint256) {... */\n    tag_6:\n      tag_27\n      0x04\n      dup1\n      calldatasize\n      sub\n      dup2\n      add\n      swap1\n      tag_28\n      swap2\n      swap1\n      tag_16\n      jump\t// in\n    tag_28:\n      tag_29\n      jump\t// in\n    tag_27:\n      mload(0x40)\n      tag_30\n      swap2\n      swap1\n      tag_22\n      jump\t// in\n    tag_30:\n      mload(0x40)\n      dup1\n      swap2\n      sub\n      swap1\n      return\n        /* \"contracts/Conflict.sol\":5327:5696  function startVote(uint256 projectNumber,uint256 serviceNumber, uint256 milestoneNumber) external ... */\n    tag_7:\n      tag_31\n      0x04\n      dup1\n      calldatasize\n      sub\n      dup2\n      add\n      swap1\n      tag_32\n      swap2\n      swap1\n      tag_16\n      jump\t// in\n    tag_32:\n      tag_33\n      jump\t// in\n    tag_31:\n      stop\n        /* \"contracts/Conflict.sol\":5741:7448  function voteConflict(uint256 projectNumber, uint256 serviceNumber, uint256 milestoneNumber, address _from, uint8 vote) public ... */\n    tag_8:\n      tag_34\n      0x04\n      dup1\n      calldatasize\n      sub\n      dup2\n      add\n      swap1\n      tag_35\n      swap2\n      swap1\n      tag_36\n      jump\t// in\n    tag_35:\n      tag_37\n      jump\t// in\n    tag_34:\n      stop\n        /* \"contracts/Conflict.sol\":8121:8358  function getConflictStatus(uint256 projectNumber, uint256 serviceNumber, uint256 milestoneNumber) public view returns (States.ConflictStatus) {... */\n    tag_9:\n      tag_38\n      0x04\n      dup1\n      calldatasize\n      sub\n      dup2\n      add\n      swap1\n      tag_39\n      swap2\n      swap1\n      tag_16\n      jump\t// in\n    tag_39:\n      tag_40\n      jump\t// in\n    tag_38:\n      mload(0x40)\n      tag_41\n      swap2\n      swap1\n      tag_42\n      jump\t// in\n    tag_41:\n      mload(0x40)\n      dup1\n      swap2\n      sub\n      swap1\n      return\n        /* \"contracts/Conflict.sol\":4268:4763  function updateConflict(uint256 projectNumber, uint256 serviceNumber, uint256 milestoneNumber, string memory title, string memory description) external ... */\n    tag_10:\n      tag_43\n      0x04\n      dup1\n      calldatasize\n      sub\n      dup2\n      add\n      swap1\n      tag_44\n      swap2\n      swap1\n      tag_45\n      jump\t// in\n    tag_44:\n      tag_46\n      jump\t// in\n    tag_43:\n      stop\n        /* \"contracts/Conflict.sol\":8593:8819  function getVotesforRequester(uint256 projectNumber, uint256 serviceNumber, uint256 milestoneNumber) public view returns (uint256) {... */\n    tag_11:\n      tag_47\n      0x04\n      dup1\n      calldatasize\n      sub\n      dup2\n      add\n      swap1\n      tag_48\n      swap2\n      swap1\n      tag_16\n      jump\t// in\n    tag_48:\n      tag_49\n      jump\t// in\n    tag_47:\n      mload(0x40)\n      tag_50\n      swap2\n      swap1\n      tag_22\n      jump\t// in\n    tag_50:\n      mload(0x40)\n      dup1\n      swap2\n      sub\n      swap1\n      return\n        /* \"contracts/Conflict.sol\":2881:4221  function createConflict(uint256 projectNumber, uint256 serviceNumber, uint256 milestoneNumber, string memory title, string memory description, address payable serviceRequester, address payable serviceProvider, uint256 totalVoters) public ... */\n    tag_12:\n      tag_51\n      0x04\n      dup1\n      calldatasize\n      sub\n      dup2\n      add\n      swap1\n      tag_52\n      swap2\n      swap1\n      tag_53\n      jump\t// in\n    tag_52:\n      tag_54\n      jump\t// in\n    tag_51:\n      stop\n        /* \"contracts/Conflict.sol\":4811:5278  function deleteConflict(uint256 projectNumber, uint256 serviceNumber, uint256 milestoneNumber) external ... */\n    tag_17:\n        /* \"contracts/Conflict.sol\":4940:4953  projectNumber */\n      dup3\n        /* \"contracts/Conflict.sol\":4955:4968  serviceNumber */\n      dup3\n        /* \"contracts/Conflict.sol\":4970:4985  milestoneNumber */\n      dup3\n        /* \"contracts/Conflict.sol\":1599:1608  conflicts */\n      0x00\n        /* \"contracts/Conflict.sol\":1599:1623  conflicts[projectNumber] */\n      dup1\n        /* \"contracts/Conflict.sol\":1609:1622  projectNumber */\n      dup5\n        /* \"contracts/Conflict.sol\":1599:1623  conflicts[projectNumber] */\n      dup2\n      mstore\n      0x20\n      add\n      swap1\n      dup2\n      mstore\n      0x20\n      add\n      0x00\n      keccak256\n        /* \"contracts/Conflict.sol\":1599:1638  conflicts[projectNumber][serviceNumber] */\n      0x00\n        /* \"contracts/Conflict.sol\":1624:1637  serviceNumber */\n      dup4\n        /* \"contracts/Conflict.sol\":1599:1638  conflicts[projectNumber][serviceNumber] */\n      dup2\n      mstore\n      0x20\n      add\n      swap1\n      dup2\n      mstore\n      0x20\n      add\n      0x00\n      keccak256\n        /* \"contracts/Conflict.sol\":1599:1655  conflicts[projectNumber][serviceNumber][milestoneNumber] */\n      0x00\n        /* \"contracts/Conflict.sol\":1639:1654  milestoneNumber */\n      dup3\n        /* \"contracts/Conflict.sol\":1599:1655  conflicts[projectNumber][serviceNumber][milestoneNumber] */\n      dup2\n      mstore\n      0x20\n      add\n      swap1\n      dup2\n      mstore\n      0x20\n      add\n      0x00\n      keccak256\n        /* \"contracts/Conflict.sol\":1599:1661  conflicts[projectNumber][serviceNumber][milestoneNumber].exist */\n      0x0b\n      add\n      0x00\n      swap1\n      sload\n      swap1\n      0x0100\n      exp\n      swap1\n      div\n      0xff\n      and\n        /* \"contracts/Conflict.sol\":1591:1695  require(conflicts[projectNumber][serviceNumber][milestoneNumber].exist, \"This Conflict does not exist.\") */\n      tag_56\n      jumpi\n      mload(0x40)\n      0x08c379a000000000000000000000000000000000000000000000000000000000\n      dup2\n      mstore\n      0x04\n      add\n      tag_57\n      swap1\n      tag_58\n      jump\t// in\n    tag_57:\n      mload(0x40)\n      dup1\n      swap2\n      sub\n      swap1\n      revert\n    tag_56:\n        /* \"contracts/Conflict.sol\":5003:5016  projectNumber */\n      dup6\n        /* \"contracts/Conflict.sol\":5018:5031  serviceNumber */\n      dup6\n        /* \"contracts/Conflict.sol\":5033:5048  milestoneNumber */\n      dup6\n        /* \"contracts/Conflict.sol\":5049:5078  States.ConflictStatus.created */\n      0x00\n        /* \"contracts/Conflict.sol\":1928:1933  state */\n      dup1\n        /* \"contracts/Conflict.sol\":1853:1933  conflicts[projectNumber][serviceNumber][milestoneNumber].conflictStatus == state */\n      0x03\n      dup2\n      gt\n      iszero\n      tag_60\n      jumpi\n      tag_61\n      tag_62\n      jump\t// in\n    tag_61:\n    tag_60:\n        /* \"contracts/Conflict.sol\":1853:1862  conflicts */\n      0x00\n        /* \"contracts/Conflict.sol\":1853:1877  conflicts[projectNumber] */\n      dup1\n        /* \"contracts/Conflict.sol\":1863:1876  projectNumber */\n      dup7\n        /* \"contracts/Conflict.sol\":1853:1877  conflicts[projectNumber] */\n      dup2\n      mstore\n      0x20\n      add\n      swap1\n      dup2\n      mstore\n      0x20\n      add\n      0x00\n      keccak256\n        /* \"contracts/Conflict.sol\":1853:1892  conflicts[projectNumber][serviceNumber] */\n      0x00\n        /* \"contracts/Conflict.sol\":1878:1891  serviceNumber */\n      dup6\n        /* \"contracts/Conflict.sol\":1853:1892  conflicts[projectNumber][serviceNumber] */\n      dup2\n      mstore\n      0x20\n      add\n      swap1\n      dup2\n      mstore\n      0x20\n      add\n      0x00\n      keccak256\n        /* \"contracts/Conflict.sol\":1853:1909  conflicts[projectNumber][serviceNumber][milestoneNumber] */\n      0x00\n        /* \"contracts/Conflict.sol\":1893:1908  milestoneNumber */\n      dup5\n        /* \"contracts/Conflict.sol\":1853:1909  conflicts[projectNumber][serviceNumber][milestoneNumber] */\n      dup2\n      mstore\n      0x20\n      add\n      swap1\n      dup2\n      mstore\n      0x20\n      add\n      0x00\n      keccak256\n        /* \"contracts/Conflict.sol\":1853:1924  conflicts[projectNumber][serviceNumber][milestoneNumber].conflictStatus */\n      0x06\n      add\n      0x14\n      swap1\n      sload\n      swap1\n      0x0100\n      exp\n      swap1\n      div\n      0xff\n      and\n        /* \"contracts/Conflict.sol\":1853:1933  conflicts[projectNumber][serviceNumber][milestoneNumber].conflictStatus == state */\n      0x03\n      dup2\n      gt\n      iszero\n      tag_63\n      jumpi\n      tag_64\n      tag_62\n      jump\t// in\n    tag_64:\n    tag_63:\n      eq\n        /* \"contracts/Conflict.sol\":1845:1970  require(conflicts[projectNumber][serviceNumber][milestoneNumber].conflictStatus == state, \"Cannot carry out this operation!\") */\n      tag_65\n      jumpi\n      mload(0x40)\n      0x08c379a000000000000000000000000000000000000000000000000000000000\n      dup2\n      mstore\n      0x04\n      add\n      tag_66\n      swap1\n      tag_67\n      jump\t// in\n    tag_66:\n      mload(0x40)\n      dup1\n      swap2\n      sub\n      swap1\n      revert\n    tag_65:\n        /* \"contracts/Conflict.sol\":5159:5164  false */\n      0x00\n        /* \"contracts/Conflict.sol\":5094:5103  conflicts */\n      dup1\n        /* \"contracts/Conflict.sol\":5094:5118  conflicts[projectNumber] */\n      0x00\n        /* \"contracts/Conflict.sol\":5104:5117  projectNumber */\n      dup13\n        /* \"contracts/Conflict.sol\":5094:5118  conflicts[projectNumber] */\n      dup2\n      mstore\n      0x20\n      add\n      swap1\n      dup2\n      mstore\n      0x20\n      add\n      0x00\n      keccak256\n        /* \"contracts/Conflict.sol\":5094:5133  conflicts[projectNumber][serviceNumber] */\n      0x00\n        /* \"contracts/Conflict.sol\":5119:5132  serviceNumber */\n      dup12\n        /* \"contracts/Conflict.sol\":5094:5133  conflicts[projectNumber][serviceNumber] */\n      dup2\n      mstore\n      0x20\n      add\n      swap1\n      dup2\n      mstore\n      0x20\n      add\n      0x00\n      keccak256\n        /* \"contracts/Conflict.sol\":5094:5150  conflicts[projectNumber][serviceNumber][milestoneNumber] */\n      0x00\n        /* \"contracts/Conflict.sol\":5134:5149  milestoneNumber */\n      dup11\n        /* \"contracts/Conflict.sol\":5094:5150  conflicts[projectNumber][serviceNumber][milestoneNumber] */\n      dup2\n      mstore\n      0x20\n      add\n      swap1\n      dup2\n      mstore\n      0x20\n      add\n      0x00\n      keccak256\n        /* \"contracts/Conflict.sol\":5094:5156  conflicts[projectNumber][serviceNumber][milestoneNumber].exist */\n      0x0b\n      add\n      0x00\n        /* \"contracts/Conflict.sol\":5094:5164  conflicts[projectNumber][serviceNumber][milestoneNumber].exist = false */\n      0x0100\n      exp\n      dup2\n      sload\n      dup2\n      0xff\n      mul\n      not\n      and\n      swap1\n      dup4\n      iszero\n      iszero\n      mul\n      or\n      swap1\n      sstore\n      pop\n        /* \"contracts/Conflict.sol\":5176:5265  setState(projectNumber, serviceNumber, milestoneNumber, States.ConflictStatus.terminated) */\n      tag_69\n        /* \"contracts/Conflict.sol\":5185:5198  projectNumber */\n      dup11\n        /* \"contracts/Conflict.sol\":5200:5213  serviceNumber */\n      dup11\n        /* \"contracts/Conflict.sol\":5215:5230  milestoneNumber */\n      dup11\n        /* \"contracts/Conflict.sol\":5232:5264  States.ConflictStatus.terminated */\n      0x03\n        /* \"contracts/Conflict.sol\":5176:5184  setState */\n      tag_70\n        /* \"contracts/Conflict.sol\":5176:5265  setState(projectNumber, serviceNumber, milestoneNumber, States.ConflictStatus.terminated) */\n      jump\t// in\n    tag_69:\n        /* \"contracts/Conflict.sol\":1705:1706  _ */\n      pop\n      pop\n      pop\n      pop\n        /* \"contracts/Conflict.sol\":4811:5278  function deleteConflict(uint256 projectNumber, uint256 serviceNumber, uint256 milestoneNumber) external ... */\n      pop\n      pop\n      pop\n      pop\n      pop\n      pop\n      jump\t// out\n        /* \"contracts/Conflict.sol\":7484:8115  function getResults(uint256 projectNumber, uint256 serviceNumber, uint256 milestoneNumber) public view returns (uint) {... */\n    tag_20:\n        /* \"contracts/Conflict.sol\":7596:7600  uint */\n      0x00\n        /* \"contracts/Conflict.sol\":7695:7704  conflicts */\n      dup1\n        /* \"contracts/Conflict.sol\":7695:7719  conflicts[projectNumber] */\n      0x00\n        /* \"contracts/Conflict.sol\":7705:7718  projectNumber */\n      dup6\n        /* \"contracts/Conflict.sol\":7695:7719  conflicts[projectNumber] */\n      dup2\n      mstore\n      0x20\n      add\n      swap1\n      dup2\n      mstore\n      0x20\n      add\n      0x00\n      keccak256\n        /* \"contracts/Conflict.sol\":7695:7734  conflicts[projectNumber][serviceNumber] */\n      0x00\n        /* \"contracts/Conflict.sol\":7720:7733  serviceNumber */\n      dup5\n        /* \"contracts/Conflict.sol\":7695:7734  conflicts[projectNumber][serviceNumber] */\n      dup2\n      mstore\n      0x20\n      add\n      swap1\n      dup2\n      mstore\n      0x20\n      add\n      0x00\n      keccak256\n        /* \"contracts/Conflict.sol\":7695:7751  conflicts[projectNumber][serviceNumber][milestoneNumber] */\n      0x00\n        /* \"contracts/Conflict.sol\":7735:7750  milestoneNumber */\n      dup4\n        /* \"contracts/Conflict.sol\":7695:7751  conflicts[projectNumber][serviceNumber][milestoneNumber] */\n      dup2\n      mstore\n      0x20\n      add\n      swap1\n      dup2\n      mstore\n      0x20\n      add\n      0x00\n      keccak256\n        /* \"contracts/Conflict.sol\":7695:7758  conflicts[projectNumber][serviceNumber][milestoneNumber].voters */\n      0x07\n      add\n      sload\n        /* \"contracts/Conflict.sol\":7620:7629  conflicts */\n      0x00\n        /* \"contracts/Conflict.sol\":7620:7644  conflicts[projectNumber] */\n      dup1\n        /* \"contracts/Conflict.sol\":7630:7643  projectNumber */\n      dup7\n        /* \"contracts/Conflict.sol\":7620:7644  conflicts[projectNumber] */\n      dup2\n      mstore\n      0x20\n      add\n      swap1\n      dup2\n      mstore\n      0x20\n      add\n      0x00\n      keccak256\n        /* \"contracts/Conflict.sol\":7620:7659  conflicts[projectNumber][serviceNumber] */\n      0x00\n        /* \"contracts/Conflict.sol\":7645:7658  serviceNumber */\n      dup6\n        /* \"contracts/Conflict.sol\":7620:7659  conflicts[projectNumber][serviceNumber] */\n      dup2\n      mstore\n      0x20\n      add\n      swap1\n      dup2\n      mstore\n      0x20\n      add\n      0x00\n      keccak256\n        /* \"contracts/Conflict.sol\":7620:7676  conflicts[projectNumber][serviceNumber][milestoneNumber] */\n      0x00\n        /* \"contracts/Conflict.sol\":7660:7675  milestoneNumber */\n      dup5\n        /* \"contracts/Conflict.sol\":7620:7676  conflicts[projectNumber][serviceNumber][milestoneNumber] */\n      dup2\n      mstore\n      0x20\n      add\n      swap1\n      dup2\n      mstore\n      0x20\n      add\n      0x00\n      keccak256\n        /* \"contracts/Conflict.sol\":7620:7691  conflicts[projectNumber][serviceNumber][milestoneNumber].votesCollected */\n      0x08\n      add\n      sload\n        /* \"contracts/Conflict.sol\":7620:7758  conflicts[projectNumber][serviceNumber][milestoneNumber].votesCollected == conflicts[projectNumber][serviceNumber][milestoneNumber].voters */\n      eq\n        /* \"contracts/Conflict.sol\":7612:7837  require(conflicts[projectNumber][serviceNumber][milestoneNumber].votesCollected == conflicts[projectNumber][serviceNumber][milestoneNumber].voters, \"Not everyone has voted, please prompt all other members of project to vote\") */\n      tag_72\n      jumpi\n      mload(0x40)\n      0x08c379a000000000000000000000000000000000000000000000000000000000\n      dup2\n      mstore\n      0x04\n      add\n      tag_73\n      swap1\n      tag_74\n      jump\t// in\n    tag_73:\n      mload(0x40)\n      dup1\n      swap2\n      sub\n      swap1\n      revert\n    tag_72:\n        /* \"contracts/Conflict.sol\":7930:7961  States.ConflictStatus.completed */\n      0x02\n        /* \"contracts/Conflict.sol\":7855:7961  conflicts[projectNumber][serviceNumber][milestoneNumber].conflictStatus == States.ConflictStatus.completed */\n      0x03\n      dup2\n      gt\n      iszero\n      tag_75\n      jumpi\n      tag_76\n      tag_62\n      jump\t// in\n    tag_76:\n    tag_75:\n        /* \"contracts/Conflict.sol\":7855:7864  conflicts */\n      0x00\n        /* \"contracts/Conflict.sol\":7855:7879  conflicts[projectNumber] */\n      dup1\n        /* \"contracts/Conflict.sol\":7865:7878  projectNumber */\n      dup7\n        /* \"contracts/Conflict.sol\":7855:7879  conflicts[projectNumber] */\n      dup2\n      mstore\n      0x20\n      add\n      swap1\n      dup2\n      mstore\n      0x20\n      add\n      0x00\n      keccak256\n        /* \"contracts/Conflict.sol\":7855:7894  conflicts[projectNumber][serviceNumber] */\n      0x00\n        /* \"contracts/Conflict.sol\":7880:7893  serviceNumber */\n      dup6\n        /* \"contracts/Conflict.sol\":7855:7894  conflicts[projectNumber][serviceNumber] */\n      dup2\n      mstore\n      0x20\n      add\n      swap1\n      dup2\n      mstore\n      0x20\n      add\n      0x00\n      keccak256\n        /* \"contracts/Conflict.sol\":7855:7911  conflicts[projectNumber][serviceNumber][milestoneNumber] */\n      0x00\n        /* \"contracts/Conflict.sol\":7895:7910  milestoneNumber */\n      dup5\n        /* \"contracts/Conflict.sol\":7855:7911  conflicts[projectNumber][serviceNumber][milestoneNumber] */\n      dup2\n      mstore\n      0x20\n      add\n      swap1\n      dup2\n      mstore\n      0x20\n      add\n      0x00\n      keccak256\n        /* \"contracts/Conflict.sol\":7855:7926  conflicts[projectNumber][serviceNumber][milestoneNumber].conflictStatus */\n      0x06\n      add\n      0x14\n      swap1\n      sload\n      swap1\n      0x0100\n      exp\n      swap1\n      div\n      0xff\n      and\n        /* \"contracts/Conflict.sol\":7855:7961  conflicts[projectNumber][serviceNumber][milestoneNumber].conflictStatus == States.ConflictStatus.completed */\n      0x03\n      dup2\n      gt\n      iszero\n      tag_77\n      jumpi\n      tag_78\n      tag_62\n      jump\t// in\n    tag_78:\n    tag_77:\n      eq\n        /* \"contracts/Conflict.sol\":7847:8027  require(conflicts[projectNumber][serviceNumber][milestoneNumber].conflictStatus == States.ConflictStatus.completed, \"Voting has not been completed yet. Please wait for it to end.\") */\n      tag_79\n      jumpi\n      mload(0x40)\n      0x08c379a000000000000000000000000000000000000000000000000000000000\n      dup2\n      mstore\n      0x04\n      add\n      tag_80\n      swap1\n      tag_81\n      jump\t// in\n    tag_80:\n      mload(0x40)\n      dup1\n      swap2\n      sub\n      swap1\n      revert\n    tag_79:\n        /* \"contracts/Conflict.sol\":8045:8054  conflicts */\n      0x00\n        /* \"contracts/Conflict.sol\":8045:8069  conflicts[projectNumber] */\n      dup1\n        /* \"contracts/Conflict.sol\":8055:8068  projectNumber */\n      dup6\n        /* \"contracts/Conflict.sol\":8045:8069  conflicts[projectNumber] */\n      dup2\n      mstore\n      0x20\n      add\n      swap1\n      dup2\n      mstore\n      0x20\n      add\n      0x00\n      keccak256\n        /* \"contracts/Conflict.sol\":8045:8084  conflicts[projectNumber][serviceNumber] */\n      0x00\n        /* \"contracts/Conflict.sol\":8070:8083  serviceNumber */\n      dup5\n        /* \"contracts/Conflict.sol\":8045:8084  conflicts[projectNumber][serviceNumber] */\n      dup2\n      mstore\n      0x20\n      add\n      swap1\n      dup2\n      mstore\n      0x20\n      add\n      0x00\n      keccak256\n        /* \"contracts/Conflict.sol\":8045:8101  conflicts[projectNumber][serviceNumber][milestoneNumber] */\n      0x00\n        /* \"contracts/Conflict.sol\":8085:8100  milestoneNumber */\n      dup4\n        /* \"contracts/Conflict.sol\":8045:8101  conflicts[projectNumber][serviceNumber][milestoneNumber] */\n      dup2\n      mstore\n      0x20\n      add\n      swap1\n      dup2\n      mstore\n      0x20\n      add\n      0x00\n      keccak256\n        /* \"contracts/Conflict.sol\":8045:8108  conflicts[projectNumber][serviceNumber][milestoneNumber].result */\n      0x0b\n      add\n      0x01\n      swap1\n      sload\n      swap1\n      0x0100\n      exp\n      swap1\n      div\n      0xff\n      and\n        /* \"contracts/Conflict.sol\":8038:8108  return conflicts[projectNumber][serviceNumber][milestoneNumber].result */\n      0xff\n      and\n      swap1\n      pop\n        /* \"contracts/Conflict.sol\":7484:8115  function getResults(uint256 projectNumber, uint256 serviceNumber, uint256 milestoneNumber) public view returns (uint) {... */\n      swap4\n      swap3\n      pop\n      pop\n      pop\n      jump\t// out\n        /* \"contracts/Conflict.sol\":8364:8587  function getVotesCollected(uint256 projectNumber, uint256 serviceNumber, uint256 milestoneNumber) public view returns (uint256) {... */\n    tag_25:\n        /* \"contracts/Conflict.sol\":8483:8490  uint256 */\n      0x00\n        /* \"contracts/Conflict.sol\":8509:8518  conflicts */\n      dup1\n        /* \"contracts/Conflict.sol\":8509:8533  conflicts[projectNumber] */\n      0x00\n        /* \"contracts/Conflict.sol\":8519:8532  projectNumber */\n      dup6\n        /* \"contracts/Conflict.sol\":8509:8533  conflicts[projectNumber] */\n      dup2\n      mstore\n      0x20\n      add\n      swap1\n      dup2\n      mstore\n      0x20\n      add\n      0x00\n      keccak256\n        /* \"contracts/Conflict.sol\":8509:8548  conflicts[projectNumber][serviceNumber] */\n      0x00\n        /* \"contracts/Conflict.sol\":8534:8547  serviceNumber */\n      dup5\n        /* \"contracts/Conflict.sol\":8509:8548  conflicts[projectNumber][serviceNumber] */\n      dup2\n      mstore\n      0x20\n      add\n      swap1\n      dup2\n      mstore\n      0x20\n      add\n      0x00\n      keccak256\n        /* \"contracts/Conflict.sol\":8509:8565  conflicts[projectNumber][serviceNumber][milestoneNumber] */\n      0x00\n        /* \"contracts/Conflict.sol\":8549:8564  milestoneNumber */\n      dup4\n        /* \"contracts/Conflict.sol\":8509:8565  conflicts[projectNumber][serviceNumber][milestoneNumber] */\n      dup2\n      mstore\n      0x20\n      add\n      swap1\n      dup2\n      mstore\n      0x20\n      add\n      0x00\n      keccak256\n        /* \"contracts/Conflict.sol\":8509:8580  conflicts[projectNumber][serviceNumber][milestoneNumber].votesCollected */\n      0x08\n      add\n      sload\n        /* \"contracts/Conflict.sol\":8502:8580  return conflicts[projectNumber][serviceNumber][milestoneNumber].votesCollected */\n      swap1\n      pop\n        /* \"contracts/Conflict.sol\":8364:8587  function getVotesCollected(uint256 projectNumber, uint256 serviceNumber, uint256 milestoneNumber) public view returns (uint256) {... */\n      swap4\n      swap3\n      pop\n      pop\n      pop\n      jump\t// out\n        /* \"contracts/Conflict.sol\":8825:9049  function getVotesforProvider(uint256 projectNumber, uint256 serviceNumber, uint256 milestoneNumber) public view returns (uint256) {... */\n    tag_29:\n        /* \"contracts/Conflict.sol\":8946:8953  uint256 */\n      0x00\n        /* \"contracts/Conflict.sol\":8972:8981  conflicts */\n      dup1\n        /* \"contracts/Conflict.sol\":8972:8996  conflicts[projectNumber] */\n      0x00\n        /* \"contracts/Conflict.sol\":8982:8995  projectNumber */\n      dup6\n        /* \"contracts/Conflict.sol\":8972:8996  conflicts[projectNumber] */\n      dup2\n      mstore\n      0x20\n      add\n      swap1\n      dup2\n      mstore\n      0x20\n      add\n      0x00\n      keccak256\n        /* \"contracts/Conflict.sol\":8972:9011  conflicts[projectNumber][serviceNumber] */\n      0x00\n        /* \"contracts/Conflict.sol\":8997:9010  serviceNumber */\n      dup5\n        /* \"contracts/Conflict.sol\":8972:9011  conflicts[projectNumber][serviceNumber] */\n      dup2\n      mstore\n      0x20\n      add\n      swap1\n      dup2\n      mstore\n      0x20\n      add\n      0x00\n      keccak256\n        /* \"contracts/Conflict.sol\":8972:9028  conflicts[projectNumber][serviceNumber][milestoneNumber] */\n      0x00\n        /* \"contracts/Conflict.sol\":9012:9027  milestoneNumber */\n      dup4\n        /* \"contracts/Conflict.sol\":8972:9028  conflicts[projectNumber][serviceNumber][milestoneNumber] */\n      dup2\n      mstore\n      0x20\n      add\n      swap1\n      dup2\n      mstore\n      0x20\n      add\n      0x00\n      keccak256\n        /* \"contracts/Conflict.sol\":8972:9042  conflicts[projectNumber][serviceNumber][milestoneNumber].providerVotes */\n      0x0a\n      add\n      sload\n        /* \"contracts/Conflict.sol\":8965:9042  return conflicts[projectNumber][serviceNumber][milestoneNumber].providerVotes */\n      swap1\n      pop\n        /* \"contracts/Conflict.sol\":8825:9049  function getVotesforProvider(uint256 projectNumber, uint256 serviceNumber, uint256 milestoneNumber) public view returns (uint256) {... */\n      swap4\n      swap3\n      pop\n      pop\n      pop\n      jump\t// out\n        /* \"contracts/Conflict.sol\":5327:5696  function startVote(uint256 projectNumber,uint256 serviceNumber, uint256 milestoneNumber) external ... */\n    tag_33:\n        /* \"contracts/Conflict.sol\":5450:5463  projectNumber */\n      dup3\n        /* \"contracts/Conflict.sol\":5465:5478  serviceNumber */\n      dup3\n        /* \"contracts/Conflict.sol\":5480:5495  milestoneNumber */\n      dup3\n        /* \"contracts/Conflict.sol\":1599:1608  conflicts */\n      0x00\n        /* \"contracts/Conflict.sol\":1599:1623  conflicts[projectNumber] */\n      dup1\n        /* \"contracts/Conflict.sol\":1609:1622  projectNumber */\n      dup5\n        /* \"contracts/Conflict.sol\":1599:1623  conflicts[projectNumber] */\n      dup2\n      mstore\n      0x20\n      add\n      swap1\n      dup2\n      mstore\n      0x20\n      add\n      0x00\n      keccak256\n        /* \"contracts/Conflict.sol\":1599:1638  conflicts[projectNumber][serviceNumber] */\n      0x00\n        /* \"contracts/Conflict.sol\":1624:1637  serviceNumber */\n      dup4\n        /* \"contracts/Conflict.sol\":1599:1638  conflicts[projectNumber][serviceNumber] */\n      dup2\n      mstore\n      0x20\n      add\n      swap1\n      dup2\n      mstore\n      0x20\n      add\n      0x00\n      keccak256\n        /* \"contracts/Conflict.sol\":1599:1655  conflicts[projectNumber][serviceNumber][milestoneNumber] */\n      0x00\n        /* \"contracts/Conflict.sol\":1639:1654  milestoneNumber */\n      dup3\n        /* \"contracts/Conflict.sol\":1599:1655  conflicts[projectNumber][serviceNumber][milestoneNumber] */\n      dup2\n      mstore\n      0x20\n      add\n      swap1\n      dup2\n      mstore\n      0x20\n      add\n      0x00\n      keccak256\n        /* \"contracts/Conflict.sol\":1599:1661  conflicts[projectNumber][serviceNumber][milestoneNumber].exist */\n      0x0b\n      add\n      0x00\n      swap1\n      sload\n      swap1\n      0x0100\n      exp\n      swap1\n      div\n      0xff\n      and\n        /* \"contracts/Conflict.sol\":1591:1695  require(conflicts[projectNumber][serviceNumber][milestoneNumber].exist, \"This Conflict does not exist.\") */\n      tag_85\n      jumpi\n      mload(0x40)\n      0x08c379a000000000000000000000000000000000000000000000000000000000\n      dup2\n      mstore\n      0x04\n      add\n      tag_86\n      swap1\n      tag_58\n      jump\t// in\n    tag_86:\n      mload(0x40)\n      dup1\n      swap2\n      sub\n      swap1\n      revert\n    tag_85:\n        /* \"contracts/Conflict.sol\":5513:5526  projectNumber */\n      dup6\n        /* \"contracts/Conflict.sol\":5528:5541  serviceNumber */\n      dup6\n        /* \"contracts/Conflict.sol\":5543:5558  milestoneNumber */\n      dup6\n        /* \"contracts/Conflict.sol\":5559:5588  States.ConflictStatus.created */\n      0x00\n        /* \"contracts/Conflict.sol\":1928:1933  state */\n      dup1\n        /* \"contracts/Conflict.sol\":1853:1933  conflicts[projectNumber][serviceNumber][milestoneNumber].conflictStatus == state */\n      0x03\n      dup2\n      gt\n      iszero\n      tag_88\n      jumpi\n      tag_89\n      tag_62\n      jump\t// in\n    tag_89:\n    tag_88:\n        /* \"contracts/Conflict.sol\":1853:1862  conflicts */\n      0x00\n        /* \"contracts/Conflict.sol\":1853:1877  conflicts[projectNumber] */\n      dup1\n        /* \"contracts/Conflict.sol\":1863:1876  projectNumber */\n      dup7\n        /* \"contracts/Conflict.sol\":1853:1877  conflicts[projectNumber] */\n      dup2\n      mstore\n      0x20\n      add\n      swap1\n      dup2\n      mstore\n      0x20\n      add\n      0x00\n      keccak256\n        /* \"contracts/Conflict.sol\":1853:1892  conflicts[projectNumber][serviceNumber] */\n      0x00\n        /* \"contracts/Conflict.sol\":1878:1891  serviceNumber */\n      dup6\n        /* \"contracts/Conflict.sol\":1853:1892  conflicts[projectNumber][serviceNumber] */\n      dup2\n      mstore\n      0x20\n      add\n      swap1\n      dup2\n      mstore\n      0x20\n      add\n      0x00\n      keccak256\n        /* \"contracts/Conflict.sol\":1853:1909  conflicts[projectNumber][serviceNumber][milestoneNumber] */\n      0x00\n        /* \"contracts/Conflict.sol\":1893:1908  milestoneNumber */\n      dup5\n        /* \"contracts/Conflict.sol\":1853:1909  conflicts[projectNumber][serviceNumber][milestoneNumber] */\n      dup2\n      mstore\n      0x20\n      add\n      swap1\n      dup2\n      mstore\n      0x20\n      add\n      0x00\n      keccak256\n        /* \"contracts/Conflict.sol\":1853:1924  conflicts[projectNumber][serviceNumber][milestoneNumber].conflictStatus */\n      0x06\n      add\n      0x14\n      swap1\n      sload\n      swap1\n      0x0100\n      exp\n      swap1\n      div\n      0xff\n      and\n        /* \"contracts/Conflict.sol\":1853:1933  conflicts[projectNumber][serviceNumber][milestoneNumber].conflictStatus == state */\n      0x03\n      dup2\n      gt\n      iszero\n      tag_90\n      jumpi\n      tag_91\n      tag_62\n      jump\t// in\n    tag_91:\n    tag_90:\n      eq\n        /* \"contracts/Conflict.sol\":1845:1970  require(conflicts[projectNumber][serviceNumber][milestoneNumber].conflictStatus == state, \"Cannot carry out this operation!\") */\n      tag_92\n      jumpi\n      mload(0x40)\n      0x08c379a000000000000000000000000000000000000000000000000000000000\n      dup2\n      mstore\n      0x04\n      add\n      tag_93\n      swap1\n      tag_67\n      jump\t// in\n    tag_93:\n      mload(0x40)\n      dup1\n      swap2\n      sub\n      swap1\n      revert\n    tag_92:\n        /* \"contracts/Conflict.sol\":5604:5689  setState(projectNumber, serviceNumber, milestoneNumber, States.ConflictStatus.voting) */\n      tag_95\n        /* \"contracts/Conflict.sol\":5613:5626  projectNumber */\n      dup11\n        /* \"contracts/Conflict.sol\":5628:5641  serviceNumber */\n      dup11\n        /* \"contracts/Conflict.sol\":5643:5658  milestoneNumber */\n      dup11\n        /* \"contracts/Conflict.sol\":5660:5688  States.ConflictStatus.voting */\n      0x01\n        /* \"contracts/Conflict.sol\":5604:5612  setState */\n      tag_70\n        /* \"contracts/Conflict.sol\":5604:5689  setState(projectNumber, serviceNumber, milestoneNumber, States.ConflictStatus.voting) */\n      jump\t// in\n    tag_95:\n        /* \"contracts/Conflict.sol\":1705:1706  _ */\n      pop\n      pop\n      pop\n      pop\n        /* \"contracts/Conflict.sol\":5327:5696  function startVote(uint256 projectNumber,uint256 serviceNumber, uint256 milestoneNumber) external ... */\n      pop\n      pop\n      pop\n      pop\n      pop\n      pop\n      jump\t// out\n        /* \"contracts/Conflict.sol\":5741:7448  function voteConflict(uint256 projectNumber, uint256 serviceNumber, uint256 milestoneNumber, address _from, uint8 vote) public ... */\n    tag_37:\n        /* \"contracts/Conflict.sol\":5893:5906  projectNumber */\n      dup5\n        /* \"contracts/Conflict.sol\":5908:5921  serviceNumber */\n      dup5\n        /* \"contracts/Conflict.sol\":5923:5938  milestoneNumber */\n      dup5\n        /* \"contracts/Conflict.sol\":1599:1608  conflicts */\n      0x00\n        /* \"contracts/Conflict.sol\":1599:1623  conflicts[projectNumber] */\n      dup1\n        /* \"contracts/Conflict.sol\":1609:1622  projectNumber */\n      dup5\n        /* \"contracts/Conflict.sol\":1599:1623  conflicts[projectNumber] */\n      dup2\n      mstore\n      0x20\n      add\n      swap1\n      dup2\n      mstore\n      0x20\n      add\n      0x00\n      keccak256\n        /* \"contracts/Conflict.sol\":1599:1638  conflicts[projectNumber][serviceNumber] */\n      0x00\n        /* \"contracts/Conflict.sol\":1624:1637  serviceNumber */\n      dup4\n        /* \"contracts/Conflict.sol\":1599:1638  conflicts[projectNumber][serviceNumber] */\n      dup2\n      mstore\n      0x20\n      add\n      swap1\n      dup2\n      mstore\n      0x20\n      add\n      0x00\n      keccak256\n        /* \"contracts/Conflict.sol\":1599:1655  conflicts[projectNumber][serviceNumber][milestoneNumber] */\n      0x00\n        /* \"contracts/Conflict.sol\":1639:1654  milestoneNumber */\n      dup3\n        /* \"contracts/Conflict.sol\":1599:1655  conflicts[projectNumber][serviceNumber][milestoneNumber] */\n      dup2\n      mstore\n      0x20\n      add\n      swap1\n      dup2\n      mstore\n      0x20\n      add\n      0x00\n      keccak256\n        /* \"contracts/Conflict.sol\":1599:1661  conflicts[projectNumber][serviceNumber][milestoneNumber].exist */\n      0x0b\n      add\n      0x00\n      swap1\n      sload\n      swap1\n      0x0100\n      exp\n      swap1\n      div\n      0xff\n      and\n        /* \"contracts/Conflict.sol\":1591:1695  require(conflicts[projectNumber][serviceNumber][milestoneNumber].exist, \"This Conflict does not exist.\") */\n      tag_97\n      jumpi\n      mload(0x40)\n      0x08c379a000000000000000000000000000000000000000000000000000000000\n      dup2\n      mstore\n      0x04\n      add\n      tag_98\n      swap1\n      tag_58\n      jump\t// in\n    tag_98:\n      mload(0x40)\n      dup1\n      swap2\n      sub\n      swap1\n      revert\n    tag_97:\n        /* \"contracts/Conflict.sol\":5956:5969  projectNumber */\n      dup8\n        /* \"contracts/Conflict.sol\":5971:5984  serviceNumber */\n      dup8\n        /* \"contracts/Conflict.sol\":5986:6001  milestoneNumber */\n      dup8\n        /* \"contracts/Conflict.sol\":6002:6030  States.ConflictStatus.voting */\n      0x01\n        /* \"contracts/Conflict.sol\":1928:1933  state */\n      dup1\n        /* \"contracts/Conflict.sol\":1853:1933  conflicts[projectNumber][serviceNumber][milestoneNumber].conflictStatus == state */\n      0x03\n      dup2\n      gt\n      iszero\n      tag_100\n      jumpi\n      tag_101\n      tag_62\n      jump\t// in\n    tag_101:\n    tag_100:\n        /* \"contracts/Conflict.sol\":1853:1862  conflicts */\n      0x00\n        /* \"contracts/Conflict.sol\":1853:1877  conflicts[projectNumber] */\n      dup1\n        /* \"contracts/Conflict.sol\":1863:1876  projectNumber */\n      dup7\n        /* \"contracts/Conflict.sol\":1853:1877  conflicts[projectNumber] */\n      dup2\n      mstore\n      0x20\n      add\n      swap1\n      dup2\n      mstore\n      0x20\n      add\n      0x00\n      keccak256\n        /* \"contracts/Conflict.sol\":1853:1892  conflicts[projectNumber][serviceNumber] */\n      0x00\n        /* \"contracts/Conflict.sol\":1878:1891  serviceNumber */\n      dup6\n        /* \"contracts/Conflict.sol\":1853:1892  conflicts[projectNumber][serviceNumber] */\n      dup2\n      mstore\n      0x20\n      add\n      swap1\n      dup2\n      mstore\n      0x20\n      add\n      0x00\n      keccak256\n        /* \"contracts/Conflict.sol\":1853:1909  conflicts[projectNumber][serviceNumber][milestoneNumber] */\n      0x00\n        /* \"contracts/Conflict.sol\":1893:1908  milestoneNumber */\n      dup5\n        /* \"contracts/Conflict.sol\":1853:1909  conflicts[projectNumber][serviceNumber][milestoneNumber] */\n      dup2\n      mstore\n      0x20\n      add\n      swap1\n      dup2\n      mstore\n      0x20\n      add\n      0x00\n      keccak256\n        /* \"contracts/Conflict.sol\":1853:1924  conflicts[projectNumber][serviceNumber][milestoneNumber].conflictStatus */\n      0x06\n      add\n      0x14\n      swap1\n      sload\n      swap1\n      0x0100\n      exp\n      swap1\n      div\n      0xff\n      and\n        /* \"contracts/Conflict.sol\":1853:1933  conflicts[projectNumber][serviceNumber][milestoneNumber].conflictStatus == state */\n      0x03\n      dup2\n      gt\n      iszero\n      tag_102\n      jumpi\n      tag_103\n      tag_62\n      jump\t// in\n    tag_103:\n    tag_102:\n      eq\n        /* \"contracts/Conflict.sol\":1845:1970  require(conflicts[projectNumber][serviceNumber][milestoneNumber].conflictStatus == state, \"Cannot carry out this operation!\") */\n      tag_104\n      jumpi\n      mload(0x40)\n      0x08c379a000000000000000000000000000000000000000000000000000000000\n      dup2\n      mstore\n      0x04\n      add\n      tag_105\n      swap1\n      tag_67\n      jump\t// in\n    tag_105:\n      mload(0x40)\n      dup1\n      swap2\n      sub\n      swap1\n      revert\n    tag_104:\n        /* \"contracts/Conflict.sol\":6046:6075  conflict storage currConflict */\n      0x00\n        /* \"contracts/Conflict.sol\":6078:6087  conflicts */\n      dup1\n        /* \"contracts/Conflict.sol\":6078:6102  conflicts[projectNumber] */\n      0x00\n        /* \"contracts/Conflict.sol\":6088:6101  projectNumber */\n      dup15\n        /* \"contracts/Conflict.sol\":6078:6102  conflicts[projectNumber] */\n      dup2\n      mstore\n      0x20\n      add\n      swap1\n      dup2\n      mstore\n      0x20\n      add\n      0x00\n      keccak256\n        /* \"contracts/Conflict.sol\":6078:6117  conflicts[projectNumber][serviceNumber] */\n      0x00\n        /* \"contracts/Conflict.sol\":6103:6116  serviceNumber */\n      dup14\n        /* \"contracts/Conflict.sol\":6078:6117  conflicts[projectNumber][serviceNumber] */\n      dup2\n      mstore\n      0x20\n      add\n      swap1\n      dup2\n      mstore\n      0x20\n      add\n      0x00\n      keccak256\n        /* \"contracts/Conflict.sol\":6078:6134  conflicts[projectNumber][serviceNumber][milestoneNumber] */\n      0x00\n        /* \"contracts/Conflict.sol\":6118:6133  milestoneNumber */\n      dup13\n        /* \"contracts/Conflict.sol\":6078:6134  conflicts[projectNumber][serviceNumber][milestoneNumber] */\n      dup2\n      mstore\n      0x20\n      add\n      swap1\n      dup2\n      mstore\n      0x20\n      add\n      0x00\n      keccak256\n        /* \"contracts/Conflict.sol\":6046:6134  conflict storage currConflict = conflicts[projectNumber][serviceNumber][milestoneNumber] */\n      swap1\n      pop\n        /* \"contracts/Conflict.sol\":6185:6190  _from */\n      dup10\n        /* \"contracts/Conflict.sol\":6152:6190  currConflict.serviceRequester != _from */\n      0xffffffffffffffffffffffffffffffffffffffff\n      and\n        /* \"contracts/Conflict.sol\":6152:6164  currConflict */\n      dup2\n        /* \"contracts/Conflict.sol\":6152:6181  currConflict.serviceRequester */\n      0x05\n      add\n      0x00\n      swap1\n      sload\n      swap1\n      0x0100\n      exp\n      swap1\n      div\n      0xffffffffffffffffffffffffffffffffffffffff\n      and\n        /* \"contracts/Conflict.sol\":6152:6190  currConflict.serviceRequester != _from */\n      0xffffffffffffffffffffffffffffffffffffffff\n      and\n      eq\n      iszero\n        /* \"contracts/Conflict.sol\":6144:6244  require(currConflict.serviceRequester != _from , \"You raised this conflict. You cannot vote on it.\") */\n      tag_107\n      jumpi\n      mload(0x40)\n      0x08c379a000000000000000000000000000000000000000000000000000000000\n      dup2\n      mstore\n      0x04\n      add\n      tag_108\n      swap1\n      tag_109\n      jump\t// in\n    tag_108:\n      mload(0x40)\n      dup1\n      swap2\n      sub\n      swap1\n      revert\n    tag_107:\n        /* \"contracts/Conflict.sol\":6294:6299  _from */\n      dup10\n        /* \"contracts/Conflict.sol\":6262:6299  currConflict.serviceProvider != _from */\n      0xffffffffffffffffffffffffffffffffffffffff\n      and\n        /* \"contracts/Conflict.sol\":6262:6274  currConflict */\n      dup2\n        /* \"contracts/Conflict.sol\":6262:6290  currConflict.serviceProvider */\n      0x06\n      add\n      0x00\n      swap1\n      sload\n      swap1\n      0x0100\n      exp\n      swap1\n      div\n      0xffffffffffffffffffffffffffffffffffffffff\n      and\n        /* \"contracts/Conflict.sol\":6262:6299  currConflict.serviceProvider != _from */\n      0xffffffffffffffffffffffffffffffffffffffff\n      and\n      eq\n      iszero\n        /* \"contracts/Conflict.sol\":6254:6361  require(currConflict.serviceProvider != _from, \"You are involved in this conflict. You cannot vote on it.\") */\n      tag_110\n      jumpi\n      mload(0x40)\n      0x08c379a000000000000000000000000000000000000000000000000000000000\n      dup2\n      mstore\n      0x04\n      add\n      tag_111\n      swap1\n      tag_112\n      jump\t// in\n    tag_111:\n      mload(0x40)\n      dup1\n      swap2\n      sub\n      swap1\n      revert\n    tag_110:\n        /* \"contracts/Conflict.sol\":6409:6421  currConflict */\n      dup1\n        /* \"contracts/Conflict.sol\":6409:6428  currConflict.voters */\n      0x07\n      add\n      sload\n        /* \"contracts/Conflict.sol\":6379:6391  currConflict */\n      dup2\n        /* \"contracts/Conflict.sol\":6379:6406  currConflict.votesCollected */\n      0x08\n      add\n      sload\n        /* \"contracts/Conflict.sol\":6379:6428  currConflict.votesCollected < currConflict.voters */\n      lt\n        /* \"contracts/Conflict.sol\":6371:6465  require(currConflict.votesCollected < currConflict.voters, \"Enough votes have been collected\") */\n      tag_113\n      jumpi\n      mload(0x40)\n      0x08c379a000000000000000000000000000000000000000000000000000000000\n      dup2\n      mstore\n      0x04\n      add\n      tag_114\n      swap1\n      tag_115\n      jump\t// in\n    tag_114:\n      mload(0x40)\n      dup1\n      swap2\n      sub\n      swap1\n      revert\n    tag_113:\n        /* \"contracts/Conflict.sol\":6512:6513  0 */\n      0x00\n        /* \"contracts/Conflict.sol\":6483:6495  currConflict */\n      dup2\n        /* \"contracts/Conflict.sol\":6483:6501  currConflict.votes */\n      0x0c\n      add\n        /* \"contracts/Conflict.sol\":6483:6508  currConflict.votes[_from] */\n      0x00\n        /* \"contracts/Conflict.sol\":6502:6507  _from */\n      dup13\n        /* \"contracts/Conflict.sol\":6483:6508  currConflict.votes[_from] */\n      0xffffffffffffffffffffffffffffffffffffffff\n      and\n      0xffffffffffffffffffffffffffffffffffffffff\n      and\n      dup2\n      mstore\n      0x20\n      add\n      swap1\n      dup2\n      mstore\n      0x20\n      add\n      0x00\n      keccak256\n      0x00\n      swap1\n      sload\n      swap1\n      0x0100\n      exp\n      swap1\n      div\n      0xff\n      and\n        /* \"contracts/Conflict.sol\":6483:6513  currConflict.votes[_from] == 0 */\n      0xff\n      and\n      eq\n        /* \"contracts/Conflict.sol\":6475:6564  require(currConflict.votes[_from] == 0 , \"You have already voted, you cannot vote again\") */\n      tag_116\n      jumpi\n      mload(0x40)\n      0x08c379a000000000000000000000000000000000000000000000000000000000\n      dup2\n      mstore\n      0x04\n      add\n      tag_117\n      swap1\n      tag_118\n      jump\t// in\n    tag_117:\n      mload(0x40)\n      dup1\n      swap2\n      sub\n      swap1\n      revert\n    tag_116:\n        /* \"contracts/Conflict.sol\":6590:6591  1 */\n      0x01\n        /* \"contracts/Conflict.sol\":6582:6586  vote */\n      dup10\n        /* \"contracts/Conflict.sol\":6582:6591  vote == 1 */\n      0xff\n      and\n      eq\n        /* \"contracts/Conflict.sol\":6582:6604  vote == 1 || vote == 2 */\n      dup1\n      tag_119\n      jumpi\n      pop\n        /* \"contracts/Conflict.sol\":6603:6604  2 */\n      0x02\n        /* \"contracts/Conflict.sol\":6595:6599  vote */\n      dup10\n        /* \"contracts/Conflict.sol\":6595:6604  vote == 2 */\n      0xff\n      and\n      eq\n        /* \"contracts/Conflict.sol\":6582:6604  vote == 1 || vote == 2 */\n    tag_119:\n        /* \"contracts/Conflict.sol\":6574:6696  require(vote == 1 || vote == 2, \"You have not input a right vote. You can either vote 1 for Requester or 2 for Provider.\") */\n      tag_120\n      jumpi\n      mload(0x40)\n      0x08c379a000000000000000000000000000000000000000000000000000000000\n      dup2\n      mstore\n      0x04\n      add\n      tag_121\n      swap1\n      tag_122\n      jump\t// in\n    tag_121:\n      mload(0x40)\n      dup1\n      swap2\n      sub\n      swap1\n      revert\n    tag_120:\n        /* \"contracts/Conflict.sol\":6707:6725  conflict storage C */\n      0x00\n        /* \"contracts/Conflict.sol\":6728:6737  conflicts */\n      dup1\n        /* \"contracts/Conflict.sol\":6728:6752  conflicts[projectNumber] */\n      0x00\n        /* \"contracts/Conflict.sol\":6738:6751  projectNumber */\n      dup16\n        /* \"contracts/Conflict.sol\":6728:6752  conflicts[projectNumber] */\n      dup2\n      mstore\n      0x20\n      add\n      swap1\n      dup2\n      mstore\n      0x20\n      add\n      0x00\n      keccak256\n        /* \"contracts/Conflict.sol\":6728:6767  conflicts[projectNumber][serviceNumber] */\n      0x00\n        /* \"contracts/Conflict.sol\":6753:6766  serviceNumber */\n      dup15\n        /* \"contracts/Conflict.sol\":6728:6767  conflicts[projectNumber][serviceNumber] */\n      dup2\n      mstore\n      0x20\n      add\n      swap1\n      dup2\n      mstore\n      0x20\n      add\n      0x00\n      keccak256\n        /* \"contracts/Conflict.sol\":6728:6784  conflicts[projectNumber][serviceNumber][milestoneNumber] */\n      0x00\n        /* \"contracts/Conflict.sol\":6768:6783  milestoneNumber */\n      dup14\n        /* \"contracts/Conflict.sol\":6728:6784  conflicts[projectNumber][serviceNumber][milestoneNumber] */\n      dup2\n      mstore\n      0x20\n      add\n      swap1\n      dup2\n      mstore\n      0x20\n      add\n      0x00\n      keccak256\n        /* \"contracts/Conflict.sol\":6707:6784  conflict storage C = conflicts[projectNumber][serviceNumber][milestoneNumber] */\n      swap1\n      pop\n        /* \"contracts/Conflict.sol\":6811:6815  vote */\n      dup10\n        /* \"contracts/Conflict.sol\":6794:6795  C */\n      dup2\n        /* \"contracts/Conflict.sol\":6794:6801  C.votes */\n      0x0c\n      add\n        /* \"contracts/Conflict.sol\":6794:6808  C.votes[_from] */\n      0x00\n        /* \"contracts/Conflict.sol\":6802:6807  _from */\n      dup14\n        /* \"contracts/Conflict.sol\":6794:6808  C.votes[_from] */\n      0xffffffffffffffffffffffffffffffffffffffff\n      and\n      0xffffffffffffffffffffffffffffffffffffffff\n      and\n      dup2\n      mstore\n      0x20\n      add\n      swap1\n      dup2\n      mstore\n      0x20\n      add\n      0x00\n      keccak256\n      0x00\n        /* \"contracts/Conflict.sol\":6794:6815  C.votes[_from] = vote */\n      0x0100\n      exp\n      dup2\n      sload\n      dup2\n      0xff\n      mul\n      not\n      and\n      swap1\n      dup4\n      0xff\n      and\n      mul\n      or\n      swap1\n      sstore\n      pop\n        /* \"contracts/Conflict.sol\":6838:6839  1 */\n      0x01\n        /* \"contracts/Conflict.sol\":6830:6834  vote */\n      dup11\n        /* \"contracts/Conflict.sol\":6830:6839  vote == 1 */\n      0xff\n      and\n      eq\n        /* \"contracts/Conflict.sol\":6826:6864  if (vote == 1) { C.requesterVotes++; } */\n      iszero\n      tag_123\n      jumpi\n        /* \"contracts/Conflict.sol\":6843:6844  C */\n      dup1\n        /* \"contracts/Conflict.sol\":6843:6859  C.requesterVotes */\n      0x09\n      add\n      0x00\n        /* \"contracts/Conflict.sol\":6843:6861  C.requesterVotes++ */\n      dup2\n      sload\n      dup1\n      swap3\n      swap2\n      swap1\n      tag_124\n      swap1\n      tag_125\n      jump\t// in\n    tag_124:\n      swap2\n      swap1\n      pop\n      sstore\n      pop\n        /* \"contracts/Conflict.sol\":6826:6864  if (vote == 1) { C.requesterVotes++; } */\n    tag_123:\n        /* \"contracts/Conflict.sol\":6885:6886  2 */\n      0x02\n        /* \"contracts/Conflict.sol\":6877:6881  vote */\n      dup11\n        /* \"contracts/Conflict.sol\":6877:6886  vote == 2 */\n      0xff\n      and\n      eq\n        /* \"contracts/Conflict.sol\":6873:6910  if (vote == 2) { C.providerVotes++; } */\n      iszero\n      tag_126\n      jumpi\n        /* \"contracts/Conflict.sol\":6890:6891  C */\n      dup1\n        /* \"contracts/Conflict.sol\":6890:6905  C.providerVotes */\n      0x0a\n      add\n      0x00\n        /* \"contracts/Conflict.sol\":6890:6907  C.providerVotes++ */\n      dup2\n      sload\n      dup1\n      swap3\n      swap2\n      swap1\n      tag_127\n      swap1\n      tag_125\n      jump\t// in\n    tag_127:\n      swap2\n      swap1\n      pop\n      sstore\n      pop\n        /* \"contracts/Conflict.sol\":6873:6910  if (vote == 2) { C.providerVotes++; } */\n    tag_126:\n        /* \"contracts/Conflict.sol\":6919:6920  C */\n      dup1\n        /* \"contracts/Conflict.sol\":6919:6935  C.votesCollected */\n      0x08\n      add\n      0x00\n        /* \"contracts/Conflict.sol\":6919:6937  C.votesCollected++ */\n      dup2\n      sload\n      dup1\n      swap3\n      swap2\n      swap1\n      tag_128\n      swap1\n      tag_125\n      jump\t// in\n    tag_128:\n      swap2\n      swap1\n      pop\n      sstore\n      pop\n        /* \"contracts/Conflict.sol\":6953:7031  conflictVoted(projectNumber, serviceNumber, milestoneNumber, msg.sender, vote) */\n      0x20211b974adbe11ce3687d51504ce7ef1fcfbb9c00405ba7aca7b283903f345a\n        /* \"contracts/Conflict.sol\":6967:6980  projectNumber */\n      dup15\n        /* \"contracts/Conflict.sol\":6982:6995  serviceNumber */\n      dup15\n        /* \"contracts/Conflict.sol\":6997:7012  milestoneNumber */\n      dup15\n        /* \"contracts/Conflict.sol\":7014:7024  msg.sender */\n      caller\n        /* \"contracts/Conflict.sol\":7026:7030  vote */\n      dup15\n        /* \"contracts/Conflict.sol\":6953:7031  conflictVoted(projectNumber, serviceNumber, milestoneNumber, msg.sender, vote) */\n      mload(0x40)\n      tag_129\n      swap6\n      swap5\n      swap4\n      swap3\n      swap2\n      swap1\n      tag_130\n      jump\t// in\n    tag_129:\n      mload(0x40)\n      dup1\n      swap2\n      sub\n      swap1\n      log1\n        /* \"contracts/Conflict.sol\":7066:7067  C */\n      dup1\n        /* \"contracts/Conflict.sol\":7066:7074  C.voters */\n      0x07\n      add\n      sload\n        /* \"contracts/Conflict.sol\":7046:7047  C */\n      dup2\n        /* \"contracts/Conflict.sol\":7046:7062  C.votesCollected */\n      0x08\n      add\n      sload\n        /* \"contracts/Conflict.sol\":7046:7074  C.votesCollected == C.voters */\n      eq\n        /* \"contracts/Conflict.sol\":7042:7442  if (C.votesCollected == C.voters) {... */\n      iszero\n      tag_131\n      jumpi\n        /* \"contracts/Conflict.sol\":7112:7113  C */\n      dup1\n        /* \"contracts/Conflict.sol\":7112:7128  C.requesterVotes */\n      0x09\n      add\n      sload\n        /* \"contracts/Conflict.sol\":7094:7095  C */\n      dup2\n        /* \"contracts/Conflict.sol\":7094:7109  C.providerVotes */\n      0x0a\n      add\n      sload\n        /* \"contracts/Conflict.sol\":7094:7128  C.providerVotes > C.requesterVotes */\n      gt\n        /* \"contracts/Conflict.sol\":7090:7179  if (C.providerVotes > C.requesterVotes) {C.result = 2; }... */\n      iszero\n      tag_132\n      jumpi\n        /* \"contracts/Conflict.sol\":7142:7143  2 */\n      0x02\n        /* \"contracts/Conflict.sol\":7131:7132  C */\n      dup2\n        /* \"contracts/Conflict.sol\":7131:7139  C.result */\n      0x0b\n      add\n      0x01\n        /* \"contracts/Conflict.sol\":7131:7143  C.result = 2 */\n      0x0100\n      exp\n      dup2\n      sload\n      dup2\n      0xff\n      mul\n      not\n      and\n      swap1\n      dup4\n      0xff\n      and\n      mul\n      or\n      swap1\n      sstore\n      pop\n        /* \"contracts/Conflict.sol\":7090:7179  if (C.providerVotes > C.requesterVotes) {C.result = 2; }... */\n      jump(tag_133)\n    tag_132:\n        /* \"contracts/Conflict.sol\":7176:7177  1 */\n      0x01\n        /* \"contracts/Conflict.sol\":7165:7166  C */\n      dup2\n        /* \"contracts/Conflict.sol\":7165:7173  C.result */\n      0x0b\n      add\n      0x01\n        /* \"contracts/Conflict.sol\":7165:7177  C.result = 1 */\n      0x0100\n      exp\n      dup2\n      sload\n      dup2\n      0xff\n      mul\n      not\n      and\n      swap1\n      dup4\n      0xff\n      and\n      mul\n      or\n      swap1\n      sstore\n      pop\n        /* \"contracts/Conflict.sol\":7090:7179  if (C.providerVotes > C.requesterVotes) {C.result = 2; }... */\n    tag_133:\n        /* \"contracts/Conflict.sol\":7252:7340  setState(projectNumber, serviceNumber, milestoneNumber, States.ConflictStatus.completed) */\n      tag_134\n        /* \"contracts/Conflict.sol\":7261:7274  projectNumber */\n      dup15\n        /* \"contracts/Conflict.sol\":7276:7289  serviceNumber */\n      dup15\n        /* \"contracts/Conflict.sol\":7291:7306  milestoneNumber */\n      dup15\n        /* \"contracts/Conflict.sol\":7308:7339  States.ConflictStatus.completed */\n      0x02\n        /* \"contracts/Conflict.sol\":7252:7260  setState */\n      tag_70\n        /* \"contracts/Conflict.sol\":7252:7340  setState(projectNumber, serviceNumber, milestoneNumber, States.ConflictStatus.completed) */\n      jump\t// in\n    tag_134:\n        /* \"contracts/Conflict.sol\":7360:7431  conflictResult(projectNumber, serviceNumber, milestoneNumber, C.result) */\n      0xe59fdbc65a5dd63c529717c2a71d04b136038f05301755de242dd05990c02814\n        /* \"contracts/Conflict.sol\":7375:7388  projectNumber */\n      dup15\n        /* \"contracts/Conflict.sol\":7390:7403  serviceNumber */\n      dup15\n        /* \"contracts/Conflict.sol\":7405:7420  milestoneNumber */\n      dup15\n        /* \"contracts/Conflict.sol\":7422:7423  C */\n      dup5\n        /* \"contracts/Conflict.sol\":7422:7430  C.result */\n      0x0b\n      add\n      0x01\n      swap1\n      sload\n      swap1\n      0x0100\n      exp\n      swap1\n      div\n      0xff\n      and\n        /* \"contracts/Conflict.sol\":7360:7431  conflictResult(projectNumber, serviceNumber, milestoneNumber, C.result) */\n      mload(0x40)\n      tag_135\n      swap5\n      swap4\n      swap3\n      swap2\n      swap1\n      tag_136\n      jump\t// in\n    tag_135:\n      mload(0x40)\n      dup1\n      swap2\n      sub\n      swap1\n      log1\n        /* \"contracts/Conflict.sol\":7042:7442  if (C.votesCollected == C.voters) {... */\n    tag_131:\n        /* \"contracts/Conflict.sol\":6036:7448  {... */\n      pop\n      pop\n        /* \"contracts/Conflict.sol\":1705:1706  _ */\n      pop\n      pop\n      pop\n      pop\n        /* \"contracts/Conflict.sol\":5741:7448  function voteConflict(uint256 projectNumber, uint256 serviceNumber, uint256 milestoneNumber, address _from, uint8 vote) public ... */\n      pop\n      pop\n      pop\n      pop\n      pop\n      pop\n      pop\n      pop\n      jump\t// out\n        /* \"contracts/Conflict.sol\":8121:8358  function getConflictStatus(uint256 projectNumber, uint256 serviceNumber, uint256 milestoneNumber) public view returns (States.ConflictStatus) {... */\n    tag_40:\n        /* \"contracts/Conflict.sol\":8240:8261  States.ConflictStatus */\n      0x00\n        /* \"contracts/Conflict.sol\":8280:8289  conflicts */\n      dup1\n        /* \"contracts/Conflict.sol\":8280:8304  conflicts[projectNumber] */\n      0x00\n        /* \"contracts/Conflict.sol\":8290:8303  projectNumber */\n      dup6\n        /* \"contracts/Conflict.sol\":8280:8304  conflicts[projectNumber] */\n      dup2\n      mstore\n      0x20\n      add\n      swap1\n      dup2\n      mstore\n      0x20\n      add\n      0x00\n      keccak256\n        /* \"contracts/Conflict.sol\":8280:8319  conflicts[projectNumber][serviceNumber] */\n      0x00\n        /* \"contracts/Conflict.sol\":8305:8318  serviceNumber */\n      dup5\n        /* \"contracts/Conflict.sol\":8280:8319  conflicts[projectNumber][serviceNumber] */\n      dup2\n      mstore\n      0x20\n      add\n      swap1\n      dup2\n      mstore\n      0x20\n      add\n      0x00\n      keccak256\n        /* \"contracts/Conflict.sol\":8280:8336  conflicts[projectNumber][serviceNumber][milestoneNumber] */\n      0x00\n        /* \"contracts/Conflict.sol\":8320:8335  milestoneNumber */\n      dup4\n        /* \"contracts/Conflict.sol\":8280:8336  conflicts[projectNumber][serviceNumber][milestoneNumber] */\n      dup2\n      mstore\n      0x20\n      add\n      swap1\n      dup2\n      mstore\n      0x20\n      add\n      0x00\n      keccak256\n        /* \"contracts/Conflict.sol\":8280:8351  conflicts[projectNumber][serviceNumber][milestoneNumber].conflictStatus */\n      0x06\n      add\n      0x14\n      swap1\n      sload\n      swap1\n      0x0100\n      exp\n      swap1\n      div\n      0xff\n      and\n        /* \"contracts/Conflict.sol\":8273:8351  return conflicts[projectNumber][serviceNumber][milestoneNumber].conflictStatus */\n      swap1\n      pop\n        /* \"contracts/Conflict.sol\":8121:8358  function getConflictStatus(uint256 projectNumber, uint256 serviceNumber, uint256 milestoneNumber) public view returns (States.ConflictStatus) {... */\n      swap4\n      swap3\n      pop\n      pop\n      pop\n      jump\t// out\n        /* \"contracts/Conflict.sol\":4268:4763  function updateConflict(uint256 projectNumber, uint256 serviceNumber, uint256 milestoneNumber, string memory title, string memory description) external ... */\n    tag_46:\n        /* \"contracts/Conflict.sol\":4437:4450  projectNumber */\n      dup5\n        /* \"contracts/Conflict.sol\":4452:4465  serviceNumber */\n      dup5\n        /* \"contracts/Conflict.sol\":4467:4482  milestoneNumber */\n      dup5\n        /* \"contracts/Conflict.sol\":4483:4512  States.ConflictStatus.created */\n      0x00\n        /* \"contracts/Conflict.sol\":1928:1933  state */\n      dup1\n        /* \"contracts/Conflict.sol\":1853:1933  conflicts[projectNumber][serviceNumber][milestoneNumber].conflictStatus == state */\n      0x03\n      dup2\n      gt\n      iszero\n      tag_139\n      jumpi\n      tag_140\n      tag_62\n      jump\t// in\n    tag_140:\n    tag_139:\n        /* \"contracts/Conflict.sol\":1853:1862  conflicts */\n      0x00\n        /* \"contracts/Conflict.sol\":1853:1877  conflicts[projectNumber] */\n      dup1\n        /* \"contracts/Conflict.sol\":1863:1876  projectNumber */\n      dup7\n        /* \"contracts/Conflict.sol\":1853:1877  conflicts[projectNumber] */\n      dup2\n      mstore\n      0x20\n      add\n      swap1\n      dup2\n      mstore\n      0x20\n      add\n      0x00\n      keccak256\n        /* \"contracts/Conflict.sol\":1853:1892  conflicts[projectNumber][serviceNumber] */\n      0x00\n        /* \"contracts/Conflict.sol\":1878:1891  serviceNumber */\n      dup6\n        /* \"contracts/Conflict.sol\":1853:1892  conflicts[projectNumber][serviceNumber] */\n      dup2\n      mstore\n      0x20\n      add\n      swap1\n      dup2\n      mstore\n      0x20\n      add\n      0x00\n      keccak256\n        /* \"contracts/Conflict.sol\":1853:1909  conflicts[projectNumber][serviceNumber][milestoneNumber] */\n      0x00\n        /* \"contracts/Conflict.sol\":1893:1908  milestoneNumber */\n      dup5\n        /* \"contracts/Conflict.sol\":1853:1909  conflicts[projectNumber][serviceNumber][milestoneNumber] */\n      dup2\n      mstore\n      0x20\n      add\n      swap1\n      dup2\n      mstore\n      0x20\n      add\n      0x00\n      keccak256\n        /* \"contracts/Conflict.sol\":1853:1924  conflicts[projectNumber][serviceNumber][milestoneNumber].conflictStatus */\n      0x06\n      add\n      0x14\n      swap1\n      sload\n      swap1\n      0x0100\n      exp\n      swap1\n      div\n      0xff\n      and\n        /* \"contracts/Conflict.sol\":1853:1933  conflicts[projectNumber][serviceNumber][milestoneNumber].conflictStatus == state */\n      0x03\n      dup2\n      gt\n      iszero\n      tag_141\n      jumpi\n      tag_142\n      tag_62\n      jump\t// in\n    tag_142:\n    tag_141:\n      eq\n        /* \"contracts/Conflict.sol\":1845:1970  require(conflicts[projectNumber][serviceNumber][milestoneNumber].conflictStatus == state, \"Cannot carry out this operation!\") */\n      tag_143\n      jumpi\n      mload(0x40)\n      0x08c379a000000000000000000000000000000000000000000000000000000000\n      dup2\n      mstore\n      0x04\n      add\n      tag_144\n      swap1\n      tag_67\n      jump\t// in\n    tag_144:\n      mload(0x40)\n      dup1\n      swap2\n      sub\n      swap1\n      revert\n    tag_143:\n        /* \"contracts/Conflict.sol\":4537:4542  title */\n      dup6\n        /* \"contracts/Conflict.sol\":2075:2076  0 */\n      0x00\n        /* \"contracts/Conflict.sol\":2061:2064  str */\n      dup2\n        /* \"contracts/Conflict.sol\":2055:2072  bytes(str).length */\n      mload\n        /* \"contracts/Conflict.sol\":2055:2076  bytes(str).length > 0 */\n      gt\n        /* \"contracts/Conflict.sol\":2047:2102  require(bytes(str).length > 0, \"A string is required!\") */\n      tag_146\n      jumpi\n      mload(0x40)\n      0x08c379a000000000000000000000000000000000000000000000000000000000\n      dup2\n      mstore\n      0x04\n      add\n      tag_147\n      swap1\n      tag_148\n      jump\t// in\n    tag_147:\n      mload(0x40)\n      dup1\n      swap2\n      sub\n      swap1\n      revert\n    tag_146:\n        /* \"contracts/Conflict.sol\":4567:4578  description */\n      dup6\n        /* \"contracts/Conflict.sol\":2075:2076  0 */\n      0x00\n        /* \"contracts/Conflict.sol\":2061:2064  str */\n      dup2\n        /* \"contracts/Conflict.sol\":2055:2072  bytes(str).length */\n      mload\n        /* \"contracts/Conflict.sol\":2055:2076  bytes(str).length > 0 */\n      gt\n        /* \"contracts/Conflict.sol\":2047:2102  require(bytes(str).length > 0, \"A string is required!\") */\n      tag_150\n      jumpi\n      mload(0x40)\n      0x08c379a000000000000000000000000000000000000000000000000000000000\n      dup2\n      mstore\n      0x04\n      add\n      tag_151\n      swap1\n      tag_148\n      jump\t// in\n    tag_151:\n      mload(0x40)\n      dup1\n      swap2\n      sub\n      swap1\n      revert\n    tag_150:\n        /* \"contracts/Conflict.sol\":4659:4664  title */\n      dup8\n        /* \"contracts/Conflict.sol\":4594:4603  conflicts */\n      0x00\n        /* \"contracts/Conflict.sol\":4594:4618  conflicts[projectNumber] */\n      dup1\n        /* \"contracts/Conflict.sol\":4604:4617  projectNumber */\n      dup14\n        /* \"contracts/Conflict.sol\":4594:4618  conflicts[projectNumber] */\n      dup2\n      mstore\n      0x20\n      add\n      swap1\n      dup2\n      mstore\n      0x20\n      add\n      0x00\n      keccak256\n        /* \"contracts/Conflict.sol\":4594:4633  conflicts[projectNumber][serviceNumber] */\n      0x00\n        /* \"contracts/Conflict.sol\":4619:4632  serviceNumber */\n      dup13\n        /* \"contracts/Conflict.sol\":4594:4633  conflicts[projectNumber][serviceNumber] */\n      dup2\n      mstore\n      0x20\n      add\n      swap1\n      dup2\n      mstore\n      0x20\n      add\n      0x00\n      keccak256\n        /* \"contracts/Conflict.sol\":4594:4650  conflicts[projectNumber][serviceNumber][milestoneNumber] */\n      0x00\n        /* \"contracts/Conflict.sol\":4634:4649  milestoneNumber */\n      dup12\n        /* \"contracts/Conflict.sol\":4594:4650  conflicts[projectNumber][serviceNumber][milestoneNumber] */\n      dup2\n      mstore\n      0x20\n      add\n      swap1\n      dup2\n      mstore\n      0x20\n      add\n      0x00\n      keccak256\n        /* \"contracts/Conflict.sol\":4594:4656  conflicts[projectNumber][serviceNumber][milestoneNumber].title */\n      0x03\n      add\n        /* \"contracts/Conflict.sol\":4594:4664  conflicts[projectNumber][serviceNumber][milestoneNumber].title = title */\n      swap1\n      dup1\n      mload\n      swap1\n      0x20\n      add\n      swap1\n      tag_153\n      swap3\n      swap2\n      swap1\n      tag_154\n      jump\t// in\n    tag_153:\n      pop\n        /* \"contracts/Conflict.sol\":4745:4756  description */\n      dup7\n        /* \"contracts/Conflict.sol\":4674:4683  conflicts */\n      0x00\n        /* \"contracts/Conflict.sol\":4674:4698  conflicts[projectNumber] */\n      dup1\n        /* \"contracts/Conflict.sol\":4684:4697  projectNumber */\n      dup14\n        /* \"contracts/Conflict.sol\":4674:4698  conflicts[projectNumber] */\n      dup2\n      mstore\n      0x20\n      add\n      swap1\n      dup2\n      mstore\n      0x20\n      add\n      0x00\n      keccak256\n        /* \"contracts/Conflict.sol\":4674:4713  conflicts[projectNumber][serviceNumber] */\n      0x00\n        /* \"contracts/Conflict.sol\":4699:4712  serviceNumber */\n      dup13\n        /* \"contracts/Conflict.sol\":4674:4713  conflicts[projectNumber][serviceNumber] */\n      dup2\n      mstore\n      0x20\n      add\n      swap1\n      dup2\n      mstore\n      0x20\n      add\n      0x00\n      keccak256\n        /* \"contracts/Conflict.sol\":4674:4730  conflicts[projectNumber][serviceNumber][milestoneNumber] */\n      0x00\n        /* \"contracts/Conflict.sol\":4714:4729  milestoneNumber */\n      dup12\n        /* \"contracts/Conflict.sol\":4674:4730  conflicts[projectNumber][serviceNumber][milestoneNumber] */\n      dup2\n      mstore\n      0x20\n      add\n      swap1\n      dup2\n      mstore\n      0x20\n      add\n      0x00\n      keccak256\n        /* \"contracts/Conflict.sol\":4674:4742  conflicts[projectNumber][serviceNumber][milestoneNumber].description */\n      0x04\n      add\n        /* \"contracts/Conflict.sol\":4674:4756  conflicts[projectNumber][serviceNumber][milestoneNumber].description = description */\n      swap1\n      dup1\n      mload\n      swap1\n      0x20\n      add\n      swap1\n      tag_155\n      swap3\n      swap2\n      swap1\n      tag_154\n      jump\t// in\n    tag_155:\n      pop\n        /* \"contracts/Conflict.sol\":2112:2113  _ */\n      pop\n        /* \"contracts/Conflict.sol\":1980:1981  _ */\n      pop\n        /* \"contracts/Conflict.sol\":4268:4763  function updateConflict(uint256 projectNumber, uint256 serviceNumber, uint256 milestoneNumber, string memory title, string memory description) external ... */\n      pop\n      pop\n      pop\n      pop\n      pop\n      pop\n      pop\n      pop\n      pop\n      jump\t// out\n        /* \"contracts/Conflict.sol\":8593:8819  function getVotesforRequester(uint256 projectNumber, uint256 serviceNumber, uint256 milestoneNumber) public view returns (uint256) {... */\n    tag_49:\n        /* \"contracts/Conflict.sol\":8715:8722  uint256 */\n      0x00\n        /* \"contracts/Conflict.sol\":8741:8750  conflicts */\n      dup1\n        /* \"contracts/Conflict.sol\":8741:8765  conflicts[projectNumber] */\n      0x00\n        /* \"contracts/Conflict.sol\":8751:8764  projectNumber */\n      dup6\n        /* \"contracts/Conflict.sol\":8741:8765  conflicts[projectNumber] */\n      dup2\n      mstore\n      0x20\n      add\n      swap1\n      dup2\n      mstore\n      0x20\n      add\n      0x00\n      keccak256\n        /* \"contracts/Conflict.sol\":8741:8780  conflicts[projectNumber][serviceNumber] */\n      0x00\n        /* \"contracts/Conflict.sol\":8766:8779  serviceNumber */\n      dup5\n        /* \"contracts/Conflict.sol\":8741:8780  conflicts[projectNumber][serviceNumber] */\n      dup2\n      mstore\n      0x20\n      add\n      swap1\n      dup2\n      mstore\n      0x20\n      add\n      0x00\n      keccak256\n        /* \"contracts/Conflict.sol\":8741:8797  conflicts[projectNumber][serviceNumber][milestoneNumber] */\n      0x00\n        /* \"contracts/Conflict.sol\":8781:8796  milestoneNumber */\n      dup4\n        /* \"contracts/Conflict.sol\":8741:8797  conflicts[projectNumber][serviceNumber][milestoneNumber] */\n      dup2\n      mstore\n      0x20\n      add\n      swap1\n      dup2\n      mstore\n      0x20\n      add\n      0x00\n      keccak256\n        /* \"contracts/Conflict.sol\":8741:8812  conflicts[projectNumber][serviceNumber][milestoneNumber].requesterVotes */\n      0x09\n      add\n      sload\n        /* \"contracts/Conflict.sol\":8734:8812  return conflicts[projectNumber][serviceNumber][milestoneNumber].requesterVotes */\n      swap1\n      pop\n        /* \"contracts/Conflict.sol\":8593:8819  function getVotesforRequester(uint256 projectNumber, uint256 serviceNumber, uint256 milestoneNumber) public view returns (uint256) {... */\n      swap4\n      swap3\n      pop\n      pop\n      pop\n      jump\t// out\n        /* \"contracts/Conflict.sol\":2881:4221  function createConflict(uint256 projectNumber, uint256 serviceNumber, uint256 milestoneNumber, string memory title, string memory description, address payable serviceRequester, address payable serviceProvider, uint256 totalVoters) public ... */\n    tag_54:\n        /* \"contracts/Conflict.sol\":3143:3148  title */\n      dup5\n        /* \"contracts/Conflict.sol\":2075:2076  0 */\n      0x00\n        /* \"contracts/Conflict.sol\":2061:2064  str */\n      dup2\n        /* \"contracts/Conflict.sol\":2055:2072  bytes(str).length */\n      mload\n        /* \"contracts/Conflict.sol\":2055:2076  bytes(str).length > 0 */\n      gt\n        /* \"contracts/Conflict.sol\":2047:2102  require(bytes(str).length > 0, \"A string is required!\") */\n      tag_158\n      jumpi\n      mload(0x40)\n      0x08c379a000000000000000000000000000000000000000000000000000000000\n      dup2\n      mstore\n      0x04\n      add\n      tag_159\n      swap1\n      tag_148\n      jump\t// in\n    tag_159:\n      mload(0x40)\n      dup1\n      swap2\n      sub\n      swap1\n      revert\n    tag_158:\n        /* \"contracts/Conflict.sol\":3173:3184  description */\n      dup5\n        /* \"contracts/Conflict.sol\":2075:2076  0 */\n      0x00\n        /* \"contracts/Conflict.sol\":2061:2064  str */\n      dup2\n        /* \"contracts/Conflict.sol\":2055:2072  bytes(str).length */\n      mload\n        /* \"contracts/Conflict.sol\":2055:2076  bytes(str).length > 0 */\n      gt\n        /* \"contracts/Conflict.sol\":2047:2102  require(bytes(str).length > 0, \"A string is required!\") */\n      tag_161\n      jumpi\n      mload(0x40)\n      0x08c379a000000000000000000000000000000000000000000000000000000000\n      dup2\n      mstore\n      0x04\n      add\n      tag_162\n      swap1\n      tag_148\n      jump\t// in\n    tag_162:\n      mload(0x40)\n      dup1\n      swap2\n      sub\n      swap1\n      revert\n    tag_161:\n        /* \"contracts/Conflict.sol\":3200:3228  conflict storage newConflict */\n      0x00\n        /* \"contracts/Conflict.sol\":3231:3240  conflicts */\n      dup1\n        /* \"contracts/Conflict.sol\":3231:3255  conflicts[projectNumber] */\n      0x00\n        /* \"contracts/Conflict.sol\":3241:3254  projectNumber */\n      dup13\n        /* \"contracts/Conflict.sol\":3231:3255  conflicts[projectNumber] */\n      dup2\n      mstore\n      0x20\n      add\n      swap1\n      dup2\n      mstore\n      0x20\n      add\n      0x00\n      keccak256\n        /* \"contracts/Conflict.sol\":3231:3270  conflicts[projectNumber][serviceNumber] */\n      0x00\n        /* \"contracts/Conflict.sol\":3256:3269  serviceNumber */\n      dup12\n        /* \"contracts/Conflict.sol\":3231:3270  conflicts[projectNumber][serviceNumber] */\n      dup2\n      mstore\n      0x20\n      add\n      swap1\n      dup2\n      mstore\n      0x20\n      add\n      0x00\n      keccak256\n        /* \"contracts/Conflict.sol\":3231:3287  conflicts[projectNumber][serviceNumber][milestoneNumber] */\n      0x00\n        /* \"contracts/Conflict.sol\":3271:3286  milestoneNumber */\n      dup11\n        /* \"contracts/Conflict.sol\":3231:3287  conflicts[projectNumber][serviceNumber][milestoneNumber] */\n      dup2\n      mstore\n      0x20\n      add\n      swap1\n      dup2\n      mstore\n      0x20\n      add\n      0x00\n      keccak256\n        /* \"contracts/Conflict.sol\":3200:3287  conflict storage newConflict = conflicts[projectNumber][serviceNumber][milestoneNumber] */\n      swap1\n      pop\n        /* \"contracts/Conflict.sol\":3326:3331  false */\n      0x00\n        /* \"contracts/Conflict.sol\":3305:3331  newConflict.exist == false */\n      iszero\n      iszero\n        /* \"contracts/Conflict.sol\":3305:3316  newConflict */\n      dup2\n        /* \"contracts/Conflict.sol\":3305:3322  newConflict.exist */\n      0x0b\n      add\n      0x00\n      swap1\n      sload\n      swap1\n      0x0100\n      exp\n      swap1\n      div\n      0xff\n      and\n        /* \"contracts/Conflict.sol\":3305:3331  newConflict.exist == false */\n      iszero\n      iszero\n      eq\n        /* \"contracts/Conflict.sol\":3297:3400  require(newConflict.exist == false, \"Conflict has already been created for this particular Milestone.\") */\n      tag_164\n      jumpi\n      mload(0x40)\n      0x08c379a000000000000000000000000000000000000000000000000000000000\n      dup2\n      mstore\n      0x04\n      add\n      tag_165\n      swap1\n      tag_166\n      jump\t// in\n    tag_165:\n      mload(0x40)\n      dup1\n      swap2\n      sub\n      swap1\n      revert\n    tag_164:\n        /* \"contracts/Conflict.sol\":3463:3476  projectNumber */\n      dup11\n        /* \"contracts/Conflict.sol\":3435:3446  newConflict */\n      dup2\n        /* \"contracts/Conflict.sol\":3435:3460  newConflict.projectNumber */\n      0x00\n      add\n        /* \"contracts/Conflict.sol\":3435:3476  newConflict.projectNumber = projectNumber */\n      dup2\n      swap1\n      sstore\n      pop\n        /* \"contracts/Conflict.sol\":3519:3532  serviceNumber */\n      dup10\n        /* \"contracts/Conflict.sol\":3491:3502  newConflict */\n      dup2\n        /* \"contracts/Conflict.sol\":3491:3516  newConflict.serviceNumber */\n      0x01\n      add\n        /* \"contracts/Conflict.sol\":3491:3532  newConflict.serviceNumber = serviceNumber */\n      dup2\n      swap1\n      sstore\n      pop\n        /* \"contracts/Conflict.sol\":3580:3595  milestoneNumber */\n      dup9\n        /* \"contracts/Conflict.sol\":3550:3561  newConflict */\n      dup2\n        /* \"contracts/Conflict.sol\":3550:3577  newConflict.milestoneNumber */\n      0x02\n      add\n        /* \"contracts/Conflict.sol\":3550:3595  newConflict.milestoneNumber = milestoneNumber */\n      dup2\n      swap1\n      sstore\n      pop\n        /* \"contracts/Conflict.sol\":3625:3630  title */\n      dup8\n        /* \"contracts/Conflict.sol\":3605:3616  newConflict */\n      dup2\n        /* \"contracts/Conflict.sol\":3605:3622  newConflict.title */\n      0x03\n      add\n        /* \"contracts/Conflict.sol\":3605:3630  newConflict.title = title */\n      swap1\n      dup1\n      mload\n      swap1\n      0x20\n      add\n      swap1\n      tag_167\n      swap3\n      swap2\n      swap1\n      tag_154\n      jump\t// in\n    tag_167:\n      pop\n        /* \"contracts/Conflict.sol\":3666:3677  description */\n      dup7\n        /* \"contracts/Conflict.sol\":3640:3651  newConflict */\n      dup2\n        /* \"contracts/Conflict.sol\":3640:3663  newConflict.description */\n      0x04\n      add\n        /* \"contracts/Conflict.sol\":3640:3677  newConflict.description = description */\n      swap1\n      dup1\n      mload\n      swap1\n      0x20\n      add\n      swap1\n      tag_168\n      swap3\n      swap2\n      swap1\n      tag_154\n      jump\t// in\n    tag_168:\n      pop\n        /* \"contracts/Conflict.sol\":3718:3734  serviceRequester */\n      dup6\n        /* \"contracts/Conflict.sol\":3687:3698  newConflict */\n      dup2\n        /* \"contracts/Conflict.sol\":3687:3715  newConflict.serviceRequester */\n      0x05\n      add\n      0x00\n        /* \"contracts/Conflict.sol\":3687:3734  newConflict.serviceRequester = serviceRequester */\n      0x0100\n      exp\n      dup2\n      sload\n      dup2\n      0xffffffffffffffffffffffffffffffffffffffff\n      mul\n      not\n      and\n      swap1\n      dup4\n      0xffffffffffffffffffffffffffffffffffffffff\n      and\n      mul\n      or\n      swap1\n      sstore\n      pop\n        /* \"contracts/Conflict.sol\":3774:3789  serviceProvider */\n      dup5\n        /* \"contracts/Conflict.sol\":3744:3755  newConflict */\n      dup2\n        /* \"contracts/Conflict.sol\":3744:3771  newConflict.serviceProvider */\n      0x06\n      add\n      0x00\n        /* \"contracts/Conflict.sol\":3744:3789  newConflict.serviceProvider = serviceProvider */\n      0x0100\n      exp\n      dup2\n      sload\n      dup2\n      0xffffffffffffffffffffffffffffffffffffffff\n      mul\n      not\n      and\n      swap1\n      dup4\n      0xffffffffffffffffffffffffffffffffffffffff\n      and\n      mul\n      or\n      swap1\n      sstore\n      pop\n        /* \"contracts/Conflict.sol\":3828:3857  States.ConflictStatus.created */\n      0x00\n        /* \"contracts/Conflict.sol\":3799:3810  newConflict */\n      dup2\n        /* \"contracts/Conflict.sol\":3799:3825  newConflict.conflictStatus */\n      0x06\n      add\n      0x14\n        /* \"contracts/Conflict.sol\":3799:3857  newConflict.conflictStatus = States.ConflictStatus.created */\n      0x0100\n      exp\n      dup2\n      sload\n      dup2\n      0xff\n      mul\n      not\n      and\n      swap1\n      dup4\n      0x03\n      dup2\n      gt\n      iszero\n      tag_169\n      jumpi\n      tag_170\n      tag_62\n      jump\t// in\n    tag_170:\n    tag_169:\n      mul\n      or\n      swap1\n      sstore\n      pop\n        /* \"contracts/Conflict.sol\":3888:3899  totalVoters */\n      dup4\n        /* \"contracts/Conflict.sol\":3867:3878  newConflict */\n      dup2\n        /* \"contracts/Conflict.sol\":3867:3885  newConflict.voters */\n      0x07\n      add\n        /* \"contracts/Conflict.sol\":3867:3899  newConflict.voters = totalVoters */\n      dup2\n      swap1\n      sstore\n      pop\n        /* \"contracts/Conflict.sol\":3938:3939  0 */\n      0x00\n        /* \"contracts/Conflict.sol\":3909:3920  newConflict */\n      dup2\n        /* \"contracts/Conflict.sol\":3909:3935  newConflict.votesCollected */\n      0x08\n      add\n        /* \"contracts/Conflict.sol\":3909:3939  newConflict.votesCollected = 0 */\n      dup2\n      swap1\n      sstore\n      pop\n        /* \"contracts/Conflict.sol\":3978:3979  0 */\n      0x00\n        /* \"contracts/Conflict.sol\":3949:3960  newConflict */\n      dup2\n        /* \"contracts/Conflict.sol\":3949:3975  newConflict.requesterVotes */\n      0x09\n      add\n        /* \"contracts/Conflict.sol\":3949:3979  newConflict.requesterVotes = 0 */\n      dup2\n      swap1\n      sstore\n      pop\n        /* \"contracts/Conflict.sol\":4017:4018  0 */\n      0x00\n        /* \"contracts/Conflict.sol\":3989:4000  newConflict */\n      dup2\n        /* \"contracts/Conflict.sol\":3989:4014  newConflict.providerVotes */\n      0x0a\n      add\n        /* \"contracts/Conflict.sol\":3989:4018  newConflict.providerVotes = 0 */\n      dup2\n      swap1\n      sstore\n      pop\n        /* \"contracts/Conflict.sol\":4052:4056  true */\n      0x01\n        /* \"contracts/Conflict.sol\":4032:4043  newConflict */\n      dup2\n        /* \"contracts/Conflict.sol\":4032:4049  newConflict.exist */\n      0x0b\n      add\n      0x00\n        /* \"contracts/Conflict.sol\":4032:4056  newConflict.exist = true */\n      0x0100\n      exp\n      dup2\n      sload\n      dup2\n      0xff\n      mul\n      not\n      and\n      swap1\n      dup4\n      iszero\n      iszero\n      mul\n      or\n      swap1\n      sstore\n      pop\n        /* \"contracts/Conflict.sol\":4087:4088  0 */\n      0x00\n        /* \"contracts/Conflict.sol\":4066:4077  newConflict */\n      dup2\n        /* \"contracts/Conflict.sol\":4066:4084  newConflict.result */\n      0x0b\n      add\n      0x01\n        /* \"contracts/Conflict.sol\":4066:4088  newConflict.result = 0 */\n      0x0100\n      exp\n      dup2\n      sload\n      dup2\n      0xff\n      mul\n      not\n      and\n      swap1\n      dup4\n      0xff\n      and\n      mul\n      or\n      swap1\n      sstore\n      pop\n        /* \"contracts/Conflict.sol\":4104:4214  conflictCreated(projectNumber, serviceNumber, milestoneNumber, serviceRequester, serviceProvider, totalVoters) */\n      0xfa127411522a1139d16c2142db999e127aef2288bd98a0558006bb115666ab1b\n        /* \"contracts/Conflict.sol\":4120:4133  projectNumber */\n      dup12\n        /* \"contracts/Conflict.sol\":4135:4148  serviceNumber */\n      dup12\n        /* \"contracts/Conflict.sol\":4150:4165  milestoneNumber */\n      dup12\n        /* \"contracts/Conflict.sol\":4167:4183  serviceRequester */\n      dup10\n        /* \"contracts/Conflict.sol\":4185:4200  serviceProvider */\n      dup10\n        /* \"contracts/Conflict.sol\":4202:4213  totalVoters */\n      dup10\n        /* \"contracts/Conflict.sol\":4104:4214  conflictCreated(projectNumber, serviceNumber, milestoneNumber, serviceRequester, serviceProvider, totalVoters) */\n      mload(0x40)\n      tag_171\n      swap7\n      swap6\n      swap5\n      swap4\n      swap3\n      swap2\n      swap1\n      tag_172\n      jump\t// in\n    tag_171:\n      mload(0x40)\n      dup1\n      swap2\n      sub\n      swap1\n      log1\n        /* \"contracts/Conflict.sol\":3190:4221  {... */\n      pop\n        /* \"contracts/Conflict.sol\":2112:2113  _ */\n      pop\n        /* \"contracts/Conflict.sol\":2881:4221  function createConflict(uint256 projectNumber, uint256 serviceNumber, uint256 milestoneNumber, string memory title, string memory description, address payable serviceRequester, address payable serviceProvider, uint256 totalVoters) public ... */\n      pop\n      pop\n      pop\n      pop\n      pop\n      pop\n      pop\n      pop\n      pop\n      jump\t// out\n        /* \"contracts/Conflict.sol\":2611:2834  function setState(uint256 projectNumber, uint256 serviceNumber, uint256 milestoneNumber, States.ConflictStatus state) internal {... */\n    tag_70:\n        /* \"contracts/Conflict.sol\":2822:2827  state */\n      dup1\n        /* \"contracts/Conflict.sol\":2748:2757  conflicts */\n      0x00\n        /* \"contracts/Conflict.sol\":2748:2772  conflicts[projectNumber] */\n      dup1\n        /* \"contracts/Conflict.sol\":2758:2771  projectNumber */\n      dup7\n        /* \"contracts/Conflict.sol\":2748:2772  conflicts[projectNumber] */\n      dup2\n      mstore\n      0x20\n      add\n      swap1\n      dup2\n      mstore\n      0x20\n      add\n      0x00\n      keccak256\n        /* \"contracts/Conflict.sol\":2748:2787  conflicts[projectNumber][serviceNumber] */\n      0x00\n        /* \"contracts/Conflict.sol\":2773:2786  serviceNumber */\n      dup6\n        /* \"contracts/Conflict.sol\":2748:2787  conflicts[projectNumber][serviceNumber] */\n      dup2\n      mstore\n      0x20\n      add\n      swap1\n      dup2\n      mstore\n      0x20\n      add\n      0x00\n      keccak256\n        /* \"contracts/Conflict.sol\":2748:2804  conflicts[projectNumber][serviceNumber][milestoneNumber] */\n      0x00\n        /* \"contracts/Conflict.sol\":2788:2803  milestoneNumber */\n      dup5\n        /* \"contracts/Conflict.sol\":2748:2804  conflicts[projectNumber][serviceNumber][milestoneNumber] */\n      dup2\n      mstore\n      0x20\n      add\n      swap1\n      dup2\n      mstore\n      0x20\n      add\n      0x00\n      keccak256\n        /* \"contracts/Conflict.sol\":2748:2819  conflicts[projectNumber][serviceNumber][milestoneNumber].conflictStatus */\n      0x06\n      add\n      0x14\n        /* \"contracts/Conflict.sol\":2748:2827  conflicts[projectNumber][serviceNumber][milestoneNumber].conflictStatus = state */\n      0x0100\n      exp\n      dup2\n      sload\n      dup2\n      0xff\n      mul\n      not\n      and\n      swap1\n      dup4\n      0x03\n      dup2\n      gt\n      iszero\n      tag_174\n      jumpi\n      tag_175\n      tag_62\n      jump\t// in\n    tag_175:\n    tag_174:\n      mul\n      or\n      swap1\n      sstore\n      pop\n        /* \"contracts/Conflict.sol\":2611:2834  function setState(uint256 projectNumber, uint256 serviceNumber, uint256 milestoneNumber, States.ConflictStatus state) internal {... */\n      pop\n      pop\n      pop\n      pop\n      jump\t// out\n    tag_154:\n      dup3\n      dup1\n      sload\n      tag_176\n      swap1\n      tag_177\n      jump\t// in\n    tag_176:\n      swap1\n      0x00\n      mstore\n      keccak256(0x00, 0x20)\n      swap1\n      0x1f\n      add\n      0x20\n      swap1\n      div\n      dup2\n      add\n      swap3\n      dup3\n      tag_179\n      jumpi\n      0x00\n      dup6\n      sstore\n      jump(tag_178)\n    tag_179:\n      dup3\n      0x1f\n      lt\n      tag_180\n      jumpi\n      dup1\n      mload\n      not(0xff)\n      and\n      dup4\n      dup1\n      add\n      or\n      dup6\n      sstore\n      jump(tag_178)\n    tag_180:\n      dup3\n      dup1\n      add\n      0x01\n      add\n      dup6\n      sstore\n      dup3\n      iszero\n      tag_178\n      jumpi\n      swap2\n      dup3\n      add\n    tag_181:\n      dup3\n      dup2\n      gt\n      iszero\n      tag_182\n      jumpi\n      dup3\n      mload\n      dup3\n      sstore\n      swap2\n      0x20\n      add\n      swap2\n      swap1\n      0x01\n      add\n      swap1\n      jump(tag_181)\n    tag_182:\n    tag_178:\n      pop\n      swap1\n      pop\n      tag_183\n      swap2\n      swap1\n      tag_184\n      jump\t// in\n    tag_183:\n      pop\n      swap1\n      jump\t// out\n    tag_184:\n    tag_185:\n      dup1\n      dup3\n      gt\n      iszero\n      tag_186\n      jumpi\n      0x00\n      dup2\n      0x00\n      swap1\n      sstore\n      pop\n      0x01\n      add\n      jump(tag_185)\n    tag_186:\n      pop\n      swap1\n      jump\t// out\n        /* \"#utility.yul\":7:419   */\n    tag_188:\n        /* \"#utility.yul\":85:90   */\n      0x00\n        /* \"#utility.yul\":110:176   */\n      tag_190\n        /* \"#utility.yul\":126:175   */\n      tag_191\n        /* \"#utility.yul\":168:174   */\n      dup5\n        /* \"#utility.yul\":126:175   */\n      tag_192\n      jump\t// in\n    tag_191:\n        /* \"#utility.yul\":110:176   */\n      tag_193\n      jump\t// in\n    tag_190:\n        /* \"#utility.yul\":101:176   */\n      swap1\n      pop\n        /* \"#utility.yul\":199:205   */\n      dup3\n        /* \"#utility.yul\":192:197   */\n      dup2\n        /* \"#utility.yul\":185:206   */\n      mstore\n        /* \"#utility.yul\":237:241   */\n      0x20\n        /* \"#utility.yul\":230:235   */\n      dup2\n        /* \"#utility.yul\":226:242   */\n      add\n        /* \"#utility.yul\":275:278   */\n      dup5\n        /* \"#utility.yul\":266:272   */\n      dup5\n        /* \"#utility.yul\":261:264   */\n      dup5\n        /* \"#utility.yul\":257:273   */\n      add\n        /* \"#utility.yul\":254:279   */\n      gt\n        /* \"#utility.yul\":251:363   */\n      iszero\n      tag_194\n      jumpi\n        /* \"#utility.yul\":282:361   */\n      tag_195\n      tag_196\n      jump\t// in\n    tag_195:\n        /* \"#utility.yul\":251:363   */\n    tag_194:\n        /* \"#utility.yul\":372:413   */\n      tag_197\n        /* \"#utility.yul\":406:412   */\n      dup5\n        /* \"#utility.yul\":401:404   */\n      dup3\n        /* \"#utility.yul\":396:399   */\n      dup6\n        /* \"#utility.yul\":372:413   */\n      tag_198\n      jump\t// in\n    tag_197:\n        /* \"#utility.yul\":91:419   */\n      pop\n        /* \"#utility.yul\":7:419   */\n      swap4\n      swap3\n      pop\n      pop\n      pop\n      jump\t// out\n        /* \"#utility.yul\":425:564   */\n    tag_199:\n        /* \"#utility.yul\":471:476   */\n      0x00\n        /* \"#utility.yul\":509:515   */\n      dup2\n        /* \"#utility.yul\":496:516   */\n      calldataload\n        /* \"#utility.yul\":487:516   */\n      swap1\n      pop\n        /* \"#utility.yul\":525:558   */\n      tag_201\n        /* \"#utility.yul\":552:557   */\n      dup2\n        /* \"#utility.yul\":525:558   */\n      tag_202\n      jump\t// in\n    tag_201:\n        /* \"#utility.yul\":425:564   */\n      swap3\n      swap2\n      pop\n      pop\n      jump\t// out\n        /* \"#utility.yul\":570:725   */\n    tag_203:\n        /* \"#utility.yul\":624:629   */\n      0x00\n        /* \"#utility.yul\":662:668   */\n      dup2\n        /* \"#utility.yul\":649:669   */\n      calldataload\n        /* \"#utility.yul\":640:669   */\n      swap1\n      pop\n        /* \"#utility.yul\":678:719   */\n      tag_205\n        /* \"#utility.yul\":713:718   */\n      dup2\n        /* \"#utility.yul\":678:719   */\n      tag_206\n      jump\t// in\n    tag_205:\n        /* \"#utility.yul\":570:725   */\n      swap3\n      swap2\n      pop\n      pop\n      jump\t// out\n        /* \"#utility.yul\":745:1085   */\n    tag_207:\n        /* \"#utility.yul\":801:806   */\n      0x00\n        /* \"#utility.yul\":850:853   */\n      dup3\n        /* \"#utility.yul\":843:847   */\n      0x1f\n        /* \"#utility.yul\":835:841   */\n      dup4\n        /* \"#utility.yul\":831:848   */\n      add\n        /* \"#utility.yul\":827:854   */\n      slt\n        /* \"#utility.yul\":817:939   */\n      tag_209\n      jumpi\n        /* \"#utility.yul\":858:937   */\n      tag_210\n      tag_211\n      jump\t// in\n    tag_210:\n        /* \"#utility.yul\":817:939   */\n    tag_209:\n        /* \"#utility.yul\":975:981   */\n      dup2\n        /* \"#utility.yul\":962:982   */\n      calldataload\n        /* \"#utility.yul\":1000:1079   */\n      tag_212\n        /* \"#utility.yul\":1075:1078   */\n      dup5\n        /* \"#utility.yul\":1067:1073   */\n      dup3\n        /* \"#utility.yul\":1060:1064   */\n      0x20\n        /* \"#utility.yul\":1052:1058   */\n      dup7\n        /* \"#utility.yul\":1048:1065   */\n      add\n        /* \"#utility.yul\":1000:1079   */\n      tag_188\n      jump\t// in\n    tag_212:\n        /* \"#utility.yul\":991:1079   */\n      swap2\n      pop\n        /* \"#utility.yul\":807:1085   */\n      pop\n        /* \"#utility.yul\":745:1085   */\n      swap3\n      swap2\n      pop\n      pop\n      jump\t// out\n        /* \"#utility.yul\":1091:1230   */\n    tag_213:\n        /* \"#utility.yul\":1137:1142   */\n      0x00\n        /* \"#utility.yul\":1175:1181   */\n      dup2\n        /* \"#utility.yul\":1162:1182   */\n      calldataload\n        /* \"#utility.yul\":1153:1182   */\n      swap1\n      pop\n        /* \"#utility.yul\":1191:1224   */\n      tag_215\n        /* \"#utility.yul\":1218:1223   */\n      dup2\n        /* \"#utility.yul\":1191:1224   */\n      tag_216\n      jump\t// in\n    tag_215:\n        /* \"#utility.yul\":1091:1230   */\n      swap3\n      swap2\n      pop\n      pop\n      jump\t// out\n        /* \"#utility.yul\":1236:1371   */\n    tag_217:\n        /* \"#utility.yul\":1280:1285   */\n      0x00\n        /* \"#utility.yul\":1318:1324   */\n      dup2\n        /* \"#utility.yul\":1305:1325   */\n      calldataload\n        /* \"#utility.yul\":1296:1325   */\n      swap1\n      pop\n        /* \"#utility.yul\":1334:1365   */\n      tag_219\n        /* \"#utility.yul\":1359:1364   */\n      dup2\n        /* \"#utility.yul\":1334:1365   */\n      tag_220\n      jump\t// in\n    tag_219:\n        /* \"#utility.yul\":1236:1371   */\n      swap3\n      swap2\n      pop\n      pop\n      jump\t// out\n        /* \"#utility.yul\":1377:1996   */\n    tag_16:\n        /* \"#utility.yul\":1454:1460   */\n      0x00\n        /* \"#utility.yul\":1462:1468   */\n      dup1\n        /* \"#utility.yul\":1470:1476   */\n      0x00\n        /* \"#utility.yul\":1519:1521   */\n      0x60\n        /* \"#utility.yul\":1507:1516   */\n      dup5\n        /* \"#utility.yul\":1498:1505   */\n      dup7\n        /* \"#utility.yul\":1494:1517   */\n      sub\n        /* \"#utility.yul\":1490:1522   */\n      slt\n        /* \"#utility.yul\":1487:1606   */\n      iszero\n      tag_222\n      jumpi\n        /* \"#utility.yul\":1525:1604   */\n      tag_223\n      tag_224\n      jump\t// in\n    tag_223:\n        /* \"#utility.yul\":1487:1606   */\n    tag_222:\n        /* \"#utility.yul\":1645:1646   */\n      0x00\n        /* \"#utility.yul\":1670:1723   */\n      tag_225\n        /* \"#utility.yul\":1715:1722   */\n      dup7\n        /* \"#utility.yul\":1706:1712   */\n      dup3\n        /* \"#utility.yul\":1695:1704   */\n      dup8\n        /* \"#utility.yul\":1691:1713   */\n      add\n        /* \"#utility.yul\":1670:1723   */\n      tag_213\n      jump\t// in\n    tag_225:\n        /* \"#utility.yul\":1660:1723   */\n      swap4\n      pop\n        /* \"#utility.yul\":1616:1733   */\n      pop\n        /* \"#utility.yul\":1772:1774   */\n      0x20\n        /* \"#utility.yul\":1798:1851   */\n      tag_226\n        /* \"#utility.yul\":1843:1850   */\n      dup7\n        /* \"#utility.yul\":1834:1840   */\n      dup3\n        /* \"#utility.yul\":1823:1832   */\n      dup8\n        /* \"#utility.yul\":1819:1841   */\n      add\n        /* \"#utility.yul\":1798:1851   */\n      tag_213\n      jump\t// in\n    tag_226:\n        /* \"#utility.yul\":1788:1851   */\n      swap3\n      pop\n        /* \"#utility.yul\":1743:1861   */\n      pop\n        /* \"#utility.yul\":1900:1902   */\n      0x40\n        /* \"#utility.yul\":1926:1979   */\n      tag_227\n        /* \"#utility.yul\":1971:1978   */\n      dup7\n        /* \"#utility.yul\":1962:1968   */\n      dup3\n        /* \"#utility.yul\":1951:1960   */\n      dup8\n        /* \"#utility.yul\":1947:1969   */\n      add\n        /* \"#utility.yul\":1926:1979   */\n      tag_213\n      jump\t// in\n    tag_227:\n        /* \"#utility.yul\":1916:1979   */\n      swap2\n      pop\n        /* \"#utility.yul\":1871:1989   */\n      pop\n        /* \"#utility.yul\":1377:1996   */\n      swap3\n      pop\n      swap3\n      pop\n      swap3\n      jump\t// out\n        /* \"#utility.yul\":2002:2909   */\n    tag_36:\n        /* \"#utility.yul\":2095:2101   */\n      0x00\n        /* \"#utility.yul\":2103:2109   */\n      dup1\n        /* \"#utility.yul\":2111:2117   */\n      0x00\n        /* \"#utility.yul\":2119:2125   */\n      dup1\n        /* \"#utility.yul\":2127:2133   */\n      0x00\n        /* \"#utility.yul\":2176:2179   */\n      0xa0\n        /* \"#utility.yul\":2164:2173   */\n      dup7\n        /* \"#utility.yul\":2155:2162   */\n      dup9\n        /* \"#utility.yul\":2151:2174   */\n      sub\n        /* \"#utility.yul\":2147:2180   */\n      slt\n        /* \"#utility.yul\":2144:2264   */\n      iszero\n      tag_229\n      jumpi\n        /* \"#utility.yul\":2183:2262   */\n      tag_230\n      tag_224\n      jump\t// in\n    tag_230:\n        /* \"#utility.yul\":2144:2264   */\n    tag_229:\n        /* \"#utility.yul\":2303:2304   */\n      0x00\n        /* \"#utility.yul\":2328:2381   */\n      tag_231\n        /* \"#utility.yul\":2373:2380   */\n      dup9\n        /* \"#utility.yul\":2364:2370   */\n      dup3\n        /* \"#utility.yul\":2353:2362   */\n      dup10\n        /* \"#utility.yul\":2349:2371   */\n      add\n        /* \"#utility.yul\":2328:2381   */\n      tag_213\n      jump\t// in\n    tag_231:\n        /* \"#utility.yul\":2318:2381   */\n      swap6\n      pop\n        /* \"#utility.yul\":2274:2391   */\n      pop\n        /* \"#utility.yul\":2430:2432   */\n      0x20\n        /* \"#utility.yul\":2456:2509   */\n      tag_232\n        /* \"#utility.yul\":2501:2508   */\n      dup9\n        /* \"#utility.yul\":2492:2498   */\n      dup3\n        /* \"#utility.yul\":2481:2490   */\n      dup10\n        /* \"#utility.yul\":2477:2499   */\n      add\n        /* \"#utility.yul\":2456:2509   */\n      tag_213\n      jump\t// in\n    tag_232:\n        /* \"#utility.yul\":2446:2509   */\n      swap5\n      pop\n        /* \"#utility.yul\":2401:2519   */\n      pop\n        /* \"#utility.yul\":2558:2560   */\n      0x40\n        /* \"#utility.yul\":2584:2637   */\n      tag_233\n        /* \"#utility.yul\":2629:2636   */\n      dup9\n        /* \"#utility.yul\":2620:2626   */\n      dup3\n        /* \"#utility.yul\":2609:2618   */\n      dup10\n        /* \"#utility.yul\":2605:2627   */\n      add\n        /* \"#utility.yul\":2584:2637   */\n      tag_213\n      jump\t// in\n    tag_233:\n        /* \"#utility.yul\":2574:2637   */\n      swap4\n      pop\n        /* \"#utility.yul\":2529:2647   */\n      pop\n        /* \"#utility.yul\":2686:2688   */\n      0x60\n        /* \"#utility.yul\":2712:2765   */\n      tag_234\n        /* \"#utility.yul\":2757:2764   */\n      dup9\n        /* \"#utility.yul\":2748:2754   */\n      dup3\n        /* \"#utility.yul\":2737:2746   */\n      dup10\n        /* \"#utility.yul\":2733:2755   */\n      add\n        /* \"#utility.yul\":2712:2765   */\n      tag_199\n      jump\t// in\n    tag_234:\n        /* \"#utility.yul\":2702:2765   */\n      swap3\n      pop\n        /* \"#utility.yul\":2657:2775   */\n      pop\n        /* \"#utility.yul\":2814:2817   */\n      0x80\n        /* \"#utility.yul\":2841:2892   */\n      tag_235\n        /* \"#utility.yul\":2884:2891   */\n      dup9\n        /* \"#utility.yul\":2875:2881   */\n      dup3\n        /* \"#utility.yul\":2864:2873   */\n      dup10\n        /* \"#utility.yul\":2860:2882   */\n      add\n        /* \"#utility.yul\":2841:2892   */\n      tag_217\n      jump\t// in\n    tag_235:\n        /* \"#utility.yul\":2831:2892   */\n      swap2\n      pop\n        /* \"#utility.yul\":2785:2902   */\n      pop\n        /* \"#utility.yul\":2002:2909   */\n      swap3\n      swap6\n      pop\n      swap3\n      swap6\n      swap1\n      swap4\n      pop\n      jump\t// out\n        /* \"#utility.yul\":2915:4186   */\n    tag_45:\n        /* \"#utility.yul\":3030:3036   */\n      0x00\n        /* \"#utility.yul\":3038:3044   */\n      dup1\n        /* \"#utility.yul\":3046:3052   */\n      0x00\n        /* \"#utility.yul\":3054:3060   */\n      dup1\n        /* \"#utility.yul\":3062:3068   */\n      0x00\n        /* \"#utility.yul\":3111:3114   */\n      0xa0\n        /* \"#utility.yul\":3099:3108   */\n      dup7\n        /* \"#utility.yul\":3090:3097   */\n      dup9\n        /* \"#utility.yul\":3086:3109   */\n      sub\n        /* \"#utility.yul\":3082:3115   */\n      slt\n        /* \"#utility.yul\":3079:3199   */\n      iszero\n      tag_237\n      jumpi\n        /* \"#utility.yul\":3118:3197   */\n      tag_238\n      tag_224\n      jump\t// in\n    tag_238:\n        /* \"#utility.yul\":3079:3199   */\n    tag_237:\n        /* \"#utility.yul\":3238:3239   */\n      0x00\n        /* \"#utility.yul\":3263:3316   */\n      tag_239\n        /* \"#utility.yul\":3308:3315   */\n      dup9\n        /* \"#utility.yul\":3299:3305   */\n      dup3\n        /* \"#utility.yul\":3288:3297   */\n      dup10\n        /* \"#utility.yul\":3284:3306   */\n      add\n        /* \"#utility.yul\":3263:3316   */\n      tag_213\n      jump\t// in\n    tag_239:\n        /* \"#utility.yul\":3253:3316   */\n      swap6\n      pop\n        /* \"#utility.yul\":3209:3326   */\n      pop\n        /* \"#utility.yul\":3365:3367   */\n      0x20\n        /* \"#utility.yul\":3391:3444   */\n      tag_240\n        /* \"#utility.yul\":3436:3443   */\n      dup9\n        /* \"#utility.yul\":3427:3433   */\n      dup3\n        /* \"#utility.yul\":3416:3425   */\n      dup10\n        /* \"#utility.yul\":3412:3434   */\n      add\n        /* \"#utility.yul\":3391:3444   */\n      tag_213\n      jump\t// in\n    tag_240:\n        /* \"#utility.yul\":3381:3444   */\n      swap5\n      pop\n        /* \"#utility.yul\":3336:3454   */\n      pop\n        /* \"#utility.yul\":3493:3495   */\n      0x40\n        /* \"#utility.yul\":3519:3572   */\n      tag_241\n        /* \"#utility.yul\":3564:3571   */\n      dup9\n        /* \"#utility.yul\":3555:3561   */\n      dup3\n        /* \"#utility.yul\":3544:3553   */\n      dup10\n        /* \"#utility.yul\":3540:3562   */\n      add\n        /* \"#utility.yul\":3519:3572   */\n      tag_213\n      jump\t// in\n    tag_241:\n        /* \"#utility.yul\":3509:3572   */\n      swap4\n      pop\n        /* \"#utility.yul\":3464:3582   */\n      pop\n        /* \"#utility.yul\":3649:3651   */\n      0x60\n        /* \"#utility.yul\":3638:3647   */\n      dup7\n        /* \"#utility.yul\":3634:3652   */\n      add\n        /* \"#utility.yul\":3621:3653   */\n      calldataload\n        /* \"#utility.yul\":3680:3698   */\n      0xffffffffffffffff\n        /* \"#utility.yul\":3672:3678   */\n      dup2\n        /* \"#utility.yul\":3669:3699   */\n      gt\n        /* \"#utility.yul\":3666:3783   */\n      iszero\n      tag_242\n      jumpi\n        /* \"#utility.yul\":3702:3781   */\n      tag_243\n      tag_244\n      jump\t// in\n    tag_243:\n        /* \"#utility.yul\":3666:3783   */\n    tag_242:\n        /* \"#utility.yul\":3807:3870   */\n      tag_245\n        /* \"#utility.yul\":3862:3869   */\n      dup9\n        /* \"#utility.yul\":3853:3859   */\n      dup3\n        /* \"#utility.yul\":3842:3851   */\n      dup10\n        /* \"#utility.yul\":3838:3860   */\n      add\n        /* \"#utility.yul\":3807:3870   */\n      tag_207\n      jump\t// in\n    tag_245:\n        /* \"#utility.yul\":3797:3870   */\n      swap3\n      pop\n        /* \"#utility.yul\":3592:3880   */\n      pop\n        /* \"#utility.yul\":3947:3950   */\n      0x80\n        /* \"#utility.yul\":3936:3945   */\n      dup7\n        /* \"#utility.yul\":3932:3951   */\n      add\n        /* \"#utility.yul\":3919:3952   */\n      calldataload\n        /* \"#utility.yul\":3979:3997   */\n      0xffffffffffffffff\n        /* \"#utility.yul\":3971:3977   */\n      dup2\n        /* \"#utility.yul\":3968:3998   */\n      gt\n        /* \"#utility.yul\":3965:4082   */\n      iszero\n      tag_246\n      jumpi\n        /* \"#utility.yul\":4001:4080   */\n      tag_247\n      tag_244\n      jump\t// in\n    tag_247:\n        /* \"#utility.yul\":3965:4082   */\n    tag_246:\n        /* \"#utility.yul\":4106:4169   */\n      tag_248\n        /* \"#utility.yul\":4161:4168   */\n      dup9\n        /* \"#utility.yul\":4152:4158   */\n      dup3\n        /* \"#utility.yul\":4141:4150   */\n      dup10\n        /* \"#utility.yul\":4137:4159   */\n      add\n        /* \"#utility.yul\":4106:4169   */\n      tag_207\n      jump\t// in\n    tag_248:\n        /* \"#utility.yul\":4096:4169   */\n      swap2\n      pop\n        /* \"#utility.yul\":3890:4179   */\n      pop\n        /* \"#utility.yul\":2915:4186   */\n      swap3\n      swap6\n      pop\n      swap3\n      swap6\n      swap1\n      swap4\n      pop\n      jump\t// out\n        /* \"#utility.yul\":4192:5933   */\n    tag_53:\n        /* \"#utility.yul\":4350:4356   */\n      0x00\n        /* \"#utility.yul\":4358:4364   */\n      dup1\n        /* \"#utility.yul\":4366:4372   */\n      0x00\n        /* \"#utility.yul\":4374:4380   */\n      dup1\n        /* \"#utility.yul\":4382:4388   */\n      0x00\n        /* \"#utility.yul\":4390:4396   */\n      dup1\n        /* \"#utility.yul\":4398:4404   */\n      0x00\n        /* \"#utility.yul\":4406:4412   */\n      dup1\n        /* \"#utility.yul\":4455:4458   */\n      0x0100\n        /* \"#utility.yul\":4443:4452   */\n      dup10\n        /* \"#utility.yul\":4434:4441   */\n      dup12\n        /* \"#utility.yul\":4430:4453   */\n      sub\n        /* \"#utility.yul\":4426:4459   */\n      slt\n        /* \"#utility.yul\":4423:4543   */\n      iszero\n      tag_250\n      jumpi\n        /* \"#utility.yul\":4462:4541   */\n      tag_251\n      tag_224\n      jump\t// in\n    tag_251:\n        /* \"#utility.yul\":4423:4543   */\n    tag_250:\n        /* \"#utility.yul\":4582:4583   */\n      0x00\n        /* \"#utility.yul\":4607:4660   */\n      tag_252\n        /* \"#utility.yul\":4652:4659   */\n      dup12\n        /* \"#utility.yul\":4643:4649   */\n      dup3\n        /* \"#utility.yul\":4632:4641   */\n      dup13\n        /* \"#utility.yul\":4628:4650   */\n      add\n        /* \"#utility.yul\":4607:4660   */\n      tag_213\n      jump\t// in\n    tag_252:\n        /* \"#utility.yul\":4597:4660   */\n      swap9\n      pop\n        /* \"#utility.yul\":4553:4670   */\n      pop\n        /* \"#utility.yul\":4709:4711   */\n      0x20\n        /* \"#utility.yul\":4735:4788   */\n      tag_253\n        /* \"#utility.yul\":4780:4787   */\n      dup12\n        /* \"#utility.yul\":4771:4777   */\n      dup3\n        /* \"#utility.yul\":4760:4769   */\n      dup13\n        /* \"#utility.yul\":4756:4778   */\n      add\n        /* \"#utility.yul\":4735:4788   */\n      tag_213\n      jump\t// in\n    tag_253:\n        /* \"#utility.yul\":4725:4788   */\n      swap8\n      pop\n        /* \"#utility.yul\":4680:4798   */\n      pop\n        /* \"#utility.yul\":4837:4839   */\n      0x40\n        /* \"#utility.yul\":4863:4916   */\n      tag_254\n        /* \"#utility.yul\":4908:4915   */\n      dup12\n        /* \"#utility.yul\":4899:4905   */\n      dup3\n        /* \"#utility.yul\":4888:4897   */\n      dup13\n        /* \"#utility.yul\":4884:4906   */\n      add\n        /* \"#utility.yul\":4863:4916   */\n      tag_213\n      jump\t// in\n    tag_254:\n        /* \"#utility.yul\":4853:4916   */\n      swap7\n      pop\n        /* \"#utility.yul\":4808:4926   */\n      pop\n        /* \"#utility.yul\":4993:4995   */\n      0x60\n        /* \"#utility.yul\":4982:4991   */\n      dup10\n        /* \"#utility.yul\":4978:4996   */\n      add\n        /* \"#utility.yul\":4965:4997   */\n      calldataload\n        /* \"#utility.yul\":5024:5042   */\n      0xffffffffffffffff\n        /* \"#utility.yul\":5016:5022   */\n      dup2\n        /* \"#utility.yul\":5013:5043   */\n      gt\n        /* \"#utility.yul\":5010:5127   */\n      iszero\n      tag_255\n      jumpi\n        /* \"#utility.yul\":5046:5125   */\n      tag_256\n      tag_244\n      jump\t// in\n    tag_256:\n        /* \"#utility.yul\":5010:5127   */\n    tag_255:\n        /* \"#utility.yul\":5151:5214   */\n      tag_257\n        /* \"#utility.yul\":5206:5213   */\n      dup12\n        /* \"#utility.yul\":5197:5203   */\n      dup3\n        /* \"#utility.yul\":5186:5195   */\n      dup13\n        /* \"#utility.yul\":5182:5204   */\n      add\n        /* \"#utility.yul\":5151:5214   */\n      tag_207\n      jump\t// in\n    tag_257:\n        /* \"#utility.yul\":5141:5214   */\n      swap6\n      pop\n        /* \"#utility.yul\":4936:5224   */\n      pop\n        /* \"#utility.yul\":5291:5294   */\n      0x80\n        /* \"#utility.yul\":5280:5289   */\n      dup10\n        /* \"#utility.yul\":5276:5295   */\n      add\n        /* \"#utility.yul\":5263:5296   */\n      calldataload\n        /* \"#utility.yul\":5323:5341   */\n      0xffffffffffffffff\n        /* \"#utility.yul\":5315:5321   */\n      dup2\n        /* \"#utility.yul\":5312:5342   */\n      gt\n        /* \"#utility.yul\":5309:5426   */\n      iszero\n      tag_258\n      jumpi\n        /* \"#utility.yul\":5345:5424   */\n      tag_259\n      tag_244\n      jump\t// in\n    tag_259:\n        /* \"#utility.yul\":5309:5426   */\n    tag_258:\n        /* \"#utility.yul\":5450:5513   */\n      tag_260\n        /* \"#utility.yul\":5505:5512   */\n      dup12\n        /* \"#utility.yul\":5496:5502   */\n      dup3\n        /* \"#utility.yul\":5485:5494   */\n      dup13\n        /* \"#utility.yul\":5481:5503   */\n      add\n        /* \"#utility.yul\":5450:5513   */\n      tag_207\n      jump\t// in\n    tag_260:\n        /* \"#utility.yul\":5440:5513   */\n      swap5\n      pop\n        /* \"#utility.yul\":5234:5523   */\n      pop\n        /* \"#utility.yul\":5562:5565   */\n      0xa0\n        /* \"#utility.yul\":5589:5650   */\n      tag_261\n        /* \"#utility.yul\":5642:5649   */\n      dup12\n        /* \"#utility.yul\":5633:5639   */\n      dup3\n        /* \"#utility.yul\":5622:5631   */\n      dup13\n        /* \"#utility.yul\":5618:5640   */\n      add\n        /* \"#utility.yul\":5589:5650   */\n      tag_203\n      jump\t// in\n    tag_261:\n        /* \"#utility.yul\":5579:5650   */\n      swap4\n      pop\n        /* \"#utility.yul\":5533:5660   */\n      pop\n        /* \"#utility.yul\":5699:5702   */\n      0xc0\n        /* \"#utility.yul\":5726:5787   */\n      tag_262\n        /* \"#utility.yul\":5779:5786   */\n      dup12\n        /* \"#utility.yul\":5770:5776   */\n      dup3\n        /* \"#utility.yul\":5759:5768   */\n      dup13\n        /* \"#utility.yul\":5755:5777   */\n      add\n        /* \"#utility.yul\":5726:5787   */\n      tag_203\n      jump\t// in\n    tag_262:\n        /* \"#utility.yul\":5716:5787   */\n      swap3\n      pop\n        /* \"#utility.yul\":5670:5797   */\n      pop\n        /* \"#utility.yul\":5836:5839   */\n      0xe0\n        /* \"#utility.yul\":5863:5916   */\n      tag_263\n        /* \"#utility.yul\":5908:5915   */\n      dup12\n        /* \"#utility.yul\":5899:5905   */\n      dup3\n        /* \"#utility.yul\":5888:5897   */\n      dup13\n        /* \"#utility.yul\":5884:5906   */\n      add\n        /* \"#utility.yul\":5863:5916   */\n      tag_213\n      jump\t// in\n    tag_263:\n        /* \"#utility.yul\":5853:5916   */\n      swap2\n      pop\n        /* \"#utility.yul\":5807:5926   */\n      pop\n        /* \"#utility.yul\":4192:5933   */\n      swap3\n      swap6\n      swap9\n      pop\n      swap3\n      swap6\n      swap9\n      swap1\n      swap4\n      swap7\n      pop\n      jump\t// out\n        /* \"#utility.yul\":5939:6086   */\n    tag_264:\n        /* \"#utility.yul\":6034:6079   */\n      tag_266\n        /* \"#utility.yul\":6073:6078   */\n      dup2\n        /* \"#utility.yul\":6034:6079   */\n      tag_267\n      jump\t// in\n    tag_266:\n        /* \"#utility.yul\":6029:6032   */\n      dup3\n        /* \"#utility.yul\":6022:6080   */\n      mstore\n        /* \"#utility.yul\":5939:6086   */\n      pop\n      pop\n      jump\t// out\n        /* \"#utility.yul\":6092:6210   */\n    tag_268:\n        /* \"#utility.yul\":6179:6203   */\n      tag_270\n        /* \"#utility.yul\":6197:6202   */\n      dup2\n        /* \"#utility.yul\":6179:6203   */\n      tag_271\n      jump\t// in\n    tag_270:\n        /* \"#utility.yul\":6174:6177   */\n      dup3\n        /* \"#utility.yul\":6167:6204   */\n      mstore\n        /* \"#utility.yul\":6092:6210   */\n      pop\n      pop\n      jump\t// out\n        /* \"#utility.yul\":6216:6379   */\n    tag_272:\n        /* \"#utility.yul\":6319:6372   */\n      tag_274\n        /* \"#utility.yul\":6366:6371   */\n      dup2\n        /* \"#utility.yul\":6319:6372   */\n      tag_275\n      jump\t// in\n    tag_274:\n        /* \"#utility.yul\":6314:6317   */\n      dup3\n        /* \"#utility.yul\":6307:6373   */\n      mstore\n        /* \"#utility.yul\":6216:6379   */\n      pop\n      pop\n      jump\t// out\n        /* \"#utility.yul\":6385:6751   */\n    tag_276:\n        /* \"#utility.yul\":6527:6530   */\n      0x00\n        /* \"#utility.yul\":6548:6615   */\n      tag_278\n        /* \"#utility.yul\":6612:6614   */\n      0x57\n        /* \"#utility.yul\":6607:6610   */\n      dup4\n        /* \"#utility.yul\":6548:6615   */\n      tag_279\n      jump\t// in\n    tag_278:\n        /* \"#utility.yul\":6541:6615   */\n      swap2\n      pop\n        /* \"#utility.yul\":6624:6717   */\n      tag_280\n        /* \"#utility.yul\":6713:6716   */\n      dup3\n        /* \"#utility.yul\":6624:6717   */\n      tag_281\n      jump\t// in\n    tag_280:\n        /* \"#utility.yul\":6742:6744   */\n      0x60\n        /* \"#utility.yul\":6737:6740   */\n      dup3\n        /* \"#utility.yul\":6733:6745   */\n      add\n        /* \"#utility.yul\":6726:6745   */\n      swap1\n      pop\n        /* \"#utility.yul\":6385:6751   */\n      swap2\n      swap1\n      pop\n      jump\t// out\n        /* \"#utility.yul\":6757:7123   */\n    tag_282:\n        /* \"#utility.yul\":6899:6902   */\n      0x00\n        /* \"#utility.yul\":6920:6987   */\n      tag_284\n        /* \"#utility.yul\":6984:6986   */\n      0x2d\n        /* \"#utility.yul\":6979:6982   */\n      dup4\n        /* \"#utility.yul\":6920:6987   */\n      tag_279\n      jump\t// in\n    tag_284:\n        /* \"#utility.yul\":6913:6987   */\n      swap2\n      pop\n        /* \"#utility.yul\":6996:7089   */\n      tag_285\n        /* \"#utility.yul\":7085:7088   */\n      dup3\n        /* \"#utility.yul\":6996:7089   */\n      tag_286\n      jump\t// in\n    tag_285:\n        /* \"#utility.yul\":7114:7116   */\n      0x40\n        /* \"#utility.yul\":7109:7112   */\n      dup3\n        /* \"#utility.yul\":7105:7117   */\n      add\n        /* \"#utility.yul\":7098:7117   */\n      swap1\n      pop\n        /* \"#utility.yul\":6757:7123   */\n      swap2\n      swap1\n      pop\n      jump\t// out\n        /* \"#utility.yul\":7129:7495   */\n    tag_287:\n        /* \"#utility.yul\":7271:7274   */\n      0x00\n        /* \"#utility.yul\":7292:7359   */\n      tag_289\n        /* \"#utility.yul\":7356:7358   */\n      0x20\n        /* \"#utility.yul\":7351:7354   */\n      dup4\n        /* \"#utility.yul\":7292:7359   */\n      tag_279\n      jump\t// in\n    tag_289:\n        /* \"#utility.yul\":7285:7359   */\n      swap2\n      pop\n        /* \"#utility.yul\":7368:7461   */\n      tag_290\n        /* \"#utility.yul\":7457:7460   */\n      dup3\n        /* \"#utility.yul\":7368:7461   */\n      tag_291\n      jump\t// in\n    tag_290:\n        /* \"#utility.yul\":7486:7488   */\n      0x20\n        /* \"#utility.yul\":7481:7484   */\n      dup3\n        /* \"#utility.yul\":7477:7489   */\n      add\n        /* \"#utility.yul\":7470:7489   */\n      swap1\n      pop\n        /* \"#utility.yul\":7129:7495   */\n      swap2\n      swap1\n      pop\n      jump\t// out\n        /* \"#utility.yul\":7501:7867   */\n    tag_292:\n        /* \"#utility.yul\":7643:7646   */\n      0x00\n        /* \"#utility.yul\":7664:7731   */\n      tag_294\n        /* \"#utility.yul\":7728:7730   */\n      0x1d\n        /* \"#utility.yul\":7723:7726   */\n      dup4\n        /* \"#utility.yul\":7664:7731   */\n      tag_279\n      jump\t// in\n    tag_294:\n        /* \"#utility.yul\":7657:7731   */\n      swap2\n      pop\n        /* \"#utility.yul\":7740:7833   */\n      tag_295\n        /* \"#utility.yul\":7829:7832   */\n      dup3\n        /* \"#utility.yul\":7740:7833   */\n      tag_296\n      jump\t// in\n    tag_295:\n        /* \"#utility.yul\":7858:7860   */\n      0x20\n        /* \"#utility.yul\":7853:7856   */\n      dup3\n        /* \"#utility.yul\":7849:7861   */\n      add\n        /* \"#utility.yul\":7842:7861   */\n      swap1\n      pop\n        /* \"#utility.yul\":7501:7867   */\n      swap2\n      swap1\n      pop\n      jump\t// out\n        /* \"#utility.yul\":7873:8239   */\n    tag_297:\n        /* \"#utility.yul\":8015:8018   */\n      0x00\n        /* \"#utility.yul\":8036:8103   */\n      tag_299\n        /* \"#utility.yul\":8100:8102   */\n      0x30\n        /* \"#utility.yul\":8095:8098   */\n      dup4\n        /* \"#utility.yul\":8036:8103   */\n      tag_279\n      jump\t// in\n    tag_299:\n        /* \"#utility.yul\":8029:8103   */\n      swap2\n      pop\n        /* \"#utility.yul\":8112:8205   */\n      tag_300\n        /* \"#utility.yul\":8201:8204   */\n      dup3\n        /* \"#utility.yul\":8112:8205   */\n      tag_301\n      jump\t// in\n    tag_300:\n        /* \"#utility.yul\":8230:8232   */\n      0x40\n        /* \"#utility.yul\":8225:8228   */\n      dup3\n        /* \"#utility.yul\":8221:8233   */\n      add\n        /* \"#utility.yul\":8214:8233   */\n      swap1\n      pop\n        /* \"#utility.yul\":7873:8239   */\n      swap2\n      swap1\n      pop\n      jump\t// out\n        /* \"#utility.yul\":8245:8611   */\n    tag_302:\n        /* \"#utility.yul\":8387:8390   */\n      0x00\n        /* \"#utility.yul\":8408:8475   */\n      tag_304\n        /* \"#utility.yul\":8472:8474   */\n      0x40\n        /* \"#utility.yul\":8467:8470   */\n      dup4\n        /* \"#utility.yul\":8408:8475   */\n      tag_279\n      jump\t// in\n    tag_304:\n        /* \"#utility.yul\":8401:8475   */\n      swap2\n      pop\n        /* \"#utility.yul\":8484:8577   */\n      tag_305\n        /* \"#utility.yul\":8573:8576   */\n      dup3\n        /* \"#utility.yul\":8484:8577   */\n      tag_306\n      jump\t// in\n    tag_305:\n        /* \"#utility.yul\":8602:8604   */\n      0x40\n        /* \"#utility.yul\":8597:8600   */\n      dup3\n        /* \"#utility.yul\":8593:8605   */\n      add\n        /* \"#utility.yul\":8586:8605   */\n      swap1\n      pop\n        /* \"#utility.yul\":8245:8611   */\n      swap2\n      swap1\n      pop\n      jump\t// out\n        /* \"#utility.yul\":8617:8983   */\n    tag_307:\n        /* \"#utility.yul\":8759:8762   */\n      0x00\n        /* \"#utility.yul\":8780:8847   */\n      tag_309\n        /* \"#utility.yul\":8844:8846   */\n      0x3d\n        /* \"#utility.yul\":8839:8842   */\n      dup4\n        /* \"#utility.yul\":8780:8847   */\n      tag_279\n      jump\t// in\n    tag_309:\n        /* \"#utility.yul\":8773:8847   */\n      swap2\n      pop\n        /* \"#utility.yul\":8856:8949   */\n      tag_310\n        /* \"#utility.yul\":8945:8948   */\n      dup3\n        /* \"#utility.yul\":8856:8949   */\n      tag_311\n      jump\t// in\n    tag_310:\n        /* \"#utility.yul\":8974:8976   */\n      0x40\n        /* \"#utility.yul\":8969:8972   */\n      dup3\n        /* \"#utility.yul\":8965:8977   */\n      add\n        /* \"#utility.yul\":8958:8977   */\n      swap1\n      pop\n        /* \"#utility.yul\":8617:8983   */\n      swap2\n      swap1\n      pop\n      jump\t// out\n        /* \"#utility.yul\":8989:9355   */\n    tag_312:\n        /* \"#utility.yul\":9131:9134   */\n      0x00\n        /* \"#utility.yul\":9152:9219   */\n      tag_314\n        /* \"#utility.yul\":9216:9218   */\n      0x4a\n        /* \"#utility.yul\":9211:9214   */\n      dup4\n        /* \"#utility.yul\":9152:9219   */\n      tag_279\n      jump\t// in\n    tag_314:\n        /* \"#utility.yul\":9145:9219   */\n      swap2\n      pop\n        /* \"#utility.yul\":9228:9321   */\n      tag_315\n        /* \"#utility.yul\":9317:9320   */\n      dup3\n        /* \"#utility.yul\":9228:9321   */\n      tag_316\n      jump\t// in\n    tag_315:\n        /* \"#utility.yul\":9346:9348   */\n      0x60\n        /* \"#utility.yul\":9341:9344   */\n      dup3\n        /* \"#utility.yul\":9337:9349   */\n      add\n        /* \"#utility.yul\":9330:9349   */\n      swap1\n      pop\n        /* \"#utility.yul\":8989:9355   */\n      swap2\n      swap1\n      pop\n      jump\t// out\n        /* \"#utility.yul\":9361:9727   */\n    tag_317:\n        /* \"#utility.yul\":9503:9506   */\n      0x00\n        /* \"#utility.yul\":9524:9591   */\n      tag_319\n        /* \"#utility.yul\":9588:9590   */\n      0x15\n        /* \"#utility.yul\":9583:9586   */\n      dup4\n        /* \"#utility.yul\":9524:9591   */\n      tag_279\n      jump\t// in\n    tag_319:\n        /* \"#utility.yul\":9517:9591   */\n      swap2\n      pop\n        /* \"#utility.yul\":9600:9693   */\n      tag_320\n        /* \"#utility.yul\":9689:9692   */\n      dup3\n        /* \"#utility.yul\":9600:9693   */\n      tag_321\n      jump\t// in\n    tag_320:\n        /* \"#utility.yul\":9718:9720   */\n      0x20\n        /* \"#utility.yul\":9713:9716   */\n      dup3\n        /* \"#utility.yul\":9709:9721   */\n      add\n        /* \"#utility.yul\":9702:9721   */\n      swap1\n      pop\n        /* \"#utility.yul\":9361:9727   */\n      swap2\n      swap1\n      pop\n      jump\t// out\n        /* \"#utility.yul\":9733:10099   */\n    tag_322:\n        /* \"#utility.yul\":9875:9878   */\n      0x00\n        /* \"#utility.yul\":9896:9963   */\n      tag_324\n        /* \"#utility.yul\":9960:9962   */\n      0x39\n        /* \"#utility.yul\":9955:9958   */\n      dup4\n        /* \"#utility.yul\":9896:9963   */\n      tag_279\n      jump\t// in\n    tag_324:\n        /* \"#utility.yul\":9889:9963   */\n      swap2\n      pop\n        /* \"#utility.yul\":9972:10065   */\n      tag_325\n        /* \"#utility.yul\":10061:10064   */\n      dup3\n        /* \"#utility.yul\":9972:10065   */\n      tag_326\n      jump\t// in\n    tag_325:\n        /* \"#utility.yul\":10090:10092   */\n      0x40\n        /* \"#utility.yul\":10085:10088   */\n      dup3\n        /* \"#utility.yul\":10081:10093   */\n      add\n        /* \"#utility.yul\":10074:10093   */\n      swap1\n      pop\n        /* \"#utility.yul\":9733:10099   */\n      swap2\n      swap1\n      pop\n      jump\t// out\n        /* \"#utility.yul\":10105:10471   */\n    tag_327:\n        /* \"#utility.yul\":10247:10250   */\n      0x00\n        /* \"#utility.yul\":10268:10335   */\n      tag_329\n        /* \"#utility.yul\":10332:10334   */\n      0x20\n        /* \"#utility.yul\":10327:10330   */\n      dup4\n        /* \"#utility.yul\":10268:10335   */\n      tag_279\n      jump\t// in\n    tag_329:\n        /* \"#utility.yul\":10261:10335   */\n      swap2\n      pop\n        /* \"#utility.yul\":10344:10437   */\n      tag_330\n        /* \"#utility.yul\":10433:10436   */\n      dup3\n        /* \"#utility.yul\":10344:10437   */\n      tag_331\n      jump\t// in\n    tag_330:\n        /* \"#utility.yul\":10462:10464   */\n      0x20\n        /* \"#utility.yul\":10457:10460   */\n      dup3\n        /* \"#utility.yul\":10453:10465   */\n      add\n        /* \"#utility.yul\":10446:10465   */\n      swap1\n      pop\n        /* \"#utility.yul\":10105:10471   */\n      swap2\n      swap1\n      pop\n      jump\t// out\n        /* \"#utility.yul\":10477:10595   */\n    tag_332:\n        /* \"#utility.yul\":10564:10588   */\n      tag_334\n        /* \"#utility.yul\":10582:10587   */\n      dup2\n        /* \"#utility.yul\":10564:10588   */\n      tag_335\n      jump\t// in\n    tag_334:\n        /* \"#utility.yul\":10559:10562   */\n      dup3\n        /* \"#utility.yul\":10552:10589   */\n      mstore\n        /* \"#utility.yul\":10477:10595   */\n      pop\n      pop\n      jump\t// out\n        /* \"#utility.yul\":10601:10713   */\n    tag_336:\n        /* \"#utility.yul\":10684:10706   */\n      tag_338\n        /* \"#utility.yul\":10700:10705   */\n      dup2\n        /* \"#utility.yul\":10684:10706   */\n      tag_339\n      jump\t// in\n    tag_338:\n        /* \"#utility.yul\":10679:10682   */\n      dup3\n        /* \"#utility.yul\":10672:10707   */\n      mstore\n        /* \"#utility.yul\":10601:10713   */\n      pop\n      pop\n      jump\t// out\n        /* \"#utility.yul\":10719:10973   */\n    tag_42:\n        /* \"#utility.yul\":10828:10832   */\n      0x00\n        /* \"#utility.yul\":10866:10868   */\n      0x20\n        /* \"#utility.yul\":10855:10864   */\n      dup3\n        /* \"#utility.yul\":10851:10869   */\n      add\n        /* \"#utility.yul\":10843:10869   */\n      swap1\n      pop\n        /* \"#utility.yul\":10879:10966   */\n      tag_341\n        /* \"#utility.yul\":10963:10964   */\n      0x00\n        /* \"#utility.yul\":10952:10961   */\n      dup4\n        /* \"#utility.yul\":10948:10965   */\n      add\n        /* \"#utility.yul\":10939:10945   */\n      dup5\n        /* \"#utility.yul\":10879:10966   */\n      tag_272\n      jump\t// in\n    tag_341:\n        /* \"#utility.yul\":10719:10973   */\n      swap3\n      swap2\n      pop\n      pop\n      jump\t// out\n        /* \"#utility.yul\":10979:11398   */\n    tag_122:\n        /* \"#utility.yul\":11145:11149   */\n      0x00\n        /* \"#utility.yul\":11183:11185   */\n      0x20\n        /* \"#utility.yul\":11172:11181   */\n      dup3\n        /* \"#utility.yul\":11168:11186   */\n      add\n        /* \"#utility.yul\":11160:11186   */\n      swap1\n      pop\n        /* \"#utility.yul\":11232:11241   */\n      dup2\n        /* \"#utility.yul\":11226:11230   */\n      dup2\n        /* \"#utility.yul\":11222:11242   */\n      sub\n        /* \"#utility.yul\":11218:11219   */\n      0x00\n        /* \"#utility.yul\":11207:11216   */\n      dup4\n        /* \"#utility.yul\":11203:11220   */\n      add\n        /* \"#utility.yul\":11196:11243   */\n      mstore\n        /* \"#utility.yul\":11260:11391   */\n      tag_343\n        /* \"#utility.yul\":11386:11390   */\n      dup2\n        /* \"#utility.yul\":11260:11391   */\n      tag_276\n      jump\t// in\n    tag_343:\n        /* \"#utility.yul\":11252:11391   */\n      swap1\n      pop\n        /* \"#utility.yul\":10979:11398   */\n      swap2\n      swap1\n      pop\n      jump\t// out\n        /* \"#utility.yul\":11404:11823   */\n    tag_118:\n        /* \"#utility.yul\":11570:11574   */\n      0x00\n        /* \"#utility.yul\":11608:11610   */\n      0x20\n        /* \"#utility.yul\":11597:11606   */\n      dup3\n        /* \"#utility.yul\":11593:11611   */\n      add\n        /* \"#utility.yul\":11585:11611   */\n      swap1\n      pop\n        /* \"#utility.yul\":11657:11666   */\n      dup2\n        /* \"#utility.yul\":11651:11655   */\n      dup2\n        /* \"#utility.yul\":11647:11667   */\n      sub\n        /* \"#utility.yul\":11643:11644   */\n      0x00\n        /* \"#utility.yul\":11632:11641   */\n      dup4\n        /* \"#utility.yul\":11628:11645   */\n      add\n        /* \"#utility.yul\":11621:11668   */\n      mstore\n        /* \"#utility.yul\":11685:11816   */\n      tag_345\n        /* \"#utility.yul\":11811:11815   */\n      dup2\n        /* \"#utility.yul\":11685:11816   */\n      tag_282\n      jump\t// in\n    tag_345:\n        /* \"#utility.yul\":11677:11816   */\n      swap1\n      pop\n        /* \"#utility.yul\":11404:11823   */\n      swap2\n      swap1\n      pop\n      jump\t// out\n        /* \"#utility.yul\":11829:12248   */\n    tag_67:\n        /* \"#utility.yul\":11995:11999   */\n      0x00\n        /* \"#utility.yul\":12033:12035   */\n      0x20\n        /* \"#utility.yul\":12022:12031   */\n      dup3\n        /* \"#utility.yul\":12018:12036   */\n      add\n        /* \"#utility.yul\":12010:12036   */\n      swap1\n      pop\n        /* \"#utility.yul\":12082:12091   */\n      dup2\n        /* \"#utility.yul\":12076:12080   */\n      dup2\n        /* \"#utility.yul\":12072:12092   */\n      sub\n        /* \"#utility.yul\":12068:12069   */\n      0x00\n        /* \"#utility.yul\":12057:12066   */\n      dup4\n        /* \"#utility.yul\":12053:12070   */\n      add\n        /* \"#utility.yul\":12046:12093   */\n      mstore\n        /* \"#utility.yul\":12110:12241   */\n      tag_347\n        /* \"#utility.yul\":12236:12240   */\n      dup2\n        /* \"#utility.yul\":12110:12241   */\n      tag_287\n      jump\t// in\n    tag_347:\n        /* \"#utility.yul\":12102:12241   */\n      swap1\n      pop\n        /* \"#utility.yul\":11829:12248   */\n      swap2\n      swap1\n      pop\n      jump\t// out\n        /* \"#utility.yul\":12254:12673   */\n    tag_58:\n        /* \"#utility.yul\":12420:12424   */\n      0x00\n        /* \"#utility.yul\":12458:12460   */\n      0x20\n        /* \"#utility.yul\":12447:12456   */\n      dup3\n        /* \"#utility.yul\":12443:12461   */\n      add\n        /* \"#utility.yul\":12435:12461   */\n      swap1\n      pop\n        /* \"#utility.yul\":12507:12516   */\n      dup2\n        /* \"#utility.yul\":12501:12505   */\n      dup2\n        /* \"#utility.yul\":12497:12517   */\n      sub\n        /* \"#utility.yul\":12493:12494   */\n      0x00\n        /* \"#utility.yul\":12482:12491   */\n      dup4\n        /* \"#utility.yul\":12478:12495   */\n      add\n        /* \"#utility.yul\":12471:12518   */\n      mstore\n        /* \"#utility.yul\":12535:12666   */\n      tag_349\n        /* \"#utility.yul\":12661:12665   */\n      dup2\n        /* \"#utility.yul\":12535:12666   */\n      tag_292\n      jump\t// in\n    tag_349:\n        /* \"#utility.yul\":12527:12666   */\n      swap1\n      pop\n        /* \"#utility.yul\":12254:12673   */\n      swap2\n      swap1\n      pop\n      jump\t// out\n        /* \"#utility.yul\":12679:13098   */\n    tag_109:\n        /* \"#utility.yul\":12845:12849   */\n      0x00\n        /* \"#utility.yul\":12883:12885   */\n      0x20\n        /* \"#utility.yul\":12872:12881   */\n      dup3\n        /* \"#utility.yul\":12868:12886   */\n      add\n        /* \"#utility.yul\":12860:12886   */\n      swap1\n      pop\n        /* \"#utility.yul\":12932:12941   */\n      dup2\n        /* \"#utility.yul\":12926:12930   */\n      dup2\n        /* \"#utility.yul\":12922:12942   */\n      sub\n        /* \"#utility.yul\":12918:12919   */\n      0x00\n        /* \"#utility.yul\":12907:12916   */\n      dup4\n        /* \"#utility.yul\":12903:12920   */\n      add\n        /* \"#utility.yul\":12896:12943   */\n      mstore\n        /* \"#utility.yul\":12960:13091   */\n      tag_351\n        /* \"#utility.yul\":13086:13090   */\n      dup2\n        /* \"#utility.yul\":12960:13091   */\n      tag_297\n      jump\t// in\n    tag_351:\n        /* \"#utility.yul\":12952:13091   */\n      swap1\n      pop\n        /* \"#utility.yul\":12679:13098   */\n      swap2\n      swap1\n      pop\n      jump\t// out\n        /* \"#utility.yul\":13104:13523   */\n    tag_166:\n        /* \"#utility.yul\":13270:13274   */\n      0x00\n        /* \"#utility.yul\":13308:13310   */\n      0x20\n        /* \"#utility.yul\":13297:13306   */\n      dup3\n        /* \"#utility.yul\":13293:13311   */\n      add\n        /* \"#utility.yul\":13285:13311   */\n      swap1\n      pop\n        /* \"#utility.yul\":13357:13366   */\n      dup2\n        /* \"#utility.yul\":13351:13355   */\n      dup2\n        /* \"#utility.yul\":13347:13367   */\n      sub\n        /* \"#utility.yul\":13343:13344   */\n      0x00\n        /* \"#utility.yul\":13332:13341   */\n      dup4\n        /* \"#utility.yul\":13328:13345   */\n      add\n        /* \"#utility.yul\":13321:13368   */\n      mstore\n        /* \"#utility.yul\":13385:13516   */\n      tag_353\n        /* \"#utility.yul\":13511:13515   */\n      dup2\n        /* \"#utility.yul\":13385:13516   */\n      tag_302\n      jump\t// in\n    tag_353:\n        /* \"#utility.yul\":13377:13516   */\n      swap1\n      pop\n        /* \"#utility.yul\":13104:13523   */\n      swap2\n      swap1\n      pop\n      jump\t// out\n        /* \"#utility.yul\":13529:13948   */\n    tag_81:\n        /* \"#utility.yul\":13695:13699   */\n      0x00\n        /* \"#utility.yul\":13733:13735   */\n      0x20\n        /* \"#utility.yul\":13722:13731   */\n      dup3\n        /* \"#utility.yul\":13718:13736   */\n      add\n        /* \"#utility.yul\":13710:13736   */\n      swap1\n      pop\n        /* \"#utility.yul\":13782:13791   */\n      dup2\n        /* \"#utility.yul\":13776:13780   */\n      dup2\n        /* \"#utility.yul\":13772:13792   */\n      sub\n        /* \"#utility.yul\":13768:13769   */\n      0x00\n        /* \"#utility.yul\":13757:13766   */\n      dup4\n        /* \"#utility.yul\":13753:13770   */\n      add\n        /* \"#utility.yul\":13746:13793   */\n      mstore\n        /* \"#utility.yul\":13810:13941   */\n      tag_355\n        /* \"#utility.yul\":13936:13940   */\n      dup2\n        /* \"#utility.yul\":13810:13941   */\n      tag_307\n      jump\t// in\n    tag_355:\n        /* \"#utility.yul\":13802:13941   */\n      swap1\n      pop\n        /* \"#utility.yul\":13529:13948   */\n      swap2\n      swap1\n      pop\n      jump\t// out\n        /* \"#utility.yul\":13954:14373   */\n    tag_74:\n        /* \"#utility.yul\":14120:14124   */\n      0x00\n        /* \"#utility.yul\":14158:14160   */\n      0x20\n        /* \"#utility.yul\":14147:14156   */\n      dup3\n        /* \"#utility.yul\":14143:14161   */\n      add\n        /* \"#utility.yul\":14135:14161   */\n      swap1\n      pop\n        /* \"#utility.yul\":14207:14216   */\n      dup2\n        /* \"#utility.yul\":14201:14205   */\n      dup2\n        /* \"#utility.yul\":14197:14217   */\n      sub\n        /* \"#utility.yul\":14193:14194   */\n      0x00\n        /* \"#utility.yul\":14182:14191   */\n      dup4\n        /* \"#utility.yul\":14178:14195   */\n      add\n        /* \"#utility.yul\":14171:14218   */\n      mstore\n        /* \"#utility.yul\":14235:14366   */\n      tag_357\n        /* \"#utility.yul\":14361:14365   */\n      dup2\n        /* \"#utility.yul\":14235:14366   */\n      tag_312\n      jump\t// in\n    tag_357:\n        /* \"#utility.yul\":14227:14366   */\n      swap1\n      pop\n        /* \"#utility.yul\":13954:14373   */\n      swap2\n      swap1\n      pop\n      jump\t// out\n        /* \"#utility.yul\":14379:14798   */\n    tag_148:\n        /* \"#utility.yul\":14545:14549   */\n      0x00\n        /* \"#utility.yul\":14583:14585   */\n      0x20\n        /* \"#utility.yul\":14572:14581   */\n      dup3\n        /* \"#utility.yul\":14568:14586   */\n      add\n        /* \"#utility.yul\":14560:14586   */\n      swap1\n      pop\n        /* \"#utility.yul\":14632:14641   */\n      dup2\n        /* \"#utility.yul\":14626:14630   */\n      dup2\n        /* \"#utility.yul\":14622:14642   */\n      sub\n        /* \"#utility.yul\":14618:14619   */\n      0x00\n        /* \"#utility.yul\":14607:14616   */\n      dup4\n        /* \"#utility.yul\":14603:14620   */\n      add\n        /* \"#utility.yul\":14596:14643   */\n      mstore\n        /* \"#utility.yul\":14660:14791   */\n      tag_359\n        /* \"#utility.yul\":14786:14790   */\n      dup2\n        /* \"#utility.yul\":14660:14791   */\n      tag_317\n      jump\t// in\n    tag_359:\n        /* \"#utility.yul\":14652:14791   */\n      swap1\n      pop\n        /* \"#utility.yul\":14379:14798   */\n      swap2\n      swap1\n      pop\n      jump\t// out\n        /* \"#utility.yul\":14804:15223   */\n    tag_112:\n        /* \"#utility.yul\":14970:14974   */\n      0x00\n        /* \"#utility.yul\":15008:15010   */\n      0x20\n        /* \"#utility.yul\":14997:15006   */\n      dup3\n        /* \"#utility.yul\":14993:15011   */\n      add\n        /* \"#utility.yul\":14985:15011   */\n      swap1\n      pop\n        /* \"#utility.yul\":15057:15066   */\n      dup2\n        /* \"#utility.yul\":15051:15055   */\n      dup2\n        /* \"#utility.yul\":15047:15067   */\n      sub\n        /* \"#utility.yul\":15043:15044   */\n      0x00\n        /* \"#utility.yul\":15032:15041   */\n      dup4\n        /* \"#utility.yul\":15028:15045   */\n      add\n        /* \"#utility.yul\":15021:15068   */\n      mstore\n        /* \"#utility.yul\":15085:15216   */\n      tag_361\n        /* \"#utility.yul\":15211:15215   */\n      dup2\n        /* \"#utility.yul\":15085:15216   */\n      tag_322\n      jump\t// in\n    tag_361:\n        /* \"#utility.yul\":15077:15216   */\n      swap1\n      pop\n        /* \"#utility.yul\":14804:15223   */\n      swap2\n      swap1\n      pop\n      jump\t// out\n        /* \"#utility.yul\":15229:15648   */\n    tag_115:\n        /* \"#utility.yul\":15395:15399   */\n      0x00\n        /* \"#utility.yul\":15433:15435   */\n      0x20\n        /* \"#utility.yul\":15422:15431   */\n      dup3\n        /* \"#utility.yul\":15418:15436   */\n      add\n        /* \"#utility.yul\":15410:15436   */\n      swap1\n      pop\n        /* \"#utility.yul\":15482:15491   */\n      dup2\n        /* \"#utility.yul\":15476:15480   */\n      dup2\n        /* \"#utility.yul\":15472:15492   */\n      sub\n        /* \"#utility.yul\":15468:15469   */\n      0x00\n        /* \"#utility.yul\":15457:15466   */\n      dup4\n        /* \"#utility.yul\":15453:15470   */\n      add\n        /* \"#utility.yul\":15446:15493   */\n      mstore\n        /* \"#utility.yul\":15510:15641   */\n      tag_363\n        /* \"#utility.yul\":15636:15640   */\n      dup2\n        /* \"#utility.yul\":15510:15641   */\n      tag_327\n      jump\t// in\n    tag_363:\n        /* \"#utility.yul\":15502:15641   */\n      swap1\n      pop\n        /* \"#utility.yul\":15229:15648   */\n      swap2\n      swap1\n      pop\n      jump\t// out\n        /* \"#utility.yul\":15654:15876   */\n    tag_22:\n        /* \"#utility.yul\":15747:15751   */\n      0x00\n        /* \"#utility.yul\":15785:15787   */\n      0x20\n        /* \"#utility.yul\":15774:15783   */\n      dup3\n        /* \"#utility.yul\":15770:15788   */\n      add\n        /* \"#utility.yul\":15762:15788   */\n      swap1\n      pop\n        /* \"#utility.yul\":15798:15869   */\n      tag_365\n        /* \"#utility.yul\":15866:15867   */\n      0x00\n        /* \"#utility.yul\":15855:15864   */\n      dup4\n        /* \"#utility.yul\":15851:15868   */\n      add\n        /* \"#utility.yul\":15842:15848   */\n      dup5\n        /* \"#utility.yul\":15798:15869   */\n      tag_332\n      jump\t// in\n    tag_365:\n        /* \"#utility.yul\":15654:15876   */\n      swap3\n      swap2\n      pop\n      pop\n      jump\t// out\n        /* \"#utility.yul\":15882:16689   */\n    tag_172:\n        /* \"#utility.yul\":16131:16135   */\n      0x00\n        /* \"#utility.yul\":16169:16172   */\n      0xc0\n        /* \"#utility.yul\":16158:16167   */\n      dup3\n        /* \"#utility.yul\":16154:16173   */\n      add\n        /* \"#utility.yul\":16146:16173   */\n      swap1\n      pop\n        /* \"#utility.yul\":16183:16254   */\n      tag_367\n        /* \"#utility.yul\":16251:16252   */\n      0x00\n        /* \"#utility.yul\":16240:16249   */\n      dup4\n        /* \"#utility.yul\":16236:16253   */\n      add\n        /* \"#utility.yul\":16227:16233   */\n      dup10\n        /* \"#utility.yul\":16183:16254   */\n      tag_332\n      jump\t// in\n    tag_367:\n        /* \"#utility.yul\":16264:16336   */\n      tag_368\n        /* \"#utility.yul\":16332:16334   */\n      0x20\n        /* \"#utility.yul\":16321:16330   */\n      dup4\n        /* \"#utility.yul\":16317:16335   */\n      add\n        /* \"#utility.yul\":16308:16314   */\n      dup9\n        /* \"#utility.yul\":16264:16336   */\n      tag_332\n      jump\t// in\n    tag_368:\n        /* \"#utility.yul\":16346:16418   */\n      tag_369\n        /* \"#utility.yul\":16414:16416   */\n      0x40\n        /* \"#utility.yul\":16403:16412   */\n      dup4\n        /* \"#utility.yul\":16399:16417   */\n      add\n        /* \"#utility.yul\":16390:16396   */\n      dup8\n        /* \"#utility.yul\":16346:16418   */\n      tag_332\n      jump\t// in\n    tag_369:\n        /* \"#utility.yul\":16428:16508   */\n      tag_370\n        /* \"#utility.yul\":16504:16506   */\n      0x60\n        /* \"#utility.yul\":16493:16502   */\n      dup4\n        /* \"#utility.yul\":16489:16507   */\n      add\n        /* \"#utility.yul\":16480:16486   */\n      dup7\n        /* \"#utility.yul\":16428:16508   */\n      tag_264\n      jump\t// in\n    tag_370:\n        /* \"#utility.yul\":16518:16599   */\n      tag_371\n        /* \"#utility.yul\":16594:16597   */\n      0x80\n        /* \"#utility.yul\":16583:16592   */\n      dup4\n        /* \"#utility.yul\":16579:16598   */\n      add\n        /* \"#utility.yul\":16570:16576   */\n      dup6\n        /* \"#utility.yul\":16518:16599   */\n      tag_264\n      jump\t// in\n    tag_371:\n        /* \"#utility.yul\":16609:16682   */\n      tag_372\n        /* \"#utility.yul\":16677:16680   */\n      0xa0\n        /* \"#utility.yul\":16666:16675   */\n      dup4\n        /* \"#utility.yul\":16662:16681   */\n      add\n        /* \"#utility.yul\":16653:16659   */\n      dup5\n        /* \"#utility.yul\":16609:16682   */\n      tag_332\n      jump\t// in\n    tag_372:\n        /* \"#utility.yul\":15882:16689   */\n      swap8\n      swap7\n      pop\n      pop\n      pop\n      pop\n      pop\n      pop\n      pop\n      jump\t// out\n        /* \"#utility.yul\":16695:17351   */\n    tag_130:\n        /* \"#utility.yul\":16896:16900   */\n      0x00\n        /* \"#utility.yul\":16934:16937   */\n      0xa0\n        /* \"#utility.yul\":16923:16932   */\n      dup3\n        /* \"#utility.yul\":16919:16938   */\n      add\n        /* \"#utility.yul\":16911:16938   */\n      swap1\n      pop\n        /* \"#utility.yul\":16948:17019   */\n      tag_374\n        /* \"#utility.yul\":17016:17017   */\n      0x00\n        /* \"#utility.yul\":17005:17014   */\n      dup4\n        /* \"#utility.yul\":17001:17018   */\n      add\n        /* \"#utility.yul\":16992:16998   */\n      dup9\n        /* \"#utility.yul\":16948:17019   */\n      tag_332\n      jump\t// in\n    tag_374:\n        /* \"#utility.yul\":17029:17101   */\n      tag_375\n        /* \"#utility.yul\":17097:17099   */\n      0x20\n        /* \"#utility.yul\":17086:17095   */\n      dup4\n        /* \"#utility.yul\":17082:17100   */\n      add\n        /* \"#utility.yul\":17073:17079   */\n      dup8\n        /* \"#utility.yul\":17029:17101   */\n      tag_332\n      jump\t// in\n    tag_375:\n        /* \"#utility.yul\":17111:17183   */\n      tag_376\n        /* \"#utility.yul\":17179:17181   */\n      0x40\n        /* \"#utility.yul\":17168:17177   */\n      dup4\n        /* \"#utility.yul\":17164:17182   */\n      add\n        /* \"#utility.yul\":17155:17161   */\n      dup7\n        /* \"#utility.yul\":17111:17183   */\n      tag_332\n      jump\t// in\n    tag_376:\n        /* \"#utility.yul\":17193:17265   */\n      tag_377\n        /* \"#utility.yul\":17261:17263   */\n      0x60\n        /* \"#utility.yul\":17250:17259   */\n      dup4\n        /* \"#utility.yul\":17246:17264   */\n      add\n        /* \"#utility.yul\":17237:17243   */\n      dup6\n        /* \"#utility.yul\":17193:17265   */\n      tag_268\n      jump\t// in\n    tag_377:\n        /* \"#utility.yul\":17275:17344   */\n      tag_378\n        /* \"#utility.yul\":17339:17342   */\n      0x80\n        /* \"#utility.yul\":17328:17337   */\n      dup4\n        /* \"#utility.yul\":17324:17343   */\n      add\n        /* \"#utility.yul\":17315:17321   */\n      dup5\n        /* \"#utility.yul\":17275:17344   */\n      tag_336\n      jump\t// in\n    tag_378:\n        /* \"#utility.yul\":16695:17351   */\n      swap7\n      swap6\n      pop\n      pop\n      pop\n      pop\n      pop\n      pop\n      jump\t// out\n        /* \"#utility.yul\":17357:17902   */\n    tag_136:\n        /* \"#utility.yul\":17530:17534   */\n      0x00\n        /* \"#utility.yul\":17568:17571   */\n      0x80\n        /* \"#utility.yul\":17557:17566   */\n      dup3\n        /* \"#utility.yul\":17553:17572   */\n      add\n        /* \"#utility.yul\":17545:17572   */\n      swap1\n      pop\n        /* \"#utility.yul\":17582:17653   */\n      tag_380\n        /* \"#utility.yul\":17650:17651   */\n      0x00\n        /* \"#utility.yul\":17639:17648   */\n      dup4\n        /* \"#utility.yul\":17635:17652   */\n      add\n        /* \"#utility.yul\":17626:17632   */\n      dup8\n        /* \"#utility.yul\":17582:17653   */\n      tag_332\n      jump\t// in\n    tag_380:\n        /* \"#utility.yul\":17663:17735   */\n      tag_381\n        /* \"#utility.yul\":17731:17733   */\n      0x20\n        /* \"#utility.yul\":17720:17729   */\n      dup4\n        /* \"#utility.yul\":17716:17734   */\n      add\n        /* \"#utility.yul\":17707:17713   */\n      dup7\n        /* \"#utility.yul\":17663:17735   */\n      tag_332\n      jump\t// in\n    tag_381:\n        /* \"#utility.yul\":17745:17817   */\n      tag_382\n        /* \"#utility.yul\":17813:17815   */\n      0x40\n        /* \"#utility.yul\":17802:17811   */\n      dup4\n        /* \"#utility.yul\":17798:17816   */\n      add\n        /* \"#utility.yul\":17789:17795   */\n      dup6\n        /* \"#utility.yul\":17745:17817   */\n      tag_332\n      jump\t// in\n    tag_382:\n        /* \"#utility.yul\":17827:17895   */\n      tag_383\n        /* \"#utility.yul\":17891:17893   */\n      0x60\n        /* \"#utility.yul\":17880:17889   */\n      dup4\n        /* \"#utility.yul\":17876:17894   */\n      add\n        /* \"#utility.yul\":17867:17873   */\n      dup5\n        /* \"#utility.yul\":17827:17895   */\n      tag_336\n      jump\t// in\n    tag_383:\n        /* \"#utility.yul\":17357:17902   */\n      swap6\n      swap5\n      pop\n      pop\n      pop\n      pop\n      pop\n      jump\t// out\n        /* \"#utility.yul\":17908:18037   */\n    tag_193:\n        /* \"#utility.yul\":17942:17948   */\n      0x00\n        /* \"#utility.yul\":17969:17989   */\n      tag_385\n      tag_386\n      jump\t// in\n    tag_385:\n        /* \"#utility.yul\":17959:17989   */\n      swap1\n      pop\n        /* \"#utility.yul\":17998:18031   */\n      tag_387\n        /* \"#utility.yul\":18026:18030   */\n      dup3\n        /* \"#utility.yul\":18018:18024   */\n      dup3\n        /* \"#utility.yul\":17998:18031   */\n      tag_388\n      jump\t// in\n    tag_387:\n        /* \"#utility.yul\":17908:18037   */\n      swap2\n      swap1\n      pop\n      jump\t// out\n        /* \"#utility.yul\":18043:18118   */\n    tag_386:\n        /* \"#utility.yul\":18076:18082   */\n      0x00\n        /* \"#utility.yul\":18109:18111   */\n      0x40\n        /* \"#utility.yul\":18103:18112   */\n      mload\n        /* \"#utility.yul\":18093:18112   */\n      swap1\n      pop\n        /* \"#utility.yul\":18043:18118   */\n      swap1\n      jump\t// out\n        /* \"#utility.yul\":18124:18432   */\n    tag_192:\n        /* \"#utility.yul\":18186:18190   */\n      0x00\n        /* \"#utility.yul\":18276:18294   */\n      0xffffffffffffffff\n        /* \"#utility.yul\":18268:18274   */\n      dup3\n        /* \"#utility.yul\":18265:18295   */\n      gt\n        /* \"#utility.yul\":18262:18318   */\n      iszero\n      tag_391\n      jumpi\n        /* \"#utility.yul\":18298:18316   */\n      tag_392\n      tag_393\n      jump\t// in\n    tag_392:\n        /* \"#utility.yul\":18262:18318   */\n    tag_391:\n        /* \"#utility.yul\":18336:18365   */\n      tag_394\n        /* \"#utility.yul\":18358:18364   */\n      dup3\n        /* \"#utility.yul\":18336:18365   */\n      tag_395\n      jump\t// in\n    tag_394:\n        /* \"#utility.yul\":18328:18365   */\n      swap1\n      pop\n        /* \"#utility.yul\":18420:18424   */\n      0x20\n        /* \"#utility.yul\":18414:18418   */\n      dup2\n        /* \"#utility.yul\":18410:18425   */\n      add\n        /* \"#utility.yul\":18402:18425   */\n      swap1\n      pop\n        /* \"#utility.yul\":18124:18432   */\n      swap2\n      swap1\n      pop\n      jump\t// out\n        /* \"#utility.yul\":18438:18607   */\n    tag_279:\n        /* \"#utility.yul\":18522:18533   */\n      0x00\n        /* \"#utility.yul\":18556:18562   */\n      dup3\n        /* \"#utility.yul\":18551:18554   */\n      dup3\n        /* \"#utility.yul\":18544:18563   */\n      mstore\n        /* \"#utility.yul\":18596:18600   */\n      0x20\n        /* \"#utility.yul\":18591:18594   */\n      dup3\n        /* \"#utility.yul\":18587:18601   */\n      add\n        /* \"#utility.yul\":18572:18601   */\n      swap1\n      pop\n        /* \"#utility.yul\":18438:18607   */\n      swap3\n      swap2\n      pop\n      pop\n      jump\t// out\n        /* \"#utility.yul\":18613:18709   */\n    tag_271:\n        /* \"#utility.yul\":18650:18657   */\n      0x00\n        /* \"#utility.yul\":18679:18703   */\n      tag_398\n        /* \"#utility.yul\":18697:18702   */\n      dup3\n        /* \"#utility.yul\":18679:18703   */\n      tag_399\n      jump\t// in\n    tag_398:\n        /* \"#utility.yul\":18668:18703   */\n      swap1\n      pop\n        /* \"#utility.yul\":18613:18709   */\n      swap2\n      swap1\n      pop\n      jump\t// out\n        /* \"#utility.yul\":18715:18819   */\n    tag_400:\n        /* \"#utility.yul\":18760:18767   */\n      0x00\n        /* \"#utility.yul\":18789:18813   */\n      tag_402\n        /* \"#utility.yul\":18807:18812   */\n      dup3\n        /* \"#utility.yul\":18789:18813   */\n      tag_399\n      jump\t// in\n    tag_402:\n        /* \"#utility.yul\":18778:18813   */\n      swap1\n      pop\n        /* \"#utility.yul\":18715:18819   */\n      swap2\n      swap1\n      pop\n      jump\t// out\n        /* \"#utility.yul\":18825:18972   */\n    tag_403:\n        /* \"#utility.yul\":18880:18887   */\n      0x00\n        /* \"#utility.yul\":18909:18914   */\n      dup2\n        /* \"#utility.yul\":18898:18914   */\n      swap1\n      pop\n        /* \"#utility.yul\":18915:18966   */\n      tag_405\n        /* \"#utility.yul\":18960:18965   */\n      dup3\n        /* \"#utility.yul\":18915:18966   */\n      tag_406\n      jump\t// in\n    tag_405:\n        /* \"#utility.yul\":18825:18972   */\n      swap2\n      swap1\n      pop\n      jump\t// out\n        /* \"#utility.yul\":18978:19104   */\n    tag_399:\n        /* \"#utility.yul\":19015:19022   */\n      0x00\n        /* \"#utility.yul\":19055:19097   */\n      0xffffffffffffffffffffffffffffffffffffffff\n        /* \"#utility.yul\":19048:19053   */\n      dup3\n        /* \"#utility.yul\":19044:19098   */\n      and\n        /* \"#utility.yul\":19033:19098   */\n      swap1\n      pop\n        /* \"#utility.yul\":18978:19104   */\n      swap2\n      swap1\n      pop\n      jump\t// out\n        /* \"#utility.yul\":19110:19187   */\n    tag_335:\n        /* \"#utility.yul\":19147:19154   */\n      0x00\n        /* \"#utility.yul\":19176:19181   */\n      dup2\n        /* \"#utility.yul\":19165:19181   */\n      swap1\n      pop\n        /* \"#utility.yul\":19110:19187   */\n      swap2\n      swap1\n      pop\n      jump\t// out\n        /* \"#utility.yul\":19193:19279   */\n    tag_339:\n        /* \"#utility.yul\":19228:19235   */\n      0x00\n        /* \"#utility.yul\":19268:19272   */\n      0xff\n        /* \"#utility.yul\":19261:19266   */\n      dup3\n        /* \"#utility.yul\":19257:19273   */\n      and\n        /* \"#utility.yul\":19246:19273   */\n      swap1\n      pop\n        /* \"#utility.yul\":19193:19279   */\n      swap2\n      swap1\n      pop\n      jump\t// out\n        /* \"#utility.yul\":19285:19419   */\n    tag_267:\n        /* \"#utility.yul\":19343:19352   */\n      0x00\n        /* \"#utility.yul\":19376:19413   */\n      tag_411\n        /* \"#utility.yul\":19407:19412   */\n      dup3\n        /* \"#utility.yul\":19376:19413   */\n      tag_412\n      jump\t// in\n    tag_411:\n        /* \"#utility.yul\":19363:19413   */\n      swap1\n      pop\n        /* \"#utility.yul\":19285:19419   */\n      swap2\n      swap1\n      pop\n      jump\t// out\n        /* \"#utility.yul\":19425:19572   */\n    tag_275:\n        /* \"#utility.yul\":19491:19500   */\n      0x00\n        /* \"#utility.yul\":19524:19566   */\n      tag_414\n        /* \"#utility.yul\":19560:19565   */\n      dup3\n        /* \"#utility.yul\":19524:19566   */\n      tag_403\n      jump\t// in\n    tag_414:\n        /* \"#utility.yul\":19511:19566   */\n      swap1\n      pop\n        /* \"#utility.yul\":19425:19572   */\n      swap2\n      swap1\n      pop\n      jump\t// out\n        /* \"#utility.yul\":19578:19704   */\n    tag_412:\n        /* \"#utility.yul\":19628:19637   */\n      0x00\n        /* \"#utility.yul\":19661:19698   */\n      tag_416\n        /* \"#utility.yul\":19692:19697   */\n      dup3\n        /* \"#utility.yul\":19661:19698   */\n      tag_417\n      jump\t// in\n    tag_416:\n        /* \"#utility.yul\":19648:19698   */\n      swap1\n      pop\n        /* \"#utility.yul\":19578:19704   */\n      swap2\n      swap1\n      pop\n      jump\t// out\n        /* \"#utility.yul\":19710:19823   */\n    tag_417:\n        /* \"#utility.yul\":19760:19769   */\n      0x00\n        /* \"#utility.yul\":19793:19817   */\n      tag_419\n        /* \"#utility.yul\":19811:19816   */\n      dup3\n        /* \"#utility.yul\":19793:19817   */\n      tag_399\n      jump\t// in\n    tag_419:\n        /* \"#utility.yul\":19780:19817   */\n      swap1\n      pop\n        /* \"#utility.yul\":19710:19823   */\n      swap2\n      swap1\n      pop\n      jump\t// out\n        /* \"#utility.yul\":19829:19983   */\n    tag_198:\n        /* \"#utility.yul\":19913:19919   */\n      dup3\n        /* \"#utility.yul\":19908:19911   */\n      dup2\n        /* \"#utility.yul\":19903:19906   */\n      dup4\n        /* \"#utility.yul\":19890:19920   */\n      calldatacopy\n        /* \"#utility.yul\":19975:19976   */\n      0x00\n        /* \"#utility.yul\":19966:19972   */\n      dup4\n        /* \"#utility.yul\":19961:19964   */\n      dup4\n        /* \"#utility.yul\":19957:19973   */\n      add\n        /* \"#utility.yul\":19950:19977   */\n      mstore\n        /* \"#utility.yul\":19829:19983   */\n      pop\n      pop\n      pop\n      jump\t// out\n        /* \"#utility.yul\":19989:20309   */\n    tag_177:\n        /* \"#utility.yul\":20033:20039   */\n      0x00\n        /* \"#utility.yul\":20070:20071   */\n      0x02\n        /* \"#utility.yul\":20064:20068   */\n      dup3\n        /* \"#utility.yul\":20060:20072   */\n      div\n        /* \"#utility.yul\":20050:20072   */\n      swap1\n      pop\n        /* \"#utility.yul\":20117:20118   */\n      0x01\n        /* \"#utility.yul\":20111:20115   */\n      dup3\n        /* \"#utility.yul\":20107:20119   */\n      and\n        /* \"#utility.yul\":20138:20156   */\n      dup1\n        /* \"#utility.yul\":20128:20209   */\n      tag_422\n      jumpi\n        /* \"#utility.yul\":20194:20198   */\n      0x7f\n        /* \"#utility.yul\":20186:20192   */\n      dup3\n        /* \"#utility.yul\":20182:20199   */\n      and\n        /* \"#utility.yul\":20172:20199   */\n      swap2\n      pop\n        /* \"#utility.yul\":20128:20209   */\n    tag_422:\n        /* \"#utility.yul\":20256:20258   */\n      0x20\n        /* \"#utility.yul\":20248:20254   */\n      dup3\n        /* \"#utility.yul\":20245:20259   */\n      lt\n        /* \"#utility.yul\":20225:20243   */\n      dup2\n        /* \"#utility.yul\":20222:20260   */\n      eq\n        /* \"#utility.yul\":20219:20303   */\n      iszero\n      tag_423\n      jumpi\n        /* \"#utility.yul\":20275:20293   */\n      tag_424\n      tag_425\n      jump\t// in\n    tag_424:\n        /* \"#utility.yul\":20219:20303   */\n    tag_423:\n        /* \"#utility.yul\":20040:20309   */\n      pop\n        /* \"#utility.yul\":19989:20309   */\n      swap2\n      swap1\n      pop\n      jump\t// out\n        /* \"#utility.yul\":20315:20596   */\n    tag_388:\n        /* \"#utility.yul\":20398:20425   */\n      tag_427\n        /* \"#utility.yul\":20420:20424   */\n      dup3\n        /* \"#utility.yul\":20398:20425   */\n      tag_395\n      jump\t// in\n    tag_427:\n        /* \"#utility.yul\":20390:20396   */\n      dup2\n        /* \"#utility.yul\":20386:20426   */\n      add\n        /* \"#utility.yul\":20528:20534   */\n      dup2\n        /* \"#utility.yul\":20516:20526   */\n      dup2\n        /* \"#utility.yul\":20513:20535   */\n      lt\n        /* \"#utility.yul\":20492:20510   */\n      0xffffffffffffffff\n        /* \"#utility.yul\":20480:20490   */\n      dup3\n        /* \"#utility.yul\":20477:20511   */\n      gt\n        /* \"#utility.yul\":20474:20536   */\n      or\n        /* \"#utility.yul\":20471:20559   */\n      iszero\n      tag_428\n      jumpi\n        /* \"#utility.yul\":20539:20557   */\n      tag_429\n      tag_393\n      jump\t// in\n    tag_429:\n        /* \"#utility.yul\":20471:20559   */\n    tag_428:\n        /* \"#utility.yul\":20579:20589   */\n      dup1\n        /* \"#utility.yul\":20575:20577   */\n      0x40\n        /* \"#utility.yul\":20568:20590   */\n      mstore\n        /* \"#utility.yul\":20358:20596   */\n      pop\n        /* \"#utility.yul\":20315:20596   */\n      pop\n      pop\n      jump\t// out\n        /* \"#utility.yul\":20602:20835   */\n    tag_125:\n        /* \"#utility.yul\":20641:20644   */\n      0x00\n        /* \"#utility.yul\":20664:20688   */\n      tag_431\n        /* \"#utility.yul\":20682:20687   */\n      dup3\n        /* \"#utility.yul\":20664:20688   */\n      tag_335\n      jump\t// in\n    tag_431:\n        /* \"#utility.yul\":20655:20688   */\n      swap2\n      pop\n        /* \"#utility.yul\":20710:20776   */\n      0xffffffffffffffffffffffffffffffffffffffffffffffffffffffffffffffff\n        /* \"#utility.yul\":20703:20708   */\n      dup3\n        /* \"#utility.yul\":20700:20777   */\n      eq\n        /* \"#utility.yul\":20697:20800   */\n      iszero\n      tag_432\n      jumpi\n        /* \"#utility.yul\":20780:20798   */\n      tag_433\n      tag_434\n      jump\t// in\n    tag_433:\n        /* \"#utility.yul\":20697:20800   */\n    tag_432:\n        /* \"#utility.yul\":20827:20828   */\n      0x01\n        /* \"#utility.yul\":20820:20825   */\n      dup3\n        /* \"#utility.yul\":20816:20829   */\n      add\n        /* \"#utility.yul\":20809:20829   */\n      swap1\n      pop\n        /* \"#utility.yul\":20602:20835   */\n      swap2\n      swap1\n      pop\n      jump\t// out\n        /* \"#utility.yul\":20841:21021   */\n    tag_434:\n        /* \"#utility.yul\":20889:20966   */\n      0x4e487b7100000000000000000000000000000000000000000000000000000000\n        /* \"#utility.yul\":20886:20887   */\n      0x00\n        /* \"#utility.yul\":20879:20967   */\n      mstore\n        /* \"#utility.yul\":20986:20990   */\n      0x11\n        /* \"#utility.yul\":20983:20984   */\n      0x04\n        /* \"#utility.yul\":20976:20991   */\n      mstore\n        /* \"#utility.yul\":21010:21014   */\n      0x24\n        /* \"#utility.yul\":21007:21008   */\n      0x00\n        /* \"#utility.yul\":21000:21015   */\n      revert\n        /* \"#utility.yul\":21027:21207   */\n    tag_62:\n        /* \"#utility.yul\":21075:21152   */\n      0x4e487b7100000000000000000000000000000000000000000000000000000000\n        /* \"#utility.yul\":21072:21073   */\n      0x00\n        /* \"#utility.yul\":21065:21153   */\n      mstore\n        /* \"#utility.yul\":21172:21176   */\n      0x21\n        /* \"#utility.yul\":21169:21170   */\n      0x04\n        /* \"#utility.yul\":21162:21177   */\n      mstore\n        /* \"#utility.yul\":21196:21200   */\n      0x24\n        /* \"#utility.yul\":21193:21194   */\n      0x00\n        /* \"#utility.yul\":21186:21201   */\n      revert\n        /* \"#utility.yul\":21213:21393   */\n    tag_425:\n        /* \"#utility.yul\":21261:21338   */\n      0x4e487b7100000000000000000000000000000000000000000000000000000000\n        /* \"#utility.yul\":21258:21259   */\n      0x00\n        /* \"#utility.yul\":21251:21339   */\n      mstore\n        /* \"#utility.yul\":21358:21362   */\n      0x22\n        /* \"#utility.yul\":21355:21356   */\n      0x04\n        /* \"#utility.yul\":21348:21363   */\n      mstore\n        /* \"#utility.yul\":21382:21386   */\n      0x24\n        /* \"#utility.yul\":21379:21380   */\n      0x00\n        /* \"#utility.yul\":21372:21387   */\n      revert\n        /* \"#utility.yul\":21399:21579   */\n    tag_393:\n        /* \"#utility.yul\":21447:21524   */\n      0x4e487b7100000000000000000000000000000000000000000000000000000000\n        /* \"#utility.yul\":21444:21445   */\n      0x00\n        /* \"#utility.yul\":21437:21525   */\n      mstore\n        /* \"#utility.yul\":21544:21548   */\n      0x41\n        /* \"#utility.yul\":21541:21542   */\n      0x04\n        /* \"#utility.yul\":21534:21549   */\n      mstore\n        /* \"#utility.yul\":21568:21572   */\n      0x24\n        /* \"#utility.yul\":21565:21566   */\n      0x00\n        /* \"#utility.yul\":21558:21573   */\n      revert\n        /* \"#utility.yul\":21585:21702   */\n    tag_211:\n        /* \"#utility.yul\":21694:21695   */\n      0x00\n        /* \"#utility.yul\":21691:21692   */\n      dup1\n        /* \"#utility.yul\":21684:21696   */\n      revert\n        /* \"#utility.yul\":21708:21825   */\n    tag_196:\n        /* \"#utility.yul\":21817:21818   */\n      0x00\n        /* \"#utility.yul\":21814:21815   */\n      dup1\n        /* \"#utility.yul\":21807:21819   */\n      revert\n        /* \"#utility.yul\":21831:21948   */\n    tag_244:\n        /* \"#utility.yul\":21940:21941   */\n      0x00\n        /* \"#utility.yul\":21937:21938   */\n      dup1\n        /* \"#utility.yul\":21930:21942   */\n      revert\n        /* \"#utility.yul\":21954:22071   */\n    tag_224:\n        /* \"#utility.yul\":22063:22064   */\n      0x00\n        /* \"#utility.yul\":22060:22061   */\n      dup1\n        /* \"#utility.yul\":22053:22065   */\n      revert\n        /* \"#utility.yul\":22077:22179   */\n    tag_395:\n        /* \"#utility.yul\":22118:22124   */\n      0x00\n        /* \"#utility.yul\":22169:22171   */\n      0x1f\n        /* \"#utility.yul\":22165:22172   */\n      not\n        /* \"#utility.yul\":22160:22162   */\n      0x1f\n        /* \"#utility.yul\":22153:22158   */\n      dup4\n        /* \"#utility.yul\":22149:22163   */\n      add\n        /* \"#utility.yul\":22145:22173   */\n      and\n        /* \"#utility.yul\":22135:22173   */\n      swap1\n      pop\n        /* \"#utility.yul\":22077:22179   */\n      swap2\n      swap1\n      pop\n      jump\t// out\n        /* \"#utility.yul\":22185:22496   */\n    tag_281:\n        /* \"#utility.yul\":22325:22359   */\n      0x596f752068617665206e6f7420696e707574206120726967687420766f74652e\n        /* \"#utility.yul\":22321:22322   */\n      0x00\n        /* \"#utility.yul\":22313:22319   */\n      dup3\n        /* \"#utility.yul\":22309:22323   */\n      add\n        /* \"#utility.yul\":22302:22360   */\n      mstore\n        /* \"#utility.yul\":22394:22428   */\n      0x20596f752063616e2065697468657220766f7465203120666f72205265717565\n        /* \"#utility.yul\":22389:22391   */\n      0x20\n        /* \"#utility.yul\":22381:22387   */\n      dup3\n        /* \"#utility.yul\":22377:22392   */\n      add\n        /* \"#utility.yul\":22370:22429   */\n      mstore\n        /* \"#utility.yul\":22463:22488   */\n      0x73746572206f72203220666f722050726f76696465722e000000000000000000\n        /* \"#utility.yul\":22458:22460   */\n      0x40\n        /* \"#utility.yul\":22450:22456   */\n      dup3\n        /* \"#utility.yul\":22446:22461   */\n      add\n        /* \"#utility.yul\":22439:22489   */\n      mstore\n        /* \"#utility.yul\":22185:22496   */\n      pop\n      jump\t// out\n        /* \"#utility.yul\":22502:22734   */\n    tag_286:\n        /* \"#utility.yul\":22642:22676   */\n      0x596f75206861766520616c726561647920766f7465642c20796f752063616e6e\n        /* \"#utility.yul\":22638:22639   */\n      0x00\n        /* \"#utility.yul\":22630:22636   */\n      dup3\n        /* \"#utility.yul\":22626:22640   */\n      add\n        /* \"#utility.yul\":22619:22677   */\n      mstore\n        /* \"#utility.yul\":22711:22726   */\n      0x6f7420766f746520616761696e00000000000000000000000000000000000000\n        /* \"#utility.yul\":22706:22708   */\n      0x20\n        /* \"#utility.yul\":22698:22704   */\n      dup3\n        /* \"#utility.yul\":22694:22709   */\n      add\n        /* \"#utility.yul\":22687:22727   */\n      mstore\n        /* \"#utility.yul\":22502:22734   */\n      pop\n      jump\t// out\n        /* \"#utility.yul\":22740:22922   */\n    tag_291:\n        /* \"#utility.yul\":22880:22914   */\n      0x43616e6e6f74206361727279206f75742074686973206f7065726174696f6e21\n        /* \"#utility.yul\":22876:22877   */\n      0x00\n        /* \"#utility.yul\":22868:22874   */\n      dup3\n        /* \"#utility.yul\":22864:22878   */\n      add\n        /* \"#utility.yul\":22857:22915   */\n      mstore\n        /* \"#utility.yul\":22740:22922   */\n      pop\n      jump\t// out\n        /* \"#utility.yul\":22928:23107   */\n    tag_296:\n        /* \"#utility.yul\":23068:23099   */\n      0x5468697320436f6e666c69637420646f6573206e6f742065786973742e000000\n        /* \"#utility.yul\":23064:23065   */\n      0x00\n        /* \"#utility.yul\":23056:23062   */\n      dup3\n        /* \"#utility.yul\":23052:23066   */\n      add\n        /* \"#utility.yul\":23045:23100   */\n      mstore\n        /* \"#utility.yul\":22928:23107   */\n      pop\n      jump\t// out\n        /* \"#utility.yul\":23113:23348   */\n    tag_301:\n        /* \"#utility.yul\":23253:23287   */\n      0x596f7520726169736564207468697320636f6e666c6963742e20596f75206361\n        /* \"#utility.yul\":23249:23250   */\n      0x00\n        /* \"#utility.yul\":23241:23247   */\n      dup3\n        /* \"#utility.yul\":23237:23251   */\n      add\n        /* \"#utility.yul\":23230:23288   */\n      mstore\n        /* \"#utility.yul\":23322:23340   */\n      0x6e6e6f7420766f7465206f6e2069742e00000000000000000000000000000000\n        /* \"#utility.yul\":23317:23319   */\n      0x20\n        /* \"#utility.yul\":23309:23315   */\n      dup3\n        /* \"#utility.yul\":23305:23320   */\n      add\n        /* \"#utility.yul\":23298:23341   */\n      mstore\n        /* \"#utility.yul\":23113:23348   */\n      pop\n      jump\t// out\n        /* \"#utility.yul\":23354:23605   */\n    tag_306:\n        /* \"#utility.yul\":23494:23528   */\n      0x436f6e666c6963742068617320616c7265616479206265656e20637265617465\n        /* \"#utility.yul\":23490:23491   */\n      0x00\n        /* \"#utility.yul\":23482:23488   */\n      dup3\n        /* \"#utility.yul\":23478:23492   */\n      add\n        /* \"#utility.yul\":23471:23529   */\n      mstore\n        /* \"#utility.yul\":23563:23597   */\n      0x6420666f72207468697320706172746963756c6172204d696c6573746f6e652e\n        /* \"#utility.yul\":23558:23560   */\n      0x20\n        /* \"#utility.yul\":23550:23556   */\n      dup3\n        /* \"#utility.yul\":23546:23561   */\n      add\n        /* \"#utility.yul\":23539:23598   */\n      mstore\n        /* \"#utility.yul\":23354:23605   */\n      pop\n      jump\t// out\n        /* \"#utility.yul\":23611:23859   */\n    tag_311:\n        /* \"#utility.yul\":23751:23785   */\n      0x566f74696e6720686173206e6f74206265656e20636f6d706c65746564207965\n        /* \"#utility.yul\":23747:23748   */\n      0x00\n        /* \"#utility.yul\":23739:23745   */\n      dup3\n        /* \"#utility.yul\":23735:23749   */\n      add\n        /* \"#utility.yul\":23728:23786   */\n      mstore\n        /* \"#utility.yul\":23820:23851   */\n      0x742e20506c65617365207761697420666f7220697420746f20656e642e000000\n        /* \"#utility.yul\":23815:23817   */\n      0x20\n        /* \"#utility.yul\":23807:23813   */\n      dup3\n        /* \"#utility.yul\":23803:23818   */\n      add\n        /* \"#utility.yul\":23796:23852   */\n      mstore\n        /* \"#utility.yul\":23611:23859   */\n      pop\n      jump\t// out\n        /* \"#utility.yul\":23865:24163   */\n    tag_316:\n        /* \"#utility.yul\":24005:24039   */\n      0x4e6f742065766572796f6e652068617320766f7465642c20706c656173652070\n        /* \"#utility.yul\":24001:24002   */\n      0x00\n        /* \"#utility.yul\":23993:23999   */\n      dup3\n        /* \"#utility.yul\":23989:24003   */\n      add\n        /* \"#utility.yul\":23982:24040   */\n      mstore\n        /* \"#utility.yul\":24074:24108   */\n      0x726f6d707420616c6c206f74686572206d656d62657273206f662070726f6a65\n        /* \"#utility.yul\":24069:24071   */\n      0x20\n        /* \"#utility.yul\":24061:24067   */\n      dup3\n        /* \"#utility.yul\":24057:24072   */\n      add\n        /* \"#utility.yul\":24050:24109   */\n      mstore\n        /* \"#utility.yul\":24143:24155   */\n      0x637420746f20766f746500000000000000000000000000000000000000000000\n        /* \"#utility.yul\":24138:24140   */\n      0x40\n        /* \"#utility.yul\":24130:24136   */\n      dup3\n        /* \"#utility.yul\":24126:24141   */\n      add\n        /* \"#utility.yul\":24119:24156   */\n      mstore\n        /* \"#utility.yul\":23865:24163   */\n      pop\n      jump\t// out\n        /* \"#utility.yul\":24169:24340   */\n    tag_321:\n        /* \"#utility.yul\":24309:24332   */\n      0x4120737472696e67206973207265717569726564210000000000000000000000\n        /* \"#utility.yul\":24305:24306   */\n      0x00\n        /* \"#utility.yul\":24297:24303   */\n      dup3\n        /* \"#utility.yul\":24293:24307   */\n      add\n        /* \"#utility.yul\":24286:24333   */\n      mstore\n        /* \"#utility.yul\":24169:24340   */\n      pop\n      jump\t// out\n        /* \"#utility.yul\":24346:24590   */\n    tag_326:\n        /* \"#utility.yul\":24486:24520   */\n      0x596f752061726520696e766f6c76656420696e207468697320636f6e666c6963\n        /* \"#utility.yul\":24482:24483   */\n      0x00\n        /* \"#utility.yul\":24474:24480   */\n      dup3\n        /* \"#utility.yul\":24470:24484   */\n      add\n        /* \"#utility.yul\":24463:24521   */\n      mstore\n        /* \"#utility.yul\":24555:24582   */\n      0x742e20596f752063616e6e6f7420766f7465206f6e2069742e00000000000000\n        /* \"#utility.yul\":24550:24552   */\n      0x20\n        /* \"#utility.yul\":24542:24548   */\n      dup3\n        /* \"#utility.yul\":24538:24553   */\n      add\n        /* \"#utility.yul\":24531:24583   */\n      mstore\n        /* \"#utility.yul\":24346:24590   */\n      pop\n      jump\t// out\n        /* \"#utility.yul\":24596:24778   */\n    tag_331:\n        /* \"#utility.yul\":24736:24770   */\n      0x456e6f75676820766f7465732068617665206265656e20636f6c6c6563746564\n        /* \"#utility.yul\":24732:24733   */\n      0x00\n        /* \"#utility.yul\":24724:24730   */\n      dup3\n        /* \"#utility.yul\":24720:24734   */\n      add\n        /* \"#utility.yul\":24713:24771   */\n      mstore\n        /* \"#utility.yul\":24596:24778   */\n      pop\n      jump\t// out\n        /* \"#utility.yul\":24784:24907   */\n    tag_406:\n        /* \"#utility.yul\":24875:24876   */\n      0x04\n        /* \"#utility.yul\":24868:24873   */\n      dup2\n        /* \"#utility.yul\":24865:24877   */\n      lt\n        /* \"#utility.yul\":24855:24901   */\n      tag_456\n      jumpi\n        /* \"#utility.yul\":24881:24899   */\n      tag_457\n      tag_62\n      jump\t// in\n    tag_457:\n        /* \"#utility.yul\":24855:24901   */\n    tag_456:\n        /* \"#utility.yul\":24784:24907   */\n      pop\n      jump\t// out\n        /* \"#utility.yul\":24913:25035   */\n    tag_202:\n        /* \"#utility.yul\":24986:25010   */\n      tag_459\n        /* \"#utility.yul\":25004:25009   */\n      dup2\n        /* \"#utility.yul\":24986:25010   */\n      tag_271\n      jump\t// in\n    tag_459:\n        /* \"#utility.yul\":24979:24984   */\n      dup2\n        /* \"#utility.yul\":24976:25011   */\n      eq\n        /* \"#utility.yul\":24966:25029   */\n      tag_460\n      jumpi\n        /* \"#utility.yul\":25025:25026   */\n      0x00\n        /* \"#utility.yul\":25022:25023   */\n      dup1\n        /* \"#utility.yul\":25015:25027   */\n      revert\n        /* \"#utility.yul\":24966:25029   */\n    tag_460:\n        /* \"#utility.yul\":24913:25035   */\n      pop\n      jump\t// out\n        /* \"#utility.yul\":25041:25179   */\n    tag_206:\n        /* \"#utility.yul\":25122:25154   */\n      tag_462\n        /* \"#utility.yul\":25148:25153   */\n      dup2\n        /* \"#utility.yul\":25122:25154   */\n      tag_400\n      jump\t// in\n    tag_462:\n        /* \"#utility.yul\":25115:25120   */\n      dup2\n        /* \"#utility.yul\":25112:25155   */\n      eq\n        /* \"#utility.yul\":25102:25173   */\n      tag_463\n      jumpi\n        /* \"#utility.yul\":25169:25170   */\n      0x00\n        /* \"#utility.yul\":25166:25167   */\n      dup1\n        /* \"#utility.yul\":25159:25171   */\n      revert\n        /* \"#utility.yul\":25102:25173   */\n    tag_463:\n        /* \"#utility.yul\":25041:25179   */\n      pop\n      jump\t// out\n        /* \"#utility.yul\":25185:25307   */\n    tag_216:\n        /* \"#utility.yul\":25258:25282   */\n      tag_465\n        /* \"#utility.yul\":25276:25281   */\n      dup2\n        /* \"#utility.yul\":25258:25282   */\n      tag_335\n      jump\t// in\n    tag_465:\n        /* \"#utility.yul\":25251:25256   */\n      dup2\n        /* \"#utility.yul\":25248:25283   */\n      eq\n        /* \"#utility.yul\":25238:25301   */\n      tag_466\n      jumpi\n        /* \"#utility.yul\":25297:25298   */\n      0x00\n        /* \"#utility.yul\":25294:25295   */\n      dup1\n        /* \"#utility.yul\":25287:25299   */\n      revert\n        /* \"#utility.yul\":25238:25301   */\n    tag_466:\n        /* \"#utility.yul\":25185:25307   */\n      pop\n      jump\t// out\n        /* \"#utility.yul\":25313:25431   */\n    tag_220:\n        /* \"#utility.yul\":25384:25406   */\n      tag_468\n        /* \"#utility.yul\":25400:25405   */\n      dup2\n        /* \"#utility.yul\":25384:25406   */\n      tag_339\n      jump\t// in\n    tag_468:\n        /* \"#utility.yul\":25377:25382   */\n      dup2\n        /* \"#utility.yul\":25374:25407   */\n      eq\n        /* \"#utility.yul\":25364:25425   */\n      tag_469\n      jumpi\n        /* \"#utility.yul\":25421:25422   */\n      0x00\n        /* \"#utility.yul\":25418:25419   */\n      dup1\n        /* \"#utility.yul\":25411:25423   */\n      revert\n        /* \"#utility.yul\":25364:25425   */\n    tag_469:\n        /* \"#utility.yul\":25313:25431   */\n      pop\n      jump\t// out\n\n    auxdata: 0xa264697066735822122051b82607c704b6e45fb9282d021680bb7dcfb06b4e986fa82cb7d407f84ee72364736f6c63430008070033\n}\n",
				"bytecode": {
					"linkReferences": {},
					"object": "608060405234801561001057600080fd5b50612156806100206000396000f3fe608060405234801561001057600080fd5b506004361061009d5760003560e01c8063c171bdf711610066578063c171bdf71461016a578063cb4389ce14610186578063d1e992a7146101b6578063e3d87718146101d2578063e62fac27146102025761009d565b80623f489f146100a25780630366cef2146100be5780633c45fe31146100ee5780639ac788791461011e5780639c87a5e91461014e575b600080fd5b6100bc60048036038101906100b79190611414565b61021e565b005b6100d860048036038101906100d39190611414565b6103bd565b6040516100e591906119ca565b60405180910390f35b61010860048036038101906101039190611414565b61056b565b60405161011591906119ca565b60405180910390f35b61013860048036038101906101339190611414565b6105ae565b60405161014591906119ca565b60405180910390f35b61016860048036038101906101639190611414565b6105f1565b005b610184600480360381019061017f9190611467565b610740565b005b6101a0600480360381019061019b9190611414565b610d0d565b6040516101ad919061184f565b60405180910390f35b6101d060048036038101906101cb91906114e2565b610d5d565b005b6101ec60048036038101906101e79190611414565b610f3b565b6040516101f991906119ca565b60405180910390f35b61021c60048036038101906102179190611595565b610f7e565b005b82828260008084815260200190815260200160002060008381526020019081526020016000206000828152602001908152602001600020600b0160009054906101000a900460ff166102a5576040517f08c379a000000000000000000000000000000000000000000000000000000000815260040161029c906118ca565b60405180910390fd5b85858560008060038111156102bd576102bc611ce5565b5b6000808681526020019081526020016000206000858152602001908152602001600020600084815260200190815260200160002060060160149054906101000a900460ff16600381111561031457610313611ce5565b5b14610354576040517f08c379a000000000000000000000000000000000000000000000000000000000815260040161034b906118aa565b60405180910390fd5b60008060008c815260200190815260200160002060008b815260200190815260200160002060008a8152602001908152602001600020600b0160006101000a81548160ff0219169083151502179055506103b18a8a8a6003611248565b50505050505050505050565b6000806000858152602001908152602001600020600084815260200190815260200160002060008381526020019081526020016000206007015460008086815260200190815260200160002060008581526020019081526020016000206000848152602001908152602001600020600801541461046f576040517f08c379a00000000000000000000000000000000000000000000000000000000081526004016104669061194a565b60405180910390fd5b6002600381111561048357610482611ce5565b5b6000808681526020019081526020016000206000858152602001908152602001600020600084815260200190815260200160002060060160149054906101000a900460ff1660038111156104da576104d9611ce5565b5b1461051a576040517f08c379a00000000000000000000000000000000000000000000000000000000081526004016105119061192a565b60405180910390fd5b60008085815260200190815260200160002060008481526020019081526020016000206000838152602001908152602001600020600b0160019054906101000a900460ff1660ff1690509392505050565b6000806000858152602001908152602001600020600084815260200190815260200160002060008381526020019081526020016000206008015490509392505050565b600080600085815260200190815260200160002060008481526020019081526020016000206000838152602001908152602001600020600a015490509392505050565b82828260008084815260200190815260200160002060008381526020019081526020016000206000828152602001908152602001600020600b0160009054906101000a900460ff16610678576040517f08c379a000000000000000000000000000000000000000000000000000000000815260040161066f906118ca565b60405180910390fd5b85858560008060038111156106905761068f611ce5565b5b6000808681526020019081526020016000206000858152602001908152602001600020600084815260200190815260200160002060060160149054906101000a900460ff1660038111156106e7576106e6611ce5565b5b14610727576040517f08c379a000000000000000000000000000000000000000000000000000000000815260040161071e906118aa565b60405180910390fd5b6107348a8a8a6001611248565b50505050505050505050565b84848460008084815260200190815260200160002060008381526020019081526020016000206000828152602001908152602001600020600b0160009054906101000a900460ff166107c7576040517f08c379a00000000000000000000000000000000000000000000000000000000081526004016107be906118ca565b60405180910390fd5b87878760018060038111156107df576107de611ce5565b5b6000808681526020019081526020016000206000858152602001908152602001600020600084815260200190815260200160002060060160149054906101000a900460ff16600381111561083657610835611ce5565b5b14610876576040517f08c379a000000000000000000000000000000000000000000000000000000000815260040161086d906118aa565b60405180910390fd5b60008060008e815260200190815260200160002060008d815260200190815260200160002060008c815260200190815260200160002090508973ffffffffffffffffffffffffffffffffffffffff168160050160009054906101000a900473ffffffffffffffffffffffffffffffffffffffff1673ffffffffffffffffffffffffffffffffffffffff161415610941576040517f08c379a0000000000000000000000000000000000000000000000000000000008152600401610938906118ea565b60405180910390fd5b8973ffffffffffffffffffffffffffffffffffffffff168160060160009054906101000a900473ffffffffffffffffffffffffffffffffffffffff1673ffffffffffffffffffffffffffffffffffffffff1614156109d4576040517f08c379a00000000000000000000000000000000000000000000000000000000081526004016109cb9061198a565b60405180910390fd5b8060070154816008015410610a1e576040517f08c379a0000000000000000000000000000000000000000000000000000000008152600401610a15906119aa565b60405180910390fd5b600081600c0160008c73ffffffffffffffffffffffffffffffffffffffff1673ffffffffffffffffffffffffffffffffffffffff16815260200190815260200160002060009054906101000a900460ff1660ff1614610ab2576040517f08c379a0000000000000000000000000000000000000000000000000000000008152600401610aa99061188a565b60405180910390fd5b60018960ff161480610ac7575060028960ff16145b610b06576040517f08c379a0000000000000000000000000000000000000000000000000000000008152600401610afd9061186a565b60405180910390fd5b60008060008f815260200190815260200160002060008e815260200190815260200160002060008d815260200190815260200160002090508981600c0160008d73ffffffffffffffffffffffffffffffffffffffff1673ffffffffffffffffffffffffffffffffffffffff16815260200190815260200160002060006101000a81548160ff021916908360ff16021790555060018a60ff161415610bbf57806009016000815480929190610bb990611c6d565b91905055505b60028a60ff161415610be65780600a016000815480929190610be090611c6d565b91905055505b806008016000815480929190610bfb90611c6d565b91905055507f20211b974adbe11ce3687d51504ce7ef1fcfbb9c00405ba7aca7b283903f345a8e8e8e338e604051610c37959493929190611a46565b60405180910390a1806007015481600801541415610cfd57806009015481600a01541115610c8257600281600b0160016101000a81548160ff021916908360ff160217905550610ca1565b600181600b0160016101000a81548160ff021916908360ff1602179055505b610cae8e8e8e6002611248565b7fe59fdbc65a5dd63c529717c2a71d04b136038f05301755de242dd05990c028148e8e8e84600b0160019054906101000a900460ff16604051610cf49493929190611a99565b60405180910390a15b5050505050505050505050505050565b60008060008581526020019081526020016000206000848152602001908152602001600020600083815260200190815260200160002060060160149054906101000a900460ff1690509392505050565b8484846000806003811115610d7557610d74611ce5565b5b6000808681526020019081526020016000206000858152602001908152602001600020600084815260200190815260200160002060060160149054906101000a900460ff166003811115610dcc57610dcb611ce5565b5b14610e0c576040517f08c379a0000000000000000000000000000000000000000000000000000000008152600401610e03906118aa565b60405180910390fd5b856000815111610e51576040517f08c379a0000000000000000000000000000000000000000000000000000000008152600401610e489061196a565b60405180910390fd5b856000815111610e96576040517f08c379a0000000000000000000000000000000000000000000000000000000008152600401610e8d9061196a565b60405180910390fd5b876000808d815260200190815260200160002060008c815260200190815260200160002060008b81526020019081526020016000206003019080519060200190610ee19291906112ad565b50866000808d815260200190815260200160002060008c815260200190815260200160002060008b81526020019081526020016000206004019080519060200190610f2d9291906112ad565b505050505050505050505050565b6000806000858152602001908152602001600020600084815260200190815260200160002060008381526020019081526020016000206009015490509392505050565b846000815111610fc3576040517f08c379a0000000000000000000000000000000000000000000000000000000008152600401610fba9061196a565b60405180910390fd5b846000815111611008576040517f08c379a0000000000000000000000000000000000000000000000000000000008152600401610fff9061196a565b60405180910390fd5b60008060008c815260200190815260200160002060008b815260200190815260200160002060008a815260200190815260200160002090506000151581600b0160009054906101000a900460ff16151514611098576040517f08c379a000000000000000000000000000000000000000000000000000000000815260040161108f9061190a565b60405180910390fd5b8a8160000181905550898160010181905550888160020181905550878160030190805190602001906110cb9291906112ad565b50868160040190805190602001906110e49291906112ad565b50858160050160006101000a81548173ffffffffffffffffffffffffffffffffffffffff021916908373ffffffffffffffffffffffffffffffffffffffff160217905550848160060160006101000a81548173ffffffffffffffffffffffffffffffffffffffff021916908373ffffffffffffffffffffffffffffffffffffffff16021790555060008160060160146101000a81548160ff0219169083600381111561119357611192611ce5565b5b02179055508381600701819055506000816008018190555060008160090181905550600081600a0181905550600181600b0160006101000a81548160ff021916908315150217905550600081600b0160016101000a81548160ff021916908360ff1602179055507ffa127411522a1139d16c2142db999e127aef2288bd98a0558006bb115666ab1b8b8b8b898989604051611233969594939291906119e5565b60405180910390a15050505050505050505050565b806000808681526020019081526020016000206000858152602001908152602001600020600084815260200190815260200160002060060160146101000a81548160ff021916908360038111156112a2576112a1611ce5565b5b021790555050505050565b8280546112b990611c0a565b90600052602060002090601f0160209004810192826112db5760008555611322565b82601f106112f457805160ff1916838001178555611322565b82800160010185558215611322579182015b82811115611321578251825591602001919060010190611306565b5b50905061132f9190611333565b5090565b5b8082111561134c576000816000905550600101611334565b5090565b600061136361135e84611b03565b611ade565b90508281526020810184848401111561137f5761137e611d77565b5b61138a848285611bfb565b509392505050565b6000813590506113a1816120c4565b92915050565b6000813590506113b6816120db565b92915050565b600082601f8301126113d1576113d0611d72565b5b81356113e1848260208601611350565b91505092915050565b6000813590506113f9816120f2565b92915050565b60008135905061140e81612109565b92915050565b60008060006060848603121561142d5761142c611d81565b5b600061143b868287016113ea565b935050602061144c868287016113ea565b925050604061145d868287016113ea565b9150509250925092565b600080600080600060a0868803121561148357611482611d81565b5b6000611491888289016113ea565b95505060206114a2888289016113ea565b94505060406114b3888289016113ea565b93505060606114c488828901611392565b92505060806114d5888289016113ff565b9150509295509295909350565b600080600080600060a086880312156114fe576114fd611d81565b5b600061150c888289016113ea565b955050602061151d888289016113ea565b945050604061152e888289016113ea565b935050606086013567ffffffffffffffff81111561154f5761154e611d7c565b5b61155b888289016113bc565b925050608086013567ffffffffffffffff81111561157c5761157b611d7c565b5b611588888289016113bc565b9150509295509295909350565b600080600080600080600080610100898b0312156115b6576115b5611d81565b5b60006115c48b828c016113ea565b98505060206115d58b828c016113ea565b97505060406115e68b828c016113ea565b965050606089013567ffffffffffffffff81111561160757611606611d7c565b5b6116138b828c016113bc565b955050608089013567ffffffffffffffff81111561163457611633611d7c565b5b6116408b828c016113bc565b94505060a06116518b828c016113a7565b93505060c06116628b828c016113a7565b92505060e06116738b828c016113ea565b9150509295985092959890939650565b61168c81611bb3565b82525050565b61169b81611b45565b82525050565b6116aa81611bc5565b82525050565b60006116bd605783611b34565b91506116c882611d97565b606082019050919050565b60006116e0602d83611b34565b91506116eb82611e0c565b604082019050919050565b6000611703602083611b34565b915061170e82611e5b565b602082019050919050565b6000611726601d83611b34565b915061173182611e84565b602082019050919050565b6000611749603083611b34565b915061175482611ead565b604082019050919050565b600061176c604083611b34565b915061177782611efc565b604082019050919050565b600061178f603d83611b34565b915061179a82611f4b565b604082019050919050565b60006117b2604a83611b34565b91506117bd82611f9a565b606082019050919050565b60006117d5601583611b34565b91506117e08261200f565b602082019050919050565b60006117f8603983611b34565b915061180382612038565b604082019050919050565b600061181b602083611b34565b915061182682612087565b602082019050919050565b61183a81611b9c565b82525050565b61184981611ba6565b82525050565b600060208201905061186460008301846116a1565b92915050565b60006020820190508181036000830152611883816116b0565b9050919050565b600060208201905081810360008301526118a3816116d3565b9050919050565b600060208201905081810360008301526118c3816116f6565b9050919050565b600060208201905081810360008301526118e381611719565b9050919050565b600060208201905081810360008301526119038161173c565b9050919050565b600060208201905081810360008301526119238161175f565b9050919050565b6000602082019050818103600083015261194381611782565b9050919050565b60006020820190508181036000830152611963816117a5565b9050919050565b60006020820190508181036000830152611983816117c8565b9050919050565b600060208201905081810360008301526119a3816117eb565b9050919050565b600060208201905081810360008301526119c38161180e565b9050919050565b60006020820190506119df6000830184611831565b92915050565b600060c0820190506119fa6000830189611831565b611a076020830188611831565b611a146040830187611831565b611a216060830186611683565b611a2e6080830185611683565b611a3b60a0830184611831565b979650505050505050565b600060a082019050611a5b6000830188611831565b611a686020830187611831565b611a756040830186611831565b611a826060830185611692565b611a8f6080830184611840565b9695505050505050565b6000608082019050611aae6000830187611831565b611abb6020830186611831565b611ac86040830185611831565b611ad56060830184611840565b95945050505050565b6000611ae8611af9565b9050611af48282611c3c565b919050565b6000604051905090565b600067ffffffffffffffff821115611b1e57611b1d611d43565b5b611b2782611d86565b9050602081019050919050565b600082825260208201905092915050565b6000611b5082611b7c565b9050919050565b6000611b6282611b7c565b9050919050565b6000819050611b77826120b0565b919050565b600073ffffffffffffffffffffffffffffffffffffffff82169050919050565b6000819050919050565b600060ff82169050919050565b6000611bbe82611bd7565b9050919050565b6000611bd082611b69565b9050919050565b6000611be282611be9565b9050919050565b6000611bf482611b7c565b9050919050565b82818337600083830152505050565b60006002820490506001821680611c2257607f821691505b60208210811415611c3657611c35611d14565b5b50919050565b611c4582611d86565b810181811067ffffffffffffffff82111715611c6457611c63611d43565b5b80604052505050565b6000611c7882611b9c565b91507fffffffffffffffffffffffffffffffffffffffffffffffffffffffffffffffff821415611cab57611caa611cb6565b5b600182019050919050565b7f4e487b7100000000000000000000000000000000000000000000000000000000600052601160045260246000fd5b7f4e487b7100000000000000000000000000000000000000000000000000000000600052602160045260246000fd5b7f4e487b7100000000000000000000000000000000000000000000000000000000600052602260045260246000fd5b7f4e487b7100000000000000000000000000000000000000000000000000000000600052604160045260246000fd5b600080fd5b600080fd5b600080fd5b600080fd5b6000601f19601f8301169050919050565b7f596f752068617665206e6f7420696e707574206120726967687420766f74652e60008201527f20596f752063616e2065697468657220766f7465203120666f7220526571756560208201527f73746572206f72203220666f722050726f76696465722e000000000000000000604082015250565b7f596f75206861766520616c726561647920766f7465642c20796f752063616e6e60008201527f6f7420766f746520616761696e00000000000000000000000000000000000000602082015250565b7f43616e6e6f74206361727279206f75742074686973206f7065726174696f6e21600082015250565b7f5468697320436f6e666c69637420646f6573206e6f742065786973742e000000600082015250565b7f596f7520726169736564207468697320636f6e666c6963742e20596f7520636160008201527f6e6e6f7420766f7465206f6e2069742e00000000000000000000000000000000602082015250565b7f436f6e666c6963742068617320616c7265616479206265656e2063726561746560008201527f6420666f72207468697320706172746963756c6172204d696c6573746f6e652e602082015250565b7f566f74696e6720686173206e6f74206265656e20636f6d706c6574656420796560008201527f742e20506c65617365207761697420666f7220697420746f20656e642e000000602082015250565b7f4e6f742065766572796f6e652068617320766f7465642c20706c65617365207060008201527f726f6d707420616c6c206f74686572206d656d62657273206f662070726f6a6560208201527f637420746f20766f746500000000000000000000000000000000000000000000604082015250565b7f4120737472696e67206973207265717569726564210000000000000000000000600082015250565b7f596f752061726520696e766f6c76656420696e207468697320636f6e666c696360008201527f742e20596f752063616e6e6f7420766f7465206f6e2069742e00000000000000602082015250565b7f456e6f75676820766f7465732068617665206265656e20636f6c6c6563746564600082015250565b600481106120c1576120c0611ce5565b5b50565b6120cd81611b45565b81146120d857600080fd5b50565b6120e481611b57565b81146120ef57600080fd5b50565b6120fb81611b9c565b811461210657600080fd5b50565b61211281611ba6565b811461211d57600080fd5b5056fea264697066735822122051b82607c704b6e45fb9282d021680bb7dcfb06b4e986fa82cb7d407f84ee72364736f6c63430008070033",
					"opcodes": "PUSH1 0x80 PUSH1 0x40 MSTORE CALLVALUE DUP1 ISZERO PUSH2 0x10 JUMPI PUSH1 0x0 DUP1 REVERT JUMPDEST POP PUSH2 0x2156 DUP1 PUSH2 0x20 PUSH1 0x0 CODECOPY PUSH1 0x0 RETURN INVALID PUSH1 0x80 PUSH1 0x40 MSTORE CALLVALUE DUP1 ISZERO PUSH2 0x10 JUMPI PUSH1 0x0 DUP1 REVERT JUMPDEST POP PUSH1 0x4 CALLDATASIZE LT PUSH2 0x9D JUMPI PUSH1 0x0 CALLDATALOAD PUSH1 0xE0 SHR DUP1 PUSH4 0xC171BDF7 GT PUSH2 0x66 JUMPI DUP1 PUSH4 0xC171BDF7 EQ PUSH2 0x16A JUMPI DUP1 PUSH4 0xCB4389CE EQ PUSH2 0x186 JUMPI DUP1 PUSH4 0xD1E992A7 EQ PUSH2 0x1B6 JUMPI DUP1 PUSH4 0xE3D87718 EQ PUSH2 0x1D2 JUMPI DUP1 PUSH4 0xE62FAC27 EQ PUSH2 0x202 JUMPI PUSH2 0x9D JUMP JUMPDEST DUP1 PUSH3 0x3F489F EQ PUSH2 0xA2 JUMPI DUP1 PUSH4 0x366CEF2 EQ PUSH2 0xBE JUMPI DUP1 PUSH4 0x3C45FE31 EQ PUSH2 0xEE JUMPI DUP1 PUSH4 0x9AC78879 EQ PUSH2 0x11E JUMPI DUP1 PUSH4 0x9C87A5E9 EQ PUSH2 0x14E JUMPI JUMPDEST PUSH1 0x0 DUP1 REVERT JUMPDEST PUSH2 0xBC PUSH1 0x4 DUP1 CALLDATASIZE SUB DUP2 ADD SWAP1 PUSH2 0xB7 SWAP2 SWAP1 PUSH2 0x1414 JUMP JUMPDEST PUSH2 0x21E JUMP JUMPDEST STOP JUMPDEST PUSH2 0xD8 PUSH1 0x4 DUP1 CALLDATASIZE SUB DUP2 ADD SWAP1 PUSH2 0xD3 SWAP2 SWAP1 PUSH2 0x1414 JUMP JUMPDEST PUSH2 0x3BD JUMP JUMPDEST PUSH1 0x40 MLOAD PUSH2 0xE5 SWAP2 SWAP1 PUSH2 0x19CA JUMP JUMPDEST PUSH1 0x40 MLOAD DUP1 SWAP2 SUB SWAP1 RETURN JUMPDEST PUSH2 0x108 PUSH1 0x4 DUP1 CALLDATASIZE SUB DUP2 ADD SWAP1 PUSH2 0x103 SWAP2 SWAP1 PUSH2 0x1414 JUMP JUMPDEST PUSH2 0x56B JUMP JUMPDEST PUSH1 0x40 MLOAD PUSH2 0x115 SWAP2 SWAP1 PUSH2 0x19CA JUMP JUMPDEST PUSH1 0x40 MLOAD DUP1 SWAP2 SUB SWAP1 RETURN JUMPDEST PUSH2 0x138 PUSH1 0x4 DUP1 CALLDATASIZE SUB DUP2 ADD SWAP1 PUSH2 0x133 SWAP2 SWAP1 PUSH2 0x1414 JUMP JUMPDEST PUSH2 0x5AE JUMP JUMPDEST PUSH1 0x40 MLOAD PUSH2 0x145 SWAP2 SWAP1 PUSH2 0x19CA JUMP JUMPDEST PUSH1 0x40 MLOAD DUP1 SWAP2 SUB SWAP1 RETURN JUMPDEST PUSH2 0x168 PUSH1 0x4 DUP1 CALLDATASIZE SUB DUP2 ADD SWAP1 PUSH2 0x163 SWAP2 SWAP1 PUSH2 0x1414 JUMP JUMPDEST PUSH2 0x5F1 JUMP JUMPDEST STOP JUMPDEST PUSH2 0x184 PUSH1 0x4 DUP1 CALLDATASIZE SUB DUP2 ADD SWAP1 PUSH2 0x17F SWAP2 SWAP1 PUSH2 0x1467 JUMP JUMPDEST PUSH2 0x740 JUMP JUMPDEST STOP JUMPDEST PUSH2 0x1A0 PUSH1 0x4 DUP1 CALLDATASIZE SUB DUP2 ADD SWAP1 PUSH2 0x19B SWAP2 SWAP1 PUSH2 0x1414 JUMP JUMPDEST PUSH2 0xD0D JUMP JUMPDEST PUSH1 0x40 MLOAD PUSH2 0x1AD SWAP2 SWAP1 PUSH2 0x184F JUMP JUMPDEST PUSH1 0x40 MLOAD DUP1 SWAP2 SUB SWAP1 RETURN JUMPDEST PUSH2 0x1D0 PUSH1 0x4 DUP1 CALLDATASIZE SUB DUP2 ADD SWAP1 PUSH2 0x1CB SWAP2 SWAP1 PUSH2 0x14E2 JUMP JUMPDEST PUSH2 0xD5D JUMP JUMPDEST STOP JUMPDEST PUSH2 0x1EC PUSH1 0x4 DUP1 CALLDATASIZE SUB DUP2 ADD SWAP1 PUSH2 0x1E7 SWAP2 SWAP1 PUSH2 0x1414 JUMP JUMPDEST PUSH2 0xF3B JUMP JUMPDEST PUSH1 0x40 MLOAD PUSH2 0x1F9 SWAP2 SWAP1 PUSH2 0x19CA JUMP JUMPDEST PUSH1 0x40 MLOAD DUP1 SWAP2 SUB SWAP1 RETURN JUMPDEST PUSH2 0x21C PUSH1 0x4 DUP1 CALLDATASIZE SUB DUP2 ADD SWAP1 PUSH2 0x217 SWAP2 SWAP1 PUSH2 0x1595 JUMP JUMPDEST PUSH2 0xF7E JUMP JUMPDEST STOP JUMPDEST DUP3 DUP3 DUP3 PUSH1 0x0 DUP1 DUP5 DUP2 MSTORE PUSH1 0x20 ADD SWAP1 DUP2 MSTORE PUSH1 0x20 ADD PUSH1 0x0 KECCAK256 PUSH1 0x0 DUP4 DUP2 MSTORE PUSH1 0x20 ADD SWAP1 DUP2 MSTORE PUSH1 0x20 ADD PUSH1 0x0 KECCAK256 PUSH1 0x0 DUP3 DUP2 MSTORE PUSH1 0x20 ADD SWAP1 DUP2 MSTORE PUSH1 0x20 ADD PUSH1 0x0 KECCAK256 PUSH1 0xB ADD PUSH1 0x0 SWAP1 SLOAD SWAP1 PUSH2 0x100 EXP SWAP1 DIV PUSH1 0xFF AND PUSH2 0x2A5 JUMPI PUSH1 0x40 MLOAD PUSH32 0x8C379A000000000000000000000000000000000000000000000000000000000 DUP2 MSTORE PUSH1 0x4 ADD PUSH2 0x29C SWAP1 PUSH2 0x18CA JUMP JUMPDEST PUSH1 0x40 MLOAD DUP1 SWAP2 SUB SWAP1 REVERT JUMPDEST DUP6 DUP6 DUP6 PUSH1 0x0 DUP1 PUSH1 0x3 DUP2 GT ISZERO PUSH2 0x2BD JUMPI PUSH2 0x2BC PUSH2 0x1CE5 JUMP JUMPDEST JUMPDEST PUSH1 0x0 DUP1 DUP7 DUP2 MSTORE PUSH1 0x20 ADD SWAP1 DUP2 MSTORE PUSH1 0x20 ADD PUSH1 0x0 KECCAK256 PUSH1 0x0 DUP6 DUP2 MSTORE PUSH1 0x20 ADD SWAP1 DUP2 MSTORE PUSH1 0x20 ADD PUSH1 0x0 KECCAK256 PUSH1 0x0 DUP5 DUP2 MSTORE PUSH1 0x20 ADD SWAP1 DUP2 MSTORE PUSH1 0x20 ADD PUSH1 0x0 KECCAK256 PUSH1 0x6 ADD PUSH1 0x14 SWAP1 SLOAD SWAP1 PUSH2 0x100 EXP SWAP1 DIV PUSH1 0xFF AND PUSH1 0x3 DUP2 GT ISZERO PUSH2 0x314 JUMPI PUSH2 0x313 PUSH2 0x1CE5 JUMP JUMPDEST JUMPDEST EQ PUSH2 0x354 JUMPI PUSH1 0x40 MLOAD PUSH32 0x8C379A000000000000000000000000000000000000000000000000000000000 DUP2 MSTORE PUSH1 0x4 ADD PUSH2 0x34B SWAP1 PUSH2 0x18AA JUMP JUMPDEST PUSH1 0x40 MLOAD DUP1 SWAP2 SUB SWAP1 REVERT JUMPDEST PUSH1 0x0 DUP1 PUSH1 0x0 DUP13 DUP2 MSTORE PUSH1 0x20 ADD SWAP1 DUP2 MSTORE PUSH1 0x20 ADD PUSH1 0x0 KECCAK256 PUSH1 0x0 DUP12 DUP2 MSTORE PUSH1 0x20 ADD SWAP1 DUP2 MSTORE PUSH1 0x20 ADD PUSH1 0x0 KECCAK256 PUSH1 0x0 DUP11 DUP2 MSTORE PUSH1 0x20 ADD SWAP1 DUP2 MSTORE PUSH1 0x20 ADD PUSH1 0x0 KECCAK256 PUSH1 0xB ADD PUSH1 0x0 PUSH2 0x100 EXP DUP2 SLOAD DUP2 PUSH1 0xFF MUL NOT AND SWAP1 DUP4 ISZERO ISZERO MUL OR SWAP1 SSTORE POP PUSH2 0x3B1 DUP11 DUP11 DUP11 PUSH1 0x3 PUSH2 0x1248 JUMP JUMPDEST POP POP POP POP POP POP POP POP POP POP JUMP JUMPDEST PUSH1 0x0 DUP1 PUSH1 0x0 DUP6 DUP2 MSTORE PUSH1 0x20 ADD SWAP1 DUP2 MSTORE PUSH1 0x20 ADD PUSH1 0x0 KECCAK256 PUSH1 0x0 DUP5 DUP2 MSTORE PUSH1 0x20 ADD SWAP1 DUP2 MSTORE PUSH1 0x20 ADD PUSH1 0x0 KECCAK256 PUSH1 0x0 DUP4 DUP2 MSTORE PUSH1 0x20 ADD SWAP1 DUP2 MSTORE PUSH1 0x20 ADD PUSH1 0x0 KECCAK256 PUSH1 0x7 ADD SLOAD PUSH1 0x0 DUP1 DUP7 DUP2 MSTORE PUSH1 0x20 ADD SWAP1 DUP2 MSTORE PUSH1 0x20 ADD PUSH1 0x0 KECCAK256 PUSH1 0x0 DUP6 DUP2 MSTORE PUSH1 0x20 ADD SWAP1 DUP2 MSTORE PUSH1 0x20 ADD PUSH1 0x0 KECCAK256 PUSH1 0x0 DUP5 DUP2 MSTORE PUSH1 0x20 ADD SWAP1 DUP2 MSTORE PUSH1 0x20 ADD PUSH1 0x0 KECCAK256 PUSH1 0x8 ADD SLOAD EQ PUSH2 0x46F JUMPI PUSH1 0x40 MLOAD PUSH32 0x8C379A000000000000000000000000000000000000000000000000000000000 DUP2 MSTORE PUSH1 0x4 ADD PUSH2 0x466 SWAP1 PUSH2 0x194A JUMP JUMPDEST PUSH1 0x40 MLOAD DUP1 SWAP2 SUB SWAP1 REVERT JUMPDEST PUSH1 0x2 PUSH1 0x3 DUP2 GT ISZERO PUSH2 0x483 JUMPI PUSH2 0x482 PUSH2 0x1CE5 JUMP JUMPDEST JUMPDEST PUSH1 0x0 DUP1 DUP7 DUP2 MSTORE PUSH1 0x20 ADD SWAP1 DUP2 MSTORE PUSH1 0x20 ADD PUSH1 0x0 KECCAK256 PUSH1 0x0 DUP6 DUP2 MSTORE PUSH1 0x20 ADD SWAP1 DUP2 MSTORE PUSH1 0x20 ADD PUSH1 0x0 KECCAK256 PUSH1 0x0 DUP5 DUP2 MSTORE PUSH1 0x20 ADD SWAP1 DUP2 MSTORE PUSH1 0x20 ADD PUSH1 0x0 KECCAK256 PUSH1 0x6 ADD PUSH1 0x14 SWAP1 SLOAD SWAP1 PUSH2 0x100 EXP SWAP1 DIV PUSH1 0xFF AND PUSH1 0x3 DUP2 GT ISZERO PUSH2 0x4DA JUMPI PUSH2 0x4D9 PUSH2 0x1CE5 JUMP JUMPDEST JUMPDEST EQ PUSH2 0x51A JUMPI PUSH1 0x40 MLOAD PUSH32 0x8C379A000000000000000000000000000000000000000000000000000000000 DUP2 MSTORE PUSH1 0x4 ADD PUSH2 0x511 SWAP1 PUSH2 0x192A JUMP JUMPDEST PUSH1 0x40 MLOAD DUP1 SWAP2 SUB SWAP1 REVERT JUMPDEST PUSH1 0x0 DUP1 DUP6 DUP2 MSTORE PUSH1 0x20 ADD SWAP1 DUP2 MSTORE PUSH1 0x20 ADD PUSH1 0x0 KECCAK256 PUSH1 0x0 DUP5 DUP2 MSTORE PUSH1 0x20 ADD SWAP1 DUP2 MSTORE PUSH1 0x20 ADD PUSH1 0x0 KECCAK256 PUSH1 0x0 DUP4 DUP2 MSTORE PUSH1 0x20 ADD SWAP1 DUP2 MSTORE PUSH1 0x20 ADD PUSH1 0x0 KECCAK256 PUSH1 0xB ADD PUSH1 0x1 SWAP1 SLOAD SWAP1 PUSH2 0x100 EXP SWAP1 DIV PUSH1 0xFF AND PUSH1 0xFF AND SWAP1 POP SWAP4 SWAP3 POP POP POP JUMP JUMPDEST PUSH1 0x0 DUP1 PUSH1 0x0 DUP6 DUP2 MSTORE PUSH1 0x20 ADD SWAP1 DUP2 MSTORE PUSH1 0x20 ADD PUSH1 0x0 KECCAK256 PUSH1 0x0 DUP5 DUP2 MSTORE PUSH1 0x20 ADD SWAP1 DUP2 MSTORE PUSH1 0x20 ADD PUSH1 0x0 KECCAK256 PUSH1 0x0 DUP4 DUP2 MSTORE PUSH1 0x20 ADD SWAP1 DUP2 MSTORE PUSH1 0x20 ADD PUSH1 0x0 KECCAK256 PUSH1 0x8 ADD SLOAD SWAP1 POP SWAP4 SWAP3 POP POP POP JUMP JUMPDEST PUSH1 0x0 DUP1 PUSH1 0x0 DUP6 DUP2 MSTORE PUSH1 0x20 ADD SWAP1 DUP2 MSTORE PUSH1 0x20 ADD PUSH1 0x0 KECCAK256 PUSH1 0x0 DUP5 DUP2 MSTORE PUSH1 0x20 ADD SWAP1 DUP2 MSTORE PUSH1 0x20 ADD PUSH1 0x0 KECCAK256 PUSH1 0x0 DUP4 DUP2 MSTORE PUSH1 0x20 ADD SWAP1 DUP2 MSTORE PUSH1 0x20 ADD PUSH1 0x0 KECCAK256 PUSH1 0xA ADD SLOAD SWAP1 POP SWAP4 SWAP3 POP POP POP JUMP JUMPDEST DUP3 DUP3 DUP3 PUSH1 0x0 DUP1 DUP5 DUP2 MSTORE PUSH1 0x20 ADD SWAP1 DUP2 MSTORE PUSH1 0x20 ADD PUSH1 0x0 KECCAK256 PUSH1 0x0 DUP4 DUP2 MSTORE PUSH1 0x20 ADD SWAP1 DUP2 MSTORE PUSH1 0x20 ADD PUSH1 0x0 KECCAK256 PUSH1 0x0 DUP3 DUP2 MSTORE PUSH1 0x20 ADD SWAP1 DUP2 MSTORE PUSH1 0x20 ADD PUSH1 0x0 KECCAK256 PUSH1 0xB ADD PUSH1 0x0 SWAP1 SLOAD SWAP1 PUSH2 0x100 EXP SWAP1 DIV PUSH1 0xFF AND PUSH2 0x678 JUMPI PUSH1 0x40 MLOAD PUSH32 0x8C379A000000000000000000000000000000000000000000000000000000000 DUP2 MSTORE PUSH1 0x4 ADD PUSH2 0x66F SWAP1 PUSH2 0x18CA JUMP JUMPDEST PUSH1 0x40 MLOAD DUP1 SWAP2 SUB SWAP1 REVERT JUMPDEST DUP6 DUP6 DUP6 PUSH1 0x0 DUP1 PUSH1 0x3 DUP2 GT ISZERO PUSH2 0x690 JUMPI PUSH2 0x68F PUSH2 0x1CE5 JUMP JUMPDEST JUMPDEST PUSH1 0x0 DUP1 DUP7 DUP2 MSTORE PUSH1 0x20 ADD SWAP1 DUP2 MSTORE PUSH1 0x20 ADD PUSH1 0x0 KECCAK256 PUSH1 0x0 DUP6 DUP2 MSTORE PUSH1 0x20 ADD SWAP1 DUP2 MSTORE PUSH1 0x20 ADD PUSH1 0x0 KECCAK256 PUSH1 0x0 DUP5 DUP2 MSTORE PUSH1 0x20 ADD SWAP1 DUP2 MSTORE PUSH1 0x20 ADD PUSH1 0x0 KECCAK256 PUSH1 0x6 ADD PUSH1 0x14 SWAP1 SLOAD SWAP1 PUSH2 0x100 EXP SWAP1 DIV PUSH1 0xFF AND PUSH1 0x3 DUP2 GT ISZERO PUSH2 0x6E7 JUMPI PUSH2 0x6E6 PUSH2 0x1CE5 JUMP JUMPDEST JUMPDEST EQ PUSH2 0x727 JUMPI PUSH1 0x40 MLOAD PUSH32 0x8C379A000000000000000000000000000000000000000000000000000000000 DUP2 MSTORE PUSH1 0x4 ADD PUSH2 0x71E SWAP1 PUSH2 0x18AA JUMP JUMPDEST PUSH1 0x40 MLOAD DUP1 SWAP2 SUB SWAP1 REVERT JUMPDEST PUSH2 0x734 DUP11 DUP11 DUP11 PUSH1 0x1 PUSH2 0x1248 JUMP JUMPDEST POP POP POP POP POP POP POP POP POP POP JUMP JUMPDEST DUP5 DUP5 DUP5 PUSH1 0x0 DUP1 DUP5 DUP2 MSTORE PUSH1 0x20 ADD SWAP1 DUP2 MSTORE PUSH1 0x20 ADD PUSH1 0x0 KECCAK256 PUSH1 0x0 DUP4 DUP2 MSTORE PUSH1 0x20 ADD SWAP1 DUP2 MSTORE PUSH1 0x20 ADD PUSH1 0x0 KECCAK256 PUSH1 0x0 DUP3 DUP2 MSTORE PUSH1 0x20 ADD SWAP1 DUP2 MSTORE PUSH1 0x20 ADD PUSH1 0x0 KECCAK256 PUSH1 0xB ADD PUSH1 0x0 SWAP1 SLOAD SWAP1 PUSH2 0x100 EXP SWAP1 DIV PUSH1 0xFF AND PUSH2 0x7C7 JUMPI PUSH1 0x40 MLOAD PUSH32 0x8C379A000000000000000000000000000000000000000000000000000000000 DUP2 MSTORE PUSH1 0x4 ADD PUSH2 0x7BE SWAP1 PUSH2 0x18CA JUMP JUMPDEST PUSH1 0x40 MLOAD DUP1 SWAP2 SUB SWAP1 REVERT JUMPDEST DUP8 DUP8 DUP8 PUSH1 0x1 DUP1 PUSH1 0x3 DUP2 GT ISZERO PUSH2 0x7DF JUMPI PUSH2 0x7DE PUSH2 0x1CE5 JUMP JUMPDEST JUMPDEST PUSH1 0x0 DUP1 DUP7 DUP2 MSTORE PUSH1 0x20 ADD SWAP1 DUP2 MSTORE PUSH1 0x20 ADD PUSH1 0x0 KECCAK256 PUSH1 0x0 DUP6 DUP2 MSTORE PUSH1 0x20 ADD SWAP1 DUP2 MSTORE PUSH1 0x20 ADD PUSH1 0x0 KECCAK256 PUSH1 0x0 DUP5 DUP2 MSTORE PUSH1 0x20 ADD SWAP1 DUP2 MSTORE PUSH1 0x20 ADD PUSH1 0x0 KECCAK256 PUSH1 0x6 ADD PUSH1 0x14 SWAP1 SLOAD SWAP1 PUSH2 0x100 EXP SWAP1 DIV PUSH1 0xFF AND PUSH1 0x3 DUP2 GT ISZERO PUSH2 0x836 JUMPI PUSH2 0x835 PUSH2 0x1CE5 JUMP JUMPDEST JUMPDEST EQ PUSH2 0x876 JUMPI PUSH1 0x40 MLOAD PUSH32 0x8C379A000000000000000000000000000000000000000000000000000000000 DUP2 MSTORE PUSH1 0x4 ADD PUSH2 0x86D SWAP1 PUSH2 0x18AA JUMP JUMPDEST PUSH1 0x40 MLOAD DUP1 SWAP2 SUB SWAP1 REVERT JUMPDEST PUSH1 0x0 DUP1 PUSH1 0x0 DUP15 DUP2 MSTORE PUSH1 0x20 ADD SWAP1 DUP2 MSTORE PUSH1 0x20 ADD PUSH1 0x0 KECCAK256 PUSH1 0x0 DUP14 DUP2 MSTORE PUSH1 0x20 ADD SWAP1 DUP2 MSTORE PUSH1 0x20 ADD PUSH1 0x0 KECCAK256 PUSH1 0x0 DUP13 DUP2 MSTORE PUSH1 0x20 ADD SWAP1 DUP2 MSTORE PUSH1 0x20 ADD PUSH1 0x0 KECCAK256 SWAP1 POP DUP10 PUSH20 0xFFFFFFFFFFFFFFFFFFFFFFFFFFFFFFFFFFFFFFFF AND DUP2 PUSH1 0x5 ADD PUSH1 0x0 SWAP1 SLOAD SWAP1 PUSH2 0x100 EXP SWAP1 DIV PUSH20 0xFFFFFFFFFFFFFFFFFFFFFFFFFFFFFFFFFFFFFFFF AND PUSH20 0xFFFFFFFFFFFFFFFFFFFFFFFFFFFFFFFFFFFFFFFF AND EQ ISZERO PUSH2 0x941 JUMPI PUSH1 0x40 MLOAD PUSH32 0x8C379A000000000000000000000000000000000000000000000000000000000 DUP2 MSTORE PUSH1 0x4 ADD PUSH2 0x938 SWAP1 PUSH2 0x18EA JUMP JUMPDEST PUSH1 0x40 MLOAD DUP1 SWAP2 SUB SWAP1 REVERT JUMPDEST DUP10 PUSH20 0xFFFFFFFFFFFFFFFFFFFFFFFFFFFFFFFFFFFFFFFF AND DUP2 PUSH1 0x6 ADD PUSH1 0x0 SWAP1 SLOAD SWAP1 PUSH2 0x100 EXP SWAP1 DIV PUSH20 0xFFFFFFFFFFFFFFFFFFFFFFFFFFFFFFFFFFFFFFFF AND PUSH20 0xFFFFFFFFFFFFFFFFFFFFFFFFFFFFFFFFFFFFFFFF AND EQ ISZERO PUSH2 0x9D4 JUMPI PUSH1 0x40 MLOAD PUSH32 0x8C379A000000000000000000000000000000000000000000000000000000000 DUP2 MSTORE PUSH1 0x4 ADD PUSH2 0x9CB SWAP1 PUSH2 0x198A JUMP JUMPDEST PUSH1 0x40 MLOAD DUP1 SWAP2 SUB SWAP1 REVERT JUMPDEST DUP1 PUSH1 0x7 ADD SLOAD DUP2 PUSH1 0x8 ADD SLOAD LT PUSH2 0xA1E JUMPI PUSH1 0x40 MLOAD PUSH32 0x8C379A000000000000000000000000000000000000000000000000000000000 DUP2 MSTORE PUSH1 0x4 ADD PUSH2 0xA15 SWAP1 PUSH2 0x19AA JUMP JUMPDEST PUSH1 0x40 MLOAD DUP1 SWAP2 SUB SWAP1 REVERT JUMPDEST PUSH1 0x0 DUP2 PUSH1 0xC ADD PUSH1 0x0 DUP13 PUSH20 0xFFFFFFFFFFFFFFFFFFFFFFFFFFFFFFFFFFFFFFFF AND PUSH20 0xFFFFFFFFFFFFFFFFFFFFFFFFFFFFFFFFFFFFFFFF AND DUP2 MSTORE PUSH1 0x20 ADD SWAP1 DUP2 MSTORE PUSH1 0x20 ADD PUSH1 0x0 KECCAK256 PUSH1 0x0 SWAP1 SLOAD SWAP1 PUSH2 0x100 EXP SWAP1 DIV PUSH1 0xFF AND PUSH1 0xFF AND EQ PUSH2 0xAB2 JUMPI PUSH1 0x40 MLOAD PUSH32 0x8C379A000000000000000000000000000000000000000000000000000000000 DUP2 MSTORE PUSH1 0x4 ADD PUSH2 0xAA9 SWAP1 PUSH2 0x188A JUMP JUMPDEST PUSH1 0x40 MLOAD DUP1 SWAP2 SUB SWAP1 REVERT JUMPDEST PUSH1 0x1 DUP10 PUSH1 0xFF AND EQ DUP1 PUSH2 0xAC7 JUMPI POP PUSH1 0x2 DUP10 PUSH1 0xFF AND EQ JUMPDEST PUSH2 0xB06 JUMPI PUSH1 0x40 MLOAD PUSH32 0x8C379A000000000000000000000000000000000000000000000000000000000 DUP2 MSTORE PUSH1 0x4 ADD PUSH2 0xAFD SWAP1 PUSH2 0x186A JUMP JUMPDEST PUSH1 0x40 MLOAD DUP1 SWAP2 SUB SWAP1 REVERT JUMPDEST PUSH1 0x0 DUP1 PUSH1 0x0 DUP16 DUP2 MSTORE PUSH1 0x20 ADD SWAP1 DUP2 MSTORE PUSH1 0x20 ADD PUSH1 0x0 KECCAK256 PUSH1 0x0 DUP15 DUP2 MSTORE PUSH1 0x20 ADD SWAP1 DUP2 MSTORE PUSH1 0x20 ADD PUSH1 0x0 KECCAK256 PUSH1 0x0 DUP14 DUP2 MSTORE PUSH1 0x20 ADD SWAP1 DUP2 MSTORE PUSH1 0x20 ADD PUSH1 0x0 KECCAK256 SWAP1 POP DUP10 DUP2 PUSH1 0xC ADD PUSH1 0x0 DUP14 PUSH20 0xFFFFFFFFFFFFFFFFFFFFFFFFFFFFFFFFFFFFFFFF AND PUSH20 0xFFFFFFFFFFFFFFFFFFFFFFFFFFFFFFFFFFFFFFFF AND DUP2 MSTORE PUSH1 0x20 ADD SWAP1 DUP2 MSTORE PUSH1 0x20 ADD PUSH1 0x0 KECCAK256 PUSH1 0x0 PUSH2 0x100 EXP DUP2 SLOAD DUP2 PUSH1 0xFF MUL NOT AND SWAP1 DUP4 PUSH1 0xFF AND MUL OR SWAP1 SSTORE POP PUSH1 0x1 DUP11 PUSH1 0xFF AND EQ ISZERO PUSH2 0xBBF JUMPI DUP1 PUSH1 0x9 ADD PUSH1 0x0 DUP2 SLOAD DUP1 SWAP3 SWAP2 SWAP1 PUSH2 0xBB9 SWAP1 PUSH2 0x1C6D JUMP JUMPDEST SWAP2 SWAP1 POP SSTORE POP JUMPDEST PUSH1 0x2 DUP11 PUSH1 0xFF AND EQ ISZERO PUSH2 0xBE6 JUMPI DUP1 PUSH1 0xA ADD PUSH1 0x0 DUP2 SLOAD DUP1 SWAP3 SWAP2 SWAP1 PUSH2 0xBE0 SWAP1 PUSH2 0x1C6D JUMP JUMPDEST SWAP2 SWAP1 POP SSTORE POP JUMPDEST DUP1 PUSH1 0x8 ADD PUSH1 0x0 DUP2 SLOAD DUP1 SWAP3 SWAP2 SWAP1 PUSH2 0xBFB SWAP1 PUSH2 0x1C6D JUMP JUMPDEST SWAP2 SWAP1 POP SSTORE POP PUSH32 0x20211B974ADBE11CE3687D51504CE7EF1FCFBB9C00405BA7ACA7B283903F345A DUP15 DUP15 DUP15 CALLER DUP15 PUSH1 0x40 MLOAD PUSH2 0xC37 SWAP6 SWAP5 SWAP4 SWAP3 SWAP2 SWAP1 PUSH2 0x1A46 JUMP JUMPDEST PUSH1 0x40 MLOAD DUP1 SWAP2 SUB SWAP1 LOG1 DUP1 PUSH1 0x7 ADD SLOAD DUP2 PUSH1 0x8 ADD SLOAD EQ ISZERO PUSH2 0xCFD JUMPI DUP1 PUSH1 0x9 ADD SLOAD DUP2 PUSH1 0xA ADD SLOAD GT ISZERO PUSH2 0xC82 JUMPI PUSH1 0x2 DUP2 PUSH1 0xB ADD PUSH1 0x1 PUSH2 0x100 EXP DUP2 SLOAD DUP2 PUSH1 0xFF MUL NOT AND SWAP1 DUP4 PUSH1 0xFF AND MUL OR SWAP1 SSTORE POP PUSH2 0xCA1 JUMP JUMPDEST PUSH1 0x1 DUP2 PUSH1 0xB ADD PUSH1 0x1 PUSH2 0x100 EXP DUP2 SLOAD DUP2 PUSH1 0xFF MUL NOT AND SWAP1 DUP4 PUSH1 0xFF AND MUL OR SWAP1 SSTORE POP JUMPDEST PUSH2 0xCAE DUP15 DUP15 DUP15 PUSH1 0x2 PUSH2 0x1248 JUMP JUMPDEST PUSH32 0xE59FDBC65A5DD63C529717C2A71D04B136038F05301755DE242DD05990C02814 DUP15 DUP15 DUP15 DUP5 PUSH1 0xB ADD PUSH1 0x1 SWAP1 SLOAD SWAP1 PUSH2 0x100 EXP SWAP1 DIV PUSH1 0xFF AND PUSH1 0x40 MLOAD PUSH2 0xCF4 SWAP5 SWAP4 SWAP3 SWAP2 SWAP1 PUSH2 0x1A99 JUMP JUMPDEST PUSH1 0x40 MLOAD DUP1 SWAP2 SUB SWAP1 LOG1 JUMPDEST POP POP POP POP POP POP POP POP POP POP POP POP POP POP JUMP JUMPDEST PUSH1 0x0 DUP1 PUSH1 0x0 DUP6 DUP2 MSTORE PUSH1 0x20 ADD SWAP1 DUP2 MSTORE PUSH1 0x20 ADD PUSH1 0x0 KECCAK256 PUSH1 0x0 DUP5 DUP2 MSTORE PUSH1 0x20 ADD SWAP1 DUP2 MSTORE PUSH1 0x20 ADD PUSH1 0x0 KECCAK256 PUSH1 0x0 DUP4 DUP2 MSTORE PUSH1 0x20 ADD SWAP1 DUP2 MSTORE PUSH1 0x20 ADD PUSH1 0x0 KECCAK256 PUSH1 0x6 ADD PUSH1 0x14 SWAP1 SLOAD SWAP1 PUSH2 0x100 EXP SWAP1 DIV PUSH1 0xFF AND SWAP1 POP SWAP4 SWAP3 POP POP POP JUMP JUMPDEST DUP5 DUP5 DUP5 PUSH1 0x0 DUP1 PUSH1 0x3 DUP2 GT ISZERO PUSH2 0xD75 JUMPI PUSH2 0xD74 PUSH2 0x1CE5 JUMP JUMPDEST JUMPDEST PUSH1 0x0 DUP1 DUP7 DUP2 MSTORE PUSH1 0x20 ADD SWAP1 DUP2 MSTORE PUSH1 0x20 ADD PUSH1 0x0 KECCAK256 PUSH1 0x0 DUP6 DUP2 MSTORE PUSH1 0x20 ADD SWAP1 DUP2 MSTORE PUSH1 0x20 ADD PUSH1 0x0 KECCAK256 PUSH1 0x0 DUP5 DUP2 MSTORE PUSH1 0x20 ADD SWAP1 DUP2 MSTORE PUSH1 0x20 ADD PUSH1 0x0 KECCAK256 PUSH1 0x6 ADD PUSH1 0x14 SWAP1 SLOAD SWAP1 PUSH2 0x100 EXP SWAP1 DIV PUSH1 0xFF AND PUSH1 0x3 DUP2 GT ISZERO PUSH2 0xDCC JUMPI PUSH2 0xDCB PUSH2 0x1CE5 JUMP JUMPDEST JUMPDEST EQ PUSH2 0xE0C JUMPI PUSH1 0x40 MLOAD PUSH32 0x8C379A000000000000000000000000000000000000000000000000000000000 DUP2 MSTORE PUSH1 0x4 ADD PUSH2 0xE03 SWAP1 PUSH2 0x18AA JUMP JUMPDEST PUSH1 0x40 MLOAD DUP1 SWAP2 SUB SWAP1 REVERT JUMPDEST DUP6 PUSH1 0x0 DUP2 MLOAD GT PUSH2 0xE51 JUMPI PUSH1 0x40 MLOAD PUSH32 0x8C379A000000000000000000000000000000000000000000000000000000000 DUP2 MSTORE PUSH1 0x4 ADD PUSH2 0xE48 SWAP1 PUSH2 0x196A JUMP JUMPDEST PUSH1 0x40 MLOAD DUP1 SWAP2 SUB SWAP1 REVERT JUMPDEST DUP6 PUSH1 0x0 DUP2 MLOAD GT PUSH2 0xE96 JUMPI PUSH1 0x40 MLOAD PUSH32 0x8C379A000000000000000000000000000000000000000000000000000000000 DUP2 MSTORE PUSH1 0x4 ADD PUSH2 0xE8D SWAP1 PUSH2 0x196A JUMP JUMPDEST PUSH1 0x40 MLOAD DUP1 SWAP2 SUB SWAP1 REVERT JUMPDEST DUP8 PUSH1 0x0 DUP1 DUP14 DUP2 MSTORE PUSH1 0x20 ADD SWAP1 DUP2 MSTORE PUSH1 0x20 ADD PUSH1 0x0 KECCAK256 PUSH1 0x0 DUP13 DUP2 MSTORE PUSH1 0x20 ADD SWAP1 DUP2 MSTORE PUSH1 0x20 ADD PUSH1 0x0 KECCAK256 PUSH1 0x0 DUP12 DUP2 MSTORE PUSH1 0x20 ADD SWAP1 DUP2 MSTORE PUSH1 0x20 ADD PUSH1 0x0 KECCAK256 PUSH1 0x3 ADD SWAP1 DUP1 MLOAD SWAP1 PUSH1 0x20 ADD SWAP1 PUSH2 0xEE1 SWAP3 SWAP2 SWAP1 PUSH2 0x12AD JUMP JUMPDEST POP DUP7 PUSH1 0x0 DUP1 DUP14 DUP2 MSTORE PUSH1 0x20 ADD SWAP1 DUP2 MSTORE PUSH1 0x20 ADD PUSH1 0x0 KECCAK256 PUSH1 0x0 DUP13 DUP2 MSTORE PUSH1 0x20 ADD SWAP1 DUP2 MSTORE PUSH1 0x20 ADD PUSH1 0x0 KECCAK256 PUSH1 0x0 DUP12 DUP2 MSTORE PUSH1 0x20 ADD SWAP1 DUP2 MSTORE PUSH1 0x20 ADD PUSH1 0x0 KECCAK256 PUSH1 0x4 ADD SWAP1 DUP1 MLOAD SWAP1 PUSH1 0x20 ADD SWAP1 PUSH2 0xF2D SWAP3 SWAP2 SWAP1 PUSH2 0x12AD JUMP JUMPDEST POP POP POP POP POP POP POP POP POP POP POP POP JUMP JUMPDEST PUSH1 0x0 DUP1 PUSH1 0x0 DUP6 DUP2 MSTORE PUSH1 0x20 ADD SWAP1 DUP2 MSTORE PUSH1 0x20 ADD PUSH1 0x0 KECCAK256 PUSH1 0x0 DUP5 DUP2 MSTORE PUSH1 0x20 ADD SWAP1 DUP2 MSTORE PUSH1 0x20 ADD PUSH1 0x0 KECCAK256 PUSH1 0x0 DUP4 DUP2 MSTORE PUSH1 0x20 ADD SWAP1 DUP2 MSTORE PUSH1 0x20 ADD PUSH1 0x0 KECCAK256 PUSH1 0x9 ADD SLOAD SWAP1 POP SWAP4 SWAP3 POP POP POP JUMP JUMPDEST DUP5 PUSH1 0x0 DUP2 MLOAD GT PUSH2 0xFC3 JUMPI PUSH1 0x40 MLOAD PUSH32 0x8C379A000000000000000000000000000000000000000000000000000000000 DUP2 MSTORE PUSH1 0x4 ADD PUSH2 0xFBA SWAP1 PUSH2 0x196A JUMP JUMPDEST PUSH1 0x40 MLOAD DUP1 SWAP2 SUB SWAP1 REVERT JUMPDEST DUP5 PUSH1 0x0 DUP2 MLOAD GT PUSH2 0x1008 JUMPI PUSH1 0x40 MLOAD PUSH32 0x8C379A000000000000000000000000000000000000000000000000000000000 DUP2 MSTORE PUSH1 0x4 ADD PUSH2 0xFFF SWAP1 PUSH2 0x196A JUMP JUMPDEST PUSH1 0x40 MLOAD DUP1 SWAP2 SUB SWAP1 REVERT JUMPDEST PUSH1 0x0 DUP1 PUSH1 0x0 DUP13 DUP2 MSTORE PUSH1 0x20 ADD SWAP1 DUP2 MSTORE PUSH1 0x20 ADD PUSH1 0x0 KECCAK256 PUSH1 0x0 DUP12 DUP2 MSTORE PUSH1 0x20 ADD SWAP1 DUP2 MSTORE PUSH1 0x20 ADD PUSH1 0x0 KECCAK256 PUSH1 0x0 DUP11 DUP2 MSTORE PUSH1 0x20 ADD SWAP1 DUP2 MSTORE PUSH1 0x20 ADD PUSH1 0x0 KECCAK256 SWAP1 POP PUSH1 0x0 ISZERO ISZERO DUP2 PUSH1 0xB ADD PUSH1 0x0 SWAP1 SLOAD SWAP1 PUSH2 0x100 EXP SWAP1 DIV PUSH1 0xFF AND ISZERO ISZERO EQ PUSH2 0x1098 JUMPI PUSH1 0x40 MLOAD PUSH32 0x8C379A000000000000000000000000000000000000000000000000000000000 DUP2 MSTORE PUSH1 0x4 ADD PUSH2 0x108F SWAP1 PUSH2 0x190A JUMP JUMPDEST PUSH1 0x40 MLOAD DUP1 SWAP2 SUB SWAP1 REVERT JUMPDEST DUP11 DUP2 PUSH1 0x0 ADD DUP2 SWAP1 SSTORE POP DUP10 DUP2 PUSH1 0x1 ADD DUP2 SWAP1 SSTORE POP DUP9 DUP2 PUSH1 0x2 ADD DUP2 SWAP1 SSTORE POP DUP8 DUP2 PUSH1 0x3 ADD SWAP1 DUP1 MLOAD SWAP1 PUSH1 0x20 ADD SWAP1 PUSH2 0x10CB SWAP3 SWAP2 SWAP1 PUSH2 0x12AD JUMP JUMPDEST POP DUP7 DUP2 PUSH1 0x4 ADD SWAP1 DUP1 MLOAD SWAP1 PUSH1 0x20 ADD SWAP1 PUSH2 0x10E4 SWAP3 SWAP2 SWAP1 PUSH2 0x12AD JUMP JUMPDEST POP DUP6 DUP2 PUSH1 0x5 ADD PUSH1 0x0 PUSH2 0x100 EXP DUP2 SLOAD DUP2 PUSH20 0xFFFFFFFFFFFFFFFFFFFFFFFFFFFFFFFFFFFFFFFF MUL NOT AND SWAP1 DUP4 PUSH20 0xFFFFFFFFFFFFFFFFFFFFFFFFFFFFFFFFFFFFFFFF AND MUL OR SWAP1 SSTORE POP DUP5 DUP2 PUSH1 0x6 ADD PUSH1 0x0 PUSH2 0x100 EXP DUP2 SLOAD DUP2 PUSH20 0xFFFFFFFFFFFFFFFFFFFFFFFFFFFFFFFFFFFFFFFF MUL NOT AND SWAP1 DUP4 PUSH20 0xFFFFFFFFFFFFFFFFFFFFFFFFFFFFFFFFFFFFFFFF AND MUL OR SWAP1 SSTORE POP PUSH1 0x0 DUP2 PUSH1 0x6 ADD PUSH1 0x14 PUSH2 0x100 EXP DUP2 SLOAD DUP2 PUSH1 0xFF MUL NOT AND SWAP1 DUP4 PUSH1 0x3 DUP2 GT ISZERO PUSH2 0x1193 JUMPI PUSH2 0x1192 PUSH2 0x1CE5 JUMP JUMPDEST JUMPDEST MUL OR SWAP1 SSTORE POP DUP4 DUP2 PUSH1 0x7 ADD DUP2 SWAP1 SSTORE POP PUSH1 0x0 DUP2 PUSH1 0x8 ADD DUP2 SWAP1 SSTORE POP PUSH1 0x0 DUP2 PUSH1 0x9 ADD DUP2 SWAP1 SSTORE POP PUSH1 0x0 DUP2 PUSH1 0xA ADD DUP2 SWAP1 SSTORE POP PUSH1 0x1 DUP2 PUSH1 0xB ADD PUSH1 0x0 PUSH2 0x100 EXP DUP2 SLOAD DUP2 PUSH1 0xFF MUL NOT AND SWAP1 DUP4 ISZERO ISZERO MUL OR SWAP1 SSTORE POP PUSH1 0x0 DUP2 PUSH1 0xB ADD PUSH1 0x1 PUSH2 0x100 EXP DUP2 SLOAD DUP2 PUSH1 0xFF MUL NOT AND SWAP1 DUP4 PUSH1 0xFF AND MUL OR SWAP1 SSTORE POP PUSH32 0xFA127411522A1139D16C2142DB999E127AEF2288BD98A0558006BB115666AB1B DUP12 DUP12 DUP12 DUP10 DUP10 DUP10 PUSH1 0x40 MLOAD PUSH2 0x1233 SWAP7 SWAP6 SWAP5 SWAP4 SWAP3 SWAP2 SWAP1 PUSH2 0x19E5 JUMP JUMPDEST PUSH1 0x40 MLOAD DUP1 SWAP2 SUB SWAP1 LOG1 POP POP POP POP POP POP POP POP POP POP POP JUMP JUMPDEST DUP1 PUSH1 0x0 DUP1 DUP7 DUP2 MSTORE PUSH1 0x20 ADD SWAP1 DUP2 MSTORE PUSH1 0x20 ADD PUSH1 0x0 KECCAK256 PUSH1 0x0 DUP6 DUP2 MSTORE PUSH1 0x20 ADD SWAP1 DUP2 MSTORE PUSH1 0x20 ADD PUSH1 0x0 KECCAK256 PUSH1 0x0 DUP5 DUP2 MSTORE PUSH1 0x20 ADD SWAP1 DUP2 MSTORE PUSH1 0x20 ADD PUSH1 0x0 KECCAK256 PUSH1 0x6 ADD PUSH1 0x14 PUSH2 0x100 EXP DUP2 SLOAD DUP2 PUSH1 0xFF MUL NOT AND SWAP1 DUP4 PUSH1 0x3 DUP2 GT ISZERO PUSH2 0x12A2 JUMPI PUSH2 0x12A1 PUSH2 0x1CE5 JUMP JUMPDEST JUMPDEST MUL OR SWAP1 SSTORE POP POP POP POP POP JUMP JUMPDEST DUP3 DUP1 SLOAD PUSH2 0x12B9 SWAP1 PUSH2 0x1C0A JUMP JUMPDEST SWAP1 PUSH1 0x0 MSTORE PUSH1 0x20 PUSH1 0x0 KECCAK256 SWAP1 PUSH1 0x1F ADD PUSH1 0x20 SWAP1 DIV DUP2 ADD SWAP3 DUP3 PUSH2 0x12DB JUMPI PUSH1 0x0 DUP6 SSTORE PUSH2 0x1322 JUMP JUMPDEST DUP3 PUSH1 0x1F LT PUSH2 0x12F4 JUMPI DUP1 MLOAD PUSH1 0xFF NOT AND DUP4 DUP1 ADD OR DUP6 SSTORE PUSH2 0x1322 JUMP JUMPDEST DUP3 DUP1 ADD PUSH1 0x1 ADD DUP6 SSTORE DUP3 ISZERO PUSH2 0x1322 JUMPI SWAP2 DUP3 ADD JUMPDEST DUP3 DUP2 GT ISZERO PUSH2 0x1321 JUMPI DUP3 MLOAD DUP3 SSTORE SWAP2 PUSH1 0x20 ADD SWAP2 SWAP1 PUSH1 0x1 ADD SWAP1 PUSH2 0x1306 JUMP JUMPDEST JUMPDEST POP SWAP1 POP PUSH2 0x132F SWAP2 SWAP1 PUSH2 0x1333 JUMP JUMPDEST POP SWAP1 JUMP JUMPDEST JUMPDEST DUP1 DUP3 GT ISZERO PUSH2 0x134C JUMPI PUSH1 0x0 DUP2 PUSH1 0x0 SWAP1 SSTORE POP PUSH1 0x1 ADD PUSH2 0x1334 JUMP JUMPDEST POP SWAP1 JUMP JUMPDEST PUSH1 0x0 PUSH2 0x1363 PUSH2 0x135E DUP5 PUSH2 0x1B03 JUMP JUMPDEST PUSH2 0x1ADE JUMP JUMPDEST SWAP1 POP DUP3 DUP2 MSTORE PUSH1 0x20 DUP2 ADD DUP5 DUP5 DUP5 ADD GT ISZERO PUSH2 0x137F JUMPI PUSH2 0x137E PUSH2 0x1D77 JUMP JUMPDEST JUMPDEST PUSH2 0x138A DUP5 DUP3 DUP6 PUSH2 0x1BFB JUMP JUMPDEST POP SWAP4 SWAP3 POP POP POP JUMP JUMPDEST PUSH1 0x0 DUP2 CALLDATALOAD SWAP1 POP PUSH2 0x13A1 DUP2 PUSH2 0x20C4 JUMP JUMPDEST SWAP3 SWAP2 POP POP JUMP JUMPDEST PUSH1 0x0 DUP2 CALLDATALOAD SWAP1 POP PUSH2 0x13B6 DUP2 PUSH2 0x20DB JUMP JUMPDEST SWAP3 SWAP2 POP POP JUMP JUMPDEST PUSH1 0x0 DUP3 PUSH1 0x1F DUP4 ADD SLT PUSH2 0x13D1 JUMPI PUSH2 0x13D0 PUSH2 0x1D72 JUMP JUMPDEST JUMPDEST DUP2 CALLDATALOAD PUSH2 0x13E1 DUP5 DUP3 PUSH1 0x20 DUP7 ADD PUSH2 0x1350 JUMP JUMPDEST SWAP2 POP POP SWAP3 SWAP2 POP POP JUMP JUMPDEST PUSH1 0x0 DUP2 CALLDATALOAD SWAP1 POP PUSH2 0x13F9 DUP2 PUSH2 0x20F2 JUMP JUMPDEST SWAP3 SWAP2 POP POP JUMP JUMPDEST PUSH1 0x0 DUP2 CALLDATALOAD SWAP1 POP PUSH2 0x140E DUP2 PUSH2 0x2109 JUMP JUMPDEST SWAP3 SWAP2 POP POP JUMP JUMPDEST PUSH1 0x0 DUP1 PUSH1 0x0 PUSH1 0x60 DUP5 DUP7 SUB SLT ISZERO PUSH2 0x142D JUMPI PUSH2 0x142C PUSH2 0x1D81 JUMP JUMPDEST JUMPDEST PUSH1 0x0 PUSH2 0x143B DUP7 DUP3 DUP8 ADD PUSH2 0x13EA JUMP JUMPDEST SWAP4 POP POP PUSH1 0x20 PUSH2 0x144C DUP7 DUP3 DUP8 ADD PUSH2 0x13EA JUMP JUMPDEST SWAP3 POP POP PUSH1 0x40 PUSH2 0x145D DUP7 DUP3 DUP8 ADD PUSH2 0x13EA JUMP JUMPDEST SWAP2 POP POP SWAP3 POP SWAP3 POP SWAP3 JUMP JUMPDEST PUSH1 0x0 DUP1 PUSH1 0x0 DUP1 PUSH1 0x0 PUSH1 0xA0 DUP7 DUP9 SUB SLT ISZERO PUSH2 0x1483 JUMPI PUSH2 0x1482 PUSH2 0x1D81 JUMP JUMPDEST JUMPDEST PUSH1 0x0 PUSH2 0x1491 DUP9 DUP3 DUP10 ADD PUSH2 0x13EA JUMP JUMPDEST SWAP6 POP POP PUSH1 0x20 PUSH2 0x14A2 DUP9 DUP3 DUP10 ADD PUSH2 0x13EA JUMP JUMPDEST SWAP5 POP POP PUSH1 0x40 PUSH2 0x14B3 DUP9 DUP3 DUP10 ADD PUSH2 0x13EA JUMP JUMPDEST SWAP4 POP POP PUSH1 0x60 PUSH2 0x14C4 DUP9 DUP3 DUP10 ADD PUSH2 0x1392 JUMP JUMPDEST SWAP3 POP POP PUSH1 0x80 PUSH2 0x14D5 DUP9 DUP3 DUP10 ADD PUSH2 0x13FF JUMP JUMPDEST SWAP2 POP POP SWAP3 SWAP6 POP SWAP3 SWAP6 SWAP1 SWAP4 POP JUMP JUMPDEST PUSH1 0x0 DUP1 PUSH1 0x0 DUP1 PUSH1 0x0 PUSH1 0xA0 DUP7 DUP9 SUB SLT ISZERO PUSH2 0x14FE JUMPI PUSH2 0x14FD PUSH2 0x1D81 JUMP JUMPDEST JUMPDEST PUSH1 0x0 PUSH2 0x150C DUP9 DUP3 DUP10 ADD PUSH2 0x13EA JUMP JUMPDEST SWAP6 POP POP PUSH1 0x20 PUSH2 0x151D DUP9 DUP3 DUP10 ADD PUSH2 0x13EA JUMP JUMPDEST SWAP5 POP POP PUSH1 0x40 PUSH2 0x152E DUP9 DUP3 DUP10 ADD PUSH2 0x13EA JUMP JUMPDEST SWAP4 POP POP PUSH1 0x60 DUP7 ADD CALLDATALOAD PUSH8 0xFFFFFFFFFFFFFFFF DUP2 GT ISZERO PUSH2 0x154F JUMPI PUSH2 0x154E PUSH2 0x1D7C JUMP JUMPDEST JUMPDEST PUSH2 0x155B DUP9 DUP3 DUP10 ADD PUSH2 0x13BC JUMP JUMPDEST SWAP3 POP POP PUSH1 0x80 DUP7 ADD CALLDATALOAD PUSH8 0xFFFFFFFFFFFFFFFF DUP2 GT ISZERO PUSH2 0x157C JUMPI PUSH2 0x157B PUSH2 0x1D7C JUMP JUMPDEST JUMPDEST PUSH2 0x1588 DUP9 DUP3 DUP10 ADD PUSH2 0x13BC JUMP JUMPDEST SWAP2 POP POP SWAP3 SWAP6 POP SWAP3 SWAP6 SWAP1 SWAP4 POP JUMP JUMPDEST PUSH1 0x0 DUP1 PUSH1 0x0 DUP1 PUSH1 0x0 DUP1 PUSH1 0x0 DUP1 PUSH2 0x100 DUP10 DUP12 SUB SLT ISZERO PUSH2 0x15B6 JUMPI PUSH2 0x15B5 PUSH2 0x1D81 JUMP JUMPDEST JUMPDEST PUSH1 0x0 PUSH2 0x15C4 DUP12 DUP3 DUP13 ADD PUSH2 0x13EA JUMP JUMPDEST SWAP9 POP POP PUSH1 0x20 PUSH2 0x15D5 DUP12 DUP3 DUP13 ADD PUSH2 0x13EA JUMP JUMPDEST SWAP8 POP POP PUSH1 0x40 PUSH2 0x15E6 DUP12 DUP3 DUP13 ADD PUSH2 0x13EA JUMP JUMPDEST SWAP7 POP POP PUSH1 0x60 DUP10 ADD CALLDATALOAD PUSH8 0xFFFFFFFFFFFFFFFF DUP2 GT ISZERO PUSH2 0x1607 JUMPI PUSH2 0x1606 PUSH2 0x1D7C JUMP JUMPDEST JUMPDEST PUSH2 0x1613 DUP12 DUP3 DUP13 ADD PUSH2 0x13BC JUMP JUMPDEST SWAP6 POP POP PUSH1 0x80 DUP10 ADD CALLDATALOAD PUSH8 0xFFFFFFFFFFFFFFFF DUP2 GT ISZERO PUSH2 0x1634 JUMPI PUSH2 0x1633 PUSH2 0x1D7C JUMP JUMPDEST JUMPDEST PUSH2 0x1640 DUP12 DUP3 DUP13 ADD PUSH2 0x13BC JUMP JUMPDEST SWAP5 POP POP PUSH1 0xA0 PUSH2 0x1651 DUP12 DUP3 DUP13 ADD PUSH2 0x13A7 JUMP JUMPDEST SWAP4 POP POP PUSH1 0xC0 PUSH2 0x1662 DUP12 DUP3 DUP13 ADD PUSH2 0x13A7 JUMP JUMPDEST SWAP3 POP POP PUSH1 0xE0 PUSH2 0x1673 DUP12 DUP3 DUP13 ADD PUSH2 0x13EA JUMP JUMPDEST SWAP2 POP POP SWAP3 SWAP6 SWAP9 POP SWAP3 SWAP6 SWAP9 SWAP1 SWAP4 SWAP7 POP JUMP JUMPDEST PUSH2 0x168C DUP2 PUSH2 0x1BB3 JUMP JUMPDEST DUP3 MSTORE POP POP JUMP JUMPDEST PUSH2 0x169B DUP2 PUSH2 0x1B45 JUMP JUMPDEST DUP3 MSTORE POP POP JUMP JUMPDEST PUSH2 0x16AA DUP2 PUSH2 0x1BC5 JUMP JUMPDEST DUP3 MSTORE POP POP JUMP JUMPDEST PUSH1 0x0 PUSH2 0x16BD PUSH1 0x57 DUP4 PUSH2 0x1B34 JUMP JUMPDEST SWAP2 POP PUSH2 0x16C8 DUP3 PUSH2 0x1D97 JUMP JUMPDEST PUSH1 0x60 DUP3 ADD SWAP1 POP SWAP2 SWAP1 POP JUMP JUMPDEST PUSH1 0x0 PUSH2 0x16E0 PUSH1 0x2D DUP4 PUSH2 0x1B34 JUMP JUMPDEST SWAP2 POP PUSH2 0x16EB DUP3 PUSH2 0x1E0C JUMP JUMPDEST PUSH1 0x40 DUP3 ADD SWAP1 POP SWAP2 SWAP1 POP JUMP JUMPDEST PUSH1 0x0 PUSH2 0x1703 PUSH1 0x20 DUP4 PUSH2 0x1B34 JUMP JUMPDEST SWAP2 POP PUSH2 0x170E DUP3 PUSH2 0x1E5B JUMP JUMPDEST PUSH1 0x20 DUP3 ADD SWAP1 POP SWAP2 SWAP1 POP JUMP JUMPDEST PUSH1 0x0 PUSH2 0x1726 PUSH1 0x1D DUP4 PUSH2 0x1B34 JUMP JUMPDEST SWAP2 POP PUSH2 0x1731 DUP3 PUSH2 0x1E84 JUMP JUMPDEST PUSH1 0x20 DUP3 ADD SWAP1 POP SWAP2 SWAP1 POP JUMP JUMPDEST PUSH1 0x0 PUSH2 0x1749 PUSH1 0x30 DUP4 PUSH2 0x1B34 JUMP JUMPDEST SWAP2 POP PUSH2 0x1754 DUP3 PUSH2 0x1EAD JUMP JUMPDEST PUSH1 0x40 DUP3 ADD SWAP1 POP SWAP2 SWAP1 POP JUMP JUMPDEST PUSH1 0x0 PUSH2 0x176C PUSH1 0x40 DUP4 PUSH2 0x1B34 JUMP JUMPDEST SWAP2 POP PUSH2 0x1777 DUP3 PUSH2 0x1EFC JUMP JUMPDEST PUSH1 0x40 DUP3 ADD SWAP1 POP SWAP2 SWAP1 POP JUMP JUMPDEST PUSH1 0x0 PUSH2 0x178F PUSH1 0x3D DUP4 PUSH2 0x1B34 JUMP JUMPDEST SWAP2 POP PUSH2 0x179A DUP3 PUSH2 0x1F4B JUMP JUMPDEST PUSH1 0x40 DUP3 ADD SWAP1 POP SWAP2 SWAP1 POP JUMP JUMPDEST PUSH1 0x0 PUSH2 0x17B2 PUSH1 0x4A DUP4 PUSH2 0x1B34 JUMP JUMPDEST SWAP2 POP PUSH2 0x17BD DUP3 PUSH2 0x1F9A JUMP JUMPDEST PUSH1 0x60 DUP3 ADD SWAP1 POP SWAP2 SWAP1 POP JUMP JUMPDEST PUSH1 0x0 PUSH2 0x17D5 PUSH1 0x15 DUP4 PUSH2 0x1B34 JUMP JUMPDEST SWAP2 POP PUSH2 0x17E0 DUP3 PUSH2 0x200F JUMP JUMPDEST PUSH1 0x20 DUP3 ADD SWAP1 POP SWAP2 SWAP1 POP JUMP JUMPDEST PUSH1 0x0 PUSH2 0x17F8 PUSH1 0x39 DUP4 PUSH2 0x1B34 JUMP JUMPDEST SWAP2 POP PUSH2 0x1803 DUP3 PUSH2 0x2038 JUMP JUMPDEST PUSH1 0x40 DUP3 ADD SWAP1 POP SWAP2 SWAP1 POP JUMP JUMPDEST PUSH1 0x0 PUSH2 0x181B PUSH1 0x20 DUP4 PUSH2 0x1B34 JUMP JUMPDEST SWAP2 POP PUSH2 0x1826 DUP3 PUSH2 0x2087 JUMP JUMPDEST PUSH1 0x20 DUP3 ADD SWAP1 POP SWAP2 SWAP1 POP JUMP JUMPDEST PUSH2 0x183A DUP2 PUSH2 0x1B9C JUMP JUMPDEST DUP3 MSTORE POP POP JUMP JUMPDEST PUSH2 0x1849 DUP2 PUSH2 0x1BA6 JUMP JUMPDEST DUP3 MSTORE POP POP JUMP JUMPDEST PUSH1 0x0 PUSH1 0x20 DUP3 ADD SWAP1 POP PUSH2 0x1864 PUSH1 0x0 DUP4 ADD DUP5 PUSH2 0x16A1 JUMP JUMPDEST SWAP3 SWAP2 POP POP JUMP JUMPDEST PUSH1 0x0 PUSH1 0x20 DUP3 ADD SWAP1 POP DUP2 DUP2 SUB PUSH1 0x0 DUP4 ADD MSTORE PUSH2 0x1883 DUP2 PUSH2 0x16B0 JUMP JUMPDEST SWAP1 POP SWAP2 SWAP1 POP JUMP JUMPDEST PUSH1 0x0 PUSH1 0x20 DUP3 ADD SWAP1 POP DUP2 DUP2 SUB PUSH1 0x0 DUP4 ADD MSTORE PUSH2 0x18A3 DUP2 PUSH2 0x16D3 JUMP JUMPDEST SWAP1 POP SWAP2 SWAP1 POP JUMP JUMPDEST PUSH1 0x0 PUSH1 0x20 DUP3 ADD SWAP1 POP DUP2 DUP2 SUB PUSH1 0x0 DUP4 ADD MSTORE PUSH2 0x18C3 DUP2 PUSH2 0x16F6 JUMP JUMPDEST SWAP1 POP SWAP2 SWAP1 POP JUMP JUMPDEST PUSH1 0x0 PUSH1 0x20 DUP3 ADD SWAP1 POP DUP2 DUP2 SUB PUSH1 0x0 DUP4 ADD MSTORE PUSH2 0x18E3 DUP2 PUSH2 0x1719 JUMP JUMPDEST SWAP1 POP SWAP2 SWAP1 POP JUMP JUMPDEST PUSH1 0x0 PUSH1 0x20 DUP3 ADD SWAP1 POP DUP2 DUP2 SUB PUSH1 0x0 DUP4 ADD MSTORE PUSH2 0x1903 DUP2 PUSH2 0x173C JUMP JUMPDEST SWAP1 POP SWAP2 SWAP1 POP JUMP JUMPDEST PUSH1 0x0 PUSH1 0x20 DUP3 ADD SWAP1 POP DUP2 DUP2 SUB PUSH1 0x0 DUP4 ADD MSTORE PUSH2 0x1923 DUP2 PUSH2 0x175F JUMP JUMPDEST SWAP1 POP SWAP2 SWAP1 POP JUMP JUMPDEST PUSH1 0x0 PUSH1 0x20 DUP3 ADD SWAP1 POP DUP2 DUP2 SUB PUSH1 0x0 DUP4 ADD MSTORE PUSH2 0x1943 DUP2 PUSH2 0x1782 JUMP JUMPDEST SWAP1 POP SWAP2 SWAP1 POP JUMP JUMPDEST PUSH1 0x0 PUSH1 0x20 DUP3 ADD SWAP1 POP DUP2 DUP2 SUB PUSH1 0x0 DUP4 ADD MSTORE PUSH2 0x1963 DUP2 PUSH2 0x17A5 JUMP JUMPDEST SWAP1 POP SWAP2 SWAP1 POP JUMP JUMPDEST PUSH1 0x0 PUSH1 0x20 DUP3 ADD SWAP1 POP DUP2 DUP2 SUB PUSH1 0x0 DUP4 ADD MSTORE PUSH2 0x1983 DUP2 PUSH2 0x17C8 JUMP JUMPDEST SWAP1 POP SWAP2 SWAP1 POP JUMP JUMPDEST PUSH1 0x0 PUSH1 0x20 DUP3 ADD SWAP1 POP DUP2 DUP2 SUB PUSH1 0x0 DUP4 ADD MSTORE PUSH2 0x19A3 DUP2 PUSH2 0x17EB JUMP JUMPDEST SWAP1 POP SWAP2 SWAP1 POP JUMP JUMPDEST PUSH1 0x0 PUSH1 0x20 DUP3 ADD SWAP1 POP DUP2 DUP2 SUB PUSH1 0x0 DUP4 ADD MSTORE PUSH2 0x19C3 DUP2 PUSH2 0x180E JUMP JUMPDEST SWAP1 POP SWAP2 SWAP1 POP JUMP JUMPDEST PUSH1 0x0 PUSH1 0x20 DUP3 ADD SWAP1 POP PUSH2 0x19DF PUSH1 0x0 DUP4 ADD DUP5 PUSH2 0x1831 JUMP JUMPDEST SWAP3 SWAP2 POP POP JUMP JUMPDEST PUSH1 0x0 PUSH1 0xC0 DUP3 ADD SWAP1 POP PUSH2 0x19FA PUSH1 0x0 DUP4 ADD DUP10 PUSH2 0x1831 JUMP JUMPDEST PUSH2 0x1A07 PUSH1 0x20 DUP4 ADD DUP9 PUSH2 0x1831 JUMP JUMPDEST PUSH2 0x1A14 PUSH1 0x40 DUP4 ADD DUP8 PUSH2 0x1831 JUMP JUMPDEST PUSH2 0x1A21 PUSH1 0x60 DUP4 ADD DUP7 PUSH2 0x1683 JUMP JUMPDEST PUSH2 0x1A2E PUSH1 0x80 DUP4 ADD DUP6 PUSH2 0x1683 JUMP JUMPDEST PUSH2 0x1A3B PUSH1 0xA0 DUP4 ADD DUP5 PUSH2 0x1831 JUMP JUMPDEST SWAP8 SWAP7 POP POP POP POP POP POP POP JUMP JUMPDEST PUSH1 0x0 PUSH1 0xA0 DUP3 ADD SWAP1 POP PUSH2 0x1A5B PUSH1 0x0 DUP4 ADD DUP9 PUSH2 0x1831 JUMP JUMPDEST PUSH2 0x1A68 PUSH1 0x20 DUP4 ADD DUP8 PUSH2 0x1831 JUMP JUMPDEST PUSH2 0x1A75 PUSH1 0x40 DUP4 ADD DUP7 PUSH2 0x1831 JUMP JUMPDEST PUSH2 0x1A82 PUSH1 0x60 DUP4 ADD DUP6 PUSH2 0x1692 JUMP JUMPDEST PUSH2 0x1A8F PUSH1 0x80 DUP4 ADD DUP5 PUSH2 0x1840 JUMP JUMPDEST SWAP7 SWAP6 POP POP POP POP POP POP JUMP JUMPDEST PUSH1 0x0 PUSH1 0x80 DUP3 ADD SWAP1 POP PUSH2 0x1AAE PUSH1 0x0 DUP4 ADD DUP8 PUSH2 0x1831 JUMP JUMPDEST PUSH2 0x1ABB PUSH1 0x20 DUP4 ADD DUP7 PUSH2 0x1831 JUMP JUMPDEST PUSH2 0x1AC8 PUSH1 0x40 DUP4 ADD DUP6 PUSH2 0x1831 JUMP JUMPDEST PUSH2 0x1AD5 PUSH1 0x60 DUP4 ADD DUP5 PUSH2 0x1840 JUMP JUMPDEST SWAP6 SWAP5 POP POP POP POP POP JUMP JUMPDEST PUSH1 0x0 PUSH2 0x1AE8 PUSH2 0x1AF9 JUMP JUMPDEST SWAP1 POP PUSH2 0x1AF4 DUP3 DUP3 PUSH2 0x1C3C JUMP JUMPDEST SWAP2 SWAP1 POP JUMP JUMPDEST PUSH1 0x0 PUSH1 0x40 MLOAD SWAP1 POP SWAP1 JUMP JUMPDEST PUSH1 0x0 PUSH8 0xFFFFFFFFFFFFFFFF DUP3 GT ISZERO PUSH2 0x1B1E JUMPI PUSH2 0x1B1D PUSH2 0x1D43 JUMP JUMPDEST JUMPDEST PUSH2 0x1B27 DUP3 PUSH2 0x1D86 JUMP JUMPDEST SWAP1 POP PUSH1 0x20 DUP2 ADD SWAP1 POP SWAP2 SWAP1 POP JUMP JUMPDEST PUSH1 0x0 DUP3 DUP3 MSTORE PUSH1 0x20 DUP3 ADD SWAP1 POP SWAP3 SWAP2 POP POP JUMP JUMPDEST PUSH1 0x0 PUSH2 0x1B50 DUP3 PUSH2 0x1B7C JUMP JUMPDEST SWAP1 POP SWAP2 SWAP1 POP JUMP JUMPDEST PUSH1 0x0 PUSH2 0x1B62 DUP3 PUSH2 0x1B7C JUMP JUMPDEST SWAP1 POP SWAP2 SWAP1 POP JUMP JUMPDEST PUSH1 0x0 DUP2 SWAP1 POP PUSH2 0x1B77 DUP3 PUSH2 0x20B0 JUMP JUMPDEST SWAP2 SWAP1 POP JUMP JUMPDEST PUSH1 0x0 PUSH20 0xFFFFFFFFFFFFFFFFFFFFFFFFFFFFFFFFFFFFFFFF DUP3 AND SWAP1 POP SWAP2 SWAP1 POP JUMP JUMPDEST PUSH1 0x0 DUP2 SWAP1 POP SWAP2 SWAP1 POP JUMP JUMPDEST PUSH1 0x0 PUSH1 0xFF DUP3 AND SWAP1 POP SWAP2 SWAP1 POP JUMP JUMPDEST PUSH1 0x0 PUSH2 0x1BBE DUP3 PUSH2 0x1BD7 JUMP JUMPDEST SWAP1 POP SWAP2 SWAP1 POP JUMP JUMPDEST PUSH1 0x0 PUSH2 0x1BD0 DUP3 PUSH2 0x1B69 JUMP JUMPDEST SWAP1 POP SWAP2 SWAP1 POP JUMP JUMPDEST PUSH1 0x0 PUSH2 0x1BE2 DUP3 PUSH2 0x1BE9 JUMP JUMPDEST SWAP1 POP SWAP2 SWAP1 POP JUMP JUMPDEST PUSH1 0x0 PUSH2 0x1BF4 DUP3 PUSH2 0x1B7C JUMP JUMPDEST SWAP1 POP SWAP2 SWAP1 POP JUMP JUMPDEST DUP3 DUP2 DUP4 CALLDATACOPY PUSH1 0x0 DUP4 DUP4 ADD MSTORE POP POP POP JUMP JUMPDEST PUSH1 0x0 PUSH1 0x2 DUP3 DIV SWAP1 POP PUSH1 0x1 DUP3 AND DUP1 PUSH2 0x1C22 JUMPI PUSH1 0x7F DUP3 AND SWAP2 POP JUMPDEST PUSH1 0x20 DUP3 LT DUP2 EQ ISZERO PUSH2 0x1C36 JUMPI PUSH2 0x1C35 PUSH2 0x1D14 JUMP JUMPDEST JUMPDEST POP SWAP2 SWAP1 POP JUMP JUMPDEST PUSH2 0x1C45 DUP3 PUSH2 0x1D86 JUMP JUMPDEST DUP2 ADD DUP2 DUP2 LT PUSH8 0xFFFFFFFFFFFFFFFF DUP3 GT OR ISZERO PUSH2 0x1C64 JUMPI PUSH2 0x1C63 PUSH2 0x1D43 JUMP JUMPDEST JUMPDEST DUP1 PUSH1 0x40 MSTORE POP POP POP JUMP JUMPDEST PUSH1 0x0 PUSH2 0x1C78 DUP3 PUSH2 0x1B9C JUMP JUMPDEST SWAP2 POP PUSH32 0xFFFFFFFFFFFFFFFFFFFFFFFFFFFFFFFFFFFFFFFFFFFFFFFFFFFFFFFFFFFFFFFF DUP3 EQ ISZERO PUSH2 0x1CAB JUMPI PUSH2 0x1CAA PUSH2 0x1CB6 JUMP JUMPDEST JUMPDEST PUSH1 0x1 DUP3 ADD SWAP1 POP SWAP2 SWAP1 POP JUMP JUMPDEST PUSH32 0x4E487B7100000000000000000000000000000000000000000000000000000000 PUSH1 0x0 MSTORE PUSH1 0x11 PUSH1 0x4 MSTORE PUSH1 0x24 PUSH1 0x0 REVERT JUMPDEST PUSH32 0x4E487B7100000000000000000000000000000000000000000000000000000000 PUSH1 0x0 MSTORE PUSH1 0x21 PUSH1 0x4 MSTORE PUSH1 0x24 PUSH1 0x0 REVERT JUMPDEST PUSH32 0x4E487B7100000000000000000000000000000000000000000000000000000000 PUSH1 0x0 MSTORE PUSH1 0x22 PUSH1 0x4 MSTORE PUSH1 0x24 PUSH1 0x0 REVERT JUMPDEST PUSH32 0x4E487B7100000000000000000000000000000000000000000000000000000000 PUSH1 0x0 MSTORE PUSH1 0x41 PUSH1 0x4 MSTORE PUSH1 0x24 PUSH1 0x0 REVERT JUMPDEST PUSH1 0x0 DUP1 REVERT JUMPDEST PUSH1 0x0 DUP1 REVERT JUMPDEST PUSH1 0x0 DUP1 REVERT JUMPDEST PUSH1 0x0 DUP1 REVERT JUMPDEST PUSH1 0x0 PUSH1 0x1F NOT PUSH1 0x1F DUP4 ADD AND SWAP1 POP SWAP2 SWAP1 POP JUMP JUMPDEST PUSH32 0x596F752068617665206E6F7420696E707574206120726967687420766F74652E PUSH1 0x0 DUP3 ADD MSTORE PUSH32 0x20596F752063616E2065697468657220766F7465203120666F72205265717565 PUSH1 0x20 DUP3 ADD MSTORE PUSH32 0x73746572206F72203220666F722050726F76696465722E000000000000000000 PUSH1 0x40 DUP3 ADD MSTORE POP JUMP JUMPDEST PUSH32 0x596F75206861766520616C726561647920766F7465642C20796F752063616E6E PUSH1 0x0 DUP3 ADD MSTORE PUSH32 0x6F7420766F746520616761696E00000000000000000000000000000000000000 PUSH1 0x20 DUP3 ADD MSTORE POP JUMP JUMPDEST PUSH32 0x43616E6E6F74206361727279206F75742074686973206F7065726174696F6E21 PUSH1 0x0 DUP3 ADD MSTORE POP JUMP JUMPDEST PUSH32 0x5468697320436F6E666C69637420646F6573206E6F742065786973742E000000 PUSH1 0x0 DUP3 ADD MSTORE POP JUMP JUMPDEST PUSH32 0x596F7520726169736564207468697320636F6E666C6963742E20596F75206361 PUSH1 0x0 DUP3 ADD MSTORE PUSH32 0x6E6E6F7420766F7465206F6E2069742E00000000000000000000000000000000 PUSH1 0x20 DUP3 ADD MSTORE POP JUMP JUMPDEST PUSH32 0x436F6E666C6963742068617320616C7265616479206265656E20637265617465 PUSH1 0x0 DUP3 ADD MSTORE PUSH32 0x6420666F72207468697320706172746963756C6172204D696C6573746F6E652E PUSH1 0x20 DUP3 ADD MSTORE POP JUMP JUMPDEST PUSH32 0x566F74696E6720686173206E6F74206265656E20636F6D706C65746564207965 PUSH1 0x0 DUP3 ADD MSTORE PUSH32 0x742E20506C65617365207761697420666F7220697420746F20656E642E000000 PUSH1 0x20 DUP3 ADD MSTORE POP JUMP JUMPDEST PUSH32 0x4E6F742065766572796F6E652068617320766F7465642C20706C656173652070 PUSH1 0x0 DUP3 ADD MSTORE PUSH32 0x726F6D707420616C6C206F74686572206D656D62657273206F662070726F6A65 PUSH1 0x20 DUP3 ADD MSTORE PUSH32 0x637420746F20766F746500000000000000000000000000000000000000000000 PUSH1 0x40 DUP3 ADD MSTORE POP JUMP JUMPDEST PUSH32 0x4120737472696E67206973207265717569726564210000000000000000000000 PUSH1 0x0 DUP3 ADD MSTORE POP JUMP JUMPDEST PUSH32 0x596F752061726520696E766F6C76656420696E207468697320636F6E666C6963 PUSH1 0x0 DUP3 ADD MSTORE PUSH32 0x742E20596F752063616E6E6F7420766F7465206F6E2069742E00000000000000 PUSH1 0x20 DUP3 ADD MSTORE POP JUMP JUMPDEST PUSH32 0x456E6F75676820766F7465732068617665206265656E20636F6C6C6563746564 PUSH1 0x0 DUP3 ADD MSTORE POP JUMP JUMPDEST PUSH1 0x4 DUP2 LT PUSH2 0x20C1 JUMPI PUSH2 0x20C0 PUSH2 0x1CE5 JUMP JUMPDEST JUMPDEST POP JUMP JUMPDEST PUSH2 0x20CD DUP2 PUSH2 0x1B45 JUMP JUMPDEST DUP2 EQ PUSH2 0x20D8 JUMPI PUSH1 0x0 DUP1 REVERT JUMPDEST POP JUMP JUMPDEST PUSH2 0x20E4 DUP2 PUSH2 0x1B57 JUMP JUMPDEST DUP2 EQ PUSH2 0x20EF JUMPI PUSH1 0x0 DUP1 REVERT JUMPDEST POP JUMP JUMPDEST PUSH2 0x20FB DUP2 PUSH2 0x1B9C JUMP JUMPDEST DUP2 EQ PUSH2 0x2106 JUMPI PUSH1 0x0 DUP1 REVERT JUMPDEST POP JUMP JUMPDEST PUSH2 0x2112 DUP2 PUSH2 0x1BA6 JUMP JUMPDEST DUP2 EQ PUSH2 0x211D JUMPI PUSH1 0x0 DUP1 REVERT JUMPDEST POP JUMP INVALID LOG2 PUSH5 0x6970667358 0x22 SLT KECCAK256 MLOAD 0xB8 0x26 SMOD 0xC7 DIV 0xB6 0xE4 0x5F 0xB9 0x28 0x2D MUL AND DUP1 0xBB PUSH30 0xCFB06B4E986FA82CB7D407F84EE72364736F6C6343000807003300000000 "
				},
				"gasEstimates": {
					"creation": {
						"codeDepositCost": "1706800",
						"executionCost": "1792",
						"totalCost": "1708592"
					},
					"external": {
						"createConflict(uint256,uint256,uint256,string,string,address,address,uint256)": "infinite",
						"deleteConflict(uint256,uint256,uint256)": "infinite",
						"getConflictStatus(uint256,uint256,uint256)": "infinite",
						"getResults(uint256,uint256,uint256)": "infinite",
						"getVotesCollected(uint256,uint256,uint256)": "infinite",
						"getVotesforProvider(uint256,uint256,uint256)": "infinite",
						"getVotesforRequester(uint256,uint256,uint256)": "infinite",
						"startVote(uint256,uint256,uint256)": "infinite",
						"updateConflict(uint256,uint256,uint256,string,string)": "infinite",
						"voteConflict(uint256,uint256,uint256,address,uint8)": "infinite"
					},
					"internal": {
						"setState(uint256,uint256,uint256,enum States.ConflictStatus)": "24600"
					}
				},
				"methodIdentifiers": {
					"createConflict(uint256,uint256,uint256,string,string,address,address,uint256)": "e62fac27",
					"deleteConflict(uint256,uint256,uint256)": "003f489f",
					"getConflictStatus(uint256,uint256,uint256)": "cb4389ce",
					"getResults(uint256,uint256,uint256)": "0366cef2",
					"getVotesCollected(uint256,uint256,uint256)": "3c45fe31",
					"getVotesforProvider(uint256,uint256,uint256)": "9ac78879",
					"getVotesforRequester(uint256,uint256,uint256)": "e3d87718",
					"startVote(uint256,uint256,uint256)": "9c87a5e9",
					"updateConflict(uint256,uint256,uint256,string,string)": "d1e992a7",
					"voteConflict(uint256,uint256,uint256,address,uint8)": "c171bdf7"
				}
			},
			"userdoc": {
				"kind": "user",
				"methods": {},
				"version": 1
			}
		}
	}
}