{
	"contracts/Service.sol": {
		"Service": {
			"abi": [
				{
					"inputs": [
						{
							"internalType": "contract Milestone",
							"name": "milestoneContract",
							"type": "address"
						}
					],
					"stateMutability": "nonpayable",
					"type": "constructor"
				},
				{
					"anonymous": false,
					"inputs": [
						{
							"indexed": false,
							"internalType": "uint256",
							"name": "projectNumber",
							"type": "uint256"
						},
						{
							"indexed": false,
							"internalType": "uint256",
							"name": "serviceNumber",
							"type": "uint256"
						},
						{
							"indexed": false,
							"internalType": "string",
							"name": "title",
							"type": "string"
						},
						{
							"indexed": false,
							"internalType": "string",
							"name": "description",
							"type": "string"
						},
						{
							"indexed": false,
							"internalType": "uint256",
							"name": "price",
							"type": "uint256"
						}
					],
					"name": "serviceCreated",
					"type": "event"
				},
				{
					"anonymous": false,
					"inputs": [
						{
							"indexed": false,
							"internalType": "uint256",
							"name": "projectNumber",
							"type": "uint256"
						},
						{
							"indexed": false,
							"internalType": "uint256",
							"name": "serviceNumber",
							"type": "uint256"
						}
					],
					"name": "serviceDeleted",
					"type": "event"
				},
				{
					"anonymous": false,
					"inputs": [
						{
							"indexed": false,
							"internalType": "uint256",
							"name": "projectNumber",
							"type": "uint256"
						},
						{
							"indexed": false,
							"internalType": "uint256",
							"name": "serviceNumber",
							"type": "uint256"
						},
						{
							"indexed": false,
							"internalType": "string",
							"name": "title",
							"type": "string"
						},
						{
							"indexed": false,
							"internalType": "string",
							"name": "description",
							"type": "string"
						},
						{
							"indexed": false,
							"internalType": "uint256",
							"name": "price",
							"type": "uint256"
						}
					],
					"name": "serviceUpdated",
					"type": "event"
				},
				{
					"inputs": [
						{
							"internalType": "uint256",
							"name": "projectNumber",
							"type": "uint256"
						},
						{
							"internalType": "uint256",
							"name": "serviceNumber",
							"type": "uint256"
						},
						{
							"internalType": "string",
							"name": "titleMilestone",
							"type": "string"
						},
						{
							"internalType": "string",
							"name": "descriptionMilestone",
							"type": "string"
						}
					],
					"name": "createMilestone",
					"outputs": [],
					"stateMutability": "nonpayable",
					"type": "function"
				},
				{
					"inputs": [
						{
							"internalType": "uint256",
							"name": "projectNumber",
							"type": "uint256"
						},
						{
							"internalType": "string",
							"name": "title",
							"type": "string"
						},
						{
							"internalType": "string",
							"name": "description",
							"type": "string"
						},
						{
							"internalType": "uint256",
							"name": "price",
							"type": "uint256"
						},
						{
							"internalType": "address",
							"name": "projectOwner",
							"type": "address"
						}
					],
					"name": "createService",
					"outputs": [],
					"stateMutability": "nonpayable",
					"type": "function"
				},
				{
					"inputs": [
						{
							"internalType": "uint256",
							"name": "projectNumber",
							"type": "uint256"
						},
						{
							"internalType": "uint256",
							"name": "serviceNumber",
							"type": "uint256"
						},
						{
							"internalType": "uint256",
							"name": "milestoneNumber",
							"type": "uint256"
						}
					],
					"name": "deleteMilestone",
					"outputs": [],
					"stateMutability": "nonpayable",
					"type": "function"
				},
				{
					"inputs": [
						{
							"internalType": "uint256",
							"name": "projectNumber",
							"type": "uint256"
						},
						{
							"internalType": "uint256",
							"name": "serviceNumber",
							"type": "uint256"
						}
					],
					"name": "deleteService",
					"outputs": [],
					"stateMutability": "nonpayable",
					"type": "function"
				},
				{
					"inputs": [
						{
							"internalType": "uint256",
							"name": "projectNumber",
							"type": "uint256"
						},
						{
							"internalType": "uint256",
							"name": "serviceNumber",
							"type": "uint256"
						},
						{
							"internalType": "uint256",
							"name": "milestoneNumber",
							"type": "uint256"
						}
					],
					"name": "readMilestone",
					"outputs": [
						{
							"internalType": "string",
							"name": "",
							"type": "string"
						},
						{
							"internalType": "string",
							"name": "",
							"type": "string"
						}
					],
					"stateMutability": "view",
					"type": "function"
				},
				{
					"inputs": [
						{
							"internalType": "uint256",
							"name": "projectNumber",
							"type": "uint256"
						},
						{
							"internalType": "uint256",
							"name": "serviceNumber",
							"type": "uint256"
						}
					],
					"name": "readService",
					"outputs": [
						{
							"internalType": "string",
							"name": "",
							"type": "string"
						},
						{
							"internalType": "string",
							"name": "",
							"type": "string"
						},
						{
							"internalType": "uint256",
							"name": "",
							"type": "uint256"
						},
						{
							"internalType": "uint256",
							"name": "",
							"type": "uint256"
						}
					],
					"stateMutability": "view",
					"type": "function"
				},
				{
					"inputs": [],
					"name": "serviceNum",
					"outputs": [
						{
							"internalType": "uint256",
							"name": "",
							"type": "uint256"
						}
					],
					"stateMutability": "view",
					"type": "function"
				},
				{
					"inputs": [],
					"name": "serviceTotal",
					"outputs": [
						{
							"internalType": "uint256",
							"name": "",
							"type": "uint256"
						}
					],
					"stateMutability": "view",
					"type": "function"
				},
				{
					"inputs": [
						{
							"internalType": "uint256",
							"name": "projectNumber",
							"type": "uint256"
						},
						{
							"internalType": "uint256",
							"name": "serviceNumber",
							"type": "uint256"
						},
						{
							"internalType": "uint256",
							"name": "milestoneNumber",
							"type": "uint256"
						},
						{
							"internalType": "string",
							"name": "titleMilestone",
							"type": "string"
						},
						{
							"internalType": "string",
							"name": "descriptionMilestone",
							"type": "string"
						}
					],
					"name": "updateMilestone",
					"outputs": [],
					"stateMutability": "nonpayable",
					"type": "function"
				},
				{
					"inputs": [
						{
							"internalType": "uint256",
							"name": "projectNumber",
							"type": "uint256"
						},
						{
							"internalType": "uint256",
							"name": "serviceNumber",
							"type": "uint256"
						},
						{
							"internalType": "string",
							"name": "title",
							"type": "string"
						},
						{
							"internalType": "string",
							"name": "description",
							"type": "string"
						},
						{
							"internalType": "uint256",
							"name": "price",
							"type": "uint256"
						}
					],
					"name": "updateService",
					"outputs": [],
					"stateMutability": "nonpayable",
					"type": "function"
				}
			],
			"devdoc": {
				"kind": "dev",
				"methods": {},
				"version": 1
			},
			"evm": {
				"assembly": "    /* \"contracts/Service.sol\":348:5753  contract Service {... */\n  mstore(0x40, 0x80)\n    /* \"contracts/Service.sol\":1417:1418  0 */\n  0x00\n    /* \"contracts/Service.sol\":1387:1418  uint256 public serviceTotal = 0 */\n  0x01\n  sstore\n    /* \"contracts/Service.sol\":1516:1517  0 */\n  0x00\n    /* \"contracts/Service.sol\":1488:1517  uint256 public serviceNum = 0 */\n  0x02\n  sstore\n    /* \"contracts/Service.sol\":398:493  constructor (Milestone milestoneContract) public {... */\n  callvalue\n  dup1\n  iszero\n  tag_1\n  jumpi\n  0x00\n  dup1\n  revert\ntag_1:\n  pop\n  mload(0x40)\n  sub(codesize, bytecodeSize)\n  dup1\n  bytecodeSize\n  dup4\n  codecopy\n  dup2\n  dup2\n  add\n  0x40\n  mstore\n  dup2\n  add\n  swap1\n  tag_2\n  swap2\n  swap1\n  tag_3\n  jump\t// in\ntag_2:\n    /* \"contracts/Service.sol\":469:486  milestoneContract */\n  dup1\n    /* \"contracts/Service.sol\":457:466  milestone */\n  0x00\n  dup1\n    /* \"contracts/Service.sol\":457:486  milestone = milestoneContract */\n  0x0100\n  exp\n  dup2\n  sload\n  dup2\n  0xffffffffffffffffffffffffffffffffffffffff\n  mul\n  not\n  and\n  swap1\n  dup4\n  0xffffffffffffffffffffffffffffffffffffffff\n  and\n  mul\n  or\n  swap1\n  sstore\n  pop\n    /* \"contracts/Service.sol\":398:493  constructor (Milestone milestoneContract) public {... */\n  pop\n    /* \"contracts/Service.sol\":348:5753  contract Service {... */\n  jump(tag_6)\n    /* \"#utility.yul\":7:186   */\ntag_8:\n    /* \"#utility.yul\":82:87   */\n  0x00\n    /* \"#utility.yul\":113:119   */\n  dup2\n    /* \"#utility.yul\":107:120   */\n  mload\n    /* \"#utility.yul\":98:120   */\n  swap1\n  pop\n    /* \"#utility.yul\":129:180   */\n  tag_10\n    /* \"#utility.yul\":174:179   */\n  dup2\n    /* \"#utility.yul\":129:180   */\n  tag_11\n  jump\t// in\ntag_10:\n    /* \"#utility.yul\":7:186   */\n  swap3\n  swap2\n  pop\n  pop\n  jump\t// out\n    /* \"#utility.yul\":192:579   */\ntag_3:\n    /* \"#utility.yul\":280:286   */\n  0x00\n    /* \"#utility.yul\":329:331   */\n  0x20\n    /* \"#utility.yul\":317:326   */\n  dup3\n    /* \"#utility.yul\":308:315   */\n  dup5\n    /* \"#utility.yul\":304:327   */\n  sub\n    /* \"#utility.yul\":300:332   */\n  slt\n    /* \"#utility.yul\":297:416   */\n  iszero\n  tag_13\n  jumpi\n    /* \"#utility.yul\":335:414   */\n  tag_14\n  tag_15\n  jump\t// in\ntag_14:\n    /* \"#utility.yul\":297:416   */\ntag_13:\n    /* \"#utility.yul\":455:456   */\n  0x00\n    /* \"#utility.yul\":480:562   */\n  tag_16\n    /* \"#utility.yul\":554:561   */\n  dup5\n    /* \"#utility.yul\":545:551   */\n  dup3\n    /* \"#utility.yul\":534:543   */\n  dup6\n    /* \"#utility.yul\":530:552   */\n  add\n    /* \"#utility.yul\":480:562   */\n  tag_8\n  jump\t// in\ntag_16:\n    /* \"#utility.yul\":470:562   */\n  swap2\n  pop\n    /* \"#utility.yul\":426:572   */\n  pop\n    /* \"#utility.yul\":192:579   */\n  swap3\n  swap2\n  pop\n  pop\n  jump\t// out\n    /* \"#utility.yul\":666:762   */\ntag_19:\n    /* \"#utility.yul\":703:710   */\n  0x00\n    /* \"#utility.yul\":732:756   */\n  tag_21\n    /* \"#utility.yul\":750:755   */\n  dup3\n    /* \"#utility.yul\":732:756   */\n  tag_22\n  jump\t// in\ntag_21:\n    /* \"#utility.yul\":721:756   */\n  swap1\n  pop\n    /* \"#utility.yul\":666:762   */\n  swap2\n  swap1\n  pop\n  jump\t// out\n    /* \"#utility.yul\":768:882   */\ntag_23:\n    /* \"#utility.yul\":823:830   */\n  0x00\n    /* \"#utility.yul\":852:876   */\n  tag_25\n    /* \"#utility.yul\":870:875   */\n  dup3\n    /* \"#utility.yul\":852:876   */\n  tag_19\n  jump\t// in\ntag_25:\n    /* \"#utility.yul\":841:876   */\n  swap1\n  pop\n    /* \"#utility.yul\":768:882   */\n  swap2\n  swap1\n  pop\n  jump\t// out\n    /* \"#utility.yul\":888:1014   */\ntag_22:\n    /* \"#utility.yul\":925:932   */\n  0x00\n    /* \"#utility.yul\":965:1007   */\n  0xffffffffffffffffffffffffffffffffffffffff\n    /* \"#utility.yul\":958:963   */\n  dup3\n    /* \"#utility.yul\":954:1008   */\n  and\n    /* \"#utility.yul\":943:1008   */\n  swap1\n  pop\n    /* \"#utility.yul\":888:1014   */\n  swap2\n  swap1\n  pop\n  jump\t// out\n    /* \"#utility.yul\":1143:1260   */\ntag_15:\n    /* \"#utility.yul\":1252:1253   */\n  0x00\n    /* \"#utility.yul\":1249:1250   */\n  dup1\n    /* \"#utility.yul\":1242:1254   */\n  revert\n    /* \"#utility.yul\":1266:1424   */\ntag_11:\n    /* \"#utility.yul\":1357:1399   */\n  tag_31\n    /* \"#utility.yul\":1393:1398   */\n  dup2\n    /* \"#utility.yul\":1357:1399   */\n  tag_23\n  jump\t// in\ntag_31:\n    /* \"#utility.yul\":1350:1355   */\n  dup2\n    /* \"#utility.yul\":1347:1400   */\n  eq\n    /* \"#utility.yul\":1337:1418   */\n  tag_32\n  jumpi\n    /* \"#utility.yul\":1414:1415   */\n  0x00\n    /* \"#utility.yul\":1411:1412   */\n  dup1\n    /* \"#utility.yul\":1404:1416   */\n  revert\n    /* \"#utility.yul\":1337:1418   */\ntag_32:\n    /* \"#utility.yul\":1266:1424   */\n  pop\n  jump\t// out\n    /* \"contracts/Service.sol\":348:5753  contract Service {... */\ntag_6:\n  dataSize(sub_0)\n  dup1\n  dataOffset(sub_0)\n  0x00\n  codecopy\n  0x00\n  return\nstop\n\nsub_0: assembly {\n        /* \"contracts/Service.sol\":348:5753  contract Service {... */\n      mstore(0x40, 0x80)\n      callvalue\n      dup1\n      iszero\n      tag_1\n      jumpi\n      0x00\n      dup1\n      revert\n    tag_1:\n      pop\n      jumpi(tag_2, lt(calldatasize, 0x04))\n      shr(0xe0, calldataload(0x00))\n      dup1\n      0x53c49c64\n      gt\n      tag_13\n      jumpi\n      dup1\n      0x53c49c64\n      eq\n      tag_8\n      jumpi\n      dup1\n      0x63ef8a50\n      eq\n      tag_9\n      jumpi\n      dup1\n      0xac10dfe3\n      eq\n      tag_10\n      jumpi\n      dup1\n      0xb9b6c5d4\n      eq\n      tag_11\n      jumpi\n      dup1\n      0xfd23c4bb\n      eq\n      tag_12\n      jumpi\n      jump(tag_2)\n    tag_13:\n      dup1\n      0x256da4e3\n      eq\n      tag_3\n      jumpi\n      dup1\n      0x30f73051\n      eq\n      tag_4\n      jumpi\n      dup1\n      0x352d28fd\n      eq\n      tag_5\n      jumpi\n      dup1\n      0x49428a62\n      eq\n      tag_6\n      jumpi\n      dup1\n      0x4994772c\n      eq\n      tag_7\n      jumpi\n    tag_2:\n      0x00\n      dup1\n      revert\n        /* \"contracts/Service.sol\":2440:3348  function createService(uint256 projectNumber, string memory title, string memory description, uint256 price, address projectOwner) public requiredString(title) requiredString(description) {        ... */\n    tag_3:\n      tag_14\n      0x04\n      dup1\n      calldatasize\n      sub\n      dup2\n      add\n      swap1\n      tag_15\n      swap2\n      swap1\n      tag_16\n      jump\t// in\n    tag_15:\n      tag_17\n      jump\t// in\n    tag_14:\n      stop\n        /* \"contracts/Service.sol\":1387:1418  uint256 public serviceTotal = 0 */\n    tag_4:\n      tag_18\n      tag_19\n      jump\t// in\n    tag_18:\n      mload(0x40)\n      tag_20\n      swap2\n      swap1\n      tag_21\n      jump\t// in\n    tag_20:\n      mload(0x40)\n      dup1\n      swap2\n      sub\n      swap1\n      return\n        /* \"contracts/Service.sol\":1488:1517  uint256 public serviceNum = 0 */\n    tag_5:\n      tag_22\n      tag_23\n      jump\t// in\n    tag_22:\n      mload(0x40)\n      tag_24\n      swap2\n      swap1\n      tag_21\n      jump\t// in\n    tag_24:\n      mload(0x40)\n      dup1\n      swap2\n      sub\n      swap1\n      return\n        /* \"contracts/Service.sol\":4930:5162  function readMilestone(uint256 projectNumber, uint256 serviceNumber, uint256 milestoneNumber) public view returns (string memory , string memory ) {... */\n    tag_6:\n      tag_25\n      0x04\n      dup1\n      calldatasize\n      sub\n      dup2\n      add\n      swap1\n      tag_26\n      swap2\n      swap1\n      tag_27\n      jump\t// in\n    tag_26:\n      tag_28\n      jump\t// in\n    tag_25:\n      mload(0x40)\n      tag_29\n      swap3\n      swap2\n      swap1\n      tag_30\n      jump\t// in\n    tag_29:\n      mload(0x40)\n      dup1\n      swap2\n      sub\n      swap1\n      return\n        /* \"contracts/Service.sol\":3393:3843  function readService(uint256 projectNumber, uint256 serviceNumber) public view returns (string memory , string memory, uint256 , uint256 ) {... */\n    tag_7:\n      tag_31\n      0x04\n      dup1\n      calldatasize\n      sub\n      dup2\n      add\n      swap1\n      tag_32\n      swap2\n      swap1\n      tag_33\n      jump\t// in\n    tag_32:\n      tag_34\n      jump\t// in\n    tag_31:\n      mload(0x40)\n      tag_35\n      swap5\n      swap4\n      swap3\n      swap2\n      swap1\n      tag_36\n      jump\t// in\n    tag_35:\n      mload(0x40)\n      dup1\n      swap2\n      sub\n      swap1\n      return\n        /* \"contracts/Service.sol\":4374:4584  function deleteService(uint256 projectNumber, uint256 serviceNumber) public {... */\n    tag_8:\n      tag_37\n      0x04\n      dup1\n      calldatasize\n      sub\n      dup2\n      add\n      swap1\n      tag_38\n      swap2\n      swap1\n      tag_33\n      jump\t// in\n    tag_38:\n      tag_39\n      jump\t// in\n    tag_37:\n      stop\n        /* \"contracts/Service.sol\":4631:4882  function createMilestone(uint256 projectNumber, uint256 serviceNumber, string memory titleMilestone, string memory descriptionMilestone) public {... */\n    tag_9:\n      tag_40\n      0x04\n      dup1\n      calldatasize\n      sub\n      dup2\n      add\n      swap1\n      tag_41\n      swap2\n      swap1\n      tag_42\n      jump\t// in\n    tag_41:\n      tag_43\n      jump\t// in\n    tag_40:\n      stop\n        /* \"contracts/Service.sol\":3889:4329  function updateService(uint256 projectNumber, uint256 serviceNumber, string memory title, string memory description, uint256 price) public {... */\n    tag_10:\n      tag_44\n      0x04\n      dup1\n      calldatasize\n      sub\n      dup2\n      add\n      swap1\n      tag_45\n      swap2\n      swap1\n      tag_46\n      jump\t// in\n    tag_45:\n      tag_47\n      jump\t// in\n    tag_44:\n      stop\n        /* \"contracts/Service.sol\":5552:5750  function deleteMilestone(uint256 projectNumber, uint256 serviceNumber, uint256 milestoneNumber) public {        ... */\n    tag_11:\n      tag_48\n      0x04\n      dup1\n      calldatasize\n      sub\n      dup2\n      add\n      swap1\n      tag_49\n      swap2\n      swap1\n      tag_27\n      jump\t// in\n    tag_49:\n      tag_50\n      jump\t// in\n    tag_48:\n      stop\n        /* \"contracts/Service.sol\":5213:5505  function updateMilestone(uint256 projectNumber, uint256 serviceNumber, uint256 milestoneNumber, string memory titleMilestone, string memory descriptionMilestone) public {... */\n    tag_12:\n      tag_51\n      0x04\n      dup1\n      calldatasize\n      sub\n      dup2\n      add\n      swap1\n      tag_52\n      swap2\n      swap1\n      tag_53\n      jump\t// in\n    tag_52:\n      tag_54\n      jump\t// in\n    tag_51:\n      stop\n        /* \"contracts/Service.sol\":2440:3348  function createService(uint256 projectNumber, string memory title, string memory description, uint256 price, address projectOwner) public requiredString(title) requiredString(description) {        ... */\n    tag_17:\n        /* \"contracts/Service.sol\":2593:2598  title */\n      dup4\n        /* \"contracts/Service.sol\":1807:1808  0 */\n      0x00\n        /* \"contracts/Service.sol\":1793:1796  str */\n      dup2\n        /* \"contracts/Service.sol\":1787:1804  bytes(str).length */\n      mload\n        /* \"contracts/Service.sol\":1787:1808  bytes(str).length > 0 */\n      gt\n        /* \"contracts/Service.sol\":1779:1834  require(bytes(str).length > 0, \"A string is required!\") */\n      tag_56\n      jumpi\n      mload(0x40)\n      0x08c379a000000000000000000000000000000000000000000000000000000000\n      dup2\n      mstore\n      0x04\n      add\n      tag_57\n      swap1\n      tag_58\n      jump\t// in\n    tag_57:\n      mload(0x40)\n      dup1\n      swap2\n      sub\n      swap1\n      revert\n    tag_56:\n        /* \"contracts/Service.sol\":2615:2626  description */\n      dup4\n        /* \"contracts/Service.sol\":1807:1808  0 */\n      0x00\n        /* \"contracts/Service.sol\":1793:1796  str */\n      dup2\n        /* \"contracts/Service.sol\":1787:1804  bytes(str).length */\n      mload\n        /* \"contracts/Service.sol\":1787:1808  bytes(str).length > 0 */\n      gt\n        /* \"contracts/Service.sol\":1779:1834  require(bytes(str).length > 0, \"A string is required!\") */\n      tag_60\n      jumpi\n      mload(0x40)\n      0x08c379a000000000000000000000000000000000000000000000000000000000\n      dup2\n      mstore\n      0x04\n      add\n      tag_61\n      swap1\n      tag_58\n      jump\t// in\n    tag_61:\n      mload(0x40)\n      dup1\n      swap2\n      sub\n      swap1\n      revert\n    tag_60:\n        /* \"contracts/Service.sol\":2662:2663  0 */\n      0x00\n        /* \"contracts/Service.sol\":2654:2659  price */\n      dup5\n        /* \"contracts/Service.sol\":2654:2663  price > 0 */\n      gt\n        /* \"contracts/Service.sol\":2646:2701  require(price > 0, \"A Service Price must be specified\") */\n      tag_63\n      jumpi\n      mload(0x40)\n      0x08c379a000000000000000000000000000000000000000000000000000000000\n      dup2\n      mstore\n      0x04\n      add\n      tag_64\n      swap1\n      tag_65\n      jump\t// in\n    tag_64:\n      mload(0x40)\n      dup1\n      swap2\n      sub\n      swap1\n      revert\n    tag_63:\n        /* \"contracts/Service.sol\":2712:2738  service storage newService */\n      0x00\n        /* \"contracts/Service.sol\":2741:2756  projectServices */\n      0x03\n        /* \"contracts/Service.sol\":2741:2771  projectServices[projectNumber] */\n      0x00\n        /* \"contracts/Service.sol\":2757:2770  projectNumber */\n      dup10\n        /* \"contracts/Service.sol\":2741:2771  projectServices[projectNumber] */\n      dup2\n      mstore\n      0x20\n      add\n      swap1\n      dup2\n      mstore\n      0x20\n      add\n      0x00\n      keccak256\n        /* \"contracts/Service.sol\":2772:2782  serviceNum */\n      sload(0x02)\n        /* \"contracts/Service.sol\":2741:2783  projectServices[projectNumber][serviceNum] */\n      dup2\n      sload\n      dup2\n      lt\n      tag_66\n      jumpi\n      tag_67\n      tag_68\n      jump\t// in\n    tag_67:\n    tag_66:\n      swap1\n      0x00\n      mstore\n      keccak256(0x00, 0x20)\n      swap1\n      0x08\n      mul\n      add\n        /* \"contracts/Service.sol\":2712:2783  service storage newService = projectServices[projectNumber][serviceNum] */\n      swap1\n      pop\n        /* \"contracts/Service.sol\":2820:2833  projectNumber */\n      dup8\n        /* \"contracts/Service.sol\":2793:2803  newService */\n      dup2\n        /* \"contracts/Service.sol\":2793:2817  newService.projectNumber */\n      0x00\n      add\n        /* \"contracts/Service.sol\":2793:2833  newService.projectNumber = projectNumber */\n      dup2\n      swap1\n      sstore\n      pop\n        /* \"contracts/Service.sol\":2870:2880  serviceNum */\n      sload(0x02)\n        /* \"contracts/Service.sol\":2843:2853  newService */\n      dup2\n        /* \"contracts/Service.sol\":2843:2867  newService.serviceNumber */\n      0x01\n      add\n        /* \"contracts/Service.sol\":2843:2880  newService.serviceNumber = serviceNum */\n      dup2\n      swap1\n      sstore\n      pop\n        /* \"contracts/Service.sol\":2909:2914  title */\n      dup7\n        /* \"contracts/Service.sol\":2890:2900  newService */\n      dup2\n        /* \"contracts/Service.sol\":2890:2906  newService.title */\n      0x02\n      add\n        /* \"contracts/Service.sol\":2890:2914  newService.title = title */\n      swap1\n      dup1\n      mload\n      swap1\n      0x20\n      add\n      swap1\n      tag_70\n      swap3\n      swap2\n      swap1\n      tag_71\n      jump\t// in\n    tag_70:\n      pop\n        /* \"contracts/Service.sol\":2949:2960  description */\n      dup6\n        /* \"contracts/Service.sol\":2924:2934  newService */\n      dup2\n        /* \"contracts/Service.sol\":2924:2946  newService.description */\n      0x03\n      add\n        /* \"contracts/Service.sol\":2924:2960  newService.description = description */\n      swap1\n      dup1\n      mload\n      swap1\n      0x20\n      add\n      swap1\n      tag_72\n      swap3\n      swap2\n      swap1\n      tag_71\n      jump\t// in\n    tag_72:\n      pop\n        /* \"contracts/Service.sol\":2989:2994  price */\n      dup5\n        /* \"contracts/Service.sol\":2970:2980  newService */\n      dup2\n        /* \"contracts/Service.sol\":2970:2986  newService.price */\n      0x04\n      add\n        /* \"contracts/Service.sol\":2970:2994  newService.price = price */\n      dup2\n      swap1\n      sstore\n      pop\n        /* \"contracts/Service.sol\":3034:3035  0 */\n      0x00\n        /* \"contracts/Service.sol\":3004:3014  newService */\n      dup2\n        /* \"contracts/Service.sol\":3004:3031  newService.currentMilestone */\n      0x05\n      add\n        /* \"contracts/Service.sol\":3004:3035  newService.currentMilestone = 0 */\n      dup2\n      swap1\n      sstore\n      pop\n        /* \"contracts/Service.sol\":3075:3087  projectOwner */\n      dup4\n        /* \"contracts/Service.sol\":3045:3055  newService */\n      dup2\n        /* \"contracts/Service.sol\":3045:3072  newService.serviceRequester */\n      0x06\n      add\n      0x00\n        /* \"contracts/Service.sol\":3045:3087  newService.serviceRequester = projectOwner */\n      0x0100\n      exp\n      dup2\n      sload\n      dup2\n      0xffffffffffffffffffffffffffffffffffffffff\n      mul\n      not\n      and\n      swap1\n      dup4\n      0xffffffffffffffffffffffffffffffffffffffff\n      and\n      mul\n      or\n      swap1\n      sstore\n      pop\n        /* \"contracts/Service.sol\":3134:3135  0 */\n      0x00\n        /* \"contracts/Service.sol\":3097:3107  newService */\n      dup2\n        /* \"contracts/Service.sol\":3097:3123  newService.serviceProvider */\n      0x07\n      add\n      0x00\n        /* \"contracts/Service.sol\":3097:3136  newService.serviceProvider = address(0) */\n      0x0100\n      exp\n      dup2\n      sload\n      dup2\n      0xffffffffffffffffffffffffffffffffffffffff\n      mul\n      not\n      and\n      swap1\n      dup4\n      0xffffffffffffffffffffffffffffffffffffffff\n      and\n      mul\n      or\n      swap1\n      sstore\n      pop\n        /* \"contracts/Service.sol\":3165:3169  true */\n      0x01\n        /* \"contracts/Service.sol\":3146:3156  newService */\n      dup2\n        /* \"contracts/Service.sol\":3146:3162  newService.exist */\n      0x07\n      add\n      0x14\n        /* \"contracts/Service.sol\":3146:3169  newService.exist = true */\n      0x0100\n      exp\n      dup2\n      sload\n      dup2\n      0xff\n      mul\n      not\n      and\n      swap1\n      dup4\n      iszero\n      iszero\n      mul\n      or\n      swap1\n      sstore\n      pop\n        /* \"contracts/Service.sol\":3199:3210  Status.none */\n      0x00\n        /* \"contracts/Service.sol\":3179:3189  newService */\n      dup2\n        /* \"contracts/Service.sol\":3179:3196  newService.status */\n      0x07\n      add\n      0x15\n        /* \"contracts/Service.sol\":3179:3210  newService.status = Status.none */\n      0x0100\n      exp\n      dup2\n      sload\n      dup2\n      0xff\n      mul\n      not\n      and\n      swap1\n      dup4\n      0x05\n      dup2\n      gt\n      iszero\n      tag_73\n      jumpi\n      tag_74\n      tag_75\n      jump\t// in\n    tag_74:\n    tag_73:\n      mul\n      or\n      swap1\n      sstore\n      pop\n        /* \"contracts/Service.sol\":3226:3294  serviceCreated(projectNumber, serviceNum, title, description, price) */\n      0xe8bc23dadb6cac9147246af11cc9afe29b7f5f524a2e539da4486da2196a78f1\n        /* \"contracts/Service.sol\":3241:3254  projectNumber */\n      dup9\n        /* \"contracts/Service.sol\":3256:3266  serviceNum */\n      sload(0x02)\n        /* \"contracts/Service.sol\":3268:3273  title */\n      dup10\n        /* \"contracts/Service.sol\":3275:3286  description */\n      dup10\n        /* \"contracts/Service.sol\":3288:3293  price */\n      dup10\n        /* \"contracts/Service.sol\":3226:3294  serviceCreated(projectNumber, serviceNum, title, description, price) */\n      mload(0x40)\n      tag_76\n      swap6\n      swap5\n      swap4\n      swap3\n      swap2\n      swap1\n      tag_77\n      jump\t// in\n    tag_76:\n      mload(0x40)\n      dup1\n      swap2\n      sub\n      swap1\n      log1\n        /* \"contracts/Service.sol\":3305:3317  serviceTotal */\n      0x01\n      0x00\n        /* \"contracts/Service.sol\":3305:3319  serviceTotal++ */\n      dup2\n      sload\n      dup1\n      swap3\n      swap2\n      swap1\n      tag_78\n      swap1\n      tag_79\n      jump\t// in\n    tag_78:\n      swap2\n      swap1\n      pop\n      sstore\n      pop\n        /* \"contracts/Service.sol\":3329:3339  serviceNum */\n      0x02\n      0x00\n        /* \"contracts/Service.sol\":3329:3341  serviceNum++ */\n      dup2\n      sload\n      dup1\n      swap3\n      swap2\n      swap1\n      tag_80\n      swap1\n      tag_79\n      jump\t// in\n    tag_80:\n      swap2\n      swap1\n      pop\n      sstore\n      pop\n        /* \"contracts/Service.sol\":2628:3348  {        ... */\n      pop\n        /* \"contracts/Service.sol\":1844:1845  _ */\n      pop\n        /* \"contracts/Service.sol\":2440:3348  function createService(uint256 projectNumber, string memory title, string memory description, uint256 price, address projectOwner) public requiredString(title) requiredString(description) {        ... */\n      pop\n      pop\n      pop\n      pop\n      pop\n      pop\n      jump\t// out\n        /* \"contracts/Service.sol\":1387:1418  uint256 public serviceTotal = 0 */\n    tag_19:\n      sload(0x01)\n      dup2\n      jump\t// out\n        /* \"contracts/Service.sol\":1488:1517  uint256 public serviceNum = 0 */\n    tag_23:\n      sload(0x02)\n      dup2\n      jump\t// out\n        /* \"contracts/Service.sol\":4930:5162  function readMilestone(uint256 projectNumber, uint256 serviceNumber, uint256 milestoneNumber) public view returns (string memory , string memory ) {... */\n    tag_28:\n        /* \"contracts/Service.sol\":5045:5058  string memory */\n      0x60\n        /* \"contracts/Service.sol\":5061:5074  string memory */\n      dup1\n        /* \"contracts/Service.sol\":5087:5096  milestone */\n      0x00\n      dup1\n      sload\n      swap1\n      0x0100\n      exp\n      swap1\n      div\n      0xffffffffffffffffffffffffffffffffffffffff\n      and\n        /* \"contracts/Service.sol\":5087:5110  milestone.readMilestone */\n      0xffffffffffffffffffffffffffffffffffffffff\n      and\n      0x49428a62\n        /* \"contracts/Service.sol\":5111:5124  projectNumber */\n      dup7\n        /* \"contracts/Service.sol\":5125:5138  serviceNumber */\n      dup7\n        /* \"contracts/Service.sol\":5139:5154  milestoneNumber */\n      dup7\n        /* \"contracts/Service.sol\":5087:5155  milestone.readMilestone(projectNumber,serviceNumber,milestoneNumber) */\n      mload(0x40)\n      dup5\n      0xffffffff\n      and\n      0xe0\n      shl\n      dup2\n      mstore\n      0x04\n      add\n      tag_82\n      swap4\n      swap3\n      swap2\n      swap1\n      tag_83\n      jump\t// in\n    tag_82:\n      0x00\n      mload(0x40)\n      dup1\n      dup4\n      sub\n      dup2\n      dup7\n      dup1\n      extcodesize\n      iszero\n      dup1\n      iszero\n      tag_84\n      jumpi\n      0x00\n      dup1\n      revert\n    tag_84:\n      pop\n      gas\n      staticcall\n      iszero\n      dup1\n      iszero\n      tag_86\n      jumpi\n      returndatasize\n      0x00\n      dup1\n      returndatacopy\n      revert(0x00, returndatasize)\n    tag_86:\n      pop\n      pop\n      pop\n      pop\n      mload(0x40)\n      returndatasize\n      0x00\n      dup3\n      returndatacopy\n      returndatasize\n      not(0x1f)\n      0x1f\n      dup3\n      add\n      and\n      dup3\n      add\n      dup1\n      0x40\n      mstore\n      pop\n      dup2\n      add\n      swap1\n      tag_87\n      swap2\n      swap1\n      tag_88\n      jump\t// in\n    tag_87:\n      pop\n      pop\n        /* \"contracts/Service.sol\":4930:5162  function readMilestone(uint256 projectNumber, uint256 serviceNumber, uint256 milestoneNumber) public view returns (string memory , string memory ) {... */\n      swap4\n      pop\n      swap4\n      swap2\n      pop\n      pop\n      jump\t// out\n        /* \"contracts/Service.sol\":3393:3843  function readService(uint256 projectNumber, uint256 serviceNumber) public view returns (string memory , string memory, uint256 , uint256 ) {... */\n    tag_34:\n        /* \"contracts/Service.sol\":3481:3494  string memory */\n      0x60\n        /* \"contracts/Service.sol\":3497:3510  string memory */\n      dup1\n        /* \"contracts/Service.sol\":3512:3519  uint256 */\n      0x00\n        /* \"contracts/Service.sol\":3522:3529  uint256 */\n      dup1\n        /* \"contracts/Service.sol\":3563:3578  projectServices */\n      0x03\n        /* \"contracts/Service.sol\":3563:3593  projectServices[projectNumber] */\n      0x00\n        /* \"contracts/Service.sol\":3579:3592  projectNumber */\n      dup8\n        /* \"contracts/Service.sol\":3563:3593  projectServices[projectNumber] */\n      dup2\n      mstore\n      0x20\n      add\n      swap1\n      dup2\n      mstore\n      0x20\n      add\n      0x00\n      keccak256\n        /* \"contracts/Service.sol\":3594:3607  serviceNumber */\n      dup6\n        /* \"contracts/Service.sol\":3563:3608  projectServices[projectNumber][serviceNumber] */\n      dup2\n      sload\n      dup2\n      lt\n      tag_90\n      jumpi\n      tag_91\n      tag_68\n      jump\t// in\n    tag_91:\n    tag_90:\n      swap1\n      0x00\n      mstore\n      keccak256(0x00, 0x20)\n      swap1\n      0x08\n      mul\n      add\n        /* \"contracts/Service.sol\":3563:3614  projectServices[projectNumber][serviceNumber].title */\n      0x02\n      add\n        /* \"contracts/Service.sol\":3628:3643  projectServices */\n      0x03\n        /* \"contracts/Service.sol\":3628:3658  projectServices[projectNumber] */\n      0x00\n        /* \"contracts/Service.sol\":3644:3657  projectNumber */\n      dup9\n        /* \"contracts/Service.sol\":3628:3658  projectServices[projectNumber] */\n      dup2\n      mstore\n      0x20\n      add\n      swap1\n      dup2\n      mstore\n      0x20\n      add\n      0x00\n      keccak256\n        /* \"contracts/Service.sol\":3659:3672  serviceNumber */\n      dup7\n        /* \"contracts/Service.sol\":3628:3673  projectServices[projectNumber][serviceNumber] */\n      dup2\n      sload\n      dup2\n      lt\n      tag_93\n      jumpi\n      tag_94\n      tag_68\n      jump\t// in\n    tag_94:\n    tag_93:\n      swap1\n      0x00\n      mstore\n      keccak256(0x00, 0x20)\n      swap1\n      0x08\n      mul\n      add\n        /* \"contracts/Service.sol\":3628:3685  projectServices[projectNumber][serviceNumber].description */\n      0x03\n      add\n        /* \"contracts/Service.sol\":3699:3714  projectServices */\n      0x03\n        /* \"contracts/Service.sol\":3699:3729  projectServices[projectNumber] */\n      0x00\n        /* \"contracts/Service.sol\":3715:3728  projectNumber */\n      dup10\n        /* \"contracts/Service.sol\":3699:3729  projectServices[projectNumber] */\n      dup2\n      mstore\n      0x20\n      add\n      swap1\n      dup2\n      mstore\n      0x20\n      add\n      0x00\n      keccak256\n        /* \"contracts/Service.sol\":3730:3743  serviceNumber */\n      dup8\n        /* \"contracts/Service.sol\":3699:3744  projectServices[projectNumber][serviceNumber] */\n      dup2\n      sload\n      dup2\n      lt\n      tag_96\n      jumpi\n      tag_97\n      tag_68\n      jump\t// in\n    tag_97:\n    tag_96:\n      swap1\n      0x00\n      mstore\n      keccak256(0x00, 0x20)\n      swap1\n      0x08\n      mul\n      add\n        /* \"contracts/Service.sol\":3699:3750  projectServices[projectNumber][serviceNumber].price */\n      0x04\n      add\n      sload\n        /* \"contracts/Service.sol\":3764:3779  projectServices */\n      0x03\n        /* \"contracts/Service.sol\":3764:3794  projectServices[projectNumber] */\n      0x00\n        /* \"contracts/Service.sol\":3780:3793  projectNumber */\n      dup11\n        /* \"contracts/Service.sol\":3764:3794  projectServices[projectNumber] */\n      dup2\n      mstore\n      0x20\n      add\n      swap1\n      dup2\n      mstore\n      0x20\n      add\n      0x00\n      keccak256\n        /* \"contracts/Service.sol\":3795:3808  serviceNumber */\n      dup9\n        /* \"contracts/Service.sol\":3764:3809  projectServices[projectNumber][serviceNumber] */\n      dup2\n      sload\n      dup2\n      lt\n      tag_99\n      jumpi\n      tag_100\n      tag_68\n      jump\t// in\n    tag_100:\n    tag_99:\n      swap1\n      0x00\n      mstore\n      keccak256(0x00, 0x20)\n      swap1\n      0x08\n      mul\n      add\n        /* \"contracts/Service.sol\":3764:3826  projectServices[projectNumber][serviceNumber].currentMilestone */\n      0x05\n      add\n      sload\n        /* \"contracts/Service.sol\":3542:3836  return (... */\n      dup4\n      dup1\n      sload\n      tag_102\n      swap1\n      tag_103\n      jump\t// in\n    tag_102:\n      dup1\n      0x1f\n      add\n      0x20\n      dup1\n      swap2\n      div\n      mul\n      0x20\n      add\n      mload(0x40)\n      swap1\n      dup2\n      add\n      0x40\n      mstore\n      dup1\n      swap3\n      swap2\n      swap1\n      dup2\n      dup2\n      mstore\n      0x20\n      add\n      dup3\n      dup1\n      sload\n      tag_104\n      swap1\n      tag_103\n      jump\t// in\n    tag_104:\n      dup1\n      iszero\n      tag_105\n      jumpi\n      dup1\n      0x1f\n      lt\n      tag_106\n      jumpi\n      0x0100\n      dup1\n      dup4\n      sload\n      div\n      mul\n      dup4\n      mstore\n      swap2\n      0x20\n      add\n      swap2\n      jump(tag_105)\n    tag_106:\n      dup3\n      add\n      swap2\n      swap1\n      0x00\n      mstore\n      keccak256(0x00, 0x20)\n      swap1\n    tag_107:\n      dup2\n      sload\n      dup2\n      mstore\n      swap1\n      0x01\n      add\n      swap1\n      0x20\n      add\n      dup1\n      dup4\n      gt\n      tag_107\n      jumpi\n      dup3\n      swap1\n      sub\n      0x1f\n      and\n      dup3\n      add\n      swap2\n    tag_105:\n      pop\n      pop\n      pop\n      pop\n      pop\n      swap4\n      pop\n      dup3\n      dup1\n      sload\n      tag_108\n      swap1\n      tag_103\n      jump\t// in\n    tag_108:\n      dup1\n      0x1f\n      add\n      0x20\n      dup1\n      swap2\n      div\n      mul\n      0x20\n      add\n      mload(0x40)\n      swap1\n      dup2\n      add\n      0x40\n      mstore\n      dup1\n      swap3\n      swap2\n      swap1\n      dup2\n      dup2\n      mstore\n      0x20\n      add\n      dup3\n      dup1\n      sload\n      tag_109\n      swap1\n      tag_103\n      jump\t// in\n    tag_109:\n      dup1\n      iszero\n      tag_110\n      jumpi\n      dup1\n      0x1f\n      lt\n      tag_111\n      jumpi\n      0x0100\n      dup1\n      dup4\n      sload\n      div\n      mul\n      dup4\n      mstore\n      swap2\n      0x20\n      add\n      swap2\n      jump(tag_110)\n    tag_111:\n      dup3\n      add\n      swap2\n      swap1\n      0x00\n      mstore\n      keccak256(0x00, 0x20)\n      swap1\n    tag_112:\n      dup2\n      sload\n      dup2\n      mstore\n      swap1\n      0x01\n      add\n      swap1\n      0x20\n      add\n      dup1\n      dup4\n      gt\n      tag_112\n      jumpi\n      dup3\n      swap1\n      sub\n      0x1f\n      and\n      dup3\n      add\n      swap2\n    tag_110:\n      pop\n      pop\n      pop\n      pop\n      pop\n      swap3\n      pop\n      swap4\n      pop\n      swap4\n      pop\n      swap4\n      pop\n      swap4\n      pop\n        /* \"contracts/Service.sol\":3393:3843  function readService(uint256 projectNumber, uint256 serviceNumber) public view returns (string memory , string memory, uint256 , uint256 ) {... */\n      swap3\n      swap6\n      swap2\n      swap5\n      pop\n      swap3\n      pop\n      jump\t// out\n        /* \"contracts/Service.sol\":4374:4584  function deleteService(uint256 projectNumber, uint256 serviceNumber) public {... */\n    tag_39:\n        /* \"contracts/Service.sol\":4514:4519  false */\n      0x00\n        /* \"contracts/Service.sol\":4460:4475  projectServices */\n      0x03\n        /* \"contracts/Service.sol\":4460:4490  projectServices[projectNumber] */\n      0x00\n        /* \"contracts/Service.sol\":4476:4489  projectNumber */\n      dup5\n        /* \"contracts/Service.sol\":4460:4490  projectServices[projectNumber] */\n      dup2\n      mstore\n      0x20\n      add\n      swap1\n      dup2\n      mstore\n      0x20\n      add\n      0x00\n      keccak256\n        /* \"contracts/Service.sol\":4491:4504  serviceNumber */\n      dup3\n        /* \"contracts/Service.sol\":4460:4505  projectServices[projectNumber][serviceNumber] */\n      dup2\n      sload\n      dup2\n      lt\n      tag_114\n      jumpi\n      tag_115\n      tag_68\n      jump\t// in\n    tag_115:\n    tag_114:\n      swap1\n      0x00\n      mstore\n      keccak256(0x00, 0x20)\n      swap1\n      0x08\n      mul\n      add\n        /* \"contracts/Service.sol\":4460:4511  projectServices[projectNumber][serviceNumber].exist */\n      0x07\n      add\n      0x14\n        /* \"contracts/Service.sol\":4460:4519  projectServices[projectNumber][serviceNumber].exist = false */\n      0x0100\n      exp\n      dup2\n      sload\n      dup2\n      0xff\n      mul\n      not\n      and\n      swap1\n      dup4\n      iszero\n      iszero\n      mul\n      or\n      swap1\n      sstore\n      pop\n        /* \"contracts/Service.sol\":4534:4577  serviceDeleted(projectNumber,serviceNumber) */\n      0x04579b03ce378bfed31ee6443865880dab0b281efac453deb39233352189863f\n        /* \"contracts/Service.sol\":4549:4562  projectNumber */\n      dup3\n        /* \"contracts/Service.sol\":4563:4576  serviceNumber */\n      dup3\n        /* \"contracts/Service.sol\":4534:4577  serviceDeleted(projectNumber,serviceNumber) */\n      mload(0x40)\n      tag_117\n      swap3\n      swap2\n      swap1\n      tag_118\n      jump\t// in\n    tag_117:\n      mload(0x40)\n      dup1\n      swap2\n      sub\n      swap1\n      log1\n        /* \"contracts/Service.sol\":4374:4584  function deleteService(uint256 projectNumber, uint256 serviceNumber) public {... */\n      pop\n      pop\n      jump\t// out\n        /* \"contracts/Service.sol\":4631:4882  function createMilestone(uint256 projectNumber, uint256 serviceNumber, string memory titleMilestone, string memory descriptionMilestone) public {... */\n    tag_43:\n        /* \"contracts/Service.sol\":4785:4794  milestone */\n      0x00\n      dup1\n      sload\n      swap1\n      0x0100\n      exp\n      swap1\n      div\n      0xffffffffffffffffffffffffffffffffffffffff\n      and\n        /* \"contracts/Service.sol\":4785:4810  milestone.createMilestone */\n      0xffffffffffffffffffffffffffffffffffffffff\n      and\n      0x63ef8a50\n        /* \"contracts/Service.sol\":4811:4824  projectNumber */\n      dup6\n        /* \"contracts/Service.sol\":4825:4838  serviceNumber */\n      dup6\n        /* \"contracts/Service.sol\":4839:4853  titleMilestone */\n      dup6\n        /* \"contracts/Service.sol\":4854:4874  descriptionMilestone */\n      dup6\n        /* \"contracts/Service.sol\":4785:4875  milestone.createMilestone(projectNumber,serviceNumber,titleMilestone,descriptionMilestone) */\n      mload(0x40)\n      dup6\n      0xffffffff\n      and\n      0xe0\n      shl\n      dup2\n      mstore\n      0x04\n      add\n      tag_120\n      swap5\n      swap4\n      swap3\n      swap2\n      swap1\n      tag_121\n      jump\t// in\n    tag_120:\n      0x00\n      mload(0x40)\n      dup1\n      dup4\n      sub\n      dup2\n      0x00\n      dup8\n      dup1\n      extcodesize\n      iszero\n      dup1\n      iszero\n      tag_122\n      jumpi\n      0x00\n      dup1\n      revert\n    tag_122:\n      pop\n      gas\n      call\n      iszero\n      dup1\n      iszero\n      tag_124\n      jumpi\n      returndatasize\n      0x00\n      dup1\n      returndatacopy\n      revert(0x00, returndatasize)\n    tag_124:\n      pop\n      pop\n      pop\n      pop\n        /* \"contracts/Service.sol\":4631:4882  function createMilestone(uint256 projectNumber, uint256 serviceNumber, string memory titleMilestone, string memory descriptionMilestone) public {... */\n      pop\n      pop\n      pop\n      pop\n      jump\t// out\n        /* \"contracts/Service.sol\":3889:4329  function updateService(uint256 projectNumber, uint256 serviceNumber, string memory title, string memory description, uint256 price) public {... */\n    tag_47:\n        /* \"contracts/Service.sol\":4038:4063  service memory newService */\n      0x00\n        /* \"contracts/Service.sol\":4066:4167  service(projectNumber,serviceNumber,title,description,price,0,msg.sender,address(0),true,Status.none) */\n      mload(0x40)\n      dup1\n      0x0140\n      add\n      0x40\n      mstore\n      dup1\n        /* \"contracts/Service.sol\":4074:4087  projectNumber */\n      dup8\n        /* \"contracts/Service.sol\":4066:4167  service(projectNumber,serviceNumber,title,description,price,0,msg.sender,address(0),true,Status.none) */\n      dup2\n      mstore\n      0x20\n      add\n        /* \"contracts/Service.sol\":4088:4101  serviceNumber */\n      dup7\n        /* \"contracts/Service.sol\":4066:4167  service(projectNumber,serviceNumber,title,description,price,0,msg.sender,address(0),true,Status.none) */\n      dup2\n      mstore\n      0x20\n      add\n        /* \"contracts/Service.sol\":4102:4107  title */\n      dup6\n        /* \"contracts/Service.sol\":4066:4167  service(projectNumber,serviceNumber,title,description,price,0,msg.sender,address(0),true,Status.none) */\n      dup2\n      mstore\n      0x20\n      add\n        /* \"contracts/Service.sol\":4108:4119  description */\n      dup5\n        /* \"contracts/Service.sol\":4066:4167  service(projectNumber,serviceNumber,title,description,price,0,msg.sender,address(0),true,Status.none) */\n      dup2\n      mstore\n      0x20\n      add\n        /* \"contracts/Service.sol\":4120:4125  price */\n      dup4\n        /* \"contracts/Service.sol\":4066:4167  service(projectNumber,serviceNumber,title,description,price,0,msg.sender,address(0),true,Status.none) */\n      dup2\n      mstore\n      0x20\n      add\n        /* \"contracts/Service.sol\":4126:4127  0 */\n      0x00\n        /* \"contracts/Service.sol\":4066:4167  service(projectNumber,serviceNumber,title,description,price,0,msg.sender,address(0),true,Status.none) */\n      dup2\n      mstore\n      0x20\n      add\n        /* \"contracts/Service.sol\":4128:4138  msg.sender */\n      caller\n        /* \"contracts/Service.sol\":4066:4167  service(projectNumber,serviceNumber,title,description,price,0,msg.sender,address(0),true,Status.none) */\n      0xffffffffffffffffffffffffffffffffffffffff\n      and\n      dup2\n      mstore\n      0x20\n      add\n        /* \"contracts/Service.sol\":4147:4148  0 */\n      0x00\n        /* \"contracts/Service.sol\":4066:4167  service(projectNumber,serviceNumber,title,description,price,0,msg.sender,address(0),true,Status.none) */\n      0xffffffffffffffffffffffffffffffffffffffff\n      and\n      dup2\n      mstore\n      0x20\n      add\n        /* \"contracts/Service.sol\":4150:4154  true */\n      0x01\n        /* \"contracts/Service.sol\":4066:4167  service(projectNumber,serviceNumber,title,description,price,0,msg.sender,address(0),true,Status.none) */\n      iszero\n      iszero\n      dup2\n      mstore\n      0x20\n      add\n        /* \"contracts/Service.sol\":4155:4166  Status.none */\n      0x00\n        /* \"contracts/Service.sol\":4066:4167  service(projectNumber,serviceNumber,title,description,price,0,msg.sender,address(0),true,Status.none) */\n      0x05\n      dup2\n      gt\n      iszero\n      tag_126\n      jumpi\n      tag_127\n      tag_75\n      jump\t// in\n    tag_127:\n    tag_126:\n      dup2\n      mstore\n      pop\n        /* \"contracts/Service.sol\":4038:4167  service memory newService = service(projectNumber,serviceNumber,title,description,price,0,msg.sender,address(0),true,Status.none) */\n      swap1\n      pop\n        /* \"contracts/Service.sol\":4225:4235  newService */\n      dup1\n        /* \"contracts/Service.sol\":4177:4192  projectServices */\n      0x03\n        /* \"contracts/Service.sol\":4177:4207  projectServices[projectNumber] */\n      0x00\n        /* \"contracts/Service.sol\":4193:4206  projectNumber */\n      dup9\n        /* \"contracts/Service.sol\":4177:4207  projectServices[projectNumber] */\n      dup2\n      mstore\n      0x20\n      add\n      swap1\n      dup2\n      mstore\n      0x20\n      add\n      0x00\n      keccak256\n        /* \"contracts/Service.sol\":4208:4221  serviceNumber */\n      dup7\n        /* \"contracts/Service.sol\":4177:4222  projectServices[projectNumber][serviceNumber] */\n      dup2\n      sload\n      dup2\n      lt\n      tag_128\n      jumpi\n      tag_129\n      tag_68\n      jump\t// in\n    tag_129:\n    tag_128:\n      swap1\n      0x00\n      mstore\n      keccak256(0x00, 0x20)\n      swap1\n      0x08\n      mul\n      add\n        /* \"contracts/Service.sol\":4177:4235  projectServices[projectNumber][serviceNumber] = newService */\n      0x00\n      dup3\n      add\n      mload\n      dup2\n      0x00\n      add\n      sstore\n      0x20\n      dup3\n      add\n      mload\n      dup2\n      0x01\n      add\n      sstore\n      0x40\n      dup3\n      add\n      mload\n      dup2\n      0x02\n      add\n      swap1\n      dup1\n      mload\n      swap1\n      0x20\n      add\n      swap1\n      tag_131\n      swap3\n      swap2\n      swap1\n      tag_71\n      jump\t// in\n    tag_131:\n      pop\n      0x60\n      dup3\n      add\n      mload\n      dup2\n      0x03\n      add\n      swap1\n      dup1\n      mload\n      swap1\n      0x20\n      add\n      swap1\n      tag_132\n      swap3\n      swap2\n      swap1\n      tag_71\n      jump\t// in\n    tag_132:\n      pop\n      0x80\n      dup3\n      add\n      mload\n      dup2\n      0x04\n      add\n      sstore\n      0xa0\n      dup3\n      add\n      mload\n      dup2\n      0x05\n      add\n      sstore\n      0xc0\n      dup3\n      add\n      mload\n      dup2\n      0x06\n      add\n      exp(0x0100, 0x00)\n      dup2\n      sload\n      dup2\n      0xffffffffffffffffffffffffffffffffffffffff\n      mul\n      not\n      and\n      swap1\n      dup4\n      0xffffffffffffffffffffffffffffffffffffffff\n      and\n      mul\n      or\n      swap1\n      sstore\n      pop\n      0xe0\n      dup3\n      add\n      mload\n      dup2\n      0x07\n      add\n      exp(0x0100, 0x00)\n      dup2\n      sload\n      dup2\n      0xffffffffffffffffffffffffffffffffffffffff\n      mul\n      not\n      and\n      swap1\n      dup4\n      0xffffffffffffffffffffffffffffffffffffffff\n      and\n      mul\n      or\n      swap1\n      sstore\n      pop\n      0x0100\n      dup3\n      add\n      mload\n      dup2\n      0x07\n      add\n      exp(0x0100, 0x14)\n      dup2\n      sload\n      dup2\n      0xff\n      mul\n      not\n      and\n      swap1\n      dup4\n      iszero\n      iszero\n      mul\n      or\n      swap1\n      sstore\n      pop\n      0x0120\n      dup3\n      add\n      mload\n      dup2\n      0x07\n      add\n      exp(0x0100, 0x15)\n      dup2\n      sload\n      dup2\n      0xff\n      mul\n      not\n      and\n      swap1\n      dup4\n      0x05\n      dup2\n      gt\n      iszero\n      tag_133\n      jumpi\n      tag_134\n      tag_75\n      jump\t// in\n    tag_134:\n    tag_133:\n      mul\n      or\n      swap1\n      sstore\n      pop\n      swap1\n      pop\n      pop\n        /* \"contracts/Service.sol\":4251:4322  serviceUpdated(projectNumber, serviceNumber, title, description, price) */\n      0x68dd1fad96ebc5f1740866ec07701d4ab66240c086d6ae6d351ee74eacdf267e\n        /* \"contracts/Service.sol\":4266:4279  projectNumber */\n      dup7\n        /* \"contracts/Service.sol\":4281:4294  serviceNumber */\n      dup7\n        /* \"contracts/Service.sol\":4296:4301  title */\n      dup7\n        /* \"contracts/Service.sol\":4303:4314  description */\n      dup7\n        /* \"contracts/Service.sol\":4316:4321  price */\n      dup7\n        /* \"contracts/Service.sol\":4251:4322  serviceUpdated(projectNumber, serviceNumber, title, description, price) */\n      mload(0x40)\n      tag_135\n      swap6\n      swap5\n      swap4\n      swap3\n      swap2\n      swap1\n      tag_77\n      jump\t// in\n    tag_135:\n      mload(0x40)\n      dup1\n      swap2\n      sub\n      swap1\n      log1\n        /* \"contracts/Service.sol\":4028:4329  {... */\n      pop\n        /* \"contracts/Service.sol\":3889:4329  function updateService(uint256 projectNumber, uint256 serviceNumber, string memory title, string memory description, uint256 price) public {... */\n      pop\n      pop\n      pop\n      pop\n      pop\n      jump\t// out\n        /* \"contracts/Service.sol\":5552:5750  function deleteMilestone(uint256 projectNumber, uint256 serviceNumber, uint256 milestoneNumber) public {        ... */\n    tag_50:\n        /* \"contracts/Service.sol\":5673:5682  milestone */\n      0x00\n      dup1\n      sload\n      swap1\n      0x0100\n      exp\n      swap1\n      div\n      0xffffffffffffffffffffffffffffffffffffffff\n      and\n        /* \"contracts/Service.sol\":5673:5698  milestone.deleteMilestone */\n      0xffffffffffffffffffffffffffffffffffffffff\n      and\n      0xb9b6c5d4\n        /* \"contracts/Service.sol\":5699:5712  projectNumber */\n      dup5\n        /* \"contracts/Service.sol\":5713:5726  serviceNumber */\n      dup5\n        /* \"contracts/Service.sol\":5727:5742  milestoneNumber */\n      dup5\n        /* \"contracts/Service.sol\":5673:5743  milestone.deleteMilestone(projectNumber,serviceNumber,milestoneNumber) */\n      mload(0x40)\n      dup5\n      0xffffffff\n      and\n      0xe0\n      shl\n      dup2\n      mstore\n      0x04\n      add\n      tag_137\n      swap4\n      swap3\n      swap2\n      swap1\n      tag_83\n      jump\t// in\n    tag_137:\n      0x00\n      mload(0x40)\n      dup1\n      dup4\n      sub\n      dup2\n      0x00\n      dup8\n      dup1\n      extcodesize\n      iszero\n      dup1\n      iszero\n      tag_138\n      jumpi\n      0x00\n      dup1\n      revert\n    tag_138:\n      pop\n      gas\n      call\n      iszero\n      dup1\n      iszero\n      tag_140\n      jumpi\n      returndatasize\n      0x00\n      dup1\n      returndatacopy\n      revert(0x00, returndatasize)\n    tag_140:\n      pop\n      pop\n      pop\n      pop\n        /* \"contracts/Service.sol\":5552:5750  function deleteMilestone(uint256 projectNumber, uint256 serviceNumber, uint256 milestoneNumber) public {        ... */\n      pop\n      pop\n      pop\n      jump\t// out\n        /* \"contracts/Service.sol\":5213:5505  function updateMilestone(uint256 projectNumber, uint256 serviceNumber, uint256 milestoneNumber, string memory titleMilestone, string memory descriptionMilestone) public {... */\n    tag_54:\n        /* \"contracts/Service.sol\":5392:5401  milestone */\n      0x00\n      dup1\n      sload\n      swap1\n      0x0100\n      exp\n      swap1\n      div\n      0xffffffffffffffffffffffffffffffffffffffff\n      and\n        /* \"contracts/Service.sol\":5392:5417  milestone.updateMilestone */\n      0xffffffffffffffffffffffffffffffffffffffff\n      and\n      0xfd23c4bb\n        /* \"contracts/Service.sol\":5418:5431  projectNumber */\n      dup7\n        /* \"contracts/Service.sol\":5432:5445  serviceNumber */\n      dup7\n        /* \"contracts/Service.sol\":5446:5461  milestoneNumber */\n      dup7\n        /* \"contracts/Service.sol\":5462:5476  titleMilestone */\n      dup7\n        /* \"contracts/Service.sol\":5477:5497  descriptionMilestone */\n      dup7\n        /* \"contracts/Service.sol\":5392:5498  milestone.updateMilestone(projectNumber,serviceNumber,milestoneNumber,titleMilestone,descriptionMilestone) */\n      mload(0x40)\n      dup7\n      0xffffffff\n      and\n      0xe0\n      shl\n      dup2\n      mstore\n      0x04\n      add\n      tag_142\n      swap6\n      swap5\n      swap4\n      swap3\n      swap2\n      swap1\n      tag_143\n      jump\t// in\n    tag_142:\n      0x00\n      mload(0x40)\n      dup1\n      dup4\n      sub\n      dup2\n      0x00\n      dup8\n      dup1\n      extcodesize\n      iszero\n      dup1\n      iszero\n      tag_144\n      jumpi\n      0x00\n      dup1\n      revert\n    tag_144:\n      pop\n      gas\n      call\n      iszero\n      dup1\n      iszero\n      tag_146\n      jumpi\n      returndatasize\n      0x00\n      dup1\n      returndatacopy\n      revert(0x00, returndatasize)\n    tag_146:\n      pop\n      pop\n      pop\n      pop\n        /* \"contracts/Service.sol\":5213:5505  function updateMilestone(uint256 projectNumber, uint256 serviceNumber, uint256 milestoneNumber, string memory titleMilestone, string memory descriptionMilestone) public {... */\n      pop\n      pop\n      pop\n      pop\n      pop\n      jump\t// out\n    tag_71:\n      dup3\n      dup1\n      sload\n      tag_147\n      swap1\n      tag_103\n      jump\t// in\n    tag_147:\n      swap1\n      0x00\n      mstore\n      keccak256(0x00, 0x20)\n      swap1\n      0x1f\n      add\n      0x20\n      swap1\n      div\n      dup2\n      add\n      swap3\n      dup3\n      tag_149\n      jumpi\n      0x00\n      dup6\n      sstore\n      jump(tag_148)\n    tag_149:\n      dup3\n      0x1f\n      lt\n      tag_150\n      jumpi\n      dup1\n      mload\n      not(0xff)\n      and\n      dup4\n      dup1\n      add\n      or\n      dup6\n      sstore\n      jump(tag_148)\n    tag_150:\n      dup3\n      dup1\n      add\n      0x01\n      add\n      dup6\n      sstore\n      dup3\n      iszero\n      tag_148\n      jumpi\n      swap2\n      dup3\n      add\n    tag_151:\n      dup3\n      dup2\n      gt\n      iszero\n      tag_152\n      jumpi\n      dup3\n      mload\n      dup3\n      sstore\n      swap2\n      0x20\n      add\n      swap2\n      swap1\n      0x01\n      add\n      swap1\n      jump(tag_151)\n    tag_152:\n    tag_148:\n      pop\n      swap1\n      pop\n      tag_153\n      swap2\n      swap1\n      tag_154\n      jump\t// in\n    tag_153:\n      pop\n      swap1\n      jump\t// out\n    tag_154:\n    tag_155:\n      dup1\n      dup3\n      gt\n      iszero\n      tag_156\n      jumpi\n      0x00\n      dup2\n      0x00\n      swap1\n      sstore\n      pop\n      0x01\n      add\n      jump(tag_155)\n    tag_156:\n      pop\n      swap1\n      jump\t// out\n        /* \"#utility.yul\":7:419   */\n    tag_158:\n        /* \"#utility.yul\":85:90   */\n      0x00\n        /* \"#utility.yul\":110:176   */\n      tag_160\n        /* \"#utility.yul\":126:175   */\n      tag_161\n        /* \"#utility.yul\":168:174   */\n      dup5\n        /* \"#utility.yul\":126:175   */\n      tag_162\n      jump\t// in\n    tag_161:\n        /* \"#utility.yul\":110:176   */\n      tag_163\n      jump\t// in\n    tag_160:\n        /* \"#utility.yul\":101:176   */\n      swap1\n      pop\n        /* \"#utility.yul\":199:205   */\n      dup3\n        /* \"#utility.yul\":192:197   */\n      dup2\n        /* \"#utility.yul\":185:206   */\n      mstore\n        /* \"#utility.yul\":237:241   */\n      0x20\n        /* \"#utility.yul\":230:235   */\n      dup2\n        /* \"#utility.yul\":226:242   */\n      add\n        /* \"#utility.yul\":275:278   */\n      dup5\n        /* \"#utility.yul\":266:272   */\n      dup5\n        /* \"#utility.yul\":261:264   */\n      dup5\n        /* \"#utility.yul\":257:273   */\n      add\n        /* \"#utility.yul\":254:279   */\n      gt\n        /* \"#utility.yul\":251:363   */\n      iszero\n      tag_164\n      jumpi\n        /* \"#utility.yul\":282:361   */\n      tag_165\n      tag_166\n      jump\t// in\n    tag_165:\n        /* \"#utility.yul\":251:363   */\n    tag_164:\n        /* \"#utility.yul\":372:413   */\n      tag_167\n        /* \"#utility.yul\":406:412   */\n      dup5\n        /* \"#utility.yul\":401:404   */\n      dup3\n        /* \"#utility.yul\":396:399   */\n      dup6\n        /* \"#utility.yul\":372:413   */\n      tag_168\n      jump\t// in\n    tag_167:\n        /* \"#utility.yul\":91:419   */\n      pop\n        /* \"#utility.yul\":7:419   */\n      swap4\n      swap3\n      pop\n      pop\n      pop\n      jump\t// out\n        /* \"#utility.yul\":425:846   */\n    tag_169:\n        /* \"#utility.yul\":514:519   */\n      0x00\n        /* \"#utility.yul\":539:605   */\n      tag_171\n        /* \"#utility.yul\":555:604   */\n      tag_172\n        /* \"#utility.yul\":597:603   */\n      dup5\n        /* \"#utility.yul\":555:604   */\n      tag_162\n      jump\t// in\n    tag_172:\n        /* \"#utility.yul\":539:605   */\n      tag_163\n      jump\t// in\n    tag_171:\n        /* \"#utility.yul\":530:605   */\n      swap1\n      pop\n        /* \"#utility.yul\":628:634   */\n      dup3\n        /* \"#utility.yul\":621:626   */\n      dup2\n        /* \"#utility.yul\":614:635   */\n      mstore\n        /* \"#utility.yul\":666:670   */\n      0x20\n        /* \"#utility.yul\":659:664   */\n      dup2\n        /* \"#utility.yul\":655:671   */\n      add\n        /* \"#utility.yul\":704:707   */\n      dup5\n        /* \"#utility.yul\":695:701   */\n      dup5\n        /* \"#utility.yul\":690:693   */\n      dup5\n        /* \"#utility.yul\":686:702   */\n      add\n        /* \"#utility.yul\":683:708   */\n      gt\n        /* \"#utility.yul\":680:792   */\n      iszero\n      tag_173\n      jumpi\n        /* \"#utility.yul\":711:790   */\n      tag_174\n      tag_166\n      jump\t// in\n    tag_174:\n        /* \"#utility.yul\":680:792   */\n    tag_173:\n        /* \"#utility.yul\":801:840   */\n      tag_175\n        /* \"#utility.yul\":833:839   */\n      dup5\n        /* \"#utility.yul\":828:831   */\n      dup3\n        /* \"#utility.yul\":823:826   */\n      dup6\n        /* \"#utility.yul\":801:840   */\n      tag_176\n      jump\t// in\n    tag_175:\n        /* \"#utility.yul\":520:846   */\n      pop\n        /* \"#utility.yul\":425:846   */\n      swap4\n      swap3\n      pop\n      pop\n      pop\n      jump\t// out\n        /* \"#utility.yul\":852:991   */\n    tag_177:\n        /* \"#utility.yul\":898:903   */\n      0x00\n        /* \"#utility.yul\":936:942   */\n      dup2\n        /* \"#utility.yul\":923:943   */\n      calldataload\n        /* \"#utility.yul\":914:943   */\n      swap1\n      pop\n        /* \"#utility.yul\":952:985   */\n      tag_179\n        /* \"#utility.yul\":979:984   */\n      dup2\n        /* \"#utility.yul\":952:985   */\n      tag_180\n      jump\t// in\n    tag_179:\n        /* \"#utility.yul\":852:991   */\n      swap3\n      swap2\n      pop\n      pop\n      jump\t// out\n        /* \"#utility.yul\":1011:1351   */\n    tag_181:\n        /* \"#utility.yul\":1067:1072   */\n      0x00\n        /* \"#utility.yul\":1116:1119   */\n      dup3\n        /* \"#utility.yul\":1109:1113   */\n      0x1f\n        /* \"#utility.yul\":1101:1107   */\n      dup4\n        /* \"#utility.yul\":1097:1114   */\n      add\n        /* \"#utility.yul\":1093:1120   */\n      slt\n        /* \"#utility.yul\":1083:1205   */\n      tag_183\n      jumpi\n        /* \"#utility.yul\":1124:1203   */\n      tag_184\n      tag_185\n      jump\t// in\n    tag_184:\n        /* \"#utility.yul\":1083:1205   */\n    tag_183:\n        /* \"#utility.yul\":1241:1247   */\n      dup2\n        /* \"#utility.yul\":1228:1248   */\n      calldataload\n        /* \"#utility.yul\":1266:1345   */\n      tag_186\n        /* \"#utility.yul\":1341:1344   */\n      dup5\n        /* \"#utility.yul\":1333:1339   */\n      dup3\n        /* \"#utility.yul\":1326:1330   */\n      0x20\n        /* \"#utility.yul\":1318:1324   */\n      dup7\n        /* \"#utility.yul\":1314:1331   */\n      add\n        /* \"#utility.yul\":1266:1345   */\n      tag_158\n      jump\t// in\n    tag_186:\n        /* \"#utility.yul\":1257:1345   */\n      swap2\n      pop\n        /* \"#utility.yul\":1073:1351   */\n      pop\n        /* \"#utility.yul\":1011:1351   */\n      swap3\n      swap2\n      pop\n      pop\n      jump\t// out\n        /* \"#utility.yul\":1371:1726   */\n    tag_187:\n        /* \"#utility.yul\":1438:1443   */\n      0x00\n        /* \"#utility.yul\":1487:1490   */\n      dup3\n        /* \"#utility.yul\":1480:1484   */\n      0x1f\n        /* \"#utility.yul\":1472:1478   */\n      dup4\n        /* \"#utility.yul\":1468:1485   */\n      add\n        /* \"#utility.yul\":1464:1491   */\n      slt\n        /* \"#utility.yul\":1454:1576   */\n      tag_189\n      jumpi\n        /* \"#utility.yul\":1495:1574   */\n      tag_190\n      tag_185\n      jump\t// in\n    tag_190:\n        /* \"#utility.yul\":1454:1576   */\n    tag_189:\n        /* \"#utility.yul\":1605:1611   */\n      dup2\n        /* \"#utility.yul\":1599:1612   */\n      mload\n        /* \"#utility.yul\":1630:1720   */\n      tag_191\n        /* \"#utility.yul\":1716:1719   */\n      dup5\n        /* \"#utility.yul\":1708:1714   */\n      dup3\n        /* \"#utility.yul\":1701:1705   */\n      0x20\n        /* \"#utility.yul\":1693:1699   */\n      dup7\n        /* \"#utility.yul\":1689:1706   */\n      add\n        /* \"#utility.yul\":1630:1720   */\n      tag_169\n      jump\t// in\n    tag_191:\n        /* \"#utility.yul\":1621:1720   */\n      swap2\n      pop\n        /* \"#utility.yul\":1444:1726   */\n      pop\n        /* \"#utility.yul\":1371:1726   */\n      swap3\n      swap2\n      pop\n      pop\n      jump\t// out\n        /* \"#utility.yul\":1732:1871   */\n    tag_192:\n        /* \"#utility.yul\":1778:1783   */\n      0x00\n        /* \"#utility.yul\":1816:1822   */\n      dup2\n        /* \"#utility.yul\":1803:1823   */\n      calldataload\n        /* \"#utility.yul\":1794:1823   */\n      swap1\n      pop\n        /* \"#utility.yul\":1832:1865   */\n      tag_194\n        /* \"#utility.yul\":1859:1864   */\n      dup2\n        /* \"#utility.yul\":1832:1865   */\n      tag_195\n      jump\t// in\n    tag_194:\n        /* \"#utility.yul\":1732:1871   */\n      swap3\n      swap2\n      pop\n      pop\n      jump\t// out\n        /* \"#utility.yul\":1877:2730   */\n    tag_88:\n        /* \"#utility.yul\":1976:1982   */\n      0x00\n        /* \"#utility.yul\":1984:1990   */\n      dup1\n        /* \"#utility.yul\":2033:2035   */\n      0x40\n        /* \"#utility.yul\":2021:2030   */\n      dup4\n        /* \"#utility.yul\":2012:2019   */\n      dup6\n        /* \"#utility.yul\":2008:2031   */\n      sub\n        /* \"#utility.yul\":2004:2036   */\n      slt\n        /* \"#utility.yul\":2001:2120   */\n      iszero\n      tag_197\n      jumpi\n        /* \"#utility.yul\":2039:2118   */\n      tag_198\n      tag_199\n      jump\t// in\n    tag_198:\n        /* \"#utility.yul\":2001:2120   */\n    tag_197:\n        /* \"#utility.yul\":2180:2181   */\n      0x00\n        /* \"#utility.yul\":2169:2178   */\n      dup4\n        /* \"#utility.yul\":2165:2182   */\n      add\n        /* \"#utility.yul\":2159:2183   */\n      mload\n        /* \"#utility.yul\":2210:2228   */\n      0xffffffffffffffff\n        /* \"#utility.yul\":2202:2208   */\n      dup2\n        /* \"#utility.yul\":2199:2229   */\n      gt\n        /* \"#utility.yul\":2196:2313   */\n      iszero\n      tag_200\n      jumpi\n        /* \"#utility.yul\":2232:2311   */\n      tag_201\n      tag_202\n      jump\t// in\n    tag_201:\n        /* \"#utility.yul\":2196:2313   */\n    tag_200:\n        /* \"#utility.yul\":2337:2411   */\n      tag_203\n        /* \"#utility.yul\":2403:2410   */\n      dup6\n        /* \"#utility.yul\":2394:2400   */\n      dup3\n        /* \"#utility.yul\":2383:2392   */\n      dup7\n        /* \"#utility.yul\":2379:2401   */\n      add\n        /* \"#utility.yul\":2337:2411   */\n      tag_187\n      jump\t// in\n    tag_203:\n        /* \"#utility.yul\":2327:2411   */\n      swap3\n      pop\n        /* \"#utility.yul\":2130:2421   */\n      pop\n        /* \"#utility.yul\":2481:2483   */\n      0x20\n        /* \"#utility.yul\":2470:2479   */\n      dup4\n        /* \"#utility.yul\":2466:2484   */\n      add\n        /* \"#utility.yul\":2460:2485   */\n      mload\n        /* \"#utility.yul\":2512:2530   */\n      0xffffffffffffffff\n        /* \"#utility.yul\":2504:2510   */\n      dup2\n        /* \"#utility.yul\":2501:2531   */\n      gt\n        /* \"#utility.yul\":2498:2615   */\n      iszero\n      tag_204\n      jumpi\n        /* \"#utility.yul\":2534:2613   */\n      tag_205\n      tag_202\n      jump\t// in\n    tag_205:\n        /* \"#utility.yul\":2498:2615   */\n    tag_204:\n        /* \"#utility.yul\":2639:2713   */\n      tag_206\n        /* \"#utility.yul\":2705:2712   */\n      dup6\n        /* \"#utility.yul\":2696:2702   */\n      dup3\n        /* \"#utility.yul\":2685:2694   */\n      dup7\n        /* \"#utility.yul\":2681:2703   */\n      add\n        /* \"#utility.yul\":2639:2713   */\n      tag_187\n      jump\t// in\n    tag_206:\n        /* \"#utility.yul\":2629:2713   */\n      swap2\n      pop\n        /* \"#utility.yul\":2431:2723   */\n      pop\n        /* \"#utility.yul\":1877:2730   */\n      swap3\n      pop\n      swap3\n      swap1\n      pop\n      jump\t// out\n        /* \"#utility.yul\":2736:4007   */\n    tag_16:\n        /* \"#utility.yul\":2851:2857   */\n      0x00\n        /* \"#utility.yul\":2859:2865   */\n      dup1\n        /* \"#utility.yul\":2867:2873   */\n      0x00\n        /* \"#utility.yul\":2875:2881   */\n      dup1\n        /* \"#utility.yul\":2883:2889   */\n      0x00\n        /* \"#utility.yul\":2932:2935   */\n      0xa0\n        /* \"#utility.yul\":2920:2929   */\n      dup7\n        /* \"#utility.yul\":2911:2918   */\n      dup9\n        /* \"#utility.yul\":2907:2930   */\n      sub\n        /* \"#utility.yul\":2903:2936   */\n      slt\n        /* \"#utility.yul\":2900:3020   */\n      iszero\n      tag_208\n      jumpi\n        /* \"#utility.yul\":2939:3018   */\n      tag_209\n      tag_199\n      jump\t// in\n    tag_209:\n        /* \"#utility.yul\":2900:3020   */\n    tag_208:\n        /* \"#utility.yul\":3059:3060   */\n      0x00\n        /* \"#utility.yul\":3084:3137   */\n      tag_210\n        /* \"#utility.yul\":3129:3136   */\n      dup9\n        /* \"#utility.yul\":3120:3126   */\n      dup3\n        /* \"#utility.yul\":3109:3118   */\n      dup10\n        /* \"#utility.yul\":3105:3127   */\n      add\n        /* \"#utility.yul\":3084:3137   */\n      tag_192\n      jump\t// in\n    tag_210:\n        /* \"#utility.yul\":3074:3137   */\n      swap6\n      pop\n        /* \"#utility.yul\":3030:3147   */\n      pop\n        /* \"#utility.yul\":3214:3216   */\n      0x20\n        /* \"#utility.yul\":3203:3212   */\n      dup7\n        /* \"#utility.yul\":3199:3217   */\n      add\n        /* \"#utility.yul\":3186:3218   */\n      calldataload\n        /* \"#utility.yul\":3245:3263   */\n      0xffffffffffffffff\n        /* \"#utility.yul\":3237:3243   */\n      dup2\n        /* \"#utility.yul\":3234:3264   */\n      gt\n        /* \"#utility.yul\":3231:3348   */\n      iszero\n      tag_211\n      jumpi\n        /* \"#utility.yul\":3267:3346   */\n      tag_212\n      tag_202\n      jump\t// in\n    tag_212:\n        /* \"#utility.yul\":3231:3348   */\n    tag_211:\n        /* \"#utility.yul\":3372:3435   */\n      tag_213\n        /* \"#utility.yul\":3427:3434   */\n      dup9\n        /* \"#utility.yul\":3418:3424   */\n      dup3\n        /* \"#utility.yul\":3407:3416   */\n      dup10\n        /* \"#utility.yul\":3403:3425   */\n      add\n        /* \"#utility.yul\":3372:3435   */\n      tag_181\n      jump\t// in\n    tag_213:\n        /* \"#utility.yul\":3362:3435   */\n      swap5\n      pop\n        /* \"#utility.yul\":3157:3445   */\n      pop\n        /* \"#utility.yul\":3512:3514   */\n      0x40\n        /* \"#utility.yul\":3501:3510   */\n      dup7\n        /* \"#utility.yul\":3497:3515   */\n      add\n        /* \"#utility.yul\":3484:3516   */\n      calldataload\n        /* \"#utility.yul\":3543:3561   */\n      0xffffffffffffffff\n        /* \"#utility.yul\":3535:3541   */\n      dup2\n        /* \"#utility.yul\":3532:3562   */\n      gt\n        /* \"#utility.yul\":3529:3646   */\n      iszero\n      tag_214\n      jumpi\n        /* \"#utility.yul\":3565:3644   */\n      tag_215\n      tag_202\n      jump\t// in\n    tag_215:\n        /* \"#utility.yul\":3529:3646   */\n    tag_214:\n        /* \"#utility.yul\":3670:3733   */\n      tag_216\n        /* \"#utility.yul\":3725:3732   */\n      dup9\n        /* \"#utility.yul\":3716:3722   */\n      dup3\n        /* \"#utility.yul\":3705:3714   */\n      dup10\n        /* \"#utility.yul\":3701:3723   */\n      add\n        /* \"#utility.yul\":3670:3733   */\n      tag_181\n      jump\t// in\n    tag_216:\n        /* \"#utility.yul\":3660:3733   */\n      swap4\n      pop\n        /* \"#utility.yul\":3455:3743   */\n      pop\n        /* \"#utility.yul\":3782:3784   */\n      0x60\n        /* \"#utility.yul\":3808:3861   */\n      tag_217\n        /* \"#utility.yul\":3853:3860   */\n      dup9\n        /* \"#utility.yul\":3844:3850   */\n      dup3\n        /* \"#utility.yul\":3833:3842   */\n      dup10\n        /* \"#utility.yul\":3829:3851   */\n      add\n        /* \"#utility.yul\":3808:3861   */\n      tag_192\n      jump\t// in\n    tag_217:\n        /* \"#utility.yul\":3798:3861   */\n      swap3\n      pop\n        /* \"#utility.yul\":3753:3871   */\n      pop\n        /* \"#utility.yul\":3910:3913   */\n      0x80\n        /* \"#utility.yul\":3937:3990   */\n      tag_218\n        /* \"#utility.yul\":3982:3989   */\n      dup9\n        /* \"#utility.yul\":3973:3979   */\n      dup3\n        /* \"#utility.yul\":3962:3971   */\n      dup10\n        /* \"#utility.yul\":3958:3980   */\n      add\n        /* \"#utility.yul\":3937:3990   */\n      tag_177\n      jump\t// in\n    tag_218:\n        /* \"#utility.yul\":3927:3990   */\n      swap2\n      pop\n        /* \"#utility.yul\":3881:4000   */\n      pop\n        /* \"#utility.yul\":2736:4007   */\n      swap3\n      swap6\n      pop\n      swap3\n      swap6\n      swap1\n      swap4\n      pop\n      jump\t// out\n        /* \"#utility.yul\":4013:4487   */\n    tag_33:\n        /* \"#utility.yul\":4081:4087   */\n      0x00\n        /* \"#utility.yul\":4089:4095   */\n      dup1\n        /* \"#utility.yul\":4138:4140   */\n      0x40\n        /* \"#utility.yul\":4126:4135   */\n      dup4\n        /* \"#utility.yul\":4117:4124   */\n      dup6\n        /* \"#utility.yul\":4113:4136   */\n      sub\n        /* \"#utility.yul\":4109:4141   */\n      slt\n        /* \"#utility.yul\":4106:4225   */\n      iszero\n      tag_220\n      jumpi\n        /* \"#utility.yul\":4144:4223   */\n      tag_221\n      tag_199\n      jump\t// in\n    tag_221:\n        /* \"#utility.yul\":4106:4225   */\n    tag_220:\n        /* \"#utility.yul\":4264:4265   */\n      0x00\n        /* \"#utility.yul\":4289:4342   */\n      tag_222\n        /* \"#utility.yul\":4334:4341   */\n      dup6\n        /* \"#utility.yul\":4325:4331   */\n      dup3\n        /* \"#utility.yul\":4314:4323   */\n      dup7\n        /* \"#utility.yul\":4310:4332   */\n      add\n        /* \"#utility.yul\":4289:4342   */\n      tag_192\n      jump\t// in\n    tag_222:\n        /* \"#utility.yul\":4279:4342   */\n      swap3\n      pop\n        /* \"#utility.yul\":4235:4352   */\n      pop\n        /* \"#utility.yul\":4391:4393   */\n      0x20\n        /* \"#utility.yul\":4417:4470   */\n      tag_223\n        /* \"#utility.yul\":4462:4469   */\n      dup6\n        /* \"#utility.yul\":4453:4459   */\n      dup3\n        /* \"#utility.yul\":4442:4451   */\n      dup7\n        /* \"#utility.yul\":4438:4460   */\n      add\n        /* \"#utility.yul\":4417:4470   */\n      tag_192\n      jump\t// in\n    tag_223:\n        /* \"#utility.yul\":4407:4470   */\n      swap2\n      pop\n        /* \"#utility.yul\":4362:4480   */\n      pop\n        /* \"#utility.yul\":4013:4487   */\n      swap3\n      pop\n      swap3\n      swap1\n      pop\n      jump\t// out\n        /* \"#utility.yul\":4493:5618   */\n    tag_42:\n        /* \"#utility.yul\":4599:4605   */\n      0x00\n        /* \"#utility.yul\":4607:4613   */\n      dup1\n        /* \"#utility.yul\":4615:4621   */\n      0x00\n        /* \"#utility.yul\":4623:4629   */\n      dup1\n        /* \"#utility.yul\":4672:4675   */\n      0x80\n        /* \"#utility.yul\":4660:4669   */\n      dup6\n        /* \"#utility.yul\":4651:4658   */\n      dup8\n        /* \"#utility.yul\":4647:4670   */\n      sub\n        /* \"#utility.yul\":4643:4676   */\n      slt\n        /* \"#utility.yul\":4640:4760   */\n      iszero\n      tag_225\n      jumpi\n        /* \"#utility.yul\":4679:4758   */\n      tag_226\n      tag_199\n      jump\t// in\n    tag_226:\n        /* \"#utility.yul\":4640:4760   */\n    tag_225:\n        /* \"#utility.yul\":4799:4800   */\n      0x00\n        /* \"#utility.yul\":4824:4877   */\n      tag_227\n        /* \"#utility.yul\":4869:4876   */\n      dup8\n        /* \"#utility.yul\":4860:4866   */\n      dup3\n        /* \"#utility.yul\":4849:4858   */\n      dup9\n        /* \"#utility.yul\":4845:4867   */\n      add\n        /* \"#utility.yul\":4824:4877   */\n      tag_192\n      jump\t// in\n    tag_227:\n        /* \"#utility.yul\":4814:4877   */\n      swap5\n      pop\n        /* \"#utility.yul\":4770:4887   */\n      pop\n        /* \"#utility.yul\":4926:4928   */\n      0x20\n        /* \"#utility.yul\":4952:5005   */\n      tag_228\n        /* \"#utility.yul\":4997:5004   */\n      dup8\n        /* \"#utility.yul\":4988:4994   */\n      dup3\n        /* \"#utility.yul\":4977:4986   */\n      dup9\n        /* \"#utility.yul\":4973:4995   */\n      add\n        /* \"#utility.yul\":4952:5005   */\n      tag_192\n      jump\t// in\n    tag_228:\n        /* \"#utility.yul\":4942:5005   */\n      swap4\n      pop\n        /* \"#utility.yul\":4897:5015   */\n      pop\n        /* \"#utility.yul\":5082:5084   */\n      0x40\n        /* \"#utility.yul\":5071:5080   */\n      dup6\n        /* \"#utility.yul\":5067:5085   */\n      add\n        /* \"#utility.yul\":5054:5086   */\n      calldataload\n        /* \"#utility.yul\":5113:5131   */\n      0xffffffffffffffff\n        /* \"#utility.yul\":5105:5111   */\n      dup2\n        /* \"#utility.yul\":5102:5132   */\n      gt\n        /* \"#utility.yul\":5099:5216   */\n      iszero\n      tag_229\n      jumpi\n        /* \"#utility.yul\":5135:5214   */\n      tag_230\n      tag_202\n      jump\t// in\n    tag_230:\n        /* \"#utility.yul\":5099:5216   */\n    tag_229:\n        /* \"#utility.yul\":5240:5303   */\n      tag_231\n        /* \"#utility.yul\":5295:5302   */\n      dup8\n        /* \"#utility.yul\":5286:5292   */\n      dup3\n        /* \"#utility.yul\":5275:5284   */\n      dup9\n        /* \"#utility.yul\":5271:5293   */\n      add\n        /* \"#utility.yul\":5240:5303   */\n      tag_181\n      jump\t// in\n    tag_231:\n        /* \"#utility.yul\":5230:5303   */\n      swap3\n      pop\n        /* \"#utility.yul\":5025:5313   */\n      pop\n        /* \"#utility.yul\":5380:5382   */\n      0x60\n        /* \"#utility.yul\":5369:5378   */\n      dup6\n        /* \"#utility.yul\":5365:5383   */\n      add\n        /* \"#utility.yul\":5352:5384   */\n      calldataload\n        /* \"#utility.yul\":5411:5429   */\n      0xffffffffffffffff\n        /* \"#utility.yul\":5403:5409   */\n      dup2\n        /* \"#utility.yul\":5400:5430   */\n      gt\n        /* \"#utility.yul\":5397:5514   */\n      iszero\n      tag_232\n      jumpi\n        /* \"#utility.yul\":5433:5512   */\n      tag_233\n      tag_202\n      jump\t// in\n    tag_233:\n        /* \"#utility.yul\":5397:5514   */\n    tag_232:\n        /* \"#utility.yul\":5538:5601   */\n      tag_234\n        /* \"#utility.yul\":5593:5600   */\n      dup8\n        /* \"#utility.yul\":5584:5590   */\n      dup3\n        /* \"#utility.yul\":5573:5582   */\n      dup9\n        /* \"#utility.yul\":5569:5591   */\n      add\n        /* \"#utility.yul\":5538:5601   */\n      tag_181\n      jump\t// in\n    tag_234:\n        /* \"#utility.yul\":5528:5601   */\n      swap2\n      pop\n        /* \"#utility.yul\":5323:5611   */\n      pop\n        /* \"#utility.yul\":4493:5618   */\n      swap3\n      swap6\n      swap2\n      swap5\n      pop\n      swap3\n      pop\n      jump\t// out\n        /* \"#utility.yul\":5624:6895   */\n    tag_46:\n        /* \"#utility.yul\":5739:5745   */\n      0x00\n        /* \"#utility.yul\":5747:5753   */\n      dup1\n        /* \"#utility.yul\":5755:5761   */\n      0x00\n        /* \"#utility.yul\":5763:5769   */\n      dup1\n        /* \"#utility.yul\":5771:5777   */\n      0x00\n        /* \"#utility.yul\":5820:5823   */\n      0xa0\n        /* \"#utility.yul\":5808:5817   */\n      dup7\n        /* \"#utility.yul\":5799:5806   */\n      dup9\n        /* \"#utility.yul\":5795:5818   */\n      sub\n        /* \"#utility.yul\":5791:5824   */\n      slt\n        /* \"#utility.yul\":5788:5908   */\n      iszero\n      tag_236\n      jumpi\n        /* \"#utility.yul\":5827:5906   */\n      tag_237\n      tag_199\n      jump\t// in\n    tag_237:\n        /* \"#utility.yul\":5788:5908   */\n    tag_236:\n        /* \"#utility.yul\":5947:5948   */\n      0x00\n        /* \"#utility.yul\":5972:6025   */\n      tag_238\n        /* \"#utility.yul\":6017:6024   */\n      dup9\n        /* \"#utility.yul\":6008:6014   */\n      dup3\n        /* \"#utility.yul\":5997:6006   */\n      dup10\n        /* \"#utility.yul\":5993:6015   */\n      add\n        /* \"#utility.yul\":5972:6025   */\n      tag_192\n      jump\t// in\n    tag_238:\n        /* \"#utility.yul\":5962:6025   */\n      swap6\n      pop\n        /* \"#utility.yul\":5918:6035   */\n      pop\n        /* \"#utility.yul\":6074:6076   */\n      0x20\n        /* \"#utility.yul\":6100:6153   */\n      tag_239\n        /* \"#utility.yul\":6145:6152   */\n      dup9\n        /* \"#utility.yul\":6136:6142   */\n      dup3\n        /* \"#utility.yul\":6125:6134   */\n      dup10\n        /* \"#utility.yul\":6121:6143   */\n      add\n        /* \"#utility.yul\":6100:6153   */\n      tag_192\n      jump\t// in\n    tag_239:\n        /* \"#utility.yul\":6090:6153   */\n      swap5\n      pop\n        /* \"#utility.yul\":6045:6163   */\n      pop\n        /* \"#utility.yul\":6230:6232   */\n      0x40\n        /* \"#utility.yul\":6219:6228   */\n      dup7\n        /* \"#utility.yul\":6215:6233   */\n      add\n        /* \"#utility.yul\":6202:6234   */\n      calldataload\n        /* \"#utility.yul\":6261:6279   */\n      0xffffffffffffffff\n        /* \"#utility.yul\":6253:6259   */\n      dup2\n        /* \"#utility.yul\":6250:6280   */\n      gt\n        /* \"#utility.yul\":6247:6364   */\n      iszero\n      tag_240\n      jumpi\n        /* \"#utility.yul\":6283:6362   */\n      tag_241\n      tag_202\n      jump\t// in\n    tag_241:\n        /* \"#utility.yul\":6247:6364   */\n    tag_240:\n        /* \"#utility.yul\":6388:6451   */\n      tag_242\n        /* \"#utility.yul\":6443:6450   */\n      dup9\n        /* \"#utility.yul\":6434:6440   */\n      dup3\n        /* \"#utility.yul\":6423:6432   */\n      dup10\n        /* \"#utility.yul\":6419:6441   */\n      add\n        /* \"#utility.yul\":6388:6451   */\n      tag_181\n      jump\t// in\n    tag_242:\n        /* \"#utility.yul\":6378:6451   */\n      swap4\n      pop\n        /* \"#utility.yul\":6173:6461   */\n      pop\n        /* \"#utility.yul\":6528:6530   */\n      0x60\n        /* \"#utility.yul\":6517:6526   */\n      dup7\n        /* \"#utility.yul\":6513:6531   */\n      add\n        /* \"#utility.yul\":6500:6532   */\n      calldataload\n        /* \"#utility.yul\":6559:6577   */\n      0xffffffffffffffff\n        /* \"#utility.yul\":6551:6557   */\n      dup2\n        /* \"#utility.yul\":6548:6578   */\n      gt\n        /* \"#utility.yul\":6545:6662   */\n      iszero\n      tag_243\n      jumpi\n        /* \"#utility.yul\":6581:6660   */\n      tag_244\n      tag_202\n      jump\t// in\n    tag_244:\n        /* \"#utility.yul\":6545:6662   */\n    tag_243:\n        /* \"#utility.yul\":6686:6749   */\n      tag_245\n        /* \"#utility.yul\":6741:6748   */\n      dup9\n        /* \"#utility.yul\":6732:6738   */\n      dup3\n        /* \"#utility.yul\":6721:6730   */\n      dup10\n        /* \"#utility.yul\":6717:6739   */\n      add\n        /* \"#utility.yul\":6686:6749   */\n      tag_181\n      jump\t// in\n    tag_245:\n        /* \"#utility.yul\":6676:6749   */\n      swap3\n      pop\n        /* \"#utility.yul\":6471:6759   */\n      pop\n        /* \"#utility.yul\":6798:6801   */\n      0x80\n        /* \"#utility.yul\":6825:6878   */\n      tag_246\n        /* \"#utility.yul\":6870:6877   */\n      dup9\n        /* \"#utility.yul\":6861:6867   */\n      dup3\n        /* \"#utility.yul\":6850:6859   */\n      dup10\n        /* \"#utility.yul\":6846:6868   */\n      add\n        /* \"#utility.yul\":6825:6878   */\n      tag_192\n      jump\t// in\n    tag_246:\n        /* \"#utility.yul\":6815:6878   */\n      swap2\n      pop\n        /* \"#utility.yul\":6769:6888   */\n      pop\n        /* \"#utility.yul\":5624:6895   */\n      swap3\n      swap6\n      pop\n      swap3\n      swap6\n      swap1\n      swap4\n      pop\n      jump\t// out\n        /* \"#utility.yul\":6901:7520   */\n    tag_27:\n        /* \"#utility.yul\":6978:6984   */\n      0x00\n        /* \"#utility.yul\":6986:6992   */\n      dup1\n        /* \"#utility.yul\":6994:7000   */\n      0x00\n        /* \"#utility.yul\":7043:7045   */\n      0x60\n        /* \"#utility.yul\":7031:7040   */\n      dup5\n        /* \"#utility.yul\":7022:7029   */\n      dup7\n        /* \"#utility.yul\":7018:7041   */\n      sub\n        /* \"#utility.yul\":7014:7046   */\n      slt\n        /* \"#utility.yul\":7011:7130   */\n      iszero\n      tag_248\n      jumpi\n        /* \"#utility.yul\":7049:7128   */\n      tag_249\n      tag_199\n      jump\t// in\n    tag_249:\n        /* \"#utility.yul\":7011:7130   */\n    tag_248:\n        /* \"#utility.yul\":7169:7170   */\n      0x00\n        /* \"#utility.yul\":7194:7247   */\n      tag_250\n        /* \"#utility.yul\":7239:7246   */\n      dup7\n        /* \"#utility.yul\":7230:7236   */\n      dup3\n        /* \"#utility.yul\":7219:7228   */\n      dup8\n        /* \"#utility.yul\":7215:7237   */\n      add\n        /* \"#utility.yul\":7194:7247   */\n      tag_192\n      jump\t// in\n    tag_250:\n        /* \"#utility.yul\":7184:7247   */\n      swap4\n      pop\n        /* \"#utility.yul\":7140:7257   */\n      pop\n        /* \"#utility.yul\":7296:7298   */\n      0x20\n        /* \"#utility.yul\":7322:7375   */\n      tag_251\n        /* \"#utility.yul\":7367:7374   */\n      dup7\n        /* \"#utility.yul\":7358:7364   */\n      dup3\n        /* \"#utility.yul\":7347:7356   */\n      dup8\n        /* \"#utility.yul\":7343:7365   */\n      add\n        /* \"#utility.yul\":7322:7375   */\n      tag_192\n      jump\t// in\n    tag_251:\n        /* \"#utility.yul\":7312:7375   */\n      swap3\n      pop\n        /* \"#utility.yul\":7267:7385   */\n      pop\n        /* \"#utility.yul\":7424:7426   */\n      0x40\n        /* \"#utility.yul\":7450:7503   */\n      tag_252\n        /* \"#utility.yul\":7495:7502   */\n      dup7\n        /* \"#utility.yul\":7486:7492   */\n      dup3\n        /* \"#utility.yul\":7475:7484   */\n      dup8\n        /* \"#utility.yul\":7471:7493   */\n      add\n        /* \"#utility.yul\":7450:7503   */\n      tag_192\n      jump\t// in\n    tag_252:\n        /* \"#utility.yul\":7440:7503   */\n      swap2\n      pop\n        /* \"#utility.yul\":7395:7513   */\n      pop\n        /* \"#utility.yul\":6901:7520   */\n      swap3\n      pop\n      swap3\n      pop\n      swap3\n      jump\t// out\n        /* \"#utility.yul\":7526:8797   */\n    tag_53:\n        /* \"#utility.yul\":7641:7647   */\n      0x00\n        /* \"#utility.yul\":7649:7655   */\n      dup1\n        /* \"#utility.yul\":7657:7663   */\n      0x00\n        /* \"#utility.yul\":7665:7671   */\n      dup1\n        /* \"#utility.yul\":7673:7679   */\n      0x00\n        /* \"#utility.yul\":7722:7725   */\n      0xa0\n        /* \"#utility.yul\":7710:7719   */\n      dup7\n        /* \"#utility.yul\":7701:7708   */\n      dup9\n        /* \"#utility.yul\":7697:7720   */\n      sub\n        /* \"#utility.yul\":7693:7726   */\n      slt\n        /* \"#utility.yul\":7690:7810   */\n      iszero\n      tag_254\n      jumpi\n        /* \"#utility.yul\":7729:7808   */\n      tag_255\n      tag_199\n      jump\t// in\n    tag_255:\n        /* \"#utility.yul\":7690:7810   */\n    tag_254:\n        /* \"#utility.yul\":7849:7850   */\n      0x00\n        /* \"#utility.yul\":7874:7927   */\n      tag_256\n        /* \"#utility.yul\":7919:7926   */\n      dup9\n        /* \"#utility.yul\":7910:7916   */\n      dup3\n        /* \"#utility.yul\":7899:7908   */\n      dup10\n        /* \"#utility.yul\":7895:7917   */\n      add\n        /* \"#utility.yul\":7874:7927   */\n      tag_192\n      jump\t// in\n    tag_256:\n        /* \"#utility.yul\":7864:7927   */\n      swap6\n      pop\n        /* \"#utility.yul\":7820:7937   */\n      pop\n        /* \"#utility.yul\":7976:7978   */\n      0x20\n        /* \"#utility.yul\":8002:8055   */\n      tag_257\n        /* \"#utility.yul\":8047:8054   */\n      dup9\n        /* \"#utility.yul\":8038:8044   */\n      dup3\n        /* \"#utility.yul\":8027:8036   */\n      dup10\n        /* \"#utility.yul\":8023:8045   */\n      add\n        /* \"#utility.yul\":8002:8055   */\n      tag_192\n      jump\t// in\n    tag_257:\n        /* \"#utility.yul\":7992:8055   */\n      swap5\n      pop\n        /* \"#utility.yul\":7947:8065   */\n      pop\n        /* \"#utility.yul\":8104:8106   */\n      0x40\n        /* \"#utility.yul\":8130:8183   */\n      tag_258\n        /* \"#utility.yul\":8175:8182   */\n      dup9\n        /* \"#utility.yul\":8166:8172   */\n      dup3\n        /* \"#utility.yul\":8155:8164   */\n      dup10\n        /* \"#utility.yul\":8151:8173   */\n      add\n        /* \"#utility.yul\":8130:8183   */\n      tag_192\n      jump\t// in\n    tag_258:\n        /* \"#utility.yul\":8120:8183   */\n      swap4\n      pop\n        /* \"#utility.yul\":8075:8193   */\n      pop\n        /* \"#utility.yul\":8260:8262   */\n      0x60\n        /* \"#utility.yul\":8249:8258   */\n      dup7\n        /* \"#utility.yul\":8245:8263   */\n      add\n        /* \"#utility.yul\":8232:8264   */\n      calldataload\n        /* \"#utility.yul\":8291:8309   */\n      0xffffffffffffffff\n        /* \"#utility.yul\":8283:8289   */\n      dup2\n        /* \"#utility.yul\":8280:8310   */\n      gt\n        /* \"#utility.yul\":8277:8394   */\n      iszero\n      tag_259\n      jumpi\n        /* \"#utility.yul\":8313:8392   */\n      tag_260\n      tag_202\n      jump\t// in\n    tag_260:\n        /* \"#utility.yul\":8277:8394   */\n    tag_259:\n        /* \"#utility.yul\":8418:8481   */\n      tag_261\n        /* \"#utility.yul\":8473:8480   */\n      dup9\n        /* \"#utility.yul\":8464:8470   */\n      dup3\n        /* \"#utility.yul\":8453:8462   */\n      dup10\n        /* \"#utility.yul\":8449:8471   */\n      add\n        /* \"#utility.yul\":8418:8481   */\n      tag_181\n      jump\t// in\n    tag_261:\n        /* \"#utility.yul\":8408:8481   */\n      swap3\n      pop\n        /* \"#utility.yul\":8203:8491   */\n      pop\n        /* \"#utility.yul\":8558:8561   */\n      0x80\n        /* \"#utility.yul\":8547:8556   */\n      dup7\n        /* \"#utility.yul\":8543:8562   */\n      add\n        /* \"#utility.yul\":8530:8563   */\n      calldataload\n        /* \"#utility.yul\":8590:8608   */\n      0xffffffffffffffff\n        /* \"#utility.yul\":8582:8588   */\n      dup2\n        /* \"#utility.yul\":8579:8609   */\n      gt\n        /* \"#utility.yul\":8576:8693   */\n      iszero\n      tag_262\n      jumpi\n        /* \"#utility.yul\":8612:8691   */\n      tag_263\n      tag_202\n      jump\t// in\n    tag_263:\n        /* \"#utility.yul\":8576:8693   */\n    tag_262:\n        /* \"#utility.yul\":8717:8780   */\n      tag_264\n        /* \"#utility.yul\":8772:8779   */\n      dup9\n        /* \"#utility.yul\":8763:8769   */\n      dup3\n        /* \"#utility.yul\":8752:8761   */\n      dup10\n        /* \"#utility.yul\":8748:8770   */\n      add\n        /* \"#utility.yul\":8717:8780   */\n      tag_181\n      jump\t// in\n    tag_264:\n        /* \"#utility.yul\":8707:8780   */\n      swap2\n      pop\n        /* \"#utility.yul\":8501:8790   */\n      pop\n        /* \"#utility.yul\":7526:8797   */\n      swap3\n      swap6\n      pop\n      swap3\n      swap6\n      swap1\n      swap4\n      pop\n      jump\t// out\n        /* \"#utility.yul\":8803:9167   */\n    tag_265:\n        /* \"#utility.yul\":8891:8894   */\n      0x00\n        /* \"#utility.yul\":8919:8958   */\n      tag_267\n        /* \"#utility.yul\":8952:8957   */\n      dup3\n        /* \"#utility.yul\":8919:8958   */\n      tag_268\n      jump\t// in\n    tag_267:\n        /* \"#utility.yul\":8974:9045   */\n      tag_269\n        /* \"#utility.yul\":9038:9044   */\n      dup2\n        /* \"#utility.yul\":9033:9036   */\n      dup6\n        /* \"#utility.yul\":8974:9045   */\n      tag_270\n      jump\t// in\n    tag_269:\n        /* \"#utility.yul\":8967:9045   */\n      swap4\n      pop\n        /* \"#utility.yul\":9054:9106   */\n      tag_271\n        /* \"#utility.yul\":9099:9105   */\n      dup2\n        /* \"#utility.yul\":9094:9097   */\n      dup6\n        /* \"#utility.yul\":9087:9091   */\n      0x20\n        /* \"#utility.yul\":9080:9085   */\n      dup7\n        /* \"#utility.yul\":9076:9092   */\n      add\n        /* \"#utility.yul\":9054:9106   */\n      tag_176\n      jump\t// in\n    tag_271:\n        /* \"#utility.yul\":9131:9160   */\n      tag_272\n        /* \"#utility.yul\":9153:9159   */\n      dup2\n        /* \"#utility.yul\":9131:9160   */\n      tag_273\n      jump\t// in\n    tag_272:\n        /* \"#utility.yul\":9126:9129   */\n      dup5\n        /* \"#utility.yul\":9122:9161   */\n      add\n        /* \"#utility.yul\":9115:9161   */\n      swap2\n      pop\n        /* \"#utility.yul\":8895:9167   */\n      pop\n        /* \"#utility.yul\":8803:9167   */\n      swap3\n      swap2\n      pop\n      pop\n      jump\t// out\n        /* \"#utility.yul\":9173:9539   */\n    tag_274:\n        /* \"#utility.yul\":9315:9318   */\n      0x00\n        /* \"#utility.yul\":9336:9403   */\n      tag_276\n        /* \"#utility.yul\":9400:9402   */\n      0x21\n        /* \"#utility.yul\":9395:9398   */\n      dup4\n        /* \"#utility.yul\":9336:9403   */\n      tag_270\n      jump\t// in\n    tag_276:\n        /* \"#utility.yul\":9329:9403   */\n      swap2\n      pop\n        /* \"#utility.yul\":9412:9505   */\n      tag_277\n        /* \"#utility.yul\":9501:9504   */\n      dup3\n        /* \"#utility.yul\":9412:9505   */\n      tag_278\n      jump\t// in\n    tag_277:\n        /* \"#utility.yul\":9530:9532   */\n      0x40\n        /* \"#utility.yul\":9525:9528   */\n      dup3\n        /* \"#utility.yul\":9521:9533   */\n      add\n        /* \"#utility.yul\":9514:9533   */\n      swap1\n      pop\n        /* \"#utility.yul\":9173:9539   */\n      swap2\n      swap1\n      pop\n      jump\t// out\n        /* \"#utility.yul\":9545:9911   */\n    tag_279:\n        /* \"#utility.yul\":9687:9690   */\n      0x00\n        /* \"#utility.yul\":9708:9775   */\n      tag_281\n        /* \"#utility.yul\":9772:9774   */\n      0x15\n        /* \"#utility.yul\":9767:9770   */\n      dup4\n        /* \"#utility.yul\":9708:9775   */\n      tag_270\n      jump\t// in\n    tag_281:\n        /* \"#utility.yul\":9701:9775   */\n      swap2\n      pop\n        /* \"#utility.yul\":9784:9877   */\n      tag_282\n        /* \"#utility.yul\":9873:9876   */\n      dup3\n        /* \"#utility.yul\":9784:9877   */\n      tag_283\n      jump\t// in\n    tag_282:\n        /* \"#utility.yul\":9902:9904   */\n      0x20\n        /* \"#utility.yul\":9897:9900   */\n      dup3\n        /* \"#utility.yul\":9893:9905   */\n      add\n        /* \"#utility.yul\":9886:9905   */\n      swap1\n      pop\n        /* \"#utility.yul\":9545:9911   */\n      swap2\n      swap1\n      pop\n      jump\t// out\n        /* \"#utility.yul\":9917:10035   */\n    tag_284:\n        /* \"#utility.yul\":10004:10028   */\n      tag_286\n        /* \"#utility.yul\":10022:10027   */\n      dup2\n        /* \"#utility.yul\":10004:10028   */\n      tag_287\n      jump\t// in\n    tag_286:\n        /* \"#utility.yul\":9999:10002   */\n      dup3\n        /* \"#utility.yul\":9992:10029   */\n      mstore\n        /* \"#utility.yul\":9917:10035   */\n      pop\n      pop\n      jump\t// out\n        /* \"#utility.yul\":10041:10555   */\n    tag_30:\n        /* \"#utility.yul\":10202:10206   */\n      0x00\n        /* \"#utility.yul\":10240:10242   */\n      0x40\n        /* \"#utility.yul\":10229:10238   */\n      dup3\n        /* \"#utility.yul\":10225:10243   */\n      add\n        /* \"#utility.yul\":10217:10243   */\n      swap1\n      pop\n        /* \"#utility.yul\":10289:10298   */\n      dup2\n        /* \"#utility.yul\":10283:10287   */\n      dup2\n        /* \"#utility.yul\":10279:10299   */\n      sub\n        /* \"#utility.yul\":10275:10276   */\n      0x00\n        /* \"#utility.yul\":10264:10273   */\n      dup4\n        /* \"#utility.yul\":10260:10277   */\n      add\n        /* \"#utility.yul\":10253:10300   */\n      mstore\n        /* \"#utility.yul\":10317:10395   */\n      tag_289\n        /* \"#utility.yul\":10390:10394   */\n      dup2\n        /* \"#utility.yul\":10381:10387   */\n      dup6\n        /* \"#utility.yul\":10317:10395   */\n      tag_265\n      jump\t// in\n    tag_289:\n        /* \"#utility.yul\":10309:10395   */\n      swap1\n      pop\n        /* \"#utility.yul\":10442:10451   */\n      dup2\n        /* \"#utility.yul\":10436:10440   */\n      dup2\n        /* \"#utility.yul\":10432:10452   */\n      sub\n        /* \"#utility.yul\":10427:10429   */\n      0x20\n        /* \"#utility.yul\":10416:10425   */\n      dup4\n        /* \"#utility.yul\":10412:10430   */\n      add\n        /* \"#utility.yul\":10405:10453   */\n      mstore\n        /* \"#utility.yul\":10470:10548   */\n      tag_290\n        /* \"#utility.yul\":10543:10547   */\n      dup2\n        /* \"#utility.yul\":10534:10540   */\n      dup5\n        /* \"#utility.yul\":10470:10548   */\n      tag_265\n      jump\t// in\n    tag_290:\n        /* \"#utility.yul\":10462:10548   */\n      swap1\n      pop\n        /* \"#utility.yul\":10041:10555   */\n      swap4\n      swap3\n      pop\n      pop\n      pop\n      jump\t// out\n        /* \"#utility.yul\":10561:11296   */\n    tag_36:\n        /* \"#utility.yul\":10778:10782   */\n      0x00\n        /* \"#utility.yul\":10816:10819   */\n      0x80\n        /* \"#utility.yul\":10805:10814   */\n      dup3\n        /* \"#utility.yul\":10801:10820   */\n      add\n        /* \"#utility.yul\":10793:10820   */\n      swap1\n      pop\n        /* \"#utility.yul\":10866:10875   */\n      dup2\n        /* \"#utility.yul\":10860:10864   */\n      dup2\n        /* \"#utility.yul\":10856:10876   */\n      sub\n        /* \"#utility.yul\":10852:10853   */\n      0x00\n        /* \"#utility.yul\":10841:10850   */\n      dup4\n        /* \"#utility.yul\":10837:10854   */\n      add\n        /* \"#utility.yul\":10830:10877   */\n      mstore\n        /* \"#utility.yul\":10894:10972   */\n      tag_292\n        /* \"#utility.yul\":10967:10971   */\n      dup2\n        /* \"#utility.yul\":10958:10964   */\n      dup8\n        /* \"#utility.yul\":10894:10972   */\n      tag_265\n      jump\t// in\n    tag_292:\n        /* \"#utility.yul\":10886:10972   */\n      swap1\n      pop\n        /* \"#utility.yul\":11019:11028   */\n      dup2\n        /* \"#utility.yul\":11013:11017   */\n      dup2\n        /* \"#utility.yul\":11009:11029   */\n      sub\n        /* \"#utility.yul\":11004:11006   */\n      0x20\n        /* \"#utility.yul\":10993:11002   */\n      dup4\n        /* \"#utility.yul\":10989:11007   */\n      add\n        /* \"#utility.yul\":10982:11030   */\n      mstore\n        /* \"#utility.yul\":11047:11125   */\n      tag_293\n        /* \"#utility.yul\":11120:11124   */\n      dup2\n        /* \"#utility.yul\":11111:11117   */\n      dup7\n        /* \"#utility.yul\":11047:11125   */\n      tag_265\n      jump\t// in\n    tag_293:\n        /* \"#utility.yul\":11039:11125   */\n      swap1\n      pop\n        /* \"#utility.yul\":11135:11207   */\n      tag_294\n        /* \"#utility.yul\":11203:11205   */\n      0x40\n        /* \"#utility.yul\":11192:11201   */\n      dup4\n        /* \"#utility.yul\":11188:11206   */\n      add\n        /* \"#utility.yul\":11179:11185   */\n      dup6\n        /* \"#utility.yul\":11135:11207   */\n      tag_284\n      jump\t// in\n    tag_294:\n        /* \"#utility.yul\":11217:11289   */\n      tag_295\n        /* \"#utility.yul\":11285:11287   */\n      0x60\n        /* \"#utility.yul\":11274:11283   */\n      dup4\n        /* \"#utility.yul\":11270:11288   */\n      add\n        /* \"#utility.yul\":11261:11267   */\n      dup5\n        /* \"#utility.yul\":11217:11289   */\n      tag_284\n      jump\t// in\n    tag_295:\n        /* \"#utility.yul\":10561:11296   */\n      swap6\n      swap5\n      pop\n      pop\n      pop\n      pop\n      pop\n      jump\t// out\n        /* \"#utility.yul\":11302:11721   */\n    tag_65:\n        /* \"#utility.yul\":11468:11472   */\n      0x00\n        /* \"#utility.yul\":11506:11508   */\n      0x20\n        /* \"#utility.yul\":11495:11504   */\n      dup3\n        /* \"#utility.yul\":11491:11509   */\n      add\n        /* \"#utility.yul\":11483:11509   */\n      swap1\n      pop\n        /* \"#utility.yul\":11555:11564   */\n      dup2\n        /* \"#utility.yul\":11549:11553   */\n      dup2\n        /* \"#utility.yul\":11545:11565   */\n      sub\n        /* \"#utility.yul\":11541:11542   */\n      0x00\n        /* \"#utility.yul\":11530:11539   */\n      dup4\n        /* \"#utility.yul\":11526:11543   */\n      add\n        /* \"#utility.yul\":11519:11566   */\n      mstore\n        /* \"#utility.yul\":11583:11714   */\n      tag_297\n        /* \"#utility.yul\":11709:11713   */\n      dup2\n        /* \"#utility.yul\":11583:11714   */\n      tag_274\n      jump\t// in\n    tag_297:\n        /* \"#utility.yul\":11575:11714   */\n      swap1\n      pop\n        /* \"#utility.yul\":11302:11721   */\n      swap2\n      swap1\n      pop\n      jump\t// out\n        /* \"#utility.yul\":11727:12146   */\n    tag_58:\n        /* \"#utility.yul\":11893:11897   */\n      0x00\n        /* \"#utility.yul\":11931:11933   */\n      0x20\n        /* \"#utility.yul\":11920:11929   */\n      dup3\n        /* \"#utility.yul\":11916:11934   */\n      add\n        /* \"#utility.yul\":11908:11934   */\n      swap1\n      pop\n        /* \"#utility.yul\":11980:11989   */\n      dup2\n        /* \"#utility.yul\":11974:11978   */\n      dup2\n        /* \"#utility.yul\":11970:11990   */\n      sub\n        /* \"#utility.yul\":11966:11967   */\n      0x00\n        /* \"#utility.yul\":11955:11964   */\n      dup4\n        /* \"#utility.yul\":11951:11968   */\n      add\n        /* \"#utility.yul\":11944:11991   */\n      mstore\n        /* \"#utility.yul\":12008:12139   */\n      tag_299\n        /* \"#utility.yul\":12134:12138   */\n      dup2\n        /* \"#utility.yul\":12008:12139   */\n      tag_279\n      jump\t// in\n    tag_299:\n        /* \"#utility.yul\":12000:12139   */\n      swap1\n      pop\n        /* \"#utility.yul\":11727:12146   */\n      swap2\n      swap1\n      pop\n      jump\t// out\n        /* \"#utility.yul\":12152:12374   */\n    tag_21:\n        /* \"#utility.yul\":12245:12249   */\n      0x00\n        /* \"#utility.yul\":12283:12285   */\n      0x20\n        /* \"#utility.yul\":12272:12281   */\n      dup3\n        /* \"#utility.yul\":12268:12286   */\n      add\n        /* \"#utility.yul\":12260:12286   */\n      swap1\n      pop\n        /* \"#utility.yul\":12296:12367   */\n      tag_301\n        /* \"#utility.yul\":12364:12365   */\n      0x00\n        /* \"#utility.yul\":12353:12362   */\n      dup4\n        /* \"#utility.yul\":12349:12366   */\n      add\n        /* \"#utility.yul\":12340:12346   */\n      dup5\n        /* \"#utility.yul\":12296:12367   */\n      tag_284\n      jump\t// in\n    tag_301:\n        /* \"#utility.yul\":12152:12374   */\n      swap3\n      swap2\n      pop\n      pop\n      jump\t// out\n        /* \"#utility.yul\":12380:12712   */\n    tag_118:\n        /* \"#utility.yul\":12501:12505   */\n      0x00\n        /* \"#utility.yul\":12539:12541   */\n      0x40\n        /* \"#utility.yul\":12528:12537   */\n      dup3\n        /* \"#utility.yul\":12524:12542   */\n      add\n        /* \"#utility.yul\":12516:12542   */\n      swap1\n      pop\n        /* \"#utility.yul\":12552:12623   */\n      tag_303\n        /* \"#utility.yul\":12620:12621   */\n      0x00\n        /* \"#utility.yul\":12609:12618   */\n      dup4\n        /* \"#utility.yul\":12605:12622   */\n      add\n        /* \"#utility.yul\":12596:12602   */\n      dup6\n        /* \"#utility.yul\":12552:12623   */\n      tag_284\n      jump\t// in\n    tag_303:\n        /* \"#utility.yul\":12633:12705   */\n      tag_304\n        /* \"#utility.yul\":12701:12703   */\n      0x20\n        /* \"#utility.yul\":12690:12699   */\n      dup4\n        /* \"#utility.yul\":12686:12704   */\n      add\n        /* \"#utility.yul\":12677:12683   */\n      dup5\n        /* \"#utility.yul\":12633:12705   */\n      tag_284\n      jump\t// in\n    tag_304:\n        /* \"#utility.yul\":12380:12712   */\n      swap4\n      swap3\n      pop\n      pop\n      pop\n      jump\t// out\n        /* \"#utility.yul\":12718:13453   */\n    tag_121:\n        /* \"#utility.yul\":12935:12939   */\n      0x00\n        /* \"#utility.yul\":12973:12976   */\n      0x80\n        /* \"#utility.yul\":12962:12971   */\n      dup3\n        /* \"#utility.yul\":12958:12977   */\n      add\n        /* \"#utility.yul\":12950:12977   */\n      swap1\n      pop\n        /* \"#utility.yul\":12987:13058   */\n      tag_306\n        /* \"#utility.yul\":13055:13056   */\n      0x00\n        /* \"#utility.yul\":13044:13053   */\n      dup4\n        /* \"#utility.yul\":13040:13057   */\n      add\n        /* \"#utility.yul\":13031:13037   */\n      dup8\n        /* \"#utility.yul\":12987:13058   */\n      tag_284\n      jump\t// in\n    tag_306:\n        /* \"#utility.yul\":13068:13140   */\n      tag_307\n        /* \"#utility.yul\":13136:13138   */\n      0x20\n        /* \"#utility.yul\":13125:13134   */\n      dup4\n        /* \"#utility.yul\":13121:13139   */\n      add\n        /* \"#utility.yul\":13112:13118   */\n      dup7\n        /* \"#utility.yul\":13068:13140   */\n      tag_284\n      jump\t// in\n    tag_307:\n        /* \"#utility.yul\":13187:13196   */\n      dup2\n        /* \"#utility.yul\":13181:13185   */\n      dup2\n        /* \"#utility.yul\":13177:13197   */\n      sub\n        /* \"#utility.yul\":13172:13174   */\n      0x40\n        /* \"#utility.yul\":13161:13170   */\n      dup4\n        /* \"#utility.yul\":13157:13175   */\n      add\n        /* \"#utility.yul\":13150:13198   */\n      mstore\n        /* \"#utility.yul\":13215:13293   */\n      tag_308\n        /* \"#utility.yul\":13288:13292   */\n      dup2\n        /* \"#utility.yul\":13279:13285   */\n      dup6\n        /* \"#utility.yul\":13215:13293   */\n      tag_265\n      jump\t// in\n    tag_308:\n        /* \"#utility.yul\":13207:13293   */\n      swap1\n      pop\n        /* \"#utility.yul\":13340:13349   */\n      dup2\n        /* \"#utility.yul\":13334:13338   */\n      dup2\n        /* \"#utility.yul\":13330:13350   */\n      sub\n        /* \"#utility.yul\":13325:13327   */\n      0x60\n        /* \"#utility.yul\":13314:13323   */\n      dup4\n        /* \"#utility.yul\":13310:13328   */\n      add\n        /* \"#utility.yul\":13303:13351   */\n      mstore\n        /* \"#utility.yul\":13368:13446   */\n      tag_309\n        /* \"#utility.yul\":13441:13445   */\n      dup2\n        /* \"#utility.yul\":13432:13438   */\n      dup5\n        /* \"#utility.yul\":13368:13446   */\n      tag_265\n      jump\t// in\n    tag_309:\n        /* \"#utility.yul\":13360:13446   */\n      swap1\n      pop\n        /* \"#utility.yul\":12718:13453   */\n      swap6\n      swap5\n      pop\n      pop\n      pop\n      pop\n      pop\n      jump\t// out\n        /* \"#utility.yul\":13459:14305   */\n    tag_77:\n        /* \"#utility.yul\":13704:13708   */\n      0x00\n        /* \"#utility.yul\":13742:13745   */\n      0xa0\n        /* \"#utility.yul\":13731:13740   */\n      dup3\n        /* \"#utility.yul\":13727:13746   */\n      add\n        /* \"#utility.yul\":13719:13746   */\n      swap1\n      pop\n        /* \"#utility.yul\":13756:13827   */\n      tag_311\n        /* \"#utility.yul\":13824:13825   */\n      0x00\n        /* \"#utility.yul\":13813:13822   */\n      dup4\n        /* \"#utility.yul\":13809:13826   */\n      add\n        /* \"#utility.yul\":13800:13806   */\n      dup9\n        /* \"#utility.yul\":13756:13827   */\n      tag_284\n      jump\t// in\n    tag_311:\n        /* \"#utility.yul\":13837:13909   */\n      tag_312\n        /* \"#utility.yul\":13905:13907   */\n      0x20\n        /* \"#utility.yul\":13894:13903   */\n      dup4\n        /* \"#utility.yul\":13890:13908   */\n      add\n        /* \"#utility.yul\":13881:13887   */\n      dup8\n        /* \"#utility.yul\":13837:13909   */\n      tag_284\n      jump\t// in\n    tag_312:\n        /* \"#utility.yul\":13956:13965   */\n      dup2\n        /* \"#utility.yul\":13950:13954   */\n      dup2\n        /* \"#utility.yul\":13946:13966   */\n      sub\n        /* \"#utility.yul\":13941:13943   */\n      0x40\n        /* \"#utility.yul\":13930:13939   */\n      dup4\n        /* \"#utility.yul\":13926:13944   */\n      add\n        /* \"#utility.yul\":13919:13967   */\n      mstore\n        /* \"#utility.yul\":13984:14062   */\n      tag_313\n        /* \"#utility.yul\":14057:14061   */\n      dup2\n        /* \"#utility.yul\":14048:14054   */\n      dup7\n        /* \"#utility.yul\":13984:14062   */\n      tag_265\n      jump\t// in\n    tag_313:\n        /* \"#utility.yul\":13976:14062   */\n      swap1\n      pop\n        /* \"#utility.yul\":14109:14118   */\n      dup2\n        /* \"#utility.yul\":14103:14107   */\n      dup2\n        /* \"#utility.yul\":14099:14119   */\n      sub\n        /* \"#utility.yul\":14094:14096   */\n      0x60\n        /* \"#utility.yul\":14083:14092   */\n      dup4\n        /* \"#utility.yul\":14079:14097   */\n      add\n        /* \"#utility.yul\":14072:14120   */\n      mstore\n        /* \"#utility.yul\":14137:14215   */\n      tag_314\n        /* \"#utility.yul\":14210:14214   */\n      dup2\n        /* \"#utility.yul\":14201:14207   */\n      dup6\n        /* \"#utility.yul\":14137:14215   */\n      tag_265\n      jump\t// in\n    tag_314:\n        /* \"#utility.yul\":14129:14215   */\n      swap1\n      pop\n        /* \"#utility.yul\":14225:14298   */\n      tag_315\n        /* \"#utility.yul\":14293:14296   */\n      0x80\n        /* \"#utility.yul\":14282:14291   */\n      dup4\n        /* \"#utility.yul\":14278:14297   */\n      add\n        /* \"#utility.yul\":14269:14275   */\n      dup5\n        /* \"#utility.yul\":14225:14298   */\n      tag_284\n      jump\t// in\n    tag_315:\n        /* \"#utility.yul\":13459:14305   */\n      swap7\n      swap6\n      pop\n      pop\n      pop\n      pop\n      pop\n      pop\n      jump\t// out\n        /* \"#utility.yul\":14311:14753   */\n    tag_83:\n        /* \"#utility.yul\":14460:14464   */\n      0x00\n        /* \"#utility.yul\":14498:14500   */\n      0x60\n        /* \"#utility.yul\":14487:14496   */\n      dup3\n        /* \"#utility.yul\":14483:14501   */\n      add\n        /* \"#utility.yul\":14475:14501   */\n      swap1\n      pop\n        /* \"#utility.yul\":14511:14582   */\n      tag_317\n        /* \"#utility.yul\":14579:14580   */\n      0x00\n        /* \"#utility.yul\":14568:14577   */\n      dup4\n        /* \"#utility.yul\":14564:14581   */\n      add\n        /* \"#utility.yul\":14555:14561   */\n      dup7\n        /* \"#utility.yul\":14511:14582   */\n      tag_284\n      jump\t// in\n    tag_317:\n        /* \"#utility.yul\":14592:14664   */\n      tag_318\n        /* \"#utility.yul\":14660:14662   */\n      0x20\n        /* \"#utility.yul\":14649:14658   */\n      dup4\n        /* \"#utility.yul\":14645:14663   */\n      add\n        /* \"#utility.yul\":14636:14642   */\n      dup6\n        /* \"#utility.yul\":14592:14664   */\n      tag_284\n      jump\t// in\n    tag_318:\n        /* \"#utility.yul\":14674:14746   */\n      tag_319\n        /* \"#utility.yul\":14742:14744   */\n      0x40\n        /* \"#utility.yul\":14731:14740   */\n      dup4\n        /* \"#utility.yul\":14727:14745   */\n      add\n        /* \"#utility.yul\":14718:14724   */\n      dup5\n        /* \"#utility.yul\":14674:14746   */\n      tag_284\n      jump\t// in\n    tag_319:\n        /* \"#utility.yul\":14311:14753   */\n      swap5\n      swap4\n      pop\n      pop\n      pop\n      pop\n      jump\t// out\n        /* \"#utility.yul\":14759:15605   */\n    tag_143:\n        /* \"#utility.yul\":15004:15008   */\n      0x00\n        /* \"#utility.yul\":15042:15045   */\n      0xa0\n        /* \"#utility.yul\":15031:15040   */\n      dup3\n        /* \"#utility.yul\":15027:15046   */\n      add\n        /* \"#utility.yul\":15019:15046   */\n      swap1\n      pop\n        /* \"#utility.yul\":15056:15127   */\n      tag_321\n        /* \"#utility.yul\":15124:15125   */\n      0x00\n        /* \"#utility.yul\":15113:15122   */\n      dup4\n        /* \"#utility.yul\":15109:15126   */\n      add\n        /* \"#utility.yul\":15100:15106   */\n      dup9\n        /* \"#utility.yul\":15056:15127   */\n      tag_284\n      jump\t// in\n    tag_321:\n        /* \"#utility.yul\":15137:15209   */\n      tag_322\n        /* \"#utility.yul\":15205:15207   */\n      0x20\n        /* \"#utility.yul\":15194:15203   */\n      dup4\n        /* \"#utility.yul\":15190:15208   */\n      add\n        /* \"#utility.yul\":15181:15187   */\n      dup8\n        /* \"#utility.yul\":15137:15209   */\n      tag_284\n      jump\t// in\n    tag_322:\n        /* \"#utility.yul\":15219:15291   */\n      tag_323\n        /* \"#utility.yul\":15287:15289   */\n      0x40\n        /* \"#utility.yul\":15276:15285   */\n      dup4\n        /* \"#utility.yul\":15272:15290   */\n      add\n        /* \"#utility.yul\":15263:15269   */\n      dup7\n        /* \"#utility.yul\":15219:15291   */\n      tag_284\n      jump\t// in\n    tag_323:\n        /* \"#utility.yul\":15338:15347   */\n      dup2\n        /* \"#utility.yul\":15332:15336   */\n      dup2\n        /* \"#utility.yul\":15328:15348   */\n      sub\n        /* \"#utility.yul\":15323:15325   */\n      0x60\n        /* \"#utility.yul\":15312:15321   */\n      dup4\n        /* \"#utility.yul\":15308:15326   */\n      add\n        /* \"#utility.yul\":15301:15349   */\n      mstore\n        /* \"#utility.yul\":15366:15444   */\n      tag_324\n        /* \"#utility.yul\":15439:15443   */\n      dup2\n        /* \"#utility.yul\":15430:15436   */\n      dup6\n        /* \"#utility.yul\":15366:15444   */\n      tag_265\n      jump\t// in\n    tag_324:\n        /* \"#utility.yul\":15358:15444   */\n      swap1\n      pop\n        /* \"#utility.yul\":15492:15501   */\n      dup2\n        /* \"#utility.yul\":15486:15490   */\n      dup2\n        /* \"#utility.yul\":15482:15502   */\n      sub\n        /* \"#utility.yul\":15476:15479   */\n      0x80\n        /* \"#utility.yul\":15465:15474   */\n      dup4\n        /* \"#utility.yul\":15461:15480   */\n      add\n        /* \"#utility.yul\":15454:15503   */\n      mstore\n        /* \"#utility.yul\":15520:15598   */\n      tag_325\n        /* \"#utility.yul\":15593:15597   */\n      dup2\n        /* \"#utility.yul\":15584:15590   */\n      dup5\n        /* \"#utility.yul\":15520:15598   */\n      tag_265\n      jump\t// in\n    tag_325:\n        /* \"#utility.yul\":15512:15598   */\n      swap1\n      pop\n        /* \"#utility.yul\":14759:15605   */\n      swap7\n      swap6\n      pop\n      pop\n      pop\n      pop\n      pop\n      pop\n      jump\t// out\n        /* \"#utility.yul\":15611:15740   */\n    tag_163:\n        /* \"#utility.yul\":15645:15651   */\n      0x00\n        /* \"#utility.yul\":15672:15692   */\n      tag_327\n      tag_328\n      jump\t// in\n    tag_327:\n        /* \"#utility.yul\":15662:15692   */\n      swap1\n      pop\n        /* \"#utility.yul\":15701:15734   */\n      tag_329\n        /* \"#utility.yul\":15729:15733   */\n      dup3\n        /* \"#utility.yul\":15721:15727   */\n      dup3\n        /* \"#utility.yul\":15701:15734   */\n      tag_330\n      jump\t// in\n    tag_329:\n        /* \"#utility.yul\":15611:15740   */\n      swap2\n      swap1\n      pop\n      jump\t// out\n        /* \"#utility.yul\":15746:15821   */\n    tag_328:\n        /* \"#utility.yul\":15779:15785   */\n      0x00\n        /* \"#utility.yul\":15812:15814   */\n      0x40\n        /* \"#utility.yul\":15806:15815   */\n      mload\n        /* \"#utility.yul\":15796:15815   */\n      swap1\n      pop\n        /* \"#utility.yul\":15746:15821   */\n      swap1\n      jump\t// out\n        /* \"#utility.yul\":15827:16135   */\n    tag_162:\n        /* \"#utility.yul\":15889:15893   */\n      0x00\n        /* \"#utility.yul\":15979:15997   */\n      0xffffffffffffffff\n        /* \"#utility.yul\":15971:15977   */\n      dup3\n        /* \"#utility.yul\":15968:15998   */\n      gt\n        /* \"#utility.yul\":15965:16021   */\n      iszero\n      tag_333\n      jumpi\n        /* \"#utility.yul\":16001:16019   */\n      tag_334\n      tag_335\n      jump\t// in\n    tag_334:\n        /* \"#utility.yul\":15965:16021   */\n    tag_333:\n        /* \"#utility.yul\":16039:16068   */\n      tag_336\n        /* \"#utility.yul\":16061:16067   */\n      dup3\n        /* \"#utility.yul\":16039:16068   */\n      tag_273\n      jump\t// in\n    tag_336:\n        /* \"#utility.yul\":16031:16068   */\n      swap1\n      pop\n        /* \"#utility.yul\":16123:16127   */\n      0x20\n        /* \"#utility.yul\":16117:16121   */\n      dup2\n        /* \"#utility.yul\":16113:16128   */\n      add\n        /* \"#utility.yul\":16105:16128   */\n      swap1\n      pop\n        /* \"#utility.yul\":15827:16135   */\n      swap2\n      swap1\n      pop\n      jump\t// out\n        /* \"#utility.yul\":16141:16240   */\n    tag_268:\n        /* \"#utility.yul\":16193:16199   */\n      0x00\n        /* \"#utility.yul\":16227:16232   */\n      dup2\n        /* \"#utility.yul\":16221:16233   */\n      mload\n        /* \"#utility.yul\":16211:16233   */\n      swap1\n      pop\n        /* \"#utility.yul\":16141:16240   */\n      swap2\n      swap1\n      pop\n      jump\t// out\n        /* \"#utility.yul\":16246:16415   */\n    tag_270:\n        /* \"#utility.yul\":16330:16341   */\n      0x00\n        /* \"#utility.yul\":16364:16370   */\n      dup3\n        /* \"#utility.yul\":16359:16362   */\n      dup3\n        /* \"#utility.yul\":16352:16371   */\n      mstore\n        /* \"#utility.yul\":16404:16408   */\n      0x20\n        /* \"#utility.yul\":16399:16402   */\n      dup3\n        /* \"#utility.yul\":16395:16409   */\n      add\n        /* \"#utility.yul\":16380:16409   */\n      swap1\n      pop\n        /* \"#utility.yul\":16246:16415   */\n      swap3\n      swap2\n      pop\n      pop\n      jump\t// out\n        /* \"#utility.yul\":16421:16517   */\n    tag_339:\n        /* \"#utility.yul\":16458:16465   */\n      0x00\n        /* \"#utility.yul\":16487:16511   */\n      tag_341\n        /* \"#utility.yul\":16505:16510   */\n      dup3\n        /* \"#utility.yul\":16487:16511   */\n      tag_342\n      jump\t// in\n    tag_341:\n        /* \"#utility.yul\":16476:16511   */\n      swap1\n      pop\n        /* \"#utility.yul\":16421:16517   */\n      swap2\n      swap1\n      pop\n      jump\t// out\n        /* \"#utility.yul\":16523:16649   */\n    tag_342:\n        /* \"#utility.yul\":16560:16567   */\n      0x00\n        /* \"#utility.yul\":16600:16642   */\n      0xffffffffffffffffffffffffffffffffffffffff\n        /* \"#utility.yul\":16593:16598   */\n      dup3\n        /* \"#utility.yul\":16589:16643   */\n      and\n        /* \"#utility.yul\":16578:16643   */\n      swap1\n      pop\n        /* \"#utility.yul\":16523:16649   */\n      swap2\n      swap1\n      pop\n      jump\t// out\n        /* \"#utility.yul\":16655:16732   */\n    tag_287:\n        /* \"#utility.yul\":16692:16699   */\n      0x00\n        /* \"#utility.yul\":16721:16726   */\n      dup2\n        /* \"#utility.yul\":16710:16726   */\n      swap1\n      pop\n        /* \"#utility.yul\":16655:16732   */\n      swap2\n      swap1\n      pop\n      jump\t// out\n        /* \"#utility.yul\":16738:16892   */\n    tag_168:\n        /* \"#utility.yul\":16822:16828   */\n      dup3\n        /* \"#utility.yul\":16817:16820   */\n      dup2\n        /* \"#utility.yul\":16812:16815   */\n      dup4\n        /* \"#utility.yul\":16799:16829   */\n      calldatacopy\n        /* \"#utility.yul\":16884:16885   */\n      0x00\n        /* \"#utility.yul\":16875:16881   */\n      dup4\n        /* \"#utility.yul\":16870:16873   */\n      dup4\n        /* \"#utility.yul\":16866:16882   */\n      add\n        /* \"#utility.yul\":16859:16886   */\n      mstore\n        /* \"#utility.yul\":16738:16892   */\n      pop\n      pop\n      pop\n      jump\t// out\n        /* \"#utility.yul\":16898:17205   */\n    tag_176:\n        /* \"#utility.yul\":16966:16967   */\n      0x00\n        /* \"#utility.yul\":16976:17089   */\n    tag_347:\n        /* \"#utility.yul\":16990:16996   */\n      dup4\n        /* \"#utility.yul\":16987:16988   */\n      dup2\n        /* \"#utility.yul\":16984:16997   */\n      lt\n        /* \"#utility.yul\":16976:17089   */\n      iszero\n      tag_349\n      jumpi\n        /* \"#utility.yul\":17075:17076   */\n      dup1\n        /* \"#utility.yul\":17070:17073   */\n      dup3\n        /* \"#utility.yul\":17066:17077   */\n      add\n        /* \"#utility.yul\":17060:17078   */\n      mload\n        /* \"#utility.yul\":17056:17057   */\n      dup2\n        /* \"#utility.yul\":17051:17054   */\n      dup5\n        /* \"#utility.yul\":17047:17058   */\n      add\n        /* \"#utility.yul\":17040:17079   */\n      mstore\n        /* \"#utility.yul\":17012:17014   */\n      0x20\n        /* \"#utility.yul\":17009:17010   */\n      dup2\n        /* \"#utility.yul\":17005:17015   */\n      add\n        /* \"#utility.yul\":17000:17015   */\n      swap1\n      pop\n        /* \"#utility.yul\":16976:17089   */\n      jump(tag_347)\n    tag_349:\n        /* \"#utility.yul\":17107:17113   */\n      dup4\n        /* \"#utility.yul\":17104:17105   */\n      dup2\n        /* \"#utility.yul\":17101:17114   */\n      gt\n        /* \"#utility.yul\":17098:17199   */\n      iszero\n      tag_350\n      jumpi\n        /* \"#utility.yul\":17187:17188   */\n      0x00\n        /* \"#utility.yul\":17178:17184   */\n      dup5\n        /* \"#utility.yul\":17173:17176   */\n      dup5\n        /* \"#utility.yul\":17169:17185   */\n      add\n        /* \"#utility.yul\":17162:17189   */\n      mstore\n        /* \"#utility.yul\":17098:17199   */\n    tag_350:\n        /* \"#utility.yul\":16947:17205   */\n      pop\n        /* \"#utility.yul\":16898:17205   */\n      pop\n      pop\n      pop\n      jump\t// out\n        /* \"#utility.yul\":17211:17531   */\n    tag_103:\n        /* \"#utility.yul\":17255:17261   */\n      0x00\n        /* \"#utility.yul\":17292:17293   */\n      0x02\n        /* \"#utility.yul\":17286:17290   */\n      dup3\n        /* \"#utility.yul\":17282:17294   */\n      div\n        /* \"#utility.yul\":17272:17294   */\n      swap1\n      pop\n        /* \"#utility.yul\":17339:17340   */\n      0x01\n        /* \"#utility.yul\":17333:17337   */\n      dup3\n        /* \"#utility.yul\":17329:17341   */\n      and\n        /* \"#utility.yul\":17360:17378   */\n      dup1\n        /* \"#utility.yul\":17350:17431   */\n      tag_352\n      jumpi\n        /* \"#utility.yul\":17416:17420   */\n      0x7f\n        /* \"#utility.yul\":17408:17414   */\n      dup3\n        /* \"#utility.yul\":17404:17421   */\n      and\n        /* \"#utility.yul\":17394:17421   */\n      swap2\n      pop\n        /* \"#utility.yul\":17350:17431   */\n    tag_352:\n        /* \"#utility.yul\":17478:17480   */\n      0x20\n        /* \"#utility.yul\":17470:17476   */\n      dup3\n        /* \"#utility.yul\":17467:17481   */\n      lt\n        /* \"#utility.yul\":17447:17465   */\n      dup2\n        /* \"#utility.yul\":17444:17482   */\n      eq\n        /* \"#utility.yul\":17441:17525   */\n      iszero\n      tag_353\n      jumpi\n        /* \"#utility.yul\":17497:17515   */\n      tag_354\n      tag_355\n      jump\t// in\n    tag_354:\n        /* \"#utility.yul\":17441:17525   */\n    tag_353:\n        /* \"#utility.yul\":17262:17531   */\n      pop\n        /* \"#utility.yul\":17211:17531   */\n      swap2\n      swap1\n      pop\n      jump\t// out\n        /* \"#utility.yul\":17537:17818   */\n    tag_330:\n        /* \"#utility.yul\":17620:17647   */\n      tag_357\n        /* \"#utility.yul\":17642:17646   */\n      dup3\n        /* \"#utility.yul\":17620:17647   */\n      tag_273\n      jump\t// in\n    tag_357:\n        /* \"#utility.yul\":17612:17618   */\n      dup2\n        /* \"#utility.yul\":17608:17648   */\n      add\n        /* \"#utility.yul\":17750:17756   */\n      dup2\n        /* \"#utility.yul\":17738:17748   */\n      dup2\n        /* \"#utility.yul\":17735:17757   */\n      lt\n        /* \"#utility.yul\":17714:17732   */\n      0xffffffffffffffff\n        /* \"#utility.yul\":17702:17712   */\n      dup3\n        /* \"#utility.yul\":17699:17733   */\n      gt\n        /* \"#utility.yul\":17696:17758   */\n      or\n        /* \"#utility.yul\":17693:17781   */\n      iszero\n      tag_358\n      jumpi\n        /* \"#utility.yul\":17761:17779   */\n      tag_359\n      tag_335\n      jump\t// in\n    tag_359:\n        /* \"#utility.yul\":17693:17781   */\n    tag_358:\n        /* \"#utility.yul\":17801:17811   */\n      dup1\n        /* \"#utility.yul\":17797:17799   */\n      0x40\n        /* \"#utility.yul\":17790:17812   */\n      mstore\n        /* \"#utility.yul\":17580:17818   */\n      pop\n        /* \"#utility.yul\":17537:17818   */\n      pop\n      pop\n      jump\t// out\n        /* \"#utility.yul\":17824:18057   */\n    tag_79:\n        /* \"#utility.yul\":17863:17866   */\n      0x00\n        /* \"#utility.yul\":17886:17910   */\n      tag_361\n        /* \"#utility.yul\":17904:17909   */\n      dup3\n        /* \"#utility.yul\":17886:17910   */\n      tag_287\n      jump\t// in\n    tag_361:\n        /* \"#utility.yul\":17877:17910   */\n      swap2\n      pop\n        /* \"#utility.yul\":17932:17998   */\n      0xffffffffffffffffffffffffffffffffffffffffffffffffffffffffffffffff\n        /* \"#utility.yul\":17925:17930   */\n      dup3\n        /* \"#utility.yul\":17922:17999   */\n      eq\n        /* \"#utility.yul\":17919:18022   */\n      iszero\n      tag_362\n      jumpi\n        /* \"#utility.yul\":18002:18020   */\n      tag_363\n      tag_364\n      jump\t// in\n    tag_363:\n        /* \"#utility.yul\":17919:18022   */\n    tag_362:\n        /* \"#utility.yul\":18049:18050   */\n      0x01\n        /* \"#utility.yul\":18042:18047   */\n      dup3\n        /* \"#utility.yul\":18038:18051   */\n      add\n        /* \"#utility.yul\":18031:18051   */\n      swap1\n      pop\n        /* \"#utility.yul\":17824:18057   */\n      swap2\n      swap1\n      pop\n      jump\t// out\n        /* \"#utility.yul\":18063:18243   */\n    tag_364:\n        /* \"#utility.yul\":18111:18188   */\n      0x4e487b7100000000000000000000000000000000000000000000000000000000\n        /* \"#utility.yul\":18108:18109   */\n      0x00\n        /* \"#utility.yul\":18101:18189   */\n      mstore\n        /* \"#utility.yul\":18208:18212   */\n      0x11\n        /* \"#utility.yul\":18205:18206   */\n      0x04\n        /* \"#utility.yul\":18198:18213   */\n      mstore\n        /* \"#utility.yul\":18232:18236   */\n      0x24\n        /* \"#utility.yul\":18229:18230   */\n      0x00\n        /* \"#utility.yul\":18222:18237   */\n      revert\n        /* \"#utility.yul\":18249:18429   */\n    tag_75:\n        /* \"#utility.yul\":18297:18374   */\n      0x4e487b7100000000000000000000000000000000000000000000000000000000\n        /* \"#utility.yul\":18294:18295   */\n      0x00\n        /* \"#utility.yul\":18287:18375   */\n      mstore\n        /* \"#utility.yul\":18394:18398   */\n      0x21\n        /* \"#utility.yul\":18391:18392   */\n      0x04\n        /* \"#utility.yul\":18384:18399   */\n      mstore\n        /* \"#utility.yul\":18418:18422   */\n      0x24\n        /* \"#utility.yul\":18415:18416   */\n      0x00\n        /* \"#utility.yul\":18408:18423   */\n      revert\n        /* \"#utility.yul\":18435:18615   */\n    tag_355:\n        /* \"#utility.yul\":18483:18560   */\n      0x4e487b7100000000000000000000000000000000000000000000000000000000\n        /* \"#utility.yul\":18480:18481   */\n      0x00\n        /* \"#utility.yul\":18473:18561   */\n      mstore\n        /* \"#utility.yul\":18580:18584   */\n      0x22\n        /* \"#utility.yul\":18577:18578   */\n      0x04\n        /* \"#utility.yul\":18570:18585   */\n      mstore\n        /* \"#utility.yul\":18604:18608   */\n      0x24\n        /* \"#utility.yul\":18601:18602   */\n      0x00\n        /* \"#utility.yul\":18594:18609   */\n      revert\n        /* \"#utility.yul\":18621:18801   */\n    tag_68:\n        /* \"#utility.yul\":18669:18746   */\n      0x4e487b7100000000000000000000000000000000000000000000000000000000\n        /* \"#utility.yul\":18666:18667   */\n      0x00\n        /* \"#utility.yul\":18659:18747   */\n      mstore\n        /* \"#utility.yul\":18766:18770   */\n      0x32\n        /* \"#utility.yul\":18763:18764   */\n      0x04\n        /* \"#utility.yul\":18756:18771   */\n      mstore\n        /* \"#utility.yul\":18790:18794   */\n      0x24\n        /* \"#utility.yul\":18787:18788   */\n      0x00\n        /* \"#utility.yul\":18780:18795   */\n      revert\n        /* \"#utility.yul\":18807:18987   */\n    tag_335:\n        /* \"#utility.yul\":18855:18932   */\n      0x4e487b7100000000000000000000000000000000000000000000000000000000\n        /* \"#utility.yul\":18852:18853   */\n      0x00\n        /* \"#utility.yul\":18845:18933   */\n      mstore\n        /* \"#utility.yul\":18952:18956   */\n      0x41\n        /* \"#utility.yul\":18949:18950   */\n      0x04\n        /* \"#utility.yul\":18942:18957   */\n      mstore\n        /* \"#utility.yul\":18976:18980   */\n      0x24\n        /* \"#utility.yul\":18973:18974   */\n      0x00\n        /* \"#utility.yul\":18966:18981   */\n      revert\n        /* \"#utility.yul\":18993:19110   */\n    tag_185:\n        /* \"#utility.yul\":19102:19103   */\n      0x00\n        /* \"#utility.yul\":19099:19100   */\n      dup1\n        /* \"#utility.yul\":19092:19104   */\n      revert\n        /* \"#utility.yul\":19116:19233   */\n    tag_166:\n        /* \"#utility.yul\":19225:19226   */\n      0x00\n        /* \"#utility.yul\":19222:19223   */\n      dup1\n        /* \"#utility.yul\":19215:19227   */\n      revert\n        /* \"#utility.yul\":19239:19356   */\n    tag_202:\n        /* \"#utility.yul\":19348:19349   */\n      0x00\n        /* \"#utility.yul\":19345:19346   */\n      dup1\n        /* \"#utility.yul\":19338:19350   */\n      revert\n        /* \"#utility.yul\":19362:19479   */\n    tag_199:\n        /* \"#utility.yul\":19471:19472   */\n      0x00\n        /* \"#utility.yul\":19468:19469   */\n      dup1\n        /* \"#utility.yul\":19461:19473   */\n      revert\n        /* \"#utility.yul\":19485:19587   */\n    tag_273:\n        /* \"#utility.yul\":19526:19532   */\n      0x00\n        /* \"#utility.yul\":19577:19579   */\n      0x1f\n        /* \"#utility.yul\":19573:19580   */\n      not\n        /* \"#utility.yul\":19568:19570   */\n      0x1f\n        /* \"#utility.yul\":19561:19566   */\n      dup4\n        /* \"#utility.yul\":19557:19571   */\n      add\n        /* \"#utility.yul\":19553:19581   */\n      and\n        /* \"#utility.yul\":19543:19581   */\n      swap1\n      pop\n        /* \"#utility.yul\":19485:19587   */\n      swap2\n      swap1\n      pop\n      jump\t// out\n        /* \"#utility.yul\":19593:19813   */\n    tag_278:\n        /* \"#utility.yul\":19733:19767   */\n      0x412053657276696365205072696365206d757374206265207370656369666965\n        /* \"#utility.yul\":19729:19730   */\n      0x00\n        /* \"#utility.yul\":19721:19727   */\n      dup3\n        /* \"#utility.yul\":19717:19731   */\n      add\n        /* \"#utility.yul\":19710:19768   */\n      mstore\n        /* \"#utility.yul\":19802:19805   */\n      0x6400000000000000000000000000000000000000000000000000000000000000\n        /* \"#utility.yul\":19797:19799   */\n      0x20\n        /* \"#utility.yul\":19789:19795   */\n      dup3\n        /* \"#utility.yul\":19785:19800   */\n      add\n        /* \"#utility.yul\":19778:19806   */\n      mstore\n        /* \"#utility.yul\":19593:19813   */\n      pop\n      jump\t// out\n        /* \"#utility.yul\":19819:19990   */\n    tag_283:\n        /* \"#utility.yul\":19959:19982   */\n      0x4120737472696e67206973207265717569726564210000000000000000000000\n        /* \"#utility.yul\":19955:19956   */\n      0x00\n        /* \"#utility.yul\":19947:19953   */\n      dup3\n        /* \"#utility.yul\":19943:19957   */\n      add\n        /* \"#utility.yul\":19936:19983   */\n      mstore\n        /* \"#utility.yul\":19819:19990   */\n      pop\n      jump\t// out\n        /* \"#utility.yul\":19996:20118   */\n    tag_180:\n        /* \"#utility.yul\":20069:20093   */\n      tag_378\n        /* \"#utility.yul\":20087:20092   */\n      dup2\n        /* \"#utility.yul\":20069:20093   */\n      tag_339\n      jump\t// in\n    tag_378:\n        /* \"#utility.yul\":20062:20067   */\n      dup2\n        /* \"#utility.yul\":20059:20094   */\n      eq\n        /* \"#utility.yul\":20049:20112   */\n      tag_379\n      jumpi\n        /* \"#utility.yul\":20108:20109   */\n      0x00\n        /* \"#utility.yul\":20105:20106   */\n      dup1\n        /* \"#utility.yul\":20098:20110   */\n      revert\n        /* \"#utility.yul\":20049:20112   */\n    tag_379:\n        /* \"#utility.yul\":19996:20118   */\n      pop\n      jump\t// out\n        /* \"#utility.yul\":20124:20246   */\n    tag_195:\n        /* \"#utility.yul\":20197:20221   */\n      tag_381\n        /* \"#utility.yul\":20215:20220   */\n      dup2\n        /* \"#utility.yul\":20197:20221   */\n      tag_287\n      jump\t// in\n    tag_381:\n        /* \"#utility.yul\":20190:20195   */\n      dup2\n        /* \"#utility.yul\":20187:20222   */\n      eq\n        /* \"#utility.yul\":20177:20240   */\n      tag_382\n      jumpi\n        /* \"#utility.yul\":20236:20237   */\n      0x00\n        /* \"#utility.yul\":20233:20234   */\n      dup1\n        /* \"#utility.yul\":20226:20238   */\n      revert\n        /* \"#utility.yul\":20177:20240   */\n    tag_382:\n        /* \"#utility.yul\":20124:20246   */\n      pop\n      jump\t// out\n\n    auxdata: 0xa26469706673582212200330879902fb673dc865f25b71661980fa8f4803f26a9cfd44fa7658301a13f264736f6c63430008070033\n}\n",
				"bytecode": {
					"linkReferences": {},
					"object": "6080604052600060015560006002553480156200001b57600080fd5b50604051620019313803806200193183398181016040528101906200004191906200009f565b806000806101000a81548173ffffffffffffffffffffffffffffffffffffffff021916908373ffffffffffffffffffffffffffffffffffffffff1602179055505062000138565b60008151905062000099816200011e565b92915050565b600060208284031215620000b857620000b762000119565b5b6000620000c88482850162000088565b91505092915050565b6000620000de82620000f9565b9050919050565b6000620000f282620000d1565b9050919050565b600073ffffffffffffffffffffffffffffffffffffffff82169050919050565b600080fd5b6200012981620000e5565b81146200013557600080fd5b50565b6117e980620001486000396000f3fe608060405234801561001057600080fd5b506004361061009e5760003560e01c806353c49c641161006657806353c49c641461015f57806363ef8a501461017b578063ac10dfe314610197578063b9b6c5d4146101b3578063fd23c4bb146101cf5761009e565b8063256da4e3146100a357806330f73051146100bf578063352d28fd146100dd57806349428a62146100fb5780634994772c1461012c575b600080fd5b6100bd60048036038101906100b89190610e2e565b6101eb565b005b6100c7610496565b6040516100d491906112d1565b60405180910390f35b6100e561049c565b6040516100f291906112d1565b60405180910390f35b61011560048036038101906101109190611073565b6104a2565b604051610123929190611207565b60405180910390f35b61014660048036038101906101419190610ee1565b610561565b604051610156949392919061123e565b60405180910390f35b61017960048036038101906101749190610ee1565b61076a565b005b61019560048036038101906101909190610f21565b6107f6565b005b6101b160048036038101906101ac9190610fc0565b61088d565b005b6101cd60048036038101906101c89190611073565b610adb565b005b6101e960048036038101906101e491906110c6565b610b6f565b005b836000815111610230576040517f08c379a0000000000000000000000000000000000000000000000000000000008152600401610227906112b1565b60405180910390fd5b836000815111610275576040517f08c379a000000000000000000000000000000000000000000000000000000000815260040161026c906112b1565b60405180910390fd5b600084116102b8576040517f08c379a00000000000000000000000000000000000000000000000000000000081526004016102af90611291565b60405180910390fd5b600060036000898152602001908152602001600020600254815481106102e1576102e061168a565b5b9060005260206000209060080201905087816000018190555060025481600101819055508681600201908051906020019061031d929190610c09565b5085816003019080519060200190610336929190610c09565b5084816004018190555060008160050181905550838160060160006101000a81548173ffffffffffffffffffffffffffffffffffffffff021916908373ffffffffffffffffffffffffffffffffffffffff16021790555060008160070160006101000a81548173ffffffffffffffffffffffffffffffffffffffff021916908373ffffffffffffffffffffffffffffffffffffffff16021790555060018160070160146101000a81548160ff02191690831515021790555060008160070160156101000a81548160ff021916908360058111156104165761041561162c565b5b02179055507fe8bc23dadb6cac9147246af11cc9afe29b7f5f524a2e539da4486da2196a78f188600254898989604051610454959493929190611368565b60405180910390a16001600081548092919061046f906115b4565b919050555060026000815480929190610487906115b4565b91905055505050505050505050565b60015481565b60025481565b60608060008054906101000a900473ffffffffffffffffffffffffffffffffffffffff1673ffffffffffffffffffffffffffffffffffffffff166349428a628686866040518463ffffffff1660e01b8152600401610502939291906113c9565b60006040518083038186803b15801561051a57600080fd5b505afa15801561052e573d6000803e3d6000fd5b505050506040513d6000823e3d601f19601f820116820180604052508101906105579190610db6565b5050935093915050565b60608060008060036000878152602001908152602001600020858154811061058c5761058b61168a565b5b90600052602060002090600802016002016003600088815260200190815260200160002086815481106105c2576105c161168a565b5b90600052602060002090600802016003016003600089815260200190815260200160002087815481106105f8576105f761168a565b5b906000526020600020906008020160040154600360008a8152602001908152602001600020888154811061062f5761062e61168a565b5b90600052602060002090600802016005015483805461064d90611551565b80601f016020809104026020016040519081016040528092919081815260200182805461067990611551565b80156106c65780601f1061069b576101008083540402835291602001916106c6565b820191906000526020600020905b8154815290600101906020018083116106a957829003601f168201915b505050505093508280546106d990611551565b80601f016020809104026020016040519081016040528092919081815260200182805461070590611551565b80156107525780601f1061072757610100808354040283529160200191610752565b820191906000526020600020905b81548152906001019060200180831161073557829003601f168201915b50505050509250935093509350935092959194509250565b60006003600084815260200190815260200160002082815481106107915761079061168a565b5b906000526020600020906008020160070160146101000a81548160ff0219169083151502179055507f04579b03ce378bfed31ee6443865880dab0b281efac453deb39233352189863f82826040516107ea9291906112ec565b60405180910390a15050565b60008054906101000a900473ffffffffffffffffffffffffffffffffffffffff1673ffffffffffffffffffffffffffffffffffffffff166363ef8a50858585856040518563ffffffff1660e01b81526004016108559493929190611315565b600060405180830381600087803b15801561086f57600080fd5b505af1158015610883573d6000803e3d6000fd5b5050505050505050565b6000604051806101400160405280878152602001868152602001858152602001848152602001838152602001600081526020013373ffffffffffffffffffffffffffffffffffffffff168152602001600073ffffffffffffffffffffffffffffffffffffffff168152602001600115158152602001600060058111156109165761091561162c565b5b8152509050806003600088815260200190815260200160002086815481106109415761094061168a565b5b90600052602060002090600802016000820151816000015560208201518160010155604082015181600201908051906020019061097f929190610c09565b50606082015181600301908051906020019061099c929190610c09565b506080820151816004015560a0820151816005015560c08201518160060160006101000a81548173ffffffffffffffffffffffffffffffffffffffff021916908373ffffffffffffffffffffffffffffffffffffffff16021790555060e08201518160070160006101000a81548173ffffffffffffffffffffffffffffffffffffffff021916908373ffffffffffffffffffffffffffffffffffffffff1602179055506101008201518160070160146101000a81548160ff0219169083151502179055506101208201518160070160156101000a81548160ff02191690836005811115610a8c57610a8b61162c565b5b02179055509050507f68dd1fad96ebc5f1740866ec07701d4ab66240c086d6ae6d351ee74eacdf267e8686868686604051610acb959493929190611368565b60405180910390a1505050505050565b60008054906101000a900473ffffffffffffffffffffffffffffffffffffffff1673ffffffffffffffffffffffffffffffffffffffff1663b9b6c5d48484846040518463ffffffff1660e01b8152600401610b38939291906113c9565b600060405180830381600087803b158015610b5257600080fd5b505af1158015610b66573d6000803e3d6000fd5b50505050505050565b60008054906101000a900473ffffffffffffffffffffffffffffffffffffffff1673ffffffffffffffffffffffffffffffffffffffff1663fd23c4bb86868686866040518663ffffffff1660e01b8152600401610bd0959493929190611400565b600060405180830381600087803b158015610bea57600080fd5b505af1158015610bfe573d6000803e3d6000fd5b505050505050505050565b828054610c1590611551565b90600052602060002090601f016020900481019282610c375760008555610c7e565b82601f10610c5057805160ff1916838001178555610c7e565b82800160010185558215610c7e579182015b82811115610c7d578251825591602001919060010190610c62565b5b509050610c8b9190610c8f565b5090565b5b80821115610ca8576000816000905550600101610c90565b5090565b6000610cbf610cba84611486565b611461565b905082815260208101848484011115610cdb57610cda6116ed565b5b610ce684828561150f565b509392505050565b6000610d01610cfc84611486565b611461565b905082815260208101848484011115610d1d57610d1c6116ed565b5b610d2884828561151e565b509392505050565b600081359050610d3f81611785565b92915050565b600082601f830112610d5a57610d596116e8565b5b8135610d6a848260208601610cac565b91505092915050565b600082601f830112610d8857610d876116e8565b5b8151610d98848260208601610cee565b91505092915050565b600081359050610db08161179c565b92915050565b60008060408385031215610dcd57610dcc6116f7565b5b600083015167ffffffffffffffff811115610deb57610dea6116f2565b5b610df785828601610d73565b925050602083015167ffffffffffffffff811115610e1857610e176116f2565b5b610e2485828601610d73565b9150509250929050565b600080600080600060a08688031215610e4a57610e496116f7565b5b6000610e5888828901610da1565b955050602086013567ffffffffffffffff811115610e7957610e786116f2565b5b610e8588828901610d45565b945050604086013567ffffffffffffffff811115610ea657610ea56116f2565b5b610eb288828901610d45565b9350506060610ec388828901610da1565b9250506080610ed488828901610d30565b9150509295509295909350565b60008060408385031215610ef857610ef76116f7565b5b6000610f0685828601610da1565b9250506020610f1785828601610da1565b9150509250929050565b60008060008060808587031215610f3b57610f3a6116f7565b5b6000610f4987828801610da1565b9450506020610f5a87828801610da1565b935050604085013567ffffffffffffffff811115610f7b57610f7a6116f2565b5b610f8787828801610d45565b925050606085013567ffffffffffffffff811115610fa857610fa76116f2565b5b610fb487828801610d45565b91505092959194509250565b600080600080600060a08688031215610fdc57610fdb6116f7565b5b6000610fea88828901610da1565b9550506020610ffb88828901610da1565b945050604086013567ffffffffffffffff81111561101c5761101b6116f2565b5b61102888828901610d45565b935050606086013567ffffffffffffffff811115611049576110486116f2565b5b61105588828901610d45565b925050608061106688828901610da1565b9150509295509295909350565b60008060006060848603121561108c5761108b6116f7565b5b600061109a86828701610da1565b93505060206110ab86828701610da1565b92505060406110bc86828701610da1565b9150509250925092565b600080600080600060a086880312156110e2576110e16116f7565b5b60006110f088828901610da1565b955050602061110188828901610da1565b945050604061111288828901610da1565b935050606086013567ffffffffffffffff811115611133576111326116f2565b5b61113f88828901610d45565b925050608086013567ffffffffffffffff8111156111605761115f6116f2565b5b61116c88828901610d45565b9150509295509295909350565b6000611184826114b7565b61118e81856114c2565b935061119e81856020860161151e565b6111a7816116fc565b840191505092915050565b60006111bf6021836114c2565b91506111ca8261170d565b604082019050919050565b60006111e26015836114c2565b91506111ed8261175c565b602082019050919050565b61120181611505565b82525050565b600060408201905081810360008301526112218185611179565b905081810360208301526112358184611179565b90509392505050565b600060808201905081810360008301526112588187611179565b9050818103602083015261126c8186611179565b905061127b60408301856111f8565b61128860608301846111f8565b95945050505050565b600060208201905081810360008301526112aa816111b2565b9050919050565b600060208201905081810360008301526112ca816111d5565b9050919050565b60006020820190506112e660008301846111f8565b92915050565b600060408201905061130160008301856111f8565b61130e60208301846111f8565b9392505050565b600060808201905061132a60008301876111f8565b61133760208301866111f8565b81810360408301526113498185611179565b9050818103606083015261135d8184611179565b905095945050505050565b600060a08201905061137d60008301886111f8565b61138a60208301876111f8565b818103604083015261139c8186611179565b905081810360608301526113b08185611179565b90506113bf60808301846111f8565b9695505050505050565b60006060820190506113de60008301866111f8565b6113eb60208301856111f8565b6113f860408301846111f8565b949350505050565b600060a08201905061141560008301886111f8565b61142260208301876111f8565b61142f60408301866111f8565b81810360608301526114418185611179565b905081810360808301526114558184611179565b90509695505050505050565b600061146b61147c565b90506114778282611583565b919050565b6000604051905090565b600067ffffffffffffffff8211156114a1576114a06116b9565b5b6114aa826116fc565b9050602081019050919050565b600081519050919050565b600082825260208201905092915050565b60006114de826114e5565b9050919050565b600073ffffffffffffffffffffffffffffffffffffffff82169050919050565b6000819050919050565b82818337600083830152505050565b60005b8381101561153c578082015181840152602081019050611521565b8381111561154b576000848401525b50505050565b6000600282049050600182168061156957607f821691505b6020821081141561157d5761157c61165b565b5b50919050565b61158c826116fc565b810181811067ffffffffffffffff821117156115ab576115aa6116b9565b5b80604052505050565b60006115bf82611505565b91507fffffffffffffffffffffffffffffffffffffffffffffffffffffffffffffffff8214156115f2576115f16115fd565b5b600182019050919050565b7f4e487b7100000000000000000000000000000000000000000000000000000000600052601160045260246000fd5b7f4e487b7100000000000000000000000000000000000000000000000000000000600052602160045260246000fd5b7f4e487b7100000000000000000000000000000000000000000000000000000000600052602260045260246000fd5b7f4e487b7100000000000000000000000000000000000000000000000000000000600052603260045260246000fd5b7f4e487b7100000000000000000000000000000000000000000000000000000000600052604160045260246000fd5b600080fd5b600080fd5b600080fd5b600080fd5b6000601f19601f8301169050919050565b7f412053657276696365205072696365206d75737420626520737065636966696560008201527f6400000000000000000000000000000000000000000000000000000000000000602082015250565b7f4120737472696e67206973207265717569726564210000000000000000000000600082015250565b61178e816114d3565b811461179957600080fd5b50565b6117a581611505565b81146117b057600080fd5b5056fea26469706673582212200330879902fb673dc865f25b71661980fa8f4803f26a9cfd44fa7658301a13f264736f6c63430008070033",
					"opcodes": "PUSH1 0x80 PUSH1 0x40 MSTORE PUSH1 0x0 PUSH1 0x1 SSTORE PUSH1 0x0 PUSH1 0x2 SSTORE CALLVALUE DUP1 ISZERO PUSH3 0x1B JUMPI PUSH1 0x0 DUP1 REVERT JUMPDEST POP PUSH1 0x40 MLOAD PUSH3 0x1931 CODESIZE SUB DUP1 PUSH3 0x1931 DUP4 CODECOPY DUP2 DUP2 ADD PUSH1 0x40 MSTORE DUP2 ADD SWAP1 PUSH3 0x41 SWAP2 SWAP1 PUSH3 0x9F JUMP JUMPDEST DUP1 PUSH1 0x0 DUP1 PUSH2 0x100 EXP DUP2 SLOAD DUP2 PUSH20 0xFFFFFFFFFFFFFFFFFFFFFFFFFFFFFFFFFFFFFFFF MUL NOT AND SWAP1 DUP4 PUSH20 0xFFFFFFFFFFFFFFFFFFFFFFFFFFFFFFFFFFFFFFFF AND MUL OR SWAP1 SSTORE POP POP PUSH3 0x138 JUMP JUMPDEST PUSH1 0x0 DUP2 MLOAD SWAP1 POP PUSH3 0x99 DUP2 PUSH3 0x11E JUMP JUMPDEST SWAP3 SWAP2 POP POP JUMP JUMPDEST PUSH1 0x0 PUSH1 0x20 DUP3 DUP5 SUB SLT ISZERO PUSH3 0xB8 JUMPI PUSH3 0xB7 PUSH3 0x119 JUMP JUMPDEST JUMPDEST PUSH1 0x0 PUSH3 0xC8 DUP5 DUP3 DUP6 ADD PUSH3 0x88 JUMP JUMPDEST SWAP2 POP POP SWAP3 SWAP2 POP POP JUMP JUMPDEST PUSH1 0x0 PUSH3 0xDE DUP3 PUSH3 0xF9 JUMP JUMPDEST SWAP1 POP SWAP2 SWAP1 POP JUMP JUMPDEST PUSH1 0x0 PUSH3 0xF2 DUP3 PUSH3 0xD1 JUMP JUMPDEST SWAP1 POP SWAP2 SWAP1 POP JUMP JUMPDEST PUSH1 0x0 PUSH20 0xFFFFFFFFFFFFFFFFFFFFFFFFFFFFFFFFFFFFFFFF DUP3 AND SWAP1 POP SWAP2 SWAP1 POP JUMP JUMPDEST PUSH1 0x0 DUP1 REVERT JUMPDEST PUSH3 0x129 DUP2 PUSH3 0xE5 JUMP JUMPDEST DUP2 EQ PUSH3 0x135 JUMPI PUSH1 0x0 DUP1 REVERT JUMPDEST POP JUMP JUMPDEST PUSH2 0x17E9 DUP1 PUSH3 0x148 PUSH1 0x0 CODECOPY PUSH1 0x0 RETURN INVALID PUSH1 0x80 PUSH1 0x40 MSTORE CALLVALUE DUP1 ISZERO PUSH2 0x10 JUMPI PUSH1 0x0 DUP1 REVERT JUMPDEST POP PUSH1 0x4 CALLDATASIZE LT PUSH2 0x9E JUMPI PUSH1 0x0 CALLDATALOAD PUSH1 0xE0 SHR DUP1 PUSH4 0x53C49C64 GT PUSH2 0x66 JUMPI DUP1 PUSH4 0x53C49C64 EQ PUSH2 0x15F JUMPI DUP1 PUSH4 0x63EF8A50 EQ PUSH2 0x17B JUMPI DUP1 PUSH4 0xAC10DFE3 EQ PUSH2 0x197 JUMPI DUP1 PUSH4 0xB9B6C5D4 EQ PUSH2 0x1B3 JUMPI DUP1 PUSH4 0xFD23C4BB EQ PUSH2 0x1CF JUMPI PUSH2 0x9E JUMP JUMPDEST DUP1 PUSH4 0x256DA4E3 EQ PUSH2 0xA3 JUMPI DUP1 PUSH4 0x30F73051 EQ PUSH2 0xBF JUMPI DUP1 PUSH4 0x352D28FD EQ PUSH2 0xDD JUMPI DUP1 PUSH4 0x49428A62 EQ PUSH2 0xFB JUMPI DUP1 PUSH4 0x4994772C EQ PUSH2 0x12C JUMPI JUMPDEST PUSH1 0x0 DUP1 REVERT JUMPDEST PUSH2 0xBD PUSH1 0x4 DUP1 CALLDATASIZE SUB DUP2 ADD SWAP1 PUSH2 0xB8 SWAP2 SWAP1 PUSH2 0xE2E JUMP JUMPDEST PUSH2 0x1EB JUMP JUMPDEST STOP JUMPDEST PUSH2 0xC7 PUSH2 0x496 JUMP JUMPDEST PUSH1 0x40 MLOAD PUSH2 0xD4 SWAP2 SWAP1 PUSH2 0x12D1 JUMP JUMPDEST PUSH1 0x40 MLOAD DUP1 SWAP2 SUB SWAP1 RETURN JUMPDEST PUSH2 0xE5 PUSH2 0x49C JUMP JUMPDEST PUSH1 0x40 MLOAD PUSH2 0xF2 SWAP2 SWAP1 PUSH2 0x12D1 JUMP JUMPDEST PUSH1 0x40 MLOAD DUP1 SWAP2 SUB SWAP1 RETURN JUMPDEST PUSH2 0x115 PUSH1 0x4 DUP1 CALLDATASIZE SUB DUP2 ADD SWAP1 PUSH2 0x110 SWAP2 SWAP1 PUSH2 0x1073 JUMP JUMPDEST PUSH2 0x4A2 JUMP JUMPDEST PUSH1 0x40 MLOAD PUSH2 0x123 SWAP3 SWAP2 SWAP1 PUSH2 0x1207 JUMP JUMPDEST PUSH1 0x40 MLOAD DUP1 SWAP2 SUB SWAP1 RETURN JUMPDEST PUSH2 0x146 PUSH1 0x4 DUP1 CALLDATASIZE SUB DUP2 ADD SWAP1 PUSH2 0x141 SWAP2 SWAP1 PUSH2 0xEE1 JUMP JUMPDEST PUSH2 0x561 JUMP JUMPDEST PUSH1 0x40 MLOAD PUSH2 0x156 SWAP5 SWAP4 SWAP3 SWAP2 SWAP1 PUSH2 0x123E JUMP JUMPDEST PUSH1 0x40 MLOAD DUP1 SWAP2 SUB SWAP1 RETURN JUMPDEST PUSH2 0x179 PUSH1 0x4 DUP1 CALLDATASIZE SUB DUP2 ADD SWAP1 PUSH2 0x174 SWAP2 SWAP1 PUSH2 0xEE1 JUMP JUMPDEST PUSH2 0x76A JUMP JUMPDEST STOP JUMPDEST PUSH2 0x195 PUSH1 0x4 DUP1 CALLDATASIZE SUB DUP2 ADD SWAP1 PUSH2 0x190 SWAP2 SWAP1 PUSH2 0xF21 JUMP JUMPDEST PUSH2 0x7F6 JUMP JUMPDEST STOP JUMPDEST PUSH2 0x1B1 PUSH1 0x4 DUP1 CALLDATASIZE SUB DUP2 ADD SWAP1 PUSH2 0x1AC SWAP2 SWAP1 PUSH2 0xFC0 JUMP JUMPDEST PUSH2 0x88D JUMP JUMPDEST STOP JUMPDEST PUSH2 0x1CD PUSH1 0x4 DUP1 CALLDATASIZE SUB DUP2 ADD SWAP1 PUSH2 0x1C8 SWAP2 SWAP1 PUSH2 0x1073 JUMP JUMPDEST PUSH2 0xADB JUMP JUMPDEST STOP JUMPDEST PUSH2 0x1E9 PUSH1 0x4 DUP1 CALLDATASIZE SUB DUP2 ADD SWAP1 PUSH2 0x1E4 SWAP2 SWAP1 PUSH2 0x10C6 JUMP JUMPDEST PUSH2 0xB6F JUMP JUMPDEST STOP JUMPDEST DUP4 PUSH1 0x0 DUP2 MLOAD GT PUSH2 0x230 JUMPI PUSH1 0x40 MLOAD PUSH32 0x8C379A000000000000000000000000000000000000000000000000000000000 DUP2 MSTORE PUSH1 0x4 ADD PUSH2 0x227 SWAP1 PUSH2 0x12B1 JUMP JUMPDEST PUSH1 0x40 MLOAD DUP1 SWAP2 SUB SWAP1 REVERT JUMPDEST DUP4 PUSH1 0x0 DUP2 MLOAD GT PUSH2 0x275 JUMPI PUSH1 0x40 MLOAD PUSH32 0x8C379A000000000000000000000000000000000000000000000000000000000 DUP2 MSTORE PUSH1 0x4 ADD PUSH2 0x26C SWAP1 PUSH2 0x12B1 JUMP JUMPDEST PUSH1 0x40 MLOAD DUP1 SWAP2 SUB SWAP1 REVERT JUMPDEST PUSH1 0x0 DUP5 GT PUSH2 0x2B8 JUMPI PUSH1 0x40 MLOAD PUSH32 0x8C379A000000000000000000000000000000000000000000000000000000000 DUP2 MSTORE PUSH1 0x4 ADD PUSH2 0x2AF SWAP1 PUSH2 0x1291 JUMP JUMPDEST PUSH1 0x40 MLOAD DUP1 SWAP2 SUB SWAP1 REVERT JUMPDEST PUSH1 0x0 PUSH1 0x3 PUSH1 0x0 DUP10 DUP2 MSTORE PUSH1 0x20 ADD SWAP1 DUP2 MSTORE PUSH1 0x20 ADD PUSH1 0x0 KECCAK256 PUSH1 0x2 SLOAD DUP2 SLOAD DUP2 LT PUSH2 0x2E1 JUMPI PUSH2 0x2E0 PUSH2 0x168A JUMP JUMPDEST JUMPDEST SWAP1 PUSH1 0x0 MSTORE PUSH1 0x20 PUSH1 0x0 KECCAK256 SWAP1 PUSH1 0x8 MUL ADD SWAP1 POP DUP8 DUP2 PUSH1 0x0 ADD DUP2 SWAP1 SSTORE POP PUSH1 0x2 SLOAD DUP2 PUSH1 0x1 ADD DUP2 SWAP1 SSTORE POP DUP7 DUP2 PUSH1 0x2 ADD SWAP1 DUP1 MLOAD SWAP1 PUSH1 0x20 ADD SWAP1 PUSH2 0x31D SWAP3 SWAP2 SWAP1 PUSH2 0xC09 JUMP JUMPDEST POP DUP6 DUP2 PUSH1 0x3 ADD SWAP1 DUP1 MLOAD SWAP1 PUSH1 0x20 ADD SWAP1 PUSH2 0x336 SWAP3 SWAP2 SWAP1 PUSH2 0xC09 JUMP JUMPDEST POP DUP5 DUP2 PUSH1 0x4 ADD DUP2 SWAP1 SSTORE POP PUSH1 0x0 DUP2 PUSH1 0x5 ADD DUP2 SWAP1 SSTORE POP DUP4 DUP2 PUSH1 0x6 ADD PUSH1 0x0 PUSH2 0x100 EXP DUP2 SLOAD DUP2 PUSH20 0xFFFFFFFFFFFFFFFFFFFFFFFFFFFFFFFFFFFFFFFF MUL NOT AND SWAP1 DUP4 PUSH20 0xFFFFFFFFFFFFFFFFFFFFFFFFFFFFFFFFFFFFFFFF AND MUL OR SWAP1 SSTORE POP PUSH1 0x0 DUP2 PUSH1 0x7 ADD PUSH1 0x0 PUSH2 0x100 EXP DUP2 SLOAD DUP2 PUSH20 0xFFFFFFFFFFFFFFFFFFFFFFFFFFFFFFFFFFFFFFFF MUL NOT AND SWAP1 DUP4 PUSH20 0xFFFFFFFFFFFFFFFFFFFFFFFFFFFFFFFFFFFFFFFF AND MUL OR SWAP1 SSTORE POP PUSH1 0x1 DUP2 PUSH1 0x7 ADD PUSH1 0x14 PUSH2 0x100 EXP DUP2 SLOAD DUP2 PUSH1 0xFF MUL NOT AND SWAP1 DUP4 ISZERO ISZERO MUL OR SWAP1 SSTORE POP PUSH1 0x0 DUP2 PUSH1 0x7 ADD PUSH1 0x15 PUSH2 0x100 EXP DUP2 SLOAD DUP2 PUSH1 0xFF MUL NOT AND SWAP1 DUP4 PUSH1 0x5 DUP2 GT ISZERO PUSH2 0x416 JUMPI PUSH2 0x415 PUSH2 0x162C JUMP JUMPDEST JUMPDEST MUL OR SWAP1 SSTORE POP PUSH32 0xE8BC23DADB6CAC9147246AF11CC9AFE29B7F5F524A2E539DA4486DA2196A78F1 DUP9 PUSH1 0x2 SLOAD DUP10 DUP10 DUP10 PUSH1 0x40 MLOAD PUSH2 0x454 SWAP6 SWAP5 SWAP4 SWAP3 SWAP2 SWAP1 PUSH2 0x1368 JUMP JUMPDEST PUSH1 0x40 MLOAD DUP1 SWAP2 SUB SWAP1 LOG1 PUSH1 0x1 PUSH1 0x0 DUP2 SLOAD DUP1 SWAP3 SWAP2 SWAP1 PUSH2 0x46F SWAP1 PUSH2 0x15B4 JUMP JUMPDEST SWAP2 SWAP1 POP SSTORE POP PUSH1 0x2 PUSH1 0x0 DUP2 SLOAD DUP1 SWAP3 SWAP2 SWAP1 PUSH2 0x487 SWAP1 PUSH2 0x15B4 JUMP JUMPDEST SWAP2 SWAP1 POP SSTORE POP POP POP POP POP POP POP POP POP JUMP JUMPDEST PUSH1 0x1 SLOAD DUP2 JUMP JUMPDEST PUSH1 0x2 SLOAD DUP2 JUMP JUMPDEST PUSH1 0x60 DUP1 PUSH1 0x0 DUP1 SLOAD SWAP1 PUSH2 0x100 EXP SWAP1 DIV PUSH20 0xFFFFFFFFFFFFFFFFFFFFFFFFFFFFFFFFFFFFFFFF AND PUSH20 0xFFFFFFFFFFFFFFFFFFFFFFFFFFFFFFFFFFFFFFFF AND PUSH4 0x49428A62 DUP7 DUP7 DUP7 PUSH1 0x40 MLOAD DUP5 PUSH4 0xFFFFFFFF AND PUSH1 0xE0 SHL DUP2 MSTORE PUSH1 0x4 ADD PUSH2 0x502 SWAP4 SWAP3 SWAP2 SWAP1 PUSH2 0x13C9 JUMP JUMPDEST PUSH1 0x0 PUSH1 0x40 MLOAD DUP1 DUP4 SUB DUP2 DUP7 DUP1 EXTCODESIZE ISZERO DUP1 ISZERO PUSH2 0x51A JUMPI PUSH1 0x0 DUP1 REVERT JUMPDEST POP GAS STATICCALL ISZERO DUP1 ISZERO PUSH2 0x52E JUMPI RETURNDATASIZE PUSH1 0x0 DUP1 RETURNDATACOPY RETURNDATASIZE PUSH1 0x0 REVERT JUMPDEST POP POP POP POP PUSH1 0x40 MLOAD RETURNDATASIZE PUSH1 0x0 DUP3 RETURNDATACOPY RETURNDATASIZE PUSH1 0x1F NOT PUSH1 0x1F DUP3 ADD AND DUP3 ADD DUP1 PUSH1 0x40 MSTORE POP DUP2 ADD SWAP1 PUSH2 0x557 SWAP2 SWAP1 PUSH2 0xDB6 JUMP JUMPDEST POP POP SWAP4 POP SWAP4 SWAP2 POP POP JUMP JUMPDEST PUSH1 0x60 DUP1 PUSH1 0x0 DUP1 PUSH1 0x3 PUSH1 0x0 DUP8 DUP2 MSTORE PUSH1 0x20 ADD SWAP1 DUP2 MSTORE PUSH1 0x20 ADD PUSH1 0x0 KECCAK256 DUP6 DUP2 SLOAD DUP2 LT PUSH2 0x58C JUMPI PUSH2 0x58B PUSH2 0x168A JUMP JUMPDEST JUMPDEST SWAP1 PUSH1 0x0 MSTORE PUSH1 0x20 PUSH1 0x0 KECCAK256 SWAP1 PUSH1 0x8 MUL ADD PUSH1 0x2 ADD PUSH1 0x3 PUSH1 0x0 DUP9 DUP2 MSTORE PUSH1 0x20 ADD SWAP1 DUP2 MSTORE PUSH1 0x20 ADD PUSH1 0x0 KECCAK256 DUP7 DUP2 SLOAD DUP2 LT PUSH2 0x5C2 JUMPI PUSH2 0x5C1 PUSH2 0x168A JUMP JUMPDEST JUMPDEST SWAP1 PUSH1 0x0 MSTORE PUSH1 0x20 PUSH1 0x0 KECCAK256 SWAP1 PUSH1 0x8 MUL ADD PUSH1 0x3 ADD PUSH1 0x3 PUSH1 0x0 DUP10 DUP2 MSTORE PUSH1 0x20 ADD SWAP1 DUP2 MSTORE PUSH1 0x20 ADD PUSH1 0x0 KECCAK256 DUP8 DUP2 SLOAD DUP2 LT PUSH2 0x5F8 JUMPI PUSH2 0x5F7 PUSH2 0x168A JUMP JUMPDEST JUMPDEST SWAP1 PUSH1 0x0 MSTORE PUSH1 0x20 PUSH1 0x0 KECCAK256 SWAP1 PUSH1 0x8 MUL ADD PUSH1 0x4 ADD SLOAD PUSH1 0x3 PUSH1 0x0 DUP11 DUP2 MSTORE PUSH1 0x20 ADD SWAP1 DUP2 MSTORE PUSH1 0x20 ADD PUSH1 0x0 KECCAK256 DUP9 DUP2 SLOAD DUP2 LT PUSH2 0x62F JUMPI PUSH2 0x62E PUSH2 0x168A JUMP JUMPDEST JUMPDEST SWAP1 PUSH1 0x0 MSTORE PUSH1 0x20 PUSH1 0x0 KECCAK256 SWAP1 PUSH1 0x8 MUL ADD PUSH1 0x5 ADD SLOAD DUP4 DUP1 SLOAD PUSH2 0x64D SWAP1 PUSH2 0x1551 JUMP JUMPDEST DUP1 PUSH1 0x1F ADD PUSH1 0x20 DUP1 SWAP2 DIV MUL PUSH1 0x20 ADD PUSH1 0x40 MLOAD SWAP1 DUP2 ADD PUSH1 0x40 MSTORE DUP1 SWAP3 SWAP2 SWAP1 DUP2 DUP2 MSTORE PUSH1 0x20 ADD DUP3 DUP1 SLOAD PUSH2 0x679 SWAP1 PUSH2 0x1551 JUMP JUMPDEST DUP1 ISZERO PUSH2 0x6C6 JUMPI DUP1 PUSH1 0x1F LT PUSH2 0x69B JUMPI PUSH2 0x100 DUP1 DUP4 SLOAD DIV MUL DUP4 MSTORE SWAP2 PUSH1 0x20 ADD SWAP2 PUSH2 0x6C6 JUMP JUMPDEST DUP3 ADD SWAP2 SWAP1 PUSH1 0x0 MSTORE PUSH1 0x20 PUSH1 0x0 KECCAK256 SWAP1 JUMPDEST DUP2 SLOAD DUP2 MSTORE SWAP1 PUSH1 0x1 ADD SWAP1 PUSH1 0x20 ADD DUP1 DUP4 GT PUSH2 0x6A9 JUMPI DUP3 SWAP1 SUB PUSH1 0x1F AND DUP3 ADD SWAP2 JUMPDEST POP POP POP POP POP SWAP4 POP DUP3 DUP1 SLOAD PUSH2 0x6D9 SWAP1 PUSH2 0x1551 JUMP JUMPDEST DUP1 PUSH1 0x1F ADD PUSH1 0x20 DUP1 SWAP2 DIV MUL PUSH1 0x20 ADD PUSH1 0x40 MLOAD SWAP1 DUP2 ADD PUSH1 0x40 MSTORE DUP1 SWAP3 SWAP2 SWAP1 DUP2 DUP2 MSTORE PUSH1 0x20 ADD DUP3 DUP1 SLOAD PUSH2 0x705 SWAP1 PUSH2 0x1551 JUMP JUMPDEST DUP1 ISZERO PUSH2 0x752 JUMPI DUP1 PUSH1 0x1F LT PUSH2 0x727 JUMPI PUSH2 0x100 DUP1 DUP4 SLOAD DIV MUL DUP4 MSTORE SWAP2 PUSH1 0x20 ADD SWAP2 PUSH2 0x752 JUMP JUMPDEST DUP3 ADD SWAP2 SWAP1 PUSH1 0x0 MSTORE PUSH1 0x20 PUSH1 0x0 KECCAK256 SWAP1 JUMPDEST DUP2 SLOAD DUP2 MSTORE SWAP1 PUSH1 0x1 ADD SWAP1 PUSH1 0x20 ADD DUP1 DUP4 GT PUSH2 0x735 JUMPI DUP3 SWAP1 SUB PUSH1 0x1F AND DUP3 ADD SWAP2 JUMPDEST POP POP POP POP POP SWAP3 POP SWAP4 POP SWAP4 POP SWAP4 POP SWAP4 POP SWAP3 SWAP6 SWAP2 SWAP5 POP SWAP3 POP JUMP JUMPDEST PUSH1 0x0 PUSH1 0x3 PUSH1 0x0 DUP5 DUP2 MSTORE PUSH1 0x20 ADD SWAP1 DUP2 MSTORE PUSH1 0x20 ADD PUSH1 0x0 KECCAK256 DUP3 DUP2 SLOAD DUP2 LT PUSH2 0x791 JUMPI PUSH2 0x790 PUSH2 0x168A JUMP JUMPDEST JUMPDEST SWAP1 PUSH1 0x0 MSTORE PUSH1 0x20 PUSH1 0x0 KECCAK256 SWAP1 PUSH1 0x8 MUL ADD PUSH1 0x7 ADD PUSH1 0x14 PUSH2 0x100 EXP DUP2 SLOAD DUP2 PUSH1 0xFF MUL NOT AND SWAP1 DUP4 ISZERO ISZERO MUL OR SWAP1 SSTORE POP PUSH32 0x4579B03CE378BFED31EE6443865880DAB0B281EFAC453DEB39233352189863F DUP3 DUP3 PUSH1 0x40 MLOAD PUSH2 0x7EA SWAP3 SWAP2 SWAP1 PUSH2 0x12EC JUMP JUMPDEST PUSH1 0x40 MLOAD DUP1 SWAP2 SUB SWAP1 LOG1 POP POP JUMP JUMPDEST PUSH1 0x0 DUP1 SLOAD SWAP1 PUSH2 0x100 EXP SWAP1 DIV PUSH20 0xFFFFFFFFFFFFFFFFFFFFFFFFFFFFFFFFFFFFFFFF AND PUSH20 0xFFFFFFFFFFFFFFFFFFFFFFFFFFFFFFFFFFFFFFFF AND PUSH4 0x63EF8A50 DUP6 DUP6 DUP6 DUP6 PUSH1 0x40 MLOAD DUP6 PUSH4 0xFFFFFFFF AND PUSH1 0xE0 SHL DUP2 MSTORE PUSH1 0x4 ADD PUSH2 0x855 SWAP5 SWAP4 SWAP3 SWAP2 SWAP1 PUSH2 0x1315 JUMP JUMPDEST PUSH1 0x0 PUSH1 0x40 MLOAD DUP1 DUP4 SUB DUP2 PUSH1 0x0 DUP8 DUP1 EXTCODESIZE ISZERO DUP1 ISZERO PUSH2 0x86F JUMPI PUSH1 0x0 DUP1 REVERT JUMPDEST POP GAS CALL ISZERO DUP1 ISZERO PUSH2 0x883 JUMPI RETURNDATASIZE PUSH1 0x0 DUP1 RETURNDATACOPY RETURNDATASIZE PUSH1 0x0 REVERT JUMPDEST POP POP POP POP POP POP POP POP JUMP JUMPDEST PUSH1 0x0 PUSH1 0x40 MLOAD DUP1 PUSH2 0x140 ADD PUSH1 0x40 MSTORE DUP1 DUP8 DUP2 MSTORE PUSH1 0x20 ADD DUP7 DUP2 MSTORE PUSH1 0x20 ADD DUP6 DUP2 MSTORE PUSH1 0x20 ADD DUP5 DUP2 MSTORE PUSH1 0x20 ADD DUP4 DUP2 MSTORE PUSH1 0x20 ADD PUSH1 0x0 DUP2 MSTORE PUSH1 0x20 ADD CALLER PUSH20 0xFFFFFFFFFFFFFFFFFFFFFFFFFFFFFFFFFFFFFFFF AND DUP2 MSTORE PUSH1 0x20 ADD PUSH1 0x0 PUSH20 0xFFFFFFFFFFFFFFFFFFFFFFFFFFFFFFFFFFFFFFFF AND DUP2 MSTORE PUSH1 0x20 ADD PUSH1 0x1 ISZERO ISZERO DUP2 MSTORE PUSH1 0x20 ADD PUSH1 0x0 PUSH1 0x5 DUP2 GT ISZERO PUSH2 0x916 JUMPI PUSH2 0x915 PUSH2 0x162C JUMP JUMPDEST JUMPDEST DUP2 MSTORE POP SWAP1 POP DUP1 PUSH1 0x3 PUSH1 0x0 DUP9 DUP2 MSTORE PUSH1 0x20 ADD SWAP1 DUP2 MSTORE PUSH1 0x20 ADD PUSH1 0x0 KECCAK256 DUP7 DUP2 SLOAD DUP2 LT PUSH2 0x941 JUMPI PUSH2 0x940 PUSH2 0x168A JUMP JUMPDEST JUMPDEST SWAP1 PUSH1 0x0 MSTORE PUSH1 0x20 PUSH1 0x0 KECCAK256 SWAP1 PUSH1 0x8 MUL ADD PUSH1 0x0 DUP3 ADD MLOAD DUP2 PUSH1 0x0 ADD SSTORE PUSH1 0x20 DUP3 ADD MLOAD DUP2 PUSH1 0x1 ADD SSTORE PUSH1 0x40 DUP3 ADD MLOAD DUP2 PUSH1 0x2 ADD SWAP1 DUP1 MLOAD SWAP1 PUSH1 0x20 ADD SWAP1 PUSH2 0x97F SWAP3 SWAP2 SWAP1 PUSH2 0xC09 JUMP JUMPDEST POP PUSH1 0x60 DUP3 ADD MLOAD DUP2 PUSH1 0x3 ADD SWAP1 DUP1 MLOAD SWAP1 PUSH1 0x20 ADD SWAP1 PUSH2 0x99C SWAP3 SWAP2 SWAP1 PUSH2 0xC09 JUMP JUMPDEST POP PUSH1 0x80 DUP3 ADD MLOAD DUP2 PUSH1 0x4 ADD SSTORE PUSH1 0xA0 DUP3 ADD MLOAD DUP2 PUSH1 0x5 ADD SSTORE PUSH1 0xC0 DUP3 ADD MLOAD DUP2 PUSH1 0x6 ADD PUSH1 0x0 PUSH2 0x100 EXP DUP2 SLOAD DUP2 PUSH20 0xFFFFFFFFFFFFFFFFFFFFFFFFFFFFFFFFFFFFFFFF MUL NOT AND SWAP1 DUP4 PUSH20 0xFFFFFFFFFFFFFFFFFFFFFFFFFFFFFFFFFFFFFFFF AND MUL OR SWAP1 SSTORE POP PUSH1 0xE0 DUP3 ADD MLOAD DUP2 PUSH1 0x7 ADD PUSH1 0x0 PUSH2 0x100 EXP DUP2 SLOAD DUP2 PUSH20 0xFFFFFFFFFFFFFFFFFFFFFFFFFFFFFFFFFFFFFFFF MUL NOT AND SWAP1 DUP4 PUSH20 0xFFFFFFFFFFFFFFFFFFFFFFFFFFFFFFFFFFFFFFFF AND MUL OR SWAP1 SSTORE POP PUSH2 0x100 DUP3 ADD MLOAD DUP2 PUSH1 0x7 ADD PUSH1 0x14 PUSH2 0x100 EXP DUP2 SLOAD DUP2 PUSH1 0xFF MUL NOT AND SWAP1 DUP4 ISZERO ISZERO MUL OR SWAP1 SSTORE POP PUSH2 0x120 DUP3 ADD MLOAD DUP2 PUSH1 0x7 ADD PUSH1 0x15 PUSH2 0x100 EXP DUP2 SLOAD DUP2 PUSH1 0xFF MUL NOT AND SWAP1 DUP4 PUSH1 0x5 DUP2 GT ISZERO PUSH2 0xA8C JUMPI PUSH2 0xA8B PUSH2 0x162C JUMP JUMPDEST JUMPDEST MUL OR SWAP1 SSTORE POP SWAP1 POP POP PUSH32 0x68DD1FAD96EBC5F1740866EC07701D4AB66240C086D6AE6D351EE74EACDF267E DUP7 DUP7 DUP7 DUP7 DUP7 PUSH1 0x40 MLOAD PUSH2 0xACB SWAP6 SWAP5 SWAP4 SWAP3 SWAP2 SWAP1 PUSH2 0x1368 JUMP JUMPDEST PUSH1 0x40 MLOAD DUP1 SWAP2 SUB SWAP1 LOG1 POP POP POP POP POP POP JUMP JUMPDEST PUSH1 0x0 DUP1 SLOAD SWAP1 PUSH2 0x100 EXP SWAP1 DIV PUSH20 0xFFFFFFFFFFFFFFFFFFFFFFFFFFFFFFFFFFFFFFFF AND PUSH20 0xFFFFFFFFFFFFFFFFFFFFFFFFFFFFFFFFFFFFFFFF AND PUSH4 0xB9B6C5D4 DUP5 DUP5 DUP5 PUSH1 0x40 MLOAD DUP5 PUSH4 0xFFFFFFFF AND PUSH1 0xE0 SHL DUP2 MSTORE PUSH1 0x4 ADD PUSH2 0xB38 SWAP4 SWAP3 SWAP2 SWAP1 PUSH2 0x13C9 JUMP JUMPDEST PUSH1 0x0 PUSH1 0x40 MLOAD DUP1 DUP4 SUB DUP2 PUSH1 0x0 DUP8 DUP1 EXTCODESIZE ISZERO DUP1 ISZERO PUSH2 0xB52 JUMPI PUSH1 0x0 DUP1 REVERT JUMPDEST POP GAS CALL ISZERO DUP1 ISZERO PUSH2 0xB66 JUMPI RETURNDATASIZE PUSH1 0x0 DUP1 RETURNDATACOPY RETURNDATASIZE PUSH1 0x0 REVERT JUMPDEST POP POP POP POP POP POP POP JUMP JUMPDEST PUSH1 0x0 DUP1 SLOAD SWAP1 PUSH2 0x100 EXP SWAP1 DIV PUSH20 0xFFFFFFFFFFFFFFFFFFFFFFFFFFFFFFFFFFFFFFFF AND PUSH20 0xFFFFFFFFFFFFFFFFFFFFFFFFFFFFFFFFFFFFFFFF AND PUSH4 0xFD23C4BB DUP7 DUP7 DUP7 DUP7 DUP7 PUSH1 0x40 MLOAD DUP7 PUSH4 0xFFFFFFFF AND PUSH1 0xE0 SHL DUP2 MSTORE PUSH1 0x4 ADD PUSH2 0xBD0 SWAP6 SWAP5 SWAP4 SWAP3 SWAP2 SWAP1 PUSH2 0x1400 JUMP JUMPDEST PUSH1 0x0 PUSH1 0x40 MLOAD DUP1 DUP4 SUB DUP2 PUSH1 0x0 DUP8 DUP1 EXTCODESIZE ISZERO DUP1 ISZERO PUSH2 0xBEA JUMPI PUSH1 0x0 DUP1 REVERT JUMPDEST POP GAS CALL ISZERO DUP1 ISZERO PUSH2 0xBFE JUMPI RETURNDATASIZE PUSH1 0x0 DUP1 RETURNDATACOPY RETURNDATASIZE PUSH1 0x0 REVERT JUMPDEST POP POP POP POP POP POP POP POP POP JUMP JUMPDEST DUP3 DUP1 SLOAD PUSH2 0xC15 SWAP1 PUSH2 0x1551 JUMP JUMPDEST SWAP1 PUSH1 0x0 MSTORE PUSH1 0x20 PUSH1 0x0 KECCAK256 SWAP1 PUSH1 0x1F ADD PUSH1 0x20 SWAP1 DIV DUP2 ADD SWAP3 DUP3 PUSH2 0xC37 JUMPI PUSH1 0x0 DUP6 SSTORE PUSH2 0xC7E JUMP JUMPDEST DUP3 PUSH1 0x1F LT PUSH2 0xC50 JUMPI DUP1 MLOAD PUSH1 0xFF NOT AND DUP4 DUP1 ADD OR DUP6 SSTORE PUSH2 0xC7E JUMP JUMPDEST DUP3 DUP1 ADD PUSH1 0x1 ADD DUP6 SSTORE DUP3 ISZERO PUSH2 0xC7E JUMPI SWAP2 DUP3 ADD JUMPDEST DUP3 DUP2 GT ISZERO PUSH2 0xC7D JUMPI DUP3 MLOAD DUP3 SSTORE SWAP2 PUSH1 0x20 ADD SWAP2 SWAP1 PUSH1 0x1 ADD SWAP1 PUSH2 0xC62 JUMP JUMPDEST JUMPDEST POP SWAP1 POP PUSH2 0xC8B SWAP2 SWAP1 PUSH2 0xC8F JUMP JUMPDEST POP SWAP1 JUMP JUMPDEST JUMPDEST DUP1 DUP3 GT ISZERO PUSH2 0xCA8 JUMPI PUSH1 0x0 DUP2 PUSH1 0x0 SWAP1 SSTORE POP PUSH1 0x1 ADD PUSH2 0xC90 JUMP JUMPDEST POP SWAP1 JUMP JUMPDEST PUSH1 0x0 PUSH2 0xCBF PUSH2 0xCBA DUP5 PUSH2 0x1486 JUMP JUMPDEST PUSH2 0x1461 JUMP JUMPDEST SWAP1 POP DUP3 DUP2 MSTORE PUSH1 0x20 DUP2 ADD DUP5 DUP5 DUP5 ADD GT ISZERO PUSH2 0xCDB JUMPI PUSH2 0xCDA PUSH2 0x16ED JUMP JUMPDEST JUMPDEST PUSH2 0xCE6 DUP5 DUP3 DUP6 PUSH2 0x150F JUMP JUMPDEST POP SWAP4 SWAP3 POP POP POP JUMP JUMPDEST PUSH1 0x0 PUSH2 0xD01 PUSH2 0xCFC DUP5 PUSH2 0x1486 JUMP JUMPDEST PUSH2 0x1461 JUMP JUMPDEST SWAP1 POP DUP3 DUP2 MSTORE PUSH1 0x20 DUP2 ADD DUP5 DUP5 DUP5 ADD GT ISZERO PUSH2 0xD1D JUMPI PUSH2 0xD1C PUSH2 0x16ED JUMP JUMPDEST JUMPDEST PUSH2 0xD28 DUP5 DUP3 DUP6 PUSH2 0x151E JUMP JUMPDEST POP SWAP4 SWAP3 POP POP POP JUMP JUMPDEST PUSH1 0x0 DUP2 CALLDATALOAD SWAP1 POP PUSH2 0xD3F DUP2 PUSH2 0x1785 JUMP JUMPDEST SWAP3 SWAP2 POP POP JUMP JUMPDEST PUSH1 0x0 DUP3 PUSH1 0x1F DUP4 ADD SLT PUSH2 0xD5A JUMPI PUSH2 0xD59 PUSH2 0x16E8 JUMP JUMPDEST JUMPDEST DUP2 CALLDATALOAD PUSH2 0xD6A DUP5 DUP3 PUSH1 0x20 DUP7 ADD PUSH2 0xCAC JUMP JUMPDEST SWAP2 POP POP SWAP3 SWAP2 POP POP JUMP JUMPDEST PUSH1 0x0 DUP3 PUSH1 0x1F DUP4 ADD SLT PUSH2 0xD88 JUMPI PUSH2 0xD87 PUSH2 0x16E8 JUMP JUMPDEST JUMPDEST DUP2 MLOAD PUSH2 0xD98 DUP5 DUP3 PUSH1 0x20 DUP7 ADD PUSH2 0xCEE JUMP JUMPDEST SWAP2 POP POP SWAP3 SWAP2 POP POP JUMP JUMPDEST PUSH1 0x0 DUP2 CALLDATALOAD SWAP1 POP PUSH2 0xDB0 DUP2 PUSH2 0x179C JUMP JUMPDEST SWAP3 SWAP2 POP POP JUMP JUMPDEST PUSH1 0x0 DUP1 PUSH1 0x40 DUP4 DUP6 SUB SLT ISZERO PUSH2 0xDCD JUMPI PUSH2 0xDCC PUSH2 0x16F7 JUMP JUMPDEST JUMPDEST PUSH1 0x0 DUP4 ADD MLOAD PUSH8 0xFFFFFFFFFFFFFFFF DUP2 GT ISZERO PUSH2 0xDEB JUMPI PUSH2 0xDEA PUSH2 0x16F2 JUMP JUMPDEST JUMPDEST PUSH2 0xDF7 DUP6 DUP3 DUP7 ADD PUSH2 0xD73 JUMP JUMPDEST SWAP3 POP POP PUSH1 0x20 DUP4 ADD MLOAD PUSH8 0xFFFFFFFFFFFFFFFF DUP2 GT ISZERO PUSH2 0xE18 JUMPI PUSH2 0xE17 PUSH2 0x16F2 JUMP JUMPDEST JUMPDEST PUSH2 0xE24 DUP6 DUP3 DUP7 ADD PUSH2 0xD73 JUMP JUMPDEST SWAP2 POP POP SWAP3 POP SWAP3 SWAP1 POP JUMP JUMPDEST PUSH1 0x0 DUP1 PUSH1 0x0 DUP1 PUSH1 0x0 PUSH1 0xA0 DUP7 DUP9 SUB SLT ISZERO PUSH2 0xE4A JUMPI PUSH2 0xE49 PUSH2 0x16F7 JUMP JUMPDEST JUMPDEST PUSH1 0x0 PUSH2 0xE58 DUP9 DUP3 DUP10 ADD PUSH2 0xDA1 JUMP JUMPDEST SWAP6 POP POP PUSH1 0x20 DUP7 ADD CALLDATALOAD PUSH8 0xFFFFFFFFFFFFFFFF DUP2 GT ISZERO PUSH2 0xE79 JUMPI PUSH2 0xE78 PUSH2 0x16F2 JUMP JUMPDEST JUMPDEST PUSH2 0xE85 DUP9 DUP3 DUP10 ADD PUSH2 0xD45 JUMP JUMPDEST SWAP5 POP POP PUSH1 0x40 DUP7 ADD CALLDATALOAD PUSH8 0xFFFFFFFFFFFFFFFF DUP2 GT ISZERO PUSH2 0xEA6 JUMPI PUSH2 0xEA5 PUSH2 0x16F2 JUMP JUMPDEST JUMPDEST PUSH2 0xEB2 DUP9 DUP3 DUP10 ADD PUSH2 0xD45 JUMP JUMPDEST SWAP4 POP POP PUSH1 0x60 PUSH2 0xEC3 DUP9 DUP3 DUP10 ADD PUSH2 0xDA1 JUMP JUMPDEST SWAP3 POP POP PUSH1 0x80 PUSH2 0xED4 DUP9 DUP3 DUP10 ADD PUSH2 0xD30 JUMP JUMPDEST SWAP2 POP POP SWAP3 SWAP6 POP SWAP3 SWAP6 SWAP1 SWAP4 POP JUMP JUMPDEST PUSH1 0x0 DUP1 PUSH1 0x40 DUP4 DUP6 SUB SLT ISZERO PUSH2 0xEF8 JUMPI PUSH2 0xEF7 PUSH2 0x16F7 JUMP JUMPDEST JUMPDEST PUSH1 0x0 PUSH2 0xF06 DUP6 DUP3 DUP7 ADD PUSH2 0xDA1 JUMP JUMPDEST SWAP3 POP POP PUSH1 0x20 PUSH2 0xF17 DUP6 DUP3 DUP7 ADD PUSH2 0xDA1 JUMP JUMPDEST SWAP2 POP POP SWAP3 POP SWAP3 SWAP1 POP JUMP JUMPDEST PUSH1 0x0 DUP1 PUSH1 0x0 DUP1 PUSH1 0x80 DUP6 DUP8 SUB SLT ISZERO PUSH2 0xF3B JUMPI PUSH2 0xF3A PUSH2 0x16F7 JUMP JUMPDEST JUMPDEST PUSH1 0x0 PUSH2 0xF49 DUP8 DUP3 DUP9 ADD PUSH2 0xDA1 JUMP JUMPDEST SWAP5 POP POP PUSH1 0x20 PUSH2 0xF5A DUP8 DUP3 DUP9 ADD PUSH2 0xDA1 JUMP JUMPDEST SWAP4 POP POP PUSH1 0x40 DUP6 ADD CALLDATALOAD PUSH8 0xFFFFFFFFFFFFFFFF DUP2 GT ISZERO PUSH2 0xF7B JUMPI PUSH2 0xF7A PUSH2 0x16F2 JUMP JUMPDEST JUMPDEST PUSH2 0xF87 DUP8 DUP3 DUP9 ADD PUSH2 0xD45 JUMP JUMPDEST SWAP3 POP POP PUSH1 0x60 DUP6 ADD CALLDATALOAD PUSH8 0xFFFFFFFFFFFFFFFF DUP2 GT ISZERO PUSH2 0xFA8 JUMPI PUSH2 0xFA7 PUSH2 0x16F2 JUMP JUMPDEST JUMPDEST PUSH2 0xFB4 DUP8 DUP3 DUP9 ADD PUSH2 0xD45 JUMP JUMPDEST SWAP2 POP POP SWAP3 SWAP6 SWAP2 SWAP5 POP SWAP3 POP JUMP JUMPDEST PUSH1 0x0 DUP1 PUSH1 0x0 DUP1 PUSH1 0x0 PUSH1 0xA0 DUP7 DUP9 SUB SLT ISZERO PUSH2 0xFDC JUMPI PUSH2 0xFDB PUSH2 0x16F7 JUMP JUMPDEST JUMPDEST PUSH1 0x0 PUSH2 0xFEA DUP9 DUP3 DUP10 ADD PUSH2 0xDA1 JUMP JUMPDEST SWAP6 POP POP PUSH1 0x20 PUSH2 0xFFB DUP9 DUP3 DUP10 ADD PUSH2 0xDA1 JUMP JUMPDEST SWAP5 POP POP PUSH1 0x40 DUP7 ADD CALLDATALOAD PUSH8 0xFFFFFFFFFFFFFFFF DUP2 GT ISZERO PUSH2 0x101C JUMPI PUSH2 0x101B PUSH2 0x16F2 JUMP JUMPDEST JUMPDEST PUSH2 0x1028 DUP9 DUP3 DUP10 ADD PUSH2 0xD45 JUMP JUMPDEST SWAP4 POP POP PUSH1 0x60 DUP7 ADD CALLDATALOAD PUSH8 0xFFFFFFFFFFFFFFFF DUP2 GT ISZERO PUSH2 0x1049 JUMPI PUSH2 0x1048 PUSH2 0x16F2 JUMP JUMPDEST JUMPDEST PUSH2 0x1055 DUP9 DUP3 DUP10 ADD PUSH2 0xD45 JUMP JUMPDEST SWAP3 POP POP PUSH1 0x80 PUSH2 0x1066 DUP9 DUP3 DUP10 ADD PUSH2 0xDA1 JUMP JUMPDEST SWAP2 POP POP SWAP3 SWAP6 POP SWAP3 SWAP6 SWAP1 SWAP4 POP JUMP JUMPDEST PUSH1 0x0 DUP1 PUSH1 0x0 PUSH1 0x60 DUP5 DUP7 SUB SLT ISZERO PUSH2 0x108C JUMPI PUSH2 0x108B PUSH2 0x16F7 JUMP JUMPDEST JUMPDEST PUSH1 0x0 PUSH2 0x109A DUP7 DUP3 DUP8 ADD PUSH2 0xDA1 JUMP JUMPDEST SWAP4 POP POP PUSH1 0x20 PUSH2 0x10AB DUP7 DUP3 DUP8 ADD PUSH2 0xDA1 JUMP JUMPDEST SWAP3 POP POP PUSH1 0x40 PUSH2 0x10BC DUP7 DUP3 DUP8 ADD PUSH2 0xDA1 JUMP JUMPDEST SWAP2 POP POP SWAP3 POP SWAP3 POP SWAP3 JUMP JUMPDEST PUSH1 0x0 DUP1 PUSH1 0x0 DUP1 PUSH1 0x0 PUSH1 0xA0 DUP7 DUP9 SUB SLT ISZERO PUSH2 0x10E2 JUMPI PUSH2 0x10E1 PUSH2 0x16F7 JUMP JUMPDEST JUMPDEST PUSH1 0x0 PUSH2 0x10F0 DUP9 DUP3 DUP10 ADD PUSH2 0xDA1 JUMP JUMPDEST SWAP6 POP POP PUSH1 0x20 PUSH2 0x1101 DUP9 DUP3 DUP10 ADD PUSH2 0xDA1 JUMP JUMPDEST SWAP5 POP POP PUSH1 0x40 PUSH2 0x1112 DUP9 DUP3 DUP10 ADD PUSH2 0xDA1 JUMP JUMPDEST SWAP4 POP POP PUSH1 0x60 DUP7 ADD CALLDATALOAD PUSH8 0xFFFFFFFFFFFFFFFF DUP2 GT ISZERO PUSH2 0x1133 JUMPI PUSH2 0x1132 PUSH2 0x16F2 JUMP JUMPDEST JUMPDEST PUSH2 0x113F DUP9 DUP3 DUP10 ADD PUSH2 0xD45 JUMP JUMPDEST SWAP3 POP POP PUSH1 0x80 DUP7 ADD CALLDATALOAD PUSH8 0xFFFFFFFFFFFFFFFF DUP2 GT ISZERO PUSH2 0x1160 JUMPI PUSH2 0x115F PUSH2 0x16F2 JUMP JUMPDEST JUMPDEST PUSH2 0x116C DUP9 DUP3 DUP10 ADD PUSH2 0xD45 JUMP JUMPDEST SWAP2 POP POP SWAP3 SWAP6 POP SWAP3 SWAP6 SWAP1 SWAP4 POP JUMP JUMPDEST PUSH1 0x0 PUSH2 0x1184 DUP3 PUSH2 0x14B7 JUMP JUMPDEST PUSH2 0x118E DUP2 DUP6 PUSH2 0x14C2 JUMP JUMPDEST SWAP4 POP PUSH2 0x119E DUP2 DUP6 PUSH1 0x20 DUP7 ADD PUSH2 0x151E JUMP JUMPDEST PUSH2 0x11A7 DUP2 PUSH2 0x16FC JUMP JUMPDEST DUP5 ADD SWAP2 POP POP SWAP3 SWAP2 POP POP JUMP JUMPDEST PUSH1 0x0 PUSH2 0x11BF PUSH1 0x21 DUP4 PUSH2 0x14C2 JUMP JUMPDEST SWAP2 POP PUSH2 0x11CA DUP3 PUSH2 0x170D JUMP JUMPDEST PUSH1 0x40 DUP3 ADD SWAP1 POP SWAP2 SWAP1 POP JUMP JUMPDEST PUSH1 0x0 PUSH2 0x11E2 PUSH1 0x15 DUP4 PUSH2 0x14C2 JUMP JUMPDEST SWAP2 POP PUSH2 0x11ED DUP3 PUSH2 0x175C JUMP JUMPDEST PUSH1 0x20 DUP3 ADD SWAP1 POP SWAP2 SWAP1 POP JUMP JUMPDEST PUSH2 0x1201 DUP2 PUSH2 0x1505 JUMP JUMPDEST DUP3 MSTORE POP POP JUMP JUMPDEST PUSH1 0x0 PUSH1 0x40 DUP3 ADD SWAP1 POP DUP2 DUP2 SUB PUSH1 0x0 DUP4 ADD MSTORE PUSH2 0x1221 DUP2 DUP6 PUSH2 0x1179 JUMP JUMPDEST SWAP1 POP DUP2 DUP2 SUB PUSH1 0x20 DUP4 ADD MSTORE PUSH2 0x1235 DUP2 DUP5 PUSH2 0x1179 JUMP JUMPDEST SWAP1 POP SWAP4 SWAP3 POP POP POP JUMP JUMPDEST PUSH1 0x0 PUSH1 0x80 DUP3 ADD SWAP1 POP DUP2 DUP2 SUB PUSH1 0x0 DUP4 ADD MSTORE PUSH2 0x1258 DUP2 DUP8 PUSH2 0x1179 JUMP JUMPDEST SWAP1 POP DUP2 DUP2 SUB PUSH1 0x20 DUP4 ADD MSTORE PUSH2 0x126C DUP2 DUP7 PUSH2 0x1179 JUMP JUMPDEST SWAP1 POP PUSH2 0x127B PUSH1 0x40 DUP4 ADD DUP6 PUSH2 0x11F8 JUMP JUMPDEST PUSH2 0x1288 PUSH1 0x60 DUP4 ADD DUP5 PUSH2 0x11F8 JUMP JUMPDEST SWAP6 SWAP5 POP POP POP POP POP JUMP JUMPDEST PUSH1 0x0 PUSH1 0x20 DUP3 ADD SWAP1 POP DUP2 DUP2 SUB PUSH1 0x0 DUP4 ADD MSTORE PUSH2 0x12AA DUP2 PUSH2 0x11B2 JUMP JUMPDEST SWAP1 POP SWAP2 SWAP1 POP JUMP JUMPDEST PUSH1 0x0 PUSH1 0x20 DUP3 ADD SWAP1 POP DUP2 DUP2 SUB PUSH1 0x0 DUP4 ADD MSTORE PUSH2 0x12CA DUP2 PUSH2 0x11D5 JUMP JUMPDEST SWAP1 POP SWAP2 SWAP1 POP JUMP JUMPDEST PUSH1 0x0 PUSH1 0x20 DUP3 ADD SWAP1 POP PUSH2 0x12E6 PUSH1 0x0 DUP4 ADD DUP5 PUSH2 0x11F8 JUMP JUMPDEST SWAP3 SWAP2 POP POP JUMP JUMPDEST PUSH1 0x0 PUSH1 0x40 DUP3 ADD SWAP1 POP PUSH2 0x1301 PUSH1 0x0 DUP4 ADD DUP6 PUSH2 0x11F8 JUMP JUMPDEST PUSH2 0x130E PUSH1 0x20 DUP4 ADD DUP5 PUSH2 0x11F8 JUMP JUMPDEST SWAP4 SWAP3 POP POP POP JUMP JUMPDEST PUSH1 0x0 PUSH1 0x80 DUP3 ADD SWAP1 POP PUSH2 0x132A PUSH1 0x0 DUP4 ADD DUP8 PUSH2 0x11F8 JUMP JUMPDEST PUSH2 0x1337 PUSH1 0x20 DUP4 ADD DUP7 PUSH2 0x11F8 JUMP JUMPDEST DUP2 DUP2 SUB PUSH1 0x40 DUP4 ADD MSTORE PUSH2 0x1349 DUP2 DUP6 PUSH2 0x1179 JUMP JUMPDEST SWAP1 POP DUP2 DUP2 SUB PUSH1 0x60 DUP4 ADD MSTORE PUSH2 0x135D DUP2 DUP5 PUSH2 0x1179 JUMP JUMPDEST SWAP1 POP SWAP6 SWAP5 POP POP POP POP POP JUMP JUMPDEST PUSH1 0x0 PUSH1 0xA0 DUP3 ADD SWAP1 POP PUSH2 0x137D PUSH1 0x0 DUP4 ADD DUP9 PUSH2 0x11F8 JUMP JUMPDEST PUSH2 0x138A PUSH1 0x20 DUP4 ADD DUP8 PUSH2 0x11F8 JUMP JUMPDEST DUP2 DUP2 SUB PUSH1 0x40 DUP4 ADD MSTORE PUSH2 0x139C DUP2 DUP7 PUSH2 0x1179 JUMP JUMPDEST SWAP1 POP DUP2 DUP2 SUB PUSH1 0x60 DUP4 ADD MSTORE PUSH2 0x13B0 DUP2 DUP6 PUSH2 0x1179 JUMP JUMPDEST SWAP1 POP PUSH2 0x13BF PUSH1 0x80 DUP4 ADD DUP5 PUSH2 0x11F8 JUMP JUMPDEST SWAP7 SWAP6 POP POP POP POP POP POP JUMP JUMPDEST PUSH1 0x0 PUSH1 0x60 DUP3 ADD SWAP1 POP PUSH2 0x13DE PUSH1 0x0 DUP4 ADD DUP7 PUSH2 0x11F8 JUMP JUMPDEST PUSH2 0x13EB PUSH1 0x20 DUP4 ADD DUP6 PUSH2 0x11F8 JUMP JUMPDEST PUSH2 0x13F8 PUSH1 0x40 DUP4 ADD DUP5 PUSH2 0x11F8 JUMP JUMPDEST SWAP5 SWAP4 POP POP POP POP JUMP JUMPDEST PUSH1 0x0 PUSH1 0xA0 DUP3 ADD SWAP1 POP PUSH2 0x1415 PUSH1 0x0 DUP4 ADD DUP9 PUSH2 0x11F8 JUMP JUMPDEST PUSH2 0x1422 PUSH1 0x20 DUP4 ADD DUP8 PUSH2 0x11F8 JUMP JUMPDEST PUSH2 0x142F PUSH1 0x40 DUP4 ADD DUP7 PUSH2 0x11F8 JUMP JUMPDEST DUP2 DUP2 SUB PUSH1 0x60 DUP4 ADD MSTORE PUSH2 0x1441 DUP2 DUP6 PUSH2 0x1179 JUMP JUMPDEST SWAP1 POP DUP2 DUP2 SUB PUSH1 0x80 DUP4 ADD MSTORE PUSH2 0x1455 DUP2 DUP5 PUSH2 0x1179 JUMP JUMPDEST SWAP1 POP SWAP7 SWAP6 POP POP POP POP POP POP JUMP JUMPDEST PUSH1 0x0 PUSH2 0x146B PUSH2 0x147C JUMP JUMPDEST SWAP1 POP PUSH2 0x1477 DUP3 DUP3 PUSH2 0x1583 JUMP JUMPDEST SWAP2 SWAP1 POP JUMP JUMPDEST PUSH1 0x0 PUSH1 0x40 MLOAD SWAP1 POP SWAP1 JUMP JUMPDEST PUSH1 0x0 PUSH8 0xFFFFFFFFFFFFFFFF DUP3 GT ISZERO PUSH2 0x14A1 JUMPI PUSH2 0x14A0 PUSH2 0x16B9 JUMP JUMPDEST JUMPDEST PUSH2 0x14AA DUP3 PUSH2 0x16FC JUMP JUMPDEST SWAP1 POP PUSH1 0x20 DUP2 ADD SWAP1 POP SWAP2 SWAP1 POP JUMP JUMPDEST PUSH1 0x0 DUP2 MLOAD SWAP1 POP SWAP2 SWAP1 POP JUMP JUMPDEST PUSH1 0x0 DUP3 DUP3 MSTORE PUSH1 0x20 DUP3 ADD SWAP1 POP SWAP3 SWAP2 POP POP JUMP JUMPDEST PUSH1 0x0 PUSH2 0x14DE DUP3 PUSH2 0x14E5 JUMP JUMPDEST SWAP1 POP SWAP2 SWAP1 POP JUMP JUMPDEST PUSH1 0x0 PUSH20 0xFFFFFFFFFFFFFFFFFFFFFFFFFFFFFFFFFFFFFFFF DUP3 AND SWAP1 POP SWAP2 SWAP1 POP JUMP JUMPDEST PUSH1 0x0 DUP2 SWAP1 POP SWAP2 SWAP1 POP JUMP JUMPDEST DUP3 DUP2 DUP4 CALLDATACOPY PUSH1 0x0 DUP4 DUP4 ADD MSTORE POP POP POP JUMP JUMPDEST PUSH1 0x0 JUMPDEST DUP4 DUP2 LT ISZERO PUSH2 0x153C JUMPI DUP1 DUP3 ADD MLOAD DUP2 DUP5 ADD MSTORE PUSH1 0x20 DUP2 ADD SWAP1 POP PUSH2 0x1521 JUMP JUMPDEST DUP4 DUP2 GT ISZERO PUSH2 0x154B JUMPI PUSH1 0x0 DUP5 DUP5 ADD MSTORE JUMPDEST POP POP POP POP JUMP JUMPDEST PUSH1 0x0 PUSH1 0x2 DUP3 DIV SWAP1 POP PUSH1 0x1 DUP3 AND DUP1 PUSH2 0x1569 JUMPI PUSH1 0x7F DUP3 AND SWAP2 POP JUMPDEST PUSH1 0x20 DUP3 LT DUP2 EQ ISZERO PUSH2 0x157D JUMPI PUSH2 0x157C PUSH2 0x165B JUMP JUMPDEST JUMPDEST POP SWAP2 SWAP1 POP JUMP JUMPDEST PUSH2 0x158C DUP3 PUSH2 0x16FC JUMP JUMPDEST DUP2 ADD DUP2 DUP2 LT PUSH8 0xFFFFFFFFFFFFFFFF DUP3 GT OR ISZERO PUSH2 0x15AB JUMPI PUSH2 0x15AA PUSH2 0x16B9 JUMP JUMPDEST JUMPDEST DUP1 PUSH1 0x40 MSTORE POP POP POP JUMP JUMPDEST PUSH1 0x0 PUSH2 0x15BF DUP3 PUSH2 0x1505 JUMP JUMPDEST SWAP2 POP PUSH32 0xFFFFFFFFFFFFFFFFFFFFFFFFFFFFFFFFFFFFFFFFFFFFFFFFFFFFFFFFFFFFFFFF DUP3 EQ ISZERO PUSH2 0x15F2 JUMPI PUSH2 0x15F1 PUSH2 0x15FD JUMP JUMPDEST JUMPDEST PUSH1 0x1 DUP3 ADD SWAP1 POP SWAP2 SWAP1 POP JUMP JUMPDEST PUSH32 0x4E487B7100000000000000000000000000000000000000000000000000000000 PUSH1 0x0 MSTORE PUSH1 0x11 PUSH1 0x4 MSTORE PUSH1 0x24 PUSH1 0x0 REVERT JUMPDEST PUSH32 0x4E487B7100000000000000000000000000000000000000000000000000000000 PUSH1 0x0 MSTORE PUSH1 0x21 PUSH1 0x4 MSTORE PUSH1 0x24 PUSH1 0x0 REVERT JUMPDEST PUSH32 0x4E487B7100000000000000000000000000000000000000000000000000000000 PUSH1 0x0 MSTORE PUSH1 0x22 PUSH1 0x4 MSTORE PUSH1 0x24 PUSH1 0x0 REVERT JUMPDEST PUSH32 0x4E487B7100000000000000000000000000000000000000000000000000000000 PUSH1 0x0 MSTORE PUSH1 0x32 PUSH1 0x4 MSTORE PUSH1 0x24 PUSH1 0x0 REVERT JUMPDEST PUSH32 0x4E487B7100000000000000000000000000000000000000000000000000000000 PUSH1 0x0 MSTORE PUSH1 0x41 PUSH1 0x4 MSTORE PUSH1 0x24 PUSH1 0x0 REVERT JUMPDEST PUSH1 0x0 DUP1 REVERT JUMPDEST PUSH1 0x0 DUP1 REVERT JUMPDEST PUSH1 0x0 DUP1 REVERT JUMPDEST PUSH1 0x0 DUP1 REVERT JUMPDEST PUSH1 0x0 PUSH1 0x1F NOT PUSH1 0x1F DUP4 ADD AND SWAP1 POP SWAP2 SWAP1 POP JUMP JUMPDEST PUSH32 0x412053657276696365205072696365206D757374206265207370656369666965 PUSH1 0x0 DUP3 ADD MSTORE PUSH32 0x6400000000000000000000000000000000000000000000000000000000000000 PUSH1 0x20 DUP3 ADD MSTORE POP JUMP JUMPDEST PUSH32 0x4120737472696E67206973207265717569726564210000000000000000000000 PUSH1 0x0 DUP3 ADD MSTORE POP JUMP JUMPDEST PUSH2 0x178E DUP2 PUSH2 0x14D3 JUMP JUMPDEST DUP2 EQ PUSH2 0x1799 JUMPI PUSH1 0x0 DUP1 REVERT JUMPDEST POP JUMP JUMPDEST PUSH2 0x17A5 DUP2 PUSH2 0x1505 JUMP JUMPDEST DUP2 EQ PUSH2 0x17B0 JUMPI PUSH1 0x0 DUP1 REVERT JUMPDEST POP JUMP INVALID LOG2 PUSH5 0x6970667358 0x22 SLT KECCAK256 SUB ADDRESS DUP8 SWAP10 MUL 0xFB PUSH8 0x3DC865F25B716619 DUP1 STATICCALL DUP16 BASEFEE SUB CALLCODE PUSH11 0x9CFD44FA7658301A13F264 PUSH20 0x6F6C634300080700330000000000000000000000 "
				},
				"gasEstimates": {
					"creation": {
						"codeDepositCost": "1224200",
						"executionCost": "infinite",
						"totalCost": "infinite"
					},
					"external": {
						"createMilestone(uint256,uint256,string,string)": "infinite",
						"createService(uint256,string,string,uint256,address)": "infinite",
						"deleteMilestone(uint256,uint256,uint256)": "infinite",
						"deleteService(uint256,uint256)": "infinite",
						"readMilestone(uint256,uint256,uint256)": "infinite",
						"readService(uint256,uint256)": "infinite",
						"serviceNum()": "2474",
						"serviceTotal()": "2452",
						"updateMilestone(uint256,uint256,uint256,string,string)": "infinite",
						"updateService(uint256,uint256,string,string,uint256)": "infinite"
					}
				},
				"methodIdentifiers": {
					"createMilestone(uint256,uint256,string,string)": "63ef8a50",
					"createService(uint256,string,string,uint256,address)": "256da4e3",
					"deleteMilestone(uint256,uint256,uint256)": "b9b6c5d4",
					"deleteService(uint256,uint256)": "53c49c64",
					"readMilestone(uint256,uint256,uint256)": "49428a62",
					"readService(uint256,uint256)": "4994772c",
					"serviceNum()": "352d28fd",
					"serviceTotal()": "30f73051",
					"updateMilestone(uint256,uint256,uint256,string,string)": "fd23c4bb",
					"updateService(uint256,uint256,string,string,uint256)": "ac10dfe3"
				}
			},
			"userdoc": {
				"kind": "user",
				"methods": {},
				"version": 1
			}
		}
	}
}