{
	"contracts/Service.sol": {
		"Service": {
			"abi": [
				{
					"inputs": [
						{
							"internalType": "contract Milestone",
							"name": "milestone",
							"type": "address"
						}
					],
					"stateMutability": "nonpayable",
					"type": "constructor"
				},
				{
					"anonymous": false,
					"inputs": [
						{
							"indexed": false,
							"internalType": "enum Service.Status",
							"name": "status",
							"type": "uint8"
						}
					],
					"name": "serviceApproved",
					"type": "event"
				},
				{
					"anonymous": false,
					"inputs": [
						{
							"indexed": false,
							"internalType": "enum Service.Status",
							"name": "status",
							"type": "uint8"
						}
					],
					"name": "serviceCancelRequest",
					"type": "event"
				},
				{
					"anonymous": false,
					"inputs": [
						{
							"indexed": false,
							"internalType": "enum Service.Status",
							"name": "status",
							"type": "uint8"
						}
					],
					"name": "serviceCompleted",
					"type": "event"
				},
				{
					"anonymous": false,
					"inputs": [
						{
							"indexed": false,
							"internalType": "uint256",
							"name": "serviceNumber",
							"type": "uint256"
						},
						{
							"components": [
								{
									"internalType": "uint256",
									"name": "serviceId",
									"type": "uint256"
								},
								{
									"internalType": "string",
									"name": "title",
									"type": "string"
								},
								{
									"internalType": "string",
									"name": "description",
									"type": "string"
								},
								{
									"internalType": "uint256",
									"name": "price",
									"type": "uint256"
								},
								{
									"internalType": "uint256",
									"name": "currentMilestone",
									"type": "uint256"
								},
								{
									"internalType": "uint256",
									"name": "serviceNumber",
									"type": "uint256"
								},
								{
									"internalType": "address",
									"name": "serviceProvider",
									"type": "address"
								},
								{
									"internalType": "address",
									"name": "serviceRequester",
									"type": "address"
								},
								{
									"internalType": "bool",
									"name": "exist",
									"type": "bool"
								},
								{
									"internalType": "enum Service.Status",
									"name": "status",
									"type": "uint8"
								}
							],
							"indexed": false,
							"internalType": "struct Service.service",
							"name": "newService",
							"type": "tuple"
						}
					],
					"name": "serviceCreated",
					"type": "event"
				},
				{
					"anonymous": false,
					"inputs": [
						{
							"indexed": false,
							"internalType": "uint256",
							"name": "serviceNumber",
							"type": "uint256"
						}
					],
					"name": "serviceDeleted",
					"type": "event"
				},
				{
					"anonymous": false,
					"inputs": [
						{
							"indexed": false,
							"internalType": "enum Service.Status",
							"name": "status",
							"type": "uint8"
						}
					],
					"name": "serviceRejected",
					"type": "event"
				},
				{
					"anonymous": false,
					"inputs": [
						{
							"indexed": false,
							"internalType": "enum Service.Status",
							"name": "status",
							"type": "uint8"
						},
						{
							"indexed": false,
							"internalType": "uint256",
							"name": "serviceNumber",
							"type": "uint256"
						}
					],
					"name": "serviceRequested",
					"type": "event"
				},
				{
					"anonymous": false,
					"inputs": [
						{
							"indexed": false,
							"internalType": "enum Service.Status",
							"name": "status",
							"type": "uint8"
						}
					],
					"name": "serviceStarted",
					"type": "event"
				},
				{
					"anonymous": false,
					"inputs": [
						{
							"indexed": false,
							"internalType": "uint256",
							"name": "serviceNumber",
							"type": "uint256"
						},
						{
							"indexed": false,
							"internalType": "enum Service.Status",
							"name": "statusBefore",
							"type": "uint8"
						},
						{
							"indexed": false,
							"internalType": "enum Service.Status",
							"name": "statusAfter",
							"type": "uint8"
						}
					],
					"name": "serviceStatusChanged",
					"type": "event"
				},
				{
					"inputs": [
						{
							"internalType": "uint256",
							"name": "serviceNumber",
							"type": "uint256"
						}
					],
					"name": "deleteService",
					"outputs": [],
					"stateMutability": "nonpayable",
					"type": "function"
				},
				{
					"inputs": [],
					"name": "numService",
					"outputs": [
						{
							"internalType": "uint256",
							"name": "",
							"type": "uint256"
						}
					],
					"stateMutability": "view",
					"type": "function"
				},
				{
					"inputs": [
						{
							"internalType": "string",
							"name": "title",
							"type": "string"
						},
						{
							"internalType": "string",
							"name": "description",
							"type": "string"
						},
						{
							"internalType": "uint256",
							"name": "price",
							"type": "uint256"
						}
					],
					"name": "requestService",
					"outputs": [
						{
							"internalType": "uint256",
							"name": "",
							"type": "uint256"
						}
					],
					"stateMutability": "nonpayable",
					"type": "function"
				}
			],
			"devdoc": {
				"kind": "dev",
				"methods": {},
				"version": 1
			},
			"evm": {
				"assembly": "    /* \"contracts/Service.sol\":145:3610  contract Service {... */\n  mstore(0x40, 0x80)\n    /* \"contracts/Service.sol\":1477:1478  0 */\n  0x00\n    /* \"contracts/Service.sol\":1449:1478  uint256 public numService = 0 */\n  0x02\n  sstore\n    /* \"contracts/Service.sol\":195:277  constructor (Milestone milestone) public {... */\n  callvalue\n  dup1\n  iszero\n  tag_1\n  jumpi\n  0x00\n  dup1\n  revert\ntag_1:\n  pop\n  mload(0x40)\n  sub(codesize, bytecodeSize)\n  dup1\n  bytecodeSize\n  dup4\n  codecopy\n  dup2\n  dup2\n  add\n  0x40\n  mstore\n  dup2\n  add\n  swap1\n  tag_2\n  swap2\n  swap1\n  tag_3\n  jump\t// in\ntag_2:\n  pop\n    /* \"contracts/Service.sol\":145:3610  contract Service {... */\n  jump(tag_6)\n    /* \"#utility.yul\":7:184   */\ntag_8:\n    /* \"#utility.yul\":81:86   */\n  0x00\n    /* \"#utility.yul\":112:118   */\n  dup2\n    /* \"#utility.yul\":106:119   */\n  mload\n    /* \"#utility.yul\":97:119   */\n  swap1\n  pop\n    /* \"#utility.yul\":128:178   */\n  tag_10\n    /* \"#utility.yul\":172:177   */\n  dup2\n    /* \"#utility.yul\":128:178   */\n  tag_11\n  jump\t// in\ntag_10:\n    /* \"#utility.yul\":7:184   */\n  swap3\n  swap2\n  pop\n  pop\n  jump\t// out\n    /* \"#utility.yul\":190:575   */\ntag_3:\n    /* \"#utility.yul\":277:283   */\n  0x00\n    /* \"#utility.yul\":326:328   */\n  0x20\n    /* \"#utility.yul\":314:323   */\n  dup3\n    /* \"#utility.yul\":305:312   */\n  dup5\n    /* \"#utility.yul\":301:324   */\n  sub\n    /* \"#utility.yul\":297:329   */\n  slt\n    /* \"#utility.yul\":294:413   */\n  iszero\n  tag_13\n  jumpi\n    /* \"#utility.yul\":332:411   */\n  tag_14\n  tag_15\n  jump\t// in\ntag_14:\n    /* \"#utility.yul\":294:413   */\ntag_13:\n    /* \"#utility.yul\":452:453   */\n  0x00\n    /* \"#utility.yul\":477:558   */\n  tag_16\n    /* \"#utility.yul\":550:557   */\n  dup5\n    /* \"#utility.yul\":541:547   */\n  dup3\n    /* \"#utility.yul\":530:539   */\n  dup6\n    /* \"#utility.yul\":526:548   */\n  add\n    /* \"#utility.yul\":477:558   */\n  tag_8\n  jump\t// in\ntag_16:\n    /* \"#utility.yul\":467:558   */\n  swap2\n  pop\n    /* \"#utility.yul\":423:568   */\n  pop\n    /* \"#utility.yul\":190:575   */\n  swap3\n  swap2\n  pop\n  pop\n  jump\t// out\n    /* \"#utility.yul\":662:758   */\ntag_19:\n    /* \"#utility.yul\":699:706   */\n  0x00\n    /* \"#utility.yul\":728:752   */\n  tag_21\n    /* \"#utility.yul\":746:751   */\n  dup3\n    /* \"#utility.yul\":728:752   */\n  tag_22\n  jump\t// in\ntag_21:\n    /* \"#utility.yul\":717:752   */\n  swap1\n  pop\n    /* \"#utility.yul\":662:758   */\n  swap2\n  swap1\n  pop\n  jump\t// out\n    /* \"#utility.yul\":764:877   */\ntag_23:\n    /* \"#utility.yul\":818:825   */\n  0x00\n    /* \"#utility.yul\":847:871   */\n  tag_25\n    /* \"#utility.yul\":865:870   */\n  dup3\n    /* \"#utility.yul\":847:871   */\n  tag_19\n  jump\t// in\ntag_25:\n    /* \"#utility.yul\":836:871   */\n  swap1\n  pop\n    /* \"#utility.yul\":764:877   */\n  swap2\n  swap1\n  pop\n  jump\t// out\n    /* \"#utility.yul\":883:1009   */\ntag_22:\n    /* \"#utility.yul\":920:927   */\n  0x00\n    /* \"#utility.yul\":960:1002   */\n  0xffffffffffffffffffffffffffffffffffffffff\n    /* \"#utility.yul\":953:958   */\n  dup3\n    /* \"#utility.yul\":949:1003   */\n  and\n    /* \"#utility.yul\":938:1003   */\n  swap1\n  pop\n    /* \"#utility.yul\":883:1009   */\n  swap2\n  swap1\n  pop\n  jump\t// out\n    /* \"#utility.yul\":1138:1255   */\ntag_15:\n    /* \"#utility.yul\":1247:1248   */\n  0x00\n    /* \"#utility.yul\":1244:1245   */\n  dup1\n    /* \"#utility.yul\":1237:1249   */\n  revert\n    /* \"#utility.yul\":1261:1417   */\ntag_11:\n    /* \"#utility.yul\":1351:1392   */\n  tag_31\n    /* \"#utility.yul\":1386:1391   */\n  dup2\n    /* \"#utility.yul\":1351:1392   */\n  tag_23\n  jump\t// in\ntag_31:\n    /* \"#utility.yul\":1344:1349   */\n  dup2\n    /* \"#utility.yul\":1341:1393   */\n  eq\n    /* \"#utility.yul\":1331:1411   */\n  tag_32\n  jumpi\n    /* \"#utility.yul\":1407:1408   */\n  0x00\n    /* \"#utility.yul\":1404:1405   */\n  dup1\n    /* \"#utility.yul\":1397:1409   */\n  revert\n    /* \"#utility.yul\":1331:1411   */\ntag_32:\n    /* \"#utility.yul\":1261:1417   */\n  pop\n  jump\t// out\n    /* \"contracts/Service.sol\":145:3610  contract Service {... */\ntag_6:\n  dataSize(sub_0)\n  dup1\n  dataOffset(sub_0)\n  0x00\n  codecopy\n  0x00\n  return\nstop\n\nsub_0: assembly {\n        /* \"contracts/Service.sol\":145:3610  contract Service {... */\n      mstore(0x40, 0x80)\n      callvalue\n      dup1\n      iszero\n      tag_1\n      jumpi\n      0x00\n      dup1\n      revert\n    tag_1:\n      pop\n      jumpi(tag_2, lt(calldatasize, 0x04))\n      shr(0xe0, calldataload(0x00))\n      dup1\n      0x74e29ee6\n      eq\n      tag_3\n      jumpi\n      dup1\n      0x854c4707\n      eq\n      tag_4\n      jumpi\n      dup1\n      0xe9ed56a5\n      eq\n      tag_5\n      jumpi\n    tag_2:\n      0x00\n      dup1\n      revert\n        /* \"contracts/Service.sol\":3125:3608  function deleteService(uint256 serviceNumber) public ... */\n    tag_3:\n      tag_6\n      0x04\n      dup1\n      calldatasize\n      sub\n      dup2\n      add\n      swap1\n      tag_7\n      swap2\n      swap1\n      tag_8\n      jump\t// in\n    tag_7:\n      tag_9\n      jump\t// in\n    tag_6:\n      stop\n        /* \"contracts/Service.sol\":1449:1478  uint256 public numService = 0 */\n    tag_4:\n      tag_10\n      tag_11\n      jump\t// in\n    tag_10:\n      mload(0x40)\n      tag_12\n      swap2\n      swap1\n      tag_13\n      jump\t// in\n    tag_12:\n      mload(0x40)\n      dup1\n      swap2\n      sub\n      swap1\n      return\n        /* \"contracts/Service.sol\":2384:3082  function requestService(string memory title, string memory description, uint256 price) public requiredString(title) requiredString(description) returns (uint256) {        ... */\n    tag_5:\n      tag_14\n      0x04\n      dup1\n      calldatasize\n      sub\n      dup2\n      add\n      swap1\n      tag_15\n      swap2\n      swap1\n      tag_16\n      jump\t// in\n    tag_15:\n      tag_17\n      jump\t// in\n    tag_14:\n      mload(0x40)\n      tag_18\n      swap2\n      swap1\n      tag_13\n      jump\t// in\n    tag_18:\n      mload(0x40)\n      dup1\n      swap2\n      sub\n      swap1\n      return\n        /* \"contracts/Service.sol\":3125:3608  function deleteService(uint256 serviceNumber) public ... */\n    tag_9:\n        /* \"contracts/Service.sol\":3211:3224  serviceNumber */\n      dup1\n        /* \"contracts/Service.sol\":1778:1786  services */\n      0x01\n        /* \"contracts/Service.sol\":1778:1801  services[serviceNumber] */\n      0x00\n        /* \"contracts/Service.sol\":1787:1800  serviceNumber */\n      dup3\n        /* \"contracts/Service.sol\":1778:1801  services[serviceNumber] */\n      dup2\n      mstore\n      0x20\n      add\n      swap1\n      dup2\n      mstore\n      0x20\n      add\n      0x00\n      keccak256\n        /* \"contracts/Service.sol\":1778:1817  services[serviceNumber].serviceProvider */\n      0x06\n      add\n      0x00\n      swap1\n      sload\n      swap1\n      0x0100\n      exp\n      swap1\n      div\n      0xffffffffffffffffffffffffffffffffffffffff\n      and\n        /* \"contracts/Service.sol\":1764:1817  msg.sender == services[serviceNumber].serviceProvider */\n      0xffffffffffffffffffffffffffffffffffffffff\n      and\n        /* \"contracts/Service.sol\":1764:1774  msg.sender */\n      caller\n        /* \"contracts/Service.sol\":1764:1817  msg.sender == services[serviceNumber].serviceProvider */\n      0xffffffffffffffffffffffffffffffffffffffff\n      and\n      eq\n        /* \"contracts/Service.sol\":1756:1886  require(msg.sender == services[serviceNumber].serviceProvider, \"Unauthorised access to service, only service provider can access\") */\n      tag_20\n      jumpi\n      mload(0x40)\n      0x08c379a000000000000000000000000000000000000000000000000000000000\n      dup2\n      mstore\n      0x04\n      add\n      tag_21\n      swap1\n      tag_22\n      jump\t// in\n    tag_21:\n      mload(0x40)\n      dup1\n      swap2\n      sub\n      swap1\n      revert\n    tag_20:\n        /* \"contracts/Service.sol\":3320:3333  serviceNumber */\n      dup2\n        /* \"contracts/Service.sol\":2007:2011  true */\n      0x01\n        /* \"contracts/Service.sol\":1974:2011  services[serviceNumber].exist == true */\n      iszero\n      iszero\n        /* \"contracts/Service.sol\":1974:1982  services */\n      0x01\n        /* \"contracts/Service.sol\":1974:1997  services[serviceNumber] */\n      0x00\n        /* \"contracts/Service.sol\":1983:1996  serviceNumber */\n      dup4\n        /* \"contracts/Service.sol\":1974:1997  services[serviceNumber] */\n      dup2\n      mstore\n      0x20\n      add\n      swap1\n      dup2\n      mstore\n      0x20\n      add\n      0x00\n      keccak256\n        /* \"contracts/Service.sol\":1974:2003  services[serviceNumber].exist */\n      0x07\n      add\n      0x14\n      swap1\n      sload\n      swap1\n      0x0100\n      exp\n      swap1\n      div\n      0xff\n      and\n        /* \"contracts/Service.sol\":1974:2011  services[serviceNumber].exist == true */\n      iszero\n      iszero\n      eq\n        /* \"contracts/Service.sol\":1966:2072  require(services[serviceNumber].exist == true, \"This service has been deleted and does not exist anymore\") */\n      tag_24\n      jumpi\n      mload(0x40)\n      0x08c379a000000000000000000000000000000000000000000000000000000000\n      dup2\n      mstore\n      0x04\n      add\n      tag_25\n      swap1\n      tag_26\n      jump\t// in\n    tag_25:\n      mload(0x40)\n      dup1\n      swap2\n      sub\n      swap1\n      revert\n    tag_24:\n        /* \"contracts/Service.sol\":3424:3437  serviceNumber */\n      dup3\n        /* \"contracts/Service.sol\":3439:3450  Status.none */\n      0x00\n        /* \"contracts/Service.sol\":2211:2216  state */\n      dup1\n        /* \"contracts/Service.sol\":2177:2216  services[serviceNumber].status == state */\n      0x05\n      dup2\n      gt\n      iszero\n      tag_28\n      jumpi\n      tag_29\n      tag_30\n      jump\t// in\n    tag_29:\n    tag_28:\n        /* \"contracts/Service.sol\":2177:2185  services */\n      0x01\n        /* \"contracts/Service.sol\":2177:2200  services[serviceNumber] */\n      0x00\n        /* \"contracts/Service.sol\":2186:2199  serviceNumber */\n      dup5\n        /* \"contracts/Service.sol\":2177:2200  services[serviceNumber] */\n      dup2\n      mstore\n      0x20\n      add\n      swap1\n      dup2\n      mstore\n      0x20\n      add\n      0x00\n      keccak256\n        /* \"contracts/Service.sol\":2177:2207  services[serviceNumber].status */\n      0x07\n      add\n      0x15\n      swap1\n      sload\n      swap1\n      0x0100\n      exp\n      swap1\n      div\n      0xff\n      and\n        /* \"contracts/Service.sol\":2177:2216  services[serviceNumber].status == state */\n      0x05\n      dup2\n      gt\n      iszero\n      tag_31\n      jumpi\n      tag_32\n      tag_30\n      jump\t// in\n    tag_32:\n    tag_31:\n      eq\n        /* \"contracts/Service.sol\":2169:2283  require(services[serviceNumber].status == state, \"The status of this service does not match the intended status.\") */\n      tag_33\n      jumpi\n      mload(0x40)\n      0x08c379a000000000000000000000000000000000000000000000000000000000\n      dup2\n      mstore\n      0x04\n      add\n      tag_34\n      swap1\n      tag_35\n      jump\t// in\n    tag_34:\n      mload(0x40)\n      dup1\n      swap2\n      sub\n      swap1\n      revert\n    tag_33:\n        /* \"contracts/Service.sol\":3552:3557  false */\n      0x00\n        /* \"contracts/Service.sol\":3520:3528  services */\n      0x01\n        /* \"contracts/Service.sol\":3520:3543  services[serviceNumber] */\n      0x00\n        /* \"contracts/Service.sol\":3529:3542  serviceNumber */\n      dup8\n        /* \"contracts/Service.sol\":3520:3543  services[serviceNumber] */\n      dup2\n      mstore\n      0x20\n      add\n      swap1\n      dup2\n      mstore\n      0x20\n      add\n      0x00\n      keccak256\n        /* \"contracts/Service.sol\":3520:3549  services[serviceNumber].exist */\n      0x07\n      add\n      0x14\n        /* \"contracts/Service.sol\":3520:3557  services[serviceNumber].exist = false */\n      0x0100\n      exp\n      dup2\n      sload\n      dup2\n      0xff\n      mul\n      not\n      and\n      swap1\n      dup4\n      iszero\n      iszero\n      mul\n      or\n      swap1\n      sstore\n      pop\n        /* \"contracts/Service.sol\":3572:3601  serviceDeleted(serviceNumber) */\n      0x6694ca203a0738585d2b2d17b211195dfb43e09eb19ac1f2c3a59c168e135872\n        /* \"contracts/Service.sol\":3587:3600  serviceNumber */\n      dup6\n        /* \"contracts/Service.sol\":3572:3601  serviceDeleted(serviceNumber) */\n      mload(0x40)\n      tag_37\n      swap2\n      swap1\n      tag_13\n      jump\t// in\n    tag_37:\n      mload(0x40)\n      dup1\n      swap2\n      sub\n      swap1\n      log1\n        /* \"contracts/Service.sol\":2082:2083  _ */\n      pop\n      pop\n        /* \"contracts/Service.sol\":1896:1897  _ */\n      pop\n        /* \"contracts/Service.sol\":3125:3608  function deleteService(uint256 serviceNumber) public ... */\n      pop\n      pop\n      jump\t// out\n        /* \"contracts/Service.sol\":1449:1478  uint256 public numService = 0 */\n    tag_11:\n      sload(0x02)\n      dup2\n      jump\t// out\n        /* \"contracts/Service.sol\":2384:3082  function requestService(string memory title, string memory description, uint256 price) public requiredString(title) requiredString(description) returns (uint256) {        ... */\n    tag_17:\n        /* \"contracts/Service.sol\":2537:2544  uint256 */\n      0x00\n        /* \"contracts/Service.sol\":2493:2498  title */\n      dup4\n        /* \"contracts/Service.sol\":1587:1588  0 */\n      0x00\n        /* \"contracts/Service.sol\":1573:1576  str */\n      dup2\n        /* \"contracts/Service.sol\":1567:1584  bytes(str).length */\n      mload\n        /* \"contracts/Service.sol\":1567:1588  bytes(str).length > 0 */\n      gt\n        /* \"contracts/Service.sol\":1559:1614  require(bytes(str).length > 0, \"A string is required!\") */\n      tag_39\n      jumpi\n      mload(0x40)\n      0x08c379a000000000000000000000000000000000000000000000000000000000\n      dup2\n      mstore\n      0x04\n      add\n      tag_40\n      swap1\n      tag_41\n      jump\t// in\n    tag_40:\n      mload(0x40)\n      dup1\n      swap2\n      sub\n      swap1\n      revert\n    tag_39:\n        /* \"contracts/Service.sol\":2515:2526  description */\n      dup4\n        /* \"contracts/Service.sol\":1587:1588  0 */\n      0x00\n        /* \"contracts/Service.sol\":1573:1576  str */\n      dup2\n        /* \"contracts/Service.sol\":1567:1584  bytes(str).length */\n      mload\n        /* \"contracts/Service.sol\":1567:1588  bytes(str).length > 0 */\n      gt\n        /* \"contracts/Service.sol\":1559:1614  require(bytes(str).length > 0, \"A string is required!\") */\n      tag_43\n      jumpi\n      mload(0x40)\n      0x08c379a000000000000000000000000000000000000000000000000000000000\n      dup2\n      mstore\n      0x04\n      add\n      tag_44\n      swap1\n      tag_41\n      jump\t// in\n    tag_44:\n      mload(0x40)\n      dup1\n      swap2\n      sub\n      swap1\n      revert\n    tag_43:\n        /* \"contracts/Service.sol\":2580:2581  0 */\n      0x00\n        /* \"contracts/Service.sol\":2572:2577  price */\n      dup5\n        /* \"contracts/Service.sol\":2572:2581  price > 0 */\n      gt\n        /* \"contracts/Service.sol\":2564:2619  require(price > 0, \"A Service Price must be specified\") */\n      tag_46\n      jumpi\n      mload(0x40)\n      0x08c379a000000000000000000000000000000000000000000000000000000000\n      dup2\n      mstore\n      0x04\n      add\n      tag_47\n      swap1\n      tag_48\n      jump\t// in\n    tag_47:\n      mload(0x40)\n      dup1\n      swap2\n      sub\n      swap1\n      revert\n    tag_46:\n        /* \"contracts/Service.sol\":2630:2656  service storage newService */\n      0x00\n        /* \"contracts/Service.sol\":2659:2667  services */\n      0x01\n        /* \"contracts/Service.sol\":2659:2679  services[numService] */\n      0x00\n        /* \"contracts/Service.sol\":2668:2678  numService */\n      sload(0x02)\n        /* \"contracts/Service.sol\":2659:2679  services[numService] */\n      dup2\n      mstore\n      0x20\n      add\n      swap1\n      dup2\n      mstore\n      0x20\n      add\n      0x00\n      keccak256\n        /* \"contracts/Service.sol\":2630:2679  service storage newService = services[numService] */\n      swap1\n      pop\n        /* \"contracts/Service.sol\":2708:2713  title */\n      dup7\n        /* \"contracts/Service.sol\":2689:2699  newService */\n      dup2\n        /* \"contracts/Service.sol\":2689:2705  newService.title */\n      0x01\n      add\n        /* \"contracts/Service.sol\":2689:2713  newService.title = title */\n      swap1\n      dup1\n      mload\n      swap1\n      0x20\n      add\n      swap1\n      tag_49\n      swap3\n      swap2\n      swap1\n      tag_50\n      jump\t// in\n    tag_49:\n      pop\n        /* \"contracts/Service.sol\":2748:2759  description */\n      dup6\n        /* \"contracts/Service.sol\":2723:2733  newService */\n      dup2\n        /* \"contracts/Service.sol\":2723:2745  newService.description */\n      0x02\n      add\n        /* \"contracts/Service.sol\":2723:2759  newService.description = description */\n      swap1\n      dup1\n      mload\n      swap1\n      0x20\n      add\n      swap1\n      tag_51\n      swap3\n      swap2\n      swap1\n      tag_50\n      jump\t// in\n    tag_51:\n      pop\n        /* \"contracts/Service.sol\":2788:2793  price */\n      dup5\n        /* \"contracts/Service.sol\":2769:2779  newService */\n      dup2\n        /* \"contracts/Service.sol\":2769:2785  newService.price */\n      0x03\n      add\n        /* \"contracts/Service.sol\":2769:2793  newService.price = price */\n      dup2\n      swap1\n      sstore\n      pop\n        /* \"contracts/Service.sol\":2830:2840  numService */\n      sload(0x02)\n        /* \"contracts/Service.sol\":2803:2813  newService */\n      dup2\n        /* \"contracts/Service.sol\":2803:2827  newService.serviceNumber */\n      0x05\n      add\n        /* \"contracts/Service.sol\":2803:2840  newService.serviceNumber = numService */\n      dup2\n      swap1\n      sstore\n      pop\n        /* \"contracts/Service.sol\":2879:2889  msg.sender */\n      caller\n        /* \"contracts/Service.sol\":2850:2860  newService */\n      dup2\n        /* \"contracts/Service.sol\":2850:2876  newService.serviceProvider */\n      0x06\n      add\n      0x00\n        /* \"contracts/Service.sol\":2850:2889  newService.serviceProvider = msg.sender */\n      0x0100\n      exp\n      dup2\n      sload\n      dup2\n      0xffffffffffffffffffffffffffffffffffffffff\n      mul\n      not\n      and\n      swap1\n      dup4\n      0xffffffffffffffffffffffffffffffffffffffff\n      and\n      mul\n      or\n      swap1\n      sstore\n      pop\n        /* \"contracts/Service.sol\":2918:2922  true */\n      0x01\n        /* \"contracts/Service.sol\":2899:2909  newService */\n      dup2\n        /* \"contracts/Service.sol\":2899:2915  newService.exist */\n      0x07\n      add\n      0x14\n        /* \"contracts/Service.sol\":2899:2922  newService.exist = true */\n      0x0100\n      exp\n      dup2\n      sload\n      dup2\n      0xff\n      mul\n      not\n      and\n      swap1\n      dup4\n      iszero\n      iszero\n      mul\n      or\n      swap1\n      sstore\n      pop\n        /* \"contracts/Service.sol\":2952:2963  Status.none */\n      0x00\n        /* \"contracts/Service.sol\":2932:2942  newService */\n      dup2\n        /* \"contracts/Service.sol\":2932:2949  newService.status */\n      0x07\n      add\n      0x15\n        /* \"contracts/Service.sol\":2932:2963  newService.status = Status.none */\n      0x0100\n      exp\n      dup2\n      sload\n      dup2\n      0xff\n      mul\n      not\n      and\n      swap1\n      dup4\n      0x05\n      dup2\n      gt\n      iszero\n      tag_52\n      jumpi\n      tag_53\n      tag_30\n      jump\t// in\n    tag_53:\n    tag_52:\n      mul\n      or\n      swap1\n      sstore\n      pop\n        /* \"contracts/Service.sol\":2979:3017  serviceCreated(numService, newService) */\n      0x758e44eab201e6a5cd91575a09b546834ec55366c96d92cbf24ad0049aee3de5\n        /* \"contracts/Service.sol\":2994:3004  numService */\n      sload(0x02)\n        /* \"contracts/Service.sol\":3006:3016  newService */\n      dup3\n        /* \"contracts/Service.sol\":2979:3017  serviceCreated(numService, newService) */\n      mload(0x40)\n      tag_54\n      swap3\n      swap2\n      swap1\n      tag_55\n      jump\t// in\n    tag_54:\n      mload(0x40)\n      dup1\n      swap2\n      sub\n      swap1\n      log1\n        /* \"contracts/Service.sol\":3027:3037  numService */\n      0x02\n      0x00\n        /* \"contracts/Service.sol\":3027:3039  numService++ */\n      dup2\n      sload\n      dup1\n      swap3\n      swap2\n      swap1\n      tag_56\n      swap1\n      tag_57\n      jump\t// in\n    tag_56:\n      swap2\n      swap1\n      pop\n      sstore\n      pop\n        /* \"contracts/Service.sol\":3065:3075  numService */\n      sload(0x02)\n        /* \"contracts/Service.sol\":3058:3075  return numService */\n      swap4\n      pop\n      pop\n        /* \"contracts/Service.sol\":1624:1625  _ */\n      pop\n        /* \"contracts/Service.sol\":2384:3082  function requestService(string memory title, string memory description, uint256 price) public requiredString(title) requiredString(description) returns (uint256) {        ... */\n      pop\n      swap4\n      swap3\n      pop\n      pop\n      pop\n      jump\t// out\n    tag_50:\n      dup3\n      dup1\n      sload\n      tag_58\n      swap1\n      tag_59\n      jump\t// in\n    tag_58:\n      swap1\n      0x00\n      mstore\n      keccak256(0x00, 0x20)\n      swap1\n      0x1f\n      add\n      0x20\n      swap1\n      div\n      dup2\n      add\n      swap3\n      dup3\n      tag_61\n      jumpi\n      0x00\n      dup6\n      sstore\n      jump(tag_60)\n    tag_61:\n      dup3\n      0x1f\n      lt\n      tag_62\n      jumpi\n      dup1\n      mload\n      not(0xff)\n      and\n      dup4\n      dup1\n      add\n      or\n      dup6\n      sstore\n      jump(tag_60)\n    tag_62:\n      dup3\n      dup1\n      add\n      0x01\n      add\n      dup6\n      sstore\n      dup3\n      iszero\n      tag_60\n      jumpi\n      swap2\n      dup3\n      add\n    tag_63:\n      dup3\n      dup2\n      gt\n      iszero\n      tag_64\n      jumpi\n      dup3\n      mload\n      dup3\n      sstore\n      swap2\n      0x20\n      add\n      swap2\n      swap1\n      0x01\n      add\n      swap1\n      jump(tag_63)\n    tag_64:\n    tag_60:\n      pop\n      swap1\n      pop\n      tag_65\n      swap2\n      swap1\n      tag_66\n      jump\t// in\n    tag_65:\n      pop\n      swap1\n      jump\t// out\n    tag_66:\n    tag_67:\n      dup1\n      dup3\n      gt\n      iszero\n      tag_68\n      jumpi\n      0x00\n      dup2\n      0x00\n      swap1\n      sstore\n      pop\n      0x01\n      add\n      jump(tag_67)\n    tag_68:\n      pop\n      swap1\n      jump\t// out\n        /* \"#utility.yul\":7:419   */\n    tag_70:\n        /* \"#utility.yul\":85:90   */\n      0x00\n        /* \"#utility.yul\":110:176   */\n      tag_72\n        /* \"#utility.yul\":126:175   */\n      tag_73\n        /* \"#utility.yul\":168:174   */\n      dup5\n        /* \"#utility.yul\":126:175   */\n      tag_74\n      jump\t// in\n    tag_73:\n        /* \"#utility.yul\":110:176   */\n      tag_75\n      jump\t// in\n    tag_72:\n        /* \"#utility.yul\":101:176   */\n      swap1\n      pop\n        /* \"#utility.yul\":199:205   */\n      dup3\n        /* \"#utility.yul\":192:197   */\n      dup2\n        /* \"#utility.yul\":185:206   */\n      mstore\n        /* \"#utility.yul\":237:241   */\n      0x20\n        /* \"#utility.yul\":230:235   */\n      dup2\n        /* \"#utility.yul\":226:242   */\n      add\n        /* \"#utility.yul\":275:278   */\n      dup5\n        /* \"#utility.yul\":266:272   */\n      dup5\n        /* \"#utility.yul\":261:264   */\n      dup5\n        /* \"#utility.yul\":257:273   */\n      add\n        /* \"#utility.yul\":254:279   */\n      gt\n        /* \"#utility.yul\":251:363   */\n      iszero\n      tag_76\n      jumpi\n        /* \"#utility.yul\":282:361   */\n      tag_77\n      tag_78\n      jump\t// in\n    tag_77:\n        /* \"#utility.yul\":251:363   */\n    tag_76:\n        /* \"#utility.yul\":372:413   */\n      tag_79\n        /* \"#utility.yul\":406:412   */\n      dup5\n        /* \"#utility.yul\":401:404   */\n      dup3\n        /* \"#utility.yul\":396:399   */\n      dup6\n        /* \"#utility.yul\":372:413   */\n      tag_80\n      jump\t// in\n    tag_79:\n        /* \"#utility.yul\":91:419   */\n      pop\n        /* \"#utility.yul\":7:419   */\n      swap4\n      swap3\n      pop\n      pop\n      pop\n      jump\t// out\n        /* \"#utility.yul\":439:779   */\n    tag_81:\n        /* \"#utility.yul\":495:500   */\n      0x00\n        /* \"#utility.yul\":544:547   */\n      dup3\n        /* \"#utility.yul\":537:541   */\n      0x1f\n        /* \"#utility.yul\":529:535   */\n      dup4\n        /* \"#utility.yul\":525:542   */\n      add\n        /* \"#utility.yul\":521:548   */\n      slt\n        /* \"#utility.yul\":511:633   */\n      tag_83\n      jumpi\n        /* \"#utility.yul\":552:631   */\n      tag_84\n      tag_85\n      jump\t// in\n    tag_84:\n        /* \"#utility.yul\":511:633   */\n    tag_83:\n        /* \"#utility.yul\":669:675   */\n      dup2\n        /* \"#utility.yul\":656:676   */\n      calldataload\n        /* \"#utility.yul\":694:773   */\n      tag_86\n        /* \"#utility.yul\":769:772   */\n      dup5\n        /* \"#utility.yul\":761:767   */\n      dup3\n        /* \"#utility.yul\":754:758   */\n      0x20\n        /* \"#utility.yul\":746:752   */\n      dup7\n        /* \"#utility.yul\":742:759   */\n      add\n        /* \"#utility.yul\":694:773   */\n      tag_70\n      jump\t// in\n    tag_86:\n        /* \"#utility.yul\":685:773   */\n      swap2\n      pop\n        /* \"#utility.yul\":501:779   */\n      pop\n        /* \"#utility.yul\":439:779   */\n      swap3\n      swap2\n      pop\n      pop\n      jump\t// out\n        /* \"#utility.yul\":785:924   */\n    tag_87:\n        /* \"#utility.yul\":831:836   */\n      0x00\n        /* \"#utility.yul\":869:875   */\n      dup2\n        /* \"#utility.yul\":856:876   */\n      calldataload\n        /* \"#utility.yul\":847:876   */\n      swap1\n      pop\n        /* \"#utility.yul\":885:918   */\n      tag_89\n        /* \"#utility.yul\":912:917   */\n      dup2\n        /* \"#utility.yul\":885:918   */\n      tag_90\n      jump\t// in\n    tag_89:\n        /* \"#utility.yul\":785:924   */\n      swap3\n      swap2\n      pop\n      pop\n      jump\t// out\n        /* \"#utility.yul\":930:1909   */\n    tag_16:\n        /* \"#utility.yul\":1027:1033   */\n      0x00\n        /* \"#utility.yul\":1035:1041   */\n      dup1\n        /* \"#utility.yul\":1043:1049   */\n      0x00\n        /* \"#utility.yul\":1092:1094   */\n      0x60\n        /* \"#utility.yul\":1080:1089   */\n      dup5\n        /* \"#utility.yul\":1071:1078   */\n      dup7\n        /* \"#utility.yul\":1067:1090   */\n      sub\n        /* \"#utility.yul\":1063:1095   */\n      slt\n        /* \"#utility.yul\":1060:1179   */\n      iszero\n      tag_92\n      jumpi\n        /* \"#utility.yul\":1098:1177   */\n      tag_93\n      tag_94\n      jump\t// in\n    tag_93:\n        /* \"#utility.yul\":1060:1179   */\n    tag_92:\n        /* \"#utility.yul\":1246:1247   */\n      0x00\n        /* \"#utility.yul\":1235:1244   */\n      dup5\n        /* \"#utility.yul\":1231:1248   */\n      add\n        /* \"#utility.yul\":1218:1249   */\n      calldataload\n        /* \"#utility.yul\":1276:1294   */\n      0xffffffffffffffff\n        /* \"#utility.yul\":1268:1274   */\n      dup2\n        /* \"#utility.yul\":1265:1295   */\n      gt\n        /* \"#utility.yul\":1262:1379   */\n      iszero\n      tag_95\n      jumpi\n        /* \"#utility.yul\":1298:1377   */\n      tag_96\n      tag_97\n      jump\t// in\n    tag_96:\n        /* \"#utility.yul\":1262:1379   */\n    tag_95:\n        /* \"#utility.yul\":1403:1466   */\n      tag_98\n        /* \"#utility.yul\":1458:1465   */\n      dup7\n        /* \"#utility.yul\":1449:1455   */\n      dup3\n        /* \"#utility.yul\":1438:1447   */\n      dup8\n        /* \"#utility.yul\":1434:1456   */\n      add\n        /* \"#utility.yul\":1403:1466   */\n      tag_81\n      jump\t// in\n    tag_98:\n        /* \"#utility.yul\":1393:1466   */\n      swap4\n      pop\n        /* \"#utility.yul\":1189:1476   */\n      pop\n        /* \"#utility.yul\":1543:1545   */\n      0x20\n        /* \"#utility.yul\":1532:1541   */\n      dup5\n        /* \"#utility.yul\":1528:1546   */\n      add\n        /* \"#utility.yul\":1515:1547   */\n      calldataload\n        /* \"#utility.yul\":1574:1592   */\n      0xffffffffffffffff\n        /* \"#utility.yul\":1566:1572   */\n      dup2\n        /* \"#utility.yul\":1563:1593   */\n      gt\n        /* \"#utility.yul\":1560:1677   */\n      iszero\n      tag_99\n      jumpi\n        /* \"#utility.yul\":1596:1675   */\n      tag_100\n      tag_97\n      jump\t// in\n    tag_100:\n        /* \"#utility.yul\":1560:1677   */\n    tag_99:\n        /* \"#utility.yul\":1701:1764   */\n      tag_101\n        /* \"#utility.yul\":1756:1763   */\n      dup7\n        /* \"#utility.yul\":1747:1753   */\n      dup3\n        /* \"#utility.yul\":1736:1745   */\n      dup8\n        /* \"#utility.yul\":1732:1754   */\n      add\n        /* \"#utility.yul\":1701:1764   */\n      tag_81\n      jump\t// in\n    tag_101:\n        /* \"#utility.yul\":1691:1764   */\n      swap3\n      pop\n        /* \"#utility.yul\":1486:1774   */\n      pop\n        /* \"#utility.yul\":1813:1815   */\n      0x40\n        /* \"#utility.yul\":1839:1892   */\n      tag_102\n        /* \"#utility.yul\":1884:1891   */\n      dup7\n        /* \"#utility.yul\":1875:1881   */\n      dup3\n        /* \"#utility.yul\":1864:1873   */\n      dup8\n        /* \"#utility.yul\":1860:1882   */\n      add\n        /* \"#utility.yul\":1839:1892   */\n      tag_87\n      jump\t// in\n    tag_102:\n        /* \"#utility.yul\":1829:1892   */\n      swap2\n      pop\n        /* \"#utility.yul\":1784:1902   */\n      pop\n        /* \"#utility.yul\":930:1909   */\n      swap3\n      pop\n      swap3\n      pop\n      swap3\n      jump\t// out\n        /* \"#utility.yul\":1915:2244   */\n    tag_8:\n        /* \"#utility.yul\":1974:1980   */\n      0x00\n        /* \"#utility.yul\":2023:2025   */\n      0x20\n        /* \"#utility.yul\":2011:2020   */\n      dup3\n        /* \"#utility.yul\":2002:2009   */\n      dup5\n        /* \"#utility.yul\":1998:2021   */\n      sub\n        /* \"#utility.yul\":1994:2026   */\n      slt\n        /* \"#utility.yul\":1991:2110   */\n      iszero\n      tag_104\n      jumpi\n        /* \"#utility.yul\":2029:2108   */\n      tag_105\n      tag_94\n      jump\t// in\n    tag_105:\n        /* \"#utility.yul\":1991:2110   */\n    tag_104:\n        /* \"#utility.yul\":2149:2150   */\n      0x00\n        /* \"#utility.yul\":2174:2227   */\n      tag_106\n        /* \"#utility.yul\":2219:2226   */\n      dup5\n        /* \"#utility.yul\":2210:2216   */\n      dup3\n        /* \"#utility.yul\":2199:2208   */\n      dup6\n        /* \"#utility.yul\":2195:2217   */\n      add\n        /* \"#utility.yul\":2174:2227   */\n      tag_87\n      jump\t// in\n    tag_106:\n        /* \"#utility.yul\":2164:2227   */\n      swap2\n      pop\n        /* \"#utility.yul\":2120:2237   */\n      pop\n        /* \"#utility.yul\":1915:2244   */\n      swap3\n      swap2\n      pop\n      pop\n      jump\t// out\n        /* \"#utility.yul\":2250:2358   */\n    tag_107:\n        /* \"#utility.yul\":2327:2351   */\n      tag_109\n        /* \"#utility.yul\":2345:2350   */\n      dup2\n        /* \"#utility.yul\":2327:2351   */\n      tag_110\n      jump\t// in\n    tag_109:\n        /* \"#utility.yul\":2322:2325   */\n      dup3\n        /* \"#utility.yul\":2315:2352   */\n      mstore\n        /* \"#utility.yul\":2250:2358   */\n      pop\n      pop\n      jump\t// out\n        /* \"#utility.yul\":2364:2463   */\n    tag_111:\n        /* \"#utility.yul\":2435:2456   */\n      tag_113\n        /* \"#utility.yul\":2450:2455   */\n      dup2\n        /* \"#utility.yul\":2435:2456   */\n      tag_114\n      jump\t// in\n    tag_113:\n        /* \"#utility.yul\":2430:2433   */\n      dup3\n        /* \"#utility.yul\":2423:2457   */\n      mstore\n        /* \"#utility.yul\":2364:2463   */\n      pop\n      pop\n      jump\t// out\n        /* \"#utility.yul\":2469:2606   */\n    tag_115:\n        /* \"#utility.yul\":2554:2599   */\n      tag_117\n        /* \"#utility.yul\":2593:2598   */\n      dup2\n        /* \"#utility.yul\":2554:2599   */\n      tag_118\n      jump\t// in\n    tag_117:\n        /* \"#utility.yul\":2549:2552   */\n      dup3\n        /* \"#utility.yul\":2542:2600   */\n      mstore\n        /* \"#utility.yul\":2469:2606   */\n      pop\n      pop\n      jump\t// out\n        /* \"#utility.yul\":2636:3418   */\n    tag_119:\n        /* \"#utility.yul\":2711:2714   */\n      0x00\n        /* \"#utility.yul\":2748:2753   */\n      dup2\n        /* \"#utility.yul\":2742:2754   */\n      sload\n        /* \"#utility.yul\":2777:2813   */\n      tag_121\n        /* \"#utility.yul\":2803:2812   */\n      dup2\n        /* \"#utility.yul\":2777:2813   */\n      tag_59\n      jump\t// in\n    tag_121:\n        /* \"#utility.yul\":2829:2890   */\n      tag_122\n        /* \"#utility.yul\":2883:2889   */\n      dup2\n        /* \"#utility.yul\":2878:2881   */\n      dup7\n        /* \"#utility.yul\":2829:2890   */\n      tag_123\n      jump\t// in\n    tag_122:\n        /* \"#utility.yul\":2822:2890   */\n      swap5\n      pop\n        /* \"#utility.yul\":2921:2922   */\n      0x01\n        /* \"#utility.yul\":2910:2919   */\n      dup3\n        /* \"#utility.yul\":2906:2923   */\n      and\n        /* \"#utility.yul\":2937:2938   */\n      0x00\n        /* \"#utility.yul\":2932:3067   */\n      dup2\n      eq\n      tag_125\n      jumpi\n        /* \"#utility.yul\":3081:3082   */\n      0x01\n        /* \"#utility.yul\":3076:3412   */\n      dup2\n      eq\n      tag_126\n      jumpi\n        /* \"#utility.yul\":2899:3412   */\n      jump(tag_124)\n        /* \"#utility.yul\":2932:3067   */\n    tag_125:\n        /* \"#utility.yul\":3016:3020   */\n      0xff\n        /* \"#utility.yul\":3012:3021   */\n      not\n        /* \"#utility.yul\":3001:3010   */\n      dup4\n        /* \"#utility.yul\":2997:3022   */\n      and\n        /* \"#utility.yul\":2992:2995   */\n      dup7\n        /* \"#utility.yul\":2985:3023   */\n      mstore\n        /* \"#utility.yul\":3052:3056   */\n      0x20\n        /* \"#utility.yul\":3047:3050   */\n      dup7\n        /* \"#utility.yul\":3043:3057   */\n      add\n        /* \"#utility.yul\":3036:3057   */\n      swap4\n      pop\n        /* \"#utility.yul\":2932:3067   */\n      jump(tag_124)\n        /* \"#utility.yul\":3076:3412   */\n    tag_126:\n        /* \"#utility.yul\":3143:3181   */\n      tag_127\n        /* \"#utility.yul\":3175:3180   */\n      dup6\n        /* \"#utility.yul\":3143:3181   */\n      tag_128\n      jump\t// in\n    tag_127:\n        /* \"#utility.yul\":3203:3204   */\n      0x00\n        /* \"#utility.yul\":3217:3371   */\n    tag_129:\n        /* \"#utility.yul\":3231:3237   */\n      dup4\n        /* \"#utility.yul\":3228:3229   */\n      dup2\n        /* \"#utility.yul\":3225:3238   */\n      lt\n        /* \"#utility.yul\":3217:3371   */\n      iszero\n      tag_131\n      jumpi\n        /* \"#utility.yul\":3305:3312   */\n      dup2\n        /* \"#utility.yul\":3299:3313   */\n      sload\n        /* \"#utility.yul\":3295:3296   */\n      dup2\n        /* \"#utility.yul\":3290:3293   */\n      dup10\n        /* \"#utility.yul\":3286:3297   */\n      add\n        /* \"#utility.yul\":3279:3314   */\n      mstore\n        /* \"#utility.yul\":3355:3356   */\n      0x01\n        /* \"#utility.yul\":3346:3353   */\n      dup3\n        /* \"#utility.yul\":3342:3357   */\n      add\n        /* \"#utility.yul\":3331:3357   */\n      swap2\n      pop\n        /* \"#utility.yul\":3253:3257   */\n      0x20\n        /* \"#utility.yul\":3250:3251   */\n      dup2\n        /* \"#utility.yul\":3246:3258   */\n      add\n        /* \"#utility.yul\":3241:3258   */\n      swap1\n      pop\n        /* \"#utility.yul\":3217:3371   */\n      jump(tag_129)\n    tag_131:\n        /* \"#utility.yul\":3400:3401   */\n      dup1\n        /* \"#utility.yul\":3395:3398   */\n      dup9\n        /* \"#utility.yul\":3391:3402   */\n      add\n        /* \"#utility.yul\":3384:3402   */\n      swap6\n      pop\n        /* \"#utility.yul\":3083:3412   */\n      pop\n      pop\n        /* \"#utility.yul\":2899:3412   */\n    tag_124:\n      pop\n        /* \"#utility.yul\":2715:3418   */\n      pop\n      pop\n        /* \"#utility.yul\":2636:3418   */\n      swap3\n      swap2\n      pop\n      pop\n      jump\t// out\n        /* \"#utility.yul\":3424:3790   */\n    tag_132:\n        /* \"#utility.yul\":3566:3569   */\n      0x00\n        /* \"#utility.yul\":3587:3654   */\n      tag_134\n        /* \"#utility.yul\":3651:3653   */\n      0x21\n        /* \"#utility.yul\":3646:3649   */\n      dup4\n        /* \"#utility.yul\":3587:3654   */\n      tag_135\n      jump\t// in\n    tag_134:\n        /* \"#utility.yul\":3580:3654   */\n      swap2\n      pop\n        /* \"#utility.yul\":3663:3756   */\n      tag_136\n        /* \"#utility.yul\":3752:3755   */\n      dup3\n        /* \"#utility.yul\":3663:3756   */\n      tag_137\n      jump\t// in\n    tag_136:\n        /* \"#utility.yul\":3781:3783   */\n      0x40\n        /* \"#utility.yul\":3776:3779   */\n      dup3\n        /* \"#utility.yul\":3772:3784   */\n      add\n        /* \"#utility.yul\":3765:3784   */\n      swap1\n      pop\n        /* \"#utility.yul\":3424:3790   */\n      swap2\n      swap1\n      pop\n      jump\t// out\n        /* \"#utility.yul\":3796:4162   */\n    tag_138:\n        /* \"#utility.yul\":3938:3941   */\n      0x00\n        /* \"#utility.yul\":3959:4026   */\n      tag_140\n        /* \"#utility.yul\":4023:4025   */\n      0x40\n        /* \"#utility.yul\":4018:4021   */\n      dup4\n        /* \"#utility.yul\":3959:4026   */\n      tag_135\n      jump\t// in\n    tag_140:\n        /* \"#utility.yul\":3952:4026   */\n      swap2\n      pop\n        /* \"#utility.yul\":4035:4128   */\n      tag_141\n        /* \"#utility.yul\":4124:4127   */\n      dup3\n        /* \"#utility.yul\":4035:4128   */\n      tag_142\n      jump\t// in\n    tag_141:\n        /* \"#utility.yul\":4153:4155   */\n      0x40\n        /* \"#utility.yul\":4148:4151   */\n      dup3\n        /* \"#utility.yul\":4144:4156   */\n      add\n        /* \"#utility.yul\":4137:4156   */\n      swap1\n      pop\n        /* \"#utility.yul\":3796:4162   */\n      swap2\n      swap1\n      pop\n      jump\t// out\n        /* \"#utility.yul\":4168:4534   */\n    tag_143:\n        /* \"#utility.yul\":4310:4313   */\n      0x00\n        /* \"#utility.yul\":4331:4398   */\n      tag_145\n        /* \"#utility.yul\":4395:4397   */\n      0x3e\n        /* \"#utility.yul\":4390:4393   */\n      dup4\n        /* \"#utility.yul\":4331:4398   */\n      tag_135\n      jump\t// in\n    tag_145:\n        /* \"#utility.yul\":4324:4398   */\n      swap2\n      pop\n        /* \"#utility.yul\":4407:4500   */\n      tag_146\n        /* \"#utility.yul\":4496:4499   */\n      dup3\n        /* \"#utility.yul\":4407:4500   */\n      tag_147\n      jump\t// in\n    tag_146:\n        /* \"#utility.yul\":4525:4527   */\n      0x40\n        /* \"#utility.yul\":4520:4523   */\n      dup3\n        /* \"#utility.yul\":4516:4528   */\n      add\n        /* \"#utility.yul\":4509:4528   */\n      swap1\n      pop\n        /* \"#utility.yul\":4168:4534   */\n      swap2\n      swap1\n      pop\n      jump\t// out\n        /* \"#utility.yul\":4540:4906   */\n    tag_148:\n        /* \"#utility.yul\":4682:4685   */\n      0x00\n        /* \"#utility.yul\":4703:4770   */\n      tag_150\n        /* \"#utility.yul\":4767:4769   */\n      0x15\n        /* \"#utility.yul\":4762:4765   */\n      dup4\n        /* \"#utility.yul\":4703:4770   */\n      tag_135\n      jump\t// in\n    tag_150:\n        /* \"#utility.yul\":4696:4770   */\n      swap2\n      pop\n        /* \"#utility.yul\":4779:4872   */\n      tag_151\n        /* \"#utility.yul\":4868:4871   */\n      dup3\n        /* \"#utility.yul\":4779:4872   */\n      tag_152\n      jump\t// in\n    tag_151:\n        /* \"#utility.yul\":4897:4899   */\n      0x20\n        /* \"#utility.yul\":4892:4895   */\n      dup3\n        /* \"#utility.yul\":4888:4900   */\n      add\n        /* \"#utility.yul\":4881:4900   */\n      swap1\n      pop\n        /* \"#utility.yul\":4540:4906   */\n      swap2\n      swap1\n      pop\n      jump\t// out\n        /* \"#utility.yul\":4912:5278   */\n    tag_153:\n        /* \"#utility.yul\":5054:5057   */\n      0x00\n        /* \"#utility.yul\":5075:5142   */\n      tag_155\n        /* \"#utility.yul\":5139:5141   */\n      0x38\n        /* \"#utility.yul\":5134:5137   */\n      dup4\n        /* \"#utility.yul\":5075:5142   */\n      tag_135\n      jump\t// in\n    tag_155:\n        /* \"#utility.yul\":5068:5142   */\n      swap2\n      pop\n        /* \"#utility.yul\":5151:5244   */\n      tag_156\n        /* \"#utility.yul\":5240:5243   */\n      dup3\n        /* \"#utility.yul\":5151:5244   */\n      tag_157\n      jump\t// in\n    tag_156:\n        /* \"#utility.yul\":5269:5271   */\n      0x40\n        /* \"#utility.yul\":5264:5267   */\n      dup3\n        /* \"#utility.yul\":5260:5272   */\n      add\n        /* \"#utility.yul\":5253:5272   */\n      swap1\n      pop\n        /* \"#utility.yul\":4912:5278   */\n      swap2\n      swap1\n      pop\n      jump\t// out\n        /* \"#utility.yul\":5340:8037   */\n    tag_158:\n        /* \"#utility.yul\":5458:5461   */\n      0x00\n        /* \"#utility.yul\":5494:5500   */\n      0x0140\n        /* \"#utility.yul\":5489:5492   */\n      dup4\n        /* \"#utility.yul\":5485:5501   */\n      add\n        /* \"#utility.yul\":5527:5528   */\n      0x00\n        /* \"#utility.yul\":5607:5611   */\n      dup1\n        /* \"#utility.yul\":5600:5605   */\n      dup5\n        /* \"#utility.yul\":5596:5612   */\n      add\n        /* \"#utility.yul\":5590:5613   */\n      sload\n        /* \"#utility.yul\":5577:5613   */\n      swap1\n      pop\n        /* \"#utility.yul\":5646:5701   */\n      tag_160\n        /* \"#utility.yul\":5691:5700   */\n      dup2\n        /* \"#utility.yul\":5646:5701   */\n      tag_161\n      jump\t// in\n    tag_160:\n        /* \"#utility.yul\":5714:5777   */\n      tag_162\n        /* \"#utility.yul\":5771:5775   */\n      0x00\n        /* \"#utility.yul\":5766:5769   */\n      dup8\n        /* \"#utility.yul\":5762:5776   */\n      add\n        /* \"#utility.yul\":5748:5760   */\n      dup3\n        /* \"#utility.yul\":5714:5777   */\n      tag_163\n      jump\t// in\n    tag_162:\n        /* \"#utility.yul\":5538:5787   */\n      pop\n        /* \"#utility.yul\":5864:5868   */\n      0x01\n        /* \"#utility.yul\":5857:5862   */\n      dup5\n        /* \"#utility.yul\":5853:5869   */\n      add\n        /* \"#utility.yul\":5916:5919   */\n      dup6\n        /* \"#utility.yul\":5910:5914   */\n      dup4\n        /* \"#utility.yul\":5906:5920   */\n      sub\n        /* \"#utility.yul\":5899:5903   */\n      0x20\n        /* \"#utility.yul\":5894:5897   */\n      dup8\n        /* \"#utility.yul\":5890:5904   */\n      add\n        /* \"#utility.yul\":5883:5921   */\n      mstore\n        /* \"#utility.yul\":5942:6012   */\n      tag_164\n        /* \"#utility.yul\":6007:6011   */\n      dup4\n        /* \"#utility.yul\":5993:6005   */\n      dup3\n        /* \"#utility.yul\":5942:6012   */\n      tag_119\n      jump\t// in\n    tag_164:\n        /* \"#utility.yul\":5934:6012   */\n      swap3\n      pop\n        /* \"#utility.yul\":5797:6023   */\n      pop\n        /* \"#utility.yul\":6106:6110   */\n      0x02\n        /* \"#utility.yul\":6099:6104   */\n      dup5\n        /* \"#utility.yul\":6095:6111   */\n      add\n        /* \"#utility.yul\":6158:6161   */\n      dup6\n        /* \"#utility.yul\":6152:6156   */\n      dup4\n        /* \"#utility.yul\":6148:6162   */\n      sub\n        /* \"#utility.yul\":6141:6145   */\n      0x40\n        /* \"#utility.yul\":6136:6139   */\n      dup8\n        /* \"#utility.yul\":6132:6146   */\n      add\n        /* \"#utility.yul\":6125:6163   */\n      mstore\n        /* \"#utility.yul\":6184:6254   */\n      tag_165\n        /* \"#utility.yul\":6249:6253   */\n      dup4\n        /* \"#utility.yul\":6235:6247   */\n      dup3\n        /* \"#utility.yul\":6184:6254   */\n      tag_119\n      jump\t// in\n    tag_165:\n        /* \"#utility.yul\":6176:6254   */\n      swap3\n      pop\n        /* \"#utility.yul\":6033:6265   */\n      pop\n        /* \"#utility.yul\":6340:6344   */\n      0x03\n        /* \"#utility.yul\":6333:6338   */\n      dup5\n        /* \"#utility.yul\":6329:6345   */\n      add\n        /* \"#utility.yul\":6323:6346   */\n      sload\n        /* \"#utility.yul\":6310:6346   */\n      swap1\n      pop\n        /* \"#utility.yul\":6379:6434   */\n      tag_166\n        /* \"#utility.yul\":6424:6433   */\n      dup2\n        /* \"#utility.yul\":6379:6434   */\n      tag_161\n      jump\t// in\n    tag_166:\n        /* \"#utility.yul\":6447:6510   */\n      tag_167\n        /* \"#utility.yul\":6504:6508   */\n      0x60\n        /* \"#utility.yul\":6499:6502   */\n      dup8\n        /* \"#utility.yul\":6495:6509   */\n      add\n        /* \"#utility.yul\":6481:6493   */\n      dup3\n        /* \"#utility.yul\":6447:6510   */\n      tag_163\n      jump\t// in\n    tag_167:\n        /* \"#utility.yul\":6275:6520   */\n      pop\n        /* \"#utility.yul\":6606:6610   */\n      0x04\n        /* \"#utility.yul\":6599:6604   */\n      dup5\n        /* \"#utility.yul\":6595:6611   */\n      add\n        /* \"#utility.yul\":6589:6612   */\n      sload\n        /* \"#utility.yul\":6576:6612   */\n      swap1\n      pop\n        /* \"#utility.yul\":6645:6700   */\n      tag_168\n        /* \"#utility.yul\":6690:6699   */\n      dup2\n        /* \"#utility.yul\":6645:6700   */\n      tag_161\n      jump\t// in\n    tag_168:\n        /* \"#utility.yul\":6713:6776   */\n      tag_169\n        /* \"#utility.yul\":6770:6774   */\n      0x80\n        /* \"#utility.yul\":6765:6768   */\n      dup8\n        /* \"#utility.yul\":6761:6775   */\n      add\n        /* \"#utility.yul\":6747:6759   */\n      dup3\n        /* \"#utility.yul\":6713:6776   */\n      tag_163\n      jump\t// in\n    tag_169:\n        /* \"#utility.yul\":6530:6786   */\n      pop\n        /* \"#utility.yul\":6869:6873   */\n      0x05\n        /* \"#utility.yul\":6862:6867   */\n      dup5\n        /* \"#utility.yul\":6858:6874   */\n      add\n        /* \"#utility.yul\":6852:6875   */\n      sload\n        /* \"#utility.yul\":6839:6875   */\n      swap1\n      pop\n        /* \"#utility.yul\":6908:6963   */\n      tag_170\n        /* \"#utility.yul\":6953:6962   */\n      dup2\n        /* \"#utility.yul\":6908:6963   */\n      tag_161\n      jump\t// in\n    tag_170:\n        /* \"#utility.yul\":6976:7039   */\n      tag_171\n        /* \"#utility.yul\":7033:7037   */\n      0xa0\n        /* \"#utility.yul\":7028:7031   */\n      dup8\n        /* \"#utility.yul\":7024:7038   */\n      add\n        /* \"#utility.yul\":7010:7022   */\n      dup3\n        /* \"#utility.yul\":6976:7039   */\n      tag_163\n      jump\t// in\n    tag_171:\n        /* \"#utility.yul\":6796:7049   */\n      pop\n        /* \"#utility.yul\":7134:7138   */\n      0x06\n        /* \"#utility.yul\":7127:7132   */\n      dup5\n        /* \"#utility.yul\":7123:7139   */\n      add\n        /* \"#utility.yul\":7117:7140   */\n      sload\n        /* \"#utility.yul\":7104:7140   */\n      swap1\n      pop\n        /* \"#utility.yul\":7173:7228   */\n      tag_172\n        /* \"#utility.yul\":7218:7227   */\n      dup2\n        /* \"#utility.yul\":7173:7228   */\n      tag_173\n      jump\t// in\n    tag_172:\n        /* \"#utility.yul\":7241:7304   */\n      tag_174\n        /* \"#utility.yul\":7298:7302   */\n      0xc0\n        /* \"#utility.yul\":7293:7296   */\n      dup8\n        /* \"#utility.yul\":7289:7303   */\n      add\n        /* \"#utility.yul\":7275:7287   */\n      dup3\n        /* \"#utility.yul\":7241:7304   */\n      tag_107\n      jump\t// in\n    tag_174:\n        /* \"#utility.yul\":7059:7314   */\n      pop\n        /* \"#utility.yul\":7400:7404   */\n      0x07\n        /* \"#utility.yul\":7393:7398   */\n      dup5\n        /* \"#utility.yul\":7389:7405   */\n      add\n        /* \"#utility.yul\":7383:7406   */\n      sload\n        /* \"#utility.yul\":7370:7406   */\n      swap1\n      pop\n        /* \"#utility.yul\":7439:7494   */\n      tag_175\n        /* \"#utility.yul\":7484:7493   */\n      dup2\n        /* \"#utility.yul\":7439:7494   */\n      tag_173\n      jump\t// in\n    tag_175:\n        /* \"#utility.yul\":7507:7570   */\n      tag_176\n        /* \"#utility.yul\":7564:7568   */\n      0xe0\n        /* \"#utility.yul\":7559:7562   */\n      dup8\n        /* \"#utility.yul\":7555:7569   */\n      add\n        /* \"#utility.yul\":7541:7553   */\n      dup3\n        /* \"#utility.yul\":7507:7570   */\n      tag_107\n      jump\t// in\n    tag_176:\n        /* \"#utility.yul\":7324:7580   */\n      pop\n        /* \"#utility.yul\":7646:7699   */\n      tag_177\n        /* \"#utility.yul\":7689:7698   */\n      dup2\n        /* \"#utility.yul\":7646:7699   */\n      tag_178\n      jump\t// in\n    tag_177:\n        /* \"#utility.yul\":7712:7771   */\n      tag_179\n        /* \"#utility.yul\":7763:7769   */\n      0x0100\n        /* \"#utility.yul\":7758:7761   */\n      dup8\n        /* \"#utility.yul\":7754:7770   */\n      add\n        /* \"#utility.yul\":7740:7752   */\n      dup3\n        /* \"#utility.yul\":7712:7771   */\n      tag_111\n      jump\t// in\n    tag_179:\n        /* \"#utility.yul\":7590:7781   */\n      pop\n        /* \"#utility.yul\":7848:7914   */\n      tag_180\n        /* \"#utility.yul\":7904:7913   */\n      dup2\n        /* \"#utility.yul\":7848:7914   */\n      tag_181\n      jump\t// in\n    tag_180:\n        /* \"#utility.yul\":7927:8000   */\n      tag_182\n        /* \"#utility.yul\":7992:7998   */\n      0x0120\n        /* \"#utility.yul\":7987:7990   */\n      dup8\n        /* \"#utility.yul\":7983:7999   */\n      add\n        /* \"#utility.yul\":7969:7981   */\n      dup3\n        /* \"#utility.yul\":7927:8000   */\n      tag_115\n      jump\t// in\n    tag_182:\n        /* \"#utility.yul\":7791:8010   */\n      pop\n        /* \"#utility.yul\":8027:8031   */\n      dup2\n        /* \"#utility.yul\":8020:8031   */\n      swap3\n      pop\n        /* \"#utility.yul\":5463:8037   */\n      pop\n      pop\n        /* \"#utility.yul\":5340:8037   */\n      swap3\n      swap2\n      pop\n      pop\n      jump\t// out\n        /* \"#utility.yul\":8043:8151   */\n    tag_163:\n        /* \"#utility.yul\":8120:8144   */\n      tag_184\n        /* \"#utility.yul\":8138:8143   */\n      dup2\n        /* \"#utility.yul\":8120:8144   */\n      tag_185\n      jump\t// in\n    tag_184:\n        /* \"#utility.yul\":8115:8118   */\n      dup3\n        /* \"#utility.yul\":8108:8145   */\n      mstore\n        /* \"#utility.yul\":8043:8151   */\n      pop\n      pop\n      jump\t// out\n        /* \"#utility.yul\":8157:8275   */\n    tag_186:\n        /* \"#utility.yul\":8244:8268   */\n      tag_188\n        /* \"#utility.yul\":8262:8267   */\n      dup2\n        /* \"#utility.yul\":8244:8268   */\n      tag_185\n      jump\t// in\n    tag_188:\n        /* \"#utility.yul\":8239:8242   */\n      dup3\n        /* \"#utility.yul\":8232:8269   */\n      mstore\n        /* \"#utility.yul\":8157:8275   */\n      pop\n      pop\n      jump\t// out\n        /* \"#utility.yul\":8281:8700   */\n    tag_48:\n        /* \"#utility.yul\":8447:8451   */\n      0x00\n        /* \"#utility.yul\":8485:8487   */\n      0x20\n        /* \"#utility.yul\":8474:8483   */\n      dup3\n        /* \"#utility.yul\":8470:8488   */\n      add\n        /* \"#utility.yul\":8462:8488   */\n      swap1\n      pop\n        /* \"#utility.yul\":8534:8543   */\n      dup2\n        /* \"#utility.yul\":8528:8532   */\n      dup2\n        /* \"#utility.yul\":8524:8544   */\n      sub\n        /* \"#utility.yul\":8520:8521   */\n      0x00\n        /* \"#utility.yul\":8509:8518   */\n      dup4\n        /* \"#utility.yul\":8505:8522   */\n      add\n        /* \"#utility.yul\":8498:8545   */\n      mstore\n        /* \"#utility.yul\":8562:8693   */\n      tag_190\n        /* \"#utility.yul\":8688:8692   */\n      dup2\n        /* \"#utility.yul\":8562:8693   */\n      tag_132\n      jump\t// in\n    tag_190:\n        /* \"#utility.yul\":8554:8693   */\n      swap1\n      pop\n        /* \"#utility.yul\":8281:8700   */\n      swap2\n      swap1\n      pop\n      jump\t// out\n        /* \"#utility.yul\":8706:9125   */\n    tag_22:\n        /* \"#utility.yul\":8872:8876   */\n      0x00\n        /* \"#utility.yul\":8910:8912   */\n      0x20\n        /* \"#utility.yul\":8899:8908   */\n      dup3\n        /* \"#utility.yul\":8895:8913   */\n      add\n        /* \"#utility.yul\":8887:8913   */\n      swap1\n      pop\n        /* \"#utility.yul\":8959:8968   */\n      dup2\n        /* \"#utility.yul\":8953:8957   */\n      dup2\n        /* \"#utility.yul\":8949:8969   */\n      sub\n        /* \"#utility.yul\":8945:8946   */\n      0x00\n        /* \"#utility.yul\":8934:8943   */\n      dup4\n        /* \"#utility.yul\":8930:8947   */\n      add\n        /* \"#utility.yul\":8923:8970   */\n      mstore\n        /* \"#utility.yul\":8987:9118   */\n      tag_192\n        /* \"#utility.yul\":9113:9117   */\n      dup2\n        /* \"#utility.yul\":8987:9118   */\n      tag_138\n      jump\t// in\n    tag_192:\n        /* \"#utility.yul\":8979:9118   */\n      swap1\n      pop\n        /* \"#utility.yul\":8706:9125   */\n      swap2\n      swap1\n      pop\n      jump\t// out\n        /* \"#utility.yul\":9131:9550   */\n    tag_35:\n        /* \"#utility.yul\":9297:9301   */\n      0x00\n        /* \"#utility.yul\":9335:9337   */\n      0x20\n        /* \"#utility.yul\":9324:9333   */\n      dup3\n        /* \"#utility.yul\":9320:9338   */\n      add\n        /* \"#utility.yul\":9312:9338   */\n      swap1\n      pop\n        /* \"#utility.yul\":9384:9393   */\n      dup2\n        /* \"#utility.yul\":9378:9382   */\n      dup2\n        /* \"#utility.yul\":9374:9394   */\n      sub\n        /* \"#utility.yul\":9370:9371   */\n      0x00\n        /* \"#utility.yul\":9359:9368   */\n      dup4\n        /* \"#utility.yul\":9355:9372   */\n      add\n        /* \"#utility.yul\":9348:9395   */\n      mstore\n        /* \"#utility.yul\":9412:9543   */\n      tag_194\n        /* \"#utility.yul\":9538:9542   */\n      dup2\n        /* \"#utility.yul\":9412:9543   */\n      tag_143\n      jump\t// in\n    tag_194:\n        /* \"#utility.yul\":9404:9543   */\n      swap1\n      pop\n        /* \"#utility.yul\":9131:9550   */\n      swap2\n      swap1\n      pop\n      jump\t// out\n        /* \"#utility.yul\":9556:9975   */\n    tag_41:\n        /* \"#utility.yul\":9722:9726   */\n      0x00\n        /* \"#utility.yul\":9760:9762   */\n      0x20\n        /* \"#utility.yul\":9749:9758   */\n      dup3\n        /* \"#utility.yul\":9745:9763   */\n      add\n        /* \"#utility.yul\":9737:9763   */\n      swap1\n      pop\n        /* \"#utility.yul\":9809:9818   */\n      dup2\n        /* \"#utility.yul\":9803:9807   */\n      dup2\n        /* \"#utility.yul\":9799:9819   */\n      sub\n        /* \"#utility.yul\":9795:9796   */\n      0x00\n        /* \"#utility.yul\":9784:9793   */\n      dup4\n        /* \"#utility.yul\":9780:9797   */\n      add\n        /* \"#utility.yul\":9773:9820   */\n      mstore\n        /* \"#utility.yul\":9837:9968   */\n      tag_196\n        /* \"#utility.yul\":9963:9967   */\n      dup2\n        /* \"#utility.yul\":9837:9968   */\n      tag_148\n      jump\t// in\n    tag_196:\n        /* \"#utility.yul\":9829:9968   */\n      swap1\n      pop\n        /* \"#utility.yul\":9556:9975   */\n      swap2\n      swap1\n      pop\n      jump\t// out\n        /* \"#utility.yul\":9981:10400   */\n    tag_26:\n        /* \"#utility.yul\":10147:10151   */\n      0x00\n        /* \"#utility.yul\":10185:10187   */\n      0x20\n        /* \"#utility.yul\":10174:10183   */\n      dup3\n        /* \"#utility.yul\":10170:10188   */\n      add\n        /* \"#utility.yul\":10162:10188   */\n      swap1\n      pop\n        /* \"#utility.yul\":10234:10243   */\n      dup2\n        /* \"#utility.yul\":10228:10232   */\n      dup2\n        /* \"#utility.yul\":10224:10244   */\n      sub\n        /* \"#utility.yul\":10220:10221   */\n      0x00\n        /* \"#utility.yul\":10209:10218   */\n      dup4\n        /* \"#utility.yul\":10205:10222   */\n      add\n        /* \"#utility.yul\":10198:10245   */\n      mstore\n        /* \"#utility.yul\":10262:10393   */\n      tag_198\n        /* \"#utility.yul\":10388:10392   */\n      dup2\n        /* \"#utility.yul\":10262:10393   */\n      tag_153\n      jump\t// in\n    tag_198:\n        /* \"#utility.yul\":10254:10393   */\n      swap1\n      pop\n        /* \"#utility.yul\":9981:10400   */\n      swap2\n      swap1\n      pop\n      jump\t// out\n        /* \"#utility.yul\":10406:10628   */\n    tag_13:\n        /* \"#utility.yul\":10499:10503   */\n      0x00\n        /* \"#utility.yul\":10537:10539   */\n      0x20\n        /* \"#utility.yul\":10526:10535   */\n      dup3\n        /* \"#utility.yul\":10522:10540   */\n      add\n        /* \"#utility.yul\":10514:10540   */\n      swap1\n      pop\n        /* \"#utility.yul\":10550:10621   */\n      tag_200\n        /* \"#utility.yul\":10618:10619   */\n      0x00\n        /* \"#utility.yul\":10607:10616   */\n      dup4\n        /* \"#utility.yul\":10603:10620   */\n      add\n        /* \"#utility.yul\":10594:10600   */\n      dup5\n        /* \"#utility.yul\":10550:10621   */\n      tag_186\n      jump\t// in\n    tag_200:\n        /* \"#utility.yul\":10406:10628   */\n      swap3\n      swap2\n      pop\n      pop\n      jump\t// out\n        /* \"#utility.yul\":10634:11115   */\n    tag_55:\n        /* \"#utility.yul\":10804:10808   */\n      0x00\n        /* \"#utility.yul\":10842:10844   */\n      0x40\n        /* \"#utility.yul\":10831:10840   */\n      dup3\n        /* \"#utility.yul\":10827:10845   */\n      add\n        /* \"#utility.yul\":10819:10845   */\n      swap1\n      pop\n        /* \"#utility.yul\":10855:10926   */\n      tag_202\n        /* \"#utility.yul\":10923:10924   */\n      0x00\n        /* \"#utility.yul\":10912:10921   */\n      dup4\n        /* \"#utility.yul\":10908:10925   */\n      add\n        /* \"#utility.yul\":10899:10905   */\n      dup6\n        /* \"#utility.yul\":10855:10926   */\n      tag_186\n      jump\t// in\n    tag_202:\n        /* \"#utility.yul\":10973:10982   */\n      dup2\n        /* \"#utility.yul\":10967:10971   */\n      dup2\n        /* \"#utility.yul\":10963:10983   */\n      sub\n        /* \"#utility.yul\":10958:10960   */\n      0x20\n        /* \"#utility.yul\":10947:10956   */\n      dup4\n        /* \"#utility.yul\":10943:10961   */\n      add\n        /* \"#utility.yul\":10936:10984   */\n      mstore\n        /* \"#utility.yul\":11001:11108   */\n      tag_203\n        /* \"#utility.yul\":11103:11107   */\n      dup2\n        /* \"#utility.yul\":11094:11100   */\n      dup5\n        /* \"#utility.yul\":11001:11108   */\n      tag_158\n      jump\t// in\n    tag_203:\n        /* \"#utility.yul\":10993:11108   */\n      swap1\n      pop\n        /* \"#utility.yul\":10634:11115   */\n      swap4\n      swap3\n      pop\n      pop\n      pop\n      jump\t// out\n        /* \"#utility.yul\":11121:11250   */\n    tag_75:\n        /* \"#utility.yul\":11155:11161   */\n      0x00\n        /* \"#utility.yul\":11182:11202   */\n      tag_205\n      tag_206\n      jump\t// in\n    tag_205:\n        /* \"#utility.yul\":11172:11202   */\n      swap1\n      pop\n        /* \"#utility.yul\":11211:11244   */\n      tag_207\n        /* \"#utility.yul\":11239:11243   */\n      dup3\n        /* \"#utility.yul\":11231:11237   */\n      dup3\n        /* \"#utility.yul\":11211:11244   */\n      tag_208\n      jump\t// in\n    tag_207:\n        /* \"#utility.yul\":11121:11250   */\n      swap2\n      swap1\n      pop\n      jump\t// out\n        /* \"#utility.yul\":11256:11331   */\n    tag_206:\n        /* \"#utility.yul\":11289:11295   */\n      0x00\n        /* \"#utility.yul\":11322:11324   */\n      0x40\n        /* \"#utility.yul\":11316:11325   */\n      mload\n        /* \"#utility.yul\":11306:11325   */\n      swap1\n      pop\n        /* \"#utility.yul\":11256:11331   */\n      swap1\n      jump\t// out\n        /* \"#utility.yul\":11337:11645   */\n    tag_74:\n        /* \"#utility.yul\":11399:11403   */\n      0x00\n        /* \"#utility.yul\":11489:11507   */\n      0xffffffffffffffff\n        /* \"#utility.yul\":11481:11487   */\n      dup3\n        /* \"#utility.yul\":11478:11508   */\n      gt\n        /* \"#utility.yul\":11475:11531   */\n      iszero\n      tag_211\n      jumpi\n        /* \"#utility.yul\":11511:11529   */\n      tag_212\n      tag_213\n      jump\t// in\n    tag_212:\n        /* \"#utility.yul\":11475:11531   */\n    tag_211:\n        /* \"#utility.yul\":11549:11578   */\n      tag_214\n        /* \"#utility.yul\":11571:11577   */\n      dup3\n        /* \"#utility.yul\":11549:11578   */\n      tag_215\n      jump\t// in\n    tag_214:\n        /* \"#utility.yul\":11541:11578   */\n      swap1\n      pop\n        /* \"#utility.yul\":11633:11637   */\n      0x20\n        /* \"#utility.yul\":11627:11631   */\n      dup2\n        /* \"#utility.yul\":11623:11638   */\n      add\n        /* \"#utility.yul\":11615:11638   */\n      swap1\n      pop\n        /* \"#utility.yul\":11337:11645   */\n      swap2\n      swap1\n      pop\n      jump\t// out\n        /* \"#utility.yul\":11651:11792   */\n    tag_128:\n        /* \"#utility.yul\":11700:11704   */\n      0x00\n        /* \"#utility.yul\":11723:11726   */\n      dup2\n        /* \"#utility.yul\":11715:11726   */\n      swap1\n      pop\n        /* \"#utility.yul\":11746:11749   */\n      dup2\n        /* \"#utility.yul\":11743:11744   */\n      0x00\n        /* \"#utility.yul\":11736:11750   */\n      mstore\n        /* \"#utility.yul\":11780:11784   */\n      0x20\n        /* \"#utility.yul\":11777:11778   */\n      0x00\n        /* \"#utility.yul\":11767:11785   */\n      keccak256\n        /* \"#utility.yul\":11759:11785   */\n      swap1\n      pop\n        /* \"#utility.yul\":11651:11792   */\n      swap2\n      swap1\n      pop\n      jump\t// out\n        /* \"#utility.yul\":11798:11957   */\n    tag_123:\n        /* \"#utility.yul\":11872:11883   */\n      0x00\n        /* \"#utility.yul\":11906:11912   */\n      dup3\n        /* \"#utility.yul\":11901:11904   */\n      dup3\n        /* \"#utility.yul\":11894:11913   */\n      mstore\n        /* \"#utility.yul\":11946:11950   */\n      0x20\n        /* \"#utility.yul\":11941:11944   */\n      dup3\n        /* \"#utility.yul\":11937:11951   */\n      add\n        /* \"#utility.yul\":11922:11951   */\n      swap1\n      pop\n        /* \"#utility.yul\":11798:11957   */\n      swap3\n      swap2\n      pop\n      pop\n      jump\t// out\n        /* \"#utility.yul\":11963:12132   */\n    tag_135:\n        /* \"#utility.yul\":12047:12058   */\n      0x00\n        /* \"#utility.yul\":12081:12087   */\n      dup3\n        /* \"#utility.yul\":12076:12079   */\n      dup3\n        /* \"#utility.yul\":12069:12088   */\n      mstore\n        /* \"#utility.yul\":12121:12125   */\n      0x20\n        /* \"#utility.yul\":12116:12119   */\n      dup3\n        /* \"#utility.yul\":12112:12126   */\n      add\n        /* \"#utility.yul\":12097:12126   */\n      swap1\n      pop\n        /* \"#utility.yul\":11963:12132   */\n      swap3\n      swap2\n      pop\n      pop\n      jump\t// out\n        /* \"#utility.yul\":12138:12277   */\n    tag_219:\n        /* \"#utility.yul\":12188:12195   */\n      0x00\n        /* \"#utility.yul\":12228:12270   */\n      0xffffffffffffffffffffffffffffffffffffffff\n        /* \"#utility.yul\":12221:12226   */\n      dup3\n        /* \"#utility.yul\":12217:12271   */\n      and\n        /* \"#utility.yul\":12206:12271   */\n      swap1\n      pop\n        /* \"#utility.yul\":12138:12277   */\n      swap2\n      swap1\n      pop\n      jump\t// out\n        /* \"#utility.yul\":12283:12381   */\n    tag_221:\n        /* \"#utility.yul\":12330:12337   */\n      0x00\n        /* \"#utility.yul\":12370:12374   */\n      0xff\n        /* \"#utility.yul\":12363:12368   */\n      dup3\n        /* \"#utility.yul\":12359:12375   */\n      and\n        /* \"#utility.yul\":12348:12375   */\n      swap1\n      pop\n        /* \"#utility.yul\":12283:12381   */\n      swap2\n      swap1\n      pop\n      jump\t// out\n        /* \"#utility.yul\":12387:12498   */\n    tag_223:\n        /* \"#utility.yul\":12447:12454   */\n      0x00\n        /* \"#utility.yul\":12487:12491   */\n      0xff\n        /* \"#utility.yul\":12480:12485   */\n      dup3\n        /* \"#utility.yul\":12476:12492   */\n      and\n        /* \"#utility.yul\":12465:12492   */\n      swap1\n      pop\n        /* \"#utility.yul\":12387:12498   */\n      swap2\n      swap1\n      pop\n      jump\t// out\n        /* \"#utility.yul\":12504:12594   */\n    tag_225:\n        /* \"#utility.yul\":12554:12561   */\n      0x00\n        /* \"#utility.yul\":12583:12588   */\n      dup2\n        /* \"#utility.yul\":12572:12588   */\n      swap1\n      pop\n        /* \"#utility.yul\":12504:12594   */\n      swap2\n      swap1\n      pop\n      jump\t// out\n        /* \"#utility.yul\":12600:12696   */\n    tag_110:\n        /* \"#utility.yul\":12637:12644   */\n      0x00\n        /* \"#utility.yul\":12666:12690   */\n      tag_228\n        /* \"#utility.yul\":12684:12689   */\n      dup3\n        /* \"#utility.yul\":12666:12690   */\n      tag_229\n      jump\t// in\n    tag_228:\n        /* \"#utility.yul\":12655:12690   */\n      swap1\n      pop\n        /* \"#utility.yul\":12600:12696   */\n      swap2\n      swap1\n      pop\n      jump\t// out\n        /* \"#utility.yul\":12702:12792   */\n    tag_114:\n        /* \"#utility.yul\":12736:12743   */\n      0x00\n        /* \"#utility.yul\":12779:12784   */\n      dup2\n        /* \"#utility.yul\":12772:12785   */\n      iszero\n        /* \"#utility.yul\":12765:12786   */\n      iszero\n        /* \"#utility.yul\":12754:12786   */\n      swap1\n      pop\n        /* \"#utility.yul\":12702:12792   */\n      swap2\n      swap1\n      pop\n      jump\t// out\n        /* \"#utility.yul\":12798:12929   */\n    tag_231:\n        /* \"#utility.yul\":12845:12852   */\n      0x00\n        /* \"#utility.yul\":12874:12879   */\n      dup2\n        /* \"#utility.yul\":12863:12879   */\n      swap1\n      pop\n        /* \"#utility.yul\":12880:12923   */\n      tag_233\n        /* \"#utility.yul\":12917:12922   */\n      dup3\n        /* \"#utility.yul\":12880:12923   */\n      tag_234\n      jump\t// in\n    tag_233:\n        /* \"#utility.yul\":12798:12929   */\n      swap2\n      swap1\n      pop\n      jump\t// out\n        /* \"#utility.yul\":12935:13061   */\n    tag_229:\n        /* \"#utility.yul\":12972:12979   */\n      0x00\n        /* \"#utility.yul\":13012:13054   */\n      0xffffffffffffffffffffffffffffffffffffffff\n        /* \"#utility.yul\":13005:13010   */\n      dup3\n        /* \"#utility.yul\":13001:13055   */\n      and\n        /* \"#utility.yul\":12990:13055   */\n      swap1\n      pop\n        /* \"#utility.yul\":12935:13061   */\n      swap2\n      swap1\n      pop\n      jump\t// out\n        /* \"#utility.yul\":13067:13144   */\n    tag_185:\n        /* \"#utility.yul\":13104:13111   */\n      0x00\n        /* \"#utility.yul\":13133:13138   */\n      dup2\n        /* \"#utility.yul\":13122:13138   */\n      swap1\n      pop\n        /* \"#utility.yul\":13067:13144   */\n      swap2\n      swap1\n      pop\n      jump\t// out\n        /* \"#utility.yul\":13150:13281   */\n    tag_118:\n        /* \"#utility.yul\":13208:13217   */\n      0x00\n        /* \"#utility.yul\":13241:13275   */\n      tag_238\n        /* \"#utility.yul\":13269:13274   */\n      dup3\n        /* \"#utility.yul\":13241:13275   */\n      tag_231\n      jump\t// in\n    tag_238:\n        /* \"#utility.yul\":13228:13275   */\n      swap1\n      pop\n        /* \"#utility.yul\":13150:13281   */\n      swap2\n      swap1\n      pop\n      jump\t// out\n        /* \"#utility.yul\":13287:13441   */\n    tag_80:\n        /* \"#utility.yul\":13371:13377   */\n      dup3\n        /* \"#utility.yul\":13366:13369   */\n      dup2\n        /* \"#utility.yul\":13361:13364   */\n      dup4\n        /* \"#utility.yul\":13348:13378   */\n      calldatacopy\n        /* \"#utility.yul\":13433:13434   */\n      0x00\n        /* \"#utility.yul\":13424:13430   */\n      dup4\n        /* \"#utility.yul\":13419:13422   */\n      dup4\n        /* \"#utility.yul\":13415:13431   */\n      add\n        /* \"#utility.yul\":13408:13435   */\n      mstore\n        /* \"#utility.yul\":13287:13441   */\n      pop\n      pop\n      pop\n      jump\t// out\n        /* \"#utility.yul\":13447:13767   */\n    tag_59:\n        /* \"#utility.yul\":13491:13497   */\n      0x00\n        /* \"#utility.yul\":13528:13529   */\n      0x02\n        /* \"#utility.yul\":13522:13526   */\n      dup3\n        /* \"#utility.yul\":13518:13530   */\n      div\n        /* \"#utility.yul\":13508:13530   */\n      swap1\n      pop\n        /* \"#utility.yul\":13575:13576   */\n      0x01\n        /* \"#utility.yul\":13569:13573   */\n      dup3\n        /* \"#utility.yul\":13565:13577   */\n      and\n        /* \"#utility.yul\":13596:13614   */\n      dup1\n        /* \"#utility.yul\":13586:13667   */\n      tag_241\n      jumpi\n        /* \"#utility.yul\":13652:13656   */\n      0x7f\n        /* \"#utility.yul\":13644:13650   */\n      dup3\n        /* \"#utility.yul\":13640:13657   */\n      and\n        /* \"#utility.yul\":13630:13657   */\n      swap2\n      pop\n        /* \"#utility.yul\":13586:13667   */\n    tag_241:\n        /* \"#utility.yul\":13714:13716   */\n      0x20\n        /* \"#utility.yul\":13706:13712   */\n      dup3\n        /* \"#utility.yul\":13703:13717   */\n      lt\n        /* \"#utility.yul\":13683:13701   */\n      dup2\n        /* \"#utility.yul\":13680:13718   */\n      eq\n        /* \"#utility.yul\":13677:13761   */\n      iszero\n      tag_242\n      jumpi\n        /* \"#utility.yul\":13733:13751   */\n      tag_243\n      tag_244\n      jump\t// in\n    tag_243:\n        /* \"#utility.yul\":13677:13761   */\n    tag_242:\n        /* \"#utility.yul\":13498:13767   */\n      pop\n        /* \"#utility.yul\":13447:13767   */\n      swap2\n      swap1\n      pop\n      jump\t// out\n        /* \"#utility.yul\":13773:13939   */\n    tag_173:\n        /* \"#utility.yul\":13842:13847   */\n      0x00\n        /* \"#utility.yul\":13867:13933   */\n      tag_246\n        /* \"#utility.yul\":13898:13932   */\n      tag_247\n        /* \"#utility.yul\":13921:13931   */\n      dup4\n        /* \"#utility.yul\":13898:13932   */\n      tag_248\n      jump\t// in\n    tag_247:\n        /* \"#utility.yul\":13867:13933   */\n      tag_219\n      jump\t// in\n    tag_246:\n        /* \"#utility.yul\":13858:13933   */\n      swap1\n      pop\n        /* \"#utility.yul\":13773:13939   */\n      swap2\n      swap1\n      pop\n      jump\t// out\n        /* \"#utility.yul\":13945:14111   */\n    tag_161:\n        /* \"#utility.yul\":14014:14019   */\n      0x00\n        /* \"#utility.yul\":14039:14105   */\n      tag_250\n        /* \"#utility.yul\":14070:14104   */\n      tag_251\n        /* \"#utility.yul\":14093:14103   */\n      dup4\n        /* \"#utility.yul\":14070:14104   */\n      tag_248\n      jump\t// in\n    tag_251:\n        /* \"#utility.yul\":14039:14105   */\n      tag_225\n      jump\t// in\n    tag_250:\n        /* \"#utility.yul\":14030:14105   */\n      swap1\n      pop\n        /* \"#utility.yul\":13945:14111   */\n      swap2\n      swap1\n      pop\n      jump\t// out\n        /* \"#utility.yul\":14117:14280   */\n    tag_178:\n        /* \"#utility.yul\":14184:14189   */\n      0x00\n        /* \"#utility.yul\":14209:14274   */\n      tag_253\n        /* \"#utility.yul\":14237:14273   */\n      tag_254\n        /* \"#utility.yul\":14262:14272   */\n      dup4\n        /* \"#utility.yul\":14237:14273   */\n      tag_255\n      jump\t// in\n    tag_254:\n        /* \"#utility.yul\":14209:14274   */\n      tag_221\n      jump\t// in\n    tag_253:\n        /* \"#utility.yul\":14200:14274   */\n      swap1\n      pop\n        /* \"#utility.yul\":14117:14280   */\n      swap2\n      swap1\n      pop\n      jump\t// out\n        /* \"#utility.yul\":14286:14475   */\n    tag_181:\n        /* \"#utility.yul\":14366:14371   */\n      0x00\n        /* \"#utility.yul\":14391:14469   */\n      tag_257\n        /* \"#utility.yul\":14432:14468   */\n      tag_258\n        /* \"#utility.yul\":14457:14467   */\n      dup4\n        /* \"#utility.yul\":14432:14468   */\n      tag_259\n      jump\t// in\n    tag_258:\n        /* \"#utility.yul\":14391:14469   */\n      tag_223\n      jump\t// in\n    tag_257:\n        /* \"#utility.yul\":14382:14469   */\n      swap1\n      pop\n        /* \"#utility.yul\":14286:14475   */\n      swap2\n      swap1\n      pop\n      jump\t// out\n        /* \"#utility.yul\":14481:14762   */\n    tag_208:\n        /* \"#utility.yul\":14564:14591   */\n      tag_261\n        /* \"#utility.yul\":14586:14590   */\n      dup3\n        /* \"#utility.yul\":14564:14591   */\n      tag_215\n      jump\t// in\n    tag_261:\n        /* \"#utility.yul\":14556:14562   */\n      dup2\n        /* \"#utility.yul\":14552:14592   */\n      add\n        /* \"#utility.yul\":14694:14700   */\n      dup2\n        /* \"#utility.yul\":14682:14692   */\n      dup2\n        /* \"#utility.yul\":14679:14701   */\n      lt\n        /* \"#utility.yul\":14658:14676   */\n      0xffffffffffffffff\n        /* \"#utility.yul\":14646:14656   */\n      dup3\n        /* \"#utility.yul\":14643:14677   */\n      gt\n        /* \"#utility.yul\":14640:14702   */\n      or\n        /* \"#utility.yul\":14637:14725   */\n      iszero\n      tag_262\n      jumpi\n        /* \"#utility.yul\":14705:14723   */\n      tag_263\n      tag_213\n      jump\t// in\n    tag_263:\n        /* \"#utility.yul\":14637:14725   */\n    tag_262:\n        /* \"#utility.yul\":14745:14755   */\n      dup1\n        /* \"#utility.yul\":14741:14743   */\n      0x40\n        /* \"#utility.yul\":14734:14756   */\n      mstore\n        /* \"#utility.yul\":14524:14762   */\n      pop\n        /* \"#utility.yul\":14481:14762   */\n      pop\n      pop\n      jump\t// out\n        /* \"#utility.yul\":14768:15001   */\n    tag_57:\n        /* \"#utility.yul\":14807:14810   */\n      0x00\n        /* \"#utility.yul\":14830:14854   */\n      tag_265\n        /* \"#utility.yul\":14848:14853   */\n      dup3\n        /* \"#utility.yul\":14830:14854   */\n      tag_185\n      jump\t// in\n    tag_265:\n        /* \"#utility.yul\":14821:14854   */\n      swap2\n      pop\n        /* \"#utility.yul\":14876:14942   */\n      0xffffffffffffffffffffffffffffffffffffffffffffffffffffffffffffffff\n        /* \"#utility.yul\":14869:14874   */\n      dup3\n        /* \"#utility.yul\":14866:14943   */\n      eq\n        /* \"#utility.yul\":14863:14966   */\n      iszero\n      tag_266\n      jumpi\n        /* \"#utility.yul\":14946:14964   */\n      tag_267\n      tag_268\n      jump\t// in\n    tag_267:\n        /* \"#utility.yul\":14863:14966   */\n    tag_266:\n        /* \"#utility.yul\":14993:14994   */\n      0x01\n        /* \"#utility.yul\":14986:14991   */\n      dup3\n        /* \"#utility.yul\":14982:14995   */\n      add\n        /* \"#utility.yul\":14975:14995   */\n      swap1\n      pop\n        /* \"#utility.yul\":14768:15001   */\n      swap2\n      swap1\n      pop\n      jump\t// out\n        /* \"#utility.yul\":15007:15187   */\n    tag_268:\n        /* \"#utility.yul\":15055:15132   */\n      0x4e487b7100000000000000000000000000000000000000000000000000000000\n        /* \"#utility.yul\":15052:15053   */\n      0x00\n        /* \"#utility.yul\":15045:15133   */\n      mstore\n        /* \"#utility.yul\":15152:15156   */\n      0x11\n        /* \"#utility.yul\":15149:15150   */\n      0x04\n        /* \"#utility.yul\":15142:15157   */\n      mstore\n        /* \"#utility.yul\":15176:15180   */\n      0x24\n        /* \"#utility.yul\":15173:15174   */\n      0x00\n        /* \"#utility.yul\":15166:15181   */\n      revert\n        /* \"#utility.yul\":15193:15373   */\n    tag_30:\n        /* \"#utility.yul\":15241:15318   */\n      0x4e487b7100000000000000000000000000000000000000000000000000000000\n        /* \"#utility.yul\":15238:15239   */\n      0x00\n        /* \"#utility.yul\":15231:15319   */\n      mstore\n        /* \"#utility.yul\":15338:15342   */\n      0x21\n        /* \"#utility.yul\":15335:15336   */\n      0x04\n        /* \"#utility.yul\":15328:15343   */\n      mstore\n        /* \"#utility.yul\":15362:15366   */\n      0x24\n        /* \"#utility.yul\":15359:15360   */\n      0x00\n        /* \"#utility.yul\":15352:15367   */\n      revert\n        /* \"#utility.yul\":15379:15559   */\n    tag_244:\n        /* \"#utility.yul\":15427:15504   */\n      0x4e487b7100000000000000000000000000000000000000000000000000000000\n        /* \"#utility.yul\":15424:15425   */\n      0x00\n        /* \"#utility.yul\":15417:15505   */\n      mstore\n        /* \"#utility.yul\":15524:15528   */\n      0x22\n        /* \"#utility.yul\":15521:15522   */\n      0x04\n        /* \"#utility.yul\":15514:15529   */\n      mstore\n        /* \"#utility.yul\":15548:15552   */\n      0x24\n        /* \"#utility.yul\":15545:15546   */\n      0x00\n        /* \"#utility.yul\":15538:15553   */\n      revert\n        /* \"#utility.yul\":15565:15745   */\n    tag_213:\n        /* \"#utility.yul\":15613:15690   */\n      0x4e487b7100000000000000000000000000000000000000000000000000000000\n        /* \"#utility.yul\":15610:15611   */\n      0x00\n        /* \"#utility.yul\":15603:15691   */\n      mstore\n        /* \"#utility.yul\":15710:15714   */\n      0x41\n        /* \"#utility.yul\":15707:15708   */\n      0x04\n        /* \"#utility.yul\":15700:15715   */\n      mstore\n        /* \"#utility.yul\":15734:15738   */\n      0x24\n        /* \"#utility.yul\":15731:15732   */\n      0x00\n        /* \"#utility.yul\":15724:15739   */\n      revert\n        /* \"#utility.yul\":15751:15868   */\n    tag_85:\n        /* \"#utility.yul\":15860:15861   */\n      0x00\n        /* \"#utility.yul\":15857:15858   */\n      dup1\n        /* \"#utility.yul\":15850:15862   */\n      revert\n        /* \"#utility.yul\":15874:15991   */\n    tag_78:\n        /* \"#utility.yul\":15983:15984   */\n      0x00\n        /* \"#utility.yul\":15980:15981   */\n      dup1\n        /* \"#utility.yul\":15973:15985   */\n      revert\n        /* \"#utility.yul\":15997:16114   */\n    tag_97:\n        /* \"#utility.yul\":16106:16107   */\n      0x00\n        /* \"#utility.yul\":16103:16104   */\n      dup1\n        /* \"#utility.yul\":16096:16108   */\n      revert\n        /* \"#utility.yul\":16120:16237   */\n    tag_94:\n        /* \"#utility.yul\":16229:16230   */\n      0x00\n        /* \"#utility.yul\":16226:16227   */\n      dup1\n        /* \"#utility.yul\":16219:16231   */\n      revert\n        /* \"#utility.yul\":16243:16345   */\n    tag_215:\n        /* \"#utility.yul\":16284:16290   */\n      0x00\n        /* \"#utility.yul\":16335:16337   */\n      0x1f\n        /* \"#utility.yul\":16331:16338   */\n      not\n        /* \"#utility.yul\":16326:16328   */\n      0x1f\n        /* \"#utility.yul\":16319:16324   */\n      dup4\n        /* \"#utility.yul\":16315:16329   */\n      add\n        /* \"#utility.yul\":16311:16339   */\n      and\n        /* \"#utility.yul\":16301:16339   */\n      swap1\n      pop\n        /* \"#utility.yul\":16243:16345   */\n      swap2\n      swap1\n      pop\n      jump\t// out\n        /* \"#utility.yul\":16351:16453   */\n    tag_248:\n        /* \"#utility.yul\":16393:16401   */\n      0x00\n        /* \"#utility.yul\":16440:16445   */\n      dup2\n        /* \"#utility.yul\":16437:16438   */\n      0x00\n        /* \"#utility.yul\":16433:16446   */\n      shr\n        /* \"#utility.yul\":16412:16446   */\n      swap1\n      pop\n        /* \"#utility.yul\":16351:16453   */\n      swap2\n      swap1\n      pop\n      jump\t// out\n        /* \"#utility.yul\":16459:16565   */\n    tag_255:\n        /* \"#utility.yul\":16503:16511   */\n      0x00\n        /* \"#utility.yul\":16552:16557   */\n      dup2\n        /* \"#utility.yul\":16547:16550   */\n      0xa0\n        /* \"#utility.yul\":16543:16558   */\n      shr\n        /* \"#utility.yul\":16522:16558   */\n      swap1\n      pop\n        /* \"#utility.yul\":16459:16565   */\n      swap2\n      swap1\n      pop\n      jump\t// out\n        /* \"#utility.yul\":16571:16677   */\n    tag_259:\n        /* \"#utility.yul\":16615:16623   */\n      0x00\n        /* \"#utility.yul\":16664:16669   */\n      dup2\n        /* \"#utility.yul\":16659:16662   */\n      0xa8\n        /* \"#utility.yul\":16655:16670   */\n      shr\n        /* \"#utility.yul\":16634:16670   */\n      swap1\n      pop\n        /* \"#utility.yul\":16571:16677   */\n      swap2\n      swap1\n      pop\n      jump\t// out\n        /* \"#utility.yul\":16683:16903   */\n    tag_137:\n        /* \"#utility.yul\":16823:16857   */\n      0x412053657276696365205072696365206d757374206265207370656369666965\n        /* \"#utility.yul\":16819:16820   */\n      0x00\n        /* \"#utility.yul\":16811:16817   */\n      dup3\n        /* \"#utility.yul\":16807:16821   */\n      add\n        /* \"#utility.yul\":16800:16858   */\n      mstore\n        /* \"#utility.yul\":16892:16895   */\n      0x6400000000000000000000000000000000000000000000000000000000000000\n        /* \"#utility.yul\":16887:16889   */\n      0x20\n        /* \"#utility.yul\":16879:16885   */\n      dup3\n        /* \"#utility.yul\":16875:16890   */\n      add\n        /* \"#utility.yul\":16868:16896   */\n      mstore\n        /* \"#utility.yul\":16683:16903   */\n      pop\n      jump\t// out\n        /* \"#utility.yul\":16909:17160   */\n    tag_142:\n        /* \"#utility.yul\":17049:17083   */\n      0x556e617574686f72697365642061636365737320746f20736572766963652c20\n        /* \"#utility.yul\":17045:17046   */\n      0x00\n        /* \"#utility.yul\":17037:17043   */\n      dup3\n        /* \"#utility.yul\":17033:17047   */\n      add\n        /* \"#utility.yul\":17026:17084   */\n      mstore\n        /* \"#utility.yul\":17118:17152   */\n      0x6f6e6c7920736572766963652070726f76696465722063616e20616363657373\n        /* \"#utility.yul\":17113:17115   */\n      0x20\n        /* \"#utility.yul\":17105:17111   */\n      dup3\n        /* \"#utility.yul\":17101:17116   */\n      add\n        /* \"#utility.yul\":17094:17153   */\n      mstore\n        /* \"#utility.yul\":16909:17160   */\n      pop\n      jump\t// out\n        /* \"#utility.yul\":17166:17415   */\n    tag_147:\n        /* \"#utility.yul\":17306:17340   */\n      0x54686520737461747573206f662074686973207365727669636520646f657320\n        /* \"#utility.yul\":17302:17303   */\n      0x00\n        /* \"#utility.yul\":17294:17300   */\n      dup3\n        /* \"#utility.yul\":17290:17304   */\n      add\n        /* \"#utility.yul\":17283:17341   */\n      mstore\n        /* \"#utility.yul\":17375:17407   */\n      0x6e6f74206d617463682074686520696e74656e646564207374617475732e0000\n        /* \"#utility.yul\":17370:17372   */\n      0x20\n        /* \"#utility.yul\":17362:17368   */\n      dup3\n        /* \"#utility.yul\":17358:17373   */\n      add\n        /* \"#utility.yul\":17351:17408   */\n      mstore\n        /* \"#utility.yul\":17166:17415   */\n      pop\n      jump\t// out\n        /* \"#utility.yul\":17421:17592   */\n    tag_152:\n        /* \"#utility.yul\":17561:17584   */\n      0x4120737472696e67206973207265717569726564210000000000000000000000\n        /* \"#utility.yul\":17557:17558   */\n      0x00\n        /* \"#utility.yul\":17549:17555   */\n      dup3\n        /* \"#utility.yul\":17545:17559   */\n      add\n        /* \"#utility.yul\":17538:17585   */\n      mstore\n        /* \"#utility.yul\":17421:17592   */\n      pop\n      jump\t// out\n        /* \"#utility.yul\":17598:17841   */\n    tag_157:\n        /* \"#utility.yul\":17738:17772   */\n      0x54686973207365727669636520686173206265656e2064656c6574656420616e\n        /* \"#utility.yul\":17734:17735   */\n      0x00\n        /* \"#utility.yul\":17726:17732   */\n      dup3\n        /* \"#utility.yul\":17722:17736   */\n      add\n        /* \"#utility.yul\":17715:17773   */\n      mstore\n        /* \"#utility.yul\":17807:17833   */\n      0x6420646f6573206e6f7420657869737420616e796d6f72650000000000000000\n        /* \"#utility.yul\":17802:17804   */\n      0x20\n        /* \"#utility.yul\":17794:17800   */\n      dup3\n        /* \"#utility.yul\":17790:17805   */\n      add\n        /* \"#utility.yul\":17783:17834   */\n      mstore\n        /* \"#utility.yul\":17598:17841   */\n      pop\n      jump\t// out\n        /* \"#utility.yul\":17847:17962   */\n    tag_234:\n        /* \"#utility.yul\":17930:17931   */\n      0x06\n        /* \"#utility.yul\":17923:17928   */\n      dup2\n        /* \"#utility.yul\":17920:17932   */\n      lt\n        /* \"#utility.yul\":17910:17956   */\n      tag_287\n      jumpi\n        /* \"#utility.yul\":17936:17954   */\n      tag_288\n      tag_30\n      jump\t// in\n    tag_288:\n        /* \"#utility.yul\":17910:17956   */\n    tag_287:\n        /* \"#utility.yul\":17847:17962   */\n      pop\n      jump\t// out\n        /* \"#utility.yul\":17968:18090   */\n    tag_90:\n        /* \"#utility.yul\":18041:18065   */\n      tag_290\n        /* \"#utility.yul\":18059:18064   */\n      dup2\n        /* \"#utility.yul\":18041:18065   */\n      tag_185\n      jump\t// in\n    tag_290:\n        /* \"#utility.yul\":18034:18039   */\n      dup2\n        /* \"#utility.yul\":18031:18066   */\n      eq\n        /* \"#utility.yul\":18021:18084   */\n      tag_291\n      jumpi\n        /* \"#utility.yul\":18080:18081   */\n      0x00\n        /* \"#utility.yul\":18077:18078   */\n      dup1\n        /* \"#utility.yul\":18070:18082   */\n      revert\n        /* \"#utility.yul\":18021:18084   */\n    tag_291:\n        /* \"#utility.yul\":17968:18090   */\n      pop\n      jump\t// out\n\n    auxdata: 0xa2646970667358221220ab846a3b9d3791160a2c4998b6dae566794d5ffa3e4e65a36463095bd7f3671a64736f6c63430008070033\n}\n",
				"bytecode": {
					"linkReferences": {},
					"object": "608060405260006002553480156200001657600080fd5b506040516200107c3803806200107c83398181016040528101906200003c91906200005a565b50620000f3565b6000815190506200005481620000d9565b92915050565b600060208284031215620000735762000072620000d4565b5b6000620000838482850162000043565b91505092915050565b60006200009982620000b4565b9050919050565b6000620000ad826200008c565b9050919050565b600073ffffffffffffffffffffffffffffffffffffffff82169050919050565b600080fd5b620000e481620000a0565b8114620000f057600080fd5b50565b610f7980620001036000396000f3fe608060405234801561001057600080fd5b50600436106100415760003560e01c806374e29ee614610046578063854c470714610062578063e9ed56a514610080575b600080fd5b610060600480360381019061005b919061068f565b6100b0565b005b61006a6102b9565b60405161007791906109ff565b60405180910390f35b61009a60048036038101906100959190610604565b6102bf565b6040516100a791906109ff565b60405180910390f35b806001600082815260200190815260200160002060060160009054906101000a900473ffffffffffffffffffffffffffffffffffffffff1673ffffffffffffffffffffffffffffffffffffffff163373ffffffffffffffffffffffffffffffffffffffff1614610155576040517f08c379a000000000000000000000000000000000000000000000000000000000815260040161014c9061097f565b60405180910390fd5b81600115156001600083815260200190815260200160002060070160149054906101000a900460ff161515146101c0576040517f08c379a00000000000000000000000000000000000000000000000000000000081526004016101b7906109df565b60405180910390fd5b8260008060058111156101d6576101d5610cda565b5b6001600084815260200190815260200160002060070160159054906101000a900460ff16600581111561020c5761020b610cda565b5b1461024c576040517f08c379a00000000000000000000000000000000000000000000000000000000081526004016102439061099f565b60405180910390fd5b60006001600087815260200190815260200160002060070160146101000a81548160ff0219169083151502179055507f6694ca203a0738585d2b2d17b211195dfb43e09eb19ac1f2c3a59c168e135872856040516102aa91906109ff565b60405180910390a15050505050565b60025481565b6000836000815111610306576040517f08c379a00000000000000000000000000000000000000000000000000000000081526004016102fd906109bf565b60405180910390fd5b83600081511161034b576040517f08c379a0000000000000000000000000000000000000000000000000000000008152600401610342906109bf565b60405180910390fd5b6000841161038e576040517f08c379a00000000000000000000000000000000000000000000000000000000081526004016103859061095f565b60405180910390fd5b60006001600060025481526020019081526020016000209050868160010190805190602001906103bf9291906104dc565b50858160020190805190602001906103d89291906104dc565b508481600301819055506002548160050181905550338160060160006101000a81548173ffffffffffffffffffffffffffffffffffffffff021916908373ffffffffffffffffffffffffffffffffffffffff16021790555060018160070160146101000a81548160ff02191690831515021790555060008160070160156101000a81548160ff0219169083600581111561047557610474610cda565b5b02179055507f758e44eab201e6a5cd91575a09b546834ec55366c96d92cbf24ad0049aee3de5600254826040516104ad929190610a1a565b60405180910390a1600260008154809291906104c890610c62565b919050555060025493505050509392505050565b8280546104e890610b97565b90600052602060002090601f01602090048101928261050a5760008555610551565b82601f1061052357805160ff1916838001178555610551565b82800160010185558215610551579182015b82811115610550578251825591602001919060010190610535565b5b50905061055e9190610562565b5090565b5b8082111561057b576000816000905550600101610563565b5090565b600061059261058d84610a6f565b610a4a565b9050828152602081018484840111156105ae576105ad610d6c565b5b6105b9848285610b88565b509392505050565b600082601f8301126105d6576105d5610d67565b5b81356105e684826020860161057f565b91505092915050565b6000813590506105fe81610f2c565b92915050565b60008060006060848603121561061d5761061c610d76565b5b600084013567ffffffffffffffff81111561063b5761063a610d71565b5b610647868287016105c1565b935050602084013567ffffffffffffffff81111561066857610667610d71565b5b610674868287016105c1565b9250506040610685868287016105ef565b9150509250925092565b6000602082840312156106a5576106a4610d76565b5b60006106b3848285016105ef565b91505092915050565b6106c581610b1b565b82525050565b6106d481610b2d565b82525050565b6106e381610b76565b82525050565b600081546106f681610b97565b6107008186610ab5565b9450600182166000811461071b576001811461072d57610760565b60ff1983168652602086019350610760565b61073685610aa0565b60005b8381101561075857815481890152600182019150602081019050610739565b808801955050505b50505092915050565b6000610776602183610ac6565b915061078182610db3565b604082019050919050565b6000610799604083610ac6565b91506107a482610e02565b604082019050919050565b60006107bc603e83610ac6565b91506107c782610e51565b604082019050919050565b60006107df601583610ac6565b91506107ea82610ea0565b602082019050919050565b6000610802603883610ac6565b915061080d82610ec9565b604082019050919050565b60006101408301600080840154905061083081610be3565b61083d6000870182610941565b5060018401858303602087015261085483826106e9565b92505060028401858303604087015261086d83826106e9565b9250506003840154905061088081610be3565b61088d6060870182610941565b506004840154905061089e81610be3565b6108ab6080870182610941565b50600584015490506108bc81610be3565b6108c960a0870182610941565b50600684015490506108da81610bc9565b6108e760c08701826106bc565b50600784015490506108f881610bc9565b61090560e08701826106bc565b5061090f81610bfd565b61091d6101008701826106cb565b5061092781610c17565b6109356101208701826106da565b50819250505092915050565b61094a81610b6c565b82525050565b61095981610b6c565b82525050565b6000602082019050818103600083015261097881610769565b9050919050565b600060208201905081810360008301526109988161078c565b9050919050565b600060208201905081810360008301526109b8816107af565b9050919050565b600060208201905081810360008301526109d8816107d2565b9050919050565b600060208201905081810360008301526109f8816107f5565b9050919050565b6000602082019050610a146000830184610950565b92915050565b6000604082019050610a2f6000830185610950565b8181036020830152610a418184610818565b90509392505050565b6000610a54610a65565b9050610a608282610c31565b919050565b6000604051905090565b600067ffffffffffffffff821115610a8a57610a89610d38565b5b610a9382610d7b565b9050602081019050919050565b60008190508160005260206000209050919050565b600082825260208201905092915050565b600082825260208201905092915050565b600073ffffffffffffffffffffffffffffffffffffffff82169050919050565b600060ff82169050919050565b600060ff82169050919050565b6000819050919050565b6000610b2682610b4c565b9050919050565b60008115159050919050565b6000819050610b4782610f18565b919050565b600073ffffffffffffffffffffffffffffffffffffffff82169050919050565b6000819050919050565b6000610b8182610b39565b9050919050565b82818337600083830152505050565b60006002820490506001821680610baf57607f821691505b60208210811415610bc357610bc2610d09565b5b50919050565b6000610bdc610bd783610d8c565b610ad7565b9050919050565b6000610bf6610bf183610d8c565b610b11565b9050919050565b6000610c10610c0b83610d99565b610af7565b9050919050565b6000610c2a610c2583610da6565b610b04565b9050919050565b610c3a82610d7b565b810181811067ffffffffffffffff82111715610c5957610c58610d38565b5b80604052505050565b6000610c6d82610b6c565b91507fffffffffffffffffffffffffffffffffffffffffffffffffffffffffffffffff821415610ca057610c9f610cab565b5b600182019050919050565b7f4e487b7100000000000000000000000000000000000000000000000000000000600052601160045260246000fd5b7f4e487b7100000000000000000000000000000000000000000000000000000000600052602160045260246000fd5b7f4e487b7100000000000000000000000000000000000000000000000000000000600052602260045260246000fd5b7f4e487b7100000000000000000000000000000000000000000000000000000000600052604160045260246000fd5b600080fd5b600080fd5b600080fd5b600080fd5b6000601f19601f8301169050919050565b60008160001c9050919050565b60008160a01c9050919050565b60008160a81c9050919050565b7f412053657276696365205072696365206d75737420626520737065636966696560008201527f6400000000000000000000000000000000000000000000000000000000000000602082015250565b7f556e617574686f72697365642061636365737320746f20736572766963652c2060008201527f6f6e6c7920736572766963652070726f76696465722063616e20616363657373602082015250565b7f54686520737461747573206f662074686973207365727669636520646f65732060008201527f6e6f74206d617463682074686520696e74656e646564207374617475732e0000602082015250565b7f4120737472696e67206973207265717569726564210000000000000000000000600082015250565b7f54686973207365727669636520686173206265656e2064656c6574656420616e60008201527f6420646f6573206e6f7420657869737420616e796d6f72650000000000000000602082015250565b60068110610f2957610f28610cda565b5b50565b610f3581610b6c565b8114610f4057600080fd5b5056fea2646970667358221220ab846a3b9d3791160a2c4998b6dae566794d5ffa3e4e65a36463095bd7f3671a64736f6c63430008070033",
					"opcodes": "PUSH1 0x80 PUSH1 0x40 MSTORE PUSH1 0x0 PUSH1 0x2 SSTORE CALLVALUE DUP1 ISZERO PUSH3 0x16 JUMPI PUSH1 0x0 DUP1 REVERT JUMPDEST POP PUSH1 0x40 MLOAD PUSH3 0x107C CODESIZE SUB DUP1 PUSH3 0x107C DUP4 CODECOPY DUP2 DUP2 ADD PUSH1 0x40 MSTORE DUP2 ADD SWAP1 PUSH3 0x3C SWAP2 SWAP1 PUSH3 0x5A JUMP JUMPDEST POP PUSH3 0xF3 JUMP JUMPDEST PUSH1 0x0 DUP2 MLOAD SWAP1 POP PUSH3 0x54 DUP2 PUSH3 0xD9 JUMP JUMPDEST SWAP3 SWAP2 POP POP JUMP JUMPDEST PUSH1 0x0 PUSH1 0x20 DUP3 DUP5 SUB SLT ISZERO PUSH3 0x73 JUMPI PUSH3 0x72 PUSH3 0xD4 JUMP JUMPDEST JUMPDEST PUSH1 0x0 PUSH3 0x83 DUP5 DUP3 DUP6 ADD PUSH3 0x43 JUMP JUMPDEST SWAP2 POP POP SWAP3 SWAP2 POP POP JUMP JUMPDEST PUSH1 0x0 PUSH3 0x99 DUP3 PUSH3 0xB4 JUMP JUMPDEST SWAP1 POP SWAP2 SWAP1 POP JUMP JUMPDEST PUSH1 0x0 PUSH3 0xAD DUP3 PUSH3 0x8C JUMP JUMPDEST SWAP1 POP SWAP2 SWAP1 POP JUMP JUMPDEST PUSH1 0x0 PUSH20 0xFFFFFFFFFFFFFFFFFFFFFFFFFFFFFFFFFFFFFFFF DUP3 AND SWAP1 POP SWAP2 SWAP1 POP JUMP JUMPDEST PUSH1 0x0 DUP1 REVERT JUMPDEST PUSH3 0xE4 DUP2 PUSH3 0xA0 JUMP JUMPDEST DUP2 EQ PUSH3 0xF0 JUMPI PUSH1 0x0 DUP1 REVERT JUMPDEST POP JUMP JUMPDEST PUSH2 0xF79 DUP1 PUSH3 0x103 PUSH1 0x0 CODECOPY PUSH1 0x0 RETURN INVALID PUSH1 0x80 PUSH1 0x40 MSTORE CALLVALUE DUP1 ISZERO PUSH2 0x10 JUMPI PUSH1 0x0 DUP1 REVERT JUMPDEST POP PUSH1 0x4 CALLDATASIZE LT PUSH2 0x41 JUMPI PUSH1 0x0 CALLDATALOAD PUSH1 0xE0 SHR DUP1 PUSH4 0x74E29EE6 EQ PUSH2 0x46 JUMPI DUP1 PUSH4 0x854C4707 EQ PUSH2 0x62 JUMPI DUP1 PUSH4 0xE9ED56A5 EQ PUSH2 0x80 JUMPI JUMPDEST PUSH1 0x0 DUP1 REVERT JUMPDEST PUSH2 0x60 PUSH1 0x4 DUP1 CALLDATASIZE SUB DUP2 ADD SWAP1 PUSH2 0x5B SWAP2 SWAP1 PUSH2 0x68F JUMP JUMPDEST PUSH2 0xB0 JUMP JUMPDEST STOP JUMPDEST PUSH2 0x6A PUSH2 0x2B9 JUMP JUMPDEST PUSH1 0x40 MLOAD PUSH2 0x77 SWAP2 SWAP1 PUSH2 0x9FF JUMP JUMPDEST PUSH1 0x40 MLOAD DUP1 SWAP2 SUB SWAP1 RETURN JUMPDEST PUSH2 0x9A PUSH1 0x4 DUP1 CALLDATASIZE SUB DUP2 ADD SWAP1 PUSH2 0x95 SWAP2 SWAP1 PUSH2 0x604 JUMP JUMPDEST PUSH2 0x2BF JUMP JUMPDEST PUSH1 0x40 MLOAD PUSH2 0xA7 SWAP2 SWAP1 PUSH2 0x9FF JUMP JUMPDEST PUSH1 0x40 MLOAD DUP1 SWAP2 SUB SWAP1 RETURN JUMPDEST DUP1 PUSH1 0x1 PUSH1 0x0 DUP3 DUP2 MSTORE PUSH1 0x20 ADD SWAP1 DUP2 MSTORE PUSH1 0x20 ADD PUSH1 0x0 KECCAK256 PUSH1 0x6 ADD PUSH1 0x0 SWAP1 SLOAD SWAP1 PUSH2 0x100 EXP SWAP1 DIV PUSH20 0xFFFFFFFFFFFFFFFFFFFFFFFFFFFFFFFFFFFFFFFF AND PUSH20 0xFFFFFFFFFFFFFFFFFFFFFFFFFFFFFFFFFFFFFFFF AND CALLER PUSH20 0xFFFFFFFFFFFFFFFFFFFFFFFFFFFFFFFFFFFFFFFF AND EQ PUSH2 0x155 JUMPI PUSH1 0x40 MLOAD PUSH32 0x8C379A000000000000000000000000000000000000000000000000000000000 DUP2 MSTORE PUSH1 0x4 ADD PUSH2 0x14C SWAP1 PUSH2 0x97F JUMP JUMPDEST PUSH1 0x40 MLOAD DUP1 SWAP2 SUB SWAP1 REVERT JUMPDEST DUP2 PUSH1 0x1 ISZERO ISZERO PUSH1 0x1 PUSH1 0x0 DUP4 DUP2 MSTORE PUSH1 0x20 ADD SWAP1 DUP2 MSTORE PUSH1 0x20 ADD PUSH1 0x0 KECCAK256 PUSH1 0x7 ADD PUSH1 0x14 SWAP1 SLOAD SWAP1 PUSH2 0x100 EXP SWAP1 DIV PUSH1 0xFF AND ISZERO ISZERO EQ PUSH2 0x1C0 JUMPI PUSH1 0x40 MLOAD PUSH32 0x8C379A000000000000000000000000000000000000000000000000000000000 DUP2 MSTORE PUSH1 0x4 ADD PUSH2 0x1B7 SWAP1 PUSH2 0x9DF JUMP JUMPDEST PUSH1 0x40 MLOAD DUP1 SWAP2 SUB SWAP1 REVERT JUMPDEST DUP3 PUSH1 0x0 DUP1 PUSH1 0x5 DUP2 GT ISZERO PUSH2 0x1D6 JUMPI PUSH2 0x1D5 PUSH2 0xCDA JUMP JUMPDEST JUMPDEST PUSH1 0x1 PUSH1 0x0 DUP5 DUP2 MSTORE PUSH1 0x20 ADD SWAP1 DUP2 MSTORE PUSH1 0x20 ADD PUSH1 0x0 KECCAK256 PUSH1 0x7 ADD PUSH1 0x15 SWAP1 SLOAD SWAP1 PUSH2 0x100 EXP SWAP1 DIV PUSH1 0xFF AND PUSH1 0x5 DUP2 GT ISZERO PUSH2 0x20C JUMPI PUSH2 0x20B PUSH2 0xCDA JUMP JUMPDEST JUMPDEST EQ PUSH2 0x24C JUMPI PUSH1 0x40 MLOAD PUSH32 0x8C379A000000000000000000000000000000000000000000000000000000000 DUP2 MSTORE PUSH1 0x4 ADD PUSH2 0x243 SWAP1 PUSH2 0x99F JUMP JUMPDEST PUSH1 0x40 MLOAD DUP1 SWAP2 SUB SWAP1 REVERT JUMPDEST PUSH1 0x0 PUSH1 0x1 PUSH1 0x0 DUP8 DUP2 MSTORE PUSH1 0x20 ADD SWAP1 DUP2 MSTORE PUSH1 0x20 ADD PUSH1 0x0 KECCAK256 PUSH1 0x7 ADD PUSH1 0x14 PUSH2 0x100 EXP DUP2 SLOAD DUP2 PUSH1 0xFF MUL NOT AND SWAP1 DUP4 ISZERO ISZERO MUL OR SWAP1 SSTORE POP PUSH32 0x6694CA203A0738585D2B2D17B211195DFB43E09EB19AC1F2C3A59C168E135872 DUP6 PUSH1 0x40 MLOAD PUSH2 0x2AA SWAP2 SWAP1 PUSH2 0x9FF JUMP JUMPDEST PUSH1 0x40 MLOAD DUP1 SWAP2 SUB SWAP1 LOG1 POP POP POP POP POP JUMP JUMPDEST PUSH1 0x2 SLOAD DUP2 JUMP JUMPDEST PUSH1 0x0 DUP4 PUSH1 0x0 DUP2 MLOAD GT PUSH2 0x306 JUMPI PUSH1 0x40 MLOAD PUSH32 0x8C379A000000000000000000000000000000000000000000000000000000000 DUP2 MSTORE PUSH1 0x4 ADD PUSH2 0x2FD SWAP1 PUSH2 0x9BF JUMP JUMPDEST PUSH1 0x40 MLOAD DUP1 SWAP2 SUB SWAP1 REVERT JUMPDEST DUP4 PUSH1 0x0 DUP2 MLOAD GT PUSH2 0x34B JUMPI PUSH1 0x40 MLOAD PUSH32 0x8C379A000000000000000000000000000000000000000000000000000000000 DUP2 MSTORE PUSH1 0x4 ADD PUSH2 0x342 SWAP1 PUSH2 0x9BF JUMP JUMPDEST PUSH1 0x40 MLOAD DUP1 SWAP2 SUB SWAP1 REVERT JUMPDEST PUSH1 0x0 DUP5 GT PUSH2 0x38E JUMPI PUSH1 0x40 MLOAD PUSH32 0x8C379A000000000000000000000000000000000000000000000000000000000 DUP2 MSTORE PUSH1 0x4 ADD PUSH2 0x385 SWAP1 PUSH2 0x95F JUMP JUMPDEST PUSH1 0x40 MLOAD DUP1 SWAP2 SUB SWAP1 REVERT JUMPDEST PUSH1 0x0 PUSH1 0x1 PUSH1 0x0 PUSH1 0x2 SLOAD DUP2 MSTORE PUSH1 0x20 ADD SWAP1 DUP2 MSTORE PUSH1 0x20 ADD PUSH1 0x0 KECCAK256 SWAP1 POP DUP7 DUP2 PUSH1 0x1 ADD SWAP1 DUP1 MLOAD SWAP1 PUSH1 0x20 ADD SWAP1 PUSH2 0x3BF SWAP3 SWAP2 SWAP1 PUSH2 0x4DC JUMP JUMPDEST POP DUP6 DUP2 PUSH1 0x2 ADD SWAP1 DUP1 MLOAD SWAP1 PUSH1 0x20 ADD SWAP1 PUSH2 0x3D8 SWAP3 SWAP2 SWAP1 PUSH2 0x4DC JUMP JUMPDEST POP DUP5 DUP2 PUSH1 0x3 ADD DUP2 SWAP1 SSTORE POP PUSH1 0x2 SLOAD DUP2 PUSH1 0x5 ADD DUP2 SWAP1 SSTORE POP CALLER DUP2 PUSH1 0x6 ADD PUSH1 0x0 PUSH2 0x100 EXP DUP2 SLOAD DUP2 PUSH20 0xFFFFFFFFFFFFFFFFFFFFFFFFFFFFFFFFFFFFFFFF MUL NOT AND SWAP1 DUP4 PUSH20 0xFFFFFFFFFFFFFFFFFFFFFFFFFFFFFFFFFFFFFFFF AND MUL OR SWAP1 SSTORE POP PUSH1 0x1 DUP2 PUSH1 0x7 ADD PUSH1 0x14 PUSH2 0x100 EXP DUP2 SLOAD DUP2 PUSH1 0xFF MUL NOT AND SWAP1 DUP4 ISZERO ISZERO MUL OR SWAP1 SSTORE POP PUSH1 0x0 DUP2 PUSH1 0x7 ADD PUSH1 0x15 PUSH2 0x100 EXP DUP2 SLOAD DUP2 PUSH1 0xFF MUL NOT AND SWAP1 DUP4 PUSH1 0x5 DUP2 GT ISZERO PUSH2 0x475 JUMPI PUSH2 0x474 PUSH2 0xCDA JUMP JUMPDEST JUMPDEST MUL OR SWAP1 SSTORE POP PUSH32 0x758E44EAB201E6A5CD91575A09B546834EC55366C96D92CBF24AD0049AEE3DE5 PUSH1 0x2 SLOAD DUP3 PUSH1 0x40 MLOAD PUSH2 0x4AD SWAP3 SWAP2 SWAP1 PUSH2 0xA1A JUMP JUMPDEST PUSH1 0x40 MLOAD DUP1 SWAP2 SUB SWAP1 LOG1 PUSH1 0x2 PUSH1 0x0 DUP2 SLOAD DUP1 SWAP3 SWAP2 SWAP1 PUSH2 0x4C8 SWAP1 PUSH2 0xC62 JUMP JUMPDEST SWAP2 SWAP1 POP SSTORE POP PUSH1 0x2 SLOAD SWAP4 POP POP POP POP SWAP4 SWAP3 POP POP POP JUMP JUMPDEST DUP3 DUP1 SLOAD PUSH2 0x4E8 SWAP1 PUSH2 0xB97 JUMP JUMPDEST SWAP1 PUSH1 0x0 MSTORE PUSH1 0x20 PUSH1 0x0 KECCAK256 SWAP1 PUSH1 0x1F ADD PUSH1 0x20 SWAP1 DIV DUP2 ADD SWAP3 DUP3 PUSH2 0x50A JUMPI PUSH1 0x0 DUP6 SSTORE PUSH2 0x551 JUMP JUMPDEST DUP3 PUSH1 0x1F LT PUSH2 0x523 JUMPI DUP1 MLOAD PUSH1 0xFF NOT AND DUP4 DUP1 ADD OR DUP6 SSTORE PUSH2 0x551 JUMP JUMPDEST DUP3 DUP1 ADD PUSH1 0x1 ADD DUP6 SSTORE DUP3 ISZERO PUSH2 0x551 JUMPI SWAP2 DUP3 ADD JUMPDEST DUP3 DUP2 GT ISZERO PUSH2 0x550 JUMPI DUP3 MLOAD DUP3 SSTORE SWAP2 PUSH1 0x20 ADD SWAP2 SWAP1 PUSH1 0x1 ADD SWAP1 PUSH2 0x535 JUMP JUMPDEST JUMPDEST POP SWAP1 POP PUSH2 0x55E SWAP2 SWAP1 PUSH2 0x562 JUMP JUMPDEST POP SWAP1 JUMP JUMPDEST JUMPDEST DUP1 DUP3 GT ISZERO PUSH2 0x57B JUMPI PUSH1 0x0 DUP2 PUSH1 0x0 SWAP1 SSTORE POP PUSH1 0x1 ADD PUSH2 0x563 JUMP JUMPDEST POP SWAP1 JUMP JUMPDEST PUSH1 0x0 PUSH2 0x592 PUSH2 0x58D DUP5 PUSH2 0xA6F JUMP JUMPDEST PUSH2 0xA4A JUMP JUMPDEST SWAP1 POP DUP3 DUP2 MSTORE PUSH1 0x20 DUP2 ADD DUP5 DUP5 DUP5 ADD GT ISZERO PUSH2 0x5AE JUMPI PUSH2 0x5AD PUSH2 0xD6C JUMP JUMPDEST JUMPDEST PUSH2 0x5B9 DUP5 DUP3 DUP6 PUSH2 0xB88 JUMP JUMPDEST POP SWAP4 SWAP3 POP POP POP JUMP JUMPDEST PUSH1 0x0 DUP3 PUSH1 0x1F DUP4 ADD SLT PUSH2 0x5D6 JUMPI PUSH2 0x5D5 PUSH2 0xD67 JUMP JUMPDEST JUMPDEST DUP2 CALLDATALOAD PUSH2 0x5E6 DUP5 DUP3 PUSH1 0x20 DUP7 ADD PUSH2 0x57F JUMP JUMPDEST SWAP2 POP POP SWAP3 SWAP2 POP POP JUMP JUMPDEST PUSH1 0x0 DUP2 CALLDATALOAD SWAP1 POP PUSH2 0x5FE DUP2 PUSH2 0xF2C JUMP JUMPDEST SWAP3 SWAP2 POP POP JUMP JUMPDEST PUSH1 0x0 DUP1 PUSH1 0x0 PUSH1 0x60 DUP5 DUP7 SUB SLT ISZERO PUSH2 0x61D JUMPI PUSH2 0x61C PUSH2 0xD76 JUMP JUMPDEST JUMPDEST PUSH1 0x0 DUP5 ADD CALLDATALOAD PUSH8 0xFFFFFFFFFFFFFFFF DUP2 GT ISZERO PUSH2 0x63B JUMPI PUSH2 0x63A PUSH2 0xD71 JUMP JUMPDEST JUMPDEST PUSH2 0x647 DUP7 DUP3 DUP8 ADD PUSH2 0x5C1 JUMP JUMPDEST SWAP4 POP POP PUSH1 0x20 DUP5 ADD CALLDATALOAD PUSH8 0xFFFFFFFFFFFFFFFF DUP2 GT ISZERO PUSH2 0x668 JUMPI PUSH2 0x667 PUSH2 0xD71 JUMP JUMPDEST JUMPDEST PUSH2 0x674 DUP7 DUP3 DUP8 ADD PUSH2 0x5C1 JUMP JUMPDEST SWAP3 POP POP PUSH1 0x40 PUSH2 0x685 DUP7 DUP3 DUP8 ADD PUSH2 0x5EF JUMP JUMPDEST SWAP2 POP POP SWAP3 POP SWAP3 POP SWAP3 JUMP JUMPDEST PUSH1 0x0 PUSH1 0x20 DUP3 DUP5 SUB SLT ISZERO PUSH2 0x6A5 JUMPI PUSH2 0x6A4 PUSH2 0xD76 JUMP JUMPDEST JUMPDEST PUSH1 0x0 PUSH2 0x6B3 DUP5 DUP3 DUP6 ADD PUSH2 0x5EF JUMP JUMPDEST SWAP2 POP POP SWAP3 SWAP2 POP POP JUMP JUMPDEST PUSH2 0x6C5 DUP2 PUSH2 0xB1B JUMP JUMPDEST DUP3 MSTORE POP POP JUMP JUMPDEST PUSH2 0x6D4 DUP2 PUSH2 0xB2D JUMP JUMPDEST DUP3 MSTORE POP POP JUMP JUMPDEST PUSH2 0x6E3 DUP2 PUSH2 0xB76 JUMP JUMPDEST DUP3 MSTORE POP POP JUMP JUMPDEST PUSH1 0x0 DUP2 SLOAD PUSH2 0x6F6 DUP2 PUSH2 0xB97 JUMP JUMPDEST PUSH2 0x700 DUP2 DUP7 PUSH2 0xAB5 JUMP JUMPDEST SWAP5 POP PUSH1 0x1 DUP3 AND PUSH1 0x0 DUP2 EQ PUSH2 0x71B JUMPI PUSH1 0x1 DUP2 EQ PUSH2 0x72D JUMPI PUSH2 0x760 JUMP JUMPDEST PUSH1 0xFF NOT DUP4 AND DUP7 MSTORE PUSH1 0x20 DUP7 ADD SWAP4 POP PUSH2 0x760 JUMP JUMPDEST PUSH2 0x736 DUP6 PUSH2 0xAA0 JUMP JUMPDEST PUSH1 0x0 JUMPDEST DUP4 DUP2 LT ISZERO PUSH2 0x758 JUMPI DUP2 SLOAD DUP2 DUP10 ADD MSTORE PUSH1 0x1 DUP3 ADD SWAP2 POP PUSH1 0x20 DUP2 ADD SWAP1 POP PUSH2 0x739 JUMP JUMPDEST DUP1 DUP9 ADD SWAP6 POP POP POP JUMPDEST POP POP POP SWAP3 SWAP2 POP POP JUMP JUMPDEST PUSH1 0x0 PUSH2 0x776 PUSH1 0x21 DUP4 PUSH2 0xAC6 JUMP JUMPDEST SWAP2 POP PUSH2 0x781 DUP3 PUSH2 0xDB3 JUMP JUMPDEST PUSH1 0x40 DUP3 ADD SWAP1 POP SWAP2 SWAP1 POP JUMP JUMPDEST PUSH1 0x0 PUSH2 0x799 PUSH1 0x40 DUP4 PUSH2 0xAC6 JUMP JUMPDEST SWAP2 POP PUSH2 0x7A4 DUP3 PUSH2 0xE02 JUMP JUMPDEST PUSH1 0x40 DUP3 ADD SWAP1 POP SWAP2 SWAP1 POP JUMP JUMPDEST PUSH1 0x0 PUSH2 0x7BC PUSH1 0x3E DUP4 PUSH2 0xAC6 JUMP JUMPDEST SWAP2 POP PUSH2 0x7C7 DUP3 PUSH2 0xE51 JUMP JUMPDEST PUSH1 0x40 DUP3 ADD SWAP1 POP SWAP2 SWAP1 POP JUMP JUMPDEST PUSH1 0x0 PUSH2 0x7DF PUSH1 0x15 DUP4 PUSH2 0xAC6 JUMP JUMPDEST SWAP2 POP PUSH2 0x7EA DUP3 PUSH2 0xEA0 JUMP JUMPDEST PUSH1 0x20 DUP3 ADD SWAP1 POP SWAP2 SWAP1 POP JUMP JUMPDEST PUSH1 0x0 PUSH2 0x802 PUSH1 0x38 DUP4 PUSH2 0xAC6 JUMP JUMPDEST SWAP2 POP PUSH2 0x80D DUP3 PUSH2 0xEC9 JUMP JUMPDEST PUSH1 0x40 DUP3 ADD SWAP1 POP SWAP2 SWAP1 POP JUMP JUMPDEST PUSH1 0x0 PUSH2 0x140 DUP4 ADD PUSH1 0x0 DUP1 DUP5 ADD SLOAD SWAP1 POP PUSH2 0x830 DUP2 PUSH2 0xBE3 JUMP JUMPDEST PUSH2 0x83D PUSH1 0x0 DUP8 ADD DUP3 PUSH2 0x941 JUMP JUMPDEST POP PUSH1 0x1 DUP5 ADD DUP6 DUP4 SUB PUSH1 0x20 DUP8 ADD MSTORE PUSH2 0x854 DUP4 DUP3 PUSH2 0x6E9 JUMP JUMPDEST SWAP3 POP POP PUSH1 0x2 DUP5 ADD DUP6 DUP4 SUB PUSH1 0x40 DUP8 ADD MSTORE PUSH2 0x86D DUP4 DUP3 PUSH2 0x6E9 JUMP JUMPDEST SWAP3 POP POP PUSH1 0x3 DUP5 ADD SLOAD SWAP1 POP PUSH2 0x880 DUP2 PUSH2 0xBE3 JUMP JUMPDEST PUSH2 0x88D PUSH1 0x60 DUP8 ADD DUP3 PUSH2 0x941 JUMP JUMPDEST POP PUSH1 0x4 DUP5 ADD SLOAD SWAP1 POP PUSH2 0x89E DUP2 PUSH2 0xBE3 JUMP JUMPDEST PUSH2 0x8AB PUSH1 0x80 DUP8 ADD DUP3 PUSH2 0x941 JUMP JUMPDEST POP PUSH1 0x5 DUP5 ADD SLOAD SWAP1 POP PUSH2 0x8BC DUP2 PUSH2 0xBE3 JUMP JUMPDEST PUSH2 0x8C9 PUSH1 0xA0 DUP8 ADD DUP3 PUSH2 0x941 JUMP JUMPDEST POP PUSH1 0x6 DUP5 ADD SLOAD SWAP1 POP PUSH2 0x8DA DUP2 PUSH2 0xBC9 JUMP JUMPDEST PUSH2 0x8E7 PUSH1 0xC0 DUP8 ADD DUP3 PUSH2 0x6BC JUMP JUMPDEST POP PUSH1 0x7 DUP5 ADD SLOAD SWAP1 POP PUSH2 0x8F8 DUP2 PUSH2 0xBC9 JUMP JUMPDEST PUSH2 0x905 PUSH1 0xE0 DUP8 ADD DUP3 PUSH2 0x6BC JUMP JUMPDEST POP PUSH2 0x90F DUP2 PUSH2 0xBFD JUMP JUMPDEST PUSH2 0x91D PUSH2 0x100 DUP8 ADD DUP3 PUSH2 0x6CB JUMP JUMPDEST POP PUSH2 0x927 DUP2 PUSH2 0xC17 JUMP JUMPDEST PUSH2 0x935 PUSH2 0x120 DUP8 ADD DUP3 PUSH2 0x6DA JUMP JUMPDEST POP DUP2 SWAP3 POP POP POP SWAP3 SWAP2 POP POP JUMP JUMPDEST PUSH2 0x94A DUP2 PUSH2 0xB6C JUMP JUMPDEST DUP3 MSTORE POP POP JUMP JUMPDEST PUSH2 0x959 DUP2 PUSH2 0xB6C JUMP JUMPDEST DUP3 MSTORE POP POP JUMP JUMPDEST PUSH1 0x0 PUSH1 0x20 DUP3 ADD SWAP1 POP DUP2 DUP2 SUB PUSH1 0x0 DUP4 ADD MSTORE PUSH2 0x978 DUP2 PUSH2 0x769 JUMP JUMPDEST SWAP1 POP SWAP2 SWAP1 POP JUMP JUMPDEST PUSH1 0x0 PUSH1 0x20 DUP3 ADD SWAP1 POP DUP2 DUP2 SUB PUSH1 0x0 DUP4 ADD MSTORE PUSH2 0x998 DUP2 PUSH2 0x78C JUMP JUMPDEST SWAP1 POP SWAP2 SWAP1 POP JUMP JUMPDEST PUSH1 0x0 PUSH1 0x20 DUP3 ADD SWAP1 POP DUP2 DUP2 SUB PUSH1 0x0 DUP4 ADD MSTORE PUSH2 0x9B8 DUP2 PUSH2 0x7AF JUMP JUMPDEST SWAP1 POP SWAP2 SWAP1 POP JUMP JUMPDEST PUSH1 0x0 PUSH1 0x20 DUP3 ADD SWAP1 POP DUP2 DUP2 SUB PUSH1 0x0 DUP4 ADD MSTORE PUSH2 0x9D8 DUP2 PUSH2 0x7D2 JUMP JUMPDEST SWAP1 POP SWAP2 SWAP1 POP JUMP JUMPDEST PUSH1 0x0 PUSH1 0x20 DUP3 ADD SWAP1 POP DUP2 DUP2 SUB PUSH1 0x0 DUP4 ADD MSTORE PUSH2 0x9F8 DUP2 PUSH2 0x7F5 JUMP JUMPDEST SWAP1 POP SWAP2 SWAP1 POP JUMP JUMPDEST PUSH1 0x0 PUSH1 0x20 DUP3 ADD SWAP1 POP PUSH2 0xA14 PUSH1 0x0 DUP4 ADD DUP5 PUSH2 0x950 JUMP JUMPDEST SWAP3 SWAP2 POP POP JUMP JUMPDEST PUSH1 0x0 PUSH1 0x40 DUP3 ADD SWAP1 POP PUSH2 0xA2F PUSH1 0x0 DUP4 ADD DUP6 PUSH2 0x950 JUMP JUMPDEST DUP2 DUP2 SUB PUSH1 0x20 DUP4 ADD MSTORE PUSH2 0xA41 DUP2 DUP5 PUSH2 0x818 JUMP JUMPDEST SWAP1 POP SWAP4 SWAP3 POP POP POP JUMP JUMPDEST PUSH1 0x0 PUSH2 0xA54 PUSH2 0xA65 JUMP JUMPDEST SWAP1 POP PUSH2 0xA60 DUP3 DUP3 PUSH2 0xC31 JUMP JUMPDEST SWAP2 SWAP1 POP JUMP JUMPDEST PUSH1 0x0 PUSH1 0x40 MLOAD SWAP1 POP SWAP1 JUMP JUMPDEST PUSH1 0x0 PUSH8 0xFFFFFFFFFFFFFFFF DUP3 GT ISZERO PUSH2 0xA8A JUMPI PUSH2 0xA89 PUSH2 0xD38 JUMP JUMPDEST JUMPDEST PUSH2 0xA93 DUP3 PUSH2 0xD7B JUMP JUMPDEST SWAP1 POP PUSH1 0x20 DUP2 ADD SWAP1 POP SWAP2 SWAP1 POP JUMP JUMPDEST PUSH1 0x0 DUP2 SWAP1 POP DUP2 PUSH1 0x0 MSTORE PUSH1 0x20 PUSH1 0x0 KECCAK256 SWAP1 POP SWAP2 SWAP1 POP JUMP JUMPDEST PUSH1 0x0 DUP3 DUP3 MSTORE PUSH1 0x20 DUP3 ADD SWAP1 POP SWAP3 SWAP2 POP POP JUMP JUMPDEST PUSH1 0x0 DUP3 DUP3 MSTORE PUSH1 0x20 DUP3 ADD SWAP1 POP SWAP3 SWAP2 POP POP JUMP JUMPDEST PUSH1 0x0 PUSH20 0xFFFFFFFFFFFFFFFFFFFFFFFFFFFFFFFFFFFFFFFF DUP3 AND SWAP1 POP SWAP2 SWAP1 POP JUMP JUMPDEST PUSH1 0x0 PUSH1 0xFF DUP3 AND SWAP1 POP SWAP2 SWAP1 POP JUMP JUMPDEST PUSH1 0x0 PUSH1 0xFF DUP3 AND SWAP1 POP SWAP2 SWAP1 POP JUMP JUMPDEST PUSH1 0x0 DUP2 SWAP1 POP SWAP2 SWAP1 POP JUMP JUMPDEST PUSH1 0x0 PUSH2 0xB26 DUP3 PUSH2 0xB4C JUMP JUMPDEST SWAP1 POP SWAP2 SWAP1 POP JUMP JUMPDEST PUSH1 0x0 DUP2 ISZERO ISZERO SWAP1 POP SWAP2 SWAP1 POP JUMP JUMPDEST PUSH1 0x0 DUP2 SWAP1 POP PUSH2 0xB47 DUP3 PUSH2 0xF18 JUMP JUMPDEST SWAP2 SWAP1 POP JUMP JUMPDEST PUSH1 0x0 PUSH20 0xFFFFFFFFFFFFFFFFFFFFFFFFFFFFFFFFFFFFFFFF DUP3 AND SWAP1 POP SWAP2 SWAP1 POP JUMP JUMPDEST PUSH1 0x0 DUP2 SWAP1 POP SWAP2 SWAP1 POP JUMP JUMPDEST PUSH1 0x0 PUSH2 0xB81 DUP3 PUSH2 0xB39 JUMP JUMPDEST SWAP1 POP SWAP2 SWAP1 POP JUMP JUMPDEST DUP3 DUP2 DUP4 CALLDATACOPY PUSH1 0x0 DUP4 DUP4 ADD MSTORE POP POP POP JUMP JUMPDEST PUSH1 0x0 PUSH1 0x2 DUP3 DIV SWAP1 POP PUSH1 0x1 DUP3 AND DUP1 PUSH2 0xBAF JUMPI PUSH1 0x7F DUP3 AND SWAP2 POP JUMPDEST PUSH1 0x20 DUP3 LT DUP2 EQ ISZERO PUSH2 0xBC3 JUMPI PUSH2 0xBC2 PUSH2 0xD09 JUMP JUMPDEST JUMPDEST POP SWAP2 SWAP1 POP JUMP JUMPDEST PUSH1 0x0 PUSH2 0xBDC PUSH2 0xBD7 DUP4 PUSH2 0xD8C JUMP JUMPDEST PUSH2 0xAD7 JUMP JUMPDEST SWAP1 POP SWAP2 SWAP1 POP JUMP JUMPDEST PUSH1 0x0 PUSH2 0xBF6 PUSH2 0xBF1 DUP4 PUSH2 0xD8C JUMP JUMPDEST PUSH2 0xB11 JUMP JUMPDEST SWAP1 POP SWAP2 SWAP1 POP JUMP JUMPDEST PUSH1 0x0 PUSH2 0xC10 PUSH2 0xC0B DUP4 PUSH2 0xD99 JUMP JUMPDEST PUSH2 0xAF7 JUMP JUMPDEST SWAP1 POP SWAP2 SWAP1 POP JUMP JUMPDEST PUSH1 0x0 PUSH2 0xC2A PUSH2 0xC25 DUP4 PUSH2 0xDA6 JUMP JUMPDEST PUSH2 0xB04 JUMP JUMPDEST SWAP1 POP SWAP2 SWAP1 POP JUMP JUMPDEST PUSH2 0xC3A DUP3 PUSH2 0xD7B JUMP JUMPDEST DUP2 ADD DUP2 DUP2 LT PUSH8 0xFFFFFFFFFFFFFFFF DUP3 GT OR ISZERO PUSH2 0xC59 JUMPI PUSH2 0xC58 PUSH2 0xD38 JUMP JUMPDEST JUMPDEST DUP1 PUSH1 0x40 MSTORE POP POP POP JUMP JUMPDEST PUSH1 0x0 PUSH2 0xC6D DUP3 PUSH2 0xB6C JUMP JUMPDEST SWAP2 POP PUSH32 0xFFFFFFFFFFFFFFFFFFFFFFFFFFFFFFFFFFFFFFFFFFFFFFFFFFFFFFFFFFFFFFFF DUP3 EQ ISZERO PUSH2 0xCA0 JUMPI PUSH2 0xC9F PUSH2 0xCAB JUMP JUMPDEST JUMPDEST PUSH1 0x1 DUP3 ADD SWAP1 POP SWAP2 SWAP1 POP JUMP JUMPDEST PUSH32 0x4E487B7100000000000000000000000000000000000000000000000000000000 PUSH1 0x0 MSTORE PUSH1 0x11 PUSH1 0x4 MSTORE PUSH1 0x24 PUSH1 0x0 REVERT JUMPDEST PUSH32 0x4E487B7100000000000000000000000000000000000000000000000000000000 PUSH1 0x0 MSTORE PUSH1 0x21 PUSH1 0x4 MSTORE PUSH1 0x24 PUSH1 0x0 REVERT JUMPDEST PUSH32 0x4E487B7100000000000000000000000000000000000000000000000000000000 PUSH1 0x0 MSTORE PUSH1 0x22 PUSH1 0x4 MSTORE PUSH1 0x24 PUSH1 0x0 REVERT JUMPDEST PUSH32 0x4E487B7100000000000000000000000000000000000000000000000000000000 PUSH1 0x0 MSTORE PUSH1 0x41 PUSH1 0x4 MSTORE PUSH1 0x24 PUSH1 0x0 REVERT JUMPDEST PUSH1 0x0 DUP1 REVERT JUMPDEST PUSH1 0x0 DUP1 REVERT JUMPDEST PUSH1 0x0 DUP1 REVERT JUMPDEST PUSH1 0x0 DUP1 REVERT JUMPDEST PUSH1 0x0 PUSH1 0x1F NOT PUSH1 0x1F DUP4 ADD AND SWAP1 POP SWAP2 SWAP1 POP JUMP JUMPDEST PUSH1 0x0 DUP2 PUSH1 0x0 SHR SWAP1 POP SWAP2 SWAP1 POP JUMP JUMPDEST PUSH1 0x0 DUP2 PUSH1 0xA0 SHR SWAP1 POP SWAP2 SWAP1 POP JUMP JUMPDEST PUSH1 0x0 DUP2 PUSH1 0xA8 SHR SWAP1 POP SWAP2 SWAP1 POP JUMP JUMPDEST PUSH32 0x412053657276696365205072696365206D757374206265207370656369666965 PUSH1 0x0 DUP3 ADD MSTORE PUSH32 0x6400000000000000000000000000000000000000000000000000000000000000 PUSH1 0x20 DUP3 ADD MSTORE POP JUMP JUMPDEST PUSH32 0x556E617574686F72697365642061636365737320746F20736572766963652C20 PUSH1 0x0 DUP3 ADD MSTORE PUSH32 0x6F6E6C7920736572766963652070726F76696465722063616E20616363657373 PUSH1 0x20 DUP3 ADD MSTORE POP JUMP JUMPDEST PUSH32 0x54686520737461747573206F662074686973207365727669636520646F657320 PUSH1 0x0 DUP3 ADD MSTORE PUSH32 0x6E6F74206D617463682074686520696E74656E646564207374617475732E0000 PUSH1 0x20 DUP3 ADD MSTORE POP JUMP JUMPDEST PUSH32 0x4120737472696E67206973207265717569726564210000000000000000000000 PUSH1 0x0 DUP3 ADD MSTORE POP JUMP JUMPDEST PUSH32 0x54686973207365727669636520686173206265656E2064656C6574656420616E PUSH1 0x0 DUP3 ADD MSTORE PUSH32 0x6420646F6573206E6F7420657869737420616E796D6F72650000000000000000 PUSH1 0x20 DUP3 ADD MSTORE POP JUMP JUMPDEST PUSH1 0x6 DUP2 LT PUSH2 0xF29 JUMPI PUSH2 0xF28 PUSH2 0xCDA JUMP JUMPDEST JUMPDEST POP JUMP JUMPDEST PUSH2 0xF35 DUP2 PUSH2 0xB6C JUMP JUMPDEST DUP2 EQ PUSH2 0xF40 JUMPI PUSH1 0x0 DUP1 REVERT JUMPDEST POP JUMP INVALID LOG2 PUSH5 0x6970667358 0x22 SLT KECCAK256 0xAB DUP5 PUSH11 0x3B9D3791160A2C4998B6DA 0xE5 PUSH7 0x794D5FFA3E4E65 LOG3 PUSH5 0x63095BD7F3 PUSH8 0x1A64736F6C634300 ADDMOD SMOD STOP CALLER "
				},
				"gasEstimates": {
					"creation": {
						"codeDepositCost": "792200",
						"executionCost": "infinite",
						"totalCost": "infinite"
					},
					"external": {
						"deleteService(uint256)": "infinite",
						"numService()": "2429",
						"requestService(string,string,uint256)": "infinite"
					}
				},
				"methodIdentifiers": {
					"deleteService(uint256)": "74e29ee6",
					"numService()": "854c4707",
					"requestService(string,string,uint256)": "e9ed56a5"
				}
			},
			"userdoc": {
				"kind": "user",
				"methods": {},
				"version": 1
			}
		}
	}
}