{
	"contracts/Conflict.sol": {
		"Conflict": {
			"abi": [
				{
					"anonymous": false,
					"inputs": [
						{
							"indexed": false,
							"internalType": "uint256",
							"name": "projectNumber",
							"type": "uint256"
						},
						{
							"indexed": false,
							"internalType": "uint256",
							"name": "serviceNumber",
							"type": "uint256"
						},
						{
							"indexed": false,
							"internalType": "uint256",
							"name": "milestoneNumber",
							"type": "uint256"
						},
						{
							"indexed": false,
							"internalType": "address",
							"name": "serviceRequester",
							"type": "address"
						},
						{
							"indexed": false,
							"internalType": "address",
							"name": "serviceProvider",
							"type": "address"
						},
						{
							"indexed": false,
							"internalType": "uint256",
							"name": "totalVoters",
							"type": "uint256"
						}
					],
					"name": "conflictCreated",
					"type": "event"
				},
				{
					"anonymous": false,
					"inputs": [
						{
							"indexed": false,
							"internalType": "uint256",
							"name": "projectNumber",
							"type": "uint256"
						},
						{
							"indexed": false,
							"internalType": "uint256",
							"name": "serviceNumber",
							"type": "uint256"
						},
						{
							"indexed": false,
							"internalType": "uint256",
							"name": "milestoneNumber",
							"type": "uint256"
						},
						{
							"indexed": false,
							"internalType": "address",
							"name": "serviceProvider",
							"type": "address"
						}
					],
					"name": "conflictRaised",
					"type": "event"
				},
				{
					"anonymous": false,
					"inputs": [
						{
							"indexed": false,
							"internalType": "uint256",
							"name": "projectNumber",
							"type": "uint256"
						},
						{
							"indexed": false,
							"internalType": "uint256",
							"name": "serviceNumber",
							"type": "uint256"
						},
						{
							"indexed": false,
							"internalType": "uint256",
							"name": "milestoneNumber",
							"type": "uint256"
						},
						{
							"indexed": false,
							"internalType": "uint8",
							"name": "result",
							"type": "uint8"
						}
					],
					"name": "conflictResult",
					"type": "event"
				},
				{
					"anonymous": false,
					"inputs": [
						{
							"indexed": false,
							"internalType": "uint256",
							"name": "projectNumber",
							"type": "uint256"
						},
						{
							"indexed": false,
							"internalType": "uint256",
							"name": "serviceNumber",
							"type": "uint256"
						},
						{
							"indexed": false,
							"internalType": "uint256",
							"name": "milestoneNumber",
							"type": "uint256"
						},
						{
							"indexed": false,
							"internalType": "address",
							"name": "voter",
							"type": "address"
						},
						{
							"indexed": false,
							"internalType": "uint8",
							"name": "vote",
							"type": "uint8"
						}
					],
					"name": "conflictVoted",
					"type": "event"
				},
				{
					"inputs": [
						{
							"internalType": "uint256",
							"name": "projectNumber",
							"type": "uint256"
						},
						{
							"internalType": "uint256",
							"name": "serviceNumber",
							"type": "uint256"
						},
						{
							"internalType": "uint256",
							"name": "milestoneNumber",
							"type": "uint256"
						},
						{
							"internalType": "string",
							"name": "title",
							"type": "string"
						},
						{
							"internalType": "string",
							"name": "description",
							"type": "string"
						},
						{
							"internalType": "address",
							"name": "serviceRequester",
							"type": "address"
						},
						{
							"internalType": "address",
							"name": "serviceProvider",
							"type": "address"
						},
						{
							"internalType": "uint256",
							"name": "totalVoters",
							"type": "uint256"
						}
					],
					"name": "createConflict",
					"outputs": [],
					"stateMutability": "nonpayable",
					"type": "function"
				},
				{
					"inputs": [
						{
							"internalType": "uint256",
							"name": "projectNumber",
							"type": "uint256"
						},
						{
							"internalType": "uint256",
							"name": "serviceNumber",
							"type": "uint256"
						},
						{
							"internalType": "uint256",
							"name": "milestoneNumber",
							"type": "uint256"
						}
					],
					"name": "deleteConflict",
					"outputs": [],
					"stateMutability": "nonpayable",
					"type": "function"
				},
				{
					"inputs": [
						{
							"internalType": "uint256",
							"name": "projectNumber",
							"type": "uint256"
						},
						{
							"internalType": "uint256",
							"name": "serviceNumber",
							"type": "uint256"
						},
						{
							"internalType": "uint256",
							"name": "milestoneNumber",
							"type": "uint256"
						}
					],
					"name": "getConflictStatus",
					"outputs": [
						{
							"internalType": "enum States.ConflictStatus",
							"name": "",
							"type": "uint8"
						}
					],
					"stateMutability": "view",
					"type": "function"
				},
				{
					"inputs": [
						{
							"internalType": "uint256",
							"name": "projectNumber",
							"type": "uint256"
						},
						{
							"internalType": "uint256",
							"name": "serviceNumber",
							"type": "uint256"
						},
						{
							"internalType": "uint256",
							"name": "milestoneNumber",
							"type": "uint256"
						}
					],
					"name": "getResults",
					"outputs": [
						{
							"internalType": "uint256",
							"name": "",
							"type": "uint256"
						}
					],
					"stateMutability": "view",
					"type": "function"
				},
				{
					"inputs": [
						{
							"internalType": "uint256",
							"name": "projectNumber",
							"type": "uint256"
						},
						{
							"internalType": "uint256",
							"name": "serviceNumber",
							"type": "uint256"
						},
						{
							"internalType": "uint256",
							"name": "milestoneNumber",
							"type": "uint256"
						}
					],
					"name": "getVotesCollected",
					"outputs": [
						{
							"internalType": "uint256",
							"name": "",
							"type": "uint256"
						}
					],
					"stateMutability": "view",
					"type": "function"
				},
				{
					"inputs": [
						{
							"internalType": "uint256",
							"name": "projectNumber",
							"type": "uint256"
						},
						{
							"internalType": "uint256",
							"name": "serviceNumber",
							"type": "uint256"
						},
						{
							"internalType": "uint256",
							"name": "milestoneNumber",
							"type": "uint256"
						}
					],
					"name": "getVotesforProvider",
					"outputs": [
						{
							"internalType": "uint256",
							"name": "",
							"type": "uint256"
						}
					],
					"stateMutability": "view",
					"type": "function"
				},
				{
					"inputs": [
						{
							"internalType": "uint256",
							"name": "projectNumber",
							"type": "uint256"
						},
						{
							"internalType": "uint256",
							"name": "serviceNumber",
							"type": "uint256"
						},
						{
							"internalType": "uint256",
							"name": "milestoneNumber",
							"type": "uint256"
						}
					],
					"name": "getVotesforRequester",
					"outputs": [
						{
							"internalType": "uint256",
							"name": "",
							"type": "uint256"
						}
					],
					"stateMutability": "view",
					"type": "function"
				},
				{
					"inputs": [
						{
							"internalType": "uint256",
							"name": "projectNumber",
							"type": "uint256"
						},
						{
							"internalType": "uint256",
							"name": "serviceNumber",
							"type": "uint256"
						},
						{
							"internalType": "uint256",
							"name": "milestoneNumber",
							"type": "uint256"
						},
						{
							"internalType": "string",
							"name": "title",
							"type": "string"
						},
						{
							"internalType": "string",
							"name": "description",
							"type": "string"
						}
					],
					"name": "updateConflict",
					"outputs": [],
					"stateMutability": "nonpayable",
					"type": "function"
				},
				{
					"inputs": [
						{
							"internalType": "uint256",
							"name": "projectNumber",
							"type": "uint256"
						},
						{
							"internalType": "uint256",
							"name": "serviceNumber",
							"type": "uint256"
						},
						{
							"internalType": "uint256",
							"name": "milestoneNumber",
							"type": "uint256"
						},
						{
							"internalType": "address",
							"name": "sender",
							"type": "address"
						},
						{
							"internalType": "uint8",
							"name": "vote",
							"type": "uint8"
						}
					],
					"name": "voteConflict",
					"outputs": [],
					"stateMutability": "nonpayable",
					"type": "function"
				}
			],
			"devdoc": {
				"kind": "dev",
				"methods": {},
				"version": 1
			},
			"evm": {
				"assembly": "    /* \"contracts/Conflict.sol\":192:6675  contract Conflict {... */\n  mstore(0x40, 0x80)\n  callvalue\n  dup1\n  iszero\n  tag_1\n  jumpi\n  0x00\n  dup1\n  revert\ntag_1:\n  pop\n  dataSize(sub_0)\n  dup1\n  dataOffset(sub_0)\n  0x00\n  codecopy\n  0x00\n  return\nstop\n\nsub_0: assembly {\n        /* \"contracts/Conflict.sol\":192:6675  contract Conflict {... */\n      mstore(0x40, 0x80)\n      callvalue\n      dup1\n      iszero\n      tag_1\n      jumpi\n      0x00\n      dup1\n      revert\n    tag_1:\n      pop\n      jumpi(tag_2, lt(calldatasize, 0x04))\n      shr(0xe0, calldataload(0x00))\n      dup1\n      0xc171bdf7\n      gt\n      tag_12\n      jumpi\n      dup1\n      0xc171bdf7\n      eq\n      tag_7\n      jumpi\n      dup1\n      0xcb4389ce\n      eq\n      tag_8\n      jumpi\n      dup1\n      0xd1e992a7\n      eq\n      tag_9\n      jumpi\n      dup1\n      0xe3d87718\n      eq\n      tag_10\n      jumpi\n      dup1\n      0xe62fac27\n      eq\n      tag_11\n      jumpi\n      jump(tag_2)\n    tag_12:\n      dup1\n      0x3f489f\n      eq\n      tag_3\n      jumpi\n      dup1\n      0x0366cef2\n      eq\n      tag_4\n      jumpi\n      dup1\n      0x3c45fe31\n      eq\n      tag_5\n      jumpi\n      dup1\n      0x9ac78879\n      eq\n      tag_6\n      jumpi\n    tag_2:\n      0x00\n      dup1\n      revert\n        /* \"contracts/Conflict.sol\":3188:3387  function deleteConflict(uint256 projectNumber, uint256 serviceNumber, uint256 milestoneNumber) external {... */\n    tag_3:\n      tag_13\n      0x04\n      dup1\n      calldatasize\n      sub\n      dup2\n      add\n      swap1\n      tag_14\n      swap2\n      swap1\n      tag_15\n      jump\t// in\n    tag_14:\n      tag_16\n      jump\t// in\n    tag_13:\n      stop\n        /* \"contracts/Conflict.sol\":5107:5738  function getResults(uint256 projectNumber, uint256 serviceNumber, uint256 milestoneNumber) public view returns (uint) {... */\n    tag_4:\n      tag_17\n      0x04\n      dup1\n      calldatasize\n      sub\n      dup2\n      add\n      swap1\n      tag_18\n      swap2\n      swap1\n      tag_15\n      jump\t// in\n    tag_18:\n      tag_19\n      jump\t// in\n    tag_17:\n      mload(0x40)\n      tag_20\n      swap2\n      swap1\n      tag_21\n      jump\t// in\n    tag_20:\n      mload(0x40)\n      dup1\n      swap2\n      sub\n      swap1\n      return\n        /* \"contracts/Conflict.sol\":5987:6210  function getVotesCollected(uint256 projectNumber, uint256 serviceNumber, uint256 milestoneNumber) public view returns (uint256) {... */\n    tag_5:\n      tag_22\n      0x04\n      dup1\n      calldatasize\n      sub\n      dup2\n      add\n      swap1\n      tag_23\n      swap2\n      swap1\n      tag_15\n      jump\t// in\n    tag_23:\n      tag_24\n      jump\t// in\n    tag_22:\n      mload(0x40)\n      tag_25\n      swap2\n      swap1\n      tag_21\n      jump\t// in\n    tag_25:\n      mload(0x40)\n      dup1\n      swap2\n      sub\n      swap1\n      return\n        /* \"contracts/Conflict.sol\":6448:6672  function getVotesforProvider(uint256 projectNumber, uint256 serviceNumber, uint256 milestoneNumber) public view returns (uint256) {... */\n    tag_6:\n      tag_26\n      0x04\n      dup1\n      calldatasize\n      sub\n      dup2\n      add\n      swap1\n      tag_27\n      swap2\n      swap1\n      tag_15\n      jump\t// in\n    tag_27:\n      tag_28\n      jump\t// in\n    tag_26:\n      mload(0x40)\n      tag_29\n      swap2\n      swap1\n      tag_21\n      jump\t// in\n    tag_29:\n      mload(0x40)\n      dup1\n      swap2\n      sub\n      swap1\n      return\n        /* \"contracts/Conflict.sol\":3432:5069  function voteConflict(uint256 projectNumber, uint256 serviceNumber, uint256 milestoneNumber, address sender, uint8 vote) public {... */\n    tag_7:\n      tag_30\n      0x04\n      dup1\n      calldatasize\n      sub\n      dup2\n      add\n      swap1\n      tag_31\n      swap2\n      swap1\n      tag_32\n      jump\t// in\n    tag_31:\n      tag_33\n      jump\t// in\n    tag_30:\n      stop\n        /* \"contracts/Conflict.sol\":5744:5981  function getConflictStatus(uint256 projectNumber, uint256 serviceNumber, uint256 milestoneNumber) public view returns (States.ConflictStatus) {... */\n    tag_8:\n      tag_34\n      0x04\n      dup1\n      calldatasize\n      sub\n      dup2\n      add\n      swap1\n      tag_35\n      swap2\n      swap1\n      tag_15\n      jump\t// in\n    tag_35:\n      tag_36\n      jump\t// in\n    tag_34:\n      mload(0x40)\n      tag_37\n      swap2\n      swap1\n      tag_38\n      jump\t// in\n    tag_37:\n      mload(0x40)\n      dup1\n      swap2\n      sub\n      swap1\n      return\n        /* \"contracts/Conflict.sol\":2809:3140  function updateConflict(uint256 projectNumber, uint256 serviceNumber, uint256 milestoneNumber, string memory title, string memory description) external {... */\n    tag_9:\n      tag_39\n      0x04\n      dup1\n      calldatasize\n      sub\n      dup2\n      add\n      swap1\n      tag_40\n      swap2\n      swap1\n      tag_41\n      jump\t// in\n    tag_40:\n      tag_42\n      jump\t// in\n    tag_39:\n      stop\n        /* \"contracts/Conflict.sol\":6216:6442  function getVotesforRequester(uint256 projectNumber, uint256 serviceNumber, uint256 milestoneNumber) public view returns (uint256) {... */\n    tag_10:\n      tag_43\n      0x04\n      dup1\n      calldatasize\n      sub\n      dup2\n      add\n      swap1\n      tag_44\n      swap2\n      swap1\n      tag_15\n      jump\t// in\n    tag_44:\n      tag_45\n      jump\t// in\n    tag_43:\n      mload(0x40)\n      tag_46\n      swap2\n      swap1\n      tag_21\n      jump\t// in\n    tag_46:\n      mload(0x40)\n      dup1\n      swap2\n      sub\n      swap1\n      return\n        /* \"contracts/Conflict.sol\":1449:2762  function createConflict(uint256 projectNumber, uint256 serviceNumber, uint256 milestoneNumber, string memory title, string memory description, address serviceRequester, address serviceProvider,  uint256 totalVoters) public {... */\n    tag_11:\n      tag_47\n      0x04\n      dup1\n      calldatasize\n      sub\n      dup2\n      add\n      swap1\n      tag_48\n      swap2\n      swap1\n      tag_49\n      jump\t// in\n    tag_48:\n      tag_50\n      jump\t// in\n    tag_47:\n      stop\n        /* \"contracts/Conflict.sol\":3188:3387  function deleteConflict(uint256 projectNumber, uint256 serviceNumber, uint256 milestoneNumber) external {... */\n    tag_16:\n        /* \"contracts/Conflict.sol\":3367:3372  false */\n      0x00\n        /* \"contracts/Conflict.sol\":3302:3311  conflicts */\n      dup1\n        /* \"contracts/Conflict.sol\":3302:3326  conflicts[projectNumber] */\n      0x00\n        /* \"contracts/Conflict.sol\":3312:3325  projectNumber */\n      dup6\n        /* \"contracts/Conflict.sol\":3302:3326  conflicts[projectNumber] */\n      dup2\n      mstore\n      0x20\n      add\n      swap1\n      dup2\n      mstore\n      0x20\n      add\n      0x00\n      keccak256\n        /* \"contracts/Conflict.sol\":3302:3341  conflicts[projectNumber][serviceNumber] */\n      0x00\n        /* \"contracts/Conflict.sol\":3327:3340  serviceNumber */\n      dup5\n        /* \"contracts/Conflict.sol\":3302:3341  conflicts[projectNumber][serviceNumber] */\n      dup2\n      mstore\n      0x20\n      add\n      swap1\n      dup2\n      mstore\n      0x20\n      add\n      0x00\n      keccak256\n        /* \"contracts/Conflict.sol\":3302:3358  conflicts[projectNumber][serviceNumber][milestoneNumber] */\n      0x00\n        /* \"contracts/Conflict.sol\":3342:3357  milestoneNumber */\n      dup4\n        /* \"contracts/Conflict.sol\":3302:3358  conflicts[projectNumber][serviceNumber][milestoneNumber] */\n      dup2\n      mstore\n      0x20\n      add\n      swap1\n      dup2\n      mstore\n      0x20\n      add\n      0x00\n      keccak256\n        /* \"contracts/Conflict.sol\":3302:3364  conflicts[projectNumber][serviceNumber][milestoneNumber].exist */\n      0x0b\n      add\n      0x00\n        /* \"contracts/Conflict.sol\":3302:3372  conflicts[projectNumber][serviceNumber][milestoneNumber].exist = false */\n      0x0100\n      exp\n      dup2\n      sload\n      dup2\n      0xff\n      mul\n      not\n      and\n      swap1\n      dup4\n      iszero\n      iszero\n      mul\n      or\n      swap1\n      sstore\n      pop\n        /* \"contracts/Conflict.sol\":3188:3387  function deleteConflict(uint256 projectNumber, uint256 serviceNumber, uint256 milestoneNumber) external {... */\n      pop\n      pop\n      pop\n      jump\t// out\n        /* \"contracts/Conflict.sol\":5107:5738  function getResults(uint256 projectNumber, uint256 serviceNumber, uint256 milestoneNumber) public view returns (uint) {... */\n    tag_19:\n        /* \"contracts/Conflict.sol\":5219:5223  uint */\n      0x00\n        /* \"contracts/Conflict.sol\":5318:5327  conflicts */\n      dup1\n        /* \"contracts/Conflict.sol\":5318:5342  conflicts[projectNumber] */\n      0x00\n        /* \"contracts/Conflict.sol\":5328:5341  projectNumber */\n      dup6\n        /* \"contracts/Conflict.sol\":5318:5342  conflicts[projectNumber] */\n      dup2\n      mstore\n      0x20\n      add\n      swap1\n      dup2\n      mstore\n      0x20\n      add\n      0x00\n      keccak256\n        /* \"contracts/Conflict.sol\":5318:5357  conflicts[projectNumber][serviceNumber] */\n      0x00\n        /* \"contracts/Conflict.sol\":5343:5356  serviceNumber */\n      dup5\n        /* \"contracts/Conflict.sol\":5318:5357  conflicts[projectNumber][serviceNumber] */\n      dup2\n      mstore\n      0x20\n      add\n      swap1\n      dup2\n      mstore\n      0x20\n      add\n      0x00\n      keccak256\n        /* \"contracts/Conflict.sol\":5318:5374  conflicts[projectNumber][serviceNumber][milestoneNumber] */\n      0x00\n        /* \"contracts/Conflict.sol\":5358:5373  milestoneNumber */\n      dup4\n        /* \"contracts/Conflict.sol\":5318:5374  conflicts[projectNumber][serviceNumber][milestoneNumber] */\n      dup2\n      mstore\n      0x20\n      add\n      swap1\n      dup2\n      mstore\n      0x20\n      add\n      0x00\n      keccak256\n        /* \"contracts/Conflict.sol\":5318:5381  conflicts[projectNumber][serviceNumber][milestoneNumber].voters */\n      0x07\n      add\n      sload\n        /* \"contracts/Conflict.sol\":5243:5252  conflicts */\n      0x00\n        /* \"contracts/Conflict.sol\":5243:5267  conflicts[projectNumber] */\n      dup1\n        /* \"contracts/Conflict.sol\":5253:5266  projectNumber */\n      dup7\n        /* \"contracts/Conflict.sol\":5243:5267  conflicts[projectNumber] */\n      dup2\n      mstore\n      0x20\n      add\n      swap1\n      dup2\n      mstore\n      0x20\n      add\n      0x00\n      keccak256\n        /* \"contracts/Conflict.sol\":5243:5282  conflicts[projectNumber][serviceNumber] */\n      0x00\n        /* \"contracts/Conflict.sol\":5268:5281  serviceNumber */\n      dup6\n        /* \"contracts/Conflict.sol\":5243:5282  conflicts[projectNumber][serviceNumber] */\n      dup2\n      mstore\n      0x20\n      add\n      swap1\n      dup2\n      mstore\n      0x20\n      add\n      0x00\n      keccak256\n        /* \"contracts/Conflict.sol\":5243:5299  conflicts[projectNumber][serviceNumber][milestoneNumber] */\n      0x00\n        /* \"contracts/Conflict.sol\":5283:5298  milestoneNumber */\n      dup5\n        /* \"contracts/Conflict.sol\":5243:5299  conflicts[projectNumber][serviceNumber][milestoneNumber] */\n      dup2\n      mstore\n      0x20\n      add\n      swap1\n      dup2\n      mstore\n      0x20\n      add\n      0x00\n      keccak256\n        /* \"contracts/Conflict.sol\":5243:5314  conflicts[projectNumber][serviceNumber][milestoneNumber].votesCollected */\n      0x08\n      add\n      sload\n        /* \"contracts/Conflict.sol\":5243:5381  conflicts[projectNumber][serviceNumber][milestoneNumber].votesCollected == conflicts[projectNumber][serviceNumber][milestoneNumber].voters */\n      eq\n        /* \"contracts/Conflict.sol\":5235:5460  require(conflicts[projectNumber][serviceNumber][milestoneNumber].votesCollected == conflicts[projectNumber][serviceNumber][milestoneNumber].voters, \"Not everyone has voted, please prompt all other members of project to vote\") */\n      tag_53\n      jumpi\n      mload(0x40)\n      0x08c379a000000000000000000000000000000000000000000000000000000000\n      dup2\n      mstore\n      0x04\n      add\n      tag_54\n      swap1\n      tag_55\n      jump\t// in\n    tag_54:\n      mload(0x40)\n      dup1\n      swap2\n      sub\n      swap1\n      revert\n    tag_53:\n        /* \"contracts/Conflict.sol\":5553:5584  States.ConflictStatus.completed */\n      0x02\n        /* \"contracts/Conflict.sol\":5478:5584  conflicts[projectNumber][serviceNumber][milestoneNumber].conflictStatus == States.ConflictStatus.completed */\n      dup1\n      dup2\n      gt\n      iszero\n      tag_56\n      jumpi\n      tag_57\n      tag_58\n      jump\t// in\n    tag_57:\n    tag_56:\n        /* \"contracts/Conflict.sol\":5478:5487  conflicts */\n      0x00\n        /* \"contracts/Conflict.sol\":5478:5502  conflicts[projectNumber] */\n      dup1\n        /* \"contracts/Conflict.sol\":5488:5501  projectNumber */\n      dup7\n        /* \"contracts/Conflict.sol\":5478:5502  conflicts[projectNumber] */\n      dup2\n      mstore\n      0x20\n      add\n      swap1\n      dup2\n      mstore\n      0x20\n      add\n      0x00\n      keccak256\n        /* \"contracts/Conflict.sol\":5478:5517  conflicts[projectNumber][serviceNumber] */\n      0x00\n        /* \"contracts/Conflict.sol\":5503:5516  serviceNumber */\n      dup6\n        /* \"contracts/Conflict.sol\":5478:5517  conflicts[projectNumber][serviceNumber] */\n      dup2\n      mstore\n      0x20\n      add\n      swap1\n      dup2\n      mstore\n      0x20\n      add\n      0x00\n      keccak256\n        /* \"contracts/Conflict.sol\":5478:5534  conflicts[projectNumber][serviceNumber][milestoneNumber] */\n      0x00\n        /* \"contracts/Conflict.sol\":5518:5533  milestoneNumber */\n      dup5\n        /* \"contracts/Conflict.sol\":5478:5534  conflicts[projectNumber][serviceNumber][milestoneNumber] */\n      dup2\n      mstore\n      0x20\n      add\n      swap1\n      dup2\n      mstore\n      0x20\n      add\n      0x00\n      keccak256\n        /* \"contracts/Conflict.sol\":5478:5549  conflicts[projectNumber][serviceNumber][milestoneNumber].conflictStatus */\n      0x06\n      add\n      0x14\n      swap1\n      sload\n      swap1\n      0x0100\n      exp\n      swap1\n      div\n      0xff\n      and\n        /* \"contracts/Conflict.sol\":5478:5584  conflicts[projectNumber][serviceNumber][milestoneNumber].conflictStatus == States.ConflictStatus.completed */\n      0x02\n      dup2\n      gt\n      iszero\n      tag_59\n      jumpi\n      tag_60\n      tag_58\n      jump\t// in\n    tag_60:\n    tag_59:\n      eq\n        /* \"contracts/Conflict.sol\":5470:5650  require(conflicts[projectNumber][serviceNumber][milestoneNumber].conflictStatus == States.ConflictStatus.completed, \"Voting has not been completed yet. Please wait for it to end.\") */\n      tag_61\n      jumpi\n      mload(0x40)\n      0x08c379a000000000000000000000000000000000000000000000000000000000\n      dup2\n      mstore\n      0x04\n      add\n      tag_62\n      swap1\n      tag_63\n      jump\t// in\n    tag_62:\n      mload(0x40)\n      dup1\n      swap2\n      sub\n      swap1\n      revert\n    tag_61:\n        /* \"contracts/Conflict.sol\":5668:5677  conflicts */\n      0x00\n        /* \"contracts/Conflict.sol\":5668:5692  conflicts[projectNumber] */\n      dup1\n        /* \"contracts/Conflict.sol\":5678:5691  projectNumber */\n      dup6\n        /* \"contracts/Conflict.sol\":5668:5692  conflicts[projectNumber] */\n      dup2\n      mstore\n      0x20\n      add\n      swap1\n      dup2\n      mstore\n      0x20\n      add\n      0x00\n      keccak256\n        /* \"contracts/Conflict.sol\":5668:5707  conflicts[projectNumber][serviceNumber] */\n      0x00\n        /* \"contracts/Conflict.sol\":5693:5706  serviceNumber */\n      dup5\n        /* \"contracts/Conflict.sol\":5668:5707  conflicts[projectNumber][serviceNumber] */\n      dup2\n      mstore\n      0x20\n      add\n      swap1\n      dup2\n      mstore\n      0x20\n      add\n      0x00\n      keccak256\n        /* \"contracts/Conflict.sol\":5668:5724  conflicts[projectNumber][serviceNumber][milestoneNumber] */\n      0x00\n        /* \"contracts/Conflict.sol\":5708:5723  milestoneNumber */\n      dup4\n        /* \"contracts/Conflict.sol\":5668:5724  conflicts[projectNumber][serviceNumber][milestoneNumber] */\n      dup2\n      mstore\n      0x20\n      add\n      swap1\n      dup2\n      mstore\n      0x20\n      add\n      0x00\n      keccak256\n        /* \"contracts/Conflict.sol\":5668:5731  conflicts[projectNumber][serviceNumber][milestoneNumber].result */\n      0x0b\n      add\n      0x01\n      swap1\n      sload\n      swap1\n      0x0100\n      exp\n      swap1\n      div\n      0xff\n      and\n        /* \"contracts/Conflict.sol\":5661:5731  return conflicts[projectNumber][serviceNumber][milestoneNumber].result */\n      0xff\n      and\n      swap1\n      pop\n        /* \"contracts/Conflict.sol\":5107:5738  function getResults(uint256 projectNumber, uint256 serviceNumber, uint256 milestoneNumber) public view returns (uint) {... */\n      swap4\n      swap3\n      pop\n      pop\n      pop\n      jump\t// out\n        /* \"contracts/Conflict.sol\":5987:6210  function getVotesCollected(uint256 projectNumber, uint256 serviceNumber, uint256 milestoneNumber) public view returns (uint256) {... */\n    tag_24:\n        /* \"contracts/Conflict.sol\":6106:6113  uint256 */\n      0x00\n        /* \"contracts/Conflict.sol\":6132:6141  conflicts */\n      dup1\n        /* \"contracts/Conflict.sol\":6132:6156  conflicts[projectNumber] */\n      0x00\n        /* \"contracts/Conflict.sol\":6142:6155  projectNumber */\n      dup6\n        /* \"contracts/Conflict.sol\":6132:6156  conflicts[projectNumber] */\n      dup2\n      mstore\n      0x20\n      add\n      swap1\n      dup2\n      mstore\n      0x20\n      add\n      0x00\n      keccak256\n        /* \"contracts/Conflict.sol\":6132:6171  conflicts[projectNumber][serviceNumber] */\n      0x00\n        /* \"contracts/Conflict.sol\":6157:6170  serviceNumber */\n      dup5\n        /* \"contracts/Conflict.sol\":6132:6171  conflicts[projectNumber][serviceNumber] */\n      dup2\n      mstore\n      0x20\n      add\n      swap1\n      dup2\n      mstore\n      0x20\n      add\n      0x00\n      keccak256\n        /* \"contracts/Conflict.sol\":6132:6188  conflicts[projectNumber][serviceNumber][milestoneNumber] */\n      0x00\n        /* \"contracts/Conflict.sol\":6172:6187  milestoneNumber */\n      dup4\n        /* \"contracts/Conflict.sol\":6132:6188  conflicts[projectNumber][serviceNumber][milestoneNumber] */\n      dup2\n      mstore\n      0x20\n      add\n      swap1\n      dup2\n      mstore\n      0x20\n      add\n      0x00\n      keccak256\n        /* \"contracts/Conflict.sol\":6132:6203  conflicts[projectNumber][serviceNumber][milestoneNumber].votesCollected */\n      0x08\n      add\n      sload\n        /* \"contracts/Conflict.sol\":6125:6203  return conflicts[projectNumber][serviceNumber][milestoneNumber].votesCollected */\n      swap1\n      pop\n        /* \"contracts/Conflict.sol\":5987:6210  function getVotesCollected(uint256 projectNumber, uint256 serviceNumber, uint256 milestoneNumber) public view returns (uint256) {... */\n      swap4\n      swap3\n      pop\n      pop\n      pop\n      jump\t// out\n        /* \"contracts/Conflict.sol\":6448:6672  function getVotesforProvider(uint256 projectNumber, uint256 serviceNumber, uint256 milestoneNumber) public view returns (uint256) {... */\n    tag_28:\n        /* \"contracts/Conflict.sol\":6569:6576  uint256 */\n      0x00\n        /* \"contracts/Conflict.sol\":6595:6604  conflicts */\n      dup1\n        /* \"contracts/Conflict.sol\":6595:6619  conflicts[projectNumber] */\n      0x00\n        /* \"contracts/Conflict.sol\":6605:6618  projectNumber */\n      dup6\n        /* \"contracts/Conflict.sol\":6595:6619  conflicts[projectNumber] */\n      dup2\n      mstore\n      0x20\n      add\n      swap1\n      dup2\n      mstore\n      0x20\n      add\n      0x00\n      keccak256\n        /* \"contracts/Conflict.sol\":6595:6634  conflicts[projectNumber][serviceNumber] */\n      0x00\n        /* \"contracts/Conflict.sol\":6620:6633  serviceNumber */\n      dup5\n        /* \"contracts/Conflict.sol\":6595:6634  conflicts[projectNumber][serviceNumber] */\n      dup2\n      mstore\n      0x20\n      add\n      swap1\n      dup2\n      mstore\n      0x20\n      add\n      0x00\n      keccak256\n        /* \"contracts/Conflict.sol\":6595:6651  conflicts[projectNumber][serviceNumber][milestoneNumber] */\n      0x00\n        /* \"contracts/Conflict.sol\":6635:6650  milestoneNumber */\n      dup4\n        /* \"contracts/Conflict.sol\":6595:6651  conflicts[projectNumber][serviceNumber][milestoneNumber] */\n      dup2\n      mstore\n      0x20\n      add\n      swap1\n      dup2\n      mstore\n      0x20\n      add\n      0x00\n      keccak256\n        /* \"contracts/Conflict.sol\":6595:6665  conflicts[projectNumber][serviceNumber][milestoneNumber].providerVotes */\n      0x0a\n      add\n      sload\n        /* \"contracts/Conflict.sol\":6588:6665  return conflicts[projectNumber][serviceNumber][milestoneNumber].providerVotes */\n      swap1\n      pop\n        /* \"contracts/Conflict.sol\":6448:6672  function getVotesforProvider(uint256 projectNumber, uint256 serviceNumber, uint256 milestoneNumber) public view returns (uint256) {... */\n      swap4\n      swap3\n      pop\n      pop\n      pop\n      jump\t// out\n        /* \"contracts/Conflict.sol\":3432:5069  function voteConflict(uint256 projectNumber, uint256 serviceNumber, uint256 milestoneNumber, address sender, uint8 vote) public {... */\n    tag_33:\n        /* \"contracts/Conflict.sol\":3655:3661  sender */\n      dup2\n        /* \"contracts/Conflict.sol\":3578:3661  conflicts[projectNumber][serviceNumber][milestoneNumber].serviceRequester != sender */\n      0xffffffffffffffffffffffffffffffffffffffff\n      and\n        /* \"contracts/Conflict.sol\":3578:3587  conflicts */\n      0x00\n        /* \"contracts/Conflict.sol\":3578:3602  conflicts[projectNumber] */\n      dup1\n        /* \"contracts/Conflict.sol\":3588:3601  projectNumber */\n      dup8\n        /* \"contracts/Conflict.sol\":3578:3602  conflicts[projectNumber] */\n      dup2\n      mstore\n      0x20\n      add\n      swap1\n      dup2\n      mstore\n      0x20\n      add\n      0x00\n      keccak256\n        /* \"contracts/Conflict.sol\":3578:3617  conflicts[projectNumber][serviceNumber] */\n      0x00\n        /* \"contracts/Conflict.sol\":3603:3616  serviceNumber */\n      dup7\n        /* \"contracts/Conflict.sol\":3578:3617  conflicts[projectNumber][serviceNumber] */\n      dup2\n      mstore\n      0x20\n      add\n      swap1\n      dup2\n      mstore\n      0x20\n      add\n      0x00\n      keccak256\n        /* \"contracts/Conflict.sol\":3578:3634  conflicts[projectNumber][serviceNumber][milestoneNumber] */\n      0x00\n        /* \"contracts/Conflict.sol\":3618:3633  milestoneNumber */\n      dup6\n        /* \"contracts/Conflict.sol\":3578:3634  conflicts[projectNumber][serviceNumber][milestoneNumber] */\n      dup2\n      mstore\n      0x20\n      add\n      swap1\n      dup2\n      mstore\n      0x20\n      add\n      0x00\n      keccak256\n        /* \"contracts/Conflict.sol\":3578:3651  conflicts[projectNumber][serviceNumber][milestoneNumber].serviceRequester */\n      0x05\n      add\n      0x00\n      swap1\n      sload\n      swap1\n      0x0100\n      exp\n      swap1\n      div\n      0xffffffffffffffffffffffffffffffffffffffff\n      and\n        /* \"contracts/Conflict.sol\":3578:3661  conflicts[projectNumber][serviceNumber][milestoneNumber].serviceRequester != sender */\n      0xffffffffffffffffffffffffffffffffffffffff\n      and\n      eq\n      iszero\n        /* \"contracts/Conflict.sol\":3570:3715  require(conflicts[projectNumber][serviceNumber][milestoneNumber].serviceRequester != sender , \"You raised this conflict. You cannot vote on it.\") */\n      tag_67\n      jumpi\n      mload(0x40)\n      0x08c379a000000000000000000000000000000000000000000000000000000000\n      dup2\n      mstore\n      0x04\n      add\n      tag_68\n      swap1\n      tag_69\n      jump\t// in\n    tag_68:\n      mload(0x40)\n      dup1\n      swap2\n      sub\n      swap1\n      revert\n    tag_67:\n        /* \"contracts/Conflict.sol\":3809:3815  sender */\n      dup2\n        /* \"contracts/Conflict.sol\":3733:3815  conflicts[projectNumber][serviceNumber][milestoneNumber].serviceProvider != sender */\n      0xffffffffffffffffffffffffffffffffffffffff\n      and\n        /* \"contracts/Conflict.sol\":3733:3742  conflicts */\n      0x00\n        /* \"contracts/Conflict.sol\":3733:3757  conflicts[projectNumber] */\n      dup1\n        /* \"contracts/Conflict.sol\":3743:3756  projectNumber */\n      dup8\n        /* \"contracts/Conflict.sol\":3733:3757  conflicts[projectNumber] */\n      dup2\n      mstore\n      0x20\n      add\n      swap1\n      dup2\n      mstore\n      0x20\n      add\n      0x00\n      keccak256\n        /* \"contracts/Conflict.sol\":3733:3772  conflicts[projectNumber][serviceNumber] */\n      0x00\n        /* \"contracts/Conflict.sol\":3758:3771  serviceNumber */\n      dup7\n        /* \"contracts/Conflict.sol\":3733:3772  conflicts[projectNumber][serviceNumber] */\n      dup2\n      mstore\n      0x20\n      add\n      swap1\n      dup2\n      mstore\n      0x20\n      add\n      0x00\n      keccak256\n        /* \"contracts/Conflict.sol\":3733:3789  conflicts[projectNumber][serviceNumber][milestoneNumber] */\n      0x00\n        /* \"contracts/Conflict.sol\":3773:3788  milestoneNumber */\n      dup6\n        /* \"contracts/Conflict.sol\":3733:3789  conflicts[projectNumber][serviceNumber][milestoneNumber] */\n      dup2\n      mstore\n      0x20\n      add\n      swap1\n      dup2\n      mstore\n      0x20\n      add\n      0x00\n      keccak256\n        /* \"contracts/Conflict.sol\":3733:3805  conflicts[projectNumber][serviceNumber][milestoneNumber].serviceProvider */\n      0x06\n      add\n      0x00\n      swap1\n      sload\n      swap1\n      0x0100\n      exp\n      swap1\n      div\n      0xffffffffffffffffffffffffffffffffffffffff\n      and\n        /* \"contracts/Conflict.sol\":3733:3815  conflicts[projectNumber][serviceNumber][milestoneNumber].serviceProvider != sender */\n      0xffffffffffffffffffffffffffffffffffffffff\n      and\n      eq\n      iszero\n        /* \"contracts/Conflict.sol\":3725:3877  require(conflicts[projectNumber][serviceNumber][milestoneNumber].serviceProvider != sender, \"You are involved in this conflict. You cannot vote on it.\") */\n      tag_70\n      jumpi\n      mload(0x40)\n      0x08c379a000000000000000000000000000000000000000000000000000000000\n      dup2\n      mstore\n      0x04\n      add\n      tag_71\n      swap1\n      tag_72\n      jump\t// in\n    tag_71:\n      mload(0x40)\n      dup1\n      swap2\n      sub\n      swap1\n      revert\n    tag_70:\n        /* \"contracts/Conflict.sol\":3978:3987  conflicts */\n      0x00\n        /* \"contracts/Conflict.sol\":3978:4002  conflicts[projectNumber] */\n      dup1\n        /* \"contracts/Conflict.sol\":3988:4001  projectNumber */\n      dup7\n        /* \"contracts/Conflict.sol\":3978:4002  conflicts[projectNumber] */\n      dup2\n      mstore\n      0x20\n      add\n      swap1\n      dup2\n      mstore\n      0x20\n      add\n      0x00\n      keccak256\n        /* \"contracts/Conflict.sol\":3978:4017  conflicts[projectNumber][serviceNumber] */\n      0x00\n        /* \"contracts/Conflict.sol\":4003:4016  serviceNumber */\n      dup6\n        /* \"contracts/Conflict.sol\":3978:4017  conflicts[projectNumber][serviceNumber] */\n      dup2\n      mstore\n      0x20\n      add\n      swap1\n      dup2\n      mstore\n      0x20\n      add\n      0x00\n      keccak256\n        /* \"contracts/Conflict.sol\":3978:4034  conflicts[projectNumber][serviceNumber][milestoneNumber] */\n      0x00\n        /* \"contracts/Conflict.sol\":4018:4033  milestoneNumber */\n      dup5\n        /* \"contracts/Conflict.sol\":3978:4034  conflicts[projectNumber][serviceNumber][milestoneNumber] */\n      dup2\n      mstore\n      0x20\n      add\n      swap1\n      dup2\n      mstore\n      0x20\n      add\n      0x00\n      keccak256\n        /* \"contracts/Conflict.sol\":3978:4041  conflicts[projectNumber][serviceNumber][milestoneNumber].voters */\n      0x07\n      add\n      sload\n        /* \"contracts/Conflict.sol\":3904:3913  conflicts */\n      0x00\n        /* \"contracts/Conflict.sol\":3904:3928  conflicts[projectNumber] */\n      dup1\n        /* \"contracts/Conflict.sol\":3914:3927  projectNumber */\n      dup8\n        /* \"contracts/Conflict.sol\":3904:3928  conflicts[projectNumber] */\n      dup2\n      mstore\n      0x20\n      add\n      swap1\n      dup2\n      mstore\n      0x20\n      add\n      0x00\n      keccak256\n        /* \"contracts/Conflict.sol\":3904:3943  conflicts[projectNumber][serviceNumber] */\n      0x00\n        /* \"contracts/Conflict.sol\":3929:3942  serviceNumber */\n      dup7\n        /* \"contracts/Conflict.sol\":3904:3943  conflicts[projectNumber][serviceNumber] */\n      dup2\n      mstore\n      0x20\n      add\n      swap1\n      dup2\n      mstore\n      0x20\n      add\n      0x00\n      keccak256\n        /* \"contracts/Conflict.sol\":3904:3960  conflicts[projectNumber][serviceNumber][milestoneNumber] */\n      0x00\n        /* \"contracts/Conflict.sol\":3944:3959  milestoneNumber */\n      dup6\n        /* \"contracts/Conflict.sol\":3904:3960  conflicts[projectNumber][serviceNumber][milestoneNumber] */\n      dup2\n      mstore\n      0x20\n      add\n      swap1\n      dup2\n      mstore\n      0x20\n      add\n      0x00\n      keccak256\n        /* \"contracts/Conflict.sol\":3904:3975  conflicts[projectNumber][serviceNumber][milestoneNumber].votesCollected */\n      0x08\n      add\n      sload\n        /* \"contracts/Conflict.sol\":3904:4041  conflicts[projectNumber][serviceNumber][milestoneNumber].votesCollected < conflicts[projectNumber][serviceNumber][milestoneNumber].voters */\n      lt\n        /* \"contracts/Conflict.sol\":3896:4078  require(conflicts[projectNumber][serviceNumber][milestoneNumber].votesCollected < conflicts[projectNumber][serviceNumber][milestoneNumber].voters, \"Enough votes have been collected\") */\n      tag_73\n      jumpi\n      mload(0x40)\n      0x08c379a000000000000000000000000000000000000000000000000000000000\n      dup2\n      mstore\n      0x04\n      add\n      tag_74\n      swap1\n      tag_75\n      jump\t// in\n    tag_74:\n      mload(0x40)\n      dup1\n      swap2\n      sub\n      swap1\n      revert\n    tag_73:\n        /* \"contracts/Conflict.sol\":4170:4171  0 */\n      0x00\n        /* \"contracts/Conflict.sol\":4096:4105  conflicts */\n      dup1\n        /* \"contracts/Conflict.sol\":4096:4120  conflicts[projectNumber] */\n      0x00\n        /* \"contracts/Conflict.sol\":4106:4119  projectNumber */\n      dup8\n        /* \"contracts/Conflict.sol\":4096:4120  conflicts[projectNumber] */\n      dup2\n      mstore\n      0x20\n      add\n      swap1\n      dup2\n      mstore\n      0x20\n      add\n      0x00\n      keccak256\n        /* \"contracts/Conflict.sol\":4096:4135  conflicts[projectNumber][serviceNumber] */\n      0x00\n        /* \"contracts/Conflict.sol\":4121:4134  serviceNumber */\n      dup7\n        /* \"contracts/Conflict.sol\":4096:4135  conflicts[projectNumber][serviceNumber] */\n      dup2\n      mstore\n      0x20\n      add\n      swap1\n      dup2\n      mstore\n      0x20\n      add\n      0x00\n      keccak256\n        /* \"contracts/Conflict.sol\":4096:4152  conflicts[projectNumber][serviceNumber][milestoneNumber] */\n      0x00\n        /* \"contracts/Conflict.sol\":4136:4151  milestoneNumber */\n      dup6\n        /* \"contracts/Conflict.sol\":4096:4152  conflicts[projectNumber][serviceNumber][milestoneNumber] */\n      dup2\n      mstore\n      0x20\n      add\n      swap1\n      dup2\n      mstore\n      0x20\n      add\n      0x00\n      keccak256\n        /* \"contracts/Conflict.sol\":4096:4158  conflicts[projectNumber][serviceNumber][milestoneNumber].votes */\n      0x0c\n      add\n        /* \"contracts/Conflict.sol\":4096:4166  conflicts[projectNumber][serviceNumber][milestoneNumber].votes[sender] */\n      0x00\n        /* \"contracts/Conflict.sol\":4159:4165  sender */\n      dup5\n        /* \"contracts/Conflict.sol\":4096:4166  conflicts[projectNumber][serviceNumber][milestoneNumber].votes[sender] */\n      0xffffffffffffffffffffffffffffffffffffffff\n      and\n      0xffffffffffffffffffffffffffffffffffffffff\n      and\n      dup2\n      mstore\n      0x20\n      add\n      swap1\n      dup2\n      mstore\n      0x20\n      add\n      0x00\n      keccak256\n      0x00\n      swap1\n      sload\n      swap1\n      0x0100\n      exp\n      swap1\n      div\n      0xff\n      and\n        /* \"contracts/Conflict.sol\":4096:4171  conflicts[projectNumber][serviceNumber][milestoneNumber].votes[sender] == 0 */\n      0xff\n      and\n      eq\n        /* \"contracts/Conflict.sol\":4088:4222  require(conflicts[projectNumber][serviceNumber][milestoneNumber].votes[sender] == 0 , \"You have already voted, you cannot vote again\") */\n      tag_76\n      jumpi\n      mload(0x40)\n      0x08c379a000000000000000000000000000000000000000000000000000000000\n      dup2\n      mstore\n      0x04\n      add\n      tag_77\n      swap1\n      tag_78\n      jump\t// in\n    tag_77:\n      mload(0x40)\n      dup1\n      swap2\n      sub\n      swap1\n      revert\n    tag_76:\n        /* \"contracts/Conflict.sol\":4248:4249  1 */\n      0x01\n        /* \"contracts/Conflict.sol\":4240:4244  vote */\n      dup2\n        /* \"contracts/Conflict.sol\":4240:4249  vote == 1 */\n      0xff\n      and\n      eq\n        /* \"contracts/Conflict.sol\":4240:4262  vote == 1 || vote == 2 */\n      dup1\n      tag_79\n      jumpi\n      pop\n        /* \"contracts/Conflict.sol\":4261:4262  2 */\n      0x02\n        /* \"contracts/Conflict.sol\":4253:4257  vote */\n      dup2\n        /* \"contracts/Conflict.sol\":4253:4262  vote == 2 */\n      0xff\n      and\n      eq\n        /* \"contracts/Conflict.sol\":4240:4262  vote == 1 || vote == 2 */\n    tag_79:\n        /* \"contracts/Conflict.sol\":4232:4354  require(vote == 1 || vote == 2, \"You have not input a right vote. You can either vote 1 for Requester or 2 for Provider.\") */\n      tag_80\n      jumpi\n      mload(0x40)\n      0x08c379a000000000000000000000000000000000000000000000000000000000\n      dup2\n      mstore\n      0x04\n      add\n      tag_81\n      swap1\n      tag_82\n      jump\t// in\n    tag_81:\n      mload(0x40)\n      dup1\n      swap2\n      sub\n      swap1\n      revert\n    tag_80:\n        /* \"contracts/Conflict.sol\":4365:4383  conflict storage C */\n      0x00\n        /* \"contracts/Conflict.sol\":4386:4395  conflicts */\n      dup1\n        /* \"contracts/Conflict.sol\":4386:4410  conflicts[projectNumber] */\n      0x00\n        /* \"contracts/Conflict.sol\":4396:4409  projectNumber */\n      dup8\n        /* \"contracts/Conflict.sol\":4386:4410  conflicts[projectNumber] */\n      dup2\n      mstore\n      0x20\n      add\n      swap1\n      dup2\n      mstore\n      0x20\n      add\n      0x00\n      keccak256\n        /* \"contracts/Conflict.sol\":4386:4425  conflicts[projectNumber][serviceNumber] */\n      0x00\n        /* \"contracts/Conflict.sol\":4411:4424  serviceNumber */\n      dup7\n        /* \"contracts/Conflict.sol\":4386:4425  conflicts[projectNumber][serviceNumber] */\n      dup2\n      mstore\n      0x20\n      add\n      swap1\n      dup2\n      mstore\n      0x20\n      add\n      0x00\n      keccak256\n        /* \"contracts/Conflict.sol\":4386:4442  conflicts[projectNumber][serviceNumber][milestoneNumber] */\n      0x00\n        /* \"contracts/Conflict.sol\":4426:4441  milestoneNumber */\n      dup6\n        /* \"contracts/Conflict.sol\":4386:4442  conflicts[projectNumber][serviceNumber][milestoneNumber] */\n      dup2\n      mstore\n      0x20\n      add\n      swap1\n      dup2\n      mstore\n      0x20\n      add\n      0x00\n      keccak256\n        /* \"contracts/Conflict.sol\":4365:4442  conflict storage C = conflicts[projectNumber][serviceNumber][milestoneNumber] */\n      swap1\n      pop\n        /* \"contracts/Conflict.sol\":4470:4474  vote */\n      dup2\n        /* \"contracts/Conflict.sol\":4452:4453  C */\n      dup2\n        /* \"contracts/Conflict.sol\":4452:4459  C.votes */\n      0x0c\n      add\n        /* \"contracts/Conflict.sol\":4452:4467  C.votes[sender] */\n      0x00\n        /* \"contracts/Conflict.sol\":4460:4466  sender */\n      dup6\n        /* \"contracts/Conflict.sol\":4452:4467  C.votes[sender] */\n      0xffffffffffffffffffffffffffffffffffffffff\n      and\n      0xffffffffffffffffffffffffffffffffffffffff\n      and\n      dup2\n      mstore\n      0x20\n      add\n      swap1\n      dup2\n      mstore\n      0x20\n      add\n      0x00\n      keccak256\n      0x00\n        /* \"contracts/Conflict.sol\":4452:4474  C.votes[sender] = vote */\n      0x0100\n      exp\n      dup2\n      sload\n      dup2\n      0xff\n      mul\n      not\n      and\n      swap1\n      dup4\n      0xff\n      and\n      mul\n      or\n      swap1\n      sstore\n      pop\n        /* \"contracts/Conflict.sol\":4497:4498  1 */\n      0x01\n        /* \"contracts/Conflict.sol\":4489:4493  vote */\n      dup3\n        /* \"contracts/Conflict.sol\":4489:4498  vote == 1 */\n      0xff\n      and\n      eq\n        /* \"contracts/Conflict.sol\":4485:4523  if (vote == 1) { C.requesterVotes++; } */\n      iszero\n      tag_83\n      jumpi\n        /* \"contracts/Conflict.sol\":4502:4503  C */\n      dup1\n        /* \"contracts/Conflict.sol\":4502:4518  C.requesterVotes */\n      0x09\n      add\n      0x00\n        /* \"contracts/Conflict.sol\":4502:4520  C.requesterVotes++ */\n      dup2\n      sload\n      dup1\n      swap3\n      swap2\n      swap1\n      tag_84\n      swap1\n      tag_85\n      jump\t// in\n    tag_84:\n      swap2\n      swap1\n      pop\n      sstore\n      pop\n        /* \"contracts/Conflict.sol\":4485:4523  if (vote == 1) { C.requesterVotes++; } */\n    tag_83:\n        /* \"contracts/Conflict.sol\":4544:4545  2 */\n      0x02\n        /* \"contracts/Conflict.sol\":4536:4540  vote */\n      dup3\n        /* \"contracts/Conflict.sol\":4536:4545  vote == 2 */\n      0xff\n      and\n      eq\n        /* \"contracts/Conflict.sol\":4532:4569  if (vote == 2) { C.providerVotes++; } */\n      iszero\n      tag_86\n      jumpi\n        /* \"contracts/Conflict.sol\":4549:4550  C */\n      dup1\n        /* \"contracts/Conflict.sol\":4549:4564  C.providerVotes */\n      0x0a\n      add\n      0x00\n        /* \"contracts/Conflict.sol\":4549:4566  C.providerVotes++ */\n      dup2\n      sload\n      dup1\n      swap3\n      swap2\n      swap1\n      tag_87\n      swap1\n      tag_85\n      jump\t// in\n    tag_87:\n      swap2\n      swap1\n      pop\n      sstore\n      pop\n        /* \"contracts/Conflict.sol\":4532:4569  if (vote == 2) { C.providerVotes++; } */\n    tag_86:\n        /* \"contracts/Conflict.sol\":4578:4579  C */\n      dup1\n        /* \"contracts/Conflict.sol\":4578:4594  C.votesCollected */\n      0x08\n      add\n      0x00\n        /* \"contracts/Conflict.sol\":4578:4596  C.votesCollected++ */\n      dup2\n      sload\n      dup1\n      swap3\n      swap2\n      swap1\n      tag_88\n      swap1\n      tag_85\n      jump\t// in\n    tag_88:\n      swap2\n      swap1\n      pop\n      sstore\n      pop\n        /* \"contracts/Conflict.sol\":4612:4690  conflictVoted(projectNumber, serviceNumber, milestoneNumber, msg.sender, vote) */\n      0x20211b974adbe11ce3687d51504ce7ef1fcfbb9c00405ba7aca7b283903f345a\n        /* \"contracts/Conflict.sol\":4626:4639  projectNumber */\n      dup7\n        /* \"contracts/Conflict.sol\":4641:4654  serviceNumber */\n      dup7\n        /* \"contracts/Conflict.sol\":4656:4671  milestoneNumber */\n      dup7\n        /* \"contracts/Conflict.sol\":4673:4683  msg.sender */\n      caller\n        /* \"contracts/Conflict.sol\":4685:4689  vote */\n      dup7\n        /* \"contracts/Conflict.sol\":4612:4690  conflictVoted(projectNumber, serviceNumber, milestoneNumber, msg.sender, vote) */\n      mload(0x40)\n      tag_89\n      swap6\n      swap5\n      swap4\n      swap3\n      swap2\n      swap1\n      tag_90\n      jump\t// in\n    tag_89:\n      mload(0x40)\n      dup1\n      swap2\n      sub\n      swap1\n      log1\n        /* \"contracts/Conflict.sol\":4725:4726  C */\n      dup1\n        /* \"contracts/Conflict.sol\":4725:4733  C.voters */\n      0x07\n      add\n      sload\n        /* \"contracts/Conflict.sol\":4705:4706  C */\n      dup2\n        /* \"contracts/Conflict.sol\":4705:4721  C.votesCollected */\n      0x08\n      add\n      sload\n        /* \"contracts/Conflict.sol\":4705:4733  C.votesCollected == C.voters */\n      eq\n        /* \"contracts/Conflict.sol\":4701:5063  if (C.votesCollected == C.voters) {... */\n      iszero\n      tag_91\n      jumpi\n        /* \"contracts/Conflict.sol\":4771:4772  C */\n      dup1\n        /* \"contracts/Conflict.sol\":4771:4787  C.requesterVotes */\n      0x09\n      add\n      sload\n        /* \"contracts/Conflict.sol\":4753:4754  C */\n      dup2\n        /* \"contracts/Conflict.sol\":4753:4768  C.providerVotes */\n      0x0a\n      add\n      sload\n        /* \"contracts/Conflict.sol\":4753:4787  C.providerVotes > C.requesterVotes */\n      gt\n        /* \"contracts/Conflict.sol\":4749:4838  if (C.providerVotes > C.requesterVotes) {C.result = 2; }... */\n      iszero\n      tag_92\n      jumpi\n        /* \"contracts/Conflict.sol\":4801:4802  2 */\n      0x02\n        /* \"contracts/Conflict.sol\":4790:4791  C */\n      dup2\n        /* \"contracts/Conflict.sol\":4790:4798  C.result */\n      0x0b\n      add\n      0x01\n        /* \"contracts/Conflict.sol\":4790:4802  C.result = 2 */\n      0x0100\n      exp\n      dup2\n      sload\n      dup2\n      0xff\n      mul\n      not\n      and\n      swap1\n      dup4\n      0xff\n      and\n      mul\n      or\n      swap1\n      sstore\n      pop\n        /* \"contracts/Conflict.sol\":4749:4838  if (C.providerVotes > C.requesterVotes) {C.result = 2; }... */\n      jump(tag_93)\n    tag_92:\n        /* \"contracts/Conflict.sol\":4835:4836  1 */\n      0x01\n        /* \"contracts/Conflict.sol\":4824:4825  C */\n      dup2\n        /* \"contracts/Conflict.sol\":4824:4832  C.result */\n      0x0b\n      add\n      0x01\n        /* \"contracts/Conflict.sol\":4824:4836  C.result = 1 */\n      0x0100\n      exp\n      dup2\n      sload\n      dup2\n      0xff\n      mul\n      not\n      and\n      swap1\n      dup4\n      0xff\n      and\n      mul\n      or\n      swap1\n      sstore\n      pop\n        /* \"contracts/Conflict.sol\":4749:4838  if (C.providerVotes > C.requesterVotes) {C.result = 2; }... */\n    tag_93:\n        /* \"contracts/Conflict.sol\":4930:4961  States.ConflictStatus.completed */\n      0x02\n        /* \"contracts/Conflict.sol\":4911:4912  C */\n      dup2\n        /* \"contracts/Conflict.sol\":4911:4927  C.conflictStatus */\n      0x06\n      add\n      0x14\n        /* \"contracts/Conflict.sol\":4911:4961  C.conflictStatus = States.ConflictStatus.completed */\n      0x0100\n      exp\n      dup2\n      sload\n      dup2\n      0xff\n      mul\n      not\n      and\n      swap1\n      dup4\n      0x02\n      dup2\n      gt\n      iszero\n      tag_94\n      jumpi\n      tag_95\n      tag_58\n      jump\t// in\n    tag_95:\n    tag_94:\n      mul\n      or\n      swap1\n      sstore\n      pop\n        /* \"contracts/Conflict.sol\":4981:5052  conflictResult(projectNumber, serviceNumber, milestoneNumber, C.result) */\n      0xe59fdbc65a5dd63c529717c2a71d04b136038f05301755de242dd05990c02814\n        /* \"contracts/Conflict.sol\":4996:5009  projectNumber */\n      dup7\n        /* \"contracts/Conflict.sol\":5011:5024  serviceNumber */\n      dup7\n        /* \"contracts/Conflict.sol\":5026:5041  milestoneNumber */\n      dup7\n        /* \"contracts/Conflict.sol\":5043:5044  C */\n      dup5\n        /* \"contracts/Conflict.sol\":5043:5051  C.result */\n      0x0b\n      add\n      0x01\n      swap1\n      sload\n      swap1\n      0x0100\n      exp\n      swap1\n      div\n      0xff\n      and\n        /* \"contracts/Conflict.sol\":4981:5052  conflictResult(projectNumber, serviceNumber, milestoneNumber, C.result) */\n      mload(0x40)\n      tag_96\n      swap5\n      swap4\n      swap3\n      swap2\n      swap1\n      tag_97\n      jump\t// in\n    tag_96:\n      mload(0x40)\n      dup1\n      swap2\n      sub\n      swap1\n      log1\n        /* \"contracts/Conflict.sol\":4701:5063  if (C.votesCollected == C.voters) {... */\n    tag_91:\n        /* \"contracts/Conflict.sol\":3560:5069  {... */\n      pop\n        /* \"contracts/Conflict.sol\":3432:5069  function voteConflict(uint256 projectNumber, uint256 serviceNumber, uint256 milestoneNumber, address sender, uint8 vote) public {... */\n      pop\n      pop\n      pop\n      pop\n      pop\n      jump\t// out\n        /* \"contracts/Conflict.sol\":5744:5981  function getConflictStatus(uint256 projectNumber, uint256 serviceNumber, uint256 milestoneNumber) public view returns (States.ConflictStatus) {... */\n    tag_36:\n        /* \"contracts/Conflict.sol\":5863:5884  States.ConflictStatus */\n      0x00\n        /* \"contracts/Conflict.sol\":5903:5912  conflicts */\n      dup1\n        /* \"contracts/Conflict.sol\":5903:5927  conflicts[projectNumber] */\n      0x00\n        /* \"contracts/Conflict.sol\":5913:5926  projectNumber */\n      dup6\n        /* \"contracts/Conflict.sol\":5903:5927  conflicts[projectNumber] */\n      dup2\n      mstore\n      0x20\n      add\n      swap1\n      dup2\n      mstore\n      0x20\n      add\n      0x00\n      keccak256\n        /* \"contracts/Conflict.sol\":5903:5942  conflicts[projectNumber][serviceNumber] */\n      0x00\n        /* \"contracts/Conflict.sol\":5928:5941  serviceNumber */\n      dup5\n        /* \"contracts/Conflict.sol\":5903:5942  conflicts[projectNumber][serviceNumber] */\n      dup2\n      mstore\n      0x20\n      add\n      swap1\n      dup2\n      mstore\n      0x20\n      add\n      0x00\n      keccak256\n        /* \"contracts/Conflict.sol\":5903:5959  conflicts[projectNumber][serviceNumber][milestoneNumber] */\n      0x00\n        /* \"contracts/Conflict.sol\":5943:5958  milestoneNumber */\n      dup4\n        /* \"contracts/Conflict.sol\":5903:5959  conflicts[projectNumber][serviceNumber][milestoneNumber] */\n      dup2\n      mstore\n      0x20\n      add\n      swap1\n      dup2\n      mstore\n      0x20\n      add\n      0x00\n      keccak256\n        /* \"contracts/Conflict.sol\":5903:5974  conflicts[projectNumber][serviceNumber][milestoneNumber].conflictStatus */\n      0x06\n      add\n      0x14\n      swap1\n      sload\n      swap1\n      0x0100\n      exp\n      swap1\n      div\n      0xff\n      and\n        /* \"contracts/Conflict.sol\":5896:5974  return conflicts[projectNumber][serviceNumber][milestoneNumber].conflictStatus */\n      swap1\n      pop\n        /* \"contracts/Conflict.sol\":5744:5981  function getConflictStatus(uint256 projectNumber, uint256 serviceNumber, uint256 milestoneNumber) public view returns (States.ConflictStatus) {... */\n      swap4\n      swap3\n      pop\n      pop\n      pop\n      jump\t// out\n        /* \"contracts/Conflict.sol\":2809:3140  function updateConflict(uint256 projectNumber, uint256 serviceNumber, uint256 milestoneNumber, string memory title, string memory description) external {... */\n    tag_42:\n        /* \"contracts/Conflict.sol\":3036:3041  title */\n      dup2\n        /* \"contracts/Conflict.sol\":2971:2980  conflicts */\n      0x00\n        /* \"contracts/Conflict.sol\":2971:2995  conflicts[projectNumber] */\n      dup1\n        /* \"contracts/Conflict.sol\":2981:2994  projectNumber */\n      dup8\n        /* \"contracts/Conflict.sol\":2971:2995  conflicts[projectNumber] */\n      dup2\n      mstore\n      0x20\n      add\n      swap1\n      dup2\n      mstore\n      0x20\n      add\n      0x00\n      keccak256\n        /* \"contracts/Conflict.sol\":2971:3010  conflicts[projectNumber][serviceNumber] */\n      0x00\n        /* \"contracts/Conflict.sol\":2996:3009  serviceNumber */\n      dup7\n        /* \"contracts/Conflict.sol\":2971:3010  conflicts[projectNumber][serviceNumber] */\n      dup2\n      mstore\n      0x20\n      add\n      swap1\n      dup2\n      mstore\n      0x20\n      add\n      0x00\n      keccak256\n        /* \"contracts/Conflict.sol\":2971:3027  conflicts[projectNumber][serviceNumber][milestoneNumber] */\n      0x00\n        /* \"contracts/Conflict.sol\":3011:3026  milestoneNumber */\n      dup6\n        /* \"contracts/Conflict.sol\":2971:3027  conflicts[projectNumber][serviceNumber][milestoneNumber] */\n      dup2\n      mstore\n      0x20\n      add\n      swap1\n      dup2\n      mstore\n      0x20\n      add\n      0x00\n      keccak256\n        /* \"contracts/Conflict.sol\":2971:3033  conflicts[projectNumber][serviceNumber][milestoneNumber].title */\n      0x03\n      add\n        /* \"contracts/Conflict.sol\":2971:3041  conflicts[projectNumber][serviceNumber][milestoneNumber].title = title */\n      swap1\n      dup1\n      mload\n      swap1\n      0x20\n      add\n      swap1\n      tag_100\n      swap3\n      swap2\n      swap1\n      tag_101\n      jump\t// in\n    tag_100:\n      pop\n        /* \"contracts/Conflict.sol\":3122:3133  description */\n      dup1\n        /* \"contracts/Conflict.sol\":3051:3060  conflicts */\n      0x00\n        /* \"contracts/Conflict.sol\":3051:3075  conflicts[projectNumber] */\n      dup1\n        /* \"contracts/Conflict.sol\":3061:3074  projectNumber */\n      dup8\n        /* \"contracts/Conflict.sol\":3051:3075  conflicts[projectNumber] */\n      dup2\n      mstore\n      0x20\n      add\n      swap1\n      dup2\n      mstore\n      0x20\n      add\n      0x00\n      keccak256\n        /* \"contracts/Conflict.sol\":3051:3090  conflicts[projectNumber][serviceNumber] */\n      0x00\n        /* \"contracts/Conflict.sol\":3076:3089  serviceNumber */\n      dup7\n        /* \"contracts/Conflict.sol\":3051:3090  conflicts[projectNumber][serviceNumber] */\n      dup2\n      mstore\n      0x20\n      add\n      swap1\n      dup2\n      mstore\n      0x20\n      add\n      0x00\n      keccak256\n        /* \"contracts/Conflict.sol\":3051:3107  conflicts[projectNumber][serviceNumber][milestoneNumber] */\n      0x00\n        /* \"contracts/Conflict.sol\":3091:3106  milestoneNumber */\n      dup6\n        /* \"contracts/Conflict.sol\":3051:3107  conflicts[projectNumber][serviceNumber][milestoneNumber] */\n      dup2\n      mstore\n      0x20\n      add\n      swap1\n      dup2\n      mstore\n      0x20\n      add\n      0x00\n      keccak256\n        /* \"contracts/Conflict.sol\":3051:3119  conflicts[projectNumber][serviceNumber][milestoneNumber].description */\n      0x04\n      add\n        /* \"contracts/Conflict.sol\":3051:3133  conflicts[projectNumber][serviceNumber][milestoneNumber].description = description */\n      swap1\n      dup1\n      mload\n      swap1\n      0x20\n      add\n      swap1\n      tag_102\n      swap3\n      swap2\n      swap1\n      tag_101\n      jump\t// in\n    tag_102:\n      pop\n        /* \"contracts/Conflict.sol\":2809:3140  function updateConflict(uint256 projectNumber, uint256 serviceNumber, uint256 milestoneNumber, string memory title, string memory description) external {... */\n      pop\n      pop\n      pop\n      pop\n      pop\n      jump\t// out\n        /* \"contracts/Conflict.sol\":6216:6442  function getVotesforRequester(uint256 projectNumber, uint256 serviceNumber, uint256 milestoneNumber) public view returns (uint256) {... */\n    tag_45:\n        /* \"contracts/Conflict.sol\":6338:6345  uint256 */\n      0x00\n        /* \"contracts/Conflict.sol\":6364:6373  conflicts */\n      dup1\n        /* \"contracts/Conflict.sol\":6364:6388  conflicts[projectNumber] */\n      0x00\n        /* \"contracts/Conflict.sol\":6374:6387  projectNumber */\n      dup6\n        /* \"contracts/Conflict.sol\":6364:6388  conflicts[projectNumber] */\n      dup2\n      mstore\n      0x20\n      add\n      swap1\n      dup2\n      mstore\n      0x20\n      add\n      0x00\n      keccak256\n        /* \"contracts/Conflict.sol\":6364:6403  conflicts[projectNumber][serviceNumber] */\n      0x00\n        /* \"contracts/Conflict.sol\":6389:6402  serviceNumber */\n      dup5\n        /* \"contracts/Conflict.sol\":6364:6403  conflicts[projectNumber][serviceNumber] */\n      dup2\n      mstore\n      0x20\n      add\n      swap1\n      dup2\n      mstore\n      0x20\n      add\n      0x00\n      keccak256\n        /* \"contracts/Conflict.sol\":6364:6420  conflicts[projectNumber][serviceNumber][milestoneNumber] */\n      0x00\n        /* \"contracts/Conflict.sol\":6404:6419  milestoneNumber */\n      dup4\n        /* \"contracts/Conflict.sol\":6364:6420  conflicts[projectNumber][serviceNumber][milestoneNumber] */\n      dup2\n      mstore\n      0x20\n      add\n      swap1\n      dup2\n      mstore\n      0x20\n      add\n      0x00\n      keccak256\n        /* \"contracts/Conflict.sol\":6364:6435  conflicts[projectNumber][serviceNumber][milestoneNumber].requesterVotes */\n      0x09\n      add\n      sload\n        /* \"contracts/Conflict.sol\":6357:6435  return conflicts[projectNumber][serviceNumber][milestoneNumber].requesterVotes */\n      swap1\n      pop\n        /* \"contracts/Conflict.sol\":6216:6442  function getVotesforRequester(uint256 projectNumber, uint256 serviceNumber, uint256 milestoneNumber) public view returns (uint256) {... */\n      swap4\n      swap3\n      pop\n      pop\n      pop\n      jump\t// out\n        /* \"contracts/Conflict.sol\":1449:2762  function createConflict(uint256 projectNumber, uint256 serviceNumber, uint256 milestoneNumber, string memory title, string memory description, address serviceRequester, address serviceProvider,  uint256 totalVoters) public {... */\n    tag_50:\n        /* \"contracts/Conflict.sol\":1756:1760  true */\n      0x01\n        /* \"contracts/Conflict.sol\":1690:1760  conflicts[projectNumber][serviceNumber][milestoneNumber].exist != true */\n      iszero\n      iszero\n        /* \"contracts/Conflict.sol\":1690:1699  conflicts */\n      0x00\n        /* \"contracts/Conflict.sol\":1690:1714  conflicts[projectNumber] */\n      dup1\n        /* \"contracts/Conflict.sol\":1700:1713  projectNumber */\n      dup11\n        /* \"contracts/Conflict.sol\":1690:1714  conflicts[projectNumber] */\n      dup2\n      mstore\n      0x20\n      add\n      swap1\n      dup2\n      mstore\n      0x20\n      add\n      0x00\n      keccak256\n        /* \"contracts/Conflict.sol\":1690:1729  conflicts[projectNumber][serviceNumber] */\n      0x00\n        /* \"contracts/Conflict.sol\":1715:1728  serviceNumber */\n      dup10\n        /* \"contracts/Conflict.sol\":1690:1729  conflicts[projectNumber][serviceNumber] */\n      dup2\n      mstore\n      0x20\n      add\n      swap1\n      dup2\n      mstore\n      0x20\n      add\n      0x00\n      keccak256\n        /* \"contracts/Conflict.sol\":1690:1746  conflicts[projectNumber][serviceNumber][milestoneNumber] */\n      0x00\n        /* \"contracts/Conflict.sol\":1730:1745  milestoneNumber */\n      dup9\n        /* \"contracts/Conflict.sol\":1690:1746  conflicts[projectNumber][serviceNumber][milestoneNumber] */\n      dup2\n      mstore\n      0x20\n      add\n      swap1\n      dup2\n      mstore\n      0x20\n      add\n      0x00\n      keccak256\n        /* \"contracts/Conflict.sol\":1690:1752  conflicts[projectNumber][serviceNumber][milestoneNumber].exist */\n      0x0b\n      add\n      0x00\n      swap1\n      sload\n      swap1\n      0x0100\n      exp\n      swap1\n      div\n      0xff\n      and\n        /* \"contracts/Conflict.sol\":1690:1760  conflicts[projectNumber][serviceNumber][milestoneNumber].exist != true */\n      iszero\n      iszero\n      eq\n      iszero\n        /* \"contracts/Conflict.sol\":1682:1843  require(conflicts[projectNumber][serviceNumber][milestoneNumber].exist != true , \"Conflict has already been created. Please do not create more than 1 conflict.\") */\n      tag_105\n      jumpi\n      mload(0x40)\n      0x08c379a000000000000000000000000000000000000000000000000000000000\n      dup2\n      mstore\n      0x04\n      add\n      tag_106\n      swap1\n      tag_107\n      jump\t// in\n    tag_106:\n      mload(0x40)\n      dup1\n      swap2\n      sub\n      swap1\n      revert\n    tag_105:\n        /* \"contracts/Conflict.sol\":1879:1907  conflict storage newConflict */\n      0x00\n        /* \"contracts/Conflict.sol\":1910:1919  conflicts */\n      dup1\n        /* \"contracts/Conflict.sol\":1910:1934  conflicts[projectNumber] */\n      0x00\n        /* \"contracts/Conflict.sol\":1920:1933  projectNumber */\n      dup11\n        /* \"contracts/Conflict.sol\":1910:1934  conflicts[projectNumber] */\n      dup2\n      mstore\n      0x20\n      add\n      swap1\n      dup2\n      mstore\n      0x20\n      add\n      0x00\n      keccak256\n        /* \"contracts/Conflict.sol\":1910:1949  conflicts[projectNumber][serviceNumber] */\n      0x00\n        /* \"contracts/Conflict.sol\":1935:1948  serviceNumber */\n      dup10\n        /* \"contracts/Conflict.sol\":1910:1949  conflicts[projectNumber][serviceNumber] */\n      dup2\n      mstore\n      0x20\n      add\n      swap1\n      dup2\n      mstore\n      0x20\n      add\n      0x00\n      keccak256\n        /* \"contracts/Conflict.sol\":1910:1966  conflicts[projectNumber][serviceNumber][milestoneNumber] */\n      0x00\n        /* \"contracts/Conflict.sol\":1950:1965  milestoneNumber */\n      dup9\n        /* \"contracts/Conflict.sol\":1910:1966  conflicts[projectNumber][serviceNumber][milestoneNumber] */\n      dup2\n      mstore\n      0x20\n      add\n      swap1\n      dup2\n      mstore\n      0x20\n      add\n      0x00\n      keccak256\n        /* \"contracts/Conflict.sol\":1879:1966  conflict storage newConflict = conflicts[projectNumber][serviceNumber][milestoneNumber] */\n      swap1\n      pop\n        /* \"contracts/Conflict.sol\":2004:2017  projectNumber */\n      dup9\n        /* \"contracts/Conflict.sol\":1976:1987  newConflict */\n      dup2\n        /* \"contracts/Conflict.sol\":1976:2001  newConflict.projectNumber */\n      0x00\n      add\n        /* \"contracts/Conflict.sol\":1976:2017  newConflict.projectNumber = projectNumber */\n      dup2\n      swap1\n      sstore\n      pop\n        /* \"contracts/Conflict.sol\":2060:2073  serviceNumber */\n      dup8\n        /* \"contracts/Conflict.sol\":2032:2043  newConflict */\n      dup2\n        /* \"contracts/Conflict.sol\":2032:2057  newConflict.serviceNumber */\n      0x01\n      add\n        /* \"contracts/Conflict.sol\":2032:2073  newConflict.serviceNumber = serviceNumber */\n      dup2\n      swap1\n      sstore\n      pop\n        /* \"contracts/Conflict.sol\":2121:2136  milestoneNumber */\n      dup7\n        /* \"contracts/Conflict.sol\":2091:2102  newConflict */\n      dup2\n        /* \"contracts/Conflict.sol\":2091:2118  newConflict.milestoneNumber */\n      0x02\n      add\n        /* \"contracts/Conflict.sol\":2091:2136  newConflict.milestoneNumber = milestoneNumber */\n      dup2\n      swap1\n      sstore\n      pop\n        /* \"contracts/Conflict.sol\":2166:2171  title */\n      dup6\n        /* \"contracts/Conflict.sol\":2146:2157  newConflict */\n      dup2\n        /* \"contracts/Conflict.sol\":2146:2163  newConflict.title */\n      0x03\n      add\n        /* \"contracts/Conflict.sol\":2146:2171  newConflict.title = title */\n      swap1\n      dup1\n      mload\n      swap1\n      0x20\n      add\n      swap1\n      tag_108\n      swap3\n      swap2\n      swap1\n      tag_101\n      jump\t// in\n    tag_108:\n      pop\n        /* \"contracts/Conflict.sol\":2207:2218  description */\n      dup5\n        /* \"contracts/Conflict.sol\":2181:2192  newConflict */\n      dup2\n        /* \"contracts/Conflict.sol\":2181:2204  newConflict.description */\n      0x04\n      add\n        /* \"contracts/Conflict.sol\":2181:2218  newConflict.description = description */\n      swap1\n      dup1\n      mload\n      swap1\n      0x20\n      add\n      swap1\n      tag_109\n      swap3\n      swap2\n      swap1\n      tag_101\n      jump\t// in\n    tag_109:\n      pop\n        /* \"contracts/Conflict.sol\":2259:2275  serviceRequester */\n      dup4\n        /* \"contracts/Conflict.sol\":2228:2239  newConflict */\n      dup2\n        /* \"contracts/Conflict.sol\":2228:2256  newConflict.serviceRequester */\n      0x05\n      add\n      0x00\n        /* \"contracts/Conflict.sol\":2228:2275  newConflict.serviceRequester = serviceRequester */\n      0x0100\n      exp\n      dup2\n      sload\n      dup2\n      0xffffffffffffffffffffffffffffffffffffffff\n      mul\n      not\n      and\n      swap1\n      dup4\n      0xffffffffffffffffffffffffffffffffffffffff\n      and\n      mul\n      or\n      swap1\n      sstore\n      pop\n        /* \"contracts/Conflict.sol\":2315:2330  serviceProvider */\n      dup3\n        /* \"contracts/Conflict.sol\":2285:2296  newConflict */\n      dup2\n        /* \"contracts/Conflict.sol\":2285:2312  newConflict.serviceProvider */\n      0x06\n      add\n      0x00\n        /* \"contracts/Conflict.sol\":2285:2330  newConflict.serviceProvider = serviceProvider */\n      0x0100\n      exp\n      dup2\n      sload\n      dup2\n      0xffffffffffffffffffffffffffffffffffffffff\n      mul\n      not\n      and\n      swap1\n      dup4\n      0xffffffffffffffffffffffffffffffffffffffff\n      and\n      mul\n      or\n      swap1\n      sstore\n      pop\n        /* \"contracts/Conflict.sol\":2369:2398  States.ConflictStatus.pending */\n      0x01\n        /* \"contracts/Conflict.sol\":2340:2351  newConflict */\n      dup2\n        /* \"contracts/Conflict.sol\":2340:2366  newConflict.conflictStatus */\n      0x06\n      add\n      0x14\n        /* \"contracts/Conflict.sol\":2340:2398  newConflict.conflictStatus = States.ConflictStatus.pending */\n      0x0100\n      exp\n      dup2\n      sload\n      dup2\n      0xff\n      mul\n      not\n      and\n      swap1\n      dup4\n      0x02\n      dup2\n      gt\n      iszero\n      tag_110\n      jumpi\n      tag_111\n      tag_58\n      jump\t// in\n    tag_111:\n    tag_110:\n      mul\n      or\n      swap1\n      sstore\n      pop\n        /* \"contracts/Conflict.sol\":2429:2440  totalVoters */\n      dup2\n        /* \"contracts/Conflict.sol\":2408:2419  newConflict */\n      dup2\n        /* \"contracts/Conflict.sol\":2408:2426  newConflict.voters */\n      0x07\n      add\n        /* \"contracts/Conflict.sol\":2408:2440  newConflict.voters = totalVoters */\n      dup2\n      swap1\n      sstore\n      pop\n        /* \"contracts/Conflict.sol\":2479:2480  0 */\n      0x00\n        /* \"contracts/Conflict.sol\":2450:2461  newConflict */\n      dup2\n        /* \"contracts/Conflict.sol\":2450:2476  newConflict.votesCollected */\n      0x08\n      add\n        /* \"contracts/Conflict.sol\":2450:2480  newConflict.votesCollected = 0 */\n      dup2\n      swap1\n      sstore\n      pop\n        /* \"contracts/Conflict.sol\":2519:2520  0 */\n      0x00\n        /* \"contracts/Conflict.sol\":2490:2501  newConflict */\n      dup2\n        /* \"contracts/Conflict.sol\":2490:2516  newConflict.requesterVotes */\n      0x09\n      add\n        /* \"contracts/Conflict.sol\":2490:2520  newConflict.requesterVotes = 0 */\n      dup2\n      swap1\n      sstore\n      pop\n        /* \"contracts/Conflict.sol\":2558:2559  0 */\n      0x00\n        /* \"contracts/Conflict.sol\":2530:2541  newConflict */\n      dup2\n        /* \"contracts/Conflict.sol\":2530:2555  newConflict.providerVotes */\n      0x0a\n      add\n        /* \"contracts/Conflict.sol\":2530:2559  newConflict.providerVotes = 0 */\n      dup2\n      swap1\n      sstore\n      pop\n        /* \"contracts/Conflict.sol\":2593:2597  true */\n      0x01\n        /* \"contracts/Conflict.sol\":2573:2584  newConflict */\n      dup2\n        /* \"contracts/Conflict.sol\":2573:2590  newConflict.exist */\n      0x0b\n      add\n      0x00\n        /* \"contracts/Conflict.sol\":2573:2597  newConflict.exist = true */\n      0x0100\n      exp\n      dup2\n      sload\n      dup2\n      0xff\n      mul\n      not\n      and\n      swap1\n      dup4\n      iszero\n      iszero\n      mul\n      or\n      swap1\n      sstore\n      pop\n        /* \"contracts/Conflict.sol\":2628:2629  0 */\n      0x00\n        /* \"contracts/Conflict.sol\":2607:2618  newConflict */\n      dup2\n        /* \"contracts/Conflict.sol\":2607:2625  newConflict.result */\n      0x0b\n      add\n      0x01\n        /* \"contracts/Conflict.sol\":2607:2629  newConflict.result = 0 */\n      0x0100\n      exp\n      dup2\n      sload\n      dup2\n      0xff\n      mul\n      not\n      and\n      swap1\n      dup4\n      0xff\n      and\n      mul\n      or\n      swap1\n      sstore\n      pop\n        /* \"contracts/Conflict.sol\":2645:2755  conflictCreated(projectNumber, serviceNumber, milestoneNumber, serviceRequester, serviceProvider, totalVoters) */\n      0xfa127411522a1139d16c2142db999e127aef2288bd98a0558006bb115666ab1b\n        /* \"contracts/Conflict.sol\":2661:2674  projectNumber */\n      dup10\n        /* \"contracts/Conflict.sol\":2676:2689  serviceNumber */\n      dup10\n        /* \"contracts/Conflict.sol\":2691:2706  milestoneNumber */\n      dup10\n        /* \"contracts/Conflict.sol\":2708:2724  serviceRequester */\n      dup8\n        /* \"contracts/Conflict.sol\":2726:2741  serviceProvider */\n      dup8\n        /* \"contracts/Conflict.sol\":2743:2754  totalVoters */\n      dup8\n        /* \"contracts/Conflict.sol\":2645:2755  conflictCreated(projectNumber, serviceNumber, milestoneNumber, serviceRequester, serviceProvider, totalVoters) */\n      mload(0x40)\n      tag_112\n      swap7\n      swap6\n      swap5\n      swap4\n      swap3\n      swap2\n      swap1\n      tag_113\n      jump\t// in\n    tag_112:\n      mload(0x40)\n      dup1\n      swap2\n      sub\n      swap1\n      log1\n        /* \"contracts/Conflict.sol\":1672:2762  {... */\n      pop\n        /* \"contracts/Conflict.sol\":1449:2762  function createConflict(uint256 projectNumber, uint256 serviceNumber, uint256 milestoneNumber, string memory title, string memory description, address serviceRequester, address serviceProvider,  uint256 totalVoters) public {... */\n      pop\n      pop\n      pop\n      pop\n      pop\n      pop\n      pop\n      pop\n      jump\t// out\n    tag_101:\n      dup3\n      dup1\n      sload\n      tag_114\n      swap1\n      tag_115\n      jump\t// in\n    tag_114:\n      swap1\n      0x00\n      mstore\n      keccak256(0x00, 0x20)\n      swap1\n      0x1f\n      add\n      0x20\n      swap1\n      div\n      dup2\n      add\n      swap3\n      dup3\n      tag_117\n      jumpi\n      0x00\n      dup6\n      sstore\n      jump(tag_116)\n    tag_117:\n      dup3\n      0x1f\n      lt\n      tag_118\n      jumpi\n      dup1\n      mload\n      not(0xff)\n      and\n      dup4\n      dup1\n      add\n      or\n      dup6\n      sstore\n      jump(tag_116)\n    tag_118:\n      dup3\n      dup1\n      add\n      0x01\n      add\n      dup6\n      sstore\n      dup3\n      iszero\n      tag_116\n      jumpi\n      swap2\n      dup3\n      add\n    tag_119:\n      dup3\n      dup2\n      gt\n      iszero\n      tag_120\n      jumpi\n      dup3\n      mload\n      dup3\n      sstore\n      swap2\n      0x20\n      add\n      swap2\n      swap1\n      0x01\n      add\n      swap1\n      jump(tag_119)\n    tag_120:\n    tag_116:\n      pop\n      swap1\n      pop\n      tag_121\n      swap2\n      swap1\n      tag_122\n      jump\t// in\n    tag_121:\n      pop\n      swap1\n      jump\t// out\n    tag_122:\n    tag_123:\n      dup1\n      dup3\n      gt\n      iszero\n      tag_124\n      jumpi\n      0x00\n      dup2\n      0x00\n      swap1\n      sstore\n      pop\n      0x01\n      add\n      jump(tag_123)\n    tag_124:\n      pop\n      swap1\n      jump\t// out\n        /* \"#utility.yul\":7:419   */\n    tag_126:\n        /* \"#utility.yul\":85:90   */\n      0x00\n        /* \"#utility.yul\":110:176   */\n      tag_128\n        /* \"#utility.yul\":126:175   */\n      tag_129\n        /* \"#utility.yul\":168:174   */\n      dup5\n        /* \"#utility.yul\":126:175   */\n      tag_130\n      jump\t// in\n    tag_129:\n        /* \"#utility.yul\":110:176   */\n      tag_131\n      jump\t// in\n    tag_128:\n        /* \"#utility.yul\":101:176   */\n      swap1\n      pop\n        /* \"#utility.yul\":199:205   */\n      dup3\n        /* \"#utility.yul\":192:197   */\n      dup2\n        /* \"#utility.yul\":185:206   */\n      mstore\n        /* \"#utility.yul\":237:241   */\n      0x20\n        /* \"#utility.yul\":230:235   */\n      dup2\n        /* \"#utility.yul\":226:242   */\n      add\n        /* \"#utility.yul\":275:278   */\n      dup5\n        /* \"#utility.yul\":266:272   */\n      dup5\n        /* \"#utility.yul\":261:264   */\n      dup5\n        /* \"#utility.yul\":257:273   */\n      add\n        /* \"#utility.yul\":254:279   */\n      gt\n        /* \"#utility.yul\":251:363   */\n      iszero\n      tag_132\n      jumpi\n        /* \"#utility.yul\":282:361   */\n      tag_133\n      tag_134\n      jump\t// in\n    tag_133:\n        /* \"#utility.yul\":251:363   */\n    tag_132:\n        /* \"#utility.yul\":372:413   */\n      tag_135\n        /* \"#utility.yul\":406:412   */\n      dup5\n        /* \"#utility.yul\":401:404   */\n      dup3\n        /* \"#utility.yul\":396:399   */\n      dup6\n        /* \"#utility.yul\":372:413   */\n      tag_136\n      jump\t// in\n    tag_135:\n        /* \"#utility.yul\":91:419   */\n      pop\n        /* \"#utility.yul\":7:419   */\n      swap4\n      swap3\n      pop\n      pop\n      pop\n      jump\t// out\n        /* \"#utility.yul\":425:564   */\n    tag_137:\n        /* \"#utility.yul\":471:476   */\n      0x00\n        /* \"#utility.yul\":509:515   */\n      dup2\n        /* \"#utility.yul\":496:516   */\n      calldataload\n        /* \"#utility.yul\":487:516   */\n      swap1\n      pop\n        /* \"#utility.yul\":525:558   */\n      tag_139\n        /* \"#utility.yul\":552:557   */\n      dup2\n        /* \"#utility.yul\":525:558   */\n      tag_140\n      jump\t// in\n    tag_139:\n        /* \"#utility.yul\":425:564   */\n      swap3\n      swap2\n      pop\n      pop\n      jump\t// out\n        /* \"#utility.yul\":584:924   */\n    tag_141:\n        /* \"#utility.yul\":640:645   */\n      0x00\n        /* \"#utility.yul\":689:692   */\n      dup3\n        /* \"#utility.yul\":682:686   */\n      0x1f\n        /* \"#utility.yul\":674:680   */\n      dup4\n        /* \"#utility.yul\":670:687   */\n      add\n        /* \"#utility.yul\":666:693   */\n      slt\n        /* \"#utility.yul\":656:778   */\n      tag_143\n      jumpi\n        /* \"#utility.yul\":697:776   */\n      tag_144\n      tag_145\n      jump\t// in\n    tag_144:\n        /* \"#utility.yul\":656:778   */\n    tag_143:\n        /* \"#utility.yul\":814:820   */\n      dup2\n        /* \"#utility.yul\":801:821   */\n      calldataload\n        /* \"#utility.yul\":839:918   */\n      tag_146\n        /* \"#utility.yul\":914:917   */\n      dup5\n        /* \"#utility.yul\":906:912   */\n      dup3\n        /* \"#utility.yul\":899:903   */\n      0x20\n        /* \"#utility.yul\":891:897   */\n      dup7\n        /* \"#utility.yul\":887:904   */\n      add\n        /* \"#utility.yul\":839:918   */\n      tag_126\n      jump\t// in\n    tag_146:\n        /* \"#utility.yul\":830:918   */\n      swap2\n      pop\n        /* \"#utility.yul\":646:924   */\n      pop\n        /* \"#utility.yul\":584:924   */\n      swap3\n      swap2\n      pop\n      pop\n      jump\t// out\n        /* \"#utility.yul\":930:1069   */\n    tag_147:\n        /* \"#utility.yul\":976:981   */\n      0x00\n        /* \"#utility.yul\":1014:1020   */\n      dup2\n        /* \"#utility.yul\":1001:1021   */\n      calldataload\n        /* \"#utility.yul\":992:1021   */\n      swap1\n      pop\n        /* \"#utility.yul\":1030:1063   */\n      tag_149\n        /* \"#utility.yul\":1057:1062   */\n      dup2\n        /* \"#utility.yul\":1030:1063   */\n      tag_150\n      jump\t// in\n    tag_149:\n        /* \"#utility.yul\":930:1069   */\n      swap3\n      swap2\n      pop\n      pop\n      jump\t// out\n        /* \"#utility.yul\":1075:1210   */\n    tag_151:\n        /* \"#utility.yul\":1119:1124   */\n      0x00\n        /* \"#utility.yul\":1157:1163   */\n      dup2\n        /* \"#utility.yul\":1144:1164   */\n      calldataload\n        /* \"#utility.yul\":1135:1164   */\n      swap1\n      pop\n        /* \"#utility.yul\":1173:1204   */\n      tag_153\n        /* \"#utility.yul\":1198:1203   */\n      dup2\n        /* \"#utility.yul\":1173:1204   */\n      tag_154\n      jump\t// in\n    tag_153:\n        /* \"#utility.yul\":1075:1210   */\n      swap3\n      swap2\n      pop\n      pop\n      jump\t// out\n        /* \"#utility.yul\":1216:1835   */\n    tag_15:\n        /* \"#utility.yul\":1293:1299   */\n      0x00\n        /* \"#utility.yul\":1301:1307   */\n      dup1\n        /* \"#utility.yul\":1309:1315   */\n      0x00\n        /* \"#utility.yul\":1358:1360   */\n      0x60\n        /* \"#utility.yul\":1346:1355   */\n      dup5\n        /* \"#utility.yul\":1337:1344   */\n      dup7\n        /* \"#utility.yul\":1333:1356   */\n      sub\n        /* \"#utility.yul\":1329:1361   */\n      slt\n        /* \"#utility.yul\":1326:1445   */\n      iszero\n      tag_156\n      jumpi\n        /* \"#utility.yul\":1364:1443   */\n      tag_157\n      tag_158\n      jump\t// in\n    tag_157:\n        /* \"#utility.yul\":1326:1445   */\n    tag_156:\n        /* \"#utility.yul\":1484:1485   */\n      0x00\n        /* \"#utility.yul\":1509:1562   */\n      tag_159\n        /* \"#utility.yul\":1554:1561   */\n      dup7\n        /* \"#utility.yul\":1545:1551   */\n      dup3\n        /* \"#utility.yul\":1534:1543   */\n      dup8\n        /* \"#utility.yul\":1530:1552   */\n      add\n        /* \"#utility.yul\":1509:1562   */\n      tag_147\n      jump\t// in\n    tag_159:\n        /* \"#utility.yul\":1499:1562   */\n      swap4\n      pop\n        /* \"#utility.yul\":1455:1572   */\n      pop\n        /* \"#utility.yul\":1611:1613   */\n      0x20\n        /* \"#utility.yul\":1637:1690   */\n      tag_160\n        /* \"#utility.yul\":1682:1689   */\n      dup7\n        /* \"#utility.yul\":1673:1679   */\n      dup3\n        /* \"#utility.yul\":1662:1671   */\n      dup8\n        /* \"#utility.yul\":1658:1680   */\n      add\n        /* \"#utility.yul\":1637:1690   */\n      tag_147\n      jump\t// in\n    tag_160:\n        /* \"#utility.yul\":1627:1690   */\n      swap3\n      pop\n        /* \"#utility.yul\":1582:1700   */\n      pop\n        /* \"#utility.yul\":1739:1741   */\n      0x40\n        /* \"#utility.yul\":1765:1818   */\n      tag_161\n        /* \"#utility.yul\":1810:1817   */\n      dup7\n        /* \"#utility.yul\":1801:1807   */\n      dup3\n        /* \"#utility.yul\":1790:1799   */\n      dup8\n        /* \"#utility.yul\":1786:1808   */\n      add\n        /* \"#utility.yul\":1765:1818   */\n      tag_147\n      jump\t// in\n    tag_161:\n        /* \"#utility.yul\":1755:1818   */\n      swap2\n      pop\n        /* \"#utility.yul\":1710:1828   */\n      pop\n        /* \"#utility.yul\":1216:1835   */\n      swap3\n      pop\n      swap3\n      pop\n      swap3\n      jump\t// out\n        /* \"#utility.yul\":1841:2748   */\n    tag_32:\n        /* \"#utility.yul\":1934:1940   */\n      0x00\n        /* \"#utility.yul\":1942:1948   */\n      dup1\n        /* \"#utility.yul\":1950:1956   */\n      0x00\n        /* \"#utility.yul\":1958:1964   */\n      dup1\n        /* \"#utility.yul\":1966:1972   */\n      0x00\n        /* \"#utility.yul\":2015:2018   */\n      0xa0\n        /* \"#utility.yul\":2003:2012   */\n      dup7\n        /* \"#utility.yul\":1994:2001   */\n      dup9\n        /* \"#utility.yul\":1990:2013   */\n      sub\n        /* \"#utility.yul\":1986:2019   */\n      slt\n        /* \"#utility.yul\":1983:2103   */\n      iszero\n      tag_163\n      jumpi\n        /* \"#utility.yul\":2022:2101   */\n      tag_164\n      tag_158\n      jump\t// in\n    tag_164:\n        /* \"#utility.yul\":1983:2103   */\n    tag_163:\n        /* \"#utility.yul\":2142:2143   */\n      0x00\n        /* \"#utility.yul\":2167:2220   */\n      tag_165\n        /* \"#utility.yul\":2212:2219   */\n      dup9\n        /* \"#utility.yul\":2203:2209   */\n      dup3\n        /* \"#utility.yul\":2192:2201   */\n      dup10\n        /* \"#utility.yul\":2188:2210   */\n      add\n        /* \"#utility.yul\":2167:2220   */\n      tag_147\n      jump\t// in\n    tag_165:\n        /* \"#utility.yul\":2157:2220   */\n      swap6\n      pop\n        /* \"#utility.yul\":2113:2230   */\n      pop\n        /* \"#utility.yul\":2269:2271   */\n      0x20\n        /* \"#utility.yul\":2295:2348   */\n      tag_166\n        /* \"#utility.yul\":2340:2347   */\n      dup9\n        /* \"#utility.yul\":2331:2337   */\n      dup3\n        /* \"#utility.yul\":2320:2329   */\n      dup10\n        /* \"#utility.yul\":2316:2338   */\n      add\n        /* \"#utility.yul\":2295:2348   */\n      tag_147\n      jump\t// in\n    tag_166:\n        /* \"#utility.yul\":2285:2348   */\n      swap5\n      pop\n        /* \"#utility.yul\":2240:2358   */\n      pop\n        /* \"#utility.yul\":2397:2399   */\n      0x40\n        /* \"#utility.yul\":2423:2476   */\n      tag_167\n        /* \"#utility.yul\":2468:2475   */\n      dup9\n        /* \"#utility.yul\":2459:2465   */\n      dup3\n        /* \"#utility.yul\":2448:2457   */\n      dup10\n        /* \"#utility.yul\":2444:2466   */\n      add\n        /* \"#utility.yul\":2423:2476   */\n      tag_147\n      jump\t// in\n    tag_167:\n        /* \"#utility.yul\":2413:2476   */\n      swap4\n      pop\n        /* \"#utility.yul\":2368:2486   */\n      pop\n        /* \"#utility.yul\":2525:2527   */\n      0x60\n        /* \"#utility.yul\":2551:2604   */\n      tag_168\n        /* \"#utility.yul\":2596:2603   */\n      dup9\n        /* \"#utility.yul\":2587:2593   */\n      dup3\n        /* \"#utility.yul\":2576:2585   */\n      dup10\n        /* \"#utility.yul\":2572:2594   */\n      add\n        /* \"#utility.yul\":2551:2604   */\n      tag_137\n      jump\t// in\n    tag_168:\n        /* \"#utility.yul\":2541:2604   */\n      swap3\n      pop\n        /* \"#utility.yul\":2496:2614   */\n      pop\n        /* \"#utility.yul\":2653:2656   */\n      0x80\n        /* \"#utility.yul\":2680:2731   */\n      tag_169\n        /* \"#utility.yul\":2723:2730   */\n      dup9\n        /* \"#utility.yul\":2714:2720   */\n      dup3\n        /* \"#utility.yul\":2703:2712   */\n      dup10\n        /* \"#utility.yul\":2699:2721   */\n      add\n        /* \"#utility.yul\":2680:2731   */\n      tag_151\n      jump\t// in\n    tag_169:\n        /* \"#utility.yul\":2670:2731   */\n      swap2\n      pop\n        /* \"#utility.yul\":2624:2741   */\n      pop\n        /* \"#utility.yul\":1841:2748   */\n      swap3\n      swap6\n      pop\n      swap3\n      swap6\n      swap1\n      swap4\n      pop\n      jump\t// out\n        /* \"#utility.yul\":2754:4025   */\n    tag_41:\n        /* \"#utility.yul\":2869:2875   */\n      0x00\n        /* \"#utility.yul\":2877:2883   */\n      dup1\n        /* \"#utility.yul\":2885:2891   */\n      0x00\n        /* \"#utility.yul\":2893:2899   */\n      dup1\n        /* \"#utility.yul\":2901:2907   */\n      0x00\n        /* \"#utility.yul\":2950:2953   */\n      0xa0\n        /* \"#utility.yul\":2938:2947   */\n      dup7\n        /* \"#utility.yul\":2929:2936   */\n      dup9\n        /* \"#utility.yul\":2925:2948   */\n      sub\n        /* \"#utility.yul\":2921:2954   */\n      slt\n        /* \"#utility.yul\":2918:3038   */\n      iszero\n      tag_171\n      jumpi\n        /* \"#utility.yul\":2957:3036   */\n      tag_172\n      tag_158\n      jump\t// in\n    tag_172:\n        /* \"#utility.yul\":2918:3038   */\n    tag_171:\n        /* \"#utility.yul\":3077:3078   */\n      0x00\n        /* \"#utility.yul\":3102:3155   */\n      tag_173\n        /* \"#utility.yul\":3147:3154   */\n      dup9\n        /* \"#utility.yul\":3138:3144   */\n      dup3\n        /* \"#utility.yul\":3127:3136   */\n      dup10\n        /* \"#utility.yul\":3123:3145   */\n      add\n        /* \"#utility.yul\":3102:3155   */\n      tag_147\n      jump\t// in\n    tag_173:\n        /* \"#utility.yul\":3092:3155   */\n      swap6\n      pop\n        /* \"#utility.yul\":3048:3165   */\n      pop\n        /* \"#utility.yul\":3204:3206   */\n      0x20\n        /* \"#utility.yul\":3230:3283   */\n      tag_174\n        /* \"#utility.yul\":3275:3282   */\n      dup9\n        /* \"#utility.yul\":3266:3272   */\n      dup3\n        /* \"#utility.yul\":3255:3264   */\n      dup10\n        /* \"#utility.yul\":3251:3273   */\n      add\n        /* \"#utility.yul\":3230:3283   */\n      tag_147\n      jump\t// in\n    tag_174:\n        /* \"#utility.yul\":3220:3283   */\n      swap5\n      pop\n        /* \"#utility.yul\":3175:3293   */\n      pop\n        /* \"#utility.yul\":3332:3334   */\n      0x40\n        /* \"#utility.yul\":3358:3411   */\n      tag_175\n        /* \"#utility.yul\":3403:3410   */\n      dup9\n        /* \"#utility.yul\":3394:3400   */\n      dup3\n        /* \"#utility.yul\":3383:3392   */\n      dup10\n        /* \"#utility.yul\":3379:3401   */\n      add\n        /* \"#utility.yul\":3358:3411   */\n      tag_147\n      jump\t// in\n    tag_175:\n        /* \"#utility.yul\":3348:3411   */\n      swap4\n      pop\n        /* \"#utility.yul\":3303:3421   */\n      pop\n        /* \"#utility.yul\":3488:3490   */\n      0x60\n        /* \"#utility.yul\":3477:3486   */\n      dup7\n        /* \"#utility.yul\":3473:3491   */\n      add\n        /* \"#utility.yul\":3460:3492   */\n      calldataload\n        /* \"#utility.yul\":3519:3537   */\n      0xffffffffffffffff\n        /* \"#utility.yul\":3511:3517   */\n      dup2\n        /* \"#utility.yul\":3508:3538   */\n      gt\n        /* \"#utility.yul\":3505:3622   */\n      iszero\n      tag_176\n      jumpi\n        /* \"#utility.yul\":3541:3620   */\n      tag_177\n      tag_178\n      jump\t// in\n    tag_177:\n        /* \"#utility.yul\":3505:3622   */\n    tag_176:\n        /* \"#utility.yul\":3646:3709   */\n      tag_179\n        /* \"#utility.yul\":3701:3708   */\n      dup9\n        /* \"#utility.yul\":3692:3698   */\n      dup3\n        /* \"#utility.yul\":3681:3690   */\n      dup10\n        /* \"#utility.yul\":3677:3699   */\n      add\n        /* \"#utility.yul\":3646:3709   */\n      tag_141\n      jump\t// in\n    tag_179:\n        /* \"#utility.yul\":3636:3709   */\n      swap3\n      pop\n        /* \"#utility.yul\":3431:3719   */\n      pop\n        /* \"#utility.yul\":3786:3789   */\n      0x80\n        /* \"#utility.yul\":3775:3784   */\n      dup7\n        /* \"#utility.yul\":3771:3790   */\n      add\n        /* \"#utility.yul\":3758:3791   */\n      calldataload\n        /* \"#utility.yul\":3818:3836   */\n      0xffffffffffffffff\n        /* \"#utility.yul\":3810:3816   */\n      dup2\n        /* \"#utility.yul\":3807:3837   */\n      gt\n        /* \"#utility.yul\":3804:3921   */\n      iszero\n      tag_180\n      jumpi\n        /* \"#utility.yul\":3840:3919   */\n      tag_181\n      tag_178\n      jump\t// in\n    tag_181:\n        /* \"#utility.yul\":3804:3921   */\n    tag_180:\n        /* \"#utility.yul\":3945:4008   */\n      tag_182\n        /* \"#utility.yul\":4000:4007   */\n      dup9\n        /* \"#utility.yul\":3991:3997   */\n      dup3\n        /* \"#utility.yul\":3980:3989   */\n      dup10\n        /* \"#utility.yul\":3976:3998   */\n      add\n        /* \"#utility.yul\":3945:4008   */\n      tag_141\n      jump\t// in\n    tag_182:\n        /* \"#utility.yul\":3935:4008   */\n      swap2\n      pop\n        /* \"#utility.yul\":3729:4018   */\n      pop\n        /* \"#utility.yul\":2754:4025   */\n      swap3\n      swap6\n      pop\n      swap3\n      swap6\n      swap1\n      swap4\n      pop\n      jump\t// out\n        /* \"#utility.yul\":4031:5740   */\n    tag_49:\n        /* \"#utility.yul\":4173:4179   */\n      0x00\n        /* \"#utility.yul\":4181:4187   */\n      dup1\n        /* \"#utility.yul\":4189:4195   */\n      0x00\n        /* \"#utility.yul\":4197:4203   */\n      dup1\n        /* \"#utility.yul\":4205:4211   */\n      0x00\n        /* \"#utility.yul\":4213:4219   */\n      dup1\n        /* \"#utility.yul\":4221:4227   */\n      0x00\n        /* \"#utility.yul\":4229:4235   */\n      dup1\n        /* \"#utility.yul\":4278:4281   */\n      0x0100\n        /* \"#utility.yul\":4266:4275   */\n      dup10\n        /* \"#utility.yul\":4257:4264   */\n      dup12\n        /* \"#utility.yul\":4253:4276   */\n      sub\n        /* \"#utility.yul\":4249:4282   */\n      slt\n        /* \"#utility.yul\":4246:4366   */\n      iszero\n      tag_184\n      jumpi\n        /* \"#utility.yul\":4285:4364   */\n      tag_185\n      tag_158\n      jump\t// in\n    tag_185:\n        /* \"#utility.yul\":4246:4366   */\n    tag_184:\n        /* \"#utility.yul\":4405:4406   */\n      0x00\n        /* \"#utility.yul\":4430:4483   */\n      tag_186\n        /* \"#utility.yul\":4475:4482   */\n      dup12\n        /* \"#utility.yul\":4466:4472   */\n      dup3\n        /* \"#utility.yul\":4455:4464   */\n      dup13\n        /* \"#utility.yul\":4451:4473   */\n      add\n        /* \"#utility.yul\":4430:4483   */\n      tag_147\n      jump\t// in\n    tag_186:\n        /* \"#utility.yul\":4420:4483   */\n      swap9\n      pop\n        /* \"#utility.yul\":4376:4493   */\n      pop\n        /* \"#utility.yul\":4532:4534   */\n      0x20\n        /* \"#utility.yul\":4558:4611   */\n      tag_187\n        /* \"#utility.yul\":4603:4610   */\n      dup12\n        /* \"#utility.yul\":4594:4600   */\n      dup3\n        /* \"#utility.yul\":4583:4592   */\n      dup13\n        /* \"#utility.yul\":4579:4601   */\n      add\n        /* \"#utility.yul\":4558:4611   */\n      tag_147\n      jump\t// in\n    tag_187:\n        /* \"#utility.yul\":4548:4611   */\n      swap8\n      pop\n        /* \"#utility.yul\":4503:4621   */\n      pop\n        /* \"#utility.yul\":4660:4662   */\n      0x40\n        /* \"#utility.yul\":4686:4739   */\n      tag_188\n        /* \"#utility.yul\":4731:4738   */\n      dup12\n        /* \"#utility.yul\":4722:4728   */\n      dup3\n        /* \"#utility.yul\":4711:4720   */\n      dup13\n        /* \"#utility.yul\":4707:4729   */\n      add\n        /* \"#utility.yul\":4686:4739   */\n      tag_147\n      jump\t// in\n    tag_188:\n        /* \"#utility.yul\":4676:4739   */\n      swap7\n      pop\n        /* \"#utility.yul\":4631:4749   */\n      pop\n        /* \"#utility.yul\":4816:4818   */\n      0x60\n        /* \"#utility.yul\":4805:4814   */\n      dup10\n        /* \"#utility.yul\":4801:4819   */\n      add\n        /* \"#utility.yul\":4788:4820   */\n      calldataload\n        /* \"#utility.yul\":4847:4865   */\n      0xffffffffffffffff\n        /* \"#utility.yul\":4839:4845   */\n      dup2\n        /* \"#utility.yul\":4836:4866   */\n      gt\n        /* \"#utility.yul\":4833:4950   */\n      iszero\n      tag_189\n      jumpi\n        /* \"#utility.yul\":4869:4948   */\n      tag_190\n      tag_178\n      jump\t// in\n    tag_190:\n        /* \"#utility.yul\":4833:4950   */\n    tag_189:\n        /* \"#utility.yul\":4974:5037   */\n      tag_191\n        /* \"#utility.yul\":5029:5036   */\n      dup12\n        /* \"#utility.yul\":5020:5026   */\n      dup3\n        /* \"#utility.yul\":5009:5018   */\n      dup13\n        /* \"#utility.yul\":5005:5027   */\n      add\n        /* \"#utility.yul\":4974:5037   */\n      tag_141\n      jump\t// in\n    tag_191:\n        /* \"#utility.yul\":4964:5037   */\n      swap6\n      pop\n        /* \"#utility.yul\":4759:5047   */\n      pop\n        /* \"#utility.yul\":5114:5117   */\n      0x80\n        /* \"#utility.yul\":5103:5112   */\n      dup10\n        /* \"#utility.yul\":5099:5118   */\n      add\n        /* \"#utility.yul\":5086:5119   */\n      calldataload\n        /* \"#utility.yul\":5146:5164   */\n      0xffffffffffffffff\n        /* \"#utility.yul\":5138:5144   */\n      dup2\n        /* \"#utility.yul\":5135:5165   */\n      gt\n        /* \"#utility.yul\":5132:5249   */\n      iszero\n      tag_192\n      jumpi\n        /* \"#utility.yul\":5168:5247   */\n      tag_193\n      tag_178\n      jump\t// in\n    tag_193:\n        /* \"#utility.yul\":5132:5249   */\n    tag_192:\n        /* \"#utility.yul\":5273:5336   */\n      tag_194\n        /* \"#utility.yul\":5328:5335   */\n      dup12\n        /* \"#utility.yul\":5319:5325   */\n      dup3\n        /* \"#utility.yul\":5308:5317   */\n      dup13\n        /* \"#utility.yul\":5304:5326   */\n      add\n        /* \"#utility.yul\":5273:5336   */\n      tag_141\n      jump\t// in\n    tag_194:\n        /* \"#utility.yul\":5263:5336   */\n      swap5\n      pop\n        /* \"#utility.yul\":5057:5346   */\n      pop\n        /* \"#utility.yul\":5385:5388   */\n      0xa0\n        /* \"#utility.yul\":5412:5465   */\n      tag_195\n        /* \"#utility.yul\":5457:5464   */\n      dup12\n        /* \"#utility.yul\":5448:5454   */\n      dup3\n        /* \"#utility.yul\":5437:5446   */\n      dup13\n        /* \"#utility.yul\":5433:5455   */\n      add\n        /* \"#utility.yul\":5412:5465   */\n      tag_137\n      jump\t// in\n    tag_195:\n        /* \"#utility.yul\":5402:5465   */\n      swap4\n      pop\n        /* \"#utility.yul\":5356:5475   */\n      pop\n        /* \"#utility.yul\":5514:5517   */\n      0xc0\n        /* \"#utility.yul\":5541:5594   */\n      tag_196\n        /* \"#utility.yul\":5586:5593   */\n      dup12\n        /* \"#utility.yul\":5577:5583   */\n      dup3\n        /* \"#utility.yul\":5566:5575   */\n      dup13\n        /* \"#utility.yul\":5562:5584   */\n      add\n        /* \"#utility.yul\":5541:5594   */\n      tag_137\n      jump\t// in\n    tag_196:\n        /* \"#utility.yul\":5531:5594   */\n      swap3\n      pop\n        /* \"#utility.yul\":5485:5604   */\n      pop\n        /* \"#utility.yul\":5643:5646   */\n      0xe0\n        /* \"#utility.yul\":5670:5723   */\n      tag_197\n        /* \"#utility.yul\":5715:5722   */\n      dup12\n        /* \"#utility.yul\":5706:5712   */\n      dup3\n        /* \"#utility.yul\":5695:5704   */\n      dup13\n        /* \"#utility.yul\":5691:5713   */\n      add\n        /* \"#utility.yul\":5670:5723   */\n      tag_147\n      jump\t// in\n    tag_197:\n        /* \"#utility.yul\":5660:5723   */\n      swap2\n      pop\n        /* \"#utility.yul\":5614:5733   */\n      pop\n        /* \"#utility.yul\":4031:5740   */\n      swap3\n      swap6\n      swap9\n      pop\n      swap3\n      swap6\n      swap9\n      swap1\n      swap4\n      swap7\n      pop\n      jump\t// out\n        /* \"#utility.yul\":5746:5864   */\n    tag_198:\n        /* \"#utility.yul\":5833:5857   */\n      tag_200\n        /* \"#utility.yul\":5851:5856   */\n      dup2\n        /* \"#utility.yul\":5833:5857   */\n      tag_201\n      jump\t// in\n    tag_200:\n        /* \"#utility.yul\":5828:5831   */\n      dup3\n        /* \"#utility.yul\":5821:5858   */\n      mstore\n        /* \"#utility.yul\":5746:5864   */\n      pop\n      pop\n      jump\t// out\n        /* \"#utility.yul\":5870:6035   */\n    tag_202:\n        /* \"#utility.yul\":5974:6028   */\n      tag_204\n        /* \"#utility.yul\":6022:6027   */\n      dup2\n        /* \"#utility.yul\":5974:6028   */\n      tag_205\n      jump\t// in\n    tag_204:\n        /* \"#utility.yul\":5969:5972   */\n      dup3\n        /* \"#utility.yul\":5962:6029   */\n      mstore\n        /* \"#utility.yul\":5870:6035   */\n      pop\n      pop\n      jump\t// out\n        /* \"#utility.yul\":6041:6407   */\n    tag_206:\n        /* \"#utility.yul\":6183:6186   */\n      0x00\n        /* \"#utility.yul\":6204:6271   */\n      tag_208\n        /* \"#utility.yul\":6268:6270   */\n      0x57\n        /* \"#utility.yul\":6263:6266   */\n      dup4\n        /* \"#utility.yul\":6204:6271   */\n      tag_209\n      jump\t// in\n    tag_208:\n        /* \"#utility.yul\":6197:6271   */\n      swap2\n      pop\n        /* \"#utility.yul\":6280:6373   */\n      tag_210\n        /* \"#utility.yul\":6369:6372   */\n      dup3\n        /* \"#utility.yul\":6280:6373   */\n      tag_211\n      jump\t// in\n    tag_210:\n        /* \"#utility.yul\":6398:6400   */\n      0x60\n        /* \"#utility.yul\":6393:6396   */\n      dup3\n        /* \"#utility.yul\":6389:6401   */\n      add\n        /* \"#utility.yul\":6382:6401   */\n      swap1\n      pop\n        /* \"#utility.yul\":6041:6407   */\n      swap2\n      swap1\n      pop\n      jump\t// out\n        /* \"#utility.yul\":6413:6779   */\n    tag_212:\n        /* \"#utility.yul\":6555:6558   */\n      0x00\n        /* \"#utility.yul\":6576:6643   */\n      tag_214\n        /* \"#utility.yul\":6640:6642   */\n      0x2d\n        /* \"#utility.yul\":6635:6638   */\n      dup4\n        /* \"#utility.yul\":6576:6643   */\n      tag_209\n      jump\t// in\n    tag_214:\n        /* \"#utility.yul\":6569:6643   */\n      swap2\n      pop\n        /* \"#utility.yul\":6652:6745   */\n      tag_215\n        /* \"#utility.yul\":6741:6744   */\n      dup3\n        /* \"#utility.yul\":6652:6745   */\n      tag_216\n      jump\t// in\n    tag_215:\n        /* \"#utility.yul\":6770:6772   */\n      0x40\n        /* \"#utility.yul\":6765:6768   */\n      dup3\n        /* \"#utility.yul\":6761:6773   */\n      add\n        /* \"#utility.yul\":6754:6773   */\n      swap1\n      pop\n        /* \"#utility.yul\":6413:6779   */\n      swap2\n      swap1\n      pop\n      jump\t// out\n        /* \"#utility.yul\":6785:7151   */\n    tag_217:\n        /* \"#utility.yul\":6927:6930   */\n      0x00\n        /* \"#utility.yul\":6948:7015   */\n      tag_219\n        /* \"#utility.yul\":7012:7014   */\n      0x30\n        /* \"#utility.yul\":7007:7010   */\n      dup4\n        /* \"#utility.yul\":6948:7015   */\n      tag_209\n      jump\t// in\n    tag_219:\n        /* \"#utility.yul\":6941:7015   */\n      swap2\n      pop\n        /* \"#utility.yul\":7024:7117   */\n      tag_220\n        /* \"#utility.yul\":7113:7116   */\n      dup3\n        /* \"#utility.yul\":7024:7117   */\n      tag_221\n      jump\t// in\n    tag_220:\n        /* \"#utility.yul\":7142:7144   */\n      0x40\n        /* \"#utility.yul\":7137:7140   */\n      dup3\n        /* \"#utility.yul\":7133:7145   */\n      add\n        /* \"#utility.yul\":7126:7145   */\n      swap1\n      pop\n        /* \"#utility.yul\":6785:7151   */\n      swap2\n      swap1\n      pop\n      jump\t// out\n        /* \"#utility.yul\":7157:7523   */\n    tag_222:\n        /* \"#utility.yul\":7299:7302   */\n      0x00\n        /* \"#utility.yul\":7320:7387   */\n      tag_224\n        /* \"#utility.yul\":7384:7386   */\n      0x3d\n        /* \"#utility.yul\":7379:7382   */\n      dup4\n        /* \"#utility.yul\":7320:7387   */\n      tag_209\n      jump\t// in\n    tag_224:\n        /* \"#utility.yul\":7313:7387   */\n      swap2\n      pop\n        /* \"#utility.yul\":7396:7489   */\n      tag_225\n        /* \"#utility.yul\":7485:7488   */\n      dup3\n        /* \"#utility.yul\":7396:7489   */\n      tag_226\n      jump\t// in\n    tag_225:\n        /* \"#utility.yul\":7514:7516   */\n      0x40\n        /* \"#utility.yul\":7509:7512   */\n      dup3\n        /* \"#utility.yul\":7505:7517   */\n      add\n        /* \"#utility.yul\":7498:7517   */\n      swap1\n      pop\n        /* \"#utility.yul\":7157:7523   */\n      swap2\n      swap1\n      pop\n      jump\t// out\n        /* \"#utility.yul\":7529:7895   */\n    tag_227:\n        /* \"#utility.yul\":7671:7674   */\n      0x00\n        /* \"#utility.yul\":7692:7759   */\n      tag_229\n        /* \"#utility.yul\":7756:7758   */\n      0x4a\n        /* \"#utility.yul\":7751:7754   */\n      dup4\n        /* \"#utility.yul\":7692:7759   */\n      tag_209\n      jump\t// in\n    tag_229:\n        /* \"#utility.yul\":7685:7759   */\n      swap2\n      pop\n        /* \"#utility.yul\":7768:7861   */\n      tag_230\n        /* \"#utility.yul\":7857:7860   */\n      dup3\n        /* \"#utility.yul\":7768:7861   */\n      tag_231\n      jump\t// in\n    tag_230:\n        /* \"#utility.yul\":7886:7888   */\n      0x60\n        /* \"#utility.yul\":7881:7884   */\n      dup3\n        /* \"#utility.yul\":7877:7889   */\n      add\n        /* \"#utility.yul\":7870:7889   */\n      swap1\n      pop\n        /* \"#utility.yul\":7529:7895   */\n      swap2\n      swap1\n      pop\n      jump\t// out\n        /* \"#utility.yul\":7901:8267   */\n    tag_232:\n        /* \"#utility.yul\":8043:8046   */\n      0x00\n        /* \"#utility.yul\":8064:8131   */\n      tag_234\n        /* \"#utility.yul\":8128:8130   */\n      0x39\n        /* \"#utility.yul\":8123:8126   */\n      dup4\n        /* \"#utility.yul\":8064:8131   */\n      tag_209\n      jump\t// in\n    tag_234:\n        /* \"#utility.yul\":8057:8131   */\n      swap2\n      pop\n        /* \"#utility.yul\":8140:8233   */\n      tag_235\n        /* \"#utility.yul\":8229:8232   */\n      dup3\n        /* \"#utility.yul\":8140:8233   */\n      tag_236\n      jump\t// in\n    tag_235:\n        /* \"#utility.yul\":8258:8260   */\n      0x40\n        /* \"#utility.yul\":8253:8256   */\n      dup3\n        /* \"#utility.yul\":8249:8261   */\n      add\n        /* \"#utility.yul\":8242:8261   */\n      swap1\n      pop\n        /* \"#utility.yul\":7901:8267   */\n      swap2\n      swap1\n      pop\n      jump\t// out\n        /* \"#utility.yul\":8273:8639   */\n    tag_237:\n        /* \"#utility.yul\":8415:8418   */\n      0x00\n        /* \"#utility.yul\":8436:8503   */\n      tag_239\n        /* \"#utility.yul\":8500:8502   */\n      0x20\n        /* \"#utility.yul\":8495:8498   */\n      dup4\n        /* \"#utility.yul\":8436:8503   */\n      tag_209\n      jump\t// in\n    tag_239:\n        /* \"#utility.yul\":8429:8503   */\n      swap2\n      pop\n        /* \"#utility.yul\":8512:8605   */\n      tag_240\n        /* \"#utility.yul\":8601:8604   */\n      dup3\n        /* \"#utility.yul\":8512:8605   */\n      tag_241\n      jump\t// in\n    tag_240:\n        /* \"#utility.yul\":8630:8632   */\n      0x20\n        /* \"#utility.yul\":8625:8628   */\n      dup3\n        /* \"#utility.yul\":8621:8633   */\n      add\n        /* \"#utility.yul\":8614:8633   */\n      swap1\n      pop\n        /* \"#utility.yul\":8273:8639   */\n      swap2\n      swap1\n      pop\n      jump\t// out\n        /* \"#utility.yul\":8645:9011   */\n    tag_242:\n        /* \"#utility.yul\":8787:8790   */\n      0x00\n        /* \"#utility.yul\":8808:8875   */\n      tag_244\n        /* \"#utility.yul\":8872:8874   */\n      0x4d\n        /* \"#utility.yul\":8867:8870   */\n      dup4\n        /* \"#utility.yul\":8808:8875   */\n      tag_209\n      jump\t// in\n    tag_244:\n        /* \"#utility.yul\":8801:8875   */\n      swap2\n      pop\n        /* \"#utility.yul\":8884:8977   */\n      tag_245\n        /* \"#utility.yul\":8973:8976   */\n      dup3\n        /* \"#utility.yul\":8884:8977   */\n      tag_246\n      jump\t// in\n    tag_245:\n        /* \"#utility.yul\":9002:9004   */\n      0x60\n        /* \"#utility.yul\":8997:9000   */\n      dup3\n        /* \"#utility.yul\":8993:9005   */\n      add\n        /* \"#utility.yul\":8986:9005   */\n      swap1\n      pop\n        /* \"#utility.yul\":8645:9011   */\n      swap2\n      swap1\n      pop\n      jump\t// out\n        /* \"#utility.yul\":9017:9135   */\n    tag_247:\n        /* \"#utility.yul\":9104:9128   */\n      tag_249\n        /* \"#utility.yul\":9122:9127   */\n      dup2\n        /* \"#utility.yul\":9104:9128   */\n      tag_250\n      jump\t// in\n    tag_249:\n        /* \"#utility.yul\":9099:9102   */\n      dup3\n        /* \"#utility.yul\":9092:9129   */\n      mstore\n        /* \"#utility.yul\":9017:9135   */\n      pop\n      pop\n      jump\t// out\n        /* \"#utility.yul\":9141:9253   */\n    tag_251:\n        /* \"#utility.yul\":9224:9246   */\n      tag_253\n        /* \"#utility.yul\":9240:9245   */\n      dup2\n        /* \"#utility.yul\":9224:9246   */\n      tag_254\n      jump\t// in\n    tag_253:\n        /* \"#utility.yul\":9219:9222   */\n      dup3\n        /* \"#utility.yul\":9212:9247   */\n      mstore\n        /* \"#utility.yul\":9141:9253   */\n      pop\n      pop\n      jump\t// out\n        /* \"#utility.yul\":9259:9515   */\n    tag_38:\n        /* \"#utility.yul\":9369:9373   */\n      0x00\n        /* \"#utility.yul\":9407:9409   */\n      0x20\n        /* \"#utility.yul\":9396:9405   */\n      dup3\n        /* \"#utility.yul\":9392:9410   */\n      add\n        /* \"#utility.yul\":9384:9410   */\n      swap1\n      pop\n        /* \"#utility.yul\":9420:9508   */\n      tag_256\n        /* \"#utility.yul\":9505:9506   */\n      0x00\n        /* \"#utility.yul\":9494:9503   */\n      dup4\n        /* \"#utility.yul\":9490:9507   */\n      add\n        /* \"#utility.yul\":9481:9487   */\n      dup5\n        /* \"#utility.yul\":9420:9508   */\n      tag_202\n      jump\t// in\n    tag_256:\n        /* \"#utility.yul\":9259:9515   */\n      swap3\n      swap2\n      pop\n      pop\n      jump\t// out\n        /* \"#utility.yul\":9521:9940   */\n    tag_82:\n        /* \"#utility.yul\":9687:9691   */\n      0x00\n        /* \"#utility.yul\":9725:9727   */\n      0x20\n        /* \"#utility.yul\":9714:9723   */\n      dup3\n        /* \"#utility.yul\":9710:9728   */\n      add\n        /* \"#utility.yul\":9702:9728   */\n      swap1\n      pop\n        /* \"#utility.yul\":9774:9783   */\n      dup2\n        /* \"#utility.yul\":9768:9772   */\n      dup2\n        /* \"#utility.yul\":9764:9784   */\n      sub\n        /* \"#utility.yul\":9760:9761   */\n      0x00\n        /* \"#utility.yul\":9749:9758   */\n      dup4\n        /* \"#utility.yul\":9745:9762   */\n      add\n        /* \"#utility.yul\":9738:9785   */\n      mstore\n        /* \"#utility.yul\":9802:9933   */\n      tag_258\n        /* \"#utility.yul\":9928:9932   */\n      dup2\n        /* \"#utility.yul\":9802:9933   */\n      tag_206\n      jump\t// in\n    tag_258:\n        /* \"#utility.yul\":9794:9933   */\n      swap1\n      pop\n        /* \"#utility.yul\":9521:9940   */\n      swap2\n      swap1\n      pop\n      jump\t// out\n        /* \"#utility.yul\":9946:10365   */\n    tag_78:\n        /* \"#utility.yul\":10112:10116   */\n      0x00\n        /* \"#utility.yul\":10150:10152   */\n      0x20\n        /* \"#utility.yul\":10139:10148   */\n      dup3\n        /* \"#utility.yul\":10135:10153   */\n      add\n        /* \"#utility.yul\":10127:10153   */\n      swap1\n      pop\n        /* \"#utility.yul\":10199:10208   */\n      dup2\n        /* \"#utility.yul\":10193:10197   */\n      dup2\n        /* \"#utility.yul\":10189:10209   */\n      sub\n        /* \"#utility.yul\":10185:10186   */\n      0x00\n        /* \"#utility.yul\":10174:10183   */\n      dup4\n        /* \"#utility.yul\":10170:10187   */\n      add\n        /* \"#utility.yul\":10163:10210   */\n      mstore\n        /* \"#utility.yul\":10227:10358   */\n      tag_260\n        /* \"#utility.yul\":10353:10357   */\n      dup2\n        /* \"#utility.yul\":10227:10358   */\n      tag_212\n      jump\t// in\n    tag_260:\n        /* \"#utility.yul\":10219:10358   */\n      swap1\n      pop\n        /* \"#utility.yul\":9946:10365   */\n      swap2\n      swap1\n      pop\n      jump\t// out\n        /* \"#utility.yul\":10371:10790   */\n    tag_69:\n        /* \"#utility.yul\":10537:10541   */\n      0x00\n        /* \"#utility.yul\":10575:10577   */\n      0x20\n        /* \"#utility.yul\":10564:10573   */\n      dup3\n        /* \"#utility.yul\":10560:10578   */\n      add\n        /* \"#utility.yul\":10552:10578   */\n      swap1\n      pop\n        /* \"#utility.yul\":10624:10633   */\n      dup2\n        /* \"#utility.yul\":10618:10622   */\n      dup2\n        /* \"#utility.yul\":10614:10634   */\n      sub\n        /* \"#utility.yul\":10610:10611   */\n      0x00\n        /* \"#utility.yul\":10599:10608   */\n      dup4\n        /* \"#utility.yul\":10595:10612   */\n      add\n        /* \"#utility.yul\":10588:10635   */\n      mstore\n        /* \"#utility.yul\":10652:10783   */\n      tag_262\n        /* \"#utility.yul\":10778:10782   */\n      dup2\n        /* \"#utility.yul\":10652:10783   */\n      tag_217\n      jump\t// in\n    tag_262:\n        /* \"#utility.yul\":10644:10783   */\n      swap1\n      pop\n        /* \"#utility.yul\":10371:10790   */\n      swap2\n      swap1\n      pop\n      jump\t// out\n        /* \"#utility.yul\":10796:11215   */\n    tag_63:\n        /* \"#utility.yul\":10962:10966   */\n      0x00\n        /* \"#utility.yul\":11000:11002   */\n      0x20\n        /* \"#utility.yul\":10989:10998   */\n      dup3\n        /* \"#utility.yul\":10985:11003   */\n      add\n        /* \"#utility.yul\":10977:11003   */\n      swap1\n      pop\n        /* \"#utility.yul\":11049:11058   */\n      dup2\n        /* \"#utility.yul\":11043:11047   */\n      dup2\n        /* \"#utility.yul\":11039:11059   */\n      sub\n        /* \"#utility.yul\":11035:11036   */\n      0x00\n        /* \"#utility.yul\":11024:11033   */\n      dup4\n        /* \"#utility.yul\":11020:11037   */\n      add\n        /* \"#utility.yul\":11013:11060   */\n      mstore\n        /* \"#utility.yul\":11077:11208   */\n      tag_264\n        /* \"#utility.yul\":11203:11207   */\n      dup2\n        /* \"#utility.yul\":11077:11208   */\n      tag_222\n      jump\t// in\n    tag_264:\n        /* \"#utility.yul\":11069:11208   */\n      swap1\n      pop\n        /* \"#utility.yul\":10796:11215   */\n      swap2\n      swap1\n      pop\n      jump\t// out\n        /* \"#utility.yul\":11221:11640   */\n    tag_55:\n        /* \"#utility.yul\":11387:11391   */\n      0x00\n        /* \"#utility.yul\":11425:11427   */\n      0x20\n        /* \"#utility.yul\":11414:11423   */\n      dup3\n        /* \"#utility.yul\":11410:11428   */\n      add\n        /* \"#utility.yul\":11402:11428   */\n      swap1\n      pop\n        /* \"#utility.yul\":11474:11483   */\n      dup2\n        /* \"#utility.yul\":11468:11472   */\n      dup2\n        /* \"#utility.yul\":11464:11484   */\n      sub\n        /* \"#utility.yul\":11460:11461   */\n      0x00\n        /* \"#utility.yul\":11449:11458   */\n      dup4\n        /* \"#utility.yul\":11445:11462   */\n      add\n        /* \"#utility.yul\":11438:11485   */\n      mstore\n        /* \"#utility.yul\":11502:11633   */\n      tag_266\n        /* \"#utility.yul\":11628:11632   */\n      dup2\n        /* \"#utility.yul\":11502:11633   */\n      tag_227\n      jump\t// in\n    tag_266:\n        /* \"#utility.yul\":11494:11633   */\n      swap1\n      pop\n        /* \"#utility.yul\":11221:11640   */\n      swap2\n      swap1\n      pop\n      jump\t// out\n        /* \"#utility.yul\":11646:12065   */\n    tag_72:\n        /* \"#utility.yul\":11812:11816   */\n      0x00\n        /* \"#utility.yul\":11850:11852   */\n      0x20\n        /* \"#utility.yul\":11839:11848   */\n      dup3\n        /* \"#utility.yul\":11835:11853   */\n      add\n        /* \"#utility.yul\":11827:11853   */\n      swap1\n      pop\n        /* \"#utility.yul\":11899:11908   */\n      dup2\n        /* \"#utility.yul\":11893:11897   */\n      dup2\n        /* \"#utility.yul\":11889:11909   */\n      sub\n        /* \"#utility.yul\":11885:11886   */\n      0x00\n        /* \"#utility.yul\":11874:11883   */\n      dup4\n        /* \"#utility.yul\":11870:11887   */\n      add\n        /* \"#utility.yul\":11863:11910   */\n      mstore\n        /* \"#utility.yul\":11927:12058   */\n      tag_268\n        /* \"#utility.yul\":12053:12057   */\n      dup2\n        /* \"#utility.yul\":11927:12058   */\n      tag_232\n      jump\t// in\n    tag_268:\n        /* \"#utility.yul\":11919:12058   */\n      swap1\n      pop\n        /* \"#utility.yul\":11646:12065   */\n      swap2\n      swap1\n      pop\n      jump\t// out\n        /* \"#utility.yul\":12071:12490   */\n    tag_75:\n        /* \"#utility.yul\":12237:12241   */\n      0x00\n        /* \"#utility.yul\":12275:12277   */\n      0x20\n        /* \"#utility.yul\":12264:12273   */\n      dup3\n        /* \"#utility.yul\":12260:12278   */\n      add\n        /* \"#utility.yul\":12252:12278   */\n      swap1\n      pop\n        /* \"#utility.yul\":12324:12333   */\n      dup2\n        /* \"#utility.yul\":12318:12322   */\n      dup2\n        /* \"#utility.yul\":12314:12334   */\n      sub\n        /* \"#utility.yul\":12310:12311   */\n      0x00\n        /* \"#utility.yul\":12299:12308   */\n      dup4\n        /* \"#utility.yul\":12295:12312   */\n      add\n        /* \"#utility.yul\":12288:12335   */\n      mstore\n        /* \"#utility.yul\":12352:12483   */\n      tag_270\n        /* \"#utility.yul\":12478:12482   */\n      dup2\n        /* \"#utility.yul\":12352:12483   */\n      tag_237\n      jump\t// in\n    tag_270:\n        /* \"#utility.yul\":12344:12483   */\n      swap1\n      pop\n        /* \"#utility.yul\":12071:12490   */\n      swap2\n      swap1\n      pop\n      jump\t// out\n        /* \"#utility.yul\":12496:12915   */\n    tag_107:\n        /* \"#utility.yul\":12662:12666   */\n      0x00\n        /* \"#utility.yul\":12700:12702   */\n      0x20\n        /* \"#utility.yul\":12689:12698   */\n      dup3\n        /* \"#utility.yul\":12685:12703   */\n      add\n        /* \"#utility.yul\":12677:12703   */\n      swap1\n      pop\n        /* \"#utility.yul\":12749:12758   */\n      dup2\n        /* \"#utility.yul\":12743:12747   */\n      dup2\n        /* \"#utility.yul\":12739:12759   */\n      sub\n        /* \"#utility.yul\":12735:12736   */\n      0x00\n        /* \"#utility.yul\":12724:12733   */\n      dup4\n        /* \"#utility.yul\":12720:12737   */\n      add\n        /* \"#utility.yul\":12713:12760   */\n      mstore\n        /* \"#utility.yul\":12777:12908   */\n      tag_272\n        /* \"#utility.yul\":12903:12907   */\n      dup2\n        /* \"#utility.yul\":12777:12908   */\n      tag_242\n      jump\t// in\n    tag_272:\n        /* \"#utility.yul\":12769:12908   */\n      swap1\n      pop\n        /* \"#utility.yul\":12496:12915   */\n      swap2\n      swap1\n      pop\n      jump\t// out\n        /* \"#utility.yul\":12921:13143   */\n    tag_21:\n        /* \"#utility.yul\":13014:13018   */\n      0x00\n        /* \"#utility.yul\":13052:13054   */\n      0x20\n        /* \"#utility.yul\":13041:13050   */\n      dup3\n        /* \"#utility.yul\":13037:13055   */\n      add\n        /* \"#utility.yul\":13029:13055   */\n      swap1\n      pop\n        /* \"#utility.yul\":13065:13136   */\n      tag_274\n        /* \"#utility.yul\":13133:13134   */\n      0x00\n        /* \"#utility.yul\":13122:13131   */\n      dup4\n        /* \"#utility.yul\":13118:13135   */\n      add\n        /* \"#utility.yul\":13109:13115   */\n      dup5\n        /* \"#utility.yul\":13065:13136   */\n      tag_247\n      jump\t// in\n    tag_274:\n        /* \"#utility.yul\":12921:13143   */\n      swap3\n      swap2\n      pop\n      pop\n      jump\t// out\n        /* \"#utility.yul\":13149:13924   */\n    tag_113:\n        /* \"#utility.yul\":13382:13386   */\n      0x00\n        /* \"#utility.yul\":13420:13423   */\n      0xc0\n        /* \"#utility.yul\":13409:13418   */\n      dup3\n        /* \"#utility.yul\":13405:13424   */\n      add\n        /* \"#utility.yul\":13397:13424   */\n      swap1\n      pop\n        /* \"#utility.yul\":13434:13505   */\n      tag_276\n        /* \"#utility.yul\":13502:13503   */\n      0x00\n        /* \"#utility.yul\":13491:13500   */\n      dup4\n        /* \"#utility.yul\":13487:13504   */\n      add\n        /* \"#utility.yul\":13478:13484   */\n      dup10\n        /* \"#utility.yul\":13434:13505   */\n      tag_247\n      jump\t// in\n    tag_276:\n        /* \"#utility.yul\":13515:13587   */\n      tag_277\n        /* \"#utility.yul\":13583:13585   */\n      0x20\n        /* \"#utility.yul\":13572:13581   */\n      dup4\n        /* \"#utility.yul\":13568:13586   */\n      add\n        /* \"#utility.yul\":13559:13565   */\n      dup9\n        /* \"#utility.yul\":13515:13587   */\n      tag_247\n      jump\t// in\n    tag_277:\n        /* \"#utility.yul\":13597:13669   */\n      tag_278\n        /* \"#utility.yul\":13665:13667   */\n      0x40\n        /* \"#utility.yul\":13654:13663   */\n      dup4\n        /* \"#utility.yul\":13650:13668   */\n      add\n        /* \"#utility.yul\":13641:13647   */\n      dup8\n        /* \"#utility.yul\":13597:13669   */\n      tag_247\n      jump\t// in\n    tag_278:\n        /* \"#utility.yul\":13679:13751   */\n      tag_279\n        /* \"#utility.yul\":13747:13749   */\n      0x60\n        /* \"#utility.yul\":13736:13745   */\n      dup4\n        /* \"#utility.yul\":13732:13750   */\n      add\n        /* \"#utility.yul\":13723:13729   */\n      dup7\n        /* \"#utility.yul\":13679:13751   */\n      tag_198\n      jump\t// in\n    tag_279:\n        /* \"#utility.yul\":13761:13834   */\n      tag_280\n        /* \"#utility.yul\":13829:13832   */\n      0x80\n        /* \"#utility.yul\":13818:13827   */\n      dup4\n        /* \"#utility.yul\":13814:13833   */\n      add\n        /* \"#utility.yul\":13805:13811   */\n      dup6\n        /* \"#utility.yul\":13761:13834   */\n      tag_198\n      jump\t// in\n    tag_280:\n        /* \"#utility.yul\":13844:13917   */\n      tag_281\n        /* \"#utility.yul\":13912:13915   */\n      0xa0\n        /* \"#utility.yul\":13901:13910   */\n      dup4\n        /* \"#utility.yul\":13897:13916   */\n      add\n        /* \"#utility.yul\":13888:13894   */\n      dup5\n        /* \"#utility.yul\":13844:13917   */\n      tag_247\n      jump\t// in\n    tag_281:\n        /* \"#utility.yul\":13149:13924   */\n      swap8\n      swap7\n      pop\n      pop\n      pop\n      pop\n      pop\n      pop\n      pop\n      jump\t// out\n        /* \"#utility.yul\":13930:14586   */\n    tag_90:\n        /* \"#utility.yul\":14131:14135   */\n      0x00\n        /* \"#utility.yul\":14169:14172   */\n      0xa0\n        /* \"#utility.yul\":14158:14167   */\n      dup3\n        /* \"#utility.yul\":14154:14173   */\n      add\n        /* \"#utility.yul\":14146:14173   */\n      swap1\n      pop\n        /* \"#utility.yul\":14183:14254   */\n      tag_283\n        /* \"#utility.yul\":14251:14252   */\n      0x00\n        /* \"#utility.yul\":14240:14249   */\n      dup4\n        /* \"#utility.yul\":14236:14253   */\n      add\n        /* \"#utility.yul\":14227:14233   */\n      dup9\n        /* \"#utility.yul\":14183:14254   */\n      tag_247\n      jump\t// in\n    tag_283:\n        /* \"#utility.yul\":14264:14336   */\n      tag_284\n        /* \"#utility.yul\":14332:14334   */\n      0x20\n        /* \"#utility.yul\":14321:14330   */\n      dup4\n        /* \"#utility.yul\":14317:14335   */\n      add\n        /* \"#utility.yul\":14308:14314   */\n      dup8\n        /* \"#utility.yul\":14264:14336   */\n      tag_247\n      jump\t// in\n    tag_284:\n        /* \"#utility.yul\":14346:14418   */\n      tag_285\n        /* \"#utility.yul\":14414:14416   */\n      0x40\n        /* \"#utility.yul\":14403:14412   */\n      dup4\n        /* \"#utility.yul\":14399:14417   */\n      add\n        /* \"#utility.yul\":14390:14396   */\n      dup7\n        /* \"#utility.yul\":14346:14418   */\n      tag_247\n      jump\t// in\n    tag_285:\n        /* \"#utility.yul\":14428:14500   */\n      tag_286\n        /* \"#utility.yul\":14496:14498   */\n      0x60\n        /* \"#utility.yul\":14485:14494   */\n      dup4\n        /* \"#utility.yul\":14481:14499   */\n      add\n        /* \"#utility.yul\":14472:14478   */\n      dup6\n        /* \"#utility.yul\":14428:14500   */\n      tag_198\n      jump\t// in\n    tag_286:\n        /* \"#utility.yul\":14510:14579   */\n      tag_287\n        /* \"#utility.yul\":14574:14577   */\n      0x80\n        /* \"#utility.yul\":14563:14572   */\n      dup4\n        /* \"#utility.yul\":14559:14578   */\n      add\n        /* \"#utility.yul\":14550:14556   */\n      dup5\n        /* \"#utility.yul\":14510:14579   */\n      tag_251\n      jump\t// in\n    tag_287:\n        /* \"#utility.yul\":13930:14586   */\n      swap7\n      swap6\n      pop\n      pop\n      pop\n      pop\n      pop\n      pop\n      jump\t// out\n        /* \"#utility.yul\":14592:15137   */\n    tag_97:\n        /* \"#utility.yul\":14765:14769   */\n      0x00\n        /* \"#utility.yul\":14803:14806   */\n      0x80\n        /* \"#utility.yul\":14792:14801   */\n      dup3\n        /* \"#utility.yul\":14788:14807   */\n      add\n        /* \"#utility.yul\":14780:14807   */\n      swap1\n      pop\n        /* \"#utility.yul\":14817:14888   */\n      tag_289\n        /* \"#utility.yul\":14885:14886   */\n      0x00\n        /* \"#utility.yul\":14874:14883   */\n      dup4\n        /* \"#utility.yul\":14870:14887   */\n      add\n        /* \"#utility.yul\":14861:14867   */\n      dup8\n        /* \"#utility.yul\":14817:14888   */\n      tag_247\n      jump\t// in\n    tag_289:\n        /* \"#utility.yul\":14898:14970   */\n      tag_290\n        /* \"#utility.yul\":14966:14968   */\n      0x20\n        /* \"#utility.yul\":14955:14964   */\n      dup4\n        /* \"#utility.yul\":14951:14969   */\n      add\n        /* \"#utility.yul\":14942:14948   */\n      dup7\n        /* \"#utility.yul\":14898:14970   */\n      tag_247\n      jump\t// in\n    tag_290:\n        /* \"#utility.yul\":14980:15052   */\n      tag_291\n        /* \"#utility.yul\":15048:15050   */\n      0x40\n        /* \"#utility.yul\":15037:15046   */\n      dup4\n        /* \"#utility.yul\":15033:15051   */\n      add\n        /* \"#utility.yul\":15024:15030   */\n      dup6\n        /* \"#utility.yul\":14980:15052   */\n      tag_247\n      jump\t// in\n    tag_291:\n        /* \"#utility.yul\":15062:15130   */\n      tag_292\n        /* \"#utility.yul\":15126:15128   */\n      0x60\n        /* \"#utility.yul\":15115:15124   */\n      dup4\n        /* \"#utility.yul\":15111:15129   */\n      add\n        /* \"#utility.yul\":15102:15108   */\n      dup5\n        /* \"#utility.yul\":15062:15130   */\n      tag_251\n      jump\t// in\n    tag_292:\n        /* \"#utility.yul\":14592:15137   */\n      swap6\n      swap5\n      pop\n      pop\n      pop\n      pop\n      pop\n      jump\t// out\n        /* \"#utility.yul\":15143:15272   */\n    tag_131:\n        /* \"#utility.yul\":15177:15183   */\n      0x00\n        /* \"#utility.yul\":15204:15224   */\n      tag_294\n      tag_295\n      jump\t// in\n    tag_294:\n        /* \"#utility.yul\":15194:15224   */\n      swap1\n      pop\n        /* \"#utility.yul\":15233:15266   */\n      tag_296\n        /* \"#utility.yul\":15261:15265   */\n      dup3\n        /* \"#utility.yul\":15253:15259   */\n      dup3\n        /* \"#utility.yul\":15233:15266   */\n      tag_297\n      jump\t// in\n    tag_296:\n        /* \"#utility.yul\":15143:15272   */\n      swap2\n      swap1\n      pop\n      jump\t// out\n        /* \"#utility.yul\":15278:15353   */\n    tag_295:\n        /* \"#utility.yul\":15311:15317   */\n      0x00\n        /* \"#utility.yul\":15344:15346   */\n      0x40\n        /* \"#utility.yul\":15338:15347   */\n      mload\n        /* \"#utility.yul\":15328:15347   */\n      swap1\n      pop\n        /* \"#utility.yul\":15278:15353   */\n      swap1\n      jump\t// out\n        /* \"#utility.yul\":15359:15667   */\n    tag_130:\n        /* \"#utility.yul\":15421:15425   */\n      0x00\n        /* \"#utility.yul\":15511:15529   */\n      0xffffffffffffffff\n        /* \"#utility.yul\":15503:15509   */\n      dup3\n        /* \"#utility.yul\":15500:15530   */\n      gt\n        /* \"#utility.yul\":15497:15553   */\n      iszero\n      tag_300\n      jumpi\n        /* \"#utility.yul\":15533:15551   */\n      tag_301\n      tag_302\n      jump\t// in\n    tag_301:\n        /* \"#utility.yul\":15497:15553   */\n    tag_300:\n        /* \"#utility.yul\":15571:15600   */\n      tag_303\n        /* \"#utility.yul\":15593:15599   */\n      dup3\n        /* \"#utility.yul\":15571:15600   */\n      tag_304\n      jump\t// in\n    tag_303:\n        /* \"#utility.yul\":15563:15600   */\n      swap1\n      pop\n        /* \"#utility.yul\":15655:15659   */\n      0x20\n        /* \"#utility.yul\":15649:15653   */\n      dup2\n        /* \"#utility.yul\":15645:15660   */\n      add\n        /* \"#utility.yul\":15637:15660   */\n      swap1\n      pop\n        /* \"#utility.yul\":15359:15667   */\n      swap2\n      swap1\n      pop\n      jump\t// out\n        /* \"#utility.yul\":15673:15842   */\n    tag_209:\n        /* \"#utility.yul\":15757:15768   */\n      0x00\n        /* \"#utility.yul\":15791:15797   */\n      dup3\n        /* \"#utility.yul\":15786:15789   */\n      dup3\n        /* \"#utility.yul\":15779:15798   */\n      mstore\n        /* \"#utility.yul\":15831:15835   */\n      0x20\n        /* \"#utility.yul\":15826:15829   */\n      dup3\n        /* \"#utility.yul\":15822:15836   */\n      add\n        /* \"#utility.yul\":15807:15836   */\n      swap1\n      pop\n        /* \"#utility.yul\":15673:15842   */\n      swap3\n      swap2\n      pop\n      pop\n      jump\t// out\n        /* \"#utility.yul\":15848:15944   */\n    tag_201:\n        /* \"#utility.yul\":15885:15892   */\n      0x00\n        /* \"#utility.yul\":15914:15938   */\n      tag_307\n        /* \"#utility.yul\":15932:15937   */\n      dup3\n        /* \"#utility.yul\":15914:15938   */\n      tag_308\n      jump\t// in\n    tag_307:\n        /* \"#utility.yul\":15903:15938   */\n      swap1\n      pop\n        /* \"#utility.yul\":15848:15944   */\n      swap2\n      swap1\n      pop\n      jump\t// out\n        /* \"#utility.yul\":15950:16099   */\n    tag_309:\n        /* \"#utility.yul\":16006:16013   */\n      0x00\n        /* \"#utility.yul\":16035:16040   */\n      dup2\n        /* \"#utility.yul\":16024:16040   */\n      swap1\n      pop\n        /* \"#utility.yul\":16041:16093   */\n      tag_311\n        /* \"#utility.yul\":16087:16092   */\n      dup3\n        /* \"#utility.yul\":16041:16093   */\n      tag_312\n      jump\t// in\n    tag_311:\n        /* \"#utility.yul\":15950:16099   */\n      swap2\n      swap1\n      pop\n      jump\t// out\n        /* \"#utility.yul\":16105:16231   */\n    tag_308:\n        /* \"#utility.yul\":16142:16149   */\n      0x00\n        /* \"#utility.yul\":16182:16224   */\n      0xffffffffffffffffffffffffffffffffffffffff\n        /* \"#utility.yul\":16175:16180   */\n      dup3\n        /* \"#utility.yul\":16171:16225   */\n      and\n        /* \"#utility.yul\":16160:16225   */\n      swap1\n      pop\n        /* \"#utility.yul\":16105:16231   */\n      swap2\n      swap1\n      pop\n      jump\t// out\n        /* \"#utility.yul\":16237:16314   */\n    tag_250:\n        /* \"#utility.yul\":16274:16281   */\n      0x00\n        /* \"#utility.yul\":16303:16308   */\n      dup2\n        /* \"#utility.yul\":16292:16308   */\n      swap1\n      pop\n        /* \"#utility.yul\":16237:16314   */\n      swap2\n      swap1\n      pop\n      jump\t// out\n        /* \"#utility.yul\":16320:16406   */\n    tag_254:\n        /* \"#utility.yul\":16355:16362   */\n      0x00\n        /* \"#utility.yul\":16395:16399   */\n      0xff\n        /* \"#utility.yul\":16388:16393   */\n      dup3\n        /* \"#utility.yul\":16384:16400   */\n      and\n        /* \"#utility.yul\":16373:16400   */\n      swap1\n      pop\n        /* \"#utility.yul\":16320:16406   */\n      swap2\n      swap1\n      pop\n      jump\t// out\n        /* \"#utility.yul\":16412:16561   */\n    tag_205:\n        /* \"#utility.yul\":16479:16488   */\n      0x00\n        /* \"#utility.yul\":16512:16555   */\n      tag_317\n        /* \"#utility.yul\":16549:16554   */\n      dup3\n        /* \"#utility.yul\":16512:16555   */\n      tag_309\n      jump\t// in\n    tag_317:\n        /* \"#utility.yul\":16499:16555   */\n      swap1\n      pop\n        /* \"#utility.yul\":16412:16561   */\n      swap2\n      swap1\n      pop\n      jump\t// out\n        /* \"#utility.yul\":16567:16721   */\n    tag_136:\n        /* \"#utility.yul\":16651:16657   */\n      dup3\n        /* \"#utility.yul\":16646:16649   */\n      dup2\n        /* \"#utility.yul\":16641:16644   */\n      dup4\n        /* \"#utility.yul\":16628:16658   */\n      calldatacopy\n        /* \"#utility.yul\":16713:16714   */\n      0x00\n        /* \"#utility.yul\":16704:16710   */\n      dup4\n        /* \"#utility.yul\":16699:16702   */\n      dup4\n        /* \"#utility.yul\":16695:16711   */\n      add\n        /* \"#utility.yul\":16688:16715   */\n      mstore\n        /* \"#utility.yul\":16567:16721   */\n      pop\n      pop\n      pop\n      jump\t// out\n        /* \"#utility.yul\":16727:17047   */\n    tag_115:\n        /* \"#utility.yul\":16771:16777   */\n      0x00\n        /* \"#utility.yul\":16808:16809   */\n      0x02\n        /* \"#utility.yul\":16802:16806   */\n      dup3\n        /* \"#utility.yul\":16798:16810   */\n      div\n        /* \"#utility.yul\":16788:16810   */\n      swap1\n      pop\n        /* \"#utility.yul\":16855:16856   */\n      0x01\n        /* \"#utility.yul\":16849:16853   */\n      dup3\n        /* \"#utility.yul\":16845:16857   */\n      and\n        /* \"#utility.yul\":16876:16894   */\n      dup1\n        /* \"#utility.yul\":16866:16947   */\n      tag_320\n      jumpi\n        /* \"#utility.yul\":16932:16936   */\n      0x7f\n        /* \"#utility.yul\":16924:16930   */\n      dup3\n        /* \"#utility.yul\":16920:16937   */\n      and\n        /* \"#utility.yul\":16910:16937   */\n      swap2\n      pop\n        /* \"#utility.yul\":16866:16947   */\n    tag_320:\n        /* \"#utility.yul\":16994:16996   */\n      0x20\n        /* \"#utility.yul\":16986:16992   */\n      dup3\n        /* \"#utility.yul\":16983:16997   */\n      lt\n        /* \"#utility.yul\":16963:16981   */\n      dup2\n        /* \"#utility.yul\":16960:16998   */\n      eq\n        /* \"#utility.yul\":16957:17041   */\n      iszero\n      tag_321\n      jumpi\n        /* \"#utility.yul\":17013:17031   */\n      tag_322\n      tag_323\n      jump\t// in\n    tag_322:\n        /* \"#utility.yul\":16957:17041   */\n    tag_321:\n        /* \"#utility.yul\":16778:17047   */\n      pop\n        /* \"#utility.yul\":16727:17047   */\n      swap2\n      swap1\n      pop\n      jump\t// out\n        /* \"#utility.yul\":17053:17334   */\n    tag_297:\n        /* \"#utility.yul\":17136:17163   */\n      tag_325\n        /* \"#utility.yul\":17158:17162   */\n      dup3\n        /* \"#utility.yul\":17136:17163   */\n      tag_304\n      jump\t// in\n    tag_325:\n        /* \"#utility.yul\":17128:17134   */\n      dup2\n        /* \"#utility.yul\":17124:17164   */\n      add\n        /* \"#utility.yul\":17266:17272   */\n      dup2\n        /* \"#utility.yul\":17254:17264   */\n      dup2\n        /* \"#utility.yul\":17251:17273   */\n      lt\n        /* \"#utility.yul\":17230:17248   */\n      0xffffffffffffffff\n        /* \"#utility.yul\":17218:17228   */\n      dup3\n        /* \"#utility.yul\":17215:17249   */\n      gt\n        /* \"#utility.yul\":17212:17274   */\n      or\n        /* \"#utility.yul\":17209:17297   */\n      iszero\n      tag_326\n      jumpi\n        /* \"#utility.yul\":17277:17295   */\n      tag_327\n      tag_302\n      jump\t// in\n    tag_327:\n        /* \"#utility.yul\":17209:17297   */\n    tag_326:\n        /* \"#utility.yul\":17317:17327   */\n      dup1\n        /* \"#utility.yul\":17313:17315   */\n      0x40\n        /* \"#utility.yul\":17306:17328   */\n      mstore\n        /* \"#utility.yul\":17096:17334   */\n      pop\n        /* \"#utility.yul\":17053:17334   */\n      pop\n      pop\n      jump\t// out\n        /* \"#utility.yul\":17340:17573   */\n    tag_85:\n        /* \"#utility.yul\":17379:17382   */\n      0x00\n        /* \"#utility.yul\":17402:17426   */\n      tag_329\n        /* \"#utility.yul\":17420:17425   */\n      dup3\n        /* \"#utility.yul\":17402:17426   */\n      tag_250\n      jump\t// in\n    tag_329:\n        /* \"#utility.yul\":17393:17426   */\n      swap2\n      pop\n        /* \"#utility.yul\":17448:17514   */\n      0xffffffffffffffffffffffffffffffffffffffffffffffffffffffffffffffff\n        /* \"#utility.yul\":17441:17446   */\n      dup3\n        /* \"#utility.yul\":17438:17515   */\n      eq\n        /* \"#utility.yul\":17435:17538   */\n      iszero\n      tag_330\n      jumpi\n        /* \"#utility.yul\":17518:17536   */\n      tag_331\n      tag_332\n      jump\t// in\n    tag_331:\n        /* \"#utility.yul\":17435:17538   */\n    tag_330:\n        /* \"#utility.yul\":17565:17566   */\n      0x01\n        /* \"#utility.yul\":17558:17563   */\n      dup3\n        /* \"#utility.yul\":17554:17567   */\n      add\n        /* \"#utility.yul\":17547:17567   */\n      swap1\n      pop\n        /* \"#utility.yul\":17340:17573   */\n      swap2\n      swap1\n      pop\n      jump\t// out\n        /* \"#utility.yul\":17579:17759   */\n    tag_332:\n        /* \"#utility.yul\":17627:17704   */\n      0x4e487b7100000000000000000000000000000000000000000000000000000000\n        /* \"#utility.yul\":17624:17625   */\n      0x00\n        /* \"#utility.yul\":17617:17705   */\n      mstore\n        /* \"#utility.yul\":17724:17728   */\n      0x11\n        /* \"#utility.yul\":17721:17722   */\n      0x04\n        /* \"#utility.yul\":17714:17729   */\n      mstore\n        /* \"#utility.yul\":17748:17752   */\n      0x24\n        /* \"#utility.yul\":17745:17746   */\n      0x00\n        /* \"#utility.yul\":17738:17753   */\n      revert\n        /* \"#utility.yul\":17765:17945   */\n    tag_58:\n        /* \"#utility.yul\":17813:17890   */\n      0x4e487b7100000000000000000000000000000000000000000000000000000000\n        /* \"#utility.yul\":17810:17811   */\n      0x00\n        /* \"#utility.yul\":17803:17891   */\n      mstore\n        /* \"#utility.yul\":17910:17914   */\n      0x21\n        /* \"#utility.yul\":17907:17908   */\n      0x04\n        /* \"#utility.yul\":17900:17915   */\n      mstore\n        /* \"#utility.yul\":17934:17938   */\n      0x24\n        /* \"#utility.yul\":17931:17932   */\n      0x00\n        /* \"#utility.yul\":17924:17939   */\n      revert\n        /* \"#utility.yul\":17951:18131   */\n    tag_323:\n        /* \"#utility.yul\":17999:18076   */\n      0x4e487b7100000000000000000000000000000000000000000000000000000000\n        /* \"#utility.yul\":17996:17997   */\n      0x00\n        /* \"#utility.yul\":17989:18077   */\n      mstore\n        /* \"#utility.yul\":18096:18100   */\n      0x22\n        /* \"#utility.yul\":18093:18094   */\n      0x04\n        /* \"#utility.yul\":18086:18101   */\n      mstore\n        /* \"#utility.yul\":18120:18124   */\n      0x24\n        /* \"#utility.yul\":18117:18118   */\n      0x00\n        /* \"#utility.yul\":18110:18125   */\n      revert\n        /* \"#utility.yul\":18137:18317   */\n    tag_302:\n        /* \"#utility.yul\":18185:18262   */\n      0x4e487b7100000000000000000000000000000000000000000000000000000000\n        /* \"#utility.yul\":18182:18183   */\n      0x00\n        /* \"#utility.yul\":18175:18263   */\n      mstore\n        /* \"#utility.yul\":18282:18286   */\n      0x41\n        /* \"#utility.yul\":18279:18280   */\n      0x04\n        /* \"#utility.yul\":18272:18287   */\n      mstore\n        /* \"#utility.yul\":18306:18310   */\n      0x24\n        /* \"#utility.yul\":18303:18304   */\n      0x00\n        /* \"#utility.yul\":18296:18311   */\n      revert\n        /* \"#utility.yul\":18323:18440   */\n    tag_145:\n        /* \"#utility.yul\":18432:18433   */\n      0x00\n        /* \"#utility.yul\":18429:18430   */\n      dup1\n        /* \"#utility.yul\":18422:18434   */\n      revert\n        /* \"#utility.yul\":18446:18563   */\n    tag_134:\n        /* \"#utility.yul\":18555:18556   */\n      0x00\n        /* \"#utility.yul\":18552:18553   */\n      dup1\n        /* \"#utility.yul\":18545:18557   */\n      revert\n        /* \"#utility.yul\":18569:18686   */\n    tag_178:\n        /* \"#utility.yul\":18678:18679   */\n      0x00\n        /* \"#utility.yul\":18675:18676   */\n      dup1\n        /* \"#utility.yul\":18668:18680   */\n      revert\n        /* \"#utility.yul\":18692:18809   */\n    tag_158:\n        /* \"#utility.yul\":18801:18802   */\n      0x00\n        /* \"#utility.yul\":18798:18799   */\n      dup1\n        /* \"#utility.yul\":18791:18803   */\n      revert\n        /* \"#utility.yul\":18815:18917   */\n    tag_304:\n        /* \"#utility.yul\":18856:18862   */\n      0x00\n        /* \"#utility.yul\":18907:18909   */\n      0x1f\n        /* \"#utility.yul\":18903:18910   */\n      not\n        /* \"#utility.yul\":18898:18900   */\n      0x1f\n        /* \"#utility.yul\":18891:18896   */\n      dup4\n        /* \"#utility.yul\":18887:18901   */\n      add\n        /* \"#utility.yul\":18883:18911   */\n      and\n        /* \"#utility.yul\":18873:18911   */\n      swap1\n      pop\n        /* \"#utility.yul\":18815:18917   */\n      swap2\n      swap1\n      pop\n      jump\t// out\n        /* \"#utility.yul\":18923:19234   */\n    tag_211:\n        /* \"#utility.yul\":19063:19097   */\n      0x596f752068617665206e6f7420696e707574206120726967687420766f74652e\n        /* \"#utility.yul\":19059:19060   */\n      0x00\n        /* \"#utility.yul\":19051:19057   */\n      dup3\n        /* \"#utility.yul\":19047:19061   */\n      add\n        /* \"#utility.yul\":19040:19098   */\n      mstore\n        /* \"#utility.yul\":19132:19166   */\n      0x20596f752063616e2065697468657220766f7465203120666f72205265717565\n        /* \"#utility.yul\":19127:19129   */\n      0x20\n        /* \"#utility.yul\":19119:19125   */\n      dup3\n        /* \"#utility.yul\":19115:19130   */\n      add\n        /* \"#utility.yul\":19108:19167   */\n      mstore\n        /* \"#utility.yul\":19201:19226   */\n      0x73746572206f72203220666f722050726f76696465722e000000000000000000\n        /* \"#utility.yul\":19196:19198   */\n      0x40\n        /* \"#utility.yul\":19188:19194   */\n      dup3\n        /* \"#utility.yul\":19184:19199   */\n      add\n        /* \"#utility.yul\":19177:19227   */\n      mstore\n        /* \"#utility.yul\":18923:19234   */\n      pop\n      jump\t// out\n        /* \"#utility.yul\":19240:19472   */\n    tag_216:\n        /* \"#utility.yul\":19380:19414   */\n      0x596f75206861766520616c726561647920766f7465642c20796f752063616e6e\n        /* \"#utility.yul\":19376:19377   */\n      0x00\n        /* \"#utility.yul\":19368:19374   */\n      dup3\n        /* \"#utility.yul\":19364:19378   */\n      add\n        /* \"#utility.yul\":19357:19415   */\n      mstore\n        /* \"#utility.yul\":19449:19464   */\n      0x6f7420766f746520616761696e00000000000000000000000000000000000000\n        /* \"#utility.yul\":19444:19446   */\n      0x20\n        /* \"#utility.yul\":19436:19442   */\n      dup3\n        /* \"#utility.yul\":19432:19447   */\n      add\n        /* \"#utility.yul\":19425:19465   */\n      mstore\n        /* \"#utility.yul\":19240:19472   */\n      pop\n      jump\t// out\n        /* \"#utility.yul\":19478:19713   */\n    tag_221:\n        /* \"#utility.yul\":19618:19652   */\n      0x596f7520726169736564207468697320636f6e666c6963742e20596f75206361\n        /* \"#utility.yul\":19614:19615   */\n      0x00\n        /* \"#utility.yul\":19606:19612   */\n      dup3\n        /* \"#utility.yul\":19602:19616   */\n      add\n        /* \"#utility.yul\":19595:19653   */\n      mstore\n        /* \"#utility.yul\":19687:19705   */\n      0x6e6e6f7420766f7465206f6e2069742e00000000000000000000000000000000\n        /* \"#utility.yul\":19682:19684   */\n      0x20\n        /* \"#utility.yul\":19674:19680   */\n      dup3\n        /* \"#utility.yul\":19670:19685   */\n      add\n        /* \"#utility.yul\":19663:19706   */\n      mstore\n        /* \"#utility.yul\":19478:19713   */\n      pop\n      jump\t// out\n        /* \"#utility.yul\":19719:19967   */\n    tag_226:\n        /* \"#utility.yul\":19859:19893   */\n      0x566f74696e6720686173206e6f74206265656e20636f6d706c65746564207965\n        /* \"#utility.yul\":19855:19856   */\n      0x00\n        /* \"#utility.yul\":19847:19853   */\n      dup3\n        /* \"#utility.yul\":19843:19857   */\n      add\n        /* \"#utility.yul\":19836:19894   */\n      mstore\n        /* \"#utility.yul\":19928:19959   */\n      0x742e20506c65617365207761697420666f7220697420746f20656e642e000000\n        /* \"#utility.yul\":19923:19925   */\n      0x20\n        /* \"#utility.yul\":19915:19921   */\n      dup3\n        /* \"#utility.yul\":19911:19926   */\n      add\n        /* \"#utility.yul\":19904:19960   */\n      mstore\n        /* \"#utility.yul\":19719:19967   */\n      pop\n      jump\t// out\n        /* \"#utility.yul\":19973:20271   */\n    tag_231:\n        /* \"#utility.yul\":20113:20147   */\n      0x4e6f742065766572796f6e652068617320766f7465642c20706c656173652070\n        /* \"#utility.yul\":20109:20110   */\n      0x00\n        /* \"#utility.yul\":20101:20107   */\n      dup3\n        /* \"#utility.yul\":20097:20111   */\n      add\n        /* \"#utility.yul\":20090:20148   */\n      mstore\n        /* \"#utility.yul\":20182:20216   */\n      0x726f6d707420616c6c206f74686572206d656d62657273206f662070726f6a65\n        /* \"#utility.yul\":20177:20179   */\n      0x20\n        /* \"#utility.yul\":20169:20175   */\n      dup3\n        /* \"#utility.yul\":20165:20180   */\n      add\n        /* \"#utility.yul\":20158:20217   */\n      mstore\n        /* \"#utility.yul\":20251:20263   */\n      0x637420746f20766f746500000000000000000000000000000000000000000000\n        /* \"#utility.yul\":20246:20248   */\n      0x40\n        /* \"#utility.yul\":20238:20244   */\n      dup3\n        /* \"#utility.yul\":20234:20249   */\n      add\n        /* \"#utility.yul\":20227:20264   */\n      mstore\n        /* \"#utility.yul\":19973:20271   */\n      pop\n      jump\t// out\n        /* \"#utility.yul\":20277:20521   */\n    tag_236:\n        /* \"#utility.yul\":20417:20451   */\n      0x596f752061726520696e766f6c76656420696e207468697320636f6e666c6963\n        /* \"#utility.yul\":20413:20414   */\n      0x00\n        /* \"#utility.yul\":20405:20411   */\n      dup3\n        /* \"#utility.yul\":20401:20415   */\n      add\n        /* \"#utility.yul\":20394:20452   */\n      mstore\n        /* \"#utility.yul\":20486:20513   */\n      0x742e20596f752063616e6e6f7420766f7465206f6e2069742e00000000000000\n        /* \"#utility.yul\":20481:20483   */\n      0x20\n        /* \"#utility.yul\":20473:20479   */\n      dup3\n        /* \"#utility.yul\":20469:20484   */\n      add\n        /* \"#utility.yul\":20462:20514   */\n      mstore\n        /* \"#utility.yul\":20277:20521   */\n      pop\n      jump\t// out\n        /* \"#utility.yul\":20527:20709   */\n    tag_241:\n        /* \"#utility.yul\":20667:20701   */\n      0x456e6f75676820766f7465732068617665206265656e20636f6c6c6563746564\n        /* \"#utility.yul\":20663:20664   */\n      0x00\n        /* \"#utility.yul\":20655:20661   */\n      dup3\n        /* \"#utility.yul\":20651:20665   */\n      add\n        /* \"#utility.yul\":20644:20702   */\n      mstore\n        /* \"#utility.yul\":20527:20709   */\n      pop\n      jump\t// out\n        /* \"#utility.yul\":20715:21016   */\n    tag_246:\n        /* \"#utility.yul\":20855:20889   */\n      0x436f6e666c6963742068617320616c7265616479206265656e20637265617465\n        /* \"#utility.yul\":20851:20852   */\n      0x00\n        /* \"#utility.yul\":20843:20849   */\n      dup3\n        /* \"#utility.yul\":20839:20853   */\n      add\n        /* \"#utility.yul\":20832:20890   */\n      mstore\n        /* \"#utility.yul\":20924:20958   */\n      0x642e20506c6561736520646f206e6f7420637265617465206d6f726520746861\n        /* \"#utility.yul\":20919:20921   */\n      0x20\n        /* \"#utility.yul\":20911:20917   */\n      dup3\n        /* \"#utility.yul\":20907:20922   */\n      add\n        /* \"#utility.yul\":20900:20959   */\n      mstore\n        /* \"#utility.yul\":20993:21008   */\n      0x6e203120636f6e666c6963742e00000000000000000000000000000000000000\n        /* \"#utility.yul\":20988:20990   */\n      0x40\n        /* \"#utility.yul\":20980:20986   */\n      dup3\n        /* \"#utility.yul\":20976:20991   */\n      add\n        /* \"#utility.yul\":20969:21009   */\n      mstore\n        /* \"#utility.yul\":20715:21016   */\n      pop\n      jump\t// out\n        /* \"#utility.yul\":21022:21146   */\n    tag_312:\n        /* \"#utility.yul\":21114:21115   */\n      0x03\n        /* \"#utility.yul\":21107:21112   */\n      dup2\n        /* \"#utility.yul\":21104:21116   */\n      lt\n        /* \"#utility.yul\":21094:21140   */\n      tag_351\n      jumpi\n        /* \"#utility.yul\":21120:21138   */\n      tag_352\n      tag_58\n      jump\t// in\n    tag_352:\n        /* \"#utility.yul\":21094:21140   */\n    tag_351:\n        /* \"#utility.yul\":21022:21146   */\n      pop\n      jump\t// out\n        /* \"#utility.yul\":21152:21274   */\n    tag_140:\n        /* \"#utility.yul\":21225:21249   */\n      tag_354\n        /* \"#utility.yul\":21243:21248   */\n      dup2\n        /* \"#utility.yul\":21225:21249   */\n      tag_201\n      jump\t// in\n    tag_354:\n        /* \"#utility.yul\":21218:21223   */\n      dup2\n        /* \"#utility.yul\":21215:21250   */\n      eq\n        /* \"#utility.yul\":21205:21268   */\n      tag_355\n      jumpi\n        /* \"#utility.yul\":21264:21265   */\n      0x00\n        /* \"#utility.yul\":21261:21262   */\n      dup1\n        /* \"#utility.yul\":21254:21266   */\n      revert\n        /* \"#utility.yul\":21205:21268   */\n    tag_355:\n        /* \"#utility.yul\":21152:21274   */\n      pop\n      jump\t// out\n        /* \"#utility.yul\":21280:21402   */\n    tag_150:\n        /* \"#utility.yul\":21353:21377   */\n      tag_357\n        /* \"#utility.yul\":21371:21376   */\n      dup2\n        /* \"#utility.yul\":21353:21377   */\n      tag_250\n      jump\t// in\n    tag_357:\n        /* \"#utility.yul\":21346:21351   */\n      dup2\n        /* \"#utility.yul\":21343:21378   */\n      eq\n        /* \"#utility.yul\":21333:21396   */\n      tag_358\n      jumpi\n        /* \"#utility.yul\":21392:21393   */\n      0x00\n        /* \"#utility.yul\":21389:21390   */\n      dup1\n        /* \"#utility.yul\":21382:21394   */\n      revert\n        /* \"#utility.yul\":21333:21396   */\n    tag_358:\n        /* \"#utility.yul\":21280:21402   */\n      pop\n      jump\t// out\n        /* \"#utility.yul\":21408:21526   */\n    tag_154:\n        /* \"#utility.yul\":21479:21501   */\n      tag_360\n        /* \"#utility.yul\":21495:21500   */\n      dup2\n        /* \"#utility.yul\":21479:21501   */\n      tag_254\n      jump\t// in\n    tag_360:\n        /* \"#utility.yul\":21472:21477   */\n      dup2\n        /* \"#utility.yul\":21469:21502   */\n      eq\n        /* \"#utility.yul\":21459:21520   */\n      tag_361\n      jumpi\n        /* \"#utility.yul\":21516:21517   */\n      0x00\n        /* \"#utility.yul\":21513:21514   */\n      dup1\n        /* \"#utility.yul\":21506:21518   */\n      revert\n        /* \"#utility.yul\":21459:21520   */\n    tag_361:\n        /* \"#utility.yul\":21408:21526   */\n      pop\n      jump\t// out\n\n    auxdata: 0xa26469706673582212201cffc1f4b3475323ccab6f9cce42714c2279c5f88e35c605ace5be46f5f3a5cb64736f6c63430008070033\n}\n",
				"bytecode": {
					"linkReferences": {},
					"object": "608060405234801561001057600080fd5b50611aa1806100206000396000f3fe608060405234801561001057600080fd5b50600436106100925760003560e01c8063c171bdf711610066578063c171bdf714610143578063cb4389ce1461015f578063d1e992a71461018f578063e3d87718146101ab578063e62fac27146101db57610092565b80623f489f146100975780630366cef2146100b35780633c45fe31146100e35780639ac7887914610113575b600080fd5b6100b160048036038101906100ac9190610eeb565b6101f7565b005b6100cd60048036038101906100c89190610eeb565b61024c565b6040516100da91906113c9565b60405180910390f35b6100fd60048036038101906100f89190610eeb565b6103f9565b60405161010a91906113c9565b60405180910390f35b61012d60048036038101906101289190610eeb565b61043c565b60405161013a91906113c9565b60405180910390f35b61015d60048036038101906101589190610f3e565b61047f565b005b61017960048036038101906101749190610eeb565b6109f5565b60405161018691906112ae565b60405180910390f35b6101a960048036038101906101a49190610fb9565b610a45565b005b6101c560048036038101906101c09190610eeb565b610ae4565b6040516101d291906113c9565b60405180910390f35b6101f560048036038101906101f0919061106c565b610b27565b005b600080600085815260200190815260200160002060008481526020019081526020016000206000838152602001908152602001600020600b0160006101000a81548160ff021916908315150217905550505050565b600080600085815260200190815260200160002060008481526020019081526020016000206000838152602001908152602001600020600701546000808681526020019081526020016000206000858152602001908152602001600020600084815260200190815260200160002060080154146102fe576040517f08c379a00000000000000000000000000000000000000000000000000000000081526004016102f590611349565b60405180910390fd5b6002808111156103115761031061169c565b5b6000808681526020019081526020016000206000858152602001908152602001600020600084815260200190815260200160002060060160149054906101000a900460ff1660028111156103685761036761169c565b5b146103a8576040517f08c379a000000000000000000000000000000000000000000000000000000000815260040161039f90611329565b60405180910390fd5b60008085815260200190815260200160002060008481526020019081526020016000206000838152602001908152602001600020600b0160019054906101000a900460ff1660ff1690509392505050565b6000806000858152602001908152602001600020600084815260200190815260200160002060008381526020019081526020016000206008015490509392505050565b600080600085815260200190815260200160002060008481526020019081526020016000206000838152602001908152602001600020600a015490509392505050565b8173ffffffffffffffffffffffffffffffffffffffff166000808781526020019081526020016000206000868152602001908152602001600020600085815260200190815260200160002060050160009054906101000a900473ffffffffffffffffffffffffffffffffffffffff1673ffffffffffffffffffffffffffffffffffffffff161415610545576040517f08c379a000000000000000000000000000000000000000000000000000000000815260040161053c90611309565b60405180910390fd5b8173ffffffffffffffffffffffffffffffffffffffff166000808781526020019081526020016000206000868152602001908152602001600020600085815260200190815260200160002060060160009054906101000a900473ffffffffffffffffffffffffffffffffffffffff1673ffffffffffffffffffffffffffffffffffffffff16141561060b576040517f08c379a000000000000000000000000000000000000000000000000000000000815260040161060290611369565b60405180910390fd5b60008086815260200190815260200160002060008581526020019081526020016000206000848152602001908152602001600020600701546000808781526020019081526020016000206000868152602001908152602001600020600085815260200190815260200160002060080154106106bb576040517f08c379a00000000000000000000000000000000000000000000000000000000081526004016106b290611389565b60405180910390fd5b600080600087815260200190815260200160002060008681526020019081526020016000206000858152602001908152602001600020600c0160008473ffffffffffffffffffffffffffffffffffffffff1673ffffffffffffffffffffffffffffffffffffffff16815260200190815260200160002060009054906101000a900460ff1660ff1614610782576040517f08c379a0000000000000000000000000000000000000000000000000000000008152600401610779906112e9565b60405180910390fd5b60018160ff161480610797575060028160ff16145b6107d6576040517f08c379a00000000000000000000000000000000000000000000000000000000081526004016107cd906112c9565b60405180910390fd5b60008060008781526020019081526020016000206000868152602001908152602001600020600085815260200190815260200160002090508181600c0160008573ffffffffffffffffffffffffffffffffffffffff1673ffffffffffffffffffffffffffffffffffffffff16815260200190815260200160002060006101000a81548160ff021916908360ff16021790555060018260ff16141561088f5780600901600081548092919061088990611624565b91905055505b60028260ff1614156108b65780600a0160008154809291906108b090611624565b91905055505b8060080160008154809291906108cb90611624565b91905055507f20211b974adbe11ce3687d51504ce7ef1fcfbb9c00405ba7aca7b283903f345a8686863386604051610907959493929190611445565b60405180910390a18060070154816008015414156109ed57806009015481600a0154111561095257600281600b0160016101000a81548160ff021916908360ff160217905550610971565b600181600b0160016101000a81548160ff021916908360ff1602179055505b60028160060160146101000a81548160ff021916908360028111156109995761099861169c565b5b02179055507fe59fdbc65a5dd63c529717c2a71d04b136038f05301755de242dd05990c0281486868684600b0160019054906101000a900460ff166040516109e49493929190611498565b60405180910390a15b505050505050565b60008060008581526020019081526020016000206000848152602001908152602001600020600083815260200190815260200160002060060160149054906101000a900460ff1690509392505050565b81600080878152602001908152602001600020600086815260200190815260200160002060008581526020019081526020016000206003019080519060200190610a90929190610d99565b5080600080878152602001908152602001600020600086815260200190815260200160002060008581526020019081526020016000206004019080519060200190610adc929190610d99565b505050505050565b6000806000858152602001908152602001600020600084815260200190815260200160002060008381526020019081526020016000206009015490509392505050565b600115156000808a815260200190815260200160002060008981526020019081526020016000206000888152602001908152602001600020600b0160009054906101000a900460ff1615151415610bb3576040517f08c379a0000000000000000000000000000000000000000000000000000000008152600401610baa906113a9565b60405180910390fd5b60008060008a815260200190815260200160002060008981526020019081526020016000206000888152602001908152602001600020905088816000018190555087816001018190555086816002018190555085816003019080519060200190610c1e929190610d99565b5084816004019080519060200190610c37929190610d99565b50838160050160006101000a81548173ffffffffffffffffffffffffffffffffffffffff021916908373ffffffffffffffffffffffffffffffffffffffff160217905550828160060160006101000a81548173ffffffffffffffffffffffffffffffffffffffff021916908373ffffffffffffffffffffffffffffffffffffffff16021790555060018160060160146101000a81548160ff02191690836002811115610ce657610ce561169c565b5b02179055508181600701819055506000816008018190555060008160090181905550600081600a0181905550600181600b0160006101000a81548160ff021916908315150217905550600081600b0160016101000a81548160ff021916908360ff1602179055507ffa127411522a1139d16c2142db999e127aef2288bd98a0558006bb115666ab1b898989878787604051610d86969594939291906113e4565b60405180910390a1505050505050505050565b828054610da5906115c1565b90600052602060002090601f016020900481019282610dc75760008555610e0e565b82601f10610de057805160ff1916838001178555610e0e565b82800160010185558215610e0e579182015b82811115610e0d578251825591602001919060010190610df2565b5b509050610e1b9190610e1f565b5090565b5b80821115610e38576000816000905550600101610e20565b5090565b6000610e4f610e4a84611502565b6114dd565b905082815260208101848484011115610e6b57610e6a61172e565b5b610e768482856115b2565b509392505050565b600081359050610e8d81611a26565b92915050565b600082601f830112610ea857610ea7611729565b5b8135610eb8848260208601610e3c565b91505092915050565b600081359050610ed081611a3d565b92915050565b600081359050610ee581611a54565b92915050565b600080600060608486031215610f0457610f03611738565b5b6000610f1286828701610ec1565b9350506020610f2386828701610ec1565b9250506040610f3486828701610ec1565b9150509250925092565b600080600080600060a08688031215610f5a57610f59611738565b5b6000610f6888828901610ec1565b9550506020610f7988828901610ec1565b9450506040610f8a88828901610ec1565b9350506060610f9b88828901610e7e565b9250506080610fac88828901610ed6565b9150509295509295909350565b600080600080600060a08688031215610fd557610fd4611738565b5b6000610fe388828901610ec1565b9550506020610ff488828901610ec1565b945050604061100588828901610ec1565b935050606086013567ffffffffffffffff81111561102657611025611733565b5b61103288828901610e93565b925050608086013567ffffffffffffffff81111561105357611052611733565b5b61105f88828901610e93565b9150509295509295909350565b600080600080600080600080610100898b03121561108d5761108c611738565b5b600061109b8b828c01610ec1565b98505060206110ac8b828c01610ec1565b97505060406110bd8b828c01610ec1565b965050606089013567ffffffffffffffff8111156110de576110dd611733565b5b6110ea8b828c01610e93565b955050608089013567ffffffffffffffff81111561110b5761110a611733565b5b6111178b828c01610e93565b94505060a06111288b828c01610e7e565b93505060c06111398b828c01610e7e565b92505060e061114a8b828c01610ec1565b9150509295985092959890939650565b61116381611544565b82525050565b611172816115a0565b82525050565b6000611185605783611533565b91506111908261174e565b606082019050919050565b60006111a8602d83611533565b91506111b3826117c3565b604082019050919050565b60006111cb603083611533565b91506111d682611812565b604082019050919050565b60006111ee603d83611533565b91506111f982611861565b604082019050919050565b6000611211604a83611533565b915061121c826118b0565b606082019050919050565b6000611234603983611533565b915061123f82611925565b604082019050919050565b6000611257602083611533565b915061126282611974565b602082019050919050565b600061127a604d83611533565b91506112858261199d565b606082019050919050565b61129981611589565b82525050565b6112a881611593565b82525050565b60006020820190506112c36000830184611169565b92915050565b600060208201905081810360008301526112e281611178565b9050919050565b600060208201905081810360008301526113028161119b565b9050919050565b60006020820190508181036000830152611322816111be565b9050919050565b60006020820190508181036000830152611342816111e1565b9050919050565b6000602082019050818103600083015261136281611204565b9050919050565b6000602082019050818103600083015261138281611227565b9050919050565b600060208201905081810360008301526113a28161124a565b9050919050565b600060208201905081810360008301526113c28161126d565b9050919050565b60006020820190506113de6000830184611290565b92915050565b600060c0820190506113f96000830189611290565b6114066020830188611290565b6114136040830187611290565b611420606083018661115a565b61142d608083018561115a565b61143a60a0830184611290565b979650505050505050565b600060a08201905061145a6000830188611290565b6114676020830187611290565b6114746040830186611290565b611481606083018561115a565b61148e608083018461129f565b9695505050505050565b60006080820190506114ad6000830187611290565b6114ba6020830186611290565b6114c76040830185611290565b6114d4606083018461129f565b95945050505050565b60006114e76114f8565b90506114f382826115f3565b919050565b6000604051905090565b600067ffffffffffffffff82111561151d5761151c6116fa565b5b6115268261173d565b9050602081019050919050565b600082825260208201905092915050565b600061154f82611569565b9050919050565b600081905061156482611a12565b919050565b600073ffffffffffffffffffffffffffffffffffffffff82169050919050565b6000819050919050565b600060ff82169050919050565b60006115ab82611556565b9050919050565b82818337600083830152505050565b600060028204905060018216806115d957607f821691505b602082108114156115ed576115ec6116cb565b5b50919050565b6115fc8261173d565b810181811067ffffffffffffffff8211171561161b5761161a6116fa565b5b80604052505050565b600061162f82611589565b91507fffffffffffffffffffffffffffffffffffffffffffffffffffffffffffffffff8214156116625761166161166d565b5b600182019050919050565b7f4e487b7100000000000000000000000000000000000000000000000000000000600052601160045260246000fd5b7f4e487b7100000000000000000000000000000000000000000000000000000000600052602160045260246000fd5b7f4e487b7100000000000000000000000000000000000000000000000000000000600052602260045260246000fd5b7f4e487b7100000000000000000000000000000000000000000000000000000000600052604160045260246000fd5b600080fd5b600080fd5b600080fd5b600080fd5b6000601f19601f8301169050919050565b7f596f752068617665206e6f7420696e707574206120726967687420766f74652e60008201527f20596f752063616e2065697468657220766f7465203120666f7220526571756560208201527f73746572206f72203220666f722050726f76696465722e000000000000000000604082015250565b7f596f75206861766520616c726561647920766f7465642c20796f752063616e6e60008201527f6f7420766f746520616761696e00000000000000000000000000000000000000602082015250565b7f596f7520726169736564207468697320636f6e666c6963742e20596f7520636160008201527f6e6e6f7420766f7465206f6e2069742e00000000000000000000000000000000602082015250565b7f566f74696e6720686173206e6f74206265656e20636f6d706c6574656420796560008201527f742e20506c65617365207761697420666f7220697420746f20656e642e000000602082015250565b7f4e6f742065766572796f6e652068617320766f7465642c20706c65617365207060008201527f726f6d707420616c6c206f74686572206d656d62657273206f662070726f6a6560208201527f637420746f20766f746500000000000000000000000000000000000000000000604082015250565b7f596f752061726520696e766f6c76656420696e207468697320636f6e666c696360008201527f742e20596f752063616e6e6f7420766f7465206f6e2069742e00000000000000602082015250565b7f456e6f75676820766f7465732068617665206265656e20636f6c6c6563746564600082015250565b7f436f6e666c6963742068617320616c7265616479206265656e2063726561746560008201527f642e20506c6561736520646f206e6f7420637265617465206d6f72652074686160208201527f6e203120636f6e666c6963742e00000000000000000000000000000000000000604082015250565b60038110611a2357611a2261169c565b5b50565b611a2f81611544565b8114611a3a57600080fd5b50565b611a4681611589565b8114611a5157600080fd5b50565b611a5d81611593565b8114611a6857600080fd5b5056fea26469706673582212201cffc1f4b3475323ccab6f9cce42714c2279c5f88e35c605ace5be46f5f3a5cb64736f6c63430008070033",
					"opcodes": "PUSH1 0x80 PUSH1 0x40 MSTORE CALLVALUE DUP1 ISZERO PUSH2 0x10 JUMPI PUSH1 0x0 DUP1 REVERT JUMPDEST POP PUSH2 0x1AA1 DUP1 PUSH2 0x20 PUSH1 0x0 CODECOPY PUSH1 0x0 RETURN INVALID PUSH1 0x80 PUSH1 0x40 MSTORE CALLVALUE DUP1 ISZERO PUSH2 0x10 JUMPI PUSH1 0x0 DUP1 REVERT JUMPDEST POP PUSH1 0x4 CALLDATASIZE LT PUSH2 0x92 JUMPI PUSH1 0x0 CALLDATALOAD PUSH1 0xE0 SHR DUP1 PUSH4 0xC171BDF7 GT PUSH2 0x66 JUMPI DUP1 PUSH4 0xC171BDF7 EQ PUSH2 0x143 JUMPI DUP1 PUSH4 0xCB4389CE EQ PUSH2 0x15F JUMPI DUP1 PUSH4 0xD1E992A7 EQ PUSH2 0x18F JUMPI DUP1 PUSH4 0xE3D87718 EQ PUSH2 0x1AB JUMPI DUP1 PUSH4 0xE62FAC27 EQ PUSH2 0x1DB JUMPI PUSH2 0x92 JUMP JUMPDEST DUP1 PUSH3 0x3F489F EQ PUSH2 0x97 JUMPI DUP1 PUSH4 0x366CEF2 EQ PUSH2 0xB3 JUMPI DUP1 PUSH4 0x3C45FE31 EQ PUSH2 0xE3 JUMPI DUP1 PUSH4 0x9AC78879 EQ PUSH2 0x113 JUMPI JUMPDEST PUSH1 0x0 DUP1 REVERT JUMPDEST PUSH2 0xB1 PUSH1 0x4 DUP1 CALLDATASIZE SUB DUP2 ADD SWAP1 PUSH2 0xAC SWAP2 SWAP1 PUSH2 0xEEB JUMP JUMPDEST PUSH2 0x1F7 JUMP JUMPDEST STOP JUMPDEST PUSH2 0xCD PUSH1 0x4 DUP1 CALLDATASIZE SUB DUP2 ADD SWAP1 PUSH2 0xC8 SWAP2 SWAP1 PUSH2 0xEEB JUMP JUMPDEST PUSH2 0x24C JUMP JUMPDEST PUSH1 0x40 MLOAD PUSH2 0xDA SWAP2 SWAP1 PUSH2 0x13C9 JUMP JUMPDEST PUSH1 0x40 MLOAD DUP1 SWAP2 SUB SWAP1 RETURN JUMPDEST PUSH2 0xFD PUSH1 0x4 DUP1 CALLDATASIZE SUB DUP2 ADD SWAP1 PUSH2 0xF8 SWAP2 SWAP1 PUSH2 0xEEB JUMP JUMPDEST PUSH2 0x3F9 JUMP JUMPDEST PUSH1 0x40 MLOAD PUSH2 0x10A SWAP2 SWAP1 PUSH2 0x13C9 JUMP JUMPDEST PUSH1 0x40 MLOAD DUP1 SWAP2 SUB SWAP1 RETURN JUMPDEST PUSH2 0x12D PUSH1 0x4 DUP1 CALLDATASIZE SUB DUP2 ADD SWAP1 PUSH2 0x128 SWAP2 SWAP1 PUSH2 0xEEB JUMP JUMPDEST PUSH2 0x43C JUMP JUMPDEST PUSH1 0x40 MLOAD PUSH2 0x13A SWAP2 SWAP1 PUSH2 0x13C9 JUMP JUMPDEST PUSH1 0x40 MLOAD DUP1 SWAP2 SUB SWAP1 RETURN JUMPDEST PUSH2 0x15D PUSH1 0x4 DUP1 CALLDATASIZE SUB DUP2 ADD SWAP1 PUSH2 0x158 SWAP2 SWAP1 PUSH2 0xF3E JUMP JUMPDEST PUSH2 0x47F JUMP JUMPDEST STOP JUMPDEST PUSH2 0x179 PUSH1 0x4 DUP1 CALLDATASIZE SUB DUP2 ADD SWAP1 PUSH2 0x174 SWAP2 SWAP1 PUSH2 0xEEB JUMP JUMPDEST PUSH2 0x9F5 JUMP JUMPDEST PUSH1 0x40 MLOAD PUSH2 0x186 SWAP2 SWAP1 PUSH2 0x12AE JUMP JUMPDEST PUSH1 0x40 MLOAD DUP1 SWAP2 SUB SWAP1 RETURN JUMPDEST PUSH2 0x1A9 PUSH1 0x4 DUP1 CALLDATASIZE SUB DUP2 ADD SWAP1 PUSH2 0x1A4 SWAP2 SWAP1 PUSH2 0xFB9 JUMP JUMPDEST PUSH2 0xA45 JUMP JUMPDEST STOP JUMPDEST PUSH2 0x1C5 PUSH1 0x4 DUP1 CALLDATASIZE SUB DUP2 ADD SWAP1 PUSH2 0x1C0 SWAP2 SWAP1 PUSH2 0xEEB JUMP JUMPDEST PUSH2 0xAE4 JUMP JUMPDEST PUSH1 0x40 MLOAD PUSH2 0x1D2 SWAP2 SWAP1 PUSH2 0x13C9 JUMP JUMPDEST PUSH1 0x40 MLOAD DUP1 SWAP2 SUB SWAP1 RETURN JUMPDEST PUSH2 0x1F5 PUSH1 0x4 DUP1 CALLDATASIZE SUB DUP2 ADD SWAP1 PUSH2 0x1F0 SWAP2 SWAP1 PUSH2 0x106C JUMP JUMPDEST PUSH2 0xB27 JUMP JUMPDEST STOP JUMPDEST PUSH1 0x0 DUP1 PUSH1 0x0 DUP6 DUP2 MSTORE PUSH1 0x20 ADD SWAP1 DUP2 MSTORE PUSH1 0x20 ADD PUSH1 0x0 KECCAK256 PUSH1 0x0 DUP5 DUP2 MSTORE PUSH1 0x20 ADD SWAP1 DUP2 MSTORE PUSH1 0x20 ADD PUSH1 0x0 KECCAK256 PUSH1 0x0 DUP4 DUP2 MSTORE PUSH1 0x20 ADD SWAP1 DUP2 MSTORE PUSH1 0x20 ADD PUSH1 0x0 KECCAK256 PUSH1 0xB ADD PUSH1 0x0 PUSH2 0x100 EXP DUP2 SLOAD DUP2 PUSH1 0xFF MUL NOT AND SWAP1 DUP4 ISZERO ISZERO MUL OR SWAP1 SSTORE POP POP POP POP JUMP JUMPDEST PUSH1 0x0 DUP1 PUSH1 0x0 DUP6 DUP2 MSTORE PUSH1 0x20 ADD SWAP1 DUP2 MSTORE PUSH1 0x20 ADD PUSH1 0x0 KECCAK256 PUSH1 0x0 DUP5 DUP2 MSTORE PUSH1 0x20 ADD SWAP1 DUP2 MSTORE PUSH1 0x20 ADD PUSH1 0x0 KECCAK256 PUSH1 0x0 DUP4 DUP2 MSTORE PUSH1 0x20 ADD SWAP1 DUP2 MSTORE PUSH1 0x20 ADD PUSH1 0x0 KECCAK256 PUSH1 0x7 ADD SLOAD PUSH1 0x0 DUP1 DUP7 DUP2 MSTORE PUSH1 0x20 ADD SWAP1 DUP2 MSTORE PUSH1 0x20 ADD PUSH1 0x0 KECCAK256 PUSH1 0x0 DUP6 DUP2 MSTORE PUSH1 0x20 ADD SWAP1 DUP2 MSTORE PUSH1 0x20 ADD PUSH1 0x0 KECCAK256 PUSH1 0x0 DUP5 DUP2 MSTORE PUSH1 0x20 ADD SWAP1 DUP2 MSTORE PUSH1 0x20 ADD PUSH1 0x0 KECCAK256 PUSH1 0x8 ADD SLOAD EQ PUSH2 0x2FE JUMPI PUSH1 0x40 MLOAD PUSH32 0x8C379A000000000000000000000000000000000000000000000000000000000 DUP2 MSTORE PUSH1 0x4 ADD PUSH2 0x2F5 SWAP1 PUSH2 0x1349 JUMP JUMPDEST PUSH1 0x40 MLOAD DUP1 SWAP2 SUB SWAP1 REVERT JUMPDEST PUSH1 0x2 DUP1 DUP2 GT ISZERO PUSH2 0x311 JUMPI PUSH2 0x310 PUSH2 0x169C JUMP JUMPDEST JUMPDEST PUSH1 0x0 DUP1 DUP7 DUP2 MSTORE PUSH1 0x20 ADD SWAP1 DUP2 MSTORE PUSH1 0x20 ADD PUSH1 0x0 KECCAK256 PUSH1 0x0 DUP6 DUP2 MSTORE PUSH1 0x20 ADD SWAP1 DUP2 MSTORE PUSH1 0x20 ADD PUSH1 0x0 KECCAK256 PUSH1 0x0 DUP5 DUP2 MSTORE PUSH1 0x20 ADD SWAP1 DUP2 MSTORE PUSH1 0x20 ADD PUSH1 0x0 KECCAK256 PUSH1 0x6 ADD PUSH1 0x14 SWAP1 SLOAD SWAP1 PUSH2 0x100 EXP SWAP1 DIV PUSH1 0xFF AND PUSH1 0x2 DUP2 GT ISZERO PUSH2 0x368 JUMPI PUSH2 0x367 PUSH2 0x169C JUMP JUMPDEST JUMPDEST EQ PUSH2 0x3A8 JUMPI PUSH1 0x40 MLOAD PUSH32 0x8C379A000000000000000000000000000000000000000000000000000000000 DUP2 MSTORE PUSH1 0x4 ADD PUSH2 0x39F SWAP1 PUSH2 0x1329 JUMP JUMPDEST PUSH1 0x40 MLOAD DUP1 SWAP2 SUB SWAP1 REVERT JUMPDEST PUSH1 0x0 DUP1 DUP6 DUP2 MSTORE PUSH1 0x20 ADD SWAP1 DUP2 MSTORE PUSH1 0x20 ADD PUSH1 0x0 KECCAK256 PUSH1 0x0 DUP5 DUP2 MSTORE PUSH1 0x20 ADD SWAP1 DUP2 MSTORE PUSH1 0x20 ADD PUSH1 0x0 KECCAK256 PUSH1 0x0 DUP4 DUP2 MSTORE PUSH1 0x20 ADD SWAP1 DUP2 MSTORE PUSH1 0x20 ADD PUSH1 0x0 KECCAK256 PUSH1 0xB ADD PUSH1 0x1 SWAP1 SLOAD SWAP1 PUSH2 0x100 EXP SWAP1 DIV PUSH1 0xFF AND PUSH1 0xFF AND SWAP1 POP SWAP4 SWAP3 POP POP POP JUMP JUMPDEST PUSH1 0x0 DUP1 PUSH1 0x0 DUP6 DUP2 MSTORE PUSH1 0x20 ADD SWAP1 DUP2 MSTORE PUSH1 0x20 ADD PUSH1 0x0 KECCAK256 PUSH1 0x0 DUP5 DUP2 MSTORE PUSH1 0x20 ADD SWAP1 DUP2 MSTORE PUSH1 0x20 ADD PUSH1 0x0 KECCAK256 PUSH1 0x0 DUP4 DUP2 MSTORE PUSH1 0x20 ADD SWAP1 DUP2 MSTORE PUSH1 0x20 ADD PUSH1 0x0 KECCAK256 PUSH1 0x8 ADD SLOAD SWAP1 POP SWAP4 SWAP3 POP POP POP JUMP JUMPDEST PUSH1 0x0 DUP1 PUSH1 0x0 DUP6 DUP2 MSTORE PUSH1 0x20 ADD SWAP1 DUP2 MSTORE PUSH1 0x20 ADD PUSH1 0x0 KECCAK256 PUSH1 0x0 DUP5 DUP2 MSTORE PUSH1 0x20 ADD SWAP1 DUP2 MSTORE PUSH1 0x20 ADD PUSH1 0x0 KECCAK256 PUSH1 0x0 DUP4 DUP2 MSTORE PUSH1 0x20 ADD SWAP1 DUP2 MSTORE PUSH1 0x20 ADD PUSH1 0x0 KECCAK256 PUSH1 0xA ADD SLOAD SWAP1 POP SWAP4 SWAP3 POP POP POP JUMP JUMPDEST DUP2 PUSH20 0xFFFFFFFFFFFFFFFFFFFFFFFFFFFFFFFFFFFFFFFF AND PUSH1 0x0 DUP1 DUP8 DUP2 MSTORE PUSH1 0x20 ADD SWAP1 DUP2 MSTORE PUSH1 0x20 ADD PUSH1 0x0 KECCAK256 PUSH1 0x0 DUP7 DUP2 MSTORE PUSH1 0x20 ADD SWAP1 DUP2 MSTORE PUSH1 0x20 ADD PUSH1 0x0 KECCAK256 PUSH1 0x0 DUP6 DUP2 MSTORE PUSH1 0x20 ADD SWAP1 DUP2 MSTORE PUSH1 0x20 ADD PUSH1 0x0 KECCAK256 PUSH1 0x5 ADD PUSH1 0x0 SWAP1 SLOAD SWAP1 PUSH2 0x100 EXP SWAP1 DIV PUSH20 0xFFFFFFFFFFFFFFFFFFFFFFFFFFFFFFFFFFFFFFFF AND PUSH20 0xFFFFFFFFFFFFFFFFFFFFFFFFFFFFFFFFFFFFFFFF AND EQ ISZERO PUSH2 0x545 JUMPI PUSH1 0x40 MLOAD PUSH32 0x8C379A000000000000000000000000000000000000000000000000000000000 DUP2 MSTORE PUSH1 0x4 ADD PUSH2 0x53C SWAP1 PUSH2 0x1309 JUMP JUMPDEST PUSH1 0x40 MLOAD DUP1 SWAP2 SUB SWAP1 REVERT JUMPDEST DUP2 PUSH20 0xFFFFFFFFFFFFFFFFFFFFFFFFFFFFFFFFFFFFFFFF AND PUSH1 0x0 DUP1 DUP8 DUP2 MSTORE PUSH1 0x20 ADD SWAP1 DUP2 MSTORE PUSH1 0x20 ADD PUSH1 0x0 KECCAK256 PUSH1 0x0 DUP7 DUP2 MSTORE PUSH1 0x20 ADD SWAP1 DUP2 MSTORE PUSH1 0x20 ADD PUSH1 0x0 KECCAK256 PUSH1 0x0 DUP6 DUP2 MSTORE PUSH1 0x20 ADD SWAP1 DUP2 MSTORE PUSH1 0x20 ADD PUSH1 0x0 KECCAK256 PUSH1 0x6 ADD PUSH1 0x0 SWAP1 SLOAD SWAP1 PUSH2 0x100 EXP SWAP1 DIV PUSH20 0xFFFFFFFFFFFFFFFFFFFFFFFFFFFFFFFFFFFFFFFF AND PUSH20 0xFFFFFFFFFFFFFFFFFFFFFFFFFFFFFFFFFFFFFFFF AND EQ ISZERO PUSH2 0x60B JUMPI PUSH1 0x40 MLOAD PUSH32 0x8C379A000000000000000000000000000000000000000000000000000000000 DUP2 MSTORE PUSH1 0x4 ADD PUSH2 0x602 SWAP1 PUSH2 0x1369 JUMP JUMPDEST PUSH1 0x40 MLOAD DUP1 SWAP2 SUB SWAP1 REVERT JUMPDEST PUSH1 0x0 DUP1 DUP7 DUP2 MSTORE PUSH1 0x20 ADD SWAP1 DUP2 MSTORE PUSH1 0x20 ADD PUSH1 0x0 KECCAK256 PUSH1 0x0 DUP6 DUP2 MSTORE PUSH1 0x20 ADD SWAP1 DUP2 MSTORE PUSH1 0x20 ADD PUSH1 0x0 KECCAK256 PUSH1 0x0 DUP5 DUP2 MSTORE PUSH1 0x20 ADD SWAP1 DUP2 MSTORE PUSH1 0x20 ADD PUSH1 0x0 KECCAK256 PUSH1 0x7 ADD SLOAD PUSH1 0x0 DUP1 DUP8 DUP2 MSTORE PUSH1 0x20 ADD SWAP1 DUP2 MSTORE PUSH1 0x20 ADD PUSH1 0x0 KECCAK256 PUSH1 0x0 DUP7 DUP2 MSTORE PUSH1 0x20 ADD SWAP1 DUP2 MSTORE PUSH1 0x20 ADD PUSH1 0x0 KECCAK256 PUSH1 0x0 DUP6 DUP2 MSTORE PUSH1 0x20 ADD SWAP1 DUP2 MSTORE PUSH1 0x20 ADD PUSH1 0x0 KECCAK256 PUSH1 0x8 ADD SLOAD LT PUSH2 0x6BB JUMPI PUSH1 0x40 MLOAD PUSH32 0x8C379A000000000000000000000000000000000000000000000000000000000 DUP2 MSTORE PUSH1 0x4 ADD PUSH2 0x6B2 SWAP1 PUSH2 0x1389 JUMP JUMPDEST PUSH1 0x40 MLOAD DUP1 SWAP2 SUB SWAP1 REVERT JUMPDEST PUSH1 0x0 DUP1 PUSH1 0x0 DUP8 DUP2 MSTORE PUSH1 0x20 ADD SWAP1 DUP2 MSTORE PUSH1 0x20 ADD PUSH1 0x0 KECCAK256 PUSH1 0x0 DUP7 DUP2 MSTORE PUSH1 0x20 ADD SWAP1 DUP2 MSTORE PUSH1 0x20 ADD PUSH1 0x0 KECCAK256 PUSH1 0x0 DUP6 DUP2 MSTORE PUSH1 0x20 ADD SWAP1 DUP2 MSTORE PUSH1 0x20 ADD PUSH1 0x0 KECCAK256 PUSH1 0xC ADD PUSH1 0x0 DUP5 PUSH20 0xFFFFFFFFFFFFFFFFFFFFFFFFFFFFFFFFFFFFFFFF AND PUSH20 0xFFFFFFFFFFFFFFFFFFFFFFFFFFFFFFFFFFFFFFFF AND DUP2 MSTORE PUSH1 0x20 ADD SWAP1 DUP2 MSTORE PUSH1 0x20 ADD PUSH1 0x0 KECCAK256 PUSH1 0x0 SWAP1 SLOAD SWAP1 PUSH2 0x100 EXP SWAP1 DIV PUSH1 0xFF AND PUSH1 0xFF AND EQ PUSH2 0x782 JUMPI PUSH1 0x40 MLOAD PUSH32 0x8C379A000000000000000000000000000000000000000000000000000000000 DUP2 MSTORE PUSH1 0x4 ADD PUSH2 0x779 SWAP1 PUSH2 0x12E9 JUMP JUMPDEST PUSH1 0x40 MLOAD DUP1 SWAP2 SUB SWAP1 REVERT JUMPDEST PUSH1 0x1 DUP2 PUSH1 0xFF AND EQ DUP1 PUSH2 0x797 JUMPI POP PUSH1 0x2 DUP2 PUSH1 0xFF AND EQ JUMPDEST PUSH2 0x7D6 JUMPI PUSH1 0x40 MLOAD PUSH32 0x8C379A000000000000000000000000000000000000000000000000000000000 DUP2 MSTORE PUSH1 0x4 ADD PUSH2 0x7CD SWAP1 PUSH2 0x12C9 JUMP JUMPDEST PUSH1 0x40 MLOAD DUP1 SWAP2 SUB SWAP1 REVERT JUMPDEST PUSH1 0x0 DUP1 PUSH1 0x0 DUP8 DUP2 MSTORE PUSH1 0x20 ADD SWAP1 DUP2 MSTORE PUSH1 0x20 ADD PUSH1 0x0 KECCAK256 PUSH1 0x0 DUP7 DUP2 MSTORE PUSH1 0x20 ADD SWAP1 DUP2 MSTORE PUSH1 0x20 ADD PUSH1 0x0 KECCAK256 PUSH1 0x0 DUP6 DUP2 MSTORE PUSH1 0x20 ADD SWAP1 DUP2 MSTORE PUSH1 0x20 ADD PUSH1 0x0 KECCAK256 SWAP1 POP DUP2 DUP2 PUSH1 0xC ADD PUSH1 0x0 DUP6 PUSH20 0xFFFFFFFFFFFFFFFFFFFFFFFFFFFFFFFFFFFFFFFF AND PUSH20 0xFFFFFFFFFFFFFFFFFFFFFFFFFFFFFFFFFFFFFFFF AND DUP2 MSTORE PUSH1 0x20 ADD SWAP1 DUP2 MSTORE PUSH1 0x20 ADD PUSH1 0x0 KECCAK256 PUSH1 0x0 PUSH2 0x100 EXP DUP2 SLOAD DUP2 PUSH1 0xFF MUL NOT AND SWAP1 DUP4 PUSH1 0xFF AND MUL OR SWAP1 SSTORE POP PUSH1 0x1 DUP3 PUSH1 0xFF AND EQ ISZERO PUSH2 0x88F JUMPI DUP1 PUSH1 0x9 ADD PUSH1 0x0 DUP2 SLOAD DUP1 SWAP3 SWAP2 SWAP1 PUSH2 0x889 SWAP1 PUSH2 0x1624 JUMP JUMPDEST SWAP2 SWAP1 POP SSTORE POP JUMPDEST PUSH1 0x2 DUP3 PUSH1 0xFF AND EQ ISZERO PUSH2 0x8B6 JUMPI DUP1 PUSH1 0xA ADD PUSH1 0x0 DUP2 SLOAD DUP1 SWAP3 SWAP2 SWAP1 PUSH2 0x8B0 SWAP1 PUSH2 0x1624 JUMP JUMPDEST SWAP2 SWAP1 POP SSTORE POP JUMPDEST DUP1 PUSH1 0x8 ADD PUSH1 0x0 DUP2 SLOAD DUP1 SWAP3 SWAP2 SWAP1 PUSH2 0x8CB SWAP1 PUSH2 0x1624 JUMP JUMPDEST SWAP2 SWAP1 POP SSTORE POP PUSH32 0x20211B974ADBE11CE3687D51504CE7EF1FCFBB9C00405BA7ACA7B283903F345A DUP7 DUP7 DUP7 CALLER DUP7 PUSH1 0x40 MLOAD PUSH2 0x907 SWAP6 SWAP5 SWAP4 SWAP3 SWAP2 SWAP1 PUSH2 0x1445 JUMP JUMPDEST PUSH1 0x40 MLOAD DUP1 SWAP2 SUB SWAP1 LOG1 DUP1 PUSH1 0x7 ADD SLOAD DUP2 PUSH1 0x8 ADD SLOAD EQ ISZERO PUSH2 0x9ED JUMPI DUP1 PUSH1 0x9 ADD SLOAD DUP2 PUSH1 0xA ADD SLOAD GT ISZERO PUSH2 0x952 JUMPI PUSH1 0x2 DUP2 PUSH1 0xB ADD PUSH1 0x1 PUSH2 0x100 EXP DUP2 SLOAD DUP2 PUSH1 0xFF MUL NOT AND SWAP1 DUP4 PUSH1 0xFF AND MUL OR SWAP1 SSTORE POP PUSH2 0x971 JUMP JUMPDEST PUSH1 0x1 DUP2 PUSH1 0xB ADD PUSH1 0x1 PUSH2 0x100 EXP DUP2 SLOAD DUP2 PUSH1 0xFF MUL NOT AND SWAP1 DUP4 PUSH1 0xFF AND MUL OR SWAP1 SSTORE POP JUMPDEST PUSH1 0x2 DUP2 PUSH1 0x6 ADD PUSH1 0x14 PUSH2 0x100 EXP DUP2 SLOAD DUP2 PUSH1 0xFF MUL NOT AND SWAP1 DUP4 PUSH1 0x2 DUP2 GT ISZERO PUSH2 0x999 JUMPI PUSH2 0x998 PUSH2 0x169C JUMP JUMPDEST JUMPDEST MUL OR SWAP1 SSTORE POP PUSH32 0xE59FDBC65A5DD63C529717C2A71D04B136038F05301755DE242DD05990C02814 DUP7 DUP7 DUP7 DUP5 PUSH1 0xB ADD PUSH1 0x1 SWAP1 SLOAD SWAP1 PUSH2 0x100 EXP SWAP1 DIV PUSH1 0xFF AND PUSH1 0x40 MLOAD PUSH2 0x9E4 SWAP5 SWAP4 SWAP3 SWAP2 SWAP1 PUSH2 0x1498 JUMP JUMPDEST PUSH1 0x40 MLOAD DUP1 SWAP2 SUB SWAP1 LOG1 JUMPDEST POP POP POP POP POP POP JUMP JUMPDEST PUSH1 0x0 DUP1 PUSH1 0x0 DUP6 DUP2 MSTORE PUSH1 0x20 ADD SWAP1 DUP2 MSTORE PUSH1 0x20 ADD PUSH1 0x0 KECCAK256 PUSH1 0x0 DUP5 DUP2 MSTORE PUSH1 0x20 ADD SWAP1 DUP2 MSTORE PUSH1 0x20 ADD PUSH1 0x0 KECCAK256 PUSH1 0x0 DUP4 DUP2 MSTORE PUSH1 0x20 ADD SWAP1 DUP2 MSTORE PUSH1 0x20 ADD PUSH1 0x0 KECCAK256 PUSH1 0x6 ADD PUSH1 0x14 SWAP1 SLOAD SWAP1 PUSH2 0x100 EXP SWAP1 DIV PUSH1 0xFF AND SWAP1 POP SWAP4 SWAP3 POP POP POP JUMP JUMPDEST DUP2 PUSH1 0x0 DUP1 DUP8 DUP2 MSTORE PUSH1 0x20 ADD SWAP1 DUP2 MSTORE PUSH1 0x20 ADD PUSH1 0x0 KECCAK256 PUSH1 0x0 DUP7 DUP2 MSTORE PUSH1 0x20 ADD SWAP1 DUP2 MSTORE PUSH1 0x20 ADD PUSH1 0x0 KECCAK256 PUSH1 0x0 DUP6 DUP2 MSTORE PUSH1 0x20 ADD SWAP1 DUP2 MSTORE PUSH1 0x20 ADD PUSH1 0x0 KECCAK256 PUSH1 0x3 ADD SWAP1 DUP1 MLOAD SWAP1 PUSH1 0x20 ADD SWAP1 PUSH2 0xA90 SWAP3 SWAP2 SWAP1 PUSH2 0xD99 JUMP JUMPDEST POP DUP1 PUSH1 0x0 DUP1 DUP8 DUP2 MSTORE PUSH1 0x20 ADD SWAP1 DUP2 MSTORE PUSH1 0x20 ADD PUSH1 0x0 KECCAK256 PUSH1 0x0 DUP7 DUP2 MSTORE PUSH1 0x20 ADD SWAP1 DUP2 MSTORE PUSH1 0x20 ADD PUSH1 0x0 KECCAK256 PUSH1 0x0 DUP6 DUP2 MSTORE PUSH1 0x20 ADD SWAP1 DUP2 MSTORE PUSH1 0x20 ADD PUSH1 0x0 KECCAK256 PUSH1 0x4 ADD SWAP1 DUP1 MLOAD SWAP1 PUSH1 0x20 ADD SWAP1 PUSH2 0xADC SWAP3 SWAP2 SWAP1 PUSH2 0xD99 JUMP JUMPDEST POP POP POP POP POP POP JUMP JUMPDEST PUSH1 0x0 DUP1 PUSH1 0x0 DUP6 DUP2 MSTORE PUSH1 0x20 ADD SWAP1 DUP2 MSTORE PUSH1 0x20 ADD PUSH1 0x0 KECCAK256 PUSH1 0x0 DUP5 DUP2 MSTORE PUSH1 0x20 ADD SWAP1 DUP2 MSTORE PUSH1 0x20 ADD PUSH1 0x0 KECCAK256 PUSH1 0x0 DUP4 DUP2 MSTORE PUSH1 0x20 ADD SWAP1 DUP2 MSTORE PUSH1 0x20 ADD PUSH1 0x0 KECCAK256 PUSH1 0x9 ADD SLOAD SWAP1 POP SWAP4 SWAP3 POP POP POP JUMP JUMPDEST PUSH1 0x1 ISZERO ISZERO PUSH1 0x0 DUP1 DUP11 DUP2 MSTORE PUSH1 0x20 ADD SWAP1 DUP2 MSTORE PUSH1 0x20 ADD PUSH1 0x0 KECCAK256 PUSH1 0x0 DUP10 DUP2 MSTORE PUSH1 0x20 ADD SWAP1 DUP2 MSTORE PUSH1 0x20 ADD PUSH1 0x0 KECCAK256 PUSH1 0x0 DUP9 DUP2 MSTORE PUSH1 0x20 ADD SWAP1 DUP2 MSTORE PUSH1 0x20 ADD PUSH1 0x0 KECCAK256 PUSH1 0xB ADD PUSH1 0x0 SWAP1 SLOAD SWAP1 PUSH2 0x100 EXP SWAP1 DIV PUSH1 0xFF AND ISZERO ISZERO EQ ISZERO PUSH2 0xBB3 JUMPI PUSH1 0x40 MLOAD PUSH32 0x8C379A000000000000000000000000000000000000000000000000000000000 DUP2 MSTORE PUSH1 0x4 ADD PUSH2 0xBAA SWAP1 PUSH2 0x13A9 JUMP JUMPDEST PUSH1 0x40 MLOAD DUP1 SWAP2 SUB SWAP1 REVERT JUMPDEST PUSH1 0x0 DUP1 PUSH1 0x0 DUP11 DUP2 MSTORE PUSH1 0x20 ADD SWAP1 DUP2 MSTORE PUSH1 0x20 ADD PUSH1 0x0 KECCAK256 PUSH1 0x0 DUP10 DUP2 MSTORE PUSH1 0x20 ADD SWAP1 DUP2 MSTORE PUSH1 0x20 ADD PUSH1 0x0 KECCAK256 PUSH1 0x0 DUP9 DUP2 MSTORE PUSH1 0x20 ADD SWAP1 DUP2 MSTORE PUSH1 0x20 ADD PUSH1 0x0 KECCAK256 SWAP1 POP DUP9 DUP2 PUSH1 0x0 ADD DUP2 SWAP1 SSTORE POP DUP8 DUP2 PUSH1 0x1 ADD DUP2 SWAP1 SSTORE POP DUP7 DUP2 PUSH1 0x2 ADD DUP2 SWAP1 SSTORE POP DUP6 DUP2 PUSH1 0x3 ADD SWAP1 DUP1 MLOAD SWAP1 PUSH1 0x20 ADD SWAP1 PUSH2 0xC1E SWAP3 SWAP2 SWAP1 PUSH2 0xD99 JUMP JUMPDEST POP DUP5 DUP2 PUSH1 0x4 ADD SWAP1 DUP1 MLOAD SWAP1 PUSH1 0x20 ADD SWAP1 PUSH2 0xC37 SWAP3 SWAP2 SWAP1 PUSH2 0xD99 JUMP JUMPDEST POP DUP4 DUP2 PUSH1 0x5 ADD PUSH1 0x0 PUSH2 0x100 EXP DUP2 SLOAD DUP2 PUSH20 0xFFFFFFFFFFFFFFFFFFFFFFFFFFFFFFFFFFFFFFFF MUL NOT AND SWAP1 DUP4 PUSH20 0xFFFFFFFFFFFFFFFFFFFFFFFFFFFFFFFFFFFFFFFF AND MUL OR SWAP1 SSTORE POP DUP3 DUP2 PUSH1 0x6 ADD PUSH1 0x0 PUSH2 0x100 EXP DUP2 SLOAD DUP2 PUSH20 0xFFFFFFFFFFFFFFFFFFFFFFFFFFFFFFFFFFFFFFFF MUL NOT AND SWAP1 DUP4 PUSH20 0xFFFFFFFFFFFFFFFFFFFFFFFFFFFFFFFFFFFFFFFF AND MUL OR SWAP1 SSTORE POP PUSH1 0x1 DUP2 PUSH1 0x6 ADD PUSH1 0x14 PUSH2 0x100 EXP DUP2 SLOAD DUP2 PUSH1 0xFF MUL NOT AND SWAP1 DUP4 PUSH1 0x2 DUP2 GT ISZERO PUSH2 0xCE6 JUMPI PUSH2 0xCE5 PUSH2 0x169C JUMP JUMPDEST JUMPDEST MUL OR SWAP1 SSTORE POP DUP2 DUP2 PUSH1 0x7 ADD DUP2 SWAP1 SSTORE POP PUSH1 0x0 DUP2 PUSH1 0x8 ADD DUP2 SWAP1 SSTORE POP PUSH1 0x0 DUP2 PUSH1 0x9 ADD DUP2 SWAP1 SSTORE POP PUSH1 0x0 DUP2 PUSH1 0xA ADD DUP2 SWAP1 SSTORE POP PUSH1 0x1 DUP2 PUSH1 0xB ADD PUSH1 0x0 PUSH2 0x100 EXP DUP2 SLOAD DUP2 PUSH1 0xFF MUL NOT AND SWAP1 DUP4 ISZERO ISZERO MUL OR SWAP1 SSTORE POP PUSH1 0x0 DUP2 PUSH1 0xB ADD PUSH1 0x1 PUSH2 0x100 EXP DUP2 SLOAD DUP2 PUSH1 0xFF MUL NOT AND SWAP1 DUP4 PUSH1 0xFF AND MUL OR SWAP1 SSTORE POP PUSH32 0xFA127411522A1139D16C2142DB999E127AEF2288BD98A0558006BB115666AB1B DUP10 DUP10 DUP10 DUP8 DUP8 DUP8 PUSH1 0x40 MLOAD PUSH2 0xD86 SWAP7 SWAP6 SWAP5 SWAP4 SWAP3 SWAP2 SWAP1 PUSH2 0x13E4 JUMP JUMPDEST PUSH1 0x40 MLOAD DUP1 SWAP2 SUB SWAP1 LOG1 POP POP POP POP POP POP POP POP POP JUMP JUMPDEST DUP3 DUP1 SLOAD PUSH2 0xDA5 SWAP1 PUSH2 0x15C1 JUMP JUMPDEST SWAP1 PUSH1 0x0 MSTORE PUSH1 0x20 PUSH1 0x0 KECCAK256 SWAP1 PUSH1 0x1F ADD PUSH1 0x20 SWAP1 DIV DUP2 ADD SWAP3 DUP3 PUSH2 0xDC7 JUMPI PUSH1 0x0 DUP6 SSTORE PUSH2 0xE0E JUMP JUMPDEST DUP3 PUSH1 0x1F LT PUSH2 0xDE0 JUMPI DUP1 MLOAD PUSH1 0xFF NOT AND DUP4 DUP1 ADD OR DUP6 SSTORE PUSH2 0xE0E JUMP JUMPDEST DUP3 DUP1 ADD PUSH1 0x1 ADD DUP6 SSTORE DUP3 ISZERO PUSH2 0xE0E JUMPI SWAP2 DUP3 ADD JUMPDEST DUP3 DUP2 GT ISZERO PUSH2 0xE0D JUMPI DUP3 MLOAD DUP3 SSTORE SWAP2 PUSH1 0x20 ADD SWAP2 SWAP1 PUSH1 0x1 ADD SWAP1 PUSH2 0xDF2 JUMP JUMPDEST JUMPDEST POP SWAP1 POP PUSH2 0xE1B SWAP2 SWAP1 PUSH2 0xE1F JUMP JUMPDEST POP SWAP1 JUMP JUMPDEST JUMPDEST DUP1 DUP3 GT ISZERO PUSH2 0xE38 JUMPI PUSH1 0x0 DUP2 PUSH1 0x0 SWAP1 SSTORE POP PUSH1 0x1 ADD PUSH2 0xE20 JUMP JUMPDEST POP SWAP1 JUMP JUMPDEST PUSH1 0x0 PUSH2 0xE4F PUSH2 0xE4A DUP5 PUSH2 0x1502 JUMP JUMPDEST PUSH2 0x14DD JUMP JUMPDEST SWAP1 POP DUP3 DUP2 MSTORE PUSH1 0x20 DUP2 ADD DUP5 DUP5 DUP5 ADD GT ISZERO PUSH2 0xE6B JUMPI PUSH2 0xE6A PUSH2 0x172E JUMP JUMPDEST JUMPDEST PUSH2 0xE76 DUP5 DUP3 DUP6 PUSH2 0x15B2 JUMP JUMPDEST POP SWAP4 SWAP3 POP POP POP JUMP JUMPDEST PUSH1 0x0 DUP2 CALLDATALOAD SWAP1 POP PUSH2 0xE8D DUP2 PUSH2 0x1A26 JUMP JUMPDEST SWAP3 SWAP2 POP POP JUMP JUMPDEST PUSH1 0x0 DUP3 PUSH1 0x1F DUP4 ADD SLT PUSH2 0xEA8 JUMPI PUSH2 0xEA7 PUSH2 0x1729 JUMP JUMPDEST JUMPDEST DUP2 CALLDATALOAD PUSH2 0xEB8 DUP5 DUP3 PUSH1 0x20 DUP7 ADD PUSH2 0xE3C JUMP JUMPDEST SWAP2 POP POP SWAP3 SWAP2 POP POP JUMP JUMPDEST PUSH1 0x0 DUP2 CALLDATALOAD SWAP1 POP PUSH2 0xED0 DUP2 PUSH2 0x1A3D JUMP JUMPDEST SWAP3 SWAP2 POP POP JUMP JUMPDEST PUSH1 0x0 DUP2 CALLDATALOAD SWAP1 POP PUSH2 0xEE5 DUP2 PUSH2 0x1A54 JUMP JUMPDEST SWAP3 SWAP2 POP POP JUMP JUMPDEST PUSH1 0x0 DUP1 PUSH1 0x0 PUSH1 0x60 DUP5 DUP7 SUB SLT ISZERO PUSH2 0xF04 JUMPI PUSH2 0xF03 PUSH2 0x1738 JUMP JUMPDEST JUMPDEST PUSH1 0x0 PUSH2 0xF12 DUP7 DUP3 DUP8 ADD PUSH2 0xEC1 JUMP JUMPDEST SWAP4 POP POP PUSH1 0x20 PUSH2 0xF23 DUP7 DUP3 DUP8 ADD PUSH2 0xEC1 JUMP JUMPDEST SWAP3 POP POP PUSH1 0x40 PUSH2 0xF34 DUP7 DUP3 DUP8 ADD PUSH2 0xEC1 JUMP JUMPDEST SWAP2 POP POP SWAP3 POP SWAP3 POP SWAP3 JUMP JUMPDEST PUSH1 0x0 DUP1 PUSH1 0x0 DUP1 PUSH1 0x0 PUSH1 0xA0 DUP7 DUP9 SUB SLT ISZERO PUSH2 0xF5A JUMPI PUSH2 0xF59 PUSH2 0x1738 JUMP JUMPDEST JUMPDEST PUSH1 0x0 PUSH2 0xF68 DUP9 DUP3 DUP10 ADD PUSH2 0xEC1 JUMP JUMPDEST SWAP6 POP POP PUSH1 0x20 PUSH2 0xF79 DUP9 DUP3 DUP10 ADD PUSH2 0xEC1 JUMP JUMPDEST SWAP5 POP POP PUSH1 0x40 PUSH2 0xF8A DUP9 DUP3 DUP10 ADD PUSH2 0xEC1 JUMP JUMPDEST SWAP4 POP POP PUSH1 0x60 PUSH2 0xF9B DUP9 DUP3 DUP10 ADD PUSH2 0xE7E JUMP JUMPDEST SWAP3 POP POP PUSH1 0x80 PUSH2 0xFAC DUP9 DUP3 DUP10 ADD PUSH2 0xED6 JUMP JUMPDEST SWAP2 POP POP SWAP3 SWAP6 POP SWAP3 SWAP6 SWAP1 SWAP4 POP JUMP JUMPDEST PUSH1 0x0 DUP1 PUSH1 0x0 DUP1 PUSH1 0x0 PUSH1 0xA0 DUP7 DUP9 SUB SLT ISZERO PUSH2 0xFD5 JUMPI PUSH2 0xFD4 PUSH2 0x1738 JUMP JUMPDEST JUMPDEST PUSH1 0x0 PUSH2 0xFE3 DUP9 DUP3 DUP10 ADD PUSH2 0xEC1 JUMP JUMPDEST SWAP6 POP POP PUSH1 0x20 PUSH2 0xFF4 DUP9 DUP3 DUP10 ADD PUSH2 0xEC1 JUMP JUMPDEST SWAP5 POP POP PUSH1 0x40 PUSH2 0x1005 DUP9 DUP3 DUP10 ADD PUSH2 0xEC1 JUMP JUMPDEST SWAP4 POP POP PUSH1 0x60 DUP7 ADD CALLDATALOAD PUSH8 0xFFFFFFFFFFFFFFFF DUP2 GT ISZERO PUSH2 0x1026 JUMPI PUSH2 0x1025 PUSH2 0x1733 JUMP JUMPDEST JUMPDEST PUSH2 0x1032 DUP9 DUP3 DUP10 ADD PUSH2 0xE93 JUMP JUMPDEST SWAP3 POP POP PUSH1 0x80 DUP7 ADD CALLDATALOAD PUSH8 0xFFFFFFFFFFFFFFFF DUP2 GT ISZERO PUSH2 0x1053 JUMPI PUSH2 0x1052 PUSH2 0x1733 JUMP JUMPDEST JUMPDEST PUSH2 0x105F DUP9 DUP3 DUP10 ADD PUSH2 0xE93 JUMP JUMPDEST SWAP2 POP POP SWAP3 SWAP6 POP SWAP3 SWAP6 SWAP1 SWAP4 POP JUMP JUMPDEST PUSH1 0x0 DUP1 PUSH1 0x0 DUP1 PUSH1 0x0 DUP1 PUSH1 0x0 DUP1 PUSH2 0x100 DUP10 DUP12 SUB SLT ISZERO PUSH2 0x108D JUMPI PUSH2 0x108C PUSH2 0x1738 JUMP JUMPDEST JUMPDEST PUSH1 0x0 PUSH2 0x109B DUP12 DUP3 DUP13 ADD PUSH2 0xEC1 JUMP JUMPDEST SWAP9 POP POP PUSH1 0x20 PUSH2 0x10AC DUP12 DUP3 DUP13 ADD PUSH2 0xEC1 JUMP JUMPDEST SWAP8 POP POP PUSH1 0x40 PUSH2 0x10BD DUP12 DUP3 DUP13 ADD PUSH2 0xEC1 JUMP JUMPDEST SWAP7 POP POP PUSH1 0x60 DUP10 ADD CALLDATALOAD PUSH8 0xFFFFFFFFFFFFFFFF DUP2 GT ISZERO PUSH2 0x10DE JUMPI PUSH2 0x10DD PUSH2 0x1733 JUMP JUMPDEST JUMPDEST PUSH2 0x10EA DUP12 DUP3 DUP13 ADD PUSH2 0xE93 JUMP JUMPDEST SWAP6 POP POP PUSH1 0x80 DUP10 ADD CALLDATALOAD PUSH8 0xFFFFFFFFFFFFFFFF DUP2 GT ISZERO PUSH2 0x110B JUMPI PUSH2 0x110A PUSH2 0x1733 JUMP JUMPDEST JUMPDEST PUSH2 0x1117 DUP12 DUP3 DUP13 ADD PUSH2 0xE93 JUMP JUMPDEST SWAP5 POP POP PUSH1 0xA0 PUSH2 0x1128 DUP12 DUP3 DUP13 ADD PUSH2 0xE7E JUMP JUMPDEST SWAP4 POP POP PUSH1 0xC0 PUSH2 0x1139 DUP12 DUP3 DUP13 ADD PUSH2 0xE7E JUMP JUMPDEST SWAP3 POP POP PUSH1 0xE0 PUSH2 0x114A DUP12 DUP3 DUP13 ADD PUSH2 0xEC1 JUMP JUMPDEST SWAP2 POP POP SWAP3 SWAP6 SWAP9 POP SWAP3 SWAP6 SWAP9 SWAP1 SWAP4 SWAP7 POP JUMP JUMPDEST PUSH2 0x1163 DUP2 PUSH2 0x1544 JUMP JUMPDEST DUP3 MSTORE POP POP JUMP JUMPDEST PUSH2 0x1172 DUP2 PUSH2 0x15A0 JUMP JUMPDEST DUP3 MSTORE POP POP JUMP JUMPDEST PUSH1 0x0 PUSH2 0x1185 PUSH1 0x57 DUP4 PUSH2 0x1533 JUMP JUMPDEST SWAP2 POP PUSH2 0x1190 DUP3 PUSH2 0x174E JUMP JUMPDEST PUSH1 0x60 DUP3 ADD SWAP1 POP SWAP2 SWAP1 POP JUMP JUMPDEST PUSH1 0x0 PUSH2 0x11A8 PUSH1 0x2D DUP4 PUSH2 0x1533 JUMP JUMPDEST SWAP2 POP PUSH2 0x11B3 DUP3 PUSH2 0x17C3 JUMP JUMPDEST PUSH1 0x40 DUP3 ADD SWAP1 POP SWAP2 SWAP1 POP JUMP JUMPDEST PUSH1 0x0 PUSH2 0x11CB PUSH1 0x30 DUP4 PUSH2 0x1533 JUMP JUMPDEST SWAP2 POP PUSH2 0x11D6 DUP3 PUSH2 0x1812 JUMP JUMPDEST PUSH1 0x40 DUP3 ADD SWAP1 POP SWAP2 SWAP1 POP JUMP JUMPDEST PUSH1 0x0 PUSH2 0x11EE PUSH1 0x3D DUP4 PUSH2 0x1533 JUMP JUMPDEST SWAP2 POP PUSH2 0x11F9 DUP3 PUSH2 0x1861 JUMP JUMPDEST PUSH1 0x40 DUP3 ADD SWAP1 POP SWAP2 SWAP1 POP JUMP JUMPDEST PUSH1 0x0 PUSH2 0x1211 PUSH1 0x4A DUP4 PUSH2 0x1533 JUMP JUMPDEST SWAP2 POP PUSH2 0x121C DUP3 PUSH2 0x18B0 JUMP JUMPDEST PUSH1 0x60 DUP3 ADD SWAP1 POP SWAP2 SWAP1 POP JUMP JUMPDEST PUSH1 0x0 PUSH2 0x1234 PUSH1 0x39 DUP4 PUSH2 0x1533 JUMP JUMPDEST SWAP2 POP PUSH2 0x123F DUP3 PUSH2 0x1925 JUMP JUMPDEST PUSH1 0x40 DUP3 ADD SWAP1 POP SWAP2 SWAP1 POP JUMP JUMPDEST PUSH1 0x0 PUSH2 0x1257 PUSH1 0x20 DUP4 PUSH2 0x1533 JUMP JUMPDEST SWAP2 POP PUSH2 0x1262 DUP3 PUSH2 0x1974 JUMP JUMPDEST PUSH1 0x20 DUP3 ADD SWAP1 POP SWAP2 SWAP1 POP JUMP JUMPDEST PUSH1 0x0 PUSH2 0x127A PUSH1 0x4D DUP4 PUSH2 0x1533 JUMP JUMPDEST SWAP2 POP PUSH2 0x1285 DUP3 PUSH2 0x199D JUMP JUMPDEST PUSH1 0x60 DUP3 ADD SWAP1 POP SWAP2 SWAP1 POP JUMP JUMPDEST PUSH2 0x1299 DUP2 PUSH2 0x1589 JUMP JUMPDEST DUP3 MSTORE POP POP JUMP JUMPDEST PUSH2 0x12A8 DUP2 PUSH2 0x1593 JUMP JUMPDEST DUP3 MSTORE POP POP JUMP JUMPDEST PUSH1 0x0 PUSH1 0x20 DUP3 ADD SWAP1 POP PUSH2 0x12C3 PUSH1 0x0 DUP4 ADD DUP5 PUSH2 0x1169 JUMP JUMPDEST SWAP3 SWAP2 POP POP JUMP JUMPDEST PUSH1 0x0 PUSH1 0x20 DUP3 ADD SWAP1 POP DUP2 DUP2 SUB PUSH1 0x0 DUP4 ADD MSTORE PUSH2 0x12E2 DUP2 PUSH2 0x1178 JUMP JUMPDEST SWAP1 POP SWAP2 SWAP1 POP JUMP JUMPDEST PUSH1 0x0 PUSH1 0x20 DUP3 ADD SWAP1 POP DUP2 DUP2 SUB PUSH1 0x0 DUP4 ADD MSTORE PUSH2 0x1302 DUP2 PUSH2 0x119B JUMP JUMPDEST SWAP1 POP SWAP2 SWAP1 POP JUMP JUMPDEST PUSH1 0x0 PUSH1 0x20 DUP3 ADD SWAP1 POP DUP2 DUP2 SUB PUSH1 0x0 DUP4 ADD MSTORE PUSH2 0x1322 DUP2 PUSH2 0x11BE JUMP JUMPDEST SWAP1 POP SWAP2 SWAP1 POP JUMP JUMPDEST PUSH1 0x0 PUSH1 0x20 DUP3 ADD SWAP1 POP DUP2 DUP2 SUB PUSH1 0x0 DUP4 ADD MSTORE PUSH2 0x1342 DUP2 PUSH2 0x11E1 JUMP JUMPDEST SWAP1 POP SWAP2 SWAP1 POP JUMP JUMPDEST PUSH1 0x0 PUSH1 0x20 DUP3 ADD SWAP1 POP DUP2 DUP2 SUB PUSH1 0x0 DUP4 ADD MSTORE PUSH2 0x1362 DUP2 PUSH2 0x1204 JUMP JUMPDEST SWAP1 POP SWAP2 SWAP1 POP JUMP JUMPDEST PUSH1 0x0 PUSH1 0x20 DUP3 ADD SWAP1 POP DUP2 DUP2 SUB PUSH1 0x0 DUP4 ADD MSTORE PUSH2 0x1382 DUP2 PUSH2 0x1227 JUMP JUMPDEST SWAP1 POP SWAP2 SWAP1 POP JUMP JUMPDEST PUSH1 0x0 PUSH1 0x20 DUP3 ADD SWAP1 POP DUP2 DUP2 SUB PUSH1 0x0 DUP4 ADD MSTORE PUSH2 0x13A2 DUP2 PUSH2 0x124A JUMP JUMPDEST SWAP1 POP SWAP2 SWAP1 POP JUMP JUMPDEST PUSH1 0x0 PUSH1 0x20 DUP3 ADD SWAP1 POP DUP2 DUP2 SUB PUSH1 0x0 DUP4 ADD MSTORE PUSH2 0x13C2 DUP2 PUSH2 0x126D JUMP JUMPDEST SWAP1 POP SWAP2 SWAP1 POP JUMP JUMPDEST PUSH1 0x0 PUSH1 0x20 DUP3 ADD SWAP1 POP PUSH2 0x13DE PUSH1 0x0 DUP4 ADD DUP5 PUSH2 0x1290 JUMP JUMPDEST SWAP3 SWAP2 POP POP JUMP JUMPDEST PUSH1 0x0 PUSH1 0xC0 DUP3 ADD SWAP1 POP PUSH2 0x13F9 PUSH1 0x0 DUP4 ADD DUP10 PUSH2 0x1290 JUMP JUMPDEST PUSH2 0x1406 PUSH1 0x20 DUP4 ADD DUP9 PUSH2 0x1290 JUMP JUMPDEST PUSH2 0x1413 PUSH1 0x40 DUP4 ADD DUP8 PUSH2 0x1290 JUMP JUMPDEST PUSH2 0x1420 PUSH1 0x60 DUP4 ADD DUP7 PUSH2 0x115A JUMP JUMPDEST PUSH2 0x142D PUSH1 0x80 DUP4 ADD DUP6 PUSH2 0x115A JUMP JUMPDEST PUSH2 0x143A PUSH1 0xA0 DUP4 ADD DUP5 PUSH2 0x1290 JUMP JUMPDEST SWAP8 SWAP7 POP POP POP POP POP POP POP JUMP JUMPDEST PUSH1 0x0 PUSH1 0xA0 DUP3 ADD SWAP1 POP PUSH2 0x145A PUSH1 0x0 DUP4 ADD DUP9 PUSH2 0x1290 JUMP JUMPDEST PUSH2 0x1467 PUSH1 0x20 DUP4 ADD DUP8 PUSH2 0x1290 JUMP JUMPDEST PUSH2 0x1474 PUSH1 0x40 DUP4 ADD DUP7 PUSH2 0x1290 JUMP JUMPDEST PUSH2 0x1481 PUSH1 0x60 DUP4 ADD DUP6 PUSH2 0x115A JUMP JUMPDEST PUSH2 0x148E PUSH1 0x80 DUP4 ADD DUP5 PUSH2 0x129F JUMP JUMPDEST SWAP7 SWAP6 POP POP POP POP POP POP JUMP JUMPDEST PUSH1 0x0 PUSH1 0x80 DUP3 ADD SWAP1 POP PUSH2 0x14AD PUSH1 0x0 DUP4 ADD DUP8 PUSH2 0x1290 JUMP JUMPDEST PUSH2 0x14BA PUSH1 0x20 DUP4 ADD DUP7 PUSH2 0x1290 JUMP JUMPDEST PUSH2 0x14C7 PUSH1 0x40 DUP4 ADD DUP6 PUSH2 0x1290 JUMP JUMPDEST PUSH2 0x14D4 PUSH1 0x60 DUP4 ADD DUP5 PUSH2 0x129F JUMP JUMPDEST SWAP6 SWAP5 POP POP POP POP POP JUMP JUMPDEST PUSH1 0x0 PUSH2 0x14E7 PUSH2 0x14F8 JUMP JUMPDEST SWAP1 POP PUSH2 0x14F3 DUP3 DUP3 PUSH2 0x15F3 JUMP JUMPDEST SWAP2 SWAP1 POP JUMP JUMPDEST PUSH1 0x0 PUSH1 0x40 MLOAD SWAP1 POP SWAP1 JUMP JUMPDEST PUSH1 0x0 PUSH8 0xFFFFFFFFFFFFFFFF DUP3 GT ISZERO PUSH2 0x151D JUMPI PUSH2 0x151C PUSH2 0x16FA JUMP JUMPDEST JUMPDEST PUSH2 0x1526 DUP3 PUSH2 0x173D JUMP JUMPDEST SWAP1 POP PUSH1 0x20 DUP2 ADD SWAP1 POP SWAP2 SWAP1 POP JUMP JUMPDEST PUSH1 0x0 DUP3 DUP3 MSTORE PUSH1 0x20 DUP3 ADD SWAP1 POP SWAP3 SWAP2 POP POP JUMP JUMPDEST PUSH1 0x0 PUSH2 0x154F DUP3 PUSH2 0x1569 JUMP JUMPDEST SWAP1 POP SWAP2 SWAP1 POP JUMP JUMPDEST PUSH1 0x0 DUP2 SWAP1 POP PUSH2 0x1564 DUP3 PUSH2 0x1A12 JUMP JUMPDEST SWAP2 SWAP1 POP JUMP JUMPDEST PUSH1 0x0 PUSH20 0xFFFFFFFFFFFFFFFFFFFFFFFFFFFFFFFFFFFFFFFF DUP3 AND SWAP1 POP SWAP2 SWAP1 POP JUMP JUMPDEST PUSH1 0x0 DUP2 SWAP1 POP SWAP2 SWAP1 POP JUMP JUMPDEST PUSH1 0x0 PUSH1 0xFF DUP3 AND SWAP1 POP SWAP2 SWAP1 POP JUMP JUMPDEST PUSH1 0x0 PUSH2 0x15AB DUP3 PUSH2 0x1556 JUMP JUMPDEST SWAP1 POP SWAP2 SWAP1 POP JUMP JUMPDEST DUP3 DUP2 DUP4 CALLDATACOPY PUSH1 0x0 DUP4 DUP4 ADD MSTORE POP POP POP JUMP JUMPDEST PUSH1 0x0 PUSH1 0x2 DUP3 DIV SWAP1 POP PUSH1 0x1 DUP3 AND DUP1 PUSH2 0x15D9 JUMPI PUSH1 0x7F DUP3 AND SWAP2 POP JUMPDEST PUSH1 0x20 DUP3 LT DUP2 EQ ISZERO PUSH2 0x15ED JUMPI PUSH2 0x15EC PUSH2 0x16CB JUMP JUMPDEST JUMPDEST POP SWAP2 SWAP1 POP JUMP JUMPDEST PUSH2 0x15FC DUP3 PUSH2 0x173D JUMP JUMPDEST DUP2 ADD DUP2 DUP2 LT PUSH8 0xFFFFFFFFFFFFFFFF DUP3 GT OR ISZERO PUSH2 0x161B JUMPI PUSH2 0x161A PUSH2 0x16FA JUMP JUMPDEST JUMPDEST DUP1 PUSH1 0x40 MSTORE POP POP POP JUMP JUMPDEST PUSH1 0x0 PUSH2 0x162F DUP3 PUSH2 0x1589 JUMP JUMPDEST SWAP2 POP PUSH32 0xFFFFFFFFFFFFFFFFFFFFFFFFFFFFFFFFFFFFFFFFFFFFFFFFFFFFFFFFFFFFFFFF DUP3 EQ ISZERO PUSH2 0x1662 JUMPI PUSH2 0x1661 PUSH2 0x166D JUMP JUMPDEST JUMPDEST PUSH1 0x1 DUP3 ADD SWAP1 POP SWAP2 SWAP1 POP JUMP JUMPDEST PUSH32 0x4E487B7100000000000000000000000000000000000000000000000000000000 PUSH1 0x0 MSTORE PUSH1 0x11 PUSH1 0x4 MSTORE PUSH1 0x24 PUSH1 0x0 REVERT JUMPDEST PUSH32 0x4E487B7100000000000000000000000000000000000000000000000000000000 PUSH1 0x0 MSTORE PUSH1 0x21 PUSH1 0x4 MSTORE PUSH1 0x24 PUSH1 0x0 REVERT JUMPDEST PUSH32 0x4E487B7100000000000000000000000000000000000000000000000000000000 PUSH1 0x0 MSTORE PUSH1 0x22 PUSH1 0x4 MSTORE PUSH1 0x24 PUSH1 0x0 REVERT JUMPDEST PUSH32 0x4E487B7100000000000000000000000000000000000000000000000000000000 PUSH1 0x0 MSTORE PUSH1 0x41 PUSH1 0x4 MSTORE PUSH1 0x24 PUSH1 0x0 REVERT JUMPDEST PUSH1 0x0 DUP1 REVERT JUMPDEST PUSH1 0x0 DUP1 REVERT JUMPDEST PUSH1 0x0 DUP1 REVERT JUMPDEST PUSH1 0x0 DUP1 REVERT JUMPDEST PUSH1 0x0 PUSH1 0x1F NOT PUSH1 0x1F DUP4 ADD AND SWAP1 POP SWAP2 SWAP1 POP JUMP JUMPDEST PUSH32 0x596F752068617665206E6F7420696E707574206120726967687420766F74652E PUSH1 0x0 DUP3 ADD MSTORE PUSH32 0x20596F752063616E2065697468657220766F7465203120666F72205265717565 PUSH1 0x20 DUP3 ADD MSTORE PUSH32 0x73746572206F72203220666F722050726F76696465722E000000000000000000 PUSH1 0x40 DUP3 ADD MSTORE POP JUMP JUMPDEST PUSH32 0x596F75206861766520616C726561647920766F7465642C20796F752063616E6E PUSH1 0x0 DUP3 ADD MSTORE PUSH32 0x6F7420766F746520616761696E00000000000000000000000000000000000000 PUSH1 0x20 DUP3 ADD MSTORE POP JUMP JUMPDEST PUSH32 0x596F7520726169736564207468697320636F6E666C6963742E20596F75206361 PUSH1 0x0 DUP3 ADD MSTORE PUSH32 0x6E6E6F7420766F7465206F6E2069742E00000000000000000000000000000000 PUSH1 0x20 DUP3 ADD MSTORE POP JUMP JUMPDEST PUSH32 0x566F74696E6720686173206E6F74206265656E20636F6D706C65746564207965 PUSH1 0x0 DUP3 ADD MSTORE PUSH32 0x742E20506C65617365207761697420666F7220697420746F20656E642E000000 PUSH1 0x20 DUP3 ADD MSTORE POP JUMP JUMPDEST PUSH32 0x4E6F742065766572796F6E652068617320766F7465642C20706C656173652070 PUSH1 0x0 DUP3 ADD MSTORE PUSH32 0x726F6D707420616C6C206F74686572206D656D62657273206F662070726F6A65 PUSH1 0x20 DUP3 ADD MSTORE PUSH32 0x637420746F20766F746500000000000000000000000000000000000000000000 PUSH1 0x40 DUP3 ADD MSTORE POP JUMP JUMPDEST PUSH32 0x596F752061726520696E766F6C76656420696E207468697320636F6E666C6963 PUSH1 0x0 DUP3 ADD MSTORE PUSH32 0x742E20596F752063616E6E6F7420766F7465206F6E2069742E00000000000000 PUSH1 0x20 DUP3 ADD MSTORE POP JUMP JUMPDEST PUSH32 0x456E6F75676820766F7465732068617665206265656E20636F6C6C6563746564 PUSH1 0x0 DUP3 ADD MSTORE POP JUMP JUMPDEST PUSH32 0x436F6E666C6963742068617320616C7265616479206265656E20637265617465 PUSH1 0x0 DUP3 ADD MSTORE PUSH32 0x642E20506C6561736520646F206E6F7420637265617465206D6F726520746861 PUSH1 0x20 DUP3 ADD MSTORE PUSH32 0x6E203120636F6E666C6963742E00000000000000000000000000000000000000 PUSH1 0x40 DUP3 ADD MSTORE POP JUMP JUMPDEST PUSH1 0x3 DUP2 LT PUSH2 0x1A23 JUMPI PUSH2 0x1A22 PUSH2 0x169C JUMP JUMPDEST JUMPDEST POP JUMP JUMPDEST PUSH2 0x1A2F DUP2 PUSH2 0x1544 JUMP JUMPDEST DUP2 EQ PUSH2 0x1A3A JUMPI PUSH1 0x0 DUP1 REVERT JUMPDEST POP JUMP JUMPDEST PUSH2 0x1A46 DUP2 PUSH2 0x1589 JUMP JUMPDEST DUP2 EQ PUSH2 0x1A51 JUMPI PUSH1 0x0 DUP1 REVERT JUMPDEST POP JUMP JUMPDEST PUSH2 0x1A5D DUP2 PUSH2 0x1593 JUMP JUMPDEST DUP2 EQ PUSH2 0x1A68 JUMPI PUSH1 0x0 DUP1 REVERT JUMPDEST POP JUMP INVALID LOG2 PUSH5 0x6970667358 0x22 SLT KECCAK256 SHR SELFDESTRUCT 0xC1 DELEGATECALL 0xB3 SELFBALANCE MSTORE8 0x23 0xCC 0xAB PUSH16 0x9CCE42714C2279C5F88E35C605ACE5BE CHAINID CREATE2 RETURN 0xA5 0xCB PUSH5 0x736F6C6343 STOP ADDMOD SMOD STOP CALLER "
				},
				"gasEstimates": {
					"creation": {
						"codeDepositCost": "1363400",
						"executionCost": "1424",
						"totalCost": "1364824"
					},
					"external": {
						"createConflict(uint256,uint256,uint256,string,string,address,address,uint256)": "infinite",
						"deleteConflict(uint256,uint256,uint256)": "infinite",
						"getConflictStatus(uint256,uint256,uint256)": "infinite",
						"getResults(uint256,uint256,uint256)": "infinite",
						"getVotesCollected(uint256,uint256,uint256)": "infinite",
						"getVotesforProvider(uint256,uint256,uint256)": "infinite",
						"getVotesforRequester(uint256,uint256,uint256)": "infinite",
						"updateConflict(uint256,uint256,uint256,string,string)": "infinite",
						"voteConflict(uint256,uint256,uint256,address,uint8)": "infinite"
					}
				},
				"methodIdentifiers": {
					"createConflict(uint256,uint256,uint256,string,string,address,address,uint256)": "e62fac27",
					"deleteConflict(uint256,uint256,uint256)": "003f489f",
					"getConflictStatus(uint256,uint256,uint256)": "cb4389ce",
					"getResults(uint256,uint256,uint256)": "0366cef2",
					"getVotesCollected(uint256,uint256,uint256)": "3c45fe31",
					"getVotesforProvider(uint256,uint256,uint256)": "9ac78879",
					"getVotesforRequester(uint256,uint256,uint256)": "e3d87718",
					"updateConflict(uint256,uint256,uint256,string,string)": "d1e992a7",
					"voteConflict(uint256,uint256,uint256,address,uint8)": "c171bdf7"
				}
			},
			"userdoc": {
				"kind": "user",
				"methods": {},
				"version": 1
			}
		}
	}
}