{
	"contracts/Conflict.sol": {
		"Conflict": {
			"abi": [
				{
					"anonymous": false,
					"inputs": [
						{
							"indexed": false,
							"internalType": "uint256",
							"name": "projectNumber",
							"type": "uint256"
						},
						{
							"indexed": false,
							"internalType": "uint256",
							"name": "serviceNumber",
							"type": "uint256"
						},
						{
							"indexed": false,
							"internalType": "uint256",
							"name": "milestoneNumber",
							"type": "uint256"
						},
						{
							"indexed": false,
							"internalType": "address",
							"name": "serviceRequester",
							"type": "address"
						},
						{
							"indexed": false,
							"internalType": "address",
							"name": "serviceProvider",
							"type": "address"
						},
						{
							"indexed": false,
							"internalType": "uint256",
							"name": "totalVoters",
							"type": "uint256"
						}
					],
					"name": "conflictCreated",
					"type": "event"
				},
				{
					"anonymous": false,
					"inputs": [
						{
							"indexed": false,
							"internalType": "uint256",
							"name": "projectNumber",
							"type": "uint256"
						},
						{
							"indexed": false,
							"internalType": "uint256",
							"name": "serviceNumber",
							"type": "uint256"
						},
						{
							"indexed": false,
							"internalType": "uint256",
							"name": "milestoneNumber",
							"type": "uint256"
						},
						{
							"indexed": false,
							"internalType": "address",
							"name": "serviceProvider",
							"type": "address"
						}
					],
					"name": "conflictRaised",
					"type": "event"
				},
				{
					"anonymous": false,
					"inputs": [
						{
							"indexed": false,
							"internalType": "uint256",
							"name": "projectNumber",
							"type": "uint256"
						},
						{
							"indexed": false,
							"internalType": "uint256",
							"name": "serviceNumber",
							"type": "uint256"
						},
						{
							"indexed": false,
							"internalType": "uint256",
							"name": "milestoneNumber",
							"type": "uint256"
						},
						{
							"indexed": false,
							"internalType": "uint8",
							"name": "result",
							"type": "uint8"
						}
					],
					"name": "conflictResult",
					"type": "event"
				},
				{
					"anonymous": false,
					"inputs": [
						{
							"indexed": false,
							"internalType": "uint256",
							"name": "projectNumber",
							"type": "uint256"
						},
						{
							"indexed": false,
							"internalType": "uint256",
							"name": "serviceNumber",
							"type": "uint256"
						},
						{
							"indexed": false,
							"internalType": "uint256",
							"name": "milestoneNumber",
							"type": "uint256"
						},
						{
							"indexed": false,
							"internalType": "address",
							"name": "voter",
							"type": "address"
						},
						{
							"indexed": false,
							"internalType": "uint8",
							"name": "vote",
							"type": "uint8"
						}
					],
					"name": "conflictVoted",
					"type": "event"
				},
				{
					"inputs": [
						{
							"internalType": "uint256",
							"name": "projectNumber",
							"type": "uint256"
						},
						{
							"internalType": "uint256",
							"name": "serviceNumber",
							"type": "uint256"
						},
						{
							"internalType": "uint256",
							"name": "milestoneNumber",
							"type": "uint256"
						},
						{
							"internalType": "string",
							"name": "title",
							"type": "string"
						},
						{
							"internalType": "string",
							"name": "description",
							"type": "string"
						},
						{
							"internalType": "address",
							"name": "serviceRequester",
							"type": "address"
						},
						{
							"internalType": "address",
							"name": "serviceProvider",
							"type": "address"
						},
						{
							"internalType": "uint256",
							"name": "totalVoters",
							"type": "uint256"
						}
					],
					"name": "createConflict",
					"outputs": [],
					"stateMutability": "nonpayable",
					"type": "function"
				},
				{
					"inputs": [
						{
							"internalType": "uint256",
							"name": "projectNumber",
							"type": "uint256"
						},
						{
							"internalType": "uint256",
							"name": "serviceNumber",
							"type": "uint256"
						},
						{
							"internalType": "uint256",
							"name": "milestoneNumber",
							"type": "uint256"
						}
					],
					"name": "deleteConflict",
					"outputs": [],
					"stateMutability": "nonpayable",
					"type": "function"
				},
				{
					"inputs": [
						{
							"internalType": "uint256",
							"name": "projectNumber",
							"type": "uint256"
						},
						{
							"internalType": "uint256",
							"name": "serviceNumber",
							"type": "uint256"
						},
						{
							"internalType": "uint256",
							"name": "milestoneNumber",
							"type": "uint256"
						}
					],
					"name": "getConflictStatus",
					"outputs": [
						{
							"internalType": "enum Conflict.ConflictStatus",
							"name": "",
							"type": "uint8"
						}
					],
					"stateMutability": "view",
					"type": "function"
				},
				{
					"inputs": [
						{
							"internalType": "uint256",
							"name": "projectNumber",
							"type": "uint256"
						},
						{
							"internalType": "uint256",
							"name": "serviceNumber",
							"type": "uint256"
						},
						{
							"internalType": "uint256",
							"name": "milestoneNumber",
							"type": "uint256"
						}
					],
					"name": "getResults",
					"outputs": [
						{
							"internalType": "uint256",
							"name": "",
							"type": "uint256"
						}
					],
					"stateMutability": "view",
					"type": "function"
				},
				{
					"inputs": [
						{
							"internalType": "uint256",
							"name": "projectNumber",
							"type": "uint256"
						},
						{
							"internalType": "uint256",
							"name": "serviceNumber",
							"type": "uint256"
						},
						{
							"internalType": "uint256",
							"name": "milestoneNumber",
							"type": "uint256"
						}
					],
					"name": "getVotesCollected",
					"outputs": [
						{
							"internalType": "uint256",
							"name": "",
							"type": "uint256"
						}
					],
					"stateMutability": "view",
					"type": "function"
				},
				{
					"inputs": [
						{
							"internalType": "uint256",
							"name": "projectNumber",
							"type": "uint256"
						},
						{
							"internalType": "uint256",
							"name": "serviceNumber",
							"type": "uint256"
						},
						{
							"internalType": "uint256",
							"name": "milestoneNumber",
							"type": "uint256"
						}
					],
					"name": "getVotesforProvider",
					"outputs": [
						{
							"internalType": "uint256",
							"name": "",
							"type": "uint256"
						}
					],
					"stateMutability": "view",
					"type": "function"
				},
				{
					"inputs": [
						{
							"internalType": "uint256",
							"name": "projectNumber",
							"type": "uint256"
						},
						{
							"internalType": "uint256",
							"name": "serviceNumber",
							"type": "uint256"
						},
						{
							"internalType": "uint256",
							"name": "milestoneNumber",
							"type": "uint256"
						}
					],
					"name": "getVotesforRequester",
					"outputs": [
						{
							"internalType": "uint256",
							"name": "",
							"type": "uint256"
						}
					],
					"stateMutability": "view",
					"type": "function"
				},
				{
					"inputs": [
						{
							"internalType": "uint256",
							"name": "projectNumber",
							"type": "uint256"
						},
						{
							"internalType": "uint256",
							"name": "serviceNumber",
							"type": "uint256"
						},
						{
							"internalType": "uint256",
							"name": "milestoneNumber",
							"type": "uint256"
						}
					],
					"name": "readConflictStatus",
					"outputs": [
						{
							"internalType": "enum Conflict.ConflictStatus",
							"name": "",
							"type": "uint8"
						}
					],
					"stateMutability": "view",
					"type": "function"
				},
				{
					"inputs": [
						{
							"internalType": "uint256",
							"name": "projectNumber",
							"type": "uint256"
						},
						{
							"internalType": "uint256",
							"name": "serviceNumber",
							"type": "uint256"
						},
						{
							"internalType": "uint256",
							"name": "milestoneNumber",
							"type": "uint256"
						},
						{
							"internalType": "string",
							"name": "title",
							"type": "string"
						},
						{
							"internalType": "string",
							"name": "description",
							"type": "string"
						}
					],
					"name": "updateConflict",
					"outputs": [],
					"stateMutability": "nonpayable",
					"type": "function"
				},
				{
					"inputs": [
						{
							"internalType": "uint256",
							"name": "projectNumber",
							"type": "uint256"
						},
						{
							"internalType": "uint256",
							"name": "serviceNumber",
							"type": "uint256"
						},
						{
							"internalType": "uint256",
							"name": "milestoneNumber",
							"type": "uint256"
						},
						{
							"internalType": "address",
							"name": "sender",
							"type": "address"
						},
						{
							"internalType": "uint8",
							"name": "vote",
							"type": "uint8"
						}
					],
					"name": "voteConflict",
					"outputs": [],
					"stateMutability": "nonpayable",
					"type": "function"
				}
			],
			"devdoc": {
				"kind": "dev",
				"methods": {},
				"version": 1
			},
			"evm": {
				"assembly": "    /* \"contracts/Conflict.sol\":196:6946  contract Conflict {... */\n  mstore(0x40, 0x80)\n  callvalue\n  dup1\n  iszero\n  tag_1\n  jumpi\n  0x00\n  dup1\n  revert\ntag_1:\n  pop\n  dataSize(sub_0)\n  dup1\n  dataOffset(sub_0)\n  0x00\n  codecopy\n  0x00\n  return\nstop\n\nsub_0: assembly {\n        /* \"contracts/Conflict.sol\":196:6946  contract Conflict {... */\n      mstore(0x40, 0x80)\n      callvalue\n      dup1\n      iszero\n      tag_1\n      jumpi\n      0x00\n      dup1\n      revert\n    tag_1:\n      pop\n      jumpi(tag_2, lt(calldatasize, 0x04))\n      shr(0xe0, calldataload(0x00))\n      dup1\n      0xc559b16b\n      gt\n      tag_13\n      jumpi\n      dup1\n      0xc559b16b\n      eq\n      tag_8\n      jumpi\n      dup1\n      0xcb4389ce\n      eq\n      tag_9\n      jumpi\n      dup1\n      0xd1e992a7\n      eq\n      tag_10\n      jumpi\n      dup1\n      0xe3d87718\n      eq\n      tag_11\n      jumpi\n      dup1\n      0xe62fac27\n      eq\n      tag_12\n      jumpi\n      jump(tag_2)\n    tag_13:\n      dup1\n      0x3f489f\n      eq\n      tag_3\n      jumpi\n      dup1\n      0x0366cef2\n      eq\n      tag_4\n      jumpi\n      dup1\n      0x3c45fe31\n      eq\n      tag_5\n      jumpi\n      dup1\n      0x9ac78879\n      eq\n      tag_6\n      jumpi\n      dup1\n      0xc171bdf7\n      eq\n      tag_7\n      jumpi\n    tag_2:\n      0x00\n      dup1\n      revert\n        /* \"contracts/Conflict.sol\":3518:3717  function deleteConflict(uint256 projectNumber, uint256 serviceNumber, uint256 milestoneNumber) external {... */\n    tag_3:\n      tag_14\n      0x04\n      dup1\n      calldatasize\n      sub\n      dup2\n      add\n      swap1\n      tag_15\n      swap2\n      swap1\n      tag_16\n      jump\t// in\n    tag_15:\n      tag_17\n      jump\t// in\n    tag_14:\n      stop\n        /* \"contracts/Conflict.sol\":5392:6016  function getResults(uint256 projectNumber, uint256 serviceNumber, uint256 milestoneNumber) public view returns (uint) {... */\n    tag_4:\n      tag_18\n      0x04\n      dup1\n      calldatasize\n      sub\n      dup2\n      add\n      swap1\n      tag_19\n      swap2\n      swap1\n      tag_16\n      jump\t// in\n    tag_19:\n      tag_20\n      jump\t// in\n    tag_18:\n      mload(0x40)\n      tag_21\n      swap2\n      swap1\n      tag_22\n      jump\t// in\n    tag_21:\n      mload(0x40)\n      dup1\n      swap2\n      sub\n      swap1\n      return\n        /* \"contracts/Conflict.sol\":6258:6481  function getVotesCollected(uint256 projectNumber, uint256 serviceNumber, uint256 milestoneNumber) public view returns (uint256) {... */\n    tag_5:\n      tag_23\n      0x04\n      dup1\n      calldatasize\n      sub\n      dup2\n      add\n      swap1\n      tag_24\n      swap2\n      swap1\n      tag_16\n      jump\t// in\n    tag_24:\n      tag_25\n      jump\t// in\n    tag_23:\n      mload(0x40)\n      tag_26\n      swap2\n      swap1\n      tag_22\n      jump\t// in\n    tag_26:\n      mload(0x40)\n      dup1\n      swap2\n      sub\n      swap1\n      return\n        /* \"contracts/Conflict.sol\":6719:6943  function getVotesforProvider(uint256 projectNumber, uint256 serviceNumber, uint256 milestoneNumber) public view returns (uint256) {... */\n    tag_6:\n      tag_27\n      0x04\n      dup1\n      calldatasize\n      sub\n      dup2\n      add\n      swap1\n      tag_28\n      swap2\n      swap1\n      tag_16\n      jump\t// in\n    tag_28:\n      tag_29\n      jump\t// in\n    tag_27:\n      mload(0x40)\n      tag_30\n      swap2\n      swap1\n      tag_22\n      jump\t// in\n    tag_30:\n      mload(0x40)\n      dup1\n      swap2\n      sub\n      swap1\n      return\n        /* \"contracts/Conflict.sol\":3724:5354  function voteConflict(uint256 projectNumber, uint256 serviceNumber, uint256 milestoneNumber, address sender, uint8 vote) public {... */\n    tag_7:\n      tag_31\n      0x04\n      dup1\n      calldatasize\n      sub\n      dup2\n      add\n      swap1\n      tag_32\n      swap2\n      swap1\n      tag_33\n      jump\t// in\n    tag_32:\n      tag_34\n      jump\t// in\n    tag_31:\n      stop\n        /* \"contracts/Conflict.sol\":2850:3085  function readConflictStatus(uint256 projectNumber, uint256 serviceNumber, uint256 milestoneNumber) external view returns (ConflictStatus) {... */\n    tag_8:\n      tag_35\n      0x04\n      dup1\n      calldatasize\n      sub\n      dup2\n      add\n      swap1\n      tag_36\n      swap2\n      swap1\n      tag_16\n      jump\t// in\n    tag_36:\n      tag_37\n      jump\t// in\n    tag_35:\n      mload(0x40)\n      tag_38\n      swap2\n      swap1\n      tag_39\n      jump\t// in\n    tag_38:\n      mload(0x40)\n      dup1\n      swap2\n      sub\n      swap1\n      return\n        /* \"contracts/Conflict.sol\":6022:6252  function getConflictStatus(uint256 projectNumber, uint256 serviceNumber, uint256 milestoneNumber) public view returns (ConflictStatus) {... */\n    tag_9:\n      tag_40\n      0x04\n      dup1\n      calldatasize\n      sub\n      dup2\n      add\n      swap1\n      tag_41\n      swap2\n      swap1\n      tag_16\n      jump\t// in\n    tag_41:\n      tag_42\n      jump\t// in\n    tag_40:\n      mload(0x40)\n      tag_43\n      swap2\n      swap1\n      tag_39\n      jump\t// in\n    tag_43:\n      mload(0x40)\n      dup1\n      swap2\n      sub\n      swap1\n      return\n        /* \"contracts/Conflict.sol\":3131:3471  function updateConflict(uint256 projectNumber, uint256 serviceNumber, uint256 milestoneNumber, string memory title, string memory description) external {... */\n    tag_10:\n      tag_44\n      0x04\n      dup1\n      calldatasize\n      sub\n      dup2\n      add\n      swap1\n      tag_45\n      swap2\n      swap1\n      tag_46\n      jump\t// in\n    tag_45:\n      tag_47\n      jump\t// in\n    tag_44:\n      stop\n        /* \"contracts/Conflict.sol\":6487:6713  function getVotesforRequester(uint256 projectNumber, uint256 serviceNumber, uint256 milestoneNumber) public view returns (uint256) {... */\n    tag_11:\n      tag_48\n      0x04\n      dup1\n      calldatasize\n      sub\n      dup2\n      add\n      swap1\n      tag_49\n      swap2\n      swap1\n      tag_16\n      jump\t// in\n    tag_49:\n      tag_50\n      jump\t// in\n    tag_48:\n      mload(0x40)\n      tag_51\n      swap2\n      swap1\n      tag_22\n      jump\t// in\n    tag_51:\n      mload(0x40)\n      dup1\n      swap2\n      sub\n      swap1\n      return\n        /* \"contracts/Conflict.sol\":1499:2805  function createConflict(uint256 projectNumber, uint256 serviceNumber, uint256 milestoneNumber, string memory title, string memory description, address serviceRequester, address serviceProvider,  uint256 totalVoters) public {... */\n    tag_12:\n      tag_52\n      0x04\n      dup1\n      calldatasize\n      sub\n      dup2\n      add\n      swap1\n      tag_53\n      swap2\n      swap1\n      tag_54\n      jump\t// in\n    tag_53:\n      tag_55\n      jump\t// in\n    tag_52:\n      stop\n        /* \"contracts/Conflict.sol\":3518:3717  function deleteConflict(uint256 projectNumber, uint256 serviceNumber, uint256 milestoneNumber) external {... */\n    tag_17:\n        /* \"contracts/Conflict.sol\":3697:3702  false */\n      0x00\n        /* \"contracts/Conflict.sol\":3632:3641  conflicts */\n      dup1\n        /* \"contracts/Conflict.sol\":3632:3656  conflicts[projectNumber] */\n      0x00\n        /* \"contracts/Conflict.sol\":3642:3655  projectNumber */\n      dup6\n        /* \"contracts/Conflict.sol\":3632:3656  conflicts[projectNumber] */\n      dup2\n      mstore\n      0x20\n      add\n      swap1\n      dup2\n      mstore\n      0x20\n      add\n      0x00\n      keccak256\n        /* \"contracts/Conflict.sol\":3632:3671  conflicts[projectNumber][serviceNumber] */\n      0x00\n        /* \"contracts/Conflict.sol\":3657:3670  serviceNumber */\n      dup5\n        /* \"contracts/Conflict.sol\":3632:3671  conflicts[projectNumber][serviceNumber] */\n      dup2\n      mstore\n      0x20\n      add\n      swap1\n      dup2\n      mstore\n      0x20\n      add\n      0x00\n      keccak256\n        /* \"contracts/Conflict.sol\":3632:3688  conflicts[projectNumber][serviceNumber][milestoneNumber] */\n      0x00\n        /* \"contracts/Conflict.sol\":3672:3687  milestoneNumber */\n      dup4\n        /* \"contracts/Conflict.sol\":3632:3688  conflicts[projectNumber][serviceNumber][milestoneNumber] */\n      dup2\n      mstore\n      0x20\n      add\n      swap1\n      dup2\n      mstore\n      0x20\n      add\n      0x00\n      keccak256\n        /* \"contracts/Conflict.sol\":3632:3694  conflicts[projectNumber][serviceNumber][milestoneNumber].exist */\n      0x0b\n      add\n      0x00\n        /* \"contracts/Conflict.sol\":3632:3702  conflicts[projectNumber][serviceNumber][milestoneNumber].exist = false */\n      0x0100\n      exp\n      dup2\n      sload\n      dup2\n      0xff\n      mul\n      not\n      and\n      swap1\n      dup4\n      iszero\n      iszero\n      mul\n      or\n      swap1\n      sstore\n      pop\n        /* \"contracts/Conflict.sol\":3518:3717  function deleteConflict(uint256 projectNumber, uint256 serviceNumber, uint256 milestoneNumber) external {... */\n      pop\n      pop\n      pop\n      jump\t// out\n        /* \"contracts/Conflict.sol\":5392:6016  function getResults(uint256 projectNumber, uint256 serviceNumber, uint256 milestoneNumber) public view returns (uint) {... */\n    tag_20:\n        /* \"contracts/Conflict.sol\":5504:5508  uint */\n      0x00\n        /* \"contracts/Conflict.sol\":5603:5612  conflicts */\n      dup1\n        /* \"contracts/Conflict.sol\":5603:5627  conflicts[projectNumber] */\n      0x00\n        /* \"contracts/Conflict.sol\":5613:5626  projectNumber */\n      dup6\n        /* \"contracts/Conflict.sol\":5603:5627  conflicts[projectNumber] */\n      dup2\n      mstore\n      0x20\n      add\n      swap1\n      dup2\n      mstore\n      0x20\n      add\n      0x00\n      keccak256\n        /* \"contracts/Conflict.sol\":5603:5642  conflicts[projectNumber][serviceNumber] */\n      0x00\n        /* \"contracts/Conflict.sol\":5628:5641  serviceNumber */\n      dup5\n        /* \"contracts/Conflict.sol\":5603:5642  conflicts[projectNumber][serviceNumber] */\n      dup2\n      mstore\n      0x20\n      add\n      swap1\n      dup2\n      mstore\n      0x20\n      add\n      0x00\n      keccak256\n        /* \"contracts/Conflict.sol\":5603:5659  conflicts[projectNumber][serviceNumber][milestoneNumber] */\n      0x00\n        /* \"contracts/Conflict.sol\":5643:5658  milestoneNumber */\n      dup4\n        /* \"contracts/Conflict.sol\":5603:5659  conflicts[projectNumber][serviceNumber][milestoneNumber] */\n      dup2\n      mstore\n      0x20\n      add\n      swap1\n      dup2\n      mstore\n      0x20\n      add\n      0x00\n      keccak256\n        /* \"contracts/Conflict.sol\":5603:5666  conflicts[projectNumber][serviceNumber][milestoneNumber].voters */\n      0x07\n      add\n      sload\n        /* \"contracts/Conflict.sol\":5528:5537  conflicts */\n      0x00\n        /* \"contracts/Conflict.sol\":5528:5552  conflicts[projectNumber] */\n      dup1\n        /* \"contracts/Conflict.sol\":5538:5551  projectNumber */\n      dup7\n        /* \"contracts/Conflict.sol\":5528:5552  conflicts[projectNumber] */\n      dup2\n      mstore\n      0x20\n      add\n      swap1\n      dup2\n      mstore\n      0x20\n      add\n      0x00\n      keccak256\n        /* \"contracts/Conflict.sol\":5528:5567  conflicts[projectNumber][serviceNumber] */\n      0x00\n        /* \"contracts/Conflict.sol\":5553:5566  serviceNumber */\n      dup6\n        /* \"contracts/Conflict.sol\":5528:5567  conflicts[projectNumber][serviceNumber] */\n      dup2\n      mstore\n      0x20\n      add\n      swap1\n      dup2\n      mstore\n      0x20\n      add\n      0x00\n      keccak256\n        /* \"contracts/Conflict.sol\":5528:5584  conflicts[projectNumber][serviceNumber][milestoneNumber] */\n      0x00\n        /* \"contracts/Conflict.sol\":5568:5583  milestoneNumber */\n      dup5\n        /* \"contracts/Conflict.sol\":5528:5584  conflicts[projectNumber][serviceNumber][milestoneNumber] */\n      dup2\n      mstore\n      0x20\n      add\n      swap1\n      dup2\n      mstore\n      0x20\n      add\n      0x00\n      keccak256\n        /* \"contracts/Conflict.sol\":5528:5599  conflicts[projectNumber][serviceNumber][milestoneNumber].votesCollected */\n      0x08\n      add\n      sload\n        /* \"contracts/Conflict.sol\":5528:5666  conflicts[projectNumber][serviceNumber][milestoneNumber].votesCollected == conflicts[projectNumber][serviceNumber][milestoneNumber].voters */\n      eq\n        /* \"contracts/Conflict.sol\":5520:5745  require(conflicts[projectNumber][serviceNumber][milestoneNumber].votesCollected == conflicts[projectNumber][serviceNumber][milestoneNumber].voters, \"Not everyone has voted, please prompt all other members of project to vote\") */\n      tag_58\n      jumpi\n      mload(0x40)\n      0x08c379a000000000000000000000000000000000000000000000000000000000\n      dup2\n      mstore\n      0x04\n      add\n      tag_59\n      swap1\n      tag_60\n      jump\t// in\n    tag_59:\n      mload(0x40)\n      dup1\n      swap2\n      sub\n      swap1\n      revert\n    tag_58:\n        /* \"contracts/Conflict.sol\":5838:5862  ConflictStatus.completed */\n      0x02\n        /* \"contracts/Conflict.sol\":5763:5862  conflicts[projectNumber][serviceNumber][milestoneNumber].conflictstatus == ConflictStatus.completed */\n      dup1\n      dup2\n      gt\n      iszero\n      tag_61\n      jumpi\n      tag_62\n      tag_63\n      jump\t// in\n    tag_62:\n    tag_61:\n        /* \"contracts/Conflict.sol\":5763:5772  conflicts */\n      0x00\n        /* \"contracts/Conflict.sol\":5763:5787  conflicts[projectNumber] */\n      dup1\n        /* \"contracts/Conflict.sol\":5773:5786  projectNumber */\n      dup7\n        /* \"contracts/Conflict.sol\":5763:5787  conflicts[projectNumber] */\n      dup2\n      mstore\n      0x20\n      add\n      swap1\n      dup2\n      mstore\n      0x20\n      add\n      0x00\n      keccak256\n        /* \"contracts/Conflict.sol\":5763:5802  conflicts[projectNumber][serviceNumber] */\n      0x00\n        /* \"contracts/Conflict.sol\":5788:5801  serviceNumber */\n      dup6\n        /* \"contracts/Conflict.sol\":5763:5802  conflicts[projectNumber][serviceNumber] */\n      dup2\n      mstore\n      0x20\n      add\n      swap1\n      dup2\n      mstore\n      0x20\n      add\n      0x00\n      keccak256\n        /* \"contracts/Conflict.sol\":5763:5819  conflicts[projectNumber][serviceNumber][milestoneNumber] */\n      0x00\n        /* \"contracts/Conflict.sol\":5803:5818  milestoneNumber */\n      dup5\n        /* \"contracts/Conflict.sol\":5763:5819  conflicts[projectNumber][serviceNumber][milestoneNumber] */\n      dup2\n      mstore\n      0x20\n      add\n      swap1\n      dup2\n      mstore\n      0x20\n      add\n      0x00\n      keccak256\n        /* \"contracts/Conflict.sol\":5763:5834  conflicts[projectNumber][serviceNumber][milestoneNumber].conflictstatus */\n      0x06\n      add\n      0x14\n      swap1\n      sload\n      swap1\n      0x0100\n      exp\n      swap1\n      div\n      0xff\n      and\n        /* \"contracts/Conflict.sol\":5763:5862  conflicts[projectNumber][serviceNumber][milestoneNumber].conflictstatus == ConflictStatus.completed */\n      0x02\n      dup2\n      gt\n      iszero\n      tag_64\n      jumpi\n      tag_65\n      tag_63\n      jump\t// in\n    tag_65:\n    tag_64:\n      eq\n        /* \"contracts/Conflict.sol\":5755:5928  require(conflicts[projectNumber][serviceNumber][milestoneNumber].conflictstatus == ConflictStatus.completed, \"Voting has not been completed yet. Please wait for it to end.\") */\n      tag_66\n      jumpi\n      mload(0x40)\n      0x08c379a000000000000000000000000000000000000000000000000000000000\n      dup2\n      mstore\n      0x04\n      add\n      tag_67\n      swap1\n      tag_68\n      jump\t// in\n    tag_67:\n      mload(0x40)\n      dup1\n      swap2\n      sub\n      swap1\n      revert\n    tag_66:\n        /* \"contracts/Conflict.sol\":5946:5955  conflicts */\n      0x00\n        /* \"contracts/Conflict.sol\":5946:5970  conflicts[projectNumber] */\n      dup1\n        /* \"contracts/Conflict.sol\":5956:5969  projectNumber */\n      dup6\n        /* \"contracts/Conflict.sol\":5946:5970  conflicts[projectNumber] */\n      dup2\n      mstore\n      0x20\n      add\n      swap1\n      dup2\n      mstore\n      0x20\n      add\n      0x00\n      keccak256\n        /* \"contracts/Conflict.sol\":5946:5985  conflicts[projectNumber][serviceNumber] */\n      0x00\n        /* \"contracts/Conflict.sol\":5971:5984  serviceNumber */\n      dup5\n        /* \"contracts/Conflict.sol\":5946:5985  conflicts[projectNumber][serviceNumber] */\n      dup2\n      mstore\n      0x20\n      add\n      swap1\n      dup2\n      mstore\n      0x20\n      add\n      0x00\n      keccak256\n        /* \"contracts/Conflict.sol\":5946:6002  conflicts[projectNumber][serviceNumber][milestoneNumber] */\n      0x00\n        /* \"contracts/Conflict.sol\":5986:6001  milestoneNumber */\n      dup4\n        /* \"contracts/Conflict.sol\":5946:6002  conflicts[projectNumber][serviceNumber][milestoneNumber] */\n      dup2\n      mstore\n      0x20\n      add\n      swap1\n      dup2\n      mstore\n      0x20\n      add\n      0x00\n      keccak256\n        /* \"contracts/Conflict.sol\":5946:6009  conflicts[projectNumber][serviceNumber][milestoneNumber].result */\n      0x0b\n      add\n      0x01\n      swap1\n      sload\n      swap1\n      0x0100\n      exp\n      swap1\n      div\n      0xff\n      and\n        /* \"contracts/Conflict.sol\":5939:6009  return conflicts[projectNumber][serviceNumber][milestoneNumber].result */\n      0xff\n      and\n      swap1\n      pop\n        /* \"contracts/Conflict.sol\":5392:6016  function getResults(uint256 projectNumber, uint256 serviceNumber, uint256 milestoneNumber) public view returns (uint) {... */\n      swap4\n      swap3\n      pop\n      pop\n      pop\n      jump\t// out\n        /* \"contracts/Conflict.sol\":6258:6481  function getVotesCollected(uint256 projectNumber, uint256 serviceNumber, uint256 milestoneNumber) public view returns (uint256) {... */\n    tag_25:\n        /* \"contracts/Conflict.sol\":6377:6384  uint256 */\n      0x00\n        /* \"contracts/Conflict.sol\":6403:6412  conflicts */\n      dup1\n        /* \"contracts/Conflict.sol\":6403:6427  conflicts[projectNumber] */\n      0x00\n        /* \"contracts/Conflict.sol\":6413:6426  projectNumber */\n      dup6\n        /* \"contracts/Conflict.sol\":6403:6427  conflicts[projectNumber] */\n      dup2\n      mstore\n      0x20\n      add\n      swap1\n      dup2\n      mstore\n      0x20\n      add\n      0x00\n      keccak256\n        /* \"contracts/Conflict.sol\":6403:6442  conflicts[projectNumber][serviceNumber] */\n      0x00\n        /* \"contracts/Conflict.sol\":6428:6441  serviceNumber */\n      dup5\n        /* \"contracts/Conflict.sol\":6403:6442  conflicts[projectNumber][serviceNumber] */\n      dup2\n      mstore\n      0x20\n      add\n      swap1\n      dup2\n      mstore\n      0x20\n      add\n      0x00\n      keccak256\n        /* \"contracts/Conflict.sol\":6403:6459  conflicts[projectNumber][serviceNumber][milestoneNumber] */\n      0x00\n        /* \"contracts/Conflict.sol\":6443:6458  milestoneNumber */\n      dup4\n        /* \"contracts/Conflict.sol\":6403:6459  conflicts[projectNumber][serviceNumber][milestoneNumber] */\n      dup2\n      mstore\n      0x20\n      add\n      swap1\n      dup2\n      mstore\n      0x20\n      add\n      0x00\n      keccak256\n        /* \"contracts/Conflict.sol\":6403:6474  conflicts[projectNumber][serviceNumber][milestoneNumber].votesCollected */\n      0x08\n      add\n      sload\n        /* \"contracts/Conflict.sol\":6396:6474  return conflicts[projectNumber][serviceNumber][milestoneNumber].votesCollected */\n      swap1\n      pop\n        /* \"contracts/Conflict.sol\":6258:6481  function getVotesCollected(uint256 projectNumber, uint256 serviceNumber, uint256 milestoneNumber) public view returns (uint256) {... */\n      swap4\n      swap3\n      pop\n      pop\n      pop\n      jump\t// out\n        /* \"contracts/Conflict.sol\":6719:6943  function getVotesforProvider(uint256 projectNumber, uint256 serviceNumber, uint256 milestoneNumber) public view returns (uint256) {... */\n    tag_29:\n        /* \"contracts/Conflict.sol\":6840:6847  uint256 */\n      0x00\n        /* \"contracts/Conflict.sol\":6866:6875  conflicts */\n      dup1\n        /* \"contracts/Conflict.sol\":6866:6890  conflicts[projectNumber] */\n      0x00\n        /* \"contracts/Conflict.sol\":6876:6889  projectNumber */\n      dup6\n        /* \"contracts/Conflict.sol\":6866:6890  conflicts[projectNumber] */\n      dup2\n      mstore\n      0x20\n      add\n      swap1\n      dup2\n      mstore\n      0x20\n      add\n      0x00\n      keccak256\n        /* \"contracts/Conflict.sol\":6866:6905  conflicts[projectNumber][serviceNumber] */\n      0x00\n        /* \"contracts/Conflict.sol\":6891:6904  serviceNumber */\n      dup5\n        /* \"contracts/Conflict.sol\":6866:6905  conflicts[projectNumber][serviceNumber] */\n      dup2\n      mstore\n      0x20\n      add\n      swap1\n      dup2\n      mstore\n      0x20\n      add\n      0x00\n      keccak256\n        /* \"contracts/Conflict.sol\":6866:6922  conflicts[projectNumber][serviceNumber][milestoneNumber] */\n      0x00\n        /* \"contracts/Conflict.sol\":6906:6921  milestoneNumber */\n      dup4\n        /* \"contracts/Conflict.sol\":6866:6922  conflicts[projectNumber][serviceNumber][milestoneNumber] */\n      dup2\n      mstore\n      0x20\n      add\n      swap1\n      dup2\n      mstore\n      0x20\n      add\n      0x00\n      keccak256\n        /* \"contracts/Conflict.sol\":6866:6936  conflicts[projectNumber][serviceNumber][milestoneNumber].providerVotes */\n      0x0a\n      add\n      sload\n        /* \"contracts/Conflict.sol\":6859:6936  return conflicts[projectNumber][serviceNumber][milestoneNumber].providerVotes */\n      swap1\n      pop\n        /* \"contracts/Conflict.sol\":6719:6943  function getVotesforProvider(uint256 projectNumber, uint256 serviceNumber, uint256 milestoneNumber) public view returns (uint256) {... */\n      swap4\n      swap3\n      pop\n      pop\n      pop\n      jump\t// out\n        /* \"contracts/Conflict.sol\":3724:5354  function voteConflict(uint256 projectNumber, uint256 serviceNumber, uint256 milestoneNumber, address sender, uint8 vote) public {... */\n    tag_34:\n        /* \"contracts/Conflict.sol\":3947:3953  sender */\n      dup2\n        /* \"contracts/Conflict.sol\":3870:3953  conflicts[projectNumber][serviceNumber][milestoneNumber].serviceRequester != sender */\n      0xffffffffffffffffffffffffffffffffffffffff\n      and\n        /* \"contracts/Conflict.sol\":3870:3879  conflicts */\n      0x00\n        /* \"contracts/Conflict.sol\":3870:3894  conflicts[projectNumber] */\n      dup1\n        /* \"contracts/Conflict.sol\":3880:3893  projectNumber */\n      dup8\n        /* \"contracts/Conflict.sol\":3870:3894  conflicts[projectNumber] */\n      dup2\n      mstore\n      0x20\n      add\n      swap1\n      dup2\n      mstore\n      0x20\n      add\n      0x00\n      keccak256\n        /* \"contracts/Conflict.sol\":3870:3909  conflicts[projectNumber][serviceNumber] */\n      0x00\n        /* \"contracts/Conflict.sol\":3895:3908  serviceNumber */\n      dup7\n        /* \"contracts/Conflict.sol\":3870:3909  conflicts[projectNumber][serviceNumber] */\n      dup2\n      mstore\n      0x20\n      add\n      swap1\n      dup2\n      mstore\n      0x20\n      add\n      0x00\n      keccak256\n        /* \"contracts/Conflict.sol\":3870:3926  conflicts[projectNumber][serviceNumber][milestoneNumber] */\n      0x00\n        /* \"contracts/Conflict.sol\":3910:3925  milestoneNumber */\n      dup6\n        /* \"contracts/Conflict.sol\":3870:3926  conflicts[projectNumber][serviceNumber][milestoneNumber] */\n      dup2\n      mstore\n      0x20\n      add\n      swap1\n      dup2\n      mstore\n      0x20\n      add\n      0x00\n      keccak256\n        /* \"contracts/Conflict.sol\":3870:3943  conflicts[projectNumber][serviceNumber][milestoneNumber].serviceRequester */\n      0x05\n      add\n      0x00\n      swap1\n      sload\n      swap1\n      0x0100\n      exp\n      swap1\n      div\n      0xffffffffffffffffffffffffffffffffffffffff\n      and\n        /* \"contracts/Conflict.sol\":3870:3953  conflicts[projectNumber][serviceNumber][milestoneNumber].serviceRequester != sender */\n      0xffffffffffffffffffffffffffffffffffffffff\n      and\n      eq\n      iszero\n        /* \"contracts/Conflict.sol\":3862:4007  require(conflicts[projectNumber][serviceNumber][milestoneNumber].serviceRequester != sender , \"You raised this conflict. You cannot vote on it.\") */\n      tag_72\n      jumpi\n      mload(0x40)\n      0x08c379a000000000000000000000000000000000000000000000000000000000\n      dup2\n      mstore\n      0x04\n      add\n      tag_73\n      swap1\n      tag_74\n      jump\t// in\n    tag_73:\n      mload(0x40)\n      dup1\n      swap2\n      sub\n      swap1\n      revert\n    tag_72:\n        /* \"contracts/Conflict.sol\":4101:4107  sender */\n      dup2\n        /* \"contracts/Conflict.sol\":4025:4107  conflicts[projectNumber][serviceNumber][milestoneNumber].serviceProvider != sender */\n      0xffffffffffffffffffffffffffffffffffffffff\n      and\n        /* \"contracts/Conflict.sol\":4025:4034  conflicts */\n      0x00\n        /* \"contracts/Conflict.sol\":4025:4049  conflicts[projectNumber] */\n      dup1\n        /* \"contracts/Conflict.sol\":4035:4048  projectNumber */\n      dup8\n        /* \"contracts/Conflict.sol\":4025:4049  conflicts[projectNumber] */\n      dup2\n      mstore\n      0x20\n      add\n      swap1\n      dup2\n      mstore\n      0x20\n      add\n      0x00\n      keccak256\n        /* \"contracts/Conflict.sol\":4025:4064  conflicts[projectNumber][serviceNumber] */\n      0x00\n        /* \"contracts/Conflict.sol\":4050:4063  serviceNumber */\n      dup7\n        /* \"contracts/Conflict.sol\":4025:4064  conflicts[projectNumber][serviceNumber] */\n      dup2\n      mstore\n      0x20\n      add\n      swap1\n      dup2\n      mstore\n      0x20\n      add\n      0x00\n      keccak256\n        /* \"contracts/Conflict.sol\":4025:4081  conflicts[projectNumber][serviceNumber][milestoneNumber] */\n      0x00\n        /* \"contracts/Conflict.sol\":4065:4080  milestoneNumber */\n      dup6\n        /* \"contracts/Conflict.sol\":4025:4081  conflicts[projectNumber][serviceNumber][milestoneNumber] */\n      dup2\n      mstore\n      0x20\n      add\n      swap1\n      dup2\n      mstore\n      0x20\n      add\n      0x00\n      keccak256\n        /* \"contracts/Conflict.sol\":4025:4097  conflicts[projectNumber][serviceNumber][milestoneNumber].serviceProvider */\n      0x06\n      add\n      0x00\n      swap1\n      sload\n      swap1\n      0x0100\n      exp\n      swap1\n      div\n      0xffffffffffffffffffffffffffffffffffffffff\n      and\n        /* \"contracts/Conflict.sol\":4025:4107  conflicts[projectNumber][serviceNumber][milestoneNumber].serviceProvider != sender */\n      0xffffffffffffffffffffffffffffffffffffffff\n      and\n      eq\n      iszero\n        /* \"contracts/Conflict.sol\":4017:4169  require(conflicts[projectNumber][serviceNumber][milestoneNumber].serviceProvider != sender, \"You are involved in this conflict. You cannot vote on it.\") */\n      tag_75\n      jumpi\n      mload(0x40)\n      0x08c379a000000000000000000000000000000000000000000000000000000000\n      dup2\n      mstore\n      0x04\n      add\n      tag_76\n      swap1\n      tag_77\n      jump\t// in\n    tag_76:\n      mload(0x40)\n      dup1\n      swap2\n      sub\n      swap1\n      revert\n    tag_75:\n        /* \"contracts/Conflict.sol\":4270:4279  conflicts */\n      0x00\n        /* \"contracts/Conflict.sol\":4270:4294  conflicts[projectNumber] */\n      dup1\n        /* \"contracts/Conflict.sol\":4280:4293  projectNumber */\n      dup7\n        /* \"contracts/Conflict.sol\":4270:4294  conflicts[projectNumber] */\n      dup2\n      mstore\n      0x20\n      add\n      swap1\n      dup2\n      mstore\n      0x20\n      add\n      0x00\n      keccak256\n        /* \"contracts/Conflict.sol\":4270:4309  conflicts[projectNumber][serviceNumber] */\n      0x00\n        /* \"contracts/Conflict.sol\":4295:4308  serviceNumber */\n      dup6\n        /* \"contracts/Conflict.sol\":4270:4309  conflicts[projectNumber][serviceNumber] */\n      dup2\n      mstore\n      0x20\n      add\n      swap1\n      dup2\n      mstore\n      0x20\n      add\n      0x00\n      keccak256\n        /* \"contracts/Conflict.sol\":4270:4326  conflicts[projectNumber][serviceNumber][milestoneNumber] */\n      0x00\n        /* \"contracts/Conflict.sol\":4310:4325  milestoneNumber */\n      dup5\n        /* \"contracts/Conflict.sol\":4270:4326  conflicts[projectNumber][serviceNumber][milestoneNumber] */\n      dup2\n      mstore\n      0x20\n      add\n      swap1\n      dup2\n      mstore\n      0x20\n      add\n      0x00\n      keccak256\n        /* \"contracts/Conflict.sol\":4270:4333  conflicts[projectNumber][serviceNumber][milestoneNumber].voters */\n      0x07\n      add\n      sload\n        /* \"contracts/Conflict.sol\":4196:4205  conflicts */\n      0x00\n        /* \"contracts/Conflict.sol\":4196:4220  conflicts[projectNumber] */\n      dup1\n        /* \"contracts/Conflict.sol\":4206:4219  projectNumber */\n      dup8\n        /* \"contracts/Conflict.sol\":4196:4220  conflicts[projectNumber] */\n      dup2\n      mstore\n      0x20\n      add\n      swap1\n      dup2\n      mstore\n      0x20\n      add\n      0x00\n      keccak256\n        /* \"contracts/Conflict.sol\":4196:4235  conflicts[projectNumber][serviceNumber] */\n      0x00\n        /* \"contracts/Conflict.sol\":4221:4234  serviceNumber */\n      dup7\n        /* \"contracts/Conflict.sol\":4196:4235  conflicts[projectNumber][serviceNumber] */\n      dup2\n      mstore\n      0x20\n      add\n      swap1\n      dup2\n      mstore\n      0x20\n      add\n      0x00\n      keccak256\n        /* \"contracts/Conflict.sol\":4196:4252  conflicts[projectNumber][serviceNumber][milestoneNumber] */\n      0x00\n        /* \"contracts/Conflict.sol\":4236:4251  milestoneNumber */\n      dup6\n        /* \"contracts/Conflict.sol\":4196:4252  conflicts[projectNumber][serviceNumber][milestoneNumber] */\n      dup2\n      mstore\n      0x20\n      add\n      swap1\n      dup2\n      mstore\n      0x20\n      add\n      0x00\n      keccak256\n        /* \"contracts/Conflict.sol\":4196:4267  conflicts[projectNumber][serviceNumber][milestoneNumber].votesCollected */\n      0x08\n      add\n      sload\n        /* \"contracts/Conflict.sol\":4196:4333  conflicts[projectNumber][serviceNumber][milestoneNumber].votesCollected < conflicts[projectNumber][serviceNumber][milestoneNumber].voters */\n      lt\n        /* \"contracts/Conflict.sol\":4188:4370  require(conflicts[projectNumber][serviceNumber][milestoneNumber].votesCollected < conflicts[projectNumber][serviceNumber][milestoneNumber].voters, \"Enough votes have been collected\") */\n      tag_78\n      jumpi\n      mload(0x40)\n      0x08c379a000000000000000000000000000000000000000000000000000000000\n      dup2\n      mstore\n      0x04\n      add\n      tag_79\n      swap1\n      tag_80\n      jump\t// in\n    tag_79:\n      mload(0x40)\n      dup1\n      swap2\n      sub\n      swap1\n      revert\n    tag_78:\n        /* \"contracts/Conflict.sol\":4462:4463  0 */\n      0x00\n        /* \"contracts/Conflict.sol\":4388:4397  conflicts */\n      dup1\n        /* \"contracts/Conflict.sol\":4388:4412  conflicts[projectNumber] */\n      0x00\n        /* \"contracts/Conflict.sol\":4398:4411  projectNumber */\n      dup8\n        /* \"contracts/Conflict.sol\":4388:4412  conflicts[projectNumber] */\n      dup2\n      mstore\n      0x20\n      add\n      swap1\n      dup2\n      mstore\n      0x20\n      add\n      0x00\n      keccak256\n        /* \"contracts/Conflict.sol\":4388:4427  conflicts[projectNumber][serviceNumber] */\n      0x00\n        /* \"contracts/Conflict.sol\":4413:4426  serviceNumber */\n      dup7\n        /* \"contracts/Conflict.sol\":4388:4427  conflicts[projectNumber][serviceNumber] */\n      dup2\n      mstore\n      0x20\n      add\n      swap1\n      dup2\n      mstore\n      0x20\n      add\n      0x00\n      keccak256\n        /* \"contracts/Conflict.sol\":4388:4444  conflicts[projectNumber][serviceNumber][milestoneNumber] */\n      0x00\n        /* \"contracts/Conflict.sol\":4428:4443  milestoneNumber */\n      dup6\n        /* \"contracts/Conflict.sol\":4388:4444  conflicts[projectNumber][serviceNumber][milestoneNumber] */\n      dup2\n      mstore\n      0x20\n      add\n      swap1\n      dup2\n      mstore\n      0x20\n      add\n      0x00\n      keccak256\n        /* \"contracts/Conflict.sol\":4388:4450  conflicts[projectNumber][serviceNumber][milestoneNumber].votes */\n      0x0c\n      add\n        /* \"contracts/Conflict.sol\":4388:4458  conflicts[projectNumber][serviceNumber][milestoneNumber].votes[sender] */\n      0x00\n        /* \"contracts/Conflict.sol\":4451:4457  sender */\n      dup5\n        /* \"contracts/Conflict.sol\":4388:4458  conflicts[projectNumber][serviceNumber][milestoneNumber].votes[sender] */\n      0xffffffffffffffffffffffffffffffffffffffff\n      and\n      0xffffffffffffffffffffffffffffffffffffffff\n      and\n      dup2\n      mstore\n      0x20\n      add\n      swap1\n      dup2\n      mstore\n      0x20\n      add\n      0x00\n      keccak256\n      0x00\n      swap1\n      sload\n      swap1\n      0x0100\n      exp\n      swap1\n      div\n      0xff\n      and\n        /* \"contracts/Conflict.sol\":4388:4463  conflicts[projectNumber][serviceNumber][milestoneNumber].votes[sender] == 0 */\n      0xff\n      and\n      eq\n        /* \"contracts/Conflict.sol\":4380:4514  require(conflicts[projectNumber][serviceNumber][milestoneNumber].votes[sender] == 0 , \"You have already voted, you cannot vote again\") */\n      tag_81\n      jumpi\n      mload(0x40)\n      0x08c379a000000000000000000000000000000000000000000000000000000000\n      dup2\n      mstore\n      0x04\n      add\n      tag_82\n      swap1\n      tag_83\n      jump\t// in\n    tag_82:\n      mload(0x40)\n      dup1\n      swap2\n      sub\n      swap1\n      revert\n    tag_81:\n        /* \"contracts/Conflict.sol\":4540:4541  1 */\n      0x01\n        /* \"contracts/Conflict.sol\":4532:4536  vote */\n      dup2\n        /* \"contracts/Conflict.sol\":4532:4541  vote == 1 */\n      0xff\n      and\n      eq\n        /* \"contracts/Conflict.sol\":4532:4554  vote == 1 || vote == 2 */\n      dup1\n      tag_84\n      jumpi\n      pop\n        /* \"contracts/Conflict.sol\":4553:4554  2 */\n      0x02\n        /* \"contracts/Conflict.sol\":4545:4549  vote */\n      dup2\n        /* \"contracts/Conflict.sol\":4545:4554  vote == 2 */\n      0xff\n      and\n      eq\n        /* \"contracts/Conflict.sol\":4532:4554  vote == 1 || vote == 2 */\n    tag_84:\n        /* \"contracts/Conflict.sol\":4524:4646  require(vote == 1 || vote == 2, \"You have not input a right vote. You can either vote 1 for Requester or 2 for Provider.\") */\n      tag_85\n      jumpi\n      mload(0x40)\n      0x08c379a000000000000000000000000000000000000000000000000000000000\n      dup2\n      mstore\n      0x04\n      add\n      tag_86\n      swap1\n      tag_87\n      jump\t// in\n    tag_86:\n      mload(0x40)\n      dup1\n      swap2\n      sub\n      swap1\n      revert\n    tag_85:\n        /* \"contracts/Conflict.sol\":4657:4675  conflict storage C */\n      0x00\n        /* \"contracts/Conflict.sol\":4678:4687  conflicts */\n      dup1\n        /* \"contracts/Conflict.sol\":4678:4702  conflicts[projectNumber] */\n      0x00\n        /* \"contracts/Conflict.sol\":4688:4701  projectNumber */\n      dup8\n        /* \"contracts/Conflict.sol\":4678:4702  conflicts[projectNumber] */\n      dup2\n      mstore\n      0x20\n      add\n      swap1\n      dup2\n      mstore\n      0x20\n      add\n      0x00\n      keccak256\n        /* \"contracts/Conflict.sol\":4678:4717  conflicts[projectNumber][serviceNumber] */\n      0x00\n        /* \"contracts/Conflict.sol\":4703:4716  serviceNumber */\n      dup7\n        /* \"contracts/Conflict.sol\":4678:4717  conflicts[projectNumber][serviceNumber] */\n      dup2\n      mstore\n      0x20\n      add\n      swap1\n      dup2\n      mstore\n      0x20\n      add\n      0x00\n      keccak256\n        /* \"contracts/Conflict.sol\":4678:4734  conflicts[projectNumber][serviceNumber][milestoneNumber] */\n      0x00\n        /* \"contracts/Conflict.sol\":4718:4733  milestoneNumber */\n      dup6\n        /* \"contracts/Conflict.sol\":4678:4734  conflicts[projectNumber][serviceNumber][milestoneNumber] */\n      dup2\n      mstore\n      0x20\n      add\n      swap1\n      dup2\n      mstore\n      0x20\n      add\n      0x00\n      keccak256\n        /* \"contracts/Conflict.sol\":4657:4734  conflict storage C = conflicts[projectNumber][serviceNumber][milestoneNumber] */\n      swap1\n      pop\n        /* \"contracts/Conflict.sol\":4762:4766  vote */\n      dup2\n        /* \"contracts/Conflict.sol\":4744:4745  C */\n      dup2\n        /* \"contracts/Conflict.sol\":4744:4751  C.votes */\n      0x0c\n      add\n        /* \"contracts/Conflict.sol\":4744:4759  C.votes[sender] */\n      0x00\n        /* \"contracts/Conflict.sol\":4752:4758  sender */\n      dup6\n        /* \"contracts/Conflict.sol\":4744:4759  C.votes[sender] */\n      0xffffffffffffffffffffffffffffffffffffffff\n      and\n      0xffffffffffffffffffffffffffffffffffffffff\n      and\n      dup2\n      mstore\n      0x20\n      add\n      swap1\n      dup2\n      mstore\n      0x20\n      add\n      0x00\n      keccak256\n      0x00\n        /* \"contracts/Conflict.sol\":4744:4766  C.votes[sender] = vote */\n      0x0100\n      exp\n      dup2\n      sload\n      dup2\n      0xff\n      mul\n      not\n      and\n      swap1\n      dup4\n      0xff\n      and\n      mul\n      or\n      swap1\n      sstore\n      pop\n        /* \"contracts/Conflict.sol\":4789:4790  1 */\n      0x01\n        /* \"contracts/Conflict.sol\":4781:4785  vote */\n      dup3\n        /* \"contracts/Conflict.sol\":4781:4790  vote == 1 */\n      0xff\n      and\n      eq\n        /* \"contracts/Conflict.sol\":4777:4815  if (vote == 1) { C.requesterVotes++; } */\n      iszero\n      tag_88\n      jumpi\n        /* \"contracts/Conflict.sol\":4794:4795  C */\n      dup1\n        /* \"contracts/Conflict.sol\":4794:4810  C.requesterVotes */\n      0x09\n      add\n      0x00\n        /* \"contracts/Conflict.sol\":4794:4812  C.requesterVotes++ */\n      dup2\n      sload\n      dup1\n      swap3\n      swap2\n      swap1\n      tag_89\n      swap1\n      tag_90\n      jump\t// in\n    tag_89:\n      swap2\n      swap1\n      pop\n      sstore\n      pop\n        /* \"contracts/Conflict.sol\":4777:4815  if (vote == 1) { C.requesterVotes++; } */\n    tag_88:\n        /* \"contracts/Conflict.sol\":4836:4837  2 */\n      0x02\n        /* \"contracts/Conflict.sol\":4828:4832  vote */\n      dup3\n        /* \"contracts/Conflict.sol\":4828:4837  vote == 2 */\n      0xff\n      and\n      eq\n        /* \"contracts/Conflict.sol\":4824:4861  if (vote == 2) { C.providerVotes++; } */\n      iszero\n      tag_91\n      jumpi\n        /* \"contracts/Conflict.sol\":4841:4842  C */\n      dup1\n        /* \"contracts/Conflict.sol\":4841:4856  C.providerVotes */\n      0x0a\n      add\n      0x00\n        /* \"contracts/Conflict.sol\":4841:4858  C.providerVotes++ */\n      dup2\n      sload\n      dup1\n      swap3\n      swap2\n      swap1\n      tag_92\n      swap1\n      tag_90\n      jump\t// in\n    tag_92:\n      swap2\n      swap1\n      pop\n      sstore\n      pop\n        /* \"contracts/Conflict.sol\":4824:4861  if (vote == 2) { C.providerVotes++; } */\n    tag_91:\n        /* \"contracts/Conflict.sol\":4870:4871  C */\n      dup1\n        /* \"contracts/Conflict.sol\":4870:4886  C.votesCollected */\n      0x08\n      add\n      0x00\n        /* \"contracts/Conflict.sol\":4870:4888  C.votesCollected++ */\n      dup2\n      sload\n      dup1\n      swap3\n      swap2\n      swap1\n      tag_93\n      swap1\n      tag_90\n      jump\t// in\n    tag_93:\n      swap2\n      swap1\n      pop\n      sstore\n      pop\n        /* \"contracts/Conflict.sol\":4904:4982  conflictVoted(projectNumber, serviceNumber, milestoneNumber, msg.sender, vote) */\n      0x20211b974adbe11ce3687d51504ce7ef1fcfbb9c00405ba7aca7b283903f345a\n        /* \"contracts/Conflict.sol\":4918:4931  projectNumber */\n      dup7\n        /* \"contracts/Conflict.sol\":4933:4946  serviceNumber */\n      dup7\n        /* \"contracts/Conflict.sol\":4948:4963  milestoneNumber */\n      dup7\n        /* \"contracts/Conflict.sol\":4965:4975  msg.sender */\n      caller\n        /* \"contracts/Conflict.sol\":4977:4981  vote */\n      dup7\n        /* \"contracts/Conflict.sol\":4904:4982  conflictVoted(projectNumber, serviceNumber, milestoneNumber, msg.sender, vote) */\n      mload(0x40)\n      tag_94\n      swap6\n      swap5\n      swap4\n      swap3\n      swap2\n      swap1\n      tag_95\n      jump\t// in\n    tag_94:\n      mload(0x40)\n      dup1\n      swap2\n      sub\n      swap1\n      log1\n        /* \"contracts/Conflict.sol\":5017:5018  C */\n      dup1\n        /* \"contracts/Conflict.sol\":5017:5025  C.voters */\n      0x07\n      add\n      sload\n        /* \"contracts/Conflict.sol\":4997:4998  C */\n      dup2\n        /* \"contracts/Conflict.sol\":4997:5013  C.votesCollected */\n      0x08\n      add\n      sload\n        /* \"contracts/Conflict.sol\":4997:5025  C.votesCollected == C.voters */\n      eq\n        /* \"contracts/Conflict.sol\":4993:5348  if (C.votesCollected == C.voters) {... */\n      iszero\n      tag_96\n      jumpi\n        /* \"contracts/Conflict.sol\":5063:5064  C */\n      dup1\n        /* \"contracts/Conflict.sol\":5063:5079  C.requesterVotes */\n      0x09\n      add\n      sload\n        /* \"contracts/Conflict.sol\":5045:5046  C */\n      dup2\n        /* \"contracts/Conflict.sol\":5045:5060  C.providerVotes */\n      0x0a\n      add\n      sload\n        /* \"contracts/Conflict.sol\":5045:5079  C.providerVotes > C.requesterVotes */\n      gt\n        /* \"contracts/Conflict.sol\":5041:5130  if (C.providerVotes > C.requesterVotes) {C.result = 2; }... */\n      iszero\n      tag_97\n      jumpi\n        /* \"contracts/Conflict.sol\":5093:5094  2 */\n      0x02\n        /* \"contracts/Conflict.sol\":5082:5083  C */\n      dup2\n        /* \"contracts/Conflict.sol\":5082:5090  C.result */\n      0x0b\n      add\n      0x01\n        /* \"contracts/Conflict.sol\":5082:5094  C.result = 2 */\n      0x0100\n      exp\n      dup2\n      sload\n      dup2\n      0xff\n      mul\n      not\n      and\n      swap1\n      dup4\n      0xff\n      and\n      mul\n      or\n      swap1\n      sstore\n      pop\n        /* \"contracts/Conflict.sol\":5041:5130  if (C.providerVotes > C.requesterVotes) {C.result = 2; }... */\n      jump(tag_98)\n    tag_97:\n        /* \"contracts/Conflict.sol\":5127:5128  1 */\n      0x01\n        /* \"contracts/Conflict.sol\":5116:5117  C */\n      dup2\n        /* \"contracts/Conflict.sol\":5116:5124  C.result */\n      0x0b\n      add\n      0x01\n        /* \"contracts/Conflict.sol\":5116:5128  C.result = 1 */\n      0x0100\n      exp\n      dup2\n      sload\n      dup2\n      0xff\n      mul\n      not\n      and\n      swap1\n      dup4\n      0xff\n      and\n      mul\n      or\n      swap1\n      sstore\n      pop\n        /* \"contracts/Conflict.sol\":5041:5130  if (C.providerVotes > C.requesterVotes) {C.result = 2; }... */\n    tag_98:\n        /* \"contracts/Conflict.sol\":5222:5246  ConflictStatus.completed */\n      0x02\n        /* \"contracts/Conflict.sol\":5203:5204  C */\n      dup2\n        /* \"contracts/Conflict.sol\":5203:5219  C.conflictstatus */\n      0x06\n      add\n      0x14\n        /* \"contracts/Conflict.sol\":5203:5246  C.conflictstatus = ConflictStatus.completed */\n      0x0100\n      exp\n      dup2\n      sload\n      dup2\n      0xff\n      mul\n      not\n      and\n      swap1\n      dup4\n      0x02\n      dup2\n      gt\n      iszero\n      tag_99\n      jumpi\n      tag_100\n      tag_63\n      jump\t// in\n    tag_100:\n    tag_99:\n      mul\n      or\n      swap1\n      sstore\n      pop\n        /* \"contracts/Conflict.sol\":5266:5337  conflictResult(projectNumber, serviceNumber, milestoneNumber, C.result) */\n      0xe59fdbc65a5dd63c529717c2a71d04b136038f05301755de242dd05990c02814\n        /* \"contracts/Conflict.sol\":5281:5294  projectNumber */\n      dup7\n        /* \"contracts/Conflict.sol\":5296:5309  serviceNumber */\n      dup7\n        /* \"contracts/Conflict.sol\":5311:5326  milestoneNumber */\n      dup7\n        /* \"contracts/Conflict.sol\":5328:5329  C */\n      dup5\n        /* \"contracts/Conflict.sol\":5328:5336  C.result */\n      0x0b\n      add\n      0x01\n      swap1\n      sload\n      swap1\n      0x0100\n      exp\n      swap1\n      div\n      0xff\n      and\n        /* \"contracts/Conflict.sol\":5266:5337  conflictResult(projectNumber, serviceNumber, milestoneNumber, C.result) */\n      mload(0x40)\n      tag_101\n      swap5\n      swap4\n      swap3\n      swap2\n      swap1\n      tag_102\n      jump\t// in\n    tag_101:\n      mload(0x40)\n      dup1\n      swap2\n      sub\n      swap1\n      log1\n        /* \"contracts/Conflict.sol\":4993:5348  if (C.votesCollected == C.voters) {... */\n    tag_96:\n        /* \"contracts/Conflict.sol\":3852:5354  {... */\n      pop\n        /* \"contracts/Conflict.sol\":3724:5354  function voteConflict(uint256 projectNumber, uint256 serviceNumber, uint256 milestoneNumber, address sender, uint8 vote) public {... */\n      pop\n      pop\n      pop\n      pop\n      pop\n      jump\t// out\n        /* \"contracts/Conflict.sol\":2850:3085  function readConflictStatus(uint256 projectNumber, uint256 serviceNumber, uint256 milestoneNumber) external view returns (ConflictStatus) {... */\n    tag_37:\n        /* \"contracts/Conflict.sol\":2972:2986  ConflictStatus */\n      0x00\n        /* \"contracts/Conflict.sol\":3006:3015  conflicts */\n      dup1\n        /* \"contracts/Conflict.sol\":3006:3030  conflicts[projectNumber] */\n      0x00\n        /* \"contracts/Conflict.sol\":3016:3029  projectNumber */\n      dup6\n        /* \"contracts/Conflict.sol\":3006:3030  conflicts[projectNumber] */\n      dup2\n      mstore\n      0x20\n      add\n      swap1\n      dup2\n      mstore\n      0x20\n      add\n      0x00\n      keccak256\n        /* \"contracts/Conflict.sol\":3006:3045  conflicts[projectNumber][serviceNumber] */\n      0x00\n        /* \"contracts/Conflict.sol\":3031:3044  serviceNumber */\n      dup5\n        /* \"contracts/Conflict.sol\":3006:3045  conflicts[projectNumber][serviceNumber] */\n      dup2\n      mstore\n      0x20\n      add\n      swap1\n      dup2\n      mstore\n      0x20\n      add\n      0x00\n      keccak256\n        /* \"contracts/Conflict.sol\":3006:3062  conflicts[projectNumber][serviceNumber][milestoneNumber] */\n      0x00\n        /* \"contracts/Conflict.sol\":3046:3061  milestoneNumber */\n      dup4\n        /* \"contracts/Conflict.sol\":3006:3062  conflicts[projectNumber][serviceNumber][milestoneNumber] */\n      dup2\n      mstore\n      0x20\n      add\n      swap1\n      dup2\n      mstore\n      0x20\n      add\n      0x00\n      keccak256\n        /* \"contracts/Conflict.sol\":3006:3077  conflicts[projectNumber][serviceNumber][milestoneNumber].conflictstatus */\n      0x06\n      add\n      0x14\n      swap1\n      sload\n      swap1\n      0x0100\n      exp\n      swap1\n      div\n      0xff\n      and\n        /* \"contracts/Conflict.sol\":2998:3078  return (conflicts[projectNumber][serviceNumber][milestoneNumber].conflictstatus) */\n      swap1\n      pop\n        /* \"contracts/Conflict.sol\":2850:3085  function readConflictStatus(uint256 projectNumber, uint256 serviceNumber, uint256 milestoneNumber) external view returns (ConflictStatus) {... */\n      swap4\n      swap3\n      pop\n      pop\n      pop\n      jump\t// out\n        /* \"contracts/Conflict.sol\":6022:6252  function getConflictStatus(uint256 projectNumber, uint256 serviceNumber, uint256 milestoneNumber) public view returns (ConflictStatus) {... */\n    tag_42:\n        /* \"contracts/Conflict.sol\":6141:6155  ConflictStatus */\n      0x00\n        /* \"contracts/Conflict.sol\":6174:6183  conflicts */\n      dup1\n        /* \"contracts/Conflict.sol\":6174:6198  conflicts[projectNumber] */\n      0x00\n        /* \"contracts/Conflict.sol\":6184:6197  projectNumber */\n      dup6\n        /* \"contracts/Conflict.sol\":6174:6198  conflicts[projectNumber] */\n      dup2\n      mstore\n      0x20\n      add\n      swap1\n      dup2\n      mstore\n      0x20\n      add\n      0x00\n      keccak256\n        /* \"contracts/Conflict.sol\":6174:6213  conflicts[projectNumber][serviceNumber] */\n      0x00\n        /* \"contracts/Conflict.sol\":6199:6212  serviceNumber */\n      dup5\n        /* \"contracts/Conflict.sol\":6174:6213  conflicts[projectNumber][serviceNumber] */\n      dup2\n      mstore\n      0x20\n      add\n      swap1\n      dup2\n      mstore\n      0x20\n      add\n      0x00\n      keccak256\n        /* \"contracts/Conflict.sol\":6174:6230  conflicts[projectNumber][serviceNumber][milestoneNumber] */\n      0x00\n        /* \"contracts/Conflict.sol\":6214:6229  milestoneNumber */\n      dup4\n        /* \"contracts/Conflict.sol\":6174:6230  conflicts[projectNumber][serviceNumber][milestoneNumber] */\n      dup2\n      mstore\n      0x20\n      add\n      swap1\n      dup2\n      mstore\n      0x20\n      add\n      0x00\n      keccak256\n        /* \"contracts/Conflict.sol\":6174:6245  conflicts[projectNumber][serviceNumber][milestoneNumber].conflictstatus */\n      0x06\n      add\n      0x14\n      swap1\n      sload\n      swap1\n      0x0100\n      exp\n      swap1\n      div\n      0xff\n      and\n        /* \"contracts/Conflict.sol\":6167:6245  return conflicts[projectNumber][serviceNumber][milestoneNumber].conflictstatus */\n      swap1\n      pop\n        /* \"contracts/Conflict.sol\":6022:6252  function getConflictStatus(uint256 projectNumber, uint256 serviceNumber, uint256 milestoneNumber) public view returns (ConflictStatus) {... */\n      swap4\n      swap3\n      pop\n      pop\n      pop\n      jump\t// out\n        /* \"contracts/Conflict.sol\":3131:3471  function updateConflict(uint256 projectNumber, uint256 serviceNumber, uint256 milestoneNumber, string memory title, string memory description) external {... */\n    tag_47:\n        /* \"contracts/Conflict.sol\":3367:3372  title */\n      dup2\n        /* \"contracts/Conflict.sol\":3302:3311  conflicts */\n      0x00\n        /* \"contracts/Conflict.sol\":3302:3326  conflicts[projectNumber] */\n      dup1\n        /* \"contracts/Conflict.sol\":3312:3325  projectNumber */\n      dup8\n        /* \"contracts/Conflict.sol\":3302:3326  conflicts[projectNumber] */\n      dup2\n      mstore\n      0x20\n      add\n      swap1\n      dup2\n      mstore\n      0x20\n      add\n      0x00\n      keccak256\n        /* \"contracts/Conflict.sol\":3302:3341  conflicts[projectNumber][serviceNumber] */\n      0x00\n        /* \"contracts/Conflict.sol\":3327:3340  serviceNumber */\n      dup7\n        /* \"contracts/Conflict.sol\":3302:3341  conflicts[projectNumber][serviceNumber] */\n      dup2\n      mstore\n      0x20\n      add\n      swap1\n      dup2\n      mstore\n      0x20\n      add\n      0x00\n      keccak256\n        /* \"contracts/Conflict.sol\":3302:3358  conflicts[projectNumber][serviceNumber][milestoneNumber] */\n      0x00\n        /* \"contracts/Conflict.sol\":3342:3357  milestoneNumber */\n      dup6\n        /* \"contracts/Conflict.sol\":3302:3358  conflicts[projectNumber][serviceNumber][milestoneNumber] */\n      dup2\n      mstore\n      0x20\n      add\n      swap1\n      dup2\n      mstore\n      0x20\n      add\n      0x00\n      keccak256\n        /* \"contracts/Conflict.sol\":3302:3364  conflicts[projectNumber][serviceNumber][milestoneNumber].title */\n      0x03\n      add\n        /* \"contracts/Conflict.sol\":3302:3372  conflicts[projectNumber][serviceNumber][milestoneNumber].title = title */\n      swap1\n      dup1\n      mload\n      swap1\n      0x20\n      add\n      swap1\n      tag_106\n      swap3\n      swap2\n      swap1\n      tag_107\n      jump\t// in\n    tag_106:\n      pop\n        /* \"contracts/Conflict.sol\":3453:3464  description */\n      dup1\n        /* \"contracts/Conflict.sol\":3382:3391  conflicts */\n      0x00\n        /* \"contracts/Conflict.sol\":3382:3406  conflicts[projectNumber] */\n      dup1\n        /* \"contracts/Conflict.sol\":3392:3405  projectNumber */\n      dup8\n        /* \"contracts/Conflict.sol\":3382:3406  conflicts[projectNumber] */\n      dup2\n      mstore\n      0x20\n      add\n      swap1\n      dup2\n      mstore\n      0x20\n      add\n      0x00\n      keccak256\n        /* \"contracts/Conflict.sol\":3382:3421  conflicts[projectNumber][serviceNumber] */\n      0x00\n        /* \"contracts/Conflict.sol\":3407:3420  serviceNumber */\n      dup7\n        /* \"contracts/Conflict.sol\":3382:3421  conflicts[projectNumber][serviceNumber] */\n      dup2\n      mstore\n      0x20\n      add\n      swap1\n      dup2\n      mstore\n      0x20\n      add\n      0x00\n      keccak256\n        /* \"contracts/Conflict.sol\":3382:3438  conflicts[projectNumber][serviceNumber][milestoneNumber] */\n      0x00\n        /* \"contracts/Conflict.sol\":3422:3437  milestoneNumber */\n      dup6\n        /* \"contracts/Conflict.sol\":3382:3438  conflicts[projectNumber][serviceNumber][milestoneNumber] */\n      dup2\n      mstore\n      0x20\n      add\n      swap1\n      dup2\n      mstore\n      0x20\n      add\n      0x00\n      keccak256\n        /* \"contracts/Conflict.sol\":3382:3450  conflicts[projectNumber][serviceNumber][milestoneNumber].description */\n      0x04\n      add\n        /* \"contracts/Conflict.sol\":3382:3464  conflicts[projectNumber][serviceNumber][milestoneNumber].description = description */\n      swap1\n      dup1\n      mload\n      swap1\n      0x20\n      add\n      swap1\n      tag_108\n      swap3\n      swap2\n      swap1\n      tag_107\n      jump\t// in\n    tag_108:\n      pop\n        /* \"contracts/Conflict.sol\":3131:3471  function updateConflict(uint256 projectNumber, uint256 serviceNumber, uint256 milestoneNumber, string memory title, string memory description) external {... */\n      pop\n      pop\n      pop\n      pop\n      pop\n      jump\t// out\n        /* \"contracts/Conflict.sol\":6487:6713  function getVotesforRequester(uint256 projectNumber, uint256 serviceNumber, uint256 milestoneNumber) public view returns (uint256) {... */\n    tag_50:\n        /* \"contracts/Conflict.sol\":6609:6616  uint256 */\n      0x00\n        /* \"contracts/Conflict.sol\":6635:6644  conflicts */\n      dup1\n        /* \"contracts/Conflict.sol\":6635:6659  conflicts[projectNumber] */\n      0x00\n        /* \"contracts/Conflict.sol\":6645:6658  projectNumber */\n      dup6\n        /* \"contracts/Conflict.sol\":6635:6659  conflicts[projectNumber] */\n      dup2\n      mstore\n      0x20\n      add\n      swap1\n      dup2\n      mstore\n      0x20\n      add\n      0x00\n      keccak256\n        /* \"contracts/Conflict.sol\":6635:6674  conflicts[projectNumber][serviceNumber] */\n      0x00\n        /* \"contracts/Conflict.sol\":6660:6673  serviceNumber */\n      dup5\n        /* \"contracts/Conflict.sol\":6635:6674  conflicts[projectNumber][serviceNumber] */\n      dup2\n      mstore\n      0x20\n      add\n      swap1\n      dup2\n      mstore\n      0x20\n      add\n      0x00\n      keccak256\n        /* \"contracts/Conflict.sol\":6635:6691  conflicts[projectNumber][serviceNumber][milestoneNumber] */\n      0x00\n        /* \"contracts/Conflict.sol\":6675:6690  milestoneNumber */\n      dup4\n        /* \"contracts/Conflict.sol\":6635:6691  conflicts[projectNumber][serviceNumber][milestoneNumber] */\n      dup2\n      mstore\n      0x20\n      add\n      swap1\n      dup2\n      mstore\n      0x20\n      add\n      0x00\n      keccak256\n        /* \"contracts/Conflict.sol\":6635:6706  conflicts[projectNumber][serviceNumber][milestoneNumber].requesterVotes */\n      0x09\n      add\n      sload\n        /* \"contracts/Conflict.sol\":6628:6706  return conflicts[projectNumber][serviceNumber][milestoneNumber].requesterVotes */\n      swap1\n      pop\n        /* \"contracts/Conflict.sol\":6487:6713  function getVotesforRequester(uint256 projectNumber, uint256 serviceNumber, uint256 milestoneNumber) public view returns (uint256) {... */\n      swap4\n      swap3\n      pop\n      pop\n      pop\n      jump\t// out\n        /* \"contracts/Conflict.sol\":1499:2805  function createConflict(uint256 projectNumber, uint256 serviceNumber, uint256 milestoneNumber, string memory title, string memory description, address serviceRequester, address serviceProvider,  uint256 totalVoters) public {... */\n    tag_55:\n        /* \"contracts/Conflict.sol\":1806:1810  true */\n      0x01\n        /* \"contracts/Conflict.sol\":1740:1810  conflicts[projectNumber][serviceNumber][milestoneNumber].exist != true */\n      iszero\n      iszero\n        /* \"contracts/Conflict.sol\":1740:1749  conflicts */\n      0x00\n        /* \"contracts/Conflict.sol\":1740:1764  conflicts[projectNumber] */\n      dup1\n        /* \"contracts/Conflict.sol\":1750:1763  projectNumber */\n      dup11\n        /* \"contracts/Conflict.sol\":1740:1764  conflicts[projectNumber] */\n      dup2\n      mstore\n      0x20\n      add\n      swap1\n      dup2\n      mstore\n      0x20\n      add\n      0x00\n      keccak256\n        /* \"contracts/Conflict.sol\":1740:1779  conflicts[projectNumber][serviceNumber] */\n      0x00\n        /* \"contracts/Conflict.sol\":1765:1778  serviceNumber */\n      dup10\n        /* \"contracts/Conflict.sol\":1740:1779  conflicts[projectNumber][serviceNumber] */\n      dup2\n      mstore\n      0x20\n      add\n      swap1\n      dup2\n      mstore\n      0x20\n      add\n      0x00\n      keccak256\n        /* \"contracts/Conflict.sol\":1740:1796  conflicts[projectNumber][serviceNumber][milestoneNumber] */\n      0x00\n        /* \"contracts/Conflict.sol\":1780:1795  milestoneNumber */\n      dup9\n        /* \"contracts/Conflict.sol\":1740:1796  conflicts[projectNumber][serviceNumber][milestoneNumber] */\n      dup2\n      mstore\n      0x20\n      add\n      swap1\n      dup2\n      mstore\n      0x20\n      add\n      0x00\n      keccak256\n        /* \"contracts/Conflict.sol\":1740:1802  conflicts[projectNumber][serviceNumber][milestoneNumber].exist */\n      0x0b\n      add\n      0x00\n      swap1\n      sload\n      swap1\n      0x0100\n      exp\n      swap1\n      div\n      0xff\n      and\n        /* \"contracts/Conflict.sol\":1740:1810  conflicts[projectNumber][serviceNumber][milestoneNumber].exist != true */\n      iszero\n      iszero\n      eq\n      iszero\n        /* \"contracts/Conflict.sol\":1732:1893  require(conflicts[projectNumber][serviceNumber][milestoneNumber].exist != true , \"Conflict has already been created. Please do not create more than 1 conflict.\") */\n      tag_111\n      jumpi\n      mload(0x40)\n      0x08c379a000000000000000000000000000000000000000000000000000000000\n      dup2\n      mstore\n      0x04\n      add\n      tag_112\n      swap1\n      tag_113\n      jump\t// in\n    tag_112:\n      mload(0x40)\n      dup1\n      swap2\n      sub\n      swap1\n      revert\n    tag_111:\n        /* \"contracts/Conflict.sol\":1929:1957  conflict storage newConflict */\n      0x00\n        /* \"contracts/Conflict.sol\":1960:1969  conflicts */\n      dup1\n        /* \"contracts/Conflict.sol\":1960:1984  conflicts[projectNumber] */\n      0x00\n        /* \"contracts/Conflict.sol\":1970:1983  projectNumber */\n      dup11\n        /* \"contracts/Conflict.sol\":1960:1984  conflicts[projectNumber] */\n      dup2\n      mstore\n      0x20\n      add\n      swap1\n      dup2\n      mstore\n      0x20\n      add\n      0x00\n      keccak256\n        /* \"contracts/Conflict.sol\":1960:1999  conflicts[projectNumber][serviceNumber] */\n      0x00\n        /* \"contracts/Conflict.sol\":1985:1998  serviceNumber */\n      dup10\n        /* \"contracts/Conflict.sol\":1960:1999  conflicts[projectNumber][serviceNumber] */\n      dup2\n      mstore\n      0x20\n      add\n      swap1\n      dup2\n      mstore\n      0x20\n      add\n      0x00\n      keccak256\n        /* \"contracts/Conflict.sol\":1960:2016  conflicts[projectNumber][serviceNumber][milestoneNumber] */\n      0x00\n        /* \"contracts/Conflict.sol\":2000:2015  milestoneNumber */\n      dup9\n        /* \"contracts/Conflict.sol\":1960:2016  conflicts[projectNumber][serviceNumber][milestoneNumber] */\n      dup2\n      mstore\n      0x20\n      add\n      swap1\n      dup2\n      mstore\n      0x20\n      add\n      0x00\n      keccak256\n        /* \"contracts/Conflict.sol\":1929:2016  conflict storage newConflict = conflicts[projectNumber][serviceNumber][milestoneNumber] */\n      swap1\n      pop\n        /* \"contracts/Conflict.sol\":2054:2067  projectNumber */\n      dup9\n        /* \"contracts/Conflict.sol\":2026:2037  newConflict */\n      dup2\n        /* \"contracts/Conflict.sol\":2026:2051  newConflict.projectNumber */\n      0x00\n      add\n        /* \"contracts/Conflict.sol\":2026:2067  newConflict.projectNumber = projectNumber */\n      dup2\n      swap1\n      sstore\n      pop\n        /* \"contracts/Conflict.sol\":2110:2123  serviceNumber */\n      dup8\n        /* \"contracts/Conflict.sol\":2082:2093  newConflict */\n      dup2\n        /* \"contracts/Conflict.sol\":2082:2107  newConflict.serviceNumber */\n      0x01\n      add\n        /* \"contracts/Conflict.sol\":2082:2123  newConflict.serviceNumber = serviceNumber */\n      dup2\n      swap1\n      sstore\n      pop\n        /* \"contracts/Conflict.sol\":2171:2186  milestoneNumber */\n      dup7\n        /* \"contracts/Conflict.sol\":2141:2152  newConflict */\n      dup2\n        /* \"contracts/Conflict.sol\":2141:2168  newConflict.milestoneNumber */\n      0x02\n      add\n        /* \"contracts/Conflict.sol\":2141:2186  newConflict.milestoneNumber = milestoneNumber */\n      dup2\n      swap1\n      sstore\n      pop\n        /* \"contracts/Conflict.sol\":2216:2221  title */\n      dup6\n        /* \"contracts/Conflict.sol\":2196:2207  newConflict */\n      dup2\n        /* \"contracts/Conflict.sol\":2196:2213  newConflict.title */\n      0x03\n      add\n        /* \"contracts/Conflict.sol\":2196:2221  newConflict.title = title */\n      swap1\n      dup1\n      mload\n      swap1\n      0x20\n      add\n      swap1\n      tag_114\n      swap3\n      swap2\n      swap1\n      tag_107\n      jump\t// in\n    tag_114:\n      pop\n        /* \"contracts/Conflict.sol\":2257:2268  description */\n      dup5\n        /* \"contracts/Conflict.sol\":2231:2242  newConflict */\n      dup2\n        /* \"contracts/Conflict.sol\":2231:2254  newConflict.description */\n      0x04\n      add\n        /* \"contracts/Conflict.sol\":2231:2268  newConflict.description = description */\n      swap1\n      dup1\n      mload\n      swap1\n      0x20\n      add\n      swap1\n      tag_115\n      swap3\n      swap2\n      swap1\n      tag_107\n      jump\t// in\n    tag_115:\n      pop\n        /* \"contracts/Conflict.sol\":2309:2325  serviceRequester */\n      dup4\n        /* \"contracts/Conflict.sol\":2278:2289  newConflict */\n      dup2\n        /* \"contracts/Conflict.sol\":2278:2306  newConflict.serviceRequester */\n      0x05\n      add\n      0x00\n        /* \"contracts/Conflict.sol\":2278:2325  newConflict.serviceRequester = serviceRequester */\n      0x0100\n      exp\n      dup2\n      sload\n      dup2\n      0xffffffffffffffffffffffffffffffffffffffff\n      mul\n      not\n      and\n      swap1\n      dup4\n      0xffffffffffffffffffffffffffffffffffffffff\n      and\n      mul\n      or\n      swap1\n      sstore\n      pop\n        /* \"contracts/Conflict.sol\":2365:2380  serviceProvider */\n      dup3\n        /* \"contracts/Conflict.sol\":2335:2346  newConflict */\n      dup2\n        /* \"contracts/Conflict.sol\":2335:2362  newConflict.serviceProvider */\n      0x06\n      add\n      0x00\n        /* \"contracts/Conflict.sol\":2335:2380  newConflict.serviceProvider = serviceProvider */\n      0x0100\n      exp\n      dup2\n      sload\n      dup2\n      0xffffffffffffffffffffffffffffffffffffffff\n      mul\n      not\n      and\n      swap1\n      dup4\n      0xffffffffffffffffffffffffffffffffffffffff\n      and\n      mul\n      or\n      swap1\n      sstore\n      pop\n        /* \"contracts/Conflict.sol\":2419:2441  ConflictStatus.pending */\n      0x01\n        /* \"contracts/Conflict.sol\":2390:2401  newConflict */\n      dup2\n        /* \"contracts/Conflict.sol\":2390:2416  newConflict.conflictstatus */\n      0x06\n      add\n      0x14\n        /* \"contracts/Conflict.sol\":2390:2441  newConflict.conflictstatus = ConflictStatus.pending */\n      0x0100\n      exp\n      dup2\n      sload\n      dup2\n      0xff\n      mul\n      not\n      and\n      swap1\n      dup4\n      0x02\n      dup2\n      gt\n      iszero\n      tag_116\n      jumpi\n      tag_117\n      tag_63\n      jump\t// in\n    tag_117:\n    tag_116:\n      mul\n      or\n      swap1\n      sstore\n      pop\n        /* \"contracts/Conflict.sol\":2472:2483  totalVoters */\n      dup2\n        /* \"contracts/Conflict.sol\":2451:2462  newConflict */\n      dup2\n        /* \"contracts/Conflict.sol\":2451:2469  newConflict.voters */\n      0x07\n      add\n        /* \"contracts/Conflict.sol\":2451:2483  newConflict.voters = totalVoters */\n      dup2\n      swap1\n      sstore\n      pop\n        /* \"contracts/Conflict.sol\":2522:2523  0 */\n      0x00\n        /* \"contracts/Conflict.sol\":2493:2504  newConflict */\n      dup2\n        /* \"contracts/Conflict.sol\":2493:2519  newConflict.votesCollected */\n      0x08\n      add\n        /* \"contracts/Conflict.sol\":2493:2523  newConflict.votesCollected = 0 */\n      dup2\n      swap1\n      sstore\n      pop\n        /* \"contracts/Conflict.sol\":2562:2563  0 */\n      0x00\n        /* \"contracts/Conflict.sol\":2533:2544  newConflict */\n      dup2\n        /* \"contracts/Conflict.sol\":2533:2559  newConflict.requesterVotes */\n      0x09\n      add\n        /* \"contracts/Conflict.sol\":2533:2563  newConflict.requesterVotes = 0 */\n      dup2\n      swap1\n      sstore\n      pop\n        /* \"contracts/Conflict.sol\":2601:2602  0 */\n      0x00\n        /* \"contracts/Conflict.sol\":2573:2584  newConflict */\n      dup2\n        /* \"contracts/Conflict.sol\":2573:2598  newConflict.providerVotes */\n      0x0a\n      add\n        /* \"contracts/Conflict.sol\":2573:2602  newConflict.providerVotes = 0 */\n      dup2\n      swap1\n      sstore\n      pop\n        /* \"contracts/Conflict.sol\":2636:2640  true */\n      0x01\n        /* \"contracts/Conflict.sol\":2616:2627  newConflict */\n      dup2\n        /* \"contracts/Conflict.sol\":2616:2633  newConflict.exist */\n      0x0b\n      add\n      0x00\n        /* \"contracts/Conflict.sol\":2616:2640  newConflict.exist = true */\n      0x0100\n      exp\n      dup2\n      sload\n      dup2\n      0xff\n      mul\n      not\n      and\n      swap1\n      dup4\n      iszero\n      iszero\n      mul\n      or\n      swap1\n      sstore\n      pop\n        /* \"contracts/Conflict.sol\":2671:2672  0 */\n      0x00\n        /* \"contracts/Conflict.sol\":2650:2661  newConflict */\n      dup2\n        /* \"contracts/Conflict.sol\":2650:2668  newConflict.result */\n      0x0b\n      add\n      0x01\n        /* \"contracts/Conflict.sol\":2650:2672  newConflict.result = 0 */\n      0x0100\n      exp\n      dup2\n      sload\n      dup2\n      0xff\n      mul\n      not\n      and\n      swap1\n      dup4\n      0xff\n      and\n      mul\n      or\n      swap1\n      sstore\n      pop\n        /* \"contracts/Conflict.sol\":2688:2798  conflictCreated(projectNumber, serviceNumber, milestoneNumber, serviceRequester, serviceProvider, totalVoters) */\n      0xfa127411522a1139d16c2142db999e127aef2288bd98a0558006bb115666ab1b\n        /* \"contracts/Conflict.sol\":2704:2717  projectNumber */\n      dup10\n        /* \"contracts/Conflict.sol\":2719:2732  serviceNumber */\n      dup10\n        /* \"contracts/Conflict.sol\":2734:2749  milestoneNumber */\n      dup10\n        /* \"contracts/Conflict.sol\":2751:2767  serviceRequester */\n      dup8\n        /* \"contracts/Conflict.sol\":2769:2784  serviceProvider */\n      dup8\n        /* \"contracts/Conflict.sol\":2786:2797  totalVoters */\n      dup8\n        /* \"contracts/Conflict.sol\":2688:2798  conflictCreated(projectNumber, serviceNumber, milestoneNumber, serviceRequester, serviceProvider, totalVoters) */\n      mload(0x40)\n      tag_118\n      swap7\n      swap6\n      swap5\n      swap4\n      swap3\n      swap2\n      swap1\n      tag_119\n      jump\t// in\n    tag_118:\n      mload(0x40)\n      dup1\n      swap2\n      sub\n      swap1\n      log1\n        /* \"contracts/Conflict.sol\":1722:2805  {... */\n      pop\n        /* \"contracts/Conflict.sol\":1499:2805  function createConflict(uint256 projectNumber, uint256 serviceNumber, uint256 milestoneNumber, string memory title, string memory description, address serviceRequester, address serviceProvider,  uint256 totalVoters) public {... */\n      pop\n      pop\n      pop\n      pop\n      pop\n      pop\n      pop\n      pop\n      jump\t// out\n    tag_107:\n      dup3\n      dup1\n      sload\n      tag_120\n      swap1\n      tag_121\n      jump\t// in\n    tag_120:\n      swap1\n      0x00\n      mstore\n      keccak256(0x00, 0x20)\n      swap1\n      0x1f\n      add\n      0x20\n      swap1\n      div\n      dup2\n      add\n      swap3\n      dup3\n      tag_123\n      jumpi\n      0x00\n      dup6\n      sstore\n      jump(tag_122)\n    tag_123:\n      dup3\n      0x1f\n      lt\n      tag_124\n      jumpi\n      dup1\n      mload\n      not(0xff)\n      and\n      dup4\n      dup1\n      add\n      or\n      dup6\n      sstore\n      jump(tag_122)\n    tag_124:\n      dup3\n      dup1\n      add\n      0x01\n      add\n      dup6\n      sstore\n      dup3\n      iszero\n      tag_122\n      jumpi\n      swap2\n      dup3\n      add\n    tag_125:\n      dup3\n      dup2\n      gt\n      iszero\n      tag_126\n      jumpi\n      dup3\n      mload\n      dup3\n      sstore\n      swap2\n      0x20\n      add\n      swap2\n      swap1\n      0x01\n      add\n      swap1\n      jump(tag_125)\n    tag_126:\n    tag_122:\n      pop\n      swap1\n      pop\n      tag_127\n      swap2\n      swap1\n      tag_128\n      jump\t// in\n    tag_127:\n      pop\n      swap1\n      jump\t// out\n    tag_128:\n    tag_129:\n      dup1\n      dup3\n      gt\n      iszero\n      tag_130\n      jumpi\n      0x00\n      dup2\n      0x00\n      swap1\n      sstore\n      pop\n      0x01\n      add\n      jump(tag_129)\n    tag_130:\n      pop\n      swap1\n      jump\t// out\n        /* \"#utility.yul\":7:419   */\n    tag_132:\n        /* \"#utility.yul\":85:90   */\n      0x00\n        /* \"#utility.yul\":110:176   */\n      tag_134\n        /* \"#utility.yul\":126:175   */\n      tag_135\n        /* \"#utility.yul\":168:174   */\n      dup5\n        /* \"#utility.yul\":126:175   */\n      tag_136\n      jump\t// in\n    tag_135:\n        /* \"#utility.yul\":110:176   */\n      tag_137\n      jump\t// in\n    tag_134:\n        /* \"#utility.yul\":101:176   */\n      swap1\n      pop\n        /* \"#utility.yul\":199:205   */\n      dup3\n        /* \"#utility.yul\":192:197   */\n      dup2\n        /* \"#utility.yul\":185:206   */\n      mstore\n        /* \"#utility.yul\":237:241   */\n      0x20\n        /* \"#utility.yul\":230:235   */\n      dup2\n        /* \"#utility.yul\":226:242   */\n      add\n        /* \"#utility.yul\":275:278   */\n      dup5\n        /* \"#utility.yul\":266:272   */\n      dup5\n        /* \"#utility.yul\":261:264   */\n      dup5\n        /* \"#utility.yul\":257:273   */\n      add\n        /* \"#utility.yul\":254:279   */\n      gt\n        /* \"#utility.yul\":251:363   */\n      iszero\n      tag_138\n      jumpi\n        /* \"#utility.yul\":282:361   */\n      tag_139\n      tag_140\n      jump\t// in\n    tag_139:\n        /* \"#utility.yul\":251:363   */\n    tag_138:\n        /* \"#utility.yul\":372:413   */\n      tag_141\n        /* \"#utility.yul\":406:412   */\n      dup5\n        /* \"#utility.yul\":401:404   */\n      dup3\n        /* \"#utility.yul\":396:399   */\n      dup6\n        /* \"#utility.yul\":372:413   */\n      tag_142\n      jump\t// in\n    tag_141:\n        /* \"#utility.yul\":91:419   */\n      pop\n        /* \"#utility.yul\":7:419   */\n      swap4\n      swap3\n      pop\n      pop\n      pop\n      jump\t// out\n        /* \"#utility.yul\":425:564   */\n    tag_143:\n        /* \"#utility.yul\":471:476   */\n      0x00\n        /* \"#utility.yul\":509:515   */\n      dup2\n        /* \"#utility.yul\":496:516   */\n      calldataload\n        /* \"#utility.yul\":487:516   */\n      swap1\n      pop\n        /* \"#utility.yul\":525:558   */\n      tag_145\n        /* \"#utility.yul\":552:557   */\n      dup2\n        /* \"#utility.yul\":525:558   */\n      tag_146\n      jump\t// in\n    tag_145:\n        /* \"#utility.yul\":425:564   */\n      swap3\n      swap2\n      pop\n      pop\n      jump\t// out\n        /* \"#utility.yul\":584:924   */\n    tag_147:\n        /* \"#utility.yul\":640:645   */\n      0x00\n        /* \"#utility.yul\":689:692   */\n      dup3\n        /* \"#utility.yul\":682:686   */\n      0x1f\n        /* \"#utility.yul\":674:680   */\n      dup4\n        /* \"#utility.yul\":670:687   */\n      add\n        /* \"#utility.yul\":666:693   */\n      slt\n        /* \"#utility.yul\":656:778   */\n      tag_149\n      jumpi\n        /* \"#utility.yul\":697:776   */\n      tag_150\n      tag_151\n      jump\t// in\n    tag_150:\n        /* \"#utility.yul\":656:778   */\n    tag_149:\n        /* \"#utility.yul\":814:820   */\n      dup2\n        /* \"#utility.yul\":801:821   */\n      calldataload\n        /* \"#utility.yul\":839:918   */\n      tag_152\n        /* \"#utility.yul\":914:917   */\n      dup5\n        /* \"#utility.yul\":906:912   */\n      dup3\n        /* \"#utility.yul\":899:903   */\n      0x20\n        /* \"#utility.yul\":891:897   */\n      dup7\n        /* \"#utility.yul\":887:904   */\n      add\n        /* \"#utility.yul\":839:918   */\n      tag_132\n      jump\t// in\n    tag_152:\n        /* \"#utility.yul\":830:918   */\n      swap2\n      pop\n        /* \"#utility.yul\":646:924   */\n      pop\n        /* \"#utility.yul\":584:924   */\n      swap3\n      swap2\n      pop\n      pop\n      jump\t// out\n        /* \"#utility.yul\":930:1069   */\n    tag_153:\n        /* \"#utility.yul\":976:981   */\n      0x00\n        /* \"#utility.yul\":1014:1020   */\n      dup2\n        /* \"#utility.yul\":1001:1021   */\n      calldataload\n        /* \"#utility.yul\":992:1021   */\n      swap1\n      pop\n        /* \"#utility.yul\":1030:1063   */\n      tag_155\n        /* \"#utility.yul\":1057:1062   */\n      dup2\n        /* \"#utility.yul\":1030:1063   */\n      tag_156\n      jump\t// in\n    tag_155:\n        /* \"#utility.yul\":930:1069   */\n      swap3\n      swap2\n      pop\n      pop\n      jump\t// out\n        /* \"#utility.yul\":1075:1210   */\n    tag_157:\n        /* \"#utility.yul\":1119:1124   */\n      0x00\n        /* \"#utility.yul\":1157:1163   */\n      dup2\n        /* \"#utility.yul\":1144:1164   */\n      calldataload\n        /* \"#utility.yul\":1135:1164   */\n      swap1\n      pop\n        /* \"#utility.yul\":1173:1204   */\n      tag_159\n        /* \"#utility.yul\":1198:1203   */\n      dup2\n        /* \"#utility.yul\":1173:1204   */\n      tag_160\n      jump\t// in\n    tag_159:\n        /* \"#utility.yul\":1075:1210   */\n      swap3\n      swap2\n      pop\n      pop\n      jump\t// out\n        /* \"#utility.yul\":1216:1835   */\n    tag_16:\n        /* \"#utility.yul\":1293:1299   */\n      0x00\n        /* \"#utility.yul\":1301:1307   */\n      dup1\n        /* \"#utility.yul\":1309:1315   */\n      0x00\n        /* \"#utility.yul\":1358:1360   */\n      0x60\n        /* \"#utility.yul\":1346:1355   */\n      dup5\n        /* \"#utility.yul\":1337:1344   */\n      dup7\n        /* \"#utility.yul\":1333:1356   */\n      sub\n        /* \"#utility.yul\":1329:1361   */\n      slt\n        /* \"#utility.yul\":1326:1445   */\n      iszero\n      tag_162\n      jumpi\n        /* \"#utility.yul\":1364:1443   */\n      tag_163\n      tag_164\n      jump\t// in\n    tag_163:\n        /* \"#utility.yul\":1326:1445   */\n    tag_162:\n        /* \"#utility.yul\":1484:1485   */\n      0x00\n        /* \"#utility.yul\":1509:1562   */\n      tag_165\n        /* \"#utility.yul\":1554:1561   */\n      dup7\n        /* \"#utility.yul\":1545:1551   */\n      dup3\n        /* \"#utility.yul\":1534:1543   */\n      dup8\n        /* \"#utility.yul\":1530:1552   */\n      add\n        /* \"#utility.yul\":1509:1562   */\n      tag_153\n      jump\t// in\n    tag_165:\n        /* \"#utility.yul\":1499:1562   */\n      swap4\n      pop\n        /* \"#utility.yul\":1455:1572   */\n      pop\n        /* \"#utility.yul\":1611:1613   */\n      0x20\n        /* \"#utility.yul\":1637:1690   */\n      tag_166\n        /* \"#utility.yul\":1682:1689   */\n      dup7\n        /* \"#utility.yul\":1673:1679   */\n      dup3\n        /* \"#utility.yul\":1662:1671   */\n      dup8\n        /* \"#utility.yul\":1658:1680   */\n      add\n        /* \"#utility.yul\":1637:1690   */\n      tag_153\n      jump\t// in\n    tag_166:\n        /* \"#utility.yul\":1627:1690   */\n      swap3\n      pop\n        /* \"#utility.yul\":1582:1700   */\n      pop\n        /* \"#utility.yul\":1739:1741   */\n      0x40\n        /* \"#utility.yul\":1765:1818   */\n      tag_167\n        /* \"#utility.yul\":1810:1817   */\n      dup7\n        /* \"#utility.yul\":1801:1807   */\n      dup3\n        /* \"#utility.yul\":1790:1799   */\n      dup8\n        /* \"#utility.yul\":1786:1808   */\n      add\n        /* \"#utility.yul\":1765:1818   */\n      tag_153\n      jump\t// in\n    tag_167:\n        /* \"#utility.yul\":1755:1818   */\n      swap2\n      pop\n        /* \"#utility.yul\":1710:1828   */\n      pop\n        /* \"#utility.yul\":1216:1835   */\n      swap3\n      pop\n      swap3\n      pop\n      swap3\n      jump\t// out\n        /* \"#utility.yul\":1841:2748   */\n    tag_33:\n        /* \"#utility.yul\":1934:1940   */\n      0x00\n        /* \"#utility.yul\":1942:1948   */\n      dup1\n        /* \"#utility.yul\":1950:1956   */\n      0x00\n        /* \"#utility.yul\":1958:1964   */\n      dup1\n        /* \"#utility.yul\":1966:1972   */\n      0x00\n        /* \"#utility.yul\":2015:2018   */\n      0xa0\n        /* \"#utility.yul\":2003:2012   */\n      dup7\n        /* \"#utility.yul\":1994:2001   */\n      dup9\n        /* \"#utility.yul\":1990:2013   */\n      sub\n        /* \"#utility.yul\":1986:2019   */\n      slt\n        /* \"#utility.yul\":1983:2103   */\n      iszero\n      tag_169\n      jumpi\n        /* \"#utility.yul\":2022:2101   */\n      tag_170\n      tag_164\n      jump\t// in\n    tag_170:\n        /* \"#utility.yul\":1983:2103   */\n    tag_169:\n        /* \"#utility.yul\":2142:2143   */\n      0x00\n        /* \"#utility.yul\":2167:2220   */\n      tag_171\n        /* \"#utility.yul\":2212:2219   */\n      dup9\n        /* \"#utility.yul\":2203:2209   */\n      dup3\n        /* \"#utility.yul\":2192:2201   */\n      dup10\n        /* \"#utility.yul\":2188:2210   */\n      add\n        /* \"#utility.yul\":2167:2220   */\n      tag_153\n      jump\t// in\n    tag_171:\n        /* \"#utility.yul\":2157:2220   */\n      swap6\n      pop\n        /* \"#utility.yul\":2113:2230   */\n      pop\n        /* \"#utility.yul\":2269:2271   */\n      0x20\n        /* \"#utility.yul\":2295:2348   */\n      tag_172\n        /* \"#utility.yul\":2340:2347   */\n      dup9\n        /* \"#utility.yul\":2331:2337   */\n      dup3\n        /* \"#utility.yul\":2320:2329   */\n      dup10\n        /* \"#utility.yul\":2316:2338   */\n      add\n        /* \"#utility.yul\":2295:2348   */\n      tag_153\n      jump\t// in\n    tag_172:\n        /* \"#utility.yul\":2285:2348   */\n      swap5\n      pop\n        /* \"#utility.yul\":2240:2358   */\n      pop\n        /* \"#utility.yul\":2397:2399   */\n      0x40\n        /* \"#utility.yul\":2423:2476   */\n      tag_173\n        /* \"#utility.yul\":2468:2475   */\n      dup9\n        /* \"#utility.yul\":2459:2465   */\n      dup3\n        /* \"#utility.yul\":2448:2457   */\n      dup10\n        /* \"#utility.yul\":2444:2466   */\n      add\n        /* \"#utility.yul\":2423:2476   */\n      tag_153\n      jump\t// in\n    tag_173:\n        /* \"#utility.yul\":2413:2476   */\n      swap4\n      pop\n        /* \"#utility.yul\":2368:2486   */\n      pop\n        /* \"#utility.yul\":2525:2527   */\n      0x60\n        /* \"#utility.yul\":2551:2604   */\n      tag_174\n        /* \"#utility.yul\":2596:2603   */\n      dup9\n        /* \"#utility.yul\":2587:2593   */\n      dup3\n        /* \"#utility.yul\":2576:2585   */\n      dup10\n        /* \"#utility.yul\":2572:2594   */\n      add\n        /* \"#utility.yul\":2551:2604   */\n      tag_143\n      jump\t// in\n    tag_174:\n        /* \"#utility.yul\":2541:2604   */\n      swap3\n      pop\n        /* \"#utility.yul\":2496:2614   */\n      pop\n        /* \"#utility.yul\":2653:2656   */\n      0x80\n        /* \"#utility.yul\":2680:2731   */\n      tag_175\n        /* \"#utility.yul\":2723:2730   */\n      dup9\n        /* \"#utility.yul\":2714:2720   */\n      dup3\n        /* \"#utility.yul\":2703:2712   */\n      dup10\n        /* \"#utility.yul\":2699:2721   */\n      add\n        /* \"#utility.yul\":2680:2731   */\n      tag_157\n      jump\t// in\n    tag_175:\n        /* \"#utility.yul\":2670:2731   */\n      swap2\n      pop\n        /* \"#utility.yul\":2624:2741   */\n      pop\n        /* \"#utility.yul\":1841:2748   */\n      swap3\n      swap6\n      pop\n      swap3\n      swap6\n      swap1\n      swap4\n      pop\n      jump\t// out\n        /* \"#utility.yul\":2754:4025   */\n    tag_46:\n        /* \"#utility.yul\":2869:2875   */\n      0x00\n        /* \"#utility.yul\":2877:2883   */\n      dup1\n        /* \"#utility.yul\":2885:2891   */\n      0x00\n        /* \"#utility.yul\":2893:2899   */\n      dup1\n        /* \"#utility.yul\":2901:2907   */\n      0x00\n        /* \"#utility.yul\":2950:2953   */\n      0xa0\n        /* \"#utility.yul\":2938:2947   */\n      dup7\n        /* \"#utility.yul\":2929:2936   */\n      dup9\n        /* \"#utility.yul\":2925:2948   */\n      sub\n        /* \"#utility.yul\":2921:2954   */\n      slt\n        /* \"#utility.yul\":2918:3038   */\n      iszero\n      tag_177\n      jumpi\n        /* \"#utility.yul\":2957:3036   */\n      tag_178\n      tag_164\n      jump\t// in\n    tag_178:\n        /* \"#utility.yul\":2918:3038   */\n    tag_177:\n        /* \"#utility.yul\":3077:3078   */\n      0x00\n        /* \"#utility.yul\":3102:3155   */\n      tag_179\n        /* \"#utility.yul\":3147:3154   */\n      dup9\n        /* \"#utility.yul\":3138:3144   */\n      dup3\n        /* \"#utility.yul\":3127:3136   */\n      dup10\n        /* \"#utility.yul\":3123:3145   */\n      add\n        /* \"#utility.yul\":3102:3155   */\n      tag_153\n      jump\t// in\n    tag_179:\n        /* \"#utility.yul\":3092:3155   */\n      swap6\n      pop\n        /* \"#utility.yul\":3048:3165   */\n      pop\n        /* \"#utility.yul\":3204:3206   */\n      0x20\n        /* \"#utility.yul\":3230:3283   */\n      tag_180\n        /* \"#utility.yul\":3275:3282   */\n      dup9\n        /* \"#utility.yul\":3266:3272   */\n      dup3\n        /* \"#utility.yul\":3255:3264   */\n      dup10\n        /* \"#utility.yul\":3251:3273   */\n      add\n        /* \"#utility.yul\":3230:3283   */\n      tag_153\n      jump\t// in\n    tag_180:\n        /* \"#utility.yul\":3220:3283   */\n      swap5\n      pop\n        /* \"#utility.yul\":3175:3293   */\n      pop\n        /* \"#utility.yul\":3332:3334   */\n      0x40\n        /* \"#utility.yul\":3358:3411   */\n      tag_181\n        /* \"#utility.yul\":3403:3410   */\n      dup9\n        /* \"#utility.yul\":3394:3400   */\n      dup3\n        /* \"#utility.yul\":3383:3392   */\n      dup10\n        /* \"#utility.yul\":3379:3401   */\n      add\n        /* \"#utility.yul\":3358:3411   */\n      tag_153\n      jump\t// in\n    tag_181:\n        /* \"#utility.yul\":3348:3411   */\n      swap4\n      pop\n        /* \"#utility.yul\":3303:3421   */\n      pop\n        /* \"#utility.yul\":3488:3490   */\n      0x60\n        /* \"#utility.yul\":3477:3486   */\n      dup7\n        /* \"#utility.yul\":3473:3491   */\n      add\n        /* \"#utility.yul\":3460:3492   */\n      calldataload\n        /* \"#utility.yul\":3519:3537   */\n      0xffffffffffffffff\n        /* \"#utility.yul\":3511:3517   */\n      dup2\n        /* \"#utility.yul\":3508:3538   */\n      gt\n        /* \"#utility.yul\":3505:3622   */\n      iszero\n      tag_182\n      jumpi\n        /* \"#utility.yul\":3541:3620   */\n      tag_183\n      tag_184\n      jump\t// in\n    tag_183:\n        /* \"#utility.yul\":3505:3622   */\n    tag_182:\n        /* \"#utility.yul\":3646:3709   */\n      tag_185\n        /* \"#utility.yul\":3701:3708   */\n      dup9\n        /* \"#utility.yul\":3692:3698   */\n      dup3\n        /* \"#utility.yul\":3681:3690   */\n      dup10\n        /* \"#utility.yul\":3677:3699   */\n      add\n        /* \"#utility.yul\":3646:3709   */\n      tag_147\n      jump\t// in\n    tag_185:\n        /* \"#utility.yul\":3636:3709   */\n      swap3\n      pop\n        /* \"#utility.yul\":3431:3719   */\n      pop\n        /* \"#utility.yul\":3786:3789   */\n      0x80\n        /* \"#utility.yul\":3775:3784   */\n      dup7\n        /* \"#utility.yul\":3771:3790   */\n      add\n        /* \"#utility.yul\":3758:3791   */\n      calldataload\n        /* \"#utility.yul\":3818:3836   */\n      0xffffffffffffffff\n        /* \"#utility.yul\":3810:3816   */\n      dup2\n        /* \"#utility.yul\":3807:3837   */\n      gt\n        /* \"#utility.yul\":3804:3921   */\n      iszero\n      tag_186\n      jumpi\n        /* \"#utility.yul\":3840:3919   */\n      tag_187\n      tag_184\n      jump\t// in\n    tag_187:\n        /* \"#utility.yul\":3804:3921   */\n    tag_186:\n        /* \"#utility.yul\":3945:4008   */\n      tag_188\n        /* \"#utility.yul\":4000:4007   */\n      dup9\n        /* \"#utility.yul\":3991:3997   */\n      dup3\n        /* \"#utility.yul\":3980:3989   */\n      dup10\n        /* \"#utility.yul\":3976:3998   */\n      add\n        /* \"#utility.yul\":3945:4008   */\n      tag_147\n      jump\t// in\n    tag_188:\n        /* \"#utility.yul\":3935:4008   */\n      swap2\n      pop\n        /* \"#utility.yul\":3729:4018   */\n      pop\n        /* \"#utility.yul\":2754:4025   */\n      swap3\n      swap6\n      pop\n      swap3\n      swap6\n      swap1\n      swap4\n      pop\n      jump\t// out\n        /* \"#utility.yul\":4031:5740   */\n    tag_54:\n        /* \"#utility.yul\":4173:4179   */\n      0x00\n        /* \"#utility.yul\":4181:4187   */\n      dup1\n        /* \"#utility.yul\":4189:4195   */\n      0x00\n        /* \"#utility.yul\":4197:4203   */\n      dup1\n        /* \"#utility.yul\":4205:4211   */\n      0x00\n        /* \"#utility.yul\":4213:4219   */\n      dup1\n        /* \"#utility.yul\":4221:4227   */\n      0x00\n        /* \"#utility.yul\":4229:4235   */\n      dup1\n        /* \"#utility.yul\":4278:4281   */\n      0x0100\n        /* \"#utility.yul\":4266:4275   */\n      dup10\n        /* \"#utility.yul\":4257:4264   */\n      dup12\n        /* \"#utility.yul\":4253:4276   */\n      sub\n        /* \"#utility.yul\":4249:4282   */\n      slt\n        /* \"#utility.yul\":4246:4366   */\n      iszero\n      tag_190\n      jumpi\n        /* \"#utility.yul\":4285:4364   */\n      tag_191\n      tag_164\n      jump\t// in\n    tag_191:\n        /* \"#utility.yul\":4246:4366   */\n    tag_190:\n        /* \"#utility.yul\":4405:4406   */\n      0x00\n        /* \"#utility.yul\":4430:4483   */\n      tag_192\n        /* \"#utility.yul\":4475:4482   */\n      dup12\n        /* \"#utility.yul\":4466:4472   */\n      dup3\n        /* \"#utility.yul\":4455:4464   */\n      dup13\n        /* \"#utility.yul\":4451:4473   */\n      add\n        /* \"#utility.yul\":4430:4483   */\n      tag_153\n      jump\t// in\n    tag_192:\n        /* \"#utility.yul\":4420:4483   */\n      swap9\n      pop\n        /* \"#utility.yul\":4376:4493   */\n      pop\n        /* \"#utility.yul\":4532:4534   */\n      0x20\n        /* \"#utility.yul\":4558:4611   */\n      tag_193\n        /* \"#utility.yul\":4603:4610   */\n      dup12\n        /* \"#utility.yul\":4594:4600   */\n      dup3\n        /* \"#utility.yul\":4583:4592   */\n      dup13\n        /* \"#utility.yul\":4579:4601   */\n      add\n        /* \"#utility.yul\":4558:4611   */\n      tag_153\n      jump\t// in\n    tag_193:\n        /* \"#utility.yul\":4548:4611   */\n      swap8\n      pop\n        /* \"#utility.yul\":4503:4621   */\n      pop\n        /* \"#utility.yul\":4660:4662   */\n      0x40\n        /* \"#utility.yul\":4686:4739   */\n      tag_194\n        /* \"#utility.yul\":4731:4738   */\n      dup12\n        /* \"#utility.yul\":4722:4728   */\n      dup3\n        /* \"#utility.yul\":4711:4720   */\n      dup13\n        /* \"#utility.yul\":4707:4729   */\n      add\n        /* \"#utility.yul\":4686:4739   */\n      tag_153\n      jump\t// in\n    tag_194:\n        /* \"#utility.yul\":4676:4739   */\n      swap7\n      pop\n        /* \"#utility.yul\":4631:4749   */\n      pop\n        /* \"#utility.yul\":4816:4818   */\n      0x60\n        /* \"#utility.yul\":4805:4814   */\n      dup10\n        /* \"#utility.yul\":4801:4819   */\n      add\n        /* \"#utility.yul\":4788:4820   */\n      calldataload\n        /* \"#utility.yul\":4847:4865   */\n      0xffffffffffffffff\n        /* \"#utility.yul\":4839:4845   */\n      dup2\n        /* \"#utility.yul\":4836:4866   */\n      gt\n        /* \"#utility.yul\":4833:4950   */\n      iszero\n      tag_195\n      jumpi\n        /* \"#utility.yul\":4869:4948   */\n      tag_196\n      tag_184\n      jump\t// in\n    tag_196:\n        /* \"#utility.yul\":4833:4950   */\n    tag_195:\n        /* \"#utility.yul\":4974:5037   */\n      tag_197\n        /* \"#utility.yul\":5029:5036   */\n      dup12\n        /* \"#utility.yul\":5020:5026   */\n      dup3\n        /* \"#utility.yul\":5009:5018   */\n      dup13\n        /* \"#utility.yul\":5005:5027   */\n      add\n        /* \"#utility.yul\":4974:5037   */\n      tag_147\n      jump\t// in\n    tag_197:\n        /* \"#utility.yul\":4964:5037   */\n      swap6\n      pop\n        /* \"#utility.yul\":4759:5047   */\n      pop\n        /* \"#utility.yul\":5114:5117   */\n      0x80\n        /* \"#utility.yul\":5103:5112   */\n      dup10\n        /* \"#utility.yul\":5099:5118   */\n      add\n        /* \"#utility.yul\":5086:5119   */\n      calldataload\n        /* \"#utility.yul\":5146:5164   */\n      0xffffffffffffffff\n        /* \"#utility.yul\":5138:5144   */\n      dup2\n        /* \"#utility.yul\":5135:5165   */\n      gt\n        /* \"#utility.yul\":5132:5249   */\n      iszero\n      tag_198\n      jumpi\n        /* \"#utility.yul\":5168:5247   */\n      tag_199\n      tag_184\n      jump\t// in\n    tag_199:\n        /* \"#utility.yul\":5132:5249   */\n    tag_198:\n        /* \"#utility.yul\":5273:5336   */\n      tag_200\n        /* \"#utility.yul\":5328:5335   */\n      dup12\n        /* \"#utility.yul\":5319:5325   */\n      dup3\n        /* \"#utility.yul\":5308:5317   */\n      dup13\n        /* \"#utility.yul\":5304:5326   */\n      add\n        /* \"#utility.yul\":5273:5336   */\n      tag_147\n      jump\t// in\n    tag_200:\n        /* \"#utility.yul\":5263:5336   */\n      swap5\n      pop\n        /* \"#utility.yul\":5057:5346   */\n      pop\n        /* \"#utility.yul\":5385:5388   */\n      0xa0\n        /* \"#utility.yul\":5412:5465   */\n      tag_201\n        /* \"#utility.yul\":5457:5464   */\n      dup12\n        /* \"#utility.yul\":5448:5454   */\n      dup3\n        /* \"#utility.yul\":5437:5446   */\n      dup13\n        /* \"#utility.yul\":5433:5455   */\n      add\n        /* \"#utility.yul\":5412:5465   */\n      tag_143\n      jump\t// in\n    tag_201:\n        /* \"#utility.yul\":5402:5465   */\n      swap4\n      pop\n        /* \"#utility.yul\":5356:5475   */\n      pop\n        /* \"#utility.yul\":5514:5517   */\n      0xc0\n        /* \"#utility.yul\":5541:5594   */\n      tag_202\n        /* \"#utility.yul\":5586:5593   */\n      dup12\n        /* \"#utility.yul\":5577:5583   */\n      dup3\n        /* \"#utility.yul\":5566:5575   */\n      dup13\n        /* \"#utility.yul\":5562:5584   */\n      add\n        /* \"#utility.yul\":5541:5594   */\n      tag_143\n      jump\t// in\n    tag_202:\n        /* \"#utility.yul\":5531:5594   */\n      swap3\n      pop\n        /* \"#utility.yul\":5485:5604   */\n      pop\n        /* \"#utility.yul\":5643:5646   */\n      0xe0\n        /* \"#utility.yul\":5670:5723   */\n      tag_203\n        /* \"#utility.yul\":5715:5722   */\n      dup12\n        /* \"#utility.yul\":5706:5712   */\n      dup3\n        /* \"#utility.yul\":5695:5704   */\n      dup13\n        /* \"#utility.yul\":5691:5713   */\n      add\n        /* \"#utility.yul\":5670:5723   */\n      tag_153\n      jump\t// in\n    tag_203:\n        /* \"#utility.yul\":5660:5723   */\n      swap2\n      pop\n        /* \"#utility.yul\":5614:5733   */\n      pop\n        /* \"#utility.yul\":4031:5740   */\n      swap3\n      swap6\n      swap9\n      pop\n      swap3\n      swap6\n      swap9\n      swap1\n      swap4\n      swap7\n      pop\n      jump\t// out\n        /* \"#utility.yul\":5746:5864   */\n    tag_204:\n        /* \"#utility.yul\":5833:5857   */\n      tag_206\n        /* \"#utility.yul\":5851:5856   */\n      dup2\n        /* \"#utility.yul\":5833:5857   */\n      tag_207\n      jump\t// in\n    tag_206:\n        /* \"#utility.yul\":5828:5831   */\n      dup3\n        /* \"#utility.yul\":5821:5858   */\n      mstore\n        /* \"#utility.yul\":5746:5864   */\n      pop\n      pop\n      jump\t// out\n        /* \"#utility.yul\":5870:6033   */\n    tag_208:\n        /* \"#utility.yul\":5973:6026   */\n      tag_210\n        /* \"#utility.yul\":6020:6025   */\n      dup2\n        /* \"#utility.yul\":5973:6026   */\n      tag_211\n      jump\t// in\n    tag_210:\n        /* \"#utility.yul\":5968:5971   */\n      dup3\n        /* \"#utility.yul\":5961:6027   */\n      mstore\n        /* \"#utility.yul\":5870:6033   */\n      pop\n      pop\n      jump\t// out\n        /* \"#utility.yul\":6039:6405   */\n    tag_212:\n        /* \"#utility.yul\":6181:6184   */\n      0x00\n        /* \"#utility.yul\":6202:6269   */\n      tag_214\n        /* \"#utility.yul\":6266:6268   */\n      0x57\n        /* \"#utility.yul\":6261:6264   */\n      dup4\n        /* \"#utility.yul\":6202:6269   */\n      tag_215\n      jump\t// in\n    tag_214:\n        /* \"#utility.yul\":6195:6269   */\n      swap2\n      pop\n        /* \"#utility.yul\":6278:6371   */\n      tag_216\n        /* \"#utility.yul\":6367:6370   */\n      dup3\n        /* \"#utility.yul\":6278:6371   */\n      tag_217\n      jump\t// in\n    tag_216:\n        /* \"#utility.yul\":6396:6398   */\n      0x60\n        /* \"#utility.yul\":6391:6394   */\n      dup3\n        /* \"#utility.yul\":6387:6399   */\n      add\n        /* \"#utility.yul\":6380:6399   */\n      swap1\n      pop\n        /* \"#utility.yul\":6039:6405   */\n      swap2\n      swap1\n      pop\n      jump\t// out\n        /* \"#utility.yul\":6411:6777   */\n    tag_218:\n        /* \"#utility.yul\":6553:6556   */\n      0x00\n        /* \"#utility.yul\":6574:6641   */\n      tag_220\n        /* \"#utility.yul\":6638:6640   */\n      0x2d\n        /* \"#utility.yul\":6633:6636   */\n      dup4\n        /* \"#utility.yul\":6574:6641   */\n      tag_215\n      jump\t// in\n    tag_220:\n        /* \"#utility.yul\":6567:6641   */\n      swap2\n      pop\n        /* \"#utility.yul\":6650:6743   */\n      tag_221\n        /* \"#utility.yul\":6739:6742   */\n      dup3\n        /* \"#utility.yul\":6650:6743   */\n      tag_222\n      jump\t// in\n    tag_221:\n        /* \"#utility.yul\":6768:6770   */\n      0x40\n        /* \"#utility.yul\":6763:6766   */\n      dup3\n        /* \"#utility.yul\":6759:6771   */\n      add\n        /* \"#utility.yul\":6752:6771   */\n      swap1\n      pop\n        /* \"#utility.yul\":6411:6777   */\n      swap2\n      swap1\n      pop\n      jump\t// out\n        /* \"#utility.yul\":6783:7149   */\n    tag_223:\n        /* \"#utility.yul\":6925:6928   */\n      0x00\n        /* \"#utility.yul\":6946:7013   */\n      tag_225\n        /* \"#utility.yul\":7010:7012   */\n      0x30\n        /* \"#utility.yul\":7005:7008   */\n      dup4\n        /* \"#utility.yul\":6946:7013   */\n      tag_215\n      jump\t// in\n    tag_225:\n        /* \"#utility.yul\":6939:7013   */\n      swap2\n      pop\n        /* \"#utility.yul\":7022:7115   */\n      tag_226\n        /* \"#utility.yul\":7111:7114   */\n      dup3\n        /* \"#utility.yul\":7022:7115   */\n      tag_227\n      jump\t// in\n    tag_226:\n        /* \"#utility.yul\":7140:7142   */\n      0x40\n        /* \"#utility.yul\":7135:7138   */\n      dup3\n        /* \"#utility.yul\":7131:7143   */\n      add\n        /* \"#utility.yul\":7124:7143   */\n      swap1\n      pop\n        /* \"#utility.yul\":6783:7149   */\n      swap2\n      swap1\n      pop\n      jump\t// out\n        /* \"#utility.yul\":7155:7521   */\n    tag_228:\n        /* \"#utility.yul\":7297:7300   */\n      0x00\n        /* \"#utility.yul\":7318:7385   */\n      tag_230\n        /* \"#utility.yul\":7382:7384   */\n      0x3d\n        /* \"#utility.yul\":7377:7380   */\n      dup4\n        /* \"#utility.yul\":7318:7385   */\n      tag_215\n      jump\t// in\n    tag_230:\n        /* \"#utility.yul\":7311:7385   */\n      swap2\n      pop\n        /* \"#utility.yul\":7394:7487   */\n      tag_231\n        /* \"#utility.yul\":7483:7486   */\n      dup3\n        /* \"#utility.yul\":7394:7487   */\n      tag_232\n      jump\t// in\n    tag_231:\n        /* \"#utility.yul\":7512:7514   */\n      0x40\n        /* \"#utility.yul\":7507:7510   */\n      dup3\n        /* \"#utility.yul\":7503:7515   */\n      add\n        /* \"#utility.yul\":7496:7515   */\n      swap1\n      pop\n        /* \"#utility.yul\":7155:7521   */\n      swap2\n      swap1\n      pop\n      jump\t// out\n        /* \"#utility.yul\":7527:7893   */\n    tag_233:\n        /* \"#utility.yul\":7669:7672   */\n      0x00\n        /* \"#utility.yul\":7690:7757   */\n      tag_235\n        /* \"#utility.yul\":7754:7756   */\n      0x4a\n        /* \"#utility.yul\":7749:7752   */\n      dup4\n        /* \"#utility.yul\":7690:7757   */\n      tag_215\n      jump\t// in\n    tag_235:\n        /* \"#utility.yul\":7683:7757   */\n      swap2\n      pop\n        /* \"#utility.yul\":7766:7859   */\n      tag_236\n        /* \"#utility.yul\":7855:7858   */\n      dup3\n        /* \"#utility.yul\":7766:7859   */\n      tag_237\n      jump\t// in\n    tag_236:\n        /* \"#utility.yul\":7884:7886   */\n      0x60\n        /* \"#utility.yul\":7879:7882   */\n      dup3\n        /* \"#utility.yul\":7875:7887   */\n      add\n        /* \"#utility.yul\":7868:7887   */\n      swap1\n      pop\n        /* \"#utility.yul\":7527:7893   */\n      swap2\n      swap1\n      pop\n      jump\t// out\n        /* \"#utility.yul\":7899:8265   */\n    tag_238:\n        /* \"#utility.yul\":8041:8044   */\n      0x00\n        /* \"#utility.yul\":8062:8129   */\n      tag_240\n        /* \"#utility.yul\":8126:8128   */\n      0x39\n        /* \"#utility.yul\":8121:8124   */\n      dup4\n        /* \"#utility.yul\":8062:8129   */\n      tag_215\n      jump\t// in\n    tag_240:\n        /* \"#utility.yul\":8055:8129   */\n      swap2\n      pop\n        /* \"#utility.yul\":8138:8231   */\n      tag_241\n        /* \"#utility.yul\":8227:8230   */\n      dup3\n        /* \"#utility.yul\":8138:8231   */\n      tag_242\n      jump\t// in\n    tag_241:\n        /* \"#utility.yul\":8256:8258   */\n      0x40\n        /* \"#utility.yul\":8251:8254   */\n      dup3\n        /* \"#utility.yul\":8247:8259   */\n      add\n        /* \"#utility.yul\":8240:8259   */\n      swap1\n      pop\n        /* \"#utility.yul\":7899:8265   */\n      swap2\n      swap1\n      pop\n      jump\t// out\n        /* \"#utility.yul\":8271:8637   */\n    tag_243:\n        /* \"#utility.yul\":8413:8416   */\n      0x00\n        /* \"#utility.yul\":8434:8501   */\n      tag_245\n        /* \"#utility.yul\":8498:8500   */\n      0x20\n        /* \"#utility.yul\":8493:8496   */\n      dup4\n        /* \"#utility.yul\":8434:8501   */\n      tag_215\n      jump\t// in\n    tag_245:\n        /* \"#utility.yul\":8427:8501   */\n      swap2\n      pop\n        /* \"#utility.yul\":8510:8603   */\n      tag_246\n        /* \"#utility.yul\":8599:8602   */\n      dup3\n        /* \"#utility.yul\":8510:8603   */\n      tag_247\n      jump\t// in\n    tag_246:\n        /* \"#utility.yul\":8628:8630   */\n      0x20\n        /* \"#utility.yul\":8623:8626   */\n      dup3\n        /* \"#utility.yul\":8619:8631   */\n      add\n        /* \"#utility.yul\":8612:8631   */\n      swap1\n      pop\n        /* \"#utility.yul\":8271:8637   */\n      swap2\n      swap1\n      pop\n      jump\t// out\n        /* \"#utility.yul\":8643:9009   */\n    tag_248:\n        /* \"#utility.yul\":8785:8788   */\n      0x00\n        /* \"#utility.yul\":8806:8873   */\n      tag_250\n        /* \"#utility.yul\":8870:8872   */\n      0x4d\n        /* \"#utility.yul\":8865:8868   */\n      dup4\n        /* \"#utility.yul\":8806:8873   */\n      tag_215\n      jump\t// in\n    tag_250:\n        /* \"#utility.yul\":8799:8873   */\n      swap2\n      pop\n        /* \"#utility.yul\":8882:8975   */\n      tag_251\n        /* \"#utility.yul\":8971:8974   */\n      dup3\n        /* \"#utility.yul\":8882:8975   */\n      tag_252\n      jump\t// in\n    tag_251:\n        /* \"#utility.yul\":9000:9002   */\n      0x60\n        /* \"#utility.yul\":8995:8998   */\n      dup3\n        /* \"#utility.yul\":8991:9003   */\n      add\n        /* \"#utility.yul\":8984:9003   */\n      swap1\n      pop\n        /* \"#utility.yul\":8643:9009   */\n      swap2\n      swap1\n      pop\n      jump\t// out\n        /* \"#utility.yul\":9015:9133   */\n    tag_253:\n        /* \"#utility.yul\":9102:9126   */\n      tag_255\n        /* \"#utility.yul\":9120:9125   */\n      dup2\n        /* \"#utility.yul\":9102:9126   */\n      tag_256\n      jump\t// in\n    tag_255:\n        /* \"#utility.yul\":9097:9100   */\n      dup3\n        /* \"#utility.yul\":9090:9127   */\n      mstore\n        /* \"#utility.yul\":9015:9133   */\n      pop\n      pop\n      jump\t// out\n        /* \"#utility.yul\":9139:9251   */\n    tag_257:\n        /* \"#utility.yul\":9222:9244   */\n      tag_259\n        /* \"#utility.yul\":9238:9243   */\n      dup2\n        /* \"#utility.yul\":9222:9244   */\n      tag_260\n      jump\t// in\n    tag_259:\n        /* \"#utility.yul\":9217:9220   */\n      dup3\n        /* \"#utility.yul\":9210:9245   */\n      mstore\n        /* \"#utility.yul\":9139:9251   */\n      pop\n      pop\n      jump\t// out\n        /* \"#utility.yul\":9257:9511   */\n    tag_39:\n        /* \"#utility.yul\":9366:9370   */\n      0x00\n        /* \"#utility.yul\":9404:9406   */\n      0x20\n        /* \"#utility.yul\":9393:9402   */\n      dup3\n        /* \"#utility.yul\":9389:9407   */\n      add\n        /* \"#utility.yul\":9381:9407   */\n      swap1\n      pop\n        /* \"#utility.yul\":9417:9504   */\n      tag_262\n        /* \"#utility.yul\":9501:9502   */\n      0x00\n        /* \"#utility.yul\":9490:9499   */\n      dup4\n        /* \"#utility.yul\":9486:9503   */\n      add\n        /* \"#utility.yul\":9477:9483   */\n      dup5\n        /* \"#utility.yul\":9417:9504   */\n      tag_208\n      jump\t// in\n    tag_262:\n        /* \"#utility.yul\":9257:9511   */\n      swap3\n      swap2\n      pop\n      pop\n      jump\t// out\n        /* \"#utility.yul\":9517:9936   */\n    tag_87:\n        /* \"#utility.yul\":9683:9687   */\n      0x00\n        /* \"#utility.yul\":9721:9723   */\n      0x20\n        /* \"#utility.yul\":9710:9719   */\n      dup3\n        /* \"#utility.yul\":9706:9724   */\n      add\n        /* \"#utility.yul\":9698:9724   */\n      swap1\n      pop\n        /* \"#utility.yul\":9770:9779   */\n      dup2\n        /* \"#utility.yul\":9764:9768   */\n      dup2\n        /* \"#utility.yul\":9760:9780   */\n      sub\n        /* \"#utility.yul\":9756:9757   */\n      0x00\n        /* \"#utility.yul\":9745:9754   */\n      dup4\n        /* \"#utility.yul\":9741:9758   */\n      add\n        /* \"#utility.yul\":9734:9781   */\n      mstore\n        /* \"#utility.yul\":9798:9929   */\n      tag_264\n        /* \"#utility.yul\":9924:9928   */\n      dup2\n        /* \"#utility.yul\":9798:9929   */\n      tag_212\n      jump\t// in\n    tag_264:\n        /* \"#utility.yul\":9790:9929   */\n      swap1\n      pop\n        /* \"#utility.yul\":9517:9936   */\n      swap2\n      swap1\n      pop\n      jump\t// out\n        /* \"#utility.yul\":9942:10361   */\n    tag_83:\n        /* \"#utility.yul\":10108:10112   */\n      0x00\n        /* \"#utility.yul\":10146:10148   */\n      0x20\n        /* \"#utility.yul\":10135:10144   */\n      dup3\n        /* \"#utility.yul\":10131:10149   */\n      add\n        /* \"#utility.yul\":10123:10149   */\n      swap1\n      pop\n        /* \"#utility.yul\":10195:10204   */\n      dup2\n        /* \"#utility.yul\":10189:10193   */\n      dup2\n        /* \"#utility.yul\":10185:10205   */\n      sub\n        /* \"#utility.yul\":10181:10182   */\n      0x00\n        /* \"#utility.yul\":10170:10179   */\n      dup4\n        /* \"#utility.yul\":10166:10183   */\n      add\n        /* \"#utility.yul\":10159:10206   */\n      mstore\n        /* \"#utility.yul\":10223:10354   */\n      tag_266\n        /* \"#utility.yul\":10349:10353   */\n      dup2\n        /* \"#utility.yul\":10223:10354   */\n      tag_218\n      jump\t// in\n    tag_266:\n        /* \"#utility.yul\":10215:10354   */\n      swap1\n      pop\n        /* \"#utility.yul\":9942:10361   */\n      swap2\n      swap1\n      pop\n      jump\t// out\n        /* \"#utility.yul\":10367:10786   */\n    tag_74:\n        /* \"#utility.yul\":10533:10537   */\n      0x00\n        /* \"#utility.yul\":10571:10573   */\n      0x20\n        /* \"#utility.yul\":10560:10569   */\n      dup3\n        /* \"#utility.yul\":10556:10574   */\n      add\n        /* \"#utility.yul\":10548:10574   */\n      swap1\n      pop\n        /* \"#utility.yul\":10620:10629   */\n      dup2\n        /* \"#utility.yul\":10614:10618   */\n      dup2\n        /* \"#utility.yul\":10610:10630   */\n      sub\n        /* \"#utility.yul\":10606:10607   */\n      0x00\n        /* \"#utility.yul\":10595:10604   */\n      dup4\n        /* \"#utility.yul\":10591:10608   */\n      add\n        /* \"#utility.yul\":10584:10631   */\n      mstore\n        /* \"#utility.yul\":10648:10779   */\n      tag_268\n        /* \"#utility.yul\":10774:10778   */\n      dup2\n        /* \"#utility.yul\":10648:10779   */\n      tag_223\n      jump\t// in\n    tag_268:\n        /* \"#utility.yul\":10640:10779   */\n      swap1\n      pop\n        /* \"#utility.yul\":10367:10786   */\n      swap2\n      swap1\n      pop\n      jump\t// out\n        /* \"#utility.yul\":10792:11211   */\n    tag_68:\n        /* \"#utility.yul\":10958:10962   */\n      0x00\n        /* \"#utility.yul\":10996:10998   */\n      0x20\n        /* \"#utility.yul\":10985:10994   */\n      dup3\n        /* \"#utility.yul\":10981:10999   */\n      add\n        /* \"#utility.yul\":10973:10999   */\n      swap1\n      pop\n        /* \"#utility.yul\":11045:11054   */\n      dup2\n        /* \"#utility.yul\":11039:11043   */\n      dup2\n        /* \"#utility.yul\":11035:11055   */\n      sub\n        /* \"#utility.yul\":11031:11032   */\n      0x00\n        /* \"#utility.yul\":11020:11029   */\n      dup4\n        /* \"#utility.yul\":11016:11033   */\n      add\n        /* \"#utility.yul\":11009:11056   */\n      mstore\n        /* \"#utility.yul\":11073:11204   */\n      tag_270\n        /* \"#utility.yul\":11199:11203   */\n      dup2\n        /* \"#utility.yul\":11073:11204   */\n      tag_228\n      jump\t// in\n    tag_270:\n        /* \"#utility.yul\":11065:11204   */\n      swap1\n      pop\n        /* \"#utility.yul\":10792:11211   */\n      swap2\n      swap1\n      pop\n      jump\t// out\n        /* \"#utility.yul\":11217:11636   */\n    tag_60:\n        /* \"#utility.yul\":11383:11387   */\n      0x00\n        /* \"#utility.yul\":11421:11423   */\n      0x20\n        /* \"#utility.yul\":11410:11419   */\n      dup3\n        /* \"#utility.yul\":11406:11424   */\n      add\n        /* \"#utility.yul\":11398:11424   */\n      swap1\n      pop\n        /* \"#utility.yul\":11470:11479   */\n      dup2\n        /* \"#utility.yul\":11464:11468   */\n      dup2\n        /* \"#utility.yul\":11460:11480   */\n      sub\n        /* \"#utility.yul\":11456:11457   */\n      0x00\n        /* \"#utility.yul\":11445:11454   */\n      dup4\n        /* \"#utility.yul\":11441:11458   */\n      add\n        /* \"#utility.yul\":11434:11481   */\n      mstore\n        /* \"#utility.yul\":11498:11629   */\n      tag_272\n        /* \"#utility.yul\":11624:11628   */\n      dup2\n        /* \"#utility.yul\":11498:11629   */\n      tag_233\n      jump\t// in\n    tag_272:\n        /* \"#utility.yul\":11490:11629   */\n      swap1\n      pop\n        /* \"#utility.yul\":11217:11636   */\n      swap2\n      swap1\n      pop\n      jump\t// out\n        /* \"#utility.yul\":11642:12061   */\n    tag_77:\n        /* \"#utility.yul\":11808:11812   */\n      0x00\n        /* \"#utility.yul\":11846:11848   */\n      0x20\n        /* \"#utility.yul\":11835:11844   */\n      dup3\n        /* \"#utility.yul\":11831:11849   */\n      add\n        /* \"#utility.yul\":11823:11849   */\n      swap1\n      pop\n        /* \"#utility.yul\":11895:11904   */\n      dup2\n        /* \"#utility.yul\":11889:11893   */\n      dup2\n        /* \"#utility.yul\":11885:11905   */\n      sub\n        /* \"#utility.yul\":11881:11882   */\n      0x00\n        /* \"#utility.yul\":11870:11879   */\n      dup4\n        /* \"#utility.yul\":11866:11883   */\n      add\n        /* \"#utility.yul\":11859:11906   */\n      mstore\n        /* \"#utility.yul\":11923:12054   */\n      tag_274\n        /* \"#utility.yul\":12049:12053   */\n      dup2\n        /* \"#utility.yul\":11923:12054   */\n      tag_238\n      jump\t// in\n    tag_274:\n        /* \"#utility.yul\":11915:12054   */\n      swap1\n      pop\n        /* \"#utility.yul\":11642:12061   */\n      swap2\n      swap1\n      pop\n      jump\t// out\n        /* \"#utility.yul\":12067:12486   */\n    tag_80:\n        /* \"#utility.yul\":12233:12237   */\n      0x00\n        /* \"#utility.yul\":12271:12273   */\n      0x20\n        /* \"#utility.yul\":12260:12269   */\n      dup3\n        /* \"#utility.yul\":12256:12274   */\n      add\n        /* \"#utility.yul\":12248:12274   */\n      swap1\n      pop\n        /* \"#utility.yul\":12320:12329   */\n      dup2\n        /* \"#utility.yul\":12314:12318   */\n      dup2\n        /* \"#utility.yul\":12310:12330   */\n      sub\n        /* \"#utility.yul\":12306:12307   */\n      0x00\n        /* \"#utility.yul\":12295:12304   */\n      dup4\n        /* \"#utility.yul\":12291:12308   */\n      add\n        /* \"#utility.yul\":12284:12331   */\n      mstore\n        /* \"#utility.yul\":12348:12479   */\n      tag_276\n        /* \"#utility.yul\":12474:12478   */\n      dup2\n        /* \"#utility.yul\":12348:12479   */\n      tag_243\n      jump\t// in\n    tag_276:\n        /* \"#utility.yul\":12340:12479   */\n      swap1\n      pop\n        /* \"#utility.yul\":12067:12486   */\n      swap2\n      swap1\n      pop\n      jump\t// out\n        /* \"#utility.yul\":12492:12911   */\n    tag_113:\n        /* \"#utility.yul\":12658:12662   */\n      0x00\n        /* \"#utility.yul\":12696:12698   */\n      0x20\n        /* \"#utility.yul\":12685:12694   */\n      dup3\n        /* \"#utility.yul\":12681:12699   */\n      add\n        /* \"#utility.yul\":12673:12699   */\n      swap1\n      pop\n        /* \"#utility.yul\":12745:12754   */\n      dup2\n        /* \"#utility.yul\":12739:12743   */\n      dup2\n        /* \"#utility.yul\":12735:12755   */\n      sub\n        /* \"#utility.yul\":12731:12732   */\n      0x00\n        /* \"#utility.yul\":12720:12729   */\n      dup4\n        /* \"#utility.yul\":12716:12733   */\n      add\n        /* \"#utility.yul\":12709:12756   */\n      mstore\n        /* \"#utility.yul\":12773:12904   */\n      tag_278\n        /* \"#utility.yul\":12899:12903   */\n      dup2\n        /* \"#utility.yul\":12773:12904   */\n      tag_248\n      jump\t// in\n    tag_278:\n        /* \"#utility.yul\":12765:12904   */\n      swap1\n      pop\n        /* \"#utility.yul\":12492:12911   */\n      swap2\n      swap1\n      pop\n      jump\t// out\n        /* \"#utility.yul\":12917:13139   */\n    tag_22:\n        /* \"#utility.yul\":13010:13014   */\n      0x00\n        /* \"#utility.yul\":13048:13050   */\n      0x20\n        /* \"#utility.yul\":13037:13046   */\n      dup3\n        /* \"#utility.yul\":13033:13051   */\n      add\n        /* \"#utility.yul\":13025:13051   */\n      swap1\n      pop\n        /* \"#utility.yul\":13061:13132   */\n      tag_280\n        /* \"#utility.yul\":13129:13130   */\n      0x00\n        /* \"#utility.yul\":13118:13127   */\n      dup4\n        /* \"#utility.yul\":13114:13131   */\n      add\n        /* \"#utility.yul\":13105:13111   */\n      dup5\n        /* \"#utility.yul\":13061:13132   */\n      tag_253\n      jump\t// in\n    tag_280:\n        /* \"#utility.yul\":12917:13139   */\n      swap3\n      swap2\n      pop\n      pop\n      jump\t// out\n        /* \"#utility.yul\":13145:13920   */\n    tag_119:\n        /* \"#utility.yul\":13378:13382   */\n      0x00\n        /* \"#utility.yul\":13416:13419   */\n      0xc0\n        /* \"#utility.yul\":13405:13414   */\n      dup3\n        /* \"#utility.yul\":13401:13420   */\n      add\n        /* \"#utility.yul\":13393:13420   */\n      swap1\n      pop\n        /* \"#utility.yul\":13430:13501   */\n      tag_282\n        /* \"#utility.yul\":13498:13499   */\n      0x00\n        /* \"#utility.yul\":13487:13496   */\n      dup4\n        /* \"#utility.yul\":13483:13500   */\n      add\n        /* \"#utility.yul\":13474:13480   */\n      dup10\n        /* \"#utility.yul\":13430:13501   */\n      tag_253\n      jump\t// in\n    tag_282:\n        /* \"#utility.yul\":13511:13583   */\n      tag_283\n        /* \"#utility.yul\":13579:13581   */\n      0x20\n        /* \"#utility.yul\":13568:13577   */\n      dup4\n        /* \"#utility.yul\":13564:13582   */\n      add\n        /* \"#utility.yul\":13555:13561   */\n      dup9\n        /* \"#utility.yul\":13511:13583   */\n      tag_253\n      jump\t// in\n    tag_283:\n        /* \"#utility.yul\":13593:13665   */\n      tag_284\n        /* \"#utility.yul\":13661:13663   */\n      0x40\n        /* \"#utility.yul\":13650:13659   */\n      dup4\n        /* \"#utility.yul\":13646:13664   */\n      add\n        /* \"#utility.yul\":13637:13643   */\n      dup8\n        /* \"#utility.yul\":13593:13665   */\n      tag_253\n      jump\t// in\n    tag_284:\n        /* \"#utility.yul\":13675:13747   */\n      tag_285\n        /* \"#utility.yul\":13743:13745   */\n      0x60\n        /* \"#utility.yul\":13732:13741   */\n      dup4\n        /* \"#utility.yul\":13728:13746   */\n      add\n        /* \"#utility.yul\":13719:13725   */\n      dup7\n        /* \"#utility.yul\":13675:13747   */\n      tag_204\n      jump\t// in\n    tag_285:\n        /* \"#utility.yul\":13757:13830   */\n      tag_286\n        /* \"#utility.yul\":13825:13828   */\n      0x80\n        /* \"#utility.yul\":13814:13823   */\n      dup4\n        /* \"#utility.yul\":13810:13829   */\n      add\n        /* \"#utility.yul\":13801:13807   */\n      dup6\n        /* \"#utility.yul\":13757:13830   */\n      tag_204\n      jump\t// in\n    tag_286:\n        /* \"#utility.yul\":13840:13913   */\n      tag_287\n        /* \"#utility.yul\":13908:13911   */\n      0xa0\n        /* \"#utility.yul\":13897:13906   */\n      dup4\n        /* \"#utility.yul\":13893:13912   */\n      add\n        /* \"#utility.yul\":13884:13890   */\n      dup5\n        /* \"#utility.yul\":13840:13913   */\n      tag_253\n      jump\t// in\n    tag_287:\n        /* \"#utility.yul\":13145:13920   */\n      swap8\n      swap7\n      pop\n      pop\n      pop\n      pop\n      pop\n      pop\n      pop\n      jump\t// out\n        /* \"#utility.yul\":13926:14582   */\n    tag_95:\n        /* \"#utility.yul\":14127:14131   */\n      0x00\n        /* \"#utility.yul\":14165:14168   */\n      0xa0\n        /* \"#utility.yul\":14154:14163   */\n      dup3\n        /* \"#utility.yul\":14150:14169   */\n      add\n        /* \"#utility.yul\":14142:14169   */\n      swap1\n      pop\n        /* \"#utility.yul\":14179:14250   */\n      tag_289\n        /* \"#utility.yul\":14247:14248   */\n      0x00\n        /* \"#utility.yul\":14236:14245   */\n      dup4\n        /* \"#utility.yul\":14232:14249   */\n      add\n        /* \"#utility.yul\":14223:14229   */\n      dup9\n        /* \"#utility.yul\":14179:14250   */\n      tag_253\n      jump\t// in\n    tag_289:\n        /* \"#utility.yul\":14260:14332   */\n      tag_290\n        /* \"#utility.yul\":14328:14330   */\n      0x20\n        /* \"#utility.yul\":14317:14326   */\n      dup4\n        /* \"#utility.yul\":14313:14331   */\n      add\n        /* \"#utility.yul\":14304:14310   */\n      dup8\n        /* \"#utility.yul\":14260:14332   */\n      tag_253\n      jump\t// in\n    tag_290:\n        /* \"#utility.yul\":14342:14414   */\n      tag_291\n        /* \"#utility.yul\":14410:14412   */\n      0x40\n        /* \"#utility.yul\":14399:14408   */\n      dup4\n        /* \"#utility.yul\":14395:14413   */\n      add\n        /* \"#utility.yul\":14386:14392   */\n      dup7\n        /* \"#utility.yul\":14342:14414   */\n      tag_253\n      jump\t// in\n    tag_291:\n        /* \"#utility.yul\":14424:14496   */\n      tag_292\n        /* \"#utility.yul\":14492:14494   */\n      0x60\n        /* \"#utility.yul\":14481:14490   */\n      dup4\n        /* \"#utility.yul\":14477:14495   */\n      add\n        /* \"#utility.yul\":14468:14474   */\n      dup6\n        /* \"#utility.yul\":14424:14496   */\n      tag_204\n      jump\t// in\n    tag_292:\n        /* \"#utility.yul\":14506:14575   */\n      tag_293\n        /* \"#utility.yul\":14570:14573   */\n      0x80\n        /* \"#utility.yul\":14559:14568   */\n      dup4\n        /* \"#utility.yul\":14555:14574   */\n      add\n        /* \"#utility.yul\":14546:14552   */\n      dup5\n        /* \"#utility.yul\":14506:14575   */\n      tag_257\n      jump\t// in\n    tag_293:\n        /* \"#utility.yul\":13926:14582   */\n      swap7\n      swap6\n      pop\n      pop\n      pop\n      pop\n      pop\n      pop\n      jump\t// out\n        /* \"#utility.yul\":14588:15133   */\n    tag_102:\n        /* \"#utility.yul\":14761:14765   */\n      0x00\n        /* \"#utility.yul\":14799:14802   */\n      0x80\n        /* \"#utility.yul\":14788:14797   */\n      dup3\n        /* \"#utility.yul\":14784:14803   */\n      add\n        /* \"#utility.yul\":14776:14803   */\n      swap1\n      pop\n        /* \"#utility.yul\":14813:14884   */\n      tag_295\n        /* \"#utility.yul\":14881:14882   */\n      0x00\n        /* \"#utility.yul\":14870:14879   */\n      dup4\n        /* \"#utility.yul\":14866:14883   */\n      add\n        /* \"#utility.yul\":14857:14863   */\n      dup8\n        /* \"#utility.yul\":14813:14884   */\n      tag_253\n      jump\t// in\n    tag_295:\n        /* \"#utility.yul\":14894:14966   */\n      tag_296\n        /* \"#utility.yul\":14962:14964   */\n      0x20\n        /* \"#utility.yul\":14951:14960   */\n      dup4\n        /* \"#utility.yul\":14947:14965   */\n      add\n        /* \"#utility.yul\":14938:14944   */\n      dup7\n        /* \"#utility.yul\":14894:14966   */\n      tag_253\n      jump\t// in\n    tag_296:\n        /* \"#utility.yul\":14976:15048   */\n      tag_297\n        /* \"#utility.yul\":15044:15046   */\n      0x40\n        /* \"#utility.yul\":15033:15042   */\n      dup4\n        /* \"#utility.yul\":15029:15047   */\n      add\n        /* \"#utility.yul\":15020:15026   */\n      dup6\n        /* \"#utility.yul\":14976:15048   */\n      tag_253\n      jump\t// in\n    tag_297:\n        /* \"#utility.yul\":15058:15126   */\n      tag_298\n        /* \"#utility.yul\":15122:15124   */\n      0x60\n        /* \"#utility.yul\":15111:15120   */\n      dup4\n        /* \"#utility.yul\":15107:15125   */\n      add\n        /* \"#utility.yul\":15098:15104   */\n      dup5\n        /* \"#utility.yul\":15058:15126   */\n      tag_257\n      jump\t// in\n    tag_298:\n        /* \"#utility.yul\":14588:15133   */\n      swap6\n      swap5\n      pop\n      pop\n      pop\n      pop\n      pop\n      jump\t// out\n        /* \"#utility.yul\":15139:15268   */\n    tag_137:\n        /* \"#utility.yul\":15173:15179   */\n      0x00\n        /* \"#utility.yul\":15200:15220   */\n      tag_300\n      tag_301\n      jump\t// in\n    tag_300:\n        /* \"#utility.yul\":15190:15220   */\n      swap1\n      pop\n        /* \"#utility.yul\":15229:15262   */\n      tag_302\n        /* \"#utility.yul\":15257:15261   */\n      dup3\n        /* \"#utility.yul\":15249:15255   */\n      dup3\n        /* \"#utility.yul\":15229:15262   */\n      tag_303\n      jump\t// in\n    tag_302:\n        /* \"#utility.yul\":15139:15268   */\n      swap2\n      swap1\n      pop\n      jump\t// out\n        /* \"#utility.yul\":15274:15349   */\n    tag_301:\n        /* \"#utility.yul\":15307:15313   */\n      0x00\n        /* \"#utility.yul\":15340:15342   */\n      0x40\n        /* \"#utility.yul\":15334:15343   */\n      mload\n        /* \"#utility.yul\":15324:15343   */\n      swap1\n      pop\n        /* \"#utility.yul\":15274:15349   */\n      swap1\n      jump\t// out\n        /* \"#utility.yul\":15355:15663   */\n    tag_136:\n        /* \"#utility.yul\":15417:15421   */\n      0x00\n        /* \"#utility.yul\":15507:15525   */\n      0xffffffffffffffff\n        /* \"#utility.yul\":15499:15505   */\n      dup3\n        /* \"#utility.yul\":15496:15526   */\n      gt\n        /* \"#utility.yul\":15493:15549   */\n      iszero\n      tag_306\n      jumpi\n        /* \"#utility.yul\":15529:15547   */\n      tag_307\n      tag_308\n      jump\t// in\n    tag_307:\n        /* \"#utility.yul\":15493:15549   */\n    tag_306:\n        /* \"#utility.yul\":15567:15596   */\n      tag_309\n        /* \"#utility.yul\":15589:15595   */\n      dup3\n        /* \"#utility.yul\":15567:15596   */\n      tag_310\n      jump\t// in\n    tag_309:\n        /* \"#utility.yul\":15559:15596   */\n      swap1\n      pop\n        /* \"#utility.yul\":15651:15655   */\n      0x20\n        /* \"#utility.yul\":15645:15649   */\n      dup2\n        /* \"#utility.yul\":15641:15656   */\n      add\n        /* \"#utility.yul\":15633:15656   */\n      swap1\n      pop\n        /* \"#utility.yul\":15355:15663   */\n      swap2\n      swap1\n      pop\n      jump\t// out\n        /* \"#utility.yul\":15669:15838   */\n    tag_215:\n        /* \"#utility.yul\":15753:15764   */\n      0x00\n        /* \"#utility.yul\":15787:15793   */\n      dup3\n        /* \"#utility.yul\":15782:15785   */\n      dup3\n        /* \"#utility.yul\":15775:15794   */\n      mstore\n        /* \"#utility.yul\":15827:15831   */\n      0x20\n        /* \"#utility.yul\":15822:15825   */\n      dup3\n        /* \"#utility.yul\":15818:15832   */\n      add\n        /* \"#utility.yul\":15803:15832   */\n      swap1\n      pop\n        /* \"#utility.yul\":15669:15838   */\n      swap3\n      swap2\n      pop\n      pop\n      jump\t// out\n        /* \"#utility.yul\":15844:15940   */\n    tag_207:\n        /* \"#utility.yul\":15881:15888   */\n      0x00\n        /* \"#utility.yul\":15910:15934   */\n      tag_313\n        /* \"#utility.yul\":15928:15933   */\n      dup3\n        /* \"#utility.yul\":15910:15934   */\n      tag_314\n      jump\t// in\n    tag_313:\n        /* \"#utility.yul\":15899:15934   */\n      swap1\n      pop\n        /* \"#utility.yul\":15844:15940   */\n      swap2\n      swap1\n      pop\n      jump\t// out\n        /* \"#utility.yul\":15946:16093   */\n    tag_315:\n        /* \"#utility.yul\":16001:16008   */\n      0x00\n        /* \"#utility.yul\":16030:16035   */\n      dup2\n        /* \"#utility.yul\":16019:16035   */\n      swap1\n      pop\n        /* \"#utility.yul\":16036:16087   */\n      tag_317\n        /* \"#utility.yul\":16081:16086   */\n      dup3\n        /* \"#utility.yul\":16036:16087   */\n      tag_318\n      jump\t// in\n    tag_317:\n        /* \"#utility.yul\":15946:16093   */\n      swap2\n      swap1\n      pop\n      jump\t// out\n        /* \"#utility.yul\":16099:16225   */\n    tag_314:\n        /* \"#utility.yul\":16136:16143   */\n      0x00\n        /* \"#utility.yul\":16176:16218   */\n      0xffffffffffffffffffffffffffffffffffffffff\n        /* \"#utility.yul\":16169:16174   */\n      dup3\n        /* \"#utility.yul\":16165:16219   */\n      and\n        /* \"#utility.yul\":16154:16219   */\n      swap1\n      pop\n        /* \"#utility.yul\":16099:16225   */\n      swap2\n      swap1\n      pop\n      jump\t// out\n        /* \"#utility.yul\":16231:16308   */\n    tag_256:\n        /* \"#utility.yul\":16268:16275   */\n      0x00\n        /* \"#utility.yul\":16297:16302   */\n      dup2\n        /* \"#utility.yul\":16286:16302   */\n      swap1\n      pop\n        /* \"#utility.yul\":16231:16308   */\n      swap2\n      swap1\n      pop\n      jump\t// out\n        /* \"#utility.yul\":16314:16400   */\n    tag_260:\n        /* \"#utility.yul\":16349:16356   */\n      0x00\n        /* \"#utility.yul\":16389:16393   */\n      0xff\n        /* \"#utility.yul\":16382:16387   */\n      dup3\n        /* \"#utility.yul\":16378:16394   */\n      and\n        /* \"#utility.yul\":16367:16394   */\n      swap1\n      pop\n        /* \"#utility.yul\":16314:16400   */\n      swap2\n      swap1\n      pop\n      jump\t// out\n        /* \"#utility.yul\":16406:16553   */\n    tag_211:\n        /* \"#utility.yul\":16472:16481   */\n      0x00\n        /* \"#utility.yul\":16505:16547   */\n      tag_323\n        /* \"#utility.yul\":16541:16546   */\n      dup3\n        /* \"#utility.yul\":16505:16547   */\n      tag_315\n      jump\t// in\n    tag_323:\n        /* \"#utility.yul\":16492:16547   */\n      swap1\n      pop\n        /* \"#utility.yul\":16406:16553   */\n      swap2\n      swap1\n      pop\n      jump\t// out\n        /* \"#utility.yul\":16559:16713   */\n    tag_142:\n        /* \"#utility.yul\":16643:16649   */\n      dup3\n        /* \"#utility.yul\":16638:16641   */\n      dup2\n        /* \"#utility.yul\":16633:16636   */\n      dup4\n        /* \"#utility.yul\":16620:16650   */\n      calldatacopy\n        /* \"#utility.yul\":16705:16706   */\n      0x00\n        /* \"#utility.yul\":16696:16702   */\n      dup4\n        /* \"#utility.yul\":16691:16694   */\n      dup4\n        /* \"#utility.yul\":16687:16703   */\n      add\n        /* \"#utility.yul\":16680:16707   */\n      mstore\n        /* \"#utility.yul\":16559:16713   */\n      pop\n      pop\n      pop\n      jump\t// out\n        /* \"#utility.yul\":16719:17039   */\n    tag_121:\n        /* \"#utility.yul\":16763:16769   */\n      0x00\n        /* \"#utility.yul\":16800:16801   */\n      0x02\n        /* \"#utility.yul\":16794:16798   */\n      dup3\n        /* \"#utility.yul\":16790:16802   */\n      div\n        /* \"#utility.yul\":16780:16802   */\n      swap1\n      pop\n        /* \"#utility.yul\":16847:16848   */\n      0x01\n        /* \"#utility.yul\":16841:16845   */\n      dup3\n        /* \"#utility.yul\":16837:16849   */\n      and\n        /* \"#utility.yul\":16868:16886   */\n      dup1\n        /* \"#utility.yul\":16858:16939   */\n      tag_326\n      jumpi\n        /* \"#utility.yul\":16924:16928   */\n      0x7f\n        /* \"#utility.yul\":16916:16922   */\n      dup3\n        /* \"#utility.yul\":16912:16929   */\n      and\n        /* \"#utility.yul\":16902:16929   */\n      swap2\n      pop\n        /* \"#utility.yul\":16858:16939   */\n    tag_326:\n        /* \"#utility.yul\":16986:16988   */\n      0x20\n        /* \"#utility.yul\":16978:16984   */\n      dup3\n        /* \"#utility.yul\":16975:16989   */\n      lt\n        /* \"#utility.yul\":16955:16973   */\n      dup2\n        /* \"#utility.yul\":16952:16990   */\n      eq\n        /* \"#utility.yul\":16949:17033   */\n      iszero\n      tag_327\n      jumpi\n        /* \"#utility.yul\":17005:17023   */\n      tag_328\n      tag_329\n      jump\t// in\n    tag_328:\n        /* \"#utility.yul\":16949:17033   */\n    tag_327:\n        /* \"#utility.yul\":16770:17039   */\n      pop\n        /* \"#utility.yul\":16719:17039   */\n      swap2\n      swap1\n      pop\n      jump\t// out\n        /* \"#utility.yul\":17045:17326   */\n    tag_303:\n        /* \"#utility.yul\":17128:17155   */\n      tag_331\n        /* \"#utility.yul\":17150:17154   */\n      dup3\n        /* \"#utility.yul\":17128:17155   */\n      tag_310\n      jump\t// in\n    tag_331:\n        /* \"#utility.yul\":17120:17126   */\n      dup2\n        /* \"#utility.yul\":17116:17156   */\n      add\n        /* \"#utility.yul\":17258:17264   */\n      dup2\n        /* \"#utility.yul\":17246:17256   */\n      dup2\n        /* \"#utility.yul\":17243:17265   */\n      lt\n        /* \"#utility.yul\":17222:17240   */\n      0xffffffffffffffff\n        /* \"#utility.yul\":17210:17220   */\n      dup3\n        /* \"#utility.yul\":17207:17241   */\n      gt\n        /* \"#utility.yul\":17204:17266   */\n      or\n        /* \"#utility.yul\":17201:17289   */\n      iszero\n      tag_332\n      jumpi\n        /* \"#utility.yul\":17269:17287   */\n      tag_333\n      tag_308\n      jump\t// in\n    tag_333:\n        /* \"#utility.yul\":17201:17289   */\n    tag_332:\n        /* \"#utility.yul\":17309:17319   */\n      dup1\n        /* \"#utility.yul\":17305:17307   */\n      0x40\n        /* \"#utility.yul\":17298:17320   */\n      mstore\n        /* \"#utility.yul\":17088:17326   */\n      pop\n        /* \"#utility.yul\":17045:17326   */\n      pop\n      pop\n      jump\t// out\n        /* \"#utility.yul\":17332:17565   */\n    tag_90:\n        /* \"#utility.yul\":17371:17374   */\n      0x00\n        /* \"#utility.yul\":17394:17418   */\n      tag_335\n        /* \"#utility.yul\":17412:17417   */\n      dup3\n        /* \"#utility.yul\":17394:17418   */\n      tag_256\n      jump\t// in\n    tag_335:\n        /* \"#utility.yul\":17385:17418   */\n      swap2\n      pop\n        /* \"#utility.yul\":17440:17506   */\n      0xffffffffffffffffffffffffffffffffffffffffffffffffffffffffffffffff\n        /* \"#utility.yul\":17433:17438   */\n      dup3\n        /* \"#utility.yul\":17430:17507   */\n      eq\n        /* \"#utility.yul\":17427:17530   */\n      iszero\n      tag_336\n      jumpi\n        /* \"#utility.yul\":17510:17528   */\n      tag_337\n      tag_338\n      jump\t// in\n    tag_337:\n        /* \"#utility.yul\":17427:17530   */\n    tag_336:\n        /* \"#utility.yul\":17557:17558   */\n      0x01\n        /* \"#utility.yul\":17550:17555   */\n      dup3\n        /* \"#utility.yul\":17546:17559   */\n      add\n        /* \"#utility.yul\":17539:17559   */\n      swap1\n      pop\n        /* \"#utility.yul\":17332:17565   */\n      swap2\n      swap1\n      pop\n      jump\t// out\n        /* \"#utility.yul\":17571:17751   */\n    tag_338:\n        /* \"#utility.yul\":17619:17696   */\n      0x4e487b7100000000000000000000000000000000000000000000000000000000\n        /* \"#utility.yul\":17616:17617   */\n      0x00\n        /* \"#utility.yul\":17609:17697   */\n      mstore\n        /* \"#utility.yul\":17716:17720   */\n      0x11\n        /* \"#utility.yul\":17713:17714   */\n      0x04\n        /* \"#utility.yul\":17706:17721   */\n      mstore\n        /* \"#utility.yul\":17740:17744   */\n      0x24\n        /* \"#utility.yul\":17737:17738   */\n      0x00\n        /* \"#utility.yul\":17730:17745   */\n      revert\n        /* \"#utility.yul\":17757:17937   */\n    tag_63:\n        /* \"#utility.yul\":17805:17882   */\n      0x4e487b7100000000000000000000000000000000000000000000000000000000\n        /* \"#utility.yul\":17802:17803   */\n      0x00\n        /* \"#utility.yul\":17795:17883   */\n      mstore\n        /* \"#utility.yul\":17902:17906   */\n      0x21\n        /* \"#utility.yul\":17899:17900   */\n      0x04\n        /* \"#utility.yul\":17892:17907   */\n      mstore\n        /* \"#utility.yul\":17926:17930   */\n      0x24\n        /* \"#utility.yul\":17923:17924   */\n      0x00\n        /* \"#utility.yul\":17916:17931   */\n      revert\n        /* \"#utility.yul\":17943:18123   */\n    tag_329:\n        /* \"#utility.yul\":17991:18068   */\n      0x4e487b7100000000000000000000000000000000000000000000000000000000\n        /* \"#utility.yul\":17988:17989   */\n      0x00\n        /* \"#utility.yul\":17981:18069   */\n      mstore\n        /* \"#utility.yul\":18088:18092   */\n      0x22\n        /* \"#utility.yul\":18085:18086   */\n      0x04\n        /* \"#utility.yul\":18078:18093   */\n      mstore\n        /* \"#utility.yul\":18112:18116   */\n      0x24\n        /* \"#utility.yul\":18109:18110   */\n      0x00\n        /* \"#utility.yul\":18102:18117   */\n      revert\n        /* \"#utility.yul\":18129:18309   */\n    tag_308:\n        /* \"#utility.yul\":18177:18254   */\n      0x4e487b7100000000000000000000000000000000000000000000000000000000\n        /* \"#utility.yul\":18174:18175   */\n      0x00\n        /* \"#utility.yul\":18167:18255   */\n      mstore\n        /* \"#utility.yul\":18274:18278   */\n      0x41\n        /* \"#utility.yul\":18271:18272   */\n      0x04\n        /* \"#utility.yul\":18264:18279   */\n      mstore\n        /* \"#utility.yul\":18298:18302   */\n      0x24\n        /* \"#utility.yul\":18295:18296   */\n      0x00\n        /* \"#utility.yul\":18288:18303   */\n      revert\n        /* \"#utility.yul\":18315:18432   */\n    tag_151:\n        /* \"#utility.yul\":18424:18425   */\n      0x00\n        /* \"#utility.yul\":18421:18422   */\n      dup1\n        /* \"#utility.yul\":18414:18426   */\n      revert\n        /* \"#utility.yul\":18438:18555   */\n    tag_140:\n        /* \"#utility.yul\":18547:18548   */\n      0x00\n        /* \"#utility.yul\":18544:18545   */\n      dup1\n        /* \"#utility.yul\":18537:18549   */\n      revert\n        /* \"#utility.yul\":18561:18678   */\n    tag_184:\n        /* \"#utility.yul\":18670:18671   */\n      0x00\n        /* \"#utility.yul\":18667:18668   */\n      dup1\n        /* \"#utility.yul\":18660:18672   */\n      revert\n        /* \"#utility.yul\":18684:18801   */\n    tag_164:\n        /* \"#utility.yul\":18793:18794   */\n      0x00\n        /* \"#utility.yul\":18790:18791   */\n      dup1\n        /* \"#utility.yul\":18783:18795   */\n      revert\n        /* \"#utility.yul\":18807:18909   */\n    tag_310:\n        /* \"#utility.yul\":18848:18854   */\n      0x00\n        /* \"#utility.yul\":18899:18901   */\n      0x1f\n        /* \"#utility.yul\":18895:18902   */\n      not\n        /* \"#utility.yul\":18890:18892   */\n      0x1f\n        /* \"#utility.yul\":18883:18888   */\n      dup4\n        /* \"#utility.yul\":18879:18893   */\n      add\n        /* \"#utility.yul\":18875:18903   */\n      and\n        /* \"#utility.yul\":18865:18903   */\n      swap1\n      pop\n        /* \"#utility.yul\":18807:18909   */\n      swap2\n      swap1\n      pop\n      jump\t// out\n        /* \"#utility.yul\":18915:19226   */\n    tag_217:\n        /* \"#utility.yul\":19055:19089   */\n      0x596f752068617665206e6f7420696e707574206120726967687420766f74652e\n        /* \"#utility.yul\":19051:19052   */\n      0x00\n        /* \"#utility.yul\":19043:19049   */\n      dup3\n        /* \"#utility.yul\":19039:19053   */\n      add\n        /* \"#utility.yul\":19032:19090   */\n      mstore\n        /* \"#utility.yul\":19124:19158   */\n      0x20596f752063616e2065697468657220766f7465203120666f72205265717565\n        /* \"#utility.yul\":19119:19121   */\n      0x20\n        /* \"#utility.yul\":19111:19117   */\n      dup3\n        /* \"#utility.yul\":19107:19122   */\n      add\n        /* \"#utility.yul\":19100:19159   */\n      mstore\n        /* \"#utility.yul\":19193:19218   */\n      0x73746572206f72203220666f722050726f76696465722e000000000000000000\n        /* \"#utility.yul\":19188:19190   */\n      0x40\n        /* \"#utility.yul\":19180:19186   */\n      dup3\n        /* \"#utility.yul\":19176:19191   */\n      add\n        /* \"#utility.yul\":19169:19219   */\n      mstore\n        /* \"#utility.yul\":18915:19226   */\n      pop\n      jump\t// out\n        /* \"#utility.yul\":19232:19464   */\n    tag_222:\n        /* \"#utility.yul\":19372:19406   */\n      0x596f75206861766520616c726561647920766f7465642c20796f752063616e6e\n        /* \"#utility.yul\":19368:19369   */\n      0x00\n        /* \"#utility.yul\":19360:19366   */\n      dup3\n        /* \"#utility.yul\":19356:19370   */\n      add\n        /* \"#utility.yul\":19349:19407   */\n      mstore\n        /* \"#utility.yul\":19441:19456   */\n      0x6f7420766f746520616761696e00000000000000000000000000000000000000\n        /* \"#utility.yul\":19436:19438   */\n      0x20\n        /* \"#utility.yul\":19428:19434   */\n      dup3\n        /* \"#utility.yul\":19424:19439   */\n      add\n        /* \"#utility.yul\":19417:19457   */\n      mstore\n        /* \"#utility.yul\":19232:19464   */\n      pop\n      jump\t// out\n        /* \"#utility.yul\":19470:19705   */\n    tag_227:\n        /* \"#utility.yul\":19610:19644   */\n      0x596f7520726169736564207468697320636f6e666c6963742e20596f75206361\n        /* \"#utility.yul\":19606:19607   */\n      0x00\n        /* \"#utility.yul\":19598:19604   */\n      dup3\n        /* \"#utility.yul\":19594:19608   */\n      add\n        /* \"#utility.yul\":19587:19645   */\n      mstore\n        /* \"#utility.yul\":19679:19697   */\n      0x6e6e6f7420766f7465206f6e2069742e00000000000000000000000000000000\n        /* \"#utility.yul\":19674:19676   */\n      0x20\n        /* \"#utility.yul\":19666:19672   */\n      dup3\n        /* \"#utility.yul\":19662:19677   */\n      add\n        /* \"#utility.yul\":19655:19698   */\n      mstore\n        /* \"#utility.yul\":19470:19705   */\n      pop\n      jump\t// out\n        /* \"#utility.yul\":19711:19959   */\n    tag_232:\n        /* \"#utility.yul\":19851:19885   */\n      0x566f74696e6720686173206e6f74206265656e20636f6d706c65746564207965\n        /* \"#utility.yul\":19847:19848   */\n      0x00\n        /* \"#utility.yul\":19839:19845   */\n      dup3\n        /* \"#utility.yul\":19835:19849   */\n      add\n        /* \"#utility.yul\":19828:19886   */\n      mstore\n        /* \"#utility.yul\":19920:19951   */\n      0x742e20506c65617365207761697420666f7220697420746f20656e642e000000\n        /* \"#utility.yul\":19915:19917   */\n      0x20\n        /* \"#utility.yul\":19907:19913   */\n      dup3\n        /* \"#utility.yul\":19903:19918   */\n      add\n        /* \"#utility.yul\":19896:19952   */\n      mstore\n        /* \"#utility.yul\":19711:19959   */\n      pop\n      jump\t// out\n        /* \"#utility.yul\":19965:20263   */\n    tag_237:\n        /* \"#utility.yul\":20105:20139   */\n      0x4e6f742065766572796f6e652068617320766f7465642c20706c656173652070\n        /* \"#utility.yul\":20101:20102   */\n      0x00\n        /* \"#utility.yul\":20093:20099   */\n      dup3\n        /* \"#utility.yul\":20089:20103   */\n      add\n        /* \"#utility.yul\":20082:20140   */\n      mstore\n        /* \"#utility.yul\":20174:20208   */\n      0x726f6d707420616c6c206f74686572206d656d62657273206f662070726f6a65\n        /* \"#utility.yul\":20169:20171   */\n      0x20\n        /* \"#utility.yul\":20161:20167   */\n      dup3\n        /* \"#utility.yul\":20157:20172   */\n      add\n        /* \"#utility.yul\":20150:20209   */\n      mstore\n        /* \"#utility.yul\":20243:20255   */\n      0x637420746f20766f746500000000000000000000000000000000000000000000\n        /* \"#utility.yul\":20238:20240   */\n      0x40\n        /* \"#utility.yul\":20230:20236   */\n      dup3\n        /* \"#utility.yul\":20226:20241   */\n      add\n        /* \"#utility.yul\":20219:20256   */\n      mstore\n        /* \"#utility.yul\":19965:20263   */\n      pop\n      jump\t// out\n        /* \"#utility.yul\":20269:20513   */\n    tag_242:\n        /* \"#utility.yul\":20409:20443   */\n      0x596f752061726520696e766f6c76656420696e207468697320636f6e666c6963\n        /* \"#utility.yul\":20405:20406   */\n      0x00\n        /* \"#utility.yul\":20397:20403   */\n      dup3\n        /* \"#utility.yul\":20393:20407   */\n      add\n        /* \"#utility.yul\":20386:20444   */\n      mstore\n        /* \"#utility.yul\":20478:20505   */\n      0x742e20596f752063616e6e6f7420766f7465206f6e2069742e00000000000000\n        /* \"#utility.yul\":20473:20475   */\n      0x20\n        /* \"#utility.yul\":20465:20471   */\n      dup3\n        /* \"#utility.yul\":20461:20476   */\n      add\n        /* \"#utility.yul\":20454:20506   */\n      mstore\n        /* \"#utility.yul\":20269:20513   */\n      pop\n      jump\t// out\n        /* \"#utility.yul\":20519:20701   */\n    tag_247:\n        /* \"#utility.yul\":20659:20693   */\n      0x456e6f75676820766f7465732068617665206265656e20636f6c6c6563746564\n        /* \"#utility.yul\":20655:20656   */\n      0x00\n        /* \"#utility.yul\":20647:20653   */\n      dup3\n        /* \"#utility.yul\":20643:20657   */\n      add\n        /* \"#utility.yul\":20636:20694   */\n      mstore\n        /* \"#utility.yul\":20519:20701   */\n      pop\n      jump\t// out\n        /* \"#utility.yul\":20707:21008   */\n    tag_252:\n        /* \"#utility.yul\":20847:20881   */\n      0x436f6e666c6963742068617320616c7265616479206265656e20637265617465\n        /* \"#utility.yul\":20843:20844   */\n      0x00\n        /* \"#utility.yul\":20835:20841   */\n      dup3\n        /* \"#utility.yul\":20831:20845   */\n      add\n        /* \"#utility.yul\":20824:20882   */\n      mstore\n        /* \"#utility.yul\":20916:20950   */\n      0x642e20506c6561736520646f206e6f7420637265617465206d6f726520746861\n        /* \"#utility.yul\":20911:20913   */\n      0x20\n        /* \"#utility.yul\":20903:20909   */\n      dup3\n        /* \"#utility.yul\":20899:20914   */\n      add\n        /* \"#utility.yul\":20892:20951   */\n      mstore\n        /* \"#utility.yul\":20985:21000   */\n      0x6e203120636f6e666c6963742e00000000000000000000000000000000000000\n        /* \"#utility.yul\":20980:20982   */\n      0x40\n        /* \"#utility.yul\":20972:20978   */\n      dup3\n        /* \"#utility.yul\":20968:20983   */\n      add\n        /* \"#utility.yul\":20961:21001   */\n      mstore\n        /* \"#utility.yul\":20707:21008   */\n      pop\n      jump\t// out\n        /* \"#utility.yul\":21014:21137   */\n    tag_318:\n        /* \"#utility.yul\":21105:21106   */\n      0x03\n        /* \"#utility.yul\":21098:21103   */\n      dup2\n        /* \"#utility.yul\":21095:21107   */\n      lt\n        /* \"#utility.yul\":21085:21131   */\n      tag_357\n      jumpi\n        /* \"#utility.yul\":21111:21129   */\n      tag_358\n      tag_63\n      jump\t// in\n    tag_358:\n        /* \"#utility.yul\":21085:21131   */\n    tag_357:\n        /* \"#utility.yul\":21014:21137   */\n      pop\n      jump\t// out\n        /* \"#utility.yul\":21143:21265   */\n    tag_146:\n        /* \"#utility.yul\":21216:21240   */\n      tag_360\n        /* \"#utility.yul\":21234:21239   */\n      dup2\n        /* \"#utility.yul\":21216:21240   */\n      tag_207\n      jump\t// in\n    tag_360:\n        /* \"#utility.yul\":21209:21214   */\n      dup2\n        /* \"#utility.yul\":21206:21241   */\n      eq\n        /* \"#utility.yul\":21196:21259   */\n      tag_361\n      jumpi\n        /* \"#utility.yul\":21255:21256   */\n      0x00\n        /* \"#utility.yul\":21252:21253   */\n      dup1\n        /* \"#utility.yul\":21245:21257   */\n      revert\n        /* \"#utility.yul\":21196:21259   */\n    tag_361:\n        /* \"#utility.yul\":21143:21265   */\n      pop\n      jump\t// out\n        /* \"#utility.yul\":21271:21393   */\n    tag_156:\n        /* \"#utility.yul\":21344:21368   */\n      tag_363\n        /* \"#utility.yul\":21362:21367   */\n      dup2\n        /* \"#utility.yul\":21344:21368   */\n      tag_256\n      jump\t// in\n    tag_363:\n        /* \"#utility.yul\":21337:21342   */\n      dup2\n        /* \"#utility.yul\":21334:21369   */\n      eq\n        /* \"#utility.yul\":21324:21387   */\n      tag_364\n      jumpi\n        /* \"#utility.yul\":21383:21384   */\n      0x00\n        /* \"#utility.yul\":21380:21381   */\n      dup1\n        /* \"#utility.yul\":21373:21385   */\n      revert\n        /* \"#utility.yul\":21324:21387   */\n    tag_364:\n        /* \"#utility.yul\":21271:21393   */\n      pop\n      jump\t// out\n        /* \"#utility.yul\":21399:21517   */\n    tag_160:\n        /* \"#utility.yul\":21470:21492   */\n      tag_366\n        /* \"#utility.yul\":21486:21491   */\n      dup2\n        /* \"#utility.yul\":21470:21492   */\n      tag_260\n      jump\t// in\n    tag_366:\n        /* \"#utility.yul\":21463:21468   */\n      dup2\n        /* \"#utility.yul\":21460:21493   */\n      eq\n        /* \"#utility.yul\":21450:21511   */\n      tag_367\n      jumpi\n        /* \"#utility.yul\":21507:21508   */\n      0x00\n        /* \"#utility.yul\":21504:21505   */\n      dup1\n        /* \"#utility.yul\":21497:21509   */\n      revert\n        /* \"#utility.yul\":21450:21511   */\n    tag_367:\n        /* \"#utility.yul\":21399:21517   */\n      pop\n      jump\t// out\n\n    auxdata: 0xa2646970667358221220beca9b26573680e61bef7f5f082af71eb0cccbe70d469568cfaf672db56e543d64736f6c63430008070033\n}\n",
				"bytecode": {
					"linkReferences": {},
					"object": "608060405234801561001057600080fd5b50611b2c806100206000396000f3fe608060405234801561001057600080fd5b506004361061009d5760003560e01c8063c559b16b11610066578063c559b16b1461016a578063cb4389ce1461019a578063d1e992a7146101ca578063e3d87718146101e6578063e62fac27146102165761009d565b80623f489f146100a25780630366cef2146100be5780633c45fe31146100ee5780639ac788791461011e578063c171bdf71461014e575b600080fd5b6100bc60048036038101906100b79190610f76565b610232565b005b6100d860048036038101906100d39190610f76565b610287565b6040516100e59190611454565b60405180910390f35b61010860048036038101906101039190610f76565b610434565b6040516101159190611454565b60405180910390f35b61013860048036038101906101339190610f76565b610477565b6040516101459190611454565b60405180910390f35b61016860048036038101906101639190610fc9565b6104ba565b005b610184600480360381019061017f9190610f76565b610a30565b6040516101919190611339565b60405180910390f35b6101b460048036038101906101af9190610f76565b610a80565b6040516101c19190611339565b60405180910390f35b6101e460048036038101906101df9190611044565b610ad0565b005b61020060048036038101906101fb9190610f76565b610b6f565b60405161020d9190611454565b60405180910390f35b610230600480360381019061022b91906110f7565b610bb2565b005b600080600085815260200190815260200160002060008481526020019081526020016000206000838152602001908152602001600020600b0160006101000a81548160ff021916908315150217905550505050565b60008060008581526020019081526020016000206000848152602001908152602001600020600083815260200190815260200160002060070154600080868152602001908152602001600020600085815260200190815260200160002060008481526020019081526020016000206008015414610339576040517f08c379a0000000000000000000000000000000000000000000000000000000008152600401610330906113d4565b60405180910390fd5b60028081111561034c5761034b611727565b5b6000808681526020019081526020016000206000858152602001908152602001600020600084815260200190815260200160002060060160149054906101000a900460ff1660028111156103a3576103a2611727565b5b146103e3576040517f08c379a00000000000000000000000000000000000000000000000000000000081526004016103da906113b4565b60405180910390fd5b60008085815260200190815260200160002060008481526020019081526020016000206000838152602001908152602001600020600b0160019054906101000a900460ff1660ff1690509392505050565b6000806000858152602001908152602001600020600084815260200190815260200160002060008381526020019081526020016000206008015490509392505050565b600080600085815260200190815260200160002060008481526020019081526020016000206000838152602001908152602001600020600a015490509392505050565b8173ffffffffffffffffffffffffffffffffffffffff166000808781526020019081526020016000206000868152602001908152602001600020600085815260200190815260200160002060050160009054906101000a900473ffffffffffffffffffffffffffffffffffffffff1673ffffffffffffffffffffffffffffffffffffffff161415610580576040517f08c379a000000000000000000000000000000000000000000000000000000000815260040161057790611394565b60405180910390fd5b8173ffffffffffffffffffffffffffffffffffffffff166000808781526020019081526020016000206000868152602001908152602001600020600085815260200190815260200160002060060160009054906101000a900473ffffffffffffffffffffffffffffffffffffffff1673ffffffffffffffffffffffffffffffffffffffff161415610646576040517f08c379a000000000000000000000000000000000000000000000000000000000815260040161063d906113f4565b60405180910390fd5b60008086815260200190815260200160002060008581526020019081526020016000206000848152602001908152602001600020600701546000808781526020019081526020016000206000868152602001908152602001600020600085815260200190815260200160002060080154106106f6576040517f08c379a00000000000000000000000000000000000000000000000000000000081526004016106ed90611414565b60405180910390fd5b600080600087815260200190815260200160002060008681526020019081526020016000206000858152602001908152602001600020600c0160008473ffffffffffffffffffffffffffffffffffffffff1673ffffffffffffffffffffffffffffffffffffffff16815260200190815260200160002060009054906101000a900460ff1660ff16146107bd576040517f08c379a00000000000000000000000000000000000000000000000000000000081526004016107b490611374565b60405180910390fd5b60018160ff1614806107d2575060028160ff16145b610811576040517f08c379a000000000000000000000000000000000000000000000000000000000815260040161080890611354565b60405180910390fd5b60008060008781526020019081526020016000206000868152602001908152602001600020600085815260200190815260200160002090508181600c0160008573ffffffffffffffffffffffffffffffffffffffff1673ffffffffffffffffffffffffffffffffffffffff16815260200190815260200160002060006101000a81548160ff021916908360ff16021790555060018260ff1614156108ca578060090160008154809291906108c4906116af565b91905055505b60028260ff1614156108f15780600a0160008154809291906108eb906116af565b91905055505b806008016000815480929190610906906116af565b91905055507f20211b974adbe11ce3687d51504ce7ef1fcfbb9c00405ba7aca7b283903f345a86868633866040516109429594939291906114d0565b60405180910390a1806007015481600801541415610a2857806009015481600a0154111561098d57600281600b0160016101000a81548160ff021916908360ff1602179055506109ac565b600181600b0160016101000a81548160ff021916908360ff1602179055505b60028160060160146101000a81548160ff021916908360028111156109d4576109d3611727565b5b02179055507fe59fdbc65a5dd63c529717c2a71d04b136038f05301755de242dd05990c0281486868684600b0160019054906101000a900460ff16604051610a1f9493929190611523565b60405180910390a15b505050505050565b60008060008581526020019081526020016000206000848152602001908152602001600020600083815260200190815260200160002060060160149054906101000a900460ff1690509392505050565b60008060008581526020019081526020016000206000848152602001908152602001600020600083815260200190815260200160002060060160149054906101000a900460ff1690509392505050565b81600080878152602001908152602001600020600086815260200190815260200160002060008581526020019081526020016000206003019080519060200190610b1b929190610e24565b5080600080878152602001908152602001600020600086815260200190815260200160002060008581526020019081526020016000206004019080519060200190610b67929190610e24565b505050505050565b6000806000858152602001908152602001600020600084815260200190815260200160002060008381526020019081526020016000206009015490509392505050565b600115156000808a815260200190815260200160002060008981526020019081526020016000206000888152602001908152602001600020600b0160009054906101000a900460ff1615151415610c3e576040517f08c379a0000000000000000000000000000000000000000000000000000000008152600401610c3590611434565b60405180910390fd5b60008060008a815260200190815260200160002060008981526020019081526020016000206000888152602001908152602001600020905088816000018190555087816001018190555086816002018190555085816003019080519060200190610ca9929190610e24565b5084816004019080519060200190610cc2929190610e24565b50838160050160006101000a81548173ffffffffffffffffffffffffffffffffffffffff021916908373ffffffffffffffffffffffffffffffffffffffff160217905550828160060160006101000a81548173ffffffffffffffffffffffffffffffffffffffff021916908373ffffffffffffffffffffffffffffffffffffffff16021790555060018160060160146101000a81548160ff02191690836002811115610d7157610d70611727565b5b02179055508181600701819055506000816008018190555060008160090181905550600081600a0181905550600181600b0160006101000a81548160ff021916908315150217905550600081600b0160016101000a81548160ff021916908360ff1602179055507ffa127411522a1139d16c2142db999e127aef2288bd98a0558006bb115666ab1b898989878787604051610e119695949392919061146f565b60405180910390a1505050505050505050565b828054610e309061164c565b90600052602060002090601f016020900481019282610e525760008555610e99565b82601f10610e6b57805160ff1916838001178555610e99565b82800160010185558215610e99579182015b82811115610e98578251825591602001919060010190610e7d565b5b509050610ea69190610eaa565b5090565b5b80821115610ec3576000816000905550600101610eab565b5090565b6000610eda610ed58461158d565b611568565b905082815260208101848484011115610ef657610ef56117b9565b5b610f0184828561163d565b509392505050565b600081359050610f1881611ab1565b92915050565b600082601f830112610f3357610f326117b4565b5b8135610f43848260208601610ec7565b91505092915050565b600081359050610f5b81611ac8565b92915050565b600081359050610f7081611adf565b92915050565b600080600060608486031215610f8f57610f8e6117c3565b5b6000610f9d86828701610f4c565b9350506020610fae86828701610f4c565b9250506040610fbf86828701610f4c565b9150509250925092565b600080600080600060a08688031215610fe557610fe46117c3565b5b6000610ff388828901610f4c565b955050602061100488828901610f4c565b945050604061101588828901610f4c565b935050606061102688828901610f09565b925050608061103788828901610f61565b9150509295509295909350565b600080600080600060a086880312156110605761105f6117c3565b5b600061106e88828901610f4c565b955050602061107f88828901610f4c565b945050604061109088828901610f4c565b935050606086013567ffffffffffffffff8111156110b1576110b06117be565b5b6110bd88828901610f1e565b925050608086013567ffffffffffffffff8111156110de576110dd6117be565b5b6110ea88828901610f1e565b9150509295509295909350565b600080600080600080600080610100898b031215611118576111176117c3565b5b60006111268b828c01610f4c565b98505060206111378b828c01610f4c565b97505060406111488b828c01610f4c565b965050606089013567ffffffffffffffff811115611169576111686117be565b5b6111758b828c01610f1e565b955050608089013567ffffffffffffffff811115611196576111956117be565b5b6111a28b828c01610f1e565b94505060a06111b38b828c01610f09565b93505060c06111c48b828c01610f09565b92505060e06111d58b828c01610f4c565b9150509295985092959890939650565b6111ee816115cf565b82525050565b6111fd8161162b565b82525050565b60006112106057836115be565b915061121b826117d9565b606082019050919050565b6000611233602d836115be565b915061123e8261184e565b604082019050919050565b60006112566030836115be565b91506112618261189d565b604082019050919050565b6000611279603d836115be565b9150611284826118ec565b604082019050919050565b600061129c604a836115be565b91506112a78261193b565b606082019050919050565b60006112bf6039836115be565b91506112ca826119b0565b604082019050919050565b60006112e26020836115be565b91506112ed826119ff565b602082019050919050565b6000611305604d836115be565b915061131082611a28565b606082019050919050565b61132481611614565b82525050565b6113338161161e565b82525050565b600060208201905061134e60008301846111f4565b92915050565b6000602082019050818103600083015261136d81611203565b9050919050565b6000602082019050818103600083015261138d81611226565b9050919050565b600060208201905081810360008301526113ad81611249565b9050919050565b600060208201905081810360008301526113cd8161126c565b9050919050565b600060208201905081810360008301526113ed8161128f565b9050919050565b6000602082019050818103600083015261140d816112b2565b9050919050565b6000602082019050818103600083015261142d816112d5565b9050919050565b6000602082019050818103600083015261144d816112f8565b9050919050565b6000602082019050611469600083018461131b565b92915050565b600060c082019050611484600083018961131b565b611491602083018861131b565b61149e604083018761131b565b6114ab60608301866111e5565b6114b860808301856111e5565b6114c560a083018461131b565b979650505050505050565b600060a0820190506114e5600083018861131b565b6114f2602083018761131b565b6114ff604083018661131b565b61150c60608301856111e5565b611519608083018461132a565b9695505050505050565b6000608082019050611538600083018761131b565b611545602083018661131b565b611552604083018561131b565b61155f606083018461132a565b95945050505050565b6000611572611583565b905061157e828261167e565b919050565b6000604051905090565b600067ffffffffffffffff8211156115a8576115a7611785565b5b6115b1826117c8565b9050602081019050919050565b600082825260208201905092915050565b60006115da826115f4565b9050919050565b60008190506115ef82611a9d565b919050565b600073ffffffffffffffffffffffffffffffffffffffff82169050919050565b6000819050919050565b600060ff82169050919050565b6000611636826115e1565b9050919050565b82818337600083830152505050565b6000600282049050600182168061166457607f821691505b6020821081141561167857611677611756565b5b50919050565b611687826117c8565b810181811067ffffffffffffffff821117156116a6576116a5611785565b5b80604052505050565b60006116ba82611614565b91507fffffffffffffffffffffffffffffffffffffffffffffffffffffffffffffffff8214156116ed576116ec6116f8565b5b600182019050919050565b7f4e487b7100000000000000000000000000000000000000000000000000000000600052601160045260246000fd5b7f4e487b7100000000000000000000000000000000000000000000000000000000600052602160045260246000fd5b7f4e487b7100000000000000000000000000000000000000000000000000000000600052602260045260246000fd5b7f4e487b7100000000000000000000000000000000000000000000000000000000600052604160045260246000fd5b600080fd5b600080fd5b600080fd5b600080fd5b6000601f19601f8301169050919050565b7f596f752068617665206e6f7420696e707574206120726967687420766f74652e60008201527f20596f752063616e2065697468657220766f7465203120666f7220526571756560208201527f73746572206f72203220666f722050726f76696465722e000000000000000000604082015250565b7f596f75206861766520616c726561647920766f7465642c20796f752063616e6e60008201527f6f7420766f746520616761696e00000000000000000000000000000000000000602082015250565b7f596f7520726169736564207468697320636f6e666c6963742e20596f7520636160008201527f6e6e6f7420766f7465206f6e2069742e00000000000000000000000000000000602082015250565b7f566f74696e6720686173206e6f74206265656e20636f6d706c6574656420796560008201527f742e20506c65617365207761697420666f7220697420746f20656e642e000000602082015250565b7f4e6f742065766572796f6e652068617320766f7465642c20706c65617365207060008201527f726f6d707420616c6c206f74686572206d656d62657273206f662070726f6a6560208201527f637420746f20766f746500000000000000000000000000000000000000000000604082015250565b7f596f752061726520696e766f6c76656420696e207468697320636f6e666c696360008201527f742e20596f752063616e6e6f7420766f7465206f6e2069742e00000000000000602082015250565b7f456e6f75676820766f7465732068617665206265656e20636f6c6c6563746564600082015250565b7f436f6e666c6963742068617320616c7265616479206265656e2063726561746560008201527f642e20506c6561736520646f206e6f7420637265617465206d6f72652074686160208201527f6e203120636f6e666c6963742e00000000000000000000000000000000000000604082015250565b60038110611aae57611aad611727565b5b50565b611aba816115cf565b8114611ac557600080fd5b50565b611ad181611614565b8114611adc57600080fd5b50565b611ae88161161e565b8114611af357600080fd5b5056fea2646970667358221220beca9b26573680e61bef7f5f082af71eb0cccbe70d469568cfaf672db56e543d64736f6c63430008070033",
					"opcodes": "PUSH1 0x80 PUSH1 0x40 MSTORE CALLVALUE DUP1 ISZERO PUSH2 0x10 JUMPI PUSH1 0x0 DUP1 REVERT JUMPDEST POP PUSH2 0x1B2C DUP1 PUSH2 0x20 PUSH1 0x0 CODECOPY PUSH1 0x0 RETURN INVALID PUSH1 0x80 PUSH1 0x40 MSTORE CALLVALUE DUP1 ISZERO PUSH2 0x10 JUMPI PUSH1 0x0 DUP1 REVERT JUMPDEST POP PUSH1 0x4 CALLDATASIZE LT PUSH2 0x9D JUMPI PUSH1 0x0 CALLDATALOAD PUSH1 0xE0 SHR DUP1 PUSH4 0xC559B16B GT PUSH2 0x66 JUMPI DUP1 PUSH4 0xC559B16B EQ PUSH2 0x16A JUMPI DUP1 PUSH4 0xCB4389CE EQ PUSH2 0x19A JUMPI DUP1 PUSH4 0xD1E992A7 EQ PUSH2 0x1CA JUMPI DUP1 PUSH4 0xE3D87718 EQ PUSH2 0x1E6 JUMPI DUP1 PUSH4 0xE62FAC27 EQ PUSH2 0x216 JUMPI PUSH2 0x9D JUMP JUMPDEST DUP1 PUSH3 0x3F489F EQ PUSH2 0xA2 JUMPI DUP1 PUSH4 0x366CEF2 EQ PUSH2 0xBE JUMPI DUP1 PUSH4 0x3C45FE31 EQ PUSH2 0xEE JUMPI DUP1 PUSH4 0x9AC78879 EQ PUSH2 0x11E JUMPI DUP1 PUSH4 0xC171BDF7 EQ PUSH2 0x14E JUMPI JUMPDEST PUSH1 0x0 DUP1 REVERT JUMPDEST PUSH2 0xBC PUSH1 0x4 DUP1 CALLDATASIZE SUB DUP2 ADD SWAP1 PUSH2 0xB7 SWAP2 SWAP1 PUSH2 0xF76 JUMP JUMPDEST PUSH2 0x232 JUMP JUMPDEST STOP JUMPDEST PUSH2 0xD8 PUSH1 0x4 DUP1 CALLDATASIZE SUB DUP2 ADD SWAP1 PUSH2 0xD3 SWAP2 SWAP1 PUSH2 0xF76 JUMP JUMPDEST PUSH2 0x287 JUMP JUMPDEST PUSH1 0x40 MLOAD PUSH2 0xE5 SWAP2 SWAP1 PUSH2 0x1454 JUMP JUMPDEST PUSH1 0x40 MLOAD DUP1 SWAP2 SUB SWAP1 RETURN JUMPDEST PUSH2 0x108 PUSH1 0x4 DUP1 CALLDATASIZE SUB DUP2 ADD SWAP1 PUSH2 0x103 SWAP2 SWAP1 PUSH2 0xF76 JUMP JUMPDEST PUSH2 0x434 JUMP JUMPDEST PUSH1 0x40 MLOAD PUSH2 0x115 SWAP2 SWAP1 PUSH2 0x1454 JUMP JUMPDEST PUSH1 0x40 MLOAD DUP1 SWAP2 SUB SWAP1 RETURN JUMPDEST PUSH2 0x138 PUSH1 0x4 DUP1 CALLDATASIZE SUB DUP2 ADD SWAP1 PUSH2 0x133 SWAP2 SWAP1 PUSH2 0xF76 JUMP JUMPDEST PUSH2 0x477 JUMP JUMPDEST PUSH1 0x40 MLOAD PUSH2 0x145 SWAP2 SWAP1 PUSH2 0x1454 JUMP JUMPDEST PUSH1 0x40 MLOAD DUP1 SWAP2 SUB SWAP1 RETURN JUMPDEST PUSH2 0x168 PUSH1 0x4 DUP1 CALLDATASIZE SUB DUP2 ADD SWAP1 PUSH2 0x163 SWAP2 SWAP1 PUSH2 0xFC9 JUMP JUMPDEST PUSH2 0x4BA JUMP JUMPDEST STOP JUMPDEST PUSH2 0x184 PUSH1 0x4 DUP1 CALLDATASIZE SUB DUP2 ADD SWAP1 PUSH2 0x17F SWAP2 SWAP1 PUSH2 0xF76 JUMP JUMPDEST PUSH2 0xA30 JUMP JUMPDEST PUSH1 0x40 MLOAD PUSH2 0x191 SWAP2 SWAP1 PUSH2 0x1339 JUMP JUMPDEST PUSH1 0x40 MLOAD DUP1 SWAP2 SUB SWAP1 RETURN JUMPDEST PUSH2 0x1B4 PUSH1 0x4 DUP1 CALLDATASIZE SUB DUP2 ADD SWAP1 PUSH2 0x1AF SWAP2 SWAP1 PUSH2 0xF76 JUMP JUMPDEST PUSH2 0xA80 JUMP JUMPDEST PUSH1 0x40 MLOAD PUSH2 0x1C1 SWAP2 SWAP1 PUSH2 0x1339 JUMP JUMPDEST PUSH1 0x40 MLOAD DUP1 SWAP2 SUB SWAP1 RETURN JUMPDEST PUSH2 0x1E4 PUSH1 0x4 DUP1 CALLDATASIZE SUB DUP2 ADD SWAP1 PUSH2 0x1DF SWAP2 SWAP1 PUSH2 0x1044 JUMP JUMPDEST PUSH2 0xAD0 JUMP JUMPDEST STOP JUMPDEST PUSH2 0x200 PUSH1 0x4 DUP1 CALLDATASIZE SUB DUP2 ADD SWAP1 PUSH2 0x1FB SWAP2 SWAP1 PUSH2 0xF76 JUMP JUMPDEST PUSH2 0xB6F JUMP JUMPDEST PUSH1 0x40 MLOAD PUSH2 0x20D SWAP2 SWAP1 PUSH2 0x1454 JUMP JUMPDEST PUSH1 0x40 MLOAD DUP1 SWAP2 SUB SWAP1 RETURN JUMPDEST PUSH2 0x230 PUSH1 0x4 DUP1 CALLDATASIZE SUB DUP2 ADD SWAP1 PUSH2 0x22B SWAP2 SWAP1 PUSH2 0x10F7 JUMP JUMPDEST PUSH2 0xBB2 JUMP JUMPDEST STOP JUMPDEST PUSH1 0x0 DUP1 PUSH1 0x0 DUP6 DUP2 MSTORE PUSH1 0x20 ADD SWAP1 DUP2 MSTORE PUSH1 0x20 ADD PUSH1 0x0 KECCAK256 PUSH1 0x0 DUP5 DUP2 MSTORE PUSH1 0x20 ADD SWAP1 DUP2 MSTORE PUSH1 0x20 ADD PUSH1 0x0 KECCAK256 PUSH1 0x0 DUP4 DUP2 MSTORE PUSH1 0x20 ADD SWAP1 DUP2 MSTORE PUSH1 0x20 ADD PUSH1 0x0 KECCAK256 PUSH1 0xB ADD PUSH1 0x0 PUSH2 0x100 EXP DUP2 SLOAD DUP2 PUSH1 0xFF MUL NOT AND SWAP1 DUP4 ISZERO ISZERO MUL OR SWAP1 SSTORE POP POP POP POP JUMP JUMPDEST PUSH1 0x0 DUP1 PUSH1 0x0 DUP6 DUP2 MSTORE PUSH1 0x20 ADD SWAP1 DUP2 MSTORE PUSH1 0x20 ADD PUSH1 0x0 KECCAK256 PUSH1 0x0 DUP5 DUP2 MSTORE PUSH1 0x20 ADD SWAP1 DUP2 MSTORE PUSH1 0x20 ADD PUSH1 0x0 KECCAK256 PUSH1 0x0 DUP4 DUP2 MSTORE PUSH1 0x20 ADD SWAP1 DUP2 MSTORE PUSH1 0x20 ADD PUSH1 0x0 KECCAK256 PUSH1 0x7 ADD SLOAD PUSH1 0x0 DUP1 DUP7 DUP2 MSTORE PUSH1 0x20 ADD SWAP1 DUP2 MSTORE PUSH1 0x20 ADD PUSH1 0x0 KECCAK256 PUSH1 0x0 DUP6 DUP2 MSTORE PUSH1 0x20 ADD SWAP1 DUP2 MSTORE PUSH1 0x20 ADD PUSH1 0x0 KECCAK256 PUSH1 0x0 DUP5 DUP2 MSTORE PUSH1 0x20 ADD SWAP1 DUP2 MSTORE PUSH1 0x20 ADD PUSH1 0x0 KECCAK256 PUSH1 0x8 ADD SLOAD EQ PUSH2 0x339 JUMPI PUSH1 0x40 MLOAD PUSH32 0x8C379A000000000000000000000000000000000000000000000000000000000 DUP2 MSTORE PUSH1 0x4 ADD PUSH2 0x330 SWAP1 PUSH2 0x13D4 JUMP JUMPDEST PUSH1 0x40 MLOAD DUP1 SWAP2 SUB SWAP1 REVERT JUMPDEST PUSH1 0x2 DUP1 DUP2 GT ISZERO PUSH2 0x34C JUMPI PUSH2 0x34B PUSH2 0x1727 JUMP JUMPDEST JUMPDEST PUSH1 0x0 DUP1 DUP7 DUP2 MSTORE PUSH1 0x20 ADD SWAP1 DUP2 MSTORE PUSH1 0x20 ADD PUSH1 0x0 KECCAK256 PUSH1 0x0 DUP6 DUP2 MSTORE PUSH1 0x20 ADD SWAP1 DUP2 MSTORE PUSH1 0x20 ADD PUSH1 0x0 KECCAK256 PUSH1 0x0 DUP5 DUP2 MSTORE PUSH1 0x20 ADD SWAP1 DUP2 MSTORE PUSH1 0x20 ADD PUSH1 0x0 KECCAK256 PUSH1 0x6 ADD PUSH1 0x14 SWAP1 SLOAD SWAP1 PUSH2 0x100 EXP SWAP1 DIV PUSH1 0xFF AND PUSH1 0x2 DUP2 GT ISZERO PUSH2 0x3A3 JUMPI PUSH2 0x3A2 PUSH2 0x1727 JUMP JUMPDEST JUMPDEST EQ PUSH2 0x3E3 JUMPI PUSH1 0x40 MLOAD PUSH32 0x8C379A000000000000000000000000000000000000000000000000000000000 DUP2 MSTORE PUSH1 0x4 ADD PUSH2 0x3DA SWAP1 PUSH2 0x13B4 JUMP JUMPDEST PUSH1 0x40 MLOAD DUP1 SWAP2 SUB SWAP1 REVERT JUMPDEST PUSH1 0x0 DUP1 DUP6 DUP2 MSTORE PUSH1 0x20 ADD SWAP1 DUP2 MSTORE PUSH1 0x20 ADD PUSH1 0x0 KECCAK256 PUSH1 0x0 DUP5 DUP2 MSTORE PUSH1 0x20 ADD SWAP1 DUP2 MSTORE PUSH1 0x20 ADD PUSH1 0x0 KECCAK256 PUSH1 0x0 DUP4 DUP2 MSTORE PUSH1 0x20 ADD SWAP1 DUP2 MSTORE PUSH1 0x20 ADD PUSH1 0x0 KECCAK256 PUSH1 0xB ADD PUSH1 0x1 SWAP1 SLOAD SWAP1 PUSH2 0x100 EXP SWAP1 DIV PUSH1 0xFF AND PUSH1 0xFF AND SWAP1 POP SWAP4 SWAP3 POP POP POP JUMP JUMPDEST PUSH1 0x0 DUP1 PUSH1 0x0 DUP6 DUP2 MSTORE PUSH1 0x20 ADD SWAP1 DUP2 MSTORE PUSH1 0x20 ADD PUSH1 0x0 KECCAK256 PUSH1 0x0 DUP5 DUP2 MSTORE PUSH1 0x20 ADD SWAP1 DUP2 MSTORE PUSH1 0x20 ADD PUSH1 0x0 KECCAK256 PUSH1 0x0 DUP4 DUP2 MSTORE PUSH1 0x20 ADD SWAP1 DUP2 MSTORE PUSH1 0x20 ADD PUSH1 0x0 KECCAK256 PUSH1 0x8 ADD SLOAD SWAP1 POP SWAP4 SWAP3 POP POP POP JUMP JUMPDEST PUSH1 0x0 DUP1 PUSH1 0x0 DUP6 DUP2 MSTORE PUSH1 0x20 ADD SWAP1 DUP2 MSTORE PUSH1 0x20 ADD PUSH1 0x0 KECCAK256 PUSH1 0x0 DUP5 DUP2 MSTORE PUSH1 0x20 ADD SWAP1 DUP2 MSTORE PUSH1 0x20 ADD PUSH1 0x0 KECCAK256 PUSH1 0x0 DUP4 DUP2 MSTORE PUSH1 0x20 ADD SWAP1 DUP2 MSTORE PUSH1 0x20 ADD PUSH1 0x0 KECCAK256 PUSH1 0xA ADD SLOAD SWAP1 POP SWAP4 SWAP3 POP POP POP JUMP JUMPDEST DUP2 PUSH20 0xFFFFFFFFFFFFFFFFFFFFFFFFFFFFFFFFFFFFFFFF AND PUSH1 0x0 DUP1 DUP8 DUP2 MSTORE PUSH1 0x20 ADD SWAP1 DUP2 MSTORE PUSH1 0x20 ADD PUSH1 0x0 KECCAK256 PUSH1 0x0 DUP7 DUP2 MSTORE PUSH1 0x20 ADD SWAP1 DUP2 MSTORE PUSH1 0x20 ADD PUSH1 0x0 KECCAK256 PUSH1 0x0 DUP6 DUP2 MSTORE PUSH1 0x20 ADD SWAP1 DUP2 MSTORE PUSH1 0x20 ADD PUSH1 0x0 KECCAK256 PUSH1 0x5 ADD PUSH1 0x0 SWAP1 SLOAD SWAP1 PUSH2 0x100 EXP SWAP1 DIV PUSH20 0xFFFFFFFFFFFFFFFFFFFFFFFFFFFFFFFFFFFFFFFF AND PUSH20 0xFFFFFFFFFFFFFFFFFFFFFFFFFFFFFFFFFFFFFFFF AND EQ ISZERO PUSH2 0x580 JUMPI PUSH1 0x40 MLOAD PUSH32 0x8C379A000000000000000000000000000000000000000000000000000000000 DUP2 MSTORE PUSH1 0x4 ADD PUSH2 0x577 SWAP1 PUSH2 0x1394 JUMP JUMPDEST PUSH1 0x40 MLOAD DUP1 SWAP2 SUB SWAP1 REVERT JUMPDEST DUP2 PUSH20 0xFFFFFFFFFFFFFFFFFFFFFFFFFFFFFFFFFFFFFFFF AND PUSH1 0x0 DUP1 DUP8 DUP2 MSTORE PUSH1 0x20 ADD SWAP1 DUP2 MSTORE PUSH1 0x20 ADD PUSH1 0x0 KECCAK256 PUSH1 0x0 DUP7 DUP2 MSTORE PUSH1 0x20 ADD SWAP1 DUP2 MSTORE PUSH1 0x20 ADD PUSH1 0x0 KECCAK256 PUSH1 0x0 DUP6 DUP2 MSTORE PUSH1 0x20 ADD SWAP1 DUP2 MSTORE PUSH1 0x20 ADD PUSH1 0x0 KECCAK256 PUSH1 0x6 ADD PUSH1 0x0 SWAP1 SLOAD SWAP1 PUSH2 0x100 EXP SWAP1 DIV PUSH20 0xFFFFFFFFFFFFFFFFFFFFFFFFFFFFFFFFFFFFFFFF AND PUSH20 0xFFFFFFFFFFFFFFFFFFFFFFFFFFFFFFFFFFFFFFFF AND EQ ISZERO PUSH2 0x646 JUMPI PUSH1 0x40 MLOAD PUSH32 0x8C379A000000000000000000000000000000000000000000000000000000000 DUP2 MSTORE PUSH1 0x4 ADD PUSH2 0x63D SWAP1 PUSH2 0x13F4 JUMP JUMPDEST PUSH1 0x40 MLOAD DUP1 SWAP2 SUB SWAP1 REVERT JUMPDEST PUSH1 0x0 DUP1 DUP7 DUP2 MSTORE PUSH1 0x20 ADD SWAP1 DUP2 MSTORE PUSH1 0x20 ADD PUSH1 0x0 KECCAK256 PUSH1 0x0 DUP6 DUP2 MSTORE PUSH1 0x20 ADD SWAP1 DUP2 MSTORE PUSH1 0x20 ADD PUSH1 0x0 KECCAK256 PUSH1 0x0 DUP5 DUP2 MSTORE PUSH1 0x20 ADD SWAP1 DUP2 MSTORE PUSH1 0x20 ADD PUSH1 0x0 KECCAK256 PUSH1 0x7 ADD SLOAD PUSH1 0x0 DUP1 DUP8 DUP2 MSTORE PUSH1 0x20 ADD SWAP1 DUP2 MSTORE PUSH1 0x20 ADD PUSH1 0x0 KECCAK256 PUSH1 0x0 DUP7 DUP2 MSTORE PUSH1 0x20 ADD SWAP1 DUP2 MSTORE PUSH1 0x20 ADD PUSH1 0x0 KECCAK256 PUSH1 0x0 DUP6 DUP2 MSTORE PUSH1 0x20 ADD SWAP1 DUP2 MSTORE PUSH1 0x20 ADD PUSH1 0x0 KECCAK256 PUSH1 0x8 ADD SLOAD LT PUSH2 0x6F6 JUMPI PUSH1 0x40 MLOAD PUSH32 0x8C379A000000000000000000000000000000000000000000000000000000000 DUP2 MSTORE PUSH1 0x4 ADD PUSH2 0x6ED SWAP1 PUSH2 0x1414 JUMP JUMPDEST PUSH1 0x40 MLOAD DUP1 SWAP2 SUB SWAP1 REVERT JUMPDEST PUSH1 0x0 DUP1 PUSH1 0x0 DUP8 DUP2 MSTORE PUSH1 0x20 ADD SWAP1 DUP2 MSTORE PUSH1 0x20 ADD PUSH1 0x0 KECCAK256 PUSH1 0x0 DUP7 DUP2 MSTORE PUSH1 0x20 ADD SWAP1 DUP2 MSTORE PUSH1 0x20 ADD PUSH1 0x0 KECCAK256 PUSH1 0x0 DUP6 DUP2 MSTORE PUSH1 0x20 ADD SWAP1 DUP2 MSTORE PUSH1 0x20 ADD PUSH1 0x0 KECCAK256 PUSH1 0xC ADD PUSH1 0x0 DUP5 PUSH20 0xFFFFFFFFFFFFFFFFFFFFFFFFFFFFFFFFFFFFFFFF AND PUSH20 0xFFFFFFFFFFFFFFFFFFFFFFFFFFFFFFFFFFFFFFFF AND DUP2 MSTORE PUSH1 0x20 ADD SWAP1 DUP2 MSTORE PUSH1 0x20 ADD PUSH1 0x0 KECCAK256 PUSH1 0x0 SWAP1 SLOAD SWAP1 PUSH2 0x100 EXP SWAP1 DIV PUSH1 0xFF AND PUSH1 0xFF AND EQ PUSH2 0x7BD JUMPI PUSH1 0x40 MLOAD PUSH32 0x8C379A000000000000000000000000000000000000000000000000000000000 DUP2 MSTORE PUSH1 0x4 ADD PUSH2 0x7B4 SWAP1 PUSH2 0x1374 JUMP JUMPDEST PUSH1 0x40 MLOAD DUP1 SWAP2 SUB SWAP1 REVERT JUMPDEST PUSH1 0x1 DUP2 PUSH1 0xFF AND EQ DUP1 PUSH2 0x7D2 JUMPI POP PUSH1 0x2 DUP2 PUSH1 0xFF AND EQ JUMPDEST PUSH2 0x811 JUMPI PUSH1 0x40 MLOAD PUSH32 0x8C379A000000000000000000000000000000000000000000000000000000000 DUP2 MSTORE PUSH1 0x4 ADD PUSH2 0x808 SWAP1 PUSH2 0x1354 JUMP JUMPDEST PUSH1 0x40 MLOAD DUP1 SWAP2 SUB SWAP1 REVERT JUMPDEST PUSH1 0x0 DUP1 PUSH1 0x0 DUP8 DUP2 MSTORE PUSH1 0x20 ADD SWAP1 DUP2 MSTORE PUSH1 0x20 ADD PUSH1 0x0 KECCAK256 PUSH1 0x0 DUP7 DUP2 MSTORE PUSH1 0x20 ADD SWAP1 DUP2 MSTORE PUSH1 0x20 ADD PUSH1 0x0 KECCAK256 PUSH1 0x0 DUP6 DUP2 MSTORE PUSH1 0x20 ADD SWAP1 DUP2 MSTORE PUSH1 0x20 ADD PUSH1 0x0 KECCAK256 SWAP1 POP DUP2 DUP2 PUSH1 0xC ADD PUSH1 0x0 DUP6 PUSH20 0xFFFFFFFFFFFFFFFFFFFFFFFFFFFFFFFFFFFFFFFF AND PUSH20 0xFFFFFFFFFFFFFFFFFFFFFFFFFFFFFFFFFFFFFFFF AND DUP2 MSTORE PUSH1 0x20 ADD SWAP1 DUP2 MSTORE PUSH1 0x20 ADD PUSH1 0x0 KECCAK256 PUSH1 0x0 PUSH2 0x100 EXP DUP2 SLOAD DUP2 PUSH1 0xFF MUL NOT AND SWAP1 DUP4 PUSH1 0xFF AND MUL OR SWAP1 SSTORE POP PUSH1 0x1 DUP3 PUSH1 0xFF AND EQ ISZERO PUSH2 0x8CA JUMPI DUP1 PUSH1 0x9 ADD PUSH1 0x0 DUP2 SLOAD DUP1 SWAP3 SWAP2 SWAP1 PUSH2 0x8C4 SWAP1 PUSH2 0x16AF JUMP JUMPDEST SWAP2 SWAP1 POP SSTORE POP JUMPDEST PUSH1 0x2 DUP3 PUSH1 0xFF AND EQ ISZERO PUSH2 0x8F1 JUMPI DUP1 PUSH1 0xA ADD PUSH1 0x0 DUP2 SLOAD DUP1 SWAP3 SWAP2 SWAP1 PUSH2 0x8EB SWAP1 PUSH2 0x16AF JUMP JUMPDEST SWAP2 SWAP1 POP SSTORE POP JUMPDEST DUP1 PUSH1 0x8 ADD PUSH1 0x0 DUP2 SLOAD DUP1 SWAP3 SWAP2 SWAP1 PUSH2 0x906 SWAP1 PUSH2 0x16AF JUMP JUMPDEST SWAP2 SWAP1 POP SSTORE POP PUSH32 0x20211B974ADBE11CE3687D51504CE7EF1FCFBB9C00405BA7ACA7B283903F345A DUP7 DUP7 DUP7 CALLER DUP7 PUSH1 0x40 MLOAD PUSH2 0x942 SWAP6 SWAP5 SWAP4 SWAP3 SWAP2 SWAP1 PUSH2 0x14D0 JUMP JUMPDEST PUSH1 0x40 MLOAD DUP1 SWAP2 SUB SWAP1 LOG1 DUP1 PUSH1 0x7 ADD SLOAD DUP2 PUSH1 0x8 ADD SLOAD EQ ISZERO PUSH2 0xA28 JUMPI DUP1 PUSH1 0x9 ADD SLOAD DUP2 PUSH1 0xA ADD SLOAD GT ISZERO PUSH2 0x98D JUMPI PUSH1 0x2 DUP2 PUSH1 0xB ADD PUSH1 0x1 PUSH2 0x100 EXP DUP2 SLOAD DUP2 PUSH1 0xFF MUL NOT AND SWAP1 DUP4 PUSH1 0xFF AND MUL OR SWAP1 SSTORE POP PUSH2 0x9AC JUMP JUMPDEST PUSH1 0x1 DUP2 PUSH1 0xB ADD PUSH1 0x1 PUSH2 0x100 EXP DUP2 SLOAD DUP2 PUSH1 0xFF MUL NOT AND SWAP1 DUP4 PUSH1 0xFF AND MUL OR SWAP1 SSTORE POP JUMPDEST PUSH1 0x2 DUP2 PUSH1 0x6 ADD PUSH1 0x14 PUSH2 0x100 EXP DUP2 SLOAD DUP2 PUSH1 0xFF MUL NOT AND SWAP1 DUP4 PUSH1 0x2 DUP2 GT ISZERO PUSH2 0x9D4 JUMPI PUSH2 0x9D3 PUSH2 0x1727 JUMP JUMPDEST JUMPDEST MUL OR SWAP1 SSTORE POP PUSH32 0xE59FDBC65A5DD63C529717C2A71D04B136038F05301755DE242DD05990C02814 DUP7 DUP7 DUP7 DUP5 PUSH1 0xB ADD PUSH1 0x1 SWAP1 SLOAD SWAP1 PUSH2 0x100 EXP SWAP1 DIV PUSH1 0xFF AND PUSH1 0x40 MLOAD PUSH2 0xA1F SWAP5 SWAP4 SWAP3 SWAP2 SWAP1 PUSH2 0x1523 JUMP JUMPDEST PUSH1 0x40 MLOAD DUP1 SWAP2 SUB SWAP1 LOG1 JUMPDEST POP POP POP POP POP POP JUMP JUMPDEST PUSH1 0x0 DUP1 PUSH1 0x0 DUP6 DUP2 MSTORE PUSH1 0x20 ADD SWAP1 DUP2 MSTORE PUSH1 0x20 ADD PUSH1 0x0 KECCAK256 PUSH1 0x0 DUP5 DUP2 MSTORE PUSH1 0x20 ADD SWAP1 DUP2 MSTORE PUSH1 0x20 ADD PUSH1 0x0 KECCAK256 PUSH1 0x0 DUP4 DUP2 MSTORE PUSH1 0x20 ADD SWAP1 DUP2 MSTORE PUSH1 0x20 ADD PUSH1 0x0 KECCAK256 PUSH1 0x6 ADD PUSH1 0x14 SWAP1 SLOAD SWAP1 PUSH2 0x100 EXP SWAP1 DIV PUSH1 0xFF AND SWAP1 POP SWAP4 SWAP3 POP POP POP JUMP JUMPDEST PUSH1 0x0 DUP1 PUSH1 0x0 DUP6 DUP2 MSTORE PUSH1 0x20 ADD SWAP1 DUP2 MSTORE PUSH1 0x20 ADD PUSH1 0x0 KECCAK256 PUSH1 0x0 DUP5 DUP2 MSTORE PUSH1 0x20 ADD SWAP1 DUP2 MSTORE PUSH1 0x20 ADD PUSH1 0x0 KECCAK256 PUSH1 0x0 DUP4 DUP2 MSTORE PUSH1 0x20 ADD SWAP1 DUP2 MSTORE PUSH1 0x20 ADD PUSH1 0x0 KECCAK256 PUSH1 0x6 ADD PUSH1 0x14 SWAP1 SLOAD SWAP1 PUSH2 0x100 EXP SWAP1 DIV PUSH1 0xFF AND SWAP1 POP SWAP4 SWAP3 POP POP POP JUMP JUMPDEST DUP2 PUSH1 0x0 DUP1 DUP8 DUP2 MSTORE PUSH1 0x20 ADD SWAP1 DUP2 MSTORE PUSH1 0x20 ADD PUSH1 0x0 KECCAK256 PUSH1 0x0 DUP7 DUP2 MSTORE PUSH1 0x20 ADD SWAP1 DUP2 MSTORE PUSH1 0x20 ADD PUSH1 0x0 KECCAK256 PUSH1 0x0 DUP6 DUP2 MSTORE PUSH1 0x20 ADD SWAP1 DUP2 MSTORE PUSH1 0x20 ADD PUSH1 0x0 KECCAK256 PUSH1 0x3 ADD SWAP1 DUP1 MLOAD SWAP1 PUSH1 0x20 ADD SWAP1 PUSH2 0xB1B SWAP3 SWAP2 SWAP1 PUSH2 0xE24 JUMP JUMPDEST POP DUP1 PUSH1 0x0 DUP1 DUP8 DUP2 MSTORE PUSH1 0x20 ADD SWAP1 DUP2 MSTORE PUSH1 0x20 ADD PUSH1 0x0 KECCAK256 PUSH1 0x0 DUP7 DUP2 MSTORE PUSH1 0x20 ADD SWAP1 DUP2 MSTORE PUSH1 0x20 ADD PUSH1 0x0 KECCAK256 PUSH1 0x0 DUP6 DUP2 MSTORE PUSH1 0x20 ADD SWAP1 DUP2 MSTORE PUSH1 0x20 ADD PUSH1 0x0 KECCAK256 PUSH1 0x4 ADD SWAP1 DUP1 MLOAD SWAP1 PUSH1 0x20 ADD SWAP1 PUSH2 0xB67 SWAP3 SWAP2 SWAP1 PUSH2 0xE24 JUMP JUMPDEST POP POP POP POP POP POP JUMP JUMPDEST PUSH1 0x0 DUP1 PUSH1 0x0 DUP6 DUP2 MSTORE PUSH1 0x20 ADD SWAP1 DUP2 MSTORE PUSH1 0x20 ADD PUSH1 0x0 KECCAK256 PUSH1 0x0 DUP5 DUP2 MSTORE PUSH1 0x20 ADD SWAP1 DUP2 MSTORE PUSH1 0x20 ADD PUSH1 0x0 KECCAK256 PUSH1 0x0 DUP4 DUP2 MSTORE PUSH1 0x20 ADD SWAP1 DUP2 MSTORE PUSH1 0x20 ADD PUSH1 0x0 KECCAK256 PUSH1 0x9 ADD SLOAD SWAP1 POP SWAP4 SWAP3 POP POP POP JUMP JUMPDEST PUSH1 0x1 ISZERO ISZERO PUSH1 0x0 DUP1 DUP11 DUP2 MSTORE PUSH1 0x20 ADD SWAP1 DUP2 MSTORE PUSH1 0x20 ADD PUSH1 0x0 KECCAK256 PUSH1 0x0 DUP10 DUP2 MSTORE PUSH1 0x20 ADD SWAP1 DUP2 MSTORE PUSH1 0x20 ADD PUSH1 0x0 KECCAK256 PUSH1 0x0 DUP9 DUP2 MSTORE PUSH1 0x20 ADD SWAP1 DUP2 MSTORE PUSH1 0x20 ADD PUSH1 0x0 KECCAK256 PUSH1 0xB ADD PUSH1 0x0 SWAP1 SLOAD SWAP1 PUSH2 0x100 EXP SWAP1 DIV PUSH1 0xFF AND ISZERO ISZERO EQ ISZERO PUSH2 0xC3E JUMPI PUSH1 0x40 MLOAD PUSH32 0x8C379A000000000000000000000000000000000000000000000000000000000 DUP2 MSTORE PUSH1 0x4 ADD PUSH2 0xC35 SWAP1 PUSH2 0x1434 JUMP JUMPDEST PUSH1 0x40 MLOAD DUP1 SWAP2 SUB SWAP1 REVERT JUMPDEST PUSH1 0x0 DUP1 PUSH1 0x0 DUP11 DUP2 MSTORE PUSH1 0x20 ADD SWAP1 DUP2 MSTORE PUSH1 0x20 ADD PUSH1 0x0 KECCAK256 PUSH1 0x0 DUP10 DUP2 MSTORE PUSH1 0x20 ADD SWAP1 DUP2 MSTORE PUSH1 0x20 ADD PUSH1 0x0 KECCAK256 PUSH1 0x0 DUP9 DUP2 MSTORE PUSH1 0x20 ADD SWAP1 DUP2 MSTORE PUSH1 0x20 ADD PUSH1 0x0 KECCAK256 SWAP1 POP DUP9 DUP2 PUSH1 0x0 ADD DUP2 SWAP1 SSTORE POP DUP8 DUP2 PUSH1 0x1 ADD DUP2 SWAP1 SSTORE POP DUP7 DUP2 PUSH1 0x2 ADD DUP2 SWAP1 SSTORE POP DUP6 DUP2 PUSH1 0x3 ADD SWAP1 DUP1 MLOAD SWAP1 PUSH1 0x20 ADD SWAP1 PUSH2 0xCA9 SWAP3 SWAP2 SWAP1 PUSH2 0xE24 JUMP JUMPDEST POP DUP5 DUP2 PUSH1 0x4 ADD SWAP1 DUP1 MLOAD SWAP1 PUSH1 0x20 ADD SWAP1 PUSH2 0xCC2 SWAP3 SWAP2 SWAP1 PUSH2 0xE24 JUMP JUMPDEST POP DUP4 DUP2 PUSH1 0x5 ADD PUSH1 0x0 PUSH2 0x100 EXP DUP2 SLOAD DUP2 PUSH20 0xFFFFFFFFFFFFFFFFFFFFFFFFFFFFFFFFFFFFFFFF MUL NOT AND SWAP1 DUP4 PUSH20 0xFFFFFFFFFFFFFFFFFFFFFFFFFFFFFFFFFFFFFFFF AND MUL OR SWAP1 SSTORE POP DUP3 DUP2 PUSH1 0x6 ADD PUSH1 0x0 PUSH2 0x100 EXP DUP2 SLOAD DUP2 PUSH20 0xFFFFFFFFFFFFFFFFFFFFFFFFFFFFFFFFFFFFFFFF MUL NOT AND SWAP1 DUP4 PUSH20 0xFFFFFFFFFFFFFFFFFFFFFFFFFFFFFFFFFFFFFFFF AND MUL OR SWAP1 SSTORE POP PUSH1 0x1 DUP2 PUSH1 0x6 ADD PUSH1 0x14 PUSH2 0x100 EXP DUP2 SLOAD DUP2 PUSH1 0xFF MUL NOT AND SWAP1 DUP4 PUSH1 0x2 DUP2 GT ISZERO PUSH2 0xD71 JUMPI PUSH2 0xD70 PUSH2 0x1727 JUMP JUMPDEST JUMPDEST MUL OR SWAP1 SSTORE POP DUP2 DUP2 PUSH1 0x7 ADD DUP2 SWAP1 SSTORE POP PUSH1 0x0 DUP2 PUSH1 0x8 ADD DUP2 SWAP1 SSTORE POP PUSH1 0x0 DUP2 PUSH1 0x9 ADD DUP2 SWAP1 SSTORE POP PUSH1 0x0 DUP2 PUSH1 0xA ADD DUP2 SWAP1 SSTORE POP PUSH1 0x1 DUP2 PUSH1 0xB ADD PUSH1 0x0 PUSH2 0x100 EXP DUP2 SLOAD DUP2 PUSH1 0xFF MUL NOT AND SWAP1 DUP4 ISZERO ISZERO MUL OR SWAP1 SSTORE POP PUSH1 0x0 DUP2 PUSH1 0xB ADD PUSH1 0x1 PUSH2 0x100 EXP DUP2 SLOAD DUP2 PUSH1 0xFF MUL NOT AND SWAP1 DUP4 PUSH1 0xFF AND MUL OR SWAP1 SSTORE POP PUSH32 0xFA127411522A1139D16C2142DB999E127AEF2288BD98A0558006BB115666AB1B DUP10 DUP10 DUP10 DUP8 DUP8 DUP8 PUSH1 0x40 MLOAD PUSH2 0xE11 SWAP7 SWAP6 SWAP5 SWAP4 SWAP3 SWAP2 SWAP1 PUSH2 0x146F JUMP JUMPDEST PUSH1 0x40 MLOAD DUP1 SWAP2 SUB SWAP1 LOG1 POP POP POP POP POP POP POP POP POP JUMP JUMPDEST DUP3 DUP1 SLOAD PUSH2 0xE30 SWAP1 PUSH2 0x164C JUMP JUMPDEST SWAP1 PUSH1 0x0 MSTORE PUSH1 0x20 PUSH1 0x0 KECCAK256 SWAP1 PUSH1 0x1F ADD PUSH1 0x20 SWAP1 DIV DUP2 ADD SWAP3 DUP3 PUSH2 0xE52 JUMPI PUSH1 0x0 DUP6 SSTORE PUSH2 0xE99 JUMP JUMPDEST DUP3 PUSH1 0x1F LT PUSH2 0xE6B JUMPI DUP1 MLOAD PUSH1 0xFF NOT AND DUP4 DUP1 ADD OR DUP6 SSTORE PUSH2 0xE99 JUMP JUMPDEST DUP3 DUP1 ADD PUSH1 0x1 ADD DUP6 SSTORE DUP3 ISZERO PUSH2 0xE99 JUMPI SWAP2 DUP3 ADD JUMPDEST DUP3 DUP2 GT ISZERO PUSH2 0xE98 JUMPI DUP3 MLOAD DUP3 SSTORE SWAP2 PUSH1 0x20 ADD SWAP2 SWAP1 PUSH1 0x1 ADD SWAP1 PUSH2 0xE7D JUMP JUMPDEST JUMPDEST POP SWAP1 POP PUSH2 0xEA6 SWAP2 SWAP1 PUSH2 0xEAA JUMP JUMPDEST POP SWAP1 JUMP JUMPDEST JUMPDEST DUP1 DUP3 GT ISZERO PUSH2 0xEC3 JUMPI PUSH1 0x0 DUP2 PUSH1 0x0 SWAP1 SSTORE POP PUSH1 0x1 ADD PUSH2 0xEAB JUMP JUMPDEST POP SWAP1 JUMP JUMPDEST PUSH1 0x0 PUSH2 0xEDA PUSH2 0xED5 DUP5 PUSH2 0x158D JUMP JUMPDEST PUSH2 0x1568 JUMP JUMPDEST SWAP1 POP DUP3 DUP2 MSTORE PUSH1 0x20 DUP2 ADD DUP5 DUP5 DUP5 ADD GT ISZERO PUSH2 0xEF6 JUMPI PUSH2 0xEF5 PUSH2 0x17B9 JUMP JUMPDEST JUMPDEST PUSH2 0xF01 DUP5 DUP3 DUP6 PUSH2 0x163D JUMP JUMPDEST POP SWAP4 SWAP3 POP POP POP JUMP JUMPDEST PUSH1 0x0 DUP2 CALLDATALOAD SWAP1 POP PUSH2 0xF18 DUP2 PUSH2 0x1AB1 JUMP JUMPDEST SWAP3 SWAP2 POP POP JUMP JUMPDEST PUSH1 0x0 DUP3 PUSH1 0x1F DUP4 ADD SLT PUSH2 0xF33 JUMPI PUSH2 0xF32 PUSH2 0x17B4 JUMP JUMPDEST JUMPDEST DUP2 CALLDATALOAD PUSH2 0xF43 DUP5 DUP3 PUSH1 0x20 DUP7 ADD PUSH2 0xEC7 JUMP JUMPDEST SWAP2 POP POP SWAP3 SWAP2 POP POP JUMP JUMPDEST PUSH1 0x0 DUP2 CALLDATALOAD SWAP1 POP PUSH2 0xF5B DUP2 PUSH2 0x1AC8 JUMP JUMPDEST SWAP3 SWAP2 POP POP JUMP JUMPDEST PUSH1 0x0 DUP2 CALLDATALOAD SWAP1 POP PUSH2 0xF70 DUP2 PUSH2 0x1ADF JUMP JUMPDEST SWAP3 SWAP2 POP POP JUMP JUMPDEST PUSH1 0x0 DUP1 PUSH1 0x0 PUSH1 0x60 DUP5 DUP7 SUB SLT ISZERO PUSH2 0xF8F JUMPI PUSH2 0xF8E PUSH2 0x17C3 JUMP JUMPDEST JUMPDEST PUSH1 0x0 PUSH2 0xF9D DUP7 DUP3 DUP8 ADD PUSH2 0xF4C JUMP JUMPDEST SWAP4 POP POP PUSH1 0x20 PUSH2 0xFAE DUP7 DUP3 DUP8 ADD PUSH2 0xF4C JUMP JUMPDEST SWAP3 POP POP PUSH1 0x40 PUSH2 0xFBF DUP7 DUP3 DUP8 ADD PUSH2 0xF4C JUMP JUMPDEST SWAP2 POP POP SWAP3 POP SWAP3 POP SWAP3 JUMP JUMPDEST PUSH1 0x0 DUP1 PUSH1 0x0 DUP1 PUSH1 0x0 PUSH1 0xA0 DUP7 DUP9 SUB SLT ISZERO PUSH2 0xFE5 JUMPI PUSH2 0xFE4 PUSH2 0x17C3 JUMP JUMPDEST JUMPDEST PUSH1 0x0 PUSH2 0xFF3 DUP9 DUP3 DUP10 ADD PUSH2 0xF4C JUMP JUMPDEST SWAP6 POP POP PUSH1 0x20 PUSH2 0x1004 DUP9 DUP3 DUP10 ADD PUSH2 0xF4C JUMP JUMPDEST SWAP5 POP POP PUSH1 0x40 PUSH2 0x1015 DUP9 DUP3 DUP10 ADD PUSH2 0xF4C JUMP JUMPDEST SWAP4 POP POP PUSH1 0x60 PUSH2 0x1026 DUP9 DUP3 DUP10 ADD PUSH2 0xF09 JUMP JUMPDEST SWAP3 POP POP PUSH1 0x80 PUSH2 0x1037 DUP9 DUP3 DUP10 ADD PUSH2 0xF61 JUMP JUMPDEST SWAP2 POP POP SWAP3 SWAP6 POP SWAP3 SWAP6 SWAP1 SWAP4 POP JUMP JUMPDEST PUSH1 0x0 DUP1 PUSH1 0x0 DUP1 PUSH1 0x0 PUSH1 0xA0 DUP7 DUP9 SUB SLT ISZERO PUSH2 0x1060 JUMPI PUSH2 0x105F PUSH2 0x17C3 JUMP JUMPDEST JUMPDEST PUSH1 0x0 PUSH2 0x106E DUP9 DUP3 DUP10 ADD PUSH2 0xF4C JUMP JUMPDEST SWAP6 POP POP PUSH1 0x20 PUSH2 0x107F DUP9 DUP3 DUP10 ADD PUSH2 0xF4C JUMP JUMPDEST SWAP5 POP POP PUSH1 0x40 PUSH2 0x1090 DUP9 DUP3 DUP10 ADD PUSH2 0xF4C JUMP JUMPDEST SWAP4 POP POP PUSH1 0x60 DUP7 ADD CALLDATALOAD PUSH8 0xFFFFFFFFFFFFFFFF DUP2 GT ISZERO PUSH2 0x10B1 JUMPI PUSH2 0x10B0 PUSH2 0x17BE JUMP JUMPDEST JUMPDEST PUSH2 0x10BD DUP9 DUP3 DUP10 ADD PUSH2 0xF1E JUMP JUMPDEST SWAP3 POP POP PUSH1 0x80 DUP7 ADD CALLDATALOAD PUSH8 0xFFFFFFFFFFFFFFFF DUP2 GT ISZERO PUSH2 0x10DE JUMPI PUSH2 0x10DD PUSH2 0x17BE JUMP JUMPDEST JUMPDEST PUSH2 0x10EA DUP9 DUP3 DUP10 ADD PUSH2 0xF1E JUMP JUMPDEST SWAP2 POP POP SWAP3 SWAP6 POP SWAP3 SWAP6 SWAP1 SWAP4 POP JUMP JUMPDEST PUSH1 0x0 DUP1 PUSH1 0x0 DUP1 PUSH1 0x0 DUP1 PUSH1 0x0 DUP1 PUSH2 0x100 DUP10 DUP12 SUB SLT ISZERO PUSH2 0x1118 JUMPI PUSH2 0x1117 PUSH2 0x17C3 JUMP JUMPDEST JUMPDEST PUSH1 0x0 PUSH2 0x1126 DUP12 DUP3 DUP13 ADD PUSH2 0xF4C JUMP JUMPDEST SWAP9 POP POP PUSH1 0x20 PUSH2 0x1137 DUP12 DUP3 DUP13 ADD PUSH2 0xF4C JUMP JUMPDEST SWAP8 POP POP PUSH1 0x40 PUSH2 0x1148 DUP12 DUP3 DUP13 ADD PUSH2 0xF4C JUMP JUMPDEST SWAP7 POP POP PUSH1 0x60 DUP10 ADD CALLDATALOAD PUSH8 0xFFFFFFFFFFFFFFFF DUP2 GT ISZERO PUSH2 0x1169 JUMPI PUSH2 0x1168 PUSH2 0x17BE JUMP JUMPDEST JUMPDEST PUSH2 0x1175 DUP12 DUP3 DUP13 ADD PUSH2 0xF1E JUMP JUMPDEST SWAP6 POP POP PUSH1 0x80 DUP10 ADD CALLDATALOAD PUSH8 0xFFFFFFFFFFFFFFFF DUP2 GT ISZERO PUSH2 0x1196 JUMPI PUSH2 0x1195 PUSH2 0x17BE JUMP JUMPDEST JUMPDEST PUSH2 0x11A2 DUP12 DUP3 DUP13 ADD PUSH2 0xF1E JUMP JUMPDEST SWAP5 POP POP PUSH1 0xA0 PUSH2 0x11B3 DUP12 DUP3 DUP13 ADD PUSH2 0xF09 JUMP JUMPDEST SWAP4 POP POP PUSH1 0xC0 PUSH2 0x11C4 DUP12 DUP3 DUP13 ADD PUSH2 0xF09 JUMP JUMPDEST SWAP3 POP POP PUSH1 0xE0 PUSH2 0x11D5 DUP12 DUP3 DUP13 ADD PUSH2 0xF4C JUMP JUMPDEST SWAP2 POP POP SWAP3 SWAP6 SWAP9 POP SWAP3 SWAP6 SWAP9 SWAP1 SWAP4 SWAP7 POP JUMP JUMPDEST PUSH2 0x11EE DUP2 PUSH2 0x15CF JUMP JUMPDEST DUP3 MSTORE POP POP JUMP JUMPDEST PUSH2 0x11FD DUP2 PUSH2 0x162B JUMP JUMPDEST DUP3 MSTORE POP POP JUMP JUMPDEST PUSH1 0x0 PUSH2 0x1210 PUSH1 0x57 DUP4 PUSH2 0x15BE JUMP JUMPDEST SWAP2 POP PUSH2 0x121B DUP3 PUSH2 0x17D9 JUMP JUMPDEST PUSH1 0x60 DUP3 ADD SWAP1 POP SWAP2 SWAP1 POP JUMP JUMPDEST PUSH1 0x0 PUSH2 0x1233 PUSH1 0x2D DUP4 PUSH2 0x15BE JUMP JUMPDEST SWAP2 POP PUSH2 0x123E DUP3 PUSH2 0x184E JUMP JUMPDEST PUSH1 0x40 DUP3 ADD SWAP1 POP SWAP2 SWAP1 POP JUMP JUMPDEST PUSH1 0x0 PUSH2 0x1256 PUSH1 0x30 DUP4 PUSH2 0x15BE JUMP JUMPDEST SWAP2 POP PUSH2 0x1261 DUP3 PUSH2 0x189D JUMP JUMPDEST PUSH1 0x40 DUP3 ADD SWAP1 POP SWAP2 SWAP1 POP JUMP JUMPDEST PUSH1 0x0 PUSH2 0x1279 PUSH1 0x3D DUP4 PUSH2 0x15BE JUMP JUMPDEST SWAP2 POP PUSH2 0x1284 DUP3 PUSH2 0x18EC JUMP JUMPDEST PUSH1 0x40 DUP3 ADD SWAP1 POP SWAP2 SWAP1 POP JUMP JUMPDEST PUSH1 0x0 PUSH2 0x129C PUSH1 0x4A DUP4 PUSH2 0x15BE JUMP JUMPDEST SWAP2 POP PUSH2 0x12A7 DUP3 PUSH2 0x193B JUMP JUMPDEST PUSH1 0x60 DUP3 ADD SWAP1 POP SWAP2 SWAP1 POP JUMP JUMPDEST PUSH1 0x0 PUSH2 0x12BF PUSH1 0x39 DUP4 PUSH2 0x15BE JUMP JUMPDEST SWAP2 POP PUSH2 0x12CA DUP3 PUSH2 0x19B0 JUMP JUMPDEST PUSH1 0x40 DUP3 ADD SWAP1 POP SWAP2 SWAP1 POP JUMP JUMPDEST PUSH1 0x0 PUSH2 0x12E2 PUSH1 0x20 DUP4 PUSH2 0x15BE JUMP JUMPDEST SWAP2 POP PUSH2 0x12ED DUP3 PUSH2 0x19FF JUMP JUMPDEST PUSH1 0x20 DUP3 ADD SWAP1 POP SWAP2 SWAP1 POP JUMP JUMPDEST PUSH1 0x0 PUSH2 0x1305 PUSH1 0x4D DUP4 PUSH2 0x15BE JUMP JUMPDEST SWAP2 POP PUSH2 0x1310 DUP3 PUSH2 0x1A28 JUMP JUMPDEST PUSH1 0x60 DUP3 ADD SWAP1 POP SWAP2 SWAP1 POP JUMP JUMPDEST PUSH2 0x1324 DUP2 PUSH2 0x1614 JUMP JUMPDEST DUP3 MSTORE POP POP JUMP JUMPDEST PUSH2 0x1333 DUP2 PUSH2 0x161E JUMP JUMPDEST DUP3 MSTORE POP POP JUMP JUMPDEST PUSH1 0x0 PUSH1 0x20 DUP3 ADD SWAP1 POP PUSH2 0x134E PUSH1 0x0 DUP4 ADD DUP5 PUSH2 0x11F4 JUMP JUMPDEST SWAP3 SWAP2 POP POP JUMP JUMPDEST PUSH1 0x0 PUSH1 0x20 DUP3 ADD SWAP1 POP DUP2 DUP2 SUB PUSH1 0x0 DUP4 ADD MSTORE PUSH2 0x136D DUP2 PUSH2 0x1203 JUMP JUMPDEST SWAP1 POP SWAP2 SWAP1 POP JUMP JUMPDEST PUSH1 0x0 PUSH1 0x20 DUP3 ADD SWAP1 POP DUP2 DUP2 SUB PUSH1 0x0 DUP4 ADD MSTORE PUSH2 0x138D DUP2 PUSH2 0x1226 JUMP JUMPDEST SWAP1 POP SWAP2 SWAP1 POP JUMP JUMPDEST PUSH1 0x0 PUSH1 0x20 DUP3 ADD SWAP1 POP DUP2 DUP2 SUB PUSH1 0x0 DUP4 ADD MSTORE PUSH2 0x13AD DUP2 PUSH2 0x1249 JUMP JUMPDEST SWAP1 POP SWAP2 SWAP1 POP JUMP JUMPDEST PUSH1 0x0 PUSH1 0x20 DUP3 ADD SWAP1 POP DUP2 DUP2 SUB PUSH1 0x0 DUP4 ADD MSTORE PUSH2 0x13CD DUP2 PUSH2 0x126C JUMP JUMPDEST SWAP1 POP SWAP2 SWAP1 POP JUMP JUMPDEST PUSH1 0x0 PUSH1 0x20 DUP3 ADD SWAP1 POP DUP2 DUP2 SUB PUSH1 0x0 DUP4 ADD MSTORE PUSH2 0x13ED DUP2 PUSH2 0x128F JUMP JUMPDEST SWAP1 POP SWAP2 SWAP1 POP JUMP JUMPDEST PUSH1 0x0 PUSH1 0x20 DUP3 ADD SWAP1 POP DUP2 DUP2 SUB PUSH1 0x0 DUP4 ADD MSTORE PUSH2 0x140D DUP2 PUSH2 0x12B2 JUMP JUMPDEST SWAP1 POP SWAP2 SWAP1 POP JUMP JUMPDEST PUSH1 0x0 PUSH1 0x20 DUP3 ADD SWAP1 POP DUP2 DUP2 SUB PUSH1 0x0 DUP4 ADD MSTORE PUSH2 0x142D DUP2 PUSH2 0x12D5 JUMP JUMPDEST SWAP1 POP SWAP2 SWAP1 POP JUMP JUMPDEST PUSH1 0x0 PUSH1 0x20 DUP3 ADD SWAP1 POP DUP2 DUP2 SUB PUSH1 0x0 DUP4 ADD MSTORE PUSH2 0x144D DUP2 PUSH2 0x12F8 JUMP JUMPDEST SWAP1 POP SWAP2 SWAP1 POP JUMP JUMPDEST PUSH1 0x0 PUSH1 0x20 DUP3 ADD SWAP1 POP PUSH2 0x1469 PUSH1 0x0 DUP4 ADD DUP5 PUSH2 0x131B JUMP JUMPDEST SWAP3 SWAP2 POP POP JUMP JUMPDEST PUSH1 0x0 PUSH1 0xC0 DUP3 ADD SWAP1 POP PUSH2 0x1484 PUSH1 0x0 DUP4 ADD DUP10 PUSH2 0x131B JUMP JUMPDEST PUSH2 0x1491 PUSH1 0x20 DUP4 ADD DUP9 PUSH2 0x131B JUMP JUMPDEST PUSH2 0x149E PUSH1 0x40 DUP4 ADD DUP8 PUSH2 0x131B JUMP JUMPDEST PUSH2 0x14AB PUSH1 0x60 DUP4 ADD DUP7 PUSH2 0x11E5 JUMP JUMPDEST PUSH2 0x14B8 PUSH1 0x80 DUP4 ADD DUP6 PUSH2 0x11E5 JUMP JUMPDEST PUSH2 0x14C5 PUSH1 0xA0 DUP4 ADD DUP5 PUSH2 0x131B JUMP JUMPDEST SWAP8 SWAP7 POP POP POP POP POP POP POP JUMP JUMPDEST PUSH1 0x0 PUSH1 0xA0 DUP3 ADD SWAP1 POP PUSH2 0x14E5 PUSH1 0x0 DUP4 ADD DUP9 PUSH2 0x131B JUMP JUMPDEST PUSH2 0x14F2 PUSH1 0x20 DUP4 ADD DUP8 PUSH2 0x131B JUMP JUMPDEST PUSH2 0x14FF PUSH1 0x40 DUP4 ADD DUP7 PUSH2 0x131B JUMP JUMPDEST PUSH2 0x150C PUSH1 0x60 DUP4 ADD DUP6 PUSH2 0x11E5 JUMP JUMPDEST PUSH2 0x1519 PUSH1 0x80 DUP4 ADD DUP5 PUSH2 0x132A JUMP JUMPDEST SWAP7 SWAP6 POP POP POP POP POP POP JUMP JUMPDEST PUSH1 0x0 PUSH1 0x80 DUP3 ADD SWAP1 POP PUSH2 0x1538 PUSH1 0x0 DUP4 ADD DUP8 PUSH2 0x131B JUMP JUMPDEST PUSH2 0x1545 PUSH1 0x20 DUP4 ADD DUP7 PUSH2 0x131B JUMP JUMPDEST PUSH2 0x1552 PUSH1 0x40 DUP4 ADD DUP6 PUSH2 0x131B JUMP JUMPDEST PUSH2 0x155F PUSH1 0x60 DUP4 ADD DUP5 PUSH2 0x132A JUMP JUMPDEST SWAP6 SWAP5 POP POP POP POP POP JUMP JUMPDEST PUSH1 0x0 PUSH2 0x1572 PUSH2 0x1583 JUMP JUMPDEST SWAP1 POP PUSH2 0x157E DUP3 DUP3 PUSH2 0x167E JUMP JUMPDEST SWAP2 SWAP1 POP JUMP JUMPDEST PUSH1 0x0 PUSH1 0x40 MLOAD SWAP1 POP SWAP1 JUMP JUMPDEST PUSH1 0x0 PUSH8 0xFFFFFFFFFFFFFFFF DUP3 GT ISZERO PUSH2 0x15A8 JUMPI PUSH2 0x15A7 PUSH2 0x1785 JUMP JUMPDEST JUMPDEST PUSH2 0x15B1 DUP3 PUSH2 0x17C8 JUMP JUMPDEST SWAP1 POP PUSH1 0x20 DUP2 ADD SWAP1 POP SWAP2 SWAP1 POP JUMP JUMPDEST PUSH1 0x0 DUP3 DUP3 MSTORE PUSH1 0x20 DUP3 ADD SWAP1 POP SWAP3 SWAP2 POP POP JUMP JUMPDEST PUSH1 0x0 PUSH2 0x15DA DUP3 PUSH2 0x15F4 JUMP JUMPDEST SWAP1 POP SWAP2 SWAP1 POP JUMP JUMPDEST PUSH1 0x0 DUP2 SWAP1 POP PUSH2 0x15EF DUP3 PUSH2 0x1A9D JUMP JUMPDEST SWAP2 SWAP1 POP JUMP JUMPDEST PUSH1 0x0 PUSH20 0xFFFFFFFFFFFFFFFFFFFFFFFFFFFFFFFFFFFFFFFF DUP3 AND SWAP1 POP SWAP2 SWAP1 POP JUMP JUMPDEST PUSH1 0x0 DUP2 SWAP1 POP SWAP2 SWAP1 POP JUMP JUMPDEST PUSH1 0x0 PUSH1 0xFF DUP3 AND SWAP1 POP SWAP2 SWAP1 POP JUMP JUMPDEST PUSH1 0x0 PUSH2 0x1636 DUP3 PUSH2 0x15E1 JUMP JUMPDEST SWAP1 POP SWAP2 SWAP1 POP JUMP JUMPDEST DUP3 DUP2 DUP4 CALLDATACOPY PUSH1 0x0 DUP4 DUP4 ADD MSTORE POP POP POP JUMP JUMPDEST PUSH1 0x0 PUSH1 0x2 DUP3 DIV SWAP1 POP PUSH1 0x1 DUP3 AND DUP1 PUSH2 0x1664 JUMPI PUSH1 0x7F DUP3 AND SWAP2 POP JUMPDEST PUSH1 0x20 DUP3 LT DUP2 EQ ISZERO PUSH2 0x1678 JUMPI PUSH2 0x1677 PUSH2 0x1756 JUMP JUMPDEST JUMPDEST POP SWAP2 SWAP1 POP JUMP JUMPDEST PUSH2 0x1687 DUP3 PUSH2 0x17C8 JUMP JUMPDEST DUP2 ADD DUP2 DUP2 LT PUSH8 0xFFFFFFFFFFFFFFFF DUP3 GT OR ISZERO PUSH2 0x16A6 JUMPI PUSH2 0x16A5 PUSH2 0x1785 JUMP JUMPDEST JUMPDEST DUP1 PUSH1 0x40 MSTORE POP POP POP JUMP JUMPDEST PUSH1 0x0 PUSH2 0x16BA DUP3 PUSH2 0x1614 JUMP JUMPDEST SWAP2 POP PUSH32 0xFFFFFFFFFFFFFFFFFFFFFFFFFFFFFFFFFFFFFFFFFFFFFFFFFFFFFFFFFFFFFFFF DUP3 EQ ISZERO PUSH2 0x16ED JUMPI PUSH2 0x16EC PUSH2 0x16F8 JUMP JUMPDEST JUMPDEST PUSH1 0x1 DUP3 ADD SWAP1 POP SWAP2 SWAP1 POP JUMP JUMPDEST PUSH32 0x4E487B7100000000000000000000000000000000000000000000000000000000 PUSH1 0x0 MSTORE PUSH1 0x11 PUSH1 0x4 MSTORE PUSH1 0x24 PUSH1 0x0 REVERT JUMPDEST PUSH32 0x4E487B7100000000000000000000000000000000000000000000000000000000 PUSH1 0x0 MSTORE PUSH1 0x21 PUSH1 0x4 MSTORE PUSH1 0x24 PUSH1 0x0 REVERT JUMPDEST PUSH32 0x4E487B7100000000000000000000000000000000000000000000000000000000 PUSH1 0x0 MSTORE PUSH1 0x22 PUSH1 0x4 MSTORE PUSH1 0x24 PUSH1 0x0 REVERT JUMPDEST PUSH32 0x4E487B7100000000000000000000000000000000000000000000000000000000 PUSH1 0x0 MSTORE PUSH1 0x41 PUSH1 0x4 MSTORE PUSH1 0x24 PUSH1 0x0 REVERT JUMPDEST PUSH1 0x0 DUP1 REVERT JUMPDEST PUSH1 0x0 DUP1 REVERT JUMPDEST PUSH1 0x0 DUP1 REVERT JUMPDEST PUSH1 0x0 DUP1 REVERT JUMPDEST PUSH1 0x0 PUSH1 0x1F NOT PUSH1 0x1F DUP4 ADD AND SWAP1 POP SWAP2 SWAP1 POP JUMP JUMPDEST PUSH32 0x596F752068617665206E6F7420696E707574206120726967687420766F74652E PUSH1 0x0 DUP3 ADD MSTORE PUSH32 0x20596F752063616E2065697468657220766F7465203120666F72205265717565 PUSH1 0x20 DUP3 ADD MSTORE PUSH32 0x73746572206F72203220666F722050726F76696465722E000000000000000000 PUSH1 0x40 DUP3 ADD MSTORE POP JUMP JUMPDEST PUSH32 0x596F75206861766520616C726561647920766F7465642C20796F752063616E6E PUSH1 0x0 DUP3 ADD MSTORE PUSH32 0x6F7420766F746520616761696E00000000000000000000000000000000000000 PUSH1 0x20 DUP3 ADD MSTORE POP JUMP JUMPDEST PUSH32 0x596F7520726169736564207468697320636F6E666C6963742E20596F75206361 PUSH1 0x0 DUP3 ADD MSTORE PUSH32 0x6E6E6F7420766F7465206F6E2069742E00000000000000000000000000000000 PUSH1 0x20 DUP3 ADD MSTORE POP JUMP JUMPDEST PUSH32 0x566F74696E6720686173206E6F74206265656E20636F6D706C65746564207965 PUSH1 0x0 DUP3 ADD MSTORE PUSH32 0x742E20506C65617365207761697420666F7220697420746F20656E642E000000 PUSH1 0x20 DUP3 ADD MSTORE POP JUMP JUMPDEST PUSH32 0x4E6F742065766572796F6E652068617320766F7465642C20706C656173652070 PUSH1 0x0 DUP3 ADD MSTORE PUSH32 0x726F6D707420616C6C206F74686572206D656D62657273206F662070726F6A65 PUSH1 0x20 DUP3 ADD MSTORE PUSH32 0x637420746F20766F746500000000000000000000000000000000000000000000 PUSH1 0x40 DUP3 ADD MSTORE POP JUMP JUMPDEST PUSH32 0x596F752061726520696E766F6C76656420696E207468697320636F6E666C6963 PUSH1 0x0 DUP3 ADD MSTORE PUSH32 0x742E20596F752063616E6E6F7420766F7465206F6E2069742E00000000000000 PUSH1 0x20 DUP3 ADD MSTORE POP JUMP JUMPDEST PUSH32 0x456E6F75676820766F7465732068617665206265656E20636F6C6C6563746564 PUSH1 0x0 DUP3 ADD MSTORE POP JUMP JUMPDEST PUSH32 0x436F6E666C6963742068617320616C7265616479206265656E20637265617465 PUSH1 0x0 DUP3 ADD MSTORE PUSH32 0x642E20506C6561736520646F206E6F7420637265617465206D6F726520746861 PUSH1 0x20 DUP3 ADD MSTORE PUSH32 0x6E203120636F6E666C6963742E00000000000000000000000000000000000000 PUSH1 0x40 DUP3 ADD MSTORE POP JUMP JUMPDEST PUSH1 0x3 DUP2 LT PUSH2 0x1AAE JUMPI PUSH2 0x1AAD PUSH2 0x1727 JUMP JUMPDEST JUMPDEST POP JUMP JUMPDEST PUSH2 0x1ABA DUP2 PUSH2 0x15CF JUMP JUMPDEST DUP2 EQ PUSH2 0x1AC5 JUMPI PUSH1 0x0 DUP1 REVERT JUMPDEST POP JUMP JUMPDEST PUSH2 0x1AD1 DUP2 PUSH2 0x1614 JUMP JUMPDEST DUP2 EQ PUSH2 0x1ADC JUMPI PUSH1 0x0 DUP1 REVERT JUMPDEST POP JUMP JUMPDEST PUSH2 0x1AE8 DUP2 PUSH2 0x161E JUMP JUMPDEST DUP2 EQ PUSH2 0x1AF3 JUMPI PUSH1 0x0 DUP1 REVERT JUMPDEST POP JUMP INVALID LOG2 PUSH5 0x6970667358 0x22 SLT KECCAK256 0xBE 0xCA SWAP12 0x26 JUMPI CALLDATASIZE DUP1 0xE6 SHL 0xEF PUSH32 0x5F082AF71EB0CCCBE70D469568CFAF672DB56E543D64736F6C63430008070033 "
				},
				"gasEstimates": {
					"creation": {
						"codeDepositCost": "1391200",
						"executionCost": "1451",
						"totalCost": "1392651"
					},
					"external": {
						"createConflict(uint256,uint256,uint256,string,string,address,address,uint256)": "infinite",
						"deleteConflict(uint256,uint256,uint256)": "infinite",
						"getConflictStatus(uint256,uint256,uint256)": "infinite",
						"getResults(uint256,uint256,uint256)": "infinite",
						"getVotesCollected(uint256,uint256,uint256)": "infinite",
						"getVotesforProvider(uint256,uint256,uint256)": "infinite",
						"getVotesforRequester(uint256,uint256,uint256)": "infinite",
						"readConflictStatus(uint256,uint256,uint256)": "infinite",
						"updateConflict(uint256,uint256,uint256,string,string)": "infinite",
						"voteConflict(uint256,uint256,uint256,address,uint8)": "infinite"
					}
				},
				"methodIdentifiers": {
					"createConflict(uint256,uint256,uint256,string,string,address,address,uint256)": "e62fac27",
					"deleteConflict(uint256,uint256,uint256)": "003f489f",
					"getConflictStatus(uint256,uint256,uint256)": "cb4389ce",
					"getResults(uint256,uint256,uint256)": "0366cef2",
					"getVotesCollected(uint256,uint256,uint256)": "3c45fe31",
					"getVotesforProvider(uint256,uint256,uint256)": "9ac78879",
					"getVotesforRequester(uint256,uint256,uint256)": "e3d87718",
					"readConflictStatus(uint256,uint256,uint256)": "c559b16b",
					"updateConflict(uint256,uint256,uint256,string,string)": "d1e992a7",
					"voteConflict(uint256,uint256,uint256,address,uint8)": "c171bdf7"
				}
			},
			"userdoc": {
				"kind": "user",
				"methods": {},
				"version": 1
			}
		}
	}
}