{
	"contracts/Conflict.sol": {
		"Conflict": {
			"abi": [
				{
					"anonymous": false,
					"inputs": [
						{
							"indexed": false,
							"internalType": "uint256",
							"name": "projectNumber",
							"type": "uint256"
						},
						{
							"indexed": false,
							"internalType": "uint256",
							"name": "serviceNumber",
							"type": "uint256"
						},
						{
							"indexed": false,
							"internalType": "uint256",
							"name": "milestoneNumber",
							"type": "uint256"
						},
						{
							"indexed": false,
							"internalType": "address",
							"name": "serviceRequester",
							"type": "address"
						},
						{
							"indexed": false,
							"internalType": "address",
							"name": "serviceProvider",
							"type": "address"
						},
						{
							"indexed": false,
							"internalType": "uint256",
							"name": "totalVoters",
							"type": "uint256"
						}
					],
					"name": "conflictCreated",
					"type": "event"
				},
				{
					"anonymous": false,
					"inputs": [
						{
							"indexed": false,
							"internalType": "uint256",
							"name": "projectNumber",
							"type": "uint256"
						},
						{
							"indexed": false,
							"internalType": "uint256",
							"name": "serviceNumber",
							"type": "uint256"
						},
						{
							"indexed": false,
							"internalType": "uint256",
							"name": "milestoneNumber",
							"type": "uint256"
						},
						{
							"indexed": false,
							"internalType": "address",
							"name": "serviceProvider",
							"type": "address"
						}
					],
					"name": "conflictRaised",
					"type": "event"
				},
				{
					"anonymous": false,
					"inputs": [
						{
							"indexed": false,
							"internalType": "uint256",
							"name": "projectNumber",
							"type": "uint256"
						},
						{
							"indexed": false,
							"internalType": "uint256",
							"name": "serviceNumber",
							"type": "uint256"
						},
						{
							"indexed": false,
							"internalType": "uint256",
							"name": "milestoneNumber",
							"type": "uint256"
						},
						{
							"indexed": false,
							"internalType": "uint8",
							"name": "result",
							"type": "uint8"
						}
					],
					"name": "conflictResult",
					"type": "event"
				},
				{
					"anonymous": false,
					"inputs": [
						{
							"indexed": false,
							"internalType": "uint256",
							"name": "projectNumber",
							"type": "uint256"
						},
						{
							"indexed": false,
							"internalType": "uint256",
							"name": "serviceNumber",
							"type": "uint256"
						},
						{
							"indexed": false,
							"internalType": "uint256",
							"name": "milestoneNumber",
							"type": "uint256"
						},
						{
							"indexed": false,
							"internalType": "address",
							"name": "voter",
							"type": "address"
						},
						{
							"indexed": false,
							"internalType": "uint8",
							"name": "vote",
							"type": "uint8"
						}
					],
					"name": "conflictVoted",
					"type": "event"
				},
				{
					"inputs": [
						{
							"internalType": "uint256",
							"name": "projectNumber",
							"type": "uint256"
						},
						{
							"internalType": "uint256",
							"name": "serviceNumber",
							"type": "uint256"
						},
						{
							"internalType": "uint256",
							"name": "milestoneNumber",
							"type": "uint256"
						},
						{
							"internalType": "string",
							"name": "title",
							"type": "string"
						},
						{
							"internalType": "string",
							"name": "description",
							"type": "string"
						},
						{
							"internalType": "address",
							"name": "serviceRequester",
							"type": "address"
						},
						{
							"internalType": "address",
							"name": "serviceProvider",
							"type": "address"
						},
						{
							"internalType": "uint256",
							"name": "totalVoters",
							"type": "uint256"
						}
					],
					"name": "createConflict",
					"outputs": [],
					"stateMutability": "nonpayable",
					"type": "function"
				},
				{
					"inputs": [
						{
							"internalType": "uint256",
							"name": "projectNumber",
							"type": "uint256"
						},
						{
							"internalType": "uint256",
							"name": "serviceNumber",
							"type": "uint256"
						},
						{
							"internalType": "uint256",
							"name": "milestoneNumber",
							"type": "uint256"
						}
					],
					"name": "deleteConflict",
					"outputs": [],
					"stateMutability": "nonpayable",
					"type": "function"
				},
				{
					"inputs": [
						{
							"internalType": "uint256",
							"name": "projectNumber",
							"type": "uint256"
						},
						{
							"internalType": "uint256",
							"name": "serviceNumber",
							"type": "uint256"
						},
						{
							"internalType": "uint256",
							"name": "milestoneNumber",
							"type": "uint256"
						}
					],
					"name": "getConflictStatus",
					"outputs": [
						{
							"internalType": "enum Conflict.ConflictStatus",
							"name": "",
							"type": "uint8"
						}
					],
					"stateMutability": "view",
					"type": "function"
				},
				{
					"inputs": [
						{
							"internalType": "uint256",
							"name": "projectNumber",
							"type": "uint256"
						},
						{
							"internalType": "uint256",
							"name": "serviceNumber",
							"type": "uint256"
						},
						{
							"internalType": "uint256",
							"name": "milestoneNumber",
							"type": "uint256"
						}
					],
					"name": "getResults",
					"outputs": [
						{
							"internalType": "uint256",
							"name": "",
							"type": "uint256"
						}
					],
					"stateMutability": "view",
					"type": "function"
				},
				{
					"inputs": [
						{
							"internalType": "uint256",
							"name": "projectNumber",
							"type": "uint256"
						},
						{
							"internalType": "uint256",
							"name": "serviceNumber",
							"type": "uint256"
						},
						{
							"internalType": "uint256",
							"name": "milestoneNumber",
							"type": "uint256"
						}
					],
					"name": "getVotesCollected",
					"outputs": [
						{
							"internalType": "uint256",
							"name": "",
							"type": "uint256"
						}
					],
					"stateMutability": "view",
					"type": "function"
				},
				{
					"inputs": [
						{
							"internalType": "uint256",
							"name": "projectNumber",
							"type": "uint256"
						},
						{
							"internalType": "uint256",
							"name": "serviceNumber",
							"type": "uint256"
						},
						{
							"internalType": "uint256",
							"name": "milestoneNumber",
							"type": "uint256"
						}
					],
					"name": "getVotesforProvider",
					"outputs": [
						{
							"internalType": "uint256",
							"name": "",
							"type": "uint256"
						}
					],
					"stateMutability": "view",
					"type": "function"
				},
				{
					"inputs": [
						{
							"internalType": "uint256",
							"name": "projectNumber",
							"type": "uint256"
						},
						{
							"internalType": "uint256",
							"name": "serviceNumber",
							"type": "uint256"
						},
						{
							"internalType": "uint256",
							"name": "milestoneNumber",
							"type": "uint256"
						}
					],
					"name": "getVotesforRequester",
					"outputs": [
						{
							"internalType": "uint256",
							"name": "",
							"type": "uint256"
						}
					],
					"stateMutability": "view",
					"type": "function"
				},
				{
					"inputs": [
						{
							"internalType": "uint256",
							"name": "projectNumber",
							"type": "uint256"
						},
						{
							"internalType": "uint256",
							"name": "serviceNumber",
							"type": "uint256"
						},
						{
							"internalType": "uint256",
							"name": "milestoneNumber",
							"type": "uint256"
						}
					],
					"name": "readConflictStatus",
					"outputs": [
						{
							"internalType": "enum Conflict.ConflictStatus",
							"name": "",
							"type": "uint8"
						}
					],
					"stateMutability": "view",
					"type": "function"
				},
				{
					"inputs": [
						{
							"internalType": "uint256",
							"name": "projectNumber",
							"type": "uint256"
						},
						{
							"internalType": "uint256",
							"name": "serviceNumber",
							"type": "uint256"
						},
						{
							"internalType": "uint256",
							"name": "milestoneNumber",
							"type": "uint256"
						},
						{
							"internalType": "string",
							"name": "title",
							"type": "string"
						},
						{
							"internalType": "string",
							"name": "description",
							"type": "string"
						}
					],
					"name": "updateConflict",
					"outputs": [],
					"stateMutability": "nonpayable",
					"type": "function"
				},
				{
					"inputs": [
						{
							"internalType": "uint256",
							"name": "projectNumber",
							"type": "uint256"
						},
						{
							"internalType": "uint256",
							"name": "serviceNumber",
							"type": "uint256"
						},
						{
							"internalType": "uint256",
							"name": "milestoneNumber",
							"type": "uint256"
						},
						{
							"internalType": "address",
							"name": "sender",
							"type": "address"
						},
						{
							"internalType": "uint8",
							"name": "vote",
							"type": "uint8"
						}
					],
					"name": "voteConflict",
					"outputs": [],
					"stateMutability": "nonpayable",
					"type": "function"
				}
			],
			"devdoc": {
				"kind": "dev",
				"methods": {},
				"version": 1
			},
			"evm": {
				"assembly": "    /* \"contracts/Conflict.sol\":196:6982  contract Conflict {... */\n  mstore(0x40, 0x80)\n  callvalue\n  dup1\n  iszero\n  tag_1\n  jumpi\n  0x00\n  dup1\n  revert\ntag_1:\n  pop\n  dataSize(sub_0)\n  dup1\n  dataOffset(sub_0)\n  0x00\n  codecopy\n  0x00\n  return\nstop\n\nsub_0: assembly {\n        /* \"contracts/Conflict.sol\":196:6982  contract Conflict {... */\n      mstore(0x40, 0x80)\n      callvalue\n      dup1\n      iszero\n      tag_1\n      jumpi\n      0x00\n      dup1\n      revert\n    tag_1:\n      pop\n      jumpi(tag_2, lt(calldatasize, 0x04))\n      shr(0xe0, calldataload(0x00))\n      dup1\n      0xc559b16b\n      gt\n      tag_13\n      jumpi\n      dup1\n      0xc559b16b\n      eq\n      tag_8\n      jumpi\n      dup1\n      0xcb4389ce\n      eq\n      tag_9\n      jumpi\n      dup1\n      0xd1e992a7\n      eq\n      tag_10\n      jumpi\n      dup1\n      0xe3d87718\n      eq\n      tag_11\n      jumpi\n      dup1\n      0xe62fac27\n      eq\n      tag_12\n      jumpi\n      jump(tag_2)\n    tag_13:\n      dup1\n      0x3f489f\n      eq\n      tag_3\n      jumpi\n      dup1\n      0x0366cef2\n      eq\n      tag_4\n      jumpi\n      dup1\n      0x3c45fe31\n      eq\n      tag_5\n      jumpi\n      dup1\n      0x9ac78879\n      eq\n      tag_6\n      jumpi\n      dup1\n      0xc171bdf7\n      eq\n      tag_7\n      jumpi\n    tag_2:\n      0x00\n      dup1\n      revert\n        /* \"contracts/Conflict.sol\":3516:3715  function deleteConflict(uint256 projectNumber, uint256 serviceNumber, uint256 milestoneNumber) external {... */\n    tag_3:\n      tag_14\n      0x04\n      dup1\n      calldatasize\n      sub\n      dup2\n      add\n      swap1\n      tag_15\n      swap2\n      swap1\n      tag_16\n      jump\t// in\n    tag_15:\n      tag_17\n      jump\t// in\n    tag_14:\n      stop\n        /* \"contracts/Conflict.sol\":5428:6052  function getResults(uint256 projectNumber, uint256 serviceNumber, uint256 milestoneNumber) public view returns (uint) {... */\n    tag_4:\n      tag_18\n      0x04\n      dup1\n      calldatasize\n      sub\n      dup2\n      add\n      swap1\n      tag_19\n      swap2\n      swap1\n      tag_16\n      jump\t// in\n    tag_19:\n      tag_20\n      jump\t// in\n    tag_18:\n      mload(0x40)\n      tag_21\n      swap2\n      swap1\n      tag_22\n      jump\t// in\n    tag_21:\n      mload(0x40)\n      dup1\n      swap2\n      sub\n      swap1\n      return\n        /* \"contracts/Conflict.sol\":6294:6517  function getVotesCollected(uint256 projectNumber, uint256 serviceNumber, uint256 milestoneNumber) public view returns (uint256) {... */\n    tag_5:\n      tag_23\n      0x04\n      dup1\n      calldatasize\n      sub\n      dup2\n      add\n      swap1\n      tag_24\n      swap2\n      swap1\n      tag_16\n      jump\t// in\n    tag_24:\n      tag_25\n      jump\t// in\n    tag_23:\n      mload(0x40)\n      tag_26\n      swap2\n      swap1\n      tag_22\n      jump\t// in\n    tag_26:\n      mload(0x40)\n      dup1\n      swap2\n      sub\n      swap1\n      return\n        /* \"contracts/Conflict.sol\":6755:6979  function getVotesforProvider(uint256 projectNumber, uint256 serviceNumber, uint256 milestoneNumber) public view returns (uint256) {... */\n    tag_6:\n      tag_27\n      0x04\n      dup1\n      calldatasize\n      sub\n      dup2\n      add\n      swap1\n      tag_28\n      swap2\n      swap1\n      tag_16\n      jump\t// in\n    tag_28:\n      tag_29\n      jump\t// in\n    tag_27:\n      mload(0x40)\n      tag_30\n      swap2\n      swap1\n      tag_22\n      jump\t// in\n    tag_30:\n      mload(0x40)\n      dup1\n      swap2\n      sub\n      swap1\n      return\n        /* \"contracts/Conflict.sol\":3760:5390  function voteConflict(uint256 projectNumber, uint256 serviceNumber, uint256 milestoneNumber, address sender, uint8 vote) public {... */\n    tag_7:\n      tag_31\n      0x04\n      dup1\n      calldatasize\n      sub\n      dup2\n      add\n      swap1\n      tag_32\n      swap2\n      swap1\n      tag_33\n      jump\t// in\n    tag_32:\n      tag_34\n      jump\t// in\n    tag_31:\n      stop\n        /* \"contracts/Conflict.sol\":2855:3090  function readConflictStatus(uint256 projectNumber, uint256 serviceNumber, uint256 milestoneNumber) external view returns (ConflictStatus) {... */\n    tag_8:\n      tag_35\n      0x04\n      dup1\n      calldatasize\n      sub\n      dup2\n      add\n      swap1\n      tag_36\n      swap2\n      swap1\n      tag_16\n      jump\t// in\n    tag_36:\n      tag_37\n      jump\t// in\n    tag_35:\n      mload(0x40)\n      tag_38\n      swap2\n      swap1\n      tag_39\n      jump\t// in\n    tag_38:\n      mload(0x40)\n      dup1\n      swap2\n      sub\n      swap1\n      return\n        /* \"contracts/Conflict.sol\":6058:6288  function getConflictStatus(uint256 projectNumber, uint256 serviceNumber, uint256 milestoneNumber) public view returns (ConflictStatus) {... */\n    tag_9:\n      tag_40\n      0x04\n      dup1\n      calldatasize\n      sub\n      dup2\n      add\n      swap1\n      tag_41\n      swap2\n      swap1\n      tag_16\n      jump\t// in\n    tag_41:\n      tag_42\n      jump\t// in\n    tag_40:\n      mload(0x40)\n      tag_43\n      swap2\n      swap1\n      tag_39\n      jump\t// in\n    tag_43:\n      mload(0x40)\n      dup1\n      swap2\n      sub\n      swap1\n      return\n        /* \"contracts/Conflict.sol\":3137:3468  function updateConflict(uint256 projectNumber, uint256 serviceNumber, uint256 milestoneNumber, string memory title, string memory description) external {... */\n    tag_10:\n      tag_44\n      0x04\n      dup1\n      calldatasize\n      sub\n      dup2\n      add\n      swap1\n      tag_45\n      swap2\n      swap1\n      tag_46\n      jump\t// in\n    tag_45:\n      tag_47\n      jump\t// in\n    tag_44:\n      stop\n        /* \"contracts/Conflict.sol\":6523:6749  function getVotesforRequester(uint256 projectNumber, uint256 serviceNumber, uint256 milestoneNumber) public view returns (uint256) {... */\n    tag_11:\n      tag_48\n      0x04\n      dup1\n      calldatasize\n      sub\n      dup2\n      add\n      swap1\n      tag_49\n      swap2\n      swap1\n      tag_16\n      jump\t// in\n    tag_49:\n      tag_50\n      jump\t// in\n    tag_48:\n      mload(0x40)\n      tag_51\n      swap2\n      swap1\n      tag_22\n      jump\t// in\n    tag_51:\n      mload(0x40)\n      dup1\n      swap2\n      sub\n      swap1\n      return\n        /* \"contracts/Conflict.sol\":1504:2810  function createConflict(uint256 projectNumber, uint256 serviceNumber, uint256 milestoneNumber, string memory title, string memory description, address serviceRequester, address serviceProvider,  uint256 totalVoters) public {... */\n    tag_12:\n      tag_52\n      0x04\n      dup1\n      calldatasize\n      sub\n      dup2\n      add\n      swap1\n      tag_53\n      swap2\n      swap1\n      tag_54\n      jump\t// in\n    tag_53:\n      tag_55\n      jump\t// in\n    tag_52:\n      stop\n        /* \"contracts/Conflict.sol\":3516:3715  function deleteConflict(uint256 projectNumber, uint256 serviceNumber, uint256 milestoneNumber) external {... */\n    tag_17:\n        /* \"contracts/Conflict.sol\":3695:3700  false */\n      0x00\n        /* \"contracts/Conflict.sol\":3630:3639  conflicts */\n      dup1\n        /* \"contracts/Conflict.sol\":3630:3654  conflicts[projectNumber] */\n      0x00\n        /* \"contracts/Conflict.sol\":3640:3653  projectNumber */\n      dup6\n        /* \"contracts/Conflict.sol\":3630:3654  conflicts[projectNumber] */\n      dup2\n      mstore\n      0x20\n      add\n      swap1\n      dup2\n      mstore\n      0x20\n      add\n      0x00\n      keccak256\n        /* \"contracts/Conflict.sol\":3630:3669  conflicts[projectNumber][serviceNumber] */\n      0x00\n        /* \"contracts/Conflict.sol\":3655:3668  serviceNumber */\n      dup5\n        /* \"contracts/Conflict.sol\":3630:3669  conflicts[projectNumber][serviceNumber] */\n      dup2\n      mstore\n      0x20\n      add\n      swap1\n      dup2\n      mstore\n      0x20\n      add\n      0x00\n      keccak256\n        /* \"contracts/Conflict.sol\":3630:3686  conflicts[projectNumber][serviceNumber][milestoneNumber] */\n      0x00\n        /* \"contracts/Conflict.sol\":3670:3685  milestoneNumber */\n      dup4\n        /* \"contracts/Conflict.sol\":3630:3686  conflicts[projectNumber][serviceNumber][milestoneNumber] */\n      dup2\n      mstore\n      0x20\n      add\n      swap1\n      dup2\n      mstore\n      0x20\n      add\n      0x00\n      keccak256\n        /* \"contracts/Conflict.sol\":3630:3692  conflicts[projectNumber][serviceNumber][milestoneNumber].exist */\n      0x0b\n      add\n      0x00\n        /* \"contracts/Conflict.sol\":3630:3700  conflicts[projectNumber][serviceNumber][milestoneNumber].exist = false */\n      0x0100\n      exp\n      dup2\n      sload\n      dup2\n      0xff\n      mul\n      not\n      and\n      swap1\n      dup4\n      iszero\n      iszero\n      mul\n      or\n      swap1\n      sstore\n      pop\n        /* \"contracts/Conflict.sol\":3516:3715  function deleteConflict(uint256 projectNumber, uint256 serviceNumber, uint256 milestoneNumber) external {... */\n      pop\n      pop\n      pop\n      jump\t// out\n        /* \"contracts/Conflict.sol\":5428:6052  function getResults(uint256 projectNumber, uint256 serviceNumber, uint256 milestoneNumber) public view returns (uint) {... */\n    tag_20:\n        /* \"contracts/Conflict.sol\":5540:5544  uint */\n      0x00\n        /* \"contracts/Conflict.sol\":5639:5648  conflicts */\n      dup1\n        /* \"contracts/Conflict.sol\":5639:5663  conflicts[projectNumber] */\n      0x00\n        /* \"contracts/Conflict.sol\":5649:5662  projectNumber */\n      dup6\n        /* \"contracts/Conflict.sol\":5639:5663  conflicts[projectNumber] */\n      dup2\n      mstore\n      0x20\n      add\n      swap1\n      dup2\n      mstore\n      0x20\n      add\n      0x00\n      keccak256\n        /* \"contracts/Conflict.sol\":5639:5678  conflicts[projectNumber][serviceNumber] */\n      0x00\n        /* \"contracts/Conflict.sol\":5664:5677  serviceNumber */\n      dup5\n        /* \"contracts/Conflict.sol\":5639:5678  conflicts[projectNumber][serviceNumber] */\n      dup2\n      mstore\n      0x20\n      add\n      swap1\n      dup2\n      mstore\n      0x20\n      add\n      0x00\n      keccak256\n        /* \"contracts/Conflict.sol\":5639:5695  conflicts[projectNumber][serviceNumber][milestoneNumber] */\n      0x00\n        /* \"contracts/Conflict.sol\":5679:5694  milestoneNumber */\n      dup4\n        /* \"contracts/Conflict.sol\":5639:5695  conflicts[projectNumber][serviceNumber][milestoneNumber] */\n      dup2\n      mstore\n      0x20\n      add\n      swap1\n      dup2\n      mstore\n      0x20\n      add\n      0x00\n      keccak256\n        /* \"contracts/Conflict.sol\":5639:5702  conflicts[projectNumber][serviceNumber][milestoneNumber].voters */\n      0x07\n      add\n      sload\n        /* \"contracts/Conflict.sol\":5564:5573  conflicts */\n      0x00\n        /* \"contracts/Conflict.sol\":5564:5588  conflicts[projectNumber] */\n      dup1\n        /* \"contracts/Conflict.sol\":5574:5587  projectNumber */\n      dup7\n        /* \"contracts/Conflict.sol\":5564:5588  conflicts[projectNumber] */\n      dup2\n      mstore\n      0x20\n      add\n      swap1\n      dup2\n      mstore\n      0x20\n      add\n      0x00\n      keccak256\n        /* \"contracts/Conflict.sol\":5564:5603  conflicts[projectNumber][serviceNumber] */\n      0x00\n        /* \"contracts/Conflict.sol\":5589:5602  serviceNumber */\n      dup6\n        /* \"contracts/Conflict.sol\":5564:5603  conflicts[projectNumber][serviceNumber] */\n      dup2\n      mstore\n      0x20\n      add\n      swap1\n      dup2\n      mstore\n      0x20\n      add\n      0x00\n      keccak256\n        /* \"contracts/Conflict.sol\":5564:5620  conflicts[projectNumber][serviceNumber][milestoneNumber] */\n      0x00\n        /* \"contracts/Conflict.sol\":5604:5619  milestoneNumber */\n      dup5\n        /* \"contracts/Conflict.sol\":5564:5620  conflicts[projectNumber][serviceNumber][milestoneNumber] */\n      dup2\n      mstore\n      0x20\n      add\n      swap1\n      dup2\n      mstore\n      0x20\n      add\n      0x00\n      keccak256\n        /* \"contracts/Conflict.sol\":5564:5635  conflicts[projectNumber][serviceNumber][milestoneNumber].votesCollected */\n      0x08\n      add\n      sload\n        /* \"contracts/Conflict.sol\":5564:5702  conflicts[projectNumber][serviceNumber][milestoneNumber].votesCollected == conflicts[projectNumber][serviceNumber][milestoneNumber].voters */\n      eq\n        /* \"contracts/Conflict.sol\":5556:5781  require(conflicts[projectNumber][serviceNumber][milestoneNumber].votesCollected == conflicts[projectNumber][serviceNumber][milestoneNumber].voters, \"Not everyone has voted, please prompt all other members of project to vote\") */\n      tag_58\n      jumpi\n      mload(0x40)\n      0x08c379a000000000000000000000000000000000000000000000000000000000\n      dup2\n      mstore\n      0x04\n      add\n      tag_59\n      swap1\n      tag_60\n      jump\t// in\n    tag_59:\n      mload(0x40)\n      dup1\n      swap2\n      sub\n      swap1\n      revert\n    tag_58:\n        /* \"contracts/Conflict.sol\":5874:5898  ConflictStatus.completed */\n      0x02\n        /* \"contracts/Conflict.sol\":5799:5898  conflicts[projectNumber][serviceNumber][milestoneNumber].conflictstatus == ConflictStatus.completed */\n      dup1\n      dup2\n      gt\n      iszero\n      tag_61\n      jumpi\n      tag_62\n      tag_63\n      jump\t// in\n    tag_62:\n    tag_61:\n        /* \"contracts/Conflict.sol\":5799:5808  conflicts */\n      0x00\n        /* \"contracts/Conflict.sol\":5799:5823  conflicts[projectNumber] */\n      dup1\n        /* \"contracts/Conflict.sol\":5809:5822  projectNumber */\n      dup7\n        /* \"contracts/Conflict.sol\":5799:5823  conflicts[projectNumber] */\n      dup2\n      mstore\n      0x20\n      add\n      swap1\n      dup2\n      mstore\n      0x20\n      add\n      0x00\n      keccak256\n        /* \"contracts/Conflict.sol\":5799:5838  conflicts[projectNumber][serviceNumber] */\n      0x00\n        /* \"contracts/Conflict.sol\":5824:5837  serviceNumber */\n      dup6\n        /* \"contracts/Conflict.sol\":5799:5838  conflicts[projectNumber][serviceNumber] */\n      dup2\n      mstore\n      0x20\n      add\n      swap1\n      dup2\n      mstore\n      0x20\n      add\n      0x00\n      keccak256\n        /* \"contracts/Conflict.sol\":5799:5855  conflicts[projectNumber][serviceNumber][milestoneNumber] */\n      0x00\n        /* \"contracts/Conflict.sol\":5839:5854  milestoneNumber */\n      dup5\n        /* \"contracts/Conflict.sol\":5799:5855  conflicts[projectNumber][serviceNumber][milestoneNumber] */\n      dup2\n      mstore\n      0x20\n      add\n      swap1\n      dup2\n      mstore\n      0x20\n      add\n      0x00\n      keccak256\n        /* \"contracts/Conflict.sol\":5799:5870  conflicts[projectNumber][serviceNumber][milestoneNumber].conflictstatus */\n      0x06\n      add\n      0x14\n      swap1\n      sload\n      swap1\n      0x0100\n      exp\n      swap1\n      div\n      0xff\n      and\n        /* \"contracts/Conflict.sol\":5799:5898  conflicts[projectNumber][serviceNumber][milestoneNumber].conflictstatus == ConflictStatus.completed */\n      0x02\n      dup2\n      gt\n      iszero\n      tag_64\n      jumpi\n      tag_65\n      tag_63\n      jump\t// in\n    tag_65:\n    tag_64:\n      eq\n        /* \"contracts/Conflict.sol\":5791:5964  require(conflicts[projectNumber][serviceNumber][milestoneNumber].conflictstatus == ConflictStatus.completed, \"Voting has not been completed yet. Please wait for it to end.\") */\n      tag_66\n      jumpi\n      mload(0x40)\n      0x08c379a000000000000000000000000000000000000000000000000000000000\n      dup2\n      mstore\n      0x04\n      add\n      tag_67\n      swap1\n      tag_68\n      jump\t// in\n    tag_67:\n      mload(0x40)\n      dup1\n      swap2\n      sub\n      swap1\n      revert\n    tag_66:\n        /* \"contracts/Conflict.sol\":5982:5991  conflicts */\n      0x00\n        /* \"contracts/Conflict.sol\":5982:6006  conflicts[projectNumber] */\n      dup1\n        /* \"contracts/Conflict.sol\":5992:6005  projectNumber */\n      dup6\n        /* \"contracts/Conflict.sol\":5982:6006  conflicts[projectNumber] */\n      dup2\n      mstore\n      0x20\n      add\n      swap1\n      dup2\n      mstore\n      0x20\n      add\n      0x00\n      keccak256\n        /* \"contracts/Conflict.sol\":5982:6021  conflicts[projectNumber][serviceNumber] */\n      0x00\n        /* \"contracts/Conflict.sol\":6007:6020  serviceNumber */\n      dup5\n        /* \"contracts/Conflict.sol\":5982:6021  conflicts[projectNumber][serviceNumber] */\n      dup2\n      mstore\n      0x20\n      add\n      swap1\n      dup2\n      mstore\n      0x20\n      add\n      0x00\n      keccak256\n        /* \"contracts/Conflict.sol\":5982:6038  conflicts[projectNumber][serviceNumber][milestoneNumber] */\n      0x00\n        /* \"contracts/Conflict.sol\":6022:6037  milestoneNumber */\n      dup4\n        /* \"contracts/Conflict.sol\":5982:6038  conflicts[projectNumber][serviceNumber][milestoneNumber] */\n      dup2\n      mstore\n      0x20\n      add\n      swap1\n      dup2\n      mstore\n      0x20\n      add\n      0x00\n      keccak256\n        /* \"contracts/Conflict.sol\":5982:6045  conflicts[projectNumber][serviceNumber][milestoneNumber].result */\n      0x0b\n      add\n      0x01\n      swap1\n      sload\n      swap1\n      0x0100\n      exp\n      swap1\n      div\n      0xff\n      and\n        /* \"contracts/Conflict.sol\":5975:6045  return conflicts[projectNumber][serviceNumber][milestoneNumber].result */\n      0xff\n      and\n      swap1\n      pop\n        /* \"contracts/Conflict.sol\":5428:6052  function getResults(uint256 projectNumber, uint256 serviceNumber, uint256 milestoneNumber) public view returns (uint) {... */\n      swap4\n      swap3\n      pop\n      pop\n      pop\n      jump\t// out\n        /* \"contracts/Conflict.sol\":6294:6517  function getVotesCollected(uint256 projectNumber, uint256 serviceNumber, uint256 milestoneNumber) public view returns (uint256) {... */\n    tag_25:\n        /* \"contracts/Conflict.sol\":6413:6420  uint256 */\n      0x00\n        /* \"contracts/Conflict.sol\":6439:6448  conflicts */\n      dup1\n        /* \"contracts/Conflict.sol\":6439:6463  conflicts[projectNumber] */\n      0x00\n        /* \"contracts/Conflict.sol\":6449:6462  projectNumber */\n      dup6\n        /* \"contracts/Conflict.sol\":6439:6463  conflicts[projectNumber] */\n      dup2\n      mstore\n      0x20\n      add\n      swap1\n      dup2\n      mstore\n      0x20\n      add\n      0x00\n      keccak256\n        /* \"contracts/Conflict.sol\":6439:6478  conflicts[projectNumber][serviceNumber] */\n      0x00\n        /* \"contracts/Conflict.sol\":6464:6477  serviceNumber */\n      dup5\n        /* \"contracts/Conflict.sol\":6439:6478  conflicts[projectNumber][serviceNumber] */\n      dup2\n      mstore\n      0x20\n      add\n      swap1\n      dup2\n      mstore\n      0x20\n      add\n      0x00\n      keccak256\n        /* \"contracts/Conflict.sol\":6439:6495  conflicts[projectNumber][serviceNumber][milestoneNumber] */\n      0x00\n        /* \"contracts/Conflict.sol\":6479:6494  milestoneNumber */\n      dup4\n        /* \"contracts/Conflict.sol\":6439:6495  conflicts[projectNumber][serviceNumber][milestoneNumber] */\n      dup2\n      mstore\n      0x20\n      add\n      swap1\n      dup2\n      mstore\n      0x20\n      add\n      0x00\n      keccak256\n        /* \"contracts/Conflict.sol\":6439:6510  conflicts[projectNumber][serviceNumber][milestoneNumber].votesCollected */\n      0x08\n      add\n      sload\n        /* \"contracts/Conflict.sol\":6432:6510  return conflicts[projectNumber][serviceNumber][milestoneNumber].votesCollected */\n      swap1\n      pop\n        /* \"contracts/Conflict.sol\":6294:6517  function getVotesCollected(uint256 projectNumber, uint256 serviceNumber, uint256 milestoneNumber) public view returns (uint256) {... */\n      swap4\n      swap3\n      pop\n      pop\n      pop\n      jump\t// out\n        /* \"contracts/Conflict.sol\":6755:6979  function getVotesforProvider(uint256 projectNumber, uint256 serviceNumber, uint256 milestoneNumber) public view returns (uint256) {... */\n    tag_29:\n        /* \"contracts/Conflict.sol\":6876:6883  uint256 */\n      0x00\n        /* \"contracts/Conflict.sol\":6902:6911  conflicts */\n      dup1\n        /* \"contracts/Conflict.sol\":6902:6926  conflicts[projectNumber] */\n      0x00\n        /* \"contracts/Conflict.sol\":6912:6925  projectNumber */\n      dup6\n        /* \"contracts/Conflict.sol\":6902:6926  conflicts[projectNumber] */\n      dup2\n      mstore\n      0x20\n      add\n      swap1\n      dup2\n      mstore\n      0x20\n      add\n      0x00\n      keccak256\n        /* \"contracts/Conflict.sol\":6902:6941  conflicts[projectNumber][serviceNumber] */\n      0x00\n        /* \"contracts/Conflict.sol\":6927:6940  serviceNumber */\n      dup5\n        /* \"contracts/Conflict.sol\":6902:6941  conflicts[projectNumber][serviceNumber] */\n      dup2\n      mstore\n      0x20\n      add\n      swap1\n      dup2\n      mstore\n      0x20\n      add\n      0x00\n      keccak256\n        /* \"contracts/Conflict.sol\":6902:6958  conflicts[projectNumber][serviceNumber][milestoneNumber] */\n      0x00\n        /* \"contracts/Conflict.sol\":6942:6957  milestoneNumber */\n      dup4\n        /* \"contracts/Conflict.sol\":6902:6958  conflicts[projectNumber][serviceNumber][milestoneNumber] */\n      dup2\n      mstore\n      0x20\n      add\n      swap1\n      dup2\n      mstore\n      0x20\n      add\n      0x00\n      keccak256\n        /* \"contracts/Conflict.sol\":6902:6972  conflicts[projectNumber][serviceNumber][milestoneNumber].providerVotes */\n      0x0a\n      add\n      sload\n        /* \"contracts/Conflict.sol\":6895:6972  return conflicts[projectNumber][serviceNumber][milestoneNumber].providerVotes */\n      swap1\n      pop\n        /* \"contracts/Conflict.sol\":6755:6979  function getVotesforProvider(uint256 projectNumber, uint256 serviceNumber, uint256 milestoneNumber) public view returns (uint256) {... */\n      swap4\n      swap3\n      pop\n      pop\n      pop\n      jump\t// out\n        /* \"contracts/Conflict.sol\":3760:5390  function voteConflict(uint256 projectNumber, uint256 serviceNumber, uint256 milestoneNumber, address sender, uint8 vote) public {... */\n    tag_34:\n        /* \"contracts/Conflict.sol\":3983:3989  sender */\n      dup2\n        /* \"contracts/Conflict.sol\":3906:3989  conflicts[projectNumber][serviceNumber][milestoneNumber].serviceRequester != sender */\n      0xffffffffffffffffffffffffffffffffffffffff\n      and\n        /* \"contracts/Conflict.sol\":3906:3915  conflicts */\n      0x00\n        /* \"contracts/Conflict.sol\":3906:3930  conflicts[projectNumber] */\n      dup1\n        /* \"contracts/Conflict.sol\":3916:3929  projectNumber */\n      dup8\n        /* \"contracts/Conflict.sol\":3906:3930  conflicts[projectNumber] */\n      dup2\n      mstore\n      0x20\n      add\n      swap1\n      dup2\n      mstore\n      0x20\n      add\n      0x00\n      keccak256\n        /* \"contracts/Conflict.sol\":3906:3945  conflicts[projectNumber][serviceNumber] */\n      0x00\n        /* \"contracts/Conflict.sol\":3931:3944  serviceNumber */\n      dup7\n        /* \"contracts/Conflict.sol\":3906:3945  conflicts[projectNumber][serviceNumber] */\n      dup2\n      mstore\n      0x20\n      add\n      swap1\n      dup2\n      mstore\n      0x20\n      add\n      0x00\n      keccak256\n        /* \"contracts/Conflict.sol\":3906:3962  conflicts[projectNumber][serviceNumber][milestoneNumber] */\n      0x00\n        /* \"contracts/Conflict.sol\":3946:3961  milestoneNumber */\n      dup6\n        /* \"contracts/Conflict.sol\":3906:3962  conflicts[projectNumber][serviceNumber][milestoneNumber] */\n      dup2\n      mstore\n      0x20\n      add\n      swap1\n      dup2\n      mstore\n      0x20\n      add\n      0x00\n      keccak256\n        /* \"contracts/Conflict.sol\":3906:3979  conflicts[projectNumber][serviceNumber][milestoneNumber].serviceRequester */\n      0x05\n      add\n      0x00\n      swap1\n      sload\n      swap1\n      0x0100\n      exp\n      swap1\n      div\n      0xffffffffffffffffffffffffffffffffffffffff\n      and\n        /* \"contracts/Conflict.sol\":3906:3989  conflicts[projectNumber][serviceNumber][milestoneNumber].serviceRequester != sender */\n      0xffffffffffffffffffffffffffffffffffffffff\n      and\n      eq\n      iszero\n        /* \"contracts/Conflict.sol\":3898:4043  require(conflicts[projectNumber][serviceNumber][milestoneNumber].serviceRequester != sender , \"You raised this conflict. You cannot vote on it.\") */\n      tag_72\n      jumpi\n      mload(0x40)\n      0x08c379a000000000000000000000000000000000000000000000000000000000\n      dup2\n      mstore\n      0x04\n      add\n      tag_73\n      swap1\n      tag_74\n      jump\t// in\n    tag_73:\n      mload(0x40)\n      dup1\n      swap2\n      sub\n      swap1\n      revert\n    tag_72:\n        /* \"contracts/Conflict.sol\":4137:4143  sender */\n      dup2\n        /* \"contracts/Conflict.sol\":4061:4143  conflicts[projectNumber][serviceNumber][milestoneNumber].serviceProvider != sender */\n      0xffffffffffffffffffffffffffffffffffffffff\n      and\n        /* \"contracts/Conflict.sol\":4061:4070  conflicts */\n      0x00\n        /* \"contracts/Conflict.sol\":4061:4085  conflicts[projectNumber] */\n      dup1\n        /* \"contracts/Conflict.sol\":4071:4084  projectNumber */\n      dup8\n        /* \"contracts/Conflict.sol\":4061:4085  conflicts[projectNumber] */\n      dup2\n      mstore\n      0x20\n      add\n      swap1\n      dup2\n      mstore\n      0x20\n      add\n      0x00\n      keccak256\n        /* \"contracts/Conflict.sol\":4061:4100  conflicts[projectNumber][serviceNumber] */\n      0x00\n        /* \"contracts/Conflict.sol\":4086:4099  serviceNumber */\n      dup7\n        /* \"contracts/Conflict.sol\":4061:4100  conflicts[projectNumber][serviceNumber] */\n      dup2\n      mstore\n      0x20\n      add\n      swap1\n      dup2\n      mstore\n      0x20\n      add\n      0x00\n      keccak256\n        /* \"contracts/Conflict.sol\":4061:4117  conflicts[projectNumber][serviceNumber][milestoneNumber] */\n      0x00\n        /* \"contracts/Conflict.sol\":4101:4116  milestoneNumber */\n      dup6\n        /* \"contracts/Conflict.sol\":4061:4117  conflicts[projectNumber][serviceNumber][milestoneNumber] */\n      dup2\n      mstore\n      0x20\n      add\n      swap1\n      dup2\n      mstore\n      0x20\n      add\n      0x00\n      keccak256\n        /* \"contracts/Conflict.sol\":4061:4133  conflicts[projectNumber][serviceNumber][milestoneNumber].serviceProvider */\n      0x06\n      add\n      0x00\n      swap1\n      sload\n      swap1\n      0x0100\n      exp\n      swap1\n      div\n      0xffffffffffffffffffffffffffffffffffffffff\n      and\n        /* \"contracts/Conflict.sol\":4061:4143  conflicts[projectNumber][serviceNumber][milestoneNumber].serviceProvider != sender */\n      0xffffffffffffffffffffffffffffffffffffffff\n      and\n      eq\n      iszero\n        /* \"contracts/Conflict.sol\":4053:4205  require(conflicts[projectNumber][serviceNumber][milestoneNumber].serviceProvider != sender, \"You are involved in this conflict. You cannot vote on it.\") */\n      tag_75\n      jumpi\n      mload(0x40)\n      0x08c379a000000000000000000000000000000000000000000000000000000000\n      dup2\n      mstore\n      0x04\n      add\n      tag_76\n      swap1\n      tag_77\n      jump\t// in\n    tag_76:\n      mload(0x40)\n      dup1\n      swap2\n      sub\n      swap1\n      revert\n    tag_75:\n        /* \"contracts/Conflict.sol\":4306:4315  conflicts */\n      0x00\n        /* \"contracts/Conflict.sol\":4306:4330  conflicts[projectNumber] */\n      dup1\n        /* \"contracts/Conflict.sol\":4316:4329  projectNumber */\n      dup7\n        /* \"contracts/Conflict.sol\":4306:4330  conflicts[projectNumber] */\n      dup2\n      mstore\n      0x20\n      add\n      swap1\n      dup2\n      mstore\n      0x20\n      add\n      0x00\n      keccak256\n        /* \"contracts/Conflict.sol\":4306:4345  conflicts[projectNumber][serviceNumber] */\n      0x00\n        /* \"contracts/Conflict.sol\":4331:4344  serviceNumber */\n      dup6\n        /* \"contracts/Conflict.sol\":4306:4345  conflicts[projectNumber][serviceNumber] */\n      dup2\n      mstore\n      0x20\n      add\n      swap1\n      dup2\n      mstore\n      0x20\n      add\n      0x00\n      keccak256\n        /* \"contracts/Conflict.sol\":4306:4362  conflicts[projectNumber][serviceNumber][milestoneNumber] */\n      0x00\n        /* \"contracts/Conflict.sol\":4346:4361  milestoneNumber */\n      dup5\n        /* \"contracts/Conflict.sol\":4306:4362  conflicts[projectNumber][serviceNumber][milestoneNumber] */\n      dup2\n      mstore\n      0x20\n      add\n      swap1\n      dup2\n      mstore\n      0x20\n      add\n      0x00\n      keccak256\n        /* \"contracts/Conflict.sol\":4306:4369  conflicts[projectNumber][serviceNumber][milestoneNumber].voters */\n      0x07\n      add\n      sload\n        /* \"contracts/Conflict.sol\":4232:4241  conflicts */\n      0x00\n        /* \"contracts/Conflict.sol\":4232:4256  conflicts[projectNumber] */\n      dup1\n        /* \"contracts/Conflict.sol\":4242:4255  projectNumber */\n      dup8\n        /* \"contracts/Conflict.sol\":4232:4256  conflicts[projectNumber] */\n      dup2\n      mstore\n      0x20\n      add\n      swap1\n      dup2\n      mstore\n      0x20\n      add\n      0x00\n      keccak256\n        /* \"contracts/Conflict.sol\":4232:4271  conflicts[projectNumber][serviceNumber] */\n      0x00\n        /* \"contracts/Conflict.sol\":4257:4270  serviceNumber */\n      dup7\n        /* \"contracts/Conflict.sol\":4232:4271  conflicts[projectNumber][serviceNumber] */\n      dup2\n      mstore\n      0x20\n      add\n      swap1\n      dup2\n      mstore\n      0x20\n      add\n      0x00\n      keccak256\n        /* \"contracts/Conflict.sol\":4232:4288  conflicts[projectNumber][serviceNumber][milestoneNumber] */\n      0x00\n        /* \"contracts/Conflict.sol\":4272:4287  milestoneNumber */\n      dup6\n        /* \"contracts/Conflict.sol\":4232:4288  conflicts[projectNumber][serviceNumber][milestoneNumber] */\n      dup2\n      mstore\n      0x20\n      add\n      swap1\n      dup2\n      mstore\n      0x20\n      add\n      0x00\n      keccak256\n        /* \"contracts/Conflict.sol\":4232:4303  conflicts[projectNumber][serviceNumber][milestoneNumber].votesCollected */\n      0x08\n      add\n      sload\n        /* \"contracts/Conflict.sol\":4232:4369  conflicts[projectNumber][serviceNumber][milestoneNumber].votesCollected < conflicts[projectNumber][serviceNumber][milestoneNumber].voters */\n      lt\n        /* \"contracts/Conflict.sol\":4224:4406  require(conflicts[projectNumber][serviceNumber][milestoneNumber].votesCollected < conflicts[projectNumber][serviceNumber][milestoneNumber].voters, \"Enough votes have been collected\") */\n      tag_78\n      jumpi\n      mload(0x40)\n      0x08c379a000000000000000000000000000000000000000000000000000000000\n      dup2\n      mstore\n      0x04\n      add\n      tag_79\n      swap1\n      tag_80\n      jump\t// in\n    tag_79:\n      mload(0x40)\n      dup1\n      swap2\n      sub\n      swap1\n      revert\n    tag_78:\n        /* \"contracts/Conflict.sol\":4498:4499  0 */\n      0x00\n        /* \"contracts/Conflict.sol\":4424:4433  conflicts */\n      dup1\n        /* \"contracts/Conflict.sol\":4424:4448  conflicts[projectNumber] */\n      0x00\n        /* \"contracts/Conflict.sol\":4434:4447  projectNumber */\n      dup8\n        /* \"contracts/Conflict.sol\":4424:4448  conflicts[projectNumber] */\n      dup2\n      mstore\n      0x20\n      add\n      swap1\n      dup2\n      mstore\n      0x20\n      add\n      0x00\n      keccak256\n        /* \"contracts/Conflict.sol\":4424:4463  conflicts[projectNumber][serviceNumber] */\n      0x00\n        /* \"contracts/Conflict.sol\":4449:4462  serviceNumber */\n      dup7\n        /* \"contracts/Conflict.sol\":4424:4463  conflicts[projectNumber][serviceNumber] */\n      dup2\n      mstore\n      0x20\n      add\n      swap1\n      dup2\n      mstore\n      0x20\n      add\n      0x00\n      keccak256\n        /* \"contracts/Conflict.sol\":4424:4480  conflicts[projectNumber][serviceNumber][milestoneNumber] */\n      0x00\n        /* \"contracts/Conflict.sol\":4464:4479  milestoneNumber */\n      dup6\n        /* \"contracts/Conflict.sol\":4424:4480  conflicts[projectNumber][serviceNumber][milestoneNumber] */\n      dup2\n      mstore\n      0x20\n      add\n      swap1\n      dup2\n      mstore\n      0x20\n      add\n      0x00\n      keccak256\n        /* \"contracts/Conflict.sol\":4424:4486  conflicts[projectNumber][serviceNumber][milestoneNumber].votes */\n      0x0c\n      add\n        /* \"contracts/Conflict.sol\":4424:4494  conflicts[projectNumber][serviceNumber][milestoneNumber].votes[sender] */\n      0x00\n        /* \"contracts/Conflict.sol\":4487:4493  sender */\n      dup5\n        /* \"contracts/Conflict.sol\":4424:4494  conflicts[projectNumber][serviceNumber][milestoneNumber].votes[sender] */\n      0xffffffffffffffffffffffffffffffffffffffff\n      and\n      0xffffffffffffffffffffffffffffffffffffffff\n      and\n      dup2\n      mstore\n      0x20\n      add\n      swap1\n      dup2\n      mstore\n      0x20\n      add\n      0x00\n      keccak256\n      0x00\n      swap1\n      sload\n      swap1\n      0x0100\n      exp\n      swap1\n      div\n      0xff\n      and\n        /* \"contracts/Conflict.sol\":4424:4499  conflicts[projectNumber][serviceNumber][milestoneNumber].votes[sender] == 0 */\n      0xff\n      and\n      eq\n        /* \"contracts/Conflict.sol\":4416:4550  require(conflicts[projectNumber][serviceNumber][milestoneNumber].votes[sender] == 0 , \"You have already voted, you cannot vote again\") */\n      tag_81\n      jumpi\n      mload(0x40)\n      0x08c379a000000000000000000000000000000000000000000000000000000000\n      dup2\n      mstore\n      0x04\n      add\n      tag_82\n      swap1\n      tag_83\n      jump\t// in\n    tag_82:\n      mload(0x40)\n      dup1\n      swap2\n      sub\n      swap1\n      revert\n    tag_81:\n        /* \"contracts/Conflict.sol\":4576:4577  1 */\n      0x01\n        /* \"contracts/Conflict.sol\":4568:4572  vote */\n      dup2\n        /* \"contracts/Conflict.sol\":4568:4577  vote == 1 */\n      0xff\n      and\n      eq\n        /* \"contracts/Conflict.sol\":4568:4590  vote == 1 || vote == 2 */\n      dup1\n      tag_84\n      jumpi\n      pop\n        /* \"contracts/Conflict.sol\":4589:4590  2 */\n      0x02\n        /* \"contracts/Conflict.sol\":4581:4585  vote */\n      dup2\n        /* \"contracts/Conflict.sol\":4581:4590  vote == 2 */\n      0xff\n      and\n      eq\n        /* \"contracts/Conflict.sol\":4568:4590  vote == 1 || vote == 2 */\n    tag_84:\n        /* \"contracts/Conflict.sol\":4560:4682  require(vote == 1 || vote == 2, \"You have not input a right vote. You can either vote 1 for Requester or 2 for Provider.\") */\n      tag_85\n      jumpi\n      mload(0x40)\n      0x08c379a000000000000000000000000000000000000000000000000000000000\n      dup2\n      mstore\n      0x04\n      add\n      tag_86\n      swap1\n      tag_87\n      jump\t// in\n    tag_86:\n      mload(0x40)\n      dup1\n      swap2\n      sub\n      swap1\n      revert\n    tag_85:\n        /* \"contracts/Conflict.sol\":4693:4711  conflict storage C */\n      0x00\n        /* \"contracts/Conflict.sol\":4714:4723  conflicts */\n      dup1\n        /* \"contracts/Conflict.sol\":4714:4738  conflicts[projectNumber] */\n      0x00\n        /* \"contracts/Conflict.sol\":4724:4737  projectNumber */\n      dup8\n        /* \"contracts/Conflict.sol\":4714:4738  conflicts[projectNumber] */\n      dup2\n      mstore\n      0x20\n      add\n      swap1\n      dup2\n      mstore\n      0x20\n      add\n      0x00\n      keccak256\n        /* \"contracts/Conflict.sol\":4714:4753  conflicts[projectNumber][serviceNumber] */\n      0x00\n        /* \"contracts/Conflict.sol\":4739:4752  serviceNumber */\n      dup7\n        /* \"contracts/Conflict.sol\":4714:4753  conflicts[projectNumber][serviceNumber] */\n      dup2\n      mstore\n      0x20\n      add\n      swap1\n      dup2\n      mstore\n      0x20\n      add\n      0x00\n      keccak256\n        /* \"contracts/Conflict.sol\":4714:4770  conflicts[projectNumber][serviceNumber][milestoneNumber] */\n      0x00\n        /* \"contracts/Conflict.sol\":4754:4769  milestoneNumber */\n      dup6\n        /* \"contracts/Conflict.sol\":4714:4770  conflicts[projectNumber][serviceNumber][milestoneNumber] */\n      dup2\n      mstore\n      0x20\n      add\n      swap1\n      dup2\n      mstore\n      0x20\n      add\n      0x00\n      keccak256\n        /* \"contracts/Conflict.sol\":4693:4770  conflict storage C = conflicts[projectNumber][serviceNumber][milestoneNumber] */\n      swap1\n      pop\n        /* \"contracts/Conflict.sol\":4798:4802  vote */\n      dup2\n        /* \"contracts/Conflict.sol\":4780:4781  C */\n      dup2\n        /* \"contracts/Conflict.sol\":4780:4787  C.votes */\n      0x0c\n      add\n        /* \"contracts/Conflict.sol\":4780:4795  C.votes[sender] */\n      0x00\n        /* \"contracts/Conflict.sol\":4788:4794  sender */\n      dup6\n        /* \"contracts/Conflict.sol\":4780:4795  C.votes[sender] */\n      0xffffffffffffffffffffffffffffffffffffffff\n      and\n      0xffffffffffffffffffffffffffffffffffffffff\n      and\n      dup2\n      mstore\n      0x20\n      add\n      swap1\n      dup2\n      mstore\n      0x20\n      add\n      0x00\n      keccak256\n      0x00\n        /* \"contracts/Conflict.sol\":4780:4802  C.votes[sender] = vote */\n      0x0100\n      exp\n      dup2\n      sload\n      dup2\n      0xff\n      mul\n      not\n      and\n      swap1\n      dup4\n      0xff\n      and\n      mul\n      or\n      swap1\n      sstore\n      pop\n        /* \"contracts/Conflict.sol\":4825:4826  1 */\n      0x01\n        /* \"contracts/Conflict.sol\":4817:4821  vote */\n      dup3\n        /* \"contracts/Conflict.sol\":4817:4826  vote == 1 */\n      0xff\n      and\n      eq\n        /* \"contracts/Conflict.sol\":4813:4851  if (vote == 1) { C.requesterVotes++; } */\n      iszero\n      tag_88\n      jumpi\n        /* \"contracts/Conflict.sol\":4830:4831  C */\n      dup1\n        /* \"contracts/Conflict.sol\":4830:4846  C.requesterVotes */\n      0x09\n      add\n      0x00\n        /* \"contracts/Conflict.sol\":4830:4848  C.requesterVotes++ */\n      dup2\n      sload\n      dup1\n      swap3\n      swap2\n      swap1\n      tag_89\n      swap1\n      tag_90\n      jump\t// in\n    tag_89:\n      swap2\n      swap1\n      pop\n      sstore\n      pop\n        /* \"contracts/Conflict.sol\":4813:4851  if (vote == 1) { C.requesterVotes++; } */\n    tag_88:\n        /* \"contracts/Conflict.sol\":4872:4873  2 */\n      0x02\n        /* \"contracts/Conflict.sol\":4864:4868  vote */\n      dup3\n        /* \"contracts/Conflict.sol\":4864:4873  vote == 2 */\n      0xff\n      and\n      eq\n        /* \"contracts/Conflict.sol\":4860:4897  if (vote == 2) { C.providerVotes++; } */\n      iszero\n      tag_91\n      jumpi\n        /* \"contracts/Conflict.sol\":4877:4878  C */\n      dup1\n        /* \"contracts/Conflict.sol\":4877:4892  C.providerVotes */\n      0x0a\n      add\n      0x00\n        /* \"contracts/Conflict.sol\":4877:4894  C.providerVotes++ */\n      dup2\n      sload\n      dup1\n      swap3\n      swap2\n      swap1\n      tag_92\n      swap1\n      tag_90\n      jump\t// in\n    tag_92:\n      swap2\n      swap1\n      pop\n      sstore\n      pop\n        /* \"contracts/Conflict.sol\":4860:4897  if (vote == 2) { C.providerVotes++; } */\n    tag_91:\n        /* \"contracts/Conflict.sol\":4906:4907  C */\n      dup1\n        /* \"contracts/Conflict.sol\":4906:4922  C.votesCollected */\n      0x08\n      add\n      0x00\n        /* \"contracts/Conflict.sol\":4906:4924  C.votesCollected++ */\n      dup2\n      sload\n      dup1\n      swap3\n      swap2\n      swap1\n      tag_93\n      swap1\n      tag_90\n      jump\t// in\n    tag_93:\n      swap2\n      swap1\n      pop\n      sstore\n      pop\n        /* \"contracts/Conflict.sol\":4940:5018  conflictVoted(projectNumber, serviceNumber, milestoneNumber, msg.sender, vote) */\n      0x20211b974adbe11ce3687d51504ce7ef1fcfbb9c00405ba7aca7b283903f345a\n        /* \"contracts/Conflict.sol\":4954:4967  projectNumber */\n      dup7\n        /* \"contracts/Conflict.sol\":4969:4982  serviceNumber */\n      dup7\n        /* \"contracts/Conflict.sol\":4984:4999  milestoneNumber */\n      dup7\n        /* \"contracts/Conflict.sol\":5001:5011  msg.sender */\n      caller\n        /* \"contracts/Conflict.sol\":5013:5017  vote */\n      dup7\n        /* \"contracts/Conflict.sol\":4940:5018  conflictVoted(projectNumber, serviceNumber, milestoneNumber, msg.sender, vote) */\n      mload(0x40)\n      tag_94\n      swap6\n      swap5\n      swap4\n      swap3\n      swap2\n      swap1\n      tag_95\n      jump\t// in\n    tag_94:\n      mload(0x40)\n      dup1\n      swap2\n      sub\n      swap1\n      log1\n        /* \"contracts/Conflict.sol\":5053:5054  C */\n      dup1\n        /* \"contracts/Conflict.sol\":5053:5061  C.voters */\n      0x07\n      add\n      sload\n        /* \"contracts/Conflict.sol\":5033:5034  C */\n      dup2\n        /* \"contracts/Conflict.sol\":5033:5049  C.votesCollected */\n      0x08\n      add\n      sload\n        /* \"contracts/Conflict.sol\":5033:5061  C.votesCollected == C.voters */\n      eq\n        /* \"contracts/Conflict.sol\":5029:5384  if (C.votesCollected == C.voters) {... */\n      iszero\n      tag_96\n      jumpi\n        /* \"contracts/Conflict.sol\":5099:5100  C */\n      dup1\n        /* \"contracts/Conflict.sol\":5099:5115  C.requesterVotes */\n      0x09\n      add\n      sload\n        /* \"contracts/Conflict.sol\":5081:5082  C */\n      dup2\n        /* \"contracts/Conflict.sol\":5081:5096  C.providerVotes */\n      0x0a\n      add\n      sload\n        /* \"contracts/Conflict.sol\":5081:5115  C.providerVotes > C.requesterVotes */\n      gt\n        /* \"contracts/Conflict.sol\":5077:5166  if (C.providerVotes > C.requesterVotes) {C.result = 2; }... */\n      iszero\n      tag_97\n      jumpi\n        /* \"contracts/Conflict.sol\":5129:5130  2 */\n      0x02\n        /* \"contracts/Conflict.sol\":5118:5119  C */\n      dup2\n        /* \"contracts/Conflict.sol\":5118:5126  C.result */\n      0x0b\n      add\n      0x01\n        /* \"contracts/Conflict.sol\":5118:5130  C.result = 2 */\n      0x0100\n      exp\n      dup2\n      sload\n      dup2\n      0xff\n      mul\n      not\n      and\n      swap1\n      dup4\n      0xff\n      and\n      mul\n      or\n      swap1\n      sstore\n      pop\n        /* \"contracts/Conflict.sol\":5077:5166  if (C.providerVotes > C.requesterVotes) {C.result = 2; }... */\n      jump(tag_98)\n    tag_97:\n        /* \"contracts/Conflict.sol\":5163:5164  1 */\n      0x01\n        /* \"contracts/Conflict.sol\":5152:5153  C */\n      dup2\n        /* \"contracts/Conflict.sol\":5152:5160  C.result */\n      0x0b\n      add\n      0x01\n        /* \"contracts/Conflict.sol\":5152:5164  C.result = 1 */\n      0x0100\n      exp\n      dup2\n      sload\n      dup2\n      0xff\n      mul\n      not\n      and\n      swap1\n      dup4\n      0xff\n      and\n      mul\n      or\n      swap1\n      sstore\n      pop\n        /* \"contracts/Conflict.sol\":5077:5166  if (C.providerVotes > C.requesterVotes) {C.result = 2; }... */\n    tag_98:\n        /* \"contracts/Conflict.sol\":5258:5282  ConflictStatus.completed */\n      0x02\n        /* \"contracts/Conflict.sol\":5239:5240  C */\n      dup2\n        /* \"contracts/Conflict.sol\":5239:5255  C.conflictstatus */\n      0x06\n      add\n      0x14\n        /* \"contracts/Conflict.sol\":5239:5282  C.conflictstatus = ConflictStatus.completed */\n      0x0100\n      exp\n      dup2\n      sload\n      dup2\n      0xff\n      mul\n      not\n      and\n      swap1\n      dup4\n      0x02\n      dup2\n      gt\n      iszero\n      tag_99\n      jumpi\n      tag_100\n      tag_63\n      jump\t// in\n    tag_100:\n    tag_99:\n      mul\n      or\n      swap1\n      sstore\n      pop\n        /* \"contracts/Conflict.sol\":5302:5373  conflictResult(projectNumber, serviceNumber, milestoneNumber, C.result) */\n      0xe59fdbc65a5dd63c529717c2a71d04b136038f05301755de242dd05990c02814\n        /* \"contracts/Conflict.sol\":5317:5330  projectNumber */\n      dup7\n        /* \"contracts/Conflict.sol\":5332:5345  serviceNumber */\n      dup7\n        /* \"contracts/Conflict.sol\":5347:5362  milestoneNumber */\n      dup7\n        /* \"contracts/Conflict.sol\":5364:5365  C */\n      dup5\n        /* \"contracts/Conflict.sol\":5364:5372  C.result */\n      0x0b\n      add\n      0x01\n      swap1\n      sload\n      swap1\n      0x0100\n      exp\n      swap1\n      div\n      0xff\n      and\n        /* \"contracts/Conflict.sol\":5302:5373  conflictResult(projectNumber, serviceNumber, milestoneNumber, C.result) */\n      mload(0x40)\n      tag_101\n      swap5\n      swap4\n      swap3\n      swap2\n      swap1\n      tag_102\n      jump\t// in\n    tag_101:\n      mload(0x40)\n      dup1\n      swap2\n      sub\n      swap1\n      log1\n        /* \"contracts/Conflict.sol\":5029:5384  if (C.votesCollected == C.voters) {... */\n    tag_96:\n        /* \"contracts/Conflict.sol\":3888:5390  {... */\n      pop\n        /* \"contracts/Conflict.sol\":3760:5390  function voteConflict(uint256 projectNumber, uint256 serviceNumber, uint256 milestoneNumber, address sender, uint8 vote) public {... */\n      pop\n      pop\n      pop\n      pop\n      pop\n      jump\t// out\n        /* \"contracts/Conflict.sol\":2855:3090  function readConflictStatus(uint256 projectNumber, uint256 serviceNumber, uint256 milestoneNumber) external view returns (ConflictStatus) {... */\n    tag_37:\n        /* \"contracts/Conflict.sol\":2977:2991  ConflictStatus */\n      0x00\n        /* \"contracts/Conflict.sol\":3011:3020  conflicts */\n      dup1\n        /* \"contracts/Conflict.sol\":3011:3035  conflicts[projectNumber] */\n      0x00\n        /* \"contracts/Conflict.sol\":3021:3034  projectNumber */\n      dup6\n        /* \"contracts/Conflict.sol\":3011:3035  conflicts[projectNumber] */\n      dup2\n      mstore\n      0x20\n      add\n      swap1\n      dup2\n      mstore\n      0x20\n      add\n      0x00\n      keccak256\n        /* \"contracts/Conflict.sol\":3011:3050  conflicts[projectNumber][serviceNumber] */\n      0x00\n        /* \"contracts/Conflict.sol\":3036:3049  serviceNumber */\n      dup5\n        /* \"contracts/Conflict.sol\":3011:3050  conflicts[projectNumber][serviceNumber] */\n      dup2\n      mstore\n      0x20\n      add\n      swap1\n      dup2\n      mstore\n      0x20\n      add\n      0x00\n      keccak256\n        /* \"contracts/Conflict.sol\":3011:3067  conflicts[projectNumber][serviceNumber][milestoneNumber] */\n      0x00\n        /* \"contracts/Conflict.sol\":3051:3066  milestoneNumber */\n      dup4\n        /* \"contracts/Conflict.sol\":3011:3067  conflicts[projectNumber][serviceNumber][milestoneNumber] */\n      dup2\n      mstore\n      0x20\n      add\n      swap1\n      dup2\n      mstore\n      0x20\n      add\n      0x00\n      keccak256\n        /* \"contracts/Conflict.sol\":3011:3082  conflicts[projectNumber][serviceNumber][milestoneNumber].conflictstatus */\n      0x06\n      add\n      0x14\n      swap1\n      sload\n      swap1\n      0x0100\n      exp\n      swap1\n      div\n      0xff\n      and\n        /* \"contracts/Conflict.sol\":3003:3083  return (conflicts[projectNumber][serviceNumber][milestoneNumber].conflictstatus) */\n      swap1\n      pop\n        /* \"contracts/Conflict.sol\":2855:3090  function readConflictStatus(uint256 projectNumber, uint256 serviceNumber, uint256 milestoneNumber) external view returns (ConflictStatus) {... */\n      swap4\n      swap3\n      pop\n      pop\n      pop\n      jump\t// out\n        /* \"contracts/Conflict.sol\":6058:6288  function getConflictStatus(uint256 projectNumber, uint256 serviceNumber, uint256 milestoneNumber) public view returns (ConflictStatus) {... */\n    tag_42:\n        /* \"contracts/Conflict.sol\":6177:6191  ConflictStatus */\n      0x00\n        /* \"contracts/Conflict.sol\":6210:6219  conflicts */\n      dup1\n        /* \"contracts/Conflict.sol\":6210:6234  conflicts[projectNumber] */\n      0x00\n        /* \"contracts/Conflict.sol\":6220:6233  projectNumber */\n      dup6\n        /* \"contracts/Conflict.sol\":6210:6234  conflicts[projectNumber] */\n      dup2\n      mstore\n      0x20\n      add\n      swap1\n      dup2\n      mstore\n      0x20\n      add\n      0x00\n      keccak256\n        /* \"contracts/Conflict.sol\":6210:6249  conflicts[projectNumber][serviceNumber] */\n      0x00\n        /* \"contracts/Conflict.sol\":6235:6248  serviceNumber */\n      dup5\n        /* \"contracts/Conflict.sol\":6210:6249  conflicts[projectNumber][serviceNumber] */\n      dup2\n      mstore\n      0x20\n      add\n      swap1\n      dup2\n      mstore\n      0x20\n      add\n      0x00\n      keccak256\n        /* \"contracts/Conflict.sol\":6210:6266  conflicts[projectNumber][serviceNumber][milestoneNumber] */\n      0x00\n        /* \"contracts/Conflict.sol\":6250:6265  milestoneNumber */\n      dup4\n        /* \"contracts/Conflict.sol\":6210:6266  conflicts[projectNumber][serviceNumber][milestoneNumber] */\n      dup2\n      mstore\n      0x20\n      add\n      swap1\n      dup2\n      mstore\n      0x20\n      add\n      0x00\n      keccak256\n        /* \"contracts/Conflict.sol\":6210:6281  conflicts[projectNumber][serviceNumber][milestoneNumber].conflictstatus */\n      0x06\n      add\n      0x14\n      swap1\n      sload\n      swap1\n      0x0100\n      exp\n      swap1\n      div\n      0xff\n      and\n        /* \"contracts/Conflict.sol\":6203:6281  return conflicts[projectNumber][serviceNumber][milestoneNumber].conflictstatus */\n      swap1\n      pop\n        /* \"contracts/Conflict.sol\":6058:6288  function getConflictStatus(uint256 projectNumber, uint256 serviceNumber, uint256 milestoneNumber) public view returns (ConflictStatus) {... */\n      swap4\n      swap3\n      pop\n      pop\n      pop\n      jump\t// out\n        /* \"contracts/Conflict.sol\":3137:3468  function updateConflict(uint256 projectNumber, uint256 serviceNumber, uint256 milestoneNumber, string memory title, string memory description) external {... */\n    tag_47:\n        /* \"contracts/Conflict.sol\":3364:3369  title */\n      dup2\n        /* \"contracts/Conflict.sol\":3299:3308  conflicts */\n      0x00\n        /* \"contracts/Conflict.sol\":3299:3323  conflicts[projectNumber] */\n      dup1\n        /* \"contracts/Conflict.sol\":3309:3322  projectNumber */\n      dup8\n        /* \"contracts/Conflict.sol\":3299:3323  conflicts[projectNumber] */\n      dup2\n      mstore\n      0x20\n      add\n      swap1\n      dup2\n      mstore\n      0x20\n      add\n      0x00\n      keccak256\n        /* \"contracts/Conflict.sol\":3299:3338  conflicts[projectNumber][serviceNumber] */\n      0x00\n        /* \"contracts/Conflict.sol\":3324:3337  serviceNumber */\n      dup7\n        /* \"contracts/Conflict.sol\":3299:3338  conflicts[projectNumber][serviceNumber] */\n      dup2\n      mstore\n      0x20\n      add\n      swap1\n      dup2\n      mstore\n      0x20\n      add\n      0x00\n      keccak256\n        /* \"contracts/Conflict.sol\":3299:3355  conflicts[projectNumber][serviceNumber][milestoneNumber] */\n      0x00\n        /* \"contracts/Conflict.sol\":3339:3354  milestoneNumber */\n      dup6\n        /* \"contracts/Conflict.sol\":3299:3355  conflicts[projectNumber][serviceNumber][milestoneNumber] */\n      dup2\n      mstore\n      0x20\n      add\n      swap1\n      dup2\n      mstore\n      0x20\n      add\n      0x00\n      keccak256\n        /* \"contracts/Conflict.sol\":3299:3361  conflicts[projectNumber][serviceNumber][milestoneNumber].title */\n      0x03\n      add\n        /* \"contracts/Conflict.sol\":3299:3369  conflicts[projectNumber][serviceNumber][milestoneNumber].title = title */\n      swap1\n      dup1\n      mload\n      swap1\n      0x20\n      add\n      swap1\n      tag_106\n      swap3\n      swap2\n      swap1\n      tag_107\n      jump\t// in\n    tag_106:\n      pop\n        /* \"contracts/Conflict.sol\":3450:3461  description */\n      dup1\n        /* \"contracts/Conflict.sol\":3379:3388  conflicts */\n      0x00\n        /* \"contracts/Conflict.sol\":3379:3403  conflicts[projectNumber] */\n      dup1\n        /* \"contracts/Conflict.sol\":3389:3402  projectNumber */\n      dup8\n        /* \"contracts/Conflict.sol\":3379:3403  conflicts[projectNumber] */\n      dup2\n      mstore\n      0x20\n      add\n      swap1\n      dup2\n      mstore\n      0x20\n      add\n      0x00\n      keccak256\n        /* \"contracts/Conflict.sol\":3379:3418  conflicts[projectNumber][serviceNumber] */\n      0x00\n        /* \"contracts/Conflict.sol\":3404:3417  serviceNumber */\n      dup7\n        /* \"contracts/Conflict.sol\":3379:3418  conflicts[projectNumber][serviceNumber] */\n      dup2\n      mstore\n      0x20\n      add\n      swap1\n      dup2\n      mstore\n      0x20\n      add\n      0x00\n      keccak256\n        /* \"contracts/Conflict.sol\":3379:3435  conflicts[projectNumber][serviceNumber][milestoneNumber] */\n      0x00\n        /* \"contracts/Conflict.sol\":3419:3434  milestoneNumber */\n      dup6\n        /* \"contracts/Conflict.sol\":3379:3435  conflicts[projectNumber][serviceNumber][milestoneNumber] */\n      dup2\n      mstore\n      0x20\n      add\n      swap1\n      dup2\n      mstore\n      0x20\n      add\n      0x00\n      keccak256\n        /* \"contracts/Conflict.sol\":3379:3447  conflicts[projectNumber][serviceNumber][milestoneNumber].description */\n      0x04\n      add\n        /* \"contracts/Conflict.sol\":3379:3461  conflicts[projectNumber][serviceNumber][milestoneNumber].description = description */\n      swap1\n      dup1\n      mload\n      swap1\n      0x20\n      add\n      swap1\n      tag_108\n      swap3\n      swap2\n      swap1\n      tag_107\n      jump\t// in\n    tag_108:\n      pop\n        /* \"contracts/Conflict.sol\":3137:3468  function updateConflict(uint256 projectNumber, uint256 serviceNumber, uint256 milestoneNumber, string memory title, string memory description) external {... */\n      pop\n      pop\n      pop\n      pop\n      pop\n      jump\t// out\n        /* \"contracts/Conflict.sol\":6523:6749  function getVotesforRequester(uint256 projectNumber, uint256 serviceNumber, uint256 milestoneNumber) public view returns (uint256) {... */\n    tag_50:\n        /* \"contracts/Conflict.sol\":6645:6652  uint256 */\n      0x00\n        /* \"contracts/Conflict.sol\":6671:6680  conflicts */\n      dup1\n        /* \"contracts/Conflict.sol\":6671:6695  conflicts[projectNumber] */\n      0x00\n        /* \"contracts/Conflict.sol\":6681:6694  projectNumber */\n      dup6\n        /* \"contracts/Conflict.sol\":6671:6695  conflicts[projectNumber] */\n      dup2\n      mstore\n      0x20\n      add\n      swap1\n      dup2\n      mstore\n      0x20\n      add\n      0x00\n      keccak256\n        /* \"contracts/Conflict.sol\":6671:6710  conflicts[projectNumber][serviceNumber] */\n      0x00\n        /* \"contracts/Conflict.sol\":6696:6709  serviceNumber */\n      dup5\n        /* \"contracts/Conflict.sol\":6671:6710  conflicts[projectNumber][serviceNumber] */\n      dup2\n      mstore\n      0x20\n      add\n      swap1\n      dup2\n      mstore\n      0x20\n      add\n      0x00\n      keccak256\n        /* \"contracts/Conflict.sol\":6671:6727  conflicts[projectNumber][serviceNumber][milestoneNumber] */\n      0x00\n        /* \"contracts/Conflict.sol\":6711:6726  milestoneNumber */\n      dup4\n        /* \"contracts/Conflict.sol\":6671:6727  conflicts[projectNumber][serviceNumber][milestoneNumber] */\n      dup2\n      mstore\n      0x20\n      add\n      swap1\n      dup2\n      mstore\n      0x20\n      add\n      0x00\n      keccak256\n        /* \"contracts/Conflict.sol\":6671:6742  conflicts[projectNumber][serviceNumber][milestoneNumber].requesterVotes */\n      0x09\n      add\n      sload\n        /* \"contracts/Conflict.sol\":6664:6742  return conflicts[projectNumber][serviceNumber][milestoneNumber].requesterVotes */\n      swap1\n      pop\n        /* \"contracts/Conflict.sol\":6523:6749  function getVotesforRequester(uint256 projectNumber, uint256 serviceNumber, uint256 milestoneNumber) public view returns (uint256) {... */\n      swap4\n      swap3\n      pop\n      pop\n      pop\n      jump\t// out\n        /* \"contracts/Conflict.sol\":1504:2810  function createConflict(uint256 projectNumber, uint256 serviceNumber, uint256 milestoneNumber, string memory title, string memory description, address serviceRequester, address serviceProvider,  uint256 totalVoters) public {... */\n    tag_55:\n        /* \"contracts/Conflict.sol\":1811:1815  true */\n      0x01\n        /* \"contracts/Conflict.sol\":1745:1815  conflicts[projectNumber][serviceNumber][milestoneNumber].exist != true */\n      iszero\n      iszero\n        /* \"contracts/Conflict.sol\":1745:1754  conflicts */\n      0x00\n        /* \"contracts/Conflict.sol\":1745:1769  conflicts[projectNumber] */\n      dup1\n        /* \"contracts/Conflict.sol\":1755:1768  projectNumber */\n      dup11\n        /* \"contracts/Conflict.sol\":1745:1769  conflicts[projectNumber] */\n      dup2\n      mstore\n      0x20\n      add\n      swap1\n      dup2\n      mstore\n      0x20\n      add\n      0x00\n      keccak256\n        /* \"contracts/Conflict.sol\":1745:1784  conflicts[projectNumber][serviceNumber] */\n      0x00\n        /* \"contracts/Conflict.sol\":1770:1783  serviceNumber */\n      dup10\n        /* \"contracts/Conflict.sol\":1745:1784  conflicts[projectNumber][serviceNumber] */\n      dup2\n      mstore\n      0x20\n      add\n      swap1\n      dup2\n      mstore\n      0x20\n      add\n      0x00\n      keccak256\n        /* \"contracts/Conflict.sol\":1745:1801  conflicts[projectNumber][serviceNumber][milestoneNumber] */\n      0x00\n        /* \"contracts/Conflict.sol\":1785:1800  milestoneNumber */\n      dup9\n        /* \"contracts/Conflict.sol\":1745:1801  conflicts[projectNumber][serviceNumber][milestoneNumber] */\n      dup2\n      mstore\n      0x20\n      add\n      swap1\n      dup2\n      mstore\n      0x20\n      add\n      0x00\n      keccak256\n        /* \"contracts/Conflict.sol\":1745:1807  conflicts[projectNumber][serviceNumber][milestoneNumber].exist */\n      0x0b\n      add\n      0x00\n      swap1\n      sload\n      swap1\n      0x0100\n      exp\n      swap1\n      div\n      0xff\n      and\n        /* \"contracts/Conflict.sol\":1745:1815  conflicts[projectNumber][serviceNumber][milestoneNumber].exist != true */\n      iszero\n      iszero\n      eq\n      iszero\n        /* \"contracts/Conflict.sol\":1737:1898  require(conflicts[projectNumber][serviceNumber][milestoneNumber].exist != true , \"Conflict has already been created. Please do not create more than 1 conflict.\") */\n      tag_111\n      jumpi\n      mload(0x40)\n      0x08c379a000000000000000000000000000000000000000000000000000000000\n      dup2\n      mstore\n      0x04\n      add\n      tag_112\n      swap1\n      tag_113\n      jump\t// in\n    tag_112:\n      mload(0x40)\n      dup1\n      swap2\n      sub\n      swap1\n      revert\n    tag_111:\n        /* \"contracts/Conflict.sol\":1934:1962  conflict storage newConflict */\n      0x00\n        /* \"contracts/Conflict.sol\":1965:1974  conflicts */\n      dup1\n        /* \"contracts/Conflict.sol\":1965:1989  conflicts[projectNumber] */\n      0x00\n        /* \"contracts/Conflict.sol\":1975:1988  projectNumber */\n      dup11\n        /* \"contracts/Conflict.sol\":1965:1989  conflicts[projectNumber] */\n      dup2\n      mstore\n      0x20\n      add\n      swap1\n      dup2\n      mstore\n      0x20\n      add\n      0x00\n      keccak256\n        /* \"contracts/Conflict.sol\":1965:2004  conflicts[projectNumber][serviceNumber] */\n      0x00\n        /* \"contracts/Conflict.sol\":1990:2003  serviceNumber */\n      dup10\n        /* \"contracts/Conflict.sol\":1965:2004  conflicts[projectNumber][serviceNumber] */\n      dup2\n      mstore\n      0x20\n      add\n      swap1\n      dup2\n      mstore\n      0x20\n      add\n      0x00\n      keccak256\n        /* \"contracts/Conflict.sol\":1965:2021  conflicts[projectNumber][serviceNumber][milestoneNumber] */\n      0x00\n        /* \"contracts/Conflict.sol\":2005:2020  milestoneNumber */\n      dup9\n        /* \"contracts/Conflict.sol\":1965:2021  conflicts[projectNumber][serviceNumber][milestoneNumber] */\n      dup2\n      mstore\n      0x20\n      add\n      swap1\n      dup2\n      mstore\n      0x20\n      add\n      0x00\n      keccak256\n        /* \"contracts/Conflict.sol\":1934:2021  conflict storage newConflict = conflicts[projectNumber][serviceNumber][milestoneNumber] */\n      swap1\n      pop\n        /* \"contracts/Conflict.sol\":2059:2072  projectNumber */\n      dup9\n        /* \"contracts/Conflict.sol\":2031:2042  newConflict */\n      dup2\n        /* \"contracts/Conflict.sol\":2031:2056  newConflict.projectNumber */\n      0x00\n      add\n        /* \"contracts/Conflict.sol\":2031:2072  newConflict.projectNumber = projectNumber */\n      dup2\n      swap1\n      sstore\n      pop\n        /* \"contracts/Conflict.sol\":2115:2128  serviceNumber */\n      dup8\n        /* \"contracts/Conflict.sol\":2087:2098  newConflict */\n      dup2\n        /* \"contracts/Conflict.sol\":2087:2112  newConflict.serviceNumber */\n      0x01\n      add\n        /* \"contracts/Conflict.sol\":2087:2128  newConflict.serviceNumber = serviceNumber */\n      dup2\n      swap1\n      sstore\n      pop\n        /* \"contracts/Conflict.sol\":2176:2191  milestoneNumber */\n      dup7\n        /* \"contracts/Conflict.sol\":2146:2157  newConflict */\n      dup2\n        /* \"contracts/Conflict.sol\":2146:2173  newConflict.milestoneNumber */\n      0x02\n      add\n        /* \"contracts/Conflict.sol\":2146:2191  newConflict.milestoneNumber = milestoneNumber */\n      dup2\n      swap1\n      sstore\n      pop\n        /* \"contracts/Conflict.sol\":2221:2226  title */\n      dup6\n        /* \"contracts/Conflict.sol\":2201:2212  newConflict */\n      dup2\n        /* \"contracts/Conflict.sol\":2201:2218  newConflict.title */\n      0x03\n      add\n        /* \"contracts/Conflict.sol\":2201:2226  newConflict.title = title */\n      swap1\n      dup1\n      mload\n      swap1\n      0x20\n      add\n      swap1\n      tag_114\n      swap3\n      swap2\n      swap1\n      tag_107\n      jump\t// in\n    tag_114:\n      pop\n        /* \"contracts/Conflict.sol\":2262:2273  description */\n      dup5\n        /* \"contracts/Conflict.sol\":2236:2247  newConflict */\n      dup2\n        /* \"contracts/Conflict.sol\":2236:2259  newConflict.description */\n      0x04\n      add\n        /* \"contracts/Conflict.sol\":2236:2273  newConflict.description = description */\n      swap1\n      dup1\n      mload\n      swap1\n      0x20\n      add\n      swap1\n      tag_115\n      swap3\n      swap2\n      swap1\n      tag_107\n      jump\t// in\n    tag_115:\n      pop\n        /* \"contracts/Conflict.sol\":2314:2330  serviceRequester */\n      dup4\n        /* \"contracts/Conflict.sol\":2283:2294  newConflict */\n      dup2\n        /* \"contracts/Conflict.sol\":2283:2311  newConflict.serviceRequester */\n      0x05\n      add\n      0x00\n        /* \"contracts/Conflict.sol\":2283:2330  newConflict.serviceRequester = serviceRequester */\n      0x0100\n      exp\n      dup2\n      sload\n      dup2\n      0xffffffffffffffffffffffffffffffffffffffff\n      mul\n      not\n      and\n      swap1\n      dup4\n      0xffffffffffffffffffffffffffffffffffffffff\n      and\n      mul\n      or\n      swap1\n      sstore\n      pop\n        /* \"contracts/Conflict.sol\":2370:2385  serviceProvider */\n      dup3\n        /* \"contracts/Conflict.sol\":2340:2351  newConflict */\n      dup2\n        /* \"contracts/Conflict.sol\":2340:2367  newConflict.serviceProvider */\n      0x06\n      add\n      0x00\n        /* \"contracts/Conflict.sol\":2340:2385  newConflict.serviceProvider = serviceProvider */\n      0x0100\n      exp\n      dup2\n      sload\n      dup2\n      0xffffffffffffffffffffffffffffffffffffffff\n      mul\n      not\n      and\n      swap1\n      dup4\n      0xffffffffffffffffffffffffffffffffffffffff\n      and\n      mul\n      or\n      swap1\n      sstore\n      pop\n        /* \"contracts/Conflict.sol\":2424:2446  ConflictStatus.pending */\n      0x01\n        /* \"contracts/Conflict.sol\":2395:2406  newConflict */\n      dup2\n        /* \"contracts/Conflict.sol\":2395:2421  newConflict.conflictstatus */\n      0x06\n      add\n      0x14\n        /* \"contracts/Conflict.sol\":2395:2446  newConflict.conflictstatus = ConflictStatus.pending */\n      0x0100\n      exp\n      dup2\n      sload\n      dup2\n      0xff\n      mul\n      not\n      and\n      swap1\n      dup4\n      0x02\n      dup2\n      gt\n      iszero\n      tag_116\n      jumpi\n      tag_117\n      tag_63\n      jump\t// in\n    tag_117:\n    tag_116:\n      mul\n      or\n      swap1\n      sstore\n      pop\n        /* \"contracts/Conflict.sol\":2477:2488  totalVoters */\n      dup2\n        /* \"contracts/Conflict.sol\":2456:2467  newConflict */\n      dup2\n        /* \"contracts/Conflict.sol\":2456:2474  newConflict.voters */\n      0x07\n      add\n        /* \"contracts/Conflict.sol\":2456:2488  newConflict.voters = totalVoters */\n      dup2\n      swap1\n      sstore\n      pop\n        /* \"contracts/Conflict.sol\":2527:2528  0 */\n      0x00\n        /* \"contracts/Conflict.sol\":2498:2509  newConflict */\n      dup2\n        /* \"contracts/Conflict.sol\":2498:2524  newConflict.votesCollected */\n      0x08\n      add\n        /* \"contracts/Conflict.sol\":2498:2528  newConflict.votesCollected = 0 */\n      dup2\n      swap1\n      sstore\n      pop\n        /* \"contracts/Conflict.sol\":2567:2568  0 */\n      0x00\n        /* \"contracts/Conflict.sol\":2538:2549  newConflict */\n      dup2\n        /* \"contracts/Conflict.sol\":2538:2564  newConflict.requesterVotes */\n      0x09\n      add\n        /* \"contracts/Conflict.sol\":2538:2568  newConflict.requesterVotes = 0 */\n      dup2\n      swap1\n      sstore\n      pop\n        /* \"contracts/Conflict.sol\":2606:2607  0 */\n      0x00\n        /* \"contracts/Conflict.sol\":2578:2589  newConflict */\n      dup2\n        /* \"contracts/Conflict.sol\":2578:2603  newConflict.providerVotes */\n      0x0a\n      add\n        /* \"contracts/Conflict.sol\":2578:2607  newConflict.providerVotes = 0 */\n      dup2\n      swap1\n      sstore\n      pop\n        /* \"contracts/Conflict.sol\":2641:2645  true */\n      0x01\n        /* \"contracts/Conflict.sol\":2621:2632  newConflict */\n      dup2\n        /* \"contracts/Conflict.sol\":2621:2638  newConflict.exist */\n      0x0b\n      add\n      0x00\n        /* \"contracts/Conflict.sol\":2621:2645  newConflict.exist = true */\n      0x0100\n      exp\n      dup2\n      sload\n      dup2\n      0xff\n      mul\n      not\n      and\n      swap1\n      dup4\n      iszero\n      iszero\n      mul\n      or\n      swap1\n      sstore\n      pop\n        /* \"contracts/Conflict.sol\":2676:2677  0 */\n      0x00\n        /* \"contracts/Conflict.sol\":2655:2666  newConflict */\n      dup2\n        /* \"contracts/Conflict.sol\":2655:2673  newConflict.result */\n      0x0b\n      add\n      0x01\n        /* \"contracts/Conflict.sol\":2655:2677  newConflict.result = 0 */\n      0x0100\n      exp\n      dup2\n      sload\n      dup2\n      0xff\n      mul\n      not\n      and\n      swap1\n      dup4\n      0xff\n      and\n      mul\n      or\n      swap1\n      sstore\n      pop\n        /* \"contracts/Conflict.sol\":2693:2803  conflictCreated(projectNumber, serviceNumber, milestoneNumber, serviceRequester, serviceProvider, totalVoters) */\n      0xfa127411522a1139d16c2142db999e127aef2288bd98a0558006bb115666ab1b\n        /* \"contracts/Conflict.sol\":2709:2722  projectNumber */\n      dup10\n        /* \"contracts/Conflict.sol\":2724:2737  serviceNumber */\n      dup10\n        /* \"contracts/Conflict.sol\":2739:2754  milestoneNumber */\n      dup10\n        /* \"contracts/Conflict.sol\":2756:2772  serviceRequester */\n      dup8\n        /* \"contracts/Conflict.sol\":2774:2789  serviceProvider */\n      dup8\n        /* \"contracts/Conflict.sol\":2791:2802  totalVoters */\n      dup8\n        /* \"contracts/Conflict.sol\":2693:2803  conflictCreated(projectNumber, serviceNumber, milestoneNumber, serviceRequester, serviceProvider, totalVoters) */\n      mload(0x40)\n      tag_118\n      swap7\n      swap6\n      swap5\n      swap4\n      swap3\n      swap2\n      swap1\n      tag_119\n      jump\t// in\n    tag_118:\n      mload(0x40)\n      dup1\n      swap2\n      sub\n      swap1\n      log1\n        /* \"contracts/Conflict.sol\":1727:2810  {... */\n      pop\n        /* \"contracts/Conflict.sol\":1504:2810  function createConflict(uint256 projectNumber, uint256 serviceNumber, uint256 milestoneNumber, string memory title, string memory description, address serviceRequester, address serviceProvider,  uint256 totalVoters) public {... */\n      pop\n      pop\n      pop\n      pop\n      pop\n      pop\n      pop\n      pop\n      jump\t// out\n    tag_107:\n      dup3\n      dup1\n      sload\n      tag_120\n      swap1\n      tag_121\n      jump\t// in\n    tag_120:\n      swap1\n      0x00\n      mstore\n      keccak256(0x00, 0x20)\n      swap1\n      0x1f\n      add\n      0x20\n      swap1\n      div\n      dup2\n      add\n      swap3\n      dup3\n      tag_123\n      jumpi\n      0x00\n      dup6\n      sstore\n      jump(tag_122)\n    tag_123:\n      dup3\n      0x1f\n      lt\n      tag_124\n      jumpi\n      dup1\n      mload\n      not(0xff)\n      and\n      dup4\n      dup1\n      add\n      or\n      dup6\n      sstore\n      jump(tag_122)\n    tag_124:\n      dup3\n      dup1\n      add\n      0x01\n      add\n      dup6\n      sstore\n      dup3\n      iszero\n      tag_122\n      jumpi\n      swap2\n      dup3\n      add\n    tag_125:\n      dup3\n      dup2\n      gt\n      iszero\n      tag_126\n      jumpi\n      dup3\n      mload\n      dup3\n      sstore\n      swap2\n      0x20\n      add\n      swap2\n      swap1\n      0x01\n      add\n      swap1\n      jump(tag_125)\n    tag_126:\n    tag_122:\n      pop\n      swap1\n      pop\n      tag_127\n      swap2\n      swap1\n      tag_128\n      jump\t// in\n    tag_127:\n      pop\n      swap1\n      jump\t// out\n    tag_128:\n    tag_129:\n      dup1\n      dup3\n      gt\n      iszero\n      tag_130\n      jumpi\n      0x00\n      dup2\n      0x00\n      swap1\n      sstore\n      pop\n      0x01\n      add\n      jump(tag_129)\n    tag_130:\n      pop\n      swap1\n      jump\t// out\n        /* \"#utility.yul\":7:419   */\n    tag_132:\n        /* \"#utility.yul\":85:90   */\n      0x00\n        /* \"#utility.yul\":110:176   */\n      tag_134\n        /* \"#utility.yul\":126:175   */\n      tag_135\n        /* \"#utility.yul\":168:174   */\n      dup5\n        /* \"#utility.yul\":126:175   */\n      tag_136\n      jump\t// in\n    tag_135:\n        /* \"#utility.yul\":110:176   */\n      tag_137\n      jump\t// in\n    tag_134:\n        /* \"#utility.yul\":101:176   */\n      swap1\n      pop\n        /* \"#utility.yul\":199:205   */\n      dup3\n        /* \"#utility.yul\":192:197   */\n      dup2\n        /* \"#utility.yul\":185:206   */\n      mstore\n        /* \"#utility.yul\":237:241   */\n      0x20\n        /* \"#utility.yul\":230:235   */\n      dup2\n        /* \"#utility.yul\":226:242   */\n      add\n        /* \"#utility.yul\":275:278   */\n      dup5\n        /* \"#utility.yul\":266:272   */\n      dup5\n        /* \"#utility.yul\":261:264   */\n      dup5\n        /* \"#utility.yul\":257:273   */\n      add\n        /* \"#utility.yul\":254:279   */\n      gt\n        /* \"#utility.yul\":251:363   */\n      iszero\n      tag_138\n      jumpi\n        /* \"#utility.yul\":282:361   */\n      tag_139\n      tag_140\n      jump\t// in\n    tag_139:\n        /* \"#utility.yul\":251:363   */\n    tag_138:\n        /* \"#utility.yul\":372:413   */\n      tag_141\n        /* \"#utility.yul\":406:412   */\n      dup5\n        /* \"#utility.yul\":401:404   */\n      dup3\n        /* \"#utility.yul\":396:399   */\n      dup6\n        /* \"#utility.yul\":372:413   */\n      tag_142\n      jump\t// in\n    tag_141:\n        /* \"#utility.yul\":91:419   */\n      pop\n        /* \"#utility.yul\":7:419   */\n      swap4\n      swap3\n      pop\n      pop\n      pop\n      jump\t// out\n        /* \"#utility.yul\":425:564   */\n    tag_143:\n        /* \"#utility.yul\":471:476   */\n      0x00\n        /* \"#utility.yul\":509:515   */\n      dup2\n        /* \"#utility.yul\":496:516   */\n      calldataload\n        /* \"#utility.yul\":487:516   */\n      swap1\n      pop\n        /* \"#utility.yul\":525:558   */\n      tag_145\n        /* \"#utility.yul\":552:557   */\n      dup2\n        /* \"#utility.yul\":525:558   */\n      tag_146\n      jump\t// in\n    tag_145:\n        /* \"#utility.yul\":425:564   */\n      swap3\n      swap2\n      pop\n      pop\n      jump\t// out\n        /* \"#utility.yul\":584:924   */\n    tag_147:\n        /* \"#utility.yul\":640:645   */\n      0x00\n        /* \"#utility.yul\":689:692   */\n      dup3\n        /* \"#utility.yul\":682:686   */\n      0x1f\n        /* \"#utility.yul\":674:680   */\n      dup4\n        /* \"#utility.yul\":670:687   */\n      add\n        /* \"#utility.yul\":666:693   */\n      slt\n        /* \"#utility.yul\":656:778   */\n      tag_149\n      jumpi\n        /* \"#utility.yul\":697:776   */\n      tag_150\n      tag_151\n      jump\t// in\n    tag_150:\n        /* \"#utility.yul\":656:778   */\n    tag_149:\n        /* \"#utility.yul\":814:820   */\n      dup2\n        /* \"#utility.yul\":801:821   */\n      calldataload\n        /* \"#utility.yul\":839:918   */\n      tag_152\n        /* \"#utility.yul\":914:917   */\n      dup5\n        /* \"#utility.yul\":906:912   */\n      dup3\n        /* \"#utility.yul\":899:903   */\n      0x20\n        /* \"#utility.yul\":891:897   */\n      dup7\n        /* \"#utility.yul\":887:904   */\n      add\n        /* \"#utility.yul\":839:918   */\n      tag_132\n      jump\t// in\n    tag_152:\n        /* \"#utility.yul\":830:918   */\n      swap2\n      pop\n        /* \"#utility.yul\":646:924   */\n      pop\n        /* \"#utility.yul\":584:924   */\n      swap3\n      swap2\n      pop\n      pop\n      jump\t// out\n        /* \"#utility.yul\":930:1069   */\n    tag_153:\n        /* \"#utility.yul\":976:981   */\n      0x00\n        /* \"#utility.yul\":1014:1020   */\n      dup2\n        /* \"#utility.yul\":1001:1021   */\n      calldataload\n        /* \"#utility.yul\":992:1021   */\n      swap1\n      pop\n        /* \"#utility.yul\":1030:1063   */\n      tag_155\n        /* \"#utility.yul\":1057:1062   */\n      dup2\n        /* \"#utility.yul\":1030:1063   */\n      tag_156\n      jump\t// in\n    tag_155:\n        /* \"#utility.yul\":930:1069   */\n      swap3\n      swap2\n      pop\n      pop\n      jump\t// out\n        /* \"#utility.yul\":1075:1210   */\n    tag_157:\n        /* \"#utility.yul\":1119:1124   */\n      0x00\n        /* \"#utility.yul\":1157:1163   */\n      dup2\n        /* \"#utility.yul\":1144:1164   */\n      calldataload\n        /* \"#utility.yul\":1135:1164   */\n      swap1\n      pop\n        /* \"#utility.yul\":1173:1204   */\n      tag_159\n        /* \"#utility.yul\":1198:1203   */\n      dup2\n        /* \"#utility.yul\":1173:1204   */\n      tag_160\n      jump\t// in\n    tag_159:\n        /* \"#utility.yul\":1075:1210   */\n      swap3\n      swap2\n      pop\n      pop\n      jump\t// out\n        /* \"#utility.yul\":1216:1835   */\n    tag_16:\n        /* \"#utility.yul\":1293:1299   */\n      0x00\n        /* \"#utility.yul\":1301:1307   */\n      dup1\n        /* \"#utility.yul\":1309:1315   */\n      0x00\n        /* \"#utility.yul\":1358:1360   */\n      0x60\n        /* \"#utility.yul\":1346:1355   */\n      dup5\n        /* \"#utility.yul\":1337:1344   */\n      dup7\n        /* \"#utility.yul\":1333:1356   */\n      sub\n        /* \"#utility.yul\":1329:1361   */\n      slt\n        /* \"#utility.yul\":1326:1445   */\n      iszero\n      tag_162\n      jumpi\n        /* \"#utility.yul\":1364:1443   */\n      tag_163\n      tag_164\n      jump\t// in\n    tag_163:\n        /* \"#utility.yul\":1326:1445   */\n    tag_162:\n        /* \"#utility.yul\":1484:1485   */\n      0x00\n        /* \"#utility.yul\":1509:1562   */\n      tag_165\n        /* \"#utility.yul\":1554:1561   */\n      dup7\n        /* \"#utility.yul\":1545:1551   */\n      dup3\n        /* \"#utility.yul\":1534:1543   */\n      dup8\n        /* \"#utility.yul\":1530:1552   */\n      add\n        /* \"#utility.yul\":1509:1562   */\n      tag_153\n      jump\t// in\n    tag_165:\n        /* \"#utility.yul\":1499:1562   */\n      swap4\n      pop\n        /* \"#utility.yul\":1455:1572   */\n      pop\n        /* \"#utility.yul\":1611:1613   */\n      0x20\n        /* \"#utility.yul\":1637:1690   */\n      tag_166\n        /* \"#utility.yul\":1682:1689   */\n      dup7\n        /* \"#utility.yul\":1673:1679   */\n      dup3\n        /* \"#utility.yul\":1662:1671   */\n      dup8\n        /* \"#utility.yul\":1658:1680   */\n      add\n        /* \"#utility.yul\":1637:1690   */\n      tag_153\n      jump\t// in\n    tag_166:\n        /* \"#utility.yul\":1627:1690   */\n      swap3\n      pop\n        /* \"#utility.yul\":1582:1700   */\n      pop\n        /* \"#utility.yul\":1739:1741   */\n      0x40\n        /* \"#utility.yul\":1765:1818   */\n      tag_167\n        /* \"#utility.yul\":1810:1817   */\n      dup7\n        /* \"#utility.yul\":1801:1807   */\n      dup3\n        /* \"#utility.yul\":1790:1799   */\n      dup8\n        /* \"#utility.yul\":1786:1808   */\n      add\n        /* \"#utility.yul\":1765:1818   */\n      tag_153\n      jump\t// in\n    tag_167:\n        /* \"#utility.yul\":1755:1818   */\n      swap2\n      pop\n        /* \"#utility.yul\":1710:1828   */\n      pop\n        /* \"#utility.yul\":1216:1835   */\n      swap3\n      pop\n      swap3\n      pop\n      swap3\n      jump\t// out\n        /* \"#utility.yul\":1841:2748   */\n    tag_33:\n        /* \"#utility.yul\":1934:1940   */\n      0x00\n        /* \"#utility.yul\":1942:1948   */\n      dup1\n        /* \"#utility.yul\":1950:1956   */\n      0x00\n        /* \"#utility.yul\":1958:1964   */\n      dup1\n        /* \"#utility.yul\":1966:1972   */\n      0x00\n        /* \"#utility.yul\":2015:2018   */\n      0xa0\n        /* \"#utility.yul\":2003:2012   */\n      dup7\n        /* \"#utility.yul\":1994:2001   */\n      dup9\n        /* \"#utility.yul\":1990:2013   */\n      sub\n        /* \"#utility.yul\":1986:2019   */\n      slt\n        /* \"#utility.yul\":1983:2103   */\n      iszero\n      tag_169\n      jumpi\n        /* \"#utility.yul\":2022:2101   */\n      tag_170\n      tag_164\n      jump\t// in\n    tag_170:\n        /* \"#utility.yul\":1983:2103   */\n    tag_169:\n        /* \"#utility.yul\":2142:2143   */\n      0x00\n        /* \"#utility.yul\":2167:2220   */\n      tag_171\n        /* \"#utility.yul\":2212:2219   */\n      dup9\n        /* \"#utility.yul\":2203:2209   */\n      dup3\n        /* \"#utility.yul\":2192:2201   */\n      dup10\n        /* \"#utility.yul\":2188:2210   */\n      add\n        /* \"#utility.yul\":2167:2220   */\n      tag_153\n      jump\t// in\n    tag_171:\n        /* \"#utility.yul\":2157:2220   */\n      swap6\n      pop\n        /* \"#utility.yul\":2113:2230   */\n      pop\n        /* \"#utility.yul\":2269:2271   */\n      0x20\n        /* \"#utility.yul\":2295:2348   */\n      tag_172\n        /* \"#utility.yul\":2340:2347   */\n      dup9\n        /* \"#utility.yul\":2331:2337   */\n      dup3\n        /* \"#utility.yul\":2320:2329   */\n      dup10\n        /* \"#utility.yul\":2316:2338   */\n      add\n        /* \"#utility.yul\":2295:2348   */\n      tag_153\n      jump\t// in\n    tag_172:\n        /* \"#utility.yul\":2285:2348   */\n      swap5\n      pop\n        /* \"#utility.yul\":2240:2358   */\n      pop\n        /* \"#utility.yul\":2397:2399   */\n      0x40\n        /* \"#utility.yul\":2423:2476   */\n      tag_173\n        /* \"#utility.yul\":2468:2475   */\n      dup9\n        /* \"#utility.yul\":2459:2465   */\n      dup3\n        /* \"#utility.yul\":2448:2457   */\n      dup10\n        /* \"#utility.yul\":2444:2466   */\n      add\n        /* \"#utility.yul\":2423:2476   */\n      tag_153\n      jump\t// in\n    tag_173:\n        /* \"#utility.yul\":2413:2476   */\n      swap4\n      pop\n        /* \"#utility.yul\":2368:2486   */\n      pop\n        /* \"#utility.yul\":2525:2527   */\n      0x60\n        /* \"#utility.yul\":2551:2604   */\n      tag_174\n        /* \"#utility.yul\":2596:2603   */\n      dup9\n        /* \"#utility.yul\":2587:2593   */\n      dup3\n        /* \"#utility.yul\":2576:2585   */\n      dup10\n        /* \"#utility.yul\":2572:2594   */\n      add\n        /* \"#utility.yul\":2551:2604   */\n      tag_143\n      jump\t// in\n    tag_174:\n        /* \"#utility.yul\":2541:2604   */\n      swap3\n      pop\n        /* \"#utility.yul\":2496:2614   */\n      pop\n        /* \"#utility.yul\":2653:2656   */\n      0x80\n        /* \"#utility.yul\":2680:2731   */\n      tag_175\n        /* \"#utility.yul\":2723:2730   */\n      dup9\n        /* \"#utility.yul\":2714:2720   */\n      dup3\n        /* \"#utility.yul\":2703:2712   */\n      dup10\n        /* \"#utility.yul\":2699:2721   */\n      add\n        /* \"#utility.yul\":2680:2731   */\n      tag_157\n      jump\t// in\n    tag_175:\n        /* \"#utility.yul\":2670:2731   */\n      swap2\n      pop\n        /* \"#utility.yul\":2624:2741   */\n      pop\n        /* \"#utility.yul\":1841:2748   */\n      swap3\n      swap6\n      pop\n      swap3\n      swap6\n      swap1\n      swap4\n      pop\n      jump\t// out\n        /* \"#utility.yul\":2754:4025   */\n    tag_46:\n        /* \"#utility.yul\":2869:2875   */\n      0x00\n        /* \"#utility.yul\":2877:2883   */\n      dup1\n        /* \"#utility.yul\":2885:2891   */\n      0x00\n        /* \"#utility.yul\":2893:2899   */\n      dup1\n        /* \"#utility.yul\":2901:2907   */\n      0x00\n        /* \"#utility.yul\":2950:2953   */\n      0xa0\n        /* \"#utility.yul\":2938:2947   */\n      dup7\n        /* \"#utility.yul\":2929:2936   */\n      dup9\n        /* \"#utility.yul\":2925:2948   */\n      sub\n        /* \"#utility.yul\":2921:2954   */\n      slt\n        /* \"#utility.yul\":2918:3038   */\n      iszero\n      tag_177\n      jumpi\n        /* \"#utility.yul\":2957:3036   */\n      tag_178\n      tag_164\n      jump\t// in\n    tag_178:\n        /* \"#utility.yul\":2918:3038   */\n    tag_177:\n        /* \"#utility.yul\":3077:3078   */\n      0x00\n        /* \"#utility.yul\":3102:3155   */\n      tag_179\n        /* \"#utility.yul\":3147:3154   */\n      dup9\n        /* \"#utility.yul\":3138:3144   */\n      dup3\n        /* \"#utility.yul\":3127:3136   */\n      dup10\n        /* \"#utility.yul\":3123:3145   */\n      add\n        /* \"#utility.yul\":3102:3155   */\n      tag_153\n      jump\t// in\n    tag_179:\n        /* \"#utility.yul\":3092:3155   */\n      swap6\n      pop\n        /* \"#utility.yul\":3048:3165   */\n      pop\n        /* \"#utility.yul\":3204:3206   */\n      0x20\n        /* \"#utility.yul\":3230:3283   */\n      tag_180\n        /* \"#utility.yul\":3275:3282   */\n      dup9\n        /* \"#utility.yul\":3266:3272   */\n      dup3\n        /* \"#utility.yul\":3255:3264   */\n      dup10\n        /* \"#utility.yul\":3251:3273   */\n      add\n        /* \"#utility.yul\":3230:3283   */\n      tag_153\n      jump\t// in\n    tag_180:\n        /* \"#utility.yul\":3220:3283   */\n      swap5\n      pop\n        /* \"#utility.yul\":3175:3293   */\n      pop\n        /* \"#utility.yul\":3332:3334   */\n      0x40\n        /* \"#utility.yul\":3358:3411   */\n      tag_181\n        /* \"#utility.yul\":3403:3410   */\n      dup9\n        /* \"#utility.yul\":3394:3400   */\n      dup3\n        /* \"#utility.yul\":3383:3392   */\n      dup10\n        /* \"#utility.yul\":3379:3401   */\n      add\n        /* \"#utility.yul\":3358:3411   */\n      tag_153\n      jump\t// in\n    tag_181:\n        /* \"#utility.yul\":3348:3411   */\n      swap4\n      pop\n        /* \"#utility.yul\":3303:3421   */\n      pop\n        /* \"#utility.yul\":3488:3490   */\n      0x60\n        /* \"#utility.yul\":3477:3486   */\n      dup7\n        /* \"#utility.yul\":3473:3491   */\n      add\n        /* \"#utility.yul\":3460:3492   */\n      calldataload\n        /* \"#utility.yul\":3519:3537   */\n      0xffffffffffffffff\n        /* \"#utility.yul\":3511:3517   */\n      dup2\n        /* \"#utility.yul\":3508:3538   */\n      gt\n        /* \"#utility.yul\":3505:3622   */\n      iszero\n      tag_182\n      jumpi\n        /* \"#utility.yul\":3541:3620   */\n      tag_183\n      tag_184\n      jump\t// in\n    tag_183:\n        /* \"#utility.yul\":3505:3622   */\n    tag_182:\n        /* \"#utility.yul\":3646:3709   */\n      tag_185\n        /* \"#utility.yul\":3701:3708   */\n      dup9\n        /* \"#utility.yul\":3692:3698   */\n      dup3\n        /* \"#utility.yul\":3681:3690   */\n      dup10\n        /* \"#utility.yul\":3677:3699   */\n      add\n        /* \"#utility.yul\":3646:3709   */\n      tag_147\n      jump\t// in\n    tag_185:\n        /* \"#utility.yul\":3636:3709   */\n      swap3\n      pop\n        /* \"#utility.yul\":3431:3719   */\n      pop\n        /* \"#utility.yul\":3786:3789   */\n      0x80\n        /* \"#utility.yul\":3775:3784   */\n      dup7\n        /* \"#utility.yul\":3771:3790   */\n      add\n        /* \"#utility.yul\":3758:3791   */\n      calldataload\n        /* \"#utility.yul\":3818:3836   */\n      0xffffffffffffffff\n        /* \"#utility.yul\":3810:3816   */\n      dup2\n        /* \"#utility.yul\":3807:3837   */\n      gt\n        /* \"#utility.yul\":3804:3921   */\n      iszero\n      tag_186\n      jumpi\n        /* \"#utility.yul\":3840:3919   */\n      tag_187\n      tag_184\n      jump\t// in\n    tag_187:\n        /* \"#utility.yul\":3804:3921   */\n    tag_186:\n        /* \"#utility.yul\":3945:4008   */\n      tag_188\n        /* \"#utility.yul\":4000:4007   */\n      dup9\n        /* \"#utility.yul\":3991:3997   */\n      dup3\n        /* \"#utility.yul\":3980:3989   */\n      dup10\n        /* \"#utility.yul\":3976:3998   */\n      add\n        /* \"#utility.yul\":3945:4008   */\n      tag_147\n      jump\t// in\n    tag_188:\n        /* \"#utility.yul\":3935:4008   */\n      swap2\n      pop\n        /* \"#utility.yul\":3729:4018   */\n      pop\n        /* \"#utility.yul\":2754:4025   */\n      swap3\n      swap6\n      pop\n      swap3\n      swap6\n      swap1\n      swap4\n      pop\n      jump\t// out\n        /* \"#utility.yul\":4031:5740   */\n    tag_54:\n        /* \"#utility.yul\":4173:4179   */\n      0x00\n        /* \"#utility.yul\":4181:4187   */\n      dup1\n        /* \"#utility.yul\":4189:4195   */\n      0x00\n        /* \"#utility.yul\":4197:4203   */\n      dup1\n        /* \"#utility.yul\":4205:4211   */\n      0x00\n        /* \"#utility.yul\":4213:4219   */\n      dup1\n        /* \"#utility.yul\":4221:4227   */\n      0x00\n        /* \"#utility.yul\":4229:4235   */\n      dup1\n        /* \"#utility.yul\":4278:4281   */\n      0x0100\n        /* \"#utility.yul\":4266:4275   */\n      dup10\n        /* \"#utility.yul\":4257:4264   */\n      dup12\n        /* \"#utility.yul\":4253:4276   */\n      sub\n        /* \"#utility.yul\":4249:4282   */\n      slt\n        /* \"#utility.yul\":4246:4366   */\n      iszero\n      tag_190\n      jumpi\n        /* \"#utility.yul\":4285:4364   */\n      tag_191\n      tag_164\n      jump\t// in\n    tag_191:\n        /* \"#utility.yul\":4246:4366   */\n    tag_190:\n        /* \"#utility.yul\":4405:4406   */\n      0x00\n        /* \"#utility.yul\":4430:4483   */\n      tag_192\n        /* \"#utility.yul\":4475:4482   */\n      dup12\n        /* \"#utility.yul\":4466:4472   */\n      dup3\n        /* \"#utility.yul\":4455:4464   */\n      dup13\n        /* \"#utility.yul\":4451:4473   */\n      add\n        /* \"#utility.yul\":4430:4483   */\n      tag_153\n      jump\t// in\n    tag_192:\n        /* \"#utility.yul\":4420:4483   */\n      swap9\n      pop\n        /* \"#utility.yul\":4376:4493   */\n      pop\n        /* \"#utility.yul\":4532:4534   */\n      0x20\n        /* \"#utility.yul\":4558:4611   */\n      tag_193\n        /* \"#utility.yul\":4603:4610   */\n      dup12\n        /* \"#utility.yul\":4594:4600   */\n      dup3\n        /* \"#utility.yul\":4583:4592   */\n      dup13\n        /* \"#utility.yul\":4579:4601   */\n      add\n        /* \"#utility.yul\":4558:4611   */\n      tag_153\n      jump\t// in\n    tag_193:\n        /* \"#utility.yul\":4548:4611   */\n      swap8\n      pop\n        /* \"#utility.yul\":4503:4621   */\n      pop\n        /* \"#utility.yul\":4660:4662   */\n      0x40\n        /* \"#utility.yul\":4686:4739   */\n      tag_194\n        /* \"#utility.yul\":4731:4738   */\n      dup12\n        /* \"#utility.yul\":4722:4728   */\n      dup3\n        /* \"#utility.yul\":4711:4720   */\n      dup13\n        /* \"#utility.yul\":4707:4729   */\n      add\n        /* \"#utility.yul\":4686:4739   */\n      tag_153\n      jump\t// in\n    tag_194:\n        /* \"#utility.yul\":4676:4739   */\n      swap7\n      pop\n        /* \"#utility.yul\":4631:4749   */\n      pop\n        /* \"#utility.yul\":4816:4818   */\n      0x60\n        /* \"#utility.yul\":4805:4814   */\n      dup10\n        /* \"#utility.yul\":4801:4819   */\n      add\n        /* \"#utility.yul\":4788:4820   */\n      calldataload\n        /* \"#utility.yul\":4847:4865   */\n      0xffffffffffffffff\n        /* \"#utility.yul\":4839:4845   */\n      dup2\n        /* \"#utility.yul\":4836:4866   */\n      gt\n        /* \"#utility.yul\":4833:4950   */\n      iszero\n      tag_195\n      jumpi\n        /* \"#utility.yul\":4869:4948   */\n      tag_196\n      tag_184\n      jump\t// in\n    tag_196:\n        /* \"#utility.yul\":4833:4950   */\n    tag_195:\n        /* \"#utility.yul\":4974:5037   */\n      tag_197\n        /* \"#utility.yul\":5029:5036   */\n      dup12\n        /* \"#utility.yul\":5020:5026   */\n      dup3\n        /* \"#utility.yul\":5009:5018   */\n      dup13\n        /* \"#utility.yul\":5005:5027   */\n      add\n        /* \"#utility.yul\":4974:5037   */\n      tag_147\n      jump\t// in\n    tag_197:\n        /* \"#utility.yul\":4964:5037   */\n      swap6\n      pop\n        /* \"#utility.yul\":4759:5047   */\n      pop\n        /* \"#utility.yul\":5114:5117   */\n      0x80\n        /* \"#utility.yul\":5103:5112   */\n      dup10\n        /* \"#utility.yul\":5099:5118   */\n      add\n        /* \"#utility.yul\":5086:5119   */\n      calldataload\n        /* \"#utility.yul\":5146:5164   */\n      0xffffffffffffffff\n        /* \"#utility.yul\":5138:5144   */\n      dup2\n        /* \"#utility.yul\":5135:5165   */\n      gt\n        /* \"#utility.yul\":5132:5249   */\n      iszero\n      tag_198\n      jumpi\n        /* \"#utility.yul\":5168:5247   */\n      tag_199\n      tag_184\n      jump\t// in\n    tag_199:\n        /* \"#utility.yul\":5132:5249   */\n    tag_198:\n        /* \"#utility.yul\":5273:5336   */\n      tag_200\n        /* \"#utility.yul\":5328:5335   */\n      dup12\n        /* \"#utility.yul\":5319:5325   */\n      dup3\n        /* \"#utility.yul\":5308:5317   */\n      dup13\n        /* \"#utility.yul\":5304:5326   */\n      add\n        /* \"#utility.yul\":5273:5336   */\n      tag_147\n      jump\t// in\n    tag_200:\n        /* \"#utility.yul\":5263:5336   */\n      swap5\n      pop\n        /* \"#utility.yul\":5057:5346   */\n      pop\n        /* \"#utility.yul\":5385:5388   */\n      0xa0\n        /* \"#utility.yul\":5412:5465   */\n      tag_201\n        /* \"#utility.yul\":5457:5464   */\n      dup12\n        /* \"#utility.yul\":5448:5454   */\n      dup3\n        /* \"#utility.yul\":5437:5446   */\n      dup13\n        /* \"#utility.yul\":5433:5455   */\n      add\n        /* \"#utility.yul\":5412:5465   */\n      tag_143\n      jump\t// in\n    tag_201:\n        /* \"#utility.yul\":5402:5465   */\n      swap4\n      pop\n        /* \"#utility.yul\":5356:5475   */\n      pop\n        /* \"#utility.yul\":5514:5517   */\n      0xc0\n        /* \"#utility.yul\":5541:5594   */\n      tag_202\n        /* \"#utility.yul\":5586:5593   */\n      dup12\n        /* \"#utility.yul\":5577:5583   */\n      dup3\n        /* \"#utility.yul\":5566:5575   */\n      dup13\n        /* \"#utility.yul\":5562:5584   */\n      add\n        /* \"#utility.yul\":5541:5594   */\n      tag_143\n      jump\t// in\n    tag_202:\n        /* \"#utility.yul\":5531:5594   */\n      swap3\n      pop\n        /* \"#utility.yul\":5485:5604   */\n      pop\n        /* \"#utility.yul\":5643:5646   */\n      0xe0\n        /* \"#utility.yul\":5670:5723   */\n      tag_203\n        /* \"#utility.yul\":5715:5722   */\n      dup12\n        /* \"#utility.yul\":5706:5712   */\n      dup3\n        /* \"#utility.yul\":5695:5704   */\n      dup13\n        /* \"#utility.yul\":5691:5713   */\n      add\n        /* \"#utility.yul\":5670:5723   */\n      tag_153\n      jump\t// in\n    tag_203:\n        /* \"#utility.yul\":5660:5723   */\n      swap2\n      pop\n        /* \"#utility.yul\":5614:5733   */\n      pop\n        /* \"#utility.yul\":4031:5740   */\n      swap3\n      swap6\n      swap9\n      pop\n      swap3\n      swap6\n      swap9\n      swap1\n      swap4\n      swap7\n      pop\n      jump\t// out\n        /* \"#utility.yul\":5746:5864   */\n    tag_204:\n        /* \"#utility.yul\":5833:5857   */\n      tag_206\n        /* \"#utility.yul\":5851:5856   */\n      dup2\n        /* \"#utility.yul\":5833:5857   */\n      tag_207\n      jump\t// in\n    tag_206:\n        /* \"#utility.yul\":5828:5831   */\n      dup3\n        /* \"#utility.yul\":5821:5858   */\n      mstore\n        /* \"#utility.yul\":5746:5864   */\n      pop\n      pop\n      jump\t// out\n        /* \"#utility.yul\":5870:6029   */\n    tag_208:\n        /* \"#utility.yul\":5971:6022   */\n      tag_210\n        /* \"#utility.yul\":6016:6021   */\n      dup2\n        /* \"#utility.yul\":5971:6022   */\n      tag_211\n      jump\t// in\n    tag_210:\n        /* \"#utility.yul\":5966:5969   */\n      dup3\n        /* \"#utility.yul\":5959:6023   */\n      mstore\n        /* \"#utility.yul\":5870:6029   */\n      pop\n      pop\n      jump\t// out\n        /* \"#utility.yul\":6035:6401   */\n    tag_212:\n        /* \"#utility.yul\":6177:6180   */\n      0x00\n        /* \"#utility.yul\":6198:6265   */\n      tag_214\n        /* \"#utility.yul\":6262:6264   */\n      0x57\n        /* \"#utility.yul\":6257:6260   */\n      dup4\n        /* \"#utility.yul\":6198:6265   */\n      tag_215\n      jump\t// in\n    tag_214:\n        /* \"#utility.yul\":6191:6265   */\n      swap2\n      pop\n        /* \"#utility.yul\":6274:6367   */\n      tag_216\n        /* \"#utility.yul\":6363:6366   */\n      dup3\n        /* \"#utility.yul\":6274:6367   */\n      tag_217\n      jump\t// in\n    tag_216:\n        /* \"#utility.yul\":6392:6394   */\n      0x60\n        /* \"#utility.yul\":6387:6390   */\n      dup3\n        /* \"#utility.yul\":6383:6395   */\n      add\n        /* \"#utility.yul\":6376:6395   */\n      swap1\n      pop\n        /* \"#utility.yul\":6035:6401   */\n      swap2\n      swap1\n      pop\n      jump\t// out\n        /* \"#utility.yul\":6407:6773   */\n    tag_218:\n        /* \"#utility.yul\":6549:6552   */\n      0x00\n        /* \"#utility.yul\":6570:6637   */\n      tag_220\n        /* \"#utility.yul\":6634:6636   */\n      0x2d\n        /* \"#utility.yul\":6629:6632   */\n      dup4\n        /* \"#utility.yul\":6570:6637   */\n      tag_215\n      jump\t// in\n    tag_220:\n        /* \"#utility.yul\":6563:6637   */\n      swap2\n      pop\n        /* \"#utility.yul\":6646:6739   */\n      tag_221\n        /* \"#utility.yul\":6735:6738   */\n      dup3\n        /* \"#utility.yul\":6646:6739   */\n      tag_222\n      jump\t// in\n    tag_221:\n        /* \"#utility.yul\":6764:6766   */\n      0x40\n        /* \"#utility.yul\":6759:6762   */\n      dup3\n        /* \"#utility.yul\":6755:6767   */\n      add\n        /* \"#utility.yul\":6748:6767   */\n      swap1\n      pop\n        /* \"#utility.yul\":6407:6773   */\n      swap2\n      swap1\n      pop\n      jump\t// out\n        /* \"#utility.yul\":6779:7145   */\n    tag_223:\n        /* \"#utility.yul\":6921:6924   */\n      0x00\n        /* \"#utility.yul\":6942:7009   */\n      tag_225\n        /* \"#utility.yul\":7006:7008   */\n      0x30\n        /* \"#utility.yul\":7001:7004   */\n      dup4\n        /* \"#utility.yul\":6942:7009   */\n      tag_215\n      jump\t// in\n    tag_225:\n        /* \"#utility.yul\":6935:7009   */\n      swap2\n      pop\n        /* \"#utility.yul\":7018:7111   */\n      tag_226\n        /* \"#utility.yul\":7107:7110   */\n      dup3\n        /* \"#utility.yul\":7018:7111   */\n      tag_227\n      jump\t// in\n    tag_226:\n        /* \"#utility.yul\":7136:7138   */\n      0x40\n        /* \"#utility.yul\":7131:7134   */\n      dup3\n        /* \"#utility.yul\":7127:7139   */\n      add\n        /* \"#utility.yul\":7120:7139   */\n      swap1\n      pop\n        /* \"#utility.yul\":6779:7145   */\n      swap2\n      swap1\n      pop\n      jump\t// out\n        /* \"#utility.yul\":7151:7517   */\n    tag_228:\n        /* \"#utility.yul\":7293:7296   */\n      0x00\n        /* \"#utility.yul\":7314:7381   */\n      tag_230\n        /* \"#utility.yul\":7378:7380   */\n      0x3d\n        /* \"#utility.yul\":7373:7376   */\n      dup4\n        /* \"#utility.yul\":7314:7381   */\n      tag_215\n      jump\t// in\n    tag_230:\n        /* \"#utility.yul\":7307:7381   */\n      swap2\n      pop\n        /* \"#utility.yul\":7390:7483   */\n      tag_231\n        /* \"#utility.yul\":7479:7482   */\n      dup3\n        /* \"#utility.yul\":7390:7483   */\n      tag_232\n      jump\t// in\n    tag_231:\n        /* \"#utility.yul\":7508:7510   */\n      0x40\n        /* \"#utility.yul\":7503:7506   */\n      dup3\n        /* \"#utility.yul\":7499:7511   */\n      add\n        /* \"#utility.yul\":7492:7511   */\n      swap1\n      pop\n        /* \"#utility.yul\":7151:7517   */\n      swap2\n      swap1\n      pop\n      jump\t// out\n        /* \"#utility.yul\":7523:7889   */\n    tag_233:\n        /* \"#utility.yul\":7665:7668   */\n      0x00\n        /* \"#utility.yul\":7686:7753   */\n      tag_235\n        /* \"#utility.yul\":7750:7752   */\n      0x4a\n        /* \"#utility.yul\":7745:7748   */\n      dup4\n        /* \"#utility.yul\":7686:7753   */\n      tag_215\n      jump\t// in\n    tag_235:\n        /* \"#utility.yul\":7679:7753   */\n      swap2\n      pop\n        /* \"#utility.yul\":7762:7855   */\n      tag_236\n        /* \"#utility.yul\":7851:7854   */\n      dup3\n        /* \"#utility.yul\":7762:7855   */\n      tag_237\n      jump\t// in\n    tag_236:\n        /* \"#utility.yul\":7880:7882   */\n      0x60\n        /* \"#utility.yul\":7875:7878   */\n      dup3\n        /* \"#utility.yul\":7871:7883   */\n      add\n        /* \"#utility.yul\":7864:7883   */\n      swap1\n      pop\n        /* \"#utility.yul\":7523:7889   */\n      swap2\n      swap1\n      pop\n      jump\t// out\n        /* \"#utility.yul\":7895:8261   */\n    tag_238:\n        /* \"#utility.yul\":8037:8040   */\n      0x00\n        /* \"#utility.yul\":8058:8125   */\n      tag_240\n        /* \"#utility.yul\":8122:8124   */\n      0x39\n        /* \"#utility.yul\":8117:8120   */\n      dup4\n        /* \"#utility.yul\":8058:8125   */\n      tag_215\n      jump\t// in\n    tag_240:\n        /* \"#utility.yul\":8051:8125   */\n      swap2\n      pop\n        /* \"#utility.yul\":8134:8227   */\n      tag_241\n        /* \"#utility.yul\":8223:8226   */\n      dup3\n        /* \"#utility.yul\":8134:8227   */\n      tag_242\n      jump\t// in\n    tag_241:\n        /* \"#utility.yul\":8252:8254   */\n      0x40\n        /* \"#utility.yul\":8247:8250   */\n      dup3\n        /* \"#utility.yul\":8243:8255   */\n      add\n        /* \"#utility.yul\":8236:8255   */\n      swap1\n      pop\n        /* \"#utility.yul\":7895:8261   */\n      swap2\n      swap1\n      pop\n      jump\t// out\n        /* \"#utility.yul\":8267:8633   */\n    tag_243:\n        /* \"#utility.yul\":8409:8412   */\n      0x00\n        /* \"#utility.yul\":8430:8497   */\n      tag_245\n        /* \"#utility.yul\":8494:8496   */\n      0x20\n        /* \"#utility.yul\":8489:8492   */\n      dup4\n        /* \"#utility.yul\":8430:8497   */\n      tag_215\n      jump\t// in\n    tag_245:\n        /* \"#utility.yul\":8423:8497   */\n      swap2\n      pop\n        /* \"#utility.yul\":8506:8599   */\n      tag_246\n        /* \"#utility.yul\":8595:8598   */\n      dup3\n        /* \"#utility.yul\":8506:8599   */\n      tag_247\n      jump\t// in\n    tag_246:\n        /* \"#utility.yul\":8624:8626   */\n      0x20\n        /* \"#utility.yul\":8619:8622   */\n      dup3\n        /* \"#utility.yul\":8615:8627   */\n      add\n        /* \"#utility.yul\":8608:8627   */\n      swap1\n      pop\n        /* \"#utility.yul\":8267:8633   */\n      swap2\n      swap1\n      pop\n      jump\t// out\n        /* \"#utility.yul\":8639:9005   */\n    tag_248:\n        /* \"#utility.yul\":8781:8784   */\n      0x00\n        /* \"#utility.yul\":8802:8869   */\n      tag_250\n        /* \"#utility.yul\":8866:8868   */\n      0x4d\n        /* \"#utility.yul\":8861:8864   */\n      dup4\n        /* \"#utility.yul\":8802:8869   */\n      tag_215\n      jump\t// in\n    tag_250:\n        /* \"#utility.yul\":8795:8869   */\n      swap2\n      pop\n        /* \"#utility.yul\":8878:8971   */\n      tag_251\n        /* \"#utility.yul\":8967:8970   */\n      dup3\n        /* \"#utility.yul\":8878:8971   */\n      tag_252\n      jump\t// in\n    tag_251:\n        /* \"#utility.yul\":8996:8998   */\n      0x60\n        /* \"#utility.yul\":8991:8994   */\n      dup3\n        /* \"#utility.yul\":8987:8999   */\n      add\n        /* \"#utility.yul\":8980:8999   */\n      swap1\n      pop\n        /* \"#utility.yul\":8639:9005   */\n      swap2\n      swap1\n      pop\n      jump\t// out\n        /* \"#utility.yul\":9011:9129   */\n    tag_253:\n        /* \"#utility.yul\":9098:9122   */\n      tag_255\n        /* \"#utility.yul\":9116:9121   */\n      dup2\n        /* \"#utility.yul\":9098:9122   */\n      tag_256\n      jump\t// in\n    tag_255:\n        /* \"#utility.yul\":9093:9096   */\n      dup3\n        /* \"#utility.yul\":9086:9123   */\n      mstore\n        /* \"#utility.yul\":9011:9129   */\n      pop\n      pop\n      jump\t// out\n        /* \"#utility.yul\":9135:9247   */\n    tag_257:\n        /* \"#utility.yul\":9218:9240   */\n      tag_259\n        /* \"#utility.yul\":9234:9239   */\n      dup2\n        /* \"#utility.yul\":9218:9240   */\n      tag_260\n      jump\t// in\n    tag_259:\n        /* \"#utility.yul\":9213:9216   */\n      dup3\n        /* \"#utility.yul\":9206:9241   */\n      mstore\n        /* \"#utility.yul\":9135:9247   */\n      pop\n      pop\n      jump\t// out\n        /* \"#utility.yul\":9253:9503   */\n    tag_39:\n        /* \"#utility.yul\":9360:9364   */\n      0x00\n        /* \"#utility.yul\":9398:9400   */\n      0x20\n        /* \"#utility.yul\":9387:9396   */\n      dup3\n        /* \"#utility.yul\":9383:9401   */\n      add\n        /* \"#utility.yul\":9375:9401   */\n      swap1\n      pop\n        /* \"#utility.yul\":9411:9496   */\n      tag_262\n        /* \"#utility.yul\":9493:9494   */\n      0x00\n        /* \"#utility.yul\":9482:9491   */\n      dup4\n        /* \"#utility.yul\":9478:9495   */\n      add\n        /* \"#utility.yul\":9469:9475   */\n      dup5\n        /* \"#utility.yul\":9411:9496   */\n      tag_208\n      jump\t// in\n    tag_262:\n        /* \"#utility.yul\":9253:9503   */\n      swap3\n      swap2\n      pop\n      pop\n      jump\t// out\n        /* \"#utility.yul\":9509:9928   */\n    tag_87:\n        /* \"#utility.yul\":9675:9679   */\n      0x00\n        /* \"#utility.yul\":9713:9715   */\n      0x20\n        /* \"#utility.yul\":9702:9711   */\n      dup3\n        /* \"#utility.yul\":9698:9716   */\n      add\n        /* \"#utility.yul\":9690:9716   */\n      swap1\n      pop\n        /* \"#utility.yul\":9762:9771   */\n      dup2\n        /* \"#utility.yul\":9756:9760   */\n      dup2\n        /* \"#utility.yul\":9752:9772   */\n      sub\n        /* \"#utility.yul\":9748:9749   */\n      0x00\n        /* \"#utility.yul\":9737:9746   */\n      dup4\n        /* \"#utility.yul\":9733:9750   */\n      add\n        /* \"#utility.yul\":9726:9773   */\n      mstore\n        /* \"#utility.yul\":9790:9921   */\n      tag_264\n        /* \"#utility.yul\":9916:9920   */\n      dup2\n        /* \"#utility.yul\":9790:9921   */\n      tag_212\n      jump\t// in\n    tag_264:\n        /* \"#utility.yul\":9782:9921   */\n      swap1\n      pop\n        /* \"#utility.yul\":9509:9928   */\n      swap2\n      swap1\n      pop\n      jump\t// out\n        /* \"#utility.yul\":9934:10353   */\n    tag_83:\n        /* \"#utility.yul\":10100:10104   */\n      0x00\n        /* \"#utility.yul\":10138:10140   */\n      0x20\n        /* \"#utility.yul\":10127:10136   */\n      dup3\n        /* \"#utility.yul\":10123:10141   */\n      add\n        /* \"#utility.yul\":10115:10141   */\n      swap1\n      pop\n        /* \"#utility.yul\":10187:10196   */\n      dup2\n        /* \"#utility.yul\":10181:10185   */\n      dup2\n        /* \"#utility.yul\":10177:10197   */\n      sub\n        /* \"#utility.yul\":10173:10174   */\n      0x00\n        /* \"#utility.yul\":10162:10171   */\n      dup4\n        /* \"#utility.yul\":10158:10175   */\n      add\n        /* \"#utility.yul\":10151:10198   */\n      mstore\n        /* \"#utility.yul\":10215:10346   */\n      tag_266\n        /* \"#utility.yul\":10341:10345   */\n      dup2\n        /* \"#utility.yul\":10215:10346   */\n      tag_218\n      jump\t// in\n    tag_266:\n        /* \"#utility.yul\":10207:10346   */\n      swap1\n      pop\n        /* \"#utility.yul\":9934:10353   */\n      swap2\n      swap1\n      pop\n      jump\t// out\n        /* \"#utility.yul\":10359:10778   */\n    tag_74:\n        /* \"#utility.yul\":10525:10529   */\n      0x00\n        /* \"#utility.yul\":10563:10565   */\n      0x20\n        /* \"#utility.yul\":10552:10561   */\n      dup3\n        /* \"#utility.yul\":10548:10566   */\n      add\n        /* \"#utility.yul\":10540:10566   */\n      swap1\n      pop\n        /* \"#utility.yul\":10612:10621   */\n      dup2\n        /* \"#utility.yul\":10606:10610   */\n      dup2\n        /* \"#utility.yul\":10602:10622   */\n      sub\n        /* \"#utility.yul\":10598:10599   */\n      0x00\n        /* \"#utility.yul\":10587:10596   */\n      dup4\n        /* \"#utility.yul\":10583:10600   */\n      add\n        /* \"#utility.yul\":10576:10623   */\n      mstore\n        /* \"#utility.yul\":10640:10771   */\n      tag_268\n        /* \"#utility.yul\":10766:10770   */\n      dup2\n        /* \"#utility.yul\":10640:10771   */\n      tag_223\n      jump\t// in\n    tag_268:\n        /* \"#utility.yul\":10632:10771   */\n      swap1\n      pop\n        /* \"#utility.yul\":10359:10778   */\n      swap2\n      swap1\n      pop\n      jump\t// out\n        /* \"#utility.yul\":10784:11203   */\n    tag_68:\n        /* \"#utility.yul\":10950:10954   */\n      0x00\n        /* \"#utility.yul\":10988:10990   */\n      0x20\n        /* \"#utility.yul\":10977:10986   */\n      dup3\n        /* \"#utility.yul\":10973:10991   */\n      add\n        /* \"#utility.yul\":10965:10991   */\n      swap1\n      pop\n        /* \"#utility.yul\":11037:11046   */\n      dup2\n        /* \"#utility.yul\":11031:11035   */\n      dup2\n        /* \"#utility.yul\":11027:11047   */\n      sub\n        /* \"#utility.yul\":11023:11024   */\n      0x00\n        /* \"#utility.yul\":11012:11021   */\n      dup4\n        /* \"#utility.yul\":11008:11025   */\n      add\n        /* \"#utility.yul\":11001:11048   */\n      mstore\n        /* \"#utility.yul\":11065:11196   */\n      tag_270\n        /* \"#utility.yul\":11191:11195   */\n      dup2\n        /* \"#utility.yul\":11065:11196   */\n      tag_228\n      jump\t// in\n    tag_270:\n        /* \"#utility.yul\":11057:11196   */\n      swap1\n      pop\n        /* \"#utility.yul\":10784:11203   */\n      swap2\n      swap1\n      pop\n      jump\t// out\n        /* \"#utility.yul\":11209:11628   */\n    tag_60:\n        /* \"#utility.yul\":11375:11379   */\n      0x00\n        /* \"#utility.yul\":11413:11415   */\n      0x20\n        /* \"#utility.yul\":11402:11411   */\n      dup3\n        /* \"#utility.yul\":11398:11416   */\n      add\n        /* \"#utility.yul\":11390:11416   */\n      swap1\n      pop\n        /* \"#utility.yul\":11462:11471   */\n      dup2\n        /* \"#utility.yul\":11456:11460   */\n      dup2\n        /* \"#utility.yul\":11452:11472   */\n      sub\n        /* \"#utility.yul\":11448:11449   */\n      0x00\n        /* \"#utility.yul\":11437:11446   */\n      dup4\n        /* \"#utility.yul\":11433:11450   */\n      add\n        /* \"#utility.yul\":11426:11473   */\n      mstore\n        /* \"#utility.yul\":11490:11621   */\n      tag_272\n        /* \"#utility.yul\":11616:11620   */\n      dup2\n        /* \"#utility.yul\":11490:11621   */\n      tag_233\n      jump\t// in\n    tag_272:\n        /* \"#utility.yul\":11482:11621   */\n      swap1\n      pop\n        /* \"#utility.yul\":11209:11628   */\n      swap2\n      swap1\n      pop\n      jump\t// out\n        /* \"#utility.yul\":11634:12053   */\n    tag_77:\n        /* \"#utility.yul\":11800:11804   */\n      0x00\n        /* \"#utility.yul\":11838:11840   */\n      0x20\n        /* \"#utility.yul\":11827:11836   */\n      dup3\n        /* \"#utility.yul\":11823:11841   */\n      add\n        /* \"#utility.yul\":11815:11841   */\n      swap1\n      pop\n        /* \"#utility.yul\":11887:11896   */\n      dup2\n        /* \"#utility.yul\":11881:11885   */\n      dup2\n        /* \"#utility.yul\":11877:11897   */\n      sub\n        /* \"#utility.yul\":11873:11874   */\n      0x00\n        /* \"#utility.yul\":11862:11871   */\n      dup4\n        /* \"#utility.yul\":11858:11875   */\n      add\n        /* \"#utility.yul\":11851:11898   */\n      mstore\n        /* \"#utility.yul\":11915:12046   */\n      tag_274\n        /* \"#utility.yul\":12041:12045   */\n      dup2\n        /* \"#utility.yul\":11915:12046   */\n      tag_238\n      jump\t// in\n    tag_274:\n        /* \"#utility.yul\":11907:12046   */\n      swap1\n      pop\n        /* \"#utility.yul\":11634:12053   */\n      swap2\n      swap1\n      pop\n      jump\t// out\n        /* \"#utility.yul\":12059:12478   */\n    tag_80:\n        /* \"#utility.yul\":12225:12229   */\n      0x00\n        /* \"#utility.yul\":12263:12265   */\n      0x20\n        /* \"#utility.yul\":12252:12261   */\n      dup3\n        /* \"#utility.yul\":12248:12266   */\n      add\n        /* \"#utility.yul\":12240:12266   */\n      swap1\n      pop\n        /* \"#utility.yul\":12312:12321   */\n      dup2\n        /* \"#utility.yul\":12306:12310   */\n      dup2\n        /* \"#utility.yul\":12302:12322   */\n      sub\n        /* \"#utility.yul\":12298:12299   */\n      0x00\n        /* \"#utility.yul\":12287:12296   */\n      dup4\n        /* \"#utility.yul\":12283:12300   */\n      add\n        /* \"#utility.yul\":12276:12323   */\n      mstore\n        /* \"#utility.yul\":12340:12471   */\n      tag_276\n        /* \"#utility.yul\":12466:12470   */\n      dup2\n        /* \"#utility.yul\":12340:12471   */\n      tag_243\n      jump\t// in\n    tag_276:\n        /* \"#utility.yul\":12332:12471   */\n      swap1\n      pop\n        /* \"#utility.yul\":12059:12478   */\n      swap2\n      swap1\n      pop\n      jump\t// out\n        /* \"#utility.yul\":12484:12903   */\n    tag_113:\n        /* \"#utility.yul\":12650:12654   */\n      0x00\n        /* \"#utility.yul\":12688:12690   */\n      0x20\n        /* \"#utility.yul\":12677:12686   */\n      dup3\n        /* \"#utility.yul\":12673:12691   */\n      add\n        /* \"#utility.yul\":12665:12691   */\n      swap1\n      pop\n        /* \"#utility.yul\":12737:12746   */\n      dup2\n        /* \"#utility.yul\":12731:12735   */\n      dup2\n        /* \"#utility.yul\":12727:12747   */\n      sub\n        /* \"#utility.yul\":12723:12724   */\n      0x00\n        /* \"#utility.yul\":12712:12721   */\n      dup4\n        /* \"#utility.yul\":12708:12725   */\n      add\n        /* \"#utility.yul\":12701:12748   */\n      mstore\n        /* \"#utility.yul\":12765:12896   */\n      tag_278\n        /* \"#utility.yul\":12891:12895   */\n      dup2\n        /* \"#utility.yul\":12765:12896   */\n      tag_248\n      jump\t// in\n    tag_278:\n        /* \"#utility.yul\":12757:12896   */\n      swap1\n      pop\n        /* \"#utility.yul\":12484:12903   */\n      swap2\n      swap1\n      pop\n      jump\t// out\n        /* \"#utility.yul\":12909:13131   */\n    tag_22:\n        /* \"#utility.yul\":13002:13006   */\n      0x00\n        /* \"#utility.yul\":13040:13042   */\n      0x20\n        /* \"#utility.yul\":13029:13038   */\n      dup3\n        /* \"#utility.yul\":13025:13043   */\n      add\n        /* \"#utility.yul\":13017:13043   */\n      swap1\n      pop\n        /* \"#utility.yul\":13053:13124   */\n      tag_280\n        /* \"#utility.yul\":13121:13122   */\n      0x00\n        /* \"#utility.yul\":13110:13119   */\n      dup4\n        /* \"#utility.yul\":13106:13123   */\n      add\n        /* \"#utility.yul\":13097:13103   */\n      dup5\n        /* \"#utility.yul\":13053:13124   */\n      tag_253\n      jump\t// in\n    tag_280:\n        /* \"#utility.yul\":12909:13131   */\n      swap3\n      swap2\n      pop\n      pop\n      jump\t// out\n        /* \"#utility.yul\":13137:13912   */\n    tag_119:\n        /* \"#utility.yul\":13370:13374   */\n      0x00\n        /* \"#utility.yul\":13408:13411   */\n      0xc0\n        /* \"#utility.yul\":13397:13406   */\n      dup3\n        /* \"#utility.yul\":13393:13412   */\n      add\n        /* \"#utility.yul\":13385:13412   */\n      swap1\n      pop\n        /* \"#utility.yul\":13422:13493   */\n      tag_282\n        /* \"#utility.yul\":13490:13491   */\n      0x00\n        /* \"#utility.yul\":13479:13488   */\n      dup4\n        /* \"#utility.yul\":13475:13492   */\n      add\n        /* \"#utility.yul\":13466:13472   */\n      dup10\n        /* \"#utility.yul\":13422:13493   */\n      tag_253\n      jump\t// in\n    tag_282:\n        /* \"#utility.yul\":13503:13575   */\n      tag_283\n        /* \"#utility.yul\":13571:13573   */\n      0x20\n        /* \"#utility.yul\":13560:13569   */\n      dup4\n        /* \"#utility.yul\":13556:13574   */\n      add\n        /* \"#utility.yul\":13547:13553   */\n      dup9\n        /* \"#utility.yul\":13503:13575   */\n      tag_253\n      jump\t// in\n    tag_283:\n        /* \"#utility.yul\":13585:13657   */\n      tag_284\n        /* \"#utility.yul\":13653:13655   */\n      0x40\n        /* \"#utility.yul\":13642:13651   */\n      dup4\n        /* \"#utility.yul\":13638:13656   */\n      add\n        /* \"#utility.yul\":13629:13635   */\n      dup8\n        /* \"#utility.yul\":13585:13657   */\n      tag_253\n      jump\t// in\n    tag_284:\n        /* \"#utility.yul\":13667:13739   */\n      tag_285\n        /* \"#utility.yul\":13735:13737   */\n      0x60\n        /* \"#utility.yul\":13724:13733   */\n      dup4\n        /* \"#utility.yul\":13720:13738   */\n      add\n        /* \"#utility.yul\":13711:13717   */\n      dup7\n        /* \"#utility.yul\":13667:13739   */\n      tag_204\n      jump\t// in\n    tag_285:\n        /* \"#utility.yul\":13749:13822   */\n      tag_286\n        /* \"#utility.yul\":13817:13820   */\n      0x80\n        /* \"#utility.yul\":13806:13815   */\n      dup4\n        /* \"#utility.yul\":13802:13821   */\n      add\n        /* \"#utility.yul\":13793:13799   */\n      dup6\n        /* \"#utility.yul\":13749:13822   */\n      tag_204\n      jump\t// in\n    tag_286:\n        /* \"#utility.yul\":13832:13905   */\n      tag_287\n        /* \"#utility.yul\":13900:13903   */\n      0xa0\n        /* \"#utility.yul\":13889:13898   */\n      dup4\n        /* \"#utility.yul\":13885:13904   */\n      add\n        /* \"#utility.yul\":13876:13882   */\n      dup5\n        /* \"#utility.yul\":13832:13905   */\n      tag_253\n      jump\t// in\n    tag_287:\n        /* \"#utility.yul\":13137:13912   */\n      swap8\n      swap7\n      pop\n      pop\n      pop\n      pop\n      pop\n      pop\n      pop\n      jump\t// out\n        /* \"#utility.yul\":13918:14574   */\n    tag_95:\n        /* \"#utility.yul\":14119:14123   */\n      0x00\n        /* \"#utility.yul\":14157:14160   */\n      0xa0\n        /* \"#utility.yul\":14146:14155   */\n      dup3\n        /* \"#utility.yul\":14142:14161   */\n      add\n        /* \"#utility.yul\":14134:14161   */\n      swap1\n      pop\n        /* \"#utility.yul\":14171:14242   */\n      tag_289\n        /* \"#utility.yul\":14239:14240   */\n      0x00\n        /* \"#utility.yul\":14228:14237   */\n      dup4\n        /* \"#utility.yul\":14224:14241   */\n      add\n        /* \"#utility.yul\":14215:14221   */\n      dup9\n        /* \"#utility.yul\":14171:14242   */\n      tag_253\n      jump\t// in\n    tag_289:\n        /* \"#utility.yul\":14252:14324   */\n      tag_290\n        /* \"#utility.yul\":14320:14322   */\n      0x20\n        /* \"#utility.yul\":14309:14318   */\n      dup4\n        /* \"#utility.yul\":14305:14323   */\n      add\n        /* \"#utility.yul\":14296:14302   */\n      dup8\n        /* \"#utility.yul\":14252:14324   */\n      tag_253\n      jump\t// in\n    tag_290:\n        /* \"#utility.yul\":14334:14406   */\n      tag_291\n        /* \"#utility.yul\":14402:14404   */\n      0x40\n        /* \"#utility.yul\":14391:14400   */\n      dup4\n        /* \"#utility.yul\":14387:14405   */\n      add\n        /* \"#utility.yul\":14378:14384   */\n      dup7\n        /* \"#utility.yul\":14334:14406   */\n      tag_253\n      jump\t// in\n    tag_291:\n        /* \"#utility.yul\":14416:14488   */\n      tag_292\n        /* \"#utility.yul\":14484:14486   */\n      0x60\n        /* \"#utility.yul\":14473:14482   */\n      dup4\n        /* \"#utility.yul\":14469:14487   */\n      add\n        /* \"#utility.yul\":14460:14466   */\n      dup6\n        /* \"#utility.yul\":14416:14488   */\n      tag_204\n      jump\t// in\n    tag_292:\n        /* \"#utility.yul\":14498:14567   */\n      tag_293\n        /* \"#utility.yul\":14562:14565   */\n      0x80\n        /* \"#utility.yul\":14551:14560   */\n      dup4\n        /* \"#utility.yul\":14547:14566   */\n      add\n        /* \"#utility.yul\":14538:14544   */\n      dup5\n        /* \"#utility.yul\":14498:14567   */\n      tag_257\n      jump\t// in\n    tag_293:\n        /* \"#utility.yul\":13918:14574   */\n      swap7\n      swap6\n      pop\n      pop\n      pop\n      pop\n      pop\n      pop\n      jump\t// out\n        /* \"#utility.yul\":14580:15125   */\n    tag_102:\n        /* \"#utility.yul\":14753:14757   */\n      0x00\n        /* \"#utility.yul\":14791:14794   */\n      0x80\n        /* \"#utility.yul\":14780:14789   */\n      dup3\n        /* \"#utility.yul\":14776:14795   */\n      add\n        /* \"#utility.yul\":14768:14795   */\n      swap1\n      pop\n        /* \"#utility.yul\":14805:14876   */\n      tag_295\n        /* \"#utility.yul\":14873:14874   */\n      0x00\n        /* \"#utility.yul\":14862:14871   */\n      dup4\n        /* \"#utility.yul\":14858:14875   */\n      add\n        /* \"#utility.yul\":14849:14855   */\n      dup8\n        /* \"#utility.yul\":14805:14876   */\n      tag_253\n      jump\t// in\n    tag_295:\n        /* \"#utility.yul\":14886:14958   */\n      tag_296\n        /* \"#utility.yul\":14954:14956   */\n      0x20\n        /* \"#utility.yul\":14943:14952   */\n      dup4\n        /* \"#utility.yul\":14939:14957   */\n      add\n        /* \"#utility.yul\":14930:14936   */\n      dup7\n        /* \"#utility.yul\":14886:14958   */\n      tag_253\n      jump\t// in\n    tag_296:\n        /* \"#utility.yul\":14968:15040   */\n      tag_297\n        /* \"#utility.yul\":15036:15038   */\n      0x40\n        /* \"#utility.yul\":15025:15034   */\n      dup4\n        /* \"#utility.yul\":15021:15039   */\n      add\n        /* \"#utility.yul\":15012:15018   */\n      dup6\n        /* \"#utility.yul\":14968:15040   */\n      tag_253\n      jump\t// in\n    tag_297:\n        /* \"#utility.yul\":15050:15118   */\n      tag_298\n        /* \"#utility.yul\":15114:15116   */\n      0x60\n        /* \"#utility.yul\":15103:15112   */\n      dup4\n        /* \"#utility.yul\":15099:15117   */\n      add\n        /* \"#utility.yul\":15090:15096   */\n      dup5\n        /* \"#utility.yul\":15050:15118   */\n      tag_257\n      jump\t// in\n    tag_298:\n        /* \"#utility.yul\":14580:15125   */\n      swap6\n      swap5\n      pop\n      pop\n      pop\n      pop\n      pop\n      jump\t// out\n        /* \"#utility.yul\":15131:15260   */\n    tag_137:\n        /* \"#utility.yul\":15165:15171   */\n      0x00\n        /* \"#utility.yul\":15192:15212   */\n      tag_300\n      tag_301\n      jump\t// in\n    tag_300:\n        /* \"#utility.yul\":15182:15212   */\n      swap1\n      pop\n        /* \"#utility.yul\":15221:15254   */\n      tag_302\n        /* \"#utility.yul\":15249:15253   */\n      dup3\n        /* \"#utility.yul\":15241:15247   */\n      dup3\n        /* \"#utility.yul\":15221:15254   */\n      tag_303\n      jump\t// in\n    tag_302:\n        /* \"#utility.yul\":15131:15260   */\n      swap2\n      swap1\n      pop\n      jump\t// out\n        /* \"#utility.yul\":15266:15341   */\n    tag_301:\n        /* \"#utility.yul\":15299:15305   */\n      0x00\n        /* \"#utility.yul\":15332:15334   */\n      0x40\n        /* \"#utility.yul\":15326:15335   */\n      mload\n        /* \"#utility.yul\":15316:15335   */\n      swap1\n      pop\n        /* \"#utility.yul\":15266:15341   */\n      swap1\n      jump\t// out\n        /* \"#utility.yul\":15347:15655   */\n    tag_136:\n        /* \"#utility.yul\":15409:15413   */\n      0x00\n        /* \"#utility.yul\":15499:15517   */\n      0xffffffffffffffff\n        /* \"#utility.yul\":15491:15497   */\n      dup3\n        /* \"#utility.yul\":15488:15518   */\n      gt\n        /* \"#utility.yul\":15485:15541   */\n      iszero\n      tag_306\n      jumpi\n        /* \"#utility.yul\":15521:15539   */\n      tag_307\n      tag_308\n      jump\t// in\n    tag_307:\n        /* \"#utility.yul\":15485:15541   */\n    tag_306:\n        /* \"#utility.yul\":15559:15588   */\n      tag_309\n        /* \"#utility.yul\":15581:15587   */\n      dup3\n        /* \"#utility.yul\":15559:15588   */\n      tag_310\n      jump\t// in\n    tag_309:\n        /* \"#utility.yul\":15551:15588   */\n      swap1\n      pop\n        /* \"#utility.yul\":15643:15647   */\n      0x20\n        /* \"#utility.yul\":15637:15641   */\n      dup2\n        /* \"#utility.yul\":15633:15648   */\n      add\n        /* \"#utility.yul\":15625:15648   */\n      swap1\n      pop\n        /* \"#utility.yul\":15347:15655   */\n      swap2\n      swap1\n      pop\n      jump\t// out\n        /* \"#utility.yul\":15661:15830   */\n    tag_215:\n        /* \"#utility.yul\":15745:15756   */\n      0x00\n        /* \"#utility.yul\":15779:15785   */\n      dup3\n        /* \"#utility.yul\":15774:15777   */\n      dup3\n        /* \"#utility.yul\":15767:15786   */\n      mstore\n        /* \"#utility.yul\":15819:15823   */\n      0x20\n        /* \"#utility.yul\":15814:15817   */\n      dup3\n        /* \"#utility.yul\":15810:15824   */\n      add\n        /* \"#utility.yul\":15795:15824   */\n      swap1\n      pop\n        /* \"#utility.yul\":15661:15830   */\n      swap3\n      swap2\n      pop\n      pop\n      jump\t// out\n        /* \"#utility.yul\":15836:15932   */\n    tag_207:\n        /* \"#utility.yul\":15873:15880   */\n      0x00\n        /* \"#utility.yul\":15902:15926   */\n      tag_313\n        /* \"#utility.yul\":15920:15925   */\n      dup3\n        /* \"#utility.yul\":15902:15926   */\n      tag_314\n      jump\t// in\n    tag_313:\n        /* \"#utility.yul\":15891:15926   */\n      swap1\n      pop\n        /* \"#utility.yul\":15836:15932   */\n      swap2\n      swap1\n      pop\n      jump\t// out\n        /* \"#utility.yul\":15938:16081   */\n    tag_315:\n        /* \"#utility.yul\":15991:15998   */\n      0x00\n        /* \"#utility.yul\":16020:16025   */\n      dup2\n        /* \"#utility.yul\":16009:16025   */\n      swap1\n      pop\n        /* \"#utility.yul\":16026:16075   */\n      tag_317\n        /* \"#utility.yul\":16069:16074   */\n      dup3\n        /* \"#utility.yul\":16026:16075   */\n      tag_318\n      jump\t// in\n    tag_317:\n        /* \"#utility.yul\":15938:16081   */\n      swap2\n      swap1\n      pop\n      jump\t// out\n        /* \"#utility.yul\":16087:16213   */\n    tag_314:\n        /* \"#utility.yul\":16124:16131   */\n      0x00\n        /* \"#utility.yul\":16164:16206   */\n      0xffffffffffffffffffffffffffffffffffffffff\n        /* \"#utility.yul\":16157:16162   */\n      dup3\n        /* \"#utility.yul\":16153:16207   */\n      and\n        /* \"#utility.yul\":16142:16207   */\n      swap1\n      pop\n        /* \"#utility.yul\":16087:16213   */\n      swap2\n      swap1\n      pop\n      jump\t// out\n        /* \"#utility.yul\":16219:16296   */\n    tag_256:\n        /* \"#utility.yul\":16256:16263   */\n      0x00\n        /* \"#utility.yul\":16285:16290   */\n      dup2\n        /* \"#utility.yul\":16274:16290   */\n      swap1\n      pop\n        /* \"#utility.yul\":16219:16296   */\n      swap2\n      swap1\n      pop\n      jump\t// out\n        /* \"#utility.yul\":16302:16388   */\n    tag_260:\n        /* \"#utility.yul\":16337:16344   */\n      0x00\n        /* \"#utility.yul\":16377:16381   */\n      0xff\n        /* \"#utility.yul\":16370:16375   */\n      dup3\n        /* \"#utility.yul\":16366:16382   */\n      and\n        /* \"#utility.yul\":16355:16382   */\n      swap1\n      pop\n        /* \"#utility.yul\":16302:16388   */\n      swap2\n      swap1\n      pop\n      jump\t// out\n        /* \"#utility.yul\":16394:16537   */\n    tag_211:\n        /* \"#utility.yul\":16458:16467   */\n      0x00\n        /* \"#utility.yul\":16491:16531   */\n      tag_323\n        /* \"#utility.yul\":16525:16530   */\n      dup3\n        /* \"#utility.yul\":16491:16531   */\n      tag_315\n      jump\t// in\n    tag_323:\n        /* \"#utility.yul\":16478:16531   */\n      swap1\n      pop\n        /* \"#utility.yul\":16394:16537   */\n      swap2\n      swap1\n      pop\n      jump\t// out\n        /* \"#utility.yul\":16543:16697   */\n    tag_142:\n        /* \"#utility.yul\":16627:16633   */\n      dup3\n        /* \"#utility.yul\":16622:16625   */\n      dup2\n        /* \"#utility.yul\":16617:16620   */\n      dup4\n        /* \"#utility.yul\":16604:16634   */\n      calldatacopy\n        /* \"#utility.yul\":16689:16690   */\n      0x00\n        /* \"#utility.yul\":16680:16686   */\n      dup4\n        /* \"#utility.yul\":16675:16678   */\n      dup4\n        /* \"#utility.yul\":16671:16687   */\n      add\n        /* \"#utility.yul\":16664:16691   */\n      mstore\n        /* \"#utility.yul\":16543:16697   */\n      pop\n      pop\n      pop\n      jump\t// out\n        /* \"#utility.yul\":16703:17023   */\n    tag_121:\n        /* \"#utility.yul\":16747:16753   */\n      0x00\n        /* \"#utility.yul\":16784:16785   */\n      0x02\n        /* \"#utility.yul\":16778:16782   */\n      dup3\n        /* \"#utility.yul\":16774:16786   */\n      div\n        /* \"#utility.yul\":16764:16786   */\n      swap1\n      pop\n        /* \"#utility.yul\":16831:16832   */\n      0x01\n        /* \"#utility.yul\":16825:16829   */\n      dup3\n        /* \"#utility.yul\":16821:16833   */\n      and\n        /* \"#utility.yul\":16852:16870   */\n      dup1\n        /* \"#utility.yul\":16842:16923   */\n      tag_326\n      jumpi\n        /* \"#utility.yul\":16908:16912   */\n      0x7f\n        /* \"#utility.yul\":16900:16906   */\n      dup3\n        /* \"#utility.yul\":16896:16913   */\n      and\n        /* \"#utility.yul\":16886:16913   */\n      swap2\n      pop\n        /* \"#utility.yul\":16842:16923   */\n    tag_326:\n        /* \"#utility.yul\":16970:16972   */\n      0x20\n        /* \"#utility.yul\":16962:16968   */\n      dup3\n        /* \"#utility.yul\":16959:16973   */\n      lt\n        /* \"#utility.yul\":16939:16957   */\n      dup2\n        /* \"#utility.yul\":16936:16974   */\n      eq\n        /* \"#utility.yul\":16933:17017   */\n      iszero\n      tag_327\n      jumpi\n        /* \"#utility.yul\":16989:17007   */\n      tag_328\n      tag_329\n      jump\t// in\n    tag_328:\n        /* \"#utility.yul\":16933:17017   */\n    tag_327:\n        /* \"#utility.yul\":16754:17023   */\n      pop\n        /* \"#utility.yul\":16703:17023   */\n      swap2\n      swap1\n      pop\n      jump\t// out\n        /* \"#utility.yul\":17029:17310   */\n    tag_303:\n        /* \"#utility.yul\":17112:17139   */\n      tag_331\n        /* \"#utility.yul\":17134:17138   */\n      dup3\n        /* \"#utility.yul\":17112:17139   */\n      tag_310\n      jump\t// in\n    tag_331:\n        /* \"#utility.yul\":17104:17110   */\n      dup2\n        /* \"#utility.yul\":17100:17140   */\n      add\n        /* \"#utility.yul\":17242:17248   */\n      dup2\n        /* \"#utility.yul\":17230:17240   */\n      dup2\n        /* \"#utility.yul\":17227:17249   */\n      lt\n        /* \"#utility.yul\":17206:17224   */\n      0xffffffffffffffff\n        /* \"#utility.yul\":17194:17204   */\n      dup3\n        /* \"#utility.yul\":17191:17225   */\n      gt\n        /* \"#utility.yul\":17188:17250   */\n      or\n        /* \"#utility.yul\":17185:17273   */\n      iszero\n      tag_332\n      jumpi\n        /* \"#utility.yul\":17253:17271   */\n      tag_333\n      tag_308\n      jump\t// in\n    tag_333:\n        /* \"#utility.yul\":17185:17273   */\n    tag_332:\n        /* \"#utility.yul\":17293:17303   */\n      dup1\n        /* \"#utility.yul\":17289:17291   */\n      0x40\n        /* \"#utility.yul\":17282:17304   */\n      mstore\n        /* \"#utility.yul\":17072:17310   */\n      pop\n        /* \"#utility.yul\":17029:17310   */\n      pop\n      pop\n      jump\t// out\n        /* \"#utility.yul\":17316:17549   */\n    tag_90:\n        /* \"#utility.yul\":17355:17358   */\n      0x00\n        /* \"#utility.yul\":17378:17402   */\n      tag_335\n        /* \"#utility.yul\":17396:17401   */\n      dup3\n        /* \"#utility.yul\":17378:17402   */\n      tag_256\n      jump\t// in\n    tag_335:\n        /* \"#utility.yul\":17369:17402   */\n      swap2\n      pop\n        /* \"#utility.yul\":17424:17490   */\n      0xffffffffffffffffffffffffffffffffffffffffffffffffffffffffffffffff\n        /* \"#utility.yul\":17417:17422   */\n      dup3\n        /* \"#utility.yul\":17414:17491   */\n      eq\n        /* \"#utility.yul\":17411:17514   */\n      iszero\n      tag_336\n      jumpi\n        /* \"#utility.yul\":17494:17512   */\n      tag_337\n      tag_338\n      jump\t// in\n    tag_337:\n        /* \"#utility.yul\":17411:17514   */\n    tag_336:\n        /* \"#utility.yul\":17541:17542   */\n      0x01\n        /* \"#utility.yul\":17534:17539   */\n      dup3\n        /* \"#utility.yul\":17530:17543   */\n      add\n        /* \"#utility.yul\":17523:17543   */\n      swap1\n      pop\n        /* \"#utility.yul\":17316:17549   */\n      swap2\n      swap1\n      pop\n      jump\t// out\n        /* \"#utility.yul\":17555:17735   */\n    tag_338:\n        /* \"#utility.yul\":17603:17680   */\n      0x4e487b7100000000000000000000000000000000000000000000000000000000\n        /* \"#utility.yul\":17600:17601   */\n      0x00\n        /* \"#utility.yul\":17593:17681   */\n      mstore\n        /* \"#utility.yul\":17700:17704   */\n      0x11\n        /* \"#utility.yul\":17697:17698   */\n      0x04\n        /* \"#utility.yul\":17690:17705   */\n      mstore\n        /* \"#utility.yul\":17724:17728   */\n      0x24\n        /* \"#utility.yul\":17721:17722   */\n      0x00\n        /* \"#utility.yul\":17714:17729   */\n      revert\n        /* \"#utility.yul\":17741:17921   */\n    tag_63:\n        /* \"#utility.yul\":17789:17866   */\n      0x4e487b7100000000000000000000000000000000000000000000000000000000\n        /* \"#utility.yul\":17786:17787   */\n      0x00\n        /* \"#utility.yul\":17779:17867   */\n      mstore\n        /* \"#utility.yul\":17886:17890   */\n      0x21\n        /* \"#utility.yul\":17883:17884   */\n      0x04\n        /* \"#utility.yul\":17876:17891   */\n      mstore\n        /* \"#utility.yul\":17910:17914   */\n      0x24\n        /* \"#utility.yul\":17907:17908   */\n      0x00\n        /* \"#utility.yul\":17900:17915   */\n      revert\n        /* \"#utility.yul\":17927:18107   */\n    tag_329:\n        /* \"#utility.yul\":17975:18052   */\n      0x4e487b7100000000000000000000000000000000000000000000000000000000\n        /* \"#utility.yul\":17972:17973   */\n      0x00\n        /* \"#utility.yul\":17965:18053   */\n      mstore\n        /* \"#utility.yul\":18072:18076   */\n      0x22\n        /* \"#utility.yul\":18069:18070   */\n      0x04\n        /* \"#utility.yul\":18062:18077   */\n      mstore\n        /* \"#utility.yul\":18096:18100   */\n      0x24\n        /* \"#utility.yul\":18093:18094   */\n      0x00\n        /* \"#utility.yul\":18086:18101   */\n      revert\n        /* \"#utility.yul\":18113:18293   */\n    tag_308:\n        /* \"#utility.yul\":18161:18238   */\n      0x4e487b7100000000000000000000000000000000000000000000000000000000\n        /* \"#utility.yul\":18158:18159   */\n      0x00\n        /* \"#utility.yul\":18151:18239   */\n      mstore\n        /* \"#utility.yul\":18258:18262   */\n      0x41\n        /* \"#utility.yul\":18255:18256   */\n      0x04\n        /* \"#utility.yul\":18248:18263   */\n      mstore\n        /* \"#utility.yul\":18282:18286   */\n      0x24\n        /* \"#utility.yul\":18279:18280   */\n      0x00\n        /* \"#utility.yul\":18272:18287   */\n      revert\n        /* \"#utility.yul\":18299:18416   */\n    tag_151:\n        /* \"#utility.yul\":18408:18409   */\n      0x00\n        /* \"#utility.yul\":18405:18406   */\n      dup1\n        /* \"#utility.yul\":18398:18410   */\n      revert\n        /* \"#utility.yul\":18422:18539   */\n    tag_140:\n        /* \"#utility.yul\":18531:18532   */\n      0x00\n        /* \"#utility.yul\":18528:18529   */\n      dup1\n        /* \"#utility.yul\":18521:18533   */\n      revert\n        /* \"#utility.yul\":18545:18662   */\n    tag_184:\n        /* \"#utility.yul\":18654:18655   */\n      0x00\n        /* \"#utility.yul\":18651:18652   */\n      dup1\n        /* \"#utility.yul\":18644:18656   */\n      revert\n        /* \"#utility.yul\":18668:18785   */\n    tag_164:\n        /* \"#utility.yul\":18777:18778   */\n      0x00\n        /* \"#utility.yul\":18774:18775   */\n      dup1\n        /* \"#utility.yul\":18767:18779   */\n      revert\n        /* \"#utility.yul\":18791:18893   */\n    tag_310:\n        /* \"#utility.yul\":18832:18838   */\n      0x00\n        /* \"#utility.yul\":18883:18885   */\n      0x1f\n        /* \"#utility.yul\":18879:18886   */\n      not\n        /* \"#utility.yul\":18874:18876   */\n      0x1f\n        /* \"#utility.yul\":18867:18872   */\n      dup4\n        /* \"#utility.yul\":18863:18877   */\n      add\n        /* \"#utility.yul\":18859:18887   */\n      and\n        /* \"#utility.yul\":18849:18887   */\n      swap1\n      pop\n        /* \"#utility.yul\":18791:18893   */\n      swap2\n      swap1\n      pop\n      jump\t// out\n        /* \"#utility.yul\":18899:19210   */\n    tag_217:\n        /* \"#utility.yul\":19039:19073   */\n      0x596f752068617665206e6f7420696e707574206120726967687420766f74652e\n        /* \"#utility.yul\":19035:19036   */\n      0x00\n        /* \"#utility.yul\":19027:19033   */\n      dup3\n        /* \"#utility.yul\":19023:19037   */\n      add\n        /* \"#utility.yul\":19016:19074   */\n      mstore\n        /* \"#utility.yul\":19108:19142   */\n      0x20596f752063616e2065697468657220766f7465203120666f72205265717565\n        /* \"#utility.yul\":19103:19105   */\n      0x20\n        /* \"#utility.yul\":19095:19101   */\n      dup3\n        /* \"#utility.yul\":19091:19106   */\n      add\n        /* \"#utility.yul\":19084:19143   */\n      mstore\n        /* \"#utility.yul\":19177:19202   */\n      0x73746572206f72203220666f722050726f76696465722e000000000000000000\n        /* \"#utility.yul\":19172:19174   */\n      0x40\n        /* \"#utility.yul\":19164:19170   */\n      dup3\n        /* \"#utility.yul\":19160:19175   */\n      add\n        /* \"#utility.yul\":19153:19203   */\n      mstore\n        /* \"#utility.yul\":18899:19210   */\n      pop\n      jump\t// out\n        /* \"#utility.yul\":19216:19448   */\n    tag_222:\n        /* \"#utility.yul\":19356:19390   */\n      0x596f75206861766520616c726561647920766f7465642c20796f752063616e6e\n        /* \"#utility.yul\":19352:19353   */\n      0x00\n        /* \"#utility.yul\":19344:19350   */\n      dup3\n        /* \"#utility.yul\":19340:19354   */\n      add\n        /* \"#utility.yul\":19333:19391   */\n      mstore\n        /* \"#utility.yul\":19425:19440   */\n      0x6f7420766f746520616761696e00000000000000000000000000000000000000\n        /* \"#utility.yul\":19420:19422   */\n      0x20\n        /* \"#utility.yul\":19412:19418   */\n      dup3\n        /* \"#utility.yul\":19408:19423   */\n      add\n        /* \"#utility.yul\":19401:19441   */\n      mstore\n        /* \"#utility.yul\":19216:19448   */\n      pop\n      jump\t// out\n        /* \"#utility.yul\":19454:19689   */\n    tag_227:\n        /* \"#utility.yul\":19594:19628   */\n      0x596f7520726169736564207468697320636f6e666c6963742e20596f75206361\n        /* \"#utility.yul\":19590:19591   */\n      0x00\n        /* \"#utility.yul\":19582:19588   */\n      dup3\n        /* \"#utility.yul\":19578:19592   */\n      add\n        /* \"#utility.yul\":19571:19629   */\n      mstore\n        /* \"#utility.yul\":19663:19681   */\n      0x6e6e6f7420766f7465206f6e2069742e00000000000000000000000000000000\n        /* \"#utility.yul\":19658:19660   */\n      0x20\n        /* \"#utility.yul\":19650:19656   */\n      dup3\n        /* \"#utility.yul\":19646:19661   */\n      add\n        /* \"#utility.yul\":19639:19682   */\n      mstore\n        /* \"#utility.yul\":19454:19689   */\n      pop\n      jump\t// out\n        /* \"#utility.yul\":19695:19943   */\n    tag_232:\n        /* \"#utility.yul\":19835:19869   */\n      0x566f74696e6720686173206e6f74206265656e20636f6d706c65746564207965\n        /* \"#utility.yul\":19831:19832   */\n      0x00\n        /* \"#utility.yul\":19823:19829   */\n      dup3\n        /* \"#utility.yul\":19819:19833   */\n      add\n        /* \"#utility.yul\":19812:19870   */\n      mstore\n        /* \"#utility.yul\":19904:19935   */\n      0x742e20506c65617365207761697420666f7220697420746f20656e642e000000\n        /* \"#utility.yul\":19899:19901   */\n      0x20\n        /* \"#utility.yul\":19891:19897   */\n      dup3\n        /* \"#utility.yul\":19887:19902   */\n      add\n        /* \"#utility.yul\":19880:19936   */\n      mstore\n        /* \"#utility.yul\":19695:19943   */\n      pop\n      jump\t// out\n        /* \"#utility.yul\":19949:20247   */\n    tag_237:\n        /* \"#utility.yul\":20089:20123   */\n      0x4e6f742065766572796f6e652068617320766f7465642c20706c656173652070\n        /* \"#utility.yul\":20085:20086   */\n      0x00\n        /* \"#utility.yul\":20077:20083   */\n      dup3\n        /* \"#utility.yul\":20073:20087   */\n      add\n        /* \"#utility.yul\":20066:20124   */\n      mstore\n        /* \"#utility.yul\":20158:20192   */\n      0x726f6d707420616c6c206f74686572206d656d62657273206f662070726f6a65\n        /* \"#utility.yul\":20153:20155   */\n      0x20\n        /* \"#utility.yul\":20145:20151   */\n      dup3\n        /* \"#utility.yul\":20141:20156   */\n      add\n        /* \"#utility.yul\":20134:20193   */\n      mstore\n        /* \"#utility.yul\":20227:20239   */\n      0x637420746f20766f746500000000000000000000000000000000000000000000\n        /* \"#utility.yul\":20222:20224   */\n      0x40\n        /* \"#utility.yul\":20214:20220   */\n      dup3\n        /* \"#utility.yul\":20210:20225   */\n      add\n        /* \"#utility.yul\":20203:20240   */\n      mstore\n        /* \"#utility.yul\":19949:20247   */\n      pop\n      jump\t// out\n        /* \"#utility.yul\":20253:20497   */\n    tag_242:\n        /* \"#utility.yul\":20393:20427   */\n      0x596f752061726520696e766f6c76656420696e207468697320636f6e666c6963\n        /* \"#utility.yul\":20389:20390   */\n      0x00\n        /* \"#utility.yul\":20381:20387   */\n      dup3\n        /* \"#utility.yul\":20377:20391   */\n      add\n        /* \"#utility.yul\":20370:20428   */\n      mstore\n        /* \"#utility.yul\":20462:20489   */\n      0x742e20596f752063616e6e6f7420766f7465206f6e2069742e00000000000000\n        /* \"#utility.yul\":20457:20459   */\n      0x20\n        /* \"#utility.yul\":20449:20455   */\n      dup3\n        /* \"#utility.yul\":20445:20460   */\n      add\n        /* \"#utility.yul\":20438:20490   */\n      mstore\n        /* \"#utility.yul\":20253:20497   */\n      pop\n      jump\t// out\n        /* \"#utility.yul\":20503:20685   */\n    tag_247:\n        /* \"#utility.yul\":20643:20677   */\n      0x456e6f75676820766f7465732068617665206265656e20636f6c6c6563746564\n        /* \"#utility.yul\":20639:20640   */\n      0x00\n        /* \"#utility.yul\":20631:20637   */\n      dup3\n        /* \"#utility.yul\":20627:20641   */\n      add\n        /* \"#utility.yul\":20620:20678   */\n      mstore\n        /* \"#utility.yul\":20503:20685   */\n      pop\n      jump\t// out\n        /* \"#utility.yul\":20691:20992   */\n    tag_252:\n        /* \"#utility.yul\":20831:20865   */\n      0x436f6e666c6963742068617320616c7265616479206265656e20637265617465\n        /* \"#utility.yul\":20827:20828   */\n      0x00\n        /* \"#utility.yul\":20819:20825   */\n      dup3\n        /* \"#utility.yul\":20815:20829   */\n      add\n        /* \"#utility.yul\":20808:20866   */\n      mstore\n        /* \"#utility.yul\":20900:20934   */\n      0x642e20506c6561736520646f206e6f7420637265617465206d6f726520746861\n        /* \"#utility.yul\":20895:20897   */\n      0x20\n        /* \"#utility.yul\":20887:20893   */\n      dup3\n        /* \"#utility.yul\":20883:20898   */\n      add\n        /* \"#utility.yul\":20876:20935   */\n      mstore\n        /* \"#utility.yul\":20969:20984   */\n      0x6e203120636f6e666c6963742e00000000000000000000000000000000000000\n        /* \"#utility.yul\":20964:20966   */\n      0x40\n        /* \"#utility.yul\":20956:20962   */\n      dup3\n        /* \"#utility.yul\":20952:20967   */\n      add\n        /* \"#utility.yul\":20945:20985   */\n      mstore\n        /* \"#utility.yul\":20691:20992   */\n      pop\n      jump\t// out\n        /* \"#utility.yul\":20998:21119   */\n    tag_318:\n        /* \"#utility.yul\":21087:21088   */\n      0x03\n        /* \"#utility.yul\":21080:21085   */\n      dup2\n        /* \"#utility.yul\":21077:21089   */\n      lt\n        /* \"#utility.yul\":21067:21113   */\n      tag_357\n      jumpi\n        /* \"#utility.yul\":21093:21111   */\n      tag_358\n      tag_63\n      jump\t// in\n    tag_358:\n        /* \"#utility.yul\":21067:21113   */\n    tag_357:\n        /* \"#utility.yul\":20998:21119   */\n      pop\n      jump\t// out\n        /* \"#utility.yul\":21125:21247   */\n    tag_146:\n        /* \"#utility.yul\":21198:21222   */\n      tag_360\n        /* \"#utility.yul\":21216:21221   */\n      dup2\n        /* \"#utility.yul\":21198:21222   */\n      tag_207\n      jump\t// in\n    tag_360:\n        /* \"#utility.yul\":21191:21196   */\n      dup2\n        /* \"#utility.yul\":21188:21223   */\n      eq\n        /* \"#utility.yul\":21178:21241   */\n      tag_361\n      jumpi\n        /* \"#utility.yul\":21237:21238   */\n      0x00\n        /* \"#utility.yul\":21234:21235   */\n      dup1\n        /* \"#utility.yul\":21227:21239   */\n      revert\n        /* \"#utility.yul\":21178:21241   */\n    tag_361:\n        /* \"#utility.yul\":21125:21247   */\n      pop\n      jump\t// out\n        /* \"#utility.yul\":21253:21375   */\n    tag_156:\n        /* \"#utility.yul\":21326:21350   */\n      tag_363\n        /* \"#utility.yul\":21344:21349   */\n      dup2\n        /* \"#utility.yul\":21326:21350   */\n      tag_256\n      jump\t// in\n    tag_363:\n        /* \"#utility.yul\":21319:21324   */\n      dup2\n        /* \"#utility.yul\":21316:21351   */\n      eq\n        /* \"#utility.yul\":21306:21369   */\n      tag_364\n      jumpi\n        /* \"#utility.yul\":21365:21366   */\n      0x00\n        /* \"#utility.yul\":21362:21363   */\n      dup1\n        /* \"#utility.yul\":21355:21367   */\n      revert\n        /* \"#utility.yul\":21306:21369   */\n    tag_364:\n        /* \"#utility.yul\":21253:21375   */\n      pop\n      jump\t// out\n        /* \"#utility.yul\":21381:21499   */\n    tag_160:\n        /* \"#utility.yul\":21452:21474   */\n      tag_366\n        /* \"#utility.yul\":21468:21473   */\n      dup2\n        /* \"#utility.yul\":21452:21474   */\n      tag_260\n      jump\t// in\n    tag_366:\n        /* \"#utility.yul\":21445:21450   */\n      dup2\n        /* \"#utility.yul\":21442:21475   */\n      eq\n        /* \"#utility.yul\":21432:21493   */\n      tag_367\n      jumpi\n        /* \"#utility.yul\":21489:21490   */\n      0x00\n        /* \"#utility.yul\":21486:21487   */\n      dup1\n        /* \"#utility.yul\":21479:21491   */\n      revert\n        /* \"#utility.yul\":21432:21493   */\n    tag_367:\n        /* \"#utility.yul\":21381:21499   */\n      pop\n      jump\t// out\n\n    auxdata: 0xa26469706673582212202336a3c1b163a309822d5340956c4dd940fc9bfe70f7b369e1aaa3662e6ddd1064736f6c63430008070033\n}\n",
				"bytecode": {
					"linkReferences": {},
					"object": "608060405234801561001057600080fd5b50611b2c806100206000396000f3fe608060405234801561001057600080fd5b506004361061009d5760003560e01c8063c559b16b11610066578063c559b16b1461016a578063cb4389ce1461019a578063d1e992a7146101ca578063e3d87718146101e6578063e62fac27146102165761009d565b80623f489f146100a25780630366cef2146100be5780633c45fe31146100ee5780639ac788791461011e578063c171bdf71461014e575b600080fd5b6100bc60048036038101906100b79190610f76565b610232565b005b6100d860048036038101906100d39190610f76565b610287565b6040516100e59190611454565b60405180910390f35b61010860048036038101906101039190610f76565b610434565b6040516101159190611454565b60405180910390f35b61013860048036038101906101339190610f76565b610477565b6040516101459190611454565b60405180910390f35b61016860048036038101906101639190610fc9565b6104ba565b005b610184600480360381019061017f9190610f76565b610a30565b6040516101919190611339565b60405180910390f35b6101b460048036038101906101af9190610f76565b610a80565b6040516101c19190611339565b60405180910390f35b6101e460048036038101906101df9190611044565b610ad0565b005b61020060048036038101906101fb9190610f76565b610b6f565b60405161020d9190611454565b60405180910390f35b610230600480360381019061022b91906110f7565b610bb2565b005b600080600085815260200190815260200160002060008481526020019081526020016000206000838152602001908152602001600020600b0160006101000a81548160ff021916908315150217905550505050565b60008060008581526020019081526020016000206000848152602001908152602001600020600083815260200190815260200160002060070154600080868152602001908152602001600020600085815260200190815260200160002060008481526020019081526020016000206008015414610339576040517f08c379a0000000000000000000000000000000000000000000000000000000008152600401610330906113d4565b60405180910390fd5b60028081111561034c5761034b611727565b5b6000808681526020019081526020016000206000858152602001908152602001600020600084815260200190815260200160002060060160149054906101000a900460ff1660028111156103a3576103a2611727565b5b146103e3576040517f08c379a00000000000000000000000000000000000000000000000000000000081526004016103da906113b4565b60405180910390fd5b60008085815260200190815260200160002060008481526020019081526020016000206000838152602001908152602001600020600b0160019054906101000a900460ff1660ff1690509392505050565b6000806000858152602001908152602001600020600084815260200190815260200160002060008381526020019081526020016000206008015490509392505050565b600080600085815260200190815260200160002060008481526020019081526020016000206000838152602001908152602001600020600a015490509392505050565b8173ffffffffffffffffffffffffffffffffffffffff166000808781526020019081526020016000206000868152602001908152602001600020600085815260200190815260200160002060050160009054906101000a900473ffffffffffffffffffffffffffffffffffffffff1673ffffffffffffffffffffffffffffffffffffffff161415610580576040517f08c379a000000000000000000000000000000000000000000000000000000000815260040161057790611394565b60405180910390fd5b8173ffffffffffffffffffffffffffffffffffffffff166000808781526020019081526020016000206000868152602001908152602001600020600085815260200190815260200160002060060160009054906101000a900473ffffffffffffffffffffffffffffffffffffffff1673ffffffffffffffffffffffffffffffffffffffff161415610646576040517f08c379a000000000000000000000000000000000000000000000000000000000815260040161063d906113f4565b60405180910390fd5b60008086815260200190815260200160002060008581526020019081526020016000206000848152602001908152602001600020600701546000808781526020019081526020016000206000868152602001908152602001600020600085815260200190815260200160002060080154106106f6576040517f08c379a00000000000000000000000000000000000000000000000000000000081526004016106ed90611414565b60405180910390fd5b600080600087815260200190815260200160002060008681526020019081526020016000206000858152602001908152602001600020600c0160008473ffffffffffffffffffffffffffffffffffffffff1673ffffffffffffffffffffffffffffffffffffffff16815260200190815260200160002060009054906101000a900460ff1660ff16146107bd576040517f08c379a00000000000000000000000000000000000000000000000000000000081526004016107b490611374565b60405180910390fd5b60018160ff1614806107d2575060028160ff16145b610811576040517f08c379a000000000000000000000000000000000000000000000000000000000815260040161080890611354565b60405180910390fd5b60008060008781526020019081526020016000206000868152602001908152602001600020600085815260200190815260200160002090508181600c0160008573ffffffffffffffffffffffffffffffffffffffff1673ffffffffffffffffffffffffffffffffffffffff16815260200190815260200160002060006101000a81548160ff021916908360ff16021790555060018260ff1614156108ca578060090160008154809291906108c4906116af565b91905055505b60028260ff1614156108f15780600a0160008154809291906108eb906116af565b91905055505b806008016000815480929190610906906116af565b91905055507f20211b974adbe11ce3687d51504ce7ef1fcfbb9c00405ba7aca7b283903f345a86868633866040516109429594939291906114d0565b60405180910390a1806007015481600801541415610a2857806009015481600a0154111561098d57600281600b0160016101000a81548160ff021916908360ff1602179055506109ac565b600181600b0160016101000a81548160ff021916908360ff1602179055505b60028160060160146101000a81548160ff021916908360028111156109d4576109d3611727565b5b02179055507fe59fdbc65a5dd63c529717c2a71d04b136038f05301755de242dd05990c0281486868684600b0160019054906101000a900460ff16604051610a1f9493929190611523565b60405180910390a15b505050505050565b60008060008581526020019081526020016000206000848152602001908152602001600020600083815260200190815260200160002060060160149054906101000a900460ff1690509392505050565b60008060008581526020019081526020016000206000848152602001908152602001600020600083815260200190815260200160002060060160149054906101000a900460ff1690509392505050565b81600080878152602001908152602001600020600086815260200190815260200160002060008581526020019081526020016000206003019080519060200190610b1b929190610e24565b5080600080878152602001908152602001600020600086815260200190815260200160002060008581526020019081526020016000206004019080519060200190610b67929190610e24565b505050505050565b6000806000858152602001908152602001600020600084815260200190815260200160002060008381526020019081526020016000206009015490509392505050565b600115156000808a815260200190815260200160002060008981526020019081526020016000206000888152602001908152602001600020600b0160009054906101000a900460ff1615151415610c3e576040517f08c379a0000000000000000000000000000000000000000000000000000000008152600401610c3590611434565b60405180910390fd5b60008060008a815260200190815260200160002060008981526020019081526020016000206000888152602001908152602001600020905088816000018190555087816001018190555086816002018190555085816003019080519060200190610ca9929190610e24565b5084816004019080519060200190610cc2929190610e24565b50838160050160006101000a81548173ffffffffffffffffffffffffffffffffffffffff021916908373ffffffffffffffffffffffffffffffffffffffff160217905550828160060160006101000a81548173ffffffffffffffffffffffffffffffffffffffff021916908373ffffffffffffffffffffffffffffffffffffffff16021790555060018160060160146101000a81548160ff02191690836002811115610d7157610d70611727565b5b02179055508181600701819055506000816008018190555060008160090181905550600081600a0181905550600181600b0160006101000a81548160ff021916908315150217905550600081600b0160016101000a81548160ff021916908360ff1602179055507ffa127411522a1139d16c2142db999e127aef2288bd98a0558006bb115666ab1b898989878787604051610e119695949392919061146f565b60405180910390a1505050505050505050565b828054610e309061164c565b90600052602060002090601f016020900481019282610e525760008555610e99565b82601f10610e6b57805160ff1916838001178555610e99565b82800160010185558215610e99579182015b82811115610e98578251825591602001919060010190610e7d565b5b509050610ea69190610eaa565b5090565b5b80821115610ec3576000816000905550600101610eab565b5090565b6000610eda610ed58461158d565b611568565b905082815260208101848484011115610ef657610ef56117b9565b5b610f0184828561163d565b509392505050565b600081359050610f1881611ab1565b92915050565b600082601f830112610f3357610f326117b4565b5b8135610f43848260208601610ec7565b91505092915050565b600081359050610f5b81611ac8565b92915050565b600081359050610f7081611adf565b92915050565b600080600060608486031215610f8f57610f8e6117c3565b5b6000610f9d86828701610f4c565b9350506020610fae86828701610f4c565b9250506040610fbf86828701610f4c565b9150509250925092565b600080600080600060a08688031215610fe557610fe46117c3565b5b6000610ff388828901610f4c565b955050602061100488828901610f4c565b945050604061101588828901610f4c565b935050606061102688828901610f09565b925050608061103788828901610f61565b9150509295509295909350565b600080600080600060a086880312156110605761105f6117c3565b5b600061106e88828901610f4c565b955050602061107f88828901610f4c565b945050604061109088828901610f4c565b935050606086013567ffffffffffffffff8111156110b1576110b06117be565b5b6110bd88828901610f1e565b925050608086013567ffffffffffffffff8111156110de576110dd6117be565b5b6110ea88828901610f1e565b9150509295509295909350565b600080600080600080600080610100898b031215611118576111176117c3565b5b60006111268b828c01610f4c565b98505060206111378b828c01610f4c565b97505060406111488b828c01610f4c565b965050606089013567ffffffffffffffff811115611169576111686117be565b5b6111758b828c01610f1e565b955050608089013567ffffffffffffffff811115611196576111956117be565b5b6111a28b828c01610f1e565b94505060a06111b38b828c01610f09565b93505060c06111c48b828c01610f09565b92505060e06111d58b828c01610f4c565b9150509295985092959890939650565b6111ee816115cf565b82525050565b6111fd8161162b565b82525050565b60006112106057836115be565b915061121b826117d9565b606082019050919050565b6000611233602d836115be565b915061123e8261184e565b604082019050919050565b60006112566030836115be565b91506112618261189d565b604082019050919050565b6000611279603d836115be565b9150611284826118ec565b604082019050919050565b600061129c604a836115be565b91506112a78261193b565b606082019050919050565b60006112bf6039836115be565b91506112ca826119b0565b604082019050919050565b60006112e26020836115be565b91506112ed826119ff565b602082019050919050565b6000611305604d836115be565b915061131082611a28565b606082019050919050565b61132481611614565b82525050565b6113338161161e565b82525050565b600060208201905061134e60008301846111f4565b92915050565b6000602082019050818103600083015261136d81611203565b9050919050565b6000602082019050818103600083015261138d81611226565b9050919050565b600060208201905081810360008301526113ad81611249565b9050919050565b600060208201905081810360008301526113cd8161126c565b9050919050565b600060208201905081810360008301526113ed8161128f565b9050919050565b6000602082019050818103600083015261140d816112b2565b9050919050565b6000602082019050818103600083015261142d816112d5565b9050919050565b6000602082019050818103600083015261144d816112f8565b9050919050565b6000602082019050611469600083018461131b565b92915050565b600060c082019050611484600083018961131b565b611491602083018861131b565b61149e604083018761131b565b6114ab60608301866111e5565b6114b860808301856111e5565b6114c560a083018461131b565b979650505050505050565b600060a0820190506114e5600083018861131b565b6114f2602083018761131b565b6114ff604083018661131b565b61150c60608301856111e5565b611519608083018461132a565b9695505050505050565b6000608082019050611538600083018761131b565b611545602083018661131b565b611552604083018561131b565b61155f606083018461132a565b95945050505050565b6000611572611583565b905061157e828261167e565b919050565b6000604051905090565b600067ffffffffffffffff8211156115a8576115a7611785565b5b6115b1826117c8565b9050602081019050919050565b600082825260208201905092915050565b60006115da826115f4565b9050919050565b60008190506115ef82611a9d565b919050565b600073ffffffffffffffffffffffffffffffffffffffff82169050919050565b6000819050919050565b600060ff82169050919050565b6000611636826115e1565b9050919050565b82818337600083830152505050565b6000600282049050600182168061166457607f821691505b6020821081141561167857611677611756565b5b50919050565b611687826117c8565b810181811067ffffffffffffffff821117156116a6576116a5611785565b5b80604052505050565b60006116ba82611614565b91507fffffffffffffffffffffffffffffffffffffffffffffffffffffffffffffffff8214156116ed576116ec6116f8565b5b600182019050919050565b7f4e487b7100000000000000000000000000000000000000000000000000000000600052601160045260246000fd5b7f4e487b7100000000000000000000000000000000000000000000000000000000600052602160045260246000fd5b7f4e487b7100000000000000000000000000000000000000000000000000000000600052602260045260246000fd5b7f4e487b7100000000000000000000000000000000000000000000000000000000600052604160045260246000fd5b600080fd5b600080fd5b600080fd5b600080fd5b6000601f19601f8301169050919050565b7f596f752068617665206e6f7420696e707574206120726967687420766f74652e60008201527f20596f752063616e2065697468657220766f7465203120666f7220526571756560208201527f73746572206f72203220666f722050726f76696465722e000000000000000000604082015250565b7f596f75206861766520616c726561647920766f7465642c20796f752063616e6e60008201527f6f7420766f746520616761696e00000000000000000000000000000000000000602082015250565b7f596f7520726169736564207468697320636f6e666c6963742e20596f7520636160008201527f6e6e6f7420766f7465206f6e2069742e00000000000000000000000000000000602082015250565b7f566f74696e6720686173206e6f74206265656e20636f6d706c6574656420796560008201527f742e20506c65617365207761697420666f7220697420746f20656e642e000000602082015250565b7f4e6f742065766572796f6e652068617320766f7465642c20706c65617365207060008201527f726f6d707420616c6c206f74686572206d656d62657273206f662070726f6a6560208201527f637420746f20766f746500000000000000000000000000000000000000000000604082015250565b7f596f752061726520696e766f6c76656420696e207468697320636f6e666c696360008201527f742e20596f752063616e6e6f7420766f7465206f6e2069742e00000000000000602082015250565b7f456e6f75676820766f7465732068617665206265656e20636f6c6c6563746564600082015250565b7f436f6e666c6963742068617320616c7265616479206265656e2063726561746560008201527f642e20506c6561736520646f206e6f7420637265617465206d6f72652074686160208201527f6e203120636f6e666c6963742e00000000000000000000000000000000000000604082015250565b60038110611aae57611aad611727565b5b50565b611aba816115cf565b8114611ac557600080fd5b50565b611ad181611614565b8114611adc57600080fd5b50565b611ae88161161e565b8114611af357600080fd5b5056fea26469706673582212202336a3c1b163a309822d5340956c4dd940fc9bfe70f7b369e1aaa3662e6ddd1064736f6c63430008070033",
					"opcodes": "PUSH1 0x80 PUSH1 0x40 MSTORE CALLVALUE DUP1 ISZERO PUSH2 0x10 JUMPI PUSH1 0x0 DUP1 REVERT JUMPDEST POP PUSH2 0x1B2C DUP1 PUSH2 0x20 PUSH1 0x0 CODECOPY PUSH1 0x0 RETURN INVALID PUSH1 0x80 PUSH1 0x40 MSTORE CALLVALUE DUP1 ISZERO PUSH2 0x10 JUMPI PUSH1 0x0 DUP1 REVERT JUMPDEST POP PUSH1 0x4 CALLDATASIZE LT PUSH2 0x9D JUMPI PUSH1 0x0 CALLDATALOAD PUSH1 0xE0 SHR DUP1 PUSH4 0xC559B16B GT PUSH2 0x66 JUMPI DUP1 PUSH4 0xC559B16B EQ PUSH2 0x16A JUMPI DUP1 PUSH4 0xCB4389CE EQ PUSH2 0x19A JUMPI DUP1 PUSH4 0xD1E992A7 EQ PUSH2 0x1CA JUMPI DUP1 PUSH4 0xE3D87718 EQ PUSH2 0x1E6 JUMPI DUP1 PUSH4 0xE62FAC27 EQ PUSH2 0x216 JUMPI PUSH2 0x9D JUMP JUMPDEST DUP1 PUSH3 0x3F489F EQ PUSH2 0xA2 JUMPI DUP1 PUSH4 0x366CEF2 EQ PUSH2 0xBE JUMPI DUP1 PUSH4 0x3C45FE31 EQ PUSH2 0xEE JUMPI DUP1 PUSH4 0x9AC78879 EQ PUSH2 0x11E JUMPI DUP1 PUSH4 0xC171BDF7 EQ PUSH2 0x14E JUMPI JUMPDEST PUSH1 0x0 DUP1 REVERT JUMPDEST PUSH2 0xBC PUSH1 0x4 DUP1 CALLDATASIZE SUB DUP2 ADD SWAP1 PUSH2 0xB7 SWAP2 SWAP1 PUSH2 0xF76 JUMP JUMPDEST PUSH2 0x232 JUMP JUMPDEST STOP JUMPDEST PUSH2 0xD8 PUSH1 0x4 DUP1 CALLDATASIZE SUB DUP2 ADD SWAP1 PUSH2 0xD3 SWAP2 SWAP1 PUSH2 0xF76 JUMP JUMPDEST PUSH2 0x287 JUMP JUMPDEST PUSH1 0x40 MLOAD PUSH2 0xE5 SWAP2 SWAP1 PUSH2 0x1454 JUMP JUMPDEST PUSH1 0x40 MLOAD DUP1 SWAP2 SUB SWAP1 RETURN JUMPDEST PUSH2 0x108 PUSH1 0x4 DUP1 CALLDATASIZE SUB DUP2 ADD SWAP1 PUSH2 0x103 SWAP2 SWAP1 PUSH2 0xF76 JUMP JUMPDEST PUSH2 0x434 JUMP JUMPDEST PUSH1 0x40 MLOAD PUSH2 0x115 SWAP2 SWAP1 PUSH2 0x1454 JUMP JUMPDEST PUSH1 0x40 MLOAD DUP1 SWAP2 SUB SWAP1 RETURN JUMPDEST PUSH2 0x138 PUSH1 0x4 DUP1 CALLDATASIZE SUB DUP2 ADD SWAP1 PUSH2 0x133 SWAP2 SWAP1 PUSH2 0xF76 JUMP JUMPDEST PUSH2 0x477 JUMP JUMPDEST PUSH1 0x40 MLOAD PUSH2 0x145 SWAP2 SWAP1 PUSH2 0x1454 JUMP JUMPDEST PUSH1 0x40 MLOAD DUP1 SWAP2 SUB SWAP1 RETURN JUMPDEST PUSH2 0x168 PUSH1 0x4 DUP1 CALLDATASIZE SUB DUP2 ADD SWAP1 PUSH2 0x163 SWAP2 SWAP1 PUSH2 0xFC9 JUMP JUMPDEST PUSH2 0x4BA JUMP JUMPDEST STOP JUMPDEST PUSH2 0x184 PUSH1 0x4 DUP1 CALLDATASIZE SUB DUP2 ADD SWAP1 PUSH2 0x17F SWAP2 SWAP1 PUSH2 0xF76 JUMP JUMPDEST PUSH2 0xA30 JUMP JUMPDEST PUSH1 0x40 MLOAD PUSH2 0x191 SWAP2 SWAP1 PUSH2 0x1339 JUMP JUMPDEST PUSH1 0x40 MLOAD DUP1 SWAP2 SUB SWAP1 RETURN JUMPDEST PUSH2 0x1B4 PUSH1 0x4 DUP1 CALLDATASIZE SUB DUP2 ADD SWAP1 PUSH2 0x1AF SWAP2 SWAP1 PUSH2 0xF76 JUMP JUMPDEST PUSH2 0xA80 JUMP JUMPDEST PUSH1 0x40 MLOAD PUSH2 0x1C1 SWAP2 SWAP1 PUSH2 0x1339 JUMP JUMPDEST PUSH1 0x40 MLOAD DUP1 SWAP2 SUB SWAP1 RETURN JUMPDEST PUSH2 0x1E4 PUSH1 0x4 DUP1 CALLDATASIZE SUB DUP2 ADD SWAP1 PUSH2 0x1DF SWAP2 SWAP1 PUSH2 0x1044 JUMP JUMPDEST PUSH2 0xAD0 JUMP JUMPDEST STOP JUMPDEST PUSH2 0x200 PUSH1 0x4 DUP1 CALLDATASIZE SUB DUP2 ADD SWAP1 PUSH2 0x1FB SWAP2 SWAP1 PUSH2 0xF76 JUMP JUMPDEST PUSH2 0xB6F JUMP JUMPDEST PUSH1 0x40 MLOAD PUSH2 0x20D SWAP2 SWAP1 PUSH2 0x1454 JUMP JUMPDEST PUSH1 0x40 MLOAD DUP1 SWAP2 SUB SWAP1 RETURN JUMPDEST PUSH2 0x230 PUSH1 0x4 DUP1 CALLDATASIZE SUB DUP2 ADD SWAP1 PUSH2 0x22B SWAP2 SWAP1 PUSH2 0x10F7 JUMP JUMPDEST PUSH2 0xBB2 JUMP JUMPDEST STOP JUMPDEST PUSH1 0x0 DUP1 PUSH1 0x0 DUP6 DUP2 MSTORE PUSH1 0x20 ADD SWAP1 DUP2 MSTORE PUSH1 0x20 ADD PUSH1 0x0 KECCAK256 PUSH1 0x0 DUP5 DUP2 MSTORE PUSH1 0x20 ADD SWAP1 DUP2 MSTORE PUSH1 0x20 ADD PUSH1 0x0 KECCAK256 PUSH1 0x0 DUP4 DUP2 MSTORE PUSH1 0x20 ADD SWAP1 DUP2 MSTORE PUSH1 0x20 ADD PUSH1 0x0 KECCAK256 PUSH1 0xB ADD PUSH1 0x0 PUSH2 0x100 EXP DUP2 SLOAD DUP2 PUSH1 0xFF MUL NOT AND SWAP1 DUP4 ISZERO ISZERO MUL OR SWAP1 SSTORE POP POP POP POP JUMP JUMPDEST PUSH1 0x0 DUP1 PUSH1 0x0 DUP6 DUP2 MSTORE PUSH1 0x20 ADD SWAP1 DUP2 MSTORE PUSH1 0x20 ADD PUSH1 0x0 KECCAK256 PUSH1 0x0 DUP5 DUP2 MSTORE PUSH1 0x20 ADD SWAP1 DUP2 MSTORE PUSH1 0x20 ADD PUSH1 0x0 KECCAK256 PUSH1 0x0 DUP4 DUP2 MSTORE PUSH1 0x20 ADD SWAP1 DUP2 MSTORE PUSH1 0x20 ADD PUSH1 0x0 KECCAK256 PUSH1 0x7 ADD SLOAD PUSH1 0x0 DUP1 DUP7 DUP2 MSTORE PUSH1 0x20 ADD SWAP1 DUP2 MSTORE PUSH1 0x20 ADD PUSH1 0x0 KECCAK256 PUSH1 0x0 DUP6 DUP2 MSTORE PUSH1 0x20 ADD SWAP1 DUP2 MSTORE PUSH1 0x20 ADD PUSH1 0x0 KECCAK256 PUSH1 0x0 DUP5 DUP2 MSTORE PUSH1 0x20 ADD SWAP1 DUP2 MSTORE PUSH1 0x20 ADD PUSH1 0x0 KECCAK256 PUSH1 0x8 ADD SLOAD EQ PUSH2 0x339 JUMPI PUSH1 0x40 MLOAD PUSH32 0x8C379A000000000000000000000000000000000000000000000000000000000 DUP2 MSTORE PUSH1 0x4 ADD PUSH2 0x330 SWAP1 PUSH2 0x13D4 JUMP JUMPDEST PUSH1 0x40 MLOAD DUP1 SWAP2 SUB SWAP1 REVERT JUMPDEST PUSH1 0x2 DUP1 DUP2 GT ISZERO PUSH2 0x34C JUMPI PUSH2 0x34B PUSH2 0x1727 JUMP JUMPDEST JUMPDEST PUSH1 0x0 DUP1 DUP7 DUP2 MSTORE PUSH1 0x20 ADD SWAP1 DUP2 MSTORE PUSH1 0x20 ADD PUSH1 0x0 KECCAK256 PUSH1 0x0 DUP6 DUP2 MSTORE PUSH1 0x20 ADD SWAP1 DUP2 MSTORE PUSH1 0x20 ADD PUSH1 0x0 KECCAK256 PUSH1 0x0 DUP5 DUP2 MSTORE PUSH1 0x20 ADD SWAP1 DUP2 MSTORE PUSH1 0x20 ADD PUSH1 0x0 KECCAK256 PUSH1 0x6 ADD PUSH1 0x14 SWAP1 SLOAD SWAP1 PUSH2 0x100 EXP SWAP1 DIV PUSH1 0xFF AND PUSH1 0x2 DUP2 GT ISZERO PUSH2 0x3A3 JUMPI PUSH2 0x3A2 PUSH2 0x1727 JUMP JUMPDEST JUMPDEST EQ PUSH2 0x3E3 JUMPI PUSH1 0x40 MLOAD PUSH32 0x8C379A000000000000000000000000000000000000000000000000000000000 DUP2 MSTORE PUSH1 0x4 ADD PUSH2 0x3DA SWAP1 PUSH2 0x13B4 JUMP JUMPDEST PUSH1 0x40 MLOAD DUP1 SWAP2 SUB SWAP1 REVERT JUMPDEST PUSH1 0x0 DUP1 DUP6 DUP2 MSTORE PUSH1 0x20 ADD SWAP1 DUP2 MSTORE PUSH1 0x20 ADD PUSH1 0x0 KECCAK256 PUSH1 0x0 DUP5 DUP2 MSTORE PUSH1 0x20 ADD SWAP1 DUP2 MSTORE PUSH1 0x20 ADD PUSH1 0x0 KECCAK256 PUSH1 0x0 DUP4 DUP2 MSTORE PUSH1 0x20 ADD SWAP1 DUP2 MSTORE PUSH1 0x20 ADD PUSH1 0x0 KECCAK256 PUSH1 0xB ADD PUSH1 0x1 SWAP1 SLOAD SWAP1 PUSH2 0x100 EXP SWAP1 DIV PUSH1 0xFF AND PUSH1 0xFF AND SWAP1 POP SWAP4 SWAP3 POP POP POP JUMP JUMPDEST PUSH1 0x0 DUP1 PUSH1 0x0 DUP6 DUP2 MSTORE PUSH1 0x20 ADD SWAP1 DUP2 MSTORE PUSH1 0x20 ADD PUSH1 0x0 KECCAK256 PUSH1 0x0 DUP5 DUP2 MSTORE PUSH1 0x20 ADD SWAP1 DUP2 MSTORE PUSH1 0x20 ADD PUSH1 0x0 KECCAK256 PUSH1 0x0 DUP4 DUP2 MSTORE PUSH1 0x20 ADD SWAP1 DUP2 MSTORE PUSH1 0x20 ADD PUSH1 0x0 KECCAK256 PUSH1 0x8 ADD SLOAD SWAP1 POP SWAP4 SWAP3 POP POP POP JUMP JUMPDEST PUSH1 0x0 DUP1 PUSH1 0x0 DUP6 DUP2 MSTORE PUSH1 0x20 ADD SWAP1 DUP2 MSTORE PUSH1 0x20 ADD PUSH1 0x0 KECCAK256 PUSH1 0x0 DUP5 DUP2 MSTORE PUSH1 0x20 ADD SWAP1 DUP2 MSTORE PUSH1 0x20 ADD PUSH1 0x0 KECCAK256 PUSH1 0x0 DUP4 DUP2 MSTORE PUSH1 0x20 ADD SWAP1 DUP2 MSTORE PUSH1 0x20 ADD PUSH1 0x0 KECCAK256 PUSH1 0xA ADD SLOAD SWAP1 POP SWAP4 SWAP3 POP POP POP JUMP JUMPDEST DUP2 PUSH20 0xFFFFFFFFFFFFFFFFFFFFFFFFFFFFFFFFFFFFFFFF AND PUSH1 0x0 DUP1 DUP8 DUP2 MSTORE PUSH1 0x20 ADD SWAP1 DUP2 MSTORE PUSH1 0x20 ADD PUSH1 0x0 KECCAK256 PUSH1 0x0 DUP7 DUP2 MSTORE PUSH1 0x20 ADD SWAP1 DUP2 MSTORE PUSH1 0x20 ADD PUSH1 0x0 KECCAK256 PUSH1 0x0 DUP6 DUP2 MSTORE PUSH1 0x20 ADD SWAP1 DUP2 MSTORE PUSH1 0x20 ADD PUSH1 0x0 KECCAK256 PUSH1 0x5 ADD PUSH1 0x0 SWAP1 SLOAD SWAP1 PUSH2 0x100 EXP SWAP1 DIV PUSH20 0xFFFFFFFFFFFFFFFFFFFFFFFFFFFFFFFFFFFFFFFF AND PUSH20 0xFFFFFFFFFFFFFFFFFFFFFFFFFFFFFFFFFFFFFFFF AND EQ ISZERO PUSH2 0x580 JUMPI PUSH1 0x40 MLOAD PUSH32 0x8C379A000000000000000000000000000000000000000000000000000000000 DUP2 MSTORE PUSH1 0x4 ADD PUSH2 0x577 SWAP1 PUSH2 0x1394 JUMP JUMPDEST PUSH1 0x40 MLOAD DUP1 SWAP2 SUB SWAP1 REVERT JUMPDEST DUP2 PUSH20 0xFFFFFFFFFFFFFFFFFFFFFFFFFFFFFFFFFFFFFFFF AND PUSH1 0x0 DUP1 DUP8 DUP2 MSTORE PUSH1 0x20 ADD SWAP1 DUP2 MSTORE PUSH1 0x20 ADD PUSH1 0x0 KECCAK256 PUSH1 0x0 DUP7 DUP2 MSTORE PUSH1 0x20 ADD SWAP1 DUP2 MSTORE PUSH1 0x20 ADD PUSH1 0x0 KECCAK256 PUSH1 0x0 DUP6 DUP2 MSTORE PUSH1 0x20 ADD SWAP1 DUP2 MSTORE PUSH1 0x20 ADD PUSH1 0x0 KECCAK256 PUSH1 0x6 ADD PUSH1 0x0 SWAP1 SLOAD SWAP1 PUSH2 0x100 EXP SWAP1 DIV PUSH20 0xFFFFFFFFFFFFFFFFFFFFFFFFFFFFFFFFFFFFFFFF AND PUSH20 0xFFFFFFFFFFFFFFFFFFFFFFFFFFFFFFFFFFFFFFFF AND EQ ISZERO PUSH2 0x646 JUMPI PUSH1 0x40 MLOAD PUSH32 0x8C379A000000000000000000000000000000000000000000000000000000000 DUP2 MSTORE PUSH1 0x4 ADD PUSH2 0x63D SWAP1 PUSH2 0x13F4 JUMP JUMPDEST PUSH1 0x40 MLOAD DUP1 SWAP2 SUB SWAP1 REVERT JUMPDEST PUSH1 0x0 DUP1 DUP7 DUP2 MSTORE PUSH1 0x20 ADD SWAP1 DUP2 MSTORE PUSH1 0x20 ADD PUSH1 0x0 KECCAK256 PUSH1 0x0 DUP6 DUP2 MSTORE PUSH1 0x20 ADD SWAP1 DUP2 MSTORE PUSH1 0x20 ADD PUSH1 0x0 KECCAK256 PUSH1 0x0 DUP5 DUP2 MSTORE PUSH1 0x20 ADD SWAP1 DUP2 MSTORE PUSH1 0x20 ADD PUSH1 0x0 KECCAK256 PUSH1 0x7 ADD SLOAD PUSH1 0x0 DUP1 DUP8 DUP2 MSTORE PUSH1 0x20 ADD SWAP1 DUP2 MSTORE PUSH1 0x20 ADD PUSH1 0x0 KECCAK256 PUSH1 0x0 DUP7 DUP2 MSTORE PUSH1 0x20 ADD SWAP1 DUP2 MSTORE PUSH1 0x20 ADD PUSH1 0x0 KECCAK256 PUSH1 0x0 DUP6 DUP2 MSTORE PUSH1 0x20 ADD SWAP1 DUP2 MSTORE PUSH1 0x20 ADD PUSH1 0x0 KECCAK256 PUSH1 0x8 ADD SLOAD LT PUSH2 0x6F6 JUMPI PUSH1 0x40 MLOAD PUSH32 0x8C379A000000000000000000000000000000000000000000000000000000000 DUP2 MSTORE PUSH1 0x4 ADD PUSH2 0x6ED SWAP1 PUSH2 0x1414 JUMP JUMPDEST PUSH1 0x40 MLOAD DUP1 SWAP2 SUB SWAP1 REVERT JUMPDEST PUSH1 0x0 DUP1 PUSH1 0x0 DUP8 DUP2 MSTORE PUSH1 0x20 ADD SWAP1 DUP2 MSTORE PUSH1 0x20 ADD PUSH1 0x0 KECCAK256 PUSH1 0x0 DUP7 DUP2 MSTORE PUSH1 0x20 ADD SWAP1 DUP2 MSTORE PUSH1 0x20 ADD PUSH1 0x0 KECCAK256 PUSH1 0x0 DUP6 DUP2 MSTORE PUSH1 0x20 ADD SWAP1 DUP2 MSTORE PUSH1 0x20 ADD PUSH1 0x0 KECCAK256 PUSH1 0xC ADD PUSH1 0x0 DUP5 PUSH20 0xFFFFFFFFFFFFFFFFFFFFFFFFFFFFFFFFFFFFFFFF AND PUSH20 0xFFFFFFFFFFFFFFFFFFFFFFFFFFFFFFFFFFFFFFFF AND DUP2 MSTORE PUSH1 0x20 ADD SWAP1 DUP2 MSTORE PUSH1 0x20 ADD PUSH1 0x0 KECCAK256 PUSH1 0x0 SWAP1 SLOAD SWAP1 PUSH2 0x100 EXP SWAP1 DIV PUSH1 0xFF AND PUSH1 0xFF AND EQ PUSH2 0x7BD JUMPI PUSH1 0x40 MLOAD PUSH32 0x8C379A000000000000000000000000000000000000000000000000000000000 DUP2 MSTORE PUSH1 0x4 ADD PUSH2 0x7B4 SWAP1 PUSH2 0x1374 JUMP JUMPDEST PUSH1 0x40 MLOAD DUP1 SWAP2 SUB SWAP1 REVERT JUMPDEST PUSH1 0x1 DUP2 PUSH1 0xFF AND EQ DUP1 PUSH2 0x7D2 JUMPI POP PUSH1 0x2 DUP2 PUSH1 0xFF AND EQ JUMPDEST PUSH2 0x811 JUMPI PUSH1 0x40 MLOAD PUSH32 0x8C379A000000000000000000000000000000000000000000000000000000000 DUP2 MSTORE PUSH1 0x4 ADD PUSH2 0x808 SWAP1 PUSH2 0x1354 JUMP JUMPDEST PUSH1 0x40 MLOAD DUP1 SWAP2 SUB SWAP1 REVERT JUMPDEST PUSH1 0x0 DUP1 PUSH1 0x0 DUP8 DUP2 MSTORE PUSH1 0x20 ADD SWAP1 DUP2 MSTORE PUSH1 0x20 ADD PUSH1 0x0 KECCAK256 PUSH1 0x0 DUP7 DUP2 MSTORE PUSH1 0x20 ADD SWAP1 DUP2 MSTORE PUSH1 0x20 ADD PUSH1 0x0 KECCAK256 PUSH1 0x0 DUP6 DUP2 MSTORE PUSH1 0x20 ADD SWAP1 DUP2 MSTORE PUSH1 0x20 ADD PUSH1 0x0 KECCAK256 SWAP1 POP DUP2 DUP2 PUSH1 0xC ADD PUSH1 0x0 DUP6 PUSH20 0xFFFFFFFFFFFFFFFFFFFFFFFFFFFFFFFFFFFFFFFF AND PUSH20 0xFFFFFFFFFFFFFFFFFFFFFFFFFFFFFFFFFFFFFFFF AND DUP2 MSTORE PUSH1 0x20 ADD SWAP1 DUP2 MSTORE PUSH1 0x20 ADD PUSH1 0x0 KECCAK256 PUSH1 0x0 PUSH2 0x100 EXP DUP2 SLOAD DUP2 PUSH1 0xFF MUL NOT AND SWAP1 DUP4 PUSH1 0xFF AND MUL OR SWAP1 SSTORE POP PUSH1 0x1 DUP3 PUSH1 0xFF AND EQ ISZERO PUSH2 0x8CA JUMPI DUP1 PUSH1 0x9 ADD PUSH1 0x0 DUP2 SLOAD DUP1 SWAP3 SWAP2 SWAP1 PUSH2 0x8C4 SWAP1 PUSH2 0x16AF JUMP JUMPDEST SWAP2 SWAP1 POP SSTORE POP JUMPDEST PUSH1 0x2 DUP3 PUSH1 0xFF AND EQ ISZERO PUSH2 0x8F1 JUMPI DUP1 PUSH1 0xA ADD PUSH1 0x0 DUP2 SLOAD DUP1 SWAP3 SWAP2 SWAP1 PUSH2 0x8EB SWAP1 PUSH2 0x16AF JUMP JUMPDEST SWAP2 SWAP1 POP SSTORE POP JUMPDEST DUP1 PUSH1 0x8 ADD PUSH1 0x0 DUP2 SLOAD DUP1 SWAP3 SWAP2 SWAP1 PUSH2 0x906 SWAP1 PUSH2 0x16AF JUMP JUMPDEST SWAP2 SWAP1 POP SSTORE POP PUSH32 0x20211B974ADBE11CE3687D51504CE7EF1FCFBB9C00405BA7ACA7B283903F345A DUP7 DUP7 DUP7 CALLER DUP7 PUSH1 0x40 MLOAD PUSH2 0x942 SWAP6 SWAP5 SWAP4 SWAP3 SWAP2 SWAP1 PUSH2 0x14D0 JUMP JUMPDEST PUSH1 0x40 MLOAD DUP1 SWAP2 SUB SWAP1 LOG1 DUP1 PUSH1 0x7 ADD SLOAD DUP2 PUSH1 0x8 ADD SLOAD EQ ISZERO PUSH2 0xA28 JUMPI DUP1 PUSH1 0x9 ADD SLOAD DUP2 PUSH1 0xA ADD SLOAD GT ISZERO PUSH2 0x98D JUMPI PUSH1 0x2 DUP2 PUSH1 0xB ADD PUSH1 0x1 PUSH2 0x100 EXP DUP2 SLOAD DUP2 PUSH1 0xFF MUL NOT AND SWAP1 DUP4 PUSH1 0xFF AND MUL OR SWAP1 SSTORE POP PUSH2 0x9AC JUMP JUMPDEST PUSH1 0x1 DUP2 PUSH1 0xB ADD PUSH1 0x1 PUSH2 0x100 EXP DUP2 SLOAD DUP2 PUSH1 0xFF MUL NOT AND SWAP1 DUP4 PUSH1 0xFF AND MUL OR SWAP1 SSTORE POP JUMPDEST PUSH1 0x2 DUP2 PUSH1 0x6 ADD PUSH1 0x14 PUSH2 0x100 EXP DUP2 SLOAD DUP2 PUSH1 0xFF MUL NOT AND SWAP1 DUP4 PUSH1 0x2 DUP2 GT ISZERO PUSH2 0x9D4 JUMPI PUSH2 0x9D3 PUSH2 0x1727 JUMP JUMPDEST JUMPDEST MUL OR SWAP1 SSTORE POP PUSH32 0xE59FDBC65A5DD63C529717C2A71D04B136038F05301755DE242DD05990C02814 DUP7 DUP7 DUP7 DUP5 PUSH1 0xB ADD PUSH1 0x1 SWAP1 SLOAD SWAP1 PUSH2 0x100 EXP SWAP1 DIV PUSH1 0xFF AND PUSH1 0x40 MLOAD PUSH2 0xA1F SWAP5 SWAP4 SWAP3 SWAP2 SWAP1 PUSH2 0x1523 JUMP JUMPDEST PUSH1 0x40 MLOAD DUP1 SWAP2 SUB SWAP1 LOG1 JUMPDEST POP POP POP POP POP POP JUMP JUMPDEST PUSH1 0x0 DUP1 PUSH1 0x0 DUP6 DUP2 MSTORE PUSH1 0x20 ADD SWAP1 DUP2 MSTORE PUSH1 0x20 ADD PUSH1 0x0 KECCAK256 PUSH1 0x0 DUP5 DUP2 MSTORE PUSH1 0x20 ADD SWAP1 DUP2 MSTORE PUSH1 0x20 ADD PUSH1 0x0 KECCAK256 PUSH1 0x0 DUP4 DUP2 MSTORE PUSH1 0x20 ADD SWAP1 DUP2 MSTORE PUSH1 0x20 ADD PUSH1 0x0 KECCAK256 PUSH1 0x6 ADD PUSH1 0x14 SWAP1 SLOAD SWAP1 PUSH2 0x100 EXP SWAP1 DIV PUSH1 0xFF AND SWAP1 POP SWAP4 SWAP3 POP POP POP JUMP JUMPDEST PUSH1 0x0 DUP1 PUSH1 0x0 DUP6 DUP2 MSTORE PUSH1 0x20 ADD SWAP1 DUP2 MSTORE PUSH1 0x20 ADD PUSH1 0x0 KECCAK256 PUSH1 0x0 DUP5 DUP2 MSTORE PUSH1 0x20 ADD SWAP1 DUP2 MSTORE PUSH1 0x20 ADD PUSH1 0x0 KECCAK256 PUSH1 0x0 DUP4 DUP2 MSTORE PUSH1 0x20 ADD SWAP1 DUP2 MSTORE PUSH1 0x20 ADD PUSH1 0x0 KECCAK256 PUSH1 0x6 ADD PUSH1 0x14 SWAP1 SLOAD SWAP1 PUSH2 0x100 EXP SWAP1 DIV PUSH1 0xFF AND SWAP1 POP SWAP4 SWAP3 POP POP POP JUMP JUMPDEST DUP2 PUSH1 0x0 DUP1 DUP8 DUP2 MSTORE PUSH1 0x20 ADD SWAP1 DUP2 MSTORE PUSH1 0x20 ADD PUSH1 0x0 KECCAK256 PUSH1 0x0 DUP7 DUP2 MSTORE PUSH1 0x20 ADD SWAP1 DUP2 MSTORE PUSH1 0x20 ADD PUSH1 0x0 KECCAK256 PUSH1 0x0 DUP6 DUP2 MSTORE PUSH1 0x20 ADD SWAP1 DUP2 MSTORE PUSH1 0x20 ADD PUSH1 0x0 KECCAK256 PUSH1 0x3 ADD SWAP1 DUP1 MLOAD SWAP1 PUSH1 0x20 ADD SWAP1 PUSH2 0xB1B SWAP3 SWAP2 SWAP1 PUSH2 0xE24 JUMP JUMPDEST POP DUP1 PUSH1 0x0 DUP1 DUP8 DUP2 MSTORE PUSH1 0x20 ADD SWAP1 DUP2 MSTORE PUSH1 0x20 ADD PUSH1 0x0 KECCAK256 PUSH1 0x0 DUP7 DUP2 MSTORE PUSH1 0x20 ADD SWAP1 DUP2 MSTORE PUSH1 0x20 ADD PUSH1 0x0 KECCAK256 PUSH1 0x0 DUP6 DUP2 MSTORE PUSH1 0x20 ADD SWAP1 DUP2 MSTORE PUSH1 0x20 ADD PUSH1 0x0 KECCAK256 PUSH1 0x4 ADD SWAP1 DUP1 MLOAD SWAP1 PUSH1 0x20 ADD SWAP1 PUSH2 0xB67 SWAP3 SWAP2 SWAP1 PUSH2 0xE24 JUMP JUMPDEST POP POP POP POP POP POP JUMP JUMPDEST PUSH1 0x0 DUP1 PUSH1 0x0 DUP6 DUP2 MSTORE PUSH1 0x20 ADD SWAP1 DUP2 MSTORE PUSH1 0x20 ADD PUSH1 0x0 KECCAK256 PUSH1 0x0 DUP5 DUP2 MSTORE PUSH1 0x20 ADD SWAP1 DUP2 MSTORE PUSH1 0x20 ADD PUSH1 0x0 KECCAK256 PUSH1 0x0 DUP4 DUP2 MSTORE PUSH1 0x20 ADD SWAP1 DUP2 MSTORE PUSH1 0x20 ADD PUSH1 0x0 KECCAK256 PUSH1 0x9 ADD SLOAD SWAP1 POP SWAP4 SWAP3 POP POP POP JUMP JUMPDEST PUSH1 0x1 ISZERO ISZERO PUSH1 0x0 DUP1 DUP11 DUP2 MSTORE PUSH1 0x20 ADD SWAP1 DUP2 MSTORE PUSH1 0x20 ADD PUSH1 0x0 KECCAK256 PUSH1 0x0 DUP10 DUP2 MSTORE PUSH1 0x20 ADD SWAP1 DUP2 MSTORE PUSH1 0x20 ADD PUSH1 0x0 KECCAK256 PUSH1 0x0 DUP9 DUP2 MSTORE PUSH1 0x20 ADD SWAP1 DUP2 MSTORE PUSH1 0x20 ADD PUSH1 0x0 KECCAK256 PUSH1 0xB ADD PUSH1 0x0 SWAP1 SLOAD SWAP1 PUSH2 0x100 EXP SWAP1 DIV PUSH1 0xFF AND ISZERO ISZERO EQ ISZERO PUSH2 0xC3E JUMPI PUSH1 0x40 MLOAD PUSH32 0x8C379A000000000000000000000000000000000000000000000000000000000 DUP2 MSTORE PUSH1 0x4 ADD PUSH2 0xC35 SWAP1 PUSH2 0x1434 JUMP JUMPDEST PUSH1 0x40 MLOAD DUP1 SWAP2 SUB SWAP1 REVERT JUMPDEST PUSH1 0x0 DUP1 PUSH1 0x0 DUP11 DUP2 MSTORE PUSH1 0x20 ADD SWAP1 DUP2 MSTORE PUSH1 0x20 ADD PUSH1 0x0 KECCAK256 PUSH1 0x0 DUP10 DUP2 MSTORE PUSH1 0x20 ADD SWAP1 DUP2 MSTORE PUSH1 0x20 ADD PUSH1 0x0 KECCAK256 PUSH1 0x0 DUP9 DUP2 MSTORE PUSH1 0x20 ADD SWAP1 DUP2 MSTORE PUSH1 0x20 ADD PUSH1 0x0 KECCAK256 SWAP1 POP DUP9 DUP2 PUSH1 0x0 ADD DUP2 SWAP1 SSTORE POP DUP8 DUP2 PUSH1 0x1 ADD DUP2 SWAP1 SSTORE POP DUP7 DUP2 PUSH1 0x2 ADD DUP2 SWAP1 SSTORE POP DUP6 DUP2 PUSH1 0x3 ADD SWAP1 DUP1 MLOAD SWAP1 PUSH1 0x20 ADD SWAP1 PUSH2 0xCA9 SWAP3 SWAP2 SWAP1 PUSH2 0xE24 JUMP JUMPDEST POP DUP5 DUP2 PUSH1 0x4 ADD SWAP1 DUP1 MLOAD SWAP1 PUSH1 0x20 ADD SWAP1 PUSH2 0xCC2 SWAP3 SWAP2 SWAP1 PUSH2 0xE24 JUMP JUMPDEST POP DUP4 DUP2 PUSH1 0x5 ADD PUSH1 0x0 PUSH2 0x100 EXP DUP2 SLOAD DUP2 PUSH20 0xFFFFFFFFFFFFFFFFFFFFFFFFFFFFFFFFFFFFFFFF MUL NOT AND SWAP1 DUP4 PUSH20 0xFFFFFFFFFFFFFFFFFFFFFFFFFFFFFFFFFFFFFFFF AND MUL OR SWAP1 SSTORE POP DUP3 DUP2 PUSH1 0x6 ADD PUSH1 0x0 PUSH2 0x100 EXP DUP2 SLOAD DUP2 PUSH20 0xFFFFFFFFFFFFFFFFFFFFFFFFFFFFFFFFFFFFFFFF MUL NOT AND SWAP1 DUP4 PUSH20 0xFFFFFFFFFFFFFFFFFFFFFFFFFFFFFFFFFFFFFFFF AND MUL OR SWAP1 SSTORE POP PUSH1 0x1 DUP2 PUSH1 0x6 ADD PUSH1 0x14 PUSH2 0x100 EXP DUP2 SLOAD DUP2 PUSH1 0xFF MUL NOT AND SWAP1 DUP4 PUSH1 0x2 DUP2 GT ISZERO PUSH2 0xD71 JUMPI PUSH2 0xD70 PUSH2 0x1727 JUMP JUMPDEST JUMPDEST MUL OR SWAP1 SSTORE POP DUP2 DUP2 PUSH1 0x7 ADD DUP2 SWAP1 SSTORE POP PUSH1 0x0 DUP2 PUSH1 0x8 ADD DUP2 SWAP1 SSTORE POP PUSH1 0x0 DUP2 PUSH1 0x9 ADD DUP2 SWAP1 SSTORE POP PUSH1 0x0 DUP2 PUSH1 0xA ADD DUP2 SWAP1 SSTORE POP PUSH1 0x1 DUP2 PUSH1 0xB ADD PUSH1 0x0 PUSH2 0x100 EXP DUP2 SLOAD DUP2 PUSH1 0xFF MUL NOT AND SWAP1 DUP4 ISZERO ISZERO MUL OR SWAP1 SSTORE POP PUSH1 0x0 DUP2 PUSH1 0xB ADD PUSH1 0x1 PUSH2 0x100 EXP DUP2 SLOAD DUP2 PUSH1 0xFF MUL NOT AND SWAP1 DUP4 PUSH1 0xFF AND MUL OR SWAP1 SSTORE POP PUSH32 0xFA127411522A1139D16C2142DB999E127AEF2288BD98A0558006BB115666AB1B DUP10 DUP10 DUP10 DUP8 DUP8 DUP8 PUSH1 0x40 MLOAD PUSH2 0xE11 SWAP7 SWAP6 SWAP5 SWAP4 SWAP3 SWAP2 SWAP1 PUSH2 0x146F JUMP JUMPDEST PUSH1 0x40 MLOAD DUP1 SWAP2 SUB SWAP1 LOG1 POP POP POP POP POP POP POP POP POP JUMP JUMPDEST DUP3 DUP1 SLOAD PUSH2 0xE30 SWAP1 PUSH2 0x164C JUMP JUMPDEST SWAP1 PUSH1 0x0 MSTORE PUSH1 0x20 PUSH1 0x0 KECCAK256 SWAP1 PUSH1 0x1F ADD PUSH1 0x20 SWAP1 DIV DUP2 ADD SWAP3 DUP3 PUSH2 0xE52 JUMPI PUSH1 0x0 DUP6 SSTORE PUSH2 0xE99 JUMP JUMPDEST DUP3 PUSH1 0x1F LT PUSH2 0xE6B JUMPI DUP1 MLOAD PUSH1 0xFF NOT AND DUP4 DUP1 ADD OR DUP6 SSTORE PUSH2 0xE99 JUMP JUMPDEST DUP3 DUP1 ADD PUSH1 0x1 ADD DUP6 SSTORE DUP3 ISZERO PUSH2 0xE99 JUMPI SWAP2 DUP3 ADD JUMPDEST DUP3 DUP2 GT ISZERO PUSH2 0xE98 JUMPI DUP3 MLOAD DUP3 SSTORE SWAP2 PUSH1 0x20 ADD SWAP2 SWAP1 PUSH1 0x1 ADD SWAP1 PUSH2 0xE7D JUMP JUMPDEST JUMPDEST POP SWAP1 POP PUSH2 0xEA6 SWAP2 SWAP1 PUSH2 0xEAA JUMP JUMPDEST POP SWAP1 JUMP JUMPDEST JUMPDEST DUP1 DUP3 GT ISZERO PUSH2 0xEC3 JUMPI PUSH1 0x0 DUP2 PUSH1 0x0 SWAP1 SSTORE POP PUSH1 0x1 ADD PUSH2 0xEAB JUMP JUMPDEST POP SWAP1 JUMP JUMPDEST PUSH1 0x0 PUSH2 0xEDA PUSH2 0xED5 DUP5 PUSH2 0x158D JUMP JUMPDEST PUSH2 0x1568 JUMP JUMPDEST SWAP1 POP DUP3 DUP2 MSTORE PUSH1 0x20 DUP2 ADD DUP5 DUP5 DUP5 ADD GT ISZERO PUSH2 0xEF6 JUMPI PUSH2 0xEF5 PUSH2 0x17B9 JUMP JUMPDEST JUMPDEST PUSH2 0xF01 DUP5 DUP3 DUP6 PUSH2 0x163D JUMP JUMPDEST POP SWAP4 SWAP3 POP POP POP JUMP JUMPDEST PUSH1 0x0 DUP2 CALLDATALOAD SWAP1 POP PUSH2 0xF18 DUP2 PUSH2 0x1AB1 JUMP JUMPDEST SWAP3 SWAP2 POP POP JUMP JUMPDEST PUSH1 0x0 DUP3 PUSH1 0x1F DUP4 ADD SLT PUSH2 0xF33 JUMPI PUSH2 0xF32 PUSH2 0x17B4 JUMP JUMPDEST JUMPDEST DUP2 CALLDATALOAD PUSH2 0xF43 DUP5 DUP3 PUSH1 0x20 DUP7 ADD PUSH2 0xEC7 JUMP JUMPDEST SWAP2 POP POP SWAP3 SWAP2 POP POP JUMP JUMPDEST PUSH1 0x0 DUP2 CALLDATALOAD SWAP1 POP PUSH2 0xF5B DUP2 PUSH2 0x1AC8 JUMP JUMPDEST SWAP3 SWAP2 POP POP JUMP JUMPDEST PUSH1 0x0 DUP2 CALLDATALOAD SWAP1 POP PUSH2 0xF70 DUP2 PUSH2 0x1ADF JUMP JUMPDEST SWAP3 SWAP2 POP POP JUMP JUMPDEST PUSH1 0x0 DUP1 PUSH1 0x0 PUSH1 0x60 DUP5 DUP7 SUB SLT ISZERO PUSH2 0xF8F JUMPI PUSH2 0xF8E PUSH2 0x17C3 JUMP JUMPDEST JUMPDEST PUSH1 0x0 PUSH2 0xF9D DUP7 DUP3 DUP8 ADD PUSH2 0xF4C JUMP JUMPDEST SWAP4 POP POP PUSH1 0x20 PUSH2 0xFAE DUP7 DUP3 DUP8 ADD PUSH2 0xF4C JUMP JUMPDEST SWAP3 POP POP PUSH1 0x40 PUSH2 0xFBF DUP7 DUP3 DUP8 ADD PUSH2 0xF4C JUMP JUMPDEST SWAP2 POP POP SWAP3 POP SWAP3 POP SWAP3 JUMP JUMPDEST PUSH1 0x0 DUP1 PUSH1 0x0 DUP1 PUSH1 0x0 PUSH1 0xA0 DUP7 DUP9 SUB SLT ISZERO PUSH2 0xFE5 JUMPI PUSH2 0xFE4 PUSH2 0x17C3 JUMP JUMPDEST JUMPDEST PUSH1 0x0 PUSH2 0xFF3 DUP9 DUP3 DUP10 ADD PUSH2 0xF4C JUMP JUMPDEST SWAP6 POP POP PUSH1 0x20 PUSH2 0x1004 DUP9 DUP3 DUP10 ADD PUSH2 0xF4C JUMP JUMPDEST SWAP5 POP POP PUSH1 0x40 PUSH2 0x1015 DUP9 DUP3 DUP10 ADD PUSH2 0xF4C JUMP JUMPDEST SWAP4 POP POP PUSH1 0x60 PUSH2 0x1026 DUP9 DUP3 DUP10 ADD PUSH2 0xF09 JUMP JUMPDEST SWAP3 POP POP PUSH1 0x80 PUSH2 0x1037 DUP9 DUP3 DUP10 ADD PUSH2 0xF61 JUMP JUMPDEST SWAP2 POP POP SWAP3 SWAP6 POP SWAP3 SWAP6 SWAP1 SWAP4 POP JUMP JUMPDEST PUSH1 0x0 DUP1 PUSH1 0x0 DUP1 PUSH1 0x0 PUSH1 0xA0 DUP7 DUP9 SUB SLT ISZERO PUSH2 0x1060 JUMPI PUSH2 0x105F PUSH2 0x17C3 JUMP JUMPDEST JUMPDEST PUSH1 0x0 PUSH2 0x106E DUP9 DUP3 DUP10 ADD PUSH2 0xF4C JUMP JUMPDEST SWAP6 POP POP PUSH1 0x20 PUSH2 0x107F DUP9 DUP3 DUP10 ADD PUSH2 0xF4C JUMP JUMPDEST SWAP5 POP POP PUSH1 0x40 PUSH2 0x1090 DUP9 DUP3 DUP10 ADD PUSH2 0xF4C JUMP JUMPDEST SWAP4 POP POP PUSH1 0x60 DUP7 ADD CALLDATALOAD PUSH8 0xFFFFFFFFFFFFFFFF DUP2 GT ISZERO PUSH2 0x10B1 JUMPI PUSH2 0x10B0 PUSH2 0x17BE JUMP JUMPDEST JUMPDEST PUSH2 0x10BD DUP9 DUP3 DUP10 ADD PUSH2 0xF1E JUMP JUMPDEST SWAP3 POP POP PUSH1 0x80 DUP7 ADD CALLDATALOAD PUSH8 0xFFFFFFFFFFFFFFFF DUP2 GT ISZERO PUSH2 0x10DE JUMPI PUSH2 0x10DD PUSH2 0x17BE JUMP JUMPDEST JUMPDEST PUSH2 0x10EA DUP9 DUP3 DUP10 ADD PUSH2 0xF1E JUMP JUMPDEST SWAP2 POP POP SWAP3 SWAP6 POP SWAP3 SWAP6 SWAP1 SWAP4 POP JUMP JUMPDEST PUSH1 0x0 DUP1 PUSH1 0x0 DUP1 PUSH1 0x0 DUP1 PUSH1 0x0 DUP1 PUSH2 0x100 DUP10 DUP12 SUB SLT ISZERO PUSH2 0x1118 JUMPI PUSH2 0x1117 PUSH2 0x17C3 JUMP JUMPDEST JUMPDEST PUSH1 0x0 PUSH2 0x1126 DUP12 DUP3 DUP13 ADD PUSH2 0xF4C JUMP JUMPDEST SWAP9 POP POP PUSH1 0x20 PUSH2 0x1137 DUP12 DUP3 DUP13 ADD PUSH2 0xF4C JUMP JUMPDEST SWAP8 POP POP PUSH1 0x40 PUSH2 0x1148 DUP12 DUP3 DUP13 ADD PUSH2 0xF4C JUMP JUMPDEST SWAP7 POP POP PUSH1 0x60 DUP10 ADD CALLDATALOAD PUSH8 0xFFFFFFFFFFFFFFFF DUP2 GT ISZERO PUSH2 0x1169 JUMPI PUSH2 0x1168 PUSH2 0x17BE JUMP JUMPDEST JUMPDEST PUSH2 0x1175 DUP12 DUP3 DUP13 ADD PUSH2 0xF1E JUMP JUMPDEST SWAP6 POP POP PUSH1 0x80 DUP10 ADD CALLDATALOAD PUSH8 0xFFFFFFFFFFFFFFFF DUP2 GT ISZERO PUSH2 0x1196 JUMPI PUSH2 0x1195 PUSH2 0x17BE JUMP JUMPDEST JUMPDEST PUSH2 0x11A2 DUP12 DUP3 DUP13 ADD PUSH2 0xF1E JUMP JUMPDEST SWAP5 POP POP PUSH1 0xA0 PUSH2 0x11B3 DUP12 DUP3 DUP13 ADD PUSH2 0xF09 JUMP JUMPDEST SWAP4 POP POP PUSH1 0xC0 PUSH2 0x11C4 DUP12 DUP3 DUP13 ADD PUSH2 0xF09 JUMP JUMPDEST SWAP3 POP POP PUSH1 0xE0 PUSH2 0x11D5 DUP12 DUP3 DUP13 ADD PUSH2 0xF4C JUMP JUMPDEST SWAP2 POP POP SWAP3 SWAP6 SWAP9 POP SWAP3 SWAP6 SWAP9 SWAP1 SWAP4 SWAP7 POP JUMP JUMPDEST PUSH2 0x11EE DUP2 PUSH2 0x15CF JUMP JUMPDEST DUP3 MSTORE POP POP JUMP JUMPDEST PUSH2 0x11FD DUP2 PUSH2 0x162B JUMP JUMPDEST DUP3 MSTORE POP POP JUMP JUMPDEST PUSH1 0x0 PUSH2 0x1210 PUSH1 0x57 DUP4 PUSH2 0x15BE JUMP JUMPDEST SWAP2 POP PUSH2 0x121B DUP3 PUSH2 0x17D9 JUMP JUMPDEST PUSH1 0x60 DUP3 ADD SWAP1 POP SWAP2 SWAP1 POP JUMP JUMPDEST PUSH1 0x0 PUSH2 0x1233 PUSH1 0x2D DUP4 PUSH2 0x15BE JUMP JUMPDEST SWAP2 POP PUSH2 0x123E DUP3 PUSH2 0x184E JUMP JUMPDEST PUSH1 0x40 DUP3 ADD SWAP1 POP SWAP2 SWAP1 POP JUMP JUMPDEST PUSH1 0x0 PUSH2 0x1256 PUSH1 0x30 DUP4 PUSH2 0x15BE JUMP JUMPDEST SWAP2 POP PUSH2 0x1261 DUP3 PUSH2 0x189D JUMP JUMPDEST PUSH1 0x40 DUP3 ADD SWAP1 POP SWAP2 SWAP1 POP JUMP JUMPDEST PUSH1 0x0 PUSH2 0x1279 PUSH1 0x3D DUP4 PUSH2 0x15BE JUMP JUMPDEST SWAP2 POP PUSH2 0x1284 DUP3 PUSH2 0x18EC JUMP JUMPDEST PUSH1 0x40 DUP3 ADD SWAP1 POP SWAP2 SWAP1 POP JUMP JUMPDEST PUSH1 0x0 PUSH2 0x129C PUSH1 0x4A DUP4 PUSH2 0x15BE JUMP JUMPDEST SWAP2 POP PUSH2 0x12A7 DUP3 PUSH2 0x193B JUMP JUMPDEST PUSH1 0x60 DUP3 ADD SWAP1 POP SWAP2 SWAP1 POP JUMP JUMPDEST PUSH1 0x0 PUSH2 0x12BF PUSH1 0x39 DUP4 PUSH2 0x15BE JUMP JUMPDEST SWAP2 POP PUSH2 0x12CA DUP3 PUSH2 0x19B0 JUMP JUMPDEST PUSH1 0x40 DUP3 ADD SWAP1 POP SWAP2 SWAP1 POP JUMP JUMPDEST PUSH1 0x0 PUSH2 0x12E2 PUSH1 0x20 DUP4 PUSH2 0x15BE JUMP JUMPDEST SWAP2 POP PUSH2 0x12ED DUP3 PUSH2 0x19FF JUMP JUMPDEST PUSH1 0x20 DUP3 ADD SWAP1 POP SWAP2 SWAP1 POP JUMP JUMPDEST PUSH1 0x0 PUSH2 0x1305 PUSH1 0x4D DUP4 PUSH2 0x15BE JUMP JUMPDEST SWAP2 POP PUSH2 0x1310 DUP3 PUSH2 0x1A28 JUMP JUMPDEST PUSH1 0x60 DUP3 ADD SWAP1 POP SWAP2 SWAP1 POP JUMP JUMPDEST PUSH2 0x1324 DUP2 PUSH2 0x1614 JUMP JUMPDEST DUP3 MSTORE POP POP JUMP JUMPDEST PUSH2 0x1333 DUP2 PUSH2 0x161E JUMP JUMPDEST DUP3 MSTORE POP POP JUMP JUMPDEST PUSH1 0x0 PUSH1 0x20 DUP3 ADD SWAP1 POP PUSH2 0x134E PUSH1 0x0 DUP4 ADD DUP5 PUSH2 0x11F4 JUMP JUMPDEST SWAP3 SWAP2 POP POP JUMP JUMPDEST PUSH1 0x0 PUSH1 0x20 DUP3 ADD SWAP1 POP DUP2 DUP2 SUB PUSH1 0x0 DUP4 ADD MSTORE PUSH2 0x136D DUP2 PUSH2 0x1203 JUMP JUMPDEST SWAP1 POP SWAP2 SWAP1 POP JUMP JUMPDEST PUSH1 0x0 PUSH1 0x20 DUP3 ADD SWAP1 POP DUP2 DUP2 SUB PUSH1 0x0 DUP4 ADD MSTORE PUSH2 0x138D DUP2 PUSH2 0x1226 JUMP JUMPDEST SWAP1 POP SWAP2 SWAP1 POP JUMP JUMPDEST PUSH1 0x0 PUSH1 0x20 DUP3 ADD SWAP1 POP DUP2 DUP2 SUB PUSH1 0x0 DUP4 ADD MSTORE PUSH2 0x13AD DUP2 PUSH2 0x1249 JUMP JUMPDEST SWAP1 POP SWAP2 SWAP1 POP JUMP JUMPDEST PUSH1 0x0 PUSH1 0x20 DUP3 ADD SWAP1 POP DUP2 DUP2 SUB PUSH1 0x0 DUP4 ADD MSTORE PUSH2 0x13CD DUP2 PUSH2 0x126C JUMP JUMPDEST SWAP1 POP SWAP2 SWAP1 POP JUMP JUMPDEST PUSH1 0x0 PUSH1 0x20 DUP3 ADD SWAP1 POP DUP2 DUP2 SUB PUSH1 0x0 DUP4 ADD MSTORE PUSH2 0x13ED DUP2 PUSH2 0x128F JUMP JUMPDEST SWAP1 POP SWAP2 SWAP1 POP JUMP JUMPDEST PUSH1 0x0 PUSH1 0x20 DUP3 ADD SWAP1 POP DUP2 DUP2 SUB PUSH1 0x0 DUP4 ADD MSTORE PUSH2 0x140D DUP2 PUSH2 0x12B2 JUMP JUMPDEST SWAP1 POP SWAP2 SWAP1 POP JUMP JUMPDEST PUSH1 0x0 PUSH1 0x20 DUP3 ADD SWAP1 POP DUP2 DUP2 SUB PUSH1 0x0 DUP4 ADD MSTORE PUSH2 0x142D DUP2 PUSH2 0x12D5 JUMP JUMPDEST SWAP1 POP SWAP2 SWAP1 POP JUMP JUMPDEST PUSH1 0x0 PUSH1 0x20 DUP3 ADD SWAP1 POP DUP2 DUP2 SUB PUSH1 0x0 DUP4 ADD MSTORE PUSH2 0x144D DUP2 PUSH2 0x12F8 JUMP JUMPDEST SWAP1 POP SWAP2 SWAP1 POP JUMP JUMPDEST PUSH1 0x0 PUSH1 0x20 DUP3 ADD SWAP1 POP PUSH2 0x1469 PUSH1 0x0 DUP4 ADD DUP5 PUSH2 0x131B JUMP JUMPDEST SWAP3 SWAP2 POP POP JUMP JUMPDEST PUSH1 0x0 PUSH1 0xC0 DUP3 ADD SWAP1 POP PUSH2 0x1484 PUSH1 0x0 DUP4 ADD DUP10 PUSH2 0x131B JUMP JUMPDEST PUSH2 0x1491 PUSH1 0x20 DUP4 ADD DUP9 PUSH2 0x131B JUMP JUMPDEST PUSH2 0x149E PUSH1 0x40 DUP4 ADD DUP8 PUSH2 0x131B JUMP JUMPDEST PUSH2 0x14AB PUSH1 0x60 DUP4 ADD DUP7 PUSH2 0x11E5 JUMP JUMPDEST PUSH2 0x14B8 PUSH1 0x80 DUP4 ADD DUP6 PUSH2 0x11E5 JUMP JUMPDEST PUSH2 0x14C5 PUSH1 0xA0 DUP4 ADD DUP5 PUSH2 0x131B JUMP JUMPDEST SWAP8 SWAP7 POP POP POP POP POP POP POP JUMP JUMPDEST PUSH1 0x0 PUSH1 0xA0 DUP3 ADD SWAP1 POP PUSH2 0x14E5 PUSH1 0x0 DUP4 ADD DUP9 PUSH2 0x131B JUMP JUMPDEST PUSH2 0x14F2 PUSH1 0x20 DUP4 ADD DUP8 PUSH2 0x131B JUMP JUMPDEST PUSH2 0x14FF PUSH1 0x40 DUP4 ADD DUP7 PUSH2 0x131B JUMP JUMPDEST PUSH2 0x150C PUSH1 0x60 DUP4 ADD DUP6 PUSH2 0x11E5 JUMP JUMPDEST PUSH2 0x1519 PUSH1 0x80 DUP4 ADD DUP5 PUSH2 0x132A JUMP JUMPDEST SWAP7 SWAP6 POP POP POP POP POP POP JUMP JUMPDEST PUSH1 0x0 PUSH1 0x80 DUP3 ADD SWAP1 POP PUSH2 0x1538 PUSH1 0x0 DUP4 ADD DUP8 PUSH2 0x131B JUMP JUMPDEST PUSH2 0x1545 PUSH1 0x20 DUP4 ADD DUP7 PUSH2 0x131B JUMP JUMPDEST PUSH2 0x1552 PUSH1 0x40 DUP4 ADD DUP6 PUSH2 0x131B JUMP JUMPDEST PUSH2 0x155F PUSH1 0x60 DUP4 ADD DUP5 PUSH2 0x132A JUMP JUMPDEST SWAP6 SWAP5 POP POP POP POP POP JUMP JUMPDEST PUSH1 0x0 PUSH2 0x1572 PUSH2 0x1583 JUMP JUMPDEST SWAP1 POP PUSH2 0x157E DUP3 DUP3 PUSH2 0x167E JUMP JUMPDEST SWAP2 SWAP1 POP JUMP JUMPDEST PUSH1 0x0 PUSH1 0x40 MLOAD SWAP1 POP SWAP1 JUMP JUMPDEST PUSH1 0x0 PUSH8 0xFFFFFFFFFFFFFFFF DUP3 GT ISZERO PUSH2 0x15A8 JUMPI PUSH2 0x15A7 PUSH2 0x1785 JUMP JUMPDEST JUMPDEST PUSH2 0x15B1 DUP3 PUSH2 0x17C8 JUMP JUMPDEST SWAP1 POP PUSH1 0x20 DUP2 ADD SWAP1 POP SWAP2 SWAP1 POP JUMP JUMPDEST PUSH1 0x0 DUP3 DUP3 MSTORE PUSH1 0x20 DUP3 ADD SWAP1 POP SWAP3 SWAP2 POP POP JUMP JUMPDEST PUSH1 0x0 PUSH2 0x15DA DUP3 PUSH2 0x15F4 JUMP JUMPDEST SWAP1 POP SWAP2 SWAP1 POP JUMP JUMPDEST PUSH1 0x0 DUP2 SWAP1 POP PUSH2 0x15EF DUP3 PUSH2 0x1A9D JUMP JUMPDEST SWAP2 SWAP1 POP JUMP JUMPDEST PUSH1 0x0 PUSH20 0xFFFFFFFFFFFFFFFFFFFFFFFFFFFFFFFFFFFFFFFF DUP3 AND SWAP1 POP SWAP2 SWAP1 POP JUMP JUMPDEST PUSH1 0x0 DUP2 SWAP1 POP SWAP2 SWAP1 POP JUMP JUMPDEST PUSH1 0x0 PUSH1 0xFF DUP3 AND SWAP1 POP SWAP2 SWAP1 POP JUMP JUMPDEST PUSH1 0x0 PUSH2 0x1636 DUP3 PUSH2 0x15E1 JUMP JUMPDEST SWAP1 POP SWAP2 SWAP1 POP JUMP JUMPDEST DUP3 DUP2 DUP4 CALLDATACOPY PUSH1 0x0 DUP4 DUP4 ADD MSTORE POP POP POP JUMP JUMPDEST PUSH1 0x0 PUSH1 0x2 DUP3 DIV SWAP1 POP PUSH1 0x1 DUP3 AND DUP1 PUSH2 0x1664 JUMPI PUSH1 0x7F DUP3 AND SWAP2 POP JUMPDEST PUSH1 0x20 DUP3 LT DUP2 EQ ISZERO PUSH2 0x1678 JUMPI PUSH2 0x1677 PUSH2 0x1756 JUMP JUMPDEST JUMPDEST POP SWAP2 SWAP1 POP JUMP JUMPDEST PUSH2 0x1687 DUP3 PUSH2 0x17C8 JUMP JUMPDEST DUP2 ADD DUP2 DUP2 LT PUSH8 0xFFFFFFFFFFFFFFFF DUP3 GT OR ISZERO PUSH2 0x16A6 JUMPI PUSH2 0x16A5 PUSH2 0x1785 JUMP JUMPDEST JUMPDEST DUP1 PUSH1 0x40 MSTORE POP POP POP JUMP JUMPDEST PUSH1 0x0 PUSH2 0x16BA DUP3 PUSH2 0x1614 JUMP JUMPDEST SWAP2 POP PUSH32 0xFFFFFFFFFFFFFFFFFFFFFFFFFFFFFFFFFFFFFFFFFFFFFFFFFFFFFFFFFFFFFFFF DUP3 EQ ISZERO PUSH2 0x16ED JUMPI PUSH2 0x16EC PUSH2 0x16F8 JUMP JUMPDEST JUMPDEST PUSH1 0x1 DUP3 ADD SWAP1 POP SWAP2 SWAP1 POP JUMP JUMPDEST PUSH32 0x4E487B7100000000000000000000000000000000000000000000000000000000 PUSH1 0x0 MSTORE PUSH1 0x11 PUSH1 0x4 MSTORE PUSH1 0x24 PUSH1 0x0 REVERT JUMPDEST PUSH32 0x4E487B7100000000000000000000000000000000000000000000000000000000 PUSH1 0x0 MSTORE PUSH1 0x21 PUSH1 0x4 MSTORE PUSH1 0x24 PUSH1 0x0 REVERT JUMPDEST PUSH32 0x4E487B7100000000000000000000000000000000000000000000000000000000 PUSH1 0x0 MSTORE PUSH1 0x22 PUSH1 0x4 MSTORE PUSH1 0x24 PUSH1 0x0 REVERT JUMPDEST PUSH32 0x4E487B7100000000000000000000000000000000000000000000000000000000 PUSH1 0x0 MSTORE PUSH1 0x41 PUSH1 0x4 MSTORE PUSH1 0x24 PUSH1 0x0 REVERT JUMPDEST PUSH1 0x0 DUP1 REVERT JUMPDEST PUSH1 0x0 DUP1 REVERT JUMPDEST PUSH1 0x0 DUP1 REVERT JUMPDEST PUSH1 0x0 DUP1 REVERT JUMPDEST PUSH1 0x0 PUSH1 0x1F NOT PUSH1 0x1F DUP4 ADD AND SWAP1 POP SWAP2 SWAP1 POP JUMP JUMPDEST PUSH32 0x596F752068617665206E6F7420696E707574206120726967687420766F74652E PUSH1 0x0 DUP3 ADD MSTORE PUSH32 0x20596F752063616E2065697468657220766F7465203120666F72205265717565 PUSH1 0x20 DUP3 ADD MSTORE PUSH32 0x73746572206F72203220666F722050726F76696465722E000000000000000000 PUSH1 0x40 DUP3 ADD MSTORE POP JUMP JUMPDEST PUSH32 0x596F75206861766520616C726561647920766F7465642C20796F752063616E6E PUSH1 0x0 DUP3 ADD MSTORE PUSH32 0x6F7420766F746520616761696E00000000000000000000000000000000000000 PUSH1 0x20 DUP3 ADD MSTORE POP JUMP JUMPDEST PUSH32 0x596F7520726169736564207468697320636F6E666C6963742E20596F75206361 PUSH1 0x0 DUP3 ADD MSTORE PUSH32 0x6E6E6F7420766F7465206F6E2069742E00000000000000000000000000000000 PUSH1 0x20 DUP3 ADD MSTORE POP JUMP JUMPDEST PUSH32 0x566F74696E6720686173206E6F74206265656E20636F6D706C65746564207965 PUSH1 0x0 DUP3 ADD MSTORE PUSH32 0x742E20506C65617365207761697420666F7220697420746F20656E642E000000 PUSH1 0x20 DUP3 ADD MSTORE POP JUMP JUMPDEST PUSH32 0x4E6F742065766572796F6E652068617320766F7465642C20706C656173652070 PUSH1 0x0 DUP3 ADD MSTORE PUSH32 0x726F6D707420616C6C206F74686572206D656D62657273206F662070726F6A65 PUSH1 0x20 DUP3 ADD MSTORE PUSH32 0x637420746F20766F746500000000000000000000000000000000000000000000 PUSH1 0x40 DUP3 ADD MSTORE POP JUMP JUMPDEST PUSH32 0x596F752061726520696E766F6C76656420696E207468697320636F6E666C6963 PUSH1 0x0 DUP3 ADD MSTORE PUSH32 0x742E20596F752063616E6E6F7420766F7465206F6E2069742E00000000000000 PUSH1 0x20 DUP3 ADD MSTORE POP JUMP JUMPDEST PUSH32 0x456E6F75676820766F7465732068617665206265656E20636F6C6C6563746564 PUSH1 0x0 DUP3 ADD MSTORE POP JUMP JUMPDEST PUSH32 0x436F6E666C6963742068617320616C7265616479206265656E20637265617465 PUSH1 0x0 DUP3 ADD MSTORE PUSH32 0x642E20506C6561736520646F206E6F7420637265617465206D6F726520746861 PUSH1 0x20 DUP3 ADD MSTORE PUSH32 0x6E203120636F6E666C6963742E00000000000000000000000000000000000000 PUSH1 0x40 DUP3 ADD MSTORE POP JUMP JUMPDEST PUSH1 0x3 DUP2 LT PUSH2 0x1AAE JUMPI PUSH2 0x1AAD PUSH2 0x1727 JUMP JUMPDEST JUMPDEST POP JUMP JUMPDEST PUSH2 0x1ABA DUP2 PUSH2 0x15CF JUMP JUMPDEST DUP2 EQ PUSH2 0x1AC5 JUMPI PUSH1 0x0 DUP1 REVERT JUMPDEST POP JUMP JUMPDEST PUSH2 0x1AD1 DUP2 PUSH2 0x1614 JUMP JUMPDEST DUP2 EQ PUSH2 0x1ADC JUMPI PUSH1 0x0 DUP1 REVERT JUMPDEST POP JUMP JUMPDEST PUSH2 0x1AE8 DUP2 PUSH2 0x161E JUMP JUMPDEST DUP2 EQ PUSH2 0x1AF3 JUMPI PUSH1 0x0 DUP1 REVERT JUMPDEST POP JUMP INVALID LOG2 PUSH5 0x6970667358 0x22 SLT KECCAK256 0x23 CALLDATASIZE LOG3 0xC1 0xB1 PUSH4 0xA309822D MSTORE8 BLOCKHASH SWAP6 PUSH13 0x4DD940FC9BFE70F7B369E1AAA3 PUSH7 0x2E6DDD1064736F PUSH13 0x63430008070033000000000000 "
				},
				"gasEstimates": {
					"creation": {
						"codeDepositCost": "1391200",
						"executionCost": "1451",
						"totalCost": "1392651"
					},
					"external": {
						"createConflict(uint256,uint256,uint256,string,string,address,address,uint256)": "infinite",
						"deleteConflict(uint256,uint256,uint256)": "infinite",
						"getConflictStatus(uint256,uint256,uint256)": "infinite",
						"getResults(uint256,uint256,uint256)": "infinite",
						"getVotesCollected(uint256,uint256,uint256)": "infinite",
						"getVotesforProvider(uint256,uint256,uint256)": "infinite",
						"getVotesforRequester(uint256,uint256,uint256)": "infinite",
						"readConflictStatus(uint256,uint256,uint256)": "infinite",
						"updateConflict(uint256,uint256,uint256,string,string)": "infinite",
						"voteConflict(uint256,uint256,uint256,address,uint8)": "infinite"
					}
				},
				"methodIdentifiers": {
					"createConflict(uint256,uint256,uint256,string,string,address,address,uint256)": "e62fac27",
					"deleteConflict(uint256,uint256,uint256)": "003f489f",
					"getConflictStatus(uint256,uint256,uint256)": "cb4389ce",
					"getResults(uint256,uint256,uint256)": "0366cef2",
					"getVotesCollected(uint256,uint256,uint256)": "3c45fe31",
					"getVotesforProvider(uint256,uint256,uint256)": "9ac78879",
					"getVotesforRequester(uint256,uint256,uint256)": "e3d87718",
					"readConflictStatus(uint256,uint256,uint256)": "c559b16b",
					"updateConflict(uint256,uint256,uint256,string,string)": "d1e992a7",
					"voteConflict(uint256,uint256,uint256,address,uint8)": "c171bdf7"
				}
			},
			"userdoc": {
				"kind": "user",
				"methods": {},
				"version": 1
			}
		}
	}
}