{
	"contracts/Profile.sol": {
		"Profile": {
			"abi": [
				{
					"anonymous": false,
					"inputs": [
						{
							"indexed": false,
							"internalType": "string",
							"name": "name",
							"type": "string"
						}
					],
					"name": "profileCreated",
					"type": "event"
				},
				{
					"anonymous": false,
					"inputs": [
						{
							"indexed": false,
							"internalType": "bool",
							"name": "successful",
							"type": "bool"
						}
					],
					"name": "serviceCreated",
					"type": "event"
				},
				{
					"inputs": [],
					"name": "checkValidProfile",
					"outputs": [
						{
							"internalType": "bool",
							"name": "",
							"type": "bool"
						}
					],
					"stateMutability": "view",
					"type": "function"
				},
				{
					"inputs": [
						{
							"internalType": "string",
							"name": "name",
							"type": "string"
						},
						{
							"internalType": "string",
							"name": "username",
							"type": "string"
						},
						{
							"internalType": "string",
							"name": "password",
							"type": "string"
						},
						{
							"internalType": "address",
							"name": "user",
							"type": "address"
						}
					],
					"name": "createProfile",
					"outputs": [],
					"stateMutability": "nonpayable",
					"type": "function"
				},
				{
					"inputs": [],
					"name": "deleteProfile",
					"outputs": [],
					"stateMutability": "nonpayable",
					"type": "function"
				},
				{
					"inputs": [],
					"name": "getName",
					"outputs": [
						{
							"internalType": "string",
							"name": "",
							"type": "string"
						}
					],
					"stateMutability": "view",
					"type": "function"
				},
				{
					"inputs": [],
					"name": "numProfile",
					"outputs": [
						{
							"internalType": "uint256",
							"name": "",
							"type": "uint256"
						}
					],
					"stateMutability": "view",
					"type": "function"
				},
				{
					"inputs": [
						{
							"internalType": "string",
							"name": "newName",
							"type": "string"
						}
					],
					"name": "updateProfileName",
					"outputs": [],
					"stateMutability": "nonpayable",
					"type": "function"
				}
			],
			"devdoc": {
				"kind": "dev",
				"methods": {},
				"version": 1
			},
			"evm": {
				"assembly": "    /* \"contracts/Profile.sol\":124:2283  contract Profile {... */\n  mstore(0x40, 0x80)\n    /* \"contracts/Profile.sol\":890:891  0 */\n  0x00\n    /* \"contracts/Profile.sol\":862:891  uint256 public numProfile = 0 */\n  0x03\n  sstore\n    /* \"contracts/Profile.sol\":124:2283  contract Profile {... */\n  callvalue\n  dup1\n  iszero\n  tag_1\n  jumpi\n  0x00\n  dup1\n  revert\ntag_1:\n  pop\n  dataSize(sub_0)\n  dup1\n  dataOffset(sub_0)\n  0x00\n  codecopy\n  0x00\n  return\nstop\n\nsub_0: assembly {\n        /* \"contracts/Profile.sol\":124:2283  contract Profile {... */\n      mstore(0x40, 0x80)\n      callvalue\n      dup1\n      iszero\n      tag_1\n      jumpi\n      0x00\n      dup1\n      revert\n    tag_1:\n      pop\n      jumpi(tag_2, lt(calldatasize, 0x04))\n      shr(0xe0, calldataload(0x00))\n      dup1\n      0x16913469\n      eq\n      tag_3\n      jumpi\n      dup1\n      0x17d7de7c\n      eq\n      tag_4\n      jumpi\n      dup1\n      0x22a9d1bc\n      eq\n      tag_5\n      jumpi\n      dup1\n      0x3ae7dc1a\n      eq\n      tag_6\n      jumpi\n      dup1\n      0x6d4540eb\n      eq\n      tag_7\n      jumpi\n      dup1\n      0xee8b7cd9\n      eq\n      tag_8\n      jumpi\n    tag_2:\n      0x00\n      dup1\n      revert\n        /* \"contracts/Profile.sol\":862:891  uint256 public numProfile = 0 */\n    tag_3:\n      tag_9\n      tag_10\n      jump\t// in\n    tag_9:\n      mload(0x40)\n      tag_11\n      swap2\n      swap1\n      tag_12\n      jump\t// in\n    tag_11:\n      mload(0x40)\n      dup1\n      swap2\n      sub\n      swap1\n      return\n        /* \"contracts/Profile.sol\":1970:2095  function getName() external validProfile() view returns ( string memory) {... */\n    tag_4:\n      tag_13\n      tag_14\n      jump\t// in\n    tag_13:\n      mload(0x40)\n      tag_15\n      swap2\n      swap1\n      tag_16\n      jump\t// in\n    tag_15:\n      mload(0x40)\n      dup1\n      swap2\n      sub\n      swap1\n      return\n        /* \"contracts/Profile.sol\":989:1301  function createProfile(string memory name, string memory username, string memory password, address user) external {... */\n    tag_5:\n      tag_17\n      0x04\n      dup1\n      calldatasize\n      sub\n      dup2\n      add\n      swap1\n      tag_18\n      swap2\n      swap1\n      tag_19\n      jump\t// in\n    tag_18:\n      tag_20\n      jump\t// in\n    tag_17:\n      stop\n        /* \"contracts/Profile.sol\":2154:2280  function checkValidProfile() public view returns (bool) {... */\n    tag_6:\n      tag_21\n      tag_22\n      jump\t// in\n    tag_21:\n      mload(0x40)\n      tag_23\n      swap2\n      swap1\n      tag_24\n      jump\t// in\n    tag_23:\n      mload(0x40)\n      dup1\n      swap2\n      sub\n      swap1\n      return\n        /* \"contracts/Profile.sol\":1348:1453  function deleteProfile() external {... */\n    tag_7:\n      tag_25\n      tag_26\n      jump\t// in\n    tag_25:\n      stop\n        /* \"contracts/Profile.sol\":1500:1615  function updateProfileName(string memory newName) external {... */\n    tag_8:\n      tag_27\n      0x04\n      dup1\n      calldatasize\n      sub\n      dup2\n      add\n      swap1\n      tag_28\n      swap2\n      swap1\n      tag_29\n      jump\t// in\n    tag_28:\n      tag_30\n      jump\t// in\n    tag_27:\n      stop\n        /* \"contracts/Profile.sol\":862:891  uint256 public numProfile = 0 */\n    tag_10:\n      sload(0x03)\n      dup2\n      jump\t// out\n        /* \"contracts/Profile.sol\":1970:2095  function getName() external validProfile() view returns ( string memory) {... */\n    tag_14:\n        /* \"contracts/Profile.sol\":2028:2041  string memory */\n      0x60\n        /* \"contracts/Profile.sol\":1698:1702  true */\n      0x01\n        /* \"contracts/Profile.sol\":1663:1702  profileList[msg.sender].created == true */\n      iszero\n      iszero\n        /* \"contracts/Profile.sol\":1663:1674  profileList */\n      0x00\n        /* \"contracts/Profile.sol\":1663:1686  profileList[msg.sender] */\n      dup1\n        /* \"contracts/Profile.sol\":1675:1685  msg.sender */\n      caller\n        /* \"contracts/Profile.sol\":1663:1686  profileList[msg.sender] */\n      0xffffffffffffffffffffffffffffffffffffffff\n      and\n      0xffffffffffffffffffffffffffffffffffffffff\n      and\n      dup2\n      mstore\n      0x20\n      add\n      swap1\n      dup2\n      mstore\n      0x20\n      add\n      0x00\n      keccak256\n        /* \"contracts/Profile.sol\":1663:1694  profileList[msg.sender].created */\n      0x03\n      add\n      0x14\n      swap1\n      sload\n      swap1\n      0x0100\n      exp\n      swap1\n      div\n      0xff\n      and\n        /* \"contracts/Profile.sol\":1663:1702  profileList[msg.sender].created == true */\n      iszero\n      iszero\n      eq\n        /* \"contracts/Profile.sol\":1655:1703  require(profileList[msg.sender].created == true) */\n      tag_32\n      jumpi\n      0x00\n      dup1\n      revert\n    tag_32:\n        /* \"contracts/Profile.sol\":2060:2071  profileList */\n      0x00\n        /* \"contracts/Profile.sol\":2060:2083  profileList[msg.sender] */\n      dup1\n        /* \"contracts/Profile.sol\":2072:2082  msg.sender */\n      caller\n        /* \"contracts/Profile.sol\":2060:2083  profileList[msg.sender] */\n      0xffffffffffffffffffffffffffffffffffffffff\n      and\n      0xffffffffffffffffffffffffffffffffffffffff\n      and\n      dup2\n      mstore\n      0x20\n      add\n      swap1\n      dup2\n      mstore\n      0x20\n      add\n      0x00\n      keccak256\n        /* \"contracts/Profile.sol\":2060:2088  profileList[msg.sender].name */\n      0x00\n      add\n        /* \"contracts/Profile.sol\":2053:2088  return profileList[msg.sender].name */\n      dup1\n      sload\n      tag_34\n      swap1\n      tag_35\n      jump\t// in\n    tag_34:\n      dup1\n      0x1f\n      add\n      0x20\n      dup1\n      swap2\n      div\n      mul\n      0x20\n      add\n      mload(0x40)\n      swap1\n      dup2\n      add\n      0x40\n      mstore\n      dup1\n      swap3\n      swap2\n      swap1\n      dup2\n      dup2\n      mstore\n      0x20\n      add\n      dup3\n      dup1\n      sload\n      tag_36\n      swap1\n      tag_35\n      jump\t// in\n    tag_36:\n      dup1\n      iszero\n      tag_37\n      jumpi\n      dup1\n      0x1f\n      lt\n      tag_38\n      jumpi\n      0x0100\n      dup1\n      dup4\n      sload\n      div\n      mul\n      dup4\n      mstore\n      swap2\n      0x20\n      add\n      swap2\n      jump(tag_37)\n    tag_38:\n      dup3\n      add\n      swap2\n      swap1\n      0x00\n      mstore\n      keccak256(0x00, 0x20)\n      swap1\n    tag_39:\n      dup2\n      sload\n      dup2\n      mstore\n      swap1\n      0x01\n      add\n      swap1\n      0x20\n      add\n      dup1\n      dup4\n      gt\n      tag_39\n      jumpi\n      dup3\n      swap1\n      sub\n      0x1f\n      and\n      dup3\n      add\n      swap2\n    tag_37:\n      pop\n      pop\n      pop\n      pop\n      pop\n      swap1\n      pop\n        /* \"contracts/Profile.sol\":1970:2095  function getName() external validProfile() view returns ( string memory) {... */\n      swap1\n      jump\t// out\n        /* \"contracts/Profile.sol\":989:1301  function createProfile(string memory name, string memory username, string memory password, address user) external {... */\n    tag_20:\n        /* \"contracts/Profile.sol\":1113:1138  profile memory newProfile */\n      0x00\n        /* \"contracts/Profile.sol\":1141:1182  profile(name,username,password,user,true) */\n      mload(0x40)\n      dup1\n      0xa0\n      add\n      0x40\n      mstore\n      dup1\n        /* \"contracts/Profile.sol\":1149:1153  name */\n      dup7\n        /* \"contracts/Profile.sol\":1141:1182  profile(name,username,password,user,true) */\n      dup2\n      mstore\n      0x20\n      add\n        /* \"contracts/Profile.sol\":1154:1162  username */\n      dup6\n        /* \"contracts/Profile.sol\":1141:1182  profile(name,username,password,user,true) */\n      dup2\n      mstore\n      0x20\n      add\n        /* \"contracts/Profile.sol\":1163:1171  password */\n      dup5\n        /* \"contracts/Profile.sol\":1141:1182  profile(name,username,password,user,true) */\n      dup2\n      mstore\n      0x20\n      add\n        /* \"contracts/Profile.sol\":1172:1176  user */\n      dup4\n        /* \"contracts/Profile.sol\":1141:1182  profile(name,username,password,user,true) */\n      0xffffffffffffffffffffffffffffffffffffffff\n      and\n      dup2\n      mstore\n      0x20\n      add\n        /* \"contracts/Profile.sol\":1177:1181  true */\n      0x01\n        /* \"contracts/Profile.sol\":1141:1182  profile(name,username,password,user,true) */\n      iszero\n      iszero\n      dup2\n      mstore\n      pop\n        /* \"contracts/Profile.sol\":1113:1182  profile memory newProfile = profile(name,username,password,user,true) */\n      swap1\n      pop\n        /* \"contracts/Profile.sol\":1212:1222  newProfile */\n      dup1\n        /* \"contracts/Profile.sol\":1192:1203  profileList */\n      0x00\n        /* \"contracts/Profile.sol\":1192:1209  profileList[user] */\n      dup1\n        /* \"contracts/Profile.sol\":1204:1208  user */\n      dup5\n        /* \"contracts/Profile.sol\":1192:1209  profileList[user] */\n      0xffffffffffffffffffffffffffffffffffffffff\n      and\n      0xffffffffffffffffffffffffffffffffffffffff\n      and\n      dup2\n      mstore\n      0x20\n      add\n      swap1\n      dup2\n      mstore\n      0x20\n      add\n      0x00\n      keccak256\n        /* \"contracts/Profile.sol\":1192:1222  profileList[user] = newProfile */\n      0x00\n      dup3\n      add\n      mload\n      dup2\n      0x00\n      add\n      swap1\n      dup1\n      mload\n      swap1\n      0x20\n      add\n      swap1\n      tag_41\n      swap3\n      swap2\n      swap1\n      tag_42\n      jump\t// in\n    tag_41:\n      pop\n      0x20\n      dup3\n      add\n      mload\n      dup2\n      0x01\n      add\n      swap1\n      dup1\n      mload\n      swap1\n      0x20\n      add\n      swap1\n      tag_43\n      swap3\n      swap2\n      swap1\n      tag_42\n      jump\t// in\n    tag_43:\n      pop\n      0x40\n      dup3\n      add\n      mload\n      dup2\n      0x02\n      add\n      swap1\n      dup1\n      mload\n      swap1\n      0x20\n      add\n      swap1\n      tag_44\n      swap3\n      swap2\n      swap1\n      tag_42\n      jump\t// in\n    tag_44:\n      pop\n      0x60\n      dup3\n      add\n      mload\n      dup2\n      0x03\n      add\n      exp(0x0100, 0x00)\n      dup2\n      sload\n      dup2\n      0xffffffffffffffffffffffffffffffffffffffff\n      mul\n      not\n      and\n      swap1\n      dup4\n      0xffffffffffffffffffffffffffffffffffffffff\n      and\n      mul\n      or\n      swap1\n      sstore\n      pop\n      0x80\n      dup3\n      add\n      mload\n      dup2\n      0x03\n      add\n      exp(0x0100, 0x14)\n      dup2\n      sload\n      dup2\n      0xff\n      mul\n      not\n      and\n      swap1\n      dup4\n      iszero\n      iszero\n      mul\n      or\n      swap1\n      sstore\n      pop\n      swap1\n      pop\n      pop\n        /* \"contracts/Profile.sol\":1258:1259  1 */\n      0x01\n        /* \"contracts/Profile.sol\":1245:1255  numProfile */\n      sload(0x03)\n        /* \"contracts/Profile.sol\":1245:1259  numProfile + 1 */\n      tag_45\n      swap2\n      swap1\n      tag_46\n      jump\t// in\n    tag_45:\n        /* \"contracts/Profile.sol\":1232:1242  numProfile */\n      0x03\n        /* \"contracts/Profile.sol\":1232:1259  numProfile = numProfile + 1 */\n      dup2\n      swap1\n      sstore\n      pop\n        /* \"contracts/Profile.sol\":1274:1294  profileCreated(name) */\n      0xb3455b03a6e133be9b93e8f000fd0c9252e1178a557652af2f19aafde3382b27\n        /* \"contracts/Profile.sol\":1289:1293  name */\n      dup6\n        /* \"contracts/Profile.sol\":1274:1294  profileCreated(name) */\n      mload(0x40)\n      tag_47\n      swap2\n      swap1\n      tag_16\n      jump\t// in\n    tag_47:\n      mload(0x40)\n      dup1\n      swap2\n      sub\n      swap1\n      log1\n        /* \"contracts/Profile.sol\":1103:1301  {... */\n      pop\n        /* \"contracts/Profile.sol\":989:1301  function createProfile(string memory name, string memory username, string memory password, address user) external {... */\n      pop\n      pop\n      pop\n      pop\n      jump\t// out\n        /* \"contracts/Profile.sol\":2154:2280  function checkValidProfile() public view returns (bool) {... */\n    tag_22:\n        /* \"contracts/Profile.sol\":2204:2208  bool */\n      0x00\n        /* \"contracts/Profile.sol\":2227:2238  profileList */\n      dup1\n        /* \"contracts/Profile.sol\":2227:2250  profileList[msg.sender] */\n      0x00\n        /* \"contracts/Profile.sol\":2239:2249  msg.sender */\n      caller\n        /* \"contracts/Profile.sol\":2227:2250  profileList[msg.sender] */\n      0xffffffffffffffffffffffffffffffffffffffff\n      and\n      0xffffffffffffffffffffffffffffffffffffffff\n      and\n      dup2\n      mstore\n      0x20\n      add\n      swap1\n      dup2\n      mstore\n      0x20\n      add\n      0x00\n      keccak256\n        /* \"contracts/Profile.sol\":2227:2258  profileList[msg.sender].created */\n      0x03\n      add\n      0x14\n      swap1\n      sload\n      swap1\n      0x0100\n      exp\n      swap1\n      div\n      0xff\n      and\n        /* \"contracts/Profile.sol\":2227:2273  profileList[msg.sender].created ? true : false */\n      tag_49\n      jumpi\n        /* \"contracts/Profile.sol\":2268:2273  false */\n      0x00\n        /* \"contracts/Profile.sol\":2227:2273  profileList[msg.sender].created ? true : false */\n      jump(tag_50)\n    tag_49:\n        /* \"contracts/Profile.sol\":2261:2265  true */\n      0x01\n        /* \"contracts/Profile.sol\":2227:2273  profileList[msg.sender].created ? true : false */\n    tag_50:\n        /* \"contracts/Profile.sol\":2220:2273  return profileList[msg.sender].created ? true : false */\n      swap1\n      pop\n        /* \"contracts/Profile.sol\":2154:2280  function checkValidProfile() public view returns (bool) {... */\n      swap1\n      jump\t// out\n        /* \"contracts/Profile.sol\":1348:1453  function deleteProfile() external {... */\n    tag_26:\n        /* \"contracts/Profile.sol\":1426:1431  false */\n      0x00\n        /* \"contracts/Profile.sol\":1392:1403  profileList */\n      dup1\n        /* \"contracts/Profile.sol\":1392:1415  profileList[msg.sender] */\n      0x00\n        /* \"contracts/Profile.sol\":1404:1414  msg.sender */\n      caller\n        /* \"contracts/Profile.sol\":1392:1415  profileList[msg.sender] */\n      0xffffffffffffffffffffffffffffffffffffffff\n      and\n      0xffffffffffffffffffffffffffffffffffffffff\n      and\n      dup2\n      mstore\n      0x20\n      add\n      swap1\n      dup2\n      mstore\n      0x20\n      add\n      0x00\n      keccak256\n        /* \"contracts/Profile.sol\":1392:1423  profileList[msg.sender].created */\n      0x03\n      add\n      0x14\n        /* \"contracts/Profile.sol\":1392:1431  profileList[msg.sender].created = false */\n      0x0100\n      exp\n      dup2\n      sload\n      dup2\n      0xff\n      mul\n      not\n      and\n      swap1\n      dup4\n      iszero\n      iszero\n      mul\n      or\n      swap1\n      sstore\n      pop\n        /* \"contracts/Profile.sol\":1348:1453  function deleteProfile() external {... */\n      jump\t// out\n        /* \"contracts/Profile.sol\":1500:1615  function updateProfileName(string memory newName) external {... */\n    tag_30:\n        /* \"contracts/Profile.sol\":1600:1607  newName */\n      dup1\n        /* \"contracts/Profile.sol\":1569:1580  profileList */\n      0x00\n        /* \"contracts/Profile.sol\":1569:1592  profileList[msg.sender] */\n      dup1\n        /* \"contracts/Profile.sol\":1581:1591  msg.sender */\n      caller\n        /* \"contracts/Profile.sol\":1569:1592  profileList[msg.sender] */\n      0xffffffffffffffffffffffffffffffffffffffff\n      and\n      0xffffffffffffffffffffffffffffffffffffffff\n      and\n      dup2\n      mstore\n      0x20\n      add\n      swap1\n      dup2\n      mstore\n      0x20\n      add\n      0x00\n      keccak256\n        /* \"contracts/Profile.sol\":1569:1597  profileList[msg.sender].name */\n      0x00\n      add\n        /* \"contracts/Profile.sol\":1569:1607  profileList[msg.sender].name = newName */\n      swap1\n      dup1\n      mload\n      swap1\n      0x20\n      add\n      swap1\n      tag_53\n      swap3\n      swap2\n      swap1\n      tag_42\n      jump\t// in\n    tag_53:\n      pop\n        /* \"contracts/Profile.sol\":1500:1615  function updateProfileName(string memory newName) external {... */\n      pop\n      jump\t// out\n    tag_42:\n      dup3\n      dup1\n      sload\n      tag_54\n      swap1\n      tag_35\n      jump\t// in\n    tag_54:\n      swap1\n      0x00\n      mstore\n      keccak256(0x00, 0x20)\n      swap1\n      0x1f\n      add\n      0x20\n      swap1\n      div\n      dup2\n      add\n      swap3\n      dup3\n      tag_56\n      jumpi\n      0x00\n      dup6\n      sstore\n      jump(tag_55)\n    tag_56:\n      dup3\n      0x1f\n      lt\n      tag_57\n      jumpi\n      dup1\n      mload\n      not(0xff)\n      and\n      dup4\n      dup1\n      add\n      or\n      dup6\n      sstore\n      jump(tag_55)\n    tag_57:\n      dup3\n      dup1\n      add\n      0x01\n      add\n      dup6\n      sstore\n      dup3\n      iszero\n      tag_55\n      jumpi\n      swap2\n      dup3\n      add\n    tag_58:\n      dup3\n      dup2\n      gt\n      iszero\n      tag_59\n      jumpi\n      dup3\n      mload\n      dup3\n      sstore\n      swap2\n      0x20\n      add\n      swap2\n      swap1\n      0x01\n      add\n      swap1\n      jump(tag_58)\n    tag_59:\n    tag_55:\n      pop\n      swap1\n      pop\n      tag_60\n      swap2\n      swap1\n      tag_61\n      jump\t// in\n    tag_60:\n      pop\n      swap1\n      jump\t// out\n    tag_61:\n    tag_62:\n      dup1\n      dup3\n      gt\n      iszero\n      tag_63\n      jumpi\n      0x00\n      dup2\n      0x00\n      swap1\n      sstore\n      pop\n      0x01\n      add\n      jump(tag_62)\n    tag_63:\n      pop\n      swap1\n      jump\t// out\n        /* \"#utility.yul\":7:419   */\n    tag_65:\n        /* \"#utility.yul\":85:90   */\n      0x00\n        /* \"#utility.yul\":110:176   */\n      tag_67\n        /* \"#utility.yul\":126:175   */\n      tag_68\n        /* \"#utility.yul\":168:174   */\n      dup5\n        /* \"#utility.yul\":126:175   */\n      tag_69\n      jump\t// in\n    tag_68:\n        /* \"#utility.yul\":110:176   */\n      tag_70\n      jump\t// in\n    tag_67:\n        /* \"#utility.yul\":101:176   */\n      swap1\n      pop\n        /* \"#utility.yul\":199:205   */\n      dup3\n        /* \"#utility.yul\":192:197   */\n      dup2\n        /* \"#utility.yul\":185:206   */\n      mstore\n        /* \"#utility.yul\":237:241   */\n      0x20\n        /* \"#utility.yul\":230:235   */\n      dup2\n        /* \"#utility.yul\":226:242   */\n      add\n        /* \"#utility.yul\":275:278   */\n      dup5\n        /* \"#utility.yul\":266:272   */\n      dup5\n        /* \"#utility.yul\":261:264   */\n      dup5\n        /* \"#utility.yul\":257:273   */\n      add\n        /* \"#utility.yul\":254:279   */\n      gt\n        /* \"#utility.yul\":251:363   */\n      iszero\n      tag_71\n      jumpi\n        /* \"#utility.yul\":282:361   */\n      tag_72\n      tag_73\n      jump\t// in\n    tag_72:\n        /* \"#utility.yul\":251:363   */\n    tag_71:\n        /* \"#utility.yul\":372:413   */\n      tag_74\n        /* \"#utility.yul\":406:412   */\n      dup5\n        /* \"#utility.yul\":401:404   */\n      dup3\n        /* \"#utility.yul\":396:399   */\n      dup6\n        /* \"#utility.yul\":372:413   */\n      tag_75\n      jump\t// in\n    tag_74:\n        /* \"#utility.yul\":91:419   */\n      pop\n        /* \"#utility.yul\":7:419   */\n      swap4\n      swap3\n      pop\n      pop\n      pop\n      jump\t// out\n        /* \"#utility.yul\":425:564   */\n    tag_76:\n        /* \"#utility.yul\":471:476   */\n      0x00\n        /* \"#utility.yul\":509:515   */\n      dup2\n        /* \"#utility.yul\":496:516   */\n      calldataload\n        /* \"#utility.yul\":487:516   */\n      swap1\n      pop\n        /* \"#utility.yul\":525:558   */\n      tag_78\n        /* \"#utility.yul\":552:557   */\n      dup2\n        /* \"#utility.yul\":525:558   */\n      tag_79\n      jump\t// in\n    tag_78:\n        /* \"#utility.yul\":425:564   */\n      swap3\n      swap2\n      pop\n      pop\n      jump\t// out\n        /* \"#utility.yul\":584:924   */\n    tag_80:\n        /* \"#utility.yul\":640:645   */\n      0x00\n        /* \"#utility.yul\":689:692   */\n      dup3\n        /* \"#utility.yul\":682:686   */\n      0x1f\n        /* \"#utility.yul\":674:680   */\n      dup4\n        /* \"#utility.yul\":670:687   */\n      add\n        /* \"#utility.yul\":666:693   */\n      slt\n        /* \"#utility.yul\":656:778   */\n      tag_82\n      jumpi\n        /* \"#utility.yul\":697:776   */\n      tag_83\n      tag_84\n      jump\t// in\n    tag_83:\n        /* \"#utility.yul\":656:778   */\n    tag_82:\n        /* \"#utility.yul\":814:820   */\n      dup2\n        /* \"#utility.yul\":801:821   */\n      calldataload\n        /* \"#utility.yul\":839:918   */\n      tag_85\n        /* \"#utility.yul\":914:917   */\n      dup5\n        /* \"#utility.yul\":906:912   */\n      dup3\n        /* \"#utility.yul\":899:903   */\n      0x20\n        /* \"#utility.yul\":891:897   */\n      dup7\n        /* \"#utility.yul\":887:904   */\n      add\n        /* \"#utility.yul\":839:918   */\n      tag_65\n      jump\t// in\n    tag_85:\n        /* \"#utility.yul\":830:918   */\n      swap2\n      pop\n        /* \"#utility.yul\":646:924   */\n      pop\n        /* \"#utility.yul\":584:924   */\n      swap3\n      swap2\n      pop\n      pop\n      jump\t// out\n        /* \"#utility.yul\":930:1439   */\n    tag_29:\n        /* \"#utility.yul\":999:1005   */\n      0x00\n        /* \"#utility.yul\":1048:1050   */\n      0x20\n        /* \"#utility.yul\":1036:1045   */\n      dup3\n        /* \"#utility.yul\":1027:1034   */\n      dup5\n        /* \"#utility.yul\":1023:1046   */\n      sub\n        /* \"#utility.yul\":1019:1051   */\n      slt\n        /* \"#utility.yul\":1016:1135   */\n      iszero\n      tag_87\n      jumpi\n        /* \"#utility.yul\":1054:1133   */\n      tag_88\n      tag_89\n      jump\t// in\n    tag_88:\n        /* \"#utility.yul\":1016:1135   */\n    tag_87:\n        /* \"#utility.yul\":1202:1203   */\n      0x00\n        /* \"#utility.yul\":1191:1200   */\n      dup3\n        /* \"#utility.yul\":1187:1204   */\n      add\n        /* \"#utility.yul\":1174:1205   */\n      calldataload\n        /* \"#utility.yul\":1232:1250   */\n      0xffffffffffffffff\n        /* \"#utility.yul\":1224:1230   */\n      dup2\n        /* \"#utility.yul\":1221:1251   */\n      gt\n        /* \"#utility.yul\":1218:1335   */\n      iszero\n      tag_90\n      jumpi\n        /* \"#utility.yul\":1254:1333   */\n      tag_91\n      tag_92\n      jump\t// in\n    tag_91:\n        /* \"#utility.yul\":1218:1335   */\n    tag_90:\n        /* \"#utility.yul\":1359:1422   */\n      tag_93\n        /* \"#utility.yul\":1414:1421   */\n      dup5\n        /* \"#utility.yul\":1405:1411   */\n      dup3\n        /* \"#utility.yul\":1394:1403   */\n      dup6\n        /* \"#utility.yul\":1390:1412   */\n      add\n        /* \"#utility.yul\":1359:1422   */\n      tag_80\n      jump\t// in\n    tag_93:\n        /* \"#utility.yul\":1349:1422   */\n      swap2\n      pop\n        /* \"#utility.yul\":1145:1432   */\n      pop\n        /* \"#utility.yul\":930:1439   */\n      swap3\n      swap2\n      pop\n      pop\n      jump\t// out\n        /* \"#utility.yul\":1445:2750   */\n    tag_19:\n        /* \"#utility.yul\":1561:1567   */\n      0x00\n        /* \"#utility.yul\":1569:1575   */\n      dup1\n        /* \"#utility.yul\":1577:1583   */\n      0x00\n        /* \"#utility.yul\":1585:1591   */\n      dup1\n        /* \"#utility.yul\":1634:1637   */\n      0x80\n        /* \"#utility.yul\":1622:1631   */\n      dup6\n        /* \"#utility.yul\":1613:1620   */\n      dup8\n        /* \"#utility.yul\":1609:1632   */\n      sub\n        /* \"#utility.yul\":1605:1638   */\n      slt\n        /* \"#utility.yul\":1602:1722   */\n      iszero\n      tag_95\n      jumpi\n        /* \"#utility.yul\":1641:1720   */\n      tag_96\n      tag_89\n      jump\t// in\n    tag_96:\n        /* \"#utility.yul\":1602:1722   */\n    tag_95:\n        /* \"#utility.yul\":1789:1790   */\n      0x00\n        /* \"#utility.yul\":1778:1787   */\n      dup6\n        /* \"#utility.yul\":1774:1791   */\n      add\n        /* \"#utility.yul\":1761:1792   */\n      calldataload\n        /* \"#utility.yul\":1819:1837   */\n      0xffffffffffffffff\n        /* \"#utility.yul\":1811:1817   */\n      dup2\n        /* \"#utility.yul\":1808:1838   */\n      gt\n        /* \"#utility.yul\":1805:1922   */\n      iszero\n      tag_97\n      jumpi\n        /* \"#utility.yul\":1841:1920   */\n      tag_98\n      tag_92\n      jump\t// in\n    tag_98:\n        /* \"#utility.yul\":1805:1922   */\n    tag_97:\n        /* \"#utility.yul\":1946:2009   */\n      tag_99\n        /* \"#utility.yul\":2001:2008   */\n      dup8\n        /* \"#utility.yul\":1992:1998   */\n      dup3\n        /* \"#utility.yul\":1981:1990   */\n      dup9\n        /* \"#utility.yul\":1977:1999   */\n      add\n        /* \"#utility.yul\":1946:2009   */\n      tag_80\n      jump\t// in\n    tag_99:\n        /* \"#utility.yul\":1936:2009   */\n      swap5\n      pop\n        /* \"#utility.yul\":1732:2019   */\n      pop\n        /* \"#utility.yul\":2086:2088   */\n      0x20\n        /* \"#utility.yul\":2075:2084   */\n      dup6\n        /* \"#utility.yul\":2071:2089   */\n      add\n        /* \"#utility.yul\":2058:2090   */\n      calldataload\n        /* \"#utility.yul\":2117:2135   */\n      0xffffffffffffffff\n        /* \"#utility.yul\":2109:2115   */\n      dup2\n        /* \"#utility.yul\":2106:2136   */\n      gt\n        /* \"#utility.yul\":2103:2220   */\n      iszero\n      tag_100\n      jumpi\n        /* \"#utility.yul\":2139:2218   */\n      tag_101\n      tag_92\n      jump\t// in\n    tag_101:\n        /* \"#utility.yul\":2103:2220   */\n    tag_100:\n        /* \"#utility.yul\":2244:2307   */\n      tag_102\n        /* \"#utility.yul\":2299:2306   */\n      dup8\n        /* \"#utility.yul\":2290:2296   */\n      dup3\n        /* \"#utility.yul\":2279:2288   */\n      dup9\n        /* \"#utility.yul\":2275:2297   */\n      add\n        /* \"#utility.yul\":2244:2307   */\n      tag_80\n      jump\t// in\n    tag_102:\n        /* \"#utility.yul\":2234:2307   */\n      swap4\n      pop\n        /* \"#utility.yul\":2029:2317   */\n      pop\n        /* \"#utility.yul\":2384:2386   */\n      0x40\n        /* \"#utility.yul\":2373:2382   */\n      dup6\n        /* \"#utility.yul\":2369:2387   */\n      add\n        /* \"#utility.yul\":2356:2388   */\n      calldataload\n        /* \"#utility.yul\":2415:2433   */\n      0xffffffffffffffff\n        /* \"#utility.yul\":2407:2413   */\n      dup2\n        /* \"#utility.yul\":2404:2434   */\n      gt\n        /* \"#utility.yul\":2401:2518   */\n      iszero\n      tag_103\n      jumpi\n        /* \"#utility.yul\":2437:2516   */\n      tag_104\n      tag_92\n      jump\t// in\n    tag_104:\n        /* \"#utility.yul\":2401:2518   */\n    tag_103:\n        /* \"#utility.yul\":2542:2605   */\n      tag_105\n        /* \"#utility.yul\":2597:2604   */\n      dup8\n        /* \"#utility.yul\":2588:2594   */\n      dup3\n        /* \"#utility.yul\":2577:2586   */\n      dup9\n        /* \"#utility.yul\":2573:2595   */\n      add\n        /* \"#utility.yul\":2542:2605   */\n      tag_80\n      jump\t// in\n    tag_105:\n        /* \"#utility.yul\":2532:2605   */\n      swap3\n      pop\n        /* \"#utility.yul\":2327:2615   */\n      pop\n        /* \"#utility.yul\":2654:2656   */\n      0x60\n        /* \"#utility.yul\":2680:2733   */\n      tag_106\n        /* \"#utility.yul\":2725:2732   */\n      dup8\n        /* \"#utility.yul\":2716:2722   */\n      dup3\n        /* \"#utility.yul\":2705:2714   */\n      dup9\n        /* \"#utility.yul\":2701:2723   */\n      add\n        /* \"#utility.yul\":2680:2733   */\n      tag_76\n      jump\t// in\n    tag_106:\n        /* \"#utility.yul\":2670:2733   */\n      swap2\n      pop\n        /* \"#utility.yul\":2625:2743   */\n      pop\n        /* \"#utility.yul\":1445:2750   */\n      swap3\n      swap6\n      swap2\n      swap5\n      pop\n      swap3\n      pop\n      jump\t// out\n        /* \"#utility.yul\":2756:2865   */\n    tag_107:\n        /* \"#utility.yul\":2837:2858   */\n      tag_109\n        /* \"#utility.yul\":2852:2857   */\n      dup2\n        /* \"#utility.yul\":2837:2858   */\n      tag_110\n      jump\t// in\n    tag_109:\n        /* \"#utility.yul\":2832:2835   */\n      dup3\n        /* \"#utility.yul\":2825:2859   */\n      mstore\n        /* \"#utility.yul\":2756:2865   */\n      pop\n      pop\n      jump\t// out\n        /* \"#utility.yul\":2871:3235   */\n    tag_111:\n        /* \"#utility.yul\":2959:2962   */\n      0x00\n        /* \"#utility.yul\":2987:3026   */\n      tag_113\n        /* \"#utility.yul\":3020:3025   */\n      dup3\n        /* \"#utility.yul\":2987:3026   */\n      tag_114\n      jump\t// in\n    tag_113:\n        /* \"#utility.yul\":3042:3113   */\n      tag_115\n        /* \"#utility.yul\":3106:3112   */\n      dup2\n        /* \"#utility.yul\":3101:3104   */\n      dup6\n        /* \"#utility.yul\":3042:3113   */\n      tag_116\n      jump\t// in\n    tag_115:\n        /* \"#utility.yul\":3035:3113   */\n      swap4\n      pop\n        /* \"#utility.yul\":3122:3174   */\n      tag_117\n        /* \"#utility.yul\":3167:3173   */\n      dup2\n        /* \"#utility.yul\":3162:3165   */\n      dup6\n        /* \"#utility.yul\":3155:3159   */\n      0x20\n        /* \"#utility.yul\":3148:3153   */\n      dup7\n        /* \"#utility.yul\":3144:3160   */\n      add\n        /* \"#utility.yul\":3122:3174   */\n      tag_118\n      jump\t// in\n    tag_117:\n        /* \"#utility.yul\":3199:3228   */\n      tag_119\n        /* \"#utility.yul\":3221:3227   */\n      dup2\n        /* \"#utility.yul\":3199:3228   */\n      tag_120\n      jump\t// in\n    tag_119:\n        /* \"#utility.yul\":3194:3197   */\n      dup5\n        /* \"#utility.yul\":3190:3229   */\n      add\n        /* \"#utility.yul\":3183:3229   */\n      swap2\n      pop\n        /* \"#utility.yul\":2963:3235   */\n      pop\n        /* \"#utility.yul\":2871:3235   */\n      swap3\n      swap2\n      pop\n      pop\n      jump\t// out\n        /* \"#utility.yul\":3241:3359   */\n    tag_121:\n        /* \"#utility.yul\":3328:3352   */\n      tag_123\n        /* \"#utility.yul\":3346:3351   */\n      dup2\n        /* \"#utility.yul\":3328:3352   */\n      tag_124\n      jump\t// in\n    tag_123:\n        /* \"#utility.yul\":3323:3326   */\n      dup3\n        /* \"#utility.yul\":3316:3353   */\n      mstore\n        /* \"#utility.yul\":3241:3359   */\n      pop\n      pop\n      jump\t// out\n        /* \"#utility.yul\":3365:3575   */\n    tag_24:\n        /* \"#utility.yul\":3452:3456   */\n      0x00\n        /* \"#utility.yul\":3490:3492   */\n      0x20\n        /* \"#utility.yul\":3479:3488   */\n      dup3\n        /* \"#utility.yul\":3475:3493   */\n      add\n        /* \"#utility.yul\":3467:3493   */\n      swap1\n      pop\n        /* \"#utility.yul\":3503:3568   */\n      tag_126\n        /* \"#utility.yul\":3565:3566   */\n      0x00\n        /* \"#utility.yul\":3554:3563   */\n      dup4\n        /* \"#utility.yul\":3550:3567   */\n      add\n        /* \"#utility.yul\":3541:3547   */\n      dup5\n        /* \"#utility.yul\":3503:3568   */\n      tag_107\n      jump\t// in\n    tag_126:\n        /* \"#utility.yul\":3365:3575   */\n      swap3\n      swap2\n      pop\n      pop\n      jump\t// out\n        /* \"#utility.yul\":3581:3894   */\n    tag_16:\n        /* \"#utility.yul\":3694:3698   */\n      0x00\n        /* \"#utility.yul\":3732:3734   */\n      0x20\n        /* \"#utility.yul\":3721:3730   */\n      dup3\n        /* \"#utility.yul\":3717:3735   */\n      add\n        /* \"#utility.yul\":3709:3735   */\n      swap1\n      pop\n        /* \"#utility.yul\":3781:3790   */\n      dup2\n        /* \"#utility.yul\":3775:3779   */\n      dup2\n        /* \"#utility.yul\":3771:3791   */\n      sub\n        /* \"#utility.yul\":3767:3768   */\n      0x00\n        /* \"#utility.yul\":3756:3765   */\n      dup4\n        /* \"#utility.yul\":3752:3769   */\n      add\n        /* \"#utility.yul\":3745:3792   */\n      mstore\n        /* \"#utility.yul\":3809:3887   */\n      tag_128\n        /* \"#utility.yul\":3882:3886   */\n      dup2\n        /* \"#utility.yul\":3873:3879   */\n      dup5\n        /* \"#utility.yul\":3809:3887   */\n      tag_111\n      jump\t// in\n    tag_128:\n        /* \"#utility.yul\":3801:3887   */\n      swap1\n      pop\n        /* \"#utility.yul\":3581:3894   */\n      swap3\n      swap2\n      pop\n      pop\n      jump\t// out\n        /* \"#utility.yul\":3900:4122   */\n    tag_12:\n        /* \"#utility.yul\":3993:3997   */\n      0x00\n        /* \"#utility.yul\":4031:4033   */\n      0x20\n        /* \"#utility.yul\":4020:4029   */\n      dup3\n        /* \"#utility.yul\":4016:4034   */\n      add\n        /* \"#utility.yul\":4008:4034   */\n      swap1\n      pop\n        /* \"#utility.yul\":4044:4115   */\n      tag_130\n        /* \"#utility.yul\":4112:4113   */\n      0x00\n        /* \"#utility.yul\":4101:4110   */\n      dup4\n        /* \"#utility.yul\":4097:4114   */\n      add\n        /* \"#utility.yul\":4088:4094   */\n      dup5\n        /* \"#utility.yul\":4044:4115   */\n      tag_121\n      jump\t// in\n    tag_130:\n        /* \"#utility.yul\":3900:4122   */\n      swap3\n      swap2\n      pop\n      pop\n      jump\t// out\n        /* \"#utility.yul\":4128:4257   */\n    tag_70:\n        /* \"#utility.yul\":4162:4168   */\n      0x00\n        /* \"#utility.yul\":4189:4209   */\n      tag_132\n      tag_133\n      jump\t// in\n    tag_132:\n        /* \"#utility.yul\":4179:4209   */\n      swap1\n      pop\n        /* \"#utility.yul\":4218:4251   */\n      tag_134\n        /* \"#utility.yul\":4246:4250   */\n      dup3\n        /* \"#utility.yul\":4238:4244   */\n      dup3\n        /* \"#utility.yul\":4218:4251   */\n      tag_135\n      jump\t// in\n    tag_134:\n        /* \"#utility.yul\":4128:4257   */\n      swap2\n      swap1\n      pop\n      jump\t// out\n        /* \"#utility.yul\":4263:4338   */\n    tag_133:\n        /* \"#utility.yul\":4296:4302   */\n      0x00\n        /* \"#utility.yul\":4329:4331   */\n      0x40\n        /* \"#utility.yul\":4323:4332   */\n      mload\n        /* \"#utility.yul\":4313:4332   */\n      swap1\n      pop\n        /* \"#utility.yul\":4263:4338   */\n      swap1\n      jump\t// out\n        /* \"#utility.yul\":4344:4652   */\n    tag_69:\n        /* \"#utility.yul\":4406:4410   */\n      0x00\n        /* \"#utility.yul\":4496:4514   */\n      0xffffffffffffffff\n        /* \"#utility.yul\":4488:4494   */\n      dup3\n        /* \"#utility.yul\":4485:4515   */\n      gt\n        /* \"#utility.yul\":4482:4538   */\n      iszero\n      tag_138\n      jumpi\n        /* \"#utility.yul\":4518:4536   */\n      tag_139\n      tag_140\n      jump\t// in\n    tag_139:\n        /* \"#utility.yul\":4482:4538   */\n    tag_138:\n        /* \"#utility.yul\":4556:4585   */\n      tag_141\n        /* \"#utility.yul\":4578:4584   */\n      dup3\n        /* \"#utility.yul\":4556:4585   */\n      tag_120\n      jump\t// in\n    tag_141:\n        /* \"#utility.yul\":4548:4585   */\n      swap1\n      pop\n        /* \"#utility.yul\":4640:4644   */\n      0x20\n        /* \"#utility.yul\":4634:4638   */\n      dup2\n        /* \"#utility.yul\":4630:4645   */\n      add\n        /* \"#utility.yul\":4622:4645   */\n      swap1\n      pop\n        /* \"#utility.yul\":4344:4652   */\n      swap2\n      swap1\n      pop\n      jump\t// out\n        /* \"#utility.yul\":4658:4757   */\n    tag_114:\n        /* \"#utility.yul\":4710:4716   */\n      0x00\n        /* \"#utility.yul\":4744:4749   */\n      dup2\n        /* \"#utility.yul\":4738:4750   */\n      mload\n        /* \"#utility.yul\":4728:4750   */\n      swap1\n      pop\n        /* \"#utility.yul\":4658:4757   */\n      swap2\n      swap1\n      pop\n      jump\t// out\n        /* \"#utility.yul\":4763:4932   */\n    tag_116:\n        /* \"#utility.yul\":4847:4858   */\n      0x00\n        /* \"#utility.yul\":4881:4887   */\n      dup3\n        /* \"#utility.yul\":4876:4879   */\n      dup3\n        /* \"#utility.yul\":4869:4888   */\n      mstore\n        /* \"#utility.yul\":4921:4925   */\n      0x20\n        /* \"#utility.yul\":4916:4919   */\n      dup3\n        /* \"#utility.yul\":4912:4926   */\n      add\n        /* \"#utility.yul\":4897:4926   */\n      swap1\n      pop\n        /* \"#utility.yul\":4763:4932   */\n      swap3\n      swap2\n      pop\n      pop\n      jump\t// out\n        /* \"#utility.yul\":4938:5243   */\n    tag_46:\n        /* \"#utility.yul\":4978:4981   */\n      0x00\n        /* \"#utility.yul\":4997:5017   */\n      tag_145\n        /* \"#utility.yul\":5015:5016   */\n      dup3\n        /* \"#utility.yul\":4997:5017   */\n      tag_124\n      jump\t// in\n    tag_145:\n        /* \"#utility.yul\":4992:5017   */\n      swap2\n      pop\n        /* \"#utility.yul\":5031:5051   */\n      tag_146\n        /* \"#utility.yul\":5049:5050   */\n      dup4\n        /* \"#utility.yul\":5031:5051   */\n      tag_124\n      jump\t// in\n    tag_146:\n        /* \"#utility.yul\":5026:5051   */\n      swap3\n      pop\n        /* \"#utility.yul\":5185:5186   */\n      dup3\n        /* \"#utility.yul\":5117:5183   */\n      0xffffffffffffffffffffffffffffffffffffffffffffffffffffffffffffffff\n        /* \"#utility.yul\":5113:5187   */\n      sub\n        /* \"#utility.yul\":5110:5111   */\n      dup3\n        /* \"#utility.yul\":5107:5188   */\n      gt\n        /* \"#utility.yul\":5104:5211   */\n      iszero\n      tag_147\n      jumpi\n        /* \"#utility.yul\":5191:5209   */\n      tag_148\n      tag_149\n      jump\t// in\n    tag_148:\n        /* \"#utility.yul\":5104:5211   */\n    tag_147:\n        /* \"#utility.yul\":5235:5236   */\n      dup3\n        /* \"#utility.yul\":5232:5233   */\n      dup3\n        /* \"#utility.yul\":5228:5237   */\n      add\n        /* \"#utility.yul\":5221:5237   */\n      swap1\n      pop\n        /* \"#utility.yul\":4938:5243   */\n      swap3\n      swap2\n      pop\n      pop\n      jump\t// out\n        /* \"#utility.yul\":5249:5345   */\n    tag_150:\n        /* \"#utility.yul\":5286:5293   */\n      0x00\n        /* \"#utility.yul\":5315:5339   */\n      tag_152\n        /* \"#utility.yul\":5333:5338   */\n      dup3\n        /* \"#utility.yul\":5315:5339   */\n      tag_153\n      jump\t// in\n    tag_152:\n        /* \"#utility.yul\":5304:5339   */\n      swap1\n      pop\n        /* \"#utility.yul\":5249:5345   */\n      swap2\n      swap1\n      pop\n      jump\t// out\n        /* \"#utility.yul\":5351:5441   */\n    tag_110:\n        /* \"#utility.yul\":5385:5392   */\n      0x00\n        /* \"#utility.yul\":5428:5433   */\n      dup2\n        /* \"#utility.yul\":5421:5434   */\n      iszero\n        /* \"#utility.yul\":5414:5435   */\n      iszero\n        /* \"#utility.yul\":5403:5435   */\n      swap1\n      pop\n        /* \"#utility.yul\":5351:5441   */\n      swap2\n      swap1\n      pop\n      jump\t// out\n        /* \"#utility.yul\":5447:5573   */\n    tag_153:\n        /* \"#utility.yul\":5484:5491   */\n      0x00\n        /* \"#utility.yul\":5524:5566   */\n      0xffffffffffffffffffffffffffffffffffffffff\n        /* \"#utility.yul\":5517:5522   */\n      dup3\n        /* \"#utility.yul\":5513:5567   */\n      and\n        /* \"#utility.yul\":5502:5567   */\n      swap1\n      pop\n        /* \"#utility.yul\":5447:5573   */\n      swap2\n      swap1\n      pop\n      jump\t// out\n        /* \"#utility.yul\":5579:5656   */\n    tag_124:\n        /* \"#utility.yul\":5616:5623   */\n      0x00\n        /* \"#utility.yul\":5645:5650   */\n      dup2\n        /* \"#utility.yul\":5634:5650   */\n      swap1\n      pop\n        /* \"#utility.yul\":5579:5656   */\n      swap2\n      swap1\n      pop\n      jump\t// out\n        /* \"#utility.yul\":5662:5816   */\n    tag_75:\n        /* \"#utility.yul\":5746:5752   */\n      dup3\n        /* \"#utility.yul\":5741:5744   */\n      dup2\n        /* \"#utility.yul\":5736:5739   */\n      dup4\n        /* \"#utility.yul\":5723:5753   */\n      calldatacopy\n        /* \"#utility.yul\":5808:5809   */\n      0x00\n        /* \"#utility.yul\":5799:5805   */\n      dup4\n        /* \"#utility.yul\":5794:5797   */\n      dup4\n        /* \"#utility.yul\":5790:5806   */\n      add\n        /* \"#utility.yul\":5783:5810   */\n      mstore\n        /* \"#utility.yul\":5662:5816   */\n      pop\n      pop\n      pop\n      jump\t// out\n        /* \"#utility.yul\":5822:6129   */\n    tag_118:\n        /* \"#utility.yul\":5890:5891   */\n      0x00\n        /* \"#utility.yul\":5900:6013   */\n    tag_159:\n        /* \"#utility.yul\":5914:5920   */\n      dup4\n        /* \"#utility.yul\":5911:5912   */\n      dup2\n        /* \"#utility.yul\":5908:5921   */\n      lt\n        /* \"#utility.yul\":5900:6013   */\n      iszero\n      tag_161\n      jumpi\n        /* \"#utility.yul\":5999:6000   */\n      dup1\n        /* \"#utility.yul\":5994:5997   */\n      dup3\n        /* \"#utility.yul\":5990:6001   */\n      add\n        /* \"#utility.yul\":5984:6002   */\n      mload\n        /* \"#utility.yul\":5980:5981   */\n      dup2\n        /* \"#utility.yul\":5975:5978   */\n      dup5\n        /* \"#utility.yul\":5971:5982   */\n      add\n        /* \"#utility.yul\":5964:6003   */\n      mstore\n        /* \"#utility.yul\":5936:5938   */\n      0x20\n        /* \"#utility.yul\":5933:5934   */\n      dup2\n        /* \"#utility.yul\":5929:5939   */\n      add\n        /* \"#utility.yul\":5924:5939   */\n      swap1\n      pop\n        /* \"#utility.yul\":5900:6013   */\n      jump(tag_159)\n    tag_161:\n        /* \"#utility.yul\":6031:6037   */\n      dup4\n        /* \"#utility.yul\":6028:6029   */\n      dup2\n        /* \"#utility.yul\":6025:6038   */\n      gt\n        /* \"#utility.yul\":6022:6123   */\n      iszero\n      tag_162\n      jumpi\n        /* \"#utility.yul\":6111:6112   */\n      0x00\n        /* \"#utility.yul\":6102:6108   */\n      dup5\n        /* \"#utility.yul\":6097:6100   */\n      dup5\n        /* \"#utility.yul\":6093:6109   */\n      add\n        /* \"#utility.yul\":6086:6113   */\n      mstore\n        /* \"#utility.yul\":6022:6123   */\n    tag_162:\n        /* \"#utility.yul\":5871:6129   */\n      pop\n        /* \"#utility.yul\":5822:6129   */\n      pop\n      pop\n      pop\n      jump\t// out\n        /* \"#utility.yul\":6135:6455   */\n    tag_35:\n        /* \"#utility.yul\":6179:6185   */\n      0x00\n        /* \"#utility.yul\":6216:6217   */\n      0x02\n        /* \"#utility.yul\":6210:6214   */\n      dup3\n        /* \"#utility.yul\":6206:6218   */\n      div\n        /* \"#utility.yul\":6196:6218   */\n      swap1\n      pop\n        /* \"#utility.yul\":6263:6264   */\n      0x01\n        /* \"#utility.yul\":6257:6261   */\n      dup3\n        /* \"#utility.yul\":6253:6265   */\n      and\n        /* \"#utility.yul\":6284:6302   */\n      dup1\n        /* \"#utility.yul\":6274:6355   */\n      tag_164\n      jumpi\n        /* \"#utility.yul\":6340:6344   */\n      0x7f\n        /* \"#utility.yul\":6332:6338   */\n      dup3\n        /* \"#utility.yul\":6328:6345   */\n      and\n        /* \"#utility.yul\":6318:6345   */\n      swap2\n      pop\n        /* \"#utility.yul\":6274:6355   */\n    tag_164:\n        /* \"#utility.yul\":6402:6404   */\n      0x20\n        /* \"#utility.yul\":6394:6400   */\n      dup3\n        /* \"#utility.yul\":6391:6405   */\n      lt\n        /* \"#utility.yul\":6371:6389   */\n      dup2\n        /* \"#utility.yul\":6368:6406   */\n      eq\n        /* \"#utility.yul\":6365:6449   */\n      iszero\n      tag_165\n      jumpi\n        /* \"#utility.yul\":6421:6439   */\n      tag_166\n      tag_167\n      jump\t// in\n    tag_166:\n        /* \"#utility.yul\":6365:6449   */\n    tag_165:\n        /* \"#utility.yul\":6186:6455   */\n      pop\n        /* \"#utility.yul\":6135:6455   */\n      swap2\n      swap1\n      pop\n      jump\t// out\n        /* \"#utility.yul\":6461:6742   */\n    tag_135:\n        /* \"#utility.yul\":6544:6571   */\n      tag_169\n        /* \"#utility.yul\":6566:6570   */\n      dup3\n        /* \"#utility.yul\":6544:6571   */\n      tag_120\n      jump\t// in\n    tag_169:\n        /* \"#utility.yul\":6536:6542   */\n      dup2\n        /* \"#utility.yul\":6532:6572   */\n      add\n        /* \"#utility.yul\":6674:6680   */\n      dup2\n        /* \"#utility.yul\":6662:6672   */\n      dup2\n        /* \"#utility.yul\":6659:6681   */\n      lt\n        /* \"#utility.yul\":6638:6656   */\n      0xffffffffffffffff\n        /* \"#utility.yul\":6626:6636   */\n      dup3\n        /* \"#utility.yul\":6623:6657   */\n      gt\n        /* \"#utility.yul\":6620:6682   */\n      or\n        /* \"#utility.yul\":6617:6705   */\n      iszero\n      tag_170\n      jumpi\n        /* \"#utility.yul\":6685:6703   */\n      tag_171\n      tag_140\n      jump\t// in\n    tag_171:\n        /* \"#utility.yul\":6617:6705   */\n    tag_170:\n        /* \"#utility.yul\":6725:6735   */\n      dup1\n        /* \"#utility.yul\":6721:6723   */\n      0x40\n        /* \"#utility.yul\":6714:6736   */\n      mstore\n        /* \"#utility.yul\":6504:6742   */\n      pop\n        /* \"#utility.yul\":6461:6742   */\n      pop\n      pop\n      jump\t// out\n        /* \"#utility.yul\":6748:6928   */\n    tag_149:\n        /* \"#utility.yul\":6796:6873   */\n      0x4e487b7100000000000000000000000000000000000000000000000000000000\n        /* \"#utility.yul\":6793:6794   */\n      0x00\n        /* \"#utility.yul\":6786:6874   */\n      mstore\n        /* \"#utility.yul\":6893:6897   */\n      0x11\n        /* \"#utility.yul\":6890:6891   */\n      0x04\n        /* \"#utility.yul\":6883:6898   */\n      mstore\n        /* \"#utility.yul\":6917:6921   */\n      0x24\n        /* \"#utility.yul\":6914:6915   */\n      0x00\n        /* \"#utility.yul\":6907:6922   */\n      revert\n        /* \"#utility.yul\":6934:7114   */\n    tag_167:\n        /* \"#utility.yul\":6982:7059   */\n      0x4e487b7100000000000000000000000000000000000000000000000000000000\n        /* \"#utility.yul\":6979:6980   */\n      0x00\n        /* \"#utility.yul\":6972:7060   */\n      mstore\n        /* \"#utility.yul\":7079:7083   */\n      0x22\n        /* \"#utility.yul\":7076:7077   */\n      0x04\n        /* \"#utility.yul\":7069:7084   */\n      mstore\n        /* \"#utility.yul\":7103:7107   */\n      0x24\n        /* \"#utility.yul\":7100:7101   */\n      0x00\n        /* \"#utility.yul\":7093:7108   */\n      revert\n        /* \"#utility.yul\":7120:7300   */\n    tag_140:\n        /* \"#utility.yul\":7168:7245   */\n      0x4e487b7100000000000000000000000000000000000000000000000000000000\n        /* \"#utility.yul\":7165:7166   */\n      0x00\n        /* \"#utility.yul\":7158:7246   */\n      mstore\n        /* \"#utility.yul\":7265:7269   */\n      0x41\n        /* \"#utility.yul\":7262:7263   */\n      0x04\n        /* \"#utility.yul\":7255:7270   */\n      mstore\n        /* \"#utility.yul\":7289:7293   */\n      0x24\n        /* \"#utility.yul\":7286:7287   */\n      0x00\n        /* \"#utility.yul\":7279:7294   */\n      revert\n        /* \"#utility.yul\":7306:7423   */\n    tag_84:\n        /* \"#utility.yul\":7415:7416   */\n      0x00\n        /* \"#utility.yul\":7412:7413   */\n      dup1\n        /* \"#utility.yul\":7405:7417   */\n      revert\n        /* \"#utility.yul\":7429:7546   */\n    tag_73:\n        /* \"#utility.yul\":7538:7539   */\n      0x00\n        /* \"#utility.yul\":7535:7536   */\n      dup1\n        /* \"#utility.yul\":7528:7540   */\n      revert\n        /* \"#utility.yul\":7552:7669   */\n    tag_92:\n        /* \"#utility.yul\":7661:7662   */\n      0x00\n        /* \"#utility.yul\":7658:7659   */\n      dup1\n        /* \"#utility.yul\":7651:7663   */\n      revert\n        /* \"#utility.yul\":7675:7792   */\n    tag_89:\n        /* \"#utility.yul\":7784:7785   */\n      0x00\n        /* \"#utility.yul\":7781:7782   */\n      dup1\n        /* \"#utility.yul\":7774:7786   */\n      revert\n        /* \"#utility.yul\":7798:7900   */\n    tag_120:\n        /* \"#utility.yul\":7839:7845   */\n      0x00\n        /* \"#utility.yul\":7890:7892   */\n      0x1f\n        /* \"#utility.yul\":7886:7893   */\n      not\n        /* \"#utility.yul\":7881:7883   */\n      0x1f\n        /* \"#utility.yul\":7874:7879   */\n      dup4\n        /* \"#utility.yul\":7870:7884   */\n      add\n        /* \"#utility.yul\":7866:7894   */\n      and\n        /* \"#utility.yul\":7856:7894   */\n      swap1\n      pop\n        /* \"#utility.yul\":7798:7900   */\n      swap2\n      swap1\n      pop\n      jump\t// out\n        /* \"#utility.yul\":7906:8028   */\n    tag_79:\n        /* \"#utility.yul\":7979:8003   */\n      tag_181\n        /* \"#utility.yul\":7997:8002   */\n      dup2\n        /* \"#utility.yul\":7979:8003   */\n      tag_150\n      jump\t// in\n    tag_181:\n        /* \"#utility.yul\":7972:7977   */\n      dup2\n        /* \"#utility.yul\":7969:8004   */\n      eq\n        /* \"#utility.yul\":7959:8022   */\n      tag_182\n      jumpi\n        /* \"#utility.yul\":8018:8019   */\n      0x00\n        /* \"#utility.yul\":8015:8016   */\n      dup1\n        /* \"#utility.yul\":8008:8020   */\n      revert\n        /* \"#utility.yul\":7959:8022   */\n    tag_182:\n        /* \"#utility.yul\":7906:8028   */\n      pop\n      jump\t// out\n\n    auxdata: 0xa26469706673582212204f27045ef81952236b11585564b8cc1d85fcd4a5d8ee36d3ad178d454579a72964736f6c63430008070033\n}\n",
				"bytecode": {
					"linkReferences": {},
					"object": "6080604052600060035534801561001557600080fd5b50610a78806100256000396000f3fe608060405234801561001057600080fd5b50600436106100625760003560e01c8063169134691461006757806317d7de7c1461008557806322a9d1bc146100a35780633ae7dc1a146100bf5780636d4540eb146100dd578063ee8b7cd9146100e7575b600080fd5b61006f610103565b60405161007c91906107a9565b60405180910390f35b61008d610109565b60405161009a9190610787565b60405180910390f35b6100bd60048036038101906100b8919061065a565b610239565b005b6100c76103d0565b6040516100d4919061076c565b60405180910390f35b6100e5610434565b005b61010160048036038101906100fc9190610611565b610490565b005b60035481565b6060600115156000803373ffffffffffffffffffffffffffffffffffffffff1673ffffffffffffffffffffffffffffffffffffffff16815260200190815260200160002060030160149054906101000a900460ff1615151461016a57600080fd5b6000803373ffffffffffffffffffffffffffffffffffffffff1673ffffffffffffffffffffffffffffffffffffffff16815260200190815260200160002060000180546101b690610916565b80601f01602080910402602001604051908101604052809291908181526020018280546101e290610916565b801561022f5780601f106102045761010080835404028352916020019161022f565b820191906000526020600020905b81548152906001019060200180831161021257829003601f168201915b5050505050905090565b60006040518060a001604052808681526020018581526020018481526020018373ffffffffffffffffffffffffffffffffffffffff168152602001600115158152509050806000808473ffffffffffffffffffffffffffffffffffffffff1673ffffffffffffffffffffffffffffffffffffffff16815260200190815260200160002060008201518160000190805190602001906102d89291906104e9565b5060208201518160010190805190602001906102f59291906104e9565b5060408201518160020190805190602001906103129291906104e9565b5060608201518160030160006101000a81548173ffffffffffffffffffffffffffffffffffffffff021916908373ffffffffffffffffffffffffffffffffffffffff16021790555060808201518160030160146101000a81548160ff021916908315150217905550905050600160035461038c9190610836565b6003819055507fb3455b03a6e133be9b93e8f000fd0c9252e1178a557652af2f19aafde3382b27856040516103c19190610787565b60405180910390a15050505050565b60008060003373ffffffffffffffffffffffffffffffffffffffff1673ffffffffffffffffffffffffffffffffffffffff16815260200190815260200160002060030160149054906101000a900460ff1661042c57600061042f565b60015b905090565b60008060003373ffffffffffffffffffffffffffffffffffffffff1673ffffffffffffffffffffffffffffffffffffffff16815260200190815260200160002060030160146101000a81548160ff021916908315150217905550565b806000803373ffffffffffffffffffffffffffffffffffffffff1673ffffffffffffffffffffffffffffffffffffffff16815260200190815260200160002060000190805190602001906104e59291906104e9565b5050565b8280546104f590610916565b90600052602060002090601f016020900481019282610517576000855561055e565b82601f1061053057805160ff191683800117855561055e565b8280016001018555821561055e579182015b8281111561055d578251825591602001919060010190610542565b5b50905061056b919061056f565b5090565b5b80821115610588576000816000905550600101610570565b5090565b600061059f61059a846107e9565b6107c4565b9050828152602081018484840111156105bb576105ba610a0b565b5b6105c68482856108d4565b509392505050565b6000813590506105dd81610a2b565b92915050565b600082601f8301126105f8576105f7610a06565b5b813561060884826020860161058c565b91505092915050565b60006020828403121561062757610626610a15565b5b600082013567ffffffffffffffff81111561064557610644610a10565b5b610651848285016105e3565b91505092915050565b6000806000806080858703121561067457610673610a15565b5b600085013567ffffffffffffffff81111561069257610691610a10565b5b61069e878288016105e3565b945050602085013567ffffffffffffffff8111156106bf576106be610a10565b5b6106cb878288016105e3565b935050604085013567ffffffffffffffff8111156106ec576106eb610a10565b5b6106f8878288016105e3565b9250506060610709878288016105ce565b91505092959194509250565b61071e8161089e565b82525050565b600061072f8261081a565b6107398185610825565b93506107498185602086016108e3565b61075281610a1a565b840191505092915050565b610766816108ca565b82525050565b60006020820190506107816000830184610715565b92915050565b600060208201905081810360008301526107a18184610724565b905092915050565b60006020820190506107be600083018461075d565b92915050565b60006107ce6107df565b90506107da8282610948565b919050565b6000604051905090565b600067ffffffffffffffff821115610804576108036109d7565b5b61080d82610a1a565b9050602081019050919050565b600081519050919050565b600082825260208201905092915050565b6000610841826108ca565b915061084c836108ca565b9250827fffffffffffffffffffffffffffffffffffffffffffffffffffffffffffffffff0382111561088157610880610979565b5b828201905092915050565b6000610897826108aa565b9050919050565b60008115159050919050565b600073ffffffffffffffffffffffffffffffffffffffff82169050919050565b6000819050919050565b82818337600083830152505050565b60005b838110156109015780820151818401526020810190506108e6565b83811115610910576000848401525b50505050565b6000600282049050600182168061092e57607f821691505b60208210811415610942576109416109a8565b5b50919050565b61095182610a1a565b810181811067ffffffffffffffff821117156109705761096f6109d7565b5b80604052505050565b7f4e487b7100000000000000000000000000000000000000000000000000000000600052601160045260246000fd5b7f4e487b7100000000000000000000000000000000000000000000000000000000600052602260045260246000fd5b7f4e487b7100000000000000000000000000000000000000000000000000000000600052604160045260246000fd5b600080fd5b600080fd5b600080fd5b600080fd5b6000601f19601f8301169050919050565b610a348161088c565b8114610a3f57600080fd5b5056fea26469706673582212204f27045ef81952236b11585564b8cc1d85fcd4a5d8ee36d3ad178d454579a72964736f6c63430008070033",
					"opcodes": "PUSH1 0x80 PUSH1 0x40 MSTORE PUSH1 0x0 PUSH1 0x3 SSTORE CALLVALUE DUP1 ISZERO PUSH2 0x15 JUMPI PUSH1 0x0 DUP1 REVERT JUMPDEST POP PUSH2 0xA78 DUP1 PUSH2 0x25 PUSH1 0x0 CODECOPY PUSH1 0x0 RETURN INVALID PUSH1 0x80 PUSH1 0x40 MSTORE CALLVALUE DUP1 ISZERO PUSH2 0x10 JUMPI PUSH1 0x0 DUP1 REVERT JUMPDEST POP PUSH1 0x4 CALLDATASIZE LT PUSH2 0x62 JUMPI PUSH1 0x0 CALLDATALOAD PUSH1 0xE0 SHR DUP1 PUSH4 0x16913469 EQ PUSH2 0x67 JUMPI DUP1 PUSH4 0x17D7DE7C EQ PUSH2 0x85 JUMPI DUP1 PUSH4 0x22A9D1BC EQ PUSH2 0xA3 JUMPI DUP1 PUSH4 0x3AE7DC1A EQ PUSH2 0xBF JUMPI DUP1 PUSH4 0x6D4540EB EQ PUSH2 0xDD JUMPI DUP1 PUSH4 0xEE8B7CD9 EQ PUSH2 0xE7 JUMPI JUMPDEST PUSH1 0x0 DUP1 REVERT JUMPDEST PUSH2 0x6F PUSH2 0x103 JUMP JUMPDEST PUSH1 0x40 MLOAD PUSH2 0x7C SWAP2 SWAP1 PUSH2 0x7A9 JUMP JUMPDEST PUSH1 0x40 MLOAD DUP1 SWAP2 SUB SWAP1 RETURN JUMPDEST PUSH2 0x8D PUSH2 0x109 JUMP JUMPDEST PUSH1 0x40 MLOAD PUSH2 0x9A SWAP2 SWAP1 PUSH2 0x787 JUMP JUMPDEST PUSH1 0x40 MLOAD DUP1 SWAP2 SUB SWAP1 RETURN JUMPDEST PUSH2 0xBD PUSH1 0x4 DUP1 CALLDATASIZE SUB DUP2 ADD SWAP1 PUSH2 0xB8 SWAP2 SWAP1 PUSH2 0x65A JUMP JUMPDEST PUSH2 0x239 JUMP JUMPDEST STOP JUMPDEST PUSH2 0xC7 PUSH2 0x3D0 JUMP JUMPDEST PUSH1 0x40 MLOAD PUSH2 0xD4 SWAP2 SWAP1 PUSH2 0x76C JUMP JUMPDEST PUSH1 0x40 MLOAD DUP1 SWAP2 SUB SWAP1 RETURN JUMPDEST PUSH2 0xE5 PUSH2 0x434 JUMP JUMPDEST STOP JUMPDEST PUSH2 0x101 PUSH1 0x4 DUP1 CALLDATASIZE SUB DUP2 ADD SWAP1 PUSH2 0xFC SWAP2 SWAP1 PUSH2 0x611 JUMP JUMPDEST PUSH2 0x490 JUMP JUMPDEST STOP JUMPDEST PUSH1 0x3 SLOAD DUP2 JUMP JUMPDEST PUSH1 0x60 PUSH1 0x1 ISZERO ISZERO PUSH1 0x0 DUP1 CALLER PUSH20 0xFFFFFFFFFFFFFFFFFFFFFFFFFFFFFFFFFFFFFFFF AND PUSH20 0xFFFFFFFFFFFFFFFFFFFFFFFFFFFFFFFFFFFFFFFF AND DUP2 MSTORE PUSH1 0x20 ADD SWAP1 DUP2 MSTORE PUSH1 0x20 ADD PUSH1 0x0 KECCAK256 PUSH1 0x3 ADD PUSH1 0x14 SWAP1 SLOAD SWAP1 PUSH2 0x100 EXP SWAP1 DIV PUSH1 0xFF AND ISZERO ISZERO EQ PUSH2 0x16A JUMPI PUSH1 0x0 DUP1 REVERT JUMPDEST PUSH1 0x0 DUP1 CALLER PUSH20 0xFFFFFFFFFFFFFFFFFFFFFFFFFFFFFFFFFFFFFFFF AND PUSH20 0xFFFFFFFFFFFFFFFFFFFFFFFFFFFFFFFFFFFFFFFF AND DUP2 MSTORE PUSH1 0x20 ADD SWAP1 DUP2 MSTORE PUSH1 0x20 ADD PUSH1 0x0 KECCAK256 PUSH1 0x0 ADD DUP1 SLOAD PUSH2 0x1B6 SWAP1 PUSH2 0x916 JUMP JUMPDEST DUP1 PUSH1 0x1F ADD PUSH1 0x20 DUP1 SWAP2 DIV MUL PUSH1 0x20 ADD PUSH1 0x40 MLOAD SWAP1 DUP2 ADD PUSH1 0x40 MSTORE DUP1 SWAP3 SWAP2 SWAP1 DUP2 DUP2 MSTORE PUSH1 0x20 ADD DUP3 DUP1 SLOAD PUSH2 0x1E2 SWAP1 PUSH2 0x916 JUMP JUMPDEST DUP1 ISZERO PUSH2 0x22F JUMPI DUP1 PUSH1 0x1F LT PUSH2 0x204 JUMPI PUSH2 0x100 DUP1 DUP4 SLOAD DIV MUL DUP4 MSTORE SWAP2 PUSH1 0x20 ADD SWAP2 PUSH2 0x22F JUMP JUMPDEST DUP3 ADD SWAP2 SWAP1 PUSH1 0x0 MSTORE PUSH1 0x20 PUSH1 0x0 KECCAK256 SWAP1 JUMPDEST DUP2 SLOAD DUP2 MSTORE SWAP1 PUSH1 0x1 ADD SWAP1 PUSH1 0x20 ADD DUP1 DUP4 GT PUSH2 0x212 JUMPI DUP3 SWAP1 SUB PUSH1 0x1F AND DUP3 ADD SWAP2 JUMPDEST POP POP POP POP POP SWAP1 POP SWAP1 JUMP JUMPDEST PUSH1 0x0 PUSH1 0x40 MLOAD DUP1 PUSH1 0xA0 ADD PUSH1 0x40 MSTORE DUP1 DUP7 DUP2 MSTORE PUSH1 0x20 ADD DUP6 DUP2 MSTORE PUSH1 0x20 ADD DUP5 DUP2 MSTORE PUSH1 0x20 ADD DUP4 PUSH20 0xFFFFFFFFFFFFFFFFFFFFFFFFFFFFFFFFFFFFFFFF AND DUP2 MSTORE PUSH1 0x20 ADD PUSH1 0x1 ISZERO ISZERO DUP2 MSTORE POP SWAP1 POP DUP1 PUSH1 0x0 DUP1 DUP5 PUSH20 0xFFFFFFFFFFFFFFFFFFFFFFFFFFFFFFFFFFFFFFFF AND PUSH20 0xFFFFFFFFFFFFFFFFFFFFFFFFFFFFFFFFFFFFFFFF AND DUP2 MSTORE PUSH1 0x20 ADD SWAP1 DUP2 MSTORE PUSH1 0x20 ADD PUSH1 0x0 KECCAK256 PUSH1 0x0 DUP3 ADD MLOAD DUP2 PUSH1 0x0 ADD SWAP1 DUP1 MLOAD SWAP1 PUSH1 0x20 ADD SWAP1 PUSH2 0x2D8 SWAP3 SWAP2 SWAP1 PUSH2 0x4E9 JUMP JUMPDEST POP PUSH1 0x20 DUP3 ADD MLOAD DUP2 PUSH1 0x1 ADD SWAP1 DUP1 MLOAD SWAP1 PUSH1 0x20 ADD SWAP1 PUSH2 0x2F5 SWAP3 SWAP2 SWAP1 PUSH2 0x4E9 JUMP JUMPDEST POP PUSH1 0x40 DUP3 ADD MLOAD DUP2 PUSH1 0x2 ADD SWAP1 DUP1 MLOAD SWAP1 PUSH1 0x20 ADD SWAP1 PUSH2 0x312 SWAP3 SWAP2 SWAP1 PUSH2 0x4E9 JUMP JUMPDEST POP PUSH1 0x60 DUP3 ADD MLOAD DUP2 PUSH1 0x3 ADD PUSH1 0x0 PUSH2 0x100 EXP DUP2 SLOAD DUP2 PUSH20 0xFFFFFFFFFFFFFFFFFFFFFFFFFFFFFFFFFFFFFFFF MUL NOT AND SWAP1 DUP4 PUSH20 0xFFFFFFFFFFFFFFFFFFFFFFFFFFFFFFFFFFFFFFFF AND MUL OR SWAP1 SSTORE POP PUSH1 0x80 DUP3 ADD MLOAD DUP2 PUSH1 0x3 ADD PUSH1 0x14 PUSH2 0x100 EXP DUP2 SLOAD DUP2 PUSH1 0xFF MUL NOT AND SWAP1 DUP4 ISZERO ISZERO MUL OR SWAP1 SSTORE POP SWAP1 POP POP PUSH1 0x1 PUSH1 0x3 SLOAD PUSH2 0x38C SWAP2 SWAP1 PUSH2 0x836 JUMP JUMPDEST PUSH1 0x3 DUP2 SWAP1 SSTORE POP PUSH32 0xB3455B03A6E133BE9B93E8F000FD0C9252E1178A557652AF2F19AAFDE3382B27 DUP6 PUSH1 0x40 MLOAD PUSH2 0x3C1 SWAP2 SWAP1 PUSH2 0x787 JUMP JUMPDEST PUSH1 0x40 MLOAD DUP1 SWAP2 SUB SWAP1 LOG1 POP POP POP POP POP JUMP JUMPDEST PUSH1 0x0 DUP1 PUSH1 0x0 CALLER PUSH20 0xFFFFFFFFFFFFFFFFFFFFFFFFFFFFFFFFFFFFFFFF AND PUSH20 0xFFFFFFFFFFFFFFFFFFFFFFFFFFFFFFFFFFFFFFFF AND DUP2 MSTORE PUSH1 0x20 ADD SWAP1 DUP2 MSTORE PUSH1 0x20 ADD PUSH1 0x0 KECCAK256 PUSH1 0x3 ADD PUSH1 0x14 SWAP1 SLOAD SWAP1 PUSH2 0x100 EXP SWAP1 DIV PUSH1 0xFF AND PUSH2 0x42C JUMPI PUSH1 0x0 PUSH2 0x42F JUMP JUMPDEST PUSH1 0x1 JUMPDEST SWAP1 POP SWAP1 JUMP JUMPDEST PUSH1 0x0 DUP1 PUSH1 0x0 CALLER PUSH20 0xFFFFFFFFFFFFFFFFFFFFFFFFFFFFFFFFFFFFFFFF AND PUSH20 0xFFFFFFFFFFFFFFFFFFFFFFFFFFFFFFFFFFFFFFFF AND DUP2 MSTORE PUSH1 0x20 ADD SWAP1 DUP2 MSTORE PUSH1 0x20 ADD PUSH1 0x0 KECCAK256 PUSH1 0x3 ADD PUSH1 0x14 PUSH2 0x100 EXP DUP2 SLOAD DUP2 PUSH1 0xFF MUL NOT AND SWAP1 DUP4 ISZERO ISZERO MUL OR SWAP1 SSTORE POP JUMP JUMPDEST DUP1 PUSH1 0x0 DUP1 CALLER PUSH20 0xFFFFFFFFFFFFFFFFFFFFFFFFFFFFFFFFFFFFFFFF AND PUSH20 0xFFFFFFFFFFFFFFFFFFFFFFFFFFFFFFFFFFFFFFFF AND DUP2 MSTORE PUSH1 0x20 ADD SWAP1 DUP2 MSTORE PUSH1 0x20 ADD PUSH1 0x0 KECCAK256 PUSH1 0x0 ADD SWAP1 DUP1 MLOAD SWAP1 PUSH1 0x20 ADD SWAP1 PUSH2 0x4E5 SWAP3 SWAP2 SWAP1 PUSH2 0x4E9 JUMP JUMPDEST POP POP JUMP JUMPDEST DUP3 DUP1 SLOAD PUSH2 0x4F5 SWAP1 PUSH2 0x916 JUMP JUMPDEST SWAP1 PUSH1 0x0 MSTORE PUSH1 0x20 PUSH1 0x0 KECCAK256 SWAP1 PUSH1 0x1F ADD PUSH1 0x20 SWAP1 DIV DUP2 ADD SWAP3 DUP3 PUSH2 0x517 JUMPI PUSH1 0x0 DUP6 SSTORE PUSH2 0x55E JUMP JUMPDEST DUP3 PUSH1 0x1F LT PUSH2 0x530 JUMPI DUP1 MLOAD PUSH1 0xFF NOT AND DUP4 DUP1 ADD OR DUP6 SSTORE PUSH2 0x55E JUMP JUMPDEST DUP3 DUP1 ADD PUSH1 0x1 ADD DUP6 SSTORE DUP3 ISZERO PUSH2 0x55E JUMPI SWAP2 DUP3 ADD JUMPDEST DUP3 DUP2 GT ISZERO PUSH2 0x55D JUMPI DUP3 MLOAD DUP3 SSTORE SWAP2 PUSH1 0x20 ADD SWAP2 SWAP1 PUSH1 0x1 ADD SWAP1 PUSH2 0x542 JUMP JUMPDEST JUMPDEST POP SWAP1 POP PUSH2 0x56B SWAP2 SWAP1 PUSH2 0x56F JUMP JUMPDEST POP SWAP1 JUMP JUMPDEST JUMPDEST DUP1 DUP3 GT ISZERO PUSH2 0x588 JUMPI PUSH1 0x0 DUP2 PUSH1 0x0 SWAP1 SSTORE POP PUSH1 0x1 ADD PUSH2 0x570 JUMP JUMPDEST POP SWAP1 JUMP JUMPDEST PUSH1 0x0 PUSH2 0x59F PUSH2 0x59A DUP5 PUSH2 0x7E9 JUMP JUMPDEST PUSH2 0x7C4 JUMP JUMPDEST SWAP1 POP DUP3 DUP2 MSTORE PUSH1 0x20 DUP2 ADD DUP5 DUP5 DUP5 ADD GT ISZERO PUSH2 0x5BB JUMPI PUSH2 0x5BA PUSH2 0xA0B JUMP JUMPDEST JUMPDEST PUSH2 0x5C6 DUP5 DUP3 DUP6 PUSH2 0x8D4 JUMP JUMPDEST POP SWAP4 SWAP3 POP POP POP JUMP JUMPDEST PUSH1 0x0 DUP2 CALLDATALOAD SWAP1 POP PUSH2 0x5DD DUP2 PUSH2 0xA2B JUMP JUMPDEST SWAP3 SWAP2 POP POP JUMP JUMPDEST PUSH1 0x0 DUP3 PUSH1 0x1F DUP4 ADD SLT PUSH2 0x5F8 JUMPI PUSH2 0x5F7 PUSH2 0xA06 JUMP JUMPDEST JUMPDEST DUP2 CALLDATALOAD PUSH2 0x608 DUP5 DUP3 PUSH1 0x20 DUP7 ADD PUSH2 0x58C JUMP JUMPDEST SWAP2 POP POP SWAP3 SWAP2 POP POP JUMP JUMPDEST PUSH1 0x0 PUSH1 0x20 DUP3 DUP5 SUB SLT ISZERO PUSH2 0x627 JUMPI PUSH2 0x626 PUSH2 0xA15 JUMP JUMPDEST JUMPDEST PUSH1 0x0 DUP3 ADD CALLDATALOAD PUSH8 0xFFFFFFFFFFFFFFFF DUP2 GT ISZERO PUSH2 0x645 JUMPI PUSH2 0x644 PUSH2 0xA10 JUMP JUMPDEST JUMPDEST PUSH2 0x651 DUP5 DUP3 DUP6 ADD PUSH2 0x5E3 JUMP JUMPDEST SWAP2 POP POP SWAP3 SWAP2 POP POP JUMP JUMPDEST PUSH1 0x0 DUP1 PUSH1 0x0 DUP1 PUSH1 0x80 DUP6 DUP8 SUB SLT ISZERO PUSH2 0x674 JUMPI PUSH2 0x673 PUSH2 0xA15 JUMP JUMPDEST JUMPDEST PUSH1 0x0 DUP6 ADD CALLDATALOAD PUSH8 0xFFFFFFFFFFFFFFFF DUP2 GT ISZERO PUSH2 0x692 JUMPI PUSH2 0x691 PUSH2 0xA10 JUMP JUMPDEST JUMPDEST PUSH2 0x69E DUP8 DUP3 DUP9 ADD PUSH2 0x5E3 JUMP JUMPDEST SWAP5 POP POP PUSH1 0x20 DUP6 ADD CALLDATALOAD PUSH8 0xFFFFFFFFFFFFFFFF DUP2 GT ISZERO PUSH2 0x6BF JUMPI PUSH2 0x6BE PUSH2 0xA10 JUMP JUMPDEST JUMPDEST PUSH2 0x6CB DUP8 DUP3 DUP9 ADD PUSH2 0x5E3 JUMP JUMPDEST SWAP4 POP POP PUSH1 0x40 DUP6 ADD CALLDATALOAD PUSH8 0xFFFFFFFFFFFFFFFF DUP2 GT ISZERO PUSH2 0x6EC JUMPI PUSH2 0x6EB PUSH2 0xA10 JUMP JUMPDEST JUMPDEST PUSH2 0x6F8 DUP8 DUP3 DUP9 ADD PUSH2 0x5E3 JUMP JUMPDEST SWAP3 POP POP PUSH1 0x60 PUSH2 0x709 DUP8 DUP3 DUP9 ADD PUSH2 0x5CE JUMP JUMPDEST SWAP2 POP POP SWAP3 SWAP6 SWAP2 SWAP5 POP SWAP3 POP JUMP JUMPDEST PUSH2 0x71E DUP2 PUSH2 0x89E JUMP JUMPDEST DUP3 MSTORE POP POP JUMP JUMPDEST PUSH1 0x0 PUSH2 0x72F DUP3 PUSH2 0x81A JUMP JUMPDEST PUSH2 0x739 DUP2 DUP6 PUSH2 0x825 JUMP JUMPDEST SWAP4 POP PUSH2 0x749 DUP2 DUP6 PUSH1 0x20 DUP7 ADD PUSH2 0x8E3 JUMP JUMPDEST PUSH2 0x752 DUP2 PUSH2 0xA1A JUMP JUMPDEST DUP5 ADD SWAP2 POP POP SWAP3 SWAP2 POP POP JUMP JUMPDEST PUSH2 0x766 DUP2 PUSH2 0x8CA JUMP JUMPDEST DUP3 MSTORE POP POP JUMP JUMPDEST PUSH1 0x0 PUSH1 0x20 DUP3 ADD SWAP1 POP PUSH2 0x781 PUSH1 0x0 DUP4 ADD DUP5 PUSH2 0x715 JUMP JUMPDEST SWAP3 SWAP2 POP POP JUMP JUMPDEST PUSH1 0x0 PUSH1 0x20 DUP3 ADD SWAP1 POP DUP2 DUP2 SUB PUSH1 0x0 DUP4 ADD MSTORE PUSH2 0x7A1 DUP2 DUP5 PUSH2 0x724 JUMP JUMPDEST SWAP1 POP SWAP3 SWAP2 POP POP JUMP JUMPDEST PUSH1 0x0 PUSH1 0x20 DUP3 ADD SWAP1 POP PUSH2 0x7BE PUSH1 0x0 DUP4 ADD DUP5 PUSH2 0x75D JUMP JUMPDEST SWAP3 SWAP2 POP POP JUMP JUMPDEST PUSH1 0x0 PUSH2 0x7CE PUSH2 0x7DF JUMP JUMPDEST SWAP1 POP PUSH2 0x7DA DUP3 DUP3 PUSH2 0x948 JUMP JUMPDEST SWAP2 SWAP1 POP JUMP JUMPDEST PUSH1 0x0 PUSH1 0x40 MLOAD SWAP1 POP SWAP1 JUMP JUMPDEST PUSH1 0x0 PUSH8 0xFFFFFFFFFFFFFFFF DUP3 GT ISZERO PUSH2 0x804 JUMPI PUSH2 0x803 PUSH2 0x9D7 JUMP JUMPDEST JUMPDEST PUSH2 0x80D DUP3 PUSH2 0xA1A JUMP JUMPDEST SWAP1 POP PUSH1 0x20 DUP2 ADD SWAP1 POP SWAP2 SWAP1 POP JUMP JUMPDEST PUSH1 0x0 DUP2 MLOAD SWAP1 POP SWAP2 SWAP1 POP JUMP JUMPDEST PUSH1 0x0 DUP3 DUP3 MSTORE PUSH1 0x20 DUP3 ADD SWAP1 POP SWAP3 SWAP2 POP POP JUMP JUMPDEST PUSH1 0x0 PUSH2 0x841 DUP3 PUSH2 0x8CA JUMP JUMPDEST SWAP2 POP PUSH2 0x84C DUP4 PUSH2 0x8CA JUMP JUMPDEST SWAP3 POP DUP3 PUSH32 0xFFFFFFFFFFFFFFFFFFFFFFFFFFFFFFFFFFFFFFFFFFFFFFFFFFFFFFFFFFFFFFFF SUB DUP3 GT ISZERO PUSH2 0x881 JUMPI PUSH2 0x880 PUSH2 0x979 JUMP JUMPDEST JUMPDEST DUP3 DUP3 ADD SWAP1 POP SWAP3 SWAP2 POP POP JUMP JUMPDEST PUSH1 0x0 PUSH2 0x897 DUP3 PUSH2 0x8AA JUMP JUMPDEST SWAP1 POP SWAP2 SWAP1 POP JUMP JUMPDEST PUSH1 0x0 DUP2 ISZERO ISZERO SWAP1 POP SWAP2 SWAP1 POP JUMP JUMPDEST PUSH1 0x0 PUSH20 0xFFFFFFFFFFFFFFFFFFFFFFFFFFFFFFFFFFFFFFFF DUP3 AND SWAP1 POP SWAP2 SWAP1 POP JUMP JUMPDEST PUSH1 0x0 DUP2 SWAP1 POP SWAP2 SWAP1 POP JUMP JUMPDEST DUP3 DUP2 DUP4 CALLDATACOPY PUSH1 0x0 DUP4 DUP4 ADD MSTORE POP POP POP JUMP JUMPDEST PUSH1 0x0 JUMPDEST DUP4 DUP2 LT ISZERO PUSH2 0x901 JUMPI DUP1 DUP3 ADD MLOAD DUP2 DUP5 ADD MSTORE PUSH1 0x20 DUP2 ADD SWAP1 POP PUSH2 0x8E6 JUMP JUMPDEST DUP4 DUP2 GT ISZERO PUSH2 0x910 JUMPI PUSH1 0x0 DUP5 DUP5 ADD MSTORE JUMPDEST POP POP POP POP JUMP JUMPDEST PUSH1 0x0 PUSH1 0x2 DUP3 DIV SWAP1 POP PUSH1 0x1 DUP3 AND DUP1 PUSH2 0x92E JUMPI PUSH1 0x7F DUP3 AND SWAP2 POP JUMPDEST PUSH1 0x20 DUP3 LT DUP2 EQ ISZERO PUSH2 0x942 JUMPI PUSH2 0x941 PUSH2 0x9A8 JUMP JUMPDEST JUMPDEST POP SWAP2 SWAP1 POP JUMP JUMPDEST PUSH2 0x951 DUP3 PUSH2 0xA1A JUMP JUMPDEST DUP2 ADD DUP2 DUP2 LT PUSH8 0xFFFFFFFFFFFFFFFF DUP3 GT OR ISZERO PUSH2 0x970 JUMPI PUSH2 0x96F PUSH2 0x9D7 JUMP JUMPDEST JUMPDEST DUP1 PUSH1 0x40 MSTORE POP POP POP JUMP JUMPDEST PUSH32 0x4E487B7100000000000000000000000000000000000000000000000000000000 PUSH1 0x0 MSTORE PUSH1 0x11 PUSH1 0x4 MSTORE PUSH1 0x24 PUSH1 0x0 REVERT JUMPDEST PUSH32 0x4E487B7100000000000000000000000000000000000000000000000000000000 PUSH1 0x0 MSTORE PUSH1 0x22 PUSH1 0x4 MSTORE PUSH1 0x24 PUSH1 0x0 REVERT JUMPDEST PUSH32 0x4E487B7100000000000000000000000000000000000000000000000000000000 PUSH1 0x0 MSTORE PUSH1 0x41 PUSH1 0x4 MSTORE PUSH1 0x24 PUSH1 0x0 REVERT JUMPDEST PUSH1 0x0 DUP1 REVERT JUMPDEST PUSH1 0x0 DUP1 REVERT JUMPDEST PUSH1 0x0 DUP1 REVERT JUMPDEST PUSH1 0x0 DUP1 REVERT JUMPDEST PUSH1 0x0 PUSH1 0x1F NOT PUSH1 0x1F DUP4 ADD AND SWAP1 POP SWAP2 SWAP1 POP JUMP JUMPDEST PUSH2 0xA34 DUP2 PUSH2 0x88C JUMP JUMPDEST DUP2 EQ PUSH2 0xA3F JUMPI PUSH1 0x0 DUP1 REVERT JUMPDEST POP JUMP INVALID LOG2 PUSH5 0x6970667358 0x22 SLT KECCAK256 0x4F 0x27 DIV 0x5E 0xF8 NOT MSTORE 0x23 PUSH12 0x11585564B8CC1D85FCD4A5D8 0xEE CALLDATASIZE 0xD3 0xAD OR DUP14 GASLIMIT GASLIMIT PUSH26 0xA72964736F6C6343000807003300000000000000000000000000 "
				},
				"gasEstimates": {
					"creation": {
						"codeDepositCost": "536000",
						"executionCost": "5574",
						"totalCost": "541574"
					},
					"external": {
						"checkValidProfile()": "2696",
						"createProfile(string,string,string,address)": "infinite",
						"deleteProfile()": "24622",
						"getName()": "infinite",
						"numProfile()": "2407",
						"updateProfileName(string)": "infinite"
					}
				},
				"methodIdentifiers": {
					"checkValidProfile()": "3ae7dc1a",
					"createProfile(string,string,string,address)": "22a9d1bc",
					"deleteProfile()": "6d4540eb",
					"getName()": "17d7de7c",
					"numProfile()": "16913469",
					"updateProfileName(string)": "ee8b7cd9"
				}
			},
			"userdoc": {
				"kind": "user",
				"methods": {},
				"version": 1
			}
		}
	}
}