{
	"contracts/Conflict.sol": {
		"Conflict": {
			"abi": [
				{
					"anonymous": false,
					"inputs": [
						{
							"indexed": false,
							"internalType": "uint256",
							"name": "projectNumber",
							"type": "uint256"
						},
						{
							"indexed": false,
							"internalType": "uint256",
							"name": "serviceNumber",
							"type": "uint256"
						},
						{
							"indexed": false,
							"internalType": "uint256",
							"name": "milestoneNumber",
							"type": "uint256"
						},
						{
							"indexed": false,
							"internalType": "address",
							"name": "serviceRequester",
							"type": "address"
						},
						{
							"indexed": false,
							"internalType": "address",
							"name": "serviceProvider",
							"type": "address"
						},
						{
							"indexed": false,
							"internalType": "uint256",
							"name": "totalVoters",
							"type": "uint256"
						}
					],
					"name": "conflictCreated",
					"type": "event"
				},
				{
					"anonymous": false,
					"inputs": [
						{
							"indexed": false,
							"internalType": "uint256",
							"name": "projectNumber",
							"type": "uint256"
						},
						{
							"indexed": false,
							"internalType": "uint256",
							"name": "serviceNumber",
							"type": "uint256"
						},
						{
							"indexed": false,
							"internalType": "uint256",
							"name": "milestoneNumber",
							"type": "uint256"
						},
						{
							"indexed": false,
							"internalType": "address",
							"name": "serviceProvider",
							"type": "address"
						}
					],
					"name": "conflictRaised",
					"type": "event"
				},
				{
					"anonymous": false,
					"inputs": [
						{
							"indexed": false,
							"internalType": "uint256",
							"name": "projectNumber",
							"type": "uint256"
						},
						{
							"indexed": false,
							"internalType": "uint256",
							"name": "serviceNumber",
							"type": "uint256"
						},
						{
							"indexed": false,
							"internalType": "uint256",
							"name": "milestoneNumber",
							"type": "uint256"
						},
						{
							"indexed": false,
							"internalType": "uint8",
							"name": "result",
							"type": "uint8"
						}
					],
					"name": "conflictResult",
					"type": "event"
				},
				{
					"anonymous": false,
					"inputs": [
						{
							"indexed": false,
							"internalType": "uint256",
							"name": "projectNumber",
							"type": "uint256"
						},
						{
							"indexed": false,
							"internalType": "uint256",
							"name": "serviceNumber",
							"type": "uint256"
						},
						{
							"indexed": false,
							"internalType": "uint256",
							"name": "milestoneNumber",
							"type": "uint256"
						},
						{
							"indexed": false,
							"internalType": "address",
							"name": "voter",
							"type": "address"
						},
						{
							"indexed": false,
							"internalType": "uint8",
							"name": "vote",
							"type": "uint8"
						}
					],
					"name": "conflictVoted",
					"type": "event"
				},
				{
					"inputs": [
						{
							"internalType": "uint256",
							"name": "projectNumber",
							"type": "uint256"
						},
						{
							"internalType": "uint256",
							"name": "serviceNumber",
							"type": "uint256"
						},
						{
							"internalType": "uint256",
							"name": "milestoneNumber",
							"type": "uint256"
						},
						{
							"internalType": "string",
							"name": "title",
							"type": "string"
						},
						{
							"internalType": "string",
							"name": "description",
							"type": "string"
						},
						{
							"internalType": "address payable",
							"name": "serviceRequester",
							"type": "address"
						},
						{
							"internalType": "address payable",
							"name": "serviceProvider",
							"type": "address"
						},
						{
							"internalType": "uint256",
							"name": "totalVoters",
							"type": "uint256"
						}
					],
					"name": "createConflict",
					"outputs": [],
					"stateMutability": "nonpayable",
					"type": "function"
				},
				{
					"inputs": [
						{
							"internalType": "uint256",
							"name": "projectNumber",
							"type": "uint256"
						},
						{
							"internalType": "uint256",
							"name": "serviceNumber",
							"type": "uint256"
						},
						{
							"internalType": "uint256",
							"name": "milestoneNumber",
							"type": "uint256"
						}
					],
					"name": "deleteConflict",
					"outputs": [],
					"stateMutability": "nonpayable",
					"type": "function"
				},
				{
					"inputs": [
						{
							"internalType": "uint256",
							"name": "projectNumber",
							"type": "uint256"
						},
						{
							"internalType": "uint256",
							"name": "serviceNumber",
							"type": "uint256"
						},
						{
							"internalType": "uint256",
							"name": "milestoneNumber",
							"type": "uint256"
						}
					],
					"name": "doesConflictExist",
					"outputs": [
						{
							"internalType": "bool",
							"name": "",
							"type": "bool"
						}
					],
					"stateMutability": "view",
					"type": "function"
				},
				{
					"inputs": [
						{
							"internalType": "uint256",
							"name": "projectNumber",
							"type": "uint256"
						},
						{
							"internalType": "uint256",
							"name": "serviceNumber",
							"type": "uint256"
						},
						{
							"internalType": "uint256",
							"name": "milestoneNumber",
							"type": "uint256"
						}
					],
					"name": "getConflictStatus",
					"outputs": [
						{
							"internalType": "enum States.ConflictStatus",
							"name": "",
							"type": "uint8"
						}
					],
					"stateMutability": "view",
					"type": "function"
				},
				{
					"inputs": [
						{
							"internalType": "uint256",
							"name": "projectNumber",
							"type": "uint256"
						},
						{
							"internalType": "uint256",
							"name": "serviceNumber",
							"type": "uint256"
						},
						{
							"internalType": "uint256",
							"name": "milestoneNumber",
							"type": "uint256"
						}
					],
					"name": "getResults",
					"outputs": [
						{
							"internalType": "uint256",
							"name": "",
							"type": "uint256"
						}
					],
					"stateMutability": "view",
					"type": "function"
				},
				{
					"inputs": [
						{
							"internalType": "uint256",
							"name": "projectNumber",
							"type": "uint256"
						},
						{
							"internalType": "uint256",
							"name": "serviceNumber",
							"type": "uint256"
						},
						{
							"internalType": "uint256",
							"name": "milestoneNumber",
							"type": "uint256"
						}
					],
					"name": "getVotesCollected",
					"outputs": [
						{
							"internalType": "uint256",
							"name": "",
							"type": "uint256"
						}
					],
					"stateMutability": "view",
					"type": "function"
				},
				{
					"inputs": [
						{
							"internalType": "uint256",
							"name": "projectNumber",
							"type": "uint256"
						},
						{
							"internalType": "uint256",
							"name": "serviceNumber",
							"type": "uint256"
						},
						{
							"internalType": "uint256",
							"name": "milestoneNumber",
							"type": "uint256"
						}
					],
					"name": "getVotesforProvider",
					"outputs": [
						{
							"internalType": "uint256",
							"name": "",
							"type": "uint256"
						}
					],
					"stateMutability": "view",
					"type": "function"
				},
				{
					"inputs": [
						{
							"internalType": "uint256",
							"name": "projectNumber",
							"type": "uint256"
						},
						{
							"internalType": "uint256",
							"name": "serviceNumber",
							"type": "uint256"
						},
						{
							"internalType": "uint256",
							"name": "milestoneNumber",
							"type": "uint256"
						}
					],
					"name": "getVotesforRequester",
					"outputs": [
						{
							"internalType": "uint256",
							"name": "",
							"type": "uint256"
						}
					],
					"stateMutability": "view",
					"type": "function"
				},
				{
					"inputs": [
						{
							"internalType": "uint256",
							"name": "projectNumber",
							"type": "uint256"
						},
						{
							"internalType": "uint256",
							"name": "serviceNumber",
							"type": "uint256"
						},
						{
							"internalType": "uint256",
							"name": "milestoneNumber",
							"type": "uint256"
						}
					],
					"name": "startVote",
					"outputs": [],
					"stateMutability": "nonpayable",
					"type": "function"
				},
				{
					"inputs": [
						{
							"internalType": "uint256",
							"name": "projectNumber",
							"type": "uint256"
						},
						{
							"internalType": "uint256",
							"name": "serviceNumber",
							"type": "uint256"
						},
						{
							"internalType": "uint256",
							"name": "milestoneNumber",
							"type": "uint256"
						},
						{
							"internalType": "string",
							"name": "title",
							"type": "string"
						},
						{
							"internalType": "string",
							"name": "description",
							"type": "string"
						},
						{
							"internalType": "address payable",
							"name": "",
							"type": "address"
						}
					],
					"name": "updateConflict",
					"outputs": [],
					"stateMutability": "nonpayable",
					"type": "function"
				},
				{
					"inputs": [
						{
							"internalType": "uint256",
							"name": "projectNumber",
							"type": "uint256"
						},
						{
							"internalType": "uint256",
							"name": "serviceNumber",
							"type": "uint256"
						},
						{
							"internalType": "uint256",
							"name": "milestoneNumber",
							"type": "uint256"
						},
						{
							"internalType": "address",
							"name": "_from",
							"type": "address"
						},
						{
							"internalType": "uint8",
							"name": "vote",
							"type": "uint8"
						}
					],
					"name": "voteConflict",
					"outputs": [],
					"stateMutability": "nonpayable",
					"type": "function"
				}
			],
			"devdoc": {
				"kind": "dev",
				"methods": {},
				"version": 1
			},
			"evm": {
				"assembly": "    /* \"contracts/Conflict.sol\":192:9454  contract Conflict {... */\n  mstore(0x40, 0x80)\n  callvalue\n  dup1\n  iszero\n  tag_1\n  jumpi\n  0x00\n  dup1\n  revert\ntag_1:\n  pop\n  dataSize(sub_0)\n  dup1\n  dataOffset(sub_0)\n  0x00\n  codecopy\n  0x00\n  return\nstop\n\nsub_0: assembly {\n        /* \"contracts/Conflict.sol\":192:9454  contract Conflict {... */\n      mstore(0x40, 0x80)\n      callvalue\n      dup1\n      iszero\n      tag_1\n      jumpi\n      0x00\n      dup1\n      revert\n    tag_1:\n      pop\n      jumpi(tag_2, lt(calldatasize, 0x04))\n      shr(0xe0, calldataload(0x00))\n      dup1\n      0x9ac78879\n      gt\n      tag_14\n      jumpi\n      dup1\n      0x9ac78879\n      eq\n      tag_8\n      jumpi\n      dup1\n      0x9c87a5e9\n      eq\n      tag_9\n      jumpi\n      dup1\n      0xc171bdf7\n      eq\n      tag_10\n      jumpi\n      dup1\n      0xcb4389ce\n      eq\n      tag_11\n      jumpi\n      dup1\n      0xe3d87718\n      eq\n      tag_12\n      jumpi\n      dup1\n      0xe62fac27\n      eq\n      tag_13\n      jumpi\n      jump(tag_2)\n    tag_14:\n      dup1\n      0x3f489f\n      eq\n      tag_3\n      jumpi\n      dup1\n      0x0366cef2\n      eq\n      tag_4\n      jumpi\n      dup1\n      0x3c45fe31\n      eq\n      tag_5\n      jumpi\n      dup1\n      0x79712b01\n      eq\n      tag_6\n      jumpi\n      dup1\n      0x9332a07e\n      eq\n      tag_7\n      jumpi\n    tag_2:\n      0x00\n      dup1\n      revert\n        /* \"contracts/Conflict.sol\":4997:5464  function deleteConflict(uint256 projectNumber, uint256 serviceNumber, uint256 milestoneNumber) external ... */\n    tag_3:\n      tag_15\n      0x04\n      dup1\n      calldatasize\n      sub\n      dup2\n      add\n      swap1\n      tag_16\n      swap2\n      swap1\n      tag_17\n      jump\t// in\n    tag_16:\n      tag_18\n      jump\t// in\n    tag_15:\n      stop\n        /* \"contracts/Conflict.sol\":7670:8301  function getResults(uint256 projectNumber, uint256 serviceNumber, uint256 milestoneNumber) public view returns (uint) {... */\n    tag_4:\n      tag_19\n      0x04\n      dup1\n      calldatasize\n      sub\n      dup2\n      add\n      swap1\n      tag_20\n      swap2\n      swap1\n      tag_17\n      jump\t// in\n    tag_20:\n      tag_21\n      jump\t// in\n    tag_19:\n      mload(0x40)\n      tag_22\n      swap2\n      swap1\n      tag_23\n      jump\t// in\n    tag_22:\n      mload(0x40)\n      dup1\n      swap2\n      sub\n      swap1\n      return\n        /* \"contracts/Conflict.sol\":8550:8773  function getVotesCollected(uint256 projectNumber, uint256 serviceNumber, uint256 milestoneNumber) public view returns (uint256) {... */\n    tag_5:\n      tag_24\n      0x04\n      dup1\n      calldatasize\n      sub\n      dup2\n      add\n      swap1\n      tag_25\n      swap2\n      swap1\n      tag_17\n      jump\t// in\n    tag_25:\n      tag_26\n      jump\t// in\n    tag_24:\n      mload(0x40)\n      tag_27\n      swap2\n      swap1\n      tag_23\n      jump\t// in\n    tag_27:\n      mload(0x40)\n      dup1\n      swap2\n      sub\n      swap1\n      return\n        /* \"contracts/Conflict.sol\":9241:9451  function doesConflictExist(uint256 projectNumber, uint256 serviceNumber, uint256 milestoneNumber) public view returns (bool){... */\n    tag_6:\n      tag_28\n      0x04\n      dup1\n      calldatasize\n      sub\n      dup2\n      add\n      swap1\n      tag_29\n      swap2\n      swap1\n      tag_17\n      jump\t// in\n    tag_29:\n      tag_30\n      jump\t// in\n    tag_28:\n      mload(0x40)\n      tag_31\n      swap2\n      swap1\n      tag_32\n      jump\t// in\n    tag_31:\n      mload(0x40)\n      dup1\n      swap2\n      sub\n      swap1\n      return\n        /* \"contracts/Conflict.sol\":4326:4949  function updateConflict(uint256 projectNumber, uint256 serviceNumber, uint256 milestoneNumber, string memory title, string memory description, address payable ) external ... */\n    tag_7:\n      tag_33\n      0x04\n      dup1\n      calldatasize\n      sub\n      dup2\n      add\n      swap1\n      tag_34\n      swap2\n      swap1\n      tag_35\n      jump\t// in\n    tag_34:\n      tag_36\n      jump\t// in\n    tag_33:\n      stop\n        /* \"contracts/Conflict.sol\":9011:9235  function getVotesforProvider(uint256 projectNumber, uint256 serviceNumber, uint256 milestoneNumber) public view returns (uint256) {... */\n    tag_8:\n      tag_37\n      0x04\n      dup1\n      calldatasize\n      sub\n      dup2\n      add\n      swap1\n      tag_38\n      swap2\n      swap1\n      tag_17\n      jump\t// in\n    tag_38:\n      tag_39\n      jump\t// in\n    tag_37:\n      mload(0x40)\n      tag_40\n      swap2\n      swap1\n      tag_23\n      jump\t// in\n    tag_40:\n      mload(0x40)\n      dup1\n      swap2\n      sub\n      swap1\n      return\n        /* \"contracts/Conflict.sol\":5513:5882  function startVote(uint256 projectNumber,uint256 serviceNumber, uint256 milestoneNumber) external ... */\n    tag_9:\n      tag_41\n      0x04\n      dup1\n      calldatasize\n      sub\n      dup2\n      add\n      swap1\n      tag_42\n      swap2\n      swap1\n      tag_17\n      jump\t// in\n    tag_42:\n      tag_43\n      jump\t// in\n    tag_41:\n      stop\n        /* \"contracts/Conflict.sol\":5927:7634  function voteConflict(uint256 projectNumber, uint256 serviceNumber, uint256 milestoneNumber, address _from, uint8 vote) public ... */\n    tag_10:\n      tag_44\n      0x04\n      dup1\n      calldatasize\n      sub\n      dup2\n      add\n      swap1\n      tag_45\n      swap2\n      swap1\n      tag_46\n      jump\t// in\n    tag_45:\n      tag_47\n      jump\t// in\n    tag_44:\n      stop\n        /* \"contracts/Conflict.sol\":8307:8544  function getConflictStatus(uint256 projectNumber, uint256 serviceNumber, uint256 milestoneNumber) public view returns (States.ConflictStatus) {... */\n    tag_11:\n      tag_48\n      0x04\n      dup1\n      calldatasize\n      sub\n      dup2\n      add\n      swap1\n      tag_49\n      swap2\n      swap1\n      tag_17\n      jump\t// in\n    tag_49:\n      tag_50\n      jump\t// in\n    tag_48:\n      mload(0x40)\n      tag_51\n      swap2\n      swap1\n      tag_52\n      jump\t// in\n    tag_51:\n      mload(0x40)\n      dup1\n      swap2\n      sub\n      swap1\n      return\n        /* \"contracts/Conflict.sol\":8779:9005  function getVotesforRequester(uint256 projectNumber, uint256 serviceNumber, uint256 milestoneNumber) public view returns (uint256) {... */\n    tag_12:\n      tag_53\n      0x04\n      dup1\n      calldatasize\n      sub\n      dup2\n      add\n      swap1\n      tag_54\n      swap2\n      swap1\n      tag_17\n      jump\t// in\n    tag_54:\n      tag_55\n      jump\t// in\n    tag_53:\n      mload(0x40)\n      tag_56\n      swap2\n      swap1\n      tag_23\n      jump\t// in\n    tag_56:\n      mload(0x40)\n      dup1\n      swap2\n      sub\n      swap1\n      return\n        /* \"contracts/Conflict.sol\":2891:4279  function createConflict(uint256 projectNumber, uint256 serviceNumber, uint256 milestoneNumber, string memory title, string memory description, address payable serviceRequester, address payable serviceProvider, uint256 totalVoters) public ... */\n    tag_13:\n      tag_57\n      0x04\n      dup1\n      calldatasize\n      sub\n      dup2\n      add\n      swap1\n      tag_58\n      swap2\n      swap1\n      tag_59\n      jump\t// in\n    tag_58:\n      tag_60\n      jump\t// in\n    tag_57:\n      stop\n        /* \"contracts/Conflict.sol\":4997:5464  function deleteConflict(uint256 projectNumber, uint256 serviceNumber, uint256 milestoneNumber) external ... */\n    tag_18:\n        /* \"contracts/Conflict.sol\":5126:5139  projectNumber */\n      dup3\n        /* \"contracts/Conflict.sol\":5141:5154  serviceNumber */\n      dup3\n        /* \"contracts/Conflict.sol\":5156:5171  milestoneNumber */\n      dup3\n        /* \"contracts/Conflict.sol\":1667:1671  true */\n      0x01\n        /* \"contracts/Conflict.sol\":1599:1671  doesConflictExist(projectNumber, serviceNumber, milestoneNumber) == true */\n      iszero\n      iszero\n        /* \"contracts/Conflict.sol\":1599:1663  doesConflictExist(projectNumber, serviceNumber, milestoneNumber) */\n      tag_62\n        /* \"contracts/Conflict.sol\":1617:1630  projectNumber */\n      dup5\n        /* \"contracts/Conflict.sol\":1632:1645  serviceNumber */\n      dup5\n        /* \"contracts/Conflict.sol\":1647:1662  milestoneNumber */\n      dup5\n        /* \"contracts/Conflict.sol\":1599:1616  doesConflictExist */\n      tag_30\n        /* \"contracts/Conflict.sol\":1599:1663  doesConflictExist(projectNumber, serviceNumber, milestoneNumber) */\n      jump\t// in\n    tag_62:\n        /* \"contracts/Conflict.sol\":1599:1671  doesConflictExist(projectNumber, serviceNumber, milestoneNumber) == true */\n      iszero\n      iszero\n      eq\n        /* \"contracts/Conflict.sol\":1591:1705  require(doesConflictExist(projectNumber, serviceNumber, milestoneNumber) == true, \"This Conflict does not exist.\") */\n      tag_63\n      jumpi\n      mload(0x40)\n      0x08c379a000000000000000000000000000000000000000000000000000000000\n      dup2\n      mstore\n      0x04\n      add\n      tag_64\n      swap1\n      tag_65\n      jump\t// in\n    tag_64:\n      mload(0x40)\n      dup1\n      swap2\n      sub\n      swap1\n      revert\n    tag_63:\n        /* \"contracts/Conflict.sol\":5189:5202  projectNumber */\n      dup6\n        /* \"contracts/Conflict.sol\":5204:5217  serviceNumber */\n      dup6\n        /* \"contracts/Conflict.sol\":5219:5234  milestoneNumber */\n      dup6\n        /* \"contracts/Conflict.sol\":5235:5264  States.ConflictStatus.created */\n      0x00\n        /* \"contracts/Conflict.sol\":1938:1943  state */\n      dup1\n        /* \"contracts/Conflict.sol\":1863:1943  conflicts[projectNumber][serviceNumber][milestoneNumber].conflictStatus == state */\n      0x03\n      dup2\n      gt\n      iszero\n      tag_67\n      jumpi\n      tag_68\n      tag_69\n      jump\t// in\n    tag_68:\n    tag_67:\n        /* \"contracts/Conflict.sol\":1863:1872  conflicts */\n      0x00\n        /* \"contracts/Conflict.sol\":1863:1887  conflicts[projectNumber] */\n      dup1\n        /* \"contracts/Conflict.sol\":1873:1886  projectNumber */\n      dup7\n        /* \"contracts/Conflict.sol\":1863:1887  conflicts[projectNumber] */\n      dup2\n      mstore\n      0x20\n      add\n      swap1\n      dup2\n      mstore\n      0x20\n      add\n      0x00\n      keccak256\n        /* \"contracts/Conflict.sol\":1863:1902  conflicts[projectNumber][serviceNumber] */\n      0x00\n        /* \"contracts/Conflict.sol\":1888:1901  serviceNumber */\n      dup6\n        /* \"contracts/Conflict.sol\":1863:1902  conflicts[projectNumber][serviceNumber] */\n      dup2\n      mstore\n      0x20\n      add\n      swap1\n      dup2\n      mstore\n      0x20\n      add\n      0x00\n      keccak256\n        /* \"contracts/Conflict.sol\":1863:1919  conflicts[projectNumber][serviceNumber][milestoneNumber] */\n      0x00\n        /* \"contracts/Conflict.sol\":1903:1918  milestoneNumber */\n      dup5\n        /* \"contracts/Conflict.sol\":1863:1919  conflicts[projectNumber][serviceNumber][milestoneNumber] */\n      dup2\n      mstore\n      0x20\n      add\n      swap1\n      dup2\n      mstore\n      0x20\n      add\n      0x00\n      keccak256\n        /* \"contracts/Conflict.sol\":1863:1934  conflicts[projectNumber][serviceNumber][milestoneNumber].conflictStatus */\n      0x06\n      add\n      0x14\n      swap1\n      sload\n      swap1\n      0x0100\n      exp\n      swap1\n      div\n      0xff\n      and\n        /* \"contracts/Conflict.sol\":1863:1943  conflicts[projectNumber][serviceNumber][milestoneNumber].conflictStatus == state */\n      0x03\n      dup2\n      gt\n      iszero\n      tag_70\n      jumpi\n      tag_71\n      tag_69\n      jump\t// in\n    tag_71:\n    tag_70:\n      eq\n        /* \"contracts/Conflict.sol\":1855:1980  require(conflicts[projectNumber][serviceNumber][milestoneNumber].conflictStatus == state, \"Cannot carry out this operation!\") */\n      tag_72\n      jumpi\n      mload(0x40)\n      0x08c379a000000000000000000000000000000000000000000000000000000000\n      dup2\n      mstore\n      0x04\n      add\n      tag_73\n      swap1\n      tag_74\n      jump\t// in\n    tag_73:\n      mload(0x40)\n      dup1\n      swap2\n      sub\n      swap1\n      revert\n    tag_72:\n        /* \"contracts/Conflict.sol\":5345:5350  false */\n      0x00\n        /* \"contracts/Conflict.sol\":5280:5289  conflicts */\n      dup1\n        /* \"contracts/Conflict.sol\":5280:5304  conflicts[projectNumber] */\n      0x00\n        /* \"contracts/Conflict.sol\":5290:5303  projectNumber */\n      dup13\n        /* \"contracts/Conflict.sol\":5280:5304  conflicts[projectNumber] */\n      dup2\n      mstore\n      0x20\n      add\n      swap1\n      dup2\n      mstore\n      0x20\n      add\n      0x00\n      keccak256\n        /* \"contracts/Conflict.sol\":5280:5319  conflicts[projectNumber][serviceNumber] */\n      0x00\n        /* \"contracts/Conflict.sol\":5305:5318  serviceNumber */\n      dup12\n        /* \"contracts/Conflict.sol\":5280:5319  conflicts[projectNumber][serviceNumber] */\n      dup2\n      mstore\n      0x20\n      add\n      swap1\n      dup2\n      mstore\n      0x20\n      add\n      0x00\n      keccak256\n        /* \"contracts/Conflict.sol\":5280:5336  conflicts[projectNumber][serviceNumber][milestoneNumber] */\n      0x00\n        /* \"contracts/Conflict.sol\":5320:5335  milestoneNumber */\n      dup11\n        /* \"contracts/Conflict.sol\":5280:5336  conflicts[projectNumber][serviceNumber][milestoneNumber] */\n      dup2\n      mstore\n      0x20\n      add\n      swap1\n      dup2\n      mstore\n      0x20\n      add\n      0x00\n      keccak256\n        /* \"contracts/Conflict.sol\":5280:5342  conflicts[projectNumber][serviceNumber][milestoneNumber].exist */\n      0x0b\n      add\n      0x00\n        /* \"contracts/Conflict.sol\":5280:5350  conflicts[projectNumber][serviceNumber][milestoneNumber].exist = false */\n      0x0100\n      exp\n      dup2\n      sload\n      dup2\n      0xff\n      mul\n      not\n      and\n      swap1\n      dup4\n      iszero\n      iszero\n      mul\n      or\n      swap1\n      sstore\n      pop\n        /* \"contracts/Conflict.sol\":5362:5451  setState(projectNumber, serviceNumber, milestoneNumber, States.ConflictStatus.terminated) */\n      tag_76\n        /* \"contracts/Conflict.sol\":5371:5384  projectNumber */\n      dup11\n        /* \"contracts/Conflict.sol\":5386:5399  serviceNumber */\n      dup11\n        /* \"contracts/Conflict.sol\":5401:5416  milestoneNumber */\n      dup11\n        /* \"contracts/Conflict.sol\":5418:5450  States.ConflictStatus.terminated */\n      0x03\n        /* \"contracts/Conflict.sol\":5362:5370  setState */\n      tag_77\n        /* \"contracts/Conflict.sol\":5362:5451  setState(projectNumber, serviceNumber, milestoneNumber, States.ConflictStatus.terminated) */\n      jump\t// in\n    tag_76:\n        /* \"contracts/Conflict.sol\":1715:1716  _ */\n      pop\n      pop\n      pop\n      pop\n        /* \"contracts/Conflict.sol\":4997:5464  function deleteConflict(uint256 projectNumber, uint256 serviceNumber, uint256 milestoneNumber) external ... */\n      pop\n      pop\n      pop\n      pop\n      pop\n      pop\n      jump\t// out\n        /* \"contracts/Conflict.sol\":7670:8301  function getResults(uint256 projectNumber, uint256 serviceNumber, uint256 milestoneNumber) public view returns (uint) {... */\n    tag_21:\n        /* \"contracts/Conflict.sol\":7782:7786  uint */\n      0x00\n        /* \"contracts/Conflict.sol\":7881:7890  conflicts */\n      dup1\n        /* \"contracts/Conflict.sol\":7881:7905  conflicts[projectNumber] */\n      0x00\n        /* \"contracts/Conflict.sol\":7891:7904  projectNumber */\n      dup6\n        /* \"contracts/Conflict.sol\":7881:7905  conflicts[projectNumber] */\n      dup2\n      mstore\n      0x20\n      add\n      swap1\n      dup2\n      mstore\n      0x20\n      add\n      0x00\n      keccak256\n        /* \"contracts/Conflict.sol\":7881:7920  conflicts[projectNumber][serviceNumber] */\n      0x00\n        /* \"contracts/Conflict.sol\":7906:7919  serviceNumber */\n      dup5\n        /* \"contracts/Conflict.sol\":7881:7920  conflicts[projectNumber][serviceNumber] */\n      dup2\n      mstore\n      0x20\n      add\n      swap1\n      dup2\n      mstore\n      0x20\n      add\n      0x00\n      keccak256\n        /* \"contracts/Conflict.sol\":7881:7937  conflicts[projectNumber][serviceNumber][milestoneNumber] */\n      0x00\n        /* \"contracts/Conflict.sol\":7921:7936  milestoneNumber */\n      dup4\n        /* \"contracts/Conflict.sol\":7881:7937  conflicts[projectNumber][serviceNumber][milestoneNumber] */\n      dup2\n      mstore\n      0x20\n      add\n      swap1\n      dup2\n      mstore\n      0x20\n      add\n      0x00\n      keccak256\n        /* \"contracts/Conflict.sol\":7881:7944  conflicts[projectNumber][serviceNumber][milestoneNumber].voters */\n      0x07\n      add\n      sload\n        /* \"contracts/Conflict.sol\":7806:7815  conflicts */\n      0x00\n        /* \"contracts/Conflict.sol\":7806:7830  conflicts[projectNumber] */\n      dup1\n        /* \"contracts/Conflict.sol\":7816:7829  projectNumber */\n      dup7\n        /* \"contracts/Conflict.sol\":7806:7830  conflicts[projectNumber] */\n      dup2\n      mstore\n      0x20\n      add\n      swap1\n      dup2\n      mstore\n      0x20\n      add\n      0x00\n      keccak256\n        /* \"contracts/Conflict.sol\":7806:7845  conflicts[projectNumber][serviceNumber] */\n      0x00\n        /* \"contracts/Conflict.sol\":7831:7844  serviceNumber */\n      dup6\n        /* \"contracts/Conflict.sol\":7806:7845  conflicts[projectNumber][serviceNumber] */\n      dup2\n      mstore\n      0x20\n      add\n      swap1\n      dup2\n      mstore\n      0x20\n      add\n      0x00\n      keccak256\n        /* \"contracts/Conflict.sol\":7806:7862  conflicts[projectNumber][serviceNumber][milestoneNumber] */\n      0x00\n        /* \"contracts/Conflict.sol\":7846:7861  milestoneNumber */\n      dup5\n        /* \"contracts/Conflict.sol\":7806:7862  conflicts[projectNumber][serviceNumber][milestoneNumber] */\n      dup2\n      mstore\n      0x20\n      add\n      swap1\n      dup2\n      mstore\n      0x20\n      add\n      0x00\n      keccak256\n        /* \"contracts/Conflict.sol\":7806:7877  conflicts[projectNumber][serviceNumber][milestoneNumber].votesCollected */\n      0x08\n      add\n      sload\n        /* \"contracts/Conflict.sol\":7806:7944  conflicts[projectNumber][serviceNumber][milestoneNumber].votesCollected == conflicts[projectNumber][serviceNumber][milestoneNumber].voters */\n      eq\n        /* \"contracts/Conflict.sol\":7798:8023  require(conflicts[projectNumber][serviceNumber][milestoneNumber].votesCollected == conflicts[projectNumber][serviceNumber][milestoneNumber].voters, \"Not everyone has voted, please prompt all other members of project to vote\") */\n      tag_79\n      jumpi\n      mload(0x40)\n      0x08c379a000000000000000000000000000000000000000000000000000000000\n      dup2\n      mstore\n      0x04\n      add\n      tag_80\n      swap1\n      tag_81\n      jump\t// in\n    tag_80:\n      mload(0x40)\n      dup1\n      swap2\n      sub\n      swap1\n      revert\n    tag_79:\n        /* \"contracts/Conflict.sol\":8116:8147  States.ConflictStatus.completed */\n      0x02\n        /* \"contracts/Conflict.sol\":8041:8147  conflicts[projectNumber][serviceNumber][milestoneNumber].conflictStatus == States.ConflictStatus.completed */\n      0x03\n      dup2\n      gt\n      iszero\n      tag_82\n      jumpi\n      tag_83\n      tag_69\n      jump\t// in\n    tag_83:\n    tag_82:\n        /* \"contracts/Conflict.sol\":8041:8050  conflicts */\n      0x00\n        /* \"contracts/Conflict.sol\":8041:8065  conflicts[projectNumber] */\n      dup1\n        /* \"contracts/Conflict.sol\":8051:8064  projectNumber */\n      dup7\n        /* \"contracts/Conflict.sol\":8041:8065  conflicts[projectNumber] */\n      dup2\n      mstore\n      0x20\n      add\n      swap1\n      dup2\n      mstore\n      0x20\n      add\n      0x00\n      keccak256\n        /* \"contracts/Conflict.sol\":8041:8080  conflicts[projectNumber][serviceNumber] */\n      0x00\n        /* \"contracts/Conflict.sol\":8066:8079  serviceNumber */\n      dup6\n        /* \"contracts/Conflict.sol\":8041:8080  conflicts[projectNumber][serviceNumber] */\n      dup2\n      mstore\n      0x20\n      add\n      swap1\n      dup2\n      mstore\n      0x20\n      add\n      0x00\n      keccak256\n        /* \"contracts/Conflict.sol\":8041:8097  conflicts[projectNumber][serviceNumber][milestoneNumber] */\n      0x00\n        /* \"contracts/Conflict.sol\":8081:8096  milestoneNumber */\n      dup5\n        /* \"contracts/Conflict.sol\":8041:8097  conflicts[projectNumber][serviceNumber][milestoneNumber] */\n      dup2\n      mstore\n      0x20\n      add\n      swap1\n      dup2\n      mstore\n      0x20\n      add\n      0x00\n      keccak256\n        /* \"contracts/Conflict.sol\":8041:8112  conflicts[projectNumber][serviceNumber][milestoneNumber].conflictStatus */\n      0x06\n      add\n      0x14\n      swap1\n      sload\n      swap1\n      0x0100\n      exp\n      swap1\n      div\n      0xff\n      and\n        /* \"contracts/Conflict.sol\":8041:8147  conflicts[projectNumber][serviceNumber][milestoneNumber].conflictStatus == States.ConflictStatus.completed */\n      0x03\n      dup2\n      gt\n      iszero\n      tag_84\n      jumpi\n      tag_85\n      tag_69\n      jump\t// in\n    tag_85:\n    tag_84:\n      eq\n        /* \"contracts/Conflict.sol\":8033:8213  require(conflicts[projectNumber][serviceNumber][milestoneNumber].conflictStatus == States.ConflictStatus.completed, \"Voting has not been completed yet. Please wait for it to end.\") */\n      tag_86\n      jumpi\n      mload(0x40)\n      0x08c379a000000000000000000000000000000000000000000000000000000000\n      dup2\n      mstore\n      0x04\n      add\n      tag_87\n      swap1\n      tag_88\n      jump\t// in\n    tag_87:\n      mload(0x40)\n      dup1\n      swap2\n      sub\n      swap1\n      revert\n    tag_86:\n        /* \"contracts/Conflict.sol\":8231:8240  conflicts */\n      0x00\n        /* \"contracts/Conflict.sol\":8231:8255  conflicts[projectNumber] */\n      dup1\n        /* \"contracts/Conflict.sol\":8241:8254  projectNumber */\n      dup6\n        /* \"contracts/Conflict.sol\":8231:8255  conflicts[projectNumber] */\n      dup2\n      mstore\n      0x20\n      add\n      swap1\n      dup2\n      mstore\n      0x20\n      add\n      0x00\n      keccak256\n        /* \"contracts/Conflict.sol\":8231:8270  conflicts[projectNumber][serviceNumber] */\n      0x00\n        /* \"contracts/Conflict.sol\":8256:8269  serviceNumber */\n      dup5\n        /* \"contracts/Conflict.sol\":8231:8270  conflicts[projectNumber][serviceNumber] */\n      dup2\n      mstore\n      0x20\n      add\n      swap1\n      dup2\n      mstore\n      0x20\n      add\n      0x00\n      keccak256\n        /* \"contracts/Conflict.sol\":8231:8287  conflicts[projectNumber][serviceNumber][milestoneNumber] */\n      0x00\n        /* \"contracts/Conflict.sol\":8271:8286  milestoneNumber */\n      dup4\n        /* \"contracts/Conflict.sol\":8231:8287  conflicts[projectNumber][serviceNumber][milestoneNumber] */\n      dup2\n      mstore\n      0x20\n      add\n      swap1\n      dup2\n      mstore\n      0x20\n      add\n      0x00\n      keccak256\n        /* \"contracts/Conflict.sol\":8231:8294  conflicts[projectNumber][serviceNumber][milestoneNumber].result */\n      0x0b\n      add\n      0x01\n      swap1\n      sload\n      swap1\n      0x0100\n      exp\n      swap1\n      div\n      0xff\n      and\n        /* \"contracts/Conflict.sol\":8224:8294  return conflicts[projectNumber][serviceNumber][milestoneNumber].result */\n      0xff\n      and\n      swap1\n      pop\n        /* \"contracts/Conflict.sol\":7670:8301  function getResults(uint256 projectNumber, uint256 serviceNumber, uint256 milestoneNumber) public view returns (uint) {... */\n      swap4\n      swap3\n      pop\n      pop\n      pop\n      jump\t// out\n        /* \"contracts/Conflict.sol\":8550:8773  function getVotesCollected(uint256 projectNumber, uint256 serviceNumber, uint256 milestoneNumber) public view returns (uint256) {... */\n    tag_26:\n        /* \"contracts/Conflict.sol\":8669:8676  uint256 */\n      0x00\n        /* \"contracts/Conflict.sol\":8695:8704  conflicts */\n      dup1\n        /* \"contracts/Conflict.sol\":8695:8719  conflicts[projectNumber] */\n      0x00\n        /* \"contracts/Conflict.sol\":8705:8718  projectNumber */\n      dup6\n        /* \"contracts/Conflict.sol\":8695:8719  conflicts[projectNumber] */\n      dup2\n      mstore\n      0x20\n      add\n      swap1\n      dup2\n      mstore\n      0x20\n      add\n      0x00\n      keccak256\n        /* \"contracts/Conflict.sol\":8695:8734  conflicts[projectNumber][serviceNumber] */\n      0x00\n        /* \"contracts/Conflict.sol\":8720:8733  serviceNumber */\n      dup5\n        /* \"contracts/Conflict.sol\":8695:8734  conflicts[projectNumber][serviceNumber] */\n      dup2\n      mstore\n      0x20\n      add\n      swap1\n      dup2\n      mstore\n      0x20\n      add\n      0x00\n      keccak256\n        /* \"contracts/Conflict.sol\":8695:8751  conflicts[projectNumber][serviceNumber][milestoneNumber] */\n      0x00\n        /* \"contracts/Conflict.sol\":8735:8750  milestoneNumber */\n      dup4\n        /* \"contracts/Conflict.sol\":8695:8751  conflicts[projectNumber][serviceNumber][milestoneNumber] */\n      dup2\n      mstore\n      0x20\n      add\n      swap1\n      dup2\n      mstore\n      0x20\n      add\n      0x00\n      keccak256\n        /* \"contracts/Conflict.sol\":8695:8766  conflicts[projectNumber][serviceNumber][milestoneNumber].votesCollected */\n      0x08\n      add\n      sload\n        /* \"contracts/Conflict.sol\":8688:8766  return conflicts[projectNumber][serviceNumber][milestoneNumber].votesCollected */\n      swap1\n      pop\n        /* \"contracts/Conflict.sol\":8550:8773  function getVotesCollected(uint256 projectNumber, uint256 serviceNumber, uint256 milestoneNumber) public view returns (uint256) {... */\n      swap4\n      swap3\n      pop\n      pop\n      pop\n      jump\t// out\n        /* \"contracts/Conflict.sol\":9241:9451  function doesConflictExist(uint256 projectNumber, uint256 serviceNumber, uint256 milestoneNumber) public view returns (bool){... */\n    tag_30:\n        /* \"contracts/Conflict.sol\":9360:9364  bool */\n      0x00\n        /* \"contracts/Conflict.sol\":9382:9391  conflicts */\n      dup1\n        /* \"contracts/Conflict.sol\":9382:9406  conflicts[projectNumber] */\n      0x00\n        /* \"contracts/Conflict.sol\":9392:9405  projectNumber */\n      dup6\n        /* \"contracts/Conflict.sol\":9382:9406  conflicts[projectNumber] */\n      dup2\n      mstore\n      0x20\n      add\n      swap1\n      dup2\n      mstore\n      0x20\n      add\n      0x00\n      keccak256\n        /* \"contracts/Conflict.sol\":9382:9421  conflicts[projectNumber][serviceNumber] */\n      0x00\n        /* \"contracts/Conflict.sol\":9407:9420  serviceNumber */\n      dup5\n        /* \"contracts/Conflict.sol\":9382:9421  conflicts[projectNumber][serviceNumber] */\n      dup2\n      mstore\n      0x20\n      add\n      swap1\n      dup2\n      mstore\n      0x20\n      add\n      0x00\n      keccak256\n        /* \"contracts/Conflict.sol\":9382:9438  conflicts[projectNumber][serviceNumber][milestoneNumber] */\n      0x00\n        /* \"contracts/Conflict.sol\":9422:9437  milestoneNumber */\n      dup4\n        /* \"contracts/Conflict.sol\":9382:9438  conflicts[projectNumber][serviceNumber][milestoneNumber] */\n      dup2\n      mstore\n      0x20\n      add\n      swap1\n      dup2\n      mstore\n      0x20\n      add\n      0x00\n      keccak256\n        /* \"contracts/Conflict.sol\":9382:9444  conflicts[projectNumber][serviceNumber][milestoneNumber].exist */\n      0x0b\n      add\n      0x00\n      swap1\n      sload\n      swap1\n      0x0100\n      exp\n      swap1\n      div\n      0xff\n      and\n        /* \"contracts/Conflict.sol\":9375:9444  return conflicts[projectNumber][serviceNumber][milestoneNumber].exist */\n      swap1\n      pop\n        /* \"contracts/Conflict.sol\":9241:9451  function doesConflictExist(uint256 projectNumber, uint256 serviceNumber, uint256 milestoneNumber) public view returns (bool){... */\n      swap4\n      swap3\n      pop\n      pop\n      pop\n      jump\t// out\n        /* \"contracts/Conflict.sol\":4326:4949  function updateConflict(uint256 projectNumber, uint256 serviceNumber, uint256 milestoneNumber, string memory title, string memory description, address payable ) external ... */\n    tag_36:\n        /* \"contracts/Conflict.sol\":4623:4636  projectNumber */\n      dup6\n        /* \"contracts/Conflict.sol\":4638:4651  serviceNumber */\n      dup6\n        /* \"contracts/Conflict.sol\":4653:4668  milestoneNumber */\n      dup6\n        /* \"contracts/Conflict.sol\":4669:4698  States.ConflictStatus.created */\n      0x00\n        /* \"contracts/Conflict.sol\":1938:1943  state */\n      dup1\n        /* \"contracts/Conflict.sol\":1863:1943  conflicts[projectNumber][serviceNumber][milestoneNumber].conflictStatus == state */\n      0x03\n      dup2\n      gt\n      iszero\n      tag_92\n      jumpi\n      tag_93\n      tag_69\n      jump\t// in\n    tag_93:\n    tag_92:\n        /* \"contracts/Conflict.sol\":1863:1872  conflicts */\n      0x00\n        /* \"contracts/Conflict.sol\":1863:1887  conflicts[projectNumber] */\n      dup1\n        /* \"contracts/Conflict.sol\":1873:1886  projectNumber */\n      dup7\n        /* \"contracts/Conflict.sol\":1863:1887  conflicts[projectNumber] */\n      dup2\n      mstore\n      0x20\n      add\n      swap1\n      dup2\n      mstore\n      0x20\n      add\n      0x00\n      keccak256\n        /* \"contracts/Conflict.sol\":1863:1902  conflicts[projectNumber][serviceNumber] */\n      0x00\n        /* \"contracts/Conflict.sol\":1888:1901  serviceNumber */\n      dup6\n        /* \"contracts/Conflict.sol\":1863:1902  conflicts[projectNumber][serviceNumber] */\n      dup2\n      mstore\n      0x20\n      add\n      swap1\n      dup2\n      mstore\n      0x20\n      add\n      0x00\n      keccak256\n        /* \"contracts/Conflict.sol\":1863:1919  conflicts[projectNumber][serviceNumber][milestoneNumber] */\n      0x00\n        /* \"contracts/Conflict.sol\":1903:1918  milestoneNumber */\n      dup5\n        /* \"contracts/Conflict.sol\":1863:1919  conflicts[projectNumber][serviceNumber][milestoneNumber] */\n      dup2\n      mstore\n      0x20\n      add\n      swap1\n      dup2\n      mstore\n      0x20\n      add\n      0x00\n      keccak256\n        /* \"contracts/Conflict.sol\":1863:1934  conflicts[projectNumber][serviceNumber][milestoneNumber].conflictStatus */\n      0x06\n      add\n      0x14\n      swap1\n      sload\n      swap1\n      0x0100\n      exp\n      swap1\n      div\n      0xff\n      and\n        /* \"contracts/Conflict.sol\":1863:1943  conflicts[projectNumber][serviceNumber][milestoneNumber].conflictStatus == state */\n      0x03\n      dup2\n      gt\n      iszero\n      tag_94\n      jumpi\n      tag_95\n      tag_69\n      jump\t// in\n    tag_95:\n    tag_94:\n      eq\n        /* \"contracts/Conflict.sol\":1855:1980  require(conflicts[projectNumber][serviceNumber][milestoneNumber].conflictStatus == state, \"Cannot carry out this operation!\") */\n      tag_96\n      jumpi\n      mload(0x40)\n      0x08c379a000000000000000000000000000000000000000000000000000000000\n      dup2\n      mstore\n      0x04\n      add\n      tag_97\n      swap1\n      tag_74\n      jump\t// in\n    tag_97:\n      mload(0x40)\n      dup1\n      swap2\n      sub\n      swap1\n      revert\n    tag_96:\n        /* \"contracts/Conflict.sol\":4723:4728  title */\n      dup7\n        /* \"contracts/Conflict.sol\":2085:2086  0 */\n      0x00\n        /* \"contracts/Conflict.sol\":2071:2074  str */\n      dup2\n        /* \"contracts/Conflict.sol\":2065:2082  bytes(str).length */\n      mload\n        /* \"contracts/Conflict.sol\":2065:2086  bytes(str).length > 0 */\n      gt\n        /* \"contracts/Conflict.sol\":2057:2112  require(bytes(str).length > 0, \"A string is required!\") */\n      tag_99\n      jumpi\n      mload(0x40)\n      0x08c379a000000000000000000000000000000000000000000000000000000000\n      dup2\n      mstore\n      0x04\n      add\n      tag_100\n      swap1\n      tag_101\n      jump\t// in\n    tag_100:\n      mload(0x40)\n      dup1\n      swap2\n      sub\n      swap1\n      revert\n    tag_99:\n        /* \"contracts/Conflict.sol\":4753:4764  description */\n      dup7\n        /* \"contracts/Conflict.sol\":2085:2086  0 */\n      0x00\n        /* \"contracts/Conflict.sol\":2071:2074  str */\n      dup2\n        /* \"contracts/Conflict.sol\":2065:2082  bytes(str).length */\n      mload\n        /* \"contracts/Conflict.sol\":2065:2086  bytes(str).length > 0 */\n      gt\n        /* \"contracts/Conflict.sol\":2057:2112  require(bytes(str).length > 0, \"A string is required!\") */\n      tag_103\n      jumpi\n      mload(0x40)\n      0x08c379a000000000000000000000000000000000000000000000000000000000\n      dup2\n      mstore\n      0x04\n      add\n      tag_104\n      swap1\n      tag_101\n      jump\t// in\n    tag_104:\n      mload(0x40)\n      dup1\n      swap2\n      sub\n      swap1\n      revert\n    tag_103:\n        /* \"contracts/Conflict.sol\":4845:4850  title */\n      dup9\n        /* \"contracts/Conflict.sol\":4780:4789  conflicts */\n      0x00\n        /* \"contracts/Conflict.sol\":4780:4804  conflicts[projectNumber] */\n      dup1\n        /* \"contracts/Conflict.sol\":4790:4803  projectNumber */\n      dup15\n        /* \"contracts/Conflict.sol\":4780:4804  conflicts[projectNumber] */\n      dup2\n      mstore\n      0x20\n      add\n      swap1\n      dup2\n      mstore\n      0x20\n      add\n      0x00\n      keccak256\n        /* \"contracts/Conflict.sol\":4780:4819  conflicts[projectNumber][serviceNumber] */\n      0x00\n        /* \"contracts/Conflict.sol\":4805:4818  serviceNumber */\n      dup14\n        /* \"contracts/Conflict.sol\":4780:4819  conflicts[projectNumber][serviceNumber] */\n      dup2\n      mstore\n      0x20\n      add\n      swap1\n      dup2\n      mstore\n      0x20\n      add\n      0x00\n      keccak256\n        /* \"contracts/Conflict.sol\":4780:4836  conflicts[projectNumber][serviceNumber][milestoneNumber] */\n      0x00\n        /* \"contracts/Conflict.sol\":4820:4835  milestoneNumber */\n      dup13\n        /* \"contracts/Conflict.sol\":4780:4836  conflicts[projectNumber][serviceNumber][milestoneNumber] */\n      dup2\n      mstore\n      0x20\n      add\n      swap1\n      dup2\n      mstore\n      0x20\n      add\n      0x00\n      keccak256\n        /* \"contracts/Conflict.sol\":4780:4842  conflicts[projectNumber][serviceNumber][milestoneNumber].title */\n      0x03\n      add\n        /* \"contracts/Conflict.sol\":4780:4850  conflicts[projectNumber][serviceNumber][milestoneNumber].title = title */\n      swap1\n      dup1\n      mload\n      swap1\n      0x20\n      add\n      swap1\n      tag_106\n      swap3\n      swap2\n      swap1\n      tag_107\n      jump\t// in\n    tag_106:\n      pop\n        /* \"contracts/Conflict.sol\":4931:4942  description */\n      dup8\n        /* \"contracts/Conflict.sol\":4860:4869  conflicts */\n      0x00\n        /* \"contracts/Conflict.sol\":4860:4884  conflicts[projectNumber] */\n      dup1\n        /* \"contracts/Conflict.sol\":4870:4883  projectNumber */\n      dup15\n        /* \"contracts/Conflict.sol\":4860:4884  conflicts[projectNumber] */\n      dup2\n      mstore\n      0x20\n      add\n      swap1\n      dup2\n      mstore\n      0x20\n      add\n      0x00\n      keccak256\n        /* \"contracts/Conflict.sol\":4860:4899  conflicts[projectNumber][serviceNumber] */\n      0x00\n        /* \"contracts/Conflict.sol\":4885:4898  serviceNumber */\n      dup14\n        /* \"contracts/Conflict.sol\":4860:4899  conflicts[projectNumber][serviceNumber] */\n      dup2\n      mstore\n      0x20\n      add\n      swap1\n      dup2\n      mstore\n      0x20\n      add\n      0x00\n      keccak256\n        /* \"contracts/Conflict.sol\":4860:4916  conflicts[projectNumber][serviceNumber][milestoneNumber] */\n      0x00\n        /* \"contracts/Conflict.sol\":4900:4915  milestoneNumber */\n      dup13\n        /* \"contracts/Conflict.sol\":4860:4916  conflicts[projectNumber][serviceNumber][milestoneNumber] */\n      dup2\n      mstore\n      0x20\n      add\n      swap1\n      dup2\n      mstore\n      0x20\n      add\n      0x00\n      keccak256\n        /* \"contracts/Conflict.sol\":4860:4928  conflicts[projectNumber][serviceNumber][milestoneNumber].description */\n      0x04\n      add\n        /* \"contracts/Conflict.sol\":4860:4942  conflicts[projectNumber][serviceNumber][milestoneNumber].description = description */\n      swap1\n      dup1\n      mload\n      swap1\n      0x20\n      add\n      swap1\n      tag_108\n      swap3\n      swap2\n      swap1\n      tag_107\n      jump\t// in\n    tag_108:\n      pop\n        /* \"contracts/Conflict.sol\":2122:2123  _ */\n      pop\n        /* \"contracts/Conflict.sol\":1990:1991  _ */\n      pop\n        /* \"contracts/Conflict.sol\":4326:4949  function updateConflict(uint256 projectNumber, uint256 serviceNumber, uint256 milestoneNumber, string memory title, string memory description, address payable ) external ... */\n      pop\n      pop\n      pop\n      pop\n      pop\n      pop\n      pop\n      pop\n      pop\n      pop\n      jump\t// out\n        /* \"contracts/Conflict.sol\":9011:9235  function getVotesforProvider(uint256 projectNumber, uint256 serviceNumber, uint256 milestoneNumber) public view returns (uint256) {... */\n    tag_39:\n        /* \"contracts/Conflict.sol\":9132:9139  uint256 */\n      0x00\n        /* \"contracts/Conflict.sol\":9158:9167  conflicts */\n      dup1\n        /* \"contracts/Conflict.sol\":9158:9182  conflicts[projectNumber] */\n      0x00\n        /* \"contracts/Conflict.sol\":9168:9181  projectNumber */\n      dup6\n        /* \"contracts/Conflict.sol\":9158:9182  conflicts[projectNumber] */\n      dup2\n      mstore\n      0x20\n      add\n      swap1\n      dup2\n      mstore\n      0x20\n      add\n      0x00\n      keccak256\n        /* \"contracts/Conflict.sol\":9158:9197  conflicts[projectNumber][serviceNumber] */\n      0x00\n        /* \"contracts/Conflict.sol\":9183:9196  serviceNumber */\n      dup5\n        /* \"contracts/Conflict.sol\":9158:9197  conflicts[projectNumber][serviceNumber] */\n      dup2\n      mstore\n      0x20\n      add\n      swap1\n      dup2\n      mstore\n      0x20\n      add\n      0x00\n      keccak256\n        /* \"contracts/Conflict.sol\":9158:9214  conflicts[projectNumber][serviceNumber][milestoneNumber] */\n      0x00\n        /* \"contracts/Conflict.sol\":9198:9213  milestoneNumber */\n      dup4\n        /* \"contracts/Conflict.sol\":9158:9214  conflicts[projectNumber][serviceNumber][milestoneNumber] */\n      dup2\n      mstore\n      0x20\n      add\n      swap1\n      dup2\n      mstore\n      0x20\n      add\n      0x00\n      keccak256\n        /* \"contracts/Conflict.sol\":9158:9228  conflicts[projectNumber][serviceNumber][milestoneNumber].providerVotes */\n      0x0a\n      add\n      sload\n        /* \"contracts/Conflict.sol\":9151:9228  return conflicts[projectNumber][serviceNumber][milestoneNumber].providerVotes */\n      swap1\n      pop\n        /* \"contracts/Conflict.sol\":9011:9235  function getVotesforProvider(uint256 projectNumber, uint256 serviceNumber, uint256 milestoneNumber) public view returns (uint256) {... */\n      swap4\n      swap3\n      pop\n      pop\n      pop\n      jump\t// out\n        /* \"contracts/Conflict.sol\":5513:5882  function startVote(uint256 projectNumber,uint256 serviceNumber, uint256 milestoneNumber) external ... */\n    tag_43:\n        /* \"contracts/Conflict.sol\":5636:5649  projectNumber */\n      dup3\n        /* \"contracts/Conflict.sol\":5651:5664  serviceNumber */\n      dup3\n        /* \"contracts/Conflict.sol\":5666:5681  milestoneNumber */\n      dup3\n        /* \"contracts/Conflict.sol\":1667:1671  true */\n      0x01\n        /* \"contracts/Conflict.sol\":1599:1671  doesConflictExist(projectNumber, serviceNumber, milestoneNumber) == true */\n      iszero\n      iszero\n        /* \"contracts/Conflict.sol\":1599:1663  doesConflictExist(projectNumber, serviceNumber, milestoneNumber) */\n      tag_111\n        /* \"contracts/Conflict.sol\":1617:1630  projectNumber */\n      dup5\n        /* \"contracts/Conflict.sol\":1632:1645  serviceNumber */\n      dup5\n        /* \"contracts/Conflict.sol\":1647:1662  milestoneNumber */\n      dup5\n        /* \"contracts/Conflict.sol\":1599:1616  doesConflictExist */\n      tag_30\n        /* \"contracts/Conflict.sol\":1599:1663  doesConflictExist(projectNumber, serviceNumber, milestoneNumber) */\n      jump\t// in\n    tag_111:\n        /* \"contracts/Conflict.sol\":1599:1671  doesConflictExist(projectNumber, serviceNumber, milestoneNumber) == true */\n      iszero\n      iszero\n      eq\n        /* \"contracts/Conflict.sol\":1591:1705  require(doesConflictExist(projectNumber, serviceNumber, milestoneNumber) == true, \"This Conflict does not exist.\") */\n      tag_112\n      jumpi\n      mload(0x40)\n      0x08c379a000000000000000000000000000000000000000000000000000000000\n      dup2\n      mstore\n      0x04\n      add\n      tag_113\n      swap1\n      tag_65\n      jump\t// in\n    tag_113:\n      mload(0x40)\n      dup1\n      swap2\n      sub\n      swap1\n      revert\n    tag_112:\n        /* \"contracts/Conflict.sol\":5699:5712  projectNumber */\n      dup6\n        /* \"contracts/Conflict.sol\":5714:5727  serviceNumber */\n      dup6\n        /* \"contracts/Conflict.sol\":5729:5744  milestoneNumber */\n      dup6\n        /* \"contracts/Conflict.sol\":5745:5774  States.ConflictStatus.created */\n      0x00\n        /* \"contracts/Conflict.sol\":1938:1943  state */\n      dup1\n        /* \"contracts/Conflict.sol\":1863:1943  conflicts[projectNumber][serviceNumber][milestoneNumber].conflictStatus == state */\n      0x03\n      dup2\n      gt\n      iszero\n      tag_115\n      jumpi\n      tag_116\n      tag_69\n      jump\t// in\n    tag_116:\n    tag_115:\n        /* \"contracts/Conflict.sol\":1863:1872  conflicts */\n      0x00\n        /* \"contracts/Conflict.sol\":1863:1887  conflicts[projectNumber] */\n      dup1\n        /* \"contracts/Conflict.sol\":1873:1886  projectNumber */\n      dup7\n        /* \"contracts/Conflict.sol\":1863:1887  conflicts[projectNumber] */\n      dup2\n      mstore\n      0x20\n      add\n      swap1\n      dup2\n      mstore\n      0x20\n      add\n      0x00\n      keccak256\n        /* \"contracts/Conflict.sol\":1863:1902  conflicts[projectNumber][serviceNumber] */\n      0x00\n        /* \"contracts/Conflict.sol\":1888:1901  serviceNumber */\n      dup6\n        /* \"contracts/Conflict.sol\":1863:1902  conflicts[projectNumber][serviceNumber] */\n      dup2\n      mstore\n      0x20\n      add\n      swap1\n      dup2\n      mstore\n      0x20\n      add\n      0x00\n      keccak256\n        /* \"contracts/Conflict.sol\":1863:1919  conflicts[projectNumber][serviceNumber][milestoneNumber] */\n      0x00\n        /* \"contracts/Conflict.sol\":1903:1918  milestoneNumber */\n      dup5\n        /* \"contracts/Conflict.sol\":1863:1919  conflicts[projectNumber][serviceNumber][milestoneNumber] */\n      dup2\n      mstore\n      0x20\n      add\n      swap1\n      dup2\n      mstore\n      0x20\n      add\n      0x00\n      keccak256\n        /* \"contracts/Conflict.sol\":1863:1934  conflicts[projectNumber][serviceNumber][milestoneNumber].conflictStatus */\n      0x06\n      add\n      0x14\n      swap1\n      sload\n      swap1\n      0x0100\n      exp\n      swap1\n      div\n      0xff\n      and\n        /* \"contracts/Conflict.sol\":1863:1943  conflicts[projectNumber][serviceNumber][milestoneNumber].conflictStatus == state */\n      0x03\n      dup2\n      gt\n      iszero\n      tag_117\n      jumpi\n      tag_118\n      tag_69\n      jump\t// in\n    tag_118:\n    tag_117:\n      eq\n        /* \"contracts/Conflict.sol\":1855:1980  require(conflicts[projectNumber][serviceNumber][milestoneNumber].conflictStatus == state, \"Cannot carry out this operation!\") */\n      tag_119\n      jumpi\n      mload(0x40)\n      0x08c379a000000000000000000000000000000000000000000000000000000000\n      dup2\n      mstore\n      0x04\n      add\n      tag_120\n      swap1\n      tag_74\n      jump\t// in\n    tag_120:\n      mload(0x40)\n      dup1\n      swap2\n      sub\n      swap1\n      revert\n    tag_119:\n        /* \"contracts/Conflict.sol\":5790:5875  setState(projectNumber, serviceNumber, milestoneNumber, States.ConflictStatus.voting) */\n      tag_122\n        /* \"contracts/Conflict.sol\":5799:5812  projectNumber */\n      dup11\n        /* \"contracts/Conflict.sol\":5814:5827  serviceNumber */\n      dup11\n        /* \"contracts/Conflict.sol\":5829:5844  milestoneNumber */\n      dup11\n        /* \"contracts/Conflict.sol\":5846:5874  States.ConflictStatus.voting */\n      0x01\n        /* \"contracts/Conflict.sol\":5790:5798  setState */\n      tag_77\n        /* \"contracts/Conflict.sol\":5790:5875  setState(projectNumber, serviceNumber, milestoneNumber, States.ConflictStatus.voting) */\n      jump\t// in\n    tag_122:\n        /* \"contracts/Conflict.sol\":1715:1716  _ */\n      pop\n      pop\n      pop\n      pop\n        /* \"contracts/Conflict.sol\":5513:5882  function startVote(uint256 projectNumber,uint256 serviceNumber, uint256 milestoneNumber) external ... */\n      pop\n      pop\n      pop\n      pop\n      pop\n      pop\n      jump\t// out\n        /* \"contracts/Conflict.sol\":5927:7634  function voteConflict(uint256 projectNumber, uint256 serviceNumber, uint256 milestoneNumber, address _from, uint8 vote) public ... */\n    tag_47:\n        /* \"contracts/Conflict.sol\":6079:6092  projectNumber */\n      dup5\n        /* \"contracts/Conflict.sol\":6094:6107  serviceNumber */\n      dup5\n        /* \"contracts/Conflict.sol\":6109:6124  milestoneNumber */\n      dup5\n        /* \"contracts/Conflict.sol\":1667:1671  true */\n      0x01\n        /* \"contracts/Conflict.sol\":1599:1671  doesConflictExist(projectNumber, serviceNumber, milestoneNumber) == true */\n      iszero\n      iszero\n        /* \"contracts/Conflict.sol\":1599:1663  doesConflictExist(projectNumber, serviceNumber, milestoneNumber) */\n      tag_124\n        /* \"contracts/Conflict.sol\":1617:1630  projectNumber */\n      dup5\n        /* \"contracts/Conflict.sol\":1632:1645  serviceNumber */\n      dup5\n        /* \"contracts/Conflict.sol\":1647:1662  milestoneNumber */\n      dup5\n        /* \"contracts/Conflict.sol\":1599:1616  doesConflictExist */\n      tag_30\n        /* \"contracts/Conflict.sol\":1599:1663  doesConflictExist(projectNumber, serviceNumber, milestoneNumber) */\n      jump\t// in\n    tag_124:\n        /* \"contracts/Conflict.sol\":1599:1671  doesConflictExist(projectNumber, serviceNumber, milestoneNumber) == true */\n      iszero\n      iszero\n      eq\n        /* \"contracts/Conflict.sol\":1591:1705  require(doesConflictExist(projectNumber, serviceNumber, milestoneNumber) == true, \"This Conflict does not exist.\") */\n      tag_125\n      jumpi\n      mload(0x40)\n      0x08c379a000000000000000000000000000000000000000000000000000000000\n      dup2\n      mstore\n      0x04\n      add\n      tag_126\n      swap1\n      tag_65\n      jump\t// in\n    tag_126:\n      mload(0x40)\n      dup1\n      swap2\n      sub\n      swap1\n      revert\n    tag_125:\n        /* \"contracts/Conflict.sol\":6142:6155  projectNumber */\n      dup8\n        /* \"contracts/Conflict.sol\":6157:6170  serviceNumber */\n      dup8\n        /* \"contracts/Conflict.sol\":6172:6187  milestoneNumber */\n      dup8\n        /* \"contracts/Conflict.sol\":6188:6216  States.ConflictStatus.voting */\n      0x01\n        /* \"contracts/Conflict.sol\":1938:1943  state */\n      dup1\n        /* \"contracts/Conflict.sol\":1863:1943  conflicts[projectNumber][serviceNumber][milestoneNumber].conflictStatus == state */\n      0x03\n      dup2\n      gt\n      iszero\n      tag_128\n      jumpi\n      tag_129\n      tag_69\n      jump\t// in\n    tag_129:\n    tag_128:\n        /* \"contracts/Conflict.sol\":1863:1872  conflicts */\n      0x00\n        /* \"contracts/Conflict.sol\":1863:1887  conflicts[projectNumber] */\n      dup1\n        /* \"contracts/Conflict.sol\":1873:1886  projectNumber */\n      dup7\n        /* \"contracts/Conflict.sol\":1863:1887  conflicts[projectNumber] */\n      dup2\n      mstore\n      0x20\n      add\n      swap1\n      dup2\n      mstore\n      0x20\n      add\n      0x00\n      keccak256\n        /* \"contracts/Conflict.sol\":1863:1902  conflicts[projectNumber][serviceNumber] */\n      0x00\n        /* \"contracts/Conflict.sol\":1888:1901  serviceNumber */\n      dup6\n        /* \"contracts/Conflict.sol\":1863:1902  conflicts[projectNumber][serviceNumber] */\n      dup2\n      mstore\n      0x20\n      add\n      swap1\n      dup2\n      mstore\n      0x20\n      add\n      0x00\n      keccak256\n        /* \"contracts/Conflict.sol\":1863:1919  conflicts[projectNumber][serviceNumber][milestoneNumber] */\n      0x00\n        /* \"contracts/Conflict.sol\":1903:1918  milestoneNumber */\n      dup5\n        /* \"contracts/Conflict.sol\":1863:1919  conflicts[projectNumber][serviceNumber][milestoneNumber] */\n      dup2\n      mstore\n      0x20\n      add\n      swap1\n      dup2\n      mstore\n      0x20\n      add\n      0x00\n      keccak256\n        /* \"contracts/Conflict.sol\":1863:1934  conflicts[projectNumber][serviceNumber][milestoneNumber].conflictStatus */\n      0x06\n      add\n      0x14\n      swap1\n      sload\n      swap1\n      0x0100\n      exp\n      swap1\n      div\n      0xff\n      and\n        /* \"contracts/Conflict.sol\":1863:1943  conflicts[projectNumber][serviceNumber][milestoneNumber].conflictStatus == state */\n      0x03\n      dup2\n      gt\n      iszero\n      tag_130\n      jumpi\n      tag_131\n      tag_69\n      jump\t// in\n    tag_131:\n    tag_130:\n      eq\n        /* \"contracts/Conflict.sol\":1855:1980  require(conflicts[projectNumber][serviceNumber][milestoneNumber].conflictStatus == state, \"Cannot carry out this operation!\") */\n      tag_132\n      jumpi\n      mload(0x40)\n      0x08c379a000000000000000000000000000000000000000000000000000000000\n      dup2\n      mstore\n      0x04\n      add\n      tag_133\n      swap1\n      tag_74\n      jump\t// in\n    tag_133:\n      mload(0x40)\n      dup1\n      swap2\n      sub\n      swap1\n      revert\n    tag_132:\n        /* \"contracts/Conflict.sol\":6232:6261  conflict storage currConflict */\n      0x00\n        /* \"contracts/Conflict.sol\":6264:6273  conflicts */\n      dup1\n        /* \"contracts/Conflict.sol\":6264:6288  conflicts[projectNumber] */\n      0x00\n        /* \"contracts/Conflict.sol\":6274:6287  projectNumber */\n      dup15\n        /* \"contracts/Conflict.sol\":6264:6288  conflicts[projectNumber] */\n      dup2\n      mstore\n      0x20\n      add\n      swap1\n      dup2\n      mstore\n      0x20\n      add\n      0x00\n      keccak256\n        /* \"contracts/Conflict.sol\":6264:6303  conflicts[projectNumber][serviceNumber] */\n      0x00\n        /* \"contracts/Conflict.sol\":6289:6302  serviceNumber */\n      dup14\n        /* \"contracts/Conflict.sol\":6264:6303  conflicts[projectNumber][serviceNumber] */\n      dup2\n      mstore\n      0x20\n      add\n      swap1\n      dup2\n      mstore\n      0x20\n      add\n      0x00\n      keccak256\n        /* \"contracts/Conflict.sol\":6264:6320  conflicts[projectNumber][serviceNumber][milestoneNumber] */\n      0x00\n        /* \"contracts/Conflict.sol\":6304:6319  milestoneNumber */\n      dup13\n        /* \"contracts/Conflict.sol\":6264:6320  conflicts[projectNumber][serviceNumber][milestoneNumber] */\n      dup2\n      mstore\n      0x20\n      add\n      swap1\n      dup2\n      mstore\n      0x20\n      add\n      0x00\n      keccak256\n        /* \"contracts/Conflict.sol\":6232:6320  conflict storage currConflict = conflicts[projectNumber][serviceNumber][milestoneNumber] */\n      swap1\n      pop\n        /* \"contracts/Conflict.sol\":6371:6376  _from */\n      dup10\n        /* \"contracts/Conflict.sol\":6338:6376  currConflict.serviceRequester != _from */\n      0xffffffffffffffffffffffffffffffffffffffff\n      and\n        /* \"contracts/Conflict.sol\":6338:6350  currConflict */\n      dup2\n        /* \"contracts/Conflict.sol\":6338:6367  currConflict.serviceRequester */\n      0x05\n      add\n      0x00\n      swap1\n      sload\n      swap1\n      0x0100\n      exp\n      swap1\n      div\n      0xffffffffffffffffffffffffffffffffffffffff\n      and\n        /* \"contracts/Conflict.sol\":6338:6376  currConflict.serviceRequester != _from */\n      0xffffffffffffffffffffffffffffffffffffffff\n      and\n      eq\n      iszero\n        /* \"contracts/Conflict.sol\":6330:6430  require(currConflict.serviceRequester != _from , \"You raised this conflict. You cannot vote on it.\") */\n      tag_135\n      jumpi\n      mload(0x40)\n      0x08c379a000000000000000000000000000000000000000000000000000000000\n      dup2\n      mstore\n      0x04\n      add\n      tag_136\n      swap1\n      tag_137\n      jump\t// in\n    tag_136:\n      mload(0x40)\n      dup1\n      swap2\n      sub\n      swap1\n      revert\n    tag_135:\n        /* \"contracts/Conflict.sol\":6480:6485  _from */\n      dup10\n        /* \"contracts/Conflict.sol\":6448:6485  currConflict.serviceProvider != _from */\n      0xffffffffffffffffffffffffffffffffffffffff\n      and\n        /* \"contracts/Conflict.sol\":6448:6460  currConflict */\n      dup2\n        /* \"contracts/Conflict.sol\":6448:6476  currConflict.serviceProvider */\n      0x06\n      add\n      0x00\n      swap1\n      sload\n      swap1\n      0x0100\n      exp\n      swap1\n      div\n      0xffffffffffffffffffffffffffffffffffffffff\n      and\n        /* \"contracts/Conflict.sol\":6448:6485  currConflict.serviceProvider != _from */\n      0xffffffffffffffffffffffffffffffffffffffff\n      and\n      eq\n      iszero\n        /* \"contracts/Conflict.sol\":6440:6547  require(currConflict.serviceProvider != _from, \"You are involved in this conflict. You cannot vote on it.\") */\n      tag_138\n      jumpi\n      mload(0x40)\n      0x08c379a000000000000000000000000000000000000000000000000000000000\n      dup2\n      mstore\n      0x04\n      add\n      tag_139\n      swap1\n      tag_140\n      jump\t// in\n    tag_139:\n      mload(0x40)\n      dup1\n      swap2\n      sub\n      swap1\n      revert\n    tag_138:\n        /* \"contracts/Conflict.sol\":6595:6607  currConflict */\n      dup1\n        /* \"contracts/Conflict.sol\":6595:6614  currConflict.voters */\n      0x07\n      add\n      sload\n        /* \"contracts/Conflict.sol\":6565:6577  currConflict */\n      dup2\n        /* \"contracts/Conflict.sol\":6565:6592  currConflict.votesCollected */\n      0x08\n      add\n      sload\n        /* \"contracts/Conflict.sol\":6565:6614  currConflict.votesCollected < currConflict.voters */\n      lt\n        /* \"contracts/Conflict.sol\":6557:6651  require(currConflict.votesCollected < currConflict.voters, \"Enough votes have been collected\") */\n      tag_141\n      jumpi\n      mload(0x40)\n      0x08c379a000000000000000000000000000000000000000000000000000000000\n      dup2\n      mstore\n      0x04\n      add\n      tag_142\n      swap1\n      tag_143\n      jump\t// in\n    tag_142:\n      mload(0x40)\n      dup1\n      swap2\n      sub\n      swap1\n      revert\n    tag_141:\n        /* \"contracts/Conflict.sol\":6698:6699  0 */\n      0x00\n        /* \"contracts/Conflict.sol\":6669:6681  currConflict */\n      dup2\n        /* \"contracts/Conflict.sol\":6669:6687  currConflict.votes */\n      0x0c\n      add\n        /* \"contracts/Conflict.sol\":6669:6694  currConflict.votes[_from] */\n      0x00\n        /* \"contracts/Conflict.sol\":6688:6693  _from */\n      dup13\n        /* \"contracts/Conflict.sol\":6669:6694  currConflict.votes[_from] */\n      0xffffffffffffffffffffffffffffffffffffffff\n      and\n      0xffffffffffffffffffffffffffffffffffffffff\n      and\n      dup2\n      mstore\n      0x20\n      add\n      swap1\n      dup2\n      mstore\n      0x20\n      add\n      0x00\n      keccak256\n      0x00\n      swap1\n      sload\n      swap1\n      0x0100\n      exp\n      swap1\n      div\n      0xff\n      and\n        /* \"contracts/Conflict.sol\":6669:6699  currConflict.votes[_from] == 0 */\n      0xff\n      and\n      eq\n        /* \"contracts/Conflict.sol\":6661:6750  require(currConflict.votes[_from] == 0 , \"You have already voted, you cannot vote again\") */\n      tag_144\n      jumpi\n      mload(0x40)\n      0x08c379a000000000000000000000000000000000000000000000000000000000\n      dup2\n      mstore\n      0x04\n      add\n      tag_145\n      swap1\n      tag_146\n      jump\t// in\n    tag_145:\n      mload(0x40)\n      dup1\n      swap2\n      sub\n      swap1\n      revert\n    tag_144:\n        /* \"contracts/Conflict.sol\":6776:6777  1 */\n      0x01\n        /* \"contracts/Conflict.sol\":6768:6772  vote */\n      dup10\n        /* \"contracts/Conflict.sol\":6768:6777  vote == 1 */\n      0xff\n      and\n      eq\n        /* \"contracts/Conflict.sol\":6768:6790  vote == 1 || vote == 2 */\n      dup1\n      tag_147\n      jumpi\n      pop\n        /* \"contracts/Conflict.sol\":6789:6790  2 */\n      0x02\n        /* \"contracts/Conflict.sol\":6781:6785  vote */\n      dup10\n        /* \"contracts/Conflict.sol\":6781:6790  vote == 2 */\n      0xff\n      and\n      eq\n        /* \"contracts/Conflict.sol\":6768:6790  vote == 1 || vote == 2 */\n    tag_147:\n        /* \"contracts/Conflict.sol\":6760:6882  require(vote == 1 || vote == 2, \"You have not input a right vote. You can either vote 1 for Requester or 2 for Provider.\") */\n      tag_148\n      jumpi\n      mload(0x40)\n      0x08c379a000000000000000000000000000000000000000000000000000000000\n      dup2\n      mstore\n      0x04\n      add\n      tag_149\n      swap1\n      tag_150\n      jump\t// in\n    tag_149:\n      mload(0x40)\n      dup1\n      swap2\n      sub\n      swap1\n      revert\n    tag_148:\n        /* \"contracts/Conflict.sol\":6893:6911  conflict storage C */\n      0x00\n        /* \"contracts/Conflict.sol\":6914:6923  conflicts */\n      dup1\n        /* \"contracts/Conflict.sol\":6914:6938  conflicts[projectNumber] */\n      0x00\n        /* \"contracts/Conflict.sol\":6924:6937  projectNumber */\n      dup16\n        /* \"contracts/Conflict.sol\":6914:6938  conflicts[projectNumber] */\n      dup2\n      mstore\n      0x20\n      add\n      swap1\n      dup2\n      mstore\n      0x20\n      add\n      0x00\n      keccak256\n        /* \"contracts/Conflict.sol\":6914:6953  conflicts[projectNumber][serviceNumber] */\n      0x00\n        /* \"contracts/Conflict.sol\":6939:6952  serviceNumber */\n      dup15\n        /* \"contracts/Conflict.sol\":6914:6953  conflicts[projectNumber][serviceNumber] */\n      dup2\n      mstore\n      0x20\n      add\n      swap1\n      dup2\n      mstore\n      0x20\n      add\n      0x00\n      keccak256\n        /* \"contracts/Conflict.sol\":6914:6970  conflicts[projectNumber][serviceNumber][milestoneNumber] */\n      0x00\n        /* \"contracts/Conflict.sol\":6954:6969  milestoneNumber */\n      dup14\n        /* \"contracts/Conflict.sol\":6914:6970  conflicts[projectNumber][serviceNumber][milestoneNumber] */\n      dup2\n      mstore\n      0x20\n      add\n      swap1\n      dup2\n      mstore\n      0x20\n      add\n      0x00\n      keccak256\n        /* \"contracts/Conflict.sol\":6893:6970  conflict storage C = conflicts[projectNumber][serviceNumber][milestoneNumber] */\n      swap1\n      pop\n        /* \"contracts/Conflict.sol\":6997:7001  vote */\n      dup10\n        /* \"contracts/Conflict.sol\":6980:6981  C */\n      dup2\n        /* \"contracts/Conflict.sol\":6980:6987  C.votes */\n      0x0c\n      add\n        /* \"contracts/Conflict.sol\":6980:6994  C.votes[_from] */\n      0x00\n        /* \"contracts/Conflict.sol\":6988:6993  _from */\n      dup14\n        /* \"contracts/Conflict.sol\":6980:6994  C.votes[_from] */\n      0xffffffffffffffffffffffffffffffffffffffff\n      and\n      0xffffffffffffffffffffffffffffffffffffffff\n      and\n      dup2\n      mstore\n      0x20\n      add\n      swap1\n      dup2\n      mstore\n      0x20\n      add\n      0x00\n      keccak256\n      0x00\n        /* \"contracts/Conflict.sol\":6980:7001  C.votes[_from] = vote */\n      0x0100\n      exp\n      dup2\n      sload\n      dup2\n      0xff\n      mul\n      not\n      and\n      swap1\n      dup4\n      0xff\n      and\n      mul\n      or\n      swap1\n      sstore\n      pop\n        /* \"contracts/Conflict.sol\":7024:7025  1 */\n      0x01\n        /* \"contracts/Conflict.sol\":7016:7020  vote */\n      dup11\n        /* \"contracts/Conflict.sol\":7016:7025  vote == 1 */\n      0xff\n      and\n      eq\n        /* \"contracts/Conflict.sol\":7012:7050  if (vote == 1) { C.requesterVotes++; } */\n      iszero\n      tag_151\n      jumpi\n        /* \"contracts/Conflict.sol\":7029:7030  C */\n      dup1\n        /* \"contracts/Conflict.sol\":7029:7045  C.requesterVotes */\n      0x09\n      add\n      0x00\n        /* \"contracts/Conflict.sol\":7029:7047  C.requesterVotes++ */\n      dup2\n      sload\n      dup1\n      swap3\n      swap2\n      swap1\n      tag_152\n      swap1\n      tag_153\n      jump\t// in\n    tag_152:\n      swap2\n      swap1\n      pop\n      sstore\n      pop\n        /* \"contracts/Conflict.sol\":7012:7050  if (vote == 1) { C.requesterVotes++; } */\n    tag_151:\n        /* \"contracts/Conflict.sol\":7071:7072  2 */\n      0x02\n        /* \"contracts/Conflict.sol\":7063:7067  vote */\n      dup11\n        /* \"contracts/Conflict.sol\":7063:7072  vote == 2 */\n      0xff\n      and\n      eq\n        /* \"contracts/Conflict.sol\":7059:7096  if (vote == 2) { C.providerVotes++; } */\n      iszero\n      tag_154\n      jumpi\n        /* \"contracts/Conflict.sol\":7076:7077  C */\n      dup1\n        /* \"contracts/Conflict.sol\":7076:7091  C.providerVotes */\n      0x0a\n      add\n      0x00\n        /* \"contracts/Conflict.sol\":7076:7093  C.providerVotes++ */\n      dup2\n      sload\n      dup1\n      swap3\n      swap2\n      swap1\n      tag_155\n      swap1\n      tag_153\n      jump\t// in\n    tag_155:\n      swap2\n      swap1\n      pop\n      sstore\n      pop\n        /* \"contracts/Conflict.sol\":7059:7096  if (vote == 2) { C.providerVotes++; } */\n    tag_154:\n        /* \"contracts/Conflict.sol\":7105:7106  C */\n      dup1\n        /* \"contracts/Conflict.sol\":7105:7121  C.votesCollected */\n      0x08\n      add\n      0x00\n        /* \"contracts/Conflict.sol\":7105:7123  C.votesCollected++ */\n      dup2\n      sload\n      dup1\n      swap3\n      swap2\n      swap1\n      tag_156\n      swap1\n      tag_153\n      jump\t// in\n    tag_156:\n      swap2\n      swap1\n      pop\n      sstore\n      pop\n        /* \"contracts/Conflict.sol\":7139:7217  conflictVoted(projectNumber, serviceNumber, milestoneNumber, msg.sender, vote) */\n      0x20211b974adbe11ce3687d51504ce7ef1fcfbb9c00405ba7aca7b283903f345a\n        /* \"contracts/Conflict.sol\":7153:7166  projectNumber */\n      dup15\n        /* \"contracts/Conflict.sol\":7168:7181  serviceNumber */\n      dup15\n        /* \"contracts/Conflict.sol\":7183:7198  milestoneNumber */\n      dup15\n        /* \"contracts/Conflict.sol\":7200:7210  msg.sender */\n      caller\n        /* \"contracts/Conflict.sol\":7212:7216  vote */\n      dup15\n        /* \"contracts/Conflict.sol\":7139:7217  conflictVoted(projectNumber, serviceNumber, milestoneNumber, msg.sender, vote) */\n      mload(0x40)\n      tag_157\n      swap6\n      swap5\n      swap4\n      swap3\n      swap2\n      swap1\n      tag_158\n      jump\t// in\n    tag_157:\n      mload(0x40)\n      dup1\n      swap2\n      sub\n      swap1\n      log1\n        /* \"contracts/Conflict.sol\":7252:7253  C */\n      dup1\n        /* \"contracts/Conflict.sol\":7252:7260  C.voters */\n      0x07\n      add\n      sload\n        /* \"contracts/Conflict.sol\":7232:7233  C */\n      dup2\n        /* \"contracts/Conflict.sol\":7232:7248  C.votesCollected */\n      0x08\n      add\n      sload\n        /* \"contracts/Conflict.sol\":7232:7260  C.votesCollected == C.voters */\n      eq\n        /* \"contracts/Conflict.sol\":7228:7628  if (C.votesCollected == C.voters) {... */\n      iszero\n      tag_159\n      jumpi\n        /* \"contracts/Conflict.sol\":7298:7299  C */\n      dup1\n        /* \"contracts/Conflict.sol\":7298:7314  C.requesterVotes */\n      0x09\n      add\n      sload\n        /* \"contracts/Conflict.sol\":7280:7281  C */\n      dup2\n        /* \"contracts/Conflict.sol\":7280:7295  C.providerVotes */\n      0x0a\n      add\n      sload\n        /* \"contracts/Conflict.sol\":7280:7314  C.providerVotes > C.requesterVotes */\n      gt\n        /* \"contracts/Conflict.sol\":7276:7365  if (C.providerVotes > C.requesterVotes) {C.result = 2; }... */\n      iszero\n      tag_160\n      jumpi\n        /* \"contracts/Conflict.sol\":7328:7329  2 */\n      0x02\n        /* \"contracts/Conflict.sol\":7317:7318  C */\n      dup2\n        /* \"contracts/Conflict.sol\":7317:7325  C.result */\n      0x0b\n      add\n      0x01\n        /* \"contracts/Conflict.sol\":7317:7329  C.result = 2 */\n      0x0100\n      exp\n      dup2\n      sload\n      dup2\n      0xff\n      mul\n      not\n      and\n      swap1\n      dup4\n      0xff\n      and\n      mul\n      or\n      swap1\n      sstore\n      pop\n        /* \"contracts/Conflict.sol\":7276:7365  if (C.providerVotes > C.requesterVotes) {C.result = 2; }... */\n      jump(tag_161)\n    tag_160:\n        /* \"contracts/Conflict.sol\":7362:7363  1 */\n      0x01\n        /* \"contracts/Conflict.sol\":7351:7352  C */\n      dup2\n        /* \"contracts/Conflict.sol\":7351:7359  C.result */\n      0x0b\n      add\n      0x01\n        /* \"contracts/Conflict.sol\":7351:7363  C.result = 1 */\n      0x0100\n      exp\n      dup2\n      sload\n      dup2\n      0xff\n      mul\n      not\n      and\n      swap1\n      dup4\n      0xff\n      and\n      mul\n      or\n      swap1\n      sstore\n      pop\n        /* \"contracts/Conflict.sol\":7276:7365  if (C.providerVotes > C.requesterVotes) {C.result = 2; }... */\n    tag_161:\n        /* \"contracts/Conflict.sol\":7438:7526  setState(projectNumber, serviceNumber, milestoneNumber, States.ConflictStatus.completed) */\n      tag_162\n        /* \"contracts/Conflict.sol\":7447:7460  projectNumber */\n      dup15\n        /* \"contracts/Conflict.sol\":7462:7475  serviceNumber */\n      dup15\n        /* \"contracts/Conflict.sol\":7477:7492  milestoneNumber */\n      dup15\n        /* \"contracts/Conflict.sol\":7494:7525  States.ConflictStatus.completed */\n      0x02\n        /* \"contracts/Conflict.sol\":7438:7446  setState */\n      tag_77\n        /* \"contracts/Conflict.sol\":7438:7526  setState(projectNumber, serviceNumber, milestoneNumber, States.ConflictStatus.completed) */\n      jump\t// in\n    tag_162:\n        /* \"contracts/Conflict.sol\":7546:7617  conflictResult(projectNumber, serviceNumber, milestoneNumber, C.result) */\n      0xe59fdbc65a5dd63c529717c2a71d04b136038f05301755de242dd05990c02814\n        /* \"contracts/Conflict.sol\":7561:7574  projectNumber */\n      dup15\n        /* \"contracts/Conflict.sol\":7576:7589  serviceNumber */\n      dup15\n        /* \"contracts/Conflict.sol\":7591:7606  milestoneNumber */\n      dup15\n        /* \"contracts/Conflict.sol\":7608:7609  C */\n      dup5\n        /* \"contracts/Conflict.sol\":7608:7616  C.result */\n      0x0b\n      add\n      0x01\n      swap1\n      sload\n      swap1\n      0x0100\n      exp\n      swap1\n      div\n      0xff\n      and\n        /* \"contracts/Conflict.sol\":7546:7617  conflictResult(projectNumber, serviceNumber, milestoneNumber, C.result) */\n      mload(0x40)\n      tag_163\n      swap5\n      swap4\n      swap3\n      swap2\n      swap1\n      tag_164\n      jump\t// in\n    tag_163:\n      mload(0x40)\n      dup1\n      swap2\n      sub\n      swap1\n      log1\n        /* \"contracts/Conflict.sol\":7228:7628  if (C.votesCollected == C.voters) {... */\n    tag_159:\n        /* \"contracts/Conflict.sol\":6222:7634  {... */\n      pop\n      pop\n        /* \"contracts/Conflict.sol\":1715:1716  _ */\n      pop\n      pop\n      pop\n      pop\n        /* \"contracts/Conflict.sol\":5927:7634  function voteConflict(uint256 projectNumber, uint256 serviceNumber, uint256 milestoneNumber, address _from, uint8 vote) public ... */\n      pop\n      pop\n      pop\n      pop\n      pop\n      pop\n      pop\n      pop\n      jump\t// out\n        /* \"contracts/Conflict.sol\":8307:8544  function getConflictStatus(uint256 projectNumber, uint256 serviceNumber, uint256 milestoneNumber) public view returns (States.ConflictStatus) {... */\n    tag_50:\n        /* \"contracts/Conflict.sol\":8426:8447  States.ConflictStatus */\n      0x00\n        /* \"contracts/Conflict.sol\":8466:8475  conflicts */\n      dup1\n        /* \"contracts/Conflict.sol\":8466:8490  conflicts[projectNumber] */\n      0x00\n        /* \"contracts/Conflict.sol\":8476:8489  projectNumber */\n      dup6\n        /* \"contracts/Conflict.sol\":8466:8490  conflicts[projectNumber] */\n      dup2\n      mstore\n      0x20\n      add\n      swap1\n      dup2\n      mstore\n      0x20\n      add\n      0x00\n      keccak256\n        /* \"contracts/Conflict.sol\":8466:8505  conflicts[projectNumber][serviceNumber] */\n      0x00\n        /* \"contracts/Conflict.sol\":8491:8504  serviceNumber */\n      dup5\n        /* \"contracts/Conflict.sol\":8466:8505  conflicts[projectNumber][serviceNumber] */\n      dup2\n      mstore\n      0x20\n      add\n      swap1\n      dup2\n      mstore\n      0x20\n      add\n      0x00\n      keccak256\n        /* \"contracts/Conflict.sol\":8466:8522  conflicts[projectNumber][serviceNumber][milestoneNumber] */\n      0x00\n        /* \"contracts/Conflict.sol\":8506:8521  milestoneNumber */\n      dup4\n        /* \"contracts/Conflict.sol\":8466:8522  conflicts[projectNumber][serviceNumber][milestoneNumber] */\n      dup2\n      mstore\n      0x20\n      add\n      swap1\n      dup2\n      mstore\n      0x20\n      add\n      0x00\n      keccak256\n        /* \"contracts/Conflict.sol\":8466:8537  conflicts[projectNumber][serviceNumber][milestoneNumber].conflictStatus */\n      0x06\n      add\n      0x14\n      swap1\n      sload\n      swap1\n      0x0100\n      exp\n      swap1\n      div\n      0xff\n      and\n        /* \"contracts/Conflict.sol\":8459:8537  return conflicts[projectNumber][serviceNumber][milestoneNumber].conflictStatus */\n      swap1\n      pop\n        /* \"contracts/Conflict.sol\":8307:8544  function getConflictStatus(uint256 projectNumber, uint256 serviceNumber, uint256 milestoneNumber) public view returns (States.ConflictStatus) {... */\n      swap4\n      swap3\n      pop\n      pop\n      pop\n      jump\t// out\n        /* \"contracts/Conflict.sol\":8779:9005  function getVotesforRequester(uint256 projectNumber, uint256 serviceNumber, uint256 milestoneNumber) public view returns (uint256) {... */\n    tag_55:\n        /* \"contracts/Conflict.sol\":8901:8908  uint256 */\n      0x00\n        /* \"contracts/Conflict.sol\":8927:8936  conflicts */\n      dup1\n        /* \"contracts/Conflict.sol\":8927:8951  conflicts[projectNumber] */\n      0x00\n        /* \"contracts/Conflict.sol\":8937:8950  projectNumber */\n      dup6\n        /* \"contracts/Conflict.sol\":8927:8951  conflicts[projectNumber] */\n      dup2\n      mstore\n      0x20\n      add\n      swap1\n      dup2\n      mstore\n      0x20\n      add\n      0x00\n      keccak256\n        /* \"contracts/Conflict.sol\":8927:8966  conflicts[projectNumber][serviceNumber] */\n      0x00\n        /* \"contracts/Conflict.sol\":8952:8965  serviceNumber */\n      dup5\n        /* \"contracts/Conflict.sol\":8927:8966  conflicts[projectNumber][serviceNumber] */\n      dup2\n      mstore\n      0x20\n      add\n      swap1\n      dup2\n      mstore\n      0x20\n      add\n      0x00\n      keccak256\n        /* \"contracts/Conflict.sol\":8927:8983  conflicts[projectNumber][serviceNumber][milestoneNumber] */\n      0x00\n        /* \"contracts/Conflict.sol\":8967:8982  milestoneNumber */\n      dup4\n        /* \"contracts/Conflict.sol\":8927:8983  conflicts[projectNumber][serviceNumber][milestoneNumber] */\n      dup2\n      mstore\n      0x20\n      add\n      swap1\n      dup2\n      mstore\n      0x20\n      add\n      0x00\n      keccak256\n        /* \"contracts/Conflict.sol\":8927:8998  conflicts[projectNumber][serviceNumber][milestoneNumber].requesterVotes */\n      0x09\n      add\n      sload\n        /* \"contracts/Conflict.sol\":8920:8998  return conflicts[projectNumber][serviceNumber][milestoneNumber].requesterVotes */\n      swap1\n      pop\n        /* \"contracts/Conflict.sol\":8779:9005  function getVotesforRequester(uint256 projectNumber, uint256 serviceNumber, uint256 milestoneNumber) public view returns (uint256) {... */\n      swap4\n      swap3\n      pop\n      pop\n      pop\n      jump\t// out\n        /* \"contracts/Conflict.sol\":2891:4279  function createConflict(uint256 projectNumber, uint256 serviceNumber, uint256 milestoneNumber, string memory title, string memory description, address payable serviceRequester, address payable serviceProvider, uint256 totalVoters) public ... */\n    tag_60:\n        /* \"contracts/Conflict.sol\":3153:3158  title */\n      dup5\n        /* \"contracts/Conflict.sol\":2085:2086  0 */\n      0x00\n        /* \"contracts/Conflict.sol\":2071:2074  str */\n      dup2\n        /* \"contracts/Conflict.sol\":2065:2082  bytes(str).length */\n      mload\n        /* \"contracts/Conflict.sol\":2065:2086  bytes(str).length > 0 */\n      gt\n        /* \"contracts/Conflict.sol\":2057:2112  require(bytes(str).length > 0, \"A string is required!\") */\n      tag_168\n      jumpi\n      mload(0x40)\n      0x08c379a000000000000000000000000000000000000000000000000000000000\n      dup2\n      mstore\n      0x04\n      add\n      tag_169\n      swap1\n      tag_101\n      jump\t// in\n    tag_169:\n      mload(0x40)\n      dup1\n      swap2\n      sub\n      swap1\n      revert\n    tag_168:\n        /* \"contracts/Conflict.sol\":3183:3194  description */\n      dup5\n        /* \"contracts/Conflict.sol\":2085:2086  0 */\n      0x00\n        /* \"contracts/Conflict.sol\":2071:2074  str */\n      dup2\n        /* \"contracts/Conflict.sol\":2065:2082  bytes(str).length */\n      mload\n        /* \"contracts/Conflict.sol\":2065:2086  bytes(str).length > 0 */\n      gt\n        /* \"contracts/Conflict.sol\":2057:2112  require(bytes(str).length > 0, \"A string is required!\") */\n      tag_171\n      jumpi\n      mload(0x40)\n      0x08c379a000000000000000000000000000000000000000000000000000000000\n      dup2\n      mstore\n      0x04\n      add\n      tag_172\n      swap1\n      tag_101\n      jump\t// in\n    tag_172:\n      mload(0x40)\n      dup1\n      swap2\n      sub\n      swap1\n      revert\n    tag_171:\n        /* \"contracts/Conflict.sol\":3286:3291  false */\n      0x00\n        /* \"contracts/Conflict.sol\":3218:3291  doesConflictExist(projectNumber, serviceNumber, milestoneNumber) == false */\n      iszero\n      iszero\n        /* \"contracts/Conflict.sol\":3218:3282  doesConflictExist(projectNumber, serviceNumber, milestoneNumber) */\n      tag_174\n        /* \"contracts/Conflict.sol\":3236:3249  projectNumber */\n      dup12\n        /* \"contracts/Conflict.sol\":3251:3264  serviceNumber */\n      dup12\n        /* \"contracts/Conflict.sol\":3266:3281  milestoneNumber */\n      dup12\n        /* \"contracts/Conflict.sol\":3218:3235  doesConflictExist */\n      tag_30\n        /* \"contracts/Conflict.sol\":3218:3282  doesConflictExist(projectNumber, serviceNumber, milestoneNumber) */\n      jump\t// in\n    tag_174:\n        /* \"contracts/Conflict.sol\":3218:3291  doesConflictExist(projectNumber, serviceNumber, milestoneNumber) == false */\n      iszero\n      iszero\n      eq\n        /* \"contracts/Conflict.sol\":3210:3360  require(doesConflictExist(projectNumber, serviceNumber, milestoneNumber) == false, \"Conflict has already been created for this particular Milestone.\") */\n      tag_175\n      jumpi\n      mload(0x40)\n      0x08c379a000000000000000000000000000000000000000000000000000000000\n      dup2\n      mstore\n      0x04\n      add\n      tag_176\n      swap1\n      tag_177\n      jump\t// in\n    tag_176:\n      mload(0x40)\n      dup1\n      swap2\n      sub\n      swap1\n      revert\n    tag_175:\n        /* \"contracts/Conflict.sol\":3396:3424  conflict storage newConflict */\n      0x00\n        /* \"contracts/Conflict.sol\":3427:3436  conflicts */\n      dup1\n        /* \"contracts/Conflict.sol\":3427:3451  conflicts[projectNumber] */\n      0x00\n        /* \"contracts/Conflict.sol\":3437:3450  projectNumber */\n      dup13\n        /* \"contracts/Conflict.sol\":3427:3451  conflicts[projectNumber] */\n      dup2\n      mstore\n      0x20\n      add\n      swap1\n      dup2\n      mstore\n      0x20\n      add\n      0x00\n      keccak256\n        /* \"contracts/Conflict.sol\":3427:3466  conflicts[projectNumber][serviceNumber] */\n      0x00\n        /* \"contracts/Conflict.sol\":3452:3465  serviceNumber */\n      dup12\n        /* \"contracts/Conflict.sol\":3427:3466  conflicts[projectNumber][serviceNumber] */\n      dup2\n      mstore\n      0x20\n      add\n      swap1\n      dup2\n      mstore\n      0x20\n      add\n      0x00\n      keccak256\n        /* \"contracts/Conflict.sol\":3427:3483  conflicts[projectNumber][serviceNumber][milestoneNumber] */\n      0x00\n        /* \"contracts/Conflict.sol\":3467:3482  milestoneNumber */\n      dup11\n        /* \"contracts/Conflict.sol\":3427:3483  conflicts[projectNumber][serviceNumber][milestoneNumber] */\n      dup2\n      mstore\n      0x20\n      add\n      swap1\n      dup2\n      mstore\n      0x20\n      add\n      0x00\n      keccak256\n        /* \"contracts/Conflict.sol\":3396:3483  conflict storage newConflict = conflicts[projectNumber][serviceNumber][milestoneNumber] */\n      swap1\n      pop\n        /* \"contracts/Conflict.sol\":3521:3534  projectNumber */\n      dup11\n        /* \"contracts/Conflict.sol\":3493:3504  newConflict */\n      dup2\n        /* \"contracts/Conflict.sol\":3493:3518  newConflict.projectNumber */\n      0x00\n      add\n        /* \"contracts/Conflict.sol\":3493:3534  newConflict.projectNumber = projectNumber */\n      dup2\n      swap1\n      sstore\n      pop\n        /* \"contracts/Conflict.sol\":3577:3590  serviceNumber */\n      dup10\n        /* \"contracts/Conflict.sol\":3549:3560  newConflict */\n      dup2\n        /* \"contracts/Conflict.sol\":3549:3574  newConflict.serviceNumber */\n      0x01\n      add\n        /* \"contracts/Conflict.sol\":3549:3590  newConflict.serviceNumber = serviceNumber */\n      dup2\n      swap1\n      sstore\n      pop\n        /* \"contracts/Conflict.sol\":3638:3653  milestoneNumber */\n      dup9\n        /* \"contracts/Conflict.sol\":3608:3619  newConflict */\n      dup2\n        /* \"contracts/Conflict.sol\":3608:3635  newConflict.milestoneNumber */\n      0x02\n      add\n        /* \"contracts/Conflict.sol\":3608:3653  newConflict.milestoneNumber = milestoneNumber */\n      dup2\n      swap1\n      sstore\n      pop\n        /* \"contracts/Conflict.sol\":3683:3688  title */\n      dup8\n        /* \"contracts/Conflict.sol\":3663:3674  newConflict */\n      dup2\n        /* \"contracts/Conflict.sol\":3663:3680  newConflict.title */\n      0x03\n      add\n        /* \"contracts/Conflict.sol\":3663:3688  newConflict.title = title */\n      swap1\n      dup1\n      mload\n      swap1\n      0x20\n      add\n      swap1\n      tag_178\n      swap3\n      swap2\n      swap1\n      tag_107\n      jump\t// in\n    tag_178:\n      pop\n        /* \"contracts/Conflict.sol\":3724:3735  description */\n      dup7\n        /* \"contracts/Conflict.sol\":3698:3709  newConflict */\n      dup2\n        /* \"contracts/Conflict.sol\":3698:3721  newConflict.description */\n      0x04\n      add\n        /* \"contracts/Conflict.sol\":3698:3735  newConflict.description = description */\n      swap1\n      dup1\n      mload\n      swap1\n      0x20\n      add\n      swap1\n      tag_179\n      swap3\n      swap2\n      swap1\n      tag_107\n      jump\t// in\n    tag_179:\n      pop\n        /* \"contracts/Conflict.sol\":3776:3792  serviceRequester */\n      dup6\n        /* \"contracts/Conflict.sol\":3745:3756  newConflict */\n      dup2\n        /* \"contracts/Conflict.sol\":3745:3773  newConflict.serviceRequester */\n      0x05\n      add\n      0x00\n        /* \"contracts/Conflict.sol\":3745:3792  newConflict.serviceRequester = serviceRequester */\n      0x0100\n      exp\n      dup2\n      sload\n      dup2\n      0xffffffffffffffffffffffffffffffffffffffff\n      mul\n      not\n      and\n      swap1\n      dup4\n      0xffffffffffffffffffffffffffffffffffffffff\n      and\n      mul\n      or\n      swap1\n      sstore\n      pop\n        /* \"contracts/Conflict.sol\":3832:3847  serviceProvider */\n      dup5\n        /* \"contracts/Conflict.sol\":3802:3813  newConflict */\n      dup2\n        /* \"contracts/Conflict.sol\":3802:3829  newConflict.serviceProvider */\n      0x06\n      add\n      0x00\n        /* \"contracts/Conflict.sol\":3802:3847  newConflict.serviceProvider = serviceProvider */\n      0x0100\n      exp\n      dup2\n      sload\n      dup2\n      0xffffffffffffffffffffffffffffffffffffffff\n      mul\n      not\n      and\n      swap1\n      dup4\n      0xffffffffffffffffffffffffffffffffffffffff\n      and\n      mul\n      or\n      swap1\n      sstore\n      pop\n        /* \"contracts/Conflict.sol\":3886:3915  States.ConflictStatus.created */\n      0x00\n        /* \"contracts/Conflict.sol\":3857:3868  newConflict */\n      dup2\n        /* \"contracts/Conflict.sol\":3857:3883  newConflict.conflictStatus */\n      0x06\n      add\n      0x14\n        /* \"contracts/Conflict.sol\":3857:3915  newConflict.conflictStatus = States.ConflictStatus.created */\n      0x0100\n      exp\n      dup2\n      sload\n      dup2\n      0xff\n      mul\n      not\n      and\n      swap1\n      dup4\n      0x03\n      dup2\n      gt\n      iszero\n      tag_180\n      jumpi\n      tag_181\n      tag_69\n      jump\t// in\n    tag_181:\n    tag_180:\n      mul\n      or\n      swap1\n      sstore\n      pop\n        /* \"contracts/Conflict.sol\":3946:3957  totalVoters */\n      dup4\n        /* \"contracts/Conflict.sol\":3925:3936  newConflict */\n      dup2\n        /* \"contracts/Conflict.sol\":3925:3943  newConflict.voters */\n      0x07\n      add\n        /* \"contracts/Conflict.sol\":3925:3957  newConflict.voters = totalVoters */\n      dup2\n      swap1\n      sstore\n      pop\n        /* \"contracts/Conflict.sol\":3996:3997  0 */\n      0x00\n        /* \"contracts/Conflict.sol\":3967:3978  newConflict */\n      dup2\n        /* \"contracts/Conflict.sol\":3967:3993  newConflict.votesCollected */\n      0x08\n      add\n        /* \"contracts/Conflict.sol\":3967:3997  newConflict.votesCollected = 0 */\n      dup2\n      swap1\n      sstore\n      pop\n        /* \"contracts/Conflict.sol\":4036:4037  0 */\n      0x00\n        /* \"contracts/Conflict.sol\":4007:4018  newConflict */\n      dup2\n        /* \"contracts/Conflict.sol\":4007:4033  newConflict.requesterVotes */\n      0x09\n      add\n        /* \"contracts/Conflict.sol\":4007:4037  newConflict.requesterVotes = 0 */\n      dup2\n      swap1\n      sstore\n      pop\n        /* \"contracts/Conflict.sol\":4075:4076  0 */\n      0x00\n        /* \"contracts/Conflict.sol\":4047:4058  newConflict */\n      dup2\n        /* \"contracts/Conflict.sol\":4047:4072  newConflict.providerVotes */\n      0x0a\n      add\n        /* \"contracts/Conflict.sol\":4047:4076  newConflict.providerVotes = 0 */\n      dup2\n      swap1\n      sstore\n      pop\n        /* \"contracts/Conflict.sol\":4110:4114  true */\n      0x01\n        /* \"contracts/Conflict.sol\":4090:4101  newConflict */\n      dup2\n        /* \"contracts/Conflict.sol\":4090:4107  newConflict.exist */\n      0x0b\n      add\n      0x00\n        /* \"contracts/Conflict.sol\":4090:4114  newConflict.exist = true */\n      0x0100\n      exp\n      dup2\n      sload\n      dup2\n      0xff\n      mul\n      not\n      and\n      swap1\n      dup4\n      iszero\n      iszero\n      mul\n      or\n      swap1\n      sstore\n      pop\n        /* \"contracts/Conflict.sol\":4145:4146  0 */\n      0x00\n        /* \"contracts/Conflict.sol\":4124:4135  newConflict */\n      dup2\n        /* \"contracts/Conflict.sol\":4124:4142  newConflict.result */\n      0x0b\n      add\n      0x01\n        /* \"contracts/Conflict.sol\":4124:4146  newConflict.result = 0 */\n      0x0100\n      exp\n      dup2\n      sload\n      dup2\n      0xff\n      mul\n      not\n      and\n      swap1\n      dup4\n      0xff\n      and\n      mul\n      or\n      swap1\n      sstore\n      pop\n        /* \"contracts/Conflict.sol\":4162:4272  conflictCreated(projectNumber, serviceNumber, milestoneNumber, serviceRequester, serviceProvider, totalVoters) */\n      0xfa127411522a1139d16c2142db999e127aef2288bd98a0558006bb115666ab1b\n        /* \"contracts/Conflict.sol\":4178:4191  projectNumber */\n      dup12\n        /* \"contracts/Conflict.sol\":4193:4206  serviceNumber */\n      dup12\n        /* \"contracts/Conflict.sol\":4208:4223  milestoneNumber */\n      dup12\n        /* \"contracts/Conflict.sol\":4225:4241  serviceRequester */\n      dup10\n        /* \"contracts/Conflict.sol\":4243:4258  serviceProvider */\n      dup10\n        /* \"contracts/Conflict.sol\":4260:4271  totalVoters */\n      dup10\n        /* \"contracts/Conflict.sol\":4162:4272  conflictCreated(projectNumber, serviceNumber, milestoneNumber, serviceRequester, serviceProvider, totalVoters) */\n      mload(0x40)\n      tag_182\n      swap7\n      swap6\n      swap5\n      swap4\n      swap3\n      swap2\n      swap1\n      tag_183\n      jump\t// in\n    tag_182:\n      mload(0x40)\n      dup1\n      swap2\n      sub\n      swap1\n      log1\n        /* \"contracts/Conflict.sol\":3200:4279  {... */\n      pop\n        /* \"contracts/Conflict.sol\":2122:2123  _ */\n      pop\n        /* \"contracts/Conflict.sol\":2891:4279  function createConflict(uint256 projectNumber, uint256 serviceNumber, uint256 milestoneNumber, string memory title, string memory description, address payable serviceRequester, address payable serviceProvider, uint256 totalVoters) public ... */\n      pop\n      pop\n      pop\n      pop\n      pop\n      pop\n      pop\n      pop\n      pop\n      jump\t// out\n        /* \"contracts/Conflict.sol\":2621:2844  function setState(uint256 projectNumber, uint256 serviceNumber, uint256 milestoneNumber, States.ConflictStatus state) internal {... */\n    tag_77:\n        /* \"contracts/Conflict.sol\":2832:2837  state */\n      dup1\n        /* \"contracts/Conflict.sol\":2758:2767  conflicts */\n      0x00\n        /* \"contracts/Conflict.sol\":2758:2782  conflicts[projectNumber] */\n      dup1\n        /* \"contracts/Conflict.sol\":2768:2781  projectNumber */\n      dup7\n        /* \"contracts/Conflict.sol\":2758:2782  conflicts[projectNumber] */\n      dup2\n      mstore\n      0x20\n      add\n      swap1\n      dup2\n      mstore\n      0x20\n      add\n      0x00\n      keccak256\n        /* \"contracts/Conflict.sol\":2758:2797  conflicts[projectNumber][serviceNumber] */\n      0x00\n        /* \"contracts/Conflict.sol\":2783:2796  serviceNumber */\n      dup6\n        /* \"contracts/Conflict.sol\":2758:2797  conflicts[projectNumber][serviceNumber] */\n      dup2\n      mstore\n      0x20\n      add\n      swap1\n      dup2\n      mstore\n      0x20\n      add\n      0x00\n      keccak256\n        /* \"contracts/Conflict.sol\":2758:2814  conflicts[projectNumber][serviceNumber][milestoneNumber] */\n      0x00\n        /* \"contracts/Conflict.sol\":2798:2813  milestoneNumber */\n      dup5\n        /* \"contracts/Conflict.sol\":2758:2814  conflicts[projectNumber][serviceNumber][milestoneNumber] */\n      dup2\n      mstore\n      0x20\n      add\n      swap1\n      dup2\n      mstore\n      0x20\n      add\n      0x00\n      keccak256\n        /* \"contracts/Conflict.sol\":2758:2829  conflicts[projectNumber][serviceNumber][milestoneNumber].conflictStatus */\n      0x06\n      add\n      0x14\n        /* \"contracts/Conflict.sol\":2758:2837  conflicts[projectNumber][serviceNumber][milestoneNumber].conflictStatus = state */\n      0x0100\n      exp\n      dup2\n      sload\n      dup2\n      0xff\n      mul\n      not\n      and\n      swap1\n      dup4\n      0x03\n      dup2\n      gt\n      iszero\n      tag_185\n      jumpi\n      tag_186\n      tag_69\n      jump\t// in\n    tag_186:\n    tag_185:\n      mul\n      or\n      swap1\n      sstore\n      pop\n        /* \"contracts/Conflict.sol\":2621:2844  function setState(uint256 projectNumber, uint256 serviceNumber, uint256 milestoneNumber, States.ConflictStatus state) internal {... */\n      pop\n      pop\n      pop\n      pop\n      jump\t// out\n    tag_107:\n      dup3\n      dup1\n      sload\n      tag_187\n      swap1\n      tag_188\n      jump\t// in\n    tag_187:\n      swap1\n      0x00\n      mstore\n      keccak256(0x00, 0x20)\n      swap1\n      0x1f\n      add\n      0x20\n      swap1\n      div\n      dup2\n      add\n      swap3\n      dup3\n      tag_190\n      jumpi\n      0x00\n      dup6\n      sstore\n      jump(tag_189)\n    tag_190:\n      dup3\n      0x1f\n      lt\n      tag_191\n      jumpi\n      dup1\n      mload\n      not(0xff)\n      and\n      dup4\n      dup1\n      add\n      or\n      dup6\n      sstore\n      jump(tag_189)\n    tag_191:\n      dup3\n      dup1\n      add\n      0x01\n      add\n      dup6\n      sstore\n      dup3\n      iszero\n      tag_189\n      jumpi\n      swap2\n      dup3\n      add\n    tag_192:\n      dup3\n      dup2\n      gt\n      iszero\n      tag_193\n      jumpi\n      dup3\n      mload\n      dup3\n      sstore\n      swap2\n      0x20\n      add\n      swap2\n      swap1\n      0x01\n      add\n      swap1\n      jump(tag_192)\n    tag_193:\n    tag_189:\n      pop\n      swap1\n      pop\n      tag_194\n      swap2\n      swap1\n      tag_195\n      jump\t// in\n    tag_194:\n      pop\n      swap1\n      jump\t// out\n    tag_195:\n    tag_196:\n      dup1\n      dup3\n      gt\n      iszero\n      tag_197\n      jumpi\n      0x00\n      dup2\n      0x00\n      swap1\n      sstore\n      pop\n      0x01\n      add\n      jump(tag_196)\n    tag_197:\n      pop\n      swap1\n      jump\t// out\n        /* \"#utility.yul\":7:419   */\n    tag_199:\n        /* \"#utility.yul\":85:90   */\n      0x00\n        /* \"#utility.yul\":110:176   */\n      tag_201\n        /* \"#utility.yul\":126:175   */\n      tag_202\n        /* \"#utility.yul\":168:174   */\n      dup5\n        /* \"#utility.yul\":126:175   */\n      tag_203\n      jump\t// in\n    tag_202:\n        /* \"#utility.yul\":110:176   */\n      tag_204\n      jump\t// in\n    tag_201:\n        /* \"#utility.yul\":101:176   */\n      swap1\n      pop\n        /* \"#utility.yul\":199:205   */\n      dup3\n        /* \"#utility.yul\":192:197   */\n      dup2\n        /* \"#utility.yul\":185:206   */\n      mstore\n        /* \"#utility.yul\":237:241   */\n      0x20\n        /* \"#utility.yul\":230:235   */\n      dup2\n        /* \"#utility.yul\":226:242   */\n      add\n        /* \"#utility.yul\":275:278   */\n      dup5\n        /* \"#utility.yul\":266:272   */\n      dup5\n        /* \"#utility.yul\":261:264   */\n      dup5\n        /* \"#utility.yul\":257:273   */\n      add\n        /* \"#utility.yul\":254:279   */\n      gt\n        /* \"#utility.yul\":251:363   */\n      iszero\n      tag_205\n      jumpi\n        /* \"#utility.yul\":282:361   */\n      tag_206\n      tag_207\n      jump\t// in\n    tag_206:\n        /* \"#utility.yul\":251:363   */\n    tag_205:\n        /* \"#utility.yul\":372:413   */\n      tag_208\n        /* \"#utility.yul\":406:412   */\n      dup5\n        /* \"#utility.yul\":401:404   */\n      dup3\n        /* \"#utility.yul\":396:399   */\n      dup6\n        /* \"#utility.yul\":372:413   */\n      tag_209\n      jump\t// in\n    tag_208:\n        /* \"#utility.yul\":91:419   */\n      pop\n        /* \"#utility.yul\":7:419   */\n      swap4\n      swap3\n      pop\n      pop\n      pop\n      jump\t// out\n        /* \"#utility.yul\":425:564   */\n    tag_210:\n        /* \"#utility.yul\":471:476   */\n      0x00\n        /* \"#utility.yul\":509:515   */\n      dup2\n        /* \"#utility.yul\":496:516   */\n      calldataload\n        /* \"#utility.yul\":487:516   */\n      swap1\n      pop\n        /* \"#utility.yul\":525:558   */\n      tag_212\n        /* \"#utility.yul\":552:557   */\n      dup2\n        /* \"#utility.yul\":525:558   */\n      tag_213\n      jump\t// in\n    tag_212:\n        /* \"#utility.yul\":425:564   */\n      swap3\n      swap2\n      pop\n      pop\n      jump\t// out\n        /* \"#utility.yul\":570:725   */\n    tag_214:\n        /* \"#utility.yul\":624:629   */\n      0x00\n        /* \"#utility.yul\":662:668   */\n      dup2\n        /* \"#utility.yul\":649:669   */\n      calldataload\n        /* \"#utility.yul\":640:669   */\n      swap1\n      pop\n        /* \"#utility.yul\":678:719   */\n      tag_216\n        /* \"#utility.yul\":713:718   */\n      dup2\n        /* \"#utility.yul\":678:719   */\n      tag_217\n      jump\t// in\n    tag_216:\n        /* \"#utility.yul\":570:725   */\n      swap3\n      swap2\n      pop\n      pop\n      jump\t// out\n        /* \"#utility.yul\":745:1085   */\n    tag_218:\n        /* \"#utility.yul\":801:806   */\n      0x00\n        /* \"#utility.yul\":850:853   */\n      dup3\n        /* \"#utility.yul\":843:847   */\n      0x1f\n        /* \"#utility.yul\":835:841   */\n      dup4\n        /* \"#utility.yul\":831:848   */\n      add\n        /* \"#utility.yul\":827:854   */\n      slt\n        /* \"#utility.yul\":817:939   */\n      tag_220\n      jumpi\n        /* \"#utility.yul\":858:937   */\n      tag_221\n      tag_222\n      jump\t// in\n    tag_221:\n        /* \"#utility.yul\":817:939   */\n    tag_220:\n        /* \"#utility.yul\":975:981   */\n      dup2\n        /* \"#utility.yul\":962:982   */\n      calldataload\n        /* \"#utility.yul\":1000:1079   */\n      tag_223\n        /* \"#utility.yul\":1075:1078   */\n      dup5\n        /* \"#utility.yul\":1067:1073   */\n      dup3\n        /* \"#utility.yul\":1060:1064   */\n      0x20\n        /* \"#utility.yul\":1052:1058   */\n      dup7\n        /* \"#utility.yul\":1048:1065   */\n      add\n        /* \"#utility.yul\":1000:1079   */\n      tag_199\n      jump\t// in\n    tag_223:\n        /* \"#utility.yul\":991:1079   */\n      swap2\n      pop\n        /* \"#utility.yul\":807:1085   */\n      pop\n        /* \"#utility.yul\":745:1085   */\n      swap3\n      swap2\n      pop\n      pop\n      jump\t// out\n        /* \"#utility.yul\":1091:1230   */\n    tag_224:\n        /* \"#utility.yul\":1137:1142   */\n      0x00\n        /* \"#utility.yul\":1175:1181   */\n      dup2\n        /* \"#utility.yul\":1162:1182   */\n      calldataload\n        /* \"#utility.yul\":1153:1182   */\n      swap1\n      pop\n        /* \"#utility.yul\":1191:1224   */\n      tag_226\n        /* \"#utility.yul\":1218:1223   */\n      dup2\n        /* \"#utility.yul\":1191:1224   */\n      tag_227\n      jump\t// in\n    tag_226:\n        /* \"#utility.yul\":1091:1230   */\n      swap3\n      swap2\n      pop\n      pop\n      jump\t// out\n        /* \"#utility.yul\":1236:1371   */\n    tag_228:\n        /* \"#utility.yul\":1280:1285   */\n      0x00\n        /* \"#utility.yul\":1318:1324   */\n      dup2\n        /* \"#utility.yul\":1305:1325   */\n      calldataload\n        /* \"#utility.yul\":1296:1325   */\n      swap1\n      pop\n        /* \"#utility.yul\":1334:1365   */\n      tag_230\n        /* \"#utility.yul\":1359:1364   */\n      dup2\n        /* \"#utility.yul\":1334:1365   */\n      tag_231\n      jump\t// in\n    tag_230:\n        /* \"#utility.yul\":1236:1371   */\n      swap3\n      swap2\n      pop\n      pop\n      jump\t// out\n        /* \"#utility.yul\":1377:1996   */\n    tag_17:\n        /* \"#utility.yul\":1454:1460   */\n      0x00\n        /* \"#utility.yul\":1462:1468   */\n      dup1\n        /* \"#utility.yul\":1470:1476   */\n      0x00\n        /* \"#utility.yul\":1519:1521   */\n      0x60\n        /* \"#utility.yul\":1507:1516   */\n      dup5\n        /* \"#utility.yul\":1498:1505   */\n      dup7\n        /* \"#utility.yul\":1494:1517   */\n      sub\n        /* \"#utility.yul\":1490:1522   */\n      slt\n        /* \"#utility.yul\":1487:1606   */\n      iszero\n      tag_233\n      jumpi\n        /* \"#utility.yul\":1525:1604   */\n      tag_234\n      tag_235\n      jump\t// in\n    tag_234:\n        /* \"#utility.yul\":1487:1606   */\n    tag_233:\n        /* \"#utility.yul\":1645:1646   */\n      0x00\n        /* \"#utility.yul\":1670:1723   */\n      tag_236\n        /* \"#utility.yul\":1715:1722   */\n      dup7\n        /* \"#utility.yul\":1706:1712   */\n      dup3\n        /* \"#utility.yul\":1695:1704   */\n      dup8\n        /* \"#utility.yul\":1691:1713   */\n      add\n        /* \"#utility.yul\":1670:1723   */\n      tag_224\n      jump\t// in\n    tag_236:\n        /* \"#utility.yul\":1660:1723   */\n      swap4\n      pop\n        /* \"#utility.yul\":1616:1733   */\n      pop\n        /* \"#utility.yul\":1772:1774   */\n      0x20\n        /* \"#utility.yul\":1798:1851   */\n      tag_237\n        /* \"#utility.yul\":1843:1850   */\n      dup7\n        /* \"#utility.yul\":1834:1840   */\n      dup3\n        /* \"#utility.yul\":1823:1832   */\n      dup8\n        /* \"#utility.yul\":1819:1841   */\n      add\n        /* \"#utility.yul\":1798:1851   */\n      tag_224\n      jump\t// in\n    tag_237:\n        /* \"#utility.yul\":1788:1851   */\n      swap3\n      pop\n        /* \"#utility.yul\":1743:1861   */\n      pop\n        /* \"#utility.yul\":1900:1902   */\n      0x40\n        /* \"#utility.yul\":1926:1979   */\n      tag_238\n        /* \"#utility.yul\":1971:1978   */\n      dup7\n        /* \"#utility.yul\":1962:1968   */\n      dup3\n        /* \"#utility.yul\":1951:1960   */\n      dup8\n        /* \"#utility.yul\":1947:1969   */\n      add\n        /* \"#utility.yul\":1926:1979   */\n      tag_224\n      jump\t// in\n    tag_238:\n        /* \"#utility.yul\":1916:1979   */\n      swap2\n      pop\n        /* \"#utility.yul\":1871:1989   */\n      pop\n        /* \"#utility.yul\":1377:1996   */\n      swap3\n      pop\n      swap3\n      pop\n      swap3\n      jump\t// out\n        /* \"#utility.yul\":2002:2909   */\n    tag_46:\n        /* \"#utility.yul\":2095:2101   */\n      0x00\n        /* \"#utility.yul\":2103:2109   */\n      dup1\n        /* \"#utility.yul\":2111:2117   */\n      0x00\n        /* \"#utility.yul\":2119:2125   */\n      dup1\n        /* \"#utility.yul\":2127:2133   */\n      0x00\n        /* \"#utility.yul\":2176:2179   */\n      0xa0\n        /* \"#utility.yul\":2164:2173   */\n      dup7\n        /* \"#utility.yul\":2155:2162   */\n      dup9\n        /* \"#utility.yul\":2151:2174   */\n      sub\n        /* \"#utility.yul\":2147:2180   */\n      slt\n        /* \"#utility.yul\":2144:2264   */\n      iszero\n      tag_240\n      jumpi\n        /* \"#utility.yul\":2183:2262   */\n      tag_241\n      tag_235\n      jump\t// in\n    tag_241:\n        /* \"#utility.yul\":2144:2264   */\n    tag_240:\n        /* \"#utility.yul\":2303:2304   */\n      0x00\n        /* \"#utility.yul\":2328:2381   */\n      tag_242\n        /* \"#utility.yul\":2373:2380   */\n      dup9\n        /* \"#utility.yul\":2364:2370   */\n      dup3\n        /* \"#utility.yul\":2353:2362   */\n      dup10\n        /* \"#utility.yul\":2349:2371   */\n      add\n        /* \"#utility.yul\":2328:2381   */\n      tag_224\n      jump\t// in\n    tag_242:\n        /* \"#utility.yul\":2318:2381   */\n      swap6\n      pop\n        /* \"#utility.yul\":2274:2391   */\n      pop\n        /* \"#utility.yul\":2430:2432   */\n      0x20\n        /* \"#utility.yul\":2456:2509   */\n      tag_243\n        /* \"#utility.yul\":2501:2508   */\n      dup9\n        /* \"#utility.yul\":2492:2498   */\n      dup3\n        /* \"#utility.yul\":2481:2490   */\n      dup10\n        /* \"#utility.yul\":2477:2499   */\n      add\n        /* \"#utility.yul\":2456:2509   */\n      tag_224\n      jump\t// in\n    tag_243:\n        /* \"#utility.yul\":2446:2509   */\n      swap5\n      pop\n        /* \"#utility.yul\":2401:2519   */\n      pop\n        /* \"#utility.yul\":2558:2560   */\n      0x40\n        /* \"#utility.yul\":2584:2637   */\n      tag_244\n        /* \"#utility.yul\":2629:2636   */\n      dup9\n        /* \"#utility.yul\":2620:2626   */\n      dup3\n        /* \"#utility.yul\":2609:2618   */\n      dup10\n        /* \"#utility.yul\":2605:2627   */\n      add\n        /* \"#utility.yul\":2584:2637   */\n      tag_224\n      jump\t// in\n    tag_244:\n        /* \"#utility.yul\":2574:2637   */\n      swap4\n      pop\n        /* \"#utility.yul\":2529:2647   */\n      pop\n        /* \"#utility.yul\":2686:2688   */\n      0x60\n        /* \"#utility.yul\":2712:2765   */\n      tag_245\n        /* \"#utility.yul\":2757:2764   */\n      dup9\n        /* \"#utility.yul\":2748:2754   */\n      dup3\n        /* \"#utility.yul\":2737:2746   */\n      dup10\n        /* \"#utility.yul\":2733:2755   */\n      add\n        /* \"#utility.yul\":2712:2765   */\n      tag_210\n      jump\t// in\n    tag_245:\n        /* \"#utility.yul\":2702:2765   */\n      swap3\n      pop\n        /* \"#utility.yul\":2657:2775   */\n      pop\n        /* \"#utility.yul\":2814:2817   */\n      0x80\n        /* \"#utility.yul\":2841:2892   */\n      tag_246\n        /* \"#utility.yul\":2884:2891   */\n      dup9\n        /* \"#utility.yul\":2875:2881   */\n      dup3\n        /* \"#utility.yul\":2864:2873   */\n      dup10\n        /* \"#utility.yul\":2860:2882   */\n      add\n        /* \"#utility.yul\":2841:2892   */\n      tag_228\n      jump\t// in\n    tag_246:\n        /* \"#utility.yul\":2831:2892   */\n      swap2\n      pop\n        /* \"#utility.yul\":2785:2902   */\n      pop\n        /* \"#utility.yul\":2002:2909   */\n      swap3\n      swap6\n      pop\n      swap3\n      swap6\n      swap1\n      swap4\n      pop\n      jump\t// out\n        /* \"#utility.yul\":2915:4348   */\n    tag_35:\n        /* \"#utility.yul\":3047:3053   */\n      0x00\n        /* \"#utility.yul\":3055:3061   */\n      dup1\n        /* \"#utility.yul\":3063:3069   */\n      0x00\n        /* \"#utility.yul\":3071:3077   */\n      dup1\n        /* \"#utility.yul\":3079:3085   */\n      0x00\n        /* \"#utility.yul\":3087:3093   */\n      dup1\n        /* \"#utility.yul\":3136:3139   */\n      0xc0\n        /* \"#utility.yul\":3124:3133   */\n      dup8\n        /* \"#utility.yul\":3115:3122   */\n      dup10\n        /* \"#utility.yul\":3111:3134   */\n      sub\n        /* \"#utility.yul\":3107:3140   */\n      slt\n        /* \"#utility.yul\":3104:3224   */\n      iszero\n      tag_248\n      jumpi\n        /* \"#utility.yul\":3143:3222   */\n      tag_249\n      tag_235\n      jump\t// in\n    tag_249:\n        /* \"#utility.yul\":3104:3224   */\n    tag_248:\n        /* \"#utility.yul\":3263:3264   */\n      0x00\n        /* \"#utility.yul\":3288:3341   */\n      tag_250\n        /* \"#utility.yul\":3333:3340   */\n      dup10\n        /* \"#utility.yul\":3324:3330   */\n      dup3\n        /* \"#utility.yul\":3313:3322   */\n      dup11\n        /* \"#utility.yul\":3309:3331   */\n      add\n        /* \"#utility.yul\":3288:3341   */\n      tag_224\n      jump\t// in\n    tag_250:\n        /* \"#utility.yul\":3278:3341   */\n      swap7\n      pop\n        /* \"#utility.yul\":3234:3351   */\n      pop\n        /* \"#utility.yul\":3390:3392   */\n      0x20\n        /* \"#utility.yul\":3416:3469   */\n      tag_251\n        /* \"#utility.yul\":3461:3468   */\n      dup10\n        /* \"#utility.yul\":3452:3458   */\n      dup3\n        /* \"#utility.yul\":3441:3450   */\n      dup11\n        /* \"#utility.yul\":3437:3459   */\n      add\n        /* \"#utility.yul\":3416:3469   */\n      tag_224\n      jump\t// in\n    tag_251:\n        /* \"#utility.yul\":3406:3469   */\n      swap6\n      pop\n        /* \"#utility.yul\":3361:3479   */\n      pop\n        /* \"#utility.yul\":3518:3520   */\n      0x40\n        /* \"#utility.yul\":3544:3597   */\n      tag_252\n        /* \"#utility.yul\":3589:3596   */\n      dup10\n        /* \"#utility.yul\":3580:3586   */\n      dup3\n        /* \"#utility.yul\":3569:3578   */\n      dup11\n        /* \"#utility.yul\":3565:3587   */\n      add\n        /* \"#utility.yul\":3544:3597   */\n      tag_224\n      jump\t// in\n    tag_252:\n        /* \"#utility.yul\":3534:3597   */\n      swap5\n      pop\n        /* \"#utility.yul\":3489:3607   */\n      pop\n        /* \"#utility.yul\":3674:3676   */\n      0x60\n        /* \"#utility.yul\":3663:3672   */\n      dup8\n        /* \"#utility.yul\":3659:3677   */\n      add\n        /* \"#utility.yul\":3646:3678   */\n      calldataload\n        /* \"#utility.yul\":3705:3723   */\n      0xffffffffffffffff\n        /* \"#utility.yul\":3697:3703   */\n      dup2\n        /* \"#utility.yul\":3694:3724   */\n      gt\n        /* \"#utility.yul\":3691:3808   */\n      iszero\n      tag_253\n      jumpi\n        /* \"#utility.yul\":3727:3806   */\n      tag_254\n      tag_255\n      jump\t// in\n    tag_254:\n        /* \"#utility.yul\":3691:3808   */\n    tag_253:\n        /* \"#utility.yul\":3832:3895   */\n      tag_256\n        /* \"#utility.yul\":3887:3894   */\n      dup10\n        /* \"#utility.yul\":3878:3884   */\n      dup3\n        /* \"#utility.yul\":3867:3876   */\n      dup11\n        /* \"#utility.yul\":3863:3885   */\n      add\n        /* \"#utility.yul\":3832:3895   */\n      tag_218\n      jump\t// in\n    tag_256:\n        /* \"#utility.yul\":3822:3895   */\n      swap4\n      pop\n        /* \"#utility.yul\":3617:3905   */\n      pop\n        /* \"#utility.yul\":3972:3975   */\n      0x80\n        /* \"#utility.yul\":3961:3970   */\n      dup8\n        /* \"#utility.yul\":3957:3976   */\n      add\n        /* \"#utility.yul\":3944:3977   */\n      calldataload\n        /* \"#utility.yul\":4004:4022   */\n      0xffffffffffffffff\n        /* \"#utility.yul\":3996:4002   */\n      dup2\n        /* \"#utility.yul\":3993:4023   */\n      gt\n        /* \"#utility.yul\":3990:4107   */\n      iszero\n      tag_257\n      jumpi\n        /* \"#utility.yul\":4026:4105   */\n      tag_258\n      tag_255\n      jump\t// in\n    tag_258:\n        /* \"#utility.yul\":3990:4107   */\n    tag_257:\n        /* \"#utility.yul\":4131:4194   */\n      tag_259\n        /* \"#utility.yul\":4186:4193   */\n      dup10\n        /* \"#utility.yul\":4177:4183   */\n      dup3\n        /* \"#utility.yul\":4166:4175   */\n      dup11\n        /* \"#utility.yul\":4162:4184   */\n      add\n        /* \"#utility.yul\":4131:4194   */\n      tag_218\n      jump\t// in\n    tag_259:\n        /* \"#utility.yul\":4121:4194   */\n      swap3\n      pop\n        /* \"#utility.yul\":3915:4204   */\n      pop\n        /* \"#utility.yul\":4243:4246   */\n      0xa0\n        /* \"#utility.yul\":4270:4331   */\n      tag_260\n        /* \"#utility.yul\":4323:4330   */\n      dup10\n        /* \"#utility.yul\":4314:4320   */\n      dup3\n        /* \"#utility.yul\":4303:4312   */\n      dup11\n        /* \"#utility.yul\":4299:4321   */\n      add\n        /* \"#utility.yul\":4270:4331   */\n      tag_214\n      jump\t// in\n    tag_260:\n        /* \"#utility.yul\":4260:4331   */\n      swap2\n      pop\n        /* \"#utility.yul\":4214:4341   */\n      pop\n        /* \"#utility.yul\":2915:4348   */\n      swap3\n      swap6\n      pop\n      swap3\n      swap6\n      pop\n      swap3\n      swap6\n      jump\t// out\n        /* \"#utility.yul\":4354:6095   */\n    tag_59:\n        /* \"#utility.yul\":4512:4518   */\n      0x00\n        /* \"#utility.yul\":4520:4526   */\n      dup1\n        /* \"#utility.yul\":4528:4534   */\n      0x00\n        /* \"#utility.yul\":4536:4542   */\n      dup1\n        /* \"#utility.yul\":4544:4550   */\n      0x00\n        /* \"#utility.yul\":4552:4558   */\n      dup1\n        /* \"#utility.yul\":4560:4566   */\n      0x00\n        /* \"#utility.yul\":4568:4574   */\n      dup1\n        /* \"#utility.yul\":4617:4620   */\n      0x0100\n        /* \"#utility.yul\":4605:4614   */\n      dup10\n        /* \"#utility.yul\":4596:4603   */\n      dup12\n        /* \"#utility.yul\":4592:4615   */\n      sub\n        /* \"#utility.yul\":4588:4621   */\n      slt\n        /* \"#utility.yul\":4585:4705   */\n      iszero\n      tag_262\n      jumpi\n        /* \"#utility.yul\":4624:4703   */\n      tag_263\n      tag_235\n      jump\t// in\n    tag_263:\n        /* \"#utility.yul\":4585:4705   */\n    tag_262:\n        /* \"#utility.yul\":4744:4745   */\n      0x00\n        /* \"#utility.yul\":4769:4822   */\n      tag_264\n        /* \"#utility.yul\":4814:4821   */\n      dup12\n        /* \"#utility.yul\":4805:4811   */\n      dup3\n        /* \"#utility.yul\":4794:4803   */\n      dup13\n        /* \"#utility.yul\":4790:4812   */\n      add\n        /* \"#utility.yul\":4769:4822   */\n      tag_224\n      jump\t// in\n    tag_264:\n        /* \"#utility.yul\":4759:4822   */\n      swap9\n      pop\n        /* \"#utility.yul\":4715:4832   */\n      pop\n        /* \"#utility.yul\":4871:4873   */\n      0x20\n        /* \"#utility.yul\":4897:4950   */\n      tag_265\n        /* \"#utility.yul\":4942:4949   */\n      dup12\n        /* \"#utility.yul\":4933:4939   */\n      dup3\n        /* \"#utility.yul\":4922:4931   */\n      dup13\n        /* \"#utility.yul\":4918:4940   */\n      add\n        /* \"#utility.yul\":4897:4950   */\n      tag_224\n      jump\t// in\n    tag_265:\n        /* \"#utility.yul\":4887:4950   */\n      swap8\n      pop\n        /* \"#utility.yul\":4842:4960   */\n      pop\n        /* \"#utility.yul\":4999:5001   */\n      0x40\n        /* \"#utility.yul\":5025:5078   */\n      tag_266\n        /* \"#utility.yul\":5070:5077   */\n      dup12\n        /* \"#utility.yul\":5061:5067   */\n      dup3\n        /* \"#utility.yul\":5050:5059   */\n      dup13\n        /* \"#utility.yul\":5046:5068   */\n      add\n        /* \"#utility.yul\":5025:5078   */\n      tag_224\n      jump\t// in\n    tag_266:\n        /* \"#utility.yul\":5015:5078   */\n      swap7\n      pop\n        /* \"#utility.yul\":4970:5088   */\n      pop\n        /* \"#utility.yul\":5155:5157   */\n      0x60\n        /* \"#utility.yul\":5144:5153   */\n      dup10\n        /* \"#utility.yul\":5140:5158   */\n      add\n        /* \"#utility.yul\":5127:5159   */\n      calldataload\n        /* \"#utility.yul\":5186:5204   */\n      0xffffffffffffffff\n        /* \"#utility.yul\":5178:5184   */\n      dup2\n        /* \"#utility.yul\":5175:5205   */\n      gt\n        /* \"#utility.yul\":5172:5289   */\n      iszero\n      tag_267\n      jumpi\n        /* \"#utility.yul\":5208:5287   */\n      tag_268\n      tag_255\n      jump\t// in\n    tag_268:\n        /* \"#utility.yul\":5172:5289   */\n    tag_267:\n        /* \"#utility.yul\":5313:5376   */\n      tag_269\n        /* \"#utility.yul\":5368:5375   */\n      dup12\n        /* \"#utility.yul\":5359:5365   */\n      dup3\n        /* \"#utility.yul\":5348:5357   */\n      dup13\n        /* \"#utility.yul\":5344:5366   */\n      add\n        /* \"#utility.yul\":5313:5376   */\n      tag_218\n      jump\t// in\n    tag_269:\n        /* \"#utility.yul\":5303:5376   */\n      swap6\n      pop\n        /* \"#utility.yul\":5098:5386   */\n      pop\n        /* \"#utility.yul\":5453:5456   */\n      0x80\n        /* \"#utility.yul\":5442:5451   */\n      dup10\n        /* \"#utility.yul\":5438:5457   */\n      add\n        /* \"#utility.yul\":5425:5458   */\n      calldataload\n        /* \"#utility.yul\":5485:5503   */\n      0xffffffffffffffff\n        /* \"#utility.yul\":5477:5483   */\n      dup2\n        /* \"#utility.yul\":5474:5504   */\n      gt\n        /* \"#utility.yul\":5471:5588   */\n      iszero\n      tag_270\n      jumpi\n        /* \"#utility.yul\":5507:5586   */\n      tag_271\n      tag_255\n      jump\t// in\n    tag_271:\n        /* \"#utility.yul\":5471:5588   */\n    tag_270:\n        /* \"#utility.yul\":5612:5675   */\n      tag_272\n        /* \"#utility.yul\":5667:5674   */\n      dup12\n        /* \"#utility.yul\":5658:5664   */\n      dup3\n        /* \"#utility.yul\":5647:5656   */\n      dup13\n        /* \"#utility.yul\":5643:5665   */\n      add\n        /* \"#utility.yul\":5612:5675   */\n      tag_218\n      jump\t// in\n    tag_272:\n        /* \"#utility.yul\":5602:5675   */\n      swap5\n      pop\n        /* \"#utility.yul\":5396:5685   */\n      pop\n        /* \"#utility.yul\":5724:5727   */\n      0xa0\n        /* \"#utility.yul\":5751:5812   */\n      tag_273\n        /* \"#utility.yul\":5804:5811   */\n      dup12\n        /* \"#utility.yul\":5795:5801   */\n      dup3\n        /* \"#utility.yul\":5784:5793   */\n      dup13\n        /* \"#utility.yul\":5780:5802   */\n      add\n        /* \"#utility.yul\":5751:5812   */\n      tag_214\n      jump\t// in\n    tag_273:\n        /* \"#utility.yul\":5741:5812   */\n      swap4\n      pop\n        /* \"#utility.yul\":5695:5822   */\n      pop\n        /* \"#utility.yul\":5861:5864   */\n      0xc0\n        /* \"#utility.yul\":5888:5949   */\n      tag_274\n        /* \"#utility.yul\":5941:5948   */\n      dup12\n        /* \"#utility.yul\":5932:5938   */\n      dup3\n        /* \"#utility.yul\":5921:5930   */\n      dup13\n        /* \"#utility.yul\":5917:5939   */\n      add\n        /* \"#utility.yul\":5888:5949   */\n      tag_214\n      jump\t// in\n    tag_274:\n        /* \"#utility.yul\":5878:5949   */\n      swap3\n      pop\n        /* \"#utility.yul\":5832:5959   */\n      pop\n        /* \"#utility.yul\":5998:6001   */\n      0xe0\n        /* \"#utility.yul\":6025:6078   */\n      tag_275\n        /* \"#utility.yul\":6070:6077   */\n      dup12\n        /* \"#utility.yul\":6061:6067   */\n      dup3\n        /* \"#utility.yul\":6050:6059   */\n      dup13\n        /* \"#utility.yul\":6046:6068   */\n      add\n        /* \"#utility.yul\":6025:6078   */\n      tag_224\n      jump\t// in\n    tag_275:\n        /* \"#utility.yul\":6015:6078   */\n      swap2\n      pop\n        /* \"#utility.yul\":5969:6088   */\n      pop\n        /* \"#utility.yul\":4354:6095   */\n      swap3\n      swap6\n      swap9\n      pop\n      swap3\n      swap6\n      swap9\n      swap1\n      swap4\n      swap7\n      pop\n      jump\t// out\n        /* \"#utility.yul\":6101:6248   */\n    tag_276:\n        /* \"#utility.yul\":6196:6241   */\n      tag_278\n        /* \"#utility.yul\":6235:6240   */\n      dup2\n        /* \"#utility.yul\":6196:6241   */\n      tag_279\n      jump\t// in\n    tag_278:\n        /* \"#utility.yul\":6191:6194   */\n      dup3\n        /* \"#utility.yul\":6184:6242   */\n      mstore\n        /* \"#utility.yul\":6101:6248   */\n      pop\n      pop\n      jump\t// out\n        /* \"#utility.yul\":6254:6372   */\n    tag_280:\n        /* \"#utility.yul\":6341:6365   */\n      tag_282\n        /* \"#utility.yul\":6359:6364   */\n      dup2\n        /* \"#utility.yul\":6341:6365   */\n      tag_283\n      jump\t// in\n    tag_282:\n        /* \"#utility.yul\":6336:6339   */\n      dup3\n        /* \"#utility.yul\":6329:6366   */\n      mstore\n        /* \"#utility.yul\":6254:6372   */\n      pop\n      pop\n      jump\t// out\n        /* \"#utility.yul\":6378:6487   */\n    tag_284:\n        /* \"#utility.yul\":6459:6480   */\n      tag_286\n        /* \"#utility.yul\":6474:6479   */\n      dup2\n        /* \"#utility.yul\":6459:6480   */\n      tag_287\n      jump\t// in\n    tag_286:\n        /* \"#utility.yul\":6454:6457   */\n      dup3\n        /* \"#utility.yul\":6447:6481   */\n      mstore\n        /* \"#utility.yul\":6378:6487   */\n      pop\n      pop\n      jump\t// out\n        /* \"#utility.yul\":6493:6656   */\n    tag_288:\n        /* \"#utility.yul\":6596:6649   */\n      tag_290\n        /* \"#utility.yul\":6643:6648   */\n      dup2\n        /* \"#utility.yul\":6596:6649   */\n      tag_291\n      jump\t// in\n    tag_290:\n        /* \"#utility.yul\":6591:6594   */\n      dup3\n        /* \"#utility.yul\":6584:6650   */\n      mstore\n        /* \"#utility.yul\":6493:6656   */\n      pop\n      pop\n      jump\t// out\n        /* \"#utility.yul\":6662:7028   */\n    tag_292:\n        /* \"#utility.yul\":6804:6807   */\n      0x00\n        /* \"#utility.yul\":6825:6892   */\n      tag_294\n        /* \"#utility.yul\":6889:6891   */\n      0x57\n        /* \"#utility.yul\":6884:6887   */\n      dup4\n        /* \"#utility.yul\":6825:6892   */\n      tag_295\n      jump\t// in\n    tag_294:\n        /* \"#utility.yul\":6818:6892   */\n      swap2\n      pop\n        /* \"#utility.yul\":6901:6994   */\n      tag_296\n        /* \"#utility.yul\":6990:6993   */\n      dup3\n        /* \"#utility.yul\":6901:6994   */\n      tag_297\n      jump\t// in\n    tag_296:\n        /* \"#utility.yul\":7019:7021   */\n      0x60\n        /* \"#utility.yul\":7014:7017   */\n      dup3\n        /* \"#utility.yul\":7010:7022   */\n      add\n        /* \"#utility.yul\":7003:7022   */\n      swap1\n      pop\n        /* \"#utility.yul\":6662:7028   */\n      swap2\n      swap1\n      pop\n      jump\t// out\n        /* \"#utility.yul\":7034:7400   */\n    tag_298:\n        /* \"#utility.yul\":7176:7179   */\n      0x00\n        /* \"#utility.yul\":7197:7264   */\n      tag_300\n        /* \"#utility.yul\":7261:7263   */\n      0x2d\n        /* \"#utility.yul\":7256:7259   */\n      dup4\n        /* \"#utility.yul\":7197:7264   */\n      tag_295\n      jump\t// in\n    tag_300:\n        /* \"#utility.yul\":7190:7264   */\n      swap2\n      pop\n        /* \"#utility.yul\":7273:7366   */\n      tag_301\n        /* \"#utility.yul\":7362:7365   */\n      dup3\n        /* \"#utility.yul\":7273:7366   */\n      tag_302\n      jump\t// in\n    tag_301:\n        /* \"#utility.yul\":7391:7393   */\n      0x40\n        /* \"#utility.yul\":7386:7389   */\n      dup3\n        /* \"#utility.yul\":7382:7394   */\n      add\n        /* \"#utility.yul\":7375:7394   */\n      swap1\n      pop\n        /* \"#utility.yul\":7034:7400   */\n      swap2\n      swap1\n      pop\n      jump\t// out\n        /* \"#utility.yul\":7406:7772   */\n    tag_303:\n        /* \"#utility.yul\":7548:7551   */\n      0x00\n        /* \"#utility.yul\":7569:7636   */\n      tag_305\n        /* \"#utility.yul\":7633:7635   */\n      0x20\n        /* \"#utility.yul\":7628:7631   */\n      dup4\n        /* \"#utility.yul\":7569:7636   */\n      tag_295\n      jump\t// in\n    tag_305:\n        /* \"#utility.yul\":7562:7636   */\n      swap2\n      pop\n        /* \"#utility.yul\":7645:7738   */\n      tag_306\n        /* \"#utility.yul\":7734:7737   */\n      dup3\n        /* \"#utility.yul\":7645:7738   */\n      tag_307\n      jump\t// in\n    tag_306:\n        /* \"#utility.yul\":7763:7765   */\n      0x20\n        /* \"#utility.yul\":7758:7761   */\n      dup3\n        /* \"#utility.yul\":7754:7766   */\n      add\n        /* \"#utility.yul\":7747:7766   */\n      swap1\n      pop\n        /* \"#utility.yul\":7406:7772   */\n      swap2\n      swap1\n      pop\n      jump\t// out\n        /* \"#utility.yul\":7778:8144   */\n    tag_308:\n        /* \"#utility.yul\":7920:7923   */\n      0x00\n        /* \"#utility.yul\":7941:8008   */\n      tag_310\n        /* \"#utility.yul\":8005:8007   */\n      0x1d\n        /* \"#utility.yul\":8000:8003   */\n      dup4\n        /* \"#utility.yul\":7941:8008   */\n      tag_295\n      jump\t// in\n    tag_310:\n        /* \"#utility.yul\":7934:8008   */\n      swap2\n      pop\n        /* \"#utility.yul\":8017:8110   */\n      tag_311\n        /* \"#utility.yul\":8106:8109   */\n      dup3\n        /* \"#utility.yul\":8017:8110   */\n      tag_312\n      jump\t// in\n    tag_311:\n        /* \"#utility.yul\":8135:8137   */\n      0x20\n        /* \"#utility.yul\":8130:8133   */\n      dup3\n        /* \"#utility.yul\":8126:8138   */\n      add\n        /* \"#utility.yul\":8119:8138   */\n      swap1\n      pop\n        /* \"#utility.yul\":7778:8144   */\n      swap2\n      swap1\n      pop\n      jump\t// out\n        /* \"#utility.yul\":8150:8516   */\n    tag_313:\n        /* \"#utility.yul\":8292:8295   */\n      0x00\n        /* \"#utility.yul\":8313:8380   */\n      tag_315\n        /* \"#utility.yul\":8377:8379   */\n      0x30\n        /* \"#utility.yul\":8372:8375   */\n      dup4\n        /* \"#utility.yul\":8313:8380   */\n      tag_295\n      jump\t// in\n    tag_315:\n        /* \"#utility.yul\":8306:8380   */\n      swap2\n      pop\n        /* \"#utility.yul\":8389:8482   */\n      tag_316\n        /* \"#utility.yul\":8478:8481   */\n      dup3\n        /* \"#utility.yul\":8389:8482   */\n      tag_317\n      jump\t// in\n    tag_316:\n        /* \"#utility.yul\":8507:8509   */\n      0x40\n        /* \"#utility.yul\":8502:8505   */\n      dup3\n        /* \"#utility.yul\":8498:8510   */\n      add\n        /* \"#utility.yul\":8491:8510   */\n      swap1\n      pop\n        /* \"#utility.yul\":8150:8516   */\n      swap2\n      swap1\n      pop\n      jump\t// out\n        /* \"#utility.yul\":8522:8888   */\n    tag_318:\n        /* \"#utility.yul\":8664:8667   */\n      0x00\n        /* \"#utility.yul\":8685:8752   */\n      tag_320\n        /* \"#utility.yul\":8749:8751   */\n      0x40\n        /* \"#utility.yul\":8744:8747   */\n      dup4\n        /* \"#utility.yul\":8685:8752   */\n      tag_295\n      jump\t// in\n    tag_320:\n        /* \"#utility.yul\":8678:8752   */\n      swap2\n      pop\n        /* \"#utility.yul\":8761:8854   */\n      tag_321\n        /* \"#utility.yul\":8850:8853   */\n      dup3\n        /* \"#utility.yul\":8761:8854   */\n      tag_322\n      jump\t// in\n    tag_321:\n        /* \"#utility.yul\":8879:8881   */\n      0x40\n        /* \"#utility.yul\":8874:8877   */\n      dup3\n        /* \"#utility.yul\":8870:8882   */\n      add\n        /* \"#utility.yul\":8863:8882   */\n      swap1\n      pop\n        /* \"#utility.yul\":8522:8888   */\n      swap2\n      swap1\n      pop\n      jump\t// out\n        /* \"#utility.yul\":8894:9260   */\n    tag_323:\n        /* \"#utility.yul\":9036:9039   */\n      0x00\n        /* \"#utility.yul\":9057:9124   */\n      tag_325\n        /* \"#utility.yul\":9121:9123   */\n      0x3d\n        /* \"#utility.yul\":9116:9119   */\n      dup4\n        /* \"#utility.yul\":9057:9124   */\n      tag_295\n      jump\t// in\n    tag_325:\n        /* \"#utility.yul\":9050:9124   */\n      swap2\n      pop\n        /* \"#utility.yul\":9133:9226   */\n      tag_326\n        /* \"#utility.yul\":9222:9225   */\n      dup3\n        /* \"#utility.yul\":9133:9226   */\n      tag_327\n      jump\t// in\n    tag_326:\n        /* \"#utility.yul\":9251:9253   */\n      0x40\n        /* \"#utility.yul\":9246:9249   */\n      dup3\n        /* \"#utility.yul\":9242:9254   */\n      add\n        /* \"#utility.yul\":9235:9254   */\n      swap1\n      pop\n        /* \"#utility.yul\":8894:9260   */\n      swap2\n      swap1\n      pop\n      jump\t// out\n        /* \"#utility.yul\":9266:9632   */\n    tag_328:\n        /* \"#utility.yul\":9408:9411   */\n      0x00\n        /* \"#utility.yul\":9429:9496   */\n      tag_330\n        /* \"#utility.yul\":9493:9495   */\n      0x4a\n        /* \"#utility.yul\":9488:9491   */\n      dup4\n        /* \"#utility.yul\":9429:9496   */\n      tag_295\n      jump\t// in\n    tag_330:\n        /* \"#utility.yul\":9422:9496   */\n      swap2\n      pop\n        /* \"#utility.yul\":9505:9598   */\n      tag_331\n        /* \"#utility.yul\":9594:9597   */\n      dup3\n        /* \"#utility.yul\":9505:9598   */\n      tag_332\n      jump\t// in\n    tag_331:\n        /* \"#utility.yul\":9623:9625   */\n      0x60\n        /* \"#utility.yul\":9618:9621   */\n      dup3\n        /* \"#utility.yul\":9614:9626   */\n      add\n        /* \"#utility.yul\":9607:9626   */\n      swap1\n      pop\n        /* \"#utility.yul\":9266:9632   */\n      swap2\n      swap1\n      pop\n      jump\t// out\n        /* \"#utility.yul\":9638:10004   */\n    tag_333:\n        /* \"#utility.yul\":9780:9783   */\n      0x00\n        /* \"#utility.yul\":9801:9868   */\n      tag_335\n        /* \"#utility.yul\":9865:9867   */\n      0x15\n        /* \"#utility.yul\":9860:9863   */\n      dup4\n        /* \"#utility.yul\":9801:9868   */\n      tag_295\n      jump\t// in\n    tag_335:\n        /* \"#utility.yul\":9794:9868   */\n      swap2\n      pop\n        /* \"#utility.yul\":9877:9970   */\n      tag_336\n        /* \"#utility.yul\":9966:9969   */\n      dup3\n        /* \"#utility.yul\":9877:9970   */\n      tag_337\n      jump\t// in\n    tag_336:\n        /* \"#utility.yul\":9995:9997   */\n      0x20\n        /* \"#utility.yul\":9990:9993   */\n      dup3\n        /* \"#utility.yul\":9986:9998   */\n      add\n        /* \"#utility.yul\":9979:9998   */\n      swap1\n      pop\n        /* \"#utility.yul\":9638:10004   */\n      swap2\n      swap1\n      pop\n      jump\t// out\n        /* \"#utility.yul\":10010:10376   */\n    tag_338:\n        /* \"#utility.yul\":10152:10155   */\n      0x00\n        /* \"#utility.yul\":10173:10240   */\n      tag_340\n        /* \"#utility.yul\":10237:10239   */\n      0x39\n        /* \"#utility.yul\":10232:10235   */\n      dup4\n        /* \"#utility.yul\":10173:10240   */\n      tag_295\n      jump\t// in\n    tag_340:\n        /* \"#utility.yul\":10166:10240   */\n      swap2\n      pop\n        /* \"#utility.yul\":10249:10342   */\n      tag_341\n        /* \"#utility.yul\":10338:10341   */\n      dup3\n        /* \"#utility.yul\":10249:10342   */\n      tag_342\n      jump\t// in\n    tag_341:\n        /* \"#utility.yul\":10367:10369   */\n      0x40\n        /* \"#utility.yul\":10362:10365   */\n      dup3\n        /* \"#utility.yul\":10358:10370   */\n      add\n        /* \"#utility.yul\":10351:10370   */\n      swap1\n      pop\n        /* \"#utility.yul\":10010:10376   */\n      swap2\n      swap1\n      pop\n      jump\t// out\n        /* \"#utility.yul\":10382:10748   */\n    tag_343:\n        /* \"#utility.yul\":10524:10527   */\n      0x00\n        /* \"#utility.yul\":10545:10612   */\n      tag_345\n        /* \"#utility.yul\":10609:10611   */\n      0x20\n        /* \"#utility.yul\":10604:10607   */\n      dup4\n        /* \"#utility.yul\":10545:10612   */\n      tag_295\n      jump\t// in\n    tag_345:\n        /* \"#utility.yul\":10538:10612   */\n      swap2\n      pop\n        /* \"#utility.yul\":10621:10714   */\n      tag_346\n        /* \"#utility.yul\":10710:10713   */\n      dup3\n        /* \"#utility.yul\":10621:10714   */\n      tag_347\n      jump\t// in\n    tag_346:\n        /* \"#utility.yul\":10739:10741   */\n      0x20\n        /* \"#utility.yul\":10734:10737   */\n      dup3\n        /* \"#utility.yul\":10730:10742   */\n      add\n        /* \"#utility.yul\":10723:10742   */\n      swap1\n      pop\n        /* \"#utility.yul\":10382:10748   */\n      swap2\n      swap1\n      pop\n      jump\t// out\n        /* \"#utility.yul\":10754:10872   */\n    tag_348:\n        /* \"#utility.yul\":10841:10865   */\n      tag_350\n        /* \"#utility.yul\":10859:10864   */\n      dup2\n        /* \"#utility.yul\":10841:10865   */\n      tag_351\n      jump\t// in\n    tag_350:\n        /* \"#utility.yul\":10836:10839   */\n      dup3\n        /* \"#utility.yul\":10829:10866   */\n      mstore\n        /* \"#utility.yul\":10754:10872   */\n      pop\n      pop\n      jump\t// out\n        /* \"#utility.yul\":10878:10990   */\n    tag_352:\n        /* \"#utility.yul\":10961:10983   */\n      tag_354\n        /* \"#utility.yul\":10977:10982   */\n      dup2\n        /* \"#utility.yul\":10961:10983   */\n      tag_355\n      jump\t// in\n    tag_354:\n        /* \"#utility.yul\":10956:10959   */\n      dup3\n        /* \"#utility.yul\":10949:10984   */\n      mstore\n        /* \"#utility.yul\":10878:10990   */\n      pop\n      pop\n      jump\t// out\n        /* \"#utility.yul\":10996:11206   */\n    tag_32:\n        /* \"#utility.yul\":11083:11087   */\n      0x00\n        /* \"#utility.yul\":11121:11123   */\n      0x20\n        /* \"#utility.yul\":11110:11119   */\n      dup3\n        /* \"#utility.yul\":11106:11124   */\n      add\n        /* \"#utility.yul\":11098:11124   */\n      swap1\n      pop\n        /* \"#utility.yul\":11134:11199   */\n      tag_357\n        /* \"#utility.yul\":11196:11197   */\n      0x00\n        /* \"#utility.yul\":11185:11194   */\n      dup4\n        /* \"#utility.yul\":11181:11198   */\n      add\n        /* \"#utility.yul\":11172:11178   */\n      dup5\n        /* \"#utility.yul\":11134:11199   */\n      tag_284\n      jump\t// in\n    tag_357:\n        /* \"#utility.yul\":10996:11206   */\n      swap3\n      swap2\n      pop\n      pop\n      jump\t// out\n        /* \"#utility.yul\":11212:11466   */\n    tag_52:\n        /* \"#utility.yul\":11321:11325   */\n      0x00\n        /* \"#utility.yul\":11359:11361   */\n      0x20\n        /* \"#utility.yul\":11348:11357   */\n      dup3\n        /* \"#utility.yul\":11344:11362   */\n      add\n        /* \"#utility.yul\":11336:11362   */\n      swap1\n      pop\n        /* \"#utility.yul\":11372:11459   */\n      tag_359\n        /* \"#utility.yul\":11456:11457   */\n      0x00\n        /* \"#utility.yul\":11445:11454   */\n      dup4\n        /* \"#utility.yul\":11441:11458   */\n      add\n        /* \"#utility.yul\":11432:11438   */\n      dup5\n        /* \"#utility.yul\":11372:11459   */\n      tag_288\n      jump\t// in\n    tag_359:\n        /* \"#utility.yul\":11212:11466   */\n      swap3\n      swap2\n      pop\n      pop\n      jump\t// out\n        /* \"#utility.yul\":11472:11891   */\n    tag_150:\n        /* \"#utility.yul\":11638:11642   */\n      0x00\n        /* \"#utility.yul\":11676:11678   */\n      0x20\n        /* \"#utility.yul\":11665:11674   */\n      dup3\n        /* \"#utility.yul\":11661:11679   */\n      add\n        /* \"#utility.yul\":11653:11679   */\n      swap1\n      pop\n        /* \"#utility.yul\":11725:11734   */\n      dup2\n        /* \"#utility.yul\":11719:11723   */\n      dup2\n        /* \"#utility.yul\":11715:11735   */\n      sub\n        /* \"#utility.yul\":11711:11712   */\n      0x00\n        /* \"#utility.yul\":11700:11709   */\n      dup4\n        /* \"#utility.yul\":11696:11713   */\n      add\n        /* \"#utility.yul\":11689:11736   */\n      mstore\n        /* \"#utility.yul\":11753:11884   */\n      tag_361\n        /* \"#utility.yul\":11879:11883   */\n      dup2\n        /* \"#utility.yul\":11753:11884   */\n      tag_292\n      jump\t// in\n    tag_361:\n        /* \"#utility.yul\":11745:11884   */\n      swap1\n      pop\n        /* \"#utility.yul\":11472:11891   */\n      swap2\n      swap1\n      pop\n      jump\t// out\n        /* \"#utility.yul\":11897:12316   */\n    tag_146:\n        /* \"#utility.yul\":12063:12067   */\n      0x00\n        /* \"#utility.yul\":12101:12103   */\n      0x20\n        /* \"#utility.yul\":12090:12099   */\n      dup3\n        /* \"#utility.yul\":12086:12104   */\n      add\n        /* \"#utility.yul\":12078:12104   */\n      swap1\n      pop\n        /* \"#utility.yul\":12150:12159   */\n      dup2\n        /* \"#utility.yul\":12144:12148   */\n      dup2\n        /* \"#utility.yul\":12140:12160   */\n      sub\n        /* \"#utility.yul\":12136:12137   */\n      0x00\n        /* \"#utility.yul\":12125:12134   */\n      dup4\n        /* \"#utility.yul\":12121:12138   */\n      add\n        /* \"#utility.yul\":12114:12161   */\n      mstore\n        /* \"#utility.yul\":12178:12309   */\n      tag_363\n        /* \"#utility.yul\":12304:12308   */\n      dup2\n        /* \"#utility.yul\":12178:12309   */\n      tag_298\n      jump\t// in\n    tag_363:\n        /* \"#utility.yul\":12170:12309   */\n      swap1\n      pop\n        /* \"#utility.yul\":11897:12316   */\n      swap2\n      swap1\n      pop\n      jump\t// out\n        /* \"#utility.yul\":12322:12741   */\n    tag_74:\n        /* \"#utility.yul\":12488:12492   */\n      0x00\n        /* \"#utility.yul\":12526:12528   */\n      0x20\n        /* \"#utility.yul\":12515:12524   */\n      dup3\n        /* \"#utility.yul\":12511:12529   */\n      add\n        /* \"#utility.yul\":12503:12529   */\n      swap1\n      pop\n        /* \"#utility.yul\":12575:12584   */\n      dup2\n        /* \"#utility.yul\":12569:12573   */\n      dup2\n        /* \"#utility.yul\":12565:12585   */\n      sub\n        /* \"#utility.yul\":12561:12562   */\n      0x00\n        /* \"#utility.yul\":12550:12559   */\n      dup4\n        /* \"#utility.yul\":12546:12563   */\n      add\n        /* \"#utility.yul\":12539:12586   */\n      mstore\n        /* \"#utility.yul\":12603:12734   */\n      tag_365\n        /* \"#utility.yul\":12729:12733   */\n      dup2\n        /* \"#utility.yul\":12603:12734   */\n      tag_303\n      jump\t// in\n    tag_365:\n        /* \"#utility.yul\":12595:12734   */\n      swap1\n      pop\n        /* \"#utility.yul\":12322:12741   */\n      swap2\n      swap1\n      pop\n      jump\t// out\n        /* \"#utility.yul\":12747:13166   */\n    tag_65:\n        /* \"#utility.yul\":12913:12917   */\n      0x00\n        /* \"#utility.yul\":12951:12953   */\n      0x20\n        /* \"#utility.yul\":12940:12949   */\n      dup3\n        /* \"#utility.yul\":12936:12954   */\n      add\n        /* \"#utility.yul\":12928:12954   */\n      swap1\n      pop\n        /* \"#utility.yul\":13000:13009   */\n      dup2\n        /* \"#utility.yul\":12994:12998   */\n      dup2\n        /* \"#utility.yul\":12990:13010   */\n      sub\n        /* \"#utility.yul\":12986:12987   */\n      0x00\n        /* \"#utility.yul\":12975:12984   */\n      dup4\n        /* \"#utility.yul\":12971:12988   */\n      add\n        /* \"#utility.yul\":12964:13011   */\n      mstore\n        /* \"#utility.yul\":13028:13159   */\n      tag_367\n        /* \"#utility.yul\":13154:13158   */\n      dup2\n        /* \"#utility.yul\":13028:13159   */\n      tag_308\n      jump\t// in\n    tag_367:\n        /* \"#utility.yul\":13020:13159   */\n      swap1\n      pop\n        /* \"#utility.yul\":12747:13166   */\n      swap2\n      swap1\n      pop\n      jump\t// out\n        /* \"#utility.yul\":13172:13591   */\n    tag_137:\n        /* \"#utility.yul\":13338:13342   */\n      0x00\n        /* \"#utility.yul\":13376:13378   */\n      0x20\n        /* \"#utility.yul\":13365:13374   */\n      dup3\n        /* \"#utility.yul\":13361:13379   */\n      add\n        /* \"#utility.yul\":13353:13379   */\n      swap1\n      pop\n        /* \"#utility.yul\":13425:13434   */\n      dup2\n        /* \"#utility.yul\":13419:13423   */\n      dup2\n        /* \"#utility.yul\":13415:13435   */\n      sub\n        /* \"#utility.yul\":13411:13412   */\n      0x00\n        /* \"#utility.yul\":13400:13409   */\n      dup4\n        /* \"#utility.yul\":13396:13413   */\n      add\n        /* \"#utility.yul\":13389:13436   */\n      mstore\n        /* \"#utility.yul\":13453:13584   */\n      tag_369\n        /* \"#utility.yul\":13579:13583   */\n      dup2\n        /* \"#utility.yul\":13453:13584   */\n      tag_313\n      jump\t// in\n    tag_369:\n        /* \"#utility.yul\":13445:13584   */\n      swap1\n      pop\n        /* \"#utility.yul\":13172:13591   */\n      swap2\n      swap1\n      pop\n      jump\t// out\n        /* \"#utility.yul\":13597:14016   */\n    tag_177:\n        /* \"#utility.yul\":13763:13767   */\n      0x00\n        /* \"#utility.yul\":13801:13803   */\n      0x20\n        /* \"#utility.yul\":13790:13799   */\n      dup3\n        /* \"#utility.yul\":13786:13804   */\n      add\n        /* \"#utility.yul\":13778:13804   */\n      swap1\n      pop\n        /* \"#utility.yul\":13850:13859   */\n      dup2\n        /* \"#utility.yul\":13844:13848   */\n      dup2\n        /* \"#utility.yul\":13840:13860   */\n      sub\n        /* \"#utility.yul\":13836:13837   */\n      0x00\n        /* \"#utility.yul\":13825:13834   */\n      dup4\n        /* \"#utility.yul\":13821:13838   */\n      add\n        /* \"#utility.yul\":13814:13861   */\n      mstore\n        /* \"#utility.yul\":13878:14009   */\n      tag_371\n        /* \"#utility.yul\":14004:14008   */\n      dup2\n        /* \"#utility.yul\":13878:14009   */\n      tag_318\n      jump\t// in\n    tag_371:\n        /* \"#utility.yul\":13870:14009   */\n      swap1\n      pop\n        /* \"#utility.yul\":13597:14016   */\n      swap2\n      swap1\n      pop\n      jump\t// out\n        /* \"#utility.yul\":14022:14441   */\n    tag_88:\n        /* \"#utility.yul\":14188:14192   */\n      0x00\n        /* \"#utility.yul\":14226:14228   */\n      0x20\n        /* \"#utility.yul\":14215:14224   */\n      dup3\n        /* \"#utility.yul\":14211:14229   */\n      add\n        /* \"#utility.yul\":14203:14229   */\n      swap1\n      pop\n        /* \"#utility.yul\":14275:14284   */\n      dup2\n        /* \"#utility.yul\":14269:14273   */\n      dup2\n        /* \"#utility.yul\":14265:14285   */\n      sub\n        /* \"#utility.yul\":14261:14262   */\n      0x00\n        /* \"#utility.yul\":14250:14259   */\n      dup4\n        /* \"#utility.yul\":14246:14263   */\n      add\n        /* \"#utility.yul\":14239:14286   */\n      mstore\n        /* \"#utility.yul\":14303:14434   */\n      tag_373\n        /* \"#utility.yul\":14429:14433   */\n      dup2\n        /* \"#utility.yul\":14303:14434   */\n      tag_323\n      jump\t// in\n    tag_373:\n        /* \"#utility.yul\":14295:14434   */\n      swap1\n      pop\n        /* \"#utility.yul\":14022:14441   */\n      swap2\n      swap1\n      pop\n      jump\t// out\n        /* \"#utility.yul\":14447:14866   */\n    tag_81:\n        /* \"#utility.yul\":14613:14617   */\n      0x00\n        /* \"#utility.yul\":14651:14653   */\n      0x20\n        /* \"#utility.yul\":14640:14649   */\n      dup3\n        /* \"#utility.yul\":14636:14654   */\n      add\n        /* \"#utility.yul\":14628:14654   */\n      swap1\n      pop\n        /* \"#utility.yul\":14700:14709   */\n      dup2\n        /* \"#utility.yul\":14694:14698   */\n      dup2\n        /* \"#utility.yul\":14690:14710   */\n      sub\n        /* \"#utility.yul\":14686:14687   */\n      0x00\n        /* \"#utility.yul\":14675:14684   */\n      dup4\n        /* \"#utility.yul\":14671:14688   */\n      add\n        /* \"#utility.yul\":14664:14711   */\n      mstore\n        /* \"#utility.yul\":14728:14859   */\n      tag_375\n        /* \"#utility.yul\":14854:14858   */\n      dup2\n        /* \"#utility.yul\":14728:14859   */\n      tag_328\n      jump\t// in\n    tag_375:\n        /* \"#utility.yul\":14720:14859   */\n      swap1\n      pop\n        /* \"#utility.yul\":14447:14866   */\n      swap2\n      swap1\n      pop\n      jump\t// out\n        /* \"#utility.yul\":14872:15291   */\n    tag_101:\n        /* \"#utility.yul\":15038:15042   */\n      0x00\n        /* \"#utility.yul\":15076:15078   */\n      0x20\n        /* \"#utility.yul\":15065:15074   */\n      dup3\n        /* \"#utility.yul\":15061:15079   */\n      add\n        /* \"#utility.yul\":15053:15079   */\n      swap1\n      pop\n        /* \"#utility.yul\":15125:15134   */\n      dup2\n        /* \"#utility.yul\":15119:15123   */\n      dup2\n        /* \"#utility.yul\":15115:15135   */\n      sub\n        /* \"#utility.yul\":15111:15112   */\n      0x00\n        /* \"#utility.yul\":15100:15109   */\n      dup4\n        /* \"#utility.yul\":15096:15113   */\n      add\n        /* \"#utility.yul\":15089:15136   */\n      mstore\n        /* \"#utility.yul\":15153:15284   */\n      tag_377\n        /* \"#utility.yul\":15279:15283   */\n      dup2\n        /* \"#utility.yul\":15153:15284   */\n      tag_333\n      jump\t// in\n    tag_377:\n        /* \"#utility.yul\":15145:15284   */\n      swap1\n      pop\n        /* \"#utility.yul\":14872:15291   */\n      swap2\n      swap1\n      pop\n      jump\t// out\n        /* \"#utility.yul\":15297:15716   */\n    tag_140:\n        /* \"#utility.yul\":15463:15467   */\n      0x00\n        /* \"#utility.yul\":15501:15503   */\n      0x20\n        /* \"#utility.yul\":15490:15499   */\n      dup3\n        /* \"#utility.yul\":15486:15504   */\n      add\n        /* \"#utility.yul\":15478:15504   */\n      swap1\n      pop\n        /* \"#utility.yul\":15550:15559   */\n      dup2\n        /* \"#utility.yul\":15544:15548   */\n      dup2\n        /* \"#utility.yul\":15540:15560   */\n      sub\n        /* \"#utility.yul\":15536:15537   */\n      0x00\n        /* \"#utility.yul\":15525:15534   */\n      dup4\n        /* \"#utility.yul\":15521:15538   */\n      add\n        /* \"#utility.yul\":15514:15561   */\n      mstore\n        /* \"#utility.yul\":15578:15709   */\n      tag_379\n        /* \"#utility.yul\":15704:15708   */\n      dup2\n        /* \"#utility.yul\":15578:15709   */\n      tag_338\n      jump\t// in\n    tag_379:\n        /* \"#utility.yul\":15570:15709   */\n      swap1\n      pop\n        /* \"#utility.yul\":15297:15716   */\n      swap2\n      swap1\n      pop\n      jump\t// out\n        /* \"#utility.yul\":15722:16141   */\n    tag_143:\n        /* \"#utility.yul\":15888:15892   */\n      0x00\n        /* \"#utility.yul\":15926:15928   */\n      0x20\n        /* \"#utility.yul\":15915:15924   */\n      dup3\n        /* \"#utility.yul\":15911:15929   */\n      add\n        /* \"#utility.yul\":15903:15929   */\n      swap1\n      pop\n        /* \"#utility.yul\":15975:15984   */\n      dup2\n        /* \"#utility.yul\":15969:15973   */\n      dup2\n        /* \"#utility.yul\":15965:15985   */\n      sub\n        /* \"#utility.yul\":15961:15962   */\n      0x00\n        /* \"#utility.yul\":15950:15959   */\n      dup4\n        /* \"#utility.yul\":15946:15963   */\n      add\n        /* \"#utility.yul\":15939:15986   */\n      mstore\n        /* \"#utility.yul\":16003:16134   */\n      tag_381\n        /* \"#utility.yul\":16129:16133   */\n      dup2\n        /* \"#utility.yul\":16003:16134   */\n      tag_343\n      jump\t// in\n    tag_381:\n        /* \"#utility.yul\":15995:16134   */\n      swap1\n      pop\n        /* \"#utility.yul\":15722:16141   */\n      swap2\n      swap1\n      pop\n      jump\t// out\n        /* \"#utility.yul\":16147:16369   */\n    tag_23:\n        /* \"#utility.yul\":16240:16244   */\n      0x00\n        /* \"#utility.yul\":16278:16280   */\n      0x20\n        /* \"#utility.yul\":16267:16276   */\n      dup3\n        /* \"#utility.yul\":16263:16281   */\n      add\n        /* \"#utility.yul\":16255:16281   */\n      swap1\n      pop\n        /* \"#utility.yul\":16291:16362   */\n      tag_383\n        /* \"#utility.yul\":16359:16360   */\n      0x00\n        /* \"#utility.yul\":16348:16357   */\n      dup4\n        /* \"#utility.yul\":16344:16361   */\n      add\n        /* \"#utility.yul\":16335:16341   */\n      dup5\n        /* \"#utility.yul\":16291:16362   */\n      tag_348\n      jump\t// in\n    tag_383:\n        /* \"#utility.yul\":16147:16369   */\n      swap3\n      swap2\n      pop\n      pop\n      jump\t// out\n        /* \"#utility.yul\":16375:17182   */\n    tag_183:\n        /* \"#utility.yul\":16624:16628   */\n      0x00\n        /* \"#utility.yul\":16662:16665   */\n      0xc0\n        /* \"#utility.yul\":16651:16660   */\n      dup3\n        /* \"#utility.yul\":16647:16666   */\n      add\n        /* \"#utility.yul\":16639:16666   */\n      swap1\n      pop\n        /* \"#utility.yul\":16676:16747   */\n      tag_385\n        /* \"#utility.yul\":16744:16745   */\n      0x00\n        /* \"#utility.yul\":16733:16742   */\n      dup4\n        /* \"#utility.yul\":16729:16746   */\n      add\n        /* \"#utility.yul\":16720:16726   */\n      dup10\n        /* \"#utility.yul\":16676:16747   */\n      tag_348\n      jump\t// in\n    tag_385:\n        /* \"#utility.yul\":16757:16829   */\n      tag_386\n        /* \"#utility.yul\":16825:16827   */\n      0x20\n        /* \"#utility.yul\":16814:16823   */\n      dup4\n        /* \"#utility.yul\":16810:16828   */\n      add\n        /* \"#utility.yul\":16801:16807   */\n      dup9\n        /* \"#utility.yul\":16757:16829   */\n      tag_348\n      jump\t// in\n    tag_386:\n        /* \"#utility.yul\":16839:16911   */\n      tag_387\n        /* \"#utility.yul\":16907:16909   */\n      0x40\n        /* \"#utility.yul\":16896:16905   */\n      dup4\n        /* \"#utility.yul\":16892:16910   */\n      add\n        /* \"#utility.yul\":16883:16889   */\n      dup8\n        /* \"#utility.yul\":16839:16911   */\n      tag_348\n      jump\t// in\n    tag_387:\n        /* \"#utility.yul\":16921:17001   */\n      tag_388\n        /* \"#utility.yul\":16997:16999   */\n      0x60\n        /* \"#utility.yul\":16986:16995   */\n      dup4\n        /* \"#utility.yul\":16982:17000   */\n      add\n        /* \"#utility.yul\":16973:16979   */\n      dup7\n        /* \"#utility.yul\":16921:17001   */\n      tag_276\n      jump\t// in\n    tag_388:\n        /* \"#utility.yul\":17011:17092   */\n      tag_389\n        /* \"#utility.yul\":17087:17090   */\n      0x80\n        /* \"#utility.yul\":17076:17085   */\n      dup4\n        /* \"#utility.yul\":17072:17091   */\n      add\n        /* \"#utility.yul\":17063:17069   */\n      dup6\n        /* \"#utility.yul\":17011:17092   */\n      tag_276\n      jump\t// in\n    tag_389:\n        /* \"#utility.yul\":17102:17175   */\n      tag_390\n        /* \"#utility.yul\":17170:17173   */\n      0xa0\n        /* \"#utility.yul\":17159:17168   */\n      dup4\n        /* \"#utility.yul\":17155:17174   */\n      add\n        /* \"#utility.yul\":17146:17152   */\n      dup5\n        /* \"#utility.yul\":17102:17175   */\n      tag_348\n      jump\t// in\n    tag_390:\n        /* \"#utility.yul\":16375:17182   */\n      swap8\n      swap7\n      pop\n      pop\n      pop\n      pop\n      pop\n      pop\n      pop\n      jump\t// out\n        /* \"#utility.yul\":17188:17844   */\n    tag_158:\n        /* \"#utility.yul\":17389:17393   */\n      0x00\n        /* \"#utility.yul\":17427:17430   */\n      0xa0\n        /* \"#utility.yul\":17416:17425   */\n      dup3\n        /* \"#utility.yul\":17412:17431   */\n      add\n        /* \"#utility.yul\":17404:17431   */\n      swap1\n      pop\n        /* \"#utility.yul\":17441:17512   */\n      tag_392\n        /* \"#utility.yul\":17509:17510   */\n      0x00\n        /* \"#utility.yul\":17498:17507   */\n      dup4\n        /* \"#utility.yul\":17494:17511   */\n      add\n        /* \"#utility.yul\":17485:17491   */\n      dup9\n        /* \"#utility.yul\":17441:17512   */\n      tag_348\n      jump\t// in\n    tag_392:\n        /* \"#utility.yul\":17522:17594   */\n      tag_393\n        /* \"#utility.yul\":17590:17592   */\n      0x20\n        /* \"#utility.yul\":17579:17588   */\n      dup4\n        /* \"#utility.yul\":17575:17593   */\n      add\n        /* \"#utility.yul\":17566:17572   */\n      dup8\n        /* \"#utility.yul\":17522:17594   */\n      tag_348\n      jump\t// in\n    tag_393:\n        /* \"#utility.yul\":17604:17676   */\n      tag_394\n        /* \"#utility.yul\":17672:17674   */\n      0x40\n        /* \"#utility.yul\":17661:17670   */\n      dup4\n        /* \"#utility.yul\":17657:17675   */\n      add\n        /* \"#utility.yul\":17648:17654   */\n      dup7\n        /* \"#utility.yul\":17604:17676   */\n      tag_348\n      jump\t// in\n    tag_394:\n        /* \"#utility.yul\":17686:17758   */\n      tag_395\n        /* \"#utility.yul\":17754:17756   */\n      0x60\n        /* \"#utility.yul\":17743:17752   */\n      dup4\n        /* \"#utility.yul\":17739:17757   */\n      add\n        /* \"#utility.yul\":17730:17736   */\n      dup6\n        /* \"#utility.yul\":17686:17758   */\n      tag_280\n      jump\t// in\n    tag_395:\n        /* \"#utility.yul\":17768:17837   */\n      tag_396\n        /* \"#utility.yul\":17832:17835   */\n      0x80\n        /* \"#utility.yul\":17821:17830   */\n      dup4\n        /* \"#utility.yul\":17817:17836   */\n      add\n        /* \"#utility.yul\":17808:17814   */\n      dup5\n        /* \"#utility.yul\":17768:17837   */\n      tag_352\n      jump\t// in\n    tag_396:\n        /* \"#utility.yul\":17188:17844   */\n      swap7\n      swap6\n      pop\n      pop\n      pop\n      pop\n      pop\n      pop\n      jump\t// out\n        /* \"#utility.yul\":17850:18395   */\n    tag_164:\n        /* \"#utility.yul\":18023:18027   */\n      0x00\n        /* \"#utility.yul\":18061:18064   */\n      0x80\n        /* \"#utility.yul\":18050:18059   */\n      dup3\n        /* \"#utility.yul\":18046:18065   */\n      add\n        /* \"#utility.yul\":18038:18065   */\n      swap1\n      pop\n        /* \"#utility.yul\":18075:18146   */\n      tag_398\n        /* \"#utility.yul\":18143:18144   */\n      0x00\n        /* \"#utility.yul\":18132:18141   */\n      dup4\n        /* \"#utility.yul\":18128:18145   */\n      add\n        /* \"#utility.yul\":18119:18125   */\n      dup8\n        /* \"#utility.yul\":18075:18146   */\n      tag_348\n      jump\t// in\n    tag_398:\n        /* \"#utility.yul\":18156:18228   */\n      tag_399\n        /* \"#utility.yul\":18224:18226   */\n      0x20\n        /* \"#utility.yul\":18213:18222   */\n      dup4\n        /* \"#utility.yul\":18209:18227   */\n      add\n        /* \"#utility.yul\":18200:18206   */\n      dup7\n        /* \"#utility.yul\":18156:18228   */\n      tag_348\n      jump\t// in\n    tag_399:\n        /* \"#utility.yul\":18238:18310   */\n      tag_400\n        /* \"#utility.yul\":18306:18308   */\n      0x40\n        /* \"#utility.yul\":18295:18304   */\n      dup4\n        /* \"#utility.yul\":18291:18309   */\n      add\n        /* \"#utility.yul\":18282:18288   */\n      dup6\n        /* \"#utility.yul\":18238:18310   */\n      tag_348\n      jump\t// in\n    tag_400:\n        /* \"#utility.yul\":18320:18388   */\n      tag_401\n        /* \"#utility.yul\":18384:18386   */\n      0x60\n        /* \"#utility.yul\":18373:18382   */\n      dup4\n        /* \"#utility.yul\":18369:18387   */\n      add\n        /* \"#utility.yul\":18360:18366   */\n      dup5\n        /* \"#utility.yul\":18320:18388   */\n      tag_352\n      jump\t// in\n    tag_401:\n        /* \"#utility.yul\":17850:18395   */\n      swap6\n      swap5\n      pop\n      pop\n      pop\n      pop\n      pop\n      jump\t// out\n        /* \"#utility.yul\":18401:18530   */\n    tag_204:\n        /* \"#utility.yul\":18435:18441   */\n      0x00\n        /* \"#utility.yul\":18462:18482   */\n      tag_403\n      tag_404\n      jump\t// in\n    tag_403:\n        /* \"#utility.yul\":18452:18482   */\n      swap1\n      pop\n        /* \"#utility.yul\":18491:18524   */\n      tag_405\n        /* \"#utility.yul\":18519:18523   */\n      dup3\n        /* \"#utility.yul\":18511:18517   */\n      dup3\n        /* \"#utility.yul\":18491:18524   */\n      tag_406\n      jump\t// in\n    tag_405:\n        /* \"#utility.yul\":18401:18530   */\n      swap2\n      swap1\n      pop\n      jump\t// out\n        /* \"#utility.yul\":18536:18611   */\n    tag_404:\n        /* \"#utility.yul\":18569:18575   */\n      0x00\n        /* \"#utility.yul\":18602:18604   */\n      0x40\n        /* \"#utility.yul\":18596:18605   */\n      mload\n        /* \"#utility.yul\":18586:18605   */\n      swap1\n      pop\n        /* \"#utility.yul\":18536:18611   */\n      swap1\n      jump\t// out\n        /* \"#utility.yul\":18617:18925   */\n    tag_203:\n        /* \"#utility.yul\":18679:18683   */\n      0x00\n        /* \"#utility.yul\":18769:18787   */\n      0xffffffffffffffff\n        /* \"#utility.yul\":18761:18767   */\n      dup3\n        /* \"#utility.yul\":18758:18788   */\n      gt\n        /* \"#utility.yul\":18755:18811   */\n      iszero\n      tag_409\n      jumpi\n        /* \"#utility.yul\":18791:18809   */\n      tag_410\n      tag_411\n      jump\t// in\n    tag_410:\n        /* \"#utility.yul\":18755:18811   */\n    tag_409:\n        /* \"#utility.yul\":18829:18858   */\n      tag_412\n        /* \"#utility.yul\":18851:18857   */\n      dup3\n        /* \"#utility.yul\":18829:18858   */\n      tag_413\n      jump\t// in\n    tag_412:\n        /* \"#utility.yul\":18821:18858   */\n      swap1\n      pop\n        /* \"#utility.yul\":18913:18917   */\n      0x20\n        /* \"#utility.yul\":18907:18911   */\n      dup2\n        /* \"#utility.yul\":18903:18918   */\n      add\n        /* \"#utility.yul\":18895:18918   */\n      swap1\n      pop\n        /* \"#utility.yul\":18617:18925   */\n      swap2\n      swap1\n      pop\n      jump\t// out\n        /* \"#utility.yul\":18931:19100   */\n    tag_295:\n        /* \"#utility.yul\":19015:19026   */\n      0x00\n        /* \"#utility.yul\":19049:19055   */\n      dup3\n        /* \"#utility.yul\":19044:19047   */\n      dup3\n        /* \"#utility.yul\":19037:19056   */\n      mstore\n        /* \"#utility.yul\":19089:19093   */\n      0x20\n        /* \"#utility.yul\":19084:19087   */\n      dup3\n        /* \"#utility.yul\":19080:19094   */\n      add\n        /* \"#utility.yul\":19065:19094   */\n      swap1\n      pop\n        /* \"#utility.yul\":18931:19100   */\n      swap3\n      swap2\n      pop\n      pop\n      jump\t// out\n        /* \"#utility.yul\":19106:19202   */\n    tag_283:\n        /* \"#utility.yul\":19143:19150   */\n      0x00\n        /* \"#utility.yul\":19172:19196   */\n      tag_416\n        /* \"#utility.yul\":19190:19195   */\n      dup3\n        /* \"#utility.yul\":19172:19196   */\n      tag_417\n      jump\t// in\n    tag_416:\n        /* \"#utility.yul\":19161:19196   */\n      swap1\n      pop\n        /* \"#utility.yul\":19106:19202   */\n      swap2\n      swap1\n      pop\n      jump\t// out\n        /* \"#utility.yul\":19208:19312   */\n    tag_418:\n        /* \"#utility.yul\":19253:19260   */\n      0x00\n        /* \"#utility.yul\":19282:19306   */\n      tag_420\n        /* \"#utility.yul\":19300:19305   */\n      dup3\n        /* \"#utility.yul\":19282:19306   */\n      tag_417\n      jump\t// in\n    tag_420:\n        /* \"#utility.yul\":19271:19306   */\n      swap1\n      pop\n        /* \"#utility.yul\":19208:19312   */\n      swap2\n      swap1\n      pop\n      jump\t// out\n        /* \"#utility.yul\":19318:19408   */\n    tag_287:\n        /* \"#utility.yul\":19352:19359   */\n      0x00\n        /* \"#utility.yul\":19395:19400   */\n      dup2\n        /* \"#utility.yul\":19388:19401   */\n      iszero\n        /* \"#utility.yul\":19381:19402   */\n      iszero\n        /* \"#utility.yul\":19370:19402   */\n      swap1\n      pop\n        /* \"#utility.yul\":19318:19408   */\n      swap2\n      swap1\n      pop\n      jump\t// out\n        /* \"#utility.yul\":19414:19561   */\n    tag_422:\n        /* \"#utility.yul\":19469:19476   */\n      0x00\n        /* \"#utility.yul\":19498:19503   */\n      dup2\n        /* \"#utility.yul\":19487:19503   */\n      swap1\n      pop\n        /* \"#utility.yul\":19504:19555   */\n      tag_424\n        /* \"#utility.yul\":19549:19554   */\n      dup3\n        /* \"#utility.yul\":19504:19555   */\n      tag_425\n      jump\t// in\n    tag_424:\n        /* \"#utility.yul\":19414:19561   */\n      swap2\n      swap1\n      pop\n      jump\t// out\n        /* \"#utility.yul\":19567:19693   */\n    tag_417:\n        /* \"#utility.yul\":19604:19611   */\n      0x00\n        /* \"#utility.yul\":19644:19686   */\n      0xffffffffffffffffffffffffffffffffffffffff\n        /* \"#utility.yul\":19637:19642   */\n      dup3\n        /* \"#utility.yul\":19633:19687   */\n      and\n        /* \"#utility.yul\":19622:19687   */\n      swap1\n      pop\n        /* \"#utility.yul\":19567:19693   */\n      swap2\n      swap1\n      pop\n      jump\t// out\n        /* \"#utility.yul\":19699:19776   */\n    tag_351:\n        /* \"#utility.yul\":19736:19743   */\n      0x00\n        /* \"#utility.yul\":19765:19770   */\n      dup2\n        /* \"#utility.yul\":19754:19770   */\n      swap1\n      pop\n        /* \"#utility.yul\":19699:19776   */\n      swap2\n      swap1\n      pop\n      jump\t// out\n        /* \"#utility.yul\":19782:19868   */\n    tag_355:\n        /* \"#utility.yul\":19817:19824   */\n      0x00\n        /* \"#utility.yul\":19857:19861   */\n      0xff\n        /* \"#utility.yul\":19850:19855   */\n      dup3\n        /* \"#utility.yul\":19846:19862   */\n      and\n        /* \"#utility.yul\":19835:19862   */\n      swap1\n      pop\n        /* \"#utility.yul\":19782:19868   */\n      swap2\n      swap1\n      pop\n      jump\t// out\n        /* \"#utility.yul\":19874:20008   */\n    tag_279:\n        /* \"#utility.yul\":19932:19941   */\n      0x00\n        /* \"#utility.yul\":19965:20002   */\n      tag_430\n        /* \"#utility.yul\":19996:20001   */\n      dup3\n        /* \"#utility.yul\":19965:20002   */\n      tag_431\n      jump\t// in\n    tag_430:\n        /* \"#utility.yul\":19952:20002   */\n      swap1\n      pop\n        /* \"#utility.yul\":19874:20008   */\n      swap2\n      swap1\n      pop\n      jump\t// out\n        /* \"#utility.yul\":20014:20161   */\n    tag_291:\n        /* \"#utility.yul\":20080:20089   */\n      0x00\n        /* \"#utility.yul\":20113:20155   */\n      tag_433\n        /* \"#utility.yul\":20149:20154   */\n      dup3\n        /* \"#utility.yul\":20113:20155   */\n      tag_422\n      jump\t// in\n    tag_433:\n        /* \"#utility.yul\":20100:20155   */\n      swap1\n      pop\n        /* \"#utility.yul\":20014:20161   */\n      swap2\n      swap1\n      pop\n      jump\t// out\n        /* \"#utility.yul\":20167:20293   */\n    tag_431:\n        /* \"#utility.yul\":20217:20226   */\n      0x00\n        /* \"#utility.yul\":20250:20287   */\n      tag_435\n        /* \"#utility.yul\":20281:20286   */\n      dup3\n        /* \"#utility.yul\":20250:20287   */\n      tag_436\n      jump\t// in\n    tag_435:\n        /* \"#utility.yul\":20237:20287   */\n      swap1\n      pop\n        /* \"#utility.yul\":20167:20293   */\n      swap2\n      swap1\n      pop\n      jump\t// out\n        /* \"#utility.yul\":20299:20412   */\n    tag_436:\n        /* \"#utility.yul\":20349:20358   */\n      0x00\n        /* \"#utility.yul\":20382:20406   */\n      tag_438\n        /* \"#utility.yul\":20400:20405   */\n      dup3\n        /* \"#utility.yul\":20382:20406   */\n      tag_417\n      jump\t// in\n    tag_438:\n        /* \"#utility.yul\":20369:20406   */\n      swap1\n      pop\n        /* \"#utility.yul\":20299:20412   */\n      swap2\n      swap1\n      pop\n      jump\t// out\n        /* \"#utility.yul\":20418:20572   */\n    tag_209:\n        /* \"#utility.yul\":20502:20508   */\n      dup3\n        /* \"#utility.yul\":20497:20500   */\n      dup2\n        /* \"#utility.yul\":20492:20495   */\n      dup4\n        /* \"#utility.yul\":20479:20509   */\n      calldatacopy\n        /* \"#utility.yul\":20564:20565   */\n      0x00\n        /* \"#utility.yul\":20555:20561   */\n      dup4\n        /* \"#utility.yul\":20550:20553   */\n      dup4\n        /* \"#utility.yul\":20546:20562   */\n      add\n        /* \"#utility.yul\":20539:20566   */\n      mstore\n        /* \"#utility.yul\":20418:20572   */\n      pop\n      pop\n      pop\n      jump\t// out\n        /* \"#utility.yul\":20578:20898   */\n    tag_188:\n        /* \"#utility.yul\":20622:20628   */\n      0x00\n        /* \"#utility.yul\":20659:20660   */\n      0x02\n        /* \"#utility.yul\":20653:20657   */\n      dup3\n        /* \"#utility.yul\":20649:20661   */\n      div\n        /* \"#utility.yul\":20639:20661   */\n      swap1\n      pop\n        /* \"#utility.yul\":20706:20707   */\n      0x01\n        /* \"#utility.yul\":20700:20704   */\n      dup3\n        /* \"#utility.yul\":20696:20708   */\n      and\n        /* \"#utility.yul\":20727:20745   */\n      dup1\n        /* \"#utility.yul\":20717:20798   */\n      tag_441\n      jumpi\n        /* \"#utility.yul\":20783:20787   */\n      0x7f\n        /* \"#utility.yul\":20775:20781   */\n      dup3\n        /* \"#utility.yul\":20771:20788   */\n      and\n        /* \"#utility.yul\":20761:20788   */\n      swap2\n      pop\n        /* \"#utility.yul\":20717:20798   */\n    tag_441:\n        /* \"#utility.yul\":20845:20847   */\n      0x20\n        /* \"#utility.yul\":20837:20843   */\n      dup3\n        /* \"#utility.yul\":20834:20848   */\n      lt\n        /* \"#utility.yul\":20814:20832   */\n      dup2\n        /* \"#utility.yul\":20811:20849   */\n      eq\n        /* \"#utility.yul\":20808:20892   */\n      iszero\n      tag_442\n      jumpi\n        /* \"#utility.yul\":20864:20882   */\n      tag_443\n      tag_444\n      jump\t// in\n    tag_443:\n        /* \"#utility.yul\":20808:20892   */\n    tag_442:\n        /* \"#utility.yul\":20629:20898   */\n      pop\n        /* \"#utility.yul\":20578:20898   */\n      swap2\n      swap1\n      pop\n      jump\t// out\n        /* \"#utility.yul\":20904:21185   */\n    tag_406:\n        /* \"#utility.yul\":20987:21014   */\n      tag_446\n        /* \"#utility.yul\":21009:21013   */\n      dup3\n        /* \"#utility.yul\":20987:21014   */\n      tag_413\n      jump\t// in\n    tag_446:\n        /* \"#utility.yul\":20979:20985   */\n      dup2\n        /* \"#utility.yul\":20975:21015   */\n      add\n        /* \"#utility.yul\":21117:21123   */\n      dup2\n        /* \"#utility.yul\":21105:21115   */\n      dup2\n        /* \"#utility.yul\":21102:21124   */\n      lt\n        /* \"#utility.yul\":21081:21099   */\n      0xffffffffffffffff\n        /* \"#utility.yul\":21069:21079   */\n      dup3\n        /* \"#utility.yul\":21066:21100   */\n      gt\n        /* \"#utility.yul\":21063:21125   */\n      or\n        /* \"#utility.yul\":21060:21148   */\n      iszero\n      tag_447\n      jumpi\n        /* \"#utility.yul\":21128:21146   */\n      tag_448\n      tag_411\n      jump\t// in\n    tag_448:\n        /* \"#utility.yul\":21060:21148   */\n    tag_447:\n        /* \"#utility.yul\":21168:21178   */\n      dup1\n        /* \"#utility.yul\":21164:21166   */\n      0x40\n        /* \"#utility.yul\":21157:21179   */\n      mstore\n        /* \"#utility.yul\":20947:21185   */\n      pop\n        /* \"#utility.yul\":20904:21185   */\n      pop\n      pop\n      jump\t// out\n        /* \"#utility.yul\":21191:21424   */\n    tag_153:\n        /* \"#utility.yul\":21230:21233   */\n      0x00\n        /* \"#utility.yul\":21253:21277   */\n      tag_450\n        /* \"#utility.yul\":21271:21276   */\n      dup3\n        /* \"#utility.yul\":21253:21277   */\n      tag_351\n      jump\t// in\n    tag_450:\n        /* \"#utility.yul\":21244:21277   */\n      swap2\n      pop\n        /* \"#utility.yul\":21299:21365   */\n      0xffffffffffffffffffffffffffffffffffffffffffffffffffffffffffffffff\n        /* \"#utility.yul\":21292:21297   */\n      dup3\n        /* \"#utility.yul\":21289:21366   */\n      eq\n        /* \"#utility.yul\":21286:21389   */\n      iszero\n      tag_451\n      jumpi\n        /* \"#utility.yul\":21369:21387   */\n      tag_452\n      tag_453\n      jump\t// in\n    tag_452:\n        /* \"#utility.yul\":21286:21389   */\n    tag_451:\n        /* \"#utility.yul\":21416:21417   */\n      0x01\n        /* \"#utility.yul\":21409:21414   */\n      dup3\n        /* \"#utility.yul\":21405:21418   */\n      add\n        /* \"#utility.yul\":21398:21418   */\n      swap1\n      pop\n        /* \"#utility.yul\":21191:21424   */\n      swap2\n      swap1\n      pop\n      jump\t// out\n        /* \"#utility.yul\":21430:21610   */\n    tag_453:\n        /* \"#utility.yul\":21478:21555   */\n      0x4e487b7100000000000000000000000000000000000000000000000000000000\n        /* \"#utility.yul\":21475:21476   */\n      0x00\n        /* \"#utility.yul\":21468:21556   */\n      mstore\n        /* \"#utility.yul\":21575:21579   */\n      0x11\n        /* \"#utility.yul\":21572:21573   */\n      0x04\n        /* \"#utility.yul\":21565:21580   */\n      mstore\n        /* \"#utility.yul\":21599:21603   */\n      0x24\n        /* \"#utility.yul\":21596:21597   */\n      0x00\n        /* \"#utility.yul\":21589:21604   */\n      revert\n        /* \"#utility.yul\":21616:21796   */\n    tag_69:\n        /* \"#utility.yul\":21664:21741   */\n      0x4e487b7100000000000000000000000000000000000000000000000000000000\n        /* \"#utility.yul\":21661:21662   */\n      0x00\n        /* \"#utility.yul\":21654:21742   */\n      mstore\n        /* \"#utility.yul\":21761:21765   */\n      0x21\n        /* \"#utility.yul\":21758:21759   */\n      0x04\n        /* \"#utility.yul\":21751:21766   */\n      mstore\n        /* \"#utility.yul\":21785:21789   */\n      0x24\n        /* \"#utility.yul\":21782:21783   */\n      0x00\n        /* \"#utility.yul\":21775:21790   */\n      revert\n        /* \"#utility.yul\":21802:21982   */\n    tag_444:\n        /* \"#utility.yul\":21850:21927   */\n      0x4e487b7100000000000000000000000000000000000000000000000000000000\n        /* \"#utility.yul\":21847:21848   */\n      0x00\n        /* \"#utility.yul\":21840:21928   */\n      mstore\n        /* \"#utility.yul\":21947:21951   */\n      0x22\n        /* \"#utility.yul\":21944:21945   */\n      0x04\n        /* \"#utility.yul\":21937:21952   */\n      mstore\n        /* \"#utility.yul\":21971:21975   */\n      0x24\n        /* \"#utility.yul\":21968:21969   */\n      0x00\n        /* \"#utility.yul\":21961:21976   */\n      revert\n        /* \"#utility.yul\":21988:22168   */\n    tag_411:\n        /* \"#utility.yul\":22036:22113   */\n      0x4e487b7100000000000000000000000000000000000000000000000000000000\n        /* \"#utility.yul\":22033:22034   */\n      0x00\n        /* \"#utility.yul\":22026:22114   */\n      mstore\n        /* \"#utility.yul\":22133:22137   */\n      0x41\n        /* \"#utility.yul\":22130:22131   */\n      0x04\n        /* \"#utility.yul\":22123:22138   */\n      mstore\n        /* \"#utility.yul\":22157:22161   */\n      0x24\n        /* \"#utility.yul\":22154:22155   */\n      0x00\n        /* \"#utility.yul\":22147:22162   */\n      revert\n        /* \"#utility.yul\":22174:22291   */\n    tag_222:\n        /* \"#utility.yul\":22283:22284   */\n      0x00\n        /* \"#utility.yul\":22280:22281   */\n      dup1\n        /* \"#utility.yul\":22273:22285   */\n      revert\n        /* \"#utility.yul\":22297:22414   */\n    tag_207:\n        /* \"#utility.yul\":22406:22407   */\n      0x00\n        /* \"#utility.yul\":22403:22404   */\n      dup1\n        /* \"#utility.yul\":22396:22408   */\n      revert\n        /* \"#utility.yul\":22420:22537   */\n    tag_255:\n        /* \"#utility.yul\":22529:22530   */\n      0x00\n        /* \"#utility.yul\":22526:22527   */\n      dup1\n        /* \"#utility.yul\":22519:22531   */\n      revert\n        /* \"#utility.yul\":22543:22660   */\n    tag_235:\n        /* \"#utility.yul\":22652:22653   */\n      0x00\n        /* \"#utility.yul\":22649:22650   */\n      dup1\n        /* \"#utility.yul\":22642:22654   */\n      revert\n        /* \"#utility.yul\":22666:22768   */\n    tag_413:\n        /* \"#utility.yul\":22707:22713   */\n      0x00\n        /* \"#utility.yul\":22758:22760   */\n      0x1f\n        /* \"#utility.yul\":22754:22761   */\n      not\n        /* \"#utility.yul\":22749:22751   */\n      0x1f\n        /* \"#utility.yul\":22742:22747   */\n      dup4\n        /* \"#utility.yul\":22738:22752   */\n      add\n        /* \"#utility.yul\":22734:22762   */\n      and\n        /* \"#utility.yul\":22724:22762   */\n      swap1\n      pop\n        /* \"#utility.yul\":22666:22768   */\n      swap2\n      swap1\n      pop\n      jump\t// out\n        /* \"#utility.yul\":22774:23085   */\n    tag_297:\n        /* \"#utility.yul\":22914:22948   */\n      0x596f752068617665206e6f7420696e707574206120726967687420766f74652e\n        /* \"#utility.yul\":22910:22911   */\n      0x00\n        /* \"#utility.yul\":22902:22908   */\n      dup3\n        /* \"#utility.yul\":22898:22912   */\n      add\n        /* \"#utility.yul\":22891:22949   */\n      mstore\n        /* \"#utility.yul\":22983:23017   */\n      0x20596f752063616e2065697468657220766f7465203120666f72205265717565\n        /* \"#utility.yul\":22978:22980   */\n      0x20\n        /* \"#utility.yul\":22970:22976   */\n      dup3\n        /* \"#utility.yul\":22966:22981   */\n      add\n        /* \"#utility.yul\":22959:23018   */\n      mstore\n        /* \"#utility.yul\":23052:23077   */\n      0x73746572206f72203220666f722050726f76696465722e000000000000000000\n        /* \"#utility.yul\":23047:23049   */\n      0x40\n        /* \"#utility.yul\":23039:23045   */\n      dup3\n        /* \"#utility.yul\":23035:23050   */\n      add\n        /* \"#utility.yul\":23028:23078   */\n      mstore\n        /* \"#utility.yul\":22774:23085   */\n      pop\n      jump\t// out\n        /* \"#utility.yul\":23091:23323   */\n    tag_302:\n        /* \"#utility.yul\":23231:23265   */\n      0x596f75206861766520616c726561647920766f7465642c20796f752063616e6e\n        /* \"#utility.yul\":23227:23228   */\n      0x00\n        /* \"#utility.yul\":23219:23225   */\n      dup3\n        /* \"#utility.yul\":23215:23229   */\n      add\n        /* \"#utility.yul\":23208:23266   */\n      mstore\n        /* \"#utility.yul\":23300:23315   */\n      0x6f7420766f746520616761696e00000000000000000000000000000000000000\n        /* \"#utility.yul\":23295:23297   */\n      0x20\n        /* \"#utility.yul\":23287:23293   */\n      dup3\n        /* \"#utility.yul\":23283:23298   */\n      add\n        /* \"#utility.yul\":23276:23316   */\n      mstore\n        /* \"#utility.yul\":23091:23323   */\n      pop\n      jump\t// out\n        /* \"#utility.yul\":23329:23511   */\n    tag_307:\n        /* \"#utility.yul\":23469:23503   */\n      0x43616e6e6f74206361727279206f75742074686973206f7065726174696f6e21\n        /* \"#utility.yul\":23465:23466   */\n      0x00\n        /* \"#utility.yul\":23457:23463   */\n      dup3\n        /* \"#utility.yul\":23453:23467   */\n      add\n        /* \"#utility.yul\":23446:23504   */\n      mstore\n        /* \"#utility.yul\":23329:23511   */\n      pop\n      jump\t// out\n        /* \"#utility.yul\":23517:23696   */\n    tag_312:\n        /* \"#utility.yul\":23657:23688   */\n      0x5468697320436f6e666c69637420646f6573206e6f742065786973742e000000\n        /* \"#utility.yul\":23653:23654   */\n      0x00\n        /* \"#utility.yul\":23645:23651   */\n      dup3\n        /* \"#utility.yul\":23641:23655   */\n      add\n        /* \"#utility.yul\":23634:23689   */\n      mstore\n        /* \"#utility.yul\":23517:23696   */\n      pop\n      jump\t// out\n        /* \"#utility.yul\":23702:23937   */\n    tag_317:\n        /* \"#utility.yul\":23842:23876   */\n      0x596f7520726169736564207468697320636f6e666c6963742e20596f75206361\n        /* \"#utility.yul\":23838:23839   */\n      0x00\n        /* \"#utility.yul\":23830:23836   */\n      dup3\n        /* \"#utility.yul\":23826:23840   */\n      add\n        /* \"#utility.yul\":23819:23877   */\n      mstore\n        /* \"#utility.yul\":23911:23929   */\n      0x6e6e6f7420766f7465206f6e2069742e00000000000000000000000000000000\n        /* \"#utility.yul\":23906:23908   */\n      0x20\n        /* \"#utility.yul\":23898:23904   */\n      dup3\n        /* \"#utility.yul\":23894:23909   */\n      add\n        /* \"#utility.yul\":23887:23930   */\n      mstore\n        /* \"#utility.yul\":23702:23937   */\n      pop\n      jump\t// out\n        /* \"#utility.yul\":23943:24194   */\n    tag_322:\n        /* \"#utility.yul\":24083:24117   */\n      0x436f6e666c6963742068617320616c7265616479206265656e20637265617465\n        /* \"#utility.yul\":24079:24080   */\n      0x00\n        /* \"#utility.yul\":24071:24077   */\n      dup3\n        /* \"#utility.yul\":24067:24081   */\n      add\n        /* \"#utility.yul\":24060:24118   */\n      mstore\n        /* \"#utility.yul\":24152:24186   */\n      0x6420666f72207468697320706172746963756c6172204d696c6573746f6e652e\n        /* \"#utility.yul\":24147:24149   */\n      0x20\n        /* \"#utility.yul\":24139:24145   */\n      dup3\n        /* \"#utility.yul\":24135:24150   */\n      add\n        /* \"#utility.yul\":24128:24187   */\n      mstore\n        /* \"#utility.yul\":23943:24194   */\n      pop\n      jump\t// out\n        /* \"#utility.yul\":24200:24448   */\n    tag_327:\n        /* \"#utility.yul\":24340:24374   */\n      0x566f74696e6720686173206e6f74206265656e20636f6d706c65746564207965\n        /* \"#utility.yul\":24336:24337   */\n      0x00\n        /* \"#utility.yul\":24328:24334   */\n      dup3\n        /* \"#utility.yul\":24324:24338   */\n      add\n        /* \"#utility.yul\":24317:24375   */\n      mstore\n        /* \"#utility.yul\":24409:24440   */\n      0x742e20506c65617365207761697420666f7220697420746f20656e642e000000\n        /* \"#utility.yul\":24404:24406   */\n      0x20\n        /* \"#utility.yul\":24396:24402   */\n      dup3\n        /* \"#utility.yul\":24392:24407   */\n      add\n        /* \"#utility.yul\":24385:24441   */\n      mstore\n        /* \"#utility.yul\":24200:24448   */\n      pop\n      jump\t// out\n        /* \"#utility.yul\":24454:24752   */\n    tag_332:\n        /* \"#utility.yul\":24594:24628   */\n      0x4e6f742065766572796f6e652068617320766f7465642c20706c656173652070\n        /* \"#utility.yul\":24590:24591   */\n      0x00\n        /* \"#utility.yul\":24582:24588   */\n      dup3\n        /* \"#utility.yul\":24578:24592   */\n      add\n        /* \"#utility.yul\":24571:24629   */\n      mstore\n        /* \"#utility.yul\":24663:24697   */\n      0x726f6d707420616c6c206f74686572206d656d62657273206f662070726f6a65\n        /* \"#utility.yul\":24658:24660   */\n      0x20\n        /* \"#utility.yul\":24650:24656   */\n      dup3\n        /* \"#utility.yul\":24646:24661   */\n      add\n        /* \"#utility.yul\":24639:24698   */\n      mstore\n        /* \"#utility.yul\":24732:24744   */\n      0x637420746f20766f746500000000000000000000000000000000000000000000\n        /* \"#utility.yul\":24727:24729   */\n      0x40\n        /* \"#utility.yul\":24719:24725   */\n      dup3\n        /* \"#utility.yul\":24715:24730   */\n      add\n        /* \"#utility.yul\":24708:24745   */\n      mstore\n        /* \"#utility.yul\":24454:24752   */\n      pop\n      jump\t// out\n        /* \"#utility.yul\":24758:24929   */\n    tag_337:\n        /* \"#utility.yul\":24898:24921   */\n      0x4120737472696e67206973207265717569726564210000000000000000000000\n        /* \"#utility.yul\":24894:24895   */\n      0x00\n        /* \"#utility.yul\":24886:24892   */\n      dup3\n        /* \"#utility.yul\":24882:24896   */\n      add\n        /* \"#utility.yul\":24875:24922   */\n      mstore\n        /* \"#utility.yul\":24758:24929   */\n      pop\n      jump\t// out\n        /* \"#utility.yul\":24935:25179   */\n    tag_342:\n        /* \"#utility.yul\":25075:25109   */\n      0x596f752061726520696e766f6c76656420696e207468697320636f6e666c6963\n        /* \"#utility.yul\":25071:25072   */\n      0x00\n        /* \"#utility.yul\":25063:25069   */\n      dup3\n        /* \"#utility.yul\":25059:25073   */\n      add\n        /* \"#utility.yul\":25052:25110   */\n      mstore\n        /* \"#utility.yul\":25144:25171   */\n      0x742e20596f752063616e6e6f7420766f7465206f6e2069742e00000000000000\n        /* \"#utility.yul\":25139:25141   */\n      0x20\n        /* \"#utility.yul\":25131:25137   */\n      dup3\n        /* \"#utility.yul\":25127:25142   */\n      add\n        /* \"#utility.yul\":25120:25172   */\n      mstore\n        /* \"#utility.yul\":24935:25179   */\n      pop\n      jump\t// out\n        /* \"#utility.yul\":25185:25367   */\n    tag_347:\n        /* \"#utility.yul\":25325:25359   */\n      0x456e6f75676820766f7465732068617665206265656e20636f6c6c6563746564\n        /* \"#utility.yul\":25321:25322   */\n      0x00\n        /* \"#utility.yul\":25313:25319   */\n      dup3\n        /* \"#utility.yul\":25309:25323   */\n      add\n        /* \"#utility.yul\":25302:25360   */\n      mstore\n        /* \"#utility.yul\":25185:25367   */\n      pop\n      jump\t// out\n        /* \"#utility.yul\":25373:25496   */\n    tag_425:\n        /* \"#utility.yul\":25464:25465   */\n      0x04\n        /* \"#utility.yul\":25457:25462   */\n      dup2\n        /* \"#utility.yul\":25454:25466   */\n      lt\n        /* \"#utility.yul\":25444:25490   */\n      tag_475\n      jumpi\n        /* \"#utility.yul\":25470:25488   */\n      tag_476\n      tag_69\n      jump\t// in\n    tag_476:\n        /* \"#utility.yul\":25444:25490   */\n    tag_475:\n        /* \"#utility.yul\":25373:25496   */\n      pop\n      jump\t// out\n        /* \"#utility.yul\":25502:25624   */\n    tag_213:\n        /* \"#utility.yul\":25575:25599   */\n      tag_478\n        /* \"#utility.yul\":25593:25598   */\n      dup2\n        /* \"#utility.yul\":25575:25599   */\n      tag_283\n      jump\t// in\n    tag_478:\n        /* \"#utility.yul\":25568:25573   */\n      dup2\n        /* \"#utility.yul\":25565:25600   */\n      eq\n        /* \"#utility.yul\":25555:25618   */\n      tag_479\n      jumpi\n        /* \"#utility.yul\":25614:25615   */\n      0x00\n        /* \"#utility.yul\":25611:25612   */\n      dup1\n        /* \"#utility.yul\":25604:25616   */\n      revert\n        /* \"#utility.yul\":25555:25618   */\n    tag_479:\n        /* \"#utility.yul\":25502:25624   */\n      pop\n      jump\t// out\n        /* \"#utility.yul\":25630:25768   */\n    tag_217:\n        /* \"#utility.yul\":25711:25743   */\n      tag_481\n        /* \"#utility.yul\":25737:25742   */\n      dup2\n        /* \"#utility.yul\":25711:25743   */\n      tag_418\n      jump\t// in\n    tag_481:\n        /* \"#utility.yul\":25704:25709   */\n      dup2\n        /* \"#utility.yul\":25701:25744   */\n      eq\n        /* \"#utility.yul\":25691:25762   */\n      tag_482\n      jumpi\n        /* \"#utility.yul\":25758:25759   */\n      0x00\n        /* \"#utility.yul\":25755:25756   */\n      dup1\n        /* \"#utility.yul\":25748:25760   */\n      revert\n        /* \"#utility.yul\":25691:25762   */\n    tag_482:\n        /* \"#utility.yul\":25630:25768   */\n      pop\n      jump\t// out\n        /* \"#utility.yul\":25774:25896   */\n    tag_227:\n        /* \"#utility.yul\":25847:25871   */\n      tag_484\n        /* \"#utility.yul\":25865:25870   */\n      dup2\n        /* \"#utility.yul\":25847:25871   */\n      tag_351\n      jump\t// in\n    tag_484:\n        /* \"#utility.yul\":25840:25845   */\n      dup2\n        /* \"#utility.yul\":25837:25872   */\n      eq\n        /* \"#utility.yul\":25827:25890   */\n      tag_485\n      jumpi\n        /* \"#utility.yul\":25886:25887   */\n      0x00\n        /* \"#utility.yul\":25883:25884   */\n      dup1\n        /* \"#utility.yul\":25876:25888   */\n      revert\n        /* \"#utility.yul\":25827:25890   */\n    tag_485:\n        /* \"#utility.yul\":25774:25896   */\n      pop\n      jump\t// out\n        /* \"#utility.yul\":25902:26020   */\n    tag_231:\n        /* \"#utility.yul\":25973:25995   */\n      tag_487\n        /* \"#utility.yul\":25989:25994   */\n      dup2\n        /* \"#utility.yul\":25973:25995   */\n      tag_355\n      jump\t// in\n    tag_487:\n        /* \"#utility.yul\":25966:25971   */\n      dup2\n        /* \"#utility.yul\":25963:25996   */\n      eq\n        /* \"#utility.yul\":25953:26014   */\n      tag_488\n      jumpi\n        /* \"#utility.yul\":26010:26011   */\n      0x00\n        /* \"#utility.yul\":26007:26008   */\n      dup1\n        /* \"#utility.yul\":26000:26012   */\n      revert\n        /* \"#utility.yul\":25953:26014   */\n    tag_488:\n        /* \"#utility.yul\":25902:26020   */\n      pop\n      jump\t// out\n\n    auxdata: 0xa26469706673582212202f028e433b919bbfbd974da82cf255a3f7993ebb0c0113f1848dd782f059428c64736f6c63430008070033\n}\n",
				"bytecode": {
					"linkReferences": {},
					"object": "608060405234801561001057600080fd5b5061218a806100206000396000f3fe608060405234801561001057600080fd5b50600436106100a85760003560e01c80639ac78879116100715780639ac78879146101755780639c87a5e9146101a5578063c171bdf7146101c1578063cb4389ce146101dd578063e3d877181461020d578063e62fac271461023d576100a8565b80623f489f146100ad5780630366cef2146100c95780633c45fe31146100f957806379712b01146101295780639332a07e14610159575b600080fd5b6100c760048036038101906100c29190611400565b610259565b005b6100e360048036038101906100de9190611400565b6103c5565b6040516100f091906119f2565b60405180910390f35b610113600480360381019061010e9190611400565b610573565b60405161012091906119f2565b60405180910390f35b610143600480360381019061013e9190611400565b6105b6565b604051610150919061185c565b60405180910390f35b610173600480360381019061016e91906114ce565b610606565b005b61018f600480360381019061018a9190611400565b6107e5565b60405161019c91906119f2565b60405180910390f35b6101bf60048036038101906101ba9190611400565b610828565b005b6101db60048036038101906101d69190611453565b610944565b005b6101f760048036038101906101f29190611400565b610ede565b6040516102049190611877565b60405180910390f35b61022760048036038101906102229190611400565b610f2e565b60405161023491906119f2565b60405180910390f35b61025760048036038101906102529190611593565b610f71565b005b8282826001151561026b8484846105b6565b1515146102ad576040517f08c379a00000000000000000000000000000000000000000000000000000000081526004016102a4906118f2565b60405180910390fd5b85858560008060038111156102c5576102c4611d19565b5b6000808681526020019081526020016000206000858152602001908152602001600020600084815260200190815260200160002060060160149054906101000a900460ff16600381111561031c5761031b611d19565b5b1461035c576040517f08c379a0000000000000000000000000000000000000000000000000000000008152600401610353906118d2565b60405180910390fd5b60008060008c815260200190815260200160002060008b815260200190815260200160002060008a8152602001908152602001600020600b0160006101000a81548160ff0219169083151502179055506103b98a8a8a6003611234565b50505050505050505050565b60008060008581526020019081526020016000206000848152602001908152602001600020600083815260200190815260200160002060070154600080868152602001908152602001600020600085815260200190815260200160002060008481526020019081526020016000206008015414610477576040517f08c379a000000000000000000000000000000000000000000000000000000000815260040161046e90611972565b60405180910390fd5b6002600381111561048b5761048a611d19565b5b6000808681526020019081526020016000206000858152602001908152602001600020600084815260200190815260200160002060060160149054906101000a900460ff1660038111156104e2576104e1611d19565b5b14610522576040517f08c379a000000000000000000000000000000000000000000000000000000000815260040161051990611952565b60405180910390fd5b60008085815260200190815260200160002060008481526020019081526020016000206000838152602001908152602001600020600b0160019054906101000a900460ff1660ff1690509392505050565b6000806000858152602001908152602001600020600084815260200190815260200160002060008381526020019081526020016000206008015490509392505050565b600080600085815260200190815260200160002060008481526020019081526020016000206000838152602001908152602001600020600b0160009054906101000a900460ff1690509392505050565b858585600080600381111561061e5761061d611d19565b5b6000808681526020019081526020016000206000858152602001908152602001600020600084815260200190815260200160002060060160149054906101000a900460ff16600381111561067557610674611d19565b5b146106b5576040517f08c379a00000000000000000000000000000000000000000000000000000000081526004016106ac906118d2565b60405180910390fd5b8660008151116106fa576040517f08c379a00000000000000000000000000000000000000000000000000000000081526004016106f190611992565b60405180910390fd5b86600081511161073f576040517f08c379a000000000000000000000000000000000000000000000000000000000815260040161073690611992565b60405180910390fd5b886000808e815260200190815260200160002060008d815260200190815260200160002060008c8152602001908152602001600020600301908051906020019061078a929190611299565b50876000808e815260200190815260200160002060008d815260200190815260200160002060008c815260200190815260200160002060040190805190602001906107d6929190611299565b50505050505050505050505050565b600080600085815260200190815260200160002060008481526020019081526020016000206000838152602001908152602001600020600a015490509392505050565b8282826001151561083a8484846105b6565b15151461087c576040517f08c379a0000000000000000000000000000000000000000000000000000000008152600401610873906118f2565b60405180910390fd5b858585600080600381111561089457610893611d19565b5b6000808681526020019081526020016000206000858152602001908152602001600020600084815260200190815260200160002060060160149054906101000a900460ff1660038111156108eb576108ea611d19565b5b1461092b576040517f08c379a0000000000000000000000000000000000000000000000000000000008152600401610922906118d2565b60405180910390fd5b6109388a8a8a6001611234565b50505050505050505050565b848484600115156109568484846105b6565b151514610998576040517f08c379a000000000000000000000000000000000000000000000000000000000815260040161098f906118f2565b60405180910390fd5b87878760018060038111156109b0576109af611d19565b5b6000808681526020019081526020016000206000858152602001908152602001600020600084815260200190815260200160002060060160149054906101000a900460ff166003811115610a0757610a06611d19565b5b14610a47576040517f08c379a0000000000000000000000000000000000000000000000000000000008152600401610a3e906118d2565b60405180910390fd5b60008060008e815260200190815260200160002060008d815260200190815260200160002060008c815260200190815260200160002090508973ffffffffffffffffffffffffffffffffffffffff168160050160009054906101000a900473ffffffffffffffffffffffffffffffffffffffff1673ffffffffffffffffffffffffffffffffffffffff161415610b12576040517f08c379a0000000000000000000000000000000000000000000000000000000008152600401610b0990611912565b60405180910390fd5b8973ffffffffffffffffffffffffffffffffffffffff168160060160009054906101000a900473ffffffffffffffffffffffffffffffffffffffff1673ffffffffffffffffffffffffffffffffffffffff161415610ba5576040517f08c379a0000000000000000000000000000000000000000000000000000000008152600401610b9c906119b2565b60405180910390fd5b8060070154816008015410610bef576040517f08c379a0000000000000000000000000000000000000000000000000000000008152600401610be6906119d2565b60405180910390fd5b600081600c0160008c73ffffffffffffffffffffffffffffffffffffffff1673ffffffffffffffffffffffffffffffffffffffff16815260200190815260200160002060009054906101000a900460ff1660ff1614610c83576040517f08c379a0000000000000000000000000000000000000000000000000000000008152600401610c7a906118b2565b60405180910390fd5b60018960ff161480610c98575060028960ff16145b610cd7576040517f08c379a0000000000000000000000000000000000000000000000000000000008152600401610cce90611892565b60405180910390fd5b60008060008f815260200190815260200160002060008e815260200190815260200160002060008d815260200190815260200160002090508981600c0160008d73ffffffffffffffffffffffffffffffffffffffff1673ffffffffffffffffffffffffffffffffffffffff16815260200190815260200160002060006101000a81548160ff021916908360ff16021790555060018a60ff161415610d9057806009016000815480929190610d8a90611ca1565b91905055505b60028a60ff161415610db75780600a016000815480929190610db190611ca1565b91905055505b806008016000815480929190610dcc90611ca1565b91905055507f20211b974adbe11ce3687d51504ce7ef1fcfbb9c00405ba7aca7b283903f345a8e8e8e338e604051610e08959493929190611a6e565b60405180910390a1806007015481600801541415610ece57806009015481600a01541115610e5357600281600b0160016101000a81548160ff021916908360ff160217905550610e72565b600181600b0160016101000a81548160ff021916908360ff1602179055505b610e7f8e8e8e6002611234565b7fe59fdbc65a5dd63c529717c2a71d04b136038f05301755de242dd05990c028148e8e8e84600b0160019054906101000a900460ff16604051610ec59493929190611ac1565b60405180910390a15b5050505050505050505050505050565b60008060008581526020019081526020016000206000848152602001908152602001600020600083815260200190815260200160002060060160149054906101000a900460ff1690509392505050565b6000806000858152602001908152602001600020600084815260200190815260200160002060008381526020019081526020016000206009015490509392505050565b846000815111610fb6576040517f08c379a0000000000000000000000000000000000000000000000000000000008152600401610fad90611992565b60405180910390fd5b846000815111610ffb576040517f08c379a0000000000000000000000000000000000000000000000000000000008152600401610ff290611992565b60405180910390fd5b6000151561100a8b8b8b6105b6565b15151461104c576040517f08c379a000000000000000000000000000000000000000000000000000000000815260040161104390611932565b60405180910390fd5b60008060008c815260200190815260200160002060008b815260200190815260200160002060008a815260200190815260200160002090508a8160000181905550898160010181905550888160020181905550878160030190805190602001906110b7929190611299565b50868160040190805190602001906110d0929190611299565b50858160050160006101000a81548173ffffffffffffffffffffffffffffffffffffffff021916908373ffffffffffffffffffffffffffffffffffffffff160217905550848160060160006101000a81548173ffffffffffffffffffffffffffffffffffffffff021916908373ffffffffffffffffffffffffffffffffffffffff16021790555060008160060160146101000a81548160ff0219169083600381111561117f5761117e611d19565b5b02179055508381600701819055506000816008018190555060008160090181905550600081600a0181905550600181600b0160006101000a81548160ff021916908315150217905550600081600b0160016101000a81548160ff021916908360ff1602179055507ffa127411522a1139d16c2142db999e127aef2288bd98a0558006bb115666ab1b8b8b8b89898960405161121f96959493929190611a0d565b60405180910390a15050505050505050505050565b806000808681526020019081526020016000206000858152602001908152602001600020600084815260200190815260200160002060060160146101000a81548160ff0219169083600381111561128e5761128d611d19565b5b021790555050505050565b8280546112a590611c3e565b90600052602060002090601f0160209004810192826112c7576000855561130e565b82601f106112e057805160ff191683800117855561130e565b8280016001018555821561130e579182015b8281111561130d5782518255916020019190600101906112f2565b5b50905061131b919061131f565b5090565b5b80821115611338576000816000905550600101611320565b5090565b600061134f61134a84611b2b565b611b06565b90508281526020810184848401111561136b5761136a611dab565b5b611376848285611c2f565b509392505050565b60008135905061138d816120f8565b92915050565b6000813590506113a28161210f565b92915050565b600082601f8301126113bd576113bc611da6565b5b81356113cd84826020860161133c565b91505092915050565b6000813590506113e581612126565b92915050565b6000813590506113fa8161213d565b92915050565b60008060006060848603121561141957611418611db5565b5b6000611427868287016113d6565b9350506020611438868287016113d6565b9250506040611449868287016113d6565b9150509250925092565b600080600080600060a0868803121561146f5761146e611db5565b5b600061147d888289016113d6565b955050602061148e888289016113d6565b945050604061149f888289016113d6565b93505060606114b08882890161137e565b92505060806114c1888289016113eb565b9150509295509295909350565b60008060008060008060c087890312156114eb576114ea611db5565b5b60006114f989828a016113d6565b965050602061150a89828a016113d6565b955050604061151b89828a016113d6565b945050606087013567ffffffffffffffff81111561153c5761153b611db0565b5b61154889828a016113a8565b935050608087013567ffffffffffffffff81111561156957611568611db0565b5b61157589828a016113a8565b92505060a061158689828a01611393565b9150509295509295509295565b600080600080600080600080610100898b0312156115b4576115b3611db5565b5b60006115c28b828c016113d6565b98505060206115d38b828c016113d6565b97505060406115e48b828c016113d6565b965050606089013567ffffffffffffffff81111561160557611604611db0565b5b6116118b828c016113a8565b955050608089013567ffffffffffffffff81111561163257611631611db0565b5b61163e8b828c016113a8565b94505060a061164f8b828c01611393565b93505060c06116608b828c01611393565b92505060e06116718b828c016113d6565b9150509295985092959890939650565b61168a81611be7565b82525050565b61169981611b6d565b82525050565b6116a881611b91565b82525050565b6116b781611bf9565b82525050565b60006116ca605783611b5c565b91506116d582611dcb565b606082019050919050565b60006116ed602d83611b5c565b91506116f882611e40565b604082019050919050565b6000611710602083611b5c565b915061171b82611e8f565b602082019050919050565b6000611733601d83611b5c565b915061173e82611eb8565b602082019050919050565b6000611756603083611b5c565b915061176182611ee1565b604082019050919050565b6000611779604083611b5c565b915061178482611f30565b604082019050919050565b600061179c603d83611b5c565b91506117a782611f7f565b604082019050919050565b60006117bf604a83611b5c565b91506117ca82611fce565b606082019050919050565b60006117e2601583611b5c565b91506117ed82612043565b602082019050919050565b6000611805603983611b5c565b91506118108261206c565b604082019050919050565b6000611828602083611b5c565b9150611833826120bb565b602082019050919050565b61184781611bd0565b82525050565b61185681611bda565b82525050565b6000602082019050611871600083018461169f565b92915050565b600060208201905061188c60008301846116ae565b92915050565b600060208201905081810360008301526118ab816116bd565b9050919050565b600060208201905081810360008301526118cb816116e0565b9050919050565b600060208201905081810360008301526118eb81611703565b9050919050565b6000602082019050818103600083015261190b81611726565b9050919050565b6000602082019050818103600083015261192b81611749565b9050919050565b6000602082019050818103600083015261194b8161176c565b9050919050565b6000602082019050818103600083015261196b8161178f565b9050919050565b6000602082019050818103600083015261198b816117b2565b9050919050565b600060208201905081810360008301526119ab816117d5565b9050919050565b600060208201905081810360008301526119cb816117f8565b9050919050565b600060208201905081810360008301526119eb8161181b565b9050919050565b6000602082019050611a07600083018461183e565b92915050565b600060c082019050611a22600083018961183e565b611a2f602083018861183e565b611a3c604083018761183e565b611a496060830186611681565b611a566080830185611681565b611a6360a083018461183e565b979650505050505050565b600060a082019050611a83600083018861183e565b611a90602083018761183e565b611a9d604083018661183e565b611aaa6060830185611690565b611ab7608083018461184d565b9695505050505050565b6000608082019050611ad6600083018761183e565b611ae3602083018661183e565b611af0604083018561183e565b611afd606083018461184d565b95945050505050565b6000611b10611b21565b9050611b1c8282611c70565b919050565b6000604051905090565b600067ffffffffffffffff821115611b4657611b45611d77565b5b611b4f82611dba565b9050602081019050919050565b600082825260208201905092915050565b6000611b7882611bb0565b9050919050565b6000611b8a82611bb0565b9050919050565b60008115159050919050565b6000819050611bab826120e4565b919050565b600073ffffffffffffffffffffffffffffffffffffffff82169050919050565b6000819050919050565b600060ff82169050919050565b6000611bf282611c0b565b9050919050565b6000611c0482611b9d565b9050919050565b6000611c1682611c1d565b9050919050565b6000611c2882611bb0565b9050919050565b82818337600083830152505050565b60006002820490506001821680611c5657607f821691505b60208210811415611c6a57611c69611d48565b5b50919050565b611c7982611dba565b810181811067ffffffffffffffff82111715611c9857611c97611d77565b5b80604052505050565b6000611cac82611bd0565b91507fffffffffffffffffffffffffffffffffffffffffffffffffffffffffffffffff821415611cdf57611cde611cea565b5b600182019050919050565b7f4e487b7100000000000000000000000000000000000000000000000000000000600052601160045260246000fd5b7f4e487b7100000000000000000000000000000000000000000000000000000000600052602160045260246000fd5b7f4e487b7100000000000000000000000000000000000000000000000000000000600052602260045260246000fd5b7f4e487b7100000000000000000000000000000000000000000000000000000000600052604160045260246000fd5b600080fd5b600080fd5b600080fd5b600080fd5b6000601f19601f8301169050919050565b7f596f752068617665206e6f7420696e707574206120726967687420766f74652e60008201527f20596f752063616e2065697468657220766f7465203120666f7220526571756560208201527f73746572206f72203220666f722050726f76696465722e000000000000000000604082015250565b7f596f75206861766520616c726561647920766f7465642c20796f752063616e6e60008201527f6f7420766f746520616761696e00000000000000000000000000000000000000602082015250565b7f43616e6e6f74206361727279206f75742074686973206f7065726174696f6e21600082015250565b7f5468697320436f6e666c69637420646f6573206e6f742065786973742e000000600082015250565b7f596f7520726169736564207468697320636f6e666c6963742e20596f7520636160008201527f6e6e6f7420766f7465206f6e2069742e00000000000000000000000000000000602082015250565b7f436f6e666c6963742068617320616c7265616479206265656e2063726561746560008201527f6420666f72207468697320706172746963756c6172204d696c6573746f6e652e602082015250565b7f566f74696e6720686173206e6f74206265656e20636f6d706c6574656420796560008201527f742e20506c65617365207761697420666f7220697420746f20656e642e000000602082015250565b7f4e6f742065766572796f6e652068617320766f7465642c20706c65617365207060008201527f726f6d707420616c6c206f74686572206d656d62657273206f662070726f6a6560208201527f637420746f20766f746500000000000000000000000000000000000000000000604082015250565b7f4120737472696e67206973207265717569726564210000000000000000000000600082015250565b7f596f752061726520696e766f6c76656420696e207468697320636f6e666c696360008201527f742e20596f752063616e6e6f7420766f7465206f6e2069742e00000000000000602082015250565b7f456e6f75676820766f7465732068617665206265656e20636f6c6c6563746564600082015250565b600481106120f5576120f4611d19565b5b50565b61210181611b6d565b811461210c57600080fd5b50565b61211881611b7f565b811461212357600080fd5b50565b61212f81611bd0565b811461213a57600080fd5b50565b61214681611bda565b811461215157600080fd5b5056fea26469706673582212202f028e433b919bbfbd974da82cf255a3f7993ebb0c0113f1848dd782f059428c64736f6c63430008070033",
					"opcodes": "PUSH1 0x80 PUSH1 0x40 MSTORE CALLVALUE DUP1 ISZERO PUSH2 0x10 JUMPI PUSH1 0x0 DUP1 REVERT JUMPDEST POP PUSH2 0x218A DUP1 PUSH2 0x20 PUSH1 0x0 CODECOPY PUSH1 0x0 RETURN INVALID PUSH1 0x80 PUSH1 0x40 MSTORE CALLVALUE DUP1 ISZERO PUSH2 0x10 JUMPI PUSH1 0x0 DUP1 REVERT JUMPDEST POP PUSH1 0x4 CALLDATASIZE LT PUSH2 0xA8 JUMPI PUSH1 0x0 CALLDATALOAD PUSH1 0xE0 SHR DUP1 PUSH4 0x9AC78879 GT PUSH2 0x71 JUMPI DUP1 PUSH4 0x9AC78879 EQ PUSH2 0x175 JUMPI DUP1 PUSH4 0x9C87A5E9 EQ PUSH2 0x1A5 JUMPI DUP1 PUSH4 0xC171BDF7 EQ PUSH2 0x1C1 JUMPI DUP1 PUSH4 0xCB4389CE EQ PUSH2 0x1DD JUMPI DUP1 PUSH4 0xE3D87718 EQ PUSH2 0x20D JUMPI DUP1 PUSH4 0xE62FAC27 EQ PUSH2 0x23D JUMPI PUSH2 0xA8 JUMP JUMPDEST DUP1 PUSH3 0x3F489F EQ PUSH2 0xAD JUMPI DUP1 PUSH4 0x366CEF2 EQ PUSH2 0xC9 JUMPI DUP1 PUSH4 0x3C45FE31 EQ PUSH2 0xF9 JUMPI DUP1 PUSH4 0x79712B01 EQ PUSH2 0x129 JUMPI DUP1 PUSH4 0x9332A07E EQ PUSH2 0x159 JUMPI JUMPDEST PUSH1 0x0 DUP1 REVERT JUMPDEST PUSH2 0xC7 PUSH1 0x4 DUP1 CALLDATASIZE SUB DUP2 ADD SWAP1 PUSH2 0xC2 SWAP2 SWAP1 PUSH2 0x1400 JUMP JUMPDEST PUSH2 0x259 JUMP JUMPDEST STOP JUMPDEST PUSH2 0xE3 PUSH1 0x4 DUP1 CALLDATASIZE SUB DUP2 ADD SWAP1 PUSH2 0xDE SWAP2 SWAP1 PUSH2 0x1400 JUMP JUMPDEST PUSH2 0x3C5 JUMP JUMPDEST PUSH1 0x40 MLOAD PUSH2 0xF0 SWAP2 SWAP1 PUSH2 0x19F2 JUMP JUMPDEST PUSH1 0x40 MLOAD DUP1 SWAP2 SUB SWAP1 RETURN JUMPDEST PUSH2 0x113 PUSH1 0x4 DUP1 CALLDATASIZE SUB DUP2 ADD SWAP1 PUSH2 0x10E SWAP2 SWAP1 PUSH2 0x1400 JUMP JUMPDEST PUSH2 0x573 JUMP JUMPDEST PUSH1 0x40 MLOAD PUSH2 0x120 SWAP2 SWAP1 PUSH2 0x19F2 JUMP JUMPDEST PUSH1 0x40 MLOAD DUP1 SWAP2 SUB SWAP1 RETURN JUMPDEST PUSH2 0x143 PUSH1 0x4 DUP1 CALLDATASIZE SUB DUP2 ADD SWAP1 PUSH2 0x13E SWAP2 SWAP1 PUSH2 0x1400 JUMP JUMPDEST PUSH2 0x5B6 JUMP JUMPDEST PUSH1 0x40 MLOAD PUSH2 0x150 SWAP2 SWAP1 PUSH2 0x185C JUMP JUMPDEST PUSH1 0x40 MLOAD DUP1 SWAP2 SUB SWAP1 RETURN JUMPDEST PUSH2 0x173 PUSH1 0x4 DUP1 CALLDATASIZE SUB DUP2 ADD SWAP1 PUSH2 0x16E SWAP2 SWAP1 PUSH2 0x14CE JUMP JUMPDEST PUSH2 0x606 JUMP JUMPDEST STOP JUMPDEST PUSH2 0x18F PUSH1 0x4 DUP1 CALLDATASIZE SUB DUP2 ADD SWAP1 PUSH2 0x18A SWAP2 SWAP1 PUSH2 0x1400 JUMP JUMPDEST PUSH2 0x7E5 JUMP JUMPDEST PUSH1 0x40 MLOAD PUSH2 0x19C SWAP2 SWAP1 PUSH2 0x19F2 JUMP JUMPDEST PUSH1 0x40 MLOAD DUP1 SWAP2 SUB SWAP1 RETURN JUMPDEST PUSH2 0x1BF PUSH1 0x4 DUP1 CALLDATASIZE SUB DUP2 ADD SWAP1 PUSH2 0x1BA SWAP2 SWAP1 PUSH2 0x1400 JUMP JUMPDEST PUSH2 0x828 JUMP JUMPDEST STOP JUMPDEST PUSH2 0x1DB PUSH1 0x4 DUP1 CALLDATASIZE SUB DUP2 ADD SWAP1 PUSH2 0x1D6 SWAP2 SWAP1 PUSH2 0x1453 JUMP JUMPDEST PUSH2 0x944 JUMP JUMPDEST STOP JUMPDEST PUSH2 0x1F7 PUSH1 0x4 DUP1 CALLDATASIZE SUB DUP2 ADD SWAP1 PUSH2 0x1F2 SWAP2 SWAP1 PUSH2 0x1400 JUMP JUMPDEST PUSH2 0xEDE JUMP JUMPDEST PUSH1 0x40 MLOAD PUSH2 0x204 SWAP2 SWAP1 PUSH2 0x1877 JUMP JUMPDEST PUSH1 0x40 MLOAD DUP1 SWAP2 SUB SWAP1 RETURN JUMPDEST PUSH2 0x227 PUSH1 0x4 DUP1 CALLDATASIZE SUB DUP2 ADD SWAP1 PUSH2 0x222 SWAP2 SWAP1 PUSH2 0x1400 JUMP JUMPDEST PUSH2 0xF2E JUMP JUMPDEST PUSH1 0x40 MLOAD PUSH2 0x234 SWAP2 SWAP1 PUSH2 0x19F2 JUMP JUMPDEST PUSH1 0x40 MLOAD DUP1 SWAP2 SUB SWAP1 RETURN JUMPDEST PUSH2 0x257 PUSH1 0x4 DUP1 CALLDATASIZE SUB DUP2 ADD SWAP1 PUSH2 0x252 SWAP2 SWAP1 PUSH2 0x1593 JUMP JUMPDEST PUSH2 0xF71 JUMP JUMPDEST STOP JUMPDEST DUP3 DUP3 DUP3 PUSH1 0x1 ISZERO ISZERO PUSH2 0x26B DUP5 DUP5 DUP5 PUSH2 0x5B6 JUMP JUMPDEST ISZERO ISZERO EQ PUSH2 0x2AD JUMPI PUSH1 0x40 MLOAD PUSH32 0x8C379A000000000000000000000000000000000000000000000000000000000 DUP2 MSTORE PUSH1 0x4 ADD PUSH2 0x2A4 SWAP1 PUSH2 0x18F2 JUMP JUMPDEST PUSH1 0x40 MLOAD DUP1 SWAP2 SUB SWAP1 REVERT JUMPDEST DUP6 DUP6 DUP6 PUSH1 0x0 DUP1 PUSH1 0x3 DUP2 GT ISZERO PUSH2 0x2C5 JUMPI PUSH2 0x2C4 PUSH2 0x1D19 JUMP JUMPDEST JUMPDEST PUSH1 0x0 DUP1 DUP7 DUP2 MSTORE PUSH1 0x20 ADD SWAP1 DUP2 MSTORE PUSH1 0x20 ADD PUSH1 0x0 KECCAK256 PUSH1 0x0 DUP6 DUP2 MSTORE PUSH1 0x20 ADD SWAP1 DUP2 MSTORE PUSH1 0x20 ADD PUSH1 0x0 KECCAK256 PUSH1 0x0 DUP5 DUP2 MSTORE PUSH1 0x20 ADD SWAP1 DUP2 MSTORE PUSH1 0x20 ADD PUSH1 0x0 KECCAK256 PUSH1 0x6 ADD PUSH1 0x14 SWAP1 SLOAD SWAP1 PUSH2 0x100 EXP SWAP1 DIV PUSH1 0xFF AND PUSH1 0x3 DUP2 GT ISZERO PUSH2 0x31C JUMPI PUSH2 0x31B PUSH2 0x1D19 JUMP JUMPDEST JUMPDEST EQ PUSH2 0x35C JUMPI PUSH1 0x40 MLOAD PUSH32 0x8C379A000000000000000000000000000000000000000000000000000000000 DUP2 MSTORE PUSH1 0x4 ADD PUSH2 0x353 SWAP1 PUSH2 0x18D2 JUMP JUMPDEST PUSH1 0x40 MLOAD DUP1 SWAP2 SUB SWAP1 REVERT JUMPDEST PUSH1 0x0 DUP1 PUSH1 0x0 DUP13 DUP2 MSTORE PUSH1 0x20 ADD SWAP1 DUP2 MSTORE PUSH1 0x20 ADD PUSH1 0x0 KECCAK256 PUSH1 0x0 DUP12 DUP2 MSTORE PUSH1 0x20 ADD SWAP1 DUP2 MSTORE PUSH1 0x20 ADD PUSH1 0x0 KECCAK256 PUSH1 0x0 DUP11 DUP2 MSTORE PUSH1 0x20 ADD SWAP1 DUP2 MSTORE PUSH1 0x20 ADD PUSH1 0x0 KECCAK256 PUSH1 0xB ADD PUSH1 0x0 PUSH2 0x100 EXP DUP2 SLOAD DUP2 PUSH1 0xFF MUL NOT AND SWAP1 DUP4 ISZERO ISZERO MUL OR SWAP1 SSTORE POP PUSH2 0x3B9 DUP11 DUP11 DUP11 PUSH1 0x3 PUSH2 0x1234 JUMP JUMPDEST POP POP POP POP POP POP POP POP POP POP JUMP JUMPDEST PUSH1 0x0 DUP1 PUSH1 0x0 DUP6 DUP2 MSTORE PUSH1 0x20 ADD SWAP1 DUP2 MSTORE PUSH1 0x20 ADD PUSH1 0x0 KECCAK256 PUSH1 0x0 DUP5 DUP2 MSTORE PUSH1 0x20 ADD SWAP1 DUP2 MSTORE PUSH1 0x20 ADD PUSH1 0x0 KECCAK256 PUSH1 0x0 DUP4 DUP2 MSTORE PUSH1 0x20 ADD SWAP1 DUP2 MSTORE PUSH1 0x20 ADD PUSH1 0x0 KECCAK256 PUSH1 0x7 ADD SLOAD PUSH1 0x0 DUP1 DUP7 DUP2 MSTORE PUSH1 0x20 ADD SWAP1 DUP2 MSTORE PUSH1 0x20 ADD PUSH1 0x0 KECCAK256 PUSH1 0x0 DUP6 DUP2 MSTORE PUSH1 0x20 ADD SWAP1 DUP2 MSTORE PUSH1 0x20 ADD PUSH1 0x0 KECCAK256 PUSH1 0x0 DUP5 DUP2 MSTORE PUSH1 0x20 ADD SWAP1 DUP2 MSTORE PUSH1 0x20 ADD PUSH1 0x0 KECCAK256 PUSH1 0x8 ADD SLOAD EQ PUSH2 0x477 JUMPI PUSH1 0x40 MLOAD PUSH32 0x8C379A000000000000000000000000000000000000000000000000000000000 DUP2 MSTORE PUSH1 0x4 ADD PUSH2 0x46E SWAP1 PUSH2 0x1972 JUMP JUMPDEST PUSH1 0x40 MLOAD DUP1 SWAP2 SUB SWAP1 REVERT JUMPDEST PUSH1 0x2 PUSH1 0x3 DUP2 GT ISZERO PUSH2 0x48B JUMPI PUSH2 0x48A PUSH2 0x1D19 JUMP JUMPDEST JUMPDEST PUSH1 0x0 DUP1 DUP7 DUP2 MSTORE PUSH1 0x20 ADD SWAP1 DUP2 MSTORE PUSH1 0x20 ADD PUSH1 0x0 KECCAK256 PUSH1 0x0 DUP6 DUP2 MSTORE PUSH1 0x20 ADD SWAP1 DUP2 MSTORE PUSH1 0x20 ADD PUSH1 0x0 KECCAK256 PUSH1 0x0 DUP5 DUP2 MSTORE PUSH1 0x20 ADD SWAP1 DUP2 MSTORE PUSH1 0x20 ADD PUSH1 0x0 KECCAK256 PUSH1 0x6 ADD PUSH1 0x14 SWAP1 SLOAD SWAP1 PUSH2 0x100 EXP SWAP1 DIV PUSH1 0xFF AND PUSH1 0x3 DUP2 GT ISZERO PUSH2 0x4E2 JUMPI PUSH2 0x4E1 PUSH2 0x1D19 JUMP JUMPDEST JUMPDEST EQ PUSH2 0x522 JUMPI PUSH1 0x40 MLOAD PUSH32 0x8C379A000000000000000000000000000000000000000000000000000000000 DUP2 MSTORE PUSH1 0x4 ADD PUSH2 0x519 SWAP1 PUSH2 0x1952 JUMP JUMPDEST PUSH1 0x40 MLOAD DUP1 SWAP2 SUB SWAP1 REVERT JUMPDEST PUSH1 0x0 DUP1 DUP6 DUP2 MSTORE PUSH1 0x20 ADD SWAP1 DUP2 MSTORE PUSH1 0x20 ADD PUSH1 0x0 KECCAK256 PUSH1 0x0 DUP5 DUP2 MSTORE PUSH1 0x20 ADD SWAP1 DUP2 MSTORE PUSH1 0x20 ADD PUSH1 0x0 KECCAK256 PUSH1 0x0 DUP4 DUP2 MSTORE PUSH1 0x20 ADD SWAP1 DUP2 MSTORE PUSH1 0x20 ADD PUSH1 0x0 KECCAK256 PUSH1 0xB ADD PUSH1 0x1 SWAP1 SLOAD SWAP1 PUSH2 0x100 EXP SWAP1 DIV PUSH1 0xFF AND PUSH1 0xFF AND SWAP1 POP SWAP4 SWAP3 POP POP POP JUMP JUMPDEST PUSH1 0x0 DUP1 PUSH1 0x0 DUP6 DUP2 MSTORE PUSH1 0x20 ADD SWAP1 DUP2 MSTORE PUSH1 0x20 ADD PUSH1 0x0 KECCAK256 PUSH1 0x0 DUP5 DUP2 MSTORE PUSH1 0x20 ADD SWAP1 DUP2 MSTORE PUSH1 0x20 ADD PUSH1 0x0 KECCAK256 PUSH1 0x0 DUP4 DUP2 MSTORE PUSH1 0x20 ADD SWAP1 DUP2 MSTORE PUSH1 0x20 ADD PUSH1 0x0 KECCAK256 PUSH1 0x8 ADD SLOAD SWAP1 POP SWAP4 SWAP3 POP POP POP JUMP JUMPDEST PUSH1 0x0 DUP1 PUSH1 0x0 DUP6 DUP2 MSTORE PUSH1 0x20 ADD SWAP1 DUP2 MSTORE PUSH1 0x20 ADD PUSH1 0x0 KECCAK256 PUSH1 0x0 DUP5 DUP2 MSTORE PUSH1 0x20 ADD SWAP1 DUP2 MSTORE PUSH1 0x20 ADD PUSH1 0x0 KECCAK256 PUSH1 0x0 DUP4 DUP2 MSTORE PUSH1 0x20 ADD SWAP1 DUP2 MSTORE PUSH1 0x20 ADD PUSH1 0x0 KECCAK256 PUSH1 0xB ADD PUSH1 0x0 SWAP1 SLOAD SWAP1 PUSH2 0x100 EXP SWAP1 DIV PUSH1 0xFF AND SWAP1 POP SWAP4 SWAP3 POP POP POP JUMP JUMPDEST DUP6 DUP6 DUP6 PUSH1 0x0 DUP1 PUSH1 0x3 DUP2 GT ISZERO PUSH2 0x61E JUMPI PUSH2 0x61D PUSH2 0x1D19 JUMP JUMPDEST JUMPDEST PUSH1 0x0 DUP1 DUP7 DUP2 MSTORE PUSH1 0x20 ADD SWAP1 DUP2 MSTORE PUSH1 0x20 ADD PUSH1 0x0 KECCAK256 PUSH1 0x0 DUP6 DUP2 MSTORE PUSH1 0x20 ADD SWAP1 DUP2 MSTORE PUSH1 0x20 ADD PUSH1 0x0 KECCAK256 PUSH1 0x0 DUP5 DUP2 MSTORE PUSH1 0x20 ADD SWAP1 DUP2 MSTORE PUSH1 0x20 ADD PUSH1 0x0 KECCAK256 PUSH1 0x6 ADD PUSH1 0x14 SWAP1 SLOAD SWAP1 PUSH2 0x100 EXP SWAP1 DIV PUSH1 0xFF AND PUSH1 0x3 DUP2 GT ISZERO PUSH2 0x675 JUMPI PUSH2 0x674 PUSH2 0x1D19 JUMP JUMPDEST JUMPDEST EQ PUSH2 0x6B5 JUMPI PUSH1 0x40 MLOAD PUSH32 0x8C379A000000000000000000000000000000000000000000000000000000000 DUP2 MSTORE PUSH1 0x4 ADD PUSH2 0x6AC SWAP1 PUSH2 0x18D2 JUMP JUMPDEST PUSH1 0x40 MLOAD DUP1 SWAP2 SUB SWAP1 REVERT JUMPDEST DUP7 PUSH1 0x0 DUP2 MLOAD GT PUSH2 0x6FA JUMPI PUSH1 0x40 MLOAD PUSH32 0x8C379A000000000000000000000000000000000000000000000000000000000 DUP2 MSTORE PUSH1 0x4 ADD PUSH2 0x6F1 SWAP1 PUSH2 0x1992 JUMP JUMPDEST PUSH1 0x40 MLOAD DUP1 SWAP2 SUB SWAP1 REVERT JUMPDEST DUP7 PUSH1 0x0 DUP2 MLOAD GT PUSH2 0x73F JUMPI PUSH1 0x40 MLOAD PUSH32 0x8C379A000000000000000000000000000000000000000000000000000000000 DUP2 MSTORE PUSH1 0x4 ADD PUSH2 0x736 SWAP1 PUSH2 0x1992 JUMP JUMPDEST PUSH1 0x40 MLOAD DUP1 SWAP2 SUB SWAP1 REVERT JUMPDEST DUP9 PUSH1 0x0 DUP1 DUP15 DUP2 MSTORE PUSH1 0x20 ADD SWAP1 DUP2 MSTORE PUSH1 0x20 ADD PUSH1 0x0 KECCAK256 PUSH1 0x0 DUP14 DUP2 MSTORE PUSH1 0x20 ADD SWAP1 DUP2 MSTORE PUSH1 0x20 ADD PUSH1 0x0 KECCAK256 PUSH1 0x0 DUP13 DUP2 MSTORE PUSH1 0x20 ADD SWAP1 DUP2 MSTORE PUSH1 0x20 ADD PUSH1 0x0 KECCAK256 PUSH1 0x3 ADD SWAP1 DUP1 MLOAD SWAP1 PUSH1 0x20 ADD SWAP1 PUSH2 0x78A SWAP3 SWAP2 SWAP1 PUSH2 0x1299 JUMP JUMPDEST POP DUP8 PUSH1 0x0 DUP1 DUP15 DUP2 MSTORE PUSH1 0x20 ADD SWAP1 DUP2 MSTORE PUSH1 0x20 ADD PUSH1 0x0 KECCAK256 PUSH1 0x0 DUP14 DUP2 MSTORE PUSH1 0x20 ADD SWAP1 DUP2 MSTORE PUSH1 0x20 ADD PUSH1 0x0 KECCAK256 PUSH1 0x0 DUP13 DUP2 MSTORE PUSH1 0x20 ADD SWAP1 DUP2 MSTORE PUSH1 0x20 ADD PUSH1 0x0 KECCAK256 PUSH1 0x4 ADD SWAP1 DUP1 MLOAD SWAP1 PUSH1 0x20 ADD SWAP1 PUSH2 0x7D6 SWAP3 SWAP2 SWAP1 PUSH2 0x1299 JUMP JUMPDEST POP POP POP POP POP POP POP POP POP POP POP POP POP JUMP JUMPDEST PUSH1 0x0 DUP1 PUSH1 0x0 DUP6 DUP2 MSTORE PUSH1 0x20 ADD SWAP1 DUP2 MSTORE PUSH1 0x20 ADD PUSH1 0x0 KECCAK256 PUSH1 0x0 DUP5 DUP2 MSTORE PUSH1 0x20 ADD SWAP1 DUP2 MSTORE PUSH1 0x20 ADD PUSH1 0x0 KECCAK256 PUSH1 0x0 DUP4 DUP2 MSTORE PUSH1 0x20 ADD SWAP1 DUP2 MSTORE PUSH1 0x20 ADD PUSH1 0x0 KECCAK256 PUSH1 0xA ADD SLOAD SWAP1 POP SWAP4 SWAP3 POP POP POP JUMP JUMPDEST DUP3 DUP3 DUP3 PUSH1 0x1 ISZERO ISZERO PUSH2 0x83A DUP5 DUP5 DUP5 PUSH2 0x5B6 JUMP JUMPDEST ISZERO ISZERO EQ PUSH2 0x87C JUMPI PUSH1 0x40 MLOAD PUSH32 0x8C379A000000000000000000000000000000000000000000000000000000000 DUP2 MSTORE PUSH1 0x4 ADD PUSH2 0x873 SWAP1 PUSH2 0x18F2 JUMP JUMPDEST PUSH1 0x40 MLOAD DUP1 SWAP2 SUB SWAP1 REVERT JUMPDEST DUP6 DUP6 DUP6 PUSH1 0x0 DUP1 PUSH1 0x3 DUP2 GT ISZERO PUSH2 0x894 JUMPI PUSH2 0x893 PUSH2 0x1D19 JUMP JUMPDEST JUMPDEST PUSH1 0x0 DUP1 DUP7 DUP2 MSTORE PUSH1 0x20 ADD SWAP1 DUP2 MSTORE PUSH1 0x20 ADD PUSH1 0x0 KECCAK256 PUSH1 0x0 DUP6 DUP2 MSTORE PUSH1 0x20 ADD SWAP1 DUP2 MSTORE PUSH1 0x20 ADD PUSH1 0x0 KECCAK256 PUSH1 0x0 DUP5 DUP2 MSTORE PUSH1 0x20 ADD SWAP1 DUP2 MSTORE PUSH1 0x20 ADD PUSH1 0x0 KECCAK256 PUSH1 0x6 ADD PUSH1 0x14 SWAP1 SLOAD SWAP1 PUSH2 0x100 EXP SWAP1 DIV PUSH1 0xFF AND PUSH1 0x3 DUP2 GT ISZERO PUSH2 0x8EB JUMPI PUSH2 0x8EA PUSH2 0x1D19 JUMP JUMPDEST JUMPDEST EQ PUSH2 0x92B JUMPI PUSH1 0x40 MLOAD PUSH32 0x8C379A000000000000000000000000000000000000000000000000000000000 DUP2 MSTORE PUSH1 0x4 ADD PUSH2 0x922 SWAP1 PUSH2 0x18D2 JUMP JUMPDEST PUSH1 0x40 MLOAD DUP1 SWAP2 SUB SWAP1 REVERT JUMPDEST PUSH2 0x938 DUP11 DUP11 DUP11 PUSH1 0x1 PUSH2 0x1234 JUMP JUMPDEST POP POP POP POP POP POP POP POP POP POP JUMP JUMPDEST DUP5 DUP5 DUP5 PUSH1 0x1 ISZERO ISZERO PUSH2 0x956 DUP5 DUP5 DUP5 PUSH2 0x5B6 JUMP JUMPDEST ISZERO ISZERO EQ PUSH2 0x998 JUMPI PUSH1 0x40 MLOAD PUSH32 0x8C379A000000000000000000000000000000000000000000000000000000000 DUP2 MSTORE PUSH1 0x4 ADD PUSH2 0x98F SWAP1 PUSH2 0x18F2 JUMP JUMPDEST PUSH1 0x40 MLOAD DUP1 SWAP2 SUB SWAP1 REVERT JUMPDEST DUP8 DUP8 DUP8 PUSH1 0x1 DUP1 PUSH1 0x3 DUP2 GT ISZERO PUSH2 0x9B0 JUMPI PUSH2 0x9AF PUSH2 0x1D19 JUMP JUMPDEST JUMPDEST PUSH1 0x0 DUP1 DUP7 DUP2 MSTORE PUSH1 0x20 ADD SWAP1 DUP2 MSTORE PUSH1 0x20 ADD PUSH1 0x0 KECCAK256 PUSH1 0x0 DUP6 DUP2 MSTORE PUSH1 0x20 ADD SWAP1 DUP2 MSTORE PUSH1 0x20 ADD PUSH1 0x0 KECCAK256 PUSH1 0x0 DUP5 DUP2 MSTORE PUSH1 0x20 ADD SWAP1 DUP2 MSTORE PUSH1 0x20 ADD PUSH1 0x0 KECCAK256 PUSH1 0x6 ADD PUSH1 0x14 SWAP1 SLOAD SWAP1 PUSH2 0x100 EXP SWAP1 DIV PUSH1 0xFF AND PUSH1 0x3 DUP2 GT ISZERO PUSH2 0xA07 JUMPI PUSH2 0xA06 PUSH2 0x1D19 JUMP JUMPDEST JUMPDEST EQ PUSH2 0xA47 JUMPI PUSH1 0x40 MLOAD PUSH32 0x8C379A000000000000000000000000000000000000000000000000000000000 DUP2 MSTORE PUSH1 0x4 ADD PUSH2 0xA3E SWAP1 PUSH2 0x18D2 JUMP JUMPDEST PUSH1 0x40 MLOAD DUP1 SWAP2 SUB SWAP1 REVERT JUMPDEST PUSH1 0x0 DUP1 PUSH1 0x0 DUP15 DUP2 MSTORE PUSH1 0x20 ADD SWAP1 DUP2 MSTORE PUSH1 0x20 ADD PUSH1 0x0 KECCAK256 PUSH1 0x0 DUP14 DUP2 MSTORE PUSH1 0x20 ADD SWAP1 DUP2 MSTORE PUSH1 0x20 ADD PUSH1 0x0 KECCAK256 PUSH1 0x0 DUP13 DUP2 MSTORE PUSH1 0x20 ADD SWAP1 DUP2 MSTORE PUSH1 0x20 ADD PUSH1 0x0 KECCAK256 SWAP1 POP DUP10 PUSH20 0xFFFFFFFFFFFFFFFFFFFFFFFFFFFFFFFFFFFFFFFF AND DUP2 PUSH1 0x5 ADD PUSH1 0x0 SWAP1 SLOAD SWAP1 PUSH2 0x100 EXP SWAP1 DIV PUSH20 0xFFFFFFFFFFFFFFFFFFFFFFFFFFFFFFFFFFFFFFFF AND PUSH20 0xFFFFFFFFFFFFFFFFFFFFFFFFFFFFFFFFFFFFFFFF AND EQ ISZERO PUSH2 0xB12 JUMPI PUSH1 0x40 MLOAD PUSH32 0x8C379A000000000000000000000000000000000000000000000000000000000 DUP2 MSTORE PUSH1 0x4 ADD PUSH2 0xB09 SWAP1 PUSH2 0x1912 JUMP JUMPDEST PUSH1 0x40 MLOAD DUP1 SWAP2 SUB SWAP1 REVERT JUMPDEST DUP10 PUSH20 0xFFFFFFFFFFFFFFFFFFFFFFFFFFFFFFFFFFFFFFFF AND DUP2 PUSH1 0x6 ADD PUSH1 0x0 SWAP1 SLOAD SWAP1 PUSH2 0x100 EXP SWAP1 DIV PUSH20 0xFFFFFFFFFFFFFFFFFFFFFFFFFFFFFFFFFFFFFFFF AND PUSH20 0xFFFFFFFFFFFFFFFFFFFFFFFFFFFFFFFFFFFFFFFF AND EQ ISZERO PUSH2 0xBA5 JUMPI PUSH1 0x40 MLOAD PUSH32 0x8C379A000000000000000000000000000000000000000000000000000000000 DUP2 MSTORE PUSH1 0x4 ADD PUSH2 0xB9C SWAP1 PUSH2 0x19B2 JUMP JUMPDEST PUSH1 0x40 MLOAD DUP1 SWAP2 SUB SWAP1 REVERT JUMPDEST DUP1 PUSH1 0x7 ADD SLOAD DUP2 PUSH1 0x8 ADD SLOAD LT PUSH2 0xBEF JUMPI PUSH1 0x40 MLOAD PUSH32 0x8C379A000000000000000000000000000000000000000000000000000000000 DUP2 MSTORE PUSH1 0x4 ADD PUSH2 0xBE6 SWAP1 PUSH2 0x19D2 JUMP JUMPDEST PUSH1 0x40 MLOAD DUP1 SWAP2 SUB SWAP1 REVERT JUMPDEST PUSH1 0x0 DUP2 PUSH1 0xC ADD PUSH1 0x0 DUP13 PUSH20 0xFFFFFFFFFFFFFFFFFFFFFFFFFFFFFFFFFFFFFFFF AND PUSH20 0xFFFFFFFFFFFFFFFFFFFFFFFFFFFFFFFFFFFFFFFF AND DUP2 MSTORE PUSH1 0x20 ADD SWAP1 DUP2 MSTORE PUSH1 0x20 ADD PUSH1 0x0 KECCAK256 PUSH1 0x0 SWAP1 SLOAD SWAP1 PUSH2 0x100 EXP SWAP1 DIV PUSH1 0xFF AND PUSH1 0xFF AND EQ PUSH2 0xC83 JUMPI PUSH1 0x40 MLOAD PUSH32 0x8C379A000000000000000000000000000000000000000000000000000000000 DUP2 MSTORE PUSH1 0x4 ADD PUSH2 0xC7A SWAP1 PUSH2 0x18B2 JUMP JUMPDEST PUSH1 0x40 MLOAD DUP1 SWAP2 SUB SWAP1 REVERT JUMPDEST PUSH1 0x1 DUP10 PUSH1 0xFF AND EQ DUP1 PUSH2 0xC98 JUMPI POP PUSH1 0x2 DUP10 PUSH1 0xFF AND EQ JUMPDEST PUSH2 0xCD7 JUMPI PUSH1 0x40 MLOAD PUSH32 0x8C379A000000000000000000000000000000000000000000000000000000000 DUP2 MSTORE PUSH1 0x4 ADD PUSH2 0xCCE SWAP1 PUSH2 0x1892 JUMP JUMPDEST PUSH1 0x40 MLOAD DUP1 SWAP2 SUB SWAP1 REVERT JUMPDEST PUSH1 0x0 DUP1 PUSH1 0x0 DUP16 DUP2 MSTORE PUSH1 0x20 ADD SWAP1 DUP2 MSTORE PUSH1 0x20 ADD PUSH1 0x0 KECCAK256 PUSH1 0x0 DUP15 DUP2 MSTORE PUSH1 0x20 ADD SWAP1 DUP2 MSTORE PUSH1 0x20 ADD PUSH1 0x0 KECCAK256 PUSH1 0x0 DUP14 DUP2 MSTORE PUSH1 0x20 ADD SWAP1 DUP2 MSTORE PUSH1 0x20 ADD PUSH1 0x0 KECCAK256 SWAP1 POP DUP10 DUP2 PUSH1 0xC ADD PUSH1 0x0 DUP14 PUSH20 0xFFFFFFFFFFFFFFFFFFFFFFFFFFFFFFFFFFFFFFFF AND PUSH20 0xFFFFFFFFFFFFFFFFFFFFFFFFFFFFFFFFFFFFFFFF AND DUP2 MSTORE PUSH1 0x20 ADD SWAP1 DUP2 MSTORE PUSH1 0x20 ADD PUSH1 0x0 KECCAK256 PUSH1 0x0 PUSH2 0x100 EXP DUP2 SLOAD DUP2 PUSH1 0xFF MUL NOT AND SWAP1 DUP4 PUSH1 0xFF AND MUL OR SWAP1 SSTORE POP PUSH1 0x1 DUP11 PUSH1 0xFF AND EQ ISZERO PUSH2 0xD90 JUMPI DUP1 PUSH1 0x9 ADD PUSH1 0x0 DUP2 SLOAD DUP1 SWAP3 SWAP2 SWAP1 PUSH2 0xD8A SWAP1 PUSH2 0x1CA1 JUMP JUMPDEST SWAP2 SWAP1 POP SSTORE POP JUMPDEST PUSH1 0x2 DUP11 PUSH1 0xFF AND EQ ISZERO PUSH2 0xDB7 JUMPI DUP1 PUSH1 0xA ADD PUSH1 0x0 DUP2 SLOAD DUP1 SWAP3 SWAP2 SWAP1 PUSH2 0xDB1 SWAP1 PUSH2 0x1CA1 JUMP JUMPDEST SWAP2 SWAP1 POP SSTORE POP JUMPDEST DUP1 PUSH1 0x8 ADD PUSH1 0x0 DUP2 SLOAD DUP1 SWAP3 SWAP2 SWAP1 PUSH2 0xDCC SWAP1 PUSH2 0x1CA1 JUMP JUMPDEST SWAP2 SWAP1 POP SSTORE POP PUSH32 0x20211B974ADBE11CE3687D51504CE7EF1FCFBB9C00405BA7ACA7B283903F345A DUP15 DUP15 DUP15 CALLER DUP15 PUSH1 0x40 MLOAD PUSH2 0xE08 SWAP6 SWAP5 SWAP4 SWAP3 SWAP2 SWAP1 PUSH2 0x1A6E JUMP JUMPDEST PUSH1 0x40 MLOAD DUP1 SWAP2 SUB SWAP1 LOG1 DUP1 PUSH1 0x7 ADD SLOAD DUP2 PUSH1 0x8 ADD SLOAD EQ ISZERO PUSH2 0xECE JUMPI DUP1 PUSH1 0x9 ADD SLOAD DUP2 PUSH1 0xA ADD SLOAD GT ISZERO PUSH2 0xE53 JUMPI PUSH1 0x2 DUP2 PUSH1 0xB ADD PUSH1 0x1 PUSH2 0x100 EXP DUP2 SLOAD DUP2 PUSH1 0xFF MUL NOT AND SWAP1 DUP4 PUSH1 0xFF AND MUL OR SWAP1 SSTORE POP PUSH2 0xE72 JUMP JUMPDEST PUSH1 0x1 DUP2 PUSH1 0xB ADD PUSH1 0x1 PUSH2 0x100 EXP DUP2 SLOAD DUP2 PUSH1 0xFF MUL NOT AND SWAP1 DUP4 PUSH1 0xFF AND MUL OR SWAP1 SSTORE POP JUMPDEST PUSH2 0xE7F DUP15 DUP15 DUP15 PUSH1 0x2 PUSH2 0x1234 JUMP JUMPDEST PUSH32 0xE59FDBC65A5DD63C529717C2A71D04B136038F05301755DE242DD05990C02814 DUP15 DUP15 DUP15 DUP5 PUSH1 0xB ADD PUSH1 0x1 SWAP1 SLOAD SWAP1 PUSH2 0x100 EXP SWAP1 DIV PUSH1 0xFF AND PUSH1 0x40 MLOAD PUSH2 0xEC5 SWAP5 SWAP4 SWAP3 SWAP2 SWAP1 PUSH2 0x1AC1 JUMP JUMPDEST PUSH1 0x40 MLOAD DUP1 SWAP2 SUB SWAP1 LOG1 JUMPDEST POP POP POP POP POP POP POP POP POP POP POP POP POP POP JUMP JUMPDEST PUSH1 0x0 DUP1 PUSH1 0x0 DUP6 DUP2 MSTORE PUSH1 0x20 ADD SWAP1 DUP2 MSTORE PUSH1 0x20 ADD PUSH1 0x0 KECCAK256 PUSH1 0x0 DUP5 DUP2 MSTORE PUSH1 0x20 ADD SWAP1 DUP2 MSTORE PUSH1 0x20 ADD PUSH1 0x0 KECCAK256 PUSH1 0x0 DUP4 DUP2 MSTORE PUSH1 0x20 ADD SWAP1 DUP2 MSTORE PUSH1 0x20 ADD PUSH1 0x0 KECCAK256 PUSH1 0x6 ADD PUSH1 0x14 SWAP1 SLOAD SWAP1 PUSH2 0x100 EXP SWAP1 DIV PUSH1 0xFF AND SWAP1 POP SWAP4 SWAP3 POP POP POP JUMP JUMPDEST PUSH1 0x0 DUP1 PUSH1 0x0 DUP6 DUP2 MSTORE PUSH1 0x20 ADD SWAP1 DUP2 MSTORE PUSH1 0x20 ADD PUSH1 0x0 KECCAK256 PUSH1 0x0 DUP5 DUP2 MSTORE PUSH1 0x20 ADD SWAP1 DUP2 MSTORE PUSH1 0x20 ADD PUSH1 0x0 KECCAK256 PUSH1 0x0 DUP4 DUP2 MSTORE PUSH1 0x20 ADD SWAP1 DUP2 MSTORE PUSH1 0x20 ADD PUSH1 0x0 KECCAK256 PUSH1 0x9 ADD SLOAD SWAP1 POP SWAP4 SWAP3 POP POP POP JUMP JUMPDEST DUP5 PUSH1 0x0 DUP2 MLOAD GT PUSH2 0xFB6 JUMPI PUSH1 0x40 MLOAD PUSH32 0x8C379A000000000000000000000000000000000000000000000000000000000 DUP2 MSTORE PUSH1 0x4 ADD PUSH2 0xFAD SWAP1 PUSH2 0x1992 JUMP JUMPDEST PUSH1 0x40 MLOAD DUP1 SWAP2 SUB SWAP1 REVERT JUMPDEST DUP5 PUSH1 0x0 DUP2 MLOAD GT PUSH2 0xFFB JUMPI PUSH1 0x40 MLOAD PUSH32 0x8C379A000000000000000000000000000000000000000000000000000000000 DUP2 MSTORE PUSH1 0x4 ADD PUSH2 0xFF2 SWAP1 PUSH2 0x1992 JUMP JUMPDEST PUSH1 0x40 MLOAD DUP1 SWAP2 SUB SWAP1 REVERT JUMPDEST PUSH1 0x0 ISZERO ISZERO PUSH2 0x100A DUP12 DUP12 DUP12 PUSH2 0x5B6 JUMP JUMPDEST ISZERO ISZERO EQ PUSH2 0x104C JUMPI PUSH1 0x40 MLOAD PUSH32 0x8C379A000000000000000000000000000000000000000000000000000000000 DUP2 MSTORE PUSH1 0x4 ADD PUSH2 0x1043 SWAP1 PUSH2 0x1932 JUMP JUMPDEST PUSH1 0x40 MLOAD DUP1 SWAP2 SUB SWAP1 REVERT JUMPDEST PUSH1 0x0 DUP1 PUSH1 0x0 DUP13 DUP2 MSTORE PUSH1 0x20 ADD SWAP1 DUP2 MSTORE PUSH1 0x20 ADD PUSH1 0x0 KECCAK256 PUSH1 0x0 DUP12 DUP2 MSTORE PUSH1 0x20 ADD SWAP1 DUP2 MSTORE PUSH1 0x20 ADD PUSH1 0x0 KECCAK256 PUSH1 0x0 DUP11 DUP2 MSTORE PUSH1 0x20 ADD SWAP1 DUP2 MSTORE PUSH1 0x20 ADD PUSH1 0x0 KECCAK256 SWAP1 POP DUP11 DUP2 PUSH1 0x0 ADD DUP2 SWAP1 SSTORE POP DUP10 DUP2 PUSH1 0x1 ADD DUP2 SWAP1 SSTORE POP DUP9 DUP2 PUSH1 0x2 ADD DUP2 SWAP1 SSTORE POP DUP8 DUP2 PUSH1 0x3 ADD SWAP1 DUP1 MLOAD SWAP1 PUSH1 0x20 ADD SWAP1 PUSH2 0x10B7 SWAP3 SWAP2 SWAP1 PUSH2 0x1299 JUMP JUMPDEST POP DUP7 DUP2 PUSH1 0x4 ADD SWAP1 DUP1 MLOAD SWAP1 PUSH1 0x20 ADD SWAP1 PUSH2 0x10D0 SWAP3 SWAP2 SWAP1 PUSH2 0x1299 JUMP JUMPDEST POP DUP6 DUP2 PUSH1 0x5 ADD PUSH1 0x0 PUSH2 0x100 EXP DUP2 SLOAD DUP2 PUSH20 0xFFFFFFFFFFFFFFFFFFFFFFFFFFFFFFFFFFFFFFFF MUL NOT AND SWAP1 DUP4 PUSH20 0xFFFFFFFFFFFFFFFFFFFFFFFFFFFFFFFFFFFFFFFF AND MUL OR SWAP1 SSTORE POP DUP5 DUP2 PUSH1 0x6 ADD PUSH1 0x0 PUSH2 0x100 EXP DUP2 SLOAD DUP2 PUSH20 0xFFFFFFFFFFFFFFFFFFFFFFFFFFFFFFFFFFFFFFFF MUL NOT AND SWAP1 DUP4 PUSH20 0xFFFFFFFFFFFFFFFFFFFFFFFFFFFFFFFFFFFFFFFF AND MUL OR SWAP1 SSTORE POP PUSH1 0x0 DUP2 PUSH1 0x6 ADD PUSH1 0x14 PUSH2 0x100 EXP DUP2 SLOAD DUP2 PUSH1 0xFF MUL NOT AND SWAP1 DUP4 PUSH1 0x3 DUP2 GT ISZERO PUSH2 0x117F JUMPI PUSH2 0x117E PUSH2 0x1D19 JUMP JUMPDEST JUMPDEST MUL OR SWAP1 SSTORE POP DUP4 DUP2 PUSH1 0x7 ADD DUP2 SWAP1 SSTORE POP PUSH1 0x0 DUP2 PUSH1 0x8 ADD DUP2 SWAP1 SSTORE POP PUSH1 0x0 DUP2 PUSH1 0x9 ADD DUP2 SWAP1 SSTORE POP PUSH1 0x0 DUP2 PUSH1 0xA ADD DUP2 SWAP1 SSTORE POP PUSH1 0x1 DUP2 PUSH1 0xB ADD PUSH1 0x0 PUSH2 0x100 EXP DUP2 SLOAD DUP2 PUSH1 0xFF MUL NOT AND SWAP1 DUP4 ISZERO ISZERO MUL OR SWAP1 SSTORE POP PUSH1 0x0 DUP2 PUSH1 0xB ADD PUSH1 0x1 PUSH2 0x100 EXP DUP2 SLOAD DUP2 PUSH1 0xFF MUL NOT AND SWAP1 DUP4 PUSH1 0xFF AND MUL OR SWAP1 SSTORE POP PUSH32 0xFA127411522A1139D16C2142DB999E127AEF2288BD98A0558006BB115666AB1B DUP12 DUP12 DUP12 DUP10 DUP10 DUP10 PUSH1 0x40 MLOAD PUSH2 0x121F SWAP7 SWAP6 SWAP5 SWAP4 SWAP3 SWAP2 SWAP1 PUSH2 0x1A0D JUMP JUMPDEST PUSH1 0x40 MLOAD DUP1 SWAP2 SUB SWAP1 LOG1 POP POP POP POP POP POP POP POP POP POP POP JUMP JUMPDEST DUP1 PUSH1 0x0 DUP1 DUP7 DUP2 MSTORE PUSH1 0x20 ADD SWAP1 DUP2 MSTORE PUSH1 0x20 ADD PUSH1 0x0 KECCAK256 PUSH1 0x0 DUP6 DUP2 MSTORE PUSH1 0x20 ADD SWAP1 DUP2 MSTORE PUSH1 0x20 ADD PUSH1 0x0 KECCAK256 PUSH1 0x0 DUP5 DUP2 MSTORE PUSH1 0x20 ADD SWAP1 DUP2 MSTORE PUSH1 0x20 ADD PUSH1 0x0 KECCAK256 PUSH1 0x6 ADD PUSH1 0x14 PUSH2 0x100 EXP DUP2 SLOAD DUP2 PUSH1 0xFF MUL NOT AND SWAP1 DUP4 PUSH1 0x3 DUP2 GT ISZERO PUSH2 0x128E JUMPI PUSH2 0x128D PUSH2 0x1D19 JUMP JUMPDEST JUMPDEST MUL OR SWAP1 SSTORE POP POP POP POP POP JUMP JUMPDEST DUP3 DUP1 SLOAD PUSH2 0x12A5 SWAP1 PUSH2 0x1C3E JUMP JUMPDEST SWAP1 PUSH1 0x0 MSTORE PUSH1 0x20 PUSH1 0x0 KECCAK256 SWAP1 PUSH1 0x1F ADD PUSH1 0x20 SWAP1 DIV DUP2 ADD SWAP3 DUP3 PUSH2 0x12C7 JUMPI PUSH1 0x0 DUP6 SSTORE PUSH2 0x130E JUMP JUMPDEST DUP3 PUSH1 0x1F LT PUSH2 0x12E0 JUMPI DUP1 MLOAD PUSH1 0xFF NOT AND DUP4 DUP1 ADD OR DUP6 SSTORE PUSH2 0x130E JUMP JUMPDEST DUP3 DUP1 ADD PUSH1 0x1 ADD DUP6 SSTORE DUP3 ISZERO PUSH2 0x130E JUMPI SWAP2 DUP3 ADD JUMPDEST DUP3 DUP2 GT ISZERO PUSH2 0x130D JUMPI DUP3 MLOAD DUP3 SSTORE SWAP2 PUSH1 0x20 ADD SWAP2 SWAP1 PUSH1 0x1 ADD SWAP1 PUSH2 0x12F2 JUMP JUMPDEST JUMPDEST POP SWAP1 POP PUSH2 0x131B SWAP2 SWAP1 PUSH2 0x131F JUMP JUMPDEST POP SWAP1 JUMP JUMPDEST JUMPDEST DUP1 DUP3 GT ISZERO PUSH2 0x1338 JUMPI PUSH1 0x0 DUP2 PUSH1 0x0 SWAP1 SSTORE POP PUSH1 0x1 ADD PUSH2 0x1320 JUMP JUMPDEST POP SWAP1 JUMP JUMPDEST PUSH1 0x0 PUSH2 0x134F PUSH2 0x134A DUP5 PUSH2 0x1B2B JUMP JUMPDEST PUSH2 0x1B06 JUMP JUMPDEST SWAP1 POP DUP3 DUP2 MSTORE PUSH1 0x20 DUP2 ADD DUP5 DUP5 DUP5 ADD GT ISZERO PUSH2 0x136B JUMPI PUSH2 0x136A PUSH2 0x1DAB JUMP JUMPDEST JUMPDEST PUSH2 0x1376 DUP5 DUP3 DUP6 PUSH2 0x1C2F JUMP JUMPDEST POP SWAP4 SWAP3 POP POP POP JUMP JUMPDEST PUSH1 0x0 DUP2 CALLDATALOAD SWAP1 POP PUSH2 0x138D DUP2 PUSH2 0x20F8 JUMP JUMPDEST SWAP3 SWAP2 POP POP JUMP JUMPDEST PUSH1 0x0 DUP2 CALLDATALOAD SWAP1 POP PUSH2 0x13A2 DUP2 PUSH2 0x210F JUMP JUMPDEST SWAP3 SWAP2 POP POP JUMP JUMPDEST PUSH1 0x0 DUP3 PUSH1 0x1F DUP4 ADD SLT PUSH2 0x13BD JUMPI PUSH2 0x13BC PUSH2 0x1DA6 JUMP JUMPDEST JUMPDEST DUP2 CALLDATALOAD PUSH2 0x13CD DUP5 DUP3 PUSH1 0x20 DUP7 ADD PUSH2 0x133C JUMP JUMPDEST SWAP2 POP POP SWAP3 SWAP2 POP POP JUMP JUMPDEST PUSH1 0x0 DUP2 CALLDATALOAD SWAP1 POP PUSH2 0x13E5 DUP2 PUSH2 0x2126 JUMP JUMPDEST SWAP3 SWAP2 POP POP JUMP JUMPDEST PUSH1 0x0 DUP2 CALLDATALOAD SWAP1 POP PUSH2 0x13FA DUP2 PUSH2 0x213D JUMP JUMPDEST SWAP3 SWAP2 POP POP JUMP JUMPDEST PUSH1 0x0 DUP1 PUSH1 0x0 PUSH1 0x60 DUP5 DUP7 SUB SLT ISZERO PUSH2 0x1419 JUMPI PUSH2 0x1418 PUSH2 0x1DB5 JUMP JUMPDEST JUMPDEST PUSH1 0x0 PUSH2 0x1427 DUP7 DUP3 DUP8 ADD PUSH2 0x13D6 JUMP JUMPDEST SWAP4 POP POP PUSH1 0x20 PUSH2 0x1438 DUP7 DUP3 DUP8 ADD PUSH2 0x13D6 JUMP JUMPDEST SWAP3 POP POP PUSH1 0x40 PUSH2 0x1449 DUP7 DUP3 DUP8 ADD PUSH2 0x13D6 JUMP JUMPDEST SWAP2 POP POP SWAP3 POP SWAP3 POP SWAP3 JUMP JUMPDEST PUSH1 0x0 DUP1 PUSH1 0x0 DUP1 PUSH1 0x0 PUSH1 0xA0 DUP7 DUP9 SUB SLT ISZERO PUSH2 0x146F JUMPI PUSH2 0x146E PUSH2 0x1DB5 JUMP JUMPDEST JUMPDEST PUSH1 0x0 PUSH2 0x147D DUP9 DUP3 DUP10 ADD PUSH2 0x13D6 JUMP JUMPDEST SWAP6 POP POP PUSH1 0x20 PUSH2 0x148E DUP9 DUP3 DUP10 ADD PUSH2 0x13D6 JUMP JUMPDEST SWAP5 POP POP PUSH1 0x40 PUSH2 0x149F DUP9 DUP3 DUP10 ADD PUSH2 0x13D6 JUMP JUMPDEST SWAP4 POP POP PUSH1 0x60 PUSH2 0x14B0 DUP9 DUP3 DUP10 ADD PUSH2 0x137E JUMP JUMPDEST SWAP3 POP POP PUSH1 0x80 PUSH2 0x14C1 DUP9 DUP3 DUP10 ADD PUSH2 0x13EB JUMP JUMPDEST SWAP2 POP POP SWAP3 SWAP6 POP SWAP3 SWAP6 SWAP1 SWAP4 POP JUMP JUMPDEST PUSH1 0x0 DUP1 PUSH1 0x0 DUP1 PUSH1 0x0 DUP1 PUSH1 0xC0 DUP8 DUP10 SUB SLT ISZERO PUSH2 0x14EB JUMPI PUSH2 0x14EA PUSH2 0x1DB5 JUMP JUMPDEST JUMPDEST PUSH1 0x0 PUSH2 0x14F9 DUP10 DUP3 DUP11 ADD PUSH2 0x13D6 JUMP JUMPDEST SWAP7 POP POP PUSH1 0x20 PUSH2 0x150A DUP10 DUP3 DUP11 ADD PUSH2 0x13D6 JUMP JUMPDEST SWAP6 POP POP PUSH1 0x40 PUSH2 0x151B DUP10 DUP3 DUP11 ADD PUSH2 0x13D6 JUMP JUMPDEST SWAP5 POP POP PUSH1 0x60 DUP8 ADD CALLDATALOAD PUSH8 0xFFFFFFFFFFFFFFFF DUP2 GT ISZERO PUSH2 0x153C JUMPI PUSH2 0x153B PUSH2 0x1DB0 JUMP JUMPDEST JUMPDEST PUSH2 0x1548 DUP10 DUP3 DUP11 ADD PUSH2 0x13A8 JUMP JUMPDEST SWAP4 POP POP PUSH1 0x80 DUP8 ADD CALLDATALOAD PUSH8 0xFFFFFFFFFFFFFFFF DUP2 GT ISZERO PUSH2 0x1569 JUMPI PUSH2 0x1568 PUSH2 0x1DB0 JUMP JUMPDEST JUMPDEST PUSH2 0x1575 DUP10 DUP3 DUP11 ADD PUSH2 0x13A8 JUMP JUMPDEST SWAP3 POP POP PUSH1 0xA0 PUSH2 0x1586 DUP10 DUP3 DUP11 ADD PUSH2 0x1393 JUMP JUMPDEST SWAP2 POP POP SWAP3 SWAP6 POP SWAP3 SWAP6 POP SWAP3 SWAP6 JUMP JUMPDEST PUSH1 0x0 DUP1 PUSH1 0x0 DUP1 PUSH1 0x0 DUP1 PUSH1 0x0 DUP1 PUSH2 0x100 DUP10 DUP12 SUB SLT ISZERO PUSH2 0x15B4 JUMPI PUSH2 0x15B3 PUSH2 0x1DB5 JUMP JUMPDEST JUMPDEST PUSH1 0x0 PUSH2 0x15C2 DUP12 DUP3 DUP13 ADD PUSH2 0x13D6 JUMP JUMPDEST SWAP9 POP POP PUSH1 0x20 PUSH2 0x15D3 DUP12 DUP3 DUP13 ADD PUSH2 0x13D6 JUMP JUMPDEST SWAP8 POP POP PUSH1 0x40 PUSH2 0x15E4 DUP12 DUP3 DUP13 ADD PUSH2 0x13D6 JUMP JUMPDEST SWAP7 POP POP PUSH1 0x60 DUP10 ADD CALLDATALOAD PUSH8 0xFFFFFFFFFFFFFFFF DUP2 GT ISZERO PUSH2 0x1605 JUMPI PUSH2 0x1604 PUSH2 0x1DB0 JUMP JUMPDEST JUMPDEST PUSH2 0x1611 DUP12 DUP3 DUP13 ADD PUSH2 0x13A8 JUMP JUMPDEST SWAP6 POP POP PUSH1 0x80 DUP10 ADD CALLDATALOAD PUSH8 0xFFFFFFFFFFFFFFFF DUP2 GT ISZERO PUSH2 0x1632 JUMPI PUSH2 0x1631 PUSH2 0x1DB0 JUMP JUMPDEST JUMPDEST PUSH2 0x163E DUP12 DUP3 DUP13 ADD PUSH2 0x13A8 JUMP JUMPDEST SWAP5 POP POP PUSH1 0xA0 PUSH2 0x164F DUP12 DUP3 DUP13 ADD PUSH2 0x1393 JUMP JUMPDEST SWAP4 POP POP PUSH1 0xC0 PUSH2 0x1660 DUP12 DUP3 DUP13 ADD PUSH2 0x1393 JUMP JUMPDEST SWAP3 POP POP PUSH1 0xE0 PUSH2 0x1671 DUP12 DUP3 DUP13 ADD PUSH2 0x13D6 JUMP JUMPDEST SWAP2 POP POP SWAP3 SWAP6 SWAP9 POP SWAP3 SWAP6 SWAP9 SWAP1 SWAP4 SWAP7 POP JUMP JUMPDEST PUSH2 0x168A DUP2 PUSH2 0x1BE7 JUMP JUMPDEST DUP3 MSTORE POP POP JUMP JUMPDEST PUSH2 0x1699 DUP2 PUSH2 0x1B6D JUMP JUMPDEST DUP3 MSTORE POP POP JUMP JUMPDEST PUSH2 0x16A8 DUP2 PUSH2 0x1B91 JUMP JUMPDEST DUP3 MSTORE POP POP JUMP JUMPDEST PUSH2 0x16B7 DUP2 PUSH2 0x1BF9 JUMP JUMPDEST DUP3 MSTORE POP POP JUMP JUMPDEST PUSH1 0x0 PUSH2 0x16CA PUSH1 0x57 DUP4 PUSH2 0x1B5C JUMP JUMPDEST SWAP2 POP PUSH2 0x16D5 DUP3 PUSH2 0x1DCB JUMP JUMPDEST PUSH1 0x60 DUP3 ADD SWAP1 POP SWAP2 SWAP1 POP JUMP JUMPDEST PUSH1 0x0 PUSH2 0x16ED PUSH1 0x2D DUP4 PUSH2 0x1B5C JUMP JUMPDEST SWAP2 POP PUSH2 0x16F8 DUP3 PUSH2 0x1E40 JUMP JUMPDEST PUSH1 0x40 DUP3 ADD SWAP1 POP SWAP2 SWAP1 POP JUMP JUMPDEST PUSH1 0x0 PUSH2 0x1710 PUSH1 0x20 DUP4 PUSH2 0x1B5C JUMP JUMPDEST SWAP2 POP PUSH2 0x171B DUP3 PUSH2 0x1E8F JUMP JUMPDEST PUSH1 0x20 DUP3 ADD SWAP1 POP SWAP2 SWAP1 POP JUMP JUMPDEST PUSH1 0x0 PUSH2 0x1733 PUSH1 0x1D DUP4 PUSH2 0x1B5C JUMP JUMPDEST SWAP2 POP PUSH2 0x173E DUP3 PUSH2 0x1EB8 JUMP JUMPDEST PUSH1 0x20 DUP3 ADD SWAP1 POP SWAP2 SWAP1 POP JUMP JUMPDEST PUSH1 0x0 PUSH2 0x1756 PUSH1 0x30 DUP4 PUSH2 0x1B5C JUMP JUMPDEST SWAP2 POP PUSH2 0x1761 DUP3 PUSH2 0x1EE1 JUMP JUMPDEST PUSH1 0x40 DUP3 ADD SWAP1 POP SWAP2 SWAP1 POP JUMP JUMPDEST PUSH1 0x0 PUSH2 0x1779 PUSH1 0x40 DUP4 PUSH2 0x1B5C JUMP JUMPDEST SWAP2 POP PUSH2 0x1784 DUP3 PUSH2 0x1F30 JUMP JUMPDEST PUSH1 0x40 DUP3 ADD SWAP1 POP SWAP2 SWAP1 POP JUMP JUMPDEST PUSH1 0x0 PUSH2 0x179C PUSH1 0x3D DUP4 PUSH2 0x1B5C JUMP JUMPDEST SWAP2 POP PUSH2 0x17A7 DUP3 PUSH2 0x1F7F JUMP JUMPDEST PUSH1 0x40 DUP3 ADD SWAP1 POP SWAP2 SWAP1 POP JUMP JUMPDEST PUSH1 0x0 PUSH2 0x17BF PUSH1 0x4A DUP4 PUSH2 0x1B5C JUMP JUMPDEST SWAP2 POP PUSH2 0x17CA DUP3 PUSH2 0x1FCE JUMP JUMPDEST PUSH1 0x60 DUP3 ADD SWAP1 POP SWAP2 SWAP1 POP JUMP JUMPDEST PUSH1 0x0 PUSH2 0x17E2 PUSH1 0x15 DUP4 PUSH2 0x1B5C JUMP JUMPDEST SWAP2 POP PUSH2 0x17ED DUP3 PUSH2 0x2043 JUMP JUMPDEST PUSH1 0x20 DUP3 ADD SWAP1 POP SWAP2 SWAP1 POP JUMP JUMPDEST PUSH1 0x0 PUSH2 0x1805 PUSH1 0x39 DUP4 PUSH2 0x1B5C JUMP JUMPDEST SWAP2 POP PUSH2 0x1810 DUP3 PUSH2 0x206C JUMP JUMPDEST PUSH1 0x40 DUP3 ADD SWAP1 POP SWAP2 SWAP1 POP JUMP JUMPDEST PUSH1 0x0 PUSH2 0x1828 PUSH1 0x20 DUP4 PUSH2 0x1B5C JUMP JUMPDEST SWAP2 POP PUSH2 0x1833 DUP3 PUSH2 0x20BB JUMP JUMPDEST PUSH1 0x20 DUP3 ADD SWAP1 POP SWAP2 SWAP1 POP JUMP JUMPDEST PUSH2 0x1847 DUP2 PUSH2 0x1BD0 JUMP JUMPDEST DUP3 MSTORE POP POP JUMP JUMPDEST PUSH2 0x1856 DUP2 PUSH2 0x1BDA JUMP JUMPDEST DUP3 MSTORE POP POP JUMP JUMPDEST PUSH1 0x0 PUSH1 0x20 DUP3 ADD SWAP1 POP PUSH2 0x1871 PUSH1 0x0 DUP4 ADD DUP5 PUSH2 0x169F JUMP JUMPDEST SWAP3 SWAP2 POP POP JUMP JUMPDEST PUSH1 0x0 PUSH1 0x20 DUP3 ADD SWAP1 POP PUSH2 0x188C PUSH1 0x0 DUP4 ADD DUP5 PUSH2 0x16AE JUMP JUMPDEST SWAP3 SWAP2 POP POP JUMP JUMPDEST PUSH1 0x0 PUSH1 0x20 DUP3 ADD SWAP1 POP DUP2 DUP2 SUB PUSH1 0x0 DUP4 ADD MSTORE PUSH2 0x18AB DUP2 PUSH2 0x16BD JUMP JUMPDEST SWAP1 POP SWAP2 SWAP1 POP JUMP JUMPDEST PUSH1 0x0 PUSH1 0x20 DUP3 ADD SWAP1 POP DUP2 DUP2 SUB PUSH1 0x0 DUP4 ADD MSTORE PUSH2 0x18CB DUP2 PUSH2 0x16E0 JUMP JUMPDEST SWAP1 POP SWAP2 SWAP1 POP JUMP JUMPDEST PUSH1 0x0 PUSH1 0x20 DUP3 ADD SWAP1 POP DUP2 DUP2 SUB PUSH1 0x0 DUP4 ADD MSTORE PUSH2 0x18EB DUP2 PUSH2 0x1703 JUMP JUMPDEST SWAP1 POP SWAP2 SWAP1 POP JUMP JUMPDEST PUSH1 0x0 PUSH1 0x20 DUP3 ADD SWAP1 POP DUP2 DUP2 SUB PUSH1 0x0 DUP4 ADD MSTORE PUSH2 0x190B DUP2 PUSH2 0x1726 JUMP JUMPDEST SWAP1 POP SWAP2 SWAP1 POP JUMP JUMPDEST PUSH1 0x0 PUSH1 0x20 DUP3 ADD SWAP1 POP DUP2 DUP2 SUB PUSH1 0x0 DUP4 ADD MSTORE PUSH2 0x192B DUP2 PUSH2 0x1749 JUMP JUMPDEST SWAP1 POP SWAP2 SWAP1 POP JUMP JUMPDEST PUSH1 0x0 PUSH1 0x20 DUP3 ADD SWAP1 POP DUP2 DUP2 SUB PUSH1 0x0 DUP4 ADD MSTORE PUSH2 0x194B DUP2 PUSH2 0x176C JUMP JUMPDEST SWAP1 POP SWAP2 SWAP1 POP JUMP JUMPDEST PUSH1 0x0 PUSH1 0x20 DUP3 ADD SWAP1 POP DUP2 DUP2 SUB PUSH1 0x0 DUP4 ADD MSTORE PUSH2 0x196B DUP2 PUSH2 0x178F JUMP JUMPDEST SWAP1 POP SWAP2 SWAP1 POP JUMP JUMPDEST PUSH1 0x0 PUSH1 0x20 DUP3 ADD SWAP1 POP DUP2 DUP2 SUB PUSH1 0x0 DUP4 ADD MSTORE PUSH2 0x198B DUP2 PUSH2 0x17B2 JUMP JUMPDEST SWAP1 POP SWAP2 SWAP1 POP JUMP JUMPDEST PUSH1 0x0 PUSH1 0x20 DUP3 ADD SWAP1 POP DUP2 DUP2 SUB PUSH1 0x0 DUP4 ADD MSTORE PUSH2 0x19AB DUP2 PUSH2 0x17D5 JUMP JUMPDEST SWAP1 POP SWAP2 SWAP1 POP JUMP JUMPDEST PUSH1 0x0 PUSH1 0x20 DUP3 ADD SWAP1 POP DUP2 DUP2 SUB PUSH1 0x0 DUP4 ADD MSTORE PUSH2 0x19CB DUP2 PUSH2 0x17F8 JUMP JUMPDEST SWAP1 POP SWAP2 SWAP1 POP JUMP JUMPDEST PUSH1 0x0 PUSH1 0x20 DUP3 ADD SWAP1 POP DUP2 DUP2 SUB PUSH1 0x0 DUP4 ADD MSTORE PUSH2 0x19EB DUP2 PUSH2 0x181B JUMP JUMPDEST SWAP1 POP SWAP2 SWAP1 POP JUMP JUMPDEST PUSH1 0x0 PUSH1 0x20 DUP3 ADD SWAP1 POP PUSH2 0x1A07 PUSH1 0x0 DUP4 ADD DUP5 PUSH2 0x183E JUMP JUMPDEST SWAP3 SWAP2 POP POP JUMP JUMPDEST PUSH1 0x0 PUSH1 0xC0 DUP3 ADD SWAP1 POP PUSH2 0x1A22 PUSH1 0x0 DUP4 ADD DUP10 PUSH2 0x183E JUMP JUMPDEST PUSH2 0x1A2F PUSH1 0x20 DUP4 ADD DUP9 PUSH2 0x183E JUMP JUMPDEST PUSH2 0x1A3C PUSH1 0x40 DUP4 ADD DUP8 PUSH2 0x183E JUMP JUMPDEST PUSH2 0x1A49 PUSH1 0x60 DUP4 ADD DUP7 PUSH2 0x1681 JUMP JUMPDEST PUSH2 0x1A56 PUSH1 0x80 DUP4 ADD DUP6 PUSH2 0x1681 JUMP JUMPDEST PUSH2 0x1A63 PUSH1 0xA0 DUP4 ADD DUP5 PUSH2 0x183E JUMP JUMPDEST SWAP8 SWAP7 POP POP POP POP POP POP POP JUMP JUMPDEST PUSH1 0x0 PUSH1 0xA0 DUP3 ADD SWAP1 POP PUSH2 0x1A83 PUSH1 0x0 DUP4 ADD DUP9 PUSH2 0x183E JUMP JUMPDEST PUSH2 0x1A90 PUSH1 0x20 DUP4 ADD DUP8 PUSH2 0x183E JUMP JUMPDEST PUSH2 0x1A9D PUSH1 0x40 DUP4 ADD DUP7 PUSH2 0x183E JUMP JUMPDEST PUSH2 0x1AAA PUSH1 0x60 DUP4 ADD DUP6 PUSH2 0x1690 JUMP JUMPDEST PUSH2 0x1AB7 PUSH1 0x80 DUP4 ADD DUP5 PUSH2 0x184D JUMP JUMPDEST SWAP7 SWAP6 POP POP POP POP POP POP JUMP JUMPDEST PUSH1 0x0 PUSH1 0x80 DUP3 ADD SWAP1 POP PUSH2 0x1AD6 PUSH1 0x0 DUP4 ADD DUP8 PUSH2 0x183E JUMP JUMPDEST PUSH2 0x1AE3 PUSH1 0x20 DUP4 ADD DUP7 PUSH2 0x183E JUMP JUMPDEST PUSH2 0x1AF0 PUSH1 0x40 DUP4 ADD DUP6 PUSH2 0x183E JUMP JUMPDEST PUSH2 0x1AFD PUSH1 0x60 DUP4 ADD DUP5 PUSH2 0x184D JUMP JUMPDEST SWAP6 SWAP5 POP POP POP POP POP JUMP JUMPDEST PUSH1 0x0 PUSH2 0x1B10 PUSH2 0x1B21 JUMP JUMPDEST SWAP1 POP PUSH2 0x1B1C DUP3 DUP3 PUSH2 0x1C70 JUMP JUMPDEST SWAP2 SWAP1 POP JUMP JUMPDEST PUSH1 0x0 PUSH1 0x40 MLOAD SWAP1 POP SWAP1 JUMP JUMPDEST PUSH1 0x0 PUSH8 0xFFFFFFFFFFFFFFFF DUP3 GT ISZERO PUSH2 0x1B46 JUMPI PUSH2 0x1B45 PUSH2 0x1D77 JUMP JUMPDEST JUMPDEST PUSH2 0x1B4F DUP3 PUSH2 0x1DBA JUMP JUMPDEST SWAP1 POP PUSH1 0x20 DUP2 ADD SWAP1 POP SWAP2 SWAP1 POP JUMP JUMPDEST PUSH1 0x0 DUP3 DUP3 MSTORE PUSH1 0x20 DUP3 ADD SWAP1 POP SWAP3 SWAP2 POP POP JUMP JUMPDEST PUSH1 0x0 PUSH2 0x1B78 DUP3 PUSH2 0x1BB0 JUMP JUMPDEST SWAP1 POP SWAP2 SWAP1 POP JUMP JUMPDEST PUSH1 0x0 PUSH2 0x1B8A DUP3 PUSH2 0x1BB0 JUMP JUMPDEST SWAP1 POP SWAP2 SWAP1 POP JUMP JUMPDEST PUSH1 0x0 DUP2 ISZERO ISZERO SWAP1 POP SWAP2 SWAP1 POP JUMP JUMPDEST PUSH1 0x0 DUP2 SWAP1 POP PUSH2 0x1BAB DUP3 PUSH2 0x20E4 JUMP JUMPDEST SWAP2 SWAP1 POP JUMP JUMPDEST PUSH1 0x0 PUSH20 0xFFFFFFFFFFFFFFFFFFFFFFFFFFFFFFFFFFFFFFFF DUP3 AND SWAP1 POP SWAP2 SWAP1 POP JUMP JUMPDEST PUSH1 0x0 DUP2 SWAP1 POP SWAP2 SWAP1 POP JUMP JUMPDEST PUSH1 0x0 PUSH1 0xFF DUP3 AND SWAP1 POP SWAP2 SWAP1 POP JUMP JUMPDEST PUSH1 0x0 PUSH2 0x1BF2 DUP3 PUSH2 0x1C0B JUMP JUMPDEST SWAP1 POP SWAP2 SWAP1 POP JUMP JUMPDEST PUSH1 0x0 PUSH2 0x1C04 DUP3 PUSH2 0x1B9D JUMP JUMPDEST SWAP1 POP SWAP2 SWAP1 POP JUMP JUMPDEST PUSH1 0x0 PUSH2 0x1C16 DUP3 PUSH2 0x1C1D JUMP JUMPDEST SWAP1 POP SWAP2 SWAP1 POP JUMP JUMPDEST PUSH1 0x0 PUSH2 0x1C28 DUP3 PUSH2 0x1BB0 JUMP JUMPDEST SWAP1 POP SWAP2 SWAP1 POP JUMP JUMPDEST DUP3 DUP2 DUP4 CALLDATACOPY PUSH1 0x0 DUP4 DUP4 ADD MSTORE POP POP POP JUMP JUMPDEST PUSH1 0x0 PUSH1 0x2 DUP3 DIV SWAP1 POP PUSH1 0x1 DUP3 AND DUP1 PUSH2 0x1C56 JUMPI PUSH1 0x7F DUP3 AND SWAP2 POP JUMPDEST PUSH1 0x20 DUP3 LT DUP2 EQ ISZERO PUSH2 0x1C6A JUMPI PUSH2 0x1C69 PUSH2 0x1D48 JUMP JUMPDEST JUMPDEST POP SWAP2 SWAP1 POP JUMP JUMPDEST PUSH2 0x1C79 DUP3 PUSH2 0x1DBA JUMP JUMPDEST DUP2 ADD DUP2 DUP2 LT PUSH8 0xFFFFFFFFFFFFFFFF DUP3 GT OR ISZERO PUSH2 0x1C98 JUMPI PUSH2 0x1C97 PUSH2 0x1D77 JUMP JUMPDEST JUMPDEST DUP1 PUSH1 0x40 MSTORE POP POP POP JUMP JUMPDEST PUSH1 0x0 PUSH2 0x1CAC DUP3 PUSH2 0x1BD0 JUMP JUMPDEST SWAP2 POP PUSH32 0xFFFFFFFFFFFFFFFFFFFFFFFFFFFFFFFFFFFFFFFFFFFFFFFFFFFFFFFFFFFFFFFF DUP3 EQ ISZERO PUSH2 0x1CDF JUMPI PUSH2 0x1CDE PUSH2 0x1CEA JUMP JUMPDEST JUMPDEST PUSH1 0x1 DUP3 ADD SWAP1 POP SWAP2 SWAP1 POP JUMP JUMPDEST PUSH32 0x4E487B7100000000000000000000000000000000000000000000000000000000 PUSH1 0x0 MSTORE PUSH1 0x11 PUSH1 0x4 MSTORE PUSH1 0x24 PUSH1 0x0 REVERT JUMPDEST PUSH32 0x4E487B7100000000000000000000000000000000000000000000000000000000 PUSH1 0x0 MSTORE PUSH1 0x21 PUSH1 0x4 MSTORE PUSH1 0x24 PUSH1 0x0 REVERT JUMPDEST PUSH32 0x4E487B7100000000000000000000000000000000000000000000000000000000 PUSH1 0x0 MSTORE PUSH1 0x22 PUSH1 0x4 MSTORE PUSH1 0x24 PUSH1 0x0 REVERT JUMPDEST PUSH32 0x4E487B7100000000000000000000000000000000000000000000000000000000 PUSH1 0x0 MSTORE PUSH1 0x41 PUSH1 0x4 MSTORE PUSH1 0x24 PUSH1 0x0 REVERT JUMPDEST PUSH1 0x0 DUP1 REVERT JUMPDEST PUSH1 0x0 DUP1 REVERT JUMPDEST PUSH1 0x0 DUP1 REVERT JUMPDEST PUSH1 0x0 DUP1 REVERT JUMPDEST PUSH1 0x0 PUSH1 0x1F NOT PUSH1 0x1F DUP4 ADD AND SWAP1 POP SWAP2 SWAP1 POP JUMP JUMPDEST PUSH32 0x596F752068617665206E6F7420696E707574206120726967687420766F74652E PUSH1 0x0 DUP3 ADD MSTORE PUSH32 0x20596F752063616E2065697468657220766F7465203120666F72205265717565 PUSH1 0x20 DUP3 ADD MSTORE PUSH32 0x73746572206F72203220666F722050726F76696465722E000000000000000000 PUSH1 0x40 DUP3 ADD MSTORE POP JUMP JUMPDEST PUSH32 0x596F75206861766520616C726561647920766F7465642C20796F752063616E6E PUSH1 0x0 DUP3 ADD MSTORE PUSH32 0x6F7420766F746520616761696E00000000000000000000000000000000000000 PUSH1 0x20 DUP3 ADD MSTORE POP JUMP JUMPDEST PUSH32 0x43616E6E6F74206361727279206F75742074686973206F7065726174696F6E21 PUSH1 0x0 DUP3 ADD MSTORE POP JUMP JUMPDEST PUSH32 0x5468697320436F6E666C69637420646F6573206E6F742065786973742E000000 PUSH1 0x0 DUP3 ADD MSTORE POP JUMP JUMPDEST PUSH32 0x596F7520726169736564207468697320636F6E666C6963742E20596F75206361 PUSH1 0x0 DUP3 ADD MSTORE PUSH32 0x6E6E6F7420766F7465206F6E2069742E00000000000000000000000000000000 PUSH1 0x20 DUP3 ADD MSTORE POP JUMP JUMPDEST PUSH32 0x436F6E666C6963742068617320616C7265616479206265656E20637265617465 PUSH1 0x0 DUP3 ADD MSTORE PUSH32 0x6420666F72207468697320706172746963756C6172204D696C6573746F6E652E PUSH1 0x20 DUP3 ADD MSTORE POP JUMP JUMPDEST PUSH32 0x566F74696E6720686173206E6F74206265656E20636F6D706C65746564207965 PUSH1 0x0 DUP3 ADD MSTORE PUSH32 0x742E20506C65617365207761697420666F7220697420746F20656E642E000000 PUSH1 0x20 DUP3 ADD MSTORE POP JUMP JUMPDEST PUSH32 0x4E6F742065766572796F6E652068617320766F7465642C20706C656173652070 PUSH1 0x0 DUP3 ADD MSTORE PUSH32 0x726F6D707420616C6C206F74686572206D656D62657273206F662070726F6A65 PUSH1 0x20 DUP3 ADD MSTORE PUSH32 0x637420746F20766F746500000000000000000000000000000000000000000000 PUSH1 0x40 DUP3 ADD MSTORE POP JUMP JUMPDEST PUSH32 0x4120737472696E67206973207265717569726564210000000000000000000000 PUSH1 0x0 DUP3 ADD MSTORE POP JUMP JUMPDEST PUSH32 0x596F752061726520696E766F6C76656420696E207468697320636F6E666C6963 PUSH1 0x0 DUP3 ADD MSTORE PUSH32 0x742E20596F752063616E6E6F7420766F7465206F6E2069742E00000000000000 PUSH1 0x20 DUP3 ADD MSTORE POP JUMP JUMPDEST PUSH32 0x456E6F75676820766F7465732068617665206265656E20636F6C6C6563746564 PUSH1 0x0 DUP3 ADD MSTORE POP JUMP JUMPDEST PUSH1 0x4 DUP2 LT PUSH2 0x20F5 JUMPI PUSH2 0x20F4 PUSH2 0x1D19 JUMP JUMPDEST JUMPDEST POP JUMP JUMPDEST PUSH2 0x2101 DUP2 PUSH2 0x1B6D JUMP JUMPDEST DUP2 EQ PUSH2 0x210C JUMPI PUSH1 0x0 DUP1 REVERT JUMPDEST POP JUMP JUMPDEST PUSH2 0x2118 DUP2 PUSH2 0x1B7F JUMP JUMPDEST DUP2 EQ PUSH2 0x2123 JUMPI PUSH1 0x0 DUP1 REVERT JUMPDEST POP JUMP JUMPDEST PUSH2 0x212F DUP2 PUSH2 0x1BD0 JUMP JUMPDEST DUP2 EQ PUSH2 0x213A JUMPI PUSH1 0x0 DUP1 REVERT JUMPDEST POP JUMP JUMPDEST PUSH2 0x2146 DUP2 PUSH2 0x1BDA JUMP JUMPDEST DUP2 EQ PUSH2 0x2151 JUMPI PUSH1 0x0 DUP1 REVERT JUMPDEST POP JUMP INVALID LOG2 PUSH5 0x6970667358 0x22 SLT KECCAK256 0x2F MUL DUP15 NUMBER EXTCODESIZE SWAP2 SWAP12 0xBF 0xBD SWAP8 0x4D 0xA8 0x2C CALLCODE SSTORE LOG3 0xF7 SWAP10 RETURNDATACOPY 0xBB 0xC ADD SGT CALL DUP5 DUP14 0xD7 DUP3 CREATE MSIZE TIMESTAMP DUP13 PUSH5 0x736F6C6343 STOP ADDMOD SMOD STOP CALLER "
				},
				"gasEstimates": {
					"creation": {
						"codeDepositCost": "1717200",
						"executionCost": "1806",
						"totalCost": "1719006"
					},
					"external": {
						"createConflict(uint256,uint256,uint256,string,string,address,address,uint256)": "infinite",
						"deleteConflict(uint256,uint256,uint256)": "infinite",
						"doesConflictExist(uint256,uint256,uint256)": "infinite",
						"getConflictStatus(uint256,uint256,uint256)": "infinite",
						"getResults(uint256,uint256,uint256)": "infinite",
						"getVotesCollected(uint256,uint256,uint256)": "infinite",
						"getVotesforProvider(uint256,uint256,uint256)": "infinite",
						"getVotesforRequester(uint256,uint256,uint256)": "infinite",
						"startVote(uint256,uint256,uint256)": "infinite",
						"updateConflict(uint256,uint256,uint256,string,string,address)": "infinite",
						"voteConflict(uint256,uint256,uint256,address,uint8)": "infinite"
					},
					"internal": {
						"setState(uint256,uint256,uint256,enum States.ConflictStatus)": "24600"
					}
				},
				"methodIdentifiers": {
					"createConflict(uint256,uint256,uint256,string,string,address,address,uint256)": "e62fac27",
					"deleteConflict(uint256,uint256,uint256)": "003f489f",
					"doesConflictExist(uint256,uint256,uint256)": "79712b01",
					"getConflictStatus(uint256,uint256,uint256)": "cb4389ce",
					"getResults(uint256,uint256,uint256)": "0366cef2",
					"getVotesCollected(uint256,uint256,uint256)": "3c45fe31",
					"getVotesforProvider(uint256,uint256,uint256)": "9ac78879",
					"getVotesforRequester(uint256,uint256,uint256)": "e3d87718",
					"startVote(uint256,uint256,uint256)": "9c87a5e9",
					"updateConflict(uint256,uint256,uint256,string,string,address)": "9332a07e",
					"voteConflict(uint256,uint256,uint256,address,uint8)": "c171bdf7"
				}
			},
			"userdoc": {
				"kind": "user",
				"methods": {},
				"version": 1
			}
		}
	}
}