{
	"contracts/Service.sol": {
		"Service": {
			"abi": [
				{
					"inputs": [
						{
							"internalType": "contract Milestone",
							"name": "milestoneContract",
							"type": "address"
						}
					],
					"stateMutability": "nonpayable",
					"type": "constructor"
				},
				{
					"anonymous": false,
					"inputs": [
						{
							"indexed": false,
							"internalType": "uint256",
							"name": "projectNumber",
							"type": "uint256"
						},
						{
							"indexed": false,
							"internalType": "uint256",
							"name": "serviceNumber",
							"type": "uint256"
						},
						{
							"indexed": false,
							"internalType": "string",
							"name": "title",
							"type": "string"
						},
						{
							"indexed": false,
							"internalType": "string",
							"name": "description",
							"type": "string"
						},
						{
							"indexed": false,
							"internalType": "uint256",
							"name": "price",
							"type": "uint256"
						}
					],
					"name": "serviceCreated",
					"type": "event"
				},
				{
					"anonymous": false,
					"inputs": [
						{
							"indexed": false,
							"internalType": "uint256",
							"name": "projectNumber",
							"type": "uint256"
						},
						{
							"indexed": false,
							"internalType": "uint256",
							"name": "serviceNumber",
							"type": "uint256"
						}
					],
					"name": "serviceDeleted",
					"type": "event"
				},
				{
					"anonymous": false,
					"inputs": [
						{
							"indexed": false,
							"internalType": "uint256",
							"name": "projectNumber",
							"type": "uint256"
						},
						{
							"indexed": false,
							"internalType": "uint256",
							"name": "serviceNumber",
							"type": "uint256"
						},
						{
							"indexed": false,
							"internalType": "string",
							"name": "title",
							"type": "string"
						},
						{
							"indexed": false,
							"internalType": "string",
							"name": "description",
							"type": "string"
						},
						{
							"indexed": false,
							"internalType": "uint256",
							"name": "price",
							"type": "uint256"
						}
					],
					"name": "serviceUpdated",
					"type": "event"
				},
				{
					"inputs": [
						{
							"internalType": "uint256",
							"name": "projectNumber",
							"type": "uint256"
						},
						{
							"internalType": "uint256",
							"name": "serviceNumber",
							"type": "uint256"
						},
						{
							"internalType": "string",
							"name": "titleMilestone",
							"type": "string"
						},
						{
							"internalType": "string",
							"name": "descriptionMilestone",
							"type": "string"
						}
					],
					"name": "createMilestone",
					"outputs": [],
					"stateMutability": "nonpayable",
					"type": "function"
				},
				{
					"inputs": [
						{
							"internalType": "uint256",
							"name": "projectNumber",
							"type": "uint256"
						},
						{
							"internalType": "string",
							"name": "title",
							"type": "string"
						},
						{
							"internalType": "string",
							"name": "description",
							"type": "string"
						},
						{
							"internalType": "uint256",
							"name": "price",
							"type": "uint256"
						},
						{
							"internalType": "address",
							"name": "projectOwner",
							"type": "address"
						}
					],
					"name": "createService",
					"outputs": [],
					"stateMutability": "nonpayable",
					"type": "function"
				},
				{
					"inputs": [
						{
							"internalType": "uint256",
							"name": "projectNumber",
							"type": "uint256"
						},
						{
							"internalType": "uint256",
							"name": "serviceNumber",
							"type": "uint256"
						},
						{
							"internalType": "uint256",
							"name": "milestoneNumber",
							"type": "uint256"
						}
					],
					"name": "deleteMilestone",
					"outputs": [],
					"stateMutability": "nonpayable",
					"type": "function"
				},
				{
					"inputs": [
						{
							"internalType": "uint256",
							"name": "projectNumber",
							"type": "uint256"
						},
						{
							"internalType": "uint256",
							"name": "serviceNumber",
							"type": "uint256"
						}
					],
					"name": "deleteService",
					"outputs": [],
					"stateMutability": "nonpayable",
					"type": "function"
				},
				{
					"inputs": [
						{
							"internalType": "uint256",
							"name": "projectNumber",
							"type": "uint256"
						},
						{
							"internalType": "uint256",
							"name": "serviceNumber",
							"type": "uint256"
						}
					],
					"name": "getTitle",
					"outputs": [
						{
							"internalType": "string",
							"name": "title",
							"type": "string"
						}
					],
					"stateMutability": "view",
					"type": "function"
				},
				{
					"inputs": [
						{
							"internalType": "uint256",
							"name": "projectNumber",
							"type": "uint256"
						},
						{
							"internalType": "uint256",
							"name": "serviceNumber",
							"type": "uint256"
						},
						{
							"internalType": "uint256",
							"name": "milestoneNumber",
							"type": "uint256"
						}
					],
					"name": "readMilestone",
					"outputs": [
						{
							"internalType": "string",
							"name": "",
							"type": "string"
						},
						{
							"internalType": "string",
							"name": "",
							"type": "string"
						}
					],
					"stateMutability": "view",
					"type": "function"
				},
				{
					"inputs": [
						{
							"internalType": "uint256",
							"name": "projectNumber",
							"type": "uint256"
						},
						{
							"internalType": "uint256",
							"name": "serviceNumber",
							"type": "uint256"
						}
					],
					"name": "readService",
					"outputs": [
						{
							"internalType": "string",
							"name": "title",
							"type": "string"
						},
						{
							"internalType": "string",
							"name": "description",
							"type": "string"
						},
						{
							"internalType": "uint256",
							"name": "price",
							"type": "uint256"
						},
						{
							"internalType": "uint256",
							"name": "currentMilestone",
							"type": "uint256"
						}
					],
					"stateMutability": "view",
					"type": "function"
				},
				{
					"inputs": [],
					"name": "serviceNum",
					"outputs": [
						{
							"internalType": "uint256",
							"name": "",
							"type": "uint256"
						}
					],
					"stateMutability": "view",
					"type": "function"
				},
				{
					"inputs": [],
					"name": "serviceTotal",
					"outputs": [
						{
							"internalType": "uint256",
							"name": "",
							"type": "uint256"
						}
					],
					"stateMutability": "view",
					"type": "function"
				},
				{
					"inputs": [
						{
							"internalType": "uint256",
							"name": "projectNumber",
							"type": "uint256"
						},
						{
							"internalType": "uint256",
							"name": "serviceNumber",
							"type": "uint256"
						},
						{
							"internalType": "uint256",
							"name": "milestoneNumber",
							"type": "uint256"
						},
						{
							"internalType": "string",
							"name": "titleMilestone",
							"type": "string"
						},
						{
							"internalType": "string",
							"name": "descriptionMilestone",
							"type": "string"
						}
					],
					"name": "updateMilestone",
					"outputs": [],
					"stateMutability": "nonpayable",
					"type": "function"
				},
				{
					"inputs": [
						{
							"internalType": "uint256",
							"name": "projectNumber",
							"type": "uint256"
						},
						{
							"internalType": "uint256",
							"name": "serviceNumber",
							"type": "uint256"
						},
						{
							"internalType": "string",
							"name": "title",
							"type": "string"
						},
						{
							"internalType": "string",
							"name": "description",
							"type": "string"
						},
						{
							"internalType": "uint256",
							"name": "price",
							"type": "uint256"
						}
					],
					"name": "updateService",
					"outputs": [],
					"stateMutability": "nonpayable",
					"type": "function"
				}
			],
			"devdoc": {
				"kind": "dev",
				"methods": {},
				"version": 1
			},
			"evm": {
				"assembly": "    /* \"contracts/Service.sol\":348:6050  contract Service {... */\n  mstore(0x40, 0x80)\n    /* \"contracts/Service.sol\":1417:1418  0 */\n  0x00\n    /* \"contracts/Service.sol\":1387:1418  uint256 public serviceTotal = 0 */\n  0x01\n  sstore\n    /* \"contracts/Service.sol\":1516:1517  0 */\n  0x00\n    /* \"contracts/Service.sol\":1488:1517  uint256 public serviceNum = 0 */\n  0x02\n  sstore\n    /* \"contracts/Service.sol\":398:493  constructor (Milestone milestoneContract) public {... */\n  callvalue\n  dup1\n  iszero\n  tag_1\n  jumpi\n  0x00\n  dup1\n  revert\ntag_1:\n  pop\n  mload(0x40)\n  sub(codesize, bytecodeSize)\n  dup1\n  bytecodeSize\n  dup4\n  codecopy\n  dup2\n  dup2\n  add\n  0x40\n  mstore\n  dup2\n  add\n  swap1\n  tag_2\n  swap2\n  swap1\n  tag_3\n  jump\t// in\ntag_2:\n    /* \"contracts/Service.sol\":469:486  milestoneContract */\n  dup1\n    /* \"contracts/Service.sol\":457:466  milestone */\n  0x00\n  dup1\n    /* \"contracts/Service.sol\":457:486  milestone = milestoneContract */\n  0x0100\n  exp\n  dup2\n  sload\n  dup2\n  0xffffffffffffffffffffffffffffffffffffffff\n  mul\n  not\n  and\n  swap1\n  dup4\n  0xffffffffffffffffffffffffffffffffffffffff\n  and\n  mul\n  or\n  swap1\n  sstore\n  pop\n    /* \"contracts/Service.sol\":398:493  constructor (Milestone milestoneContract) public {... */\n  pop\n    /* \"contracts/Service.sol\":348:6050  contract Service {... */\n  jump(tag_6)\n    /* \"#utility.yul\":7:186   */\ntag_8:\n    /* \"#utility.yul\":82:87   */\n  0x00\n    /* \"#utility.yul\":113:119   */\n  dup2\n    /* \"#utility.yul\":107:120   */\n  mload\n    /* \"#utility.yul\":98:120   */\n  swap1\n  pop\n    /* \"#utility.yul\":129:180   */\n  tag_10\n    /* \"#utility.yul\":174:179   */\n  dup2\n    /* \"#utility.yul\":129:180   */\n  tag_11\n  jump\t// in\ntag_10:\n    /* \"#utility.yul\":7:186   */\n  swap3\n  swap2\n  pop\n  pop\n  jump\t// out\n    /* \"#utility.yul\":192:579   */\ntag_3:\n    /* \"#utility.yul\":280:286   */\n  0x00\n    /* \"#utility.yul\":329:331   */\n  0x20\n    /* \"#utility.yul\":317:326   */\n  dup3\n    /* \"#utility.yul\":308:315   */\n  dup5\n    /* \"#utility.yul\":304:327   */\n  sub\n    /* \"#utility.yul\":300:332   */\n  slt\n    /* \"#utility.yul\":297:416   */\n  iszero\n  tag_13\n  jumpi\n    /* \"#utility.yul\":335:414   */\n  tag_14\n  tag_15\n  jump\t// in\ntag_14:\n    /* \"#utility.yul\":297:416   */\ntag_13:\n    /* \"#utility.yul\":455:456   */\n  0x00\n    /* \"#utility.yul\":480:562   */\n  tag_16\n    /* \"#utility.yul\":554:561   */\n  dup5\n    /* \"#utility.yul\":545:551   */\n  dup3\n    /* \"#utility.yul\":534:543   */\n  dup6\n    /* \"#utility.yul\":530:552   */\n  add\n    /* \"#utility.yul\":480:562   */\n  tag_8\n  jump\t// in\ntag_16:\n    /* \"#utility.yul\":470:562   */\n  swap2\n  pop\n    /* \"#utility.yul\":426:572   */\n  pop\n    /* \"#utility.yul\":192:579   */\n  swap3\n  swap2\n  pop\n  pop\n  jump\t// out\n    /* \"#utility.yul\":666:762   */\ntag_19:\n    /* \"#utility.yul\":703:710   */\n  0x00\n    /* \"#utility.yul\":732:756   */\n  tag_21\n    /* \"#utility.yul\":750:755   */\n  dup3\n    /* \"#utility.yul\":732:756   */\n  tag_22\n  jump\t// in\ntag_21:\n    /* \"#utility.yul\":721:756   */\n  swap1\n  pop\n    /* \"#utility.yul\":666:762   */\n  swap2\n  swap1\n  pop\n  jump\t// out\n    /* \"#utility.yul\":768:882   */\ntag_23:\n    /* \"#utility.yul\":823:830   */\n  0x00\n    /* \"#utility.yul\":852:876   */\n  tag_25\n    /* \"#utility.yul\":870:875   */\n  dup3\n    /* \"#utility.yul\":852:876   */\n  tag_19\n  jump\t// in\ntag_25:\n    /* \"#utility.yul\":841:876   */\n  swap1\n  pop\n    /* \"#utility.yul\":768:882   */\n  swap2\n  swap1\n  pop\n  jump\t// out\n    /* \"#utility.yul\":888:1014   */\ntag_22:\n    /* \"#utility.yul\":925:932   */\n  0x00\n    /* \"#utility.yul\":965:1007   */\n  0xffffffffffffffffffffffffffffffffffffffff\n    /* \"#utility.yul\":958:963   */\n  dup3\n    /* \"#utility.yul\":954:1008   */\n  and\n    /* \"#utility.yul\":943:1008   */\n  swap1\n  pop\n    /* \"#utility.yul\":888:1014   */\n  swap2\n  swap1\n  pop\n  jump\t// out\n    /* \"#utility.yul\":1143:1260   */\ntag_15:\n    /* \"#utility.yul\":1252:1253   */\n  0x00\n    /* \"#utility.yul\":1249:1250   */\n  dup1\n    /* \"#utility.yul\":1242:1254   */\n  revert\n    /* \"#utility.yul\":1266:1424   */\ntag_11:\n    /* \"#utility.yul\":1357:1399   */\n  tag_31\n    /* \"#utility.yul\":1393:1398   */\n  dup2\n    /* \"#utility.yul\":1357:1399   */\n  tag_23\n  jump\t// in\ntag_31:\n    /* \"#utility.yul\":1350:1355   */\n  dup2\n    /* \"#utility.yul\":1347:1400   */\n  eq\n    /* \"#utility.yul\":1337:1418   */\n  tag_32\n  jumpi\n    /* \"#utility.yul\":1414:1415   */\n  0x00\n    /* \"#utility.yul\":1411:1412   */\n  dup1\n    /* \"#utility.yul\":1404:1416   */\n  revert\n    /* \"#utility.yul\":1337:1418   */\ntag_32:\n    /* \"#utility.yul\":1266:1424   */\n  pop\n  jump\t// out\n    /* \"contracts/Service.sol\":348:6050  contract Service {... */\ntag_6:\n  dataSize(sub_0)\n  dup1\n  dataOffset(sub_0)\n  0x00\n  codecopy\n  0x00\n  return\nstop\n\nsub_0: assembly {\n        /* \"contracts/Service.sol\":348:6050  contract Service {... */\n      mstore(0x40, 0x80)\n      callvalue\n      dup1\n      iszero\n      tag_1\n      jumpi\n      0x00\n      dup1\n      revert\n    tag_1:\n      pop\n      jumpi(tag_2, lt(calldatasize, 0x04))\n      shr(0xe0, calldataload(0x00))\n      dup1\n      0x53c49c64\n      gt\n      tag_14\n      jumpi\n      dup1\n      0x53c49c64\n      eq\n      tag_8\n      jumpi\n      dup1\n      0x63ef8a50\n      eq\n      tag_9\n      jumpi\n      dup1\n      0xac10dfe3\n      eq\n      tag_10\n      jumpi\n      dup1\n      0xb257b1a0\n      eq\n      tag_11\n      jumpi\n      dup1\n      0xb9b6c5d4\n      eq\n      tag_12\n      jumpi\n      dup1\n      0xfd23c4bb\n      eq\n      tag_13\n      jumpi\n      jump(tag_2)\n    tag_14:\n      dup1\n      0x256da4e3\n      eq\n      tag_3\n      jumpi\n      dup1\n      0x30f73051\n      eq\n      tag_4\n      jumpi\n      dup1\n      0x352d28fd\n      eq\n      tag_5\n      jumpi\n      dup1\n      0x49428a62\n      eq\n      tag_6\n      jumpi\n      dup1\n      0x4994772c\n      eq\n      tag_7\n      jumpi\n    tag_2:\n      0x00\n      dup1\n      revert\n        /* \"contracts/Service.sol\":2449:3357  function createService(uint256 projectNumber, string memory title, string memory description, uint256 price, address projectOwner) public requiredString(title) requiredString(description) {        ... */\n    tag_3:\n      tag_15\n      0x04\n      dup1\n      calldatasize\n      sub\n      dup2\n      add\n      swap1\n      tag_16\n      swap2\n      swap1\n      tag_17\n      jump\t// in\n    tag_16:\n      tag_18\n      jump\t// in\n    tag_15:\n      stop\n        /* \"contracts/Service.sol\":1387:1418  uint256 public serviceTotal = 0 */\n    tag_4:\n      tag_19\n      tag_20\n      jump\t// in\n    tag_19:\n      mload(0x40)\n      tag_21\n      swap2\n      swap1\n      tag_22\n      jump\t// in\n    tag_21:\n      mload(0x40)\n      dup1\n      swap2\n      sub\n      swap1\n      return\n        /* \"contracts/Service.sol\":1488:1517  uint256 public serviceNum = 0 */\n    tag_5:\n      tag_23\n      tag_24\n      jump\t// in\n    tag_23:\n      mload(0x40)\n      tag_25\n      swap2\n      swap1\n      tag_22\n      jump\t// in\n    tag_25:\n      mload(0x40)\n      dup1\n      swap2\n      sub\n      swap1\n      return\n        /* \"contracts/Service.sol\":5227:5459  function readMilestone(uint256 projectNumber, uint256 serviceNumber, uint256 milestoneNumber) public view returns (string memory , string memory ) {... */\n    tag_6:\n      tag_26\n      0x04\n      dup1\n      calldatasize\n      sub\n      dup2\n      add\n      swap1\n      tag_27\n      swap2\n      swap1\n      tag_28\n      jump\t// in\n    tag_27:\n      tag_29\n      jump\t// in\n    tag_26:\n      mload(0x40)\n      tag_30\n      swap3\n      swap2\n      swap1\n      tag_31\n      jump\t// in\n    tag_30:\n      mload(0x40)\n      dup1\n      swap2\n      sub\n      swap1\n      return\n        /* \"contracts/Service.sol\":3613:4111  function readService(uint256 projectNumber, uint256 serviceNumber) public view returns (string memory title, string memory description, uint256 price, uint256 currentMilestone) {... */\n    tag_7:\n      tag_32\n      0x04\n      dup1\n      calldatasize\n      sub\n      dup2\n      add\n      swap1\n      tag_33\n      swap2\n      swap1\n      tag_34\n      jump\t// in\n    tag_33:\n      tag_35\n      jump\t// in\n    tag_32:\n      mload(0x40)\n      tag_36\n      swap5\n      swap4\n      swap3\n      swap2\n      swap1\n      tag_37\n      jump\t// in\n    tag_36:\n      mload(0x40)\n      dup1\n      swap2\n      sub\n      swap1\n      return\n        /* \"contracts/Service.sol\":4646:4881  function deleteService(uint256 projectNumber, uint256 serviceNumber) public {... */\n    tag_8:\n      tag_38\n      0x04\n      dup1\n      calldatasize\n      sub\n      dup2\n      add\n      swap1\n      tag_39\n      swap2\n      swap1\n      tag_34\n      jump\t// in\n    tag_39:\n      tag_40\n      jump\t// in\n    tag_38:\n      stop\n        /* \"contracts/Service.sol\":4928:5179  function createMilestone(uint256 projectNumber, uint256 serviceNumber, string memory titleMilestone, string memory descriptionMilestone) public {... */\n    tag_9:\n      tag_41\n      0x04\n      dup1\n      calldatasize\n      sub\n      dup2\n      add\n      swap1\n      tag_42\n      swap2\n      swap1\n      tag_43\n      jump\t// in\n    tag_42:\n      tag_44\n      jump\t// in\n    tag_41:\n      stop\n        /* \"contracts/Service.sol\":4157:4601  function updateService(uint256 projectNumber, uint256 serviceNumber, string memory title, string memory description, uint256 price) public {... */\n    tag_10:\n      tag_45\n      0x04\n      dup1\n      calldatasize\n      sub\n      dup2\n      add\n      swap1\n      tag_46\n      swap2\n      swap1\n      tag_47\n      jump\t// in\n    tag_46:\n      tag_48\n      jump\t// in\n    tag_45:\n      stop\n        /* \"contracts/Service.sol\":3363:3568  function getTitle(uint256 projectNumber, uint256 serviceNumber) public view returns (string memory title) {... */\n    tag_11:\n      tag_49\n      0x04\n      dup1\n      calldatasize\n      sub\n      dup2\n      add\n      swap1\n      tag_50\n      swap2\n      swap1\n      tag_34\n      jump\t// in\n    tag_50:\n      tag_51\n      jump\t// in\n    tag_49:\n      mload(0x40)\n      tag_52\n      swap2\n      swap1\n      tag_53\n      jump\t// in\n    tag_52:\n      mload(0x40)\n      dup1\n      swap2\n      sub\n      swap1\n      return\n        /* \"contracts/Service.sol\":5849:6047  function deleteMilestone(uint256 projectNumber, uint256 serviceNumber, uint256 milestoneNumber) public {        ... */\n    tag_12:\n      tag_54\n      0x04\n      dup1\n      calldatasize\n      sub\n      dup2\n      add\n      swap1\n      tag_55\n      swap2\n      swap1\n      tag_28\n      jump\t// in\n    tag_55:\n      tag_56\n      jump\t// in\n    tag_54:\n      stop\n        /* \"contracts/Service.sol\":5510:5802  function updateMilestone(uint256 projectNumber, uint256 serviceNumber, uint256 milestoneNumber, string memory titleMilestone, string memory descriptionMilestone) public {... */\n    tag_13:\n      tag_57\n      0x04\n      dup1\n      calldatasize\n      sub\n      dup2\n      add\n      swap1\n      tag_58\n      swap2\n      swap1\n      tag_59\n      jump\t// in\n    tag_58:\n      tag_60\n      jump\t// in\n    tag_57:\n      stop\n        /* \"contracts/Service.sol\":2449:3357  function createService(uint256 projectNumber, string memory title, string memory description, uint256 price, address projectOwner) public requiredString(title) requiredString(description) {        ... */\n    tag_18:\n        /* \"contracts/Service.sol\":2602:2607  title */\n      dup4\n        /* \"contracts/Service.sol\":1816:1817  0 */\n      0x00\n        /* \"contracts/Service.sol\":1802:1805  str */\n      dup2\n        /* \"contracts/Service.sol\":1796:1813  bytes(str).length */\n      mload\n        /* \"contracts/Service.sol\":1796:1817  bytes(str).length > 0 */\n      gt\n        /* \"contracts/Service.sol\":1788:1843  require(bytes(str).length > 0, \"A string is required!\") */\n      tag_62\n      jumpi\n      mload(0x40)\n      0x08c379a000000000000000000000000000000000000000000000000000000000\n      dup2\n      mstore\n      0x04\n      add\n      tag_63\n      swap1\n      tag_64\n      jump\t// in\n    tag_63:\n      mload(0x40)\n      dup1\n      swap2\n      sub\n      swap1\n      revert\n    tag_62:\n        /* \"contracts/Service.sol\":2624:2635  description */\n      dup4\n        /* \"contracts/Service.sol\":1816:1817  0 */\n      0x00\n        /* \"contracts/Service.sol\":1802:1805  str */\n      dup2\n        /* \"contracts/Service.sol\":1796:1813  bytes(str).length */\n      mload\n        /* \"contracts/Service.sol\":1796:1817  bytes(str).length > 0 */\n      gt\n        /* \"contracts/Service.sol\":1788:1843  require(bytes(str).length > 0, \"A string is required!\") */\n      tag_66\n      jumpi\n      mload(0x40)\n      0x08c379a000000000000000000000000000000000000000000000000000000000\n      dup2\n      mstore\n      0x04\n      add\n      tag_67\n      swap1\n      tag_64\n      jump\t// in\n    tag_67:\n      mload(0x40)\n      dup1\n      swap2\n      sub\n      swap1\n      revert\n    tag_66:\n        /* \"contracts/Service.sol\":2671:2672  0 */\n      0x00\n        /* \"contracts/Service.sol\":2663:2668  price */\n      dup5\n        /* \"contracts/Service.sol\":2663:2672  price > 0 */\n      gt\n        /* \"contracts/Service.sol\":2655:2710  require(price > 0, \"A Service Price must be specified\") */\n      tag_69\n      jumpi\n      mload(0x40)\n      0x08c379a000000000000000000000000000000000000000000000000000000000\n      dup2\n      mstore\n      0x04\n      add\n      tag_70\n      swap1\n      tag_71\n      jump\t// in\n    tag_70:\n      mload(0x40)\n      dup1\n      swap2\n      sub\n      swap1\n      revert\n    tag_69:\n        /* \"contracts/Service.sol\":2721:2747  service storage newService */\n      0x00\n        /* \"contracts/Service.sol\":2750:2765  projectServices */\n      0x03\n        /* \"contracts/Service.sol\":2750:2780  projectServices[projectNumber] */\n      0x00\n        /* \"contracts/Service.sol\":2766:2779  projectNumber */\n      dup10\n        /* \"contracts/Service.sol\":2750:2780  projectServices[projectNumber] */\n      dup2\n      mstore\n      0x20\n      add\n      swap1\n      dup2\n      mstore\n      0x20\n      add\n      0x00\n      keccak256\n        /* \"contracts/Service.sol\":2750:2792  projectServices[projectNumber][serviceNum] */\n      0x00\n        /* \"contracts/Service.sol\":2781:2791  serviceNum */\n      sload(0x02)\n        /* \"contracts/Service.sol\":2750:2792  projectServices[projectNumber][serviceNum] */\n      dup2\n      mstore\n      0x20\n      add\n      swap1\n      dup2\n      mstore\n      0x20\n      add\n      0x00\n      keccak256\n        /* \"contracts/Service.sol\":2721:2792  service storage newService = projectServices[projectNumber][serviceNum] */\n      swap1\n      pop\n        /* \"contracts/Service.sol\":2829:2842  projectNumber */\n      dup8\n        /* \"contracts/Service.sol\":2802:2812  newService */\n      dup2\n        /* \"contracts/Service.sol\":2802:2826  newService.projectNumber */\n      0x00\n      add\n        /* \"contracts/Service.sol\":2802:2842  newService.projectNumber = projectNumber */\n      dup2\n      swap1\n      sstore\n      pop\n        /* \"contracts/Service.sol\":2879:2889  serviceNum */\n      sload(0x02)\n        /* \"contracts/Service.sol\":2852:2862  newService */\n      dup2\n        /* \"contracts/Service.sol\":2852:2876  newService.serviceNumber */\n      0x01\n      add\n        /* \"contracts/Service.sol\":2852:2889  newService.serviceNumber = serviceNum */\n      dup2\n      swap1\n      sstore\n      pop\n        /* \"contracts/Service.sol\":2918:2923  title */\n      dup7\n        /* \"contracts/Service.sol\":2899:2909  newService */\n      dup2\n        /* \"contracts/Service.sol\":2899:2915  newService.title */\n      0x02\n      add\n        /* \"contracts/Service.sol\":2899:2923  newService.title = title */\n      swap1\n      dup1\n      mload\n      swap1\n      0x20\n      add\n      swap1\n      tag_72\n      swap3\n      swap2\n      swap1\n      tag_73\n      jump\t// in\n    tag_72:\n      pop\n        /* \"contracts/Service.sol\":2958:2969  description */\n      dup6\n        /* \"contracts/Service.sol\":2933:2943  newService */\n      dup2\n        /* \"contracts/Service.sol\":2933:2955  newService.description */\n      0x03\n      add\n        /* \"contracts/Service.sol\":2933:2969  newService.description = description */\n      swap1\n      dup1\n      mload\n      swap1\n      0x20\n      add\n      swap1\n      tag_74\n      swap3\n      swap2\n      swap1\n      tag_73\n      jump\t// in\n    tag_74:\n      pop\n        /* \"contracts/Service.sol\":2998:3003  price */\n      dup5\n        /* \"contracts/Service.sol\":2979:2989  newService */\n      dup2\n        /* \"contracts/Service.sol\":2979:2995  newService.price */\n      0x04\n      add\n        /* \"contracts/Service.sol\":2979:3003  newService.price = price */\n      dup2\n      swap1\n      sstore\n      pop\n        /* \"contracts/Service.sol\":3043:3044  0 */\n      0x00\n        /* \"contracts/Service.sol\":3013:3023  newService */\n      dup2\n        /* \"contracts/Service.sol\":3013:3040  newService.currentMilestone */\n      0x05\n      add\n        /* \"contracts/Service.sol\":3013:3044  newService.currentMilestone = 0 */\n      dup2\n      swap1\n      sstore\n      pop\n        /* \"contracts/Service.sol\":3084:3096  projectOwner */\n      dup4\n        /* \"contracts/Service.sol\":3054:3064  newService */\n      dup2\n        /* \"contracts/Service.sol\":3054:3081  newService.serviceRequester */\n      0x06\n      add\n      0x00\n        /* \"contracts/Service.sol\":3054:3096  newService.serviceRequester = projectOwner */\n      0x0100\n      exp\n      dup2\n      sload\n      dup2\n      0xffffffffffffffffffffffffffffffffffffffff\n      mul\n      not\n      and\n      swap1\n      dup4\n      0xffffffffffffffffffffffffffffffffffffffff\n      and\n      mul\n      or\n      swap1\n      sstore\n      pop\n        /* \"contracts/Service.sol\":3143:3144  0 */\n      0x00\n        /* \"contracts/Service.sol\":3106:3116  newService */\n      dup2\n        /* \"contracts/Service.sol\":3106:3132  newService.serviceProvider */\n      0x07\n      add\n      0x00\n        /* \"contracts/Service.sol\":3106:3145  newService.serviceProvider = address(0) */\n      0x0100\n      exp\n      dup2\n      sload\n      dup2\n      0xffffffffffffffffffffffffffffffffffffffff\n      mul\n      not\n      and\n      swap1\n      dup4\n      0xffffffffffffffffffffffffffffffffffffffff\n      and\n      mul\n      or\n      swap1\n      sstore\n      pop\n        /* \"contracts/Service.sol\":3174:3178  true */\n      0x01\n        /* \"contracts/Service.sol\":3155:3165  newService */\n      dup2\n        /* \"contracts/Service.sol\":3155:3171  newService.exist */\n      0x07\n      add\n      0x14\n        /* \"contracts/Service.sol\":3155:3178  newService.exist = true */\n      0x0100\n      exp\n      dup2\n      sload\n      dup2\n      0xff\n      mul\n      not\n      and\n      swap1\n      dup4\n      iszero\n      iszero\n      mul\n      or\n      swap1\n      sstore\n      pop\n        /* \"contracts/Service.sol\":3208:3219  Status.none */\n      0x00\n        /* \"contracts/Service.sol\":3188:3198  newService */\n      dup2\n        /* \"contracts/Service.sol\":3188:3205  newService.status */\n      0x07\n      add\n      0x15\n        /* \"contracts/Service.sol\":3188:3219  newService.status = Status.none */\n      0x0100\n      exp\n      dup2\n      sload\n      dup2\n      0xff\n      mul\n      not\n      and\n      swap1\n      dup4\n      0x05\n      dup2\n      gt\n      iszero\n      tag_75\n      jumpi\n      tag_76\n      tag_77\n      jump\t// in\n    tag_76:\n    tag_75:\n      mul\n      or\n      swap1\n      sstore\n      pop\n        /* \"contracts/Service.sol\":3235:3303  serviceCreated(projectNumber, serviceNum, title, description, price) */\n      0xe8bc23dadb6cac9147246af11cc9afe29b7f5f524a2e539da4486da2196a78f1\n        /* \"contracts/Service.sol\":3250:3263  projectNumber */\n      dup9\n        /* \"contracts/Service.sol\":3265:3275  serviceNum */\n      sload(0x02)\n        /* \"contracts/Service.sol\":3277:3282  title */\n      dup10\n        /* \"contracts/Service.sol\":3284:3295  description */\n      dup10\n        /* \"contracts/Service.sol\":3297:3302  price */\n      dup10\n        /* \"contracts/Service.sol\":3235:3303  serviceCreated(projectNumber, serviceNum, title, description, price) */\n      mload(0x40)\n      tag_78\n      swap6\n      swap5\n      swap4\n      swap3\n      swap2\n      swap1\n      tag_79\n      jump\t// in\n    tag_78:\n      mload(0x40)\n      dup1\n      swap2\n      sub\n      swap1\n      log1\n        /* \"contracts/Service.sol\":3314:3326  serviceTotal */\n      0x01\n      0x00\n        /* \"contracts/Service.sol\":3314:3328  serviceTotal++ */\n      dup2\n      sload\n      dup1\n      swap3\n      swap2\n      swap1\n      tag_80\n      swap1\n      tag_81\n      jump\t// in\n    tag_80:\n      swap2\n      swap1\n      pop\n      sstore\n      pop\n        /* \"contracts/Service.sol\":3338:3348  serviceNum */\n      0x02\n      0x00\n        /* \"contracts/Service.sol\":3338:3350  serviceNum++ */\n      dup2\n      sload\n      dup1\n      swap3\n      swap2\n      swap1\n      tag_82\n      swap1\n      tag_81\n      jump\t// in\n    tag_82:\n      swap2\n      swap1\n      pop\n      sstore\n      pop\n        /* \"contracts/Service.sol\":2637:3357  {        ... */\n      pop\n        /* \"contracts/Service.sol\":1853:1854  _ */\n      pop\n        /* \"contracts/Service.sol\":2449:3357  function createService(uint256 projectNumber, string memory title, string memory description, uint256 price, address projectOwner) public requiredString(title) requiredString(description) {        ... */\n      pop\n      pop\n      pop\n      pop\n      pop\n      pop\n      jump\t// out\n        /* \"contracts/Service.sol\":1387:1418  uint256 public serviceTotal = 0 */\n    tag_20:\n      sload(0x01)\n      dup2\n      jump\t// out\n        /* \"contracts/Service.sol\":1488:1517  uint256 public serviceNum = 0 */\n    tag_24:\n      sload(0x02)\n      dup2\n      jump\t// out\n        /* \"contracts/Service.sol\":5227:5459  function readMilestone(uint256 projectNumber, uint256 serviceNumber, uint256 milestoneNumber) public view returns (string memory , string memory ) {... */\n    tag_29:\n        /* \"contracts/Service.sol\":5342:5355  string memory */\n      0x60\n        /* \"contracts/Service.sol\":5358:5371  string memory */\n      dup1\n        /* \"contracts/Service.sol\":5384:5393  milestone */\n      0x00\n      dup1\n      sload\n      swap1\n      0x0100\n      exp\n      swap1\n      div\n      0xffffffffffffffffffffffffffffffffffffffff\n      and\n        /* \"contracts/Service.sol\":5384:5407  milestone.readMilestone */\n      0xffffffffffffffffffffffffffffffffffffffff\n      and\n      0x49428a62\n        /* \"contracts/Service.sol\":5408:5421  projectNumber */\n      dup7\n        /* \"contracts/Service.sol\":5422:5435  serviceNumber */\n      dup7\n        /* \"contracts/Service.sol\":5436:5451  milestoneNumber */\n      dup7\n        /* \"contracts/Service.sol\":5384:5452  milestone.readMilestone(projectNumber,serviceNumber,milestoneNumber) */\n      mload(0x40)\n      dup5\n      0xffffffff\n      and\n      0xe0\n      shl\n      dup2\n      mstore\n      0x04\n      add\n      tag_84\n      swap4\n      swap3\n      swap2\n      swap1\n      tag_85\n      jump\t// in\n    tag_84:\n      0x00\n      mload(0x40)\n      dup1\n      dup4\n      sub\n      dup2\n      dup7\n      dup1\n      extcodesize\n      iszero\n      dup1\n      iszero\n      tag_86\n      jumpi\n      0x00\n      dup1\n      revert\n    tag_86:\n      pop\n      gas\n      staticcall\n      iszero\n      dup1\n      iszero\n      tag_88\n      jumpi\n      returndatasize\n      0x00\n      dup1\n      returndatacopy\n      revert(0x00, returndatasize)\n    tag_88:\n      pop\n      pop\n      pop\n      pop\n      mload(0x40)\n      returndatasize\n      0x00\n      dup3\n      returndatacopy\n      returndatasize\n      not(0x1f)\n      0x1f\n      dup3\n      add\n      and\n      dup3\n      add\n      dup1\n      0x40\n      mstore\n      pop\n      dup2\n      add\n      swap1\n      tag_89\n      swap2\n      swap1\n      tag_90\n      jump\t// in\n    tag_89:\n      pop\n      pop\n        /* \"contracts/Service.sol\":5227:5459  function readMilestone(uint256 projectNumber, uint256 serviceNumber, uint256 milestoneNumber) public view returns (string memory , string memory ) {... */\n      swap4\n      pop\n      swap4\n      swap2\n      pop\n      pop\n      jump\t// out\n        /* \"contracts/Service.sol\":3613:4111  function readService(uint256 projectNumber, uint256 serviceNumber) public view returns (string memory title, string memory description, uint256 price, uint256 currentMilestone) {... */\n    tag_35:\n        /* \"contracts/Service.sol\":3701:3720  string memory title */\n      0x60\n        /* \"contracts/Service.sol\":3722:3747  string memory description */\n      dup1\n        /* \"contracts/Service.sol\":3749:3762  uint256 price */\n      0x00\n        /* \"contracts/Service.sol\":3764:3788  uint256 currentMilestone */\n      dup1\n        /* \"contracts/Service.sol\":3831:3846  projectServices */\n      0x03\n        /* \"contracts/Service.sol\":3831:3861  projectServices[projectNumber] */\n      0x00\n        /* \"contracts/Service.sol\":3847:3860  projectNumber */\n      dup8\n        /* \"contracts/Service.sol\":3831:3861  projectServices[projectNumber] */\n      dup2\n      mstore\n      0x20\n      add\n      swap1\n      dup2\n      mstore\n      0x20\n      add\n      0x00\n      keccak256\n        /* \"contracts/Service.sol\":3831:3876  projectServices[projectNumber][serviceNumber] */\n      0x00\n        /* \"contracts/Service.sol\":3862:3875  serviceNumber */\n      dup7\n        /* \"contracts/Service.sol\":3831:3876  projectServices[projectNumber][serviceNumber] */\n      dup2\n      mstore\n      0x20\n      add\n      swap1\n      dup2\n      mstore\n      0x20\n      add\n      0x00\n      keccak256\n        /* \"contracts/Service.sol\":3831:3882  projectServices[projectNumber][serviceNumber].title */\n      0x02\n      add\n        /* \"contracts/Service.sol\":3896:3911  projectServices */\n      0x03\n        /* \"contracts/Service.sol\":3896:3926  projectServices[projectNumber] */\n      0x00\n        /* \"contracts/Service.sol\":3912:3925  projectNumber */\n      dup9\n        /* \"contracts/Service.sol\":3896:3926  projectServices[projectNumber] */\n      dup2\n      mstore\n      0x20\n      add\n      swap1\n      dup2\n      mstore\n      0x20\n      add\n      0x00\n      keccak256\n        /* \"contracts/Service.sol\":3896:3941  projectServices[projectNumber][serviceNumber] */\n      0x00\n        /* \"contracts/Service.sol\":3927:3940  serviceNumber */\n      dup8\n        /* \"contracts/Service.sol\":3896:3941  projectServices[projectNumber][serviceNumber] */\n      dup2\n      mstore\n      0x20\n      add\n      swap1\n      dup2\n      mstore\n      0x20\n      add\n      0x00\n      keccak256\n        /* \"contracts/Service.sol\":3896:3953  projectServices[projectNumber][serviceNumber].description */\n      0x03\n      add\n        /* \"contracts/Service.sol\":3967:3982  projectServices */\n      0x03\n        /* \"contracts/Service.sol\":3967:3997  projectServices[projectNumber] */\n      0x00\n        /* \"contracts/Service.sol\":3983:3996  projectNumber */\n      dup10\n        /* \"contracts/Service.sol\":3967:3997  projectServices[projectNumber] */\n      dup2\n      mstore\n      0x20\n      add\n      swap1\n      dup2\n      mstore\n      0x20\n      add\n      0x00\n      keccak256\n        /* \"contracts/Service.sol\":3967:4012  projectServices[projectNumber][serviceNumber] */\n      0x00\n        /* \"contracts/Service.sol\":3998:4011  serviceNumber */\n      dup9\n        /* \"contracts/Service.sol\":3967:4012  projectServices[projectNumber][serviceNumber] */\n      dup2\n      mstore\n      0x20\n      add\n      swap1\n      dup2\n      mstore\n      0x20\n      add\n      0x00\n      keccak256\n        /* \"contracts/Service.sol\":3967:4018  projectServices[projectNumber][serviceNumber].price */\n      0x04\n      add\n      sload\n        /* \"contracts/Service.sol\":4032:4047  projectServices */\n      0x03\n        /* \"contracts/Service.sol\":4032:4062  projectServices[projectNumber] */\n      0x00\n        /* \"contracts/Service.sol\":4048:4061  projectNumber */\n      dup11\n        /* \"contracts/Service.sol\":4032:4062  projectServices[projectNumber] */\n      dup2\n      mstore\n      0x20\n      add\n      swap1\n      dup2\n      mstore\n      0x20\n      add\n      0x00\n      keccak256\n        /* \"contracts/Service.sol\":4032:4077  projectServices[projectNumber][serviceNumber] */\n      0x00\n        /* \"contracts/Service.sol\":4063:4076  serviceNumber */\n      dup10\n        /* \"contracts/Service.sol\":4032:4077  projectServices[projectNumber][serviceNumber] */\n      dup2\n      mstore\n      0x20\n      add\n      swap1\n      dup2\n      mstore\n      0x20\n      add\n      0x00\n      keccak256\n        /* \"contracts/Service.sol\":4032:4094  projectServices[projectNumber][serviceNumber].currentMilestone */\n      0x05\n      add\n      sload\n        /* \"contracts/Service.sol\":3810:4104  return (... */\n      dup4\n      dup1\n      sload\n      tag_92\n      swap1\n      tag_93\n      jump\t// in\n    tag_92:\n      dup1\n      0x1f\n      add\n      0x20\n      dup1\n      swap2\n      div\n      mul\n      0x20\n      add\n      mload(0x40)\n      swap1\n      dup2\n      add\n      0x40\n      mstore\n      dup1\n      swap3\n      swap2\n      swap1\n      dup2\n      dup2\n      mstore\n      0x20\n      add\n      dup3\n      dup1\n      sload\n      tag_94\n      swap1\n      tag_93\n      jump\t// in\n    tag_94:\n      dup1\n      iszero\n      tag_95\n      jumpi\n      dup1\n      0x1f\n      lt\n      tag_96\n      jumpi\n      0x0100\n      dup1\n      dup4\n      sload\n      div\n      mul\n      dup4\n      mstore\n      swap2\n      0x20\n      add\n      swap2\n      jump(tag_95)\n    tag_96:\n      dup3\n      add\n      swap2\n      swap1\n      0x00\n      mstore\n      keccak256(0x00, 0x20)\n      swap1\n    tag_97:\n      dup2\n      sload\n      dup2\n      mstore\n      swap1\n      0x01\n      add\n      swap1\n      0x20\n      add\n      dup1\n      dup4\n      gt\n      tag_97\n      jumpi\n      dup3\n      swap1\n      sub\n      0x1f\n      and\n      dup3\n      add\n      swap2\n    tag_95:\n      pop\n      pop\n      pop\n      pop\n      pop\n      swap4\n      pop\n      dup3\n      dup1\n      sload\n      tag_98\n      swap1\n      tag_93\n      jump\t// in\n    tag_98:\n      dup1\n      0x1f\n      add\n      0x20\n      dup1\n      swap2\n      div\n      mul\n      0x20\n      add\n      mload(0x40)\n      swap1\n      dup2\n      add\n      0x40\n      mstore\n      dup1\n      swap3\n      swap2\n      swap1\n      dup2\n      dup2\n      mstore\n      0x20\n      add\n      dup3\n      dup1\n      sload\n      tag_99\n      swap1\n      tag_93\n      jump\t// in\n    tag_99:\n      dup1\n      iszero\n      tag_100\n      jumpi\n      dup1\n      0x1f\n      lt\n      tag_101\n      jumpi\n      0x0100\n      dup1\n      dup4\n      sload\n      div\n      mul\n      dup4\n      mstore\n      swap2\n      0x20\n      add\n      swap2\n      jump(tag_100)\n    tag_101:\n      dup3\n      add\n      swap2\n      swap1\n      0x00\n      mstore\n      keccak256(0x00, 0x20)\n      swap1\n    tag_102:\n      dup2\n      sload\n      dup2\n      mstore\n      swap1\n      0x01\n      add\n      swap1\n      0x20\n      add\n      dup1\n      dup4\n      gt\n      tag_102\n      jumpi\n      dup3\n      swap1\n      sub\n      0x1f\n      and\n      dup3\n      add\n      swap2\n    tag_100:\n      pop\n      pop\n      pop\n      pop\n      pop\n      swap3\n      pop\n      swap4\n      pop\n      swap4\n      pop\n      swap4\n      pop\n      swap4\n      pop\n        /* \"contracts/Service.sol\":3613:4111  function readService(uint256 projectNumber, uint256 serviceNumber) public view returns (string memory title, string memory description, uint256 price, uint256 currentMilestone) {... */\n      swap3\n      swap6\n      swap2\n      swap5\n      pop\n      swap3\n      pop\n      jump\t// out\n        /* \"contracts/Service.sol\":4646:4881  function deleteService(uint256 projectNumber, uint256 serviceNumber) public {... */\n    tag_40:\n        /* \"contracts/Service.sol\":4786:4791  false */\n      0x00\n        /* \"contracts/Service.sol\":4732:4747  projectServices */\n      0x03\n        /* \"contracts/Service.sol\":4732:4762  projectServices[projectNumber] */\n      0x00\n        /* \"contracts/Service.sol\":4748:4761  projectNumber */\n      dup5\n        /* \"contracts/Service.sol\":4732:4762  projectServices[projectNumber] */\n      dup2\n      mstore\n      0x20\n      add\n      swap1\n      dup2\n      mstore\n      0x20\n      add\n      0x00\n      keccak256\n        /* \"contracts/Service.sol\":4732:4777  projectServices[projectNumber][serviceNumber] */\n      0x00\n        /* \"contracts/Service.sol\":4763:4776  serviceNumber */\n      dup4\n        /* \"contracts/Service.sol\":4732:4777  projectServices[projectNumber][serviceNumber] */\n      dup2\n      mstore\n      0x20\n      add\n      swap1\n      dup2\n      mstore\n      0x20\n      add\n      0x00\n      keccak256\n        /* \"contracts/Service.sol\":4732:4783  projectServices[projectNumber][serviceNumber].exist */\n      0x07\n      add\n      0x14\n        /* \"contracts/Service.sol\":4732:4791  projectServices[projectNumber][serviceNumber].exist = false */\n      0x0100\n      exp\n      dup2\n      sload\n      dup2\n      0xff\n      mul\n      not\n      and\n      swap1\n      dup4\n      iszero\n      iszero\n      mul\n      or\n      swap1\n      sstore\n      pop\n        /* \"contracts/Service.sol\":4802:4814  serviceTotal */\n      0x01\n      0x00\n        /* \"contracts/Service.sol\":4802:4816  serviceTotal-- */\n      dup2\n      sload\n      dup1\n      swap3\n      swap2\n      swap1\n      tag_104\n      swap1\n      tag_105\n      jump\t// in\n    tag_104:\n      swap2\n      swap1\n      pop\n      sstore\n      pop\n        /* \"contracts/Service.sol\":4831:4874  serviceDeleted(projectNumber,serviceNumber) */\n      0x04579b03ce378bfed31ee6443865880dab0b281efac453deb39233352189863f\n        /* \"contracts/Service.sol\":4846:4859  projectNumber */\n      dup3\n        /* \"contracts/Service.sol\":4860:4873  serviceNumber */\n      dup3\n        /* \"contracts/Service.sol\":4831:4874  serviceDeleted(projectNumber,serviceNumber) */\n      mload(0x40)\n      tag_106\n      swap3\n      swap2\n      swap1\n      tag_107\n      jump\t// in\n    tag_106:\n      mload(0x40)\n      dup1\n      swap2\n      sub\n      swap1\n      log1\n        /* \"contracts/Service.sol\":4646:4881  function deleteService(uint256 projectNumber, uint256 serviceNumber) public {... */\n      pop\n      pop\n      jump\t// out\n        /* \"contracts/Service.sol\":4928:5179  function createMilestone(uint256 projectNumber, uint256 serviceNumber, string memory titleMilestone, string memory descriptionMilestone) public {... */\n    tag_44:\n        /* \"contracts/Service.sol\":5082:5091  milestone */\n      0x00\n      dup1\n      sload\n      swap1\n      0x0100\n      exp\n      swap1\n      div\n      0xffffffffffffffffffffffffffffffffffffffff\n      and\n        /* \"contracts/Service.sol\":5082:5107  milestone.createMilestone */\n      0xffffffffffffffffffffffffffffffffffffffff\n      and\n      0x63ef8a50\n        /* \"contracts/Service.sol\":5108:5121  projectNumber */\n      dup6\n        /* \"contracts/Service.sol\":5122:5135  serviceNumber */\n      dup6\n        /* \"contracts/Service.sol\":5136:5150  titleMilestone */\n      dup6\n        /* \"contracts/Service.sol\":5151:5171  descriptionMilestone */\n      dup6\n        /* \"contracts/Service.sol\":5082:5172  milestone.createMilestone(projectNumber,serviceNumber,titleMilestone,descriptionMilestone) */\n      mload(0x40)\n      dup6\n      0xffffffff\n      and\n      0xe0\n      shl\n      dup2\n      mstore\n      0x04\n      add\n      tag_109\n      swap5\n      swap4\n      swap3\n      swap2\n      swap1\n      tag_110\n      jump\t// in\n    tag_109:\n      0x00\n      mload(0x40)\n      dup1\n      dup4\n      sub\n      dup2\n      0x00\n      dup8\n      dup1\n      extcodesize\n      iszero\n      dup1\n      iszero\n      tag_111\n      jumpi\n      0x00\n      dup1\n      revert\n    tag_111:\n      pop\n      gas\n      call\n      iszero\n      dup1\n      iszero\n      tag_113\n      jumpi\n      returndatasize\n      0x00\n      dup1\n      returndatacopy\n      revert(0x00, returndatasize)\n    tag_113:\n      pop\n      pop\n      pop\n      pop\n        /* \"contracts/Service.sol\":4928:5179  function createMilestone(uint256 projectNumber, uint256 serviceNumber, string memory titleMilestone, string memory descriptionMilestone) public {... */\n      pop\n      pop\n      pop\n      pop\n      jump\t// out\n        /* \"contracts/Service.sol\":4157:4601  function updateService(uint256 projectNumber, uint256 serviceNumber, string memory title, string memory description, uint256 price) public {... */\n    tag_48:\n        /* \"contracts/Service.sol\":4358:4363  title */\n      dup3\n        /* \"contracts/Service.sol\":4307:4322  projectServices */\n      0x03\n        /* \"contracts/Service.sol\":4307:4337  projectServices[projectNumber] */\n      0x00\n        /* \"contracts/Service.sol\":4323:4336  projectNumber */\n      dup8\n        /* \"contracts/Service.sol\":4307:4337  projectServices[projectNumber] */\n      dup2\n      mstore\n      0x20\n      add\n      swap1\n      dup2\n      mstore\n      0x20\n      add\n      0x00\n      keccak256\n        /* \"contracts/Service.sol\":4307:4349  projectServices[projectNumber][serviceNum] */\n      0x00\n        /* \"contracts/Service.sol\":4338:4348  serviceNum */\n      sload(0x02)\n        /* \"contracts/Service.sol\":4307:4349  projectServices[projectNumber][serviceNum] */\n      dup2\n      mstore\n      0x20\n      add\n      swap1\n      dup2\n      mstore\n      0x20\n      add\n      0x00\n      keccak256\n        /* \"contracts/Service.sol\":4307:4355  projectServices[projectNumber][serviceNum].title */\n      0x02\n      add\n        /* \"contracts/Service.sol\":4307:4363  projectServices[projectNumber][serviceNum].title = title */\n      swap1\n      dup1\n      mload\n      swap1\n      0x20\n      add\n      swap1\n      tag_115\n      swap3\n      swap2\n      swap1\n      tag_73\n      jump\t// in\n    tag_115:\n      pop\n        /* \"contracts/Service.sol\":4430:4441  description */\n      dup2\n        /* \"contracts/Service.sol\":4373:4388  projectServices */\n      0x03\n        /* \"contracts/Service.sol\":4373:4403  projectServices[projectNumber] */\n      0x00\n        /* \"contracts/Service.sol\":4389:4402  projectNumber */\n      dup8\n        /* \"contracts/Service.sol\":4373:4403  projectServices[projectNumber] */\n      dup2\n      mstore\n      0x20\n      add\n      swap1\n      dup2\n      mstore\n      0x20\n      add\n      0x00\n      keccak256\n        /* \"contracts/Service.sol\":4373:4415  projectServices[projectNumber][serviceNum] */\n      0x00\n        /* \"contracts/Service.sol\":4404:4414  serviceNum */\n      sload(0x02)\n        /* \"contracts/Service.sol\":4373:4415  projectServices[projectNumber][serviceNum] */\n      dup2\n      mstore\n      0x20\n      add\n      swap1\n      dup2\n      mstore\n      0x20\n      add\n      0x00\n      keccak256\n        /* \"contracts/Service.sol\":4373:4427  projectServices[projectNumber][serviceNum].description */\n      0x03\n      add\n        /* \"contracts/Service.sol\":4373:4441  projectServices[projectNumber][serviceNum].description = description */\n      swap1\n      dup1\n      mload\n      swap1\n      0x20\n      add\n      swap1\n      tag_116\n      swap3\n      swap2\n      swap1\n      tag_73\n      jump\t// in\n    tag_116:\n      pop\n        /* \"contracts/Service.sol\":4502:4507  price */\n      dup1\n        /* \"contracts/Service.sol\":4451:4466  projectServices */\n      0x03\n        /* \"contracts/Service.sol\":4451:4481  projectServices[projectNumber] */\n      0x00\n        /* \"contracts/Service.sol\":4467:4480  projectNumber */\n      dup8\n        /* \"contracts/Service.sol\":4451:4481  projectServices[projectNumber] */\n      dup2\n      mstore\n      0x20\n      add\n      swap1\n      dup2\n      mstore\n      0x20\n      add\n      0x00\n      keccak256\n        /* \"contracts/Service.sol\":4451:4493  projectServices[projectNumber][serviceNum] */\n      0x00\n        /* \"contracts/Service.sol\":4482:4492  serviceNum */\n      sload(0x02)\n        /* \"contracts/Service.sol\":4451:4493  projectServices[projectNumber][serviceNum] */\n      dup2\n      mstore\n      0x20\n      add\n      swap1\n      dup2\n      mstore\n      0x20\n      add\n      0x00\n      keccak256\n        /* \"contracts/Service.sol\":4451:4499  projectServices[projectNumber][serviceNum].price */\n      0x04\n      add\n        /* \"contracts/Service.sol\":4451:4507  projectServices[projectNumber][serviceNum].price = price */\n      dup2\n      swap1\n      sstore\n      pop\n        /* \"contracts/Service.sol\":4523:4594  serviceUpdated(projectNumber, serviceNumber, title, description, price) */\n      0x68dd1fad96ebc5f1740866ec07701d4ab66240c086d6ae6d351ee74eacdf267e\n        /* \"contracts/Service.sol\":4538:4551  projectNumber */\n      dup6\n        /* \"contracts/Service.sol\":4553:4566  serviceNumber */\n      dup6\n        /* \"contracts/Service.sol\":4568:4573  title */\n      dup6\n        /* \"contracts/Service.sol\":4575:4586  description */\n      dup6\n        /* \"contracts/Service.sol\":4588:4593  price */\n      dup6\n        /* \"contracts/Service.sol\":4523:4594  serviceUpdated(projectNumber, serviceNumber, title, description, price) */\n      mload(0x40)\n      tag_117\n      swap6\n      swap5\n      swap4\n      swap3\n      swap2\n      swap1\n      tag_79\n      jump\t// in\n    tag_117:\n      mload(0x40)\n      dup1\n      swap2\n      sub\n      swap1\n      log1\n        /* \"contracts/Service.sol\":4157:4601  function updateService(uint256 projectNumber, uint256 serviceNumber, string memory title, string memory description, uint256 price) public {... */\n      pop\n      pop\n      pop\n      pop\n      pop\n      jump\t// out\n        /* \"contracts/Service.sol\":3363:3568  function getTitle(uint256 projectNumber, uint256 serviceNumber) public view returns (string memory title) {... */\n    tag_51:\n        /* \"contracts/Service.sol\":3448:3467  string memory title */\n      0x60\n        /* \"contracts/Service.sol\":3500:3515  projectServices */\n      0x03\n        /* \"contracts/Service.sol\":3500:3530  projectServices[projectNumber] */\n      0x00\n        /* \"contracts/Service.sol\":3516:3529  projectNumber */\n      dup5\n        /* \"contracts/Service.sol\":3500:3530  projectServices[projectNumber] */\n      dup2\n      mstore\n      0x20\n      add\n      swap1\n      dup2\n      mstore\n      0x20\n      add\n      0x00\n      keccak256\n        /* \"contracts/Service.sol\":3500:3545  projectServices[projectNumber][serviceNumber] */\n      0x00\n        /* \"contracts/Service.sol\":3531:3544  serviceNumber */\n      dup4\n        /* \"contracts/Service.sol\":3500:3545  projectServices[projectNumber][serviceNumber] */\n      dup2\n      mstore\n      0x20\n      add\n      swap1\n      dup2\n      mstore\n      0x20\n      add\n      0x00\n      keccak256\n        /* \"contracts/Service.sol\":3500:3551  projectServices[projectNumber][serviceNumber].title */\n      0x02\n      add\n        /* \"contracts/Service.sol\":3479:3561  return (... */\n      dup1\n      sload\n      tag_119\n      swap1\n      tag_93\n      jump\t// in\n    tag_119:\n      dup1\n      0x1f\n      add\n      0x20\n      dup1\n      swap2\n      div\n      mul\n      0x20\n      add\n      mload(0x40)\n      swap1\n      dup2\n      add\n      0x40\n      mstore\n      dup1\n      swap3\n      swap2\n      swap1\n      dup2\n      dup2\n      mstore\n      0x20\n      add\n      dup3\n      dup1\n      sload\n      tag_120\n      swap1\n      tag_93\n      jump\t// in\n    tag_120:\n      dup1\n      iszero\n      tag_121\n      jumpi\n      dup1\n      0x1f\n      lt\n      tag_122\n      jumpi\n      0x0100\n      dup1\n      dup4\n      sload\n      div\n      mul\n      dup4\n      mstore\n      swap2\n      0x20\n      add\n      swap2\n      jump(tag_121)\n    tag_122:\n      dup3\n      add\n      swap2\n      swap1\n      0x00\n      mstore\n      keccak256(0x00, 0x20)\n      swap1\n    tag_123:\n      dup2\n      sload\n      dup2\n      mstore\n      swap1\n      0x01\n      add\n      swap1\n      0x20\n      add\n      dup1\n      dup4\n      gt\n      tag_123\n      jumpi\n      dup3\n      swap1\n      sub\n      0x1f\n      and\n      dup3\n      add\n      swap2\n    tag_121:\n      pop\n      pop\n      pop\n      pop\n      pop\n      swap1\n      pop\n        /* \"contracts/Service.sol\":3363:3568  function getTitle(uint256 projectNumber, uint256 serviceNumber) public view returns (string memory title) {... */\n      swap3\n      swap2\n      pop\n      pop\n      jump\t// out\n        /* \"contracts/Service.sol\":5849:6047  function deleteMilestone(uint256 projectNumber, uint256 serviceNumber, uint256 milestoneNumber) public {        ... */\n    tag_56:\n        /* \"contracts/Service.sol\":5970:5979  milestone */\n      0x00\n      dup1\n      sload\n      swap1\n      0x0100\n      exp\n      swap1\n      div\n      0xffffffffffffffffffffffffffffffffffffffff\n      and\n        /* \"contracts/Service.sol\":5970:5995  milestone.deleteMilestone */\n      0xffffffffffffffffffffffffffffffffffffffff\n      and\n      0xb9b6c5d4\n        /* \"contracts/Service.sol\":5996:6009  projectNumber */\n      dup5\n        /* \"contracts/Service.sol\":6010:6023  serviceNumber */\n      dup5\n        /* \"contracts/Service.sol\":6024:6039  milestoneNumber */\n      dup5\n        /* \"contracts/Service.sol\":5970:6040  milestone.deleteMilestone(projectNumber,serviceNumber,milestoneNumber) */\n      mload(0x40)\n      dup5\n      0xffffffff\n      and\n      0xe0\n      shl\n      dup2\n      mstore\n      0x04\n      add\n      tag_125\n      swap4\n      swap3\n      swap2\n      swap1\n      tag_85\n      jump\t// in\n    tag_125:\n      0x00\n      mload(0x40)\n      dup1\n      dup4\n      sub\n      dup2\n      0x00\n      dup8\n      dup1\n      extcodesize\n      iszero\n      dup1\n      iszero\n      tag_126\n      jumpi\n      0x00\n      dup1\n      revert\n    tag_126:\n      pop\n      gas\n      call\n      iszero\n      dup1\n      iszero\n      tag_128\n      jumpi\n      returndatasize\n      0x00\n      dup1\n      returndatacopy\n      revert(0x00, returndatasize)\n    tag_128:\n      pop\n      pop\n      pop\n      pop\n        /* \"contracts/Service.sol\":5849:6047  function deleteMilestone(uint256 projectNumber, uint256 serviceNumber, uint256 milestoneNumber) public {        ... */\n      pop\n      pop\n      pop\n      jump\t// out\n        /* \"contracts/Service.sol\":5510:5802  function updateMilestone(uint256 projectNumber, uint256 serviceNumber, uint256 milestoneNumber, string memory titleMilestone, string memory descriptionMilestone) public {... */\n    tag_60:\n        /* \"contracts/Service.sol\":5689:5698  milestone */\n      0x00\n      dup1\n      sload\n      swap1\n      0x0100\n      exp\n      swap1\n      div\n      0xffffffffffffffffffffffffffffffffffffffff\n      and\n        /* \"contracts/Service.sol\":5689:5714  milestone.updateMilestone */\n      0xffffffffffffffffffffffffffffffffffffffff\n      and\n      0xfd23c4bb\n        /* \"contracts/Service.sol\":5715:5728  projectNumber */\n      dup7\n        /* \"contracts/Service.sol\":5729:5742  serviceNumber */\n      dup7\n        /* \"contracts/Service.sol\":5743:5758  milestoneNumber */\n      dup7\n        /* \"contracts/Service.sol\":5759:5773  titleMilestone */\n      dup7\n        /* \"contracts/Service.sol\":5774:5794  descriptionMilestone */\n      dup7\n        /* \"contracts/Service.sol\":5689:5795  milestone.updateMilestone(projectNumber,serviceNumber,milestoneNumber,titleMilestone,descriptionMilestone) */\n      mload(0x40)\n      dup7\n      0xffffffff\n      and\n      0xe0\n      shl\n      dup2\n      mstore\n      0x04\n      add\n      tag_130\n      swap6\n      swap5\n      swap4\n      swap3\n      swap2\n      swap1\n      tag_131\n      jump\t// in\n    tag_130:\n      0x00\n      mload(0x40)\n      dup1\n      dup4\n      sub\n      dup2\n      0x00\n      dup8\n      dup1\n      extcodesize\n      iszero\n      dup1\n      iszero\n      tag_132\n      jumpi\n      0x00\n      dup1\n      revert\n    tag_132:\n      pop\n      gas\n      call\n      iszero\n      dup1\n      iszero\n      tag_134\n      jumpi\n      returndatasize\n      0x00\n      dup1\n      returndatacopy\n      revert(0x00, returndatasize)\n    tag_134:\n      pop\n      pop\n      pop\n      pop\n        /* \"contracts/Service.sol\":5510:5802  function updateMilestone(uint256 projectNumber, uint256 serviceNumber, uint256 milestoneNumber, string memory titleMilestone, string memory descriptionMilestone) public {... */\n      pop\n      pop\n      pop\n      pop\n      pop\n      jump\t// out\n    tag_73:\n      dup3\n      dup1\n      sload\n      tag_135\n      swap1\n      tag_93\n      jump\t// in\n    tag_135:\n      swap1\n      0x00\n      mstore\n      keccak256(0x00, 0x20)\n      swap1\n      0x1f\n      add\n      0x20\n      swap1\n      div\n      dup2\n      add\n      swap3\n      dup3\n      tag_137\n      jumpi\n      0x00\n      dup6\n      sstore\n      jump(tag_136)\n    tag_137:\n      dup3\n      0x1f\n      lt\n      tag_138\n      jumpi\n      dup1\n      mload\n      not(0xff)\n      and\n      dup4\n      dup1\n      add\n      or\n      dup6\n      sstore\n      jump(tag_136)\n    tag_138:\n      dup3\n      dup1\n      add\n      0x01\n      add\n      dup6\n      sstore\n      dup3\n      iszero\n      tag_136\n      jumpi\n      swap2\n      dup3\n      add\n    tag_139:\n      dup3\n      dup2\n      gt\n      iszero\n      tag_140\n      jumpi\n      dup3\n      mload\n      dup3\n      sstore\n      swap2\n      0x20\n      add\n      swap2\n      swap1\n      0x01\n      add\n      swap1\n      jump(tag_139)\n    tag_140:\n    tag_136:\n      pop\n      swap1\n      pop\n      tag_141\n      swap2\n      swap1\n      tag_142\n      jump\t// in\n    tag_141:\n      pop\n      swap1\n      jump\t// out\n    tag_142:\n    tag_143:\n      dup1\n      dup3\n      gt\n      iszero\n      tag_144\n      jumpi\n      0x00\n      dup2\n      0x00\n      swap1\n      sstore\n      pop\n      0x01\n      add\n      jump(tag_143)\n    tag_144:\n      pop\n      swap1\n      jump\t// out\n        /* \"#utility.yul\":7:419   */\n    tag_146:\n        /* \"#utility.yul\":85:90   */\n      0x00\n        /* \"#utility.yul\":110:176   */\n      tag_148\n        /* \"#utility.yul\":126:175   */\n      tag_149\n        /* \"#utility.yul\":168:174   */\n      dup5\n        /* \"#utility.yul\":126:175   */\n      tag_150\n      jump\t// in\n    tag_149:\n        /* \"#utility.yul\":110:176   */\n      tag_151\n      jump\t// in\n    tag_148:\n        /* \"#utility.yul\":101:176   */\n      swap1\n      pop\n        /* \"#utility.yul\":199:205   */\n      dup3\n        /* \"#utility.yul\":192:197   */\n      dup2\n        /* \"#utility.yul\":185:206   */\n      mstore\n        /* \"#utility.yul\":237:241   */\n      0x20\n        /* \"#utility.yul\":230:235   */\n      dup2\n        /* \"#utility.yul\":226:242   */\n      add\n        /* \"#utility.yul\":275:278   */\n      dup5\n        /* \"#utility.yul\":266:272   */\n      dup5\n        /* \"#utility.yul\":261:264   */\n      dup5\n        /* \"#utility.yul\":257:273   */\n      add\n        /* \"#utility.yul\":254:279   */\n      gt\n        /* \"#utility.yul\":251:363   */\n      iszero\n      tag_152\n      jumpi\n        /* \"#utility.yul\":282:361   */\n      tag_153\n      tag_154\n      jump\t// in\n    tag_153:\n        /* \"#utility.yul\":251:363   */\n    tag_152:\n        /* \"#utility.yul\":372:413   */\n      tag_155\n        /* \"#utility.yul\":406:412   */\n      dup5\n        /* \"#utility.yul\":401:404   */\n      dup3\n        /* \"#utility.yul\":396:399   */\n      dup6\n        /* \"#utility.yul\":372:413   */\n      tag_156\n      jump\t// in\n    tag_155:\n        /* \"#utility.yul\":91:419   */\n      pop\n        /* \"#utility.yul\":7:419   */\n      swap4\n      swap3\n      pop\n      pop\n      pop\n      jump\t// out\n        /* \"#utility.yul\":425:846   */\n    tag_157:\n        /* \"#utility.yul\":514:519   */\n      0x00\n        /* \"#utility.yul\":539:605   */\n      tag_159\n        /* \"#utility.yul\":555:604   */\n      tag_160\n        /* \"#utility.yul\":597:603   */\n      dup5\n        /* \"#utility.yul\":555:604   */\n      tag_150\n      jump\t// in\n    tag_160:\n        /* \"#utility.yul\":539:605   */\n      tag_151\n      jump\t// in\n    tag_159:\n        /* \"#utility.yul\":530:605   */\n      swap1\n      pop\n        /* \"#utility.yul\":628:634   */\n      dup3\n        /* \"#utility.yul\":621:626   */\n      dup2\n        /* \"#utility.yul\":614:635   */\n      mstore\n        /* \"#utility.yul\":666:670   */\n      0x20\n        /* \"#utility.yul\":659:664   */\n      dup2\n        /* \"#utility.yul\":655:671   */\n      add\n        /* \"#utility.yul\":704:707   */\n      dup5\n        /* \"#utility.yul\":695:701   */\n      dup5\n        /* \"#utility.yul\":690:693   */\n      dup5\n        /* \"#utility.yul\":686:702   */\n      add\n        /* \"#utility.yul\":683:708   */\n      gt\n        /* \"#utility.yul\":680:792   */\n      iszero\n      tag_161\n      jumpi\n        /* \"#utility.yul\":711:790   */\n      tag_162\n      tag_154\n      jump\t// in\n    tag_162:\n        /* \"#utility.yul\":680:792   */\n    tag_161:\n        /* \"#utility.yul\":801:840   */\n      tag_163\n        /* \"#utility.yul\":833:839   */\n      dup5\n        /* \"#utility.yul\":828:831   */\n      dup3\n        /* \"#utility.yul\":823:826   */\n      dup6\n        /* \"#utility.yul\":801:840   */\n      tag_164\n      jump\t// in\n    tag_163:\n        /* \"#utility.yul\":520:846   */\n      pop\n        /* \"#utility.yul\":425:846   */\n      swap4\n      swap3\n      pop\n      pop\n      pop\n      jump\t// out\n        /* \"#utility.yul\":852:991   */\n    tag_165:\n        /* \"#utility.yul\":898:903   */\n      0x00\n        /* \"#utility.yul\":936:942   */\n      dup2\n        /* \"#utility.yul\":923:943   */\n      calldataload\n        /* \"#utility.yul\":914:943   */\n      swap1\n      pop\n        /* \"#utility.yul\":952:985   */\n      tag_167\n        /* \"#utility.yul\":979:984   */\n      dup2\n        /* \"#utility.yul\":952:985   */\n      tag_168\n      jump\t// in\n    tag_167:\n        /* \"#utility.yul\":852:991   */\n      swap3\n      swap2\n      pop\n      pop\n      jump\t// out\n        /* \"#utility.yul\":1011:1351   */\n    tag_169:\n        /* \"#utility.yul\":1067:1072   */\n      0x00\n        /* \"#utility.yul\":1116:1119   */\n      dup3\n        /* \"#utility.yul\":1109:1113   */\n      0x1f\n        /* \"#utility.yul\":1101:1107   */\n      dup4\n        /* \"#utility.yul\":1097:1114   */\n      add\n        /* \"#utility.yul\":1093:1120   */\n      slt\n        /* \"#utility.yul\":1083:1205   */\n      tag_171\n      jumpi\n        /* \"#utility.yul\":1124:1203   */\n      tag_172\n      tag_173\n      jump\t// in\n    tag_172:\n        /* \"#utility.yul\":1083:1205   */\n    tag_171:\n        /* \"#utility.yul\":1241:1247   */\n      dup2\n        /* \"#utility.yul\":1228:1248   */\n      calldataload\n        /* \"#utility.yul\":1266:1345   */\n      tag_174\n        /* \"#utility.yul\":1341:1344   */\n      dup5\n        /* \"#utility.yul\":1333:1339   */\n      dup3\n        /* \"#utility.yul\":1326:1330   */\n      0x20\n        /* \"#utility.yul\":1318:1324   */\n      dup7\n        /* \"#utility.yul\":1314:1331   */\n      add\n        /* \"#utility.yul\":1266:1345   */\n      tag_146\n      jump\t// in\n    tag_174:\n        /* \"#utility.yul\":1257:1345   */\n      swap2\n      pop\n        /* \"#utility.yul\":1073:1351   */\n      pop\n        /* \"#utility.yul\":1011:1351   */\n      swap3\n      swap2\n      pop\n      pop\n      jump\t// out\n        /* \"#utility.yul\":1371:1726   */\n    tag_175:\n        /* \"#utility.yul\":1438:1443   */\n      0x00\n        /* \"#utility.yul\":1487:1490   */\n      dup3\n        /* \"#utility.yul\":1480:1484   */\n      0x1f\n        /* \"#utility.yul\":1472:1478   */\n      dup4\n        /* \"#utility.yul\":1468:1485   */\n      add\n        /* \"#utility.yul\":1464:1491   */\n      slt\n        /* \"#utility.yul\":1454:1576   */\n      tag_177\n      jumpi\n        /* \"#utility.yul\":1495:1574   */\n      tag_178\n      tag_173\n      jump\t// in\n    tag_178:\n        /* \"#utility.yul\":1454:1576   */\n    tag_177:\n        /* \"#utility.yul\":1605:1611   */\n      dup2\n        /* \"#utility.yul\":1599:1612   */\n      mload\n        /* \"#utility.yul\":1630:1720   */\n      tag_179\n        /* \"#utility.yul\":1716:1719   */\n      dup5\n        /* \"#utility.yul\":1708:1714   */\n      dup3\n        /* \"#utility.yul\":1701:1705   */\n      0x20\n        /* \"#utility.yul\":1693:1699   */\n      dup7\n        /* \"#utility.yul\":1689:1706   */\n      add\n        /* \"#utility.yul\":1630:1720   */\n      tag_157\n      jump\t// in\n    tag_179:\n        /* \"#utility.yul\":1621:1720   */\n      swap2\n      pop\n        /* \"#utility.yul\":1444:1726   */\n      pop\n        /* \"#utility.yul\":1371:1726   */\n      swap3\n      swap2\n      pop\n      pop\n      jump\t// out\n        /* \"#utility.yul\":1732:1871   */\n    tag_180:\n        /* \"#utility.yul\":1778:1783   */\n      0x00\n        /* \"#utility.yul\":1816:1822   */\n      dup2\n        /* \"#utility.yul\":1803:1823   */\n      calldataload\n        /* \"#utility.yul\":1794:1823   */\n      swap1\n      pop\n        /* \"#utility.yul\":1832:1865   */\n      tag_182\n        /* \"#utility.yul\":1859:1864   */\n      dup2\n        /* \"#utility.yul\":1832:1865   */\n      tag_183\n      jump\t// in\n    tag_182:\n        /* \"#utility.yul\":1732:1871   */\n      swap3\n      swap2\n      pop\n      pop\n      jump\t// out\n        /* \"#utility.yul\":1877:2730   */\n    tag_90:\n        /* \"#utility.yul\":1976:1982   */\n      0x00\n        /* \"#utility.yul\":1984:1990   */\n      dup1\n        /* \"#utility.yul\":2033:2035   */\n      0x40\n        /* \"#utility.yul\":2021:2030   */\n      dup4\n        /* \"#utility.yul\":2012:2019   */\n      dup6\n        /* \"#utility.yul\":2008:2031   */\n      sub\n        /* \"#utility.yul\":2004:2036   */\n      slt\n        /* \"#utility.yul\":2001:2120   */\n      iszero\n      tag_185\n      jumpi\n        /* \"#utility.yul\":2039:2118   */\n      tag_186\n      tag_187\n      jump\t// in\n    tag_186:\n        /* \"#utility.yul\":2001:2120   */\n    tag_185:\n        /* \"#utility.yul\":2180:2181   */\n      0x00\n        /* \"#utility.yul\":2169:2178   */\n      dup4\n        /* \"#utility.yul\":2165:2182   */\n      add\n        /* \"#utility.yul\":2159:2183   */\n      mload\n        /* \"#utility.yul\":2210:2228   */\n      0xffffffffffffffff\n        /* \"#utility.yul\":2202:2208   */\n      dup2\n        /* \"#utility.yul\":2199:2229   */\n      gt\n        /* \"#utility.yul\":2196:2313   */\n      iszero\n      tag_188\n      jumpi\n        /* \"#utility.yul\":2232:2311   */\n      tag_189\n      tag_190\n      jump\t// in\n    tag_189:\n        /* \"#utility.yul\":2196:2313   */\n    tag_188:\n        /* \"#utility.yul\":2337:2411   */\n      tag_191\n        /* \"#utility.yul\":2403:2410   */\n      dup6\n        /* \"#utility.yul\":2394:2400   */\n      dup3\n        /* \"#utility.yul\":2383:2392   */\n      dup7\n        /* \"#utility.yul\":2379:2401   */\n      add\n        /* \"#utility.yul\":2337:2411   */\n      tag_175\n      jump\t// in\n    tag_191:\n        /* \"#utility.yul\":2327:2411   */\n      swap3\n      pop\n        /* \"#utility.yul\":2130:2421   */\n      pop\n        /* \"#utility.yul\":2481:2483   */\n      0x20\n        /* \"#utility.yul\":2470:2479   */\n      dup4\n        /* \"#utility.yul\":2466:2484   */\n      add\n        /* \"#utility.yul\":2460:2485   */\n      mload\n        /* \"#utility.yul\":2512:2530   */\n      0xffffffffffffffff\n        /* \"#utility.yul\":2504:2510   */\n      dup2\n        /* \"#utility.yul\":2501:2531   */\n      gt\n        /* \"#utility.yul\":2498:2615   */\n      iszero\n      tag_192\n      jumpi\n        /* \"#utility.yul\":2534:2613   */\n      tag_193\n      tag_190\n      jump\t// in\n    tag_193:\n        /* \"#utility.yul\":2498:2615   */\n    tag_192:\n        /* \"#utility.yul\":2639:2713   */\n      tag_194\n        /* \"#utility.yul\":2705:2712   */\n      dup6\n        /* \"#utility.yul\":2696:2702   */\n      dup3\n        /* \"#utility.yul\":2685:2694   */\n      dup7\n        /* \"#utility.yul\":2681:2703   */\n      add\n        /* \"#utility.yul\":2639:2713   */\n      tag_175\n      jump\t// in\n    tag_194:\n        /* \"#utility.yul\":2629:2713   */\n      swap2\n      pop\n        /* \"#utility.yul\":2431:2723   */\n      pop\n        /* \"#utility.yul\":1877:2730   */\n      swap3\n      pop\n      swap3\n      swap1\n      pop\n      jump\t// out\n        /* \"#utility.yul\":2736:4007   */\n    tag_17:\n        /* \"#utility.yul\":2851:2857   */\n      0x00\n        /* \"#utility.yul\":2859:2865   */\n      dup1\n        /* \"#utility.yul\":2867:2873   */\n      0x00\n        /* \"#utility.yul\":2875:2881   */\n      dup1\n        /* \"#utility.yul\":2883:2889   */\n      0x00\n        /* \"#utility.yul\":2932:2935   */\n      0xa0\n        /* \"#utility.yul\":2920:2929   */\n      dup7\n        /* \"#utility.yul\":2911:2918   */\n      dup9\n        /* \"#utility.yul\":2907:2930   */\n      sub\n        /* \"#utility.yul\":2903:2936   */\n      slt\n        /* \"#utility.yul\":2900:3020   */\n      iszero\n      tag_196\n      jumpi\n        /* \"#utility.yul\":2939:3018   */\n      tag_197\n      tag_187\n      jump\t// in\n    tag_197:\n        /* \"#utility.yul\":2900:3020   */\n    tag_196:\n        /* \"#utility.yul\":3059:3060   */\n      0x00\n        /* \"#utility.yul\":3084:3137   */\n      tag_198\n        /* \"#utility.yul\":3129:3136   */\n      dup9\n        /* \"#utility.yul\":3120:3126   */\n      dup3\n        /* \"#utility.yul\":3109:3118   */\n      dup10\n        /* \"#utility.yul\":3105:3127   */\n      add\n        /* \"#utility.yul\":3084:3137   */\n      tag_180\n      jump\t// in\n    tag_198:\n        /* \"#utility.yul\":3074:3137   */\n      swap6\n      pop\n        /* \"#utility.yul\":3030:3147   */\n      pop\n        /* \"#utility.yul\":3214:3216   */\n      0x20\n        /* \"#utility.yul\":3203:3212   */\n      dup7\n        /* \"#utility.yul\":3199:3217   */\n      add\n        /* \"#utility.yul\":3186:3218   */\n      calldataload\n        /* \"#utility.yul\":3245:3263   */\n      0xffffffffffffffff\n        /* \"#utility.yul\":3237:3243   */\n      dup2\n        /* \"#utility.yul\":3234:3264   */\n      gt\n        /* \"#utility.yul\":3231:3348   */\n      iszero\n      tag_199\n      jumpi\n        /* \"#utility.yul\":3267:3346   */\n      tag_200\n      tag_190\n      jump\t// in\n    tag_200:\n        /* \"#utility.yul\":3231:3348   */\n    tag_199:\n        /* \"#utility.yul\":3372:3435   */\n      tag_201\n        /* \"#utility.yul\":3427:3434   */\n      dup9\n        /* \"#utility.yul\":3418:3424   */\n      dup3\n        /* \"#utility.yul\":3407:3416   */\n      dup10\n        /* \"#utility.yul\":3403:3425   */\n      add\n        /* \"#utility.yul\":3372:3435   */\n      tag_169\n      jump\t// in\n    tag_201:\n        /* \"#utility.yul\":3362:3435   */\n      swap5\n      pop\n        /* \"#utility.yul\":3157:3445   */\n      pop\n        /* \"#utility.yul\":3512:3514   */\n      0x40\n        /* \"#utility.yul\":3501:3510   */\n      dup7\n        /* \"#utility.yul\":3497:3515   */\n      add\n        /* \"#utility.yul\":3484:3516   */\n      calldataload\n        /* \"#utility.yul\":3543:3561   */\n      0xffffffffffffffff\n        /* \"#utility.yul\":3535:3541   */\n      dup2\n        /* \"#utility.yul\":3532:3562   */\n      gt\n        /* \"#utility.yul\":3529:3646   */\n      iszero\n      tag_202\n      jumpi\n        /* \"#utility.yul\":3565:3644   */\n      tag_203\n      tag_190\n      jump\t// in\n    tag_203:\n        /* \"#utility.yul\":3529:3646   */\n    tag_202:\n        /* \"#utility.yul\":3670:3733   */\n      tag_204\n        /* \"#utility.yul\":3725:3732   */\n      dup9\n        /* \"#utility.yul\":3716:3722   */\n      dup3\n        /* \"#utility.yul\":3705:3714   */\n      dup10\n        /* \"#utility.yul\":3701:3723   */\n      add\n        /* \"#utility.yul\":3670:3733   */\n      tag_169\n      jump\t// in\n    tag_204:\n        /* \"#utility.yul\":3660:3733   */\n      swap4\n      pop\n        /* \"#utility.yul\":3455:3743   */\n      pop\n        /* \"#utility.yul\":3782:3784   */\n      0x60\n        /* \"#utility.yul\":3808:3861   */\n      tag_205\n        /* \"#utility.yul\":3853:3860   */\n      dup9\n        /* \"#utility.yul\":3844:3850   */\n      dup3\n        /* \"#utility.yul\":3833:3842   */\n      dup10\n        /* \"#utility.yul\":3829:3851   */\n      add\n        /* \"#utility.yul\":3808:3861   */\n      tag_180\n      jump\t// in\n    tag_205:\n        /* \"#utility.yul\":3798:3861   */\n      swap3\n      pop\n        /* \"#utility.yul\":3753:3871   */\n      pop\n        /* \"#utility.yul\":3910:3913   */\n      0x80\n        /* \"#utility.yul\":3937:3990   */\n      tag_206\n        /* \"#utility.yul\":3982:3989   */\n      dup9\n        /* \"#utility.yul\":3973:3979   */\n      dup3\n        /* \"#utility.yul\":3962:3971   */\n      dup10\n        /* \"#utility.yul\":3958:3980   */\n      add\n        /* \"#utility.yul\":3937:3990   */\n      tag_165\n      jump\t// in\n    tag_206:\n        /* \"#utility.yul\":3927:3990   */\n      swap2\n      pop\n        /* \"#utility.yul\":3881:4000   */\n      pop\n        /* \"#utility.yul\":2736:4007   */\n      swap3\n      swap6\n      pop\n      swap3\n      swap6\n      swap1\n      swap4\n      pop\n      jump\t// out\n        /* \"#utility.yul\":4013:4487   */\n    tag_34:\n        /* \"#utility.yul\":4081:4087   */\n      0x00\n        /* \"#utility.yul\":4089:4095   */\n      dup1\n        /* \"#utility.yul\":4138:4140   */\n      0x40\n        /* \"#utility.yul\":4126:4135   */\n      dup4\n        /* \"#utility.yul\":4117:4124   */\n      dup6\n        /* \"#utility.yul\":4113:4136   */\n      sub\n        /* \"#utility.yul\":4109:4141   */\n      slt\n        /* \"#utility.yul\":4106:4225   */\n      iszero\n      tag_208\n      jumpi\n        /* \"#utility.yul\":4144:4223   */\n      tag_209\n      tag_187\n      jump\t// in\n    tag_209:\n        /* \"#utility.yul\":4106:4225   */\n    tag_208:\n        /* \"#utility.yul\":4264:4265   */\n      0x00\n        /* \"#utility.yul\":4289:4342   */\n      tag_210\n        /* \"#utility.yul\":4334:4341   */\n      dup6\n        /* \"#utility.yul\":4325:4331   */\n      dup3\n        /* \"#utility.yul\":4314:4323   */\n      dup7\n        /* \"#utility.yul\":4310:4332   */\n      add\n        /* \"#utility.yul\":4289:4342   */\n      tag_180\n      jump\t// in\n    tag_210:\n        /* \"#utility.yul\":4279:4342   */\n      swap3\n      pop\n        /* \"#utility.yul\":4235:4352   */\n      pop\n        /* \"#utility.yul\":4391:4393   */\n      0x20\n        /* \"#utility.yul\":4417:4470   */\n      tag_211\n        /* \"#utility.yul\":4462:4469   */\n      dup6\n        /* \"#utility.yul\":4453:4459   */\n      dup3\n        /* \"#utility.yul\":4442:4451   */\n      dup7\n        /* \"#utility.yul\":4438:4460   */\n      add\n        /* \"#utility.yul\":4417:4470   */\n      tag_180\n      jump\t// in\n    tag_211:\n        /* \"#utility.yul\":4407:4470   */\n      swap2\n      pop\n        /* \"#utility.yul\":4362:4480   */\n      pop\n        /* \"#utility.yul\":4013:4487   */\n      swap3\n      pop\n      swap3\n      swap1\n      pop\n      jump\t// out\n        /* \"#utility.yul\":4493:5618   */\n    tag_43:\n        /* \"#utility.yul\":4599:4605   */\n      0x00\n        /* \"#utility.yul\":4607:4613   */\n      dup1\n        /* \"#utility.yul\":4615:4621   */\n      0x00\n        /* \"#utility.yul\":4623:4629   */\n      dup1\n        /* \"#utility.yul\":4672:4675   */\n      0x80\n        /* \"#utility.yul\":4660:4669   */\n      dup6\n        /* \"#utility.yul\":4651:4658   */\n      dup8\n        /* \"#utility.yul\":4647:4670   */\n      sub\n        /* \"#utility.yul\":4643:4676   */\n      slt\n        /* \"#utility.yul\":4640:4760   */\n      iszero\n      tag_213\n      jumpi\n        /* \"#utility.yul\":4679:4758   */\n      tag_214\n      tag_187\n      jump\t// in\n    tag_214:\n        /* \"#utility.yul\":4640:4760   */\n    tag_213:\n        /* \"#utility.yul\":4799:4800   */\n      0x00\n        /* \"#utility.yul\":4824:4877   */\n      tag_215\n        /* \"#utility.yul\":4869:4876   */\n      dup8\n        /* \"#utility.yul\":4860:4866   */\n      dup3\n        /* \"#utility.yul\":4849:4858   */\n      dup9\n        /* \"#utility.yul\":4845:4867   */\n      add\n        /* \"#utility.yul\":4824:4877   */\n      tag_180\n      jump\t// in\n    tag_215:\n        /* \"#utility.yul\":4814:4877   */\n      swap5\n      pop\n        /* \"#utility.yul\":4770:4887   */\n      pop\n        /* \"#utility.yul\":4926:4928   */\n      0x20\n        /* \"#utility.yul\":4952:5005   */\n      tag_216\n        /* \"#utility.yul\":4997:5004   */\n      dup8\n        /* \"#utility.yul\":4988:4994   */\n      dup3\n        /* \"#utility.yul\":4977:4986   */\n      dup9\n        /* \"#utility.yul\":4973:4995   */\n      add\n        /* \"#utility.yul\":4952:5005   */\n      tag_180\n      jump\t// in\n    tag_216:\n        /* \"#utility.yul\":4942:5005   */\n      swap4\n      pop\n        /* \"#utility.yul\":4897:5015   */\n      pop\n        /* \"#utility.yul\":5082:5084   */\n      0x40\n        /* \"#utility.yul\":5071:5080   */\n      dup6\n        /* \"#utility.yul\":5067:5085   */\n      add\n        /* \"#utility.yul\":5054:5086   */\n      calldataload\n        /* \"#utility.yul\":5113:5131   */\n      0xffffffffffffffff\n        /* \"#utility.yul\":5105:5111   */\n      dup2\n        /* \"#utility.yul\":5102:5132   */\n      gt\n        /* \"#utility.yul\":5099:5216   */\n      iszero\n      tag_217\n      jumpi\n        /* \"#utility.yul\":5135:5214   */\n      tag_218\n      tag_190\n      jump\t// in\n    tag_218:\n        /* \"#utility.yul\":5099:5216   */\n    tag_217:\n        /* \"#utility.yul\":5240:5303   */\n      tag_219\n        /* \"#utility.yul\":5295:5302   */\n      dup8\n        /* \"#utility.yul\":5286:5292   */\n      dup3\n        /* \"#utility.yul\":5275:5284   */\n      dup9\n        /* \"#utility.yul\":5271:5293   */\n      add\n        /* \"#utility.yul\":5240:5303   */\n      tag_169\n      jump\t// in\n    tag_219:\n        /* \"#utility.yul\":5230:5303   */\n      swap3\n      pop\n        /* \"#utility.yul\":5025:5313   */\n      pop\n        /* \"#utility.yul\":5380:5382   */\n      0x60\n        /* \"#utility.yul\":5369:5378   */\n      dup6\n        /* \"#utility.yul\":5365:5383   */\n      add\n        /* \"#utility.yul\":5352:5384   */\n      calldataload\n        /* \"#utility.yul\":5411:5429   */\n      0xffffffffffffffff\n        /* \"#utility.yul\":5403:5409   */\n      dup2\n        /* \"#utility.yul\":5400:5430   */\n      gt\n        /* \"#utility.yul\":5397:5514   */\n      iszero\n      tag_220\n      jumpi\n        /* \"#utility.yul\":5433:5512   */\n      tag_221\n      tag_190\n      jump\t// in\n    tag_221:\n        /* \"#utility.yul\":5397:5514   */\n    tag_220:\n        /* \"#utility.yul\":5538:5601   */\n      tag_222\n        /* \"#utility.yul\":5593:5600   */\n      dup8\n        /* \"#utility.yul\":5584:5590   */\n      dup3\n        /* \"#utility.yul\":5573:5582   */\n      dup9\n        /* \"#utility.yul\":5569:5591   */\n      add\n        /* \"#utility.yul\":5538:5601   */\n      tag_169\n      jump\t// in\n    tag_222:\n        /* \"#utility.yul\":5528:5601   */\n      swap2\n      pop\n        /* \"#utility.yul\":5323:5611   */\n      pop\n        /* \"#utility.yul\":4493:5618   */\n      swap3\n      swap6\n      swap2\n      swap5\n      pop\n      swap3\n      pop\n      jump\t// out\n        /* \"#utility.yul\":5624:6895   */\n    tag_47:\n        /* \"#utility.yul\":5739:5745   */\n      0x00\n        /* \"#utility.yul\":5747:5753   */\n      dup1\n        /* \"#utility.yul\":5755:5761   */\n      0x00\n        /* \"#utility.yul\":5763:5769   */\n      dup1\n        /* \"#utility.yul\":5771:5777   */\n      0x00\n        /* \"#utility.yul\":5820:5823   */\n      0xa0\n        /* \"#utility.yul\":5808:5817   */\n      dup7\n        /* \"#utility.yul\":5799:5806   */\n      dup9\n        /* \"#utility.yul\":5795:5818   */\n      sub\n        /* \"#utility.yul\":5791:5824   */\n      slt\n        /* \"#utility.yul\":5788:5908   */\n      iszero\n      tag_224\n      jumpi\n        /* \"#utility.yul\":5827:5906   */\n      tag_225\n      tag_187\n      jump\t// in\n    tag_225:\n        /* \"#utility.yul\":5788:5908   */\n    tag_224:\n        /* \"#utility.yul\":5947:5948   */\n      0x00\n        /* \"#utility.yul\":5972:6025   */\n      tag_226\n        /* \"#utility.yul\":6017:6024   */\n      dup9\n        /* \"#utility.yul\":6008:6014   */\n      dup3\n        /* \"#utility.yul\":5997:6006   */\n      dup10\n        /* \"#utility.yul\":5993:6015   */\n      add\n        /* \"#utility.yul\":5972:6025   */\n      tag_180\n      jump\t// in\n    tag_226:\n        /* \"#utility.yul\":5962:6025   */\n      swap6\n      pop\n        /* \"#utility.yul\":5918:6035   */\n      pop\n        /* \"#utility.yul\":6074:6076   */\n      0x20\n        /* \"#utility.yul\":6100:6153   */\n      tag_227\n        /* \"#utility.yul\":6145:6152   */\n      dup9\n        /* \"#utility.yul\":6136:6142   */\n      dup3\n        /* \"#utility.yul\":6125:6134   */\n      dup10\n        /* \"#utility.yul\":6121:6143   */\n      add\n        /* \"#utility.yul\":6100:6153   */\n      tag_180\n      jump\t// in\n    tag_227:\n        /* \"#utility.yul\":6090:6153   */\n      swap5\n      pop\n        /* \"#utility.yul\":6045:6163   */\n      pop\n        /* \"#utility.yul\":6230:6232   */\n      0x40\n        /* \"#utility.yul\":6219:6228   */\n      dup7\n        /* \"#utility.yul\":6215:6233   */\n      add\n        /* \"#utility.yul\":6202:6234   */\n      calldataload\n        /* \"#utility.yul\":6261:6279   */\n      0xffffffffffffffff\n        /* \"#utility.yul\":6253:6259   */\n      dup2\n        /* \"#utility.yul\":6250:6280   */\n      gt\n        /* \"#utility.yul\":6247:6364   */\n      iszero\n      tag_228\n      jumpi\n        /* \"#utility.yul\":6283:6362   */\n      tag_229\n      tag_190\n      jump\t// in\n    tag_229:\n        /* \"#utility.yul\":6247:6364   */\n    tag_228:\n        /* \"#utility.yul\":6388:6451   */\n      tag_230\n        /* \"#utility.yul\":6443:6450   */\n      dup9\n        /* \"#utility.yul\":6434:6440   */\n      dup3\n        /* \"#utility.yul\":6423:6432   */\n      dup10\n        /* \"#utility.yul\":6419:6441   */\n      add\n        /* \"#utility.yul\":6388:6451   */\n      tag_169\n      jump\t// in\n    tag_230:\n        /* \"#utility.yul\":6378:6451   */\n      swap4\n      pop\n        /* \"#utility.yul\":6173:6461   */\n      pop\n        /* \"#utility.yul\":6528:6530   */\n      0x60\n        /* \"#utility.yul\":6517:6526   */\n      dup7\n        /* \"#utility.yul\":6513:6531   */\n      add\n        /* \"#utility.yul\":6500:6532   */\n      calldataload\n        /* \"#utility.yul\":6559:6577   */\n      0xffffffffffffffff\n        /* \"#utility.yul\":6551:6557   */\n      dup2\n        /* \"#utility.yul\":6548:6578   */\n      gt\n        /* \"#utility.yul\":6545:6662   */\n      iszero\n      tag_231\n      jumpi\n        /* \"#utility.yul\":6581:6660   */\n      tag_232\n      tag_190\n      jump\t// in\n    tag_232:\n        /* \"#utility.yul\":6545:6662   */\n    tag_231:\n        /* \"#utility.yul\":6686:6749   */\n      tag_233\n        /* \"#utility.yul\":6741:6748   */\n      dup9\n        /* \"#utility.yul\":6732:6738   */\n      dup3\n        /* \"#utility.yul\":6721:6730   */\n      dup10\n        /* \"#utility.yul\":6717:6739   */\n      add\n        /* \"#utility.yul\":6686:6749   */\n      tag_169\n      jump\t// in\n    tag_233:\n        /* \"#utility.yul\":6676:6749   */\n      swap3\n      pop\n        /* \"#utility.yul\":6471:6759   */\n      pop\n        /* \"#utility.yul\":6798:6801   */\n      0x80\n        /* \"#utility.yul\":6825:6878   */\n      tag_234\n        /* \"#utility.yul\":6870:6877   */\n      dup9\n        /* \"#utility.yul\":6861:6867   */\n      dup3\n        /* \"#utility.yul\":6850:6859   */\n      dup10\n        /* \"#utility.yul\":6846:6868   */\n      add\n        /* \"#utility.yul\":6825:6878   */\n      tag_180\n      jump\t// in\n    tag_234:\n        /* \"#utility.yul\":6815:6878   */\n      swap2\n      pop\n        /* \"#utility.yul\":6769:6888   */\n      pop\n        /* \"#utility.yul\":5624:6895   */\n      swap3\n      swap6\n      pop\n      swap3\n      swap6\n      swap1\n      swap4\n      pop\n      jump\t// out\n        /* \"#utility.yul\":6901:7520   */\n    tag_28:\n        /* \"#utility.yul\":6978:6984   */\n      0x00\n        /* \"#utility.yul\":6986:6992   */\n      dup1\n        /* \"#utility.yul\":6994:7000   */\n      0x00\n        /* \"#utility.yul\":7043:7045   */\n      0x60\n        /* \"#utility.yul\":7031:7040   */\n      dup5\n        /* \"#utility.yul\":7022:7029   */\n      dup7\n        /* \"#utility.yul\":7018:7041   */\n      sub\n        /* \"#utility.yul\":7014:7046   */\n      slt\n        /* \"#utility.yul\":7011:7130   */\n      iszero\n      tag_236\n      jumpi\n        /* \"#utility.yul\":7049:7128   */\n      tag_237\n      tag_187\n      jump\t// in\n    tag_237:\n        /* \"#utility.yul\":7011:7130   */\n    tag_236:\n        /* \"#utility.yul\":7169:7170   */\n      0x00\n        /* \"#utility.yul\":7194:7247   */\n      tag_238\n        /* \"#utility.yul\":7239:7246   */\n      dup7\n        /* \"#utility.yul\":7230:7236   */\n      dup3\n        /* \"#utility.yul\":7219:7228   */\n      dup8\n        /* \"#utility.yul\":7215:7237   */\n      add\n        /* \"#utility.yul\":7194:7247   */\n      tag_180\n      jump\t// in\n    tag_238:\n        /* \"#utility.yul\":7184:7247   */\n      swap4\n      pop\n        /* \"#utility.yul\":7140:7257   */\n      pop\n        /* \"#utility.yul\":7296:7298   */\n      0x20\n        /* \"#utility.yul\":7322:7375   */\n      tag_239\n        /* \"#utility.yul\":7367:7374   */\n      dup7\n        /* \"#utility.yul\":7358:7364   */\n      dup3\n        /* \"#utility.yul\":7347:7356   */\n      dup8\n        /* \"#utility.yul\":7343:7365   */\n      add\n        /* \"#utility.yul\":7322:7375   */\n      tag_180\n      jump\t// in\n    tag_239:\n        /* \"#utility.yul\":7312:7375   */\n      swap3\n      pop\n        /* \"#utility.yul\":7267:7385   */\n      pop\n        /* \"#utility.yul\":7424:7426   */\n      0x40\n        /* \"#utility.yul\":7450:7503   */\n      tag_240\n        /* \"#utility.yul\":7495:7502   */\n      dup7\n        /* \"#utility.yul\":7486:7492   */\n      dup3\n        /* \"#utility.yul\":7475:7484   */\n      dup8\n        /* \"#utility.yul\":7471:7493   */\n      add\n        /* \"#utility.yul\":7450:7503   */\n      tag_180\n      jump\t// in\n    tag_240:\n        /* \"#utility.yul\":7440:7503   */\n      swap2\n      pop\n        /* \"#utility.yul\":7395:7513   */\n      pop\n        /* \"#utility.yul\":6901:7520   */\n      swap3\n      pop\n      swap3\n      pop\n      swap3\n      jump\t// out\n        /* \"#utility.yul\":7526:8797   */\n    tag_59:\n        /* \"#utility.yul\":7641:7647   */\n      0x00\n        /* \"#utility.yul\":7649:7655   */\n      dup1\n        /* \"#utility.yul\":7657:7663   */\n      0x00\n        /* \"#utility.yul\":7665:7671   */\n      dup1\n        /* \"#utility.yul\":7673:7679   */\n      0x00\n        /* \"#utility.yul\":7722:7725   */\n      0xa0\n        /* \"#utility.yul\":7710:7719   */\n      dup7\n        /* \"#utility.yul\":7701:7708   */\n      dup9\n        /* \"#utility.yul\":7697:7720   */\n      sub\n        /* \"#utility.yul\":7693:7726   */\n      slt\n        /* \"#utility.yul\":7690:7810   */\n      iszero\n      tag_242\n      jumpi\n        /* \"#utility.yul\":7729:7808   */\n      tag_243\n      tag_187\n      jump\t// in\n    tag_243:\n        /* \"#utility.yul\":7690:7810   */\n    tag_242:\n        /* \"#utility.yul\":7849:7850   */\n      0x00\n        /* \"#utility.yul\":7874:7927   */\n      tag_244\n        /* \"#utility.yul\":7919:7926   */\n      dup9\n        /* \"#utility.yul\":7910:7916   */\n      dup3\n        /* \"#utility.yul\":7899:7908   */\n      dup10\n        /* \"#utility.yul\":7895:7917   */\n      add\n        /* \"#utility.yul\":7874:7927   */\n      tag_180\n      jump\t// in\n    tag_244:\n        /* \"#utility.yul\":7864:7927   */\n      swap6\n      pop\n        /* \"#utility.yul\":7820:7937   */\n      pop\n        /* \"#utility.yul\":7976:7978   */\n      0x20\n        /* \"#utility.yul\":8002:8055   */\n      tag_245\n        /* \"#utility.yul\":8047:8054   */\n      dup9\n        /* \"#utility.yul\":8038:8044   */\n      dup3\n        /* \"#utility.yul\":8027:8036   */\n      dup10\n        /* \"#utility.yul\":8023:8045   */\n      add\n        /* \"#utility.yul\":8002:8055   */\n      tag_180\n      jump\t// in\n    tag_245:\n        /* \"#utility.yul\":7992:8055   */\n      swap5\n      pop\n        /* \"#utility.yul\":7947:8065   */\n      pop\n        /* \"#utility.yul\":8104:8106   */\n      0x40\n        /* \"#utility.yul\":8130:8183   */\n      tag_246\n        /* \"#utility.yul\":8175:8182   */\n      dup9\n        /* \"#utility.yul\":8166:8172   */\n      dup3\n        /* \"#utility.yul\":8155:8164   */\n      dup10\n        /* \"#utility.yul\":8151:8173   */\n      add\n        /* \"#utility.yul\":8130:8183   */\n      tag_180\n      jump\t// in\n    tag_246:\n        /* \"#utility.yul\":8120:8183   */\n      swap4\n      pop\n        /* \"#utility.yul\":8075:8193   */\n      pop\n        /* \"#utility.yul\":8260:8262   */\n      0x60\n        /* \"#utility.yul\":8249:8258   */\n      dup7\n        /* \"#utility.yul\":8245:8263   */\n      add\n        /* \"#utility.yul\":8232:8264   */\n      calldataload\n        /* \"#utility.yul\":8291:8309   */\n      0xffffffffffffffff\n        /* \"#utility.yul\":8283:8289   */\n      dup2\n        /* \"#utility.yul\":8280:8310   */\n      gt\n        /* \"#utility.yul\":8277:8394   */\n      iszero\n      tag_247\n      jumpi\n        /* \"#utility.yul\":8313:8392   */\n      tag_248\n      tag_190\n      jump\t// in\n    tag_248:\n        /* \"#utility.yul\":8277:8394   */\n    tag_247:\n        /* \"#utility.yul\":8418:8481   */\n      tag_249\n        /* \"#utility.yul\":8473:8480   */\n      dup9\n        /* \"#utility.yul\":8464:8470   */\n      dup3\n        /* \"#utility.yul\":8453:8462   */\n      dup10\n        /* \"#utility.yul\":8449:8471   */\n      add\n        /* \"#utility.yul\":8418:8481   */\n      tag_169\n      jump\t// in\n    tag_249:\n        /* \"#utility.yul\":8408:8481   */\n      swap3\n      pop\n        /* \"#utility.yul\":8203:8491   */\n      pop\n        /* \"#utility.yul\":8558:8561   */\n      0x80\n        /* \"#utility.yul\":8547:8556   */\n      dup7\n        /* \"#utility.yul\":8543:8562   */\n      add\n        /* \"#utility.yul\":8530:8563   */\n      calldataload\n        /* \"#utility.yul\":8590:8608   */\n      0xffffffffffffffff\n        /* \"#utility.yul\":8582:8588   */\n      dup2\n        /* \"#utility.yul\":8579:8609   */\n      gt\n        /* \"#utility.yul\":8576:8693   */\n      iszero\n      tag_250\n      jumpi\n        /* \"#utility.yul\":8612:8691   */\n      tag_251\n      tag_190\n      jump\t// in\n    tag_251:\n        /* \"#utility.yul\":8576:8693   */\n    tag_250:\n        /* \"#utility.yul\":8717:8780   */\n      tag_252\n        /* \"#utility.yul\":8772:8779   */\n      dup9\n        /* \"#utility.yul\":8763:8769   */\n      dup3\n        /* \"#utility.yul\":8752:8761   */\n      dup10\n        /* \"#utility.yul\":8748:8770   */\n      add\n        /* \"#utility.yul\":8717:8780   */\n      tag_169\n      jump\t// in\n    tag_252:\n        /* \"#utility.yul\":8707:8780   */\n      swap2\n      pop\n        /* \"#utility.yul\":8501:8790   */\n      pop\n        /* \"#utility.yul\":7526:8797   */\n      swap3\n      swap6\n      pop\n      swap3\n      swap6\n      swap1\n      swap4\n      pop\n      jump\t// out\n        /* \"#utility.yul\":8803:9167   */\n    tag_253:\n        /* \"#utility.yul\":8891:8894   */\n      0x00\n        /* \"#utility.yul\":8919:8958   */\n      tag_255\n        /* \"#utility.yul\":8952:8957   */\n      dup3\n        /* \"#utility.yul\":8919:8958   */\n      tag_256\n      jump\t// in\n    tag_255:\n        /* \"#utility.yul\":8974:9045   */\n      tag_257\n        /* \"#utility.yul\":9038:9044   */\n      dup2\n        /* \"#utility.yul\":9033:9036   */\n      dup6\n        /* \"#utility.yul\":8974:9045   */\n      tag_258\n      jump\t// in\n    tag_257:\n        /* \"#utility.yul\":8967:9045   */\n      swap4\n      pop\n        /* \"#utility.yul\":9054:9106   */\n      tag_259\n        /* \"#utility.yul\":9099:9105   */\n      dup2\n        /* \"#utility.yul\":9094:9097   */\n      dup6\n        /* \"#utility.yul\":9087:9091   */\n      0x20\n        /* \"#utility.yul\":9080:9085   */\n      dup7\n        /* \"#utility.yul\":9076:9092   */\n      add\n        /* \"#utility.yul\":9054:9106   */\n      tag_164\n      jump\t// in\n    tag_259:\n        /* \"#utility.yul\":9131:9160   */\n      tag_260\n        /* \"#utility.yul\":9153:9159   */\n      dup2\n        /* \"#utility.yul\":9131:9160   */\n      tag_261\n      jump\t// in\n    tag_260:\n        /* \"#utility.yul\":9126:9129   */\n      dup5\n        /* \"#utility.yul\":9122:9161   */\n      add\n        /* \"#utility.yul\":9115:9161   */\n      swap2\n      pop\n        /* \"#utility.yul\":8895:9167   */\n      pop\n        /* \"#utility.yul\":8803:9167   */\n      swap3\n      swap2\n      pop\n      pop\n      jump\t// out\n        /* \"#utility.yul\":9173:9539   */\n    tag_262:\n        /* \"#utility.yul\":9315:9318   */\n      0x00\n        /* \"#utility.yul\":9336:9403   */\n      tag_264\n        /* \"#utility.yul\":9400:9402   */\n      0x21\n        /* \"#utility.yul\":9395:9398   */\n      dup4\n        /* \"#utility.yul\":9336:9403   */\n      tag_258\n      jump\t// in\n    tag_264:\n        /* \"#utility.yul\":9329:9403   */\n      swap2\n      pop\n        /* \"#utility.yul\":9412:9505   */\n      tag_265\n        /* \"#utility.yul\":9501:9504   */\n      dup3\n        /* \"#utility.yul\":9412:9505   */\n      tag_266\n      jump\t// in\n    tag_265:\n        /* \"#utility.yul\":9530:9532   */\n      0x40\n        /* \"#utility.yul\":9525:9528   */\n      dup3\n        /* \"#utility.yul\":9521:9533   */\n      add\n        /* \"#utility.yul\":9514:9533   */\n      swap1\n      pop\n        /* \"#utility.yul\":9173:9539   */\n      swap2\n      swap1\n      pop\n      jump\t// out\n        /* \"#utility.yul\":9545:9911   */\n    tag_267:\n        /* \"#utility.yul\":9687:9690   */\n      0x00\n        /* \"#utility.yul\":9708:9775   */\n      tag_269\n        /* \"#utility.yul\":9772:9774   */\n      0x15\n        /* \"#utility.yul\":9767:9770   */\n      dup4\n        /* \"#utility.yul\":9708:9775   */\n      tag_258\n      jump\t// in\n    tag_269:\n        /* \"#utility.yul\":9701:9775   */\n      swap2\n      pop\n        /* \"#utility.yul\":9784:9877   */\n      tag_270\n        /* \"#utility.yul\":9873:9876   */\n      dup3\n        /* \"#utility.yul\":9784:9877   */\n      tag_271\n      jump\t// in\n    tag_270:\n        /* \"#utility.yul\":9902:9904   */\n      0x20\n        /* \"#utility.yul\":9897:9900   */\n      dup3\n        /* \"#utility.yul\":9893:9905   */\n      add\n        /* \"#utility.yul\":9886:9905   */\n      swap1\n      pop\n        /* \"#utility.yul\":9545:9911   */\n      swap2\n      swap1\n      pop\n      jump\t// out\n        /* \"#utility.yul\":9917:10035   */\n    tag_272:\n        /* \"#utility.yul\":10004:10028   */\n      tag_274\n        /* \"#utility.yul\":10022:10027   */\n      dup2\n        /* \"#utility.yul\":10004:10028   */\n      tag_275\n      jump\t// in\n    tag_274:\n        /* \"#utility.yul\":9999:10002   */\n      dup3\n        /* \"#utility.yul\":9992:10029   */\n      mstore\n        /* \"#utility.yul\":9917:10035   */\n      pop\n      pop\n      jump\t// out\n        /* \"#utility.yul\":10041:10354   */\n    tag_53:\n        /* \"#utility.yul\":10154:10158   */\n      0x00\n        /* \"#utility.yul\":10192:10194   */\n      0x20\n        /* \"#utility.yul\":10181:10190   */\n      dup3\n        /* \"#utility.yul\":10177:10195   */\n      add\n        /* \"#utility.yul\":10169:10195   */\n      swap1\n      pop\n        /* \"#utility.yul\":10241:10250   */\n      dup2\n        /* \"#utility.yul\":10235:10239   */\n      dup2\n        /* \"#utility.yul\":10231:10251   */\n      sub\n        /* \"#utility.yul\":10227:10228   */\n      0x00\n        /* \"#utility.yul\":10216:10225   */\n      dup4\n        /* \"#utility.yul\":10212:10229   */\n      add\n        /* \"#utility.yul\":10205:10252   */\n      mstore\n        /* \"#utility.yul\":10269:10347   */\n      tag_277\n        /* \"#utility.yul\":10342:10346   */\n      dup2\n        /* \"#utility.yul\":10333:10339   */\n      dup5\n        /* \"#utility.yul\":10269:10347   */\n      tag_253\n      jump\t// in\n    tag_277:\n        /* \"#utility.yul\":10261:10347   */\n      swap1\n      pop\n        /* \"#utility.yul\":10041:10354   */\n      swap3\n      swap2\n      pop\n      pop\n      jump\t// out\n        /* \"#utility.yul\":10360:10874   */\n    tag_31:\n        /* \"#utility.yul\":10521:10525   */\n      0x00\n        /* \"#utility.yul\":10559:10561   */\n      0x40\n        /* \"#utility.yul\":10548:10557   */\n      dup3\n        /* \"#utility.yul\":10544:10562   */\n      add\n        /* \"#utility.yul\":10536:10562   */\n      swap1\n      pop\n        /* \"#utility.yul\":10608:10617   */\n      dup2\n        /* \"#utility.yul\":10602:10606   */\n      dup2\n        /* \"#utility.yul\":10598:10618   */\n      sub\n        /* \"#utility.yul\":10594:10595   */\n      0x00\n        /* \"#utility.yul\":10583:10592   */\n      dup4\n        /* \"#utility.yul\":10579:10596   */\n      add\n        /* \"#utility.yul\":10572:10619   */\n      mstore\n        /* \"#utility.yul\":10636:10714   */\n      tag_279\n        /* \"#utility.yul\":10709:10713   */\n      dup2\n        /* \"#utility.yul\":10700:10706   */\n      dup6\n        /* \"#utility.yul\":10636:10714   */\n      tag_253\n      jump\t// in\n    tag_279:\n        /* \"#utility.yul\":10628:10714   */\n      swap1\n      pop\n        /* \"#utility.yul\":10761:10770   */\n      dup2\n        /* \"#utility.yul\":10755:10759   */\n      dup2\n        /* \"#utility.yul\":10751:10771   */\n      sub\n        /* \"#utility.yul\":10746:10748   */\n      0x20\n        /* \"#utility.yul\":10735:10744   */\n      dup4\n        /* \"#utility.yul\":10731:10749   */\n      add\n        /* \"#utility.yul\":10724:10772   */\n      mstore\n        /* \"#utility.yul\":10789:10867   */\n      tag_280\n        /* \"#utility.yul\":10862:10866   */\n      dup2\n        /* \"#utility.yul\":10853:10859   */\n      dup5\n        /* \"#utility.yul\":10789:10867   */\n      tag_253\n      jump\t// in\n    tag_280:\n        /* \"#utility.yul\":10781:10867   */\n      swap1\n      pop\n        /* \"#utility.yul\":10360:10874   */\n      swap4\n      swap3\n      pop\n      pop\n      pop\n      jump\t// out\n        /* \"#utility.yul\":10880:11615   */\n    tag_37:\n        /* \"#utility.yul\":11097:11101   */\n      0x00\n        /* \"#utility.yul\":11135:11138   */\n      0x80\n        /* \"#utility.yul\":11124:11133   */\n      dup3\n        /* \"#utility.yul\":11120:11139   */\n      add\n        /* \"#utility.yul\":11112:11139   */\n      swap1\n      pop\n        /* \"#utility.yul\":11185:11194   */\n      dup2\n        /* \"#utility.yul\":11179:11183   */\n      dup2\n        /* \"#utility.yul\":11175:11195   */\n      sub\n        /* \"#utility.yul\":11171:11172   */\n      0x00\n        /* \"#utility.yul\":11160:11169   */\n      dup4\n        /* \"#utility.yul\":11156:11173   */\n      add\n        /* \"#utility.yul\":11149:11196   */\n      mstore\n        /* \"#utility.yul\":11213:11291   */\n      tag_282\n        /* \"#utility.yul\":11286:11290   */\n      dup2\n        /* \"#utility.yul\":11277:11283   */\n      dup8\n        /* \"#utility.yul\":11213:11291   */\n      tag_253\n      jump\t// in\n    tag_282:\n        /* \"#utility.yul\":11205:11291   */\n      swap1\n      pop\n        /* \"#utility.yul\":11338:11347   */\n      dup2\n        /* \"#utility.yul\":11332:11336   */\n      dup2\n        /* \"#utility.yul\":11328:11348   */\n      sub\n        /* \"#utility.yul\":11323:11325   */\n      0x20\n        /* \"#utility.yul\":11312:11321   */\n      dup4\n        /* \"#utility.yul\":11308:11326   */\n      add\n        /* \"#utility.yul\":11301:11349   */\n      mstore\n        /* \"#utility.yul\":11366:11444   */\n      tag_283\n        /* \"#utility.yul\":11439:11443   */\n      dup2\n        /* \"#utility.yul\":11430:11436   */\n      dup7\n        /* \"#utility.yul\":11366:11444   */\n      tag_253\n      jump\t// in\n    tag_283:\n        /* \"#utility.yul\":11358:11444   */\n      swap1\n      pop\n        /* \"#utility.yul\":11454:11526   */\n      tag_284\n        /* \"#utility.yul\":11522:11524   */\n      0x40\n        /* \"#utility.yul\":11511:11520   */\n      dup4\n        /* \"#utility.yul\":11507:11525   */\n      add\n        /* \"#utility.yul\":11498:11504   */\n      dup6\n        /* \"#utility.yul\":11454:11526   */\n      tag_272\n      jump\t// in\n    tag_284:\n        /* \"#utility.yul\":11536:11608   */\n      tag_285\n        /* \"#utility.yul\":11604:11606   */\n      0x60\n        /* \"#utility.yul\":11593:11602   */\n      dup4\n        /* \"#utility.yul\":11589:11607   */\n      add\n        /* \"#utility.yul\":11580:11586   */\n      dup5\n        /* \"#utility.yul\":11536:11608   */\n      tag_272\n      jump\t// in\n    tag_285:\n        /* \"#utility.yul\":10880:11615   */\n      swap6\n      swap5\n      pop\n      pop\n      pop\n      pop\n      pop\n      jump\t// out\n        /* \"#utility.yul\":11621:12040   */\n    tag_71:\n        /* \"#utility.yul\":11787:11791   */\n      0x00\n        /* \"#utility.yul\":11825:11827   */\n      0x20\n        /* \"#utility.yul\":11814:11823   */\n      dup3\n        /* \"#utility.yul\":11810:11828   */\n      add\n        /* \"#utility.yul\":11802:11828   */\n      swap1\n      pop\n        /* \"#utility.yul\":11874:11883   */\n      dup2\n        /* \"#utility.yul\":11868:11872   */\n      dup2\n        /* \"#utility.yul\":11864:11884   */\n      sub\n        /* \"#utility.yul\":11860:11861   */\n      0x00\n        /* \"#utility.yul\":11849:11858   */\n      dup4\n        /* \"#utility.yul\":11845:11862   */\n      add\n        /* \"#utility.yul\":11838:11885   */\n      mstore\n        /* \"#utility.yul\":11902:12033   */\n      tag_287\n        /* \"#utility.yul\":12028:12032   */\n      dup2\n        /* \"#utility.yul\":11902:12033   */\n      tag_262\n      jump\t// in\n    tag_287:\n        /* \"#utility.yul\":11894:12033   */\n      swap1\n      pop\n        /* \"#utility.yul\":11621:12040   */\n      swap2\n      swap1\n      pop\n      jump\t// out\n        /* \"#utility.yul\":12046:12465   */\n    tag_64:\n        /* \"#utility.yul\":12212:12216   */\n      0x00\n        /* \"#utility.yul\":12250:12252   */\n      0x20\n        /* \"#utility.yul\":12239:12248   */\n      dup3\n        /* \"#utility.yul\":12235:12253   */\n      add\n        /* \"#utility.yul\":12227:12253   */\n      swap1\n      pop\n        /* \"#utility.yul\":12299:12308   */\n      dup2\n        /* \"#utility.yul\":12293:12297   */\n      dup2\n        /* \"#utility.yul\":12289:12309   */\n      sub\n        /* \"#utility.yul\":12285:12286   */\n      0x00\n        /* \"#utility.yul\":12274:12283   */\n      dup4\n        /* \"#utility.yul\":12270:12287   */\n      add\n        /* \"#utility.yul\":12263:12310   */\n      mstore\n        /* \"#utility.yul\":12327:12458   */\n      tag_289\n        /* \"#utility.yul\":12453:12457   */\n      dup2\n        /* \"#utility.yul\":12327:12458   */\n      tag_267\n      jump\t// in\n    tag_289:\n        /* \"#utility.yul\":12319:12458   */\n      swap1\n      pop\n        /* \"#utility.yul\":12046:12465   */\n      swap2\n      swap1\n      pop\n      jump\t// out\n        /* \"#utility.yul\":12471:12693   */\n    tag_22:\n        /* \"#utility.yul\":12564:12568   */\n      0x00\n        /* \"#utility.yul\":12602:12604   */\n      0x20\n        /* \"#utility.yul\":12591:12600   */\n      dup3\n        /* \"#utility.yul\":12587:12605   */\n      add\n        /* \"#utility.yul\":12579:12605   */\n      swap1\n      pop\n        /* \"#utility.yul\":12615:12686   */\n      tag_291\n        /* \"#utility.yul\":12683:12684   */\n      0x00\n        /* \"#utility.yul\":12672:12681   */\n      dup4\n        /* \"#utility.yul\":12668:12685   */\n      add\n        /* \"#utility.yul\":12659:12665   */\n      dup5\n        /* \"#utility.yul\":12615:12686   */\n      tag_272\n      jump\t// in\n    tag_291:\n        /* \"#utility.yul\":12471:12693   */\n      swap3\n      swap2\n      pop\n      pop\n      jump\t// out\n        /* \"#utility.yul\":12699:13031   */\n    tag_107:\n        /* \"#utility.yul\":12820:12824   */\n      0x00\n        /* \"#utility.yul\":12858:12860   */\n      0x40\n        /* \"#utility.yul\":12847:12856   */\n      dup3\n        /* \"#utility.yul\":12843:12861   */\n      add\n        /* \"#utility.yul\":12835:12861   */\n      swap1\n      pop\n        /* \"#utility.yul\":12871:12942   */\n      tag_293\n        /* \"#utility.yul\":12939:12940   */\n      0x00\n        /* \"#utility.yul\":12928:12937   */\n      dup4\n        /* \"#utility.yul\":12924:12941   */\n      add\n        /* \"#utility.yul\":12915:12921   */\n      dup6\n        /* \"#utility.yul\":12871:12942   */\n      tag_272\n      jump\t// in\n    tag_293:\n        /* \"#utility.yul\":12952:13024   */\n      tag_294\n        /* \"#utility.yul\":13020:13022   */\n      0x20\n        /* \"#utility.yul\":13009:13018   */\n      dup4\n        /* \"#utility.yul\":13005:13023   */\n      add\n        /* \"#utility.yul\":12996:13002   */\n      dup5\n        /* \"#utility.yul\":12952:13024   */\n      tag_272\n      jump\t// in\n    tag_294:\n        /* \"#utility.yul\":12699:13031   */\n      swap4\n      swap3\n      pop\n      pop\n      pop\n      jump\t// out\n        /* \"#utility.yul\":13037:13772   */\n    tag_110:\n        /* \"#utility.yul\":13254:13258   */\n      0x00\n        /* \"#utility.yul\":13292:13295   */\n      0x80\n        /* \"#utility.yul\":13281:13290   */\n      dup3\n        /* \"#utility.yul\":13277:13296   */\n      add\n        /* \"#utility.yul\":13269:13296   */\n      swap1\n      pop\n        /* \"#utility.yul\":13306:13377   */\n      tag_296\n        /* \"#utility.yul\":13374:13375   */\n      0x00\n        /* \"#utility.yul\":13363:13372   */\n      dup4\n        /* \"#utility.yul\":13359:13376   */\n      add\n        /* \"#utility.yul\":13350:13356   */\n      dup8\n        /* \"#utility.yul\":13306:13377   */\n      tag_272\n      jump\t// in\n    tag_296:\n        /* \"#utility.yul\":13387:13459   */\n      tag_297\n        /* \"#utility.yul\":13455:13457   */\n      0x20\n        /* \"#utility.yul\":13444:13453   */\n      dup4\n        /* \"#utility.yul\":13440:13458   */\n      add\n        /* \"#utility.yul\":13431:13437   */\n      dup7\n        /* \"#utility.yul\":13387:13459   */\n      tag_272\n      jump\t// in\n    tag_297:\n        /* \"#utility.yul\":13506:13515   */\n      dup2\n        /* \"#utility.yul\":13500:13504   */\n      dup2\n        /* \"#utility.yul\":13496:13516   */\n      sub\n        /* \"#utility.yul\":13491:13493   */\n      0x40\n        /* \"#utility.yul\":13480:13489   */\n      dup4\n        /* \"#utility.yul\":13476:13494   */\n      add\n        /* \"#utility.yul\":13469:13517   */\n      mstore\n        /* \"#utility.yul\":13534:13612   */\n      tag_298\n        /* \"#utility.yul\":13607:13611   */\n      dup2\n        /* \"#utility.yul\":13598:13604   */\n      dup6\n        /* \"#utility.yul\":13534:13612   */\n      tag_253\n      jump\t// in\n    tag_298:\n        /* \"#utility.yul\":13526:13612   */\n      swap1\n      pop\n        /* \"#utility.yul\":13659:13668   */\n      dup2\n        /* \"#utility.yul\":13653:13657   */\n      dup2\n        /* \"#utility.yul\":13649:13669   */\n      sub\n        /* \"#utility.yul\":13644:13646   */\n      0x60\n        /* \"#utility.yul\":13633:13642   */\n      dup4\n        /* \"#utility.yul\":13629:13647   */\n      add\n        /* \"#utility.yul\":13622:13670   */\n      mstore\n        /* \"#utility.yul\":13687:13765   */\n      tag_299\n        /* \"#utility.yul\":13760:13764   */\n      dup2\n        /* \"#utility.yul\":13751:13757   */\n      dup5\n        /* \"#utility.yul\":13687:13765   */\n      tag_253\n      jump\t// in\n    tag_299:\n        /* \"#utility.yul\":13679:13765   */\n      swap1\n      pop\n        /* \"#utility.yul\":13037:13772   */\n      swap6\n      swap5\n      pop\n      pop\n      pop\n      pop\n      pop\n      jump\t// out\n        /* \"#utility.yul\":13778:14624   */\n    tag_79:\n        /* \"#utility.yul\":14023:14027   */\n      0x00\n        /* \"#utility.yul\":14061:14064   */\n      0xa0\n        /* \"#utility.yul\":14050:14059   */\n      dup3\n        /* \"#utility.yul\":14046:14065   */\n      add\n        /* \"#utility.yul\":14038:14065   */\n      swap1\n      pop\n        /* \"#utility.yul\":14075:14146   */\n      tag_301\n        /* \"#utility.yul\":14143:14144   */\n      0x00\n        /* \"#utility.yul\":14132:14141   */\n      dup4\n        /* \"#utility.yul\":14128:14145   */\n      add\n        /* \"#utility.yul\":14119:14125   */\n      dup9\n        /* \"#utility.yul\":14075:14146   */\n      tag_272\n      jump\t// in\n    tag_301:\n        /* \"#utility.yul\":14156:14228   */\n      tag_302\n        /* \"#utility.yul\":14224:14226   */\n      0x20\n        /* \"#utility.yul\":14213:14222   */\n      dup4\n        /* \"#utility.yul\":14209:14227   */\n      add\n        /* \"#utility.yul\":14200:14206   */\n      dup8\n        /* \"#utility.yul\":14156:14228   */\n      tag_272\n      jump\t// in\n    tag_302:\n        /* \"#utility.yul\":14275:14284   */\n      dup2\n        /* \"#utility.yul\":14269:14273   */\n      dup2\n        /* \"#utility.yul\":14265:14285   */\n      sub\n        /* \"#utility.yul\":14260:14262   */\n      0x40\n        /* \"#utility.yul\":14249:14258   */\n      dup4\n        /* \"#utility.yul\":14245:14263   */\n      add\n        /* \"#utility.yul\":14238:14286   */\n      mstore\n        /* \"#utility.yul\":14303:14381   */\n      tag_303\n        /* \"#utility.yul\":14376:14380   */\n      dup2\n        /* \"#utility.yul\":14367:14373   */\n      dup7\n        /* \"#utility.yul\":14303:14381   */\n      tag_253\n      jump\t// in\n    tag_303:\n        /* \"#utility.yul\":14295:14381   */\n      swap1\n      pop\n        /* \"#utility.yul\":14428:14437   */\n      dup2\n        /* \"#utility.yul\":14422:14426   */\n      dup2\n        /* \"#utility.yul\":14418:14438   */\n      sub\n        /* \"#utility.yul\":14413:14415   */\n      0x60\n        /* \"#utility.yul\":14402:14411   */\n      dup4\n        /* \"#utility.yul\":14398:14416   */\n      add\n        /* \"#utility.yul\":14391:14439   */\n      mstore\n        /* \"#utility.yul\":14456:14534   */\n      tag_304\n        /* \"#utility.yul\":14529:14533   */\n      dup2\n        /* \"#utility.yul\":14520:14526   */\n      dup6\n        /* \"#utility.yul\":14456:14534   */\n      tag_253\n      jump\t// in\n    tag_304:\n        /* \"#utility.yul\":14448:14534   */\n      swap1\n      pop\n        /* \"#utility.yul\":14544:14617   */\n      tag_305\n        /* \"#utility.yul\":14612:14615   */\n      0x80\n        /* \"#utility.yul\":14601:14610   */\n      dup4\n        /* \"#utility.yul\":14597:14616   */\n      add\n        /* \"#utility.yul\":14588:14594   */\n      dup5\n        /* \"#utility.yul\":14544:14617   */\n      tag_272\n      jump\t// in\n    tag_305:\n        /* \"#utility.yul\":13778:14624   */\n      swap7\n      swap6\n      pop\n      pop\n      pop\n      pop\n      pop\n      pop\n      jump\t// out\n        /* \"#utility.yul\":14630:15072   */\n    tag_85:\n        /* \"#utility.yul\":14779:14783   */\n      0x00\n        /* \"#utility.yul\":14817:14819   */\n      0x60\n        /* \"#utility.yul\":14806:14815   */\n      dup3\n        /* \"#utility.yul\":14802:14820   */\n      add\n        /* \"#utility.yul\":14794:14820   */\n      swap1\n      pop\n        /* \"#utility.yul\":14830:14901   */\n      tag_307\n        /* \"#utility.yul\":14898:14899   */\n      0x00\n        /* \"#utility.yul\":14887:14896   */\n      dup4\n        /* \"#utility.yul\":14883:14900   */\n      add\n        /* \"#utility.yul\":14874:14880   */\n      dup7\n        /* \"#utility.yul\":14830:14901   */\n      tag_272\n      jump\t// in\n    tag_307:\n        /* \"#utility.yul\":14911:14983   */\n      tag_308\n        /* \"#utility.yul\":14979:14981   */\n      0x20\n        /* \"#utility.yul\":14968:14977   */\n      dup4\n        /* \"#utility.yul\":14964:14982   */\n      add\n        /* \"#utility.yul\":14955:14961   */\n      dup6\n        /* \"#utility.yul\":14911:14983   */\n      tag_272\n      jump\t// in\n    tag_308:\n        /* \"#utility.yul\":14993:15065   */\n      tag_309\n        /* \"#utility.yul\":15061:15063   */\n      0x40\n        /* \"#utility.yul\":15050:15059   */\n      dup4\n        /* \"#utility.yul\":15046:15064   */\n      add\n        /* \"#utility.yul\":15037:15043   */\n      dup5\n        /* \"#utility.yul\":14993:15065   */\n      tag_272\n      jump\t// in\n    tag_309:\n        /* \"#utility.yul\":14630:15072   */\n      swap5\n      swap4\n      pop\n      pop\n      pop\n      pop\n      jump\t// out\n        /* \"#utility.yul\":15078:15924   */\n    tag_131:\n        /* \"#utility.yul\":15323:15327   */\n      0x00\n        /* \"#utility.yul\":15361:15364   */\n      0xa0\n        /* \"#utility.yul\":15350:15359   */\n      dup3\n        /* \"#utility.yul\":15346:15365   */\n      add\n        /* \"#utility.yul\":15338:15365   */\n      swap1\n      pop\n        /* \"#utility.yul\":15375:15446   */\n      tag_311\n        /* \"#utility.yul\":15443:15444   */\n      0x00\n        /* \"#utility.yul\":15432:15441   */\n      dup4\n        /* \"#utility.yul\":15428:15445   */\n      add\n        /* \"#utility.yul\":15419:15425   */\n      dup9\n        /* \"#utility.yul\":15375:15446   */\n      tag_272\n      jump\t// in\n    tag_311:\n        /* \"#utility.yul\":15456:15528   */\n      tag_312\n        /* \"#utility.yul\":15524:15526   */\n      0x20\n        /* \"#utility.yul\":15513:15522   */\n      dup4\n        /* \"#utility.yul\":15509:15527   */\n      add\n        /* \"#utility.yul\":15500:15506   */\n      dup8\n        /* \"#utility.yul\":15456:15528   */\n      tag_272\n      jump\t// in\n    tag_312:\n        /* \"#utility.yul\":15538:15610   */\n      tag_313\n        /* \"#utility.yul\":15606:15608   */\n      0x40\n        /* \"#utility.yul\":15595:15604   */\n      dup4\n        /* \"#utility.yul\":15591:15609   */\n      add\n        /* \"#utility.yul\":15582:15588   */\n      dup7\n        /* \"#utility.yul\":15538:15610   */\n      tag_272\n      jump\t// in\n    tag_313:\n        /* \"#utility.yul\":15657:15666   */\n      dup2\n        /* \"#utility.yul\":15651:15655   */\n      dup2\n        /* \"#utility.yul\":15647:15667   */\n      sub\n        /* \"#utility.yul\":15642:15644   */\n      0x60\n        /* \"#utility.yul\":15631:15640   */\n      dup4\n        /* \"#utility.yul\":15627:15645   */\n      add\n        /* \"#utility.yul\":15620:15668   */\n      mstore\n        /* \"#utility.yul\":15685:15763   */\n      tag_314\n        /* \"#utility.yul\":15758:15762   */\n      dup2\n        /* \"#utility.yul\":15749:15755   */\n      dup6\n        /* \"#utility.yul\":15685:15763   */\n      tag_253\n      jump\t// in\n    tag_314:\n        /* \"#utility.yul\":15677:15763   */\n      swap1\n      pop\n        /* \"#utility.yul\":15811:15820   */\n      dup2\n        /* \"#utility.yul\":15805:15809   */\n      dup2\n        /* \"#utility.yul\":15801:15821   */\n      sub\n        /* \"#utility.yul\":15795:15798   */\n      0x80\n        /* \"#utility.yul\":15784:15793   */\n      dup4\n        /* \"#utility.yul\":15780:15799   */\n      add\n        /* \"#utility.yul\":15773:15822   */\n      mstore\n        /* \"#utility.yul\":15839:15917   */\n      tag_315\n        /* \"#utility.yul\":15912:15916   */\n      dup2\n        /* \"#utility.yul\":15903:15909   */\n      dup5\n        /* \"#utility.yul\":15839:15917   */\n      tag_253\n      jump\t// in\n    tag_315:\n        /* \"#utility.yul\":15831:15917   */\n      swap1\n      pop\n        /* \"#utility.yul\":15078:15924   */\n      swap7\n      swap6\n      pop\n      pop\n      pop\n      pop\n      pop\n      pop\n      jump\t// out\n        /* \"#utility.yul\":15930:16059   */\n    tag_151:\n        /* \"#utility.yul\":15964:15970   */\n      0x00\n        /* \"#utility.yul\":15991:16011   */\n      tag_317\n      tag_318\n      jump\t// in\n    tag_317:\n        /* \"#utility.yul\":15981:16011   */\n      swap1\n      pop\n        /* \"#utility.yul\":16020:16053   */\n      tag_319\n        /* \"#utility.yul\":16048:16052   */\n      dup3\n        /* \"#utility.yul\":16040:16046   */\n      dup3\n        /* \"#utility.yul\":16020:16053   */\n      tag_320\n      jump\t// in\n    tag_319:\n        /* \"#utility.yul\":15930:16059   */\n      swap2\n      swap1\n      pop\n      jump\t// out\n        /* \"#utility.yul\":16065:16140   */\n    tag_318:\n        /* \"#utility.yul\":16098:16104   */\n      0x00\n        /* \"#utility.yul\":16131:16133   */\n      0x40\n        /* \"#utility.yul\":16125:16134   */\n      mload\n        /* \"#utility.yul\":16115:16134   */\n      swap1\n      pop\n        /* \"#utility.yul\":16065:16140   */\n      swap1\n      jump\t// out\n        /* \"#utility.yul\":16146:16454   */\n    tag_150:\n        /* \"#utility.yul\":16208:16212   */\n      0x00\n        /* \"#utility.yul\":16298:16316   */\n      0xffffffffffffffff\n        /* \"#utility.yul\":16290:16296   */\n      dup3\n        /* \"#utility.yul\":16287:16317   */\n      gt\n        /* \"#utility.yul\":16284:16340   */\n      iszero\n      tag_323\n      jumpi\n        /* \"#utility.yul\":16320:16338   */\n      tag_324\n      tag_325\n      jump\t// in\n    tag_324:\n        /* \"#utility.yul\":16284:16340   */\n    tag_323:\n        /* \"#utility.yul\":16358:16387   */\n      tag_326\n        /* \"#utility.yul\":16380:16386   */\n      dup3\n        /* \"#utility.yul\":16358:16387   */\n      tag_261\n      jump\t// in\n    tag_326:\n        /* \"#utility.yul\":16350:16387   */\n      swap1\n      pop\n        /* \"#utility.yul\":16442:16446   */\n      0x20\n        /* \"#utility.yul\":16436:16440   */\n      dup2\n        /* \"#utility.yul\":16432:16447   */\n      add\n        /* \"#utility.yul\":16424:16447   */\n      swap1\n      pop\n        /* \"#utility.yul\":16146:16454   */\n      swap2\n      swap1\n      pop\n      jump\t// out\n        /* \"#utility.yul\":16460:16559   */\n    tag_256:\n        /* \"#utility.yul\":16512:16518   */\n      0x00\n        /* \"#utility.yul\":16546:16551   */\n      dup2\n        /* \"#utility.yul\":16540:16552   */\n      mload\n        /* \"#utility.yul\":16530:16552   */\n      swap1\n      pop\n        /* \"#utility.yul\":16460:16559   */\n      swap2\n      swap1\n      pop\n      jump\t// out\n        /* \"#utility.yul\":16565:16734   */\n    tag_258:\n        /* \"#utility.yul\":16649:16660   */\n      0x00\n        /* \"#utility.yul\":16683:16689   */\n      dup3\n        /* \"#utility.yul\":16678:16681   */\n      dup3\n        /* \"#utility.yul\":16671:16690   */\n      mstore\n        /* \"#utility.yul\":16723:16727   */\n      0x20\n        /* \"#utility.yul\":16718:16721   */\n      dup3\n        /* \"#utility.yul\":16714:16728   */\n      add\n        /* \"#utility.yul\":16699:16728   */\n      swap1\n      pop\n        /* \"#utility.yul\":16565:16734   */\n      swap3\n      swap2\n      pop\n      pop\n      jump\t// out\n        /* \"#utility.yul\":16740:16836   */\n    tag_329:\n        /* \"#utility.yul\":16777:16784   */\n      0x00\n        /* \"#utility.yul\":16806:16830   */\n      tag_331\n        /* \"#utility.yul\":16824:16829   */\n      dup3\n        /* \"#utility.yul\":16806:16830   */\n      tag_332\n      jump\t// in\n    tag_331:\n        /* \"#utility.yul\":16795:16830   */\n      swap1\n      pop\n        /* \"#utility.yul\":16740:16836   */\n      swap2\n      swap1\n      pop\n      jump\t// out\n        /* \"#utility.yul\":16842:16968   */\n    tag_332:\n        /* \"#utility.yul\":16879:16886   */\n      0x00\n        /* \"#utility.yul\":16919:16961   */\n      0xffffffffffffffffffffffffffffffffffffffff\n        /* \"#utility.yul\":16912:16917   */\n      dup3\n        /* \"#utility.yul\":16908:16962   */\n      and\n        /* \"#utility.yul\":16897:16962   */\n      swap1\n      pop\n        /* \"#utility.yul\":16842:16968   */\n      swap2\n      swap1\n      pop\n      jump\t// out\n        /* \"#utility.yul\":16974:17051   */\n    tag_275:\n        /* \"#utility.yul\":17011:17018   */\n      0x00\n        /* \"#utility.yul\":17040:17045   */\n      dup2\n        /* \"#utility.yul\":17029:17045   */\n      swap1\n      pop\n        /* \"#utility.yul\":16974:17051   */\n      swap2\n      swap1\n      pop\n      jump\t// out\n        /* \"#utility.yul\":17057:17211   */\n    tag_156:\n        /* \"#utility.yul\":17141:17147   */\n      dup3\n        /* \"#utility.yul\":17136:17139   */\n      dup2\n        /* \"#utility.yul\":17131:17134   */\n      dup4\n        /* \"#utility.yul\":17118:17148   */\n      calldatacopy\n        /* \"#utility.yul\":17203:17204   */\n      0x00\n        /* \"#utility.yul\":17194:17200   */\n      dup4\n        /* \"#utility.yul\":17189:17192   */\n      dup4\n        /* \"#utility.yul\":17185:17201   */\n      add\n        /* \"#utility.yul\":17178:17205   */\n      mstore\n        /* \"#utility.yul\":17057:17211   */\n      pop\n      pop\n      pop\n      jump\t// out\n        /* \"#utility.yul\":17217:17524   */\n    tag_164:\n        /* \"#utility.yul\":17285:17286   */\n      0x00\n        /* \"#utility.yul\":17295:17408   */\n    tag_337:\n        /* \"#utility.yul\":17309:17315   */\n      dup4\n        /* \"#utility.yul\":17306:17307   */\n      dup2\n        /* \"#utility.yul\":17303:17316   */\n      lt\n        /* \"#utility.yul\":17295:17408   */\n      iszero\n      tag_339\n      jumpi\n        /* \"#utility.yul\":17394:17395   */\n      dup1\n        /* \"#utility.yul\":17389:17392   */\n      dup3\n        /* \"#utility.yul\":17385:17396   */\n      add\n        /* \"#utility.yul\":17379:17397   */\n      mload\n        /* \"#utility.yul\":17375:17376   */\n      dup2\n        /* \"#utility.yul\":17370:17373   */\n      dup5\n        /* \"#utility.yul\":17366:17377   */\n      add\n        /* \"#utility.yul\":17359:17398   */\n      mstore\n        /* \"#utility.yul\":17331:17333   */\n      0x20\n        /* \"#utility.yul\":17328:17329   */\n      dup2\n        /* \"#utility.yul\":17324:17334   */\n      add\n        /* \"#utility.yul\":17319:17334   */\n      swap1\n      pop\n        /* \"#utility.yul\":17295:17408   */\n      jump(tag_337)\n    tag_339:\n        /* \"#utility.yul\":17426:17432   */\n      dup4\n        /* \"#utility.yul\":17423:17424   */\n      dup2\n        /* \"#utility.yul\":17420:17433   */\n      gt\n        /* \"#utility.yul\":17417:17518   */\n      iszero\n      tag_340\n      jumpi\n        /* \"#utility.yul\":17506:17507   */\n      0x00\n        /* \"#utility.yul\":17497:17503   */\n      dup5\n        /* \"#utility.yul\":17492:17495   */\n      dup5\n        /* \"#utility.yul\":17488:17504   */\n      add\n        /* \"#utility.yul\":17481:17508   */\n      mstore\n        /* \"#utility.yul\":17417:17518   */\n    tag_340:\n        /* \"#utility.yul\":17266:17524   */\n      pop\n        /* \"#utility.yul\":17217:17524   */\n      pop\n      pop\n      pop\n      jump\t// out\n        /* \"#utility.yul\":17530:17701   */\n    tag_105:\n        /* \"#utility.yul\":17569:17572   */\n      0x00\n        /* \"#utility.yul\":17592:17616   */\n      tag_342\n        /* \"#utility.yul\":17610:17615   */\n      dup3\n        /* \"#utility.yul\":17592:17616   */\n      tag_275\n      jump\t// in\n    tag_342:\n        /* \"#utility.yul\":17583:17616   */\n      swap2\n      pop\n        /* \"#utility.yul\":17638:17642   */\n      0x00\n        /* \"#utility.yul\":17631:17636   */\n      dup3\n        /* \"#utility.yul\":17628:17643   */\n      eq\n        /* \"#utility.yul\":17625:17666   */\n      iszero\n      tag_343\n      jumpi\n        /* \"#utility.yul\":17646:17664   */\n      tag_344\n      tag_345\n      jump\t// in\n    tag_344:\n        /* \"#utility.yul\":17625:17666   */\n    tag_343:\n        /* \"#utility.yul\":17693:17694   */\n      0x01\n        /* \"#utility.yul\":17686:17691   */\n      dup3\n        /* \"#utility.yul\":17682:17695   */\n      sub\n        /* \"#utility.yul\":17675:17695   */\n      swap1\n      pop\n        /* \"#utility.yul\":17530:17701   */\n      swap2\n      swap1\n      pop\n      jump\t// out\n        /* \"#utility.yul\":17707:18027   */\n    tag_93:\n        /* \"#utility.yul\":17751:17757   */\n      0x00\n        /* \"#utility.yul\":17788:17789   */\n      0x02\n        /* \"#utility.yul\":17782:17786   */\n      dup3\n        /* \"#utility.yul\":17778:17790   */\n      div\n        /* \"#utility.yul\":17768:17790   */\n      swap1\n      pop\n        /* \"#utility.yul\":17835:17836   */\n      0x01\n        /* \"#utility.yul\":17829:17833   */\n      dup3\n        /* \"#utility.yul\":17825:17837   */\n      and\n        /* \"#utility.yul\":17856:17874   */\n      dup1\n        /* \"#utility.yul\":17846:17927   */\n      tag_347\n      jumpi\n        /* \"#utility.yul\":17912:17916   */\n      0x7f\n        /* \"#utility.yul\":17904:17910   */\n      dup3\n        /* \"#utility.yul\":17900:17917   */\n      and\n        /* \"#utility.yul\":17890:17917   */\n      swap2\n      pop\n        /* \"#utility.yul\":17846:17927   */\n    tag_347:\n        /* \"#utility.yul\":17974:17976   */\n      0x20\n        /* \"#utility.yul\":17966:17972   */\n      dup3\n        /* \"#utility.yul\":17963:17977   */\n      lt\n        /* \"#utility.yul\":17943:17961   */\n      dup2\n        /* \"#utility.yul\":17940:17978   */\n      eq\n        /* \"#utility.yul\":17937:18021   */\n      iszero\n      tag_348\n      jumpi\n        /* \"#utility.yul\":17993:18011   */\n      tag_349\n      tag_350\n      jump\t// in\n    tag_349:\n        /* \"#utility.yul\":17937:18021   */\n    tag_348:\n        /* \"#utility.yul\":17758:18027   */\n      pop\n        /* \"#utility.yul\":17707:18027   */\n      swap2\n      swap1\n      pop\n      jump\t// out\n        /* \"#utility.yul\":18033:18314   */\n    tag_320:\n        /* \"#utility.yul\":18116:18143   */\n      tag_352\n        /* \"#utility.yul\":18138:18142   */\n      dup3\n        /* \"#utility.yul\":18116:18143   */\n      tag_261\n      jump\t// in\n    tag_352:\n        /* \"#utility.yul\":18108:18114   */\n      dup2\n        /* \"#utility.yul\":18104:18144   */\n      add\n        /* \"#utility.yul\":18246:18252   */\n      dup2\n        /* \"#utility.yul\":18234:18244   */\n      dup2\n        /* \"#utility.yul\":18231:18253   */\n      lt\n        /* \"#utility.yul\":18210:18228   */\n      0xffffffffffffffff\n        /* \"#utility.yul\":18198:18208   */\n      dup3\n        /* \"#utility.yul\":18195:18229   */\n      gt\n        /* \"#utility.yul\":18192:18254   */\n      or\n        /* \"#utility.yul\":18189:18277   */\n      iszero\n      tag_353\n      jumpi\n        /* \"#utility.yul\":18257:18275   */\n      tag_354\n      tag_325\n      jump\t// in\n    tag_354:\n        /* \"#utility.yul\":18189:18277   */\n    tag_353:\n        /* \"#utility.yul\":18297:18307   */\n      dup1\n        /* \"#utility.yul\":18293:18295   */\n      0x40\n        /* \"#utility.yul\":18286:18308   */\n      mstore\n        /* \"#utility.yul\":18076:18314   */\n      pop\n        /* \"#utility.yul\":18033:18314   */\n      pop\n      pop\n      jump\t// out\n        /* \"#utility.yul\":18320:18553   */\n    tag_81:\n        /* \"#utility.yul\":18359:18362   */\n      0x00\n        /* \"#utility.yul\":18382:18406   */\n      tag_356\n        /* \"#utility.yul\":18400:18405   */\n      dup3\n        /* \"#utility.yul\":18382:18406   */\n      tag_275\n      jump\t// in\n    tag_356:\n        /* \"#utility.yul\":18373:18406   */\n      swap2\n      pop\n        /* \"#utility.yul\":18428:18494   */\n      0xffffffffffffffffffffffffffffffffffffffffffffffffffffffffffffffff\n        /* \"#utility.yul\":18421:18426   */\n      dup3\n        /* \"#utility.yul\":18418:18495   */\n      eq\n        /* \"#utility.yul\":18415:18518   */\n      iszero\n      tag_357\n      jumpi\n        /* \"#utility.yul\":18498:18516   */\n      tag_358\n      tag_345\n      jump\t// in\n    tag_358:\n        /* \"#utility.yul\":18415:18518   */\n    tag_357:\n        /* \"#utility.yul\":18545:18546   */\n      0x01\n        /* \"#utility.yul\":18538:18543   */\n      dup3\n        /* \"#utility.yul\":18534:18547   */\n      add\n        /* \"#utility.yul\":18527:18547   */\n      swap1\n      pop\n        /* \"#utility.yul\":18320:18553   */\n      swap2\n      swap1\n      pop\n      jump\t// out\n        /* \"#utility.yul\":18559:18739   */\n    tag_345:\n        /* \"#utility.yul\":18607:18684   */\n      0x4e487b7100000000000000000000000000000000000000000000000000000000\n        /* \"#utility.yul\":18604:18605   */\n      0x00\n        /* \"#utility.yul\":18597:18685   */\n      mstore\n        /* \"#utility.yul\":18704:18708   */\n      0x11\n        /* \"#utility.yul\":18701:18702   */\n      0x04\n        /* \"#utility.yul\":18694:18709   */\n      mstore\n        /* \"#utility.yul\":18728:18732   */\n      0x24\n        /* \"#utility.yul\":18725:18726   */\n      0x00\n        /* \"#utility.yul\":18718:18733   */\n      revert\n        /* \"#utility.yul\":18745:18925   */\n    tag_77:\n        /* \"#utility.yul\":18793:18870   */\n      0x4e487b7100000000000000000000000000000000000000000000000000000000\n        /* \"#utility.yul\":18790:18791   */\n      0x00\n        /* \"#utility.yul\":18783:18871   */\n      mstore\n        /* \"#utility.yul\":18890:18894   */\n      0x21\n        /* \"#utility.yul\":18887:18888   */\n      0x04\n        /* \"#utility.yul\":18880:18895   */\n      mstore\n        /* \"#utility.yul\":18914:18918   */\n      0x24\n        /* \"#utility.yul\":18911:18912   */\n      0x00\n        /* \"#utility.yul\":18904:18919   */\n      revert\n        /* \"#utility.yul\":18931:19111   */\n    tag_350:\n        /* \"#utility.yul\":18979:19056   */\n      0x4e487b7100000000000000000000000000000000000000000000000000000000\n        /* \"#utility.yul\":18976:18977   */\n      0x00\n        /* \"#utility.yul\":18969:19057   */\n      mstore\n        /* \"#utility.yul\":19076:19080   */\n      0x22\n        /* \"#utility.yul\":19073:19074   */\n      0x04\n        /* \"#utility.yul\":19066:19081   */\n      mstore\n        /* \"#utility.yul\":19100:19104   */\n      0x24\n        /* \"#utility.yul\":19097:19098   */\n      0x00\n        /* \"#utility.yul\":19090:19105   */\n      revert\n        /* \"#utility.yul\":19117:19297   */\n    tag_325:\n        /* \"#utility.yul\":19165:19242   */\n      0x4e487b7100000000000000000000000000000000000000000000000000000000\n        /* \"#utility.yul\":19162:19163   */\n      0x00\n        /* \"#utility.yul\":19155:19243   */\n      mstore\n        /* \"#utility.yul\":19262:19266   */\n      0x41\n        /* \"#utility.yul\":19259:19260   */\n      0x04\n        /* \"#utility.yul\":19252:19267   */\n      mstore\n        /* \"#utility.yul\":19286:19290   */\n      0x24\n        /* \"#utility.yul\":19283:19284   */\n      0x00\n        /* \"#utility.yul\":19276:19291   */\n      revert\n        /* \"#utility.yul\":19303:19420   */\n    tag_173:\n        /* \"#utility.yul\":19412:19413   */\n      0x00\n        /* \"#utility.yul\":19409:19410   */\n      dup1\n        /* \"#utility.yul\":19402:19414   */\n      revert\n        /* \"#utility.yul\":19426:19543   */\n    tag_154:\n        /* \"#utility.yul\":19535:19536   */\n      0x00\n        /* \"#utility.yul\":19532:19533   */\n      dup1\n        /* \"#utility.yul\":19525:19537   */\n      revert\n        /* \"#utility.yul\":19549:19666   */\n    tag_190:\n        /* \"#utility.yul\":19658:19659   */\n      0x00\n        /* \"#utility.yul\":19655:19656   */\n      dup1\n        /* \"#utility.yul\":19648:19660   */\n      revert\n        /* \"#utility.yul\":19672:19789   */\n    tag_187:\n        /* \"#utility.yul\":19781:19782   */\n      0x00\n        /* \"#utility.yul\":19778:19779   */\n      dup1\n        /* \"#utility.yul\":19771:19783   */\n      revert\n        /* \"#utility.yul\":19795:19897   */\n    tag_261:\n        /* \"#utility.yul\":19836:19842   */\n      0x00\n        /* \"#utility.yul\":19887:19889   */\n      0x1f\n        /* \"#utility.yul\":19883:19890   */\n      not\n        /* \"#utility.yul\":19878:19880   */\n      0x1f\n        /* \"#utility.yul\":19871:19876   */\n      dup4\n        /* \"#utility.yul\":19867:19881   */\n      add\n        /* \"#utility.yul\":19863:19891   */\n      and\n        /* \"#utility.yul\":19853:19891   */\n      swap1\n      pop\n        /* \"#utility.yul\":19795:19897   */\n      swap2\n      swap1\n      pop\n      jump\t// out\n        /* \"#utility.yul\":19903:20123   */\n    tag_266:\n        /* \"#utility.yul\":20043:20077   */\n      0x412053657276696365205072696365206d757374206265207370656369666965\n        /* \"#utility.yul\":20039:20040   */\n      0x00\n        /* \"#utility.yul\":20031:20037   */\n      dup3\n        /* \"#utility.yul\":20027:20041   */\n      add\n        /* \"#utility.yul\":20020:20078   */\n      mstore\n        /* \"#utility.yul\":20112:20115   */\n      0x6400000000000000000000000000000000000000000000000000000000000000\n        /* \"#utility.yul\":20107:20109   */\n      0x20\n        /* \"#utility.yul\":20099:20105   */\n      dup3\n        /* \"#utility.yul\":20095:20110   */\n      add\n        /* \"#utility.yul\":20088:20116   */\n      mstore\n        /* \"#utility.yul\":19903:20123   */\n      pop\n      jump\t// out\n        /* \"#utility.yul\":20129:20300   */\n    tag_271:\n        /* \"#utility.yul\":20269:20292   */\n      0x4120737472696e67206973207265717569726564210000000000000000000000\n        /* \"#utility.yul\":20265:20266   */\n      0x00\n        /* \"#utility.yul\":20257:20263   */\n      dup3\n        /* \"#utility.yul\":20253:20267   */\n      add\n        /* \"#utility.yul\":20246:20293   */\n      mstore\n        /* \"#utility.yul\":20129:20300   */\n      pop\n      jump\t// out\n        /* \"#utility.yul\":20306:20428   */\n    tag_168:\n        /* \"#utility.yul\":20379:20403   */\n      tag_371\n        /* \"#utility.yul\":20397:20402   */\n      dup2\n        /* \"#utility.yul\":20379:20403   */\n      tag_329\n      jump\t// in\n    tag_371:\n        /* \"#utility.yul\":20372:20377   */\n      dup2\n        /* \"#utility.yul\":20369:20404   */\n      eq\n        /* \"#utility.yul\":20359:20422   */\n      tag_372\n      jumpi\n        /* \"#utility.yul\":20418:20419   */\n      0x00\n        /* \"#utility.yul\":20415:20416   */\n      dup1\n        /* \"#utility.yul\":20408:20420   */\n      revert\n        /* \"#utility.yul\":20359:20422   */\n    tag_372:\n        /* \"#utility.yul\":20306:20428   */\n      pop\n      jump\t// out\n        /* \"#utility.yul\":20434:20556   */\n    tag_183:\n        /* \"#utility.yul\":20507:20531   */\n      tag_374\n        /* \"#utility.yul\":20525:20530   */\n      dup2\n        /* \"#utility.yul\":20507:20531   */\n      tag_275\n      jump\t// in\n    tag_374:\n        /* \"#utility.yul\":20500:20505   */\n      dup2\n        /* \"#utility.yul\":20497:20532   */\n      eq\n        /* \"#utility.yul\":20487:20550   */\n      tag_375\n      jumpi\n        /* \"#utility.yul\":20546:20547   */\n      0x00\n        /* \"#utility.yul\":20543:20544   */\n      dup1\n        /* \"#utility.yul\":20536:20548   */\n      revert\n        /* \"#utility.yul\":20487:20550   */\n    tag_375:\n        /* \"#utility.yul\":20434:20556   */\n      pop\n      jump\t// out\n\n    auxdata: 0xa2646970667358221220cfb14f6c258f345cae6ee9b48ae4c910889bb798634a1ed00dadcec0910f739c64736f6c63430008070033\n}\n",
				"bytecode": {
					"linkReferences": {},
					"object": "6080604052600060015560006002553480156200001b57600080fd5b50604051620018a3380380620018a383398181016040528101906200004191906200009f565b806000806101000a81548173ffffffffffffffffffffffffffffffffffffffff021916908373ffffffffffffffffffffffffffffffffffffffff1602179055505062000138565b60008151905062000099816200011e565b92915050565b600060208284031215620000b857620000b762000119565b5b6000620000c88482850162000088565b91505092915050565b6000620000de82620000f9565b9050919050565b6000620000f282620000d1565b9050919050565b600073ffffffffffffffffffffffffffffffffffffffff82169050919050565b600080fd5b6200012981620000e5565b81146200013557600080fd5b50565b61175b80620001486000396000f3fe608060405234801561001057600080fd5b50600436106100a95760003560e01c806353c49c641161007157806353c49c641461016a57806363ef8a5014610186578063ac10dfe3146101a2578063b257b1a0146101be578063b9b6c5d4146101ee578063fd23c4bb1461020a576100a9565b8063256da4e3146100ae57806330f73051146100ca578063352d28fd146100e857806349428a62146101065780634994772c14610137575b600080fd5b6100c860048036038101906100c39190610d83565b610226565b005b6100d26104c2565b6040516100df9190611248565b60405180910390f35b6100f06104c8565b6040516100fd9190611248565b60405180910390f35b610120600480360381019061011b9190610fc8565b6104ce565b60405161012e92919061117e565b60405180910390f35b610151600480360381019061014c9190610e36565b61058d565b60405161016194939291906111b5565b60405180910390f35b610184600480360381019061017f9190610e36565b61075a565b005b6101a0600480360381019061019b9190610e76565b6107ef565b005b6101bc60048036038101906101b79190610f15565b610886565b005b6101d860048036038101906101d39190610e36565b610976565b6040516101e5919061115c565b60405180910390f35b61020860048036038101906102039190610fc8565b610a30565b005b610224600480360381019061021f919061101b565b610ac4565b005b83600081511161026b576040517f08c379a000000000000000000000000000000000000000000000000000000000815260040161026290611228565b60405180910390fd5b8360008151116102b0576040517f08c379a00000000000000000000000000000000000000000000000000000000081526004016102a790611228565b60405180910390fd5b600084116102f3576040517f08c379a00000000000000000000000000000000000000000000000000000000081526004016102ea90611208565b60405180910390fd5b600060036000898152602001908152602001600020600060025481526020019081526020016000209050878160000181905550600254816001018190555086816002019080519060200190610349929190610b5e565b5085816003019080519060200190610362929190610b5e565b5084816004018190555060008160050181905550838160060160006101000a81548173ffffffffffffffffffffffffffffffffffffffff021916908373ffffffffffffffffffffffffffffffffffffffff16021790555060008160070160006101000a81548173ffffffffffffffffffffffffffffffffffffffff021916908373ffffffffffffffffffffffffffffffffffffffff16021790555060018160070160146101000a81548160ff02191690831515021790555060008160070160156101000a81548160ff02191690836005811115610442576104416115cd565b5b02179055507fe8bc23dadb6cac9147246af11cc9afe29b7f5f524a2e539da4486da2196a78f1886002548989896040516104809594939291906112df565b60405180910390a16001600081548092919061049b90611555565b9190505550600260008154809291906104b390611555565b91905055505050505050505050565b60015481565b60025481565b60608060008054906101000a900473ffffffffffffffffffffffffffffffffffffffff1673ffffffffffffffffffffffffffffffffffffffff166349428a628686866040518463ffffffff1660e01b815260040161052e93929190611340565b60006040518083038186803b15801561054657600080fd5b505afa15801561055a573d6000803e3d6000fd5b505050506040513d6000823e3d601f19601f820116820180604052508101906105839190610d0b565b5050935093915050565b60608060008060036000878152602001908152602001600020600086815260200190815260200160002060020160036000888152602001908152602001600020600087815260200190815260200160002060030160036000898152602001908152602001600020600088815260200190815260200160002060040154600360008a815260200190815260200160002060008981526020019081526020016000206005015483805461063d906114f2565b80601f0160208091040260200160405190810160405280929190818152602001828054610669906114f2565b80156106b65780601f1061068b576101008083540402835291602001916106b6565b820191906000526020600020905b81548152906001019060200180831161069957829003601f168201915b505050505093508280546106c9906114f2565b80601f01602080910402602001604051908101604052809291908181526020018280546106f5906114f2565b80156107425780601f1061071757610100808354040283529160200191610742565b820191906000526020600020905b81548152906001019060200180831161072557829003601f168201915b50505050509250935093509350935092959194509250565b600060036000848152602001908152602001600020600083815260200190815260200160002060070160146101000a81548160ff021916908315150217905550600160008154809291906107ad906114c8565b91905055507f04579b03ce378bfed31ee6443865880dab0b281efac453deb39233352189863f82826040516107e3929190611263565b60405180910390a15050565b60008054906101000a900473ffffffffffffffffffffffffffffffffffffffff1673ffffffffffffffffffffffffffffffffffffffff166363ef8a50858585856040518563ffffffff1660e01b815260040161084e949392919061128c565b600060405180830381600087803b15801561086857600080fd5b505af115801561087c573d6000803e3d6000fd5b5050505050505050565b82600360008781526020019081526020016000206000600254815260200190815260200160002060020190805190602001906108c3929190610b5e565b508160036000878152602001908152602001600020600060025481526020019081526020016000206003019080519060200190610901929190610b5e565b50806003600087815260200190815260200160002060006002548152602001908152602001600020600401819055507f68dd1fad96ebc5f1740866ec07701d4ab66240c086d6ae6d351ee74eacdf267e85858585856040516109679594939291906112df565b60405180910390a15050505050565b606060036000848152602001908152602001600020600083815260200190815260200160002060020180546109aa906114f2565b80601f01602080910402602001604051908101604052809291908181526020018280546109d6906114f2565b8015610a235780601f106109f857610100808354040283529160200191610a23565b820191906000526020600020905b815481529060010190602001808311610a0657829003601f168201915b5050505050905092915050565b60008054906101000a900473ffffffffffffffffffffffffffffffffffffffff1673ffffffffffffffffffffffffffffffffffffffff1663b9b6c5d48484846040518463ffffffff1660e01b8152600401610a8d93929190611340565b600060405180830381600087803b158015610aa757600080fd5b505af1158015610abb573d6000803e3d6000fd5b50505050505050565b60008054906101000a900473ffffffffffffffffffffffffffffffffffffffff1673ffffffffffffffffffffffffffffffffffffffff1663fd23c4bb86868686866040518663ffffffff1660e01b8152600401610b25959493929190611377565b600060405180830381600087803b158015610b3f57600080fd5b505af1158015610b53573d6000803e3d6000fd5b505050505050505050565b828054610b6a906114f2565b90600052602060002090601f016020900481019282610b8c5760008555610bd3565b82601f10610ba557805160ff1916838001178555610bd3565b82800160010185558215610bd3579182015b82811115610bd2578251825591602001919060010190610bb7565b5b509050610be09190610be4565b5090565b5b80821115610bfd576000816000905550600101610be5565b5090565b6000610c14610c0f846113fd565b6113d8565b905082815260208101848484011115610c3057610c2f61165f565b5b610c3b848285611486565b509392505050565b6000610c56610c51846113fd565b6113d8565b905082815260208101848484011115610c7257610c7161165f565b5b610c7d848285611495565b509392505050565b600081359050610c94816116f7565b92915050565b600082601f830112610caf57610cae61165a565b5b8135610cbf848260208601610c01565b91505092915050565b600082601f830112610cdd57610cdc61165a565b5b8151610ced848260208601610c43565b91505092915050565b600081359050610d058161170e565b92915050565b60008060408385031215610d2257610d21611669565b5b600083015167ffffffffffffffff811115610d4057610d3f611664565b5b610d4c85828601610cc8565b925050602083015167ffffffffffffffff811115610d6d57610d6c611664565b5b610d7985828601610cc8565b9150509250929050565b600080600080600060a08688031215610d9f57610d9e611669565b5b6000610dad88828901610cf6565b955050602086013567ffffffffffffffff811115610dce57610dcd611664565b5b610dda88828901610c9a565b945050604086013567ffffffffffffffff811115610dfb57610dfa611664565b5b610e0788828901610c9a565b9350506060610e1888828901610cf6565b9250506080610e2988828901610c85565b9150509295509295909350565b60008060408385031215610e4d57610e4c611669565b5b6000610e5b85828601610cf6565b9250506020610e6c85828601610cf6565b9150509250929050565b60008060008060808587031215610e9057610e8f611669565b5b6000610e9e87828801610cf6565b9450506020610eaf87828801610cf6565b935050604085013567ffffffffffffffff811115610ed057610ecf611664565b5b610edc87828801610c9a565b925050606085013567ffffffffffffffff811115610efd57610efc611664565b5b610f0987828801610c9a565b91505092959194509250565b600080600080600060a08688031215610f3157610f30611669565b5b6000610f3f88828901610cf6565b9550506020610f5088828901610cf6565b945050604086013567ffffffffffffffff811115610f7157610f70611664565b5b610f7d88828901610c9a565b935050606086013567ffffffffffffffff811115610f9e57610f9d611664565b5b610faa88828901610c9a565b9250506080610fbb88828901610cf6565b9150509295509295909350565b600080600060608486031215610fe157610fe0611669565b5b6000610fef86828701610cf6565b935050602061100086828701610cf6565b925050604061101186828701610cf6565b9150509250925092565b600080600080600060a0868803121561103757611036611669565b5b600061104588828901610cf6565b955050602061105688828901610cf6565b945050604061106788828901610cf6565b935050606086013567ffffffffffffffff81111561108857611087611664565b5b61109488828901610c9a565b925050608086013567ffffffffffffffff8111156110b5576110b4611664565b5b6110c188828901610c9a565b9150509295509295909350565b60006110d98261142e565b6110e38185611439565b93506110f3818560208601611495565b6110fc8161166e565b840191505092915050565b6000611114602183611439565b915061111f8261167f565b604082019050919050565b6000611137601583611439565b9150611142826116ce565b602082019050919050565b6111568161147c565b82525050565b6000602082019050818103600083015261117681846110ce565b905092915050565b6000604082019050818103600083015261119881856110ce565b905081810360208301526111ac81846110ce565b90509392505050565b600060808201905081810360008301526111cf81876110ce565b905081810360208301526111e381866110ce565b90506111f2604083018561114d565b6111ff606083018461114d565b95945050505050565b6000602082019050818103600083015261122181611107565b9050919050565b600060208201905081810360008301526112418161112a565b9050919050565b600060208201905061125d600083018461114d565b92915050565b6000604082019050611278600083018561114d565b611285602083018461114d565b9392505050565b60006080820190506112a1600083018761114d565b6112ae602083018661114d565b81810360408301526112c081856110ce565b905081810360608301526112d481846110ce565b905095945050505050565b600060a0820190506112f4600083018861114d565b611301602083018761114d565b818103604083015261131381866110ce565b9050818103606083015261132781856110ce565b9050611336608083018461114d565b9695505050505050565b6000606082019050611355600083018661114d565b611362602083018561114d565b61136f604083018461114d565b949350505050565b600060a08201905061138c600083018861114d565b611399602083018761114d565b6113a6604083018661114d565b81810360608301526113b881856110ce565b905081810360808301526113cc81846110ce565b90509695505050505050565b60006113e26113f3565b90506113ee8282611524565b919050565b6000604051905090565b600067ffffffffffffffff8211156114185761141761162b565b5b6114218261166e565b9050602081019050919050565b600081519050919050565b600082825260208201905092915050565b60006114558261145c565b9050919050565b600073ffffffffffffffffffffffffffffffffffffffff82169050919050565b6000819050919050565b82818337600083830152505050565b60005b838110156114b3578082015181840152602081019050611498565b838111156114c2576000848401525b50505050565b60006114d38261147c565b915060008214156114e7576114e661159e565b5b600182039050919050565b6000600282049050600182168061150a57607f821691505b6020821081141561151e5761151d6115fc565b5b50919050565b61152d8261166e565b810181811067ffffffffffffffff8211171561154c5761154b61162b565b5b80604052505050565b60006115608261147c565b91507fffffffffffffffffffffffffffffffffffffffffffffffffffffffffffffffff8214156115935761159261159e565b5b600182019050919050565b7f4e487b7100000000000000000000000000000000000000000000000000000000600052601160045260246000fd5b7f4e487b7100000000000000000000000000000000000000000000000000000000600052602160045260246000fd5b7f4e487b7100000000000000000000000000000000000000000000000000000000600052602260045260246000fd5b7f4e487b7100000000000000000000000000000000000000000000000000000000600052604160045260246000fd5b600080fd5b600080fd5b600080fd5b600080fd5b6000601f19601f8301169050919050565b7f412053657276696365205072696365206d75737420626520737065636966696560008201527f6400000000000000000000000000000000000000000000000000000000000000602082015250565b7f4120737472696e67206973207265717569726564210000000000000000000000600082015250565b6117008161144a565b811461170b57600080fd5b50565b6117178161147c565b811461172257600080fd5b5056fea2646970667358221220cfb14f6c258f345cae6ee9b48ae4c910889bb798634a1ed00dadcec0910f739c64736f6c63430008070033",
					"opcodes": "PUSH1 0x80 PUSH1 0x40 MSTORE PUSH1 0x0 PUSH1 0x1 SSTORE PUSH1 0x0 PUSH1 0x2 SSTORE CALLVALUE DUP1 ISZERO PUSH3 0x1B JUMPI PUSH1 0x0 DUP1 REVERT JUMPDEST POP PUSH1 0x40 MLOAD PUSH3 0x18A3 CODESIZE SUB DUP1 PUSH3 0x18A3 DUP4 CODECOPY DUP2 DUP2 ADD PUSH1 0x40 MSTORE DUP2 ADD SWAP1 PUSH3 0x41 SWAP2 SWAP1 PUSH3 0x9F JUMP JUMPDEST DUP1 PUSH1 0x0 DUP1 PUSH2 0x100 EXP DUP2 SLOAD DUP2 PUSH20 0xFFFFFFFFFFFFFFFFFFFFFFFFFFFFFFFFFFFFFFFF MUL NOT AND SWAP1 DUP4 PUSH20 0xFFFFFFFFFFFFFFFFFFFFFFFFFFFFFFFFFFFFFFFF AND MUL OR SWAP1 SSTORE POP POP PUSH3 0x138 JUMP JUMPDEST PUSH1 0x0 DUP2 MLOAD SWAP1 POP PUSH3 0x99 DUP2 PUSH3 0x11E JUMP JUMPDEST SWAP3 SWAP2 POP POP JUMP JUMPDEST PUSH1 0x0 PUSH1 0x20 DUP3 DUP5 SUB SLT ISZERO PUSH3 0xB8 JUMPI PUSH3 0xB7 PUSH3 0x119 JUMP JUMPDEST JUMPDEST PUSH1 0x0 PUSH3 0xC8 DUP5 DUP3 DUP6 ADD PUSH3 0x88 JUMP JUMPDEST SWAP2 POP POP SWAP3 SWAP2 POP POP JUMP JUMPDEST PUSH1 0x0 PUSH3 0xDE DUP3 PUSH3 0xF9 JUMP JUMPDEST SWAP1 POP SWAP2 SWAP1 POP JUMP JUMPDEST PUSH1 0x0 PUSH3 0xF2 DUP3 PUSH3 0xD1 JUMP JUMPDEST SWAP1 POP SWAP2 SWAP1 POP JUMP JUMPDEST PUSH1 0x0 PUSH20 0xFFFFFFFFFFFFFFFFFFFFFFFFFFFFFFFFFFFFFFFF DUP3 AND SWAP1 POP SWAP2 SWAP1 POP JUMP JUMPDEST PUSH1 0x0 DUP1 REVERT JUMPDEST PUSH3 0x129 DUP2 PUSH3 0xE5 JUMP JUMPDEST DUP2 EQ PUSH3 0x135 JUMPI PUSH1 0x0 DUP1 REVERT JUMPDEST POP JUMP JUMPDEST PUSH2 0x175B DUP1 PUSH3 0x148 PUSH1 0x0 CODECOPY PUSH1 0x0 RETURN INVALID PUSH1 0x80 PUSH1 0x40 MSTORE CALLVALUE DUP1 ISZERO PUSH2 0x10 JUMPI PUSH1 0x0 DUP1 REVERT JUMPDEST POP PUSH1 0x4 CALLDATASIZE LT PUSH2 0xA9 JUMPI PUSH1 0x0 CALLDATALOAD PUSH1 0xE0 SHR DUP1 PUSH4 0x53C49C64 GT PUSH2 0x71 JUMPI DUP1 PUSH4 0x53C49C64 EQ PUSH2 0x16A JUMPI DUP1 PUSH4 0x63EF8A50 EQ PUSH2 0x186 JUMPI DUP1 PUSH4 0xAC10DFE3 EQ PUSH2 0x1A2 JUMPI DUP1 PUSH4 0xB257B1A0 EQ PUSH2 0x1BE JUMPI DUP1 PUSH4 0xB9B6C5D4 EQ PUSH2 0x1EE JUMPI DUP1 PUSH4 0xFD23C4BB EQ PUSH2 0x20A JUMPI PUSH2 0xA9 JUMP JUMPDEST DUP1 PUSH4 0x256DA4E3 EQ PUSH2 0xAE JUMPI DUP1 PUSH4 0x30F73051 EQ PUSH2 0xCA JUMPI DUP1 PUSH4 0x352D28FD EQ PUSH2 0xE8 JUMPI DUP1 PUSH4 0x49428A62 EQ PUSH2 0x106 JUMPI DUP1 PUSH4 0x4994772C EQ PUSH2 0x137 JUMPI JUMPDEST PUSH1 0x0 DUP1 REVERT JUMPDEST PUSH2 0xC8 PUSH1 0x4 DUP1 CALLDATASIZE SUB DUP2 ADD SWAP1 PUSH2 0xC3 SWAP2 SWAP1 PUSH2 0xD83 JUMP JUMPDEST PUSH2 0x226 JUMP JUMPDEST STOP JUMPDEST PUSH2 0xD2 PUSH2 0x4C2 JUMP JUMPDEST PUSH1 0x40 MLOAD PUSH2 0xDF SWAP2 SWAP1 PUSH2 0x1248 JUMP JUMPDEST PUSH1 0x40 MLOAD DUP1 SWAP2 SUB SWAP1 RETURN JUMPDEST PUSH2 0xF0 PUSH2 0x4C8 JUMP JUMPDEST PUSH1 0x40 MLOAD PUSH2 0xFD SWAP2 SWAP1 PUSH2 0x1248 JUMP JUMPDEST PUSH1 0x40 MLOAD DUP1 SWAP2 SUB SWAP1 RETURN JUMPDEST PUSH2 0x120 PUSH1 0x4 DUP1 CALLDATASIZE SUB DUP2 ADD SWAP1 PUSH2 0x11B SWAP2 SWAP1 PUSH2 0xFC8 JUMP JUMPDEST PUSH2 0x4CE JUMP JUMPDEST PUSH1 0x40 MLOAD PUSH2 0x12E SWAP3 SWAP2 SWAP1 PUSH2 0x117E JUMP JUMPDEST PUSH1 0x40 MLOAD DUP1 SWAP2 SUB SWAP1 RETURN JUMPDEST PUSH2 0x151 PUSH1 0x4 DUP1 CALLDATASIZE SUB DUP2 ADD SWAP1 PUSH2 0x14C SWAP2 SWAP1 PUSH2 0xE36 JUMP JUMPDEST PUSH2 0x58D JUMP JUMPDEST PUSH1 0x40 MLOAD PUSH2 0x161 SWAP5 SWAP4 SWAP3 SWAP2 SWAP1 PUSH2 0x11B5 JUMP JUMPDEST PUSH1 0x40 MLOAD DUP1 SWAP2 SUB SWAP1 RETURN JUMPDEST PUSH2 0x184 PUSH1 0x4 DUP1 CALLDATASIZE SUB DUP2 ADD SWAP1 PUSH2 0x17F SWAP2 SWAP1 PUSH2 0xE36 JUMP JUMPDEST PUSH2 0x75A JUMP JUMPDEST STOP JUMPDEST PUSH2 0x1A0 PUSH1 0x4 DUP1 CALLDATASIZE SUB DUP2 ADD SWAP1 PUSH2 0x19B SWAP2 SWAP1 PUSH2 0xE76 JUMP JUMPDEST PUSH2 0x7EF JUMP JUMPDEST STOP JUMPDEST PUSH2 0x1BC PUSH1 0x4 DUP1 CALLDATASIZE SUB DUP2 ADD SWAP1 PUSH2 0x1B7 SWAP2 SWAP1 PUSH2 0xF15 JUMP JUMPDEST PUSH2 0x886 JUMP JUMPDEST STOP JUMPDEST PUSH2 0x1D8 PUSH1 0x4 DUP1 CALLDATASIZE SUB DUP2 ADD SWAP1 PUSH2 0x1D3 SWAP2 SWAP1 PUSH2 0xE36 JUMP JUMPDEST PUSH2 0x976 JUMP JUMPDEST PUSH1 0x40 MLOAD PUSH2 0x1E5 SWAP2 SWAP1 PUSH2 0x115C JUMP JUMPDEST PUSH1 0x40 MLOAD DUP1 SWAP2 SUB SWAP1 RETURN JUMPDEST PUSH2 0x208 PUSH1 0x4 DUP1 CALLDATASIZE SUB DUP2 ADD SWAP1 PUSH2 0x203 SWAP2 SWAP1 PUSH2 0xFC8 JUMP JUMPDEST PUSH2 0xA30 JUMP JUMPDEST STOP JUMPDEST PUSH2 0x224 PUSH1 0x4 DUP1 CALLDATASIZE SUB DUP2 ADD SWAP1 PUSH2 0x21F SWAP2 SWAP1 PUSH2 0x101B JUMP JUMPDEST PUSH2 0xAC4 JUMP JUMPDEST STOP JUMPDEST DUP4 PUSH1 0x0 DUP2 MLOAD GT PUSH2 0x26B JUMPI PUSH1 0x40 MLOAD PUSH32 0x8C379A000000000000000000000000000000000000000000000000000000000 DUP2 MSTORE PUSH1 0x4 ADD PUSH2 0x262 SWAP1 PUSH2 0x1228 JUMP JUMPDEST PUSH1 0x40 MLOAD DUP1 SWAP2 SUB SWAP1 REVERT JUMPDEST DUP4 PUSH1 0x0 DUP2 MLOAD GT PUSH2 0x2B0 JUMPI PUSH1 0x40 MLOAD PUSH32 0x8C379A000000000000000000000000000000000000000000000000000000000 DUP2 MSTORE PUSH1 0x4 ADD PUSH2 0x2A7 SWAP1 PUSH2 0x1228 JUMP JUMPDEST PUSH1 0x40 MLOAD DUP1 SWAP2 SUB SWAP1 REVERT JUMPDEST PUSH1 0x0 DUP5 GT PUSH2 0x2F3 JUMPI PUSH1 0x40 MLOAD PUSH32 0x8C379A000000000000000000000000000000000000000000000000000000000 DUP2 MSTORE PUSH1 0x4 ADD PUSH2 0x2EA SWAP1 PUSH2 0x1208 JUMP JUMPDEST PUSH1 0x40 MLOAD DUP1 SWAP2 SUB SWAP1 REVERT JUMPDEST PUSH1 0x0 PUSH1 0x3 PUSH1 0x0 DUP10 DUP2 MSTORE PUSH1 0x20 ADD SWAP1 DUP2 MSTORE PUSH1 0x20 ADD PUSH1 0x0 KECCAK256 PUSH1 0x0 PUSH1 0x2 SLOAD DUP2 MSTORE PUSH1 0x20 ADD SWAP1 DUP2 MSTORE PUSH1 0x20 ADD PUSH1 0x0 KECCAK256 SWAP1 POP DUP8 DUP2 PUSH1 0x0 ADD DUP2 SWAP1 SSTORE POP PUSH1 0x2 SLOAD DUP2 PUSH1 0x1 ADD DUP2 SWAP1 SSTORE POP DUP7 DUP2 PUSH1 0x2 ADD SWAP1 DUP1 MLOAD SWAP1 PUSH1 0x20 ADD SWAP1 PUSH2 0x349 SWAP3 SWAP2 SWAP1 PUSH2 0xB5E JUMP JUMPDEST POP DUP6 DUP2 PUSH1 0x3 ADD SWAP1 DUP1 MLOAD SWAP1 PUSH1 0x20 ADD SWAP1 PUSH2 0x362 SWAP3 SWAP2 SWAP1 PUSH2 0xB5E JUMP JUMPDEST POP DUP5 DUP2 PUSH1 0x4 ADD DUP2 SWAP1 SSTORE POP PUSH1 0x0 DUP2 PUSH1 0x5 ADD DUP2 SWAP1 SSTORE POP DUP4 DUP2 PUSH1 0x6 ADD PUSH1 0x0 PUSH2 0x100 EXP DUP2 SLOAD DUP2 PUSH20 0xFFFFFFFFFFFFFFFFFFFFFFFFFFFFFFFFFFFFFFFF MUL NOT AND SWAP1 DUP4 PUSH20 0xFFFFFFFFFFFFFFFFFFFFFFFFFFFFFFFFFFFFFFFF AND MUL OR SWAP1 SSTORE POP PUSH1 0x0 DUP2 PUSH1 0x7 ADD PUSH1 0x0 PUSH2 0x100 EXP DUP2 SLOAD DUP2 PUSH20 0xFFFFFFFFFFFFFFFFFFFFFFFFFFFFFFFFFFFFFFFF MUL NOT AND SWAP1 DUP4 PUSH20 0xFFFFFFFFFFFFFFFFFFFFFFFFFFFFFFFFFFFFFFFF AND MUL OR SWAP1 SSTORE POP PUSH1 0x1 DUP2 PUSH1 0x7 ADD PUSH1 0x14 PUSH2 0x100 EXP DUP2 SLOAD DUP2 PUSH1 0xFF MUL NOT AND SWAP1 DUP4 ISZERO ISZERO MUL OR SWAP1 SSTORE POP PUSH1 0x0 DUP2 PUSH1 0x7 ADD PUSH1 0x15 PUSH2 0x100 EXP DUP2 SLOAD DUP2 PUSH1 0xFF MUL NOT AND SWAP1 DUP4 PUSH1 0x5 DUP2 GT ISZERO PUSH2 0x442 JUMPI PUSH2 0x441 PUSH2 0x15CD JUMP JUMPDEST JUMPDEST MUL OR SWAP1 SSTORE POP PUSH32 0xE8BC23DADB6CAC9147246AF11CC9AFE29B7F5F524A2E539DA4486DA2196A78F1 DUP9 PUSH1 0x2 SLOAD DUP10 DUP10 DUP10 PUSH1 0x40 MLOAD PUSH2 0x480 SWAP6 SWAP5 SWAP4 SWAP3 SWAP2 SWAP1 PUSH2 0x12DF JUMP JUMPDEST PUSH1 0x40 MLOAD DUP1 SWAP2 SUB SWAP1 LOG1 PUSH1 0x1 PUSH1 0x0 DUP2 SLOAD DUP1 SWAP3 SWAP2 SWAP1 PUSH2 0x49B SWAP1 PUSH2 0x1555 JUMP JUMPDEST SWAP2 SWAP1 POP SSTORE POP PUSH1 0x2 PUSH1 0x0 DUP2 SLOAD DUP1 SWAP3 SWAP2 SWAP1 PUSH2 0x4B3 SWAP1 PUSH2 0x1555 JUMP JUMPDEST SWAP2 SWAP1 POP SSTORE POP POP POP POP POP POP POP POP POP JUMP JUMPDEST PUSH1 0x1 SLOAD DUP2 JUMP JUMPDEST PUSH1 0x2 SLOAD DUP2 JUMP JUMPDEST PUSH1 0x60 DUP1 PUSH1 0x0 DUP1 SLOAD SWAP1 PUSH2 0x100 EXP SWAP1 DIV PUSH20 0xFFFFFFFFFFFFFFFFFFFFFFFFFFFFFFFFFFFFFFFF AND PUSH20 0xFFFFFFFFFFFFFFFFFFFFFFFFFFFFFFFFFFFFFFFF AND PUSH4 0x49428A62 DUP7 DUP7 DUP7 PUSH1 0x40 MLOAD DUP5 PUSH4 0xFFFFFFFF AND PUSH1 0xE0 SHL DUP2 MSTORE PUSH1 0x4 ADD PUSH2 0x52E SWAP4 SWAP3 SWAP2 SWAP1 PUSH2 0x1340 JUMP JUMPDEST PUSH1 0x0 PUSH1 0x40 MLOAD DUP1 DUP4 SUB DUP2 DUP7 DUP1 EXTCODESIZE ISZERO DUP1 ISZERO PUSH2 0x546 JUMPI PUSH1 0x0 DUP1 REVERT JUMPDEST POP GAS STATICCALL ISZERO DUP1 ISZERO PUSH2 0x55A JUMPI RETURNDATASIZE PUSH1 0x0 DUP1 RETURNDATACOPY RETURNDATASIZE PUSH1 0x0 REVERT JUMPDEST POP POP POP POP PUSH1 0x40 MLOAD RETURNDATASIZE PUSH1 0x0 DUP3 RETURNDATACOPY RETURNDATASIZE PUSH1 0x1F NOT PUSH1 0x1F DUP3 ADD AND DUP3 ADD DUP1 PUSH1 0x40 MSTORE POP DUP2 ADD SWAP1 PUSH2 0x583 SWAP2 SWAP1 PUSH2 0xD0B JUMP JUMPDEST POP POP SWAP4 POP SWAP4 SWAP2 POP POP JUMP JUMPDEST PUSH1 0x60 DUP1 PUSH1 0x0 DUP1 PUSH1 0x3 PUSH1 0x0 DUP8 DUP2 MSTORE PUSH1 0x20 ADD SWAP1 DUP2 MSTORE PUSH1 0x20 ADD PUSH1 0x0 KECCAK256 PUSH1 0x0 DUP7 DUP2 MSTORE PUSH1 0x20 ADD SWAP1 DUP2 MSTORE PUSH1 0x20 ADD PUSH1 0x0 KECCAK256 PUSH1 0x2 ADD PUSH1 0x3 PUSH1 0x0 DUP9 DUP2 MSTORE PUSH1 0x20 ADD SWAP1 DUP2 MSTORE PUSH1 0x20 ADD PUSH1 0x0 KECCAK256 PUSH1 0x0 DUP8 DUP2 MSTORE PUSH1 0x20 ADD SWAP1 DUP2 MSTORE PUSH1 0x20 ADD PUSH1 0x0 KECCAK256 PUSH1 0x3 ADD PUSH1 0x3 PUSH1 0x0 DUP10 DUP2 MSTORE PUSH1 0x20 ADD SWAP1 DUP2 MSTORE PUSH1 0x20 ADD PUSH1 0x0 KECCAK256 PUSH1 0x0 DUP9 DUP2 MSTORE PUSH1 0x20 ADD SWAP1 DUP2 MSTORE PUSH1 0x20 ADD PUSH1 0x0 KECCAK256 PUSH1 0x4 ADD SLOAD PUSH1 0x3 PUSH1 0x0 DUP11 DUP2 MSTORE PUSH1 0x20 ADD SWAP1 DUP2 MSTORE PUSH1 0x20 ADD PUSH1 0x0 KECCAK256 PUSH1 0x0 DUP10 DUP2 MSTORE PUSH1 0x20 ADD SWAP1 DUP2 MSTORE PUSH1 0x20 ADD PUSH1 0x0 KECCAK256 PUSH1 0x5 ADD SLOAD DUP4 DUP1 SLOAD PUSH2 0x63D SWAP1 PUSH2 0x14F2 JUMP JUMPDEST DUP1 PUSH1 0x1F ADD PUSH1 0x20 DUP1 SWAP2 DIV MUL PUSH1 0x20 ADD PUSH1 0x40 MLOAD SWAP1 DUP2 ADD PUSH1 0x40 MSTORE DUP1 SWAP3 SWAP2 SWAP1 DUP2 DUP2 MSTORE PUSH1 0x20 ADD DUP3 DUP1 SLOAD PUSH2 0x669 SWAP1 PUSH2 0x14F2 JUMP JUMPDEST DUP1 ISZERO PUSH2 0x6B6 JUMPI DUP1 PUSH1 0x1F LT PUSH2 0x68B JUMPI PUSH2 0x100 DUP1 DUP4 SLOAD DIV MUL DUP4 MSTORE SWAP2 PUSH1 0x20 ADD SWAP2 PUSH2 0x6B6 JUMP JUMPDEST DUP3 ADD SWAP2 SWAP1 PUSH1 0x0 MSTORE PUSH1 0x20 PUSH1 0x0 KECCAK256 SWAP1 JUMPDEST DUP2 SLOAD DUP2 MSTORE SWAP1 PUSH1 0x1 ADD SWAP1 PUSH1 0x20 ADD DUP1 DUP4 GT PUSH2 0x699 JUMPI DUP3 SWAP1 SUB PUSH1 0x1F AND DUP3 ADD SWAP2 JUMPDEST POP POP POP POP POP SWAP4 POP DUP3 DUP1 SLOAD PUSH2 0x6C9 SWAP1 PUSH2 0x14F2 JUMP JUMPDEST DUP1 PUSH1 0x1F ADD PUSH1 0x20 DUP1 SWAP2 DIV MUL PUSH1 0x20 ADD PUSH1 0x40 MLOAD SWAP1 DUP2 ADD PUSH1 0x40 MSTORE DUP1 SWAP3 SWAP2 SWAP1 DUP2 DUP2 MSTORE PUSH1 0x20 ADD DUP3 DUP1 SLOAD PUSH2 0x6F5 SWAP1 PUSH2 0x14F2 JUMP JUMPDEST DUP1 ISZERO PUSH2 0x742 JUMPI DUP1 PUSH1 0x1F LT PUSH2 0x717 JUMPI PUSH2 0x100 DUP1 DUP4 SLOAD DIV MUL DUP4 MSTORE SWAP2 PUSH1 0x20 ADD SWAP2 PUSH2 0x742 JUMP JUMPDEST DUP3 ADD SWAP2 SWAP1 PUSH1 0x0 MSTORE PUSH1 0x20 PUSH1 0x0 KECCAK256 SWAP1 JUMPDEST DUP2 SLOAD DUP2 MSTORE SWAP1 PUSH1 0x1 ADD SWAP1 PUSH1 0x20 ADD DUP1 DUP4 GT PUSH2 0x725 JUMPI DUP3 SWAP1 SUB PUSH1 0x1F AND DUP3 ADD SWAP2 JUMPDEST POP POP POP POP POP SWAP3 POP SWAP4 POP SWAP4 POP SWAP4 POP SWAP4 POP SWAP3 SWAP6 SWAP2 SWAP5 POP SWAP3 POP JUMP JUMPDEST PUSH1 0x0 PUSH1 0x3 PUSH1 0x0 DUP5 DUP2 MSTORE PUSH1 0x20 ADD SWAP1 DUP2 MSTORE PUSH1 0x20 ADD PUSH1 0x0 KECCAK256 PUSH1 0x0 DUP4 DUP2 MSTORE PUSH1 0x20 ADD SWAP1 DUP2 MSTORE PUSH1 0x20 ADD PUSH1 0x0 KECCAK256 PUSH1 0x7 ADD PUSH1 0x14 PUSH2 0x100 EXP DUP2 SLOAD DUP2 PUSH1 0xFF MUL NOT AND SWAP1 DUP4 ISZERO ISZERO MUL OR SWAP1 SSTORE POP PUSH1 0x1 PUSH1 0x0 DUP2 SLOAD DUP1 SWAP3 SWAP2 SWAP1 PUSH2 0x7AD SWAP1 PUSH2 0x14C8 JUMP JUMPDEST SWAP2 SWAP1 POP SSTORE POP PUSH32 0x4579B03CE378BFED31EE6443865880DAB0B281EFAC453DEB39233352189863F DUP3 DUP3 PUSH1 0x40 MLOAD PUSH2 0x7E3 SWAP3 SWAP2 SWAP1 PUSH2 0x1263 JUMP JUMPDEST PUSH1 0x40 MLOAD DUP1 SWAP2 SUB SWAP1 LOG1 POP POP JUMP JUMPDEST PUSH1 0x0 DUP1 SLOAD SWAP1 PUSH2 0x100 EXP SWAP1 DIV PUSH20 0xFFFFFFFFFFFFFFFFFFFFFFFFFFFFFFFFFFFFFFFF AND PUSH20 0xFFFFFFFFFFFFFFFFFFFFFFFFFFFFFFFFFFFFFFFF AND PUSH4 0x63EF8A50 DUP6 DUP6 DUP6 DUP6 PUSH1 0x40 MLOAD DUP6 PUSH4 0xFFFFFFFF AND PUSH1 0xE0 SHL DUP2 MSTORE PUSH1 0x4 ADD PUSH2 0x84E SWAP5 SWAP4 SWAP3 SWAP2 SWAP1 PUSH2 0x128C JUMP JUMPDEST PUSH1 0x0 PUSH1 0x40 MLOAD DUP1 DUP4 SUB DUP2 PUSH1 0x0 DUP8 DUP1 EXTCODESIZE ISZERO DUP1 ISZERO PUSH2 0x868 JUMPI PUSH1 0x0 DUP1 REVERT JUMPDEST POP GAS CALL ISZERO DUP1 ISZERO PUSH2 0x87C JUMPI RETURNDATASIZE PUSH1 0x0 DUP1 RETURNDATACOPY RETURNDATASIZE PUSH1 0x0 REVERT JUMPDEST POP POP POP POP POP POP POP POP JUMP JUMPDEST DUP3 PUSH1 0x3 PUSH1 0x0 DUP8 DUP2 MSTORE PUSH1 0x20 ADD SWAP1 DUP2 MSTORE PUSH1 0x20 ADD PUSH1 0x0 KECCAK256 PUSH1 0x0 PUSH1 0x2 SLOAD DUP2 MSTORE PUSH1 0x20 ADD SWAP1 DUP2 MSTORE PUSH1 0x20 ADD PUSH1 0x0 KECCAK256 PUSH1 0x2 ADD SWAP1 DUP1 MLOAD SWAP1 PUSH1 0x20 ADD SWAP1 PUSH2 0x8C3 SWAP3 SWAP2 SWAP1 PUSH2 0xB5E JUMP JUMPDEST POP DUP2 PUSH1 0x3 PUSH1 0x0 DUP8 DUP2 MSTORE PUSH1 0x20 ADD SWAP1 DUP2 MSTORE PUSH1 0x20 ADD PUSH1 0x0 KECCAK256 PUSH1 0x0 PUSH1 0x2 SLOAD DUP2 MSTORE PUSH1 0x20 ADD SWAP1 DUP2 MSTORE PUSH1 0x20 ADD PUSH1 0x0 KECCAK256 PUSH1 0x3 ADD SWAP1 DUP1 MLOAD SWAP1 PUSH1 0x20 ADD SWAP1 PUSH2 0x901 SWAP3 SWAP2 SWAP1 PUSH2 0xB5E JUMP JUMPDEST POP DUP1 PUSH1 0x3 PUSH1 0x0 DUP8 DUP2 MSTORE PUSH1 0x20 ADD SWAP1 DUP2 MSTORE PUSH1 0x20 ADD PUSH1 0x0 KECCAK256 PUSH1 0x0 PUSH1 0x2 SLOAD DUP2 MSTORE PUSH1 0x20 ADD SWAP1 DUP2 MSTORE PUSH1 0x20 ADD PUSH1 0x0 KECCAK256 PUSH1 0x4 ADD DUP2 SWAP1 SSTORE POP PUSH32 0x68DD1FAD96EBC5F1740866EC07701D4AB66240C086D6AE6D351EE74EACDF267E DUP6 DUP6 DUP6 DUP6 DUP6 PUSH1 0x40 MLOAD PUSH2 0x967 SWAP6 SWAP5 SWAP4 SWAP3 SWAP2 SWAP1 PUSH2 0x12DF JUMP JUMPDEST PUSH1 0x40 MLOAD DUP1 SWAP2 SUB SWAP1 LOG1 POP POP POP POP POP JUMP JUMPDEST PUSH1 0x60 PUSH1 0x3 PUSH1 0x0 DUP5 DUP2 MSTORE PUSH1 0x20 ADD SWAP1 DUP2 MSTORE PUSH1 0x20 ADD PUSH1 0x0 KECCAK256 PUSH1 0x0 DUP4 DUP2 MSTORE PUSH1 0x20 ADD SWAP1 DUP2 MSTORE PUSH1 0x20 ADD PUSH1 0x0 KECCAK256 PUSH1 0x2 ADD DUP1 SLOAD PUSH2 0x9AA SWAP1 PUSH2 0x14F2 JUMP JUMPDEST DUP1 PUSH1 0x1F ADD PUSH1 0x20 DUP1 SWAP2 DIV MUL PUSH1 0x20 ADD PUSH1 0x40 MLOAD SWAP1 DUP2 ADD PUSH1 0x40 MSTORE DUP1 SWAP3 SWAP2 SWAP1 DUP2 DUP2 MSTORE PUSH1 0x20 ADD DUP3 DUP1 SLOAD PUSH2 0x9D6 SWAP1 PUSH2 0x14F2 JUMP JUMPDEST DUP1 ISZERO PUSH2 0xA23 JUMPI DUP1 PUSH1 0x1F LT PUSH2 0x9F8 JUMPI PUSH2 0x100 DUP1 DUP4 SLOAD DIV MUL DUP4 MSTORE SWAP2 PUSH1 0x20 ADD SWAP2 PUSH2 0xA23 JUMP JUMPDEST DUP3 ADD SWAP2 SWAP1 PUSH1 0x0 MSTORE PUSH1 0x20 PUSH1 0x0 KECCAK256 SWAP1 JUMPDEST DUP2 SLOAD DUP2 MSTORE SWAP1 PUSH1 0x1 ADD SWAP1 PUSH1 0x20 ADD DUP1 DUP4 GT PUSH2 0xA06 JUMPI DUP3 SWAP1 SUB PUSH1 0x1F AND DUP3 ADD SWAP2 JUMPDEST POP POP POP POP POP SWAP1 POP SWAP3 SWAP2 POP POP JUMP JUMPDEST PUSH1 0x0 DUP1 SLOAD SWAP1 PUSH2 0x100 EXP SWAP1 DIV PUSH20 0xFFFFFFFFFFFFFFFFFFFFFFFFFFFFFFFFFFFFFFFF AND PUSH20 0xFFFFFFFFFFFFFFFFFFFFFFFFFFFFFFFFFFFFFFFF AND PUSH4 0xB9B6C5D4 DUP5 DUP5 DUP5 PUSH1 0x40 MLOAD DUP5 PUSH4 0xFFFFFFFF AND PUSH1 0xE0 SHL DUP2 MSTORE PUSH1 0x4 ADD PUSH2 0xA8D SWAP4 SWAP3 SWAP2 SWAP1 PUSH2 0x1340 JUMP JUMPDEST PUSH1 0x0 PUSH1 0x40 MLOAD DUP1 DUP4 SUB DUP2 PUSH1 0x0 DUP8 DUP1 EXTCODESIZE ISZERO DUP1 ISZERO PUSH2 0xAA7 JUMPI PUSH1 0x0 DUP1 REVERT JUMPDEST POP GAS CALL ISZERO DUP1 ISZERO PUSH2 0xABB JUMPI RETURNDATASIZE PUSH1 0x0 DUP1 RETURNDATACOPY RETURNDATASIZE PUSH1 0x0 REVERT JUMPDEST POP POP POP POP POP POP POP JUMP JUMPDEST PUSH1 0x0 DUP1 SLOAD SWAP1 PUSH2 0x100 EXP SWAP1 DIV PUSH20 0xFFFFFFFFFFFFFFFFFFFFFFFFFFFFFFFFFFFFFFFF AND PUSH20 0xFFFFFFFFFFFFFFFFFFFFFFFFFFFFFFFFFFFFFFFF AND PUSH4 0xFD23C4BB DUP7 DUP7 DUP7 DUP7 DUP7 PUSH1 0x40 MLOAD DUP7 PUSH4 0xFFFFFFFF AND PUSH1 0xE0 SHL DUP2 MSTORE PUSH1 0x4 ADD PUSH2 0xB25 SWAP6 SWAP5 SWAP4 SWAP3 SWAP2 SWAP1 PUSH2 0x1377 JUMP JUMPDEST PUSH1 0x0 PUSH1 0x40 MLOAD DUP1 DUP4 SUB DUP2 PUSH1 0x0 DUP8 DUP1 EXTCODESIZE ISZERO DUP1 ISZERO PUSH2 0xB3F JUMPI PUSH1 0x0 DUP1 REVERT JUMPDEST POP GAS CALL ISZERO DUP1 ISZERO PUSH2 0xB53 JUMPI RETURNDATASIZE PUSH1 0x0 DUP1 RETURNDATACOPY RETURNDATASIZE PUSH1 0x0 REVERT JUMPDEST POP POP POP POP POP POP POP POP POP JUMP JUMPDEST DUP3 DUP1 SLOAD PUSH2 0xB6A SWAP1 PUSH2 0x14F2 JUMP JUMPDEST SWAP1 PUSH1 0x0 MSTORE PUSH1 0x20 PUSH1 0x0 KECCAK256 SWAP1 PUSH1 0x1F ADD PUSH1 0x20 SWAP1 DIV DUP2 ADD SWAP3 DUP3 PUSH2 0xB8C JUMPI PUSH1 0x0 DUP6 SSTORE PUSH2 0xBD3 JUMP JUMPDEST DUP3 PUSH1 0x1F LT PUSH2 0xBA5 JUMPI DUP1 MLOAD PUSH1 0xFF NOT AND DUP4 DUP1 ADD OR DUP6 SSTORE PUSH2 0xBD3 JUMP JUMPDEST DUP3 DUP1 ADD PUSH1 0x1 ADD DUP6 SSTORE DUP3 ISZERO PUSH2 0xBD3 JUMPI SWAP2 DUP3 ADD JUMPDEST DUP3 DUP2 GT ISZERO PUSH2 0xBD2 JUMPI DUP3 MLOAD DUP3 SSTORE SWAP2 PUSH1 0x20 ADD SWAP2 SWAP1 PUSH1 0x1 ADD SWAP1 PUSH2 0xBB7 JUMP JUMPDEST JUMPDEST POP SWAP1 POP PUSH2 0xBE0 SWAP2 SWAP1 PUSH2 0xBE4 JUMP JUMPDEST POP SWAP1 JUMP JUMPDEST JUMPDEST DUP1 DUP3 GT ISZERO PUSH2 0xBFD JUMPI PUSH1 0x0 DUP2 PUSH1 0x0 SWAP1 SSTORE POP PUSH1 0x1 ADD PUSH2 0xBE5 JUMP JUMPDEST POP SWAP1 JUMP JUMPDEST PUSH1 0x0 PUSH2 0xC14 PUSH2 0xC0F DUP5 PUSH2 0x13FD JUMP JUMPDEST PUSH2 0x13D8 JUMP JUMPDEST SWAP1 POP DUP3 DUP2 MSTORE PUSH1 0x20 DUP2 ADD DUP5 DUP5 DUP5 ADD GT ISZERO PUSH2 0xC30 JUMPI PUSH2 0xC2F PUSH2 0x165F JUMP JUMPDEST JUMPDEST PUSH2 0xC3B DUP5 DUP3 DUP6 PUSH2 0x1486 JUMP JUMPDEST POP SWAP4 SWAP3 POP POP POP JUMP JUMPDEST PUSH1 0x0 PUSH2 0xC56 PUSH2 0xC51 DUP5 PUSH2 0x13FD JUMP JUMPDEST PUSH2 0x13D8 JUMP JUMPDEST SWAP1 POP DUP3 DUP2 MSTORE PUSH1 0x20 DUP2 ADD DUP5 DUP5 DUP5 ADD GT ISZERO PUSH2 0xC72 JUMPI PUSH2 0xC71 PUSH2 0x165F JUMP JUMPDEST JUMPDEST PUSH2 0xC7D DUP5 DUP3 DUP6 PUSH2 0x1495 JUMP JUMPDEST POP SWAP4 SWAP3 POP POP POP JUMP JUMPDEST PUSH1 0x0 DUP2 CALLDATALOAD SWAP1 POP PUSH2 0xC94 DUP2 PUSH2 0x16F7 JUMP JUMPDEST SWAP3 SWAP2 POP POP JUMP JUMPDEST PUSH1 0x0 DUP3 PUSH1 0x1F DUP4 ADD SLT PUSH2 0xCAF JUMPI PUSH2 0xCAE PUSH2 0x165A JUMP JUMPDEST JUMPDEST DUP2 CALLDATALOAD PUSH2 0xCBF DUP5 DUP3 PUSH1 0x20 DUP7 ADD PUSH2 0xC01 JUMP JUMPDEST SWAP2 POP POP SWAP3 SWAP2 POP POP JUMP JUMPDEST PUSH1 0x0 DUP3 PUSH1 0x1F DUP4 ADD SLT PUSH2 0xCDD JUMPI PUSH2 0xCDC PUSH2 0x165A JUMP JUMPDEST JUMPDEST DUP2 MLOAD PUSH2 0xCED DUP5 DUP3 PUSH1 0x20 DUP7 ADD PUSH2 0xC43 JUMP JUMPDEST SWAP2 POP POP SWAP3 SWAP2 POP POP JUMP JUMPDEST PUSH1 0x0 DUP2 CALLDATALOAD SWAP1 POP PUSH2 0xD05 DUP2 PUSH2 0x170E JUMP JUMPDEST SWAP3 SWAP2 POP POP JUMP JUMPDEST PUSH1 0x0 DUP1 PUSH1 0x40 DUP4 DUP6 SUB SLT ISZERO PUSH2 0xD22 JUMPI PUSH2 0xD21 PUSH2 0x1669 JUMP JUMPDEST JUMPDEST PUSH1 0x0 DUP4 ADD MLOAD PUSH8 0xFFFFFFFFFFFFFFFF DUP2 GT ISZERO PUSH2 0xD40 JUMPI PUSH2 0xD3F PUSH2 0x1664 JUMP JUMPDEST JUMPDEST PUSH2 0xD4C DUP6 DUP3 DUP7 ADD PUSH2 0xCC8 JUMP JUMPDEST SWAP3 POP POP PUSH1 0x20 DUP4 ADD MLOAD PUSH8 0xFFFFFFFFFFFFFFFF DUP2 GT ISZERO PUSH2 0xD6D JUMPI PUSH2 0xD6C PUSH2 0x1664 JUMP JUMPDEST JUMPDEST PUSH2 0xD79 DUP6 DUP3 DUP7 ADD PUSH2 0xCC8 JUMP JUMPDEST SWAP2 POP POP SWAP3 POP SWAP3 SWAP1 POP JUMP JUMPDEST PUSH1 0x0 DUP1 PUSH1 0x0 DUP1 PUSH1 0x0 PUSH1 0xA0 DUP7 DUP9 SUB SLT ISZERO PUSH2 0xD9F JUMPI PUSH2 0xD9E PUSH2 0x1669 JUMP JUMPDEST JUMPDEST PUSH1 0x0 PUSH2 0xDAD DUP9 DUP3 DUP10 ADD PUSH2 0xCF6 JUMP JUMPDEST SWAP6 POP POP PUSH1 0x20 DUP7 ADD CALLDATALOAD PUSH8 0xFFFFFFFFFFFFFFFF DUP2 GT ISZERO PUSH2 0xDCE JUMPI PUSH2 0xDCD PUSH2 0x1664 JUMP JUMPDEST JUMPDEST PUSH2 0xDDA DUP9 DUP3 DUP10 ADD PUSH2 0xC9A JUMP JUMPDEST SWAP5 POP POP PUSH1 0x40 DUP7 ADD CALLDATALOAD PUSH8 0xFFFFFFFFFFFFFFFF DUP2 GT ISZERO PUSH2 0xDFB JUMPI PUSH2 0xDFA PUSH2 0x1664 JUMP JUMPDEST JUMPDEST PUSH2 0xE07 DUP9 DUP3 DUP10 ADD PUSH2 0xC9A JUMP JUMPDEST SWAP4 POP POP PUSH1 0x60 PUSH2 0xE18 DUP9 DUP3 DUP10 ADD PUSH2 0xCF6 JUMP JUMPDEST SWAP3 POP POP PUSH1 0x80 PUSH2 0xE29 DUP9 DUP3 DUP10 ADD PUSH2 0xC85 JUMP JUMPDEST SWAP2 POP POP SWAP3 SWAP6 POP SWAP3 SWAP6 SWAP1 SWAP4 POP JUMP JUMPDEST PUSH1 0x0 DUP1 PUSH1 0x40 DUP4 DUP6 SUB SLT ISZERO PUSH2 0xE4D JUMPI PUSH2 0xE4C PUSH2 0x1669 JUMP JUMPDEST JUMPDEST PUSH1 0x0 PUSH2 0xE5B DUP6 DUP3 DUP7 ADD PUSH2 0xCF6 JUMP JUMPDEST SWAP3 POP POP PUSH1 0x20 PUSH2 0xE6C DUP6 DUP3 DUP7 ADD PUSH2 0xCF6 JUMP JUMPDEST SWAP2 POP POP SWAP3 POP SWAP3 SWAP1 POP JUMP JUMPDEST PUSH1 0x0 DUP1 PUSH1 0x0 DUP1 PUSH1 0x80 DUP6 DUP8 SUB SLT ISZERO PUSH2 0xE90 JUMPI PUSH2 0xE8F PUSH2 0x1669 JUMP JUMPDEST JUMPDEST PUSH1 0x0 PUSH2 0xE9E DUP8 DUP3 DUP9 ADD PUSH2 0xCF6 JUMP JUMPDEST SWAP5 POP POP PUSH1 0x20 PUSH2 0xEAF DUP8 DUP3 DUP9 ADD PUSH2 0xCF6 JUMP JUMPDEST SWAP4 POP POP PUSH1 0x40 DUP6 ADD CALLDATALOAD PUSH8 0xFFFFFFFFFFFFFFFF DUP2 GT ISZERO PUSH2 0xED0 JUMPI PUSH2 0xECF PUSH2 0x1664 JUMP JUMPDEST JUMPDEST PUSH2 0xEDC DUP8 DUP3 DUP9 ADD PUSH2 0xC9A JUMP JUMPDEST SWAP3 POP POP PUSH1 0x60 DUP6 ADD CALLDATALOAD PUSH8 0xFFFFFFFFFFFFFFFF DUP2 GT ISZERO PUSH2 0xEFD JUMPI PUSH2 0xEFC PUSH2 0x1664 JUMP JUMPDEST JUMPDEST PUSH2 0xF09 DUP8 DUP3 DUP9 ADD PUSH2 0xC9A JUMP JUMPDEST SWAP2 POP POP SWAP3 SWAP6 SWAP2 SWAP5 POP SWAP3 POP JUMP JUMPDEST PUSH1 0x0 DUP1 PUSH1 0x0 DUP1 PUSH1 0x0 PUSH1 0xA0 DUP7 DUP9 SUB SLT ISZERO PUSH2 0xF31 JUMPI PUSH2 0xF30 PUSH2 0x1669 JUMP JUMPDEST JUMPDEST PUSH1 0x0 PUSH2 0xF3F DUP9 DUP3 DUP10 ADD PUSH2 0xCF6 JUMP JUMPDEST SWAP6 POP POP PUSH1 0x20 PUSH2 0xF50 DUP9 DUP3 DUP10 ADD PUSH2 0xCF6 JUMP JUMPDEST SWAP5 POP POP PUSH1 0x40 DUP7 ADD CALLDATALOAD PUSH8 0xFFFFFFFFFFFFFFFF DUP2 GT ISZERO PUSH2 0xF71 JUMPI PUSH2 0xF70 PUSH2 0x1664 JUMP JUMPDEST JUMPDEST PUSH2 0xF7D DUP9 DUP3 DUP10 ADD PUSH2 0xC9A JUMP JUMPDEST SWAP4 POP POP PUSH1 0x60 DUP7 ADD CALLDATALOAD PUSH8 0xFFFFFFFFFFFFFFFF DUP2 GT ISZERO PUSH2 0xF9E JUMPI PUSH2 0xF9D PUSH2 0x1664 JUMP JUMPDEST JUMPDEST PUSH2 0xFAA DUP9 DUP3 DUP10 ADD PUSH2 0xC9A JUMP JUMPDEST SWAP3 POP POP PUSH1 0x80 PUSH2 0xFBB DUP9 DUP3 DUP10 ADD PUSH2 0xCF6 JUMP JUMPDEST SWAP2 POP POP SWAP3 SWAP6 POP SWAP3 SWAP6 SWAP1 SWAP4 POP JUMP JUMPDEST PUSH1 0x0 DUP1 PUSH1 0x0 PUSH1 0x60 DUP5 DUP7 SUB SLT ISZERO PUSH2 0xFE1 JUMPI PUSH2 0xFE0 PUSH2 0x1669 JUMP JUMPDEST JUMPDEST PUSH1 0x0 PUSH2 0xFEF DUP7 DUP3 DUP8 ADD PUSH2 0xCF6 JUMP JUMPDEST SWAP4 POP POP PUSH1 0x20 PUSH2 0x1000 DUP7 DUP3 DUP8 ADD PUSH2 0xCF6 JUMP JUMPDEST SWAP3 POP POP PUSH1 0x40 PUSH2 0x1011 DUP7 DUP3 DUP8 ADD PUSH2 0xCF6 JUMP JUMPDEST SWAP2 POP POP SWAP3 POP SWAP3 POP SWAP3 JUMP JUMPDEST PUSH1 0x0 DUP1 PUSH1 0x0 DUP1 PUSH1 0x0 PUSH1 0xA0 DUP7 DUP9 SUB SLT ISZERO PUSH2 0x1037 JUMPI PUSH2 0x1036 PUSH2 0x1669 JUMP JUMPDEST JUMPDEST PUSH1 0x0 PUSH2 0x1045 DUP9 DUP3 DUP10 ADD PUSH2 0xCF6 JUMP JUMPDEST SWAP6 POP POP PUSH1 0x20 PUSH2 0x1056 DUP9 DUP3 DUP10 ADD PUSH2 0xCF6 JUMP JUMPDEST SWAP5 POP POP PUSH1 0x40 PUSH2 0x1067 DUP9 DUP3 DUP10 ADD PUSH2 0xCF6 JUMP JUMPDEST SWAP4 POP POP PUSH1 0x60 DUP7 ADD CALLDATALOAD PUSH8 0xFFFFFFFFFFFFFFFF DUP2 GT ISZERO PUSH2 0x1088 JUMPI PUSH2 0x1087 PUSH2 0x1664 JUMP JUMPDEST JUMPDEST PUSH2 0x1094 DUP9 DUP3 DUP10 ADD PUSH2 0xC9A JUMP JUMPDEST SWAP3 POP POP PUSH1 0x80 DUP7 ADD CALLDATALOAD PUSH8 0xFFFFFFFFFFFFFFFF DUP2 GT ISZERO PUSH2 0x10B5 JUMPI PUSH2 0x10B4 PUSH2 0x1664 JUMP JUMPDEST JUMPDEST PUSH2 0x10C1 DUP9 DUP3 DUP10 ADD PUSH2 0xC9A JUMP JUMPDEST SWAP2 POP POP SWAP3 SWAP6 POP SWAP3 SWAP6 SWAP1 SWAP4 POP JUMP JUMPDEST PUSH1 0x0 PUSH2 0x10D9 DUP3 PUSH2 0x142E JUMP JUMPDEST PUSH2 0x10E3 DUP2 DUP6 PUSH2 0x1439 JUMP JUMPDEST SWAP4 POP PUSH2 0x10F3 DUP2 DUP6 PUSH1 0x20 DUP7 ADD PUSH2 0x1495 JUMP JUMPDEST PUSH2 0x10FC DUP2 PUSH2 0x166E JUMP JUMPDEST DUP5 ADD SWAP2 POP POP SWAP3 SWAP2 POP POP JUMP JUMPDEST PUSH1 0x0 PUSH2 0x1114 PUSH1 0x21 DUP4 PUSH2 0x1439 JUMP JUMPDEST SWAP2 POP PUSH2 0x111F DUP3 PUSH2 0x167F JUMP JUMPDEST PUSH1 0x40 DUP3 ADD SWAP1 POP SWAP2 SWAP1 POP JUMP JUMPDEST PUSH1 0x0 PUSH2 0x1137 PUSH1 0x15 DUP4 PUSH2 0x1439 JUMP JUMPDEST SWAP2 POP PUSH2 0x1142 DUP3 PUSH2 0x16CE JUMP JUMPDEST PUSH1 0x20 DUP3 ADD SWAP1 POP SWAP2 SWAP1 POP JUMP JUMPDEST PUSH2 0x1156 DUP2 PUSH2 0x147C JUMP JUMPDEST DUP3 MSTORE POP POP JUMP JUMPDEST PUSH1 0x0 PUSH1 0x20 DUP3 ADD SWAP1 POP DUP2 DUP2 SUB PUSH1 0x0 DUP4 ADD MSTORE PUSH2 0x1176 DUP2 DUP5 PUSH2 0x10CE JUMP JUMPDEST SWAP1 POP SWAP3 SWAP2 POP POP JUMP JUMPDEST PUSH1 0x0 PUSH1 0x40 DUP3 ADD SWAP1 POP DUP2 DUP2 SUB PUSH1 0x0 DUP4 ADD MSTORE PUSH2 0x1198 DUP2 DUP6 PUSH2 0x10CE JUMP JUMPDEST SWAP1 POP DUP2 DUP2 SUB PUSH1 0x20 DUP4 ADD MSTORE PUSH2 0x11AC DUP2 DUP5 PUSH2 0x10CE JUMP JUMPDEST SWAP1 POP SWAP4 SWAP3 POP POP POP JUMP JUMPDEST PUSH1 0x0 PUSH1 0x80 DUP3 ADD SWAP1 POP DUP2 DUP2 SUB PUSH1 0x0 DUP4 ADD MSTORE PUSH2 0x11CF DUP2 DUP8 PUSH2 0x10CE JUMP JUMPDEST SWAP1 POP DUP2 DUP2 SUB PUSH1 0x20 DUP4 ADD MSTORE PUSH2 0x11E3 DUP2 DUP7 PUSH2 0x10CE JUMP JUMPDEST SWAP1 POP PUSH2 0x11F2 PUSH1 0x40 DUP4 ADD DUP6 PUSH2 0x114D JUMP JUMPDEST PUSH2 0x11FF PUSH1 0x60 DUP4 ADD DUP5 PUSH2 0x114D JUMP JUMPDEST SWAP6 SWAP5 POP POP POP POP POP JUMP JUMPDEST PUSH1 0x0 PUSH1 0x20 DUP3 ADD SWAP1 POP DUP2 DUP2 SUB PUSH1 0x0 DUP4 ADD MSTORE PUSH2 0x1221 DUP2 PUSH2 0x1107 JUMP JUMPDEST SWAP1 POP SWAP2 SWAP1 POP JUMP JUMPDEST PUSH1 0x0 PUSH1 0x20 DUP3 ADD SWAP1 POP DUP2 DUP2 SUB PUSH1 0x0 DUP4 ADD MSTORE PUSH2 0x1241 DUP2 PUSH2 0x112A JUMP JUMPDEST SWAP1 POP SWAP2 SWAP1 POP JUMP JUMPDEST PUSH1 0x0 PUSH1 0x20 DUP3 ADD SWAP1 POP PUSH2 0x125D PUSH1 0x0 DUP4 ADD DUP5 PUSH2 0x114D JUMP JUMPDEST SWAP3 SWAP2 POP POP JUMP JUMPDEST PUSH1 0x0 PUSH1 0x40 DUP3 ADD SWAP1 POP PUSH2 0x1278 PUSH1 0x0 DUP4 ADD DUP6 PUSH2 0x114D JUMP JUMPDEST PUSH2 0x1285 PUSH1 0x20 DUP4 ADD DUP5 PUSH2 0x114D JUMP JUMPDEST SWAP4 SWAP3 POP POP POP JUMP JUMPDEST PUSH1 0x0 PUSH1 0x80 DUP3 ADD SWAP1 POP PUSH2 0x12A1 PUSH1 0x0 DUP4 ADD DUP8 PUSH2 0x114D JUMP JUMPDEST PUSH2 0x12AE PUSH1 0x20 DUP4 ADD DUP7 PUSH2 0x114D JUMP JUMPDEST DUP2 DUP2 SUB PUSH1 0x40 DUP4 ADD MSTORE PUSH2 0x12C0 DUP2 DUP6 PUSH2 0x10CE JUMP JUMPDEST SWAP1 POP DUP2 DUP2 SUB PUSH1 0x60 DUP4 ADD MSTORE PUSH2 0x12D4 DUP2 DUP5 PUSH2 0x10CE JUMP JUMPDEST SWAP1 POP SWAP6 SWAP5 POP POP POP POP POP JUMP JUMPDEST PUSH1 0x0 PUSH1 0xA0 DUP3 ADD SWAP1 POP PUSH2 0x12F4 PUSH1 0x0 DUP4 ADD DUP9 PUSH2 0x114D JUMP JUMPDEST PUSH2 0x1301 PUSH1 0x20 DUP4 ADD DUP8 PUSH2 0x114D JUMP JUMPDEST DUP2 DUP2 SUB PUSH1 0x40 DUP4 ADD MSTORE PUSH2 0x1313 DUP2 DUP7 PUSH2 0x10CE JUMP JUMPDEST SWAP1 POP DUP2 DUP2 SUB PUSH1 0x60 DUP4 ADD MSTORE PUSH2 0x1327 DUP2 DUP6 PUSH2 0x10CE JUMP JUMPDEST SWAP1 POP PUSH2 0x1336 PUSH1 0x80 DUP4 ADD DUP5 PUSH2 0x114D JUMP JUMPDEST SWAP7 SWAP6 POP POP POP POP POP POP JUMP JUMPDEST PUSH1 0x0 PUSH1 0x60 DUP3 ADD SWAP1 POP PUSH2 0x1355 PUSH1 0x0 DUP4 ADD DUP7 PUSH2 0x114D JUMP JUMPDEST PUSH2 0x1362 PUSH1 0x20 DUP4 ADD DUP6 PUSH2 0x114D JUMP JUMPDEST PUSH2 0x136F PUSH1 0x40 DUP4 ADD DUP5 PUSH2 0x114D JUMP JUMPDEST SWAP5 SWAP4 POP POP POP POP JUMP JUMPDEST PUSH1 0x0 PUSH1 0xA0 DUP3 ADD SWAP1 POP PUSH2 0x138C PUSH1 0x0 DUP4 ADD DUP9 PUSH2 0x114D JUMP JUMPDEST PUSH2 0x1399 PUSH1 0x20 DUP4 ADD DUP8 PUSH2 0x114D JUMP JUMPDEST PUSH2 0x13A6 PUSH1 0x40 DUP4 ADD DUP7 PUSH2 0x114D JUMP JUMPDEST DUP2 DUP2 SUB PUSH1 0x60 DUP4 ADD MSTORE PUSH2 0x13B8 DUP2 DUP6 PUSH2 0x10CE JUMP JUMPDEST SWAP1 POP DUP2 DUP2 SUB PUSH1 0x80 DUP4 ADD MSTORE PUSH2 0x13CC DUP2 DUP5 PUSH2 0x10CE JUMP JUMPDEST SWAP1 POP SWAP7 SWAP6 POP POP POP POP POP POP JUMP JUMPDEST PUSH1 0x0 PUSH2 0x13E2 PUSH2 0x13F3 JUMP JUMPDEST SWAP1 POP PUSH2 0x13EE DUP3 DUP3 PUSH2 0x1524 JUMP JUMPDEST SWAP2 SWAP1 POP JUMP JUMPDEST PUSH1 0x0 PUSH1 0x40 MLOAD SWAP1 POP SWAP1 JUMP JUMPDEST PUSH1 0x0 PUSH8 0xFFFFFFFFFFFFFFFF DUP3 GT ISZERO PUSH2 0x1418 JUMPI PUSH2 0x1417 PUSH2 0x162B JUMP JUMPDEST JUMPDEST PUSH2 0x1421 DUP3 PUSH2 0x166E JUMP JUMPDEST SWAP1 POP PUSH1 0x20 DUP2 ADD SWAP1 POP SWAP2 SWAP1 POP JUMP JUMPDEST PUSH1 0x0 DUP2 MLOAD SWAP1 POP SWAP2 SWAP1 POP JUMP JUMPDEST PUSH1 0x0 DUP3 DUP3 MSTORE PUSH1 0x20 DUP3 ADD SWAP1 POP SWAP3 SWAP2 POP POP JUMP JUMPDEST PUSH1 0x0 PUSH2 0x1455 DUP3 PUSH2 0x145C JUMP JUMPDEST SWAP1 POP SWAP2 SWAP1 POP JUMP JUMPDEST PUSH1 0x0 PUSH20 0xFFFFFFFFFFFFFFFFFFFFFFFFFFFFFFFFFFFFFFFF DUP3 AND SWAP1 POP SWAP2 SWAP1 POP JUMP JUMPDEST PUSH1 0x0 DUP2 SWAP1 POP SWAP2 SWAP1 POP JUMP JUMPDEST DUP3 DUP2 DUP4 CALLDATACOPY PUSH1 0x0 DUP4 DUP4 ADD MSTORE POP POP POP JUMP JUMPDEST PUSH1 0x0 JUMPDEST DUP4 DUP2 LT ISZERO PUSH2 0x14B3 JUMPI DUP1 DUP3 ADD MLOAD DUP2 DUP5 ADD MSTORE PUSH1 0x20 DUP2 ADD SWAP1 POP PUSH2 0x1498 JUMP JUMPDEST DUP4 DUP2 GT ISZERO PUSH2 0x14C2 JUMPI PUSH1 0x0 DUP5 DUP5 ADD MSTORE JUMPDEST POP POP POP POP JUMP JUMPDEST PUSH1 0x0 PUSH2 0x14D3 DUP3 PUSH2 0x147C JUMP JUMPDEST SWAP2 POP PUSH1 0x0 DUP3 EQ ISZERO PUSH2 0x14E7 JUMPI PUSH2 0x14E6 PUSH2 0x159E JUMP JUMPDEST JUMPDEST PUSH1 0x1 DUP3 SUB SWAP1 POP SWAP2 SWAP1 POP JUMP JUMPDEST PUSH1 0x0 PUSH1 0x2 DUP3 DIV SWAP1 POP PUSH1 0x1 DUP3 AND DUP1 PUSH2 0x150A JUMPI PUSH1 0x7F DUP3 AND SWAP2 POP JUMPDEST PUSH1 0x20 DUP3 LT DUP2 EQ ISZERO PUSH2 0x151E JUMPI PUSH2 0x151D PUSH2 0x15FC JUMP JUMPDEST JUMPDEST POP SWAP2 SWAP1 POP JUMP JUMPDEST PUSH2 0x152D DUP3 PUSH2 0x166E JUMP JUMPDEST DUP2 ADD DUP2 DUP2 LT PUSH8 0xFFFFFFFFFFFFFFFF DUP3 GT OR ISZERO PUSH2 0x154C JUMPI PUSH2 0x154B PUSH2 0x162B JUMP JUMPDEST JUMPDEST DUP1 PUSH1 0x40 MSTORE POP POP POP JUMP JUMPDEST PUSH1 0x0 PUSH2 0x1560 DUP3 PUSH2 0x147C JUMP JUMPDEST SWAP2 POP PUSH32 0xFFFFFFFFFFFFFFFFFFFFFFFFFFFFFFFFFFFFFFFFFFFFFFFFFFFFFFFFFFFFFFFF DUP3 EQ ISZERO PUSH2 0x1593 JUMPI PUSH2 0x1592 PUSH2 0x159E JUMP JUMPDEST JUMPDEST PUSH1 0x1 DUP3 ADD SWAP1 POP SWAP2 SWAP1 POP JUMP JUMPDEST PUSH32 0x4E487B7100000000000000000000000000000000000000000000000000000000 PUSH1 0x0 MSTORE PUSH1 0x11 PUSH1 0x4 MSTORE PUSH1 0x24 PUSH1 0x0 REVERT JUMPDEST PUSH32 0x4E487B7100000000000000000000000000000000000000000000000000000000 PUSH1 0x0 MSTORE PUSH1 0x21 PUSH1 0x4 MSTORE PUSH1 0x24 PUSH1 0x0 REVERT JUMPDEST PUSH32 0x4E487B7100000000000000000000000000000000000000000000000000000000 PUSH1 0x0 MSTORE PUSH1 0x22 PUSH1 0x4 MSTORE PUSH1 0x24 PUSH1 0x0 REVERT JUMPDEST PUSH32 0x4E487B7100000000000000000000000000000000000000000000000000000000 PUSH1 0x0 MSTORE PUSH1 0x41 PUSH1 0x4 MSTORE PUSH1 0x24 PUSH1 0x0 REVERT JUMPDEST PUSH1 0x0 DUP1 REVERT JUMPDEST PUSH1 0x0 DUP1 REVERT JUMPDEST PUSH1 0x0 DUP1 REVERT JUMPDEST PUSH1 0x0 DUP1 REVERT JUMPDEST PUSH1 0x0 PUSH1 0x1F NOT PUSH1 0x1F DUP4 ADD AND SWAP1 POP SWAP2 SWAP1 POP JUMP JUMPDEST PUSH32 0x412053657276696365205072696365206D757374206265207370656369666965 PUSH1 0x0 DUP3 ADD MSTORE PUSH32 0x6400000000000000000000000000000000000000000000000000000000000000 PUSH1 0x20 DUP3 ADD MSTORE POP JUMP JUMPDEST PUSH32 0x4120737472696E67206973207265717569726564210000000000000000000000 PUSH1 0x0 DUP3 ADD MSTORE POP JUMP JUMPDEST PUSH2 0x1700 DUP2 PUSH2 0x144A JUMP JUMPDEST DUP2 EQ PUSH2 0x170B JUMPI PUSH1 0x0 DUP1 REVERT JUMPDEST POP JUMP JUMPDEST PUSH2 0x1717 DUP2 PUSH2 0x147C JUMP JUMPDEST DUP2 EQ PUSH2 0x1722 JUMPI PUSH1 0x0 DUP1 REVERT JUMPDEST POP JUMP INVALID LOG2 PUSH5 0x6970667358 0x22 SLT KECCAK256 0xCF 0xB1 0x4F PUSH13 0x258F345CAE6EE9B48AE4C91088 SWAP12 0xB7 SWAP9 PUSH4 0x4A1ED00D 0xAD 0xCE 0xC0 SWAP2 0xF PUSH20 0x9C64736F6C634300080700330000000000000000 "
				},
				"gasEstimates": {
					"creation": {
						"codeDepositCost": "1195800",
						"executionCost": "infinite",
						"totalCost": "infinite"
					},
					"external": {
						"createMilestone(uint256,uint256,string,string)": "infinite",
						"createService(uint256,string,string,uint256,address)": "infinite",
						"deleteMilestone(uint256,uint256,uint256)": "infinite",
						"deleteService(uint256,uint256)": "infinite",
						"getTitle(uint256,uint256)": "infinite",
						"readMilestone(uint256,uint256,uint256)": "infinite",
						"readService(uint256,uint256)": "infinite",
						"serviceNum()": "2474",
						"serviceTotal()": "2452",
						"updateMilestone(uint256,uint256,uint256,string,string)": "infinite",
						"updateService(uint256,uint256,string,string,uint256)": "infinite"
					}
				},
				"methodIdentifiers": {
					"createMilestone(uint256,uint256,string,string)": "63ef8a50",
					"createService(uint256,string,string,uint256,address)": "256da4e3",
					"deleteMilestone(uint256,uint256,uint256)": "b9b6c5d4",
					"deleteService(uint256,uint256)": "53c49c64",
					"getTitle(uint256,uint256)": "b257b1a0",
					"readMilestone(uint256,uint256,uint256)": "49428a62",
					"readService(uint256,uint256)": "4994772c",
					"serviceNum()": "352d28fd",
					"serviceTotal()": "30f73051",
					"updateMilestone(uint256,uint256,uint256,string,string)": "fd23c4bb",
					"updateService(uint256,uint256,string,string,uint256)": "ac10dfe3"
				}
			},
			"userdoc": {
				"kind": "user",
				"methods": {},
				"version": 1
			}
		}
	}
}