{
	"contracts/Service.sol": {
		"Service": {
			"abi": [
				{
					"inputs": [
						{
							"internalType": "contract Milestone",
							"name": "milestoneContract",
							"type": "address"
						}
					],
					"stateMutability": "nonpayable",
					"type": "constructor"
				},
				{
					"anonymous": false,
					"inputs": [
						{
							"indexed": false,
							"internalType": "uint256",
							"name": "projectNumber",
							"type": "uint256"
						},
						{
							"indexed": false,
							"internalType": "uint256",
							"name": "serviceNumber",
							"type": "uint256"
						}
					],
					"name": "serviceDeleted",
					"type": "event"
				},
				{
					"anonymous": false,
					"inputs": [
						{
							"indexed": false,
							"internalType": "uint256",
							"name": "projectNumber",
							"type": "uint256"
						},
						{
							"indexed": false,
							"internalType": "uint256",
							"name": "serviceNumber",
							"type": "uint256"
						},
						{
							"indexed": false,
							"internalType": "string",
							"name": "title",
							"type": "string"
						},
						{
							"indexed": false,
							"internalType": "string",
							"name": "description",
							"type": "string"
						},
						{
							"indexed": false,
							"internalType": "uint256",
							"name": "price",
							"type": "uint256"
						}
					],
					"name": "serviceRequested",
					"type": "event"
				},
				{
					"inputs": [
						{
							"internalType": "uint256",
							"name": "projectNumber",
							"type": "uint256"
						},
						{
							"internalType": "uint256",
							"name": "serviceNumber",
							"type": "uint256"
						},
						{
							"internalType": "string",
							"name": "titleMilestone",
							"type": "string"
						},
						{
							"internalType": "string",
							"name": "descriptionMilestone",
							"type": "string"
						}
					],
					"name": "createMilestone",
					"outputs": [],
					"stateMutability": "nonpayable",
					"type": "function"
				},
				{
					"inputs": [
						{
							"internalType": "uint256",
							"name": "projectNumber",
							"type": "uint256"
						},
						{
							"internalType": "uint256",
							"name": "serviceNumber",
							"type": "uint256"
						},
						{
							"internalType": "uint256",
							"name": "milestoneNumber",
							"type": "uint256"
						}
					],
					"name": "deleteMilestone",
					"outputs": [],
					"stateMutability": "nonpayable",
					"type": "function"
				},
				{
					"inputs": [
						{
							"internalType": "uint256",
							"name": "projectNumber",
							"type": "uint256"
						},
						{
							"internalType": "uint256",
							"name": "serviceNumber",
							"type": "uint256"
						}
					],
					"name": "deleteRequestService",
					"outputs": [],
					"stateMutability": "nonpayable",
					"type": "function"
				},
				{
					"inputs": [
						{
							"internalType": "uint256",
							"name": "projectNumber",
							"type": "uint256"
						},
						{
							"internalType": "string",
							"name": "title",
							"type": "string"
						},
						{
							"internalType": "string",
							"name": "description",
							"type": "string"
						},
						{
							"internalType": "uint256",
							"name": "price",
							"type": "uint256"
						}
					],
					"name": "requestService",
					"outputs": [],
					"stateMutability": "nonpayable",
					"type": "function"
				},
				{
					"inputs": [
						{
							"internalType": "uint256",
							"name": "projectNumber",
							"type": "uint256"
						},
						{
							"internalType": "uint256",
							"name": "serviceNumber",
							"type": "uint256"
						},
						{
							"internalType": "uint256",
							"name": "milestoneNumber",
							"type": "uint256"
						},
						{
							"internalType": "string",
							"name": "titleMilestone",
							"type": "string"
						},
						{
							"internalType": "string",
							"name": "descriptionMilestone",
							"type": "string"
						}
					],
					"name": "updateMilestone",
					"outputs": [],
					"stateMutability": "nonpayable",
					"type": "function"
				}
			],
			"devdoc": {
				"kind": "dev",
				"methods": {},
				"version": 1
			},
			"evm": {
				"assembly": "    /* \"contracts/Service.sol\":348:3837  contract Service {... */\n  mstore(0x40, 0x80)\n    /* \"contracts/Service.sol\":398:493  constructor (Milestone milestoneContract) public {... */\n  callvalue\n  dup1\n  iszero\n  tag_1\n  jumpi\n  0x00\n  dup1\n  revert\ntag_1:\n  pop\n  mload(0x40)\n  sub(codesize, bytecodeSize)\n  dup1\n  bytecodeSize\n  dup4\n  codecopy\n  dup2\n  dup2\n  add\n  0x40\n  mstore\n  dup2\n  add\n  swap1\n  tag_2\n  swap2\n  swap1\n  tag_3\n  jump\t// in\ntag_2:\n    /* \"contracts/Service.sol\":469:486  milestoneContract */\n  dup1\n    /* \"contracts/Service.sol\":457:466  milestone */\n  0x00\n  dup1\n    /* \"contracts/Service.sol\":457:486  milestone = milestoneContract */\n  0x0100\n  exp\n  dup2\n  sload\n  dup2\n  0xffffffffffffffffffffffffffffffffffffffff\n  mul\n  not\n  and\n  swap1\n  dup4\n  0xffffffffffffffffffffffffffffffffffffffff\n  and\n  mul\n  or\n  swap1\n  sstore\n  pop\n    /* \"contracts/Service.sol\":398:493  constructor (Milestone milestoneContract) public {... */\n  pop\n    /* \"contracts/Service.sol\":348:3837  contract Service {... */\n  jump(tag_6)\n    /* \"#utility.yul\":7:184   */\ntag_8:\n    /* \"#utility.yul\":81:86   */\n  0x00\n    /* \"#utility.yul\":112:118   */\n  dup2\n    /* \"#utility.yul\":106:119   */\n  mload\n    /* \"#utility.yul\":97:119   */\n  swap1\n  pop\n    /* \"#utility.yul\":128:178   */\n  tag_10\n    /* \"#utility.yul\":172:177   */\n  dup2\n    /* \"#utility.yul\":128:178   */\n  tag_11\n  jump\t// in\ntag_10:\n    /* \"#utility.yul\":7:184   */\n  swap3\n  swap2\n  pop\n  pop\n  jump\t// out\n    /* \"#utility.yul\":190:575   */\ntag_3:\n    /* \"#utility.yul\":277:283   */\n  0x00\n    /* \"#utility.yul\":326:328   */\n  0x20\n    /* \"#utility.yul\":314:323   */\n  dup3\n    /* \"#utility.yul\":305:312   */\n  dup5\n    /* \"#utility.yul\":301:324   */\n  sub\n    /* \"#utility.yul\":297:329   */\n  slt\n    /* \"#utility.yul\":294:413   */\n  iszero\n  tag_13\n  jumpi\n    /* \"#utility.yul\":332:411   */\n  tag_14\n  tag_15\n  jump\t// in\ntag_14:\n    /* \"#utility.yul\":294:413   */\ntag_13:\n    /* \"#utility.yul\":452:453   */\n  0x00\n    /* \"#utility.yul\":477:558   */\n  tag_16\n    /* \"#utility.yul\":550:557   */\n  dup5\n    /* \"#utility.yul\":541:547   */\n  dup3\n    /* \"#utility.yul\":530:539   */\n  dup6\n    /* \"#utility.yul\":526:548   */\n  add\n    /* \"#utility.yul\":477:558   */\n  tag_8\n  jump\t// in\ntag_16:\n    /* \"#utility.yul\":467:558   */\n  swap2\n  pop\n    /* \"#utility.yul\":423:568   */\n  pop\n    /* \"#utility.yul\":190:575   */\n  swap3\n  swap2\n  pop\n  pop\n  jump\t// out\n    /* \"#utility.yul\":662:758   */\ntag_19:\n    /* \"#utility.yul\":699:706   */\n  0x00\n    /* \"#utility.yul\":728:752   */\n  tag_21\n    /* \"#utility.yul\":746:751   */\n  dup3\n    /* \"#utility.yul\":728:752   */\n  tag_22\n  jump\t// in\ntag_21:\n    /* \"#utility.yul\":717:752   */\n  swap1\n  pop\n    /* \"#utility.yul\":662:758   */\n  swap2\n  swap1\n  pop\n  jump\t// out\n    /* \"#utility.yul\":764:877   */\ntag_23:\n    /* \"#utility.yul\":818:825   */\n  0x00\n    /* \"#utility.yul\":847:871   */\n  tag_25\n    /* \"#utility.yul\":865:870   */\n  dup3\n    /* \"#utility.yul\":847:871   */\n  tag_19\n  jump\t// in\ntag_25:\n    /* \"#utility.yul\":836:871   */\n  swap1\n  pop\n    /* \"#utility.yul\":764:877   */\n  swap2\n  swap1\n  pop\n  jump\t// out\n    /* \"#utility.yul\":883:1009   */\ntag_22:\n    /* \"#utility.yul\":920:927   */\n  0x00\n    /* \"#utility.yul\":960:1002   */\n  0xffffffffffffffffffffffffffffffffffffffff\n    /* \"#utility.yul\":953:958   */\n  dup3\n    /* \"#utility.yul\":949:1003   */\n  and\n    /* \"#utility.yul\":938:1003   */\n  swap1\n  pop\n    /* \"#utility.yul\":883:1009   */\n  swap2\n  swap1\n  pop\n  jump\t// out\n    /* \"#utility.yul\":1138:1255   */\ntag_15:\n    /* \"#utility.yul\":1247:1248   */\n  0x00\n    /* \"#utility.yul\":1244:1245   */\n  dup1\n    /* \"#utility.yul\":1237:1249   */\n  revert\n    /* \"#utility.yul\":1261:1417   */\ntag_11:\n    /* \"#utility.yul\":1351:1392   */\n  tag_31\n    /* \"#utility.yul\":1386:1391   */\n  dup2\n    /* \"#utility.yul\":1351:1392   */\n  tag_23\n  jump\t// in\ntag_31:\n    /* \"#utility.yul\":1344:1349   */\n  dup2\n    /* \"#utility.yul\":1341:1393   */\n  eq\n    /* \"#utility.yul\":1331:1411   */\n  tag_32\n  jumpi\n    /* \"#utility.yul\":1407:1408   */\n  0x00\n    /* \"#utility.yul\":1404:1405   */\n  dup1\n    /* \"#utility.yul\":1397:1409   */\n  revert\n    /* \"#utility.yul\":1331:1411   */\ntag_32:\n    /* \"#utility.yul\":1261:1417   */\n  pop\n  jump\t// out\n    /* \"contracts/Service.sol\":348:3837  contract Service {... */\ntag_6:\n  dataSize(sub_0)\n  dup1\n  dataOffset(sub_0)\n  0x00\n  codecopy\n  0x00\n  return\nstop\n\nsub_0: assembly {\n        /* \"contracts/Service.sol\":348:3837  contract Service {... */\n      mstore(0x40, 0x80)\n      callvalue\n      dup1\n      iszero\n      tag_1\n      jumpi\n      0x00\n      dup1\n      revert\n    tag_1:\n      pop\n      jumpi(tag_2, lt(calldatasize, 0x04))\n      shr(0xe0, calldataload(0x00))\n      dup1\n      0x1257193c\n      eq\n      tag_3\n      jumpi\n      dup1\n      0x63ef8a50\n      eq\n      tag_4\n      jumpi\n      dup1\n      0xb9b6c5d4\n      eq\n      tag_5\n      jumpi\n      dup1\n      0xeed1b007\n      eq\n      tag_6\n      jumpi\n      dup1\n      0xfd23c4bb\n      eq\n      tag_7\n      jumpi\n    tag_2:\n      0x00\n      dup1\n      revert\n        /* \"contracts/Service.sol\":2078:2693  function requestService(uint256 projectNumber, string memory title, string memory description, uint256 price) public requiredString(title) requiredString(description) {        ... */\n    tag_3:\n      tag_8\n      0x04\n      dup1\n      calldatasize\n      sub\n      dup2\n      add\n      swap1\n      tag_9\n      swap2\n      swap1\n      tag_10\n      jump\t// in\n    tag_9:\n      tag_11\n      jump\t// in\n    tag_8:\n      stop\n        /* \"contracts/Service.sol\":2999:3250  function createMilestone(uint256 projectNumber, uint256 serviceNumber, string memory titleMilestone, string memory descriptionMilestone) public {... */\n    tag_4:\n      tag_12\n      0x04\n      dup1\n      calldatasize\n      sub\n      dup2\n      add\n      swap1\n      tag_13\n      swap2\n      swap1\n      tag_14\n      jump\t// in\n    tag_13:\n      tag_15\n      jump\t// in\n    tag_12:\n      stop\n        /* \"contracts/Service.sol\":3636:3834  function deleteMilestone(uint256 projectNumber, uint256 serviceNumber, uint256 milestoneNumber) public {        ... */\n    tag_5:\n      tag_16\n      0x04\n      dup1\n      calldatasize\n      sub\n      dup2\n      add\n      swap1\n      tag_17\n      swap2\n      swap1\n      tag_18\n      jump\t// in\n    tag_17:\n      tag_19\n      jump\t// in\n    tag_16:\n      stop\n        /* \"contracts/Service.sol\":2738:2955  function deleteRequestService(uint256 projectNumber, uint256 serviceNumber) public {... */\n    tag_6:\n      tag_20\n      0x04\n      dup1\n      calldatasize\n      sub\n      dup2\n      add\n      swap1\n      tag_21\n      swap2\n      swap1\n      tag_22\n      jump\t// in\n    tag_21:\n      tag_23\n      jump\t// in\n    tag_20:\n      stop\n        /* \"contracts/Service.sol\":3297:3589  function updateMilestone(uint256 projectNumber, uint256 serviceNumber, uint256 milestoneNumber, string memory titleMilestone, string memory descriptionMilestone) public {... */\n    tag_7:\n      tag_24\n      0x04\n      dup1\n      calldatasize\n      sub\n      dup2\n      add\n      swap1\n      tag_25\n      swap2\n      swap1\n      tag_26\n      jump\t// in\n    tag_25:\n      tag_27\n      jump\t// in\n    tag_24:\n      stop\n        /* \"contracts/Service.sol\":2078:2693  function requestService(uint256 projectNumber, string memory title, string memory description, uint256 price) public requiredString(title) requiredString(description) {        ... */\n    tag_11:\n        /* \"contracts/Service.sol\":2210:2215  title */\n      dup3\n        /* \"contracts/Service.sol\":1461:1462  0 */\n      0x00\n        /* \"contracts/Service.sol\":1447:1450  str */\n      dup2\n        /* \"contracts/Service.sol\":1441:1458  bytes(str).length */\n      mload\n        /* \"contracts/Service.sol\":1441:1462  bytes(str).length > 0 */\n      gt\n        /* \"contracts/Service.sol\":1433:1488  require(bytes(str).length > 0, \"A string is required!\") */\n      tag_29\n      jumpi\n      mload(0x40)\n      0x08c379a000000000000000000000000000000000000000000000000000000000\n      dup2\n      mstore\n      0x04\n      add\n      tag_30\n      swap1\n      tag_31\n      jump\t// in\n    tag_30:\n      mload(0x40)\n      dup1\n      swap2\n      sub\n      swap1\n      revert\n    tag_29:\n        /* \"contracts/Service.sol\":2232:2243  description */\n      dup3\n        /* \"contracts/Service.sol\":1461:1462  0 */\n      0x00\n        /* \"contracts/Service.sol\":1447:1450  str */\n      dup2\n        /* \"contracts/Service.sol\":1441:1458  bytes(str).length */\n      mload\n        /* \"contracts/Service.sol\":1441:1462  bytes(str).length > 0 */\n      gt\n        /* \"contracts/Service.sol\":1433:1488  require(bytes(str).length > 0, \"A string is required!\") */\n      tag_33\n      jumpi\n      mload(0x40)\n      0x08c379a000000000000000000000000000000000000000000000000000000000\n      dup2\n      mstore\n      0x04\n      add\n      tag_34\n      swap1\n      tag_31\n      jump\t// in\n    tag_34:\n      mload(0x40)\n      dup1\n      swap2\n      sub\n      swap1\n      revert\n    tag_33:\n        /* \"contracts/Service.sol\":2279:2280  0 */\n      0x00\n        /* \"contracts/Service.sol\":2271:2276  price */\n      dup4\n        /* \"contracts/Service.sol\":2271:2280  price > 0 */\n      gt\n        /* \"contracts/Service.sol\":2263:2318  require(price > 0, \"A Service Price must be specified\") */\n      tag_36\n      jumpi\n      mload(0x40)\n      0x08c379a000000000000000000000000000000000000000000000000000000000\n      dup2\n      mstore\n      0x04\n      add\n      tag_37\n      swap1\n      tag_38\n      jump\t// in\n    tag_37:\n      mload(0x40)\n      dup1\n      swap2\n      sub\n      swap1\n      revert\n    tag_36:\n        /* \"contracts/Service.sol\":2328:2349  uint256 serviceNumber */\n      0x00\n        /* \"contracts/Service.sol\":2392:2393  1 */\n      0x01\n        /* \"contracts/Service.sol\":2352:2367  projectServices */\n      dup1\n        /* \"contracts/Service.sol\":2352:2382  projectServices[projectNumber] */\n      0x00\n        /* \"contracts/Service.sol\":2368:2381  projectNumber */\n      dup10\n        /* \"contracts/Service.sol\":2352:2382  projectServices[projectNumber] */\n      dup2\n      mstore\n      0x20\n      add\n      swap1\n      dup2\n      mstore\n      0x20\n      add\n      0x00\n      keccak256\n        /* \"contracts/Service.sol\":2352:2389  projectServices[projectNumber].length */\n      dup1\n      sload\n      swap1\n      pop\n        /* \"contracts/Service.sol\":2352:2393  projectServices[projectNumber].length + 1 */\n      tag_39\n      swap2\n      swap1\n      tag_40\n      jump\t// in\n    tag_39:\n        /* \"contracts/Service.sol\":2328:2393  uint256 serviceNumber = projectServices[projectNumber].length + 1 */\n      swap1\n      pop\n        /* \"contracts/Service.sol\":2408:2433  service memory newService */\n      0x00\n        /* \"contracts/Service.sol\":2436:2537  service(projectNumber,serviceNumber,title,description,price,0,msg.sender,address(0),true,Status.none) */\n      mload(0x40)\n      dup1\n      0x0140\n      add\n      0x40\n      mstore\n      dup1\n        /* \"contracts/Service.sol\":2444:2457  projectNumber */\n      dup10\n        /* \"contracts/Service.sol\":2436:2537  service(projectNumber,serviceNumber,title,description,price,0,msg.sender,address(0),true,Status.none) */\n      dup2\n      mstore\n      0x20\n      add\n        /* \"contracts/Service.sol\":2458:2471  serviceNumber */\n      dup4\n        /* \"contracts/Service.sol\":2436:2537  service(projectNumber,serviceNumber,title,description,price,0,msg.sender,address(0),true,Status.none) */\n      dup2\n      mstore\n      0x20\n      add\n        /* \"contracts/Service.sol\":2472:2477  title */\n      dup9\n        /* \"contracts/Service.sol\":2436:2537  service(projectNumber,serviceNumber,title,description,price,0,msg.sender,address(0),true,Status.none) */\n      dup2\n      mstore\n      0x20\n      add\n        /* \"contracts/Service.sol\":2478:2489  description */\n      dup8\n        /* \"contracts/Service.sol\":2436:2537  service(projectNumber,serviceNumber,title,description,price,0,msg.sender,address(0),true,Status.none) */\n      dup2\n      mstore\n      0x20\n      add\n        /* \"contracts/Service.sol\":2490:2495  price */\n      dup7\n        /* \"contracts/Service.sol\":2436:2537  service(projectNumber,serviceNumber,title,description,price,0,msg.sender,address(0),true,Status.none) */\n      dup2\n      mstore\n      0x20\n      add\n        /* \"contracts/Service.sol\":2496:2497  0 */\n      0x00\n        /* \"contracts/Service.sol\":2436:2537  service(projectNumber,serviceNumber,title,description,price,0,msg.sender,address(0),true,Status.none) */\n      dup2\n      mstore\n      0x20\n      add\n        /* \"contracts/Service.sol\":2498:2508  msg.sender */\n      caller\n        /* \"contracts/Service.sol\":2436:2537  service(projectNumber,serviceNumber,title,description,price,0,msg.sender,address(0),true,Status.none) */\n      0xffffffffffffffffffffffffffffffffffffffff\n      and\n      dup2\n      mstore\n      0x20\n      add\n        /* \"contracts/Service.sol\":2517:2518  0 */\n      0x00\n        /* \"contracts/Service.sol\":2436:2537  service(projectNumber,serviceNumber,title,description,price,0,msg.sender,address(0),true,Status.none) */\n      0xffffffffffffffffffffffffffffffffffffffff\n      and\n      dup2\n      mstore\n      0x20\n      add\n        /* \"contracts/Service.sol\":2520:2524  true */\n      0x01\n        /* \"contracts/Service.sol\":2436:2537  service(projectNumber,serviceNumber,title,description,price,0,msg.sender,address(0),true,Status.none) */\n      iszero\n      iszero\n      dup2\n      mstore\n      0x20\n      add\n        /* \"contracts/Service.sol\":2525:2536  Status.none */\n      0x00\n        /* \"contracts/Service.sol\":2436:2537  service(projectNumber,serviceNumber,title,description,price,0,msg.sender,address(0),true,Status.none) */\n      0x05\n      dup2\n      gt\n      iszero\n      tag_41\n      jumpi\n      tag_42\n      tag_43\n      jump\t// in\n    tag_42:\n    tag_41:\n      dup2\n      mstore\n      pop\n        /* \"contracts/Service.sol\":2408:2537  service memory newService = service(projectNumber,serviceNumber,title,description,price,0,msg.sender,address(0),true,Status.none) */\n      swap1\n      pop\n        /* \"contracts/Service.sol\":2547:2562  projectServices */\n      0x01\n        /* \"contracts/Service.sol\":2547:2577  projectServices[projectNumber] */\n      0x00\n        /* \"contracts/Service.sol\":2563:2576  projectNumber */\n      dup10\n        /* \"contracts/Service.sol\":2547:2577  projectServices[projectNumber] */\n      dup2\n      mstore\n      0x20\n      add\n      swap1\n      dup2\n      mstore\n      0x20\n      add\n      0x00\n      keccak256\n        /* \"contracts/Service.sol\":2583:2593  newService */\n      dup2\n        /* \"contracts/Service.sol\":2547:2594  projectServices[projectNumber].push(newService) */\n      swap1\n      dup1\n      0x01\n      dup2\n      sload\n      add\n      dup1\n      dup3\n      sstore\n      dup1\n      swap2\n      pop\n      pop\n      0x01\n      swap1\n      sub\n      swap1\n      0x00\n      mstore\n      keccak256(0x00, 0x20)\n      swap1\n      0x08\n      mul\n      add\n      0x00\n      swap1\n      swap2\n      swap1\n      swap2\n      swap1\n      swap2\n      pop\n      0x00\n      dup3\n      add\n      mload\n      dup2\n      0x00\n      add\n      sstore\n      0x20\n      dup3\n      add\n      mload\n      dup2\n      0x01\n      add\n      sstore\n      0x40\n      dup3\n      add\n      mload\n      dup2\n      0x02\n      add\n      swap1\n      dup1\n      mload\n      swap1\n      0x20\n      add\n      swap1\n      tag_45\n      swap3\n      swap2\n      swap1\n      tag_46\n      jump\t// in\n    tag_45:\n      pop\n      0x60\n      dup3\n      add\n      mload\n      dup2\n      0x03\n      add\n      swap1\n      dup1\n      mload\n      swap1\n      0x20\n      add\n      swap1\n      tag_47\n      swap3\n      swap2\n      swap1\n      tag_46\n      jump\t// in\n    tag_47:\n      pop\n      0x80\n      dup3\n      add\n      mload\n      dup2\n      0x04\n      add\n      sstore\n      0xa0\n      dup3\n      add\n      mload\n      dup2\n      0x05\n      add\n      sstore\n      0xc0\n      dup3\n      add\n      mload\n      dup2\n      0x06\n      add\n      exp(0x0100, 0x00)\n      dup2\n      sload\n      dup2\n      0xffffffffffffffffffffffffffffffffffffffff\n      mul\n      not\n      and\n      swap1\n      dup4\n      0xffffffffffffffffffffffffffffffffffffffff\n      and\n      mul\n      or\n      swap1\n      sstore\n      pop\n      0xe0\n      dup3\n      add\n      mload\n      dup2\n      0x07\n      add\n      exp(0x0100, 0x00)\n      dup2\n      sload\n      dup2\n      0xffffffffffffffffffffffffffffffffffffffff\n      mul\n      not\n      and\n      swap1\n      dup4\n      0xffffffffffffffffffffffffffffffffffffffff\n      and\n      mul\n      or\n      swap1\n      sstore\n      pop\n      0x0100\n      dup3\n      add\n      mload\n      dup2\n      0x07\n      add\n      exp(0x0100, 0x14)\n      dup2\n      sload\n      dup2\n      0xff\n      mul\n      not\n      and\n      swap1\n      dup4\n      iszero\n      iszero\n      mul\n      or\n      swap1\n      sstore\n      pop\n      0x0120\n      dup3\n      add\n      mload\n      dup2\n      0x07\n      add\n      exp(0x0100, 0x15)\n      dup2\n      sload\n      dup2\n      0xff\n      mul\n      not\n      and\n      swap1\n      dup4\n      0x05\n      dup2\n      gt\n      iszero\n      tag_48\n      jumpi\n      tag_49\n      tag_43\n      jump\t// in\n    tag_49:\n    tag_48:\n      mul\n      or\n      swap1\n      sstore\n      pop\n      pop\n      pop\n        /* \"contracts/Service.sol\":2613:2686  serviceRequested(projectNumber, serviceNumber, title, description, price) */\n      0xfc1042b93072e044685bbaab07a5d97d23616b816d62648c4e8e4e04b4ce47a6\n        /* \"contracts/Service.sol\":2630:2643  projectNumber */\n      dup9\n        /* \"contracts/Service.sol\":2645:2658  serviceNumber */\n      dup4\n        /* \"contracts/Service.sol\":2660:2665  title */\n      dup10\n        /* \"contracts/Service.sol\":2667:2678  description */\n      dup10\n        /* \"contracts/Service.sol\":2680:2685  price */\n      dup10\n        /* \"contracts/Service.sol\":2613:2686  serviceRequested(projectNumber, serviceNumber, title, description, price) */\n      mload(0x40)\n      tag_50\n      swap6\n      swap5\n      swap4\n      swap3\n      swap2\n      swap1\n      tag_51\n      jump\t// in\n    tag_50:\n      mload(0x40)\n      dup1\n      swap2\n      sub\n      swap1\n      log1\n        /* \"contracts/Service.sol\":2245:2693  {        ... */\n      pop\n      pop\n        /* \"contracts/Service.sol\":1498:1499  _ */\n      pop\n        /* \"contracts/Service.sol\":2078:2693  function requestService(uint256 projectNumber, string memory title, string memory description, uint256 price) public requiredString(title) requiredString(description) {        ... */\n      pop\n      pop\n      pop\n      pop\n      pop\n      jump\t// out\n        /* \"contracts/Service.sol\":2999:3250  function createMilestone(uint256 projectNumber, uint256 serviceNumber, string memory titleMilestone, string memory descriptionMilestone) public {... */\n    tag_15:\n        /* \"contracts/Service.sol\":3153:3162  milestone */\n      0x00\n      dup1\n      sload\n      swap1\n      0x0100\n      exp\n      swap1\n      div\n      0xffffffffffffffffffffffffffffffffffffffff\n      and\n        /* \"contracts/Service.sol\":3153:3178  milestone.createMilestone */\n      0xffffffffffffffffffffffffffffffffffffffff\n      and\n      0x63ef8a50\n        /* \"contracts/Service.sol\":3179:3192  projectNumber */\n      dup6\n        /* \"contracts/Service.sol\":3193:3206  serviceNumber */\n      dup6\n        /* \"contracts/Service.sol\":3207:3221  titleMilestone */\n      dup6\n        /* \"contracts/Service.sol\":3222:3242  descriptionMilestone */\n      dup6\n        /* \"contracts/Service.sol\":3153:3243  milestone.createMilestone(projectNumber,serviceNumber,titleMilestone,descriptionMilestone) */\n      mload(0x40)\n      dup6\n      0xffffffff\n      and\n      0xe0\n      shl\n      dup2\n      mstore\n      0x04\n      add\n      tag_53\n      swap5\n      swap4\n      swap3\n      swap2\n      swap1\n      tag_54\n      jump\t// in\n    tag_53:\n      0x00\n      mload(0x40)\n      dup1\n      dup4\n      sub\n      dup2\n      0x00\n      dup8\n      dup1\n      extcodesize\n      iszero\n      dup1\n      iszero\n      tag_55\n      jumpi\n      0x00\n      dup1\n      revert\n    tag_55:\n      pop\n      gas\n      call\n      iszero\n      dup1\n      iszero\n      tag_57\n      jumpi\n      returndatasize\n      0x00\n      dup1\n      returndatacopy\n      revert(0x00, returndatasize)\n    tag_57:\n      pop\n      pop\n      pop\n      pop\n        /* \"contracts/Service.sol\":2999:3250  function createMilestone(uint256 projectNumber, uint256 serviceNumber, string memory titleMilestone, string memory descriptionMilestone) public {... */\n      pop\n      pop\n      pop\n      pop\n      jump\t// out\n        /* \"contracts/Service.sol\":3636:3834  function deleteMilestone(uint256 projectNumber, uint256 serviceNumber, uint256 milestoneNumber) public {        ... */\n    tag_19:\n        /* \"contracts/Service.sol\":3757:3766  milestone */\n      0x00\n      dup1\n      sload\n      swap1\n      0x0100\n      exp\n      swap1\n      div\n      0xffffffffffffffffffffffffffffffffffffffff\n      and\n        /* \"contracts/Service.sol\":3757:3782  milestone.deleteMilestone */\n      0xffffffffffffffffffffffffffffffffffffffff\n      and\n      0xb9b6c5d4\n        /* \"contracts/Service.sol\":3783:3796  projectNumber */\n      dup5\n        /* \"contracts/Service.sol\":3797:3810  serviceNumber */\n      dup5\n        /* \"contracts/Service.sol\":3811:3826  milestoneNumber */\n      dup5\n        /* \"contracts/Service.sol\":3757:3827  milestone.deleteMilestone(projectNumber,serviceNumber,milestoneNumber) */\n      mload(0x40)\n      dup5\n      0xffffffff\n      and\n      0xe0\n      shl\n      dup2\n      mstore\n      0x04\n      add\n      tag_59\n      swap4\n      swap3\n      swap2\n      swap1\n      tag_60\n      jump\t// in\n    tag_59:\n      0x00\n      mload(0x40)\n      dup1\n      dup4\n      sub\n      dup2\n      0x00\n      dup8\n      dup1\n      extcodesize\n      iszero\n      dup1\n      iszero\n      tag_61\n      jumpi\n      0x00\n      dup1\n      revert\n    tag_61:\n      pop\n      gas\n      call\n      iszero\n      dup1\n      iszero\n      tag_63\n      jumpi\n      returndatasize\n      0x00\n      dup1\n      returndatacopy\n      revert(0x00, returndatasize)\n    tag_63:\n      pop\n      pop\n      pop\n      pop\n        /* \"contracts/Service.sol\":3636:3834  function deleteMilestone(uint256 projectNumber, uint256 serviceNumber, uint256 milestoneNumber) public {        ... */\n      pop\n      pop\n      pop\n      jump\t// out\n        /* \"contracts/Service.sol\":2738:2955  function deleteRequestService(uint256 projectNumber, uint256 serviceNumber) public {... */\n    tag_23:\n        /* \"contracts/Service.sol\":2885:2890  false */\n      0x00\n        /* \"contracts/Service.sol\":2831:2846  projectServices */\n      0x01\n        /* \"contracts/Service.sol\":2831:2861  projectServices[projectNumber] */\n      0x00\n        /* \"contracts/Service.sol\":2847:2860  projectNumber */\n      dup5\n        /* \"contracts/Service.sol\":2831:2861  projectServices[projectNumber] */\n      dup2\n      mstore\n      0x20\n      add\n      swap1\n      dup2\n      mstore\n      0x20\n      add\n      0x00\n      keccak256\n        /* \"contracts/Service.sol\":2862:2875  serviceNumber */\n      dup3\n        /* \"contracts/Service.sol\":2831:2876  projectServices[projectNumber][serviceNumber] */\n      dup2\n      sload\n      dup2\n      lt\n      tag_65\n      jumpi\n      tag_66\n      tag_67\n      jump\t// in\n    tag_66:\n    tag_65:\n      swap1\n      0x00\n      mstore\n      keccak256(0x00, 0x20)\n      swap1\n      0x08\n      mul\n      add\n        /* \"contracts/Service.sol\":2831:2882  projectServices[projectNumber][serviceNumber].exist */\n      0x07\n      add\n      0x14\n        /* \"contracts/Service.sol\":2831:2890  projectServices[projectNumber][serviceNumber].exist = false */\n      0x0100\n      exp\n      dup2\n      sload\n      dup2\n      0xff\n      mul\n      not\n      and\n      swap1\n      dup4\n      iszero\n      iszero\n      mul\n      or\n      swap1\n      sstore\n      pop\n        /* \"contracts/Service.sol\":2905:2948  serviceDeleted(projectNumber,serviceNumber) */\n      0x04579b03ce378bfed31ee6443865880dab0b281efac453deb39233352189863f\n        /* \"contracts/Service.sol\":2920:2933  projectNumber */\n      dup3\n        /* \"contracts/Service.sol\":2934:2947  serviceNumber */\n      dup3\n        /* \"contracts/Service.sol\":2905:2948  serviceDeleted(projectNumber,serviceNumber) */\n      mload(0x40)\n      tag_69\n      swap3\n      swap2\n      swap1\n      tag_70\n      jump\t// in\n    tag_69:\n      mload(0x40)\n      dup1\n      swap2\n      sub\n      swap1\n      log1\n        /* \"contracts/Service.sol\":2738:2955  function deleteRequestService(uint256 projectNumber, uint256 serviceNumber) public {... */\n      pop\n      pop\n      jump\t// out\n        /* \"contracts/Service.sol\":3297:3589  function updateMilestone(uint256 projectNumber, uint256 serviceNumber, uint256 milestoneNumber, string memory titleMilestone, string memory descriptionMilestone) public {... */\n    tag_27:\n        /* \"contracts/Service.sol\":3476:3485  milestone */\n      0x00\n      dup1\n      sload\n      swap1\n      0x0100\n      exp\n      swap1\n      div\n      0xffffffffffffffffffffffffffffffffffffffff\n      and\n        /* \"contracts/Service.sol\":3476:3501  milestone.updateMilestone */\n      0xffffffffffffffffffffffffffffffffffffffff\n      and\n      0xfd23c4bb\n        /* \"contracts/Service.sol\":3502:3515  projectNumber */\n      dup7\n        /* \"contracts/Service.sol\":3516:3529  serviceNumber */\n      dup7\n        /* \"contracts/Service.sol\":3530:3545  milestoneNumber */\n      dup7\n        /* \"contracts/Service.sol\":3546:3560  titleMilestone */\n      dup7\n        /* \"contracts/Service.sol\":3561:3581  descriptionMilestone */\n      dup7\n        /* \"contracts/Service.sol\":3476:3582  milestone.updateMilestone(projectNumber,serviceNumber,milestoneNumber,titleMilestone,descriptionMilestone) */\n      mload(0x40)\n      dup7\n      0xffffffff\n      and\n      0xe0\n      shl\n      dup2\n      mstore\n      0x04\n      add\n      tag_72\n      swap6\n      swap5\n      swap4\n      swap3\n      swap2\n      swap1\n      tag_73\n      jump\t// in\n    tag_72:\n      0x00\n      mload(0x40)\n      dup1\n      dup4\n      sub\n      dup2\n      0x00\n      dup8\n      dup1\n      extcodesize\n      iszero\n      dup1\n      iszero\n      tag_74\n      jumpi\n      0x00\n      dup1\n      revert\n    tag_74:\n      pop\n      gas\n      call\n      iszero\n      dup1\n      iszero\n      tag_76\n      jumpi\n      returndatasize\n      0x00\n      dup1\n      returndatacopy\n      revert(0x00, returndatasize)\n    tag_76:\n      pop\n      pop\n      pop\n      pop\n        /* \"contracts/Service.sol\":3297:3589  function updateMilestone(uint256 projectNumber, uint256 serviceNumber, uint256 milestoneNumber, string memory titleMilestone, string memory descriptionMilestone) public {... */\n      pop\n      pop\n      pop\n      pop\n      pop\n      jump\t// out\n    tag_46:\n      dup3\n      dup1\n      sload\n      tag_77\n      swap1\n      tag_78\n      jump\t// in\n    tag_77:\n      swap1\n      0x00\n      mstore\n      keccak256(0x00, 0x20)\n      swap1\n      0x1f\n      add\n      0x20\n      swap1\n      div\n      dup2\n      add\n      swap3\n      dup3\n      tag_80\n      jumpi\n      0x00\n      dup6\n      sstore\n      jump(tag_79)\n    tag_80:\n      dup3\n      0x1f\n      lt\n      tag_81\n      jumpi\n      dup1\n      mload\n      not(0xff)\n      and\n      dup4\n      dup1\n      add\n      or\n      dup6\n      sstore\n      jump(tag_79)\n    tag_81:\n      dup3\n      dup1\n      add\n      0x01\n      add\n      dup6\n      sstore\n      dup3\n      iszero\n      tag_79\n      jumpi\n      swap2\n      dup3\n      add\n    tag_82:\n      dup3\n      dup2\n      gt\n      iszero\n      tag_83\n      jumpi\n      dup3\n      mload\n      dup3\n      sstore\n      swap2\n      0x20\n      add\n      swap2\n      swap1\n      0x01\n      add\n      swap1\n      jump(tag_82)\n    tag_83:\n    tag_79:\n      pop\n      swap1\n      pop\n      tag_84\n      swap2\n      swap1\n      tag_85\n      jump\t// in\n    tag_84:\n      pop\n      swap1\n      jump\t// out\n    tag_85:\n    tag_86:\n      dup1\n      dup3\n      gt\n      iszero\n      tag_87\n      jumpi\n      0x00\n      dup2\n      0x00\n      swap1\n      sstore\n      pop\n      0x01\n      add\n      jump(tag_86)\n    tag_87:\n      pop\n      swap1\n      jump\t// out\n        /* \"#utility.yul\":7:419   */\n    tag_89:\n        /* \"#utility.yul\":85:90   */\n      0x00\n        /* \"#utility.yul\":110:176   */\n      tag_91\n        /* \"#utility.yul\":126:175   */\n      tag_92\n        /* \"#utility.yul\":168:174   */\n      dup5\n        /* \"#utility.yul\":126:175   */\n      tag_93\n      jump\t// in\n    tag_92:\n        /* \"#utility.yul\":110:176   */\n      tag_94\n      jump\t// in\n    tag_91:\n        /* \"#utility.yul\":101:176   */\n      swap1\n      pop\n        /* \"#utility.yul\":199:205   */\n      dup3\n        /* \"#utility.yul\":192:197   */\n      dup2\n        /* \"#utility.yul\":185:206   */\n      mstore\n        /* \"#utility.yul\":237:241   */\n      0x20\n        /* \"#utility.yul\":230:235   */\n      dup2\n        /* \"#utility.yul\":226:242   */\n      add\n        /* \"#utility.yul\":275:278   */\n      dup5\n        /* \"#utility.yul\":266:272   */\n      dup5\n        /* \"#utility.yul\":261:264   */\n      dup5\n        /* \"#utility.yul\":257:273   */\n      add\n        /* \"#utility.yul\":254:279   */\n      gt\n        /* \"#utility.yul\":251:363   */\n      iszero\n      tag_95\n      jumpi\n        /* \"#utility.yul\":282:361   */\n      tag_96\n      tag_97\n      jump\t// in\n    tag_96:\n        /* \"#utility.yul\":251:363   */\n    tag_95:\n        /* \"#utility.yul\":372:413   */\n      tag_98\n        /* \"#utility.yul\":406:412   */\n      dup5\n        /* \"#utility.yul\":401:404   */\n      dup3\n        /* \"#utility.yul\":396:399   */\n      dup6\n        /* \"#utility.yul\":372:413   */\n      tag_99\n      jump\t// in\n    tag_98:\n        /* \"#utility.yul\":91:419   */\n      pop\n        /* \"#utility.yul\":7:419   */\n      swap4\n      swap3\n      pop\n      pop\n      pop\n      jump\t// out\n        /* \"#utility.yul\":439:779   */\n    tag_100:\n        /* \"#utility.yul\":495:500   */\n      0x00\n        /* \"#utility.yul\":544:547   */\n      dup3\n        /* \"#utility.yul\":537:541   */\n      0x1f\n        /* \"#utility.yul\":529:535   */\n      dup4\n        /* \"#utility.yul\":525:542   */\n      add\n        /* \"#utility.yul\":521:548   */\n      slt\n        /* \"#utility.yul\":511:633   */\n      tag_102\n      jumpi\n        /* \"#utility.yul\":552:631   */\n      tag_103\n      tag_104\n      jump\t// in\n    tag_103:\n        /* \"#utility.yul\":511:633   */\n    tag_102:\n        /* \"#utility.yul\":669:675   */\n      dup2\n        /* \"#utility.yul\":656:676   */\n      calldataload\n        /* \"#utility.yul\":694:773   */\n      tag_105\n        /* \"#utility.yul\":769:772   */\n      dup5\n        /* \"#utility.yul\":761:767   */\n      dup3\n        /* \"#utility.yul\":754:758   */\n      0x20\n        /* \"#utility.yul\":746:752   */\n      dup7\n        /* \"#utility.yul\":742:759   */\n      add\n        /* \"#utility.yul\":694:773   */\n      tag_89\n      jump\t// in\n    tag_105:\n        /* \"#utility.yul\":685:773   */\n      swap2\n      pop\n        /* \"#utility.yul\":501:779   */\n      pop\n        /* \"#utility.yul\":439:779   */\n      swap3\n      swap2\n      pop\n      pop\n      jump\t// out\n        /* \"#utility.yul\":785:924   */\n    tag_106:\n        /* \"#utility.yul\":831:836   */\n      0x00\n        /* \"#utility.yul\":869:875   */\n      dup2\n        /* \"#utility.yul\":856:876   */\n      calldataload\n        /* \"#utility.yul\":847:876   */\n      swap1\n      pop\n        /* \"#utility.yul\":885:918   */\n      tag_108\n        /* \"#utility.yul\":912:917   */\n      dup2\n        /* \"#utility.yul\":885:918   */\n      tag_109\n      jump\t// in\n    tag_108:\n        /* \"#utility.yul\":785:924   */\n      swap3\n      swap2\n      pop\n      pop\n      jump\t// out\n        /* \"#utility.yul\":930:2055   */\n    tag_10:\n        /* \"#utility.yul\":1036:1042   */\n      0x00\n        /* \"#utility.yul\":1044:1050   */\n      dup1\n        /* \"#utility.yul\":1052:1058   */\n      0x00\n        /* \"#utility.yul\":1060:1066   */\n      dup1\n        /* \"#utility.yul\":1109:1112   */\n      0x80\n        /* \"#utility.yul\":1097:1106   */\n      dup6\n        /* \"#utility.yul\":1088:1095   */\n      dup8\n        /* \"#utility.yul\":1084:1107   */\n      sub\n        /* \"#utility.yul\":1080:1113   */\n      slt\n        /* \"#utility.yul\":1077:1197   */\n      iszero\n      tag_111\n      jumpi\n        /* \"#utility.yul\":1116:1195   */\n      tag_112\n      tag_113\n      jump\t// in\n    tag_112:\n        /* \"#utility.yul\":1077:1197   */\n    tag_111:\n        /* \"#utility.yul\":1236:1237   */\n      0x00\n        /* \"#utility.yul\":1261:1314   */\n      tag_114\n        /* \"#utility.yul\":1306:1313   */\n      dup8\n        /* \"#utility.yul\":1297:1303   */\n      dup3\n        /* \"#utility.yul\":1286:1295   */\n      dup9\n        /* \"#utility.yul\":1282:1304   */\n      add\n        /* \"#utility.yul\":1261:1314   */\n      tag_106\n      jump\t// in\n    tag_114:\n        /* \"#utility.yul\":1251:1314   */\n      swap5\n      pop\n        /* \"#utility.yul\":1207:1324   */\n      pop\n        /* \"#utility.yul\":1391:1393   */\n      0x20\n        /* \"#utility.yul\":1380:1389   */\n      dup6\n        /* \"#utility.yul\":1376:1394   */\n      add\n        /* \"#utility.yul\":1363:1395   */\n      calldataload\n        /* \"#utility.yul\":1422:1440   */\n      0xffffffffffffffff\n        /* \"#utility.yul\":1414:1420   */\n      dup2\n        /* \"#utility.yul\":1411:1441   */\n      gt\n        /* \"#utility.yul\":1408:1525   */\n      iszero\n      tag_115\n      jumpi\n        /* \"#utility.yul\":1444:1523   */\n      tag_116\n      tag_117\n      jump\t// in\n    tag_116:\n        /* \"#utility.yul\":1408:1525   */\n    tag_115:\n        /* \"#utility.yul\":1549:1612   */\n      tag_118\n        /* \"#utility.yul\":1604:1611   */\n      dup8\n        /* \"#utility.yul\":1595:1601   */\n      dup3\n        /* \"#utility.yul\":1584:1593   */\n      dup9\n        /* \"#utility.yul\":1580:1602   */\n      add\n        /* \"#utility.yul\":1549:1612   */\n      tag_100\n      jump\t// in\n    tag_118:\n        /* \"#utility.yul\":1539:1612   */\n      swap4\n      pop\n        /* \"#utility.yul\":1334:1622   */\n      pop\n        /* \"#utility.yul\":1689:1691   */\n      0x40\n        /* \"#utility.yul\":1678:1687   */\n      dup6\n        /* \"#utility.yul\":1674:1692   */\n      add\n        /* \"#utility.yul\":1661:1693   */\n      calldataload\n        /* \"#utility.yul\":1720:1738   */\n      0xffffffffffffffff\n        /* \"#utility.yul\":1712:1718   */\n      dup2\n        /* \"#utility.yul\":1709:1739   */\n      gt\n        /* \"#utility.yul\":1706:1823   */\n      iszero\n      tag_119\n      jumpi\n        /* \"#utility.yul\":1742:1821   */\n      tag_120\n      tag_117\n      jump\t// in\n    tag_120:\n        /* \"#utility.yul\":1706:1823   */\n    tag_119:\n        /* \"#utility.yul\":1847:1910   */\n      tag_121\n        /* \"#utility.yul\":1902:1909   */\n      dup8\n        /* \"#utility.yul\":1893:1899   */\n      dup3\n        /* \"#utility.yul\":1882:1891   */\n      dup9\n        /* \"#utility.yul\":1878:1900   */\n      add\n        /* \"#utility.yul\":1847:1910   */\n      tag_100\n      jump\t// in\n    tag_121:\n        /* \"#utility.yul\":1837:1910   */\n      swap3\n      pop\n        /* \"#utility.yul\":1632:1920   */\n      pop\n        /* \"#utility.yul\":1959:1961   */\n      0x60\n        /* \"#utility.yul\":1985:2038   */\n      tag_122\n        /* \"#utility.yul\":2030:2037   */\n      dup8\n        /* \"#utility.yul\":2021:2027   */\n      dup3\n        /* \"#utility.yul\":2010:2019   */\n      dup9\n        /* \"#utility.yul\":2006:2028   */\n      add\n        /* \"#utility.yul\":1985:2038   */\n      tag_106\n      jump\t// in\n    tag_122:\n        /* \"#utility.yul\":1975:2038   */\n      swap2\n      pop\n        /* \"#utility.yul\":1930:2048   */\n      pop\n        /* \"#utility.yul\":930:2055   */\n      swap3\n      swap6\n      swap2\n      swap5\n      pop\n      swap3\n      pop\n      jump\t// out\n        /* \"#utility.yul\":2061:2535   */\n    tag_22:\n        /* \"#utility.yul\":2129:2135   */\n      0x00\n        /* \"#utility.yul\":2137:2143   */\n      dup1\n        /* \"#utility.yul\":2186:2188   */\n      0x40\n        /* \"#utility.yul\":2174:2183   */\n      dup4\n        /* \"#utility.yul\":2165:2172   */\n      dup6\n        /* \"#utility.yul\":2161:2184   */\n      sub\n        /* \"#utility.yul\":2157:2189   */\n      slt\n        /* \"#utility.yul\":2154:2273   */\n      iszero\n      tag_124\n      jumpi\n        /* \"#utility.yul\":2192:2271   */\n      tag_125\n      tag_113\n      jump\t// in\n    tag_125:\n        /* \"#utility.yul\":2154:2273   */\n    tag_124:\n        /* \"#utility.yul\":2312:2313   */\n      0x00\n        /* \"#utility.yul\":2337:2390   */\n      tag_126\n        /* \"#utility.yul\":2382:2389   */\n      dup6\n        /* \"#utility.yul\":2373:2379   */\n      dup3\n        /* \"#utility.yul\":2362:2371   */\n      dup7\n        /* \"#utility.yul\":2358:2380   */\n      add\n        /* \"#utility.yul\":2337:2390   */\n      tag_106\n      jump\t// in\n    tag_126:\n        /* \"#utility.yul\":2327:2390   */\n      swap3\n      pop\n        /* \"#utility.yul\":2283:2400   */\n      pop\n        /* \"#utility.yul\":2439:2441   */\n      0x20\n        /* \"#utility.yul\":2465:2518   */\n      tag_127\n        /* \"#utility.yul\":2510:2517   */\n      dup6\n        /* \"#utility.yul\":2501:2507   */\n      dup3\n        /* \"#utility.yul\":2490:2499   */\n      dup7\n        /* \"#utility.yul\":2486:2508   */\n      add\n        /* \"#utility.yul\":2465:2518   */\n      tag_106\n      jump\t// in\n    tag_127:\n        /* \"#utility.yul\":2455:2518   */\n      swap2\n      pop\n        /* \"#utility.yul\":2410:2528   */\n      pop\n        /* \"#utility.yul\":2061:2535   */\n      swap3\n      pop\n      swap3\n      swap1\n      pop\n      jump\t// out\n        /* \"#utility.yul\":2541:3666   */\n    tag_14:\n        /* \"#utility.yul\":2647:2653   */\n      0x00\n        /* \"#utility.yul\":2655:2661   */\n      dup1\n        /* \"#utility.yul\":2663:2669   */\n      0x00\n        /* \"#utility.yul\":2671:2677   */\n      dup1\n        /* \"#utility.yul\":2720:2723   */\n      0x80\n        /* \"#utility.yul\":2708:2717   */\n      dup6\n        /* \"#utility.yul\":2699:2706   */\n      dup8\n        /* \"#utility.yul\":2695:2718   */\n      sub\n        /* \"#utility.yul\":2691:2724   */\n      slt\n        /* \"#utility.yul\":2688:2808   */\n      iszero\n      tag_129\n      jumpi\n        /* \"#utility.yul\":2727:2806   */\n      tag_130\n      tag_113\n      jump\t// in\n    tag_130:\n        /* \"#utility.yul\":2688:2808   */\n    tag_129:\n        /* \"#utility.yul\":2847:2848   */\n      0x00\n        /* \"#utility.yul\":2872:2925   */\n      tag_131\n        /* \"#utility.yul\":2917:2924   */\n      dup8\n        /* \"#utility.yul\":2908:2914   */\n      dup3\n        /* \"#utility.yul\":2897:2906   */\n      dup9\n        /* \"#utility.yul\":2893:2915   */\n      add\n        /* \"#utility.yul\":2872:2925   */\n      tag_106\n      jump\t// in\n    tag_131:\n        /* \"#utility.yul\":2862:2925   */\n      swap5\n      pop\n        /* \"#utility.yul\":2818:2935   */\n      pop\n        /* \"#utility.yul\":2974:2976   */\n      0x20\n        /* \"#utility.yul\":3000:3053   */\n      tag_132\n        /* \"#utility.yul\":3045:3052   */\n      dup8\n        /* \"#utility.yul\":3036:3042   */\n      dup3\n        /* \"#utility.yul\":3025:3034   */\n      dup9\n        /* \"#utility.yul\":3021:3043   */\n      add\n        /* \"#utility.yul\":3000:3053   */\n      tag_106\n      jump\t// in\n    tag_132:\n        /* \"#utility.yul\":2990:3053   */\n      swap4\n      pop\n        /* \"#utility.yul\":2945:3063   */\n      pop\n        /* \"#utility.yul\":3130:3132   */\n      0x40\n        /* \"#utility.yul\":3119:3128   */\n      dup6\n        /* \"#utility.yul\":3115:3133   */\n      add\n        /* \"#utility.yul\":3102:3134   */\n      calldataload\n        /* \"#utility.yul\":3161:3179   */\n      0xffffffffffffffff\n        /* \"#utility.yul\":3153:3159   */\n      dup2\n        /* \"#utility.yul\":3150:3180   */\n      gt\n        /* \"#utility.yul\":3147:3264   */\n      iszero\n      tag_133\n      jumpi\n        /* \"#utility.yul\":3183:3262   */\n      tag_134\n      tag_117\n      jump\t// in\n    tag_134:\n        /* \"#utility.yul\":3147:3264   */\n    tag_133:\n        /* \"#utility.yul\":3288:3351   */\n      tag_135\n        /* \"#utility.yul\":3343:3350   */\n      dup8\n        /* \"#utility.yul\":3334:3340   */\n      dup3\n        /* \"#utility.yul\":3323:3332   */\n      dup9\n        /* \"#utility.yul\":3319:3341   */\n      add\n        /* \"#utility.yul\":3288:3351   */\n      tag_100\n      jump\t// in\n    tag_135:\n        /* \"#utility.yul\":3278:3351   */\n      swap3\n      pop\n        /* \"#utility.yul\":3073:3361   */\n      pop\n        /* \"#utility.yul\":3428:3430   */\n      0x60\n        /* \"#utility.yul\":3417:3426   */\n      dup6\n        /* \"#utility.yul\":3413:3431   */\n      add\n        /* \"#utility.yul\":3400:3432   */\n      calldataload\n        /* \"#utility.yul\":3459:3477   */\n      0xffffffffffffffff\n        /* \"#utility.yul\":3451:3457   */\n      dup2\n        /* \"#utility.yul\":3448:3478   */\n      gt\n        /* \"#utility.yul\":3445:3562   */\n      iszero\n      tag_136\n      jumpi\n        /* \"#utility.yul\":3481:3560   */\n      tag_137\n      tag_117\n      jump\t// in\n    tag_137:\n        /* \"#utility.yul\":3445:3562   */\n    tag_136:\n        /* \"#utility.yul\":3586:3649   */\n      tag_138\n        /* \"#utility.yul\":3641:3648   */\n      dup8\n        /* \"#utility.yul\":3632:3638   */\n      dup3\n        /* \"#utility.yul\":3621:3630   */\n      dup9\n        /* \"#utility.yul\":3617:3639   */\n      add\n        /* \"#utility.yul\":3586:3649   */\n      tag_100\n      jump\t// in\n    tag_138:\n        /* \"#utility.yul\":3576:3649   */\n      swap2\n      pop\n        /* \"#utility.yul\":3371:3659   */\n      pop\n        /* \"#utility.yul\":2541:3666   */\n      swap3\n      swap6\n      swap2\n      swap5\n      pop\n      swap3\n      pop\n      jump\t// out\n        /* \"#utility.yul\":3672:4291   */\n    tag_18:\n        /* \"#utility.yul\":3749:3755   */\n      0x00\n        /* \"#utility.yul\":3757:3763   */\n      dup1\n        /* \"#utility.yul\":3765:3771   */\n      0x00\n        /* \"#utility.yul\":3814:3816   */\n      0x60\n        /* \"#utility.yul\":3802:3811   */\n      dup5\n        /* \"#utility.yul\":3793:3800   */\n      dup7\n        /* \"#utility.yul\":3789:3812   */\n      sub\n        /* \"#utility.yul\":3785:3817   */\n      slt\n        /* \"#utility.yul\":3782:3901   */\n      iszero\n      tag_140\n      jumpi\n        /* \"#utility.yul\":3820:3899   */\n      tag_141\n      tag_113\n      jump\t// in\n    tag_141:\n        /* \"#utility.yul\":3782:3901   */\n    tag_140:\n        /* \"#utility.yul\":3940:3941   */\n      0x00\n        /* \"#utility.yul\":3965:4018   */\n      tag_142\n        /* \"#utility.yul\":4010:4017   */\n      dup7\n        /* \"#utility.yul\":4001:4007   */\n      dup3\n        /* \"#utility.yul\":3990:3999   */\n      dup8\n        /* \"#utility.yul\":3986:4008   */\n      add\n        /* \"#utility.yul\":3965:4018   */\n      tag_106\n      jump\t// in\n    tag_142:\n        /* \"#utility.yul\":3955:4018   */\n      swap4\n      pop\n        /* \"#utility.yul\":3911:4028   */\n      pop\n        /* \"#utility.yul\":4067:4069   */\n      0x20\n        /* \"#utility.yul\":4093:4146   */\n      tag_143\n        /* \"#utility.yul\":4138:4145   */\n      dup7\n        /* \"#utility.yul\":4129:4135   */\n      dup3\n        /* \"#utility.yul\":4118:4127   */\n      dup8\n        /* \"#utility.yul\":4114:4136   */\n      add\n        /* \"#utility.yul\":4093:4146   */\n      tag_106\n      jump\t// in\n    tag_143:\n        /* \"#utility.yul\":4083:4146   */\n      swap3\n      pop\n        /* \"#utility.yul\":4038:4156   */\n      pop\n        /* \"#utility.yul\":4195:4197   */\n      0x40\n        /* \"#utility.yul\":4221:4274   */\n      tag_144\n        /* \"#utility.yul\":4266:4273   */\n      dup7\n        /* \"#utility.yul\":4257:4263   */\n      dup3\n        /* \"#utility.yul\":4246:4255   */\n      dup8\n        /* \"#utility.yul\":4242:4264   */\n      add\n        /* \"#utility.yul\":4221:4274   */\n      tag_106\n      jump\t// in\n    tag_144:\n        /* \"#utility.yul\":4211:4274   */\n      swap2\n      pop\n        /* \"#utility.yul\":4166:4284   */\n      pop\n        /* \"#utility.yul\":3672:4291   */\n      swap3\n      pop\n      swap3\n      pop\n      swap3\n      jump\t// out\n        /* \"#utility.yul\":4297:5568   */\n    tag_26:\n        /* \"#utility.yul\":4412:4418   */\n      0x00\n        /* \"#utility.yul\":4420:4426   */\n      dup1\n        /* \"#utility.yul\":4428:4434   */\n      0x00\n        /* \"#utility.yul\":4436:4442   */\n      dup1\n        /* \"#utility.yul\":4444:4450   */\n      0x00\n        /* \"#utility.yul\":4493:4496   */\n      0xa0\n        /* \"#utility.yul\":4481:4490   */\n      dup7\n        /* \"#utility.yul\":4472:4479   */\n      dup9\n        /* \"#utility.yul\":4468:4491   */\n      sub\n        /* \"#utility.yul\":4464:4497   */\n      slt\n        /* \"#utility.yul\":4461:4581   */\n      iszero\n      tag_146\n      jumpi\n        /* \"#utility.yul\":4500:4579   */\n      tag_147\n      tag_113\n      jump\t// in\n    tag_147:\n        /* \"#utility.yul\":4461:4581   */\n    tag_146:\n        /* \"#utility.yul\":4620:4621   */\n      0x00\n        /* \"#utility.yul\":4645:4698   */\n      tag_148\n        /* \"#utility.yul\":4690:4697   */\n      dup9\n        /* \"#utility.yul\":4681:4687   */\n      dup3\n        /* \"#utility.yul\":4670:4679   */\n      dup10\n        /* \"#utility.yul\":4666:4688   */\n      add\n        /* \"#utility.yul\":4645:4698   */\n      tag_106\n      jump\t// in\n    tag_148:\n        /* \"#utility.yul\":4635:4698   */\n      swap6\n      pop\n        /* \"#utility.yul\":4591:4708   */\n      pop\n        /* \"#utility.yul\":4747:4749   */\n      0x20\n        /* \"#utility.yul\":4773:4826   */\n      tag_149\n        /* \"#utility.yul\":4818:4825   */\n      dup9\n        /* \"#utility.yul\":4809:4815   */\n      dup3\n        /* \"#utility.yul\":4798:4807   */\n      dup10\n        /* \"#utility.yul\":4794:4816   */\n      add\n        /* \"#utility.yul\":4773:4826   */\n      tag_106\n      jump\t// in\n    tag_149:\n        /* \"#utility.yul\":4763:4826   */\n      swap5\n      pop\n        /* \"#utility.yul\":4718:4836   */\n      pop\n        /* \"#utility.yul\":4875:4877   */\n      0x40\n        /* \"#utility.yul\":4901:4954   */\n      tag_150\n        /* \"#utility.yul\":4946:4953   */\n      dup9\n        /* \"#utility.yul\":4937:4943   */\n      dup3\n        /* \"#utility.yul\":4926:4935   */\n      dup10\n        /* \"#utility.yul\":4922:4944   */\n      add\n        /* \"#utility.yul\":4901:4954   */\n      tag_106\n      jump\t// in\n    tag_150:\n        /* \"#utility.yul\":4891:4954   */\n      swap4\n      pop\n        /* \"#utility.yul\":4846:4964   */\n      pop\n        /* \"#utility.yul\":5031:5033   */\n      0x60\n        /* \"#utility.yul\":5020:5029   */\n      dup7\n        /* \"#utility.yul\":5016:5034   */\n      add\n        /* \"#utility.yul\":5003:5035   */\n      calldataload\n        /* \"#utility.yul\":5062:5080   */\n      0xffffffffffffffff\n        /* \"#utility.yul\":5054:5060   */\n      dup2\n        /* \"#utility.yul\":5051:5081   */\n      gt\n        /* \"#utility.yul\":5048:5165   */\n      iszero\n      tag_151\n      jumpi\n        /* \"#utility.yul\":5084:5163   */\n      tag_152\n      tag_117\n      jump\t// in\n    tag_152:\n        /* \"#utility.yul\":5048:5165   */\n    tag_151:\n        /* \"#utility.yul\":5189:5252   */\n      tag_153\n        /* \"#utility.yul\":5244:5251   */\n      dup9\n        /* \"#utility.yul\":5235:5241   */\n      dup3\n        /* \"#utility.yul\":5224:5233   */\n      dup10\n        /* \"#utility.yul\":5220:5242   */\n      add\n        /* \"#utility.yul\":5189:5252   */\n      tag_100\n      jump\t// in\n    tag_153:\n        /* \"#utility.yul\":5179:5252   */\n      swap3\n      pop\n        /* \"#utility.yul\":4974:5262   */\n      pop\n        /* \"#utility.yul\":5329:5332   */\n      0x80\n        /* \"#utility.yul\":5318:5327   */\n      dup7\n        /* \"#utility.yul\":5314:5333   */\n      add\n        /* \"#utility.yul\":5301:5334   */\n      calldataload\n        /* \"#utility.yul\":5361:5379   */\n      0xffffffffffffffff\n        /* \"#utility.yul\":5353:5359   */\n      dup2\n        /* \"#utility.yul\":5350:5380   */\n      gt\n        /* \"#utility.yul\":5347:5464   */\n      iszero\n      tag_154\n      jumpi\n        /* \"#utility.yul\":5383:5462   */\n      tag_155\n      tag_117\n      jump\t// in\n    tag_155:\n        /* \"#utility.yul\":5347:5464   */\n    tag_154:\n        /* \"#utility.yul\":5488:5551   */\n      tag_156\n        /* \"#utility.yul\":5543:5550   */\n      dup9\n        /* \"#utility.yul\":5534:5540   */\n      dup3\n        /* \"#utility.yul\":5523:5532   */\n      dup10\n        /* \"#utility.yul\":5519:5541   */\n      add\n        /* \"#utility.yul\":5488:5551   */\n      tag_100\n      jump\t// in\n    tag_156:\n        /* \"#utility.yul\":5478:5551   */\n      swap2\n      pop\n        /* \"#utility.yul\":5272:5561   */\n      pop\n        /* \"#utility.yul\":4297:5568   */\n      swap3\n      swap6\n      pop\n      swap3\n      swap6\n      swap1\n      swap4\n      pop\n      jump\t// out\n        /* \"#utility.yul\":5574:5938   */\n    tag_157:\n        /* \"#utility.yul\":5662:5665   */\n      0x00\n        /* \"#utility.yul\":5690:5729   */\n      tag_159\n        /* \"#utility.yul\":5723:5728   */\n      dup3\n        /* \"#utility.yul\":5690:5729   */\n      tag_160\n      jump\t// in\n    tag_159:\n        /* \"#utility.yul\":5745:5816   */\n      tag_161\n        /* \"#utility.yul\":5809:5815   */\n      dup2\n        /* \"#utility.yul\":5804:5807   */\n      dup6\n        /* \"#utility.yul\":5745:5816   */\n      tag_162\n      jump\t// in\n    tag_161:\n        /* \"#utility.yul\":5738:5816   */\n      swap4\n      pop\n        /* \"#utility.yul\":5825:5877   */\n      tag_163\n        /* \"#utility.yul\":5870:5876   */\n      dup2\n        /* \"#utility.yul\":5865:5868   */\n      dup6\n        /* \"#utility.yul\":5858:5862   */\n      0x20\n        /* \"#utility.yul\":5851:5856   */\n      dup7\n        /* \"#utility.yul\":5847:5863   */\n      add\n        /* \"#utility.yul\":5825:5877   */\n      tag_164\n      jump\t// in\n    tag_163:\n        /* \"#utility.yul\":5902:5931   */\n      tag_165\n        /* \"#utility.yul\":5924:5930   */\n      dup2\n        /* \"#utility.yul\":5902:5931   */\n      tag_166\n      jump\t// in\n    tag_165:\n        /* \"#utility.yul\":5897:5900   */\n      dup5\n        /* \"#utility.yul\":5893:5932   */\n      add\n        /* \"#utility.yul\":5886:5932   */\n      swap2\n      pop\n        /* \"#utility.yul\":5666:5938   */\n      pop\n        /* \"#utility.yul\":5574:5938   */\n      swap3\n      swap2\n      pop\n      pop\n      jump\t// out\n        /* \"#utility.yul\":5944:6310   */\n    tag_167:\n        /* \"#utility.yul\":6086:6089   */\n      0x00\n        /* \"#utility.yul\":6107:6174   */\n      tag_169\n        /* \"#utility.yul\":6171:6173   */\n      0x21\n        /* \"#utility.yul\":6166:6169   */\n      dup4\n        /* \"#utility.yul\":6107:6174   */\n      tag_162\n      jump\t// in\n    tag_169:\n        /* \"#utility.yul\":6100:6174   */\n      swap2\n      pop\n        /* \"#utility.yul\":6183:6276   */\n      tag_170\n        /* \"#utility.yul\":6272:6275   */\n      dup3\n        /* \"#utility.yul\":6183:6276   */\n      tag_171\n      jump\t// in\n    tag_170:\n        /* \"#utility.yul\":6301:6303   */\n      0x40\n        /* \"#utility.yul\":6296:6299   */\n      dup3\n        /* \"#utility.yul\":6292:6304   */\n      add\n        /* \"#utility.yul\":6285:6304   */\n      swap1\n      pop\n        /* \"#utility.yul\":5944:6310   */\n      swap2\n      swap1\n      pop\n      jump\t// out\n        /* \"#utility.yul\":6316:6682   */\n    tag_172:\n        /* \"#utility.yul\":6458:6461   */\n      0x00\n        /* \"#utility.yul\":6479:6546   */\n      tag_174\n        /* \"#utility.yul\":6543:6545   */\n      0x15\n        /* \"#utility.yul\":6538:6541   */\n      dup4\n        /* \"#utility.yul\":6479:6546   */\n      tag_162\n      jump\t// in\n    tag_174:\n        /* \"#utility.yul\":6472:6546   */\n      swap2\n      pop\n        /* \"#utility.yul\":6555:6648   */\n      tag_175\n        /* \"#utility.yul\":6644:6647   */\n      dup3\n        /* \"#utility.yul\":6555:6648   */\n      tag_176\n      jump\t// in\n    tag_175:\n        /* \"#utility.yul\":6673:6675   */\n      0x20\n        /* \"#utility.yul\":6668:6671   */\n      dup3\n        /* \"#utility.yul\":6664:6676   */\n      add\n        /* \"#utility.yul\":6657:6676   */\n      swap1\n      pop\n        /* \"#utility.yul\":6316:6682   */\n      swap2\n      swap1\n      pop\n      jump\t// out\n        /* \"#utility.yul\":6688:6806   */\n    tag_177:\n        /* \"#utility.yul\":6775:6799   */\n      tag_179\n        /* \"#utility.yul\":6793:6798   */\n      dup2\n        /* \"#utility.yul\":6775:6799   */\n      tag_180\n      jump\t// in\n    tag_179:\n        /* \"#utility.yul\":6770:6773   */\n      dup3\n        /* \"#utility.yul\":6763:6800   */\n      mstore\n        /* \"#utility.yul\":6688:6806   */\n      pop\n      pop\n      jump\t// out\n        /* \"#utility.yul\":6812:7231   */\n    tag_38:\n        /* \"#utility.yul\":6978:6982   */\n      0x00\n        /* \"#utility.yul\":7016:7018   */\n      0x20\n        /* \"#utility.yul\":7005:7014   */\n      dup3\n        /* \"#utility.yul\":7001:7019   */\n      add\n        /* \"#utility.yul\":6993:7019   */\n      swap1\n      pop\n        /* \"#utility.yul\":7065:7074   */\n      dup2\n        /* \"#utility.yul\":7059:7063   */\n      dup2\n        /* \"#utility.yul\":7055:7075   */\n      sub\n        /* \"#utility.yul\":7051:7052   */\n      0x00\n        /* \"#utility.yul\":7040:7049   */\n      dup4\n        /* \"#utility.yul\":7036:7053   */\n      add\n        /* \"#utility.yul\":7029:7076   */\n      mstore\n        /* \"#utility.yul\":7093:7224   */\n      tag_182\n        /* \"#utility.yul\":7219:7223   */\n      dup2\n        /* \"#utility.yul\":7093:7224   */\n      tag_167\n      jump\t// in\n    tag_182:\n        /* \"#utility.yul\":7085:7224   */\n      swap1\n      pop\n        /* \"#utility.yul\":6812:7231   */\n      swap2\n      swap1\n      pop\n      jump\t// out\n        /* \"#utility.yul\":7237:7656   */\n    tag_31:\n        /* \"#utility.yul\":7403:7407   */\n      0x00\n        /* \"#utility.yul\":7441:7443   */\n      0x20\n        /* \"#utility.yul\":7430:7439   */\n      dup3\n        /* \"#utility.yul\":7426:7444   */\n      add\n        /* \"#utility.yul\":7418:7444   */\n      swap1\n      pop\n        /* \"#utility.yul\":7490:7499   */\n      dup2\n        /* \"#utility.yul\":7484:7488   */\n      dup2\n        /* \"#utility.yul\":7480:7500   */\n      sub\n        /* \"#utility.yul\":7476:7477   */\n      0x00\n        /* \"#utility.yul\":7465:7474   */\n      dup4\n        /* \"#utility.yul\":7461:7478   */\n      add\n        /* \"#utility.yul\":7454:7501   */\n      mstore\n        /* \"#utility.yul\":7518:7649   */\n      tag_184\n        /* \"#utility.yul\":7644:7648   */\n      dup2\n        /* \"#utility.yul\":7518:7649   */\n      tag_172\n      jump\t// in\n    tag_184:\n        /* \"#utility.yul\":7510:7649   */\n      swap1\n      pop\n        /* \"#utility.yul\":7237:7656   */\n      swap2\n      swap1\n      pop\n      jump\t// out\n        /* \"#utility.yul\":7662:7994   */\n    tag_70:\n        /* \"#utility.yul\":7783:7787   */\n      0x00\n        /* \"#utility.yul\":7821:7823   */\n      0x40\n        /* \"#utility.yul\":7810:7819   */\n      dup3\n        /* \"#utility.yul\":7806:7824   */\n      add\n        /* \"#utility.yul\":7798:7824   */\n      swap1\n      pop\n        /* \"#utility.yul\":7834:7905   */\n      tag_186\n        /* \"#utility.yul\":7902:7903   */\n      0x00\n        /* \"#utility.yul\":7891:7900   */\n      dup4\n        /* \"#utility.yul\":7887:7904   */\n      add\n        /* \"#utility.yul\":7878:7884   */\n      dup6\n        /* \"#utility.yul\":7834:7905   */\n      tag_177\n      jump\t// in\n    tag_186:\n        /* \"#utility.yul\":7915:7987   */\n      tag_187\n        /* \"#utility.yul\":7983:7985   */\n      0x20\n        /* \"#utility.yul\":7972:7981   */\n      dup4\n        /* \"#utility.yul\":7968:7986   */\n      add\n        /* \"#utility.yul\":7959:7965   */\n      dup5\n        /* \"#utility.yul\":7915:7987   */\n      tag_177\n      jump\t// in\n    tag_187:\n        /* \"#utility.yul\":7662:7994   */\n      swap4\n      swap3\n      pop\n      pop\n      pop\n      jump\t// out\n        /* \"#utility.yul\":8000:8735   */\n    tag_54:\n        /* \"#utility.yul\":8217:8221   */\n      0x00\n        /* \"#utility.yul\":8255:8258   */\n      0x80\n        /* \"#utility.yul\":8244:8253   */\n      dup3\n        /* \"#utility.yul\":8240:8259   */\n      add\n        /* \"#utility.yul\":8232:8259   */\n      swap1\n      pop\n        /* \"#utility.yul\":8269:8340   */\n      tag_189\n        /* \"#utility.yul\":8337:8338   */\n      0x00\n        /* \"#utility.yul\":8326:8335   */\n      dup4\n        /* \"#utility.yul\":8322:8339   */\n      add\n        /* \"#utility.yul\":8313:8319   */\n      dup8\n        /* \"#utility.yul\":8269:8340   */\n      tag_177\n      jump\t// in\n    tag_189:\n        /* \"#utility.yul\":8350:8422   */\n      tag_190\n        /* \"#utility.yul\":8418:8420   */\n      0x20\n        /* \"#utility.yul\":8407:8416   */\n      dup4\n        /* \"#utility.yul\":8403:8421   */\n      add\n        /* \"#utility.yul\":8394:8400   */\n      dup7\n        /* \"#utility.yul\":8350:8422   */\n      tag_177\n      jump\t// in\n    tag_190:\n        /* \"#utility.yul\":8469:8478   */\n      dup2\n        /* \"#utility.yul\":8463:8467   */\n      dup2\n        /* \"#utility.yul\":8459:8479   */\n      sub\n        /* \"#utility.yul\":8454:8456   */\n      0x40\n        /* \"#utility.yul\":8443:8452   */\n      dup4\n        /* \"#utility.yul\":8439:8457   */\n      add\n        /* \"#utility.yul\":8432:8480   */\n      mstore\n        /* \"#utility.yul\":8497:8575   */\n      tag_191\n        /* \"#utility.yul\":8570:8574   */\n      dup2\n        /* \"#utility.yul\":8561:8567   */\n      dup6\n        /* \"#utility.yul\":8497:8575   */\n      tag_157\n      jump\t// in\n    tag_191:\n        /* \"#utility.yul\":8489:8575   */\n      swap1\n      pop\n        /* \"#utility.yul\":8622:8631   */\n      dup2\n        /* \"#utility.yul\":8616:8620   */\n      dup2\n        /* \"#utility.yul\":8612:8632   */\n      sub\n        /* \"#utility.yul\":8607:8609   */\n      0x60\n        /* \"#utility.yul\":8596:8605   */\n      dup4\n        /* \"#utility.yul\":8592:8610   */\n      add\n        /* \"#utility.yul\":8585:8633   */\n      mstore\n        /* \"#utility.yul\":8650:8728   */\n      tag_192\n        /* \"#utility.yul\":8723:8727   */\n      dup2\n        /* \"#utility.yul\":8714:8720   */\n      dup5\n        /* \"#utility.yul\":8650:8728   */\n      tag_157\n      jump\t// in\n    tag_192:\n        /* \"#utility.yul\":8642:8728   */\n      swap1\n      pop\n        /* \"#utility.yul\":8000:8735   */\n      swap6\n      swap5\n      pop\n      pop\n      pop\n      pop\n      pop\n      jump\t// out\n        /* \"#utility.yul\":8741:9587   */\n    tag_51:\n        /* \"#utility.yul\":8986:8990   */\n      0x00\n        /* \"#utility.yul\":9024:9027   */\n      0xa0\n        /* \"#utility.yul\":9013:9022   */\n      dup3\n        /* \"#utility.yul\":9009:9028   */\n      add\n        /* \"#utility.yul\":9001:9028   */\n      swap1\n      pop\n        /* \"#utility.yul\":9038:9109   */\n      tag_194\n        /* \"#utility.yul\":9106:9107   */\n      0x00\n        /* \"#utility.yul\":9095:9104   */\n      dup4\n        /* \"#utility.yul\":9091:9108   */\n      add\n        /* \"#utility.yul\":9082:9088   */\n      dup9\n        /* \"#utility.yul\":9038:9109   */\n      tag_177\n      jump\t// in\n    tag_194:\n        /* \"#utility.yul\":9119:9191   */\n      tag_195\n        /* \"#utility.yul\":9187:9189   */\n      0x20\n        /* \"#utility.yul\":9176:9185   */\n      dup4\n        /* \"#utility.yul\":9172:9190   */\n      add\n        /* \"#utility.yul\":9163:9169   */\n      dup8\n        /* \"#utility.yul\":9119:9191   */\n      tag_177\n      jump\t// in\n    tag_195:\n        /* \"#utility.yul\":9238:9247   */\n      dup2\n        /* \"#utility.yul\":9232:9236   */\n      dup2\n        /* \"#utility.yul\":9228:9248   */\n      sub\n        /* \"#utility.yul\":9223:9225   */\n      0x40\n        /* \"#utility.yul\":9212:9221   */\n      dup4\n        /* \"#utility.yul\":9208:9226   */\n      add\n        /* \"#utility.yul\":9201:9249   */\n      mstore\n        /* \"#utility.yul\":9266:9344   */\n      tag_196\n        /* \"#utility.yul\":9339:9343   */\n      dup2\n        /* \"#utility.yul\":9330:9336   */\n      dup7\n        /* \"#utility.yul\":9266:9344   */\n      tag_157\n      jump\t// in\n    tag_196:\n        /* \"#utility.yul\":9258:9344   */\n      swap1\n      pop\n        /* \"#utility.yul\":9391:9400   */\n      dup2\n        /* \"#utility.yul\":9385:9389   */\n      dup2\n        /* \"#utility.yul\":9381:9401   */\n      sub\n        /* \"#utility.yul\":9376:9378   */\n      0x60\n        /* \"#utility.yul\":9365:9374   */\n      dup4\n        /* \"#utility.yul\":9361:9379   */\n      add\n        /* \"#utility.yul\":9354:9402   */\n      mstore\n        /* \"#utility.yul\":9419:9497   */\n      tag_197\n        /* \"#utility.yul\":9492:9496   */\n      dup2\n        /* \"#utility.yul\":9483:9489   */\n      dup6\n        /* \"#utility.yul\":9419:9497   */\n      tag_157\n      jump\t// in\n    tag_197:\n        /* \"#utility.yul\":9411:9497   */\n      swap1\n      pop\n        /* \"#utility.yul\":9507:9580   */\n      tag_198\n        /* \"#utility.yul\":9575:9578   */\n      0x80\n        /* \"#utility.yul\":9564:9573   */\n      dup4\n        /* \"#utility.yul\":9560:9579   */\n      add\n        /* \"#utility.yul\":9551:9557   */\n      dup5\n        /* \"#utility.yul\":9507:9580   */\n      tag_177\n      jump\t// in\n    tag_198:\n        /* \"#utility.yul\":8741:9587   */\n      swap7\n      swap6\n      pop\n      pop\n      pop\n      pop\n      pop\n      pop\n      jump\t// out\n        /* \"#utility.yul\":9593:10035   */\n    tag_60:\n        /* \"#utility.yul\":9742:9746   */\n      0x00\n        /* \"#utility.yul\":9780:9782   */\n      0x60\n        /* \"#utility.yul\":9769:9778   */\n      dup3\n        /* \"#utility.yul\":9765:9783   */\n      add\n        /* \"#utility.yul\":9757:9783   */\n      swap1\n      pop\n        /* \"#utility.yul\":9793:9864   */\n      tag_200\n        /* \"#utility.yul\":9861:9862   */\n      0x00\n        /* \"#utility.yul\":9850:9859   */\n      dup4\n        /* \"#utility.yul\":9846:9863   */\n      add\n        /* \"#utility.yul\":9837:9843   */\n      dup7\n        /* \"#utility.yul\":9793:9864   */\n      tag_177\n      jump\t// in\n    tag_200:\n        /* \"#utility.yul\":9874:9946   */\n      tag_201\n        /* \"#utility.yul\":9942:9944   */\n      0x20\n        /* \"#utility.yul\":9931:9940   */\n      dup4\n        /* \"#utility.yul\":9927:9945   */\n      add\n        /* \"#utility.yul\":9918:9924   */\n      dup6\n        /* \"#utility.yul\":9874:9946   */\n      tag_177\n      jump\t// in\n    tag_201:\n        /* \"#utility.yul\":9956:10028   */\n      tag_202\n        /* \"#utility.yul\":10024:10026   */\n      0x40\n        /* \"#utility.yul\":10013:10022   */\n      dup4\n        /* \"#utility.yul\":10009:10027   */\n      add\n        /* \"#utility.yul\":10000:10006   */\n      dup5\n        /* \"#utility.yul\":9956:10028   */\n      tag_177\n      jump\t// in\n    tag_202:\n        /* \"#utility.yul\":9593:10035   */\n      swap5\n      swap4\n      pop\n      pop\n      pop\n      pop\n      jump\t// out\n        /* \"#utility.yul\":10041:10887   */\n    tag_73:\n        /* \"#utility.yul\":10286:10290   */\n      0x00\n        /* \"#utility.yul\":10324:10327   */\n      0xa0\n        /* \"#utility.yul\":10313:10322   */\n      dup3\n        /* \"#utility.yul\":10309:10328   */\n      add\n        /* \"#utility.yul\":10301:10328   */\n      swap1\n      pop\n        /* \"#utility.yul\":10338:10409   */\n      tag_204\n        /* \"#utility.yul\":10406:10407   */\n      0x00\n        /* \"#utility.yul\":10395:10404   */\n      dup4\n        /* \"#utility.yul\":10391:10408   */\n      add\n        /* \"#utility.yul\":10382:10388   */\n      dup9\n        /* \"#utility.yul\":10338:10409   */\n      tag_177\n      jump\t// in\n    tag_204:\n        /* \"#utility.yul\":10419:10491   */\n      tag_205\n        /* \"#utility.yul\":10487:10489   */\n      0x20\n        /* \"#utility.yul\":10476:10485   */\n      dup4\n        /* \"#utility.yul\":10472:10490   */\n      add\n        /* \"#utility.yul\":10463:10469   */\n      dup8\n        /* \"#utility.yul\":10419:10491   */\n      tag_177\n      jump\t// in\n    tag_205:\n        /* \"#utility.yul\":10501:10573   */\n      tag_206\n        /* \"#utility.yul\":10569:10571   */\n      0x40\n        /* \"#utility.yul\":10558:10567   */\n      dup4\n        /* \"#utility.yul\":10554:10572   */\n      add\n        /* \"#utility.yul\":10545:10551   */\n      dup7\n        /* \"#utility.yul\":10501:10573   */\n      tag_177\n      jump\t// in\n    tag_206:\n        /* \"#utility.yul\":10620:10629   */\n      dup2\n        /* \"#utility.yul\":10614:10618   */\n      dup2\n        /* \"#utility.yul\":10610:10630   */\n      sub\n        /* \"#utility.yul\":10605:10607   */\n      0x60\n        /* \"#utility.yul\":10594:10603   */\n      dup4\n        /* \"#utility.yul\":10590:10608   */\n      add\n        /* \"#utility.yul\":10583:10631   */\n      mstore\n        /* \"#utility.yul\":10648:10726   */\n      tag_207\n        /* \"#utility.yul\":10721:10725   */\n      dup2\n        /* \"#utility.yul\":10712:10718   */\n      dup6\n        /* \"#utility.yul\":10648:10726   */\n      tag_157\n      jump\t// in\n    tag_207:\n        /* \"#utility.yul\":10640:10726   */\n      swap1\n      pop\n        /* \"#utility.yul\":10774:10783   */\n      dup2\n        /* \"#utility.yul\":10768:10772   */\n      dup2\n        /* \"#utility.yul\":10764:10784   */\n      sub\n        /* \"#utility.yul\":10758:10761   */\n      0x80\n        /* \"#utility.yul\":10747:10756   */\n      dup4\n        /* \"#utility.yul\":10743:10762   */\n      add\n        /* \"#utility.yul\":10736:10785   */\n      mstore\n        /* \"#utility.yul\":10802:10880   */\n      tag_208\n        /* \"#utility.yul\":10875:10879   */\n      dup2\n        /* \"#utility.yul\":10866:10872   */\n      dup5\n        /* \"#utility.yul\":10802:10880   */\n      tag_157\n      jump\t// in\n    tag_208:\n        /* \"#utility.yul\":10794:10880   */\n      swap1\n      pop\n        /* \"#utility.yul\":10041:10887   */\n      swap7\n      swap6\n      pop\n      pop\n      pop\n      pop\n      pop\n      pop\n      jump\t// out\n        /* \"#utility.yul\":10893:11022   */\n    tag_94:\n        /* \"#utility.yul\":10927:10933   */\n      0x00\n        /* \"#utility.yul\":10954:10974   */\n      tag_210\n      tag_211\n      jump\t// in\n    tag_210:\n        /* \"#utility.yul\":10944:10974   */\n      swap1\n      pop\n        /* \"#utility.yul\":10983:11016   */\n      tag_212\n        /* \"#utility.yul\":11011:11015   */\n      dup3\n        /* \"#utility.yul\":11003:11009   */\n      dup3\n        /* \"#utility.yul\":10983:11016   */\n      tag_213\n      jump\t// in\n    tag_212:\n        /* \"#utility.yul\":10893:11022   */\n      swap2\n      swap1\n      pop\n      jump\t// out\n        /* \"#utility.yul\":11028:11103   */\n    tag_211:\n        /* \"#utility.yul\":11061:11067   */\n      0x00\n        /* \"#utility.yul\":11094:11096   */\n      0x40\n        /* \"#utility.yul\":11088:11097   */\n      mload\n        /* \"#utility.yul\":11078:11097   */\n      swap1\n      pop\n        /* \"#utility.yul\":11028:11103   */\n      swap1\n      jump\t// out\n        /* \"#utility.yul\":11109:11417   */\n    tag_93:\n        /* \"#utility.yul\":11171:11175   */\n      0x00\n        /* \"#utility.yul\":11261:11279   */\n      0xffffffffffffffff\n        /* \"#utility.yul\":11253:11259   */\n      dup3\n        /* \"#utility.yul\":11250:11280   */\n      gt\n        /* \"#utility.yul\":11247:11303   */\n      iszero\n      tag_216\n      jumpi\n        /* \"#utility.yul\":11283:11301   */\n      tag_217\n      tag_218\n      jump\t// in\n    tag_217:\n        /* \"#utility.yul\":11247:11303   */\n    tag_216:\n        /* \"#utility.yul\":11321:11350   */\n      tag_219\n        /* \"#utility.yul\":11343:11349   */\n      dup3\n        /* \"#utility.yul\":11321:11350   */\n      tag_166\n      jump\t// in\n    tag_219:\n        /* \"#utility.yul\":11313:11350   */\n      swap1\n      pop\n        /* \"#utility.yul\":11405:11409   */\n      0x20\n        /* \"#utility.yul\":11399:11403   */\n      dup2\n        /* \"#utility.yul\":11395:11410   */\n      add\n        /* \"#utility.yul\":11387:11410   */\n      swap1\n      pop\n        /* \"#utility.yul\":11109:11417   */\n      swap2\n      swap1\n      pop\n      jump\t// out\n        /* \"#utility.yul\":11423:11522   */\n    tag_160:\n        /* \"#utility.yul\":11475:11481   */\n      0x00\n        /* \"#utility.yul\":11509:11514   */\n      dup2\n        /* \"#utility.yul\":11503:11515   */\n      mload\n        /* \"#utility.yul\":11493:11515   */\n      swap1\n      pop\n        /* \"#utility.yul\":11423:11522   */\n      swap2\n      swap1\n      pop\n      jump\t// out\n        /* \"#utility.yul\":11528:11697   */\n    tag_162:\n        /* \"#utility.yul\":11612:11623   */\n      0x00\n        /* \"#utility.yul\":11646:11652   */\n      dup3\n        /* \"#utility.yul\":11641:11644   */\n      dup3\n        /* \"#utility.yul\":11634:11653   */\n      mstore\n        /* \"#utility.yul\":11686:11690   */\n      0x20\n        /* \"#utility.yul\":11681:11684   */\n      dup3\n        /* \"#utility.yul\":11677:11691   */\n      add\n        /* \"#utility.yul\":11662:11691   */\n      swap1\n      pop\n        /* \"#utility.yul\":11528:11697   */\n      swap3\n      swap2\n      pop\n      pop\n      jump\t// out\n        /* \"#utility.yul\":11703:12008   */\n    tag_40:\n        /* \"#utility.yul\":11743:11746   */\n      0x00\n        /* \"#utility.yul\":11762:11782   */\n      tag_223\n        /* \"#utility.yul\":11780:11781   */\n      dup3\n        /* \"#utility.yul\":11762:11782   */\n      tag_180\n      jump\t// in\n    tag_223:\n        /* \"#utility.yul\":11757:11782   */\n      swap2\n      pop\n        /* \"#utility.yul\":11796:11816   */\n      tag_224\n        /* \"#utility.yul\":11814:11815   */\n      dup4\n        /* \"#utility.yul\":11796:11816   */\n      tag_180\n      jump\t// in\n    tag_224:\n        /* \"#utility.yul\":11791:11816   */\n      swap3\n      pop\n        /* \"#utility.yul\":11950:11951   */\n      dup3\n        /* \"#utility.yul\":11882:11948   */\n      0xffffffffffffffffffffffffffffffffffffffffffffffffffffffffffffffff\n        /* \"#utility.yul\":11878:11952   */\n      sub\n        /* \"#utility.yul\":11875:11876   */\n      dup3\n        /* \"#utility.yul\":11872:11953   */\n      gt\n        /* \"#utility.yul\":11869:11976   */\n      iszero\n      tag_225\n      jumpi\n        /* \"#utility.yul\":11956:11974   */\n      tag_226\n      tag_227\n      jump\t// in\n    tag_226:\n        /* \"#utility.yul\":11869:11976   */\n    tag_225:\n        /* \"#utility.yul\":12000:12001   */\n      dup3\n        /* \"#utility.yul\":11997:11998   */\n      dup3\n        /* \"#utility.yul\":11993:12002   */\n      add\n        /* \"#utility.yul\":11986:12002   */\n      swap1\n      pop\n        /* \"#utility.yul\":11703:12008   */\n      swap3\n      swap2\n      pop\n      pop\n      jump\t// out\n        /* \"#utility.yul\":12014:12091   */\n    tag_180:\n        /* \"#utility.yul\":12051:12058   */\n      0x00\n        /* \"#utility.yul\":12080:12085   */\n      dup2\n        /* \"#utility.yul\":12069:12085   */\n      swap1\n      pop\n        /* \"#utility.yul\":12014:12091   */\n      swap2\n      swap1\n      pop\n      jump\t// out\n        /* \"#utility.yul\":12097:12251   */\n    tag_99:\n        /* \"#utility.yul\":12181:12187   */\n      dup3\n        /* \"#utility.yul\":12176:12179   */\n      dup2\n        /* \"#utility.yul\":12171:12174   */\n      dup4\n        /* \"#utility.yul\":12158:12188   */\n      calldatacopy\n        /* \"#utility.yul\":12243:12244   */\n      0x00\n        /* \"#utility.yul\":12234:12240   */\n      dup4\n        /* \"#utility.yul\":12229:12232   */\n      dup4\n        /* \"#utility.yul\":12225:12241   */\n      add\n        /* \"#utility.yul\":12218:12245   */\n      mstore\n        /* \"#utility.yul\":12097:12251   */\n      pop\n      pop\n      pop\n      jump\t// out\n        /* \"#utility.yul\":12257:12564   */\n    tag_164:\n        /* \"#utility.yul\":12325:12326   */\n      0x00\n        /* \"#utility.yul\":12335:12448   */\n    tag_231:\n        /* \"#utility.yul\":12349:12355   */\n      dup4\n        /* \"#utility.yul\":12346:12347   */\n      dup2\n        /* \"#utility.yul\":12343:12356   */\n      lt\n        /* \"#utility.yul\":12335:12448   */\n      iszero\n      tag_233\n      jumpi\n        /* \"#utility.yul\":12434:12435   */\n      dup1\n        /* \"#utility.yul\":12429:12432   */\n      dup3\n        /* \"#utility.yul\":12425:12436   */\n      add\n        /* \"#utility.yul\":12419:12437   */\n      mload\n        /* \"#utility.yul\":12415:12416   */\n      dup2\n        /* \"#utility.yul\":12410:12413   */\n      dup5\n        /* \"#utility.yul\":12406:12417   */\n      add\n        /* \"#utility.yul\":12399:12438   */\n      mstore\n        /* \"#utility.yul\":12371:12373   */\n      0x20\n        /* \"#utility.yul\":12368:12369   */\n      dup2\n        /* \"#utility.yul\":12364:12374   */\n      add\n        /* \"#utility.yul\":12359:12374   */\n      swap1\n      pop\n        /* \"#utility.yul\":12335:12448   */\n      jump(tag_231)\n    tag_233:\n        /* \"#utility.yul\":12466:12472   */\n      dup4\n        /* \"#utility.yul\":12463:12464   */\n      dup2\n        /* \"#utility.yul\":12460:12473   */\n      gt\n        /* \"#utility.yul\":12457:12558   */\n      iszero\n      tag_234\n      jumpi\n        /* \"#utility.yul\":12546:12547   */\n      0x00\n        /* \"#utility.yul\":12537:12543   */\n      dup5\n        /* \"#utility.yul\":12532:12535   */\n      dup5\n        /* \"#utility.yul\":12528:12544   */\n      add\n        /* \"#utility.yul\":12521:12548   */\n      mstore\n        /* \"#utility.yul\":12457:12558   */\n    tag_234:\n        /* \"#utility.yul\":12306:12564   */\n      pop\n        /* \"#utility.yul\":12257:12564   */\n      pop\n      pop\n      pop\n      jump\t// out\n        /* \"#utility.yul\":12570:12890   */\n    tag_78:\n        /* \"#utility.yul\":12614:12620   */\n      0x00\n        /* \"#utility.yul\":12651:12652   */\n      0x02\n        /* \"#utility.yul\":12645:12649   */\n      dup3\n        /* \"#utility.yul\":12641:12653   */\n      div\n        /* \"#utility.yul\":12631:12653   */\n      swap1\n      pop\n        /* \"#utility.yul\":12698:12699   */\n      0x01\n        /* \"#utility.yul\":12692:12696   */\n      dup3\n        /* \"#utility.yul\":12688:12700   */\n      and\n        /* \"#utility.yul\":12719:12737   */\n      dup1\n        /* \"#utility.yul\":12709:12790   */\n      tag_236\n      jumpi\n        /* \"#utility.yul\":12775:12779   */\n      0x7f\n        /* \"#utility.yul\":12767:12773   */\n      dup3\n        /* \"#utility.yul\":12763:12780   */\n      and\n        /* \"#utility.yul\":12753:12780   */\n      swap2\n      pop\n        /* \"#utility.yul\":12709:12790   */\n    tag_236:\n        /* \"#utility.yul\":12837:12839   */\n      0x20\n        /* \"#utility.yul\":12829:12835   */\n      dup3\n        /* \"#utility.yul\":12826:12840   */\n      lt\n        /* \"#utility.yul\":12806:12824   */\n      dup2\n        /* \"#utility.yul\":12803:12841   */\n      eq\n        /* \"#utility.yul\":12800:12884   */\n      iszero\n      tag_237\n      jumpi\n        /* \"#utility.yul\":12856:12874   */\n      tag_238\n      tag_239\n      jump\t// in\n    tag_238:\n        /* \"#utility.yul\":12800:12884   */\n    tag_237:\n        /* \"#utility.yul\":12621:12890   */\n      pop\n        /* \"#utility.yul\":12570:12890   */\n      swap2\n      swap1\n      pop\n      jump\t// out\n        /* \"#utility.yul\":12896:13177   */\n    tag_213:\n        /* \"#utility.yul\":12979:13006   */\n      tag_241\n        /* \"#utility.yul\":13001:13005   */\n      dup3\n        /* \"#utility.yul\":12979:13006   */\n      tag_166\n      jump\t// in\n    tag_241:\n        /* \"#utility.yul\":12971:12977   */\n      dup2\n        /* \"#utility.yul\":12967:13007   */\n      add\n        /* \"#utility.yul\":13109:13115   */\n      dup2\n        /* \"#utility.yul\":13097:13107   */\n      dup2\n        /* \"#utility.yul\":13094:13116   */\n      lt\n        /* \"#utility.yul\":13073:13091   */\n      0xffffffffffffffff\n        /* \"#utility.yul\":13061:13071   */\n      dup3\n        /* \"#utility.yul\":13058:13092   */\n      gt\n        /* \"#utility.yul\":13055:13117   */\n      or\n        /* \"#utility.yul\":13052:13140   */\n      iszero\n      tag_242\n      jumpi\n        /* \"#utility.yul\":13120:13138   */\n      tag_243\n      tag_218\n      jump\t// in\n    tag_243:\n        /* \"#utility.yul\":13052:13140   */\n    tag_242:\n        /* \"#utility.yul\":13160:13170   */\n      dup1\n        /* \"#utility.yul\":13156:13158   */\n      0x40\n        /* \"#utility.yul\":13149:13171   */\n      mstore\n        /* \"#utility.yul\":12939:13177   */\n      pop\n        /* \"#utility.yul\":12896:13177   */\n      pop\n      pop\n      jump\t// out\n        /* \"#utility.yul\":13183:13363   */\n    tag_227:\n        /* \"#utility.yul\":13231:13308   */\n      0x4e487b7100000000000000000000000000000000000000000000000000000000\n        /* \"#utility.yul\":13228:13229   */\n      0x00\n        /* \"#utility.yul\":13221:13309   */\n      mstore\n        /* \"#utility.yul\":13328:13332   */\n      0x11\n        /* \"#utility.yul\":13325:13326   */\n      0x04\n        /* \"#utility.yul\":13318:13333   */\n      mstore\n        /* \"#utility.yul\":13352:13356   */\n      0x24\n        /* \"#utility.yul\":13349:13350   */\n      0x00\n        /* \"#utility.yul\":13342:13357   */\n      revert\n        /* \"#utility.yul\":13369:13549   */\n    tag_43:\n        /* \"#utility.yul\":13417:13494   */\n      0x4e487b7100000000000000000000000000000000000000000000000000000000\n        /* \"#utility.yul\":13414:13415   */\n      0x00\n        /* \"#utility.yul\":13407:13495   */\n      mstore\n        /* \"#utility.yul\":13514:13518   */\n      0x21\n        /* \"#utility.yul\":13511:13512   */\n      0x04\n        /* \"#utility.yul\":13504:13519   */\n      mstore\n        /* \"#utility.yul\":13538:13542   */\n      0x24\n        /* \"#utility.yul\":13535:13536   */\n      0x00\n        /* \"#utility.yul\":13528:13543   */\n      revert\n        /* \"#utility.yul\":13555:13735   */\n    tag_239:\n        /* \"#utility.yul\":13603:13680   */\n      0x4e487b7100000000000000000000000000000000000000000000000000000000\n        /* \"#utility.yul\":13600:13601   */\n      0x00\n        /* \"#utility.yul\":13593:13681   */\n      mstore\n        /* \"#utility.yul\":13700:13704   */\n      0x22\n        /* \"#utility.yul\":13697:13698   */\n      0x04\n        /* \"#utility.yul\":13690:13705   */\n      mstore\n        /* \"#utility.yul\":13724:13728   */\n      0x24\n        /* \"#utility.yul\":13721:13722   */\n      0x00\n        /* \"#utility.yul\":13714:13729   */\n      revert\n        /* \"#utility.yul\":13741:13921   */\n    tag_67:\n        /* \"#utility.yul\":13789:13866   */\n      0x4e487b7100000000000000000000000000000000000000000000000000000000\n        /* \"#utility.yul\":13786:13787   */\n      0x00\n        /* \"#utility.yul\":13779:13867   */\n      mstore\n        /* \"#utility.yul\":13886:13890   */\n      0x32\n        /* \"#utility.yul\":13883:13884   */\n      0x04\n        /* \"#utility.yul\":13876:13891   */\n      mstore\n        /* \"#utility.yul\":13910:13914   */\n      0x24\n        /* \"#utility.yul\":13907:13908   */\n      0x00\n        /* \"#utility.yul\":13900:13915   */\n      revert\n        /* \"#utility.yul\":13927:14107   */\n    tag_218:\n        /* \"#utility.yul\":13975:14052   */\n      0x4e487b7100000000000000000000000000000000000000000000000000000000\n        /* \"#utility.yul\":13972:13973   */\n      0x00\n        /* \"#utility.yul\":13965:14053   */\n      mstore\n        /* \"#utility.yul\":14072:14076   */\n      0x41\n        /* \"#utility.yul\":14069:14070   */\n      0x04\n        /* \"#utility.yul\":14062:14077   */\n      mstore\n        /* \"#utility.yul\":14096:14100   */\n      0x24\n        /* \"#utility.yul\":14093:14094   */\n      0x00\n        /* \"#utility.yul\":14086:14101   */\n      revert\n        /* \"#utility.yul\":14113:14230   */\n    tag_104:\n        /* \"#utility.yul\":14222:14223   */\n      0x00\n        /* \"#utility.yul\":14219:14220   */\n      dup1\n        /* \"#utility.yul\":14212:14224   */\n      revert\n        /* \"#utility.yul\":14236:14353   */\n    tag_97:\n        /* \"#utility.yul\":14345:14346   */\n      0x00\n        /* \"#utility.yul\":14342:14343   */\n      dup1\n        /* \"#utility.yul\":14335:14347   */\n      revert\n        /* \"#utility.yul\":14359:14476   */\n    tag_117:\n        /* \"#utility.yul\":14468:14469   */\n      0x00\n        /* \"#utility.yul\":14465:14466   */\n      dup1\n        /* \"#utility.yul\":14458:14470   */\n      revert\n        /* \"#utility.yul\":14482:14599   */\n    tag_113:\n        /* \"#utility.yul\":14591:14592   */\n      0x00\n        /* \"#utility.yul\":14588:14589   */\n      dup1\n        /* \"#utility.yul\":14581:14593   */\n      revert\n        /* \"#utility.yul\":14605:14707   */\n    tag_166:\n        /* \"#utility.yul\":14646:14652   */\n      0x00\n        /* \"#utility.yul\":14697:14699   */\n      0x1f\n        /* \"#utility.yul\":14693:14700   */\n      not\n        /* \"#utility.yul\":14688:14690   */\n      0x1f\n        /* \"#utility.yul\":14681:14686   */\n      dup4\n        /* \"#utility.yul\":14677:14691   */\n      add\n        /* \"#utility.yul\":14673:14701   */\n      and\n        /* \"#utility.yul\":14663:14701   */\n      swap1\n      pop\n        /* \"#utility.yul\":14605:14707   */\n      swap2\n      swap1\n      pop\n      jump\t// out\n        /* \"#utility.yul\":14713:14933   */\n    tag_171:\n        /* \"#utility.yul\":14853:14887   */\n      0x412053657276696365205072696365206d757374206265207370656369666965\n        /* \"#utility.yul\":14849:14850   */\n      0x00\n        /* \"#utility.yul\":14841:14847   */\n      dup3\n        /* \"#utility.yul\":14837:14851   */\n      add\n        /* \"#utility.yul\":14830:14888   */\n      mstore\n        /* \"#utility.yul\":14922:14925   */\n      0x6400000000000000000000000000000000000000000000000000000000000000\n        /* \"#utility.yul\":14917:14919   */\n      0x20\n        /* \"#utility.yul\":14909:14915   */\n      dup3\n        /* \"#utility.yul\":14905:14920   */\n      add\n        /* \"#utility.yul\":14898:14926   */\n      mstore\n        /* \"#utility.yul\":14713:14933   */\n      pop\n      jump\t// out\n        /* \"#utility.yul\":14939:15110   */\n    tag_176:\n        /* \"#utility.yul\":15079:15102   */\n      0x4120737472696e67206973207265717569726564210000000000000000000000\n        /* \"#utility.yul\":15075:15076   */\n      0x00\n        /* \"#utility.yul\":15067:15073   */\n      dup3\n        /* \"#utility.yul\":15063:15077   */\n      add\n        /* \"#utility.yul\":15056:15103   */\n      mstore\n        /* \"#utility.yul\":14939:15110   */\n      pop\n      jump\t// out\n        /* \"#utility.yul\":15116:15238   */\n    tag_109:\n        /* \"#utility.yul\":15189:15213   */\n      tag_257\n        /* \"#utility.yul\":15207:15212   */\n      dup2\n        /* \"#utility.yul\":15189:15213   */\n      tag_180\n      jump\t// in\n    tag_257:\n        /* \"#utility.yul\":15182:15187   */\n      dup2\n        /* \"#utility.yul\":15179:15214   */\n      eq\n        /* \"#utility.yul\":15169:15232   */\n      tag_258\n      jumpi\n        /* \"#utility.yul\":15228:15229   */\n      0x00\n        /* \"#utility.yul\":15225:15226   */\n      dup1\n        /* \"#utility.yul\":15218:15230   */\n      revert\n        /* \"#utility.yul\":15169:15232   */\n    tag_258:\n        /* \"#utility.yul\":15116:15238   */\n      pop\n      jump\t// out\n\n    auxdata: 0xa26469706673582212205081b3ef9e005463d115ff2a2c0bfd3dfa250e48e4a7672b41dfc2db126603f564736f6c63430008070033\n}\n",
				"bytecode": {
					"linkReferences": {},
					"object": "60806040523480156200001157600080fd5b50604051620010fd380380620010fd833981810160405281019062000037919062000095565b806000806101000a81548173ffffffffffffffffffffffffffffffffffffffff021916908373ffffffffffffffffffffffffffffffffffffffff160217905550506200012e565b6000815190506200008f8162000114565b92915050565b600060208284031215620000ae57620000ad6200010f565b5b6000620000be848285016200007e565b91505092915050565b6000620000d482620000ef565b9050919050565b6000620000e882620000c7565b9050919050565b600073ffffffffffffffffffffffffffffffffffffffff82169050919050565b600080fd5b6200011f81620000db565b81146200012b57600080fd5b50565b610fbf806200013e6000396000f3fe608060405234801561001057600080fd5b50600436106100575760003560e01c80631257193c1461005c57806363ef8a5014610078578063b9b6c5d414610094578063eed1b007146100b0578063fd23c4bb146100cc575b600080fd5b610076600480360381019061007191906107ac565b6100e8565b005b610092600480360381019061008d919061088b565b610433565b005b6100ae60048036038101906100a9919061092a565b6104ca565b005b6100ca60048036038101906100c5919061084b565b61055e565b005b6100e660048036038101906100e1919061097d565b6105ea565b005b82600081511161012d576040517f08c379a000000000000000000000000000000000000000000000000000000000815260040161012490610ade565b60405180910390fd5b826000815111610172576040517f08c379a000000000000000000000000000000000000000000000000000000000815260040161016990610ade565b60405180910390fd5b600083116101b5576040517f08c379a00000000000000000000000000000000000000000000000000000000081526004016101ac90610abe565b60405180910390fd5b60006001806000898152602001908152602001600020805490506101d99190610ce5565b90506000604051806101400160405280898152602001838152602001888152602001878152602001868152602001600081526020013373ffffffffffffffffffffffffffffffffffffffff168152602001600073ffffffffffffffffffffffffffffffffffffffff1681526020016001151581526020016000600581111561026457610263610e19565b5b815250905060016000898152602001908152602001600020819080600181540180825580915050600190039060005260206000209060080201600090919091909150600082015181600001556020820151816001015560408201518160020190805190602001906102d6929190610684565b5060608201518160030190805190602001906102f3929190610684565b506080820151816004015560a0820151816005015560c08201518160060160006101000a81548173ffffffffffffffffffffffffffffffffffffffff021916908373ffffffffffffffffffffffffffffffffffffffff16021790555060e08201518160070160006101000a81548173ffffffffffffffffffffffffffffffffffffffff021916908373ffffffffffffffffffffffffffffffffffffffff1602179055506101008201518160070160146101000a81548160ff0219169083151502179055506101208201518160070160156101000a81548160ff021916908360058111156103e3576103e2610e19565b5b021790555050507ffc1042b93072e044685bbaab07a5d97d23616b816d62648c4e8e4e04b4ce47a68883898989604051610421959493929190610b7a565b60405180910390a15050505050505050565b60008054906101000a900473ffffffffffffffffffffffffffffffffffffffff1673ffffffffffffffffffffffffffffffffffffffff166363ef8a50858585856040518563ffffffff1660e01b81526004016104929493929190610b27565b600060405180830381600087803b1580156104ac57600080fd5b505af11580156104c0573d6000803e3d6000fd5b5050505050505050565b60008054906101000a900473ffffffffffffffffffffffffffffffffffffffff1673ffffffffffffffffffffffffffffffffffffffff1663b9b6c5d48484846040518463ffffffff1660e01b815260040161052793929190610bdb565b600060405180830381600087803b15801561054157600080fd5b505af1158015610555573d6000803e3d6000fd5b50505050505050565b600060016000848152602001908152602001600020828154811061058557610584610e77565b5b906000526020600020906008020160070160146101000a81548160ff0219169083151502179055507f04579b03ce378bfed31ee6443865880dab0b281efac453deb39233352189863f82826040516105de929190610afe565b60405180910390a15050565b60008054906101000a900473ffffffffffffffffffffffffffffffffffffffff1673ffffffffffffffffffffffffffffffffffffffff1663fd23c4bb86868686866040518663ffffffff1660e01b815260040161064b959493929190610c12565b600060405180830381600087803b15801561066557600080fd5b505af1158015610679573d6000803e3d6000fd5b505050505050505050565b82805461069090610d87565b90600052602060002090601f0160209004810192826106b257600085556106f9565b82601f106106cb57805160ff19168380011785556106f9565b828001600101855582156106f9579182015b828111156106f85782518255916020019190600101906106dd565b5b509050610706919061070a565b5090565b5b8082111561072357600081600090555060010161070b565b5090565b600061073a61073584610c98565b610c73565b90508281526020810184848401111561075657610755610eda565b5b610761848285610d45565b509392505050565b600082601f83011261077e5761077d610ed5565b5b813561078e848260208601610727565b91505092915050565b6000813590506107a681610f72565b92915050565b600080600080608085870312156107c6576107c5610ee4565b5b60006107d487828801610797565b945050602085013567ffffffffffffffff8111156107f5576107f4610edf565b5b61080187828801610769565b935050604085013567ffffffffffffffff81111561082257610821610edf565b5b61082e87828801610769565b925050606061083f87828801610797565b91505092959194509250565b6000806040838503121561086257610861610ee4565b5b600061087085828601610797565b925050602061088185828601610797565b9150509250929050565b600080600080608085870312156108a5576108a4610ee4565b5b60006108b387828801610797565b94505060206108c487828801610797565b935050604085013567ffffffffffffffff8111156108e5576108e4610edf565b5b6108f187828801610769565b925050606085013567ffffffffffffffff81111561091257610911610edf565b5b61091e87828801610769565b91505092959194509250565b60008060006060848603121561094357610942610ee4565b5b600061095186828701610797565b935050602061096286828701610797565b925050604061097386828701610797565b9150509250925092565b600080600080600060a0868803121561099957610998610ee4565b5b60006109a788828901610797565b95505060206109b888828901610797565b94505060406109c988828901610797565b935050606086013567ffffffffffffffff8111156109ea576109e9610edf565b5b6109f688828901610769565b925050608086013567ffffffffffffffff811115610a1757610a16610edf565b5b610a2388828901610769565b9150509295509295909350565b6000610a3b82610cc9565b610a458185610cd4565b9350610a55818560208601610d54565b610a5e81610ee9565b840191505092915050565b6000610a76602183610cd4565b9150610a8182610efa565b604082019050919050565b6000610a99601583610cd4565b9150610aa482610f49565b602082019050919050565b610ab881610d3b565b82525050565b60006020820190508181036000830152610ad781610a69565b9050919050565b60006020820190508181036000830152610af781610a8c565b9050919050565b6000604082019050610b136000830185610aaf565b610b206020830184610aaf565b9392505050565b6000608082019050610b3c6000830187610aaf565b610b496020830186610aaf565b8181036040830152610b5b8185610a30565b90508181036060830152610b6f8184610a30565b905095945050505050565b600060a082019050610b8f6000830188610aaf565b610b9c6020830187610aaf565b8181036040830152610bae8186610a30565b90508181036060830152610bc28185610a30565b9050610bd16080830184610aaf565b9695505050505050565b6000606082019050610bf06000830186610aaf565b610bfd6020830185610aaf565b610c0a6040830184610aaf565b949350505050565b600060a082019050610c276000830188610aaf565b610c346020830187610aaf565b610c416040830186610aaf565b8181036060830152610c538185610a30565b90508181036080830152610c678184610a30565b90509695505050505050565b6000610c7d610c8e565b9050610c898282610db9565b919050565b6000604051905090565b600067ffffffffffffffff821115610cb357610cb2610ea6565b5b610cbc82610ee9565b9050602081019050919050565b600081519050919050565b600082825260208201905092915050565b6000610cf082610d3b565b9150610cfb83610d3b565b9250827fffffffffffffffffffffffffffffffffffffffffffffffffffffffffffffffff03821115610d3057610d2f610dea565b5b828201905092915050565b6000819050919050565b82818337600083830152505050565b60005b83811015610d72578082015181840152602081019050610d57565b83811115610d81576000848401525b50505050565b60006002820490506001821680610d9f57607f821691505b60208210811415610db357610db2610e48565b5b50919050565b610dc282610ee9565b810181811067ffffffffffffffff82111715610de157610de0610ea6565b5b80604052505050565b7f4e487b7100000000000000000000000000000000000000000000000000000000600052601160045260246000fd5b7f4e487b7100000000000000000000000000000000000000000000000000000000600052602160045260246000fd5b7f4e487b7100000000000000000000000000000000000000000000000000000000600052602260045260246000fd5b7f4e487b7100000000000000000000000000000000000000000000000000000000600052603260045260246000fd5b7f4e487b7100000000000000000000000000000000000000000000000000000000600052604160045260246000fd5b600080fd5b600080fd5b600080fd5b600080fd5b6000601f19601f8301169050919050565b7f412053657276696365205072696365206d75737420626520737065636966696560008201527f6400000000000000000000000000000000000000000000000000000000000000602082015250565b7f4120737472696e67206973207265717569726564210000000000000000000000600082015250565b610f7b81610d3b565b8114610f8657600080fd5b5056fea26469706673582212205081b3ef9e005463d115ff2a2c0bfd3dfa250e48e4a7672b41dfc2db126603f564736f6c63430008070033",
					"opcodes": "PUSH1 0x80 PUSH1 0x40 MSTORE CALLVALUE DUP1 ISZERO PUSH3 0x11 JUMPI PUSH1 0x0 DUP1 REVERT JUMPDEST POP PUSH1 0x40 MLOAD PUSH3 0x10FD CODESIZE SUB DUP1 PUSH3 0x10FD DUP4 CODECOPY DUP2 DUP2 ADD PUSH1 0x40 MSTORE DUP2 ADD SWAP1 PUSH3 0x37 SWAP2 SWAP1 PUSH3 0x95 JUMP JUMPDEST DUP1 PUSH1 0x0 DUP1 PUSH2 0x100 EXP DUP2 SLOAD DUP2 PUSH20 0xFFFFFFFFFFFFFFFFFFFFFFFFFFFFFFFFFFFFFFFF MUL NOT AND SWAP1 DUP4 PUSH20 0xFFFFFFFFFFFFFFFFFFFFFFFFFFFFFFFFFFFFFFFF AND MUL OR SWAP1 SSTORE POP POP PUSH3 0x12E JUMP JUMPDEST PUSH1 0x0 DUP2 MLOAD SWAP1 POP PUSH3 0x8F DUP2 PUSH3 0x114 JUMP JUMPDEST SWAP3 SWAP2 POP POP JUMP JUMPDEST PUSH1 0x0 PUSH1 0x20 DUP3 DUP5 SUB SLT ISZERO PUSH3 0xAE JUMPI PUSH3 0xAD PUSH3 0x10F JUMP JUMPDEST JUMPDEST PUSH1 0x0 PUSH3 0xBE DUP5 DUP3 DUP6 ADD PUSH3 0x7E JUMP JUMPDEST SWAP2 POP POP SWAP3 SWAP2 POP POP JUMP JUMPDEST PUSH1 0x0 PUSH3 0xD4 DUP3 PUSH3 0xEF JUMP JUMPDEST SWAP1 POP SWAP2 SWAP1 POP JUMP JUMPDEST PUSH1 0x0 PUSH3 0xE8 DUP3 PUSH3 0xC7 JUMP JUMPDEST SWAP1 POP SWAP2 SWAP1 POP JUMP JUMPDEST PUSH1 0x0 PUSH20 0xFFFFFFFFFFFFFFFFFFFFFFFFFFFFFFFFFFFFFFFF DUP3 AND SWAP1 POP SWAP2 SWAP1 POP JUMP JUMPDEST PUSH1 0x0 DUP1 REVERT JUMPDEST PUSH3 0x11F DUP2 PUSH3 0xDB JUMP JUMPDEST DUP2 EQ PUSH3 0x12B JUMPI PUSH1 0x0 DUP1 REVERT JUMPDEST POP JUMP JUMPDEST PUSH2 0xFBF DUP1 PUSH3 0x13E PUSH1 0x0 CODECOPY PUSH1 0x0 RETURN INVALID PUSH1 0x80 PUSH1 0x40 MSTORE CALLVALUE DUP1 ISZERO PUSH2 0x10 JUMPI PUSH1 0x0 DUP1 REVERT JUMPDEST POP PUSH1 0x4 CALLDATASIZE LT PUSH2 0x57 JUMPI PUSH1 0x0 CALLDATALOAD PUSH1 0xE0 SHR DUP1 PUSH4 0x1257193C EQ PUSH2 0x5C JUMPI DUP1 PUSH4 0x63EF8A50 EQ PUSH2 0x78 JUMPI DUP1 PUSH4 0xB9B6C5D4 EQ PUSH2 0x94 JUMPI DUP1 PUSH4 0xEED1B007 EQ PUSH2 0xB0 JUMPI DUP1 PUSH4 0xFD23C4BB EQ PUSH2 0xCC JUMPI JUMPDEST PUSH1 0x0 DUP1 REVERT JUMPDEST PUSH2 0x76 PUSH1 0x4 DUP1 CALLDATASIZE SUB DUP2 ADD SWAP1 PUSH2 0x71 SWAP2 SWAP1 PUSH2 0x7AC JUMP JUMPDEST PUSH2 0xE8 JUMP JUMPDEST STOP JUMPDEST PUSH2 0x92 PUSH1 0x4 DUP1 CALLDATASIZE SUB DUP2 ADD SWAP1 PUSH2 0x8D SWAP2 SWAP1 PUSH2 0x88B JUMP JUMPDEST PUSH2 0x433 JUMP JUMPDEST STOP JUMPDEST PUSH2 0xAE PUSH1 0x4 DUP1 CALLDATASIZE SUB DUP2 ADD SWAP1 PUSH2 0xA9 SWAP2 SWAP1 PUSH2 0x92A JUMP JUMPDEST PUSH2 0x4CA JUMP JUMPDEST STOP JUMPDEST PUSH2 0xCA PUSH1 0x4 DUP1 CALLDATASIZE SUB DUP2 ADD SWAP1 PUSH2 0xC5 SWAP2 SWAP1 PUSH2 0x84B JUMP JUMPDEST PUSH2 0x55E JUMP JUMPDEST STOP JUMPDEST PUSH2 0xE6 PUSH1 0x4 DUP1 CALLDATASIZE SUB DUP2 ADD SWAP1 PUSH2 0xE1 SWAP2 SWAP1 PUSH2 0x97D JUMP JUMPDEST PUSH2 0x5EA JUMP JUMPDEST STOP JUMPDEST DUP3 PUSH1 0x0 DUP2 MLOAD GT PUSH2 0x12D JUMPI PUSH1 0x40 MLOAD PUSH32 0x8C379A000000000000000000000000000000000000000000000000000000000 DUP2 MSTORE PUSH1 0x4 ADD PUSH2 0x124 SWAP1 PUSH2 0xADE JUMP JUMPDEST PUSH1 0x40 MLOAD DUP1 SWAP2 SUB SWAP1 REVERT JUMPDEST DUP3 PUSH1 0x0 DUP2 MLOAD GT PUSH2 0x172 JUMPI PUSH1 0x40 MLOAD PUSH32 0x8C379A000000000000000000000000000000000000000000000000000000000 DUP2 MSTORE PUSH1 0x4 ADD PUSH2 0x169 SWAP1 PUSH2 0xADE JUMP JUMPDEST PUSH1 0x40 MLOAD DUP1 SWAP2 SUB SWAP1 REVERT JUMPDEST PUSH1 0x0 DUP4 GT PUSH2 0x1B5 JUMPI PUSH1 0x40 MLOAD PUSH32 0x8C379A000000000000000000000000000000000000000000000000000000000 DUP2 MSTORE PUSH1 0x4 ADD PUSH2 0x1AC SWAP1 PUSH2 0xABE JUMP JUMPDEST PUSH1 0x40 MLOAD DUP1 SWAP2 SUB SWAP1 REVERT JUMPDEST PUSH1 0x0 PUSH1 0x1 DUP1 PUSH1 0x0 DUP10 DUP2 MSTORE PUSH1 0x20 ADD SWAP1 DUP2 MSTORE PUSH1 0x20 ADD PUSH1 0x0 KECCAK256 DUP1 SLOAD SWAP1 POP PUSH2 0x1D9 SWAP2 SWAP1 PUSH2 0xCE5 JUMP JUMPDEST SWAP1 POP PUSH1 0x0 PUSH1 0x40 MLOAD DUP1 PUSH2 0x140 ADD PUSH1 0x40 MSTORE DUP1 DUP10 DUP2 MSTORE PUSH1 0x20 ADD DUP4 DUP2 MSTORE PUSH1 0x20 ADD DUP9 DUP2 MSTORE PUSH1 0x20 ADD DUP8 DUP2 MSTORE PUSH1 0x20 ADD DUP7 DUP2 MSTORE PUSH1 0x20 ADD PUSH1 0x0 DUP2 MSTORE PUSH1 0x20 ADD CALLER PUSH20 0xFFFFFFFFFFFFFFFFFFFFFFFFFFFFFFFFFFFFFFFF AND DUP2 MSTORE PUSH1 0x20 ADD PUSH1 0x0 PUSH20 0xFFFFFFFFFFFFFFFFFFFFFFFFFFFFFFFFFFFFFFFF AND DUP2 MSTORE PUSH1 0x20 ADD PUSH1 0x1 ISZERO ISZERO DUP2 MSTORE PUSH1 0x20 ADD PUSH1 0x0 PUSH1 0x5 DUP2 GT ISZERO PUSH2 0x264 JUMPI PUSH2 0x263 PUSH2 0xE19 JUMP JUMPDEST JUMPDEST DUP2 MSTORE POP SWAP1 POP PUSH1 0x1 PUSH1 0x0 DUP10 DUP2 MSTORE PUSH1 0x20 ADD SWAP1 DUP2 MSTORE PUSH1 0x20 ADD PUSH1 0x0 KECCAK256 DUP2 SWAP1 DUP1 PUSH1 0x1 DUP2 SLOAD ADD DUP1 DUP3 SSTORE DUP1 SWAP2 POP POP PUSH1 0x1 SWAP1 SUB SWAP1 PUSH1 0x0 MSTORE PUSH1 0x20 PUSH1 0x0 KECCAK256 SWAP1 PUSH1 0x8 MUL ADD PUSH1 0x0 SWAP1 SWAP2 SWAP1 SWAP2 SWAP1 SWAP2 POP PUSH1 0x0 DUP3 ADD MLOAD DUP2 PUSH1 0x0 ADD SSTORE PUSH1 0x20 DUP3 ADD MLOAD DUP2 PUSH1 0x1 ADD SSTORE PUSH1 0x40 DUP3 ADD MLOAD DUP2 PUSH1 0x2 ADD SWAP1 DUP1 MLOAD SWAP1 PUSH1 0x20 ADD SWAP1 PUSH2 0x2D6 SWAP3 SWAP2 SWAP1 PUSH2 0x684 JUMP JUMPDEST POP PUSH1 0x60 DUP3 ADD MLOAD DUP2 PUSH1 0x3 ADD SWAP1 DUP1 MLOAD SWAP1 PUSH1 0x20 ADD SWAP1 PUSH2 0x2F3 SWAP3 SWAP2 SWAP1 PUSH2 0x684 JUMP JUMPDEST POP PUSH1 0x80 DUP3 ADD MLOAD DUP2 PUSH1 0x4 ADD SSTORE PUSH1 0xA0 DUP3 ADD MLOAD DUP2 PUSH1 0x5 ADD SSTORE PUSH1 0xC0 DUP3 ADD MLOAD DUP2 PUSH1 0x6 ADD PUSH1 0x0 PUSH2 0x100 EXP DUP2 SLOAD DUP2 PUSH20 0xFFFFFFFFFFFFFFFFFFFFFFFFFFFFFFFFFFFFFFFF MUL NOT AND SWAP1 DUP4 PUSH20 0xFFFFFFFFFFFFFFFFFFFFFFFFFFFFFFFFFFFFFFFF AND MUL OR SWAP1 SSTORE POP PUSH1 0xE0 DUP3 ADD MLOAD DUP2 PUSH1 0x7 ADD PUSH1 0x0 PUSH2 0x100 EXP DUP2 SLOAD DUP2 PUSH20 0xFFFFFFFFFFFFFFFFFFFFFFFFFFFFFFFFFFFFFFFF MUL NOT AND SWAP1 DUP4 PUSH20 0xFFFFFFFFFFFFFFFFFFFFFFFFFFFFFFFFFFFFFFFF AND MUL OR SWAP1 SSTORE POP PUSH2 0x100 DUP3 ADD MLOAD DUP2 PUSH1 0x7 ADD PUSH1 0x14 PUSH2 0x100 EXP DUP2 SLOAD DUP2 PUSH1 0xFF MUL NOT AND SWAP1 DUP4 ISZERO ISZERO MUL OR SWAP1 SSTORE POP PUSH2 0x120 DUP3 ADD MLOAD DUP2 PUSH1 0x7 ADD PUSH1 0x15 PUSH2 0x100 EXP DUP2 SLOAD DUP2 PUSH1 0xFF MUL NOT AND SWAP1 DUP4 PUSH1 0x5 DUP2 GT ISZERO PUSH2 0x3E3 JUMPI PUSH2 0x3E2 PUSH2 0xE19 JUMP JUMPDEST JUMPDEST MUL OR SWAP1 SSTORE POP POP POP PUSH32 0xFC1042B93072E044685BBAAB07A5D97D23616B816D62648C4E8E4E04B4CE47A6 DUP9 DUP4 DUP10 DUP10 DUP10 PUSH1 0x40 MLOAD PUSH2 0x421 SWAP6 SWAP5 SWAP4 SWAP3 SWAP2 SWAP1 PUSH2 0xB7A JUMP JUMPDEST PUSH1 0x40 MLOAD DUP1 SWAP2 SUB SWAP1 LOG1 POP POP POP POP POP POP POP POP JUMP JUMPDEST PUSH1 0x0 DUP1 SLOAD SWAP1 PUSH2 0x100 EXP SWAP1 DIV PUSH20 0xFFFFFFFFFFFFFFFFFFFFFFFFFFFFFFFFFFFFFFFF AND PUSH20 0xFFFFFFFFFFFFFFFFFFFFFFFFFFFFFFFFFFFFFFFF AND PUSH4 0x63EF8A50 DUP6 DUP6 DUP6 DUP6 PUSH1 0x40 MLOAD DUP6 PUSH4 0xFFFFFFFF AND PUSH1 0xE0 SHL DUP2 MSTORE PUSH1 0x4 ADD PUSH2 0x492 SWAP5 SWAP4 SWAP3 SWAP2 SWAP1 PUSH2 0xB27 JUMP JUMPDEST PUSH1 0x0 PUSH1 0x40 MLOAD DUP1 DUP4 SUB DUP2 PUSH1 0x0 DUP8 DUP1 EXTCODESIZE ISZERO DUP1 ISZERO PUSH2 0x4AC JUMPI PUSH1 0x0 DUP1 REVERT JUMPDEST POP GAS CALL ISZERO DUP1 ISZERO PUSH2 0x4C0 JUMPI RETURNDATASIZE PUSH1 0x0 DUP1 RETURNDATACOPY RETURNDATASIZE PUSH1 0x0 REVERT JUMPDEST POP POP POP POP POP POP POP POP JUMP JUMPDEST PUSH1 0x0 DUP1 SLOAD SWAP1 PUSH2 0x100 EXP SWAP1 DIV PUSH20 0xFFFFFFFFFFFFFFFFFFFFFFFFFFFFFFFFFFFFFFFF AND PUSH20 0xFFFFFFFFFFFFFFFFFFFFFFFFFFFFFFFFFFFFFFFF AND PUSH4 0xB9B6C5D4 DUP5 DUP5 DUP5 PUSH1 0x40 MLOAD DUP5 PUSH4 0xFFFFFFFF AND PUSH1 0xE0 SHL DUP2 MSTORE PUSH1 0x4 ADD PUSH2 0x527 SWAP4 SWAP3 SWAP2 SWAP1 PUSH2 0xBDB JUMP JUMPDEST PUSH1 0x0 PUSH1 0x40 MLOAD DUP1 DUP4 SUB DUP2 PUSH1 0x0 DUP8 DUP1 EXTCODESIZE ISZERO DUP1 ISZERO PUSH2 0x541 JUMPI PUSH1 0x0 DUP1 REVERT JUMPDEST POP GAS CALL ISZERO DUP1 ISZERO PUSH2 0x555 JUMPI RETURNDATASIZE PUSH1 0x0 DUP1 RETURNDATACOPY RETURNDATASIZE PUSH1 0x0 REVERT JUMPDEST POP POP POP POP POP POP POP JUMP JUMPDEST PUSH1 0x0 PUSH1 0x1 PUSH1 0x0 DUP5 DUP2 MSTORE PUSH1 0x20 ADD SWAP1 DUP2 MSTORE PUSH1 0x20 ADD PUSH1 0x0 KECCAK256 DUP3 DUP2 SLOAD DUP2 LT PUSH2 0x585 JUMPI PUSH2 0x584 PUSH2 0xE77 JUMP JUMPDEST JUMPDEST SWAP1 PUSH1 0x0 MSTORE PUSH1 0x20 PUSH1 0x0 KECCAK256 SWAP1 PUSH1 0x8 MUL ADD PUSH1 0x7 ADD PUSH1 0x14 PUSH2 0x100 EXP DUP2 SLOAD DUP2 PUSH1 0xFF MUL NOT AND SWAP1 DUP4 ISZERO ISZERO MUL OR SWAP1 SSTORE POP PUSH32 0x4579B03CE378BFED31EE6443865880DAB0B281EFAC453DEB39233352189863F DUP3 DUP3 PUSH1 0x40 MLOAD PUSH2 0x5DE SWAP3 SWAP2 SWAP1 PUSH2 0xAFE JUMP JUMPDEST PUSH1 0x40 MLOAD DUP1 SWAP2 SUB SWAP1 LOG1 POP POP JUMP JUMPDEST PUSH1 0x0 DUP1 SLOAD SWAP1 PUSH2 0x100 EXP SWAP1 DIV PUSH20 0xFFFFFFFFFFFFFFFFFFFFFFFFFFFFFFFFFFFFFFFF AND PUSH20 0xFFFFFFFFFFFFFFFFFFFFFFFFFFFFFFFFFFFFFFFF AND PUSH4 0xFD23C4BB DUP7 DUP7 DUP7 DUP7 DUP7 PUSH1 0x40 MLOAD DUP7 PUSH4 0xFFFFFFFF AND PUSH1 0xE0 SHL DUP2 MSTORE PUSH1 0x4 ADD PUSH2 0x64B SWAP6 SWAP5 SWAP4 SWAP3 SWAP2 SWAP1 PUSH2 0xC12 JUMP JUMPDEST PUSH1 0x0 PUSH1 0x40 MLOAD DUP1 DUP4 SUB DUP2 PUSH1 0x0 DUP8 DUP1 EXTCODESIZE ISZERO DUP1 ISZERO PUSH2 0x665 JUMPI PUSH1 0x0 DUP1 REVERT JUMPDEST POP GAS CALL ISZERO DUP1 ISZERO PUSH2 0x679 JUMPI RETURNDATASIZE PUSH1 0x0 DUP1 RETURNDATACOPY RETURNDATASIZE PUSH1 0x0 REVERT JUMPDEST POP POP POP POP POP POP POP POP POP JUMP JUMPDEST DUP3 DUP1 SLOAD PUSH2 0x690 SWAP1 PUSH2 0xD87 JUMP JUMPDEST SWAP1 PUSH1 0x0 MSTORE PUSH1 0x20 PUSH1 0x0 KECCAK256 SWAP1 PUSH1 0x1F ADD PUSH1 0x20 SWAP1 DIV DUP2 ADD SWAP3 DUP3 PUSH2 0x6B2 JUMPI PUSH1 0x0 DUP6 SSTORE PUSH2 0x6F9 JUMP JUMPDEST DUP3 PUSH1 0x1F LT PUSH2 0x6CB JUMPI DUP1 MLOAD PUSH1 0xFF NOT AND DUP4 DUP1 ADD OR DUP6 SSTORE PUSH2 0x6F9 JUMP JUMPDEST DUP3 DUP1 ADD PUSH1 0x1 ADD DUP6 SSTORE DUP3 ISZERO PUSH2 0x6F9 JUMPI SWAP2 DUP3 ADD JUMPDEST DUP3 DUP2 GT ISZERO PUSH2 0x6F8 JUMPI DUP3 MLOAD DUP3 SSTORE SWAP2 PUSH1 0x20 ADD SWAP2 SWAP1 PUSH1 0x1 ADD SWAP1 PUSH2 0x6DD JUMP JUMPDEST JUMPDEST POP SWAP1 POP PUSH2 0x706 SWAP2 SWAP1 PUSH2 0x70A JUMP JUMPDEST POP SWAP1 JUMP JUMPDEST JUMPDEST DUP1 DUP3 GT ISZERO PUSH2 0x723 JUMPI PUSH1 0x0 DUP2 PUSH1 0x0 SWAP1 SSTORE POP PUSH1 0x1 ADD PUSH2 0x70B JUMP JUMPDEST POP SWAP1 JUMP JUMPDEST PUSH1 0x0 PUSH2 0x73A PUSH2 0x735 DUP5 PUSH2 0xC98 JUMP JUMPDEST PUSH2 0xC73 JUMP JUMPDEST SWAP1 POP DUP3 DUP2 MSTORE PUSH1 0x20 DUP2 ADD DUP5 DUP5 DUP5 ADD GT ISZERO PUSH2 0x756 JUMPI PUSH2 0x755 PUSH2 0xEDA JUMP JUMPDEST JUMPDEST PUSH2 0x761 DUP5 DUP3 DUP6 PUSH2 0xD45 JUMP JUMPDEST POP SWAP4 SWAP3 POP POP POP JUMP JUMPDEST PUSH1 0x0 DUP3 PUSH1 0x1F DUP4 ADD SLT PUSH2 0x77E JUMPI PUSH2 0x77D PUSH2 0xED5 JUMP JUMPDEST JUMPDEST DUP2 CALLDATALOAD PUSH2 0x78E DUP5 DUP3 PUSH1 0x20 DUP7 ADD PUSH2 0x727 JUMP JUMPDEST SWAP2 POP POP SWAP3 SWAP2 POP POP JUMP JUMPDEST PUSH1 0x0 DUP2 CALLDATALOAD SWAP1 POP PUSH2 0x7A6 DUP2 PUSH2 0xF72 JUMP JUMPDEST SWAP3 SWAP2 POP POP JUMP JUMPDEST PUSH1 0x0 DUP1 PUSH1 0x0 DUP1 PUSH1 0x80 DUP6 DUP8 SUB SLT ISZERO PUSH2 0x7C6 JUMPI PUSH2 0x7C5 PUSH2 0xEE4 JUMP JUMPDEST JUMPDEST PUSH1 0x0 PUSH2 0x7D4 DUP8 DUP3 DUP9 ADD PUSH2 0x797 JUMP JUMPDEST SWAP5 POP POP PUSH1 0x20 DUP6 ADD CALLDATALOAD PUSH8 0xFFFFFFFFFFFFFFFF DUP2 GT ISZERO PUSH2 0x7F5 JUMPI PUSH2 0x7F4 PUSH2 0xEDF JUMP JUMPDEST JUMPDEST PUSH2 0x801 DUP8 DUP3 DUP9 ADD PUSH2 0x769 JUMP JUMPDEST SWAP4 POP POP PUSH1 0x40 DUP6 ADD CALLDATALOAD PUSH8 0xFFFFFFFFFFFFFFFF DUP2 GT ISZERO PUSH2 0x822 JUMPI PUSH2 0x821 PUSH2 0xEDF JUMP JUMPDEST JUMPDEST PUSH2 0x82E DUP8 DUP3 DUP9 ADD PUSH2 0x769 JUMP JUMPDEST SWAP3 POP POP PUSH1 0x60 PUSH2 0x83F DUP8 DUP3 DUP9 ADD PUSH2 0x797 JUMP JUMPDEST SWAP2 POP POP SWAP3 SWAP6 SWAP2 SWAP5 POP SWAP3 POP JUMP JUMPDEST PUSH1 0x0 DUP1 PUSH1 0x40 DUP4 DUP6 SUB SLT ISZERO PUSH2 0x862 JUMPI PUSH2 0x861 PUSH2 0xEE4 JUMP JUMPDEST JUMPDEST PUSH1 0x0 PUSH2 0x870 DUP6 DUP3 DUP7 ADD PUSH2 0x797 JUMP JUMPDEST SWAP3 POP POP PUSH1 0x20 PUSH2 0x881 DUP6 DUP3 DUP7 ADD PUSH2 0x797 JUMP JUMPDEST SWAP2 POP POP SWAP3 POP SWAP3 SWAP1 POP JUMP JUMPDEST PUSH1 0x0 DUP1 PUSH1 0x0 DUP1 PUSH1 0x80 DUP6 DUP8 SUB SLT ISZERO PUSH2 0x8A5 JUMPI PUSH2 0x8A4 PUSH2 0xEE4 JUMP JUMPDEST JUMPDEST PUSH1 0x0 PUSH2 0x8B3 DUP8 DUP3 DUP9 ADD PUSH2 0x797 JUMP JUMPDEST SWAP5 POP POP PUSH1 0x20 PUSH2 0x8C4 DUP8 DUP3 DUP9 ADD PUSH2 0x797 JUMP JUMPDEST SWAP4 POP POP PUSH1 0x40 DUP6 ADD CALLDATALOAD PUSH8 0xFFFFFFFFFFFFFFFF DUP2 GT ISZERO PUSH2 0x8E5 JUMPI PUSH2 0x8E4 PUSH2 0xEDF JUMP JUMPDEST JUMPDEST PUSH2 0x8F1 DUP8 DUP3 DUP9 ADD PUSH2 0x769 JUMP JUMPDEST SWAP3 POP POP PUSH1 0x60 DUP6 ADD CALLDATALOAD PUSH8 0xFFFFFFFFFFFFFFFF DUP2 GT ISZERO PUSH2 0x912 JUMPI PUSH2 0x911 PUSH2 0xEDF JUMP JUMPDEST JUMPDEST PUSH2 0x91E DUP8 DUP3 DUP9 ADD PUSH2 0x769 JUMP JUMPDEST SWAP2 POP POP SWAP3 SWAP6 SWAP2 SWAP5 POP SWAP3 POP JUMP JUMPDEST PUSH1 0x0 DUP1 PUSH1 0x0 PUSH1 0x60 DUP5 DUP7 SUB SLT ISZERO PUSH2 0x943 JUMPI PUSH2 0x942 PUSH2 0xEE4 JUMP JUMPDEST JUMPDEST PUSH1 0x0 PUSH2 0x951 DUP7 DUP3 DUP8 ADD PUSH2 0x797 JUMP JUMPDEST SWAP4 POP POP PUSH1 0x20 PUSH2 0x962 DUP7 DUP3 DUP8 ADD PUSH2 0x797 JUMP JUMPDEST SWAP3 POP POP PUSH1 0x40 PUSH2 0x973 DUP7 DUP3 DUP8 ADD PUSH2 0x797 JUMP JUMPDEST SWAP2 POP POP SWAP3 POP SWAP3 POP SWAP3 JUMP JUMPDEST PUSH1 0x0 DUP1 PUSH1 0x0 DUP1 PUSH1 0x0 PUSH1 0xA0 DUP7 DUP9 SUB SLT ISZERO PUSH2 0x999 JUMPI PUSH2 0x998 PUSH2 0xEE4 JUMP JUMPDEST JUMPDEST PUSH1 0x0 PUSH2 0x9A7 DUP9 DUP3 DUP10 ADD PUSH2 0x797 JUMP JUMPDEST SWAP6 POP POP PUSH1 0x20 PUSH2 0x9B8 DUP9 DUP3 DUP10 ADD PUSH2 0x797 JUMP JUMPDEST SWAP5 POP POP PUSH1 0x40 PUSH2 0x9C9 DUP9 DUP3 DUP10 ADD PUSH2 0x797 JUMP JUMPDEST SWAP4 POP POP PUSH1 0x60 DUP7 ADD CALLDATALOAD PUSH8 0xFFFFFFFFFFFFFFFF DUP2 GT ISZERO PUSH2 0x9EA JUMPI PUSH2 0x9E9 PUSH2 0xEDF JUMP JUMPDEST JUMPDEST PUSH2 0x9F6 DUP9 DUP3 DUP10 ADD PUSH2 0x769 JUMP JUMPDEST SWAP3 POP POP PUSH1 0x80 DUP7 ADD CALLDATALOAD PUSH8 0xFFFFFFFFFFFFFFFF DUP2 GT ISZERO PUSH2 0xA17 JUMPI PUSH2 0xA16 PUSH2 0xEDF JUMP JUMPDEST JUMPDEST PUSH2 0xA23 DUP9 DUP3 DUP10 ADD PUSH2 0x769 JUMP JUMPDEST SWAP2 POP POP SWAP3 SWAP6 POP SWAP3 SWAP6 SWAP1 SWAP4 POP JUMP JUMPDEST PUSH1 0x0 PUSH2 0xA3B DUP3 PUSH2 0xCC9 JUMP JUMPDEST PUSH2 0xA45 DUP2 DUP6 PUSH2 0xCD4 JUMP JUMPDEST SWAP4 POP PUSH2 0xA55 DUP2 DUP6 PUSH1 0x20 DUP7 ADD PUSH2 0xD54 JUMP JUMPDEST PUSH2 0xA5E DUP2 PUSH2 0xEE9 JUMP JUMPDEST DUP5 ADD SWAP2 POP POP SWAP3 SWAP2 POP POP JUMP JUMPDEST PUSH1 0x0 PUSH2 0xA76 PUSH1 0x21 DUP4 PUSH2 0xCD4 JUMP JUMPDEST SWAP2 POP PUSH2 0xA81 DUP3 PUSH2 0xEFA JUMP JUMPDEST PUSH1 0x40 DUP3 ADD SWAP1 POP SWAP2 SWAP1 POP JUMP JUMPDEST PUSH1 0x0 PUSH2 0xA99 PUSH1 0x15 DUP4 PUSH2 0xCD4 JUMP JUMPDEST SWAP2 POP PUSH2 0xAA4 DUP3 PUSH2 0xF49 JUMP JUMPDEST PUSH1 0x20 DUP3 ADD SWAP1 POP SWAP2 SWAP1 POP JUMP JUMPDEST PUSH2 0xAB8 DUP2 PUSH2 0xD3B JUMP JUMPDEST DUP3 MSTORE POP POP JUMP JUMPDEST PUSH1 0x0 PUSH1 0x20 DUP3 ADD SWAP1 POP DUP2 DUP2 SUB PUSH1 0x0 DUP4 ADD MSTORE PUSH2 0xAD7 DUP2 PUSH2 0xA69 JUMP JUMPDEST SWAP1 POP SWAP2 SWAP1 POP JUMP JUMPDEST PUSH1 0x0 PUSH1 0x20 DUP3 ADD SWAP1 POP DUP2 DUP2 SUB PUSH1 0x0 DUP4 ADD MSTORE PUSH2 0xAF7 DUP2 PUSH2 0xA8C JUMP JUMPDEST SWAP1 POP SWAP2 SWAP1 POP JUMP JUMPDEST PUSH1 0x0 PUSH1 0x40 DUP3 ADD SWAP1 POP PUSH2 0xB13 PUSH1 0x0 DUP4 ADD DUP6 PUSH2 0xAAF JUMP JUMPDEST PUSH2 0xB20 PUSH1 0x20 DUP4 ADD DUP5 PUSH2 0xAAF JUMP JUMPDEST SWAP4 SWAP3 POP POP POP JUMP JUMPDEST PUSH1 0x0 PUSH1 0x80 DUP3 ADD SWAP1 POP PUSH2 0xB3C PUSH1 0x0 DUP4 ADD DUP8 PUSH2 0xAAF JUMP JUMPDEST PUSH2 0xB49 PUSH1 0x20 DUP4 ADD DUP7 PUSH2 0xAAF JUMP JUMPDEST DUP2 DUP2 SUB PUSH1 0x40 DUP4 ADD MSTORE PUSH2 0xB5B DUP2 DUP6 PUSH2 0xA30 JUMP JUMPDEST SWAP1 POP DUP2 DUP2 SUB PUSH1 0x60 DUP4 ADD MSTORE PUSH2 0xB6F DUP2 DUP5 PUSH2 0xA30 JUMP JUMPDEST SWAP1 POP SWAP6 SWAP5 POP POP POP POP POP JUMP JUMPDEST PUSH1 0x0 PUSH1 0xA0 DUP3 ADD SWAP1 POP PUSH2 0xB8F PUSH1 0x0 DUP4 ADD DUP9 PUSH2 0xAAF JUMP JUMPDEST PUSH2 0xB9C PUSH1 0x20 DUP4 ADD DUP8 PUSH2 0xAAF JUMP JUMPDEST DUP2 DUP2 SUB PUSH1 0x40 DUP4 ADD MSTORE PUSH2 0xBAE DUP2 DUP7 PUSH2 0xA30 JUMP JUMPDEST SWAP1 POP DUP2 DUP2 SUB PUSH1 0x60 DUP4 ADD MSTORE PUSH2 0xBC2 DUP2 DUP6 PUSH2 0xA30 JUMP JUMPDEST SWAP1 POP PUSH2 0xBD1 PUSH1 0x80 DUP4 ADD DUP5 PUSH2 0xAAF JUMP JUMPDEST SWAP7 SWAP6 POP POP POP POP POP POP JUMP JUMPDEST PUSH1 0x0 PUSH1 0x60 DUP3 ADD SWAP1 POP PUSH2 0xBF0 PUSH1 0x0 DUP4 ADD DUP7 PUSH2 0xAAF JUMP JUMPDEST PUSH2 0xBFD PUSH1 0x20 DUP4 ADD DUP6 PUSH2 0xAAF JUMP JUMPDEST PUSH2 0xC0A PUSH1 0x40 DUP4 ADD DUP5 PUSH2 0xAAF JUMP JUMPDEST SWAP5 SWAP4 POP POP POP POP JUMP JUMPDEST PUSH1 0x0 PUSH1 0xA0 DUP3 ADD SWAP1 POP PUSH2 0xC27 PUSH1 0x0 DUP4 ADD DUP9 PUSH2 0xAAF JUMP JUMPDEST PUSH2 0xC34 PUSH1 0x20 DUP4 ADD DUP8 PUSH2 0xAAF JUMP JUMPDEST PUSH2 0xC41 PUSH1 0x40 DUP4 ADD DUP7 PUSH2 0xAAF JUMP JUMPDEST DUP2 DUP2 SUB PUSH1 0x60 DUP4 ADD MSTORE PUSH2 0xC53 DUP2 DUP6 PUSH2 0xA30 JUMP JUMPDEST SWAP1 POP DUP2 DUP2 SUB PUSH1 0x80 DUP4 ADD MSTORE PUSH2 0xC67 DUP2 DUP5 PUSH2 0xA30 JUMP JUMPDEST SWAP1 POP SWAP7 SWAP6 POP POP POP POP POP POP JUMP JUMPDEST PUSH1 0x0 PUSH2 0xC7D PUSH2 0xC8E JUMP JUMPDEST SWAP1 POP PUSH2 0xC89 DUP3 DUP3 PUSH2 0xDB9 JUMP JUMPDEST SWAP2 SWAP1 POP JUMP JUMPDEST PUSH1 0x0 PUSH1 0x40 MLOAD SWAP1 POP SWAP1 JUMP JUMPDEST PUSH1 0x0 PUSH8 0xFFFFFFFFFFFFFFFF DUP3 GT ISZERO PUSH2 0xCB3 JUMPI PUSH2 0xCB2 PUSH2 0xEA6 JUMP JUMPDEST JUMPDEST PUSH2 0xCBC DUP3 PUSH2 0xEE9 JUMP JUMPDEST SWAP1 POP PUSH1 0x20 DUP2 ADD SWAP1 POP SWAP2 SWAP1 POP JUMP JUMPDEST PUSH1 0x0 DUP2 MLOAD SWAP1 POP SWAP2 SWAP1 POP JUMP JUMPDEST PUSH1 0x0 DUP3 DUP3 MSTORE PUSH1 0x20 DUP3 ADD SWAP1 POP SWAP3 SWAP2 POP POP JUMP JUMPDEST PUSH1 0x0 PUSH2 0xCF0 DUP3 PUSH2 0xD3B JUMP JUMPDEST SWAP2 POP PUSH2 0xCFB DUP4 PUSH2 0xD3B JUMP JUMPDEST SWAP3 POP DUP3 PUSH32 0xFFFFFFFFFFFFFFFFFFFFFFFFFFFFFFFFFFFFFFFFFFFFFFFFFFFFFFFFFFFFFFFF SUB DUP3 GT ISZERO PUSH2 0xD30 JUMPI PUSH2 0xD2F PUSH2 0xDEA JUMP JUMPDEST JUMPDEST DUP3 DUP3 ADD SWAP1 POP SWAP3 SWAP2 POP POP JUMP JUMPDEST PUSH1 0x0 DUP2 SWAP1 POP SWAP2 SWAP1 POP JUMP JUMPDEST DUP3 DUP2 DUP4 CALLDATACOPY PUSH1 0x0 DUP4 DUP4 ADD MSTORE POP POP POP JUMP JUMPDEST PUSH1 0x0 JUMPDEST DUP4 DUP2 LT ISZERO PUSH2 0xD72 JUMPI DUP1 DUP3 ADD MLOAD DUP2 DUP5 ADD MSTORE PUSH1 0x20 DUP2 ADD SWAP1 POP PUSH2 0xD57 JUMP JUMPDEST DUP4 DUP2 GT ISZERO PUSH2 0xD81 JUMPI PUSH1 0x0 DUP5 DUP5 ADD MSTORE JUMPDEST POP POP POP POP JUMP JUMPDEST PUSH1 0x0 PUSH1 0x2 DUP3 DIV SWAP1 POP PUSH1 0x1 DUP3 AND DUP1 PUSH2 0xD9F JUMPI PUSH1 0x7F DUP3 AND SWAP2 POP JUMPDEST PUSH1 0x20 DUP3 LT DUP2 EQ ISZERO PUSH2 0xDB3 JUMPI PUSH2 0xDB2 PUSH2 0xE48 JUMP JUMPDEST JUMPDEST POP SWAP2 SWAP1 POP JUMP JUMPDEST PUSH2 0xDC2 DUP3 PUSH2 0xEE9 JUMP JUMPDEST DUP2 ADD DUP2 DUP2 LT PUSH8 0xFFFFFFFFFFFFFFFF DUP3 GT OR ISZERO PUSH2 0xDE1 JUMPI PUSH2 0xDE0 PUSH2 0xEA6 JUMP JUMPDEST JUMPDEST DUP1 PUSH1 0x40 MSTORE POP POP POP JUMP JUMPDEST PUSH32 0x4E487B7100000000000000000000000000000000000000000000000000000000 PUSH1 0x0 MSTORE PUSH1 0x11 PUSH1 0x4 MSTORE PUSH1 0x24 PUSH1 0x0 REVERT JUMPDEST PUSH32 0x4E487B7100000000000000000000000000000000000000000000000000000000 PUSH1 0x0 MSTORE PUSH1 0x21 PUSH1 0x4 MSTORE PUSH1 0x24 PUSH1 0x0 REVERT JUMPDEST PUSH32 0x4E487B7100000000000000000000000000000000000000000000000000000000 PUSH1 0x0 MSTORE PUSH1 0x22 PUSH1 0x4 MSTORE PUSH1 0x24 PUSH1 0x0 REVERT JUMPDEST PUSH32 0x4E487B7100000000000000000000000000000000000000000000000000000000 PUSH1 0x0 MSTORE PUSH1 0x32 PUSH1 0x4 MSTORE PUSH1 0x24 PUSH1 0x0 REVERT JUMPDEST PUSH32 0x4E487B7100000000000000000000000000000000000000000000000000000000 PUSH1 0x0 MSTORE PUSH1 0x41 PUSH1 0x4 MSTORE PUSH1 0x24 PUSH1 0x0 REVERT JUMPDEST PUSH1 0x0 DUP1 REVERT JUMPDEST PUSH1 0x0 DUP1 REVERT JUMPDEST PUSH1 0x0 DUP1 REVERT JUMPDEST PUSH1 0x0 DUP1 REVERT JUMPDEST PUSH1 0x0 PUSH1 0x1F NOT PUSH1 0x1F DUP4 ADD AND SWAP1 POP SWAP2 SWAP1 POP JUMP JUMPDEST PUSH32 0x412053657276696365205072696365206D757374206265207370656369666965 PUSH1 0x0 DUP3 ADD MSTORE PUSH32 0x6400000000000000000000000000000000000000000000000000000000000000 PUSH1 0x20 DUP3 ADD MSTORE POP JUMP JUMPDEST PUSH32 0x4120737472696E67206973207265717569726564210000000000000000000000 PUSH1 0x0 DUP3 ADD MSTORE POP JUMP JUMPDEST PUSH2 0xF7B DUP2 PUSH2 0xD3B JUMP JUMPDEST DUP2 EQ PUSH2 0xF86 JUMPI PUSH1 0x0 DUP1 REVERT JUMPDEST POP JUMP INVALID LOG2 PUSH5 0x6970667358 0x22 SLT KECCAK256 POP DUP2 0xB3 0xEF SWAP15 STOP SLOAD PUSH4 0xD115FF2A 0x2C SIGNEXTEND REVERT RETURNDATASIZE STATICCALL 0x25 0xE BASEFEE 0xE4 0xA7 PUSH8 0x2B41DFC2DB126603 CREATE2 PUSH5 0x736F6C6343 STOP ADDMOD SMOD STOP CALLER "
				},
				"gasEstimates": {
					"creation": {
						"codeDepositCost": "806200",
						"executionCost": "infinite",
						"totalCost": "infinite"
					},
					"external": {
						"createMilestone(uint256,uint256,string,string)": "infinite",
						"deleteMilestone(uint256,uint256,uint256)": "infinite",
						"deleteRequestService(uint256,uint256)": "infinite",
						"requestService(uint256,string,string,uint256)": "infinite",
						"updateMilestone(uint256,uint256,uint256,string,string)": "infinite"
					}
				},
				"methodIdentifiers": {
					"createMilestone(uint256,uint256,string,string)": "63ef8a50",
					"deleteMilestone(uint256,uint256,uint256)": "b9b6c5d4",
					"deleteRequestService(uint256,uint256)": "eed1b007",
					"requestService(uint256,string,string,uint256)": "1257193c",
					"updateMilestone(uint256,uint256,uint256,string,string)": "fd23c4bb"
				}
			},
			"userdoc": {
				"kind": "user",
				"methods": {},
				"version": 1
			}
		}
	}
}