{
	"contracts/Service.sol": {
		"Service": {
			"abi": [
				{
					"inputs": [
						{
							"internalType": "contract Milestone",
							"name": "milestoneContract",
							"type": "address"
						}
					],
					"stateMutability": "nonpayable",
					"type": "constructor"
				},
				{
					"anonymous": false,
					"inputs": [
						{
							"indexed": false,
							"internalType": "uint256",
							"name": "projectNumber",
							"type": "uint256"
						},
						{
							"indexed": false,
							"internalType": "uint256",
							"name": "serviceNumber",
							"type": "uint256"
						},
						{
							"indexed": false,
							"internalType": "string",
							"name": "title",
							"type": "string"
						},
						{
							"indexed": false,
							"internalType": "string",
							"name": "description",
							"type": "string"
						},
						{
							"indexed": false,
							"internalType": "uint256",
							"name": "price",
							"type": "uint256"
						}
					],
					"name": "serviceCreated",
					"type": "event"
				},
				{
					"anonymous": false,
					"inputs": [
						{
							"indexed": false,
							"internalType": "uint256",
							"name": "projectNumber",
							"type": "uint256"
						},
						{
							"indexed": false,
							"internalType": "uint256",
							"name": "serviceNumber",
							"type": "uint256"
						}
					],
					"name": "serviceDeleted",
					"type": "event"
				},
				{
					"anonymous": false,
					"inputs": [
						{
							"indexed": false,
							"internalType": "uint256",
							"name": "projectNumber",
							"type": "uint256"
						},
						{
							"indexed": false,
							"internalType": "uint256",
							"name": "serviceNumber",
							"type": "uint256"
						},
						{
							"indexed": false,
							"internalType": "string",
							"name": "title",
							"type": "string"
						},
						{
							"indexed": false,
							"internalType": "string",
							"name": "description",
							"type": "string"
						},
						{
							"indexed": false,
							"internalType": "uint256",
							"name": "price",
							"type": "uint256"
						}
					],
					"name": "serviceUpdated",
					"type": "event"
				},
				{
					"inputs": [
						{
							"internalType": "uint256",
							"name": "projectNumber",
							"type": "uint256"
						},
						{
							"internalType": "uint256",
							"name": "serviceNumber",
							"type": "uint256"
						},
						{
							"internalType": "string",
							"name": "titleMilestone",
							"type": "string"
						},
						{
							"internalType": "string",
							"name": "descriptionMilestone",
							"type": "string"
						}
					],
					"name": "createMilestone",
					"outputs": [],
					"stateMutability": "nonpayable",
					"type": "function"
				},
				{
					"inputs": [
						{
							"internalType": "uint256",
							"name": "projectNumber",
							"type": "uint256"
						},
						{
							"internalType": "string",
							"name": "title",
							"type": "string"
						},
						{
							"internalType": "string",
							"name": "description",
							"type": "string"
						},
						{
							"internalType": "uint256",
							"name": "price",
							"type": "uint256"
						},
						{
							"internalType": "address payable",
							"name": "projectOwner",
							"type": "address"
						}
					],
					"name": "createService",
					"outputs": [],
					"stateMutability": "nonpayable",
					"type": "function"
				},
				{
					"inputs": [
						{
							"internalType": "uint256",
							"name": "projectNumber",
							"type": "uint256"
						},
						{
							"internalType": "uint256",
							"name": "serviceNumber",
							"type": "uint256"
						},
						{
							"internalType": "uint256",
							"name": "milestoneNumber",
							"type": "uint256"
						}
					],
					"name": "deleteMilestone",
					"outputs": [],
					"stateMutability": "nonpayable",
					"type": "function"
				},
				{
					"inputs": [
						{
							"internalType": "uint256",
							"name": "projectNumber",
							"type": "uint256"
						},
						{
							"internalType": "uint256",
							"name": "serviceNumber",
							"type": "uint256"
						}
					],
					"name": "deleteService",
					"outputs": [],
					"stateMutability": "nonpayable",
					"type": "function"
				},
				{
					"inputs": [
						{
							"internalType": "uint256",
							"name": "projectNumber",
							"type": "uint256"
						},
						{
							"internalType": "uint256",
							"name": "serviceNumber",
							"type": "uint256"
						}
					],
					"name": "getTitle",
					"outputs": [
						{
							"internalType": "string",
							"name": "title",
							"type": "string"
						}
					],
					"stateMutability": "view",
					"type": "function"
				},
				{
					"inputs": [
						{
							"internalType": "uint256",
							"name": "projectNumber",
							"type": "uint256"
						},
						{
							"internalType": "uint256",
							"name": "serviceNumber",
							"type": "uint256"
						},
						{
							"internalType": "uint256",
							"name": "milestoneNumber",
							"type": "uint256"
						}
					],
					"name": "readMilestone",
					"outputs": [
						{
							"internalType": "string",
							"name": "",
							"type": "string"
						},
						{
							"internalType": "string",
							"name": "",
							"type": "string"
						}
					],
					"stateMutability": "view",
					"type": "function"
				},
				{
					"inputs": [
						{
							"internalType": "uint256",
							"name": "projectNumber",
							"type": "uint256"
						},
						{
							"internalType": "uint256",
							"name": "serviceNumber",
							"type": "uint256"
						}
					],
					"name": "readService",
					"outputs": [
						{
							"internalType": "string",
							"name": "",
							"type": "string"
						},
						{
							"internalType": "string",
							"name": "",
							"type": "string"
						},
						{
							"internalType": "uint256",
							"name": "",
							"type": "uint256"
						},
						{
							"internalType": "uint256",
							"name": "",
							"type": "uint256"
						}
					],
					"stateMutability": "view",
					"type": "function"
				},
				{
					"inputs": [],
					"name": "serviceNum",
					"outputs": [
						{
							"internalType": "uint256",
							"name": "",
							"type": "uint256"
						}
					],
					"stateMutability": "view",
					"type": "function"
				},
				{
					"inputs": [],
					"name": "serviceTotal",
					"outputs": [
						{
							"internalType": "uint256",
							"name": "",
							"type": "uint256"
						}
					],
					"stateMutability": "view",
					"type": "function"
				},
				{
					"inputs": [
						{
							"internalType": "uint256",
							"name": "projectNumber",
							"type": "uint256"
						},
						{
							"internalType": "uint256",
							"name": "serviceNumber",
							"type": "uint256"
						},
						{
							"internalType": "uint256",
							"name": "milestoneNumber",
							"type": "uint256"
						},
						{
							"internalType": "string",
							"name": "titleMilestone",
							"type": "string"
						},
						{
							"internalType": "string",
							"name": "descriptionMilestone",
							"type": "string"
						}
					],
					"name": "updateMilestone",
					"outputs": [],
					"stateMutability": "nonpayable",
					"type": "function"
				},
				{
					"inputs": [
						{
							"internalType": "uint256",
							"name": "projectNumber",
							"type": "uint256"
						},
						{
							"internalType": "uint256",
							"name": "serviceNumber",
							"type": "uint256"
						},
						{
							"internalType": "string",
							"name": "title",
							"type": "string"
						},
						{
							"internalType": "string",
							"name": "description",
							"type": "string"
						},
						{
							"internalType": "uint256",
							"name": "price",
							"type": "uint256"
						}
					],
					"name": "updateService",
					"outputs": [],
					"stateMutability": "nonpayable",
					"type": "function"
				}
			],
			"devdoc": {
				"kind": "dev",
				"methods": {},
				"version": 1
			},
			"evm": {
				"assembly": "    /* \"contracts/Service.sol\":348:6036  contract Service {... */\n  mstore(0x40, 0x80)\n    /* \"contracts/Service.sol\":1433:1434  0 */\n  0x00\n    /* \"contracts/Service.sol\":1403:1434  uint256 public serviceTotal = 0 */\n  0x01\n  sstore\n    /* \"contracts/Service.sol\":1532:1533  0 */\n  0x00\n    /* \"contracts/Service.sol\":1504:1533  uint256 public serviceNum = 0 */\n  0x02\n  sstore\n    /* \"contracts/Service.sol\":398:493  constructor (Milestone milestoneContract) public {... */\n  callvalue\n  dup1\n  iszero\n  tag_1\n  jumpi\n  0x00\n  dup1\n  revert\ntag_1:\n  pop\n  mload(0x40)\n  sub(codesize, bytecodeSize)\n  dup1\n  bytecodeSize\n  dup4\n  codecopy\n  dup2\n  dup2\n  add\n  0x40\n  mstore\n  dup2\n  add\n  swap1\n  tag_2\n  swap2\n  swap1\n  tag_3\n  jump\t// in\ntag_2:\n    /* \"contracts/Service.sol\":469:486  milestoneContract */\n  dup1\n    /* \"contracts/Service.sol\":457:466  milestone */\n  0x00\n  dup1\n    /* \"contracts/Service.sol\":457:486  milestone = milestoneContract */\n  0x0100\n  exp\n  dup2\n  sload\n  dup2\n  0xffffffffffffffffffffffffffffffffffffffff\n  mul\n  not\n  and\n  swap1\n  dup4\n  0xffffffffffffffffffffffffffffffffffffffff\n  and\n  mul\n  or\n  swap1\n  sstore\n  pop\n    /* \"contracts/Service.sol\":398:493  constructor (Milestone milestoneContract) public {... */\n  pop\n    /* \"contracts/Service.sol\":348:6036  contract Service {... */\n  jump(tag_6)\n    /* \"#utility.yul\":7:186   */\ntag_8:\n    /* \"#utility.yul\":82:87   */\n  0x00\n    /* \"#utility.yul\":113:119   */\n  dup2\n    /* \"#utility.yul\":107:120   */\n  mload\n    /* \"#utility.yul\":98:120   */\n  swap1\n  pop\n    /* \"#utility.yul\":129:180   */\n  tag_10\n    /* \"#utility.yul\":174:179   */\n  dup2\n    /* \"#utility.yul\":129:180   */\n  tag_11\n  jump\t// in\ntag_10:\n    /* \"#utility.yul\":7:186   */\n  swap3\n  swap2\n  pop\n  pop\n  jump\t// out\n    /* \"#utility.yul\":192:579   */\ntag_3:\n    /* \"#utility.yul\":280:286   */\n  0x00\n    /* \"#utility.yul\":329:331   */\n  0x20\n    /* \"#utility.yul\":317:326   */\n  dup3\n    /* \"#utility.yul\":308:315   */\n  dup5\n    /* \"#utility.yul\":304:327   */\n  sub\n    /* \"#utility.yul\":300:332   */\n  slt\n    /* \"#utility.yul\":297:416   */\n  iszero\n  tag_13\n  jumpi\n    /* \"#utility.yul\":335:414   */\n  tag_14\n  tag_15\n  jump\t// in\ntag_14:\n    /* \"#utility.yul\":297:416   */\ntag_13:\n    /* \"#utility.yul\":455:456   */\n  0x00\n    /* \"#utility.yul\":480:562   */\n  tag_16\n    /* \"#utility.yul\":554:561   */\n  dup5\n    /* \"#utility.yul\":545:551   */\n  dup3\n    /* \"#utility.yul\":534:543   */\n  dup6\n    /* \"#utility.yul\":530:552   */\n  add\n    /* \"#utility.yul\":480:562   */\n  tag_8\n  jump\t// in\ntag_16:\n    /* \"#utility.yul\":470:562   */\n  swap2\n  pop\n    /* \"#utility.yul\":426:572   */\n  pop\n    /* \"#utility.yul\":192:579   */\n  swap3\n  swap2\n  pop\n  pop\n  jump\t// out\n    /* \"#utility.yul\":666:762   */\ntag_19:\n    /* \"#utility.yul\":703:710   */\n  0x00\n    /* \"#utility.yul\":732:756   */\n  tag_21\n    /* \"#utility.yul\":750:755   */\n  dup3\n    /* \"#utility.yul\":732:756   */\n  tag_22\n  jump\t// in\ntag_21:\n    /* \"#utility.yul\":721:756   */\n  swap1\n  pop\n    /* \"#utility.yul\":666:762   */\n  swap2\n  swap1\n  pop\n  jump\t// out\n    /* \"#utility.yul\":768:882   */\ntag_23:\n    /* \"#utility.yul\":823:830   */\n  0x00\n    /* \"#utility.yul\":852:876   */\n  tag_25\n    /* \"#utility.yul\":870:875   */\n  dup3\n    /* \"#utility.yul\":852:876   */\n  tag_19\n  jump\t// in\ntag_25:\n    /* \"#utility.yul\":841:876   */\n  swap1\n  pop\n    /* \"#utility.yul\":768:882   */\n  swap2\n  swap1\n  pop\n  jump\t// out\n    /* \"#utility.yul\":888:1014   */\ntag_22:\n    /* \"#utility.yul\":925:932   */\n  0x00\n    /* \"#utility.yul\":965:1007   */\n  0xffffffffffffffffffffffffffffffffffffffff\n    /* \"#utility.yul\":958:963   */\n  dup3\n    /* \"#utility.yul\":954:1008   */\n  and\n    /* \"#utility.yul\":943:1008   */\n  swap1\n  pop\n    /* \"#utility.yul\":888:1014   */\n  swap2\n  swap1\n  pop\n  jump\t// out\n    /* \"#utility.yul\":1143:1260   */\ntag_15:\n    /* \"#utility.yul\":1252:1253   */\n  0x00\n    /* \"#utility.yul\":1249:1250   */\n  dup1\n    /* \"#utility.yul\":1242:1254   */\n  revert\n    /* \"#utility.yul\":1266:1424   */\ntag_11:\n    /* \"#utility.yul\":1357:1399   */\n  tag_31\n    /* \"#utility.yul\":1393:1398   */\n  dup2\n    /* \"#utility.yul\":1357:1399   */\n  tag_23\n  jump\t// in\ntag_31:\n    /* \"#utility.yul\":1350:1355   */\n  dup2\n    /* \"#utility.yul\":1347:1400   */\n  eq\n    /* \"#utility.yul\":1337:1418   */\n  tag_32\n  jumpi\n    /* \"#utility.yul\":1414:1415   */\n  0x00\n    /* \"#utility.yul\":1411:1412   */\n  dup1\n    /* \"#utility.yul\":1404:1416   */\n  revert\n    /* \"#utility.yul\":1337:1418   */\ntag_32:\n    /* \"#utility.yul\":1266:1424   */\n  pop\n  jump\t// out\n    /* \"contracts/Service.sol\":348:6036  contract Service {... */\ntag_6:\n  dataSize(sub_0)\n  dup1\n  dataOffset(sub_0)\n  0x00\n  codecopy\n  0x00\n  return\nstop\n\nsub_0: assembly {\n        /* \"contracts/Service.sol\":348:6036  contract Service {... */\n      mstore(0x40, 0x80)\n      callvalue\n      dup1\n      iszero\n      tag_1\n      jumpi\n      0x00\n      dup1\n      revert\n    tag_1:\n      pop\n      jumpi(tag_2, lt(calldatasize, 0x04))\n      shr(0xe0, calldataload(0x00))\n      dup1\n      0x53c49c64\n      gt\n      tag_14\n      jumpi\n      dup1\n      0x53c49c64\n      eq\n      tag_8\n      jumpi\n      dup1\n      0x63ef8a50\n      eq\n      tag_9\n      jumpi\n      dup1\n      0xac10dfe3\n      eq\n      tag_10\n      jumpi\n      dup1\n      0xb257b1a0\n      eq\n      tag_11\n      jumpi\n      dup1\n      0xb9b6c5d4\n      eq\n      tag_12\n      jumpi\n      dup1\n      0xfd23c4bb\n      eq\n      tag_13\n      jumpi\n      jump(tag_2)\n    tag_14:\n      dup1\n      0x256da4e3\n      eq\n      tag_3\n      jumpi\n      dup1\n      0x30f73051\n      eq\n      tag_4\n      jumpi\n      dup1\n      0x352d28fd\n      eq\n      tag_5\n      jumpi\n      dup1\n      0x49428a62\n      eq\n      tag_6\n      jumpi\n      dup1\n      0x4994772c\n      eq\n      tag_7\n      jumpi\n    tag_2:\n      0x00\n      dup1\n      revert\n        /* \"contracts/Service.sol\":2465:3390  function createService(uint256 projectNumber, string memory title, string memory description, uint256 price, address payable projectOwner) public requiredString(title) requiredString(description) {        ... */\n    tag_3:\n      tag_15\n      0x04\n      dup1\n      calldatasize\n      sub\n      dup2\n      add\n      swap1\n      tag_16\n      swap2\n      swap1\n      tag_17\n      jump\t// in\n    tag_16:\n      tag_18\n      jump\t// in\n    tag_15:\n      stop\n        /* \"contracts/Service.sol\":1403:1434  uint256 public serviceTotal = 0 */\n    tag_4:\n      tag_19\n      tag_20\n      jump\t// in\n    tag_19:\n      mload(0x40)\n      tag_21\n      swap2\n      swap1\n      tag_22\n      jump\t// in\n    tag_21:\n      mload(0x40)\n      dup1\n      swap2\n      sub\n      swap1\n      return\n        /* \"contracts/Service.sol\":1504:1533  uint256 public serviceNum = 0 */\n    tag_5:\n      tag_23\n      tag_24\n      jump\t// in\n    tag_23:\n      mload(0x40)\n      tag_25\n      swap2\n      swap1\n      tag_22\n      jump\t// in\n    tag_25:\n      mload(0x40)\n      dup1\n      swap2\n      sub\n      swap1\n      return\n        /* \"contracts/Service.sol\":5213:5445  function readMilestone(uint256 projectNumber, uint256 serviceNumber, uint256 milestoneNumber) public view returns (string memory , string memory ) {... */\n    tag_6:\n      tag_26\n      0x04\n      dup1\n      calldatasize\n      sub\n      dup2\n      add\n      swap1\n      tag_27\n      swap2\n      swap1\n      tag_28\n      jump\t// in\n    tag_27:\n      tag_29\n      jump\t// in\n    tag_26:\n      mload(0x40)\n      tag_30\n      swap3\n      swap2\n      swap1\n      tag_31\n      jump\t// in\n    tag_30:\n      mload(0x40)\n      dup1\n      swap2\n      sub\n      swap1\n      return\n        /* \"contracts/Service.sol\":3646:4097  function readService(uint256 projectNumber, uint256 serviceNumber) public view returns (string memory , string memory , uint256 , uint256 ) {... */\n    tag_7:\n      tag_32\n      0x04\n      dup1\n      calldatasize\n      sub\n      dup2\n      add\n      swap1\n      tag_33\n      swap2\n      swap1\n      tag_34\n      jump\t// in\n    tag_33:\n      tag_35\n      jump\t// in\n    tag_32:\n      mload(0x40)\n      tag_36\n      swap5\n      swap4\n      swap3\n      swap2\n      swap1\n      tag_37\n      jump\t// in\n    tag_36:\n      mload(0x40)\n      dup1\n      swap2\n      sub\n      swap1\n      return\n        /* \"contracts/Service.sol\":4632:4867  function deleteService(uint256 projectNumber, uint256 serviceNumber) public {... */\n    tag_8:\n      tag_38\n      0x04\n      dup1\n      calldatasize\n      sub\n      dup2\n      add\n      swap1\n      tag_39\n      swap2\n      swap1\n      tag_34\n      jump\t// in\n    tag_39:\n      tag_40\n      jump\t// in\n    tag_38:\n      stop\n        /* \"contracts/Service.sol\":4914:5165  function createMilestone(uint256 projectNumber, uint256 serviceNumber, string memory titleMilestone, string memory descriptionMilestone) public {... */\n    tag_9:\n      tag_41\n      0x04\n      dup1\n      calldatasize\n      sub\n      dup2\n      add\n      swap1\n      tag_42\n      swap2\n      swap1\n      tag_43\n      jump\t// in\n    tag_42:\n      tag_44\n      jump\t// in\n    tag_41:\n      stop\n        /* \"contracts/Service.sol\":4143:4587  function updateService(uint256 projectNumber, uint256 serviceNumber, string memory title, string memory description, uint256 price) public {... */\n    tag_10:\n      tag_45\n      0x04\n      dup1\n      calldatasize\n      sub\n      dup2\n      add\n      swap1\n      tag_46\n      swap2\n      swap1\n      tag_47\n      jump\t// in\n    tag_46:\n      tag_48\n      jump\t// in\n    tag_45:\n      stop\n        /* \"contracts/Service.sol\":3396:3601  function getTitle(uint256 projectNumber, uint256 serviceNumber) public view returns (string memory title) {... */\n    tag_11:\n      tag_49\n      0x04\n      dup1\n      calldatasize\n      sub\n      dup2\n      add\n      swap1\n      tag_50\n      swap2\n      swap1\n      tag_34\n      jump\t// in\n    tag_50:\n      tag_51\n      jump\t// in\n    tag_49:\n      mload(0x40)\n      tag_52\n      swap2\n      swap1\n      tag_53\n      jump\t// in\n    tag_52:\n      mload(0x40)\n      dup1\n      swap2\n      sub\n      swap1\n      return\n        /* \"contracts/Service.sol\":5835:6033  function deleteMilestone(uint256 projectNumber, uint256 serviceNumber, uint256 milestoneNumber) public {        ... */\n    tag_12:\n      tag_54\n      0x04\n      dup1\n      calldatasize\n      sub\n      dup2\n      add\n      swap1\n      tag_55\n      swap2\n      swap1\n      tag_28\n      jump\t// in\n    tag_55:\n      tag_56\n      jump\t// in\n    tag_54:\n      stop\n        /* \"contracts/Service.sol\":5496:5788  function updateMilestone(uint256 projectNumber, uint256 serviceNumber, uint256 milestoneNumber, string memory titleMilestone, string memory descriptionMilestone) public {... */\n    tag_13:\n      tag_57\n      0x04\n      dup1\n      calldatasize\n      sub\n      dup2\n      add\n      swap1\n      tag_58\n      swap2\n      swap1\n      tag_59\n      jump\t// in\n    tag_58:\n      tag_60\n      jump\t// in\n    tag_57:\n      stop\n        /* \"contracts/Service.sol\":2465:3390  function createService(uint256 projectNumber, string memory title, string memory description, uint256 price, address payable projectOwner) public requiredString(title) requiredString(description) {        ... */\n    tag_18:\n        /* \"contracts/Service.sol\":2626:2631  title */\n      dup4\n        /* \"contracts/Service.sol\":1832:1833  0 */\n      0x00\n        /* \"contracts/Service.sol\":1818:1821  str */\n      dup2\n        /* \"contracts/Service.sol\":1812:1829  bytes(str).length */\n      mload\n        /* \"contracts/Service.sol\":1812:1833  bytes(str).length > 0 */\n      gt\n        /* \"contracts/Service.sol\":1804:1859  require(bytes(str).length > 0, \"A string is required!\") */\n      tag_62\n      jumpi\n      mload(0x40)\n      0x08c379a000000000000000000000000000000000000000000000000000000000\n      dup2\n      mstore\n      0x04\n      add\n      tag_63\n      swap1\n      tag_64\n      jump\t// in\n    tag_63:\n      mload(0x40)\n      dup1\n      swap2\n      sub\n      swap1\n      revert\n    tag_62:\n        /* \"contracts/Service.sol\":2648:2659  description */\n      dup4\n        /* \"contracts/Service.sol\":1832:1833  0 */\n      0x00\n        /* \"contracts/Service.sol\":1818:1821  str */\n      dup2\n        /* \"contracts/Service.sol\":1812:1829  bytes(str).length */\n      mload\n        /* \"contracts/Service.sol\":1812:1833  bytes(str).length > 0 */\n      gt\n        /* \"contracts/Service.sol\":1804:1859  require(bytes(str).length > 0, \"A string is required!\") */\n      tag_66\n      jumpi\n      mload(0x40)\n      0x08c379a000000000000000000000000000000000000000000000000000000000\n      dup2\n      mstore\n      0x04\n      add\n      tag_67\n      swap1\n      tag_64\n      jump\t// in\n    tag_67:\n      mload(0x40)\n      dup1\n      swap2\n      sub\n      swap1\n      revert\n    tag_66:\n        /* \"contracts/Service.sol\":2695:2696  0 */\n      0x00\n        /* \"contracts/Service.sol\":2687:2692  price */\n      dup5\n        /* \"contracts/Service.sol\":2687:2696  price > 0 */\n      gt\n        /* \"contracts/Service.sol\":2679:2734  require(price > 0, \"A Service Price must be specified\") */\n      tag_69\n      jumpi\n      mload(0x40)\n      0x08c379a000000000000000000000000000000000000000000000000000000000\n      dup2\n      mstore\n      0x04\n      add\n      tag_70\n      swap1\n      tag_71\n      jump\t// in\n    tag_70:\n      mload(0x40)\n      dup1\n      swap2\n      sub\n      swap1\n      revert\n    tag_69:\n        /* \"contracts/Service.sol\":2745:2771  service storage newService */\n      0x00\n        /* \"contracts/Service.sol\":2774:2789  projectServices */\n      0x03\n        /* \"contracts/Service.sol\":2774:2804  projectServices[projectNumber] */\n      0x00\n        /* \"contracts/Service.sol\":2790:2803  projectNumber */\n      dup10\n        /* \"contracts/Service.sol\":2774:2804  projectServices[projectNumber] */\n      dup2\n      mstore\n      0x20\n      add\n      swap1\n      dup2\n      mstore\n      0x20\n      add\n      0x00\n      keccak256\n        /* \"contracts/Service.sol\":2774:2816  projectServices[projectNumber][serviceNum] */\n      0x00\n        /* \"contracts/Service.sol\":2805:2815  serviceNum */\n      sload(0x02)\n        /* \"contracts/Service.sol\":2774:2816  projectServices[projectNumber][serviceNum] */\n      dup2\n      mstore\n      0x20\n      add\n      swap1\n      dup2\n      mstore\n      0x20\n      add\n      0x00\n      keccak256\n        /* \"contracts/Service.sol\":2745:2816  service storage newService = projectServices[projectNumber][serviceNum] */\n      swap1\n      pop\n        /* \"contracts/Service.sol\":2853:2866  projectNumber */\n      dup8\n        /* \"contracts/Service.sol\":2826:2836  newService */\n      dup2\n        /* \"contracts/Service.sol\":2826:2850  newService.projectNumber */\n      0x00\n      add\n        /* \"contracts/Service.sol\":2826:2866  newService.projectNumber = projectNumber */\n      dup2\n      swap1\n      sstore\n      pop\n        /* \"contracts/Service.sol\":2903:2913  serviceNum */\n      sload(0x02)\n        /* \"contracts/Service.sol\":2876:2886  newService */\n      dup2\n        /* \"contracts/Service.sol\":2876:2900  newService.serviceNumber */\n      0x01\n      add\n        /* \"contracts/Service.sol\":2876:2913  newService.serviceNumber = serviceNum */\n      dup2\n      swap1\n      sstore\n      pop\n        /* \"contracts/Service.sol\":2942:2947  title */\n      dup7\n        /* \"contracts/Service.sol\":2923:2933  newService */\n      dup2\n        /* \"contracts/Service.sol\":2923:2939  newService.title */\n      0x02\n      add\n        /* \"contracts/Service.sol\":2923:2947  newService.title = title */\n      swap1\n      dup1\n      mload\n      swap1\n      0x20\n      add\n      swap1\n      tag_72\n      swap3\n      swap2\n      swap1\n      tag_73\n      jump\t// in\n    tag_72:\n      pop\n        /* \"contracts/Service.sol\":2982:2993  description */\n      dup6\n        /* \"contracts/Service.sol\":2957:2967  newService */\n      dup2\n        /* \"contracts/Service.sol\":2957:2979  newService.description */\n      0x03\n      add\n        /* \"contracts/Service.sol\":2957:2993  newService.description = description */\n      swap1\n      dup1\n      mload\n      swap1\n      0x20\n      add\n      swap1\n      tag_74\n      swap3\n      swap2\n      swap1\n      tag_73\n      jump\t// in\n    tag_74:\n      pop\n        /* \"contracts/Service.sol\":3022:3027  price */\n      dup5\n        /* \"contracts/Service.sol\":3003:3013  newService */\n      dup2\n        /* \"contracts/Service.sol\":3003:3019  newService.price */\n      0x04\n      add\n        /* \"contracts/Service.sol\":3003:3027  newService.price = price */\n      dup2\n      swap1\n      sstore\n      pop\n        /* \"contracts/Service.sol\":3067:3068  0 */\n      0x00\n        /* \"contracts/Service.sol\":3037:3047  newService */\n      dup2\n        /* \"contracts/Service.sol\":3037:3064  newService.currentMilestone */\n      0x05\n      add\n        /* \"contracts/Service.sol\":3037:3068  newService.currentMilestone = 0 */\n      dup2\n      swap1\n      sstore\n      pop\n        /* \"contracts/Service.sol\":3108:3120  projectOwner */\n      dup4\n        /* \"contracts/Service.sol\":3078:3088  newService */\n      dup2\n        /* \"contracts/Service.sol\":3078:3105  newService.serviceRequester */\n      0x06\n      add\n      0x00\n        /* \"contracts/Service.sol\":3078:3120  newService.serviceRequester = projectOwner */\n      0x0100\n      exp\n      dup2\n      sload\n      dup2\n      0xffffffffffffffffffffffffffffffffffffffff\n      mul\n      not\n      and\n      swap1\n      dup4\n      0xffffffffffffffffffffffffffffffffffffffff\n      and\n      mul\n      or\n      swap1\n      sstore\n      pop\n        /* \"contracts/Service.sol\":3175:3176  0 */\n      0x00\n        /* \"contracts/Service.sol\":3130:3140  newService */\n      dup2\n        /* \"contracts/Service.sol\":3130:3156  newService.serviceProvider */\n      0x07\n      add\n      0x00\n        /* \"contracts/Service.sol\":3130:3178  newService.serviceProvider = payable(address(0)) */\n      0x0100\n      exp\n      dup2\n      sload\n      dup2\n      0xffffffffffffffffffffffffffffffffffffffff\n      mul\n      not\n      and\n      swap1\n      dup4\n      0xffffffffffffffffffffffffffffffffffffffff\n      and\n      mul\n      or\n      swap1\n      sstore\n      pop\n        /* \"contracts/Service.sol\":3207:3211  true */\n      0x01\n        /* \"contracts/Service.sol\":3188:3198  newService */\n      dup2\n        /* \"contracts/Service.sol\":3188:3204  newService.exist */\n      0x07\n      add\n      0x14\n        /* \"contracts/Service.sol\":3188:3211  newService.exist = true */\n      0x0100\n      exp\n      dup2\n      sload\n      dup2\n      0xff\n      mul\n      not\n      and\n      swap1\n      dup4\n      iszero\n      iszero\n      mul\n      or\n      swap1\n      sstore\n      pop\n        /* \"contracts/Service.sol\":3241:3252  Status.none */\n      0x00\n        /* \"contracts/Service.sol\":3221:3231  newService */\n      dup2\n        /* \"contracts/Service.sol\":3221:3238  newService.status */\n      0x07\n      add\n      0x15\n        /* \"contracts/Service.sol\":3221:3252  newService.status = Status.none */\n      0x0100\n      exp\n      dup2\n      sload\n      dup2\n      0xff\n      mul\n      not\n      and\n      swap1\n      dup4\n      0x05\n      dup2\n      gt\n      iszero\n      tag_75\n      jumpi\n      tag_76\n      tag_77\n      jump\t// in\n    tag_76:\n    tag_75:\n      mul\n      or\n      swap1\n      sstore\n      pop\n        /* \"contracts/Service.sol\":3268:3336  serviceCreated(projectNumber, serviceNum, title, description, price) */\n      0xe8bc23dadb6cac9147246af11cc9afe29b7f5f524a2e539da4486da2196a78f1\n        /* \"contracts/Service.sol\":3283:3296  projectNumber */\n      dup9\n        /* \"contracts/Service.sol\":3298:3308  serviceNum */\n      sload(0x02)\n        /* \"contracts/Service.sol\":3310:3315  title */\n      dup10\n        /* \"contracts/Service.sol\":3317:3328  description */\n      dup10\n        /* \"contracts/Service.sol\":3330:3335  price */\n      dup10\n        /* \"contracts/Service.sol\":3268:3336  serviceCreated(projectNumber, serviceNum, title, description, price) */\n      mload(0x40)\n      tag_78\n      swap6\n      swap5\n      swap4\n      swap3\n      swap2\n      swap1\n      tag_79\n      jump\t// in\n    tag_78:\n      mload(0x40)\n      dup1\n      swap2\n      sub\n      swap1\n      log1\n        /* \"contracts/Service.sol\":3347:3359  serviceTotal */\n      0x01\n      0x00\n        /* \"contracts/Service.sol\":3347:3361  serviceTotal++ */\n      dup2\n      sload\n      dup1\n      swap3\n      swap2\n      swap1\n      tag_80\n      swap1\n      tag_81\n      jump\t// in\n    tag_80:\n      swap2\n      swap1\n      pop\n      sstore\n      pop\n        /* \"contracts/Service.sol\":3371:3381  serviceNum */\n      0x02\n      0x00\n        /* \"contracts/Service.sol\":3371:3383  serviceNum++ */\n      dup2\n      sload\n      dup1\n      swap3\n      swap2\n      swap1\n      tag_82\n      swap1\n      tag_81\n      jump\t// in\n    tag_82:\n      swap2\n      swap1\n      pop\n      sstore\n      pop\n        /* \"contracts/Service.sol\":2661:3390  {        ... */\n      pop\n        /* \"contracts/Service.sol\":1869:1870  _ */\n      pop\n        /* \"contracts/Service.sol\":2465:3390  function createService(uint256 projectNumber, string memory title, string memory description, uint256 price, address payable projectOwner) public requiredString(title) requiredString(description) {        ... */\n      pop\n      pop\n      pop\n      pop\n      pop\n      pop\n      jump\t// out\n        /* \"contracts/Service.sol\":1403:1434  uint256 public serviceTotal = 0 */\n    tag_20:\n      sload(0x01)\n      dup2\n      jump\t// out\n        /* \"contracts/Service.sol\":1504:1533  uint256 public serviceNum = 0 */\n    tag_24:\n      sload(0x02)\n      dup2\n      jump\t// out\n        /* \"contracts/Service.sol\":5213:5445  function readMilestone(uint256 projectNumber, uint256 serviceNumber, uint256 milestoneNumber) public view returns (string memory , string memory ) {... */\n    tag_29:\n        /* \"contracts/Service.sol\":5328:5341  string memory */\n      0x60\n        /* \"contracts/Service.sol\":5344:5357  string memory */\n      dup1\n        /* \"contracts/Service.sol\":5370:5379  milestone */\n      0x00\n      dup1\n      sload\n      swap1\n      0x0100\n      exp\n      swap1\n      div\n      0xffffffffffffffffffffffffffffffffffffffff\n      and\n        /* \"contracts/Service.sol\":5370:5393  milestone.readMilestone */\n      0xffffffffffffffffffffffffffffffffffffffff\n      and\n      0x49428a62\n        /* \"contracts/Service.sol\":5394:5407  projectNumber */\n      dup7\n        /* \"contracts/Service.sol\":5408:5421  serviceNumber */\n      dup7\n        /* \"contracts/Service.sol\":5422:5437  milestoneNumber */\n      dup7\n        /* \"contracts/Service.sol\":5370:5438  milestone.readMilestone(projectNumber,serviceNumber,milestoneNumber) */\n      mload(0x40)\n      dup5\n      0xffffffff\n      and\n      0xe0\n      shl\n      dup2\n      mstore\n      0x04\n      add\n      tag_84\n      swap4\n      swap3\n      swap2\n      swap1\n      tag_85\n      jump\t// in\n    tag_84:\n      0x00\n      mload(0x40)\n      dup1\n      dup4\n      sub\n      dup2\n      dup7\n      dup1\n      extcodesize\n      iszero\n      dup1\n      iszero\n      tag_86\n      jumpi\n      0x00\n      dup1\n      revert\n    tag_86:\n      pop\n      gas\n      staticcall\n      iszero\n      dup1\n      iszero\n      tag_88\n      jumpi\n      returndatasize\n      0x00\n      dup1\n      returndatacopy\n      revert(0x00, returndatasize)\n    tag_88:\n      pop\n      pop\n      pop\n      pop\n      mload(0x40)\n      returndatasize\n      0x00\n      dup3\n      returndatacopy\n      returndatasize\n      not(0x1f)\n      0x1f\n      dup3\n      add\n      and\n      dup3\n      add\n      dup1\n      0x40\n      mstore\n      pop\n      dup2\n      add\n      swap1\n      tag_89\n      swap2\n      swap1\n      tag_90\n      jump\t// in\n    tag_89:\n      pop\n      pop\n        /* \"contracts/Service.sol\":5213:5445  function readMilestone(uint256 projectNumber, uint256 serviceNumber, uint256 milestoneNumber) public view returns (string memory , string memory ) {... */\n      swap4\n      pop\n      swap4\n      swap2\n      pop\n      pop\n      jump\t// out\n        /* \"contracts/Service.sol\":3646:4097  function readService(uint256 projectNumber, uint256 serviceNumber) public view returns (string memory , string memory , uint256 , uint256 ) {... */\n    tag_35:\n        /* \"contracts/Service.sol\":3734:3747  string memory */\n      0x60\n        /* \"contracts/Service.sol\":3750:3763  string memory */\n      dup1\n        /* \"contracts/Service.sol\":3766:3773  uint256 */\n      0x00\n        /* \"contracts/Service.sol\":3776:3783  uint256 */\n      dup1\n        /* \"contracts/Service.sol\":3817:3832  projectServices */\n      0x03\n        /* \"contracts/Service.sol\":3817:3847  projectServices[projectNumber] */\n      0x00\n        /* \"contracts/Service.sol\":3833:3846  projectNumber */\n      dup8\n        /* \"contracts/Service.sol\":3817:3847  projectServices[projectNumber] */\n      dup2\n      mstore\n      0x20\n      add\n      swap1\n      dup2\n      mstore\n      0x20\n      add\n      0x00\n      keccak256\n        /* \"contracts/Service.sol\":3817:3862  projectServices[projectNumber][serviceNumber] */\n      0x00\n        /* \"contracts/Service.sol\":3848:3861  serviceNumber */\n      dup7\n        /* \"contracts/Service.sol\":3817:3862  projectServices[projectNumber][serviceNumber] */\n      dup2\n      mstore\n      0x20\n      add\n      swap1\n      dup2\n      mstore\n      0x20\n      add\n      0x00\n      keccak256\n        /* \"contracts/Service.sol\":3817:3868  projectServices[projectNumber][serviceNumber].title */\n      0x02\n      add\n        /* \"contracts/Service.sol\":3882:3897  projectServices */\n      0x03\n        /* \"contracts/Service.sol\":3882:3912  projectServices[projectNumber] */\n      0x00\n        /* \"contracts/Service.sol\":3898:3911  projectNumber */\n      dup9\n        /* \"contracts/Service.sol\":3882:3912  projectServices[projectNumber] */\n      dup2\n      mstore\n      0x20\n      add\n      swap1\n      dup2\n      mstore\n      0x20\n      add\n      0x00\n      keccak256\n        /* \"contracts/Service.sol\":3882:3927  projectServices[projectNumber][serviceNumber] */\n      0x00\n        /* \"contracts/Service.sol\":3913:3926  serviceNumber */\n      dup8\n        /* \"contracts/Service.sol\":3882:3927  projectServices[projectNumber][serviceNumber] */\n      dup2\n      mstore\n      0x20\n      add\n      swap1\n      dup2\n      mstore\n      0x20\n      add\n      0x00\n      keccak256\n        /* \"contracts/Service.sol\":3882:3939  projectServices[projectNumber][serviceNumber].description */\n      0x03\n      add\n        /* \"contracts/Service.sol\":3953:3968  projectServices */\n      0x03\n        /* \"contracts/Service.sol\":3953:3983  projectServices[projectNumber] */\n      0x00\n        /* \"contracts/Service.sol\":3969:3982  projectNumber */\n      dup10\n        /* \"contracts/Service.sol\":3953:3983  projectServices[projectNumber] */\n      dup2\n      mstore\n      0x20\n      add\n      swap1\n      dup2\n      mstore\n      0x20\n      add\n      0x00\n      keccak256\n        /* \"contracts/Service.sol\":3953:3998  projectServices[projectNumber][serviceNumber] */\n      0x00\n        /* \"contracts/Service.sol\":3984:3997  serviceNumber */\n      dup9\n        /* \"contracts/Service.sol\":3953:3998  projectServices[projectNumber][serviceNumber] */\n      dup2\n      mstore\n      0x20\n      add\n      swap1\n      dup2\n      mstore\n      0x20\n      add\n      0x00\n      keccak256\n        /* \"contracts/Service.sol\":3953:4004  projectServices[projectNumber][serviceNumber].price */\n      0x04\n      add\n      sload\n        /* \"contracts/Service.sol\":4018:4033  projectServices */\n      0x03\n        /* \"contracts/Service.sol\":4018:4048  projectServices[projectNumber] */\n      0x00\n        /* \"contracts/Service.sol\":4034:4047  projectNumber */\n      dup11\n        /* \"contracts/Service.sol\":4018:4048  projectServices[projectNumber] */\n      dup2\n      mstore\n      0x20\n      add\n      swap1\n      dup2\n      mstore\n      0x20\n      add\n      0x00\n      keccak256\n        /* \"contracts/Service.sol\":4018:4063  projectServices[projectNumber][serviceNumber] */\n      0x00\n        /* \"contracts/Service.sol\":4049:4062  serviceNumber */\n      dup10\n        /* \"contracts/Service.sol\":4018:4063  projectServices[projectNumber][serviceNumber] */\n      dup2\n      mstore\n      0x20\n      add\n      swap1\n      dup2\n      mstore\n      0x20\n      add\n      0x00\n      keccak256\n        /* \"contracts/Service.sol\":4018:4080  projectServices[projectNumber][serviceNumber].currentMilestone */\n      0x05\n      add\n      sload\n        /* \"contracts/Service.sol\":3796:4090  return (... */\n      dup4\n      dup1\n      sload\n      tag_92\n      swap1\n      tag_93\n      jump\t// in\n    tag_92:\n      dup1\n      0x1f\n      add\n      0x20\n      dup1\n      swap2\n      div\n      mul\n      0x20\n      add\n      mload(0x40)\n      swap1\n      dup2\n      add\n      0x40\n      mstore\n      dup1\n      swap3\n      swap2\n      swap1\n      dup2\n      dup2\n      mstore\n      0x20\n      add\n      dup3\n      dup1\n      sload\n      tag_94\n      swap1\n      tag_93\n      jump\t// in\n    tag_94:\n      dup1\n      iszero\n      tag_95\n      jumpi\n      dup1\n      0x1f\n      lt\n      tag_96\n      jumpi\n      0x0100\n      dup1\n      dup4\n      sload\n      div\n      mul\n      dup4\n      mstore\n      swap2\n      0x20\n      add\n      swap2\n      jump(tag_95)\n    tag_96:\n      dup3\n      add\n      swap2\n      swap1\n      0x00\n      mstore\n      keccak256(0x00, 0x20)\n      swap1\n    tag_97:\n      dup2\n      sload\n      dup2\n      mstore\n      swap1\n      0x01\n      add\n      swap1\n      0x20\n      add\n      dup1\n      dup4\n      gt\n      tag_97\n      jumpi\n      dup3\n      swap1\n      sub\n      0x1f\n      and\n      dup3\n      add\n      swap2\n    tag_95:\n      pop\n      pop\n      pop\n      pop\n      pop\n      swap4\n      pop\n      dup3\n      dup1\n      sload\n      tag_98\n      swap1\n      tag_93\n      jump\t// in\n    tag_98:\n      dup1\n      0x1f\n      add\n      0x20\n      dup1\n      swap2\n      div\n      mul\n      0x20\n      add\n      mload(0x40)\n      swap1\n      dup2\n      add\n      0x40\n      mstore\n      dup1\n      swap3\n      swap2\n      swap1\n      dup2\n      dup2\n      mstore\n      0x20\n      add\n      dup3\n      dup1\n      sload\n      tag_99\n      swap1\n      tag_93\n      jump\t// in\n    tag_99:\n      dup1\n      iszero\n      tag_100\n      jumpi\n      dup1\n      0x1f\n      lt\n      tag_101\n      jumpi\n      0x0100\n      dup1\n      dup4\n      sload\n      div\n      mul\n      dup4\n      mstore\n      swap2\n      0x20\n      add\n      swap2\n      jump(tag_100)\n    tag_101:\n      dup3\n      add\n      swap2\n      swap1\n      0x00\n      mstore\n      keccak256(0x00, 0x20)\n      swap1\n    tag_102:\n      dup2\n      sload\n      dup2\n      mstore\n      swap1\n      0x01\n      add\n      swap1\n      0x20\n      add\n      dup1\n      dup4\n      gt\n      tag_102\n      jumpi\n      dup3\n      swap1\n      sub\n      0x1f\n      and\n      dup3\n      add\n      swap2\n    tag_100:\n      pop\n      pop\n      pop\n      pop\n      pop\n      swap3\n      pop\n      swap4\n      pop\n      swap4\n      pop\n      swap4\n      pop\n      swap4\n      pop\n        /* \"contracts/Service.sol\":3646:4097  function readService(uint256 projectNumber, uint256 serviceNumber) public view returns (string memory , string memory , uint256 , uint256 ) {... */\n      swap3\n      swap6\n      swap2\n      swap5\n      pop\n      swap3\n      pop\n      jump\t// out\n        /* \"contracts/Service.sol\":4632:4867  function deleteService(uint256 projectNumber, uint256 serviceNumber) public {... */\n    tag_40:\n        /* \"contracts/Service.sol\":4772:4777  false */\n      0x00\n        /* \"contracts/Service.sol\":4718:4733  projectServices */\n      0x03\n        /* \"contracts/Service.sol\":4718:4748  projectServices[projectNumber] */\n      0x00\n        /* \"contracts/Service.sol\":4734:4747  projectNumber */\n      dup5\n        /* \"contracts/Service.sol\":4718:4748  projectServices[projectNumber] */\n      dup2\n      mstore\n      0x20\n      add\n      swap1\n      dup2\n      mstore\n      0x20\n      add\n      0x00\n      keccak256\n        /* \"contracts/Service.sol\":4718:4763  projectServices[projectNumber][serviceNumber] */\n      0x00\n        /* \"contracts/Service.sol\":4749:4762  serviceNumber */\n      dup4\n        /* \"contracts/Service.sol\":4718:4763  projectServices[projectNumber][serviceNumber] */\n      dup2\n      mstore\n      0x20\n      add\n      swap1\n      dup2\n      mstore\n      0x20\n      add\n      0x00\n      keccak256\n        /* \"contracts/Service.sol\":4718:4769  projectServices[projectNumber][serviceNumber].exist */\n      0x07\n      add\n      0x14\n        /* \"contracts/Service.sol\":4718:4777  projectServices[projectNumber][serviceNumber].exist = false */\n      0x0100\n      exp\n      dup2\n      sload\n      dup2\n      0xff\n      mul\n      not\n      and\n      swap1\n      dup4\n      iszero\n      iszero\n      mul\n      or\n      swap1\n      sstore\n      pop\n        /* \"contracts/Service.sol\":4788:4800  serviceTotal */\n      0x01\n      0x00\n        /* \"contracts/Service.sol\":4788:4802  serviceTotal-- */\n      dup2\n      sload\n      dup1\n      swap3\n      swap2\n      swap1\n      tag_104\n      swap1\n      tag_105\n      jump\t// in\n    tag_104:\n      swap2\n      swap1\n      pop\n      sstore\n      pop\n        /* \"contracts/Service.sol\":4817:4860  serviceDeleted(projectNumber,serviceNumber) */\n      0x04579b03ce378bfed31ee6443865880dab0b281efac453deb39233352189863f\n        /* \"contracts/Service.sol\":4832:4845  projectNumber */\n      dup3\n        /* \"contracts/Service.sol\":4846:4859  serviceNumber */\n      dup3\n        /* \"contracts/Service.sol\":4817:4860  serviceDeleted(projectNumber,serviceNumber) */\n      mload(0x40)\n      tag_106\n      swap3\n      swap2\n      swap1\n      tag_107\n      jump\t// in\n    tag_106:\n      mload(0x40)\n      dup1\n      swap2\n      sub\n      swap1\n      log1\n        /* \"contracts/Service.sol\":4632:4867  function deleteService(uint256 projectNumber, uint256 serviceNumber) public {... */\n      pop\n      pop\n      jump\t// out\n        /* \"contracts/Service.sol\":4914:5165  function createMilestone(uint256 projectNumber, uint256 serviceNumber, string memory titleMilestone, string memory descriptionMilestone) public {... */\n    tag_44:\n        /* \"contracts/Service.sol\":5068:5077  milestone */\n      0x00\n      dup1\n      sload\n      swap1\n      0x0100\n      exp\n      swap1\n      div\n      0xffffffffffffffffffffffffffffffffffffffff\n      and\n        /* \"contracts/Service.sol\":5068:5093  milestone.createMilestone */\n      0xffffffffffffffffffffffffffffffffffffffff\n      and\n      0x63ef8a50\n        /* \"contracts/Service.sol\":5094:5107  projectNumber */\n      dup6\n        /* \"contracts/Service.sol\":5108:5121  serviceNumber */\n      dup6\n        /* \"contracts/Service.sol\":5122:5136  titleMilestone */\n      dup6\n        /* \"contracts/Service.sol\":5137:5157  descriptionMilestone */\n      dup6\n        /* \"contracts/Service.sol\":5068:5158  milestone.createMilestone(projectNumber,serviceNumber,titleMilestone,descriptionMilestone) */\n      mload(0x40)\n      dup6\n      0xffffffff\n      and\n      0xe0\n      shl\n      dup2\n      mstore\n      0x04\n      add\n      tag_109\n      swap5\n      swap4\n      swap3\n      swap2\n      swap1\n      tag_110\n      jump\t// in\n    tag_109:\n      0x00\n      mload(0x40)\n      dup1\n      dup4\n      sub\n      dup2\n      0x00\n      dup8\n      dup1\n      extcodesize\n      iszero\n      dup1\n      iszero\n      tag_111\n      jumpi\n      0x00\n      dup1\n      revert\n    tag_111:\n      pop\n      gas\n      call\n      iszero\n      dup1\n      iszero\n      tag_113\n      jumpi\n      returndatasize\n      0x00\n      dup1\n      returndatacopy\n      revert(0x00, returndatasize)\n    tag_113:\n      pop\n      pop\n      pop\n      pop\n        /* \"contracts/Service.sol\":4914:5165  function createMilestone(uint256 projectNumber, uint256 serviceNumber, string memory titleMilestone, string memory descriptionMilestone) public {... */\n      pop\n      pop\n      pop\n      pop\n      jump\t// out\n        /* \"contracts/Service.sol\":4143:4587  function updateService(uint256 projectNumber, uint256 serviceNumber, string memory title, string memory description, uint256 price) public {... */\n    tag_48:\n        /* \"contracts/Service.sol\":4344:4349  title */\n      dup3\n        /* \"contracts/Service.sol\":4293:4308  projectServices */\n      0x03\n        /* \"contracts/Service.sol\":4293:4323  projectServices[projectNumber] */\n      0x00\n        /* \"contracts/Service.sol\":4309:4322  projectNumber */\n      dup8\n        /* \"contracts/Service.sol\":4293:4323  projectServices[projectNumber] */\n      dup2\n      mstore\n      0x20\n      add\n      swap1\n      dup2\n      mstore\n      0x20\n      add\n      0x00\n      keccak256\n        /* \"contracts/Service.sol\":4293:4335  projectServices[projectNumber][serviceNum] */\n      0x00\n        /* \"contracts/Service.sol\":4324:4334  serviceNum */\n      sload(0x02)\n        /* \"contracts/Service.sol\":4293:4335  projectServices[projectNumber][serviceNum] */\n      dup2\n      mstore\n      0x20\n      add\n      swap1\n      dup2\n      mstore\n      0x20\n      add\n      0x00\n      keccak256\n        /* \"contracts/Service.sol\":4293:4341  projectServices[projectNumber][serviceNum].title */\n      0x02\n      add\n        /* \"contracts/Service.sol\":4293:4349  projectServices[projectNumber][serviceNum].title = title */\n      swap1\n      dup1\n      mload\n      swap1\n      0x20\n      add\n      swap1\n      tag_115\n      swap3\n      swap2\n      swap1\n      tag_73\n      jump\t// in\n    tag_115:\n      pop\n        /* \"contracts/Service.sol\":4416:4427  description */\n      dup2\n        /* \"contracts/Service.sol\":4359:4374  projectServices */\n      0x03\n        /* \"contracts/Service.sol\":4359:4389  projectServices[projectNumber] */\n      0x00\n        /* \"contracts/Service.sol\":4375:4388  projectNumber */\n      dup8\n        /* \"contracts/Service.sol\":4359:4389  projectServices[projectNumber] */\n      dup2\n      mstore\n      0x20\n      add\n      swap1\n      dup2\n      mstore\n      0x20\n      add\n      0x00\n      keccak256\n        /* \"contracts/Service.sol\":4359:4401  projectServices[projectNumber][serviceNum] */\n      0x00\n        /* \"contracts/Service.sol\":4390:4400  serviceNum */\n      sload(0x02)\n        /* \"contracts/Service.sol\":4359:4401  projectServices[projectNumber][serviceNum] */\n      dup2\n      mstore\n      0x20\n      add\n      swap1\n      dup2\n      mstore\n      0x20\n      add\n      0x00\n      keccak256\n        /* \"contracts/Service.sol\":4359:4413  projectServices[projectNumber][serviceNum].description */\n      0x03\n      add\n        /* \"contracts/Service.sol\":4359:4427  projectServices[projectNumber][serviceNum].description = description */\n      swap1\n      dup1\n      mload\n      swap1\n      0x20\n      add\n      swap1\n      tag_116\n      swap3\n      swap2\n      swap1\n      tag_73\n      jump\t// in\n    tag_116:\n      pop\n        /* \"contracts/Service.sol\":4488:4493  price */\n      dup1\n        /* \"contracts/Service.sol\":4437:4452  projectServices */\n      0x03\n        /* \"contracts/Service.sol\":4437:4467  projectServices[projectNumber] */\n      0x00\n        /* \"contracts/Service.sol\":4453:4466  projectNumber */\n      dup8\n        /* \"contracts/Service.sol\":4437:4467  projectServices[projectNumber] */\n      dup2\n      mstore\n      0x20\n      add\n      swap1\n      dup2\n      mstore\n      0x20\n      add\n      0x00\n      keccak256\n        /* \"contracts/Service.sol\":4437:4479  projectServices[projectNumber][serviceNum] */\n      0x00\n        /* \"contracts/Service.sol\":4468:4478  serviceNum */\n      sload(0x02)\n        /* \"contracts/Service.sol\":4437:4479  projectServices[projectNumber][serviceNum] */\n      dup2\n      mstore\n      0x20\n      add\n      swap1\n      dup2\n      mstore\n      0x20\n      add\n      0x00\n      keccak256\n        /* \"contracts/Service.sol\":4437:4485  projectServices[projectNumber][serviceNum].price */\n      0x04\n      add\n        /* \"contracts/Service.sol\":4437:4493  projectServices[projectNumber][serviceNum].price = price */\n      dup2\n      swap1\n      sstore\n      pop\n        /* \"contracts/Service.sol\":4509:4580  serviceUpdated(projectNumber, serviceNumber, title, description, price) */\n      0x68dd1fad96ebc5f1740866ec07701d4ab66240c086d6ae6d351ee74eacdf267e\n        /* \"contracts/Service.sol\":4524:4537  projectNumber */\n      dup6\n        /* \"contracts/Service.sol\":4539:4552  serviceNumber */\n      dup6\n        /* \"contracts/Service.sol\":4554:4559  title */\n      dup6\n        /* \"contracts/Service.sol\":4561:4572  description */\n      dup6\n        /* \"contracts/Service.sol\":4574:4579  price */\n      dup6\n        /* \"contracts/Service.sol\":4509:4580  serviceUpdated(projectNumber, serviceNumber, title, description, price) */\n      mload(0x40)\n      tag_117\n      swap6\n      swap5\n      swap4\n      swap3\n      swap2\n      swap1\n      tag_79\n      jump\t// in\n    tag_117:\n      mload(0x40)\n      dup1\n      swap2\n      sub\n      swap1\n      log1\n        /* \"contracts/Service.sol\":4143:4587  function updateService(uint256 projectNumber, uint256 serviceNumber, string memory title, string memory description, uint256 price) public {... */\n      pop\n      pop\n      pop\n      pop\n      pop\n      jump\t// out\n        /* \"contracts/Service.sol\":3396:3601  function getTitle(uint256 projectNumber, uint256 serviceNumber) public view returns (string memory title) {... */\n    tag_51:\n        /* \"contracts/Service.sol\":3481:3500  string memory title */\n      0x60\n        /* \"contracts/Service.sol\":3533:3548  projectServices */\n      0x03\n        /* \"contracts/Service.sol\":3533:3563  projectServices[projectNumber] */\n      0x00\n        /* \"contracts/Service.sol\":3549:3562  projectNumber */\n      dup5\n        /* \"contracts/Service.sol\":3533:3563  projectServices[projectNumber] */\n      dup2\n      mstore\n      0x20\n      add\n      swap1\n      dup2\n      mstore\n      0x20\n      add\n      0x00\n      keccak256\n        /* \"contracts/Service.sol\":3533:3578  projectServices[projectNumber][serviceNumber] */\n      0x00\n        /* \"contracts/Service.sol\":3564:3577  serviceNumber */\n      dup4\n        /* \"contracts/Service.sol\":3533:3578  projectServices[projectNumber][serviceNumber] */\n      dup2\n      mstore\n      0x20\n      add\n      swap1\n      dup2\n      mstore\n      0x20\n      add\n      0x00\n      keccak256\n        /* \"contracts/Service.sol\":3533:3584  projectServices[projectNumber][serviceNumber].title */\n      0x02\n      add\n        /* \"contracts/Service.sol\":3512:3594  return (... */\n      dup1\n      sload\n      tag_119\n      swap1\n      tag_93\n      jump\t// in\n    tag_119:\n      dup1\n      0x1f\n      add\n      0x20\n      dup1\n      swap2\n      div\n      mul\n      0x20\n      add\n      mload(0x40)\n      swap1\n      dup2\n      add\n      0x40\n      mstore\n      dup1\n      swap3\n      swap2\n      swap1\n      dup2\n      dup2\n      mstore\n      0x20\n      add\n      dup3\n      dup1\n      sload\n      tag_120\n      swap1\n      tag_93\n      jump\t// in\n    tag_120:\n      dup1\n      iszero\n      tag_121\n      jumpi\n      dup1\n      0x1f\n      lt\n      tag_122\n      jumpi\n      0x0100\n      dup1\n      dup4\n      sload\n      div\n      mul\n      dup4\n      mstore\n      swap2\n      0x20\n      add\n      swap2\n      jump(tag_121)\n    tag_122:\n      dup3\n      add\n      swap2\n      swap1\n      0x00\n      mstore\n      keccak256(0x00, 0x20)\n      swap1\n    tag_123:\n      dup2\n      sload\n      dup2\n      mstore\n      swap1\n      0x01\n      add\n      swap1\n      0x20\n      add\n      dup1\n      dup4\n      gt\n      tag_123\n      jumpi\n      dup3\n      swap1\n      sub\n      0x1f\n      and\n      dup3\n      add\n      swap2\n    tag_121:\n      pop\n      pop\n      pop\n      pop\n      pop\n      swap1\n      pop\n        /* \"contracts/Service.sol\":3396:3601  function getTitle(uint256 projectNumber, uint256 serviceNumber) public view returns (string memory title) {... */\n      swap3\n      swap2\n      pop\n      pop\n      jump\t// out\n        /* \"contracts/Service.sol\":5835:6033  function deleteMilestone(uint256 projectNumber, uint256 serviceNumber, uint256 milestoneNumber) public {        ... */\n    tag_56:\n        /* \"contracts/Service.sol\":5956:5965  milestone */\n      0x00\n      dup1\n      sload\n      swap1\n      0x0100\n      exp\n      swap1\n      div\n      0xffffffffffffffffffffffffffffffffffffffff\n      and\n        /* \"contracts/Service.sol\":5956:5981  milestone.deleteMilestone */\n      0xffffffffffffffffffffffffffffffffffffffff\n      and\n      0xb9b6c5d4\n        /* \"contracts/Service.sol\":5982:5995  projectNumber */\n      dup5\n        /* \"contracts/Service.sol\":5996:6009  serviceNumber */\n      dup5\n        /* \"contracts/Service.sol\":6010:6025  milestoneNumber */\n      dup5\n        /* \"contracts/Service.sol\":5956:6026  milestone.deleteMilestone(projectNumber,serviceNumber,milestoneNumber) */\n      mload(0x40)\n      dup5\n      0xffffffff\n      and\n      0xe0\n      shl\n      dup2\n      mstore\n      0x04\n      add\n      tag_125\n      swap4\n      swap3\n      swap2\n      swap1\n      tag_85\n      jump\t// in\n    tag_125:\n      0x00\n      mload(0x40)\n      dup1\n      dup4\n      sub\n      dup2\n      0x00\n      dup8\n      dup1\n      extcodesize\n      iszero\n      dup1\n      iszero\n      tag_126\n      jumpi\n      0x00\n      dup1\n      revert\n    tag_126:\n      pop\n      gas\n      call\n      iszero\n      dup1\n      iszero\n      tag_128\n      jumpi\n      returndatasize\n      0x00\n      dup1\n      returndatacopy\n      revert(0x00, returndatasize)\n    tag_128:\n      pop\n      pop\n      pop\n      pop\n        /* \"contracts/Service.sol\":5835:6033  function deleteMilestone(uint256 projectNumber, uint256 serviceNumber, uint256 milestoneNumber) public {        ... */\n      pop\n      pop\n      pop\n      jump\t// out\n        /* \"contracts/Service.sol\":5496:5788  function updateMilestone(uint256 projectNumber, uint256 serviceNumber, uint256 milestoneNumber, string memory titleMilestone, string memory descriptionMilestone) public {... */\n    tag_60:\n        /* \"contracts/Service.sol\":5675:5684  milestone */\n      0x00\n      dup1\n      sload\n      swap1\n      0x0100\n      exp\n      swap1\n      div\n      0xffffffffffffffffffffffffffffffffffffffff\n      and\n        /* \"contracts/Service.sol\":5675:5700  milestone.updateMilestone */\n      0xffffffffffffffffffffffffffffffffffffffff\n      and\n      0xfd23c4bb\n        /* \"contracts/Service.sol\":5701:5714  projectNumber */\n      dup7\n        /* \"contracts/Service.sol\":5715:5728  serviceNumber */\n      dup7\n        /* \"contracts/Service.sol\":5729:5744  milestoneNumber */\n      dup7\n        /* \"contracts/Service.sol\":5745:5759  titleMilestone */\n      dup7\n        /* \"contracts/Service.sol\":5760:5780  descriptionMilestone */\n      dup7\n        /* \"contracts/Service.sol\":5675:5781  milestone.updateMilestone(projectNumber,serviceNumber,milestoneNumber,titleMilestone,descriptionMilestone) */\n      mload(0x40)\n      dup7\n      0xffffffff\n      and\n      0xe0\n      shl\n      dup2\n      mstore\n      0x04\n      add\n      tag_130\n      swap6\n      swap5\n      swap4\n      swap3\n      swap2\n      swap1\n      tag_131\n      jump\t// in\n    tag_130:\n      0x00\n      mload(0x40)\n      dup1\n      dup4\n      sub\n      dup2\n      0x00\n      dup8\n      dup1\n      extcodesize\n      iszero\n      dup1\n      iszero\n      tag_132\n      jumpi\n      0x00\n      dup1\n      revert\n    tag_132:\n      pop\n      gas\n      call\n      iszero\n      dup1\n      iszero\n      tag_134\n      jumpi\n      returndatasize\n      0x00\n      dup1\n      returndatacopy\n      revert(0x00, returndatasize)\n    tag_134:\n      pop\n      pop\n      pop\n      pop\n        /* \"contracts/Service.sol\":5496:5788  function updateMilestone(uint256 projectNumber, uint256 serviceNumber, uint256 milestoneNumber, string memory titleMilestone, string memory descriptionMilestone) public {... */\n      pop\n      pop\n      pop\n      pop\n      pop\n      jump\t// out\n    tag_73:\n      dup3\n      dup1\n      sload\n      tag_135\n      swap1\n      tag_93\n      jump\t// in\n    tag_135:\n      swap1\n      0x00\n      mstore\n      keccak256(0x00, 0x20)\n      swap1\n      0x1f\n      add\n      0x20\n      swap1\n      div\n      dup2\n      add\n      swap3\n      dup3\n      tag_137\n      jumpi\n      0x00\n      dup6\n      sstore\n      jump(tag_136)\n    tag_137:\n      dup3\n      0x1f\n      lt\n      tag_138\n      jumpi\n      dup1\n      mload\n      not(0xff)\n      and\n      dup4\n      dup1\n      add\n      or\n      dup6\n      sstore\n      jump(tag_136)\n    tag_138:\n      dup3\n      dup1\n      add\n      0x01\n      add\n      dup6\n      sstore\n      dup3\n      iszero\n      tag_136\n      jumpi\n      swap2\n      dup3\n      add\n    tag_139:\n      dup3\n      dup2\n      gt\n      iszero\n      tag_140\n      jumpi\n      dup3\n      mload\n      dup3\n      sstore\n      swap2\n      0x20\n      add\n      swap2\n      swap1\n      0x01\n      add\n      swap1\n      jump(tag_139)\n    tag_140:\n    tag_136:\n      pop\n      swap1\n      pop\n      tag_141\n      swap2\n      swap1\n      tag_142\n      jump\t// in\n    tag_141:\n      pop\n      swap1\n      jump\t// out\n    tag_142:\n    tag_143:\n      dup1\n      dup3\n      gt\n      iszero\n      tag_144\n      jumpi\n      0x00\n      dup2\n      0x00\n      swap1\n      sstore\n      pop\n      0x01\n      add\n      jump(tag_143)\n    tag_144:\n      pop\n      swap1\n      jump\t// out\n        /* \"#utility.yul\":7:419   */\n    tag_146:\n        /* \"#utility.yul\":85:90   */\n      0x00\n        /* \"#utility.yul\":110:176   */\n      tag_148\n        /* \"#utility.yul\":126:175   */\n      tag_149\n        /* \"#utility.yul\":168:174   */\n      dup5\n        /* \"#utility.yul\":126:175   */\n      tag_150\n      jump\t// in\n    tag_149:\n        /* \"#utility.yul\":110:176   */\n      tag_151\n      jump\t// in\n    tag_148:\n        /* \"#utility.yul\":101:176   */\n      swap1\n      pop\n        /* \"#utility.yul\":199:205   */\n      dup3\n        /* \"#utility.yul\":192:197   */\n      dup2\n        /* \"#utility.yul\":185:206   */\n      mstore\n        /* \"#utility.yul\":237:241   */\n      0x20\n        /* \"#utility.yul\":230:235   */\n      dup2\n        /* \"#utility.yul\":226:242   */\n      add\n        /* \"#utility.yul\":275:278   */\n      dup5\n        /* \"#utility.yul\":266:272   */\n      dup5\n        /* \"#utility.yul\":261:264   */\n      dup5\n        /* \"#utility.yul\":257:273   */\n      add\n        /* \"#utility.yul\":254:279   */\n      gt\n        /* \"#utility.yul\":251:363   */\n      iszero\n      tag_152\n      jumpi\n        /* \"#utility.yul\":282:361   */\n      tag_153\n      tag_154\n      jump\t// in\n    tag_153:\n        /* \"#utility.yul\":251:363   */\n    tag_152:\n        /* \"#utility.yul\":372:413   */\n      tag_155\n        /* \"#utility.yul\":406:412   */\n      dup5\n        /* \"#utility.yul\":401:404   */\n      dup3\n        /* \"#utility.yul\":396:399   */\n      dup6\n        /* \"#utility.yul\":372:413   */\n      tag_156\n      jump\t// in\n    tag_155:\n        /* \"#utility.yul\":91:419   */\n      pop\n        /* \"#utility.yul\":7:419   */\n      swap4\n      swap3\n      pop\n      pop\n      pop\n      jump\t// out\n        /* \"#utility.yul\":425:846   */\n    tag_157:\n        /* \"#utility.yul\":514:519   */\n      0x00\n        /* \"#utility.yul\":539:605   */\n      tag_159\n        /* \"#utility.yul\":555:604   */\n      tag_160\n        /* \"#utility.yul\":597:603   */\n      dup5\n        /* \"#utility.yul\":555:604   */\n      tag_150\n      jump\t// in\n    tag_160:\n        /* \"#utility.yul\":539:605   */\n      tag_151\n      jump\t// in\n    tag_159:\n        /* \"#utility.yul\":530:605   */\n      swap1\n      pop\n        /* \"#utility.yul\":628:634   */\n      dup3\n        /* \"#utility.yul\":621:626   */\n      dup2\n        /* \"#utility.yul\":614:635   */\n      mstore\n        /* \"#utility.yul\":666:670   */\n      0x20\n        /* \"#utility.yul\":659:664   */\n      dup2\n        /* \"#utility.yul\":655:671   */\n      add\n        /* \"#utility.yul\":704:707   */\n      dup5\n        /* \"#utility.yul\":695:701   */\n      dup5\n        /* \"#utility.yul\":690:693   */\n      dup5\n        /* \"#utility.yul\":686:702   */\n      add\n        /* \"#utility.yul\":683:708   */\n      gt\n        /* \"#utility.yul\":680:792   */\n      iszero\n      tag_161\n      jumpi\n        /* \"#utility.yul\":711:790   */\n      tag_162\n      tag_154\n      jump\t// in\n    tag_162:\n        /* \"#utility.yul\":680:792   */\n    tag_161:\n        /* \"#utility.yul\":801:840   */\n      tag_163\n        /* \"#utility.yul\":833:839   */\n      dup5\n        /* \"#utility.yul\":828:831   */\n      dup3\n        /* \"#utility.yul\":823:826   */\n      dup6\n        /* \"#utility.yul\":801:840   */\n      tag_164\n      jump\t// in\n    tag_163:\n        /* \"#utility.yul\":520:846   */\n      pop\n        /* \"#utility.yul\":425:846   */\n      swap4\n      swap3\n      pop\n      pop\n      pop\n      jump\t// out\n        /* \"#utility.yul\":852:1007   */\n    tag_165:\n        /* \"#utility.yul\":906:911   */\n      0x00\n        /* \"#utility.yul\":944:950   */\n      dup2\n        /* \"#utility.yul\":931:951   */\n      calldataload\n        /* \"#utility.yul\":922:951   */\n      swap1\n      pop\n        /* \"#utility.yul\":960:1001   */\n      tag_167\n        /* \"#utility.yul\":995:1000   */\n      dup2\n        /* \"#utility.yul\":960:1001   */\n      tag_168\n      jump\t// in\n    tag_167:\n        /* \"#utility.yul\":852:1007   */\n      swap3\n      swap2\n      pop\n      pop\n      jump\t// out\n        /* \"#utility.yul\":1027:1367   */\n    tag_169:\n        /* \"#utility.yul\":1083:1088   */\n      0x00\n        /* \"#utility.yul\":1132:1135   */\n      dup3\n        /* \"#utility.yul\":1125:1129   */\n      0x1f\n        /* \"#utility.yul\":1117:1123   */\n      dup4\n        /* \"#utility.yul\":1113:1130   */\n      add\n        /* \"#utility.yul\":1109:1136   */\n      slt\n        /* \"#utility.yul\":1099:1221   */\n      tag_171\n      jumpi\n        /* \"#utility.yul\":1140:1219   */\n      tag_172\n      tag_173\n      jump\t// in\n    tag_172:\n        /* \"#utility.yul\":1099:1221   */\n    tag_171:\n        /* \"#utility.yul\":1257:1263   */\n      dup2\n        /* \"#utility.yul\":1244:1264   */\n      calldataload\n        /* \"#utility.yul\":1282:1361   */\n      tag_174\n        /* \"#utility.yul\":1357:1360   */\n      dup5\n        /* \"#utility.yul\":1349:1355   */\n      dup3\n        /* \"#utility.yul\":1342:1346   */\n      0x20\n        /* \"#utility.yul\":1334:1340   */\n      dup7\n        /* \"#utility.yul\":1330:1347   */\n      add\n        /* \"#utility.yul\":1282:1361   */\n      tag_146\n      jump\t// in\n    tag_174:\n        /* \"#utility.yul\":1273:1361   */\n      swap2\n      pop\n        /* \"#utility.yul\":1089:1367   */\n      pop\n        /* \"#utility.yul\":1027:1367   */\n      swap3\n      swap2\n      pop\n      pop\n      jump\t// out\n        /* \"#utility.yul\":1387:1742   */\n    tag_175:\n        /* \"#utility.yul\":1454:1459   */\n      0x00\n        /* \"#utility.yul\":1503:1506   */\n      dup3\n        /* \"#utility.yul\":1496:1500   */\n      0x1f\n        /* \"#utility.yul\":1488:1494   */\n      dup4\n        /* \"#utility.yul\":1484:1501   */\n      add\n        /* \"#utility.yul\":1480:1507   */\n      slt\n        /* \"#utility.yul\":1470:1592   */\n      tag_177\n      jumpi\n        /* \"#utility.yul\":1511:1590   */\n      tag_178\n      tag_173\n      jump\t// in\n    tag_178:\n        /* \"#utility.yul\":1470:1592   */\n    tag_177:\n        /* \"#utility.yul\":1621:1627   */\n      dup2\n        /* \"#utility.yul\":1615:1628   */\n      mload\n        /* \"#utility.yul\":1646:1736   */\n      tag_179\n        /* \"#utility.yul\":1732:1735   */\n      dup5\n        /* \"#utility.yul\":1724:1730   */\n      dup3\n        /* \"#utility.yul\":1717:1721   */\n      0x20\n        /* \"#utility.yul\":1709:1715   */\n      dup7\n        /* \"#utility.yul\":1705:1722   */\n      add\n        /* \"#utility.yul\":1646:1736   */\n      tag_157\n      jump\t// in\n    tag_179:\n        /* \"#utility.yul\":1637:1736   */\n      swap2\n      pop\n        /* \"#utility.yul\":1460:1742   */\n      pop\n        /* \"#utility.yul\":1387:1742   */\n      swap3\n      swap2\n      pop\n      pop\n      jump\t// out\n        /* \"#utility.yul\":1748:1887   */\n    tag_180:\n        /* \"#utility.yul\":1794:1799   */\n      0x00\n        /* \"#utility.yul\":1832:1838   */\n      dup2\n        /* \"#utility.yul\":1819:1839   */\n      calldataload\n        /* \"#utility.yul\":1810:1839   */\n      swap1\n      pop\n        /* \"#utility.yul\":1848:1881   */\n      tag_182\n        /* \"#utility.yul\":1875:1880   */\n      dup2\n        /* \"#utility.yul\":1848:1881   */\n      tag_183\n      jump\t// in\n    tag_182:\n        /* \"#utility.yul\":1748:1887   */\n      swap3\n      swap2\n      pop\n      pop\n      jump\t// out\n        /* \"#utility.yul\":1893:2746   */\n    tag_90:\n        /* \"#utility.yul\":1992:1998   */\n      0x00\n        /* \"#utility.yul\":2000:2006   */\n      dup1\n        /* \"#utility.yul\":2049:2051   */\n      0x40\n        /* \"#utility.yul\":2037:2046   */\n      dup4\n        /* \"#utility.yul\":2028:2035   */\n      dup6\n        /* \"#utility.yul\":2024:2047   */\n      sub\n        /* \"#utility.yul\":2020:2052   */\n      slt\n        /* \"#utility.yul\":2017:2136   */\n      iszero\n      tag_185\n      jumpi\n        /* \"#utility.yul\":2055:2134   */\n      tag_186\n      tag_187\n      jump\t// in\n    tag_186:\n        /* \"#utility.yul\":2017:2136   */\n    tag_185:\n        /* \"#utility.yul\":2196:2197   */\n      0x00\n        /* \"#utility.yul\":2185:2194   */\n      dup4\n        /* \"#utility.yul\":2181:2198   */\n      add\n        /* \"#utility.yul\":2175:2199   */\n      mload\n        /* \"#utility.yul\":2226:2244   */\n      0xffffffffffffffff\n        /* \"#utility.yul\":2218:2224   */\n      dup2\n        /* \"#utility.yul\":2215:2245   */\n      gt\n        /* \"#utility.yul\":2212:2329   */\n      iszero\n      tag_188\n      jumpi\n        /* \"#utility.yul\":2248:2327   */\n      tag_189\n      tag_190\n      jump\t// in\n    tag_189:\n        /* \"#utility.yul\":2212:2329   */\n    tag_188:\n        /* \"#utility.yul\":2353:2427   */\n      tag_191\n        /* \"#utility.yul\":2419:2426   */\n      dup6\n        /* \"#utility.yul\":2410:2416   */\n      dup3\n        /* \"#utility.yul\":2399:2408   */\n      dup7\n        /* \"#utility.yul\":2395:2417   */\n      add\n        /* \"#utility.yul\":2353:2427   */\n      tag_175\n      jump\t// in\n    tag_191:\n        /* \"#utility.yul\":2343:2427   */\n      swap3\n      pop\n        /* \"#utility.yul\":2146:2437   */\n      pop\n        /* \"#utility.yul\":2497:2499   */\n      0x20\n        /* \"#utility.yul\":2486:2495   */\n      dup4\n        /* \"#utility.yul\":2482:2500   */\n      add\n        /* \"#utility.yul\":2476:2501   */\n      mload\n        /* \"#utility.yul\":2528:2546   */\n      0xffffffffffffffff\n        /* \"#utility.yul\":2520:2526   */\n      dup2\n        /* \"#utility.yul\":2517:2547   */\n      gt\n        /* \"#utility.yul\":2514:2631   */\n      iszero\n      tag_192\n      jumpi\n        /* \"#utility.yul\":2550:2629   */\n      tag_193\n      tag_190\n      jump\t// in\n    tag_193:\n        /* \"#utility.yul\":2514:2631   */\n    tag_192:\n        /* \"#utility.yul\":2655:2729   */\n      tag_194\n        /* \"#utility.yul\":2721:2728   */\n      dup6\n        /* \"#utility.yul\":2712:2718   */\n      dup3\n        /* \"#utility.yul\":2701:2710   */\n      dup7\n        /* \"#utility.yul\":2697:2719   */\n      add\n        /* \"#utility.yul\":2655:2729   */\n      tag_175\n      jump\t// in\n    tag_194:\n        /* \"#utility.yul\":2645:2729   */\n      swap2\n      pop\n        /* \"#utility.yul\":2447:2739   */\n      pop\n        /* \"#utility.yul\":1893:2746   */\n      swap3\n      pop\n      swap3\n      swap1\n      pop\n      jump\t// out\n        /* \"#utility.yul\":2752:4039   */\n    tag_17:\n        /* \"#utility.yul\":2875:2881   */\n      0x00\n        /* \"#utility.yul\":2883:2889   */\n      dup1\n        /* \"#utility.yul\":2891:2897   */\n      0x00\n        /* \"#utility.yul\":2899:2905   */\n      dup1\n        /* \"#utility.yul\":2907:2913   */\n      0x00\n        /* \"#utility.yul\":2956:2959   */\n      0xa0\n        /* \"#utility.yul\":2944:2953   */\n      dup7\n        /* \"#utility.yul\":2935:2942   */\n      dup9\n        /* \"#utility.yul\":2931:2954   */\n      sub\n        /* \"#utility.yul\":2927:2960   */\n      slt\n        /* \"#utility.yul\":2924:3044   */\n      iszero\n      tag_196\n      jumpi\n        /* \"#utility.yul\":2963:3042   */\n      tag_197\n      tag_187\n      jump\t// in\n    tag_197:\n        /* \"#utility.yul\":2924:3044   */\n    tag_196:\n        /* \"#utility.yul\":3083:3084   */\n      0x00\n        /* \"#utility.yul\":3108:3161   */\n      tag_198\n        /* \"#utility.yul\":3153:3160   */\n      dup9\n        /* \"#utility.yul\":3144:3150   */\n      dup3\n        /* \"#utility.yul\":3133:3142   */\n      dup10\n        /* \"#utility.yul\":3129:3151   */\n      add\n        /* \"#utility.yul\":3108:3161   */\n      tag_180\n      jump\t// in\n    tag_198:\n        /* \"#utility.yul\":3098:3161   */\n      swap6\n      pop\n        /* \"#utility.yul\":3054:3171   */\n      pop\n        /* \"#utility.yul\":3238:3240   */\n      0x20\n        /* \"#utility.yul\":3227:3236   */\n      dup7\n        /* \"#utility.yul\":3223:3241   */\n      add\n        /* \"#utility.yul\":3210:3242   */\n      calldataload\n        /* \"#utility.yul\":3269:3287   */\n      0xffffffffffffffff\n        /* \"#utility.yul\":3261:3267   */\n      dup2\n        /* \"#utility.yul\":3258:3288   */\n      gt\n        /* \"#utility.yul\":3255:3372   */\n      iszero\n      tag_199\n      jumpi\n        /* \"#utility.yul\":3291:3370   */\n      tag_200\n      tag_190\n      jump\t// in\n    tag_200:\n        /* \"#utility.yul\":3255:3372   */\n    tag_199:\n        /* \"#utility.yul\":3396:3459   */\n      tag_201\n        /* \"#utility.yul\":3451:3458   */\n      dup9\n        /* \"#utility.yul\":3442:3448   */\n      dup3\n        /* \"#utility.yul\":3431:3440   */\n      dup10\n        /* \"#utility.yul\":3427:3449   */\n      add\n        /* \"#utility.yul\":3396:3459   */\n      tag_169\n      jump\t// in\n    tag_201:\n        /* \"#utility.yul\":3386:3459   */\n      swap5\n      pop\n        /* \"#utility.yul\":3181:3469   */\n      pop\n        /* \"#utility.yul\":3536:3538   */\n      0x40\n        /* \"#utility.yul\":3525:3534   */\n      dup7\n        /* \"#utility.yul\":3521:3539   */\n      add\n        /* \"#utility.yul\":3508:3540   */\n      calldataload\n        /* \"#utility.yul\":3567:3585   */\n      0xffffffffffffffff\n        /* \"#utility.yul\":3559:3565   */\n      dup2\n        /* \"#utility.yul\":3556:3586   */\n      gt\n        /* \"#utility.yul\":3553:3670   */\n      iszero\n      tag_202\n      jumpi\n        /* \"#utility.yul\":3589:3668   */\n      tag_203\n      tag_190\n      jump\t// in\n    tag_203:\n        /* \"#utility.yul\":3553:3670   */\n    tag_202:\n        /* \"#utility.yul\":3694:3757   */\n      tag_204\n        /* \"#utility.yul\":3749:3756   */\n      dup9\n        /* \"#utility.yul\":3740:3746   */\n      dup3\n        /* \"#utility.yul\":3729:3738   */\n      dup10\n        /* \"#utility.yul\":3725:3747   */\n      add\n        /* \"#utility.yul\":3694:3757   */\n      tag_169\n      jump\t// in\n    tag_204:\n        /* \"#utility.yul\":3684:3757   */\n      swap4\n      pop\n        /* \"#utility.yul\":3479:3767   */\n      pop\n        /* \"#utility.yul\":3806:3808   */\n      0x60\n        /* \"#utility.yul\":3832:3885   */\n      tag_205\n        /* \"#utility.yul\":3877:3884   */\n      dup9\n        /* \"#utility.yul\":3868:3874   */\n      dup3\n        /* \"#utility.yul\":3857:3866   */\n      dup10\n        /* \"#utility.yul\":3853:3875   */\n      add\n        /* \"#utility.yul\":3832:3885   */\n      tag_180\n      jump\t// in\n    tag_205:\n        /* \"#utility.yul\":3822:3885   */\n      swap3\n      pop\n        /* \"#utility.yul\":3777:3895   */\n      pop\n        /* \"#utility.yul\":3934:3937   */\n      0x80\n        /* \"#utility.yul\":3961:4022   */\n      tag_206\n        /* \"#utility.yul\":4014:4021   */\n      dup9\n        /* \"#utility.yul\":4005:4011   */\n      dup3\n        /* \"#utility.yul\":3994:4003   */\n      dup10\n        /* \"#utility.yul\":3990:4012   */\n      add\n        /* \"#utility.yul\":3961:4022   */\n      tag_165\n      jump\t// in\n    tag_206:\n        /* \"#utility.yul\":3951:4022   */\n      swap2\n      pop\n        /* \"#utility.yul\":3905:4032   */\n      pop\n        /* \"#utility.yul\":2752:4039   */\n      swap3\n      swap6\n      pop\n      swap3\n      swap6\n      swap1\n      swap4\n      pop\n      jump\t// out\n        /* \"#utility.yul\":4045:4519   */\n    tag_34:\n        /* \"#utility.yul\":4113:4119   */\n      0x00\n        /* \"#utility.yul\":4121:4127   */\n      dup1\n        /* \"#utility.yul\":4170:4172   */\n      0x40\n        /* \"#utility.yul\":4158:4167   */\n      dup4\n        /* \"#utility.yul\":4149:4156   */\n      dup6\n        /* \"#utility.yul\":4145:4168   */\n      sub\n        /* \"#utility.yul\":4141:4173   */\n      slt\n        /* \"#utility.yul\":4138:4257   */\n      iszero\n      tag_208\n      jumpi\n        /* \"#utility.yul\":4176:4255   */\n      tag_209\n      tag_187\n      jump\t// in\n    tag_209:\n        /* \"#utility.yul\":4138:4257   */\n    tag_208:\n        /* \"#utility.yul\":4296:4297   */\n      0x00\n        /* \"#utility.yul\":4321:4374   */\n      tag_210\n        /* \"#utility.yul\":4366:4373   */\n      dup6\n        /* \"#utility.yul\":4357:4363   */\n      dup3\n        /* \"#utility.yul\":4346:4355   */\n      dup7\n        /* \"#utility.yul\":4342:4364   */\n      add\n        /* \"#utility.yul\":4321:4374   */\n      tag_180\n      jump\t// in\n    tag_210:\n        /* \"#utility.yul\":4311:4374   */\n      swap3\n      pop\n        /* \"#utility.yul\":4267:4384   */\n      pop\n        /* \"#utility.yul\":4423:4425   */\n      0x20\n        /* \"#utility.yul\":4449:4502   */\n      tag_211\n        /* \"#utility.yul\":4494:4501   */\n      dup6\n        /* \"#utility.yul\":4485:4491   */\n      dup3\n        /* \"#utility.yul\":4474:4483   */\n      dup7\n        /* \"#utility.yul\":4470:4492   */\n      add\n        /* \"#utility.yul\":4449:4502   */\n      tag_180\n      jump\t// in\n    tag_211:\n        /* \"#utility.yul\":4439:4502   */\n      swap2\n      pop\n        /* \"#utility.yul\":4394:4512   */\n      pop\n        /* \"#utility.yul\":4045:4519   */\n      swap3\n      pop\n      swap3\n      swap1\n      pop\n      jump\t// out\n        /* \"#utility.yul\":4525:5650   */\n    tag_43:\n        /* \"#utility.yul\":4631:4637   */\n      0x00\n        /* \"#utility.yul\":4639:4645   */\n      dup1\n        /* \"#utility.yul\":4647:4653   */\n      0x00\n        /* \"#utility.yul\":4655:4661   */\n      dup1\n        /* \"#utility.yul\":4704:4707   */\n      0x80\n        /* \"#utility.yul\":4692:4701   */\n      dup6\n        /* \"#utility.yul\":4683:4690   */\n      dup8\n        /* \"#utility.yul\":4679:4702   */\n      sub\n        /* \"#utility.yul\":4675:4708   */\n      slt\n        /* \"#utility.yul\":4672:4792   */\n      iszero\n      tag_213\n      jumpi\n        /* \"#utility.yul\":4711:4790   */\n      tag_214\n      tag_187\n      jump\t// in\n    tag_214:\n        /* \"#utility.yul\":4672:4792   */\n    tag_213:\n        /* \"#utility.yul\":4831:4832   */\n      0x00\n        /* \"#utility.yul\":4856:4909   */\n      tag_215\n        /* \"#utility.yul\":4901:4908   */\n      dup8\n        /* \"#utility.yul\":4892:4898   */\n      dup3\n        /* \"#utility.yul\":4881:4890   */\n      dup9\n        /* \"#utility.yul\":4877:4899   */\n      add\n        /* \"#utility.yul\":4856:4909   */\n      tag_180\n      jump\t// in\n    tag_215:\n        /* \"#utility.yul\":4846:4909   */\n      swap5\n      pop\n        /* \"#utility.yul\":4802:4919   */\n      pop\n        /* \"#utility.yul\":4958:4960   */\n      0x20\n        /* \"#utility.yul\":4984:5037   */\n      tag_216\n        /* \"#utility.yul\":5029:5036   */\n      dup8\n        /* \"#utility.yul\":5020:5026   */\n      dup3\n        /* \"#utility.yul\":5009:5018   */\n      dup9\n        /* \"#utility.yul\":5005:5027   */\n      add\n        /* \"#utility.yul\":4984:5037   */\n      tag_180\n      jump\t// in\n    tag_216:\n        /* \"#utility.yul\":4974:5037   */\n      swap4\n      pop\n        /* \"#utility.yul\":4929:5047   */\n      pop\n        /* \"#utility.yul\":5114:5116   */\n      0x40\n        /* \"#utility.yul\":5103:5112   */\n      dup6\n        /* \"#utility.yul\":5099:5117   */\n      add\n        /* \"#utility.yul\":5086:5118   */\n      calldataload\n        /* \"#utility.yul\":5145:5163   */\n      0xffffffffffffffff\n        /* \"#utility.yul\":5137:5143   */\n      dup2\n        /* \"#utility.yul\":5134:5164   */\n      gt\n        /* \"#utility.yul\":5131:5248   */\n      iszero\n      tag_217\n      jumpi\n        /* \"#utility.yul\":5167:5246   */\n      tag_218\n      tag_190\n      jump\t// in\n    tag_218:\n        /* \"#utility.yul\":5131:5248   */\n    tag_217:\n        /* \"#utility.yul\":5272:5335   */\n      tag_219\n        /* \"#utility.yul\":5327:5334   */\n      dup8\n        /* \"#utility.yul\":5318:5324   */\n      dup3\n        /* \"#utility.yul\":5307:5316   */\n      dup9\n        /* \"#utility.yul\":5303:5325   */\n      add\n        /* \"#utility.yul\":5272:5335   */\n      tag_169\n      jump\t// in\n    tag_219:\n        /* \"#utility.yul\":5262:5335   */\n      swap3\n      pop\n        /* \"#utility.yul\":5057:5345   */\n      pop\n        /* \"#utility.yul\":5412:5414   */\n      0x60\n        /* \"#utility.yul\":5401:5410   */\n      dup6\n        /* \"#utility.yul\":5397:5415   */\n      add\n        /* \"#utility.yul\":5384:5416   */\n      calldataload\n        /* \"#utility.yul\":5443:5461   */\n      0xffffffffffffffff\n        /* \"#utility.yul\":5435:5441   */\n      dup2\n        /* \"#utility.yul\":5432:5462   */\n      gt\n        /* \"#utility.yul\":5429:5546   */\n      iszero\n      tag_220\n      jumpi\n        /* \"#utility.yul\":5465:5544   */\n      tag_221\n      tag_190\n      jump\t// in\n    tag_221:\n        /* \"#utility.yul\":5429:5546   */\n    tag_220:\n        /* \"#utility.yul\":5570:5633   */\n      tag_222\n        /* \"#utility.yul\":5625:5632   */\n      dup8\n        /* \"#utility.yul\":5616:5622   */\n      dup3\n        /* \"#utility.yul\":5605:5614   */\n      dup9\n        /* \"#utility.yul\":5601:5623   */\n      add\n        /* \"#utility.yul\":5570:5633   */\n      tag_169\n      jump\t// in\n    tag_222:\n        /* \"#utility.yul\":5560:5633   */\n      swap2\n      pop\n        /* \"#utility.yul\":5355:5643   */\n      pop\n        /* \"#utility.yul\":4525:5650   */\n      swap3\n      swap6\n      swap2\n      swap5\n      pop\n      swap3\n      pop\n      jump\t// out\n        /* \"#utility.yul\":5656:6927   */\n    tag_47:\n        /* \"#utility.yul\":5771:5777   */\n      0x00\n        /* \"#utility.yul\":5779:5785   */\n      dup1\n        /* \"#utility.yul\":5787:5793   */\n      0x00\n        /* \"#utility.yul\":5795:5801   */\n      dup1\n        /* \"#utility.yul\":5803:5809   */\n      0x00\n        /* \"#utility.yul\":5852:5855   */\n      0xa0\n        /* \"#utility.yul\":5840:5849   */\n      dup7\n        /* \"#utility.yul\":5831:5838   */\n      dup9\n        /* \"#utility.yul\":5827:5850   */\n      sub\n        /* \"#utility.yul\":5823:5856   */\n      slt\n        /* \"#utility.yul\":5820:5940   */\n      iszero\n      tag_224\n      jumpi\n        /* \"#utility.yul\":5859:5938   */\n      tag_225\n      tag_187\n      jump\t// in\n    tag_225:\n        /* \"#utility.yul\":5820:5940   */\n    tag_224:\n        /* \"#utility.yul\":5979:5980   */\n      0x00\n        /* \"#utility.yul\":6004:6057   */\n      tag_226\n        /* \"#utility.yul\":6049:6056   */\n      dup9\n        /* \"#utility.yul\":6040:6046   */\n      dup3\n        /* \"#utility.yul\":6029:6038   */\n      dup10\n        /* \"#utility.yul\":6025:6047   */\n      add\n        /* \"#utility.yul\":6004:6057   */\n      tag_180\n      jump\t// in\n    tag_226:\n        /* \"#utility.yul\":5994:6057   */\n      swap6\n      pop\n        /* \"#utility.yul\":5950:6067   */\n      pop\n        /* \"#utility.yul\":6106:6108   */\n      0x20\n        /* \"#utility.yul\":6132:6185   */\n      tag_227\n        /* \"#utility.yul\":6177:6184   */\n      dup9\n        /* \"#utility.yul\":6168:6174   */\n      dup3\n        /* \"#utility.yul\":6157:6166   */\n      dup10\n        /* \"#utility.yul\":6153:6175   */\n      add\n        /* \"#utility.yul\":6132:6185   */\n      tag_180\n      jump\t// in\n    tag_227:\n        /* \"#utility.yul\":6122:6185   */\n      swap5\n      pop\n        /* \"#utility.yul\":6077:6195   */\n      pop\n        /* \"#utility.yul\":6262:6264   */\n      0x40\n        /* \"#utility.yul\":6251:6260   */\n      dup7\n        /* \"#utility.yul\":6247:6265   */\n      add\n        /* \"#utility.yul\":6234:6266   */\n      calldataload\n        /* \"#utility.yul\":6293:6311   */\n      0xffffffffffffffff\n        /* \"#utility.yul\":6285:6291   */\n      dup2\n        /* \"#utility.yul\":6282:6312   */\n      gt\n        /* \"#utility.yul\":6279:6396   */\n      iszero\n      tag_228\n      jumpi\n        /* \"#utility.yul\":6315:6394   */\n      tag_229\n      tag_190\n      jump\t// in\n    tag_229:\n        /* \"#utility.yul\":6279:6396   */\n    tag_228:\n        /* \"#utility.yul\":6420:6483   */\n      tag_230\n        /* \"#utility.yul\":6475:6482   */\n      dup9\n        /* \"#utility.yul\":6466:6472   */\n      dup3\n        /* \"#utility.yul\":6455:6464   */\n      dup10\n        /* \"#utility.yul\":6451:6473   */\n      add\n        /* \"#utility.yul\":6420:6483   */\n      tag_169\n      jump\t// in\n    tag_230:\n        /* \"#utility.yul\":6410:6483   */\n      swap4\n      pop\n        /* \"#utility.yul\":6205:6493   */\n      pop\n        /* \"#utility.yul\":6560:6562   */\n      0x60\n        /* \"#utility.yul\":6549:6558   */\n      dup7\n        /* \"#utility.yul\":6545:6563   */\n      add\n        /* \"#utility.yul\":6532:6564   */\n      calldataload\n        /* \"#utility.yul\":6591:6609   */\n      0xffffffffffffffff\n        /* \"#utility.yul\":6583:6589   */\n      dup2\n        /* \"#utility.yul\":6580:6610   */\n      gt\n        /* \"#utility.yul\":6577:6694   */\n      iszero\n      tag_231\n      jumpi\n        /* \"#utility.yul\":6613:6692   */\n      tag_232\n      tag_190\n      jump\t// in\n    tag_232:\n        /* \"#utility.yul\":6577:6694   */\n    tag_231:\n        /* \"#utility.yul\":6718:6781   */\n      tag_233\n        /* \"#utility.yul\":6773:6780   */\n      dup9\n        /* \"#utility.yul\":6764:6770   */\n      dup3\n        /* \"#utility.yul\":6753:6762   */\n      dup10\n        /* \"#utility.yul\":6749:6771   */\n      add\n        /* \"#utility.yul\":6718:6781   */\n      tag_169\n      jump\t// in\n    tag_233:\n        /* \"#utility.yul\":6708:6781   */\n      swap3\n      pop\n        /* \"#utility.yul\":6503:6791   */\n      pop\n        /* \"#utility.yul\":6830:6833   */\n      0x80\n        /* \"#utility.yul\":6857:6910   */\n      tag_234\n        /* \"#utility.yul\":6902:6909   */\n      dup9\n        /* \"#utility.yul\":6893:6899   */\n      dup3\n        /* \"#utility.yul\":6882:6891   */\n      dup10\n        /* \"#utility.yul\":6878:6900   */\n      add\n        /* \"#utility.yul\":6857:6910   */\n      tag_180\n      jump\t// in\n    tag_234:\n        /* \"#utility.yul\":6847:6910   */\n      swap2\n      pop\n        /* \"#utility.yul\":6801:6920   */\n      pop\n        /* \"#utility.yul\":5656:6927   */\n      swap3\n      swap6\n      pop\n      swap3\n      swap6\n      swap1\n      swap4\n      pop\n      jump\t// out\n        /* \"#utility.yul\":6933:7552   */\n    tag_28:\n        /* \"#utility.yul\":7010:7016   */\n      0x00\n        /* \"#utility.yul\":7018:7024   */\n      dup1\n        /* \"#utility.yul\":7026:7032   */\n      0x00\n        /* \"#utility.yul\":7075:7077   */\n      0x60\n        /* \"#utility.yul\":7063:7072   */\n      dup5\n        /* \"#utility.yul\":7054:7061   */\n      dup7\n        /* \"#utility.yul\":7050:7073   */\n      sub\n        /* \"#utility.yul\":7046:7078   */\n      slt\n        /* \"#utility.yul\":7043:7162   */\n      iszero\n      tag_236\n      jumpi\n        /* \"#utility.yul\":7081:7160   */\n      tag_237\n      tag_187\n      jump\t// in\n    tag_237:\n        /* \"#utility.yul\":7043:7162   */\n    tag_236:\n        /* \"#utility.yul\":7201:7202   */\n      0x00\n        /* \"#utility.yul\":7226:7279   */\n      tag_238\n        /* \"#utility.yul\":7271:7278   */\n      dup7\n        /* \"#utility.yul\":7262:7268   */\n      dup3\n        /* \"#utility.yul\":7251:7260   */\n      dup8\n        /* \"#utility.yul\":7247:7269   */\n      add\n        /* \"#utility.yul\":7226:7279   */\n      tag_180\n      jump\t// in\n    tag_238:\n        /* \"#utility.yul\":7216:7279   */\n      swap4\n      pop\n        /* \"#utility.yul\":7172:7289   */\n      pop\n        /* \"#utility.yul\":7328:7330   */\n      0x20\n        /* \"#utility.yul\":7354:7407   */\n      tag_239\n        /* \"#utility.yul\":7399:7406   */\n      dup7\n        /* \"#utility.yul\":7390:7396   */\n      dup3\n        /* \"#utility.yul\":7379:7388   */\n      dup8\n        /* \"#utility.yul\":7375:7397   */\n      add\n        /* \"#utility.yul\":7354:7407   */\n      tag_180\n      jump\t// in\n    tag_239:\n        /* \"#utility.yul\":7344:7407   */\n      swap3\n      pop\n        /* \"#utility.yul\":7299:7417   */\n      pop\n        /* \"#utility.yul\":7456:7458   */\n      0x40\n        /* \"#utility.yul\":7482:7535   */\n      tag_240\n        /* \"#utility.yul\":7527:7534   */\n      dup7\n        /* \"#utility.yul\":7518:7524   */\n      dup3\n        /* \"#utility.yul\":7507:7516   */\n      dup8\n        /* \"#utility.yul\":7503:7525   */\n      add\n        /* \"#utility.yul\":7482:7535   */\n      tag_180\n      jump\t// in\n    tag_240:\n        /* \"#utility.yul\":7472:7535   */\n      swap2\n      pop\n        /* \"#utility.yul\":7427:7545   */\n      pop\n        /* \"#utility.yul\":6933:7552   */\n      swap3\n      pop\n      swap3\n      pop\n      swap3\n      jump\t// out\n        /* \"#utility.yul\":7558:8829   */\n    tag_59:\n        /* \"#utility.yul\":7673:7679   */\n      0x00\n        /* \"#utility.yul\":7681:7687   */\n      dup1\n        /* \"#utility.yul\":7689:7695   */\n      0x00\n        /* \"#utility.yul\":7697:7703   */\n      dup1\n        /* \"#utility.yul\":7705:7711   */\n      0x00\n        /* \"#utility.yul\":7754:7757   */\n      0xa0\n        /* \"#utility.yul\":7742:7751   */\n      dup7\n        /* \"#utility.yul\":7733:7740   */\n      dup9\n        /* \"#utility.yul\":7729:7752   */\n      sub\n        /* \"#utility.yul\":7725:7758   */\n      slt\n        /* \"#utility.yul\":7722:7842   */\n      iszero\n      tag_242\n      jumpi\n        /* \"#utility.yul\":7761:7840   */\n      tag_243\n      tag_187\n      jump\t// in\n    tag_243:\n        /* \"#utility.yul\":7722:7842   */\n    tag_242:\n        /* \"#utility.yul\":7881:7882   */\n      0x00\n        /* \"#utility.yul\":7906:7959   */\n      tag_244\n        /* \"#utility.yul\":7951:7958   */\n      dup9\n        /* \"#utility.yul\":7942:7948   */\n      dup3\n        /* \"#utility.yul\":7931:7940   */\n      dup10\n        /* \"#utility.yul\":7927:7949   */\n      add\n        /* \"#utility.yul\":7906:7959   */\n      tag_180\n      jump\t// in\n    tag_244:\n        /* \"#utility.yul\":7896:7959   */\n      swap6\n      pop\n        /* \"#utility.yul\":7852:7969   */\n      pop\n        /* \"#utility.yul\":8008:8010   */\n      0x20\n        /* \"#utility.yul\":8034:8087   */\n      tag_245\n        /* \"#utility.yul\":8079:8086   */\n      dup9\n        /* \"#utility.yul\":8070:8076   */\n      dup3\n        /* \"#utility.yul\":8059:8068   */\n      dup10\n        /* \"#utility.yul\":8055:8077   */\n      add\n        /* \"#utility.yul\":8034:8087   */\n      tag_180\n      jump\t// in\n    tag_245:\n        /* \"#utility.yul\":8024:8087   */\n      swap5\n      pop\n        /* \"#utility.yul\":7979:8097   */\n      pop\n        /* \"#utility.yul\":8136:8138   */\n      0x40\n        /* \"#utility.yul\":8162:8215   */\n      tag_246\n        /* \"#utility.yul\":8207:8214   */\n      dup9\n        /* \"#utility.yul\":8198:8204   */\n      dup3\n        /* \"#utility.yul\":8187:8196   */\n      dup10\n        /* \"#utility.yul\":8183:8205   */\n      add\n        /* \"#utility.yul\":8162:8215   */\n      tag_180\n      jump\t// in\n    tag_246:\n        /* \"#utility.yul\":8152:8215   */\n      swap4\n      pop\n        /* \"#utility.yul\":8107:8225   */\n      pop\n        /* \"#utility.yul\":8292:8294   */\n      0x60\n        /* \"#utility.yul\":8281:8290   */\n      dup7\n        /* \"#utility.yul\":8277:8295   */\n      add\n        /* \"#utility.yul\":8264:8296   */\n      calldataload\n        /* \"#utility.yul\":8323:8341   */\n      0xffffffffffffffff\n        /* \"#utility.yul\":8315:8321   */\n      dup2\n        /* \"#utility.yul\":8312:8342   */\n      gt\n        /* \"#utility.yul\":8309:8426   */\n      iszero\n      tag_247\n      jumpi\n        /* \"#utility.yul\":8345:8424   */\n      tag_248\n      tag_190\n      jump\t// in\n    tag_248:\n        /* \"#utility.yul\":8309:8426   */\n    tag_247:\n        /* \"#utility.yul\":8450:8513   */\n      tag_249\n        /* \"#utility.yul\":8505:8512   */\n      dup9\n        /* \"#utility.yul\":8496:8502   */\n      dup3\n        /* \"#utility.yul\":8485:8494   */\n      dup10\n        /* \"#utility.yul\":8481:8503   */\n      add\n        /* \"#utility.yul\":8450:8513   */\n      tag_169\n      jump\t// in\n    tag_249:\n        /* \"#utility.yul\":8440:8513   */\n      swap3\n      pop\n        /* \"#utility.yul\":8235:8523   */\n      pop\n        /* \"#utility.yul\":8590:8593   */\n      0x80\n        /* \"#utility.yul\":8579:8588   */\n      dup7\n        /* \"#utility.yul\":8575:8594   */\n      add\n        /* \"#utility.yul\":8562:8595   */\n      calldataload\n        /* \"#utility.yul\":8622:8640   */\n      0xffffffffffffffff\n        /* \"#utility.yul\":8614:8620   */\n      dup2\n        /* \"#utility.yul\":8611:8641   */\n      gt\n        /* \"#utility.yul\":8608:8725   */\n      iszero\n      tag_250\n      jumpi\n        /* \"#utility.yul\":8644:8723   */\n      tag_251\n      tag_190\n      jump\t// in\n    tag_251:\n        /* \"#utility.yul\":8608:8725   */\n    tag_250:\n        /* \"#utility.yul\":8749:8812   */\n      tag_252\n        /* \"#utility.yul\":8804:8811   */\n      dup9\n        /* \"#utility.yul\":8795:8801   */\n      dup3\n        /* \"#utility.yul\":8784:8793   */\n      dup10\n        /* \"#utility.yul\":8780:8802   */\n      add\n        /* \"#utility.yul\":8749:8812   */\n      tag_169\n      jump\t// in\n    tag_252:\n        /* \"#utility.yul\":8739:8812   */\n      swap2\n      pop\n        /* \"#utility.yul\":8533:8822   */\n      pop\n        /* \"#utility.yul\":7558:8829   */\n      swap3\n      swap6\n      pop\n      swap3\n      swap6\n      swap1\n      swap4\n      pop\n      jump\t// out\n        /* \"#utility.yul\":8835:9199   */\n    tag_253:\n        /* \"#utility.yul\":8923:8926   */\n      0x00\n        /* \"#utility.yul\":8951:8990   */\n      tag_255\n        /* \"#utility.yul\":8984:8989   */\n      dup3\n        /* \"#utility.yul\":8951:8990   */\n      tag_256\n      jump\t// in\n    tag_255:\n        /* \"#utility.yul\":9006:9077   */\n      tag_257\n        /* \"#utility.yul\":9070:9076   */\n      dup2\n        /* \"#utility.yul\":9065:9068   */\n      dup6\n        /* \"#utility.yul\":9006:9077   */\n      tag_258\n      jump\t// in\n    tag_257:\n        /* \"#utility.yul\":8999:9077   */\n      swap4\n      pop\n        /* \"#utility.yul\":9086:9138   */\n      tag_259\n        /* \"#utility.yul\":9131:9137   */\n      dup2\n        /* \"#utility.yul\":9126:9129   */\n      dup6\n        /* \"#utility.yul\":9119:9123   */\n      0x20\n        /* \"#utility.yul\":9112:9117   */\n      dup7\n        /* \"#utility.yul\":9108:9124   */\n      add\n        /* \"#utility.yul\":9086:9138   */\n      tag_164\n      jump\t// in\n    tag_259:\n        /* \"#utility.yul\":9163:9192   */\n      tag_260\n        /* \"#utility.yul\":9185:9191   */\n      dup2\n        /* \"#utility.yul\":9163:9192   */\n      tag_261\n      jump\t// in\n    tag_260:\n        /* \"#utility.yul\":9158:9161   */\n      dup5\n        /* \"#utility.yul\":9154:9193   */\n      add\n        /* \"#utility.yul\":9147:9193   */\n      swap2\n      pop\n        /* \"#utility.yul\":8927:9199   */\n      pop\n        /* \"#utility.yul\":8835:9199   */\n      swap3\n      swap2\n      pop\n      pop\n      jump\t// out\n        /* \"#utility.yul\":9205:9571   */\n    tag_262:\n        /* \"#utility.yul\":9347:9350   */\n      0x00\n        /* \"#utility.yul\":9368:9435   */\n      tag_264\n        /* \"#utility.yul\":9432:9434   */\n      0x21\n        /* \"#utility.yul\":9427:9430   */\n      dup4\n        /* \"#utility.yul\":9368:9435   */\n      tag_258\n      jump\t// in\n    tag_264:\n        /* \"#utility.yul\":9361:9435   */\n      swap2\n      pop\n        /* \"#utility.yul\":9444:9537   */\n      tag_265\n        /* \"#utility.yul\":9533:9536   */\n      dup3\n        /* \"#utility.yul\":9444:9537   */\n      tag_266\n      jump\t// in\n    tag_265:\n        /* \"#utility.yul\":9562:9564   */\n      0x40\n        /* \"#utility.yul\":9557:9560   */\n      dup3\n        /* \"#utility.yul\":9553:9565   */\n      add\n        /* \"#utility.yul\":9546:9565   */\n      swap1\n      pop\n        /* \"#utility.yul\":9205:9571   */\n      swap2\n      swap1\n      pop\n      jump\t// out\n        /* \"#utility.yul\":9577:9943   */\n    tag_267:\n        /* \"#utility.yul\":9719:9722   */\n      0x00\n        /* \"#utility.yul\":9740:9807   */\n      tag_269\n        /* \"#utility.yul\":9804:9806   */\n      0x15\n        /* \"#utility.yul\":9799:9802   */\n      dup4\n        /* \"#utility.yul\":9740:9807   */\n      tag_258\n      jump\t// in\n    tag_269:\n        /* \"#utility.yul\":9733:9807   */\n      swap2\n      pop\n        /* \"#utility.yul\":9816:9909   */\n      tag_270\n        /* \"#utility.yul\":9905:9908   */\n      dup3\n        /* \"#utility.yul\":9816:9909   */\n      tag_271\n      jump\t// in\n    tag_270:\n        /* \"#utility.yul\":9934:9936   */\n      0x20\n        /* \"#utility.yul\":9929:9932   */\n      dup3\n        /* \"#utility.yul\":9925:9937   */\n      add\n        /* \"#utility.yul\":9918:9937   */\n      swap1\n      pop\n        /* \"#utility.yul\":9577:9943   */\n      swap2\n      swap1\n      pop\n      jump\t// out\n        /* \"#utility.yul\":9949:10067   */\n    tag_272:\n        /* \"#utility.yul\":10036:10060   */\n      tag_274\n        /* \"#utility.yul\":10054:10059   */\n      dup2\n        /* \"#utility.yul\":10036:10060   */\n      tag_275\n      jump\t// in\n    tag_274:\n        /* \"#utility.yul\":10031:10034   */\n      dup3\n        /* \"#utility.yul\":10024:10061   */\n      mstore\n        /* \"#utility.yul\":9949:10067   */\n      pop\n      pop\n      jump\t// out\n        /* \"#utility.yul\":10073:10386   */\n    tag_53:\n        /* \"#utility.yul\":10186:10190   */\n      0x00\n        /* \"#utility.yul\":10224:10226   */\n      0x20\n        /* \"#utility.yul\":10213:10222   */\n      dup3\n        /* \"#utility.yul\":10209:10227   */\n      add\n        /* \"#utility.yul\":10201:10227   */\n      swap1\n      pop\n        /* \"#utility.yul\":10273:10282   */\n      dup2\n        /* \"#utility.yul\":10267:10271   */\n      dup2\n        /* \"#utility.yul\":10263:10283   */\n      sub\n        /* \"#utility.yul\":10259:10260   */\n      0x00\n        /* \"#utility.yul\":10248:10257   */\n      dup4\n        /* \"#utility.yul\":10244:10261   */\n      add\n        /* \"#utility.yul\":10237:10284   */\n      mstore\n        /* \"#utility.yul\":10301:10379   */\n      tag_277\n        /* \"#utility.yul\":10374:10378   */\n      dup2\n        /* \"#utility.yul\":10365:10371   */\n      dup5\n        /* \"#utility.yul\":10301:10379   */\n      tag_253\n      jump\t// in\n    tag_277:\n        /* \"#utility.yul\":10293:10379   */\n      swap1\n      pop\n        /* \"#utility.yul\":10073:10386   */\n      swap3\n      swap2\n      pop\n      pop\n      jump\t// out\n        /* \"#utility.yul\":10392:10906   */\n    tag_31:\n        /* \"#utility.yul\":10553:10557   */\n      0x00\n        /* \"#utility.yul\":10591:10593   */\n      0x40\n        /* \"#utility.yul\":10580:10589   */\n      dup3\n        /* \"#utility.yul\":10576:10594   */\n      add\n        /* \"#utility.yul\":10568:10594   */\n      swap1\n      pop\n        /* \"#utility.yul\":10640:10649   */\n      dup2\n        /* \"#utility.yul\":10634:10638   */\n      dup2\n        /* \"#utility.yul\":10630:10650   */\n      sub\n        /* \"#utility.yul\":10626:10627   */\n      0x00\n        /* \"#utility.yul\":10615:10624   */\n      dup4\n        /* \"#utility.yul\":10611:10628   */\n      add\n        /* \"#utility.yul\":10604:10651   */\n      mstore\n        /* \"#utility.yul\":10668:10746   */\n      tag_279\n        /* \"#utility.yul\":10741:10745   */\n      dup2\n        /* \"#utility.yul\":10732:10738   */\n      dup6\n        /* \"#utility.yul\":10668:10746   */\n      tag_253\n      jump\t// in\n    tag_279:\n        /* \"#utility.yul\":10660:10746   */\n      swap1\n      pop\n        /* \"#utility.yul\":10793:10802   */\n      dup2\n        /* \"#utility.yul\":10787:10791   */\n      dup2\n        /* \"#utility.yul\":10783:10803   */\n      sub\n        /* \"#utility.yul\":10778:10780   */\n      0x20\n        /* \"#utility.yul\":10767:10776   */\n      dup4\n        /* \"#utility.yul\":10763:10781   */\n      add\n        /* \"#utility.yul\":10756:10804   */\n      mstore\n        /* \"#utility.yul\":10821:10899   */\n      tag_280\n        /* \"#utility.yul\":10894:10898   */\n      dup2\n        /* \"#utility.yul\":10885:10891   */\n      dup5\n        /* \"#utility.yul\":10821:10899   */\n      tag_253\n      jump\t// in\n    tag_280:\n        /* \"#utility.yul\":10813:10899   */\n      swap1\n      pop\n        /* \"#utility.yul\":10392:10906   */\n      swap4\n      swap3\n      pop\n      pop\n      pop\n      jump\t// out\n        /* \"#utility.yul\":10912:11647   */\n    tag_37:\n        /* \"#utility.yul\":11129:11133   */\n      0x00\n        /* \"#utility.yul\":11167:11170   */\n      0x80\n        /* \"#utility.yul\":11156:11165   */\n      dup3\n        /* \"#utility.yul\":11152:11171   */\n      add\n        /* \"#utility.yul\":11144:11171   */\n      swap1\n      pop\n        /* \"#utility.yul\":11217:11226   */\n      dup2\n        /* \"#utility.yul\":11211:11215   */\n      dup2\n        /* \"#utility.yul\":11207:11227   */\n      sub\n        /* \"#utility.yul\":11203:11204   */\n      0x00\n        /* \"#utility.yul\":11192:11201   */\n      dup4\n        /* \"#utility.yul\":11188:11205   */\n      add\n        /* \"#utility.yul\":11181:11228   */\n      mstore\n        /* \"#utility.yul\":11245:11323   */\n      tag_282\n        /* \"#utility.yul\":11318:11322   */\n      dup2\n        /* \"#utility.yul\":11309:11315   */\n      dup8\n        /* \"#utility.yul\":11245:11323   */\n      tag_253\n      jump\t// in\n    tag_282:\n        /* \"#utility.yul\":11237:11323   */\n      swap1\n      pop\n        /* \"#utility.yul\":11370:11379   */\n      dup2\n        /* \"#utility.yul\":11364:11368   */\n      dup2\n        /* \"#utility.yul\":11360:11380   */\n      sub\n        /* \"#utility.yul\":11355:11357   */\n      0x20\n        /* \"#utility.yul\":11344:11353   */\n      dup4\n        /* \"#utility.yul\":11340:11358   */\n      add\n        /* \"#utility.yul\":11333:11381   */\n      mstore\n        /* \"#utility.yul\":11398:11476   */\n      tag_283\n        /* \"#utility.yul\":11471:11475   */\n      dup2\n        /* \"#utility.yul\":11462:11468   */\n      dup7\n        /* \"#utility.yul\":11398:11476   */\n      tag_253\n      jump\t// in\n    tag_283:\n        /* \"#utility.yul\":11390:11476   */\n      swap1\n      pop\n        /* \"#utility.yul\":11486:11558   */\n      tag_284\n        /* \"#utility.yul\":11554:11556   */\n      0x40\n        /* \"#utility.yul\":11543:11552   */\n      dup4\n        /* \"#utility.yul\":11539:11557   */\n      add\n        /* \"#utility.yul\":11530:11536   */\n      dup6\n        /* \"#utility.yul\":11486:11558   */\n      tag_272\n      jump\t// in\n    tag_284:\n        /* \"#utility.yul\":11568:11640   */\n      tag_285\n        /* \"#utility.yul\":11636:11638   */\n      0x60\n        /* \"#utility.yul\":11625:11634   */\n      dup4\n        /* \"#utility.yul\":11621:11639   */\n      add\n        /* \"#utility.yul\":11612:11618   */\n      dup5\n        /* \"#utility.yul\":11568:11640   */\n      tag_272\n      jump\t// in\n    tag_285:\n        /* \"#utility.yul\":10912:11647   */\n      swap6\n      swap5\n      pop\n      pop\n      pop\n      pop\n      pop\n      jump\t// out\n        /* \"#utility.yul\":11653:12072   */\n    tag_71:\n        /* \"#utility.yul\":11819:11823   */\n      0x00\n        /* \"#utility.yul\":11857:11859   */\n      0x20\n        /* \"#utility.yul\":11846:11855   */\n      dup3\n        /* \"#utility.yul\":11842:11860   */\n      add\n        /* \"#utility.yul\":11834:11860   */\n      swap1\n      pop\n        /* \"#utility.yul\":11906:11915   */\n      dup2\n        /* \"#utility.yul\":11900:11904   */\n      dup2\n        /* \"#utility.yul\":11896:11916   */\n      sub\n        /* \"#utility.yul\":11892:11893   */\n      0x00\n        /* \"#utility.yul\":11881:11890   */\n      dup4\n        /* \"#utility.yul\":11877:11894   */\n      add\n        /* \"#utility.yul\":11870:11917   */\n      mstore\n        /* \"#utility.yul\":11934:12065   */\n      tag_287\n        /* \"#utility.yul\":12060:12064   */\n      dup2\n        /* \"#utility.yul\":11934:12065   */\n      tag_262\n      jump\t// in\n    tag_287:\n        /* \"#utility.yul\":11926:12065   */\n      swap1\n      pop\n        /* \"#utility.yul\":11653:12072   */\n      swap2\n      swap1\n      pop\n      jump\t// out\n        /* \"#utility.yul\":12078:12497   */\n    tag_64:\n        /* \"#utility.yul\":12244:12248   */\n      0x00\n        /* \"#utility.yul\":12282:12284   */\n      0x20\n        /* \"#utility.yul\":12271:12280   */\n      dup3\n        /* \"#utility.yul\":12267:12285   */\n      add\n        /* \"#utility.yul\":12259:12285   */\n      swap1\n      pop\n        /* \"#utility.yul\":12331:12340   */\n      dup2\n        /* \"#utility.yul\":12325:12329   */\n      dup2\n        /* \"#utility.yul\":12321:12341   */\n      sub\n        /* \"#utility.yul\":12317:12318   */\n      0x00\n        /* \"#utility.yul\":12306:12315   */\n      dup4\n        /* \"#utility.yul\":12302:12319   */\n      add\n        /* \"#utility.yul\":12295:12342   */\n      mstore\n        /* \"#utility.yul\":12359:12490   */\n      tag_289\n        /* \"#utility.yul\":12485:12489   */\n      dup2\n        /* \"#utility.yul\":12359:12490   */\n      tag_267\n      jump\t// in\n    tag_289:\n        /* \"#utility.yul\":12351:12490   */\n      swap1\n      pop\n        /* \"#utility.yul\":12078:12497   */\n      swap2\n      swap1\n      pop\n      jump\t// out\n        /* \"#utility.yul\":12503:12725   */\n    tag_22:\n        /* \"#utility.yul\":12596:12600   */\n      0x00\n        /* \"#utility.yul\":12634:12636   */\n      0x20\n        /* \"#utility.yul\":12623:12632   */\n      dup3\n        /* \"#utility.yul\":12619:12637   */\n      add\n        /* \"#utility.yul\":12611:12637   */\n      swap1\n      pop\n        /* \"#utility.yul\":12647:12718   */\n      tag_291\n        /* \"#utility.yul\":12715:12716   */\n      0x00\n        /* \"#utility.yul\":12704:12713   */\n      dup4\n        /* \"#utility.yul\":12700:12717   */\n      add\n        /* \"#utility.yul\":12691:12697   */\n      dup5\n        /* \"#utility.yul\":12647:12718   */\n      tag_272\n      jump\t// in\n    tag_291:\n        /* \"#utility.yul\":12503:12725   */\n      swap3\n      swap2\n      pop\n      pop\n      jump\t// out\n        /* \"#utility.yul\":12731:13063   */\n    tag_107:\n        /* \"#utility.yul\":12852:12856   */\n      0x00\n        /* \"#utility.yul\":12890:12892   */\n      0x40\n        /* \"#utility.yul\":12879:12888   */\n      dup3\n        /* \"#utility.yul\":12875:12893   */\n      add\n        /* \"#utility.yul\":12867:12893   */\n      swap1\n      pop\n        /* \"#utility.yul\":12903:12974   */\n      tag_293\n        /* \"#utility.yul\":12971:12972   */\n      0x00\n        /* \"#utility.yul\":12960:12969   */\n      dup4\n        /* \"#utility.yul\":12956:12973   */\n      add\n        /* \"#utility.yul\":12947:12953   */\n      dup6\n        /* \"#utility.yul\":12903:12974   */\n      tag_272\n      jump\t// in\n    tag_293:\n        /* \"#utility.yul\":12984:13056   */\n      tag_294\n        /* \"#utility.yul\":13052:13054   */\n      0x20\n        /* \"#utility.yul\":13041:13050   */\n      dup4\n        /* \"#utility.yul\":13037:13055   */\n      add\n        /* \"#utility.yul\":13028:13034   */\n      dup5\n        /* \"#utility.yul\":12984:13056   */\n      tag_272\n      jump\t// in\n    tag_294:\n        /* \"#utility.yul\":12731:13063   */\n      swap4\n      swap3\n      pop\n      pop\n      pop\n      jump\t// out\n        /* \"#utility.yul\":13069:13804   */\n    tag_110:\n        /* \"#utility.yul\":13286:13290   */\n      0x00\n        /* \"#utility.yul\":13324:13327   */\n      0x80\n        /* \"#utility.yul\":13313:13322   */\n      dup3\n        /* \"#utility.yul\":13309:13328   */\n      add\n        /* \"#utility.yul\":13301:13328   */\n      swap1\n      pop\n        /* \"#utility.yul\":13338:13409   */\n      tag_296\n        /* \"#utility.yul\":13406:13407   */\n      0x00\n        /* \"#utility.yul\":13395:13404   */\n      dup4\n        /* \"#utility.yul\":13391:13408   */\n      add\n        /* \"#utility.yul\":13382:13388   */\n      dup8\n        /* \"#utility.yul\":13338:13409   */\n      tag_272\n      jump\t// in\n    tag_296:\n        /* \"#utility.yul\":13419:13491   */\n      tag_297\n        /* \"#utility.yul\":13487:13489   */\n      0x20\n        /* \"#utility.yul\":13476:13485   */\n      dup4\n        /* \"#utility.yul\":13472:13490   */\n      add\n        /* \"#utility.yul\":13463:13469   */\n      dup7\n        /* \"#utility.yul\":13419:13491   */\n      tag_272\n      jump\t// in\n    tag_297:\n        /* \"#utility.yul\":13538:13547   */\n      dup2\n        /* \"#utility.yul\":13532:13536   */\n      dup2\n        /* \"#utility.yul\":13528:13548   */\n      sub\n        /* \"#utility.yul\":13523:13525   */\n      0x40\n        /* \"#utility.yul\":13512:13521   */\n      dup4\n        /* \"#utility.yul\":13508:13526   */\n      add\n        /* \"#utility.yul\":13501:13549   */\n      mstore\n        /* \"#utility.yul\":13566:13644   */\n      tag_298\n        /* \"#utility.yul\":13639:13643   */\n      dup2\n        /* \"#utility.yul\":13630:13636   */\n      dup6\n        /* \"#utility.yul\":13566:13644   */\n      tag_253\n      jump\t// in\n    tag_298:\n        /* \"#utility.yul\":13558:13644   */\n      swap1\n      pop\n        /* \"#utility.yul\":13691:13700   */\n      dup2\n        /* \"#utility.yul\":13685:13689   */\n      dup2\n        /* \"#utility.yul\":13681:13701   */\n      sub\n        /* \"#utility.yul\":13676:13678   */\n      0x60\n        /* \"#utility.yul\":13665:13674   */\n      dup4\n        /* \"#utility.yul\":13661:13679   */\n      add\n        /* \"#utility.yul\":13654:13702   */\n      mstore\n        /* \"#utility.yul\":13719:13797   */\n      tag_299\n        /* \"#utility.yul\":13792:13796   */\n      dup2\n        /* \"#utility.yul\":13783:13789   */\n      dup5\n        /* \"#utility.yul\":13719:13797   */\n      tag_253\n      jump\t// in\n    tag_299:\n        /* \"#utility.yul\":13711:13797   */\n      swap1\n      pop\n        /* \"#utility.yul\":13069:13804   */\n      swap6\n      swap5\n      pop\n      pop\n      pop\n      pop\n      pop\n      jump\t// out\n        /* \"#utility.yul\":13810:14656   */\n    tag_79:\n        /* \"#utility.yul\":14055:14059   */\n      0x00\n        /* \"#utility.yul\":14093:14096   */\n      0xa0\n        /* \"#utility.yul\":14082:14091   */\n      dup3\n        /* \"#utility.yul\":14078:14097   */\n      add\n        /* \"#utility.yul\":14070:14097   */\n      swap1\n      pop\n        /* \"#utility.yul\":14107:14178   */\n      tag_301\n        /* \"#utility.yul\":14175:14176   */\n      0x00\n        /* \"#utility.yul\":14164:14173   */\n      dup4\n        /* \"#utility.yul\":14160:14177   */\n      add\n        /* \"#utility.yul\":14151:14157   */\n      dup9\n        /* \"#utility.yul\":14107:14178   */\n      tag_272\n      jump\t// in\n    tag_301:\n        /* \"#utility.yul\":14188:14260   */\n      tag_302\n        /* \"#utility.yul\":14256:14258   */\n      0x20\n        /* \"#utility.yul\":14245:14254   */\n      dup4\n        /* \"#utility.yul\":14241:14259   */\n      add\n        /* \"#utility.yul\":14232:14238   */\n      dup8\n        /* \"#utility.yul\":14188:14260   */\n      tag_272\n      jump\t// in\n    tag_302:\n        /* \"#utility.yul\":14307:14316   */\n      dup2\n        /* \"#utility.yul\":14301:14305   */\n      dup2\n        /* \"#utility.yul\":14297:14317   */\n      sub\n        /* \"#utility.yul\":14292:14294   */\n      0x40\n        /* \"#utility.yul\":14281:14290   */\n      dup4\n        /* \"#utility.yul\":14277:14295   */\n      add\n        /* \"#utility.yul\":14270:14318   */\n      mstore\n        /* \"#utility.yul\":14335:14413   */\n      tag_303\n        /* \"#utility.yul\":14408:14412   */\n      dup2\n        /* \"#utility.yul\":14399:14405   */\n      dup7\n        /* \"#utility.yul\":14335:14413   */\n      tag_253\n      jump\t// in\n    tag_303:\n        /* \"#utility.yul\":14327:14413   */\n      swap1\n      pop\n        /* \"#utility.yul\":14460:14469   */\n      dup2\n        /* \"#utility.yul\":14454:14458   */\n      dup2\n        /* \"#utility.yul\":14450:14470   */\n      sub\n        /* \"#utility.yul\":14445:14447   */\n      0x60\n        /* \"#utility.yul\":14434:14443   */\n      dup4\n        /* \"#utility.yul\":14430:14448   */\n      add\n        /* \"#utility.yul\":14423:14471   */\n      mstore\n        /* \"#utility.yul\":14488:14566   */\n      tag_304\n        /* \"#utility.yul\":14561:14565   */\n      dup2\n        /* \"#utility.yul\":14552:14558   */\n      dup6\n        /* \"#utility.yul\":14488:14566   */\n      tag_253\n      jump\t// in\n    tag_304:\n        /* \"#utility.yul\":14480:14566   */\n      swap1\n      pop\n        /* \"#utility.yul\":14576:14649   */\n      tag_305\n        /* \"#utility.yul\":14644:14647   */\n      0x80\n        /* \"#utility.yul\":14633:14642   */\n      dup4\n        /* \"#utility.yul\":14629:14648   */\n      add\n        /* \"#utility.yul\":14620:14626   */\n      dup5\n        /* \"#utility.yul\":14576:14649   */\n      tag_272\n      jump\t// in\n    tag_305:\n        /* \"#utility.yul\":13810:14656   */\n      swap7\n      swap6\n      pop\n      pop\n      pop\n      pop\n      pop\n      pop\n      jump\t// out\n        /* \"#utility.yul\":14662:15104   */\n    tag_85:\n        /* \"#utility.yul\":14811:14815   */\n      0x00\n        /* \"#utility.yul\":14849:14851   */\n      0x60\n        /* \"#utility.yul\":14838:14847   */\n      dup3\n        /* \"#utility.yul\":14834:14852   */\n      add\n        /* \"#utility.yul\":14826:14852   */\n      swap1\n      pop\n        /* \"#utility.yul\":14862:14933   */\n      tag_307\n        /* \"#utility.yul\":14930:14931   */\n      0x00\n        /* \"#utility.yul\":14919:14928   */\n      dup4\n        /* \"#utility.yul\":14915:14932   */\n      add\n        /* \"#utility.yul\":14906:14912   */\n      dup7\n        /* \"#utility.yul\":14862:14933   */\n      tag_272\n      jump\t// in\n    tag_307:\n        /* \"#utility.yul\":14943:15015   */\n      tag_308\n        /* \"#utility.yul\":15011:15013   */\n      0x20\n        /* \"#utility.yul\":15000:15009   */\n      dup4\n        /* \"#utility.yul\":14996:15014   */\n      add\n        /* \"#utility.yul\":14987:14993   */\n      dup6\n        /* \"#utility.yul\":14943:15015   */\n      tag_272\n      jump\t// in\n    tag_308:\n        /* \"#utility.yul\":15025:15097   */\n      tag_309\n        /* \"#utility.yul\":15093:15095   */\n      0x40\n        /* \"#utility.yul\":15082:15091   */\n      dup4\n        /* \"#utility.yul\":15078:15096   */\n      add\n        /* \"#utility.yul\":15069:15075   */\n      dup5\n        /* \"#utility.yul\":15025:15097   */\n      tag_272\n      jump\t// in\n    tag_309:\n        /* \"#utility.yul\":14662:15104   */\n      swap5\n      swap4\n      pop\n      pop\n      pop\n      pop\n      jump\t// out\n        /* \"#utility.yul\":15110:15956   */\n    tag_131:\n        /* \"#utility.yul\":15355:15359   */\n      0x00\n        /* \"#utility.yul\":15393:15396   */\n      0xa0\n        /* \"#utility.yul\":15382:15391   */\n      dup3\n        /* \"#utility.yul\":15378:15397   */\n      add\n        /* \"#utility.yul\":15370:15397   */\n      swap1\n      pop\n        /* \"#utility.yul\":15407:15478   */\n      tag_311\n        /* \"#utility.yul\":15475:15476   */\n      0x00\n        /* \"#utility.yul\":15464:15473   */\n      dup4\n        /* \"#utility.yul\":15460:15477   */\n      add\n        /* \"#utility.yul\":15451:15457   */\n      dup9\n        /* \"#utility.yul\":15407:15478   */\n      tag_272\n      jump\t// in\n    tag_311:\n        /* \"#utility.yul\":15488:15560   */\n      tag_312\n        /* \"#utility.yul\":15556:15558   */\n      0x20\n        /* \"#utility.yul\":15545:15554   */\n      dup4\n        /* \"#utility.yul\":15541:15559   */\n      add\n        /* \"#utility.yul\":15532:15538   */\n      dup8\n        /* \"#utility.yul\":15488:15560   */\n      tag_272\n      jump\t// in\n    tag_312:\n        /* \"#utility.yul\":15570:15642   */\n      tag_313\n        /* \"#utility.yul\":15638:15640   */\n      0x40\n        /* \"#utility.yul\":15627:15636   */\n      dup4\n        /* \"#utility.yul\":15623:15641   */\n      add\n        /* \"#utility.yul\":15614:15620   */\n      dup7\n        /* \"#utility.yul\":15570:15642   */\n      tag_272\n      jump\t// in\n    tag_313:\n        /* \"#utility.yul\":15689:15698   */\n      dup2\n        /* \"#utility.yul\":15683:15687   */\n      dup2\n        /* \"#utility.yul\":15679:15699   */\n      sub\n        /* \"#utility.yul\":15674:15676   */\n      0x60\n        /* \"#utility.yul\":15663:15672   */\n      dup4\n        /* \"#utility.yul\":15659:15677   */\n      add\n        /* \"#utility.yul\":15652:15700   */\n      mstore\n        /* \"#utility.yul\":15717:15795   */\n      tag_314\n        /* \"#utility.yul\":15790:15794   */\n      dup2\n        /* \"#utility.yul\":15781:15787   */\n      dup6\n        /* \"#utility.yul\":15717:15795   */\n      tag_253\n      jump\t// in\n    tag_314:\n        /* \"#utility.yul\":15709:15795   */\n      swap1\n      pop\n        /* \"#utility.yul\":15843:15852   */\n      dup2\n        /* \"#utility.yul\":15837:15841   */\n      dup2\n        /* \"#utility.yul\":15833:15853   */\n      sub\n        /* \"#utility.yul\":15827:15830   */\n      0x80\n        /* \"#utility.yul\":15816:15825   */\n      dup4\n        /* \"#utility.yul\":15812:15831   */\n      add\n        /* \"#utility.yul\":15805:15854   */\n      mstore\n        /* \"#utility.yul\":15871:15949   */\n      tag_315\n        /* \"#utility.yul\":15944:15948   */\n      dup2\n        /* \"#utility.yul\":15935:15941   */\n      dup5\n        /* \"#utility.yul\":15871:15949   */\n      tag_253\n      jump\t// in\n    tag_315:\n        /* \"#utility.yul\":15863:15949   */\n      swap1\n      pop\n        /* \"#utility.yul\":15110:15956   */\n      swap7\n      swap6\n      pop\n      pop\n      pop\n      pop\n      pop\n      pop\n      jump\t// out\n        /* \"#utility.yul\":15962:16091   */\n    tag_151:\n        /* \"#utility.yul\":15996:16002   */\n      0x00\n        /* \"#utility.yul\":16023:16043   */\n      tag_317\n      tag_318\n      jump\t// in\n    tag_317:\n        /* \"#utility.yul\":16013:16043   */\n      swap1\n      pop\n        /* \"#utility.yul\":16052:16085   */\n      tag_319\n        /* \"#utility.yul\":16080:16084   */\n      dup3\n        /* \"#utility.yul\":16072:16078   */\n      dup3\n        /* \"#utility.yul\":16052:16085   */\n      tag_320\n      jump\t// in\n    tag_319:\n        /* \"#utility.yul\":15962:16091   */\n      swap2\n      swap1\n      pop\n      jump\t// out\n        /* \"#utility.yul\":16097:16172   */\n    tag_318:\n        /* \"#utility.yul\":16130:16136   */\n      0x00\n        /* \"#utility.yul\":16163:16165   */\n      0x40\n        /* \"#utility.yul\":16157:16166   */\n      mload\n        /* \"#utility.yul\":16147:16166   */\n      swap1\n      pop\n        /* \"#utility.yul\":16097:16172   */\n      swap1\n      jump\t// out\n        /* \"#utility.yul\":16178:16486   */\n    tag_150:\n        /* \"#utility.yul\":16240:16244   */\n      0x00\n        /* \"#utility.yul\":16330:16348   */\n      0xffffffffffffffff\n        /* \"#utility.yul\":16322:16328   */\n      dup3\n        /* \"#utility.yul\":16319:16349   */\n      gt\n        /* \"#utility.yul\":16316:16372   */\n      iszero\n      tag_323\n      jumpi\n        /* \"#utility.yul\":16352:16370   */\n      tag_324\n      tag_325\n      jump\t// in\n    tag_324:\n        /* \"#utility.yul\":16316:16372   */\n    tag_323:\n        /* \"#utility.yul\":16390:16419   */\n      tag_326\n        /* \"#utility.yul\":16412:16418   */\n      dup3\n        /* \"#utility.yul\":16390:16419   */\n      tag_261\n      jump\t// in\n    tag_326:\n        /* \"#utility.yul\":16382:16419   */\n      swap1\n      pop\n        /* \"#utility.yul\":16474:16478   */\n      0x20\n        /* \"#utility.yul\":16468:16472   */\n      dup2\n        /* \"#utility.yul\":16464:16479   */\n      add\n        /* \"#utility.yul\":16456:16479   */\n      swap1\n      pop\n        /* \"#utility.yul\":16178:16486   */\n      swap2\n      swap1\n      pop\n      jump\t// out\n        /* \"#utility.yul\":16492:16591   */\n    tag_256:\n        /* \"#utility.yul\":16544:16550   */\n      0x00\n        /* \"#utility.yul\":16578:16583   */\n      dup2\n        /* \"#utility.yul\":16572:16584   */\n      mload\n        /* \"#utility.yul\":16562:16584   */\n      swap1\n      pop\n        /* \"#utility.yul\":16492:16591   */\n      swap2\n      swap1\n      pop\n      jump\t// out\n        /* \"#utility.yul\":16597:16766   */\n    tag_258:\n        /* \"#utility.yul\":16681:16692   */\n      0x00\n        /* \"#utility.yul\":16715:16721   */\n      dup3\n        /* \"#utility.yul\":16710:16713   */\n      dup3\n        /* \"#utility.yul\":16703:16722   */\n      mstore\n        /* \"#utility.yul\":16755:16759   */\n      0x20\n        /* \"#utility.yul\":16750:16753   */\n      dup3\n        /* \"#utility.yul\":16746:16760   */\n      add\n        /* \"#utility.yul\":16731:16760   */\n      swap1\n      pop\n        /* \"#utility.yul\":16597:16766   */\n      swap3\n      swap2\n      pop\n      pop\n      jump\t// out\n        /* \"#utility.yul\":16772:16876   */\n    tag_329:\n        /* \"#utility.yul\":16817:16824   */\n      0x00\n        /* \"#utility.yul\":16846:16870   */\n      tag_331\n        /* \"#utility.yul\":16864:16869   */\n      dup3\n        /* \"#utility.yul\":16846:16870   */\n      tag_332\n      jump\t// in\n    tag_331:\n        /* \"#utility.yul\":16835:16870   */\n      swap1\n      pop\n        /* \"#utility.yul\":16772:16876   */\n      swap2\n      swap1\n      pop\n      jump\t// out\n        /* \"#utility.yul\":16882:17008   */\n    tag_332:\n        /* \"#utility.yul\":16919:16926   */\n      0x00\n        /* \"#utility.yul\":16959:17001   */\n      0xffffffffffffffffffffffffffffffffffffffff\n        /* \"#utility.yul\":16952:16957   */\n      dup3\n        /* \"#utility.yul\":16948:17002   */\n      and\n        /* \"#utility.yul\":16937:17002   */\n      swap1\n      pop\n        /* \"#utility.yul\":16882:17008   */\n      swap2\n      swap1\n      pop\n      jump\t// out\n        /* \"#utility.yul\":17014:17091   */\n    tag_275:\n        /* \"#utility.yul\":17051:17058   */\n      0x00\n        /* \"#utility.yul\":17080:17085   */\n      dup2\n        /* \"#utility.yul\":17069:17085   */\n      swap1\n      pop\n        /* \"#utility.yul\":17014:17091   */\n      swap2\n      swap1\n      pop\n      jump\t// out\n        /* \"#utility.yul\":17097:17251   */\n    tag_156:\n        /* \"#utility.yul\":17181:17187   */\n      dup3\n        /* \"#utility.yul\":17176:17179   */\n      dup2\n        /* \"#utility.yul\":17171:17174   */\n      dup4\n        /* \"#utility.yul\":17158:17188   */\n      calldatacopy\n        /* \"#utility.yul\":17243:17244   */\n      0x00\n        /* \"#utility.yul\":17234:17240   */\n      dup4\n        /* \"#utility.yul\":17229:17232   */\n      dup4\n        /* \"#utility.yul\":17225:17241   */\n      add\n        /* \"#utility.yul\":17218:17245   */\n      mstore\n        /* \"#utility.yul\":17097:17251   */\n      pop\n      pop\n      pop\n      jump\t// out\n        /* \"#utility.yul\":17257:17564   */\n    tag_164:\n        /* \"#utility.yul\":17325:17326   */\n      0x00\n        /* \"#utility.yul\":17335:17448   */\n    tag_337:\n        /* \"#utility.yul\":17349:17355   */\n      dup4\n        /* \"#utility.yul\":17346:17347   */\n      dup2\n        /* \"#utility.yul\":17343:17356   */\n      lt\n        /* \"#utility.yul\":17335:17448   */\n      iszero\n      tag_339\n      jumpi\n        /* \"#utility.yul\":17434:17435   */\n      dup1\n        /* \"#utility.yul\":17429:17432   */\n      dup3\n        /* \"#utility.yul\":17425:17436   */\n      add\n        /* \"#utility.yul\":17419:17437   */\n      mload\n        /* \"#utility.yul\":17415:17416   */\n      dup2\n        /* \"#utility.yul\":17410:17413   */\n      dup5\n        /* \"#utility.yul\":17406:17417   */\n      add\n        /* \"#utility.yul\":17399:17438   */\n      mstore\n        /* \"#utility.yul\":17371:17373   */\n      0x20\n        /* \"#utility.yul\":17368:17369   */\n      dup2\n        /* \"#utility.yul\":17364:17374   */\n      add\n        /* \"#utility.yul\":17359:17374   */\n      swap1\n      pop\n        /* \"#utility.yul\":17335:17448   */\n      jump(tag_337)\n    tag_339:\n        /* \"#utility.yul\":17466:17472   */\n      dup4\n        /* \"#utility.yul\":17463:17464   */\n      dup2\n        /* \"#utility.yul\":17460:17473   */\n      gt\n        /* \"#utility.yul\":17457:17558   */\n      iszero\n      tag_340\n      jumpi\n        /* \"#utility.yul\":17546:17547   */\n      0x00\n        /* \"#utility.yul\":17537:17543   */\n      dup5\n        /* \"#utility.yul\":17532:17535   */\n      dup5\n        /* \"#utility.yul\":17528:17544   */\n      add\n        /* \"#utility.yul\":17521:17548   */\n      mstore\n        /* \"#utility.yul\":17457:17558   */\n    tag_340:\n        /* \"#utility.yul\":17306:17564   */\n      pop\n        /* \"#utility.yul\":17257:17564   */\n      pop\n      pop\n      pop\n      jump\t// out\n        /* \"#utility.yul\":17570:17741   */\n    tag_105:\n        /* \"#utility.yul\":17609:17612   */\n      0x00\n        /* \"#utility.yul\":17632:17656   */\n      tag_342\n        /* \"#utility.yul\":17650:17655   */\n      dup3\n        /* \"#utility.yul\":17632:17656   */\n      tag_275\n      jump\t// in\n    tag_342:\n        /* \"#utility.yul\":17623:17656   */\n      swap2\n      pop\n        /* \"#utility.yul\":17678:17682   */\n      0x00\n        /* \"#utility.yul\":17671:17676   */\n      dup3\n        /* \"#utility.yul\":17668:17683   */\n      eq\n        /* \"#utility.yul\":17665:17706   */\n      iszero\n      tag_343\n      jumpi\n        /* \"#utility.yul\":17686:17704   */\n      tag_344\n      tag_345\n      jump\t// in\n    tag_344:\n        /* \"#utility.yul\":17665:17706   */\n    tag_343:\n        /* \"#utility.yul\":17733:17734   */\n      0x01\n        /* \"#utility.yul\":17726:17731   */\n      dup3\n        /* \"#utility.yul\":17722:17735   */\n      sub\n        /* \"#utility.yul\":17715:17735   */\n      swap1\n      pop\n        /* \"#utility.yul\":17570:17741   */\n      swap2\n      swap1\n      pop\n      jump\t// out\n        /* \"#utility.yul\":17747:18067   */\n    tag_93:\n        /* \"#utility.yul\":17791:17797   */\n      0x00\n        /* \"#utility.yul\":17828:17829   */\n      0x02\n        /* \"#utility.yul\":17822:17826   */\n      dup3\n        /* \"#utility.yul\":17818:17830   */\n      div\n        /* \"#utility.yul\":17808:17830   */\n      swap1\n      pop\n        /* \"#utility.yul\":17875:17876   */\n      0x01\n        /* \"#utility.yul\":17869:17873   */\n      dup3\n        /* \"#utility.yul\":17865:17877   */\n      and\n        /* \"#utility.yul\":17896:17914   */\n      dup1\n        /* \"#utility.yul\":17886:17967   */\n      tag_347\n      jumpi\n        /* \"#utility.yul\":17952:17956   */\n      0x7f\n        /* \"#utility.yul\":17944:17950   */\n      dup3\n        /* \"#utility.yul\":17940:17957   */\n      and\n        /* \"#utility.yul\":17930:17957   */\n      swap2\n      pop\n        /* \"#utility.yul\":17886:17967   */\n    tag_347:\n        /* \"#utility.yul\":18014:18016   */\n      0x20\n        /* \"#utility.yul\":18006:18012   */\n      dup3\n        /* \"#utility.yul\":18003:18017   */\n      lt\n        /* \"#utility.yul\":17983:18001   */\n      dup2\n        /* \"#utility.yul\":17980:18018   */\n      eq\n        /* \"#utility.yul\":17977:18061   */\n      iszero\n      tag_348\n      jumpi\n        /* \"#utility.yul\":18033:18051   */\n      tag_349\n      tag_350\n      jump\t// in\n    tag_349:\n        /* \"#utility.yul\":17977:18061   */\n    tag_348:\n        /* \"#utility.yul\":17798:18067   */\n      pop\n        /* \"#utility.yul\":17747:18067   */\n      swap2\n      swap1\n      pop\n      jump\t// out\n        /* \"#utility.yul\":18073:18354   */\n    tag_320:\n        /* \"#utility.yul\":18156:18183   */\n      tag_352\n        /* \"#utility.yul\":18178:18182   */\n      dup3\n        /* \"#utility.yul\":18156:18183   */\n      tag_261\n      jump\t// in\n    tag_352:\n        /* \"#utility.yul\":18148:18154   */\n      dup2\n        /* \"#utility.yul\":18144:18184   */\n      add\n        /* \"#utility.yul\":18286:18292   */\n      dup2\n        /* \"#utility.yul\":18274:18284   */\n      dup2\n        /* \"#utility.yul\":18271:18293   */\n      lt\n        /* \"#utility.yul\":18250:18268   */\n      0xffffffffffffffff\n        /* \"#utility.yul\":18238:18248   */\n      dup3\n        /* \"#utility.yul\":18235:18269   */\n      gt\n        /* \"#utility.yul\":18232:18294   */\n      or\n        /* \"#utility.yul\":18229:18317   */\n      iszero\n      tag_353\n      jumpi\n        /* \"#utility.yul\":18297:18315   */\n      tag_354\n      tag_325\n      jump\t// in\n    tag_354:\n        /* \"#utility.yul\":18229:18317   */\n    tag_353:\n        /* \"#utility.yul\":18337:18347   */\n      dup1\n        /* \"#utility.yul\":18333:18335   */\n      0x40\n        /* \"#utility.yul\":18326:18348   */\n      mstore\n        /* \"#utility.yul\":18116:18354   */\n      pop\n        /* \"#utility.yul\":18073:18354   */\n      pop\n      pop\n      jump\t// out\n        /* \"#utility.yul\":18360:18593   */\n    tag_81:\n        /* \"#utility.yul\":18399:18402   */\n      0x00\n        /* \"#utility.yul\":18422:18446   */\n      tag_356\n        /* \"#utility.yul\":18440:18445   */\n      dup3\n        /* \"#utility.yul\":18422:18446   */\n      tag_275\n      jump\t// in\n    tag_356:\n        /* \"#utility.yul\":18413:18446   */\n      swap2\n      pop\n        /* \"#utility.yul\":18468:18534   */\n      0xffffffffffffffffffffffffffffffffffffffffffffffffffffffffffffffff\n        /* \"#utility.yul\":18461:18466   */\n      dup3\n        /* \"#utility.yul\":18458:18535   */\n      eq\n        /* \"#utility.yul\":18455:18558   */\n      iszero\n      tag_357\n      jumpi\n        /* \"#utility.yul\":18538:18556   */\n      tag_358\n      tag_345\n      jump\t// in\n    tag_358:\n        /* \"#utility.yul\":18455:18558   */\n    tag_357:\n        /* \"#utility.yul\":18585:18586   */\n      0x01\n        /* \"#utility.yul\":18578:18583   */\n      dup3\n        /* \"#utility.yul\":18574:18587   */\n      add\n        /* \"#utility.yul\":18567:18587   */\n      swap1\n      pop\n        /* \"#utility.yul\":18360:18593   */\n      swap2\n      swap1\n      pop\n      jump\t// out\n        /* \"#utility.yul\":18599:18779   */\n    tag_345:\n        /* \"#utility.yul\":18647:18724   */\n      0x4e487b7100000000000000000000000000000000000000000000000000000000\n        /* \"#utility.yul\":18644:18645   */\n      0x00\n        /* \"#utility.yul\":18637:18725   */\n      mstore\n        /* \"#utility.yul\":18744:18748   */\n      0x11\n        /* \"#utility.yul\":18741:18742   */\n      0x04\n        /* \"#utility.yul\":18734:18749   */\n      mstore\n        /* \"#utility.yul\":18768:18772   */\n      0x24\n        /* \"#utility.yul\":18765:18766   */\n      0x00\n        /* \"#utility.yul\":18758:18773   */\n      revert\n        /* \"#utility.yul\":18785:18965   */\n    tag_77:\n        /* \"#utility.yul\":18833:18910   */\n      0x4e487b7100000000000000000000000000000000000000000000000000000000\n        /* \"#utility.yul\":18830:18831   */\n      0x00\n        /* \"#utility.yul\":18823:18911   */\n      mstore\n        /* \"#utility.yul\":18930:18934   */\n      0x21\n        /* \"#utility.yul\":18927:18928   */\n      0x04\n        /* \"#utility.yul\":18920:18935   */\n      mstore\n        /* \"#utility.yul\":18954:18958   */\n      0x24\n        /* \"#utility.yul\":18951:18952   */\n      0x00\n        /* \"#utility.yul\":18944:18959   */\n      revert\n        /* \"#utility.yul\":18971:19151   */\n    tag_350:\n        /* \"#utility.yul\":19019:19096   */\n      0x4e487b7100000000000000000000000000000000000000000000000000000000\n        /* \"#utility.yul\":19016:19017   */\n      0x00\n        /* \"#utility.yul\":19009:19097   */\n      mstore\n        /* \"#utility.yul\":19116:19120   */\n      0x22\n        /* \"#utility.yul\":19113:19114   */\n      0x04\n        /* \"#utility.yul\":19106:19121   */\n      mstore\n        /* \"#utility.yul\":19140:19144   */\n      0x24\n        /* \"#utility.yul\":19137:19138   */\n      0x00\n        /* \"#utility.yul\":19130:19145   */\n      revert\n        /* \"#utility.yul\":19157:19337   */\n    tag_325:\n        /* \"#utility.yul\":19205:19282   */\n      0x4e487b7100000000000000000000000000000000000000000000000000000000\n        /* \"#utility.yul\":19202:19203   */\n      0x00\n        /* \"#utility.yul\":19195:19283   */\n      mstore\n        /* \"#utility.yul\":19302:19306   */\n      0x41\n        /* \"#utility.yul\":19299:19300   */\n      0x04\n        /* \"#utility.yul\":19292:19307   */\n      mstore\n        /* \"#utility.yul\":19326:19330   */\n      0x24\n        /* \"#utility.yul\":19323:19324   */\n      0x00\n        /* \"#utility.yul\":19316:19331   */\n      revert\n        /* \"#utility.yul\":19343:19460   */\n    tag_173:\n        /* \"#utility.yul\":19452:19453   */\n      0x00\n        /* \"#utility.yul\":19449:19450   */\n      dup1\n        /* \"#utility.yul\":19442:19454   */\n      revert\n        /* \"#utility.yul\":19466:19583   */\n    tag_154:\n        /* \"#utility.yul\":19575:19576   */\n      0x00\n        /* \"#utility.yul\":19572:19573   */\n      dup1\n        /* \"#utility.yul\":19565:19577   */\n      revert\n        /* \"#utility.yul\":19589:19706   */\n    tag_190:\n        /* \"#utility.yul\":19698:19699   */\n      0x00\n        /* \"#utility.yul\":19695:19696   */\n      dup1\n        /* \"#utility.yul\":19688:19700   */\n      revert\n        /* \"#utility.yul\":19712:19829   */\n    tag_187:\n        /* \"#utility.yul\":19821:19822   */\n      0x00\n        /* \"#utility.yul\":19818:19819   */\n      dup1\n        /* \"#utility.yul\":19811:19823   */\n      revert\n        /* \"#utility.yul\":19835:19937   */\n    tag_261:\n        /* \"#utility.yul\":19876:19882   */\n      0x00\n        /* \"#utility.yul\":19927:19929   */\n      0x1f\n        /* \"#utility.yul\":19923:19930   */\n      not\n        /* \"#utility.yul\":19918:19920   */\n      0x1f\n        /* \"#utility.yul\":19911:19916   */\n      dup4\n        /* \"#utility.yul\":19907:19921   */\n      add\n        /* \"#utility.yul\":19903:19931   */\n      and\n        /* \"#utility.yul\":19893:19931   */\n      swap1\n      pop\n        /* \"#utility.yul\":19835:19937   */\n      swap2\n      swap1\n      pop\n      jump\t// out\n        /* \"#utility.yul\":19943:20163   */\n    tag_266:\n        /* \"#utility.yul\":20083:20117   */\n      0x412053657276696365205072696365206d757374206265207370656369666965\n        /* \"#utility.yul\":20079:20080   */\n      0x00\n        /* \"#utility.yul\":20071:20077   */\n      dup3\n        /* \"#utility.yul\":20067:20081   */\n      add\n        /* \"#utility.yul\":20060:20118   */\n      mstore\n        /* \"#utility.yul\":20152:20155   */\n      0x6400000000000000000000000000000000000000000000000000000000000000\n        /* \"#utility.yul\":20147:20149   */\n      0x20\n        /* \"#utility.yul\":20139:20145   */\n      dup3\n        /* \"#utility.yul\":20135:20150   */\n      add\n        /* \"#utility.yul\":20128:20156   */\n      mstore\n        /* \"#utility.yul\":19943:20163   */\n      pop\n      jump\t// out\n        /* \"#utility.yul\":20169:20340   */\n    tag_271:\n        /* \"#utility.yul\":20309:20332   */\n      0x4120737472696e67206973207265717569726564210000000000000000000000\n        /* \"#utility.yul\":20305:20306   */\n      0x00\n        /* \"#utility.yul\":20297:20303   */\n      dup3\n        /* \"#utility.yul\":20293:20307   */\n      add\n        /* \"#utility.yul\":20286:20333   */\n      mstore\n        /* \"#utility.yul\":20169:20340   */\n      pop\n      jump\t// out\n        /* \"#utility.yul\":20346:20484   */\n    tag_168:\n        /* \"#utility.yul\":20427:20459   */\n      tag_371\n        /* \"#utility.yul\":20453:20458   */\n      dup2\n        /* \"#utility.yul\":20427:20459   */\n      tag_329\n      jump\t// in\n    tag_371:\n        /* \"#utility.yul\":20420:20425   */\n      dup2\n        /* \"#utility.yul\":20417:20460   */\n      eq\n        /* \"#utility.yul\":20407:20478   */\n      tag_372\n      jumpi\n        /* \"#utility.yul\":20474:20475   */\n      0x00\n        /* \"#utility.yul\":20471:20472   */\n      dup1\n        /* \"#utility.yul\":20464:20476   */\n      revert\n        /* \"#utility.yul\":20407:20478   */\n    tag_372:\n        /* \"#utility.yul\":20346:20484   */\n      pop\n      jump\t// out\n        /* \"#utility.yul\":20490:20612   */\n    tag_183:\n        /* \"#utility.yul\":20563:20587   */\n      tag_374\n        /* \"#utility.yul\":20581:20586   */\n      dup2\n        /* \"#utility.yul\":20563:20587   */\n      tag_275\n      jump\t// in\n    tag_374:\n        /* \"#utility.yul\":20556:20561   */\n      dup2\n        /* \"#utility.yul\":20553:20588   */\n      eq\n        /* \"#utility.yul\":20543:20606   */\n      tag_375\n      jumpi\n        /* \"#utility.yul\":20602:20603   */\n      0x00\n        /* \"#utility.yul\":20599:20600   */\n      dup1\n        /* \"#utility.yul\":20592:20604   */\n      revert\n        /* \"#utility.yul\":20543:20606   */\n    tag_375:\n        /* \"#utility.yul\":20490:20612   */\n      pop\n      jump\t// out\n\n    auxdata: 0xa2646970667358221220fee712ab625de4ee0c70460af8b5c7c010d9d94881906d8433220c0f394071f364736f6c63430008070033\n}\n",
				"bytecode": {
					"linkReferences": {},
					"object": "6080604052600060015560006002553480156200001b57600080fd5b50604051620018a3380380620018a383398181016040528101906200004191906200009f565b806000806101000a81548173ffffffffffffffffffffffffffffffffffffffff021916908373ffffffffffffffffffffffffffffffffffffffff1602179055505062000138565b60008151905062000099816200011e565b92915050565b600060208284031215620000b857620000b762000119565b5b6000620000c88482850162000088565b91505092915050565b6000620000de82620000f9565b9050919050565b6000620000f282620000d1565b9050919050565b600073ffffffffffffffffffffffffffffffffffffffff82169050919050565b600080fd5b6200012981620000e5565b81146200013557600080fd5b50565b61175b80620001486000396000f3fe608060405234801561001057600080fd5b50600436106100a95760003560e01c806353c49c641161007157806353c49c641461016a57806363ef8a5014610186578063ac10dfe3146101a2578063b257b1a0146101be578063b9b6c5d4146101ee578063fd23c4bb1461020a576100a9565b8063256da4e3146100ae57806330f73051146100ca578063352d28fd146100e857806349428a62146101065780634994772c14610137575b600080fd5b6100c860048036038101906100c39190610d83565b610226565b005b6100d26104c2565b6040516100df9190611248565b60405180910390f35b6100f06104c8565b6040516100fd9190611248565b60405180910390f35b610120600480360381019061011b9190610fc8565b6104ce565b60405161012e92919061117e565b60405180910390f35b610151600480360381019061014c9190610e36565b61058d565b60405161016194939291906111b5565b60405180910390f35b610184600480360381019061017f9190610e36565b61075a565b005b6101a0600480360381019061019b9190610e76565b6107ef565b005b6101bc60048036038101906101b79190610f15565b610886565b005b6101d860048036038101906101d39190610e36565b610976565b6040516101e5919061115c565b60405180910390f35b61020860048036038101906102039190610fc8565b610a30565b005b610224600480360381019061021f919061101b565b610ac4565b005b83600081511161026b576040517f08c379a000000000000000000000000000000000000000000000000000000000815260040161026290611228565b60405180910390fd5b8360008151116102b0576040517f08c379a00000000000000000000000000000000000000000000000000000000081526004016102a790611228565b60405180910390fd5b600084116102f3576040517f08c379a00000000000000000000000000000000000000000000000000000000081526004016102ea90611208565b60405180910390fd5b600060036000898152602001908152602001600020600060025481526020019081526020016000209050878160000181905550600254816001018190555086816002019080519060200190610349929190610b5e565b5085816003019080519060200190610362929190610b5e565b5084816004018190555060008160050181905550838160060160006101000a81548173ffffffffffffffffffffffffffffffffffffffff021916908373ffffffffffffffffffffffffffffffffffffffff16021790555060008160070160006101000a81548173ffffffffffffffffffffffffffffffffffffffff021916908373ffffffffffffffffffffffffffffffffffffffff16021790555060018160070160146101000a81548160ff02191690831515021790555060008160070160156101000a81548160ff02191690836005811115610442576104416115cd565b5b02179055507fe8bc23dadb6cac9147246af11cc9afe29b7f5f524a2e539da4486da2196a78f1886002548989896040516104809594939291906112df565b60405180910390a16001600081548092919061049b90611555565b9190505550600260008154809291906104b390611555565b91905055505050505050505050565b60015481565b60025481565b60608060008054906101000a900473ffffffffffffffffffffffffffffffffffffffff1673ffffffffffffffffffffffffffffffffffffffff166349428a628686866040518463ffffffff1660e01b815260040161052e93929190611340565b60006040518083038186803b15801561054657600080fd5b505afa15801561055a573d6000803e3d6000fd5b505050506040513d6000823e3d601f19601f820116820180604052508101906105839190610d0b565b5050935093915050565b60608060008060036000878152602001908152602001600020600086815260200190815260200160002060020160036000888152602001908152602001600020600087815260200190815260200160002060030160036000898152602001908152602001600020600088815260200190815260200160002060040154600360008a815260200190815260200160002060008981526020019081526020016000206005015483805461063d906114f2565b80601f0160208091040260200160405190810160405280929190818152602001828054610669906114f2565b80156106b65780601f1061068b576101008083540402835291602001916106b6565b820191906000526020600020905b81548152906001019060200180831161069957829003601f168201915b505050505093508280546106c9906114f2565b80601f01602080910402602001604051908101604052809291908181526020018280546106f5906114f2565b80156107425780601f1061071757610100808354040283529160200191610742565b820191906000526020600020905b81548152906001019060200180831161072557829003601f168201915b50505050509250935093509350935092959194509250565b600060036000848152602001908152602001600020600083815260200190815260200160002060070160146101000a81548160ff021916908315150217905550600160008154809291906107ad906114c8565b91905055507f04579b03ce378bfed31ee6443865880dab0b281efac453deb39233352189863f82826040516107e3929190611263565b60405180910390a15050565b60008054906101000a900473ffffffffffffffffffffffffffffffffffffffff1673ffffffffffffffffffffffffffffffffffffffff166363ef8a50858585856040518563ffffffff1660e01b815260040161084e949392919061128c565b600060405180830381600087803b15801561086857600080fd5b505af115801561087c573d6000803e3d6000fd5b5050505050505050565b82600360008781526020019081526020016000206000600254815260200190815260200160002060020190805190602001906108c3929190610b5e565b508160036000878152602001908152602001600020600060025481526020019081526020016000206003019080519060200190610901929190610b5e565b50806003600087815260200190815260200160002060006002548152602001908152602001600020600401819055507f68dd1fad96ebc5f1740866ec07701d4ab66240c086d6ae6d351ee74eacdf267e85858585856040516109679594939291906112df565b60405180910390a15050505050565b606060036000848152602001908152602001600020600083815260200190815260200160002060020180546109aa906114f2565b80601f01602080910402602001604051908101604052809291908181526020018280546109d6906114f2565b8015610a235780601f106109f857610100808354040283529160200191610a23565b820191906000526020600020905b815481529060010190602001808311610a0657829003601f168201915b5050505050905092915050565b60008054906101000a900473ffffffffffffffffffffffffffffffffffffffff1673ffffffffffffffffffffffffffffffffffffffff1663b9b6c5d48484846040518463ffffffff1660e01b8152600401610a8d93929190611340565b600060405180830381600087803b158015610aa757600080fd5b505af1158015610abb573d6000803e3d6000fd5b50505050505050565b60008054906101000a900473ffffffffffffffffffffffffffffffffffffffff1673ffffffffffffffffffffffffffffffffffffffff1663fd23c4bb86868686866040518663ffffffff1660e01b8152600401610b25959493929190611377565b600060405180830381600087803b158015610b3f57600080fd5b505af1158015610b53573d6000803e3d6000fd5b505050505050505050565b828054610b6a906114f2565b90600052602060002090601f016020900481019282610b8c5760008555610bd3565b82601f10610ba557805160ff1916838001178555610bd3565b82800160010185558215610bd3579182015b82811115610bd2578251825591602001919060010190610bb7565b5b509050610be09190610be4565b5090565b5b80821115610bfd576000816000905550600101610be5565b5090565b6000610c14610c0f846113fd565b6113d8565b905082815260208101848484011115610c3057610c2f61165f565b5b610c3b848285611486565b509392505050565b6000610c56610c51846113fd565b6113d8565b905082815260208101848484011115610c7257610c7161165f565b5b610c7d848285611495565b509392505050565b600081359050610c94816116f7565b92915050565b600082601f830112610caf57610cae61165a565b5b8135610cbf848260208601610c01565b91505092915050565b600082601f830112610cdd57610cdc61165a565b5b8151610ced848260208601610c43565b91505092915050565b600081359050610d058161170e565b92915050565b60008060408385031215610d2257610d21611669565b5b600083015167ffffffffffffffff811115610d4057610d3f611664565b5b610d4c85828601610cc8565b925050602083015167ffffffffffffffff811115610d6d57610d6c611664565b5b610d7985828601610cc8565b9150509250929050565b600080600080600060a08688031215610d9f57610d9e611669565b5b6000610dad88828901610cf6565b955050602086013567ffffffffffffffff811115610dce57610dcd611664565b5b610dda88828901610c9a565b945050604086013567ffffffffffffffff811115610dfb57610dfa611664565b5b610e0788828901610c9a565b9350506060610e1888828901610cf6565b9250506080610e2988828901610c85565b9150509295509295909350565b60008060408385031215610e4d57610e4c611669565b5b6000610e5b85828601610cf6565b9250506020610e6c85828601610cf6565b9150509250929050565b60008060008060808587031215610e9057610e8f611669565b5b6000610e9e87828801610cf6565b9450506020610eaf87828801610cf6565b935050604085013567ffffffffffffffff811115610ed057610ecf611664565b5b610edc87828801610c9a565b925050606085013567ffffffffffffffff811115610efd57610efc611664565b5b610f0987828801610c9a565b91505092959194509250565b600080600080600060a08688031215610f3157610f30611669565b5b6000610f3f88828901610cf6565b9550506020610f5088828901610cf6565b945050604086013567ffffffffffffffff811115610f7157610f70611664565b5b610f7d88828901610c9a565b935050606086013567ffffffffffffffff811115610f9e57610f9d611664565b5b610faa88828901610c9a565b9250506080610fbb88828901610cf6565b9150509295509295909350565b600080600060608486031215610fe157610fe0611669565b5b6000610fef86828701610cf6565b935050602061100086828701610cf6565b925050604061101186828701610cf6565b9150509250925092565b600080600080600060a0868803121561103757611036611669565b5b600061104588828901610cf6565b955050602061105688828901610cf6565b945050604061106788828901610cf6565b935050606086013567ffffffffffffffff81111561108857611087611664565b5b61109488828901610c9a565b925050608086013567ffffffffffffffff8111156110b5576110b4611664565b5b6110c188828901610c9a565b9150509295509295909350565b60006110d98261142e565b6110e38185611439565b93506110f3818560208601611495565b6110fc8161166e565b840191505092915050565b6000611114602183611439565b915061111f8261167f565b604082019050919050565b6000611137601583611439565b9150611142826116ce565b602082019050919050565b6111568161147c565b82525050565b6000602082019050818103600083015261117681846110ce565b905092915050565b6000604082019050818103600083015261119881856110ce565b905081810360208301526111ac81846110ce565b90509392505050565b600060808201905081810360008301526111cf81876110ce565b905081810360208301526111e381866110ce565b90506111f2604083018561114d565b6111ff606083018461114d565b95945050505050565b6000602082019050818103600083015261122181611107565b9050919050565b600060208201905081810360008301526112418161112a565b9050919050565b600060208201905061125d600083018461114d565b92915050565b6000604082019050611278600083018561114d565b611285602083018461114d565b9392505050565b60006080820190506112a1600083018761114d565b6112ae602083018661114d565b81810360408301526112c081856110ce565b905081810360608301526112d481846110ce565b905095945050505050565b600060a0820190506112f4600083018861114d565b611301602083018761114d565b818103604083015261131381866110ce565b9050818103606083015261132781856110ce565b9050611336608083018461114d565b9695505050505050565b6000606082019050611355600083018661114d565b611362602083018561114d565b61136f604083018461114d565b949350505050565b600060a08201905061138c600083018861114d565b611399602083018761114d565b6113a6604083018661114d565b81810360608301526113b881856110ce565b905081810360808301526113cc81846110ce565b90509695505050505050565b60006113e26113f3565b90506113ee8282611524565b919050565b6000604051905090565b600067ffffffffffffffff8211156114185761141761162b565b5b6114218261166e565b9050602081019050919050565b600081519050919050565b600082825260208201905092915050565b60006114558261145c565b9050919050565b600073ffffffffffffffffffffffffffffffffffffffff82169050919050565b6000819050919050565b82818337600083830152505050565b60005b838110156114b3578082015181840152602081019050611498565b838111156114c2576000848401525b50505050565b60006114d38261147c565b915060008214156114e7576114e661159e565b5b600182039050919050565b6000600282049050600182168061150a57607f821691505b6020821081141561151e5761151d6115fc565b5b50919050565b61152d8261166e565b810181811067ffffffffffffffff8211171561154c5761154b61162b565b5b80604052505050565b60006115608261147c565b91507fffffffffffffffffffffffffffffffffffffffffffffffffffffffffffffffff8214156115935761159261159e565b5b600182019050919050565b7f4e487b7100000000000000000000000000000000000000000000000000000000600052601160045260246000fd5b7f4e487b7100000000000000000000000000000000000000000000000000000000600052602160045260246000fd5b7f4e487b7100000000000000000000000000000000000000000000000000000000600052602260045260246000fd5b7f4e487b7100000000000000000000000000000000000000000000000000000000600052604160045260246000fd5b600080fd5b600080fd5b600080fd5b600080fd5b6000601f19601f8301169050919050565b7f412053657276696365205072696365206d75737420626520737065636966696560008201527f6400000000000000000000000000000000000000000000000000000000000000602082015250565b7f4120737472696e67206973207265717569726564210000000000000000000000600082015250565b6117008161144a565b811461170b57600080fd5b50565b6117178161147c565b811461172257600080fd5b5056fea2646970667358221220fee712ab625de4ee0c70460af8b5c7c010d9d94881906d8433220c0f394071f364736f6c63430008070033",
					"opcodes": "PUSH1 0x80 PUSH1 0x40 MSTORE PUSH1 0x0 PUSH1 0x1 SSTORE PUSH1 0x0 PUSH1 0x2 SSTORE CALLVALUE DUP1 ISZERO PUSH3 0x1B JUMPI PUSH1 0x0 DUP1 REVERT JUMPDEST POP PUSH1 0x40 MLOAD PUSH3 0x18A3 CODESIZE SUB DUP1 PUSH3 0x18A3 DUP4 CODECOPY DUP2 DUP2 ADD PUSH1 0x40 MSTORE DUP2 ADD SWAP1 PUSH3 0x41 SWAP2 SWAP1 PUSH3 0x9F JUMP JUMPDEST DUP1 PUSH1 0x0 DUP1 PUSH2 0x100 EXP DUP2 SLOAD DUP2 PUSH20 0xFFFFFFFFFFFFFFFFFFFFFFFFFFFFFFFFFFFFFFFF MUL NOT AND SWAP1 DUP4 PUSH20 0xFFFFFFFFFFFFFFFFFFFFFFFFFFFFFFFFFFFFFFFF AND MUL OR SWAP1 SSTORE POP POP PUSH3 0x138 JUMP JUMPDEST PUSH1 0x0 DUP2 MLOAD SWAP1 POP PUSH3 0x99 DUP2 PUSH3 0x11E JUMP JUMPDEST SWAP3 SWAP2 POP POP JUMP JUMPDEST PUSH1 0x0 PUSH1 0x20 DUP3 DUP5 SUB SLT ISZERO PUSH3 0xB8 JUMPI PUSH3 0xB7 PUSH3 0x119 JUMP JUMPDEST JUMPDEST PUSH1 0x0 PUSH3 0xC8 DUP5 DUP3 DUP6 ADD PUSH3 0x88 JUMP JUMPDEST SWAP2 POP POP SWAP3 SWAP2 POP POP JUMP JUMPDEST PUSH1 0x0 PUSH3 0xDE DUP3 PUSH3 0xF9 JUMP JUMPDEST SWAP1 POP SWAP2 SWAP1 POP JUMP JUMPDEST PUSH1 0x0 PUSH3 0xF2 DUP3 PUSH3 0xD1 JUMP JUMPDEST SWAP1 POP SWAP2 SWAP1 POP JUMP JUMPDEST PUSH1 0x0 PUSH20 0xFFFFFFFFFFFFFFFFFFFFFFFFFFFFFFFFFFFFFFFF DUP3 AND SWAP1 POP SWAP2 SWAP1 POP JUMP JUMPDEST PUSH1 0x0 DUP1 REVERT JUMPDEST PUSH3 0x129 DUP2 PUSH3 0xE5 JUMP JUMPDEST DUP2 EQ PUSH3 0x135 JUMPI PUSH1 0x0 DUP1 REVERT JUMPDEST POP JUMP JUMPDEST PUSH2 0x175B DUP1 PUSH3 0x148 PUSH1 0x0 CODECOPY PUSH1 0x0 RETURN INVALID PUSH1 0x80 PUSH1 0x40 MSTORE CALLVALUE DUP1 ISZERO PUSH2 0x10 JUMPI PUSH1 0x0 DUP1 REVERT JUMPDEST POP PUSH1 0x4 CALLDATASIZE LT PUSH2 0xA9 JUMPI PUSH1 0x0 CALLDATALOAD PUSH1 0xE0 SHR DUP1 PUSH4 0x53C49C64 GT PUSH2 0x71 JUMPI DUP1 PUSH4 0x53C49C64 EQ PUSH2 0x16A JUMPI DUP1 PUSH4 0x63EF8A50 EQ PUSH2 0x186 JUMPI DUP1 PUSH4 0xAC10DFE3 EQ PUSH2 0x1A2 JUMPI DUP1 PUSH4 0xB257B1A0 EQ PUSH2 0x1BE JUMPI DUP1 PUSH4 0xB9B6C5D4 EQ PUSH2 0x1EE JUMPI DUP1 PUSH4 0xFD23C4BB EQ PUSH2 0x20A JUMPI PUSH2 0xA9 JUMP JUMPDEST DUP1 PUSH4 0x256DA4E3 EQ PUSH2 0xAE JUMPI DUP1 PUSH4 0x30F73051 EQ PUSH2 0xCA JUMPI DUP1 PUSH4 0x352D28FD EQ PUSH2 0xE8 JUMPI DUP1 PUSH4 0x49428A62 EQ PUSH2 0x106 JUMPI DUP1 PUSH4 0x4994772C EQ PUSH2 0x137 JUMPI JUMPDEST PUSH1 0x0 DUP1 REVERT JUMPDEST PUSH2 0xC8 PUSH1 0x4 DUP1 CALLDATASIZE SUB DUP2 ADD SWAP1 PUSH2 0xC3 SWAP2 SWAP1 PUSH2 0xD83 JUMP JUMPDEST PUSH2 0x226 JUMP JUMPDEST STOP JUMPDEST PUSH2 0xD2 PUSH2 0x4C2 JUMP JUMPDEST PUSH1 0x40 MLOAD PUSH2 0xDF SWAP2 SWAP1 PUSH2 0x1248 JUMP JUMPDEST PUSH1 0x40 MLOAD DUP1 SWAP2 SUB SWAP1 RETURN JUMPDEST PUSH2 0xF0 PUSH2 0x4C8 JUMP JUMPDEST PUSH1 0x40 MLOAD PUSH2 0xFD SWAP2 SWAP1 PUSH2 0x1248 JUMP JUMPDEST PUSH1 0x40 MLOAD DUP1 SWAP2 SUB SWAP1 RETURN JUMPDEST PUSH2 0x120 PUSH1 0x4 DUP1 CALLDATASIZE SUB DUP2 ADD SWAP1 PUSH2 0x11B SWAP2 SWAP1 PUSH2 0xFC8 JUMP JUMPDEST PUSH2 0x4CE JUMP JUMPDEST PUSH1 0x40 MLOAD PUSH2 0x12E SWAP3 SWAP2 SWAP1 PUSH2 0x117E JUMP JUMPDEST PUSH1 0x40 MLOAD DUP1 SWAP2 SUB SWAP1 RETURN JUMPDEST PUSH2 0x151 PUSH1 0x4 DUP1 CALLDATASIZE SUB DUP2 ADD SWAP1 PUSH2 0x14C SWAP2 SWAP1 PUSH2 0xE36 JUMP JUMPDEST PUSH2 0x58D JUMP JUMPDEST PUSH1 0x40 MLOAD PUSH2 0x161 SWAP5 SWAP4 SWAP3 SWAP2 SWAP1 PUSH2 0x11B5 JUMP JUMPDEST PUSH1 0x40 MLOAD DUP1 SWAP2 SUB SWAP1 RETURN JUMPDEST PUSH2 0x184 PUSH1 0x4 DUP1 CALLDATASIZE SUB DUP2 ADD SWAP1 PUSH2 0x17F SWAP2 SWAP1 PUSH2 0xE36 JUMP JUMPDEST PUSH2 0x75A JUMP JUMPDEST STOP JUMPDEST PUSH2 0x1A0 PUSH1 0x4 DUP1 CALLDATASIZE SUB DUP2 ADD SWAP1 PUSH2 0x19B SWAP2 SWAP1 PUSH2 0xE76 JUMP JUMPDEST PUSH2 0x7EF JUMP JUMPDEST STOP JUMPDEST PUSH2 0x1BC PUSH1 0x4 DUP1 CALLDATASIZE SUB DUP2 ADD SWAP1 PUSH2 0x1B7 SWAP2 SWAP1 PUSH2 0xF15 JUMP JUMPDEST PUSH2 0x886 JUMP JUMPDEST STOP JUMPDEST PUSH2 0x1D8 PUSH1 0x4 DUP1 CALLDATASIZE SUB DUP2 ADD SWAP1 PUSH2 0x1D3 SWAP2 SWAP1 PUSH2 0xE36 JUMP JUMPDEST PUSH2 0x976 JUMP JUMPDEST PUSH1 0x40 MLOAD PUSH2 0x1E5 SWAP2 SWAP1 PUSH2 0x115C JUMP JUMPDEST PUSH1 0x40 MLOAD DUP1 SWAP2 SUB SWAP1 RETURN JUMPDEST PUSH2 0x208 PUSH1 0x4 DUP1 CALLDATASIZE SUB DUP2 ADD SWAP1 PUSH2 0x203 SWAP2 SWAP1 PUSH2 0xFC8 JUMP JUMPDEST PUSH2 0xA30 JUMP JUMPDEST STOP JUMPDEST PUSH2 0x224 PUSH1 0x4 DUP1 CALLDATASIZE SUB DUP2 ADD SWAP1 PUSH2 0x21F SWAP2 SWAP1 PUSH2 0x101B JUMP JUMPDEST PUSH2 0xAC4 JUMP JUMPDEST STOP JUMPDEST DUP4 PUSH1 0x0 DUP2 MLOAD GT PUSH2 0x26B JUMPI PUSH1 0x40 MLOAD PUSH32 0x8C379A000000000000000000000000000000000000000000000000000000000 DUP2 MSTORE PUSH1 0x4 ADD PUSH2 0x262 SWAP1 PUSH2 0x1228 JUMP JUMPDEST PUSH1 0x40 MLOAD DUP1 SWAP2 SUB SWAP1 REVERT JUMPDEST DUP4 PUSH1 0x0 DUP2 MLOAD GT PUSH2 0x2B0 JUMPI PUSH1 0x40 MLOAD PUSH32 0x8C379A000000000000000000000000000000000000000000000000000000000 DUP2 MSTORE PUSH1 0x4 ADD PUSH2 0x2A7 SWAP1 PUSH2 0x1228 JUMP JUMPDEST PUSH1 0x40 MLOAD DUP1 SWAP2 SUB SWAP1 REVERT JUMPDEST PUSH1 0x0 DUP5 GT PUSH2 0x2F3 JUMPI PUSH1 0x40 MLOAD PUSH32 0x8C379A000000000000000000000000000000000000000000000000000000000 DUP2 MSTORE PUSH1 0x4 ADD PUSH2 0x2EA SWAP1 PUSH2 0x1208 JUMP JUMPDEST PUSH1 0x40 MLOAD DUP1 SWAP2 SUB SWAP1 REVERT JUMPDEST PUSH1 0x0 PUSH1 0x3 PUSH1 0x0 DUP10 DUP2 MSTORE PUSH1 0x20 ADD SWAP1 DUP2 MSTORE PUSH1 0x20 ADD PUSH1 0x0 KECCAK256 PUSH1 0x0 PUSH1 0x2 SLOAD DUP2 MSTORE PUSH1 0x20 ADD SWAP1 DUP2 MSTORE PUSH1 0x20 ADD PUSH1 0x0 KECCAK256 SWAP1 POP DUP8 DUP2 PUSH1 0x0 ADD DUP2 SWAP1 SSTORE POP PUSH1 0x2 SLOAD DUP2 PUSH1 0x1 ADD DUP2 SWAP1 SSTORE POP DUP7 DUP2 PUSH1 0x2 ADD SWAP1 DUP1 MLOAD SWAP1 PUSH1 0x20 ADD SWAP1 PUSH2 0x349 SWAP3 SWAP2 SWAP1 PUSH2 0xB5E JUMP JUMPDEST POP DUP6 DUP2 PUSH1 0x3 ADD SWAP1 DUP1 MLOAD SWAP1 PUSH1 0x20 ADD SWAP1 PUSH2 0x362 SWAP3 SWAP2 SWAP1 PUSH2 0xB5E JUMP JUMPDEST POP DUP5 DUP2 PUSH1 0x4 ADD DUP2 SWAP1 SSTORE POP PUSH1 0x0 DUP2 PUSH1 0x5 ADD DUP2 SWAP1 SSTORE POP DUP4 DUP2 PUSH1 0x6 ADD PUSH1 0x0 PUSH2 0x100 EXP DUP2 SLOAD DUP2 PUSH20 0xFFFFFFFFFFFFFFFFFFFFFFFFFFFFFFFFFFFFFFFF MUL NOT AND SWAP1 DUP4 PUSH20 0xFFFFFFFFFFFFFFFFFFFFFFFFFFFFFFFFFFFFFFFF AND MUL OR SWAP1 SSTORE POP PUSH1 0x0 DUP2 PUSH1 0x7 ADD PUSH1 0x0 PUSH2 0x100 EXP DUP2 SLOAD DUP2 PUSH20 0xFFFFFFFFFFFFFFFFFFFFFFFFFFFFFFFFFFFFFFFF MUL NOT AND SWAP1 DUP4 PUSH20 0xFFFFFFFFFFFFFFFFFFFFFFFFFFFFFFFFFFFFFFFF AND MUL OR SWAP1 SSTORE POP PUSH1 0x1 DUP2 PUSH1 0x7 ADD PUSH1 0x14 PUSH2 0x100 EXP DUP2 SLOAD DUP2 PUSH1 0xFF MUL NOT AND SWAP1 DUP4 ISZERO ISZERO MUL OR SWAP1 SSTORE POP PUSH1 0x0 DUP2 PUSH1 0x7 ADD PUSH1 0x15 PUSH2 0x100 EXP DUP2 SLOAD DUP2 PUSH1 0xFF MUL NOT AND SWAP1 DUP4 PUSH1 0x5 DUP2 GT ISZERO PUSH2 0x442 JUMPI PUSH2 0x441 PUSH2 0x15CD JUMP JUMPDEST JUMPDEST MUL OR SWAP1 SSTORE POP PUSH32 0xE8BC23DADB6CAC9147246AF11CC9AFE29B7F5F524A2E539DA4486DA2196A78F1 DUP9 PUSH1 0x2 SLOAD DUP10 DUP10 DUP10 PUSH1 0x40 MLOAD PUSH2 0x480 SWAP6 SWAP5 SWAP4 SWAP3 SWAP2 SWAP1 PUSH2 0x12DF JUMP JUMPDEST PUSH1 0x40 MLOAD DUP1 SWAP2 SUB SWAP1 LOG1 PUSH1 0x1 PUSH1 0x0 DUP2 SLOAD DUP1 SWAP3 SWAP2 SWAP1 PUSH2 0x49B SWAP1 PUSH2 0x1555 JUMP JUMPDEST SWAP2 SWAP1 POP SSTORE POP PUSH1 0x2 PUSH1 0x0 DUP2 SLOAD DUP1 SWAP3 SWAP2 SWAP1 PUSH2 0x4B3 SWAP1 PUSH2 0x1555 JUMP JUMPDEST SWAP2 SWAP1 POP SSTORE POP POP POP POP POP POP POP POP POP JUMP JUMPDEST PUSH1 0x1 SLOAD DUP2 JUMP JUMPDEST PUSH1 0x2 SLOAD DUP2 JUMP JUMPDEST PUSH1 0x60 DUP1 PUSH1 0x0 DUP1 SLOAD SWAP1 PUSH2 0x100 EXP SWAP1 DIV PUSH20 0xFFFFFFFFFFFFFFFFFFFFFFFFFFFFFFFFFFFFFFFF AND PUSH20 0xFFFFFFFFFFFFFFFFFFFFFFFFFFFFFFFFFFFFFFFF AND PUSH4 0x49428A62 DUP7 DUP7 DUP7 PUSH1 0x40 MLOAD DUP5 PUSH4 0xFFFFFFFF AND PUSH1 0xE0 SHL DUP2 MSTORE PUSH1 0x4 ADD PUSH2 0x52E SWAP4 SWAP3 SWAP2 SWAP1 PUSH2 0x1340 JUMP JUMPDEST PUSH1 0x0 PUSH1 0x40 MLOAD DUP1 DUP4 SUB DUP2 DUP7 DUP1 EXTCODESIZE ISZERO DUP1 ISZERO PUSH2 0x546 JUMPI PUSH1 0x0 DUP1 REVERT JUMPDEST POP GAS STATICCALL ISZERO DUP1 ISZERO PUSH2 0x55A JUMPI RETURNDATASIZE PUSH1 0x0 DUP1 RETURNDATACOPY RETURNDATASIZE PUSH1 0x0 REVERT JUMPDEST POP POP POP POP PUSH1 0x40 MLOAD RETURNDATASIZE PUSH1 0x0 DUP3 RETURNDATACOPY RETURNDATASIZE PUSH1 0x1F NOT PUSH1 0x1F DUP3 ADD AND DUP3 ADD DUP1 PUSH1 0x40 MSTORE POP DUP2 ADD SWAP1 PUSH2 0x583 SWAP2 SWAP1 PUSH2 0xD0B JUMP JUMPDEST POP POP SWAP4 POP SWAP4 SWAP2 POP POP JUMP JUMPDEST PUSH1 0x60 DUP1 PUSH1 0x0 DUP1 PUSH1 0x3 PUSH1 0x0 DUP8 DUP2 MSTORE PUSH1 0x20 ADD SWAP1 DUP2 MSTORE PUSH1 0x20 ADD PUSH1 0x0 KECCAK256 PUSH1 0x0 DUP7 DUP2 MSTORE PUSH1 0x20 ADD SWAP1 DUP2 MSTORE PUSH1 0x20 ADD PUSH1 0x0 KECCAK256 PUSH1 0x2 ADD PUSH1 0x3 PUSH1 0x0 DUP9 DUP2 MSTORE PUSH1 0x20 ADD SWAP1 DUP2 MSTORE PUSH1 0x20 ADD PUSH1 0x0 KECCAK256 PUSH1 0x0 DUP8 DUP2 MSTORE PUSH1 0x20 ADD SWAP1 DUP2 MSTORE PUSH1 0x20 ADD PUSH1 0x0 KECCAK256 PUSH1 0x3 ADD PUSH1 0x3 PUSH1 0x0 DUP10 DUP2 MSTORE PUSH1 0x20 ADD SWAP1 DUP2 MSTORE PUSH1 0x20 ADD PUSH1 0x0 KECCAK256 PUSH1 0x0 DUP9 DUP2 MSTORE PUSH1 0x20 ADD SWAP1 DUP2 MSTORE PUSH1 0x20 ADD PUSH1 0x0 KECCAK256 PUSH1 0x4 ADD SLOAD PUSH1 0x3 PUSH1 0x0 DUP11 DUP2 MSTORE PUSH1 0x20 ADD SWAP1 DUP2 MSTORE PUSH1 0x20 ADD PUSH1 0x0 KECCAK256 PUSH1 0x0 DUP10 DUP2 MSTORE PUSH1 0x20 ADD SWAP1 DUP2 MSTORE PUSH1 0x20 ADD PUSH1 0x0 KECCAK256 PUSH1 0x5 ADD SLOAD DUP4 DUP1 SLOAD PUSH2 0x63D SWAP1 PUSH2 0x14F2 JUMP JUMPDEST DUP1 PUSH1 0x1F ADD PUSH1 0x20 DUP1 SWAP2 DIV MUL PUSH1 0x20 ADD PUSH1 0x40 MLOAD SWAP1 DUP2 ADD PUSH1 0x40 MSTORE DUP1 SWAP3 SWAP2 SWAP1 DUP2 DUP2 MSTORE PUSH1 0x20 ADD DUP3 DUP1 SLOAD PUSH2 0x669 SWAP1 PUSH2 0x14F2 JUMP JUMPDEST DUP1 ISZERO PUSH2 0x6B6 JUMPI DUP1 PUSH1 0x1F LT PUSH2 0x68B JUMPI PUSH2 0x100 DUP1 DUP4 SLOAD DIV MUL DUP4 MSTORE SWAP2 PUSH1 0x20 ADD SWAP2 PUSH2 0x6B6 JUMP JUMPDEST DUP3 ADD SWAP2 SWAP1 PUSH1 0x0 MSTORE PUSH1 0x20 PUSH1 0x0 KECCAK256 SWAP1 JUMPDEST DUP2 SLOAD DUP2 MSTORE SWAP1 PUSH1 0x1 ADD SWAP1 PUSH1 0x20 ADD DUP1 DUP4 GT PUSH2 0x699 JUMPI DUP3 SWAP1 SUB PUSH1 0x1F AND DUP3 ADD SWAP2 JUMPDEST POP POP POP POP POP SWAP4 POP DUP3 DUP1 SLOAD PUSH2 0x6C9 SWAP1 PUSH2 0x14F2 JUMP JUMPDEST DUP1 PUSH1 0x1F ADD PUSH1 0x20 DUP1 SWAP2 DIV MUL PUSH1 0x20 ADD PUSH1 0x40 MLOAD SWAP1 DUP2 ADD PUSH1 0x40 MSTORE DUP1 SWAP3 SWAP2 SWAP1 DUP2 DUP2 MSTORE PUSH1 0x20 ADD DUP3 DUP1 SLOAD PUSH2 0x6F5 SWAP1 PUSH2 0x14F2 JUMP JUMPDEST DUP1 ISZERO PUSH2 0x742 JUMPI DUP1 PUSH1 0x1F LT PUSH2 0x717 JUMPI PUSH2 0x100 DUP1 DUP4 SLOAD DIV MUL DUP4 MSTORE SWAP2 PUSH1 0x20 ADD SWAP2 PUSH2 0x742 JUMP JUMPDEST DUP3 ADD SWAP2 SWAP1 PUSH1 0x0 MSTORE PUSH1 0x20 PUSH1 0x0 KECCAK256 SWAP1 JUMPDEST DUP2 SLOAD DUP2 MSTORE SWAP1 PUSH1 0x1 ADD SWAP1 PUSH1 0x20 ADD DUP1 DUP4 GT PUSH2 0x725 JUMPI DUP3 SWAP1 SUB PUSH1 0x1F AND DUP3 ADD SWAP2 JUMPDEST POP POP POP POP POP SWAP3 POP SWAP4 POP SWAP4 POP SWAP4 POP SWAP4 POP SWAP3 SWAP6 SWAP2 SWAP5 POP SWAP3 POP JUMP JUMPDEST PUSH1 0x0 PUSH1 0x3 PUSH1 0x0 DUP5 DUP2 MSTORE PUSH1 0x20 ADD SWAP1 DUP2 MSTORE PUSH1 0x20 ADD PUSH1 0x0 KECCAK256 PUSH1 0x0 DUP4 DUP2 MSTORE PUSH1 0x20 ADD SWAP1 DUP2 MSTORE PUSH1 0x20 ADD PUSH1 0x0 KECCAK256 PUSH1 0x7 ADD PUSH1 0x14 PUSH2 0x100 EXP DUP2 SLOAD DUP2 PUSH1 0xFF MUL NOT AND SWAP1 DUP4 ISZERO ISZERO MUL OR SWAP1 SSTORE POP PUSH1 0x1 PUSH1 0x0 DUP2 SLOAD DUP1 SWAP3 SWAP2 SWAP1 PUSH2 0x7AD SWAP1 PUSH2 0x14C8 JUMP JUMPDEST SWAP2 SWAP1 POP SSTORE POP PUSH32 0x4579B03CE378BFED31EE6443865880DAB0B281EFAC453DEB39233352189863F DUP3 DUP3 PUSH1 0x40 MLOAD PUSH2 0x7E3 SWAP3 SWAP2 SWAP1 PUSH2 0x1263 JUMP JUMPDEST PUSH1 0x40 MLOAD DUP1 SWAP2 SUB SWAP1 LOG1 POP POP JUMP JUMPDEST PUSH1 0x0 DUP1 SLOAD SWAP1 PUSH2 0x100 EXP SWAP1 DIV PUSH20 0xFFFFFFFFFFFFFFFFFFFFFFFFFFFFFFFFFFFFFFFF AND PUSH20 0xFFFFFFFFFFFFFFFFFFFFFFFFFFFFFFFFFFFFFFFF AND PUSH4 0x63EF8A50 DUP6 DUP6 DUP6 DUP6 PUSH1 0x40 MLOAD DUP6 PUSH4 0xFFFFFFFF AND PUSH1 0xE0 SHL DUP2 MSTORE PUSH1 0x4 ADD PUSH2 0x84E SWAP5 SWAP4 SWAP3 SWAP2 SWAP1 PUSH2 0x128C JUMP JUMPDEST PUSH1 0x0 PUSH1 0x40 MLOAD DUP1 DUP4 SUB DUP2 PUSH1 0x0 DUP8 DUP1 EXTCODESIZE ISZERO DUP1 ISZERO PUSH2 0x868 JUMPI PUSH1 0x0 DUP1 REVERT JUMPDEST POP GAS CALL ISZERO DUP1 ISZERO PUSH2 0x87C JUMPI RETURNDATASIZE PUSH1 0x0 DUP1 RETURNDATACOPY RETURNDATASIZE PUSH1 0x0 REVERT JUMPDEST POP POP POP POP POP POP POP POP JUMP JUMPDEST DUP3 PUSH1 0x3 PUSH1 0x0 DUP8 DUP2 MSTORE PUSH1 0x20 ADD SWAP1 DUP2 MSTORE PUSH1 0x20 ADD PUSH1 0x0 KECCAK256 PUSH1 0x0 PUSH1 0x2 SLOAD DUP2 MSTORE PUSH1 0x20 ADD SWAP1 DUP2 MSTORE PUSH1 0x20 ADD PUSH1 0x0 KECCAK256 PUSH1 0x2 ADD SWAP1 DUP1 MLOAD SWAP1 PUSH1 0x20 ADD SWAP1 PUSH2 0x8C3 SWAP3 SWAP2 SWAP1 PUSH2 0xB5E JUMP JUMPDEST POP DUP2 PUSH1 0x3 PUSH1 0x0 DUP8 DUP2 MSTORE PUSH1 0x20 ADD SWAP1 DUP2 MSTORE PUSH1 0x20 ADD PUSH1 0x0 KECCAK256 PUSH1 0x0 PUSH1 0x2 SLOAD DUP2 MSTORE PUSH1 0x20 ADD SWAP1 DUP2 MSTORE PUSH1 0x20 ADD PUSH1 0x0 KECCAK256 PUSH1 0x3 ADD SWAP1 DUP1 MLOAD SWAP1 PUSH1 0x20 ADD SWAP1 PUSH2 0x901 SWAP3 SWAP2 SWAP1 PUSH2 0xB5E JUMP JUMPDEST POP DUP1 PUSH1 0x3 PUSH1 0x0 DUP8 DUP2 MSTORE PUSH1 0x20 ADD SWAP1 DUP2 MSTORE PUSH1 0x20 ADD PUSH1 0x0 KECCAK256 PUSH1 0x0 PUSH1 0x2 SLOAD DUP2 MSTORE PUSH1 0x20 ADD SWAP1 DUP2 MSTORE PUSH1 0x20 ADD PUSH1 0x0 KECCAK256 PUSH1 0x4 ADD DUP2 SWAP1 SSTORE POP PUSH32 0x68DD1FAD96EBC5F1740866EC07701D4AB66240C086D6AE6D351EE74EACDF267E DUP6 DUP6 DUP6 DUP6 DUP6 PUSH1 0x40 MLOAD PUSH2 0x967 SWAP6 SWAP5 SWAP4 SWAP3 SWAP2 SWAP1 PUSH2 0x12DF JUMP JUMPDEST PUSH1 0x40 MLOAD DUP1 SWAP2 SUB SWAP1 LOG1 POP POP POP POP POP JUMP JUMPDEST PUSH1 0x60 PUSH1 0x3 PUSH1 0x0 DUP5 DUP2 MSTORE PUSH1 0x20 ADD SWAP1 DUP2 MSTORE PUSH1 0x20 ADD PUSH1 0x0 KECCAK256 PUSH1 0x0 DUP4 DUP2 MSTORE PUSH1 0x20 ADD SWAP1 DUP2 MSTORE PUSH1 0x20 ADD PUSH1 0x0 KECCAK256 PUSH1 0x2 ADD DUP1 SLOAD PUSH2 0x9AA SWAP1 PUSH2 0x14F2 JUMP JUMPDEST DUP1 PUSH1 0x1F ADD PUSH1 0x20 DUP1 SWAP2 DIV MUL PUSH1 0x20 ADD PUSH1 0x40 MLOAD SWAP1 DUP2 ADD PUSH1 0x40 MSTORE DUP1 SWAP3 SWAP2 SWAP1 DUP2 DUP2 MSTORE PUSH1 0x20 ADD DUP3 DUP1 SLOAD PUSH2 0x9D6 SWAP1 PUSH2 0x14F2 JUMP JUMPDEST DUP1 ISZERO PUSH2 0xA23 JUMPI DUP1 PUSH1 0x1F LT PUSH2 0x9F8 JUMPI PUSH2 0x100 DUP1 DUP4 SLOAD DIV MUL DUP4 MSTORE SWAP2 PUSH1 0x20 ADD SWAP2 PUSH2 0xA23 JUMP JUMPDEST DUP3 ADD SWAP2 SWAP1 PUSH1 0x0 MSTORE PUSH1 0x20 PUSH1 0x0 KECCAK256 SWAP1 JUMPDEST DUP2 SLOAD DUP2 MSTORE SWAP1 PUSH1 0x1 ADD SWAP1 PUSH1 0x20 ADD DUP1 DUP4 GT PUSH2 0xA06 JUMPI DUP3 SWAP1 SUB PUSH1 0x1F AND DUP3 ADD SWAP2 JUMPDEST POP POP POP POP POP SWAP1 POP SWAP3 SWAP2 POP POP JUMP JUMPDEST PUSH1 0x0 DUP1 SLOAD SWAP1 PUSH2 0x100 EXP SWAP1 DIV PUSH20 0xFFFFFFFFFFFFFFFFFFFFFFFFFFFFFFFFFFFFFFFF AND PUSH20 0xFFFFFFFFFFFFFFFFFFFFFFFFFFFFFFFFFFFFFFFF AND PUSH4 0xB9B6C5D4 DUP5 DUP5 DUP5 PUSH1 0x40 MLOAD DUP5 PUSH4 0xFFFFFFFF AND PUSH1 0xE0 SHL DUP2 MSTORE PUSH1 0x4 ADD PUSH2 0xA8D SWAP4 SWAP3 SWAP2 SWAP1 PUSH2 0x1340 JUMP JUMPDEST PUSH1 0x0 PUSH1 0x40 MLOAD DUP1 DUP4 SUB DUP2 PUSH1 0x0 DUP8 DUP1 EXTCODESIZE ISZERO DUP1 ISZERO PUSH2 0xAA7 JUMPI PUSH1 0x0 DUP1 REVERT JUMPDEST POP GAS CALL ISZERO DUP1 ISZERO PUSH2 0xABB JUMPI RETURNDATASIZE PUSH1 0x0 DUP1 RETURNDATACOPY RETURNDATASIZE PUSH1 0x0 REVERT JUMPDEST POP POP POP POP POP POP POP JUMP JUMPDEST PUSH1 0x0 DUP1 SLOAD SWAP1 PUSH2 0x100 EXP SWAP1 DIV PUSH20 0xFFFFFFFFFFFFFFFFFFFFFFFFFFFFFFFFFFFFFFFF AND PUSH20 0xFFFFFFFFFFFFFFFFFFFFFFFFFFFFFFFFFFFFFFFF AND PUSH4 0xFD23C4BB DUP7 DUP7 DUP7 DUP7 DUP7 PUSH1 0x40 MLOAD DUP7 PUSH4 0xFFFFFFFF AND PUSH1 0xE0 SHL DUP2 MSTORE PUSH1 0x4 ADD PUSH2 0xB25 SWAP6 SWAP5 SWAP4 SWAP3 SWAP2 SWAP1 PUSH2 0x1377 JUMP JUMPDEST PUSH1 0x0 PUSH1 0x40 MLOAD DUP1 DUP4 SUB DUP2 PUSH1 0x0 DUP8 DUP1 EXTCODESIZE ISZERO DUP1 ISZERO PUSH2 0xB3F JUMPI PUSH1 0x0 DUP1 REVERT JUMPDEST POP GAS CALL ISZERO DUP1 ISZERO PUSH2 0xB53 JUMPI RETURNDATASIZE PUSH1 0x0 DUP1 RETURNDATACOPY RETURNDATASIZE PUSH1 0x0 REVERT JUMPDEST POP POP POP POP POP POP POP POP POP JUMP JUMPDEST DUP3 DUP1 SLOAD PUSH2 0xB6A SWAP1 PUSH2 0x14F2 JUMP JUMPDEST SWAP1 PUSH1 0x0 MSTORE PUSH1 0x20 PUSH1 0x0 KECCAK256 SWAP1 PUSH1 0x1F ADD PUSH1 0x20 SWAP1 DIV DUP2 ADD SWAP3 DUP3 PUSH2 0xB8C JUMPI PUSH1 0x0 DUP6 SSTORE PUSH2 0xBD3 JUMP JUMPDEST DUP3 PUSH1 0x1F LT PUSH2 0xBA5 JUMPI DUP1 MLOAD PUSH1 0xFF NOT AND DUP4 DUP1 ADD OR DUP6 SSTORE PUSH2 0xBD3 JUMP JUMPDEST DUP3 DUP1 ADD PUSH1 0x1 ADD DUP6 SSTORE DUP3 ISZERO PUSH2 0xBD3 JUMPI SWAP2 DUP3 ADD JUMPDEST DUP3 DUP2 GT ISZERO PUSH2 0xBD2 JUMPI DUP3 MLOAD DUP3 SSTORE SWAP2 PUSH1 0x20 ADD SWAP2 SWAP1 PUSH1 0x1 ADD SWAP1 PUSH2 0xBB7 JUMP JUMPDEST JUMPDEST POP SWAP1 POP PUSH2 0xBE0 SWAP2 SWAP1 PUSH2 0xBE4 JUMP JUMPDEST POP SWAP1 JUMP JUMPDEST JUMPDEST DUP1 DUP3 GT ISZERO PUSH2 0xBFD JUMPI PUSH1 0x0 DUP2 PUSH1 0x0 SWAP1 SSTORE POP PUSH1 0x1 ADD PUSH2 0xBE5 JUMP JUMPDEST POP SWAP1 JUMP JUMPDEST PUSH1 0x0 PUSH2 0xC14 PUSH2 0xC0F DUP5 PUSH2 0x13FD JUMP JUMPDEST PUSH2 0x13D8 JUMP JUMPDEST SWAP1 POP DUP3 DUP2 MSTORE PUSH1 0x20 DUP2 ADD DUP5 DUP5 DUP5 ADD GT ISZERO PUSH2 0xC30 JUMPI PUSH2 0xC2F PUSH2 0x165F JUMP JUMPDEST JUMPDEST PUSH2 0xC3B DUP5 DUP3 DUP6 PUSH2 0x1486 JUMP JUMPDEST POP SWAP4 SWAP3 POP POP POP JUMP JUMPDEST PUSH1 0x0 PUSH2 0xC56 PUSH2 0xC51 DUP5 PUSH2 0x13FD JUMP JUMPDEST PUSH2 0x13D8 JUMP JUMPDEST SWAP1 POP DUP3 DUP2 MSTORE PUSH1 0x20 DUP2 ADD DUP5 DUP5 DUP5 ADD GT ISZERO PUSH2 0xC72 JUMPI PUSH2 0xC71 PUSH2 0x165F JUMP JUMPDEST JUMPDEST PUSH2 0xC7D DUP5 DUP3 DUP6 PUSH2 0x1495 JUMP JUMPDEST POP SWAP4 SWAP3 POP POP POP JUMP JUMPDEST PUSH1 0x0 DUP2 CALLDATALOAD SWAP1 POP PUSH2 0xC94 DUP2 PUSH2 0x16F7 JUMP JUMPDEST SWAP3 SWAP2 POP POP JUMP JUMPDEST PUSH1 0x0 DUP3 PUSH1 0x1F DUP4 ADD SLT PUSH2 0xCAF JUMPI PUSH2 0xCAE PUSH2 0x165A JUMP JUMPDEST JUMPDEST DUP2 CALLDATALOAD PUSH2 0xCBF DUP5 DUP3 PUSH1 0x20 DUP7 ADD PUSH2 0xC01 JUMP JUMPDEST SWAP2 POP POP SWAP3 SWAP2 POP POP JUMP JUMPDEST PUSH1 0x0 DUP3 PUSH1 0x1F DUP4 ADD SLT PUSH2 0xCDD JUMPI PUSH2 0xCDC PUSH2 0x165A JUMP JUMPDEST JUMPDEST DUP2 MLOAD PUSH2 0xCED DUP5 DUP3 PUSH1 0x20 DUP7 ADD PUSH2 0xC43 JUMP JUMPDEST SWAP2 POP POP SWAP3 SWAP2 POP POP JUMP JUMPDEST PUSH1 0x0 DUP2 CALLDATALOAD SWAP1 POP PUSH2 0xD05 DUP2 PUSH2 0x170E JUMP JUMPDEST SWAP3 SWAP2 POP POP JUMP JUMPDEST PUSH1 0x0 DUP1 PUSH1 0x40 DUP4 DUP6 SUB SLT ISZERO PUSH2 0xD22 JUMPI PUSH2 0xD21 PUSH2 0x1669 JUMP JUMPDEST JUMPDEST PUSH1 0x0 DUP4 ADD MLOAD PUSH8 0xFFFFFFFFFFFFFFFF DUP2 GT ISZERO PUSH2 0xD40 JUMPI PUSH2 0xD3F PUSH2 0x1664 JUMP JUMPDEST JUMPDEST PUSH2 0xD4C DUP6 DUP3 DUP7 ADD PUSH2 0xCC8 JUMP JUMPDEST SWAP3 POP POP PUSH1 0x20 DUP4 ADD MLOAD PUSH8 0xFFFFFFFFFFFFFFFF DUP2 GT ISZERO PUSH2 0xD6D JUMPI PUSH2 0xD6C PUSH2 0x1664 JUMP JUMPDEST JUMPDEST PUSH2 0xD79 DUP6 DUP3 DUP7 ADD PUSH2 0xCC8 JUMP JUMPDEST SWAP2 POP POP SWAP3 POP SWAP3 SWAP1 POP JUMP JUMPDEST PUSH1 0x0 DUP1 PUSH1 0x0 DUP1 PUSH1 0x0 PUSH1 0xA0 DUP7 DUP9 SUB SLT ISZERO PUSH2 0xD9F JUMPI PUSH2 0xD9E PUSH2 0x1669 JUMP JUMPDEST JUMPDEST PUSH1 0x0 PUSH2 0xDAD DUP9 DUP3 DUP10 ADD PUSH2 0xCF6 JUMP JUMPDEST SWAP6 POP POP PUSH1 0x20 DUP7 ADD CALLDATALOAD PUSH8 0xFFFFFFFFFFFFFFFF DUP2 GT ISZERO PUSH2 0xDCE JUMPI PUSH2 0xDCD PUSH2 0x1664 JUMP JUMPDEST JUMPDEST PUSH2 0xDDA DUP9 DUP3 DUP10 ADD PUSH2 0xC9A JUMP JUMPDEST SWAP5 POP POP PUSH1 0x40 DUP7 ADD CALLDATALOAD PUSH8 0xFFFFFFFFFFFFFFFF DUP2 GT ISZERO PUSH2 0xDFB JUMPI PUSH2 0xDFA PUSH2 0x1664 JUMP JUMPDEST JUMPDEST PUSH2 0xE07 DUP9 DUP3 DUP10 ADD PUSH2 0xC9A JUMP JUMPDEST SWAP4 POP POP PUSH1 0x60 PUSH2 0xE18 DUP9 DUP3 DUP10 ADD PUSH2 0xCF6 JUMP JUMPDEST SWAP3 POP POP PUSH1 0x80 PUSH2 0xE29 DUP9 DUP3 DUP10 ADD PUSH2 0xC85 JUMP JUMPDEST SWAP2 POP POP SWAP3 SWAP6 POP SWAP3 SWAP6 SWAP1 SWAP4 POP JUMP JUMPDEST PUSH1 0x0 DUP1 PUSH1 0x40 DUP4 DUP6 SUB SLT ISZERO PUSH2 0xE4D JUMPI PUSH2 0xE4C PUSH2 0x1669 JUMP JUMPDEST JUMPDEST PUSH1 0x0 PUSH2 0xE5B DUP6 DUP3 DUP7 ADD PUSH2 0xCF6 JUMP JUMPDEST SWAP3 POP POP PUSH1 0x20 PUSH2 0xE6C DUP6 DUP3 DUP7 ADD PUSH2 0xCF6 JUMP JUMPDEST SWAP2 POP POP SWAP3 POP SWAP3 SWAP1 POP JUMP JUMPDEST PUSH1 0x0 DUP1 PUSH1 0x0 DUP1 PUSH1 0x80 DUP6 DUP8 SUB SLT ISZERO PUSH2 0xE90 JUMPI PUSH2 0xE8F PUSH2 0x1669 JUMP JUMPDEST JUMPDEST PUSH1 0x0 PUSH2 0xE9E DUP8 DUP3 DUP9 ADD PUSH2 0xCF6 JUMP JUMPDEST SWAP5 POP POP PUSH1 0x20 PUSH2 0xEAF DUP8 DUP3 DUP9 ADD PUSH2 0xCF6 JUMP JUMPDEST SWAP4 POP POP PUSH1 0x40 DUP6 ADD CALLDATALOAD PUSH8 0xFFFFFFFFFFFFFFFF DUP2 GT ISZERO PUSH2 0xED0 JUMPI PUSH2 0xECF PUSH2 0x1664 JUMP JUMPDEST JUMPDEST PUSH2 0xEDC DUP8 DUP3 DUP9 ADD PUSH2 0xC9A JUMP JUMPDEST SWAP3 POP POP PUSH1 0x60 DUP6 ADD CALLDATALOAD PUSH8 0xFFFFFFFFFFFFFFFF DUP2 GT ISZERO PUSH2 0xEFD JUMPI PUSH2 0xEFC PUSH2 0x1664 JUMP JUMPDEST JUMPDEST PUSH2 0xF09 DUP8 DUP3 DUP9 ADD PUSH2 0xC9A JUMP JUMPDEST SWAP2 POP POP SWAP3 SWAP6 SWAP2 SWAP5 POP SWAP3 POP JUMP JUMPDEST PUSH1 0x0 DUP1 PUSH1 0x0 DUP1 PUSH1 0x0 PUSH1 0xA0 DUP7 DUP9 SUB SLT ISZERO PUSH2 0xF31 JUMPI PUSH2 0xF30 PUSH2 0x1669 JUMP JUMPDEST JUMPDEST PUSH1 0x0 PUSH2 0xF3F DUP9 DUP3 DUP10 ADD PUSH2 0xCF6 JUMP JUMPDEST SWAP6 POP POP PUSH1 0x20 PUSH2 0xF50 DUP9 DUP3 DUP10 ADD PUSH2 0xCF6 JUMP JUMPDEST SWAP5 POP POP PUSH1 0x40 DUP7 ADD CALLDATALOAD PUSH8 0xFFFFFFFFFFFFFFFF DUP2 GT ISZERO PUSH2 0xF71 JUMPI PUSH2 0xF70 PUSH2 0x1664 JUMP JUMPDEST JUMPDEST PUSH2 0xF7D DUP9 DUP3 DUP10 ADD PUSH2 0xC9A JUMP JUMPDEST SWAP4 POP POP PUSH1 0x60 DUP7 ADD CALLDATALOAD PUSH8 0xFFFFFFFFFFFFFFFF DUP2 GT ISZERO PUSH2 0xF9E JUMPI PUSH2 0xF9D PUSH2 0x1664 JUMP JUMPDEST JUMPDEST PUSH2 0xFAA DUP9 DUP3 DUP10 ADD PUSH2 0xC9A JUMP JUMPDEST SWAP3 POP POP PUSH1 0x80 PUSH2 0xFBB DUP9 DUP3 DUP10 ADD PUSH2 0xCF6 JUMP JUMPDEST SWAP2 POP POP SWAP3 SWAP6 POP SWAP3 SWAP6 SWAP1 SWAP4 POP JUMP JUMPDEST PUSH1 0x0 DUP1 PUSH1 0x0 PUSH1 0x60 DUP5 DUP7 SUB SLT ISZERO PUSH2 0xFE1 JUMPI PUSH2 0xFE0 PUSH2 0x1669 JUMP JUMPDEST JUMPDEST PUSH1 0x0 PUSH2 0xFEF DUP7 DUP3 DUP8 ADD PUSH2 0xCF6 JUMP JUMPDEST SWAP4 POP POP PUSH1 0x20 PUSH2 0x1000 DUP7 DUP3 DUP8 ADD PUSH2 0xCF6 JUMP JUMPDEST SWAP3 POP POP PUSH1 0x40 PUSH2 0x1011 DUP7 DUP3 DUP8 ADD PUSH2 0xCF6 JUMP JUMPDEST SWAP2 POP POP SWAP3 POP SWAP3 POP SWAP3 JUMP JUMPDEST PUSH1 0x0 DUP1 PUSH1 0x0 DUP1 PUSH1 0x0 PUSH1 0xA0 DUP7 DUP9 SUB SLT ISZERO PUSH2 0x1037 JUMPI PUSH2 0x1036 PUSH2 0x1669 JUMP JUMPDEST JUMPDEST PUSH1 0x0 PUSH2 0x1045 DUP9 DUP3 DUP10 ADD PUSH2 0xCF6 JUMP JUMPDEST SWAP6 POP POP PUSH1 0x20 PUSH2 0x1056 DUP9 DUP3 DUP10 ADD PUSH2 0xCF6 JUMP JUMPDEST SWAP5 POP POP PUSH1 0x40 PUSH2 0x1067 DUP9 DUP3 DUP10 ADD PUSH2 0xCF6 JUMP JUMPDEST SWAP4 POP POP PUSH1 0x60 DUP7 ADD CALLDATALOAD PUSH8 0xFFFFFFFFFFFFFFFF DUP2 GT ISZERO PUSH2 0x1088 JUMPI PUSH2 0x1087 PUSH2 0x1664 JUMP JUMPDEST JUMPDEST PUSH2 0x1094 DUP9 DUP3 DUP10 ADD PUSH2 0xC9A JUMP JUMPDEST SWAP3 POP POP PUSH1 0x80 DUP7 ADD CALLDATALOAD PUSH8 0xFFFFFFFFFFFFFFFF DUP2 GT ISZERO PUSH2 0x10B5 JUMPI PUSH2 0x10B4 PUSH2 0x1664 JUMP JUMPDEST JUMPDEST PUSH2 0x10C1 DUP9 DUP3 DUP10 ADD PUSH2 0xC9A JUMP JUMPDEST SWAP2 POP POP SWAP3 SWAP6 POP SWAP3 SWAP6 SWAP1 SWAP4 POP JUMP JUMPDEST PUSH1 0x0 PUSH2 0x10D9 DUP3 PUSH2 0x142E JUMP JUMPDEST PUSH2 0x10E3 DUP2 DUP6 PUSH2 0x1439 JUMP JUMPDEST SWAP4 POP PUSH2 0x10F3 DUP2 DUP6 PUSH1 0x20 DUP7 ADD PUSH2 0x1495 JUMP JUMPDEST PUSH2 0x10FC DUP2 PUSH2 0x166E JUMP JUMPDEST DUP5 ADD SWAP2 POP POP SWAP3 SWAP2 POP POP JUMP JUMPDEST PUSH1 0x0 PUSH2 0x1114 PUSH1 0x21 DUP4 PUSH2 0x1439 JUMP JUMPDEST SWAP2 POP PUSH2 0x111F DUP3 PUSH2 0x167F JUMP JUMPDEST PUSH1 0x40 DUP3 ADD SWAP1 POP SWAP2 SWAP1 POP JUMP JUMPDEST PUSH1 0x0 PUSH2 0x1137 PUSH1 0x15 DUP4 PUSH2 0x1439 JUMP JUMPDEST SWAP2 POP PUSH2 0x1142 DUP3 PUSH2 0x16CE JUMP JUMPDEST PUSH1 0x20 DUP3 ADD SWAP1 POP SWAP2 SWAP1 POP JUMP JUMPDEST PUSH2 0x1156 DUP2 PUSH2 0x147C JUMP JUMPDEST DUP3 MSTORE POP POP JUMP JUMPDEST PUSH1 0x0 PUSH1 0x20 DUP3 ADD SWAP1 POP DUP2 DUP2 SUB PUSH1 0x0 DUP4 ADD MSTORE PUSH2 0x1176 DUP2 DUP5 PUSH2 0x10CE JUMP JUMPDEST SWAP1 POP SWAP3 SWAP2 POP POP JUMP JUMPDEST PUSH1 0x0 PUSH1 0x40 DUP3 ADD SWAP1 POP DUP2 DUP2 SUB PUSH1 0x0 DUP4 ADD MSTORE PUSH2 0x1198 DUP2 DUP6 PUSH2 0x10CE JUMP JUMPDEST SWAP1 POP DUP2 DUP2 SUB PUSH1 0x20 DUP4 ADD MSTORE PUSH2 0x11AC DUP2 DUP5 PUSH2 0x10CE JUMP JUMPDEST SWAP1 POP SWAP4 SWAP3 POP POP POP JUMP JUMPDEST PUSH1 0x0 PUSH1 0x80 DUP3 ADD SWAP1 POP DUP2 DUP2 SUB PUSH1 0x0 DUP4 ADD MSTORE PUSH2 0x11CF DUP2 DUP8 PUSH2 0x10CE JUMP JUMPDEST SWAP1 POP DUP2 DUP2 SUB PUSH1 0x20 DUP4 ADD MSTORE PUSH2 0x11E3 DUP2 DUP7 PUSH2 0x10CE JUMP JUMPDEST SWAP1 POP PUSH2 0x11F2 PUSH1 0x40 DUP4 ADD DUP6 PUSH2 0x114D JUMP JUMPDEST PUSH2 0x11FF PUSH1 0x60 DUP4 ADD DUP5 PUSH2 0x114D JUMP JUMPDEST SWAP6 SWAP5 POP POP POP POP POP JUMP JUMPDEST PUSH1 0x0 PUSH1 0x20 DUP3 ADD SWAP1 POP DUP2 DUP2 SUB PUSH1 0x0 DUP4 ADD MSTORE PUSH2 0x1221 DUP2 PUSH2 0x1107 JUMP JUMPDEST SWAP1 POP SWAP2 SWAP1 POP JUMP JUMPDEST PUSH1 0x0 PUSH1 0x20 DUP3 ADD SWAP1 POP DUP2 DUP2 SUB PUSH1 0x0 DUP4 ADD MSTORE PUSH2 0x1241 DUP2 PUSH2 0x112A JUMP JUMPDEST SWAP1 POP SWAP2 SWAP1 POP JUMP JUMPDEST PUSH1 0x0 PUSH1 0x20 DUP3 ADD SWAP1 POP PUSH2 0x125D PUSH1 0x0 DUP4 ADD DUP5 PUSH2 0x114D JUMP JUMPDEST SWAP3 SWAP2 POP POP JUMP JUMPDEST PUSH1 0x0 PUSH1 0x40 DUP3 ADD SWAP1 POP PUSH2 0x1278 PUSH1 0x0 DUP4 ADD DUP6 PUSH2 0x114D JUMP JUMPDEST PUSH2 0x1285 PUSH1 0x20 DUP4 ADD DUP5 PUSH2 0x114D JUMP JUMPDEST SWAP4 SWAP3 POP POP POP JUMP JUMPDEST PUSH1 0x0 PUSH1 0x80 DUP3 ADD SWAP1 POP PUSH2 0x12A1 PUSH1 0x0 DUP4 ADD DUP8 PUSH2 0x114D JUMP JUMPDEST PUSH2 0x12AE PUSH1 0x20 DUP4 ADD DUP7 PUSH2 0x114D JUMP JUMPDEST DUP2 DUP2 SUB PUSH1 0x40 DUP4 ADD MSTORE PUSH2 0x12C0 DUP2 DUP6 PUSH2 0x10CE JUMP JUMPDEST SWAP1 POP DUP2 DUP2 SUB PUSH1 0x60 DUP4 ADD MSTORE PUSH2 0x12D4 DUP2 DUP5 PUSH2 0x10CE JUMP JUMPDEST SWAP1 POP SWAP6 SWAP5 POP POP POP POP POP JUMP JUMPDEST PUSH1 0x0 PUSH1 0xA0 DUP3 ADD SWAP1 POP PUSH2 0x12F4 PUSH1 0x0 DUP4 ADD DUP9 PUSH2 0x114D JUMP JUMPDEST PUSH2 0x1301 PUSH1 0x20 DUP4 ADD DUP8 PUSH2 0x114D JUMP JUMPDEST DUP2 DUP2 SUB PUSH1 0x40 DUP4 ADD MSTORE PUSH2 0x1313 DUP2 DUP7 PUSH2 0x10CE JUMP JUMPDEST SWAP1 POP DUP2 DUP2 SUB PUSH1 0x60 DUP4 ADD MSTORE PUSH2 0x1327 DUP2 DUP6 PUSH2 0x10CE JUMP JUMPDEST SWAP1 POP PUSH2 0x1336 PUSH1 0x80 DUP4 ADD DUP5 PUSH2 0x114D JUMP JUMPDEST SWAP7 SWAP6 POP POP POP POP POP POP JUMP JUMPDEST PUSH1 0x0 PUSH1 0x60 DUP3 ADD SWAP1 POP PUSH2 0x1355 PUSH1 0x0 DUP4 ADD DUP7 PUSH2 0x114D JUMP JUMPDEST PUSH2 0x1362 PUSH1 0x20 DUP4 ADD DUP6 PUSH2 0x114D JUMP JUMPDEST PUSH2 0x136F PUSH1 0x40 DUP4 ADD DUP5 PUSH2 0x114D JUMP JUMPDEST SWAP5 SWAP4 POP POP POP POP JUMP JUMPDEST PUSH1 0x0 PUSH1 0xA0 DUP3 ADD SWAP1 POP PUSH2 0x138C PUSH1 0x0 DUP4 ADD DUP9 PUSH2 0x114D JUMP JUMPDEST PUSH2 0x1399 PUSH1 0x20 DUP4 ADD DUP8 PUSH2 0x114D JUMP JUMPDEST PUSH2 0x13A6 PUSH1 0x40 DUP4 ADD DUP7 PUSH2 0x114D JUMP JUMPDEST DUP2 DUP2 SUB PUSH1 0x60 DUP4 ADD MSTORE PUSH2 0x13B8 DUP2 DUP6 PUSH2 0x10CE JUMP JUMPDEST SWAP1 POP DUP2 DUP2 SUB PUSH1 0x80 DUP4 ADD MSTORE PUSH2 0x13CC DUP2 DUP5 PUSH2 0x10CE JUMP JUMPDEST SWAP1 POP SWAP7 SWAP6 POP POP POP POP POP POP JUMP JUMPDEST PUSH1 0x0 PUSH2 0x13E2 PUSH2 0x13F3 JUMP JUMPDEST SWAP1 POP PUSH2 0x13EE DUP3 DUP3 PUSH2 0x1524 JUMP JUMPDEST SWAP2 SWAP1 POP JUMP JUMPDEST PUSH1 0x0 PUSH1 0x40 MLOAD SWAP1 POP SWAP1 JUMP JUMPDEST PUSH1 0x0 PUSH8 0xFFFFFFFFFFFFFFFF DUP3 GT ISZERO PUSH2 0x1418 JUMPI PUSH2 0x1417 PUSH2 0x162B JUMP JUMPDEST JUMPDEST PUSH2 0x1421 DUP3 PUSH2 0x166E JUMP JUMPDEST SWAP1 POP PUSH1 0x20 DUP2 ADD SWAP1 POP SWAP2 SWAP1 POP JUMP JUMPDEST PUSH1 0x0 DUP2 MLOAD SWAP1 POP SWAP2 SWAP1 POP JUMP JUMPDEST PUSH1 0x0 DUP3 DUP3 MSTORE PUSH1 0x20 DUP3 ADD SWAP1 POP SWAP3 SWAP2 POP POP JUMP JUMPDEST PUSH1 0x0 PUSH2 0x1455 DUP3 PUSH2 0x145C JUMP JUMPDEST SWAP1 POP SWAP2 SWAP1 POP JUMP JUMPDEST PUSH1 0x0 PUSH20 0xFFFFFFFFFFFFFFFFFFFFFFFFFFFFFFFFFFFFFFFF DUP3 AND SWAP1 POP SWAP2 SWAP1 POP JUMP JUMPDEST PUSH1 0x0 DUP2 SWAP1 POP SWAP2 SWAP1 POP JUMP JUMPDEST DUP3 DUP2 DUP4 CALLDATACOPY PUSH1 0x0 DUP4 DUP4 ADD MSTORE POP POP POP JUMP JUMPDEST PUSH1 0x0 JUMPDEST DUP4 DUP2 LT ISZERO PUSH2 0x14B3 JUMPI DUP1 DUP3 ADD MLOAD DUP2 DUP5 ADD MSTORE PUSH1 0x20 DUP2 ADD SWAP1 POP PUSH2 0x1498 JUMP JUMPDEST DUP4 DUP2 GT ISZERO PUSH2 0x14C2 JUMPI PUSH1 0x0 DUP5 DUP5 ADD MSTORE JUMPDEST POP POP POP POP JUMP JUMPDEST PUSH1 0x0 PUSH2 0x14D3 DUP3 PUSH2 0x147C JUMP JUMPDEST SWAP2 POP PUSH1 0x0 DUP3 EQ ISZERO PUSH2 0x14E7 JUMPI PUSH2 0x14E6 PUSH2 0x159E JUMP JUMPDEST JUMPDEST PUSH1 0x1 DUP3 SUB SWAP1 POP SWAP2 SWAP1 POP JUMP JUMPDEST PUSH1 0x0 PUSH1 0x2 DUP3 DIV SWAP1 POP PUSH1 0x1 DUP3 AND DUP1 PUSH2 0x150A JUMPI PUSH1 0x7F DUP3 AND SWAP2 POP JUMPDEST PUSH1 0x20 DUP3 LT DUP2 EQ ISZERO PUSH2 0x151E JUMPI PUSH2 0x151D PUSH2 0x15FC JUMP JUMPDEST JUMPDEST POP SWAP2 SWAP1 POP JUMP JUMPDEST PUSH2 0x152D DUP3 PUSH2 0x166E JUMP JUMPDEST DUP2 ADD DUP2 DUP2 LT PUSH8 0xFFFFFFFFFFFFFFFF DUP3 GT OR ISZERO PUSH2 0x154C JUMPI PUSH2 0x154B PUSH2 0x162B JUMP JUMPDEST JUMPDEST DUP1 PUSH1 0x40 MSTORE POP POP POP JUMP JUMPDEST PUSH1 0x0 PUSH2 0x1560 DUP3 PUSH2 0x147C JUMP JUMPDEST SWAP2 POP PUSH32 0xFFFFFFFFFFFFFFFFFFFFFFFFFFFFFFFFFFFFFFFFFFFFFFFFFFFFFFFFFFFFFFFF DUP3 EQ ISZERO PUSH2 0x1593 JUMPI PUSH2 0x1592 PUSH2 0x159E JUMP JUMPDEST JUMPDEST PUSH1 0x1 DUP3 ADD SWAP1 POP SWAP2 SWAP1 POP JUMP JUMPDEST PUSH32 0x4E487B7100000000000000000000000000000000000000000000000000000000 PUSH1 0x0 MSTORE PUSH1 0x11 PUSH1 0x4 MSTORE PUSH1 0x24 PUSH1 0x0 REVERT JUMPDEST PUSH32 0x4E487B7100000000000000000000000000000000000000000000000000000000 PUSH1 0x0 MSTORE PUSH1 0x21 PUSH1 0x4 MSTORE PUSH1 0x24 PUSH1 0x0 REVERT JUMPDEST PUSH32 0x4E487B7100000000000000000000000000000000000000000000000000000000 PUSH1 0x0 MSTORE PUSH1 0x22 PUSH1 0x4 MSTORE PUSH1 0x24 PUSH1 0x0 REVERT JUMPDEST PUSH32 0x4E487B7100000000000000000000000000000000000000000000000000000000 PUSH1 0x0 MSTORE PUSH1 0x41 PUSH1 0x4 MSTORE PUSH1 0x24 PUSH1 0x0 REVERT JUMPDEST PUSH1 0x0 DUP1 REVERT JUMPDEST PUSH1 0x0 DUP1 REVERT JUMPDEST PUSH1 0x0 DUP1 REVERT JUMPDEST PUSH1 0x0 DUP1 REVERT JUMPDEST PUSH1 0x0 PUSH1 0x1F NOT PUSH1 0x1F DUP4 ADD AND SWAP1 POP SWAP2 SWAP1 POP JUMP JUMPDEST PUSH32 0x412053657276696365205072696365206D757374206265207370656369666965 PUSH1 0x0 DUP3 ADD MSTORE PUSH32 0x6400000000000000000000000000000000000000000000000000000000000000 PUSH1 0x20 DUP3 ADD MSTORE POP JUMP JUMPDEST PUSH32 0x4120737472696E67206973207265717569726564210000000000000000000000 PUSH1 0x0 DUP3 ADD MSTORE POP JUMP JUMPDEST PUSH2 0x1700 DUP2 PUSH2 0x144A JUMP JUMPDEST DUP2 EQ PUSH2 0x170B JUMPI PUSH1 0x0 DUP1 REVERT JUMPDEST POP JUMP JUMPDEST PUSH2 0x1717 DUP2 PUSH2 0x147C JUMP JUMPDEST DUP2 EQ PUSH2 0x1722 JUMPI PUSH1 0x0 DUP1 REVERT JUMPDEST POP JUMP INVALID LOG2 PUSH5 0x6970667358 0x22 SLT KECCAK256 INVALID 0xE7 SLT 0xAB PUSH3 0x5DE4EE 0xC PUSH17 0x460AF8B5C7C010D9D94881906D8433220C 0xF CODECOPY BLOCKHASH PUSH18 0xF364736F6C63430008070033000000000000 "
				},
				"gasEstimates": {
					"creation": {
						"codeDepositCost": "1195800",
						"executionCost": "infinite",
						"totalCost": "infinite"
					},
					"external": {
						"createMilestone(uint256,uint256,string,string)": "infinite",
						"createService(uint256,string,string,uint256,address)": "infinite",
						"deleteMilestone(uint256,uint256,uint256)": "infinite",
						"deleteService(uint256,uint256)": "infinite",
						"getTitle(uint256,uint256)": "infinite",
						"readMilestone(uint256,uint256,uint256)": "infinite",
						"readService(uint256,uint256)": "infinite",
						"serviceNum()": "2474",
						"serviceTotal()": "2452",
						"updateMilestone(uint256,uint256,uint256,string,string)": "infinite",
						"updateService(uint256,uint256,string,string,uint256)": "infinite"
					}
				},
				"methodIdentifiers": {
					"createMilestone(uint256,uint256,string,string)": "63ef8a50",
					"createService(uint256,string,string,uint256,address)": "256da4e3",
					"deleteMilestone(uint256,uint256,uint256)": "b9b6c5d4",
					"deleteService(uint256,uint256)": "53c49c64",
					"getTitle(uint256,uint256)": "b257b1a0",
					"readMilestone(uint256,uint256,uint256)": "49428a62",
					"readService(uint256,uint256)": "4994772c",
					"serviceNum()": "352d28fd",
					"serviceTotal()": "30f73051",
					"updateMilestone(uint256,uint256,uint256,string,string)": "fd23c4bb",
					"updateService(uint256,uint256,string,string,uint256)": "ac10dfe3"
				}
			},
			"userdoc": {
				"kind": "user",
				"methods": {},
				"version": 1
			}
		}
	}
}