{
	"contracts/MilestoneOld.sol": {
		"MilestoneOld": {
			"abi": [
				{
					"anonymous": false,
					"inputs": [
						{
							"indexed": false,
							"internalType": "uint256",
							"name": "serviceNumber",
							"type": "uint256"
						},
						{
							"indexed": false,
							"internalType": "uint256",
							"name": "milestoneNumber",
							"type": "uint256"
						}
					],
					"name": "milestoneCompleted",
					"type": "event"
				},
				{
					"anonymous": false,
					"inputs": [
						{
							"indexed": false,
							"internalType": "uint256",
							"name": "serviceNumber",
							"type": "uint256"
						},
						{
							"components": [
								{
									"internalType": "string",
									"name": "milestoneTitle",
									"type": "string"
								},
								{
									"internalType": "string",
									"name": "milestoneDescription",
									"type": "string"
								},
								{
									"internalType": "enum MilestoneOld.Status",
									"name": "status",
									"type": "uint8"
								}
							],
							"indexed": false,
							"internalType": "struct MilestoneOld.milestone",
							"name": "newMilestone",
							"type": "tuple"
						},
						{
							"indexed": false,
							"internalType": "uint256",
							"name": "numMilestones",
							"type": "uint256"
						}
					],
					"name": "milestoneCreated",
					"type": "event"
				},
				{
					"anonymous": false,
					"inputs": [
						{
							"indexed": false,
							"internalType": "uint256",
							"name": "serviceNumber",
							"type": "uint256"
						},
						{
							"indexed": false,
							"internalType": "uint256",
							"name": "milestoneNumber",
							"type": "uint256"
						},
						{
							"components": [
								{
									"internalType": "string",
									"name": "milestoneTitle",
									"type": "string"
								},
								{
									"internalType": "string",
									"name": "milestoneDescription",
									"type": "string"
								},
								{
									"internalType": "enum MilestoneOld.Status",
									"name": "status",
									"type": "uint8"
								}
							],
							"indexed": false,
							"internalType": "struct MilestoneOld.milestone",
							"name": "milestoneDeleted",
							"type": "tuple"
						},
						{
							"indexed": false,
							"internalType": "uint256",
							"name": "numMilestones",
							"type": "uint256"
						}
					],
					"name": "milestoneDeleted",
					"type": "event"
				},
				{
					"anonymous": false,
					"inputs": [
						{
							"indexed": false,
							"internalType": "uint256",
							"name": "serviceNumber",
							"type": "uint256"
						},
						{
							"indexed": false,
							"internalType": "uint256",
							"name": "milestoneNumber",
							"type": "uint256"
						},
						{
							"indexed": false,
							"internalType": "enum MilestoneOld.Status",
							"name": "statusBefore",
							"type": "uint8"
						},
						{
							"indexed": false,
							"internalType": "enum MilestoneOld.Status",
							"name": "statusAfter",
							"type": "uint8"
						}
					],
					"name": "milestoneStatusChanged",
					"type": "event"
				},
				{
					"anonymous": false,
					"inputs": [
						{
							"indexed": false,
							"internalType": "uint256",
							"name": "serviceNumber",
							"type": "uint256"
						},
						{
							"indexed": false,
							"internalType": "uint256",
							"name": "milestoneNumber",
							"type": "uint256"
						},
						{
							"components": [
								{
									"internalType": "string",
									"name": "milestoneTitle",
									"type": "string"
								},
								{
									"internalType": "string",
									"name": "milestoneDescription",
									"type": "string"
								},
								{
									"internalType": "enum MilestoneOld.Status",
									"name": "status",
									"type": "uint8"
								}
							],
							"indexed": false,
							"internalType": "struct MilestoneOld.milestone",
							"name": "newMilestone",
							"type": "tuple"
						},
						{
							"components": [
								{
									"internalType": "string",
									"name": "milestoneTitle",
									"type": "string"
								},
								{
									"internalType": "string",
									"name": "milestoneDescription",
									"type": "string"
								},
								{
									"internalType": "enum MilestoneOld.Status",
									"name": "status",
									"type": "uint8"
								}
							],
							"indexed": false,
							"internalType": "struct MilestoneOld.milestone",
							"name": "oldMilestone",
							"type": "tuple"
						}
					],
					"name": "milestoneUpdated",
					"type": "event"
				},
				{
					"inputs": [
						{
							"internalType": "uint256",
							"name": "serviceNumber",
							"type": "uint256"
						}
					],
					"name": "checkAllMilestoneApproved",
					"outputs": [
						{
							"internalType": "bool",
							"name": "",
							"type": "bool"
						}
					],
					"stateMutability": "view",
					"type": "function"
				},
				{
					"inputs": [
						{
							"internalType": "uint256",
							"name": "serviceNumber",
							"type": "uint256"
						}
					],
					"name": "checkAllMilestoneCompleted",
					"outputs": [
						{
							"internalType": "bool",
							"name": "",
							"type": "bool"
						}
					],
					"stateMutability": "view",
					"type": "function"
				},
				{
					"inputs": [
						{
							"internalType": "uint256",
							"name": "serviceNumber",
							"type": "uint256"
						}
					],
					"name": "checkAllMilestoneVerified",
					"outputs": [
						{
							"internalType": "bool",
							"name": "",
							"type": "bool"
						}
					],
					"stateMutability": "view",
					"type": "function"
				},
				{
					"inputs": [
						{
							"internalType": "uint256",
							"name": "serviceNumber",
							"type": "uint256"
						}
					],
					"name": "checkAnyMilestoneConflict",
					"outputs": [
						{
							"internalType": "bool",
							"name": "",
							"type": "bool"
						}
					],
					"stateMutability": "view",
					"type": "function"
				},
				{
					"inputs": [
						{
							"internalType": "uint256",
							"name": "serviceNumber",
							"type": "uint256"
						},
						{
							"internalType": "uint256",
							"name": "milestoneNumber",
							"type": "uint256"
						},
						{
							"internalType": "uint8",
							"name": "status",
							"type": "uint8"
						}
					],
					"name": "checkMilestoneStatus",
					"outputs": [
						{
							"internalType": "bool",
							"name": "",
							"type": "bool"
						}
					],
					"stateMutability": "view",
					"type": "function"
				},
				{
					"inputs": [
						{
							"internalType": "uint256",
							"name": "serviceNumber",
							"type": "uint256"
						}
					],
					"name": "checkMinMilestoneCreated",
					"outputs": [
						{
							"internalType": "bool",
							"name": "",
							"type": "bool"
						}
					],
					"stateMutability": "view",
					"type": "function"
				},
				{
					"inputs": [
						{
							"internalType": "uint256",
							"name": "serviceNumber",
							"type": "uint256"
						},
						{
							"internalType": "string",
							"name": "titleMilestone",
							"type": "string"
						},
						{
							"internalType": "string",
							"name": "descriptionMilestone",
							"type": "string"
						}
					],
					"name": "createMilestone",
					"outputs": [],
					"stateMutability": "nonpayable",
					"type": "function"
				},
				{
					"inputs": [
						{
							"internalType": "uint256",
							"name": "serviceNumber",
							"type": "uint256"
						},
						{
							"internalType": "uint256",
							"name": "milestoneNum",
							"type": "uint256"
						}
					],
					"name": "deleteMilestone",
					"outputs": [],
					"stateMutability": "nonpayable",
					"type": "function"
				},
				{
					"inputs": [
						{
							"internalType": "uint256",
							"name": "serviceNumber",
							"type": "uint256"
						}
					],
					"name": "getAllMilestone",
					"outputs": [
						{
							"components": [
								{
									"internalType": "string",
									"name": "milestoneTitle",
									"type": "string"
								},
								{
									"internalType": "string",
									"name": "milestoneDescription",
									"type": "string"
								},
								{
									"internalType": "enum MilestoneOld.Status",
									"name": "status",
									"type": "uint8"
								}
							],
							"internalType": "struct MilestoneOld.milestone[]",
							"name": "",
							"type": "tuple[]"
						}
					],
					"stateMutability": "view",
					"type": "function"
				},
				{
					"inputs": [
						{
							"internalType": "uint256",
							"name": "serviceNumber",
							"type": "uint256"
						},
						{
							"internalType": "uint256",
							"name": "milestoneNumber",
							"type": "uint256"
						}
					],
					"name": "getMilestoneStatus",
					"outputs": [
						{
							"internalType": "enum MilestoneOld.Status",
							"name": "",
							"type": "uint8"
						}
					],
					"stateMutability": "view",
					"type": "function"
				},
				{
					"inputs": [
						{
							"internalType": "uint256",
							"name": "serviceNumber",
							"type": "uint256"
						}
					],
					"name": "getTotalNumMilestones",
					"outputs": [
						{
							"internalType": "uint256",
							"name": "",
							"type": "uint256"
						}
					],
					"stateMutability": "view",
					"type": "function"
				},
				{
					"inputs": [
						{
							"internalType": "uint256",
							"name": "serviceNumber",
							"type": "uint256"
						}
					],
					"name": "updateAllMilestonePending",
					"outputs": [],
					"stateMutability": "nonpayable",
					"type": "function"
				},
				{
					"inputs": [
						{
							"internalType": "uint256",
							"name": "serviceNumber",
							"type": "uint256"
						},
						{
							"internalType": "uint256",
							"name": "milestoneNum",
							"type": "uint256"
						},
						{
							"internalType": "string",
							"name": "titleMilestone",
							"type": "string"
						},
						{
							"internalType": "string",
							"name": "descriptionMilestone",
							"type": "string"
						}
					],
					"name": "updateMilestone",
					"outputs": [],
					"stateMutability": "nonpayable",
					"type": "function"
				},
				{
					"inputs": [
						{
							"internalType": "uint256",
							"name": "serviceNumber",
							"type": "uint256"
						},
						{
							"internalType": "uint256",
							"name": "milestoneNum",
							"type": "uint256"
						}
					],
					"name": "updateMilestoneApproved",
					"outputs": [],
					"stateMutability": "nonpayable",
					"type": "function"
				},
				{
					"inputs": [
						{
							"internalType": "uint256",
							"name": "serviceNumber",
							"type": "uint256"
						},
						{
							"internalType": "uint256",
							"name": "milestoneNum",
							"type": "uint256"
						}
					],
					"name": "updateMilestoneCompleted",
					"outputs": [],
					"stateMutability": "nonpayable",
					"type": "function"
				},
				{
					"inputs": [
						{
							"internalType": "uint256",
							"name": "serviceNumber",
							"type": "uint256"
						},
						{
							"internalType": "uint256",
							"name": "milestoneNum",
							"type": "uint256"
						}
					],
					"name": "updateMilestoneConflict",
					"outputs": [],
					"stateMutability": "nonpayable",
					"type": "function"
				},
				{
					"inputs": [
						{
							"internalType": "uint256",
							"name": "serviceNumber",
							"type": "uint256"
						},
						{
							"internalType": "uint256",
							"name": "milestoneNum",
							"type": "uint256"
						}
					],
					"name": "updateMilestoneStarted",
					"outputs": [],
					"stateMutability": "nonpayable",
					"type": "function"
				},
				{
					"inputs": [
						{
							"internalType": "uint256",
							"name": "serviceNumber",
							"type": "uint256"
						},
						{
							"internalType": "uint256",
							"name": "milestoneNum",
							"type": "uint256"
						}
					],
					"name": "updateMilestoneVerified",
					"outputs": [],
					"stateMutability": "nonpayable",
					"type": "function"
				}
			],
			"devdoc": {
				"kind": "dev",
				"methods": {},
				"version": 1
			},
			"evm": {
				"assembly": "    /* \"contracts/MilestoneOld.sol\":122:8160  contract MilestoneOld {... */\n  mstore(0x40, 0x80)\n  callvalue\n  dup1\n  iszero\n  tag_1\n  jumpi\n  0x00\n  dup1\n  revert\ntag_1:\n  pop\n  dataSize(sub_0)\n  dup1\n  dataOffset(sub_0)\n  0x00\n  codecopy\n  0x00\n  return\nstop\n\nsub_0: assembly {\n        /* \"contracts/MilestoneOld.sol\":122:8160  contract MilestoneOld {... */\n      mstore(0x40, 0x80)\n      callvalue\n      dup1\n      iszero\n      tag_1\n      jumpi\n      0x00\n      dup1\n      revert\n    tag_1:\n      pop\n      jumpi(tag_2, lt(calldatasize, 0x04))\n      shr(0xe0, calldataload(0x00))\n      dup1\n      0x6139ab8f\n      gt\n      tag_21\n      jumpi\n      dup1\n      0xab7db003\n      gt\n      tag_22\n      jumpi\n      dup1\n      0xab7db003\n      eq\n      tag_16\n      jumpi\n      dup1\n      0xb5015d11\n      eq\n      tag_17\n      jumpi\n      dup1\n      0xbceae35c\n      eq\n      tag_18\n      jumpi\n      dup1\n      0xcc590e6f\n      eq\n      tag_19\n      jumpi\n      dup1\n      0xe8049da1\n      eq\n      tag_20\n      jumpi\n      jump(tag_2)\n    tag_22:\n      dup1\n      0x6139ab8f\n      eq\n      tag_12\n      jumpi\n      dup1\n      0x79a6544e\n      eq\n      tag_13\n      jumpi\n      dup1\n      0x863ccc08\n      eq\n      tag_14\n      jumpi\n      dup1\n      0xa1a56bae\n      eq\n      tag_15\n      jumpi\n      jump(tag_2)\n    tag_21:\n      dup1\n      0x275a645c\n      gt\n      tag_23\n      jumpi\n      dup1\n      0x275a645c\n      eq\n      tag_7\n      jumpi\n      dup1\n      0x46d6e88e\n      eq\n      tag_8\n      jumpi\n      dup1\n      0x533c787b\n      eq\n      tag_9\n      jumpi\n      dup1\n      0x5c91eb59\n      eq\n      tag_10\n      jumpi\n      dup1\n      0x6005ecfd\n      eq\n      tag_11\n      jumpi\n      jump(tag_2)\n    tag_23:\n      dup1\n      0x095674aa\n      eq\n      tag_3\n      jumpi\n      dup1\n      0x1e0f2a46\n      eq\n      tag_4\n      jumpi\n      dup1\n      0x2611954f\n      eq\n      tag_5\n      jumpi\n      dup1\n      0x261ea724\n      eq\n      tag_6\n      jumpi\n    tag_2:\n      0x00\n      dup1\n      revert\n        /* \"contracts/MilestoneOld.sol\":2039:2564  function updateMilestone(uint256 serviceNumber, uint256 milestoneNum, string memory titleMilestone, string memory descriptionMilestone) external doMilestonesExist(serviceNumber) {... */\n    tag_3:\n      tag_24\n      0x04\n      dup1\n      calldatasize\n      sub\n      dup2\n      add\n      swap1\n      tag_25\n      swap2\n      swap1\n      tag_26\n      jump\t// in\n    tag_25:\n      tag_27\n      jump\t// in\n    tag_24:\n      stop\n        /* \"contracts/MilestoneOld.sol\":7379:7548  function checkAllMilestoneVerified(uint256 serviceNumber) public view returns (bool) {... */\n    tag_4:\n      tag_28\n      0x04\n      dup1\n      calldatasize\n      sub\n      dup2\n      add\n      swap1\n      tag_29\n      swap2\n      swap1\n      tag_30\n      jump\t// in\n    tag_29:\n      tag_31\n      jump\t// in\n    tag_28:\n      mload(0x40)\n      tag_32\n      swap2\n      swap1\n      tag_33\n      jump\t// in\n    tag_32:\n      mload(0x40)\n      dup1\n      swap2\n      sub\n      swap1\n      return\n        /* \"contracts/MilestoneOld.sol\":6664:6873  function checkMilestoneStatus(uint256 serviceNumber, uint256 milestoneNumber, uint8 status) public view returns (bool) {... */\n    tag_5:\n      tag_34\n      0x04\n      dup1\n      calldatasize\n      sub\n      dup2\n      add\n      swap1\n      tag_35\n      swap2\n      swap1\n      tag_36\n      jump\t// in\n    tag_35:\n      tag_37\n      jump\t// in\n    tag_34:\n      mload(0x40)\n      tag_38\n      swap2\n      swap1\n      tag_33\n      jump\t// in\n    tag_38:\n      mload(0x40)\n      dup1\n      swap2\n      sub\n      swap1\n      return\n        /* \"contracts/MilestoneOld.sol\":6928:7097  function checkAllMilestoneApproved(uint256 serviceNumber) public view returns (bool) {... */\n    tag_6:\n      tag_39\n      0x04\n      dup1\n      calldatasize\n      sub\n      dup2\n      add\n      swap1\n      tag_40\n      swap2\n      swap1\n      tag_30\n      jump\t// in\n    tag_40:\n      tag_41\n      jump\t// in\n    tag_39:\n      mload(0x40)\n      tag_42\n      swap2\n      swap1\n      tag_33\n      jump\t// in\n    tag_42:\n      mload(0x40)\n      dup1\n      swap2\n      sub\n      swap1\n      return\n        /* \"contracts/MilestoneOld.sol\":4796:5000  function updateMilestoneVerified(uint256 serviceNumber, uint256 milestoneNum) external doMilestonesExist(serviceNumber) {... */\n    tag_7:\n      tag_43\n      0x04\n      dup1\n      calldatasize\n      sub\n      dup2\n      add\n      swap1\n      tag_44\n      swap2\n      swap1\n      tag_45\n      jump\t// in\n    tag_44:\n      tag_46\n      jump\t// in\n    tag_43:\n      stop\n        /* \"contracts/MilestoneOld.sol\":4538:4744  function updateMilestoneCompleted(uint256 serviceNumber, uint256 milestoneNum) external doMilestonesExist(serviceNumber) {... */\n    tag_8:\n      tag_47\n      0x04\n      dup1\n      calldatasize\n      sub\n      dup2\n      add\n      swap1\n      tag_48\n      swap2\n      swap1\n      tag_45\n      jump\t// in\n    tag_48:\n      tag_49\n      jump\t// in\n    tag_47:\n      stop\n        /* \"contracts/MilestoneOld.sol\":5833:6006  function getTotalNumMilestones(uint256 serviceNumber) public view doMilestonesExist(serviceNumber) returns (uint256) {... */\n    tag_9:\n      tag_50\n      0x04\n      dup1\n      calldatasize\n      sub\n      dup2\n      add\n      swap1\n      tag_51\n      swap2\n      swap1\n      tag_30\n      jump\t// in\n    tag_51:\n      tag_52\n      jump\t// in\n    tag_50:\n      mload(0x40)\n      tag_53\n      swap2\n      swap1\n      tag_54\n      jump\t// in\n    tag_53:\n      mload(0x40)\n      dup1\n      swap2\n      sub\n      swap1\n      return\n        /* \"contracts/MilestoneOld.sol\":5621:5792  function getAllMilestone(uint256 serviceNumber) public view doMilestonesExist(serviceNumber) returns (milestone[] memory) {... */\n    tag_10:\n      tag_55\n      0x04\n      dup1\n      calldatasize\n      sub\n      dup2\n      add\n      swap1\n      tag_56\n      swap2\n      swap1\n      tag_30\n      jump\t// in\n    tag_56:\n      tag_57\n      jump\t// in\n    tag_55:\n      mload(0x40)\n      tag_58\n      swap2\n      swap1\n      tag_59\n      jump\t// in\n    tag_58:\n      mload(0x40)\n      dup1\n      swap2\n      sub\n      swap1\n      return\n        /* \"contracts/MilestoneOld.sol\":7987:8156  function checkAnyMilestoneConflict(uint256 serviceNumber) public view returns (bool) {... */\n    tag_11:\n      tag_60\n      0x04\n      dup1\n      calldatasize\n      sub\n      dup2\n      add\n      swap1\n      tag_61\n      swap2\n      swap1\n      tag_30\n      jump\t// in\n    tag_61:\n      tag_62\n      jump\t// in\n    tag_60:\n      mload(0x40)\n      tag_63\n      swap2\n      swap1\n      tag_33\n      jump\t// in\n    tag_63:\n      mload(0x40)\n      dup1\n      swap2\n      sub\n      swap1\n      return\n        /* \"contracts/MilestoneOld.sol\":7153:7324  function checkAllMilestoneCompleted(uint256 serviceNumber) public view returns (bool) {... */\n    tag_12:\n      tag_64\n      0x04\n      dup1\n      calldatasize\n      sub\n      dup2\n      add\n      swap1\n      tag_65\n      swap2\n      swap1\n      tag_30\n      jump\t// in\n    tag_65:\n      tag_66\n      jump\t// in\n    tag_64:\n      mload(0x40)\n      tag_67\n      swap2\n      swap1\n      tag_33\n      jump\t// in\n    tag_67:\n      mload(0x40)\n      dup1\n      swap2\n      sub\n      swap1\n      return\n        /* \"contracts/MilestoneOld.sol\":4030:4234  function updateMilestoneApproved(uint256 serviceNumber, uint256 milestoneNum) external doMilestonesExist(serviceNumber) {... */\n    tag_13:\n      tag_68\n      0x04\n      dup1\n      calldatasize\n      sub\n      dup2\n      add\n      swap1\n      tag_69\n      swap2\n      swap1\n      tag_45\n      jump\t// in\n    tag_69:\n      tag_70\n      jump\t// in\n    tag_68:\n      stop\n        /* \"contracts/MilestoneOld.sol\":6468:6613  function checkMinMilestoneCreated(uint256 serviceNumber) public view returns (bool) {... */\n    tag_14:\n      tag_71\n      0x04\n      dup1\n      calldatasize\n      sub\n      dup2\n      add\n      swap1\n      tag_72\n      swap2\n      swap1\n      tag_30\n      jump\t// in\n    tag_72:\n      tag_73\n      jump\t// in\n    tag_71:\n      mload(0x40)\n      tag_74\n      swap2\n      swap1\n      tag_33\n      jump\t// in\n    tag_74:\n      mload(0x40)\n      dup1\n      swap2\n      sub\n      swap1\n      return\n        /* \"contracts/MilestoneOld.sol\":2665:3191  function deleteMilestone(uint256 serviceNumber, uint256 milestoneNum) external doMilestonesExist(serviceNumber) {... */\n    tag_15:\n      tag_75\n      0x04\n      dup1\n      calldatasize\n      sub\n      dup2\n      add\n      swap1\n      tag_76\n      swap2\n      swap1\n      tag_45\n      jump\t// in\n    tag_76:\n      tag_77\n      jump\t// in\n    tag_75:\n      stop\n        /* \"contracts/MilestoneOld.sol\":4284:4486  function updateMilestoneStarted(uint256 serviceNumber, uint256 milestoneNum) external doMilestonesExist(serviceNumber) {... */\n    tag_16:\n      tag_78\n      0x04\n      dup1\n      calldatasize\n      sub\n      dup2\n      add\n      swap1\n      tag_79\n      swap2\n      swap1\n      tag_45\n      jump\t// in\n    tag_79:\n      tag_80\n      jump\t// in\n    tag_78:\n      stop\n        /* \"contracts/MilestoneOld.sol\":1582:1966  function createMilestone(uint256 serviceNumber, string memory titleMilestone, string memory descriptionMilestone) external {... */\n    tag_17:\n      tag_81\n      0x04\n      dup1\n      calldatasize\n      sub\n      dup2\n      add\n      swap1\n      tag_82\n      swap2\n      swap1\n      tag_83\n      jump\t// in\n    tag_82:\n      tag_84\n      jump\t// in\n    tag_81:\n      stop\n        /* \"contracts/MilestoneOld.sol\":5051:5255  function updateMilestoneConflict(uint256 serviceNumber, uint256 milestoneNum) external doMilestonesExist(serviceNumber) {... */\n    tag_18:\n      tag_85\n      0x04\n      dup1\n      calldatasize\n      sub\n      dup2\n      add\n      swap1\n      tag_86\n      swap2\n      swap1\n      tag_45\n      jump\t// in\n    tag_86:\n      tag_87\n      jump\t// in\n    tag_85:\n      stop\n        /* \"contracts/MilestoneOld.sol\":3757:3979  function updateAllMilestonePending(uint256 serviceNumber) external {... */\n    tag_19:\n      tag_88\n      0x04\n      dup1\n      calldatasize\n      sub\n      dup2\n      add\n      swap1\n      tag_89\n      swap2\n      swap1\n      tag_30\n      jump\t// in\n    tag_89:\n      tag_90\n      jump\t// in\n    tag_88:\n      stop\n        /* \"contracts/MilestoneOld.sol\":5321:5589  function getMilestoneStatus(uint256 serviceNumber, uint256 milestoneNumber) public view doMilestonesExist(serviceNumber) doSpecificMilestoneExist(serviceNumber, milestoneNumber) returns (Status) {... */\n    tag_20:\n      tag_91\n      0x04\n      dup1\n      calldatasize\n      sub\n      dup2\n      add\n      swap1\n      tag_92\n      swap2\n      swap1\n      tag_45\n      jump\t// in\n    tag_92:\n      tag_93\n      jump\t// in\n    tag_91:\n      mload(0x40)\n      tag_94\n      swap2\n      swap1\n      tag_95\n      jump\t// in\n    tag_94:\n      mload(0x40)\n      dup1\n      swap2\n      sub\n      swap1\n      return\n        /* \"contracts/MilestoneOld.sol\":2039:2564  function updateMilestone(uint256 serviceNumber, uint256 milestoneNum, string memory titleMilestone, string memory descriptionMilestone) external doMilestonesExist(serviceNumber) {... */\n    tag_27:\n        /* \"contracts/MilestoneOld.sol\":2202:2215  serviceNumber */\n      dup4\n        /* \"contracts/MilestoneOld.sol\":1214:1215  0 */\n      0x00\n        /* \"contracts/MilestoneOld.sol\":1178:1188  milestones */\n      dup1\n        /* \"contracts/MilestoneOld.sol\":1178:1203  milestones[serviceNumber] */\n      0x00\n        /* \"contracts/MilestoneOld.sol\":1189:1202  serviceNumber */\n      dup4\n        /* \"contracts/MilestoneOld.sol\":1178:1203  milestones[serviceNumber] */\n      dup2\n      mstore\n      0x20\n      add\n      swap1\n      dup2\n      mstore\n      0x20\n      add\n      0x00\n      keccak256\n        /* \"contracts/MilestoneOld.sol\":1178:1210  milestones[serviceNumber].length */\n      dup1\n      sload\n      swap1\n      pop\n        /* \"contracts/MilestoneOld.sol\":1178:1215  milestones[serviceNumber].length != 0 */\n      eq\n      iszero\n        /* \"contracts/MilestoneOld.sol\":1170:1256  require(milestones[serviceNumber].length != 0, \"Milestones have not been created yet\") */\n      tag_97\n      jumpi\n      mload(0x40)\n      0x08c379a000000000000000000000000000000000000000000000000000000000\n      dup2\n      mstore\n      0x04\n      add\n      tag_98\n      swap1\n      tag_99\n      jump\t// in\n    tag_98:\n      mload(0x40)\n      dup1\n      swap2\n      sub\n      swap1\n      revert\n    tag_97:\n        /* \"contracts/MilestoneOld.sol\":2227:2256  milestone memory newMilestone */\n      0x00\n        /* \"contracts/MilestoneOld.sol\":2259:2322  milestone(titleMilestone, descriptionMilestone, Status.pending) */\n      mload(0x40)\n      dup1\n      0x60\n      add\n      0x40\n      mstore\n      dup1\n        /* \"contracts/MilestoneOld.sol\":2269:2283  titleMilestone */\n      dup6\n        /* \"contracts/MilestoneOld.sol\":2259:2322  milestone(titleMilestone, descriptionMilestone, Status.pending) */\n      dup2\n      mstore\n      0x20\n      add\n        /* \"contracts/MilestoneOld.sol\":2285:2305  descriptionMilestone */\n      dup5\n        /* \"contracts/MilestoneOld.sol\":2259:2322  milestone(titleMilestone, descriptionMilestone, Status.pending) */\n      dup2\n      mstore\n      0x20\n      add\n        /* \"contracts/MilestoneOld.sol\":2307:2321  Status.pending */\n      0x01\n        /* \"contracts/MilestoneOld.sol\":2259:2322  milestone(titleMilestone, descriptionMilestone, Status.pending) */\n      0x06\n      dup2\n      gt\n      iszero\n      tag_101\n      jumpi\n      tag_102\n      tag_103\n      jump\t// in\n    tag_102:\n    tag_101:\n      dup2\n      mstore\n      pop\n        /* \"contracts/MilestoneOld.sol\":2227:2322  milestone memory newMilestone = milestone(titleMilestone, descriptionMilestone, Status.pending) */\n      swap1\n      pop\n        /* \"contracts/MilestoneOld.sol\":2332:2361  milestone memory oldMilestone */\n      0x00\n        /* \"contracts/MilestoneOld.sol\":2364:2374  milestones */\n      dup1\n        /* \"contracts/MilestoneOld.sol\":2364:2389  milestones[serviceNumber] */\n      0x00\n        /* \"contracts/MilestoneOld.sol\":2375:2388  serviceNumber */\n      dup9\n        /* \"contracts/MilestoneOld.sol\":2364:2389  milestones[serviceNumber] */\n      dup2\n      mstore\n      0x20\n      add\n      swap1\n      dup2\n      mstore\n      0x20\n      add\n      0x00\n      keccak256\n        /* \"contracts/MilestoneOld.sol\":2390:2402  milestoneNum */\n      dup7\n        /* \"contracts/MilestoneOld.sol\":2364:2403  milestones[serviceNumber][milestoneNum] */\n      dup2\n      sload\n      dup2\n      lt\n      tag_104\n      jumpi\n      tag_105\n      tag_106\n      jump\t// in\n    tag_105:\n    tag_104:\n      swap1\n      0x00\n      mstore\n      keccak256(0x00, 0x20)\n      swap1\n      0x03\n      mul\n      add\n        /* \"contracts/MilestoneOld.sol\":2332:2403  milestone memory oldMilestone = milestones[serviceNumber][milestoneNum] */\n      mload(0x40)\n      dup1\n      0x60\n      add\n      0x40\n      mstore\n      swap1\n      dup2\n      0x00\n      dup3\n      add\n      dup1\n      sload\n      tag_108\n      swap1\n      tag_109\n      jump\t// in\n    tag_108:\n      dup1\n      0x1f\n      add\n      0x20\n      dup1\n      swap2\n      div\n      mul\n      0x20\n      add\n      mload(0x40)\n      swap1\n      dup2\n      add\n      0x40\n      mstore\n      dup1\n      swap3\n      swap2\n      swap1\n      dup2\n      dup2\n      mstore\n      0x20\n      add\n      dup3\n      dup1\n      sload\n      tag_110\n      swap1\n      tag_109\n      jump\t// in\n    tag_110:\n      dup1\n      iszero\n      tag_111\n      jumpi\n      dup1\n      0x1f\n      lt\n      tag_112\n      jumpi\n      0x0100\n      dup1\n      dup4\n      sload\n      div\n      mul\n      dup4\n      mstore\n      swap2\n      0x20\n      add\n      swap2\n      jump(tag_111)\n    tag_112:\n      dup3\n      add\n      swap2\n      swap1\n      0x00\n      mstore\n      keccak256(0x00, 0x20)\n      swap1\n    tag_113:\n      dup2\n      sload\n      dup2\n      mstore\n      swap1\n      0x01\n      add\n      swap1\n      0x20\n      add\n      dup1\n      dup4\n      gt\n      tag_113\n      jumpi\n      dup3\n      swap1\n      sub\n      0x1f\n      and\n      dup3\n      add\n      swap2\n    tag_111:\n      pop\n      pop\n      pop\n      pop\n      pop\n      dup2\n      mstore\n      0x20\n      add\n      0x01\n      dup3\n      add\n      dup1\n      sload\n      tag_114\n      swap1\n      tag_109\n      jump\t// in\n    tag_114:\n      dup1\n      0x1f\n      add\n      0x20\n      dup1\n      swap2\n      div\n      mul\n      0x20\n      add\n      mload(0x40)\n      swap1\n      dup2\n      add\n      0x40\n      mstore\n      dup1\n      swap3\n      swap2\n      swap1\n      dup2\n      dup2\n      mstore\n      0x20\n      add\n      dup3\n      dup1\n      sload\n      tag_115\n      swap1\n      tag_109\n      jump\t// in\n    tag_115:\n      dup1\n      iszero\n      tag_116\n      jumpi\n      dup1\n      0x1f\n      lt\n      tag_117\n      jumpi\n      0x0100\n      dup1\n      dup4\n      sload\n      div\n      mul\n      dup4\n      mstore\n      swap2\n      0x20\n      add\n      swap2\n      jump(tag_116)\n    tag_117:\n      dup3\n      add\n      swap2\n      swap1\n      0x00\n      mstore\n      keccak256(0x00, 0x20)\n      swap1\n    tag_118:\n      dup2\n      sload\n      dup2\n      mstore\n      swap1\n      0x01\n      add\n      swap1\n      0x20\n      add\n      dup1\n      dup4\n      gt\n      tag_118\n      jumpi\n      dup3\n      swap1\n      sub\n      0x1f\n      and\n      dup3\n      add\n      swap2\n    tag_116:\n      pop\n      pop\n      pop\n      pop\n      pop\n      dup2\n      mstore\n      0x20\n      add\n      0x02\n      dup3\n      add\n      0x00\n      swap1\n      sload\n      swap1\n      0x0100\n      exp\n      swap1\n      div\n      0xff\n      and\n      0x06\n      dup2\n      gt\n      iszero\n      tag_119\n      jumpi\n      tag_120\n      tag_103\n      jump\t// in\n    tag_120:\n    tag_119:\n      0x06\n      dup2\n      gt\n      iszero\n      tag_121\n      jumpi\n      tag_122\n      tag_103\n      jump\t// in\n    tag_122:\n    tag_121:\n      dup2\n      mstore\n      pop\n      pop\n      swap1\n      pop\n        /* \"contracts/MilestoneOld.sol\":2456:2468  newMilestone */\n      dup2\n        /* \"contracts/MilestoneOld.sol\":2414:2424  milestones */\n      0x00\n        /* \"contracts/MilestoneOld.sol\":2414:2439  milestones[serviceNumber] */\n      dup1\n        /* \"contracts/MilestoneOld.sol\":2425:2438  serviceNumber */\n      dup10\n        /* \"contracts/MilestoneOld.sol\":2414:2439  milestones[serviceNumber] */\n      dup2\n      mstore\n      0x20\n      add\n      swap1\n      dup2\n      mstore\n      0x20\n      add\n      0x00\n      keccak256\n        /* \"contracts/MilestoneOld.sol\":2440:2452  milestoneNum */\n      dup8\n        /* \"contracts/MilestoneOld.sol\":2414:2453  milestones[serviceNumber][milestoneNum] */\n      dup2\n      sload\n      dup2\n      lt\n      tag_123\n      jumpi\n      tag_124\n      tag_106\n      jump\t// in\n    tag_124:\n    tag_123:\n      swap1\n      0x00\n      mstore\n      keccak256(0x00, 0x20)\n      swap1\n      0x03\n      mul\n      add\n        /* \"contracts/MilestoneOld.sol\":2414:2468  milestones[serviceNumber][milestoneNum] = newMilestone */\n      0x00\n      dup3\n      add\n      mload\n      dup2\n      0x00\n      add\n      swap1\n      dup1\n      mload\n      swap1\n      0x20\n      add\n      swap1\n      tag_126\n      swap3\n      swap2\n      swap1\n      tag_127\n      jump\t// in\n    tag_126:\n      pop\n      0x20\n      dup3\n      add\n      mload\n      dup2\n      0x01\n      add\n      swap1\n      dup1\n      mload\n      swap1\n      0x20\n      add\n      swap1\n      tag_128\n      swap3\n      swap2\n      swap1\n      tag_127\n      jump\t// in\n    tag_128:\n      pop\n      0x40\n      dup3\n      add\n      mload\n      dup2\n      0x02\n      add\n      exp(0x0100, 0x00)\n      dup2\n      sload\n      dup2\n      0xff\n      mul\n      not\n      and\n      swap1\n      dup4\n      0x06\n      dup2\n      gt\n      iszero\n      tag_129\n      jumpi\n      tag_130\n      tag_103\n      jump\t// in\n    tag_130:\n    tag_129:\n      mul\n      or\n      swap1\n      sstore\n      pop\n      swap1\n      pop\n      pop\n        /* \"contracts/MilestoneOld.sol\":2484:2557  milestoneUpdated(serviceNumber, milestoneNum, newMilestone, oldMilestone) */\n      0x65b6a4fc6c03a38284e22d1d709975609c288dbbd2f5d284f2585fd4ad4b46b4\n        /* \"contracts/MilestoneOld.sol\":2501:2514  serviceNumber */\n      dup8\n        /* \"contracts/MilestoneOld.sol\":2516:2528  milestoneNum */\n      dup8\n        /* \"contracts/MilestoneOld.sol\":2530:2542  newMilestone */\n      dup5\n        /* \"contracts/MilestoneOld.sol\":2544:2556  oldMilestone */\n      dup5\n        /* \"contracts/MilestoneOld.sol\":2484:2557  milestoneUpdated(serviceNumber, milestoneNum, newMilestone, oldMilestone) */\n      mload(0x40)\n      tag_131\n      swap5\n      swap4\n      swap3\n      swap2\n      swap1\n      tag_132\n      jump\t// in\n    tag_131:\n      mload(0x40)\n      dup1\n      swap2\n      sub\n      swap1\n      log1\n        /* \"contracts/MilestoneOld.sol\":2217:2564  {... */\n      pop\n      pop\n        /* \"contracts/MilestoneOld.sol\":2039:2564  function updateMilestone(uint256 serviceNumber, uint256 milestoneNum, string memory titleMilestone, string memory descriptionMilestone) external doMilestonesExist(serviceNumber) {... */\n      pop\n      pop\n      pop\n      pop\n      pop\n      jump\t// out\n        /* \"contracts/MilestoneOld.sol\":7379:7548  function checkAllMilestoneVerified(uint256 serviceNumber) public view returns (bool) {... */\n    tag_31:\n        /* \"contracts/MilestoneOld.sol\":7458:7462  bool */\n      0x00\n        /* \"contracts/MilestoneOld.sol\":7481:7541  checkAllMilestoneStatusMatch(serviceNumber, Status.verified) */\n      tag_134\n        /* \"contracts/MilestoneOld.sol\":7510:7523  serviceNumber */\n      dup3\n        /* \"contracts/MilestoneOld.sol\":7525:7540  Status.verified */\n      0x05\n        /* \"contracts/MilestoneOld.sol\":7481:7509  checkAllMilestoneStatusMatch */\n      tag_135\n        /* \"contracts/MilestoneOld.sol\":7481:7541  checkAllMilestoneStatusMatch(serviceNumber, Status.verified) */\n      jump\t// in\n    tag_134:\n        /* \"contracts/MilestoneOld.sol\":7474:7541  return checkAllMilestoneStatusMatch(serviceNumber, Status.verified) */\n      swap1\n      pop\n        /* \"contracts/MilestoneOld.sol\":7379:7548  function checkAllMilestoneVerified(uint256 serviceNumber) public view returns (bool) {... */\n      swap2\n      swap1\n      pop\n      jump\t// out\n        /* \"contracts/MilestoneOld.sol\":6664:6873  function checkMilestoneStatus(uint256 serviceNumber, uint256 milestoneNumber, uint8 status) public view returns (bool) {... */\n    tag_37:\n        /* \"contracts/MilestoneOld.sol\":6777:6781  bool */\n      0x00\n        /* \"contracts/MilestoneOld.sol\":6860:6866  status */\n      dup2\n        /* \"contracts/MilestoneOld.sol\":6800:6866  uint8(milestones[serviceNumber][milestoneNumber].status) == status */\n      0xff\n      and\n        /* \"contracts/MilestoneOld.sol\":6806:6816  milestones */\n      0x00\n        /* \"contracts/MilestoneOld.sol\":6806:6831  milestones[serviceNumber] */\n      dup1\n        /* \"contracts/MilestoneOld.sol\":6817:6830  serviceNumber */\n      dup7\n        /* \"contracts/MilestoneOld.sol\":6806:6831  milestones[serviceNumber] */\n      dup2\n      mstore\n      0x20\n      add\n      swap1\n      dup2\n      mstore\n      0x20\n      add\n      0x00\n      keccak256\n        /* \"contracts/MilestoneOld.sol\":6832:6847  milestoneNumber */\n      dup5\n        /* \"contracts/MilestoneOld.sol\":6806:6848  milestones[serviceNumber][milestoneNumber] */\n      dup2\n      sload\n      dup2\n      lt\n      tag_137\n      jumpi\n      tag_138\n      tag_106\n      jump\t// in\n    tag_138:\n    tag_137:\n      swap1\n      0x00\n      mstore\n      keccak256(0x00, 0x20)\n      swap1\n      0x03\n      mul\n      add\n        /* \"contracts/MilestoneOld.sol\":6806:6855  milestones[serviceNumber][milestoneNumber].status */\n      0x02\n      add\n      0x00\n      swap1\n      sload\n      swap1\n      0x0100\n      exp\n      swap1\n      div\n      0xff\n      and\n        /* \"contracts/MilestoneOld.sol\":6800:6856  uint8(milestones[serviceNumber][milestoneNumber].status) */\n      0x06\n      dup2\n      gt\n      iszero\n      tag_140\n      jumpi\n      tag_141\n      tag_103\n      jump\t// in\n    tag_141:\n    tag_140:\n        /* \"contracts/MilestoneOld.sol\":6800:6866  uint8(milestones[serviceNumber][milestoneNumber].status) == status */\n      0xff\n      and\n      eq\n        /* \"contracts/MilestoneOld.sol\":6793:6866  return uint8(milestones[serviceNumber][milestoneNumber].status) == status */\n      swap1\n      pop\n        /* \"contracts/MilestoneOld.sol\":6664:6873  function checkMilestoneStatus(uint256 serviceNumber, uint256 milestoneNumber, uint8 status) public view returns (bool) {... */\n      swap4\n      swap3\n      pop\n      pop\n      pop\n      jump\t// out\n        /* \"contracts/MilestoneOld.sol\":6928:7097  function checkAllMilestoneApproved(uint256 serviceNumber) public view returns (bool) {... */\n    tag_41:\n        /* \"contracts/MilestoneOld.sol\":7007:7011  bool */\n      0x00\n        /* \"contracts/MilestoneOld.sol\":7030:7090  checkAllMilestoneStatusMatch(serviceNumber, Status.approved) */\n      tag_143\n        /* \"contracts/MilestoneOld.sol\":7059:7072  serviceNumber */\n      dup3\n        /* \"contracts/MilestoneOld.sol\":7074:7089  Status.approved */\n      0x02\n        /* \"contracts/MilestoneOld.sol\":7030:7058  checkAllMilestoneStatusMatch */\n      tag_135\n        /* \"contracts/MilestoneOld.sol\":7030:7090  checkAllMilestoneStatusMatch(serviceNumber, Status.approved) */\n      jump\t// in\n    tag_143:\n        /* \"contracts/MilestoneOld.sol\":7023:7090  return checkAllMilestoneStatusMatch(serviceNumber, Status.approved) */\n      swap1\n      pop\n        /* \"contracts/MilestoneOld.sol\":6928:7097  function checkAllMilestoneApproved(uint256 serviceNumber) public view returns (bool) {... */\n      swap2\n      swap1\n      pop\n      jump\t// out\n        /* \"contracts/MilestoneOld.sol\":4796:5000  function updateMilestoneVerified(uint256 serviceNumber, uint256 milestoneNum) external doMilestonesExist(serviceNumber) {... */\n    tag_46:\n        /* \"contracts/MilestoneOld.sol\":4901:4914  serviceNumber */\n      dup2\n        /* \"contracts/MilestoneOld.sol\":1214:1215  0 */\n      0x00\n        /* \"contracts/MilestoneOld.sol\":1178:1188  milestones */\n      dup1\n        /* \"contracts/MilestoneOld.sol\":1178:1203  milestones[serviceNumber] */\n      0x00\n        /* \"contracts/MilestoneOld.sol\":1189:1202  serviceNumber */\n      dup4\n        /* \"contracts/MilestoneOld.sol\":1178:1203  milestones[serviceNumber] */\n      dup2\n      mstore\n      0x20\n      add\n      swap1\n      dup2\n      mstore\n      0x20\n      add\n      0x00\n      keccak256\n        /* \"contracts/MilestoneOld.sol\":1178:1210  milestones[serviceNumber].length */\n      dup1\n      sload\n      swap1\n      pop\n        /* \"contracts/MilestoneOld.sol\":1178:1215  milestones[serviceNumber].length != 0 */\n      eq\n      iszero\n        /* \"contracts/MilestoneOld.sol\":1170:1256  require(milestones[serviceNumber].length != 0, \"Milestones have not been created yet\") */\n      tag_145\n      jumpi\n      mload(0x40)\n      0x08c379a000000000000000000000000000000000000000000000000000000000\n      dup2\n      mstore\n      0x04\n      add\n      tag_146\n      swap1\n      tag_99\n      jump\t// in\n    tag_146:\n      mload(0x40)\n      dup1\n      swap2\n      sub\n      swap1\n      revert\n    tag_145:\n        /* \"contracts/MilestoneOld.sol\":4926:4993  updateMilestoneStatus(serviceNumber, milestoneNum, Status.verified) */\n      tag_148\n        /* \"contracts/MilestoneOld.sol\":4948:4961  serviceNumber */\n      dup4\n        /* \"contracts/MilestoneOld.sol\":4963:4975  milestoneNum */\n      dup4\n        /* \"contracts/MilestoneOld.sol\":4977:4992  Status.verified */\n      0x05\n        /* \"contracts/MilestoneOld.sol\":4926:4947  updateMilestoneStatus */\n      tag_149\n        /* \"contracts/MilestoneOld.sol\":4926:4993  updateMilestoneStatus(serviceNumber, milestoneNum, Status.verified) */\n      jump\t// in\n    tag_148:\n        /* \"contracts/MilestoneOld.sol\":4796:5000  function updateMilestoneVerified(uint256 serviceNumber, uint256 milestoneNum) external doMilestonesExist(serviceNumber) {... */\n      pop\n      pop\n      pop\n      jump\t// out\n        /* \"contracts/MilestoneOld.sol\":4538:4744  function updateMilestoneCompleted(uint256 serviceNumber, uint256 milestoneNum) external doMilestonesExist(serviceNumber) {... */\n    tag_49:\n        /* \"contracts/MilestoneOld.sol\":4644:4657  serviceNumber */\n      dup2\n        /* \"contracts/MilestoneOld.sol\":1214:1215  0 */\n      0x00\n        /* \"contracts/MilestoneOld.sol\":1178:1188  milestones */\n      dup1\n        /* \"contracts/MilestoneOld.sol\":1178:1203  milestones[serviceNumber] */\n      0x00\n        /* \"contracts/MilestoneOld.sol\":1189:1202  serviceNumber */\n      dup4\n        /* \"contracts/MilestoneOld.sol\":1178:1203  milestones[serviceNumber] */\n      dup2\n      mstore\n      0x20\n      add\n      swap1\n      dup2\n      mstore\n      0x20\n      add\n      0x00\n      keccak256\n        /* \"contracts/MilestoneOld.sol\":1178:1210  milestones[serviceNumber].length */\n      dup1\n      sload\n      swap1\n      pop\n        /* \"contracts/MilestoneOld.sol\":1178:1215  milestones[serviceNumber].length != 0 */\n      eq\n      iszero\n        /* \"contracts/MilestoneOld.sol\":1170:1256  require(milestones[serviceNumber].length != 0, \"Milestones have not been created yet\") */\n      tag_151\n      jumpi\n      mload(0x40)\n      0x08c379a000000000000000000000000000000000000000000000000000000000\n      dup2\n      mstore\n      0x04\n      add\n      tag_152\n      swap1\n      tag_99\n      jump\t// in\n    tag_152:\n      mload(0x40)\n      dup1\n      swap2\n      sub\n      swap1\n      revert\n    tag_151:\n        /* \"contracts/MilestoneOld.sol\":4669:4737  updateMilestoneStatus(serviceNumber, milestoneNum, Status.completed) */\n      tag_154\n        /* \"contracts/MilestoneOld.sol\":4691:4704  serviceNumber */\n      dup4\n        /* \"contracts/MilestoneOld.sol\":4706:4718  milestoneNum */\n      dup4\n        /* \"contracts/MilestoneOld.sol\":4720:4736  Status.completed */\n      0x04\n        /* \"contracts/MilestoneOld.sol\":4669:4690  updateMilestoneStatus */\n      tag_149\n        /* \"contracts/MilestoneOld.sol\":4669:4737  updateMilestoneStatus(serviceNumber, milestoneNum, Status.completed) */\n      jump\t// in\n    tag_154:\n        /* \"contracts/MilestoneOld.sol\":4538:4744  function updateMilestoneCompleted(uint256 serviceNumber, uint256 milestoneNum) external doMilestonesExist(serviceNumber) {... */\n      pop\n      pop\n      pop\n      jump\t// out\n        /* \"contracts/MilestoneOld.sol\":5833:6006  function getTotalNumMilestones(uint256 serviceNumber) public view doMilestonesExist(serviceNumber) returns (uint256) {... */\n    tag_52:\n        /* \"contracts/MilestoneOld.sol\":5941:5948  uint256 */\n      0x00\n        /* \"contracts/MilestoneOld.sol\":5917:5930  serviceNumber */\n      dup2\n        /* \"contracts/MilestoneOld.sol\":1214:1215  0 */\n      0x00\n        /* \"contracts/MilestoneOld.sol\":1178:1188  milestones */\n      dup1\n        /* \"contracts/MilestoneOld.sol\":1178:1203  milestones[serviceNumber] */\n      0x00\n        /* \"contracts/MilestoneOld.sol\":1189:1202  serviceNumber */\n      dup4\n        /* \"contracts/MilestoneOld.sol\":1178:1203  milestones[serviceNumber] */\n      dup2\n      mstore\n      0x20\n      add\n      swap1\n      dup2\n      mstore\n      0x20\n      add\n      0x00\n      keccak256\n        /* \"contracts/MilestoneOld.sol\":1178:1210  milestones[serviceNumber].length */\n      dup1\n      sload\n      swap1\n      pop\n        /* \"contracts/MilestoneOld.sol\":1178:1215  milestones[serviceNumber].length != 0 */\n      eq\n      iszero\n        /* \"contracts/MilestoneOld.sol\":1170:1256  require(milestones[serviceNumber].length != 0, \"Milestones have not been created yet\") */\n      tag_156\n      jumpi\n      mload(0x40)\n      0x08c379a000000000000000000000000000000000000000000000000000000000\n      dup2\n      mstore\n      0x04\n      add\n      tag_157\n      swap1\n      tag_99\n      jump\t// in\n    tag_157:\n      mload(0x40)\n      dup1\n      swap2\n      sub\n      swap1\n      revert\n    tag_156:\n        /* \"contracts/MilestoneOld.sol\":5967:5977  milestones */\n      0x00\n        /* \"contracts/MilestoneOld.sol\":5967:5992  milestones[serviceNumber] */\n      dup1\n        /* \"contracts/MilestoneOld.sol\":5978:5991  serviceNumber */\n      dup5\n        /* \"contracts/MilestoneOld.sol\":5967:5992  milestones[serviceNumber] */\n      dup2\n      mstore\n      0x20\n      add\n      swap1\n      dup2\n      mstore\n      0x20\n      add\n      0x00\n      keccak256\n        /* \"contracts/MilestoneOld.sol\":5967:5999  milestones[serviceNumber].length */\n      dup1\n      sload\n      swap1\n      pop\n        /* \"contracts/MilestoneOld.sol\":5960:5999  return milestones[serviceNumber].length */\n      swap2\n      pop\n        /* \"contracts/MilestoneOld.sol\":5833:6006  function getTotalNumMilestones(uint256 serviceNumber) public view doMilestonesExist(serviceNumber) returns (uint256) {... */\n      pop\n      swap2\n      swap1\n      pop\n      jump\t// out\n        /* \"contracts/MilestoneOld.sol\":5621:5792  function getAllMilestone(uint256 serviceNumber) public view doMilestonesExist(serviceNumber) returns (milestone[] memory) {... */\n    tag_57:\n        /* \"contracts/MilestoneOld.sol\":5723:5741  milestone[] memory */\n      0x60\n        /* \"contracts/MilestoneOld.sol\":5699:5712  serviceNumber */\n      dup2\n        /* \"contracts/MilestoneOld.sol\":1214:1215  0 */\n      0x00\n        /* \"contracts/MilestoneOld.sol\":1178:1188  milestones */\n      dup1\n        /* \"contracts/MilestoneOld.sol\":1178:1203  milestones[serviceNumber] */\n      0x00\n        /* \"contracts/MilestoneOld.sol\":1189:1202  serviceNumber */\n      dup4\n        /* \"contracts/MilestoneOld.sol\":1178:1203  milestones[serviceNumber] */\n      dup2\n      mstore\n      0x20\n      add\n      swap1\n      dup2\n      mstore\n      0x20\n      add\n      0x00\n      keccak256\n        /* \"contracts/MilestoneOld.sol\":1178:1210  milestones[serviceNumber].length */\n      dup1\n      sload\n      swap1\n      pop\n        /* \"contracts/MilestoneOld.sol\":1178:1215  milestones[serviceNumber].length != 0 */\n      eq\n      iszero\n        /* \"contracts/MilestoneOld.sol\":1170:1256  require(milestones[serviceNumber].length != 0, \"Milestones have not been created yet\") */\n      tag_160\n      jumpi\n      mload(0x40)\n      0x08c379a000000000000000000000000000000000000000000000000000000000\n      dup2\n      mstore\n      0x04\n      add\n      tag_161\n      swap1\n      tag_99\n      jump\t// in\n    tag_161:\n      mload(0x40)\n      dup1\n      swap2\n      sub\n      swap1\n      revert\n    tag_160:\n        /* \"contracts/MilestoneOld.sol\":5760:5770  milestones */\n      0x00\n        /* \"contracts/MilestoneOld.sol\":5760:5785  milestones[serviceNumber] */\n      dup1\n        /* \"contracts/MilestoneOld.sol\":5771:5784  serviceNumber */\n      dup5\n        /* \"contracts/MilestoneOld.sol\":5760:5785  milestones[serviceNumber] */\n      dup2\n      mstore\n      0x20\n      add\n      swap1\n      dup2\n      mstore\n      0x20\n      add\n      0x00\n      keccak256\n        /* \"contracts/MilestoneOld.sol\":5753:5785  return milestones[serviceNumber] */\n      dup1\n      sload\n      dup1\n      0x20\n      mul\n      0x20\n      add\n      mload(0x40)\n      swap1\n      dup2\n      add\n      0x40\n      mstore\n      dup1\n      swap3\n      swap2\n      swap1\n      dup2\n      dup2\n      mstore\n      0x20\n      add\n      0x00\n      swap1\n    tag_163:\n      dup3\n      dup3\n      lt\n      iszero\n      tag_164\n      jumpi\n      dup4\n      dup3\n      swap1\n      0x00\n      mstore\n      keccak256(0x00, 0x20)\n      swap1\n      0x03\n      mul\n      add\n      mload(0x40)\n      dup1\n      0x60\n      add\n      0x40\n      mstore\n      swap1\n      dup2\n      0x00\n      dup3\n      add\n      dup1\n      sload\n      tag_166\n      swap1\n      tag_109\n      jump\t// in\n    tag_166:\n      dup1\n      0x1f\n      add\n      0x20\n      dup1\n      swap2\n      div\n      mul\n      0x20\n      add\n      mload(0x40)\n      swap1\n      dup2\n      add\n      0x40\n      mstore\n      dup1\n      swap3\n      swap2\n      swap1\n      dup2\n      dup2\n      mstore\n      0x20\n      add\n      dup3\n      dup1\n      sload\n      tag_167\n      swap1\n      tag_109\n      jump\t// in\n    tag_167:\n      dup1\n      iszero\n      tag_168\n      jumpi\n      dup1\n      0x1f\n      lt\n      tag_169\n      jumpi\n      0x0100\n      dup1\n      dup4\n      sload\n      div\n      mul\n      dup4\n      mstore\n      swap2\n      0x20\n      add\n      swap2\n      jump(tag_168)\n    tag_169:\n      dup3\n      add\n      swap2\n      swap1\n      0x00\n      mstore\n      keccak256(0x00, 0x20)\n      swap1\n    tag_170:\n      dup2\n      sload\n      dup2\n      mstore\n      swap1\n      0x01\n      add\n      swap1\n      0x20\n      add\n      dup1\n      dup4\n      gt\n      tag_170\n      jumpi\n      dup3\n      swap1\n      sub\n      0x1f\n      and\n      dup3\n      add\n      swap2\n    tag_168:\n      pop\n      pop\n      pop\n      pop\n      pop\n      dup2\n      mstore\n      0x20\n      add\n      0x01\n      dup3\n      add\n      dup1\n      sload\n      tag_171\n      swap1\n      tag_109\n      jump\t// in\n    tag_171:\n      dup1\n      0x1f\n      add\n      0x20\n      dup1\n      swap2\n      div\n      mul\n      0x20\n      add\n      mload(0x40)\n      swap1\n      dup2\n      add\n      0x40\n      mstore\n      dup1\n      swap3\n      swap2\n      swap1\n      dup2\n      dup2\n      mstore\n      0x20\n      add\n      dup3\n      dup1\n      sload\n      tag_172\n      swap1\n      tag_109\n      jump\t// in\n    tag_172:\n      dup1\n      iszero\n      tag_173\n      jumpi\n      dup1\n      0x1f\n      lt\n      tag_174\n      jumpi\n      0x0100\n      dup1\n      dup4\n      sload\n      div\n      mul\n      dup4\n      mstore\n      swap2\n      0x20\n      add\n      swap2\n      jump(tag_173)\n    tag_174:\n      dup3\n      add\n      swap2\n      swap1\n      0x00\n      mstore\n      keccak256(0x00, 0x20)\n      swap1\n    tag_175:\n      dup2\n      sload\n      dup2\n      mstore\n      swap1\n      0x01\n      add\n      swap1\n      0x20\n      add\n      dup1\n      dup4\n      gt\n      tag_175\n      jumpi\n      dup3\n      swap1\n      sub\n      0x1f\n      and\n      dup3\n      add\n      swap2\n    tag_173:\n      pop\n      pop\n      pop\n      pop\n      pop\n      dup2\n      mstore\n      0x20\n      add\n      0x02\n      dup3\n      add\n      0x00\n      swap1\n      sload\n      swap1\n      0x0100\n      exp\n      swap1\n      div\n      0xff\n      and\n      0x06\n      dup2\n      gt\n      iszero\n      tag_176\n      jumpi\n      tag_177\n      tag_103\n      jump\t// in\n    tag_177:\n    tag_176:\n      0x06\n      dup2\n      gt\n      iszero\n      tag_178\n      jumpi\n      tag_179\n      tag_103\n      jump\t// in\n    tag_179:\n    tag_178:\n      dup2\n      mstore\n      pop\n      pop\n      dup2\n      mstore\n      0x20\n      add\n      swap1\n      0x01\n      add\n      swap1\n      jump(tag_163)\n    tag_164:\n      pop\n      pop\n      pop\n      pop\n      swap2\n      pop\n        /* \"contracts/MilestoneOld.sol\":5621:5792  function getAllMilestone(uint256 serviceNumber) public view doMilestonesExist(serviceNumber) returns (milestone[] memory) {... */\n      pop\n      swap2\n      swap1\n      pop\n      jump\t// out\n        /* \"contracts/MilestoneOld.sol\":7987:8156  function checkAnyMilestoneConflict(uint256 serviceNumber) public view returns (bool) {... */\n    tag_62:\n        /* \"contracts/MilestoneOld.sol\":8066:8070  bool */\n      0x00\n        /* \"contracts/MilestoneOld.sol\":8089:8149  checkAnyMilestoneStatusMatch(serviceNumber, Status.conflict) */\n      tag_181\n        /* \"contracts/MilestoneOld.sol\":8118:8131  serviceNumber */\n      dup3\n        /* \"contracts/MilestoneOld.sol\":8133:8148  Status.conflict */\n      0x06\n        /* \"contracts/MilestoneOld.sol\":8089:8117  checkAnyMilestoneStatusMatch */\n      tag_182\n        /* \"contracts/MilestoneOld.sol\":8089:8149  checkAnyMilestoneStatusMatch(serviceNumber, Status.conflict) */\n      jump\t// in\n    tag_181:\n        /* \"contracts/MilestoneOld.sol\":8082:8149  return checkAnyMilestoneStatusMatch(serviceNumber, Status.conflict) */\n      swap1\n      pop\n        /* \"contracts/MilestoneOld.sol\":7987:8156  function checkAnyMilestoneConflict(uint256 serviceNumber) public view returns (bool) {... */\n      swap2\n      swap1\n      pop\n      jump\t// out\n        /* \"contracts/MilestoneOld.sol\":7153:7324  function checkAllMilestoneCompleted(uint256 serviceNumber) public view returns (bool) {... */\n    tag_66:\n        /* \"contracts/MilestoneOld.sol\":7233:7237  bool */\n      0x00\n        /* \"contracts/MilestoneOld.sol\":7256:7317  checkAllMilestoneStatusMatch(serviceNumber, Status.completed) */\n      tag_184\n        /* \"contracts/MilestoneOld.sol\":7285:7298  serviceNumber */\n      dup3\n        /* \"contracts/MilestoneOld.sol\":7300:7316  Status.completed */\n      0x04\n        /* \"contracts/MilestoneOld.sol\":7256:7284  checkAllMilestoneStatusMatch */\n      tag_135\n        /* \"contracts/MilestoneOld.sol\":7256:7317  checkAllMilestoneStatusMatch(serviceNumber, Status.completed) */\n      jump\t// in\n    tag_184:\n        /* \"contracts/MilestoneOld.sol\":7249:7317  return checkAllMilestoneStatusMatch(serviceNumber, Status.completed) */\n      swap1\n      pop\n        /* \"contracts/MilestoneOld.sol\":7153:7324  function checkAllMilestoneCompleted(uint256 serviceNumber) public view returns (bool) {... */\n      swap2\n      swap1\n      pop\n      jump\t// out\n        /* \"contracts/MilestoneOld.sol\":4030:4234  function updateMilestoneApproved(uint256 serviceNumber, uint256 milestoneNum) external doMilestonesExist(serviceNumber) {... */\n    tag_70:\n        /* \"contracts/MilestoneOld.sol\":4135:4148  serviceNumber */\n      dup2\n        /* \"contracts/MilestoneOld.sol\":1214:1215  0 */\n      0x00\n        /* \"contracts/MilestoneOld.sol\":1178:1188  milestones */\n      dup1\n        /* \"contracts/MilestoneOld.sol\":1178:1203  milestones[serviceNumber] */\n      0x00\n        /* \"contracts/MilestoneOld.sol\":1189:1202  serviceNumber */\n      dup4\n        /* \"contracts/MilestoneOld.sol\":1178:1203  milestones[serviceNumber] */\n      dup2\n      mstore\n      0x20\n      add\n      swap1\n      dup2\n      mstore\n      0x20\n      add\n      0x00\n      keccak256\n        /* \"contracts/MilestoneOld.sol\":1178:1210  milestones[serviceNumber].length */\n      dup1\n      sload\n      swap1\n      pop\n        /* \"contracts/MilestoneOld.sol\":1178:1215  milestones[serviceNumber].length != 0 */\n      eq\n      iszero\n        /* \"contracts/MilestoneOld.sol\":1170:1256  require(milestones[serviceNumber].length != 0, \"Milestones have not been created yet\") */\n      tag_186\n      jumpi\n      mload(0x40)\n      0x08c379a000000000000000000000000000000000000000000000000000000000\n      dup2\n      mstore\n      0x04\n      add\n      tag_187\n      swap1\n      tag_99\n      jump\t// in\n    tag_187:\n      mload(0x40)\n      dup1\n      swap2\n      sub\n      swap1\n      revert\n    tag_186:\n        /* \"contracts/MilestoneOld.sol\":4160:4227  updateMilestoneStatus(serviceNumber, milestoneNum, Status.approved) */\n      tag_189\n        /* \"contracts/MilestoneOld.sol\":4182:4195  serviceNumber */\n      dup4\n        /* \"contracts/MilestoneOld.sol\":4197:4209  milestoneNum */\n      dup4\n        /* \"contracts/MilestoneOld.sol\":4211:4226  Status.approved */\n      0x02\n        /* \"contracts/MilestoneOld.sol\":4160:4181  updateMilestoneStatus */\n      tag_149\n        /* \"contracts/MilestoneOld.sol\":4160:4227  updateMilestoneStatus(serviceNumber, milestoneNum, Status.approved) */\n      jump\t// in\n    tag_189:\n        /* \"contracts/MilestoneOld.sol\":4030:4234  function updateMilestoneApproved(uint256 serviceNumber, uint256 milestoneNum) external doMilestonesExist(serviceNumber) {... */\n      pop\n      pop\n      pop\n      jump\t// out\n        /* \"contracts/MilestoneOld.sol\":6468:6613  function checkMinMilestoneCreated(uint256 serviceNumber) public view returns (bool) {... */\n    tag_73:\n        /* \"contracts/MilestoneOld.sol\":6546:6550  bool */\n      0x00\n        /* \"contracts/MilestoneOld.sol\":6605:6606  0 */\n      dup1\n        /* \"contracts/MilestoneOld.sol\":6569:6579  milestones */\n      0x00\n        /* \"contracts/MilestoneOld.sol\":6569:6594  milestones[serviceNumber] */\n      dup1\n        /* \"contracts/MilestoneOld.sol\":6580:6593  serviceNumber */\n      dup5\n        /* \"contracts/MilestoneOld.sol\":6569:6594  milestones[serviceNumber] */\n      dup2\n      mstore\n      0x20\n      add\n      swap1\n      dup2\n      mstore\n      0x20\n      add\n      0x00\n      keccak256\n        /* \"contracts/MilestoneOld.sol\":6569:6601  milestones[serviceNumber].length */\n      dup1\n      sload\n      swap1\n      pop\n        /* \"contracts/MilestoneOld.sol\":6569:6606  milestones[serviceNumber].length != 0 */\n      eq\n      iszero\n        /* \"contracts/MilestoneOld.sol\":6562:6606  return milestones[serviceNumber].length != 0 */\n      swap1\n      pop\n        /* \"contracts/MilestoneOld.sol\":6468:6613  function checkMinMilestoneCreated(uint256 serviceNumber) public view returns (bool) {... */\n      swap2\n      swap1\n      pop\n      jump\t// out\n        /* \"contracts/MilestoneOld.sol\":2665:3191  function deleteMilestone(uint256 serviceNumber, uint256 milestoneNum) external doMilestonesExist(serviceNumber) {... */\n    tag_77:\n        /* \"contracts/MilestoneOld.sol\":2762:2775  serviceNumber */\n      dup2\n        /* \"contracts/MilestoneOld.sol\":1214:1215  0 */\n      0x00\n        /* \"contracts/MilestoneOld.sol\":1178:1188  milestones */\n      dup1\n        /* \"contracts/MilestoneOld.sol\":1178:1203  milestones[serviceNumber] */\n      0x00\n        /* \"contracts/MilestoneOld.sol\":1189:1202  serviceNumber */\n      dup4\n        /* \"contracts/MilestoneOld.sol\":1178:1203  milestones[serviceNumber] */\n      dup2\n      mstore\n      0x20\n      add\n      swap1\n      dup2\n      mstore\n      0x20\n      add\n      0x00\n      keccak256\n        /* \"contracts/MilestoneOld.sol\":1178:1210  milestones[serviceNumber].length */\n      dup1\n      sload\n      swap1\n      pop\n        /* \"contracts/MilestoneOld.sol\":1178:1215  milestones[serviceNumber].length != 0 */\n      eq\n      iszero\n        /* \"contracts/MilestoneOld.sol\":1170:1256  require(milestones[serviceNumber].length != 0, \"Milestones have not been created yet\") */\n      tag_192\n      jumpi\n      mload(0x40)\n      0x08c379a000000000000000000000000000000000000000000000000000000000\n      dup2\n      mstore\n      0x04\n      add\n      tag_193\n      swap1\n      tag_99\n      jump\t// in\n    tag_193:\n      mload(0x40)\n      dup1\n      swap2\n      sub\n      swap1\n      revert\n    tag_192:\n        /* \"contracts/MilestoneOld.sol\":2787:2820  milestone memory deletedMilestone */\n      0x00\n        /* \"contracts/MilestoneOld.sol\":2823:2833  milestones */\n      dup1\n        /* \"contracts/MilestoneOld.sol\":2823:2848  milestones[serviceNumber] */\n      0x00\n        /* \"contracts/MilestoneOld.sol\":2834:2847  serviceNumber */\n      dup6\n        /* \"contracts/MilestoneOld.sol\":2823:2848  milestones[serviceNumber] */\n      dup2\n      mstore\n      0x20\n      add\n      swap1\n      dup2\n      mstore\n      0x20\n      add\n      0x00\n      keccak256\n        /* \"contracts/MilestoneOld.sol\":2849:2861  milestoneNum */\n      dup4\n        /* \"contracts/MilestoneOld.sol\":2823:2862  milestones[serviceNumber][milestoneNum] */\n      dup2\n      sload\n      dup2\n      lt\n      tag_195\n      jumpi\n      tag_196\n      tag_106\n      jump\t// in\n    tag_196:\n    tag_195:\n      swap1\n      0x00\n      mstore\n      keccak256(0x00, 0x20)\n      swap1\n      0x03\n      mul\n      add\n        /* \"contracts/MilestoneOld.sol\":2787:2862  milestone memory deletedMilestone = milestones[serviceNumber][milestoneNum] */\n      mload(0x40)\n      dup1\n      0x60\n      add\n      0x40\n      mstore\n      swap1\n      dup2\n      0x00\n      dup3\n      add\n      dup1\n      sload\n      tag_198\n      swap1\n      tag_109\n      jump\t// in\n    tag_198:\n      dup1\n      0x1f\n      add\n      0x20\n      dup1\n      swap2\n      div\n      mul\n      0x20\n      add\n      mload(0x40)\n      swap1\n      dup2\n      add\n      0x40\n      mstore\n      dup1\n      swap3\n      swap2\n      swap1\n      dup2\n      dup2\n      mstore\n      0x20\n      add\n      dup3\n      dup1\n      sload\n      tag_199\n      swap1\n      tag_109\n      jump\t// in\n    tag_199:\n      dup1\n      iszero\n      tag_200\n      jumpi\n      dup1\n      0x1f\n      lt\n      tag_201\n      jumpi\n      0x0100\n      dup1\n      dup4\n      sload\n      div\n      mul\n      dup4\n      mstore\n      swap2\n      0x20\n      add\n      swap2\n      jump(tag_200)\n    tag_201:\n      dup3\n      add\n      swap2\n      swap1\n      0x00\n      mstore\n      keccak256(0x00, 0x20)\n      swap1\n    tag_202:\n      dup2\n      sload\n      dup2\n      mstore\n      swap1\n      0x01\n      add\n      swap1\n      0x20\n      add\n      dup1\n      dup4\n      gt\n      tag_202\n      jumpi\n      dup3\n      swap1\n      sub\n      0x1f\n      and\n      dup3\n      add\n      swap2\n    tag_200:\n      pop\n      pop\n      pop\n      pop\n      pop\n      dup2\n      mstore\n      0x20\n      add\n      0x01\n      dup3\n      add\n      dup1\n      sload\n      tag_203\n      swap1\n      tag_109\n      jump\t// in\n    tag_203:\n      dup1\n      0x1f\n      add\n      0x20\n      dup1\n      swap2\n      div\n      mul\n      0x20\n      add\n      mload(0x40)\n      swap1\n      dup2\n      add\n      0x40\n      mstore\n      dup1\n      swap3\n      swap2\n      swap1\n      dup2\n      dup2\n      mstore\n      0x20\n      add\n      dup3\n      dup1\n      sload\n      tag_204\n      swap1\n      tag_109\n      jump\t// in\n    tag_204:\n      dup1\n      iszero\n      tag_205\n      jumpi\n      dup1\n      0x1f\n      lt\n      tag_206\n      jumpi\n      0x0100\n      dup1\n      dup4\n      sload\n      div\n      mul\n      dup4\n      mstore\n      swap2\n      0x20\n      add\n      swap2\n      jump(tag_205)\n    tag_206:\n      dup3\n      add\n      swap2\n      swap1\n      0x00\n      mstore\n      keccak256(0x00, 0x20)\n      swap1\n    tag_207:\n      dup2\n      sload\n      dup2\n      mstore\n      swap1\n      0x01\n      add\n      swap1\n      0x20\n      add\n      dup1\n      dup4\n      gt\n      tag_207\n      jumpi\n      dup3\n      swap1\n      sub\n      0x1f\n      and\n      dup3\n      add\n      swap2\n    tag_205:\n      pop\n      pop\n      pop\n      pop\n      pop\n      dup2\n      mstore\n      0x20\n      add\n      0x02\n      dup3\n      add\n      0x00\n      swap1\n      sload\n      swap1\n      0x0100\n      exp\n      swap1\n      div\n      0xff\n      and\n      0x06\n      dup2\n      gt\n      iszero\n      tag_208\n      jumpi\n      tag_209\n      tag_103\n      jump\t// in\n    tag_209:\n    tag_208:\n      0x06\n      dup2\n      gt\n      iszero\n      tag_210\n      jumpi\n      tag_211\n      tag_103\n      jump\t// in\n    tag_211:\n    tag_210:\n      dup2\n      mstore\n      pop\n      pop\n      swap1\n      pop\n        /* \"contracts/MilestoneOld.sol\":2878:2884  uint i */\n      0x00\n        /* \"contracts/MilestoneOld.sol\":2887:2899  milestoneNum */\n      dup4\n        /* \"contracts/MilestoneOld.sol\":2878:2899  uint i = milestoneNum */\n      swap1\n      pop\n        /* \"contracts/MilestoneOld.sol\":2873:3031  for (uint i = milestoneNum; i < milestones[serviceNumber].length-1; i++){... */\n    tag_212:\n        /* \"contracts/MilestoneOld.sol\":2938:2939  1 */\n      0x01\n        /* \"contracts/MilestoneOld.sol\":2905:2915  milestones */\n      0x00\n        /* \"contracts/MilestoneOld.sol\":2905:2930  milestones[serviceNumber] */\n      dup1\n        /* \"contracts/MilestoneOld.sol\":2916:2929  serviceNumber */\n      dup8\n        /* \"contracts/MilestoneOld.sol\":2905:2930  milestones[serviceNumber] */\n      dup2\n      mstore\n      0x20\n      add\n      swap1\n      dup2\n      mstore\n      0x20\n      add\n      0x00\n      keccak256\n        /* \"contracts/MilestoneOld.sol\":2905:2937  milestones[serviceNumber].length */\n      dup1\n      sload\n      swap1\n      pop\n        /* \"contracts/MilestoneOld.sol\":2905:2939  milestones[serviceNumber].length-1 */\n      tag_215\n      swap2\n      swap1\n      tag_216\n      jump\t// in\n    tag_215:\n        /* \"contracts/MilestoneOld.sol\":2901:2902  i */\n      dup2\n        /* \"contracts/MilestoneOld.sol\":2901:2939  i < milestones[serviceNumber].length-1 */\n      lt\n        /* \"contracts/MilestoneOld.sol\":2873:3031  for (uint i = milestoneNum; i < milestones[serviceNumber].length-1; i++){... */\n      iszero\n      tag_213\n      jumpi\n        /* \"contracts/MilestoneOld.sol\":2990:3000  milestones */\n      0x00\n        /* \"contracts/MilestoneOld.sol\":2990:3015  milestones[serviceNumber] */\n      dup1\n        /* \"contracts/MilestoneOld.sol\":3001:3014  serviceNumber */\n      dup7\n        /* \"contracts/MilestoneOld.sol\":2990:3015  milestones[serviceNumber] */\n      dup2\n      mstore\n      0x20\n      add\n      swap1\n      dup2\n      mstore\n      0x20\n      add\n      0x00\n      keccak256\n        /* \"contracts/MilestoneOld.sol\":3018:3019  1 */\n      0x01\n        /* \"contracts/MilestoneOld.sol\":3016:3017  i */\n      dup3\n        /* \"contracts/MilestoneOld.sol\":3016:3019  i+1 */\n      tag_217\n      swap2\n      swap1\n      tag_218\n      jump\t// in\n    tag_217:\n        /* \"contracts/MilestoneOld.sol\":2990:3020  milestones[serviceNumber][i+1] */\n      dup2\n      sload\n      dup2\n      lt\n      tag_219\n      jumpi\n      tag_220\n      tag_106\n      jump\t// in\n    tag_220:\n    tag_219:\n      swap1\n      0x00\n      mstore\n      keccak256(0x00, 0x20)\n      swap1\n      0x03\n      mul\n      add\n        /* \"contracts/MilestoneOld.sol\":2959:2969  milestones */\n      0x00\n        /* \"contracts/MilestoneOld.sol\":2959:2984  milestones[serviceNumber] */\n      dup1\n        /* \"contracts/MilestoneOld.sol\":2970:2983  serviceNumber */\n      dup8\n        /* \"contracts/MilestoneOld.sol\":2959:2984  milestones[serviceNumber] */\n      dup2\n      mstore\n      0x20\n      add\n      swap1\n      dup2\n      mstore\n      0x20\n      add\n      0x00\n      keccak256\n        /* \"contracts/MilestoneOld.sol\":2985:2986  i */\n      dup3\n        /* \"contracts/MilestoneOld.sol\":2959:2987  milestones[serviceNumber][i] */\n      dup2\n      sload\n      dup2\n      lt\n      tag_222\n      jumpi\n      tag_223\n      tag_106\n      jump\t// in\n    tag_223:\n    tag_222:\n      swap1\n      0x00\n      mstore\n      keccak256(0x00, 0x20)\n      swap1\n      0x03\n      mul\n      add\n        /* \"contracts/MilestoneOld.sol\":2959:3020  milestones[serviceNumber][i] = milestones[serviceNumber][i+1] */\n      0x00\n      dup3\n      add\n      dup2\n      0x00\n      add\n      swap1\n      dup1\n      sload\n      tag_225\n      swap1\n      tag_109\n      jump\t// in\n    tag_225:\n      tag_226\n      swap3\n      swap2\n      swap1\n      tag_227\n      jump\t// in\n    tag_226:\n      pop\n      0x01\n      dup3\n      add\n      dup2\n      0x01\n      add\n      swap1\n      dup1\n      sload\n      tag_228\n      swap1\n      tag_109\n      jump\t// in\n    tag_228:\n      tag_229\n      swap3\n      swap2\n      swap1\n      tag_227\n      jump\t// in\n    tag_229:\n      pop\n      0x02\n      dup3\n      add\n      0x00\n      swap1\n      sload\n      swap1\n      0x0100\n      exp\n      swap1\n      div\n      0xff\n      and\n      dup2\n      0x02\n      add\n      exp(0x0100, 0x00)\n      dup2\n      sload\n      dup2\n      0xff\n      mul\n      not\n      and\n      swap1\n      dup4\n      0x06\n      dup2\n      gt\n      iszero\n      tag_230\n      jumpi\n      tag_231\n      tag_103\n      jump\t// in\n    tag_231:\n    tag_230:\n      mul\n      or\n      swap1\n      sstore\n      pop\n      swap1\n      pop\n      pop\n        /* \"contracts/MilestoneOld.sol\":2941:2944  i++ */\n      dup1\n      dup1\n      tag_232\n      swap1\n      tag_233\n      jump\t// in\n    tag_232:\n      swap2\n      pop\n      pop\n        /* \"contracts/MilestoneOld.sol\":2873:3031  for (uint i = milestoneNum; i < milestones[serviceNumber].length-1; i++){... */\n      jump(tag_212)\n    tag_213:\n      pop\n        /* \"contracts/MilestoneOld.sol\":3040:3050  milestones */\n      0x00\n        /* \"contracts/MilestoneOld.sol\":3040:3065  milestones[serviceNumber] */\n      dup1\n        /* \"contracts/MilestoneOld.sol\":3051:3064  serviceNumber */\n      dup6\n        /* \"contracts/MilestoneOld.sol\":3040:3065  milestones[serviceNumber] */\n      dup2\n      mstore\n      0x20\n      add\n      swap1\n      dup2\n      mstore\n      0x20\n      add\n      0x00\n      keccak256\n        /* \"contracts/MilestoneOld.sol\":3040:3071  milestones[serviceNumber].pop() */\n      dup1\n      sload\n      dup1\n      tag_234\n      jumpi\n      tag_235\n      tag_236\n      jump\t// in\n    tag_235:\n    tag_234:\n      0x01\n      swap1\n      sub\n      dup2\n      dup2\n      swap1\n      0x00\n      mstore\n      keccak256(0x00, 0x20)\n      swap1\n      0x03\n      mul\n      add\n      0x00\n      dup1\n      dup3\n      add\n      0x00\n      tag_238\n      swap2\n      swap1\n      tag_239\n      jump\t// in\n    tag_238:\n      0x01\n      dup3\n      add\n      0x00\n      tag_240\n      swap2\n      swap1\n      tag_239\n      jump\t// in\n    tag_240:\n      0x02\n      dup3\n      add\n      exp(0x0100, 0x00)\n      dup2\n      sload\n      swap1\n      0xff\n      mul\n      not\n      and\n      swap1\n      sstore\n      pop\n      pop\n      swap1\n      sstore\n        /* \"contracts/MilestoneOld.sol\":3087:3184  milestoneDeleted(serviceNumber, milestoneNum, deletedMilestone, milestones[serviceNumber].length) */\n      0x6d4454e6395559c04e81910079e267dc2b89dc5c7c0c09baf1068ffff6542ce1\n        /* \"contracts/MilestoneOld.sol\":3104:3117  serviceNumber */\n      dup5\n        /* \"contracts/MilestoneOld.sol\":3119:3131  milestoneNum */\n      dup5\n        /* \"contracts/MilestoneOld.sol\":3133:3149  deletedMilestone */\n      dup4\n        /* \"contracts/MilestoneOld.sol\":3151:3161  milestones */\n      0x00\n        /* \"contracts/MilestoneOld.sol\":3151:3176  milestones[serviceNumber] */\n      dup1\n        /* \"contracts/MilestoneOld.sol\":3162:3175  serviceNumber */\n      dup10\n        /* \"contracts/MilestoneOld.sol\":3151:3176  milestones[serviceNumber] */\n      dup2\n      mstore\n      0x20\n      add\n      swap1\n      dup2\n      mstore\n      0x20\n      add\n      0x00\n      keccak256\n        /* \"contracts/MilestoneOld.sol\":3151:3183  milestones[serviceNumber].length */\n      dup1\n      sload\n      swap1\n      pop\n        /* \"contracts/MilestoneOld.sol\":3087:3184  milestoneDeleted(serviceNumber, milestoneNum, deletedMilestone, milestones[serviceNumber].length) */\n      mload(0x40)\n      tag_241\n      swap5\n      swap4\n      swap3\n      swap2\n      swap1\n      tag_242\n      jump\t// in\n    tag_241:\n      mload(0x40)\n      dup1\n      swap2\n      sub\n      swap1\n      log1\n        /* \"contracts/MilestoneOld.sol\":2777:3191  {... */\n      pop\n        /* \"contracts/MilestoneOld.sol\":2665:3191  function deleteMilestone(uint256 serviceNumber, uint256 milestoneNum) external doMilestonesExist(serviceNumber) {... */\n      pop\n      pop\n      pop\n      jump\t// out\n        /* \"contracts/MilestoneOld.sol\":4284:4486  function updateMilestoneStarted(uint256 serviceNumber, uint256 milestoneNum) external doMilestonesExist(serviceNumber) {... */\n    tag_80:\n        /* \"contracts/MilestoneOld.sol\":4388:4401  serviceNumber */\n      dup2\n        /* \"contracts/MilestoneOld.sol\":1214:1215  0 */\n      0x00\n        /* \"contracts/MilestoneOld.sol\":1178:1188  milestones */\n      dup1\n        /* \"contracts/MilestoneOld.sol\":1178:1203  milestones[serviceNumber] */\n      0x00\n        /* \"contracts/MilestoneOld.sol\":1189:1202  serviceNumber */\n      dup4\n        /* \"contracts/MilestoneOld.sol\":1178:1203  milestones[serviceNumber] */\n      dup2\n      mstore\n      0x20\n      add\n      swap1\n      dup2\n      mstore\n      0x20\n      add\n      0x00\n      keccak256\n        /* \"contracts/MilestoneOld.sol\":1178:1210  milestones[serviceNumber].length */\n      dup1\n      sload\n      swap1\n      pop\n        /* \"contracts/MilestoneOld.sol\":1178:1215  milestones[serviceNumber].length != 0 */\n      eq\n      iszero\n        /* \"contracts/MilestoneOld.sol\":1170:1256  require(milestones[serviceNumber].length != 0, \"Milestones have not been created yet\") */\n      tag_244\n      jumpi\n      mload(0x40)\n      0x08c379a000000000000000000000000000000000000000000000000000000000\n      dup2\n      mstore\n      0x04\n      add\n      tag_245\n      swap1\n      tag_99\n      jump\t// in\n    tag_245:\n      mload(0x40)\n      dup1\n      swap2\n      sub\n      swap1\n      revert\n    tag_244:\n        /* \"contracts/MilestoneOld.sol\":4413:4479  updateMilestoneStatus(serviceNumber, milestoneNum, Status.started) */\n      tag_247\n        /* \"contracts/MilestoneOld.sol\":4435:4448  serviceNumber */\n      dup4\n        /* \"contracts/MilestoneOld.sol\":4450:4462  milestoneNum */\n      dup4\n        /* \"contracts/MilestoneOld.sol\":4464:4478  Status.started */\n      0x03\n        /* \"contracts/MilestoneOld.sol\":4413:4434  updateMilestoneStatus */\n      tag_149\n        /* \"contracts/MilestoneOld.sol\":4413:4479  updateMilestoneStatus(serviceNumber, milestoneNum, Status.started) */\n      jump\t// in\n    tag_247:\n        /* \"contracts/MilestoneOld.sol\":4284:4486  function updateMilestoneStarted(uint256 serviceNumber, uint256 milestoneNum) external doMilestonesExist(serviceNumber) {... */\n      pop\n      pop\n      pop\n      jump\t// out\n        /* \"contracts/MilestoneOld.sol\":1582:1966  function createMilestone(uint256 serviceNumber, string memory titleMilestone, string memory descriptionMilestone) external {... */\n    tag_84:\n        /* \"contracts/MilestoneOld.sol\":1715:1744  milestone memory newMilestone */\n      0x00\n        /* \"contracts/MilestoneOld.sol\":1747:1810  milestone(titleMilestone, descriptionMilestone, Status.pending) */\n      mload(0x40)\n      dup1\n      0x60\n      add\n      0x40\n      mstore\n      dup1\n        /* \"contracts/MilestoneOld.sol\":1757:1771  titleMilestone */\n      dup5\n        /* \"contracts/MilestoneOld.sol\":1747:1810  milestone(titleMilestone, descriptionMilestone, Status.pending) */\n      dup2\n      mstore\n      0x20\n      add\n        /* \"contracts/MilestoneOld.sol\":1773:1793  descriptionMilestone */\n      dup4\n        /* \"contracts/MilestoneOld.sol\":1747:1810  milestone(titleMilestone, descriptionMilestone, Status.pending) */\n      dup2\n      mstore\n      0x20\n      add\n        /* \"contracts/MilestoneOld.sol\":1795:1809  Status.pending */\n      0x01\n        /* \"contracts/MilestoneOld.sol\":1747:1810  milestone(titleMilestone, descriptionMilestone, Status.pending) */\n      0x06\n      dup2\n      gt\n      iszero\n      tag_249\n      jumpi\n      tag_250\n      tag_103\n      jump\t// in\n    tag_250:\n    tag_249:\n      dup2\n      mstore\n      pop\n        /* \"contracts/MilestoneOld.sol\":1715:1810  milestone memory newMilestone = milestone(titleMilestone, descriptionMilestone, Status.pending) */\n      swap1\n      pop\n        /* \"contracts/MilestoneOld.sol\":1820:1830  milestones */\n      0x00\n        /* \"contracts/MilestoneOld.sol\":1820:1845  milestones[serviceNumber] */\n      dup1\n        /* \"contracts/MilestoneOld.sol\":1831:1844  serviceNumber */\n      dup6\n        /* \"contracts/MilestoneOld.sol\":1820:1845  milestones[serviceNumber] */\n      dup2\n      mstore\n      0x20\n      add\n      swap1\n      dup2\n      mstore\n      0x20\n      add\n      0x00\n      keccak256\n        /* \"contracts/MilestoneOld.sol\":1851:1863  newMilestone */\n      dup2\n        /* \"contracts/MilestoneOld.sol\":1820:1864  milestones[serviceNumber].push(newMilestone) */\n      swap1\n      dup1\n      0x01\n      dup2\n      sload\n      add\n      dup1\n      dup3\n      sstore\n      dup1\n      swap2\n      pop\n      pop\n      0x01\n      swap1\n      sub\n      swap1\n      0x00\n      mstore\n      keccak256(0x00, 0x20)\n      swap1\n      0x03\n      mul\n      add\n      0x00\n      swap1\n      swap2\n      swap1\n      swap2\n      swap1\n      swap2\n      pop\n      0x00\n      dup3\n      add\n      mload\n      dup2\n      0x00\n      add\n      swap1\n      dup1\n      mload\n      swap1\n      0x20\n      add\n      swap1\n      tag_252\n      swap3\n      swap2\n      swap1\n      tag_127\n      jump\t// in\n    tag_252:\n      pop\n      0x20\n      dup3\n      add\n      mload\n      dup2\n      0x01\n      add\n      swap1\n      dup1\n      mload\n      swap1\n      0x20\n      add\n      swap1\n      tag_253\n      swap3\n      swap2\n      swap1\n      tag_127\n      jump\t// in\n    tag_253:\n      pop\n      0x40\n      dup3\n      add\n      mload\n      dup2\n      0x02\n      add\n      exp(0x0100, 0x00)\n      dup2\n      sload\n      dup2\n      0xff\n      mul\n      not\n      and\n      swap1\n      dup4\n      0x06\n      dup2\n      gt\n      iszero\n      tag_254\n      jumpi\n      tag_255\n      tag_103\n      jump\t// in\n    tag_255:\n    tag_254:\n      mul\n      or\n      swap1\n      sstore\n      pop\n      pop\n      pop\n        /* \"contracts/MilestoneOld.sol\":1880:1959  milestoneCreated(serviceNumber, newMilestone, milestones[serviceNumber].length) */\n      0x0e5e5840c0784eb00d266bdfb12bc390d99afa672e3da23f76eb1a932947bed6\n        /* \"contracts/MilestoneOld.sol\":1897:1910  serviceNumber */\n      dup5\n        /* \"contracts/MilestoneOld.sol\":1912:1924  newMilestone */\n      dup3\n        /* \"contracts/MilestoneOld.sol\":1926:1936  milestones */\n      0x00\n        /* \"contracts/MilestoneOld.sol\":1926:1951  milestones[serviceNumber] */\n      dup1\n        /* \"contracts/MilestoneOld.sol\":1937:1950  serviceNumber */\n      dup9\n        /* \"contracts/MilestoneOld.sol\":1926:1951  milestones[serviceNumber] */\n      dup2\n      mstore\n      0x20\n      add\n      swap1\n      dup2\n      mstore\n      0x20\n      add\n      0x00\n      keccak256\n        /* \"contracts/MilestoneOld.sol\":1926:1958  milestones[serviceNumber].length */\n      dup1\n      sload\n      swap1\n      pop\n        /* \"contracts/MilestoneOld.sol\":1880:1959  milestoneCreated(serviceNumber, newMilestone, milestones[serviceNumber].length) */\n      mload(0x40)\n      tag_256\n      swap4\n      swap3\n      swap2\n      swap1\n      tag_257\n      jump\t// in\n    tag_256:\n      mload(0x40)\n      dup1\n      swap2\n      sub\n      swap1\n      log1\n        /* \"contracts/MilestoneOld.sol\":1705:1966  {... */\n      pop\n        /* \"contracts/MilestoneOld.sol\":1582:1966  function createMilestone(uint256 serviceNumber, string memory titleMilestone, string memory descriptionMilestone) external {... */\n      pop\n      pop\n      pop\n      jump\t// out\n        /* \"contracts/MilestoneOld.sol\":5051:5255  function updateMilestoneConflict(uint256 serviceNumber, uint256 milestoneNum) external doMilestonesExist(serviceNumber) {... */\n    tag_87:\n        /* \"contracts/MilestoneOld.sol\":5156:5169  serviceNumber */\n      dup2\n        /* \"contracts/MilestoneOld.sol\":1214:1215  0 */\n      0x00\n        /* \"contracts/MilestoneOld.sol\":1178:1188  milestones */\n      dup1\n        /* \"contracts/MilestoneOld.sol\":1178:1203  milestones[serviceNumber] */\n      0x00\n        /* \"contracts/MilestoneOld.sol\":1189:1202  serviceNumber */\n      dup4\n        /* \"contracts/MilestoneOld.sol\":1178:1203  milestones[serviceNumber] */\n      dup2\n      mstore\n      0x20\n      add\n      swap1\n      dup2\n      mstore\n      0x20\n      add\n      0x00\n      keccak256\n        /* \"contracts/MilestoneOld.sol\":1178:1210  milestones[serviceNumber].length */\n      dup1\n      sload\n      swap1\n      pop\n        /* \"contracts/MilestoneOld.sol\":1178:1215  milestones[serviceNumber].length != 0 */\n      eq\n      iszero\n        /* \"contracts/MilestoneOld.sol\":1170:1256  require(milestones[serviceNumber].length != 0, \"Milestones have not been created yet\") */\n      tag_259\n      jumpi\n      mload(0x40)\n      0x08c379a000000000000000000000000000000000000000000000000000000000\n      dup2\n      mstore\n      0x04\n      add\n      tag_260\n      swap1\n      tag_99\n      jump\t// in\n    tag_260:\n      mload(0x40)\n      dup1\n      swap2\n      sub\n      swap1\n      revert\n    tag_259:\n        /* \"contracts/MilestoneOld.sol\":5181:5248  updateMilestoneStatus(serviceNumber, milestoneNum, Status.conflict) */\n      tag_262\n        /* \"contracts/MilestoneOld.sol\":5203:5216  serviceNumber */\n      dup4\n        /* \"contracts/MilestoneOld.sol\":5218:5230  milestoneNum */\n      dup4\n        /* \"contracts/MilestoneOld.sol\":5232:5247  Status.conflict */\n      0x06\n        /* \"contracts/MilestoneOld.sol\":5181:5202  updateMilestoneStatus */\n      tag_149\n        /* \"contracts/MilestoneOld.sol\":5181:5248  updateMilestoneStatus(serviceNumber, milestoneNum, Status.conflict) */\n      jump\t// in\n    tag_262:\n        /* \"contracts/MilestoneOld.sol\":5051:5255  function updateMilestoneConflict(uint256 serviceNumber, uint256 milestoneNum) external doMilestonesExist(serviceNumber) {... */\n      pop\n      pop\n      pop\n      jump\t// out\n        /* \"contracts/MilestoneOld.sol\":3757:3979  function updateAllMilestonePending(uint256 serviceNumber) external {... */\n    tag_90:\n        /* \"contracts/MilestoneOld.sol\":3839:3845  uint i */\n      0x00\n        /* \"contracts/MilestoneOld.sol\":3834:3973  for (uint i = 0; i < milestones[serviceNumber].length; i++){... */\n    tag_264:\n        /* \"contracts/MilestoneOld.sol\":3855:3865  milestones */\n      0x00\n        /* \"contracts/MilestoneOld.sol\":3855:3880  milestones[serviceNumber] */\n      dup1\n        /* \"contracts/MilestoneOld.sol\":3866:3879  serviceNumber */\n      dup4\n        /* \"contracts/MilestoneOld.sol\":3855:3880  milestones[serviceNumber] */\n      dup2\n      mstore\n      0x20\n      add\n      swap1\n      dup2\n      mstore\n      0x20\n      add\n      0x00\n      keccak256\n        /* \"contracts/MilestoneOld.sol\":3855:3887  milestones[serviceNumber].length */\n      dup1\n      sload\n      swap1\n      pop\n        /* \"contracts/MilestoneOld.sol\":3851:3852  i */\n      dup2\n        /* \"contracts/MilestoneOld.sol\":3851:3887  i < milestones[serviceNumber].length */\n      lt\n        /* \"contracts/MilestoneOld.sol\":3834:3973  for (uint i = 0; i < milestones[serviceNumber].length; i++){... */\n      iszero\n      tag_265\n      jumpi\n        /* \"contracts/MilestoneOld.sol\":3907:3962  updateMilestoneStatus(serviceNumber, i, Status.pending) */\n      tag_267\n        /* \"contracts/MilestoneOld.sol\":3929:3942  serviceNumber */\n      dup3\n        /* \"contracts/MilestoneOld.sol\":3944:3945  i */\n      dup3\n        /* \"contracts/MilestoneOld.sol\":3947:3961  Status.pending */\n      0x01\n        /* \"contracts/MilestoneOld.sol\":3907:3928  updateMilestoneStatus */\n      tag_149\n        /* \"contracts/MilestoneOld.sol\":3907:3962  updateMilestoneStatus(serviceNumber, i, Status.pending) */\n      jump\t// in\n    tag_267:\n        /* \"contracts/MilestoneOld.sol\":3889:3892  i++ */\n      dup1\n      dup1\n      tag_268\n      swap1\n      tag_233\n      jump\t// in\n    tag_268:\n      swap2\n      pop\n      pop\n        /* \"contracts/MilestoneOld.sol\":3834:3973  for (uint i = 0; i < milestones[serviceNumber].length; i++){... */\n      jump(tag_264)\n    tag_265:\n      pop\n        /* \"contracts/MilestoneOld.sol\":3757:3979  function updateAllMilestonePending(uint256 serviceNumber) external {... */\n      pop\n      jump\t// out\n        /* \"contracts/MilestoneOld.sol\":5321:5589  function getMilestoneStatus(uint256 serviceNumber, uint256 milestoneNumber) public view doMilestonesExist(serviceNumber) doSpecificMilestoneExist(serviceNumber, milestoneNumber) returns (Status) {... */\n    tag_93:\n        /* \"contracts/MilestoneOld.sol\":5508:5514  Status */\n      0x00\n        /* \"contracts/MilestoneOld.sol\":5427:5440  serviceNumber */\n      dup3\n        /* \"contracts/MilestoneOld.sol\":1214:1215  0 */\n      0x00\n        /* \"contracts/MilestoneOld.sol\":1178:1188  milestones */\n      dup1\n        /* \"contracts/MilestoneOld.sol\":1178:1203  milestones[serviceNumber] */\n      0x00\n        /* \"contracts/MilestoneOld.sol\":1189:1202  serviceNumber */\n      dup4\n        /* \"contracts/MilestoneOld.sol\":1178:1203  milestones[serviceNumber] */\n      dup2\n      mstore\n      0x20\n      add\n      swap1\n      dup2\n      mstore\n      0x20\n      add\n      0x00\n      keccak256\n        /* \"contracts/MilestoneOld.sol\":1178:1210  milestones[serviceNumber].length */\n      dup1\n      sload\n      swap1\n      pop\n        /* \"contracts/MilestoneOld.sol\":1178:1215  milestones[serviceNumber].length != 0 */\n      eq\n      iszero\n        /* \"contracts/MilestoneOld.sol\":1170:1256  require(milestones[serviceNumber].length != 0, \"Milestones have not been created yet\") */\n      tag_270\n      jumpi\n      mload(0x40)\n      0x08c379a000000000000000000000000000000000000000000000000000000000\n      dup2\n      mstore\n      0x04\n      add\n      tag_271\n      swap1\n      tag_99\n      jump\t// in\n    tag_271:\n      mload(0x40)\n      dup1\n      swap2\n      sub\n      swap1\n      revert\n    tag_270:\n        /* \"contracts/MilestoneOld.sol\":5467:5480  serviceNumber */\n      dup4\n        /* \"contracts/MilestoneOld.sol\":5482:5497  milestoneNumber */\n      dup4\n        /* \"contracts/MilestoneOld.sol\":1400:1410  milestones */\n      0x00\n        /* \"contracts/MilestoneOld.sol\":1400:1425  milestones[serviceNumber] */\n      dup1\n        /* \"contracts/MilestoneOld.sol\":1411:1424  serviceNumber */\n      dup4\n        /* \"contracts/MilestoneOld.sol\":1400:1425  milestones[serviceNumber] */\n      dup2\n      mstore\n      0x20\n      add\n      swap1\n      dup2\n      mstore\n      0x20\n      add\n      0x00\n      keccak256\n        /* \"contracts/MilestoneOld.sol\":1400:1432  milestones[serviceNumber].length */\n      dup1\n      sload\n      swap1\n      pop\n        /* \"contracts/MilestoneOld.sol\":1385:1397  numMilestone */\n      dup2\n        /* \"contracts/MilestoneOld.sol\":1385:1432  numMilestone < milestones[serviceNumber].length */\n      lt\n        /* \"contracts/MilestoneOld.sol\":1377:1466  require(numMilestone < milestones[serviceNumber].length, \"Milestone number out of range\") */\n      tag_273\n      jumpi\n      mload(0x40)\n      0x08c379a000000000000000000000000000000000000000000000000000000000\n      dup2\n      mstore\n      0x04\n      add\n      tag_274\n      swap1\n      tag_275\n      jump\t// in\n    tag_274:\n      mload(0x40)\n      dup1\n      swap2\n      sub\n      swap1\n      revert\n    tag_273:\n        /* \"contracts/MilestoneOld.sol\":5533:5543  milestones */\n      0x00\n        /* \"contracts/MilestoneOld.sol\":5533:5558  milestones[serviceNumber] */\n      dup1\n        /* \"contracts/MilestoneOld.sol\":5544:5557  serviceNumber */\n      dup8\n        /* \"contracts/MilestoneOld.sol\":5533:5558  milestones[serviceNumber] */\n      dup2\n      mstore\n      0x20\n      add\n      swap1\n      dup2\n      mstore\n      0x20\n      add\n      0x00\n      keccak256\n        /* \"contracts/MilestoneOld.sol\":5559:5574  milestoneNumber */\n      dup6\n        /* \"contracts/MilestoneOld.sol\":5533:5575  milestones[serviceNumber][milestoneNumber] */\n      dup2\n      sload\n      dup2\n      lt\n      tag_277\n      jumpi\n      tag_278\n      tag_106\n      jump\t// in\n    tag_278:\n    tag_277:\n      swap1\n      0x00\n      mstore\n      keccak256(0x00, 0x20)\n      swap1\n      0x03\n      mul\n      add\n        /* \"contracts/MilestoneOld.sol\":5533:5582  milestones[serviceNumber][milestoneNumber].status */\n      0x02\n      add\n      0x00\n      swap1\n      sload\n      swap1\n      0x0100\n      exp\n      swap1\n      div\n      0xff\n      and\n        /* \"contracts/MilestoneOld.sol\":5526:5582  return milestones[serviceNumber][milestoneNumber].status */\n      swap4\n      pop\n        /* \"contracts/MilestoneOld.sol\":1266:1267  _ */\n      pop\n      pop\n        /* \"contracts/MilestoneOld.sol\":5321:5589  function getMilestoneStatus(uint256 serviceNumber, uint256 milestoneNumber) public view doMilestonesExist(serviceNumber) doSpecificMilestoneExist(serviceNumber, milestoneNumber) returns (Status) {... */\n      pop\n      swap3\n      swap2\n      pop\n      pop\n      jump\t// out\n        /* \"contracts/MilestoneOld.sol\":6089:6412  function checkAllMilestoneStatusMatch(uint256 serviceNumber, Status state) internal view returns (bool) {... */\n    tag_135:\n        /* \"contracts/MilestoneOld.sol\":6187:6191  bool */\n      0x00\n        /* \"contracts/MilestoneOld.sol\":6208:6217  uint256 i */\n      dup1\n        /* \"contracts/MilestoneOld.sol\":6220:6221  0 */\n      0x00\n        /* \"contracts/MilestoneOld.sol\":6208:6221  uint256 i = 0 */\n      swap1\n      pop\n        /* \"contracts/MilestoneOld.sol\":6203:6385  for (uint256 i = 0; i < milestones[serviceNumber].length; i++) {... */\n    tag_281:\n        /* \"contracts/MilestoneOld.sol\":6227:6237  milestones */\n      0x00\n        /* \"contracts/MilestoneOld.sol\":6227:6252  milestones[serviceNumber] */\n      dup1\n        /* \"contracts/MilestoneOld.sol\":6238:6251  serviceNumber */\n      dup6\n        /* \"contracts/MilestoneOld.sol\":6227:6252  milestones[serviceNumber] */\n      dup2\n      mstore\n      0x20\n      add\n      swap1\n      dup2\n      mstore\n      0x20\n      add\n      0x00\n      keccak256\n        /* \"contracts/MilestoneOld.sol\":6227:6259  milestones[serviceNumber].length */\n      dup1\n      sload\n      swap1\n      pop\n        /* \"contracts/MilestoneOld.sol\":6223:6224  i */\n      dup2\n        /* \"contracts/MilestoneOld.sol\":6223:6259  i < milestones[serviceNumber].length */\n      lt\n        /* \"contracts/MilestoneOld.sol\":6203:6385  for (uint256 i = 0; i < milestones[serviceNumber].length; i++) {... */\n      iszero\n      tag_282\n      jumpi\n        /* \"contracts/MilestoneOld.sol\":6323:6328  state */\n      dup3\n        /* \"contracts/MilestoneOld.sol\":6284:6328  milestones[serviceNumber][i].status != state */\n      0x06\n      dup2\n      gt\n      iszero\n      tag_284\n      jumpi\n      tag_285\n      tag_103\n      jump\t// in\n    tag_285:\n    tag_284:\n        /* \"contracts/MilestoneOld.sol\":6284:6294  milestones */\n      0x00\n        /* \"contracts/MilestoneOld.sol\":6284:6309  milestones[serviceNumber] */\n      dup1\n        /* \"contracts/MilestoneOld.sol\":6295:6308  serviceNumber */\n      dup7\n        /* \"contracts/MilestoneOld.sol\":6284:6309  milestones[serviceNumber] */\n      dup2\n      mstore\n      0x20\n      add\n      swap1\n      dup2\n      mstore\n      0x20\n      add\n      0x00\n      keccak256\n        /* \"contracts/MilestoneOld.sol\":6310:6311  i */\n      dup3\n        /* \"contracts/MilestoneOld.sol\":6284:6312  milestones[serviceNumber][i] */\n      dup2\n      sload\n      dup2\n      lt\n      tag_286\n      jumpi\n      tag_287\n      tag_106\n      jump\t// in\n    tag_287:\n    tag_286:\n      swap1\n      0x00\n      mstore\n      keccak256(0x00, 0x20)\n      swap1\n      0x03\n      mul\n      add\n        /* \"contracts/MilestoneOld.sol\":6284:6319  milestones[serviceNumber][i].status */\n      0x02\n      add\n      0x00\n      swap1\n      sload\n      swap1\n      0x0100\n      exp\n      swap1\n      div\n      0xff\n      and\n        /* \"contracts/MilestoneOld.sol\":6284:6328  milestones[serviceNumber][i].status != state */\n      0x06\n      dup2\n      gt\n      iszero\n      tag_289\n      jumpi\n      tag_290\n      tag_103\n      jump\t// in\n    tag_290:\n    tag_289:\n      eq\n        /* \"contracts/MilestoneOld.sol\":6280:6375  if (milestones[serviceNumber][i].status != state) {... */\n      tag_291\n      jumpi\n        /* \"contracts/MilestoneOld.sol\":6355:6360  false */\n      0x00\n        /* \"contracts/MilestoneOld.sol\":6348:6360  return false */\n      swap2\n      pop\n      pop\n      jump(tag_280)\n        /* \"contracts/MilestoneOld.sol\":6280:6375  if (milestones[serviceNumber][i].status != state) {... */\n    tag_291:\n        /* \"contracts/MilestoneOld.sol\":6261:6264  i++ */\n      dup1\n      dup1\n      tag_292\n      swap1\n      tag_233\n      jump\t// in\n    tag_292:\n      swap2\n      pop\n      pop\n        /* \"contracts/MilestoneOld.sol\":6203:6385  for (uint256 i = 0; i < milestones[serviceNumber].length; i++) {... */\n      jump(tag_281)\n    tag_282:\n      pop\n        /* \"contracts/MilestoneOld.sol\":6401:6405  true */\n      0x01\n        /* \"contracts/MilestoneOld.sol\":6394:6405  return true */\n      swap1\n      pop\n        /* \"contracts/MilestoneOld.sol\":6089:6412  function checkAllMilestoneStatusMatch(uint256 serviceNumber, Status state) internal view returns (bool) {... */\n    tag_280:\n      swap3\n      swap2\n      pop\n      pop\n      jump\t// out\n        /* \"contracts/MilestoneOld.sol\":3291:3657  function updateMilestoneStatus(uint256 serviceNumber, uint256 milestoneNum, Status status) internal doMilestonesExist(serviceNumber) {... */\n    tag_149:\n        /* \"contracts/MilestoneOld.sol\":3409:3422  serviceNumber */\n      dup3\n        /* \"contracts/MilestoneOld.sol\":1214:1215  0 */\n      0x00\n        /* \"contracts/MilestoneOld.sol\":1178:1188  milestones */\n      dup1\n        /* \"contracts/MilestoneOld.sol\":1178:1203  milestones[serviceNumber] */\n      0x00\n        /* \"contracts/MilestoneOld.sol\":1189:1202  serviceNumber */\n      dup4\n        /* \"contracts/MilestoneOld.sol\":1178:1203  milestones[serviceNumber] */\n      dup2\n      mstore\n      0x20\n      add\n      swap1\n      dup2\n      mstore\n      0x20\n      add\n      0x00\n      keccak256\n        /* \"contracts/MilestoneOld.sol\":1178:1210  milestones[serviceNumber].length */\n      dup1\n      sload\n      swap1\n      pop\n        /* \"contracts/MilestoneOld.sol\":1178:1215  milestones[serviceNumber].length != 0 */\n      eq\n      iszero\n        /* \"contracts/MilestoneOld.sol\":1170:1256  require(milestones[serviceNumber].length != 0, \"Milestones have not been created yet\") */\n      tag_294\n      jumpi\n      mload(0x40)\n      0x08c379a000000000000000000000000000000000000000000000000000000000\n      dup2\n      mstore\n      0x04\n      add\n      tag_295\n      swap1\n      tag_99\n      jump\t// in\n    tag_295:\n      mload(0x40)\n      dup1\n      swap2\n      sub\n      swap1\n      revert\n    tag_294:\n        /* \"contracts/MilestoneOld.sol\":3434:3450  Status curStatus */\n      0x00\n        /* \"contracts/MilestoneOld.sol\":3453:3463  milestones */\n      dup1\n        /* \"contracts/MilestoneOld.sol\":3453:3478  milestones[serviceNumber] */\n      0x00\n        /* \"contracts/MilestoneOld.sol\":3464:3477  serviceNumber */\n      dup7\n        /* \"contracts/MilestoneOld.sol\":3453:3478  milestones[serviceNumber] */\n      dup2\n      mstore\n      0x20\n      add\n      swap1\n      dup2\n      mstore\n      0x20\n      add\n      0x00\n      keccak256\n        /* \"contracts/MilestoneOld.sol\":3479:3491  milestoneNum */\n      dup5\n        /* \"contracts/MilestoneOld.sol\":3453:3492  milestones[serviceNumber][milestoneNum] */\n      dup2\n      sload\n      dup2\n      lt\n      tag_297\n      jumpi\n      tag_298\n      tag_106\n      jump\t// in\n    tag_298:\n    tag_297:\n      swap1\n      0x00\n      mstore\n      keccak256(0x00, 0x20)\n      swap1\n      0x03\n      mul\n      add\n        /* \"contracts/MilestoneOld.sol\":3453:3499  milestones[serviceNumber][milestoneNum].status */\n      0x02\n      add\n      0x00\n      swap1\n      sload\n      swap1\n      0x0100\n      exp\n      swap1\n      div\n      0xff\n      and\n        /* \"contracts/MilestoneOld.sol\":3434:3499  Status curStatus = milestones[serviceNumber][milestoneNum].status */\n      swap1\n      pop\n        /* \"contracts/MilestoneOld.sol\":3558:3564  status */\n      dup3\n        /* \"contracts/MilestoneOld.sol\":3509:3519  milestones */\n      0x00\n        /* \"contracts/MilestoneOld.sol\":3509:3534  milestones[serviceNumber] */\n      dup1\n        /* \"contracts/MilestoneOld.sol\":3520:3533  serviceNumber */\n      dup8\n        /* \"contracts/MilestoneOld.sol\":3509:3534  milestones[serviceNumber] */\n      dup2\n      mstore\n      0x20\n      add\n      swap1\n      dup2\n      mstore\n      0x20\n      add\n      0x00\n      keccak256\n        /* \"contracts/MilestoneOld.sol\":3535:3547  milestoneNum */\n      dup6\n        /* \"contracts/MilestoneOld.sol\":3509:3548  milestones[serviceNumber][milestoneNum] */\n      dup2\n      sload\n      dup2\n      lt\n      tag_300\n      jumpi\n      tag_301\n      tag_106\n      jump\t// in\n    tag_301:\n    tag_300:\n      swap1\n      0x00\n      mstore\n      keccak256(0x00, 0x20)\n      swap1\n      0x03\n      mul\n      add\n        /* \"contracts/MilestoneOld.sol\":3509:3555  milestones[serviceNumber][milestoneNum].status */\n      0x02\n      add\n      0x00\n        /* \"contracts/MilestoneOld.sol\":3509:3564  milestones[serviceNumber][milestoneNum].status = status */\n      0x0100\n      exp\n      dup2\n      sload\n      dup2\n      0xff\n      mul\n      not\n      and\n      swap1\n      dup4\n      0x06\n      dup2\n      gt\n      iszero\n      tag_303\n      jumpi\n      tag_304\n      tag_103\n      jump\t// in\n    tag_304:\n    tag_303:\n      mul\n      or\n      swap1\n      sstore\n      pop\n        /* \"contracts/MilestoneOld.sol\":3580:3650  milestoneStatusChanged(serviceNumber, milestoneNum, curStatus, status) */\n      0xa4e86334f55642d44167e3603aa4f62296dedbc45291b004f14978bb96daea7b\n        /* \"contracts/MilestoneOld.sol\":3603:3616  serviceNumber */\n      dup6\n        /* \"contracts/MilestoneOld.sol\":3618:3630  milestoneNum */\n      dup6\n        /* \"contracts/MilestoneOld.sol\":3632:3641  curStatus */\n      dup4\n        /* \"contracts/MilestoneOld.sol\":3643:3649  status */\n      dup7\n        /* \"contracts/MilestoneOld.sol\":3580:3650  milestoneStatusChanged(serviceNumber, milestoneNum, curStatus, status) */\n      mload(0x40)\n      tag_305\n      swap5\n      swap4\n      swap3\n      swap2\n      swap1\n      tag_306\n      jump\t// in\n    tag_305:\n      mload(0x40)\n      dup1\n      swap2\n      sub\n      swap1\n      log1\n        /* \"contracts/MilestoneOld.sol\":3424:3657  {... */\n      pop\n        /* \"contracts/MilestoneOld.sol\":3291:3657  function updateMilestoneStatus(uint256 serviceNumber, uint256 milestoneNum, Status status) internal doMilestonesExist(serviceNumber) {... */\n      pop\n      pop\n      pop\n      pop\n      jump\t// out\n        /* \"contracts/MilestoneOld.sol\":7608:7931  function checkAnyMilestoneStatusMatch(uint256 serviceNumber, Status state) internal view returns (bool) {... */\n    tag_182:\n        /* \"contracts/MilestoneOld.sol\":7706:7710  bool */\n      0x00\n        /* \"contracts/MilestoneOld.sol\":7727:7736  uint256 i */\n      dup1\n        /* \"contracts/MilestoneOld.sol\":7739:7740  0 */\n      0x00\n        /* \"contracts/MilestoneOld.sol\":7727:7740  uint256 i = 0 */\n      swap1\n      pop\n        /* \"contracts/MilestoneOld.sol\":7722:7904  for (uint256 i = 0; i < milestones[serviceNumber].length; i++) {... */\n    tag_308:\n        /* \"contracts/MilestoneOld.sol\":7746:7756  milestones */\n      0x00\n        /* \"contracts/MilestoneOld.sol\":7746:7771  milestones[serviceNumber] */\n      dup1\n        /* \"contracts/MilestoneOld.sol\":7757:7770  serviceNumber */\n      dup6\n        /* \"contracts/MilestoneOld.sol\":7746:7771  milestones[serviceNumber] */\n      dup2\n      mstore\n      0x20\n      add\n      swap1\n      dup2\n      mstore\n      0x20\n      add\n      0x00\n      keccak256\n        /* \"contracts/MilestoneOld.sol\":7746:7778  milestones[serviceNumber].length */\n      dup1\n      sload\n      swap1\n      pop\n        /* \"contracts/MilestoneOld.sol\":7742:7743  i */\n      dup2\n        /* \"contracts/MilestoneOld.sol\":7742:7778  i < milestones[serviceNumber].length */\n      lt\n        /* \"contracts/MilestoneOld.sol\":7722:7904  for (uint256 i = 0; i < milestones[serviceNumber].length; i++) {... */\n      iszero\n      tag_309\n      jumpi\n        /* \"contracts/MilestoneOld.sol\":7842:7847  state */\n      dup3\n        /* \"contracts/MilestoneOld.sol\":7803:7847  milestones[serviceNumber][i].status == state */\n      0x06\n      dup2\n      gt\n      iszero\n      tag_311\n      jumpi\n      tag_312\n      tag_103\n      jump\t// in\n    tag_312:\n    tag_311:\n        /* \"contracts/MilestoneOld.sol\":7803:7813  milestones */\n      0x00\n        /* \"contracts/MilestoneOld.sol\":7803:7828  milestones[serviceNumber] */\n      dup1\n        /* \"contracts/MilestoneOld.sol\":7814:7827  serviceNumber */\n      dup7\n        /* \"contracts/MilestoneOld.sol\":7803:7828  milestones[serviceNumber] */\n      dup2\n      mstore\n      0x20\n      add\n      swap1\n      dup2\n      mstore\n      0x20\n      add\n      0x00\n      keccak256\n        /* \"contracts/MilestoneOld.sol\":7829:7830  i */\n      dup3\n        /* \"contracts/MilestoneOld.sol\":7803:7831  milestones[serviceNumber][i] */\n      dup2\n      sload\n      dup2\n      lt\n      tag_313\n      jumpi\n      tag_314\n      tag_106\n      jump\t// in\n    tag_314:\n    tag_313:\n      swap1\n      0x00\n      mstore\n      keccak256(0x00, 0x20)\n      swap1\n      0x03\n      mul\n      add\n        /* \"contracts/MilestoneOld.sol\":7803:7838  milestones[serviceNumber][i].status */\n      0x02\n      add\n      0x00\n      swap1\n      sload\n      swap1\n      0x0100\n      exp\n      swap1\n      div\n      0xff\n      and\n        /* \"contracts/MilestoneOld.sol\":7803:7847  milestones[serviceNumber][i].status == state */\n      0x06\n      dup2\n      gt\n      iszero\n      tag_316\n      jumpi\n      tag_317\n      tag_103\n      jump\t// in\n    tag_317:\n    tag_316:\n      eq\n        /* \"contracts/MilestoneOld.sol\":7799:7894  if (milestones[serviceNumber][i].status == state) {... */\n      iszero\n      tag_318\n      jumpi\n        /* \"contracts/MilestoneOld.sol\":7874:7879  false */\n      0x00\n        /* \"contracts/MilestoneOld.sol\":7867:7879  return false */\n      swap2\n      pop\n      pop\n      jump(tag_307)\n        /* \"contracts/MilestoneOld.sol\":7799:7894  if (milestones[serviceNumber][i].status == state) {... */\n    tag_318:\n        /* \"contracts/MilestoneOld.sol\":7780:7783  i++ */\n      dup1\n      dup1\n      tag_319\n      swap1\n      tag_233\n      jump\t// in\n    tag_319:\n      swap2\n      pop\n      pop\n        /* \"contracts/MilestoneOld.sol\":7722:7904  for (uint256 i = 0; i < milestones[serviceNumber].length; i++) {... */\n      jump(tag_308)\n    tag_309:\n      pop\n        /* \"contracts/MilestoneOld.sol\":7920:7924  true */\n      0x01\n        /* \"contracts/MilestoneOld.sol\":7913:7924  return true */\n      swap1\n      pop\n        /* \"contracts/MilestoneOld.sol\":7608:7931  function checkAnyMilestoneStatusMatch(uint256 serviceNumber, Status state) internal view returns (bool) {... */\n    tag_307:\n      swap3\n      swap2\n      pop\n      pop\n      jump\t// out\n    tag_127:\n      dup3\n      dup1\n      sload\n      tag_320\n      swap1\n      tag_109\n      jump\t// in\n    tag_320:\n      swap1\n      0x00\n      mstore\n      keccak256(0x00, 0x20)\n      swap1\n      0x1f\n      add\n      0x20\n      swap1\n      div\n      dup2\n      add\n      swap3\n      dup3\n      tag_322\n      jumpi\n      0x00\n      dup6\n      sstore\n      jump(tag_321)\n    tag_322:\n      dup3\n      0x1f\n      lt\n      tag_323\n      jumpi\n      dup1\n      mload\n      not(0xff)\n      and\n      dup4\n      dup1\n      add\n      or\n      dup6\n      sstore\n      jump(tag_321)\n    tag_323:\n      dup3\n      dup1\n      add\n      0x01\n      add\n      dup6\n      sstore\n      dup3\n      iszero\n      tag_321\n      jumpi\n      swap2\n      dup3\n      add\n    tag_324:\n      dup3\n      dup2\n      gt\n      iszero\n      tag_325\n      jumpi\n      dup3\n      mload\n      dup3\n      sstore\n      swap2\n      0x20\n      add\n      swap2\n      swap1\n      0x01\n      add\n      swap1\n      jump(tag_324)\n    tag_325:\n    tag_321:\n      pop\n      swap1\n      pop\n      tag_326\n      swap2\n      swap1\n      tag_327\n      jump\t// in\n    tag_326:\n      pop\n      swap1\n      jump\t// out\n    tag_227:\n      dup3\n      dup1\n      sload\n      tag_328\n      swap1\n      tag_109\n      jump\t// in\n    tag_328:\n      swap1\n      0x00\n      mstore\n      keccak256(0x00, 0x20)\n      swap1\n      0x1f\n      add\n      0x20\n      swap1\n      div\n      dup2\n      add\n      swap3\n      dup3\n      tag_330\n      jumpi\n      0x00\n      dup6\n      sstore\n      jump(tag_329)\n    tag_330:\n      dup3\n      0x1f\n      lt\n      tag_331\n      jumpi\n      dup1\n      sload\n      dup6\n      sstore\n      jump(tag_329)\n    tag_331:\n      dup3\n      dup1\n      add\n      0x01\n      add\n      dup6\n      sstore\n      dup3\n      iszero\n      tag_329\n      jumpi\n      0x00\n      mstore\n      keccak256(0x00, 0x20)\n      swap2\n      0x1f\n      add\n      0x20\n      swap1\n      div\n      dup3\n      add\n    tag_332:\n      dup3\n      dup2\n      gt\n      iszero\n      tag_333\n      jumpi\n      dup3\n      sload\n      dup3\n      sstore\n      swap2\n      0x01\n      add\n      swap2\n      swap1\n      0x01\n      add\n      swap1\n      jump(tag_332)\n    tag_333:\n    tag_329:\n      pop\n      swap1\n      pop\n      tag_334\n      swap2\n      swap1\n      tag_327\n      jump\t// in\n    tag_334:\n      pop\n      swap1\n      jump\t// out\n    tag_239:\n      pop\n      dup1\n      sload\n      tag_335\n      swap1\n      tag_109\n      jump\t// in\n    tag_335:\n      0x00\n      dup3\n      sstore\n      dup1\n      0x1f\n      lt\n      tag_337\n      jumpi\n      pop\n      jump(tag_336)\n    tag_337:\n      0x1f\n      add\n      0x20\n      swap1\n      div\n      swap1\n      0x00\n      mstore\n      keccak256(0x00, 0x20)\n      swap1\n      dup2\n      add\n      swap1\n      tag_338\n      swap2\n      swap1\n      tag_327\n      jump\t// in\n    tag_338:\n    tag_336:\n      pop\n      jump\t// out\n    tag_327:\n    tag_339:\n      dup1\n      dup3\n      gt\n      iszero\n      tag_340\n      jumpi\n      0x00\n      dup2\n      0x00\n      swap1\n      sstore\n      pop\n      0x01\n      add\n      jump(tag_339)\n    tag_340:\n      pop\n      swap1\n      jump\t// out\n        /* \"#utility.yul\":7:419   */\n    tag_342:\n        /* \"#utility.yul\":85:90   */\n      0x00\n        /* \"#utility.yul\":110:176   */\n      tag_344\n        /* \"#utility.yul\":126:175   */\n      tag_345\n        /* \"#utility.yul\":168:174   */\n      dup5\n        /* \"#utility.yul\":126:175   */\n      tag_346\n      jump\t// in\n    tag_345:\n        /* \"#utility.yul\":110:176   */\n      tag_347\n      jump\t// in\n    tag_344:\n        /* \"#utility.yul\":101:176   */\n      swap1\n      pop\n        /* \"#utility.yul\":199:205   */\n      dup3\n        /* \"#utility.yul\":192:197   */\n      dup2\n        /* \"#utility.yul\":185:206   */\n      mstore\n        /* \"#utility.yul\":237:241   */\n      0x20\n        /* \"#utility.yul\":230:235   */\n      dup2\n        /* \"#utility.yul\":226:242   */\n      add\n        /* \"#utility.yul\":275:278   */\n      dup5\n        /* \"#utility.yul\":266:272   */\n      dup5\n        /* \"#utility.yul\":261:264   */\n      dup5\n        /* \"#utility.yul\":257:273   */\n      add\n        /* \"#utility.yul\":254:279   */\n      gt\n        /* \"#utility.yul\":251:363   */\n      iszero\n      tag_348\n      jumpi\n        /* \"#utility.yul\":282:361   */\n      tag_349\n      tag_350\n      jump\t// in\n    tag_349:\n        /* \"#utility.yul\":251:363   */\n    tag_348:\n        /* \"#utility.yul\":372:413   */\n      tag_351\n        /* \"#utility.yul\":406:412   */\n      dup5\n        /* \"#utility.yul\":401:404   */\n      dup3\n        /* \"#utility.yul\":396:399   */\n      dup6\n        /* \"#utility.yul\":372:413   */\n      tag_352\n      jump\t// in\n    tag_351:\n        /* \"#utility.yul\":91:419   */\n      pop\n        /* \"#utility.yul\":7:419   */\n      swap4\n      swap3\n      pop\n      pop\n      pop\n      jump\t// out\n        /* \"#utility.yul\":439:779   */\n    tag_353:\n        /* \"#utility.yul\":495:500   */\n      0x00\n        /* \"#utility.yul\":544:547   */\n      dup3\n        /* \"#utility.yul\":537:541   */\n      0x1f\n        /* \"#utility.yul\":529:535   */\n      dup4\n        /* \"#utility.yul\":525:542   */\n      add\n        /* \"#utility.yul\":521:548   */\n      slt\n        /* \"#utility.yul\":511:633   */\n      tag_355\n      jumpi\n        /* \"#utility.yul\":552:631   */\n      tag_356\n      tag_357\n      jump\t// in\n    tag_356:\n        /* \"#utility.yul\":511:633   */\n    tag_355:\n        /* \"#utility.yul\":669:675   */\n      dup2\n        /* \"#utility.yul\":656:676   */\n      calldataload\n        /* \"#utility.yul\":694:773   */\n      tag_358\n        /* \"#utility.yul\":769:772   */\n      dup5\n        /* \"#utility.yul\":761:767   */\n      dup3\n        /* \"#utility.yul\":754:758   */\n      0x20\n        /* \"#utility.yul\":746:752   */\n      dup7\n        /* \"#utility.yul\":742:759   */\n      add\n        /* \"#utility.yul\":694:773   */\n      tag_342\n      jump\t// in\n    tag_358:\n        /* \"#utility.yul\":685:773   */\n      swap2\n      pop\n        /* \"#utility.yul\":501:779   */\n      pop\n        /* \"#utility.yul\":439:779   */\n      swap3\n      swap2\n      pop\n      pop\n      jump\t// out\n        /* \"#utility.yul\":785:924   */\n    tag_359:\n        /* \"#utility.yul\":831:836   */\n      0x00\n        /* \"#utility.yul\":869:875   */\n      dup2\n        /* \"#utility.yul\":856:876   */\n      calldataload\n        /* \"#utility.yul\":847:876   */\n      swap1\n      pop\n        /* \"#utility.yul\":885:918   */\n      tag_361\n        /* \"#utility.yul\":912:917   */\n      dup2\n        /* \"#utility.yul\":885:918   */\n      tag_362\n      jump\t// in\n    tag_361:\n        /* \"#utility.yul\":785:924   */\n      swap3\n      swap2\n      pop\n      pop\n      jump\t// out\n        /* \"#utility.yul\":930:1065   */\n    tag_363:\n        /* \"#utility.yul\":974:979   */\n      0x00\n        /* \"#utility.yul\":1012:1018   */\n      dup2\n        /* \"#utility.yul\":999:1019   */\n      calldataload\n        /* \"#utility.yul\":990:1019   */\n      swap1\n      pop\n        /* \"#utility.yul\":1028:1059   */\n      tag_365\n        /* \"#utility.yul\":1053:1058   */\n      dup2\n        /* \"#utility.yul\":1028:1059   */\n      tag_366\n      jump\t// in\n    tag_365:\n        /* \"#utility.yul\":930:1065   */\n      swap3\n      swap2\n      pop\n      pop\n      jump\t// out\n        /* \"#utility.yul\":1071:1400   */\n    tag_30:\n        /* \"#utility.yul\":1130:1136   */\n      0x00\n        /* \"#utility.yul\":1179:1181   */\n      0x20\n        /* \"#utility.yul\":1167:1176   */\n      dup3\n        /* \"#utility.yul\":1158:1165   */\n      dup5\n        /* \"#utility.yul\":1154:1177   */\n      sub\n        /* \"#utility.yul\":1150:1182   */\n      slt\n        /* \"#utility.yul\":1147:1266   */\n      iszero\n      tag_368\n      jumpi\n        /* \"#utility.yul\":1185:1264   */\n      tag_369\n      tag_370\n      jump\t// in\n    tag_369:\n        /* \"#utility.yul\":1147:1266   */\n    tag_368:\n        /* \"#utility.yul\":1305:1306   */\n      0x00\n        /* \"#utility.yul\":1330:1383   */\n      tag_371\n        /* \"#utility.yul\":1375:1382   */\n      dup5\n        /* \"#utility.yul\":1366:1372   */\n      dup3\n        /* \"#utility.yul\":1355:1364   */\n      dup6\n        /* \"#utility.yul\":1351:1373   */\n      add\n        /* \"#utility.yul\":1330:1383   */\n      tag_359\n      jump\t// in\n    tag_371:\n        /* \"#utility.yul\":1320:1383   */\n      swap2\n      pop\n        /* \"#utility.yul\":1276:1393   */\n      pop\n        /* \"#utility.yul\":1071:1400   */\n      swap3\n      swap2\n      pop\n      pop\n      jump\t// out\n        /* \"#utility.yul\":1406:2385   */\n    tag_83:\n        /* \"#utility.yul\":1503:1509   */\n      0x00\n        /* \"#utility.yul\":1511:1517   */\n      dup1\n        /* \"#utility.yul\":1519:1525   */\n      0x00\n        /* \"#utility.yul\":1568:1570   */\n      0x60\n        /* \"#utility.yul\":1556:1565   */\n      dup5\n        /* \"#utility.yul\":1547:1554   */\n      dup7\n        /* \"#utility.yul\":1543:1566   */\n      sub\n        /* \"#utility.yul\":1539:1571   */\n      slt\n        /* \"#utility.yul\":1536:1655   */\n      iszero\n      tag_373\n      jumpi\n        /* \"#utility.yul\":1574:1653   */\n      tag_374\n      tag_370\n      jump\t// in\n    tag_374:\n        /* \"#utility.yul\":1536:1655   */\n    tag_373:\n        /* \"#utility.yul\":1694:1695   */\n      0x00\n        /* \"#utility.yul\":1719:1772   */\n      tag_375\n        /* \"#utility.yul\":1764:1771   */\n      dup7\n        /* \"#utility.yul\":1755:1761   */\n      dup3\n        /* \"#utility.yul\":1744:1753   */\n      dup8\n        /* \"#utility.yul\":1740:1762   */\n      add\n        /* \"#utility.yul\":1719:1772   */\n      tag_359\n      jump\t// in\n    tag_375:\n        /* \"#utility.yul\":1709:1772   */\n      swap4\n      pop\n        /* \"#utility.yul\":1665:1782   */\n      pop\n        /* \"#utility.yul\":1849:1851   */\n      0x20\n        /* \"#utility.yul\":1838:1847   */\n      dup5\n        /* \"#utility.yul\":1834:1852   */\n      add\n        /* \"#utility.yul\":1821:1853   */\n      calldataload\n        /* \"#utility.yul\":1880:1898   */\n      0xffffffffffffffff\n        /* \"#utility.yul\":1872:1878   */\n      dup2\n        /* \"#utility.yul\":1869:1899   */\n      gt\n        /* \"#utility.yul\":1866:1983   */\n      iszero\n      tag_376\n      jumpi\n        /* \"#utility.yul\":1902:1981   */\n      tag_377\n      tag_378\n      jump\t// in\n    tag_377:\n        /* \"#utility.yul\":1866:1983   */\n    tag_376:\n        /* \"#utility.yul\":2007:2070   */\n      tag_379\n        /* \"#utility.yul\":2062:2069   */\n      dup7\n        /* \"#utility.yul\":2053:2059   */\n      dup3\n        /* \"#utility.yul\":2042:2051   */\n      dup8\n        /* \"#utility.yul\":2038:2060   */\n      add\n        /* \"#utility.yul\":2007:2070   */\n      tag_353\n      jump\t// in\n    tag_379:\n        /* \"#utility.yul\":1997:2070   */\n      swap3\n      pop\n        /* \"#utility.yul\":1792:2080   */\n      pop\n        /* \"#utility.yul\":2147:2149   */\n      0x40\n        /* \"#utility.yul\":2136:2145   */\n      dup5\n        /* \"#utility.yul\":2132:2150   */\n      add\n        /* \"#utility.yul\":2119:2151   */\n      calldataload\n        /* \"#utility.yul\":2178:2196   */\n      0xffffffffffffffff\n        /* \"#utility.yul\":2170:2176   */\n      dup2\n        /* \"#utility.yul\":2167:2197   */\n      gt\n        /* \"#utility.yul\":2164:2281   */\n      iszero\n      tag_380\n      jumpi\n        /* \"#utility.yul\":2200:2279   */\n      tag_381\n      tag_378\n      jump\t// in\n    tag_381:\n        /* \"#utility.yul\":2164:2281   */\n    tag_380:\n        /* \"#utility.yul\":2305:2368   */\n      tag_382\n        /* \"#utility.yul\":2360:2367   */\n      dup7\n        /* \"#utility.yul\":2351:2357   */\n      dup3\n        /* \"#utility.yul\":2340:2349   */\n      dup8\n        /* \"#utility.yul\":2336:2358   */\n      add\n        /* \"#utility.yul\":2305:2368   */\n      tag_353\n      jump\t// in\n    tag_382:\n        /* \"#utility.yul\":2295:2368   */\n      swap2\n      pop\n        /* \"#utility.yul\":2090:2378   */\n      pop\n        /* \"#utility.yul\":1406:2385   */\n      swap3\n      pop\n      swap3\n      pop\n      swap3\n      jump\t// out\n        /* \"#utility.yul\":2391:2865   */\n    tag_45:\n        /* \"#utility.yul\":2459:2465   */\n      0x00\n        /* \"#utility.yul\":2467:2473   */\n      dup1\n        /* \"#utility.yul\":2516:2518   */\n      0x40\n        /* \"#utility.yul\":2504:2513   */\n      dup4\n        /* \"#utility.yul\":2495:2502   */\n      dup6\n        /* \"#utility.yul\":2491:2514   */\n      sub\n        /* \"#utility.yul\":2487:2519   */\n      slt\n        /* \"#utility.yul\":2484:2603   */\n      iszero\n      tag_384\n      jumpi\n        /* \"#utility.yul\":2522:2601   */\n      tag_385\n      tag_370\n      jump\t// in\n    tag_385:\n        /* \"#utility.yul\":2484:2603   */\n    tag_384:\n        /* \"#utility.yul\":2642:2643   */\n      0x00\n        /* \"#utility.yul\":2667:2720   */\n      tag_386\n        /* \"#utility.yul\":2712:2719   */\n      dup6\n        /* \"#utility.yul\":2703:2709   */\n      dup3\n        /* \"#utility.yul\":2692:2701   */\n      dup7\n        /* \"#utility.yul\":2688:2710   */\n      add\n        /* \"#utility.yul\":2667:2720   */\n      tag_359\n      jump\t// in\n    tag_386:\n        /* \"#utility.yul\":2657:2720   */\n      swap3\n      pop\n        /* \"#utility.yul\":2613:2730   */\n      pop\n        /* \"#utility.yul\":2769:2771   */\n      0x20\n        /* \"#utility.yul\":2795:2848   */\n      tag_387\n        /* \"#utility.yul\":2840:2847   */\n      dup6\n        /* \"#utility.yul\":2831:2837   */\n      dup3\n        /* \"#utility.yul\":2820:2829   */\n      dup7\n        /* \"#utility.yul\":2816:2838   */\n      add\n        /* \"#utility.yul\":2795:2848   */\n      tag_359\n      jump\t// in\n    tag_387:\n        /* \"#utility.yul\":2785:2848   */\n      swap2\n      pop\n        /* \"#utility.yul\":2740:2858   */\n      pop\n        /* \"#utility.yul\":2391:2865   */\n      swap3\n      pop\n      swap3\n      swap1\n      pop\n      jump\t// out\n        /* \"#utility.yul\":2871:3996   */\n    tag_26:\n        /* \"#utility.yul\":2977:2983   */\n      0x00\n        /* \"#utility.yul\":2985:2991   */\n      dup1\n        /* \"#utility.yul\":2993:2999   */\n      0x00\n        /* \"#utility.yul\":3001:3007   */\n      dup1\n        /* \"#utility.yul\":3050:3053   */\n      0x80\n        /* \"#utility.yul\":3038:3047   */\n      dup6\n        /* \"#utility.yul\":3029:3036   */\n      dup8\n        /* \"#utility.yul\":3025:3048   */\n      sub\n        /* \"#utility.yul\":3021:3054   */\n      slt\n        /* \"#utility.yul\":3018:3138   */\n      iszero\n      tag_389\n      jumpi\n        /* \"#utility.yul\":3057:3136   */\n      tag_390\n      tag_370\n      jump\t// in\n    tag_390:\n        /* \"#utility.yul\":3018:3138   */\n    tag_389:\n        /* \"#utility.yul\":3177:3178   */\n      0x00\n        /* \"#utility.yul\":3202:3255   */\n      tag_391\n        /* \"#utility.yul\":3247:3254   */\n      dup8\n        /* \"#utility.yul\":3238:3244   */\n      dup3\n        /* \"#utility.yul\":3227:3236   */\n      dup9\n        /* \"#utility.yul\":3223:3245   */\n      add\n        /* \"#utility.yul\":3202:3255   */\n      tag_359\n      jump\t// in\n    tag_391:\n        /* \"#utility.yul\":3192:3255   */\n      swap5\n      pop\n        /* \"#utility.yul\":3148:3265   */\n      pop\n        /* \"#utility.yul\":3304:3306   */\n      0x20\n        /* \"#utility.yul\":3330:3383   */\n      tag_392\n        /* \"#utility.yul\":3375:3382   */\n      dup8\n        /* \"#utility.yul\":3366:3372   */\n      dup3\n        /* \"#utility.yul\":3355:3364   */\n      dup9\n        /* \"#utility.yul\":3351:3373   */\n      add\n        /* \"#utility.yul\":3330:3383   */\n      tag_359\n      jump\t// in\n    tag_392:\n        /* \"#utility.yul\":3320:3383   */\n      swap4\n      pop\n        /* \"#utility.yul\":3275:3393   */\n      pop\n        /* \"#utility.yul\":3460:3462   */\n      0x40\n        /* \"#utility.yul\":3449:3458   */\n      dup6\n        /* \"#utility.yul\":3445:3463   */\n      add\n        /* \"#utility.yul\":3432:3464   */\n      calldataload\n        /* \"#utility.yul\":3491:3509   */\n      0xffffffffffffffff\n        /* \"#utility.yul\":3483:3489   */\n      dup2\n        /* \"#utility.yul\":3480:3510   */\n      gt\n        /* \"#utility.yul\":3477:3594   */\n      iszero\n      tag_393\n      jumpi\n        /* \"#utility.yul\":3513:3592   */\n      tag_394\n      tag_378\n      jump\t// in\n    tag_394:\n        /* \"#utility.yul\":3477:3594   */\n    tag_393:\n        /* \"#utility.yul\":3618:3681   */\n      tag_395\n        /* \"#utility.yul\":3673:3680   */\n      dup8\n        /* \"#utility.yul\":3664:3670   */\n      dup3\n        /* \"#utility.yul\":3653:3662   */\n      dup9\n        /* \"#utility.yul\":3649:3671   */\n      add\n        /* \"#utility.yul\":3618:3681   */\n      tag_353\n      jump\t// in\n    tag_395:\n        /* \"#utility.yul\":3608:3681   */\n      swap3\n      pop\n        /* \"#utility.yul\":3403:3691   */\n      pop\n        /* \"#utility.yul\":3758:3760   */\n      0x60\n        /* \"#utility.yul\":3747:3756   */\n      dup6\n        /* \"#utility.yul\":3743:3761   */\n      add\n        /* \"#utility.yul\":3730:3762   */\n      calldataload\n        /* \"#utility.yul\":3789:3807   */\n      0xffffffffffffffff\n        /* \"#utility.yul\":3781:3787   */\n      dup2\n        /* \"#utility.yul\":3778:3808   */\n      gt\n        /* \"#utility.yul\":3775:3892   */\n      iszero\n      tag_396\n      jumpi\n        /* \"#utility.yul\":3811:3890   */\n      tag_397\n      tag_378\n      jump\t// in\n    tag_397:\n        /* \"#utility.yul\":3775:3892   */\n    tag_396:\n        /* \"#utility.yul\":3916:3979   */\n      tag_398\n        /* \"#utility.yul\":3971:3978   */\n      dup8\n        /* \"#utility.yul\":3962:3968   */\n      dup3\n        /* \"#utility.yul\":3951:3960   */\n      dup9\n        /* \"#utility.yul\":3947:3969   */\n      add\n        /* \"#utility.yul\":3916:3979   */\n      tag_353\n      jump\t// in\n    tag_398:\n        /* \"#utility.yul\":3906:3979   */\n      swap2\n      pop\n        /* \"#utility.yul\":3701:3989   */\n      pop\n        /* \"#utility.yul\":2871:3996   */\n      swap3\n      swap6\n      swap2\n      swap5\n      pop\n      swap3\n      pop\n      jump\t// out\n        /* \"#utility.yul\":4002:4617   */\n    tag_36:\n        /* \"#utility.yul\":4077:4083   */\n      0x00\n        /* \"#utility.yul\":4085:4091   */\n      dup1\n        /* \"#utility.yul\":4093:4099   */\n      0x00\n        /* \"#utility.yul\":4142:4144   */\n      0x60\n        /* \"#utility.yul\":4130:4139   */\n      dup5\n        /* \"#utility.yul\":4121:4128   */\n      dup7\n        /* \"#utility.yul\":4117:4140   */\n      sub\n        /* \"#utility.yul\":4113:4145   */\n      slt\n        /* \"#utility.yul\":4110:4229   */\n      iszero\n      tag_400\n      jumpi\n        /* \"#utility.yul\":4148:4227   */\n      tag_401\n      tag_370\n      jump\t// in\n    tag_401:\n        /* \"#utility.yul\":4110:4229   */\n    tag_400:\n        /* \"#utility.yul\":4268:4269   */\n      0x00\n        /* \"#utility.yul\":4293:4346   */\n      tag_402\n        /* \"#utility.yul\":4338:4345   */\n      dup7\n        /* \"#utility.yul\":4329:4335   */\n      dup3\n        /* \"#utility.yul\":4318:4327   */\n      dup8\n        /* \"#utility.yul\":4314:4336   */\n      add\n        /* \"#utility.yul\":4293:4346   */\n      tag_359\n      jump\t// in\n    tag_402:\n        /* \"#utility.yul\":4283:4346   */\n      swap4\n      pop\n        /* \"#utility.yul\":4239:4356   */\n      pop\n        /* \"#utility.yul\":4395:4397   */\n      0x20\n        /* \"#utility.yul\":4421:4474   */\n      tag_403\n        /* \"#utility.yul\":4466:4473   */\n      dup7\n        /* \"#utility.yul\":4457:4463   */\n      dup3\n        /* \"#utility.yul\":4446:4455   */\n      dup8\n        /* \"#utility.yul\":4442:4464   */\n      add\n        /* \"#utility.yul\":4421:4474   */\n      tag_359\n      jump\t// in\n    tag_403:\n        /* \"#utility.yul\":4411:4474   */\n      swap3\n      pop\n        /* \"#utility.yul\":4366:4484   */\n      pop\n        /* \"#utility.yul\":4523:4525   */\n      0x40\n        /* \"#utility.yul\":4549:4600   */\n      tag_404\n        /* \"#utility.yul\":4592:4599   */\n      dup7\n        /* \"#utility.yul\":4583:4589   */\n      dup3\n        /* \"#utility.yul\":4572:4581   */\n      dup8\n        /* \"#utility.yul\":4568:4590   */\n      add\n        /* \"#utility.yul\":4549:4600   */\n      tag_363\n      jump\t// in\n    tag_404:\n        /* \"#utility.yul\":4539:4600   */\n      swap2\n      pop\n        /* \"#utility.yul\":4494:4610   */\n      pop\n        /* \"#utility.yul\":4002:4617   */\n      swap3\n      pop\n      swap3\n      pop\n      swap3\n      jump\t// out\n        /* \"#utility.yul\":4623:4879   */\n    tag_405:\n        /* \"#utility.yul\":4742:4752   */\n      0x00\n        /* \"#utility.yul\":4777:4873   */\n      tag_407\n        /* \"#utility.yul\":4869:4872   */\n      dup4\n        /* \"#utility.yul\":4861:4867   */\n      dup4\n        /* \"#utility.yul\":4777:4873   */\n      tag_408\n      jump\t// in\n    tag_407:\n        /* \"#utility.yul\":4763:4873   */\n      swap1\n      pop\n        /* \"#utility.yul\":4623:4879   */\n      swap3\n      swap2\n      pop\n      pop\n      jump\t// out\n        /* \"#utility.yul\":4959:6070   */\n    tag_409:\n        /* \"#utility.yul\":5128:5131   */\n      0x00\n        /* \"#utility.yul\":5157:5236   */\n      tag_411\n        /* \"#utility.yul\":5230:5235   */\n      dup3\n        /* \"#utility.yul\":5157:5236   */\n      tag_412\n      jump\t// in\n    tag_411:\n        /* \"#utility.yul\":5252:5363   */\n      tag_413\n        /* \"#utility.yul\":5356:5362   */\n      dup2\n        /* \"#utility.yul\":5351:5354   */\n      dup6\n        /* \"#utility.yul\":5252:5363   */\n      tag_414\n      jump\t// in\n    tag_413:\n        /* \"#utility.yul\":5245:5363   */\n      swap4\n      pop\n        /* \"#utility.yul\":5389:5392   */\n      dup4\n        /* \"#utility.yul\":5434:5438   */\n      0x20\n        /* \"#utility.yul\":5426:5432   */\n      dup3\n        /* \"#utility.yul\":5422:5439   */\n      mul\n        /* \"#utility.yul\":5417:5420   */\n      dup6\n        /* \"#utility.yul\":5413:5440   */\n      add\n        /* \"#utility.yul\":5464:5545   */\n      tag_415\n        /* \"#utility.yul\":5539:5544   */\n      dup6\n        /* \"#utility.yul\":5464:5545   */\n      tag_416\n      jump\t// in\n    tag_415:\n        /* \"#utility.yul\":5568:5575   */\n      dup1\n        /* \"#utility.yul\":5599:5600   */\n      0x00\n        /* \"#utility.yul\":5584:6025   */\n    tag_417:\n        /* \"#utility.yul\":5609:5615   */\n      dup6\n        /* \"#utility.yul\":5606:5607   */\n      dup2\n        /* \"#utility.yul\":5603:5616   */\n      lt\n        /* \"#utility.yul\":5584:6025   */\n      iszero\n      tag_419\n      jumpi\n        /* \"#utility.yul\":5680:5689   */\n      dup5\n        /* \"#utility.yul\":5674:5678   */\n      dup5\n        /* \"#utility.yul\":5670:5690   */\n      sub\n        /* \"#utility.yul\":5665:5668   */\n      dup10\n        /* \"#utility.yul\":5658:5691   */\n      mstore\n        /* \"#utility.yul\":5731:5737   */\n      dup2\n        /* \"#utility.yul\":5725:5738   */\n      mload\n        /* \"#utility.yul\":5759:5873   */\n      tag_420\n        /* \"#utility.yul\":5868:5872   */\n      dup6\n        /* \"#utility.yul\":5853:5866   */\n      dup3\n        /* \"#utility.yul\":5759:5873   */\n      tag_405\n      jump\t// in\n    tag_420:\n        /* \"#utility.yul\":5751:5873   */\n      swap5\n      pop\n        /* \"#utility.yul\":5896:5981   */\n      tag_421\n        /* \"#utility.yul\":5974:5980   */\n      dup4\n        /* \"#utility.yul\":5896:5981   */\n      tag_422\n      jump\t// in\n    tag_421:\n        /* \"#utility.yul\":5886:5981   */\n      swap3\n      pop\n        /* \"#utility.yul\":6010:6014   */\n      0x20\n        /* \"#utility.yul\":6005:6008   */\n      dup11\n        /* \"#utility.yul\":6001:6015   */\n      add\n        /* \"#utility.yul\":5994:6015   */\n      swap10\n      pop\n        /* \"#utility.yul\":5644:6025   */\n      pop\n        /* \"#utility.yul\":5631:5632   */\n      0x01\n        /* \"#utility.yul\":5628:5629   */\n      dup2\n        /* \"#utility.yul\":5624:5633   */\n      add\n        /* \"#utility.yul\":5619:5633   */\n      swap1\n      pop\n        /* \"#utility.yul\":5584:6025   */\n      jump(tag_417)\n    tag_419:\n        /* \"#utility.yul\":5588:5602   */\n      pop\n        /* \"#utility.yul\":6041:6045   */\n      dup3\n        /* \"#utility.yul\":6034:6045   */\n      swap8\n      pop\n        /* \"#utility.yul\":6061:6064   */\n      dup8\n        /* \"#utility.yul\":6054:6064   */\n      swap6\n      pop\n        /* \"#utility.yul\":5133:6070   */\n      pop\n      pop\n      pop\n      pop\n      pop\n        /* \"#utility.yul\":4959:6070   */\n      swap3\n      swap2\n      pop\n      pop\n      jump\t// out\n        /* \"#utility.yul\":6076:6185   */\n    tag_423:\n        /* \"#utility.yul\":6157:6178   */\n      tag_425\n        /* \"#utility.yul\":6172:6177   */\n      dup2\n        /* \"#utility.yul\":6157:6178   */\n      tag_426\n      jump\t// in\n    tag_425:\n        /* \"#utility.yul\":6152:6155   */\n      dup3\n        /* \"#utility.yul\":6145:6179   */\n      mstore\n        /* \"#utility.yul\":6076:6185   */\n      pop\n      pop\n      jump\t// out\n        /* \"#utility.yul\":6191:6324   */\n    tag_427:\n        /* \"#utility.yul\":6274:6317   */\n      tag_429\n        /* \"#utility.yul\":6311:6316   */\n      dup2\n        /* \"#utility.yul\":6274:6317   */\n      tag_430\n      jump\t// in\n    tag_429:\n        /* \"#utility.yul\":6269:6272   */\n      dup3\n        /* \"#utility.yul\":6262:6318   */\n      mstore\n        /* \"#utility.yul\":6191:6324   */\n      pop\n      pop\n      jump\t// out\n        /* \"#utility.yul\":6330:6473   */\n    tag_431:\n        /* \"#utility.yul\":6423:6466   */\n      tag_433\n        /* \"#utility.yul\":6460:6465   */\n      dup2\n        /* \"#utility.yul\":6423:6466   */\n      tag_430\n      jump\t// in\n    tag_433:\n        /* \"#utility.yul\":6418:6421   */\n      dup3\n        /* \"#utility.yul\":6411:6467   */\n      mstore\n        /* \"#utility.yul\":6330:6473   */\n      pop\n      pop\n      jump\t// out\n        /* \"#utility.yul\":6479:6823   */\n    tag_434:\n        /* \"#utility.yul\":6557:6560   */\n      0x00\n        /* \"#utility.yul\":6585:6624   */\n      tag_436\n        /* \"#utility.yul\":6618:6623   */\n      dup3\n        /* \"#utility.yul\":6585:6624   */\n      tag_437\n      jump\t// in\n    tag_436:\n        /* \"#utility.yul\":6640:6701   */\n      tag_438\n        /* \"#utility.yul\":6694:6700   */\n      dup2\n        /* \"#utility.yul\":6689:6692   */\n      dup6\n        /* \"#utility.yul\":6640:6701   */\n      tag_439\n      jump\t// in\n    tag_438:\n        /* \"#utility.yul\":6633:6701   */\n      swap4\n      pop\n        /* \"#utility.yul\":6710:6762   */\n      tag_440\n        /* \"#utility.yul\":6755:6761   */\n      dup2\n        /* \"#utility.yul\":6750:6753   */\n      dup6\n        /* \"#utility.yul\":6743:6747   */\n      0x20\n        /* \"#utility.yul\":6736:6741   */\n      dup7\n        /* \"#utility.yul\":6732:6748   */\n      add\n        /* \"#utility.yul\":6710:6762   */\n      tag_441\n      jump\t// in\n    tag_440:\n        /* \"#utility.yul\":6787:6816   */\n      tag_442\n        /* \"#utility.yul\":6809:6815   */\n      dup2\n        /* \"#utility.yul\":6787:6816   */\n      tag_443\n      jump\t// in\n    tag_442:\n        /* \"#utility.yul\":6782:6785   */\n      dup5\n        /* \"#utility.yul\":6778:6817   */\n      add\n        /* \"#utility.yul\":6771:6817   */\n      swap2\n      pop\n        /* \"#utility.yul\":6561:6823   */\n      pop\n        /* \"#utility.yul\":6479:6823   */\n      swap3\n      swap2\n      pop\n      pop\n      jump\t// out\n        /* \"#utility.yul\":6829:7195   */\n    tag_444:\n        /* \"#utility.yul\":6971:6974   */\n      0x00\n        /* \"#utility.yul\":6992:7059   */\n      tag_446\n        /* \"#utility.yul\":7056:7058   */\n      0x1d\n        /* \"#utility.yul\":7051:7054   */\n      dup4\n        /* \"#utility.yul\":6992:7059   */\n      tag_447\n      jump\t// in\n    tag_446:\n        /* \"#utility.yul\":6985:7059   */\n      swap2\n      pop\n        /* \"#utility.yul\":7068:7161   */\n      tag_448\n        /* \"#utility.yul\":7157:7160   */\n      dup3\n        /* \"#utility.yul\":7068:7161   */\n      tag_449\n      jump\t// in\n    tag_448:\n        /* \"#utility.yul\":7186:7188   */\n      0x20\n        /* \"#utility.yul\":7181:7184   */\n      dup3\n        /* \"#utility.yul\":7177:7189   */\n      add\n        /* \"#utility.yul\":7170:7189   */\n      swap1\n      pop\n        /* \"#utility.yul\":6829:7195   */\n      swap2\n      swap1\n      pop\n      jump\t// out\n        /* \"#utility.yul\":7201:7567   */\n    tag_450:\n        /* \"#utility.yul\":7343:7346   */\n      0x00\n        /* \"#utility.yul\":7364:7431   */\n      tag_452\n        /* \"#utility.yul\":7428:7430   */\n      0x24\n        /* \"#utility.yul\":7423:7426   */\n      dup4\n        /* \"#utility.yul\":7364:7431   */\n      tag_447\n      jump\t// in\n    tag_452:\n        /* \"#utility.yul\":7357:7431   */\n      swap2\n      pop\n        /* \"#utility.yul\":7440:7533   */\n      tag_453\n        /* \"#utility.yul\":7529:7532   */\n      dup3\n        /* \"#utility.yul\":7440:7533   */\n      tag_454\n      jump\t// in\n    tag_453:\n        /* \"#utility.yul\":7558:7560   */\n      0x40\n        /* \"#utility.yul\":7553:7556   */\n      dup3\n        /* \"#utility.yul\":7549:7561   */\n      add\n        /* \"#utility.yul\":7542:7561   */\n      swap1\n      pop\n        /* \"#utility.yul\":7201:7567   */\n      swap2\n      swap1\n      pop\n      jump\t// out\n        /* \"#utility.yul\":7643:8518   */\n    tag_408:\n        /* \"#utility.yul\":7752:7755   */\n      0x00\n        /* \"#utility.yul\":7788:7792   */\n      0x60\n        /* \"#utility.yul\":7783:7786   */\n      dup4\n        /* \"#utility.yul\":7779:7793   */\n      add\n        /* \"#utility.yul\":7885:7889   */\n      0x00\n        /* \"#utility.yul\":7878:7883   */\n      dup4\n        /* \"#utility.yul\":7874:7890   */\n      add\n        /* \"#utility.yul\":7868:7891   */\n      mload\n        /* \"#utility.yul\":7938:7941   */\n      dup5\n        /* \"#utility.yul\":7932:7936   */\n      dup3\n        /* \"#utility.yul\":7928:7942   */\n      sub\n        /* \"#utility.yul\":7921:7925   */\n      0x00\n        /* \"#utility.yul\":7916:7919   */\n      dup7\n        /* \"#utility.yul\":7912:7926   */\n      add\n        /* \"#utility.yul\":7905:7943   */\n      mstore\n        /* \"#utility.yul\":7964:8037   */\n      tag_456\n        /* \"#utility.yul\":8032:8036   */\n      dup3\n        /* \"#utility.yul\":8018:8030   */\n      dup3\n        /* \"#utility.yul\":7964:8037   */\n      tag_434\n      jump\t// in\n    tag_456:\n        /* \"#utility.yul\":7956:8037   */\n      swap2\n      pop\n        /* \"#utility.yul\":7803:8048   */\n      pop\n        /* \"#utility.yul\":8146:8150   */\n      0x20\n        /* \"#utility.yul\":8139:8144   */\n      dup4\n        /* \"#utility.yul\":8135:8151   */\n      add\n        /* \"#utility.yul\":8129:8152   */\n      mload\n        /* \"#utility.yul\":8199:8202   */\n      dup5\n        /* \"#utility.yul\":8193:8197   */\n      dup3\n        /* \"#utility.yul\":8189:8203   */\n      sub\n        /* \"#utility.yul\":8182:8186   */\n      0x20\n        /* \"#utility.yul\":8177:8180   */\n      dup7\n        /* \"#utility.yul\":8173:8187   */\n      add\n        /* \"#utility.yul\":8166:8204   */\n      mstore\n        /* \"#utility.yul\":8225:8298   */\n      tag_457\n        /* \"#utility.yul\":8293:8297   */\n      dup3\n        /* \"#utility.yul\":8279:8291   */\n      dup3\n        /* \"#utility.yul\":8225:8298   */\n      tag_434\n      jump\t// in\n    tag_457:\n        /* \"#utility.yul\":8217:8298   */\n      swap2\n      pop\n        /* \"#utility.yul\":8058:8309   */\n      pop\n        /* \"#utility.yul\":8393:8397   */\n      0x40\n        /* \"#utility.yul\":8386:8391   */\n      dup4\n        /* \"#utility.yul\":8382:8398   */\n      add\n        /* \"#utility.yul\":8376:8399   */\n      mload\n        /* \"#utility.yul\":8412:8481   */\n      tag_458\n        /* \"#utility.yul\":8475:8479   */\n      0x40\n        /* \"#utility.yul\":8470:8473   */\n      dup7\n        /* \"#utility.yul\":8466:8480   */\n      add\n        /* \"#utility.yul\":8452:8464   */\n      dup3\n        /* \"#utility.yul\":8412:8481   */\n      tag_427\n      jump\t// in\n    tag_458:\n        /* \"#utility.yul\":8319:8491   */\n      pop\n        /* \"#utility.yul\":8508:8512   */\n      dup1\n        /* \"#utility.yul\":8501:8512   */\n      swap2\n      pop\n        /* \"#utility.yul\":7757:8518   */\n      pop\n        /* \"#utility.yul\":7643:8518   */\n      swap3\n      swap2\n      pop\n      pop\n      jump\t// out\n        /* \"#utility.yul\":8594:9479   */\n    tag_459:\n        /* \"#utility.yul\":8713:8716   */\n      0x00\n        /* \"#utility.yul\":8749:8753   */\n      0x60\n        /* \"#utility.yul\":8744:8747   */\n      dup4\n        /* \"#utility.yul\":8740:8754   */\n      add\n        /* \"#utility.yul\":8846:8850   */\n      0x00\n        /* \"#utility.yul\":8839:8844   */\n      dup4\n        /* \"#utility.yul\":8835:8851   */\n      add\n        /* \"#utility.yul\":8829:8852   */\n      mload\n        /* \"#utility.yul\":8899:8902   */\n      dup5\n        /* \"#utility.yul\":8893:8897   */\n      dup3\n        /* \"#utility.yul\":8889:8903   */\n      sub\n        /* \"#utility.yul\":8882:8886   */\n      0x00\n        /* \"#utility.yul\":8877:8880   */\n      dup7\n        /* \"#utility.yul\":8873:8887   */\n      add\n        /* \"#utility.yul\":8866:8904   */\n      mstore\n        /* \"#utility.yul\":8925:8998   */\n      tag_461\n        /* \"#utility.yul\":8993:8997   */\n      dup3\n        /* \"#utility.yul\":8979:8991   */\n      dup3\n        /* \"#utility.yul\":8925:8998   */\n      tag_434\n      jump\t// in\n    tag_461:\n        /* \"#utility.yul\":8917:8998   */\n      swap2\n      pop\n        /* \"#utility.yul\":8764:9009   */\n      pop\n        /* \"#utility.yul\":9107:9111   */\n      0x20\n        /* \"#utility.yul\":9100:9105   */\n      dup4\n        /* \"#utility.yul\":9096:9112   */\n      add\n        /* \"#utility.yul\":9090:9113   */\n      mload\n        /* \"#utility.yul\":9160:9163   */\n      dup5\n        /* \"#utility.yul\":9154:9158   */\n      dup3\n        /* \"#utility.yul\":9150:9164   */\n      sub\n        /* \"#utility.yul\":9143:9147   */\n      0x20\n        /* \"#utility.yul\":9138:9141   */\n      dup7\n        /* \"#utility.yul\":9134:9148   */\n      add\n        /* \"#utility.yul\":9127:9165   */\n      mstore\n        /* \"#utility.yul\":9186:9259   */\n      tag_462\n        /* \"#utility.yul\":9254:9258   */\n      dup3\n        /* \"#utility.yul\":9240:9252   */\n      dup3\n        /* \"#utility.yul\":9186:9259   */\n      tag_434\n      jump\t// in\n    tag_462:\n        /* \"#utility.yul\":9178:9259   */\n      swap2\n      pop\n        /* \"#utility.yul\":9019:9270   */\n      pop\n        /* \"#utility.yul\":9354:9358   */\n      0x40\n        /* \"#utility.yul\":9347:9352   */\n      dup4\n        /* \"#utility.yul\":9343:9359   */\n      add\n        /* \"#utility.yul\":9337:9360   */\n      mload\n        /* \"#utility.yul\":9373:9442   */\n      tag_463\n        /* \"#utility.yul\":9436:9440   */\n      0x40\n        /* \"#utility.yul\":9431:9434   */\n      dup7\n        /* \"#utility.yul\":9427:9441   */\n      add\n        /* \"#utility.yul\":9413:9425   */\n      dup3\n        /* \"#utility.yul\":9373:9442   */\n      tag_427\n      jump\t// in\n    tag_463:\n        /* \"#utility.yul\":9280:9452   */\n      pop\n        /* \"#utility.yul\":9469:9473   */\n      dup1\n        /* \"#utility.yul\":9462:9473   */\n      swap2\n      pop\n        /* \"#utility.yul\":8718:9479   */\n      pop\n        /* \"#utility.yul\":8594:9479   */\n      swap3\n      swap2\n      pop\n      pop\n      jump\t// out\n        /* \"#utility.yul\":9485:9603   */\n    tag_464:\n        /* \"#utility.yul\":9572:9596   */\n      tag_466\n        /* \"#utility.yul\":9590:9595   */\n      dup2\n        /* \"#utility.yul\":9572:9596   */\n      tag_467\n      jump\t// in\n    tag_466:\n        /* \"#utility.yul\":9567:9570   */\n      dup3\n        /* \"#utility.yul\":9560:9597   */\n      mstore\n        /* \"#utility.yul\":9485:9603   */\n      pop\n      pop\n      jump\t// out\n        /* \"#utility.yul\":9609:10082   */\n    tag_59:\n        /* \"#utility.yul\":9802:9806   */\n      0x00\n        /* \"#utility.yul\":9840:9842   */\n      0x20\n        /* \"#utility.yul\":9829:9838   */\n      dup3\n        /* \"#utility.yul\":9825:9843   */\n      add\n        /* \"#utility.yul\":9817:9843   */\n      swap1\n      pop\n        /* \"#utility.yul\":9889:9898   */\n      dup2\n        /* \"#utility.yul\":9883:9887   */\n      dup2\n        /* \"#utility.yul\":9879:9899   */\n      sub\n        /* \"#utility.yul\":9875:9876   */\n      0x00\n        /* \"#utility.yul\":9864:9873   */\n      dup4\n        /* \"#utility.yul\":9860:9877   */\n      add\n        /* \"#utility.yul\":9853:9900   */\n      mstore\n        /* \"#utility.yul\":9917:10075   */\n      tag_469\n        /* \"#utility.yul\":10070:10074   */\n      dup2\n        /* \"#utility.yul\":10061:10067   */\n      dup5\n        /* \"#utility.yul\":9917:10075   */\n      tag_409\n      jump\t// in\n    tag_469:\n        /* \"#utility.yul\":9909:10075   */\n      swap1\n      pop\n        /* \"#utility.yul\":9609:10082   */\n      swap3\n      swap2\n      pop\n      pop\n      jump\t// out\n        /* \"#utility.yul\":10088:10298   */\n    tag_33:\n        /* \"#utility.yul\":10175:10179   */\n      0x00\n        /* \"#utility.yul\":10213:10215   */\n      0x20\n        /* \"#utility.yul\":10202:10211   */\n      dup3\n        /* \"#utility.yul\":10198:10216   */\n      add\n        /* \"#utility.yul\":10190:10216   */\n      swap1\n      pop\n        /* \"#utility.yul\":10226:10291   */\n      tag_471\n        /* \"#utility.yul\":10288:10289   */\n      0x00\n        /* \"#utility.yul\":10277:10286   */\n      dup4\n        /* \"#utility.yul\":10273:10290   */\n      add\n        /* \"#utility.yul\":10264:10270   */\n      dup5\n        /* \"#utility.yul\":10226:10291   */\n      tag_423\n      jump\t// in\n    tag_471:\n        /* \"#utility.yul\":10088:10298   */\n      swap3\n      swap2\n      pop\n      pop\n      jump\t// out\n        /* \"#utility.yul\":10304:10538   */\n    tag_95:\n        /* \"#utility.yul\":10403:10407   */\n      0x00\n        /* \"#utility.yul\":10441:10443   */\n      0x20\n        /* \"#utility.yul\":10430:10439   */\n      dup3\n        /* \"#utility.yul\":10426:10444   */\n      add\n        /* \"#utility.yul\":10418:10444   */\n      swap1\n      pop\n        /* \"#utility.yul\":10454:10531   */\n      tag_473\n        /* \"#utility.yul\":10528:10529   */\n      0x00\n        /* \"#utility.yul\":10517:10526   */\n      dup4\n        /* \"#utility.yul\":10513:10530   */\n      add\n        /* \"#utility.yul\":10504:10510   */\n      dup5\n        /* \"#utility.yul\":10454:10531   */\n      tag_431\n      jump\t// in\n    tag_473:\n        /* \"#utility.yul\":10304:10538   */\n      swap3\n      swap2\n      pop\n      pop\n      jump\t// out\n        /* \"#utility.yul\":10544:10963   */\n    tag_275:\n        /* \"#utility.yul\":10710:10714   */\n      0x00\n        /* \"#utility.yul\":10748:10750   */\n      0x20\n        /* \"#utility.yul\":10737:10746   */\n      dup3\n        /* \"#utility.yul\":10733:10751   */\n      add\n        /* \"#utility.yul\":10725:10751   */\n      swap1\n      pop\n        /* \"#utility.yul\":10797:10806   */\n      dup2\n        /* \"#utility.yul\":10791:10795   */\n      dup2\n        /* \"#utility.yul\":10787:10807   */\n      sub\n        /* \"#utility.yul\":10783:10784   */\n      0x00\n        /* \"#utility.yul\":10772:10781   */\n      dup4\n        /* \"#utility.yul\":10768:10785   */\n      add\n        /* \"#utility.yul\":10761:10808   */\n      mstore\n        /* \"#utility.yul\":10825:10956   */\n      tag_475\n        /* \"#utility.yul\":10951:10955   */\n      dup2\n        /* \"#utility.yul\":10825:10956   */\n      tag_444\n      jump\t// in\n    tag_475:\n        /* \"#utility.yul\":10817:10956   */\n      swap1\n      pop\n        /* \"#utility.yul\":10544:10963   */\n      swap2\n      swap1\n      pop\n      jump\t// out\n        /* \"#utility.yul\":10969:11388   */\n    tag_99:\n        /* \"#utility.yul\":11135:11139   */\n      0x00\n        /* \"#utility.yul\":11173:11175   */\n      0x20\n        /* \"#utility.yul\":11162:11171   */\n      dup3\n        /* \"#utility.yul\":11158:11176   */\n      add\n        /* \"#utility.yul\":11150:11176   */\n      swap1\n      pop\n        /* \"#utility.yul\":11222:11231   */\n      dup2\n        /* \"#utility.yul\":11216:11220   */\n      dup2\n        /* \"#utility.yul\":11212:11232   */\n      sub\n        /* \"#utility.yul\":11208:11209   */\n      0x00\n        /* \"#utility.yul\":11197:11206   */\n      dup4\n        /* \"#utility.yul\":11193:11210   */\n      add\n        /* \"#utility.yul\":11186:11233   */\n      mstore\n        /* \"#utility.yul\":11250:11381   */\n      tag_477\n        /* \"#utility.yul\":11376:11380   */\n      dup2\n        /* \"#utility.yul\":11250:11381   */\n      tag_450\n      jump\t// in\n    tag_477:\n        /* \"#utility.yul\":11242:11381   */\n      swap1\n      pop\n        /* \"#utility.yul\":10969:11388   */\n      swap2\n      swap1\n      pop\n      jump\t// out\n        /* \"#utility.yul\":11394:11616   */\n    tag_54:\n        /* \"#utility.yul\":11487:11491   */\n      0x00\n        /* \"#utility.yul\":11525:11527   */\n      0x20\n        /* \"#utility.yul\":11514:11523   */\n      dup3\n        /* \"#utility.yul\":11510:11528   */\n      add\n        /* \"#utility.yul\":11502:11528   */\n      swap1\n      pop\n        /* \"#utility.yul\":11538:11609   */\n      tag_479\n        /* \"#utility.yul\":11606:11607   */\n      0x00\n        /* \"#utility.yul\":11595:11604   */\n      dup4\n        /* \"#utility.yul\":11591:11608   */\n      add\n        /* \"#utility.yul\":11582:11588   */\n      dup5\n        /* \"#utility.yul\":11538:11609   */\n      tag_464\n      jump\t// in\n    tag_479:\n        /* \"#utility.yul\":11394:11616   */\n      swap3\n      swap2\n      pop\n      pop\n      jump\t// out\n        /* \"#utility.yul\":11622:12215   */\n    tag_257:\n        /* \"#utility.yul\":11821:11825   */\n      0x00\n        /* \"#utility.yul\":11859:11861   */\n      0x60\n        /* \"#utility.yul\":11848:11857   */\n      dup3\n        /* \"#utility.yul\":11844:11862   */\n      add\n        /* \"#utility.yul\":11836:11862   */\n      swap1\n      pop\n        /* \"#utility.yul\":11872:11943   */\n      tag_481\n        /* \"#utility.yul\":11940:11941   */\n      0x00\n        /* \"#utility.yul\":11929:11938   */\n      dup4\n        /* \"#utility.yul\":11925:11942   */\n      add\n        /* \"#utility.yul\":11916:11922   */\n      dup7\n        /* \"#utility.yul\":11872:11943   */\n      tag_464\n      jump\t// in\n    tag_481:\n        /* \"#utility.yul\":11990:11999   */\n      dup2\n        /* \"#utility.yul\":11984:11988   */\n      dup2\n        /* \"#utility.yul\":11980:12000   */\n      sub\n        /* \"#utility.yul\":11975:11977   */\n      0x20\n        /* \"#utility.yul\":11964:11973   */\n      dup4\n        /* \"#utility.yul\":11960:11978   */\n      add\n        /* \"#utility.yul\":11953:12001   */\n      mstore\n        /* \"#utility.yul\":12018:12126   */\n      tag_482\n        /* \"#utility.yul\":12121:12125   */\n      dup2\n        /* \"#utility.yul\":12112:12118   */\n      dup6\n        /* \"#utility.yul\":12018:12126   */\n      tag_459\n      jump\t// in\n    tag_482:\n        /* \"#utility.yul\":12010:12126   */\n      swap1\n      pop\n        /* \"#utility.yul\":12136:12208   */\n      tag_483\n        /* \"#utility.yul\":12204:12206   */\n      0x40\n        /* \"#utility.yul\":12193:12202   */\n      dup4\n        /* \"#utility.yul\":12189:12207   */\n      add\n        /* \"#utility.yul\":12180:12186   */\n      dup5\n        /* \"#utility.yul\":12136:12208   */\n      tag_464\n      jump\t// in\n    tag_483:\n        /* \"#utility.yul\":11622:12215   */\n      swap5\n      swap4\n      pop\n      pop\n      pop\n      pop\n      jump\t// out\n        /* \"#utility.yul\":12221:12798   */\n    tag_306:\n        /* \"#utility.yul\":12410:12414   */\n      0x00\n        /* \"#utility.yul\":12448:12451   */\n      0x80\n        /* \"#utility.yul\":12437:12446   */\n      dup3\n        /* \"#utility.yul\":12433:12452   */\n      add\n        /* \"#utility.yul\":12425:12452   */\n      swap1\n      pop\n        /* \"#utility.yul\":12462:12533   */\n      tag_485\n        /* \"#utility.yul\":12530:12531   */\n      0x00\n        /* \"#utility.yul\":12519:12528   */\n      dup4\n        /* \"#utility.yul\":12515:12532   */\n      add\n        /* \"#utility.yul\":12506:12512   */\n      dup8\n        /* \"#utility.yul\":12462:12533   */\n      tag_464\n      jump\t// in\n    tag_485:\n        /* \"#utility.yul\":12543:12615   */\n      tag_486\n        /* \"#utility.yul\":12611:12613   */\n      0x20\n        /* \"#utility.yul\":12600:12609   */\n      dup4\n        /* \"#utility.yul\":12596:12614   */\n      add\n        /* \"#utility.yul\":12587:12593   */\n      dup7\n        /* \"#utility.yul\":12543:12615   */\n      tag_464\n      jump\t// in\n    tag_486:\n        /* \"#utility.yul\":12625:12703   */\n      tag_487\n        /* \"#utility.yul\":12699:12701   */\n      0x40\n        /* \"#utility.yul\":12688:12697   */\n      dup4\n        /* \"#utility.yul\":12684:12702   */\n      add\n        /* \"#utility.yul\":12675:12681   */\n      dup6\n        /* \"#utility.yul\":12625:12703   */\n      tag_431\n      jump\t// in\n    tag_487:\n        /* \"#utility.yul\":12713:12791   */\n      tag_488\n        /* \"#utility.yul\":12787:12789   */\n      0x60\n        /* \"#utility.yul\":12776:12785   */\n      dup4\n        /* \"#utility.yul\":12772:12790   */\n      add\n        /* \"#utility.yul\":12763:12769   */\n      dup5\n        /* \"#utility.yul\":12713:12791   */\n      tag_431\n      jump\t// in\n    tag_488:\n        /* \"#utility.yul\":12221:12798   */\n      swap6\n      swap5\n      pop\n      pop\n      pop\n      pop\n      pop\n      jump\t// out\n        /* \"#utility.yul\":12804:13659   */\n    tag_132:\n        /* \"#utility.yul\":13081:13085   */\n      0x00\n        /* \"#utility.yul\":13119:13122   */\n      0x80\n        /* \"#utility.yul\":13108:13117   */\n      dup3\n        /* \"#utility.yul\":13104:13123   */\n      add\n        /* \"#utility.yul\":13096:13123   */\n      swap1\n      pop\n        /* \"#utility.yul\":13133:13204   */\n      tag_490\n        /* \"#utility.yul\":13201:13202   */\n      0x00\n        /* \"#utility.yul\":13190:13199   */\n      dup4\n        /* \"#utility.yul\":13186:13203   */\n      add\n        /* \"#utility.yul\":13177:13183   */\n      dup8\n        /* \"#utility.yul\":13133:13204   */\n      tag_464\n      jump\t// in\n    tag_490:\n        /* \"#utility.yul\":13214:13286   */\n      tag_491\n        /* \"#utility.yul\":13282:13284   */\n      0x20\n        /* \"#utility.yul\":13271:13280   */\n      dup4\n        /* \"#utility.yul\":13267:13285   */\n      add\n        /* \"#utility.yul\":13258:13264   */\n      dup7\n        /* \"#utility.yul\":13214:13286   */\n      tag_464\n      jump\t// in\n    tag_491:\n        /* \"#utility.yul\":13333:13342   */\n      dup2\n        /* \"#utility.yul\":13327:13331   */\n      dup2\n        /* \"#utility.yul\":13323:13343   */\n      sub\n        /* \"#utility.yul\":13318:13320   */\n      0x40\n        /* \"#utility.yul\":13307:13316   */\n      dup4\n        /* \"#utility.yul\":13303:13321   */\n      add\n        /* \"#utility.yul\":13296:13344   */\n      mstore\n        /* \"#utility.yul\":13361:13469   */\n      tag_492\n        /* \"#utility.yul\":13464:13468   */\n      dup2\n        /* \"#utility.yul\":13455:13461   */\n      dup6\n        /* \"#utility.yul\":13361:13469   */\n      tag_459\n      jump\t// in\n    tag_492:\n        /* \"#utility.yul\":13353:13469   */\n      swap1\n      pop\n        /* \"#utility.yul\":13516:13525   */\n      dup2\n        /* \"#utility.yul\":13510:13514   */\n      dup2\n        /* \"#utility.yul\":13506:13526   */\n      sub\n        /* \"#utility.yul\":13501:13503   */\n      0x60\n        /* \"#utility.yul\":13490:13499   */\n      dup4\n        /* \"#utility.yul\":13486:13504   */\n      add\n        /* \"#utility.yul\":13479:13527   */\n      mstore\n        /* \"#utility.yul\":13544:13652   */\n      tag_493\n        /* \"#utility.yul\":13647:13651   */\n      dup2\n        /* \"#utility.yul\":13638:13644   */\n      dup5\n        /* \"#utility.yul\":13544:13652   */\n      tag_459\n      jump\t// in\n    tag_493:\n        /* \"#utility.yul\":13536:13652   */\n      swap1\n      pop\n        /* \"#utility.yul\":12804:13659   */\n      swap6\n      swap5\n      pop\n      pop\n      pop\n      pop\n      pop\n      jump\t// out\n        /* \"#utility.yul\":13665:14369   */\n    tag_242:\n        /* \"#utility.yul\":13892:13896   */\n      0x00\n        /* \"#utility.yul\":13930:13933   */\n      0x80\n        /* \"#utility.yul\":13919:13928   */\n      dup3\n        /* \"#utility.yul\":13915:13934   */\n      add\n        /* \"#utility.yul\":13907:13934   */\n      swap1\n      pop\n        /* \"#utility.yul\":13944:14015   */\n      tag_495\n        /* \"#utility.yul\":14012:14013   */\n      0x00\n        /* \"#utility.yul\":14001:14010   */\n      dup4\n        /* \"#utility.yul\":13997:14014   */\n      add\n        /* \"#utility.yul\":13988:13994   */\n      dup8\n        /* \"#utility.yul\":13944:14015   */\n      tag_464\n      jump\t// in\n    tag_495:\n        /* \"#utility.yul\":14025:14097   */\n      tag_496\n        /* \"#utility.yul\":14093:14095   */\n      0x20\n        /* \"#utility.yul\":14082:14091   */\n      dup4\n        /* \"#utility.yul\":14078:14096   */\n      add\n        /* \"#utility.yul\":14069:14075   */\n      dup7\n        /* \"#utility.yul\":14025:14097   */\n      tag_464\n      jump\t// in\n    tag_496:\n        /* \"#utility.yul\":14144:14153   */\n      dup2\n        /* \"#utility.yul\":14138:14142   */\n      dup2\n        /* \"#utility.yul\":14134:14154   */\n      sub\n        /* \"#utility.yul\":14129:14131   */\n      0x40\n        /* \"#utility.yul\":14118:14127   */\n      dup4\n        /* \"#utility.yul\":14114:14132   */\n      add\n        /* \"#utility.yul\":14107:14155   */\n      mstore\n        /* \"#utility.yul\":14172:14280   */\n      tag_497\n        /* \"#utility.yul\":14275:14279   */\n      dup2\n        /* \"#utility.yul\":14266:14272   */\n      dup6\n        /* \"#utility.yul\":14172:14280   */\n      tag_459\n      jump\t// in\n    tag_497:\n        /* \"#utility.yul\":14164:14280   */\n      swap1\n      pop\n        /* \"#utility.yul\":14290:14362   */\n      tag_498\n        /* \"#utility.yul\":14358:14360   */\n      0x60\n        /* \"#utility.yul\":14347:14356   */\n      dup4\n        /* \"#utility.yul\":14343:14361   */\n      add\n        /* \"#utility.yul\":14334:14340   */\n      dup5\n        /* \"#utility.yul\":14290:14362   */\n      tag_464\n      jump\t// in\n    tag_498:\n        /* \"#utility.yul\":13665:14369   */\n      swap6\n      swap5\n      pop\n      pop\n      pop\n      pop\n      pop\n      jump\t// out\n        /* \"#utility.yul\":14375:14504   */\n    tag_347:\n        /* \"#utility.yul\":14409:14415   */\n      0x00\n        /* \"#utility.yul\":14436:14456   */\n      tag_500\n      tag_501\n      jump\t// in\n    tag_500:\n        /* \"#utility.yul\":14426:14456   */\n      swap1\n      pop\n        /* \"#utility.yul\":14465:14498   */\n      tag_502\n        /* \"#utility.yul\":14493:14497   */\n      dup3\n        /* \"#utility.yul\":14485:14491   */\n      dup3\n        /* \"#utility.yul\":14465:14498   */\n      tag_503\n      jump\t// in\n    tag_502:\n        /* \"#utility.yul\":14375:14504   */\n      swap2\n      swap1\n      pop\n      jump\t// out\n        /* \"#utility.yul\":14510:14585   */\n    tag_501:\n        /* \"#utility.yul\":14543:14549   */\n      0x00\n        /* \"#utility.yul\":14576:14578   */\n      0x40\n        /* \"#utility.yul\":14570:14579   */\n      mload\n        /* \"#utility.yul\":14560:14579   */\n      swap1\n      pop\n        /* \"#utility.yul\":14510:14585   */\n      swap1\n      jump\t// out\n        /* \"#utility.yul\":14591:14899   */\n    tag_346:\n        /* \"#utility.yul\":14653:14657   */\n      0x00\n        /* \"#utility.yul\":14743:14761   */\n      0xffffffffffffffff\n        /* \"#utility.yul\":14735:14741   */\n      dup3\n        /* \"#utility.yul\":14732:14762   */\n      gt\n        /* \"#utility.yul\":14729:14785   */\n      iszero\n      tag_506\n      jumpi\n        /* \"#utility.yul\":14765:14783   */\n      tag_507\n      tag_508\n      jump\t// in\n    tag_507:\n        /* \"#utility.yul\":14729:14785   */\n    tag_506:\n        /* \"#utility.yul\":14803:14832   */\n      tag_509\n        /* \"#utility.yul\":14825:14831   */\n      dup3\n        /* \"#utility.yul\":14803:14832   */\n      tag_443\n      jump\t// in\n    tag_509:\n        /* \"#utility.yul\":14795:14832   */\n      swap1\n      pop\n        /* \"#utility.yul\":14887:14891   */\n      0x20\n        /* \"#utility.yul\":14881:14885   */\n      dup2\n        /* \"#utility.yul\":14877:14892   */\n      add\n        /* \"#utility.yul\":14869:14892   */\n      swap1\n      pop\n        /* \"#utility.yul\":14591:14899   */\n      swap2\n      swap1\n      pop\n      jump\t// out\n        /* \"#utility.yul\":14905:15062   */\n    tag_416:\n        /* \"#utility.yul\":14997:15001   */\n      0x00\n        /* \"#utility.yul\":15020:15023   */\n      dup2\n        /* \"#utility.yul\":15012:15023   */\n      swap1\n      pop\n        /* \"#utility.yul\":15050:15054   */\n      0x20\n        /* \"#utility.yul\":15045:15048   */\n      dup3\n        /* \"#utility.yul\":15041:15055   */\n      add\n        /* \"#utility.yul\":15033:15055   */\n      swap1\n      pop\n        /* \"#utility.yul\":14905:15062   */\n      swap2\n      swap1\n      pop\n      jump\t// out\n        /* \"#utility.yul\":15068:15207   */\n    tag_412:\n        /* \"#utility.yul\":15160:15166   */\n      0x00\n        /* \"#utility.yul\":15194:15199   */\n      dup2\n        /* \"#utility.yul\":15188:15200   */\n      mload\n        /* \"#utility.yul\":15178:15200   */\n      swap1\n      pop\n        /* \"#utility.yul\":15068:15207   */\n      swap2\n      swap1\n      pop\n      jump\t// out\n        /* \"#utility.yul\":15213:15312   */\n    tag_437:\n        /* \"#utility.yul\":15265:15271   */\n      0x00\n        /* \"#utility.yul\":15299:15304   */\n      dup2\n        /* \"#utility.yul\":15293:15305   */\n      mload\n        /* \"#utility.yul\":15283:15305   */\n      swap1\n      pop\n        /* \"#utility.yul\":15213:15312   */\n      swap2\n      swap1\n      pop\n      jump\t// out\n        /* \"#utility.yul\":15318:15456   */\n    tag_422:\n        /* \"#utility.yul\":15413:15417   */\n      0x00\n        /* \"#utility.yul\":15445:15449   */\n      0x20\n        /* \"#utility.yul\":15440:15443   */\n      dup3\n        /* \"#utility.yul\":15436:15450   */\n      add\n        /* \"#utility.yul\":15428:15450   */\n      swap1\n      pop\n        /* \"#utility.yul\":15318:15456   */\n      swap2\n      swap1\n      pop\n      jump\t// out\n        /* \"#utility.yul\":15462:15671   */\n    tag_414:\n        /* \"#utility.yul\":15586:15597   */\n      0x00\n        /* \"#utility.yul\":15620:15626   */\n      dup3\n        /* \"#utility.yul\":15615:15618   */\n      dup3\n        /* \"#utility.yul\":15608:15627   */\n      mstore\n        /* \"#utility.yul\":15660:15664   */\n      0x20\n        /* \"#utility.yul\":15655:15658   */\n      dup3\n        /* \"#utility.yul\":15651:15665   */\n      add\n        /* \"#utility.yul\":15636:15665   */\n      swap1\n      pop\n        /* \"#utility.yul\":15462:15671   */\n      swap3\n      swap2\n      pop\n      pop\n      jump\t// out\n        /* \"#utility.yul\":15677:15836   */\n    tag_439:\n        /* \"#utility.yul\":15751:15762   */\n      0x00\n        /* \"#utility.yul\":15785:15791   */\n      dup3\n        /* \"#utility.yul\":15780:15783   */\n      dup3\n        /* \"#utility.yul\":15773:15792   */\n      mstore\n        /* \"#utility.yul\":15825:15829   */\n      0x20\n        /* \"#utility.yul\":15820:15823   */\n      dup3\n        /* \"#utility.yul\":15816:15830   */\n      add\n        /* \"#utility.yul\":15801:15830   */\n      swap1\n      pop\n        /* \"#utility.yul\":15677:15836   */\n      swap3\n      swap2\n      pop\n      pop\n      jump\t// out\n        /* \"#utility.yul\":15842:16011   */\n    tag_447:\n        /* \"#utility.yul\":15926:15937   */\n      0x00\n        /* \"#utility.yul\":15960:15966   */\n      dup3\n        /* \"#utility.yul\":15955:15958   */\n      dup3\n        /* \"#utility.yul\":15948:15967   */\n      mstore\n        /* \"#utility.yul\":16000:16004   */\n      0x20\n        /* \"#utility.yul\":15995:15998   */\n      dup3\n        /* \"#utility.yul\":15991:16005   */\n      add\n        /* \"#utility.yul\":15976:16005   */\n      swap1\n      pop\n        /* \"#utility.yul\":15842:16011   */\n      swap3\n      swap2\n      pop\n      pop\n      jump\t// out\n        /* \"#utility.yul\":16017:16322   */\n    tag_218:\n        /* \"#utility.yul\":16057:16060   */\n      0x00\n        /* \"#utility.yul\":16076:16096   */\n      tag_518\n        /* \"#utility.yul\":16094:16095   */\n      dup3\n        /* \"#utility.yul\":16076:16096   */\n      tag_467\n      jump\t// in\n    tag_518:\n        /* \"#utility.yul\":16071:16096   */\n      swap2\n      pop\n        /* \"#utility.yul\":16110:16130   */\n      tag_519\n        /* \"#utility.yul\":16128:16129   */\n      dup4\n        /* \"#utility.yul\":16110:16130   */\n      tag_467\n      jump\t// in\n    tag_519:\n        /* \"#utility.yul\":16105:16130   */\n      swap3\n      pop\n        /* \"#utility.yul\":16264:16265   */\n      dup3\n        /* \"#utility.yul\":16196:16262   */\n      0xffffffffffffffffffffffffffffffffffffffffffffffffffffffffffffffff\n        /* \"#utility.yul\":16192:16266   */\n      sub\n        /* \"#utility.yul\":16189:16190   */\n      dup3\n        /* \"#utility.yul\":16186:16267   */\n      gt\n        /* \"#utility.yul\":16183:16290   */\n      iszero\n      tag_520\n      jumpi\n        /* \"#utility.yul\":16270:16288   */\n      tag_521\n      tag_522\n      jump\t// in\n    tag_521:\n        /* \"#utility.yul\":16183:16290   */\n    tag_520:\n        /* \"#utility.yul\":16314:16315   */\n      dup3\n        /* \"#utility.yul\":16311:16312   */\n      dup3\n        /* \"#utility.yul\":16307:16316   */\n      add\n        /* \"#utility.yul\":16300:16316   */\n      swap1\n      pop\n        /* \"#utility.yul\":16017:16322   */\n      swap3\n      swap2\n      pop\n      pop\n      jump\t// out\n        /* \"#utility.yul\":16328:16519   */\n    tag_216:\n        /* \"#utility.yul\":16368:16372   */\n      0x00\n        /* \"#utility.yul\":16388:16408   */\n      tag_524\n        /* \"#utility.yul\":16406:16407   */\n      dup3\n        /* \"#utility.yul\":16388:16408   */\n      tag_467\n      jump\t// in\n    tag_524:\n        /* \"#utility.yul\":16383:16408   */\n      swap2\n      pop\n        /* \"#utility.yul\":16422:16442   */\n      tag_525\n        /* \"#utility.yul\":16440:16441   */\n      dup4\n        /* \"#utility.yul\":16422:16442   */\n      tag_467\n      jump\t// in\n    tag_525:\n        /* \"#utility.yul\":16417:16442   */\n      swap3\n      pop\n        /* \"#utility.yul\":16461:16462   */\n      dup3\n        /* \"#utility.yul\":16458:16459   */\n      dup3\n        /* \"#utility.yul\":16455:16463   */\n      lt\n        /* \"#utility.yul\":16452:16486   */\n      iszero\n      tag_526\n      jumpi\n        /* \"#utility.yul\":16466:16484   */\n      tag_527\n      tag_522\n      jump\t// in\n    tag_527:\n        /* \"#utility.yul\":16452:16486   */\n    tag_526:\n        /* \"#utility.yul\":16511:16512   */\n      dup3\n        /* \"#utility.yul\":16508:16509   */\n      dup3\n        /* \"#utility.yul\":16504:16513   */\n      sub\n        /* \"#utility.yul\":16496:16513   */\n      swap1\n      pop\n        /* \"#utility.yul\":16328:16519   */\n      swap3\n      swap2\n      pop\n      pop\n      jump\t// out\n        /* \"#utility.yul\":16525:16615   */\n    tag_426:\n        /* \"#utility.yul\":16559:16566   */\n      0x00\n        /* \"#utility.yul\":16602:16607   */\n      dup2\n        /* \"#utility.yul\":16595:16608   */\n      iszero\n        /* \"#utility.yul\":16588:16609   */\n      iszero\n        /* \"#utility.yul\":16577:16609   */\n      swap1\n      pop\n        /* \"#utility.yul\":16525:16615   */\n      swap2\n      swap1\n      pop\n      jump\t// out\n        /* \"#utility.yul\":16621:16748   */\n    tag_529:\n        /* \"#utility.yul\":16666:16673   */\n      0x00\n        /* \"#utility.yul\":16695:16700   */\n      dup2\n        /* \"#utility.yul\":16684:16700   */\n      swap1\n      pop\n        /* \"#utility.yul\":16701:16742   */\n      tag_531\n        /* \"#utility.yul\":16736:16741   */\n      dup3\n        /* \"#utility.yul\":16701:16742   */\n      tag_532\n      jump\t// in\n    tag_531:\n        /* \"#utility.yul\":16621:16748   */\n      swap2\n      swap1\n      pop\n      jump\t// out\n        /* \"#utility.yul\":16754:16831   */\n    tag_467:\n        /* \"#utility.yul\":16791:16798   */\n      0x00\n        /* \"#utility.yul\":16820:16825   */\n      dup2\n        /* \"#utility.yul\":16809:16825   */\n      swap1\n      pop\n        /* \"#utility.yul\":16754:16831   */\n      swap2\n      swap1\n      pop\n      jump\t// out\n        /* \"#utility.yul\":16837:16923   */\n    tag_534:\n        /* \"#utility.yul\":16872:16879   */\n      0x00\n        /* \"#utility.yul\":16912:16916   */\n      0xff\n        /* \"#utility.yul\":16905:16910   */\n      dup3\n        /* \"#utility.yul\":16901:16917   */\n      and\n        /* \"#utility.yul\":16890:16917   */\n      swap1\n      pop\n        /* \"#utility.yul\":16837:16923   */\n      swap2\n      swap1\n      pop\n      jump\t// out\n        /* \"#utility.yul\":16929:17056   */\n    tag_430:\n        /* \"#utility.yul\":16985:16994   */\n      0x00\n        /* \"#utility.yul\":17018:17050   */\n      tag_537\n        /* \"#utility.yul\":17044:17049   */\n      dup3\n        /* \"#utility.yul\":17018:17050   */\n      tag_529\n      jump\t// in\n    tag_537:\n        /* \"#utility.yul\":17005:17050   */\n      swap1\n      pop\n        /* \"#utility.yul\":16929:17056   */\n      swap2\n      swap1\n      pop\n      jump\t// out\n        /* \"#utility.yul\":17062:17216   */\n    tag_352:\n        /* \"#utility.yul\":17146:17152   */\n      dup3\n        /* \"#utility.yul\":17141:17144   */\n      dup2\n        /* \"#utility.yul\":17136:17139   */\n      dup4\n        /* \"#utility.yul\":17123:17153   */\n      calldatacopy\n        /* \"#utility.yul\":17208:17209   */\n      0x00\n        /* \"#utility.yul\":17199:17205   */\n      dup4\n        /* \"#utility.yul\":17194:17197   */\n      dup4\n        /* \"#utility.yul\":17190:17206   */\n      add\n        /* \"#utility.yul\":17183:17210   */\n      mstore\n        /* \"#utility.yul\":17062:17216   */\n      pop\n      pop\n      pop\n      jump\t// out\n        /* \"#utility.yul\":17222:17529   */\n    tag_441:\n        /* \"#utility.yul\":17290:17291   */\n      0x00\n        /* \"#utility.yul\":17300:17413   */\n    tag_540:\n        /* \"#utility.yul\":17314:17320   */\n      dup4\n        /* \"#utility.yul\":17311:17312   */\n      dup2\n        /* \"#utility.yul\":17308:17321   */\n      lt\n        /* \"#utility.yul\":17300:17413   */\n      iszero\n      tag_542\n      jumpi\n        /* \"#utility.yul\":17399:17400   */\n      dup1\n        /* \"#utility.yul\":17394:17397   */\n      dup3\n        /* \"#utility.yul\":17390:17401   */\n      add\n        /* \"#utility.yul\":17384:17402   */\n      mload\n        /* \"#utility.yul\":17380:17381   */\n      dup2\n        /* \"#utility.yul\":17375:17378   */\n      dup5\n        /* \"#utility.yul\":17371:17382   */\n      add\n        /* \"#utility.yul\":17364:17403   */\n      mstore\n        /* \"#utility.yul\":17336:17338   */\n      0x20\n        /* \"#utility.yul\":17333:17334   */\n      dup2\n        /* \"#utility.yul\":17329:17339   */\n      add\n        /* \"#utility.yul\":17324:17339   */\n      swap1\n      pop\n        /* \"#utility.yul\":17300:17413   */\n      jump(tag_540)\n    tag_542:\n        /* \"#utility.yul\":17431:17437   */\n      dup4\n        /* \"#utility.yul\":17428:17429   */\n      dup2\n        /* \"#utility.yul\":17425:17438   */\n      gt\n        /* \"#utility.yul\":17422:17523   */\n      iszero\n      tag_543\n      jumpi\n        /* \"#utility.yul\":17511:17512   */\n      0x00\n        /* \"#utility.yul\":17502:17508   */\n      dup5\n        /* \"#utility.yul\":17497:17500   */\n      dup5\n        /* \"#utility.yul\":17493:17509   */\n      add\n        /* \"#utility.yul\":17486:17513   */\n      mstore\n        /* \"#utility.yul\":17422:17523   */\n    tag_543:\n        /* \"#utility.yul\":17271:17529   */\n      pop\n        /* \"#utility.yul\":17222:17529   */\n      pop\n      pop\n      pop\n      jump\t// out\n        /* \"#utility.yul\":17535:17855   */\n    tag_109:\n        /* \"#utility.yul\":17579:17585   */\n      0x00\n        /* \"#utility.yul\":17616:17617   */\n      0x02\n        /* \"#utility.yul\":17610:17614   */\n      dup3\n        /* \"#utility.yul\":17606:17618   */\n      div\n        /* \"#utility.yul\":17596:17618   */\n      swap1\n      pop\n        /* \"#utility.yul\":17663:17664   */\n      0x01\n        /* \"#utility.yul\":17657:17661   */\n      dup3\n        /* \"#utility.yul\":17653:17665   */\n      and\n        /* \"#utility.yul\":17684:17702   */\n      dup1\n        /* \"#utility.yul\":17674:17755   */\n      tag_545\n      jumpi\n        /* \"#utility.yul\":17740:17744   */\n      0x7f\n        /* \"#utility.yul\":17732:17738   */\n      dup3\n        /* \"#utility.yul\":17728:17745   */\n      and\n        /* \"#utility.yul\":17718:17745   */\n      swap2\n      pop\n        /* \"#utility.yul\":17674:17755   */\n    tag_545:\n        /* \"#utility.yul\":17802:17804   */\n      0x20\n        /* \"#utility.yul\":17794:17800   */\n      dup3\n        /* \"#utility.yul\":17791:17805   */\n      lt\n        /* \"#utility.yul\":17771:17789   */\n      dup2\n        /* \"#utility.yul\":17768:17806   */\n      eq\n        /* \"#utility.yul\":17765:17849   */\n      iszero\n      tag_546\n      jumpi\n        /* \"#utility.yul\":17821:17839   */\n      tag_547\n      tag_548\n      jump\t// in\n    tag_547:\n        /* \"#utility.yul\":17765:17849   */\n    tag_546:\n        /* \"#utility.yul\":17586:17855   */\n      pop\n        /* \"#utility.yul\":17535:17855   */\n      swap2\n      swap1\n      pop\n      jump\t// out\n        /* \"#utility.yul\":17861:18142   */\n    tag_503:\n        /* \"#utility.yul\":17944:17971   */\n      tag_550\n        /* \"#utility.yul\":17966:17970   */\n      dup3\n        /* \"#utility.yul\":17944:17971   */\n      tag_443\n      jump\t// in\n    tag_550:\n        /* \"#utility.yul\":17936:17942   */\n      dup2\n        /* \"#utility.yul\":17932:17972   */\n      add\n        /* \"#utility.yul\":18074:18080   */\n      dup2\n        /* \"#utility.yul\":18062:18072   */\n      dup2\n        /* \"#utility.yul\":18059:18081   */\n      lt\n        /* \"#utility.yul\":18038:18056   */\n      0xffffffffffffffff\n        /* \"#utility.yul\":18026:18036   */\n      dup3\n        /* \"#utility.yul\":18023:18057   */\n      gt\n        /* \"#utility.yul\":18020:18082   */\n      or\n        /* \"#utility.yul\":18017:18105   */\n      iszero\n      tag_551\n      jumpi\n        /* \"#utility.yul\":18085:18103   */\n      tag_552\n      tag_508\n      jump\t// in\n    tag_552:\n        /* \"#utility.yul\":18017:18105   */\n    tag_551:\n        /* \"#utility.yul\":18125:18135   */\n      dup1\n        /* \"#utility.yul\":18121:18123   */\n      0x40\n        /* \"#utility.yul\":18114:18136   */\n      mstore\n        /* \"#utility.yul\":17904:18142   */\n      pop\n        /* \"#utility.yul\":17861:18142   */\n      pop\n      pop\n      jump\t// out\n        /* \"#utility.yul\":18148:18381   */\n    tag_233:\n        /* \"#utility.yul\":18187:18190   */\n      0x00\n        /* \"#utility.yul\":18210:18234   */\n      tag_554\n        /* \"#utility.yul\":18228:18233   */\n      dup3\n        /* \"#utility.yul\":18210:18234   */\n      tag_467\n      jump\t// in\n    tag_554:\n        /* \"#utility.yul\":18201:18234   */\n      swap2\n      pop\n        /* \"#utility.yul\":18256:18322   */\n      0xffffffffffffffffffffffffffffffffffffffffffffffffffffffffffffffff\n        /* \"#utility.yul\":18249:18254   */\n      dup3\n        /* \"#utility.yul\":18246:18323   */\n      eq\n        /* \"#utility.yul\":18243:18346   */\n      iszero\n      tag_555\n      jumpi\n        /* \"#utility.yul\":18326:18344   */\n      tag_556\n      tag_522\n      jump\t// in\n    tag_556:\n        /* \"#utility.yul\":18243:18346   */\n    tag_555:\n        /* \"#utility.yul\":18373:18374   */\n      0x01\n        /* \"#utility.yul\":18366:18371   */\n      dup3\n        /* \"#utility.yul\":18362:18375   */\n      add\n        /* \"#utility.yul\":18355:18375   */\n      swap1\n      pop\n        /* \"#utility.yul\":18148:18381   */\n      swap2\n      swap1\n      pop\n      jump\t// out\n        /* \"#utility.yul\":18387:18567   */\n    tag_522:\n        /* \"#utility.yul\":18435:18512   */\n      0x4e487b7100000000000000000000000000000000000000000000000000000000\n        /* \"#utility.yul\":18432:18433   */\n      0x00\n        /* \"#utility.yul\":18425:18513   */\n      mstore\n        /* \"#utility.yul\":18532:18536   */\n      0x11\n        /* \"#utility.yul\":18529:18530   */\n      0x04\n        /* \"#utility.yul\":18522:18537   */\n      mstore\n        /* \"#utility.yul\":18556:18560   */\n      0x24\n        /* \"#utility.yul\":18553:18554   */\n      0x00\n        /* \"#utility.yul\":18546:18561   */\n      revert\n        /* \"#utility.yul\":18573:18753   */\n    tag_103:\n        /* \"#utility.yul\":18621:18698   */\n      0x4e487b7100000000000000000000000000000000000000000000000000000000\n        /* \"#utility.yul\":18618:18619   */\n      0x00\n        /* \"#utility.yul\":18611:18699   */\n      mstore\n        /* \"#utility.yul\":18718:18722   */\n      0x21\n        /* \"#utility.yul\":18715:18716   */\n      0x04\n        /* \"#utility.yul\":18708:18723   */\n      mstore\n        /* \"#utility.yul\":18742:18746   */\n      0x24\n        /* \"#utility.yul\":18739:18740   */\n      0x00\n        /* \"#utility.yul\":18732:18747   */\n      revert\n        /* \"#utility.yul\":18759:18939   */\n    tag_548:\n        /* \"#utility.yul\":18807:18884   */\n      0x4e487b7100000000000000000000000000000000000000000000000000000000\n        /* \"#utility.yul\":18804:18805   */\n      0x00\n        /* \"#utility.yul\":18797:18885   */\n      mstore\n        /* \"#utility.yul\":18904:18908   */\n      0x22\n        /* \"#utility.yul\":18901:18902   */\n      0x04\n        /* \"#utility.yul\":18894:18909   */\n      mstore\n        /* \"#utility.yul\":18928:18932   */\n      0x24\n        /* \"#utility.yul\":18925:18926   */\n      0x00\n        /* \"#utility.yul\":18918:18933   */\n      revert\n        /* \"#utility.yul\":18945:19125   */\n    tag_236:\n        /* \"#utility.yul\":18993:19070   */\n      0x4e487b7100000000000000000000000000000000000000000000000000000000\n        /* \"#utility.yul\":18990:18991   */\n      0x00\n        /* \"#utility.yul\":18983:19071   */\n      mstore\n        /* \"#utility.yul\":19090:19094   */\n      0x31\n        /* \"#utility.yul\":19087:19088   */\n      0x04\n        /* \"#utility.yul\":19080:19095   */\n      mstore\n        /* \"#utility.yul\":19114:19118   */\n      0x24\n        /* \"#utility.yul\":19111:19112   */\n      0x00\n        /* \"#utility.yul\":19104:19119   */\n      revert\n        /* \"#utility.yul\":19131:19311   */\n    tag_106:\n        /* \"#utility.yul\":19179:19256   */\n      0x4e487b7100000000000000000000000000000000000000000000000000000000\n        /* \"#utility.yul\":19176:19177   */\n      0x00\n        /* \"#utility.yul\":19169:19257   */\n      mstore\n        /* \"#utility.yul\":19276:19280   */\n      0x32\n        /* \"#utility.yul\":19273:19274   */\n      0x04\n        /* \"#utility.yul\":19266:19281   */\n      mstore\n        /* \"#utility.yul\":19300:19304   */\n      0x24\n        /* \"#utility.yul\":19297:19298   */\n      0x00\n        /* \"#utility.yul\":19290:19305   */\n      revert\n        /* \"#utility.yul\":19317:19497   */\n    tag_508:\n        /* \"#utility.yul\":19365:19442   */\n      0x4e487b7100000000000000000000000000000000000000000000000000000000\n        /* \"#utility.yul\":19362:19363   */\n      0x00\n        /* \"#utility.yul\":19355:19443   */\n      mstore\n        /* \"#utility.yul\":19462:19466   */\n      0x41\n        /* \"#utility.yul\":19459:19460   */\n      0x04\n        /* \"#utility.yul\":19452:19467   */\n      mstore\n        /* \"#utility.yul\":19486:19490   */\n      0x24\n        /* \"#utility.yul\":19483:19484   */\n      0x00\n        /* \"#utility.yul\":19476:19491   */\n      revert\n        /* \"#utility.yul\":19503:19620   */\n    tag_357:\n        /* \"#utility.yul\":19612:19613   */\n      0x00\n        /* \"#utility.yul\":19609:19610   */\n      dup1\n        /* \"#utility.yul\":19602:19614   */\n      revert\n        /* \"#utility.yul\":19626:19743   */\n    tag_350:\n        /* \"#utility.yul\":19735:19736   */\n      0x00\n        /* \"#utility.yul\":19732:19733   */\n      dup1\n        /* \"#utility.yul\":19725:19737   */\n      revert\n        /* \"#utility.yul\":19749:19866   */\n    tag_378:\n        /* \"#utility.yul\":19858:19859   */\n      0x00\n        /* \"#utility.yul\":19855:19856   */\n      dup1\n        /* \"#utility.yul\":19848:19860   */\n      revert\n        /* \"#utility.yul\":19872:19989   */\n    tag_370:\n        /* \"#utility.yul\":19981:19982   */\n      0x00\n        /* \"#utility.yul\":19978:19979   */\n      dup1\n        /* \"#utility.yul\":19971:19983   */\n      revert\n        /* \"#utility.yul\":19995:20097   */\n    tag_443:\n        /* \"#utility.yul\":20036:20042   */\n      0x00\n        /* \"#utility.yul\":20087:20089   */\n      0x1f\n        /* \"#utility.yul\":20083:20090   */\n      not\n        /* \"#utility.yul\":20078:20080   */\n      0x1f\n        /* \"#utility.yul\":20071:20076   */\n      dup4\n        /* \"#utility.yul\":20067:20081   */\n      add\n        /* \"#utility.yul\":20063:20091   */\n      and\n        /* \"#utility.yul\":20053:20091   */\n      swap1\n      pop\n        /* \"#utility.yul\":19995:20097   */\n      swap2\n      swap1\n      pop\n      jump\t// out\n        /* \"#utility.yul\":20103:20282   */\n    tag_449:\n        /* \"#utility.yul\":20243:20274   */\n      0x4d696c6573746f6e65206e756d626572206f7574206f662072616e6765000000\n        /* \"#utility.yul\":20239:20240   */\n      0x00\n        /* \"#utility.yul\":20231:20237   */\n      dup3\n        /* \"#utility.yul\":20227:20241   */\n      add\n        /* \"#utility.yul\":20220:20275   */\n      mstore\n        /* \"#utility.yul\":20103:20282   */\n      pop\n      jump\t// out\n        /* \"#utility.yul\":20288:20511   */\n    tag_454:\n        /* \"#utility.yul\":20428:20462   */\n      0x4d696c6573746f6e65732068617665206e6f74206265656e2063726561746564\n        /* \"#utility.yul\":20424:20425   */\n      0x00\n        /* \"#utility.yul\":20416:20422   */\n      dup3\n        /* \"#utility.yul\":20412:20426   */\n      add\n        /* \"#utility.yul\":20405:20463   */\n      mstore\n        /* \"#utility.yul\":20497:20503   */\n      0x2079657400000000000000000000000000000000000000000000000000000000\n        /* \"#utility.yul\":20492:20494   */\n      0x20\n        /* \"#utility.yul\":20484:20490   */\n      dup3\n        /* \"#utility.yul\":20480:20495   */\n      add\n        /* \"#utility.yul\":20473:20504   */\n      mstore\n        /* \"#utility.yul\":20288:20511   */\n      pop\n      jump\t// out\n        /* \"#utility.yul\":20517:20630   */\n    tag_532:\n        /* \"#utility.yul\":20598:20599   */\n      0x07\n        /* \"#utility.yul\":20591:20596   */\n      dup2\n        /* \"#utility.yul\":20588:20600   */\n      lt\n        /* \"#utility.yul\":20578:20624   */\n      tag_571\n      jumpi\n        /* \"#utility.yul\":20604:20622   */\n      tag_572\n      tag_103\n      jump\t// in\n    tag_572:\n        /* \"#utility.yul\":20578:20624   */\n    tag_571:\n        /* \"#utility.yul\":20517:20630   */\n      pop\n      jump\t// out\n        /* \"#utility.yul\":20636:20758   */\n    tag_362:\n        /* \"#utility.yul\":20709:20733   */\n      tag_574\n        /* \"#utility.yul\":20727:20732   */\n      dup2\n        /* \"#utility.yul\":20709:20733   */\n      tag_467\n      jump\t// in\n    tag_574:\n        /* \"#utility.yul\":20702:20707   */\n      dup2\n        /* \"#utility.yul\":20699:20734   */\n      eq\n        /* \"#utility.yul\":20689:20752   */\n      tag_575\n      jumpi\n        /* \"#utility.yul\":20748:20749   */\n      0x00\n        /* \"#utility.yul\":20745:20746   */\n      dup1\n        /* \"#utility.yul\":20738:20750   */\n      revert\n        /* \"#utility.yul\":20689:20752   */\n    tag_575:\n        /* \"#utility.yul\":20636:20758   */\n      pop\n      jump\t// out\n        /* \"#utility.yul\":20764:20882   */\n    tag_366:\n        /* \"#utility.yul\":20835:20857   */\n      tag_577\n        /* \"#utility.yul\":20851:20856   */\n      dup2\n        /* \"#utility.yul\":20835:20857   */\n      tag_534\n      jump\t// in\n    tag_577:\n        /* \"#utility.yul\":20828:20833   */\n      dup2\n        /* \"#utility.yul\":20825:20858   */\n      eq\n        /* \"#utility.yul\":20815:20876   */\n      tag_578\n      jumpi\n        /* \"#utility.yul\":20872:20873   */\n      0x00\n        /* \"#utility.yul\":20869:20870   */\n      dup1\n        /* \"#utility.yul\":20862:20874   */\n      revert\n        /* \"#utility.yul\":20815:20876   */\n    tag_578:\n        /* \"#utility.yul\":20764:20882   */\n      pop\n      jump\t// out\n\n    auxdata: 0xa264697066735822122078e736670f42cc6e1c1fbef772ad9219f32e30d7c3798d5b858129ded8b6677064736f6c63430008070033\n}\n",
				"bytecode": {
					"linkReferences": {},
					"object": "608060405234801561001057600080fd5b506121f8806100206000396000f3fe608060405234801561001057600080fd5b50600436106101165760003560e01c80636139ab8f116100a2578063ab7db00311610071578063ab7db00314610327578063b5015d1114610343578063bceae35c1461035f578063cc590e6f1461037b578063e8049da11461039757610116565b80636139ab8f1461028f57806379a6544e146102bf578063863ccc08146102db578063a1a56bae1461030b57610116565b8063275a645c116100e9578063275a645c146101c757806346d6e88e146101e3578063533c787b146101ff5780635c91eb591461022f5780636005ecfd1461025f57610116565b8063095674aa1461011b5780631e0f2a46146101375780632611954f14610167578063261ea72414610197575b600080fd5b61013560048036038101906101309190611894565b6103c7565b005b610151600480360381019061014c919061179c565b6106d9565b60405161015e9190611b9a565b60405180910390f35b610181600480360381019061017c9190611933565b6106ed565b60405161018e9190611b9a565b60405180910390f35b6101b160048036038101906101ac919061179c565b610755565b6040516101be9190611b9a565b60405180910390f35b6101e160048036038101906101dc9190611854565b610769565b005b6101fd60048036038101906101f89190611854565b6107d4565b005b6102196004803603810190610214919061179c565b61083f565b6040516102269190611c10565b60405180910390f35b6102496004803603810190610244919061179c565b6108b9565b6040516102569190611b78565b60405180910390f35b6102796004803603810190610274919061179c565b610ae4565b6040516102869190611b9a565b60405180910390f35b6102a960048036038101906102a4919061179c565b610af8565b6040516102b69190611b9a565b60405180910390f35b6102d960048036038101906102d49190611854565b610b0c565b005b6102f560048036038101906102f0919061179c565b610b77565b6040516103029190611b9a565b60405180910390f35b61032560048036038101906103209190611854565b610b99565b005b610341600480360381019061033c9190611854565b610f8d565b005b61035d600480360381019061035891906117c9565b610ff8565b005b61037960048036038101906103749190611854565b611128565b005b6103956004803603810190610390919061179c565b611193565b005b6103b160048036038101906103ac9190611854565b6111d6565b6040516103be9190611bb5565b60405180910390f35b836000806000838152602001908152602001600020805490501415610421576040517f08c379a000000000000000000000000000000000000000000000000000000000815260040161041890611bf0565b60405180910390fd5b600060405180606001604052808581526020018481526020016001600681111561044e5761044d611ff8565b5b81525090506000806000888152602001908152602001600020868154811061047957610478612085565b5b90600052602060002090600302016040518060600160405290816000820180546104a290611f1d565b80601f01602080910402602001604051908101604052809291908181526020018280546104ce90611f1d565b801561051b5780601f106104f05761010080835404028352916020019161051b565b820191906000526020600020905b8154815290600101906020018083116104fe57829003601f168201915b5050505050815260200160018201805461053490611f1d565b80601f016020809104026020016040519081016040528092919081815260200182805461056090611f1d565b80156105ad5780601f10610582576101008083540402835291602001916105ad565b820191906000526020600020905b81548152906001019060200180831161059057829003601f168201915b505050505081526020016002820160009054906101000a900460ff1660068111156105db576105da611ff8565b5b60068111156105ed576105ec611ff8565b5b81525050905081600080898152602001908152602001600020878154811061061857610617612085565b5b90600052602060002090600302016000820151816000019080519060200190610642929190611592565b50602082015181600101908051906020019061065f929190611592565b5060408201518160020160006101000a81548160ff0219169083600681111561068b5761068a611ff8565b5b02179055509050507f65b6a4fc6c03a38284e22d1d709975609c288dbbd2f5d284f2585fd4ad4b46b4878784846040516106c89493929190611cae565b60405180910390a150505050505050565b60006106e68260056112d9565b9050919050565b60008160ff16600080868152602001908152602001600020848154811061071757610716612085565b5b906000526020600020906003020160020160009054906101000a900460ff16600681111561074857610747611ff8565b5b60ff161490509392505050565b60006107628260026112d9565b9050919050565b8160008060008381526020019081526020016000208054905014156107c3576040517f08c379a00000000000000000000000000000000000000000000000000000000081526004016107ba90611bf0565b60405180910390fd5b6107cf83836005611394565b505050565b81600080600083815260200190815260200160002080549050141561082e576040517f08c379a000000000000000000000000000000000000000000000000000000000815260040161082590611bf0565b60405180910390fd5b61083a83836004611394565b505050565b600081600080600083815260200190815260200160002080549050141561089b576040517f08c379a000000000000000000000000000000000000000000000000000000000815260040161089290611bf0565b60405180910390fd5b60008084815260200190815260200160002080549050915050919050565b6060816000806000838152602001908152602001600020805490501415610915576040517f08c379a000000000000000000000000000000000000000000000000000000000815260040161090c90611bf0565b60405180910390fd5b600080848152602001908152602001600020805480602002602001604051908101604052809291908181526020016000905b82821015610ad8578382906000526020600020906003020160405180606001604052908160008201805461097a90611f1d565b80601f01602080910402602001604051908101604052809291908181526020018280546109a690611f1d565b80156109f35780601f106109c8576101008083540402835291602001916109f3565b820191906000526020600020905b8154815290600101906020018083116109d657829003601f168201915b50505050508152602001600182018054610a0c90611f1d565b80601f0160208091040260200160405190810160405280929190818152602001828054610a3890611f1d565b8015610a855780601f10610a5a57610100808354040283529160200191610a85565b820191906000526020600020905b815481529060010190602001808311610a6857829003601f168201915b505050505081526020016002820160009054906101000a900460ff166006811115610ab357610ab2611ff8565b5b6006811115610ac557610ac4611ff8565b5b8152505081526020019060010190610947565b50505050915050919050565b6000610af18260066114d6565b9050919050565b6000610b058260046112d9565b9050919050565b816000806000838152602001908152602001600020805490501415610b66576040517f08c379a0000000000000000000000000000000000000000000000000000000008152600401610b5d90611bf0565b60405180910390fd5b610b7283836002611394565b505050565b6000806000808481526020019081526020016000208054905014159050919050565b816000806000838152602001908152602001600020805490501415610bf3576040517f08c379a0000000000000000000000000000000000000000000000000000000008152600401610bea90611bf0565b60405180910390fd5b60008060008581526020019081526020016000208381548110610c1957610c18612085565b5b9060005260206000209060030201604051806060016040529081600082018054610c4290611f1d565b80601f0160208091040260200160405190810160405280929190818152602001828054610c6e90611f1d565b8015610cbb5780601f10610c9057610100808354040283529160200191610cbb565b820191906000526020600020905b815481529060010190602001808311610c9e57829003601f168201915b50505050508152602001600182018054610cd490611f1d565b80601f0160208091040260200160405190810160405280929190818152602001828054610d0090611f1d565b8015610d4d5780601f10610d2257610100808354040283529160200191610d4d565b820191906000526020600020905b815481529060010190602001808311610d3057829003601f168201915b505050505081526020016002820160009054906101000a900460ff166006811115610d7b57610d7a611ff8565b5b6006811115610d8d57610d8c611ff8565b5b81525050905060008390505b600160008087815260200190815260200160002080549050610dbb9190611e5f565b811015610ec557600080868152602001908152602001600020600182610de19190611e09565b81548110610df257610df1612085565b5b90600052602060002090600302016000808781526020019081526020016000208281548110610e2457610e23612085565b5b90600052602060002090600302016000820181600001908054610e4690611f1d565b610e51929190611618565b506001820181600101908054610e6690611f1d565b610e71929190611618565b506002820160009054906101000a900460ff168160020160006101000a81548160ff02191690836006811115610eaa57610ea9611ff8565b5b02179055509050508080610ebd90611f80565b915050610d99565b50600080858152602001908152602001600020805480610ee857610ee7612056565b5b600190038181906000526020600020906003020160008082016000610f0d91906116a5565b600182016000610f1d91906116a5565b6002820160006101000a81549060ff0219169055505090557f6d4454e6395559c04e81910079e267dc2b89dc5c7c0c09baf1068ffff6542ce184848360008089815260200190815260200160002080549050604051610f7f9493929190611d01565b60405180910390a150505050565b816000806000838152602001908152602001600020805490501415610fe7576040517f08c379a0000000000000000000000000000000000000000000000000000000008152600401610fde90611bf0565b60405180910390fd5b610ff383836003611394565b505050565b600060405180606001604052808481526020018381526020016001600681111561102557611024611ff8565b5b81525090506000808581526020019081526020016000208190806001815401808255809150506001900390600052602060002090600302016000909190919091506000820151816000019080519060200190611082929190611592565b50602082015181600101908051906020019061109f929190611592565b5060408201518160020160006101000a81548160ff021916908360068111156110cb576110ca611ff8565b5b021790555050507f0e5e5840c0784eb00d266bdfb12bc390d99afa672e3da23f76eb1a932947bed684826000808881526020019081526020016000208054905060405161111a93929190611c2b565b60405180910390a150505050565b816000806000838152602001908152602001600020805490501415611182576040517f08c379a000000000000000000000000000000000000000000000000000000000815260040161117990611bf0565b60405180910390fd5b61118e83836006611394565b505050565b60005b600080838152602001908152602001600020805490508110156111d2576111bf82826001611394565b80806111ca90611f80565b915050611196565b5050565b6000826000806000838152602001908152602001600020805490501415611232576040517f08c379a000000000000000000000000000000000000000000000000000000000815260040161122990611bf0565b60405180910390fd5b838360008083815260200190815260200160002080549050811061128b576040517f08c379a000000000000000000000000000000000000000000000000000000000815260040161128290611bd0565b60405180910390fd5b60008087815260200190815260200160002085815481106112af576112ae612085565b5b906000526020600020906003020160020160009054906101000a900460ff16935050505092915050565b600080600090505b600080858152602001908152602001600020805490508110156113885782600681111561131157611310611ff8565b5b600080868152602001908152602001600020828154811061133557611334612085565b5b906000526020600020906003020160020160009054906101000a900460ff16600681111561136657611365611ff8565b5b1461137557600091505061138e565b808061138090611f80565b9150506112e1565b50600190505b92915050565b8260008060008381526020019081526020016000208054905014156113ee576040517f08c379a00000000000000000000000000000000000000000000000000000000081526004016113e590611bf0565b60405180910390fd5b6000806000868152602001908152602001600020848154811061141457611413612085565b5b906000526020600020906003020160020160009054906101000a900460ff16905082600080878152602001908152602001600020858154811061145a57611459612085565b5b906000526020600020906003020160020160006101000a81548160ff0219169083600681111561148d5761148c611ff8565b5b02179055507fa4e86334f55642d44167e3603aa4f62296dedbc45291b004f14978bb96daea7b858583866040516114c79493929190611c69565b60405180910390a15050505050565b600080600090505b600080858152602001908152602001600020805490508110156115865782600681111561150e5761150d611ff8565b5b600080868152602001908152602001600020828154811061153257611531612085565b5b906000526020600020906003020160020160009054906101000a900460ff16600681111561156357611562611ff8565b5b141561157357600091505061158c565b808061157e90611f80565b9150506114de565b50600190505b92915050565b82805461159e90611f1d565b90600052602060002090601f0160209004810192826115c05760008555611607565b82601f106115d957805160ff1916838001178555611607565b82800160010185558215611607579182015b828111156116065782518255916020019190600101906115eb565b5b50905061161491906116e5565b5090565b82805461162490611f1d565b90600052602060002090601f0160209004810192826116465760008555611694565b82601f106116575780548555611694565b8280016001018555821561169457600052602060002091601f016020900482015b82811115611693578254825591600101919060010190611678565b5b5090506116a191906116e5565b5090565b5080546116b190611f1d565b6000825580601f106116c357506116e2565b601f0160209004906000526020600020908101906116e191906116e5565b5b50565b5b808211156116fe5760008160009055506001016116e6565b5090565b600061171561171084611d72565b611d4d565b905082815260208101848484011115611731576117306120e8565b5b61173c848285611edb565b509392505050565b600082601f830112611759576117586120e3565b5b8135611769848260208601611702565b91505092915050565b60008135905061178181612194565b92915050565b600081359050611796816121ab565b92915050565b6000602082840312156117b2576117b16120f2565b5b60006117c084828501611772565b91505092915050565b6000806000606084860312156117e2576117e16120f2565b5b60006117f086828701611772565b935050602084013567ffffffffffffffff811115611811576118106120ed565b5b61181d86828701611744565b925050604084013567ffffffffffffffff81111561183e5761183d6120ed565b5b61184a86828701611744565b9150509250925092565b6000806040838503121561186b5761186a6120f2565b5b600061187985828601611772565b925050602061188a85828601611772565b9150509250929050565b600080600080608085870312156118ae576118ad6120f2565b5b60006118bc87828801611772565b94505060206118cd87828801611772565b935050604085013567ffffffffffffffff8111156118ee576118ed6120ed565b5b6118fa87828801611744565b925050606085013567ffffffffffffffff81111561191b5761191a6120ed565b5b61192787828801611744565b91505092959194509250565b60008060006060848603121561194c5761194b6120f2565b5b600061195a86828701611772565b935050602061196b86828701611772565b925050604061197c86828701611787565b9150509250925092565b60006119928383611abb565b905092915050565b60006119a582611db3565b6119af8185611dd6565b9350836020820285016119c185611da3565b8060005b858110156119fd57848403895281516119de8582611986565b94506119e983611dc9565b925060208a019950506001810190506119c5565b50829750879550505050505092915050565b611a1881611e93565b82525050565b611a2781611ec9565b82525050565b611a3681611ec9565b82525050565b6000611a4782611dbe565b611a518185611de7565b9350611a61818560208601611eea565b611a6a816120f7565b840191505092915050565b6000611a82601d83611df8565b9150611a8d82612108565b602082019050919050565b6000611aa5602483611df8565b9150611ab082612131565b604082019050919050565b60006060830160008301518482036000860152611ad88282611a3c565b91505060208301518482036020860152611af28282611a3c565b9150506040830151611b076040860182611a1e565b508091505092915050565b60006060830160008301518482036000860152611b2f8282611a3c565b91505060208301518482036020860152611b498282611a3c565b9150506040830151611b5e6040860182611a1e565b508091505092915050565b611b7281611eb2565b82525050565b60006020820190508181036000830152611b92818461199a565b905092915050565b6000602082019050611baf6000830184611a0f565b92915050565b6000602082019050611bca6000830184611a2d565b92915050565b60006020820190508181036000830152611be981611a75565b9050919050565b60006020820190508181036000830152611c0981611a98565b9050919050565b6000602082019050611c256000830184611b69565b92915050565b6000606082019050611c406000830186611b69565b8181036020830152611c528185611b12565b9050611c616040830184611b69565b949350505050565b6000608082019050611c7e6000830187611b69565b611c8b6020830186611b69565b611c986040830185611a2d565b611ca56060830184611a2d565b95945050505050565b6000608082019050611cc36000830187611b69565b611cd06020830186611b69565b8181036040830152611ce28185611b12565b90508181036060830152611cf68184611b12565b905095945050505050565b6000608082019050611d166000830187611b69565b611d236020830186611b69565b8181036040830152611d358185611b12565b9050611d446060830184611b69565b95945050505050565b6000611d57611d68565b9050611d638282611f4f565b919050565b6000604051905090565b600067ffffffffffffffff821115611d8d57611d8c6120b4565b5b611d96826120f7565b9050602081019050919050565b6000819050602082019050919050565b600081519050919050565b600081519050919050565b6000602082019050919050565b600082825260208201905092915050565b600082825260208201905092915050565b600082825260208201905092915050565b6000611e1482611eb2565b9150611e1f83611eb2565b9250827fffffffffffffffffffffffffffffffffffffffffffffffffffffffffffffffff03821115611e5457611e53611fc9565b5b828201905092915050565b6000611e6a82611eb2565b9150611e7583611eb2565b925082821015611e8857611e87611fc9565b5b828203905092915050565b60008115159050919050565b6000819050611ead82612180565b919050565b6000819050919050565b600060ff82169050919050565b6000611ed482611e9f565b9050919050565b82818337600083830152505050565b60005b83811015611f08578082015181840152602081019050611eed565b83811115611f17576000848401525b50505050565b60006002820490506001821680611f3557607f821691505b60208210811415611f4957611f48612027565b5b50919050565b611f58826120f7565b810181811067ffffffffffffffff82111715611f7757611f766120b4565b5b80604052505050565b6000611f8b82611eb2565b91507fffffffffffffffffffffffffffffffffffffffffffffffffffffffffffffffff821415611fbe57611fbd611fc9565b5b600182019050919050565b7f4e487b7100000000000000000000000000000000000000000000000000000000600052601160045260246000fd5b7f4e487b7100000000000000000000000000000000000000000000000000000000600052602160045260246000fd5b7f4e487b7100000000000000000000000000000000000000000000000000000000600052602260045260246000fd5b7f4e487b7100000000000000000000000000000000000000000000000000000000600052603160045260246000fd5b7f4e487b7100000000000000000000000000000000000000000000000000000000600052603260045260246000fd5b7f4e487b7100000000000000000000000000000000000000000000000000000000600052604160045260246000fd5b600080fd5b600080fd5b600080fd5b600080fd5b6000601f19601f8301169050919050565b7f4d696c6573746f6e65206e756d626572206f7574206f662072616e6765000000600082015250565b7f4d696c6573746f6e65732068617665206e6f74206265656e206372656174656460008201527f2079657400000000000000000000000000000000000000000000000000000000602082015250565b6007811061219157612190611ff8565b5b50565b61219d81611eb2565b81146121a857600080fd5b50565b6121b481611ebc565b81146121bf57600080fd5b5056fea264697066735822122078e736670f42cc6e1c1fbef772ad9219f32e30d7c3798d5b858129ded8b6677064736f6c63430008070033",
					"opcodes": "PUSH1 0x80 PUSH1 0x40 MSTORE CALLVALUE DUP1 ISZERO PUSH2 0x10 JUMPI PUSH1 0x0 DUP1 REVERT JUMPDEST POP PUSH2 0x21F8 DUP1 PUSH2 0x20 PUSH1 0x0 CODECOPY PUSH1 0x0 RETURN INVALID PUSH1 0x80 PUSH1 0x40 MSTORE CALLVALUE DUP1 ISZERO PUSH2 0x10 JUMPI PUSH1 0x0 DUP1 REVERT JUMPDEST POP PUSH1 0x4 CALLDATASIZE LT PUSH2 0x116 JUMPI PUSH1 0x0 CALLDATALOAD PUSH1 0xE0 SHR DUP1 PUSH4 0x6139AB8F GT PUSH2 0xA2 JUMPI DUP1 PUSH4 0xAB7DB003 GT PUSH2 0x71 JUMPI DUP1 PUSH4 0xAB7DB003 EQ PUSH2 0x327 JUMPI DUP1 PUSH4 0xB5015D11 EQ PUSH2 0x343 JUMPI DUP1 PUSH4 0xBCEAE35C EQ PUSH2 0x35F JUMPI DUP1 PUSH4 0xCC590E6F EQ PUSH2 0x37B JUMPI DUP1 PUSH4 0xE8049DA1 EQ PUSH2 0x397 JUMPI PUSH2 0x116 JUMP JUMPDEST DUP1 PUSH4 0x6139AB8F EQ PUSH2 0x28F JUMPI DUP1 PUSH4 0x79A6544E EQ PUSH2 0x2BF JUMPI DUP1 PUSH4 0x863CCC08 EQ PUSH2 0x2DB JUMPI DUP1 PUSH4 0xA1A56BAE EQ PUSH2 0x30B JUMPI PUSH2 0x116 JUMP JUMPDEST DUP1 PUSH4 0x275A645C GT PUSH2 0xE9 JUMPI DUP1 PUSH4 0x275A645C EQ PUSH2 0x1C7 JUMPI DUP1 PUSH4 0x46D6E88E EQ PUSH2 0x1E3 JUMPI DUP1 PUSH4 0x533C787B EQ PUSH2 0x1FF JUMPI DUP1 PUSH4 0x5C91EB59 EQ PUSH2 0x22F JUMPI DUP1 PUSH4 0x6005ECFD EQ PUSH2 0x25F JUMPI PUSH2 0x116 JUMP JUMPDEST DUP1 PUSH4 0x95674AA EQ PUSH2 0x11B JUMPI DUP1 PUSH4 0x1E0F2A46 EQ PUSH2 0x137 JUMPI DUP1 PUSH4 0x2611954F EQ PUSH2 0x167 JUMPI DUP1 PUSH4 0x261EA724 EQ PUSH2 0x197 JUMPI JUMPDEST PUSH1 0x0 DUP1 REVERT JUMPDEST PUSH2 0x135 PUSH1 0x4 DUP1 CALLDATASIZE SUB DUP2 ADD SWAP1 PUSH2 0x130 SWAP2 SWAP1 PUSH2 0x1894 JUMP JUMPDEST PUSH2 0x3C7 JUMP JUMPDEST STOP JUMPDEST PUSH2 0x151 PUSH1 0x4 DUP1 CALLDATASIZE SUB DUP2 ADD SWAP1 PUSH2 0x14C SWAP2 SWAP1 PUSH2 0x179C JUMP JUMPDEST PUSH2 0x6D9 JUMP JUMPDEST PUSH1 0x40 MLOAD PUSH2 0x15E SWAP2 SWAP1 PUSH2 0x1B9A JUMP JUMPDEST PUSH1 0x40 MLOAD DUP1 SWAP2 SUB SWAP1 RETURN JUMPDEST PUSH2 0x181 PUSH1 0x4 DUP1 CALLDATASIZE SUB DUP2 ADD SWAP1 PUSH2 0x17C SWAP2 SWAP1 PUSH2 0x1933 JUMP JUMPDEST PUSH2 0x6ED JUMP JUMPDEST PUSH1 0x40 MLOAD PUSH2 0x18E SWAP2 SWAP1 PUSH2 0x1B9A JUMP JUMPDEST PUSH1 0x40 MLOAD DUP1 SWAP2 SUB SWAP1 RETURN JUMPDEST PUSH2 0x1B1 PUSH1 0x4 DUP1 CALLDATASIZE SUB DUP2 ADD SWAP1 PUSH2 0x1AC SWAP2 SWAP1 PUSH2 0x179C JUMP JUMPDEST PUSH2 0x755 JUMP JUMPDEST PUSH1 0x40 MLOAD PUSH2 0x1BE SWAP2 SWAP1 PUSH2 0x1B9A JUMP JUMPDEST PUSH1 0x40 MLOAD DUP1 SWAP2 SUB SWAP1 RETURN JUMPDEST PUSH2 0x1E1 PUSH1 0x4 DUP1 CALLDATASIZE SUB DUP2 ADD SWAP1 PUSH2 0x1DC SWAP2 SWAP1 PUSH2 0x1854 JUMP JUMPDEST PUSH2 0x769 JUMP JUMPDEST STOP JUMPDEST PUSH2 0x1FD PUSH1 0x4 DUP1 CALLDATASIZE SUB DUP2 ADD SWAP1 PUSH2 0x1F8 SWAP2 SWAP1 PUSH2 0x1854 JUMP JUMPDEST PUSH2 0x7D4 JUMP JUMPDEST STOP JUMPDEST PUSH2 0x219 PUSH1 0x4 DUP1 CALLDATASIZE SUB DUP2 ADD SWAP1 PUSH2 0x214 SWAP2 SWAP1 PUSH2 0x179C JUMP JUMPDEST PUSH2 0x83F JUMP JUMPDEST PUSH1 0x40 MLOAD PUSH2 0x226 SWAP2 SWAP1 PUSH2 0x1C10 JUMP JUMPDEST PUSH1 0x40 MLOAD DUP1 SWAP2 SUB SWAP1 RETURN JUMPDEST PUSH2 0x249 PUSH1 0x4 DUP1 CALLDATASIZE SUB DUP2 ADD SWAP1 PUSH2 0x244 SWAP2 SWAP1 PUSH2 0x179C JUMP JUMPDEST PUSH2 0x8B9 JUMP JUMPDEST PUSH1 0x40 MLOAD PUSH2 0x256 SWAP2 SWAP1 PUSH2 0x1B78 JUMP JUMPDEST PUSH1 0x40 MLOAD DUP1 SWAP2 SUB SWAP1 RETURN JUMPDEST PUSH2 0x279 PUSH1 0x4 DUP1 CALLDATASIZE SUB DUP2 ADD SWAP1 PUSH2 0x274 SWAP2 SWAP1 PUSH2 0x179C JUMP JUMPDEST PUSH2 0xAE4 JUMP JUMPDEST PUSH1 0x40 MLOAD PUSH2 0x286 SWAP2 SWAP1 PUSH2 0x1B9A JUMP JUMPDEST PUSH1 0x40 MLOAD DUP1 SWAP2 SUB SWAP1 RETURN JUMPDEST PUSH2 0x2A9 PUSH1 0x4 DUP1 CALLDATASIZE SUB DUP2 ADD SWAP1 PUSH2 0x2A4 SWAP2 SWAP1 PUSH2 0x179C JUMP JUMPDEST PUSH2 0xAF8 JUMP JUMPDEST PUSH1 0x40 MLOAD PUSH2 0x2B6 SWAP2 SWAP1 PUSH2 0x1B9A JUMP JUMPDEST PUSH1 0x40 MLOAD DUP1 SWAP2 SUB SWAP1 RETURN JUMPDEST PUSH2 0x2D9 PUSH1 0x4 DUP1 CALLDATASIZE SUB DUP2 ADD SWAP1 PUSH2 0x2D4 SWAP2 SWAP1 PUSH2 0x1854 JUMP JUMPDEST PUSH2 0xB0C JUMP JUMPDEST STOP JUMPDEST PUSH2 0x2F5 PUSH1 0x4 DUP1 CALLDATASIZE SUB DUP2 ADD SWAP1 PUSH2 0x2F0 SWAP2 SWAP1 PUSH2 0x179C JUMP JUMPDEST PUSH2 0xB77 JUMP JUMPDEST PUSH1 0x40 MLOAD PUSH2 0x302 SWAP2 SWAP1 PUSH2 0x1B9A JUMP JUMPDEST PUSH1 0x40 MLOAD DUP1 SWAP2 SUB SWAP1 RETURN JUMPDEST PUSH2 0x325 PUSH1 0x4 DUP1 CALLDATASIZE SUB DUP2 ADD SWAP1 PUSH2 0x320 SWAP2 SWAP1 PUSH2 0x1854 JUMP JUMPDEST PUSH2 0xB99 JUMP JUMPDEST STOP JUMPDEST PUSH2 0x341 PUSH1 0x4 DUP1 CALLDATASIZE SUB DUP2 ADD SWAP1 PUSH2 0x33C SWAP2 SWAP1 PUSH2 0x1854 JUMP JUMPDEST PUSH2 0xF8D JUMP JUMPDEST STOP JUMPDEST PUSH2 0x35D PUSH1 0x4 DUP1 CALLDATASIZE SUB DUP2 ADD SWAP1 PUSH2 0x358 SWAP2 SWAP1 PUSH2 0x17C9 JUMP JUMPDEST PUSH2 0xFF8 JUMP JUMPDEST STOP JUMPDEST PUSH2 0x379 PUSH1 0x4 DUP1 CALLDATASIZE SUB DUP2 ADD SWAP1 PUSH2 0x374 SWAP2 SWAP1 PUSH2 0x1854 JUMP JUMPDEST PUSH2 0x1128 JUMP JUMPDEST STOP JUMPDEST PUSH2 0x395 PUSH1 0x4 DUP1 CALLDATASIZE SUB DUP2 ADD SWAP1 PUSH2 0x390 SWAP2 SWAP1 PUSH2 0x179C JUMP JUMPDEST PUSH2 0x1193 JUMP JUMPDEST STOP JUMPDEST PUSH2 0x3B1 PUSH1 0x4 DUP1 CALLDATASIZE SUB DUP2 ADD SWAP1 PUSH2 0x3AC SWAP2 SWAP1 PUSH2 0x1854 JUMP JUMPDEST PUSH2 0x11D6 JUMP JUMPDEST PUSH1 0x40 MLOAD PUSH2 0x3BE SWAP2 SWAP1 PUSH2 0x1BB5 JUMP JUMPDEST PUSH1 0x40 MLOAD DUP1 SWAP2 SUB SWAP1 RETURN JUMPDEST DUP4 PUSH1 0x0 DUP1 PUSH1 0x0 DUP4 DUP2 MSTORE PUSH1 0x20 ADD SWAP1 DUP2 MSTORE PUSH1 0x20 ADD PUSH1 0x0 KECCAK256 DUP1 SLOAD SWAP1 POP EQ ISZERO PUSH2 0x421 JUMPI PUSH1 0x40 MLOAD PUSH32 0x8C379A000000000000000000000000000000000000000000000000000000000 DUP2 MSTORE PUSH1 0x4 ADD PUSH2 0x418 SWAP1 PUSH2 0x1BF0 JUMP JUMPDEST PUSH1 0x40 MLOAD DUP1 SWAP2 SUB SWAP1 REVERT JUMPDEST PUSH1 0x0 PUSH1 0x40 MLOAD DUP1 PUSH1 0x60 ADD PUSH1 0x40 MSTORE DUP1 DUP6 DUP2 MSTORE PUSH1 0x20 ADD DUP5 DUP2 MSTORE PUSH1 0x20 ADD PUSH1 0x1 PUSH1 0x6 DUP2 GT ISZERO PUSH2 0x44E JUMPI PUSH2 0x44D PUSH2 0x1FF8 JUMP JUMPDEST JUMPDEST DUP2 MSTORE POP SWAP1 POP PUSH1 0x0 DUP1 PUSH1 0x0 DUP9 DUP2 MSTORE PUSH1 0x20 ADD SWAP1 DUP2 MSTORE PUSH1 0x20 ADD PUSH1 0x0 KECCAK256 DUP7 DUP2 SLOAD DUP2 LT PUSH2 0x479 JUMPI PUSH2 0x478 PUSH2 0x2085 JUMP JUMPDEST JUMPDEST SWAP1 PUSH1 0x0 MSTORE PUSH1 0x20 PUSH1 0x0 KECCAK256 SWAP1 PUSH1 0x3 MUL ADD PUSH1 0x40 MLOAD DUP1 PUSH1 0x60 ADD PUSH1 0x40 MSTORE SWAP1 DUP2 PUSH1 0x0 DUP3 ADD DUP1 SLOAD PUSH2 0x4A2 SWAP1 PUSH2 0x1F1D JUMP JUMPDEST DUP1 PUSH1 0x1F ADD PUSH1 0x20 DUP1 SWAP2 DIV MUL PUSH1 0x20 ADD PUSH1 0x40 MLOAD SWAP1 DUP2 ADD PUSH1 0x40 MSTORE DUP1 SWAP3 SWAP2 SWAP1 DUP2 DUP2 MSTORE PUSH1 0x20 ADD DUP3 DUP1 SLOAD PUSH2 0x4CE SWAP1 PUSH2 0x1F1D JUMP JUMPDEST DUP1 ISZERO PUSH2 0x51B JUMPI DUP1 PUSH1 0x1F LT PUSH2 0x4F0 JUMPI PUSH2 0x100 DUP1 DUP4 SLOAD DIV MUL DUP4 MSTORE SWAP2 PUSH1 0x20 ADD SWAP2 PUSH2 0x51B JUMP JUMPDEST DUP3 ADD SWAP2 SWAP1 PUSH1 0x0 MSTORE PUSH1 0x20 PUSH1 0x0 KECCAK256 SWAP1 JUMPDEST DUP2 SLOAD DUP2 MSTORE SWAP1 PUSH1 0x1 ADD SWAP1 PUSH1 0x20 ADD DUP1 DUP4 GT PUSH2 0x4FE JUMPI DUP3 SWAP1 SUB PUSH1 0x1F AND DUP3 ADD SWAP2 JUMPDEST POP POP POP POP POP DUP2 MSTORE PUSH1 0x20 ADD PUSH1 0x1 DUP3 ADD DUP1 SLOAD PUSH2 0x534 SWAP1 PUSH2 0x1F1D JUMP JUMPDEST DUP1 PUSH1 0x1F ADD PUSH1 0x20 DUP1 SWAP2 DIV MUL PUSH1 0x20 ADD PUSH1 0x40 MLOAD SWAP1 DUP2 ADD PUSH1 0x40 MSTORE DUP1 SWAP3 SWAP2 SWAP1 DUP2 DUP2 MSTORE PUSH1 0x20 ADD DUP3 DUP1 SLOAD PUSH2 0x560 SWAP1 PUSH2 0x1F1D JUMP JUMPDEST DUP1 ISZERO PUSH2 0x5AD JUMPI DUP1 PUSH1 0x1F LT PUSH2 0x582 JUMPI PUSH2 0x100 DUP1 DUP4 SLOAD DIV MUL DUP4 MSTORE SWAP2 PUSH1 0x20 ADD SWAP2 PUSH2 0x5AD JUMP JUMPDEST DUP3 ADD SWAP2 SWAP1 PUSH1 0x0 MSTORE PUSH1 0x20 PUSH1 0x0 KECCAK256 SWAP1 JUMPDEST DUP2 SLOAD DUP2 MSTORE SWAP1 PUSH1 0x1 ADD SWAP1 PUSH1 0x20 ADD DUP1 DUP4 GT PUSH2 0x590 JUMPI DUP3 SWAP1 SUB PUSH1 0x1F AND DUP3 ADD SWAP2 JUMPDEST POP POP POP POP POP DUP2 MSTORE PUSH1 0x20 ADD PUSH1 0x2 DUP3 ADD PUSH1 0x0 SWAP1 SLOAD SWAP1 PUSH2 0x100 EXP SWAP1 DIV PUSH1 0xFF AND PUSH1 0x6 DUP2 GT ISZERO PUSH2 0x5DB JUMPI PUSH2 0x5DA PUSH2 0x1FF8 JUMP JUMPDEST JUMPDEST PUSH1 0x6 DUP2 GT ISZERO PUSH2 0x5ED JUMPI PUSH2 0x5EC PUSH2 0x1FF8 JUMP JUMPDEST JUMPDEST DUP2 MSTORE POP POP SWAP1 POP DUP2 PUSH1 0x0 DUP1 DUP10 DUP2 MSTORE PUSH1 0x20 ADD SWAP1 DUP2 MSTORE PUSH1 0x20 ADD PUSH1 0x0 KECCAK256 DUP8 DUP2 SLOAD DUP2 LT PUSH2 0x618 JUMPI PUSH2 0x617 PUSH2 0x2085 JUMP JUMPDEST JUMPDEST SWAP1 PUSH1 0x0 MSTORE PUSH1 0x20 PUSH1 0x0 KECCAK256 SWAP1 PUSH1 0x3 MUL ADD PUSH1 0x0 DUP3 ADD MLOAD DUP2 PUSH1 0x0 ADD SWAP1 DUP1 MLOAD SWAP1 PUSH1 0x20 ADD SWAP1 PUSH2 0x642 SWAP3 SWAP2 SWAP1 PUSH2 0x1592 JUMP JUMPDEST POP PUSH1 0x20 DUP3 ADD MLOAD DUP2 PUSH1 0x1 ADD SWAP1 DUP1 MLOAD SWAP1 PUSH1 0x20 ADD SWAP1 PUSH2 0x65F SWAP3 SWAP2 SWAP1 PUSH2 0x1592 JUMP JUMPDEST POP PUSH1 0x40 DUP3 ADD MLOAD DUP2 PUSH1 0x2 ADD PUSH1 0x0 PUSH2 0x100 EXP DUP2 SLOAD DUP2 PUSH1 0xFF MUL NOT AND SWAP1 DUP4 PUSH1 0x6 DUP2 GT ISZERO PUSH2 0x68B JUMPI PUSH2 0x68A PUSH2 0x1FF8 JUMP JUMPDEST JUMPDEST MUL OR SWAP1 SSTORE POP SWAP1 POP POP PUSH32 0x65B6A4FC6C03A38284E22D1D709975609C288DBBD2F5D284F2585FD4AD4B46B4 DUP8 DUP8 DUP5 DUP5 PUSH1 0x40 MLOAD PUSH2 0x6C8 SWAP5 SWAP4 SWAP3 SWAP2 SWAP1 PUSH2 0x1CAE JUMP JUMPDEST PUSH1 0x40 MLOAD DUP1 SWAP2 SUB SWAP1 LOG1 POP POP POP POP POP POP POP JUMP JUMPDEST PUSH1 0x0 PUSH2 0x6E6 DUP3 PUSH1 0x5 PUSH2 0x12D9 JUMP JUMPDEST SWAP1 POP SWAP2 SWAP1 POP JUMP JUMPDEST PUSH1 0x0 DUP2 PUSH1 0xFF AND PUSH1 0x0 DUP1 DUP7 DUP2 MSTORE PUSH1 0x20 ADD SWAP1 DUP2 MSTORE PUSH1 0x20 ADD PUSH1 0x0 KECCAK256 DUP5 DUP2 SLOAD DUP2 LT PUSH2 0x717 JUMPI PUSH2 0x716 PUSH2 0x2085 JUMP JUMPDEST JUMPDEST SWAP1 PUSH1 0x0 MSTORE PUSH1 0x20 PUSH1 0x0 KECCAK256 SWAP1 PUSH1 0x3 MUL ADD PUSH1 0x2 ADD PUSH1 0x0 SWAP1 SLOAD SWAP1 PUSH2 0x100 EXP SWAP1 DIV PUSH1 0xFF AND PUSH1 0x6 DUP2 GT ISZERO PUSH2 0x748 JUMPI PUSH2 0x747 PUSH2 0x1FF8 JUMP JUMPDEST JUMPDEST PUSH1 0xFF AND EQ SWAP1 POP SWAP4 SWAP3 POP POP POP JUMP JUMPDEST PUSH1 0x0 PUSH2 0x762 DUP3 PUSH1 0x2 PUSH2 0x12D9 JUMP JUMPDEST SWAP1 POP SWAP2 SWAP1 POP JUMP JUMPDEST DUP2 PUSH1 0x0 DUP1 PUSH1 0x0 DUP4 DUP2 MSTORE PUSH1 0x20 ADD SWAP1 DUP2 MSTORE PUSH1 0x20 ADD PUSH1 0x0 KECCAK256 DUP1 SLOAD SWAP1 POP EQ ISZERO PUSH2 0x7C3 JUMPI PUSH1 0x40 MLOAD PUSH32 0x8C379A000000000000000000000000000000000000000000000000000000000 DUP2 MSTORE PUSH1 0x4 ADD PUSH2 0x7BA SWAP1 PUSH2 0x1BF0 JUMP JUMPDEST PUSH1 0x40 MLOAD DUP1 SWAP2 SUB SWAP1 REVERT JUMPDEST PUSH2 0x7CF DUP4 DUP4 PUSH1 0x5 PUSH2 0x1394 JUMP JUMPDEST POP POP POP JUMP JUMPDEST DUP2 PUSH1 0x0 DUP1 PUSH1 0x0 DUP4 DUP2 MSTORE PUSH1 0x20 ADD SWAP1 DUP2 MSTORE PUSH1 0x20 ADD PUSH1 0x0 KECCAK256 DUP1 SLOAD SWAP1 POP EQ ISZERO PUSH2 0x82E JUMPI PUSH1 0x40 MLOAD PUSH32 0x8C379A000000000000000000000000000000000000000000000000000000000 DUP2 MSTORE PUSH1 0x4 ADD PUSH2 0x825 SWAP1 PUSH2 0x1BF0 JUMP JUMPDEST PUSH1 0x40 MLOAD DUP1 SWAP2 SUB SWAP1 REVERT JUMPDEST PUSH2 0x83A DUP4 DUP4 PUSH1 0x4 PUSH2 0x1394 JUMP JUMPDEST POP POP POP JUMP JUMPDEST PUSH1 0x0 DUP2 PUSH1 0x0 DUP1 PUSH1 0x0 DUP4 DUP2 MSTORE PUSH1 0x20 ADD SWAP1 DUP2 MSTORE PUSH1 0x20 ADD PUSH1 0x0 KECCAK256 DUP1 SLOAD SWAP1 POP EQ ISZERO PUSH2 0x89B JUMPI PUSH1 0x40 MLOAD PUSH32 0x8C379A000000000000000000000000000000000000000000000000000000000 DUP2 MSTORE PUSH1 0x4 ADD PUSH2 0x892 SWAP1 PUSH2 0x1BF0 JUMP JUMPDEST PUSH1 0x40 MLOAD DUP1 SWAP2 SUB SWAP1 REVERT JUMPDEST PUSH1 0x0 DUP1 DUP5 DUP2 MSTORE PUSH1 0x20 ADD SWAP1 DUP2 MSTORE PUSH1 0x20 ADD PUSH1 0x0 KECCAK256 DUP1 SLOAD SWAP1 POP SWAP2 POP POP SWAP2 SWAP1 POP JUMP JUMPDEST PUSH1 0x60 DUP2 PUSH1 0x0 DUP1 PUSH1 0x0 DUP4 DUP2 MSTORE PUSH1 0x20 ADD SWAP1 DUP2 MSTORE PUSH1 0x20 ADD PUSH1 0x0 KECCAK256 DUP1 SLOAD SWAP1 POP EQ ISZERO PUSH2 0x915 JUMPI PUSH1 0x40 MLOAD PUSH32 0x8C379A000000000000000000000000000000000000000000000000000000000 DUP2 MSTORE PUSH1 0x4 ADD PUSH2 0x90C SWAP1 PUSH2 0x1BF0 JUMP JUMPDEST PUSH1 0x40 MLOAD DUP1 SWAP2 SUB SWAP1 REVERT JUMPDEST PUSH1 0x0 DUP1 DUP5 DUP2 MSTORE PUSH1 0x20 ADD SWAP1 DUP2 MSTORE PUSH1 0x20 ADD PUSH1 0x0 KECCAK256 DUP1 SLOAD DUP1 PUSH1 0x20 MUL PUSH1 0x20 ADD PUSH1 0x40 MLOAD SWAP1 DUP2 ADD PUSH1 0x40 MSTORE DUP1 SWAP3 SWAP2 SWAP1 DUP2 DUP2 MSTORE PUSH1 0x20 ADD PUSH1 0x0 SWAP1 JUMPDEST DUP3 DUP3 LT ISZERO PUSH2 0xAD8 JUMPI DUP4 DUP3 SWAP1 PUSH1 0x0 MSTORE PUSH1 0x20 PUSH1 0x0 KECCAK256 SWAP1 PUSH1 0x3 MUL ADD PUSH1 0x40 MLOAD DUP1 PUSH1 0x60 ADD PUSH1 0x40 MSTORE SWAP1 DUP2 PUSH1 0x0 DUP3 ADD DUP1 SLOAD PUSH2 0x97A SWAP1 PUSH2 0x1F1D JUMP JUMPDEST DUP1 PUSH1 0x1F ADD PUSH1 0x20 DUP1 SWAP2 DIV MUL PUSH1 0x20 ADD PUSH1 0x40 MLOAD SWAP1 DUP2 ADD PUSH1 0x40 MSTORE DUP1 SWAP3 SWAP2 SWAP1 DUP2 DUP2 MSTORE PUSH1 0x20 ADD DUP3 DUP1 SLOAD PUSH2 0x9A6 SWAP1 PUSH2 0x1F1D JUMP JUMPDEST DUP1 ISZERO PUSH2 0x9F3 JUMPI DUP1 PUSH1 0x1F LT PUSH2 0x9C8 JUMPI PUSH2 0x100 DUP1 DUP4 SLOAD DIV MUL DUP4 MSTORE SWAP2 PUSH1 0x20 ADD SWAP2 PUSH2 0x9F3 JUMP JUMPDEST DUP3 ADD SWAP2 SWAP1 PUSH1 0x0 MSTORE PUSH1 0x20 PUSH1 0x0 KECCAK256 SWAP1 JUMPDEST DUP2 SLOAD DUP2 MSTORE SWAP1 PUSH1 0x1 ADD SWAP1 PUSH1 0x20 ADD DUP1 DUP4 GT PUSH2 0x9D6 JUMPI DUP3 SWAP1 SUB PUSH1 0x1F AND DUP3 ADD SWAP2 JUMPDEST POP POP POP POP POP DUP2 MSTORE PUSH1 0x20 ADD PUSH1 0x1 DUP3 ADD DUP1 SLOAD PUSH2 0xA0C SWAP1 PUSH2 0x1F1D JUMP JUMPDEST DUP1 PUSH1 0x1F ADD PUSH1 0x20 DUP1 SWAP2 DIV MUL PUSH1 0x20 ADD PUSH1 0x40 MLOAD SWAP1 DUP2 ADD PUSH1 0x40 MSTORE DUP1 SWAP3 SWAP2 SWAP1 DUP2 DUP2 MSTORE PUSH1 0x20 ADD DUP3 DUP1 SLOAD PUSH2 0xA38 SWAP1 PUSH2 0x1F1D JUMP JUMPDEST DUP1 ISZERO PUSH2 0xA85 JUMPI DUP1 PUSH1 0x1F LT PUSH2 0xA5A JUMPI PUSH2 0x100 DUP1 DUP4 SLOAD DIV MUL DUP4 MSTORE SWAP2 PUSH1 0x20 ADD SWAP2 PUSH2 0xA85 JUMP JUMPDEST DUP3 ADD SWAP2 SWAP1 PUSH1 0x0 MSTORE PUSH1 0x20 PUSH1 0x0 KECCAK256 SWAP1 JUMPDEST DUP2 SLOAD DUP2 MSTORE SWAP1 PUSH1 0x1 ADD SWAP1 PUSH1 0x20 ADD DUP1 DUP4 GT PUSH2 0xA68 JUMPI DUP3 SWAP1 SUB PUSH1 0x1F AND DUP3 ADD SWAP2 JUMPDEST POP POP POP POP POP DUP2 MSTORE PUSH1 0x20 ADD PUSH1 0x2 DUP3 ADD PUSH1 0x0 SWAP1 SLOAD SWAP1 PUSH2 0x100 EXP SWAP1 DIV PUSH1 0xFF AND PUSH1 0x6 DUP2 GT ISZERO PUSH2 0xAB3 JUMPI PUSH2 0xAB2 PUSH2 0x1FF8 JUMP JUMPDEST JUMPDEST PUSH1 0x6 DUP2 GT ISZERO PUSH2 0xAC5 JUMPI PUSH2 0xAC4 PUSH2 0x1FF8 JUMP JUMPDEST JUMPDEST DUP2 MSTORE POP POP DUP2 MSTORE PUSH1 0x20 ADD SWAP1 PUSH1 0x1 ADD SWAP1 PUSH2 0x947 JUMP JUMPDEST POP POP POP POP SWAP2 POP POP SWAP2 SWAP1 POP JUMP JUMPDEST PUSH1 0x0 PUSH2 0xAF1 DUP3 PUSH1 0x6 PUSH2 0x14D6 JUMP JUMPDEST SWAP1 POP SWAP2 SWAP1 POP JUMP JUMPDEST PUSH1 0x0 PUSH2 0xB05 DUP3 PUSH1 0x4 PUSH2 0x12D9 JUMP JUMPDEST SWAP1 POP SWAP2 SWAP1 POP JUMP JUMPDEST DUP2 PUSH1 0x0 DUP1 PUSH1 0x0 DUP4 DUP2 MSTORE PUSH1 0x20 ADD SWAP1 DUP2 MSTORE PUSH1 0x20 ADD PUSH1 0x0 KECCAK256 DUP1 SLOAD SWAP1 POP EQ ISZERO PUSH2 0xB66 JUMPI PUSH1 0x40 MLOAD PUSH32 0x8C379A000000000000000000000000000000000000000000000000000000000 DUP2 MSTORE PUSH1 0x4 ADD PUSH2 0xB5D SWAP1 PUSH2 0x1BF0 JUMP JUMPDEST PUSH1 0x40 MLOAD DUP1 SWAP2 SUB SWAP1 REVERT JUMPDEST PUSH2 0xB72 DUP4 DUP4 PUSH1 0x2 PUSH2 0x1394 JUMP JUMPDEST POP POP POP JUMP JUMPDEST PUSH1 0x0 DUP1 PUSH1 0x0 DUP1 DUP5 DUP2 MSTORE PUSH1 0x20 ADD SWAP1 DUP2 MSTORE PUSH1 0x20 ADD PUSH1 0x0 KECCAK256 DUP1 SLOAD SWAP1 POP EQ ISZERO SWAP1 POP SWAP2 SWAP1 POP JUMP JUMPDEST DUP2 PUSH1 0x0 DUP1 PUSH1 0x0 DUP4 DUP2 MSTORE PUSH1 0x20 ADD SWAP1 DUP2 MSTORE PUSH1 0x20 ADD PUSH1 0x0 KECCAK256 DUP1 SLOAD SWAP1 POP EQ ISZERO PUSH2 0xBF3 JUMPI PUSH1 0x40 MLOAD PUSH32 0x8C379A000000000000000000000000000000000000000000000000000000000 DUP2 MSTORE PUSH1 0x4 ADD PUSH2 0xBEA SWAP1 PUSH2 0x1BF0 JUMP JUMPDEST PUSH1 0x40 MLOAD DUP1 SWAP2 SUB SWAP1 REVERT JUMPDEST PUSH1 0x0 DUP1 PUSH1 0x0 DUP6 DUP2 MSTORE PUSH1 0x20 ADD SWAP1 DUP2 MSTORE PUSH1 0x20 ADD PUSH1 0x0 KECCAK256 DUP4 DUP2 SLOAD DUP2 LT PUSH2 0xC19 JUMPI PUSH2 0xC18 PUSH2 0x2085 JUMP JUMPDEST JUMPDEST SWAP1 PUSH1 0x0 MSTORE PUSH1 0x20 PUSH1 0x0 KECCAK256 SWAP1 PUSH1 0x3 MUL ADD PUSH1 0x40 MLOAD DUP1 PUSH1 0x60 ADD PUSH1 0x40 MSTORE SWAP1 DUP2 PUSH1 0x0 DUP3 ADD DUP1 SLOAD PUSH2 0xC42 SWAP1 PUSH2 0x1F1D JUMP JUMPDEST DUP1 PUSH1 0x1F ADD PUSH1 0x20 DUP1 SWAP2 DIV MUL PUSH1 0x20 ADD PUSH1 0x40 MLOAD SWAP1 DUP2 ADD PUSH1 0x40 MSTORE DUP1 SWAP3 SWAP2 SWAP1 DUP2 DUP2 MSTORE PUSH1 0x20 ADD DUP3 DUP1 SLOAD PUSH2 0xC6E SWAP1 PUSH2 0x1F1D JUMP JUMPDEST DUP1 ISZERO PUSH2 0xCBB JUMPI DUP1 PUSH1 0x1F LT PUSH2 0xC90 JUMPI PUSH2 0x100 DUP1 DUP4 SLOAD DIV MUL DUP4 MSTORE SWAP2 PUSH1 0x20 ADD SWAP2 PUSH2 0xCBB JUMP JUMPDEST DUP3 ADD SWAP2 SWAP1 PUSH1 0x0 MSTORE PUSH1 0x20 PUSH1 0x0 KECCAK256 SWAP1 JUMPDEST DUP2 SLOAD DUP2 MSTORE SWAP1 PUSH1 0x1 ADD SWAP1 PUSH1 0x20 ADD DUP1 DUP4 GT PUSH2 0xC9E JUMPI DUP3 SWAP1 SUB PUSH1 0x1F AND DUP3 ADD SWAP2 JUMPDEST POP POP POP POP POP DUP2 MSTORE PUSH1 0x20 ADD PUSH1 0x1 DUP3 ADD DUP1 SLOAD PUSH2 0xCD4 SWAP1 PUSH2 0x1F1D JUMP JUMPDEST DUP1 PUSH1 0x1F ADD PUSH1 0x20 DUP1 SWAP2 DIV MUL PUSH1 0x20 ADD PUSH1 0x40 MLOAD SWAP1 DUP2 ADD PUSH1 0x40 MSTORE DUP1 SWAP3 SWAP2 SWAP1 DUP2 DUP2 MSTORE PUSH1 0x20 ADD DUP3 DUP1 SLOAD PUSH2 0xD00 SWAP1 PUSH2 0x1F1D JUMP JUMPDEST DUP1 ISZERO PUSH2 0xD4D JUMPI DUP1 PUSH1 0x1F LT PUSH2 0xD22 JUMPI PUSH2 0x100 DUP1 DUP4 SLOAD DIV MUL DUP4 MSTORE SWAP2 PUSH1 0x20 ADD SWAP2 PUSH2 0xD4D JUMP JUMPDEST DUP3 ADD SWAP2 SWAP1 PUSH1 0x0 MSTORE PUSH1 0x20 PUSH1 0x0 KECCAK256 SWAP1 JUMPDEST DUP2 SLOAD DUP2 MSTORE SWAP1 PUSH1 0x1 ADD SWAP1 PUSH1 0x20 ADD DUP1 DUP4 GT PUSH2 0xD30 JUMPI DUP3 SWAP1 SUB PUSH1 0x1F AND DUP3 ADD SWAP2 JUMPDEST POP POP POP POP POP DUP2 MSTORE PUSH1 0x20 ADD PUSH1 0x2 DUP3 ADD PUSH1 0x0 SWAP1 SLOAD SWAP1 PUSH2 0x100 EXP SWAP1 DIV PUSH1 0xFF AND PUSH1 0x6 DUP2 GT ISZERO PUSH2 0xD7B JUMPI PUSH2 0xD7A PUSH2 0x1FF8 JUMP JUMPDEST JUMPDEST PUSH1 0x6 DUP2 GT ISZERO PUSH2 0xD8D JUMPI PUSH2 0xD8C PUSH2 0x1FF8 JUMP JUMPDEST JUMPDEST DUP2 MSTORE POP POP SWAP1 POP PUSH1 0x0 DUP4 SWAP1 POP JUMPDEST PUSH1 0x1 PUSH1 0x0 DUP1 DUP8 DUP2 MSTORE PUSH1 0x20 ADD SWAP1 DUP2 MSTORE PUSH1 0x20 ADD PUSH1 0x0 KECCAK256 DUP1 SLOAD SWAP1 POP PUSH2 0xDBB SWAP2 SWAP1 PUSH2 0x1E5F JUMP JUMPDEST DUP2 LT ISZERO PUSH2 0xEC5 JUMPI PUSH1 0x0 DUP1 DUP7 DUP2 MSTORE PUSH1 0x20 ADD SWAP1 DUP2 MSTORE PUSH1 0x20 ADD PUSH1 0x0 KECCAK256 PUSH1 0x1 DUP3 PUSH2 0xDE1 SWAP2 SWAP1 PUSH2 0x1E09 JUMP JUMPDEST DUP2 SLOAD DUP2 LT PUSH2 0xDF2 JUMPI PUSH2 0xDF1 PUSH2 0x2085 JUMP JUMPDEST JUMPDEST SWAP1 PUSH1 0x0 MSTORE PUSH1 0x20 PUSH1 0x0 KECCAK256 SWAP1 PUSH1 0x3 MUL ADD PUSH1 0x0 DUP1 DUP8 DUP2 MSTORE PUSH1 0x20 ADD SWAP1 DUP2 MSTORE PUSH1 0x20 ADD PUSH1 0x0 KECCAK256 DUP3 DUP2 SLOAD DUP2 LT PUSH2 0xE24 JUMPI PUSH2 0xE23 PUSH2 0x2085 JUMP JUMPDEST JUMPDEST SWAP1 PUSH1 0x0 MSTORE PUSH1 0x20 PUSH1 0x0 KECCAK256 SWAP1 PUSH1 0x3 MUL ADD PUSH1 0x0 DUP3 ADD DUP2 PUSH1 0x0 ADD SWAP1 DUP1 SLOAD PUSH2 0xE46 SWAP1 PUSH2 0x1F1D JUMP JUMPDEST PUSH2 0xE51 SWAP3 SWAP2 SWAP1 PUSH2 0x1618 JUMP JUMPDEST POP PUSH1 0x1 DUP3 ADD DUP2 PUSH1 0x1 ADD SWAP1 DUP1 SLOAD PUSH2 0xE66 SWAP1 PUSH2 0x1F1D JUMP JUMPDEST PUSH2 0xE71 SWAP3 SWAP2 SWAP1 PUSH2 0x1618 JUMP JUMPDEST POP PUSH1 0x2 DUP3 ADD PUSH1 0x0 SWAP1 SLOAD SWAP1 PUSH2 0x100 EXP SWAP1 DIV PUSH1 0xFF AND DUP2 PUSH1 0x2 ADD PUSH1 0x0 PUSH2 0x100 EXP DUP2 SLOAD DUP2 PUSH1 0xFF MUL NOT AND SWAP1 DUP4 PUSH1 0x6 DUP2 GT ISZERO PUSH2 0xEAA JUMPI PUSH2 0xEA9 PUSH2 0x1FF8 JUMP JUMPDEST JUMPDEST MUL OR SWAP1 SSTORE POP SWAP1 POP POP DUP1 DUP1 PUSH2 0xEBD SWAP1 PUSH2 0x1F80 JUMP JUMPDEST SWAP2 POP POP PUSH2 0xD99 JUMP JUMPDEST POP PUSH1 0x0 DUP1 DUP6 DUP2 MSTORE PUSH1 0x20 ADD SWAP1 DUP2 MSTORE PUSH1 0x20 ADD PUSH1 0x0 KECCAK256 DUP1 SLOAD DUP1 PUSH2 0xEE8 JUMPI PUSH2 0xEE7 PUSH2 0x2056 JUMP JUMPDEST JUMPDEST PUSH1 0x1 SWAP1 SUB DUP2 DUP2 SWAP1 PUSH1 0x0 MSTORE PUSH1 0x20 PUSH1 0x0 KECCAK256 SWAP1 PUSH1 0x3 MUL ADD PUSH1 0x0 DUP1 DUP3 ADD PUSH1 0x0 PUSH2 0xF0D SWAP2 SWAP1 PUSH2 0x16A5 JUMP JUMPDEST PUSH1 0x1 DUP3 ADD PUSH1 0x0 PUSH2 0xF1D SWAP2 SWAP1 PUSH2 0x16A5 JUMP JUMPDEST PUSH1 0x2 DUP3 ADD PUSH1 0x0 PUSH2 0x100 EXP DUP2 SLOAD SWAP1 PUSH1 0xFF MUL NOT AND SWAP1 SSTORE POP POP SWAP1 SSTORE PUSH32 0x6D4454E6395559C04E81910079E267DC2B89DC5C7C0C09BAF1068FFFF6542CE1 DUP5 DUP5 DUP4 PUSH1 0x0 DUP1 DUP10 DUP2 MSTORE PUSH1 0x20 ADD SWAP1 DUP2 MSTORE PUSH1 0x20 ADD PUSH1 0x0 KECCAK256 DUP1 SLOAD SWAP1 POP PUSH1 0x40 MLOAD PUSH2 0xF7F SWAP5 SWAP4 SWAP3 SWAP2 SWAP1 PUSH2 0x1D01 JUMP JUMPDEST PUSH1 0x40 MLOAD DUP1 SWAP2 SUB SWAP1 LOG1 POP POP POP POP JUMP JUMPDEST DUP2 PUSH1 0x0 DUP1 PUSH1 0x0 DUP4 DUP2 MSTORE PUSH1 0x20 ADD SWAP1 DUP2 MSTORE PUSH1 0x20 ADD PUSH1 0x0 KECCAK256 DUP1 SLOAD SWAP1 POP EQ ISZERO PUSH2 0xFE7 JUMPI PUSH1 0x40 MLOAD PUSH32 0x8C379A000000000000000000000000000000000000000000000000000000000 DUP2 MSTORE PUSH1 0x4 ADD PUSH2 0xFDE SWAP1 PUSH2 0x1BF0 JUMP JUMPDEST PUSH1 0x40 MLOAD DUP1 SWAP2 SUB SWAP1 REVERT JUMPDEST PUSH2 0xFF3 DUP4 DUP4 PUSH1 0x3 PUSH2 0x1394 JUMP JUMPDEST POP POP POP JUMP JUMPDEST PUSH1 0x0 PUSH1 0x40 MLOAD DUP1 PUSH1 0x60 ADD PUSH1 0x40 MSTORE DUP1 DUP5 DUP2 MSTORE PUSH1 0x20 ADD DUP4 DUP2 MSTORE PUSH1 0x20 ADD PUSH1 0x1 PUSH1 0x6 DUP2 GT ISZERO PUSH2 0x1025 JUMPI PUSH2 0x1024 PUSH2 0x1FF8 JUMP JUMPDEST JUMPDEST DUP2 MSTORE POP SWAP1 POP PUSH1 0x0 DUP1 DUP6 DUP2 MSTORE PUSH1 0x20 ADD SWAP1 DUP2 MSTORE PUSH1 0x20 ADD PUSH1 0x0 KECCAK256 DUP2 SWAP1 DUP1 PUSH1 0x1 DUP2 SLOAD ADD DUP1 DUP3 SSTORE DUP1 SWAP2 POP POP PUSH1 0x1 SWAP1 SUB SWAP1 PUSH1 0x0 MSTORE PUSH1 0x20 PUSH1 0x0 KECCAK256 SWAP1 PUSH1 0x3 MUL ADD PUSH1 0x0 SWAP1 SWAP2 SWAP1 SWAP2 SWAP1 SWAP2 POP PUSH1 0x0 DUP3 ADD MLOAD DUP2 PUSH1 0x0 ADD SWAP1 DUP1 MLOAD SWAP1 PUSH1 0x20 ADD SWAP1 PUSH2 0x1082 SWAP3 SWAP2 SWAP1 PUSH2 0x1592 JUMP JUMPDEST POP PUSH1 0x20 DUP3 ADD MLOAD DUP2 PUSH1 0x1 ADD SWAP1 DUP1 MLOAD SWAP1 PUSH1 0x20 ADD SWAP1 PUSH2 0x109F SWAP3 SWAP2 SWAP1 PUSH2 0x1592 JUMP JUMPDEST POP PUSH1 0x40 DUP3 ADD MLOAD DUP2 PUSH1 0x2 ADD PUSH1 0x0 PUSH2 0x100 EXP DUP2 SLOAD DUP2 PUSH1 0xFF MUL NOT AND SWAP1 DUP4 PUSH1 0x6 DUP2 GT ISZERO PUSH2 0x10CB JUMPI PUSH2 0x10CA PUSH2 0x1FF8 JUMP JUMPDEST JUMPDEST MUL OR SWAP1 SSTORE POP POP POP PUSH32 0xE5E5840C0784EB00D266BDFB12BC390D99AFA672E3DA23F76EB1A932947BED6 DUP5 DUP3 PUSH1 0x0 DUP1 DUP9 DUP2 MSTORE PUSH1 0x20 ADD SWAP1 DUP2 MSTORE PUSH1 0x20 ADD PUSH1 0x0 KECCAK256 DUP1 SLOAD SWAP1 POP PUSH1 0x40 MLOAD PUSH2 0x111A SWAP4 SWAP3 SWAP2 SWAP1 PUSH2 0x1C2B JUMP JUMPDEST PUSH1 0x40 MLOAD DUP1 SWAP2 SUB SWAP1 LOG1 POP POP POP POP JUMP JUMPDEST DUP2 PUSH1 0x0 DUP1 PUSH1 0x0 DUP4 DUP2 MSTORE PUSH1 0x20 ADD SWAP1 DUP2 MSTORE PUSH1 0x20 ADD PUSH1 0x0 KECCAK256 DUP1 SLOAD SWAP1 POP EQ ISZERO PUSH2 0x1182 JUMPI PUSH1 0x40 MLOAD PUSH32 0x8C379A000000000000000000000000000000000000000000000000000000000 DUP2 MSTORE PUSH1 0x4 ADD PUSH2 0x1179 SWAP1 PUSH2 0x1BF0 JUMP JUMPDEST PUSH1 0x40 MLOAD DUP1 SWAP2 SUB SWAP1 REVERT JUMPDEST PUSH2 0x118E DUP4 DUP4 PUSH1 0x6 PUSH2 0x1394 JUMP JUMPDEST POP POP POP JUMP JUMPDEST PUSH1 0x0 JUMPDEST PUSH1 0x0 DUP1 DUP4 DUP2 MSTORE PUSH1 0x20 ADD SWAP1 DUP2 MSTORE PUSH1 0x20 ADD PUSH1 0x0 KECCAK256 DUP1 SLOAD SWAP1 POP DUP2 LT ISZERO PUSH2 0x11D2 JUMPI PUSH2 0x11BF DUP3 DUP3 PUSH1 0x1 PUSH2 0x1394 JUMP JUMPDEST DUP1 DUP1 PUSH2 0x11CA SWAP1 PUSH2 0x1F80 JUMP JUMPDEST SWAP2 POP POP PUSH2 0x1196 JUMP JUMPDEST POP POP JUMP JUMPDEST PUSH1 0x0 DUP3 PUSH1 0x0 DUP1 PUSH1 0x0 DUP4 DUP2 MSTORE PUSH1 0x20 ADD SWAP1 DUP2 MSTORE PUSH1 0x20 ADD PUSH1 0x0 KECCAK256 DUP1 SLOAD SWAP1 POP EQ ISZERO PUSH2 0x1232 JUMPI PUSH1 0x40 MLOAD PUSH32 0x8C379A000000000000000000000000000000000000000000000000000000000 DUP2 MSTORE PUSH1 0x4 ADD PUSH2 0x1229 SWAP1 PUSH2 0x1BF0 JUMP JUMPDEST PUSH1 0x40 MLOAD DUP1 SWAP2 SUB SWAP1 REVERT JUMPDEST DUP4 DUP4 PUSH1 0x0 DUP1 DUP4 DUP2 MSTORE PUSH1 0x20 ADD SWAP1 DUP2 MSTORE PUSH1 0x20 ADD PUSH1 0x0 KECCAK256 DUP1 SLOAD SWAP1 POP DUP2 LT PUSH2 0x128B JUMPI PUSH1 0x40 MLOAD PUSH32 0x8C379A000000000000000000000000000000000000000000000000000000000 DUP2 MSTORE PUSH1 0x4 ADD PUSH2 0x1282 SWAP1 PUSH2 0x1BD0 JUMP JUMPDEST PUSH1 0x40 MLOAD DUP1 SWAP2 SUB SWAP1 REVERT JUMPDEST PUSH1 0x0 DUP1 DUP8 DUP2 MSTORE PUSH1 0x20 ADD SWAP1 DUP2 MSTORE PUSH1 0x20 ADD PUSH1 0x0 KECCAK256 DUP6 DUP2 SLOAD DUP2 LT PUSH2 0x12AF JUMPI PUSH2 0x12AE PUSH2 0x2085 JUMP JUMPDEST JUMPDEST SWAP1 PUSH1 0x0 MSTORE PUSH1 0x20 PUSH1 0x0 KECCAK256 SWAP1 PUSH1 0x3 MUL ADD PUSH1 0x2 ADD PUSH1 0x0 SWAP1 SLOAD SWAP1 PUSH2 0x100 EXP SWAP1 DIV PUSH1 0xFF AND SWAP4 POP POP POP POP SWAP3 SWAP2 POP POP JUMP JUMPDEST PUSH1 0x0 DUP1 PUSH1 0x0 SWAP1 POP JUMPDEST PUSH1 0x0 DUP1 DUP6 DUP2 MSTORE PUSH1 0x20 ADD SWAP1 DUP2 MSTORE PUSH1 0x20 ADD PUSH1 0x0 KECCAK256 DUP1 SLOAD SWAP1 POP DUP2 LT ISZERO PUSH2 0x1388 JUMPI DUP3 PUSH1 0x6 DUP2 GT ISZERO PUSH2 0x1311 JUMPI PUSH2 0x1310 PUSH2 0x1FF8 JUMP JUMPDEST JUMPDEST PUSH1 0x0 DUP1 DUP7 DUP2 MSTORE PUSH1 0x20 ADD SWAP1 DUP2 MSTORE PUSH1 0x20 ADD PUSH1 0x0 KECCAK256 DUP3 DUP2 SLOAD DUP2 LT PUSH2 0x1335 JUMPI PUSH2 0x1334 PUSH2 0x2085 JUMP JUMPDEST JUMPDEST SWAP1 PUSH1 0x0 MSTORE PUSH1 0x20 PUSH1 0x0 KECCAK256 SWAP1 PUSH1 0x3 MUL ADD PUSH1 0x2 ADD PUSH1 0x0 SWAP1 SLOAD SWAP1 PUSH2 0x100 EXP SWAP1 DIV PUSH1 0xFF AND PUSH1 0x6 DUP2 GT ISZERO PUSH2 0x1366 JUMPI PUSH2 0x1365 PUSH2 0x1FF8 JUMP JUMPDEST JUMPDEST EQ PUSH2 0x1375 JUMPI PUSH1 0x0 SWAP2 POP POP PUSH2 0x138E JUMP JUMPDEST DUP1 DUP1 PUSH2 0x1380 SWAP1 PUSH2 0x1F80 JUMP JUMPDEST SWAP2 POP POP PUSH2 0x12E1 JUMP JUMPDEST POP PUSH1 0x1 SWAP1 POP JUMPDEST SWAP3 SWAP2 POP POP JUMP JUMPDEST DUP3 PUSH1 0x0 DUP1 PUSH1 0x0 DUP4 DUP2 MSTORE PUSH1 0x20 ADD SWAP1 DUP2 MSTORE PUSH1 0x20 ADD PUSH1 0x0 KECCAK256 DUP1 SLOAD SWAP1 POP EQ ISZERO PUSH2 0x13EE JUMPI PUSH1 0x40 MLOAD PUSH32 0x8C379A000000000000000000000000000000000000000000000000000000000 DUP2 MSTORE PUSH1 0x4 ADD PUSH2 0x13E5 SWAP1 PUSH2 0x1BF0 JUMP JUMPDEST PUSH1 0x40 MLOAD DUP1 SWAP2 SUB SWAP1 REVERT JUMPDEST PUSH1 0x0 DUP1 PUSH1 0x0 DUP7 DUP2 MSTORE PUSH1 0x20 ADD SWAP1 DUP2 MSTORE PUSH1 0x20 ADD PUSH1 0x0 KECCAK256 DUP5 DUP2 SLOAD DUP2 LT PUSH2 0x1414 JUMPI PUSH2 0x1413 PUSH2 0x2085 JUMP JUMPDEST JUMPDEST SWAP1 PUSH1 0x0 MSTORE PUSH1 0x20 PUSH1 0x0 KECCAK256 SWAP1 PUSH1 0x3 MUL ADD PUSH1 0x2 ADD PUSH1 0x0 SWAP1 SLOAD SWAP1 PUSH2 0x100 EXP SWAP1 DIV PUSH1 0xFF AND SWAP1 POP DUP3 PUSH1 0x0 DUP1 DUP8 DUP2 MSTORE PUSH1 0x20 ADD SWAP1 DUP2 MSTORE PUSH1 0x20 ADD PUSH1 0x0 KECCAK256 DUP6 DUP2 SLOAD DUP2 LT PUSH2 0x145A JUMPI PUSH2 0x1459 PUSH2 0x2085 JUMP JUMPDEST JUMPDEST SWAP1 PUSH1 0x0 MSTORE PUSH1 0x20 PUSH1 0x0 KECCAK256 SWAP1 PUSH1 0x3 MUL ADD PUSH1 0x2 ADD PUSH1 0x0 PUSH2 0x100 EXP DUP2 SLOAD DUP2 PUSH1 0xFF MUL NOT AND SWAP1 DUP4 PUSH1 0x6 DUP2 GT ISZERO PUSH2 0x148D JUMPI PUSH2 0x148C PUSH2 0x1FF8 JUMP JUMPDEST JUMPDEST MUL OR SWAP1 SSTORE POP PUSH32 0xA4E86334F55642D44167E3603AA4F62296DEDBC45291B004F14978BB96DAEA7B DUP6 DUP6 DUP4 DUP7 PUSH1 0x40 MLOAD PUSH2 0x14C7 SWAP5 SWAP4 SWAP3 SWAP2 SWAP1 PUSH2 0x1C69 JUMP JUMPDEST PUSH1 0x40 MLOAD DUP1 SWAP2 SUB SWAP1 LOG1 POP POP POP POP POP JUMP JUMPDEST PUSH1 0x0 DUP1 PUSH1 0x0 SWAP1 POP JUMPDEST PUSH1 0x0 DUP1 DUP6 DUP2 MSTORE PUSH1 0x20 ADD SWAP1 DUP2 MSTORE PUSH1 0x20 ADD PUSH1 0x0 KECCAK256 DUP1 SLOAD SWAP1 POP DUP2 LT ISZERO PUSH2 0x1586 JUMPI DUP3 PUSH1 0x6 DUP2 GT ISZERO PUSH2 0x150E JUMPI PUSH2 0x150D PUSH2 0x1FF8 JUMP JUMPDEST JUMPDEST PUSH1 0x0 DUP1 DUP7 DUP2 MSTORE PUSH1 0x20 ADD SWAP1 DUP2 MSTORE PUSH1 0x20 ADD PUSH1 0x0 KECCAK256 DUP3 DUP2 SLOAD DUP2 LT PUSH2 0x1532 JUMPI PUSH2 0x1531 PUSH2 0x2085 JUMP JUMPDEST JUMPDEST SWAP1 PUSH1 0x0 MSTORE PUSH1 0x20 PUSH1 0x0 KECCAK256 SWAP1 PUSH1 0x3 MUL ADD PUSH1 0x2 ADD PUSH1 0x0 SWAP1 SLOAD SWAP1 PUSH2 0x100 EXP SWAP1 DIV PUSH1 0xFF AND PUSH1 0x6 DUP2 GT ISZERO PUSH2 0x1563 JUMPI PUSH2 0x1562 PUSH2 0x1FF8 JUMP JUMPDEST JUMPDEST EQ ISZERO PUSH2 0x1573 JUMPI PUSH1 0x0 SWAP2 POP POP PUSH2 0x158C JUMP JUMPDEST DUP1 DUP1 PUSH2 0x157E SWAP1 PUSH2 0x1F80 JUMP JUMPDEST SWAP2 POP POP PUSH2 0x14DE JUMP JUMPDEST POP PUSH1 0x1 SWAP1 POP JUMPDEST SWAP3 SWAP2 POP POP JUMP JUMPDEST DUP3 DUP1 SLOAD PUSH2 0x159E SWAP1 PUSH2 0x1F1D JUMP JUMPDEST SWAP1 PUSH1 0x0 MSTORE PUSH1 0x20 PUSH1 0x0 KECCAK256 SWAP1 PUSH1 0x1F ADD PUSH1 0x20 SWAP1 DIV DUP2 ADD SWAP3 DUP3 PUSH2 0x15C0 JUMPI PUSH1 0x0 DUP6 SSTORE PUSH2 0x1607 JUMP JUMPDEST DUP3 PUSH1 0x1F LT PUSH2 0x15D9 JUMPI DUP1 MLOAD PUSH1 0xFF NOT AND DUP4 DUP1 ADD OR DUP6 SSTORE PUSH2 0x1607 JUMP JUMPDEST DUP3 DUP1 ADD PUSH1 0x1 ADD DUP6 SSTORE DUP3 ISZERO PUSH2 0x1607 JUMPI SWAP2 DUP3 ADD JUMPDEST DUP3 DUP2 GT ISZERO PUSH2 0x1606 JUMPI DUP3 MLOAD DUP3 SSTORE SWAP2 PUSH1 0x20 ADD SWAP2 SWAP1 PUSH1 0x1 ADD SWAP1 PUSH2 0x15EB JUMP JUMPDEST JUMPDEST POP SWAP1 POP PUSH2 0x1614 SWAP2 SWAP1 PUSH2 0x16E5 JUMP JUMPDEST POP SWAP1 JUMP JUMPDEST DUP3 DUP1 SLOAD PUSH2 0x1624 SWAP1 PUSH2 0x1F1D JUMP JUMPDEST SWAP1 PUSH1 0x0 MSTORE PUSH1 0x20 PUSH1 0x0 KECCAK256 SWAP1 PUSH1 0x1F ADD PUSH1 0x20 SWAP1 DIV DUP2 ADD SWAP3 DUP3 PUSH2 0x1646 JUMPI PUSH1 0x0 DUP6 SSTORE PUSH2 0x1694 JUMP JUMPDEST DUP3 PUSH1 0x1F LT PUSH2 0x1657 JUMPI DUP1 SLOAD DUP6 SSTORE PUSH2 0x1694 JUMP JUMPDEST DUP3 DUP1 ADD PUSH1 0x1 ADD DUP6 SSTORE DUP3 ISZERO PUSH2 0x1694 JUMPI PUSH1 0x0 MSTORE PUSH1 0x20 PUSH1 0x0 KECCAK256 SWAP2 PUSH1 0x1F ADD PUSH1 0x20 SWAP1 DIV DUP3 ADD JUMPDEST DUP3 DUP2 GT ISZERO PUSH2 0x1693 JUMPI DUP3 SLOAD DUP3 SSTORE SWAP2 PUSH1 0x1 ADD SWAP2 SWAP1 PUSH1 0x1 ADD SWAP1 PUSH2 0x1678 JUMP JUMPDEST JUMPDEST POP SWAP1 POP PUSH2 0x16A1 SWAP2 SWAP1 PUSH2 0x16E5 JUMP JUMPDEST POP SWAP1 JUMP JUMPDEST POP DUP1 SLOAD PUSH2 0x16B1 SWAP1 PUSH2 0x1F1D JUMP JUMPDEST PUSH1 0x0 DUP3 SSTORE DUP1 PUSH1 0x1F LT PUSH2 0x16C3 JUMPI POP PUSH2 0x16E2 JUMP JUMPDEST PUSH1 0x1F ADD PUSH1 0x20 SWAP1 DIV SWAP1 PUSH1 0x0 MSTORE PUSH1 0x20 PUSH1 0x0 KECCAK256 SWAP1 DUP2 ADD SWAP1 PUSH2 0x16E1 SWAP2 SWAP1 PUSH2 0x16E5 JUMP JUMPDEST JUMPDEST POP JUMP JUMPDEST JUMPDEST DUP1 DUP3 GT ISZERO PUSH2 0x16FE JUMPI PUSH1 0x0 DUP2 PUSH1 0x0 SWAP1 SSTORE POP PUSH1 0x1 ADD PUSH2 0x16E6 JUMP JUMPDEST POP SWAP1 JUMP JUMPDEST PUSH1 0x0 PUSH2 0x1715 PUSH2 0x1710 DUP5 PUSH2 0x1D72 JUMP JUMPDEST PUSH2 0x1D4D JUMP JUMPDEST SWAP1 POP DUP3 DUP2 MSTORE PUSH1 0x20 DUP2 ADD DUP5 DUP5 DUP5 ADD GT ISZERO PUSH2 0x1731 JUMPI PUSH2 0x1730 PUSH2 0x20E8 JUMP JUMPDEST JUMPDEST PUSH2 0x173C DUP5 DUP3 DUP6 PUSH2 0x1EDB JUMP JUMPDEST POP SWAP4 SWAP3 POP POP POP JUMP JUMPDEST PUSH1 0x0 DUP3 PUSH1 0x1F DUP4 ADD SLT PUSH2 0x1759 JUMPI PUSH2 0x1758 PUSH2 0x20E3 JUMP JUMPDEST JUMPDEST DUP2 CALLDATALOAD PUSH2 0x1769 DUP5 DUP3 PUSH1 0x20 DUP7 ADD PUSH2 0x1702 JUMP JUMPDEST SWAP2 POP POP SWAP3 SWAP2 POP POP JUMP JUMPDEST PUSH1 0x0 DUP2 CALLDATALOAD SWAP1 POP PUSH2 0x1781 DUP2 PUSH2 0x2194 JUMP JUMPDEST SWAP3 SWAP2 POP POP JUMP JUMPDEST PUSH1 0x0 DUP2 CALLDATALOAD SWAP1 POP PUSH2 0x1796 DUP2 PUSH2 0x21AB JUMP JUMPDEST SWAP3 SWAP2 POP POP JUMP JUMPDEST PUSH1 0x0 PUSH1 0x20 DUP3 DUP5 SUB SLT ISZERO PUSH2 0x17B2 JUMPI PUSH2 0x17B1 PUSH2 0x20F2 JUMP JUMPDEST JUMPDEST PUSH1 0x0 PUSH2 0x17C0 DUP5 DUP3 DUP6 ADD PUSH2 0x1772 JUMP JUMPDEST SWAP2 POP POP SWAP3 SWAP2 POP POP JUMP JUMPDEST PUSH1 0x0 DUP1 PUSH1 0x0 PUSH1 0x60 DUP5 DUP7 SUB SLT ISZERO PUSH2 0x17E2 JUMPI PUSH2 0x17E1 PUSH2 0x20F2 JUMP JUMPDEST JUMPDEST PUSH1 0x0 PUSH2 0x17F0 DUP7 DUP3 DUP8 ADD PUSH2 0x1772 JUMP JUMPDEST SWAP4 POP POP PUSH1 0x20 DUP5 ADD CALLDATALOAD PUSH8 0xFFFFFFFFFFFFFFFF DUP2 GT ISZERO PUSH2 0x1811 JUMPI PUSH2 0x1810 PUSH2 0x20ED JUMP JUMPDEST JUMPDEST PUSH2 0x181D DUP7 DUP3 DUP8 ADD PUSH2 0x1744 JUMP JUMPDEST SWAP3 POP POP PUSH1 0x40 DUP5 ADD CALLDATALOAD PUSH8 0xFFFFFFFFFFFFFFFF DUP2 GT ISZERO PUSH2 0x183E JUMPI PUSH2 0x183D PUSH2 0x20ED JUMP JUMPDEST JUMPDEST PUSH2 0x184A DUP7 DUP3 DUP8 ADD PUSH2 0x1744 JUMP JUMPDEST SWAP2 POP POP SWAP3 POP SWAP3 POP SWAP3 JUMP JUMPDEST PUSH1 0x0 DUP1 PUSH1 0x40 DUP4 DUP6 SUB SLT ISZERO PUSH2 0x186B JUMPI PUSH2 0x186A PUSH2 0x20F2 JUMP JUMPDEST JUMPDEST PUSH1 0x0 PUSH2 0x1879 DUP6 DUP3 DUP7 ADD PUSH2 0x1772 JUMP JUMPDEST SWAP3 POP POP PUSH1 0x20 PUSH2 0x188A DUP6 DUP3 DUP7 ADD PUSH2 0x1772 JUMP JUMPDEST SWAP2 POP POP SWAP3 POP SWAP3 SWAP1 POP JUMP JUMPDEST PUSH1 0x0 DUP1 PUSH1 0x0 DUP1 PUSH1 0x80 DUP6 DUP8 SUB SLT ISZERO PUSH2 0x18AE JUMPI PUSH2 0x18AD PUSH2 0x20F2 JUMP JUMPDEST JUMPDEST PUSH1 0x0 PUSH2 0x18BC DUP8 DUP3 DUP9 ADD PUSH2 0x1772 JUMP JUMPDEST SWAP5 POP POP PUSH1 0x20 PUSH2 0x18CD DUP8 DUP3 DUP9 ADD PUSH2 0x1772 JUMP JUMPDEST SWAP4 POP POP PUSH1 0x40 DUP6 ADD CALLDATALOAD PUSH8 0xFFFFFFFFFFFFFFFF DUP2 GT ISZERO PUSH2 0x18EE JUMPI PUSH2 0x18ED PUSH2 0x20ED JUMP JUMPDEST JUMPDEST PUSH2 0x18FA DUP8 DUP3 DUP9 ADD PUSH2 0x1744 JUMP JUMPDEST SWAP3 POP POP PUSH1 0x60 DUP6 ADD CALLDATALOAD PUSH8 0xFFFFFFFFFFFFFFFF DUP2 GT ISZERO PUSH2 0x191B JUMPI PUSH2 0x191A PUSH2 0x20ED JUMP JUMPDEST JUMPDEST PUSH2 0x1927 DUP8 DUP3 DUP9 ADD PUSH2 0x1744 JUMP JUMPDEST SWAP2 POP POP SWAP3 SWAP6 SWAP2 SWAP5 POP SWAP3 POP JUMP JUMPDEST PUSH1 0x0 DUP1 PUSH1 0x0 PUSH1 0x60 DUP5 DUP7 SUB SLT ISZERO PUSH2 0x194C JUMPI PUSH2 0x194B PUSH2 0x20F2 JUMP JUMPDEST JUMPDEST PUSH1 0x0 PUSH2 0x195A DUP7 DUP3 DUP8 ADD PUSH2 0x1772 JUMP JUMPDEST SWAP4 POP POP PUSH1 0x20 PUSH2 0x196B DUP7 DUP3 DUP8 ADD PUSH2 0x1772 JUMP JUMPDEST SWAP3 POP POP PUSH1 0x40 PUSH2 0x197C DUP7 DUP3 DUP8 ADD PUSH2 0x1787 JUMP JUMPDEST SWAP2 POP POP SWAP3 POP SWAP3 POP SWAP3 JUMP JUMPDEST PUSH1 0x0 PUSH2 0x1992 DUP4 DUP4 PUSH2 0x1ABB JUMP JUMPDEST SWAP1 POP SWAP3 SWAP2 POP POP JUMP JUMPDEST PUSH1 0x0 PUSH2 0x19A5 DUP3 PUSH2 0x1DB3 JUMP JUMPDEST PUSH2 0x19AF DUP2 DUP6 PUSH2 0x1DD6 JUMP JUMPDEST SWAP4 POP DUP4 PUSH1 0x20 DUP3 MUL DUP6 ADD PUSH2 0x19C1 DUP6 PUSH2 0x1DA3 JUMP JUMPDEST DUP1 PUSH1 0x0 JUMPDEST DUP6 DUP2 LT ISZERO PUSH2 0x19FD JUMPI DUP5 DUP5 SUB DUP10 MSTORE DUP2 MLOAD PUSH2 0x19DE DUP6 DUP3 PUSH2 0x1986 JUMP JUMPDEST SWAP5 POP PUSH2 0x19E9 DUP4 PUSH2 0x1DC9 JUMP JUMPDEST SWAP3 POP PUSH1 0x20 DUP11 ADD SWAP10 POP POP PUSH1 0x1 DUP2 ADD SWAP1 POP PUSH2 0x19C5 JUMP JUMPDEST POP DUP3 SWAP8 POP DUP8 SWAP6 POP POP POP POP POP POP SWAP3 SWAP2 POP POP JUMP JUMPDEST PUSH2 0x1A18 DUP2 PUSH2 0x1E93 JUMP JUMPDEST DUP3 MSTORE POP POP JUMP JUMPDEST PUSH2 0x1A27 DUP2 PUSH2 0x1EC9 JUMP JUMPDEST DUP3 MSTORE POP POP JUMP JUMPDEST PUSH2 0x1A36 DUP2 PUSH2 0x1EC9 JUMP JUMPDEST DUP3 MSTORE POP POP JUMP JUMPDEST PUSH1 0x0 PUSH2 0x1A47 DUP3 PUSH2 0x1DBE JUMP JUMPDEST PUSH2 0x1A51 DUP2 DUP6 PUSH2 0x1DE7 JUMP JUMPDEST SWAP4 POP PUSH2 0x1A61 DUP2 DUP6 PUSH1 0x20 DUP7 ADD PUSH2 0x1EEA JUMP JUMPDEST PUSH2 0x1A6A DUP2 PUSH2 0x20F7 JUMP JUMPDEST DUP5 ADD SWAP2 POP POP SWAP3 SWAP2 POP POP JUMP JUMPDEST PUSH1 0x0 PUSH2 0x1A82 PUSH1 0x1D DUP4 PUSH2 0x1DF8 JUMP JUMPDEST SWAP2 POP PUSH2 0x1A8D DUP3 PUSH2 0x2108 JUMP JUMPDEST PUSH1 0x20 DUP3 ADD SWAP1 POP SWAP2 SWAP1 POP JUMP JUMPDEST PUSH1 0x0 PUSH2 0x1AA5 PUSH1 0x24 DUP4 PUSH2 0x1DF8 JUMP JUMPDEST SWAP2 POP PUSH2 0x1AB0 DUP3 PUSH2 0x2131 JUMP JUMPDEST PUSH1 0x40 DUP3 ADD SWAP1 POP SWAP2 SWAP1 POP JUMP JUMPDEST PUSH1 0x0 PUSH1 0x60 DUP4 ADD PUSH1 0x0 DUP4 ADD MLOAD DUP5 DUP3 SUB PUSH1 0x0 DUP7 ADD MSTORE PUSH2 0x1AD8 DUP3 DUP3 PUSH2 0x1A3C JUMP JUMPDEST SWAP2 POP POP PUSH1 0x20 DUP4 ADD MLOAD DUP5 DUP3 SUB PUSH1 0x20 DUP7 ADD MSTORE PUSH2 0x1AF2 DUP3 DUP3 PUSH2 0x1A3C JUMP JUMPDEST SWAP2 POP POP PUSH1 0x40 DUP4 ADD MLOAD PUSH2 0x1B07 PUSH1 0x40 DUP7 ADD DUP3 PUSH2 0x1A1E JUMP JUMPDEST POP DUP1 SWAP2 POP POP SWAP3 SWAP2 POP POP JUMP JUMPDEST PUSH1 0x0 PUSH1 0x60 DUP4 ADD PUSH1 0x0 DUP4 ADD MLOAD DUP5 DUP3 SUB PUSH1 0x0 DUP7 ADD MSTORE PUSH2 0x1B2F DUP3 DUP3 PUSH2 0x1A3C JUMP JUMPDEST SWAP2 POP POP PUSH1 0x20 DUP4 ADD MLOAD DUP5 DUP3 SUB PUSH1 0x20 DUP7 ADD MSTORE PUSH2 0x1B49 DUP3 DUP3 PUSH2 0x1A3C JUMP JUMPDEST SWAP2 POP POP PUSH1 0x40 DUP4 ADD MLOAD PUSH2 0x1B5E PUSH1 0x40 DUP7 ADD DUP3 PUSH2 0x1A1E JUMP JUMPDEST POP DUP1 SWAP2 POP POP SWAP3 SWAP2 POP POP JUMP JUMPDEST PUSH2 0x1B72 DUP2 PUSH2 0x1EB2 JUMP JUMPDEST DUP3 MSTORE POP POP JUMP JUMPDEST PUSH1 0x0 PUSH1 0x20 DUP3 ADD SWAP1 POP DUP2 DUP2 SUB PUSH1 0x0 DUP4 ADD MSTORE PUSH2 0x1B92 DUP2 DUP5 PUSH2 0x199A JUMP JUMPDEST SWAP1 POP SWAP3 SWAP2 POP POP JUMP JUMPDEST PUSH1 0x0 PUSH1 0x20 DUP3 ADD SWAP1 POP PUSH2 0x1BAF PUSH1 0x0 DUP4 ADD DUP5 PUSH2 0x1A0F JUMP JUMPDEST SWAP3 SWAP2 POP POP JUMP JUMPDEST PUSH1 0x0 PUSH1 0x20 DUP3 ADD SWAP1 POP PUSH2 0x1BCA PUSH1 0x0 DUP4 ADD DUP5 PUSH2 0x1A2D JUMP JUMPDEST SWAP3 SWAP2 POP POP JUMP JUMPDEST PUSH1 0x0 PUSH1 0x20 DUP3 ADD SWAP1 POP DUP2 DUP2 SUB PUSH1 0x0 DUP4 ADD MSTORE PUSH2 0x1BE9 DUP2 PUSH2 0x1A75 JUMP JUMPDEST SWAP1 POP SWAP2 SWAP1 POP JUMP JUMPDEST PUSH1 0x0 PUSH1 0x20 DUP3 ADD SWAP1 POP DUP2 DUP2 SUB PUSH1 0x0 DUP4 ADD MSTORE PUSH2 0x1C09 DUP2 PUSH2 0x1A98 JUMP JUMPDEST SWAP1 POP SWAP2 SWAP1 POP JUMP JUMPDEST PUSH1 0x0 PUSH1 0x20 DUP3 ADD SWAP1 POP PUSH2 0x1C25 PUSH1 0x0 DUP4 ADD DUP5 PUSH2 0x1B69 JUMP JUMPDEST SWAP3 SWAP2 POP POP JUMP JUMPDEST PUSH1 0x0 PUSH1 0x60 DUP3 ADD SWAP1 POP PUSH2 0x1C40 PUSH1 0x0 DUP4 ADD DUP7 PUSH2 0x1B69 JUMP JUMPDEST DUP2 DUP2 SUB PUSH1 0x20 DUP4 ADD MSTORE PUSH2 0x1C52 DUP2 DUP6 PUSH2 0x1B12 JUMP JUMPDEST SWAP1 POP PUSH2 0x1C61 PUSH1 0x40 DUP4 ADD DUP5 PUSH2 0x1B69 JUMP JUMPDEST SWAP5 SWAP4 POP POP POP POP JUMP JUMPDEST PUSH1 0x0 PUSH1 0x80 DUP3 ADD SWAP1 POP PUSH2 0x1C7E PUSH1 0x0 DUP4 ADD DUP8 PUSH2 0x1B69 JUMP JUMPDEST PUSH2 0x1C8B PUSH1 0x20 DUP4 ADD DUP7 PUSH2 0x1B69 JUMP JUMPDEST PUSH2 0x1C98 PUSH1 0x40 DUP4 ADD DUP6 PUSH2 0x1A2D JUMP JUMPDEST PUSH2 0x1CA5 PUSH1 0x60 DUP4 ADD DUP5 PUSH2 0x1A2D JUMP JUMPDEST SWAP6 SWAP5 POP POP POP POP POP JUMP JUMPDEST PUSH1 0x0 PUSH1 0x80 DUP3 ADD SWAP1 POP PUSH2 0x1CC3 PUSH1 0x0 DUP4 ADD DUP8 PUSH2 0x1B69 JUMP JUMPDEST PUSH2 0x1CD0 PUSH1 0x20 DUP4 ADD DUP7 PUSH2 0x1B69 JUMP JUMPDEST DUP2 DUP2 SUB PUSH1 0x40 DUP4 ADD MSTORE PUSH2 0x1CE2 DUP2 DUP6 PUSH2 0x1B12 JUMP JUMPDEST SWAP1 POP DUP2 DUP2 SUB PUSH1 0x60 DUP4 ADD MSTORE PUSH2 0x1CF6 DUP2 DUP5 PUSH2 0x1B12 JUMP JUMPDEST SWAP1 POP SWAP6 SWAP5 POP POP POP POP POP JUMP JUMPDEST PUSH1 0x0 PUSH1 0x80 DUP3 ADD SWAP1 POP PUSH2 0x1D16 PUSH1 0x0 DUP4 ADD DUP8 PUSH2 0x1B69 JUMP JUMPDEST PUSH2 0x1D23 PUSH1 0x20 DUP4 ADD DUP7 PUSH2 0x1B69 JUMP JUMPDEST DUP2 DUP2 SUB PUSH1 0x40 DUP4 ADD MSTORE PUSH2 0x1D35 DUP2 DUP6 PUSH2 0x1B12 JUMP JUMPDEST SWAP1 POP PUSH2 0x1D44 PUSH1 0x60 DUP4 ADD DUP5 PUSH2 0x1B69 JUMP JUMPDEST SWAP6 SWAP5 POP POP POP POP POP JUMP JUMPDEST PUSH1 0x0 PUSH2 0x1D57 PUSH2 0x1D68 JUMP JUMPDEST SWAP1 POP PUSH2 0x1D63 DUP3 DUP3 PUSH2 0x1F4F JUMP JUMPDEST SWAP2 SWAP1 POP JUMP JUMPDEST PUSH1 0x0 PUSH1 0x40 MLOAD SWAP1 POP SWAP1 JUMP JUMPDEST PUSH1 0x0 PUSH8 0xFFFFFFFFFFFFFFFF DUP3 GT ISZERO PUSH2 0x1D8D JUMPI PUSH2 0x1D8C PUSH2 0x20B4 JUMP JUMPDEST JUMPDEST PUSH2 0x1D96 DUP3 PUSH2 0x20F7 JUMP JUMPDEST SWAP1 POP PUSH1 0x20 DUP2 ADD SWAP1 POP SWAP2 SWAP1 POP JUMP JUMPDEST PUSH1 0x0 DUP2 SWAP1 POP PUSH1 0x20 DUP3 ADD SWAP1 POP SWAP2 SWAP1 POP JUMP JUMPDEST PUSH1 0x0 DUP2 MLOAD SWAP1 POP SWAP2 SWAP1 POP JUMP JUMPDEST PUSH1 0x0 DUP2 MLOAD SWAP1 POP SWAP2 SWAP1 POP JUMP JUMPDEST PUSH1 0x0 PUSH1 0x20 DUP3 ADD SWAP1 POP SWAP2 SWAP1 POP JUMP JUMPDEST PUSH1 0x0 DUP3 DUP3 MSTORE PUSH1 0x20 DUP3 ADD SWAP1 POP SWAP3 SWAP2 POP POP JUMP JUMPDEST PUSH1 0x0 DUP3 DUP3 MSTORE PUSH1 0x20 DUP3 ADD SWAP1 POP SWAP3 SWAP2 POP POP JUMP JUMPDEST PUSH1 0x0 DUP3 DUP3 MSTORE PUSH1 0x20 DUP3 ADD SWAP1 POP SWAP3 SWAP2 POP POP JUMP JUMPDEST PUSH1 0x0 PUSH2 0x1E14 DUP3 PUSH2 0x1EB2 JUMP JUMPDEST SWAP2 POP PUSH2 0x1E1F DUP4 PUSH2 0x1EB2 JUMP JUMPDEST SWAP3 POP DUP3 PUSH32 0xFFFFFFFFFFFFFFFFFFFFFFFFFFFFFFFFFFFFFFFFFFFFFFFFFFFFFFFFFFFFFFFF SUB DUP3 GT ISZERO PUSH2 0x1E54 JUMPI PUSH2 0x1E53 PUSH2 0x1FC9 JUMP JUMPDEST JUMPDEST DUP3 DUP3 ADD SWAP1 POP SWAP3 SWAP2 POP POP JUMP JUMPDEST PUSH1 0x0 PUSH2 0x1E6A DUP3 PUSH2 0x1EB2 JUMP JUMPDEST SWAP2 POP PUSH2 0x1E75 DUP4 PUSH2 0x1EB2 JUMP JUMPDEST SWAP3 POP DUP3 DUP3 LT ISZERO PUSH2 0x1E88 JUMPI PUSH2 0x1E87 PUSH2 0x1FC9 JUMP JUMPDEST JUMPDEST DUP3 DUP3 SUB SWAP1 POP SWAP3 SWAP2 POP POP JUMP JUMPDEST PUSH1 0x0 DUP2 ISZERO ISZERO SWAP1 POP SWAP2 SWAP1 POP JUMP JUMPDEST PUSH1 0x0 DUP2 SWAP1 POP PUSH2 0x1EAD DUP3 PUSH2 0x2180 JUMP JUMPDEST SWAP2 SWAP1 POP JUMP JUMPDEST PUSH1 0x0 DUP2 SWAP1 POP SWAP2 SWAP1 POP JUMP JUMPDEST PUSH1 0x0 PUSH1 0xFF DUP3 AND SWAP1 POP SWAP2 SWAP1 POP JUMP JUMPDEST PUSH1 0x0 PUSH2 0x1ED4 DUP3 PUSH2 0x1E9F JUMP JUMPDEST SWAP1 POP SWAP2 SWAP1 POP JUMP JUMPDEST DUP3 DUP2 DUP4 CALLDATACOPY PUSH1 0x0 DUP4 DUP4 ADD MSTORE POP POP POP JUMP JUMPDEST PUSH1 0x0 JUMPDEST DUP4 DUP2 LT ISZERO PUSH2 0x1F08 JUMPI DUP1 DUP3 ADD MLOAD DUP2 DUP5 ADD MSTORE PUSH1 0x20 DUP2 ADD SWAP1 POP PUSH2 0x1EED JUMP JUMPDEST DUP4 DUP2 GT ISZERO PUSH2 0x1F17 JUMPI PUSH1 0x0 DUP5 DUP5 ADD MSTORE JUMPDEST POP POP POP POP JUMP JUMPDEST PUSH1 0x0 PUSH1 0x2 DUP3 DIV SWAP1 POP PUSH1 0x1 DUP3 AND DUP1 PUSH2 0x1F35 JUMPI PUSH1 0x7F DUP3 AND SWAP2 POP JUMPDEST PUSH1 0x20 DUP3 LT DUP2 EQ ISZERO PUSH2 0x1F49 JUMPI PUSH2 0x1F48 PUSH2 0x2027 JUMP JUMPDEST JUMPDEST POP SWAP2 SWAP1 POP JUMP JUMPDEST PUSH2 0x1F58 DUP3 PUSH2 0x20F7 JUMP JUMPDEST DUP2 ADD DUP2 DUP2 LT PUSH8 0xFFFFFFFFFFFFFFFF DUP3 GT OR ISZERO PUSH2 0x1F77 JUMPI PUSH2 0x1F76 PUSH2 0x20B4 JUMP JUMPDEST JUMPDEST DUP1 PUSH1 0x40 MSTORE POP POP POP JUMP JUMPDEST PUSH1 0x0 PUSH2 0x1F8B DUP3 PUSH2 0x1EB2 JUMP JUMPDEST SWAP2 POP PUSH32 0xFFFFFFFFFFFFFFFFFFFFFFFFFFFFFFFFFFFFFFFFFFFFFFFFFFFFFFFFFFFFFFFF DUP3 EQ ISZERO PUSH2 0x1FBE JUMPI PUSH2 0x1FBD PUSH2 0x1FC9 JUMP JUMPDEST JUMPDEST PUSH1 0x1 DUP3 ADD SWAP1 POP SWAP2 SWAP1 POP JUMP JUMPDEST PUSH32 0x4E487B7100000000000000000000000000000000000000000000000000000000 PUSH1 0x0 MSTORE PUSH1 0x11 PUSH1 0x4 MSTORE PUSH1 0x24 PUSH1 0x0 REVERT JUMPDEST PUSH32 0x4E487B7100000000000000000000000000000000000000000000000000000000 PUSH1 0x0 MSTORE PUSH1 0x21 PUSH1 0x4 MSTORE PUSH1 0x24 PUSH1 0x0 REVERT JUMPDEST PUSH32 0x4E487B7100000000000000000000000000000000000000000000000000000000 PUSH1 0x0 MSTORE PUSH1 0x22 PUSH1 0x4 MSTORE PUSH1 0x24 PUSH1 0x0 REVERT JUMPDEST PUSH32 0x4E487B7100000000000000000000000000000000000000000000000000000000 PUSH1 0x0 MSTORE PUSH1 0x31 PUSH1 0x4 MSTORE PUSH1 0x24 PUSH1 0x0 REVERT JUMPDEST PUSH32 0x4E487B7100000000000000000000000000000000000000000000000000000000 PUSH1 0x0 MSTORE PUSH1 0x32 PUSH1 0x4 MSTORE PUSH1 0x24 PUSH1 0x0 REVERT JUMPDEST PUSH32 0x4E487B7100000000000000000000000000000000000000000000000000000000 PUSH1 0x0 MSTORE PUSH1 0x41 PUSH1 0x4 MSTORE PUSH1 0x24 PUSH1 0x0 REVERT JUMPDEST PUSH1 0x0 DUP1 REVERT JUMPDEST PUSH1 0x0 DUP1 REVERT JUMPDEST PUSH1 0x0 DUP1 REVERT JUMPDEST PUSH1 0x0 DUP1 REVERT JUMPDEST PUSH1 0x0 PUSH1 0x1F NOT PUSH1 0x1F DUP4 ADD AND SWAP1 POP SWAP2 SWAP1 POP JUMP JUMPDEST PUSH32 0x4D696C6573746F6E65206E756D626572206F7574206F662072616E6765000000 PUSH1 0x0 DUP3 ADD MSTORE POP JUMP JUMPDEST PUSH32 0x4D696C6573746F6E65732068617665206E6F74206265656E2063726561746564 PUSH1 0x0 DUP3 ADD MSTORE PUSH32 0x2079657400000000000000000000000000000000000000000000000000000000 PUSH1 0x20 DUP3 ADD MSTORE POP JUMP JUMPDEST PUSH1 0x7 DUP2 LT PUSH2 0x2191 JUMPI PUSH2 0x2190 PUSH2 0x1FF8 JUMP JUMPDEST JUMPDEST POP JUMP JUMPDEST PUSH2 0x219D DUP2 PUSH2 0x1EB2 JUMP JUMPDEST DUP2 EQ PUSH2 0x21A8 JUMPI PUSH1 0x0 DUP1 REVERT JUMPDEST POP JUMP JUMPDEST PUSH2 0x21B4 DUP2 PUSH2 0x1EBC JUMP JUMPDEST DUP2 EQ PUSH2 0x21BF JUMPI PUSH1 0x0 DUP1 REVERT JUMPDEST POP JUMP INVALID LOG2 PUSH5 0x6970667358 0x22 SLT KECCAK256 PUSH25 0xE736670F42CC6E1C1FBEF772AD9219F32E30D7C3798D5B8581 0x29 0xDE 0xD8 0xB6 PUSH8 0x7064736F6C634300 ADDMOD SMOD STOP CALLER "
				},
				"gasEstimates": {
					"creation": {
						"codeDepositCost": "1739200",
						"executionCost": "1827",
						"totalCost": "1741027"
					},
					"external": {
						"checkAllMilestoneApproved(uint256)": "infinite",
						"checkAllMilestoneCompleted(uint256)": "infinite",
						"checkAllMilestoneVerified(uint256)": "infinite",
						"checkAnyMilestoneConflict(uint256)": "infinite",
						"checkMilestoneStatus(uint256,uint256,uint8)": "infinite",
						"checkMinMilestoneCreated(uint256)": "2870",
						"createMilestone(uint256,string,string)": "infinite",
						"deleteMilestone(uint256,uint256)": "infinite",
						"getAllMilestone(uint256)": "infinite",
						"getMilestoneStatus(uint256,uint256)": "infinite",
						"getTotalNumMilestones(uint256)": "infinite",
						"updateAllMilestonePending(uint256)": "infinite",
						"updateMilestone(uint256,uint256,string,string)": "infinite",
						"updateMilestoneApproved(uint256,uint256)": "infinite",
						"updateMilestoneCompleted(uint256,uint256)": "infinite",
						"updateMilestoneConflict(uint256,uint256)": "infinite",
						"updateMilestoneStarted(uint256,uint256)": "infinite",
						"updateMilestoneVerified(uint256,uint256)": "infinite"
					},
					"internal": {
						"checkAllMilestoneStatusMatch(uint256,enum MilestoneOld.Status)": "infinite",
						"checkAnyMilestoneStatusMatch(uint256,enum MilestoneOld.Status)": "infinite",
						"updateMilestoneStatus(uint256,uint256,enum MilestoneOld.Status)": "infinite"
					}
				},
				"methodIdentifiers": {
					"checkAllMilestoneApproved(uint256)": "261ea724",
					"checkAllMilestoneCompleted(uint256)": "6139ab8f",
					"checkAllMilestoneVerified(uint256)": "1e0f2a46",
					"checkAnyMilestoneConflict(uint256)": "6005ecfd",
					"checkMilestoneStatus(uint256,uint256,uint8)": "2611954f",
					"checkMinMilestoneCreated(uint256)": "863ccc08",
					"createMilestone(uint256,string,string)": "b5015d11",
					"deleteMilestone(uint256,uint256)": "a1a56bae",
					"getAllMilestone(uint256)": "5c91eb59",
					"getMilestoneStatus(uint256,uint256)": "e8049da1",
					"getTotalNumMilestones(uint256)": "533c787b",
					"updateAllMilestonePending(uint256)": "cc590e6f",
					"updateMilestone(uint256,uint256,string,string)": "095674aa",
					"updateMilestoneApproved(uint256,uint256)": "79a6544e",
					"updateMilestoneCompleted(uint256,uint256)": "46d6e88e",
					"updateMilestoneConflict(uint256,uint256)": "bceae35c",
					"updateMilestoneStarted(uint256,uint256)": "ab7db003",
					"updateMilestoneVerified(uint256,uint256)": "275a645c"
				}
			},
			"userdoc": {
				"kind": "user",
				"methods": {},
				"version": 1
			}
		}
	}
}