{
	"contracts/Profile.sol": {
		"Profile": {
			"abi": [
				{
					"inputs": [
						{
							"internalType": "string",
							"name": "name",
							"type": "string"
						},
						{
							"internalType": "string",
							"name": "ownername",
							"type": "string"
						},
						{
							"internalType": "string",
							"name": "password",
							"type": "string"
						},
						{
							"internalType": "address",
							"name": "owner",
							"type": "address"
						}
					],
					"name": "createProfile",
					"outputs": [],
					"stateMutability": "nonpayable",
					"type": "function"
				},
				{
					"inputs": [
						{
							"internalType": "address",
							"name": "owner",
							"type": "address"
						}
					],
					"name": "deleteProfile",
					"outputs": [],
					"stateMutability": "nonpayable",
					"type": "function"
				},
				{
					"inputs": [
						{
							"internalType": "address",
							"name": "owner",
							"type": "address"
						}
					],
					"name": "getName",
					"outputs": [
						{
							"internalType": "string",
							"name": "",
							"type": "string"
						}
					],
					"stateMutability": "view",
					"type": "function"
				},
				{
					"inputs": [],
					"name": "numProfile",
					"outputs": [
						{
							"internalType": "uint256",
							"name": "",
							"type": "uint256"
						}
					],
					"stateMutability": "view",
					"type": "function"
				},
				{
					"inputs": [
						{
							"internalType": "string",
							"name": "newName",
							"type": "string"
						},
						{
							"internalType": "address",
							"name": "owner",
							"type": "address"
						}
					],
					"name": "updateProfileName",
					"outputs": [],
					"stateMutability": "nonpayable",
					"type": "function"
				}
			],
			"devdoc": {
				"kind": "dev",
				"methods": {},
				"version": 1
			},
			"evm": {
				"assembly": "    /* \"contracts/Profile.sol\":152:1638  contract Profile {... */\n  mstore(0x40, 0x80)\n    /* \"contracts/Profile.sol\":492:493  0 */\n  0x00\n    /* \"contracts/Profile.sol\":464:493  uint256 public numProfile = 0 */\n  0x01\n  sstore\n    /* \"contracts/Profile.sol\":152:1638  contract Profile {... */\n  callvalue\n  dup1\n  iszero\n  tag_1\n  jumpi\n  0x00\n  dup1\n  revert\ntag_1:\n  pop\n  dataSize(sub_0)\n  dup1\n  dataOffset(sub_0)\n  0x00\n  codecopy\n  0x00\n  return\nstop\n\nsub_0: assembly {\n        /* \"contracts/Profile.sol\":152:1638  contract Profile {... */\n      mstore(0x40, 0x80)\n      callvalue\n      dup1\n      iszero\n      tag_1\n      jumpi\n      0x00\n      dup1\n      revert\n    tag_1:\n      pop\n      jumpi(tag_2, lt(calldatasize, 0x04))\n      shr(0xe0, calldataload(0x00))\n      dup1\n      0x16913469\n      eq\n      tag_3\n      jumpi\n      dup1\n      0x22a9d1bc\n      eq\n      tag_4\n      jumpi\n      dup1\n      0x5fd4b08a\n      eq\n      tag_5\n      jumpi\n      dup1\n      0xa0441f29\n      eq\n      tag_6\n      jumpi\n      dup1\n      0xb94864eb\n      eq\n      tag_7\n      jumpi\n    tag_2:\n      0x00\n      dup1\n      revert\n        /* \"contracts/Profile.sol\":464:493  uint256 public numProfile = 0 */\n    tag_3:\n      tag_8\n      tag_9\n      jump\t// in\n    tag_8:\n      mload(0x40)\n      tag_10\n      swap2\n      swap1\n      tag_11\n      jump\t// in\n    tag_10:\n      mload(0x40)\n      dup1\n      swap2\n      sub\n      swap1\n      return\n        /* \"contracts/Profile.sol\":737:1020  function createProfile(string memory name, string memory ownername, string memory password, address owner) external  {... */\n    tag_4:\n      tag_12\n      0x04\n      dup1\n      calldatasize\n      sub\n      dup2\n      add\n      swap1\n      tag_13\n      swap2\n      swap1\n      tag_14\n      jump\t// in\n    tag_13:\n      tag_15\n      jump\t// in\n    tag_12:\n      stop\n        /* \"contracts/Profile.sol\":1496:1635  function getName(address owner) external validProfile (owner) view returns ( string memory) {... */\n    tag_5:\n      tag_16\n      0x04\n      dup1\n      calldatasize\n      sub\n      dup2\n      add\n      swap1\n      tag_17\n      swap2\n      swap1\n      tag_18\n      jump\t// in\n    tag_17:\n      tag_19\n      jump\t// in\n    tag_16:\n      mload(0x40)\n      tag_20\n      swap2\n      swap1\n      tag_21\n      jump\t// in\n    tag_20:\n      mload(0x40)\n      dup1\n      swap2\n      sub\n      swap1\n      return\n        /* \"contracts/Profile.sol\":1067:1239  function deleteProfile(address owner) external validProfile (owner) {... */\n    tag_6:\n      tag_22\n      0x04\n      dup1\n      calldatasize\n      sub\n      dup2\n      add\n      swap1\n      tag_23\n      swap2\n      swap1\n      tag_18\n      jump\t// in\n    tag_23:\n      tag_24\n      jump\t// in\n    tag_22:\n      stop\n        /* \"contracts/Profile.sol\":1286:1432  function updateProfileName(string memory newName, address owner) external validProfile (owner) {... */\n    tag_7:\n      tag_25\n      0x04\n      dup1\n      calldatasize\n      sub\n      dup2\n      add\n      swap1\n      tag_26\n      swap2\n      swap1\n      tag_27\n      jump\t// in\n    tag_26:\n      tag_28\n      jump\t// in\n    tag_25:\n      stop\n        /* \"contracts/Profile.sol\":464:493  uint256 public numProfile = 0 */\n    tag_9:\n      sload(0x01)\n      dup2\n      jump\t// out\n        /* \"contracts/Profile.sol\":737:1020  function createProfile(string memory name, string memory ownername, string memory password, address owner) external  {... */\n    tag_15:\n        /* \"contracts/Profile.sol\":864:889  profile memory newProfile */\n      0x00\n        /* \"contracts/Profile.sol\":892:935  profile(name,ownername,password,owner,true) */\n      mload(0x40)\n      dup1\n      0xa0\n      add\n      0x40\n      mstore\n      dup1\n        /* \"contracts/Profile.sol\":900:904  name */\n      dup7\n        /* \"contracts/Profile.sol\":892:935  profile(name,ownername,password,owner,true) */\n      dup2\n      mstore\n      0x20\n      add\n        /* \"contracts/Profile.sol\":905:914  ownername */\n      dup6\n        /* \"contracts/Profile.sol\":892:935  profile(name,ownername,password,owner,true) */\n      dup2\n      mstore\n      0x20\n      add\n        /* \"contracts/Profile.sol\":915:923  password */\n      dup5\n        /* \"contracts/Profile.sol\":892:935  profile(name,ownername,password,owner,true) */\n      dup2\n      mstore\n      0x20\n      add\n        /* \"contracts/Profile.sol\":924:929  owner */\n      dup4\n        /* \"contracts/Profile.sol\":892:935  profile(name,ownername,password,owner,true) */\n      0xffffffffffffffffffffffffffffffffffffffff\n      and\n      dup2\n      mstore\n      0x20\n      add\n        /* \"contracts/Profile.sol\":930:934  true */\n      0x01\n        /* \"contracts/Profile.sol\":892:935  profile(name,ownername,password,owner,true) */\n      iszero\n      iszero\n      dup2\n      mstore\n      pop\n        /* \"contracts/Profile.sol\":864:935  profile memory newProfile = profile(name,ownername,password,owner,true) */\n      swap1\n      pop\n        /* \"contracts/Profile.sol\":966:976  newProfile */\n      dup1\n        /* \"contracts/Profile.sol\":945:956  profileList */\n      0x00\n        /* \"contracts/Profile.sol\":945:963  profileList[owner] */\n      dup1\n        /* \"contracts/Profile.sol\":957:962  owner */\n      dup5\n        /* \"contracts/Profile.sol\":945:963  profileList[owner] */\n      0xffffffffffffffffffffffffffffffffffffffff\n      and\n      0xffffffffffffffffffffffffffffffffffffffff\n      and\n      dup2\n      mstore\n      0x20\n      add\n      swap1\n      dup2\n      mstore\n      0x20\n      add\n      0x00\n      keccak256\n        /* \"contracts/Profile.sol\":945:976  profileList[owner] = newProfile */\n      0x00\n      dup3\n      add\n      mload\n      dup2\n      0x00\n      add\n      swap1\n      dup1\n      mload\n      swap1\n      0x20\n      add\n      swap1\n      tag_30\n      swap3\n      swap2\n      swap1\n      tag_31\n      jump\t// in\n    tag_30:\n      pop\n      0x20\n      dup3\n      add\n      mload\n      dup2\n      0x01\n      add\n      swap1\n      dup1\n      mload\n      swap1\n      0x20\n      add\n      swap1\n      tag_32\n      swap3\n      swap2\n      swap1\n      tag_31\n      jump\t// in\n    tag_32:\n      pop\n      0x40\n      dup3\n      add\n      mload\n      dup2\n      0x02\n      add\n      swap1\n      dup1\n      mload\n      swap1\n      0x20\n      add\n      swap1\n      tag_33\n      swap3\n      swap2\n      swap1\n      tag_31\n      jump\t// in\n    tag_33:\n      pop\n      0x60\n      dup3\n      add\n      mload\n      dup2\n      0x03\n      add\n      exp(0x0100, 0x00)\n      dup2\n      sload\n      dup2\n      0xffffffffffffffffffffffffffffffffffffffff\n      mul\n      not\n      and\n      swap1\n      dup4\n      0xffffffffffffffffffffffffffffffffffffffff\n      and\n      mul\n      or\n      swap1\n      sstore\n      pop\n      0x80\n      dup3\n      add\n      mload\n      dup2\n      0x03\n      add\n      exp(0x0100, 0x14)\n      dup2\n      sload\n      dup2\n      0xff\n      mul\n      not\n      and\n      swap1\n      dup4\n      iszero\n      iszero\n      mul\n      or\n      swap1\n      sstore\n      pop\n      swap1\n      pop\n      pop\n        /* \"contracts/Profile.sol\":1012:1013  1 */\n      0x01\n        /* \"contracts/Profile.sol\":999:1009  numProfile */\n      dup1\n      sload\n        /* \"contracts/Profile.sol\":999:1013  numProfile + 1 */\n      tag_34\n      swap2\n      swap1\n      tag_35\n      jump\t// in\n    tag_34:\n        /* \"contracts/Profile.sol\":986:996  numProfile */\n      0x01\n        /* \"contracts/Profile.sol\":986:1013  numProfile = numProfile + 1 */\n      dup2\n      swap1\n      sstore\n      pop\n        /* \"contracts/Profile.sol\":854:1020  {... */\n      pop\n        /* \"contracts/Profile.sol\":737:1020  function createProfile(string memory name, string memory ownername, string memory password, address owner) external  {... */\n      pop\n      pop\n      pop\n      pop\n      jump\t// out\n        /* \"contracts/Profile.sol\":1496:1635  function getName(address owner) external validProfile (owner) view returns ( string memory) {... */\n    tag_19:\n        /* \"contracts/Profile.sol\":1573:1586  string memory */\n      0x60\n        /* \"contracts/Profile.sol\":1551:1556  owner */\n      dup2\n        /* \"contracts/Profile.sol\":642:646  true */\n      0x01\n        /* \"contracts/Profile.sol\":612:646  profileList[owner].created == true */\n      iszero\n      iszero\n        /* \"contracts/Profile.sol\":612:623  profileList */\n      0x00\n        /* \"contracts/Profile.sol\":612:630  profileList[owner] */\n      dup1\n        /* \"contracts/Profile.sol\":624:629  owner */\n      dup4\n        /* \"contracts/Profile.sol\":612:630  profileList[owner] */\n      0xffffffffffffffffffffffffffffffffffffffff\n      and\n      0xffffffffffffffffffffffffffffffffffffffff\n      and\n      dup2\n      mstore\n      0x20\n      add\n      swap1\n      dup2\n      mstore\n      0x20\n      add\n      0x00\n      keccak256\n        /* \"contracts/Profile.sol\":612:638  profileList[owner].created */\n      0x03\n      add\n      0x14\n      swap1\n      sload\n      swap1\n      0x0100\n      exp\n      swap1\n      div\n      0xff\n      and\n        /* \"contracts/Profile.sol\":612:646  profileList[owner].created == true */\n      iszero\n      iszero\n      eq\n        /* \"contracts/Profile.sol\":604:673  require(profileList[owner].created == true, \"Profile does not exist\") */\n      tag_37\n      jumpi\n      mload(0x40)\n      0x08c379a000000000000000000000000000000000000000000000000000000000\n      dup2\n      mstore\n      0x04\n      add\n      tag_38\n      swap1\n      tag_39\n      jump\t// in\n    tag_38:\n      mload(0x40)\n      dup1\n      swap2\n      sub\n      swap1\n      revert\n    tag_37:\n        /* \"contracts/Profile.sol\":1605:1616  profileList */\n      0x00\n        /* \"contracts/Profile.sol\":1605:1623  profileList[owner] */\n      dup1\n        /* \"contracts/Profile.sol\":1617:1622  owner */\n      dup5\n        /* \"contracts/Profile.sol\":1605:1623  profileList[owner] */\n      0xffffffffffffffffffffffffffffffffffffffff\n      and\n      0xffffffffffffffffffffffffffffffffffffffff\n      and\n      dup2\n      mstore\n      0x20\n      add\n      swap1\n      dup2\n      mstore\n      0x20\n      add\n      0x00\n      keccak256\n        /* \"contracts/Profile.sol\":1605:1628  profileList[owner].name */\n      0x00\n      add\n        /* \"contracts/Profile.sol\":1598:1628  return profileList[owner].name */\n      dup1\n      sload\n      tag_41\n      swap1\n      tag_42\n      jump\t// in\n    tag_41:\n      dup1\n      0x1f\n      add\n      0x20\n      dup1\n      swap2\n      div\n      mul\n      0x20\n      add\n      mload(0x40)\n      swap1\n      dup2\n      add\n      0x40\n      mstore\n      dup1\n      swap3\n      swap2\n      swap1\n      dup2\n      dup2\n      mstore\n      0x20\n      add\n      dup3\n      dup1\n      sload\n      tag_43\n      swap1\n      tag_42\n      jump\t// in\n    tag_43:\n      dup1\n      iszero\n      tag_44\n      jumpi\n      dup1\n      0x1f\n      lt\n      tag_45\n      jumpi\n      0x0100\n      dup1\n      dup4\n      sload\n      div\n      mul\n      dup4\n      mstore\n      swap2\n      0x20\n      add\n      swap2\n      jump(tag_44)\n    tag_45:\n      dup3\n      add\n      swap2\n      swap1\n      0x00\n      mstore\n      keccak256(0x00, 0x20)\n      swap1\n    tag_46:\n      dup2\n      sload\n      dup2\n      mstore\n      swap1\n      0x01\n      add\n      swap1\n      0x20\n      add\n      dup1\n      dup4\n      gt\n      tag_46\n      jumpi\n      dup3\n      swap1\n      sub\n      0x1f\n      and\n      dup3\n      add\n      swap2\n    tag_44:\n      pop\n      pop\n      pop\n      pop\n      pop\n      swap2\n      pop\n        /* \"contracts/Profile.sol\":1496:1635  function getName(address owner) external validProfile (owner) view returns ( string memory) {... */\n      pop\n      swap2\n      swap1\n      pop\n      jump\t// out\n        /* \"contracts/Profile.sol\":1067:1239  function deleteProfile(address owner) external validProfile (owner) {... */\n    tag_24:\n        /* \"contracts/Profile.sol\":1128:1133  owner */\n      dup1\n        /* \"contracts/Profile.sol\":642:646  true */\n      0x01\n        /* \"contracts/Profile.sol\":612:646  profileList[owner].created == true */\n      iszero\n      iszero\n        /* \"contracts/Profile.sol\":612:623  profileList */\n      0x00\n        /* \"contracts/Profile.sol\":612:630  profileList[owner] */\n      dup1\n        /* \"contracts/Profile.sol\":624:629  owner */\n      dup4\n        /* \"contracts/Profile.sol\":612:630  profileList[owner] */\n      0xffffffffffffffffffffffffffffffffffffffff\n      and\n      0xffffffffffffffffffffffffffffffffffffffff\n      and\n      dup2\n      mstore\n      0x20\n      add\n      swap1\n      dup2\n      mstore\n      0x20\n      add\n      0x00\n      keccak256\n        /* \"contracts/Profile.sol\":612:638  profileList[owner].created */\n      0x03\n      add\n      0x14\n      swap1\n      sload\n      swap1\n      0x0100\n      exp\n      swap1\n      div\n      0xff\n      and\n        /* \"contracts/Profile.sol\":612:646  profileList[owner].created == true */\n      iszero\n      iszero\n      eq\n        /* \"contracts/Profile.sol\":604:673  require(profileList[owner].created == true, \"Profile does not exist\") */\n      tag_48\n      jumpi\n      mload(0x40)\n      0x08c379a000000000000000000000000000000000000000000000000000000000\n      dup2\n      mstore\n      0x04\n      add\n      tag_49\n      swap1\n      tag_39\n      jump\t// in\n    tag_49:\n      mload(0x40)\n      dup1\n      swap2\n      sub\n      swap1\n      revert\n    tag_48:\n        /* \"contracts/Profile.sol\":1174:1179  false */\n      0x00\n        /* \"contracts/Profile.sol\":1145:1156  profileList */\n      dup1\n        /* \"contracts/Profile.sol\":1145:1163  profileList[owner] */\n      0x00\n        /* \"contracts/Profile.sol\":1157:1162  owner */\n      dup5\n        /* \"contracts/Profile.sol\":1145:1163  profileList[owner] */\n      0xffffffffffffffffffffffffffffffffffffffff\n      and\n      0xffffffffffffffffffffffffffffffffffffffff\n      and\n      dup2\n      mstore\n      0x20\n      add\n      swap1\n      dup2\n      mstore\n      0x20\n      add\n      0x00\n      keccak256\n        /* \"contracts/Profile.sol\":1145:1171  profileList[owner].created */\n      0x03\n      add\n      0x14\n        /* \"contracts/Profile.sol\":1145:1179  profileList[owner].created = false */\n      0x0100\n      exp\n      dup2\n      sload\n      dup2\n      0xff\n      mul\n      not\n      and\n      swap1\n      dup4\n      iszero\n      iszero\n      mul\n      or\n      swap1\n      sstore\n      pop\n        /* \"contracts/Profile.sol\":1230:1231  1 */\n      0x01\n        /* \"contracts/Profile.sol\":1217:1227  numProfile */\n      dup1\n      sload\n        /* \"contracts/Profile.sol\":1217:1231  numProfile - 1 */\n      tag_51\n      swap2\n      swap1\n      tag_52\n      jump\t// in\n    tag_51:\n        /* \"contracts/Profile.sol\":1204:1214  numProfile */\n      0x01\n        /* \"contracts/Profile.sol\":1204:1231  numProfile = numProfile - 1 */\n      dup2\n      swap1\n      sstore\n      pop\n        /* \"contracts/Profile.sol\":1067:1239  function deleteProfile(address owner) external validProfile (owner) {... */\n      pop\n      pop\n      jump\t// out\n        /* \"contracts/Profile.sol\":1286:1432  function updateProfileName(string memory newName, address owner) external validProfile (owner) {... */\n    tag_28:\n        /* \"contracts/Profile.sol\":1374:1379  owner */\n      dup1\n        /* \"contracts/Profile.sol\":642:646  true */\n      0x01\n        /* \"contracts/Profile.sol\":612:646  profileList[owner].created == true */\n      iszero\n      iszero\n        /* \"contracts/Profile.sol\":612:623  profileList */\n      0x00\n        /* \"contracts/Profile.sol\":612:630  profileList[owner] */\n      dup1\n        /* \"contracts/Profile.sol\":624:629  owner */\n      dup4\n        /* \"contracts/Profile.sol\":612:630  profileList[owner] */\n      0xffffffffffffffffffffffffffffffffffffffff\n      and\n      0xffffffffffffffffffffffffffffffffffffffff\n      and\n      dup2\n      mstore\n      0x20\n      add\n      swap1\n      dup2\n      mstore\n      0x20\n      add\n      0x00\n      keccak256\n        /* \"contracts/Profile.sol\":612:638  profileList[owner].created */\n      0x03\n      add\n      0x14\n      swap1\n      sload\n      swap1\n      0x0100\n      exp\n      swap1\n      div\n      0xff\n      and\n        /* \"contracts/Profile.sol\":612:646  profileList[owner].created == true */\n      iszero\n      iszero\n      eq\n        /* \"contracts/Profile.sol\":604:673  require(profileList[owner].created == true, \"Profile does not exist\") */\n      tag_54\n      jumpi\n      mload(0x40)\n      0x08c379a000000000000000000000000000000000000000000000000000000000\n      dup2\n      mstore\n      0x04\n      add\n      tag_55\n      swap1\n      tag_39\n      jump\t// in\n    tag_55:\n      mload(0x40)\n      dup1\n      swap2\n      sub\n      swap1\n      revert\n    tag_54:\n        /* \"contracts/Profile.sol\":1417:1424  newName */\n      dup3\n        /* \"contracts/Profile.sol\":1391:1402  profileList */\n      0x00\n        /* \"contracts/Profile.sol\":1391:1409  profileList[owner] */\n      dup1\n        /* \"contracts/Profile.sol\":1403:1408  owner */\n      dup5\n        /* \"contracts/Profile.sol\":1391:1409  profileList[owner] */\n      0xffffffffffffffffffffffffffffffffffffffff\n      and\n      0xffffffffffffffffffffffffffffffffffffffff\n      and\n      dup2\n      mstore\n      0x20\n      add\n      swap1\n      dup2\n      mstore\n      0x20\n      add\n      0x00\n      keccak256\n        /* \"contracts/Profile.sol\":1391:1414  profileList[owner].name */\n      0x00\n      add\n        /* \"contracts/Profile.sol\":1391:1424  profileList[owner].name = newName */\n      swap1\n      dup1\n      mload\n      swap1\n      0x20\n      add\n      swap1\n      tag_57\n      swap3\n      swap2\n      swap1\n      tag_31\n      jump\t// in\n    tag_57:\n      pop\n        /* \"contracts/Profile.sol\":1286:1432  function updateProfileName(string memory newName, address owner) external validProfile (owner) {... */\n      pop\n      pop\n      pop\n      jump\t// out\n    tag_31:\n      dup3\n      dup1\n      sload\n      tag_58\n      swap1\n      tag_42\n      jump\t// in\n    tag_58:\n      swap1\n      0x00\n      mstore\n      keccak256(0x00, 0x20)\n      swap1\n      0x1f\n      add\n      0x20\n      swap1\n      div\n      dup2\n      add\n      swap3\n      dup3\n      tag_60\n      jumpi\n      0x00\n      dup6\n      sstore\n      jump(tag_59)\n    tag_60:\n      dup3\n      0x1f\n      lt\n      tag_61\n      jumpi\n      dup1\n      mload\n      not(0xff)\n      and\n      dup4\n      dup1\n      add\n      or\n      dup6\n      sstore\n      jump(tag_59)\n    tag_61:\n      dup3\n      dup1\n      add\n      0x01\n      add\n      dup6\n      sstore\n      dup3\n      iszero\n      tag_59\n      jumpi\n      swap2\n      dup3\n      add\n    tag_62:\n      dup3\n      dup2\n      gt\n      iszero\n      tag_63\n      jumpi\n      dup3\n      mload\n      dup3\n      sstore\n      swap2\n      0x20\n      add\n      swap2\n      swap1\n      0x01\n      add\n      swap1\n      jump(tag_62)\n    tag_63:\n    tag_59:\n      pop\n      swap1\n      pop\n      tag_64\n      swap2\n      swap1\n      tag_65\n      jump\t// in\n    tag_64:\n      pop\n      swap1\n      jump\t// out\n    tag_65:\n    tag_66:\n      dup1\n      dup3\n      gt\n      iszero\n      tag_67\n      jumpi\n      0x00\n      dup2\n      0x00\n      swap1\n      sstore\n      pop\n      0x01\n      add\n      jump(tag_66)\n    tag_67:\n      pop\n      swap1\n      jump\t// out\n        /* \"#utility.yul\":7:419   */\n    tag_69:\n        /* \"#utility.yul\":85:90   */\n      0x00\n        /* \"#utility.yul\":110:176   */\n      tag_71\n        /* \"#utility.yul\":126:175   */\n      tag_72\n        /* \"#utility.yul\":168:174   */\n      dup5\n        /* \"#utility.yul\":126:175   */\n      tag_73\n      jump\t// in\n    tag_72:\n        /* \"#utility.yul\":110:176   */\n      tag_74\n      jump\t// in\n    tag_71:\n        /* \"#utility.yul\":101:176   */\n      swap1\n      pop\n        /* \"#utility.yul\":199:205   */\n      dup3\n        /* \"#utility.yul\":192:197   */\n      dup2\n        /* \"#utility.yul\":185:206   */\n      mstore\n        /* \"#utility.yul\":237:241   */\n      0x20\n        /* \"#utility.yul\":230:235   */\n      dup2\n        /* \"#utility.yul\":226:242   */\n      add\n        /* \"#utility.yul\":275:278   */\n      dup5\n        /* \"#utility.yul\":266:272   */\n      dup5\n        /* \"#utility.yul\":261:264   */\n      dup5\n        /* \"#utility.yul\":257:273   */\n      add\n        /* \"#utility.yul\":254:279   */\n      gt\n        /* \"#utility.yul\":251:363   */\n      iszero\n      tag_75\n      jumpi\n        /* \"#utility.yul\":282:361   */\n      tag_76\n      tag_77\n      jump\t// in\n    tag_76:\n        /* \"#utility.yul\":251:363   */\n    tag_75:\n        /* \"#utility.yul\":372:413   */\n      tag_78\n        /* \"#utility.yul\":406:412   */\n      dup5\n        /* \"#utility.yul\":401:404   */\n      dup3\n        /* \"#utility.yul\":396:399   */\n      dup6\n        /* \"#utility.yul\":372:413   */\n      tag_79\n      jump\t// in\n    tag_78:\n        /* \"#utility.yul\":91:419   */\n      pop\n        /* \"#utility.yul\":7:419   */\n      swap4\n      swap3\n      pop\n      pop\n      pop\n      jump\t// out\n        /* \"#utility.yul\":425:564   */\n    tag_80:\n        /* \"#utility.yul\":471:476   */\n      0x00\n        /* \"#utility.yul\":509:515   */\n      dup2\n        /* \"#utility.yul\":496:516   */\n      calldataload\n        /* \"#utility.yul\":487:516   */\n      swap1\n      pop\n        /* \"#utility.yul\":525:558   */\n      tag_82\n        /* \"#utility.yul\":552:557   */\n      dup2\n        /* \"#utility.yul\":525:558   */\n      tag_83\n      jump\t// in\n    tag_82:\n        /* \"#utility.yul\":425:564   */\n      swap3\n      swap2\n      pop\n      pop\n      jump\t// out\n        /* \"#utility.yul\":584:924   */\n    tag_84:\n        /* \"#utility.yul\":640:645   */\n      0x00\n        /* \"#utility.yul\":689:692   */\n      dup3\n        /* \"#utility.yul\":682:686   */\n      0x1f\n        /* \"#utility.yul\":674:680   */\n      dup4\n        /* \"#utility.yul\":670:687   */\n      add\n        /* \"#utility.yul\":666:693   */\n      slt\n        /* \"#utility.yul\":656:778   */\n      tag_86\n      jumpi\n        /* \"#utility.yul\":697:776   */\n      tag_87\n      tag_88\n      jump\t// in\n    tag_87:\n        /* \"#utility.yul\":656:778   */\n    tag_86:\n        /* \"#utility.yul\":814:820   */\n      dup2\n        /* \"#utility.yul\":801:821   */\n      calldataload\n        /* \"#utility.yul\":839:918   */\n      tag_89\n        /* \"#utility.yul\":914:917   */\n      dup5\n        /* \"#utility.yul\":906:912   */\n      dup3\n        /* \"#utility.yul\":899:903   */\n      0x20\n        /* \"#utility.yul\":891:897   */\n      dup7\n        /* \"#utility.yul\":887:904   */\n      add\n        /* \"#utility.yul\":839:918   */\n      tag_69\n      jump\t// in\n    tag_89:\n        /* \"#utility.yul\":830:918   */\n      swap2\n      pop\n        /* \"#utility.yul\":646:924   */\n      pop\n        /* \"#utility.yul\":584:924   */\n      swap3\n      swap2\n      pop\n      pop\n      jump\t// out\n        /* \"#utility.yul\":930:1259   */\n    tag_18:\n        /* \"#utility.yul\":989:995   */\n      0x00\n        /* \"#utility.yul\":1038:1040   */\n      0x20\n        /* \"#utility.yul\":1026:1035   */\n      dup3\n        /* \"#utility.yul\":1017:1024   */\n      dup5\n        /* \"#utility.yul\":1013:1036   */\n      sub\n        /* \"#utility.yul\":1009:1041   */\n      slt\n        /* \"#utility.yul\":1006:1125   */\n      iszero\n      tag_91\n      jumpi\n        /* \"#utility.yul\":1044:1123   */\n      tag_92\n      tag_93\n      jump\t// in\n    tag_92:\n        /* \"#utility.yul\":1006:1125   */\n    tag_91:\n        /* \"#utility.yul\":1164:1165   */\n      0x00\n        /* \"#utility.yul\":1189:1242   */\n      tag_94\n        /* \"#utility.yul\":1234:1241   */\n      dup5\n        /* \"#utility.yul\":1225:1231   */\n      dup3\n        /* \"#utility.yul\":1214:1223   */\n      dup6\n        /* \"#utility.yul\":1210:1232   */\n      add\n        /* \"#utility.yul\":1189:1242   */\n      tag_80\n      jump\t// in\n    tag_94:\n        /* \"#utility.yul\":1179:1242   */\n      swap2\n      pop\n        /* \"#utility.yul\":1135:1252   */\n      pop\n        /* \"#utility.yul\":930:1259   */\n      swap3\n      swap2\n      pop\n      pop\n      jump\t// out\n        /* \"#utility.yul\":1265:1919   */\n    tag_27:\n        /* \"#utility.yul\":1343:1349   */\n      0x00\n        /* \"#utility.yul\":1351:1357   */\n      dup1\n        /* \"#utility.yul\":1400:1402   */\n      0x40\n        /* \"#utility.yul\":1388:1397   */\n      dup4\n        /* \"#utility.yul\":1379:1386   */\n      dup6\n        /* \"#utility.yul\":1375:1398   */\n      sub\n        /* \"#utility.yul\":1371:1403   */\n      slt\n        /* \"#utility.yul\":1368:1487   */\n      iszero\n      tag_96\n      jumpi\n        /* \"#utility.yul\":1406:1485   */\n      tag_97\n      tag_93\n      jump\t// in\n    tag_97:\n        /* \"#utility.yul\":1368:1487   */\n    tag_96:\n        /* \"#utility.yul\":1554:1555   */\n      0x00\n        /* \"#utility.yul\":1543:1552   */\n      dup4\n        /* \"#utility.yul\":1539:1556   */\n      add\n        /* \"#utility.yul\":1526:1557   */\n      calldataload\n        /* \"#utility.yul\":1584:1602   */\n      0xffffffffffffffff\n        /* \"#utility.yul\":1576:1582   */\n      dup2\n        /* \"#utility.yul\":1573:1603   */\n      gt\n        /* \"#utility.yul\":1570:1687   */\n      iszero\n      tag_98\n      jumpi\n        /* \"#utility.yul\":1606:1685   */\n      tag_99\n      tag_100\n      jump\t// in\n    tag_99:\n        /* \"#utility.yul\":1570:1687   */\n    tag_98:\n        /* \"#utility.yul\":1711:1774   */\n      tag_101\n        /* \"#utility.yul\":1766:1773   */\n      dup6\n        /* \"#utility.yul\":1757:1763   */\n      dup3\n        /* \"#utility.yul\":1746:1755   */\n      dup7\n        /* \"#utility.yul\":1742:1764   */\n      add\n        /* \"#utility.yul\":1711:1774   */\n      tag_84\n      jump\t// in\n    tag_101:\n        /* \"#utility.yul\":1701:1774   */\n      swap3\n      pop\n        /* \"#utility.yul\":1497:1784   */\n      pop\n        /* \"#utility.yul\":1823:1825   */\n      0x20\n        /* \"#utility.yul\":1849:1902   */\n      tag_102\n        /* \"#utility.yul\":1894:1901   */\n      dup6\n        /* \"#utility.yul\":1885:1891   */\n      dup3\n        /* \"#utility.yul\":1874:1883   */\n      dup7\n        /* \"#utility.yul\":1870:1892   */\n      add\n        /* \"#utility.yul\":1849:1902   */\n      tag_80\n      jump\t// in\n    tag_102:\n        /* \"#utility.yul\":1839:1902   */\n      swap2\n      pop\n        /* \"#utility.yul\":1794:1912   */\n      pop\n        /* \"#utility.yul\":1265:1919   */\n      swap3\n      pop\n      swap3\n      swap1\n      pop\n      jump\t// out\n        /* \"#utility.yul\":1925:3230   */\n    tag_14:\n        /* \"#utility.yul\":2041:2047   */\n      0x00\n        /* \"#utility.yul\":2049:2055   */\n      dup1\n        /* \"#utility.yul\":2057:2063   */\n      0x00\n        /* \"#utility.yul\":2065:2071   */\n      dup1\n        /* \"#utility.yul\":2114:2117   */\n      0x80\n        /* \"#utility.yul\":2102:2111   */\n      dup6\n        /* \"#utility.yul\":2093:2100   */\n      dup8\n        /* \"#utility.yul\":2089:2112   */\n      sub\n        /* \"#utility.yul\":2085:2118   */\n      slt\n        /* \"#utility.yul\":2082:2202   */\n      iszero\n      tag_104\n      jumpi\n        /* \"#utility.yul\":2121:2200   */\n      tag_105\n      tag_93\n      jump\t// in\n    tag_105:\n        /* \"#utility.yul\":2082:2202   */\n    tag_104:\n        /* \"#utility.yul\":2269:2270   */\n      0x00\n        /* \"#utility.yul\":2258:2267   */\n      dup6\n        /* \"#utility.yul\":2254:2271   */\n      add\n        /* \"#utility.yul\":2241:2272   */\n      calldataload\n        /* \"#utility.yul\":2299:2317   */\n      0xffffffffffffffff\n        /* \"#utility.yul\":2291:2297   */\n      dup2\n        /* \"#utility.yul\":2288:2318   */\n      gt\n        /* \"#utility.yul\":2285:2402   */\n      iszero\n      tag_106\n      jumpi\n        /* \"#utility.yul\":2321:2400   */\n      tag_107\n      tag_100\n      jump\t// in\n    tag_107:\n        /* \"#utility.yul\":2285:2402   */\n    tag_106:\n        /* \"#utility.yul\":2426:2489   */\n      tag_108\n        /* \"#utility.yul\":2481:2488   */\n      dup8\n        /* \"#utility.yul\":2472:2478   */\n      dup3\n        /* \"#utility.yul\":2461:2470   */\n      dup9\n        /* \"#utility.yul\":2457:2479   */\n      add\n        /* \"#utility.yul\":2426:2489   */\n      tag_84\n      jump\t// in\n    tag_108:\n        /* \"#utility.yul\":2416:2489   */\n      swap5\n      pop\n        /* \"#utility.yul\":2212:2499   */\n      pop\n        /* \"#utility.yul\":2566:2568   */\n      0x20\n        /* \"#utility.yul\":2555:2564   */\n      dup6\n        /* \"#utility.yul\":2551:2569   */\n      add\n        /* \"#utility.yul\":2538:2570   */\n      calldataload\n        /* \"#utility.yul\":2597:2615   */\n      0xffffffffffffffff\n        /* \"#utility.yul\":2589:2595   */\n      dup2\n        /* \"#utility.yul\":2586:2616   */\n      gt\n        /* \"#utility.yul\":2583:2700   */\n      iszero\n      tag_109\n      jumpi\n        /* \"#utility.yul\":2619:2698   */\n      tag_110\n      tag_100\n      jump\t// in\n    tag_110:\n        /* \"#utility.yul\":2583:2700   */\n    tag_109:\n        /* \"#utility.yul\":2724:2787   */\n      tag_111\n        /* \"#utility.yul\":2779:2786   */\n      dup8\n        /* \"#utility.yul\":2770:2776   */\n      dup3\n        /* \"#utility.yul\":2759:2768   */\n      dup9\n        /* \"#utility.yul\":2755:2777   */\n      add\n        /* \"#utility.yul\":2724:2787   */\n      tag_84\n      jump\t// in\n    tag_111:\n        /* \"#utility.yul\":2714:2787   */\n      swap4\n      pop\n        /* \"#utility.yul\":2509:2797   */\n      pop\n        /* \"#utility.yul\":2864:2866   */\n      0x40\n        /* \"#utility.yul\":2853:2862   */\n      dup6\n        /* \"#utility.yul\":2849:2867   */\n      add\n        /* \"#utility.yul\":2836:2868   */\n      calldataload\n        /* \"#utility.yul\":2895:2913   */\n      0xffffffffffffffff\n        /* \"#utility.yul\":2887:2893   */\n      dup2\n        /* \"#utility.yul\":2884:2914   */\n      gt\n        /* \"#utility.yul\":2881:2998   */\n      iszero\n      tag_112\n      jumpi\n        /* \"#utility.yul\":2917:2996   */\n      tag_113\n      tag_100\n      jump\t// in\n    tag_113:\n        /* \"#utility.yul\":2881:2998   */\n    tag_112:\n        /* \"#utility.yul\":3022:3085   */\n      tag_114\n        /* \"#utility.yul\":3077:3084   */\n      dup8\n        /* \"#utility.yul\":3068:3074   */\n      dup3\n        /* \"#utility.yul\":3057:3066   */\n      dup9\n        /* \"#utility.yul\":3053:3075   */\n      add\n        /* \"#utility.yul\":3022:3085   */\n      tag_84\n      jump\t// in\n    tag_114:\n        /* \"#utility.yul\":3012:3085   */\n      swap3\n      pop\n        /* \"#utility.yul\":2807:3095   */\n      pop\n        /* \"#utility.yul\":3134:3136   */\n      0x60\n        /* \"#utility.yul\":3160:3213   */\n      tag_115\n        /* \"#utility.yul\":3205:3212   */\n      dup8\n        /* \"#utility.yul\":3196:3202   */\n      dup3\n        /* \"#utility.yul\":3185:3194   */\n      dup9\n        /* \"#utility.yul\":3181:3203   */\n      add\n        /* \"#utility.yul\":3160:3213   */\n      tag_80\n      jump\t// in\n    tag_115:\n        /* \"#utility.yul\":3150:3213   */\n      swap2\n      pop\n        /* \"#utility.yul\":3105:3223   */\n      pop\n        /* \"#utility.yul\":1925:3230   */\n      swap3\n      swap6\n      swap2\n      swap5\n      pop\n      swap3\n      pop\n      jump\t// out\n        /* \"#utility.yul\":3236:3600   */\n    tag_116:\n        /* \"#utility.yul\":3324:3327   */\n      0x00\n        /* \"#utility.yul\":3352:3391   */\n      tag_118\n        /* \"#utility.yul\":3385:3390   */\n      dup3\n        /* \"#utility.yul\":3352:3391   */\n      tag_119\n      jump\t// in\n    tag_118:\n        /* \"#utility.yul\":3407:3478   */\n      tag_120\n        /* \"#utility.yul\":3471:3477   */\n      dup2\n        /* \"#utility.yul\":3466:3469   */\n      dup6\n        /* \"#utility.yul\":3407:3478   */\n      tag_121\n      jump\t// in\n    tag_120:\n        /* \"#utility.yul\":3400:3478   */\n      swap4\n      pop\n        /* \"#utility.yul\":3487:3539   */\n      tag_122\n        /* \"#utility.yul\":3532:3538   */\n      dup2\n        /* \"#utility.yul\":3527:3530   */\n      dup6\n        /* \"#utility.yul\":3520:3524   */\n      0x20\n        /* \"#utility.yul\":3513:3518   */\n      dup7\n        /* \"#utility.yul\":3509:3525   */\n      add\n        /* \"#utility.yul\":3487:3539   */\n      tag_123\n      jump\t// in\n    tag_122:\n        /* \"#utility.yul\":3564:3593   */\n      tag_124\n        /* \"#utility.yul\":3586:3592   */\n      dup2\n        /* \"#utility.yul\":3564:3593   */\n      tag_125\n      jump\t// in\n    tag_124:\n        /* \"#utility.yul\":3559:3562   */\n      dup5\n        /* \"#utility.yul\":3555:3594   */\n      add\n        /* \"#utility.yul\":3548:3594   */\n      swap2\n      pop\n        /* \"#utility.yul\":3328:3600   */\n      pop\n        /* \"#utility.yul\":3236:3600   */\n      swap3\n      swap2\n      pop\n      pop\n      jump\t// out\n        /* \"#utility.yul\":3606:3972   */\n    tag_126:\n        /* \"#utility.yul\":3748:3751   */\n      0x00\n        /* \"#utility.yul\":3769:3836   */\n      tag_128\n        /* \"#utility.yul\":3833:3835   */\n      0x16\n        /* \"#utility.yul\":3828:3831   */\n      dup4\n        /* \"#utility.yul\":3769:3836   */\n      tag_121\n      jump\t// in\n    tag_128:\n        /* \"#utility.yul\":3762:3836   */\n      swap2\n      pop\n        /* \"#utility.yul\":3845:3938   */\n      tag_129\n        /* \"#utility.yul\":3934:3937   */\n      dup3\n        /* \"#utility.yul\":3845:3938   */\n      tag_130\n      jump\t// in\n    tag_129:\n        /* \"#utility.yul\":3963:3965   */\n      0x20\n        /* \"#utility.yul\":3958:3961   */\n      dup3\n        /* \"#utility.yul\":3954:3966   */\n      add\n        /* \"#utility.yul\":3947:3966   */\n      swap1\n      pop\n        /* \"#utility.yul\":3606:3972   */\n      swap2\n      swap1\n      pop\n      jump\t// out\n        /* \"#utility.yul\":3978:4096   */\n    tag_131:\n        /* \"#utility.yul\":4065:4089   */\n      tag_133\n        /* \"#utility.yul\":4083:4088   */\n      dup2\n        /* \"#utility.yul\":4065:4089   */\n      tag_134\n      jump\t// in\n    tag_133:\n        /* \"#utility.yul\":4060:4063   */\n      dup3\n        /* \"#utility.yul\":4053:4090   */\n      mstore\n        /* \"#utility.yul\":3978:4096   */\n      pop\n      pop\n      jump\t// out\n        /* \"#utility.yul\":4102:4415   */\n    tag_21:\n        /* \"#utility.yul\":4215:4219   */\n      0x00\n        /* \"#utility.yul\":4253:4255   */\n      0x20\n        /* \"#utility.yul\":4242:4251   */\n      dup3\n        /* \"#utility.yul\":4238:4256   */\n      add\n        /* \"#utility.yul\":4230:4256   */\n      swap1\n      pop\n        /* \"#utility.yul\":4302:4311   */\n      dup2\n        /* \"#utility.yul\":4296:4300   */\n      dup2\n        /* \"#utility.yul\":4292:4312   */\n      sub\n        /* \"#utility.yul\":4288:4289   */\n      0x00\n        /* \"#utility.yul\":4277:4286   */\n      dup4\n        /* \"#utility.yul\":4273:4290   */\n      add\n        /* \"#utility.yul\":4266:4313   */\n      mstore\n        /* \"#utility.yul\":4330:4408   */\n      tag_136\n        /* \"#utility.yul\":4403:4407   */\n      dup2\n        /* \"#utility.yul\":4394:4400   */\n      dup5\n        /* \"#utility.yul\":4330:4408   */\n      tag_116\n      jump\t// in\n    tag_136:\n        /* \"#utility.yul\":4322:4408   */\n      swap1\n      pop\n        /* \"#utility.yul\":4102:4415   */\n      swap3\n      swap2\n      pop\n      pop\n      jump\t// out\n        /* \"#utility.yul\":4421:4840   */\n    tag_39:\n        /* \"#utility.yul\":4587:4591   */\n      0x00\n        /* \"#utility.yul\":4625:4627   */\n      0x20\n        /* \"#utility.yul\":4614:4623   */\n      dup3\n        /* \"#utility.yul\":4610:4628   */\n      add\n        /* \"#utility.yul\":4602:4628   */\n      swap1\n      pop\n        /* \"#utility.yul\":4674:4683   */\n      dup2\n        /* \"#utility.yul\":4668:4672   */\n      dup2\n        /* \"#utility.yul\":4664:4684   */\n      sub\n        /* \"#utility.yul\":4660:4661   */\n      0x00\n        /* \"#utility.yul\":4649:4658   */\n      dup4\n        /* \"#utility.yul\":4645:4662   */\n      add\n        /* \"#utility.yul\":4638:4685   */\n      mstore\n        /* \"#utility.yul\":4702:4833   */\n      tag_138\n        /* \"#utility.yul\":4828:4832   */\n      dup2\n        /* \"#utility.yul\":4702:4833   */\n      tag_126\n      jump\t// in\n    tag_138:\n        /* \"#utility.yul\":4694:4833   */\n      swap1\n      pop\n        /* \"#utility.yul\":4421:4840   */\n      swap2\n      swap1\n      pop\n      jump\t// out\n        /* \"#utility.yul\":4846:5068   */\n    tag_11:\n        /* \"#utility.yul\":4939:4943   */\n      0x00\n        /* \"#utility.yul\":4977:4979   */\n      0x20\n        /* \"#utility.yul\":4966:4975   */\n      dup3\n        /* \"#utility.yul\":4962:4980   */\n      add\n        /* \"#utility.yul\":4954:4980   */\n      swap1\n      pop\n        /* \"#utility.yul\":4990:5061   */\n      tag_140\n        /* \"#utility.yul\":5058:5059   */\n      0x00\n        /* \"#utility.yul\":5047:5056   */\n      dup4\n        /* \"#utility.yul\":5043:5060   */\n      add\n        /* \"#utility.yul\":5034:5040   */\n      dup5\n        /* \"#utility.yul\":4990:5061   */\n      tag_131\n      jump\t// in\n    tag_140:\n        /* \"#utility.yul\":4846:5068   */\n      swap3\n      swap2\n      pop\n      pop\n      jump\t// out\n        /* \"#utility.yul\":5074:5203   */\n    tag_74:\n        /* \"#utility.yul\":5108:5114   */\n      0x00\n        /* \"#utility.yul\":5135:5155   */\n      tag_142\n      tag_143\n      jump\t// in\n    tag_142:\n        /* \"#utility.yul\":5125:5155   */\n      swap1\n      pop\n        /* \"#utility.yul\":5164:5197   */\n      tag_144\n        /* \"#utility.yul\":5192:5196   */\n      dup3\n        /* \"#utility.yul\":5184:5190   */\n      dup3\n        /* \"#utility.yul\":5164:5197   */\n      tag_145\n      jump\t// in\n    tag_144:\n        /* \"#utility.yul\":5074:5203   */\n      swap2\n      swap1\n      pop\n      jump\t// out\n        /* \"#utility.yul\":5209:5284   */\n    tag_143:\n        /* \"#utility.yul\":5242:5248   */\n      0x00\n        /* \"#utility.yul\":5275:5277   */\n      0x40\n        /* \"#utility.yul\":5269:5278   */\n      mload\n        /* \"#utility.yul\":5259:5278   */\n      swap1\n      pop\n        /* \"#utility.yul\":5209:5284   */\n      swap1\n      jump\t// out\n        /* \"#utility.yul\":5290:5598   */\n    tag_73:\n        /* \"#utility.yul\":5352:5356   */\n      0x00\n        /* \"#utility.yul\":5442:5460   */\n      0xffffffffffffffff\n        /* \"#utility.yul\":5434:5440   */\n      dup3\n        /* \"#utility.yul\":5431:5461   */\n      gt\n        /* \"#utility.yul\":5428:5484   */\n      iszero\n      tag_148\n      jumpi\n        /* \"#utility.yul\":5464:5482   */\n      tag_149\n      tag_150\n      jump\t// in\n    tag_149:\n        /* \"#utility.yul\":5428:5484   */\n    tag_148:\n        /* \"#utility.yul\":5502:5531   */\n      tag_151\n        /* \"#utility.yul\":5524:5530   */\n      dup3\n        /* \"#utility.yul\":5502:5531   */\n      tag_125\n      jump\t// in\n    tag_151:\n        /* \"#utility.yul\":5494:5531   */\n      swap1\n      pop\n        /* \"#utility.yul\":5586:5590   */\n      0x20\n        /* \"#utility.yul\":5580:5584   */\n      dup2\n        /* \"#utility.yul\":5576:5591   */\n      add\n        /* \"#utility.yul\":5568:5591   */\n      swap1\n      pop\n        /* \"#utility.yul\":5290:5598   */\n      swap2\n      swap1\n      pop\n      jump\t// out\n        /* \"#utility.yul\":5604:5703   */\n    tag_119:\n        /* \"#utility.yul\":5656:5662   */\n      0x00\n        /* \"#utility.yul\":5690:5695   */\n      dup2\n        /* \"#utility.yul\":5684:5696   */\n      mload\n        /* \"#utility.yul\":5674:5696   */\n      swap1\n      pop\n        /* \"#utility.yul\":5604:5703   */\n      swap2\n      swap1\n      pop\n      jump\t// out\n        /* \"#utility.yul\":5709:5878   */\n    tag_121:\n        /* \"#utility.yul\":5793:5804   */\n      0x00\n        /* \"#utility.yul\":5827:5833   */\n      dup3\n        /* \"#utility.yul\":5822:5825   */\n      dup3\n        /* \"#utility.yul\":5815:5834   */\n      mstore\n        /* \"#utility.yul\":5867:5871   */\n      0x20\n        /* \"#utility.yul\":5862:5865   */\n      dup3\n        /* \"#utility.yul\":5858:5872   */\n      add\n        /* \"#utility.yul\":5843:5872   */\n      swap1\n      pop\n        /* \"#utility.yul\":5709:5878   */\n      swap3\n      swap2\n      pop\n      pop\n      jump\t// out\n        /* \"#utility.yul\":5884:6189   */\n    tag_35:\n        /* \"#utility.yul\":5924:5927   */\n      0x00\n        /* \"#utility.yul\":5943:5963   */\n      tag_155\n        /* \"#utility.yul\":5961:5962   */\n      dup3\n        /* \"#utility.yul\":5943:5963   */\n      tag_134\n      jump\t// in\n    tag_155:\n        /* \"#utility.yul\":5938:5963   */\n      swap2\n      pop\n        /* \"#utility.yul\":5977:5997   */\n      tag_156\n        /* \"#utility.yul\":5995:5996   */\n      dup4\n        /* \"#utility.yul\":5977:5997   */\n      tag_134\n      jump\t// in\n    tag_156:\n        /* \"#utility.yul\":5972:5997   */\n      swap3\n      pop\n        /* \"#utility.yul\":6131:6132   */\n      dup3\n        /* \"#utility.yul\":6063:6129   */\n      0xffffffffffffffffffffffffffffffffffffffffffffffffffffffffffffffff\n        /* \"#utility.yul\":6059:6133   */\n      sub\n        /* \"#utility.yul\":6056:6057   */\n      dup3\n        /* \"#utility.yul\":6053:6134   */\n      gt\n        /* \"#utility.yul\":6050:6157   */\n      iszero\n      tag_157\n      jumpi\n        /* \"#utility.yul\":6137:6155   */\n      tag_158\n      tag_159\n      jump\t// in\n    tag_158:\n        /* \"#utility.yul\":6050:6157   */\n    tag_157:\n        /* \"#utility.yul\":6181:6182   */\n      dup3\n        /* \"#utility.yul\":6178:6179   */\n      dup3\n        /* \"#utility.yul\":6174:6183   */\n      add\n        /* \"#utility.yul\":6167:6183   */\n      swap1\n      pop\n        /* \"#utility.yul\":5884:6189   */\n      swap3\n      swap2\n      pop\n      pop\n      jump\t// out\n        /* \"#utility.yul\":6195:6386   */\n    tag_52:\n        /* \"#utility.yul\":6235:6239   */\n      0x00\n        /* \"#utility.yul\":6255:6275   */\n      tag_161\n        /* \"#utility.yul\":6273:6274   */\n      dup3\n        /* \"#utility.yul\":6255:6275   */\n      tag_134\n      jump\t// in\n    tag_161:\n        /* \"#utility.yul\":6250:6275   */\n      swap2\n      pop\n        /* \"#utility.yul\":6289:6309   */\n      tag_162\n        /* \"#utility.yul\":6307:6308   */\n      dup4\n        /* \"#utility.yul\":6289:6309   */\n      tag_134\n      jump\t// in\n    tag_162:\n        /* \"#utility.yul\":6284:6309   */\n      swap3\n      pop\n        /* \"#utility.yul\":6328:6329   */\n      dup3\n        /* \"#utility.yul\":6325:6326   */\n      dup3\n        /* \"#utility.yul\":6322:6330   */\n      lt\n        /* \"#utility.yul\":6319:6353   */\n      iszero\n      tag_163\n      jumpi\n        /* \"#utility.yul\":6333:6351   */\n      tag_164\n      tag_159\n      jump\t// in\n    tag_164:\n        /* \"#utility.yul\":6319:6353   */\n    tag_163:\n        /* \"#utility.yul\":6378:6379   */\n      dup3\n        /* \"#utility.yul\":6375:6376   */\n      dup3\n        /* \"#utility.yul\":6371:6380   */\n      sub\n        /* \"#utility.yul\":6363:6380   */\n      swap1\n      pop\n        /* \"#utility.yul\":6195:6386   */\n      swap3\n      swap2\n      pop\n      pop\n      jump\t// out\n        /* \"#utility.yul\":6392:6488   */\n    tag_165:\n        /* \"#utility.yul\":6429:6436   */\n      0x00\n        /* \"#utility.yul\":6458:6482   */\n      tag_167\n        /* \"#utility.yul\":6476:6481   */\n      dup3\n        /* \"#utility.yul\":6458:6482   */\n      tag_168\n      jump\t// in\n    tag_167:\n        /* \"#utility.yul\":6447:6482   */\n      swap1\n      pop\n        /* \"#utility.yul\":6392:6488   */\n      swap2\n      swap1\n      pop\n      jump\t// out\n        /* \"#utility.yul\":6494:6620   */\n    tag_168:\n        /* \"#utility.yul\":6531:6538   */\n      0x00\n        /* \"#utility.yul\":6571:6613   */\n      0xffffffffffffffffffffffffffffffffffffffff\n        /* \"#utility.yul\":6564:6569   */\n      dup3\n        /* \"#utility.yul\":6560:6614   */\n      and\n        /* \"#utility.yul\":6549:6614   */\n      swap1\n      pop\n        /* \"#utility.yul\":6494:6620   */\n      swap2\n      swap1\n      pop\n      jump\t// out\n        /* \"#utility.yul\":6626:6703   */\n    tag_134:\n        /* \"#utility.yul\":6663:6670   */\n      0x00\n        /* \"#utility.yul\":6692:6697   */\n      dup2\n        /* \"#utility.yul\":6681:6697   */\n      swap1\n      pop\n        /* \"#utility.yul\":6626:6703   */\n      swap2\n      swap1\n      pop\n      jump\t// out\n        /* \"#utility.yul\":6709:6863   */\n    tag_79:\n        /* \"#utility.yul\":6793:6799   */\n      dup3\n        /* \"#utility.yul\":6788:6791   */\n      dup2\n        /* \"#utility.yul\":6783:6786   */\n      dup4\n        /* \"#utility.yul\":6770:6800   */\n      calldatacopy\n        /* \"#utility.yul\":6855:6856   */\n      0x00\n        /* \"#utility.yul\":6846:6852   */\n      dup4\n        /* \"#utility.yul\":6841:6844   */\n      dup4\n        /* \"#utility.yul\":6837:6853   */\n      add\n        /* \"#utility.yul\":6830:6857   */\n      mstore\n        /* \"#utility.yul\":6709:6863   */\n      pop\n      pop\n      pop\n      jump\t// out\n        /* \"#utility.yul\":6869:7176   */\n    tag_123:\n        /* \"#utility.yul\":6937:6938   */\n      0x00\n        /* \"#utility.yul\":6947:7060   */\n    tag_173:\n        /* \"#utility.yul\":6961:6967   */\n      dup4\n        /* \"#utility.yul\":6958:6959   */\n      dup2\n        /* \"#utility.yul\":6955:6968   */\n      lt\n        /* \"#utility.yul\":6947:7060   */\n      iszero\n      tag_175\n      jumpi\n        /* \"#utility.yul\":7046:7047   */\n      dup1\n        /* \"#utility.yul\":7041:7044   */\n      dup3\n        /* \"#utility.yul\":7037:7048   */\n      add\n        /* \"#utility.yul\":7031:7049   */\n      mload\n        /* \"#utility.yul\":7027:7028   */\n      dup2\n        /* \"#utility.yul\":7022:7025   */\n      dup5\n        /* \"#utility.yul\":7018:7029   */\n      add\n        /* \"#utility.yul\":7011:7050   */\n      mstore\n        /* \"#utility.yul\":6983:6985   */\n      0x20\n        /* \"#utility.yul\":6980:6981   */\n      dup2\n        /* \"#utility.yul\":6976:6986   */\n      add\n        /* \"#utility.yul\":6971:6986   */\n      swap1\n      pop\n        /* \"#utility.yul\":6947:7060   */\n      jump(tag_173)\n    tag_175:\n        /* \"#utility.yul\":7078:7084   */\n      dup4\n        /* \"#utility.yul\":7075:7076   */\n      dup2\n        /* \"#utility.yul\":7072:7085   */\n      gt\n        /* \"#utility.yul\":7069:7170   */\n      iszero\n      tag_176\n      jumpi\n        /* \"#utility.yul\":7158:7159   */\n      0x00\n        /* \"#utility.yul\":7149:7155   */\n      dup5\n        /* \"#utility.yul\":7144:7147   */\n      dup5\n        /* \"#utility.yul\":7140:7156   */\n      add\n        /* \"#utility.yul\":7133:7160   */\n      mstore\n        /* \"#utility.yul\":7069:7170   */\n    tag_176:\n        /* \"#utility.yul\":6918:7176   */\n      pop\n        /* \"#utility.yul\":6869:7176   */\n      pop\n      pop\n      pop\n      jump\t// out\n        /* \"#utility.yul\":7182:7502   */\n    tag_42:\n        /* \"#utility.yul\":7226:7232   */\n      0x00\n        /* \"#utility.yul\":7263:7264   */\n      0x02\n        /* \"#utility.yul\":7257:7261   */\n      dup3\n        /* \"#utility.yul\":7253:7265   */\n      div\n        /* \"#utility.yul\":7243:7265   */\n      swap1\n      pop\n        /* \"#utility.yul\":7310:7311   */\n      0x01\n        /* \"#utility.yul\":7304:7308   */\n      dup3\n        /* \"#utility.yul\":7300:7312   */\n      and\n        /* \"#utility.yul\":7331:7349   */\n      dup1\n        /* \"#utility.yul\":7321:7402   */\n      tag_178\n      jumpi\n        /* \"#utility.yul\":7387:7391   */\n      0x7f\n        /* \"#utility.yul\":7379:7385   */\n      dup3\n        /* \"#utility.yul\":7375:7392   */\n      and\n        /* \"#utility.yul\":7365:7392   */\n      swap2\n      pop\n        /* \"#utility.yul\":7321:7402   */\n    tag_178:\n        /* \"#utility.yul\":7449:7451   */\n      0x20\n        /* \"#utility.yul\":7441:7447   */\n      dup3\n        /* \"#utility.yul\":7438:7452   */\n      lt\n        /* \"#utility.yul\":7418:7436   */\n      dup2\n        /* \"#utility.yul\":7415:7453   */\n      eq\n        /* \"#utility.yul\":7412:7496   */\n      iszero\n      tag_179\n      jumpi\n        /* \"#utility.yul\":7468:7486   */\n      tag_180\n      tag_181\n      jump\t// in\n    tag_180:\n        /* \"#utility.yul\":7412:7496   */\n    tag_179:\n        /* \"#utility.yul\":7233:7502   */\n      pop\n        /* \"#utility.yul\":7182:7502   */\n      swap2\n      swap1\n      pop\n      jump\t// out\n        /* \"#utility.yul\":7508:7789   */\n    tag_145:\n        /* \"#utility.yul\":7591:7618   */\n      tag_183\n        /* \"#utility.yul\":7613:7617   */\n      dup3\n        /* \"#utility.yul\":7591:7618   */\n      tag_125\n      jump\t// in\n    tag_183:\n        /* \"#utility.yul\":7583:7589   */\n      dup2\n        /* \"#utility.yul\":7579:7619   */\n      add\n        /* \"#utility.yul\":7721:7727   */\n      dup2\n        /* \"#utility.yul\":7709:7719   */\n      dup2\n        /* \"#utility.yul\":7706:7728   */\n      lt\n        /* \"#utility.yul\":7685:7703   */\n      0xffffffffffffffff\n        /* \"#utility.yul\":7673:7683   */\n      dup3\n        /* \"#utility.yul\":7670:7704   */\n      gt\n        /* \"#utility.yul\":7667:7729   */\n      or\n        /* \"#utility.yul\":7664:7752   */\n      iszero\n      tag_184\n      jumpi\n        /* \"#utility.yul\":7732:7750   */\n      tag_185\n      tag_150\n      jump\t// in\n    tag_185:\n        /* \"#utility.yul\":7664:7752   */\n    tag_184:\n        /* \"#utility.yul\":7772:7782   */\n      dup1\n        /* \"#utility.yul\":7768:7770   */\n      0x40\n        /* \"#utility.yul\":7761:7783   */\n      mstore\n        /* \"#utility.yul\":7551:7789   */\n      pop\n        /* \"#utility.yul\":7508:7789   */\n      pop\n      pop\n      jump\t// out\n        /* \"#utility.yul\":7795:7975   */\n    tag_159:\n        /* \"#utility.yul\":7843:7920   */\n      0x4e487b7100000000000000000000000000000000000000000000000000000000\n        /* \"#utility.yul\":7840:7841   */\n      0x00\n        /* \"#utility.yul\":7833:7921   */\n      mstore\n        /* \"#utility.yul\":7940:7944   */\n      0x11\n        /* \"#utility.yul\":7937:7938   */\n      0x04\n        /* \"#utility.yul\":7930:7945   */\n      mstore\n        /* \"#utility.yul\":7964:7968   */\n      0x24\n        /* \"#utility.yul\":7961:7962   */\n      0x00\n        /* \"#utility.yul\":7954:7969   */\n      revert\n        /* \"#utility.yul\":7981:8161   */\n    tag_181:\n        /* \"#utility.yul\":8029:8106   */\n      0x4e487b7100000000000000000000000000000000000000000000000000000000\n        /* \"#utility.yul\":8026:8027   */\n      0x00\n        /* \"#utility.yul\":8019:8107   */\n      mstore\n        /* \"#utility.yul\":8126:8130   */\n      0x22\n        /* \"#utility.yul\":8123:8124   */\n      0x04\n        /* \"#utility.yul\":8116:8131   */\n      mstore\n        /* \"#utility.yul\":8150:8154   */\n      0x24\n        /* \"#utility.yul\":8147:8148   */\n      0x00\n        /* \"#utility.yul\":8140:8155   */\n      revert\n        /* \"#utility.yul\":8167:8347   */\n    tag_150:\n        /* \"#utility.yul\":8215:8292   */\n      0x4e487b7100000000000000000000000000000000000000000000000000000000\n        /* \"#utility.yul\":8212:8213   */\n      0x00\n        /* \"#utility.yul\":8205:8293   */\n      mstore\n        /* \"#utility.yul\":8312:8316   */\n      0x41\n        /* \"#utility.yul\":8309:8310   */\n      0x04\n        /* \"#utility.yul\":8302:8317   */\n      mstore\n        /* \"#utility.yul\":8336:8340   */\n      0x24\n        /* \"#utility.yul\":8333:8334   */\n      0x00\n        /* \"#utility.yul\":8326:8341   */\n      revert\n        /* \"#utility.yul\":8353:8470   */\n    tag_88:\n        /* \"#utility.yul\":8462:8463   */\n      0x00\n        /* \"#utility.yul\":8459:8460   */\n      dup1\n        /* \"#utility.yul\":8452:8464   */\n      revert\n        /* \"#utility.yul\":8476:8593   */\n    tag_77:\n        /* \"#utility.yul\":8585:8586   */\n      0x00\n        /* \"#utility.yul\":8582:8583   */\n      dup1\n        /* \"#utility.yul\":8575:8587   */\n      revert\n        /* \"#utility.yul\":8599:8716   */\n    tag_100:\n        /* \"#utility.yul\":8708:8709   */\n      0x00\n        /* \"#utility.yul\":8705:8706   */\n      dup1\n        /* \"#utility.yul\":8698:8710   */\n      revert\n        /* \"#utility.yul\":8722:8839   */\n    tag_93:\n        /* \"#utility.yul\":8831:8832   */\n      0x00\n        /* \"#utility.yul\":8828:8829   */\n      dup1\n        /* \"#utility.yul\":8821:8833   */\n      revert\n        /* \"#utility.yul\":8845:8947   */\n    tag_125:\n        /* \"#utility.yul\":8886:8892   */\n      0x00\n        /* \"#utility.yul\":8937:8939   */\n      0x1f\n        /* \"#utility.yul\":8933:8940   */\n      not\n        /* \"#utility.yul\":8928:8930   */\n      0x1f\n        /* \"#utility.yul\":8921:8926   */\n      dup4\n        /* \"#utility.yul\":8917:8931   */\n      add\n        /* \"#utility.yul\":8913:8941   */\n      and\n        /* \"#utility.yul\":8903:8941   */\n      swap1\n      pop\n        /* \"#utility.yul\":8845:8947   */\n      swap2\n      swap1\n      pop\n      jump\t// out\n        /* \"#utility.yul\":8953:9125   */\n    tag_130:\n        /* \"#utility.yul\":9093:9117   */\n      0x50726f66696c6520646f6573206e6f7420657869737400000000000000000000\n        /* \"#utility.yul\":9089:9090   */\n      0x00\n        /* \"#utility.yul\":9081:9087   */\n      dup3\n        /* \"#utility.yul\":9077:9091   */\n      add\n        /* \"#utility.yul\":9070:9118   */\n      mstore\n        /* \"#utility.yul\":8953:9125   */\n      pop\n      jump\t// out\n        /* \"#utility.yul\":9131:9253   */\n    tag_83:\n        /* \"#utility.yul\":9204:9228   */\n      tag_196\n        /* \"#utility.yul\":9222:9227   */\n      dup2\n        /* \"#utility.yul\":9204:9228   */\n      tag_165\n      jump\t// in\n    tag_196:\n        /* \"#utility.yul\":9197:9202   */\n      dup2\n        /* \"#utility.yul\":9194:9229   */\n      eq\n        /* \"#utility.yul\":9184:9247   */\n      tag_197\n      jumpi\n        /* \"#utility.yul\":9243:9244   */\n      0x00\n        /* \"#utility.yul\":9240:9241   */\n      dup1\n        /* \"#utility.yul\":9233:9245   */\n      revert\n        /* \"#utility.yul\":9184:9247   */\n    tag_197:\n        /* \"#utility.yul\":9131:9253   */\n      pop\n      jump\t// out\n\n    auxdata: 0xa2646970667358221220b4d74f77d0d14d3096fc6aaa02dce4f9cd7a18890662c57c16b40e719204abdc64736f6c63430008070033\n}\n",
				"bytecode": {
					"linkReferences": {},
					"object": "6080604052600060015534801561001557600080fd5b50610bff806100256000396000f3fe608060405234801561001057600080fd5b50600436106100575760003560e01c8063169134691461005c57806322a9d1bc1461007a5780635fd4b08a14610096578063a0441f29146100c6578063b94864eb146100e2575b600080fd5b6100646100fe565b60405161007191906108df565b60405180910390f35b610094600480360381019061008f9190610777565b610104565b005b6100b060048036038101906100ab91906106ee565b610263565b6040516100bd919061089d565b60405180910390f35b6100e060048036038101906100db91906106ee565b6103cd565b005b6100fc60048036038101906100f7919061071b565b6104d5565b005b60015481565b60006040518060a001604052808681526020018581526020018481526020018373ffffffffffffffffffffffffffffffffffffffff168152602001600115158152509050806000808473ffffffffffffffffffffffffffffffffffffffff1673ffffffffffffffffffffffffffffffffffffffff16815260200190815260200160002060008201518160000190805190602001906101a39291906105c6565b5060208201518160010190805190602001906101c09291906105c6565b5060408201518160020190805190602001906101dd9291906105c6565b5060608201518160030160006101000a81548173ffffffffffffffffffffffffffffffffffffffff021916908373ffffffffffffffffffffffffffffffffffffffff16021790555060808201518160030160146101000a81548160ff02191690831515021790555090505060018054610256919061096c565b6001819055505050505050565b606081600115156000808373ffffffffffffffffffffffffffffffffffffffff1673ffffffffffffffffffffffffffffffffffffffff16815260200190815260200160002060030160149054906101000a900460ff161515146102fb576040517f08c379a00000000000000000000000000000000000000000000000000000000081526004016102f2906108bf565b60405180910390fd5b6000808473ffffffffffffffffffffffffffffffffffffffff1673ffffffffffffffffffffffffffffffffffffffff168152602001908152602001600020600001805461034790610a74565b80601f016020809104026020016040519081016040528092919081815260200182805461037390610a74565b80156103c05780601f10610395576101008083540402835291602001916103c0565b820191906000526020600020905b8154815290600101906020018083116103a357829003601f168201915b5050505050915050919050565b80600115156000808373ffffffffffffffffffffffffffffffffffffffff1673ffffffffffffffffffffffffffffffffffffffff16815260200190815260200160002060030160149054906101000a900460ff16151514610463576040517f08c379a000000000000000000000000000000000000000000000000000000000815260040161045a906108bf565b60405180910390fd5b60008060008473ffffffffffffffffffffffffffffffffffffffff1673ffffffffffffffffffffffffffffffffffffffff16815260200190815260200160002060030160146101000a81548160ff021916908315150217905550600180546104cb91906109c2565b6001819055505050565b80600115156000808373ffffffffffffffffffffffffffffffffffffffff1673ffffffffffffffffffffffffffffffffffffffff16815260200190815260200160002060030160149054906101000a900460ff1615151461056b576040517f08c379a0000000000000000000000000000000000000000000000000000000008152600401610562906108bf565b60405180910390fd5b826000808473ffffffffffffffffffffffffffffffffffffffff1673ffffffffffffffffffffffffffffffffffffffff16815260200190815260200160002060000190805190602001906105c09291906105c6565b50505050565b8280546105d290610a74565b90600052602060002090601f0160209004810192826105f4576000855561063b565b82601f1061060d57805160ff191683800117855561063b565b8280016001018555821561063b579182015b8281111561063a57825182559160200191906001019061061f565b5b509050610648919061064c565b5090565b5b8082111561066557600081600090555060010161064d565b5090565b600061067c6106778461091f565b6108fa565b90508281526020810184848401111561069857610697610b69565b5b6106a3848285610a32565b509392505050565b6000813590506106ba81610bb2565b92915050565b600082601f8301126106d5576106d4610b64565b5b81356106e5848260208601610669565b91505092915050565b60006020828403121561070457610703610b73565b5b6000610712848285016106ab565b91505092915050565b6000806040838503121561073257610731610b73565b5b600083013567ffffffffffffffff8111156107505761074f610b6e565b5b61075c858286016106c0565b925050602061076d858286016106ab565b9150509250929050565b6000806000806080858703121561079157610790610b73565b5b600085013567ffffffffffffffff8111156107af576107ae610b6e565b5b6107bb878288016106c0565b945050602085013567ffffffffffffffff8111156107dc576107db610b6e565b5b6107e8878288016106c0565b935050604085013567ffffffffffffffff81111561080957610808610b6e565b5b610815878288016106c0565b9250506060610826878288016106ab565b91505092959194509250565b600061083d82610950565b610847818561095b565b9350610857818560208601610a41565b61086081610b78565b840191505092915050565b600061087860168361095b565b915061088382610b89565b602082019050919050565b61089781610a28565b82525050565b600060208201905081810360008301526108b78184610832565b905092915050565b600060208201905081810360008301526108d88161086b565b9050919050565b60006020820190506108f4600083018461088e565b92915050565b6000610904610915565b90506109108282610aa6565b919050565b6000604051905090565b600067ffffffffffffffff82111561093a57610939610b35565b5b61094382610b78565b9050602081019050919050565b600081519050919050565b600082825260208201905092915050565b600061097782610a28565b915061098283610a28565b9250827fffffffffffffffffffffffffffffffffffffffffffffffffffffffffffffffff038211156109b7576109b6610ad7565b5b828201905092915050565b60006109cd82610a28565b91506109d883610a28565b9250828210156109eb576109ea610ad7565b5b828203905092915050565b6000610a0182610a08565b9050919050565b600073ffffffffffffffffffffffffffffffffffffffff82169050919050565b6000819050919050565b82818337600083830152505050565b60005b83811015610a5f578082015181840152602081019050610a44565b83811115610a6e576000848401525b50505050565b60006002820490506001821680610a8c57607f821691505b60208210811415610aa057610a9f610b06565b5b50919050565b610aaf82610b78565b810181811067ffffffffffffffff82111715610ace57610acd610b35565b5b80604052505050565b7f4e487b7100000000000000000000000000000000000000000000000000000000600052601160045260246000fd5b7f4e487b7100000000000000000000000000000000000000000000000000000000600052602260045260246000fd5b7f4e487b7100000000000000000000000000000000000000000000000000000000600052604160045260246000fd5b600080fd5b600080fd5b600080fd5b600080fd5b6000601f19601f8301169050919050565b7f50726f66696c6520646f6573206e6f7420657869737400000000000000000000600082015250565b610bbb816109f6565b8114610bc657600080fd5b5056fea2646970667358221220b4d74f77d0d14d3096fc6aaa02dce4f9cd7a18890662c57c16b40e719204abdc64736f6c63430008070033",
					"opcodes": "PUSH1 0x80 PUSH1 0x40 MSTORE PUSH1 0x0 PUSH1 0x1 SSTORE CALLVALUE DUP1 ISZERO PUSH2 0x15 JUMPI PUSH1 0x0 DUP1 REVERT JUMPDEST POP PUSH2 0xBFF DUP1 PUSH2 0x25 PUSH1 0x0 CODECOPY PUSH1 0x0 RETURN INVALID PUSH1 0x80 PUSH1 0x40 MSTORE CALLVALUE DUP1 ISZERO PUSH2 0x10 JUMPI PUSH1 0x0 DUP1 REVERT JUMPDEST POP PUSH1 0x4 CALLDATASIZE LT PUSH2 0x57 JUMPI PUSH1 0x0 CALLDATALOAD PUSH1 0xE0 SHR DUP1 PUSH4 0x16913469 EQ PUSH2 0x5C JUMPI DUP1 PUSH4 0x22A9D1BC EQ PUSH2 0x7A JUMPI DUP1 PUSH4 0x5FD4B08A EQ PUSH2 0x96 JUMPI DUP1 PUSH4 0xA0441F29 EQ PUSH2 0xC6 JUMPI DUP1 PUSH4 0xB94864EB EQ PUSH2 0xE2 JUMPI JUMPDEST PUSH1 0x0 DUP1 REVERT JUMPDEST PUSH2 0x64 PUSH2 0xFE JUMP JUMPDEST PUSH1 0x40 MLOAD PUSH2 0x71 SWAP2 SWAP1 PUSH2 0x8DF JUMP JUMPDEST PUSH1 0x40 MLOAD DUP1 SWAP2 SUB SWAP1 RETURN JUMPDEST PUSH2 0x94 PUSH1 0x4 DUP1 CALLDATASIZE SUB DUP2 ADD SWAP1 PUSH2 0x8F SWAP2 SWAP1 PUSH2 0x777 JUMP JUMPDEST PUSH2 0x104 JUMP JUMPDEST STOP JUMPDEST PUSH2 0xB0 PUSH1 0x4 DUP1 CALLDATASIZE SUB DUP2 ADD SWAP1 PUSH2 0xAB SWAP2 SWAP1 PUSH2 0x6EE JUMP JUMPDEST PUSH2 0x263 JUMP JUMPDEST PUSH1 0x40 MLOAD PUSH2 0xBD SWAP2 SWAP1 PUSH2 0x89D JUMP JUMPDEST PUSH1 0x40 MLOAD DUP1 SWAP2 SUB SWAP1 RETURN JUMPDEST PUSH2 0xE0 PUSH1 0x4 DUP1 CALLDATASIZE SUB DUP2 ADD SWAP1 PUSH2 0xDB SWAP2 SWAP1 PUSH2 0x6EE JUMP JUMPDEST PUSH2 0x3CD JUMP JUMPDEST STOP JUMPDEST PUSH2 0xFC PUSH1 0x4 DUP1 CALLDATASIZE SUB DUP2 ADD SWAP1 PUSH2 0xF7 SWAP2 SWAP1 PUSH2 0x71B JUMP JUMPDEST PUSH2 0x4D5 JUMP JUMPDEST STOP JUMPDEST PUSH1 0x1 SLOAD DUP2 JUMP JUMPDEST PUSH1 0x0 PUSH1 0x40 MLOAD DUP1 PUSH1 0xA0 ADD PUSH1 0x40 MSTORE DUP1 DUP7 DUP2 MSTORE PUSH1 0x20 ADD DUP6 DUP2 MSTORE PUSH1 0x20 ADD DUP5 DUP2 MSTORE PUSH1 0x20 ADD DUP4 PUSH20 0xFFFFFFFFFFFFFFFFFFFFFFFFFFFFFFFFFFFFFFFF AND DUP2 MSTORE PUSH1 0x20 ADD PUSH1 0x1 ISZERO ISZERO DUP2 MSTORE POP SWAP1 POP DUP1 PUSH1 0x0 DUP1 DUP5 PUSH20 0xFFFFFFFFFFFFFFFFFFFFFFFFFFFFFFFFFFFFFFFF AND PUSH20 0xFFFFFFFFFFFFFFFFFFFFFFFFFFFFFFFFFFFFFFFF AND DUP2 MSTORE PUSH1 0x20 ADD SWAP1 DUP2 MSTORE PUSH1 0x20 ADD PUSH1 0x0 KECCAK256 PUSH1 0x0 DUP3 ADD MLOAD DUP2 PUSH1 0x0 ADD SWAP1 DUP1 MLOAD SWAP1 PUSH1 0x20 ADD SWAP1 PUSH2 0x1A3 SWAP3 SWAP2 SWAP1 PUSH2 0x5C6 JUMP JUMPDEST POP PUSH1 0x20 DUP3 ADD MLOAD DUP2 PUSH1 0x1 ADD SWAP1 DUP1 MLOAD SWAP1 PUSH1 0x20 ADD SWAP1 PUSH2 0x1C0 SWAP3 SWAP2 SWAP1 PUSH2 0x5C6 JUMP JUMPDEST POP PUSH1 0x40 DUP3 ADD MLOAD DUP2 PUSH1 0x2 ADD SWAP1 DUP1 MLOAD SWAP1 PUSH1 0x20 ADD SWAP1 PUSH2 0x1DD SWAP3 SWAP2 SWAP1 PUSH2 0x5C6 JUMP JUMPDEST POP PUSH1 0x60 DUP3 ADD MLOAD DUP2 PUSH1 0x3 ADD PUSH1 0x0 PUSH2 0x100 EXP DUP2 SLOAD DUP2 PUSH20 0xFFFFFFFFFFFFFFFFFFFFFFFFFFFFFFFFFFFFFFFF MUL NOT AND SWAP1 DUP4 PUSH20 0xFFFFFFFFFFFFFFFFFFFFFFFFFFFFFFFFFFFFFFFF AND MUL OR SWAP1 SSTORE POP PUSH1 0x80 DUP3 ADD MLOAD DUP2 PUSH1 0x3 ADD PUSH1 0x14 PUSH2 0x100 EXP DUP2 SLOAD DUP2 PUSH1 0xFF MUL NOT AND SWAP1 DUP4 ISZERO ISZERO MUL OR SWAP1 SSTORE POP SWAP1 POP POP PUSH1 0x1 DUP1 SLOAD PUSH2 0x256 SWAP2 SWAP1 PUSH2 0x96C JUMP JUMPDEST PUSH1 0x1 DUP2 SWAP1 SSTORE POP POP POP POP POP POP JUMP JUMPDEST PUSH1 0x60 DUP2 PUSH1 0x1 ISZERO ISZERO PUSH1 0x0 DUP1 DUP4 PUSH20 0xFFFFFFFFFFFFFFFFFFFFFFFFFFFFFFFFFFFFFFFF AND PUSH20 0xFFFFFFFFFFFFFFFFFFFFFFFFFFFFFFFFFFFFFFFF AND DUP2 MSTORE PUSH1 0x20 ADD SWAP1 DUP2 MSTORE PUSH1 0x20 ADD PUSH1 0x0 KECCAK256 PUSH1 0x3 ADD PUSH1 0x14 SWAP1 SLOAD SWAP1 PUSH2 0x100 EXP SWAP1 DIV PUSH1 0xFF AND ISZERO ISZERO EQ PUSH2 0x2FB JUMPI PUSH1 0x40 MLOAD PUSH32 0x8C379A000000000000000000000000000000000000000000000000000000000 DUP2 MSTORE PUSH1 0x4 ADD PUSH2 0x2F2 SWAP1 PUSH2 0x8BF JUMP JUMPDEST PUSH1 0x40 MLOAD DUP1 SWAP2 SUB SWAP1 REVERT JUMPDEST PUSH1 0x0 DUP1 DUP5 PUSH20 0xFFFFFFFFFFFFFFFFFFFFFFFFFFFFFFFFFFFFFFFF AND PUSH20 0xFFFFFFFFFFFFFFFFFFFFFFFFFFFFFFFFFFFFFFFF AND DUP2 MSTORE PUSH1 0x20 ADD SWAP1 DUP2 MSTORE PUSH1 0x20 ADD PUSH1 0x0 KECCAK256 PUSH1 0x0 ADD DUP1 SLOAD PUSH2 0x347 SWAP1 PUSH2 0xA74 JUMP JUMPDEST DUP1 PUSH1 0x1F ADD PUSH1 0x20 DUP1 SWAP2 DIV MUL PUSH1 0x20 ADD PUSH1 0x40 MLOAD SWAP1 DUP2 ADD PUSH1 0x40 MSTORE DUP1 SWAP3 SWAP2 SWAP1 DUP2 DUP2 MSTORE PUSH1 0x20 ADD DUP3 DUP1 SLOAD PUSH2 0x373 SWAP1 PUSH2 0xA74 JUMP JUMPDEST DUP1 ISZERO PUSH2 0x3C0 JUMPI DUP1 PUSH1 0x1F LT PUSH2 0x395 JUMPI PUSH2 0x100 DUP1 DUP4 SLOAD DIV MUL DUP4 MSTORE SWAP2 PUSH1 0x20 ADD SWAP2 PUSH2 0x3C0 JUMP JUMPDEST DUP3 ADD SWAP2 SWAP1 PUSH1 0x0 MSTORE PUSH1 0x20 PUSH1 0x0 KECCAK256 SWAP1 JUMPDEST DUP2 SLOAD DUP2 MSTORE SWAP1 PUSH1 0x1 ADD SWAP1 PUSH1 0x20 ADD DUP1 DUP4 GT PUSH2 0x3A3 JUMPI DUP3 SWAP1 SUB PUSH1 0x1F AND DUP3 ADD SWAP2 JUMPDEST POP POP POP POP POP SWAP2 POP POP SWAP2 SWAP1 POP JUMP JUMPDEST DUP1 PUSH1 0x1 ISZERO ISZERO PUSH1 0x0 DUP1 DUP4 PUSH20 0xFFFFFFFFFFFFFFFFFFFFFFFFFFFFFFFFFFFFFFFF AND PUSH20 0xFFFFFFFFFFFFFFFFFFFFFFFFFFFFFFFFFFFFFFFF AND DUP2 MSTORE PUSH1 0x20 ADD SWAP1 DUP2 MSTORE PUSH1 0x20 ADD PUSH1 0x0 KECCAK256 PUSH1 0x3 ADD PUSH1 0x14 SWAP1 SLOAD SWAP1 PUSH2 0x100 EXP SWAP1 DIV PUSH1 0xFF AND ISZERO ISZERO EQ PUSH2 0x463 JUMPI PUSH1 0x40 MLOAD PUSH32 0x8C379A000000000000000000000000000000000000000000000000000000000 DUP2 MSTORE PUSH1 0x4 ADD PUSH2 0x45A SWAP1 PUSH2 0x8BF JUMP JUMPDEST PUSH1 0x40 MLOAD DUP1 SWAP2 SUB SWAP1 REVERT JUMPDEST PUSH1 0x0 DUP1 PUSH1 0x0 DUP5 PUSH20 0xFFFFFFFFFFFFFFFFFFFFFFFFFFFFFFFFFFFFFFFF AND PUSH20 0xFFFFFFFFFFFFFFFFFFFFFFFFFFFFFFFFFFFFFFFF AND DUP2 MSTORE PUSH1 0x20 ADD SWAP1 DUP2 MSTORE PUSH1 0x20 ADD PUSH1 0x0 KECCAK256 PUSH1 0x3 ADD PUSH1 0x14 PUSH2 0x100 EXP DUP2 SLOAD DUP2 PUSH1 0xFF MUL NOT AND SWAP1 DUP4 ISZERO ISZERO MUL OR SWAP1 SSTORE POP PUSH1 0x1 DUP1 SLOAD PUSH2 0x4CB SWAP2 SWAP1 PUSH2 0x9C2 JUMP JUMPDEST PUSH1 0x1 DUP2 SWAP1 SSTORE POP POP POP JUMP JUMPDEST DUP1 PUSH1 0x1 ISZERO ISZERO PUSH1 0x0 DUP1 DUP4 PUSH20 0xFFFFFFFFFFFFFFFFFFFFFFFFFFFFFFFFFFFFFFFF AND PUSH20 0xFFFFFFFFFFFFFFFFFFFFFFFFFFFFFFFFFFFFFFFF AND DUP2 MSTORE PUSH1 0x20 ADD SWAP1 DUP2 MSTORE PUSH1 0x20 ADD PUSH1 0x0 KECCAK256 PUSH1 0x3 ADD PUSH1 0x14 SWAP1 SLOAD SWAP1 PUSH2 0x100 EXP SWAP1 DIV PUSH1 0xFF AND ISZERO ISZERO EQ PUSH2 0x56B JUMPI PUSH1 0x40 MLOAD PUSH32 0x8C379A000000000000000000000000000000000000000000000000000000000 DUP2 MSTORE PUSH1 0x4 ADD PUSH2 0x562 SWAP1 PUSH2 0x8BF JUMP JUMPDEST PUSH1 0x40 MLOAD DUP1 SWAP2 SUB SWAP1 REVERT JUMPDEST DUP3 PUSH1 0x0 DUP1 DUP5 PUSH20 0xFFFFFFFFFFFFFFFFFFFFFFFFFFFFFFFFFFFFFFFF AND PUSH20 0xFFFFFFFFFFFFFFFFFFFFFFFFFFFFFFFFFFFFFFFF AND DUP2 MSTORE PUSH1 0x20 ADD SWAP1 DUP2 MSTORE PUSH1 0x20 ADD PUSH1 0x0 KECCAK256 PUSH1 0x0 ADD SWAP1 DUP1 MLOAD SWAP1 PUSH1 0x20 ADD SWAP1 PUSH2 0x5C0 SWAP3 SWAP2 SWAP1 PUSH2 0x5C6 JUMP JUMPDEST POP POP POP POP JUMP JUMPDEST DUP3 DUP1 SLOAD PUSH2 0x5D2 SWAP1 PUSH2 0xA74 JUMP JUMPDEST SWAP1 PUSH1 0x0 MSTORE PUSH1 0x20 PUSH1 0x0 KECCAK256 SWAP1 PUSH1 0x1F ADD PUSH1 0x20 SWAP1 DIV DUP2 ADD SWAP3 DUP3 PUSH2 0x5F4 JUMPI PUSH1 0x0 DUP6 SSTORE PUSH2 0x63B JUMP JUMPDEST DUP3 PUSH1 0x1F LT PUSH2 0x60D JUMPI DUP1 MLOAD PUSH1 0xFF NOT AND DUP4 DUP1 ADD OR DUP6 SSTORE PUSH2 0x63B JUMP JUMPDEST DUP3 DUP1 ADD PUSH1 0x1 ADD DUP6 SSTORE DUP3 ISZERO PUSH2 0x63B JUMPI SWAP2 DUP3 ADD JUMPDEST DUP3 DUP2 GT ISZERO PUSH2 0x63A JUMPI DUP3 MLOAD DUP3 SSTORE SWAP2 PUSH1 0x20 ADD SWAP2 SWAP1 PUSH1 0x1 ADD SWAP1 PUSH2 0x61F JUMP JUMPDEST JUMPDEST POP SWAP1 POP PUSH2 0x648 SWAP2 SWAP1 PUSH2 0x64C JUMP JUMPDEST POP SWAP1 JUMP JUMPDEST JUMPDEST DUP1 DUP3 GT ISZERO PUSH2 0x665 JUMPI PUSH1 0x0 DUP2 PUSH1 0x0 SWAP1 SSTORE POP PUSH1 0x1 ADD PUSH2 0x64D JUMP JUMPDEST POP SWAP1 JUMP JUMPDEST PUSH1 0x0 PUSH2 0x67C PUSH2 0x677 DUP5 PUSH2 0x91F JUMP JUMPDEST PUSH2 0x8FA JUMP JUMPDEST SWAP1 POP DUP3 DUP2 MSTORE PUSH1 0x20 DUP2 ADD DUP5 DUP5 DUP5 ADD GT ISZERO PUSH2 0x698 JUMPI PUSH2 0x697 PUSH2 0xB69 JUMP JUMPDEST JUMPDEST PUSH2 0x6A3 DUP5 DUP3 DUP6 PUSH2 0xA32 JUMP JUMPDEST POP SWAP4 SWAP3 POP POP POP JUMP JUMPDEST PUSH1 0x0 DUP2 CALLDATALOAD SWAP1 POP PUSH2 0x6BA DUP2 PUSH2 0xBB2 JUMP JUMPDEST SWAP3 SWAP2 POP POP JUMP JUMPDEST PUSH1 0x0 DUP3 PUSH1 0x1F DUP4 ADD SLT PUSH2 0x6D5 JUMPI PUSH2 0x6D4 PUSH2 0xB64 JUMP JUMPDEST JUMPDEST DUP2 CALLDATALOAD PUSH2 0x6E5 DUP5 DUP3 PUSH1 0x20 DUP7 ADD PUSH2 0x669 JUMP JUMPDEST SWAP2 POP POP SWAP3 SWAP2 POP POP JUMP JUMPDEST PUSH1 0x0 PUSH1 0x20 DUP3 DUP5 SUB SLT ISZERO PUSH2 0x704 JUMPI PUSH2 0x703 PUSH2 0xB73 JUMP JUMPDEST JUMPDEST PUSH1 0x0 PUSH2 0x712 DUP5 DUP3 DUP6 ADD PUSH2 0x6AB JUMP JUMPDEST SWAP2 POP POP SWAP3 SWAP2 POP POP JUMP JUMPDEST PUSH1 0x0 DUP1 PUSH1 0x40 DUP4 DUP6 SUB SLT ISZERO PUSH2 0x732 JUMPI PUSH2 0x731 PUSH2 0xB73 JUMP JUMPDEST JUMPDEST PUSH1 0x0 DUP4 ADD CALLDATALOAD PUSH8 0xFFFFFFFFFFFFFFFF DUP2 GT ISZERO PUSH2 0x750 JUMPI PUSH2 0x74F PUSH2 0xB6E JUMP JUMPDEST JUMPDEST PUSH2 0x75C DUP6 DUP3 DUP7 ADD PUSH2 0x6C0 JUMP JUMPDEST SWAP3 POP POP PUSH1 0x20 PUSH2 0x76D DUP6 DUP3 DUP7 ADD PUSH2 0x6AB JUMP JUMPDEST SWAP2 POP POP SWAP3 POP SWAP3 SWAP1 POP JUMP JUMPDEST PUSH1 0x0 DUP1 PUSH1 0x0 DUP1 PUSH1 0x80 DUP6 DUP8 SUB SLT ISZERO PUSH2 0x791 JUMPI PUSH2 0x790 PUSH2 0xB73 JUMP JUMPDEST JUMPDEST PUSH1 0x0 DUP6 ADD CALLDATALOAD PUSH8 0xFFFFFFFFFFFFFFFF DUP2 GT ISZERO PUSH2 0x7AF JUMPI PUSH2 0x7AE PUSH2 0xB6E JUMP JUMPDEST JUMPDEST PUSH2 0x7BB DUP8 DUP3 DUP9 ADD PUSH2 0x6C0 JUMP JUMPDEST SWAP5 POP POP PUSH1 0x20 DUP6 ADD CALLDATALOAD PUSH8 0xFFFFFFFFFFFFFFFF DUP2 GT ISZERO PUSH2 0x7DC JUMPI PUSH2 0x7DB PUSH2 0xB6E JUMP JUMPDEST JUMPDEST PUSH2 0x7E8 DUP8 DUP3 DUP9 ADD PUSH2 0x6C0 JUMP JUMPDEST SWAP4 POP POP PUSH1 0x40 DUP6 ADD CALLDATALOAD PUSH8 0xFFFFFFFFFFFFFFFF DUP2 GT ISZERO PUSH2 0x809 JUMPI PUSH2 0x808 PUSH2 0xB6E JUMP JUMPDEST JUMPDEST PUSH2 0x815 DUP8 DUP3 DUP9 ADD PUSH2 0x6C0 JUMP JUMPDEST SWAP3 POP POP PUSH1 0x60 PUSH2 0x826 DUP8 DUP3 DUP9 ADD PUSH2 0x6AB JUMP JUMPDEST SWAP2 POP POP SWAP3 SWAP6 SWAP2 SWAP5 POP SWAP3 POP JUMP JUMPDEST PUSH1 0x0 PUSH2 0x83D DUP3 PUSH2 0x950 JUMP JUMPDEST PUSH2 0x847 DUP2 DUP6 PUSH2 0x95B JUMP JUMPDEST SWAP4 POP PUSH2 0x857 DUP2 DUP6 PUSH1 0x20 DUP7 ADD PUSH2 0xA41 JUMP JUMPDEST PUSH2 0x860 DUP2 PUSH2 0xB78 JUMP JUMPDEST DUP5 ADD SWAP2 POP POP SWAP3 SWAP2 POP POP JUMP JUMPDEST PUSH1 0x0 PUSH2 0x878 PUSH1 0x16 DUP4 PUSH2 0x95B JUMP JUMPDEST SWAP2 POP PUSH2 0x883 DUP3 PUSH2 0xB89 JUMP JUMPDEST PUSH1 0x20 DUP3 ADD SWAP1 POP SWAP2 SWAP1 POP JUMP JUMPDEST PUSH2 0x897 DUP2 PUSH2 0xA28 JUMP JUMPDEST DUP3 MSTORE POP POP JUMP JUMPDEST PUSH1 0x0 PUSH1 0x20 DUP3 ADD SWAP1 POP DUP2 DUP2 SUB PUSH1 0x0 DUP4 ADD MSTORE PUSH2 0x8B7 DUP2 DUP5 PUSH2 0x832 JUMP JUMPDEST SWAP1 POP SWAP3 SWAP2 POP POP JUMP JUMPDEST PUSH1 0x0 PUSH1 0x20 DUP3 ADD SWAP1 POP DUP2 DUP2 SUB PUSH1 0x0 DUP4 ADD MSTORE PUSH2 0x8D8 DUP2 PUSH2 0x86B JUMP JUMPDEST SWAP1 POP SWAP2 SWAP1 POP JUMP JUMPDEST PUSH1 0x0 PUSH1 0x20 DUP3 ADD SWAP1 POP PUSH2 0x8F4 PUSH1 0x0 DUP4 ADD DUP5 PUSH2 0x88E JUMP JUMPDEST SWAP3 SWAP2 POP POP JUMP JUMPDEST PUSH1 0x0 PUSH2 0x904 PUSH2 0x915 JUMP JUMPDEST SWAP1 POP PUSH2 0x910 DUP3 DUP3 PUSH2 0xAA6 JUMP JUMPDEST SWAP2 SWAP1 POP JUMP JUMPDEST PUSH1 0x0 PUSH1 0x40 MLOAD SWAP1 POP SWAP1 JUMP JUMPDEST PUSH1 0x0 PUSH8 0xFFFFFFFFFFFFFFFF DUP3 GT ISZERO PUSH2 0x93A JUMPI PUSH2 0x939 PUSH2 0xB35 JUMP JUMPDEST JUMPDEST PUSH2 0x943 DUP3 PUSH2 0xB78 JUMP JUMPDEST SWAP1 POP PUSH1 0x20 DUP2 ADD SWAP1 POP SWAP2 SWAP1 POP JUMP JUMPDEST PUSH1 0x0 DUP2 MLOAD SWAP1 POP SWAP2 SWAP1 POP JUMP JUMPDEST PUSH1 0x0 DUP3 DUP3 MSTORE PUSH1 0x20 DUP3 ADD SWAP1 POP SWAP3 SWAP2 POP POP JUMP JUMPDEST PUSH1 0x0 PUSH2 0x977 DUP3 PUSH2 0xA28 JUMP JUMPDEST SWAP2 POP PUSH2 0x982 DUP4 PUSH2 0xA28 JUMP JUMPDEST SWAP3 POP DUP3 PUSH32 0xFFFFFFFFFFFFFFFFFFFFFFFFFFFFFFFFFFFFFFFFFFFFFFFFFFFFFFFFFFFFFFFF SUB DUP3 GT ISZERO PUSH2 0x9B7 JUMPI PUSH2 0x9B6 PUSH2 0xAD7 JUMP JUMPDEST JUMPDEST DUP3 DUP3 ADD SWAP1 POP SWAP3 SWAP2 POP POP JUMP JUMPDEST PUSH1 0x0 PUSH2 0x9CD DUP3 PUSH2 0xA28 JUMP JUMPDEST SWAP2 POP PUSH2 0x9D8 DUP4 PUSH2 0xA28 JUMP JUMPDEST SWAP3 POP DUP3 DUP3 LT ISZERO PUSH2 0x9EB JUMPI PUSH2 0x9EA PUSH2 0xAD7 JUMP JUMPDEST JUMPDEST DUP3 DUP3 SUB SWAP1 POP SWAP3 SWAP2 POP POP JUMP JUMPDEST PUSH1 0x0 PUSH2 0xA01 DUP3 PUSH2 0xA08 JUMP JUMPDEST SWAP1 POP SWAP2 SWAP1 POP JUMP JUMPDEST PUSH1 0x0 PUSH20 0xFFFFFFFFFFFFFFFFFFFFFFFFFFFFFFFFFFFFFFFF DUP3 AND SWAP1 POP SWAP2 SWAP1 POP JUMP JUMPDEST PUSH1 0x0 DUP2 SWAP1 POP SWAP2 SWAP1 POP JUMP JUMPDEST DUP3 DUP2 DUP4 CALLDATACOPY PUSH1 0x0 DUP4 DUP4 ADD MSTORE POP POP POP JUMP JUMPDEST PUSH1 0x0 JUMPDEST DUP4 DUP2 LT ISZERO PUSH2 0xA5F JUMPI DUP1 DUP3 ADD MLOAD DUP2 DUP5 ADD MSTORE PUSH1 0x20 DUP2 ADD SWAP1 POP PUSH2 0xA44 JUMP JUMPDEST DUP4 DUP2 GT ISZERO PUSH2 0xA6E JUMPI PUSH1 0x0 DUP5 DUP5 ADD MSTORE JUMPDEST POP POP POP POP JUMP JUMPDEST PUSH1 0x0 PUSH1 0x2 DUP3 DIV SWAP1 POP PUSH1 0x1 DUP3 AND DUP1 PUSH2 0xA8C JUMPI PUSH1 0x7F DUP3 AND SWAP2 POP JUMPDEST PUSH1 0x20 DUP3 LT DUP2 EQ ISZERO PUSH2 0xAA0 JUMPI PUSH2 0xA9F PUSH2 0xB06 JUMP JUMPDEST JUMPDEST POP SWAP2 SWAP1 POP JUMP JUMPDEST PUSH2 0xAAF DUP3 PUSH2 0xB78 JUMP JUMPDEST DUP2 ADD DUP2 DUP2 LT PUSH8 0xFFFFFFFFFFFFFFFF DUP3 GT OR ISZERO PUSH2 0xACE JUMPI PUSH2 0xACD PUSH2 0xB35 JUMP JUMPDEST JUMPDEST DUP1 PUSH1 0x40 MSTORE POP POP POP JUMP JUMPDEST PUSH32 0x4E487B7100000000000000000000000000000000000000000000000000000000 PUSH1 0x0 MSTORE PUSH1 0x11 PUSH1 0x4 MSTORE PUSH1 0x24 PUSH1 0x0 REVERT JUMPDEST PUSH32 0x4E487B7100000000000000000000000000000000000000000000000000000000 PUSH1 0x0 MSTORE PUSH1 0x22 PUSH1 0x4 MSTORE PUSH1 0x24 PUSH1 0x0 REVERT JUMPDEST PUSH32 0x4E487B7100000000000000000000000000000000000000000000000000000000 PUSH1 0x0 MSTORE PUSH1 0x41 PUSH1 0x4 MSTORE PUSH1 0x24 PUSH1 0x0 REVERT JUMPDEST PUSH1 0x0 DUP1 REVERT JUMPDEST PUSH1 0x0 DUP1 REVERT JUMPDEST PUSH1 0x0 DUP1 REVERT JUMPDEST PUSH1 0x0 DUP1 REVERT JUMPDEST PUSH1 0x0 PUSH1 0x1F NOT PUSH1 0x1F DUP4 ADD AND SWAP1 POP SWAP2 SWAP1 POP JUMP JUMPDEST PUSH32 0x50726F66696C6520646F6573206E6F7420657869737400000000000000000000 PUSH1 0x0 DUP3 ADD MSTORE POP JUMP JUMPDEST PUSH2 0xBBB DUP2 PUSH2 0x9F6 JUMP JUMPDEST DUP2 EQ PUSH2 0xBC6 JUMPI PUSH1 0x0 DUP1 REVERT JUMPDEST POP JUMP INVALID LOG2 PUSH5 0x6970667358 0x22 SLT KECCAK256 0xB4 0xD7 0x4F PUSH24 0xD0D14D3096FC6AAA02DCE4F9CD7A18890662C57C16B40E71 SWAP3 DIV 0xAB 0xDC PUSH5 0x736F6C6343 STOP ADDMOD SMOD STOP CALLER "
				},
				"gasEstimates": {
					"creation": {
						"codeDepositCost": "614200",
						"executionCost": "5651",
						"totalCost": "619851"
					},
					"external": {
						"createProfile(string,string,string,address)": "infinite",
						"deleteProfile(address)": "infinite",
						"getName(address)": "infinite",
						"numProfile()": "2407",
						"updateProfileName(string,address)": "infinite"
					}
				},
				"methodIdentifiers": {
					"createProfile(string,string,string,address)": "22a9d1bc",
					"deleteProfile(address)": "a0441f29",
					"getName(address)": "5fd4b08a",
					"numProfile()": "16913469",
					"updateProfileName(string,address)": "b94864eb"
				}
			},
			"userdoc": {
				"kind": "user",
				"methods": {},
				"version": 1
			}
		}
	}
}