{
	"contracts/Milestone.sol": {
		"Milestone": {
			"abi": [
				{
					"inputs": [
						{
							"internalType": "contract Conflict",
							"name": "conflictContract",
							"type": "address"
						}
					],
					"stateMutability": "nonpayable",
					"type": "constructor"
				},
				{
					"anonymous": false,
					"inputs": [
						{
							"indexed": false,
							"internalType": "uint256",
							"name": "projectNumber",
							"type": "uint256"
						},
						{
							"indexed": false,
							"internalType": "uint256",
							"name": "serviceNumber",
							"type": "uint256"
						},
						{
							"indexed": false,
							"internalType": "uint256",
							"name": "milestoneNumber",
							"type": "uint256"
						},
						{
							"indexed": false,
							"internalType": "string",
							"name": "title",
							"type": "string"
						},
						{
							"indexed": false,
							"internalType": "string",
							"name": "description",
							"type": "string"
						}
					],
					"name": "milestoneCreated",
					"type": "event"
				},
				{
					"anonymous": false,
					"inputs": [
						{
							"indexed": false,
							"internalType": "uint256",
							"name": "projectNumber",
							"type": "uint256"
						},
						{
							"indexed": false,
							"internalType": "uint256",
							"name": "serviceNumber",
							"type": "uint256"
						},
						{
							"indexed": false,
							"internalType": "uint256",
							"name": "milestoneNumber",
							"type": "uint256"
						}
					],
					"name": "milestoneDeleted",
					"type": "event"
				},
				{
					"anonymous": false,
					"inputs": [
						{
							"indexed": false,
							"internalType": "uint256",
							"name": "projectNumber",
							"type": "uint256"
						},
						{
							"indexed": false,
							"internalType": "uint256",
							"name": "serviceNumber",
							"type": "uint256"
						},
						{
							"indexed": false,
							"internalType": "uint256",
							"name": "milestoneNumber",
							"type": "uint256"
						},
						{
							"indexed": false,
							"internalType": "string",
							"name": "title",
							"type": "string"
						},
						{
							"indexed": false,
							"internalType": "string",
							"name": "description",
							"type": "string"
						}
					],
					"name": "milestoneUpdated",
					"type": "event"
				},
				{
					"inputs": [
						{
							"internalType": "uint256",
							"name": "projectNumber",
							"type": "uint256"
						},
						{
							"internalType": "uint256",
							"name": "serviceNumber",
							"type": "uint256"
						},
						{
							"internalType": "string",
							"name": "title",
							"type": "string"
						},
						{
							"internalType": "string",
							"name": "description",
							"type": "string"
						}
					],
					"name": "createMilestone",
					"outputs": [],
					"stateMutability": "nonpayable",
					"type": "function"
				},
				{
					"inputs": [
						{
							"internalType": "uint256",
							"name": "projectNumber",
							"type": "uint256"
						},
						{
							"internalType": "uint256",
							"name": "serviceNumber",
							"type": "uint256"
						},
						{
							"internalType": "uint256",
							"name": "milestoneNumber",
							"type": "uint256"
						}
					],
					"name": "deleteMilestone",
					"outputs": [],
					"stateMutability": "nonpayable",
					"type": "function"
				},
				{
					"inputs": [
						{
							"internalType": "uint256",
							"name": "projectNumber",
							"type": "uint256"
						},
						{
							"internalType": "uint256",
							"name": "serviceNumber",
							"type": "uint256"
						},
						{
							"internalType": "uint256",
							"name": "milestoneNumber",
							"type": "uint256"
						}
					],
					"name": "readMilestoneTitle",
					"outputs": [
						{
							"internalType": "string",
							"name": "",
							"type": "string"
						}
					],
					"stateMutability": "view",
					"type": "function"
				},
				{
					"inputs": [
						{
							"internalType": "uint256",
							"name": "projectNumber",
							"type": "uint256"
						},
						{
							"internalType": "uint256",
							"name": "serviceNumber",
							"type": "uint256"
						},
						{
							"internalType": "uint256",
							"name": "milestoneNumber",
							"type": "uint256"
						},
						{
							"internalType": "string",
							"name": "title",
							"type": "string"
						},
						{
							"internalType": "string",
							"name": "description",
							"type": "string"
						}
					],
					"name": "updateMilestone",
					"outputs": [],
					"stateMutability": "nonpayable",
					"type": "function"
				}
			],
			"devdoc": {
				"kind": "dev",
				"methods": {},
				"version": 1
			},
			"evm": {
				"assembly": "    /* \"contracts/Milestone.sol\":92:3143  contract Milestone {... */\n  mstore(0x40, 0x80)\n    /* \"contracts/Milestone.sol\":1155:1156  0 */\n  0x00\n    /* \"contracts/Milestone.sol\":1130:1156  uint256 milestoneTotal = 0 */\n  0x02\n  sstore\n    /* \"contracts/Milestone.sol\":1185:1186  0 */\n  0x00\n    /* \"contracts/Milestone.sol\":1162:1186  uint256 milestoneNum = 0 */\n  0x03\n  sstore\n    /* \"contracts/Milestone.sol\":142:233  constructor (Conflict conflictContract) public {... */\n  callvalue\n  dup1\n  iszero\n  tag_1\n  jumpi\n  0x00\n  dup1\n  revert\ntag_1:\n  pop\n  mload(0x40)\n  sub(codesize, bytecodeSize)\n  dup1\n  bytecodeSize\n  dup4\n  codecopy\n  dup2\n  dup2\n  add\n  0x40\n  mstore\n  dup2\n  add\n  swap1\n  tag_2\n  swap2\n  swap1\n  tag_3\n  jump\t// in\ntag_2:\n    /* \"contracts/Milestone.sol\":210:226  conflictContract */\n  dup1\n    /* \"contracts/Milestone.sol\":199:207  conflict */\n  0x00\n  dup1\n    /* \"contracts/Milestone.sol\":199:226  conflict = conflictContract */\n  0x0100\n  exp\n  dup2\n  sload\n  dup2\n  0xffffffffffffffffffffffffffffffffffffffff\n  mul\n  not\n  and\n  swap1\n  dup4\n  0xffffffffffffffffffffffffffffffffffffffff\n  and\n  mul\n  or\n  swap1\n  sstore\n  pop\n    /* \"contracts/Milestone.sol\":142:233  constructor (Conflict conflictContract) public {... */\n  pop\n    /* \"contracts/Milestone.sol\":92:3143  contract Milestone {... */\n  jump(tag_6)\n    /* \"#utility.yul\":7:182   */\ntag_8:\n    /* \"#utility.yul\":80:85   */\n  0x00\n    /* \"#utility.yul\":111:117   */\n  dup2\n    /* \"#utility.yul\":105:118   */\n  mload\n    /* \"#utility.yul\":96:118   */\n  swap1\n  pop\n    /* \"#utility.yul\":127:176   */\n  tag_10\n    /* \"#utility.yul\":170:175   */\n  dup2\n    /* \"#utility.yul\":127:176   */\n  tag_11\n  jump\t// in\ntag_10:\n    /* \"#utility.yul\":7:182   */\n  swap3\n  swap2\n  pop\n  pop\n  jump\t// out\n    /* \"#utility.yul\":188:571   */\ntag_3:\n    /* \"#utility.yul\":274:280   */\n  0x00\n    /* \"#utility.yul\":323:325   */\n  0x20\n    /* \"#utility.yul\":311:320   */\n  dup3\n    /* \"#utility.yul\":302:309   */\n  dup5\n    /* \"#utility.yul\":298:321   */\n  sub\n    /* \"#utility.yul\":294:326   */\n  slt\n    /* \"#utility.yul\":291:410   */\n  iszero\n  tag_13\n  jumpi\n    /* \"#utility.yul\":329:408   */\n  tag_14\n  tag_15\n  jump\t// in\ntag_14:\n    /* \"#utility.yul\":291:410   */\ntag_13:\n    /* \"#utility.yul\":449:450   */\n  0x00\n    /* \"#utility.yul\":474:554   */\n  tag_16\n    /* \"#utility.yul\":546:553   */\n  dup5\n    /* \"#utility.yul\":537:543   */\n  dup3\n    /* \"#utility.yul\":526:535   */\n  dup6\n    /* \"#utility.yul\":522:544   */\n  add\n    /* \"#utility.yul\":474:554   */\n  tag_8\n  jump\t// in\ntag_16:\n    /* \"#utility.yul\":464:554   */\n  swap2\n  pop\n    /* \"#utility.yul\":420:564   */\n  pop\n    /* \"#utility.yul\":188:571   */\n  swap3\n  swap2\n  pop\n  pop\n  jump\t// out\n    /* \"#utility.yul\":658:754   */\ntag_19:\n    /* \"#utility.yul\":695:702   */\n  0x00\n    /* \"#utility.yul\":724:748   */\n  tag_21\n    /* \"#utility.yul\":742:747   */\n  dup3\n    /* \"#utility.yul\":724:748   */\n  tag_22\n  jump\t// in\ntag_21:\n    /* \"#utility.yul\":713:748   */\n  swap1\n  pop\n    /* \"#utility.yul\":658:754   */\n  swap2\n  swap1\n  pop\n  jump\t// out\n    /* \"#utility.yul\":760:872   */\ntag_23:\n    /* \"#utility.yul\":813:820   */\n  0x00\n    /* \"#utility.yul\":842:866   */\n  tag_25\n    /* \"#utility.yul\":860:865   */\n  dup3\n    /* \"#utility.yul\":842:866   */\n  tag_19\n  jump\t// in\ntag_25:\n    /* \"#utility.yul\":831:866   */\n  swap1\n  pop\n    /* \"#utility.yul\":760:872   */\n  swap2\n  swap1\n  pop\n  jump\t// out\n    /* \"#utility.yul\":878:1004   */\ntag_22:\n    /* \"#utility.yul\":915:922   */\n  0x00\n    /* \"#utility.yul\":955:997   */\n  0xffffffffffffffffffffffffffffffffffffffff\n    /* \"#utility.yul\":948:953   */\n  dup3\n    /* \"#utility.yul\":944:998   */\n  and\n    /* \"#utility.yul\":933:998   */\n  swap1\n  pop\n    /* \"#utility.yul\":878:1004   */\n  swap2\n  swap1\n  pop\n  jump\t// out\n    /* \"#utility.yul\":1133:1250   */\ntag_15:\n    /* \"#utility.yul\":1242:1243   */\n  0x00\n    /* \"#utility.yul\":1239:1240   */\n  dup1\n    /* \"#utility.yul\":1232:1244   */\n  revert\n    /* \"#utility.yul\":1256:1410   */\ntag_11:\n    /* \"#utility.yul\":1345:1385   */\n  tag_31\n    /* \"#utility.yul\":1379:1384   */\n  dup2\n    /* \"#utility.yul\":1345:1385   */\n  tag_23\n  jump\t// in\ntag_31:\n    /* \"#utility.yul\":1338:1343   */\n  dup2\n    /* \"#utility.yul\":1335:1386   */\n  eq\n    /* \"#utility.yul\":1325:1404   */\n  tag_32\n  jumpi\n    /* \"#utility.yul\":1400:1401   */\n  0x00\n    /* \"#utility.yul\":1397:1398   */\n  dup1\n    /* \"#utility.yul\":1390:1402   */\n  revert\n    /* \"#utility.yul\":1325:1404   */\ntag_32:\n    /* \"#utility.yul\":1256:1410   */\n  pop\n  jump\t// out\n    /* \"contracts/Milestone.sol\":92:3143  contract Milestone {... */\ntag_6:\n  dataSize(sub_0)\n  dup1\n  dataOffset(sub_0)\n  0x00\n  codecopy\n  0x00\n  return\nstop\n\nsub_0: assembly {\n        /* \"contracts/Milestone.sol\":92:3143  contract Milestone {... */\n      mstore(0x40, 0x80)\n      callvalue\n      dup1\n      iszero\n      tag_1\n      jumpi\n      0x00\n      dup1\n      revert\n    tag_1:\n      pop\n      jumpi(tag_2, lt(calldatasize, 0x04))\n      shr(0xe0, calldataload(0x00))\n      dup1\n      0x63ef8a50\n      eq\n      tag_3\n      jumpi\n      dup1\n      0xace731bd\n      eq\n      tag_4\n      jumpi\n      dup1\n      0xb9b6c5d4\n      eq\n      tag_5\n      jumpi\n      dup1\n      0xfd23c4bb\n      eq\n      tag_6\n      jumpi\n    tag_2:\n      0x00\n      dup1\n      revert\n        /* \"contracts/Milestone.sol\":1281:1989  function createMilestone(uint256 projectNumber, uint256 serviceNumber, string memory title, string memory description) external {... */\n    tag_3:\n      tag_7\n      0x04\n      dup1\n      calldatasize\n      sub\n      dup2\n      add\n      swap1\n      tag_8\n      swap2\n      swap1\n      tag_9\n      jump\t// in\n    tag_8:\n      tag_10\n      jump\t// in\n    tag_7:\n      stop\n        /* \"contracts/Milestone.sol\":2036:2270  function readMilestoneTitle(uint256 projectNumber, uint256 serviceNumber, uint256 milestoneNumber) external view returns (string memory) {... */\n    tag_4:\n      tag_11\n      0x04\n      dup1\n      calldatasize\n      sub\n      dup2\n      add\n      swap1\n      tag_12\n      swap2\n      swap1\n      tag_13\n      jump\t// in\n    tag_12:\n      tag_14\n      jump\t// in\n    tag_11:\n      mload(0x40)\n      tag_15\n      swap2\n      swap1\n      tag_16\n      jump\t// in\n    tag_15:\n      mload(0x40)\n      dup1\n      swap2\n      sub\n      swap1\n      return\n        /* \"contracts/Milestone.sol\":2823:3139  function deleteMilestone(uint256 projectNumber, uint256 serviceNumber, uint256 milestoneNumber) external {... */\n    tag_5:\n      tag_17\n      0x04\n      dup1\n      calldatasize\n      sub\n      dup2\n      add\n      swap1\n      tag_18\n      swap2\n      swap1\n      tag_13\n      jump\t// in\n    tag_18:\n      tag_19\n      jump\t// in\n    tag_17:\n      stop\n        /* \"contracts/Milestone.sol\":2317:2775  function updateMilestone(uint256 projectNumber, uint256 serviceNumber, uint256 milestoneNumber, string memory title, string memory description) external {... */\n    tag_6:\n      tag_20\n      0x04\n      dup1\n      calldatasize\n      sub\n      dup2\n      add\n      swap1\n      tag_21\n      swap2\n      swap1\n      tag_22\n      jump\t// in\n    tag_21:\n      tag_23\n      jump\t// in\n    tag_20:\n      stop\n        /* \"contracts/Milestone.sol\":1281:1989  function createMilestone(uint256 projectNumber, uint256 serviceNumber, string memory title, string memory description) external {... */\n    tag_10:\n        /* \"contracts/Milestone.sol\":1420:1450  milestone storage newMilestone */\n      0x00\n        /* \"contracts/Milestone.sol\":1453:1471  servicesMilestones */\n      0x01\n        /* \"contracts/Milestone.sol\":1453:1486  servicesMilestones[projectNumber] */\n      0x00\n        /* \"contracts/Milestone.sol\":1472:1485  projectNumber */\n      dup7\n        /* \"contracts/Milestone.sol\":1453:1486  servicesMilestones[projectNumber] */\n      dup2\n      mstore\n      0x20\n      add\n      swap1\n      dup2\n      mstore\n      0x20\n      add\n      0x00\n      keccak256\n        /* \"contracts/Milestone.sol\":1453:1501  servicesMilestones[projectNumber][serviceNumber] */\n      0x00\n        /* \"contracts/Milestone.sol\":1487:1500  serviceNumber */\n      dup6\n        /* \"contracts/Milestone.sol\":1453:1501  servicesMilestones[projectNumber][serviceNumber] */\n      dup2\n      mstore\n      0x20\n      add\n      swap1\n      dup2\n      mstore\n      0x20\n      add\n      0x00\n      keccak256\n        /* \"contracts/Milestone.sol\":1453:1515  servicesMilestones[projectNumber][serviceNumber][milestoneNum] */\n      0x00\n        /* \"contracts/Milestone.sol\":1502:1514  milestoneNum */\n      sload(0x03)\n        /* \"contracts/Milestone.sol\":1453:1515  servicesMilestones[projectNumber][serviceNumber][milestoneNum] */\n      dup2\n      mstore\n      0x20\n      add\n      swap1\n      dup2\n      mstore\n      0x20\n      add\n      0x00\n      keccak256\n        /* \"contracts/Milestone.sol\":1420:1515  milestone storage newMilestone = servicesMilestones[projectNumber][serviceNumber][milestoneNum] */\n      swap1\n      pop\n        /* \"contracts/Milestone.sol\":1554:1567  projectNumber */\n      dup5\n        /* \"contracts/Milestone.sol\":1525:1537  newMilestone */\n      dup2\n        /* \"contracts/Milestone.sol\":1525:1551  newMilestone.projectNumber */\n      0x00\n      add\n        /* \"contracts/Milestone.sol\":1525:1567  newMilestone.projectNumber = projectNumber */\n      dup2\n      swap1\n      sstore\n      pop\n        /* \"contracts/Milestone.sol\":1606:1619  serviceNumber */\n      dup4\n        /* \"contracts/Milestone.sol\":1577:1589  newMilestone */\n      dup2\n        /* \"contracts/Milestone.sol\":1577:1603  newMilestone.serviceNumber */\n      0x01\n      add\n        /* \"contracts/Milestone.sol\":1577:1619  newMilestone.serviceNumber = serviceNumber */\n      dup2\n      swap1\n      sstore\n      pop\n        /* \"contracts/Milestone.sol\":1660:1672  milestoneNum */\n      sload(0x03)\n        /* \"contracts/Milestone.sol\":1629:1641  newMilestone */\n      dup2\n        /* \"contracts/Milestone.sol\":1629:1657  newMilestone.milestoneNumber */\n      0x02\n      add\n        /* \"contracts/Milestone.sol\":1629:1672  newMilestone.milestoneNumber = milestoneNum */\n      dup2\n      swap1\n      sstore\n      pop\n        /* \"contracts/Milestone.sol\":1703:1708  title */\n      dup3\n        /* \"contracts/Milestone.sol\":1682:1694  newMilestone */\n      dup2\n        /* \"contracts/Milestone.sol\":1682:1700  newMilestone.title */\n      0x03\n      add\n        /* \"contracts/Milestone.sol\":1682:1708  newMilestone.title = title */\n      swap1\n      dup1\n      mload\n      swap1\n      0x20\n      add\n      swap1\n      tag_25\n      swap3\n      swap2\n      swap1\n      tag_26\n      jump\t// in\n    tag_25:\n      pop\n        /* \"contracts/Milestone.sol\":1745:1756  description */\n      dup2\n        /* \"contracts/Milestone.sol\":1718:1730  newMilestone */\n      dup2\n        /* \"contracts/Milestone.sol\":1718:1742  newMilestone.description */\n      0x04\n      add\n        /* \"contracts/Milestone.sol\":1718:1756  newMilestone.description = description */\n      swap1\n      dup1\n      mload\n      swap1\n      0x20\n      add\n      swap1\n      tag_27\n      swap3\n      swap2\n      swap1\n      tag_26\n      jump\t// in\n    tag_27:\n      pop\n        /* \"contracts/Milestone.sol\":1787:1791  true */\n      0x01\n        /* \"contracts/Milestone.sol\":1766:1778  newMilestone */\n      dup2\n        /* \"contracts/Milestone.sol\":1766:1784  newMilestone.exist */\n      0x05\n      add\n      0x00\n        /* \"contracts/Milestone.sol\":1766:1791  newMilestone.exist = true */\n      0x0100\n      exp\n      dup2\n      sload\n      dup2\n      0xff\n      mul\n      not\n      and\n      swap1\n      dup4\n      iszero\n      iszero\n      mul\n      or\n      swap1\n      sstore\n      pop\n        /* \"contracts/Milestone.sol\":1823:1834  Status.none */\n      0x00\n        /* \"contracts/Milestone.sol\":1801:1813  newMilestone */\n      dup2\n        /* \"contracts/Milestone.sol\":1801:1820  newMilestone.status */\n      0x05\n      add\n      0x01\n        /* \"contracts/Milestone.sol\":1801:1834  newMilestone.status = Status.none */\n      0x0100\n      exp\n      dup2\n      sload\n      dup2\n      0xff\n      mul\n      not\n      and\n      swap1\n      dup4\n      0x06\n      dup2\n      gt\n      iszero\n      tag_28\n      jumpi\n      tag_29\n      tag_30\n      jump\t// in\n    tag_29:\n    tag_28:\n      mul\n      or\n      swap1\n      sstore\n      pop\n        /* \"contracts/Milestone.sol\":1850:1930  milestoneCreated(projectNumber, serviceNumber, milestoneNum, title, description) */\n      0x70d8b12d438dd130d28072c77c8047d9697b630b8dcd969123645998ad67d561\n        /* \"contracts/Milestone.sol\":1867:1880  projectNumber */\n      dup6\n        /* \"contracts/Milestone.sol\":1882:1895  serviceNumber */\n      dup6\n        /* \"contracts/Milestone.sol\":1897:1909  milestoneNum */\n      sload(0x03)\n        /* \"contracts/Milestone.sol\":1911:1916  title */\n      dup7\n        /* \"contracts/Milestone.sol\":1918:1929  description */\n      dup7\n        /* \"contracts/Milestone.sol\":1850:1930  milestoneCreated(projectNumber, serviceNumber, milestoneNum, title, description) */\n      mload(0x40)\n      tag_31\n      swap6\n      swap5\n      swap4\n      swap3\n      swap2\n      swap1\n      tag_32\n      jump\t// in\n    tag_31:\n      mload(0x40)\n      dup1\n      swap2\n      sub\n      swap1\n      log1\n        /* \"contracts/Milestone.sol\":1941:1955  milestoneTotal */\n      0x02\n      0x00\n        /* \"contracts/Milestone.sol\":1941:1957  milestoneTotal++ */\n      dup2\n      sload\n      dup1\n      swap3\n      swap2\n      swap1\n      tag_33\n      swap1\n      tag_34\n      jump\t// in\n    tag_33:\n      swap2\n      swap1\n      pop\n      sstore\n      pop\n        /* \"contracts/Milestone.sol\":1967:1979  milestoneNum */\n      0x03\n      0x00\n        /* \"contracts/Milestone.sol\":1967:1981  milestoneNum++ */\n      dup2\n      sload\n      dup1\n      swap3\n      swap2\n      swap1\n      tag_35\n      swap1\n      tag_34\n      jump\t// in\n    tag_35:\n      swap2\n      swap1\n      pop\n      sstore\n      pop\n        /* \"contracts/Milestone.sol\":1409:1989  {... */\n      pop\n        /* \"contracts/Milestone.sol\":1281:1989  function createMilestone(uint256 projectNumber, uint256 serviceNumber, string memory title, string memory description) external {... */\n      pop\n      pop\n      pop\n      pop\n      jump\t// out\n        /* \"contracts/Milestone.sol\":2036:2270  function readMilestoneTitle(uint256 projectNumber, uint256 serviceNumber, uint256 milestoneNumber) external view returns (string memory) {... */\n    tag_14:\n        /* \"contracts/Milestone.sol\":2158:2171  string memory */\n      0x60\n        /* \"contracts/Milestone.sol\":2191:2209  servicesMilestones */\n      0x01\n        /* \"contracts/Milestone.sol\":2191:2224  servicesMilestones[projectNumber] */\n      0x00\n        /* \"contracts/Milestone.sol\":2210:2223  projectNumber */\n      dup6\n        /* \"contracts/Milestone.sol\":2191:2224  servicesMilestones[projectNumber] */\n      dup2\n      mstore\n      0x20\n      add\n      swap1\n      dup2\n      mstore\n      0x20\n      add\n      0x00\n      keccak256\n        /* \"contracts/Milestone.sol\":2191:2239  servicesMilestones[projectNumber][serviceNumber] */\n      0x00\n        /* \"contracts/Milestone.sol\":2225:2238  serviceNumber */\n      dup5\n        /* \"contracts/Milestone.sol\":2191:2239  servicesMilestones[projectNumber][serviceNumber] */\n      dup2\n      mstore\n      0x20\n      add\n      swap1\n      dup2\n      mstore\n      0x20\n      add\n      0x00\n      keccak256\n        /* \"contracts/Milestone.sol\":2191:2256  servicesMilestones[projectNumber][serviceNumber][milestoneNumber] */\n      0x00\n        /* \"contracts/Milestone.sol\":2240:2255  milestoneNumber */\n      dup4\n        /* \"contracts/Milestone.sol\":2191:2256  servicesMilestones[projectNumber][serviceNumber][milestoneNumber] */\n      dup2\n      mstore\n      0x20\n      add\n      swap1\n      dup2\n      mstore\n      0x20\n      add\n      0x00\n      keccak256\n        /* \"contracts/Milestone.sol\":2191:2262  servicesMilestones[projectNumber][serviceNumber][milestoneNumber].title */\n      0x03\n      add\n        /* \"contracts/Milestone.sol\":2183:2263  return (servicesMilestones[projectNumber][serviceNumber][milestoneNumber].title) */\n      dup1\n      sload\n      tag_37\n      swap1\n      tag_38\n      jump\t// in\n    tag_37:\n      dup1\n      0x1f\n      add\n      0x20\n      dup1\n      swap2\n      div\n      mul\n      0x20\n      add\n      mload(0x40)\n      swap1\n      dup2\n      add\n      0x40\n      mstore\n      dup1\n      swap3\n      swap2\n      swap1\n      dup2\n      dup2\n      mstore\n      0x20\n      add\n      dup3\n      dup1\n      sload\n      tag_39\n      swap1\n      tag_38\n      jump\t// in\n    tag_39:\n      dup1\n      iszero\n      tag_40\n      jumpi\n      dup1\n      0x1f\n      lt\n      tag_41\n      jumpi\n      0x0100\n      dup1\n      dup4\n      sload\n      div\n      mul\n      dup4\n      mstore\n      swap2\n      0x20\n      add\n      swap2\n      jump(tag_40)\n    tag_41:\n      dup3\n      add\n      swap2\n      swap1\n      0x00\n      mstore\n      keccak256(0x00, 0x20)\n      swap1\n    tag_42:\n      dup2\n      sload\n      dup2\n      mstore\n      swap1\n      0x01\n      add\n      swap1\n      0x20\n      add\n      dup1\n      dup4\n      gt\n      tag_42\n      jumpi\n      dup3\n      swap1\n      sub\n      0x1f\n      and\n      dup3\n      add\n      swap2\n    tag_40:\n      pop\n      pop\n      pop\n      pop\n      pop\n      swap1\n      pop\n        /* \"contracts/Milestone.sol\":2036:2270  function readMilestoneTitle(uint256 projectNumber, uint256 serviceNumber, uint256 milestoneNumber) external view returns (string memory) {... */\n      swap4\n      swap3\n      pop\n      pop\n      pop\n      jump\t// out\n        /* \"contracts/Milestone.sol\":2823:3139  function deleteMilestone(uint256 projectNumber, uint256 serviceNumber, uint256 milestoneNumber) external {... */\n    tag_19:\n        /* \"contracts/Milestone.sol\":3013:3018  false */\n      0x00\n        /* \"contracts/Milestone.sol\":2939:2957  servicesMilestones */\n      0x01\n        /* \"contracts/Milestone.sol\":2939:2972  servicesMilestones[projectNumber] */\n      0x00\n        /* \"contracts/Milestone.sol\":2958:2971  projectNumber */\n      dup6\n        /* \"contracts/Milestone.sol\":2939:2972  servicesMilestones[projectNumber] */\n      dup2\n      mstore\n      0x20\n      add\n      swap1\n      dup2\n      mstore\n      0x20\n      add\n      0x00\n      keccak256\n        /* \"contracts/Milestone.sol\":2939:2987  servicesMilestones[projectNumber][serviceNumber] */\n      0x00\n        /* \"contracts/Milestone.sol\":2973:2986  serviceNumber */\n      dup5\n        /* \"contracts/Milestone.sol\":2939:2987  servicesMilestones[projectNumber][serviceNumber] */\n      dup2\n      mstore\n      0x20\n      add\n      swap1\n      dup2\n      mstore\n      0x20\n      add\n      0x00\n      keccak256\n        /* \"contracts/Milestone.sol\":2939:3004  servicesMilestones[projectNumber][serviceNumber][milestoneNumber] */\n      0x00\n        /* \"contracts/Milestone.sol\":2988:3003  milestoneNumber */\n      dup4\n        /* \"contracts/Milestone.sol\":2939:3004  servicesMilestones[projectNumber][serviceNumber][milestoneNumber] */\n      dup2\n      mstore\n      0x20\n      add\n      swap1\n      dup2\n      mstore\n      0x20\n      add\n      0x00\n      keccak256\n        /* \"contracts/Milestone.sol\":2939:3010  servicesMilestones[projectNumber][serviceNumber][milestoneNumber].exist */\n      0x05\n      add\n      0x00\n        /* \"contracts/Milestone.sol\":2939:3018  servicesMilestones[projectNumber][serviceNumber][milestoneNumber].exist = false */\n      0x0100\n      exp\n      dup2\n      sload\n      dup2\n      0xff\n      mul\n      not\n      and\n      swap1\n      dup4\n      iszero\n      iszero\n      mul\n      or\n      swap1\n      sstore\n      pop\n        /* \"contracts/Milestone.sol\":3037:3051  milestoneTotal */\n      0x02\n      0x00\n        /* \"contracts/Milestone.sol\":3037:3053  milestoneTotal-- */\n      dup2\n      sload\n      dup1\n      swap3\n      swap2\n      swap1\n      tag_44\n      swap1\n      tag_45\n      jump\t// in\n    tag_44:\n      swap2\n      swap1\n      pop\n      sstore\n      pop\n        /* \"contracts/Milestone.sol\":3069:3132  milestoneDeleted(projectNumber, serviceNumber, milestoneNumber) */\n      0x2b2605ee52ace237f72e6005eee79180ea3b6151bd8848a6be5e3c224b8a6ec6\n        /* \"contracts/Milestone.sol\":3086:3099  projectNumber */\n      dup4\n        /* \"contracts/Milestone.sol\":3101:3114  serviceNumber */\n      dup4\n        /* \"contracts/Milestone.sol\":3116:3131  milestoneNumber */\n      dup4\n        /* \"contracts/Milestone.sol\":3069:3132  milestoneDeleted(projectNumber, serviceNumber, milestoneNumber) */\n      mload(0x40)\n      tag_46\n      swap4\n      swap3\n      swap2\n      swap1\n      tag_47\n      jump\t// in\n    tag_46:\n      mload(0x40)\n      dup1\n      swap2\n      sub\n      swap1\n      log1\n        /* \"contracts/Milestone.sol\":2823:3139  function deleteMilestone(uint256 projectNumber, uint256 serviceNumber, uint256 milestoneNumber) external {... */\n      pop\n      pop\n      pop\n      jump\t// out\n        /* \"contracts/Milestone.sol\":2317:2775  function updateMilestone(uint256 projectNumber, uint256 serviceNumber, uint256 milestoneNumber, string memory title, string memory description) external {... */\n    tag_23:\n        /* \"contracts/Milestone.sol\":2563:2568  title */\n      dup2\n        /* \"contracts/Milestone.sol\":2489:2507  servicesMilestones */\n      0x01\n        /* \"contracts/Milestone.sol\":2489:2522  servicesMilestones[projectNumber] */\n      0x00\n        /* \"contracts/Milestone.sol\":2508:2521  projectNumber */\n      dup8\n        /* \"contracts/Milestone.sol\":2489:2522  servicesMilestones[projectNumber] */\n      dup2\n      mstore\n      0x20\n      add\n      swap1\n      dup2\n      mstore\n      0x20\n      add\n      0x00\n      keccak256\n        /* \"contracts/Milestone.sol\":2489:2537  servicesMilestones[projectNumber][serviceNumber] */\n      0x00\n        /* \"contracts/Milestone.sol\":2523:2536  serviceNumber */\n      dup7\n        /* \"contracts/Milestone.sol\":2489:2537  servicesMilestones[projectNumber][serviceNumber] */\n      dup2\n      mstore\n      0x20\n      add\n      swap1\n      dup2\n      mstore\n      0x20\n      add\n      0x00\n      keccak256\n        /* \"contracts/Milestone.sol\":2489:2554  servicesMilestones[projectNumber][serviceNumber][milestoneNumber] */\n      0x00\n        /* \"contracts/Milestone.sol\":2538:2553  milestoneNumber */\n      dup6\n        /* \"contracts/Milestone.sol\":2489:2554  servicesMilestones[projectNumber][serviceNumber][milestoneNumber] */\n      dup2\n      mstore\n      0x20\n      add\n      swap1\n      dup2\n      mstore\n      0x20\n      add\n      0x00\n      keccak256\n        /* \"contracts/Milestone.sol\":2489:2560  servicesMilestones[projectNumber][serviceNumber][milestoneNumber].title */\n      0x03\n      add\n        /* \"contracts/Milestone.sol\":2489:2568  servicesMilestones[projectNumber][serviceNumber][milestoneNumber].title = title */\n      swap1\n      dup1\n      mload\n      swap1\n      0x20\n      add\n      swap1\n      tag_49\n      swap3\n      swap2\n      swap1\n      tag_26\n      jump\t// in\n    tag_49:\n      pop\n        /* \"contracts/Milestone.sol\":2658:2669  description */\n      dup1\n        /* \"contracts/Milestone.sol\":2578:2596  servicesMilestones */\n      0x01\n        /* \"contracts/Milestone.sol\":2578:2611  servicesMilestones[projectNumber] */\n      0x00\n        /* \"contracts/Milestone.sol\":2597:2610  projectNumber */\n      dup8\n        /* \"contracts/Milestone.sol\":2578:2611  servicesMilestones[projectNumber] */\n      dup2\n      mstore\n      0x20\n      add\n      swap1\n      dup2\n      mstore\n      0x20\n      add\n      0x00\n      keccak256\n        /* \"contracts/Milestone.sol\":2578:2626  servicesMilestones[projectNumber][serviceNumber] */\n      0x00\n        /* \"contracts/Milestone.sol\":2612:2625  serviceNumber */\n      dup7\n        /* \"contracts/Milestone.sol\":2578:2626  servicesMilestones[projectNumber][serviceNumber] */\n      dup2\n      mstore\n      0x20\n      add\n      swap1\n      dup2\n      mstore\n      0x20\n      add\n      0x00\n      keccak256\n        /* \"contracts/Milestone.sol\":2578:2643  servicesMilestones[projectNumber][serviceNumber][milestoneNumber] */\n      0x00\n        /* \"contracts/Milestone.sol\":2627:2642  milestoneNumber */\n      dup6\n        /* \"contracts/Milestone.sol\":2578:2643  servicesMilestones[projectNumber][serviceNumber][milestoneNumber] */\n      dup2\n      mstore\n      0x20\n      add\n      swap1\n      dup2\n      mstore\n      0x20\n      add\n      0x00\n      keccak256\n        /* \"contracts/Milestone.sol\":2578:2655  servicesMilestones[projectNumber][serviceNumber][milestoneNumber].description */\n      0x04\n      add\n        /* \"contracts/Milestone.sol\":2578:2669  servicesMilestones[projectNumber][serviceNumber][milestoneNumber].description = description */\n      swap1\n      dup1\n      mload\n      swap1\n      0x20\n      add\n      swap1\n      tag_50\n      swap3\n      swap2\n      swap1\n      tag_26\n      jump\t// in\n    tag_50:\n      pop\n        /* \"contracts/Milestone.sol\":2685:2768  milestoneUpdated(projectNumber, serviceNumber, milestoneNumber, title, description) */\n      0x8c0d6ff1212c3fbf79bbe6dc1e26cc40c4e137ec5711d4471b16fa121f933511\n        /* \"contracts/Milestone.sol\":2702:2715  projectNumber */\n      dup6\n        /* \"contracts/Milestone.sol\":2717:2730  serviceNumber */\n      dup6\n        /* \"contracts/Milestone.sol\":2732:2747  milestoneNumber */\n      dup6\n        /* \"contracts/Milestone.sol\":2749:2754  title */\n      dup6\n        /* \"contracts/Milestone.sol\":2756:2767  description */\n      dup6\n        /* \"contracts/Milestone.sol\":2685:2768  milestoneUpdated(projectNumber, serviceNumber, milestoneNumber, title, description) */\n      mload(0x40)\n      tag_51\n      swap6\n      swap5\n      swap4\n      swap3\n      swap2\n      swap1\n      tag_32\n      jump\t// in\n    tag_51:\n      mload(0x40)\n      dup1\n      swap2\n      sub\n      swap1\n      log1\n        /* \"contracts/Milestone.sol\":2317:2775  function updateMilestone(uint256 projectNumber, uint256 serviceNumber, uint256 milestoneNumber, string memory title, string memory description) external {... */\n      pop\n      pop\n      pop\n      pop\n      pop\n      jump\t// out\n    tag_26:\n      dup3\n      dup1\n      sload\n      tag_52\n      swap1\n      tag_38\n      jump\t// in\n    tag_52:\n      swap1\n      0x00\n      mstore\n      keccak256(0x00, 0x20)\n      swap1\n      0x1f\n      add\n      0x20\n      swap1\n      div\n      dup2\n      add\n      swap3\n      dup3\n      tag_54\n      jumpi\n      0x00\n      dup6\n      sstore\n      jump(tag_53)\n    tag_54:\n      dup3\n      0x1f\n      lt\n      tag_55\n      jumpi\n      dup1\n      mload\n      not(0xff)\n      and\n      dup4\n      dup1\n      add\n      or\n      dup6\n      sstore\n      jump(tag_53)\n    tag_55:\n      dup3\n      dup1\n      add\n      0x01\n      add\n      dup6\n      sstore\n      dup3\n      iszero\n      tag_53\n      jumpi\n      swap2\n      dup3\n      add\n    tag_56:\n      dup3\n      dup2\n      gt\n      iszero\n      tag_57\n      jumpi\n      dup3\n      mload\n      dup3\n      sstore\n      swap2\n      0x20\n      add\n      swap2\n      swap1\n      0x01\n      add\n      swap1\n      jump(tag_56)\n    tag_57:\n    tag_53:\n      pop\n      swap1\n      pop\n      tag_58\n      swap2\n      swap1\n      tag_59\n      jump\t// in\n    tag_58:\n      pop\n      swap1\n      jump\t// out\n    tag_59:\n    tag_60:\n      dup1\n      dup3\n      gt\n      iszero\n      tag_61\n      jumpi\n      0x00\n      dup2\n      0x00\n      swap1\n      sstore\n      pop\n      0x01\n      add\n      jump(tag_60)\n    tag_61:\n      pop\n      swap1\n      jump\t// out\n        /* \"#utility.yul\":7:419   */\n    tag_63:\n        /* \"#utility.yul\":85:90   */\n      0x00\n        /* \"#utility.yul\":110:176   */\n      tag_65\n        /* \"#utility.yul\":126:175   */\n      tag_66\n        /* \"#utility.yul\":168:174   */\n      dup5\n        /* \"#utility.yul\":126:175   */\n      tag_67\n      jump\t// in\n    tag_66:\n        /* \"#utility.yul\":110:176   */\n      tag_68\n      jump\t// in\n    tag_65:\n        /* \"#utility.yul\":101:176   */\n      swap1\n      pop\n        /* \"#utility.yul\":199:205   */\n      dup3\n        /* \"#utility.yul\":192:197   */\n      dup2\n        /* \"#utility.yul\":185:206   */\n      mstore\n        /* \"#utility.yul\":237:241   */\n      0x20\n        /* \"#utility.yul\":230:235   */\n      dup2\n        /* \"#utility.yul\":226:242   */\n      add\n        /* \"#utility.yul\":275:278   */\n      dup5\n        /* \"#utility.yul\":266:272   */\n      dup5\n        /* \"#utility.yul\":261:264   */\n      dup5\n        /* \"#utility.yul\":257:273   */\n      add\n        /* \"#utility.yul\":254:279   */\n      gt\n        /* \"#utility.yul\":251:363   */\n      iszero\n      tag_69\n      jumpi\n        /* \"#utility.yul\":282:361   */\n      tag_70\n      tag_71\n      jump\t// in\n    tag_70:\n        /* \"#utility.yul\":251:363   */\n    tag_69:\n        /* \"#utility.yul\":372:413   */\n      tag_72\n        /* \"#utility.yul\":406:412   */\n      dup5\n        /* \"#utility.yul\":401:404   */\n      dup3\n        /* \"#utility.yul\":396:399   */\n      dup6\n        /* \"#utility.yul\":372:413   */\n      tag_73\n      jump\t// in\n    tag_72:\n        /* \"#utility.yul\":91:419   */\n      pop\n        /* \"#utility.yul\":7:419   */\n      swap4\n      swap3\n      pop\n      pop\n      pop\n      jump\t// out\n        /* \"#utility.yul\":439:779   */\n    tag_74:\n        /* \"#utility.yul\":495:500   */\n      0x00\n        /* \"#utility.yul\":544:547   */\n      dup3\n        /* \"#utility.yul\":537:541   */\n      0x1f\n        /* \"#utility.yul\":529:535   */\n      dup4\n        /* \"#utility.yul\":525:542   */\n      add\n        /* \"#utility.yul\":521:548   */\n      slt\n        /* \"#utility.yul\":511:633   */\n      tag_76\n      jumpi\n        /* \"#utility.yul\":552:631   */\n      tag_77\n      tag_78\n      jump\t// in\n    tag_77:\n        /* \"#utility.yul\":511:633   */\n    tag_76:\n        /* \"#utility.yul\":669:675   */\n      dup2\n        /* \"#utility.yul\":656:676   */\n      calldataload\n        /* \"#utility.yul\":694:773   */\n      tag_79\n        /* \"#utility.yul\":769:772   */\n      dup5\n        /* \"#utility.yul\":761:767   */\n      dup3\n        /* \"#utility.yul\":754:758   */\n      0x20\n        /* \"#utility.yul\":746:752   */\n      dup7\n        /* \"#utility.yul\":742:759   */\n      add\n        /* \"#utility.yul\":694:773   */\n      tag_63\n      jump\t// in\n    tag_79:\n        /* \"#utility.yul\":685:773   */\n      swap2\n      pop\n        /* \"#utility.yul\":501:779   */\n      pop\n        /* \"#utility.yul\":439:779   */\n      swap3\n      swap2\n      pop\n      pop\n      jump\t// out\n        /* \"#utility.yul\":785:924   */\n    tag_80:\n        /* \"#utility.yul\":831:836   */\n      0x00\n        /* \"#utility.yul\":869:875   */\n      dup2\n        /* \"#utility.yul\":856:876   */\n      calldataload\n        /* \"#utility.yul\":847:876   */\n      swap1\n      pop\n        /* \"#utility.yul\":885:918   */\n      tag_82\n        /* \"#utility.yul\":912:917   */\n      dup2\n        /* \"#utility.yul\":885:918   */\n      tag_83\n      jump\t// in\n    tag_82:\n        /* \"#utility.yul\":785:924   */\n      swap3\n      swap2\n      pop\n      pop\n      jump\t// out\n        /* \"#utility.yul\":930:2055   */\n    tag_9:\n        /* \"#utility.yul\":1036:1042   */\n      0x00\n        /* \"#utility.yul\":1044:1050   */\n      dup1\n        /* \"#utility.yul\":1052:1058   */\n      0x00\n        /* \"#utility.yul\":1060:1066   */\n      dup1\n        /* \"#utility.yul\":1109:1112   */\n      0x80\n        /* \"#utility.yul\":1097:1106   */\n      dup6\n        /* \"#utility.yul\":1088:1095   */\n      dup8\n        /* \"#utility.yul\":1084:1107   */\n      sub\n        /* \"#utility.yul\":1080:1113   */\n      slt\n        /* \"#utility.yul\":1077:1197   */\n      iszero\n      tag_85\n      jumpi\n        /* \"#utility.yul\":1116:1195   */\n      tag_86\n      tag_87\n      jump\t// in\n    tag_86:\n        /* \"#utility.yul\":1077:1197   */\n    tag_85:\n        /* \"#utility.yul\":1236:1237   */\n      0x00\n        /* \"#utility.yul\":1261:1314   */\n      tag_88\n        /* \"#utility.yul\":1306:1313   */\n      dup8\n        /* \"#utility.yul\":1297:1303   */\n      dup3\n        /* \"#utility.yul\":1286:1295   */\n      dup9\n        /* \"#utility.yul\":1282:1304   */\n      add\n        /* \"#utility.yul\":1261:1314   */\n      tag_80\n      jump\t// in\n    tag_88:\n        /* \"#utility.yul\":1251:1314   */\n      swap5\n      pop\n        /* \"#utility.yul\":1207:1324   */\n      pop\n        /* \"#utility.yul\":1363:1365   */\n      0x20\n        /* \"#utility.yul\":1389:1442   */\n      tag_89\n        /* \"#utility.yul\":1434:1441   */\n      dup8\n        /* \"#utility.yul\":1425:1431   */\n      dup3\n        /* \"#utility.yul\":1414:1423   */\n      dup9\n        /* \"#utility.yul\":1410:1432   */\n      add\n        /* \"#utility.yul\":1389:1442   */\n      tag_80\n      jump\t// in\n    tag_89:\n        /* \"#utility.yul\":1379:1442   */\n      swap4\n      pop\n        /* \"#utility.yul\":1334:1452   */\n      pop\n        /* \"#utility.yul\":1519:1521   */\n      0x40\n        /* \"#utility.yul\":1508:1517   */\n      dup6\n        /* \"#utility.yul\":1504:1522   */\n      add\n        /* \"#utility.yul\":1491:1523   */\n      calldataload\n        /* \"#utility.yul\":1550:1568   */\n      0xffffffffffffffff\n        /* \"#utility.yul\":1542:1548   */\n      dup2\n        /* \"#utility.yul\":1539:1569   */\n      gt\n        /* \"#utility.yul\":1536:1653   */\n      iszero\n      tag_90\n      jumpi\n        /* \"#utility.yul\":1572:1651   */\n      tag_91\n      tag_92\n      jump\t// in\n    tag_91:\n        /* \"#utility.yul\":1536:1653   */\n    tag_90:\n        /* \"#utility.yul\":1677:1740   */\n      tag_93\n        /* \"#utility.yul\":1732:1739   */\n      dup8\n        /* \"#utility.yul\":1723:1729   */\n      dup3\n        /* \"#utility.yul\":1712:1721   */\n      dup9\n        /* \"#utility.yul\":1708:1730   */\n      add\n        /* \"#utility.yul\":1677:1740   */\n      tag_74\n      jump\t// in\n    tag_93:\n        /* \"#utility.yul\":1667:1740   */\n      swap3\n      pop\n        /* \"#utility.yul\":1462:1750   */\n      pop\n        /* \"#utility.yul\":1817:1819   */\n      0x60\n        /* \"#utility.yul\":1806:1815   */\n      dup6\n        /* \"#utility.yul\":1802:1820   */\n      add\n        /* \"#utility.yul\":1789:1821   */\n      calldataload\n        /* \"#utility.yul\":1848:1866   */\n      0xffffffffffffffff\n        /* \"#utility.yul\":1840:1846   */\n      dup2\n        /* \"#utility.yul\":1837:1867   */\n      gt\n        /* \"#utility.yul\":1834:1951   */\n      iszero\n      tag_94\n      jumpi\n        /* \"#utility.yul\":1870:1949   */\n      tag_95\n      tag_92\n      jump\t// in\n    tag_95:\n        /* \"#utility.yul\":1834:1951   */\n    tag_94:\n        /* \"#utility.yul\":1975:2038   */\n      tag_96\n        /* \"#utility.yul\":2030:2037   */\n      dup8\n        /* \"#utility.yul\":2021:2027   */\n      dup3\n        /* \"#utility.yul\":2010:2019   */\n      dup9\n        /* \"#utility.yul\":2006:2028   */\n      add\n        /* \"#utility.yul\":1975:2038   */\n      tag_74\n      jump\t// in\n    tag_96:\n        /* \"#utility.yul\":1965:2038   */\n      swap2\n      pop\n        /* \"#utility.yul\":1760:2048   */\n      pop\n        /* \"#utility.yul\":930:2055   */\n      swap3\n      swap6\n      swap2\n      swap5\n      pop\n      swap3\n      pop\n      jump\t// out\n        /* \"#utility.yul\":2061:2680   */\n    tag_13:\n        /* \"#utility.yul\":2138:2144   */\n      0x00\n        /* \"#utility.yul\":2146:2152   */\n      dup1\n        /* \"#utility.yul\":2154:2160   */\n      0x00\n        /* \"#utility.yul\":2203:2205   */\n      0x60\n        /* \"#utility.yul\":2191:2200   */\n      dup5\n        /* \"#utility.yul\":2182:2189   */\n      dup7\n        /* \"#utility.yul\":2178:2201   */\n      sub\n        /* \"#utility.yul\":2174:2206   */\n      slt\n        /* \"#utility.yul\":2171:2290   */\n      iszero\n      tag_98\n      jumpi\n        /* \"#utility.yul\":2209:2288   */\n      tag_99\n      tag_87\n      jump\t// in\n    tag_99:\n        /* \"#utility.yul\":2171:2290   */\n    tag_98:\n        /* \"#utility.yul\":2329:2330   */\n      0x00\n        /* \"#utility.yul\":2354:2407   */\n      tag_100\n        /* \"#utility.yul\":2399:2406   */\n      dup7\n        /* \"#utility.yul\":2390:2396   */\n      dup3\n        /* \"#utility.yul\":2379:2388   */\n      dup8\n        /* \"#utility.yul\":2375:2397   */\n      add\n        /* \"#utility.yul\":2354:2407   */\n      tag_80\n      jump\t// in\n    tag_100:\n        /* \"#utility.yul\":2344:2407   */\n      swap4\n      pop\n        /* \"#utility.yul\":2300:2417   */\n      pop\n        /* \"#utility.yul\":2456:2458   */\n      0x20\n        /* \"#utility.yul\":2482:2535   */\n      tag_101\n        /* \"#utility.yul\":2527:2534   */\n      dup7\n        /* \"#utility.yul\":2518:2524   */\n      dup3\n        /* \"#utility.yul\":2507:2516   */\n      dup8\n        /* \"#utility.yul\":2503:2525   */\n      add\n        /* \"#utility.yul\":2482:2535   */\n      tag_80\n      jump\t// in\n    tag_101:\n        /* \"#utility.yul\":2472:2535   */\n      swap3\n      pop\n        /* \"#utility.yul\":2427:2545   */\n      pop\n        /* \"#utility.yul\":2584:2586   */\n      0x40\n        /* \"#utility.yul\":2610:2663   */\n      tag_102\n        /* \"#utility.yul\":2655:2662   */\n      dup7\n        /* \"#utility.yul\":2646:2652   */\n      dup3\n        /* \"#utility.yul\":2635:2644   */\n      dup8\n        /* \"#utility.yul\":2631:2653   */\n      add\n        /* \"#utility.yul\":2610:2663   */\n      tag_80\n      jump\t// in\n    tag_102:\n        /* \"#utility.yul\":2600:2663   */\n      swap2\n      pop\n        /* \"#utility.yul\":2555:2673   */\n      pop\n        /* \"#utility.yul\":2061:2680   */\n      swap3\n      pop\n      swap3\n      pop\n      swap3\n      jump\t// out\n        /* \"#utility.yul\":2686:3957   */\n    tag_22:\n        /* \"#utility.yul\":2801:2807   */\n      0x00\n        /* \"#utility.yul\":2809:2815   */\n      dup1\n        /* \"#utility.yul\":2817:2823   */\n      0x00\n        /* \"#utility.yul\":2825:2831   */\n      dup1\n        /* \"#utility.yul\":2833:2839   */\n      0x00\n        /* \"#utility.yul\":2882:2885   */\n      0xa0\n        /* \"#utility.yul\":2870:2879   */\n      dup7\n        /* \"#utility.yul\":2861:2868   */\n      dup9\n        /* \"#utility.yul\":2857:2880   */\n      sub\n        /* \"#utility.yul\":2853:2886   */\n      slt\n        /* \"#utility.yul\":2850:2970   */\n      iszero\n      tag_104\n      jumpi\n        /* \"#utility.yul\":2889:2968   */\n      tag_105\n      tag_87\n      jump\t// in\n    tag_105:\n        /* \"#utility.yul\":2850:2970   */\n    tag_104:\n        /* \"#utility.yul\":3009:3010   */\n      0x00\n        /* \"#utility.yul\":3034:3087   */\n      tag_106\n        /* \"#utility.yul\":3079:3086   */\n      dup9\n        /* \"#utility.yul\":3070:3076   */\n      dup3\n        /* \"#utility.yul\":3059:3068   */\n      dup10\n        /* \"#utility.yul\":3055:3077   */\n      add\n        /* \"#utility.yul\":3034:3087   */\n      tag_80\n      jump\t// in\n    tag_106:\n        /* \"#utility.yul\":3024:3087   */\n      swap6\n      pop\n        /* \"#utility.yul\":2980:3097   */\n      pop\n        /* \"#utility.yul\":3136:3138   */\n      0x20\n        /* \"#utility.yul\":3162:3215   */\n      tag_107\n        /* \"#utility.yul\":3207:3214   */\n      dup9\n        /* \"#utility.yul\":3198:3204   */\n      dup3\n        /* \"#utility.yul\":3187:3196   */\n      dup10\n        /* \"#utility.yul\":3183:3205   */\n      add\n        /* \"#utility.yul\":3162:3215   */\n      tag_80\n      jump\t// in\n    tag_107:\n        /* \"#utility.yul\":3152:3215   */\n      swap5\n      pop\n        /* \"#utility.yul\":3107:3225   */\n      pop\n        /* \"#utility.yul\":3264:3266   */\n      0x40\n        /* \"#utility.yul\":3290:3343   */\n      tag_108\n        /* \"#utility.yul\":3335:3342   */\n      dup9\n        /* \"#utility.yul\":3326:3332   */\n      dup3\n        /* \"#utility.yul\":3315:3324   */\n      dup10\n        /* \"#utility.yul\":3311:3333   */\n      add\n        /* \"#utility.yul\":3290:3343   */\n      tag_80\n      jump\t// in\n    tag_108:\n        /* \"#utility.yul\":3280:3343   */\n      swap4\n      pop\n        /* \"#utility.yul\":3235:3353   */\n      pop\n        /* \"#utility.yul\":3420:3422   */\n      0x60\n        /* \"#utility.yul\":3409:3418   */\n      dup7\n        /* \"#utility.yul\":3405:3423   */\n      add\n        /* \"#utility.yul\":3392:3424   */\n      calldataload\n        /* \"#utility.yul\":3451:3469   */\n      0xffffffffffffffff\n        /* \"#utility.yul\":3443:3449   */\n      dup2\n        /* \"#utility.yul\":3440:3470   */\n      gt\n        /* \"#utility.yul\":3437:3554   */\n      iszero\n      tag_109\n      jumpi\n        /* \"#utility.yul\":3473:3552   */\n      tag_110\n      tag_92\n      jump\t// in\n    tag_110:\n        /* \"#utility.yul\":3437:3554   */\n    tag_109:\n        /* \"#utility.yul\":3578:3641   */\n      tag_111\n        /* \"#utility.yul\":3633:3640   */\n      dup9\n        /* \"#utility.yul\":3624:3630   */\n      dup3\n        /* \"#utility.yul\":3613:3622   */\n      dup10\n        /* \"#utility.yul\":3609:3631   */\n      add\n        /* \"#utility.yul\":3578:3641   */\n      tag_74\n      jump\t// in\n    tag_111:\n        /* \"#utility.yul\":3568:3641   */\n      swap3\n      pop\n        /* \"#utility.yul\":3363:3651   */\n      pop\n        /* \"#utility.yul\":3718:3721   */\n      0x80\n        /* \"#utility.yul\":3707:3716   */\n      dup7\n        /* \"#utility.yul\":3703:3722   */\n      add\n        /* \"#utility.yul\":3690:3723   */\n      calldataload\n        /* \"#utility.yul\":3750:3768   */\n      0xffffffffffffffff\n        /* \"#utility.yul\":3742:3748   */\n      dup2\n        /* \"#utility.yul\":3739:3769   */\n      gt\n        /* \"#utility.yul\":3736:3853   */\n      iszero\n      tag_112\n      jumpi\n        /* \"#utility.yul\":3772:3851   */\n      tag_113\n      tag_92\n      jump\t// in\n    tag_113:\n        /* \"#utility.yul\":3736:3853   */\n    tag_112:\n        /* \"#utility.yul\":3877:3940   */\n      tag_114\n        /* \"#utility.yul\":3932:3939   */\n      dup9\n        /* \"#utility.yul\":3923:3929   */\n      dup3\n        /* \"#utility.yul\":3912:3921   */\n      dup10\n        /* \"#utility.yul\":3908:3930   */\n      add\n        /* \"#utility.yul\":3877:3940   */\n      tag_74\n      jump\t// in\n    tag_114:\n        /* \"#utility.yul\":3867:3940   */\n      swap2\n      pop\n        /* \"#utility.yul\":3661:3950   */\n      pop\n        /* \"#utility.yul\":2686:3957   */\n      swap3\n      swap6\n      pop\n      swap3\n      swap6\n      swap1\n      swap4\n      pop\n      jump\t// out\n        /* \"#utility.yul\":3963:4327   */\n    tag_115:\n        /* \"#utility.yul\":4051:4054   */\n      0x00\n        /* \"#utility.yul\":4079:4118   */\n      tag_117\n        /* \"#utility.yul\":4112:4117   */\n      dup3\n        /* \"#utility.yul\":4079:4118   */\n      tag_118\n      jump\t// in\n    tag_117:\n        /* \"#utility.yul\":4134:4205   */\n      tag_119\n        /* \"#utility.yul\":4198:4204   */\n      dup2\n        /* \"#utility.yul\":4193:4196   */\n      dup6\n        /* \"#utility.yul\":4134:4205   */\n      tag_120\n      jump\t// in\n    tag_119:\n        /* \"#utility.yul\":4127:4205   */\n      swap4\n      pop\n        /* \"#utility.yul\":4214:4266   */\n      tag_121\n        /* \"#utility.yul\":4259:4265   */\n      dup2\n        /* \"#utility.yul\":4254:4257   */\n      dup6\n        /* \"#utility.yul\":4247:4251   */\n      0x20\n        /* \"#utility.yul\":4240:4245   */\n      dup7\n        /* \"#utility.yul\":4236:4252   */\n      add\n        /* \"#utility.yul\":4214:4266   */\n      tag_122\n      jump\t// in\n    tag_121:\n        /* \"#utility.yul\":4291:4320   */\n      tag_123\n        /* \"#utility.yul\":4313:4319   */\n      dup2\n        /* \"#utility.yul\":4291:4320   */\n      tag_124\n      jump\t// in\n    tag_123:\n        /* \"#utility.yul\":4286:4289   */\n      dup5\n        /* \"#utility.yul\":4282:4321   */\n      add\n        /* \"#utility.yul\":4275:4321   */\n      swap2\n      pop\n        /* \"#utility.yul\":4055:4327   */\n      pop\n        /* \"#utility.yul\":3963:4327   */\n      swap3\n      swap2\n      pop\n      pop\n      jump\t// out\n        /* \"#utility.yul\":4333:4451   */\n    tag_125:\n        /* \"#utility.yul\":4420:4444   */\n      tag_127\n        /* \"#utility.yul\":4438:4443   */\n      dup2\n        /* \"#utility.yul\":4420:4444   */\n      tag_128\n      jump\t// in\n    tag_127:\n        /* \"#utility.yul\":4415:4418   */\n      dup3\n        /* \"#utility.yul\":4408:4445   */\n      mstore\n        /* \"#utility.yul\":4333:4451   */\n      pop\n      pop\n      jump\t// out\n        /* \"#utility.yul\":4457:4770   */\n    tag_16:\n        /* \"#utility.yul\":4570:4574   */\n      0x00\n        /* \"#utility.yul\":4608:4610   */\n      0x20\n        /* \"#utility.yul\":4597:4606   */\n      dup3\n        /* \"#utility.yul\":4593:4611   */\n      add\n        /* \"#utility.yul\":4585:4611   */\n      swap1\n      pop\n        /* \"#utility.yul\":4657:4666   */\n      dup2\n        /* \"#utility.yul\":4651:4655   */\n      dup2\n        /* \"#utility.yul\":4647:4667   */\n      sub\n        /* \"#utility.yul\":4643:4644   */\n      0x00\n        /* \"#utility.yul\":4632:4641   */\n      dup4\n        /* \"#utility.yul\":4628:4645   */\n      add\n        /* \"#utility.yul\":4621:4668   */\n      mstore\n        /* \"#utility.yul\":4685:4763   */\n      tag_130\n        /* \"#utility.yul\":4758:4762   */\n      dup2\n        /* \"#utility.yul\":4749:4755   */\n      dup5\n        /* \"#utility.yul\":4685:4763   */\n      tag_115\n      jump\t// in\n    tag_130:\n        /* \"#utility.yul\":4677:4763   */\n      swap1\n      pop\n        /* \"#utility.yul\":4457:4770   */\n      swap3\n      swap2\n      pop\n      pop\n      jump\t// out\n        /* \"#utility.yul\":4776:5218   */\n    tag_47:\n        /* \"#utility.yul\":4925:4929   */\n      0x00\n        /* \"#utility.yul\":4963:4965   */\n      0x60\n        /* \"#utility.yul\":4952:4961   */\n      dup3\n        /* \"#utility.yul\":4948:4966   */\n      add\n        /* \"#utility.yul\":4940:4966   */\n      swap1\n      pop\n        /* \"#utility.yul\":4976:5047   */\n      tag_132\n        /* \"#utility.yul\":5044:5045   */\n      0x00\n        /* \"#utility.yul\":5033:5042   */\n      dup4\n        /* \"#utility.yul\":5029:5046   */\n      add\n        /* \"#utility.yul\":5020:5026   */\n      dup7\n        /* \"#utility.yul\":4976:5047   */\n      tag_125\n      jump\t// in\n    tag_132:\n        /* \"#utility.yul\":5057:5129   */\n      tag_133\n        /* \"#utility.yul\":5125:5127   */\n      0x20\n        /* \"#utility.yul\":5114:5123   */\n      dup4\n        /* \"#utility.yul\":5110:5128   */\n      add\n        /* \"#utility.yul\":5101:5107   */\n      dup6\n        /* \"#utility.yul\":5057:5129   */\n      tag_125\n      jump\t// in\n    tag_133:\n        /* \"#utility.yul\":5139:5211   */\n      tag_134\n        /* \"#utility.yul\":5207:5209   */\n      0x40\n        /* \"#utility.yul\":5196:5205   */\n      dup4\n        /* \"#utility.yul\":5192:5210   */\n      add\n        /* \"#utility.yul\":5183:5189   */\n      dup5\n        /* \"#utility.yul\":5139:5211   */\n      tag_125\n      jump\t// in\n    tag_134:\n        /* \"#utility.yul\":4776:5218   */\n      swap5\n      swap4\n      pop\n      pop\n      pop\n      pop\n      jump\t// out\n        /* \"#utility.yul\":5224:6070   */\n    tag_32:\n        /* \"#utility.yul\":5469:5473   */\n      0x00\n        /* \"#utility.yul\":5507:5510   */\n      0xa0\n        /* \"#utility.yul\":5496:5505   */\n      dup3\n        /* \"#utility.yul\":5492:5511   */\n      add\n        /* \"#utility.yul\":5484:5511   */\n      swap1\n      pop\n        /* \"#utility.yul\":5521:5592   */\n      tag_136\n        /* \"#utility.yul\":5589:5590   */\n      0x00\n        /* \"#utility.yul\":5578:5587   */\n      dup4\n        /* \"#utility.yul\":5574:5591   */\n      add\n        /* \"#utility.yul\":5565:5571   */\n      dup9\n        /* \"#utility.yul\":5521:5592   */\n      tag_125\n      jump\t// in\n    tag_136:\n        /* \"#utility.yul\":5602:5674   */\n      tag_137\n        /* \"#utility.yul\":5670:5672   */\n      0x20\n        /* \"#utility.yul\":5659:5668   */\n      dup4\n        /* \"#utility.yul\":5655:5673   */\n      add\n        /* \"#utility.yul\":5646:5652   */\n      dup8\n        /* \"#utility.yul\":5602:5674   */\n      tag_125\n      jump\t// in\n    tag_137:\n        /* \"#utility.yul\":5684:5756   */\n      tag_138\n        /* \"#utility.yul\":5752:5754   */\n      0x40\n        /* \"#utility.yul\":5741:5750   */\n      dup4\n        /* \"#utility.yul\":5737:5755   */\n      add\n        /* \"#utility.yul\":5728:5734   */\n      dup7\n        /* \"#utility.yul\":5684:5756   */\n      tag_125\n      jump\t// in\n    tag_138:\n        /* \"#utility.yul\":5803:5812   */\n      dup2\n        /* \"#utility.yul\":5797:5801   */\n      dup2\n        /* \"#utility.yul\":5793:5813   */\n      sub\n        /* \"#utility.yul\":5788:5790   */\n      0x60\n        /* \"#utility.yul\":5777:5786   */\n      dup4\n        /* \"#utility.yul\":5773:5791   */\n      add\n        /* \"#utility.yul\":5766:5814   */\n      mstore\n        /* \"#utility.yul\":5831:5909   */\n      tag_139\n        /* \"#utility.yul\":5904:5908   */\n      dup2\n        /* \"#utility.yul\":5895:5901   */\n      dup6\n        /* \"#utility.yul\":5831:5909   */\n      tag_115\n      jump\t// in\n    tag_139:\n        /* \"#utility.yul\":5823:5909   */\n      swap1\n      pop\n        /* \"#utility.yul\":5957:5966   */\n      dup2\n        /* \"#utility.yul\":5951:5955   */\n      dup2\n        /* \"#utility.yul\":5947:5967   */\n      sub\n        /* \"#utility.yul\":5941:5944   */\n      0x80\n        /* \"#utility.yul\":5930:5939   */\n      dup4\n        /* \"#utility.yul\":5926:5945   */\n      add\n        /* \"#utility.yul\":5919:5968   */\n      mstore\n        /* \"#utility.yul\":5985:6063   */\n      tag_140\n        /* \"#utility.yul\":6058:6062   */\n      dup2\n        /* \"#utility.yul\":6049:6055   */\n      dup5\n        /* \"#utility.yul\":5985:6063   */\n      tag_115\n      jump\t// in\n    tag_140:\n        /* \"#utility.yul\":5977:6063   */\n      swap1\n      pop\n        /* \"#utility.yul\":5224:6070   */\n      swap7\n      swap6\n      pop\n      pop\n      pop\n      pop\n      pop\n      pop\n      jump\t// out\n        /* \"#utility.yul\":6076:6205   */\n    tag_68:\n        /* \"#utility.yul\":6110:6116   */\n      0x00\n        /* \"#utility.yul\":6137:6157   */\n      tag_142\n      tag_143\n      jump\t// in\n    tag_142:\n        /* \"#utility.yul\":6127:6157   */\n      swap1\n      pop\n        /* \"#utility.yul\":6166:6199   */\n      tag_144\n        /* \"#utility.yul\":6194:6198   */\n      dup3\n        /* \"#utility.yul\":6186:6192   */\n      dup3\n        /* \"#utility.yul\":6166:6199   */\n      tag_145\n      jump\t// in\n    tag_144:\n        /* \"#utility.yul\":6076:6205   */\n      swap2\n      swap1\n      pop\n      jump\t// out\n        /* \"#utility.yul\":6211:6286   */\n    tag_143:\n        /* \"#utility.yul\":6244:6250   */\n      0x00\n        /* \"#utility.yul\":6277:6279   */\n      0x40\n        /* \"#utility.yul\":6271:6280   */\n      mload\n        /* \"#utility.yul\":6261:6280   */\n      swap1\n      pop\n        /* \"#utility.yul\":6211:6286   */\n      swap1\n      jump\t// out\n        /* \"#utility.yul\":6292:6600   */\n    tag_67:\n        /* \"#utility.yul\":6354:6358   */\n      0x00\n        /* \"#utility.yul\":6444:6462   */\n      0xffffffffffffffff\n        /* \"#utility.yul\":6436:6442   */\n      dup3\n        /* \"#utility.yul\":6433:6463   */\n      gt\n        /* \"#utility.yul\":6430:6486   */\n      iszero\n      tag_148\n      jumpi\n        /* \"#utility.yul\":6466:6484   */\n      tag_149\n      tag_150\n      jump\t// in\n    tag_149:\n        /* \"#utility.yul\":6430:6486   */\n    tag_148:\n        /* \"#utility.yul\":6504:6533   */\n      tag_151\n        /* \"#utility.yul\":6526:6532   */\n      dup3\n        /* \"#utility.yul\":6504:6533   */\n      tag_124\n      jump\t// in\n    tag_151:\n        /* \"#utility.yul\":6496:6533   */\n      swap1\n      pop\n        /* \"#utility.yul\":6588:6592   */\n      0x20\n        /* \"#utility.yul\":6582:6586   */\n      dup2\n        /* \"#utility.yul\":6578:6593   */\n      add\n        /* \"#utility.yul\":6570:6593   */\n      swap1\n      pop\n        /* \"#utility.yul\":6292:6600   */\n      swap2\n      swap1\n      pop\n      jump\t// out\n        /* \"#utility.yul\":6606:6705   */\n    tag_118:\n        /* \"#utility.yul\":6658:6664   */\n      0x00\n        /* \"#utility.yul\":6692:6697   */\n      dup2\n        /* \"#utility.yul\":6686:6698   */\n      mload\n        /* \"#utility.yul\":6676:6698   */\n      swap1\n      pop\n        /* \"#utility.yul\":6606:6705   */\n      swap2\n      swap1\n      pop\n      jump\t// out\n        /* \"#utility.yul\":6711:6880   */\n    tag_120:\n        /* \"#utility.yul\":6795:6806   */\n      0x00\n        /* \"#utility.yul\":6829:6835   */\n      dup3\n        /* \"#utility.yul\":6824:6827   */\n      dup3\n        /* \"#utility.yul\":6817:6836   */\n      mstore\n        /* \"#utility.yul\":6869:6873   */\n      0x20\n        /* \"#utility.yul\":6864:6867   */\n      dup3\n        /* \"#utility.yul\":6860:6874   */\n      add\n        /* \"#utility.yul\":6845:6874   */\n      swap1\n      pop\n        /* \"#utility.yul\":6711:6880   */\n      swap3\n      swap2\n      pop\n      pop\n      jump\t// out\n        /* \"#utility.yul\":6886:6963   */\n    tag_128:\n        /* \"#utility.yul\":6923:6930   */\n      0x00\n        /* \"#utility.yul\":6952:6957   */\n      dup2\n        /* \"#utility.yul\":6941:6957   */\n      swap1\n      pop\n        /* \"#utility.yul\":6886:6963   */\n      swap2\n      swap1\n      pop\n      jump\t// out\n        /* \"#utility.yul\":6969:7123   */\n    tag_73:\n        /* \"#utility.yul\":7053:7059   */\n      dup3\n        /* \"#utility.yul\":7048:7051   */\n      dup2\n        /* \"#utility.yul\":7043:7046   */\n      dup4\n        /* \"#utility.yul\":7030:7060   */\n      calldatacopy\n        /* \"#utility.yul\":7115:7116   */\n      0x00\n        /* \"#utility.yul\":7106:7112   */\n      dup4\n        /* \"#utility.yul\":7101:7104   */\n      dup4\n        /* \"#utility.yul\":7097:7113   */\n      add\n        /* \"#utility.yul\":7090:7117   */\n      mstore\n        /* \"#utility.yul\":6969:7123   */\n      pop\n      pop\n      pop\n      jump\t// out\n        /* \"#utility.yul\":7129:7436   */\n    tag_122:\n        /* \"#utility.yul\":7197:7198   */\n      0x00\n        /* \"#utility.yul\":7207:7320   */\n    tag_157:\n        /* \"#utility.yul\":7221:7227   */\n      dup4\n        /* \"#utility.yul\":7218:7219   */\n      dup2\n        /* \"#utility.yul\":7215:7228   */\n      lt\n        /* \"#utility.yul\":7207:7320   */\n      iszero\n      tag_159\n      jumpi\n        /* \"#utility.yul\":7306:7307   */\n      dup1\n        /* \"#utility.yul\":7301:7304   */\n      dup3\n        /* \"#utility.yul\":7297:7308   */\n      add\n        /* \"#utility.yul\":7291:7309   */\n      mload\n        /* \"#utility.yul\":7287:7288   */\n      dup2\n        /* \"#utility.yul\":7282:7285   */\n      dup5\n        /* \"#utility.yul\":7278:7289   */\n      add\n        /* \"#utility.yul\":7271:7310   */\n      mstore\n        /* \"#utility.yul\":7243:7245   */\n      0x20\n        /* \"#utility.yul\":7240:7241   */\n      dup2\n        /* \"#utility.yul\":7236:7246   */\n      add\n        /* \"#utility.yul\":7231:7246   */\n      swap1\n      pop\n        /* \"#utility.yul\":7207:7320   */\n      jump(tag_157)\n    tag_159:\n        /* \"#utility.yul\":7338:7344   */\n      dup4\n        /* \"#utility.yul\":7335:7336   */\n      dup2\n        /* \"#utility.yul\":7332:7345   */\n      gt\n        /* \"#utility.yul\":7329:7430   */\n      iszero\n      tag_160\n      jumpi\n        /* \"#utility.yul\":7418:7419   */\n      0x00\n        /* \"#utility.yul\":7409:7415   */\n      dup5\n        /* \"#utility.yul\":7404:7407   */\n      dup5\n        /* \"#utility.yul\":7400:7416   */\n      add\n        /* \"#utility.yul\":7393:7420   */\n      mstore\n        /* \"#utility.yul\":7329:7430   */\n    tag_160:\n        /* \"#utility.yul\":7178:7436   */\n      pop\n        /* \"#utility.yul\":7129:7436   */\n      pop\n      pop\n      pop\n      jump\t// out\n        /* \"#utility.yul\":7442:7613   */\n    tag_45:\n        /* \"#utility.yul\":7481:7484   */\n      0x00\n        /* \"#utility.yul\":7504:7528   */\n      tag_162\n        /* \"#utility.yul\":7522:7527   */\n      dup3\n        /* \"#utility.yul\":7504:7528   */\n      tag_128\n      jump\t// in\n    tag_162:\n        /* \"#utility.yul\":7495:7528   */\n      swap2\n      pop\n        /* \"#utility.yul\":7550:7554   */\n      0x00\n        /* \"#utility.yul\":7543:7548   */\n      dup3\n        /* \"#utility.yul\":7540:7555   */\n      eq\n        /* \"#utility.yul\":7537:7578   */\n      iszero\n      tag_163\n      jumpi\n        /* \"#utility.yul\":7558:7576   */\n      tag_164\n      tag_165\n      jump\t// in\n    tag_164:\n        /* \"#utility.yul\":7537:7578   */\n    tag_163:\n        /* \"#utility.yul\":7605:7606   */\n      0x01\n        /* \"#utility.yul\":7598:7603   */\n      dup3\n        /* \"#utility.yul\":7594:7607   */\n      sub\n        /* \"#utility.yul\":7587:7607   */\n      swap1\n      pop\n        /* \"#utility.yul\":7442:7613   */\n      swap2\n      swap1\n      pop\n      jump\t// out\n        /* \"#utility.yul\":7619:7939   */\n    tag_38:\n        /* \"#utility.yul\":7663:7669   */\n      0x00\n        /* \"#utility.yul\":7700:7701   */\n      0x02\n        /* \"#utility.yul\":7694:7698   */\n      dup3\n        /* \"#utility.yul\":7690:7702   */\n      div\n        /* \"#utility.yul\":7680:7702   */\n      swap1\n      pop\n        /* \"#utility.yul\":7747:7748   */\n      0x01\n        /* \"#utility.yul\":7741:7745   */\n      dup3\n        /* \"#utility.yul\":7737:7749   */\n      and\n        /* \"#utility.yul\":7768:7786   */\n      dup1\n        /* \"#utility.yul\":7758:7839   */\n      tag_167\n      jumpi\n        /* \"#utility.yul\":7824:7828   */\n      0x7f\n        /* \"#utility.yul\":7816:7822   */\n      dup3\n        /* \"#utility.yul\":7812:7829   */\n      and\n        /* \"#utility.yul\":7802:7829   */\n      swap2\n      pop\n        /* \"#utility.yul\":7758:7839   */\n    tag_167:\n        /* \"#utility.yul\":7886:7888   */\n      0x20\n        /* \"#utility.yul\":7878:7884   */\n      dup3\n        /* \"#utility.yul\":7875:7889   */\n      lt\n        /* \"#utility.yul\":7855:7873   */\n      dup2\n        /* \"#utility.yul\":7852:7890   */\n      eq\n        /* \"#utility.yul\":7849:7933   */\n      iszero\n      tag_168\n      jumpi\n        /* \"#utility.yul\":7905:7923   */\n      tag_169\n      tag_170\n      jump\t// in\n    tag_169:\n        /* \"#utility.yul\":7849:7933   */\n    tag_168:\n        /* \"#utility.yul\":7670:7939   */\n      pop\n        /* \"#utility.yul\":7619:7939   */\n      swap2\n      swap1\n      pop\n      jump\t// out\n        /* \"#utility.yul\":7945:8226   */\n    tag_145:\n        /* \"#utility.yul\":8028:8055   */\n      tag_172\n        /* \"#utility.yul\":8050:8054   */\n      dup3\n        /* \"#utility.yul\":8028:8055   */\n      tag_124\n      jump\t// in\n    tag_172:\n        /* \"#utility.yul\":8020:8026   */\n      dup2\n        /* \"#utility.yul\":8016:8056   */\n      add\n        /* \"#utility.yul\":8158:8164   */\n      dup2\n        /* \"#utility.yul\":8146:8156   */\n      dup2\n        /* \"#utility.yul\":8143:8165   */\n      lt\n        /* \"#utility.yul\":8122:8140   */\n      0xffffffffffffffff\n        /* \"#utility.yul\":8110:8120   */\n      dup3\n        /* \"#utility.yul\":8107:8141   */\n      gt\n        /* \"#utility.yul\":8104:8166   */\n      or\n        /* \"#utility.yul\":8101:8189   */\n      iszero\n      tag_173\n      jumpi\n        /* \"#utility.yul\":8169:8187   */\n      tag_174\n      tag_150\n      jump\t// in\n    tag_174:\n        /* \"#utility.yul\":8101:8189   */\n    tag_173:\n        /* \"#utility.yul\":8209:8219   */\n      dup1\n        /* \"#utility.yul\":8205:8207   */\n      0x40\n        /* \"#utility.yul\":8198:8220   */\n      mstore\n        /* \"#utility.yul\":7988:8226   */\n      pop\n        /* \"#utility.yul\":7945:8226   */\n      pop\n      pop\n      jump\t// out\n        /* \"#utility.yul\":8232:8465   */\n    tag_34:\n        /* \"#utility.yul\":8271:8274   */\n      0x00\n        /* \"#utility.yul\":8294:8318   */\n      tag_176\n        /* \"#utility.yul\":8312:8317   */\n      dup3\n        /* \"#utility.yul\":8294:8318   */\n      tag_128\n      jump\t// in\n    tag_176:\n        /* \"#utility.yul\":8285:8318   */\n      swap2\n      pop\n        /* \"#utility.yul\":8340:8406   */\n      0xffffffffffffffffffffffffffffffffffffffffffffffffffffffffffffffff\n        /* \"#utility.yul\":8333:8338   */\n      dup3\n        /* \"#utility.yul\":8330:8407   */\n      eq\n        /* \"#utility.yul\":8327:8430   */\n      iszero\n      tag_177\n      jumpi\n        /* \"#utility.yul\":8410:8428   */\n      tag_178\n      tag_165\n      jump\t// in\n    tag_178:\n        /* \"#utility.yul\":8327:8430   */\n    tag_177:\n        /* \"#utility.yul\":8457:8458   */\n      0x01\n        /* \"#utility.yul\":8450:8455   */\n      dup3\n        /* \"#utility.yul\":8446:8459   */\n      add\n        /* \"#utility.yul\":8439:8459   */\n      swap1\n      pop\n        /* \"#utility.yul\":8232:8465   */\n      swap2\n      swap1\n      pop\n      jump\t// out\n        /* \"#utility.yul\":8471:8651   */\n    tag_165:\n        /* \"#utility.yul\":8519:8596   */\n      0x4e487b7100000000000000000000000000000000000000000000000000000000\n        /* \"#utility.yul\":8516:8517   */\n      0x00\n        /* \"#utility.yul\":8509:8597   */\n      mstore\n        /* \"#utility.yul\":8616:8620   */\n      0x11\n        /* \"#utility.yul\":8613:8614   */\n      0x04\n        /* \"#utility.yul\":8606:8621   */\n      mstore\n        /* \"#utility.yul\":8640:8644   */\n      0x24\n        /* \"#utility.yul\":8637:8638   */\n      0x00\n        /* \"#utility.yul\":8630:8645   */\n      revert\n        /* \"#utility.yul\":8657:8837   */\n    tag_30:\n        /* \"#utility.yul\":8705:8782   */\n      0x4e487b7100000000000000000000000000000000000000000000000000000000\n        /* \"#utility.yul\":8702:8703   */\n      0x00\n        /* \"#utility.yul\":8695:8783   */\n      mstore\n        /* \"#utility.yul\":8802:8806   */\n      0x21\n        /* \"#utility.yul\":8799:8800   */\n      0x04\n        /* \"#utility.yul\":8792:8807   */\n      mstore\n        /* \"#utility.yul\":8826:8830   */\n      0x24\n        /* \"#utility.yul\":8823:8824   */\n      0x00\n        /* \"#utility.yul\":8816:8831   */\n      revert\n        /* \"#utility.yul\":8843:9023   */\n    tag_170:\n        /* \"#utility.yul\":8891:8968   */\n      0x4e487b7100000000000000000000000000000000000000000000000000000000\n        /* \"#utility.yul\":8888:8889   */\n      0x00\n        /* \"#utility.yul\":8881:8969   */\n      mstore\n        /* \"#utility.yul\":8988:8992   */\n      0x22\n        /* \"#utility.yul\":8985:8986   */\n      0x04\n        /* \"#utility.yul\":8978:8993   */\n      mstore\n        /* \"#utility.yul\":9012:9016   */\n      0x24\n        /* \"#utility.yul\":9009:9010   */\n      0x00\n        /* \"#utility.yul\":9002:9017   */\n      revert\n        /* \"#utility.yul\":9029:9209   */\n    tag_150:\n        /* \"#utility.yul\":9077:9154   */\n      0x4e487b7100000000000000000000000000000000000000000000000000000000\n        /* \"#utility.yul\":9074:9075   */\n      0x00\n        /* \"#utility.yul\":9067:9155   */\n      mstore\n        /* \"#utility.yul\":9174:9178   */\n      0x41\n        /* \"#utility.yul\":9171:9172   */\n      0x04\n        /* \"#utility.yul\":9164:9179   */\n      mstore\n        /* \"#utility.yul\":9198:9202   */\n      0x24\n        /* \"#utility.yul\":9195:9196   */\n      0x00\n        /* \"#utility.yul\":9188:9203   */\n      revert\n        /* \"#utility.yul\":9215:9332   */\n    tag_78:\n        /* \"#utility.yul\":9324:9325   */\n      0x00\n        /* \"#utility.yul\":9321:9322   */\n      dup1\n        /* \"#utility.yul\":9314:9326   */\n      revert\n        /* \"#utility.yul\":9338:9455   */\n    tag_71:\n        /* \"#utility.yul\":9447:9448   */\n      0x00\n        /* \"#utility.yul\":9444:9445   */\n      dup1\n        /* \"#utility.yul\":9437:9449   */\n      revert\n        /* \"#utility.yul\":9461:9578   */\n    tag_92:\n        /* \"#utility.yul\":9570:9571   */\n      0x00\n        /* \"#utility.yul\":9567:9568   */\n      dup1\n        /* \"#utility.yul\":9560:9572   */\n      revert\n        /* \"#utility.yul\":9584:9701   */\n    tag_87:\n        /* \"#utility.yul\":9693:9694   */\n      0x00\n        /* \"#utility.yul\":9690:9691   */\n      dup1\n        /* \"#utility.yul\":9683:9695   */\n      revert\n        /* \"#utility.yul\":9707:9809   */\n    tag_124:\n        /* \"#utility.yul\":9748:9754   */\n      0x00\n        /* \"#utility.yul\":9799:9801   */\n      0x1f\n        /* \"#utility.yul\":9795:9802   */\n      not\n        /* \"#utility.yul\":9790:9792   */\n      0x1f\n        /* \"#utility.yul\":9783:9788   */\n      dup4\n        /* \"#utility.yul\":9779:9793   */\n      add\n        /* \"#utility.yul\":9775:9803   */\n      and\n        /* \"#utility.yul\":9765:9803   */\n      swap1\n      pop\n        /* \"#utility.yul\":9707:9809   */\n      swap2\n      swap1\n      pop\n      jump\t// out\n        /* \"#utility.yul\":9815:9937   */\n    tag_83:\n        /* \"#utility.yul\":9888:9912   */\n      tag_189\n        /* \"#utility.yul\":9906:9911   */\n      dup2\n        /* \"#utility.yul\":9888:9912   */\n      tag_128\n      jump\t// in\n    tag_189:\n        /* \"#utility.yul\":9881:9886   */\n      dup2\n        /* \"#utility.yul\":9878:9913   */\n      eq\n        /* \"#utility.yul\":9868:9931   */\n      tag_190\n      jumpi\n        /* \"#utility.yul\":9927:9928   */\n      0x00\n        /* \"#utility.yul\":9924:9925   */\n      dup1\n        /* \"#utility.yul\":9917:9929   */\n      revert\n        /* \"#utility.yul\":9868:9931   */\n    tag_190:\n        /* \"#utility.yul\":9815:9937   */\n      pop\n      jump\t// out\n\n    auxdata: 0xa2646970667358221220bace9623d5589998ad6cf3696d032b4dfb069b1edb390ff9aa50b4313e01bd4664736f6c63430008070033\n}\n",
				"bytecode": {
					"linkReferences": {},
					"object": "60806040526000600255600060035534801561001a57600080fd5b50604051610c3a380380610c3a833981810160405281019061003c9190610097565b806000806101000a81548173ffffffffffffffffffffffffffffffffffffffff021916908373ffffffffffffffffffffffffffffffffffffffff16021790555050610124565b6000815190506100918161010d565b92915050565b6000602082840312156100ad576100ac610108565b5b60006100bb84828501610082565b91505092915050565b60006100cf826100e8565b9050919050565b60006100e1826100c4565b9050919050565b600073ffffffffffffffffffffffffffffffffffffffff82169050919050565b600080fd5b610116816100d6565b811461012157600080fd5b50565b610b07806101336000396000f3fe608060405234801561001057600080fd5b506004361061004c5760003560e01c806363ef8a5014610051578063ace731bd1461006d578063b9b6c5d41461009d578063fd23c4bb146100b9575b600080fd5b61006b6004803603810190610066919061059e565b6100d5565b005b6100876004803603810190610082919061063d565b610221565b604051610094919061078b565b60405180910390f35b6100b760048036038101906100b2919061063d565b6102ed565b005b6100d360048036038101906100ce9190610690565b610396565b005b6000600160008681526020019081526020016000206000858152602001908152602001600020600060035481526020019081526020016000209050848160000181905550838160010181905550600354816002018190555082816003019080519060200190610145929190610476565b508181600401908051906020019061015e929190610476565b5060018160050160006101000a81548160ff02191690831515021790555060008160050160016101000a81548160ff021916908360068111156101a4576101a3610a08565b5b02179055507f70d8b12d438dd130d28072c77c8047d9697b630b8dcd969123645998ad67d561858560035486866040516101e29594939291906107e4565b60405180910390a1600260008154809291906101fd90610990565b91905055506003600081548092919061021590610990565b91905055505050505050565b6060600160008581526020019081526020016000206000848152602001908152602001600020600083815260200190815260200160002060030180546102669061092d565b80601f01602080910402602001604051908101604052809291908181526020018280546102929061092d565b80156102df5780601f106102b4576101008083540402835291602001916102df565b820191906000526020600020905b8154815290600101906020018083116102c257829003601f168201915b505050505090509392505050565b6000600160008581526020019081526020016000206000848152602001908152602001600020600083815260200190815260200160002060050160006101000a81548160ff0219169083151502179055506002600081548092919061035190610903565b91905055507f2b2605ee52ace237f72e6005eee79180ea3b6151bd8848a6be5e3c224b8a6ec6838383604051610389939291906107ad565b60405180910390a1505050565b81600160008781526020019081526020016000206000868152602001908152602001600020600085815260200190815260200160002060030190805190602001906103e2929190610476565b50806001600087815260200190815260200160002060008681526020019081526020016000206000858152602001908152602001600020600401908051906020019061042f929190610476565b507f8c0d6ff1212c3fbf79bbe6dc1e26cc40c4e137ec5711d4471b16fa121f93351185858585856040516104679594939291906107e4565b60405180910390a15050505050565b8280546104829061092d565b90600052602060002090601f0160209004810192826104a457600085556104eb565b82601f106104bd57805160ff19168380011785556104eb565b828001600101855582156104eb579182015b828111156104ea5782518255916020019190600101906104cf565b5b5090506104f891906104fc565b5090565b5b808211156105155760008160009055506001016104fd565b5090565b600061052c6105278461086a565b610845565b90508281526020810184848401111561054857610547610a9a565b5b6105538482856108c1565b509392505050565b600082601f8301126105705761056f610a95565b5b8135610580848260208601610519565b91505092915050565b60008135905061059881610aba565b92915050565b600080600080608085870312156105b8576105b7610aa4565b5b60006105c687828801610589565b94505060206105d787828801610589565b935050604085013567ffffffffffffffff8111156105f8576105f7610a9f565b5b6106048782880161055b565b925050606085013567ffffffffffffffff81111561062557610624610a9f565b5b6106318782880161055b565b91505092959194509250565b60008060006060848603121561065657610655610aa4565b5b600061066486828701610589565b935050602061067586828701610589565b925050604061068686828701610589565b9150509250925092565b600080600080600060a086880312156106ac576106ab610aa4565b5b60006106ba88828901610589565b95505060206106cb88828901610589565b94505060406106dc88828901610589565b935050606086013567ffffffffffffffff8111156106fd576106fc610a9f565b5b6107098882890161055b565b925050608086013567ffffffffffffffff81111561072a57610729610a9f565b5b6107368882890161055b565b9150509295509295909350565b600061074e8261089b565b61075881856108a6565b93506107688185602086016108d0565b61077181610aa9565b840191505092915050565b610785816108b7565b82525050565b600060208201905081810360008301526107a58184610743565b905092915050565b60006060820190506107c2600083018661077c565b6107cf602083018561077c565b6107dc604083018461077c565b949350505050565b600060a0820190506107f9600083018861077c565b610806602083018761077c565b610813604083018661077c565b81810360608301526108258185610743565b905081810360808301526108398184610743565b90509695505050505050565b600061084f610860565b905061085b828261095f565b919050565b6000604051905090565b600067ffffffffffffffff82111561088557610884610a66565b5b61088e82610aa9565b9050602081019050919050565b600081519050919050565b600082825260208201905092915050565b6000819050919050565b82818337600083830152505050565b60005b838110156108ee5780820151818401526020810190506108d3565b838111156108fd576000848401525b50505050565b600061090e826108b7565b91506000821415610922576109216109d9565b5b600182039050919050565b6000600282049050600182168061094557607f821691505b6020821081141561095957610958610a37565b5b50919050565b61096882610aa9565b810181811067ffffffffffffffff8211171561098757610986610a66565b5b80604052505050565b600061099b826108b7565b91507fffffffffffffffffffffffffffffffffffffffffffffffffffffffffffffffff8214156109ce576109cd6109d9565b5b600182019050919050565b7f4e487b7100000000000000000000000000000000000000000000000000000000600052601160045260246000fd5b7f4e487b7100000000000000000000000000000000000000000000000000000000600052602160045260246000fd5b7f4e487b7100000000000000000000000000000000000000000000000000000000600052602260045260246000fd5b7f4e487b7100000000000000000000000000000000000000000000000000000000600052604160045260246000fd5b600080fd5b600080fd5b600080fd5b600080fd5b6000601f19601f8301169050919050565b610ac3816108b7565b8114610ace57600080fd5b5056fea2646970667358221220bace9623d5589998ad6cf3696d032b4dfb069b1edb390ff9aa50b4313e01bd4664736f6c63430008070033",
					"opcodes": "PUSH1 0x80 PUSH1 0x40 MSTORE PUSH1 0x0 PUSH1 0x2 SSTORE PUSH1 0x0 PUSH1 0x3 SSTORE CALLVALUE DUP1 ISZERO PUSH2 0x1A JUMPI PUSH1 0x0 DUP1 REVERT JUMPDEST POP PUSH1 0x40 MLOAD PUSH2 0xC3A CODESIZE SUB DUP1 PUSH2 0xC3A DUP4 CODECOPY DUP2 DUP2 ADD PUSH1 0x40 MSTORE DUP2 ADD SWAP1 PUSH2 0x3C SWAP2 SWAP1 PUSH2 0x97 JUMP JUMPDEST DUP1 PUSH1 0x0 DUP1 PUSH2 0x100 EXP DUP2 SLOAD DUP2 PUSH20 0xFFFFFFFFFFFFFFFFFFFFFFFFFFFFFFFFFFFFFFFF MUL NOT AND SWAP1 DUP4 PUSH20 0xFFFFFFFFFFFFFFFFFFFFFFFFFFFFFFFFFFFFFFFF AND MUL OR SWAP1 SSTORE POP POP PUSH2 0x124 JUMP JUMPDEST PUSH1 0x0 DUP2 MLOAD SWAP1 POP PUSH2 0x91 DUP2 PUSH2 0x10D JUMP JUMPDEST SWAP3 SWAP2 POP POP JUMP JUMPDEST PUSH1 0x0 PUSH1 0x20 DUP3 DUP5 SUB SLT ISZERO PUSH2 0xAD JUMPI PUSH2 0xAC PUSH2 0x108 JUMP JUMPDEST JUMPDEST PUSH1 0x0 PUSH2 0xBB DUP5 DUP3 DUP6 ADD PUSH2 0x82 JUMP JUMPDEST SWAP2 POP POP SWAP3 SWAP2 POP POP JUMP JUMPDEST PUSH1 0x0 PUSH2 0xCF DUP3 PUSH2 0xE8 JUMP JUMPDEST SWAP1 POP SWAP2 SWAP1 POP JUMP JUMPDEST PUSH1 0x0 PUSH2 0xE1 DUP3 PUSH2 0xC4 JUMP JUMPDEST SWAP1 POP SWAP2 SWAP1 POP JUMP JUMPDEST PUSH1 0x0 PUSH20 0xFFFFFFFFFFFFFFFFFFFFFFFFFFFFFFFFFFFFFFFF DUP3 AND SWAP1 POP SWAP2 SWAP1 POP JUMP JUMPDEST PUSH1 0x0 DUP1 REVERT JUMPDEST PUSH2 0x116 DUP2 PUSH2 0xD6 JUMP JUMPDEST DUP2 EQ PUSH2 0x121 JUMPI PUSH1 0x0 DUP1 REVERT JUMPDEST POP JUMP JUMPDEST PUSH2 0xB07 DUP1 PUSH2 0x133 PUSH1 0x0 CODECOPY PUSH1 0x0 RETURN INVALID PUSH1 0x80 PUSH1 0x40 MSTORE CALLVALUE DUP1 ISZERO PUSH2 0x10 JUMPI PUSH1 0x0 DUP1 REVERT JUMPDEST POP PUSH1 0x4 CALLDATASIZE LT PUSH2 0x4C JUMPI PUSH1 0x0 CALLDATALOAD PUSH1 0xE0 SHR DUP1 PUSH4 0x63EF8A50 EQ PUSH2 0x51 JUMPI DUP1 PUSH4 0xACE731BD EQ PUSH2 0x6D JUMPI DUP1 PUSH4 0xB9B6C5D4 EQ PUSH2 0x9D JUMPI DUP1 PUSH4 0xFD23C4BB EQ PUSH2 0xB9 JUMPI JUMPDEST PUSH1 0x0 DUP1 REVERT JUMPDEST PUSH2 0x6B PUSH1 0x4 DUP1 CALLDATASIZE SUB DUP2 ADD SWAP1 PUSH2 0x66 SWAP2 SWAP1 PUSH2 0x59E JUMP JUMPDEST PUSH2 0xD5 JUMP JUMPDEST STOP JUMPDEST PUSH2 0x87 PUSH1 0x4 DUP1 CALLDATASIZE SUB DUP2 ADD SWAP1 PUSH2 0x82 SWAP2 SWAP1 PUSH2 0x63D JUMP JUMPDEST PUSH2 0x221 JUMP JUMPDEST PUSH1 0x40 MLOAD PUSH2 0x94 SWAP2 SWAP1 PUSH2 0x78B JUMP JUMPDEST PUSH1 0x40 MLOAD DUP1 SWAP2 SUB SWAP1 RETURN JUMPDEST PUSH2 0xB7 PUSH1 0x4 DUP1 CALLDATASIZE SUB DUP2 ADD SWAP1 PUSH2 0xB2 SWAP2 SWAP1 PUSH2 0x63D JUMP JUMPDEST PUSH2 0x2ED JUMP JUMPDEST STOP JUMPDEST PUSH2 0xD3 PUSH1 0x4 DUP1 CALLDATASIZE SUB DUP2 ADD SWAP1 PUSH2 0xCE SWAP2 SWAP1 PUSH2 0x690 JUMP JUMPDEST PUSH2 0x396 JUMP JUMPDEST STOP JUMPDEST PUSH1 0x0 PUSH1 0x1 PUSH1 0x0 DUP7 DUP2 MSTORE PUSH1 0x20 ADD SWAP1 DUP2 MSTORE PUSH1 0x20 ADD PUSH1 0x0 KECCAK256 PUSH1 0x0 DUP6 DUP2 MSTORE PUSH1 0x20 ADD SWAP1 DUP2 MSTORE PUSH1 0x20 ADD PUSH1 0x0 KECCAK256 PUSH1 0x0 PUSH1 0x3 SLOAD DUP2 MSTORE PUSH1 0x20 ADD SWAP1 DUP2 MSTORE PUSH1 0x20 ADD PUSH1 0x0 KECCAK256 SWAP1 POP DUP5 DUP2 PUSH1 0x0 ADD DUP2 SWAP1 SSTORE POP DUP4 DUP2 PUSH1 0x1 ADD DUP2 SWAP1 SSTORE POP PUSH1 0x3 SLOAD DUP2 PUSH1 0x2 ADD DUP2 SWAP1 SSTORE POP DUP3 DUP2 PUSH1 0x3 ADD SWAP1 DUP1 MLOAD SWAP1 PUSH1 0x20 ADD SWAP1 PUSH2 0x145 SWAP3 SWAP2 SWAP1 PUSH2 0x476 JUMP JUMPDEST POP DUP2 DUP2 PUSH1 0x4 ADD SWAP1 DUP1 MLOAD SWAP1 PUSH1 0x20 ADD SWAP1 PUSH2 0x15E SWAP3 SWAP2 SWAP1 PUSH2 0x476 JUMP JUMPDEST POP PUSH1 0x1 DUP2 PUSH1 0x5 ADD PUSH1 0x0 PUSH2 0x100 EXP DUP2 SLOAD DUP2 PUSH1 0xFF MUL NOT AND SWAP1 DUP4 ISZERO ISZERO MUL OR SWAP1 SSTORE POP PUSH1 0x0 DUP2 PUSH1 0x5 ADD PUSH1 0x1 PUSH2 0x100 EXP DUP2 SLOAD DUP2 PUSH1 0xFF MUL NOT AND SWAP1 DUP4 PUSH1 0x6 DUP2 GT ISZERO PUSH2 0x1A4 JUMPI PUSH2 0x1A3 PUSH2 0xA08 JUMP JUMPDEST JUMPDEST MUL OR SWAP1 SSTORE POP PUSH32 0x70D8B12D438DD130D28072C77C8047D9697B630B8DCD969123645998AD67D561 DUP6 DUP6 PUSH1 0x3 SLOAD DUP7 DUP7 PUSH1 0x40 MLOAD PUSH2 0x1E2 SWAP6 SWAP5 SWAP4 SWAP3 SWAP2 SWAP1 PUSH2 0x7E4 JUMP JUMPDEST PUSH1 0x40 MLOAD DUP1 SWAP2 SUB SWAP1 LOG1 PUSH1 0x2 PUSH1 0x0 DUP2 SLOAD DUP1 SWAP3 SWAP2 SWAP1 PUSH2 0x1FD SWAP1 PUSH2 0x990 JUMP JUMPDEST SWAP2 SWAP1 POP SSTORE POP PUSH1 0x3 PUSH1 0x0 DUP2 SLOAD DUP1 SWAP3 SWAP2 SWAP1 PUSH2 0x215 SWAP1 PUSH2 0x990 JUMP JUMPDEST SWAP2 SWAP1 POP SSTORE POP POP POP POP POP POP JUMP JUMPDEST PUSH1 0x60 PUSH1 0x1 PUSH1 0x0 DUP6 DUP2 MSTORE PUSH1 0x20 ADD SWAP1 DUP2 MSTORE PUSH1 0x20 ADD PUSH1 0x0 KECCAK256 PUSH1 0x0 DUP5 DUP2 MSTORE PUSH1 0x20 ADD SWAP1 DUP2 MSTORE PUSH1 0x20 ADD PUSH1 0x0 KECCAK256 PUSH1 0x0 DUP4 DUP2 MSTORE PUSH1 0x20 ADD SWAP1 DUP2 MSTORE PUSH1 0x20 ADD PUSH1 0x0 KECCAK256 PUSH1 0x3 ADD DUP1 SLOAD PUSH2 0x266 SWAP1 PUSH2 0x92D JUMP JUMPDEST DUP1 PUSH1 0x1F ADD PUSH1 0x20 DUP1 SWAP2 DIV MUL PUSH1 0x20 ADD PUSH1 0x40 MLOAD SWAP1 DUP2 ADD PUSH1 0x40 MSTORE DUP1 SWAP3 SWAP2 SWAP1 DUP2 DUP2 MSTORE PUSH1 0x20 ADD DUP3 DUP1 SLOAD PUSH2 0x292 SWAP1 PUSH2 0x92D JUMP JUMPDEST DUP1 ISZERO PUSH2 0x2DF JUMPI DUP1 PUSH1 0x1F LT PUSH2 0x2B4 JUMPI PUSH2 0x100 DUP1 DUP4 SLOAD DIV MUL DUP4 MSTORE SWAP2 PUSH1 0x20 ADD SWAP2 PUSH2 0x2DF JUMP JUMPDEST DUP3 ADD SWAP2 SWAP1 PUSH1 0x0 MSTORE PUSH1 0x20 PUSH1 0x0 KECCAK256 SWAP1 JUMPDEST DUP2 SLOAD DUP2 MSTORE SWAP1 PUSH1 0x1 ADD SWAP1 PUSH1 0x20 ADD DUP1 DUP4 GT PUSH2 0x2C2 JUMPI DUP3 SWAP1 SUB PUSH1 0x1F AND DUP3 ADD SWAP2 JUMPDEST POP POP POP POP POP SWAP1 POP SWAP4 SWAP3 POP POP POP JUMP JUMPDEST PUSH1 0x0 PUSH1 0x1 PUSH1 0x0 DUP6 DUP2 MSTORE PUSH1 0x20 ADD SWAP1 DUP2 MSTORE PUSH1 0x20 ADD PUSH1 0x0 KECCAK256 PUSH1 0x0 DUP5 DUP2 MSTORE PUSH1 0x20 ADD SWAP1 DUP2 MSTORE PUSH1 0x20 ADD PUSH1 0x0 KECCAK256 PUSH1 0x0 DUP4 DUP2 MSTORE PUSH1 0x20 ADD SWAP1 DUP2 MSTORE PUSH1 0x20 ADD PUSH1 0x0 KECCAK256 PUSH1 0x5 ADD PUSH1 0x0 PUSH2 0x100 EXP DUP2 SLOAD DUP2 PUSH1 0xFF MUL NOT AND SWAP1 DUP4 ISZERO ISZERO MUL OR SWAP1 SSTORE POP PUSH1 0x2 PUSH1 0x0 DUP2 SLOAD DUP1 SWAP3 SWAP2 SWAP1 PUSH2 0x351 SWAP1 PUSH2 0x903 JUMP JUMPDEST SWAP2 SWAP1 POP SSTORE POP PUSH32 0x2B2605EE52ACE237F72E6005EEE79180EA3B6151BD8848A6BE5E3C224B8A6EC6 DUP4 DUP4 DUP4 PUSH1 0x40 MLOAD PUSH2 0x389 SWAP4 SWAP3 SWAP2 SWAP1 PUSH2 0x7AD JUMP JUMPDEST PUSH1 0x40 MLOAD DUP1 SWAP2 SUB SWAP1 LOG1 POP POP POP JUMP JUMPDEST DUP2 PUSH1 0x1 PUSH1 0x0 DUP8 DUP2 MSTORE PUSH1 0x20 ADD SWAP1 DUP2 MSTORE PUSH1 0x20 ADD PUSH1 0x0 KECCAK256 PUSH1 0x0 DUP7 DUP2 MSTORE PUSH1 0x20 ADD SWAP1 DUP2 MSTORE PUSH1 0x20 ADD PUSH1 0x0 KECCAK256 PUSH1 0x0 DUP6 DUP2 MSTORE PUSH1 0x20 ADD SWAP1 DUP2 MSTORE PUSH1 0x20 ADD PUSH1 0x0 KECCAK256 PUSH1 0x3 ADD SWAP1 DUP1 MLOAD SWAP1 PUSH1 0x20 ADD SWAP1 PUSH2 0x3E2 SWAP3 SWAP2 SWAP1 PUSH2 0x476 JUMP JUMPDEST POP DUP1 PUSH1 0x1 PUSH1 0x0 DUP8 DUP2 MSTORE PUSH1 0x20 ADD SWAP1 DUP2 MSTORE PUSH1 0x20 ADD PUSH1 0x0 KECCAK256 PUSH1 0x0 DUP7 DUP2 MSTORE PUSH1 0x20 ADD SWAP1 DUP2 MSTORE PUSH1 0x20 ADD PUSH1 0x0 KECCAK256 PUSH1 0x0 DUP6 DUP2 MSTORE PUSH1 0x20 ADD SWAP1 DUP2 MSTORE PUSH1 0x20 ADD PUSH1 0x0 KECCAK256 PUSH1 0x4 ADD SWAP1 DUP1 MLOAD SWAP1 PUSH1 0x20 ADD SWAP1 PUSH2 0x42F SWAP3 SWAP2 SWAP1 PUSH2 0x476 JUMP JUMPDEST POP PUSH32 0x8C0D6FF1212C3FBF79BBE6DC1E26CC40C4E137EC5711D4471B16FA121F933511 DUP6 DUP6 DUP6 DUP6 DUP6 PUSH1 0x40 MLOAD PUSH2 0x467 SWAP6 SWAP5 SWAP4 SWAP3 SWAP2 SWAP1 PUSH2 0x7E4 JUMP JUMPDEST PUSH1 0x40 MLOAD DUP1 SWAP2 SUB SWAP1 LOG1 POP POP POP POP POP JUMP JUMPDEST DUP3 DUP1 SLOAD PUSH2 0x482 SWAP1 PUSH2 0x92D JUMP JUMPDEST SWAP1 PUSH1 0x0 MSTORE PUSH1 0x20 PUSH1 0x0 KECCAK256 SWAP1 PUSH1 0x1F ADD PUSH1 0x20 SWAP1 DIV DUP2 ADD SWAP3 DUP3 PUSH2 0x4A4 JUMPI PUSH1 0x0 DUP6 SSTORE PUSH2 0x4EB JUMP JUMPDEST DUP3 PUSH1 0x1F LT PUSH2 0x4BD JUMPI DUP1 MLOAD PUSH1 0xFF NOT AND DUP4 DUP1 ADD OR DUP6 SSTORE PUSH2 0x4EB JUMP JUMPDEST DUP3 DUP1 ADD PUSH1 0x1 ADD DUP6 SSTORE DUP3 ISZERO PUSH2 0x4EB JUMPI SWAP2 DUP3 ADD JUMPDEST DUP3 DUP2 GT ISZERO PUSH2 0x4EA JUMPI DUP3 MLOAD DUP3 SSTORE SWAP2 PUSH1 0x20 ADD SWAP2 SWAP1 PUSH1 0x1 ADD SWAP1 PUSH2 0x4CF JUMP JUMPDEST JUMPDEST POP SWAP1 POP PUSH2 0x4F8 SWAP2 SWAP1 PUSH2 0x4FC JUMP JUMPDEST POP SWAP1 JUMP JUMPDEST JUMPDEST DUP1 DUP3 GT ISZERO PUSH2 0x515 JUMPI PUSH1 0x0 DUP2 PUSH1 0x0 SWAP1 SSTORE POP PUSH1 0x1 ADD PUSH2 0x4FD JUMP JUMPDEST POP SWAP1 JUMP JUMPDEST PUSH1 0x0 PUSH2 0x52C PUSH2 0x527 DUP5 PUSH2 0x86A JUMP JUMPDEST PUSH2 0x845 JUMP JUMPDEST SWAP1 POP DUP3 DUP2 MSTORE PUSH1 0x20 DUP2 ADD DUP5 DUP5 DUP5 ADD GT ISZERO PUSH2 0x548 JUMPI PUSH2 0x547 PUSH2 0xA9A JUMP JUMPDEST JUMPDEST PUSH2 0x553 DUP5 DUP3 DUP6 PUSH2 0x8C1 JUMP JUMPDEST POP SWAP4 SWAP3 POP POP POP JUMP JUMPDEST PUSH1 0x0 DUP3 PUSH1 0x1F DUP4 ADD SLT PUSH2 0x570 JUMPI PUSH2 0x56F PUSH2 0xA95 JUMP JUMPDEST JUMPDEST DUP2 CALLDATALOAD PUSH2 0x580 DUP5 DUP3 PUSH1 0x20 DUP7 ADD PUSH2 0x519 JUMP JUMPDEST SWAP2 POP POP SWAP3 SWAP2 POP POP JUMP JUMPDEST PUSH1 0x0 DUP2 CALLDATALOAD SWAP1 POP PUSH2 0x598 DUP2 PUSH2 0xABA JUMP JUMPDEST SWAP3 SWAP2 POP POP JUMP JUMPDEST PUSH1 0x0 DUP1 PUSH1 0x0 DUP1 PUSH1 0x80 DUP6 DUP8 SUB SLT ISZERO PUSH2 0x5B8 JUMPI PUSH2 0x5B7 PUSH2 0xAA4 JUMP JUMPDEST JUMPDEST PUSH1 0x0 PUSH2 0x5C6 DUP8 DUP3 DUP9 ADD PUSH2 0x589 JUMP JUMPDEST SWAP5 POP POP PUSH1 0x20 PUSH2 0x5D7 DUP8 DUP3 DUP9 ADD PUSH2 0x589 JUMP JUMPDEST SWAP4 POP POP PUSH1 0x40 DUP6 ADD CALLDATALOAD PUSH8 0xFFFFFFFFFFFFFFFF DUP2 GT ISZERO PUSH2 0x5F8 JUMPI PUSH2 0x5F7 PUSH2 0xA9F JUMP JUMPDEST JUMPDEST PUSH2 0x604 DUP8 DUP3 DUP9 ADD PUSH2 0x55B JUMP JUMPDEST SWAP3 POP POP PUSH1 0x60 DUP6 ADD CALLDATALOAD PUSH8 0xFFFFFFFFFFFFFFFF DUP2 GT ISZERO PUSH2 0x625 JUMPI PUSH2 0x624 PUSH2 0xA9F JUMP JUMPDEST JUMPDEST PUSH2 0x631 DUP8 DUP3 DUP9 ADD PUSH2 0x55B JUMP JUMPDEST SWAP2 POP POP SWAP3 SWAP6 SWAP2 SWAP5 POP SWAP3 POP JUMP JUMPDEST PUSH1 0x0 DUP1 PUSH1 0x0 PUSH1 0x60 DUP5 DUP7 SUB SLT ISZERO PUSH2 0x656 JUMPI PUSH2 0x655 PUSH2 0xAA4 JUMP JUMPDEST JUMPDEST PUSH1 0x0 PUSH2 0x664 DUP7 DUP3 DUP8 ADD PUSH2 0x589 JUMP JUMPDEST SWAP4 POP POP PUSH1 0x20 PUSH2 0x675 DUP7 DUP3 DUP8 ADD PUSH2 0x589 JUMP JUMPDEST SWAP3 POP POP PUSH1 0x40 PUSH2 0x686 DUP7 DUP3 DUP8 ADD PUSH2 0x589 JUMP JUMPDEST SWAP2 POP POP SWAP3 POP SWAP3 POP SWAP3 JUMP JUMPDEST PUSH1 0x0 DUP1 PUSH1 0x0 DUP1 PUSH1 0x0 PUSH1 0xA0 DUP7 DUP9 SUB SLT ISZERO PUSH2 0x6AC JUMPI PUSH2 0x6AB PUSH2 0xAA4 JUMP JUMPDEST JUMPDEST PUSH1 0x0 PUSH2 0x6BA DUP9 DUP3 DUP10 ADD PUSH2 0x589 JUMP JUMPDEST SWAP6 POP POP PUSH1 0x20 PUSH2 0x6CB DUP9 DUP3 DUP10 ADD PUSH2 0x589 JUMP JUMPDEST SWAP5 POP POP PUSH1 0x40 PUSH2 0x6DC DUP9 DUP3 DUP10 ADD PUSH2 0x589 JUMP JUMPDEST SWAP4 POP POP PUSH1 0x60 DUP7 ADD CALLDATALOAD PUSH8 0xFFFFFFFFFFFFFFFF DUP2 GT ISZERO PUSH2 0x6FD JUMPI PUSH2 0x6FC PUSH2 0xA9F JUMP JUMPDEST JUMPDEST PUSH2 0x709 DUP9 DUP3 DUP10 ADD PUSH2 0x55B JUMP JUMPDEST SWAP3 POP POP PUSH1 0x80 DUP7 ADD CALLDATALOAD PUSH8 0xFFFFFFFFFFFFFFFF DUP2 GT ISZERO PUSH2 0x72A JUMPI PUSH2 0x729 PUSH2 0xA9F JUMP JUMPDEST JUMPDEST PUSH2 0x736 DUP9 DUP3 DUP10 ADD PUSH2 0x55B JUMP JUMPDEST SWAP2 POP POP SWAP3 SWAP6 POP SWAP3 SWAP6 SWAP1 SWAP4 POP JUMP JUMPDEST PUSH1 0x0 PUSH2 0x74E DUP3 PUSH2 0x89B JUMP JUMPDEST PUSH2 0x758 DUP2 DUP6 PUSH2 0x8A6 JUMP JUMPDEST SWAP4 POP PUSH2 0x768 DUP2 DUP6 PUSH1 0x20 DUP7 ADD PUSH2 0x8D0 JUMP JUMPDEST PUSH2 0x771 DUP2 PUSH2 0xAA9 JUMP JUMPDEST DUP5 ADD SWAP2 POP POP SWAP3 SWAP2 POP POP JUMP JUMPDEST PUSH2 0x785 DUP2 PUSH2 0x8B7 JUMP JUMPDEST DUP3 MSTORE POP POP JUMP JUMPDEST PUSH1 0x0 PUSH1 0x20 DUP3 ADD SWAP1 POP DUP2 DUP2 SUB PUSH1 0x0 DUP4 ADD MSTORE PUSH2 0x7A5 DUP2 DUP5 PUSH2 0x743 JUMP JUMPDEST SWAP1 POP SWAP3 SWAP2 POP POP JUMP JUMPDEST PUSH1 0x0 PUSH1 0x60 DUP3 ADD SWAP1 POP PUSH2 0x7C2 PUSH1 0x0 DUP4 ADD DUP7 PUSH2 0x77C JUMP JUMPDEST PUSH2 0x7CF PUSH1 0x20 DUP4 ADD DUP6 PUSH2 0x77C JUMP JUMPDEST PUSH2 0x7DC PUSH1 0x40 DUP4 ADD DUP5 PUSH2 0x77C JUMP JUMPDEST SWAP5 SWAP4 POP POP POP POP JUMP JUMPDEST PUSH1 0x0 PUSH1 0xA0 DUP3 ADD SWAP1 POP PUSH2 0x7F9 PUSH1 0x0 DUP4 ADD DUP9 PUSH2 0x77C JUMP JUMPDEST PUSH2 0x806 PUSH1 0x20 DUP4 ADD DUP8 PUSH2 0x77C JUMP JUMPDEST PUSH2 0x813 PUSH1 0x40 DUP4 ADD DUP7 PUSH2 0x77C JUMP JUMPDEST DUP2 DUP2 SUB PUSH1 0x60 DUP4 ADD MSTORE PUSH2 0x825 DUP2 DUP6 PUSH2 0x743 JUMP JUMPDEST SWAP1 POP DUP2 DUP2 SUB PUSH1 0x80 DUP4 ADD MSTORE PUSH2 0x839 DUP2 DUP5 PUSH2 0x743 JUMP JUMPDEST SWAP1 POP SWAP7 SWAP6 POP POP POP POP POP POP JUMP JUMPDEST PUSH1 0x0 PUSH2 0x84F PUSH2 0x860 JUMP JUMPDEST SWAP1 POP PUSH2 0x85B DUP3 DUP3 PUSH2 0x95F JUMP JUMPDEST SWAP2 SWAP1 POP JUMP JUMPDEST PUSH1 0x0 PUSH1 0x40 MLOAD SWAP1 POP SWAP1 JUMP JUMPDEST PUSH1 0x0 PUSH8 0xFFFFFFFFFFFFFFFF DUP3 GT ISZERO PUSH2 0x885 JUMPI PUSH2 0x884 PUSH2 0xA66 JUMP JUMPDEST JUMPDEST PUSH2 0x88E DUP3 PUSH2 0xAA9 JUMP JUMPDEST SWAP1 POP PUSH1 0x20 DUP2 ADD SWAP1 POP SWAP2 SWAP1 POP JUMP JUMPDEST PUSH1 0x0 DUP2 MLOAD SWAP1 POP SWAP2 SWAP1 POP JUMP JUMPDEST PUSH1 0x0 DUP3 DUP3 MSTORE PUSH1 0x20 DUP3 ADD SWAP1 POP SWAP3 SWAP2 POP POP JUMP JUMPDEST PUSH1 0x0 DUP2 SWAP1 POP SWAP2 SWAP1 POP JUMP JUMPDEST DUP3 DUP2 DUP4 CALLDATACOPY PUSH1 0x0 DUP4 DUP4 ADD MSTORE POP POP POP JUMP JUMPDEST PUSH1 0x0 JUMPDEST DUP4 DUP2 LT ISZERO PUSH2 0x8EE JUMPI DUP1 DUP3 ADD MLOAD DUP2 DUP5 ADD MSTORE PUSH1 0x20 DUP2 ADD SWAP1 POP PUSH2 0x8D3 JUMP JUMPDEST DUP4 DUP2 GT ISZERO PUSH2 0x8FD JUMPI PUSH1 0x0 DUP5 DUP5 ADD MSTORE JUMPDEST POP POP POP POP JUMP JUMPDEST PUSH1 0x0 PUSH2 0x90E DUP3 PUSH2 0x8B7 JUMP JUMPDEST SWAP2 POP PUSH1 0x0 DUP3 EQ ISZERO PUSH2 0x922 JUMPI PUSH2 0x921 PUSH2 0x9D9 JUMP JUMPDEST JUMPDEST PUSH1 0x1 DUP3 SUB SWAP1 POP SWAP2 SWAP1 POP JUMP JUMPDEST PUSH1 0x0 PUSH1 0x2 DUP3 DIV SWAP1 POP PUSH1 0x1 DUP3 AND DUP1 PUSH2 0x945 JUMPI PUSH1 0x7F DUP3 AND SWAP2 POP JUMPDEST PUSH1 0x20 DUP3 LT DUP2 EQ ISZERO PUSH2 0x959 JUMPI PUSH2 0x958 PUSH2 0xA37 JUMP JUMPDEST JUMPDEST POP SWAP2 SWAP1 POP JUMP JUMPDEST PUSH2 0x968 DUP3 PUSH2 0xAA9 JUMP JUMPDEST DUP2 ADD DUP2 DUP2 LT PUSH8 0xFFFFFFFFFFFFFFFF DUP3 GT OR ISZERO PUSH2 0x987 JUMPI PUSH2 0x986 PUSH2 0xA66 JUMP JUMPDEST JUMPDEST DUP1 PUSH1 0x40 MSTORE POP POP POP JUMP JUMPDEST PUSH1 0x0 PUSH2 0x99B DUP3 PUSH2 0x8B7 JUMP JUMPDEST SWAP2 POP PUSH32 0xFFFFFFFFFFFFFFFFFFFFFFFFFFFFFFFFFFFFFFFFFFFFFFFFFFFFFFFFFFFFFFFF DUP3 EQ ISZERO PUSH2 0x9CE JUMPI PUSH2 0x9CD PUSH2 0x9D9 JUMP JUMPDEST JUMPDEST PUSH1 0x1 DUP3 ADD SWAP1 POP SWAP2 SWAP1 POP JUMP JUMPDEST PUSH32 0x4E487B7100000000000000000000000000000000000000000000000000000000 PUSH1 0x0 MSTORE PUSH1 0x11 PUSH1 0x4 MSTORE PUSH1 0x24 PUSH1 0x0 REVERT JUMPDEST PUSH32 0x4E487B7100000000000000000000000000000000000000000000000000000000 PUSH1 0x0 MSTORE PUSH1 0x21 PUSH1 0x4 MSTORE PUSH1 0x24 PUSH1 0x0 REVERT JUMPDEST PUSH32 0x4E487B7100000000000000000000000000000000000000000000000000000000 PUSH1 0x0 MSTORE PUSH1 0x22 PUSH1 0x4 MSTORE PUSH1 0x24 PUSH1 0x0 REVERT JUMPDEST PUSH32 0x4E487B7100000000000000000000000000000000000000000000000000000000 PUSH1 0x0 MSTORE PUSH1 0x41 PUSH1 0x4 MSTORE PUSH1 0x24 PUSH1 0x0 REVERT JUMPDEST PUSH1 0x0 DUP1 REVERT JUMPDEST PUSH1 0x0 DUP1 REVERT JUMPDEST PUSH1 0x0 DUP1 REVERT JUMPDEST PUSH1 0x0 DUP1 REVERT JUMPDEST PUSH1 0x0 PUSH1 0x1F NOT PUSH1 0x1F DUP4 ADD AND SWAP1 POP SWAP2 SWAP1 POP JUMP JUMPDEST PUSH2 0xAC3 DUP2 PUSH2 0x8B7 JUMP JUMPDEST DUP2 EQ PUSH2 0xACE JUMPI PUSH1 0x0 DUP1 REVERT JUMPDEST POP JUMP INVALID LOG2 PUSH5 0x6970667358 0x22 SLT KECCAK256 0xBA 0xCE SWAP7 0x23 0xD5 PC SWAP10 SWAP9 0xAD PUSH13 0xF3696D032B4DFB069B1EDB390F 0xF9 0xAA POP 0xB4 BALANCE RETURNDATACOPY ADD 0xBD CHAINID PUSH5 0x736F6C6343 STOP ADDMOD SMOD STOP CALLER "
				},
				"gasEstimates": {
					"creation": {
						"codeDepositCost": "564600",
						"executionCost": "infinite",
						"totalCost": "infinite"
					},
					"external": {
						"createMilestone(uint256,uint256,string,string)": "infinite",
						"deleteMilestone(uint256,uint256,uint256)": "infinite",
						"readMilestoneTitle(uint256,uint256,uint256)": "infinite",
						"updateMilestone(uint256,uint256,uint256,string,string)": "infinite"
					}
				},
				"methodIdentifiers": {
					"createMilestone(uint256,uint256,string,string)": "63ef8a50",
					"deleteMilestone(uint256,uint256,uint256)": "b9b6c5d4",
					"readMilestoneTitle(uint256,uint256,uint256)": "ace731bd",
					"updateMilestone(uint256,uint256,uint256,string,string)": "fd23c4bb"
				}
			},
			"userdoc": {
				"kind": "user",
				"methods": {},
				"version": 1
			}
		}
	}
}