{
	"contracts/Profile.sol": {
		"Profile": {
			"abi": [
				{
					"anonymous": false,
					"inputs": [
						{
							"indexed": false,
							"internalType": "string",
							"name": "name",
							"type": "string"
						},
						{
							"indexed": false,
							"internalType": "string",
							"name": "password",
							"type": "string"
						},
						{
							"indexed": false,
							"internalType": "address",
							"name": "owner",
							"type": "address"
						}
					],
					"name": "profileCreated",
					"type": "event"
				},
				{
					"anonymous": false,
					"inputs": [
						{
							"indexed": false,
							"internalType": "address",
							"name": "owner",
							"type": "address"
						}
					],
					"name": "profileDeleted",
					"type": "event"
				},
				{
					"inputs": [
						{
							"internalType": "string",
							"name": "name",
							"type": "string"
						},
						{
							"internalType": "string",
							"name": "password",
							"type": "string"
						},
						{
							"internalType": "address",
							"name": "owner",
							"type": "address"
						}
					],
					"name": "createProfile",
					"outputs": [],
					"stateMutability": "nonpayable",
					"type": "function"
				},
				{
					"inputs": [
						{
							"internalType": "address",
							"name": "owner",
							"type": "address"
						}
					],
					"name": "deleteProfile",
					"outputs": [],
					"stateMutability": "nonpayable",
					"type": "function"
				},
				{
					"inputs": [
						{
							"internalType": "address",
							"name": "owner",
							"type": "address"
						}
					],
					"name": "getName",
					"outputs": [
						{
							"internalType": "string",
							"name": "",
							"type": "string"
						}
					],
					"stateMutability": "view",
					"type": "function"
				},
				{
					"inputs": [],
					"name": "numProfile",
					"outputs": [
						{
							"internalType": "uint256",
							"name": "",
							"type": "uint256"
						}
					],
					"stateMutability": "view",
					"type": "function"
				},
				{
					"inputs": [
						{
							"internalType": "string",
							"name": "newName",
							"type": "string"
						},
						{
							"internalType": "address",
							"name": "owner",
							"type": "address"
						}
					],
					"name": "updateProfileName",
					"outputs": [],
					"stateMutability": "nonpayable",
					"type": "function"
				}
			],
			"devdoc": {
				"kind": "dev",
				"methods": {},
				"version": 1
			},
			"evm": {
				"assembly": "    /* \"contracts/Profile.sol\":152:1870  contract Profile {... */\n  mstore(0x40, 0x80)\n    /* \"contracts/Profile.sol\":579:580  0 */\n  0x00\n    /* \"contracts/Profile.sol\":551:580  uint256 public numProfile = 0 */\n  0x01\n  sstore\n    /* \"contracts/Profile.sol\":152:1870  contract Profile {... */\n  callvalue\n  dup1\n  iszero\n  tag_1\n  jumpi\n  0x00\n  dup1\n  revert\ntag_1:\n  pop\n  dataSize(sub_0)\n  dup1\n  dataOffset(sub_0)\n  0x00\n  codecopy\n  0x00\n  return\nstop\n\nsub_0: assembly {\n        /* \"contracts/Profile.sol\":152:1870  contract Profile {... */\n      mstore(0x40, 0x80)\n      callvalue\n      dup1\n      iszero\n      tag_1\n      jumpi\n      0x00\n      dup1\n      revert\n    tag_1:\n      pop\n      jumpi(tag_2, lt(calldatasize, 0x04))\n      shr(0xe0, calldataload(0x00))\n      dup1\n      0x16913469\n      eq\n      tag_3\n      jumpi\n      dup1\n      0x5fd4b08a\n      eq\n      tag_4\n      jumpi\n      dup1\n      0xa0441f29\n      eq\n      tag_5\n      jumpi\n      dup1\n      0xb3ed9b4c\n      eq\n      tag_6\n      jumpi\n      dup1\n      0xb94864eb\n      eq\n      tag_7\n      jumpi\n    tag_2:\n      0x00\n      dup1\n      revert\n        /* \"contracts/Profile.sol\":551:580  uint256 public numProfile = 0 */\n    tag_3:\n      tag_8\n      tag_9\n      jump\t// in\n    tag_8:\n      mload(0x40)\n      tag_10\n      swap2\n      swap1\n      tag_11\n      jump\t// in\n    tag_10:\n      mload(0x40)\n      dup1\n      swap2\n      sub\n      swap1\n      return\n        /* \"contracts/Profile.sol\":1728:1867  function getName(address owner) external validProfile (owner) view returns ( string memory) {... */\n    tag_4:\n      tag_12\n      0x04\n      dup1\n      calldatasize\n      sub\n      dup2\n      add\n      swap1\n      tag_13\n      swap2\n      swap1\n      tag_14\n      jump\t// in\n    tag_13:\n      tag_15\n      jump\t// in\n    tag_12:\n      mload(0x40)\n      tag_16\n      swap2\n      swap1\n      tag_17\n      jump\t// in\n    tag_16:\n      mload(0x40)\n      dup1\n      swap2\n      sub\n      swap1\n      return\n        /* \"contracts/Profile.sol\":1263:1471  function deleteProfile(address owner) external validProfile (owner) {... */\n    tag_5:\n      tag_18\n      0x04\n      dup1\n      calldatasize\n      sub\n      dup2\n      add\n      swap1\n      tag_19\n      swap2\n      swap1\n      tag_14\n      jump\t// in\n    tag_19:\n      tag_20\n      jump\t// in\n    tag_18:\n      stop\n        /* \"contracts/Profile.sol\":824:1216  function createProfile(string memory name, string memory password, address owner)  external {... */\n    tag_6:\n      tag_21\n      0x04\n      dup1\n      calldatasize\n      sub\n      dup2\n      add\n      swap1\n      tag_22\n      swap2\n      swap1\n      tag_23\n      jump\t// in\n    tag_22:\n      tag_24\n      jump\t// in\n    tag_21:\n      stop\n        /* \"contracts/Profile.sol\":1518:1664  function updateProfileName(string memory newName, address owner) external validProfile (owner) {... */\n    tag_7:\n      tag_25\n      0x04\n      dup1\n      calldatasize\n      sub\n      dup2\n      add\n      swap1\n      tag_26\n      swap2\n      swap1\n      tag_27\n      jump\t// in\n    tag_26:\n      tag_28\n      jump\t// in\n    tag_25:\n      stop\n        /* \"contracts/Profile.sol\":551:580  uint256 public numProfile = 0 */\n    tag_9:\n      sload(0x01)\n      dup2\n      jump\t// out\n        /* \"contracts/Profile.sol\":1728:1867  function getName(address owner) external validProfile (owner) view returns ( string memory) {... */\n    tag_15:\n        /* \"contracts/Profile.sol\":1805:1818  string memory */\n      0x60\n        /* \"contracts/Profile.sol\":1783:1788  owner */\n      dup2\n        /* \"contracts/Profile.sol\":729:733  true */\n      0x01\n        /* \"contracts/Profile.sol\":699:733  profileList[owner].created == true */\n      iszero\n      iszero\n        /* \"contracts/Profile.sol\":699:710  profileList */\n      0x00\n        /* \"contracts/Profile.sol\":699:717  profileList[owner] */\n      dup1\n        /* \"contracts/Profile.sol\":711:716  owner */\n      dup4\n        /* \"contracts/Profile.sol\":699:717  profileList[owner] */\n      0xffffffffffffffffffffffffffffffffffffffff\n      and\n      0xffffffffffffffffffffffffffffffffffffffff\n      and\n      dup2\n      mstore\n      0x20\n      add\n      swap1\n      dup2\n      mstore\n      0x20\n      add\n      0x00\n      keccak256\n        /* \"contracts/Profile.sol\":699:725  profileList[owner].created */\n      0x02\n      add\n      0x14\n      swap1\n      sload\n      swap1\n      0x0100\n      exp\n      swap1\n      div\n      0xff\n      and\n        /* \"contracts/Profile.sol\":699:733  profileList[owner].created == true */\n      iszero\n      iszero\n      eq\n        /* \"contracts/Profile.sol\":691:760  require(profileList[owner].created == true, \"Profile does not exist\") */\n      tag_30\n      jumpi\n      mload(0x40)\n      0x08c379a000000000000000000000000000000000000000000000000000000000\n      dup2\n      mstore\n      0x04\n      add\n      tag_31\n      swap1\n      tag_32\n      jump\t// in\n    tag_31:\n      mload(0x40)\n      dup1\n      swap2\n      sub\n      swap1\n      revert\n    tag_30:\n        /* \"contracts/Profile.sol\":1837:1848  profileList */\n      0x00\n        /* \"contracts/Profile.sol\":1837:1855  profileList[owner] */\n      dup1\n        /* \"contracts/Profile.sol\":1849:1854  owner */\n      dup5\n        /* \"contracts/Profile.sol\":1837:1855  profileList[owner] */\n      0xffffffffffffffffffffffffffffffffffffffff\n      and\n      0xffffffffffffffffffffffffffffffffffffffff\n      and\n      dup2\n      mstore\n      0x20\n      add\n      swap1\n      dup2\n      mstore\n      0x20\n      add\n      0x00\n      keccak256\n        /* \"contracts/Profile.sol\":1837:1860  profileList[owner].name */\n      0x00\n      add\n        /* \"contracts/Profile.sol\":1830:1860  return profileList[owner].name */\n      dup1\n      sload\n      tag_34\n      swap1\n      tag_35\n      jump\t// in\n    tag_34:\n      dup1\n      0x1f\n      add\n      0x20\n      dup1\n      swap2\n      div\n      mul\n      0x20\n      add\n      mload(0x40)\n      swap1\n      dup2\n      add\n      0x40\n      mstore\n      dup1\n      swap3\n      swap2\n      swap1\n      dup2\n      dup2\n      mstore\n      0x20\n      add\n      dup3\n      dup1\n      sload\n      tag_36\n      swap1\n      tag_35\n      jump\t// in\n    tag_36:\n      dup1\n      iszero\n      tag_37\n      jumpi\n      dup1\n      0x1f\n      lt\n      tag_38\n      jumpi\n      0x0100\n      dup1\n      dup4\n      sload\n      div\n      mul\n      dup4\n      mstore\n      swap2\n      0x20\n      add\n      swap2\n      jump(tag_37)\n    tag_38:\n      dup3\n      add\n      swap2\n      swap1\n      0x00\n      mstore\n      keccak256(0x00, 0x20)\n      swap1\n    tag_39:\n      dup2\n      sload\n      dup2\n      mstore\n      swap1\n      0x01\n      add\n      swap1\n      0x20\n      add\n      dup1\n      dup4\n      gt\n      tag_39\n      jumpi\n      dup3\n      swap1\n      sub\n      0x1f\n      and\n      dup3\n      add\n      swap2\n    tag_37:\n      pop\n      pop\n      pop\n      pop\n      pop\n      swap2\n      pop\n        /* \"contracts/Profile.sol\":1728:1867  function getName(address owner) external validProfile (owner) view returns ( string memory) {... */\n      pop\n      swap2\n      swap1\n      pop\n      jump\t// out\n        /* \"contracts/Profile.sol\":1263:1471  function deleteProfile(address owner) external validProfile (owner) {... */\n    tag_20:\n        /* \"contracts/Profile.sol\":1324:1329  owner */\n      dup1\n        /* \"contracts/Profile.sol\":729:733  true */\n      0x01\n        /* \"contracts/Profile.sol\":699:733  profileList[owner].created == true */\n      iszero\n      iszero\n        /* \"contracts/Profile.sol\":699:710  profileList */\n      0x00\n        /* \"contracts/Profile.sol\":699:717  profileList[owner] */\n      dup1\n        /* \"contracts/Profile.sol\":711:716  owner */\n      dup4\n        /* \"contracts/Profile.sol\":699:717  profileList[owner] */\n      0xffffffffffffffffffffffffffffffffffffffff\n      and\n      0xffffffffffffffffffffffffffffffffffffffff\n      and\n      dup2\n      mstore\n      0x20\n      add\n      swap1\n      dup2\n      mstore\n      0x20\n      add\n      0x00\n      keccak256\n        /* \"contracts/Profile.sol\":699:725  profileList[owner].created */\n      0x02\n      add\n      0x14\n      swap1\n      sload\n      swap1\n      0x0100\n      exp\n      swap1\n      div\n      0xff\n      and\n        /* \"contracts/Profile.sol\":699:733  profileList[owner].created == true */\n      iszero\n      iszero\n      eq\n        /* \"contracts/Profile.sol\":691:760  require(profileList[owner].created == true, \"Profile does not exist\") */\n      tag_41\n      jumpi\n      mload(0x40)\n      0x08c379a000000000000000000000000000000000000000000000000000000000\n      dup2\n      mstore\n      0x04\n      add\n      tag_42\n      swap1\n      tag_32\n      jump\t// in\n    tag_42:\n      mload(0x40)\n      dup1\n      swap2\n      sub\n      swap1\n      revert\n    tag_41:\n        /* \"contracts/Profile.sol\":1370:1375  false */\n      0x00\n        /* \"contracts/Profile.sol\":1341:1352  profileList */\n      dup1\n        /* \"contracts/Profile.sol\":1341:1359  profileList[owner] */\n      0x00\n        /* \"contracts/Profile.sol\":1353:1358  owner */\n      dup5\n        /* \"contracts/Profile.sol\":1341:1359  profileList[owner] */\n      0xffffffffffffffffffffffffffffffffffffffff\n      and\n      0xffffffffffffffffffffffffffffffffffffffff\n      and\n      dup2\n      mstore\n      0x20\n      add\n      swap1\n      dup2\n      mstore\n      0x20\n      add\n      0x00\n      keccak256\n        /* \"contracts/Profile.sol\":1341:1367  profileList[owner].created */\n      0x02\n      add\n      0x14\n        /* \"contracts/Profile.sol\":1341:1375  profileList[owner].created = false */\n      0x0100\n      exp\n      dup2\n      sload\n      dup2\n      0xff\n      mul\n      not\n      and\n      swap1\n      dup4\n      iszero\n      iszero\n      mul\n      or\n      swap1\n      sstore\n      pop\n        /* \"contracts/Profile.sol\":1426:1427  1 */\n      0x01\n        /* \"contracts/Profile.sol\":1413:1423  numProfile */\n      dup1\n      sload\n        /* \"contracts/Profile.sol\":1413:1427  numProfile - 1 */\n      tag_44\n      swap2\n      swap1\n      tag_45\n      jump\t// in\n    tag_44:\n        /* \"contracts/Profile.sol\":1400:1410  numProfile */\n      0x01\n        /* \"contracts/Profile.sol\":1400:1427  numProfile = numProfile - 1 */\n      dup2\n      swap1\n      sstore\n      pop\n        /* \"contracts/Profile.sol\":1443:1464  profileDeleted(owner) */\n      0xb3e28db4a27e0be6fecdbb889b7a847c4451545c8158cdec23f4fc29d6756d19\n        /* \"contracts/Profile.sol\":1458:1463  owner */\n      dup3\n        /* \"contracts/Profile.sol\":1443:1464  profileDeleted(owner) */\n      mload(0x40)\n      tag_46\n      swap2\n      swap1\n      tag_47\n      jump\t// in\n    tag_46:\n      mload(0x40)\n      dup1\n      swap2\n      sub\n      swap1\n      log1\n        /* \"contracts/Profile.sol\":1263:1471  function deleteProfile(address owner) external validProfile (owner) {... */\n      pop\n      pop\n      jump\t// out\n        /* \"contracts/Profile.sol\":824:1216  function createProfile(string memory name, string memory password, address owner)  external {... */\n    tag_24:\n        /* \"contracts/Profile.sol\":964:969  false */\n      0x00\n        /* \"contracts/Profile.sol\":934:969  profileList[owner].created == false */\n      iszero\n      iszero\n        /* \"contracts/Profile.sol\":934:945  profileList */\n      0x00\n        /* \"contracts/Profile.sol\":934:952  profileList[owner] */\n      dup1\n        /* \"contracts/Profile.sol\":946:951  owner */\n      dup4\n        /* \"contracts/Profile.sol\":934:952  profileList[owner] */\n      0xffffffffffffffffffffffffffffffffffffffff\n      and\n      0xffffffffffffffffffffffffffffffffffffffff\n      and\n      dup2\n      mstore\n      0x20\n      add\n      swap1\n      dup2\n      mstore\n      0x20\n      add\n      0x00\n      keccak256\n        /* \"contracts/Profile.sol\":934:960  profileList[owner].created */\n      0x02\n      add\n      0x14\n      swap1\n      sload\n      swap1\n      0x0100\n      exp\n      swap1\n      div\n      0xff\n      and\n        /* \"contracts/Profile.sol\":934:969  profileList[owner].created == false */\n      iszero\n      iszero\n      eq\n        /* \"contracts/Profile.sol\":926:1007  require(profileList[owner].created == false, \"Cannot create more than 1 profile\") */\n      tag_49\n      jumpi\n      mload(0x40)\n      0x08c379a000000000000000000000000000000000000000000000000000000000\n      dup2\n      mstore\n      0x04\n      add\n      tag_50\n      swap1\n      tag_51\n      jump\t// in\n    tag_50:\n      mload(0x40)\n      dup1\n      swap2\n      sub\n      swap1\n      revert\n    tag_49:\n        /* \"contracts/Profile.sol\":1017:1042  profile memory newProfile */\n      0x00\n        /* \"contracts/Profile.sol\":1045:1078  profile(name,password,owner,true) */\n      mload(0x40)\n      dup1\n      0x80\n      add\n      0x40\n      mstore\n      dup1\n        /* \"contracts/Profile.sol\":1053:1057  name */\n      dup6\n        /* \"contracts/Profile.sol\":1045:1078  profile(name,password,owner,true) */\n      dup2\n      mstore\n      0x20\n      add\n        /* \"contracts/Profile.sol\":1058:1066  password */\n      dup5\n        /* \"contracts/Profile.sol\":1045:1078  profile(name,password,owner,true) */\n      dup2\n      mstore\n      0x20\n      add\n        /* \"contracts/Profile.sol\":1067:1072  owner */\n      dup4\n        /* \"contracts/Profile.sol\":1045:1078  profile(name,password,owner,true) */\n      0xffffffffffffffffffffffffffffffffffffffff\n      and\n      dup2\n      mstore\n      0x20\n      add\n        /* \"contracts/Profile.sol\":1073:1077  true */\n      0x01\n        /* \"contracts/Profile.sol\":1045:1078  profile(name,password,owner,true) */\n      iszero\n      iszero\n      dup2\n      mstore\n      pop\n        /* \"contracts/Profile.sol\":1017:1078  profile memory newProfile = profile(name,password,owner,true) */\n      swap1\n      pop\n        /* \"contracts/Profile.sol\":1109:1119  newProfile */\n      dup1\n        /* \"contracts/Profile.sol\":1088:1099  profileList */\n      0x00\n        /* \"contracts/Profile.sol\":1088:1106  profileList[owner] */\n      dup1\n        /* \"contracts/Profile.sol\":1100:1105  owner */\n      dup5\n        /* \"contracts/Profile.sol\":1088:1106  profileList[owner] */\n      0xffffffffffffffffffffffffffffffffffffffff\n      and\n      0xffffffffffffffffffffffffffffffffffffffff\n      and\n      dup2\n      mstore\n      0x20\n      add\n      swap1\n      dup2\n      mstore\n      0x20\n      add\n      0x00\n      keccak256\n        /* \"contracts/Profile.sol\":1088:1119  profileList[owner] = newProfile */\n      0x00\n      dup3\n      add\n      mload\n      dup2\n      0x00\n      add\n      swap1\n      dup1\n      mload\n      swap1\n      0x20\n      add\n      swap1\n      tag_52\n      swap3\n      swap2\n      swap1\n      tag_53\n      jump\t// in\n    tag_52:\n      pop\n      0x20\n      dup3\n      add\n      mload\n      dup2\n      0x01\n      add\n      swap1\n      dup1\n      mload\n      swap1\n      0x20\n      add\n      swap1\n      tag_54\n      swap3\n      swap2\n      swap1\n      tag_53\n      jump\t// in\n    tag_54:\n      pop\n      0x40\n      dup3\n      add\n      mload\n      dup2\n      0x02\n      add\n      exp(0x0100, 0x00)\n      dup2\n      sload\n      dup2\n      0xffffffffffffffffffffffffffffffffffffffff\n      mul\n      not\n      and\n      swap1\n      dup4\n      0xffffffffffffffffffffffffffffffffffffffff\n      and\n      mul\n      or\n      swap1\n      sstore\n      pop\n      0x60\n      dup3\n      add\n      mload\n      dup2\n      0x02\n      add\n      exp(0x0100, 0x14)\n      dup2\n      sload\n      dup2\n      0xff\n      mul\n      not\n      and\n      swap1\n      dup4\n      iszero\n      iszero\n      mul\n      or\n      swap1\n      sstore\n      pop\n      swap1\n      pop\n      pop\n        /* \"contracts/Profile.sol\":1155:1156  1 */\n      0x01\n        /* \"contracts/Profile.sol\":1142:1152  numProfile */\n      dup1\n      sload\n        /* \"contracts/Profile.sol\":1142:1156  numProfile + 1 */\n      tag_55\n      swap2\n      swap1\n      tag_56\n      jump\t// in\n    tag_55:\n        /* \"contracts/Profile.sol\":1129:1139  numProfile */\n      0x01\n        /* \"contracts/Profile.sol\":1129:1156  numProfile = numProfile + 1 */\n      dup2\n      swap1\n      sstore\n      pop\n        /* \"contracts/Profile.sol\":1171:1209  profileCreated( name, password, owner) */\n      0xcf82d30a72e77f1c7cebadba88a1b7312a099c332d1efe8d0e9ea60736582fda\n        /* \"contracts/Profile.sol\":1187:1191  name */\n      dup5\n        /* \"contracts/Profile.sol\":1193:1201  password */\n      dup5\n        /* \"contracts/Profile.sol\":1203:1208  owner */\n      dup5\n        /* \"contracts/Profile.sol\":1171:1209  profileCreated( name, password, owner) */\n      mload(0x40)\n      tag_57\n      swap4\n      swap3\n      swap2\n      swap1\n      tag_58\n      jump\t// in\n    tag_57:\n      mload(0x40)\n      dup1\n      swap2\n      sub\n      swap1\n      log1\n        /* \"contracts/Profile.sol\":916:1216  {... */\n      pop\n        /* \"contracts/Profile.sol\":824:1216  function createProfile(string memory name, string memory password, address owner)  external {... */\n      pop\n      pop\n      pop\n      jump\t// out\n        /* \"contracts/Profile.sol\":1518:1664  function updateProfileName(string memory newName, address owner) external validProfile (owner) {... */\n    tag_28:\n        /* \"contracts/Profile.sol\":1606:1611  owner */\n      dup1\n        /* \"contracts/Profile.sol\":729:733  true */\n      0x01\n        /* \"contracts/Profile.sol\":699:733  profileList[owner].created == true */\n      iszero\n      iszero\n        /* \"contracts/Profile.sol\":699:710  profileList */\n      0x00\n        /* \"contracts/Profile.sol\":699:717  profileList[owner] */\n      dup1\n        /* \"contracts/Profile.sol\":711:716  owner */\n      dup4\n        /* \"contracts/Profile.sol\":699:717  profileList[owner] */\n      0xffffffffffffffffffffffffffffffffffffffff\n      and\n      0xffffffffffffffffffffffffffffffffffffffff\n      and\n      dup2\n      mstore\n      0x20\n      add\n      swap1\n      dup2\n      mstore\n      0x20\n      add\n      0x00\n      keccak256\n        /* \"contracts/Profile.sol\":699:725  profileList[owner].created */\n      0x02\n      add\n      0x14\n      swap1\n      sload\n      swap1\n      0x0100\n      exp\n      swap1\n      div\n      0xff\n      and\n        /* \"contracts/Profile.sol\":699:733  profileList[owner].created == true */\n      iszero\n      iszero\n      eq\n        /* \"contracts/Profile.sol\":691:760  require(profileList[owner].created == true, \"Profile does not exist\") */\n      tag_60\n      jumpi\n      mload(0x40)\n      0x08c379a000000000000000000000000000000000000000000000000000000000\n      dup2\n      mstore\n      0x04\n      add\n      tag_61\n      swap1\n      tag_32\n      jump\t// in\n    tag_61:\n      mload(0x40)\n      dup1\n      swap2\n      sub\n      swap1\n      revert\n    tag_60:\n        /* \"contracts/Profile.sol\":1649:1656  newName */\n      dup3\n        /* \"contracts/Profile.sol\":1623:1634  profileList */\n      0x00\n        /* \"contracts/Profile.sol\":1623:1641  profileList[owner] */\n      dup1\n        /* \"contracts/Profile.sol\":1635:1640  owner */\n      dup5\n        /* \"contracts/Profile.sol\":1623:1641  profileList[owner] */\n      0xffffffffffffffffffffffffffffffffffffffff\n      and\n      0xffffffffffffffffffffffffffffffffffffffff\n      and\n      dup2\n      mstore\n      0x20\n      add\n      swap1\n      dup2\n      mstore\n      0x20\n      add\n      0x00\n      keccak256\n        /* \"contracts/Profile.sol\":1623:1646  profileList[owner].name */\n      0x00\n      add\n        /* \"contracts/Profile.sol\":1623:1656  profileList[owner].name = newName */\n      swap1\n      dup1\n      mload\n      swap1\n      0x20\n      add\n      swap1\n      tag_63\n      swap3\n      swap2\n      swap1\n      tag_53\n      jump\t// in\n    tag_63:\n      pop\n        /* \"contracts/Profile.sol\":1518:1664  function updateProfileName(string memory newName, address owner) external validProfile (owner) {... */\n      pop\n      pop\n      pop\n      jump\t// out\n    tag_53:\n      dup3\n      dup1\n      sload\n      tag_64\n      swap1\n      tag_35\n      jump\t// in\n    tag_64:\n      swap1\n      0x00\n      mstore\n      keccak256(0x00, 0x20)\n      swap1\n      0x1f\n      add\n      0x20\n      swap1\n      div\n      dup2\n      add\n      swap3\n      dup3\n      tag_66\n      jumpi\n      0x00\n      dup6\n      sstore\n      jump(tag_65)\n    tag_66:\n      dup3\n      0x1f\n      lt\n      tag_67\n      jumpi\n      dup1\n      mload\n      not(0xff)\n      and\n      dup4\n      dup1\n      add\n      or\n      dup6\n      sstore\n      jump(tag_65)\n    tag_67:\n      dup3\n      dup1\n      add\n      0x01\n      add\n      dup6\n      sstore\n      dup3\n      iszero\n      tag_65\n      jumpi\n      swap2\n      dup3\n      add\n    tag_68:\n      dup3\n      dup2\n      gt\n      iszero\n      tag_69\n      jumpi\n      dup3\n      mload\n      dup3\n      sstore\n      swap2\n      0x20\n      add\n      swap2\n      swap1\n      0x01\n      add\n      swap1\n      jump(tag_68)\n    tag_69:\n    tag_65:\n      pop\n      swap1\n      pop\n      tag_70\n      swap2\n      swap1\n      tag_71\n      jump\t// in\n    tag_70:\n      pop\n      swap1\n      jump\t// out\n    tag_71:\n    tag_72:\n      dup1\n      dup3\n      gt\n      iszero\n      tag_73\n      jumpi\n      0x00\n      dup2\n      0x00\n      swap1\n      sstore\n      pop\n      0x01\n      add\n      jump(tag_72)\n    tag_73:\n      pop\n      swap1\n      jump\t// out\n        /* \"#utility.yul\":7:419   */\n    tag_75:\n        /* \"#utility.yul\":85:90   */\n      0x00\n        /* \"#utility.yul\":110:176   */\n      tag_77\n        /* \"#utility.yul\":126:175   */\n      tag_78\n        /* \"#utility.yul\":168:174   */\n      dup5\n        /* \"#utility.yul\":126:175   */\n      tag_79\n      jump\t// in\n    tag_78:\n        /* \"#utility.yul\":110:176   */\n      tag_80\n      jump\t// in\n    tag_77:\n        /* \"#utility.yul\":101:176   */\n      swap1\n      pop\n        /* \"#utility.yul\":199:205   */\n      dup3\n        /* \"#utility.yul\":192:197   */\n      dup2\n        /* \"#utility.yul\":185:206   */\n      mstore\n        /* \"#utility.yul\":237:241   */\n      0x20\n        /* \"#utility.yul\":230:235   */\n      dup2\n        /* \"#utility.yul\":226:242   */\n      add\n        /* \"#utility.yul\":275:278   */\n      dup5\n        /* \"#utility.yul\":266:272   */\n      dup5\n        /* \"#utility.yul\":261:264   */\n      dup5\n        /* \"#utility.yul\":257:273   */\n      add\n        /* \"#utility.yul\":254:279   */\n      gt\n        /* \"#utility.yul\":251:363   */\n      iszero\n      tag_81\n      jumpi\n        /* \"#utility.yul\":282:361   */\n      tag_82\n      tag_83\n      jump\t// in\n    tag_82:\n        /* \"#utility.yul\":251:363   */\n    tag_81:\n        /* \"#utility.yul\":372:413   */\n      tag_84\n        /* \"#utility.yul\":406:412   */\n      dup5\n        /* \"#utility.yul\":401:404   */\n      dup3\n        /* \"#utility.yul\":396:399   */\n      dup6\n        /* \"#utility.yul\":372:413   */\n      tag_85\n      jump\t// in\n    tag_84:\n        /* \"#utility.yul\":91:419   */\n      pop\n        /* \"#utility.yul\":7:419   */\n      swap4\n      swap3\n      pop\n      pop\n      pop\n      jump\t// out\n        /* \"#utility.yul\":425:564   */\n    tag_86:\n        /* \"#utility.yul\":471:476   */\n      0x00\n        /* \"#utility.yul\":509:515   */\n      dup2\n        /* \"#utility.yul\":496:516   */\n      calldataload\n        /* \"#utility.yul\":487:516   */\n      swap1\n      pop\n        /* \"#utility.yul\":525:558   */\n      tag_88\n        /* \"#utility.yul\":552:557   */\n      dup2\n        /* \"#utility.yul\":525:558   */\n      tag_89\n      jump\t// in\n    tag_88:\n        /* \"#utility.yul\":425:564   */\n      swap3\n      swap2\n      pop\n      pop\n      jump\t// out\n        /* \"#utility.yul\":584:924   */\n    tag_90:\n        /* \"#utility.yul\":640:645   */\n      0x00\n        /* \"#utility.yul\":689:692   */\n      dup3\n        /* \"#utility.yul\":682:686   */\n      0x1f\n        /* \"#utility.yul\":674:680   */\n      dup4\n        /* \"#utility.yul\":670:687   */\n      add\n        /* \"#utility.yul\":666:693   */\n      slt\n        /* \"#utility.yul\":656:778   */\n      tag_92\n      jumpi\n        /* \"#utility.yul\":697:776   */\n      tag_93\n      tag_94\n      jump\t// in\n    tag_93:\n        /* \"#utility.yul\":656:778   */\n    tag_92:\n        /* \"#utility.yul\":814:820   */\n      dup2\n        /* \"#utility.yul\":801:821   */\n      calldataload\n        /* \"#utility.yul\":839:918   */\n      tag_95\n        /* \"#utility.yul\":914:917   */\n      dup5\n        /* \"#utility.yul\":906:912   */\n      dup3\n        /* \"#utility.yul\":899:903   */\n      0x20\n        /* \"#utility.yul\":891:897   */\n      dup7\n        /* \"#utility.yul\":887:904   */\n      add\n        /* \"#utility.yul\":839:918   */\n      tag_75\n      jump\t// in\n    tag_95:\n        /* \"#utility.yul\":830:918   */\n      swap2\n      pop\n        /* \"#utility.yul\":646:924   */\n      pop\n        /* \"#utility.yul\":584:924   */\n      swap3\n      swap2\n      pop\n      pop\n      jump\t// out\n        /* \"#utility.yul\":930:1259   */\n    tag_14:\n        /* \"#utility.yul\":989:995   */\n      0x00\n        /* \"#utility.yul\":1038:1040   */\n      0x20\n        /* \"#utility.yul\":1026:1035   */\n      dup3\n        /* \"#utility.yul\":1017:1024   */\n      dup5\n        /* \"#utility.yul\":1013:1036   */\n      sub\n        /* \"#utility.yul\":1009:1041   */\n      slt\n        /* \"#utility.yul\":1006:1125   */\n      iszero\n      tag_97\n      jumpi\n        /* \"#utility.yul\":1044:1123   */\n      tag_98\n      tag_99\n      jump\t// in\n    tag_98:\n        /* \"#utility.yul\":1006:1125   */\n    tag_97:\n        /* \"#utility.yul\":1164:1165   */\n      0x00\n        /* \"#utility.yul\":1189:1242   */\n      tag_100\n        /* \"#utility.yul\":1234:1241   */\n      dup5\n        /* \"#utility.yul\":1225:1231   */\n      dup3\n        /* \"#utility.yul\":1214:1223   */\n      dup6\n        /* \"#utility.yul\":1210:1232   */\n      add\n        /* \"#utility.yul\":1189:1242   */\n      tag_86\n      jump\t// in\n    tag_100:\n        /* \"#utility.yul\":1179:1242   */\n      swap2\n      pop\n        /* \"#utility.yul\":1135:1252   */\n      pop\n        /* \"#utility.yul\":930:1259   */\n      swap3\n      swap2\n      pop\n      pop\n      jump\t// out\n        /* \"#utility.yul\":1265:1919   */\n    tag_27:\n        /* \"#utility.yul\":1343:1349   */\n      0x00\n        /* \"#utility.yul\":1351:1357   */\n      dup1\n        /* \"#utility.yul\":1400:1402   */\n      0x40\n        /* \"#utility.yul\":1388:1397   */\n      dup4\n        /* \"#utility.yul\":1379:1386   */\n      dup6\n        /* \"#utility.yul\":1375:1398   */\n      sub\n        /* \"#utility.yul\":1371:1403   */\n      slt\n        /* \"#utility.yul\":1368:1487   */\n      iszero\n      tag_102\n      jumpi\n        /* \"#utility.yul\":1406:1485   */\n      tag_103\n      tag_99\n      jump\t// in\n    tag_103:\n        /* \"#utility.yul\":1368:1487   */\n    tag_102:\n        /* \"#utility.yul\":1554:1555   */\n      0x00\n        /* \"#utility.yul\":1543:1552   */\n      dup4\n        /* \"#utility.yul\":1539:1556   */\n      add\n        /* \"#utility.yul\":1526:1557   */\n      calldataload\n        /* \"#utility.yul\":1584:1602   */\n      0xffffffffffffffff\n        /* \"#utility.yul\":1576:1582   */\n      dup2\n        /* \"#utility.yul\":1573:1603   */\n      gt\n        /* \"#utility.yul\":1570:1687   */\n      iszero\n      tag_104\n      jumpi\n        /* \"#utility.yul\":1606:1685   */\n      tag_105\n      tag_106\n      jump\t// in\n    tag_105:\n        /* \"#utility.yul\":1570:1687   */\n    tag_104:\n        /* \"#utility.yul\":1711:1774   */\n      tag_107\n        /* \"#utility.yul\":1766:1773   */\n      dup6\n        /* \"#utility.yul\":1757:1763   */\n      dup3\n        /* \"#utility.yul\":1746:1755   */\n      dup7\n        /* \"#utility.yul\":1742:1764   */\n      add\n        /* \"#utility.yul\":1711:1774   */\n      tag_90\n      jump\t// in\n    tag_107:\n        /* \"#utility.yul\":1701:1774   */\n      swap3\n      pop\n        /* \"#utility.yul\":1497:1784   */\n      pop\n        /* \"#utility.yul\":1823:1825   */\n      0x20\n        /* \"#utility.yul\":1849:1902   */\n      tag_108\n        /* \"#utility.yul\":1894:1901   */\n      dup6\n        /* \"#utility.yul\":1885:1891   */\n      dup3\n        /* \"#utility.yul\":1874:1883   */\n      dup7\n        /* \"#utility.yul\":1870:1892   */\n      add\n        /* \"#utility.yul\":1849:1902   */\n      tag_86\n      jump\t// in\n    tag_108:\n        /* \"#utility.yul\":1839:1902   */\n      swap2\n      pop\n        /* \"#utility.yul\":1794:1912   */\n      pop\n        /* \"#utility.yul\":1265:1919   */\n      swap3\n      pop\n      swap3\n      swap1\n      pop\n      jump\t// out\n        /* \"#utility.yul\":1925:2904   */\n    tag_23:\n        /* \"#utility.yul\":2022:2028   */\n      0x00\n        /* \"#utility.yul\":2030:2036   */\n      dup1\n        /* \"#utility.yul\":2038:2044   */\n      0x00\n        /* \"#utility.yul\":2087:2089   */\n      0x60\n        /* \"#utility.yul\":2075:2084   */\n      dup5\n        /* \"#utility.yul\":2066:2073   */\n      dup7\n        /* \"#utility.yul\":2062:2085   */\n      sub\n        /* \"#utility.yul\":2058:2090   */\n      slt\n        /* \"#utility.yul\":2055:2174   */\n      iszero\n      tag_110\n      jumpi\n        /* \"#utility.yul\":2093:2172   */\n      tag_111\n      tag_99\n      jump\t// in\n    tag_111:\n        /* \"#utility.yul\":2055:2174   */\n    tag_110:\n        /* \"#utility.yul\":2241:2242   */\n      0x00\n        /* \"#utility.yul\":2230:2239   */\n      dup5\n        /* \"#utility.yul\":2226:2243   */\n      add\n        /* \"#utility.yul\":2213:2244   */\n      calldataload\n        /* \"#utility.yul\":2271:2289   */\n      0xffffffffffffffff\n        /* \"#utility.yul\":2263:2269   */\n      dup2\n        /* \"#utility.yul\":2260:2290   */\n      gt\n        /* \"#utility.yul\":2257:2374   */\n      iszero\n      tag_112\n      jumpi\n        /* \"#utility.yul\":2293:2372   */\n      tag_113\n      tag_106\n      jump\t// in\n    tag_113:\n        /* \"#utility.yul\":2257:2374   */\n    tag_112:\n        /* \"#utility.yul\":2398:2461   */\n      tag_114\n        /* \"#utility.yul\":2453:2460   */\n      dup7\n        /* \"#utility.yul\":2444:2450   */\n      dup3\n        /* \"#utility.yul\":2433:2442   */\n      dup8\n        /* \"#utility.yul\":2429:2451   */\n      add\n        /* \"#utility.yul\":2398:2461   */\n      tag_90\n      jump\t// in\n    tag_114:\n        /* \"#utility.yul\":2388:2461   */\n      swap4\n      pop\n        /* \"#utility.yul\":2184:2471   */\n      pop\n        /* \"#utility.yul\":2538:2540   */\n      0x20\n        /* \"#utility.yul\":2527:2536   */\n      dup5\n        /* \"#utility.yul\":2523:2541   */\n      add\n        /* \"#utility.yul\":2510:2542   */\n      calldataload\n        /* \"#utility.yul\":2569:2587   */\n      0xffffffffffffffff\n        /* \"#utility.yul\":2561:2567   */\n      dup2\n        /* \"#utility.yul\":2558:2588   */\n      gt\n        /* \"#utility.yul\":2555:2672   */\n      iszero\n      tag_115\n      jumpi\n        /* \"#utility.yul\":2591:2670   */\n      tag_116\n      tag_106\n      jump\t// in\n    tag_116:\n        /* \"#utility.yul\":2555:2672   */\n    tag_115:\n        /* \"#utility.yul\":2696:2759   */\n      tag_117\n        /* \"#utility.yul\":2751:2758   */\n      dup7\n        /* \"#utility.yul\":2742:2748   */\n      dup3\n        /* \"#utility.yul\":2731:2740   */\n      dup8\n        /* \"#utility.yul\":2727:2749   */\n      add\n        /* \"#utility.yul\":2696:2759   */\n      tag_90\n      jump\t// in\n    tag_117:\n        /* \"#utility.yul\":2686:2759   */\n      swap3\n      pop\n        /* \"#utility.yul\":2481:2769   */\n      pop\n        /* \"#utility.yul\":2808:2810   */\n      0x40\n        /* \"#utility.yul\":2834:2887   */\n      tag_118\n        /* \"#utility.yul\":2879:2886   */\n      dup7\n        /* \"#utility.yul\":2870:2876   */\n      dup3\n        /* \"#utility.yul\":2859:2868   */\n      dup8\n        /* \"#utility.yul\":2855:2877   */\n      add\n        /* \"#utility.yul\":2834:2887   */\n      tag_86\n      jump\t// in\n    tag_118:\n        /* \"#utility.yul\":2824:2887   */\n      swap2\n      pop\n        /* \"#utility.yul\":2779:2897   */\n      pop\n        /* \"#utility.yul\":1925:2904   */\n      swap3\n      pop\n      swap3\n      pop\n      swap3\n      jump\t// out\n        /* \"#utility.yul\":2910:3028   */\n    tag_119:\n        /* \"#utility.yul\":2997:3021   */\n      tag_121\n        /* \"#utility.yul\":3015:3020   */\n      dup2\n        /* \"#utility.yul\":2997:3021   */\n      tag_122\n      jump\t// in\n    tag_121:\n        /* \"#utility.yul\":2992:2995   */\n      dup3\n        /* \"#utility.yul\":2985:3022   */\n      mstore\n        /* \"#utility.yul\":2910:3028   */\n      pop\n      pop\n      jump\t// out\n        /* \"#utility.yul\":3034:3398   */\n    tag_123:\n        /* \"#utility.yul\":3122:3125   */\n      0x00\n        /* \"#utility.yul\":3150:3189   */\n      tag_125\n        /* \"#utility.yul\":3183:3188   */\n      dup3\n        /* \"#utility.yul\":3150:3189   */\n      tag_126\n      jump\t// in\n    tag_125:\n        /* \"#utility.yul\":3205:3276   */\n      tag_127\n        /* \"#utility.yul\":3269:3275   */\n      dup2\n        /* \"#utility.yul\":3264:3267   */\n      dup6\n        /* \"#utility.yul\":3205:3276   */\n      tag_128\n      jump\t// in\n    tag_127:\n        /* \"#utility.yul\":3198:3276   */\n      swap4\n      pop\n        /* \"#utility.yul\":3285:3337   */\n      tag_129\n        /* \"#utility.yul\":3330:3336   */\n      dup2\n        /* \"#utility.yul\":3325:3328   */\n      dup6\n        /* \"#utility.yul\":3318:3322   */\n      0x20\n        /* \"#utility.yul\":3311:3316   */\n      dup7\n        /* \"#utility.yul\":3307:3323   */\n      add\n        /* \"#utility.yul\":3285:3337   */\n      tag_130\n      jump\t// in\n    tag_129:\n        /* \"#utility.yul\":3362:3391   */\n      tag_131\n        /* \"#utility.yul\":3384:3390   */\n      dup2\n        /* \"#utility.yul\":3362:3391   */\n      tag_132\n      jump\t// in\n    tag_131:\n        /* \"#utility.yul\":3357:3360   */\n      dup5\n        /* \"#utility.yul\":3353:3392   */\n      add\n        /* \"#utility.yul\":3346:3392   */\n      swap2\n      pop\n        /* \"#utility.yul\":3126:3398   */\n      pop\n        /* \"#utility.yul\":3034:3398   */\n      swap3\n      swap2\n      pop\n      pop\n      jump\t// out\n        /* \"#utility.yul\":3404:3770   */\n    tag_133:\n        /* \"#utility.yul\":3546:3549   */\n      0x00\n        /* \"#utility.yul\":3567:3634   */\n      tag_135\n        /* \"#utility.yul\":3631:3633   */\n      0x16\n        /* \"#utility.yul\":3626:3629   */\n      dup4\n        /* \"#utility.yul\":3567:3634   */\n      tag_128\n      jump\t// in\n    tag_135:\n        /* \"#utility.yul\":3560:3634   */\n      swap2\n      pop\n        /* \"#utility.yul\":3643:3736   */\n      tag_136\n        /* \"#utility.yul\":3732:3735   */\n      dup3\n        /* \"#utility.yul\":3643:3736   */\n      tag_137\n      jump\t// in\n    tag_136:\n        /* \"#utility.yul\":3761:3763   */\n      0x20\n        /* \"#utility.yul\":3756:3759   */\n      dup3\n        /* \"#utility.yul\":3752:3764   */\n      add\n        /* \"#utility.yul\":3745:3764   */\n      swap1\n      pop\n        /* \"#utility.yul\":3404:3770   */\n      swap2\n      swap1\n      pop\n      jump\t// out\n        /* \"#utility.yul\":3776:4142   */\n    tag_138:\n        /* \"#utility.yul\":3918:3921   */\n      0x00\n        /* \"#utility.yul\":3939:4006   */\n      tag_140\n        /* \"#utility.yul\":4003:4005   */\n      0x21\n        /* \"#utility.yul\":3998:4001   */\n      dup4\n        /* \"#utility.yul\":3939:4006   */\n      tag_128\n      jump\t// in\n    tag_140:\n        /* \"#utility.yul\":3932:4006   */\n      swap2\n      pop\n        /* \"#utility.yul\":4015:4108   */\n      tag_141\n        /* \"#utility.yul\":4104:4107   */\n      dup3\n        /* \"#utility.yul\":4015:4108   */\n      tag_142\n      jump\t// in\n    tag_141:\n        /* \"#utility.yul\":4133:4135   */\n      0x40\n        /* \"#utility.yul\":4128:4131   */\n      dup3\n        /* \"#utility.yul\":4124:4136   */\n      add\n        /* \"#utility.yul\":4117:4136   */\n      swap1\n      pop\n        /* \"#utility.yul\":3776:4142   */\n      swap2\n      swap1\n      pop\n      jump\t// out\n        /* \"#utility.yul\":4148:4266   */\n    tag_143:\n        /* \"#utility.yul\":4235:4259   */\n      tag_145\n        /* \"#utility.yul\":4253:4258   */\n      dup2\n        /* \"#utility.yul\":4235:4259   */\n      tag_146\n      jump\t// in\n    tag_145:\n        /* \"#utility.yul\":4230:4233   */\n      dup3\n        /* \"#utility.yul\":4223:4260   */\n      mstore\n        /* \"#utility.yul\":4148:4266   */\n      pop\n      pop\n      jump\t// out\n        /* \"#utility.yul\":4272:4494   */\n    tag_47:\n        /* \"#utility.yul\":4365:4369   */\n      0x00\n        /* \"#utility.yul\":4403:4405   */\n      0x20\n        /* \"#utility.yul\":4392:4401   */\n      dup3\n        /* \"#utility.yul\":4388:4406   */\n      add\n        /* \"#utility.yul\":4380:4406   */\n      swap1\n      pop\n        /* \"#utility.yul\":4416:4487   */\n      tag_148\n        /* \"#utility.yul\":4484:4485   */\n      0x00\n        /* \"#utility.yul\":4473:4482   */\n      dup4\n        /* \"#utility.yul\":4469:4486   */\n      add\n        /* \"#utility.yul\":4460:4466   */\n      dup5\n        /* \"#utility.yul\":4416:4487   */\n      tag_119\n      jump\t// in\n    tag_148:\n        /* \"#utility.yul\":4272:4494   */\n      swap3\n      swap2\n      pop\n      pop\n      jump\t// out\n        /* \"#utility.yul\":4500:4813   */\n    tag_17:\n        /* \"#utility.yul\":4613:4617   */\n      0x00\n        /* \"#utility.yul\":4651:4653   */\n      0x20\n        /* \"#utility.yul\":4640:4649   */\n      dup3\n        /* \"#utility.yul\":4636:4654   */\n      add\n        /* \"#utility.yul\":4628:4654   */\n      swap1\n      pop\n        /* \"#utility.yul\":4700:4709   */\n      dup2\n        /* \"#utility.yul\":4694:4698   */\n      dup2\n        /* \"#utility.yul\":4690:4710   */\n      sub\n        /* \"#utility.yul\":4686:4687   */\n      0x00\n        /* \"#utility.yul\":4675:4684   */\n      dup4\n        /* \"#utility.yul\":4671:4688   */\n      add\n        /* \"#utility.yul\":4664:4711   */\n      mstore\n        /* \"#utility.yul\":4728:4806   */\n      tag_150\n        /* \"#utility.yul\":4801:4805   */\n      dup2\n        /* \"#utility.yul\":4792:4798   */\n      dup5\n        /* \"#utility.yul\":4728:4806   */\n      tag_123\n      jump\t// in\n    tag_150:\n        /* \"#utility.yul\":4720:4806   */\n      swap1\n      pop\n        /* \"#utility.yul\":4500:4813   */\n      swap3\n      swap2\n      pop\n      pop\n      jump\t// out\n        /* \"#utility.yul\":4819:5443   */\n    tag_58:\n        /* \"#utility.yul\":5008:5012   */\n      0x00\n        /* \"#utility.yul\":5046:5048   */\n      0x60\n        /* \"#utility.yul\":5035:5044   */\n      dup3\n        /* \"#utility.yul\":5031:5049   */\n      add\n        /* \"#utility.yul\":5023:5049   */\n      swap1\n      pop\n        /* \"#utility.yul\":5095:5104   */\n      dup2\n        /* \"#utility.yul\":5089:5093   */\n      dup2\n        /* \"#utility.yul\":5085:5105   */\n      sub\n        /* \"#utility.yul\":5081:5082   */\n      0x00\n        /* \"#utility.yul\":5070:5079   */\n      dup4\n        /* \"#utility.yul\":5066:5083   */\n      add\n        /* \"#utility.yul\":5059:5106   */\n      mstore\n        /* \"#utility.yul\":5123:5201   */\n      tag_152\n        /* \"#utility.yul\":5196:5200   */\n      dup2\n        /* \"#utility.yul\":5187:5193   */\n      dup7\n        /* \"#utility.yul\":5123:5201   */\n      tag_123\n      jump\t// in\n    tag_152:\n        /* \"#utility.yul\":5115:5201   */\n      swap1\n      pop\n        /* \"#utility.yul\":5248:5257   */\n      dup2\n        /* \"#utility.yul\":5242:5246   */\n      dup2\n        /* \"#utility.yul\":5238:5258   */\n      sub\n        /* \"#utility.yul\":5233:5235   */\n      0x20\n        /* \"#utility.yul\":5222:5231   */\n      dup4\n        /* \"#utility.yul\":5218:5236   */\n      add\n        /* \"#utility.yul\":5211:5259   */\n      mstore\n        /* \"#utility.yul\":5276:5354   */\n      tag_153\n        /* \"#utility.yul\":5349:5353   */\n      dup2\n        /* \"#utility.yul\":5340:5346   */\n      dup6\n        /* \"#utility.yul\":5276:5354   */\n      tag_123\n      jump\t// in\n    tag_153:\n        /* \"#utility.yul\":5268:5354   */\n      swap1\n      pop\n        /* \"#utility.yul\":5364:5436   */\n      tag_154\n        /* \"#utility.yul\":5432:5434   */\n      0x40\n        /* \"#utility.yul\":5421:5430   */\n      dup4\n        /* \"#utility.yul\":5417:5435   */\n      add\n        /* \"#utility.yul\":5408:5414   */\n      dup5\n        /* \"#utility.yul\":5364:5436   */\n      tag_119\n      jump\t// in\n    tag_154:\n        /* \"#utility.yul\":4819:5443   */\n      swap5\n      swap4\n      pop\n      pop\n      pop\n      pop\n      jump\t// out\n        /* \"#utility.yul\":5449:5868   */\n    tag_32:\n        /* \"#utility.yul\":5615:5619   */\n      0x00\n        /* \"#utility.yul\":5653:5655   */\n      0x20\n        /* \"#utility.yul\":5642:5651   */\n      dup3\n        /* \"#utility.yul\":5638:5656   */\n      add\n        /* \"#utility.yul\":5630:5656   */\n      swap1\n      pop\n        /* \"#utility.yul\":5702:5711   */\n      dup2\n        /* \"#utility.yul\":5696:5700   */\n      dup2\n        /* \"#utility.yul\":5692:5712   */\n      sub\n        /* \"#utility.yul\":5688:5689   */\n      0x00\n        /* \"#utility.yul\":5677:5686   */\n      dup4\n        /* \"#utility.yul\":5673:5690   */\n      add\n        /* \"#utility.yul\":5666:5713   */\n      mstore\n        /* \"#utility.yul\":5730:5861   */\n      tag_156\n        /* \"#utility.yul\":5856:5860   */\n      dup2\n        /* \"#utility.yul\":5730:5861   */\n      tag_133\n      jump\t// in\n    tag_156:\n        /* \"#utility.yul\":5722:5861   */\n      swap1\n      pop\n        /* \"#utility.yul\":5449:5868   */\n      swap2\n      swap1\n      pop\n      jump\t// out\n        /* \"#utility.yul\":5874:6293   */\n    tag_51:\n        /* \"#utility.yul\":6040:6044   */\n      0x00\n        /* \"#utility.yul\":6078:6080   */\n      0x20\n        /* \"#utility.yul\":6067:6076   */\n      dup3\n        /* \"#utility.yul\":6063:6081   */\n      add\n        /* \"#utility.yul\":6055:6081   */\n      swap1\n      pop\n        /* \"#utility.yul\":6127:6136   */\n      dup2\n        /* \"#utility.yul\":6121:6125   */\n      dup2\n        /* \"#utility.yul\":6117:6137   */\n      sub\n        /* \"#utility.yul\":6113:6114   */\n      0x00\n        /* \"#utility.yul\":6102:6111   */\n      dup4\n        /* \"#utility.yul\":6098:6115   */\n      add\n        /* \"#utility.yul\":6091:6138   */\n      mstore\n        /* \"#utility.yul\":6155:6286   */\n      tag_158\n        /* \"#utility.yul\":6281:6285   */\n      dup2\n        /* \"#utility.yul\":6155:6286   */\n      tag_138\n      jump\t// in\n    tag_158:\n        /* \"#utility.yul\":6147:6286   */\n      swap1\n      pop\n        /* \"#utility.yul\":5874:6293   */\n      swap2\n      swap1\n      pop\n      jump\t// out\n        /* \"#utility.yul\":6299:6521   */\n    tag_11:\n        /* \"#utility.yul\":6392:6396   */\n      0x00\n        /* \"#utility.yul\":6430:6432   */\n      0x20\n        /* \"#utility.yul\":6419:6428   */\n      dup3\n        /* \"#utility.yul\":6415:6433   */\n      add\n        /* \"#utility.yul\":6407:6433   */\n      swap1\n      pop\n        /* \"#utility.yul\":6443:6514   */\n      tag_160\n        /* \"#utility.yul\":6511:6512   */\n      0x00\n        /* \"#utility.yul\":6500:6509   */\n      dup4\n        /* \"#utility.yul\":6496:6513   */\n      add\n        /* \"#utility.yul\":6487:6493   */\n      dup5\n        /* \"#utility.yul\":6443:6514   */\n      tag_143\n      jump\t// in\n    tag_160:\n        /* \"#utility.yul\":6299:6521   */\n      swap3\n      swap2\n      pop\n      pop\n      jump\t// out\n        /* \"#utility.yul\":6527:6656   */\n    tag_80:\n        /* \"#utility.yul\":6561:6567   */\n      0x00\n        /* \"#utility.yul\":6588:6608   */\n      tag_162\n      tag_163\n      jump\t// in\n    tag_162:\n        /* \"#utility.yul\":6578:6608   */\n      swap1\n      pop\n        /* \"#utility.yul\":6617:6650   */\n      tag_164\n        /* \"#utility.yul\":6645:6649   */\n      dup3\n        /* \"#utility.yul\":6637:6643   */\n      dup3\n        /* \"#utility.yul\":6617:6650   */\n      tag_165\n      jump\t// in\n    tag_164:\n        /* \"#utility.yul\":6527:6656   */\n      swap2\n      swap1\n      pop\n      jump\t// out\n        /* \"#utility.yul\":6662:6737   */\n    tag_163:\n        /* \"#utility.yul\":6695:6701   */\n      0x00\n        /* \"#utility.yul\":6728:6730   */\n      0x40\n        /* \"#utility.yul\":6722:6731   */\n      mload\n        /* \"#utility.yul\":6712:6731   */\n      swap1\n      pop\n        /* \"#utility.yul\":6662:6737   */\n      swap1\n      jump\t// out\n        /* \"#utility.yul\":6743:7051   */\n    tag_79:\n        /* \"#utility.yul\":6805:6809   */\n      0x00\n        /* \"#utility.yul\":6895:6913   */\n      0xffffffffffffffff\n        /* \"#utility.yul\":6887:6893   */\n      dup3\n        /* \"#utility.yul\":6884:6914   */\n      gt\n        /* \"#utility.yul\":6881:6937   */\n      iszero\n      tag_168\n      jumpi\n        /* \"#utility.yul\":6917:6935   */\n      tag_169\n      tag_170\n      jump\t// in\n    tag_169:\n        /* \"#utility.yul\":6881:6937   */\n    tag_168:\n        /* \"#utility.yul\":6955:6984   */\n      tag_171\n        /* \"#utility.yul\":6977:6983   */\n      dup3\n        /* \"#utility.yul\":6955:6984   */\n      tag_132\n      jump\t// in\n    tag_171:\n        /* \"#utility.yul\":6947:6984   */\n      swap1\n      pop\n        /* \"#utility.yul\":7039:7043   */\n      0x20\n        /* \"#utility.yul\":7033:7037   */\n      dup2\n        /* \"#utility.yul\":7029:7044   */\n      add\n        /* \"#utility.yul\":7021:7044   */\n      swap1\n      pop\n        /* \"#utility.yul\":6743:7051   */\n      swap2\n      swap1\n      pop\n      jump\t// out\n        /* \"#utility.yul\":7057:7156   */\n    tag_126:\n        /* \"#utility.yul\":7109:7115   */\n      0x00\n        /* \"#utility.yul\":7143:7148   */\n      dup2\n        /* \"#utility.yul\":7137:7149   */\n      mload\n        /* \"#utility.yul\":7127:7149   */\n      swap1\n      pop\n        /* \"#utility.yul\":7057:7156   */\n      swap2\n      swap1\n      pop\n      jump\t// out\n        /* \"#utility.yul\":7162:7331   */\n    tag_128:\n        /* \"#utility.yul\":7246:7257   */\n      0x00\n        /* \"#utility.yul\":7280:7286   */\n      dup3\n        /* \"#utility.yul\":7275:7278   */\n      dup3\n        /* \"#utility.yul\":7268:7287   */\n      mstore\n        /* \"#utility.yul\":7320:7324   */\n      0x20\n        /* \"#utility.yul\":7315:7318   */\n      dup3\n        /* \"#utility.yul\":7311:7325   */\n      add\n        /* \"#utility.yul\":7296:7325   */\n      swap1\n      pop\n        /* \"#utility.yul\":7162:7331   */\n      swap3\n      swap2\n      pop\n      pop\n      jump\t// out\n        /* \"#utility.yul\":7337:7642   */\n    tag_56:\n        /* \"#utility.yul\":7377:7380   */\n      0x00\n        /* \"#utility.yul\":7396:7416   */\n      tag_175\n        /* \"#utility.yul\":7414:7415   */\n      dup3\n        /* \"#utility.yul\":7396:7416   */\n      tag_146\n      jump\t// in\n    tag_175:\n        /* \"#utility.yul\":7391:7416   */\n      swap2\n      pop\n        /* \"#utility.yul\":7430:7450   */\n      tag_176\n        /* \"#utility.yul\":7448:7449   */\n      dup4\n        /* \"#utility.yul\":7430:7450   */\n      tag_146\n      jump\t// in\n    tag_176:\n        /* \"#utility.yul\":7425:7450   */\n      swap3\n      pop\n        /* \"#utility.yul\":7584:7585   */\n      dup3\n        /* \"#utility.yul\":7516:7582   */\n      0xffffffffffffffffffffffffffffffffffffffffffffffffffffffffffffffff\n        /* \"#utility.yul\":7512:7586   */\n      sub\n        /* \"#utility.yul\":7509:7510   */\n      dup3\n        /* \"#utility.yul\":7506:7587   */\n      gt\n        /* \"#utility.yul\":7503:7610   */\n      iszero\n      tag_177\n      jumpi\n        /* \"#utility.yul\":7590:7608   */\n      tag_178\n      tag_179\n      jump\t// in\n    tag_178:\n        /* \"#utility.yul\":7503:7610   */\n    tag_177:\n        /* \"#utility.yul\":7634:7635   */\n      dup3\n        /* \"#utility.yul\":7631:7632   */\n      dup3\n        /* \"#utility.yul\":7627:7636   */\n      add\n        /* \"#utility.yul\":7620:7636   */\n      swap1\n      pop\n        /* \"#utility.yul\":7337:7642   */\n      swap3\n      swap2\n      pop\n      pop\n      jump\t// out\n        /* \"#utility.yul\":7648:7839   */\n    tag_45:\n        /* \"#utility.yul\":7688:7692   */\n      0x00\n        /* \"#utility.yul\":7708:7728   */\n      tag_181\n        /* \"#utility.yul\":7726:7727   */\n      dup3\n        /* \"#utility.yul\":7708:7728   */\n      tag_146\n      jump\t// in\n    tag_181:\n        /* \"#utility.yul\":7703:7728   */\n      swap2\n      pop\n        /* \"#utility.yul\":7742:7762   */\n      tag_182\n        /* \"#utility.yul\":7760:7761   */\n      dup4\n        /* \"#utility.yul\":7742:7762   */\n      tag_146\n      jump\t// in\n    tag_182:\n        /* \"#utility.yul\":7737:7762   */\n      swap3\n      pop\n        /* \"#utility.yul\":7781:7782   */\n      dup3\n        /* \"#utility.yul\":7778:7779   */\n      dup3\n        /* \"#utility.yul\":7775:7783   */\n      lt\n        /* \"#utility.yul\":7772:7806   */\n      iszero\n      tag_183\n      jumpi\n        /* \"#utility.yul\":7786:7804   */\n      tag_184\n      tag_179\n      jump\t// in\n    tag_184:\n        /* \"#utility.yul\":7772:7806   */\n    tag_183:\n        /* \"#utility.yul\":7831:7832   */\n      dup3\n        /* \"#utility.yul\":7828:7829   */\n      dup3\n        /* \"#utility.yul\":7824:7833   */\n      sub\n        /* \"#utility.yul\":7816:7833   */\n      swap1\n      pop\n        /* \"#utility.yul\":7648:7839   */\n      swap3\n      swap2\n      pop\n      pop\n      jump\t// out\n        /* \"#utility.yul\":7845:7941   */\n    tag_122:\n        /* \"#utility.yul\":7882:7889   */\n      0x00\n        /* \"#utility.yul\":7911:7935   */\n      tag_186\n        /* \"#utility.yul\":7929:7934   */\n      dup3\n        /* \"#utility.yul\":7911:7935   */\n      tag_187\n      jump\t// in\n    tag_186:\n        /* \"#utility.yul\":7900:7935   */\n      swap1\n      pop\n        /* \"#utility.yul\":7845:7941   */\n      swap2\n      swap1\n      pop\n      jump\t// out\n        /* \"#utility.yul\":7947:8073   */\n    tag_187:\n        /* \"#utility.yul\":7984:7991   */\n      0x00\n        /* \"#utility.yul\":8024:8066   */\n      0xffffffffffffffffffffffffffffffffffffffff\n        /* \"#utility.yul\":8017:8022   */\n      dup3\n        /* \"#utility.yul\":8013:8067   */\n      and\n        /* \"#utility.yul\":8002:8067   */\n      swap1\n      pop\n        /* \"#utility.yul\":7947:8073   */\n      swap2\n      swap1\n      pop\n      jump\t// out\n        /* \"#utility.yul\":8079:8156   */\n    tag_146:\n        /* \"#utility.yul\":8116:8123   */\n      0x00\n        /* \"#utility.yul\":8145:8150   */\n      dup2\n        /* \"#utility.yul\":8134:8150   */\n      swap1\n      pop\n        /* \"#utility.yul\":8079:8156   */\n      swap2\n      swap1\n      pop\n      jump\t// out\n        /* \"#utility.yul\":8162:8316   */\n    tag_85:\n        /* \"#utility.yul\":8246:8252   */\n      dup3\n        /* \"#utility.yul\":8241:8244   */\n      dup2\n        /* \"#utility.yul\":8236:8239   */\n      dup4\n        /* \"#utility.yul\":8223:8253   */\n      calldatacopy\n        /* \"#utility.yul\":8308:8309   */\n      0x00\n        /* \"#utility.yul\":8299:8305   */\n      dup4\n        /* \"#utility.yul\":8294:8297   */\n      dup4\n        /* \"#utility.yul\":8290:8306   */\n      add\n        /* \"#utility.yul\":8283:8310   */\n      mstore\n        /* \"#utility.yul\":8162:8316   */\n      pop\n      pop\n      pop\n      jump\t// out\n        /* \"#utility.yul\":8322:8629   */\n    tag_130:\n        /* \"#utility.yul\":8390:8391   */\n      0x00\n        /* \"#utility.yul\":8400:8513   */\n    tag_192:\n        /* \"#utility.yul\":8414:8420   */\n      dup4\n        /* \"#utility.yul\":8411:8412   */\n      dup2\n        /* \"#utility.yul\":8408:8421   */\n      lt\n        /* \"#utility.yul\":8400:8513   */\n      iszero\n      tag_194\n      jumpi\n        /* \"#utility.yul\":8499:8500   */\n      dup1\n        /* \"#utility.yul\":8494:8497   */\n      dup3\n        /* \"#utility.yul\":8490:8501   */\n      add\n        /* \"#utility.yul\":8484:8502   */\n      mload\n        /* \"#utility.yul\":8480:8481   */\n      dup2\n        /* \"#utility.yul\":8475:8478   */\n      dup5\n        /* \"#utility.yul\":8471:8482   */\n      add\n        /* \"#utility.yul\":8464:8503   */\n      mstore\n        /* \"#utility.yul\":8436:8438   */\n      0x20\n        /* \"#utility.yul\":8433:8434   */\n      dup2\n        /* \"#utility.yul\":8429:8439   */\n      add\n        /* \"#utility.yul\":8424:8439   */\n      swap1\n      pop\n        /* \"#utility.yul\":8400:8513   */\n      jump(tag_192)\n    tag_194:\n        /* \"#utility.yul\":8531:8537   */\n      dup4\n        /* \"#utility.yul\":8528:8529   */\n      dup2\n        /* \"#utility.yul\":8525:8538   */\n      gt\n        /* \"#utility.yul\":8522:8623   */\n      iszero\n      tag_195\n      jumpi\n        /* \"#utility.yul\":8611:8612   */\n      0x00\n        /* \"#utility.yul\":8602:8608   */\n      dup5\n        /* \"#utility.yul\":8597:8600   */\n      dup5\n        /* \"#utility.yul\":8593:8609   */\n      add\n        /* \"#utility.yul\":8586:8613   */\n      mstore\n        /* \"#utility.yul\":8522:8623   */\n    tag_195:\n        /* \"#utility.yul\":8371:8629   */\n      pop\n        /* \"#utility.yul\":8322:8629   */\n      pop\n      pop\n      pop\n      jump\t// out\n        /* \"#utility.yul\":8635:8955   */\n    tag_35:\n        /* \"#utility.yul\":8679:8685   */\n      0x00\n        /* \"#utility.yul\":8716:8717   */\n      0x02\n        /* \"#utility.yul\":8710:8714   */\n      dup3\n        /* \"#utility.yul\":8706:8718   */\n      div\n        /* \"#utility.yul\":8696:8718   */\n      swap1\n      pop\n        /* \"#utility.yul\":8763:8764   */\n      0x01\n        /* \"#utility.yul\":8757:8761   */\n      dup3\n        /* \"#utility.yul\":8753:8765   */\n      and\n        /* \"#utility.yul\":8784:8802   */\n      dup1\n        /* \"#utility.yul\":8774:8855   */\n      tag_197\n      jumpi\n        /* \"#utility.yul\":8840:8844   */\n      0x7f\n        /* \"#utility.yul\":8832:8838   */\n      dup3\n        /* \"#utility.yul\":8828:8845   */\n      and\n        /* \"#utility.yul\":8818:8845   */\n      swap2\n      pop\n        /* \"#utility.yul\":8774:8855   */\n    tag_197:\n        /* \"#utility.yul\":8902:8904   */\n      0x20\n        /* \"#utility.yul\":8894:8900   */\n      dup3\n        /* \"#utility.yul\":8891:8905   */\n      lt\n        /* \"#utility.yul\":8871:8889   */\n      dup2\n        /* \"#utility.yul\":8868:8906   */\n      eq\n        /* \"#utility.yul\":8865:8949   */\n      iszero\n      tag_198\n      jumpi\n        /* \"#utility.yul\":8921:8939   */\n      tag_199\n      tag_200\n      jump\t// in\n    tag_199:\n        /* \"#utility.yul\":8865:8949   */\n    tag_198:\n        /* \"#utility.yul\":8686:8955   */\n      pop\n        /* \"#utility.yul\":8635:8955   */\n      swap2\n      swap1\n      pop\n      jump\t// out\n        /* \"#utility.yul\":8961:9242   */\n    tag_165:\n        /* \"#utility.yul\":9044:9071   */\n      tag_202\n        /* \"#utility.yul\":9066:9070   */\n      dup3\n        /* \"#utility.yul\":9044:9071   */\n      tag_132\n      jump\t// in\n    tag_202:\n        /* \"#utility.yul\":9036:9042   */\n      dup2\n        /* \"#utility.yul\":9032:9072   */\n      add\n        /* \"#utility.yul\":9174:9180   */\n      dup2\n        /* \"#utility.yul\":9162:9172   */\n      dup2\n        /* \"#utility.yul\":9159:9181   */\n      lt\n        /* \"#utility.yul\":9138:9156   */\n      0xffffffffffffffff\n        /* \"#utility.yul\":9126:9136   */\n      dup3\n        /* \"#utility.yul\":9123:9157   */\n      gt\n        /* \"#utility.yul\":9120:9182   */\n      or\n        /* \"#utility.yul\":9117:9205   */\n      iszero\n      tag_203\n      jumpi\n        /* \"#utility.yul\":9185:9203   */\n      tag_204\n      tag_170\n      jump\t// in\n    tag_204:\n        /* \"#utility.yul\":9117:9205   */\n    tag_203:\n        /* \"#utility.yul\":9225:9235   */\n      dup1\n        /* \"#utility.yul\":9221:9223   */\n      0x40\n        /* \"#utility.yul\":9214:9236   */\n      mstore\n        /* \"#utility.yul\":9004:9242   */\n      pop\n        /* \"#utility.yul\":8961:9242   */\n      pop\n      pop\n      jump\t// out\n        /* \"#utility.yul\":9248:9428   */\n    tag_179:\n        /* \"#utility.yul\":9296:9373   */\n      0x4e487b7100000000000000000000000000000000000000000000000000000000\n        /* \"#utility.yul\":9293:9294   */\n      0x00\n        /* \"#utility.yul\":9286:9374   */\n      mstore\n        /* \"#utility.yul\":9393:9397   */\n      0x11\n        /* \"#utility.yul\":9390:9391   */\n      0x04\n        /* \"#utility.yul\":9383:9398   */\n      mstore\n        /* \"#utility.yul\":9417:9421   */\n      0x24\n        /* \"#utility.yul\":9414:9415   */\n      0x00\n        /* \"#utility.yul\":9407:9422   */\n      revert\n        /* \"#utility.yul\":9434:9614   */\n    tag_200:\n        /* \"#utility.yul\":9482:9559   */\n      0x4e487b7100000000000000000000000000000000000000000000000000000000\n        /* \"#utility.yul\":9479:9480   */\n      0x00\n        /* \"#utility.yul\":9472:9560   */\n      mstore\n        /* \"#utility.yul\":9579:9583   */\n      0x22\n        /* \"#utility.yul\":9576:9577   */\n      0x04\n        /* \"#utility.yul\":9569:9584   */\n      mstore\n        /* \"#utility.yul\":9603:9607   */\n      0x24\n        /* \"#utility.yul\":9600:9601   */\n      0x00\n        /* \"#utility.yul\":9593:9608   */\n      revert\n        /* \"#utility.yul\":9620:9800   */\n    tag_170:\n        /* \"#utility.yul\":9668:9745   */\n      0x4e487b7100000000000000000000000000000000000000000000000000000000\n        /* \"#utility.yul\":9665:9666   */\n      0x00\n        /* \"#utility.yul\":9658:9746   */\n      mstore\n        /* \"#utility.yul\":9765:9769   */\n      0x41\n        /* \"#utility.yul\":9762:9763   */\n      0x04\n        /* \"#utility.yul\":9755:9770   */\n      mstore\n        /* \"#utility.yul\":9789:9793   */\n      0x24\n        /* \"#utility.yul\":9786:9787   */\n      0x00\n        /* \"#utility.yul\":9779:9794   */\n      revert\n        /* \"#utility.yul\":9806:9923   */\n    tag_94:\n        /* \"#utility.yul\":9915:9916   */\n      0x00\n        /* \"#utility.yul\":9912:9913   */\n      dup1\n        /* \"#utility.yul\":9905:9917   */\n      revert\n        /* \"#utility.yul\":9929:10046   */\n    tag_83:\n        /* \"#utility.yul\":10038:10039   */\n      0x00\n        /* \"#utility.yul\":10035:10036   */\n      dup1\n        /* \"#utility.yul\":10028:10040   */\n      revert\n        /* \"#utility.yul\":10052:10169   */\n    tag_106:\n        /* \"#utility.yul\":10161:10162   */\n      0x00\n        /* \"#utility.yul\":10158:10159   */\n      dup1\n        /* \"#utility.yul\":10151:10163   */\n      revert\n        /* \"#utility.yul\":10175:10292   */\n    tag_99:\n        /* \"#utility.yul\":10284:10285   */\n      0x00\n        /* \"#utility.yul\":10281:10282   */\n      dup1\n        /* \"#utility.yul\":10274:10286   */\n      revert\n        /* \"#utility.yul\":10298:10400   */\n    tag_132:\n        /* \"#utility.yul\":10339:10345   */\n      0x00\n        /* \"#utility.yul\":10390:10392   */\n      0x1f\n        /* \"#utility.yul\":10386:10393   */\n      not\n        /* \"#utility.yul\":10381:10383   */\n      0x1f\n        /* \"#utility.yul\":10374:10379   */\n      dup4\n        /* \"#utility.yul\":10370:10384   */\n      add\n        /* \"#utility.yul\":10366:10394   */\n      and\n        /* \"#utility.yul\":10356:10394   */\n      swap1\n      pop\n        /* \"#utility.yul\":10298:10400   */\n      swap2\n      swap1\n      pop\n      jump\t// out\n        /* \"#utility.yul\":10406:10578   */\n    tag_137:\n        /* \"#utility.yul\":10546:10570   */\n      0x50726f66696c6520646f6573206e6f7420657869737400000000000000000000\n        /* \"#utility.yul\":10542:10543   */\n      0x00\n        /* \"#utility.yul\":10534:10540   */\n      dup3\n        /* \"#utility.yul\":10530:10544   */\n      add\n        /* \"#utility.yul\":10523:10571   */\n      mstore\n        /* \"#utility.yul\":10406:10578   */\n      pop\n      jump\t// out\n        /* \"#utility.yul\":10584:10804   */\n    tag_142:\n        /* \"#utility.yul\":10724:10758   */\n      0x43616e6e6f7420637265617465206d6f7265207468616e20312070726f66696c\n        /* \"#utility.yul\":10720:10721   */\n      0x00\n        /* \"#utility.yul\":10712:10718   */\n      dup3\n        /* \"#utility.yul\":10708:10722   */\n      add\n        /* \"#utility.yul\":10701:10759   */\n      mstore\n        /* \"#utility.yul\":10793:10796   */\n      0x6500000000000000000000000000000000000000000000000000000000000000\n        /* \"#utility.yul\":10788:10790   */\n      0x20\n        /* \"#utility.yul\":10780:10786   */\n      dup3\n        /* \"#utility.yul\":10776:10791   */\n      add\n        /* \"#utility.yul\":10769:10797   */\n      mstore\n        /* \"#utility.yul\":10584:10804   */\n      pop\n      jump\t// out\n        /* \"#utility.yul\":10810:10932   */\n    tag_89:\n        /* \"#utility.yul\":10883:10907   */\n      tag_216\n        /* \"#utility.yul\":10901:10906   */\n      dup2\n        /* \"#utility.yul\":10883:10907   */\n      tag_122\n      jump\t// in\n    tag_216:\n        /* \"#utility.yul\":10876:10881   */\n      dup2\n        /* \"#utility.yul\":10873:10908   */\n      eq\n        /* \"#utility.yul\":10863:10926   */\n      tag_217\n      jumpi\n        /* \"#utility.yul\":10922:10923   */\n      0x00\n        /* \"#utility.yul\":10919:10920   */\n      dup1\n        /* \"#utility.yul\":10912:10924   */\n      revert\n        /* \"#utility.yul\":10863:10926   */\n    tag_217:\n        /* \"#utility.yul\":10810:10932   */\n      pop\n      jump\t// out\n\n    auxdata: 0xa2646970667358221220c1ac199276109ae0c1d88b0af4a9ef169459766de0a0b505fd8d95223402d81564736f6c63430008070033\n}\n",
				"bytecode": {
					"linkReferences": {},
					"object": "6080604052600060015534801561001557600080fd5b50610db3806100256000396000f3fe608060405234801561001057600080fd5b50600436106100575760003560e01c8063169134691461005c5780635fd4b08a1461007a578063a0441f29146100aa578063b3ed9b4c146100c6578063b94864eb146100e2575b600080fd5b6100646100fe565b6040516100719190610a44565b60405180910390f35b610094600480360381019061008f91906107d1565b610104565b6040516100a1919061099d565b60405180910390f35b6100c460048036038101906100bf91906107d1565b61026e565b005b6100e060048036038101906100db919061085a565b6103ad565b005b6100fc60048036038101906100f791906107fe565b6105b8565b005b60015481565b606081600115156000808373ffffffffffffffffffffffffffffffffffffffff1673ffffffffffffffffffffffffffffffffffffffff16815260200190815260200160002060020160149054906101000a900460ff1615151461019c576040517f08c379a000000000000000000000000000000000000000000000000000000000815260040161019390610a04565b60405180910390fd5b6000808473ffffffffffffffffffffffffffffffffffffffff1673ffffffffffffffffffffffffffffffffffffffff16815260200190815260200160002060000180546101e890610bd9565b80601f016020809104026020016040519081016040528092919081815260200182805461021490610bd9565b80156102615780601f1061023657610100808354040283529160200191610261565b820191906000526020600020905b81548152906001019060200180831161024457829003601f168201915b5050505050915050919050565b80600115156000808373ffffffffffffffffffffffffffffffffffffffff1673ffffffffffffffffffffffffffffffffffffffff16815260200190815260200160002060020160149054906101000a900460ff16151514610304576040517f08c379a00000000000000000000000000000000000000000000000000000000081526004016102fb90610a04565b60405180910390fd5b60008060008473ffffffffffffffffffffffffffffffffffffffff1673ffffffffffffffffffffffffffffffffffffffff16815260200190815260200160002060020160146101000a81548160ff0219169083151502179055506001805461036c9190610b27565b6001819055507fb3e28db4a27e0be6fecdbb889b7a847c4451545c8158cdec23f4fc29d6756d19826040516103a19190610982565b60405180910390a15050565b600015156000808373ffffffffffffffffffffffffffffffffffffffff1673ffffffffffffffffffffffffffffffffffffffff16815260200190815260200160002060020160149054906101000a900460ff16151514610442576040517f08c379a000000000000000000000000000000000000000000000000000000000815260040161043990610a24565b60405180910390fd5b600060405180608001604052808581526020018481526020018373ffffffffffffffffffffffffffffffffffffffff168152602001600115158152509050806000808473ffffffffffffffffffffffffffffffffffffffff1673ffffffffffffffffffffffffffffffffffffffff16815260200190815260200160002060008201518160000190805190602001906104db9291906106a9565b5060208201518160010190805190602001906104f89291906106a9565b5060408201518160020160006101000a81548173ffffffffffffffffffffffffffffffffffffffff021916908373ffffffffffffffffffffffffffffffffffffffff16021790555060608201518160020160146101000a81548160ff021916908315150217905550905050600180546105719190610ad1565b6001819055507fcf82d30a72e77f1c7cebadba88a1b7312a099c332d1efe8d0e9ea60736582fda8484846040516105aa939291906109bf565b60405180910390a150505050565b80600115156000808373ffffffffffffffffffffffffffffffffffffffff1673ffffffffffffffffffffffffffffffffffffffff16815260200190815260200160002060020160149054906101000a900460ff1615151461064e576040517f08c379a000000000000000000000000000000000000000000000000000000000815260040161064590610a04565b60405180910390fd5b826000808473ffffffffffffffffffffffffffffffffffffffff1673ffffffffffffffffffffffffffffffffffffffff16815260200190815260200160002060000190805190602001906106a39291906106a9565b50505050565b8280546106b590610bd9565b90600052602060002090601f0160209004810192826106d7576000855561071e565b82601f106106f057805160ff191683800117855561071e565b8280016001018555821561071e579182015b8281111561071d578251825591602001919060010190610702565b5b50905061072b919061072f565b5090565b5b80821115610748576000816000905550600101610730565b5090565b600061075f61075a84610a84565b610a5f565b90508281526020810184848401111561077b5761077a610cce565b5b610786848285610b97565b509392505050565b60008135905061079d81610d66565b92915050565b600082601f8301126107b8576107b7610cc9565b5b81356107c884826020860161074c565b91505092915050565b6000602082840312156107e7576107e6610cd8565b5b60006107f58482850161078e565b91505092915050565b6000806040838503121561081557610814610cd8565b5b600083013567ffffffffffffffff81111561083357610832610cd3565b5b61083f858286016107a3565b92505060206108508582860161078e565b9150509250929050565b60008060006060848603121561087357610872610cd8565b5b600084013567ffffffffffffffff81111561089157610890610cd3565b5b61089d868287016107a3565b935050602084013567ffffffffffffffff8111156108be576108bd610cd3565b5b6108ca868287016107a3565b92505060406108db8682870161078e565b9150509250925092565b6108ee81610b5b565b82525050565b60006108ff82610ab5565b6109098185610ac0565b9350610919818560208601610ba6565b61092281610cdd565b840191505092915050565b600061093a601683610ac0565b915061094582610cee565b602082019050919050565b600061095d602183610ac0565b915061096882610d17565b604082019050919050565b61097c81610b8d565b82525050565b600060208201905061099760008301846108e5565b92915050565b600060208201905081810360008301526109b781846108f4565b905092915050565b600060608201905081810360008301526109d981866108f4565b905081810360208301526109ed81856108f4565b90506109fc60408301846108e5565b949350505050565b60006020820190508181036000830152610a1d8161092d565b9050919050565b60006020820190508181036000830152610a3d81610950565b9050919050565b6000602082019050610a596000830184610973565b92915050565b6000610a69610a7a565b9050610a758282610c0b565b919050565b6000604051905090565b600067ffffffffffffffff821115610a9f57610a9e610c9a565b5b610aa882610cdd565b9050602081019050919050565b600081519050919050565b600082825260208201905092915050565b6000610adc82610b8d565b9150610ae783610b8d565b9250827fffffffffffffffffffffffffffffffffffffffffffffffffffffffffffffffff03821115610b1c57610b1b610c3c565b5b828201905092915050565b6000610b3282610b8d565b9150610b3d83610b8d565b925082821015610b5057610b4f610c3c565b5b828203905092915050565b6000610b6682610b6d565b9050919050565b600073ffffffffffffffffffffffffffffffffffffffff82169050919050565b6000819050919050565b82818337600083830152505050565b60005b83811015610bc4578082015181840152602081019050610ba9565b83811115610bd3576000848401525b50505050565b60006002820490506001821680610bf157607f821691505b60208210811415610c0557610c04610c6b565b5b50919050565b610c1482610cdd565b810181811067ffffffffffffffff82111715610c3357610c32610c9a565b5b80604052505050565b7f4e487b7100000000000000000000000000000000000000000000000000000000600052601160045260246000fd5b7f4e487b7100000000000000000000000000000000000000000000000000000000600052602260045260246000fd5b7f4e487b7100000000000000000000000000000000000000000000000000000000600052604160045260246000fd5b600080fd5b600080fd5b600080fd5b600080fd5b6000601f19601f8301169050919050565b7f50726f66696c6520646f6573206e6f7420657869737400000000000000000000600082015250565b7f43616e6e6f7420637265617465206d6f7265207468616e20312070726f66696c60008201527f6500000000000000000000000000000000000000000000000000000000000000602082015250565b610d6f81610b5b565b8114610d7a57600080fd5b5056fea2646970667358221220c1ac199276109ae0c1d88b0af4a9ef169459766de0a0b505fd8d95223402d81564736f6c63430008070033",
					"opcodes": "PUSH1 0x80 PUSH1 0x40 MSTORE PUSH1 0x0 PUSH1 0x1 SSTORE CALLVALUE DUP1 ISZERO PUSH2 0x15 JUMPI PUSH1 0x0 DUP1 REVERT JUMPDEST POP PUSH2 0xDB3 DUP1 PUSH2 0x25 PUSH1 0x0 CODECOPY PUSH1 0x0 RETURN INVALID PUSH1 0x80 PUSH1 0x40 MSTORE CALLVALUE DUP1 ISZERO PUSH2 0x10 JUMPI PUSH1 0x0 DUP1 REVERT JUMPDEST POP PUSH1 0x4 CALLDATASIZE LT PUSH2 0x57 JUMPI PUSH1 0x0 CALLDATALOAD PUSH1 0xE0 SHR DUP1 PUSH4 0x16913469 EQ PUSH2 0x5C JUMPI DUP1 PUSH4 0x5FD4B08A EQ PUSH2 0x7A JUMPI DUP1 PUSH4 0xA0441F29 EQ PUSH2 0xAA JUMPI DUP1 PUSH4 0xB3ED9B4C EQ PUSH2 0xC6 JUMPI DUP1 PUSH4 0xB94864EB EQ PUSH2 0xE2 JUMPI JUMPDEST PUSH1 0x0 DUP1 REVERT JUMPDEST PUSH2 0x64 PUSH2 0xFE JUMP JUMPDEST PUSH1 0x40 MLOAD PUSH2 0x71 SWAP2 SWAP1 PUSH2 0xA44 JUMP JUMPDEST PUSH1 0x40 MLOAD DUP1 SWAP2 SUB SWAP1 RETURN JUMPDEST PUSH2 0x94 PUSH1 0x4 DUP1 CALLDATASIZE SUB DUP2 ADD SWAP1 PUSH2 0x8F SWAP2 SWAP1 PUSH2 0x7D1 JUMP JUMPDEST PUSH2 0x104 JUMP JUMPDEST PUSH1 0x40 MLOAD PUSH2 0xA1 SWAP2 SWAP1 PUSH2 0x99D JUMP JUMPDEST PUSH1 0x40 MLOAD DUP1 SWAP2 SUB SWAP1 RETURN JUMPDEST PUSH2 0xC4 PUSH1 0x4 DUP1 CALLDATASIZE SUB DUP2 ADD SWAP1 PUSH2 0xBF SWAP2 SWAP1 PUSH2 0x7D1 JUMP JUMPDEST PUSH2 0x26E JUMP JUMPDEST STOP JUMPDEST PUSH2 0xE0 PUSH1 0x4 DUP1 CALLDATASIZE SUB DUP2 ADD SWAP1 PUSH2 0xDB SWAP2 SWAP1 PUSH2 0x85A JUMP JUMPDEST PUSH2 0x3AD JUMP JUMPDEST STOP JUMPDEST PUSH2 0xFC PUSH1 0x4 DUP1 CALLDATASIZE SUB DUP2 ADD SWAP1 PUSH2 0xF7 SWAP2 SWAP1 PUSH2 0x7FE JUMP JUMPDEST PUSH2 0x5B8 JUMP JUMPDEST STOP JUMPDEST PUSH1 0x1 SLOAD DUP2 JUMP JUMPDEST PUSH1 0x60 DUP2 PUSH1 0x1 ISZERO ISZERO PUSH1 0x0 DUP1 DUP4 PUSH20 0xFFFFFFFFFFFFFFFFFFFFFFFFFFFFFFFFFFFFFFFF AND PUSH20 0xFFFFFFFFFFFFFFFFFFFFFFFFFFFFFFFFFFFFFFFF AND DUP2 MSTORE PUSH1 0x20 ADD SWAP1 DUP2 MSTORE PUSH1 0x20 ADD PUSH1 0x0 KECCAK256 PUSH1 0x2 ADD PUSH1 0x14 SWAP1 SLOAD SWAP1 PUSH2 0x100 EXP SWAP1 DIV PUSH1 0xFF AND ISZERO ISZERO EQ PUSH2 0x19C JUMPI PUSH1 0x40 MLOAD PUSH32 0x8C379A000000000000000000000000000000000000000000000000000000000 DUP2 MSTORE PUSH1 0x4 ADD PUSH2 0x193 SWAP1 PUSH2 0xA04 JUMP JUMPDEST PUSH1 0x40 MLOAD DUP1 SWAP2 SUB SWAP1 REVERT JUMPDEST PUSH1 0x0 DUP1 DUP5 PUSH20 0xFFFFFFFFFFFFFFFFFFFFFFFFFFFFFFFFFFFFFFFF AND PUSH20 0xFFFFFFFFFFFFFFFFFFFFFFFFFFFFFFFFFFFFFFFF AND DUP2 MSTORE PUSH1 0x20 ADD SWAP1 DUP2 MSTORE PUSH1 0x20 ADD PUSH1 0x0 KECCAK256 PUSH1 0x0 ADD DUP1 SLOAD PUSH2 0x1E8 SWAP1 PUSH2 0xBD9 JUMP JUMPDEST DUP1 PUSH1 0x1F ADD PUSH1 0x20 DUP1 SWAP2 DIV MUL PUSH1 0x20 ADD PUSH1 0x40 MLOAD SWAP1 DUP2 ADD PUSH1 0x40 MSTORE DUP1 SWAP3 SWAP2 SWAP1 DUP2 DUP2 MSTORE PUSH1 0x20 ADD DUP3 DUP1 SLOAD PUSH2 0x214 SWAP1 PUSH2 0xBD9 JUMP JUMPDEST DUP1 ISZERO PUSH2 0x261 JUMPI DUP1 PUSH1 0x1F LT PUSH2 0x236 JUMPI PUSH2 0x100 DUP1 DUP4 SLOAD DIV MUL DUP4 MSTORE SWAP2 PUSH1 0x20 ADD SWAP2 PUSH2 0x261 JUMP JUMPDEST DUP3 ADD SWAP2 SWAP1 PUSH1 0x0 MSTORE PUSH1 0x20 PUSH1 0x0 KECCAK256 SWAP1 JUMPDEST DUP2 SLOAD DUP2 MSTORE SWAP1 PUSH1 0x1 ADD SWAP1 PUSH1 0x20 ADD DUP1 DUP4 GT PUSH2 0x244 JUMPI DUP3 SWAP1 SUB PUSH1 0x1F AND DUP3 ADD SWAP2 JUMPDEST POP POP POP POP POP SWAP2 POP POP SWAP2 SWAP1 POP JUMP JUMPDEST DUP1 PUSH1 0x1 ISZERO ISZERO PUSH1 0x0 DUP1 DUP4 PUSH20 0xFFFFFFFFFFFFFFFFFFFFFFFFFFFFFFFFFFFFFFFF AND PUSH20 0xFFFFFFFFFFFFFFFFFFFFFFFFFFFFFFFFFFFFFFFF AND DUP2 MSTORE PUSH1 0x20 ADD SWAP1 DUP2 MSTORE PUSH1 0x20 ADD PUSH1 0x0 KECCAK256 PUSH1 0x2 ADD PUSH1 0x14 SWAP1 SLOAD SWAP1 PUSH2 0x100 EXP SWAP1 DIV PUSH1 0xFF AND ISZERO ISZERO EQ PUSH2 0x304 JUMPI PUSH1 0x40 MLOAD PUSH32 0x8C379A000000000000000000000000000000000000000000000000000000000 DUP2 MSTORE PUSH1 0x4 ADD PUSH2 0x2FB SWAP1 PUSH2 0xA04 JUMP JUMPDEST PUSH1 0x40 MLOAD DUP1 SWAP2 SUB SWAP1 REVERT JUMPDEST PUSH1 0x0 DUP1 PUSH1 0x0 DUP5 PUSH20 0xFFFFFFFFFFFFFFFFFFFFFFFFFFFFFFFFFFFFFFFF AND PUSH20 0xFFFFFFFFFFFFFFFFFFFFFFFFFFFFFFFFFFFFFFFF AND DUP2 MSTORE PUSH1 0x20 ADD SWAP1 DUP2 MSTORE PUSH1 0x20 ADD PUSH1 0x0 KECCAK256 PUSH1 0x2 ADD PUSH1 0x14 PUSH2 0x100 EXP DUP2 SLOAD DUP2 PUSH1 0xFF MUL NOT AND SWAP1 DUP4 ISZERO ISZERO MUL OR SWAP1 SSTORE POP PUSH1 0x1 DUP1 SLOAD PUSH2 0x36C SWAP2 SWAP1 PUSH2 0xB27 JUMP JUMPDEST PUSH1 0x1 DUP2 SWAP1 SSTORE POP PUSH32 0xB3E28DB4A27E0BE6FECDBB889B7A847C4451545C8158CDEC23F4FC29D6756D19 DUP3 PUSH1 0x40 MLOAD PUSH2 0x3A1 SWAP2 SWAP1 PUSH2 0x982 JUMP JUMPDEST PUSH1 0x40 MLOAD DUP1 SWAP2 SUB SWAP1 LOG1 POP POP JUMP JUMPDEST PUSH1 0x0 ISZERO ISZERO PUSH1 0x0 DUP1 DUP4 PUSH20 0xFFFFFFFFFFFFFFFFFFFFFFFFFFFFFFFFFFFFFFFF AND PUSH20 0xFFFFFFFFFFFFFFFFFFFFFFFFFFFFFFFFFFFFFFFF AND DUP2 MSTORE PUSH1 0x20 ADD SWAP1 DUP2 MSTORE PUSH1 0x20 ADD PUSH1 0x0 KECCAK256 PUSH1 0x2 ADD PUSH1 0x14 SWAP1 SLOAD SWAP1 PUSH2 0x100 EXP SWAP1 DIV PUSH1 0xFF AND ISZERO ISZERO EQ PUSH2 0x442 JUMPI PUSH1 0x40 MLOAD PUSH32 0x8C379A000000000000000000000000000000000000000000000000000000000 DUP2 MSTORE PUSH1 0x4 ADD PUSH2 0x439 SWAP1 PUSH2 0xA24 JUMP JUMPDEST PUSH1 0x40 MLOAD DUP1 SWAP2 SUB SWAP1 REVERT JUMPDEST PUSH1 0x0 PUSH1 0x40 MLOAD DUP1 PUSH1 0x80 ADD PUSH1 0x40 MSTORE DUP1 DUP6 DUP2 MSTORE PUSH1 0x20 ADD DUP5 DUP2 MSTORE PUSH1 0x20 ADD DUP4 PUSH20 0xFFFFFFFFFFFFFFFFFFFFFFFFFFFFFFFFFFFFFFFF AND DUP2 MSTORE PUSH1 0x20 ADD PUSH1 0x1 ISZERO ISZERO DUP2 MSTORE POP SWAP1 POP DUP1 PUSH1 0x0 DUP1 DUP5 PUSH20 0xFFFFFFFFFFFFFFFFFFFFFFFFFFFFFFFFFFFFFFFF AND PUSH20 0xFFFFFFFFFFFFFFFFFFFFFFFFFFFFFFFFFFFFFFFF AND DUP2 MSTORE PUSH1 0x20 ADD SWAP1 DUP2 MSTORE PUSH1 0x20 ADD PUSH1 0x0 KECCAK256 PUSH1 0x0 DUP3 ADD MLOAD DUP2 PUSH1 0x0 ADD SWAP1 DUP1 MLOAD SWAP1 PUSH1 0x20 ADD SWAP1 PUSH2 0x4DB SWAP3 SWAP2 SWAP1 PUSH2 0x6A9 JUMP JUMPDEST POP PUSH1 0x20 DUP3 ADD MLOAD DUP2 PUSH1 0x1 ADD SWAP1 DUP1 MLOAD SWAP1 PUSH1 0x20 ADD SWAP1 PUSH2 0x4F8 SWAP3 SWAP2 SWAP1 PUSH2 0x6A9 JUMP JUMPDEST POP PUSH1 0x40 DUP3 ADD MLOAD DUP2 PUSH1 0x2 ADD PUSH1 0x0 PUSH2 0x100 EXP DUP2 SLOAD DUP2 PUSH20 0xFFFFFFFFFFFFFFFFFFFFFFFFFFFFFFFFFFFFFFFF MUL NOT AND SWAP1 DUP4 PUSH20 0xFFFFFFFFFFFFFFFFFFFFFFFFFFFFFFFFFFFFFFFF AND MUL OR SWAP1 SSTORE POP PUSH1 0x60 DUP3 ADD MLOAD DUP2 PUSH1 0x2 ADD PUSH1 0x14 PUSH2 0x100 EXP DUP2 SLOAD DUP2 PUSH1 0xFF MUL NOT AND SWAP1 DUP4 ISZERO ISZERO MUL OR SWAP1 SSTORE POP SWAP1 POP POP PUSH1 0x1 DUP1 SLOAD PUSH2 0x571 SWAP2 SWAP1 PUSH2 0xAD1 JUMP JUMPDEST PUSH1 0x1 DUP2 SWAP1 SSTORE POP PUSH32 0xCF82D30A72E77F1C7CEBADBA88A1B7312A099C332D1EFE8D0E9EA60736582FDA DUP5 DUP5 DUP5 PUSH1 0x40 MLOAD PUSH2 0x5AA SWAP4 SWAP3 SWAP2 SWAP1 PUSH2 0x9BF JUMP JUMPDEST PUSH1 0x40 MLOAD DUP1 SWAP2 SUB SWAP1 LOG1 POP POP POP POP JUMP JUMPDEST DUP1 PUSH1 0x1 ISZERO ISZERO PUSH1 0x0 DUP1 DUP4 PUSH20 0xFFFFFFFFFFFFFFFFFFFFFFFFFFFFFFFFFFFFFFFF AND PUSH20 0xFFFFFFFFFFFFFFFFFFFFFFFFFFFFFFFFFFFFFFFF AND DUP2 MSTORE PUSH1 0x20 ADD SWAP1 DUP2 MSTORE PUSH1 0x20 ADD PUSH1 0x0 KECCAK256 PUSH1 0x2 ADD PUSH1 0x14 SWAP1 SLOAD SWAP1 PUSH2 0x100 EXP SWAP1 DIV PUSH1 0xFF AND ISZERO ISZERO EQ PUSH2 0x64E JUMPI PUSH1 0x40 MLOAD PUSH32 0x8C379A000000000000000000000000000000000000000000000000000000000 DUP2 MSTORE PUSH1 0x4 ADD PUSH2 0x645 SWAP1 PUSH2 0xA04 JUMP JUMPDEST PUSH1 0x40 MLOAD DUP1 SWAP2 SUB SWAP1 REVERT JUMPDEST DUP3 PUSH1 0x0 DUP1 DUP5 PUSH20 0xFFFFFFFFFFFFFFFFFFFFFFFFFFFFFFFFFFFFFFFF AND PUSH20 0xFFFFFFFFFFFFFFFFFFFFFFFFFFFFFFFFFFFFFFFF AND DUP2 MSTORE PUSH1 0x20 ADD SWAP1 DUP2 MSTORE PUSH1 0x20 ADD PUSH1 0x0 KECCAK256 PUSH1 0x0 ADD SWAP1 DUP1 MLOAD SWAP1 PUSH1 0x20 ADD SWAP1 PUSH2 0x6A3 SWAP3 SWAP2 SWAP1 PUSH2 0x6A9 JUMP JUMPDEST POP POP POP POP JUMP JUMPDEST DUP3 DUP1 SLOAD PUSH2 0x6B5 SWAP1 PUSH2 0xBD9 JUMP JUMPDEST SWAP1 PUSH1 0x0 MSTORE PUSH1 0x20 PUSH1 0x0 KECCAK256 SWAP1 PUSH1 0x1F ADD PUSH1 0x20 SWAP1 DIV DUP2 ADD SWAP3 DUP3 PUSH2 0x6D7 JUMPI PUSH1 0x0 DUP6 SSTORE PUSH2 0x71E JUMP JUMPDEST DUP3 PUSH1 0x1F LT PUSH2 0x6F0 JUMPI DUP1 MLOAD PUSH1 0xFF NOT AND DUP4 DUP1 ADD OR DUP6 SSTORE PUSH2 0x71E JUMP JUMPDEST DUP3 DUP1 ADD PUSH1 0x1 ADD DUP6 SSTORE DUP3 ISZERO PUSH2 0x71E JUMPI SWAP2 DUP3 ADD JUMPDEST DUP3 DUP2 GT ISZERO PUSH2 0x71D JUMPI DUP3 MLOAD DUP3 SSTORE SWAP2 PUSH1 0x20 ADD SWAP2 SWAP1 PUSH1 0x1 ADD SWAP1 PUSH2 0x702 JUMP JUMPDEST JUMPDEST POP SWAP1 POP PUSH2 0x72B SWAP2 SWAP1 PUSH2 0x72F JUMP JUMPDEST POP SWAP1 JUMP JUMPDEST JUMPDEST DUP1 DUP3 GT ISZERO PUSH2 0x748 JUMPI PUSH1 0x0 DUP2 PUSH1 0x0 SWAP1 SSTORE POP PUSH1 0x1 ADD PUSH2 0x730 JUMP JUMPDEST POP SWAP1 JUMP JUMPDEST PUSH1 0x0 PUSH2 0x75F PUSH2 0x75A DUP5 PUSH2 0xA84 JUMP JUMPDEST PUSH2 0xA5F JUMP JUMPDEST SWAP1 POP DUP3 DUP2 MSTORE PUSH1 0x20 DUP2 ADD DUP5 DUP5 DUP5 ADD GT ISZERO PUSH2 0x77B JUMPI PUSH2 0x77A PUSH2 0xCCE JUMP JUMPDEST JUMPDEST PUSH2 0x786 DUP5 DUP3 DUP6 PUSH2 0xB97 JUMP JUMPDEST POP SWAP4 SWAP3 POP POP POP JUMP JUMPDEST PUSH1 0x0 DUP2 CALLDATALOAD SWAP1 POP PUSH2 0x79D DUP2 PUSH2 0xD66 JUMP JUMPDEST SWAP3 SWAP2 POP POP JUMP JUMPDEST PUSH1 0x0 DUP3 PUSH1 0x1F DUP4 ADD SLT PUSH2 0x7B8 JUMPI PUSH2 0x7B7 PUSH2 0xCC9 JUMP JUMPDEST JUMPDEST DUP2 CALLDATALOAD PUSH2 0x7C8 DUP5 DUP3 PUSH1 0x20 DUP7 ADD PUSH2 0x74C JUMP JUMPDEST SWAP2 POP POP SWAP3 SWAP2 POP POP JUMP JUMPDEST PUSH1 0x0 PUSH1 0x20 DUP3 DUP5 SUB SLT ISZERO PUSH2 0x7E7 JUMPI PUSH2 0x7E6 PUSH2 0xCD8 JUMP JUMPDEST JUMPDEST PUSH1 0x0 PUSH2 0x7F5 DUP5 DUP3 DUP6 ADD PUSH2 0x78E JUMP JUMPDEST SWAP2 POP POP SWAP3 SWAP2 POP POP JUMP JUMPDEST PUSH1 0x0 DUP1 PUSH1 0x40 DUP4 DUP6 SUB SLT ISZERO PUSH2 0x815 JUMPI PUSH2 0x814 PUSH2 0xCD8 JUMP JUMPDEST JUMPDEST PUSH1 0x0 DUP4 ADD CALLDATALOAD PUSH8 0xFFFFFFFFFFFFFFFF DUP2 GT ISZERO PUSH2 0x833 JUMPI PUSH2 0x832 PUSH2 0xCD3 JUMP JUMPDEST JUMPDEST PUSH2 0x83F DUP6 DUP3 DUP7 ADD PUSH2 0x7A3 JUMP JUMPDEST SWAP3 POP POP PUSH1 0x20 PUSH2 0x850 DUP6 DUP3 DUP7 ADD PUSH2 0x78E JUMP JUMPDEST SWAP2 POP POP SWAP3 POP SWAP3 SWAP1 POP JUMP JUMPDEST PUSH1 0x0 DUP1 PUSH1 0x0 PUSH1 0x60 DUP5 DUP7 SUB SLT ISZERO PUSH2 0x873 JUMPI PUSH2 0x872 PUSH2 0xCD8 JUMP JUMPDEST JUMPDEST PUSH1 0x0 DUP5 ADD CALLDATALOAD PUSH8 0xFFFFFFFFFFFFFFFF DUP2 GT ISZERO PUSH2 0x891 JUMPI PUSH2 0x890 PUSH2 0xCD3 JUMP JUMPDEST JUMPDEST PUSH2 0x89D DUP7 DUP3 DUP8 ADD PUSH2 0x7A3 JUMP JUMPDEST SWAP4 POP POP PUSH1 0x20 DUP5 ADD CALLDATALOAD PUSH8 0xFFFFFFFFFFFFFFFF DUP2 GT ISZERO PUSH2 0x8BE JUMPI PUSH2 0x8BD PUSH2 0xCD3 JUMP JUMPDEST JUMPDEST PUSH2 0x8CA DUP7 DUP3 DUP8 ADD PUSH2 0x7A3 JUMP JUMPDEST SWAP3 POP POP PUSH1 0x40 PUSH2 0x8DB DUP7 DUP3 DUP8 ADD PUSH2 0x78E JUMP JUMPDEST SWAP2 POP POP SWAP3 POP SWAP3 POP SWAP3 JUMP JUMPDEST PUSH2 0x8EE DUP2 PUSH2 0xB5B JUMP JUMPDEST DUP3 MSTORE POP POP JUMP JUMPDEST PUSH1 0x0 PUSH2 0x8FF DUP3 PUSH2 0xAB5 JUMP JUMPDEST PUSH2 0x909 DUP2 DUP6 PUSH2 0xAC0 JUMP JUMPDEST SWAP4 POP PUSH2 0x919 DUP2 DUP6 PUSH1 0x20 DUP7 ADD PUSH2 0xBA6 JUMP JUMPDEST PUSH2 0x922 DUP2 PUSH2 0xCDD JUMP JUMPDEST DUP5 ADD SWAP2 POP POP SWAP3 SWAP2 POP POP JUMP JUMPDEST PUSH1 0x0 PUSH2 0x93A PUSH1 0x16 DUP4 PUSH2 0xAC0 JUMP JUMPDEST SWAP2 POP PUSH2 0x945 DUP3 PUSH2 0xCEE JUMP JUMPDEST PUSH1 0x20 DUP3 ADD SWAP1 POP SWAP2 SWAP1 POP JUMP JUMPDEST PUSH1 0x0 PUSH2 0x95D PUSH1 0x21 DUP4 PUSH2 0xAC0 JUMP JUMPDEST SWAP2 POP PUSH2 0x968 DUP3 PUSH2 0xD17 JUMP JUMPDEST PUSH1 0x40 DUP3 ADD SWAP1 POP SWAP2 SWAP1 POP JUMP JUMPDEST PUSH2 0x97C DUP2 PUSH2 0xB8D JUMP JUMPDEST DUP3 MSTORE POP POP JUMP JUMPDEST PUSH1 0x0 PUSH1 0x20 DUP3 ADD SWAP1 POP PUSH2 0x997 PUSH1 0x0 DUP4 ADD DUP5 PUSH2 0x8E5 JUMP JUMPDEST SWAP3 SWAP2 POP POP JUMP JUMPDEST PUSH1 0x0 PUSH1 0x20 DUP3 ADD SWAP1 POP DUP2 DUP2 SUB PUSH1 0x0 DUP4 ADD MSTORE PUSH2 0x9B7 DUP2 DUP5 PUSH2 0x8F4 JUMP JUMPDEST SWAP1 POP SWAP3 SWAP2 POP POP JUMP JUMPDEST PUSH1 0x0 PUSH1 0x60 DUP3 ADD SWAP1 POP DUP2 DUP2 SUB PUSH1 0x0 DUP4 ADD MSTORE PUSH2 0x9D9 DUP2 DUP7 PUSH2 0x8F4 JUMP JUMPDEST SWAP1 POP DUP2 DUP2 SUB PUSH1 0x20 DUP4 ADD MSTORE PUSH2 0x9ED DUP2 DUP6 PUSH2 0x8F4 JUMP JUMPDEST SWAP1 POP PUSH2 0x9FC PUSH1 0x40 DUP4 ADD DUP5 PUSH2 0x8E5 JUMP JUMPDEST SWAP5 SWAP4 POP POP POP POP JUMP JUMPDEST PUSH1 0x0 PUSH1 0x20 DUP3 ADD SWAP1 POP DUP2 DUP2 SUB PUSH1 0x0 DUP4 ADD MSTORE PUSH2 0xA1D DUP2 PUSH2 0x92D JUMP JUMPDEST SWAP1 POP SWAP2 SWAP1 POP JUMP JUMPDEST PUSH1 0x0 PUSH1 0x20 DUP3 ADD SWAP1 POP DUP2 DUP2 SUB PUSH1 0x0 DUP4 ADD MSTORE PUSH2 0xA3D DUP2 PUSH2 0x950 JUMP JUMPDEST SWAP1 POP SWAP2 SWAP1 POP JUMP JUMPDEST PUSH1 0x0 PUSH1 0x20 DUP3 ADD SWAP1 POP PUSH2 0xA59 PUSH1 0x0 DUP4 ADD DUP5 PUSH2 0x973 JUMP JUMPDEST SWAP3 SWAP2 POP POP JUMP JUMPDEST PUSH1 0x0 PUSH2 0xA69 PUSH2 0xA7A JUMP JUMPDEST SWAP1 POP PUSH2 0xA75 DUP3 DUP3 PUSH2 0xC0B JUMP JUMPDEST SWAP2 SWAP1 POP JUMP JUMPDEST PUSH1 0x0 PUSH1 0x40 MLOAD SWAP1 POP SWAP1 JUMP JUMPDEST PUSH1 0x0 PUSH8 0xFFFFFFFFFFFFFFFF DUP3 GT ISZERO PUSH2 0xA9F JUMPI PUSH2 0xA9E PUSH2 0xC9A JUMP JUMPDEST JUMPDEST PUSH2 0xAA8 DUP3 PUSH2 0xCDD JUMP JUMPDEST SWAP1 POP PUSH1 0x20 DUP2 ADD SWAP1 POP SWAP2 SWAP1 POP JUMP JUMPDEST PUSH1 0x0 DUP2 MLOAD SWAP1 POP SWAP2 SWAP1 POP JUMP JUMPDEST PUSH1 0x0 DUP3 DUP3 MSTORE PUSH1 0x20 DUP3 ADD SWAP1 POP SWAP3 SWAP2 POP POP JUMP JUMPDEST PUSH1 0x0 PUSH2 0xADC DUP3 PUSH2 0xB8D JUMP JUMPDEST SWAP2 POP PUSH2 0xAE7 DUP4 PUSH2 0xB8D JUMP JUMPDEST SWAP3 POP DUP3 PUSH32 0xFFFFFFFFFFFFFFFFFFFFFFFFFFFFFFFFFFFFFFFFFFFFFFFFFFFFFFFFFFFFFFFF SUB DUP3 GT ISZERO PUSH2 0xB1C JUMPI PUSH2 0xB1B PUSH2 0xC3C JUMP JUMPDEST JUMPDEST DUP3 DUP3 ADD SWAP1 POP SWAP3 SWAP2 POP POP JUMP JUMPDEST PUSH1 0x0 PUSH2 0xB32 DUP3 PUSH2 0xB8D JUMP JUMPDEST SWAP2 POP PUSH2 0xB3D DUP4 PUSH2 0xB8D JUMP JUMPDEST SWAP3 POP DUP3 DUP3 LT ISZERO PUSH2 0xB50 JUMPI PUSH2 0xB4F PUSH2 0xC3C JUMP JUMPDEST JUMPDEST DUP3 DUP3 SUB SWAP1 POP SWAP3 SWAP2 POP POP JUMP JUMPDEST PUSH1 0x0 PUSH2 0xB66 DUP3 PUSH2 0xB6D JUMP JUMPDEST SWAP1 POP SWAP2 SWAP1 POP JUMP JUMPDEST PUSH1 0x0 PUSH20 0xFFFFFFFFFFFFFFFFFFFFFFFFFFFFFFFFFFFFFFFF DUP3 AND SWAP1 POP SWAP2 SWAP1 POP JUMP JUMPDEST PUSH1 0x0 DUP2 SWAP1 POP SWAP2 SWAP1 POP JUMP JUMPDEST DUP3 DUP2 DUP4 CALLDATACOPY PUSH1 0x0 DUP4 DUP4 ADD MSTORE POP POP POP JUMP JUMPDEST PUSH1 0x0 JUMPDEST DUP4 DUP2 LT ISZERO PUSH2 0xBC4 JUMPI DUP1 DUP3 ADD MLOAD DUP2 DUP5 ADD MSTORE PUSH1 0x20 DUP2 ADD SWAP1 POP PUSH2 0xBA9 JUMP JUMPDEST DUP4 DUP2 GT ISZERO PUSH2 0xBD3 JUMPI PUSH1 0x0 DUP5 DUP5 ADD MSTORE JUMPDEST POP POP POP POP JUMP JUMPDEST PUSH1 0x0 PUSH1 0x2 DUP3 DIV SWAP1 POP PUSH1 0x1 DUP3 AND DUP1 PUSH2 0xBF1 JUMPI PUSH1 0x7F DUP3 AND SWAP2 POP JUMPDEST PUSH1 0x20 DUP3 LT DUP2 EQ ISZERO PUSH2 0xC05 JUMPI PUSH2 0xC04 PUSH2 0xC6B JUMP JUMPDEST JUMPDEST POP SWAP2 SWAP1 POP JUMP JUMPDEST PUSH2 0xC14 DUP3 PUSH2 0xCDD JUMP JUMPDEST DUP2 ADD DUP2 DUP2 LT PUSH8 0xFFFFFFFFFFFFFFFF DUP3 GT OR ISZERO PUSH2 0xC33 JUMPI PUSH2 0xC32 PUSH2 0xC9A JUMP JUMPDEST JUMPDEST DUP1 PUSH1 0x40 MSTORE POP POP POP JUMP JUMPDEST PUSH32 0x4E487B7100000000000000000000000000000000000000000000000000000000 PUSH1 0x0 MSTORE PUSH1 0x11 PUSH1 0x4 MSTORE PUSH1 0x24 PUSH1 0x0 REVERT JUMPDEST PUSH32 0x4E487B7100000000000000000000000000000000000000000000000000000000 PUSH1 0x0 MSTORE PUSH1 0x22 PUSH1 0x4 MSTORE PUSH1 0x24 PUSH1 0x0 REVERT JUMPDEST PUSH32 0x4E487B7100000000000000000000000000000000000000000000000000000000 PUSH1 0x0 MSTORE PUSH1 0x41 PUSH1 0x4 MSTORE PUSH1 0x24 PUSH1 0x0 REVERT JUMPDEST PUSH1 0x0 DUP1 REVERT JUMPDEST PUSH1 0x0 DUP1 REVERT JUMPDEST PUSH1 0x0 DUP1 REVERT JUMPDEST PUSH1 0x0 DUP1 REVERT JUMPDEST PUSH1 0x0 PUSH1 0x1F NOT PUSH1 0x1F DUP4 ADD AND SWAP1 POP SWAP2 SWAP1 POP JUMP JUMPDEST PUSH32 0x50726F66696C6520646F6573206E6F7420657869737400000000000000000000 PUSH1 0x0 DUP3 ADD MSTORE POP JUMP JUMPDEST PUSH32 0x43616E6E6F7420637265617465206D6F7265207468616E20312070726F66696C PUSH1 0x0 DUP3 ADD MSTORE PUSH32 0x6500000000000000000000000000000000000000000000000000000000000000 PUSH1 0x20 DUP3 ADD MSTORE POP JUMP JUMPDEST PUSH2 0xD6F DUP2 PUSH2 0xB5B JUMP JUMPDEST DUP2 EQ PUSH2 0xD7A JUMPI PUSH1 0x0 DUP1 REVERT JUMPDEST POP JUMP INVALID LOG2 PUSH5 0x6970667358 0x22 SLT KECCAK256 0xC1 0xAC NOT SWAP3 PUSH23 0x109AE0C1D88B0AF4A9EF169459766DE0A0B505FD8D9522 CALLVALUE MUL 0xD8 ISZERO PUSH5 0x736F6C6343 STOP ADDMOD SMOD STOP CALLER "
				},
				"gasEstimates": {
					"creation": {
						"codeDepositCost": "701400",
						"executionCost": "5740",
						"totalCost": "707140"
					},
					"external": {
						"createProfile(string,string,address)": "infinite",
						"deleteProfile(address)": "infinite",
						"getName(address)": "infinite",
						"numProfile()": "2407",
						"updateProfileName(string,address)": "infinite"
					}
				},
				"methodIdentifiers": {
					"createProfile(string,string,address)": "b3ed9b4c",
					"deleteProfile(address)": "a0441f29",
					"getName(address)": "5fd4b08a",
					"numProfile()": "16913469",
					"updateProfileName(string,address)": "b94864eb"
				}
			},
			"userdoc": {
				"kind": "user",
				"methods": {},
				"version": 1
			}
		}
	}
}