{
	"contracts/Profile.sol": {
		"Profile": {
			"abi": [
				{
					"anonymous": false,
					"inputs": [
						{
							"indexed": false,
							"internalType": "string",
							"name": "name",
							"type": "string"
						},
						{
							"indexed": false,
							"internalType": "string",
							"name": "password",
							"type": "string"
						},
						{
							"indexed": false,
							"internalType": "address",
							"name": "owner",
							"type": "address"
						}
					],
					"name": "profileCreated",
					"type": "event"
				},
				{
					"anonymous": false,
					"inputs": [
						{
							"indexed": false,
							"internalType": "address",
							"name": "owner",
							"type": "address"
						}
					],
					"name": "profileDeleted",
					"type": "event"
				},
				{
					"anonymous": false,
					"inputs": [
						{
							"indexed": false,
							"internalType": "address",
							"name": "owner",
							"type": "address"
						}
					],
					"name": "profileUpdat",
					"type": "event"
				},
				{
					"inputs": [
						{
							"internalType": "string",
							"name": "name",
							"type": "string"
						},
						{
							"internalType": "string",
							"name": "password",
							"type": "string"
						},
						{
							"internalType": "address",
							"name": "owner",
							"type": "address"
						}
					],
					"name": "createProfile",
					"outputs": [],
					"stateMutability": "nonpayable",
					"type": "function"
				},
				{
					"inputs": [
						{
							"internalType": "address",
							"name": "owner",
							"type": "address"
						}
					],
					"name": "deleteProfile",
					"outputs": [],
					"stateMutability": "nonpayable",
					"type": "function"
				},
				{
					"inputs": [
						{
							"internalType": "address",
							"name": "owner",
							"type": "address"
						}
					],
					"name": "getName",
					"outputs": [
						{
							"internalType": "string",
							"name": "",
							"type": "string"
						}
					],
					"stateMutability": "view",
					"type": "function"
				},
				{
					"inputs": [],
					"name": "numProfile",
					"outputs": [
						{
							"internalType": "uint256",
							"name": "",
							"type": "uint256"
						}
					],
					"stateMutability": "view",
					"type": "function"
				},
				{
					"inputs": [
						{
							"internalType": "string",
							"name": "newName",
							"type": "string"
						},
						{
							"internalType": "string",
							"name": "password",
							"type": "string"
						},
						{
							"internalType": "address",
							"name": "owner",
							"type": "address"
						}
					],
					"name": "updateProfileName",
					"outputs": [],
					"stateMutability": "nonpayable",
					"type": "function"
				}
			],
			"devdoc": {
				"kind": "dev",
				"methods": {},
				"version": 1
			},
			"evm": {
				"assembly": "    /* \"contracts/Profile.sol\":152:1982  contract Profile {... */\n  mstore(0x40, 0x80)\n    /* \"contracts/Profile.sol\":618:619  0 */\n  0x00\n    /* \"contracts/Profile.sol\":590:619  uint256 public numProfile = 0 */\n  0x01\n  sstore\n    /* \"contracts/Profile.sol\":152:1982  contract Profile {... */\n  callvalue\n  dup1\n  iszero\n  tag_1\n  jumpi\n  0x00\n  dup1\n  revert\ntag_1:\n  pop\n  dataSize(sub_0)\n  dup1\n  dataOffset(sub_0)\n  0x00\n  codecopy\n  0x00\n  return\nstop\n\nsub_0: assembly {\n        /* \"contracts/Profile.sol\":152:1982  contract Profile {... */\n      mstore(0x40, 0x80)\n      callvalue\n      dup1\n      iszero\n      tag_1\n      jumpi\n      0x00\n      dup1\n      revert\n    tag_1:\n      pop\n      jumpi(tag_2, lt(calldatasize, 0x04))\n      shr(0xe0, calldataload(0x00))\n      dup1\n      0x16913469\n      eq\n      tag_3\n      jumpi\n      dup1\n      0x5fd4b08a\n      eq\n      tag_4\n      jumpi\n      dup1\n      0xa0441f29\n      eq\n      tag_5\n      jumpi\n      dup1\n      0xb3ed9b4c\n      eq\n      tag_6\n      jumpi\n      dup1\n      0xb69471e7\n      eq\n      tag_7\n      jumpi\n    tag_2:\n      0x00\n      dup1\n      revert\n        /* \"contracts/Profile.sol\":590:619  uint256 public numProfile = 0 */\n    tag_3:\n      tag_8\n      tag_9\n      jump\t// in\n    tag_8:\n      mload(0x40)\n      tag_10\n      swap2\n      swap1\n      tag_11\n      jump\t// in\n    tag_10:\n      mload(0x40)\n      dup1\n      swap2\n      sub\n      swap1\n      return\n        /* \"contracts/Profile.sol\":1840:1979  function getName(address owner) external validProfile (owner) view returns ( string memory) {... */\n    tag_4:\n      tag_12\n      0x04\n      dup1\n      calldatasize\n      sub\n      dup2\n      add\n      swap1\n      tag_13\n      swap2\n      swap1\n      tag_14\n      jump\t// in\n    tag_13:\n      tag_15\n      jump\t// in\n    tag_12:\n      mload(0x40)\n      tag_16\n      swap2\n      swap1\n      tag_17\n      jump\t// in\n    tag_16:\n      mload(0x40)\n      dup1\n      swap2\n      sub\n      swap1\n      return\n        /* \"contracts/Profile.sol\":1302:1510  function deleteProfile(address owner) external validProfile (owner) {... */\n    tag_5:\n      tag_18\n      0x04\n      dup1\n      calldatasize\n      sub\n      dup2\n      add\n      swap1\n      tag_19\n      swap2\n      swap1\n      tag_14\n      jump\t// in\n    tag_19:\n      tag_20\n      jump\t// in\n    tag_18:\n      stop\n        /* \"contracts/Profile.sol\":863:1255  function createProfile(string memory name, string memory password, address owner)  external {... */\n    tag_6:\n      tag_21\n      0x04\n      dup1\n      calldatasize\n      sub\n      dup2\n      add\n      swap1\n      tag_22\n      swap2\n      swap1\n      tag_23\n      jump\t// in\n    tag_22:\n      tag_24\n      jump\t// in\n    tag_21:\n      stop\n        /* \"contracts/Profile.sol\":1557:1776  function updateProfileName(string memory newName, string memory password,address owner) external validProfile (owner) {... */\n    tag_7:\n      tag_25\n      0x04\n      dup1\n      calldatasize\n      sub\n      dup2\n      add\n      swap1\n      tag_26\n      swap2\n      swap1\n      tag_23\n      jump\t// in\n    tag_26:\n      tag_27\n      jump\t// in\n    tag_25:\n      stop\n        /* \"contracts/Profile.sol\":590:619  uint256 public numProfile = 0 */\n    tag_9:\n      sload(0x01)\n      dup2\n      jump\t// out\n        /* \"contracts/Profile.sol\":1840:1979  function getName(address owner) external validProfile (owner) view returns ( string memory) {... */\n    tag_15:\n        /* \"contracts/Profile.sol\":1917:1930  string memory */\n      0x60\n        /* \"contracts/Profile.sol\":1895:1900  owner */\n      dup2\n        /* \"contracts/Profile.sol\":768:772  true */\n      0x01\n        /* \"contracts/Profile.sol\":738:772  profileList[owner].created == true */\n      iszero\n      iszero\n        /* \"contracts/Profile.sol\":738:749  profileList */\n      0x00\n        /* \"contracts/Profile.sol\":738:756  profileList[owner] */\n      dup1\n        /* \"contracts/Profile.sol\":750:755  owner */\n      dup4\n        /* \"contracts/Profile.sol\":738:756  profileList[owner] */\n      0xffffffffffffffffffffffffffffffffffffffff\n      and\n      0xffffffffffffffffffffffffffffffffffffffff\n      and\n      dup2\n      mstore\n      0x20\n      add\n      swap1\n      dup2\n      mstore\n      0x20\n      add\n      0x00\n      keccak256\n        /* \"contracts/Profile.sol\":738:764  profileList[owner].created */\n      0x02\n      add\n      0x14\n      swap1\n      sload\n      swap1\n      0x0100\n      exp\n      swap1\n      div\n      0xff\n      and\n        /* \"contracts/Profile.sol\":738:772  profileList[owner].created == true */\n      iszero\n      iszero\n      eq\n        /* \"contracts/Profile.sol\":730:799  require(profileList[owner].created == true, \"Profile does not exist\") */\n      tag_29\n      jumpi\n      mload(0x40)\n      0x08c379a000000000000000000000000000000000000000000000000000000000\n      dup2\n      mstore\n      0x04\n      add\n      tag_30\n      swap1\n      tag_31\n      jump\t// in\n    tag_30:\n      mload(0x40)\n      dup1\n      swap2\n      sub\n      swap1\n      revert\n    tag_29:\n        /* \"contracts/Profile.sol\":1949:1960  profileList */\n      0x00\n        /* \"contracts/Profile.sol\":1949:1967  profileList[owner] */\n      dup1\n        /* \"contracts/Profile.sol\":1961:1966  owner */\n      dup5\n        /* \"contracts/Profile.sol\":1949:1967  profileList[owner] */\n      0xffffffffffffffffffffffffffffffffffffffff\n      and\n      0xffffffffffffffffffffffffffffffffffffffff\n      and\n      dup2\n      mstore\n      0x20\n      add\n      swap1\n      dup2\n      mstore\n      0x20\n      add\n      0x00\n      keccak256\n        /* \"contracts/Profile.sol\":1949:1972  profileList[owner].name */\n      0x00\n      add\n        /* \"contracts/Profile.sol\":1942:1972  return profileList[owner].name */\n      dup1\n      sload\n      tag_33\n      swap1\n      tag_34\n      jump\t// in\n    tag_33:\n      dup1\n      0x1f\n      add\n      0x20\n      dup1\n      swap2\n      div\n      mul\n      0x20\n      add\n      mload(0x40)\n      swap1\n      dup2\n      add\n      0x40\n      mstore\n      dup1\n      swap3\n      swap2\n      swap1\n      dup2\n      dup2\n      mstore\n      0x20\n      add\n      dup3\n      dup1\n      sload\n      tag_35\n      swap1\n      tag_34\n      jump\t// in\n    tag_35:\n      dup1\n      iszero\n      tag_36\n      jumpi\n      dup1\n      0x1f\n      lt\n      tag_37\n      jumpi\n      0x0100\n      dup1\n      dup4\n      sload\n      div\n      mul\n      dup4\n      mstore\n      swap2\n      0x20\n      add\n      swap2\n      jump(tag_36)\n    tag_37:\n      dup3\n      add\n      swap2\n      swap1\n      0x00\n      mstore\n      keccak256(0x00, 0x20)\n      swap1\n    tag_38:\n      dup2\n      sload\n      dup2\n      mstore\n      swap1\n      0x01\n      add\n      swap1\n      0x20\n      add\n      dup1\n      dup4\n      gt\n      tag_38\n      jumpi\n      dup3\n      swap1\n      sub\n      0x1f\n      and\n      dup3\n      add\n      swap2\n    tag_36:\n      pop\n      pop\n      pop\n      pop\n      pop\n      swap2\n      pop\n        /* \"contracts/Profile.sol\":1840:1979  function getName(address owner) external validProfile (owner) view returns ( string memory) {... */\n      pop\n      swap2\n      swap1\n      pop\n      jump\t// out\n        /* \"contracts/Profile.sol\":1302:1510  function deleteProfile(address owner) external validProfile (owner) {... */\n    tag_20:\n        /* \"contracts/Profile.sol\":1363:1368  owner */\n      dup1\n        /* \"contracts/Profile.sol\":768:772  true */\n      0x01\n        /* \"contracts/Profile.sol\":738:772  profileList[owner].created == true */\n      iszero\n      iszero\n        /* \"contracts/Profile.sol\":738:749  profileList */\n      0x00\n        /* \"contracts/Profile.sol\":738:756  profileList[owner] */\n      dup1\n        /* \"contracts/Profile.sol\":750:755  owner */\n      dup4\n        /* \"contracts/Profile.sol\":738:756  profileList[owner] */\n      0xffffffffffffffffffffffffffffffffffffffff\n      and\n      0xffffffffffffffffffffffffffffffffffffffff\n      and\n      dup2\n      mstore\n      0x20\n      add\n      swap1\n      dup2\n      mstore\n      0x20\n      add\n      0x00\n      keccak256\n        /* \"contracts/Profile.sol\":738:764  profileList[owner].created */\n      0x02\n      add\n      0x14\n      swap1\n      sload\n      swap1\n      0x0100\n      exp\n      swap1\n      div\n      0xff\n      and\n        /* \"contracts/Profile.sol\":738:772  profileList[owner].created == true */\n      iszero\n      iszero\n      eq\n        /* \"contracts/Profile.sol\":730:799  require(profileList[owner].created == true, \"Profile does not exist\") */\n      tag_40\n      jumpi\n      mload(0x40)\n      0x08c379a000000000000000000000000000000000000000000000000000000000\n      dup2\n      mstore\n      0x04\n      add\n      tag_41\n      swap1\n      tag_31\n      jump\t// in\n    tag_41:\n      mload(0x40)\n      dup1\n      swap2\n      sub\n      swap1\n      revert\n    tag_40:\n        /* \"contracts/Profile.sol\":1409:1414  false */\n      0x00\n        /* \"contracts/Profile.sol\":1380:1391  profileList */\n      dup1\n        /* \"contracts/Profile.sol\":1380:1398  profileList[owner] */\n      0x00\n        /* \"contracts/Profile.sol\":1392:1397  owner */\n      dup5\n        /* \"contracts/Profile.sol\":1380:1398  profileList[owner] */\n      0xffffffffffffffffffffffffffffffffffffffff\n      and\n      0xffffffffffffffffffffffffffffffffffffffff\n      and\n      dup2\n      mstore\n      0x20\n      add\n      swap1\n      dup2\n      mstore\n      0x20\n      add\n      0x00\n      keccak256\n        /* \"contracts/Profile.sol\":1380:1406  profileList[owner].created */\n      0x02\n      add\n      0x14\n        /* \"contracts/Profile.sol\":1380:1414  profileList[owner].created = false */\n      0x0100\n      exp\n      dup2\n      sload\n      dup2\n      0xff\n      mul\n      not\n      and\n      swap1\n      dup4\n      iszero\n      iszero\n      mul\n      or\n      swap1\n      sstore\n      pop\n        /* \"contracts/Profile.sol\":1465:1466  1 */\n      0x01\n        /* \"contracts/Profile.sol\":1452:1462  numProfile */\n      dup1\n      sload\n        /* \"contracts/Profile.sol\":1452:1466  numProfile - 1 */\n      tag_43\n      swap2\n      swap1\n      tag_44\n      jump\t// in\n    tag_43:\n        /* \"contracts/Profile.sol\":1439:1449  numProfile */\n      0x01\n        /* \"contracts/Profile.sol\":1439:1466  numProfile = numProfile - 1 */\n      dup2\n      swap1\n      sstore\n      pop\n        /* \"contracts/Profile.sol\":1482:1503  profileDeleted(owner) */\n      0xb3e28db4a27e0be6fecdbb889b7a847c4451545c8158cdec23f4fc29d6756d19\n        /* \"contracts/Profile.sol\":1497:1502  owner */\n      dup3\n        /* \"contracts/Profile.sol\":1482:1503  profileDeleted(owner) */\n      mload(0x40)\n      tag_45\n      swap2\n      swap1\n      tag_46\n      jump\t// in\n    tag_45:\n      mload(0x40)\n      dup1\n      swap2\n      sub\n      swap1\n      log1\n        /* \"contracts/Profile.sol\":1302:1510  function deleteProfile(address owner) external validProfile (owner) {... */\n      pop\n      pop\n      jump\t// out\n        /* \"contracts/Profile.sol\":863:1255  function createProfile(string memory name, string memory password, address owner)  external {... */\n    tag_24:\n        /* \"contracts/Profile.sol\":1003:1008  false */\n      0x00\n        /* \"contracts/Profile.sol\":973:1008  profileList[owner].created == false */\n      iszero\n      iszero\n        /* \"contracts/Profile.sol\":973:984  profileList */\n      0x00\n        /* \"contracts/Profile.sol\":973:991  profileList[owner] */\n      dup1\n        /* \"contracts/Profile.sol\":985:990  owner */\n      dup4\n        /* \"contracts/Profile.sol\":973:991  profileList[owner] */\n      0xffffffffffffffffffffffffffffffffffffffff\n      and\n      0xffffffffffffffffffffffffffffffffffffffff\n      and\n      dup2\n      mstore\n      0x20\n      add\n      swap1\n      dup2\n      mstore\n      0x20\n      add\n      0x00\n      keccak256\n        /* \"contracts/Profile.sol\":973:999  profileList[owner].created */\n      0x02\n      add\n      0x14\n      swap1\n      sload\n      swap1\n      0x0100\n      exp\n      swap1\n      div\n      0xff\n      and\n        /* \"contracts/Profile.sol\":973:1008  profileList[owner].created == false */\n      iszero\n      iszero\n      eq\n        /* \"contracts/Profile.sol\":965:1046  require(profileList[owner].created == false, \"Cannot create more than 1 profile\") */\n      tag_48\n      jumpi\n      mload(0x40)\n      0x08c379a000000000000000000000000000000000000000000000000000000000\n      dup2\n      mstore\n      0x04\n      add\n      tag_49\n      swap1\n      tag_50\n      jump\t// in\n    tag_49:\n      mload(0x40)\n      dup1\n      swap2\n      sub\n      swap1\n      revert\n    tag_48:\n        /* \"contracts/Profile.sol\":1056:1081  profile memory newProfile */\n      0x00\n        /* \"contracts/Profile.sol\":1084:1117  profile(name,password,owner,true) */\n      mload(0x40)\n      dup1\n      0x80\n      add\n      0x40\n      mstore\n      dup1\n        /* \"contracts/Profile.sol\":1092:1096  name */\n      dup6\n        /* \"contracts/Profile.sol\":1084:1117  profile(name,password,owner,true) */\n      dup2\n      mstore\n      0x20\n      add\n        /* \"contracts/Profile.sol\":1097:1105  password */\n      dup5\n        /* \"contracts/Profile.sol\":1084:1117  profile(name,password,owner,true) */\n      dup2\n      mstore\n      0x20\n      add\n        /* \"contracts/Profile.sol\":1106:1111  owner */\n      dup4\n        /* \"contracts/Profile.sol\":1084:1117  profile(name,password,owner,true) */\n      0xffffffffffffffffffffffffffffffffffffffff\n      and\n      dup2\n      mstore\n      0x20\n      add\n        /* \"contracts/Profile.sol\":1112:1116  true */\n      0x01\n        /* \"contracts/Profile.sol\":1084:1117  profile(name,password,owner,true) */\n      iszero\n      iszero\n      dup2\n      mstore\n      pop\n        /* \"contracts/Profile.sol\":1056:1117  profile memory newProfile = profile(name,password,owner,true) */\n      swap1\n      pop\n        /* \"contracts/Profile.sol\":1148:1158  newProfile */\n      dup1\n        /* \"contracts/Profile.sol\":1127:1138  profileList */\n      0x00\n        /* \"contracts/Profile.sol\":1127:1145  profileList[owner] */\n      dup1\n        /* \"contracts/Profile.sol\":1139:1144  owner */\n      dup5\n        /* \"contracts/Profile.sol\":1127:1145  profileList[owner] */\n      0xffffffffffffffffffffffffffffffffffffffff\n      and\n      0xffffffffffffffffffffffffffffffffffffffff\n      and\n      dup2\n      mstore\n      0x20\n      add\n      swap1\n      dup2\n      mstore\n      0x20\n      add\n      0x00\n      keccak256\n        /* \"contracts/Profile.sol\":1127:1158  profileList[owner] = newProfile */\n      0x00\n      dup3\n      add\n      mload\n      dup2\n      0x00\n      add\n      swap1\n      dup1\n      mload\n      swap1\n      0x20\n      add\n      swap1\n      tag_51\n      swap3\n      swap2\n      swap1\n      tag_52\n      jump\t// in\n    tag_51:\n      pop\n      0x20\n      dup3\n      add\n      mload\n      dup2\n      0x01\n      add\n      swap1\n      dup1\n      mload\n      swap1\n      0x20\n      add\n      swap1\n      tag_53\n      swap3\n      swap2\n      swap1\n      tag_52\n      jump\t// in\n    tag_53:\n      pop\n      0x40\n      dup3\n      add\n      mload\n      dup2\n      0x02\n      add\n      exp(0x0100, 0x00)\n      dup2\n      sload\n      dup2\n      0xffffffffffffffffffffffffffffffffffffffff\n      mul\n      not\n      and\n      swap1\n      dup4\n      0xffffffffffffffffffffffffffffffffffffffff\n      and\n      mul\n      or\n      swap1\n      sstore\n      pop\n      0x60\n      dup3\n      add\n      mload\n      dup2\n      0x02\n      add\n      exp(0x0100, 0x14)\n      dup2\n      sload\n      dup2\n      0xff\n      mul\n      not\n      and\n      swap1\n      dup4\n      iszero\n      iszero\n      mul\n      or\n      swap1\n      sstore\n      pop\n      swap1\n      pop\n      pop\n        /* \"contracts/Profile.sol\":1194:1195  1 */\n      0x01\n        /* \"contracts/Profile.sol\":1181:1191  numProfile */\n      dup1\n      sload\n        /* \"contracts/Profile.sol\":1181:1195  numProfile + 1 */\n      tag_54\n      swap2\n      swap1\n      tag_55\n      jump\t// in\n    tag_54:\n        /* \"contracts/Profile.sol\":1168:1178  numProfile */\n      0x01\n        /* \"contracts/Profile.sol\":1168:1195  numProfile = numProfile + 1 */\n      dup2\n      swap1\n      sstore\n      pop\n        /* \"contracts/Profile.sol\":1210:1248  profileCreated( name, password, owner) */\n      0xcf82d30a72e77f1c7cebadba88a1b7312a099c332d1efe8d0e9ea60736582fda\n        /* \"contracts/Profile.sol\":1226:1230  name */\n      dup5\n        /* \"contracts/Profile.sol\":1232:1240  password */\n      dup5\n        /* \"contracts/Profile.sol\":1242:1247  owner */\n      dup5\n        /* \"contracts/Profile.sol\":1210:1248  profileCreated( name, password, owner) */\n      mload(0x40)\n      tag_56\n      swap4\n      swap3\n      swap2\n      swap1\n      tag_57\n      jump\t// in\n    tag_56:\n      mload(0x40)\n      dup1\n      swap2\n      sub\n      swap1\n      log1\n        /* \"contracts/Profile.sol\":955:1255  {... */\n      pop\n        /* \"contracts/Profile.sol\":863:1255  function createProfile(string memory name, string memory password, address owner)  external {... */\n      pop\n      pop\n      pop\n      jump\t// out\n        /* \"contracts/Profile.sol\":1557:1776  function updateProfileName(string memory newName, string memory password,address owner) external validProfile (owner) {... */\n    tag_27:\n        /* \"contracts/Profile.sol\":1668:1673  owner */\n      dup1\n        /* \"contracts/Profile.sol\":768:772  true */\n      0x01\n        /* \"contracts/Profile.sol\":738:772  profileList[owner].created == true */\n      iszero\n      iszero\n        /* \"contracts/Profile.sol\":738:749  profileList */\n      0x00\n        /* \"contracts/Profile.sol\":738:756  profileList[owner] */\n      dup1\n        /* \"contracts/Profile.sol\":750:755  owner */\n      dup4\n        /* \"contracts/Profile.sol\":738:756  profileList[owner] */\n      0xffffffffffffffffffffffffffffffffffffffff\n      and\n      0xffffffffffffffffffffffffffffffffffffffff\n      and\n      dup2\n      mstore\n      0x20\n      add\n      swap1\n      dup2\n      mstore\n      0x20\n      add\n      0x00\n      keccak256\n        /* \"contracts/Profile.sol\":738:764  profileList[owner].created */\n      0x02\n      add\n      0x14\n      swap1\n      sload\n      swap1\n      0x0100\n      exp\n      swap1\n      div\n      0xff\n      and\n        /* \"contracts/Profile.sol\":738:772  profileList[owner].created == true */\n      iszero\n      iszero\n      eq\n        /* \"contracts/Profile.sol\":730:799  require(profileList[owner].created == true, \"Profile does not exist\") */\n      tag_59\n      jumpi\n      mload(0x40)\n      0x08c379a000000000000000000000000000000000000000000000000000000000\n      dup2\n      mstore\n      0x04\n      add\n      tag_60\n      swap1\n      tag_31\n      jump\t// in\n    tag_60:\n      mload(0x40)\n      dup1\n      swap2\n      sub\n      swap1\n      revert\n    tag_59:\n        /* \"contracts/Profile.sol\":1711:1718  newName */\n      dup4\n        /* \"contracts/Profile.sol\":1685:1696  profileList */\n      0x00\n        /* \"contracts/Profile.sol\":1685:1703  profileList[owner] */\n      dup1\n        /* \"contracts/Profile.sol\":1697:1702  owner */\n      dup5\n        /* \"contracts/Profile.sol\":1685:1703  profileList[owner] */\n      0xffffffffffffffffffffffffffffffffffffffff\n      and\n      0xffffffffffffffffffffffffffffffffffffffff\n      and\n      dup2\n      mstore\n      0x20\n      add\n      swap1\n      dup2\n      mstore\n      0x20\n      add\n      0x00\n      keccak256\n        /* \"contracts/Profile.sol\":1685:1708  profileList[owner].name */\n      0x00\n      add\n        /* \"contracts/Profile.sol\":1685:1718  profileList[owner].name = newName */\n      swap1\n      dup1\n      mload\n      swap1\n      0x20\n      add\n      swap1\n      tag_62\n      swap3\n      swap2\n      swap1\n      tag_52\n      jump\t// in\n    tag_62:\n      pop\n        /* \"contracts/Profile.sol\":1759:1767  password */\n      dup3\n        /* \"contracts/Profile.sol\":1729:1740  profileList */\n      0x00\n        /* \"contracts/Profile.sol\":1729:1747  profileList[owner] */\n      dup1\n        /* \"contracts/Profile.sol\":1741:1746  owner */\n      dup5\n        /* \"contracts/Profile.sol\":1729:1747  profileList[owner] */\n      0xffffffffffffffffffffffffffffffffffffffff\n      and\n      0xffffffffffffffffffffffffffffffffffffffff\n      and\n      dup2\n      mstore\n      0x20\n      add\n      swap1\n      dup2\n      mstore\n      0x20\n      add\n      0x00\n      keccak256\n        /* \"contracts/Profile.sol\":1729:1756  profileList[owner].password */\n      0x01\n      add\n        /* \"contracts/Profile.sol\":1729:1767  profileList[owner].password = password */\n      swap1\n      dup1\n      mload\n      swap1\n      0x20\n      add\n      swap1\n      tag_63\n      swap3\n      swap2\n      swap1\n      tag_52\n      jump\t// in\n    tag_63:\n      pop\n        /* \"contracts/Profile.sol\":1557:1776  function updateProfileName(string memory newName, string memory password,address owner) external validProfile (owner) {... */\n      pop\n      pop\n      pop\n      pop\n      jump\t// out\n    tag_52:\n      dup3\n      dup1\n      sload\n      tag_64\n      swap1\n      tag_34\n      jump\t// in\n    tag_64:\n      swap1\n      0x00\n      mstore\n      keccak256(0x00, 0x20)\n      swap1\n      0x1f\n      add\n      0x20\n      swap1\n      div\n      dup2\n      add\n      swap3\n      dup3\n      tag_66\n      jumpi\n      0x00\n      dup6\n      sstore\n      jump(tag_65)\n    tag_66:\n      dup3\n      0x1f\n      lt\n      tag_67\n      jumpi\n      dup1\n      mload\n      not(0xff)\n      and\n      dup4\n      dup1\n      add\n      or\n      dup6\n      sstore\n      jump(tag_65)\n    tag_67:\n      dup3\n      dup1\n      add\n      0x01\n      add\n      dup6\n      sstore\n      dup3\n      iszero\n      tag_65\n      jumpi\n      swap2\n      dup3\n      add\n    tag_68:\n      dup3\n      dup2\n      gt\n      iszero\n      tag_69\n      jumpi\n      dup3\n      mload\n      dup3\n      sstore\n      swap2\n      0x20\n      add\n      swap2\n      swap1\n      0x01\n      add\n      swap1\n      jump(tag_68)\n    tag_69:\n    tag_65:\n      pop\n      swap1\n      pop\n      tag_70\n      swap2\n      swap1\n      tag_71\n      jump\t// in\n    tag_70:\n      pop\n      swap1\n      jump\t// out\n    tag_71:\n    tag_72:\n      dup1\n      dup3\n      gt\n      iszero\n      tag_73\n      jumpi\n      0x00\n      dup2\n      0x00\n      swap1\n      sstore\n      pop\n      0x01\n      add\n      jump(tag_72)\n    tag_73:\n      pop\n      swap1\n      jump\t// out\n        /* \"#utility.yul\":7:419   */\n    tag_75:\n        /* \"#utility.yul\":85:90   */\n      0x00\n        /* \"#utility.yul\":110:176   */\n      tag_77\n        /* \"#utility.yul\":126:175   */\n      tag_78\n        /* \"#utility.yul\":168:174   */\n      dup5\n        /* \"#utility.yul\":126:175   */\n      tag_79\n      jump\t// in\n    tag_78:\n        /* \"#utility.yul\":110:176   */\n      tag_80\n      jump\t// in\n    tag_77:\n        /* \"#utility.yul\":101:176   */\n      swap1\n      pop\n        /* \"#utility.yul\":199:205   */\n      dup3\n        /* \"#utility.yul\":192:197   */\n      dup2\n        /* \"#utility.yul\":185:206   */\n      mstore\n        /* \"#utility.yul\":237:241   */\n      0x20\n        /* \"#utility.yul\":230:235   */\n      dup2\n        /* \"#utility.yul\":226:242   */\n      add\n        /* \"#utility.yul\":275:278   */\n      dup5\n        /* \"#utility.yul\":266:272   */\n      dup5\n        /* \"#utility.yul\":261:264   */\n      dup5\n        /* \"#utility.yul\":257:273   */\n      add\n        /* \"#utility.yul\":254:279   */\n      gt\n        /* \"#utility.yul\":251:363   */\n      iszero\n      tag_81\n      jumpi\n        /* \"#utility.yul\":282:361   */\n      tag_82\n      tag_83\n      jump\t// in\n    tag_82:\n        /* \"#utility.yul\":251:363   */\n    tag_81:\n        /* \"#utility.yul\":372:413   */\n      tag_84\n        /* \"#utility.yul\":406:412   */\n      dup5\n        /* \"#utility.yul\":401:404   */\n      dup3\n        /* \"#utility.yul\":396:399   */\n      dup6\n        /* \"#utility.yul\":372:413   */\n      tag_85\n      jump\t// in\n    tag_84:\n        /* \"#utility.yul\":91:419   */\n      pop\n        /* \"#utility.yul\":7:419   */\n      swap4\n      swap3\n      pop\n      pop\n      pop\n      jump\t// out\n        /* \"#utility.yul\":425:564   */\n    tag_86:\n        /* \"#utility.yul\":471:476   */\n      0x00\n        /* \"#utility.yul\":509:515   */\n      dup2\n        /* \"#utility.yul\":496:516   */\n      calldataload\n        /* \"#utility.yul\":487:516   */\n      swap1\n      pop\n        /* \"#utility.yul\":525:558   */\n      tag_88\n        /* \"#utility.yul\":552:557   */\n      dup2\n        /* \"#utility.yul\":525:558   */\n      tag_89\n      jump\t// in\n    tag_88:\n        /* \"#utility.yul\":425:564   */\n      swap3\n      swap2\n      pop\n      pop\n      jump\t// out\n        /* \"#utility.yul\":584:924   */\n    tag_90:\n        /* \"#utility.yul\":640:645   */\n      0x00\n        /* \"#utility.yul\":689:692   */\n      dup3\n        /* \"#utility.yul\":682:686   */\n      0x1f\n        /* \"#utility.yul\":674:680   */\n      dup4\n        /* \"#utility.yul\":670:687   */\n      add\n        /* \"#utility.yul\":666:693   */\n      slt\n        /* \"#utility.yul\":656:778   */\n      tag_92\n      jumpi\n        /* \"#utility.yul\":697:776   */\n      tag_93\n      tag_94\n      jump\t// in\n    tag_93:\n        /* \"#utility.yul\":656:778   */\n    tag_92:\n        /* \"#utility.yul\":814:820   */\n      dup2\n        /* \"#utility.yul\":801:821   */\n      calldataload\n        /* \"#utility.yul\":839:918   */\n      tag_95\n        /* \"#utility.yul\":914:917   */\n      dup5\n        /* \"#utility.yul\":906:912   */\n      dup3\n        /* \"#utility.yul\":899:903   */\n      0x20\n        /* \"#utility.yul\":891:897   */\n      dup7\n        /* \"#utility.yul\":887:904   */\n      add\n        /* \"#utility.yul\":839:918   */\n      tag_75\n      jump\t// in\n    tag_95:\n        /* \"#utility.yul\":830:918   */\n      swap2\n      pop\n        /* \"#utility.yul\":646:924   */\n      pop\n        /* \"#utility.yul\":584:924   */\n      swap3\n      swap2\n      pop\n      pop\n      jump\t// out\n        /* \"#utility.yul\":930:1259   */\n    tag_14:\n        /* \"#utility.yul\":989:995   */\n      0x00\n        /* \"#utility.yul\":1038:1040   */\n      0x20\n        /* \"#utility.yul\":1026:1035   */\n      dup3\n        /* \"#utility.yul\":1017:1024   */\n      dup5\n        /* \"#utility.yul\":1013:1036   */\n      sub\n        /* \"#utility.yul\":1009:1041   */\n      slt\n        /* \"#utility.yul\":1006:1125   */\n      iszero\n      tag_97\n      jumpi\n        /* \"#utility.yul\":1044:1123   */\n      tag_98\n      tag_99\n      jump\t// in\n    tag_98:\n        /* \"#utility.yul\":1006:1125   */\n    tag_97:\n        /* \"#utility.yul\":1164:1165   */\n      0x00\n        /* \"#utility.yul\":1189:1242   */\n      tag_100\n        /* \"#utility.yul\":1234:1241   */\n      dup5\n        /* \"#utility.yul\":1225:1231   */\n      dup3\n        /* \"#utility.yul\":1214:1223   */\n      dup6\n        /* \"#utility.yul\":1210:1232   */\n      add\n        /* \"#utility.yul\":1189:1242   */\n      tag_86\n      jump\t// in\n    tag_100:\n        /* \"#utility.yul\":1179:1242   */\n      swap2\n      pop\n        /* \"#utility.yul\":1135:1252   */\n      pop\n        /* \"#utility.yul\":930:1259   */\n      swap3\n      swap2\n      pop\n      pop\n      jump\t// out\n        /* \"#utility.yul\":1265:2244   */\n    tag_23:\n        /* \"#utility.yul\":1362:1368   */\n      0x00\n        /* \"#utility.yul\":1370:1376   */\n      dup1\n        /* \"#utility.yul\":1378:1384   */\n      0x00\n        /* \"#utility.yul\":1427:1429   */\n      0x60\n        /* \"#utility.yul\":1415:1424   */\n      dup5\n        /* \"#utility.yul\":1406:1413   */\n      dup7\n        /* \"#utility.yul\":1402:1425   */\n      sub\n        /* \"#utility.yul\":1398:1430   */\n      slt\n        /* \"#utility.yul\":1395:1514   */\n      iszero\n      tag_102\n      jumpi\n        /* \"#utility.yul\":1433:1512   */\n      tag_103\n      tag_99\n      jump\t// in\n    tag_103:\n        /* \"#utility.yul\":1395:1514   */\n    tag_102:\n        /* \"#utility.yul\":1581:1582   */\n      0x00\n        /* \"#utility.yul\":1570:1579   */\n      dup5\n        /* \"#utility.yul\":1566:1583   */\n      add\n        /* \"#utility.yul\":1553:1584   */\n      calldataload\n        /* \"#utility.yul\":1611:1629   */\n      0xffffffffffffffff\n        /* \"#utility.yul\":1603:1609   */\n      dup2\n        /* \"#utility.yul\":1600:1630   */\n      gt\n        /* \"#utility.yul\":1597:1714   */\n      iszero\n      tag_104\n      jumpi\n        /* \"#utility.yul\":1633:1712   */\n      tag_105\n      tag_106\n      jump\t// in\n    tag_105:\n        /* \"#utility.yul\":1597:1714   */\n    tag_104:\n        /* \"#utility.yul\":1738:1801   */\n      tag_107\n        /* \"#utility.yul\":1793:1800   */\n      dup7\n        /* \"#utility.yul\":1784:1790   */\n      dup3\n        /* \"#utility.yul\":1773:1782   */\n      dup8\n        /* \"#utility.yul\":1769:1791   */\n      add\n        /* \"#utility.yul\":1738:1801   */\n      tag_90\n      jump\t// in\n    tag_107:\n        /* \"#utility.yul\":1728:1801   */\n      swap4\n      pop\n        /* \"#utility.yul\":1524:1811   */\n      pop\n        /* \"#utility.yul\":1878:1880   */\n      0x20\n        /* \"#utility.yul\":1867:1876   */\n      dup5\n        /* \"#utility.yul\":1863:1881   */\n      add\n        /* \"#utility.yul\":1850:1882   */\n      calldataload\n        /* \"#utility.yul\":1909:1927   */\n      0xffffffffffffffff\n        /* \"#utility.yul\":1901:1907   */\n      dup2\n        /* \"#utility.yul\":1898:1928   */\n      gt\n        /* \"#utility.yul\":1895:2012   */\n      iszero\n      tag_108\n      jumpi\n        /* \"#utility.yul\":1931:2010   */\n      tag_109\n      tag_106\n      jump\t// in\n    tag_109:\n        /* \"#utility.yul\":1895:2012   */\n    tag_108:\n        /* \"#utility.yul\":2036:2099   */\n      tag_110\n        /* \"#utility.yul\":2091:2098   */\n      dup7\n        /* \"#utility.yul\":2082:2088   */\n      dup3\n        /* \"#utility.yul\":2071:2080   */\n      dup8\n        /* \"#utility.yul\":2067:2089   */\n      add\n        /* \"#utility.yul\":2036:2099   */\n      tag_90\n      jump\t// in\n    tag_110:\n        /* \"#utility.yul\":2026:2099   */\n      swap3\n      pop\n        /* \"#utility.yul\":1821:2109   */\n      pop\n        /* \"#utility.yul\":2148:2150   */\n      0x40\n        /* \"#utility.yul\":2174:2227   */\n      tag_111\n        /* \"#utility.yul\":2219:2226   */\n      dup7\n        /* \"#utility.yul\":2210:2216   */\n      dup3\n        /* \"#utility.yul\":2199:2208   */\n      dup8\n        /* \"#utility.yul\":2195:2217   */\n      add\n        /* \"#utility.yul\":2174:2227   */\n      tag_86\n      jump\t// in\n    tag_111:\n        /* \"#utility.yul\":2164:2227   */\n      swap2\n      pop\n        /* \"#utility.yul\":2119:2237   */\n      pop\n        /* \"#utility.yul\":1265:2244   */\n      swap3\n      pop\n      swap3\n      pop\n      swap3\n      jump\t// out\n        /* \"#utility.yul\":2250:2368   */\n    tag_112:\n        /* \"#utility.yul\":2337:2361   */\n      tag_114\n        /* \"#utility.yul\":2355:2360   */\n      dup2\n        /* \"#utility.yul\":2337:2361   */\n      tag_115\n      jump\t// in\n    tag_114:\n        /* \"#utility.yul\":2332:2335   */\n      dup3\n        /* \"#utility.yul\":2325:2362   */\n      mstore\n        /* \"#utility.yul\":2250:2368   */\n      pop\n      pop\n      jump\t// out\n        /* \"#utility.yul\":2374:2738   */\n    tag_116:\n        /* \"#utility.yul\":2462:2465   */\n      0x00\n        /* \"#utility.yul\":2490:2529   */\n      tag_118\n        /* \"#utility.yul\":2523:2528   */\n      dup3\n        /* \"#utility.yul\":2490:2529   */\n      tag_119\n      jump\t// in\n    tag_118:\n        /* \"#utility.yul\":2545:2616   */\n      tag_120\n        /* \"#utility.yul\":2609:2615   */\n      dup2\n        /* \"#utility.yul\":2604:2607   */\n      dup6\n        /* \"#utility.yul\":2545:2616   */\n      tag_121\n      jump\t// in\n    tag_120:\n        /* \"#utility.yul\":2538:2616   */\n      swap4\n      pop\n        /* \"#utility.yul\":2625:2677   */\n      tag_122\n        /* \"#utility.yul\":2670:2676   */\n      dup2\n        /* \"#utility.yul\":2665:2668   */\n      dup6\n        /* \"#utility.yul\":2658:2662   */\n      0x20\n        /* \"#utility.yul\":2651:2656   */\n      dup7\n        /* \"#utility.yul\":2647:2663   */\n      add\n        /* \"#utility.yul\":2625:2677   */\n      tag_123\n      jump\t// in\n    tag_122:\n        /* \"#utility.yul\":2702:2731   */\n      tag_124\n        /* \"#utility.yul\":2724:2730   */\n      dup2\n        /* \"#utility.yul\":2702:2731   */\n      tag_125\n      jump\t// in\n    tag_124:\n        /* \"#utility.yul\":2697:2700   */\n      dup5\n        /* \"#utility.yul\":2693:2732   */\n      add\n        /* \"#utility.yul\":2686:2732   */\n      swap2\n      pop\n        /* \"#utility.yul\":2466:2738   */\n      pop\n        /* \"#utility.yul\":2374:2738   */\n      swap3\n      swap2\n      pop\n      pop\n      jump\t// out\n        /* \"#utility.yul\":2744:3110   */\n    tag_126:\n        /* \"#utility.yul\":2886:2889   */\n      0x00\n        /* \"#utility.yul\":2907:2974   */\n      tag_128\n        /* \"#utility.yul\":2971:2973   */\n      0x16\n        /* \"#utility.yul\":2966:2969   */\n      dup4\n        /* \"#utility.yul\":2907:2974   */\n      tag_121\n      jump\t// in\n    tag_128:\n        /* \"#utility.yul\":2900:2974   */\n      swap2\n      pop\n        /* \"#utility.yul\":2983:3076   */\n      tag_129\n        /* \"#utility.yul\":3072:3075   */\n      dup3\n        /* \"#utility.yul\":2983:3076   */\n      tag_130\n      jump\t// in\n    tag_129:\n        /* \"#utility.yul\":3101:3103   */\n      0x20\n        /* \"#utility.yul\":3096:3099   */\n      dup3\n        /* \"#utility.yul\":3092:3104   */\n      add\n        /* \"#utility.yul\":3085:3104   */\n      swap1\n      pop\n        /* \"#utility.yul\":2744:3110   */\n      swap2\n      swap1\n      pop\n      jump\t// out\n        /* \"#utility.yul\":3116:3482   */\n    tag_131:\n        /* \"#utility.yul\":3258:3261   */\n      0x00\n        /* \"#utility.yul\":3279:3346   */\n      tag_133\n        /* \"#utility.yul\":3343:3345   */\n      0x21\n        /* \"#utility.yul\":3338:3341   */\n      dup4\n        /* \"#utility.yul\":3279:3346   */\n      tag_121\n      jump\t// in\n    tag_133:\n        /* \"#utility.yul\":3272:3346   */\n      swap2\n      pop\n        /* \"#utility.yul\":3355:3448   */\n      tag_134\n        /* \"#utility.yul\":3444:3447   */\n      dup3\n        /* \"#utility.yul\":3355:3448   */\n      tag_135\n      jump\t// in\n    tag_134:\n        /* \"#utility.yul\":3473:3475   */\n      0x40\n        /* \"#utility.yul\":3468:3471   */\n      dup3\n        /* \"#utility.yul\":3464:3476   */\n      add\n        /* \"#utility.yul\":3457:3476   */\n      swap1\n      pop\n        /* \"#utility.yul\":3116:3482   */\n      swap2\n      swap1\n      pop\n      jump\t// out\n        /* \"#utility.yul\":3488:3606   */\n    tag_136:\n        /* \"#utility.yul\":3575:3599   */\n      tag_138\n        /* \"#utility.yul\":3593:3598   */\n      dup2\n        /* \"#utility.yul\":3575:3599   */\n      tag_139\n      jump\t// in\n    tag_138:\n        /* \"#utility.yul\":3570:3573   */\n      dup3\n        /* \"#utility.yul\":3563:3600   */\n      mstore\n        /* \"#utility.yul\":3488:3606   */\n      pop\n      pop\n      jump\t// out\n        /* \"#utility.yul\":3612:3834   */\n    tag_46:\n        /* \"#utility.yul\":3705:3709   */\n      0x00\n        /* \"#utility.yul\":3743:3745   */\n      0x20\n        /* \"#utility.yul\":3732:3741   */\n      dup3\n        /* \"#utility.yul\":3728:3746   */\n      add\n        /* \"#utility.yul\":3720:3746   */\n      swap1\n      pop\n        /* \"#utility.yul\":3756:3827   */\n      tag_141\n        /* \"#utility.yul\":3824:3825   */\n      0x00\n        /* \"#utility.yul\":3813:3822   */\n      dup4\n        /* \"#utility.yul\":3809:3826   */\n      add\n        /* \"#utility.yul\":3800:3806   */\n      dup5\n        /* \"#utility.yul\":3756:3827   */\n      tag_112\n      jump\t// in\n    tag_141:\n        /* \"#utility.yul\":3612:3834   */\n      swap3\n      swap2\n      pop\n      pop\n      jump\t// out\n        /* \"#utility.yul\":3840:4153   */\n    tag_17:\n        /* \"#utility.yul\":3953:3957   */\n      0x00\n        /* \"#utility.yul\":3991:3993   */\n      0x20\n        /* \"#utility.yul\":3980:3989   */\n      dup3\n        /* \"#utility.yul\":3976:3994   */\n      add\n        /* \"#utility.yul\":3968:3994   */\n      swap1\n      pop\n        /* \"#utility.yul\":4040:4049   */\n      dup2\n        /* \"#utility.yul\":4034:4038   */\n      dup2\n        /* \"#utility.yul\":4030:4050   */\n      sub\n        /* \"#utility.yul\":4026:4027   */\n      0x00\n        /* \"#utility.yul\":4015:4024   */\n      dup4\n        /* \"#utility.yul\":4011:4028   */\n      add\n        /* \"#utility.yul\":4004:4051   */\n      mstore\n        /* \"#utility.yul\":4068:4146   */\n      tag_143\n        /* \"#utility.yul\":4141:4145   */\n      dup2\n        /* \"#utility.yul\":4132:4138   */\n      dup5\n        /* \"#utility.yul\":4068:4146   */\n      tag_116\n      jump\t// in\n    tag_143:\n        /* \"#utility.yul\":4060:4146   */\n      swap1\n      pop\n        /* \"#utility.yul\":3840:4153   */\n      swap3\n      swap2\n      pop\n      pop\n      jump\t// out\n        /* \"#utility.yul\":4159:4783   */\n    tag_57:\n        /* \"#utility.yul\":4348:4352   */\n      0x00\n        /* \"#utility.yul\":4386:4388   */\n      0x60\n        /* \"#utility.yul\":4375:4384   */\n      dup3\n        /* \"#utility.yul\":4371:4389   */\n      add\n        /* \"#utility.yul\":4363:4389   */\n      swap1\n      pop\n        /* \"#utility.yul\":4435:4444   */\n      dup2\n        /* \"#utility.yul\":4429:4433   */\n      dup2\n        /* \"#utility.yul\":4425:4445   */\n      sub\n        /* \"#utility.yul\":4421:4422   */\n      0x00\n        /* \"#utility.yul\":4410:4419   */\n      dup4\n        /* \"#utility.yul\":4406:4423   */\n      add\n        /* \"#utility.yul\":4399:4446   */\n      mstore\n        /* \"#utility.yul\":4463:4541   */\n      tag_145\n        /* \"#utility.yul\":4536:4540   */\n      dup2\n        /* \"#utility.yul\":4527:4533   */\n      dup7\n        /* \"#utility.yul\":4463:4541   */\n      tag_116\n      jump\t// in\n    tag_145:\n        /* \"#utility.yul\":4455:4541   */\n      swap1\n      pop\n        /* \"#utility.yul\":4588:4597   */\n      dup2\n        /* \"#utility.yul\":4582:4586   */\n      dup2\n        /* \"#utility.yul\":4578:4598   */\n      sub\n        /* \"#utility.yul\":4573:4575   */\n      0x20\n        /* \"#utility.yul\":4562:4571   */\n      dup4\n        /* \"#utility.yul\":4558:4576   */\n      add\n        /* \"#utility.yul\":4551:4599   */\n      mstore\n        /* \"#utility.yul\":4616:4694   */\n      tag_146\n        /* \"#utility.yul\":4689:4693   */\n      dup2\n        /* \"#utility.yul\":4680:4686   */\n      dup6\n        /* \"#utility.yul\":4616:4694   */\n      tag_116\n      jump\t// in\n    tag_146:\n        /* \"#utility.yul\":4608:4694   */\n      swap1\n      pop\n        /* \"#utility.yul\":4704:4776   */\n      tag_147\n        /* \"#utility.yul\":4772:4774   */\n      0x40\n        /* \"#utility.yul\":4761:4770   */\n      dup4\n        /* \"#utility.yul\":4757:4775   */\n      add\n        /* \"#utility.yul\":4748:4754   */\n      dup5\n        /* \"#utility.yul\":4704:4776   */\n      tag_112\n      jump\t// in\n    tag_147:\n        /* \"#utility.yul\":4159:4783   */\n      swap5\n      swap4\n      pop\n      pop\n      pop\n      pop\n      jump\t// out\n        /* \"#utility.yul\":4789:5208   */\n    tag_31:\n        /* \"#utility.yul\":4955:4959   */\n      0x00\n        /* \"#utility.yul\":4993:4995   */\n      0x20\n        /* \"#utility.yul\":4982:4991   */\n      dup3\n        /* \"#utility.yul\":4978:4996   */\n      add\n        /* \"#utility.yul\":4970:4996   */\n      swap1\n      pop\n        /* \"#utility.yul\":5042:5051   */\n      dup2\n        /* \"#utility.yul\":5036:5040   */\n      dup2\n        /* \"#utility.yul\":5032:5052   */\n      sub\n        /* \"#utility.yul\":5028:5029   */\n      0x00\n        /* \"#utility.yul\":5017:5026   */\n      dup4\n        /* \"#utility.yul\":5013:5030   */\n      add\n        /* \"#utility.yul\":5006:5053   */\n      mstore\n        /* \"#utility.yul\":5070:5201   */\n      tag_149\n        /* \"#utility.yul\":5196:5200   */\n      dup2\n        /* \"#utility.yul\":5070:5201   */\n      tag_126\n      jump\t// in\n    tag_149:\n        /* \"#utility.yul\":5062:5201   */\n      swap1\n      pop\n        /* \"#utility.yul\":4789:5208   */\n      swap2\n      swap1\n      pop\n      jump\t// out\n        /* \"#utility.yul\":5214:5633   */\n    tag_50:\n        /* \"#utility.yul\":5380:5384   */\n      0x00\n        /* \"#utility.yul\":5418:5420   */\n      0x20\n        /* \"#utility.yul\":5407:5416   */\n      dup3\n        /* \"#utility.yul\":5403:5421   */\n      add\n        /* \"#utility.yul\":5395:5421   */\n      swap1\n      pop\n        /* \"#utility.yul\":5467:5476   */\n      dup2\n        /* \"#utility.yul\":5461:5465   */\n      dup2\n        /* \"#utility.yul\":5457:5477   */\n      sub\n        /* \"#utility.yul\":5453:5454   */\n      0x00\n        /* \"#utility.yul\":5442:5451   */\n      dup4\n        /* \"#utility.yul\":5438:5455   */\n      add\n        /* \"#utility.yul\":5431:5478   */\n      mstore\n        /* \"#utility.yul\":5495:5626   */\n      tag_151\n        /* \"#utility.yul\":5621:5625   */\n      dup2\n        /* \"#utility.yul\":5495:5626   */\n      tag_131\n      jump\t// in\n    tag_151:\n        /* \"#utility.yul\":5487:5626   */\n      swap1\n      pop\n        /* \"#utility.yul\":5214:5633   */\n      swap2\n      swap1\n      pop\n      jump\t// out\n        /* \"#utility.yul\":5639:5861   */\n    tag_11:\n        /* \"#utility.yul\":5732:5736   */\n      0x00\n        /* \"#utility.yul\":5770:5772   */\n      0x20\n        /* \"#utility.yul\":5759:5768   */\n      dup3\n        /* \"#utility.yul\":5755:5773   */\n      add\n        /* \"#utility.yul\":5747:5773   */\n      swap1\n      pop\n        /* \"#utility.yul\":5783:5854   */\n      tag_153\n        /* \"#utility.yul\":5851:5852   */\n      0x00\n        /* \"#utility.yul\":5840:5849   */\n      dup4\n        /* \"#utility.yul\":5836:5853   */\n      add\n        /* \"#utility.yul\":5827:5833   */\n      dup5\n        /* \"#utility.yul\":5783:5854   */\n      tag_136\n      jump\t// in\n    tag_153:\n        /* \"#utility.yul\":5639:5861   */\n      swap3\n      swap2\n      pop\n      pop\n      jump\t// out\n        /* \"#utility.yul\":5867:5996   */\n    tag_80:\n        /* \"#utility.yul\":5901:5907   */\n      0x00\n        /* \"#utility.yul\":5928:5948   */\n      tag_155\n      tag_156\n      jump\t// in\n    tag_155:\n        /* \"#utility.yul\":5918:5948   */\n      swap1\n      pop\n        /* \"#utility.yul\":5957:5990   */\n      tag_157\n        /* \"#utility.yul\":5985:5989   */\n      dup3\n        /* \"#utility.yul\":5977:5983   */\n      dup3\n        /* \"#utility.yul\":5957:5990   */\n      tag_158\n      jump\t// in\n    tag_157:\n        /* \"#utility.yul\":5867:5996   */\n      swap2\n      swap1\n      pop\n      jump\t// out\n        /* \"#utility.yul\":6002:6077   */\n    tag_156:\n        /* \"#utility.yul\":6035:6041   */\n      0x00\n        /* \"#utility.yul\":6068:6070   */\n      0x40\n        /* \"#utility.yul\":6062:6071   */\n      mload\n        /* \"#utility.yul\":6052:6071   */\n      swap1\n      pop\n        /* \"#utility.yul\":6002:6077   */\n      swap1\n      jump\t// out\n        /* \"#utility.yul\":6083:6391   */\n    tag_79:\n        /* \"#utility.yul\":6145:6149   */\n      0x00\n        /* \"#utility.yul\":6235:6253   */\n      0xffffffffffffffff\n        /* \"#utility.yul\":6227:6233   */\n      dup3\n        /* \"#utility.yul\":6224:6254   */\n      gt\n        /* \"#utility.yul\":6221:6277   */\n      iszero\n      tag_161\n      jumpi\n        /* \"#utility.yul\":6257:6275   */\n      tag_162\n      tag_163\n      jump\t// in\n    tag_162:\n        /* \"#utility.yul\":6221:6277   */\n    tag_161:\n        /* \"#utility.yul\":6295:6324   */\n      tag_164\n        /* \"#utility.yul\":6317:6323   */\n      dup3\n        /* \"#utility.yul\":6295:6324   */\n      tag_125\n      jump\t// in\n    tag_164:\n        /* \"#utility.yul\":6287:6324   */\n      swap1\n      pop\n        /* \"#utility.yul\":6379:6383   */\n      0x20\n        /* \"#utility.yul\":6373:6377   */\n      dup2\n        /* \"#utility.yul\":6369:6384   */\n      add\n        /* \"#utility.yul\":6361:6384   */\n      swap1\n      pop\n        /* \"#utility.yul\":6083:6391   */\n      swap2\n      swap1\n      pop\n      jump\t// out\n        /* \"#utility.yul\":6397:6496   */\n    tag_119:\n        /* \"#utility.yul\":6449:6455   */\n      0x00\n        /* \"#utility.yul\":6483:6488   */\n      dup2\n        /* \"#utility.yul\":6477:6489   */\n      mload\n        /* \"#utility.yul\":6467:6489   */\n      swap1\n      pop\n        /* \"#utility.yul\":6397:6496   */\n      swap2\n      swap1\n      pop\n      jump\t// out\n        /* \"#utility.yul\":6502:6671   */\n    tag_121:\n        /* \"#utility.yul\":6586:6597   */\n      0x00\n        /* \"#utility.yul\":6620:6626   */\n      dup3\n        /* \"#utility.yul\":6615:6618   */\n      dup3\n        /* \"#utility.yul\":6608:6627   */\n      mstore\n        /* \"#utility.yul\":6660:6664   */\n      0x20\n        /* \"#utility.yul\":6655:6658   */\n      dup3\n        /* \"#utility.yul\":6651:6665   */\n      add\n        /* \"#utility.yul\":6636:6665   */\n      swap1\n      pop\n        /* \"#utility.yul\":6502:6671   */\n      swap3\n      swap2\n      pop\n      pop\n      jump\t// out\n        /* \"#utility.yul\":6677:6982   */\n    tag_55:\n        /* \"#utility.yul\":6717:6720   */\n      0x00\n        /* \"#utility.yul\":6736:6756   */\n      tag_168\n        /* \"#utility.yul\":6754:6755   */\n      dup3\n        /* \"#utility.yul\":6736:6756   */\n      tag_139\n      jump\t// in\n    tag_168:\n        /* \"#utility.yul\":6731:6756   */\n      swap2\n      pop\n        /* \"#utility.yul\":6770:6790   */\n      tag_169\n        /* \"#utility.yul\":6788:6789   */\n      dup4\n        /* \"#utility.yul\":6770:6790   */\n      tag_139\n      jump\t// in\n    tag_169:\n        /* \"#utility.yul\":6765:6790   */\n      swap3\n      pop\n        /* \"#utility.yul\":6924:6925   */\n      dup3\n        /* \"#utility.yul\":6856:6922   */\n      0xffffffffffffffffffffffffffffffffffffffffffffffffffffffffffffffff\n        /* \"#utility.yul\":6852:6926   */\n      sub\n        /* \"#utility.yul\":6849:6850   */\n      dup3\n        /* \"#utility.yul\":6846:6927   */\n      gt\n        /* \"#utility.yul\":6843:6950   */\n      iszero\n      tag_170\n      jumpi\n        /* \"#utility.yul\":6930:6948   */\n      tag_171\n      tag_172\n      jump\t// in\n    tag_171:\n        /* \"#utility.yul\":6843:6950   */\n    tag_170:\n        /* \"#utility.yul\":6974:6975   */\n      dup3\n        /* \"#utility.yul\":6971:6972   */\n      dup3\n        /* \"#utility.yul\":6967:6976   */\n      add\n        /* \"#utility.yul\":6960:6976   */\n      swap1\n      pop\n        /* \"#utility.yul\":6677:6982   */\n      swap3\n      swap2\n      pop\n      pop\n      jump\t// out\n        /* \"#utility.yul\":6988:7179   */\n    tag_44:\n        /* \"#utility.yul\":7028:7032   */\n      0x00\n        /* \"#utility.yul\":7048:7068   */\n      tag_174\n        /* \"#utility.yul\":7066:7067   */\n      dup3\n        /* \"#utility.yul\":7048:7068   */\n      tag_139\n      jump\t// in\n    tag_174:\n        /* \"#utility.yul\":7043:7068   */\n      swap2\n      pop\n        /* \"#utility.yul\":7082:7102   */\n      tag_175\n        /* \"#utility.yul\":7100:7101   */\n      dup4\n        /* \"#utility.yul\":7082:7102   */\n      tag_139\n      jump\t// in\n    tag_175:\n        /* \"#utility.yul\":7077:7102   */\n      swap3\n      pop\n        /* \"#utility.yul\":7121:7122   */\n      dup3\n        /* \"#utility.yul\":7118:7119   */\n      dup3\n        /* \"#utility.yul\":7115:7123   */\n      lt\n        /* \"#utility.yul\":7112:7146   */\n      iszero\n      tag_176\n      jumpi\n        /* \"#utility.yul\":7126:7144   */\n      tag_177\n      tag_172\n      jump\t// in\n    tag_177:\n        /* \"#utility.yul\":7112:7146   */\n    tag_176:\n        /* \"#utility.yul\":7171:7172   */\n      dup3\n        /* \"#utility.yul\":7168:7169   */\n      dup3\n        /* \"#utility.yul\":7164:7173   */\n      sub\n        /* \"#utility.yul\":7156:7173   */\n      swap1\n      pop\n        /* \"#utility.yul\":6988:7179   */\n      swap3\n      swap2\n      pop\n      pop\n      jump\t// out\n        /* \"#utility.yul\":7185:7281   */\n    tag_115:\n        /* \"#utility.yul\":7222:7229   */\n      0x00\n        /* \"#utility.yul\":7251:7275   */\n      tag_179\n        /* \"#utility.yul\":7269:7274   */\n      dup3\n        /* \"#utility.yul\":7251:7275   */\n      tag_180\n      jump\t// in\n    tag_179:\n        /* \"#utility.yul\":7240:7275   */\n      swap1\n      pop\n        /* \"#utility.yul\":7185:7281   */\n      swap2\n      swap1\n      pop\n      jump\t// out\n        /* \"#utility.yul\":7287:7413   */\n    tag_180:\n        /* \"#utility.yul\":7324:7331   */\n      0x00\n        /* \"#utility.yul\":7364:7406   */\n      0xffffffffffffffffffffffffffffffffffffffff\n        /* \"#utility.yul\":7357:7362   */\n      dup3\n        /* \"#utility.yul\":7353:7407   */\n      and\n        /* \"#utility.yul\":7342:7407   */\n      swap1\n      pop\n        /* \"#utility.yul\":7287:7413   */\n      swap2\n      swap1\n      pop\n      jump\t// out\n        /* \"#utility.yul\":7419:7496   */\n    tag_139:\n        /* \"#utility.yul\":7456:7463   */\n      0x00\n        /* \"#utility.yul\":7485:7490   */\n      dup2\n        /* \"#utility.yul\":7474:7490   */\n      swap1\n      pop\n        /* \"#utility.yul\":7419:7496   */\n      swap2\n      swap1\n      pop\n      jump\t// out\n        /* \"#utility.yul\":7502:7656   */\n    tag_85:\n        /* \"#utility.yul\":7586:7592   */\n      dup3\n        /* \"#utility.yul\":7581:7584   */\n      dup2\n        /* \"#utility.yul\":7576:7579   */\n      dup4\n        /* \"#utility.yul\":7563:7593   */\n      calldatacopy\n        /* \"#utility.yul\":7648:7649   */\n      0x00\n        /* \"#utility.yul\":7639:7645   */\n      dup4\n        /* \"#utility.yul\":7634:7637   */\n      dup4\n        /* \"#utility.yul\":7630:7646   */\n      add\n        /* \"#utility.yul\":7623:7650   */\n      mstore\n        /* \"#utility.yul\":7502:7656   */\n      pop\n      pop\n      pop\n      jump\t// out\n        /* \"#utility.yul\":7662:7969   */\n    tag_123:\n        /* \"#utility.yul\":7730:7731   */\n      0x00\n        /* \"#utility.yul\":7740:7853   */\n    tag_185:\n        /* \"#utility.yul\":7754:7760   */\n      dup4\n        /* \"#utility.yul\":7751:7752   */\n      dup2\n        /* \"#utility.yul\":7748:7761   */\n      lt\n        /* \"#utility.yul\":7740:7853   */\n      iszero\n      tag_187\n      jumpi\n        /* \"#utility.yul\":7839:7840   */\n      dup1\n        /* \"#utility.yul\":7834:7837   */\n      dup3\n        /* \"#utility.yul\":7830:7841   */\n      add\n        /* \"#utility.yul\":7824:7842   */\n      mload\n        /* \"#utility.yul\":7820:7821   */\n      dup2\n        /* \"#utility.yul\":7815:7818   */\n      dup5\n        /* \"#utility.yul\":7811:7822   */\n      add\n        /* \"#utility.yul\":7804:7843   */\n      mstore\n        /* \"#utility.yul\":7776:7778   */\n      0x20\n        /* \"#utility.yul\":7773:7774   */\n      dup2\n        /* \"#utility.yul\":7769:7779   */\n      add\n        /* \"#utility.yul\":7764:7779   */\n      swap1\n      pop\n        /* \"#utility.yul\":7740:7853   */\n      jump(tag_185)\n    tag_187:\n        /* \"#utility.yul\":7871:7877   */\n      dup4\n        /* \"#utility.yul\":7868:7869   */\n      dup2\n        /* \"#utility.yul\":7865:7878   */\n      gt\n        /* \"#utility.yul\":7862:7963   */\n      iszero\n      tag_188\n      jumpi\n        /* \"#utility.yul\":7951:7952   */\n      0x00\n        /* \"#utility.yul\":7942:7948   */\n      dup5\n        /* \"#utility.yul\":7937:7940   */\n      dup5\n        /* \"#utility.yul\":7933:7949   */\n      add\n        /* \"#utility.yul\":7926:7953   */\n      mstore\n        /* \"#utility.yul\":7862:7963   */\n    tag_188:\n        /* \"#utility.yul\":7711:7969   */\n      pop\n        /* \"#utility.yul\":7662:7969   */\n      pop\n      pop\n      pop\n      jump\t// out\n        /* \"#utility.yul\":7975:8295   */\n    tag_34:\n        /* \"#utility.yul\":8019:8025   */\n      0x00\n        /* \"#utility.yul\":8056:8057   */\n      0x02\n        /* \"#utility.yul\":8050:8054   */\n      dup3\n        /* \"#utility.yul\":8046:8058   */\n      div\n        /* \"#utility.yul\":8036:8058   */\n      swap1\n      pop\n        /* \"#utility.yul\":8103:8104   */\n      0x01\n        /* \"#utility.yul\":8097:8101   */\n      dup3\n        /* \"#utility.yul\":8093:8105   */\n      and\n        /* \"#utility.yul\":8124:8142   */\n      dup1\n        /* \"#utility.yul\":8114:8195   */\n      tag_190\n      jumpi\n        /* \"#utility.yul\":8180:8184   */\n      0x7f\n        /* \"#utility.yul\":8172:8178   */\n      dup3\n        /* \"#utility.yul\":8168:8185   */\n      and\n        /* \"#utility.yul\":8158:8185   */\n      swap2\n      pop\n        /* \"#utility.yul\":8114:8195   */\n    tag_190:\n        /* \"#utility.yul\":8242:8244   */\n      0x20\n        /* \"#utility.yul\":8234:8240   */\n      dup3\n        /* \"#utility.yul\":8231:8245   */\n      lt\n        /* \"#utility.yul\":8211:8229   */\n      dup2\n        /* \"#utility.yul\":8208:8246   */\n      eq\n        /* \"#utility.yul\":8205:8289   */\n      iszero\n      tag_191\n      jumpi\n        /* \"#utility.yul\":8261:8279   */\n      tag_192\n      tag_193\n      jump\t// in\n    tag_192:\n        /* \"#utility.yul\":8205:8289   */\n    tag_191:\n        /* \"#utility.yul\":8026:8295   */\n      pop\n        /* \"#utility.yul\":7975:8295   */\n      swap2\n      swap1\n      pop\n      jump\t// out\n        /* \"#utility.yul\":8301:8582   */\n    tag_158:\n        /* \"#utility.yul\":8384:8411   */\n      tag_195\n        /* \"#utility.yul\":8406:8410   */\n      dup3\n        /* \"#utility.yul\":8384:8411   */\n      tag_125\n      jump\t// in\n    tag_195:\n        /* \"#utility.yul\":8376:8382   */\n      dup2\n        /* \"#utility.yul\":8372:8412   */\n      add\n        /* \"#utility.yul\":8514:8520   */\n      dup2\n        /* \"#utility.yul\":8502:8512   */\n      dup2\n        /* \"#utility.yul\":8499:8521   */\n      lt\n        /* \"#utility.yul\":8478:8496   */\n      0xffffffffffffffff\n        /* \"#utility.yul\":8466:8476   */\n      dup3\n        /* \"#utility.yul\":8463:8497   */\n      gt\n        /* \"#utility.yul\":8460:8522   */\n      or\n        /* \"#utility.yul\":8457:8545   */\n      iszero\n      tag_196\n      jumpi\n        /* \"#utility.yul\":8525:8543   */\n      tag_197\n      tag_163\n      jump\t// in\n    tag_197:\n        /* \"#utility.yul\":8457:8545   */\n    tag_196:\n        /* \"#utility.yul\":8565:8575   */\n      dup1\n        /* \"#utility.yul\":8561:8563   */\n      0x40\n        /* \"#utility.yul\":8554:8576   */\n      mstore\n        /* \"#utility.yul\":8344:8582   */\n      pop\n        /* \"#utility.yul\":8301:8582   */\n      pop\n      pop\n      jump\t// out\n        /* \"#utility.yul\":8588:8768   */\n    tag_172:\n        /* \"#utility.yul\":8636:8713   */\n      0x4e487b7100000000000000000000000000000000000000000000000000000000\n        /* \"#utility.yul\":8633:8634   */\n      0x00\n        /* \"#utility.yul\":8626:8714   */\n      mstore\n        /* \"#utility.yul\":8733:8737   */\n      0x11\n        /* \"#utility.yul\":8730:8731   */\n      0x04\n        /* \"#utility.yul\":8723:8738   */\n      mstore\n        /* \"#utility.yul\":8757:8761   */\n      0x24\n        /* \"#utility.yul\":8754:8755   */\n      0x00\n        /* \"#utility.yul\":8747:8762   */\n      revert\n        /* \"#utility.yul\":8774:8954   */\n    tag_193:\n        /* \"#utility.yul\":8822:8899   */\n      0x4e487b7100000000000000000000000000000000000000000000000000000000\n        /* \"#utility.yul\":8819:8820   */\n      0x00\n        /* \"#utility.yul\":8812:8900   */\n      mstore\n        /* \"#utility.yul\":8919:8923   */\n      0x22\n        /* \"#utility.yul\":8916:8917   */\n      0x04\n        /* \"#utility.yul\":8909:8924   */\n      mstore\n        /* \"#utility.yul\":8943:8947   */\n      0x24\n        /* \"#utility.yul\":8940:8941   */\n      0x00\n        /* \"#utility.yul\":8933:8948   */\n      revert\n        /* \"#utility.yul\":8960:9140   */\n    tag_163:\n        /* \"#utility.yul\":9008:9085   */\n      0x4e487b7100000000000000000000000000000000000000000000000000000000\n        /* \"#utility.yul\":9005:9006   */\n      0x00\n        /* \"#utility.yul\":8998:9086   */\n      mstore\n        /* \"#utility.yul\":9105:9109   */\n      0x41\n        /* \"#utility.yul\":9102:9103   */\n      0x04\n        /* \"#utility.yul\":9095:9110   */\n      mstore\n        /* \"#utility.yul\":9129:9133   */\n      0x24\n        /* \"#utility.yul\":9126:9127   */\n      0x00\n        /* \"#utility.yul\":9119:9134   */\n      revert\n        /* \"#utility.yul\":9146:9263   */\n    tag_94:\n        /* \"#utility.yul\":9255:9256   */\n      0x00\n        /* \"#utility.yul\":9252:9253   */\n      dup1\n        /* \"#utility.yul\":9245:9257   */\n      revert\n        /* \"#utility.yul\":9269:9386   */\n    tag_83:\n        /* \"#utility.yul\":9378:9379   */\n      0x00\n        /* \"#utility.yul\":9375:9376   */\n      dup1\n        /* \"#utility.yul\":9368:9380   */\n      revert\n        /* \"#utility.yul\":9392:9509   */\n    tag_106:\n        /* \"#utility.yul\":9501:9502   */\n      0x00\n        /* \"#utility.yul\":9498:9499   */\n      dup1\n        /* \"#utility.yul\":9491:9503   */\n      revert\n        /* \"#utility.yul\":9515:9632   */\n    tag_99:\n        /* \"#utility.yul\":9624:9625   */\n      0x00\n        /* \"#utility.yul\":9621:9622   */\n      dup1\n        /* \"#utility.yul\":9614:9626   */\n      revert\n        /* \"#utility.yul\":9638:9740   */\n    tag_125:\n        /* \"#utility.yul\":9679:9685   */\n      0x00\n        /* \"#utility.yul\":9730:9732   */\n      0x1f\n        /* \"#utility.yul\":9726:9733   */\n      not\n        /* \"#utility.yul\":9721:9723   */\n      0x1f\n        /* \"#utility.yul\":9714:9719   */\n      dup4\n        /* \"#utility.yul\":9710:9724   */\n      add\n        /* \"#utility.yul\":9706:9734   */\n      and\n        /* \"#utility.yul\":9696:9734   */\n      swap1\n      pop\n        /* \"#utility.yul\":9638:9740   */\n      swap2\n      swap1\n      pop\n      jump\t// out\n        /* \"#utility.yul\":9746:9918   */\n    tag_130:\n        /* \"#utility.yul\":9886:9910   */\n      0x50726f66696c6520646f6573206e6f7420657869737400000000000000000000\n        /* \"#utility.yul\":9882:9883   */\n      0x00\n        /* \"#utility.yul\":9874:9880   */\n      dup3\n        /* \"#utility.yul\":9870:9884   */\n      add\n        /* \"#utility.yul\":9863:9911   */\n      mstore\n        /* \"#utility.yul\":9746:9918   */\n      pop\n      jump\t// out\n        /* \"#utility.yul\":9924:10144   */\n    tag_135:\n        /* \"#utility.yul\":10064:10098   */\n      0x43616e6e6f7420637265617465206d6f7265207468616e20312070726f66696c\n        /* \"#utility.yul\":10060:10061   */\n      0x00\n        /* \"#utility.yul\":10052:10058   */\n      dup3\n        /* \"#utility.yul\":10048:10062   */\n      add\n        /* \"#utility.yul\":10041:10099   */\n      mstore\n        /* \"#utility.yul\":10133:10136   */\n      0x6500000000000000000000000000000000000000000000000000000000000000\n        /* \"#utility.yul\":10128:10130   */\n      0x20\n        /* \"#utility.yul\":10120:10126   */\n      dup3\n        /* \"#utility.yul\":10116:10131   */\n      add\n        /* \"#utility.yul\":10109:10137   */\n      mstore\n        /* \"#utility.yul\":9924:10144   */\n      pop\n      jump\t// out\n        /* \"#utility.yul\":10150:10272   */\n    tag_89:\n        /* \"#utility.yul\":10223:10247   */\n      tag_209\n        /* \"#utility.yul\":10241:10246   */\n      dup2\n        /* \"#utility.yul\":10223:10247   */\n      tag_115\n      jump\t// in\n    tag_209:\n        /* \"#utility.yul\":10216:10221   */\n      dup2\n        /* \"#utility.yul\":10213:10248   */\n      eq\n        /* \"#utility.yul\":10203:10266   */\n      tag_210\n      jumpi\n        /* \"#utility.yul\":10262:10263   */\n      0x00\n        /* \"#utility.yul\":10259:10260   */\n      dup1\n        /* \"#utility.yul\":10252:10264   */\n      revert\n        /* \"#utility.yul\":10203:10266   */\n    tag_210:\n        /* \"#utility.yul\":10150:10272   */\n      pop\n      jump\t// out\n\n    auxdata: 0xa264697066735822122044ea80e93d43cd9ced7b1831413b66d5da7dbf58224a5645ad5f26350a2e8d3a64736f6c63430008070033\n}\n",
				"bytecode": {
					"linkReferences": {},
					"object": "6080604052600060015534801561001557600080fd5b50610dae806100256000396000f3fe608060405234801561001057600080fd5b50600436106100575760003560e01c8063169134691461005c5780635fd4b08a1461007a578063a0441f29146100aa578063b3ed9b4c146100c6578063b69471e7146100e2575b600080fd5b6100646100fe565b6040516100719190610a3f565b60405180910390f35b610094600480360381019061008f9190610828565b610104565b6040516100a19190610998565b60405180910390f35b6100c460048036038101906100bf9190610828565b61026e565b005b6100e060048036038101906100db9190610855565b6103ad565b005b6100fc60048036038101906100f79190610855565b6105b8565b005b60015481565b606081600115156000808373ffffffffffffffffffffffffffffffffffffffff1673ffffffffffffffffffffffffffffffffffffffff16815260200190815260200160002060020160149054906101000a900460ff1615151461019c576040517f08c379a0000000000000000000000000000000000000000000000000000000008152600401610193906109ff565b60405180910390fd5b6000808473ffffffffffffffffffffffffffffffffffffffff1673ffffffffffffffffffffffffffffffffffffffff16815260200190815260200160002060000180546101e890610bd4565b80601f016020809104026020016040519081016040528092919081815260200182805461021490610bd4565b80156102615780601f1061023657610100808354040283529160200191610261565b820191906000526020600020905b81548152906001019060200180831161024457829003601f168201915b5050505050915050919050565b80600115156000808373ffffffffffffffffffffffffffffffffffffffff1673ffffffffffffffffffffffffffffffffffffffff16815260200190815260200160002060020160149054906101000a900460ff16151514610304576040517f08c379a00000000000000000000000000000000000000000000000000000000081526004016102fb906109ff565b60405180910390fd5b60008060008473ffffffffffffffffffffffffffffffffffffffff1673ffffffffffffffffffffffffffffffffffffffff16815260200190815260200160002060020160146101000a81548160ff0219169083151502179055506001805461036c9190610b22565b6001819055507fb3e28db4a27e0be6fecdbb889b7a847c4451545c8158cdec23f4fc29d6756d19826040516103a1919061097d565b60405180910390a15050565b600015156000808373ffffffffffffffffffffffffffffffffffffffff1673ffffffffffffffffffffffffffffffffffffffff16815260200190815260200160002060020160149054906101000a900460ff16151514610442576040517f08c379a000000000000000000000000000000000000000000000000000000000815260040161043990610a1f565b60405180910390fd5b600060405180608001604052808581526020018481526020018373ffffffffffffffffffffffffffffffffffffffff168152602001600115158152509050806000808473ffffffffffffffffffffffffffffffffffffffff1673ffffffffffffffffffffffffffffffffffffffff16815260200190815260200160002060008201518160000190805190602001906104db929190610700565b5060208201518160010190805190602001906104f8929190610700565b5060408201518160020160006101000a81548173ffffffffffffffffffffffffffffffffffffffff021916908373ffffffffffffffffffffffffffffffffffffffff16021790555060608201518160020160146101000a81548160ff021916908315150217905550905050600180546105719190610acc565b6001819055507fcf82d30a72e77f1c7cebadba88a1b7312a099c332d1efe8d0e9ea60736582fda8484846040516105aa939291906109ba565b60405180910390a150505050565b80600115156000808373ffffffffffffffffffffffffffffffffffffffff1673ffffffffffffffffffffffffffffffffffffffff16815260200190815260200160002060020160149054906101000a900460ff1615151461064e576040517f08c379a0000000000000000000000000000000000000000000000000000000008152600401610645906109ff565b60405180910390fd5b836000808473ffffffffffffffffffffffffffffffffffffffff1673ffffffffffffffffffffffffffffffffffffffff16815260200190815260200160002060000190805190602001906106a3929190610700565b50826000808473ffffffffffffffffffffffffffffffffffffffff1673ffffffffffffffffffffffffffffffffffffffff16815260200190815260200160002060010190805190602001906106f9929190610700565b5050505050565b82805461070c90610bd4565b90600052602060002090601f01602090048101928261072e5760008555610775565b82601f1061074757805160ff1916838001178555610775565b82800160010185558215610775579182015b82811115610774578251825591602001919060010190610759565b5b5090506107829190610786565b5090565b5b8082111561079f576000816000905550600101610787565b5090565b60006107b66107b184610a7f565b610a5a565b9050828152602081018484840111156107d2576107d1610cc9565b5b6107dd848285610b92565b509392505050565b6000813590506107f481610d61565b92915050565b600082601f83011261080f5761080e610cc4565b5b813561081f8482602086016107a3565b91505092915050565b60006020828403121561083e5761083d610cd3565b5b600061084c848285016107e5565b91505092915050565b60008060006060848603121561086e5761086d610cd3565b5b600084013567ffffffffffffffff81111561088c5761088b610cce565b5b610898868287016107fa565b935050602084013567ffffffffffffffff8111156108b9576108b8610cce565b5b6108c5868287016107fa565b92505060406108d6868287016107e5565b9150509250925092565b6108e981610b56565b82525050565b60006108fa82610ab0565b6109048185610abb565b9350610914818560208601610ba1565b61091d81610cd8565b840191505092915050565b6000610935601683610abb565b915061094082610ce9565b602082019050919050565b6000610958602183610abb565b915061096382610d12565b604082019050919050565b61097781610b88565b82525050565b600060208201905061099260008301846108e0565b92915050565b600060208201905081810360008301526109b281846108ef565b905092915050565b600060608201905081810360008301526109d481866108ef565b905081810360208301526109e881856108ef565b90506109f760408301846108e0565b949350505050565b60006020820190508181036000830152610a1881610928565b9050919050565b60006020820190508181036000830152610a388161094b565b9050919050565b6000602082019050610a54600083018461096e565b92915050565b6000610a64610a75565b9050610a708282610c06565b919050565b6000604051905090565b600067ffffffffffffffff821115610a9a57610a99610c95565b5b610aa382610cd8565b9050602081019050919050565b600081519050919050565b600082825260208201905092915050565b6000610ad782610b88565b9150610ae283610b88565b9250827fffffffffffffffffffffffffffffffffffffffffffffffffffffffffffffffff03821115610b1757610b16610c37565b5b828201905092915050565b6000610b2d82610b88565b9150610b3883610b88565b925082821015610b4b57610b4a610c37565b5b828203905092915050565b6000610b6182610b68565b9050919050565b600073ffffffffffffffffffffffffffffffffffffffff82169050919050565b6000819050919050565b82818337600083830152505050565b60005b83811015610bbf578082015181840152602081019050610ba4565b83811115610bce576000848401525b50505050565b60006002820490506001821680610bec57607f821691505b60208210811415610c0057610bff610c66565b5b50919050565b610c0f82610cd8565b810181811067ffffffffffffffff82111715610c2e57610c2d610c95565b5b80604052505050565b7f4e487b7100000000000000000000000000000000000000000000000000000000600052601160045260246000fd5b7f4e487b7100000000000000000000000000000000000000000000000000000000600052602260045260246000fd5b7f4e487b7100000000000000000000000000000000000000000000000000000000600052604160045260246000fd5b600080fd5b600080fd5b600080fd5b600080fd5b6000601f19601f8301169050919050565b7f50726f66696c6520646f6573206e6f7420657869737400000000000000000000600082015250565b7f43616e6e6f7420637265617465206d6f7265207468616e20312070726f66696c60008201527f6500000000000000000000000000000000000000000000000000000000000000602082015250565b610d6a81610b56565b8114610d7557600080fd5b5056fea264697066735822122044ea80e93d43cd9ced7b1831413b66d5da7dbf58224a5645ad5f26350a2e8d3a64736f6c63430008070033",
					"opcodes": "PUSH1 0x80 PUSH1 0x40 MSTORE PUSH1 0x0 PUSH1 0x1 SSTORE CALLVALUE DUP1 ISZERO PUSH2 0x15 JUMPI PUSH1 0x0 DUP1 REVERT JUMPDEST POP PUSH2 0xDAE DUP1 PUSH2 0x25 PUSH1 0x0 CODECOPY PUSH1 0x0 RETURN INVALID PUSH1 0x80 PUSH1 0x40 MSTORE CALLVALUE DUP1 ISZERO PUSH2 0x10 JUMPI PUSH1 0x0 DUP1 REVERT JUMPDEST POP PUSH1 0x4 CALLDATASIZE LT PUSH2 0x57 JUMPI PUSH1 0x0 CALLDATALOAD PUSH1 0xE0 SHR DUP1 PUSH4 0x16913469 EQ PUSH2 0x5C JUMPI DUP1 PUSH4 0x5FD4B08A EQ PUSH2 0x7A JUMPI DUP1 PUSH4 0xA0441F29 EQ PUSH2 0xAA JUMPI DUP1 PUSH4 0xB3ED9B4C EQ PUSH2 0xC6 JUMPI DUP1 PUSH4 0xB69471E7 EQ PUSH2 0xE2 JUMPI JUMPDEST PUSH1 0x0 DUP1 REVERT JUMPDEST PUSH2 0x64 PUSH2 0xFE JUMP JUMPDEST PUSH1 0x40 MLOAD PUSH2 0x71 SWAP2 SWAP1 PUSH2 0xA3F JUMP JUMPDEST PUSH1 0x40 MLOAD DUP1 SWAP2 SUB SWAP1 RETURN JUMPDEST PUSH2 0x94 PUSH1 0x4 DUP1 CALLDATASIZE SUB DUP2 ADD SWAP1 PUSH2 0x8F SWAP2 SWAP1 PUSH2 0x828 JUMP JUMPDEST PUSH2 0x104 JUMP JUMPDEST PUSH1 0x40 MLOAD PUSH2 0xA1 SWAP2 SWAP1 PUSH2 0x998 JUMP JUMPDEST PUSH1 0x40 MLOAD DUP1 SWAP2 SUB SWAP1 RETURN JUMPDEST PUSH2 0xC4 PUSH1 0x4 DUP1 CALLDATASIZE SUB DUP2 ADD SWAP1 PUSH2 0xBF SWAP2 SWAP1 PUSH2 0x828 JUMP JUMPDEST PUSH2 0x26E JUMP JUMPDEST STOP JUMPDEST PUSH2 0xE0 PUSH1 0x4 DUP1 CALLDATASIZE SUB DUP2 ADD SWAP1 PUSH2 0xDB SWAP2 SWAP1 PUSH2 0x855 JUMP JUMPDEST PUSH2 0x3AD JUMP JUMPDEST STOP JUMPDEST PUSH2 0xFC PUSH1 0x4 DUP1 CALLDATASIZE SUB DUP2 ADD SWAP1 PUSH2 0xF7 SWAP2 SWAP1 PUSH2 0x855 JUMP JUMPDEST PUSH2 0x5B8 JUMP JUMPDEST STOP JUMPDEST PUSH1 0x1 SLOAD DUP2 JUMP JUMPDEST PUSH1 0x60 DUP2 PUSH1 0x1 ISZERO ISZERO PUSH1 0x0 DUP1 DUP4 PUSH20 0xFFFFFFFFFFFFFFFFFFFFFFFFFFFFFFFFFFFFFFFF AND PUSH20 0xFFFFFFFFFFFFFFFFFFFFFFFFFFFFFFFFFFFFFFFF AND DUP2 MSTORE PUSH1 0x20 ADD SWAP1 DUP2 MSTORE PUSH1 0x20 ADD PUSH1 0x0 KECCAK256 PUSH1 0x2 ADD PUSH1 0x14 SWAP1 SLOAD SWAP1 PUSH2 0x100 EXP SWAP1 DIV PUSH1 0xFF AND ISZERO ISZERO EQ PUSH2 0x19C JUMPI PUSH1 0x40 MLOAD PUSH32 0x8C379A000000000000000000000000000000000000000000000000000000000 DUP2 MSTORE PUSH1 0x4 ADD PUSH2 0x193 SWAP1 PUSH2 0x9FF JUMP JUMPDEST PUSH1 0x40 MLOAD DUP1 SWAP2 SUB SWAP1 REVERT JUMPDEST PUSH1 0x0 DUP1 DUP5 PUSH20 0xFFFFFFFFFFFFFFFFFFFFFFFFFFFFFFFFFFFFFFFF AND PUSH20 0xFFFFFFFFFFFFFFFFFFFFFFFFFFFFFFFFFFFFFFFF AND DUP2 MSTORE PUSH1 0x20 ADD SWAP1 DUP2 MSTORE PUSH1 0x20 ADD PUSH1 0x0 KECCAK256 PUSH1 0x0 ADD DUP1 SLOAD PUSH2 0x1E8 SWAP1 PUSH2 0xBD4 JUMP JUMPDEST DUP1 PUSH1 0x1F ADD PUSH1 0x20 DUP1 SWAP2 DIV MUL PUSH1 0x20 ADD PUSH1 0x40 MLOAD SWAP1 DUP2 ADD PUSH1 0x40 MSTORE DUP1 SWAP3 SWAP2 SWAP1 DUP2 DUP2 MSTORE PUSH1 0x20 ADD DUP3 DUP1 SLOAD PUSH2 0x214 SWAP1 PUSH2 0xBD4 JUMP JUMPDEST DUP1 ISZERO PUSH2 0x261 JUMPI DUP1 PUSH1 0x1F LT PUSH2 0x236 JUMPI PUSH2 0x100 DUP1 DUP4 SLOAD DIV MUL DUP4 MSTORE SWAP2 PUSH1 0x20 ADD SWAP2 PUSH2 0x261 JUMP JUMPDEST DUP3 ADD SWAP2 SWAP1 PUSH1 0x0 MSTORE PUSH1 0x20 PUSH1 0x0 KECCAK256 SWAP1 JUMPDEST DUP2 SLOAD DUP2 MSTORE SWAP1 PUSH1 0x1 ADD SWAP1 PUSH1 0x20 ADD DUP1 DUP4 GT PUSH2 0x244 JUMPI DUP3 SWAP1 SUB PUSH1 0x1F AND DUP3 ADD SWAP2 JUMPDEST POP POP POP POP POP SWAP2 POP POP SWAP2 SWAP1 POP JUMP JUMPDEST DUP1 PUSH1 0x1 ISZERO ISZERO PUSH1 0x0 DUP1 DUP4 PUSH20 0xFFFFFFFFFFFFFFFFFFFFFFFFFFFFFFFFFFFFFFFF AND PUSH20 0xFFFFFFFFFFFFFFFFFFFFFFFFFFFFFFFFFFFFFFFF AND DUP2 MSTORE PUSH1 0x20 ADD SWAP1 DUP2 MSTORE PUSH1 0x20 ADD PUSH1 0x0 KECCAK256 PUSH1 0x2 ADD PUSH1 0x14 SWAP1 SLOAD SWAP1 PUSH2 0x100 EXP SWAP1 DIV PUSH1 0xFF AND ISZERO ISZERO EQ PUSH2 0x304 JUMPI PUSH1 0x40 MLOAD PUSH32 0x8C379A000000000000000000000000000000000000000000000000000000000 DUP2 MSTORE PUSH1 0x4 ADD PUSH2 0x2FB SWAP1 PUSH2 0x9FF JUMP JUMPDEST PUSH1 0x40 MLOAD DUP1 SWAP2 SUB SWAP1 REVERT JUMPDEST PUSH1 0x0 DUP1 PUSH1 0x0 DUP5 PUSH20 0xFFFFFFFFFFFFFFFFFFFFFFFFFFFFFFFFFFFFFFFF AND PUSH20 0xFFFFFFFFFFFFFFFFFFFFFFFFFFFFFFFFFFFFFFFF AND DUP2 MSTORE PUSH1 0x20 ADD SWAP1 DUP2 MSTORE PUSH1 0x20 ADD PUSH1 0x0 KECCAK256 PUSH1 0x2 ADD PUSH1 0x14 PUSH2 0x100 EXP DUP2 SLOAD DUP2 PUSH1 0xFF MUL NOT AND SWAP1 DUP4 ISZERO ISZERO MUL OR SWAP1 SSTORE POP PUSH1 0x1 DUP1 SLOAD PUSH2 0x36C SWAP2 SWAP1 PUSH2 0xB22 JUMP JUMPDEST PUSH1 0x1 DUP2 SWAP1 SSTORE POP PUSH32 0xB3E28DB4A27E0BE6FECDBB889B7A847C4451545C8158CDEC23F4FC29D6756D19 DUP3 PUSH1 0x40 MLOAD PUSH2 0x3A1 SWAP2 SWAP1 PUSH2 0x97D JUMP JUMPDEST PUSH1 0x40 MLOAD DUP1 SWAP2 SUB SWAP1 LOG1 POP POP JUMP JUMPDEST PUSH1 0x0 ISZERO ISZERO PUSH1 0x0 DUP1 DUP4 PUSH20 0xFFFFFFFFFFFFFFFFFFFFFFFFFFFFFFFFFFFFFFFF AND PUSH20 0xFFFFFFFFFFFFFFFFFFFFFFFFFFFFFFFFFFFFFFFF AND DUP2 MSTORE PUSH1 0x20 ADD SWAP1 DUP2 MSTORE PUSH1 0x20 ADD PUSH1 0x0 KECCAK256 PUSH1 0x2 ADD PUSH1 0x14 SWAP1 SLOAD SWAP1 PUSH2 0x100 EXP SWAP1 DIV PUSH1 0xFF AND ISZERO ISZERO EQ PUSH2 0x442 JUMPI PUSH1 0x40 MLOAD PUSH32 0x8C379A000000000000000000000000000000000000000000000000000000000 DUP2 MSTORE PUSH1 0x4 ADD PUSH2 0x439 SWAP1 PUSH2 0xA1F JUMP JUMPDEST PUSH1 0x40 MLOAD DUP1 SWAP2 SUB SWAP1 REVERT JUMPDEST PUSH1 0x0 PUSH1 0x40 MLOAD DUP1 PUSH1 0x80 ADD PUSH1 0x40 MSTORE DUP1 DUP6 DUP2 MSTORE PUSH1 0x20 ADD DUP5 DUP2 MSTORE PUSH1 0x20 ADD DUP4 PUSH20 0xFFFFFFFFFFFFFFFFFFFFFFFFFFFFFFFFFFFFFFFF AND DUP2 MSTORE PUSH1 0x20 ADD PUSH1 0x1 ISZERO ISZERO DUP2 MSTORE POP SWAP1 POP DUP1 PUSH1 0x0 DUP1 DUP5 PUSH20 0xFFFFFFFFFFFFFFFFFFFFFFFFFFFFFFFFFFFFFFFF AND PUSH20 0xFFFFFFFFFFFFFFFFFFFFFFFFFFFFFFFFFFFFFFFF AND DUP2 MSTORE PUSH1 0x20 ADD SWAP1 DUP2 MSTORE PUSH1 0x20 ADD PUSH1 0x0 KECCAK256 PUSH1 0x0 DUP3 ADD MLOAD DUP2 PUSH1 0x0 ADD SWAP1 DUP1 MLOAD SWAP1 PUSH1 0x20 ADD SWAP1 PUSH2 0x4DB SWAP3 SWAP2 SWAP1 PUSH2 0x700 JUMP JUMPDEST POP PUSH1 0x20 DUP3 ADD MLOAD DUP2 PUSH1 0x1 ADD SWAP1 DUP1 MLOAD SWAP1 PUSH1 0x20 ADD SWAP1 PUSH2 0x4F8 SWAP3 SWAP2 SWAP1 PUSH2 0x700 JUMP JUMPDEST POP PUSH1 0x40 DUP3 ADD MLOAD DUP2 PUSH1 0x2 ADD PUSH1 0x0 PUSH2 0x100 EXP DUP2 SLOAD DUP2 PUSH20 0xFFFFFFFFFFFFFFFFFFFFFFFFFFFFFFFFFFFFFFFF MUL NOT AND SWAP1 DUP4 PUSH20 0xFFFFFFFFFFFFFFFFFFFFFFFFFFFFFFFFFFFFFFFF AND MUL OR SWAP1 SSTORE POP PUSH1 0x60 DUP3 ADD MLOAD DUP2 PUSH1 0x2 ADD PUSH1 0x14 PUSH2 0x100 EXP DUP2 SLOAD DUP2 PUSH1 0xFF MUL NOT AND SWAP1 DUP4 ISZERO ISZERO MUL OR SWAP1 SSTORE POP SWAP1 POP POP PUSH1 0x1 DUP1 SLOAD PUSH2 0x571 SWAP2 SWAP1 PUSH2 0xACC JUMP JUMPDEST PUSH1 0x1 DUP2 SWAP1 SSTORE POP PUSH32 0xCF82D30A72E77F1C7CEBADBA88A1B7312A099C332D1EFE8D0E9EA60736582FDA DUP5 DUP5 DUP5 PUSH1 0x40 MLOAD PUSH2 0x5AA SWAP4 SWAP3 SWAP2 SWAP1 PUSH2 0x9BA JUMP JUMPDEST PUSH1 0x40 MLOAD DUP1 SWAP2 SUB SWAP1 LOG1 POP POP POP POP JUMP JUMPDEST DUP1 PUSH1 0x1 ISZERO ISZERO PUSH1 0x0 DUP1 DUP4 PUSH20 0xFFFFFFFFFFFFFFFFFFFFFFFFFFFFFFFFFFFFFFFF AND PUSH20 0xFFFFFFFFFFFFFFFFFFFFFFFFFFFFFFFFFFFFFFFF AND DUP2 MSTORE PUSH1 0x20 ADD SWAP1 DUP2 MSTORE PUSH1 0x20 ADD PUSH1 0x0 KECCAK256 PUSH1 0x2 ADD PUSH1 0x14 SWAP1 SLOAD SWAP1 PUSH2 0x100 EXP SWAP1 DIV PUSH1 0xFF AND ISZERO ISZERO EQ PUSH2 0x64E JUMPI PUSH1 0x40 MLOAD PUSH32 0x8C379A000000000000000000000000000000000000000000000000000000000 DUP2 MSTORE PUSH1 0x4 ADD PUSH2 0x645 SWAP1 PUSH2 0x9FF JUMP JUMPDEST PUSH1 0x40 MLOAD DUP1 SWAP2 SUB SWAP1 REVERT JUMPDEST DUP4 PUSH1 0x0 DUP1 DUP5 PUSH20 0xFFFFFFFFFFFFFFFFFFFFFFFFFFFFFFFFFFFFFFFF AND PUSH20 0xFFFFFFFFFFFFFFFFFFFFFFFFFFFFFFFFFFFFFFFF AND DUP2 MSTORE PUSH1 0x20 ADD SWAP1 DUP2 MSTORE PUSH1 0x20 ADD PUSH1 0x0 KECCAK256 PUSH1 0x0 ADD SWAP1 DUP1 MLOAD SWAP1 PUSH1 0x20 ADD SWAP1 PUSH2 0x6A3 SWAP3 SWAP2 SWAP1 PUSH2 0x700 JUMP JUMPDEST POP DUP3 PUSH1 0x0 DUP1 DUP5 PUSH20 0xFFFFFFFFFFFFFFFFFFFFFFFFFFFFFFFFFFFFFFFF AND PUSH20 0xFFFFFFFFFFFFFFFFFFFFFFFFFFFFFFFFFFFFFFFF AND DUP2 MSTORE PUSH1 0x20 ADD SWAP1 DUP2 MSTORE PUSH1 0x20 ADD PUSH1 0x0 KECCAK256 PUSH1 0x1 ADD SWAP1 DUP1 MLOAD SWAP1 PUSH1 0x20 ADD SWAP1 PUSH2 0x6F9 SWAP3 SWAP2 SWAP1 PUSH2 0x700 JUMP JUMPDEST POP POP POP POP POP JUMP JUMPDEST DUP3 DUP1 SLOAD PUSH2 0x70C SWAP1 PUSH2 0xBD4 JUMP JUMPDEST SWAP1 PUSH1 0x0 MSTORE PUSH1 0x20 PUSH1 0x0 KECCAK256 SWAP1 PUSH1 0x1F ADD PUSH1 0x20 SWAP1 DIV DUP2 ADD SWAP3 DUP3 PUSH2 0x72E JUMPI PUSH1 0x0 DUP6 SSTORE PUSH2 0x775 JUMP JUMPDEST DUP3 PUSH1 0x1F LT PUSH2 0x747 JUMPI DUP1 MLOAD PUSH1 0xFF NOT AND DUP4 DUP1 ADD OR DUP6 SSTORE PUSH2 0x775 JUMP JUMPDEST DUP3 DUP1 ADD PUSH1 0x1 ADD DUP6 SSTORE DUP3 ISZERO PUSH2 0x775 JUMPI SWAP2 DUP3 ADD JUMPDEST DUP3 DUP2 GT ISZERO PUSH2 0x774 JUMPI DUP3 MLOAD DUP3 SSTORE SWAP2 PUSH1 0x20 ADD SWAP2 SWAP1 PUSH1 0x1 ADD SWAP1 PUSH2 0x759 JUMP JUMPDEST JUMPDEST POP SWAP1 POP PUSH2 0x782 SWAP2 SWAP1 PUSH2 0x786 JUMP JUMPDEST POP SWAP1 JUMP JUMPDEST JUMPDEST DUP1 DUP3 GT ISZERO PUSH2 0x79F JUMPI PUSH1 0x0 DUP2 PUSH1 0x0 SWAP1 SSTORE POP PUSH1 0x1 ADD PUSH2 0x787 JUMP JUMPDEST POP SWAP1 JUMP JUMPDEST PUSH1 0x0 PUSH2 0x7B6 PUSH2 0x7B1 DUP5 PUSH2 0xA7F JUMP JUMPDEST PUSH2 0xA5A JUMP JUMPDEST SWAP1 POP DUP3 DUP2 MSTORE PUSH1 0x20 DUP2 ADD DUP5 DUP5 DUP5 ADD GT ISZERO PUSH2 0x7D2 JUMPI PUSH2 0x7D1 PUSH2 0xCC9 JUMP JUMPDEST JUMPDEST PUSH2 0x7DD DUP5 DUP3 DUP6 PUSH2 0xB92 JUMP JUMPDEST POP SWAP4 SWAP3 POP POP POP JUMP JUMPDEST PUSH1 0x0 DUP2 CALLDATALOAD SWAP1 POP PUSH2 0x7F4 DUP2 PUSH2 0xD61 JUMP JUMPDEST SWAP3 SWAP2 POP POP JUMP JUMPDEST PUSH1 0x0 DUP3 PUSH1 0x1F DUP4 ADD SLT PUSH2 0x80F JUMPI PUSH2 0x80E PUSH2 0xCC4 JUMP JUMPDEST JUMPDEST DUP2 CALLDATALOAD PUSH2 0x81F DUP5 DUP3 PUSH1 0x20 DUP7 ADD PUSH2 0x7A3 JUMP JUMPDEST SWAP2 POP POP SWAP3 SWAP2 POP POP JUMP JUMPDEST PUSH1 0x0 PUSH1 0x20 DUP3 DUP5 SUB SLT ISZERO PUSH2 0x83E JUMPI PUSH2 0x83D PUSH2 0xCD3 JUMP JUMPDEST JUMPDEST PUSH1 0x0 PUSH2 0x84C DUP5 DUP3 DUP6 ADD PUSH2 0x7E5 JUMP JUMPDEST SWAP2 POP POP SWAP3 SWAP2 POP POP JUMP JUMPDEST PUSH1 0x0 DUP1 PUSH1 0x0 PUSH1 0x60 DUP5 DUP7 SUB SLT ISZERO PUSH2 0x86E JUMPI PUSH2 0x86D PUSH2 0xCD3 JUMP JUMPDEST JUMPDEST PUSH1 0x0 DUP5 ADD CALLDATALOAD PUSH8 0xFFFFFFFFFFFFFFFF DUP2 GT ISZERO PUSH2 0x88C JUMPI PUSH2 0x88B PUSH2 0xCCE JUMP JUMPDEST JUMPDEST PUSH2 0x898 DUP7 DUP3 DUP8 ADD PUSH2 0x7FA JUMP JUMPDEST SWAP4 POP POP PUSH1 0x20 DUP5 ADD CALLDATALOAD PUSH8 0xFFFFFFFFFFFFFFFF DUP2 GT ISZERO PUSH2 0x8B9 JUMPI PUSH2 0x8B8 PUSH2 0xCCE JUMP JUMPDEST JUMPDEST PUSH2 0x8C5 DUP7 DUP3 DUP8 ADD PUSH2 0x7FA JUMP JUMPDEST SWAP3 POP POP PUSH1 0x40 PUSH2 0x8D6 DUP7 DUP3 DUP8 ADD PUSH2 0x7E5 JUMP JUMPDEST SWAP2 POP POP SWAP3 POP SWAP3 POP SWAP3 JUMP JUMPDEST PUSH2 0x8E9 DUP2 PUSH2 0xB56 JUMP JUMPDEST DUP3 MSTORE POP POP JUMP JUMPDEST PUSH1 0x0 PUSH2 0x8FA DUP3 PUSH2 0xAB0 JUMP JUMPDEST PUSH2 0x904 DUP2 DUP6 PUSH2 0xABB JUMP JUMPDEST SWAP4 POP PUSH2 0x914 DUP2 DUP6 PUSH1 0x20 DUP7 ADD PUSH2 0xBA1 JUMP JUMPDEST PUSH2 0x91D DUP2 PUSH2 0xCD8 JUMP JUMPDEST DUP5 ADD SWAP2 POP POP SWAP3 SWAP2 POP POP JUMP JUMPDEST PUSH1 0x0 PUSH2 0x935 PUSH1 0x16 DUP4 PUSH2 0xABB JUMP JUMPDEST SWAP2 POP PUSH2 0x940 DUP3 PUSH2 0xCE9 JUMP JUMPDEST PUSH1 0x20 DUP3 ADD SWAP1 POP SWAP2 SWAP1 POP JUMP JUMPDEST PUSH1 0x0 PUSH2 0x958 PUSH1 0x21 DUP4 PUSH2 0xABB JUMP JUMPDEST SWAP2 POP PUSH2 0x963 DUP3 PUSH2 0xD12 JUMP JUMPDEST PUSH1 0x40 DUP3 ADD SWAP1 POP SWAP2 SWAP1 POP JUMP JUMPDEST PUSH2 0x977 DUP2 PUSH2 0xB88 JUMP JUMPDEST DUP3 MSTORE POP POP JUMP JUMPDEST PUSH1 0x0 PUSH1 0x20 DUP3 ADD SWAP1 POP PUSH2 0x992 PUSH1 0x0 DUP4 ADD DUP5 PUSH2 0x8E0 JUMP JUMPDEST SWAP3 SWAP2 POP POP JUMP JUMPDEST PUSH1 0x0 PUSH1 0x20 DUP3 ADD SWAP1 POP DUP2 DUP2 SUB PUSH1 0x0 DUP4 ADD MSTORE PUSH2 0x9B2 DUP2 DUP5 PUSH2 0x8EF JUMP JUMPDEST SWAP1 POP SWAP3 SWAP2 POP POP JUMP JUMPDEST PUSH1 0x0 PUSH1 0x60 DUP3 ADD SWAP1 POP DUP2 DUP2 SUB PUSH1 0x0 DUP4 ADD MSTORE PUSH2 0x9D4 DUP2 DUP7 PUSH2 0x8EF JUMP JUMPDEST SWAP1 POP DUP2 DUP2 SUB PUSH1 0x20 DUP4 ADD MSTORE PUSH2 0x9E8 DUP2 DUP6 PUSH2 0x8EF JUMP JUMPDEST SWAP1 POP PUSH2 0x9F7 PUSH1 0x40 DUP4 ADD DUP5 PUSH2 0x8E0 JUMP JUMPDEST SWAP5 SWAP4 POP POP POP POP JUMP JUMPDEST PUSH1 0x0 PUSH1 0x20 DUP3 ADD SWAP1 POP DUP2 DUP2 SUB PUSH1 0x0 DUP4 ADD MSTORE PUSH2 0xA18 DUP2 PUSH2 0x928 JUMP JUMPDEST SWAP1 POP SWAP2 SWAP1 POP JUMP JUMPDEST PUSH1 0x0 PUSH1 0x20 DUP3 ADD SWAP1 POP DUP2 DUP2 SUB PUSH1 0x0 DUP4 ADD MSTORE PUSH2 0xA38 DUP2 PUSH2 0x94B JUMP JUMPDEST SWAP1 POP SWAP2 SWAP1 POP JUMP JUMPDEST PUSH1 0x0 PUSH1 0x20 DUP3 ADD SWAP1 POP PUSH2 0xA54 PUSH1 0x0 DUP4 ADD DUP5 PUSH2 0x96E JUMP JUMPDEST SWAP3 SWAP2 POP POP JUMP JUMPDEST PUSH1 0x0 PUSH2 0xA64 PUSH2 0xA75 JUMP JUMPDEST SWAP1 POP PUSH2 0xA70 DUP3 DUP3 PUSH2 0xC06 JUMP JUMPDEST SWAP2 SWAP1 POP JUMP JUMPDEST PUSH1 0x0 PUSH1 0x40 MLOAD SWAP1 POP SWAP1 JUMP JUMPDEST PUSH1 0x0 PUSH8 0xFFFFFFFFFFFFFFFF DUP3 GT ISZERO PUSH2 0xA9A JUMPI PUSH2 0xA99 PUSH2 0xC95 JUMP JUMPDEST JUMPDEST PUSH2 0xAA3 DUP3 PUSH2 0xCD8 JUMP JUMPDEST SWAP1 POP PUSH1 0x20 DUP2 ADD SWAP1 POP SWAP2 SWAP1 POP JUMP JUMPDEST PUSH1 0x0 DUP2 MLOAD SWAP1 POP SWAP2 SWAP1 POP JUMP JUMPDEST PUSH1 0x0 DUP3 DUP3 MSTORE PUSH1 0x20 DUP3 ADD SWAP1 POP SWAP3 SWAP2 POP POP JUMP JUMPDEST PUSH1 0x0 PUSH2 0xAD7 DUP3 PUSH2 0xB88 JUMP JUMPDEST SWAP2 POP PUSH2 0xAE2 DUP4 PUSH2 0xB88 JUMP JUMPDEST SWAP3 POP DUP3 PUSH32 0xFFFFFFFFFFFFFFFFFFFFFFFFFFFFFFFFFFFFFFFFFFFFFFFFFFFFFFFFFFFFFFFF SUB DUP3 GT ISZERO PUSH2 0xB17 JUMPI PUSH2 0xB16 PUSH2 0xC37 JUMP JUMPDEST JUMPDEST DUP3 DUP3 ADD SWAP1 POP SWAP3 SWAP2 POP POP JUMP JUMPDEST PUSH1 0x0 PUSH2 0xB2D DUP3 PUSH2 0xB88 JUMP JUMPDEST SWAP2 POP PUSH2 0xB38 DUP4 PUSH2 0xB88 JUMP JUMPDEST SWAP3 POP DUP3 DUP3 LT ISZERO PUSH2 0xB4B JUMPI PUSH2 0xB4A PUSH2 0xC37 JUMP JUMPDEST JUMPDEST DUP3 DUP3 SUB SWAP1 POP SWAP3 SWAP2 POP POP JUMP JUMPDEST PUSH1 0x0 PUSH2 0xB61 DUP3 PUSH2 0xB68 JUMP JUMPDEST SWAP1 POP SWAP2 SWAP1 POP JUMP JUMPDEST PUSH1 0x0 PUSH20 0xFFFFFFFFFFFFFFFFFFFFFFFFFFFFFFFFFFFFFFFF DUP3 AND SWAP1 POP SWAP2 SWAP1 POP JUMP JUMPDEST PUSH1 0x0 DUP2 SWAP1 POP SWAP2 SWAP1 POP JUMP JUMPDEST DUP3 DUP2 DUP4 CALLDATACOPY PUSH1 0x0 DUP4 DUP4 ADD MSTORE POP POP POP JUMP JUMPDEST PUSH1 0x0 JUMPDEST DUP4 DUP2 LT ISZERO PUSH2 0xBBF JUMPI DUP1 DUP3 ADD MLOAD DUP2 DUP5 ADD MSTORE PUSH1 0x20 DUP2 ADD SWAP1 POP PUSH2 0xBA4 JUMP JUMPDEST DUP4 DUP2 GT ISZERO PUSH2 0xBCE JUMPI PUSH1 0x0 DUP5 DUP5 ADD MSTORE JUMPDEST POP POP POP POP JUMP JUMPDEST PUSH1 0x0 PUSH1 0x2 DUP3 DIV SWAP1 POP PUSH1 0x1 DUP3 AND DUP1 PUSH2 0xBEC JUMPI PUSH1 0x7F DUP3 AND SWAP2 POP JUMPDEST PUSH1 0x20 DUP3 LT DUP2 EQ ISZERO PUSH2 0xC00 JUMPI PUSH2 0xBFF PUSH2 0xC66 JUMP JUMPDEST JUMPDEST POP SWAP2 SWAP1 POP JUMP JUMPDEST PUSH2 0xC0F DUP3 PUSH2 0xCD8 JUMP JUMPDEST DUP2 ADD DUP2 DUP2 LT PUSH8 0xFFFFFFFFFFFFFFFF DUP3 GT OR ISZERO PUSH2 0xC2E JUMPI PUSH2 0xC2D PUSH2 0xC95 JUMP JUMPDEST JUMPDEST DUP1 PUSH1 0x40 MSTORE POP POP POP JUMP JUMPDEST PUSH32 0x4E487B7100000000000000000000000000000000000000000000000000000000 PUSH1 0x0 MSTORE PUSH1 0x11 PUSH1 0x4 MSTORE PUSH1 0x24 PUSH1 0x0 REVERT JUMPDEST PUSH32 0x4E487B7100000000000000000000000000000000000000000000000000000000 PUSH1 0x0 MSTORE PUSH1 0x22 PUSH1 0x4 MSTORE PUSH1 0x24 PUSH1 0x0 REVERT JUMPDEST PUSH32 0x4E487B7100000000000000000000000000000000000000000000000000000000 PUSH1 0x0 MSTORE PUSH1 0x41 PUSH1 0x4 MSTORE PUSH1 0x24 PUSH1 0x0 REVERT JUMPDEST PUSH1 0x0 DUP1 REVERT JUMPDEST PUSH1 0x0 DUP1 REVERT JUMPDEST PUSH1 0x0 DUP1 REVERT JUMPDEST PUSH1 0x0 DUP1 REVERT JUMPDEST PUSH1 0x0 PUSH1 0x1F NOT PUSH1 0x1F DUP4 ADD AND SWAP1 POP SWAP2 SWAP1 POP JUMP JUMPDEST PUSH32 0x50726F66696C6520646F6573206E6F7420657869737400000000000000000000 PUSH1 0x0 DUP3 ADD MSTORE POP JUMP JUMPDEST PUSH32 0x43616E6E6F7420637265617465206D6F7265207468616E20312070726F66696C PUSH1 0x0 DUP3 ADD MSTORE PUSH32 0x6500000000000000000000000000000000000000000000000000000000000000 PUSH1 0x20 DUP3 ADD MSTORE POP JUMP JUMPDEST PUSH2 0xD6A DUP2 PUSH2 0xB56 JUMP JUMPDEST DUP2 EQ PUSH2 0xD75 JUMPI PUSH1 0x0 DUP1 REVERT JUMPDEST POP JUMP INVALID LOG2 PUSH5 0x6970667358 0x22 SLT KECCAK256 DIFFICULTY 0xEA DUP1 0xE9 RETURNDATASIZE NUMBER 0xCD SWAP13 0xED PUSH28 0x1831413B66D5DA7DBF58224A5645AD5F26350A2E8D3A64736F6C6343 STOP ADDMOD SMOD STOP CALLER "
				},
				"gasEstimates": {
					"creation": {
						"codeDepositCost": "700400",
						"executionCost": "5740",
						"totalCost": "706140"
					},
					"external": {
						"createProfile(string,string,address)": "infinite",
						"deleteProfile(address)": "infinite",
						"getName(address)": "infinite",
						"numProfile()": "2407",
						"updateProfileName(string,string,address)": "infinite"
					}
				},
				"methodIdentifiers": {
					"createProfile(string,string,address)": "b3ed9b4c",
					"deleteProfile(address)": "a0441f29",
					"getName(address)": "5fd4b08a",
					"numProfile()": "16913469",
					"updateProfileName(string,string,address)": "b69471e7"
				}
			},
			"userdoc": {
				"kind": "user",
				"methods": {},
				"version": 1
			}
		}
	}
}