{
	"contracts/Conflict.sol": {
		"Conflict": {
			"abi": [
				{
					"anonymous": false,
					"inputs": [
						{
							"indexed": false,
							"internalType": "uint256",
							"name": "projectNumber",
							"type": "uint256"
						},
						{
							"indexed": false,
							"internalType": "uint256",
							"name": "serviceNumber",
							"type": "uint256"
						},
						{
							"indexed": false,
							"internalType": "uint256",
							"name": "milestoneNumber",
							"type": "uint256"
						},
						{
							"indexed": false,
							"internalType": "address",
							"name": "serviceRequester",
							"type": "address"
						},
						{
							"indexed": false,
							"internalType": "address",
							"name": "serviceProvider",
							"type": "address"
						},
						{
							"indexed": false,
							"internalType": "uint256",
							"name": "totalVoters",
							"type": "uint256"
						}
					],
					"name": "conflictCreated",
					"type": "event"
				},
				{
					"anonymous": false,
					"inputs": [
						{
							"indexed": false,
							"internalType": "uint256",
							"name": "projectNumber",
							"type": "uint256"
						},
						{
							"indexed": false,
							"internalType": "uint256",
							"name": "serviceNumber",
							"type": "uint256"
						},
						{
							"indexed": false,
							"internalType": "uint256",
							"name": "milestoneNumber",
							"type": "uint256"
						},
						{
							"indexed": false,
							"internalType": "address",
							"name": "serviceProvider",
							"type": "address"
						}
					],
					"name": "conflictRaised",
					"type": "event"
				},
				{
					"anonymous": false,
					"inputs": [
						{
							"indexed": false,
							"internalType": "uint256",
							"name": "projectNumber",
							"type": "uint256"
						},
						{
							"indexed": false,
							"internalType": "uint256",
							"name": "serviceNumber",
							"type": "uint256"
						},
						{
							"indexed": false,
							"internalType": "uint256",
							"name": "milestoneNumber",
							"type": "uint256"
						},
						{
							"indexed": false,
							"internalType": "uint8",
							"name": "result",
							"type": "uint8"
						}
					],
					"name": "conflictResult",
					"type": "event"
				},
				{
					"anonymous": false,
					"inputs": [
						{
							"indexed": false,
							"internalType": "uint256",
							"name": "projectNumber",
							"type": "uint256"
						},
						{
							"indexed": false,
							"internalType": "uint256",
							"name": "serviceNumber",
							"type": "uint256"
						},
						{
							"indexed": false,
							"internalType": "uint256",
							"name": "milestoneNumber",
							"type": "uint256"
						},
						{
							"indexed": false,
							"internalType": "address",
							"name": "voter",
							"type": "address"
						},
						{
							"indexed": false,
							"internalType": "uint8",
							"name": "vote",
							"type": "uint8"
						}
					],
					"name": "conflictVoted",
					"type": "event"
				},
				{
					"inputs": [
						{
							"internalType": "uint256",
							"name": "projectNumber",
							"type": "uint256"
						},
						{
							"internalType": "uint256",
							"name": "serviceNumber",
							"type": "uint256"
						},
						{
							"internalType": "uint256",
							"name": "milestoneNumber",
							"type": "uint256"
						},
						{
							"internalType": "string",
							"name": "title",
							"type": "string"
						},
						{
							"internalType": "string",
							"name": "description",
							"type": "string"
						},
						{
							"internalType": "address",
							"name": "serviceRequester",
							"type": "address"
						},
						{
							"internalType": "address",
							"name": "serviceProvider",
							"type": "address"
						},
						{
							"internalType": "uint256",
							"name": "totalVoters",
							"type": "uint256"
						}
					],
					"name": "createConflict",
					"outputs": [],
					"stateMutability": "nonpayable",
					"type": "function"
				},
				{
					"inputs": [
						{
							"internalType": "uint256",
							"name": "projectNumber",
							"type": "uint256"
						},
						{
							"internalType": "uint256",
							"name": "serviceNumber",
							"type": "uint256"
						},
						{
							"internalType": "uint256",
							"name": "milestoneNumber",
							"type": "uint256"
						}
					],
					"name": "deleteConflict",
					"outputs": [],
					"stateMutability": "nonpayable",
					"type": "function"
				},
				{
					"inputs": [
						{
							"internalType": "uint256",
							"name": "projectNumber",
							"type": "uint256"
						},
						{
							"internalType": "uint256",
							"name": "serviceNumber",
							"type": "uint256"
						},
						{
							"internalType": "uint256",
							"name": "milestoneNumber",
							"type": "uint256"
						}
					],
					"name": "getConflictStatus",
					"outputs": [
						{
							"internalType": "enum States.ConflictStatus",
							"name": "",
							"type": "uint8"
						}
					],
					"stateMutability": "view",
					"type": "function"
				},
				{
					"inputs": [
						{
							"internalType": "uint256",
							"name": "projectNumber",
							"type": "uint256"
						},
						{
							"internalType": "uint256",
							"name": "serviceNumber",
							"type": "uint256"
						},
						{
							"internalType": "uint256",
							"name": "milestoneNumber",
							"type": "uint256"
						}
					],
					"name": "getResults",
					"outputs": [
						{
							"internalType": "uint256",
							"name": "",
							"type": "uint256"
						}
					],
					"stateMutability": "view",
					"type": "function"
				},
				{
					"inputs": [
						{
							"internalType": "uint256",
							"name": "projectNumber",
							"type": "uint256"
						},
						{
							"internalType": "uint256",
							"name": "serviceNumber",
							"type": "uint256"
						},
						{
							"internalType": "uint256",
							"name": "milestoneNumber",
							"type": "uint256"
						}
					],
					"name": "getVotesCollected",
					"outputs": [
						{
							"internalType": "uint256",
							"name": "",
							"type": "uint256"
						}
					],
					"stateMutability": "view",
					"type": "function"
				},
				{
					"inputs": [
						{
							"internalType": "uint256",
							"name": "projectNumber",
							"type": "uint256"
						},
						{
							"internalType": "uint256",
							"name": "serviceNumber",
							"type": "uint256"
						},
						{
							"internalType": "uint256",
							"name": "milestoneNumber",
							"type": "uint256"
						}
					],
					"name": "getVotesforProvider",
					"outputs": [
						{
							"internalType": "uint256",
							"name": "",
							"type": "uint256"
						}
					],
					"stateMutability": "view",
					"type": "function"
				},
				{
					"inputs": [
						{
							"internalType": "uint256",
							"name": "projectNumber",
							"type": "uint256"
						},
						{
							"internalType": "uint256",
							"name": "serviceNumber",
							"type": "uint256"
						},
						{
							"internalType": "uint256",
							"name": "milestoneNumber",
							"type": "uint256"
						}
					],
					"name": "getVotesforRequester",
					"outputs": [
						{
							"internalType": "uint256",
							"name": "",
							"type": "uint256"
						}
					],
					"stateMutability": "view",
					"type": "function"
				},
				{
					"inputs": [
						{
							"internalType": "uint256",
							"name": "projectNumber",
							"type": "uint256"
						},
						{
							"internalType": "uint256",
							"name": "serviceNumber",
							"type": "uint256"
						},
						{
							"internalType": "uint256",
							"name": "milestoneNumber",
							"type": "uint256"
						}
					],
					"name": "startVote",
					"outputs": [],
					"stateMutability": "nonpayable",
					"type": "function"
				},
				{
					"inputs": [
						{
							"internalType": "uint256",
							"name": "projectNumber",
							"type": "uint256"
						},
						{
							"internalType": "uint256",
							"name": "serviceNumber",
							"type": "uint256"
						},
						{
							"internalType": "uint256",
							"name": "milestoneNumber",
							"type": "uint256"
						},
						{
							"internalType": "string",
							"name": "title",
							"type": "string"
						},
						{
							"internalType": "string",
							"name": "description",
							"type": "string"
						}
					],
					"name": "updateConflict",
					"outputs": [],
					"stateMutability": "nonpayable",
					"type": "function"
				},
				{
					"inputs": [
						{
							"internalType": "uint256",
							"name": "projectNumber",
							"type": "uint256"
						},
						{
							"internalType": "uint256",
							"name": "serviceNumber",
							"type": "uint256"
						},
						{
							"internalType": "uint256",
							"name": "milestoneNumber",
							"type": "uint256"
						},
						{
							"internalType": "address",
							"name": "_from",
							"type": "address"
						},
						{
							"internalType": "uint8",
							"name": "vote",
							"type": "uint8"
						}
					],
					"name": "voteConflict",
					"outputs": [
						{
							"internalType": "bool",
							"name": "",
							"type": "bool"
						}
					],
					"stateMutability": "nonpayable",
					"type": "function"
				}
			],
			"devdoc": {
				"kind": "dev",
				"methods": {},
				"version": 1
			},
			"evm": {
				"assembly": "    /* \"contracts/Conflict.sol\":192:9178  contract Conflict {... */\n  mstore(0x40, 0x80)\n  callvalue\n  dup1\n  iszero\n  tag_1\n  jumpi\n  0x00\n  dup1\n  revert\ntag_1:\n  pop\n  dataSize(sub_0)\n  dup1\n  dataOffset(sub_0)\n  0x00\n  codecopy\n  0x00\n  return\nstop\n\nsub_0: assembly {\n        /* \"contracts/Conflict.sol\":192:9178  contract Conflict {... */\n      mstore(0x40, 0x80)\n      callvalue\n      dup1\n      iszero\n      tag_1\n      jumpi\n      0x00\n      dup1\n      revert\n    tag_1:\n      pop\n      jumpi(tag_2, lt(calldatasize, 0x04))\n      shr(0xe0, calldataload(0x00))\n      dup1\n      0xc171bdf7\n      gt\n      tag_13\n      jumpi\n      dup1\n      0xc171bdf7\n      eq\n      tag_8\n      jumpi\n      dup1\n      0xcb4389ce\n      eq\n      tag_9\n      jumpi\n      dup1\n      0xd1e992a7\n      eq\n      tag_10\n      jumpi\n      dup1\n      0xe3d87718\n      eq\n      tag_11\n      jumpi\n      dup1\n      0xe62fac27\n      eq\n      tag_12\n      jumpi\n      jump(tag_2)\n    tag_13:\n      dup1\n      0x3f489f\n      eq\n      tag_3\n      jumpi\n      dup1\n      0x0366cef2\n      eq\n      tag_4\n      jumpi\n      dup1\n      0x3c45fe31\n      eq\n      tag_5\n      jumpi\n      dup1\n      0x9ac78879\n      eq\n      tag_6\n      jumpi\n      dup1\n      0x9c87a5e9\n      eq\n      tag_7\n      jumpi\n    tag_2:\n      0x00\n      dup1\n      revert\n        /* \"contracts/Conflict.sol\":4840:5307  function deleteConflict(uint256 projectNumber, uint256 serviceNumber, uint256 milestoneNumber) external ... */\n    tag_3:\n      tag_14\n      0x04\n      dup1\n      calldatasize\n      sub\n      dup2\n      add\n      swap1\n      tag_15\n      swap2\n      swap1\n      tag_16\n      jump\t// in\n    tag_15:\n      tag_17\n      jump\t// in\n    tag_14:\n      stop\n        /* \"contracts/Conflict.sol\":7610:8241  function getResults(uint256 projectNumber, uint256 serviceNumber, uint256 milestoneNumber) public view returns (uint) {... */\n    tag_4:\n      tag_18\n      0x04\n      dup1\n      calldatasize\n      sub\n      dup2\n      add\n      swap1\n      tag_19\n      swap2\n      swap1\n      tag_16\n      jump\t// in\n    tag_19:\n      tag_20\n      jump\t// in\n    tag_18:\n      mload(0x40)\n      tag_21\n      swap2\n      swap1\n      tag_22\n      jump\t// in\n    tag_21:\n      mload(0x40)\n      dup1\n      swap2\n      sub\n      swap1\n      return\n        /* \"contracts/Conflict.sol\":8490:8713  function getVotesCollected(uint256 projectNumber, uint256 serviceNumber, uint256 milestoneNumber) public view returns (uint256) {... */\n    tag_5:\n      tag_23\n      0x04\n      dup1\n      calldatasize\n      sub\n      dup2\n      add\n      swap1\n      tag_24\n      swap2\n      swap1\n      tag_16\n      jump\t// in\n    tag_24:\n      tag_25\n      jump\t// in\n    tag_23:\n      mload(0x40)\n      tag_26\n      swap2\n      swap1\n      tag_22\n      jump\t// in\n    tag_26:\n      mload(0x40)\n      dup1\n      swap2\n      sub\n      swap1\n      return\n        /* \"contracts/Conflict.sol\":8951:9175  function getVotesforProvider(uint256 projectNumber, uint256 serviceNumber, uint256 milestoneNumber) public view returns (uint256) {... */\n    tag_6:\n      tag_27\n      0x04\n      dup1\n      calldatasize\n      sub\n      dup2\n      add\n      swap1\n      tag_28\n      swap2\n      swap1\n      tag_16\n      jump\t// in\n    tag_28:\n      tag_29\n      jump\t// in\n    tag_27:\n      mload(0x40)\n      tag_30\n      swap2\n      swap1\n      tag_22\n      jump\t// in\n    tag_30:\n      mload(0x40)\n      dup1\n      swap2\n      sub\n      swap1\n      return\n        /* \"contracts/Conflict.sol\":5356:5725  function startVote(uint256 projectNumber,uint256 serviceNumber, uint256 milestoneNumber) external ... */\n    tag_7:\n      tag_31\n      0x04\n      dup1\n      calldatasize\n      sub\n      dup2\n      add\n      swap1\n      tag_32\n      swap2\n      swap1\n      tag_16\n      jump\t// in\n    tag_32:\n      tag_33\n      jump\t// in\n    tag_31:\n      stop\n        /* \"contracts/Conflict.sol\":5770:7569  function voteConflict(uint256 projectNumber, uint256 serviceNumber, uint256 milestoneNumber, address _from, uint8 vote) public ... */\n    tag_8:\n      tag_34\n      0x04\n      dup1\n      calldatasize\n      sub\n      dup2\n      add\n      swap1\n      tag_35\n      swap2\n      swap1\n      tag_36\n      jump\t// in\n    tag_35:\n      tag_37\n      jump\t// in\n    tag_34:\n      mload(0x40)\n      tag_38\n      swap2\n      swap1\n      tag_39\n      jump\t// in\n    tag_38:\n      mload(0x40)\n      dup1\n      swap2\n      sub\n      swap1\n      return\n        /* \"contracts/Conflict.sol\":8247:8484  function getConflictStatus(uint256 projectNumber, uint256 serviceNumber, uint256 milestoneNumber) public view returns (States.ConflictStatus) {... */\n    tag_9:\n      tag_40\n      0x04\n      dup1\n      calldatasize\n      sub\n      dup2\n      add\n      swap1\n      tag_41\n      swap2\n      swap1\n      tag_16\n      jump\t// in\n    tag_41:\n      tag_42\n      jump\t// in\n    tag_40:\n      mload(0x40)\n      tag_43\n      swap2\n      swap1\n      tag_44\n      jump\t// in\n    tag_43:\n      mload(0x40)\n      dup1\n      swap2\n      sub\n      swap1\n      return\n        /* \"contracts/Conflict.sol\":4297:4792  function updateConflict(uint256 projectNumber, uint256 serviceNumber, uint256 milestoneNumber, string memory title, string memory description) external ... */\n    tag_10:\n      tag_45\n      0x04\n      dup1\n      calldatasize\n      sub\n      dup2\n      add\n      swap1\n      tag_46\n      swap2\n      swap1\n      tag_47\n      jump\t// in\n    tag_46:\n      tag_48\n      jump\t// in\n    tag_45:\n      stop\n        /* \"contracts/Conflict.sol\":8719:8945  function getVotesforRequester(uint256 projectNumber, uint256 serviceNumber, uint256 milestoneNumber) public view returns (uint256) {... */\n    tag_11:\n      tag_49\n      0x04\n      dup1\n      calldatasize\n      sub\n      dup2\n      add\n      swap1\n      tag_50\n      swap2\n      swap1\n      tag_16\n      jump\t// in\n    tag_50:\n      tag_51\n      jump\t// in\n    tag_49:\n      mload(0x40)\n      tag_52\n      swap2\n      swap1\n      tag_22\n      jump\t// in\n    tag_52:\n      mload(0x40)\n      dup1\n      swap2\n      sub\n      swap1\n      return\n        /* \"contracts/Conflict.sol\":2867:4250  function createConflict(uint256 projectNumber, uint256 serviceNumber, uint256 milestoneNumber, string memory title, string memory description, address  serviceRequester, address serviceProvider, uint256 totalVoters) public ... */\n    tag_12:\n      tag_53\n      0x04\n      dup1\n      calldatasize\n      sub\n      dup2\n      add\n      swap1\n      tag_54\n      swap2\n      swap1\n      tag_55\n      jump\t// in\n    tag_54:\n      tag_56\n      jump\t// in\n    tag_53:\n      stop\n        /* \"contracts/Conflict.sol\":4840:5307  function deleteConflict(uint256 projectNumber, uint256 serviceNumber, uint256 milestoneNumber) external ... */\n    tag_17:\n        /* \"contracts/Conflict.sol\":4969:4982  projectNumber */\n      dup3\n        /* \"contracts/Conflict.sol\":4984:4997  serviceNumber */\n      dup3\n        /* \"contracts/Conflict.sol\":4999:5014  milestoneNumber */\n      dup3\n        /* \"contracts/Conflict.sol\":1585:1594  conflicts */\n      0x00\n        /* \"contracts/Conflict.sol\":1585:1609  conflicts[projectNumber] */\n      dup1\n        /* \"contracts/Conflict.sol\":1595:1608  projectNumber */\n      dup5\n        /* \"contracts/Conflict.sol\":1585:1609  conflicts[projectNumber] */\n      dup2\n      mstore\n      0x20\n      add\n      swap1\n      dup2\n      mstore\n      0x20\n      add\n      0x00\n      keccak256\n        /* \"contracts/Conflict.sol\":1585:1624  conflicts[projectNumber][serviceNumber] */\n      0x00\n        /* \"contracts/Conflict.sol\":1610:1623  serviceNumber */\n      dup4\n        /* \"contracts/Conflict.sol\":1585:1624  conflicts[projectNumber][serviceNumber] */\n      dup2\n      mstore\n      0x20\n      add\n      swap1\n      dup2\n      mstore\n      0x20\n      add\n      0x00\n      keccak256\n        /* \"contracts/Conflict.sol\":1585:1641  conflicts[projectNumber][serviceNumber][milestoneNumber] */\n      0x00\n        /* \"contracts/Conflict.sol\":1625:1640  milestoneNumber */\n      dup3\n        /* \"contracts/Conflict.sol\":1585:1641  conflicts[projectNumber][serviceNumber][milestoneNumber] */\n      dup2\n      mstore\n      0x20\n      add\n      swap1\n      dup2\n      mstore\n      0x20\n      add\n      0x00\n      keccak256\n        /* \"contracts/Conflict.sol\":1585:1647  conflicts[projectNumber][serviceNumber][milestoneNumber].exist */\n      0x0b\n      add\n      0x00\n      swap1\n      sload\n      swap1\n      0x0100\n      exp\n      swap1\n      div\n      0xff\n      and\n        /* \"contracts/Conflict.sol\":1577:1681  require(conflicts[projectNumber][serviceNumber][milestoneNumber].exist, \"This Conflict does not exist.\") */\n      tag_58\n      jumpi\n      mload(0x40)\n      0x08c379a000000000000000000000000000000000000000000000000000000000\n      dup2\n      mstore\n      0x04\n      add\n      tag_59\n      swap1\n      tag_60\n      jump\t// in\n    tag_59:\n      mload(0x40)\n      dup1\n      swap2\n      sub\n      swap1\n      revert\n    tag_58:\n        /* \"contracts/Conflict.sol\":5032:5045  projectNumber */\n      dup6\n        /* \"contracts/Conflict.sol\":5047:5060  serviceNumber */\n      dup6\n        /* \"contracts/Conflict.sol\":5062:5077  milestoneNumber */\n      dup6\n        /* \"contracts/Conflict.sol\":5078:5107  States.ConflictStatus.created */\n      0x00\n        /* \"contracts/Conflict.sol\":1914:1919  state */\n      dup1\n        /* \"contracts/Conflict.sol\":1839:1919  conflicts[projectNumber][serviceNumber][milestoneNumber].conflictStatus == state */\n      0x03\n      dup2\n      gt\n      iszero\n      tag_62\n      jumpi\n      tag_63\n      tag_64\n      jump\t// in\n    tag_63:\n    tag_62:\n        /* \"contracts/Conflict.sol\":1839:1848  conflicts */\n      0x00\n        /* \"contracts/Conflict.sol\":1839:1863  conflicts[projectNumber] */\n      dup1\n        /* \"contracts/Conflict.sol\":1849:1862  projectNumber */\n      dup7\n        /* \"contracts/Conflict.sol\":1839:1863  conflicts[projectNumber] */\n      dup2\n      mstore\n      0x20\n      add\n      swap1\n      dup2\n      mstore\n      0x20\n      add\n      0x00\n      keccak256\n        /* \"contracts/Conflict.sol\":1839:1878  conflicts[projectNumber][serviceNumber] */\n      0x00\n        /* \"contracts/Conflict.sol\":1864:1877  serviceNumber */\n      dup6\n        /* \"contracts/Conflict.sol\":1839:1878  conflicts[projectNumber][serviceNumber] */\n      dup2\n      mstore\n      0x20\n      add\n      swap1\n      dup2\n      mstore\n      0x20\n      add\n      0x00\n      keccak256\n        /* \"contracts/Conflict.sol\":1839:1895  conflicts[projectNumber][serviceNumber][milestoneNumber] */\n      0x00\n        /* \"contracts/Conflict.sol\":1879:1894  milestoneNumber */\n      dup5\n        /* \"contracts/Conflict.sol\":1839:1895  conflicts[projectNumber][serviceNumber][milestoneNumber] */\n      dup2\n      mstore\n      0x20\n      add\n      swap1\n      dup2\n      mstore\n      0x20\n      add\n      0x00\n      keccak256\n        /* \"contracts/Conflict.sol\":1839:1910  conflicts[projectNumber][serviceNumber][milestoneNumber].conflictStatus */\n      0x06\n      add\n      0x14\n      swap1\n      sload\n      swap1\n      0x0100\n      exp\n      swap1\n      div\n      0xff\n      and\n        /* \"contracts/Conflict.sol\":1839:1919  conflicts[projectNumber][serviceNumber][milestoneNumber].conflictStatus == state */\n      0x03\n      dup2\n      gt\n      iszero\n      tag_65\n      jumpi\n      tag_66\n      tag_64\n      jump\t// in\n    tag_66:\n    tag_65:\n      eq\n        /* \"contracts/Conflict.sol\":1831:1956  require(conflicts[projectNumber][serviceNumber][milestoneNumber].conflictStatus == state, \"Cannot carry out this operation!\") */\n      tag_67\n      jumpi\n      mload(0x40)\n      0x08c379a000000000000000000000000000000000000000000000000000000000\n      dup2\n      mstore\n      0x04\n      add\n      tag_68\n      swap1\n      tag_69\n      jump\t// in\n    tag_68:\n      mload(0x40)\n      dup1\n      swap2\n      sub\n      swap1\n      revert\n    tag_67:\n        /* \"contracts/Conflict.sol\":5188:5193  false */\n      0x00\n        /* \"contracts/Conflict.sol\":5123:5132  conflicts */\n      dup1\n        /* \"contracts/Conflict.sol\":5123:5147  conflicts[projectNumber] */\n      0x00\n        /* \"contracts/Conflict.sol\":5133:5146  projectNumber */\n      dup13\n        /* \"contracts/Conflict.sol\":5123:5147  conflicts[projectNumber] */\n      dup2\n      mstore\n      0x20\n      add\n      swap1\n      dup2\n      mstore\n      0x20\n      add\n      0x00\n      keccak256\n        /* \"contracts/Conflict.sol\":5123:5162  conflicts[projectNumber][serviceNumber] */\n      0x00\n        /* \"contracts/Conflict.sol\":5148:5161  serviceNumber */\n      dup12\n        /* \"contracts/Conflict.sol\":5123:5162  conflicts[projectNumber][serviceNumber] */\n      dup2\n      mstore\n      0x20\n      add\n      swap1\n      dup2\n      mstore\n      0x20\n      add\n      0x00\n      keccak256\n        /* \"contracts/Conflict.sol\":5123:5179  conflicts[projectNumber][serviceNumber][milestoneNumber] */\n      0x00\n        /* \"contracts/Conflict.sol\":5163:5178  milestoneNumber */\n      dup11\n        /* \"contracts/Conflict.sol\":5123:5179  conflicts[projectNumber][serviceNumber][milestoneNumber] */\n      dup2\n      mstore\n      0x20\n      add\n      swap1\n      dup2\n      mstore\n      0x20\n      add\n      0x00\n      keccak256\n        /* \"contracts/Conflict.sol\":5123:5185  conflicts[projectNumber][serviceNumber][milestoneNumber].exist */\n      0x0b\n      add\n      0x00\n        /* \"contracts/Conflict.sol\":5123:5193  conflicts[projectNumber][serviceNumber][milestoneNumber].exist = false */\n      0x0100\n      exp\n      dup2\n      sload\n      dup2\n      0xff\n      mul\n      not\n      and\n      swap1\n      dup4\n      iszero\n      iszero\n      mul\n      or\n      swap1\n      sstore\n      pop\n        /* \"contracts/Conflict.sol\":5205:5294  setState(projectNumber, serviceNumber, milestoneNumber, States.ConflictStatus.terminated) */\n      tag_71\n        /* \"contracts/Conflict.sol\":5214:5227  projectNumber */\n      dup11\n        /* \"contracts/Conflict.sol\":5229:5242  serviceNumber */\n      dup11\n        /* \"contracts/Conflict.sol\":5244:5259  milestoneNumber */\n      dup11\n        /* \"contracts/Conflict.sol\":5261:5293  States.ConflictStatus.terminated */\n      0x03\n        /* \"contracts/Conflict.sol\":5205:5213  setState */\n      tag_72\n        /* \"contracts/Conflict.sol\":5205:5294  setState(projectNumber, serviceNumber, milestoneNumber, States.ConflictStatus.terminated) */\n      jump\t// in\n    tag_71:\n        /* \"contracts/Conflict.sol\":1691:1692  _ */\n      pop\n      pop\n      pop\n      pop\n        /* \"contracts/Conflict.sol\":4840:5307  function deleteConflict(uint256 projectNumber, uint256 serviceNumber, uint256 milestoneNumber) external ... */\n      pop\n      pop\n      pop\n      pop\n      pop\n      pop\n      jump\t// out\n        /* \"contracts/Conflict.sol\":7610:8241  function getResults(uint256 projectNumber, uint256 serviceNumber, uint256 milestoneNumber) public view returns (uint) {... */\n    tag_20:\n        /* \"contracts/Conflict.sol\":7722:7726  uint */\n      0x00\n        /* \"contracts/Conflict.sol\":7821:7830  conflicts */\n      dup1\n        /* \"contracts/Conflict.sol\":7821:7845  conflicts[projectNumber] */\n      0x00\n        /* \"contracts/Conflict.sol\":7831:7844  projectNumber */\n      dup6\n        /* \"contracts/Conflict.sol\":7821:7845  conflicts[projectNumber] */\n      dup2\n      mstore\n      0x20\n      add\n      swap1\n      dup2\n      mstore\n      0x20\n      add\n      0x00\n      keccak256\n        /* \"contracts/Conflict.sol\":7821:7860  conflicts[projectNumber][serviceNumber] */\n      0x00\n        /* \"contracts/Conflict.sol\":7846:7859  serviceNumber */\n      dup5\n        /* \"contracts/Conflict.sol\":7821:7860  conflicts[projectNumber][serviceNumber] */\n      dup2\n      mstore\n      0x20\n      add\n      swap1\n      dup2\n      mstore\n      0x20\n      add\n      0x00\n      keccak256\n        /* \"contracts/Conflict.sol\":7821:7877  conflicts[projectNumber][serviceNumber][milestoneNumber] */\n      0x00\n        /* \"contracts/Conflict.sol\":7861:7876  milestoneNumber */\n      dup4\n        /* \"contracts/Conflict.sol\":7821:7877  conflicts[projectNumber][serviceNumber][milestoneNumber] */\n      dup2\n      mstore\n      0x20\n      add\n      swap1\n      dup2\n      mstore\n      0x20\n      add\n      0x00\n      keccak256\n        /* \"contracts/Conflict.sol\":7821:7884  conflicts[projectNumber][serviceNumber][milestoneNumber].voters */\n      0x07\n      add\n      sload\n        /* \"contracts/Conflict.sol\":7746:7755  conflicts */\n      0x00\n        /* \"contracts/Conflict.sol\":7746:7770  conflicts[projectNumber] */\n      dup1\n        /* \"contracts/Conflict.sol\":7756:7769  projectNumber */\n      dup7\n        /* \"contracts/Conflict.sol\":7746:7770  conflicts[projectNumber] */\n      dup2\n      mstore\n      0x20\n      add\n      swap1\n      dup2\n      mstore\n      0x20\n      add\n      0x00\n      keccak256\n        /* \"contracts/Conflict.sol\":7746:7785  conflicts[projectNumber][serviceNumber] */\n      0x00\n        /* \"contracts/Conflict.sol\":7771:7784  serviceNumber */\n      dup6\n        /* \"contracts/Conflict.sol\":7746:7785  conflicts[projectNumber][serviceNumber] */\n      dup2\n      mstore\n      0x20\n      add\n      swap1\n      dup2\n      mstore\n      0x20\n      add\n      0x00\n      keccak256\n        /* \"contracts/Conflict.sol\":7746:7802  conflicts[projectNumber][serviceNumber][milestoneNumber] */\n      0x00\n        /* \"contracts/Conflict.sol\":7786:7801  milestoneNumber */\n      dup5\n        /* \"contracts/Conflict.sol\":7746:7802  conflicts[projectNumber][serviceNumber][milestoneNumber] */\n      dup2\n      mstore\n      0x20\n      add\n      swap1\n      dup2\n      mstore\n      0x20\n      add\n      0x00\n      keccak256\n        /* \"contracts/Conflict.sol\":7746:7817  conflicts[projectNumber][serviceNumber][milestoneNumber].votesCollected */\n      0x08\n      add\n      sload\n        /* \"contracts/Conflict.sol\":7746:7884  conflicts[projectNumber][serviceNumber][milestoneNumber].votesCollected == conflicts[projectNumber][serviceNumber][milestoneNumber].voters */\n      eq\n        /* \"contracts/Conflict.sol\":7738:7963  require(conflicts[projectNumber][serviceNumber][milestoneNumber].votesCollected == conflicts[projectNumber][serviceNumber][milestoneNumber].voters, \"Not everyone has voted, please prompt all other members of project to vote\") */\n      tag_74\n      jumpi\n      mload(0x40)\n      0x08c379a000000000000000000000000000000000000000000000000000000000\n      dup2\n      mstore\n      0x04\n      add\n      tag_75\n      swap1\n      tag_76\n      jump\t// in\n    tag_75:\n      mload(0x40)\n      dup1\n      swap2\n      sub\n      swap1\n      revert\n    tag_74:\n        /* \"contracts/Conflict.sol\":8056:8087  States.ConflictStatus.completed */\n      0x02\n        /* \"contracts/Conflict.sol\":7981:8087  conflicts[projectNumber][serviceNumber][milestoneNumber].conflictStatus == States.ConflictStatus.completed */\n      0x03\n      dup2\n      gt\n      iszero\n      tag_77\n      jumpi\n      tag_78\n      tag_64\n      jump\t// in\n    tag_78:\n    tag_77:\n        /* \"contracts/Conflict.sol\":7981:7990  conflicts */\n      0x00\n        /* \"contracts/Conflict.sol\":7981:8005  conflicts[projectNumber] */\n      dup1\n        /* \"contracts/Conflict.sol\":7991:8004  projectNumber */\n      dup7\n        /* \"contracts/Conflict.sol\":7981:8005  conflicts[projectNumber] */\n      dup2\n      mstore\n      0x20\n      add\n      swap1\n      dup2\n      mstore\n      0x20\n      add\n      0x00\n      keccak256\n        /* \"contracts/Conflict.sol\":7981:8020  conflicts[projectNumber][serviceNumber] */\n      0x00\n        /* \"contracts/Conflict.sol\":8006:8019  serviceNumber */\n      dup6\n        /* \"contracts/Conflict.sol\":7981:8020  conflicts[projectNumber][serviceNumber] */\n      dup2\n      mstore\n      0x20\n      add\n      swap1\n      dup2\n      mstore\n      0x20\n      add\n      0x00\n      keccak256\n        /* \"contracts/Conflict.sol\":7981:8037  conflicts[projectNumber][serviceNumber][milestoneNumber] */\n      0x00\n        /* \"contracts/Conflict.sol\":8021:8036  milestoneNumber */\n      dup5\n        /* \"contracts/Conflict.sol\":7981:8037  conflicts[projectNumber][serviceNumber][milestoneNumber] */\n      dup2\n      mstore\n      0x20\n      add\n      swap1\n      dup2\n      mstore\n      0x20\n      add\n      0x00\n      keccak256\n        /* \"contracts/Conflict.sol\":7981:8052  conflicts[projectNumber][serviceNumber][milestoneNumber].conflictStatus */\n      0x06\n      add\n      0x14\n      swap1\n      sload\n      swap1\n      0x0100\n      exp\n      swap1\n      div\n      0xff\n      and\n        /* \"contracts/Conflict.sol\":7981:8087  conflicts[projectNumber][serviceNumber][milestoneNumber].conflictStatus == States.ConflictStatus.completed */\n      0x03\n      dup2\n      gt\n      iszero\n      tag_79\n      jumpi\n      tag_80\n      tag_64\n      jump\t// in\n    tag_80:\n    tag_79:\n      eq\n        /* \"contracts/Conflict.sol\":7973:8153  require(conflicts[projectNumber][serviceNumber][milestoneNumber].conflictStatus == States.ConflictStatus.completed, \"Voting has not been completed yet. Please wait for it to end.\") */\n      tag_81\n      jumpi\n      mload(0x40)\n      0x08c379a000000000000000000000000000000000000000000000000000000000\n      dup2\n      mstore\n      0x04\n      add\n      tag_82\n      swap1\n      tag_83\n      jump\t// in\n    tag_82:\n      mload(0x40)\n      dup1\n      swap2\n      sub\n      swap1\n      revert\n    tag_81:\n        /* \"contracts/Conflict.sol\":8171:8180  conflicts */\n      0x00\n        /* \"contracts/Conflict.sol\":8171:8195  conflicts[projectNumber] */\n      dup1\n        /* \"contracts/Conflict.sol\":8181:8194  projectNumber */\n      dup6\n        /* \"contracts/Conflict.sol\":8171:8195  conflicts[projectNumber] */\n      dup2\n      mstore\n      0x20\n      add\n      swap1\n      dup2\n      mstore\n      0x20\n      add\n      0x00\n      keccak256\n        /* \"contracts/Conflict.sol\":8171:8210  conflicts[projectNumber][serviceNumber] */\n      0x00\n        /* \"contracts/Conflict.sol\":8196:8209  serviceNumber */\n      dup5\n        /* \"contracts/Conflict.sol\":8171:8210  conflicts[projectNumber][serviceNumber] */\n      dup2\n      mstore\n      0x20\n      add\n      swap1\n      dup2\n      mstore\n      0x20\n      add\n      0x00\n      keccak256\n        /* \"contracts/Conflict.sol\":8171:8227  conflicts[projectNumber][serviceNumber][milestoneNumber] */\n      0x00\n        /* \"contracts/Conflict.sol\":8211:8226  milestoneNumber */\n      dup4\n        /* \"contracts/Conflict.sol\":8171:8227  conflicts[projectNumber][serviceNumber][milestoneNumber] */\n      dup2\n      mstore\n      0x20\n      add\n      swap1\n      dup2\n      mstore\n      0x20\n      add\n      0x00\n      keccak256\n        /* \"contracts/Conflict.sol\":8171:8234  conflicts[projectNumber][serviceNumber][milestoneNumber].result */\n      0x0b\n      add\n      0x01\n      swap1\n      sload\n      swap1\n      0x0100\n      exp\n      swap1\n      div\n      0xff\n      and\n        /* \"contracts/Conflict.sol\":8164:8234  return conflicts[projectNumber][serviceNumber][milestoneNumber].result */\n      0xff\n      and\n      swap1\n      pop\n        /* \"contracts/Conflict.sol\":7610:8241  function getResults(uint256 projectNumber, uint256 serviceNumber, uint256 milestoneNumber) public view returns (uint) {... */\n      swap4\n      swap3\n      pop\n      pop\n      pop\n      jump\t// out\n        /* \"contracts/Conflict.sol\":8490:8713  function getVotesCollected(uint256 projectNumber, uint256 serviceNumber, uint256 milestoneNumber) public view returns (uint256) {... */\n    tag_25:\n        /* \"contracts/Conflict.sol\":8609:8616  uint256 */\n      0x00\n        /* \"contracts/Conflict.sol\":8635:8644  conflicts */\n      dup1\n        /* \"contracts/Conflict.sol\":8635:8659  conflicts[projectNumber] */\n      0x00\n        /* \"contracts/Conflict.sol\":8645:8658  projectNumber */\n      dup6\n        /* \"contracts/Conflict.sol\":8635:8659  conflicts[projectNumber] */\n      dup2\n      mstore\n      0x20\n      add\n      swap1\n      dup2\n      mstore\n      0x20\n      add\n      0x00\n      keccak256\n        /* \"contracts/Conflict.sol\":8635:8674  conflicts[projectNumber][serviceNumber] */\n      0x00\n        /* \"contracts/Conflict.sol\":8660:8673  serviceNumber */\n      dup5\n        /* \"contracts/Conflict.sol\":8635:8674  conflicts[projectNumber][serviceNumber] */\n      dup2\n      mstore\n      0x20\n      add\n      swap1\n      dup2\n      mstore\n      0x20\n      add\n      0x00\n      keccak256\n        /* \"contracts/Conflict.sol\":8635:8691  conflicts[projectNumber][serviceNumber][milestoneNumber] */\n      0x00\n        /* \"contracts/Conflict.sol\":8675:8690  milestoneNumber */\n      dup4\n        /* \"contracts/Conflict.sol\":8635:8691  conflicts[projectNumber][serviceNumber][milestoneNumber] */\n      dup2\n      mstore\n      0x20\n      add\n      swap1\n      dup2\n      mstore\n      0x20\n      add\n      0x00\n      keccak256\n        /* \"contracts/Conflict.sol\":8635:8706  conflicts[projectNumber][serviceNumber][milestoneNumber].votesCollected */\n      0x08\n      add\n      sload\n        /* \"contracts/Conflict.sol\":8628:8706  return conflicts[projectNumber][serviceNumber][milestoneNumber].votesCollected */\n      swap1\n      pop\n        /* \"contracts/Conflict.sol\":8490:8713  function getVotesCollected(uint256 projectNumber, uint256 serviceNumber, uint256 milestoneNumber) public view returns (uint256) {... */\n      swap4\n      swap3\n      pop\n      pop\n      pop\n      jump\t// out\n        /* \"contracts/Conflict.sol\":8951:9175  function getVotesforProvider(uint256 projectNumber, uint256 serviceNumber, uint256 milestoneNumber) public view returns (uint256) {... */\n    tag_29:\n        /* \"contracts/Conflict.sol\":9072:9079  uint256 */\n      0x00\n        /* \"contracts/Conflict.sol\":9098:9107  conflicts */\n      dup1\n        /* \"contracts/Conflict.sol\":9098:9122  conflicts[projectNumber] */\n      0x00\n        /* \"contracts/Conflict.sol\":9108:9121  projectNumber */\n      dup6\n        /* \"contracts/Conflict.sol\":9098:9122  conflicts[projectNumber] */\n      dup2\n      mstore\n      0x20\n      add\n      swap1\n      dup2\n      mstore\n      0x20\n      add\n      0x00\n      keccak256\n        /* \"contracts/Conflict.sol\":9098:9137  conflicts[projectNumber][serviceNumber] */\n      0x00\n        /* \"contracts/Conflict.sol\":9123:9136  serviceNumber */\n      dup5\n        /* \"contracts/Conflict.sol\":9098:9137  conflicts[projectNumber][serviceNumber] */\n      dup2\n      mstore\n      0x20\n      add\n      swap1\n      dup2\n      mstore\n      0x20\n      add\n      0x00\n      keccak256\n        /* \"contracts/Conflict.sol\":9098:9154  conflicts[projectNumber][serviceNumber][milestoneNumber] */\n      0x00\n        /* \"contracts/Conflict.sol\":9138:9153  milestoneNumber */\n      dup4\n        /* \"contracts/Conflict.sol\":9098:9154  conflicts[projectNumber][serviceNumber][milestoneNumber] */\n      dup2\n      mstore\n      0x20\n      add\n      swap1\n      dup2\n      mstore\n      0x20\n      add\n      0x00\n      keccak256\n        /* \"contracts/Conflict.sol\":9098:9168  conflicts[projectNumber][serviceNumber][milestoneNumber].providerVotes */\n      0x0a\n      add\n      sload\n        /* \"contracts/Conflict.sol\":9091:9168  return conflicts[projectNumber][serviceNumber][milestoneNumber].providerVotes */\n      swap1\n      pop\n        /* \"contracts/Conflict.sol\":8951:9175  function getVotesforProvider(uint256 projectNumber, uint256 serviceNumber, uint256 milestoneNumber) public view returns (uint256) {... */\n      swap4\n      swap3\n      pop\n      pop\n      pop\n      jump\t// out\n        /* \"contracts/Conflict.sol\":5356:5725  function startVote(uint256 projectNumber,uint256 serviceNumber, uint256 milestoneNumber) external ... */\n    tag_33:\n        /* \"contracts/Conflict.sol\":5479:5492  projectNumber */\n      dup3\n        /* \"contracts/Conflict.sol\":5494:5507  serviceNumber */\n      dup3\n        /* \"contracts/Conflict.sol\":5509:5524  milestoneNumber */\n      dup3\n        /* \"contracts/Conflict.sol\":1585:1594  conflicts */\n      0x00\n        /* \"contracts/Conflict.sol\":1585:1609  conflicts[projectNumber] */\n      dup1\n        /* \"contracts/Conflict.sol\":1595:1608  projectNumber */\n      dup5\n        /* \"contracts/Conflict.sol\":1585:1609  conflicts[projectNumber] */\n      dup2\n      mstore\n      0x20\n      add\n      swap1\n      dup2\n      mstore\n      0x20\n      add\n      0x00\n      keccak256\n        /* \"contracts/Conflict.sol\":1585:1624  conflicts[projectNumber][serviceNumber] */\n      0x00\n        /* \"contracts/Conflict.sol\":1610:1623  serviceNumber */\n      dup4\n        /* \"contracts/Conflict.sol\":1585:1624  conflicts[projectNumber][serviceNumber] */\n      dup2\n      mstore\n      0x20\n      add\n      swap1\n      dup2\n      mstore\n      0x20\n      add\n      0x00\n      keccak256\n        /* \"contracts/Conflict.sol\":1585:1641  conflicts[projectNumber][serviceNumber][milestoneNumber] */\n      0x00\n        /* \"contracts/Conflict.sol\":1625:1640  milestoneNumber */\n      dup3\n        /* \"contracts/Conflict.sol\":1585:1641  conflicts[projectNumber][serviceNumber][milestoneNumber] */\n      dup2\n      mstore\n      0x20\n      add\n      swap1\n      dup2\n      mstore\n      0x20\n      add\n      0x00\n      keccak256\n        /* \"contracts/Conflict.sol\":1585:1647  conflicts[projectNumber][serviceNumber][milestoneNumber].exist */\n      0x0b\n      add\n      0x00\n      swap1\n      sload\n      swap1\n      0x0100\n      exp\n      swap1\n      div\n      0xff\n      and\n        /* \"contracts/Conflict.sol\":1577:1681  require(conflicts[projectNumber][serviceNumber][milestoneNumber].exist, \"This Conflict does not exist.\") */\n      tag_87\n      jumpi\n      mload(0x40)\n      0x08c379a000000000000000000000000000000000000000000000000000000000\n      dup2\n      mstore\n      0x04\n      add\n      tag_88\n      swap1\n      tag_60\n      jump\t// in\n    tag_88:\n      mload(0x40)\n      dup1\n      swap2\n      sub\n      swap1\n      revert\n    tag_87:\n        /* \"contracts/Conflict.sol\":5542:5555  projectNumber */\n      dup6\n        /* \"contracts/Conflict.sol\":5557:5570  serviceNumber */\n      dup6\n        /* \"contracts/Conflict.sol\":5572:5587  milestoneNumber */\n      dup6\n        /* \"contracts/Conflict.sol\":5588:5617  States.ConflictStatus.created */\n      0x00\n        /* \"contracts/Conflict.sol\":1914:1919  state */\n      dup1\n        /* \"contracts/Conflict.sol\":1839:1919  conflicts[projectNumber][serviceNumber][milestoneNumber].conflictStatus == state */\n      0x03\n      dup2\n      gt\n      iszero\n      tag_90\n      jumpi\n      tag_91\n      tag_64\n      jump\t// in\n    tag_91:\n    tag_90:\n        /* \"contracts/Conflict.sol\":1839:1848  conflicts */\n      0x00\n        /* \"contracts/Conflict.sol\":1839:1863  conflicts[projectNumber] */\n      dup1\n        /* \"contracts/Conflict.sol\":1849:1862  projectNumber */\n      dup7\n        /* \"contracts/Conflict.sol\":1839:1863  conflicts[projectNumber] */\n      dup2\n      mstore\n      0x20\n      add\n      swap1\n      dup2\n      mstore\n      0x20\n      add\n      0x00\n      keccak256\n        /* \"contracts/Conflict.sol\":1839:1878  conflicts[projectNumber][serviceNumber] */\n      0x00\n        /* \"contracts/Conflict.sol\":1864:1877  serviceNumber */\n      dup6\n        /* \"contracts/Conflict.sol\":1839:1878  conflicts[projectNumber][serviceNumber] */\n      dup2\n      mstore\n      0x20\n      add\n      swap1\n      dup2\n      mstore\n      0x20\n      add\n      0x00\n      keccak256\n        /* \"contracts/Conflict.sol\":1839:1895  conflicts[projectNumber][serviceNumber][milestoneNumber] */\n      0x00\n        /* \"contracts/Conflict.sol\":1879:1894  milestoneNumber */\n      dup5\n        /* \"contracts/Conflict.sol\":1839:1895  conflicts[projectNumber][serviceNumber][milestoneNumber] */\n      dup2\n      mstore\n      0x20\n      add\n      swap1\n      dup2\n      mstore\n      0x20\n      add\n      0x00\n      keccak256\n        /* \"contracts/Conflict.sol\":1839:1910  conflicts[projectNumber][serviceNumber][milestoneNumber].conflictStatus */\n      0x06\n      add\n      0x14\n      swap1\n      sload\n      swap1\n      0x0100\n      exp\n      swap1\n      div\n      0xff\n      and\n        /* \"contracts/Conflict.sol\":1839:1919  conflicts[projectNumber][serviceNumber][milestoneNumber].conflictStatus == state */\n      0x03\n      dup2\n      gt\n      iszero\n      tag_92\n      jumpi\n      tag_93\n      tag_64\n      jump\t// in\n    tag_93:\n    tag_92:\n      eq\n        /* \"contracts/Conflict.sol\":1831:1956  require(conflicts[projectNumber][serviceNumber][milestoneNumber].conflictStatus == state, \"Cannot carry out this operation!\") */\n      tag_94\n      jumpi\n      mload(0x40)\n      0x08c379a000000000000000000000000000000000000000000000000000000000\n      dup2\n      mstore\n      0x04\n      add\n      tag_95\n      swap1\n      tag_69\n      jump\t// in\n    tag_95:\n      mload(0x40)\n      dup1\n      swap2\n      sub\n      swap1\n      revert\n    tag_94:\n        /* \"contracts/Conflict.sol\":5633:5718  setState(projectNumber, serviceNumber, milestoneNumber, States.ConflictStatus.voting) */\n      tag_97\n        /* \"contracts/Conflict.sol\":5642:5655  projectNumber */\n      dup11\n        /* \"contracts/Conflict.sol\":5657:5670  serviceNumber */\n      dup11\n        /* \"contracts/Conflict.sol\":5672:5687  milestoneNumber */\n      dup11\n        /* \"contracts/Conflict.sol\":5689:5717  States.ConflictStatus.voting */\n      0x01\n        /* \"contracts/Conflict.sol\":5633:5641  setState */\n      tag_72\n        /* \"contracts/Conflict.sol\":5633:5718  setState(projectNumber, serviceNumber, milestoneNumber, States.ConflictStatus.voting) */\n      jump\t// in\n    tag_97:\n        /* \"contracts/Conflict.sol\":1691:1692  _ */\n      pop\n      pop\n      pop\n      pop\n        /* \"contracts/Conflict.sol\":5356:5725  function startVote(uint256 projectNumber,uint256 serviceNumber, uint256 milestoneNumber) external ... */\n      pop\n      pop\n      pop\n      pop\n      pop\n      pop\n      jump\t// out\n        /* \"contracts/Conflict.sol\":5770:7569  function voteConflict(uint256 projectNumber, uint256 serviceNumber, uint256 milestoneNumber, address _from, uint8 vote) public ... */\n    tag_37:\n        /* \"contracts/Conflict.sol\":6074:6078  bool */\n      0x00\n        /* \"contracts/Conflict.sol\":5922:5935  projectNumber */\n      dup6\n        /* \"contracts/Conflict.sol\":5937:5950  serviceNumber */\n      dup6\n        /* \"contracts/Conflict.sol\":5952:5967  milestoneNumber */\n      dup6\n        /* \"contracts/Conflict.sol\":1585:1594  conflicts */\n      0x00\n        /* \"contracts/Conflict.sol\":1585:1609  conflicts[projectNumber] */\n      dup1\n        /* \"contracts/Conflict.sol\":1595:1608  projectNumber */\n      dup5\n        /* \"contracts/Conflict.sol\":1585:1609  conflicts[projectNumber] */\n      dup2\n      mstore\n      0x20\n      add\n      swap1\n      dup2\n      mstore\n      0x20\n      add\n      0x00\n      keccak256\n        /* \"contracts/Conflict.sol\":1585:1624  conflicts[projectNumber][serviceNumber] */\n      0x00\n        /* \"contracts/Conflict.sol\":1610:1623  serviceNumber */\n      dup4\n        /* \"contracts/Conflict.sol\":1585:1624  conflicts[projectNumber][serviceNumber] */\n      dup2\n      mstore\n      0x20\n      add\n      swap1\n      dup2\n      mstore\n      0x20\n      add\n      0x00\n      keccak256\n        /* \"contracts/Conflict.sol\":1585:1641  conflicts[projectNumber][serviceNumber][milestoneNumber] */\n      0x00\n        /* \"contracts/Conflict.sol\":1625:1640  milestoneNumber */\n      dup3\n        /* \"contracts/Conflict.sol\":1585:1641  conflicts[projectNumber][serviceNumber][milestoneNumber] */\n      dup2\n      mstore\n      0x20\n      add\n      swap1\n      dup2\n      mstore\n      0x20\n      add\n      0x00\n      keccak256\n        /* \"contracts/Conflict.sol\":1585:1647  conflicts[projectNumber][serviceNumber][milestoneNumber].exist */\n      0x0b\n      add\n      0x00\n      swap1\n      sload\n      swap1\n      0x0100\n      exp\n      swap1\n      div\n      0xff\n      and\n        /* \"contracts/Conflict.sol\":1577:1681  require(conflicts[projectNumber][serviceNumber][milestoneNumber].exist, \"This Conflict does not exist.\") */\n      tag_99\n      jumpi\n      mload(0x40)\n      0x08c379a000000000000000000000000000000000000000000000000000000000\n      dup2\n      mstore\n      0x04\n      add\n      tag_100\n      swap1\n      tag_60\n      jump\t// in\n    tag_100:\n      mload(0x40)\n      dup1\n      swap2\n      sub\n      swap1\n      revert\n    tag_99:\n        /* \"contracts/Conflict.sol\":5985:5998  projectNumber */\n      dup9\n        /* \"contracts/Conflict.sol\":6000:6013  serviceNumber */\n      dup9\n        /* \"contracts/Conflict.sol\":6015:6030  milestoneNumber */\n      dup9\n        /* \"contracts/Conflict.sol\":6031:6059  States.ConflictStatus.voting */\n      0x01\n        /* \"contracts/Conflict.sol\":1914:1919  state */\n      dup1\n        /* \"contracts/Conflict.sol\":1839:1919  conflicts[projectNumber][serviceNumber][milestoneNumber].conflictStatus == state */\n      0x03\n      dup2\n      gt\n      iszero\n      tag_102\n      jumpi\n      tag_103\n      tag_64\n      jump\t// in\n    tag_103:\n    tag_102:\n        /* \"contracts/Conflict.sol\":1839:1848  conflicts */\n      0x00\n        /* \"contracts/Conflict.sol\":1839:1863  conflicts[projectNumber] */\n      dup1\n        /* \"contracts/Conflict.sol\":1849:1862  projectNumber */\n      dup7\n        /* \"contracts/Conflict.sol\":1839:1863  conflicts[projectNumber] */\n      dup2\n      mstore\n      0x20\n      add\n      swap1\n      dup2\n      mstore\n      0x20\n      add\n      0x00\n      keccak256\n        /* \"contracts/Conflict.sol\":1839:1878  conflicts[projectNumber][serviceNumber] */\n      0x00\n        /* \"contracts/Conflict.sol\":1864:1877  serviceNumber */\n      dup6\n        /* \"contracts/Conflict.sol\":1839:1878  conflicts[projectNumber][serviceNumber] */\n      dup2\n      mstore\n      0x20\n      add\n      swap1\n      dup2\n      mstore\n      0x20\n      add\n      0x00\n      keccak256\n        /* \"contracts/Conflict.sol\":1839:1895  conflicts[projectNumber][serviceNumber][milestoneNumber] */\n      0x00\n        /* \"contracts/Conflict.sol\":1879:1894  milestoneNumber */\n      dup5\n        /* \"contracts/Conflict.sol\":1839:1895  conflicts[projectNumber][serviceNumber][milestoneNumber] */\n      dup2\n      mstore\n      0x20\n      add\n      swap1\n      dup2\n      mstore\n      0x20\n      add\n      0x00\n      keccak256\n        /* \"contracts/Conflict.sol\":1839:1910  conflicts[projectNumber][serviceNumber][milestoneNumber].conflictStatus */\n      0x06\n      add\n      0x14\n      swap1\n      sload\n      swap1\n      0x0100\n      exp\n      swap1\n      div\n      0xff\n      and\n        /* \"contracts/Conflict.sol\":1839:1919  conflicts[projectNumber][serviceNumber][milestoneNumber].conflictStatus == state */\n      0x03\n      dup2\n      gt\n      iszero\n      tag_104\n      jumpi\n      tag_105\n      tag_64\n      jump\t// in\n    tag_105:\n    tag_104:\n      eq\n        /* \"contracts/Conflict.sol\":1831:1956  require(conflicts[projectNumber][serviceNumber][milestoneNumber].conflictStatus == state, \"Cannot carry out this operation!\") */\n      tag_106\n      jumpi\n      mload(0x40)\n      0x08c379a000000000000000000000000000000000000000000000000000000000\n      dup2\n      mstore\n      0x04\n      add\n      tag_107\n      swap1\n      tag_69\n      jump\t// in\n    tag_107:\n      mload(0x40)\n      dup1\n      swap2\n      sub\n      swap1\n      revert\n    tag_106:\n        /* \"contracts/Conflict.sol\":6090:6119  conflict storage currConflict */\n      0x00\n        /* \"contracts/Conflict.sol\":6122:6131  conflicts */\n      dup1\n        /* \"contracts/Conflict.sol\":6122:6146  conflicts[projectNumber] */\n      0x00\n        /* \"contracts/Conflict.sol\":6132:6145  projectNumber */\n      dup16\n        /* \"contracts/Conflict.sol\":6122:6146  conflicts[projectNumber] */\n      dup2\n      mstore\n      0x20\n      add\n      swap1\n      dup2\n      mstore\n      0x20\n      add\n      0x00\n      keccak256\n        /* \"contracts/Conflict.sol\":6122:6161  conflicts[projectNumber][serviceNumber] */\n      0x00\n        /* \"contracts/Conflict.sol\":6147:6160  serviceNumber */\n      dup15\n        /* \"contracts/Conflict.sol\":6122:6161  conflicts[projectNumber][serviceNumber] */\n      dup2\n      mstore\n      0x20\n      add\n      swap1\n      dup2\n      mstore\n      0x20\n      add\n      0x00\n      keccak256\n        /* \"contracts/Conflict.sol\":6122:6178  conflicts[projectNumber][serviceNumber][milestoneNumber] */\n      0x00\n        /* \"contracts/Conflict.sol\":6162:6177  milestoneNumber */\n      dup14\n        /* \"contracts/Conflict.sol\":6122:6178  conflicts[projectNumber][serviceNumber][milestoneNumber] */\n      dup2\n      mstore\n      0x20\n      add\n      swap1\n      dup2\n      mstore\n      0x20\n      add\n      0x00\n      keccak256\n        /* \"contracts/Conflict.sol\":6090:6178  conflict storage currConflict = conflicts[projectNumber][serviceNumber][milestoneNumber] */\n      swap1\n      pop\n        /* \"contracts/Conflict.sol\":6229:6234  _from */\n      dup11\n        /* \"contracts/Conflict.sol\":6196:6234  currConflict.serviceRequester != _from */\n      0xffffffffffffffffffffffffffffffffffffffff\n      and\n        /* \"contracts/Conflict.sol\":6196:6208  currConflict */\n      dup2\n        /* \"contracts/Conflict.sol\":6196:6225  currConflict.serviceRequester */\n      0x05\n      add\n      0x00\n      swap1\n      sload\n      swap1\n      0x0100\n      exp\n      swap1\n      div\n      0xffffffffffffffffffffffffffffffffffffffff\n      and\n        /* \"contracts/Conflict.sol\":6196:6234  currConflict.serviceRequester != _from */\n      0xffffffffffffffffffffffffffffffffffffffff\n      and\n      eq\n      iszero\n        /* \"contracts/Conflict.sol\":6188:6288  require(currConflict.serviceRequester != _from , \"You raised this conflict. You cannot vote on it.\") */\n      tag_109\n      jumpi\n      mload(0x40)\n      0x08c379a000000000000000000000000000000000000000000000000000000000\n      dup2\n      mstore\n      0x04\n      add\n      tag_110\n      swap1\n      tag_111\n      jump\t// in\n    tag_110:\n      mload(0x40)\n      dup1\n      swap2\n      sub\n      swap1\n      revert\n    tag_109:\n        /* \"contracts/Conflict.sol\":6338:6343  _from */\n      dup11\n        /* \"contracts/Conflict.sol\":6306:6343  currConflict.serviceProvider != _from */\n      0xffffffffffffffffffffffffffffffffffffffff\n      and\n        /* \"contracts/Conflict.sol\":6306:6318  currConflict */\n      dup2\n        /* \"contracts/Conflict.sol\":6306:6334  currConflict.serviceProvider */\n      0x06\n      add\n      0x00\n      swap1\n      sload\n      swap1\n      0x0100\n      exp\n      swap1\n      div\n      0xffffffffffffffffffffffffffffffffffffffff\n      and\n        /* \"contracts/Conflict.sol\":6306:6343  currConflict.serviceProvider != _from */\n      0xffffffffffffffffffffffffffffffffffffffff\n      and\n      eq\n      iszero\n        /* \"contracts/Conflict.sol\":6298:6405  require(currConflict.serviceProvider != _from, \"You are involved in this conflict. You cannot vote on it.\") */\n      tag_112\n      jumpi\n      mload(0x40)\n      0x08c379a000000000000000000000000000000000000000000000000000000000\n      dup2\n      mstore\n      0x04\n      add\n      tag_113\n      swap1\n      tag_114\n      jump\t// in\n    tag_113:\n      mload(0x40)\n      dup1\n      swap2\n      sub\n      swap1\n      revert\n    tag_112:\n        /* \"contracts/Conflict.sol\":6453:6465  currConflict */\n      dup1\n        /* \"contracts/Conflict.sol\":6453:6472  currConflict.voters */\n      0x07\n      add\n      sload\n        /* \"contracts/Conflict.sol\":6423:6435  currConflict */\n      dup2\n        /* \"contracts/Conflict.sol\":6423:6450  currConflict.votesCollected */\n      0x08\n      add\n      sload\n        /* \"contracts/Conflict.sol\":6423:6472  currConflict.votesCollected < currConflict.voters */\n      lt\n        /* \"contracts/Conflict.sol\":6415:6509  require(currConflict.votesCollected < currConflict.voters, \"Enough votes have been collected\") */\n      tag_115\n      jumpi\n      mload(0x40)\n      0x08c379a000000000000000000000000000000000000000000000000000000000\n      dup2\n      mstore\n      0x04\n      add\n      tag_116\n      swap1\n      tag_117\n      jump\t// in\n    tag_116:\n      mload(0x40)\n      dup1\n      swap2\n      sub\n      swap1\n      revert\n    tag_115:\n        /* \"contracts/Conflict.sol\":6556:6557  0 */\n      0x00\n        /* \"contracts/Conflict.sol\":6527:6539  currConflict */\n      dup2\n        /* \"contracts/Conflict.sol\":6527:6545  currConflict.votes */\n      0x0c\n      add\n        /* \"contracts/Conflict.sol\":6527:6552  currConflict.votes[_from] */\n      0x00\n        /* \"contracts/Conflict.sol\":6546:6551  _from */\n      dup14\n        /* \"contracts/Conflict.sol\":6527:6552  currConflict.votes[_from] */\n      0xffffffffffffffffffffffffffffffffffffffff\n      and\n      0xffffffffffffffffffffffffffffffffffffffff\n      and\n      dup2\n      mstore\n      0x20\n      add\n      swap1\n      dup2\n      mstore\n      0x20\n      add\n      0x00\n      keccak256\n      0x00\n      swap1\n      sload\n      swap1\n      0x0100\n      exp\n      swap1\n      div\n      0xff\n      and\n        /* \"contracts/Conflict.sol\":6527:6557  currConflict.votes[_from] == 0 */\n      0xff\n      and\n      eq\n        /* \"contracts/Conflict.sol\":6519:6608  require(currConflict.votes[_from] == 0 , \"You have already voted, you cannot vote again\") */\n      tag_118\n      jumpi\n      mload(0x40)\n      0x08c379a000000000000000000000000000000000000000000000000000000000\n      dup2\n      mstore\n      0x04\n      add\n      tag_119\n      swap1\n      tag_120\n      jump\t// in\n    tag_119:\n      mload(0x40)\n      dup1\n      swap2\n      sub\n      swap1\n      revert\n    tag_118:\n        /* \"contracts/Conflict.sol\":6634:6635  1 */\n      0x01\n        /* \"contracts/Conflict.sol\":6626:6630  vote */\n      dup11\n        /* \"contracts/Conflict.sol\":6626:6635  vote == 1 */\n      0xff\n      and\n      eq\n        /* \"contracts/Conflict.sol\":6626:6648  vote == 1 || vote == 2 */\n      dup1\n      tag_121\n      jumpi\n      pop\n        /* \"contracts/Conflict.sol\":6647:6648  2 */\n      0x02\n        /* \"contracts/Conflict.sol\":6639:6643  vote */\n      dup11\n        /* \"contracts/Conflict.sol\":6639:6648  vote == 2 */\n      0xff\n      and\n      eq\n        /* \"contracts/Conflict.sol\":6626:6648  vote == 1 || vote == 2 */\n    tag_121:\n        /* \"contracts/Conflict.sol\":6618:6740  require(vote == 1 || vote == 2, \"You have not input a right vote. You can either vote 1 for Requester or 2 for Provider.\") */\n      tag_122\n      jumpi\n      mload(0x40)\n      0x08c379a000000000000000000000000000000000000000000000000000000000\n      dup2\n      mstore\n      0x04\n      add\n      tag_123\n      swap1\n      tag_124\n      jump\t// in\n    tag_123:\n      mload(0x40)\n      dup1\n      swap2\n      sub\n      swap1\n      revert\n    tag_122:\n        /* \"contracts/Conflict.sol\":6779:6783  vote */\n      dup10\n        /* \"contracts/Conflict.sol\":6751:6763  currConflict */\n      dup2\n        /* \"contracts/Conflict.sol\":6751:6769  currConflict.votes */\n      0x0c\n      add\n        /* \"contracts/Conflict.sol\":6751:6776  currConflict.votes[_from] */\n      0x00\n        /* \"contracts/Conflict.sol\":6770:6775  _from */\n      dup14\n        /* \"contracts/Conflict.sol\":6751:6776  currConflict.votes[_from] */\n      0xffffffffffffffffffffffffffffffffffffffff\n      and\n      0xffffffffffffffffffffffffffffffffffffffff\n      and\n      dup2\n      mstore\n      0x20\n      add\n      swap1\n      dup2\n      mstore\n      0x20\n      add\n      0x00\n      keccak256\n      0x00\n        /* \"contracts/Conflict.sol\":6751:6783  currConflict.votes[_from] = vote */\n      0x0100\n      exp\n      dup2\n      sload\n      dup2\n      0xff\n      mul\n      not\n      and\n      swap1\n      dup4\n      0xff\n      and\n      mul\n      or\n      swap1\n      sstore\n      pop\n        /* \"contracts/Conflict.sol\":6806:6807  1 */\n      0x01\n        /* \"contracts/Conflict.sol\":6798:6802  vote */\n      dup11\n        /* \"contracts/Conflict.sol\":6798:6807  vote == 1 */\n      0xff\n      and\n      eq\n        /* \"contracts/Conflict.sol\":6794:6843  if (vote == 1) { currConflict.requesterVotes++; } */\n      iszero\n      tag_125\n      jumpi\n        /* \"contracts/Conflict.sol\":6811:6823  currConflict */\n      dup1\n        /* \"contracts/Conflict.sol\":6811:6838  currConflict.requesterVotes */\n      0x09\n      add\n      0x00\n        /* \"contracts/Conflict.sol\":6811:6840  currConflict.requesterVotes++ */\n      dup2\n      sload\n      dup1\n      swap3\n      swap2\n      swap1\n      tag_126\n      swap1\n      tag_127\n      jump\t// in\n    tag_126:\n      swap2\n      swap1\n      pop\n      sstore\n      pop\n        /* \"contracts/Conflict.sol\":6794:6843  if (vote == 1) { currConflict.requesterVotes++; } */\n    tag_125:\n        /* \"contracts/Conflict.sol\":6864:6865  2 */\n      0x02\n        /* \"contracts/Conflict.sol\":6856:6860  vote */\n      dup11\n        /* \"contracts/Conflict.sol\":6856:6865  vote == 2 */\n      0xff\n      and\n      eq\n        /* \"contracts/Conflict.sol\":6852:6900  if (vote == 2) { currConflict.providerVotes++; } */\n      iszero\n      tag_128\n      jumpi\n        /* \"contracts/Conflict.sol\":6869:6881  currConflict */\n      dup1\n        /* \"contracts/Conflict.sol\":6869:6895  currConflict.providerVotes */\n      0x0a\n      add\n      0x00\n        /* \"contracts/Conflict.sol\":6869:6897  currConflict.providerVotes++ */\n      dup2\n      sload\n      dup1\n      swap3\n      swap2\n      swap1\n      tag_129\n      swap1\n      tag_127\n      jump\t// in\n    tag_129:\n      swap2\n      swap1\n      pop\n      sstore\n      pop\n        /* \"contracts/Conflict.sol\":6852:6900  if (vote == 2) { currConflict.providerVotes++; } */\n    tag_128:\n        /* \"contracts/Conflict.sol\":6909:6921  currConflict */\n      dup1\n        /* \"contracts/Conflict.sol\":6909:6936  currConflict.votesCollected */\n      0x08\n      add\n      0x00\n        /* \"contracts/Conflict.sol\":6909:6938  currConflict.votesCollected++ */\n      dup2\n      sload\n      dup1\n      swap3\n      swap2\n      swap1\n      tag_130\n      swap1\n      tag_127\n      jump\t// in\n    tag_130:\n      swap2\n      swap1\n      pop\n      sstore\n      pop\n        /* \"contracts/Conflict.sol\":6954:7032  conflictVoted(projectNumber, serviceNumber, milestoneNumber, msg.sender, vote) */\n      0x20211b974adbe11ce3687d51504ce7ef1fcfbb9c00405ba7aca7b283903f345a\n        /* \"contracts/Conflict.sol\":6968:6981  projectNumber */\n      dup15\n        /* \"contracts/Conflict.sol\":6983:6996  serviceNumber */\n      dup15\n        /* \"contracts/Conflict.sol\":6998:7013  milestoneNumber */\n      dup15\n        /* \"contracts/Conflict.sol\":7015:7025  msg.sender */\n      caller\n        /* \"contracts/Conflict.sol\":7027:7031  vote */\n      dup15\n        /* \"contracts/Conflict.sol\":6954:7032  conflictVoted(projectNumber, serviceNumber, milestoneNumber, msg.sender, vote) */\n      mload(0x40)\n      tag_131\n      swap6\n      swap5\n      swap4\n      swap3\n      swap2\n      swap1\n      tag_132\n      jump\t// in\n    tag_131:\n      mload(0x40)\n      dup1\n      swap2\n      sub\n      swap1\n      log1\n        /* \"contracts/Conflict.sol\":7078:7090  currConflict */\n      dup1\n        /* \"contracts/Conflict.sol\":7078:7097  currConflict.voters */\n      0x07\n      add\n      sload\n        /* \"contracts/Conflict.sol\":7047:7059  currConflict */\n      dup2\n        /* \"contracts/Conflict.sol\":7047:7074  currConflict.votesCollected */\n      0x08\n      add\n      sload\n        /* \"contracts/Conflict.sol\":7047:7097  currConflict.votesCollected == currConflict.voters */\n      eq\n        /* \"contracts/Conflict.sol\":7043:7541  if (currConflict.votesCollected == currConflict.voters) {... */\n      iszero\n      tag_133\n      jumpi\n        /* \"contracts/Conflict.sol\":7142:7154  currConflict */\n      dup1\n        /* \"contracts/Conflict.sol\":7142:7169  currConflict.requesterVotes */\n      0x09\n      add\n      sload\n        /* \"contracts/Conflict.sol\":7113:7125  currConflict */\n      dup2\n        /* \"contracts/Conflict.sol\":7113:7139  currConflict.providerVotes */\n      0x0a\n      add\n      sload\n        /* \"contracts/Conflict.sol\":7113:7169  currConflict.providerVotes > currConflict.requesterVotes */\n      gt\n        /* \"contracts/Conflict.sol\":7109:7242  if (currConflict.providerVotes > currConflict.requesterVotes) {currConflict.result = 2; }... */\n      iszero\n      tag_134\n      jumpi\n        /* \"contracts/Conflict.sol\":7194:7195  2 */\n      0x02\n        /* \"contracts/Conflict.sol\":7172:7184  currConflict */\n      dup2\n        /* \"contracts/Conflict.sol\":7172:7191  currConflict.result */\n      0x0b\n      add\n      0x01\n        /* \"contracts/Conflict.sol\":7172:7195  currConflict.result = 2 */\n      0x0100\n      exp\n      dup2\n      sload\n      dup2\n      0xff\n      mul\n      not\n      and\n      swap1\n      dup4\n      0xff\n      and\n      mul\n      or\n      swap1\n      sstore\n      pop\n        /* \"contracts/Conflict.sol\":7109:7242  if (currConflict.providerVotes > currConflict.requesterVotes) {currConflict.result = 2; }... */\n      jump(tag_135)\n    tag_134:\n        /* \"contracts/Conflict.sol\":7239:7240  1 */\n      0x01\n        /* \"contracts/Conflict.sol\":7217:7229  currConflict */\n      dup2\n        /* \"contracts/Conflict.sol\":7217:7236  currConflict.result */\n      0x0b\n      add\n      0x01\n        /* \"contracts/Conflict.sol\":7217:7240  currConflict.result = 1 */\n      0x0100\n      exp\n      dup2\n      sload\n      dup2\n      0xff\n      mul\n      not\n      and\n      swap1\n      dup4\n      0xff\n      and\n      mul\n      or\n      swap1\n      sstore\n      pop\n        /* \"contracts/Conflict.sol\":7109:7242  if (currConflict.providerVotes > currConflict.requesterVotes) {currConflict.result = 2; }... */\n    tag_135:\n        /* \"contracts/Conflict.sol\":7315:7403  setState(projectNumber, serviceNumber, milestoneNumber, States.ConflictStatus.completed) */\n      tag_136\n        /* \"contracts/Conflict.sol\":7324:7337  projectNumber */\n      dup15\n        /* \"contracts/Conflict.sol\":7339:7352  serviceNumber */\n      dup15\n        /* \"contracts/Conflict.sol\":7354:7369  milestoneNumber */\n      dup15\n        /* \"contracts/Conflict.sol\":7371:7402  States.ConflictStatus.completed */\n      0x02\n        /* \"contracts/Conflict.sol\":7315:7323  setState */\n      tag_72\n        /* \"contracts/Conflict.sol\":7315:7403  setState(projectNumber, serviceNumber, milestoneNumber, States.ConflictStatus.completed) */\n      jump\t// in\n    tag_136:\n        /* \"contracts/Conflict.sol\":7423:7505  conflictResult(projectNumber, serviceNumber, milestoneNumber, currConflict.result) */\n      0xe59fdbc65a5dd63c529717c2a71d04b136038f05301755de242dd05990c02814\n        /* \"contracts/Conflict.sol\":7438:7451  projectNumber */\n      dup15\n        /* \"contracts/Conflict.sol\":7453:7466  serviceNumber */\n      dup15\n        /* \"contracts/Conflict.sol\":7468:7483  milestoneNumber */\n      dup15\n        /* \"contracts/Conflict.sol\":7485:7497  currConflict */\n      dup5\n        /* \"contracts/Conflict.sol\":7485:7504  currConflict.result */\n      0x0b\n      add\n      0x01\n      swap1\n      sload\n      swap1\n      0x0100\n      exp\n      swap1\n      div\n      0xff\n      and\n        /* \"contracts/Conflict.sol\":7423:7505  conflictResult(projectNumber, serviceNumber, milestoneNumber, currConflict.result) */\n      mload(0x40)\n      tag_137\n      swap5\n      swap4\n      swap3\n      swap2\n      swap1\n      tag_138\n      jump\t// in\n    tag_137:\n      mload(0x40)\n      dup1\n      swap2\n      sub\n      swap1\n      log1\n        /* \"contracts/Conflict.sol\":7526:7530  true */\n      0x01\n        /* \"contracts/Conflict.sol\":7519:7530  return true */\n      swap9\n      pop\n      pop\n      jump(tag_108)\n        /* \"contracts/Conflict.sol\":7043:7541  if (currConflict.votesCollected == currConflict.voters) {... */\n    tag_133:\n        /* \"contracts/Conflict.sol\":7557:7562  false */\n      0x00\n        /* \"contracts/Conflict.sol\":7550:7562  return false */\n      swap9\n      pop\n      pop\n        /* \"contracts/Conflict.sol\":1966:1967  _ */\n    tag_108:\n        /* \"contracts/Conflict.sol\":1691:1692  _ */\n      pop\n      pop\n      pop\n      pop\n        /* \"contracts/Conflict.sol\":5770:7569  function voteConflict(uint256 projectNumber, uint256 serviceNumber, uint256 milestoneNumber, address _from, uint8 vote) public ... */\n      pop\n      pop\n      pop\n      swap6\n      swap5\n      pop\n      pop\n      pop\n      pop\n      pop\n      jump\t// out\n        /* \"contracts/Conflict.sol\":8247:8484  function getConflictStatus(uint256 projectNumber, uint256 serviceNumber, uint256 milestoneNumber) public view returns (States.ConflictStatus) {... */\n    tag_42:\n        /* \"contracts/Conflict.sol\":8366:8387  States.ConflictStatus */\n      0x00\n        /* \"contracts/Conflict.sol\":8406:8415  conflicts */\n      dup1\n        /* \"contracts/Conflict.sol\":8406:8430  conflicts[projectNumber] */\n      0x00\n        /* \"contracts/Conflict.sol\":8416:8429  projectNumber */\n      dup6\n        /* \"contracts/Conflict.sol\":8406:8430  conflicts[projectNumber] */\n      dup2\n      mstore\n      0x20\n      add\n      swap1\n      dup2\n      mstore\n      0x20\n      add\n      0x00\n      keccak256\n        /* \"contracts/Conflict.sol\":8406:8445  conflicts[projectNumber][serviceNumber] */\n      0x00\n        /* \"contracts/Conflict.sol\":8431:8444  serviceNumber */\n      dup5\n        /* \"contracts/Conflict.sol\":8406:8445  conflicts[projectNumber][serviceNumber] */\n      dup2\n      mstore\n      0x20\n      add\n      swap1\n      dup2\n      mstore\n      0x20\n      add\n      0x00\n      keccak256\n        /* \"contracts/Conflict.sol\":8406:8462  conflicts[projectNumber][serviceNumber][milestoneNumber] */\n      0x00\n        /* \"contracts/Conflict.sol\":8446:8461  milestoneNumber */\n      dup4\n        /* \"contracts/Conflict.sol\":8406:8462  conflicts[projectNumber][serviceNumber][milestoneNumber] */\n      dup2\n      mstore\n      0x20\n      add\n      swap1\n      dup2\n      mstore\n      0x20\n      add\n      0x00\n      keccak256\n        /* \"contracts/Conflict.sol\":8406:8477  conflicts[projectNumber][serviceNumber][milestoneNumber].conflictStatus */\n      0x06\n      add\n      0x14\n      swap1\n      sload\n      swap1\n      0x0100\n      exp\n      swap1\n      div\n      0xff\n      and\n        /* \"contracts/Conflict.sol\":8399:8477  return conflicts[projectNumber][serviceNumber][milestoneNumber].conflictStatus */\n      swap1\n      pop\n        /* \"contracts/Conflict.sol\":8247:8484  function getConflictStatus(uint256 projectNumber, uint256 serviceNumber, uint256 milestoneNumber) public view returns (States.ConflictStatus) {... */\n      swap4\n      swap3\n      pop\n      pop\n      pop\n      jump\t// out\n        /* \"contracts/Conflict.sol\":4297:4792  function updateConflict(uint256 projectNumber, uint256 serviceNumber, uint256 milestoneNumber, string memory title, string memory description) external ... */\n    tag_48:\n        /* \"contracts/Conflict.sol\":4466:4479  projectNumber */\n      dup5\n        /* \"contracts/Conflict.sol\":4481:4494  serviceNumber */\n      dup5\n        /* \"contracts/Conflict.sol\":4496:4511  milestoneNumber */\n      dup5\n        /* \"contracts/Conflict.sol\":4512:4541  States.ConflictStatus.created */\n      0x00\n        /* \"contracts/Conflict.sol\":1914:1919  state */\n      dup1\n        /* \"contracts/Conflict.sol\":1839:1919  conflicts[projectNumber][serviceNumber][milestoneNumber].conflictStatus == state */\n      0x03\n      dup2\n      gt\n      iszero\n      tag_141\n      jumpi\n      tag_142\n      tag_64\n      jump\t// in\n    tag_142:\n    tag_141:\n        /* \"contracts/Conflict.sol\":1839:1848  conflicts */\n      0x00\n        /* \"contracts/Conflict.sol\":1839:1863  conflicts[projectNumber] */\n      dup1\n        /* \"contracts/Conflict.sol\":1849:1862  projectNumber */\n      dup7\n        /* \"contracts/Conflict.sol\":1839:1863  conflicts[projectNumber] */\n      dup2\n      mstore\n      0x20\n      add\n      swap1\n      dup2\n      mstore\n      0x20\n      add\n      0x00\n      keccak256\n        /* \"contracts/Conflict.sol\":1839:1878  conflicts[projectNumber][serviceNumber] */\n      0x00\n        /* \"contracts/Conflict.sol\":1864:1877  serviceNumber */\n      dup6\n        /* \"contracts/Conflict.sol\":1839:1878  conflicts[projectNumber][serviceNumber] */\n      dup2\n      mstore\n      0x20\n      add\n      swap1\n      dup2\n      mstore\n      0x20\n      add\n      0x00\n      keccak256\n        /* \"contracts/Conflict.sol\":1839:1895  conflicts[projectNumber][serviceNumber][milestoneNumber] */\n      0x00\n        /* \"contracts/Conflict.sol\":1879:1894  milestoneNumber */\n      dup5\n        /* \"contracts/Conflict.sol\":1839:1895  conflicts[projectNumber][serviceNumber][milestoneNumber] */\n      dup2\n      mstore\n      0x20\n      add\n      swap1\n      dup2\n      mstore\n      0x20\n      add\n      0x00\n      keccak256\n        /* \"contracts/Conflict.sol\":1839:1910  conflicts[projectNumber][serviceNumber][milestoneNumber].conflictStatus */\n      0x06\n      add\n      0x14\n      swap1\n      sload\n      swap1\n      0x0100\n      exp\n      swap1\n      div\n      0xff\n      and\n        /* \"contracts/Conflict.sol\":1839:1919  conflicts[projectNumber][serviceNumber][milestoneNumber].conflictStatus == state */\n      0x03\n      dup2\n      gt\n      iszero\n      tag_143\n      jumpi\n      tag_144\n      tag_64\n      jump\t// in\n    tag_144:\n    tag_143:\n      eq\n        /* \"contracts/Conflict.sol\":1831:1956  require(conflicts[projectNumber][serviceNumber][milestoneNumber].conflictStatus == state, \"Cannot carry out this operation!\") */\n      tag_145\n      jumpi\n      mload(0x40)\n      0x08c379a000000000000000000000000000000000000000000000000000000000\n      dup2\n      mstore\n      0x04\n      add\n      tag_146\n      swap1\n      tag_69\n      jump\t// in\n    tag_146:\n      mload(0x40)\n      dup1\n      swap2\n      sub\n      swap1\n      revert\n    tag_145:\n        /* \"contracts/Conflict.sol\":4566:4571  title */\n      dup6\n        /* \"contracts/Conflict.sol\":2061:2062  0 */\n      0x00\n        /* \"contracts/Conflict.sol\":2047:2050  str */\n      dup2\n        /* \"contracts/Conflict.sol\":2041:2058  bytes(str).length */\n      mload\n        /* \"contracts/Conflict.sol\":2041:2062  bytes(str).length > 0 */\n      gt\n        /* \"contracts/Conflict.sol\":2033:2088  require(bytes(str).length > 0, \"A string is required!\") */\n      tag_148\n      jumpi\n      mload(0x40)\n      0x08c379a000000000000000000000000000000000000000000000000000000000\n      dup2\n      mstore\n      0x04\n      add\n      tag_149\n      swap1\n      tag_150\n      jump\t// in\n    tag_149:\n      mload(0x40)\n      dup1\n      swap2\n      sub\n      swap1\n      revert\n    tag_148:\n        /* \"contracts/Conflict.sol\":4596:4607  description */\n      dup6\n        /* \"contracts/Conflict.sol\":2061:2062  0 */\n      0x00\n        /* \"contracts/Conflict.sol\":2047:2050  str */\n      dup2\n        /* \"contracts/Conflict.sol\":2041:2058  bytes(str).length */\n      mload\n        /* \"contracts/Conflict.sol\":2041:2062  bytes(str).length > 0 */\n      gt\n        /* \"contracts/Conflict.sol\":2033:2088  require(bytes(str).length > 0, \"A string is required!\") */\n      tag_152\n      jumpi\n      mload(0x40)\n      0x08c379a000000000000000000000000000000000000000000000000000000000\n      dup2\n      mstore\n      0x04\n      add\n      tag_153\n      swap1\n      tag_150\n      jump\t// in\n    tag_153:\n      mload(0x40)\n      dup1\n      swap2\n      sub\n      swap1\n      revert\n    tag_152:\n        /* \"contracts/Conflict.sol\":4688:4693  title */\n      dup8\n        /* \"contracts/Conflict.sol\":4623:4632  conflicts */\n      0x00\n        /* \"contracts/Conflict.sol\":4623:4647  conflicts[projectNumber] */\n      dup1\n        /* \"contracts/Conflict.sol\":4633:4646  projectNumber */\n      dup14\n        /* \"contracts/Conflict.sol\":4623:4647  conflicts[projectNumber] */\n      dup2\n      mstore\n      0x20\n      add\n      swap1\n      dup2\n      mstore\n      0x20\n      add\n      0x00\n      keccak256\n        /* \"contracts/Conflict.sol\":4623:4662  conflicts[projectNumber][serviceNumber] */\n      0x00\n        /* \"contracts/Conflict.sol\":4648:4661  serviceNumber */\n      dup13\n        /* \"contracts/Conflict.sol\":4623:4662  conflicts[projectNumber][serviceNumber] */\n      dup2\n      mstore\n      0x20\n      add\n      swap1\n      dup2\n      mstore\n      0x20\n      add\n      0x00\n      keccak256\n        /* \"contracts/Conflict.sol\":4623:4679  conflicts[projectNumber][serviceNumber][milestoneNumber] */\n      0x00\n        /* \"contracts/Conflict.sol\":4663:4678  milestoneNumber */\n      dup12\n        /* \"contracts/Conflict.sol\":4623:4679  conflicts[projectNumber][serviceNumber][milestoneNumber] */\n      dup2\n      mstore\n      0x20\n      add\n      swap1\n      dup2\n      mstore\n      0x20\n      add\n      0x00\n      keccak256\n        /* \"contracts/Conflict.sol\":4623:4685  conflicts[projectNumber][serviceNumber][milestoneNumber].title */\n      0x03\n      add\n        /* \"contracts/Conflict.sol\":4623:4693  conflicts[projectNumber][serviceNumber][milestoneNumber].title = title */\n      swap1\n      dup1\n      mload\n      swap1\n      0x20\n      add\n      swap1\n      tag_155\n      swap3\n      swap2\n      swap1\n      tag_156\n      jump\t// in\n    tag_155:\n      pop\n        /* \"contracts/Conflict.sol\":4774:4785  description */\n      dup7\n        /* \"contracts/Conflict.sol\":4703:4712  conflicts */\n      0x00\n        /* \"contracts/Conflict.sol\":4703:4727  conflicts[projectNumber] */\n      dup1\n        /* \"contracts/Conflict.sol\":4713:4726  projectNumber */\n      dup14\n        /* \"contracts/Conflict.sol\":4703:4727  conflicts[projectNumber] */\n      dup2\n      mstore\n      0x20\n      add\n      swap1\n      dup2\n      mstore\n      0x20\n      add\n      0x00\n      keccak256\n        /* \"contracts/Conflict.sol\":4703:4742  conflicts[projectNumber][serviceNumber] */\n      0x00\n        /* \"contracts/Conflict.sol\":4728:4741  serviceNumber */\n      dup13\n        /* \"contracts/Conflict.sol\":4703:4742  conflicts[projectNumber][serviceNumber] */\n      dup2\n      mstore\n      0x20\n      add\n      swap1\n      dup2\n      mstore\n      0x20\n      add\n      0x00\n      keccak256\n        /* \"contracts/Conflict.sol\":4703:4759  conflicts[projectNumber][serviceNumber][milestoneNumber] */\n      0x00\n        /* \"contracts/Conflict.sol\":4743:4758  milestoneNumber */\n      dup12\n        /* \"contracts/Conflict.sol\":4703:4759  conflicts[projectNumber][serviceNumber][milestoneNumber] */\n      dup2\n      mstore\n      0x20\n      add\n      swap1\n      dup2\n      mstore\n      0x20\n      add\n      0x00\n      keccak256\n        /* \"contracts/Conflict.sol\":4703:4771  conflicts[projectNumber][serviceNumber][milestoneNumber].description */\n      0x04\n      add\n        /* \"contracts/Conflict.sol\":4703:4785  conflicts[projectNumber][serviceNumber][milestoneNumber].description = description */\n      swap1\n      dup1\n      mload\n      swap1\n      0x20\n      add\n      swap1\n      tag_157\n      swap3\n      swap2\n      swap1\n      tag_156\n      jump\t// in\n    tag_157:\n      pop\n        /* \"contracts/Conflict.sol\":2098:2099  _ */\n      pop\n        /* \"contracts/Conflict.sol\":1966:1967  _ */\n      pop\n        /* \"contracts/Conflict.sol\":4297:4792  function updateConflict(uint256 projectNumber, uint256 serviceNumber, uint256 milestoneNumber, string memory title, string memory description) external ... */\n      pop\n      pop\n      pop\n      pop\n      pop\n      pop\n      pop\n      pop\n      pop\n      jump\t// out\n        /* \"contracts/Conflict.sol\":8719:8945  function getVotesforRequester(uint256 projectNumber, uint256 serviceNumber, uint256 milestoneNumber) public view returns (uint256) {... */\n    tag_51:\n        /* \"contracts/Conflict.sol\":8841:8848  uint256 */\n      0x00\n        /* \"contracts/Conflict.sol\":8867:8876  conflicts */\n      dup1\n        /* \"contracts/Conflict.sol\":8867:8891  conflicts[projectNumber] */\n      0x00\n        /* \"contracts/Conflict.sol\":8877:8890  projectNumber */\n      dup6\n        /* \"contracts/Conflict.sol\":8867:8891  conflicts[projectNumber] */\n      dup2\n      mstore\n      0x20\n      add\n      swap1\n      dup2\n      mstore\n      0x20\n      add\n      0x00\n      keccak256\n        /* \"contracts/Conflict.sol\":8867:8906  conflicts[projectNumber][serviceNumber] */\n      0x00\n        /* \"contracts/Conflict.sol\":8892:8905  serviceNumber */\n      dup5\n        /* \"contracts/Conflict.sol\":8867:8906  conflicts[projectNumber][serviceNumber] */\n      dup2\n      mstore\n      0x20\n      add\n      swap1\n      dup2\n      mstore\n      0x20\n      add\n      0x00\n      keccak256\n        /* \"contracts/Conflict.sol\":8867:8923  conflicts[projectNumber][serviceNumber][milestoneNumber] */\n      0x00\n        /* \"contracts/Conflict.sol\":8907:8922  milestoneNumber */\n      dup4\n        /* \"contracts/Conflict.sol\":8867:8923  conflicts[projectNumber][serviceNumber][milestoneNumber] */\n      dup2\n      mstore\n      0x20\n      add\n      swap1\n      dup2\n      mstore\n      0x20\n      add\n      0x00\n      keccak256\n        /* \"contracts/Conflict.sol\":8867:8938  conflicts[projectNumber][serviceNumber][milestoneNumber].requesterVotes */\n      0x09\n      add\n      sload\n        /* \"contracts/Conflict.sol\":8860:8938  return conflicts[projectNumber][serviceNumber][milestoneNumber].requesterVotes */\n      swap1\n      pop\n        /* \"contracts/Conflict.sol\":8719:8945  function getVotesforRequester(uint256 projectNumber, uint256 serviceNumber, uint256 milestoneNumber) public view returns (uint256) {... */\n      swap4\n      swap3\n      pop\n      pop\n      pop\n      jump\t// out\n        /* \"contracts/Conflict.sol\":2867:4250  function createConflict(uint256 projectNumber, uint256 serviceNumber, uint256 milestoneNumber, string memory title, string memory description, address  serviceRequester, address serviceProvider, uint256 totalVoters) public ... */\n    tag_56:\n        /* \"contracts/Conflict.sol\":3114:3119  title */\n      dup5\n        /* \"contracts/Conflict.sol\":2061:2062  0 */\n      0x00\n        /* \"contracts/Conflict.sol\":2047:2050  str */\n      dup2\n        /* \"contracts/Conflict.sol\":2041:2058  bytes(str).length */\n      mload\n        /* \"contracts/Conflict.sol\":2041:2062  bytes(str).length > 0 */\n      gt\n        /* \"contracts/Conflict.sol\":2033:2088  require(bytes(str).length > 0, \"A string is required!\") */\n      tag_160\n      jumpi\n      mload(0x40)\n      0x08c379a000000000000000000000000000000000000000000000000000000000\n      dup2\n      mstore\n      0x04\n      add\n      tag_161\n      swap1\n      tag_150\n      jump\t// in\n    tag_161:\n      mload(0x40)\n      dup1\n      swap2\n      sub\n      swap1\n      revert\n    tag_160:\n        /* \"contracts/Conflict.sol\":3144:3155  description */\n      dup5\n        /* \"contracts/Conflict.sol\":2061:2062  0 */\n      0x00\n        /* \"contracts/Conflict.sol\":2047:2050  str */\n      dup2\n        /* \"contracts/Conflict.sol\":2041:2058  bytes(str).length */\n      mload\n        /* \"contracts/Conflict.sol\":2041:2062  bytes(str).length > 0 */\n      gt\n        /* \"contracts/Conflict.sol\":2033:2088  require(bytes(str).length > 0, \"A string is required!\") */\n      tag_163\n      jumpi\n      mload(0x40)\n      0x08c379a000000000000000000000000000000000000000000000000000000000\n      dup2\n      mstore\n      0x04\n      add\n      tag_164\n      swap1\n      tag_150\n      jump\t// in\n    tag_164:\n      mload(0x40)\n      dup1\n      swap2\n      sub\n      swap1\n      revert\n    tag_163:\n        /* \"contracts/Conflict.sol\":3171:3199  conflict storage newConflict */\n      0x00\n        /* \"contracts/Conflict.sol\":3202:3211  conflicts */\n      dup1\n        /* \"contracts/Conflict.sol\":3202:3226  conflicts[projectNumber] */\n      0x00\n        /* \"contracts/Conflict.sol\":3212:3225  projectNumber */\n      dup13\n        /* \"contracts/Conflict.sol\":3202:3226  conflicts[projectNumber] */\n      dup2\n      mstore\n      0x20\n      add\n      swap1\n      dup2\n      mstore\n      0x20\n      add\n      0x00\n      keccak256\n        /* \"contracts/Conflict.sol\":3202:3241  conflicts[projectNumber][serviceNumber] */\n      0x00\n        /* \"contracts/Conflict.sol\":3227:3240  serviceNumber */\n      dup12\n        /* \"contracts/Conflict.sol\":3202:3241  conflicts[projectNumber][serviceNumber] */\n      dup2\n      mstore\n      0x20\n      add\n      swap1\n      dup2\n      mstore\n      0x20\n      add\n      0x00\n      keccak256\n        /* \"contracts/Conflict.sol\":3202:3258  conflicts[projectNumber][serviceNumber][milestoneNumber] */\n      0x00\n        /* \"contracts/Conflict.sol\":3242:3257  milestoneNumber */\n      dup11\n        /* \"contracts/Conflict.sol\":3202:3258  conflicts[projectNumber][serviceNumber][milestoneNumber] */\n      dup2\n      mstore\n      0x20\n      add\n      swap1\n      dup2\n      mstore\n      0x20\n      add\n      0x00\n      keccak256\n        /* \"contracts/Conflict.sol\":3171:3258  conflict storage newConflict = conflicts[projectNumber][serviceNumber][milestoneNumber] */\n      swap1\n      pop\n        /* \"contracts/Conflict.sol\":3297:3302  false */\n      0x00\n        /* \"contracts/Conflict.sol\":3276:3302  newConflict.exist == false */\n      iszero\n      iszero\n        /* \"contracts/Conflict.sol\":3276:3287  newConflict */\n      dup2\n        /* \"contracts/Conflict.sol\":3276:3293  newConflict.exist */\n      0x0b\n      add\n      0x00\n      swap1\n      sload\n      swap1\n      0x0100\n      exp\n      swap1\n      div\n      0xff\n      and\n        /* \"contracts/Conflict.sol\":3276:3302  newConflict.exist == false */\n      iszero\n      iszero\n      eq\n        /* \"contracts/Conflict.sol\":3268:3371  require(newConflict.exist == false, \"Conflict has already been created for this particular Milestone.\") */\n      tag_166\n      jumpi\n      mload(0x40)\n      0x08c379a000000000000000000000000000000000000000000000000000000000\n      dup2\n      mstore\n      0x04\n      add\n      tag_167\n      swap1\n      tag_168\n      jump\t// in\n    tag_167:\n      mload(0x40)\n      dup1\n      swap2\n      sub\n      swap1\n      revert\n    tag_166:\n        /* \"contracts/Conflict.sol\":3434:3447  projectNumber */\n      dup11\n        /* \"contracts/Conflict.sol\":3406:3417  newConflict */\n      dup2\n        /* \"contracts/Conflict.sol\":3406:3431  newConflict.projectNumber */\n      0x00\n      add\n        /* \"contracts/Conflict.sol\":3406:3447  newConflict.projectNumber = projectNumber */\n      dup2\n      swap1\n      sstore\n      pop\n        /* \"contracts/Conflict.sol\":3490:3503  serviceNumber */\n      dup10\n        /* \"contracts/Conflict.sol\":3462:3473  newConflict */\n      dup2\n        /* \"contracts/Conflict.sol\":3462:3487  newConflict.serviceNumber */\n      0x01\n      add\n        /* \"contracts/Conflict.sol\":3462:3503  newConflict.serviceNumber = serviceNumber */\n      dup2\n      swap1\n      sstore\n      pop\n        /* \"contracts/Conflict.sol\":3551:3566  milestoneNumber */\n      dup9\n        /* \"contracts/Conflict.sol\":3521:3532  newConflict */\n      dup2\n        /* \"contracts/Conflict.sol\":3521:3548  newConflict.milestoneNumber */\n      0x02\n      add\n        /* \"contracts/Conflict.sol\":3521:3566  newConflict.milestoneNumber = milestoneNumber */\n      dup2\n      swap1\n      sstore\n      pop\n        /* \"contracts/Conflict.sol\":3596:3601  title */\n      dup8\n        /* \"contracts/Conflict.sol\":3576:3587  newConflict */\n      dup2\n        /* \"contracts/Conflict.sol\":3576:3593  newConflict.title */\n      0x03\n      add\n        /* \"contracts/Conflict.sol\":3576:3601  newConflict.title = title */\n      swap1\n      dup1\n      mload\n      swap1\n      0x20\n      add\n      swap1\n      tag_169\n      swap3\n      swap2\n      swap1\n      tag_156\n      jump\t// in\n    tag_169:\n      pop\n        /* \"contracts/Conflict.sol\":3637:3648  description */\n      dup7\n        /* \"contracts/Conflict.sol\":3611:3622  newConflict */\n      dup2\n        /* \"contracts/Conflict.sol\":3611:3634  newConflict.description */\n      0x04\n      add\n        /* \"contracts/Conflict.sol\":3611:3648  newConflict.description = description */\n      swap1\n      dup1\n      mload\n      swap1\n      0x20\n      add\n      swap1\n      tag_170\n      swap3\n      swap2\n      swap1\n      tag_156\n      jump\t// in\n    tag_170:\n      pop\n        /* \"contracts/Conflict.sol\":3689:3705  serviceRequester */\n      dup6\n        /* \"contracts/Conflict.sol\":3658:3669  newConflict */\n      dup2\n        /* \"contracts/Conflict.sol\":3658:3686  newConflict.serviceRequester */\n      0x05\n      add\n      0x00\n        /* \"contracts/Conflict.sol\":3658:3705  newConflict.serviceRequester = serviceRequester */\n      0x0100\n      exp\n      dup2\n      sload\n      dup2\n      0xffffffffffffffffffffffffffffffffffffffff\n      mul\n      not\n      and\n      swap1\n      dup4\n      0xffffffffffffffffffffffffffffffffffffffff\n      and\n      mul\n      or\n      swap1\n      sstore\n      pop\n        /* \"contracts/Conflict.sol\":3745:3760  serviceProvider */\n      dup5\n        /* \"contracts/Conflict.sol\":3715:3726  newConflict */\n      dup2\n        /* \"contracts/Conflict.sol\":3715:3742  newConflict.serviceProvider */\n      0x06\n      add\n      0x00\n        /* \"contracts/Conflict.sol\":3715:3760  newConflict.serviceProvider = serviceProvider */\n      0x0100\n      exp\n      dup2\n      sload\n      dup2\n      0xffffffffffffffffffffffffffffffffffffffff\n      mul\n      not\n      and\n      swap1\n      dup4\n      0xffffffffffffffffffffffffffffffffffffffff\n      and\n      mul\n      or\n      swap1\n      sstore\n      pop\n        /* \"contracts/Conflict.sol\":3799:3828  States.ConflictStatus.created */\n      0x00\n        /* \"contracts/Conflict.sol\":3770:3781  newConflict */\n      dup2\n        /* \"contracts/Conflict.sol\":3770:3796  newConflict.conflictStatus */\n      0x06\n      add\n      0x14\n        /* \"contracts/Conflict.sol\":3770:3828  newConflict.conflictStatus = States.ConflictStatus.created */\n      0x0100\n      exp\n      dup2\n      sload\n      dup2\n      0xff\n      mul\n      not\n      and\n      swap1\n      dup4\n      0x03\n      dup2\n      gt\n      iszero\n      tag_171\n      jumpi\n      tag_172\n      tag_64\n      jump\t// in\n    tag_172:\n    tag_171:\n      mul\n      or\n      swap1\n      sstore\n      pop\n        /* \"contracts/Conflict.sol\":3859:3870  totalVoters */\n      dup4\n        /* \"contracts/Conflict.sol\":3838:3849  newConflict */\n      dup2\n        /* \"contracts/Conflict.sol\":3838:3856  newConflict.voters */\n      0x07\n      add\n        /* \"contracts/Conflict.sol\":3838:3870  newConflict.voters = totalVoters */\n      dup2\n      swap1\n      sstore\n      pop\n        /* \"contracts/Conflict.sol\":3909:3910  0 */\n      0x00\n        /* \"contracts/Conflict.sol\":3880:3891  newConflict */\n      dup2\n        /* \"contracts/Conflict.sol\":3880:3906  newConflict.votesCollected */\n      0x08\n      add\n        /* \"contracts/Conflict.sol\":3880:3910  newConflict.votesCollected = 0 */\n      dup2\n      swap1\n      sstore\n      pop\n        /* \"contracts/Conflict.sol\":3949:3950  0 */\n      0x00\n        /* \"contracts/Conflict.sol\":3920:3931  newConflict */\n      dup2\n        /* \"contracts/Conflict.sol\":3920:3946  newConflict.requesterVotes */\n      0x09\n      add\n        /* \"contracts/Conflict.sol\":3920:3950  newConflict.requesterVotes = 0 */\n      dup2\n      swap1\n      sstore\n      pop\n        /* \"contracts/Conflict.sol\":3988:3989  0 */\n      0x00\n        /* \"contracts/Conflict.sol\":3960:3971  newConflict */\n      dup2\n        /* \"contracts/Conflict.sol\":3960:3985  newConflict.providerVotes */\n      0x0a\n      add\n        /* \"contracts/Conflict.sol\":3960:3989  newConflict.providerVotes = 0 */\n      dup2\n      swap1\n      sstore\n      pop\n        /* \"contracts/Conflict.sol\":4023:4027  true */\n      0x01\n        /* \"contracts/Conflict.sol\":4003:4014  newConflict */\n      dup2\n        /* \"contracts/Conflict.sol\":4003:4020  newConflict.exist */\n      0x0b\n      add\n      0x00\n        /* \"contracts/Conflict.sol\":4003:4027  newConflict.exist = true */\n      0x0100\n      exp\n      dup2\n      sload\n      dup2\n      0xff\n      mul\n      not\n      and\n      swap1\n      dup4\n      iszero\n      iszero\n      mul\n      or\n      swap1\n      sstore\n      pop\n        /* \"contracts/Conflict.sol\":4058:4059  0 */\n      0x00\n        /* \"contracts/Conflict.sol\":4037:4048  newConflict */\n      dup2\n        /* \"contracts/Conflict.sol\":4037:4055  newConflict.result */\n      0x0b\n      add\n      0x01\n        /* \"contracts/Conflict.sol\":4037:4059  newConflict.result = 0 */\n      0x0100\n      exp\n      dup2\n      sload\n      dup2\n      0xff\n      mul\n      not\n      and\n      swap1\n      dup4\n      0xff\n      and\n      mul\n      or\n      swap1\n      sstore\n      pop\n        /* \"contracts/Conflict.sol\":4075:4185  conflictCreated(projectNumber, serviceNumber, milestoneNumber, serviceRequester, serviceProvider, totalVoters) */\n      0xfa127411522a1139d16c2142db999e127aef2288bd98a0558006bb115666ab1b\n        /* \"contracts/Conflict.sol\":4091:4104  projectNumber */\n      dup12\n        /* \"contracts/Conflict.sol\":4106:4119  serviceNumber */\n      dup12\n        /* \"contracts/Conflict.sol\":4121:4136  milestoneNumber */\n      dup12\n        /* \"contracts/Conflict.sol\":4138:4154  serviceRequester */\n      dup10\n        /* \"contracts/Conflict.sol\":4156:4171  serviceProvider */\n      dup10\n        /* \"contracts/Conflict.sol\":4173:4184  totalVoters */\n      dup10\n        /* \"contracts/Conflict.sol\":4075:4185  conflictCreated(projectNumber, serviceNumber, milestoneNumber, serviceRequester, serviceProvider, totalVoters) */\n      mload(0x40)\n      tag_173\n      swap7\n      swap6\n      swap5\n      swap4\n      swap3\n      swap2\n      swap1\n      tag_174\n      jump\t// in\n    tag_173:\n      mload(0x40)\n      dup1\n      swap2\n      sub\n      swap1\n      log1\n        /* \"contracts/Conflict.sol\":3161:4250  {... */\n      pop\n        /* \"contracts/Conflict.sol\":2098:2099  _ */\n      pop\n        /* \"contracts/Conflict.sol\":2867:4250  function createConflict(uint256 projectNumber, uint256 serviceNumber, uint256 milestoneNumber, string memory title, string memory description, address  serviceRequester, address serviceProvider, uint256 totalVoters) public ... */\n      pop\n      pop\n      pop\n      pop\n      pop\n      pop\n      pop\n      pop\n      pop\n      jump\t// out\n        /* \"contracts/Conflict.sol\":2597:2820  function setState(uint256 projectNumber, uint256 serviceNumber, uint256 milestoneNumber, States.ConflictStatus state) internal {... */\n    tag_72:\n        /* \"contracts/Conflict.sol\":2808:2813  state */\n      dup1\n        /* \"contracts/Conflict.sol\":2734:2743  conflicts */\n      0x00\n        /* \"contracts/Conflict.sol\":2734:2758  conflicts[projectNumber] */\n      dup1\n        /* \"contracts/Conflict.sol\":2744:2757  projectNumber */\n      dup7\n        /* \"contracts/Conflict.sol\":2734:2758  conflicts[projectNumber] */\n      dup2\n      mstore\n      0x20\n      add\n      swap1\n      dup2\n      mstore\n      0x20\n      add\n      0x00\n      keccak256\n        /* \"contracts/Conflict.sol\":2734:2773  conflicts[projectNumber][serviceNumber] */\n      0x00\n        /* \"contracts/Conflict.sol\":2759:2772  serviceNumber */\n      dup6\n        /* \"contracts/Conflict.sol\":2734:2773  conflicts[projectNumber][serviceNumber] */\n      dup2\n      mstore\n      0x20\n      add\n      swap1\n      dup2\n      mstore\n      0x20\n      add\n      0x00\n      keccak256\n        /* \"contracts/Conflict.sol\":2734:2790  conflicts[projectNumber][serviceNumber][milestoneNumber] */\n      0x00\n        /* \"contracts/Conflict.sol\":2774:2789  milestoneNumber */\n      dup5\n        /* \"contracts/Conflict.sol\":2734:2790  conflicts[projectNumber][serviceNumber][milestoneNumber] */\n      dup2\n      mstore\n      0x20\n      add\n      swap1\n      dup2\n      mstore\n      0x20\n      add\n      0x00\n      keccak256\n        /* \"contracts/Conflict.sol\":2734:2805  conflicts[projectNumber][serviceNumber][milestoneNumber].conflictStatus */\n      0x06\n      add\n      0x14\n        /* \"contracts/Conflict.sol\":2734:2813  conflicts[projectNumber][serviceNumber][milestoneNumber].conflictStatus = state */\n      0x0100\n      exp\n      dup2\n      sload\n      dup2\n      0xff\n      mul\n      not\n      and\n      swap1\n      dup4\n      0x03\n      dup2\n      gt\n      iszero\n      tag_176\n      jumpi\n      tag_177\n      tag_64\n      jump\t// in\n    tag_177:\n    tag_176:\n      mul\n      or\n      swap1\n      sstore\n      pop\n        /* \"contracts/Conflict.sol\":2597:2820  function setState(uint256 projectNumber, uint256 serviceNumber, uint256 milestoneNumber, States.ConflictStatus state) internal {... */\n      pop\n      pop\n      pop\n      pop\n      jump\t// out\n    tag_156:\n      dup3\n      dup1\n      sload\n      tag_178\n      swap1\n      tag_179\n      jump\t// in\n    tag_178:\n      swap1\n      0x00\n      mstore\n      keccak256(0x00, 0x20)\n      swap1\n      0x1f\n      add\n      0x20\n      swap1\n      div\n      dup2\n      add\n      swap3\n      dup3\n      tag_181\n      jumpi\n      0x00\n      dup6\n      sstore\n      jump(tag_180)\n    tag_181:\n      dup3\n      0x1f\n      lt\n      tag_182\n      jumpi\n      dup1\n      mload\n      not(0xff)\n      and\n      dup4\n      dup1\n      add\n      or\n      dup6\n      sstore\n      jump(tag_180)\n    tag_182:\n      dup3\n      dup1\n      add\n      0x01\n      add\n      dup6\n      sstore\n      dup3\n      iszero\n      tag_180\n      jumpi\n      swap2\n      dup3\n      add\n    tag_183:\n      dup3\n      dup2\n      gt\n      iszero\n      tag_184\n      jumpi\n      dup3\n      mload\n      dup3\n      sstore\n      swap2\n      0x20\n      add\n      swap2\n      swap1\n      0x01\n      add\n      swap1\n      jump(tag_183)\n    tag_184:\n    tag_180:\n      pop\n      swap1\n      pop\n      tag_185\n      swap2\n      swap1\n      tag_186\n      jump\t// in\n    tag_185:\n      pop\n      swap1\n      jump\t// out\n    tag_186:\n    tag_187:\n      dup1\n      dup3\n      gt\n      iszero\n      tag_188\n      jumpi\n      0x00\n      dup2\n      0x00\n      swap1\n      sstore\n      pop\n      0x01\n      add\n      jump(tag_187)\n    tag_188:\n      pop\n      swap1\n      jump\t// out\n        /* \"#utility.yul\":7:419   */\n    tag_190:\n        /* \"#utility.yul\":85:90   */\n      0x00\n        /* \"#utility.yul\":110:176   */\n      tag_192\n        /* \"#utility.yul\":126:175   */\n      tag_193\n        /* \"#utility.yul\":168:174   */\n      dup5\n        /* \"#utility.yul\":126:175   */\n      tag_194\n      jump\t// in\n    tag_193:\n        /* \"#utility.yul\":110:176   */\n      tag_195\n      jump\t// in\n    tag_192:\n        /* \"#utility.yul\":101:176   */\n      swap1\n      pop\n        /* \"#utility.yul\":199:205   */\n      dup3\n        /* \"#utility.yul\":192:197   */\n      dup2\n        /* \"#utility.yul\":185:206   */\n      mstore\n        /* \"#utility.yul\":237:241   */\n      0x20\n        /* \"#utility.yul\":230:235   */\n      dup2\n        /* \"#utility.yul\":226:242   */\n      add\n        /* \"#utility.yul\":275:278   */\n      dup5\n        /* \"#utility.yul\":266:272   */\n      dup5\n        /* \"#utility.yul\":261:264   */\n      dup5\n        /* \"#utility.yul\":257:273   */\n      add\n        /* \"#utility.yul\":254:279   */\n      gt\n        /* \"#utility.yul\":251:363   */\n      iszero\n      tag_196\n      jumpi\n        /* \"#utility.yul\":282:361   */\n      tag_197\n      tag_198\n      jump\t// in\n    tag_197:\n        /* \"#utility.yul\":251:363   */\n    tag_196:\n        /* \"#utility.yul\":372:413   */\n      tag_199\n        /* \"#utility.yul\":406:412   */\n      dup5\n        /* \"#utility.yul\":401:404   */\n      dup3\n        /* \"#utility.yul\":396:399   */\n      dup6\n        /* \"#utility.yul\":372:413   */\n      tag_200\n      jump\t// in\n    tag_199:\n        /* \"#utility.yul\":91:419   */\n      pop\n        /* \"#utility.yul\":7:419   */\n      swap4\n      swap3\n      pop\n      pop\n      pop\n      jump\t// out\n        /* \"#utility.yul\":425:564   */\n    tag_201:\n        /* \"#utility.yul\":471:476   */\n      0x00\n        /* \"#utility.yul\":509:515   */\n      dup2\n        /* \"#utility.yul\":496:516   */\n      calldataload\n        /* \"#utility.yul\":487:516   */\n      swap1\n      pop\n        /* \"#utility.yul\":525:558   */\n      tag_203\n        /* \"#utility.yul\":552:557   */\n      dup2\n        /* \"#utility.yul\":525:558   */\n      tag_204\n      jump\t// in\n    tag_203:\n        /* \"#utility.yul\":425:564   */\n      swap3\n      swap2\n      pop\n      pop\n      jump\t// out\n        /* \"#utility.yul\":584:924   */\n    tag_205:\n        /* \"#utility.yul\":640:645   */\n      0x00\n        /* \"#utility.yul\":689:692   */\n      dup3\n        /* \"#utility.yul\":682:686   */\n      0x1f\n        /* \"#utility.yul\":674:680   */\n      dup4\n        /* \"#utility.yul\":670:687   */\n      add\n        /* \"#utility.yul\":666:693   */\n      slt\n        /* \"#utility.yul\":656:778   */\n      tag_207\n      jumpi\n        /* \"#utility.yul\":697:776   */\n      tag_208\n      tag_209\n      jump\t// in\n    tag_208:\n        /* \"#utility.yul\":656:778   */\n    tag_207:\n        /* \"#utility.yul\":814:820   */\n      dup2\n        /* \"#utility.yul\":801:821   */\n      calldataload\n        /* \"#utility.yul\":839:918   */\n      tag_210\n        /* \"#utility.yul\":914:917   */\n      dup5\n        /* \"#utility.yul\":906:912   */\n      dup3\n        /* \"#utility.yul\":899:903   */\n      0x20\n        /* \"#utility.yul\":891:897   */\n      dup7\n        /* \"#utility.yul\":887:904   */\n      add\n        /* \"#utility.yul\":839:918   */\n      tag_190\n      jump\t// in\n    tag_210:\n        /* \"#utility.yul\":830:918   */\n      swap2\n      pop\n        /* \"#utility.yul\":646:924   */\n      pop\n        /* \"#utility.yul\":584:924   */\n      swap3\n      swap2\n      pop\n      pop\n      jump\t// out\n        /* \"#utility.yul\":930:1069   */\n    tag_211:\n        /* \"#utility.yul\":976:981   */\n      0x00\n        /* \"#utility.yul\":1014:1020   */\n      dup2\n        /* \"#utility.yul\":1001:1021   */\n      calldataload\n        /* \"#utility.yul\":992:1021   */\n      swap1\n      pop\n        /* \"#utility.yul\":1030:1063   */\n      tag_213\n        /* \"#utility.yul\":1057:1062   */\n      dup2\n        /* \"#utility.yul\":1030:1063   */\n      tag_214\n      jump\t// in\n    tag_213:\n        /* \"#utility.yul\":930:1069   */\n      swap3\n      swap2\n      pop\n      pop\n      jump\t// out\n        /* \"#utility.yul\":1075:1210   */\n    tag_215:\n        /* \"#utility.yul\":1119:1124   */\n      0x00\n        /* \"#utility.yul\":1157:1163   */\n      dup2\n        /* \"#utility.yul\":1144:1164   */\n      calldataload\n        /* \"#utility.yul\":1135:1164   */\n      swap1\n      pop\n        /* \"#utility.yul\":1173:1204   */\n      tag_217\n        /* \"#utility.yul\":1198:1203   */\n      dup2\n        /* \"#utility.yul\":1173:1204   */\n      tag_218\n      jump\t// in\n    tag_217:\n        /* \"#utility.yul\":1075:1210   */\n      swap3\n      swap2\n      pop\n      pop\n      jump\t// out\n        /* \"#utility.yul\":1216:1835   */\n    tag_16:\n        /* \"#utility.yul\":1293:1299   */\n      0x00\n        /* \"#utility.yul\":1301:1307   */\n      dup1\n        /* \"#utility.yul\":1309:1315   */\n      0x00\n        /* \"#utility.yul\":1358:1360   */\n      0x60\n        /* \"#utility.yul\":1346:1355   */\n      dup5\n        /* \"#utility.yul\":1337:1344   */\n      dup7\n        /* \"#utility.yul\":1333:1356   */\n      sub\n        /* \"#utility.yul\":1329:1361   */\n      slt\n        /* \"#utility.yul\":1326:1445   */\n      iszero\n      tag_220\n      jumpi\n        /* \"#utility.yul\":1364:1443   */\n      tag_221\n      tag_222\n      jump\t// in\n    tag_221:\n        /* \"#utility.yul\":1326:1445   */\n    tag_220:\n        /* \"#utility.yul\":1484:1485   */\n      0x00\n        /* \"#utility.yul\":1509:1562   */\n      tag_223\n        /* \"#utility.yul\":1554:1561   */\n      dup7\n        /* \"#utility.yul\":1545:1551   */\n      dup3\n        /* \"#utility.yul\":1534:1543   */\n      dup8\n        /* \"#utility.yul\":1530:1552   */\n      add\n        /* \"#utility.yul\":1509:1562   */\n      tag_211\n      jump\t// in\n    tag_223:\n        /* \"#utility.yul\":1499:1562   */\n      swap4\n      pop\n        /* \"#utility.yul\":1455:1572   */\n      pop\n        /* \"#utility.yul\":1611:1613   */\n      0x20\n        /* \"#utility.yul\":1637:1690   */\n      tag_224\n        /* \"#utility.yul\":1682:1689   */\n      dup7\n        /* \"#utility.yul\":1673:1679   */\n      dup3\n        /* \"#utility.yul\":1662:1671   */\n      dup8\n        /* \"#utility.yul\":1658:1680   */\n      add\n        /* \"#utility.yul\":1637:1690   */\n      tag_211\n      jump\t// in\n    tag_224:\n        /* \"#utility.yul\":1627:1690   */\n      swap3\n      pop\n        /* \"#utility.yul\":1582:1700   */\n      pop\n        /* \"#utility.yul\":1739:1741   */\n      0x40\n        /* \"#utility.yul\":1765:1818   */\n      tag_225\n        /* \"#utility.yul\":1810:1817   */\n      dup7\n        /* \"#utility.yul\":1801:1807   */\n      dup3\n        /* \"#utility.yul\":1790:1799   */\n      dup8\n        /* \"#utility.yul\":1786:1808   */\n      add\n        /* \"#utility.yul\":1765:1818   */\n      tag_211\n      jump\t// in\n    tag_225:\n        /* \"#utility.yul\":1755:1818   */\n      swap2\n      pop\n        /* \"#utility.yul\":1710:1828   */\n      pop\n        /* \"#utility.yul\":1216:1835   */\n      swap3\n      pop\n      swap3\n      pop\n      swap3\n      jump\t// out\n        /* \"#utility.yul\":1841:2748   */\n    tag_36:\n        /* \"#utility.yul\":1934:1940   */\n      0x00\n        /* \"#utility.yul\":1942:1948   */\n      dup1\n        /* \"#utility.yul\":1950:1956   */\n      0x00\n        /* \"#utility.yul\":1958:1964   */\n      dup1\n        /* \"#utility.yul\":1966:1972   */\n      0x00\n        /* \"#utility.yul\":2015:2018   */\n      0xa0\n        /* \"#utility.yul\":2003:2012   */\n      dup7\n        /* \"#utility.yul\":1994:2001   */\n      dup9\n        /* \"#utility.yul\":1990:2013   */\n      sub\n        /* \"#utility.yul\":1986:2019   */\n      slt\n        /* \"#utility.yul\":1983:2103   */\n      iszero\n      tag_227\n      jumpi\n        /* \"#utility.yul\":2022:2101   */\n      tag_228\n      tag_222\n      jump\t// in\n    tag_228:\n        /* \"#utility.yul\":1983:2103   */\n    tag_227:\n        /* \"#utility.yul\":2142:2143   */\n      0x00\n        /* \"#utility.yul\":2167:2220   */\n      tag_229\n        /* \"#utility.yul\":2212:2219   */\n      dup9\n        /* \"#utility.yul\":2203:2209   */\n      dup3\n        /* \"#utility.yul\":2192:2201   */\n      dup10\n        /* \"#utility.yul\":2188:2210   */\n      add\n        /* \"#utility.yul\":2167:2220   */\n      tag_211\n      jump\t// in\n    tag_229:\n        /* \"#utility.yul\":2157:2220   */\n      swap6\n      pop\n        /* \"#utility.yul\":2113:2230   */\n      pop\n        /* \"#utility.yul\":2269:2271   */\n      0x20\n        /* \"#utility.yul\":2295:2348   */\n      tag_230\n        /* \"#utility.yul\":2340:2347   */\n      dup9\n        /* \"#utility.yul\":2331:2337   */\n      dup3\n        /* \"#utility.yul\":2320:2329   */\n      dup10\n        /* \"#utility.yul\":2316:2338   */\n      add\n        /* \"#utility.yul\":2295:2348   */\n      tag_211\n      jump\t// in\n    tag_230:\n        /* \"#utility.yul\":2285:2348   */\n      swap5\n      pop\n        /* \"#utility.yul\":2240:2358   */\n      pop\n        /* \"#utility.yul\":2397:2399   */\n      0x40\n        /* \"#utility.yul\":2423:2476   */\n      tag_231\n        /* \"#utility.yul\":2468:2475   */\n      dup9\n        /* \"#utility.yul\":2459:2465   */\n      dup3\n        /* \"#utility.yul\":2448:2457   */\n      dup10\n        /* \"#utility.yul\":2444:2466   */\n      add\n        /* \"#utility.yul\":2423:2476   */\n      tag_211\n      jump\t// in\n    tag_231:\n        /* \"#utility.yul\":2413:2476   */\n      swap4\n      pop\n        /* \"#utility.yul\":2368:2486   */\n      pop\n        /* \"#utility.yul\":2525:2527   */\n      0x60\n        /* \"#utility.yul\":2551:2604   */\n      tag_232\n        /* \"#utility.yul\":2596:2603   */\n      dup9\n        /* \"#utility.yul\":2587:2593   */\n      dup3\n        /* \"#utility.yul\":2576:2585   */\n      dup10\n        /* \"#utility.yul\":2572:2594   */\n      add\n        /* \"#utility.yul\":2551:2604   */\n      tag_201\n      jump\t// in\n    tag_232:\n        /* \"#utility.yul\":2541:2604   */\n      swap3\n      pop\n        /* \"#utility.yul\":2496:2614   */\n      pop\n        /* \"#utility.yul\":2653:2656   */\n      0x80\n        /* \"#utility.yul\":2680:2731   */\n      tag_233\n        /* \"#utility.yul\":2723:2730   */\n      dup9\n        /* \"#utility.yul\":2714:2720   */\n      dup3\n        /* \"#utility.yul\":2703:2712   */\n      dup10\n        /* \"#utility.yul\":2699:2721   */\n      add\n        /* \"#utility.yul\":2680:2731   */\n      tag_215\n      jump\t// in\n    tag_233:\n        /* \"#utility.yul\":2670:2731   */\n      swap2\n      pop\n        /* \"#utility.yul\":2624:2741   */\n      pop\n        /* \"#utility.yul\":1841:2748   */\n      swap3\n      swap6\n      pop\n      swap3\n      swap6\n      swap1\n      swap4\n      pop\n      jump\t// out\n        /* \"#utility.yul\":2754:4025   */\n    tag_47:\n        /* \"#utility.yul\":2869:2875   */\n      0x00\n        /* \"#utility.yul\":2877:2883   */\n      dup1\n        /* \"#utility.yul\":2885:2891   */\n      0x00\n        /* \"#utility.yul\":2893:2899   */\n      dup1\n        /* \"#utility.yul\":2901:2907   */\n      0x00\n        /* \"#utility.yul\":2950:2953   */\n      0xa0\n        /* \"#utility.yul\":2938:2947   */\n      dup7\n        /* \"#utility.yul\":2929:2936   */\n      dup9\n        /* \"#utility.yul\":2925:2948   */\n      sub\n        /* \"#utility.yul\":2921:2954   */\n      slt\n        /* \"#utility.yul\":2918:3038   */\n      iszero\n      tag_235\n      jumpi\n        /* \"#utility.yul\":2957:3036   */\n      tag_236\n      tag_222\n      jump\t// in\n    tag_236:\n        /* \"#utility.yul\":2918:3038   */\n    tag_235:\n        /* \"#utility.yul\":3077:3078   */\n      0x00\n        /* \"#utility.yul\":3102:3155   */\n      tag_237\n        /* \"#utility.yul\":3147:3154   */\n      dup9\n        /* \"#utility.yul\":3138:3144   */\n      dup3\n        /* \"#utility.yul\":3127:3136   */\n      dup10\n        /* \"#utility.yul\":3123:3145   */\n      add\n        /* \"#utility.yul\":3102:3155   */\n      tag_211\n      jump\t// in\n    tag_237:\n        /* \"#utility.yul\":3092:3155   */\n      swap6\n      pop\n        /* \"#utility.yul\":3048:3165   */\n      pop\n        /* \"#utility.yul\":3204:3206   */\n      0x20\n        /* \"#utility.yul\":3230:3283   */\n      tag_238\n        /* \"#utility.yul\":3275:3282   */\n      dup9\n        /* \"#utility.yul\":3266:3272   */\n      dup3\n        /* \"#utility.yul\":3255:3264   */\n      dup10\n        /* \"#utility.yul\":3251:3273   */\n      add\n        /* \"#utility.yul\":3230:3283   */\n      tag_211\n      jump\t// in\n    tag_238:\n        /* \"#utility.yul\":3220:3283   */\n      swap5\n      pop\n        /* \"#utility.yul\":3175:3293   */\n      pop\n        /* \"#utility.yul\":3332:3334   */\n      0x40\n        /* \"#utility.yul\":3358:3411   */\n      tag_239\n        /* \"#utility.yul\":3403:3410   */\n      dup9\n        /* \"#utility.yul\":3394:3400   */\n      dup3\n        /* \"#utility.yul\":3383:3392   */\n      dup10\n        /* \"#utility.yul\":3379:3401   */\n      add\n        /* \"#utility.yul\":3358:3411   */\n      tag_211\n      jump\t// in\n    tag_239:\n        /* \"#utility.yul\":3348:3411   */\n      swap4\n      pop\n        /* \"#utility.yul\":3303:3421   */\n      pop\n        /* \"#utility.yul\":3488:3490   */\n      0x60\n        /* \"#utility.yul\":3477:3486   */\n      dup7\n        /* \"#utility.yul\":3473:3491   */\n      add\n        /* \"#utility.yul\":3460:3492   */\n      calldataload\n        /* \"#utility.yul\":3519:3537   */\n      0xffffffffffffffff\n        /* \"#utility.yul\":3511:3517   */\n      dup2\n        /* \"#utility.yul\":3508:3538   */\n      gt\n        /* \"#utility.yul\":3505:3622   */\n      iszero\n      tag_240\n      jumpi\n        /* \"#utility.yul\":3541:3620   */\n      tag_241\n      tag_242\n      jump\t// in\n    tag_241:\n        /* \"#utility.yul\":3505:3622   */\n    tag_240:\n        /* \"#utility.yul\":3646:3709   */\n      tag_243\n        /* \"#utility.yul\":3701:3708   */\n      dup9\n        /* \"#utility.yul\":3692:3698   */\n      dup3\n        /* \"#utility.yul\":3681:3690   */\n      dup10\n        /* \"#utility.yul\":3677:3699   */\n      add\n        /* \"#utility.yul\":3646:3709   */\n      tag_205\n      jump\t// in\n    tag_243:\n        /* \"#utility.yul\":3636:3709   */\n      swap3\n      pop\n        /* \"#utility.yul\":3431:3719   */\n      pop\n        /* \"#utility.yul\":3786:3789   */\n      0x80\n        /* \"#utility.yul\":3775:3784   */\n      dup7\n        /* \"#utility.yul\":3771:3790   */\n      add\n        /* \"#utility.yul\":3758:3791   */\n      calldataload\n        /* \"#utility.yul\":3818:3836   */\n      0xffffffffffffffff\n        /* \"#utility.yul\":3810:3816   */\n      dup2\n        /* \"#utility.yul\":3807:3837   */\n      gt\n        /* \"#utility.yul\":3804:3921   */\n      iszero\n      tag_244\n      jumpi\n        /* \"#utility.yul\":3840:3919   */\n      tag_245\n      tag_242\n      jump\t// in\n    tag_245:\n        /* \"#utility.yul\":3804:3921   */\n    tag_244:\n        /* \"#utility.yul\":3945:4008   */\n      tag_246\n        /* \"#utility.yul\":4000:4007   */\n      dup9\n        /* \"#utility.yul\":3991:3997   */\n      dup3\n        /* \"#utility.yul\":3980:3989   */\n      dup10\n        /* \"#utility.yul\":3976:3998   */\n      add\n        /* \"#utility.yul\":3945:4008   */\n      tag_205\n      jump\t// in\n    tag_246:\n        /* \"#utility.yul\":3935:4008   */\n      swap2\n      pop\n        /* \"#utility.yul\":3729:4018   */\n      pop\n        /* \"#utility.yul\":2754:4025   */\n      swap3\n      swap6\n      pop\n      swap3\n      swap6\n      swap1\n      swap4\n      pop\n      jump\t// out\n        /* \"#utility.yul\":4031:5740   */\n    tag_55:\n        /* \"#utility.yul\":4173:4179   */\n      0x00\n        /* \"#utility.yul\":4181:4187   */\n      dup1\n        /* \"#utility.yul\":4189:4195   */\n      0x00\n        /* \"#utility.yul\":4197:4203   */\n      dup1\n        /* \"#utility.yul\":4205:4211   */\n      0x00\n        /* \"#utility.yul\":4213:4219   */\n      dup1\n        /* \"#utility.yul\":4221:4227   */\n      0x00\n        /* \"#utility.yul\":4229:4235   */\n      dup1\n        /* \"#utility.yul\":4278:4281   */\n      0x0100\n        /* \"#utility.yul\":4266:4275   */\n      dup10\n        /* \"#utility.yul\":4257:4264   */\n      dup12\n        /* \"#utility.yul\":4253:4276   */\n      sub\n        /* \"#utility.yul\":4249:4282   */\n      slt\n        /* \"#utility.yul\":4246:4366   */\n      iszero\n      tag_248\n      jumpi\n        /* \"#utility.yul\":4285:4364   */\n      tag_249\n      tag_222\n      jump\t// in\n    tag_249:\n        /* \"#utility.yul\":4246:4366   */\n    tag_248:\n        /* \"#utility.yul\":4405:4406   */\n      0x00\n        /* \"#utility.yul\":4430:4483   */\n      tag_250\n        /* \"#utility.yul\":4475:4482   */\n      dup12\n        /* \"#utility.yul\":4466:4472   */\n      dup3\n        /* \"#utility.yul\":4455:4464   */\n      dup13\n        /* \"#utility.yul\":4451:4473   */\n      add\n        /* \"#utility.yul\":4430:4483   */\n      tag_211\n      jump\t// in\n    tag_250:\n        /* \"#utility.yul\":4420:4483   */\n      swap9\n      pop\n        /* \"#utility.yul\":4376:4493   */\n      pop\n        /* \"#utility.yul\":4532:4534   */\n      0x20\n        /* \"#utility.yul\":4558:4611   */\n      tag_251\n        /* \"#utility.yul\":4603:4610   */\n      dup12\n        /* \"#utility.yul\":4594:4600   */\n      dup3\n        /* \"#utility.yul\":4583:4592   */\n      dup13\n        /* \"#utility.yul\":4579:4601   */\n      add\n        /* \"#utility.yul\":4558:4611   */\n      tag_211\n      jump\t// in\n    tag_251:\n        /* \"#utility.yul\":4548:4611   */\n      swap8\n      pop\n        /* \"#utility.yul\":4503:4621   */\n      pop\n        /* \"#utility.yul\":4660:4662   */\n      0x40\n        /* \"#utility.yul\":4686:4739   */\n      tag_252\n        /* \"#utility.yul\":4731:4738   */\n      dup12\n        /* \"#utility.yul\":4722:4728   */\n      dup3\n        /* \"#utility.yul\":4711:4720   */\n      dup13\n        /* \"#utility.yul\":4707:4729   */\n      add\n        /* \"#utility.yul\":4686:4739   */\n      tag_211\n      jump\t// in\n    tag_252:\n        /* \"#utility.yul\":4676:4739   */\n      swap7\n      pop\n        /* \"#utility.yul\":4631:4749   */\n      pop\n        /* \"#utility.yul\":4816:4818   */\n      0x60\n        /* \"#utility.yul\":4805:4814   */\n      dup10\n        /* \"#utility.yul\":4801:4819   */\n      add\n        /* \"#utility.yul\":4788:4820   */\n      calldataload\n        /* \"#utility.yul\":4847:4865   */\n      0xffffffffffffffff\n        /* \"#utility.yul\":4839:4845   */\n      dup2\n        /* \"#utility.yul\":4836:4866   */\n      gt\n        /* \"#utility.yul\":4833:4950   */\n      iszero\n      tag_253\n      jumpi\n        /* \"#utility.yul\":4869:4948   */\n      tag_254\n      tag_242\n      jump\t// in\n    tag_254:\n        /* \"#utility.yul\":4833:4950   */\n    tag_253:\n        /* \"#utility.yul\":4974:5037   */\n      tag_255\n        /* \"#utility.yul\":5029:5036   */\n      dup12\n        /* \"#utility.yul\":5020:5026   */\n      dup3\n        /* \"#utility.yul\":5009:5018   */\n      dup13\n        /* \"#utility.yul\":5005:5027   */\n      add\n        /* \"#utility.yul\":4974:5037   */\n      tag_205\n      jump\t// in\n    tag_255:\n        /* \"#utility.yul\":4964:5037   */\n      swap6\n      pop\n        /* \"#utility.yul\":4759:5047   */\n      pop\n        /* \"#utility.yul\":5114:5117   */\n      0x80\n        /* \"#utility.yul\":5103:5112   */\n      dup10\n        /* \"#utility.yul\":5099:5118   */\n      add\n        /* \"#utility.yul\":5086:5119   */\n      calldataload\n        /* \"#utility.yul\":5146:5164   */\n      0xffffffffffffffff\n        /* \"#utility.yul\":5138:5144   */\n      dup2\n        /* \"#utility.yul\":5135:5165   */\n      gt\n        /* \"#utility.yul\":5132:5249   */\n      iszero\n      tag_256\n      jumpi\n        /* \"#utility.yul\":5168:5247   */\n      tag_257\n      tag_242\n      jump\t// in\n    tag_257:\n        /* \"#utility.yul\":5132:5249   */\n    tag_256:\n        /* \"#utility.yul\":5273:5336   */\n      tag_258\n        /* \"#utility.yul\":5328:5335   */\n      dup12\n        /* \"#utility.yul\":5319:5325   */\n      dup3\n        /* \"#utility.yul\":5308:5317   */\n      dup13\n        /* \"#utility.yul\":5304:5326   */\n      add\n        /* \"#utility.yul\":5273:5336   */\n      tag_205\n      jump\t// in\n    tag_258:\n        /* \"#utility.yul\":5263:5336   */\n      swap5\n      pop\n        /* \"#utility.yul\":5057:5346   */\n      pop\n        /* \"#utility.yul\":5385:5388   */\n      0xa0\n        /* \"#utility.yul\":5412:5465   */\n      tag_259\n        /* \"#utility.yul\":5457:5464   */\n      dup12\n        /* \"#utility.yul\":5448:5454   */\n      dup3\n        /* \"#utility.yul\":5437:5446   */\n      dup13\n        /* \"#utility.yul\":5433:5455   */\n      add\n        /* \"#utility.yul\":5412:5465   */\n      tag_201\n      jump\t// in\n    tag_259:\n        /* \"#utility.yul\":5402:5465   */\n      swap4\n      pop\n        /* \"#utility.yul\":5356:5475   */\n      pop\n        /* \"#utility.yul\":5514:5517   */\n      0xc0\n        /* \"#utility.yul\":5541:5594   */\n      tag_260\n        /* \"#utility.yul\":5586:5593   */\n      dup12\n        /* \"#utility.yul\":5577:5583   */\n      dup3\n        /* \"#utility.yul\":5566:5575   */\n      dup13\n        /* \"#utility.yul\":5562:5584   */\n      add\n        /* \"#utility.yul\":5541:5594   */\n      tag_201\n      jump\t// in\n    tag_260:\n        /* \"#utility.yul\":5531:5594   */\n      swap3\n      pop\n        /* \"#utility.yul\":5485:5604   */\n      pop\n        /* \"#utility.yul\":5643:5646   */\n      0xe0\n        /* \"#utility.yul\":5670:5723   */\n      tag_261\n        /* \"#utility.yul\":5715:5722   */\n      dup12\n        /* \"#utility.yul\":5706:5712   */\n      dup3\n        /* \"#utility.yul\":5695:5704   */\n      dup13\n        /* \"#utility.yul\":5691:5713   */\n      add\n        /* \"#utility.yul\":5670:5723   */\n      tag_211\n      jump\t// in\n    tag_261:\n        /* \"#utility.yul\":5660:5723   */\n      swap2\n      pop\n        /* \"#utility.yul\":5614:5733   */\n      pop\n        /* \"#utility.yul\":4031:5740   */\n      swap3\n      swap6\n      swap9\n      pop\n      swap3\n      swap6\n      swap9\n      swap1\n      swap4\n      swap7\n      pop\n      jump\t// out\n        /* \"#utility.yul\":5746:5864   */\n    tag_262:\n        /* \"#utility.yul\":5833:5857   */\n      tag_264\n        /* \"#utility.yul\":5851:5856   */\n      dup2\n        /* \"#utility.yul\":5833:5857   */\n      tag_265\n      jump\t// in\n    tag_264:\n        /* \"#utility.yul\":5828:5831   */\n      dup3\n        /* \"#utility.yul\":5821:5858   */\n      mstore\n        /* \"#utility.yul\":5746:5864   */\n      pop\n      pop\n      jump\t// out\n        /* \"#utility.yul\":5870:5979   */\n    tag_266:\n        /* \"#utility.yul\":5951:5972   */\n      tag_268\n        /* \"#utility.yul\":5966:5971   */\n      dup2\n        /* \"#utility.yul\":5951:5972   */\n      tag_269\n      jump\t// in\n    tag_268:\n        /* \"#utility.yul\":5946:5949   */\n      dup3\n        /* \"#utility.yul\":5939:5973   */\n      mstore\n        /* \"#utility.yul\":5870:5979   */\n      pop\n      pop\n      jump\t// out\n        /* \"#utility.yul\":5985:6148   */\n    tag_270:\n        /* \"#utility.yul\":6088:6141   */\n      tag_272\n        /* \"#utility.yul\":6135:6140   */\n      dup2\n        /* \"#utility.yul\":6088:6141   */\n      tag_273\n      jump\t// in\n    tag_272:\n        /* \"#utility.yul\":6083:6086   */\n      dup3\n        /* \"#utility.yul\":6076:6142   */\n      mstore\n        /* \"#utility.yul\":5985:6148   */\n      pop\n      pop\n      jump\t// out\n        /* \"#utility.yul\":6154:6520   */\n    tag_274:\n        /* \"#utility.yul\":6296:6299   */\n      0x00\n        /* \"#utility.yul\":6317:6384   */\n      tag_276\n        /* \"#utility.yul\":6381:6383   */\n      0x57\n        /* \"#utility.yul\":6376:6379   */\n      dup4\n        /* \"#utility.yul\":6317:6384   */\n      tag_277\n      jump\t// in\n    tag_276:\n        /* \"#utility.yul\":6310:6384   */\n      swap2\n      pop\n        /* \"#utility.yul\":6393:6486   */\n      tag_278\n        /* \"#utility.yul\":6482:6485   */\n      dup3\n        /* \"#utility.yul\":6393:6486   */\n      tag_279\n      jump\t// in\n    tag_278:\n        /* \"#utility.yul\":6511:6513   */\n      0x60\n        /* \"#utility.yul\":6506:6509   */\n      dup3\n        /* \"#utility.yul\":6502:6514   */\n      add\n        /* \"#utility.yul\":6495:6514   */\n      swap1\n      pop\n        /* \"#utility.yul\":6154:6520   */\n      swap2\n      swap1\n      pop\n      jump\t// out\n        /* \"#utility.yul\":6526:6892   */\n    tag_280:\n        /* \"#utility.yul\":6668:6671   */\n      0x00\n        /* \"#utility.yul\":6689:6756   */\n      tag_282\n        /* \"#utility.yul\":6753:6755   */\n      0x2d\n        /* \"#utility.yul\":6748:6751   */\n      dup4\n        /* \"#utility.yul\":6689:6756   */\n      tag_277\n      jump\t// in\n    tag_282:\n        /* \"#utility.yul\":6682:6756   */\n      swap2\n      pop\n        /* \"#utility.yul\":6765:6858   */\n      tag_283\n        /* \"#utility.yul\":6854:6857   */\n      dup3\n        /* \"#utility.yul\":6765:6858   */\n      tag_284\n      jump\t// in\n    tag_283:\n        /* \"#utility.yul\":6883:6885   */\n      0x40\n        /* \"#utility.yul\":6878:6881   */\n      dup3\n        /* \"#utility.yul\":6874:6886   */\n      add\n        /* \"#utility.yul\":6867:6886   */\n      swap1\n      pop\n        /* \"#utility.yul\":6526:6892   */\n      swap2\n      swap1\n      pop\n      jump\t// out\n        /* \"#utility.yul\":6898:7264   */\n    tag_285:\n        /* \"#utility.yul\":7040:7043   */\n      0x00\n        /* \"#utility.yul\":7061:7128   */\n      tag_287\n        /* \"#utility.yul\":7125:7127   */\n      0x20\n        /* \"#utility.yul\":7120:7123   */\n      dup4\n        /* \"#utility.yul\":7061:7128   */\n      tag_277\n      jump\t// in\n    tag_287:\n        /* \"#utility.yul\":7054:7128   */\n      swap2\n      pop\n        /* \"#utility.yul\":7137:7230   */\n      tag_288\n        /* \"#utility.yul\":7226:7229   */\n      dup3\n        /* \"#utility.yul\":7137:7230   */\n      tag_289\n      jump\t// in\n    tag_288:\n        /* \"#utility.yul\":7255:7257   */\n      0x20\n        /* \"#utility.yul\":7250:7253   */\n      dup3\n        /* \"#utility.yul\":7246:7258   */\n      add\n        /* \"#utility.yul\":7239:7258   */\n      swap1\n      pop\n        /* \"#utility.yul\":6898:7264   */\n      swap2\n      swap1\n      pop\n      jump\t// out\n        /* \"#utility.yul\":7270:7636   */\n    tag_290:\n        /* \"#utility.yul\":7412:7415   */\n      0x00\n        /* \"#utility.yul\":7433:7500   */\n      tag_292\n        /* \"#utility.yul\":7497:7499   */\n      0x1d\n        /* \"#utility.yul\":7492:7495   */\n      dup4\n        /* \"#utility.yul\":7433:7500   */\n      tag_277\n      jump\t// in\n    tag_292:\n        /* \"#utility.yul\":7426:7500   */\n      swap2\n      pop\n        /* \"#utility.yul\":7509:7602   */\n      tag_293\n        /* \"#utility.yul\":7598:7601   */\n      dup3\n        /* \"#utility.yul\":7509:7602   */\n      tag_294\n      jump\t// in\n    tag_293:\n        /* \"#utility.yul\":7627:7629   */\n      0x20\n        /* \"#utility.yul\":7622:7625   */\n      dup3\n        /* \"#utility.yul\":7618:7630   */\n      add\n        /* \"#utility.yul\":7611:7630   */\n      swap1\n      pop\n        /* \"#utility.yul\":7270:7636   */\n      swap2\n      swap1\n      pop\n      jump\t// out\n        /* \"#utility.yul\":7642:8008   */\n    tag_295:\n        /* \"#utility.yul\":7784:7787   */\n      0x00\n        /* \"#utility.yul\":7805:7872   */\n      tag_297\n        /* \"#utility.yul\":7869:7871   */\n      0x30\n        /* \"#utility.yul\":7864:7867   */\n      dup4\n        /* \"#utility.yul\":7805:7872   */\n      tag_277\n      jump\t// in\n    tag_297:\n        /* \"#utility.yul\":7798:7872   */\n      swap2\n      pop\n        /* \"#utility.yul\":7881:7974   */\n      tag_298\n        /* \"#utility.yul\":7970:7973   */\n      dup3\n        /* \"#utility.yul\":7881:7974   */\n      tag_299\n      jump\t// in\n    tag_298:\n        /* \"#utility.yul\":7999:8001   */\n      0x40\n        /* \"#utility.yul\":7994:7997   */\n      dup3\n        /* \"#utility.yul\":7990:8002   */\n      add\n        /* \"#utility.yul\":7983:8002   */\n      swap1\n      pop\n        /* \"#utility.yul\":7642:8008   */\n      swap2\n      swap1\n      pop\n      jump\t// out\n        /* \"#utility.yul\":8014:8380   */\n    tag_300:\n        /* \"#utility.yul\":8156:8159   */\n      0x00\n        /* \"#utility.yul\":8177:8244   */\n      tag_302\n        /* \"#utility.yul\":8241:8243   */\n      0x40\n        /* \"#utility.yul\":8236:8239   */\n      dup4\n        /* \"#utility.yul\":8177:8244   */\n      tag_277\n      jump\t// in\n    tag_302:\n        /* \"#utility.yul\":8170:8244   */\n      swap2\n      pop\n        /* \"#utility.yul\":8253:8346   */\n      tag_303\n        /* \"#utility.yul\":8342:8345   */\n      dup3\n        /* \"#utility.yul\":8253:8346   */\n      tag_304\n      jump\t// in\n    tag_303:\n        /* \"#utility.yul\":8371:8373   */\n      0x40\n        /* \"#utility.yul\":8366:8369   */\n      dup3\n        /* \"#utility.yul\":8362:8374   */\n      add\n        /* \"#utility.yul\":8355:8374   */\n      swap1\n      pop\n        /* \"#utility.yul\":8014:8380   */\n      swap2\n      swap1\n      pop\n      jump\t// out\n        /* \"#utility.yul\":8386:8752   */\n    tag_305:\n        /* \"#utility.yul\":8528:8531   */\n      0x00\n        /* \"#utility.yul\":8549:8616   */\n      tag_307\n        /* \"#utility.yul\":8613:8615   */\n      0x3d\n        /* \"#utility.yul\":8608:8611   */\n      dup4\n        /* \"#utility.yul\":8549:8616   */\n      tag_277\n      jump\t// in\n    tag_307:\n        /* \"#utility.yul\":8542:8616   */\n      swap2\n      pop\n        /* \"#utility.yul\":8625:8718   */\n      tag_308\n        /* \"#utility.yul\":8714:8717   */\n      dup3\n        /* \"#utility.yul\":8625:8718   */\n      tag_309\n      jump\t// in\n    tag_308:\n        /* \"#utility.yul\":8743:8745   */\n      0x40\n        /* \"#utility.yul\":8738:8741   */\n      dup3\n        /* \"#utility.yul\":8734:8746   */\n      add\n        /* \"#utility.yul\":8727:8746   */\n      swap1\n      pop\n        /* \"#utility.yul\":8386:8752   */\n      swap2\n      swap1\n      pop\n      jump\t// out\n        /* \"#utility.yul\":8758:9124   */\n    tag_310:\n        /* \"#utility.yul\":8900:8903   */\n      0x00\n        /* \"#utility.yul\":8921:8988   */\n      tag_312\n        /* \"#utility.yul\":8985:8987   */\n      0x4a\n        /* \"#utility.yul\":8980:8983   */\n      dup4\n        /* \"#utility.yul\":8921:8988   */\n      tag_277\n      jump\t// in\n    tag_312:\n        /* \"#utility.yul\":8914:8988   */\n      swap2\n      pop\n        /* \"#utility.yul\":8997:9090   */\n      tag_313\n        /* \"#utility.yul\":9086:9089   */\n      dup3\n        /* \"#utility.yul\":8997:9090   */\n      tag_314\n      jump\t// in\n    tag_313:\n        /* \"#utility.yul\":9115:9117   */\n      0x60\n        /* \"#utility.yul\":9110:9113   */\n      dup3\n        /* \"#utility.yul\":9106:9118   */\n      add\n        /* \"#utility.yul\":9099:9118   */\n      swap1\n      pop\n        /* \"#utility.yul\":8758:9124   */\n      swap2\n      swap1\n      pop\n      jump\t// out\n        /* \"#utility.yul\":9130:9496   */\n    tag_315:\n        /* \"#utility.yul\":9272:9275   */\n      0x00\n        /* \"#utility.yul\":9293:9360   */\n      tag_317\n        /* \"#utility.yul\":9357:9359   */\n      0x15\n        /* \"#utility.yul\":9352:9355   */\n      dup4\n        /* \"#utility.yul\":9293:9360   */\n      tag_277\n      jump\t// in\n    tag_317:\n        /* \"#utility.yul\":9286:9360   */\n      swap2\n      pop\n        /* \"#utility.yul\":9369:9462   */\n      tag_318\n        /* \"#utility.yul\":9458:9461   */\n      dup3\n        /* \"#utility.yul\":9369:9462   */\n      tag_319\n      jump\t// in\n    tag_318:\n        /* \"#utility.yul\":9487:9489   */\n      0x20\n        /* \"#utility.yul\":9482:9485   */\n      dup3\n        /* \"#utility.yul\":9478:9490   */\n      add\n        /* \"#utility.yul\":9471:9490   */\n      swap1\n      pop\n        /* \"#utility.yul\":9130:9496   */\n      swap2\n      swap1\n      pop\n      jump\t// out\n        /* \"#utility.yul\":9502:9868   */\n    tag_320:\n        /* \"#utility.yul\":9644:9647   */\n      0x00\n        /* \"#utility.yul\":9665:9732   */\n      tag_322\n        /* \"#utility.yul\":9729:9731   */\n      0x39\n        /* \"#utility.yul\":9724:9727   */\n      dup4\n        /* \"#utility.yul\":9665:9732   */\n      tag_277\n      jump\t// in\n    tag_322:\n        /* \"#utility.yul\":9658:9732   */\n      swap2\n      pop\n        /* \"#utility.yul\":9741:9834   */\n      tag_323\n        /* \"#utility.yul\":9830:9833   */\n      dup3\n        /* \"#utility.yul\":9741:9834   */\n      tag_324\n      jump\t// in\n    tag_323:\n        /* \"#utility.yul\":9859:9861   */\n      0x40\n        /* \"#utility.yul\":9854:9857   */\n      dup3\n        /* \"#utility.yul\":9850:9862   */\n      add\n        /* \"#utility.yul\":9843:9862   */\n      swap1\n      pop\n        /* \"#utility.yul\":9502:9868   */\n      swap2\n      swap1\n      pop\n      jump\t// out\n        /* \"#utility.yul\":9874:10240   */\n    tag_325:\n        /* \"#utility.yul\":10016:10019   */\n      0x00\n        /* \"#utility.yul\":10037:10104   */\n      tag_327\n        /* \"#utility.yul\":10101:10103   */\n      0x20\n        /* \"#utility.yul\":10096:10099   */\n      dup4\n        /* \"#utility.yul\":10037:10104   */\n      tag_277\n      jump\t// in\n    tag_327:\n        /* \"#utility.yul\":10030:10104   */\n      swap2\n      pop\n        /* \"#utility.yul\":10113:10206   */\n      tag_328\n        /* \"#utility.yul\":10202:10205   */\n      dup3\n        /* \"#utility.yul\":10113:10206   */\n      tag_329\n      jump\t// in\n    tag_328:\n        /* \"#utility.yul\":10231:10233   */\n      0x20\n        /* \"#utility.yul\":10226:10229   */\n      dup3\n        /* \"#utility.yul\":10222:10234   */\n      add\n        /* \"#utility.yul\":10215:10234   */\n      swap1\n      pop\n        /* \"#utility.yul\":9874:10240   */\n      swap2\n      swap1\n      pop\n      jump\t// out\n        /* \"#utility.yul\":10246:10364   */\n    tag_330:\n        /* \"#utility.yul\":10333:10357   */\n      tag_332\n        /* \"#utility.yul\":10351:10356   */\n      dup2\n        /* \"#utility.yul\":10333:10357   */\n      tag_333\n      jump\t// in\n    tag_332:\n        /* \"#utility.yul\":10328:10331   */\n      dup3\n        /* \"#utility.yul\":10321:10358   */\n      mstore\n        /* \"#utility.yul\":10246:10364   */\n      pop\n      pop\n      jump\t// out\n        /* \"#utility.yul\":10370:10482   */\n    tag_334:\n        /* \"#utility.yul\":10453:10475   */\n      tag_336\n        /* \"#utility.yul\":10469:10474   */\n      dup2\n        /* \"#utility.yul\":10453:10475   */\n      tag_337\n      jump\t// in\n    tag_336:\n        /* \"#utility.yul\":10448:10451   */\n      dup3\n        /* \"#utility.yul\":10441:10476   */\n      mstore\n        /* \"#utility.yul\":10370:10482   */\n      pop\n      pop\n      jump\t// out\n        /* \"#utility.yul\":10488:10698   */\n    tag_39:\n        /* \"#utility.yul\":10575:10579   */\n      0x00\n        /* \"#utility.yul\":10613:10615   */\n      0x20\n        /* \"#utility.yul\":10602:10611   */\n      dup3\n        /* \"#utility.yul\":10598:10616   */\n      add\n        /* \"#utility.yul\":10590:10616   */\n      swap1\n      pop\n        /* \"#utility.yul\":10626:10691   */\n      tag_339\n        /* \"#utility.yul\":10688:10689   */\n      0x00\n        /* \"#utility.yul\":10677:10686   */\n      dup4\n        /* \"#utility.yul\":10673:10690   */\n      add\n        /* \"#utility.yul\":10664:10670   */\n      dup5\n        /* \"#utility.yul\":10626:10691   */\n      tag_266\n      jump\t// in\n    tag_339:\n        /* \"#utility.yul\":10488:10698   */\n      swap3\n      swap2\n      pop\n      pop\n      jump\t// out\n        /* \"#utility.yul\":10704:10958   */\n    tag_44:\n        /* \"#utility.yul\":10813:10817   */\n      0x00\n        /* \"#utility.yul\":10851:10853   */\n      0x20\n        /* \"#utility.yul\":10840:10849   */\n      dup3\n        /* \"#utility.yul\":10836:10854   */\n      add\n        /* \"#utility.yul\":10828:10854   */\n      swap1\n      pop\n        /* \"#utility.yul\":10864:10951   */\n      tag_341\n        /* \"#utility.yul\":10948:10949   */\n      0x00\n        /* \"#utility.yul\":10937:10946   */\n      dup4\n        /* \"#utility.yul\":10933:10950   */\n      add\n        /* \"#utility.yul\":10924:10930   */\n      dup5\n        /* \"#utility.yul\":10864:10951   */\n      tag_270\n      jump\t// in\n    tag_341:\n        /* \"#utility.yul\":10704:10958   */\n      swap3\n      swap2\n      pop\n      pop\n      jump\t// out\n        /* \"#utility.yul\":10964:11383   */\n    tag_124:\n        /* \"#utility.yul\":11130:11134   */\n      0x00\n        /* \"#utility.yul\":11168:11170   */\n      0x20\n        /* \"#utility.yul\":11157:11166   */\n      dup3\n        /* \"#utility.yul\":11153:11171   */\n      add\n        /* \"#utility.yul\":11145:11171   */\n      swap1\n      pop\n        /* \"#utility.yul\":11217:11226   */\n      dup2\n        /* \"#utility.yul\":11211:11215   */\n      dup2\n        /* \"#utility.yul\":11207:11227   */\n      sub\n        /* \"#utility.yul\":11203:11204   */\n      0x00\n        /* \"#utility.yul\":11192:11201   */\n      dup4\n        /* \"#utility.yul\":11188:11205   */\n      add\n        /* \"#utility.yul\":11181:11228   */\n      mstore\n        /* \"#utility.yul\":11245:11376   */\n      tag_343\n        /* \"#utility.yul\":11371:11375   */\n      dup2\n        /* \"#utility.yul\":11245:11376   */\n      tag_274\n      jump\t// in\n    tag_343:\n        /* \"#utility.yul\":11237:11376   */\n      swap1\n      pop\n        /* \"#utility.yul\":10964:11383   */\n      swap2\n      swap1\n      pop\n      jump\t// out\n        /* \"#utility.yul\":11389:11808   */\n    tag_120:\n        /* \"#utility.yul\":11555:11559   */\n      0x00\n        /* \"#utility.yul\":11593:11595   */\n      0x20\n        /* \"#utility.yul\":11582:11591   */\n      dup3\n        /* \"#utility.yul\":11578:11596   */\n      add\n        /* \"#utility.yul\":11570:11596   */\n      swap1\n      pop\n        /* \"#utility.yul\":11642:11651   */\n      dup2\n        /* \"#utility.yul\":11636:11640   */\n      dup2\n        /* \"#utility.yul\":11632:11652   */\n      sub\n        /* \"#utility.yul\":11628:11629   */\n      0x00\n        /* \"#utility.yul\":11617:11626   */\n      dup4\n        /* \"#utility.yul\":11613:11630   */\n      add\n        /* \"#utility.yul\":11606:11653   */\n      mstore\n        /* \"#utility.yul\":11670:11801   */\n      tag_345\n        /* \"#utility.yul\":11796:11800   */\n      dup2\n        /* \"#utility.yul\":11670:11801   */\n      tag_280\n      jump\t// in\n    tag_345:\n        /* \"#utility.yul\":11662:11801   */\n      swap1\n      pop\n        /* \"#utility.yul\":11389:11808   */\n      swap2\n      swap1\n      pop\n      jump\t// out\n        /* \"#utility.yul\":11814:12233   */\n    tag_69:\n        /* \"#utility.yul\":11980:11984   */\n      0x00\n        /* \"#utility.yul\":12018:12020   */\n      0x20\n        /* \"#utility.yul\":12007:12016   */\n      dup3\n        /* \"#utility.yul\":12003:12021   */\n      add\n        /* \"#utility.yul\":11995:12021   */\n      swap1\n      pop\n        /* \"#utility.yul\":12067:12076   */\n      dup2\n        /* \"#utility.yul\":12061:12065   */\n      dup2\n        /* \"#utility.yul\":12057:12077   */\n      sub\n        /* \"#utility.yul\":12053:12054   */\n      0x00\n        /* \"#utility.yul\":12042:12051   */\n      dup4\n        /* \"#utility.yul\":12038:12055   */\n      add\n        /* \"#utility.yul\":12031:12078   */\n      mstore\n        /* \"#utility.yul\":12095:12226   */\n      tag_347\n        /* \"#utility.yul\":12221:12225   */\n      dup2\n        /* \"#utility.yul\":12095:12226   */\n      tag_285\n      jump\t// in\n    tag_347:\n        /* \"#utility.yul\":12087:12226   */\n      swap1\n      pop\n        /* \"#utility.yul\":11814:12233   */\n      swap2\n      swap1\n      pop\n      jump\t// out\n        /* \"#utility.yul\":12239:12658   */\n    tag_60:\n        /* \"#utility.yul\":12405:12409   */\n      0x00\n        /* \"#utility.yul\":12443:12445   */\n      0x20\n        /* \"#utility.yul\":12432:12441   */\n      dup3\n        /* \"#utility.yul\":12428:12446   */\n      add\n        /* \"#utility.yul\":12420:12446   */\n      swap1\n      pop\n        /* \"#utility.yul\":12492:12501   */\n      dup2\n        /* \"#utility.yul\":12486:12490   */\n      dup2\n        /* \"#utility.yul\":12482:12502   */\n      sub\n        /* \"#utility.yul\":12478:12479   */\n      0x00\n        /* \"#utility.yul\":12467:12476   */\n      dup4\n        /* \"#utility.yul\":12463:12480   */\n      add\n        /* \"#utility.yul\":12456:12503   */\n      mstore\n        /* \"#utility.yul\":12520:12651   */\n      tag_349\n        /* \"#utility.yul\":12646:12650   */\n      dup2\n        /* \"#utility.yul\":12520:12651   */\n      tag_290\n      jump\t// in\n    tag_349:\n        /* \"#utility.yul\":12512:12651   */\n      swap1\n      pop\n        /* \"#utility.yul\":12239:12658   */\n      swap2\n      swap1\n      pop\n      jump\t// out\n        /* \"#utility.yul\":12664:13083   */\n    tag_111:\n        /* \"#utility.yul\":12830:12834   */\n      0x00\n        /* \"#utility.yul\":12868:12870   */\n      0x20\n        /* \"#utility.yul\":12857:12866   */\n      dup3\n        /* \"#utility.yul\":12853:12871   */\n      add\n        /* \"#utility.yul\":12845:12871   */\n      swap1\n      pop\n        /* \"#utility.yul\":12917:12926   */\n      dup2\n        /* \"#utility.yul\":12911:12915   */\n      dup2\n        /* \"#utility.yul\":12907:12927   */\n      sub\n        /* \"#utility.yul\":12903:12904   */\n      0x00\n        /* \"#utility.yul\":12892:12901   */\n      dup4\n        /* \"#utility.yul\":12888:12905   */\n      add\n        /* \"#utility.yul\":12881:12928   */\n      mstore\n        /* \"#utility.yul\":12945:13076   */\n      tag_351\n        /* \"#utility.yul\":13071:13075   */\n      dup2\n        /* \"#utility.yul\":12945:13076   */\n      tag_295\n      jump\t// in\n    tag_351:\n        /* \"#utility.yul\":12937:13076   */\n      swap1\n      pop\n        /* \"#utility.yul\":12664:13083   */\n      swap2\n      swap1\n      pop\n      jump\t// out\n        /* \"#utility.yul\":13089:13508   */\n    tag_168:\n        /* \"#utility.yul\":13255:13259   */\n      0x00\n        /* \"#utility.yul\":13293:13295   */\n      0x20\n        /* \"#utility.yul\":13282:13291   */\n      dup3\n        /* \"#utility.yul\":13278:13296   */\n      add\n        /* \"#utility.yul\":13270:13296   */\n      swap1\n      pop\n        /* \"#utility.yul\":13342:13351   */\n      dup2\n        /* \"#utility.yul\":13336:13340   */\n      dup2\n        /* \"#utility.yul\":13332:13352   */\n      sub\n        /* \"#utility.yul\":13328:13329   */\n      0x00\n        /* \"#utility.yul\":13317:13326   */\n      dup4\n        /* \"#utility.yul\":13313:13330   */\n      add\n        /* \"#utility.yul\":13306:13353   */\n      mstore\n        /* \"#utility.yul\":13370:13501   */\n      tag_353\n        /* \"#utility.yul\":13496:13500   */\n      dup2\n        /* \"#utility.yul\":13370:13501   */\n      tag_300\n      jump\t// in\n    tag_353:\n        /* \"#utility.yul\":13362:13501   */\n      swap1\n      pop\n        /* \"#utility.yul\":13089:13508   */\n      swap2\n      swap1\n      pop\n      jump\t// out\n        /* \"#utility.yul\":13514:13933   */\n    tag_83:\n        /* \"#utility.yul\":13680:13684   */\n      0x00\n        /* \"#utility.yul\":13718:13720   */\n      0x20\n        /* \"#utility.yul\":13707:13716   */\n      dup3\n        /* \"#utility.yul\":13703:13721   */\n      add\n        /* \"#utility.yul\":13695:13721   */\n      swap1\n      pop\n        /* \"#utility.yul\":13767:13776   */\n      dup2\n        /* \"#utility.yul\":13761:13765   */\n      dup2\n        /* \"#utility.yul\":13757:13777   */\n      sub\n        /* \"#utility.yul\":13753:13754   */\n      0x00\n        /* \"#utility.yul\":13742:13751   */\n      dup4\n        /* \"#utility.yul\":13738:13755   */\n      add\n        /* \"#utility.yul\":13731:13778   */\n      mstore\n        /* \"#utility.yul\":13795:13926   */\n      tag_355\n        /* \"#utility.yul\":13921:13925   */\n      dup2\n        /* \"#utility.yul\":13795:13926   */\n      tag_305\n      jump\t// in\n    tag_355:\n        /* \"#utility.yul\":13787:13926   */\n      swap1\n      pop\n        /* \"#utility.yul\":13514:13933   */\n      swap2\n      swap1\n      pop\n      jump\t// out\n        /* \"#utility.yul\":13939:14358   */\n    tag_76:\n        /* \"#utility.yul\":14105:14109   */\n      0x00\n        /* \"#utility.yul\":14143:14145   */\n      0x20\n        /* \"#utility.yul\":14132:14141   */\n      dup3\n        /* \"#utility.yul\":14128:14146   */\n      add\n        /* \"#utility.yul\":14120:14146   */\n      swap1\n      pop\n        /* \"#utility.yul\":14192:14201   */\n      dup2\n        /* \"#utility.yul\":14186:14190   */\n      dup2\n        /* \"#utility.yul\":14182:14202   */\n      sub\n        /* \"#utility.yul\":14178:14179   */\n      0x00\n        /* \"#utility.yul\":14167:14176   */\n      dup4\n        /* \"#utility.yul\":14163:14180   */\n      add\n        /* \"#utility.yul\":14156:14203   */\n      mstore\n        /* \"#utility.yul\":14220:14351   */\n      tag_357\n        /* \"#utility.yul\":14346:14350   */\n      dup2\n        /* \"#utility.yul\":14220:14351   */\n      tag_310\n      jump\t// in\n    tag_357:\n        /* \"#utility.yul\":14212:14351   */\n      swap1\n      pop\n        /* \"#utility.yul\":13939:14358   */\n      swap2\n      swap1\n      pop\n      jump\t// out\n        /* \"#utility.yul\":14364:14783   */\n    tag_150:\n        /* \"#utility.yul\":14530:14534   */\n      0x00\n        /* \"#utility.yul\":14568:14570   */\n      0x20\n        /* \"#utility.yul\":14557:14566   */\n      dup3\n        /* \"#utility.yul\":14553:14571   */\n      add\n        /* \"#utility.yul\":14545:14571   */\n      swap1\n      pop\n        /* \"#utility.yul\":14617:14626   */\n      dup2\n        /* \"#utility.yul\":14611:14615   */\n      dup2\n        /* \"#utility.yul\":14607:14627   */\n      sub\n        /* \"#utility.yul\":14603:14604   */\n      0x00\n        /* \"#utility.yul\":14592:14601   */\n      dup4\n        /* \"#utility.yul\":14588:14605   */\n      add\n        /* \"#utility.yul\":14581:14628   */\n      mstore\n        /* \"#utility.yul\":14645:14776   */\n      tag_359\n        /* \"#utility.yul\":14771:14775   */\n      dup2\n        /* \"#utility.yul\":14645:14776   */\n      tag_315\n      jump\t// in\n    tag_359:\n        /* \"#utility.yul\":14637:14776   */\n      swap1\n      pop\n        /* \"#utility.yul\":14364:14783   */\n      swap2\n      swap1\n      pop\n      jump\t// out\n        /* \"#utility.yul\":14789:15208   */\n    tag_114:\n        /* \"#utility.yul\":14955:14959   */\n      0x00\n        /* \"#utility.yul\":14993:14995   */\n      0x20\n        /* \"#utility.yul\":14982:14991   */\n      dup3\n        /* \"#utility.yul\":14978:14996   */\n      add\n        /* \"#utility.yul\":14970:14996   */\n      swap1\n      pop\n        /* \"#utility.yul\":15042:15051   */\n      dup2\n        /* \"#utility.yul\":15036:15040   */\n      dup2\n        /* \"#utility.yul\":15032:15052   */\n      sub\n        /* \"#utility.yul\":15028:15029   */\n      0x00\n        /* \"#utility.yul\":15017:15026   */\n      dup4\n        /* \"#utility.yul\":15013:15030   */\n      add\n        /* \"#utility.yul\":15006:15053   */\n      mstore\n        /* \"#utility.yul\":15070:15201   */\n      tag_361\n        /* \"#utility.yul\":15196:15200   */\n      dup2\n        /* \"#utility.yul\":15070:15201   */\n      tag_320\n      jump\t// in\n    tag_361:\n        /* \"#utility.yul\":15062:15201   */\n      swap1\n      pop\n        /* \"#utility.yul\":14789:15208   */\n      swap2\n      swap1\n      pop\n      jump\t// out\n        /* \"#utility.yul\":15214:15633   */\n    tag_117:\n        /* \"#utility.yul\":15380:15384   */\n      0x00\n        /* \"#utility.yul\":15418:15420   */\n      0x20\n        /* \"#utility.yul\":15407:15416   */\n      dup3\n        /* \"#utility.yul\":15403:15421   */\n      add\n        /* \"#utility.yul\":15395:15421   */\n      swap1\n      pop\n        /* \"#utility.yul\":15467:15476   */\n      dup2\n        /* \"#utility.yul\":15461:15465   */\n      dup2\n        /* \"#utility.yul\":15457:15477   */\n      sub\n        /* \"#utility.yul\":15453:15454   */\n      0x00\n        /* \"#utility.yul\":15442:15451   */\n      dup4\n        /* \"#utility.yul\":15438:15455   */\n      add\n        /* \"#utility.yul\":15431:15478   */\n      mstore\n        /* \"#utility.yul\":15495:15626   */\n      tag_363\n        /* \"#utility.yul\":15621:15625   */\n      dup2\n        /* \"#utility.yul\":15495:15626   */\n      tag_325\n      jump\t// in\n    tag_363:\n        /* \"#utility.yul\":15487:15626   */\n      swap1\n      pop\n        /* \"#utility.yul\":15214:15633   */\n      swap2\n      swap1\n      pop\n      jump\t// out\n        /* \"#utility.yul\":15639:15861   */\n    tag_22:\n        /* \"#utility.yul\":15732:15736   */\n      0x00\n        /* \"#utility.yul\":15770:15772   */\n      0x20\n        /* \"#utility.yul\":15759:15768   */\n      dup3\n        /* \"#utility.yul\":15755:15773   */\n      add\n        /* \"#utility.yul\":15747:15773   */\n      swap1\n      pop\n        /* \"#utility.yul\":15783:15854   */\n      tag_365\n        /* \"#utility.yul\":15851:15852   */\n      0x00\n        /* \"#utility.yul\":15840:15849   */\n      dup4\n        /* \"#utility.yul\":15836:15853   */\n      add\n        /* \"#utility.yul\":15827:15833   */\n      dup5\n        /* \"#utility.yul\":15783:15854   */\n      tag_330\n      jump\t// in\n    tag_365:\n        /* \"#utility.yul\":15639:15861   */\n      swap3\n      swap2\n      pop\n      pop\n      jump\t// out\n        /* \"#utility.yul\":15867:16642   */\n    tag_174:\n        /* \"#utility.yul\":16100:16104   */\n      0x00\n        /* \"#utility.yul\":16138:16141   */\n      0xc0\n        /* \"#utility.yul\":16127:16136   */\n      dup3\n        /* \"#utility.yul\":16123:16142   */\n      add\n        /* \"#utility.yul\":16115:16142   */\n      swap1\n      pop\n        /* \"#utility.yul\":16152:16223   */\n      tag_367\n        /* \"#utility.yul\":16220:16221   */\n      0x00\n        /* \"#utility.yul\":16209:16218   */\n      dup4\n        /* \"#utility.yul\":16205:16222   */\n      add\n        /* \"#utility.yul\":16196:16202   */\n      dup10\n        /* \"#utility.yul\":16152:16223   */\n      tag_330\n      jump\t// in\n    tag_367:\n        /* \"#utility.yul\":16233:16305   */\n      tag_368\n        /* \"#utility.yul\":16301:16303   */\n      0x20\n        /* \"#utility.yul\":16290:16299   */\n      dup4\n        /* \"#utility.yul\":16286:16304   */\n      add\n        /* \"#utility.yul\":16277:16283   */\n      dup9\n        /* \"#utility.yul\":16233:16305   */\n      tag_330\n      jump\t// in\n    tag_368:\n        /* \"#utility.yul\":16315:16387   */\n      tag_369\n        /* \"#utility.yul\":16383:16385   */\n      0x40\n        /* \"#utility.yul\":16372:16381   */\n      dup4\n        /* \"#utility.yul\":16368:16386   */\n      add\n        /* \"#utility.yul\":16359:16365   */\n      dup8\n        /* \"#utility.yul\":16315:16387   */\n      tag_330\n      jump\t// in\n    tag_369:\n        /* \"#utility.yul\":16397:16469   */\n      tag_370\n        /* \"#utility.yul\":16465:16467   */\n      0x60\n        /* \"#utility.yul\":16454:16463   */\n      dup4\n        /* \"#utility.yul\":16450:16468   */\n      add\n        /* \"#utility.yul\":16441:16447   */\n      dup7\n        /* \"#utility.yul\":16397:16469   */\n      tag_262\n      jump\t// in\n    tag_370:\n        /* \"#utility.yul\":16479:16552   */\n      tag_371\n        /* \"#utility.yul\":16547:16550   */\n      0x80\n        /* \"#utility.yul\":16536:16545   */\n      dup4\n        /* \"#utility.yul\":16532:16551   */\n      add\n        /* \"#utility.yul\":16523:16529   */\n      dup6\n        /* \"#utility.yul\":16479:16552   */\n      tag_262\n      jump\t// in\n    tag_371:\n        /* \"#utility.yul\":16562:16635   */\n      tag_372\n        /* \"#utility.yul\":16630:16633   */\n      0xa0\n        /* \"#utility.yul\":16619:16628   */\n      dup4\n        /* \"#utility.yul\":16615:16634   */\n      add\n        /* \"#utility.yul\":16606:16612   */\n      dup5\n        /* \"#utility.yul\":16562:16635   */\n      tag_330\n      jump\t// in\n    tag_372:\n        /* \"#utility.yul\":15867:16642   */\n      swap8\n      swap7\n      pop\n      pop\n      pop\n      pop\n      pop\n      pop\n      pop\n      jump\t// out\n        /* \"#utility.yul\":16648:17304   */\n    tag_132:\n        /* \"#utility.yul\":16849:16853   */\n      0x00\n        /* \"#utility.yul\":16887:16890   */\n      0xa0\n        /* \"#utility.yul\":16876:16885   */\n      dup3\n        /* \"#utility.yul\":16872:16891   */\n      add\n        /* \"#utility.yul\":16864:16891   */\n      swap1\n      pop\n        /* \"#utility.yul\":16901:16972   */\n      tag_374\n        /* \"#utility.yul\":16969:16970   */\n      0x00\n        /* \"#utility.yul\":16958:16967   */\n      dup4\n        /* \"#utility.yul\":16954:16971   */\n      add\n        /* \"#utility.yul\":16945:16951   */\n      dup9\n        /* \"#utility.yul\":16901:16972   */\n      tag_330\n      jump\t// in\n    tag_374:\n        /* \"#utility.yul\":16982:17054   */\n      tag_375\n        /* \"#utility.yul\":17050:17052   */\n      0x20\n        /* \"#utility.yul\":17039:17048   */\n      dup4\n        /* \"#utility.yul\":17035:17053   */\n      add\n        /* \"#utility.yul\":17026:17032   */\n      dup8\n        /* \"#utility.yul\":16982:17054   */\n      tag_330\n      jump\t// in\n    tag_375:\n        /* \"#utility.yul\":17064:17136   */\n      tag_376\n        /* \"#utility.yul\":17132:17134   */\n      0x40\n        /* \"#utility.yul\":17121:17130   */\n      dup4\n        /* \"#utility.yul\":17117:17135   */\n      add\n        /* \"#utility.yul\":17108:17114   */\n      dup7\n        /* \"#utility.yul\":17064:17136   */\n      tag_330\n      jump\t// in\n    tag_376:\n        /* \"#utility.yul\":17146:17218   */\n      tag_377\n        /* \"#utility.yul\":17214:17216   */\n      0x60\n        /* \"#utility.yul\":17203:17212   */\n      dup4\n        /* \"#utility.yul\":17199:17217   */\n      add\n        /* \"#utility.yul\":17190:17196   */\n      dup6\n        /* \"#utility.yul\":17146:17218   */\n      tag_262\n      jump\t// in\n    tag_377:\n        /* \"#utility.yul\":17228:17297   */\n      tag_378\n        /* \"#utility.yul\":17292:17295   */\n      0x80\n        /* \"#utility.yul\":17281:17290   */\n      dup4\n        /* \"#utility.yul\":17277:17296   */\n      add\n        /* \"#utility.yul\":17268:17274   */\n      dup5\n        /* \"#utility.yul\":17228:17297   */\n      tag_334\n      jump\t// in\n    tag_378:\n        /* \"#utility.yul\":16648:17304   */\n      swap7\n      swap6\n      pop\n      pop\n      pop\n      pop\n      pop\n      pop\n      jump\t// out\n        /* \"#utility.yul\":17310:17855   */\n    tag_138:\n        /* \"#utility.yul\":17483:17487   */\n      0x00\n        /* \"#utility.yul\":17521:17524   */\n      0x80\n        /* \"#utility.yul\":17510:17519   */\n      dup3\n        /* \"#utility.yul\":17506:17525   */\n      add\n        /* \"#utility.yul\":17498:17525   */\n      swap1\n      pop\n        /* \"#utility.yul\":17535:17606   */\n      tag_380\n        /* \"#utility.yul\":17603:17604   */\n      0x00\n        /* \"#utility.yul\":17592:17601   */\n      dup4\n        /* \"#utility.yul\":17588:17605   */\n      add\n        /* \"#utility.yul\":17579:17585   */\n      dup8\n        /* \"#utility.yul\":17535:17606   */\n      tag_330\n      jump\t// in\n    tag_380:\n        /* \"#utility.yul\":17616:17688   */\n      tag_381\n        /* \"#utility.yul\":17684:17686   */\n      0x20\n        /* \"#utility.yul\":17673:17682   */\n      dup4\n        /* \"#utility.yul\":17669:17687   */\n      add\n        /* \"#utility.yul\":17660:17666   */\n      dup7\n        /* \"#utility.yul\":17616:17688   */\n      tag_330\n      jump\t// in\n    tag_381:\n        /* \"#utility.yul\":17698:17770   */\n      tag_382\n        /* \"#utility.yul\":17766:17768   */\n      0x40\n        /* \"#utility.yul\":17755:17764   */\n      dup4\n        /* \"#utility.yul\":17751:17769   */\n      add\n        /* \"#utility.yul\":17742:17748   */\n      dup6\n        /* \"#utility.yul\":17698:17770   */\n      tag_330\n      jump\t// in\n    tag_382:\n        /* \"#utility.yul\":17780:17848   */\n      tag_383\n        /* \"#utility.yul\":17844:17846   */\n      0x60\n        /* \"#utility.yul\":17833:17842   */\n      dup4\n        /* \"#utility.yul\":17829:17847   */\n      add\n        /* \"#utility.yul\":17820:17826   */\n      dup5\n        /* \"#utility.yul\":17780:17848   */\n      tag_334\n      jump\t// in\n    tag_383:\n        /* \"#utility.yul\":17310:17855   */\n      swap6\n      swap5\n      pop\n      pop\n      pop\n      pop\n      pop\n      jump\t// out\n        /* \"#utility.yul\":17861:17990   */\n    tag_195:\n        /* \"#utility.yul\":17895:17901   */\n      0x00\n        /* \"#utility.yul\":17922:17942   */\n      tag_385\n      tag_386\n      jump\t// in\n    tag_385:\n        /* \"#utility.yul\":17912:17942   */\n      swap1\n      pop\n        /* \"#utility.yul\":17951:17984   */\n      tag_387\n        /* \"#utility.yul\":17979:17983   */\n      dup3\n        /* \"#utility.yul\":17971:17977   */\n      dup3\n        /* \"#utility.yul\":17951:17984   */\n      tag_388\n      jump\t// in\n    tag_387:\n        /* \"#utility.yul\":17861:17990   */\n      swap2\n      swap1\n      pop\n      jump\t// out\n        /* \"#utility.yul\":17996:18071   */\n    tag_386:\n        /* \"#utility.yul\":18029:18035   */\n      0x00\n        /* \"#utility.yul\":18062:18064   */\n      0x40\n        /* \"#utility.yul\":18056:18065   */\n      mload\n        /* \"#utility.yul\":18046:18065   */\n      swap1\n      pop\n        /* \"#utility.yul\":17996:18071   */\n      swap1\n      jump\t// out\n        /* \"#utility.yul\":18077:18385   */\n    tag_194:\n        /* \"#utility.yul\":18139:18143   */\n      0x00\n        /* \"#utility.yul\":18229:18247   */\n      0xffffffffffffffff\n        /* \"#utility.yul\":18221:18227   */\n      dup3\n        /* \"#utility.yul\":18218:18248   */\n      gt\n        /* \"#utility.yul\":18215:18271   */\n      iszero\n      tag_391\n      jumpi\n        /* \"#utility.yul\":18251:18269   */\n      tag_392\n      tag_393\n      jump\t// in\n    tag_392:\n        /* \"#utility.yul\":18215:18271   */\n    tag_391:\n        /* \"#utility.yul\":18289:18318   */\n      tag_394\n        /* \"#utility.yul\":18311:18317   */\n      dup3\n        /* \"#utility.yul\":18289:18318   */\n      tag_395\n      jump\t// in\n    tag_394:\n        /* \"#utility.yul\":18281:18318   */\n      swap1\n      pop\n        /* \"#utility.yul\":18373:18377   */\n      0x20\n        /* \"#utility.yul\":18367:18371   */\n      dup2\n        /* \"#utility.yul\":18363:18378   */\n      add\n        /* \"#utility.yul\":18355:18378   */\n      swap1\n      pop\n        /* \"#utility.yul\":18077:18385   */\n      swap2\n      swap1\n      pop\n      jump\t// out\n        /* \"#utility.yul\":18391:18560   */\n    tag_277:\n        /* \"#utility.yul\":18475:18486   */\n      0x00\n        /* \"#utility.yul\":18509:18515   */\n      dup3\n        /* \"#utility.yul\":18504:18507   */\n      dup3\n        /* \"#utility.yul\":18497:18516   */\n      mstore\n        /* \"#utility.yul\":18549:18553   */\n      0x20\n        /* \"#utility.yul\":18544:18547   */\n      dup3\n        /* \"#utility.yul\":18540:18554   */\n      add\n        /* \"#utility.yul\":18525:18554   */\n      swap1\n      pop\n        /* \"#utility.yul\":18391:18560   */\n      swap3\n      swap2\n      pop\n      pop\n      jump\t// out\n        /* \"#utility.yul\":18566:18662   */\n    tag_265:\n        /* \"#utility.yul\":18603:18610   */\n      0x00\n        /* \"#utility.yul\":18632:18656   */\n      tag_398\n        /* \"#utility.yul\":18650:18655   */\n      dup3\n        /* \"#utility.yul\":18632:18656   */\n      tag_399\n      jump\t// in\n    tag_398:\n        /* \"#utility.yul\":18621:18656   */\n      swap1\n      pop\n        /* \"#utility.yul\":18566:18662   */\n      swap2\n      swap1\n      pop\n      jump\t// out\n        /* \"#utility.yul\":18668:18758   */\n    tag_269:\n        /* \"#utility.yul\":18702:18709   */\n      0x00\n        /* \"#utility.yul\":18745:18750   */\n      dup2\n        /* \"#utility.yul\":18738:18751   */\n      iszero\n        /* \"#utility.yul\":18731:18752   */\n      iszero\n        /* \"#utility.yul\":18720:18752   */\n      swap1\n      pop\n        /* \"#utility.yul\":18668:18758   */\n      swap2\n      swap1\n      pop\n      jump\t// out\n        /* \"#utility.yul\":18764:18911   */\n    tag_401:\n        /* \"#utility.yul\":18819:18826   */\n      0x00\n        /* \"#utility.yul\":18848:18853   */\n      dup2\n        /* \"#utility.yul\":18837:18853   */\n      swap1\n      pop\n        /* \"#utility.yul\":18854:18905   */\n      tag_403\n        /* \"#utility.yul\":18899:18904   */\n      dup3\n        /* \"#utility.yul\":18854:18905   */\n      tag_404\n      jump\t// in\n    tag_403:\n        /* \"#utility.yul\":18764:18911   */\n      swap2\n      swap1\n      pop\n      jump\t// out\n        /* \"#utility.yul\":18917:19043   */\n    tag_399:\n        /* \"#utility.yul\":18954:18961   */\n      0x00\n        /* \"#utility.yul\":18994:19036   */\n      0xffffffffffffffffffffffffffffffffffffffff\n        /* \"#utility.yul\":18987:18992   */\n      dup3\n        /* \"#utility.yul\":18983:19037   */\n      and\n        /* \"#utility.yul\":18972:19037   */\n      swap1\n      pop\n        /* \"#utility.yul\":18917:19043   */\n      swap2\n      swap1\n      pop\n      jump\t// out\n        /* \"#utility.yul\":19049:19126   */\n    tag_333:\n        /* \"#utility.yul\":19086:19093   */\n      0x00\n        /* \"#utility.yul\":19115:19120   */\n      dup2\n        /* \"#utility.yul\":19104:19120   */\n      swap1\n      pop\n        /* \"#utility.yul\":19049:19126   */\n      swap2\n      swap1\n      pop\n      jump\t// out\n        /* \"#utility.yul\":19132:19218   */\n    tag_337:\n        /* \"#utility.yul\":19167:19174   */\n      0x00\n        /* \"#utility.yul\":19207:19211   */\n      0xff\n        /* \"#utility.yul\":19200:19205   */\n      dup3\n        /* \"#utility.yul\":19196:19212   */\n      and\n        /* \"#utility.yul\":19185:19212   */\n      swap1\n      pop\n        /* \"#utility.yul\":19132:19218   */\n      swap2\n      swap1\n      pop\n      jump\t// out\n        /* \"#utility.yul\":19224:19371   */\n    tag_273:\n        /* \"#utility.yul\":19290:19299   */\n      0x00\n        /* \"#utility.yul\":19323:19365   */\n      tag_409\n        /* \"#utility.yul\":19359:19364   */\n      dup3\n        /* \"#utility.yul\":19323:19365   */\n      tag_401\n      jump\t// in\n    tag_409:\n        /* \"#utility.yul\":19310:19365   */\n      swap1\n      pop\n        /* \"#utility.yul\":19224:19371   */\n      swap2\n      swap1\n      pop\n      jump\t// out\n        /* \"#utility.yul\":19377:19531   */\n    tag_200:\n        /* \"#utility.yul\":19461:19467   */\n      dup3\n        /* \"#utility.yul\":19456:19459   */\n      dup2\n        /* \"#utility.yul\":19451:19454   */\n      dup4\n        /* \"#utility.yul\":19438:19468   */\n      calldatacopy\n        /* \"#utility.yul\":19523:19524   */\n      0x00\n        /* \"#utility.yul\":19514:19520   */\n      dup4\n        /* \"#utility.yul\":19509:19512   */\n      dup4\n        /* \"#utility.yul\":19505:19521   */\n      add\n        /* \"#utility.yul\":19498:19525   */\n      mstore\n        /* \"#utility.yul\":19377:19531   */\n      pop\n      pop\n      pop\n      jump\t// out\n        /* \"#utility.yul\":19537:19857   */\n    tag_179:\n        /* \"#utility.yul\":19581:19587   */\n      0x00\n        /* \"#utility.yul\":19618:19619   */\n      0x02\n        /* \"#utility.yul\":19612:19616   */\n      dup3\n        /* \"#utility.yul\":19608:19620   */\n      div\n        /* \"#utility.yul\":19598:19620   */\n      swap1\n      pop\n        /* \"#utility.yul\":19665:19666   */\n      0x01\n        /* \"#utility.yul\":19659:19663   */\n      dup3\n        /* \"#utility.yul\":19655:19667   */\n      and\n        /* \"#utility.yul\":19686:19704   */\n      dup1\n        /* \"#utility.yul\":19676:19757   */\n      tag_412\n      jumpi\n        /* \"#utility.yul\":19742:19746   */\n      0x7f\n        /* \"#utility.yul\":19734:19740   */\n      dup3\n        /* \"#utility.yul\":19730:19747   */\n      and\n        /* \"#utility.yul\":19720:19747   */\n      swap2\n      pop\n        /* \"#utility.yul\":19676:19757   */\n    tag_412:\n        /* \"#utility.yul\":19804:19806   */\n      0x20\n        /* \"#utility.yul\":19796:19802   */\n      dup3\n        /* \"#utility.yul\":19793:19807   */\n      lt\n        /* \"#utility.yul\":19773:19791   */\n      dup2\n        /* \"#utility.yul\":19770:19808   */\n      eq\n        /* \"#utility.yul\":19767:19851   */\n      iszero\n      tag_413\n      jumpi\n        /* \"#utility.yul\":19823:19841   */\n      tag_414\n      tag_415\n      jump\t// in\n    tag_414:\n        /* \"#utility.yul\":19767:19851   */\n    tag_413:\n        /* \"#utility.yul\":19588:19857   */\n      pop\n        /* \"#utility.yul\":19537:19857   */\n      swap2\n      swap1\n      pop\n      jump\t// out\n        /* \"#utility.yul\":19863:20144   */\n    tag_388:\n        /* \"#utility.yul\":19946:19973   */\n      tag_417\n        /* \"#utility.yul\":19968:19972   */\n      dup3\n        /* \"#utility.yul\":19946:19973   */\n      tag_395\n      jump\t// in\n    tag_417:\n        /* \"#utility.yul\":19938:19944   */\n      dup2\n        /* \"#utility.yul\":19934:19974   */\n      add\n        /* \"#utility.yul\":20076:20082   */\n      dup2\n        /* \"#utility.yul\":20064:20074   */\n      dup2\n        /* \"#utility.yul\":20061:20083   */\n      lt\n        /* \"#utility.yul\":20040:20058   */\n      0xffffffffffffffff\n        /* \"#utility.yul\":20028:20038   */\n      dup3\n        /* \"#utility.yul\":20025:20059   */\n      gt\n        /* \"#utility.yul\":20022:20084   */\n      or\n        /* \"#utility.yul\":20019:20107   */\n      iszero\n      tag_418\n      jumpi\n        /* \"#utility.yul\":20087:20105   */\n      tag_419\n      tag_393\n      jump\t// in\n    tag_419:\n        /* \"#utility.yul\":20019:20107   */\n    tag_418:\n        /* \"#utility.yul\":20127:20137   */\n      dup1\n        /* \"#utility.yul\":20123:20125   */\n      0x40\n        /* \"#utility.yul\":20116:20138   */\n      mstore\n        /* \"#utility.yul\":19906:20144   */\n      pop\n        /* \"#utility.yul\":19863:20144   */\n      pop\n      pop\n      jump\t// out\n        /* \"#utility.yul\":20150:20383   */\n    tag_127:\n        /* \"#utility.yul\":20189:20192   */\n      0x00\n        /* \"#utility.yul\":20212:20236   */\n      tag_421\n        /* \"#utility.yul\":20230:20235   */\n      dup3\n        /* \"#utility.yul\":20212:20236   */\n      tag_333\n      jump\t// in\n    tag_421:\n        /* \"#utility.yul\":20203:20236   */\n      swap2\n      pop\n        /* \"#utility.yul\":20258:20324   */\n      0xffffffffffffffffffffffffffffffffffffffffffffffffffffffffffffffff\n        /* \"#utility.yul\":20251:20256   */\n      dup3\n        /* \"#utility.yul\":20248:20325   */\n      eq\n        /* \"#utility.yul\":20245:20348   */\n      iszero\n      tag_422\n      jumpi\n        /* \"#utility.yul\":20328:20346   */\n      tag_423\n      tag_424\n      jump\t// in\n    tag_423:\n        /* \"#utility.yul\":20245:20348   */\n    tag_422:\n        /* \"#utility.yul\":20375:20376   */\n      0x01\n        /* \"#utility.yul\":20368:20373   */\n      dup3\n        /* \"#utility.yul\":20364:20377   */\n      add\n        /* \"#utility.yul\":20357:20377   */\n      swap1\n      pop\n        /* \"#utility.yul\":20150:20383   */\n      swap2\n      swap1\n      pop\n      jump\t// out\n        /* \"#utility.yul\":20389:20569   */\n    tag_424:\n        /* \"#utility.yul\":20437:20514   */\n      0x4e487b7100000000000000000000000000000000000000000000000000000000\n        /* \"#utility.yul\":20434:20435   */\n      0x00\n        /* \"#utility.yul\":20427:20515   */\n      mstore\n        /* \"#utility.yul\":20534:20538   */\n      0x11\n        /* \"#utility.yul\":20531:20532   */\n      0x04\n        /* \"#utility.yul\":20524:20539   */\n      mstore\n        /* \"#utility.yul\":20558:20562   */\n      0x24\n        /* \"#utility.yul\":20555:20556   */\n      0x00\n        /* \"#utility.yul\":20548:20563   */\n      revert\n        /* \"#utility.yul\":20575:20755   */\n    tag_64:\n        /* \"#utility.yul\":20623:20700   */\n      0x4e487b7100000000000000000000000000000000000000000000000000000000\n        /* \"#utility.yul\":20620:20621   */\n      0x00\n        /* \"#utility.yul\":20613:20701   */\n      mstore\n        /* \"#utility.yul\":20720:20724   */\n      0x21\n        /* \"#utility.yul\":20717:20718   */\n      0x04\n        /* \"#utility.yul\":20710:20725   */\n      mstore\n        /* \"#utility.yul\":20744:20748   */\n      0x24\n        /* \"#utility.yul\":20741:20742   */\n      0x00\n        /* \"#utility.yul\":20734:20749   */\n      revert\n        /* \"#utility.yul\":20761:20941   */\n    tag_415:\n        /* \"#utility.yul\":20809:20886   */\n      0x4e487b7100000000000000000000000000000000000000000000000000000000\n        /* \"#utility.yul\":20806:20807   */\n      0x00\n        /* \"#utility.yul\":20799:20887   */\n      mstore\n        /* \"#utility.yul\":20906:20910   */\n      0x22\n        /* \"#utility.yul\":20903:20904   */\n      0x04\n        /* \"#utility.yul\":20896:20911   */\n      mstore\n        /* \"#utility.yul\":20930:20934   */\n      0x24\n        /* \"#utility.yul\":20927:20928   */\n      0x00\n        /* \"#utility.yul\":20920:20935   */\n      revert\n        /* \"#utility.yul\":20947:21127   */\n    tag_393:\n        /* \"#utility.yul\":20995:21072   */\n      0x4e487b7100000000000000000000000000000000000000000000000000000000\n        /* \"#utility.yul\":20992:20993   */\n      0x00\n        /* \"#utility.yul\":20985:21073   */\n      mstore\n        /* \"#utility.yul\":21092:21096   */\n      0x41\n        /* \"#utility.yul\":21089:21090   */\n      0x04\n        /* \"#utility.yul\":21082:21097   */\n      mstore\n        /* \"#utility.yul\":21116:21120   */\n      0x24\n        /* \"#utility.yul\":21113:21114   */\n      0x00\n        /* \"#utility.yul\":21106:21121   */\n      revert\n        /* \"#utility.yul\":21133:21250   */\n    tag_209:\n        /* \"#utility.yul\":21242:21243   */\n      0x00\n        /* \"#utility.yul\":21239:21240   */\n      dup1\n        /* \"#utility.yul\":21232:21244   */\n      revert\n        /* \"#utility.yul\":21256:21373   */\n    tag_198:\n        /* \"#utility.yul\":21365:21366   */\n      0x00\n        /* \"#utility.yul\":21362:21363   */\n      dup1\n        /* \"#utility.yul\":21355:21367   */\n      revert\n        /* \"#utility.yul\":21379:21496   */\n    tag_242:\n        /* \"#utility.yul\":21488:21489   */\n      0x00\n        /* \"#utility.yul\":21485:21486   */\n      dup1\n        /* \"#utility.yul\":21478:21490   */\n      revert\n        /* \"#utility.yul\":21502:21619   */\n    tag_222:\n        /* \"#utility.yul\":21611:21612   */\n      0x00\n        /* \"#utility.yul\":21608:21609   */\n      dup1\n        /* \"#utility.yul\":21601:21613   */\n      revert\n        /* \"#utility.yul\":21625:21727   */\n    tag_395:\n        /* \"#utility.yul\":21666:21672   */\n      0x00\n        /* \"#utility.yul\":21717:21719   */\n      0x1f\n        /* \"#utility.yul\":21713:21720   */\n      not\n        /* \"#utility.yul\":21708:21710   */\n      0x1f\n        /* \"#utility.yul\":21701:21706   */\n      dup4\n        /* \"#utility.yul\":21697:21711   */\n      add\n        /* \"#utility.yul\":21693:21721   */\n      and\n        /* \"#utility.yul\":21683:21721   */\n      swap1\n      pop\n        /* \"#utility.yul\":21625:21727   */\n      swap2\n      swap1\n      pop\n      jump\t// out\n        /* \"#utility.yul\":21733:22044   */\n    tag_279:\n        /* \"#utility.yul\":21873:21907   */\n      0x596f752068617665206e6f7420696e707574206120726967687420766f74652e\n        /* \"#utility.yul\":21869:21870   */\n      0x00\n        /* \"#utility.yul\":21861:21867   */\n      dup3\n        /* \"#utility.yul\":21857:21871   */\n      add\n        /* \"#utility.yul\":21850:21908   */\n      mstore\n        /* \"#utility.yul\":21942:21976   */\n      0x20596f752063616e2065697468657220766f7465203120666f72205265717565\n        /* \"#utility.yul\":21937:21939   */\n      0x20\n        /* \"#utility.yul\":21929:21935   */\n      dup3\n        /* \"#utility.yul\":21925:21940   */\n      add\n        /* \"#utility.yul\":21918:21977   */\n      mstore\n        /* \"#utility.yul\":22011:22036   */\n      0x73746572206f72203220666f722050726f76696465722e000000000000000000\n        /* \"#utility.yul\":22006:22008   */\n      0x40\n        /* \"#utility.yul\":21998:22004   */\n      dup3\n        /* \"#utility.yul\":21994:22009   */\n      add\n        /* \"#utility.yul\":21987:22037   */\n      mstore\n        /* \"#utility.yul\":21733:22044   */\n      pop\n      jump\t// out\n        /* \"#utility.yul\":22050:22282   */\n    tag_284:\n        /* \"#utility.yul\":22190:22224   */\n      0x596f75206861766520616c726561647920766f7465642c20796f752063616e6e\n        /* \"#utility.yul\":22186:22187   */\n      0x00\n        /* \"#utility.yul\":22178:22184   */\n      dup3\n        /* \"#utility.yul\":22174:22188   */\n      add\n        /* \"#utility.yul\":22167:22225   */\n      mstore\n        /* \"#utility.yul\":22259:22274   */\n      0x6f7420766f746520616761696e00000000000000000000000000000000000000\n        /* \"#utility.yul\":22254:22256   */\n      0x20\n        /* \"#utility.yul\":22246:22252   */\n      dup3\n        /* \"#utility.yul\":22242:22257   */\n      add\n        /* \"#utility.yul\":22235:22275   */\n      mstore\n        /* \"#utility.yul\":22050:22282   */\n      pop\n      jump\t// out\n        /* \"#utility.yul\":22288:22470   */\n    tag_289:\n        /* \"#utility.yul\":22428:22462   */\n      0x43616e6e6f74206361727279206f75742074686973206f7065726174696f6e21\n        /* \"#utility.yul\":22424:22425   */\n      0x00\n        /* \"#utility.yul\":22416:22422   */\n      dup3\n        /* \"#utility.yul\":22412:22426   */\n      add\n        /* \"#utility.yul\":22405:22463   */\n      mstore\n        /* \"#utility.yul\":22288:22470   */\n      pop\n      jump\t// out\n        /* \"#utility.yul\":22476:22655   */\n    tag_294:\n        /* \"#utility.yul\":22616:22647   */\n      0x5468697320436f6e666c69637420646f6573206e6f742065786973742e000000\n        /* \"#utility.yul\":22612:22613   */\n      0x00\n        /* \"#utility.yul\":22604:22610   */\n      dup3\n        /* \"#utility.yul\":22600:22614   */\n      add\n        /* \"#utility.yul\":22593:22648   */\n      mstore\n        /* \"#utility.yul\":22476:22655   */\n      pop\n      jump\t// out\n        /* \"#utility.yul\":22661:22896   */\n    tag_299:\n        /* \"#utility.yul\":22801:22835   */\n      0x596f7520726169736564207468697320636f6e666c6963742e20596f75206361\n        /* \"#utility.yul\":22797:22798   */\n      0x00\n        /* \"#utility.yul\":22789:22795   */\n      dup3\n        /* \"#utility.yul\":22785:22799   */\n      add\n        /* \"#utility.yul\":22778:22836   */\n      mstore\n        /* \"#utility.yul\":22870:22888   */\n      0x6e6e6f7420766f7465206f6e2069742e00000000000000000000000000000000\n        /* \"#utility.yul\":22865:22867   */\n      0x20\n        /* \"#utility.yul\":22857:22863   */\n      dup3\n        /* \"#utility.yul\":22853:22868   */\n      add\n        /* \"#utility.yul\":22846:22889   */\n      mstore\n        /* \"#utility.yul\":22661:22896   */\n      pop\n      jump\t// out\n        /* \"#utility.yul\":22902:23153   */\n    tag_304:\n        /* \"#utility.yul\":23042:23076   */\n      0x436f6e666c6963742068617320616c7265616479206265656e20637265617465\n        /* \"#utility.yul\":23038:23039   */\n      0x00\n        /* \"#utility.yul\":23030:23036   */\n      dup3\n        /* \"#utility.yul\":23026:23040   */\n      add\n        /* \"#utility.yul\":23019:23077   */\n      mstore\n        /* \"#utility.yul\":23111:23145   */\n      0x6420666f72207468697320706172746963756c6172204d696c6573746f6e652e\n        /* \"#utility.yul\":23106:23108   */\n      0x20\n        /* \"#utility.yul\":23098:23104   */\n      dup3\n        /* \"#utility.yul\":23094:23109   */\n      add\n        /* \"#utility.yul\":23087:23146   */\n      mstore\n        /* \"#utility.yul\":22902:23153   */\n      pop\n      jump\t// out\n        /* \"#utility.yul\":23159:23407   */\n    tag_309:\n        /* \"#utility.yul\":23299:23333   */\n      0x566f74696e6720686173206e6f74206265656e20636f6d706c65746564207965\n        /* \"#utility.yul\":23295:23296   */\n      0x00\n        /* \"#utility.yul\":23287:23293   */\n      dup3\n        /* \"#utility.yul\":23283:23297   */\n      add\n        /* \"#utility.yul\":23276:23334   */\n      mstore\n        /* \"#utility.yul\":23368:23399   */\n      0x742e20506c65617365207761697420666f7220697420746f20656e642e000000\n        /* \"#utility.yul\":23363:23365   */\n      0x20\n        /* \"#utility.yul\":23355:23361   */\n      dup3\n        /* \"#utility.yul\":23351:23366   */\n      add\n        /* \"#utility.yul\":23344:23400   */\n      mstore\n        /* \"#utility.yul\":23159:23407   */\n      pop\n      jump\t// out\n        /* \"#utility.yul\":23413:23711   */\n    tag_314:\n        /* \"#utility.yul\":23553:23587   */\n      0x4e6f742065766572796f6e652068617320766f7465642c20706c656173652070\n        /* \"#utility.yul\":23549:23550   */\n      0x00\n        /* \"#utility.yul\":23541:23547   */\n      dup3\n        /* \"#utility.yul\":23537:23551   */\n      add\n        /* \"#utility.yul\":23530:23588   */\n      mstore\n        /* \"#utility.yul\":23622:23656   */\n      0x726f6d707420616c6c206f74686572206d656d62657273206f662070726f6a65\n        /* \"#utility.yul\":23617:23619   */\n      0x20\n        /* \"#utility.yul\":23609:23615   */\n      dup3\n        /* \"#utility.yul\":23605:23620   */\n      add\n        /* \"#utility.yul\":23598:23657   */\n      mstore\n        /* \"#utility.yul\":23691:23703   */\n      0x637420746f20766f746500000000000000000000000000000000000000000000\n        /* \"#utility.yul\":23686:23688   */\n      0x40\n        /* \"#utility.yul\":23678:23684   */\n      dup3\n        /* \"#utility.yul\":23674:23689   */\n      add\n        /* \"#utility.yul\":23667:23704   */\n      mstore\n        /* \"#utility.yul\":23413:23711   */\n      pop\n      jump\t// out\n        /* \"#utility.yul\":23717:23888   */\n    tag_319:\n        /* \"#utility.yul\":23857:23880   */\n      0x4120737472696e67206973207265717569726564210000000000000000000000\n        /* \"#utility.yul\":23853:23854   */\n      0x00\n        /* \"#utility.yul\":23845:23851   */\n      dup3\n        /* \"#utility.yul\":23841:23855   */\n      add\n        /* \"#utility.yul\":23834:23881   */\n      mstore\n        /* \"#utility.yul\":23717:23888   */\n      pop\n      jump\t// out\n        /* \"#utility.yul\":23894:24138   */\n    tag_324:\n        /* \"#utility.yul\":24034:24068   */\n      0x596f752061726520696e766f6c76656420696e207468697320636f6e666c6963\n        /* \"#utility.yul\":24030:24031   */\n      0x00\n        /* \"#utility.yul\":24022:24028   */\n      dup3\n        /* \"#utility.yul\":24018:24032   */\n      add\n        /* \"#utility.yul\":24011:24069   */\n      mstore\n        /* \"#utility.yul\":24103:24130   */\n      0x742e20596f752063616e6e6f7420766f7465206f6e2069742e00000000000000\n        /* \"#utility.yul\":24098:24100   */\n      0x20\n        /* \"#utility.yul\":24090:24096   */\n      dup3\n        /* \"#utility.yul\":24086:24101   */\n      add\n        /* \"#utility.yul\":24079:24131   */\n      mstore\n        /* \"#utility.yul\":23894:24138   */\n      pop\n      jump\t// out\n        /* \"#utility.yul\":24144:24326   */\n    tag_329:\n        /* \"#utility.yul\":24284:24318   */\n      0x456e6f75676820766f7465732068617665206265656e20636f6c6c6563746564\n        /* \"#utility.yul\":24280:24281   */\n      0x00\n        /* \"#utility.yul\":24272:24278   */\n      dup3\n        /* \"#utility.yul\":24268:24282   */\n      add\n        /* \"#utility.yul\":24261:24319   */\n      mstore\n        /* \"#utility.yul\":24144:24326   */\n      pop\n      jump\t// out\n        /* \"#utility.yul\":24332:24455   */\n    tag_404:\n        /* \"#utility.yul\":24423:24424   */\n      0x04\n        /* \"#utility.yul\":24416:24421   */\n      dup2\n        /* \"#utility.yul\":24413:24425   */\n      lt\n        /* \"#utility.yul\":24403:24449   */\n      tag_446\n      jumpi\n        /* \"#utility.yul\":24429:24447   */\n      tag_447\n      tag_64\n      jump\t// in\n    tag_447:\n        /* \"#utility.yul\":24403:24449   */\n    tag_446:\n        /* \"#utility.yul\":24332:24455   */\n      pop\n      jump\t// out\n        /* \"#utility.yul\":24461:24583   */\n    tag_204:\n        /* \"#utility.yul\":24534:24558   */\n      tag_449\n        /* \"#utility.yul\":24552:24557   */\n      dup2\n        /* \"#utility.yul\":24534:24558   */\n      tag_265\n      jump\t// in\n    tag_449:\n        /* \"#utility.yul\":24527:24532   */\n      dup2\n        /* \"#utility.yul\":24524:24559   */\n      eq\n        /* \"#utility.yul\":24514:24577   */\n      tag_450\n      jumpi\n        /* \"#utility.yul\":24573:24574   */\n      0x00\n        /* \"#utility.yul\":24570:24571   */\n      dup1\n        /* \"#utility.yul\":24563:24575   */\n      revert\n        /* \"#utility.yul\":24514:24577   */\n    tag_450:\n        /* \"#utility.yul\":24461:24583   */\n      pop\n      jump\t// out\n        /* \"#utility.yul\":24589:24711   */\n    tag_214:\n        /* \"#utility.yul\":24662:24686   */\n      tag_452\n        /* \"#utility.yul\":24680:24685   */\n      dup2\n        /* \"#utility.yul\":24662:24686   */\n      tag_333\n      jump\t// in\n    tag_452:\n        /* \"#utility.yul\":24655:24660   */\n      dup2\n        /* \"#utility.yul\":24652:24687   */\n      eq\n        /* \"#utility.yul\":24642:24705   */\n      tag_453\n      jumpi\n        /* \"#utility.yul\":24701:24702   */\n      0x00\n        /* \"#utility.yul\":24698:24699   */\n      dup1\n        /* \"#utility.yul\":24691:24703   */\n      revert\n        /* \"#utility.yul\":24642:24705   */\n    tag_453:\n        /* \"#utility.yul\":24589:24711   */\n      pop\n      jump\t// out\n        /* \"#utility.yul\":24717:24835   */\n    tag_218:\n        /* \"#utility.yul\":24788:24810   */\n      tag_455\n        /* \"#utility.yul\":24804:24809   */\n      dup2\n        /* \"#utility.yul\":24788:24810   */\n      tag_337\n      jump\t// in\n    tag_455:\n        /* \"#utility.yul\":24781:24786   */\n      dup2\n        /* \"#utility.yul\":24778:24811   */\n      eq\n        /* \"#utility.yul\":24768:24829   */\n      tag_456\n      jumpi\n        /* \"#utility.yul\":24825:24826   */\n      0x00\n        /* \"#utility.yul\":24822:24823   */\n      dup1\n        /* \"#utility.yul\":24815:24827   */\n      revert\n        /* \"#utility.yul\":24768:24829   */\n    tag_456:\n        /* \"#utility.yul\":24717:24835   */\n      pop\n      jump\t// out\n\n    auxdata: 0xa264697066735822122058563d97c6d17af751804e9247a62ca39c7dd4a341d528c19b7a124a805a3aad64736f6c63430008070033\n}\n",
				"bytecode": {
					"linkReferences": {},
					"object": "608060405234801561001057600080fd5b506120f6806100206000396000f3fe608060405234801561001057600080fd5b506004361061009d5760003560e01c8063c171bdf711610066578063c171bdf71461016a578063cb4389ce1461019a578063d1e992a7146101ca578063e3d87718146101e6578063e62fac27146102165761009d565b80623f489f146100a25780630366cef2146100be5780633c45fe31146100ee5780639ac788791461011e5780639c87a5e91461014e575b600080fd5b6100bc60048036038101906100b791906113ec565b610232565b005b6100d860048036038101906100d391906113ec565b6103d1565b6040516100e591906119bd565b60405180910390f35b610108600480360381019061010391906113ec565b61057f565b60405161011591906119bd565b60405180910390f35b610138600480360381019061013391906113ec565b6105c2565b60405161014591906119bd565b60405180910390f35b610168600480360381019061016391906113ec565b610605565b005b610184600480360381019061017f919061143f565b610754565b6040516101919190611827565b60405180910390f35b6101b460048036038101906101af91906113ec565b610cfa565b6040516101c19190611842565b60405180910390f35b6101e460048036038101906101df91906114ba565b610d4a565b005b61020060048036038101906101fb91906113ec565b610f28565b60405161020d91906119bd565b60405180910390f35b610230600480360381019061022b919061156d565b610f6b565b005b82828260008084815260200190815260200160002060008381526020019081526020016000206000828152602001908152602001600020600b0160009054906101000a900460ff166102b9576040517f08c379a00000000000000000000000000000000000000000000000000000000081526004016102b0906118bd565b60405180910390fd5b85858560008060038111156102d1576102d0611c9c565b5b6000808681526020019081526020016000206000858152602001908152602001600020600084815260200190815260200160002060060160149054906101000a900460ff16600381111561032857610327611c9c565b5b14610368576040517f08c379a000000000000000000000000000000000000000000000000000000000815260040161035f9061189d565b60405180910390fd5b60008060008c815260200190815260200160002060008b815260200190815260200160002060008a8152602001908152602001600020600b0160006101000a81548160ff0219169083151502179055506103c58a8a8a6003611235565b50505050505050505050565b60008060008581526020019081526020016000206000848152602001908152602001600020600083815260200190815260200160002060070154600080868152602001908152602001600020600085815260200190815260200160002060008481526020019081526020016000206008015414610483576040517f08c379a000000000000000000000000000000000000000000000000000000000815260040161047a9061193d565b60405180910390fd5b6002600381111561049757610496611c9c565b5b6000808681526020019081526020016000206000858152602001908152602001600020600084815260200190815260200160002060060160149054906101000a900460ff1660038111156104ee576104ed611c9c565b5b1461052e576040517f08c379a00000000000000000000000000000000000000000000000000000000081526004016105259061191d565b60405180910390fd5b60008085815260200190815260200160002060008481526020019081526020016000206000838152602001908152602001600020600b0160019054906101000a900460ff1660ff1690509392505050565b6000806000858152602001908152602001600020600084815260200190815260200160002060008381526020019081526020016000206008015490509392505050565b600080600085815260200190815260200160002060008481526020019081526020016000206000838152602001908152602001600020600a015490509392505050565b82828260008084815260200190815260200160002060008381526020019081526020016000206000828152602001908152602001600020600b0160009054906101000a900460ff1661068c576040517f08c379a0000000000000000000000000000000000000000000000000000000008152600401610683906118bd565b60405180910390fd5b85858560008060038111156106a4576106a3611c9c565b5b6000808681526020019081526020016000206000858152602001908152602001600020600084815260200190815260200160002060060160149054906101000a900460ff1660038111156106fb576106fa611c9c565b5b1461073b576040517f08c379a00000000000000000000000000000000000000000000000000000000081526004016107329061189d565b60405180910390fd5b6107488a8a8a6001611235565b50505050505050505050565b600085858560008084815260200190815260200160002060008381526020019081526020016000206000828152602001908152602001600020600b0160009054906101000a900460ff166107dd576040517f08c379a00000000000000000000000000000000000000000000000000000000081526004016107d4906118bd565b60405180910390fd5b88888860018060038111156107f5576107f4611c9c565b5b6000808681526020019081526020016000206000858152602001908152602001600020600084815260200190815260200160002060060160149054906101000a900460ff16600381111561084c5761084b611c9c565b5b1461088c576040517f08c379a00000000000000000000000000000000000000000000000000000000081526004016108839061189d565b60405180910390fd5b60008060008f815260200190815260200160002060008e815260200190815260200160002060008d815260200190815260200160002090508a73ffffffffffffffffffffffffffffffffffffffff168160050160009054906101000a900473ffffffffffffffffffffffffffffffffffffffff1673ffffffffffffffffffffffffffffffffffffffff161415610957576040517f08c379a000000000000000000000000000000000000000000000000000000000815260040161094e906118dd565b60405180910390fd5b8a73ffffffffffffffffffffffffffffffffffffffff168160060160009054906101000a900473ffffffffffffffffffffffffffffffffffffffff1673ffffffffffffffffffffffffffffffffffffffff1614156109ea576040517f08c379a00000000000000000000000000000000000000000000000000000000081526004016109e19061197d565b60405180910390fd5b8060070154816008015410610a34576040517f08c379a0000000000000000000000000000000000000000000000000000000008152600401610a2b9061199d565b60405180910390fd5b600081600c0160008d73ffffffffffffffffffffffffffffffffffffffff1673ffffffffffffffffffffffffffffffffffffffff16815260200190815260200160002060009054906101000a900460ff1660ff1614610ac8576040517f08c379a0000000000000000000000000000000000000000000000000000000008152600401610abf9061187d565b60405180910390fd5b60018a60ff161480610add575060028a60ff16145b610b1c576040517f08c379a0000000000000000000000000000000000000000000000000000000008152600401610b139061185d565b60405180910390fd5b8981600c0160008d73ffffffffffffffffffffffffffffffffffffffff1673ffffffffffffffffffffffffffffffffffffffff16815260200190815260200160002060006101000a81548160ff021916908360ff16021790555060018a60ff161415610b9d57806009016000815480929190610b9790611c24565b91905055505b60028a60ff161415610bc45780600a016000815480929190610bbe90611c24565b91905055505b806008016000815480929190610bd990611c24565b91905055507f20211b974adbe11ce3687d51504ce7ef1fcfbb9c00405ba7aca7b283903f345a8e8e8e338e604051610c15959493929190611a39565b60405180910390a1806007015481600801541415610ce457806009015481600a01541115610c6057600281600b0160016101000a81548160ff021916908360ff160217905550610c7f565b600181600b0160016101000a81548160ff021916908360ff1602179055505b610c8c8e8e8e6002611235565b7fe59fdbc65a5dd63c529717c2a71d04b136038f05301755de242dd05990c028148e8e8e84600b0160019054906101000a900460ff16604051610cd29493929190611a8c565b60405180910390a16001985050610cea565b60009850505b5050505050505095945050505050565b60008060008581526020019081526020016000206000848152602001908152602001600020600083815260200190815260200160002060060160149054906101000a900460ff1690509392505050565b8484846000806003811115610d6257610d61611c9c565b5b6000808681526020019081526020016000206000858152602001908152602001600020600084815260200190815260200160002060060160149054906101000a900460ff166003811115610db957610db8611c9c565b5b14610df9576040517f08c379a0000000000000000000000000000000000000000000000000000000008152600401610df09061189d565b60405180910390fd5b856000815111610e3e576040517f08c379a0000000000000000000000000000000000000000000000000000000008152600401610e359061195d565b60405180910390fd5b856000815111610e83576040517f08c379a0000000000000000000000000000000000000000000000000000000008152600401610e7a9061195d565b60405180910390fd5b876000808d815260200190815260200160002060008c815260200190815260200160002060008b81526020019081526020016000206003019080519060200190610ece92919061129a565b50866000808d815260200190815260200160002060008c815260200190815260200160002060008b81526020019081526020016000206004019080519060200190610f1a92919061129a565b505050505050505050505050565b6000806000858152602001908152602001600020600084815260200190815260200160002060008381526020019081526020016000206009015490509392505050565b846000815111610fb0576040517f08c379a0000000000000000000000000000000000000000000000000000000008152600401610fa79061195d565b60405180910390fd5b846000815111610ff5576040517f08c379a0000000000000000000000000000000000000000000000000000000008152600401610fec9061195d565b60405180910390fd5b60008060008c815260200190815260200160002060008b815260200190815260200160002060008a815260200190815260200160002090506000151581600b0160009054906101000a900460ff16151514611085576040517f08c379a000000000000000000000000000000000000000000000000000000000815260040161107c906118fd565b60405180910390fd5b8a8160000181905550898160010181905550888160020181905550878160030190805190602001906110b892919061129a565b50868160040190805190602001906110d192919061129a565b50858160050160006101000a81548173ffffffffffffffffffffffffffffffffffffffff021916908373ffffffffffffffffffffffffffffffffffffffff160217905550848160060160006101000a81548173ffffffffffffffffffffffffffffffffffffffff021916908373ffffffffffffffffffffffffffffffffffffffff16021790555060008160060160146101000a81548160ff021916908360038111156111805761117f611c9c565b5b02179055508381600701819055506000816008018190555060008160090181905550600081600a0181905550600181600b0160006101000a81548160ff021916908315150217905550600081600b0160016101000a81548160ff021916908360ff1602179055507ffa127411522a1139d16c2142db999e127aef2288bd98a0558006bb115666ab1b8b8b8b898989604051611220969594939291906119d8565b60405180910390a15050505050505050505050565b806000808681526020019081526020016000206000858152602001908152602001600020600084815260200190815260200160002060060160146101000a81548160ff0219169083600381111561128f5761128e611c9c565b5b021790555050505050565b8280546112a690611bc1565b90600052602060002090601f0160209004810192826112c8576000855561130f565b82601f106112e157805160ff191683800117855561130f565b8280016001018555821561130f579182015b8281111561130e5782518255916020019190600101906112f3565b5b50905061131c9190611320565b5090565b5b80821115611339576000816000905550600101611321565b5090565b600061135061134b84611af6565b611ad1565b90508281526020810184848401111561136c5761136b611d2e565b5b611377848285611bb2565b509392505050565b60008135905061138e8161207b565b92915050565b600082601f8301126113a9576113a8611d29565b5b81356113b984826020860161133d565b91505092915050565b6000813590506113d181612092565b92915050565b6000813590506113e6816120a9565b92915050565b60008060006060848603121561140557611404611d38565b5b6000611413868287016113c2565b9350506020611424868287016113c2565b9250506040611435868287016113c2565b9150509250925092565b600080600080600060a0868803121561145b5761145a611d38565b5b6000611469888289016113c2565b955050602061147a888289016113c2565b945050604061148b888289016113c2565b935050606061149c8882890161137f565b92505060806114ad888289016113d7565b9150509295509295909350565b600080600080600060a086880312156114d6576114d5611d38565b5b60006114e4888289016113c2565b95505060206114f5888289016113c2565b9450506040611506888289016113c2565b935050606086013567ffffffffffffffff81111561152757611526611d33565b5b61153388828901611394565b925050608086013567ffffffffffffffff81111561155457611553611d33565b5b61156088828901611394565b9150509295509295909350565b600080600080600080600080610100898b03121561158e5761158d611d38565b5b600061159c8b828c016113c2565b98505060206115ad8b828c016113c2565b97505060406115be8b828c016113c2565b965050606089013567ffffffffffffffff8111156115df576115de611d33565b5b6115eb8b828c01611394565b955050608089013567ffffffffffffffff81111561160c5761160b611d33565b5b6116188b828c01611394565b94505060a06116298b828c0161137f565b93505060c061163a8b828c0161137f565b92505060e061164b8b828c016113c2565b9150509295985092959890939650565b61166481611b38565b82525050565b61167381611b4a565b82525050565b61168281611ba0565b82525050565b6000611695605783611b27565b91506116a082611d4e565b606082019050919050565b60006116b8602d83611b27565b91506116c382611dc3565b604082019050919050565b60006116db602083611b27565b91506116e682611e12565b602082019050919050565b60006116fe601d83611b27565b915061170982611e3b565b602082019050919050565b6000611721603083611b27565b915061172c82611e64565b604082019050919050565b6000611744604083611b27565b915061174f82611eb3565b604082019050919050565b6000611767603d83611b27565b915061177282611f02565b604082019050919050565b600061178a604a83611b27565b915061179582611f51565b606082019050919050565b60006117ad601583611b27565b91506117b882611fc6565b602082019050919050565b60006117d0603983611b27565b91506117db82611fef565b604082019050919050565b60006117f3602083611b27565b91506117fe8261203e565b602082019050919050565b61181281611b89565b82525050565b61182181611b93565b82525050565b600060208201905061183c600083018461166a565b92915050565b60006020820190506118576000830184611679565b92915050565b6000602082019050818103600083015261187681611688565b9050919050565b60006020820190508181036000830152611896816116ab565b9050919050565b600060208201905081810360008301526118b6816116ce565b9050919050565b600060208201905081810360008301526118d6816116f1565b9050919050565b600060208201905081810360008301526118f681611714565b9050919050565b6000602082019050818103600083015261191681611737565b9050919050565b600060208201905081810360008301526119368161175a565b9050919050565b600060208201905081810360008301526119568161177d565b9050919050565b60006020820190508181036000830152611976816117a0565b9050919050565b60006020820190508181036000830152611996816117c3565b9050919050565b600060208201905081810360008301526119b6816117e6565b9050919050565b60006020820190506119d26000830184611809565b92915050565b600060c0820190506119ed6000830189611809565b6119fa6020830188611809565b611a076040830187611809565b611a14606083018661165b565b611a21608083018561165b565b611a2e60a0830184611809565b979650505050505050565b600060a082019050611a4e6000830188611809565b611a5b6020830187611809565b611a686040830186611809565b611a75606083018561165b565b611a826080830184611818565b9695505050505050565b6000608082019050611aa16000830187611809565b611aae6020830186611809565b611abb6040830185611809565b611ac86060830184611818565b95945050505050565b6000611adb611aec565b9050611ae78282611bf3565b919050565b6000604051905090565b600067ffffffffffffffff821115611b1157611b10611cfa565b5b611b1a82611d3d565b9050602081019050919050565b600082825260208201905092915050565b6000611b4382611b69565b9050919050565b60008115159050919050565b6000819050611b6482612067565b919050565b600073ffffffffffffffffffffffffffffffffffffffff82169050919050565b6000819050919050565b600060ff82169050919050565b6000611bab82611b56565b9050919050565b82818337600083830152505050565b60006002820490506001821680611bd957607f821691505b60208210811415611bed57611bec611ccb565b5b50919050565b611bfc82611d3d565b810181811067ffffffffffffffff82111715611c1b57611c1a611cfa565b5b80604052505050565b6000611c2f82611b89565b91507fffffffffffffffffffffffffffffffffffffffffffffffffffffffffffffffff821415611c6257611c61611c6d565b5b600182019050919050565b7f4e487b7100000000000000000000000000000000000000000000000000000000600052601160045260246000fd5b7f4e487b7100000000000000000000000000000000000000000000000000000000600052602160045260246000fd5b7f4e487b7100000000000000000000000000000000000000000000000000000000600052602260045260246000fd5b7f4e487b7100000000000000000000000000000000000000000000000000000000600052604160045260246000fd5b600080fd5b600080fd5b600080fd5b600080fd5b6000601f19601f8301169050919050565b7f596f752068617665206e6f7420696e707574206120726967687420766f74652e60008201527f20596f752063616e2065697468657220766f7465203120666f7220526571756560208201527f73746572206f72203220666f722050726f76696465722e000000000000000000604082015250565b7f596f75206861766520616c726561647920766f7465642c20796f752063616e6e60008201527f6f7420766f746520616761696e00000000000000000000000000000000000000602082015250565b7f43616e6e6f74206361727279206f75742074686973206f7065726174696f6e21600082015250565b7f5468697320436f6e666c69637420646f6573206e6f742065786973742e000000600082015250565b7f596f7520726169736564207468697320636f6e666c6963742e20596f7520636160008201527f6e6e6f7420766f7465206f6e2069742e00000000000000000000000000000000602082015250565b7f436f6e666c6963742068617320616c7265616479206265656e2063726561746560008201527f6420666f72207468697320706172746963756c6172204d696c6573746f6e652e602082015250565b7f566f74696e6720686173206e6f74206265656e20636f6d706c6574656420796560008201527f742e20506c65617365207761697420666f7220697420746f20656e642e000000602082015250565b7f4e6f742065766572796f6e652068617320766f7465642c20706c65617365207060008201527f726f6d707420616c6c206f74686572206d656d62657273206f662070726f6a6560208201527f637420746f20766f746500000000000000000000000000000000000000000000604082015250565b7f4120737472696e67206973207265717569726564210000000000000000000000600082015250565b7f596f752061726520696e766f6c76656420696e207468697320636f6e666c696360008201527f742e20596f752063616e6e6f7420766f7465206f6e2069742e00000000000000602082015250565b7f456e6f75676820766f7465732068617665206265656e20636f6c6c6563746564600082015250565b6004811061207857612077611c9c565b5b50565b61208481611b38565b811461208f57600080fd5b50565b61209b81611b89565b81146120a657600080fd5b50565b6120b281611b93565b81146120bd57600080fd5b5056fea264697066735822122058563d97c6d17af751804e9247a62ca39c7dd4a341d528c19b7a124a805a3aad64736f6c63430008070033",
					"opcodes": "PUSH1 0x80 PUSH1 0x40 MSTORE CALLVALUE DUP1 ISZERO PUSH2 0x10 JUMPI PUSH1 0x0 DUP1 REVERT JUMPDEST POP PUSH2 0x20F6 DUP1 PUSH2 0x20 PUSH1 0x0 CODECOPY PUSH1 0x0 RETURN INVALID PUSH1 0x80 PUSH1 0x40 MSTORE CALLVALUE DUP1 ISZERO PUSH2 0x10 JUMPI PUSH1 0x0 DUP1 REVERT JUMPDEST POP PUSH1 0x4 CALLDATASIZE LT PUSH2 0x9D JUMPI PUSH1 0x0 CALLDATALOAD PUSH1 0xE0 SHR DUP1 PUSH4 0xC171BDF7 GT PUSH2 0x66 JUMPI DUP1 PUSH4 0xC171BDF7 EQ PUSH2 0x16A JUMPI DUP1 PUSH4 0xCB4389CE EQ PUSH2 0x19A JUMPI DUP1 PUSH4 0xD1E992A7 EQ PUSH2 0x1CA JUMPI DUP1 PUSH4 0xE3D87718 EQ PUSH2 0x1E6 JUMPI DUP1 PUSH4 0xE62FAC27 EQ PUSH2 0x216 JUMPI PUSH2 0x9D JUMP JUMPDEST DUP1 PUSH3 0x3F489F EQ PUSH2 0xA2 JUMPI DUP1 PUSH4 0x366CEF2 EQ PUSH2 0xBE JUMPI DUP1 PUSH4 0x3C45FE31 EQ PUSH2 0xEE JUMPI DUP1 PUSH4 0x9AC78879 EQ PUSH2 0x11E JUMPI DUP1 PUSH4 0x9C87A5E9 EQ PUSH2 0x14E JUMPI JUMPDEST PUSH1 0x0 DUP1 REVERT JUMPDEST PUSH2 0xBC PUSH1 0x4 DUP1 CALLDATASIZE SUB DUP2 ADD SWAP1 PUSH2 0xB7 SWAP2 SWAP1 PUSH2 0x13EC JUMP JUMPDEST PUSH2 0x232 JUMP JUMPDEST STOP JUMPDEST PUSH2 0xD8 PUSH1 0x4 DUP1 CALLDATASIZE SUB DUP2 ADD SWAP1 PUSH2 0xD3 SWAP2 SWAP1 PUSH2 0x13EC JUMP JUMPDEST PUSH2 0x3D1 JUMP JUMPDEST PUSH1 0x40 MLOAD PUSH2 0xE5 SWAP2 SWAP1 PUSH2 0x19BD JUMP JUMPDEST PUSH1 0x40 MLOAD DUP1 SWAP2 SUB SWAP1 RETURN JUMPDEST PUSH2 0x108 PUSH1 0x4 DUP1 CALLDATASIZE SUB DUP2 ADD SWAP1 PUSH2 0x103 SWAP2 SWAP1 PUSH2 0x13EC JUMP JUMPDEST PUSH2 0x57F JUMP JUMPDEST PUSH1 0x40 MLOAD PUSH2 0x115 SWAP2 SWAP1 PUSH2 0x19BD JUMP JUMPDEST PUSH1 0x40 MLOAD DUP1 SWAP2 SUB SWAP1 RETURN JUMPDEST PUSH2 0x138 PUSH1 0x4 DUP1 CALLDATASIZE SUB DUP2 ADD SWAP1 PUSH2 0x133 SWAP2 SWAP1 PUSH2 0x13EC JUMP JUMPDEST PUSH2 0x5C2 JUMP JUMPDEST PUSH1 0x40 MLOAD PUSH2 0x145 SWAP2 SWAP1 PUSH2 0x19BD JUMP JUMPDEST PUSH1 0x40 MLOAD DUP1 SWAP2 SUB SWAP1 RETURN JUMPDEST PUSH2 0x168 PUSH1 0x4 DUP1 CALLDATASIZE SUB DUP2 ADD SWAP1 PUSH2 0x163 SWAP2 SWAP1 PUSH2 0x13EC JUMP JUMPDEST PUSH2 0x605 JUMP JUMPDEST STOP JUMPDEST PUSH2 0x184 PUSH1 0x4 DUP1 CALLDATASIZE SUB DUP2 ADD SWAP1 PUSH2 0x17F SWAP2 SWAP1 PUSH2 0x143F JUMP JUMPDEST PUSH2 0x754 JUMP JUMPDEST PUSH1 0x40 MLOAD PUSH2 0x191 SWAP2 SWAP1 PUSH2 0x1827 JUMP JUMPDEST PUSH1 0x40 MLOAD DUP1 SWAP2 SUB SWAP1 RETURN JUMPDEST PUSH2 0x1B4 PUSH1 0x4 DUP1 CALLDATASIZE SUB DUP2 ADD SWAP1 PUSH2 0x1AF SWAP2 SWAP1 PUSH2 0x13EC JUMP JUMPDEST PUSH2 0xCFA JUMP JUMPDEST PUSH1 0x40 MLOAD PUSH2 0x1C1 SWAP2 SWAP1 PUSH2 0x1842 JUMP JUMPDEST PUSH1 0x40 MLOAD DUP1 SWAP2 SUB SWAP1 RETURN JUMPDEST PUSH2 0x1E4 PUSH1 0x4 DUP1 CALLDATASIZE SUB DUP2 ADD SWAP1 PUSH2 0x1DF SWAP2 SWAP1 PUSH2 0x14BA JUMP JUMPDEST PUSH2 0xD4A JUMP JUMPDEST STOP JUMPDEST PUSH2 0x200 PUSH1 0x4 DUP1 CALLDATASIZE SUB DUP2 ADD SWAP1 PUSH2 0x1FB SWAP2 SWAP1 PUSH2 0x13EC JUMP JUMPDEST PUSH2 0xF28 JUMP JUMPDEST PUSH1 0x40 MLOAD PUSH2 0x20D SWAP2 SWAP1 PUSH2 0x19BD JUMP JUMPDEST PUSH1 0x40 MLOAD DUP1 SWAP2 SUB SWAP1 RETURN JUMPDEST PUSH2 0x230 PUSH1 0x4 DUP1 CALLDATASIZE SUB DUP2 ADD SWAP1 PUSH2 0x22B SWAP2 SWAP1 PUSH2 0x156D JUMP JUMPDEST PUSH2 0xF6B JUMP JUMPDEST STOP JUMPDEST DUP3 DUP3 DUP3 PUSH1 0x0 DUP1 DUP5 DUP2 MSTORE PUSH1 0x20 ADD SWAP1 DUP2 MSTORE PUSH1 0x20 ADD PUSH1 0x0 KECCAK256 PUSH1 0x0 DUP4 DUP2 MSTORE PUSH1 0x20 ADD SWAP1 DUP2 MSTORE PUSH1 0x20 ADD PUSH1 0x0 KECCAK256 PUSH1 0x0 DUP3 DUP2 MSTORE PUSH1 0x20 ADD SWAP1 DUP2 MSTORE PUSH1 0x20 ADD PUSH1 0x0 KECCAK256 PUSH1 0xB ADD PUSH1 0x0 SWAP1 SLOAD SWAP1 PUSH2 0x100 EXP SWAP1 DIV PUSH1 0xFF AND PUSH2 0x2B9 JUMPI PUSH1 0x40 MLOAD PUSH32 0x8C379A000000000000000000000000000000000000000000000000000000000 DUP2 MSTORE PUSH1 0x4 ADD PUSH2 0x2B0 SWAP1 PUSH2 0x18BD JUMP JUMPDEST PUSH1 0x40 MLOAD DUP1 SWAP2 SUB SWAP1 REVERT JUMPDEST DUP6 DUP6 DUP6 PUSH1 0x0 DUP1 PUSH1 0x3 DUP2 GT ISZERO PUSH2 0x2D1 JUMPI PUSH2 0x2D0 PUSH2 0x1C9C JUMP JUMPDEST JUMPDEST PUSH1 0x0 DUP1 DUP7 DUP2 MSTORE PUSH1 0x20 ADD SWAP1 DUP2 MSTORE PUSH1 0x20 ADD PUSH1 0x0 KECCAK256 PUSH1 0x0 DUP6 DUP2 MSTORE PUSH1 0x20 ADD SWAP1 DUP2 MSTORE PUSH1 0x20 ADD PUSH1 0x0 KECCAK256 PUSH1 0x0 DUP5 DUP2 MSTORE PUSH1 0x20 ADD SWAP1 DUP2 MSTORE PUSH1 0x20 ADD PUSH1 0x0 KECCAK256 PUSH1 0x6 ADD PUSH1 0x14 SWAP1 SLOAD SWAP1 PUSH2 0x100 EXP SWAP1 DIV PUSH1 0xFF AND PUSH1 0x3 DUP2 GT ISZERO PUSH2 0x328 JUMPI PUSH2 0x327 PUSH2 0x1C9C JUMP JUMPDEST JUMPDEST EQ PUSH2 0x368 JUMPI PUSH1 0x40 MLOAD PUSH32 0x8C379A000000000000000000000000000000000000000000000000000000000 DUP2 MSTORE PUSH1 0x4 ADD PUSH2 0x35F SWAP1 PUSH2 0x189D JUMP JUMPDEST PUSH1 0x40 MLOAD DUP1 SWAP2 SUB SWAP1 REVERT JUMPDEST PUSH1 0x0 DUP1 PUSH1 0x0 DUP13 DUP2 MSTORE PUSH1 0x20 ADD SWAP1 DUP2 MSTORE PUSH1 0x20 ADD PUSH1 0x0 KECCAK256 PUSH1 0x0 DUP12 DUP2 MSTORE PUSH1 0x20 ADD SWAP1 DUP2 MSTORE PUSH1 0x20 ADD PUSH1 0x0 KECCAK256 PUSH1 0x0 DUP11 DUP2 MSTORE PUSH1 0x20 ADD SWAP1 DUP2 MSTORE PUSH1 0x20 ADD PUSH1 0x0 KECCAK256 PUSH1 0xB ADD PUSH1 0x0 PUSH2 0x100 EXP DUP2 SLOAD DUP2 PUSH1 0xFF MUL NOT AND SWAP1 DUP4 ISZERO ISZERO MUL OR SWAP1 SSTORE POP PUSH2 0x3C5 DUP11 DUP11 DUP11 PUSH1 0x3 PUSH2 0x1235 JUMP JUMPDEST POP POP POP POP POP POP POP POP POP POP JUMP JUMPDEST PUSH1 0x0 DUP1 PUSH1 0x0 DUP6 DUP2 MSTORE PUSH1 0x20 ADD SWAP1 DUP2 MSTORE PUSH1 0x20 ADD PUSH1 0x0 KECCAK256 PUSH1 0x0 DUP5 DUP2 MSTORE PUSH1 0x20 ADD SWAP1 DUP2 MSTORE PUSH1 0x20 ADD PUSH1 0x0 KECCAK256 PUSH1 0x0 DUP4 DUP2 MSTORE PUSH1 0x20 ADD SWAP1 DUP2 MSTORE PUSH1 0x20 ADD PUSH1 0x0 KECCAK256 PUSH1 0x7 ADD SLOAD PUSH1 0x0 DUP1 DUP7 DUP2 MSTORE PUSH1 0x20 ADD SWAP1 DUP2 MSTORE PUSH1 0x20 ADD PUSH1 0x0 KECCAK256 PUSH1 0x0 DUP6 DUP2 MSTORE PUSH1 0x20 ADD SWAP1 DUP2 MSTORE PUSH1 0x20 ADD PUSH1 0x0 KECCAK256 PUSH1 0x0 DUP5 DUP2 MSTORE PUSH1 0x20 ADD SWAP1 DUP2 MSTORE PUSH1 0x20 ADD PUSH1 0x0 KECCAK256 PUSH1 0x8 ADD SLOAD EQ PUSH2 0x483 JUMPI PUSH1 0x40 MLOAD PUSH32 0x8C379A000000000000000000000000000000000000000000000000000000000 DUP2 MSTORE PUSH1 0x4 ADD PUSH2 0x47A SWAP1 PUSH2 0x193D JUMP JUMPDEST PUSH1 0x40 MLOAD DUP1 SWAP2 SUB SWAP1 REVERT JUMPDEST PUSH1 0x2 PUSH1 0x3 DUP2 GT ISZERO PUSH2 0x497 JUMPI PUSH2 0x496 PUSH2 0x1C9C JUMP JUMPDEST JUMPDEST PUSH1 0x0 DUP1 DUP7 DUP2 MSTORE PUSH1 0x20 ADD SWAP1 DUP2 MSTORE PUSH1 0x20 ADD PUSH1 0x0 KECCAK256 PUSH1 0x0 DUP6 DUP2 MSTORE PUSH1 0x20 ADD SWAP1 DUP2 MSTORE PUSH1 0x20 ADD PUSH1 0x0 KECCAK256 PUSH1 0x0 DUP5 DUP2 MSTORE PUSH1 0x20 ADD SWAP1 DUP2 MSTORE PUSH1 0x20 ADD PUSH1 0x0 KECCAK256 PUSH1 0x6 ADD PUSH1 0x14 SWAP1 SLOAD SWAP1 PUSH2 0x100 EXP SWAP1 DIV PUSH1 0xFF AND PUSH1 0x3 DUP2 GT ISZERO PUSH2 0x4EE JUMPI PUSH2 0x4ED PUSH2 0x1C9C JUMP JUMPDEST JUMPDEST EQ PUSH2 0x52E JUMPI PUSH1 0x40 MLOAD PUSH32 0x8C379A000000000000000000000000000000000000000000000000000000000 DUP2 MSTORE PUSH1 0x4 ADD PUSH2 0x525 SWAP1 PUSH2 0x191D JUMP JUMPDEST PUSH1 0x40 MLOAD DUP1 SWAP2 SUB SWAP1 REVERT JUMPDEST PUSH1 0x0 DUP1 DUP6 DUP2 MSTORE PUSH1 0x20 ADD SWAP1 DUP2 MSTORE PUSH1 0x20 ADD PUSH1 0x0 KECCAK256 PUSH1 0x0 DUP5 DUP2 MSTORE PUSH1 0x20 ADD SWAP1 DUP2 MSTORE PUSH1 0x20 ADD PUSH1 0x0 KECCAK256 PUSH1 0x0 DUP4 DUP2 MSTORE PUSH1 0x20 ADD SWAP1 DUP2 MSTORE PUSH1 0x20 ADD PUSH1 0x0 KECCAK256 PUSH1 0xB ADD PUSH1 0x1 SWAP1 SLOAD SWAP1 PUSH2 0x100 EXP SWAP1 DIV PUSH1 0xFF AND PUSH1 0xFF AND SWAP1 POP SWAP4 SWAP3 POP POP POP JUMP JUMPDEST PUSH1 0x0 DUP1 PUSH1 0x0 DUP6 DUP2 MSTORE PUSH1 0x20 ADD SWAP1 DUP2 MSTORE PUSH1 0x20 ADD PUSH1 0x0 KECCAK256 PUSH1 0x0 DUP5 DUP2 MSTORE PUSH1 0x20 ADD SWAP1 DUP2 MSTORE PUSH1 0x20 ADD PUSH1 0x0 KECCAK256 PUSH1 0x0 DUP4 DUP2 MSTORE PUSH1 0x20 ADD SWAP1 DUP2 MSTORE PUSH1 0x20 ADD PUSH1 0x0 KECCAK256 PUSH1 0x8 ADD SLOAD SWAP1 POP SWAP4 SWAP3 POP POP POP JUMP JUMPDEST PUSH1 0x0 DUP1 PUSH1 0x0 DUP6 DUP2 MSTORE PUSH1 0x20 ADD SWAP1 DUP2 MSTORE PUSH1 0x20 ADD PUSH1 0x0 KECCAK256 PUSH1 0x0 DUP5 DUP2 MSTORE PUSH1 0x20 ADD SWAP1 DUP2 MSTORE PUSH1 0x20 ADD PUSH1 0x0 KECCAK256 PUSH1 0x0 DUP4 DUP2 MSTORE PUSH1 0x20 ADD SWAP1 DUP2 MSTORE PUSH1 0x20 ADD PUSH1 0x0 KECCAK256 PUSH1 0xA ADD SLOAD SWAP1 POP SWAP4 SWAP3 POP POP POP JUMP JUMPDEST DUP3 DUP3 DUP3 PUSH1 0x0 DUP1 DUP5 DUP2 MSTORE PUSH1 0x20 ADD SWAP1 DUP2 MSTORE PUSH1 0x20 ADD PUSH1 0x0 KECCAK256 PUSH1 0x0 DUP4 DUP2 MSTORE PUSH1 0x20 ADD SWAP1 DUP2 MSTORE PUSH1 0x20 ADD PUSH1 0x0 KECCAK256 PUSH1 0x0 DUP3 DUP2 MSTORE PUSH1 0x20 ADD SWAP1 DUP2 MSTORE PUSH1 0x20 ADD PUSH1 0x0 KECCAK256 PUSH1 0xB ADD PUSH1 0x0 SWAP1 SLOAD SWAP1 PUSH2 0x100 EXP SWAP1 DIV PUSH1 0xFF AND PUSH2 0x68C JUMPI PUSH1 0x40 MLOAD PUSH32 0x8C379A000000000000000000000000000000000000000000000000000000000 DUP2 MSTORE PUSH1 0x4 ADD PUSH2 0x683 SWAP1 PUSH2 0x18BD JUMP JUMPDEST PUSH1 0x40 MLOAD DUP1 SWAP2 SUB SWAP1 REVERT JUMPDEST DUP6 DUP6 DUP6 PUSH1 0x0 DUP1 PUSH1 0x3 DUP2 GT ISZERO PUSH2 0x6A4 JUMPI PUSH2 0x6A3 PUSH2 0x1C9C JUMP JUMPDEST JUMPDEST PUSH1 0x0 DUP1 DUP7 DUP2 MSTORE PUSH1 0x20 ADD SWAP1 DUP2 MSTORE PUSH1 0x20 ADD PUSH1 0x0 KECCAK256 PUSH1 0x0 DUP6 DUP2 MSTORE PUSH1 0x20 ADD SWAP1 DUP2 MSTORE PUSH1 0x20 ADD PUSH1 0x0 KECCAK256 PUSH1 0x0 DUP5 DUP2 MSTORE PUSH1 0x20 ADD SWAP1 DUP2 MSTORE PUSH1 0x20 ADD PUSH1 0x0 KECCAK256 PUSH1 0x6 ADD PUSH1 0x14 SWAP1 SLOAD SWAP1 PUSH2 0x100 EXP SWAP1 DIV PUSH1 0xFF AND PUSH1 0x3 DUP2 GT ISZERO PUSH2 0x6FB JUMPI PUSH2 0x6FA PUSH2 0x1C9C JUMP JUMPDEST JUMPDEST EQ PUSH2 0x73B JUMPI PUSH1 0x40 MLOAD PUSH32 0x8C379A000000000000000000000000000000000000000000000000000000000 DUP2 MSTORE PUSH1 0x4 ADD PUSH2 0x732 SWAP1 PUSH2 0x189D JUMP JUMPDEST PUSH1 0x40 MLOAD DUP1 SWAP2 SUB SWAP1 REVERT JUMPDEST PUSH2 0x748 DUP11 DUP11 DUP11 PUSH1 0x1 PUSH2 0x1235 JUMP JUMPDEST POP POP POP POP POP POP POP POP POP POP JUMP JUMPDEST PUSH1 0x0 DUP6 DUP6 DUP6 PUSH1 0x0 DUP1 DUP5 DUP2 MSTORE PUSH1 0x20 ADD SWAP1 DUP2 MSTORE PUSH1 0x20 ADD PUSH1 0x0 KECCAK256 PUSH1 0x0 DUP4 DUP2 MSTORE PUSH1 0x20 ADD SWAP1 DUP2 MSTORE PUSH1 0x20 ADD PUSH1 0x0 KECCAK256 PUSH1 0x0 DUP3 DUP2 MSTORE PUSH1 0x20 ADD SWAP1 DUP2 MSTORE PUSH1 0x20 ADD PUSH1 0x0 KECCAK256 PUSH1 0xB ADD PUSH1 0x0 SWAP1 SLOAD SWAP1 PUSH2 0x100 EXP SWAP1 DIV PUSH1 0xFF AND PUSH2 0x7DD JUMPI PUSH1 0x40 MLOAD PUSH32 0x8C379A000000000000000000000000000000000000000000000000000000000 DUP2 MSTORE PUSH1 0x4 ADD PUSH2 0x7D4 SWAP1 PUSH2 0x18BD JUMP JUMPDEST PUSH1 0x40 MLOAD DUP1 SWAP2 SUB SWAP1 REVERT JUMPDEST DUP9 DUP9 DUP9 PUSH1 0x1 DUP1 PUSH1 0x3 DUP2 GT ISZERO PUSH2 0x7F5 JUMPI PUSH2 0x7F4 PUSH2 0x1C9C JUMP JUMPDEST JUMPDEST PUSH1 0x0 DUP1 DUP7 DUP2 MSTORE PUSH1 0x20 ADD SWAP1 DUP2 MSTORE PUSH1 0x20 ADD PUSH1 0x0 KECCAK256 PUSH1 0x0 DUP6 DUP2 MSTORE PUSH1 0x20 ADD SWAP1 DUP2 MSTORE PUSH1 0x20 ADD PUSH1 0x0 KECCAK256 PUSH1 0x0 DUP5 DUP2 MSTORE PUSH1 0x20 ADD SWAP1 DUP2 MSTORE PUSH1 0x20 ADD PUSH1 0x0 KECCAK256 PUSH1 0x6 ADD PUSH1 0x14 SWAP1 SLOAD SWAP1 PUSH2 0x100 EXP SWAP1 DIV PUSH1 0xFF AND PUSH1 0x3 DUP2 GT ISZERO PUSH2 0x84C JUMPI PUSH2 0x84B PUSH2 0x1C9C JUMP JUMPDEST JUMPDEST EQ PUSH2 0x88C JUMPI PUSH1 0x40 MLOAD PUSH32 0x8C379A000000000000000000000000000000000000000000000000000000000 DUP2 MSTORE PUSH1 0x4 ADD PUSH2 0x883 SWAP1 PUSH2 0x189D JUMP JUMPDEST PUSH1 0x40 MLOAD DUP1 SWAP2 SUB SWAP1 REVERT JUMPDEST PUSH1 0x0 DUP1 PUSH1 0x0 DUP16 DUP2 MSTORE PUSH1 0x20 ADD SWAP1 DUP2 MSTORE PUSH1 0x20 ADD PUSH1 0x0 KECCAK256 PUSH1 0x0 DUP15 DUP2 MSTORE PUSH1 0x20 ADD SWAP1 DUP2 MSTORE PUSH1 0x20 ADD PUSH1 0x0 KECCAK256 PUSH1 0x0 DUP14 DUP2 MSTORE PUSH1 0x20 ADD SWAP1 DUP2 MSTORE PUSH1 0x20 ADD PUSH1 0x0 KECCAK256 SWAP1 POP DUP11 PUSH20 0xFFFFFFFFFFFFFFFFFFFFFFFFFFFFFFFFFFFFFFFF AND DUP2 PUSH1 0x5 ADD PUSH1 0x0 SWAP1 SLOAD SWAP1 PUSH2 0x100 EXP SWAP1 DIV PUSH20 0xFFFFFFFFFFFFFFFFFFFFFFFFFFFFFFFFFFFFFFFF AND PUSH20 0xFFFFFFFFFFFFFFFFFFFFFFFFFFFFFFFFFFFFFFFF AND EQ ISZERO PUSH2 0x957 JUMPI PUSH1 0x40 MLOAD PUSH32 0x8C379A000000000000000000000000000000000000000000000000000000000 DUP2 MSTORE PUSH1 0x4 ADD PUSH2 0x94E SWAP1 PUSH2 0x18DD JUMP JUMPDEST PUSH1 0x40 MLOAD DUP1 SWAP2 SUB SWAP1 REVERT JUMPDEST DUP11 PUSH20 0xFFFFFFFFFFFFFFFFFFFFFFFFFFFFFFFFFFFFFFFF AND DUP2 PUSH1 0x6 ADD PUSH1 0x0 SWAP1 SLOAD SWAP1 PUSH2 0x100 EXP SWAP1 DIV PUSH20 0xFFFFFFFFFFFFFFFFFFFFFFFFFFFFFFFFFFFFFFFF AND PUSH20 0xFFFFFFFFFFFFFFFFFFFFFFFFFFFFFFFFFFFFFFFF AND EQ ISZERO PUSH2 0x9EA JUMPI PUSH1 0x40 MLOAD PUSH32 0x8C379A000000000000000000000000000000000000000000000000000000000 DUP2 MSTORE PUSH1 0x4 ADD PUSH2 0x9E1 SWAP1 PUSH2 0x197D JUMP JUMPDEST PUSH1 0x40 MLOAD DUP1 SWAP2 SUB SWAP1 REVERT JUMPDEST DUP1 PUSH1 0x7 ADD SLOAD DUP2 PUSH1 0x8 ADD SLOAD LT PUSH2 0xA34 JUMPI PUSH1 0x40 MLOAD PUSH32 0x8C379A000000000000000000000000000000000000000000000000000000000 DUP2 MSTORE PUSH1 0x4 ADD PUSH2 0xA2B SWAP1 PUSH2 0x199D JUMP JUMPDEST PUSH1 0x40 MLOAD DUP1 SWAP2 SUB SWAP1 REVERT JUMPDEST PUSH1 0x0 DUP2 PUSH1 0xC ADD PUSH1 0x0 DUP14 PUSH20 0xFFFFFFFFFFFFFFFFFFFFFFFFFFFFFFFFFFFFFFFF AND PUSH20 0xFFFFFFFFFFFFFFFFFFFFFFFFFFFFFFFFFFFFFFFF AND DUP2 MSTORE PUSH1 0x20 ADD SWAP1 DUP2 MSTORE PUSH1 0x20 ADD PUSH1 0x0 KECCAK256 PUSH1 0x0 SWAP1 SLOAD SWAP1 PUSH2 0x100 EXP SWAP1 DIV PUSH1 0xFF AND PUSH1 0xFF AND EQ PUSH2 0xAC8 JUMPI PUSH1 0x40 MLOAD PUSH32 0x8C379A000000000000000000000000000000000000000000000000000000000 DUP2 MSTORE PUSH1 0x4 ADD PUSH2 0xABF SWAP1 PUSH2 0x187D JUMP JUMPDEST PUSH1 0x40 MLOAD DUP1 SWAP2 SUB SWAP1 REVERT JUMPDEST PUSH1 0x1 DUP11 PUSH1 0xFF AND EQ DUP1 PUSH2 0xADD JUMPI POP PUSH1 0x2 DUP11 PUSH1 0xFF AND EQ JUMPDEST PUSH2 0xB1C JUMPI PUSH1 0x40 MLOAD PUSH32 0x8C379A000000000000000000000000000000000000000000000000000000000 DUP2 MSTORE PUSH1 0x4 ADD PUSH2 0xB13 SWAP1 PUSH2 0x185D JUMP JUMPDEST PUSH1 0x40 MLOAD DUP1 SWAP2 SUB SWAP1 REVERT JUMPDEST DUP10 DUP2 PUSH1 0xC ADD PUSH1 0x0 DUP14 PUSH20 0xFFFFFFFFFFFFFFFFFFFFFFFFFFFFFFFFFFFFFFFF AND PUSH20 0xFFFFFFFFFFFFFFFFFFFFFFFFFFFFFFFFFFFFFFFF AND DUP2 MSTORE PUSH1 0x20 ADD SWAP1 DUP2 MSTORE PUSH1 0x20 ADD PUSH1 0x0 KECCAK256 PUSH1 0x0 PUSH2 0x100 EXP DUP2 SLOAD DUP2 PUSH1 0xFF MUL NOT AND SWAP1 DUP4 PUSH1 0xFF AND MUL OR SWAP1 SSTORE POP PUSH1 0x1 DUP11 PUSH1 0xFF AND EQ ISZERO PUSH2 0xB9D JUMPI DUP1 PUSH1 0x9 ADD PUSH1 0x0 DUP2 SLOAD DUP1 SWAP3 SWAP2 SWAP1 PUSH2 0xB97 SWAP1 PUSH2 0x1C24 JUMP JUMPDEST SWAP2 SWAP1 POP SSTORE POP JUMPDEST PUSH1 0x2 DUP11 PUSH1 0xFF AND EQ ISZERO PUSH2 0xBC4 JUMPI DUP1 PUSH1 0xA ADD PUSH1 0x0 DUP2 SLOAD DUP1 SWAP3 SWAP2 SWAP1 PUSH2 0xBBE SWAP1 PUSH2 0x1C24 JUMP JUMPDEST SWAP2 SWAP1 POP SSTORE POP JUMPDEST DUP1 PUSH1 0x8 ADD PUSH1 0x0 DUP2 SLOAD DUP1 SWAP3 SWAP2 SWAP1 PUSH2 0xBD9 SWAP1 PUSH2 0x1C24 JUMP JUMPDEST SWAP2 SWAP1 POP SSTORE POP PUSH32 0x20211B974ADBE11CE3687D51504CE7EF1FCFBB9C00405BA7ACA7B283903F345A DUP15 DUP15 DUP15 CALLER DUP15 PUSH1 0x40 MLOAD PUSH2 0xC15 SWAP6 SWAP5 SWAP4 SWAP3 SWAP2 SWAP1 PUSH2 0x1A39 JUMP JUMPDEST PUSH1 0x40 MLOAD DUP1 SWAP2 SUB SWAP1 LOG1 DUP1 PUSH1 0x7 ADD SLOAD DUP2 PUSH1 0x8 ADD SLOAD EQ ISZERO PUSH2 0xCE4 JUMPI DUP1 PUSH1 0x9 ADD SLOAD DUP2 PUSH1 0xA ADD SLOAD GT ISZERO PUSH2 0xC60 JUMPI PUSH1 0x2 DUP2 PUSH1 0xB ADD PUSH1 0x1 PUSH2 0x100 EXP DUP2 SLOAD DUP2 PUSH1 0xFF MUL NOT AND SWAP1 DUP4 PUSH1 0xFF AND MUL OR SWAP1 SSTORE POP PUSH2 0xC7F JUMP JUMPDEST PUSH1 0x1 DUP2 PUSH1 0xB ADD PUSH1 0x1 PUSH2 0x100 EXP DUP2 SLOAD DUP2 PUSH1 0xFF MUL NOT AND SWAP1 DUP4 PUSH1 0xFF AND MUL OR SWAP1 SSTORE POP JUMPDEST PUSH2 0xC8C DUP15 DUP15 DUP15 PUSH1 0x2 PUSH2 0x1235 JUMP JUMPDEST PUSH32 0xE59FDBC65A5DD63C529717C2A71D04B136038F05301755DE242DD05990C02814 DUP15 DUP15 DUP15 DUP5 PUSH1 0xB ADD PUSH1 0x1 SWAP1 SLOAD SWAP1 PUSH2 0x100 EXP SWAP1 DIV PUSH1 0xFF AND PUSH1 0x40 MLOAD PUSH2 0xCD2 SWAP5 SWAP4 SWAP3 SWAP2 SWAP1 PUSH2 0x1A8C JUMP JUMPDEST PUSH1 0x40 MLOAD DUP1 SWAP2 SUB SWAP1 LOG1 PUSH1 0x1 SWAP9 POP POP PUSH2 0xCEA JUMP JUMPDEST PUSH1 0x0 SWAP9 POP POP JUMPDEST POP POP POP POP POP POP POP SWAP6 SWAP5 POP POP POP POP POP JUMP JUMPDEST PUSH1 0x0 DUP1 PUSH1 0x0 DUP6 DUP2 MSTORE PUSH1 0x20 ADD SWAP1 DUP2 MSTORE PUSH1 0x20 ADD PUSH1 0x0 KECCAK256 PUSH1 0x0 DUP5 DUP2 MSTORE PUSH1 0x20 ADD SWAP1 DUP2 MSTORE PUSH1 0x20 ADD PUSH1 0x0 KECCAK256 PUSH1 0x0 DUP4 DUP2 MSTORE PUSH1 0x20 ADD SWAP1 DUP2 MSTORE PUSH1 0x20 ADD PUSH1 0x0 KECCAK256 PUSH1 0x6 ADD PUSH1 0x14 SWAP1 SLOAD SWAP1 PUSH2 0x100 EXP SWAP1 DIV PUSH1 0xFF AND SWAP1 POP SWAP4 SWAP3 POP POP POP JUMP JUMPDEST DUP5 DUP5 DUP5 PUSH1 0x0 DUP1 PUSH1 0x3 DUP2 GT ISZERO PUSH2 0xD62 JUMPI PUSH2 0xD61 PUSH2 0x1C9C JUMP JUMPDEST JUMPDEST PUSH1 0x0 DUP1 DUP7 DUP2 MSTORE PUSH1 0x20 ADD SWAP1 DUP2 MSTORE PUSH1 0x20 ADD PUSH1 0x0 KECCAK256 PUSH1 0x0 DUP6 DUP2 MSTORE PUSH1 0x20 ADD SWAP1 DUP2 MSTORE PUSH1 0x20 ADD PUSH1 0x0 KECCAK256 PUSH1 0x0 DUP5 DUP2 MSTORE PUSH1 0x20 ADD SWAP1 DUP2 MSTORE PUSH1 0x20 ADD PUSH1 0x0 KECCAK256 PUSH1 0x6 ADD PUSH1 0x14 SWAP1 SLOAD SWAP1 PUSH2 0x100 EXP SWAP1 DIV PUSH1 0xFF AND PUSH1 0x3 DUP2 GT ISZERO PUSH2 0xDB9 JUMPI PUSH2 0xDB8 PUSH2 0x1C9C JUMP JUMPDEST JUMPDEST EQ PUSH2 0xDF9 JUMPI PUSH1 0x40 MLOAD PUSH32 0x8C379A000000000000000000000000000000000000000000000000000000000 DUP2 MSTORE PUSH1 0x4 ADD PUSH2 0xDF0 SWAP1 PUSH2 0x189D JUMP JUMPDEST PUSH1 0x40 MLOAD DUP1 SWAP2 SUB SWAP1 REVERT JUMPDEST DUP6 PUSH1 0x0 DUP2 MLOAD GT PUSH2 0xE3E JUMPI PUSH1 0x40 MLOAD PUSH32 0x8C379A000000000000000000000000000000000000000000000000000000000 DUP2 MSTORE PUSH1 0x4 ADD PUSH2 0xE35 SWAP1 PUSH2 0x195D JUMP JUMPDEST PUSH1 0x40 MLOAD DUP1 SWAP2 SUB SWAP1 REVERT JUMPDEST DUP6 PUSH1 0x0 DUP2 MLOAD GT PUSH2 0xE83 JUMPI PUSH1 0x40 MLOAD PUSH32 0x8C379A000000000000000000000000000000000000000000000000000000000 DUP2 MSTORE PUSH1 0x4 ADD PUSH2 0xE7A SWAP1 PUSH2 0x195D JUMP JUMPDEST PUSH1 0x40 MLOAD DUP1 SWAP2 SUB SWAP1 REVERT JUMPDEST DUP8 PUSH1 0x0 DUP1 DUP14 DUP2 MSTORE PUSH1 0x20 ADD SWAP1 DUP2 MSTORE PUSH1 0x20 ADD PUSH1 0x0 KECCAK256 PUSH1 0x0 DUP13 DUP2 MSTORE PUSH1 0x20 ADD SWAP1 DUP2 MSTORE PUSH1 0x20 ADD PUSH1 0x0 KECCAK256 PUSH1 0x0 DUP12 DUP2 MSTORE PUSH1 0x20 ADD SWAP1 DUP2 MSTORE PUSH1 0x20 ADD PUSH1 0x0 KECCAK256 PUSH1 0x3 ADD SWAP1 DUP1 MLOAD SWAP1 PUSH1 0x20 ADD SWAP1 PUSH2 0xECE SWAP3 SWAP2 SWAP1 PUSH2 0x129A JUMP JUMPDEST POP DUP7 PUSH1 0x0 DUP1 DUP14 DUP2 MSTORE PUSH1 0x20 ADD SWAP1 DUP2 MSTORE PUSH1 0x20 ADD PUSH1 0x0 KECCAK256 PUSH1 0x0 DUP13 DUP2 MSTORE PUSH1 0x20 ADD SWAP1 DUP2 MSTORE PUSH1 0x20 ADD PUSH1 0x0 KECCAK256 PUSH1 0x0 DUP12 DUP2 MSTORE PUSH1 0x20 ADD SWAP1 DUP2 MSTORE PUSH1 0x20 ADD PUSH1 0x0 KECCAK256 PUSH1 0x4 ADD SWAP1 DUP1 MLOAD SWAP1 PUSH1 0x20 ADD SWAP1 PUSH2 0xF1A SWAP3 SWAP2 SWAP1 PUSH2 0x129A JUMP JUMPDEST POP POP POP POP POP POP POP POP POP POP POP POP JUMP JUMPDEST PUSH1 0x0 DUP1 PUSH1 0x0 DUP6 DUP2 MSTORE PUSH1 0x20 ADD SWAP1 DUP2 MSTORE PUSH1 0x20 ADD PUSH1 0x0 KECCAK256 PUSH1 0x0 DUP5 DUP2 MSTORE PUSH1 0x20 ADD SWAP1 DUP2 MSTORE PUSH1 0x20 ADD PUSH1 0x0 KECCAK256 PUSH1 0x0 DUP4 DUP2 MSTORE PUSH1 0x20 ADD SWAP1 DUP2 MSTORE PUSH1 0x20 ADD PUSH1 0x0 KECCAK256 PUSH1 0x9 ADD SLOAD SWAP1 POP SWAP4 SWAP3 POP POP POP JUMP JUMPDEST DUP5 PUSH1 0x0 DUP2 MLOAD GT PUSH2 0xFB0 JUMPI PUSH1 0x40 MLOAD PUSH32 0x8C379A000000000000000000000000000000000000000000000000000000000 DUP2 MSTORE PUSH1 0x4 ADD PUSH2 0xFA7 SWAP1 PUSH2 0x195D JUMP JUMPDEST PUSH1 0x40 MLOAD DUP1 SWAP2 SUB SWAP1 REVERT JUMPDEST DUP5 PUSH1 0x0 DUP2 MLOAD GT PUSH2 0xFF5 JUMPI PUSH1 0x40 MLOAD PUSH32 0x8C379A000000000000000000000000000000000000000000000000000000000 DUP2 MSTORE PUSH1 0x4 ADD PUSH2 0xFEC SWAP1 PUSH2 0x195D JUMP JUMPDEST PUSH1 0x40 MLOAD DUP1 SWAP2 SUB SWAP1 REVERT JUMPDEST PUSH1 0x0 DUP1 PUSH1 0x0 DUP13 DUP2 MSTORE PUSH1 0x20 ADD SWAP1 DUP2 MSTORE PUSH1 0x20 ADD PUSH1 0x0 KECCAK256 PUSH1 0x0 DUP12 DUP2 MSTORE PUSH1 0x20 ADD SWAP1 DUP2 MSTORE PUSH1 0x20 ADD PUSH1 0x0 KECCAK256 PUSH1 0x0 DUP11 DUP2 MSTORE PUSH1 0x20 ADD SWAP1 DUP2 MSTORE PUSH1 0x20 ADD PUSH1 0x0 KECCAK256 SWAP1 POP PUSH1 0x0 ISZERO ISZERO DUP2 PUSH1 0xB ADD PUSH1 0x0 SWAP1 SLOAD SWAP1 PUSH2 0x100 EXP SWAP1 DIV PUSH1 0xFF AND ISZERO ISZERO EQ PUSH2 0x1085 JUMPI PUSH1 0x40 MLOAD PUSH32 0x8C379A000000000000000000000000000000000000000000000000000000000 DUP2 MSTORE PUSH1 0x4 ADD PUSH2 0x107C SWAP1 PUSH2 0x18FD JUMP JUMPDEST PUSH1 0x40 MLOAD DUP1 SWAP2 SUB SWAP1 REVERT JUMPDEST DUP11 DUP2 PUSH1 0x0 ADD DUP2 SWAP1 SSTORE POP DUP10 DUP2 PUSH1 0x1 ADD DUP2 SWAP1 SSTORE POP DUP9 DUP2 PUSH1 0x2 ADD DUP2 SWAP1 SSTORE POP DUP8 DUP2 PUSH1 0x3 ADD SWAP1 DUP1 MLOAD SWAP1 PUSH1 0x20 ADD SWAP1 PUSH2 0x10B8 SWAP3 SWAP2 SWAP1 PUSH2 0x129A JUMP JUMPDEST POP DUP7 DUP2 PUSH1 0x4 ADD SWAP1 DUP1 MLOAD SWAP1 PUSH1 0x20 ADD SWAP1 PUSH2 0x10D1 SWAP3 SWAP2 SWAP1 PUSH2 0x129A JUMP JUMPDEST POP DUP6 DUP2 PUSH1 0x5 ADD PUSH1 0x0 PUSH2 0x100 EXP DUP2 SLOAD DUP2 PUSH20 0xFFFFFFFFFFFFFFFFFFFFFFFFFFFFFFFFFFFFFFFF MUL NOT AND SWAP1 DUP4 PUSH20 0xFFFFFFFFFFFFFFFFFFFFFFFFFFFFFFFFFFFFFFFF AND MUL OR SWAP1 SSTORE POP DUP5 DUP2 PUSH1 0x6 ADD PUSH1 0x0 PUSH2 0x100 EXP DUP2 SLOAD DUP2 PUSH20 0xFFFFFFFFFFFFFFFFFFFFFFFFFFFFFFFFFFFFFFFF MUL NOT AND SWAP1 DUP4 PUSH20 0xFFFFFFFFFFFFFFFFFFFFFFFFFFFFFFFFFFFFFFFF AND MUL OR SWAP1 SSTORE POP PUSH1 0x0 DUP2 PUSH1 0x6 ADD PUSH1 0x14 PUSH2 0x100 EXP DUP2 SLOAD DUP2 PUSH1 0xFF MUL NOT AND SWAP1 DUP4 PUSH1 0x3 DUP2 GT ISZERO PUSH2 0x1180 JUMPI PUSH2 0x117F PUSH2 0x1C9C JUMP JUMPDEST JUMPDEST MUL OR SWAP1 SSTORE POP DUP4 DUP2 PUSH1 0x7 ADD DUP2 SWAP1 SSTORE POP PUSH1 0x0 DUP2 PUSH1 0x8 ADD DUP2 SWAP1 SSTORE POP PUSH1 0x0 DUP2 PUSH1 0x9 ADD DUP2 SWAP1 SSTORE POP PUSH1 0x0 DUP2 PUSH1 0xA ADD DUP2 SWAP1 SSTORE POP PUSH1 0x1 DUP2 PUSH1 0xB ADD PUSH1 0x0 PUSH2 0x100 EXP DUP2 SLOAD DUP2 PUSH1 0xFF MUL NOT AND SWAP1 DUP4 ISZERO ISZERO MUL OR SWAP1 SSTORE POP PUSH1 0x0 DUP2 PUSH1 0xB ADD PUSH1 0x1 PUSH2 0x100 EXP DUP2 SLOAD DUP2 PUSH1 0xFF MUL NOT AND SWAP1 DUP4 PUSH1 0xFF AND MUL OR SWAP1 SSTORE POP PUSH32 0xFA127411522A1139D16C2142DB999E127AEF2288BD98A0558006BB115666AB1B DUP12 DUP12 DUP12 DUP10 DUP10 DUP10 PUSH1 0x40 MLOAD PUSH2 0x1220 SWAP7 SWAP6 SWAP5 SWAP4 SWAP3 SWAP2 SWAP1 PUSH2 0x19D8 JUMP JUMPDEST PUSH1 0x40 MLOAD DUP1 SWAP2 SUB SWAP1 LOG1 POP POP POP POP POP POP POP POP POP POP POP JUMP JUMPDEST DUP1 PUSH1 0x0 DUP1 DUP7 DUP2 MSTORE PUSH1 0x20 ADD SWAP1 DUP2 MSTORE PUSH1 0x20 ADD PUSH1 0x0 KECCAK256 PUSH1 0x0 DUP6 DUP2 MSTORE PUSH1 0x20 ADD SWAP1 DUP2 MSTORE PUSH1 0x20 ADD PUSH1 0x0 KECCAK256 PUSH1 0x0 DUP5 DUP2 MSTORE PUSH1 0x20 ADD SWAP1 DUP2 MSTORE PUSH1 0x20 ADD PUSH1 0x0 KECCAK256 PUSH1 0x6 ADD PUSH1 0x14 PUSH2 0x100 EXP DUP2 SLOAD DUP2 PUSH1 0xFF MUL NOT AND SWAP1 DUP4 PUSH1 0x3 DUP2 GT ISZERO PUSH2 0x128F JUMPI PUSH2 0x128E PUSH2 0x1C9C JUMP JUMPDEST JUMPDEST MUL OR SWAP1 SSTORE POP POP POP POP POP JUMP JUMPDEST DUP3 DUP1 SLOAD PUSH2 0x12A6 SWAP1 PUSH2 0x1BC1 JUMP JUMPDEST SWAP1 PUSH1 0x0 MSTORE PUSH1 0x20 PUSH1 0x0 KECCAK256 SWAP1 PUSH1 0x1F ADD PUSH1 0x20 SWAP1 DIV DUP2 ADD SWAP3 DUP3 PUSH2 0x12C8 JUMPI PUSH1 0x0 DUP6 SSTORE PUSH2 0x130F JUMP JUMPDEST DUP3 PUSH1 0x1F LT PUSH2 0x12E1 JUMPI DUP1 MLOAD PUSH1 0xFF NOT AND DUP4 DUP1 ADD OR DUP6 SSTORE PUSH2 0x130F JUMP JUMPDEST DUP3 DUP1 ADD PUSH1 0x1 ADD DUP6 SSTORE DUP3 ISZERO PUSH2 0x130F JUMPI SWAP2 DUP3 ADD JUMPDEST DUP3 DUP2 GT ISZERO PUSH2 0x130E JUMPI DUP3 MLOAD DUP3 SSTORE SWAP2 PUSH1 0x20 ADD SWAP2 SWAP1 PUSH1 0x1 ADD SWAP1 PUSH2 0x12F3 JUMP JUMPDEST JUMPDEST POP SWAP1 POP PUSH2 0x131C SWAP2 SWAP1 PUSH2 0x1320 JUMP JUMPDEST POP SWAP1 JUMP JUMPDEST JUMPDEST DUP1 DUP3 GT ISZERO PUSH2 0x1339 JUMPI PUSH1 0x0 DUP2 PUSH1 0x0 SWAP1 SSTORE POP PUSH1 0x1 ADD PUSH2 0x1321 JUMP JUMPDEST POP SWAP1 JUMP JUMPDEST PUSH1 0x0 PUSH2 0x1350 PUSH2 0x134B DUP5 PUSH2 0x1AF6 JUMP JUMPDEST PUSH2 0x1AD1 JUMP JUMPDEST SWAP1 POP DUP3 DUP2 MSTORE PUSH1 0x20 DUP2 ADD DUP5 DUP5 DUP5 ADD GT ISZERO PUSH2 0x136C JUMPI PUSH2 0x136B PUSH2 0x1D2E JUMP JUMPDEST JUMPDEST PUSH2 0x1377 DUP5 DUP3 DUP6 PUSH2 0x1BB2 JUMP JUMPDEST POP SWAP4 SWAP3 POP POP POP JUMP JUMPDEST PUSH1 0x0 DUP2 CALLDATALOAD SWAP1 POP PUSH2 0x138E DUP2 PUSH2 0x207B JUMP JUMPDEST SWAP3 SWAP2 POP POP JUMP JUMPDEST PUSH1 0x0 DUP3 PUSH1 0x1F DUP4 ADD SLT PUSH2 0x13A9 JUMPI PUSH2 0x13A8 PUSH2 0x1D29 JUMP JUMPDEST JUMPDEST DUP2 CALLDATALOAD PUSH2 0x13B9 DUP5 DUP3 PUSH1 0x20 DUP7 ADD PUSH2 0x133D JUMP JUMPDEST SWAP2 POP POP SWAP3 SWAP2 POP POP JUMP JUMPDEST PUSH1 0x0 DUP2 CALLDATALOAD SWAP1 POP PUSH2 0x13D1 DUP2 PUSH2 0x2092 JUMP JUMPDEST SWAP3 SWAP2 POP POP JUMP JUMPDEST PUSH1 0x0 DUP2 CALLDATALOAD SWAP1 POP PUSH2 0x13E6 DUP2 PUSH2 0x20A9 JUMP JUMPDEST SWAP3 SWAP2 POP POP JUMP JUMPDEST PUSH1 0x0 DUP1 PUSH1 0x0 PUSH1 0x60 DUP5 DUP7 SUB SLT ISZERO PUSH2 0x1405 JUMPI PUSH2 0x1404 PUSH2 0x1D38 JUMP JUMPDEST JUMPDEST PUSH1 0x0 PUSH2 0x1413 DUP7 DUP3 DUP8 ADD PUSH2 0x13C2 JUMP JUMPDEST SWAP4 POP POP PUSH1 0x20 PUSH2 0x1424 DUP7 DUP3 DUP8 ADD PUSH2 0x13C2 JUMP JUMPDEST SWAP3 POP POP PUSH1 0x40 PUSH2 0x1435 DUP7 DUP3 DUP8 ADD PUSH2 0x13C2 JUMP JUMPDEST SWAP2 POP POP SWAP3 POP SWAP3 POP SWAP3 JUMP JUMPDEST PUSH1 0x0 DUP1 PUSH1 0x0 DUP1 PUSH1 0x0 PUSH1 0xA0 DUP7 DUP9 SUB SLT ISZERO PUSH2 0x145B JUMPI PUSH2 0x145A PUSH2 0x1D38 JUMP JUMPDEST JUMPDEST PUSH1 0x0 PUSH2 0x1469 DUP9 DUP3 DUP10 ADD PUSH2 0x13C2 JUMP JUMPDEST SWAP6 POP POP PUSH1 0x20 PUSH2 0x147A DUP9 DUP3 DUP10 ADD PUSH2 0x13C2 JUMP JUMPDEST SWAP5 POP POP PUSH1 0x40 PUSH2 0x148B DUP9 DUP3 DUP10 ADD PUSH2 0x13C2 JUMP JUMPDEST SWAP4 POP POP PUSH1 0x60 PUSH2 0x149C DUP9 DUP3 DUP10 ADD PUSH2 0x137F JUMP JUMPDEST SWAP3 POP POP PUSH1 0x80 PUSH2 0x14AD DUP9 DUP3 DUP10 ADD PUSH2 0x13D7 JUMP JUMPDEST SWAP2 POP POP SWAP3 SWAP6 POP SWAP3 SWAP6 SWAP1 SWAP4 POP JUMP JUMPDEST PUSH1 0x0 DUP1 PUSH1 0x0 DUP1 PUSH1 0x0 PUSH1 0xA0 DUP7 DUP9 SUB SLT ISZERO PUSH2 0x14D6 JUMPI PUSH2 0x14D5 PUSH2 0x1D38 JUMP JUMPDEST JUMPDEST PUSH1 0x0 PUSH2 0x14E4 DUP9 DUP3 DUP10 ADD PUSH2 0x13C2 JUMP JUMPDEST SWAP6 POP POP PUSH1 0x20 PUSH2 0x14F5 DUP9 DUP3 DUP10 ADD PUSH2 0x13C2 JUMP JUMPDEST SWAP5 POP POP PUSH1 0x40 PUSH2 0x1506 DUP9 DUP3 DUP10 ADD PUSH2 0x13C2 JUMP JUMPDEST SWAP4 POP POP PUSH1 0x60 DUP7 ADD CALLDATALOAD PUSH8 0xFFFFFFFFFFFFFFFF DUP2 GT ISZERO PUSH2 0x1527 JUMPI PUSH2 0x1526 PUSH2 0x1D33 JUMP JUMPDEST JUMPDEST PUSH2 0x1533 DUP9 DUP3 DUP10 ADD PUSH2 0x1394 JUMP JUMPDEST SWAP3 POP POP PUSH1 0x80 DUP7 ADD CALLDATALOAD PUSH8 0xFFFFFFFFFFFFFFFF DUP2 GT ISZERO PUSH2 0x1554 JUMPI PUSH2 0x1553 PUSH2 0x1D33 JUMP JUMPDEST JUMPDEST PUSH2 0x1560 DUP9 DUP3 DUP10 ADD PUSH2 0x1394 JUMP JUMPDEST SWAP2 POP POP SWAP3 SWAP6 POP SWAP3 SWAP6 SWAP1 SWAP4 POP JUMP JUMPDEST PUSH1 0x0 DUP1 PUSH1 0x0 DUP1 PUSH1 0x0 DUP1 PUSH1 0x0 DUP1 PUSH2 0x100 DUP10 DUP12 SUB SLT ISZERO PUSH2 0x158E JUMPI PUSH2 0x158D PUSH2 0x1D38 JUMP JUMPDEST JUMPDEST PUSH1 0x0 PUSH2 0x159C DUP12 DUP3 DUP13 ADD PUSH2 0x13C2 JUMP JUMPDEST SWAP9 POP POP PUSH1 0x20 PUSH2 0x15AD DUP12 DUP3 DUP13 ADD PUSH2 0x13C2 JUMP JUMPDEST SWAP8 POP POP PUSH1 0x40 PUSH2 0x15BE DUP12 DUP3 DUP13 ADD PUSH2 0x13C2 JUMP JUMPDEST SWAP7 POP POP PUSH1 0x60 DUP10 ADD CALLDATALOAD PUSH8 0xFFFFFFFFFFFFFFFF DUP2 GT ISZERO PUSH2 0x15DF JUMPI PUSH2 0x15DE PUSH2 0x1D33 JUMP JUMPDEST JUMPDEST PUSH2 0x15EB DUP12 DUP3 DUP13 ADD PUSH2 0x1394 JUMP JUMPDEST SWAP6 POP POP PUSH1 0x80 DUP10 ADD CALLDATALOAD PUSH8 0xFFFFFFFFFFFFFFFF DUP2 GT ISZERO PUSH2 0x160C JUMPI PUSH2 0x160B PUSH2 0x1D33 JUMP JUMPDEST JUMPDEST PUSH2 0x1618 DUP12 DUP3 DUP13 ADD PUSH2 0x1394 JUMP JUMPDEST SWAP5 POP POP PUSH1 0xA0 PUSH2 0x1629 DUP12 DUP3 DUP13 ADD PUSH2 0x137F JUMP JUMPDEST SWAP4 POP POP PUSH1 0xC0 PUSH2 0x163A DUP12 DUP3 DUP13 ADD PUSH2 0x137F JUMP JUMPDEST SWAP3 POP POP PUSH1 0xE0 PUSH2 0x164B DUP12 DUP3 DUP13 ADD PUSH2 0x13C2 JUMP JUMPDEST SWAP2 POP POP SWAP3 SWAP6 SWAP9 POP SWAP3 SWAP6 SWAP9 SWAP1 SWAP4 SWAP7 POP JUMP JUMPDEST PUSH2 0x1664 DUP2 PUSH2 0x1B38 JUMP JUMPDEST DUP3 MSTORE POP POP JUMP JUMPDEST PUSH2 0x1673 DUP2 PUSH2 0x1B4A JUMP JUMPDEST DUP3 MSTORE POP POP JUMP JUMPDEST PUSH2 0x1682 DUP2 PUSH2 0x1BA0 JUMP JUMPDEST DUP3 MSTORE POP POP JUMP JUMPDEST PUSH1 0x0 PUSH2 0x1695 PUSH1 0x57 DUP4 PUSH2 0x1B27 JUMP JUMPDEST SWAP2 POP PUSH2 0x16A0 DUP3 PUSH2 0x1D4E JUMP JUMPDEST PUSH1 0x60 DUP3 ADD SWAP1 POP SWAP2 SWAP1 POP JUMP JUMPDEST PUSH1 0x0 PUSH2 0x16B8 PUSH1 0x2D DUP4 PUSH2 0x1B27 JUMP JUMPDEST SWAP2 POP PUSH2 0x16C3 DUP3 PUSH2 0x1DC3 JUMP JUMPDEST PUSH1 0x40 DUP3 ADD SWAP1 POP SWAP2 SWAP1 POP JUMP JUMPDEST PUSH1 0x0 PUSH2 0x16DB PUSH1 0x20 DUP4 PUSH2 0x1B27 JUMP JUMPDEST SWAP2 POP PUSH2 0x16E6 DUP3 PUSH2 0x1E12 JUMP JUMPDEST PUSH1 0x20 DUP3 ADD SWAP1 POP SWAP2 SWAP1 POP JUMP JUMPDEST PUSH1 0x0 PUSH2 0x16FE PUSH1 0x1D DUP4 PUSH2 0x1B27 JUMP JUMPDEST SWAP2 POP PUSH2 0x1709 DUP3 PUSH2 0x1E3B JUMP JUMPDEST PUSH1 0x20 DUP3 ADD SWAP1 POP SWAP2 SWAP1 POP JUMP JUMPDEST PUSH1 0x0 PUSH2 0x1721 PUSH1 0x30 DUP4 PUSH2 0x1B27 JUMP JUMPDEST SWAP2 POP PUSH2 0x172C DUP3 PUSH2 0x1E64 JUMP JUMPDEST PUSH1 0x40 DUP3 ADD SWAP1 POP SWAP2 SWAP1 POP JUMP JUMPDEST PUSH1 0x0 PUSH2 0x1744 PUSH1 0x40 DUP4 PUSH2 0x1B27 JUMP JUMPDEST SWAP2 POP PUSH2 0x174F DUP3 PUSH2 0x1EB3 JUMP JUMPDEST PUSH1 0x40 DUP3 ADD SWAP1 POP SWAP2 SWAP1 POP JUMP JUMPDEST PUSH1 0x0 PUSH2 0x1767 PUSH1 0x3D DUP4 PUSH2 0x1B27 JUMP JUMPDEST SWAP2 POP PUSH2 0x1772 DUP3 PUSH2 0x1F02 JUMP JUMPDEST PUSH1 0x40 DUP3 ADD SWAP1 POP SWAP2 SWAP1 POP JUMP JUMPDEST PUSH1 0x0 PUSH2 0x178A PUSH1 0x4A DUP4 PUSH2 0x1B27 JUMP JUMPDEST SWAP2 POP PUSH2 0x1795 DUP3 PUSH2 0x1F51 JUMP JUMPDEST PUSH1 0x60 DUP3 ADD SWAP1 POP SWAP2 SWAP1 POP JUMP JUMPDEST PUSH1 0x0 PUSH2 0x17AD PUSH1 0x15 DUP4 PUSH2 0x1B27 JUMP JUMPDEST SWAP2 POP PUSH2 0x17B8 DUP3 PUSH2 0x1FC6 JUMP JUMPDEST PUSH1 0x20 DUP3 ADD SWAP1 POP SWAP2 SWAP1 POP JUMP JUMPDEST PUSH1 0x0 PUSH2 0x17D0 PUSH1 0x39 DUP4 PUSH2 0x1B27 JUMP JUMPDEST SWAP2 POP PUSH2 0x17DB DUP3 PUSH2 0x1FEF JUMP JUMPDEST PUSH1 0x40 DUP3 ADD SWAP1 POP SWAP2 SWAP1 POP JUMP JUMPDEST PUSH1 0x0 PUSH2 0x17F3 PUSH1 0x20 DUP4 PUSH2 0x1B27 JUMP JUMPDEST SWAP2 POP PUSH2 0x17FE DUP3 PUSH2 0x203E JUMP JUMPDEST PUSH1 0x20 DUP3 ADD SWAP1 POP SWAP2 SWAP1 POP JUMP JUMPDEST PUSH2 0x1812 DUP2 PUSH2 0x1B89 JUMP JUMPDEST DUP3 MSTORE POP POP JUMP JUMPDEST PUSH2 0x1821 DUP2 PUSH2 0x1B93 JUMP JUMPDEST DUP3 MSTORE POP POP JUMP JUMPDEST PUSH1 0x0 PUSH1 0x20 DUP3 ADD SWAP1 POP PUSH2 0x183C PUSH1 0x0 DUP4 ADD DUP5 PUSH2 0x166A JUMP JUMPDEST SWAP3 SWAP2 POP POP JUMP JUMPDEST PUSH1 0x0 PUSH1 0x20 DUP3 ADD SWAP1 POP PUSH2 0x1857 PUSH1 0x0 DUP4 ADD DUP5 PUSH2 0x1679 JUMP JUMPDEST SWAP3 SWAP2 POP POP JUMP JUMPDEST PUSH1 0x0 PUSH1 0x20 DUP3 ADD SWAP1 POP DUP2 DUP2 SUB PUSH1 0x0 DUP4 ADD MSTORE PUSH2 0x1876 DUP2 PUSH2 0x1688 JUMP JUMPDEST SWAP1 POP SWAP2 SWAP1 POP JUMP JUMPDEST PUSH1 0x0 PUSH1 0x20 DUP3 ADD SWAP1 POP DUP2 DUP2 SUB PUSH1 0x0 DUP4 ADD MSTORE PUSH2 0x1896 DUP2 PUSH2 0x16AB JUMP JUMPDEST SWAP1 POP SWAP2 SWAP1 POP JUMP JUMPDEST PUSH1 0x0 PUSH1 0x20 DUP3 ADD SWAP1 POP DUP2 DUP2 SUB PUSH1 0x0 DUP4 ADD MSTORE PUSH2 0x18B6 DUP2 PUSH2 0x16CE JUMP JUMPDEST SWAP1 POP SWAP2 SWAP1 POP JUMP JUMPDEST PUSH1 0x0 PUSH1 0x20 DUP3 ADD SWAP1 POP DUP2 DUP2 SUB PUSH1 0x0 DUP4 ADD MSTORE PUSH2 0x18D6 DUP2 PUSH2 0x16F1 JUMP JUMPDEST SWAP1 POP SWAP2 SWAP1 POP JUMP JUMPDEST PUSH1 0x0 PUSH1 0x20 DUP3 ADD SWAP1 POP DUP2 DUP2 SUB PUSH1 0x0 DUP4 ADD MSTORE PUSH2 0x18F6 DUP2 PUSH2 0x1714 JUMP JUMPDEST SWAP1 POP SWAP2 SWAP1 POP JUMP JUMPDEST PUSH1 0x0 PUSH1 0x20 DUP3 ADD SWAP1 POP DUP2 DUP2 SUB PUSH1 0x0 DUP4 ADD MSTORE PUSH2 0x1916 DUP2 PUSH2 0x1737 JUMP JUMPDEST SWAP1 POP SWAP2 SWAP1 POP JUMP JUMPDEST PUSH1 0x0 PUSH1 0x20 DUP3 ADD SWAP1 POP DUP2 DUP2 SUB PUSH1 0x0 DUP4 ADD MSTORE PUSH2 0x1936 DUP2 PUSH2 0x175A JUMP JUMPDEST SWAP1 POP SWAP2 SWAP1 POP JUMP JUMPDEST PUSH1 0x0 PUSH1 0x20 DUP3 ADD SWAP1 POP DUP2 DUP2 SUB PUSH1 0x0 DUP4 ADD MSTORE PUSH2 0x1956 DUP2 PUSH2 0x177D JUMP JUMPDEST SWAP1 POP SWAP2 SWAP1 POP JUMP JUMPDEST PUSH1 0x0 PUSH1 0x20 DUP3 ADD SWAP1 POP DUP2 DUP2 SUB PUSH1 0x0 DUP4 ADD MSTORE PUSH2 0x1976 DUP2 PUSH2 0x17A0 JUMP JUMPDEST SWAP1 POP SWAP2 SWAP1 POP JUMP JUMPDEST PUSH1 0x0 PUSH1 0x20 DUP3 ADD SWAP1 POP DUP2 DUP2 SUB PUSH1 0x0 DUP4 ADD MSTORE PUSH2 0x1996 DUP2 PUSH2 0x17C3 JUMP JUMPDEST SWAP1 POP SWAP2 SWAP1 POP JUMP JUMPDEST PUSH1 0x0 PUSH1 0x20 DUP3 ADD SWAP1 POP DUP2 DUP2 SUB PUSH1 0x0 DUP4 ADD MSTORE PUSH2 0x19B6 DUP2 PUSH2 0x17E6 JUMP JUMPDEST SWAP1 POP SWAP2 SWAP1 POP JUMP JUMPDEST PUSH1 0x0 PUSH1 0x20 DUP3 ADD SWAP1 POP PUSH2 0x19D2 PUSH1 0x0 DUP4 ADD DUP5 PUSH2 0x1809 JUMP JUMPDEST SWAP3 SWAP2 POP POP JUMP JUMPDEST PUSH1 0x0 PUSH1 0xC0 DUP3 ADD SWAP1 POP PUSH2 0x19ED PUSH1 0x0 DUP4 ADD DUP10 PUSH2 0x1809 JUMP JUMPDEST PUSH2 0x19FA PUSH1 0x20 DUP4 ADD DUP9 PUSH2 0x1809 JUMP JUMPDEST PUSH2 0x1A07 PUSH1 0x40 DUP4 ADD DUP8 PUSH2 0x1809 JUMP JUMPDEST PUSH2 0x1A14 PUSH1 0x60 DUP4 ADD DUP7 PUSH2 0x165B JUMP JUMPDEST PUSH2 0x1A21 PUSH1 0x80 DUP4 ADD DUP6 PUSH2 0x165B JUMP JUMPDEST PUSH2 0x1A2E PUSH1 0xA0 DUP4 ADD DUP5 PUSH2 0x1809 JUMP JUMPDEST SWAP8 SWAP7 POP POP POP POP POP POP POP JUMP JUMPDEST PUSH1 0x0 PUSH1 0xA0 DUP3 ADD SWAP1 POP PUSH2 0x1A4E PUSH1 0x0 DUP4 ADD DUP9 PUSH2 0x1809 JUMP JUMPDEST PUSH2 0x1A5B PUSH1 0x20 DUP4 ADD DUP8 PUSH2 0x1809 JUMP JUMPDEST PUSH2 0x1A68 PUSH1 0x40 DUP4 ADD DUP7 PUSH2 0x1809 JUMP JUMPDEST PUSH2 0x1A75 PUSH1 0x60 DUP4 ADD DUP6 PUSH2 0x165B JUMP JUMPDEST PUSH2 0x1A82 PUSH1 0x80 DUP4 ADD DUP5 PUSH2 0x1818 JUMP JUMPDEST SWAP7 SWAP6 POP POP POP POP POP POP JUMP JUMPDEST PUSH1 0x0 PUSH1 0x80 DUP3 ADD SWAP1 POP PUSH2 0x1AA1 PUSH1 0x0 DUP4 ADD DUP8 PUSH2 0x1809 JUMP JUMPDEST PUSH2 0x1AAE PUSH1 0x20 DUP4 ADD DUP7 PUSH2 0x1809 JUMP JUMPDEST PUSH2 0x1ABB PUSH1 0x40 DUP4 ADD DUP6 PUSH2 0x1809 JUMP JUMPDEST PUSH2 0x1AC8 PUSH1 0x60 DUP4 ADD DUP5 PUSH2 0x1818 JUMP JUMPDEST SWAP6 SWAP5 POP POP POP POP POP JUMP JUMPDEST PUSH1 0x0 PUSH2 0x1ADB PUSH2 0x1AEC JUMP JUMPDEST SWAP1 POP PUSH2 0x1AE7 DUP3 DUP3 PUSH2 0x1BF3 JUMP JUMPDEST SWAP2 SWAP1 POP JUMP JUMPDEST PUSH1 0x0 PUSH1 0x40 MLOAD SWAP1 POP SWAP1 JUMP JUMPDEST PUSH1 0x0 PUSH8 0xFFFFFFFFFFFFFFFF DUP3 GT ISZERO PUSH2 0x1B11 JUMPI PUSH2 0x1B10 PUSH2 0x1CFA JUMP JUMPDEST JUMPDEST PUSH2 0x1B1A DUP3 PUSH2 0x1D3D JUMP JUMPDEST SWAP1 POP PUSH1 0x20 DUP2 ADD SWAP1 POP SWAP2 SWAP1 POP JUMP JUMPDEST PUSH1 0x0 DUP3 DUP3 MSTORE PUSH1 0x20 DUP3 ADD SWAP1 POP SWAP3 SWAP2 POP POP JUMP JUMPDEST PUSH1 0x0 PUSH2 0x1B43 DUP3 PUSH2 0x1B69 JUMP JUMPDEST SWAP1 POP SWAP2 SWAP1 POP JUMP JUMPDEST PUSH1 0x0 DUP2 ISZERO ISZERO SWAP1 POP SWAP2 SWAP1 POP JUMP JUMPDEST PUSH1 0x0 DUP2 SWAP1 POP PUSH2 0x1B64 DUP3 PUSH2 0x2067 JUMP JUMPDEST SWAP2 SWAP1 POP JUMP JUMPDEST PUSH1 0x0 PUSH20 0xFFFFFFFFFFFFFFFFFFFFFFFFFFFFFFFFFFFFFFFF DUP3 AND SWAP1 POP SWAP2 SWAP1 POP JUMP JUMPDEST PUSH1 0x0 DUP2 SWAP1 POP SWAP2 SWAP1 POP JUMP JUMPDEST PUSH1 0x0 PUSH1 0xFF DUP3 AND SWAP1 POP SWAP2 SWAP1 POP JUMP JUMPDEST PUSH1 0x0 PUSH2 0x1BAB DUP3 PUSH2 0x1B56 JUMP JUMPDEST SWAP1 POP SWAP2 SWAP1 POP JUMP JUMPDEST DUP3 DUP2 DUP4 CALLDATACOPY PUSH1 0x0 DUP4 DUP4 ADD MSTORE POP POP POP JUMP JUMPDEST PUSH1 0x0 PUSH1 0x2 DUP3 DIV SWAP1 POP PUSH1 0x1 DUP3 AND DUP1 PUSH2 0x1BD9 JUMPI PUSH1 0x7F DUP3 AND SWAP2 POP JUMPDEST PUSH1 0x20 DUP3 LT DUP2 EQ ISZERO PUSH2 0x1BED JUMPI PUSH2 0x1BEC PUSH2 0x1CCB JUMP JUMPDEST JUMPDEST POP SWAP2 SWAP1 POP JUMP JUMPDEST PUSH2 0x1BFC DUP3 PUSH2 0x1D3D JUMP JUMPDEST DUP2 ADD DUP2 DUP2 LT PUSH8 0xFFFFFFFFFFFFFFFF DUP3 GT OR ISZERO PUSH2 0x1C1B JUMPI PUSH2 0x1C1A PUSH2 0x1CFA JUMP JUMPDEST JUMPDEST DUP1 PUSH1 0x40 MSTORE POP POP POP JUMP JUMPDEST PUSH1 0x0 PUSH2 0x1C2F DUP3 PUSH2 0x1B89 JUMP JUMPDEST SWAP2 POP PUSH32 0xFFFFFFFFFFFFFFFFFFFFFFFFFFFFFFFFFFFFFFFFFFFFFFFFFFFFFFFFFFFFFFFF DUP3 EQ ISZERO PUSH2 0x1C62 JUMPI PUSH2 0x1C61 PUSH2 0x1C6D JUMP JUMPDEST JUMPDEST PUSH1 0x1 DUP3 ADD SWAP1 POP SWAP2 SWAP1 POP JUMP JUMPDEST PUSH32 0x4E487B7100000000000000000000000000000000000000000000000000000000 PUSH1 0x0 MSTORE PUSH1 0x11 PUSH1 0x4 MSTORE PUSH1 0x24 PUSH1 0x0 REVERT JUMPDEST PUSH32 0x4E487B7100000000000000000000000000000000000000000000000000000000 PUSH1 0x0 MSTORE PUSH1 0x21 PUSH1 0x4 MSTORE PUSH1 0x24 PUSH1 0x0 REVERT JUMPDEST PUSH32 0x4E487B7100000000000000000000000000000000000000000000000000000000 PUSH1 0x0 MSTORE PUSH1 0x22 PUSH1 0x4 MSTORE PUSH1 0x24 PUSH1 0x0 REVERT JUMPDEST PUSH32 0x4E487B7100000000000000000000000000000000000000000000000000000000 PUSH1 0x0 MSTORE PUSH1 0x41 PUSH1 0x4 MSTORE PUSH1 0x24 PUSH1 0x0 REVERT JUMPDEST PUSH1 0x0 DUP1 REVERT JUMPDEST PUSH1 0x0 DUP1 REVERT JUMPDEST PUSH1 0x0 DUP1 REVERT JUMPDEST PUSH1 0x0 DUP1 REVERT JUMPDEST PUSH1 0x0 PUSH1 0x1F NOT PUSH1 0x1F DUP4 ADD AND SWAP1 POP SWAP2 SWAP1 POP JUMP JUMPDEST PUSH32 0x596F752068617665206E6F7420696E707574206120726967687420766F74652E PUSH1 0x0 DUP3 ADD MSTORE PUSH32 0x20596F752063616E2065697468657220766F7465203120666F72205265717565 PUSH1 0x20 DUP3 ADD MSTORE PUSH32 0x73746572206F72203220666F722050726F76696465722E000000000000000000 PUSH1 0x40 DUP3 ADD MSTORE POP JUMP JUMPDEST PUSH32 0x596F75206861766520616C726561647920766F7465642C20796F752063616E6E PUSH1 0x0 DUP3 ADD MSTORE PUSH32 0x6F7420766F746520616761696E00000000000000000000000000000000000000 PUSH1 0x20 DUP3 ADD MSTORE POP JUMP JUMPDEST PUSH32 0x43616E6E6F74206361727279206F75742074686973206F7065726174696F6E21 PUSH1 0x0 DUP3 ADD MSTORE POP JUMP JUMPDEST PUSH32 0x5468697320436F6E666C69637420646F6573206E6F742065786973742E000000 PUSH1 0x0 DUP3 ADD MSTORE POP JUMP JUMPDEST PUSH32 0x596F7520726169736564207468697320636F6E666C6963742E20596F75206361 PUSH1 0x0 DUP3 ADD MSTORE PUSH32 0x6E6E6F7420766F7465206F6E2069742E00000000000000000000000000000000 PUSH1 0x20 DUP3 ADD MSTORE POP JUMP JUMPDEST PUSH32 0x436F6E666C6963742068617320616C7265616479206265656E20637265617465 PUSH1 0x0 DUP3 ADD MSTORE PUSH32 0x6420666F72207468697320706172746963756C6172204D696C6573746F6E652E PUSH1 0x20 DUP3 ADD MSTORE POP JUMP JUMPDEST PUSH32 0x566F74696E6720686173206E6F74206265656E20636F6D706C65746564207965 PUSH1 0x0 DUP3 ADD MSTORE PUSH32 0x742E20506C65617365207761697420666F7220697420746F20656E642E000000 PUSH1 0x20 DUP3 ADD MSTORE POP JUMP JUMPDEST PUSH32 0x4E6F742065766572796F6E652068617320766F7465642C20706C656173652070 PUSH1 0x0 DUP3 ADD MSTORE PUSH32 0x726F6D707420616C6C206F74686572206D656D62657273206F662070726F6A65 PUSH1 0x20 DUP3 ADD MSTORE PUSH32 0x637420746F20766F746500000000000000000000000000000000000000000000 PUSH1 0x40 DUP3 ADD MSTORE POP JUMP JUMPDEST PUSH32 0x4120737472696E67206973207265717569726564210000000000000000000000 PUSH1 0x0 DUP3 ADD MSTORE POP JUMP JUMPDEST PUSH32 0x596F752061726520696E766F6C76656420696E207468697320636F6E666C6963 PUSH1 0x0 DUP3 ADD MSTORE PUSH32 0x742E20596F752063616E6E6F7420766F7465206F6E2069742E00000000000000 PUSH1 0x20 DUP3 ADD MSTORE POP JUMP JUMPDEST PUSH32 0x456E6F75676820766F7465732068617665206265656E20636F6C6C6563746564 PUSH1 0x0 DUP3 ADD MSTORE POP JUMP JUMPDEST PUSH1 0x4 DUP2 LT PUSH2 0x2078 JUMPI PUSH2 0x2077 PUSH2 0x1C9C JUMP JUMPDEST JUMPDEST POP JUMP JUMPDEST PUSH2 0x2084 DUP2 PUSH2 0x1B38 JUMP JUMPDEST DUP2 EQ PUSH2 0x208F JUMPI PUSH1 0x0 DUP1 REVERT JUMPDEST POP JUMP JUMPDEST PUSH2 0x209B DUP2 PUSH2 0x1B89 JUMP JUMPDEST DUP2 EQ PUSH2 0x20A6 JUMPI PUSH1 0x0 DUP1 REVERT JUMPDEST POP JUMP JUMPDEST PUSH2 0x20B2 DUP2 PUSH2 0x1B93 JUMP JUMPDEST DUP2 EQ PUSH2 0x20BD JUMPI PUSH1 0x0 DUP1 REVERT JUMPDEST POP JUMP INVALID LOG2 PUSH5 0x6970667358 0x22 SLT KECCAK256 PC JUMP RETURNDATASIZE SWAP8 0xC6 0xD1 PUSH27 0xF751804E9247A62CA39C7DD4A341D528C19B7A124A805A3AAD6473 PUSH16 0x6C634300080700330000000000000000 "
				},
				"gasEstimates": {
					"creation": {
						"codeDepositCost": "1687600",
						"executionCost": "1771",
						"totalCost": "1689371"
					},
					"external": {
						"createConflict(uint256,uint256,uint256,string,string,address,address,uint256)": "infinite",
						"deleteConflict(uint256,uint256,uint256)": "infinite",
						"getConflictStatus(uint256,uint256,uint256)": "infinite",
						"getResults(uint256,uint256,uint256)": "infinite",
						"getVotesCollected(uint256,uint256,uint256)": "infinite",
						"getVotesforProvider(uint256,uint256,uint256)": "infinite",
						"getVotesforRequester(uint256,uint256,uint256)": "infinite",
						"startVote(uint256,uint256,uint256)": "infinite",
						"updateConflict(uint256,uint256,uint256,string,string)": "infinite",
						"voteConflict(uint256,uint256,uint256,address,uint8)": "infinite"
					},
					"internal": {
						"setState(uint256,uint256,uint256,enum States.ConflictStatus)": "24600"
					}
				},
				"methodIdentifiers": {
					"createConflict(uint256,uint256,uint256,string,string,address,address,uint256)": "e62fac27",
					"deleteConflict(uint256,uint256,uint256)": "003f489f",
					"getConflictStatus(uint256,uint256,uint256)": "cb4389ce",
					"getResults(uint256,uint256,uint256)": "0366cef2",
					"getVotesCollected(uint256,uint256,uint256)": "3c45fe31",
					"getVotesforProvider(uint256,uint256,uint256)": "9ac78879",
					"getVotesforRequester(uint256,uint256,uint256)": "e3d87718",
					"startVote(uint256,uint256,uint256)": "9c87a5e9",
					"updateConflict(uint256,uint256,uint256,string,string)": "d1e992a7",
					"voteConflict(uint256,uint256,uint256,address,uint8)": "c171bdf7"
				}
			},
			"userdoc": {
				"kind": "user",
				"methods": {},
				"version": 1
			}
		}
	}
}