{
	"contracts/Profile.sol": {
		"Profile": {
			"abi": [
				{
					"anonymous": false,
					"inputs": [
						{
							"indexed": false,
							"internalType": "bool",
							"name": "successful",
							"type": "bool"
						}
					],
					"name": "serviceCreated",
					"type": "event"
				},
				{
					"inputs": [],
					"name": "checkValidProfile",
					"outputs": [
						{
							"internalType": "bool",
							"name": "",
							"type": "bool"
						}
					],
					"stateMutability": "view",
					"type": "function"
				},
				{
					"inputs": [
						{
							"internalType": "string",
							"name": "name",
							"type": "string"
						},
						{
							"internalType": "string",
							"name": "username",
							"type": "string"
						},
						{
							"internalType": "string",
							"name": "password",
							"type": "string"
						},
						{
							"internalType": "address",
							"name": "user",
							"type": "address"
						}
					],
					"name": "createProfile",
					"outputs": [],
					"stateMutability": "nonpayable",
					"type": "function"
				},
				{
					"inputs": [],
					"name": "deleteProfile",
					"outputs": [],
					"stateMutability": "nonpayable",
					"type": "function"
				},
				{
					"inputs": [],
					"name": "getName",
					"outputs": [
						{
							"internalType": "string",
							"name": "",
							"type": "string"
						}
					],
					"stateMutability": "view",
					"type": "function"
				},
				{
					"inputs": [],
					"name": "numProfile",
					"outputs": [
						{
							"internalType": "uint256",
							"name": "",
							"type": "uint256"
						}
					],
					"stateMutability": "view",
					"type": "function"
				},
				{
					"inputs": [
						{
							"internalType": "string",
							"name": "newName",
							"type": "string"
						}
					],
					"name": "updateProfileName",
					"outputs": [],
					"stateMutability": "nonpayable",
					"type": "function"
				}
			],
			"devdoc": {
				"kind": "dev",
				"methods": {},
				"version": 1
			},
			"evm": {
				"assembly": "    /* \"contracts/Profile.sol\":124:2025  contract Profile {... */\n  mstore(0x40, 0x80)\n    /* \"contracts/Profile.sol\":850:851  0 */\n  0x00\n    /* \"contracts/Profile.sol\":822:851  uint256 public numProfile = 0 */\n  0x03\n  sstore\n    /* \"contracts/Profile.sol\":124:2025  contract Profile {... */\n  callvalue\n  dup1\n  iszero\n  tag_1\n  jumpi\n  0x00\n  dup1\n  revert\ntag_1:\n  pop\n  dataSize(sub_0)\n  dup1\n  dataOffset(sub_0)\n  0x00\n  codecopy\n  0x00\n  return\nstop\n\nsub_0: assembly {\n        /* \"contracts/Profile.sol\":124:2025  contract Profile {... */\n      mstore(0x40, 0x80)\n      callvalue\n      dup1\n      iszero\n      tag_1\n      jumpi\n      0x00\n      dup1\n      revert\n    tag_1:\n      pop\n      jumpi(tag_2, lt(calldatasize, 0x04))\n      shr(0xe0, calldataload(0x00))\n      dup1\n      0x16913469\n      eq\n      tag_3\n      jumpi\n      dup1\n      0x17d7de7c\n      eq\n      tag_4\n      jumpi\n      dup1\n      0x22a9d1bc\n      eq\n      tag_5\n      jumpi\n      dup1\n      0x3ae7dc1a\n      eq\n      tag_6\n      jumpi\n      dup1\n      0x6d4540eb\n      eq\n      tag_7\n      jumpi\n      dup1\n      0xee8b7cd9\n      eq\n      tag_8\n      jumpi\n    tag_2:\n      0x00\n      dup1\n      revert\n        /* \"contracts/Profile.sol\":822:851  uint256 public numProfile = 0 */\n    tag_3:\n      tag_9\n      tag_10\n      jump\t// in\n    tag_9:\n      mload(0x40)\n      tag_11\n      swap2\n      swap1\n      tag_12\n      jump\t// in\n    tag_11:\n      mload(0x40)\n      dup1\n      swap2\n      sub\n      swap1\n      return\n        /* \"contracts/Profile.sol\":1712:1837  function getName() external validProfile() view returns ( string memory) {... */\n    tag_4:\n      tag_13\n      tag_14\n      jump\t// in\n    tag_13:\n      mload(0x40)\n      tag_15\n      swap2\n      swap1\n      tag_16\n      jump\t// in\n    tag_15:\n      mload(0x40)\n      dup1\n      swap2\n      sub\n      swap1\n      return\n        /* \"contracts/Profile.sol\":949:1229  function createProfile(string memory name, string memory username, string memory password, address user) public {... */\n    tag_5:\n      tag_17\n      0x04\n      dup1\n      calldatasize\n      sub\n      dup2\n      add\n      swap1\n      tag_18\n      swap2\n      swap1\n      tag_19\n      jump\t// in\n    tag_18:\n      tag_20\n      jump\t// in\n    tag_17:\n      stop\n        /* \"contracts/Profile.sol\":1896:2022  function checkValidProfile() public view returns (bool) {... */\n    tag_6:\n      tag_21\n      tag_22\n      jump\t// in\n    tag_21:\n      mload(0x40)\n      tag_23\n      swap2\n      swap1\n      tag_24\n      jump\t// in\n    tag_23:\n      mload(0x40)\n      dup1\n      swap2\n      sub\n      swap1\n      return\n        /* \"contracts/Profile.sol\":1276:1381  function deleteProfile() external {... */\n    tag_7:\n      tag_25\n      tag_26\n      jump\t// in\n    tag_25:\n      stop\n        /* \"contracts/Profile.sol\":1428:1543  function updateProfileName(string memory newName) external {... */\n    tag_8:\n      tag_27\n      0x04\n      dup1\n      calldatasize\n      sub\n      dup2\n      add\n      swap1\n      tag_28\n      swap2\n      swap1\n      tag_29\n      jump\t// in\n    tag_28:\n      tag_30\n      jump\t// in\n    tag_27:\n      stop\n        /* \"contracts/Profile.sol\":822:851  uint256 public numProfile = 0 */\n    tag_10:\n      sload(0x03)\n      dup2\n      jump\t// out\n        /* \"contracts/Profile.sol\":1712:1837  function getName() external validProfile() view returns ( string memory) {... */\n    tag_14:\n        /* \"contracts/Profile.sol\":1770:1783  string memory */\n      0x60\n        /* \"contracts/Profile.sol\":1626:1630  true */\n      0x01\n        /* \"contracts/Profile.sol\":1591:1630  profileList[msg.sender].created == true */\n      iszero\n      iszero\n        /* \"contracts/Profile.sol\":1591:1602  profileList */\n      0x00\n        /* \"contracts/Profile.sol\":1591:1614  profileList[msg.sender] */\n      dup1\n        /* \"contracts/Profile.sol\":1603:1613  msg.sender */\n      caller\n        /* \"contracts/Profile.sol\":1591:1614  profileList[msg.sender] */\n      0xffffffffffffffffffffffffffffffffffffffff\n      and\n      0xffffffffffffffffffffffffffffffffffffffff\n      and\n      dup2\n      mstore\n      0x20\n      add\n      swap1\n      dup2\n      mstore\n      0x20\n      add\n      0x00\n      keccak256\n        /* \"contracts/Profile.sol\":1591:1622  profileList[msg.sender].created */\n      0x03\n      add\n      0x14\n      swap1\n      sload\n      swap1\n      0x0100\n      exp\n      swap1\n      div\n      0xff\n      and\n        /* \"contracts/Profile.sol\":1591:1630  profileList[msg.sender].created == true */\n      iszero\n      iszero\n      eq\n        /* \"contracts/Profile.sol\":1583:1631  require(profileList[msg.sender].created == true) */\n      tag_32\n      jumpi\n      0x00\n      dup1\n      revert\n    tag_32:\n        /* \"contracts/Profile.sol\":1802:1813  profileList */\n      0x00\n        /* \"contracts/Profile.sol\":1802:1825  profileList[msg.sender] */\n      dup1\n        /* \"contracts/Profile.sol\":1814:1824  msg.sender */\n      caller\n        /* \"contracts/Profile.sol\":1802:1825  profileList[msg.sender] */\n      0xffffffffffffffffffffffffffffffffffffffff\n      and\n      0xffffffffffffffffffffffffffffffffffffffff\n      and\n      dup2\n      mstore\n      0x20\n      add\n      swap1\n      dup2\n      mstore\n      0x20\n      add\n      0x00\n      keccak256\n        /* \"contracts/Profile.sol\":1802:1830  profileList[msg.sender].name */\n      0x00\n      add\n        /* \"contracts/Profile.sol\":1795:1830  return profileList[msg.sender].name */\n      dup1\n      sload\n      tag_34\n      swap1\n      tag_35\n      jump\t// in\n    tag_34:\n      dup1\n      0x1f\n      add\n      0x20\n      dup1\n      swap2\n      div\n      mul\n      0x20\n      add\n      mload(0x40)\n      swap1\n      dup2\n      add\n      0x40\n      mstore\n      dup1\n      swap3\n      swap2\n      swap1\n      dup2\n      dup2\n      mstore\n      0x20\n      add\n      dup3\n      dup1\n      sload\n      tag_36\n      swap1\n      tag_35\n      jump\t// in\n    tag_36:\n      dup1\n      iszero\n      tag_37\n      jumpi\n      dup1\n      0x1f\n      lt\n      tag_38\n      jumpi\n      0x0100\n      dup1\n      dup4\n      sload\n      div\n      mul\n      dup4\n      mstore\n      swap2\n      0x20\n      add\n      swap2\n      jump(tag_37)\n    tag_38:\n      dup3\n      add\n      swap2\n      swap1\n      0x00\n      mstore\n      keccak256(0x00, 0x20)\n      swap1\n    tag_39:\n      dup2\n      sload\n      dup2\n      mstore\n      swap1\n      0x01\n      add\n      swap1\n      0x20\n      add\n      dup1\n      dup4\n      gt\n      tag_39\n      jumpi\n      dup3\n      swap1\n      sub\n      0x1f\n      and\n      dup3\n      add\n      swap2\n    tag_37:\n      pop\n      pop\n      pop\n      pop\n      pop\n      swap1\n      pop\n        /* \"contracts/Profile.sol\":1712:1837  function getName() external validProfile() view returns ( string memory) {... */\n      swap1\n      jump\t// out\n        /* \"contracts/Profile.sol\":949:1229  function createProfile(string memory name, string memory username, string memory password, address user) public {... */\n    tag_20:\n        /* \"contracts/Profile.sol\":1071:1096  profile memory newProfile */\n      0x00\n        /* \"contracts/Profile.sol\":1099:1140  profile(name,username,password,user,true) */\n      mload(0x40)\n      dup1\n      0xa0\n      add\n      0x40\n      mstore\n      dup1\n        /* \"contracts/Profile.sol\":1107:1111  name */\n      dup7\n        /* \"contracts/Profile.sol\":1099:1140  profile(name,username,password,user,true) */\n      dup2\n      mstore\n      0x20\n      add\n        /* \"contracts/Profile.sol\":1112:1120  username */\n      dup6\n        /* \"contracts/Profile.sol\":1099:1140  profile(name,username,password,user,true) */\n      dup2\n      mstore\n      0x20\n      add\n        /* \"contracts/Profile.sol\":1121:1129  password */\n      dup5\n        /* \"contracts/Profile.sol\":1099:1140  profile(name,username,password,user,true) */\n      dup2\n      mstore\n      0x20\n      add\n        /* \"contracts/Profile.sol\":1130:1134  user */\n      dup4\n        /* \"contracts/Profile.sol\":1099:1140  profile(name,username,password,user,true) */\n      0xffffffffffffffffffffffffffffffffffffffff\n      and\n      dup2\n      mstore\n      0x20\n      add\n        /* \"contracts/Profile.sol\":1135:1139  true */\n      0x01\n        /* \"contracts/Profile.sol\":1099:1140  profile(name,username,password,user,true) */\n      iszero\n      iszero\n      dup2\n      mstore\n      pop\n        /* \"contracts/Profile.sol\":1071:1140  profile memory newProfile = profile(name,username,password,user,true) */\n      swap1\n      pop\n        /* \"contracts/Profile.sol\":1176:1186  newProfile */\n      dup1\n        /* \"contracts/Profile.sol\":1150:1161  profileList */\n      0x00\n        /* \"contracts/Profile.sol\":1150:1173  profileList[msg.sender] */\n      dup1\n        /* \"contracts/Profile.sol\":1162:1172  msg.sender */\n      caller\n        /* \"contracts/Profile.sol\":1150:1173  profileList[msg.sender] */\n      0xffffffffffffffffffffffffffffffffffffffff\n      and\n      0xffffffffffffffffffffffffffffffffffffffff\n      and\n      dup2\n      mstore\n      0x20\n      add\n      swap1\n      dup2\n      mstore\n      0x20\n      add\n      0x00\n      keccak256\n        /* \"contracts/Profile.sol\":1150:1186  profileList[msg.sender] = newProfile */\n      0x00\n      dup3\n      add\n      mload\n      dup2\n      0x00\n      add\n      swap1\n      dup1\n      mload\n      swap1\n      0x20\n      add\n      swap1\n      tag_41\n      swap3\n      swap2\n      swap1\n      tag_42\n      jump\t// in\n    tag_41:\n      pop\n      0x20\n      dup3\n      add\n      mload\n      dup2\n      0x01\n      add\n      swap1\n      dup1\n      mload\n      swap1\n      0x20\n      add\n      swap1\n      tag_43\n      swap3\n      swap2\n      swap1\n      tag_42\n      jump\t// in\n    tag_43:\n      pop\n      0x40\n      dup3\n      add\n      mload\n      dup2\n      0x02\n      add\n      swap1\n      dup1\n      mload\n      swap1\n      0x20\n      add\n      swap1\n      tag_44\n      swap3\n      swap2\n      swap1\n      tag_42\n      jump\t// in\n    tag_44:\n      pop\n      0x60\n      dup3\n      add\n      mload\n      dup2\n      0x03\n      add\n      exp(0x0100, 0x00)\n      dup2\n      sload\n      dup2\n      0xffffffffffffffffffffffffffffffffffffffff\n      mul\n      not\n      and\n      swap1\n      dup4\n      0xffffffffffffffffffffffffffffffffffffffff\n      and\n      mul\n      or\n      swap1\n      sstore\n      pop\n      0x80\n      dup3\n      add\n      mload\n      dup2\n      0x03\n      add\n      exp(0x0100, 0x14)\n      dup2\n      sload\n      dup2\n      0xff\n      mul\n      not\n      and\n      swap1\n      dup4\n      iszero\n      iszero\n      mul\n      or\n      swap1\n      sstore\n      pop\n      swap1\n      pop\n      pop\n        /* \"contracts/Profile.sol\":1209:1219  numProfile */\n      0x03\n      0x00\n        /* \"contracts/Profile.sol\":1209:1222  numProfile ++ */\n      dup2\n      sload\n      dup1\n      swap3\n      swap2\n      swap1\n      tag_45\n      swap1\n      tag_46\n      jump\t// in\n    tag_45:\n      swap2\n      swap1\n      pop\n      sstore\n        /* \"contracts/Profile.sol\":1196:1206  numProfile */\n      0x03\n        /* \"contracts/Profile.sol\":1196:1222  numProfile = numProfile ++ */\n      dup2\n      swap1\n      sstore\n      pop\n        /* \"contracts/Profile.sol\":1061:1229  {... */\n      pop\n        /* \"contracts/Profile.sol\":949:1229  function createProfile(string memory name, string memory username, string memory password, address user) public {... */\n      pop\n      pop\n      pop\n      pop\n      jump\t// out\n        /* \"contracts/Profile.sol\":1896:2022  function checkValidProfile() public view returns (bool) {... */\n    tag_22:\n        /* \"contracts/Profile.sol\":1946:1950  bool */\n      0x00\n        /* \"contracts/Profile.sol\":1969:1980  profileList */\n      dup1\n        /* \"contracts/Profile.sol\":1969:1992  profileList[msg.sender] */\n      0x00\n        /* \"contracts/Profile.sol\":1981:1991  msg.sender */\n      caller\n        /* \"contracts/Profile.sol\":1969:1992  profileList[msg.sender] */\n      0xffffffffffffffffffffffffffffffffffffffff\n      and\n      0xffffffffffffffffffffffffffffffffffffffff\n      and\n      dup2\n      mstore\n      0x20\n      add\n      swap1\n      dup2\n      mstore\n      0x20\n      add\n      0x00\n      keccak256\n        /* \"contracts/Profile.sol\":1969:2000  profileList[msg.sender].created */\n      0x03\n      add\n      0x14\n      swap1\n      sload\n      swap1\n      0x0100\n      exp\n      swap1\n      div\n      0xff\n      and\n        /* \"contracts/Profile.sol\":1969:2015  profileList[msg.sender].created ? true : false */\n      tag_48\n      jumpi\n        /* \"contracts/Profile.sol\":2010:2015  false */\n      0x00\n        /* \"contracts/Profile.sol\":1969:2015  profileList[msg.sender].created ? true : false */\n      jump(tag_49)\n    tag_48:\n        /* \"contracts/Profile.sol\":2003:2007  true */\n      0x01\n        /* \"contracts/Profile.sol\":1969:2015  profileList[msg.sender].created ? true : false */\n    tag_49:\n        /* \"contracts/Profile.sol\":1962:2015  return profileList[msg.sender].created ? true : false */\n      swap1\n      pop\n        /* \"contracts/Profile.sol\":1896:2022  function checkValidProfile() public view returns (bool) {... */\n      swap1\n      jump\t// out\n        /* \"contracts/Profile.sol\":1276:1381  function deleteProfile() external {... */\n    tag_26:\n        /* \"contracts/Profile.sol\":1354:1359  false */\n      0x00\n        /* \"contracts/Profile.sol\":1320:1331  profileList */\n      dup1\n        /* \"contracts/Profile.sol\":1320:1343  profileList[msg.sender] */\n      0x00\n        /* \"contracts/Profile.sol\":1332:1342  msg.sender */\n      caller\n        /* \"contracts/Profile.sol\":1320:1343  profileList[msg.sender] */\n      0xffffffffffffffffffffffffffffffffffffffff\n      and\n      0xffffffffffffffffffffffffffffffffffffffff\n      and\n      dup2\n      mstore\n      0x20\n      add\n      swap1\n      dup2\n      mstore\n      0x20\n      add\n      0x00\n      keccak256\n        /* \"contracts/Profile.sol\":1320:1351  profileList[msg.sender].created */\n      0x03\n      add\n      0x14\n        /* \"contracts/Profile.sol\":1320:1359  profileList[msg.sender].created = false */\n      0x0100\n      exp\n      dup2\n      sload\n      dup2\n      0xff\n      mul\n      not\n      and\n      swap1\n      dup4\n      iszero\n      iszero\n      mul\n      or\n      swap1\n      sstore\n      pop\n        /* \"contracts/Profile.sol\":1276:1381  function deleteProfile() external {... */\n      jump\t// out\n        /* \"contracts/Profile.sol\":1428:1543  function updateProfileName(string memory newName) external {... */\n    tag_30:\n        /* \"contracts/Profile.sol\":1528:1535  newName */\n      dup1\n        /* \"contracts/Profile.sol\":1497:1508  profileList */\n      0x00\n        /* \"contracts/Profile.sol\":1497:1520  profileList[msg.sender] */\n      dup1\n        /* \"contracts/Profile.sol\":1509:1519  msg.sender */\n      caller\n        /* \"contracts/Profile.sol\":1497:1520  profileList[msg.sender] */\n      0xffffffffffffffffffffffffffffffffffffffff\n      and\n      0xffffffffffffffffffffffffffffffffffffffff\n      and\n      dup2\n      mstore\n      0x20\n      add\n      swap1\n      dup2\n      mstore\n      0x20\n      add\n      0x00\n      keccak256\n        /* \"contracts/Profile.sol\":1497:1525  profileList[msg.sender].name */\n      0x00\n      add\n        /* \"contracts/Profile.sol\":1497:1535  profileList[msg.sender].name = newName */\n      swap1\n      dup1\n      mload\n      swap1\n      0x20\n      add\n      swap1\n      tag_52\n      swap3\n      swap2\n      swap1\n      tag_42\n      jump\t// in\n    tag_52:\n      pop\n        /* \"contracts/Profile.sol\":1428:1543  function updateProfileName(string memory newName) external {... */\n      pop\n      jump\t// out\n    tag_42:\n      dup3\n      dup1\n      sload\n      tag_53\n      swap1\n      tag_35\n      jump\t// in\n    tag_53:\n      swap1\n      0x00\n      mstore\n      keccak256(0x00, 0x20)\n      swap1\n      0x1f\n      add\n      0x20\n      swap1\n      div\n      dup2\n      add\n      swap3\n      dup3\n      tag_55\n      jumpi\n      0x00\n      dup6\n      sstore\n      jump(tag_54)\n    tag_55:\n      dup3\n      0x1f\n      lt\n      tag_56\n      jumpi\n      dup1\n      mload\n      not(0xff)\n      and\n      dup4\n      dup1\n      add\n      or\n      dup6\n      sstore\n      jump(tag_54)\n    tag_56:\n      dup3\n      dup1\n      add\n      0x01\n      add\n      dup6\n      sstore\n      dup3\n      iszero\n      tag_54\n      jumpi\n      swap2\n      dup3\n      add\n    tag_57:\n      dup3\n      dup2\n      gt\n      iszero\n      tag_58\n      jumpi\n      dup3\n      mload\n      dup3\n      sstore\n      swap2\n      0x20\n      add\n      swap2\n      swap1\n      0x01\n      add\n      swap1\n      jump(tag_57)\n    tag_58:\n    tag_54:\n      pop\n      swap1\n      pop\n      tag_59\n      swap2\n      swap1\n      tag_60\n      jump\t// in\n    tag_59:\n      pop\n      swap1\n      jump\t// out\n    tag_60:\n    tag_61:\n      dup1\n      dup3\n      gt\n      iszero\n      tag_62\n      jumpi\n      0x00\n      dup2\n      0x00\n      swap1\n      sstore\n      pop\n      0x01\n      add\n      jump(tag_61)\n    tag_62:\n      pop\n      swap1\n      jump\t// out\n        /* \"#utility.yul\":7:419   */\n    tag_64:\n        /* \"#utility.yul\":85:90   */\n      0x00\n        /* \"#utility.yul\":110:176   */\n      tag_66\n        /* \"#utility.yul\":126:175   */\n      tag_67\n        /* \"#utility.yul\":168:174   */\n      dup5\n        /* \"#utility.yul\":126:175   */\n      tag_68\n      jump\t// in\n    tag_67:\n        /* \"#utility.yul\":110:176   */\n      tag_69\n      jump\t// in\n    tag_66:\n        /* \"#utility.yul\":101:176   */\n      swap1\n      pop\n        /* \"#utility.yul\":199:205   */\n      dup3\n        /* \"#utility.yul\":192:197   */\n      dup2\n        /* \"#utility.yul\":185:206   */\n      mstore\n        /* \"#utility.yul\":237:241   */\n      0x20\n        /* \"#utility.yul\":230:235   */\n      dup2\n        /* \"#utility.yul\":226:242   */\n      add\n        /* \"#utility.yul\":275:278   */\n      dup5\n        /* \"#utility.yul\":266:272   */\n      dup5\n        /* \"#utility.yul\":261:264   */\n      dup5\n        /* \"#utility.yul\":257:273   */\n      add\n        /* \"#utility.yul\":254:279   */\n      gt\n        /* \"#utility.yul\":251:363   */\n      iszero\n      tag_70\n      jumpi\n        /* \"#utility.yul\":282:361   */\n      tag_71\n      tag_72\n      jump\t// in\n    tag_71:\n        /* \"#utility.yul\":251:363   */\n    tag_70:\n        /* \"#utility.yul\":372:413   */\n      tag_73\n        /* \"#utility.yul\":406:412   */\n      dup5\n        /* \"#utility.yul\":401:404   */\n      dup3\n        /* \"#utility.yul\":396:399   */\n      dup6\n        /* \"#utility.yul\":372:413   */\n      tag_74\n      jump\t// in\n    tag_73:\n        /* \"#utility.yul\":91:419   */\n      pop\n        /* \"#utility.yul\":7:419   */\n      swap4\n      swap3\n      pop\n      pop\n      pop\n      jump\t// out\n        /* \"#utility.yul\":425:564   */\n    tag_75:\n        /* \"#utility.yul\":471:476   */\n      0x00\n        /* \"#utility.yul\":509:515   */\n      dup2\n        /* \"#utility.yul\":496:516   */\n      calldataload\n        /* \"#utility.yul\":487:516   */\n      swap1\n      pop\n        /* \"#utility.yul\":525:558   */\n      tag_77\n        /* \"#utility.yul\":552:557   */\n      dup2\n        /* \"#utility.yul\":525:558   */\n      tag_78\n      jump\t// in\n    tag_77:\n        /* \"#utility.yul\":425:564   */\n      swap3\n      swap2\n      pop\n      pop\n      jump\t// out\n        /* \"#utility.yul\":584:924   */\n    tag_79:\n        /* \"#utility.yul\":640:645   */\n      0x00\n        /* \"#utility.yul\":689:692   */\n      dup3\n        /* \"#utility.yul\":682:686   */\n      0x1f\n        /* \"#utility.yul\":674:680   */\n      dup4\n        /* \"#utility.yul\":670:687   */\n      add\n        /* \"#utility.yul\":666:693   */\n      slt\n        /* \"#utility.yul\":656:778   */\n      tag_81\n      jumpi\n        /* \"#utility.yul\":697:776   */\n      tag_82\n      tag_83\n      jump\t// in\n    tag_82:\n        /* \"#utility.yul\":656:778   */\n    tag_81:\n        /* \"#utility.yul\":814:820   */\n      dup2\n        /* \"#utility.yul\":801:821   */\n      calldataload\n        /* \"#utility.yul\":839:918   */\n      tag_84\n        /* \"#utility.yul\":914:917   */\n      dup5\n        /* \"#utility.yul\":906:912   */\n      dup3\n        /* \"#utility.yul\":899:903   */\n      0x20\n        /* \"#utility.yul\":891:897   */\n      dup7\n        /* \"#utility.yul\":887:904   */\n      add\n        /* \"#utility.yul\":839:918   */\n      tag_64\n      jump\t// in\n    tag_84:\n        /* \"#utility.yul\":830:918   */\n      swap2\n      pop\n        /* \"#utility.yul\":646:924   */\n      pop\n        /* \"#utility.yul\":584:924   */\n      swap3\n      swap2\n      pop\n      pop\n      jump\t// out\n        /* \"#utility.yul\":930:1439   */\n    tag_29:\n        /* \"#utility.yul\":999:1005   */\n      0x00\n        /* \"#utility.yul\":1048:1050   */\n      0x20\n        /* \"#utility.yul\":1036:1045   */\n      dup3\n        /* \"#utility.yul\":1027:1034   */\n      dup5\n        /* \"#utility.yul\":1023:1046   */\n      sub\n        /* \"#utility.yul\":1019:1051   */\n      slt\n        /* \"#utility.yul\":1016:1135   */\n      iszero\n      tag_86\n      jumpi\n        /* \"#utility.yul\":1054:1133   */\n      tag_87\n      tag_88\n      jump\t// in\n    tag_87:\n        /* \"#utility.yul\":1016:1135   */\n    tag_86:\n        /* \"#utility.yul\":1202:1203   */\n      0x00\n        /* \"#utility.yul\":1191:1200   */\n      dup3\n        /* \"#utility.yul\":1187:1204   */\n      add\n        /* \"#utility.yul\":1174:1205   */\n      calldataload\n        /* \"#utility.yul\":1232:1250   */\n      0xffffffffffffffff\n        /* \"#utility.yul\":1224:1230   */\n      dup2\n        /* \"#utility.yul\":1221:1251   */\n      gt\n        /* \"#utility.yul\":1218:1335   */\n      iszero\n      tag_89\n      jumpi\n        /* \"#utility.yul\":1254:1333   */\n      tag_90\n      tag_91\n      jump\t// in\n    tag_90:\n        /* \"#utility.yul\":1218:1335   */\n    tag_89:\n        /* \"#utility.yul\":1359:1422   */\n      tag_92\n        /* \"#utility.yul\":1414:1421   */\n      dup5\n        /* \"#utility.yul\":1405:1411   */\n      dup3\n        /* \"#utility.yul\":1394:1403   */\n      dup6\n        /* \"#utility.yul\":1390:1412   */\n      add\n        /* \"#utility.yul\":1359:1422   */\n      tag_79\n      jump\t// in\n    tag_92:\n        /* \"#utility.yul\":1349:1422   */\n      swap2\n      pop\n        /* \"#utility.yul\":1145:1432   */\n      pop\n        /* \"#utility.yul\":930:1439   */\n      swap3\n      swap2\n      pop\n      pop\n      jump\t// out\n        /* \"#utility.yul\":1445:2750   */\n    tag_19:\n        /* \"#utility.yul\":1561:1567   */\n      0x00\n        /* \"#utility.yul\":1569:1575   */\n      dup1\n        /* \"#utility.yul\":1577:1583   */\n      0x00\n        /* \"#utility.yul\":1585:1591   */\n      dup1\n        /* \"#utility.yul\":1634:1637   */\n      0x80\n        /* \"#utility.yul\":1622:1631   */\n      dup6\n        /* \"#utility.yul\":1613:1620   */\n      dup8\n        /* \"#utility.yul\":1609:1632   */\n      sub\n        /* \"#utility.yul\":1605:1638   */\n      slt\n        /* \"#utility.yul\":1602:1722   */\n      iszero\n      tag_94\n      jumpi\n        /* \"#utility.yul\":1641:1720   */\n      tag_95\n      tag_88\n      jump\t// in\n    tag_95:\n        /* \"#utility.yul\":1602:1722   */\n    tag_94:\n        /* \"#utility.yul\":1789:1790   */\n      0x00\n        /* \"#utility.yul\":1778:1787   */\n      dup6\n        /* \"#utility.yul\":1774:1791   */\n      add\n        /* \"#utility.yul\":1761:1792   */\n      calldataload\n        /* \"#utility.yul\":1819:1837   */\n      0xffffffffffffffff\n        /* \"#utility.yul\":1811:1817   */\n      dup2\n        /* \"#utility.yul\":1808:1838   */\n      gt\n        /* \"#utility.yul\":1805:1922   */\n      iszero\n      tag_96\n      jumpi\n        /* \"#utility.yul\":1841:1920   */\n      tag_97\n      tag_91\n      jump\t// in\n    tag_97:\n        /* \"#utility.yul\":1805:1922   */\n    tag_96:\n        /* \"#utility.yul\":1946:2009   */\n      tag_98\n        /* \"#utility.yul\":2001:2008   */\n      dup8\n        /* \"#utility.yul\":1992:1998   */\n      dup3\n        /* \"#utility.yul\":1981:1990   */\n      dup9\n        /* \"#utility.yul\":1977:1999   */\n      add\n        /* \"#utility.yul\":1946:2009   */\n      tag_79\n      jump\t// in\n    tag_98:\n        /* \"#utility.yul\":1936:2009   */\n      swap5\n      pop\n        /* \"#utility.yul\":1732:2019   */\n      pop\n        /* \"#utility.yul\":2086:2088   */\n      0x20\n        /* \"#utility.yul\":2075:2084   */\n      dup6\n        /* \"#utility.yul\":2071:2089   */\n      add\n        /* \"#utility.yul\":2058:2090   */\n      calldataload\n        /* \"#utility.yul\":2117:2135   */\n      0xffffffffffffffff\n        /* \"#utility.yul\":2109:2115   */\n      dup2\n        /* \"#utility.yul\":2106:2136   */\n      gt\n        /* \"#utility.yul\":2103:2220   */\n      iszero\n      tag_99\n      jumpi\n        /* \"#utility.yul\":2139:2218   */\n      tag_100\n      tag_91\n      jump\t// in\n    tag_100:\n        /* \"#utility.yul\":2103:2220   */\n    tag_99:\n        /* \"#utility.yul\":2244:2307   */\n      tag_101\n        /* \"#utility.yul\":2299:2306   */\n      dup8\n        /* \"#utility.yul\":2290:2296   */\n      dup3\n        /* \"#utility.yul\":2279:2288   */\n      dup9\n        /* \"#utility.yul\":2275:2297   */\n      add\n        /* \"#utility.yul\":2244:2307   */\n      tag_79\n      jump\t// in\n    tag_101:\n        /* \"#utility.yul\":2234:2307   */\n      swap4\n      pop\n        /* \"#utility.yul\":2029:2317   */\n      pop\n        /* \"#utility.yul\":2384:2386   */\n      0x40\n        /* \"#utility.yul\":2373:2382   */\n      dup6\n        /* \"#utility.yul\":2369:2387   */\n      add\n        /* \"#utility.yul\":2356:2388   */\n      calldataload\n        /* \"#utility.yul\":2415:2433   */\n      0xffffffffffffffff\n        /* \"#utility.yul\":2407:2413   */\n      dup2\n        /* \"#utility.yul\":2404:2434   */\n      gt\n        /* \"#utility.yul\":2401:2518   */\n      iszero\n      tag_102\n      jumpi\n        /* \"#utility.yul\":2437:2516   */\n      tag_103\n      tag_91\n      jump\t// in\n    tag_103:\n        /* \"#utility.yul\":2401:2518   */\n    tag_102:\n        /* \"#utility.yul\":2542:2605   */\n      tag_104\n        /* \"#utility.yul\":2597:2604   */\n      dup8\n        /* \"#utility.yul\":2588:2594   */\n      dup3\n        /* \"#utility.yul\":2577:2586   */\n      dup9\n        /* \"#utility.yul\":2573:2595   */\n      add\n        /* \"#utility.yul\":2542:2605   */\n      tag_79\n      jump\t// in\n    tag_104:\n        /* \"#utility.yul\":2532:2605   */\n      swap3\n      pop\n        /* \"#utility.yul\":2327:2615   */\n      pop\n        /* \"#utility.yul\":2654:2656   */\n      0x60\n        /* \"#utility.yul\":2680:2733   */\n      tag_105\n        /* \"#utility.yul\":2725:2732   */\n      dup8\n        /* \"#utility.yul\":2716:2722   */\n      dup3\n        /* \"#utility.yul\":2705:2714   */\n      dup9\n        /* \"#utility.yul\":2701:2723   */\n      add\n        /* \"#utility.yul\":2680:2733   */\n      tag_75\n      jump\t// in\n    tag_105:\n        /* \"#utility.yul\":2670:2733   */\n      swap2\n      pop\n        /* \"#utility.yul\":2625:2743   */\n      pop\n        /* \"#utility.yul\":1445:2750   */\n      swap3\n      swap6\n      swap2\n      swap5\n      pop\n      swap3\n      pop\n      jump\t// out\n        /* \"#utility.yul\":2756:2865   */\n    tag_106:\n        /* \"#utility.yul\":2837:2858   */\n      tag_108\n        /* \"#utility.yul\":2852:2857   */\n      dup2\n        /* \"#utility.yul\":2837:2858   */\n      tag_109\n      jump\t// in\n    tag_108:\n        /* \"#utility.yul\":2832:2835   */\n      dup3\n        /* \"#utility.yul\":2825:2859   */\n      mstore\n        /* \"#utility.yul\":2756:2865   */\n      pop\n      pop\n      jump\t// out\n        /* \"#utility.yul\":2871:3235   */\n    tag_110:\n        /* \"#utility.yul\":2959:2962   */\n      0x00\n        /* \"#utility.yul\":2987:3026   */\n      tag_112\n        /* \"#utility.yul\":3020:3025   */\n      dup3\n        /* \"#utility.yul\":2987:3026   */\n      tag_113\n      jump\t// in\n    tag_112:\n        /* \"#utility.yul\":3042:3113   */\n      tag_114\n        /* \"#utility.yul\":3106:3112   */\n      dup2\n        /* \"#utility.yul\":3101:3104   */\n      dup6\n        /* \"#utility.yul\":3042:3113   */\n      tag_115\n      jump\t// in\n    tag_114:\n        /* \"#utility.yul\":3035:3113   */\n      swap4\n      pop\n        /* \"#utility.yul\":3122:3174   */\n      tag_116\n        /* \"#utility.yul\":3167:3173   */\n      dup2\n        /* \"#utility.yul\":3162:3165   */\n      dup6\n        /* \"#utility.yul\":3155:3159   */\n      0x20\n        /* \"#utility.yul\":3148:3153   */\n      dup7\n        /* \"#utility.yul\":3144:3160   */\n      add\n        /* \"#utility.yul\":3122:3174   */\n      tag_117\n      jump\t// in\n    tag_116:\n        /* \"#utility.yul\":3199:3228   */\n      tag_118\n        /* \"#utility.yul\":3221:3227   */\n      dup2\n        /* \"#utility.yul\":3199:3228   */\n      tag_119\n      jump\t// in\n    tag_118:\n        /* \"#utility.yul\":3194:3197   */\n      dup5\n        /* \"#utility.yul\":3190:3229   */\n      add\n        /* \"#utility.yul\":3183:3229   */\n      swap2\n      pop\n        /* \"#utility.yul\":2963:3235   */\n      pop\n        /* \"#utility.yul\":2871:3235   */\n      swap3\n      swap2\n      pop\n      pop\n      jump\t// out\n        /* \"#utility.yul\":3241:3359   */\n    tag_120:\n        /* \"#utility.yul\":3328:3352   */\n      tag_122\n        /* \"#utility.yul\":3346:3351   */\n      dup2\n        /* \"#utility.yul\":3328:3352   */\n      tag_123\n      jump\t// in\n    tag_122:\n        /* \"#utility.yul\":3323:3326   */\n      dup3\n        /* \"#utility.yul\":3316:3353   */\n      mstore\n        /* \"#utility.yul\":3241:3359   */\n      pop\n      pop\n      jump\t// out\n        /* \"#utility.yul\":3365:3575   */\n    tag_24:\n        /* \"#utility.yul\":3452:3456   */\n      0x00\n        /* \"#utility.yul\":3490:3492   */\n      0x20\n        /* \"#utility.yul\":3479:3488   */\n      dup3\n        /* \"#utility.yul\":3475:3493   */\n      add\n        /* \"#utility.yul\":3467:3493   */\n      swap1\n      pop\n        /* \"#utility.yul\":3503:3568   */\n      tag_125\n        /* \"#utility.yul\":3565:3566   */\n      0x00\n        /* \"#utility.yul\":3554:3563   */\n      dup4\n        /* \"#utility.yul\":3550:3567   */\n      add\n        /* \"#utility.yul\":3541:3547   */\n      dup5\n        /* \"#utility.yul\":3503:3568   */\n      tag_106\n      jump\t// in\n    tag_125:\n        /* \"#utility.yul\":3365:3575   */\n      swap3\n      swap2\n      pop\n      pop\n      jump\t// out\n        /* \"#utility.yul\":3581:3894   */\n    tag_16:\n        /* \"#utility.yul\":3694:3698   */\n      0x00\n        /* \"#utility.yul\":3732:3734   */\n      0x20\n        /* \"#utility.yul\":3721:3730   */\n      dup3\n        /* \"#utility.yul\":3717:3735   */\n      add\n        /* \"#utility.yul\":3709:3735   */\n      swap1\n      pop\n        /* \"#utility.yul\":3781:3790   */\n      dup2\n        /* \"#utility.yul\":3775:3779   */\n      dup2\n        /* \"#utility.yul\":3771:3791   */\n      sub\n        /* \"#utility.yul\":3767:3768   */\n      0x00\n        /* \"#utility.yul\":3756:3765   */\n      dup4\n        /* \"#utility.yul\":3752:3769   */\n      add\n        /* \"#utility.yul\":3745:3792   */\n      mstore\n        /* \"#utility.yul\":3809:3887   */\n      tag_127\n        /* \"#utility.yul\":3882:3886   */\n      dup2\n        /* \"#utility.yul\":3873:3879   */\n      dup5\n        /* \"#utility.yul\":3809:3887   */\n      tag_110\n      jump\t// in\n    tag_127:\n        /* \"#utility.yul\":3801:3887   */\n      swap1\n      pop\n        /* \"#utility.yul\":3581:3894   */\n      swap3\n      swap2\n      pop\n      pop\n      jump\t// out\n        /* \"#utility.yul\":3900:4122   */\n    tag_12:\n        /* \"#utility.yul\":3993:3997   */\n      0x00\n        /* \"#utility.yul\":4031:4033   */\n      0x20\n        /* \"#utility.yul\":4020:4029   */\n      dup3\n        /* \"#utility.yul\":4016:4034   */\n      add\n        /* \"#utility.yul\":4008:4034   */\n      swap1\n      pop\n        /* \"#utility.yul\":4044:4115   */\n      tag_129\n        /* \"#utility.yul\":4112:4113   */\n      0x00\n        /* \"#utility.yul\":4101:4110   */\n      dup4\n        /* \"#utility.yul\":4097:4114   */\n      add\n        /* \"#utility.yul\":4088:4094   */\n      dup5\n        /* \"#utility.yul\":4044:4115   */\n      tag_120\n      jump\t// in\n    tag_129:\n        /* \"#utility.yul\":3900:4122   */\n      swap3\n      swap2\n      pop\n      pop\n      jump\t// out\n        /* \"#utility.yul\":4128:4257   */\n    tag_69:\n        /* \"#utility.yul\":4162:4168   */\n      0x00\n        /* \"#utility.yul\":4189:4209   */\n      tag_131\n      tag_132\n      jump\t// in\n    tag_131:\n        /* \"#utility.yul\":4179:4209   */\n      swap1\n      pop\n        /* \"#utility.yul\":4218:4251   */\n      tag_133\n        /* \"#utility.yul\":4246:4250   */\n      dup3\n        /* \"#utility.yul\":4238:4244   */\n      dup3\n        /* \"#utility.yul\":4218:4251   */\n      tag_134\n      jump\t// in\n    tag_133:\n        /* \"#utility.yul\":4128:4257   */\n      swap2\n      swap1\n      pop\n      jump\t// out\n        /* \"#utility.yul\":4263:4338   */\n    tag_132:\n        /* \"#utility.yul\":4296:4302   */\n      0x00\n        /* \"#utility.yul\":4329:4331   */\n      0x40\n        /* \"#utility.yul\":4323:4332   */\n      mload\n        /* \"#utility.yul\":4313:4332   */\n      swap1\n      pop\n        /* \"#utility.yul\":4263:4338   */\n      swap1\n      jump\t// out\n        /* \"#utility.yul\":4344:4652   */\n    tag_68:\n        /* \"#utility.yul\":4406:4410   */\n      0x00\n        /* \"#utility.yul\":4496:4514   */\n      0xffffffffffffffff\n        /* \"#utility.yul\":4488:4494   */\n      dup3\n        /* \"#utility.yul\":4485:4515   */\n      gt\n        /* \"#utility.yul\":4482:4538   */\n      iszero\n      tag_137\n      jumpi\n        /* \"#utility.yul\":4518:4536   */\n      tag_138\n      tag_139\n      jump\t// in\n    tag_138:\n        /* \"#utility.yul\":4482:4538   */\n    tag_137:\n        /* \"#utility.yul\":4556:4585   */\n      tag_140\n        /* \"#utility.yul\":4578:4584   */\n      dup3\n        /* \"#utility.yul\":4556:4585   */\n      tag_119\n      jump\t// in\n    tag_140:\n        /* \"#utility.yul\":4548:4585   */\n      swap1\n      pop\n        /* \"#utility.yul\":4640:4644   */\n      0x20\n        /* \"#utility.yul\":4634:4638   */\n      dup2\n        /* \"#utility.yul\":4630:4645   */\n      add\n        /* \"#utility.yul\":4622:4645   */\n      swap1\n      pop\n        /* \"#utility.yul\":4344:4652   */\n      swap2\n      swap1\n      pop\n      jump\t// out\n        /* \"#utility.yul\":4658:4757   */\n    tag_113:\n        /* \"#utility.yul\":4710:4716   */\n      0x00\n        /* \"#utility.yul\":4744:4749   */\n      dup2\n        /* \"#utility.yul\":4738:4750   */\n      mload\n        /* \"#utility.yul\":4728:4750   */\n      swap1\n      pop\n        /* \"#utility.yul\":4658:4757   */\n      swap2\n      swap1\n      pop\n      jump\t// out\n        /* \"#utility.yul\":4763:4932   */\n    tag_115:\n        /* \"#utility.yul\":4847:4858   */\n      0x00\n        /* \"#utility.yul\":4881:4887   */\n      dup3\n        /* \"#utility.yul\":4876:4879   */\n      dup3\n        /* \"#utility.yul\":4869:4888   */\n      mstore\n        /* \"#utility.yul\":4921:4925   */\n      0x20\n        /* \"#utility.yul\":4916:4919   */\n      dup3\n        /* \"#utility.yul\":4912:4926   */\n      add\n        /* \"#utility.yul\":4897:4926   */\n      swap1\n      pop\n        /* \"#utility.yul\":4763:4932   */\n      swap3\n      swap2\n      pop\n      pop\n      jump\t// out\n        /* \"#utility.yul\":4938:5034   */\n    tag_143:\n        /* \"#utility.yul\":4975:4982   */\n      0x00\n        /* \"#utility.yul\":5004:5028   */\n      tag_145\n        /* \"#utility.yul\":5022:5027   */\n      dup3\n        /* \"#utility.yul\":5004:5028   */\n      tag_146\n      jump\t// in\n    tag_145:\n        /* \"#utility.yul\":4993:5028   */\n      swap1\n      pop\n        /* \"#utility.yul\":4938:5034   */\n      swap2\n      swap1\n      pop\n      jump\t// out\n        /* \"#utility.yul\":5040:5130   */\n    tag_109:\n        /* \"#utility.yul\":5074:5081   */\n      0x00\n        /* \"#utility.yul\":5117:5122   */\n      dup2\n        /* \"#utility.yul\":5110:5123   */\n      iszero\n        /* \"#utility.yul\":5103:5124   */\n      iszero\n        /* \"#utility.yul\":5092:5124   */\n      swap1\n      pop\n        /* \"#utility.yul\":5040:5130   */\n      swap2\n      swap1\n      pop\n      jump\t// out\n        /* \"#utility.yul\":5136:5262   */\n    tag_146:\n        /* \"#utility.yul\":5173:5180   */\n      0x00\n        /* \"#utility.yul\":5213:5255   */\n      0xffffffffffffffffffffffffffffffffffffffff\n        /* \"#utility.yul\":5206:5211   */\n      dup3\n        /* \"#utility.yul\":5202:5256   */\n      and\n        /* \"#utility.yul\":5191:5256   */\n      swap1\n      pop\n        /* \"#utility.yul\":5136:5262   */\n      swap2\n      swap1\n      pop\n      jump\t// out\n        /* \"#utility.yul\":5268:5345   */\n    tag_123:\n        /* \"#utility.yul\":5305:5312   */\n      0x00\n        /* \"#utility.yul\":5334:5339   */\n      dup2\n        /* \"#utility.yul\":5323:5339   */\n      swap1\n      pop\n        /* \"#utility.yul\":5268:5345   */\n      swap2\n      swap1\n      pop\n      jump\t// out\n        /* \"#utility.yul\":5351:5505   */\n    tag_74:\n        /* \"#utility.yul\":5435:5441   */\n      dup3\n        /* \"#utility.yul\":5430:5433   */\n      dup2\n        /* \"#utility.yul\":5425:5428   */\n      dup4\n        /* \"#utility.yul\":5412:5442   */\n      calldatacopy\n        /* \"#utility.yul\":5497:5498   */\n      0x00\n        /* \"#utility.yul\":5488:5494   */\n      dup4\n        /* \"#utility.yul\":5483:5486   */\n      dup4\n        /* \"#utility.yul\":5479:5495   */\n      add\n        /* \"#utility.yul\":5472:5499   */\n      mstore\n        /* \"#utility.yul\":5351:5505   */\n      pop\n      pop\n      pop\n      jump\t// out\n        /* \"#utility.yul\":5511:5818   */\n    tag_117:\n        /* \"#utility.yul\":5579:5580   */\n      0x00\n        /* \"#utility.yul\":5589:5702   */\n    tag_152:\n        /* \"#utility.yul\":5603:5609   */\n      dup4\n        /* \"#utility.yul\":5600:5601   */\n      dup2\n        /* \"#utility.yul\":5597:5610   */\n      lt\n        /* \"#utility.yul\":5589:5702   */\n      iszero\n      tag_154\n      jumpi\n        /* \"#utility.yul\":5688:5689   */\n      dup1\n        /* \"#utility.yul\":5683:5686   */\n      dup3\n        /* \"#utility.yul\":5679:5690   */\n      add\n        /* \"#utility.yul\":5673:5691   */\n      mload\n        /* \"#utility.yul\":5669:5670   */\n      dup2\n        /* \"#utility.yul\":5664:5667   */\n      dup5\n        /* \"#utility.yul\":5660:5671   */\n      add\n        /* \"#utility.yul\":5653:5692   */\n      mstore\n        /* \"#utility.yul\":5625:5627   */\n      0x20\n        /* \"#utility.yul\":5622:5623   */\n      dup2\n        /* \"#utility.yul\":5618:5628   */\n      add\n        /* \"#utility.yul\":5613:5628   */\n      swap1\n      pop\n        /* \"#utility.yul\":5589:5702   */\n      jump(tag_152)\n    tag_154:\n        /* \"#utility.yul\":5720:5726   */\n      dup4\n        /* \"#utility.yul\":5717:5718   */\n      dup2\n        /* \"#utility.yul\":5714:5727   */\n      gt\n        /* \"#utility.yul\":5711:5812   */\n      iszero\n      tag_155\n      jumpi\n        /* \"#utility.yul\":5800:5801   */\n      0x00\n        /* \"#utility.yul\":5791:5797   */\n      dup5\n        /* \"#utility.yul\":5786:5789   */\n      dup5\n        /* \"#utility.yul\":5782:5798   */\n      add\n        /* \"#utility.yul\":5775:5802   */\n      mstore\n        /* \"#utility.yul\":5711:5812   */\n    tag_155:\n        /* \"#utility.yul\":5560:5818   */\n      pop\n        /* \"#utility.yul\":5511:5818   */\n      pop\n      pop\n      pop\n      jump\t// out\n        /* \"#utility.yul\":5824:6144   */\n    tag_35:\n        /* \"#utility.yul\":5868:5874   */\n      0x00\n        /* \"#utility.yul\":5905:5906   */\n      0x02\n        /* \"#utility.yul\":5899:5903   */\n      dup3\n        /* \"#utility.yul\":5895:5907   */\n      div\n        /* \"#utility.yul\":5885:5907   */\n      swap1\n      pop\n        /* \"#utility.yul\":5952:5953   */\n      0x01\n        /* \"#utility.yul\":5946:5950   */\n      dup3\n        /* \"#utility.yul\":5942:5954   */\n      and\n        /* \"#utility.yul\":5973:5991   */\n      dup1\n        /* \"#utility.yul\":5963:6044   */\n      tag_157\n      jumpi\n        /* \"#utility.yul\":6029:6033   */\n      0x7f\n        /* \"#utility.yul\":6021:6027   */\n      dup3\n        /* \"#utility.yul\":6017:6034   */\n      and\n        /* \"#utility.yul\":6007:6034   */\n      swap2\n      pop\n        /* \"#utility.yul\":5963:6044   */\n    tag_157:\n        /* \"#utility.yul\":6091:6093   */\n      0x20\n        /* \"#utility.yul\":6083:6089   */\n      dup3\n        /* \"#utility.yul\":6080:6094   */\n      lt\n        /* \"#utility.yul\":6060:6078   */\n      dup2\n        /* \"#utility.yul\":6057:6095   */\n      eq\n        /* \"#utility.yul\":6054:6138   */\n      iszero\n      tag_158\n      jumpi\n        /* \"#utility.yul\":6110:6128   */\n      tag_159\n      tag_160\n      jump\t// in\n    tag_159:\n        /* \"#utility.yul\":6054:6138   */\n    tag_158:\n        /* \"#utility.yul\":5875:6144   */\n      pop\n        /* \"#utility.yul\":5824:6144   */\n      swap2\n      swap1\n      pop\n      jump\t// out\n        /* \"#utility.yul\":6150:6431   */\n    tag_134:\n        /* \"#utility.yul\":6233:6260   */\n      tag_162\n        /* \"#utility.yul\":6255:6259   */\n      dup3\n        /* \"#utility.yul\":6233:6260   */\n      tag_119\n      jump\t// in\n    tag_162:\n        /* \"#utility.yul\":6225:6231   */\n      dup2\n        /* \"#utility.yul\":6221:6261   */\n      add\n        /* \"#utility.yul\":6363:6369   */\n      dup2\n        /* \"#utility.yul\":6351:6361   */\n      dup2\n        /* \"#utility.yul\":6348:6370   */\n      lt\n        /* \"#utility.yul\":6327:6345   */\n      0xffffffffffffffff\n        /* \"#utility.yul\":6315:6325   */\n      dup3\n        /* \"#utility.yul\":6312:6346   */\n      gt\n        /* \"#utility.yul\":6309:6371   */\n      or\n        /* \"#utility.yul\":6306:6394   */\n      iszero\n      tag_163\n      jumpi\n        /* \"#utility.yul\":6374:6392   */\n      tag_164\n      tag_139\n      jump\t// in\n    tag_164:\n        /* \"#utility.yul\":6306:6394   */\n    tag_163:\n        /* \"#utility.yul\":6414:6424   */\n      dup1\n        /* \"#utility.yul\":6410:6412   */\n      0x40\n        /* \"#utility.yul\":6403:6425   */\n      mstore\n        /* \"#utility.yul\":6193:6431   */\n      pop\n        /* \"#utility.yul\":6150:6431   */\n      pop\n      pop\n      jump\t// out\n        /* \"#utility.yul\":6437:6670   */\n    tag_46:\n        /* \"#utility.yul\":6476:6479   */\n      0x00\n        /* \"#utility.yul\":6499:6523   */\n      tag_166\n        /* \"#utility.yul\":6517:6522   */\n      dup3\n        /* \"#utility.yul\":6499:6523   */\n      tag_123\n      jump\t// in\n    tag_166:\n        /* \"#utility.yul\":6490:6523   */\n      swap2\n      pop\n        /* \"#utility.yul\":6545:6611   */\n      0xffffffffffffffffffffffffffffffffffffffffffffffffffffffffffffffff\n        /* \"#utility.yul\":6538:6543   */\n      dup3\n        /* \"#utility.yul\":6535:6612   */\n      eq\n        /* \"#utility.yul\":6532:6635   */\n      iszero\n      tag_167\n      jumpi\n        /* \"#utility.yul\":6615:6633   */\n      tag_168\n      tag_169\n      jump\t// in\n    tag_168:\n        /* \"#utility.yul\":6532:6635   */\n    tag_167:\n        /* \"#utility.yul\":6662:6663   */\n      0x01\n        /* \"#utility.yul\":6655:6660   */\n      dup3\n        /* \"#utility.yul\":6651:6664   */\n      add\n        /* \"#utility.yul\":6644:6664   */\n      swap1\n      pop\n        /* \"#utility.yul\":6437:6670   */\n      swap2\n      swap1\n      pop\n      jump\t// out\n        /* \"#utility.yul\":6676:6856   */\n    tag_169:\n        /* \"#utility.yul\":6724:6801   */\n      0x4e487b7100000000000000000000000000000000000000000000000000000000\n        /* \"#utility.yul\":6721:6722   */\n      0x00\n        /* \"#utility.yul\":6714:6802   */\n      mstore\n        /* \"#utility.yul\":6821:6825   */\n      0x11\n        /* \"#utility.yul\":6818:6819   */\n      0x04\n        /* \"#utility.yul\":6811:6826   */\n      mstore\n        /* \"#utility.yul\":6845:6849   */\n      0x24\n        /* \"#utility.yul\":6842:6843   */\n      0x00\n        /* \"#utility.yul\":6835:6850   */\n      revert\n        /* \"#utility.yul\":6862:7042   */\n    tag_160:\n        /* \"#utility.yul\":6910:6987   */\n      0x4e487b7100000000000000000000000000000000000000000000000000000000\n        /* \"#utility.yul\":6907:6908   */\n      0x00\n        /* \"#utility.yul\":6900:6988   */\n      mstore\n        /* \"#utility.yul\":7007:7011   */\n      0x22\n        /* \"#utility.yul\":7004:7005   */\n      0x04\n        /* \"#utility.yul\":6997:7012   */\n      mstore\n        /* \"#utility.yul\":7031:7035   */\n      0x24\n        /* \"#utility.yul\":7028:7029   */\n      0x00\n        /* \"#utility.yul\":7021:7036   */\n      revert\n        /* \"#utility.yul\":7048:7228   */\n    tag_139:\n        /* \"#utility.yul\":7096:7173   */\n      0x4e487b7100000000000000000000000000000000000000000000000000000000\n        /* \"#utility.yul\":7093:7094   */\n      0x00\n        /* \"#utility.yul\":7086:7174   */\n      mstore\n        /* \"#utility.yul\":7193:7197   */\n      0x41\n        /* \"#utility.yul\":7190:7191   */\n      0x04\n        /* \"#utility.yul\":7183:7198   */\n      mstore\n        /* \"#utility.yul\":7217:7221   */\n      0x24\n        /* \"#utility.yul\":7214:7215   */\n      0x00\n        /* \"#utility.yul\":7207:7222   */\n      revert\n        /* \"#utility.yul\":7234:7351   */\n    tag_83:\n        /* \"#utility.yul\":7343:7344   */\n      0x00\n        /* \"#utility.yul\":7340:7341   */\n      dup1\n        /* \"#utility.yul\":7333:7345   */\n      revert\n        /* \"#utility.yul\":7357:7474   */\n    tag_72:\n        /* \"#utility.yul\":7466:7467   */\n      0x00\n        /* \"#utility.yul\":7463:7464   */\n      dup1\n        /* \"#utility.yul\":7456:7468   */\n      revert\n        /* \"#utility.yul\":7480:7597   */\n    tag_91:\n        /* \"#utility.yul\":7589:7590   */\n      0x00\n        /* \"#utility.yul\":7586:7587   */\n      dup1\n        /* \"#utility.yul\":7579:7591   */\n      revert\n        /* \"#utility.yul\":7603:7720   */\n    tag_88:\n        /* \"#utility.yul\":7712:7713   */\n      0x00\n        /* \"#utility.yul\":7709:7710   */\n      dup1\n        /* \"#utility.yul\":7702:7714   */\n      revert\n        /* \"#utility.yul\":7726:7828   */\n    tag_119:\n        /* \"#utility.yul\":7767:7773   */\n      0x00\n        /* \"#utility.yul\":7818:7820   */\n      0x1f\n        /* \"#utility.yul\":7814:7821   */\n      not\n        /* \"#utility.yul\":7809:7811   */\n      0x1f\n        /* \"#utility.yul\":7802:7807   */\n      dup4\n        /* \"#utility.yul\":7798:7812   */\n      add\n        /* \"#utility.yul\":7794:7822   */\n      and\n        /* \"#utility.yul\":7784:7822   */\n      swap1\n      pop\n        /* \"#utility.yul\":7726:7828   */\n      swap2\n      swap1\n      pop\n      jump\t// out\n        /* \"#utility.yul\":7834:7956   */\n    tag_78:\n        /* \"#utility.yul\":7907:7931   */\n      tag_179\n        /* \"#utility.yul\":7925:7930   */\n      dup2\n        /* \"#utility.yul\":7907:7931   */\n      tag_143\n      jump\t// in\n    tag_179:\n        /* \"#utility.yul\":7900:7905   */\n      dup2\n        /* \"#utility.yul\":7897:7932   */\n      eq\n        /* \"#utility.yul\":7887:7950   */\n      tag_180\n      jumpi\n        /* \"#utility.yul\":7946:7947   */\n      0x00\n        /* \"#utility.yul\":7943:7944   */\n      dup1\n        /* \"#utility.yul\":7936:7948   */\n      revert\n        /* \"#utility.yul\":7887:7950   */\n    tag_180:\n        /* \"#utility.yul\":7834:7956   */\n      pop\n      jump\t// out\n\n    auxdata: 0xa2646970667358221220ddf95b643cc88361ca85e27d65a2aa2f24b17e446460905a3984778e1562f0e764736f6c63430008070033\n}\n",
				"bytecode": {
					"linkReferences": {},
					"object": "6080604052600060035534801561001557600080fd5b50610a3c806100256000396000f3fe608060405234801561001057600080fd5b50600436106100625760003560e01c8063169134691461006757806317d7de7c1461008557806322a9d1bc146100a35780633ae7dc1a146100bf5780636d4540eb146100dd578063ee8b7cd9146100e7575b600080fd5b61006f610103565b60405161007c919061077a565b60405180910390f35b61008d610109565b60405161009a9190610758565b60405180910390f35b6100bd60048036038101906100b8919061062b565b610239565b005b6100c76103a1565b6040516100d4919061073d565b60405180910390f35b6100e5610405565b005b61010160048036038101906100fc91906105e2565b610461565b005b60035481565b6060600115156000803373ffffffffffffffffffffffffffffffffffffffff1673ffffffffffffffffffffffffffffffffffffffff16815260200190815260200160002060030160149054906101000a900460ff1615151461016a57600080fd5b6000803373ffffffffffffffffffffffffffffffffffffffff1673ffffffffffffffffffffffffffffffffffffffff16815260200190815260200160002060000180546101b690610891565b80601f01602080910402602001604051908101604052809291908181526020018280546101e290610891565b801561022f5780601f106102045761010080835404028352916020019161022f565b820191906000526020600020905b81548152906001019060200180831161021257829003601f168201915b5050505050905090565b60006040518060a001604052808681526020018581526020018481526020018373ffffffffffffffffffffffffffffffffffffffff168152602001600115158152509050806000803373ffffffffffffffffffffffffffffffffffffffff1673ffffffffffffffffffffffffffffffffffffffff16815260200190815260200160002060008201518160000190805190602001906102d89291906104ba565b5060208201518160010190805190602001906102f59291906104ba565b5060408201518160020190805190602001906103129291906104ba565b5060608201518160030160006101000a81548173ffffffffffffffffffffffffffffffffffffffff021916908373ffffffffffffffffffffffffffffffffffffffff16021790555060808201518160030160146101000a81548160ff02191690831515021790555090505060036000815480929190610390906108f4565b919050556003819055505050505050565b60008060003373ffffffffffffffffffffffffffffffffffffffff1673ffffffffffffffffffffffffffffffffffffffff16815260200190815260200160002060030160149054906101000a900460ff166103fd576000610400565b60015b905090565b60008060003373ffffffffffffffffffffffffffffffffffffffff1673ffffffffffffffffffffffffffffffffffffffff16815260200190815260200160002060030160146101000a81548160ff021916908315150217905550565b806000803373ffffffffffffffffffffffffffffffffffffffff1673ffffffffffffffffffffffffffffffffffffffff16815260200190815260200160002060000190805190602001906104b69291906104ba565b5050565b8280546104c690610891565b90600052602060002090601f0160209004810192826104e8576000855561052f565b82601f1061050157805160ff191683800117855561052f565b8280016001018555821561052f579182015b8281111561052e578251825591602001919060010190610513565b5b50905061053c9190610540565b5090565b5b80821115610559576000816000905550600101610541565b5090565b600061057061056b846107ba565b610795565b90508281526020810184848401111561058c5761058b6109cf565b5b61059784828561084f565b509392505050565b6000813590506105ae816109ef565b92915050565b600082601f8301126105c9576105c86109ca565b5b81356105d984826020860161055d565b91505092915050565b6000602082840312156105f8576105f76109d9565b5b600082013567ffffffffffffffff811115610616576106156109d4565b5b610622848285016105b4565b91505092915050565b60008060008060808587031215610645576106446109d9565b5b600085013567ffffffffffffffff811115610663576106626109d4565b5b61066f878288016105b4565b945050602085013567ffffffffffffffff8111156106905761068f6109d4565b5b61069c878288016105b4565b935050604085013567ffffffffffffffff8111156106bd576106bc6109d4565b5b6106c9878288016105b4565b92505060606106da8782880161059f565b91505092959194509250565b6106ef81610819565b82525050565b6000610700826107eb565b61070a81856107f6565b935061071a81856020860161085e565b610723816109de565b840191505092915050565b61073781610845565b82525050565b600060208201905061075260008301846106e6565b92915050565b6000602082019050818103600083015261077281846106f5565b905092915050565b600060208201905061078f600083018461072e565b92915050565b600061079f6107b0565b90506107ab82826108c3565b919050565b6000604051905090565b600067ffffffffffffffff8211156107d5576107d461099b565b5b6107de826109de565b9050602081019050919050565b600081519050919050565b600082825260208201905092915050565b600061081282610825565b9050919050565b60008115159050919050565b600073ffffffffffffffffffffffffffffffffffffffff82169050919050565b6000819050919050565b82818337600083830152505050565b60005b8381101561087c578082015181840152602081019050610861565b8381111561088b576000848401525b50505050565b600060028204905060018216806108a957607f821691505b602082108114156108bd576108bc61096c565b5b50919050565b6108cc826109de565b810181811067ffffffffffffffff821117156108eb576108ea61099b565b5b80604052505050565b60006108ff82610845565b91507fffffffffffffffffffffffffffffffffffffffffffffffffffffffffffffffff8214156109325761093161093d565b5b600182019050919050565b7f4e487b7100000000000000000000000000000000000000000000000000000000600052601160045260246000fd5b7f4e487b7100000000000000000000000000000000000000000000000000000000600052602260045260246000fd5b7f4e487b7100000000000000000000000000000000000000000000000000000000600052604160045260246000fd5b600080fd5b600080fd5b600080fd5b600080fd5b6000601f19601f8301169050919050565b6109f881610807565b8114610a0357600080fd5b5056fea2646970667358221220ddf95b643cc88361ca85e27d65a2aa2f24b17e446460905a3984778e1562f0e764736f6c63430008070033",
					"opcodes": "PUSH1 0x80 PUSH1 0x40 MSTORE PUSH1 0x0 PUSH1 0x3 SSTORE CALLVALUE DUP1 ISZERO PUSH2 0x15 JUMPI PUSH1 0x0 DUP1 REVERT JUMPDEST POP PUSH2 0xA3C DUP1 PUSH2 0x25 PUSH1 0x0 CODECOPY PUSH1 0x0 RETURN INVALID PUSH1 0x80 PUSH1 0x40 MSTORE CALLVALUE DUP1 ISZERO PUSH2 0x10 JUMPI PUSH1 0x0 DUP1 REVERT JUMPDEST POP PUSH1 0x4 CALLDATASIZE LT PUSH2 0x62 JUMPI PUSH1 0x0 CALLDATALOAD PUSH1 0xE0 SHR DUP1 PUSH4 0x16913469 EQ PUSH2 0x67 JUMPI DUP1 PUSH4 0x17D7DE7C EQ PUSH2 0x85 JUMPI DUP1 PUSH4 0x22A9D1BC EQ PUSH2 0xA3 JUMPI DUP1 PUSH4 0x3AE7DC1A EQ PUSH2 0xBF JUMPI DUP1 PUSH4 0x6D4540EB EQ PUSH2 0xDD JUMPI DUP1 PUSH4 0xEE8B7CD9 EQ PUSH2 0xE7 JUMPI JUMPDEST PUSH1 0x0 DUP1 REVERT JUMPDEST PUSH2 0x6F PUSH2 0x103 JUMP JUMPDEST PUSH1 0x40 MLOAD PUSH2 0x7C SWAP2 SWAP1 PUSH2 0x77A JUMP JUMPDEST PUSH1 0x40 MLOAD DUP1 SWAP2 SUB SWAP1 RETURN JUMPDEST PUSH2 0x8D PUSH2 0x109 JUMP JUMPDEST PUSH1 0x40 MLOAD PUSH2 0x9A SWAP2 SWAP1 PUSH2 0x758 JUMP JUMPDEST PUSH1 0x40 MLOAD DUP1 SWAP2 SUB SWAP1 RETURN JUMPDEST PUSH2 0xBD PUSH1 0x4 DUP1 CALLDATASIZE SUB DUP2 ADD SWAP1 PUSH2 0xB8 SWAP2 SWAP1 PUSH2 0x62B JUMP JUMPDEST PUSH2 0x239 JUMP JUMPDEST STOP JUMPDEST PUSH2 0xC7 PUSH2 0x3A1 JUMP JUMPDEST PUSH1 0x40 MLOAD PUSH2 0xD4 SWAP2 SWAP1 PUSH2 0x73D JUMP JUMPDEST PUSH1 0x40 MLOAD DUP1 SWAP2 SUB SWAP1 RETURN JUMPDEST PUSH2 0xE5 PUSH2 0x405 JUMP JUMPDEST STOP JUMPDEST PUSH2 0x101 PUSH1 0x4 DUP1 CALLDATASIZE SUB DUP2 ADD SWAP1 PUSH2 0xFC SWAP2 SWAP1 PUSH2 0x5E2 JUMP JUMPDEST PUSH2 0x461 JUMP JUMPDEST STOP JUMPDEST PUSH1 0x3 SLOAD DUP2 JUMP JUMPDEST PUSH1 0x60 PUSH1 0x1 ISZERO ISZERO PUSH1 0x0 DUP1 CALLER PUSH20 0xFFFFFFFFFFFFFFFFFFFFFFFFFFFFFFFFFFFFFFFF AND PUSH20 0xFFFFFFFFFFFFFFFFFFFFFFFFFFFFFFFFFFFFFFFF AND DUP2 MSTORE PUSH1 0x20 ADD SWAP1 DUP2 MSTORE PUSH1 0x20 ADD PUSH1 0x0 KECCAK256 PUSH1 0x3 ADD PUSH1 0x14 SWAP1 SLOAD SWAP1 PUSH2 0x100 EXP SWAP1 DIV PUSH1 0xFF AND ISZERO ISZERO EQ PUSH2 0x16A JUMPI PUSH1 0x0 DUP1 REVERT JUMPDEST PUSH1 0x0 DUP1 CALLER PUSH20 0xFFFFFFFFFFFFFFFFFFFFFFFFFFFFFFFFFFFFFFFF AND PUSH20 0xFFFFFFFFFFFFFFFFFFFFFFFFFFFFFFFFFFFFFFFF AND DUP2 MSTORE PUSH1 0x20 ADD SWAP1 DUP2 MSTORE PUSH1 0x20 ADD PUSH1 0x0 KECCAK256 PUSH1 0x0 ADD DUP1 SLOAD PUSH2 0x1B6 SWAP1 PUSH2 0x891 JUMP JUMPDEST DUP1 PUSH1 0x1F ADD PUSH1 0x20 DUP1 SWAP2 DIV MUL PUSH1 0x20 ADD PUSH1 0x40 MLOAD SWAP1 DUP2 ADD PUSH1 0x40 MSTORE DUP1 SWAP3 SWAP2 SWAP1 DUP2 DUP2 MSTORE PUSH1 0x20 ADD DUP3 DUP1 SLOAD PUSH2 0x1E2 SWAP1 PUSH2 0x891 JUMP JUMPDEST DUP1 ISZERO PUSH2 0x22F JUMPI DUP1 PUSH1 0x1F LT PUSH2 0x204 JUMPI PUSH2 0x100 DUP1 DUP4 SLOAD DIV MUL DUP4 MSTORE SWAP2 PUSH1 0x20 ADD SWAP2 PUSH2 0x22F JUMP JUMPDEST DUP3 ADD SWAP2 SWAP1 PUSH1 0x0 MSTORE PUSH1 0x20 PUSH1 0x0 KECCAK256 SWAP1 JUMPDEST DUP2 SLOAD DUP2 MSTORE SWAP1 PUSH1 0x1 ADD SWAP1 PUSH1 0x20 ADD DUP1 DUP4 GT PUSH2 0x212 JUMPI DUP3 SWAP1 SUB PUSH1 0x1F AND DUP3 ADD SWAP2 JUMPDEST POP POP POP POP POP SWAP1 POP SWAP1 JUMP JUMPDEST PUSH1 0x0 PUSH1 0x40 MLOAD DUP1 PUSH1 0xA0 ADD PUSH1 0x40 MSTORE DUP1 DUP7 DUP2 MSTORE PUSH1 0x20 ADD DUP6 DUP2 MSTORE PUSH1 0x20 ADD DUP5 DUP2 MSTORE PUSH1 0x20 ADD DUP4 PUSH20 0xFFFFFFFFFFFFFFFFFFFFFFFFFFFFFFFFFFFFFFFF AND DUP2 MSTORE PUSH1 0x20 ADD PUSH1 0x1 ISZERO ISZERO DUP2 MSTORE POP SWAP1 POP DUP1 PUSH1 0x0 DUP1 CALLER PUSH20 0xFFFFFFFFFFFFFFFFFFFFFFFFFFFFFFFFFFFFFFFF AND PUSH20 0xFFFFFFFFFFFFFFFFFFFFFFFFFFFFFFFFFFFFFFFF AND DUP2 MSTORE PUSH1 0x20 ADD SWAP1 DUP2 MSTORE PUSH1 0x20 ADD PUSH1 0x0 KECCAK256 PUSH1 0x0 DUP3 ADD MLOAD DUP2 PUSH1 0x0 ADD SWAP1 DUP1 MLOAD SWAP1 PUSH1 0x20 ADD SWAP1 PUSH2 0x2D8 SWAP3 SWAP2 SWAP1 PUSH2 0x4BA JUMP JUMPDEST POP PUSH1 0x20 DUP3 ADD MLOAD DUP2 PUSH1 0x1 ADD SWAP1 DUP1 MLOAD SWAP1 PUSH1 0x20 ADD SWAP1 PUSH2 0x2F5 SWAP3 SWAP2 SWAP1 PUSH2 0x4BA JUMP JUMPDEST POP PUSH1 0x40 DUP3 ADD MLOAD DUP2 PUSH1 0x2 ADD SWAP1 DUP1 MLOAD SWAP1 PUSH1 0x20 ADD SWAP1 PUSH2 0x312 SWAP3 SWAP2 SWAP1 PUSH2 0x4BA JUMP JUMPDEST POP PUSH1 0x60 DUP3 ADD MLOAD DUP2 PUSH1 0x3 ADD PUSH1 0x0 PUSH2 0x100 EXP DUP2 SLOAD DUP2 PUSH20 0xFFFFFFFFFFFFFFFFFFFFFFFFFFFFFFFFFFFFFFFF MUL NOT AND SWAP1 DUP4 PUSH20 0xFFFFFFFFFFFFFFFFFFFFFFFFFFFFFFFFFFFFFFFF AND MUL OR SWAP1 SSTORE POP PUSH1 0x80 DUP3 ADD MLOAD DUP2 PUSH1 0x3 ADD PUSH1 0x14 PUSH2 0x100 EXP DUP2 SLOAD DUP2 PUSH1 0xFF MUL NOT AND SWAP1 DUP4 ISZERO ISZERO MUL OR SWAP1 SSTORE POP SWAP1 POP POP PUSH1 0x3 PUSH1 0x0 DUP2 SLOAD DUP1 SWAP3 SWAP2 SWAP1 PUSH2 0x390 SWAP1 PUSH2 0x8F4 JUMP JUMPDEST SWAP2 SWAP1 POP SSTORE PUSH1 0x3 DUP2 SWAP1 SSTORE POP POP POP POP POP POP JUMP JUMPDEST PUSH1 0x0 DUP1 PUSH1 0x0 CALLER PUSH20 0xFFFFFFFFFFFFFFFFFFFFFFFFFFFFFFFFFFFFFFFF AND PUSH20 0xFFFFFFFFFFFFFFFFFFFFFFFFFFFFFFFFFFFFFFFF AND DUP2 MSTORE PUSH1 0x20 ADD SWAP1 DUP2 MSTORE PUSH1 0x20 ADD PUSH1 0x0 KECCAK256 PUSH1 0x3 ADD PUSH1 0x14 SWAP1 SLOAD SWAP1 PUSH2 0x100 EXP SWAP1 DIV PUSH1 0xFF AND PUSH2 0x3FD JUMPI PUSH1 0x0 PUSH2 0x400 JUMP JUMPDEST PUSH1 0x1 JUMPDEST SWAP1 POP SWAP1 JUMP JUMPDEST PUSH1 0x0 DUP1 PUSH1 0x0 CALLER PUSH20 0xFFFFFFFFFFFFFFFFFFFFFFFFFFFFFFFFFFFFFFFF AND PUSH20 0xFFFFFFFFFFFFFFFFFFFFFFFFFFFFFFFFFFFFFFFF AND DUP2 MSTORE PUSH1 0x20 ADD SWAP1 DUP2 MSTORE PUSH1 0x20 ADD PUSH1 0x0 KECCAK256 PUSH1 0x3 ADD PUSH1 0x14 PUSH2 0x100 EXP DUP2 SLOAD DUP2 PUSH1 0xFF MUL NOT AND SWAP1 DUP4 ISZERO ISZERO MUL OR SWAP1 SSTORE POP JUMP JUMPDEST DUP1 PUSH1 0x0 DUP1 CALLER PUSH20 0xFFFFFFFFFFFFFFFFFFFFFFFFFFFFFFFFFFFFFFFF AND PUSH20 0xFFFFFFFFFFFFFFFFFFFFFFFFFFFFFFFFFFFFFFFF AND DUP2 MSTORE PUSH1 0x20 ADD SWAP1 DUP2 MSTORE PUSH1 0x20 ADD PUSH1 0x0 KECCAK256 PUSH1 0x0 ADD SWAP1 DUP1 MLOAD SWAP1 PUSH1 0x20 ADD SWAP1 PUSH2 0x4B6 SWAP3 SWAP2 SWAP1 PUSH2 0x4BA JUMP JUMPDEST POP POP JUMP JUMPDEST DUP3 DUP1 SLOAD PUSH2 0x4C6 SWAP1 PUSH2 0x891 JUMP JUMPDEST SWAP1 PUSH1 0x0 MSTORE PUSH1 0x20 PUSH1 0x0 KECCAK256 SWAP1 PUSH1 0x1F ADD PUSH1 0x20 SWAP1 DIV DUP2 ADD SWAP3 DUP3 PUSH2 0x4E8 JUMPI PUSH1 0x0 DUP6 SSTORE PUSH2 0x52F JUMP JUMPDEST DUP3 PUSH1 0x1F LT PUSH2 0x501 JUMPI DUP1 MLOAD PUSH1 0xFF NOT AND DUP4 DUP1 ADD OR DUP6 SSTORE PUSH2 0x52F JUMP JUMPDEST DUP3 DUP1 ADD PUSH1 0x1 ADD DUP6 SSTORE DUP3 ISZERO PUSH2 0x52F JUMPI SWAP2 DUP3 ADD JUMPDEST DUP3 DUP2 GT ISZERO PUSH2 0x52E JUMPI DUP3 MLOAD DUP3 SSTORE SWAP2 PUSH1 0x20 ADD SWAP2 SWAP1 PUSH1 0x1 ADD SWAP1 PUSH2 0x513 JUMP JUMPDEST JUMPDEST POP SWAP1 POP PUSH2 0x53C SWAP2 SWAP1 PUSH2 0x540 JUMP JUMPDEST POP SWAP1 JUMP JUMPDEST JUMPDEST DUP1 DUP3 GT ISZERO PUSH2 0x559 JUMPI PUSH1 0x0 DUP2 PUSH1 0x0 SWAP1 SSTORE POP PUSH1 0x1 ADD PUSH2 0x541 JUMP JUMPDEST POP SWAP1 JUMP JUMPDEST PUSH1 0x0 PUSH2 0x570 PUSH2 0x56B DUP5 PUSH2 0x7BA JUMP JUMPDEST PUSH2 0x795 JUMP JUMPDEST SWAP1 POP DUP3 DUP2 MSTORE PUSH1 0x20 DUP2 ADD DUP5 DUP5 DUP5 ADD GT ISZERO PUSH2 0x58C JUMPI PUSH2 0x58B PUSH2 0x9CF JUMP JUMPDEST JUMPDEST PUSH2 0x597 DUP5 DUP3 DUP6 PUSH2 0x84F JUMP JUMPDEST POP SWAP4 SWAP3 POP POP POP JUMP JUMPDEST PUSH1 0x0 DUP2 CALLDATALOAD SWAP1 POP PUSH2 0x5AE DUP2 PUSH2 0x9EF JUMP JUMPDEST SWAP3 SWAP2 POP POP JUMP JUMPDEST PUSH1 0x0 DUP3 PUSH1 0x1F DUP4 ADD SLT PUSH2 0x5C9 JUMPI PUSH2 0x5C8 PUSH2 0x9CA JUMP JUMPDEST JUMPDEST DUP2 CALLDATALOAD PUSH2 0x5D9 DUP5 DUP3 PUSH1 0x20 DUP7 ADD PUSH2 0x55D JUMP JUMPDEST SWAP2 POP POP SWAP3 SWAP2 POP POP JUMP JUMPDEST PUSH1 0x0 PUSH1 0x20 DUP3 DUP5 SUB SLT ISZERO PUSH2 0x5F8 JUMPI PUSH2 0x5F7 PUSH2 0x9D9 JUMP JUMPDEST JUMPDEST PUSH1 0x0 DUP3 ADD CALLDATALOAD PUSH8 0xFFFFFFFFFFFFFFFF DUP2 GT ISZERO PUSH2 0x616 JUMPI PUSH2 0x615 PUSH2 0x9D4 JUMP JUMPDEST JUMPDEST PUSH2 0x622 DUP5 DUP3 DUP6 ADD PUSH2 0x5B4 JUMP JUMPDEST SWAP2 POP POP SWAP3 SWAP2 POP POP JUMP JUMPDEST PUSH1 0x0 DUP1 PUSH1 0x0 DUP1 PUSH1 0x80 DUP6 DUP8 SUB SLT ISZERO PUSH2 0x645 JUMPI PUSH2 0x644 PUSH2 0x9D9 JUMP JUMPDEST JUMPDEST PUSH1 0x0 DUP6 ADD CALLDATALOAD PUSH8 0xFFFFFFFFFFFFFFFF DUP2 GT ISZERO PUSH2 0x663 JUMPI PUSH2 0x662 PUSH2 0x9D4 JUMP JUMPDEST JUMPDEST PUSH2 0x66F DUP8 DUP3 DUP9 ADD PUSH2 0x5B4 JUMP JUMPDEST SWAP5 POP POP PUSH1 0x20 DUP6 ADD CALLDATALOAD PUSH8 0xFFFFFFFFFFFFFFFF DUP2 GT ISZERO PUSH2 0x690 JUMPI PUSH2 0x68F PUSH2 0x9D4 JUMP JUMPDEST JUMPDEST PUSH2 0x69C DUP8 DUP3 DUP9 ADD PUSH2 0x5B4 JUMP JUMPDEST SWAP4 POP POP PUSH1 0x40 DUP6 ADD CALLDATALOAD PUSH8 0xFFFFFFFFFFFFFFFF DUP2 GT ISZERO PUSH2 0x6BD JUMPI PUSH2 0x6BC PUSH2 0x9D4 JUMP JUMPDEST JUMPDEST PUSH2 0x6C9 DUP8 DUP3 DUP9 ADD PUSH2 0x5B4 JUMP JUMPDEST SWAP3 POP POP PUSH1 0x60 PUSH2 0x6DA DUP8 DUP3 DUP9 ADD PUSH2 0x59F JUMP JUMPDEST SWAP2 POP POP SWAP3 SWAP6 SWAP2 SWAP5 POP SWAP3 POP JUMP JUMPDEST PUSH2 0x6EF DUP2 PUSH2 0x819 JUMP JUMPDEST DUP3 MSTORE POP POP JUMP JUMPDEST PUSH1 0x0 PUSH2 0x700 DUP3 PUSH2 0x7EB JUMP JUMPDEST PUSH2 0x70A DUP2 DUP6 PUSH2 0x7F6 JUMP JUMPDEST SWAP4 POP PUSH2 0x71A DUP2 DUP6 PUSH1 0x20 DUP7 ADD PUSH2 0x85E JUMP JUMPDEST PUSH2 0x723 DUP2 PUSH2 0x9DE JUMP JUMPDEST DUP5 ADD SWAP2 POP POP SWAP3 SWAP2 POP POP JUMP JUMPDEST PUSH2 0x737 DUP2 PUSH2 0x845 JUMP JUMPDEST DUP3 MSTORE POP POP JUMP JUMPDEST PUSH1 0x0 PUSH1 0x20 DUP3 ADD SWAP1 POP PUSH2 0x752 PUSH1 0x0 DUP4 ADD DUP5 PUSH2 0x6E6 JUMP JUMPDEST SWAP3 SWAP2 POP POP JUMP JUMPDEST PUSH1 0x0 PUSH1 0x20 DUP3 ADD SWAP1 POP DUP2 DUP2 SUB PUSH1 0x0 DUP4 ADD MSTORE PUSH2 0x772 DUP2 DUP5 PUSH2 0x6F5 JUMP JUMPDEST SWAP1 POP SWAP3 SWAP2 POP POP JUMP JUMPDEST PUSH1 0x0 PUSH1 0x20 DUP3 ADD SWAP1 POP PUSH2 0x78F PUSH1 0x0 DUP4 ADD DUP5 PUSH2 0x72E JUMP JUMPDEST SWAP3 SWAP2 POP POP JUMP JUMPDEST PUSH1 0x0 PUSH2 0x79F PUSH2 0x7B0 JUMP JUMPDEST SWAP1 POP PUSH2 0x7AB DUP3 DUP3 PUSH2 0x8C3 JUMP JUMPDEST SWAP2 SWAP1 POP JUMP JUMPDEST PUSH1 0x0 PUSH1 0x40 MLOAD SWAP1 POP SWAP1 JUMP JUMPDEST PUSH1 0x0 PUSH8 0xFFFFFFFFFFFFFFFF DUP3 GT ISZERO PUSH2 0x7D5 JUMPI PUSH2 0x7D4 PUSH2 0x99B JUMP JUMPDEST JUMPDEST PUSH2 0x7DE DUP3 PUSH2 0x9DE JUMP JUMPDEST SWAP1 POP PUSH1 0x20 DUP2 ADD SWAP1 POP SWAP2 SWAP1 POP JUMP JUMPDEST PUSH1 0x0 DUP2 MLOAD SWAP1 POP SWAP2 SWAP1 POP JUMP JUMPDEST PUSH1 0x0 DUP3 DUP3 MSTORE PUSH1 0x20 DUP3 ADD SWAP1 POP SWAP3 SWAP2 POP POP JUMP JUMPDEST PUSH1 0x0 PUSH2 0x812 DUP3 PUSH2 0x825 JUMP JUMPDEST SWAP1 POP SWAP2 SWAP1 POP JUMP JUMPDEST PUSH1 0x0 DUP2 ISZERO ISZERO SWAP1 POP SWAP2 SWAP1 POP JUMP JUMPDEST PUSH1 0x0 PUSH20 0xFFFFFFFFFFFFFFFFFFFFFFFFFFFFFFFFFFFFFFFF DUP3 AND SWAP1 POP SWAP2 SWAP1 POP JUMP JUMPDEST PUSH1 0x0 DUP2 SWAP1 POP SWAP2 SWAP1 POP JUMP JUMPDEST DUP3 DUP2 DUP4 CALLDATACOPY PUSH1 0x0 DUP4 DUP4 ADD MSTORE POP POP POP JUMP JUMPDEST PUSH1 0x0 JUMPDEST DUP4 DUP2 LT ISZERO PUSH2 0x87C JUMPI DUP1 DUP3 ADD MLOAD DUP2 DUP5 ADD MSTORE PUSH1 0x20 DUP2 ADD SWAP1 POP PUSH2 0x861 JUMP JUMPDEST DUP4 DUP2 GT ISZERO PUSH2 0x88B JUMPI PUSH1 0x0 DUP5 DUP5 ADD MSTORE JUMPDEST POP POP POP POP JUMP JUMPDEST PUSH1 0x0 PUSH1 0x2 DUP3 DIV SWAP1 POP PUSH1 0x1 DUP3 AND DUP1 PUSH2 0x8A9 JUMPI PUSH1 0x7F DUP3 AND SWAP2 POP JUMPDEST PUSH1 0x20 DUP3 LT DUP2 EQ ISZERO PUSH2 0x8BD JUMPI PUSH2 0x8BC PUSH2 0x96C JUMP JUMPDEST JUMPDEST POP SWAP2 SWAP1 POP JUMP JUMPDEST PUSH2 0x8CC DUP3 PUSH2 0x9DE JUMP JUMPDEST DUP2 ADD DUP2 DUP2 LT PUSH8 0xFFFFFFFFFFFFFFFF DUP3 GT OR ISZERO PUSH2 0x8EB JUMPI PUSH2 0x8EA PUSH2 0x99B JUMP JUMPDEST JUMPDEST DUP1 PUSH1 0x40 MSTORE POP POP POP JUMP JUMPDEST PUSH1 0x0 PUSH2 0x8FF DUP3 PUSH2 0x845 JUMP JUMPDEST SWAP2 POP PUSH32 0xFFFFFFFFFFFFFFFFFFFFFFFFFFFFFFFFFFFFFFFFFFFFFFFFFFFFFFFFFFFFFFFF DUP3 EQ ISZERO PUSH2 0x932 JUMPI PUSH2 0x931 PUSH2 0x93D JUMP JUMPDEST JUMPDEST PUSH1 0x1 DUP3 ADD SWAP1 POP SWAP2 SWAP1 POP JUMP JUMPDEST PUSH32 0x4E487B7100000000000000000000000000000000000000000000000000000000 PUSH1 0x0 MSTORE PUSH1 0x11 PUSH1 0x4 MSTORE PUSH1 0x24 PUSH1 0x0 REVERT JUMPDEST PUSH32 0x4E487B7100000000000000000000000000000000000000000000000000000000 PUSH1 0x0 MSTORE PUSH1 0x22 PUSH1 0x4 MSTORE PUSH1 0x24 PUSH1 0x0 REVERT JUMPDEST PUSH32 0x4E487B7100000000000000000000000000000000000000000000000000000000 PUSH1 0x0 MSTORE PUSH1 0x41 PUSH1 0x4 MSTORE PUSH1 0x24 PUSH1 0x0 REVERT JUMPDEST PUSH1 0x0 DUP1 REVERT JUMPDEST PUSH1 0x0 DUP1 REVERT JUMPDEST PUSH1 0x0 DUP1 REVERT JUMPDEST PUSH1 0x0 DUP1 REVERT JUMPDEST PUSH1 0x0 PUSH1 0x1F NOT PUSH1 0x1F DUP4 ADD AND SWAP1 POP SWAP2 SWAP1 POP JUMP JUMPDEST PUSH2 0x9F8 DUP2 PUSH2 0x807 JUMP JUMPDEST DUP2 EQ PUSH2 0xA03 JUMPI PUSH1 0x0 DUP1 REVERT JUMPDEST POP JUMP INVALID LOG2 PUSH5 0x6970667358 0x22 SLT KECCAK256 0xDD 0xF9 JUMPDEST PUSH5 0x3CC88361CA DUP6 0xE2 PUSH30 0x65A2AA2F24B17E446460905A3984778E1562F0E764736F6C634300080700 CALLER "
				},
				"gasEstimates": {
					"creation": {
						"codeDepositCost": "524000",
						"executionCost": "5562",
						"totalCost": "529562"
					},
					"external": {
						"checkValidProfile()": "2696",
						"createProfile(string,string,string,address)": "infinite",
						"deleteProfile()": "24622",
						"getName()": "infinite",
						"numProfile()": "2407",
						"updateProfileName(string)": "infinite"
					}
				},
				"methodIdentifiers": {
					"checkValidProfile()": "3ae7dc1a",
					"createProfile(string,string,string,address)": "22a9d1bc",
					"deleteProfile()": "6d4540eb",
					"getName()": "17d7de7c",
					"numProfile()": "16913469",
					"updateProfileName(string)": "ee8b7cd9"
				}
			},
			"userdoc": {
				"kind": "user",
				"methods": {},
				"version": 1
			}
		}
	}
}