{
	"contracts/Profile.sol": {
		"Profile": {
			"abi": [
				{
					"inputs": [
						{
							"internalType": "address",
							"name": "owner",
							"type": "address"
						}
					],
					"name": "checkValidProfile",
					"outputs": [
						{
							"internalType": "bool",
							"name": "",
							"type": "bool"
						}
					],
					"stateMutability": "view",
					"type": "function"
				},
				{
					"inputs": [
						{
							"internalType": "string",
							"name": "name",
							"type": "string"
						},
						{
							"internalType": "string",
							"name": "ownername",
							"type": "string"
						},
						{
							"internalType": "string",
							"name": "password",
							"type": "string"
						},
						{
							"internalType": "address",
							"name": "owner",
							"type": "address"
						}
					],
					"name": "createProfile",
					"outputs": [],
					"stateMutability": "nonpayable",
					"type": "function"
				},
				{
					"inputs": [
						{
							"internalType": "address",
							"name": "owner",
							"type": "address"
						}
					],
					"name": "deleteProfile",
					"outputs": [],
					"stateMutability": "nonpayable",
					"type": "function"
				},
				{
					"inputs": [
						{
							"internalType": "address",
							"name": "owner",
							"type": "address"
						}
					],
					"name": "getName",
					"outputs": [
						{
							"internalType": "string",
							"name": "",
							"type": "string"
						}
					],
					"stateMutability": "view",
					"type": "function"
				},
				{
					"inputs": [],
					"name": "numProfile",
					"outputs": [
						{
							"internalType": "uint256",
							"name": "",
							"type": "uint256"
						}
					],
					"stateMutability": "view",
					"type": "function"
				},
				{
					"inputs": [
						{
							"internalType": "string",
							"name": "newName",
							"type": "string"
						},
						{
							"internalType": "address",
							"name": "owner",
							"type": "address"
						}
					],
					"name": "updateProfileName",
					"outputs": [],
					"stateMutability": "nonpayable",
					"type": "function"
				}
			],
			"devdoc": {
				"kind": "dev",
				"methods": {},
				"version": 1
			},
			"evm": {
				"assembly": "    /* \"contracts/Profile.sol\":152:2055  contract Profile {... */\n  mstore(0x40, 0x80)\n    /* \"contracts/Profile.sol\":492:493  0 */\n  0x00\n    /* \"contracts/Profile.sol\":464:493  uint256 public numProfile = 0 */\n  0x01\n  sstore\n    /* \"contracts/Profile.sol\":152:2055  contract Profile {... */\n  callvalue\n  dup1\n  iszero\n  tag_1\n  jumpi\n  0x00\n  dup1\n  revert\ntag_1:\n  pop\n  dataSize(sub_0)\n  dup1\n  dataOffset(sub_0)\n  0x00\n  codecopy\n  0x00\n  return\nstop\n\nsub_0: assembly {\n        /* \"contracts/Profile.sol\":152:2055  contract Profile {... */\n      mstore(0x40, 0x80)\n      callvalue\n      dup1\n      iszero\n      tag_1\n      jumpi\n      0x00\n      dup1\n      revert\n    tag_1:\n      pop\n      jumpi(tag_2, lt(calldatasize, 0x04))\n      shr(0xe0, calldataload(0x00))\n      dup1\n      0x16913469\n      eq\n      tag_3\n      jumpi\n      dup1\n      0x22a9d1bc\n      eq\n      tag_4\n      jumpi\n      dup1\n      0x5fd4b08a\n      eq\n      tag_5\n      jumpi\n      dup1\n      0xa0441f29\n      eq\n      tag_6\n      jumpi\n      dup1\n      0xb94864eb\n      eq\n      tag_7\n      jumpi\n      dup1\n      0xbe1459b1\n      eq\n      tag_8\n      jumpi\n    tag_2:\n      0x00\n      dup1\n      revert\n        /* \"contracts/Profile.sol\":464:493  uint256 public numProfile = 0 */\n    tag_3:\n      tag_9\n      tag_10\n      jump\t// in\n    tag_9:\n      mload(0x40)\n      tag_11\n      swap2\n      swap1\n      tag_12\n      jump\t// in\n    tag_11:\n      mload(0x40)\n      dup1\n      swap2\n      sub\n      swap1\n      return\n        /* \"contracts/Profile.sol\":591:965  function createProfile(string memory name, string memory ownername, string memory password, address owner)  external {... */\n    tag_4:\n      tag_13\n      0x04\n      dup1\n      calldatasize\n      sub\n      dup2\n      add\n      swap1\n      tag_14\n      swap2\n      swap1\n      tag_15\n      jump\t// in\n    tag_14:\n      tag_16\n      jump\t// in\n    tag_13:\n      stop\n        /* \"contracts/Profile.sol\":1697:1836  function getName(address owner) external validProfile (owner) view returns ( string memory) {... */\n    tag_5:\n      tag_17\n      0x04\n      dup1\n      calldatasize\n      sub\n      dup2\n      add\n      swap1\n      tag_18\n      swap2\n      swap1\n      tag_19\n      jump\t// in\n    tag_18:\n      tag_20\n      jump\t// in\n    tag_17:\n      mload(0x40)\n      tag_21\n      swap2\n      swap1\n      tag_22\n      jump\t// in\n    tag_21:\n      mload(0x40)\n      dup1\n      swap2\n      sub\n      swap1\n      return\n        /* \"contracts/Profile.sol\":1012:1242  function deleteProfile(address owner) external {... */\n    tag_6:\n      tag_23\n      0x04\n      dup1\n      calldatasize\n      sub\n      dup2\n      add\n      swap1\n      tag_24\n      swap2\n      swap1\n      tag_19\n      jump\t// in\n    tag_24:\n      tag_25\n      jump\t// in\n    tag_23:\n      stop\n        /* \"contracts/Profile.sol\":1289:1493  function updateProfileName(string memory newName, address owner) external {... */\n    tag_7:\n      tag_26\n      0x04\n      dup1\n      calldatasize\n      sub\n      dup2\n      add\n      swap1\n      tag_27\n      swap2\n      swap1\n      tag_28\n      jump\t// in\n    tag_27:\n      tag_29\n      jump\t// in\n    tag_26:\n      stop\n        /* \"contracts/Profile.sol\":1895:2052  function checkValidProfile(address owner) external validProfile (owner) view returns (bool) {... */\n    tag_8:\n      tag_30\n      0x04\n      dup1\n      calldatasize\n      sub\n      dup2\n      add\n      swap1\n      tag_31\n      swap2\n      swap1\n      tag_19\n      jump\t// in\n    tag_31:\n      tag_32\n      jump\t// in\n    tag_30:\n      mload(0x40)\n      tag_33\n      swap2\n      swap1\n      tag_34\n      jump\t// in\n    tag_33:\n      mload(0x40)\n      dup1\n      swap2\n      sub\n      swap1\n      return\n        /* \"contracts/Profile.sol\":464:493  uint256 public numProfile = 0 */\n    tag_10:\n      sload(0x01)\n      dup2\n      jump\t// out\n        /* \"contracts/Profile.sol\":591:965  function createProfile(string memory name, string memory ownername, string memory password, address owner)  external {... */\n    tag_16:\n        /* \"contracts/Profile.sol\":756:761  false */\n      0x00\n        /* \"contracts/Profile.sol\":726:761  profileList[owner].created == false */\n      iszero\n      iszero\n        /* \"contracts/Profile.sol\":726:737  profileList */\n      0x00\n        /* \"contracts/Profile.sol\":726:744  profileList[owner] */\n      dup1\n        /* \"contracts/Profile.sol\":738:743  owner */\n      dup4\n        /* \"contracts/Profile.sol\":726:744  profileList[owner] */\n      0xffffffffffffffffffffffffffffffffffffffff\n      and\n      0xffffffffffffffffffffffffffffffffffffffff\n      and\n      dup2\n      mstore\n      0x20\n      add\n      swap1\n      dup2\n      mstore\n      0x20\n      add\n      0x00\n      keccak256\n        /* \"contracts/Profile.sol\":726:752  profileList[owner].created */\n      0x03\n      add\n      0x14\n      swap1\n      sload\n      swap1\n      0x0100\n      exp\n      swap1\n      div\n      0xff\n      and\n        /* \"contracts/Profile.sol\":726:761  profileList[owner].created == false */\n      iszero\n      iszero\n      eq\n        /* \"contracts/Profile.sol\":718:799  require(profileList[owner].created == false, \"Cannot create more than 1 profile\") */\n      tag_36\n      jumpi\n      mload(0x40)\n      0x08c379a000000000000000000000000000000000000000000000000000000000\n      dup2\n      mstore\n      0x04\n      add\n      tag_37\n      swap1\n      tag_38\n      jump\t// in\n    tag_37:\n      mload(0x40)\n      dup1\n      swap2\n      sub\n      swap1\n      revert\n    tag_36:\n        /* \"contracts/Profile.sol\":809:834  profile memory newProfile */\n      0x00\n        /* \"contracts/Profile.sol\":837:880  profile(name,ownername,password,owner,true) */\n      mload(0x40)\n      dup1\n      0xa0\n      add\n      0x40\n      mstore\n      dup1\n        /* \"contracts/Profile.sol\":845:849  name */\n      dup7\n        /* \"contracts/Profile.sol\":837:880  profile(name,ownername,password,owner,true) */\n      dup2\n      mstore\n      0x20\n      add\n        /* \"contracts/Profile.sol\":850:859  ownername */\n      dup6\n        /* \"contracts/Profile.sol\":837:880  profile(name,ownername,password,owner,true) */\n      dup2\n      mstore\n      0x20\n      add\n        /* \"contracts/Profile.sol\":860:868  password */\n      dup5\n        /* \"contracts/Profile.sol\":837:880  profile(name,ownername,password,owner,true) */\n      dup2\n      mstore\n      0x20\n      add\n        /* \"contracts/Profile.sol\":869:874  owner */\n      dup4\n        /* \"contracts/Profile.sol\":837:880  profile(name,ownername,password,owner,true) */\n      0xffffffffffffffffffffffffffffffffffffffff\n      and\n      dup2\n      mstore\n      0x20\n      add\n        /* \"contracts/Profile.sol\":875:879  true */\n      0x01\n        /* \"contracts/Profile.sol\":837:880  profile(name,ownername,password,owner,true) */\n      iszero\n      iszero\n      dup2\n      mstore\n      pop\n        /* \"contracts/Profile.sol\":809:880  profile memory newProfile = profile(name,ownername,password,owner,true) */\n      swap1\n      pop\n        /* \"contracts/Profile.sol\":911:921  newProfile */\n      dup1\n        /* \"contracts/Profile.sol\":890:901  profileList */\n      0x00\n        /* \"contracts/Profile.sol\":890:908  profileList[owner] */\n      dup1\n        /* \"contracts/Profile.sol\":902:907  owner */\n      dup5\n        /* \"contracts/Profile.sol\":890:908  profileList[owner] */\n      0xffffffffffffffffffffffffffffffffffffffff\n      and\n      0xffffffffffffffffffffffffffffffffffffffff\n      and\n      dup2\n      mstore\n      0x20\n      add\n      swap1\n      dup2\n      mstore\n      0x20\n      add\n      0x00\n      keccak256\n        /* \"contracts/Profile.sol\":890:921  profileList[owner] = newProfile */\n      0x00\n      dup3\n      add\n      mload\n      dup2\n      0x00\n      add\n      swap1\n      dup1\n      mload\n      swap1\n      0x20\n      add\n      swap1\n      tag_39\n      swap3\n      swap2\n      swap1\n      tag_40\n      jump\t// in\n    tag_39:\n      pop\n      0x20\n      dup3\n      add\n      mload\n      dup2\n      0x01\n      add\n      swap1\n      dup1\n      mload\n      swap1\n      0x20\n      add\n      swap1\n      tag_41\n      swap3\n      swap2\n      swap1\n      tag_40\n      jump\t// in\n    tag_41:\n      pop\n      0x40\n      dup3\n      add\n      mload\n      dup2\n      0x02\n      add\n      swap1\n      dup1\n      mload\n      swap1\n      0x20\n      add\n      swap1\n      tag_42\n      swap3\n      swap2\n      swap1\n      tag_40\n      jump\t// in\n    tag_42:\n      pop\n      0x60\n      dup3\n      add\n      mload\n      dup2\n      0x03\n      add\n      exp(0x0100, 0x00)\n      dup2\n      sload\n      dup2\n      0xffffffffffffffffffffffffffffffffffffffff\n      mul\n      not\n      and\n      swap1\n      dup4\n      0xffffffffffffffffffffffffffffffffffffffff\n      and\n      mul\n      or\n      swap1\n      sstore\n      pop\n      0x80\n      dup3\n      add\n      mload\n      dup2\n      0x03\n      add\n      exp(0x0100, 0x14)\n      dup2\n      sload\n      dup2\n      0xff\n      mul\n      not\n      and\n      swap1\n      dup4\n      iszero\n      iszero\n      mul\n      or\n      swap1\n      sstore\n      pop\n      swap1\n      pop\n      pop\n        /* \"contracts/Profile.sol\":957:958  1 */\n      0x01\n        /* \"contracts/Profile.sol\":944:954  numProfile */\n      dup1\n      sload\n        /* \"contracts/Profile.sol\":944:958  numProfile + 1 */\n      tag_43\n      swap2\n      swap1\n      tag_44\n      jump\t// in\n    tag_43:\n        /* \"contracts/Profile.sol\":931:941  numProfile */\n      0x01\n        /* \"contracts/Profile.sol\":931:958  numProfile = numProfile + 1 */\n      dup2\n      swap1\n      sstore\n      pop\n        /* \"contracts/Profile.sol\":708:965  {... */\n      pop\n        /* \"contracts/Profile.sol\":591:965  function createProfile(string memory name, string memory ownername, string memory password, address owner)  external {... */\n      pop\n      pop\n      pop\n      pop\n      jump\t// out\n        /* \"contracts/Profile.sol\":1697:1836  function getName(address owner) external validProfile (owner) view returns ( string memory) {... */\n    tag_20:\n        /* \"contracts/Profile.sol\":1774:1787  string memory */\n      0x60\n        /* \"contracts/Profile.sol\":1752:1757  owner */\n      dup2\n        /* \"contracts/Profile.sol\":1585:1589  true */\n      0x01\n        /* \"contracts/Profile.sol\":1555:1589  profileList[owner].created == true */\n      iszero\n      iszero\n        /* \"contracts/Profile.sol\":1555:1566  profileList */\n      0x00\n        /* \"contracts/Profile.sol\":1555:1573  profileList[owner] */\n      dup1\n        /* \"contracts/Profile.sol\":1567:1572  owner */\n      dup4\n        /* \"contracts/Profile.sol\":1555:1573  profileList[owner] */\n      0xffffffffffffffffffffffffffffffffffffffff\n      and\n      0xffffffffffffffffffffffffffffffffffffffff\n      and\n      dup2\n      mstore\n      0x20\n      add\n      swap1\n      dup2\n      mstore\n      0x20\n      add\n      0x00\n      keccak256\n        /* \"contracts/Profile.sol\":1555:1581  profileList[owner].created */\n      0x03\n      add\n      0x14\n      swap1\n      sload\n      swap1\n      0x0100\n      exp\n      swap1\n      div\n      0xff\n      and\n        /* \"contracts/Profile.sol\":1555:1589  profileList[owner].created == true */\n      iszero\n      iszero\n      eq\n        /* \"contracts/Profile.sol\":1547:1616  require(profileList[owner].created == true, \"Profile does not exist\") */\n      tag_46\n      jumpi\n      mload(0x40)\n      0x08c379a000000000000000000000000000000000000000000000000000000000\n      dup2\n      mstore\n      0x04\n      add\n      tag_47\n      swap1\n      tag_48\n      jump\t// in\n    tag_47:\n      mload(0x40)\n      dup1\n      swap2\n      sub\n      swap1\n      revert\n    tag_46:\n        /* \"contracts/Profile.sol\":1806:1817  profileList */\n      0x00\n        /* \"contracts/Profile.sol\":1806:1824  profileList[owner] */\n      dup1\n        /* \"contracts/Profile.sol\":1818:1823  owner */\n      dup5\n        /* \"contracts/Profile.sol\":1806:1824  profileList[owner] */\n      0xffffffffffffffffffffffffffffffffffffffff\n      and\n      0xffffffffffffffffffffffffffffffffffffffff\n      and\n      dup2\n      mstore\n      0x20\n      add\n      swap1\n      dup2\n      mstore\n      0x20\n      add\n      0x00\n      keccak256\n        /* \"contracts/Profile.sol\":1806:1829  profileList[owner].name */\n      0x00\n      add\n        /* \"contracts/Profile.sol\":1799:1829  return profileList[owner].name */\n      dup1\n      sload\n      tag_50\n      swap1\n      tag_51\n      jump\t// in\n    tag_50:\n      dup1\n      0x1f\n      add\n      0x20\n      dup1\n      swap2\n      div\n      mul\n      0x20\n      add\n      mload(0x40)\n      swap1\n      dup2\n      add\n      0x40\n      mstore\n      dup1\n      swap3\n      swap2\n      swap1\n      dup2\n      dup2\n      mstore\n      0x20\n      add\n      dup3\n      dup1\n      sload\n      tag_52\n      swap1\n      tag_51\n      jump\t// in\n    tag_52:\n      dup1\n      iszero\n      tag_53\n      jumpi\n      dup1\n      0x1f\n      lt\n      tag_54\n      jumpi\n      0x0100\n      dup1\n      dup4\n      sload\n      div\n      mul\n      dup4\n      mstore\n      swap2\n      0x20\n      add\n      swap2\n      jump(tag_53)\n    tag_54:\n      dup3\n      add\n      swap2\n      swap1\n      0x00\n      mstore\n      keccak256(0x00, 0x20)\n      swap1\n    tag_55:\n      dup2\n      sload\n      dup2\n      mstore\n      swap1\n      0x01\n      add\n      swap1\n      0x20\n      add\n      dup1\n      dup4\n      gt\n      tag_55\n      jumpi\n      dup3\n      swap1\n      sub\n      0x1f\n      and\n      dup3\n      add\n      swap2\n    tag_53:\n      pop\n      pop\n      pop\n      pop\n      pop\n      swap2\n      pop\n        /* \"contracts/Profile.sol\":1697:1836  function getName(address owner) external validProfile (owner) view returns ( string memory) {... */\n      pop\n      swap2\n      swap1\n      pop\n      jump\t// out\n        /* \"contracts/Profile.sol\":1012:1242  function deleteProfile(address owner) external {... */\n    tag_25:\n        /* \"contracts/Profile.sol\":1107:1111  true */\n      0x01\n        /* \"contracts/Profile.sol\":1077:1111  profileList[owner].created == true */\n      iszero\n      iszero\n        /* \"contracts/Profile.sol\":1077:1088  profileList */\n      0x00\n        /* \"contracts/Profile.sol\":1077:1095  profileList[owner] */\n      dup1\n        /* \"contracts/Profile.sol\":1089:1094  owner */\n      dup4\n        /* \"contracts/Profile.sol\":1077:1095  profileList[owner] */\n      0xffffffffffffffffffffffffffffffffffffffff\n      and\n      0xffffffffffffffffffffffffffffffffffffffff\n      and\n      dup2\n      mstore\n      0x20\n      add\n      swap1\n      dup2\n      mstore\n      0x20\n      add\n      0x00\n      keccak256\n        /* \"contracts/Profile.sol\":1077:1103  profileList[owner].created */\n      0x03\n      add\n      0x14\n      swap1\n      sload\n      swap1\n      0x0100\n      exp\n      swap1\n      div\n      0xff\n      and\n        /* \"contracts/Profile.sol\":1077:1111  profileList[owner].created == true */\n      iszero\n      iszero\n      eq\n        /* \"contracts/Profile.sol\":1069:1138  require(profileList[owner].created == true, \"Profile does not exist\") */\n      tag_57\n      jumpi\n      mload(0x40)\n      0x08c379a000000000000000000000000000000000000000000000000000000000\n      dup2\n      mstore\n      0x04\n      add\n      tag_58\n      swap1\n      tag_48\n      jump\t// in\n    tag_58:\n      mload(0x40)\n      dup1\n      swap2\n      sub\n      swap1\n      revert\n    tag_57:\n        /* \"contracts/Profile.sol\":1177:1182  false */\n      0x00\n        /* \"contracts/Profile.sol\":1148:1159  profileList */\n      dup1\n        /* \"contracts/Profile.sol\":1148:1166  profileList[owner] */\n      0x00\n        /* \"contracts/Profile.sol\":1160:1165  owner */\n      dup4\n        /* \"contracts/Profile.sol\":1148:1166  profileList[owner] */\n      0xffffffffffffffffffffffffffffffffffffffff\n      and\n      0xffffffffffffffffffffffffffffffffffffffff\n      and\n      dup2\n      mstore\n      0x20\n      add\n      swap1\n      dup2\n      mstore\n      0x20\n      add\n      0x00\n      keccak256\n        /* \"contracts/Profile.sol\":1148:1174  profileList[owner].created */\n      0x03\n      add\n      0x14\n        /* \"contracts/Profile.sol\":1148:1182  profileList[owner].created = false */\n      0x0100\n      exp\n      dup2\n      sload\n      dup2\n      0xff\n      mul\n      not\n      and\n      swap1\n      dup4\n      iszero\n      iszero\n      mul\n      or\n      swap1\n      sstore\n      pop\n        /* \"contracts/Profile.sol\":1233:1234  1 */\n      0x01\n        /* \"contracts/Profile.sol\":1220:1230  numProfile */\n      dup1\n      sload\n        /* \"contracts/Profile.sol\":1220:1234  numProfile - 1 */\n      tag_59\n      swap2\n      swap1\n      tag_60\n      jump\t// in\n    tag_59:\n        /* \"contracts/Profile.sol\":1207:1217  numProfile */\n      0x01\n        /* \"contracts/Profile.sol\":1207:1234  numProfile = numProfile - 1 */\n      dup2\n      swap1\n      sstore\n      pop\n        /* \"contracts/Profile.sol\":1012:1242  function deleteProfile(address owner) external {... */\n      pop\n      jump\t// out\n        /* \"contracts/Profile.sol\":1289:1493  function updateProfileName(string memory newName, address owner) external {... */\n    tag_29:\n        /* \"contracts/Profile.sol\":1411:1415  true */\n      0x01\n        /* \"contracts/Profile.sol\":1381:1415  profileList[owner].created == true */\n      iszero\n      iszero\n        /* \"contracts/Profile.sol\":1381:1392  profileList */\n      0x00\n        /* \"contracts/Profile.sol\":1381:1399  profileList[owner] */\n      dup1\n        /* \"contracts/Profile.sol\":1393:1398  owner */\n      dup4\n        /* \"contracts/Profile.sol\":1381:1399  profileList[owner] */\n      0xffffffffffffffffffffffffffffffffffffffff\n      and\n      0xffffffffffffffffffffffffffffffffffffffff\n      and\n      dup2\n      mstore\n      0x20\n      add\n      swap1\n      dup2\n      mstore\n      0x20\n      add\n      0x00\n      keccak256\n        /* \"contracts/Profile.sol\":1381:1407  profileList[owner].created */\n      0x03\n      add\n      0x14\n      swap1\n      sload\n      swap1\n      0x0100\n      exp\n      swap1\n      div\n      0xff\n      and\n        /* \"contracts/Profile.sol\":1381:1415  profileList[owner].created == true */\n      iszero\n      iszero\n      eq\n        /* \"contracts/Profile.sol\":1373:1442  require(profileList[owner].created == true, \"Profile does not exist\") */\n      tag_62\n      jumpi\n      mload(0x40)\n      0x08c379a000000000000000000000000000000000000000000000000000000000\n      dup2\n      mstore\n      0x04\n      add\n      tag_63\n      swap1\n      tag_48\n      jump\t// in\n    tag_63:\n      mload(0x40)\n      dup1\n      swap2\n      sub\n      swap1\n      revert\n    tag_62:\n        /* \"contracts/Profile.sol\":1478:1485  newName */\n      dup2\n        /* \"contracts/Profile.sol\":1452:1463  profileList */\n      0x00\n        /* \"contracts/Profile.sol\":1452:1470  profileList[owner] */\n      dup1\n        /* \"contracts/Profile.sol\":1464:1469  owner */\n      dup4\n        /* \"contracts/Profile.sol\":1452:1470  profileList[owner] */\n      0xffffffffffffffffffffffffffffffffffffffff\n      and\n      0xffffffffffffffffffffffffffffffffffffffff\n      and\n      dup2\n      mstore\n      0x20\n      add\n      swap1\n      dup2\n      mstore\n      0x20\n      add\n      0x00\n      keccak256\n        /* \"contracts/Profile.sol\":1452:1475  profileList[owner].name */\n      0x00\n      add\n        /* \"contracts/Profile.sol\":1452:1485  profileList[owner].name = newName */\n      swap1\n      dup1\n      mload\n      swap1\n      0x20\n      add\n      swap1\n      tag_64\n      swap3\n      swap2\n      swap1\n      tag_40\n      jump\t// in\n    tag_64:\n      pop\n        /* \"contracts/Profile.sol\":1289:1493  function updateProfileName(string memory newName, address owner) external {... */\n      pop\n      pop\n      jump\t// out\n        /* \"contracts/Profile.sol\":1895:2052  function checkValidProfile(address owner) external validProfile (owner) view returns (bool) {... */\n    tag_32:\n        /* \"contracts/Profile.sol\":1981:1985  bool */\n      0x00\n        /* \"contracts/Profile.sol\":1960:1965  owner */\n      dup2\n        /* \"contracts/Profile.sol\":1585:1589  true */\n      0x01\n        /* \"contracts/Profile.sol\":1555:1589  profileList[owner].created == true */\n      iszero\n      iszero\n        /* \"contracts/Profile.sol\":1555:1566  profileList */\n      0x00\n        /* \"contracts/Profile.sol\":1555:1573  profileList[owner] */\n      dup1\n        /* \"contracts/Profile.sol\":1567:1572  owner */\n      dup4\n        /* \"contracts/Profile.sol\":1555:1573  profileList[owner] */\n      0xffffffffffffffffffffffffffffffffffffffff\n      and\n      0xffffffffffffffffffffffffffffffffffffffff\n      and\n      dup2\n      mstore\n      0x20\n      add\n      swap1\n      dup2\n      mstore\n      0x20\n      add\n      0x00\n      keccak256\n        /* \"contracts/Profile.sol\":1555:1581  profileList[owner].created */\n      0x03\n      add\n      0x14\n      swap1\n      sload\n      swap1\n      0x0100\n      exp\n      swap1\n      div\n      0xff\n      and\n        /* \"contracts/Profile.sol\":1555:1589  profileList[owner].created == true */\n      iszero\n      iszero\n      eq\n        /* \"contracts/Profile.sol\":1547:1616  require(profileList[owner].created == true, \"Profile does not exist\") */\n      tag_66\n      jumpi\n      mload(0x40)\n      0x08c379a000000000000000000000000000000000000000000000000000000000\n      dup2\n      mstore\n      0x04\n      add\n      tag_67\n      swap1\n      tag_48\n      jump\t// in\n    tag_67:\n      mload(0x40)\n      dup1\n      swap2\n      sub\n      swap1\n      revert\n    tag_66:\n        /* \"contracts/Profile.sol\":2004:2015  profileList */\n      0x00\n        /* \"contracts/Profile.sol\":2004:2022  profileList[owner] */\n      dup1\n        /* \"contracts/Profile.sol\":2016:2021  owner */\n      dup5\n        /* \"contracts/Profile.sol\":2004:2022  profileList[owner] */\n      0xffffffffffffffffffffffffffffffffffffffff\n      and\n      0xffffffffffffffffffffffffffffffffffffffff\n      and\n      dup2\n      mstore\n      0x20\n      add\n      swap1\n      dup2\n      mstore\n      0x20\n      add\n      0x00\n      keccak256\n        /* \"contracts/Profile.sol\":2004:2030  profileList[owner].created */\n      0x03\n      add\n      0x14\n      swap1\n      sload\n      swap1\n      0x0100\n      exp\n      swap1\n      div\n      0xff\n      and\n        /* \"contracts/Profile.sol\":2004:2045  profileList[owner].created ? true : false */\n      tag_69\n      jumpi\n        /* \"contracts/Profile.sol\":2040:2045  false */\n      0x00\n        /* \"contracts/Profile.sol\":2004:2045  profileList[owner].created ? true : false */\n      jump(tag_70)\n    tag_69:\n        /* \"contracts/Profile.sol\":2033:2037  true */\n      0x01\n        /* \"contracts/Profile.sol\":2004:2045  profileList[owner].created ? true : false */\n    tag_70:\n        /* \"contracts/Profile.sol\":1997:2045  return profileList[owner].created ? true : false */\n      swap2\n      pop\n        /* \"contracts/Profile.sol\":1895:2052  function checkValidProfile(address owner) external validProfile (owner) view returns (bool) {... */\n      pop\n      swap2\n      swap1\n      pop\n      jump\t// out\n    tag_40:\n      dup3\n      dup1\n      sload\n      tag_71\n      swap1\n      tag_51\n      jump\t// in\n    tag_71:\n      swap1\n      0x00\n      mstore\n      keccak256(0x00, 0x20)\n      swap1\n      0x1f\n      add\n      0x20\n      swap1\n      div\n      dup2\n      add\n      swap3\n      dup3\n      tag_73\n      jumpi\n      0x00\n      dup6\n      sstore\n      jump(tag_72)\n    tag_73:\n      dup3\n      0x1f\n      lt\n      tag_74\n      jumpi\n      dup1\n      mload\n      not(0xff)\n      and\n      dup4\n      dup1\n      add\n      or\n      dup6\n      sstore\n      jump(tag_72)\n    tag_74:\n      dup3\n      dup1\n      add\n      0x01\n      add\n      dup6\n      sstore\n      dup3\n      iszero\n      tag_72\n      jumpi\n      swap2\n      dup3\n      add\n    tag_75:\n      dup3\n      dup2\n      gt\n      iszero\n      tag_76\n      jumpi\n      dup3\n      mload\n      dup3\n      sstore\n      swap2\n      0x20\n      add\n      swap2\n      swap1\n      0x01\n      add\n      swap1\n      jump(tag_75)\n    tag_76:\n    tag_72:\n      pop\n      swap1\n      pop\n      tag_77\n      swap2\n      swap1\n      tag_78\n      jump\t// in\n    tag_77:\n      pop\n      swap1\n      jump\t// out\n    tag_78:\n    tag_79:\n      dup1\n      dup3\n      gt\n      iszero\n      tag_80\n      jumpi\n      0x00\n      dup2\n      0x00\n      swap1\n      sstore\n      pop\n      0x01\n      add\n      jump(tag_79)\n    tag_80:\n      pop\n      swap1\n      jump\t// out\n        /* \"#utility.yul\":7:419   */\n    tag_82:\n        /* \"#utility.yul\":85:90   */\n      0x00\n        /* \"#utility.yul\":110:176   */\n      tag_84\n        /* \"#utility.yul\":126:175   */\n      tag_85\n        /* \"#utility.yul\":168:174   */\n      dup5\n        /* \"#utility.yul\":126:175   */\n      tag_86\n      jump\t// in\n    tag_85:\n        /* \"#utility.yul\":110:176   */\n      tag_87\n      jump\t// in\n    tag_84:\n        /* \"#utility.yul\":101:176   */\n      swap1\n      pop\n        /* \"#utility.yul\":199:205   */\n      dup3\n        /* \"#utility.yul\":192:197   */\n      dup2\n        /* \"#utility.yul\":185:206   */\n      mstore\n        /* \"#utility.yul\":237:241   */\n      0x20\n        /* \"#utility.yul\":230:235   */\n      dup2\n        /* \"#utility.yul\":226:242   */\n      add\n        /* \"#utility.yul\":275:278   */\n      dup5\n        /* \"#utility.yul\":266:272   */\n      dup5\n        /* \"#utility.yul\":261:264   */\n      dup5\n        /* \"#utility.yul\":257:273   */\n      add\n        /* \"#utility.yul\":254:279   */\n      gt\n        /* \"#utility.yul\":251:363   */\n      iszero\n      tag_88\n      jumpi\n        /* \"#utility.yul\":282:361   */\n      tag_89\n      tag_90\n      jump\t// in\n    tag_89:\n        /* \"#utility.yul\":251:363   */\n    tag_88:\n        /* \"#utility.yul\":372:413   */\n      tag_91\n        /* \"#utility.yul\":406:412   */\n      dup5\n        /* \"#utility.yul\":401:404   */\n      dup3\n        /* \"#utility.yul\":396:399   */\n      dup6\n        /* \"#utility.yul\":372:413   */\n      tag_92\n      jump\t// in\n    tag_91:\n        /* \"#utility.yul\":91:419   */\n      pop\n        /* \"#utility.yul\":7:419   */\n      swap4\n      swap3\n      pop\n      pop\n      pop\n      jump\t// out\n        /* \"#utility.yul\":425:564   */\n    tag_93:\n        /* \"#utility.yul\":471:476   */\n      0x00\n        /* \"#utility.yul\":509:515   */\n      dup2\n        /* \"#utility.yul\":496:516   */\n      calldataload\n        /* \"#utility.yul\":487:516   */\n      swap1\n      pop\n        /* \"#utility.yul\":525:558   */\n      tag_95\n        /* \"#utility.yul\":552:557   */\n      dup2\n        /* \"#utility.yul\":525:558   */\n      tag_96\n      jump\t// in\n    tag_95:\n        /* \"#utility.yul\":425:564   */\n      swap3\n      swap2\n      pop\n      pop\n      jump\t// out\n        /* \"#utility.yul\":584:924   */\n    tag_97:\n        /* \"#utility.yul\":640:645   */\n      0x00\n        /* \"#utility.yul\":689:692   */\n      dup3\n        /* \"#utility.yul\":682:686   */\n      0x1f\n        /* \"#utility.yul\":674:680   */\n      dup4\n        /* \"#utility.yul\":670:687   */\n      add\n        /* \"#utility.yul\":666:693   */\n      slt\n        /* \"#utility.yul\":656:778   */\n      tag_99\n      jumpi\n        /* \"#utility.yul\":697:776   */\n      tag_100\n      tag_101\n      jump\t// in\n    tag_100:\n        /* \"#utility.yul\":656:778   */\n    tag_99:\n        /* \"#utility.yul\":814:820   */\n      dup2\n        /* \"#utility.yul\":801:821   */\n      calldataload\n        /* \"#utility.yul\":839:918   */\n      tag_102\n        /* \"#utility.yul\":914:917   */\n      dup5\n        /* \"#utility.yul\":906:912   */\n      dup3\n        /* \"#utility.yul\":899:903   */\n      0x20\n        /* \"#utility.yul\":891:897   */\n      dup7\n        /* \"#utility.yul\":887:904   */\n      add\n        /* \"#utility.yul\":839:918   */\n      tag_82\n      jump\t// in\n    tag_102:\n        /* \"#utility.yul\":830:918   */\n      swap2\n      pop\n        /* \"#utility.yul\":646:924   */\n      pop\n        /* \"#utility.yul\":584:924   */\n      swap3\n      swap2\n      pop\n      pop\n      jump\t// out\n        /* \"#utility.yul\":930:1259   */\n    tag_19:\n        /* \"#utility.yul\":989:995   */\n      0x00\n        /* \"#utility.yul\":1038:1040   */\n      0x20\n        /* \"#utility.yul\":1026:1035   */\n      dup3\n        /* \"#utility.yul\":1017:1024   */\n      dup5\n        /* \"#utility.yul\":1013:1036   */\n      sub\n        /* \"#utility.yul\":1009:1041   */\n      slt\n        /* \"#utility.yul\":1006:1125   */\n      iszero\n      tag_104\n      jumpi\n        /* \"#utility.yul\":1044:1123   */\n      tag_105\n      tag_106\n      jump\t// in\n    tag_105:\n        /* \"#utility.yul\":1006:1125   */\n    tag_104:\n        /* \"#utility.yul\":1164:1165   */\n      0x00\n        /* \"#utility.yul\":1189:1242   */\n      tag_107\n        /* \"#utility.yul\":1234:1241   */\n      dup5\n        /* \"#utility.yul\":1225:1231   */\n      dup3\n        /* \"#utility.yul\":1214:1223   */\n      dup6\n        /* \"#utility.yul\":1210:1232   */\n      add\n        /* \"#utility.yul\":1189:1242   */\n      tag_93\n      jump\t// in\n    tag_107:\n        /* \"#utility.yul\":1179:1242   */\n      swap2\n      pop\n        /* \"#utility.yul\":1135:1252   */\n      pop\n        /* \"#utility.yul\":930:1259   */\n      swap3\n      swap2\n      pop\n      pop\n      jump\t// out\n        /* \"#utility.yul\":1265:1919   */\n    tag_28:\n        /* \"#utility.yul\":1343:1349   */\n      0x00\n        /* \"#utility.yul\":1351:1357   */\n      dup1\n        /* \"#utility.yul\":1400:1402   */\n      0x40\n        /* \"#utility.yul\":1388:1397   */\n      dup4\n        /* \"#utility.yul\":1379:1386   */\n      dup6\n        /* \"#utility.yul\":1375:1398   */\n      sub\n        /* \"#utility.yul\":1371:1403   */\n      slt\n        /* \"#utility.yul\":1368:1487   */\n      iszero\n      tag_109\n      jumpi\n        /* \"#utility.yul\":1406:1485   */\n      tag_110\n      tag_106\n      jump\t// in\n    tag_110:\n        /* \"#utility.yul\":1368:1487   */\n    tag_109:\n        /* \"#utility.yul\":1554:1555   */\n      0x00\n        /* \"#utility.yul\":1543:1552   */\n      dup4\n        /* \"#utility.yul\":1539:1556   */\n      add\n        /* \"#utility.yul\":1526:1557   */\n      calldataload\n        /* \"#utility.yul\":1584:1602   */\n      0xffffffffffffffff\n        /* \"#utility.yul\":1576:1582   */\n      dup2\n        /* \"#utility.yul\":1573:1603   */\n      gt\n        /* \"#utility.yul\":1570:1687   */\n      iszero\n      tag_111\n      jumpi\n        /* \"#utility.yul\":1606:1685   */\n      tag_112\n      tag_113\n      jump\t// in\n    tag_112:\n        /* \"#utility.yul\":1570:1687   */\n    tag_111:\n        /* \"#utility.yul\":1711:1774   */\n      tag_114\n        /* \"#utility.yul\":1766:1773   */\n      dup6\n        /* \"#utility.yul\":1757:1763   */\n      dup3\n        /* \"#utility.yul\":1746:1755   */\n      dup7\n        /* \"#utility.yul\":1742:1764   */\n      add\n        /* \"#utility.yul\":1711:1774   */\n      tag_97\n      jump\t// in\n    tag_114:\n        /* \"#utility.yul\":1701:1774   */\n      swap3\n      pop\n        /* \"#utility.yul\":1497:1784   */\n      pop\n        /* \"#utility.yul\":1823:1825   */\n      0x20\n        /* \"#utility.yul\":1849:1902   */\n      tag_115\n        /* \"#utility.yul\":1894:1901   */\n      dup6\n        /* \"#utility.yul\":1885:1891   */\n      dup3\n        /* \"#utility.yul\":1874:1883   */\n      dup7\n        /* \"#utility.yul\":1870:1892   */\n      add\n        /* \"#utility.yul\":1849:1902   */\n      tag_93\n      jump\t// in\n    tag_115:\n        /* \"#utility.yul\":1839:1902   */\n      swap2\n      pop\n        /* \"#utility.yul\":1794:1912   */\n      pop\n        /* \"#utility.yul\":1265:1919   */\n      swap3\n      pop\n      swap3\n      swap1\n      pop\n      jump\t// out\n        /* \"#utility.yul\":1925:3230   */\n    tag_15:\n        /* \"#utility.yul\":2041:2047   */\n      0x00\n        /* \"#utility.yul\":2049:2055   */\n      dup1\n        /* \"#utility.yul\":2057:2063   */\n      0x00\n        /* \"#utility.yul\":2065:2071   */\n      dup1\n        /* \"#utility.yul\":2114:2117   */\n      0x80\n        /* \"#utility.yul\":2102:2111   */\n      dup6\n        /* \"#utility.yul\":2093:2100   */\n      dup8\n        /* \"#utility.yul\":2089:2112   */\n      sub\n        /* \"#utility.yul\":2085:2118   */\n      slt\n        /* \"#utility.yul\":2082:2202   */\n      iszero\n      tag_117\n      jumpi\n        /* \"#utility.yul\":2121:2200   */\n      tag_118\n      tag_106\n      jump\t// in\n    tag_118:\n        /* \"#utility.yul\":2082:2202   */\n    tag_117:\n        /* \"#utility.yul\":2269:2270   */\n      0x00\n        /* \"#utility.yul\":2258:2267   */\n      dup6\n        /* \"#utility.yul\":2254:2271   */\n      add\n        /* \"#utility.yul\":2241:2272   */\n      calldataload\n        /* \"#utility.yul\":2299:2317   */\n      0xffffffffffffffff\n        /* \"#utility.yul\":2291:2297   */\n      dup2\n        /* \"#utility.yul\":2288:2318   */\n      gt\n        /* \"#utility.yul\":2285:2402   */\n      iszero\n      tag_119\n      jumpi\n        /* \"#utility.yul\":2321:2400   */\n      tag_120\n      tag_113\n      jump\t// in\n    tag_120:\n        /* \"#utility.yul\":2285:2402   */\n    tag_119:\n        /* \"#utility.yul\":2426:2489   */\n      tag_121\n        /* \"#utility.yul\":2481:2488   */\n      dup8\n        /* \"#utility.yul\":2472:2478   */\n      dup3\n        /* \"#utility.yul\":2461:2470   */\n      dup9\n        /* \"#utility.yul\":2457:2479   */\n      add\n        /* \"#utility.yul\":2426:2489   */\n      tag_97\n      jump\t// in\n    tag_121:\n        /* \"#utility.yul\":2416:2489   */\n      swap5\n      pop\n        /* \"#utility.yul\":2212:2499   */\n      pop\n        /* \"#utility.yul\":2566:2568   */\n      0x20\n        /* \"#utility.yul\":2555:2564   */\n      dup6\n        /* \"#utility.yul\":2551:2569   */\n      add\n        /* \"#utility.yul\":2538:2570   */\n      calldataload\n        /* \"#utility.yul\":2597:2615   */\n      0xffffffffffffffff\n        /* \"#utility.yul\":2589:2595   */\n      dup2\n        /* \"#utility.yul\":2586:2616   */\n      gt\n        /* \"#utility.yul\":2583:2700   */\n      iszero\n      tag_122\n      jumpi\n        /* \"#utility.yul\":2619:2698   */\n      tag_123\n      tag_113\n      jump\t// in\n    tag_123:\n        /* \"#utility.yul\":2583:2700   */\n    tag_122:\n        /* \"#utility.yul\":2724:2787   */\n      tag_124\n        /* \"#utility.yul\":2779:2786   */\n      dup8\n        /* \"#utility.yul\":2770:2776   */\n      dup3\n        /* \"#utility.yul\":2759:2768   */\n      dup9\n        /* \"#utility.yul\":2755:2777   */\n      add\n        /* \"#utility.yul\":2724:2787   */\n      tag_97\n      jump\t// in\n    tag_124:\n        /* \"#utility.yul\":2714:2787   */\n      swap4\n      pop\n        /* \"#utility.yul\":2509:2797   */\n      pop\n        /* \"#utility.yul\":2864:2866   */\n      0x40\n        /* \"#utility.yul\":2853:2862   */\n      dup6\n        /* \"#utility.yul\":2849:2867   */\n      add\n        /* \"#utility.yul\":2836:2868   */\n      calldataload\n        /* \"#utility.yul\":2895:2913   */\n      0xffffffffffffffff\n        /* \"#utility.yul\":2887:2893   */\n      dup2\n        /* \"#utility.yul\":2884:2914   */\n      gt\n        /* \"#utility.yul\":2881:2998   */\n      iszero\n      tag_125\n      jumpi\n        /* \"#utility.yul\":2917:2996   */\n      tag_126\n      tag_113\n      jump\t// in\n    tag_126:\n        /* \"#utility.yul\":2881:2998   */\n    tag_125:\n        /* \"#utility.yul\":3022:3085   */\n      tag_127\n        /* \"#utility.yul\":3077:3084   */\n      dup8\n        /* \"#utility.yul\":3068:3074   */\n      dup3\n        /* \"#utility.yul\":3057:3066   */\n      dup9\n        /* \"#utility.yul\":3053:3075   */\n      add\n        /* \"#utility.yul\":3022:3085   */\n      tag_97\n      jump\t// in\n    tag_127:\n        /* \"#utility.yul\":3012:3085   */\n      swap3\n      pop\n        /* \"#utility.yul\":2807:3095   */\n      pop\n        /* \"#utility.yul\":3134:3136   */\n      0x60\n        /* \"#utility.yul\":3160:3213   */\n      tag_128\n        /* \"#utility.yul\":3205:3212   */\n      dup8\n        /* \"#utility.yul\":3196:3202   */\n      dup3\n        /* \"#utility.yul\":3185:3194   */\n      dup9\n        /* \"#utility.yul\":3181:3203   */\n      add\n        /* \"#utility.yul\":3160:3213   */\n      tag_93\n      jump\t// in\n    tag_128:\n        /* \"#utility.yul\":3150:3213   */\n      swap2\n      pop\n        /* \"#utility.yul\":3105:3223   */\n      pop\n        /* \"#utility.yul\":1925:3230   */\n      swap3\n      swap6\n      swap2\n      swap5\n      pop\n      swap3\n      pop\n      jump\t// out\n        /* \"#utility.yul\":3236:3345   */\n    tag_129:\n        /* \"#utility.yul\":3317:3338   */\n      tag_131\n        /* \"#utility.yul\":3332:3337   */\n      dup2\n        /* \"#utility.yul\":3317:3338   */\n      tag_132\n      jump\t// in\n    tag_131:\n        /* \"#utility.yul\":3312:3315   */\n      dup3\n        /* \"#utility.yul\":3305:3339   */\n      mstore\n        /* \"#utility.yul\":3236:3345   */\n      pop\n      pop\n      jump\t// out\n        /* \"#utility.yul\":3351:3715   */\n    tag_133:\n        /* \"#utility.yul\":3439:3442   */\n      0x00\n        /* \"#utility.yul\":3467:3506   */\n      tag_135\n        /* \"#utility.yul\":3500:3505   */\n      dup3\n        /* \"#utility.yul\":3467:3506   */\n      tag_136\n      jump\t// in\n    tag_135:\n        /* \"#utility.yul\":3522:3593   */\n      tag_137\n        /* \"#utility.yul\":3586:3592   */\n      dup2\n        /* \"#utility.yul\":3581:3584   */\n      dup6\n        /* \"#utility.yul\":3522:3593   */\n      tag_138\n      jump\t// in\n    tag_137:\n        /* \"#utility.yul\":3515:3593   */\n      swap4\n      pop\n        /* \"#utility.yul\":3602:3654   */\n      tag_139\n        /* \"#utility.yul\":3647:3653   */\n      dup2\n        /* \"#utility.yul\":3642:3645   */\n      dup6\n        /* \"#utility.yul\":3635:3639   */\n      0x20\n        /* \"#utility.yul\":3628:3633   */\n      dup7\n        /* \"#utility.yul\":3624:3640   */\n      add\n        /* \"#utility.yul\":3602:3654   */\n      tag_140\n      jump\t// in\n    tag_139:\n        /* \"#utility.yul\":3679:3708   */\n      tag_141\n        /* \"#utility.yul\":3701:3707   */\n      dup2\n        /* \"#utility.yul\":3679:3708   */\n      tag_142\n      jump\t// in\n    tag_141:\n        /* \"#utility.yul\":3674:3677   */\n      dup5\n        /* \"#utility.yul\":3670:3709   */\n      add\n        /* \"#utility.yul\":3663:3709   */\n      swap2\n      pop\n        /* \"#utility.yul\":3443:3715   */\n      pop\n        /* \"#utility.yul\":3351:3715   */\n      swap3\n      swap2\n      pop\n      pop\n      jump\t// out\n        /* \"#utility.yul\":3721:4087   */\n    tag_143:\n        /* \"#utility.yul\":3863:3866   */\n      0x00\n        /* \"#utility.yul\":3884:3951   */\n      tag_145\n        /* \"#utility.yul\":3948:3950   */\n      0x16\n        /* \"#utility.yul\":3943:3946   */\n      dup4\n        /* \"#utility.yul\":3884:3951   */\n      tag_138\n      jump\t// in\n    tag_145:\n        /* \"#utility.yul\":3877:3951   */\n      swap2\n      pop\n        /* \"#utility.yul\":3960:4053   */\n      tag_146\n        /* \"#utility.yul\":4049:4052   */\n      dup3\n        /* \"#utility.yul\":3960:4053   */\n      tag_147\n      jump\t// in\n    tag_146:\n        /* \"#utility.yul\":4078:4080   */\n      0x20\n        /* \"#utility.yul\":4073:4076   */\n      dup3\n        /* \"#utility.yul\":4069:4081   */\n      add\n        /* \"#utility.yul\":4062:4081   */\n      swap1\n      pop\n        /* \"#utility.yul\":3721:4087   */\n      swap2\n      swap1\n      pop\n      jump\t// out\n        /* \"#utility.yul\":4093:4459   */\n    tag_148:\n        /* \"#utility.yul\":4235:4238   */\n      0x00\n        /* \"#utility.yul\":4256:4323   */\n      tag_150\n        /* \"#utility.yul\":4320:4322   */\n      0x21\n        /* \"#utility.yul\":4315:4318   */\n      dup4\n        /* \"#utility.yul\":4256:4323   */\n      tag_138\n      jump\t// in\n    tag_150:\n        /* \"#utility.yul\":4249:4323   */\n      swap2\n      pop\n        /* \"#utility.yul\":4332:4425   */\n      tag_151\n        /* \"#utility.yul\":4421:4424   */\n      dup3\n        /* \"#utility.yul\":4332:4425   */\n      tag_152\n      jump\t// in\n    tag_151:\n        /* \"#utility.yul\":4450:4452   */\n      0x40\n        /* \"#utility.yul\":4445:4448   */\n      dup3\n        /* \"#utility.yul\":4441:4453   */\n      add\n        /* \"#utility.yul\":4434:4453   */\n      swap1\n      pop\n        /* \"#utility.yul\":4093:4459   */\n      swap2\n      swap1\n      pop\n      jump\t// out\n        /* \"#utility.yul\":4465:4583   */\n    tag_153:\n        /* \"#utility.yul\":4552:4576   */\n      tag_155\n        /* \"#utility.yul\":4570:4575   */\n      dup2\n        /* \"#utility.yul\":4552:4576   */\n      tag_156\n      jump\t// in\n    tag_155:\n        /* \"#utility.yul\":4547:4550   */\n      dup3\n        /* \"#utility.yul\":4540:4577   */\n      mstore\n        /* \"#utility.yul\":4465:4583   */\n      pop\n      pop\n      jump\t// out\n        /* \"#utility.yul\":4589:4799   */\n    tag_34:\n        /* \"#utility.yul\":4676:4680   */\n      0x00\n        /* \"#utility.yul\":4714:4716   */\n      0x20\n        /* \"#utility.yul\":4703:4712   */\n      dup3\n        /* \"#utility.yul\":4699:4717   */\n      add\n        /* \"#utility.yul\":4691:4717   */\n      swap1\n      pop\n        /* \"#utility.yul\":4727:4792   */\n      tag_158\n        /* \"#utility.yul\":4789:4790   */\n      0x00\n        /* \"#utility.yul\":4778:4787   */\n      dup4\n        /* \"#utility.yul\":4774:4791   */\n      add\n        /* \"#utility.yul\":4765:4771   */\n      dup5\n        /* \"#utility.yul\":4727:4792   */\n      tag_129\n      jump\t// in\n    tag_158:\n        /* \"#utility.yul\":4589:4799   */\n      swap3\n      swap2\n      pop\n      pop\n      jump\t// out\n        /* \"#utility.yul\":4805:5118   */\n    tag_22:\n        /* \"#utility.yul\":4918:4922   */\n      0x00\n        /* \"#utility.yul\":4956:4958   */\n      0x20\n        /* \"#utility.yul\":4945:4954   */\n      dup3\n        /* \"#utility.yul\":4941:4959   */\n      add\n        /* \"#utility.yul\":4933:4959   */\n      swap1\n      pop\n        /* \"#utility.yul\":5005:5014   */\n      dup2\n        /* \"#utility.yul\":4999:5003   */\n      dup2\n        /* \"#utility.yul\":4995:5015   */\n      sub\n        /* \"#utility.yul\":4991:4992   */\n      0x00\n        /* \"#utility.yul\":4980:4989   */\n      dup4\n        /* \"#utility.yul\":4976:4993   */\n      add\n        /* \"#utility.yul\":4969:5016   */\n      mstore\n        /* \"#utility.yul\":5033:5111   */\n      tag_160\n        /* \"#utility.yul\":5106:5110   */\n      dup2\n        /* \"#utility.yul\":5097:5103   */\n      dup5\n        /* \"#utility.yul\":5033:5111   */\n      tag_133\n      jump\t// in\n    tag_160:\n        /* \"#utility.yul\":5025:5111   */\n      swap1\n      pop\n        /* \"#utility.yul\":4805:5118   */\n      swap3\n      swap2\n      pop\n      pop\n      jump\t// out\n        /* \"#utility.yul\":5124:5543   */\n    tag_48:\n        /* \"#utility.yul\":5290:5294   */\n      0x00\n        /* \"#utility.yul\":5328:5330   */\n      0x20\n        /* \"#utility.yul\":5317:5326   */\n      dup3\n        /* \"#utility.yul\":5313:5331   */\n      add\n        /* \"#utility.yul\":5305:5331   */\n      swap1\n      pop\n        /* \"#utility.yul\":5377:5386   */\n      dup2\n        /* \"#utility.yul\":5371:5375   */\n      dup2\n        /* \"#utility.yul\":5367:5387   */\n      sub\n        /* \"#utility.yul\":5363:5364   */\n      0x00\n        /* \"#utility.yul\":5352:5361   */\n      dup4\n        /* \"#utility.yul\":5348:5365   */\n      add\n        /* \"#utility.yul\":5341:5388   */\n      mstore\n        /* \"#utility.yul\":5405:5536   */\n      tag_162\n        /* \"#utility.yul\":5531:5535   */\n      dup2\n        /* \"#utility.yul\":5405:5536   */\n      tag_143\n      jump\t// in\n    tag_162:\n        /* \"#utility.yul\":5397:5536   */\n      swap1\n      pop\n        /* \"#utility.yul\":5124:5543   */\n      swap2\n      swap1\n      pop\n      jump\t// out\n        /* \"#utility.yul\":5549:5968   */\n    tag_38:\n        /* \"#utility.yul\":5715:5719   */\n      0x00\n        /* \"#utility.yul\":5753:5755   */\n      0x20\n        /* \"#utility.yul\":5742:5751   */\n      dup3\n        /* \"#utility.yul\":5738:5756   */\n      add\n        /* \"#utility.yul\":5730:5756   */\n      swap1\n      pop\n        /* \"#utility.yul\":5802:5811   */\n      dup2\n        /* \"#utility.yul\":5796:5800   */\n      dup2\n        /* \"#utility.yul\":5792:5812   */\n      sub\n        /* \"#utility.yul\":5788:5789   */\n      0x00\n        /* \"#utility.yul\":5777:5786   */\n      dup4\n        /* \"#utility.yul\":5773:5790   */\n      add\n        /* \"#utility.yul\":5766:5813   */\n      mstore\n        /* \"#utility.yul\":5830:5961   */\n      tag_164\n        /* \"#utility.yul\":5956:5960   */\n      dup2\n        /* \"#utility.yul\":5830:5961   */\n      tag_148\n      jump\t// in\n    tag_164:\n        /* \"#utility.yul\":5822:5961   */\n      swap1\n      pop\n        /* \"#utility.yul\":5549:5968   */\n      swap2\n      swap1\n      pop\n      jump\t// out\n        /* \"#utility.yul\":5974:6196   */\n    tag_12:\n        /* \"#utility.yul\":6067:6071   */\n      0x00\n        /* \"#utility.yul\":6105:6107   */\n      0x20\n        /* \"#utility.yul\":6094:6103   */\n      dup3\n        /* \"#utility.yul\":6090:6108   */\n      add\n        /* \"#utility.yul\":6082:6108   */\n      swap1\n      pop\n        /* \"#utility.yul\":6118:6189   */\n      tag_166\n        /* \"#utility.yul\":6186:6187   */\n      0x00\n        /* \"#utility.yul\":6175:6184   */\n      dup4\n        /* \"#utility.yul\":6171:6188   */\n      add\n        /* \"#utility.yul\":6162:6168   */\n      dup5\n        /* \"#utility.yul\":6118:6189   */\n      tag_153\n      jump\t// in\n    tag_166:\n        /* \"#utility.yul\":5974:6196   */\n      swap3\n      swap2\n      pop\n      pop\n      jump\t// out\n        /* \"#utility.yul\":6202:6331   */\n    tag_87:\n        /* \"#utility.yul\":6236:6242   */\n      0x00\n        /* \"#utility.yul\":6263:6283   */\n      tag_168\n      tag_169\n      jump\t// in\n    tag_168:\n        /* \"#utility.yul\":6253:6283   */\n      swap1\n      pop\n        /* \"#utility.yul\":6292:6325   */\n      tag_170\n        /* \"#utility.yul\":6320:6324   */\n      dup3\n        /* \"#utility.yul\":6312:6318   */\n      dup3\n        /* \"#utility.yul\":6292:6325   */\n      tag_171\n      jump\t// in\n    tag_170:\n        /* \"#utility.yul\":6202:6331   */\n      swap2\n      swap1\n      pop\n      jump\t// out\n        /* \"#utility.yul\":6337:6412   */\n    tag_169:\n        /* \"#utility.yul\":6370:6376   */\n      0x00\n        /* \"#utility.yul\":6403:6405   */\n      0x40\n        /* \"#utility.yul\":6397:6406   */\n      mload\n        /* \"#utility.yul\":6387:6406   */\n      swap1\n      pop\n        /* \"#utility.yul\":6337:6412   */\n      swap1\n      jump\t// out\n        /* \"#utility.yul\":6418:6726   */\n    tag_86:\n        /* \"#utility.yul\":6480:6484   */\n      0x00\n        /* \"#utility.yul\":6570:6588   */\n      0xffffffffffffffff\n        /* \"#utility.yul\":6562:6568   */\n      dup3\n        /* \"#utility.yul\":6559:6589   */\n      gt\n        /* \"#utility.yul\":6556:6612   */\n      iszero\n      tag_174\n      jumpi\n        /* \"#utility.yul\":6592:6610   */\n      tag_175\n      tag_176\n      jump\t// in\n    tag_175:\n        /* \"#utility.yul\":6556:6612   */\n    tag_174:\n        /* \"#utility.yul\":6630:6659   */\n      tag_177\n        /* \"#utility.yul\":6652:6658   */\n      dup3\n        /* \"#utility.yul\":6630:6659   */\n      tag_142\n      jump\t// in\n    tag_177:\n        /* \"#utility.yul\":6622:6659   */\n      swap1\n      pop\n        /* \"#utility.yul\":6714:6718   */\n      0x20\n        /* \"#utility.yul\":6708:6712   */\n      dup2\n        /* \"#utility.yul\":6704:6719   */\n      add\n        /* \"#utility.yul\":6696:6719   */\n      swap1\n      pop\n        /* \"#utility.yul\":6418:6726   */\n      swap2\n      swap1\n      pop\n      jump\t// out\n        /* \"#utility.yul\":6732:6831   */\n    tag_136:\n        /* \"#utility.yul\":6784:6790   */\n      0x00\n        /* \"#utility.yul\":6818:6823   */\n      dup2\n        /* \"#utility.yul\":6812:6824   */\n      mload\n        /* \"#utility.yul\":6802:6824   */\n      swap1\n      pop\n        /* \"#utility.yul\":6732:6831   */\n      swap2\n      swap1\n      pop\n      jump\t// out\n        /* \"#utility.yul\":6837:7006   */\n    tag_138:\n        /* \"#utility.yul\":6921:6932   */\n      0x00\n        /* \"#utility.yul\":6955:6961   */\n      dup3\n        /* \"#utility.yul\":6950:6953   */\n      dup3\n        /* \"#utility.yul\":6943:6962   */\n      mstore\n        /* \"#utility.yul\":6995:6999   */\n      0x20\n        /* \"#utility.yul\":6990:6993   */\n      dup3\n        /* \"#utility.yul\":6986:7000   */\n      add\n        /* \"#utility.yul\":6971:7000   */\n      swap1\n      pop\n        /* \"#utility.yul\":6837:7006   */\n      swap3\n      swap2\n      pop\n      pop\n      jump\t// out\n        /* \"#utility.yul\":7012:7317   */\n    tag_44:\n        /* \"#utility.yul\":7052:7055   */\n      0x00\n        /* \"#utility.yul\":7071:7091   */\n      tag_181\n        /* \"#utility.yul\":7089:7090   */\n      dup3\n        /* \"#utility.yul\":7071:7091   */\n      tag_156\n      jump\t// in\n    tag_181:\n        /* \"#utility.yul\":7066:7091   */\n      swap2\n      pop\n        /* \"#utility.yul\":7105:7125   */\n      tag_182\n        /* \"#utility.yul\":7123:7124   */\n      dup4\n        /* \"#utility.yul\":7105:7125   */\n      tag_156\n      jump\t// in\n    tag_182:\n        /* \"#utility.yul\":7100:7125   */\n      swap3\n      pop\n        /* \"#utility.yul\":7259:7260   */\n      dup3\n        /* \"#utility.yul\":7191:7257   */\n      0xffffffffffffffffffffffffffffffffffffffffffffffffffffffffffffffff\n        /* \"#utility.yul\":7187:7261   */\n      sub\n        /* \"#utility.yul\":7184:7185   */\n      dup3\n        /* \"#utility.yul\":7181:7262   */\n      gt\n        /* \"#utility.yul\":7178:7285   */\n      iszero\n      tag_183\n      jumpi\n        /* \"#utility.yul\":7265:7283   */\n      tag_184\n      tag_185\n      jump\t// in\n    tag_184:\n        /* \"#utility.yul\":7178:7285   */\n    tag_183:\n        /* \"#utility.yul\":7309:7310   */\n      dup3\n        /* \"#utility.yul\":7306:7307   */\n      dup3\n        /* \"#utility.yul\":7302:7311   */\n      add\n        /* \"#utility.yul\":7295:7311   */\n      swap1\n      pop\n        /* \"#utility.yul\":7012:7317   */\n      swap3\n      swap2\n      pop\n      pop\n      jump\t// out\n        /* \"#utility.yul\":7323:7514   */\n    tag_60:\n        /* \"#utility.yul\":7363:7367   */\n      0x00\n        /* \"#utility.yul\":7383:7403   */\n      tag_187\n        /* \"#utility.yul\":7401:7402   */\n      dup3\n        /* \"#utility.yul\":7383:7403   */\n      tag_156\n      jump\t// in\n    tag_187:\n        /* \"#utility.yul\":7378:7403   */\n      swap2\n      pop\n        /* \"#utility.yul\":7417:7437   */\n      tag_188\n        /* \"#utility.yul\":7435:7436   */\n      dup4\n        /* \"#utility.yul\":7417:7437   */\n      tag_156\n      jump\t// in\n    tag_188:\n        /* \"#utility.yul\":7412:7437   */\n      swap3\n      pop\n        /* \"#utility.yul\":7456:7457   */\n      dup3\n        /* \"#utility.yul\":7453:7454   */\n      dup3\n        /* \"#utility.yul\":7450:7458   */\n      lt\n        /* \"#utility.yul\":7447:7481   */\n      iszero\n      tag_189\n      jumpi\n        /* \"#utility.yul\":7461:7479   */\n      tag_190\n      tag_185\n      jump\t// in\n    tag_190:\n        /* \"#utility.yul\":7447:7481   */\n    tag_189:\n        /* \"#utility.yul\":7506:7507   */\n      dup3\n        /* \"#utility.yul\":7503:7504   */\n      dup3\n        /* \"#utility.yul\":7499:7508   */\n      sub\n        /* \"#utility.yul\":7491:7508   */\n      swap1\n      pop\n        /* \"#utility.yul\":7323:7514   */\n      swap3\n      swap2\n      pop\n      pop\n      jump\t// out\n        /* \"#utility.yul\":7520:7616   */\n    tag_191:\n        /* \"#utility.yul\":7557:7564   */\n      0x00\n        /* \"#utility.yul\":7586:7610   */\n      tag_193\n        /* \"#utility.yul\":7604:7609   */\n      dup3\n        /* \"#utility.yul\":7586:7610   */\n      tag_194\n      jump\t// in\n    tag_193:\n        /* \"#utility.yul\":7575:7610   */\n      swap1\n      pop\n        /* \"#utility.yul\":7520:7616   */\n      swap2\n      swap1\n      pop\n      jump\t// out\n        /* \"#utility.yul\":7622:7712   */\n    tag_132:\n        /* \"#utility.yul\":7656:7663   */\n      0x00\n        /* \"#utility.yul\":7699:7704   */\n      dup2\n        /* \"#utility.yul\":7692:7705   */\n      iszero\n        /* \"#utility.yul\":7685:7706   */\n      iszero\n        /* \"#utility.yul\":7674:7706   */\n      swap1\n      pop\n        /* \"#utility.yul\":7622:7712   */\n      swap2\n      swap1\n      pop\n      jump\t// out\n        /* \"#utility.yul\":7718:7844   */\n    tag_194:\n        /* \"#utility.yul\":7755:7762   */\n      0x00\n        /* \"#utility.yul\":7795:7837   */\n      0xffffffffffffffffffffffffffffffffffffffff\n        /* \"#utility.yul\":7788:7793   */\n      dup3\n        /* \"#utility.yul\":7784:7838   */\n      and\n        /* \"#utility.yul\":7773:7838   */\n      swap1\n      pop\n        /* \"#utility.yul\":7718:7844   */\n      swap2\n      swap1\n      pop\n      jump\t// out\n        /* \"#utility.yul\":7850:7927   */\n    tag_156:\n        /* \"#utility.yul\":7887:7894   */\n      0x00\n        /* \"#utility.yul\":7916:7921   */\n      dup2\n        /* \"#utility.yul\":7905:7921   */\n      swap1\n      pop\n        /* \"#utility.yul\":7850:7927   */\n      swap2\n      swap1\n      pop\n      jump\t// out\n        /* \"#utility.yul\":7933:8087   */\n    tag_92:\n        /* \"#utility.yul\":8017:8023   */\n      dup3\n        /* \"#utility.yul\":8012:8015   */\n      dup2\n        /* \"#utility.yul\":8007:8010   */\n      dup4\n        /* \"#utility.yul\":7994:8024   */\n      calldatacopy\n        /* \"#utility.yul\":8079:8080   */\n      0x00\n        /* \"#utility.yul\":8070:8076   */\n      dup4\n        /* \"#utility.yul\":8065:8068   */\n      dup4\n        /* \"#utility.yul\":8061:8077   */\n      add\n        /* \"#utility.yul\":8054:8081   */\n      mstore\n        /* \"#utility.yul\":7933:8087   */\n      pop\n      pop\n      pop\n      jump\t// out\n        /* \"#utility.yul\":8093:8400   */\n    tag_140:\n        /* \"#utility.yul\":8161:8162   */\n      0x00\n        /* \"#utility.yul\":8171:8284   */\n    tag_200:\n        /* \"#utility.yul\":8185:8191   */\n      dup4\n        /* \"#utility.yul\":8182:8183   */\n      dup2\n        /* \"#utility.yul\":8179:8192   */\n      lt\n        /* \"#utility.yul\":8171:8284   */\n      iszero\n      tag_202\n      jumpi\n        /* \"#utility.yul\":8270:8271   */\n      dup1\n        /* \"#utility.yul\":8265:8268   */\n      dup3\n        /* \"#utility.yul\":8261:8272   */\n      add\n        /* \"#utility.yul\":8255:8273   */\n      mload\n        /* \"#utility.yul\":8251:8252   */\n      dup2\n        /* \"#utility.yul\":8246:8249   */\n      dup5\n        /* \"#utility.yul\":8242:8253   */\n      add\n        /* \"#utility.yul\":8235:8274   */\n      mstore\n        /* \"#utility.yul\":8207:8209   */\n      0x20\n        /* \"#utility.yul\":8204:8205   */\n      dup2\n        /* \"#utility.yul\":8200:8210   */\n      add\n        /* \"#utility.yul\":8195:8210   */\n      swap1\n      pop\n        /* \"#utility.yul\":8171:8284   */\n      jump(tag_200)\n    tag_202:\n        /* \"#utility.yul\":8302:8308   */\n      dup4\n        /* \"#utility.yul\":8299:8300   */\n      dup2\n        /* \"#utility.yul\":8296:8309   */\n      gt\n        /* \"#utility.yul\":8293:8394   */\n      iszero\n      tag_203\n      jumpi\n        /* \"#utility.yul\":8382:8383   */\n      0x00\n        /* \"#utility.yul\":8373:8379   */\n      dup5\n        /* \"#utility.yul\":8368:8371   */\n      dup5\n        /* \"#utility.yul\":8364:8380   */\n      add\n        /* \"#utility.yul\":8357:8384   */\n      mstore\n        /* \"#utility.yul\":8293:8394   */\n    tag_203:\n        /* \"#utility.yul\":8142:8400   */\n      pop\n        /* \"#utility.yul\":8093:8400   */\n      pop\n      pop\n      pop\n      jump\t// out\n        /* \"#utility.yul\":8406:8726   */\n    tag_51:\n        /* \"#utility.yul\":8450:8456   */\n      0x00\n        /* \"#utility.yul\":8487:8488   */\n      0x02\n        /* \"#utility.yul\":8481:8485   */\n      dup3\n        /* \"#utility.yul\":8477:8489   */\n      div\n        /* \"#utility.yul\":8467:8489   */\n      swap1\n      pop\n        /* \"#utility.yul\":8534:8535   */\n      0x01\n        /* \"#utility.yul\":8528:8532   */\n      dup3\n        /* \"#utility.yul\":8524:8536   */\n      and\n        /* \"#utility.yul\":8555:8573   */\n      dup1\n        /* \"#utility.yul\":8545:8626   */\n      tag_205\n      jumpi\n        /* \"#utility.yul\":8611:8615   */\n      0x7f\n        /* \"#utility.yul\":8603:8609   */\n      dup3\n        /* \"#utility.yul\":8599:8616   */\n      and\n        /* \"#utility.yul\":8589:8616   */\n      swap2\n      pop\n        /* \"#utility.yul\":8545:8626   */\n    tag_205:\n        /* \"#utility.yul\":8673:8675   */\n      0x20\n        /* \"#utility.yul\":8665:8671   */\n      dup3\n        /* \"#utility.yul\":8662:8676   */\n      lt\n        /* \"#utility.yul\":8642:8660   */\n      dup2\n        /* \"#utility.yul\":8639:8677   */\n      eq\n        /* \"#utility.yul\":8636:8720   */\n      iszero\n      tag_206\n      jumpi\n        /* \"#utility.yul\":8692:8710   */\n      tag_207\n      tag_208\n      jump\t// in\n    tag_207:\n        /* \"#utility.yul\":8636:8720   */\n    tag_206:\n        /* \"#utility.yul\":8457:8726   */\n      pop\n        /* \"#utility.yul\":8406:8726   */\n      swap2\n      swap1\n      pop\n      jump\t// out\n        /* \"#utility.yul\":8732:9013   */\n    tag_171:\n        /* \"#utility.yul\":8815:8842   */\n      tag_210\n        /* \"#utility.yul\":8837:8841   */\n      dup3\n        /* \"#utility.yul\":8815:8842   */\n      tag_142\n      jump\t// in\n    tag_210:\n        /* \"#utility.yul\":8807:8813   */\n      dup2\n        /* \"#utility.yul\":8803:8843   */\n      add\n        /* \"#utility.yul\":8945:8951   */\n      dup2\n        /* \"#utility.yul\":8933:8943   */\n      dup2\n        /* \"#utility.yul\":8930:8952   */\n      lt\n        /* \"#utility.yul\":8909:8927   */\n      0xffffffffffffffff\n        /* \"#utility.yul\":8897:8907   */\n      dup3\n        /* \"#utility.yul\":8894:8928   */\n      gt\n        /* \"#utility.yul\":8891:8953   */\n      or\n        /* \"#utility.yul\":8888:8976   */\n      iszero\n      tag_211\n      jumpi\n        /* \"#utility.yul\":8956:8974   */\n      tag_212\n      tag_176\n      jump\t// in\n    tag_212:\n        /* \"#utility.yul\":8888:8976   */\n    tag_211:\n        /* \"#utility.yul\":8996:9006   */\n      dup1\n        /* \"#utility.yul\":8992:8994   */\n      0x40\n        /* \"#utility.yul\":8985:9007   */\n      mstore\n        /* \"#utility.yul\":8775:9013   */\n      pop\n        /* \"#utility.yul\":8732:9013   */\n      pop\n      pop\n      jump\t// out\n        /* \"#utility.yul\":9019:9199   */\n    tag_185:\n        /* \"#utility.yul\":9067:9144   */\n      0x4e487b7100000000000000000000000000000000000000000000000000000000\n        /* \"#utility.yul\":9064:9065   */\n      0x00\n        /* \"#utility.yul\":9057:9145   */\n      mstore\n        /* \"#utility.yul\":9164:9168   */\n      0x11\n        /* \"#utility.yul\":9161:9162   */\n      0x04\n        /* \"#utility.yul\":9154:9169   */\n      mstore\n        /* \"#utility.yul\":9188:9192   */\n      0x24\n        /* \"#utility.yul\":9185:9186   */\n      0x00\n        /* \"#utility.yul\":9178:9193   */\n      revert\n        /* \"#utility.yul\":9205:9385   */\n    tag_208:\n        /* \"#utility.yul\":9253:9330   */\n      0x4e487b7100000000000000000000000000000000000000000000000000000000\n        /* \"#utility.yul\":9250:9251   */\n      0x00\n        /* \"#utility.yul\":9243:9331   */\n      mstore\n        /* \"#utility.yul\":9350:9354   */\n      0x22\n        /* \"#utility.yul\":9347:9348   */\n      0x04\n        /* \"#utility.yul\":9340:9355   */\n      mstore\n        /* \"#utility.yul\":9374:9378   */\n      0x24\n        /* \"#utility.yul\":9371:9372   */\n      0x00\n        /* \"#utility.yul\":9364:9379   */\n      revert\n        /* \"#utility.yul\":9391:9571   */\n    tag_176:\n        /* \"#utility.yul\":9439:9516   */\n      0x4e487b7100000000000000000000000000000000000000000000000000000000\n        /* \"#utility.yul\":9436:9437   */\n      0x00\n        /* \"#utility.yul\":9429:9517   */\n      mstore\n        /* \"#utility.yul\":9536:9540   */\n      0x41\n        /* \"#utility.yul\":9533:9534   */\n      0x04\n        /* \"#utility.yul\":9526:9541   */\n      mstore\n        /* \"#utility.yul\":9560:9564   */\n      0x24\n        /* \"#utility.yul\":9557:9558   */\n      0x00\n        /* \"#utility.yul\":9550:9565   */\n      revert\n        /* \"#utility.yul\":9577:9694   */\n    tag_101:\n        /* \"#utility.yul\":9686:9687   */\n      0x00\n        /* \"#utility.yul\":9683:9684   */\n      dup1\n        /* \"#utility.yul\":9676:9688   */\n      revert\n        /* \"#utility.yul\":9700:9817   */\n    tag_90:\n        /* \"#utility.yul\":9809:9810   */\n      0x00\n        /* \"#utility.yul\":9806:9807   */\n      dup1\n        /* \"#utility.yul\":9799:9811   */\n      revert\n        /* \"#utility.yul\":9823:9940   */\n    tag_113:\n        /* \"#utility.yul\":9932:9933   */\n      0x00\n        /* \"#utility.yul\":9929:9930   */\n      dup1\n        /* \"#utility.yul\":9922:9934   */\n      revert\n        /* \"#utility.yul\":9946:10063   */\n    tag_106:\n        /* \"#utility.yul\":10055:10056   */\n      0x00\n        /* \"#utility.yul\":10052:10053   */\n      dup1\n        /* \"#utility.yul\":10045:10057   */\n      revert\n        /* \"#utility.yul\":10069:10171   */\n    tag_142:\n        /* \"#utility.yul\":10110:10116   */\n      0x00\n        /* \"#utility.yul\":10161:10163   */\n      0x1f\n        /* \"#utility.yul\":10157:10164   */\n      not\n        /* \"#utility.yul\":10152:10154   */\n      0x1f\n        /* \"#utility.yul\":10145:10150   */\n      dup4\n        /* \"#utility.yul\":10141:10155   */\n      add\n        /* \"#utility.yul\":10137:10165   */\n      and\n        /* \"#utility.yul\":10127:10165   */\n      swap1\n      pop\n        /* \"#utility.yul\":10069:10171   */\n      swap2\n      swap1\n      pop\n      jump\t// out\n        /* \"#utility.yul\":10177:10349   */\n    tag_147:\n        /* \"#utility.yul\":10317:10341   */\n      0x50726f66696c6520646f6573206e6f7420657869737400000000000000000000\n        /* \"#utility.yul\":10313:10314   */\n      0x00\n        /* \"#utility.yul\":10305:10311   */\n      dup3\n        /* \"#utility.yul\":10301:10315   */\n      add\n        /* \"#utility.yul\":10294:10342   */\n      mstore\n        /* \"#utility.yul\":10177:10349   */\n      pop\n      jump\t// out\n        /* \"#utility.yul\":10355:10575   */\n    tag_152:\n        /* \"#utility.yul\":10495:10529   */\n      0x43616e6e6f7420637265617465206d6f7265207468616e20312070726f66696c\n        /* \"#utility.yul\":10491:10492   */\n      0x00\n        /* \"#utility.yul\":10483:10489   */\n      dup3\n        /* \"#utility.yul\":10479:10493   */\n      add\n        /* \"#utility.yul\":10472:10530   */\n      mstore\n        /* \"#utility.yul\":10564:10567   */\n      0x6500000000000000000000000000000000000000000000000000000000000000\n        /* \"#utility.yul\":10559:10561   */\n      0x20\n        /* \"#utility.yul\":10551:10557   */\n      dup3\n        /* \"#utility.yul\":10547:10562   */\n      add\n        /* \"#utility.yul\":10540:10568   */\n      mstore\n        /* \"#utility.yul\":10355:10575   */\n      pop\n      jump\t// out\n        /* \"#utility.yul\":10581:10703   */\n    tag_96:\n        /* \"#utility.yul\":10654:10678   */\n      tag_224\n        /* \"#utility.yul\":10672:10677   */\n      dup2\n        /* \"#utility.yul\":10654:10678   */\n      tag_191\n      jump\t// in\n    tag_224:\n        /* \"#utility.yul\":10647:10652   */\n      dup2\n        /* \"#utility.yul\":10644:10679   */\n      eq\n        /* \"#utility.yul\":10634:10697   */\n      tag_225\n      jumpi\n        /* \"#utility.yul\":10693:10694   */\n      0x00\n        /* \"#utility.yul\":10690:10691   */\n      dup1\n        /* \"#utility.yul\":10683:10695   */\n      revert\n        /* \"#utility.yul\":10634:10697   */\n    tag_225:\n        /* \"#utility.yul\":10581:10703   */\n      pop\n      jump\t// out\n\n    auxdata: 0xa264697066735822122034d21df8bf89ce8e0a183f7950d8c56cfd34c5eea442a21210cc8e2356c4e4f864736f6c63430008070033\n}\n",
				"bytecode": {
					"linkReferences": {},
					"object": "6080604052600060015534801561001557600080fd5b50610e90806100256000396000f3fe608060405234801561001057600080fd5b50600436106100625760003560e01c8063169134691461006757806322a9d1bc146100855780635fd4b08a146100a1578063a0441f29146100d1578063b94864eb146100ed578063be1459b114610109575b600080fd5b61006f610139565b60405161007c9190610b15565b60405180910390f35b61009f600480360381019061009a9190610940565b61013f565b005b6100bb60048036038101906100b691906108b7565b610333565b6040516100c89190610ab3565b60405180910390f35b6100eb60048036038101906100e691906108b7565b61049d565b005b610107600480360381019061010291906108e4565b6105a3565b005b610123600480360381019061011e91906108b7565b610692565b6040516101309190610a98565b60405180910390f35b60015481565b600015156000808373ffffffffffffffffffffffffffffffffffffffff1673ffffffffffffffffffffffffffffffffffffffff16815260200190815260200160002060030160149054906101000a900460ff161515146101d4576040517f08c379a00000000000000000000000000000000000000000000000000000000081526004016101cb90610af5565b60405180910390fd5b60006040518060a001604052808681526020018581526020018481526020018373ffffffffffffffffffffffffffffffffffffffff168152602001600115158152509050806000808473ffffffffffffffffffffffffffffffffffffffff1673ffffffffffffffffffffffffffffffffffffffff168152602001908152602001600020600082015181600001908051906020019061027392919061078f565b50602082015181600101908051906020019061029092919061078f565b5060408201518160020190805190602001906102ad92919061078f565b5060608201518160030160006101000a81548173ffffffffffffffffffffffffffffffffffffffff021916908373ffffffffffffffffffffffffffffffffffffffff16021790555060808201518160030160146101000a81548160ff021916908315150217905550905050600180546103269190610ba2565b6001819055505050505050565b606081600115156000808373ffffffffffffffffffffffffffffffffffffffff1673ffffffffffffffffffffffffffffffffffffffff16815260200190815260200160002060030160149054906101000a900460ff161515146103cb576040517f08c379a00000000000000000000000000000000000000000000000000000000081526004016103c290610ad5565b60405180910390fd5b6000808473ffffffffffffffffffffffffffffffffffffffff1673ffffffffffffffffffffffffffffffffffffffff168152602001908152602001600020600001805461041790610cb6565b80601f016020809104026020016040519081016040528092919081815260200182805461044390610cb6565b80156104905780601f1061046557610100808354040283529160200191610490565b820191906000526020600020905b81548152906001019060200180831161047357829003601f168201915b5050505050915050919050565b600115156000808373ffffffffffffffffffffffffffffffffffffffff1673ffffffffffffffffffffffffffffffffffffffff16815260200190815260200160002060030160149054906101000a900460ff16151514610532576040517f08c379a000000000000000000000000000000000000000000000000000000000815260040161052990610ad5565b60405180910390fd5b60008060008373ffffffffffffffffffffffffffffffffffffffff1673ffffffffffffffffffffffffffffffffffffffff16815260200190815260200160002060030160146101000a81548160ff0219169083151502179055506001805461059a9190610bf8565b60018190555050565b600115156000808373ffffffffffffffffffffffffffffffffffffffff1673ffffffffffffffffffffffffffffffffffffffff16815260200190815260200160002060030160149054906101000a900460ff16151514610638576040517f08c379a000000000000000000000000000000000000000000000000000000000815260040161062f90610ad5565b60405180910390fd5b816000808373ffffffffffffffffffffffffffffffffffffffff1673ffffffffffffffffffffffffffffffffffffffff168152602001908152602001600020600001908051906020019061068d92919061078f565b505050565b600081600115156000808373ffffffffffffffffffffffffffffffffffffffff1673ffffffffffffffffffffffffffffffffffffffff16815260200190815260200160002060030160149054906101000a900460ff1615151461072a576040517f08c379a000000000000000000000000000000000000000000000000000000000815260040161072190610ad5565b60405180910390fd5b6000808473ffffffffffffffffffffffffffffffffffffffff1673ffffffffffffffffffffffffffffffffffffffff16815260200190815260200160002060030160149054906101000a900460ff16610784576000610787565b60015b915050919050565b82805461079b90610cb6565b90600052602060002090601f0160209004810192826107bd5760008555610804565b82601f106107d657805160ff1916838001178555610804565b82800160010185558215610804579182015b828111156108035782518255916020019190600101906107e8565b5b5090506108119190610815565b5090565b5b8082111561082e576000816000905550600101610816565b5090565b600061084561084084610b55565b610b30565b90508281526020810184848401111561086157610860610dab565b5b61086c848285610c74565b509392505050565b60008135905061088381610e43565b92915050565b600082601f83011261089e5761089d610da6565b5b81356108ae848260208601610832565b91505092915050565b6000602082840312156108cd576108cc610db5565b5b60006108db84828501610874565b91505092915050565b600080604083850312156108fb576108fa610db5565b5b600083013567ffffffffffffffff81111561091957610918610db0565b5b61092585828601610889565b925050602061093685828601610874565b9150509250929050565b6000806000806080858703121561095a57610959610db5565b5b600085013567ffffffffffffffff81111561097857610977610db0565b5b61098487828801610889565b945050602085013567ffffffffffffffff8111156109a5576109a4610db0565b5b6109b187828801610889565b935050604085013567ffffffffffffffff8111156109d2576109d1610db0565b5b6109de87828801610889565b92505060606109ef87828801610874565b91505092959194509250565b610a0481610c3e565b82525050565b6000610a1582610b86565b610a1f8185610b91565b9350610a2f818560208601610c83565b610a3881610dba565b840191505092915050565b6000610a50601683610b91565b9150610a5b82610dcb565b602082019050919050565b6000610a73602183610b91565b9150610a7e82610df4565b604082019050919050565b610a9281610c6a565b82525050565b6000602082019050610aad60008301846109fb565b92915050565b60006020820190508181036000830152610acd8184610a0a565b905092915050565b60006020820190508181036000830152610aee81610a43565b9050919050565b60006020820190508181036000830152610b0e81610a66565b9050919050565b6000602082019050610b2a6000830184610a89565b92915050565b6000610b3a610b4b565b9050610b468282610ce8565b919050565b6000604051905090565b600067ffffffffffffffff821115610b7057610b6f610d77565b5b610b7982610dba565b9050602081019050919050565b600081519050919050565b600082825260208201905092915050565b6000610bad82610c6a565b9150610bb883610c6a565b9250827fffffffffffffffffffffffffffffffffffffffffffffffffffffffffffffffff03821115610bed57610bec610d19565b5b828201905092915050565b6000610c0382610c6a565b9150610c0e83610c6a565b925082821015610c2157610c20610d19565b5b828203905092915050565b6000610c3782610c4a565b9050919050565b60008115159050919050565b600073ffffffffffffffffffffffffffffffffffffffff82169050919050565b6000819050919050565b82818337600083830152505050565b60005b83811015610ca1578082015181840152602081019050610c86565b83811115610cb0576000848401525b50505050565b60006002820490506001821680610cce57607f821691505b60208210811415610ce257610ce1610d48565b5b50919050565b610cf182610dba565b810181811067ffffffffffffffff82111715610d1057610d0f610d77565b5b80604052505050565b7f4e487b7100000000000000000000000000000000000000000000000000000000600052601160045260246000fd5b7f4e487b7100000000000000000000000000000000000000000000000000000000600052602260045260246000fd5b7f4e487b7100000000000000000000000000000000000000000000000000000000600052604160045260246000fd5b600080fd5b600080fd5b600080fd5b600080fd5b6000601f19601f8301169050919050565b7f50726f66696c6520646f6573206e6f7420657869737400000000000000000000600082015250565b7f43616e6e6f7420637265617465206d6f7265207468616e20312070726f66696c60008201527f6500000000000000000000000000000000000000000000000000000000000000602082015250565b610e4c81610c2c565b8114610e5757600080fd5b5056fea264697066735822122034d21df8bf89ce8e0a183f7950d8c56cfd34c5eea442a21210cc8e2356c4e4f864736f6c63430008070033",
					"opcodes": "PUSH1 0x80 PUSH1 0x40 MSTORE PUSH1 0x0 PUSH1 0x1 SSTORE CALLVALUE DUP1 ISZERO PUSH2 0x15 JUMPI PUSH1 0x0 DUP1 REVERT JUMPDEST POP PUSH2 0xE90 DUP1 PUSH2 0x25 PUSH1 0x0 CODECOPY PUSH1 0x0 RETURN INVALID PUSH1 0x80 PUSH1 0x40 MSTORE CALLVALUE DUP1 ISZERO PUSH2 0x10 JUMPI PUSH1 0x0 DUP1 REVERT JUMPDEST POP PUSH1 0x4 CALLDATASIZE LT PUSH2 0x62 JUMPI PUSH1 0x0 CALLDATALOAD PUSH1 0xE0 SHR DUP1 PUSH4 0x16913469 EQ PUSH2 0x67 JUMPI DUP1 PUSH4 0x22A9D1BC EQ PUSH2 0x85 JUMPI DUP1 PUSH4 0x5FD4B08A EQ PUSH2 0xA1 JUMPI DUP1 PUSH4 0xA0441F29 EQ PUSH2 0xD1 JUMPI DUP1 PUSH4 0xB94864EB EQ PUSH2 0xED JUMPI DUP1 PUSH4 0xBE1459B1 EQ PUSH2 0x109 JUMPI JUMPDEST PUSH1 0x0 DUP1 REVERT JUMPDEST PUSH2 0x6F PUSH2 0x139 JUMP JUMPDEST PUSH1 0x40 MLOAD PUSH2 0x7C SWAP2 SWAP1 PUSH2 0xB15 JUMP JUMPDEST PUSH1 0x40 MLOAD DUP1 SWAP2 SUB SWAP1 RETURN JUMPDEST PUSH2 0x9F PUSH1 0x4 DUP1 CALLDATASIZE SUB DUP2 ADD SWAP1 PUSH2 0x9A SWAP2 SWAP1 PUSH2 0x940 JUMP JUMPDEST PUSH2 0x13F JUMP JUMPDEST STOP JUMPDEST PUSH2 0xBB PUSH1 0x4 DUP1 CALLDATASIZE SUB DUP2 ADD SWAP1 PUSH2 0xB6 SWAP2 SWAP1 PUSH2 0x8B7 JUMP JUMPDEST PUSH2 0x333 JUMP JUMPDEST PUSH1 0x40 MLOAD PUSH2 0xC8 SWAP2 SWAP1 PUSH2 0xAB3 JUMP JUMPDEST PUSH1 0x40 MLOAD DUP1 SWAP2 SUB SWAP1 RETURN JUMPDEST PUSH2 0xEB PUSH1 0x4 DUP1 CALLDATASIZE SUB DUP2 ADD SWAP1 PUSH2 0xE6 SWAP2 SWAP1 PUSH2 0x8B7 JUMP JUMPDEST PUSH2 0x49D JUMP JUMPDEST STOP JUMPDEST PUSH2 0x107 PUSH1 0x4 DUP1 CALLDATASIZE SUB DUP2 ADD SWAP1 PUSH2 0x102 SWAP2 SWAP1 PUSH2 0x8E4 JUMP JUMPDEST PUSH2 0x5A3 JUMP JUMPDEST STOP JUMPDEST PUSH2 0x123 PUSH1 0x4 DUP1 CALLDATASIZE SUB DUP2 ADD SWAP1 PUSH2 0x11E SWAP2 SWAP1 PUSH2 0x8B7 JUMP JUMPDEST PUSH2 0x692 JUMP JUMPDEST PUSH1 0x40 MLOAD PUSH2 0x130 SWAP2 SWAP1 PUSH2 0xA98 JUMP JUMPDEST PUSH1 0x40 MLOAD DUP1 SWAP2 SUB SWAP1 RETURN JUMPDEST PUSH1 0x1 SLOAD DUP2 JUMP JUMPDEST PUSH1 0x0 ISZERO ISZERO PUSH1 0x0 DUP1 DUP4 PUSH20 0xFFFFFFFFFFFFFFFFFFFFFFFFFFFFFFFFFFFFFFFF AND PUSH20 0xFFFFFFFFFFFFFFFFFFFFFFFFFFFFFFFFFFFFFFFF AND DUP2 MSTORE PUSH1 0x20 ADD SWAP1 DUP2 MSTORE PUSH1 0x20 ADD PUSH1 0x0 KECCAK256 PUSH1 0x3 ADD PUSH1 0x14 SWAP1 SLOAD SWAP1 PUSH2 0x100 EXP SWAP1 DIV PUSH1 0xFF AND ISZERO ISZERO EQ PUSH2 0x1D4 JUMPI PUSH1 0x40 MLOAD PUSH32 0x8C379A000000000000000000000000000000000000000000000000000000000 DUP2 MSTORE PUSH1 0x4 ADD PUSH2 0x1CB SWAP1 PUSH2 0xAF5 JUMP JUMPDEST PUSH1 0x40 MLOAD DUP1 SWAP2 SUB SWAP1 REVERT JUMPDEST PUSH1 0x0 PUSH1 0x40 MLOAD DUP1 PUSH1 0xA0 ADD PUSH1 0x40 MSTORE DUP1 DUP7 DUP2 MSTORE PUSH1 0x20 ADD DUP6 DUP2 MSTORE PUSH1 0x20 ADD DUP5 DUP2 MSTORE PUSH1 0x20 ADD DUP4 PUSH20 0xFFFFFFFFFFFFFFFFFFFFFFFFFFFFFFFFFFFFFFFF AND DUP2 MSTORE PUSH1 0x20 ADD PUSH1 0x1 ISZERO ISZERO DUP2 MSTORE POP SWAP1 POP DUP1 PUSH1 0x0 DUP1 DUP5 PUSH20 0xFFFFFFFFFFFFFFFFFFFFFFFFFFFFFFFFFFFFFFFF AND PUSH20 0xFFFFFFFFFFFFFFFFFFFFFFFFFFFFFFFFFFFFFFFF AND DUP2 MSTORE PUSH1 0x20 ADD SWAP1 DUP2 MSTORE PUSH1 0x20 ADD PUSH1 0x0 KECCAK256 PUSH1 0x0 DUP3 ADD MLOAD DUP2 PUSH1 0x0 ADD SWAP1 DUP1 MLOAD SWAP1 PUSH1 0x20 ADD SWAP1 PUSH2 0x273 SWAP3 SWAP2 SWAP1 PUSH2 0x78F JUMP JUMPDEST POP PUSH1 0x20 DUP3 ADD MLOAD DUP2 PUSH1 0x1 ADD SWAP1 DUP1 MLOAD SWAP1 PUSH1 0x20 ADD SWAP1 PUSH2 0x290 SWAP3 SWAP2 SWAP1 PUSH2 0x78F JUMP JUMPDEST POP PUSH1 0x40 DUP3 ADD MLOAD DUP2 PUSH1 0x2 ADD SWAP1 DUP1 MLOAD SWAP1 PUSH1 0x20 ADD SWAP1 PUSH2 0x2AD SWAP3 SWAP2 SWAP1 PUSH2 0x78F JUMP JUMPDEST POP PUSH1 0x60 DUP3 ADD MLOAD DUP2 PUSH1 0x3 ADD PUSH1 0x0 PUSH2 0x100 EXP DUP2 SLOAD DUP2 PUSH20 0xFFFFFFFFFFFFFFFFFFFFFFFFFFFFFFFFFFFFFFFF MUL NOT AND SWAP1 DUP4 PUSH20 0xFFFFFFFFFFFFFFFFFFFFFFFFFFFFFFFFFFFFFFFF AND MUL OR SWAP1 SSTORE POP PUSH1 0x80 DUP3 ADD MLOAD DUP2 PUSH1 0x3 ADD PUSH1 0x14 PUSH2 0x100 EXP DUP2 SLOAD DUP2 PUSH1 0xFF MUL NOT AND SWAP1 DUP4 ISZERO ISZERO MUL OR SWAP1 SSTORE POP SWAP1 POP POP PUSH1 0x1 DUP1 SLOAD PUSH2 0x326 SWAP2 SWAP1 PUSH2 0xBA2 JUMP JUMPDEST PUSH1 0x1 DUP2 SWAP1 SSTORE POP POP POP POP POP POP JUMP JUMPDEST PUSH1 0x60 DUP2 PUSH1 0x1 ISZERO ISZERO PUSH1 0x0 DUP1 DUP4 PUSH20 0xFFFFFFFFFFFFFFFFFFFFFFFFFFFFFFFFFFFFFFFF AND PUSH20 0xFFFFFFFFFFFFFFFFFFFFFFFFFFFFFFFFFFFFFFFF AND DUP2 MSTORE PUSH1 0x20 ADD SWAP1 DUP2 MSTORE PUSH1 0x20 ADD PUSH1 0x0 KECCAK256 PUSH1 0x3 ADD PUSH1 0x14 SWAP1 SLOAD SWAP1 PUSH2 0x100 EXP SWAP1 DIV PUSH1 0xFF AND ISZERO ISZERO EQ PUSH2 0x3CB JUMPI PUSH1 0x40 MLOAD PUSH32 0x8C379A000000000000000000000000000000000000000000000000000000000 DUP2 MSTORE PUSH1 0x4 ADD PUSH2 0x3C2 SWAP1 PUSH2 0xAD5 JUMP JUMPDEST PUSH1 0x40 MLOAD DUP1 SWAP2 SUB SWAP1 REVERT JUMPDEST PUSH1 0x0 DUP1 DUP5 PUSH20 0xFFFFFFFFFFFFFFFFFFFFFFFFFFFFFFFFFFFFFFFF AND PUSH20 0xFFFFFFFFFFFFFFFFFFFFFFFFFFFFFFFFFFFFFFFF AND DUP2 MSTORE PUSH1 0x20 ADD SWAP1 DUP2 MSTORE PUSH1 0x20 ADD PUSH1 0x0 KECCAK256 PUSH1 0x0 ADD DUP1 SLOAD PUSH2 0x417 SWAP1 PUSH2 0xCB6 JUMP JUMPDEST DUP1 PUSH1 0x1F ADD PUSH1 0x20 DUP1 SWAP2 DIV MUL PUSH1 0x20 ADD PUSH1 0x40 MLOAD SWAP1 DUP2 ADD PUSH1 0x40 MSTORE DUP1 SWAP3 SWAP2 SWAP1 DUP2 DUP2 MSTORE PUSH1 0x20 ADD DUP3 DUP1 SLOAD PUSH2 0x443 SWAP1 PUSH2 0xCB6 JUMP JUMPDEST DUP1 ISZERO PUSH2 0x490 JUMPI DUP1 PUSH1 0x1F LT PUSH2 0x465 JUMPI PUSH2 0x100 DUP1 DUP4 SLOAD DIV MUL DUP4 MSTORE SWAP2 PUSH1 0x20 ADD SWAP2 PUSH2 0x490 JUMP JUMPDEST DUP3 ADD SWAP2 SWAP1 PUSH1 0x0 MSTORE PUSH1 0x20 PUSH1 0x0 KECCAK256 SWAP1 JUMPDEST DUP2 SLOAD DUP2 MSTORE SWAP1 PUSH1 0x1 ADD SWAP1 PUSH1 0x20 ADD DUP1 DUP4 GT PUSH2 0x473 JUMPI DUP3 SWAP1 SUB PUSH1 0x1F AND DUP3 ADD SWAP2 JUMPDEST POP POP POP POP POP SWAP2 POP POP SWAP2 SWAP1 POP JUMP JUMPDEST PUSH1 0x1 ISZERO ISZERO PUSH1 0x0 DUP1 DUP4 PUSH20 0xFFFFFFFFFFFFFFFFFFFFFFFFFFFFFFFFFFFFFFFF AND PUSH20 0xFFFFFFFFFFFFFFFFFFFFFFFFFFFFFFFFFFFFFFFF AND DUP2 MSTORE PUSH1 0x20 ADD SWAP1 DUP2 MSTORE PUSH1 0x20 ADD PUSH1 0x0 KECCAK256 PUSH1 0x3 ADD PUSH1 0x14 SWAP1 SLOAD SWAP1 PUSH2 0x100 EXP SWAP1 DIV PUSH1 0xFF AND ISZERO ISZERO EQ PUSH2 0x532 JUMPI PUSH1 0x40 MLOAD PUSH32 0x8C379A000000000000000000000000000000000000000000000000000000000 DUP2 MSTORE PUSH1 0x4 ADD PUSH2 0x529 SWAP1 PUSH2 0xAD5 JUMP JUMPDEST PUSH1 0x40 MLOAD DUP1 SWAP2 SUB SWAP1 REVERT JUMPDEST PUSH1 0x0 DUP1 PUSH1 0x0 DUP4 PUSH20 0xFFFFFFFFFFFFFFFFFFFFFFFFFFFFFFFFFFFFFFFF AND PUSH20 0xFFFFFFFFFFFFFFFFFFFFFFFFFFFFFFFFFFFFFFFF AND DUP2 MSTORE PUSH1 0x20 ADD SWAP1 DUP2 MSTORE PUSH1 0x20 ADD PUSH1 0x0 KECCAK256 PUSH1 0x3 ADD PUSH1 0x14 PUSH2 0x100 EXP DUP2 SLOAD DUP2 PUSH1 0xFF MUL NOT AND SWAP1 DUP4 ISZERO ISZERO MUL OR SWAP1 SSTORE POP PUSH1 0x1 DUP1 SLOAD PUSH2 0x59A SWAP2 SWAP1 PUSH2 0xBF8 JUMP JUMPDEST PUSH1 0x1 DUP2 SWAP1 SSTORE POP POP JUMP JUMPDEST PUSH1 0x1 ISZERO ISZERO PUSH1 0x0 DUP1 DUP4 PUSH20 0xFFFFFFFFFFFFFFFFFFFFFFFFFFFFFFFFFFFFFFFF AND PUSH20 0xFFFFFFFFFFFFFFFFFFFFFFFFFFFFFFFFFFFFFFFF AND DUP2 MSTORE PUSH1 0x20 ADD SWAP1 DUP2 MSTORE PUSH1 0x20 ADD PUSH1 0x0 KECCAK256 PUSH1 0x3 ADD PUSH1 0x14 SWAP1 SLOAD SWAP1 PUSH2 0x100 EXP SWAP1 DIV PUSH1 0xFF AND ISZERO ISZERO EQ PUSH2 0x638 JUMPI PUSH1 0x40 MLOAD PUSH32 0x8C379A000000000000000000000000000000000000000000000000000000000 DUP2 MSTORE PUSH1 0x4 ADD PUSH2 0x62F SWAP1 PUSH2 0xAD5 JUMP JUMPDEST PUSH1 0x40 MLOAD DUP1 SWAP2 SUB SWAP1 REVERT JUMPDEST DUP2 PUSH1 0x0 DUP1 DUP4 PUSH20 0xFFFFFFFFFFFFFFFFFFFFFFFFFFFFFFFFFFFFFFFF AND PUSH20 0xFFFFFFFFFFFFFFFFFFFFFFFFFFFFFFFFFFFFFFFF AND DUP2 MSTORE PUSH1 0x20 ADD SWAP1 DUP2 MSTORE PUSH1 0x20 ADD PUSH1 0x0 KECCAK256 PUSH1 0x0 ADD SWAP1 DUP1 MLOAD SWAP1 PUSH1 0x20 ADD SWAP1 PUSH2 0x68D SWAP3 SWAP2 SWAP1 PUSH2 0x78F JUMP JUMPDEST POP POP POP JUMP JUMPDEST PUSH1 0x0 DUP2 PUSH1 0x1 ISZERO ISZERO PUSH1 0x0 DUP1 DUP4 PUSH20 0xFFFFFFFFFFFFFFFFFFFFFFFFFFFFFFFFFFFFFFFF AND PUSH20 0xFFFFFFFFFFFFFFFFFFFFFFFFFFFFFFFFFFFFFFFF AND DUP2 MSTORE PUSH1 0x20 ADD SWAP1 DUP2 MSTORE PUSH1 0x20 ADD PUSH1 0x0 KECCAK256 PUSH1 0x3 ADD PUSH1 0x14 SWAP1 SLOAD SWAP1 PUSH2 0x100 EXP SWAP1 DIV PUSH1 0xFF AND ISZERO ISZERO EQ PUSH2 0x72A JUMPI PUSH1 0x40 MLOAD PUSH32 0x8C379A000000000000000000000000000000000000000000000000000000000 DUP2 MSTORE PUSH1 0x4 ADD PUSH2 0x721 SWAP1 PUSH2 0xAD5 JUMP JUMPDEST PUSH1 0x40 MLOAD DUP1 SWAP2 SUB SWAP1 REVERT JUMPDEST PUSH1 0x0 DUP1 DUP5 PUSH20 0xFFFFFFFFFFFFFFFFFFFFFFFFFFFFFFFFFFFFFFFF AND PUSH20 0xFFFFFFFFFFFFFFFFFFFFFFFFFFFFFFFFFFFFFFFF AND DUP2 MSTORE PUSH1 0x20 ADD SWAP1 DUP2 MSTORE PUSH1 0x20 ADD PUSH1 0x0 KECCAK256 PUSH1 0x3 ADD PUSH1 0x14 SWAP1 SLOAD SWAP1 PUSH2 0x100 EXP SWAP1 DIV PUSH1 0xFF AND PUSH2 0x784 JUMPI PUSH1 0x0 PUSH2 0x787 JUMP JUMPDEST PUSH1 0x1 JUMPDEST SWAP2 POP POP SWAP2 SWAP1 POP JUMP JUMPDEST DUP3 DUP1 SLOAD PUSH2 0x79B SWAP1 PUSH2 0xCB6 JUMP JUMPDEST SWAP1 PUSH1 0x0 MSTORE PUSH1 0x20 PUSH1 0x0 KECCAK256 SWAP1 PUSH1 0x1F ADD PUSH1 0x20 SWAP1 DIV DUP2 ADD SWAP3 DUP3 PUSH2 0x7BD JUMPI PUSH1 0x0 DUP6 SSTORE PUSH2 0x804 JUMP JUMPDEST DUP3 PUSH1 0x1F LT PUSH2 0x7D6 JUMPI DUP1 MLOAD PUSH1 0xFF NOT AND DUP4 DUP1 ADD OR DUP6 SSTORE PUSH2 0x804 JUMP JUMPDEST DUP3 DUP1 ADD PUSH1 0x1 ADD DUP6 SSTORE DUP3 ISZERO PUSH2 0x804 JUMPI SWAP2 DUP3 ADD JUMPDEST DUP3 DUP2 GT ISZERO PUSH2 0x803 JUMPI DUP3 MLOAD DUP3 SSTORE SWAP2 PUSH1 0x20 ADD SWAP2 SWAP1 PUSH1 0x1 ADD SWAP1 PUSH2 0x7E8 JUMP JUMPDEST JUMPDEST POP SWAP1 POP PUSH2 0x811 SWAP2 SWAP1 PUSH2 0x815 JUMP JUMPDEST POP SWAP1 JUMP JUMPDEST JUMPDEST DUP1 DUP3 GT ISZERO PUSH2 0x82E JUMPI PUSH1 0x0 DUP2 PUSH1 0x0 SWAP1 SSTORE POP PUSH1 0x1 ADD PUSH2 0x816 JUMP JUMPDEST POP SWAP1 JUMP JUMPDEST PUSH1 0x0 PUSH2 0x845 PUSH2 0x840 DUP5 PUSH2 0xB55 JUMP JUMPDEST PUSH2 0xB30 JUMP JUMPDEST SWAP1 POP DUP3 DUP2 MSTORE PUSH1 0x20 DUP2 ADD DUP5 DUP5 DUP5 ADD GT ISZERO PUSH2 0x861 JUMPI PUSH2 0x860 PUSH2 0xDAB JUMP JUMPDEST JUMPDEST PUSH2 0x86C DUP5 DUP3 DUP6 PUSH2 0xC74 JUMP JUMPDEST POP SWAP4 SWAP3 POP POP POP JUMP JUMPDEST PUSH1 0x0 DUP2 CALLDATALOAD SWAP1 POP PUSH2 0x883 DUP2 PUSH2 0xE43 JUMP JUMPDEST SWAP3 SWAP2 POP POP JUMP JUMPDEST PUSH1 0x0 DUP3 PUSH1 0x1F DUP4 ADD SLT PUSH2 0x89E JUMPI PUSH2 0x89D PUSH2 0xDA6 JUMP JUMPDEST JUMPDEST DUP2 CALLDATALOAD PUSH2 0x8AE DUP5 DUP3 PUSH1 0x20 DUP7 ADD PUSH2 0x832 JUMP JUMPDEST SWAP2 POP POP SWAP3 SWAP2 POP POP JUMP JUMPDEST PUSH1 0x0 PUSH1 0x20 DUP3 DUP5 SUB SLT ISZERO PUSH2 0x8CD JUMPI PUSH2 0x8CC PUSH2 0xDB5 JUMP JUMPDEST JUMPDEST PUSH1 0x0 PUSH2 0x8DB DUP5 DUP3 DUP6 ADD PUSH2 0x874 JUMP JUMPDEST SWAP2 POP POP SWAP3 SWAP2 POP POP JUMP JUMPDEST PUSH1 0x0 DUP1 PUSH1 0x40 DUP4 DUP6 SUB SLT ISZERO PUSH2 0x8FB JUMPI PUSH2 0x8FA PUSH2 0xDB5 JUMP JUMPDEST JUMPDEST PUSH1 0x0 DUP4 ADD CALLDATALOAD PUSH8 0xFFFFFFFFFFFFFFFF DUP2 GT ISZERO PUSH2 0x919 JUMPI PUSH2 0x918 PUSH2 0xDB0 JUMP JUMPDEST JUMPDEST PUSH2 0x925 DUP6 DUP3 DUP7 ADD PUSH2 0x889 JUMP JUMPDEST SWAP3 POP POP PUSH1 0x20 PUSH2 0x936 DUP6 DUP3 DUP7 ADD PUSH2 0x874 JUMP JUMPDEST SWAP2 POP POP SWAP3 POP SWAP3 SWAP1 POP JUMP JUMPDEST PUSH1 0x0 DUP1 PUSH1 0x0 DUP1 PUSH1 0x80 DUP6 DUP8 SUB SLT ISZERO PUSH2 0x95A JUMPI PUSH2 0x959 PUSH2 0xDB5 JUMP JUMPDEST JUMPDEST PUSH1 0x0 DUP6 ADD CALLDATALOAD PUSH8 0xFFFFFFFFFFFFFFFF DUP2 GT ISZERO PUSH2 0x978 JUMPI PUSH2 0x977 PUSH2 0xDB0 JUMP JUMPDEST JUMPDEST PUSH2 0x984 DUP8 DUP3 DUP9 ADD PUSH2 0x889 JUMP JUMPDEST SWAP5 POP POP PUSH1 0x20 DUP6 ADD CALLDATALOAD PUSH8 0xFFFFFFFFFFFFFFFF DUP2 GT ISZERO PUSH2 0x9A5 JUMPI PUSH2 0x9A4 PUSH2 0xDB0 JUMP JUMPDEST JUMPDEST PUSH2 0x9B1 DUP8 DUP3 DUP9 ADD PUSH2 0x889 JUMP JUMPDEST SWAP4 POP POP PUSH1 0x40 DUP6 ADD CALLDATALOAD PUSH8 0xFFFFFFFFFFFFFFFF DUP2 GT ISZERO PUSH2 0x9D2 JUMPI PUSH2 0x9D1 PUSH2 0xDB0 JUMP JUMPDEST JUMPDEST PUSH2 0x9DE DUP8 DUP3 DUP9 ADD PUSH2 0x889 JUMP JUMPDEST SWAP3 POP POP PUSH1 0x60 PUSH2 0x9EF DUP8 DUP3 DUP9 ADD PUSH2 0x874 JUMP JUMPDEST SWAP2 POP POP SWAP3 SWAP6 SWAP2 SWAP5 POP SWAP3 POP JUMP JUMPDEST PUSH2 0xA04 DUP2 PUSH2 0xC3E JUMP JUMPDEST DUP3 MSTORE POP POP JUMP JUMPDEST PUSH1 0x0 PUSH2 0xA15 DUP3 PUSH2 0xB86 JUMP JUMPDEST PUSH2 0xA1F DUP2 DUP6 PUSH2 0xB91 JUMP JUMPDEST SWAP4 POP PUSH2 0xA2F DUP2 DUP6 PUSH1 0x20 DUP7 ADD PUSH2 0xC83 JUMP JUMPDEST PUSH2 0xA38 DUP2 PUSH2 0xDBA JUMP JUMPDEST DUP5 ADD SWAP2 POP POP SWAP3 SWAP2 POP POP JUMP JUMPDEST PUSH1 0x0 PUSH2 0xA50 PUSH1 0x16 DUP4 PUSH2 0xB91 JUMP JUMPDEST SWAP2 POP PUSH2 0xA5B DUP3 PUSH2 0xDCB JUMP JUMPDEST PUSH1 0x20 DUP3 ADD SWAP1 POP SWAP2 SWAP1 POP JUMP JUMPDEST PUSH1 0x0 PUSH2 0xA73 PUSH1 0x21 DUP4 PUSH2 0xB91 JUMP JUMPDEST SWAP2 POP PUSH2 0xA7E DUP3 PUSH2 0xDF4 JUMP JUMPDEST PUSH1 0x40 DUP3 ADD SWAP1 POP SWAP2 SWAP1 POP JUMP JUMPDEST PUSH2 0xA92 DUP2 PUSH2 0xC6A JUMP JUMPDEST DUP3 MSTORE POP POP JUMP JUMPDEST PUSH1 0x0 PUSH1 0x20 DUP3 ADD SWAP1 POP PUSH2 0xAAD PUSH1 0x0 DUP4 ADD DUP5 PUSH2 0x9FB JUMP JUMPDEST SWAP3 SWAP2 POP POP JUMP JUMPDEST PUSH1 0x0 PUSH1 0x20 DUP3 ADD SWAP1 POP DUP2 DUP2 SUB PUSH1 0x0 DUP4 ADD MSTORE PUSH2 0xACD DUP2 DUP5 PUSH2 0xA0A JUMP JUMPDEST SWAP1 POP SWAP3 SWAP2 POP POP JUMP JUMPDEST PUSH1 0x0 PUSH1 0x20 DUP3 ADD SWAP1 POP DUP2 DUP2 SUB PUSH1 0x0 DUP4 ADD MSTORE PUSH2 0xAEE DUP2 PUSH2 0xA43 JUMP JUMPDEST SWAP1 POP SWAP2 SWAP1 POP JUMP JUMPDEST PUSH1 0x0 PUSH1 0x20 DUP3 ADD SWAP1 POP DUP2 DUP2 SUB PUSH1 0x0 DUP4 ADD MSTORE PUSH2 0xB0E DUP2 PUSH2 0xA66 JUMP JUMPDEST SWAP1 POP SWAP2 SWAP1 POP JUMP JUMPDEST PUSH1 0x0 PUSH1 0x20 DUP3 ADD SWAP1 POP PUSH2 0xB2A PUSH1 0x0 DUP4 ADD DUP5 PUSH2 0xA89 JUMP JUMPDEST SWAP3 SWAP2 POP POP JUMP JUMPDEST PUSH1 0x0 PUSH2 0xB3A PUSH2 0xB4B JUMP JUMPDEST SWAP1 POP PUSH2 0xB46 DUP3 DUP3 PUSH2 0xCE8 JUMP JUMPDEST SWAP2 SWAP1 POP JUMP JUMPDEST PUSH1 0x0 PUSH1 0x40 MLOAD SWAP1 POP SWAP1 JUMP JUMPDEST PUSH1 0x0 PUSH8 0xFFFFFFFFFFFFFFFF DUP3 GT ISZERO PUSH2 0xB70 JUMPI PUSH2 0xB6F PUSH2 0xD77 JUMP JUMPDEST JUMPDEST PUSH2 0xB79 DUP3 PUSH2 0xDBA JUMP JUMPDEST SWAP1 POP PUSH1 0x20 DUP2 ADD SWAP1 POP SWAP2 SWAP1 POP JUMP JUMPDEST PUSH1 0x0 DUP2 MLOAD SWAP1 POP SWAP2 SWAP1 POP JUMP JUMPDEST PUSH1 0x0 DUP3 DUP3 MSTORE PUSH1 0x20 DUP3 ADD SWAP1 POP SWAP3 SWAP2 POP POP JUMP JUMPDEST PUSH1 0x0 PUSH2 0xBAD DUP3 PUSH2 0xC6A JUMP JUMPDEST SWAP2 POP PUSH2 0xBB8 DUP4 PUSH2 0xC6A JUMP JUMPDEST SWAP3 POP DUP3 PUSH32 0xFFFFFFFFFFFFFFFFFFFFFFFFFFFFFFFFFFFFFFFFFFFFFFFFFFFFFFFFFFFFFFFF SUB DUP3 GT ISZERO PUSH2 0xBED JUMPI PUSH2 0xBEC PUSH2 0xD19 JUMP JUMPDEST JUMPDEST DUP3 DUP3 ADD SWAP1 POP SWAP3 SWAP2 POP POP JUMP JUMPDEST PUSH1 0x0 PUSH2 0xC03 DUP3 PUSH2 0xC6A JUMP JUMPDEST SWAP2 POP PUSH2 0xC0E DUP4 PUSH2 0xC6A JUMP JUMPDEST SWAP3 POP DUP3 DUP3 LT ISZERO PUSH2 0xC21 JUMPI PUSH2 0xC20 PUSH2 0xD19 JUMP JUMPDEST JUMPDEST DUP3 DUP3 SUB SWAP1 POP SWAP3 SWAP2 POP POP JUMP JUMPDEST PUSH1 0x0 PUSH2 0xC37 DUP3 PUSH2 0xC4A JUMP JUMPDEST SWAP1 POP SWAP2 SWAP1 POP JUMP JUMPDEST PUSH1 0x0 DUP2 ISZERO ISZERO SWAP1 POP SWAP2 SWAP1 POP JUMP JUMPDEST PUSH1 0x0 PUSH20 0xFFFFFFFFFFFFFFFFFFFFFFFFFFFFFFFFFFFFFFFF DUP3 AND SWAP1 POP SWAP2 SWAP1 POP JUMP JUMPDEST PUSH1 0x0 DUP2 SWAP1 POP SWAP2 SWAP1 POP JUMP JUMPDEST DUP3 DUP2 DUP4 CALLDATACOPY PUSH1 0x0 DUP4 DUP4 ADD MSTORE POP POP POP JUMP JUMPDEST PUSH1 0x0 JUMPDEST DUP4 DUP2 LT ISZERO PUSH2 0xCA1 JUMPI DUP1 DUP3 ADD MLOAD DUP2 DUP5 ADD MSTORE PUSH1 0x20 DUP2 ADD SWAP1 POP PUSH2 0xC86 JUMP JUMPDEST DUP4 DUP2 GT ISZERO PUSH2 0xCB0 JUMPI PUSH1 0x0 DUP5 DUP5 ADD MSTORE JUMPDEST POP POP POP POP JUMP JUMPDEST PUSH1 0x0 PUSH1 0x2 DUP3 DIV SWAP1 POP PUSH1 0x1 DUP3 AND DUP1 PUSH2 0xCCE JUMPI PUSH1 0x7F DUP3 AND SWAP2 POP JUMPDEST PUSH1 0x20 DUP3 LT DUP2 EQ ISZERO PUSH2 0xCE2 JUMPI PUSH2 0xCE1 PUSH2 0xD48 JUMP JUMPDEST JUMPDEST POP SWAP2 SWAP1 POP JUMP JUMPDEST PUSH2 0xCF1 DUP3 PUSH2 0xDBA JUMP JUMPDEST DUP2 ADD DUP2 DUP2 LT PUSH8 0xFFFFFFFFFFFFFFFF DUP3 GT OR ISZERO PUSH2 0xD10 JUMPI PUSH2 0xD0F PUSH2 0xD77 JUMP JUMPDEST JUMPDEST DUP1 PUSH1 0x40 MSTORE POP POP POP JUMP JUMPDEST PUSH32 0x4E487B7100000000000000000000000000000000000000000000000000000000 PUSH1 0x0 MSTORE PUSH1 0x11 PUSH1 0x4 MSTORE PUSH1 0x24 PUSH1 0x0 REVERT JUMPDEST PUSH32 0x4E487B7100000000000000000000000000000000000000000000000000000000 PUSH1 0x0 MSTORE PUSH1 0x22 PUSH1 0x4 MSTORE PUSH1 0x24 PUSH1 0x0 REVERT JUMPDEST PUSH32 0x4E487B7100000000000000000000000000000000000000000000000000000000 PUSH1 0x0 MSTORE PUSH1 0x41 PUSH1 0x4 MSTORE PUSH1 0x24 PUSH1 0x0 REVERT JUMPDEST PUSH1 0x0 DUP1 REVERT JUMPDEST PUSH1 0x0 DUP1 REVERT JUMPDEST PUSH1 0x0 DUP1 REVERT JUMPDEST PUSH1 0x0 DUP1 REVERT JUMPDEST PUSH1 0x0 PUSH1 0x1F NOT PUSH1 0x1F DUP4 ADD AND SWAP1 POP SWAP2 SWAP1 POP JUMP JUMPDEST PUSH32 0x50726F66696C6520646F6573206E6F7420657869737400000000000000000000 PUSH1 0x0 DUP3 ADD MSTORE POP JUMP JUMPDEST PUSH32 0x43616E6E6F7420637265617465206D6F7265207468616E20312070726F66696C PUSH1 0x0 DUP3 ADD MSTORE PUSH32 0x6500000000000000000000000000000000000000000000000000000000000000 PUSH1 0x20 DUP3 ADD MSTORE POP JUMP JUMPDEST PUSH2 0xE4C DUP2 PUSH2 0xC2C JUMP JUMPDEST DUP2 EQ PUSH2 0xE57 JUMPI PUSH1 0x0 DUP1 REVERT JUMPDEST POP JUMP INVALID LOG2 PUSH5 0x6970667358 0x22 SLT KECCAK256 CALLVALUE 0xD2 SAR 0xF8 0xBF DUP10 0xCE DUP15 EXP XOR EXTCODEHASH PUSH26 0x50D8C56CFD34C5EEA442A21210CC8E2356C4E4F864736F6C6343 STOP ADDMOD SMOD STOP CALLER "
				},
				"gasEstimates": {
					"creation": {
						"codeDepositCost": "745600",
						"executionCost": "5785",
						"totalCost": "751385"
					},
					"external": {
						"checkValidProfile(address)": "5377",
						"createProfile(string,string,string,address)": "infinite",
						"deleteProfile(address)": "infinite",
						"getName(address)": "infinite",
						"numProfile()": "2407",
						"updateProfileName(string,address)": "infinite"
					}
				},
				"methodIdentifiers": {
					"checkValidProfile(address)": "be1459b1",
					"createProfile(string,string,string,address)": "22a9d1bc",
					"deleteProfile(address)": "a0441f29",
					"getName(address)": "5fd4b08a",
					"numProfile()": "16913469",
					"updateProfileName(string,address)": "b94864eb"
				}
			},
			"userdoc": {
				"kind": "user",
				"methods": {},
				"version": 1
			}
		}
	}
}