{
	"contracts/Service.sol": {
		"Service": {
			"abi": [
				{
					"inputs": [
						{
							"internalType": "contract Milestone",
							"name": "milestoneContract",
							"type": "address"
						}
					],
					"stateMutability": "nonpayable",
					"type": "constructor"
				},
				{
					"anonymous": false,
					"inputs": [
						{
							"indexed": false,
							"internalType": "uint256",
							"name": "projectNumber",
							"type": "uint256"
						},
						{
							"indexed": false,
							"internalType": "uint256",
							"name": "serviceNumber",
							"type": "uint256"
						},
						{
							"indexed": false,
							"internalType": "string",
							"name": "title",
							"type": "string"
						},
						{
							"indexed": false,
							"internalType": "string",
							"name": "description",
							"type": "string"
						},
						{
							"indexed": false,
							"internalType": "uint256",
							"name": "price",
							"type": "uint256"
						}
					],
					"name": "serviceCreated",
					"type": "event"
				},
				{
					"anonymous": false,
					"inputs": [
						{
							"indexed": false,
							"internalType": "uint256",
							"name": "projectNumber",
							"type": "uint256"
						},
						{
							"indexed": false,
							"internalType": "uint256",
							"name": "serviceNumber",
							"type": "uint256"
						}
					],
					"name": "serviceDeleted",
					"type": "event"
				},
				{
					"anonymous": false,
					"inputs": [
						{
							"indexed": false,
							"internalType": "uint256",
							"name": "projectNumber",
							"type": "uint256"
						},
						{
							"indexed": false,
							"internalType": "uint256",
							"name": "serviceNumber",
							"type": "uint256"
						},
						{
							"indexed": false,
							"internalType": "string",
							"name": "title",
							"type": "string"
						},
						{
							"indexed": false,
							"internalType": "string",
							"name": "description",
							"type": "string"
						},
						{
							"indexed": false,
							"internalType": "uint256",
							"name": "price",
							"type": "uint256"
						}
					],
					"name": "serviceUpdated",
					"type": "event"
				},
				{
					"inputs": [
						{
							"internalType": "uint256",
							"name": "projectNumber",
							"type": "uint256"
						},
						{
							"internalType": "uint256",
							"name": "serviceNumber",
							"type": "uint256"
						},
						{
							"internalType": "string",
							"name": "titleMilestone",
							"type": "string"
						},
						{
							"internalType": "string",
							"name": "descriptionMilestone",
							"type": "string"
						}
					],
					"name": "createMilestone",
					"outputs": [],
					"stateMutability": "nonpayable",
					"type": "function"
				},
				{
					"inputs": [
						{
							"internalType": "uint256",
							"name": "projectNumber",
							"type": "uint256"
						},
						{
							"internalType": "string",
							"name": "title",
							"type": "string"
						},
						{
							"internalType": "string",
							"name": "description",
							"type": "string"
						},
						{
							"internalType": "uint256",
							"name": "price",
							"type": "uint256"
						},
						{
							"internalType": "address",
							"name": "projectOwner",
							"type": "address"
						}
					],
					"name": "createService",
					"outputs": [],
					"stateMutability": "nonpayable",
					"type": "function"
				},
				{
					"inputs": [
						{
							"internalType": "uint256",
							"name": "projectNumber",
							"type": "uint256"
						},
						{
							"internalType": "uint256",
							"name": "serviceNumber",
							"type": "uint256"
						},
						{
							"internalType": "uint256",
							"name": "milestoneNumber",
							"type": "uint256"
						}
					],
					"name": "deleteMilestone",
					"outputs": [],
					"stateMutability": "nonpayable",
					"type": "function"
				},
				{
					"inputs": [
						{
							"internalType": "uint256",
							"name": "projectNumber",
							"type": "uint256"
						},
						{
							"internalType": "uint256",
							"name": "serviceNumber",
							"type": "uint256"
						}
					],
					"name": "deleteService",
					"outputs": [],
					"stateMutability": "nonpayable",
					"type": "function"
				},
				{
					"inputs": [
						{
							"internalType": "uint256",
							"name": "projectNumber",
							"type": "uint256"
						},
						{
							"internalType": "uint256",
							"name": "serviceNumber",
							"type": "uint256"
						},
						{
							"internalType": "uint256",
							"name": "milestoneNumber",
							"type": "uint256"
						}
					],
					"name": "readMilestone",
					"outputs": [
						{
							"internalType": "string",
							"name": "",
							"type": "string"
						},
						{
							"internalType": "string",
							"name": "",
							"type": "string"
						}
					],
					"stateMutability": "view",
					"type": "function"
				},
				{
					"inputs": [
						{
							"internalType": "uint256",
							"name": "projectNumber",
							"type": "uint256"
						},
						{
							"internalType": "uint256",
							"name": "serviceNumber",
							"type": "uint256"
						}
					],
					"name": "readService",
					"outputs": [
						{
							"components": [
								{
									"internalType": "uint256",
									"name": "projectNumber",
									"type": "uint256"
								},
								{
									"internalType": "uint256",
									"name": "serviceNumber",
									"type": "uint256"
								},
								{
									"internalType": "string",
									"name": "title",
									"type": "string"
								},
								{
									"internalType": "string",
									"name": "description",
									"type": "string"
								},
								{
									"internalType": "uint256",
									"name": "price",
									"type": "uint256"
								},
								{
									"internalType": "uint256",
									"name": "currentMilestone",
									"type": "uint256"
								},
								{
									"internalType": "address",
									"name": "serviceRequester",
									"type": "address"
								},
								{
									"internalType": "address",
									"name": "serviceProvider",
									"type": "address"
								},
								{
									"internalType": "bool",
									"name": "exist",
									"type": "bool"
								},
								{
									"internalType": "enum Service.Status",
									"name": "status",
									"type": "uint8"
								}
							],
							"internalType": "struct Service.service",
							"name": "serviceObject",
							"type": "tuple"
						}
					],
					"stateMutability": "view",
					"type": "function"
				},
				{
					"inputs": [],
					"name": "serviceNum",
					"outputs": [
						{
							"internalType": "uint256",
							"name": "",
							"type": "uint256"
						}
					],
					"stateMutability": "view",
					"type": "function"
				},
				{
					"inputs": [],
					"name": "serviceTotal",
					"outputs": [
						{
							"internalType": "uint256",
							"name": "",
							"type": "uint256"
						}
					],
					"stateMutability": "view",
					"type": "function"
				},
				{
					"inputs": [
						{
							"internalType": "uint256",
							"name": "projectNumber",
							"type": "uint256"
						},
						{
							"internalType": "uint256",
							"name": "serviceNumber",
							"type": "uint256"
						},
						{
							"internalType": "uint256",
							"name": "milestoneNumber",
							"type": "uint256"
						},
						{
							"internalType": "string",
							"name": "titleMilestone",
							"type": "string"
						},
						{
							"internalType": "string",
							"name": "descriptionMilestone",
							"type": "string"
						}
					],
					"name": "updateMilestone",
					"outputs": [],
					"stateMutability": "nonpayable",
					"type": "function"
				},
				{
					"inputs": [
						{
							"internalType": "uint256",
							"name": "projectNumber",
							"type": "uint256"
						},
						{
							"internalType": "uint256",
							"name": "serviceNumber",
							"type": "uint256"
						},
						{
							"internalType": "string",
							"name": "title",
							"type": "string"
						},
						{
							"internalType": "string",
							"name": "description",
							"type": "string"
						},
						{
							"internalType": "uint256",
							"name": "price",
							"type": "uint256"
						}
					],
					"name": "updateService",
					"outputs": [],
					"stateMutability": "nonpayable",
					"type": "function"
				}
			],
			"devdoc": {
				"kind": "dev",
				"methods": {},
				"version": 1
			},
			"evm": {
				"assembly": "    /* \"contracts/Service.sol\":348:5543  contract Service {... */\n  mstore(0x40, 0x80)\n    /* \"contracts/Service.sol\":1417:1418  0 */\n  0x00\n    /* \"contracts/Service.sol\":1387:1418  uint256 public serviceTotal = 0 */\n  0x01\n  sstore\n    /* \"contracts/Service.sol\":1516:1517  0 */\n  0x00\n    /* \"contracts/Service.sol\":1488:1517  uint256 public serviceNum = 0 */\n  0x02\n  sstore\n    /* \"contracts/Service.sol\":398:493  constructor (Milestone milestoneContract) public {... */\n  callvalue\n  dup1\n  iszero\n  tag_1\n  jumpi\n  0x00\n  dup1\n  revert\ntag_1:\n  pop\n  mload(0x40)\n  sub(codesize, bytecodeSize)\n  dup1\n  bytecodeSize\n  dup4\n  codecopy\n  dup2\n  dup2\n  add\n  0x40\n  mstore\n  dup2\n  add\n  swap1\n  tag_2\n  swap2\n  swap1\n  tag_3\n  jump\t// in\ntag_2:\n    /* \"contracts/Service.sol\":469:486  milestoneContract */\n  dup1\n    /* \"contracts/Service.sol\":457:466  milestone */\n  0x00\n  dup1\n    /* \"contracts/Service.sol\":457:486  milestone = milestoneContract */\n  0x0100\n  exp\n  dup2\n  sload\n  dup2\n  0xffffffffffffffffffffffffffffffffffffffff\n  mul\n  not\n  and\n  swap1\n  dup4\n  0xffffffffffffffffffffffffffffffffffffffff\n  and\n  mul\n  or\n  swap1\n  sstore\n  pop\n    /* \"contracts/Service.sol\":398:493  constructor (Milestone milestoneContract) public {... */\n  pop\n    /* \"contracts/Service.sol\":348:5543  contract Service {... */\n  jump(tag_6)\n    /* \"#utility.yul\":7:186   */\ntag_8:\n    /* \"#utility.yul\":82:87   */\n  0x00\n    /* \"#utility.yul\":113:119   */\n  dup2\n    /* \"#utility.yul\":107:120   */\n  mload\n    /* \"#utility.yul\":98:120   */\n  swap1\n  pop\n    /* \"#utility.yul\":129:180   */\n  tag_10\n    /* \"#utility.yul\":174:179   */\n  dup2\n    /* \"#utility.yul\":129:180   */\n  tag_11\n  jump\t// in\ntag_10:\n    /* \"#utility.yul\":7:186   */\n  swap3\n  swap2\n  pop\n  pop\n  jump\t// out\n    /* \"#utility.yul\":192:579   */\ntag_3:\n    /* \"#utility.yul\":280:286   */\n  0x00\n    /* \"#utility.yul\":329:331   */\n  0x20\n    /* \"#utility.yul\":317:326   */\n  dup3\n    /* \"#utility.yul\":308:315   */\n  dup5\n    /* \"#utility.yul\":304:327   */\n  sub\n    /* \"#utility.yul\":300:332   */\n  slt\n    /* \"#utility.yul\":297:416   */\n  iszero\n  tag_13\n  jumpi\n    /* \"#utility.yul\":335:414   */\n  tag_14\n  tag_15\n  jump\t// in\ntag_14:\n    /* \"#utility.yul\":297:416   */\ntag_13:\n    /* \"#utility.yul\":455:456   */\n  0x00\n    /* \"#utility.yul\":480:562   */\n  tag_16\n    /* \"#utility.yul\":554:561   */\n  dup5\n    /* \"#utility.yul\":545:551   */\n  dup3\n    /* \"#utility.yul\":534:543   */\n  dup6\n    /* \"#utility.yul\":530:552   */\n  add\n    /* \"#utility.yul\":480:562   */\n  tag_8\n  jump\t// in\ntag_16:\n    /* \"#utility.yul\":470:562   */\n  swap2\n  pop\n    /* \"#utility.yul\":426:572   */\n  pop\n    /* \"#utility.yul\":192:579   */\n  swap3\n  swap2\n  pop\n  pop\n  jump\t// out\n    /* \"#utility.yul\":666:762   */\ntag_19:\n    /* \"#utility.yul\":703:710   */\n  0x00\n    /* \"#utility.yul\":732:756   */\n  tag_21\n    /* \"#utility.yul\":750:755   */\n  dup3\n    /* \"#utility.yul\":732:756   */\n  tag_22\n  jump\t// in\ntag_21:\n    /* \"#utility.yul\":721:756   */\n  swap1\n  pop\n    /* \"#utility.yul\":666:762   */\n  swap2\n  swap1\n  pop\n  jump\t// out\n    /* \"#utility.yul\":768:882   */\ntag_23:\n    /* \"#utility.yul\":823:830   */\n  0x00\n    /* \"#utility.yul\":852:876   */\n  tag_25\n    /* \"#utility.yul\":870:875   */\n  dup3\n    /* \"#utility.yul\":852:876   */\n  tag_19\n  jump\t// in\ntag_25:\n    /* \"#utility.yul\":841:876   */\n  swap1\n  pop\n    /* \"#utility.yul\":768:882   */\n  swap2\n  swap1\n  pop\n  jump\t// out\n    /* \"#utility.yul\":888:1014   */\ntag_22:\n    /* \"#utility.yul\":925:932   */\n  0x00\n    /* \"#utility.yul\":965:1007   */\n  0xffffffffffffffffffffffffffffffffffffffff\n    /* \"#utility.yul\":958:963   */\n  dup3\n    /* \"#utility.yul\":954:1008   */\n  and\n    /* \"#utility.yul\":943:1008   */\n  swap1\n  pop\n    /* \"#utility.yul\":888:1014   */\n  swap2\n  swap1\n  pop\n  jump\t// out\n    /* \"#utility.yul\":1143:1260   */\ntag_15:\n    /* \"#utility.yul\":1252:1253   */\n  0x00\n    /* \"#utility.yul\":1249:1250   */\n  dup1\n    /* \"#utility.yul\":1242:1254   */\n  revert\n    /* \"#utility.yul\":1266:1424   */\ntag_11:\n    /* \"#utility.yul\":1357:1399   */\n  tag_31\n    /* \"#utility.yul\":1393:1398   */\n  dup2\n    /* \"#utility.yul\":1357:1399   */\n  tag_23\n  jump\t// in\ntag_31:\n    /* \"#utility.yul\":1350:1355   */\n  dup2\n    /* \"#utility.yul\":1347:1400   */\n  eq\n    /* \"#utility.yul\":1337:1418   */\n  tag_32\n  jumpi\n    /* \"#utility.yul\":1414:1415   */\n  0x00\n    /* \"#utility.yul\":1411:1412   */\n  dup1\n    /* \"#utility.yul\":1404:1416   */\n  revert\n    /* \"#utility.yul\":1337:1418   */\ntag_32:\n    /* \"#utility.yul\":1266:1424   */\n  pop\n  jump\t// out\n    /* \"contracts/Service.sol\":348:5543  contract Service {... */\ntag_6:\n  dataSize(sub_0)\n  dup1\n  dataOffset(sub_0)\n  0x00\n  codecopy\n  0x00\n  return\nstop\n\nsub_0: assembly {\n        /* \"contracts/Service.sol\":348:5543  contract Service {... */\n      mstore(0x40, 0x80)\n      callvalue\n      dup1\n      iszero\n      tag_1\n      jumpi\n      0x00\n      dup1\n      revert\n    tag_1:\n      pop\n      jumpi(tag_2, lt(calldatasize, 0x04))\n      shr(0xe0, calldataload(0x00))\n      dup1\n      0x53c49c64\n      gt\n      tag_13\n      jumpi\n      dup1\n      0x53c49c64\n      eq\n      tag_8\n      jumpi\n      dup1\n      0x63ef8a50\n      eq\n      tag_9\n      jumpi\n      dup1\n      0xac10dfe3\n      eq\n      tag_10\n      jumpi\n      dup1\n      0xb9b6c5d4\n      eq\n      tag_11\n      jumpi\n      dup1\n      0xfd23c4bb\n      eq\n      tag_12\n      jumpi\n      jump(tag_2)\n    tag_13:\n      dup1\n      0x256da4e3\n      eq\n      tag_3\n      jumpi\n      dup1\n      0x30f73051\n      eq\n      tag_4\n      jumpi\n      dup1\n      0x352d28fd\n      eq\n      tag_5\n      jumpi\n      dup1\n      0x49428a62\n      eq\n      tag_6\n      jumpi\n      dup1\n      0x4994772c\n      eq\n      tag_7\n      jumpi\n    tag_2:\n      0x00\n      dup1\n      revert\n        /* \"contracts/Service.sol\":2440:3348  function createService(uint256 projectNumber, string memory title, string memory description, uint256 price, address projectOwner) public requiredString(title) requiredString(description) {        ... */\n    tag_3:\n      tag_14\n      0x04\n      dup1\n      calldatasize\n      sub\n      dup2\n      add\n      swap1\n      tag_15\n      swap2\n      swap1\n      tag_16\n      jump\t// in\n    tag_15:\n      tag_17\n      jump\t// in\n    tag_14:\n      stop\n        /* \"contracts/Service.sol\":1387:1418  uint256 public serviceTotal = 0 */\n    tag_4:\n      tag_18\n      tag_19\n      jump\t// in\n    tag_18:\n      mload(0x40)\n      tag_20\n      swap2\n      swap1\n      tag_21\n      jump\t// in\n    tag_20:\n      mload(0x40)\n      dup1\n      swap2\n      sub\n      swap1\n      return\n        /* \"contracts/Service.sol\":1488:1517  uint256 public serviceNum = 0 */\n    tag_5:\n      tag_22\n      tag_23\n      jump\t// in\n    tag_22:\n      mload(0x40)\n      tag_24\n      swap2\n      swap1\n      tag_21\n      jump\t// in\n    tag_24:\n      mload(0x40)\n      dup1\n      swap2\n      sub\n      swap1\n      return\n        /* \"contracts/Service.sol\":4720:4952  function readMilestone(uint256 projectNumber, uint256 serviceNumber, uint256 milestoneNumber) public view returns (string memory , string memory ) {... */\n    tag_6:\n      tag_25\n      0x04\n      dup1\n      calldatasize\n      sub\n      dup2\n      add\n      swap1\n      tag_26\n      swap2\n      swap1\n      tag_27\n      jump\t// in\n    tag_26:\n      tag_28\n      jump\t// in\n    tag_25:\n      mload(0x40)\n      tag_29\n      swap3\n      swap2\n      swap1\n      tag_30\n      jump\t// in\n    tag_29:\n      mload(0x40)\n      dup1\n      swap2\n      sub\n      swap1\n      return\n        /* \"contracts/Service.sol\":3393:3604  function readService(uint256 projectNumber, uint256 serviceNumber) public view returns (service memory serviceObject) {... */\n    tag_7:\n      tag_31\n      0x04\n      dup1\n      calldatasize\n      sub\n      dup2\n      add\n      swap1\n      tag_32\n      swap2\n      swap1\n      tag_33\n      jump\t// in\n    tag_32:\n      tag_34\n      jump\t// in\n    tag_31:\n      mload(0x40)\n      tag_35\n      swap2\n      swap1\n      tag_36\n      jump\t// in\n    tag_35:\n      mload(0x40)\n      dup1\n      swap2\n      sub\n      swap1\n      return\n        /* \"contracts/Service.sol\":4139:4374  function deleteService(uint256 projectNumber, uint256 serviceNumber) public {... */\n    tag_8:\n      tag_37\n      0x04\n      dup1\n      calldatasize\n      sub\n      dup2\n      add\n      swap1\n      tag_38\n      swap2\n      swap1\n      tag_33\n      jump\t// in\n    tag_38:\n      tag_39\n      jump\t// in\n    tag_37:\n      stop\n        /* \"contracts/Service.sol\":4421:4672  function createMilestone(uint256 projectNumber, uint256 serviceNumber, string memory titleMilestone, string memory descriptionMilestone) public {... */\n    tag_9:\n      tag_40\n      0x04\n      dup1\n      calldatasize\n      sub\n      dup2\n      add\n      swap1\n      tag_41\n      swap2\n      swap1\n      tag_42\n      jump\t// in\n    tag_41:\n      tag_43\n      jump\t// in\n    tag_40:\n      stop\n        /* \"contracts/Service.sol\":3650:4094  function updateService(uint256 projectNumber, uint256 serviceNumber, string memory title, string memory description, uint256 price) public {... */\n    tag_10:\n      tag_44\n      0x04\n      dup1\n      calldatasize\n      sub\n      dup2\n      add\n      swap1\n      tag_45\n      swap2\n      swap1\n      tag_46\n      jump\t// in\n    tag_45:\n      tag_47\n      jump\t// in\n    tag_44:\n      stop\n        /* \"contracts/Service.sol\":5342:5540  function deleteMilestone(uint256 projectNumber, uint256 serviceNumber, uint256 milestoneNumber) public {        ... */\n    tag_11:\n      tag_48\n      0x04\n      dup1\n      calldatasize\n      sub\n      dup2\n      add\n      swap1\n      tag_49\n      swap2\n      swap1\n      tag_27\n      jump\t// in\n    tag_49:\n      tag_50\n      jump\t// in\n    tag_48:\n      stop\n        /* \"contracts/Service.sol\":5003:5295  function updateMilestone(uint256 projectNumber, uint256 serviceNumber, uint256 milestoneNumber, string memory titleMilestone, string memory descriptionMilestone) public {... */\n    tag_12:\n      tag_51\n      0x04\n      dup1\n      calldatasize\n      sub\n      dup2\n      add\n      swap1\n      tag_52\n      swap2\n      swap1\n      tag_53\n      jump\t// in\n    tag_52:\n      tag_54\n      jump\t// in\n    tag_51:\n      stop\n        /* \"contracts/Service.sol\":2440:3348  function createService(uint256 projectNumber, string memory title, string memory description, uint256 price, address projectOwner) public requiredString(title) requiredString(description) {        ... */\n    tag_17:\n        /* \"contracts/Service.sol\":2593:2598  title */\n      dup4\n        /* \"contracts/Service.sol\":1807:1808  0 */\n      0x00\n        /* \"contracts/Service.sol\":1793:1796  str */\n      dup2\n        /* \"contracts/Service.sol\":1787:1804  bytes(str).length */\n      mload\n        /* \"contracts/Service.sol\":1787:1808  bytes(str).length > 0 */\n      gt\n        /* \"contracts/Service.sol\":1779:1834  require(bytes(str).length > 0, \"A string is required!\") */\n      tag_56\n      jumpi\n      mload(0x40)\n      0x08c379a000000000000000000000000000000000000000000000000000000000\n      dup2\n      mstore\n      0x04\n      add\n      tag_57\n      swap1\n      tag_58\n      jump\t// in\n    tag_57:\n      mload(0x40)\n      dup1\n      swap2\n      sub\n      swap1\n      revert\n    tag_56:\n        /* \"contracts/Service.sol\":2615:2626  description */\n      dup4\n        /* \"contracts/Service.sol\":1807:1808  0 */\n      0x00\n        /* \"contracts/Service.sol\":1793:1796  str */\n      dup2\n        /* \"contracts/Service.sol\":1787:1804  bytes(str).length */\n      mload\n        /* \"contracts/Service.sol\":1787:1808  bytes(str).length > 0 */\n      gt\n        /* \"contracts/Service.sol\":1779:1834  require(bytes(str).length > 0, \"A string is required!\") */\n      tag_60\n      jumpi\n      mload(0x40)\n      0x08c379a000000000000000000000000000000000000000000000000000000000\n      dup2\n      mstore\n      0x04\n      add\n      tag_61\n      swap1\n      tag_58\n      jump\t// in\n    tag_61:\n      mload(0x40)\n      dup1\n      swap2\n      sub\n      swap1\n      revert\n    tag_60:\n        /* \"contracts/Service.sol\":2662:2663  0 */\n      0x00\n        /* \"contracts/Service.sol\":2654:2659  price */\n      dup5\n        /* \"contracts/Service.sol\":2654:2663  price > 0 */\n      gt\n        /* \"contracts/Service.sol\":2646:2701  require(price > 0, \"A Service Price must be specified\") */\n      tag_63\n      jumpi\n      mload(0x40)\n      0x08c379a000000000000000000000000000000000000000000000000000000000\n      dup2\n      mstore\n      0x04\n      add\n      tag_64\n      swap1\n      tag_65\n      jump\t// in\n    tag_64:\n      mload(0x40)\n      dup1\n      swap2\n      sub\n      swap1\n      revert\n    tag_63:\n        /* \"contracts/Service.sol\":2712:2738  service storage newService */\n      0x00\n        /* \"contracts/Service.sol\":2741:2756  projectServices */\n      0x03\n        /* \"contracts/Service.sol\":2741:2771  projectServices[projectNumber] */\n      0x00\n        /* \"contracts/Service.sol\":2757:2770  projectNumber */\n      dup10\n        /* \"contracts/Service.sol\":2741:2771  projectServices[projectNumber] */\n      dup2\n      mstore\n      0x20\n      add\n      swap1\n      dup2\n      mstore\n      0x20\n      add\n      0x00\n      keccak256\n        /* \"contracts/Service.sol\":2772:2782  serviceNum */\n      sload(0x02)\n        /* \"contracts/Service.sol\":2741:2783  projectServices[projectNumber][serviceNum] */\n      dup2\n      sload\n      dup2\n      lt\n      tag_66\n      jumpi\n      tag_67\n      tag_68\n      jump\t// in\n    tag_67:\n    tag_66:\n      swap1\n      0x00\n      mstore\n      keccak256(0x00, 0x20)\n      swap1\n      0x08\n      mul\n      add\n        /* \"contracts/Service.sol\":2712:2783  service storage newService = projectServices[projectNumber][serviceNum] */\n      swap1\n      pop\n        /* \"contracts/Service.sol\":2820:2833  projectNumber */\n      dup8\n        /* \"contracts/Service.sol\":2793:2803  newService */\n      dup2\n        /* \"contracts/Service.sol\":2793:2817  newService.projectNumber */\n      0x00\n      add\n        /* \"contracts/Service.sol\":2793:2833  newService.projectNumber = projectNumber */\n      dup2\n      swap1\n      sstore\n      pop\n        /* \"contracts/Service.sol\":2870:2880  serviceNum */\n      sload(0x02)\n        /* \"contracts/Service.sol\":2843:2853  newService */\n      dup2\n        /* \"contracts/Service.sol\":2843:2867  newService.serviceNumber */\n      0x01\n      add\n        /* \"contracts/Service.sol\":2843:2880  newService.serviceNumber = serviceNum */\n      dup2\n      swap1\n      sstore\n      pop\n        /* \"contracts/Service.sol\":2909:2914  title */\n      dup7\n        /* \"contracts/Service.sol\":2890:2900  newService */\n      dup2\n        /* \"contracts/Service.sol\":2890:2906  newService.title */\n      0x02\n      add\n        /* \"contracts/Service.sol\":2890:2914  newService.title = title */\n      swap1\n      dup1\n      mload\n      swap1\n      0x20\n      add\n      swap1\n      tag_70\n      swap3\n      swap2\n      swap1\n      tag_71\n      jump\t// in\n    tag_70:\n      pop\n        /* \"contracts/Service.sol\":2949:2960  description */\n      dup6\n        /* \"contracts/Service.sol\":2924:2934  newService */\n      dup2\n        /* \"contracts/Service.sol\":2924:2946  newService.description */\n      0x03\n      add\n        /* \"contracts/Service.sol\":2924:2960  newService.description = description */\n      swap1\n      dup1\n      mload\n      swap1\n      0x20\n      add\n      swap1\n      tag_72\n      swap3\n      swap2\n      swap1\n      tag_71\n      jump\t// in\n    tag_72:\n      pop\n        /* \"contracts/Service.sol\":2989:2994  price */\n      dup5\n        /* \"contracts/Service.sol\":2970:2980  newService */\n      dup2\n        /* \"contracts/Service.sol\":2970:2986  newService.price */\n      0x04\n      add\n        /* \"contracts/Service.sol\":2970:2994  newService.price = price */\n      dup2\n      swap1\n      sstore\n      pop\n        /* \"contracts/Service.sol\":3034:3035  0 */\n      0x00\n        /* \"contracts/Service.sol\":3004:3014  newService */\n      dup2\n        /* \"contracts/Service.sol\":3004:3031  newService.currentMilestone */\n      0x05\n      add\n        /* \"contracts/Service.sol\":3004:3035  newService.currentMilestone = 0 */\n      dup2\n      swap1\n      sstore\n      pop\n        /* \"contracts/Service.sol\":3075:3087  projectOwner */\n      dup4\n        /* \"contracts/Service.sol\":3045:3055  newService */\n      dup2\n        /* \"contracts/Service.sol\":3045:3072  newService.serviceRequester */\n      0x06\n      add\n      0x00\n        /* \"contracts/Service.sol\":3045:3087  newService.serviceRequester = projectOwner */\n      0x0100\n      exp\n      dup2\n      sload\n      dup2\n      0xffffffffffffffffffffffffffffffffffffffff\n      mul\n      not\n      and\n      swap1\n      dup4\n      0xffffffffffffffffffffffffffffffffffffffff\n      and\n      mul\n      or\n      swap1\n      sstore\n      pop\n        /* \"contracts/Service.sol\":3134:3135  0 */\n      0x00\n        /* \"contracts/Service.sol\":3097:3107  newService */\n      dup2\n        /* \"contracts/Service.sol\":3097:3123  newService.serviceProvider */\n      0x07\n      add\n      0x00\n        /* \"contracts/Service.sol\":3097:3136  newService.serviceProvider = address(0) */\n      0x0100\n      exp\n      dup2\n      sload\n      dup2\n      0xffffffffffffffffffffffffffffffffffffffff\n      mul\n      not\n      and\n      swap1\n      dup4\n      0xffffffffffffffffffffffffffffffffffffffff\n      and\n      mul\n      or\n      swap1\n      sstore\n      pop\n        /* \"contracts/Service.sol\":3165:3169  true */\n      0x01\n        /* \"contracts/Service.sol\":3146:3156  newService */\n      dup2\n        /* \"contracts/Service.sol\":3146:3162  newService.exist */\n      0x07\n      add\n      0x14\n        /* \"contracts/Service.sol\":3146:3169  newService.exist = true */\n      0x0100\n      exp\n      dup2\n      sload\n      dup2\n      0xff\n      mul\n      not\n      and\n      swap1\n      dup4\n      iszero\n      iszero\n      mul\n      or\n      swap1\n      sstore\n      pop\n        /* \"contracts/Service.sol\":3199:3210  Status.none */\n      0x00\n        /* \"contracts/Service.sol\":3179:3189  newService */\n      dup2\n        /* \"contracts/Service.sol\":3179:3196  newService.status */\n      0x07\n      add\n      0x15\n        /* \"contracts/Service.sol\":3179:3210  newService.status = Status.none */\n      0x0100\n      exp\n      dup2\n      sload\n      dup2\n      0xff\n      mul\n      not\n      and\n      swap1\n      dup4\n      0x05\n      dup2\n      gt\n      iszero\n      tag_73\n      jumpi\n      tag_74\n      tag_75\n      jump\t// in\n    tag_74:\n    tag_73:\n      mul\n      or\n      swap1\n      sstore\n      pop\n        /* \"contracts/Service.sol\":3226:3294  serviceCreated(projectNumber, serviceNum, title, description, price) */\n      0xe8bc23dadb6cac9147246af11cc9afe29b7f5f524a2e539da4486da2196a78f1\n        /* \"contracts/Service.sol\":3241:3254  projectNumber */\n      dup9\n        /* \"contracts/Service.sol\":3256:3266  serviceNum */\n      sload(0x02)\n        /* \"contracts/Service.sol\":3268:3273  title */\n      dup10\n        /* \"contracts/Service.sol\":3275:3286  description */\n      dup10\n        /* \"contracts/Service.sol\":3288:3293  price */\n      dup10\n        /* \"contracts/Service.sol\":3226:3294  serviceCreated(projectNumber, serviceNum, title, description, price) */\n      mload(0x40)\n      tag_76\n      swap6\n      swap5\n      swap4\n      swap3\n      swap2\n      swap1\n      tag_77\n      jump\t// in\n    tag_76:\n      mload(0x40)\n      dup1\n      swap2\n      sub\n      swap1\n      log1\n        /* \"contracts/Service.sol\":3305:3317  serviceTotal */\n      0x01\n      0x00\n        /* \"contracts/Service.sol\":3305:3319  serviceTotal++ */\n      dup2\n      sload\n      dup1\n      swap3\n      swap2\n      swap1\n      tag_78\n      swap1\n      tag_79\n      jump\t// in\n    tag_78:\n      swap2\n      swap1\n      pop\n      sstore\n      pop\n        /* \"contracts/Service.sol\":3329:3339  serviceNum */\n      0x02\n      0x00\n        /* \"contracts/Service.sol\":3329:3341  serviceNum++ */\n      dup2\n      sload\n      dup1\n      swap3\n      swap2\n      swap1\n      tag_80\n      swap1\n      tag_79\n      jump\t// in\n    tag_80:\n      swap2\n      swap1\n      pop\n      sstore\n      pop\n        /* \"contracts/Service.sol\":2628:3348  {        ... */\n      pop\n        /* \"contracts/Service.sol\":1844:1845  _ */\n      pop\n        /* \"contracts/Service.sol\":2440:3348  function createService(uint256 projectNumber, string memory title, string memory description, uint256 price, address projectOwner) public requiredString(title) requiredString(description) {        ... */\n      pop\n      pop\n      pop\n      pop\n      pop\n      pop\n      jump\t// out\n        /* \"contracts/Service.sol\":1387:1418  uint256 public serviceTotal = 0 */\n    tag_19:\n      sload(0x01)\n      dup2\n      jump\t// out\n        /* \"contracts/Service.sol\":1488:1517  uint256 public serviceNum = 0 */\n    tag_23:\n      sload(0x02)\n      dup2\n      jump\t// out\n        /* \"contracts/Service.sol\":4720:4952  function readMilestone(uint256 projectNumber, uint256 serviceNumber, uint256 milestoneNumber) public view returns (string memory , string memory ) {... */\n    tag_28:\n        /* \"contracts/Service.sol\":4835:4848  string memory */\n      0x60\n        /* \"contracts/Service.sol\":4851:4864  string memory */\n      dup1\n        /* \"contracts/Service.sol\":4877:4886  milestone */\n      0x00\n      dup1\n      sload\n      swap1\n      0x0100\n      exp\n      swap1\n      div\n      0xffffffffffffffffffffffffffffffffffffffff\n      and\n        /* \"contracts/Service.sol\":4877:4900  milestone.readMilestone */\n      0xffffffffffffffffffffffffffffffffffffffff\n      and\n      0x49428a62\n        /* \"contracts/Service.sol\":4901:4914  projectNumber */\n      dup7\n        /* \"contracts/Service.sol\":4915:4928  serviceNumber */\n      dup7\n        /* \"contracts/Service.sol\":4929:4944  milestoneNumber */\n      dup7\n        /* \"contracts/Service.sol\":4877:4945  milestone.readMilestone(projectNumber,serviceNumber,milestoneNumber) */\n      mload(0x40)\n      dup5\n      0xffffffff\n      and\n      0xe0\n      shl\n      dup2\n      mstore\n      0x04\n      add\n      tag_82\n      swap4\n      swap3\n      swap2\n      swap1\n      tag_83\n      jump\t// in\n    tag_82:\n      0x00\n      mload(0x40)\n      dup1\n      dup4\n      sub\n      dup2\n      dup7\n      dup1\n      extcodesize\n      iszero\n      dup1\n      iszero\n      tag_84\n      jumpi\n      0x00\n      dup1\n      revert\n    tag_84:\n      pop\n      gas\n      staticcall\n      iszero\n      dup1\n      iszero\n      tag_86\n      jumpi\n      returndatasize\n      0x00\n      dup1\n      returndatacopy\n      revert(0x00, returndatasize)\n    tag_86:\n      pop\n      pop\n      pop\n      pop\n      mload(0x40)\n      returndatasize\n      0x00\n      dup3\n      returndatacopy\n      returndatasize\n      not(0x1f)\n      0x1f\n      dup3\n      add\n      and\n      dup3\n      add\n      dup1\n      0x40\n      mstore\n      pop\n      dup2\n      add\n      swap1\n      tag_87\n      swap2\n      swap1\n      tag_88\n      jump\t// in\n    tag_87:\n      pop\n      pop\n        /* \"contracts/Service.sol\":4720:4952  function readMilestone(uint256 projectNumber, uint256 serviceNumber, uint256 milestoneNumber) public view returns (string memory , string memory ) {... */\n      swap4\n      pop\n      swap4\n      swap2\n      pop\n      pop\n      jump\t// out\n        /* \"contracts/Service.sol\":3393:3604  function readService(uint256 projectNumber, uint256 serviceNumber) public view returns (service memory serviceObject) {... */\n    tag_34:\n        /* \"contracts/Service.sol\":3481:3509  service memory serviceObject */\n      tag_89\n      tag_90\n      jump\t// in\n    tag_89:\n        /* \"contracts/Service.sol\":3542:3557  projectServices */\n      0x03\n        /* \"contracts/Service.sol\":3542:3572  projectServices[projectNumber] */\n      0x00\n        /* \"contracts/Service.sol\":3558:3571  projectNumber */\n      dup5\n        /* \"contracts/Service.sol\":3542:3572  projectServices[projectNumber] */\n      dup2\n      mstore\n      0x20\n      add\n      swap1\n      dup2\n      mstore\n      0x20\n      add\n      0x00\n      keccak256\n        /* \"contracts/Service.sol\":3573:3586  serviceNumber */\n      dup3\n        /* \"contracts/Service.sol\":3542:3587  projectServices[projectNumber][serviceNumber] */\n      dup2\n      sload\n      dup2\n      lt\n      tag_92\n      jumpi\n      tag_93\n      tag_68\n      jump\t// in\n    tag_93:\n    tag_92:\n      swap1\n      0x00\n      mstore\n      keccak256(0x00, 0x20)\n      swap1\n      0x08\n      mul\n      add\n        /* \"contracts/Service.sol\":3521:3597  return (... */\n      mload(0x40)\n      dup1\n      0x0140\n      add\n      0x40\n      mstore\n      swap1\n      dup2\n      0x00\n      dup3\n      add\n      sload\n      dup2\n      mstore\n      0x20\n      add\n      0x01\n      dup3\n      add\n      sload\n      dup2\n      mstore\n      0x20\n      add\n      0x02\n      dup3\n      add\n      dup1\n      sload\n      tag_95\n      swap1\n      tag_96\n      jump\t// in\n    tag_95:\n      dup1\n      0x1f\n      add\n      0x20\n      dup1\n      swap2\n      div\n      mul\n      0x20\n      add\n      mload(0x40)\n      swap1\n      dup2\n      add\n      0x40\n      mstore\n      dup1\n      swap3\n      swap2\n      swap1\n      dup2\n      dup2\n      mstore\n      0x20\n      add\n      dup3\n      dup1\n      sload\n      tag_97\n      swap1\n      tag_96\n      jump\t// in\n    tag_97:\n      dup1\n      iszero\n      tag_98\n      jumpi\n      dup1\n      0x1f\n      lt\n      tag_99\n      jumpi\n      0x0100\n      dup1\n      dup4\n      sload\n      div\n      mul\n      dup4\n      mstore\n      swap2\n      0x20\n      add\n      swap2\n      jump(tag_98)\n    tag_99:\n      dup3\n      add\n      swap2\n      swap1\n      0x00\n      mstore\n      keccak256(0x00, 0x20)\n      swap1\n    tag_100:\n      dup2\n      sload\n      dup2\n      mstore\n      swap1\n      0x01\n      add\n      swap1\n      0x20\n      add\n      dup1\n      dup4\n      gt\n      tag_100\n      jumpi\n      dup3\n      swap1\n      sub\n      0x1f\n      and\n      dup3\n      add\n      swap2\n    tag_98:\n      pop\n      pop\n      pop\n      pop\n      pop\n      dup2\n      mstore\n      0x20\n      add\n      0x03\n      dup3\n      add\n      dup1\n      sload\n      tag_101\n      swap1\n      tag_96\n      jump\t// in\n    tag_101:\n      dup1\n      0x1f\n      add\n      0x20\n      dup1\n      swap2\n      div\n      mul\n      0x20\n      add\n      mload(0x40)\n      swap1\n      dup2\n      add\n      0x40\n      mstore\n      dup1\n      swap3\n      swap2\n      swap1\n      dup2\n      dup2\n      mstore\n      0x20\n      add\n      dup3\n      dup1\n      sload\n      tag_102\n      swap1\n      tag_96\n      jump\t// in\n    tag_102:\n      dup1\n      iszero\n      tag_103\n      jumpi\n      dup1\n      0x1f\n      lt\n      tag_104\n      jumpi\n      0x0100\n      dup1\n      dup4\n      sload\n      div\n      mul\n      dup4\n      mstore\n      swap2\n      0x20\n      add\n      swap2\n      jump(tag_103)\n    tag_104:\n      dup3\n      add\n      swap2\n      swap1\n      0x00\n      mstore\n      keccak256(0x00, 0x20)\n      swap1\n    tag_105:\n      dup2\n      sload\n      dup2\n      mstore\n      swap1\n      0x01\n      add\n      swap1\n      0x20\n      add\n      dup1\n      dup4\n      gt\n      tag_105\n      jumpi\n      dup3\n      swap1\n      sub\n      0x1f\n      and\n      dup3\n      add\n      swap2\n    tag_103:\n      pop\n      pop\n      pop\n      pop\n      pop\n      dup2\n      mstore\n      0x20\n      add\n      0x04\n      dup3\n      add\n      sload\n      dup2\n      mstore\n      0x20\n      add\n      0x05\n      dup3\n      add\n      sload\n      dup2\n      mstore\n      0x20\n      add\n      0x06\n      dup3\n      add\n      0x00\n      swap1\n      sload\n      swap1\n      0x0100\n      exp\n      swap1\n      div\n      0xffffffffffffffffffffffffffffffffffffffff\n      and\n      0xffffffffffffffffffffffffffffffffffffffff\n      and\n      0xffffffffffffffffffffffffffffffffffffffff\n      and\n      dup2\n      mstore\n      0x20\n      add\n      0x07\n      dup3\n      add\n      0x00\n      swap1\n      sload\n      swap1\n      0x0100\n      exp\n      swap1\n      div\n      0xffffffffffffffffffffffffffffffffffffffff\n      and\n      0xffffffffffffffffffffffffffffffffffffffff\n      and\n      0xffffffffffffffffffffffffffffffffffffffff\n      and\n      dup2\n      mstore\n      0x20\n      add\n      0x07\n      dup3\n      add\n      0x14\n      swap1\n      sload\n      swap1\n      0x0100\n      exp\n      swap1\n      div\n      0xff\n      and\n      iszero\n      iszero\n      iszero\n      iszero\n      dup2\n      mstore\n      0x20\n      add\n      0x07\n      dup3\n      add\n      0x15\n      swap1\n      sload\n      swap1\n      0x0100\n      exp\n      swap1\n      div\n      0xff\n      and\n      0x05\n      dup2\n      gt\n      iszero\n      tag_106\n      jumpi\n      tag_107\n      tag_75\n      jump\t// in\n    tag_107:\n    tag_106:\n      0x05\n      dup2\n      gt\n      iszero\n      tag_108\n      jumpi\n      tag_109\n      tag_75\n      jump\t// in\n    tag_109:\n    tag_108:\n      dup2\n      mstore\n      pop\n      pop\n      swap1\n      pop\n        /* \"contracts/Service.sol\":3393:3604  function readService(uint256 projectNumber, uint256 serviceNumber) public view returns (service memory serviceObject) {... */\n      swap3\n      swap2\n      pop\n      pop\n      jump\t// out\n        /* \"contracts/Service.sol\":4139:4374  function deleteService(uint256 projectNumber, uint256 serviceNumber) public {... */\n    tag_39:\n        /* \"contracts/Service.sol\":4279:4284  false */\n      0x00\n        /* \"contracts/Service.sol\":4225:4240  projectServices */\n      0x03\n        /* \"contracts/Service.sol\":4225:4255  projectServices[projectNumber] */\n      0x00\n        /* \"contracts/Service.sol\":4241:4254  projectNumber */\n      dup5\n        /* \"contracts/Service.sol\":4225:4255  projectServices[projectNumber] */\n      dup2\n      mstore\n      0x20\n      add\n      swap1\n      dup2\n      mstore\n      0x20\n      add\n      0x00\n      keccak256\n        /* \"contracts/Service.sol\":4256:4269  serviceNumber */\n      dup3\n        /* \"contracts/Service.sol\":4225:4270  projectServices[projectNumber][serviceNumber] */\n      dup2\n      sload\n      dup2\n      lt\n      tag_111\n      jumpi\n      tag_112\n      tag_68\n      jump\t// in\n    tag_112:\n    tag_111:\n      swap1\n      0x00\n      mstore\n      keccak256(0x00, 0x20)\n      swap1\n      0x08\n      mul\n      add\n        /* \"contracts/Service.sol\":4225:4276  projectServices[projectNumber][serviceNumber].exist */\n      0x07\n      add\n      0x14\n        /* \"contracts/Service.sol\":4225:4284  projectServices[projectNumber][serviceNumber].exist = false */\n      0x0100\n      exp\n      dup2\n      sload\n      dup2\n      0xff\n      mul\n      not\n      and\n      swap1\n      dup4\n      iszero\n      iszero\n      mul\n      or\n      swap1\n      sstore\n      pop\n        /* \"contracts/Service.sol\":4295:4307  serviceTotal */\n      0x01\n      0x00\n        /* \"contracts/Service.sol\":4295:4309  serviceTotal-- */\n      dup2\n      sload\n      dup1\n      swap3\n      swap2\n      swap1\n      tag_114\n      swap1\n      tag_115\n      jump\t// in\n    tag_114:\n      swap2\n      swap1\n      pop\n      sstore\n      pop\n        /* \"contracts/Service.sol\":4324:4367  serviceDeleted(projectNumber,serviceNumber) */\n      0x04579b03ce378bfed31ee6443865880dab0b281efac453deb39233352189863f\n        /* \"contracts/Service.sol\":4339:4352  projectNumber */\n      dup3\n        /* \"contracts/Service.sol\":4353:4366  serviceNumber */\n      dup3\n        /* \"contracts/Service.sol\":4324:4367  serviceDeleted(projectNumber,serviceNumber) */\n      mload(0x40)\n      tag_116\n      swap3\n      swap2\n      swap1\n      tag_117\n      jump\t// in\n    tag_116:\n      mload(0x40)\n      dup1\n      swap2\n      sub\n      swap1\n      log1\n        /* \"contracts/Service.sol\":4139:4374  function deleteService(uint256 projectNumber, uint256 serviceNumber) public {... */\n      pop\n      pop\n      jump\t// out\n        /* \"contracts/Service.sol\":4421:4672  function createMilestone(uint256 projectNumber, uint256 serviceNumber, string memory titleMilestone, string memory descriptionMilestone) public {... */\n    tag_43:\n        /* \"contracts/Service.sol\":4575:4584  milestone */\n      0x00\n      dup1\n      sload\n      swap1\n      0x0100\n      exp\n      swap1\n      div\n      0xffffffffffffffffffffffffffffffffffffffff\n      and\n        /* \"contracts/Service.sol\":4575:4600  milestone.createMilestone */\n      0xffffffffffffffffffffffffffffffffffffffff\n      and\n      0x63ef8a50\n        /* \"contracts/Service.sol\":4601:4614  projectNumber */\n      dup6\n        /* \"contracts/Service.sol\":4615:4628  serviceNumber */\n      dup6\n        /* \"contracts/Service.sol\":4629:4643  titleMilestone */\n      dup6\n        /* \"contracts/Service.sol\":4644:4664  descriptionMilestone */\n      dup6\n        /* \"contracts/Service.sol\":4575:4665  milestone.createMilestone(projectNumber,serviceNumber,titleMilestone,descriptionMilestone) */\n      mload(0x40)\n      dup6\n      0xffffffff\n      and\n      0xe0\n      shl\n      dup2\n      mstore\n      0x04\n      add\n      tag_119\n      swap5\n      swap4\n      swap3\n      swap2\n      swap1\n      tag_120\n      jump\t// in\n    tag_119:\n      0x00\n      mload(0x40)\n      dup1\n      dup4\n      sub\n      dup2\n      0x00\n      dup8\n      dup1\n      extcodesize\n      iszero\n      dup1\n      iszero\n      tag_121\n      jumpi\n      0x00\n      dup1\n      revert\n    tag_121:\n      pop\n      gas\n      call\n      iszero\n      dup1\n      iszero\n      tag_123\n      jumpi\n      returndatasize\n      0x00\n      dup1\n      returndatacopy\n      revert(0x00, returndatasize)\n    tag_123:\n      pop\n      pop\n      pop\n      pop\n        /* \"contracts/Service.sol\":4421:4672  function createMilestone(uint256 projectNumber, uint256 serviceNumber, string memory titleMilestone, string memory descriptionMilestone) public {... */\n      pop\n      pop\n      pop\n      pop\n      jump\t// out\n        /* \"contracts/Service.sol\":3650:4094  function updateService(uint256 projectNumber, uint256 serviceNumber, string memory title, string memory description, uint256 price) public {... */\n    tag_47:\n        /* \"contracts/Service.sol\":3851:3856  title */\n      dup3\n        /* \"contracts/Service.sol\":3800:3815  projectServices */\n      0x03\n        /* \"contracts/Service.sol\":3800:3830  projectServices[projectNumber] */\n      0x00\n        /* \"contracts/Service.sol\":3816:3829  projectNumber */\n      dup8\n        /* \"contracts/Service.sol\":3800:3830  projectServices[projectNumber] */\n      dup2\n      mstore\n      0x20\n      add\n      swap1\n      dup2\n      mstore\n      0x20\n      add\n      0x00\n      keccak256\n        /* \"contracts/Service.sol\":3831:3841  serviceNum */\n      sload(0x02)\n        /* \"contracts/Service.sol\":3800:3842  projectServices[projectNumber][serviceNum] */\n      dup2\n      sload\n      dup2\n      lt\n      tag_125\n      jumpi\n      tag_126\n      tag_68\n      jump\t// in\n    tag_126:\n    tag_125:\n      swap1\n      0x00\n      mstore\n      keccak256(0x00, 0x20)\n      swap1\n      0x08\n      mul\n      add\n        /* \"contracts/Service.sol\":3800:3848  projectServices[projectNumber][serviceNum].title */\n      0x02\n      add\n        /* \"contracts/Service.sol\":3800:3856  projectServices[projectNumber][serviceNum].title = title */\n      swap1\n      dup1\n      mload\n      swap1\n      0x20\n      add\n      swap1\n      tag_128\n      swap3\n      swap2\n      swap1\n      tag_71\n      jump\t// in\n    tag_128:\n      pop\n        /* \"contracts/Service.sol\":3923:3934  description */\n      dup2\n        /* \"contracts/Service.sol\":3866:3881  projectServices */\n      0x03\n        /* \"contracts/Service.sol\":3866:3896  projectServices[projectNumber] */\n      0x00\n        /* \"contracts/Service.sol\":3882:3895  projectNumber */\n      dup8\n        /* \"contracts/Service.sol\":3866:3896  projectServices[projectNumber] */\n      dup2\n      mstore\n      0x20\n      add\n      swap1\n      dup2\n      mstore\n      0x20\n      add\n      0x00\n      keccak256\n        /* \"contracts/Service.sol\":3897:3907  serviceNum */\n      sload(0x02)\n        /* \"contracts/Service.sol\":3866:3908  projectServices[projectNumber][serviceNum] */\n      dup2\n      sload\n      dup2\n      lt\n      tag_129\n      jumpi\n      tag_130\n      tag_68\n      jump\t// in\n    tag_130:\n    tag_129:\n      swap1\n      0x00\n      mstore\n      keccak256(0x00, 0x20)\n      swap1\n      0x08\n      mul\n      add\n        /* \"contracts/Service.sol\":3866:3920  projectServices[projectNumber][serviceNum].description */\n      0x03\n      add\n        /* \"contracts/Service.sol\":3866:3934  projectServices[projectNumber][serviceNum].description = description */\n      swap1\n      dup1\n      mload\n      swap1\n      0x20\n      add\n      swap1\n      tag_132\n      swap3\n      swap2\n      swap1\n      tag_71\n      jump\t// in\n    tag_132:\n      pop\n        /* \"contracts/Service.sol\":3995:4000  price */\n      dup1\n        /* \"contracts/Service.sol\":3944:3959  projectServices */\n      0x03\n        /* \"contracts/Service.sol\":3944:3974  projectServices[projectNumber] */\n      0x00\n        /* \"contracts/Service.sol\":3960:3973  projectNumber */\n      dup8\n        /* \"contracts/Service.sol\":3944:3974  projectServices[projectNumber] */\n      dup2\n      mstore\n      0x20\n      add\n      swap1\n      dup2\n      mstore\n      0x20\n      add\n      0x00\n      keccak256\n        /* \"contracts/Service.sol\":3975:3985  serviceNum */\n      sload(0x02)\n        /* \"contracts/Service.sol\":3944:3986  projectServices[projectNumber][serviceNum] */\n      dup2\n      sload\n      dup2\n      lt\n      tag_133\n      jumpi\n      tag_134\n      tag_68\n      jump\t// in\n    tag_134:\n    tag_133:\n      swap1\n      0x00\n      mstore\n      keccak256(0x00, 0x20)\n      swap1\n      0x08\n      mul\n      add\n        /* \"contracts/Service.sol\":3944:3992  projectServices[projectNumber][serviceNum].price */\n      0x04\n      add\n        /* \"contracts/Service.sol\":3944:4000  projectServices[projectNumber][serviceNum].price = price */\n      dup2\n      swap1\n      sstore\n      pop\n        /* \"contracts/Service.sol\":4016:4087  serviceUpdated(projectNumber, serviceNumber, title, description, price) */\n      0x68dd1fad96ebc5f1740866ec07701d4ab66240c086d6ae6d351ee74eacdf267e\n        /* \"contracts/Service.sol\":4031:4044  projectNumber */\n      dup6\n        /* \"contracts/Service.sol\":4046:4059  serviceNumber */\n      dup6\n        /* \"contracts/Service.sol\":4061:4066  title */\n      dup6\n        /* \"contracts/Service.sol\":4068:4079  description */\n      dup6\n        /* \"contracts/Service.sol\":4081:4086  price */\n      dup6\n        /* \"contracts/Service.sol\":4016:4087  serviceUpdated(projectNumber, serviceNumber, title, description, price) */\n      mload(0x40)\n      tag_136\n      swap6\n      swap5\n      swap4\n      swap3\n      swap2\n      swap1\n      tag_77\n      jump\t// in\n    tag_136:\n      mload(0x40)\n      dup1\n      swap2\n      sub\n      swap1\n      log1\n        /* \"contracts/Service.sol\":3650:4094  function updateService(uint256 projectNumber, uint256 serviceNumber, string memory title, string memory description, uint256 price) public {... */\n      pop\n      pop\n      pop\n      pop\n      pop\n      jump\t// out\n        /* \"contracts/Service.sol\":5342:5540  function deleteMilestone(uint256 projectNumber, uint256 serviceNumber, uint256 milestoneNumber) public {        ... */\n    tag_50:\n        /* \"contracts/Service.sol\":5463:5472  milestone */\n      0x00\n      dup1\n      sload\n      swap1\n      0x0100\n      exp\n      swap1\n      div\n      0xffffffffffffffffffffffffffffffffffffffff\n      and\n        /* \"contracts/Service.sol\":5463:5488  milestone.deleteMilestone */\n      0xffffffffffffffffffffffffffffffffffffffff\n      and\n      0xb9b6c5d4\n        /* \"contracts/Service.sol\":5489:5502  projectNumber */\n      dup5\n        /* \"contracts/Service.sol\":5503:5516  serviceNumber */\n      dup5\n        /* \"contracts/Service.sol\":5517:5532  milestoneNumber */\n      dup5\n        /* \"contracts/Service.sol\":5463:5533  milestone.deleteMilestone(projectNumber,serviceNumber,milestoneNumber) */\n      mload(0x40)\n      dup5\n      0xffffffff\n      and\n      0xe0\n      shl\n      dup2\n      mstore\n      0x04\n      add\n      tag_138\n      swap4\n      swap3\n      swap2\n      swap1\n      tag_83\n      jump\t// in\n    tag_138:\n      0x00\n      mload(0x40)\n      dup1\n      dup4\n      sub\n      dup2\n      0x00\n      dup8\n      dup1\n      extcodesize\n      iszero\n      dup1\n      iszero\n      tag_139\n      jumpi\n      0x00\n      dup1\n      revert\n    tag_139:\n      pop\n      gas\n      call\n      iszero\n      dup1\n      iszero\n      tag_141\n      jumpi\n      returndatasize\n      0x00\n      dup1\n      returndatacopy\n      revert(0x00, returndatasize)\n    tag_141:\n      pop\n      pop\n      pop\n      pop\n        /* \"contracts/Service.sol\":5342:5540  function deleteMilestone(uint256 projectNumber, uint256 serviceNumber, uint256 milestoneNumber) public {        ... */\n      pop\n      pop\n      pop\n      jump\t// out\n        /* \"contracts/Service.sol\":5003:5295  function updateMilestone(uint256 projectNumber, uint256 serviceNumber, uint256 milestoneNumber, string memory titleMilestone, string memory descriptionMilestone) public {... */\n    tag_54:\n        /* \"contracts/Service.sol\":5182:5191  milestone */\n      0x00\n      dup1\n      sload\n      swap1\n      0x0100\n      exp\n      swap1\n      div\n      0xffffffffffffffffffffffffffffffffffffffff\n      and\n        /* \"contracts/Service.sol\":5182:5207  milestone.updateMilestone */\n      0xffffffffffffffffffffffffffffffffffffffff\n      and\n      0xfd23c4bb\n        /* \"contracts/Service.sol\":5208:5221  projectNumber */\n      dup7\n        /* \"contracts/Service.sol\":5222:5235  serviceNumber */\n      dup7\n        /* \"contracts/Service.sol\":5236:5251  milestoneNumber */\n      dup7\n        /* \"contracts/Service.sol\":5252:5266  titleMilestone */\n      dup7\n        /* \"contracts/Service.sol\":5267:5287  descriptionMilestone */\n      dup7\n        /* \"contracts/Service.sol\":5182:5288  milestone.updateMilestone(projectNumber,serviceNumber,milestoneNumber,titleMilestone,descriptionMilestone) */\n      mload(0x40)\n      dup7\n      0xffffffff\n      and\n      0xe0\n      shl\n      dup2\n      mstore\n      0x04\n      add\n      tag_143\n      swap6\n      swap5\n      swap4\n      swap3\n      swap2\n      swap1\n      tag_144\n      jump\t// in\n    tag_143:\n      0x00\n      mload(0x40)\n      dup1\n      dup4\n      sub\n      dup2\n      0x00\n      dup8\n      dup1\n      extcodesize\n      iszero\n      dup1\n      iszero\n      tag_145\n      jumpi\n      0x00\n      dup1\n      revert\n    tag_145:\n      pop\n      gas\n      call\n      iszero\n      dup1\n      iszero\n      tag_147\n      jumpi\n      returndatasize\n      0x00\n      dup1\n      returndatacopy\n      revert(0x00, returndatasize)\n    tag_147:\n      pop\n      pop\n      pop\n      pop\n        /* \"contracts/Service.sol\":5003:5295  function updateMilestone(uint256 projectNumber, uint256 serviceNumber, uint256 milestoneNumber, string memory titleMilestone, string memory descriptionMilestone) public {... */\n      pop\n      pop\n      pop\n      pop\n      pop\n      jump\t// out\n    tag_71:\n      dup3\n      dup1\n      sload\n      tag_148\n      swap1\n      tag_96\n      jump\t// in\n    tag_148:\n      swap1\n      0x00\n      mstore\n      keccak256(0x00, 0x20)\n      swap1\n      0x1f\n      add\n      0x20\n      swap1\n      div\n      dup2\n      add\n      swap3\n      dup3\n      tag_150\n      jumpi\n      0x00\n      dup6\n      sstore\n      jump(tag_149)\n    tag_150:\n      dup3\n      0x1f\n      lt\n      tag_151\n      jumpi\n      dup1\n      mload\n      not(0xff)\n      and\n      dup4\n      dup1\n      add\n      or\n      dup6\n      sstore\n      jump(tag_149)\n    tag_151:\n      dup3\n      dup1\n      add\n      0x01\n      add\n      dup6\n      sstore\n      dup3\n      iszero\n      tag_149\n      jumpi\n      swap2\n      dup3\n      add\n    tag_152:\n      dup3\n      dup2\n      gt\n      iszero\n      tag_153\n      jumpi\n      dup3\n      mload\n      dup3\n      sstore\n      swap2\n      0x20\n      add\n      swap2\n      swap1\n      0x01\n      add\n      swap1\n      jump(tag_152)\n    tag_153:\n    tag_149:\n      pop\n      swap1\n      pop\n      tag_154\n      swap2\n      swap1\n      tag_155\n      jump\t// in\n    tag_154:\n      pop\n      swap1\n      jump\t// out\n    tag_90:\n      mload(0x40)\n      dup1\n      0x0140\n      add\n      0x40\n      mstore\n      dup1\n      0x00\n      dup2\n      mstore\n      0x20\n      add\n      0x00\n      dup2\n      mstore\n      0x20\n      add\n      0x60\n      dup2\n      mstore\n      0x20\n      add\n      0x60\n      dup2\n      mstore\n      0x20\n      add\n      0x00\n      dup2\n      mstore\n      0x20\n      add\n      0x00\n      dup2\n      mstore\n      0x20\n      add\n      and(0xffffffffffffffffffffffffffffffffffffffff, 0x00)\n      dup2\n      mstore\n      0x20\n      add\n      and(0xffffffffffffffffffffffffffffffffffffffff, 0x00)\n      dup2\n      mstore\n      0x20\n      add\n      iszero(iszero(0x00))\n      dup2\n      mstore\n      0x20\n      add\n      0x00\n      0x05\n      dup2\n      gt\n      iszero\n      tag_156\n      jumpi\n      tag_157\n      tag_75\n      jump\t// in\n    tag_157:\n    tag_156:\n      dup2\n      mstore\n      pop\n      swap1\n      jump\t// out\n    tag_155:\n    tag_158:\n      dup1\n      dup3\n      gt\n      iszero\n      tag_159\n      jumpi\n      0x00\n      dup2\n      0x00\n      swap1\n      sstore\n      pop\n      0x01\n      add\n      jump(tag_158)\n    tag_159:\n      pop\n      swap1\n      jump\t// out\n        /* \"#utility.yul\":7:419   */\n    tag_161:\n        /* \"#utility.yul\":85:90   */\n      0x00\n        /* \"#utility.yul\":110:176   */\n      tag_163\n        /* \"#utility.yul\":126:175   */\n      tag_164\n        /* \"#utility.yul\":168:174   */\n      dup5\n        /* \"#utility.yul\":126:175   */\n      tag_165\n      jump\t// in\n    tag_164:\n        /* \"#utility.yul\":110:176   */\n      tag_166\n      jump\t// in\n    tag_163:\n        /* \"#utility.yul\":101:176   */\n      swap1\n      pop\n        /* \"#utility.yul\":199:205   */\n      dup3\n        /* \"#utility.yul\":192:197   */\n      dup2\n        /* \"#utility.yul\":185:206   */\n      mstore\n        /* \"#utility.yul\":237:241   */\n      0x20\n        /* \"#utility.yul\":230:235   */\n      dup2\n        /* \"#utility.yul\":226:242   */\n      add\n        /* \"#utility.yul\":275:278   */\n      dup5\n        /* \"#utility.yul\":266:272   */\n      dup5\n        /* \"#utility.yul\":261:264   */\n      dup5\n        /* \"#utility.yul\":257:273   */\n      add\n        /* \"#utility.yul\":254:279   */\n      gt\n        /* \"#utility.yul\":251:363   */\n      iszero\n      tag_167\n      jumpi\n        /* \"#utility.yul\":282:361   */\n      tag_168\n      tag_169\n      jump\t// in\n    tag_168:\n        /* \"#utility.yul\":251:363   */\n    tag_167:\n        /* \"#utility.yul\":372:413   */\n      tag_170\n        /* \"#utility.yul\":406:412   */\n      dup5\n        /* \"#utility.yul\":401:404   */\n      dup3\n        /* \"#utility.yul\":396:399   */\n      dup6\n        /* \"#utility.yul\":372:413   */\n      tag_171\n      jump\t// in\n    tag_170:\n        /* \"#utility.yul\":91:419   */\n      pop\n        /* \"#utility.yul\":7:419   */\n      swap4\n      swap3\n      pop\n      pop\n      pop\n      jump\t// out\n        /* \"#utility.yul\":425:846   */\n    tag_172:\n        /* \"#utility.yul\":514:519   */\n      0x00\n        /* \"#utility.yul\":539:605   */\n      tag_174\n        /* \"#utility.yul\":555:604   */\n      tag_175\n        /* \"#utility.yul\":597:603   */\n      dup5\n        /* \"#utility.yul\":555:604   */\n      tag_165\n      jump\t// in\n    tag_175:\n        /* \"#utility.yul\":539:605   */\n      tag_166\n      jump\t// in\n    tag_174:\n        /* \"#utility.yul\":530:605   */\n      swap1\n      pop\n        /* \"#utility.yul\":628:634   */\n      dup3\n        /* \"#utility.yul\":621:626   */\n      dup2\n        /* \"#utility.yul\":614:635   */\n      mstore\n        /* \"#utility.yul\":666:670   */\n      0x20\n        /* \"#utility.yul\":659:664   */\n      dup2\n        /* \"#utility.yul\":655:671   */\n      add\n        /* \"#utility.yul\":704:707   */\n      dup5\n        /* \"#utility.yul\":695:701   */\n      dup5\n        /* \"#utility.yul\":690:693   */\n      dup5\n        /* \"#utility.yul\":686:702   */\n      add\n        /* \"#utility.yul\":683:708   */\n      gt\n        /* \"#utility.yul\":680:792   */\n      iszero\n      tag_176\n      jumpi\n        /* \"#utility.yul\":711:790   */\n      tag_177\n      tag_169\n      jump\t// in\n    tag_177:\n        /* \"#utility.yul\":680:792   */\n    tag_176:\n        /* \"#utility.yul\":801:840   */\n      tag_178\n        /* \"#utility.yul\":833:839   */\n      dup5\n        /* \"#utility.yul\":828:831   */\n      dup3\n        /* \"#utility.yul\":823:826   */\n      dup6\n        /* \"#utility.yul\":801:840   */\n      tag_179\n      jump\t// in\n    tag_178:\n        /* \"#utility.yul\":520:846   */\n      pop\n        /* \"#utility.yul\":425:846   */\n      swap4\n      swap3\n      pop\n      pop\n      pop\n      jump\t// out\n        /* \"#utility.yul\":852:991   */\n    tag_180:\n        /* \"#utility.yul\":898:903   */\n      0x00\n        /* \"#utility.yul\":936:942   */\n      dup2\n        /* \"#utility.yul\":923:943   */\n      calldataload\n        /* \"#utility.yul\":914:943   */\n      swap1\n      pop\n        /* \"#utility.yul\":952:985   */\n      tag_182\n        /* \"#utility.yul\":979:984   */\n      dup2\n        /* \"#utility.yul\":952:985   */\n      tag_183\n      jump\t// in\n    tag_182:\n        /* \"#utility.yul\":852:991   */\n      swap3\n      swap2\n      pop\n      pop\n      jump\t// out\n        /* \"#utility.yul\":1011:1351   */\n    tag_184:\n        /* \"#utility.yul\":1067:1072   */\n      0x00\n        /* \"#utility.yul\":1116:1119   */\n      dup3\n        /* \"#utility.yul\":1109:1113   */\n      0x1f\n        /* \"#utility.yul\":1101:1107   */\n      dup4\n        /* \"#utility.yul\":1097:1114   */\n      add\n        /* \"#utility.yul\":1093:1120   */\n      slt\n        /* \"#utility.yul\":1083:1205   */\n      tag_186\n      jumpi\n        /* \"#utility.yul\":1124:1203   */\n      tag_187\n      tag_188\n      jump\t// in\n    tag_187:\n        /* \"#utility.yul\":1083:1205   */\n    tag_186:\n        /* \"#utility.yul\":1241:1247   */\n      dup2\n        /* \"#utility.yul\":1228:1248   */\n      calldataload\n        /* \"#utility.yul\":1266:1345   */\n      tag_189\n        /* \"#utility.yul\":1341:1344   */\n      dup5\n        /* \"#utility.yul\":1333:1339   */\n      dup3\n        /* \"#utility.yul\":1326:1330   */\n      0x20\n        /* \"#utility.yul\":1318:1324   */\n      dup7\n        /* \"#utility.yul\":1314:1331   */\n      add\n        /* \"#utility.yul\":1266:1345   */\n      tag_161\n      jump\t// in\n    tag_189:\n        /* \"#utility.yul\":1257:1345   */\n      swap2\n      pop\n        /* \"#utility.yul\":1073:1351   */\n      pop\n        /* \"#utility.yul\":1011:1351   */\n      swap3\n      swap2\n      pop\n      pop\n      jump\t// out\n        /* \"#utility.yul\":1371:1726   */\n    tag_190:\n        /* \"#utility.yul\":1438:1443   */\n      0x00\n        /* \"#utility.yul\":1487:1490   */\n      dup3\n        /* \"#utility.yul\":1480:1484   */\n      0x1f\n        /* \"#utility.yul\":1472:1478   */\n      dup4\n        /* \"#utility.yul\":1468:1485   */\n      add\n        /* \"#utility.yul\":1464:1491   */\n      slt\n        /* \"#utility.yul\":1454:1576   */\n      tag_192\n      jumpi\n        /* \"#utility.yul\":1495:1574   */\n      tag_193\n      tag_188\n      jump\t// in\n    tag_193:\n        /* \"#utility.yul\":1454:1576   */\n    tag_192:\n        /* \"#utility.yul\":1605:1611   */\n      dup2\n        /* \"#utility.yul\":1599:1612   */\n      mload\n        /* \"#utility.yul\":1630:1720   */\n      tag_194\n        /* \"#utility.yul\":1716:1719   */\n      dup5\n        /* \"#utility.yul\":1708:1714   */\n      dup3\n        /* \"#utility.yul\":1701:1705   */\n      0x20\n        /* \"#utility.yul\":1693:1699   */\n      dup7\n        /* \"#utility.yul\":1689:1706   */\n      add\n        /* \"#utility.yul\":1630:1720   */\n      tag_172\n      jump\t// in\n    tag_194:\n        /* \"#utility.yul\":1621:1720   */\n      swap2\n      pop\n        /* \"#utility.yul\":1444:1726   */\n      pop\n        /* \"#utility.yul\":1371:1726   */\n      swap3\n      swap2\n      pop\n      pop\n      jump\t// out\n        /* \"#utility.yul\":1732:1871   */\n    tag_195:\n        /* \"#utility.yul\":1778:1783   */\n      0x00\n        /* \"#utility.yul\":1816:1822   */\n      dup2\n        /* \"#utility.yul\":1803:1823   */\n      calldataload\n        /* \"#utility.yul\":1794:1823   */\n      swap1\n      pop\n        /* \"#utility.yul\":1832:1865   */\n      tag_197\n        /* \"#utility.yul\":1859:1864   */\n      dup2\n        /* \"#utility.yul\":1832:1865   */\n      tag_198\n      jump\t// in\n    tag_197:\n        /* \"#utility.yul\":1732:1871   */\n      swap3\n      swap2\n      pop\n      pop\n      jump\t// out\n        /* \"#utility.yul\":1877:2730   */\n    tag_88:\n        /* \"#utility.yul\":1976:1982   */\n      0x00\n        /* \"#utility.yul\":1984:1990   */\n      dup1\n        /* \"#utility.yul\":2033:2035   */\n      0x40\n        /* \"#utility.yul\":2021:2030   */\n      dup4\n        /* \"#utility.yul\":2012:2019   */\n      dup6\n        /* \"#utility.yul\":2008:2031   */\n      sub\n        /* \"#utility.yul\":2004:2036   */\n      slt\n        /* \"#utility.yul\":2001:2120   */\n      iszero\n      tag_200\n      jumpi\n        /* \"#utility.yul\":2039:2118   */\n      tag_201\n      tag_202\n      jump\t// in\n    tag_201:\n        /* \"#utility.yul\":2001:2120   */\n    tag_200:\n        /* \"#utility.yul\":2180:2181   */\n      0x00\n        /* \"#utility.yul\":2169:2178   */\n      dup4\n        /* \"#utility.yul\":2165:2182   */\n      add\n        /* \"#utility.yul\":2159:2183   */\n      mload\n        /* \"#utility.yul\":2210:2228   */\n      0xffffffffffffffff\n        /* \"#utility.yul\":2202:2208   */\n      dup2\n        /* \"#utility.yul\":2199:2229   */\n      gt\n        /* \"#utility.yul\":2196:2313   */\n      iszero\n      tag_203\n      jumpi\n        /* \"#utility.yul\":2232:2311   */\n      tag_204\n      tag_205\n      jump\t// in\n    tag_204:\n        /* \"#utility.yul\":2196:2313   */\n    tag_203:\n        /* \"#utility.yul\":2337:2411   */\n      tag_206\n        /* \"#utility.yul\":2403:2410   */\n      dup6\n        /* \"#utility.yul\":2394:2400   */\n      dup3\n        /* \"#utility.yul\":2383:2392   */\n      dup7\n        /* \"#utility.yul\":2379:2401   */\n      add\n        /* \"#utility.yul\":2337:2411   */\n      tag_190\n      jump\t// in\n    tag_206:\n        /* \"#utility.yul\":2327:2411   */\n      swap3\n      pop\n        /* \"#utility.yul\":2130:2421   */\n      pop\n        /* \"#utility.yul\":2481:2483   */\n      0x20\n        /* \"#utility.yul\":2470:2479   */\n      dup4\n        /* \"#utility.yul\":2466:2484   */\n      add\n        /* \"#utility.yul\":2460:2485   */\n      mload\n        /* \"#utility.yul\":2512:2530   */\n      0xffffffffffffffff\n        /* \"#utility.yul\":2504:2510   */\n      dup2\n        /* \"#utility.yul\":2501:2531   */\n      gt\n        /* \"#utility.yul\":2498:2615   */\n      iszero\n      tag_207\n      jumpi\n        /* \"#utility.yul\":2534:2613   */\n      tag_208\n      tag_205\n      jump\t// in\n    tag_208:\n        /* \"#utility.yul\":2498:2615   */\n    tag_207:\n        /* \"#utility.yul\":2639:2713   */\n      tag_209\n        /* \"#utility.yul\":2705:2712   */\n      dup6\n        /* \"#utility.yul\":2696:2702   */\n      dup3\n        /* \"#utility.yul\":2685:2694   */\n      dup7\n        /* \"#utility.yul\":2681:2703   */\n      add\n        /* \"#utility.yul\":2639:2713   */\n      tag_190\n      jump\t// in\n    tag_209:\n        /* \"#utility.yul\":2629:2713   */\n      swap2\n      pop\n        /* \"#utility.yul\":2431:2723   */\n      pop\n        /* \"#utility.yul\":1877:2730   */\n      swap3\n      pop\n      swap3\n      swap1\n      pop\n      jump\t// out\n        /* \"#utility.yul\":2736:4007   */\n    tag_16:\n        /* \"#utility.yul\":2851:2857   */\n      0x00\n        /* \"#utility.yul\":2859:2865   */\n      dup1\n        /* \"#utility.yul\":2867:2873   */\n      0x00\n        /* \"#utility.yul\":2875:2881   */\n      dup1\n        /* \"#utility.yul\":2883:2889   */\n      0x00\n        /* \"#utility.yul\":2932:2935   */\n      0xa0\n        /* \"#utility.yul\":2920:2929   */\n      dup7\n        /* \"#utility.yul\":2911:2918   */\n      dup9\n        /* \"#utility.yul\":2907:2930   */\n      sub\n        /* \"#utility.yul\":2903:2936   */\n      slt\n        /* \"#utility.yul\":2900:3020   */\n      iszero\n      tag_211\n      jumpi\n        /* \"#utility.yul\":2939:3018   */\n      tag_212\n      tag_202\n      jump\t// in\n    tag_212:\n        /* \"#utility.yul\":2900:3020   */\n    tag_211:\n        /* \"#utility.yul\":3059:3060   */\n      0x00\n        /* \"#utility.yul\":3084:3137   */\n      tag_213\n        /* \"#utility.yul\":3129:3136   */\n      dup9\n        /* \"#utility.yul\":3120:3126   */\n      dup3\n        /* \"#utility.yul\":3109:3118   */\n      dup10\n        /* \"#utility.yul\":3105:3127   */\n      add\n        /* \"#utility.yul\":3084:3137   */\n      tag_195\n      jump\t// in\n    tag_213:\n        /* \"#utility.yul\":3074:3137   */\n      swap6\n      pop\n        /* \"#utility.yul\":3030:3147   */\n      pop\n        /* \"#utility.yul\":3214:3216   */\n      0x20\n        /* \"#utility.yul\":3203:3212   */\n      dup7\n        /* \"#utility.yul\":3199:3217   */\n      add\n        /* \"#utility.yul\":3186:3218   */\n      calldataload\n        /* \"#utility.yul\":3245:3263   */\n      0xffffffffffffffff\n        /* \"#utility.yul\":3237:3243   */\n      dup2\n        /* \"#utility.yul\":3234:3264   */\n      gt\n        /* \"#utility.yul\":3231:3348   */\n      iszero\n      tag_214\n      jumpi\n        /* \"#utility.yul\":3267:3346   */\n      tag_215\n      tag_205\n      jump\t// in\n    tag_215:\n        /* \"#utility.yul\":3231:3348   */\n    tag_214:\n        /* \"#utility.yul\":3372:3435   */\n      tag_216\n        /* \"#utility.yul\":3427:3434   */\n      dup9\n        /* \"#utility.yul\":3418:3424   */\n      dup3\n        /* \"#utility.yul\":3407:3416   */\n      dup10\n        /* \"#utility.yul\":3403:3425   */\n      add\n        /* \"#utility.yul\":3372:3435   */\n      tag_184\n      jump\t// in\n    tag_216:\n        /* \"#utility.yul\":3362:3435   */\n      swap5\n      pop\n        /* \"#utility.yul\":3157:3445   */\n      pop\n        /* \"#utility.yul\":3512:3514   */\n      0x40\n        /* \"#utility.yul\":3501:3510   */\n      dup7\n        /* \"#utility.yul\":3497:3515   */\n      add\n        /* \"#utility.yul\":3484:3516   */\n      calldataload\n        /* \"#utility.yul\":3543:3561   */\n      0xffffffffffffffff\n        /* \"#utility.yul\":3535:3541   */\n      dup2\n        /* \"#utility.yul\":3532:3562   */\n      gt\n        /* \"#utility.yul\":3529:3646   */\n      iszero\n      tag_217\n      jumpi\n        /* \"#utility.yul\":3565:3644   */\n      tag_218\n      tag_205\n      jump\t// in\n    tag_218:\n        /* \"#utility.yul\":3529:3646   */\n    tag_217:\n        /* \"#utility.yul\":3670:3733   */\n      tag_219\n        /* \"#utility.yul\":3725:3732   */\n      dup9\n        /* \"#utility.yul\":3716:3722   */\n      dup3\n        /* \"#utility.yul\":3705:3714   */\n      dup10\n        /* \"#utility.yul\":3701:3723   */\n      add\n        /* \"#utility.yul\":3670:3733   */\n      tag_184\n      jump\t// in\n    tag_219:\n        /* \"#utility.yul\":3660:3733   */\n      swap4\n      pop\n        /* \"#utility.yul\":3455:3743   */\n      pop\n        /* \"#utility.yul\":3782:3784   */\n      0x60\n        /* \"#utility.yul\":3808:3861   */\n      tag_220\n        /* \"#utility.yul\":3853:3860   */\n      dup9\n        /* \"#utility.yul\":3844:3850   */\n      dup3\n        /* \"#utility.yul\":3833:3842   */\n      dup10\n        /* \"#utility.yul\":3829:3851   */\n      add\n        /* \"#utility.yul\":3808:3861   */\n      tag_195\n      jump\t// in\n    tag_220:\n        /* \"#utility.yul\":3798:3861   */\n      swap3\n      pop\n        /* \"#utility.yul\":3753:3871   */\n      pop\n        /* \"#utility.yul\":3910:3913   */\n      0x80\n        /* \"#utility.yul\":3937:3990   */\n      tag_221\n        /* \"#utility.yul\":3982:3989   */\n      dup9\n        /* \"#utility.yul\":3973:3979   */\n      dup3\n        /* \"#utility.yul\":3962:3971   */\n      dup10\n        /* \"#utility.yul\":3958:3980   */\n      add\n        /* \"#utility.yul\":3937:3990   */\n      tag_180\n      jump\t// in\n    tag_221:\n        /* \"#utility.yul\":3927:3990   */\n      swap2\n      pop\n        /* \"#utility.yul\":3881:4000   */\n      pop\n        /* \"#utility.yul\":2736:4007   */\n      swap3\n      swap6\n      pop\n      swap3\n      swap6\n      swap1\n      swap4\n      pop\n      jump\t// out\n        /* \"#utility.yul\":4013:4487   */\n    tag_33:\n        /* \"#utility.yul\":4081:4087   */\n      0x00\n        /* \"#utility.yul\":4089:4095   */\n      dup1\n        /* \"#utility.yul\":4138:4140   */\n      0x40\n        /* \"#utility.yul\":4126:4135   */\n      dup4\n        /* \"#utility.yul\":4117:4124   */\n      dup6\n        /* \"#utility.yul\":4113:4136   */\n      sub\n        /* \"#utility.yul\":4109:4141   */\n      slt\n        /* \"#utility.yul\":4106:4225   */\n      iszero\n      tag_223\n      jumpi\n        /* \"#utility.yul\":4144:4223   */\n      tag_224\n      tag_202\n      jump\t// in\n    tag_224:\n        /* \"#utility.yul\":4106:4225   */\n    tag_223:\n        /* \"#utility.yul\":4264:4265   */\n      0x00\n        /* \"#utility.yul\":4289:4342   */\n      tag_225\n        /* \"#utility.yul\":4334:4341   */\n      dup6\n        /* \"#utility.yul\":4325:4331   */\n      dup3\n        /* \"#utility.yul\":4314:4323   */\n      dup7\n        /* \"#utility.yul\":4310:4332   */\n      add\n        /* \"#utility.yul\":4289:4342   */\n      tag_195\n      jump\t// in\n    tag_225:\n        /* \"#utility.yul\":4279:4342   */\n      swap3\n      pop\n        /* \"#utility.yul\":4235:4352   */\n      pop\n        /* \"#utility.yul\":4391:4393   */\n      0x20\n        /* \"#utility.yul\":4417:4470   */\n      tag_226\n        /* \"#utility.yul\":4462:4469   */\n      dup6\n        /* \"#utility.yul\":4453:4459   */\n      dup3\n        /* \"#utility.yul\":4442:4451   */\n      dup7\n        /* \"#utility.yul\":4438:4460   */\n      add\n        /* \"#utility.yul\":4417:4470   */\n      tag_195\n      jump\t// in\n    tag_226:\n        /* \"#utility.yul\":4407:4470   */\n      swap2\n      pop\n        /* \"#utility.yul\":4362:4480   */\n      pop\n        /* \"#utility.yul\":4013:4487   */\n      swap3\n      pop\n      swap3\n      swap1\n      pop\n      jump\t// out\n        /* \"#utility.yul\":4493:5618   */\n    tag_42:\n        /* \"#utility.yul\":4599:4605   */\n      0x00\n        /* \"#utility.yul\":4607:4613   */\n      dup1\n        /* \"#utility.yul\":4615:4621   */\n      0x00\n        /* \"#utility.yul\":4623:4629   */\n      dup1\n        /* \"#utility.yul\":4672:4675   */\n      0x80\n        /* \"#utility.yul\":4660:4669   */\n      dup6\n        /* \"#utility.yul\":4651:4658   */\n      dup8\n        /* \"#utility.yul\":4647:4670   */\n      sub\n        /* \"#utility.yul\":4643:4676   */\n      slt\n        /* \"#utility.yul\":4640:4760   */\n      iszero\n      tag_228\n      jumpi\n        /* \"#utility.yul\":4679:4758   */\n      tag_229\n      tag_202\n      jump\t// in\n    tag_229:\n        /* \"#utility.yul\":4640:4760   */\n    tag_228:\n        /* \"#utility.yul\":4799:4800   */\n      0x00\n        /* \"#utility.yul\":4824:4877   */\n      tag_230\n        /* \"#utility.yul\":4869:4876   */\n      dup8\n        /* \"#utility.yul\":4860:4866   */\n      dup3\n        /* \"#utility.yul\":4849:4858   */\n      dup9\n        /* \"#utility.yul\":4845:4867   */\n      add\n        /* \"#utility.yul\":4824:4877   */\n      tag_195\n      jump\t// in\n    tag_230:\n        /* \"#utility.yul\":4814:4877   */\n      swap5\n      pop\n        /* \"#utility.yul\":4770:4887   */\n      pop\n        /* \"#utility.yul\":4926:4928   */\n      0x20\n        /* \"#utility.yul\":4952:5005   */\n      tag_231\n        /* \"#utility.yul\":4997:5004   */\n      dup8\n        /* \"#utility.yul\":4988:4994   */\n      dup3\n        /* \"#utility.yul\":4977:4986   */\n      dup9\n        /* \"#utility.yul\":4973:4995   */\n      add\n        /* \"#utility.yul\":4952:5005   */\n      tag_195\n      jump\t// in\n    tag_231:\n        /* \"#utility.yul\":4942:5005   */\n      swap4\n      pop\n        /* \"#utility.yul\":4897:5015   */\n      pop\n        /* \"#utility.yul\":5082:5084   */\n      0x40\n        /* \"#utility.yul\":5071:5080   */\n      dup6\n        /* \"#utility.yul\":5067:5085   */\n      add\n        /* \"#utility.yul\":5054:5086   */\n      calldataload\n        /* \"#utility.yul\":5113:5131   */\n      0xffffffffffffffff\n        /* \"#utility.yul\":5105:5111   */\n      dup2\n        /* \"#utility.yul\":5102:5132   */\n      gt\n        /* \"#utility.yul\":5099:5216   */\n      iszero\n      tag_232\n      jumpi\n        /* \"#utility.yul\":5135:5214   */\n      tag_233\n      tag_205\n      jump\t// in\n    tag_233:\n        /* \"#utility.yul\":5099:5216   */\n    tag_232:\n        /* \"#utility.yul\":5240:5303   */\n      tag_234\n        /* \"#utility.yul\":5295:5302   */\n      dup8\n        /* \"#utility.yul\":5286:5292   */\n      dup3\n        /* \"#utility.yul\":5275:5284   */\n      dup9\n        /* \"#utility.yul\":5271:5293   */\n      add\n        /* \"#utility.yul\":5240:5303   */\n      tag_184\n      jump\t// in\n    tag_234:\n        /* \"#utility.yul\":5230:5303   */\n      swap3\n      pop\n        /* \"#utility.yul\":5025:5313   */\n      pop\n        /* \"#utility.yul\":5380:5382   */\n      0x60\n        /* \"#utility.yul\":5369:5378   */\n      dup6\n        /* \"#utility.yul\":5365:5383   */\n      add\n        /* \"#utility.yul\":5352:5384   */\n      calldataload\n        /* \"#utility.yul\":5411:5429   */\n      0xffffffffffffffff\n        /* \"#utility.yul\":5403:5409   */\n      dup2\n        /* \"#utility.yul\":5400:5430   */\n      gt\n        /* \"#utility.yul\":5397:5514   */\n      iszero\n      tag_235\n      jumpi\n        /* \"#utility.yul\":5433:5512   */\n      tag_236\n      tag_205\n      jump\t// in\n    tag_236:\n        /* \"#utility.yul\":5397:5514   */\n    tag_235:\n        /* \"#utility.yul\":5538:5601   */\n      tag_237\n        /* \"#utility.yul\":5593:5600   */\n      dup8\n        /* \"#utility.yul\":5584:5590   */\n      dup3\n        /* \"#utility.yul\":5573:5582   */\n      dup9\n        /* \"#utility.yul\":5569:5591   */\n      add\n        /* \"#utility.yul\":5538:5601   */\n      tag_184\n      jump\t// in\n    tag_237:\n        /* \"#utility.yul\":5528:5601   */\n      swap2\n      pop\n        /* \"#utility.yul\":5323:5611   */\n      pop\n        /* \"#utility.yul\":4493:5618   */\n      swap3\n      swap6\n      swap2\n      swap5\n      pop\n      swap3\n      pop\n      jump\t// out\n        /* \"#utility.yul\":5624:6895   */\n    tag_46:\n        /* \"#utility.yul\":5739:5745   */\n      0x00\n        /* \"#utility.yul\":5747:5753   */\n      dup1\n        /* \"#utility.yul\":5755:5761   */\n      0x00\n        /* \"#utility.yul\":5763:5769   */\n      dup1\n        /* \"#utility.yul\":5771:5777   */\n      0x00\n        /* \"#utility.yul\":5820:5823   */\n      0xa0\n        /* \"#utility.yul\":5808:5817   */\n      dup7\n        /* \"#utility.yul\":5799:5806   */\n      dup9\n        /* \"#utility.yul\":5795:5818   */\n      sub\n        /* \"#utility.yul\":5791:5824   */\n      slt\n        /* \"#utility.yul\":5788:5908   */\n      iszero\n      tag_239\n      jumpi\n        /* \"#utility.yul\":5827:5906   */\n      tag_240\n      tag_202\n      jump\t// in\n    tag_240:\n        /* \"#utility.yul\":5788:5908   */\n    tag_239:\n        /* \"#utility.yul\":5947:5948   */\n      0x00\n        /* \"#utility.yul\":5972:6025   */\n      tag_241\n        /* \"#utility.yul\":6017:6024   */\n      dup9\n        /* \"#utility.yul\":6008:6014   */\n      dup3\n        /* \"#utility.yul\":5997:6006   */\n      dup10\n        /* \"#utility.yul\":5993:6015   */\n      add\n        /* \"#utility.yul\":5972:6025   */\n      tag_195\n      jump\t// in\n    tag_241:\n        /* \"#utility.yul\":5962:6025   */\n      swap6\n      pop\n        /* \"#utility.yul\":5918:6035   */\n      pop\n        /* \"#utility.yul\":6074:6076   */\n      0x20\n        /* \"#utility.yul\":6100:6153   */\n      tag_242\n        /* \"#utility.yul\":6145:6152   */\n      dup9\n        /* \"#utility.yul\":6136:6142   */\n      dup3\n        /* \"#utility.yul\":6125:6134   */\n      dup10\n        /* \"#utility.yul\":6121:6143   */\n      add\n        /* \"#utility.yul\":6100:6153   */\n      tag_195\n      jump\t// in\n    tag_242:\n        /* \"#utility.yul\":6090:6153   */\n      swap5\n      pop\n        /* \"#utility.yul\":6045:6163   */\n      pop\n        /* \"#utility.yul\":6230:6232   */\n      0x40\n        /* \"#utility.yul\":6219:6228   */\n      dup7\n        /* \"#utility.yul\":6215:6233   */\n      add\n        /* \"#utility.yul\":6202:6234   */\n      calldataload\n        /* \"#utility.yul\":6261:6279   */\n      0xffffffffffffffff\n        /* \"#utility.yul\":6253:6259   */\n      dup2\n        /* \"#utility.yul\":6250:6280   */\n      gt\n        /* \"#utility.yul\":6247:6364   */\n      iszero\n      tag_243\n      jumpi\n        /* \"#utility.yul\":6283:6362   */\n      tag_244\n      tag_205\n      jump\t// in\n    tag_244:\n        /* \"#utility.yul\":6247:6364   */\n    tag_243:\n        /* \"#utility.yul\":6388:6451   */\n      tag_245\n        /* \"#utility.yul\":6443:6450   */\n      dup9\n        /* \"#utility.yul\":6434:6440   */\n      dup3\n        /* \"#utility.yul\":6423:6432   */\n      dup10\n        /* \"#utility.yul\":6419:6441   */\n      add\n        /* \"#utility.yul\":6388:6451   */\n      tag_184\n      jump\t// in\n    tag_245:\n        /* \"#utility.yul\":6378:6451   */\n      swap4\n      pop\n        /* \"#utility.yul\":6173:6461   */\n      pop\n        /* \"#utility.yul\":6528:6530   */\n      0x60\n        /* \"#utility.yul\":6517:6526   */\n      dup7\n        /* \"#utility.yul\":6513:6531   */\n      add\n        /* \"#utility.yul\":6500:6532   */\n      calldataload\n        /* \"#utility.yul\":6559:6577   */\n      0xffffffffffffffff\n        /* \"#utility.yul\":6551:6557   */\n      dup2\n        /* \"#utility.yul\":6548:6578   */\n      gt\n        /* \"#utility.yul\":6545:6662   */\n      iszero\n      tag_246\n      jumpi\n        /* \"#utility.yul\":6581:6660   */\n      tag_247\n      tag_205\n      jump\t// in\n    tag_247:\n        /* \"#utility.yul\":6545:6662   */\n    tag_246:\n        /* \"#utility.yul\":6686:6749   */\n      tag_248\n        /* \"#utility.yul\":6741:6748   */\n      dup9\n        /* \"#utility.yul\":6732:6738   */\n      dup3\n        /* \"#utility.yul\":6721:6730   */\n      dup10\n        /* \"#utility.yul\":6717:6739   */\n      add\n        /* \"#utility.yul\":6686:6749   */\n      tag_184\n      jump\t// in\n    tag_248:\n        /* \"#utility.yul\":6676:6749   */\n      swap3\n      pop\n        /* \"#utility.yul\":6471:6759   */\n      pop\n        /* \"#utility.yul\":6798:6801   */\n      0x80\n        /* \"#utility.yul\":6825:6878   */\n      tag_249\n        /* \"#utility.yul\":6870:6877   */\n      dup9\n        /* \"#utility.yul\":6861:6867   */\n      dup3\n        /* \"#utility.yul\":6850:6859   */\n      dup10\n        /* \"#utility.yul\":6846:6868   */\n      add\n        /* \"#utility.yul\":6825:6878   */\n      tag_195\n      jump\t// in\n    tag_249:\n        /* \"#utility.yul\":6815:6878   */\n      swap2\n      pop\n        /* \"#utility.yul\":6769:6888   */\n      pop\n        /* \"#utility.yul\":5624:6895   */\n      swap3\n      swap6\n      pop\n      swap3\n      swap6\n      swap1\n      swap4\n      pop\n      jump\t// out\n        /* \"#utility.yul\":6901:7520   */\n    tag_27:\n        /* \"#utility.yul\":6978:6984   */\n      0x00\n        /* \"#utility.yul\":6986:6992   */\n      dup1\n        /* \"#utility.yul\":6994:7000   */\n      0x00\n        /* \"#utility.yul\":7043:7045   */\n      0x60\n        /* \"#utility.yul\":7031:7040   */\n      dup5\n        /* \"#utility.yul\":7022:7029   */\n      dup7\n        /* \"#utility.yul\":7018:7041   */\n      sub\n        /* \"#utility.yul\":7014:7046   */\n      slt\n        /* \"#utility.yul\":7011:7130   */\n      iszero\n      tag_251\n      jumpi\n        /* \"#utility.yul\":7049:7128   */\n      tag_252\n      tag_202\n      jump\t// in\n    tag_252:\n        /* \"#utility.yul\":7011:7130   */\n    tag_251:\n        /* \"#utility.yul\":7169:7170   */\n      0x00\n        /* \"#utility.yul\":7194:7247   */\n      tag_253\n        /* \"#utility.yul\":7239:7246   */\n      dup7\n        /* \"#utility.yul\":7230:7236   */\n      dup3\n        /* \"#utility.yul\":7219:7228   */\n      dup8\n        /* \"#utility.yul\":7215:7237   */\n      add\n        /* \"#utility.yul\":7194:7247   */\n      tag_195\n      jump\t// in\n    tag_253:\n        /* \"#utility.yul\":7184:7247   */\n      swap4\n      pop\n        /* \"#utility.yul\":7140:7257   */\n      pop\n        /* \"#utility.yul\":7296:7298   */\n      0x20\n        /* \"#utility.yul\":7322:7375   */\n      tag_254\n        /* \"#utility.yul\":7367:7374   */\n      dup7\n        /* \"#utility.yul\":7358:7364   */\n      dup3\n        /* \"#utility.yul\":7347:7356   */\n      dup8\n        /* \"#utility.yul\":7343:7365   */\n      add\n        /* \"#utility.yul\":7322:7375   */\n      tag_195\n      jump\t// in\n    tag_254:\n        /* \"#utility.yul\":7312:7375   */\n      swap3\n      pop\n        /* \"#utility.yul\":7267:7385   */\n      pop\n        /* \"#utility.yul\":7424:7426   */\n      0x40\n        /* \"#utility.yul\":7450:7503   */\n      tag_255\n        /* \"#utility.yul\":7495:7502   */\n      dup7\n        /* \"#utility.yul\":7486:7492   */\n      dup3\n        /* \"#utility.yul\":7475:7484   */\n      dup8\n        /* \"#utility.yul\":7471:7493   */\n      add\n        /* \"#utility.yul\":7450:7503   */\n      tag_195\n      jump\t// in\n    tag_255:\n        /* \"#utility.yul\":7440:7503   */\n      swap2\n      pop\n        /* \"#utility.yul\":7395:7513   */\n      pop\n        /* \"#utility.yul\":6901:7520   */\n      swap3\n      pop\n      swap3\n      pop\n      swap3\n      jump\t// out\n        /* \"#utility.yul\":7526:8797   */\n    tag_53:\n        /* \"#utility.yul\":7641:7647   */\n      0x00\n        /* \"#utility.yul\":7649:7655   */\n      dup1\n        /* \"#utility.yul\":7657:7663   */\n      0x00\n        /* \"#utility.yul\":7665:7671   */\n      dup1\n        /* \"#utility.yul\":7673:7679   */\n      0x00\n        /* \"#utility.yul\":7722:7725   */\n      0xa0\n        /* \"#utility.yul\":7710:7719   */\n      dup7\n        /* \"#utility.yul\":7701:7708   */\n      dup9\n        /* \"#utility.yul\":7697:7720   */\n      sub\n        /* \"#utility.yul\":7693:7726   */\n      slt\n        /* \"#utility.yul\":7690:7810   */\n      iszero\n      tag_257\n      jumpi\n        /* \"#utility.yul\":7729:7808   */\n      tag_258\n      tag_202\n      jump\t// in\n    tag_258:\n        /* \"#utility.yul\":7690:7810   */\n    tag_257:\n        /* \"#utility.yul\":7849:7850   */\n      0x00\n        /* \"#utility.yul\":7874:7927   */\n      tag_259\n        /* \"#utility.yul\":7919:7926   */\n      dup9\n        /* \"#utility.yul\":7910:7916   */\n      dup3\n        /* \"#utility.yul\":7899:7908   */\n      dup10\n        /* \"#utility.yul\":7895:7917   */\n      add\n        /* \"#utility.yul\":7874:7927   */\n      tag_195\n      jump\t// in\n    tag_259:\n        /* \"#utility.yul\":7864:7927   */\n      swap6\n      pop\n        /* \"#utility.yul\":7820:7937   */\n      pop\n        /* \"#utility.yul\":7976:7978   */\n      0x20\n        /* \"#utility.yul\":8002:8055   */\n      tag_260\n        /* \"#utility.yul\":8047:8054   */\n      dup9\n        /* \"#utility.yul\":8038:8044   */\n      dup3\n        /* \"#utility.yul\":8027:8036   */\n      dup10\n        /* \"#utility.yul\":8023:8045   */\n      add\n        /* \"#utility.yul\":8002:8055   */\n      tag_195\n      jump\t// in\n    tag_260:\n        /* \"#utility.yul\":7992:8055   */\n      swap5\n      pop\n        /* \"#utility.yul\":7947:8065   */\n      pop\n        /* \"#utility.yul\":8104:8106   */\n      0x40\n        /* \"#utility.yul\":8130:8183   */\n      tag_261\n        /* \"#utility.yul\":8175:8182   */\n      dup9\n        /* \"#utility.yul\":8166:8172   */\n      dup3\n        /* \"#utility.yul\":8155:8164   */\n      dup10\n        /* \"#utility.yul\":8151:8173   */\n      add\n        /* \"#utility.yul\":8130:8183   */\n      tag_195\n      jump\t// in\n    tag_261:\n        /* \"#utility.yul\":8120:8183   */\n      swap4\n      pop\n        /* \"#utility.yul\":8075:8193   */\n      pop\n        /* \"#utility.yul\":8260:8262   */\n      0x60\n        /* \"#utility.yul\":8249:8258   */\n      dup7\n        /* \"#utility.yul\":8245:8263   */\n      add\n        /* \"#utility.yul\":8232:8264   */\n      calldataload\n        /* \"#utility.yul\":8291:8309   */\n      0xffffffffffffffff\n        /* \"#utility.yul\":8283:8289   */\n      dup2\n        /* \"#utility.yul\":8280:8310   */\n      gt\n        /* \"#utility.yul\":8277:8394   */\n      iszero\n      tag_262\n      jumpi\n        /* \"#utility.yul\":8313:8392   */\n      tag_263\n      tag_205\n      jump\t// in\n    tag_263:\n        /* \"#utility.yul\":8277:8394   */\n    tag_262:\n        /* \"#utility.yul\":8418:8481   */\n      tag_264\n        /* \"#utility.yul\":8473:8480   */\n      dup9\n        /* \"#utility.yul\":8464:8470   */\n      dup3\n        /* \"#utility.yul\":8453:8462   */\n      dup10\n        /* \"#utility.yul\":8449:8471   */\n      add\n        /* \"#utility.yul\":8418:8481   */\n      tag_184\n      jump\t// in\n    tag_264:\n        /* \"#utility.yul\":8408:8481   */\n      swap3\n      pop\n        /* \"#utility.yul\":8203:8491   */\n      pop\n        /* \"#utility.yul\":8558:8561   */\n      0x80\n        /* \"#utility.yul\":8547:8556   */\n      dup7\n        /* \"#utility.yul\":8543:8562   */\n      add\n        /* \"#utility.yul\":8530:8563   */\n      calldataload\n        /* \"#utility.yul\":8590:8608   */\n      0xffffffffffffffff\n        /* \"#utility.yul\":8582:8588   */\n      dup2\n        /* \"#utility.yul\":8579:8609   */\n      gt\n        /* \"#utility.yul\":8576:8693   */\n      iszero\n      tag_265\n      jumpi\n        /* \"#utility.yul\":8612:8691   */\n      tag_266\n      tag_205\n      jump\t// in\n    tag_266:\n        /* \"#utility.yul\":8576:8693   */\n    tag_265:\n        /* \"#utility.yul\":8717:8780   */\n      tag_267\n        /* \"#utility.yul\":8772:8779   */\n      dup9\n        /* \"#utility.yul\":8763:8769   */\n      dup3\n        /* \"#utility.yul\":8752:8761   */\n      dup10\n        /* \"#utility.yul\":8748:8770   */\n      add\n        /* \"#utility.yul\":8717:8780   */\n      tag_184\n      jump\t// in\n    tag_267:\n        /* \"#utility.yul\":8707:8780   */\n      swap2\n      pop\n        /* \"#utility.yul\":8501:8790   */\n      pop\n        /* \"#utility.yul\":7526:8797   */\n      swap3\n      swap6\n      pop\n      swap3\n      swap6\n      swap1\n      swap4\n      pop\n      jump\t// out\n        /* \"#utility.yul\":8803:8911   */\n    tag_268:\n        /* \"#utility.yul\":8880:8904   */\n      tag_270\n        /* \"#utility.yul\":8898:8903   */\n      dup2\n        /* \"#utility.yul\":8880:8904   */\n      tag_271\n      jump\t// in\n    tag_270:\n        /* \"#utility.yul\":8875:8878   */\n      dup3\n        /* \"#utility.yul\":8868:8905   */\n      mstore\n        /* \"#utility.yul\":8803:8911   */\n      pop\n      pop\n      jump\t// out\n        /* \"#utility.yul\":8917:9016   */\n    tag_272:\n        /* \"#utility.yul\":8988:9009   */\n      tag_274\n        /* \"#utility.yul\":9003:9008   */\n      dup2\n        /* \"#utility.yul\":8988:9009   */\n      tag_275\n      jump\t// in\n    tag_274:\n        /* \"#utility.yul\":8983:8986   */\n      dup3\n        /* \"#utility.yul\":8976:9010   */\n      mstore\n        /* \"#utility.yul\":8917:9016   */\n      pop\n      pop\n      jump\t// out\n        /* \"#utility.yul\":9022:9161   */\n    tag_276:\n        /* \"#utility.yul\":9108:9154   */\n      tag_278\n        /* \"#utility.yul\":9148:9153   */\n      dup2\n        /* \"#utility.yul\":9108:9154   */\n      tag_279\n      jump\t// in\n    tag_278:\n        /* \"#utility.yul\":9103:9106   */\n      dup3\n        /* \"#utility.yul\":9096:9155   */\n      mstore\n        /* \"#utility.yul\":9022:9161   */\n      pop\n      pop\n      jump\t// out\n        /* \"#utility.yul\":9167:9511   */\n    tag_280:\n        /* \"#utility.yul\":9245:9248   */\n      0x00\n        /* \"#utility.yul\":9273:9312   */\n      tag_282\n        /* \"#utility.yul\":9306:9311   */\n      dup3\n        /* \"#utility.yul\":9273:9312   */\n      tag_283\n      jump\t// in\n    tag_282:\n        /* \"#utility.yul\":9328:9389   */\n      tag_284\n        /* \"#utility.yul\":9382:9388   */\n      dup2\n        /* \"#utility.yul\":9377:9380   */\n      dup6\n        /* \"#utility.yul\":9328:9389   */\n      tag_285\n      jump\t// in\n    tag_284:\n        /* \"#utility.yul\":9321:9389   */\n      swap4\n      pop\n        /* \"#utility.yul\":9398:9450   */\n      tag_286\n        /* \"#utility.yul\":9443:9449   */\n      dup2\n        /* \"#utility.yul\":9438:9441   */\n      dup6\n        /* \"#utility.yul\":9431:9435   */\n      0x20\n        /* \"#utility.yul\":9424:9429   */\n      dup7\n        /* \"#utility.yul\":9420:9436   */\n      add\n        /* \"#utility.yul\":9398:9450   */\n      tag_179\n      jump\t// in\n    tag_286:\n        /* \"#utility.yul\":9475:9504   */\n      tag_287\n        /* \"#utility.yul\":9497:9503   */\n      dup2\n        /* \"#utility.yul\":9475:9504   */\n      tag_288\n      jump\t// in\n    tag_287:\n        /* \"#utility.yul\":9470:9473   */\n      dup5\n        /* \"#utility.yul\":9466:9505   */\n      add\n        /* \"#utility.yul\":9459:9505   */\n      swap2\n      pop\n        /* \"#utility.yul\":9249:9511   */\n      pop\n        /* \"#utility.yul\":9167:9511   */\n      swap3\n      swap2\n      pop\n      pop\n      jump\t// out\n        /* \"#utility.yul\":9517:9881   */\n    tag_289:\n        /* \"#utility.yul\":9605:9608   */\n      0x00\n        /* \"#utility.yul\":9633:9672   */\n      tag_291\n        /* \"#utility.yul\":9666:9671   */\n      dup3\n        /* \"#utility.yul\":9633:9672   */\n      tag_283\n      jump\t// in\n    tag_291:\n        /* \"#utility.yul\":9688:9759   */\n      tag_292\n        /* \"#utility.yul\":9752:9758   */\n      dup2\n        /* \"#utility.yul\":9747:9750   */\n      dup6\n        /* \"#utility.yul\":9688:9759   */\n      tag_293\n      jump\t// in\n    tag_292:\n        /* \"#utility.yul\":9681:9759   */\n      swap4\n      pop\n        /* \"#utility.yul\":9768:9820   */\n      tag_294\n        /* \"#utility.yul\":9813:9819   */\n      dup2\n        /* \"#utility.yul\":9808:9811   */\n      dup6\n        /* \"#utility.yul\":9801:9805   */\n      0x20\n        /* \"#utility.yul\":9794:9799   */\n      dup7\n        /* \"#utility.yul\":9790:9806   */\n      add\n        /* \"#utility.yul\":9768:9820   */\n      tag_179\n      jump\t// in\n    tag_294:\n        /* \"#utility.yul\":9845:9874   */\n      tag_295\n        /* \"#utility.yul\":9867:9873   */\n      dup2\n        /* \"#utility.yul\":9845:9874   */\n      tag_288\n      jump\t// in\n    tag_295:\n        /* \"#utility.yul\":9840:9843   */\n      dup5\n        /* \"#utility.yul\":9836:9875   */\n      add\n        /* \"#utility.yul\":9829:9875   */\n      swap2\n      pop\n        /* \"#utility.yul\":9609:9881   */\n      pop\n        /* \"#utility.yul\":9517:9881   */\n      swap3\n      swap2\n      pop\n      pop\n      jump\t// out\n        /* \"#utility.yul\":9887:10253   */\n    tag_296:\n        /* \"#utility.yul\":10029:10032   */\n      0x00\n        /* \"#utility.yul\":10050:10117   */\n      tag_298\n        /* \"#utility.yul\":10114:10116   */\n      0x21\n        /* \"#utility.yul\":10109:10112   */\n      dup4\n        /* \"#utility.yul\":10050:10117   */\n      tag_293\n      jump\t// in\n    tag_298:\n        /* \"#utility.yul\":10043:10117   */\n      swap2\n      pop\n        /* \"#utility.yul\":10126:10219   */\n      tag_299\n        /* \"#utility.yul\":10215:10218   */\n      dup3\n        /* \"#utility.yul\":10126:10219   */\n      tag_300\n      jump\t// in\n    tag_299:\n        /* \"#utility.yul\":10244:10246   */\n      0x40\n        /* \"#utility.yul\":10239:10242   */\n      dup3\n        /* \"#utility.yul\":10235:10247   */\n      add\n        /* \"#utility.yul\":10228:10247   */\n      swap1\n      pop\n        /* \"#utility.yul\":9887:10253   */\n      swap2\n      swap1\n      pop\n      jump\t// out\n        /* \"#utility.yul\":10259:10625   */\n    tag_301:\n        /* \"#utility.yul\":10401:10404   */\n      0x00\n        /* \"#utility.yul\":10422:10489   */\n      tag_303\n        /* \"#utility.yul\":10486:10488   */\n      0x15\n        /* \"#utility.yul\":10481:10484   */\n      dup4\n        /* \"#utility.yul\":10422:10489   */\n      tag_293\n      jump\t// in\n    tag_303:\n        /* \"#utility.yul\":10415:10489   */\n      swap2\n      pop\n        /* \"#utility.yul\":10498:10591   */\n      tag_304\n        /* \"#utility.yul\":10587:10590   */\n      dup3\n        /* \"#utility.yul\":10498:10591   */\n      tag_305\n      jump\t// in\n    tag_304:\n        /* \"#utility.yul\":10616:10618   */\n      0x20\n        /* \"#utility.yul\":10611:10614   */\n      dup3\n        /* \"#utility.yul\":10607:10619   */\n      add\n        /* \"#utility.yul\":10600:10619   */\n      swap1\n      pop\n        /* \"#utility.yul\":10259:10625   */\n      swap2\n      swap1\n      pop\n      jump\t// out\n        /* \"#utility.yul\":10687:12834   */\n    tag_306:\n        /* \"#utility.yul\":10806:10809   */\n      0x00\n        /* \"#utility.yul\":10842:10848   */\n      0x0140\n        /* \"#utility.yul\":10837:10840   */\n      dup4\n        /* \"#utility.yul\":10833:10849   */\n      add\n        /* \"#utility.yul\":10940:10944   */\n      0x00\n        /* \"#utility.yul\":10933:10938   */\n      dup4\n        /* \"#utility.yul\":10929:10945   */\n      add\n        /* \"#utility.yul\":10923:10946   */\n      mload\n        /* \"#utility.yul\":10959:11022   */\n      tag_308\n        /* \"#utility.yul\":11016:11020   */\n      0x00\n        /* \"#utility.yul\":11011:11014   */\n      dup7\n        /* \"#utility.yul\":11007:11021   */\n      add\n        /* \"#utility.yul\":10993:11005   */\n      dup3\n        /* \"#utility.yul\":10959:11022   */\n      tag_309\n      jump\t// in\n    tag_308:\n        /* \"#utility.yul\":10859:11032   */\n      pop\n        /* \"#utility.yul\":11123:11127   */\n      0x20\n        /* \"#utility.yul\":11116:11121   */\n      dup4\n        /* \"#utility.yul\":11112:11128   */\n      add\n        /* \"#utility.yul\":11106:11129   */\n      mload\n        /* \"#utility.yul\":11142:11205   */\n      tag_310\n        /* \"#utility.yul\":11199:11203   */\n      0x20\n        /* \"#utility.yul\":11194:11197   */\n      dup7\n        /* \"#utility.yul\":11190:11204   */\n      add\n        /* \"#utility.yul\":11176:11188   */\n      dup3\n        /* \"#utility.yul\":11142:11205   */\n      tag_309\n      jump\t// in\n    tag_310:\n        /* \"#utility.yul\":11042:11215   */\n      pop\n        /* \"#utility.yul\":11298:11302   */\n      0x40\n        /* \"#utility.yul\":11291:11296   */\n      dup4\n        /* \"#utility.yul\":11287:11303   */\n      add\n        /* \"#utility.yul\":11281:11304   */\n      mload\n        /* \"#utility.yul\":11351:11354   */\n      dup5\n        /* \"#utility.yul\":11345:11349   */\n      dup3\n        /* \"#utility.yul\":11341:11355   */\n      sub\n        /* \"#utility.yul\":11334:11338   */\n      0x40\n        /* \"#utility.yul\":11329:11332   */\n      dup7\n        /* \"#utility.yul\":11325:11339   */\n      add\n        /* \"#utility.yul\":11318:11356   */\n      mstore\n        /* \"#utility.yul\":11377:11450   */\n      tag_311\n        /* \"#utility.yul\":11445:11449   */\n      dup3\n        /* \"#utility.yul\":11431:11443   */\n      dup3\n        /* \"#utility.yul\":11377:11450   */\n      tag_280\n      jump\t// in\n    tag_311:\n        /* \"#utility.yul\":11369:11450   */\n      swap2\n      pop\n        /* \"#utility.yul\":11225:11461   */\n      pop\n        /* \"#utility.yul\":11550:11554   */\n      0x60\n        /* \"#utility.yul\":11543:11548   */\n      dup4\n        /* \"#utility.yul\":11539:11555   */\n      add\n        /* \"#utility.yul\":11533:11556   */\n      mload\n        /* \"#utility.yul\":11603:11606   */\n      dup5\n        /* \"#utility.yul\":11597:11601   */\n      dup3\n        /* \"#utility.yul\":11593:11607   */\n      sub\n        /* \"#utility.yul\":11586:11590   */\n      0x60\n        /* \"#utility.yul\":11581:11584   */\n      dup7\n        /* \"#utility.yul\":11577:11591   */\n      add\n        /* \"#utility.yul\":11570:11608   */\n      mstore\n        /* \"#utility.yul\":11629:11702   */\n      tag_312\n        /* \"#utility.yul\":11697:11701   */\n      dup3\n        /* \"#utility.yul\":11683:11695   */\n      dup3\n        /* \"#utility.yul\":11629:11702   */\n      tag_280\n      jump\t// in\n    tag_312:\n        /* \"#utility.yul\":11621:11702   */\n      swap2\n      pop\n        /* \"#utility.yul\":11471:11713   */\n      pop\n        /* \"#utility.yul\":11796:11800   */\n      0x80\n        /* \"#utility.yul\":11789:11794   */\n      dup4\n        /* \"#utility.yul\":11785:11801   */\n      add\n        /* \"#utility.yul\":11779:11802   */\n      mload\n        /* \"#utility.yul\":11815:11878   */\n      tag_313\n        /* \"#utility.yul\":11872:11876   */\n      0x80\n        /* \"#utility.yul\":11867:11870   */\n      dup7\n        /* \"#utility.yul\":11863:11877   */\n      add\n        /* \"#utility.yul\":11849:11861   */\n      dup3\n        /* \"#utility.yul\":11815:11878   */\n      tag_309\n      jump\t// in\n    tag_313:\n        /* \"#utility.yul\":11723:11888   */\n      pop\n        /* \"#utility.yul\":11982:11986   */\n      0xa0\n        /* \"#utility.yul\":11975:11980   */\n      dup4\n        /* \"#utility.yul\":11971:11987   */\n      add\n        /* \"#utility.yul\":11965:11988   */\n      mload\n        /* \"#utility.yul\":12001:12064   */\n      tag_314\n        /* \"#utility.yul\":12058:12062   */\n      0xa0\n        /* \"#utility.yul\":12053:12056   */\n      dup7\n        /* \"#utility.yul\":12049:12063   */\n      add\n        /* \"#utility.yul\":12035:12047   */\n      dup3\n        /* \"#utility.yul\":12001:12064   */\n      tag_309\n      jump\t// in\n    tag_314:\n        /* \"#utility.yul\":11898:12074   */\n      pop\n        /* \"#utility.yul\":12168:12172   */\n      0xc0\n        /* \"#utility.yul\":12161:12166   */\n      dup4\n        /* \"#utility.yul\":12157:12173   */\n      add\n        /* \"#utility.yul\":12151:12174   */\n      mload\n        /* \"#utility.yul\":12187:12250   */\n      tag_315\n        /* \"#utility.yul\":12244:12248   */\n      0xc0\n        /* \"#utility.yul\":12239:12242   */\n      dup7\n        /* \"#utility.yul\":12235:12249   */\n      add\n        /* \"#utility.yul\":12221:12233   */\n      dup3\n        /* \"#utility.yul\":12187:12250   */\n      tag_268\n      jump\t// in\n    tag_315:\n        /* \"#utility.yul\":12084:12260   */\n      pop\n        /* \"#utility.yul\":12353:12357   */\n      0xe0\n        /* \"#utility.yul\":12346:12351   */\n      dup4\n        /* \"#utility.yul\":12342:12358   */\n      add\n        /* \"#utility.yul\":12336:12359   */\n      mload\n        /* \"#utility.yul\":12372:12435   */\n      tag_316\n        /* \"#utility.yul\":12429:12433   */\n      0xe0\n        /* \"#utility.yul\":12424:12427   */\n      dup7\n        /* \"#utility.yul\":12420:12434   */\n      add\n        /* \"#utility.yul\":12406:12418   */\n      dup3\n        /* \"#utility.yul\":12372:12435   */\n      tag_268\n      jump\t// in\n    tag_316:\n        /* \"#utility.yul\":12270:12445   */\n      pop\n        /* \"#utility.yul\":12528:12534   */\n      0x0100\n        /* \"#utility.yul\":12521:12526   */\n      dup4\n        /* \"#utility.yul\":12517:12535   */\n      add\n        /* \"#utility.yul\":12511:12536   */\n      mload\n        /* \"#utility.yul\":12549:12608   */\n      tag_317\n        /* \"#utility.yul\":12600:12606   */\n      0x0100\n        /* \"#utility.yul\":12595:12598   */\n      dup7\n        /* \"#utility.yul\":12591:12607   */\n      add\n        /* \"#utility.yul\":12577:12589   */\n      dup3\n        /* \"#utility.yul\":12549:12608   */\n      tag_272\n      jump\t// in\n    tag_317:\n        /* \"#utility.yul\":12455:12618   */\n      pop\n        /* \"#utility.yul\":12702:12708   */\n      0x0120\n        /* \"#utility.yul\":12695:12700   */\n      dup4\n        /* \"#utility.yul\":12691:12709   */\n      add\n        /* \"#utility.yul\":12685:12710   */\n      mload\n        /* \"#utility.yul\":12723:12797   */\n      tag_318\n        /* \"#utility.yul\":12789:12795   */\n      0x0120\n        /* \"#utility.yul\":12784:12787   */\n      dup7\n        /* \"#utility.yul\":12780:12796   */\n      add\n        /* \"#utility.yul\":12766:12778   */\n      dup3\n        /* \"#utility.yul\":12723:12797   */\n      tag_276\n      jump\t// in\n    tag_318:\n        /* \"#utility.yul\":12628:12807   */\n      pop\n        /* \"#utility.yul\":12824:12828   */\n      dup1\n        /* \"#utility.yul\":12817:12828   */\n      swap2\n      pop\n        /* \"#utility.yul\":10811:12834   */\n      pop\n        /* \"#utility.yul\":10687:12834   */\n      swap3\n      swap2\n      pop\n      pop\n      jump\t// out\n        /* \"#utility.yul\":12840:12948   */\n    tag_309:\n        /* \"#utility.yul\":12917:12941   */\n      tag_320\n        /* \"#utility.yul\":12935:12940   */\n      dup2\n        /* \"#utility.yul\":12917:12941   */\n      tag_321\n      jump\t// in\n    tag_320:\n        /* \"#utility.yul\":12912:12915   */\n      dup3\n        /* \"#utility.yul\":12905:12942   */\n      mstore\n        /* \"#utility.yul\":12840:12948   */\n      pop\n      pop\n      jump\t// out\n        /* \"#utility.yul\":12954:13072   */\n    tag_322:\n        /* \"#utility.yul\":13041:13065   */\n      tag_324\n        /* \"#utility.yul\":13059:13064   */\n      dup2\n        /* \"#utility.yul\":13041:13065   */\n      tag_321\n      jump\t// in\n    tag_324:\n        /* \"#utility.yul\":13036:13039   */\n      dup3\n        /* \"#utility.yul\":13029:13066   */\n      mstore\n        /* \"#utility.yul\":12954:13072   */\n      pop\n      pop\n      jump\t// out\n        /* \"#utility.yul\":13078:13592   */\n    tag_30:\n        /* \"#utility.yul\":13239:13243   */\n      0x00\n        /* \"#utility.yul\":13277:13279   */\n      0x40\n        /* \"#utility.yul\":13266:13275   */\n      dup3\n        /* \"#utility.yul\":13262:13280   */\n      add\n        /* \"#utility.yul\":13254:13280   */\n      swap1\n      pop\n        /* \"#utility.yul\":13326:13335   */\n      dup2\n        /* \"#utility.yul\":13320:13324   */\n      dup2\n        /* \"#utility.yul\":13316:13336   */\n      sub\n        /* \"#utility.yul\":13312:13313   */\n      0x00\n        /* \"#utility.yul\":13301:13310   */\n      dup4\n        /* \"#utility.yul\":13297:13314   */\n      add\n        /* \"#utility.yul\":13290:13337   */\n      mstore\n        /* \"#utility.yul\":13354:13432   */\n      tag_326\n        /* \"#utility.yul\":13427:13431   */\n      dup2\n        /* \"#utility.yul\":13418:13424   */\n      dup6\n        /* \"#utility.yul\":13354:13432   */\n      tag_289\n      jump\t// in\n    tag_326:\n        /* \"#utility.yul\":13346:13432   */\n      swap1\n      pop\n        /* \"#utility.yul\":13479:13488   */\n      dup2\n        /* \"#utility.yul\":13473:13477   */\n      dup2\n        /* \"#utility.yul\":13469:13489   */\n      sub\n        /* \"#utility.yul\":13464:13466   */\n      0x20\n        /* \"#utility.yul\":13453:13462   */\n      dup4\n        /* \"#utility.yul\":13449:13467   */\n      add\n        /* \"#utility.yul\":13442:13490   */\n      mstore\n        /* \"#utility.yul\":13507:13585   */\n      tag_327\n        /* \"#utility.yul\":13580:13584   */\n      dup2\n        /* \"#utility.yul\":13571:13577   */\n      dup5\n        /* \"#utility.yul\":13507:13585   */\n      tag_289\n      jump\t// in\n    tag_327:\n        /* \"#utility.yul\":13499:13585   */\n      swap1\n      pop\n        /* \"#utility.yul\":13078:13592   */\n      swap4\n      swap3\n      pop\n      pop\n      pop\n      jump\t// out\n        /* \"#utility.yul\":13598:14017   */\n    tag_65:\n        /* \"#utility.yul\":13764:13768   */\n      0x00\n        /* \"#utility.yul\":13802:13804   */\n      0x20\n        /* \"#utility.yul\":13791:13800   */\n      dup3\n        /* \"#utility.yul\":13787:13805   */\n      add\n        /* \"#utility.yul\":13779:13805   */\n      swap1\n      pop\n        /* \"#utility.yul\":13851:13860   */\n      dup2\n        /* \"#utility.yul\":13845:13849   */\n      dup2\n        /* \"#utility.yul\":13841:13861   */\n      sub\n        /* \"#utility.yul\":13837:13838   */\n      0x00\n        /* \"#utility.yul\":13826:13835   */\n      dup4\n        /* \"#utility.yul\":13822:13839   */\n      add\n        /* \"#utility.yul\":13815:13862   */\n      mstore\n        /* \"#utility.yul\":13879:14010   */\n      tag_329\n        /* \"#utility.yul\":14005:14009   */\n      dup2\n        /* \"#utility.yul\":13879:14010   */\n      tag_296\n      jump\t// in\n    tag_329:\n        /* \"#utility.yul\":13871:14010   */\n      swap1\n      pop\n        /* \"#utility.yul\":13598:14017   */\n      swap2\n      swap1\n      pop\n      jump\t// out\n        /* \"#utility.yul\":14023:14442   */\n    tag_58:\n        /* \"#utility.yul\":14189:14193   */\n      0x00\n        /* \"#utility.yul\":14227:14229   */\n      0x20\n        /* \"#utility.yul\":14216:14225   */\n      dup3\n        /* \"#utility.yul\":14212:14230   */\n      add\n        /* \"#utility.yul\":14204:14230   */\n      swap1\n      pop\n        /* \"#utility.yul\":14276:14285   */\n      dup2\n        /* \"#utility.yul\":14270:14274   */\n      dup2\n        /* \"#utility.yul\":14266:14286   */\n      sub\n        /* \"#utility.yul\":14262:14263   */\n      0x00\n        /* \"#utility.yul\":14251:14260   */\n      dup4\n        /* \"#utility.yul\":14247:14264   */\n      add\n        /* \"#utility.yul\":14240:14287   */\n      mstore\n        /* \"#utility.yul\":14304:14435   */\n      tag_331\n        /* \"#utility.yul\":14430:14434   */\n      dup2\n        /* \"#utility.yul\":14304:14435   */\n      tag_301\n      jump\t// in\n    tag_331:\n        /* \"#utility.yul\":14296:14435   */\n      swap1\n      pop\n        /* \"#utility.yul\":14023:14442   */\n      swap2\n      swap1\n      pop\n      jump\t// out\n        /* \"#utility.yul\":14448:14821   */\n    tag_36:\n        /* \"#utility.yul\":14591:14595   */\n      0x00\n        /* \"#utility.yul\":14629:14631   */\n      0x20\n        /* \"#utility.yul\":14618:14627   */\n      dup3\n        /* \"#utility.yul\":14614:14632   */\n      add\n        /* \"#utility.yul\":14606:14632   */\n      swap1\n      pop\n        /* \"#utility.yul\":14678:14687   */\n      dup2\n        /* \"#utility.yul\":14672:14676   */\n      dup2\n        /* \"#utility.yul\":14668:14688   */\n      sub\n        /* \"#utility.yul\":14664:14665   */\n      0x00\n        /* \"#utility.yul\":14653:14662   */\n      dup4\n        /* \"#utility.yul\":14649:14666   */\n      add\n        /* \"#utility.yul\":14642:14689   */\n      mstore\n        /* \"#utility.yul\":14706:14814   */\n      tag_333\n        /* \"#utility.yul\":14809:14813   */\n      dup2\n        /* \"#utility.yul\":14800:14806   */\n      dup5\n        /* \"#utility.yul\":14706:14814   */\n      tag_306\n      jump\t// in\n    tag_333:\n        /* \"#utility.yul\":14698:14814   */\n      swap1\n      pop\n        /* \"#utility.yul\":14448:14821   */\n      swap3\n      swap2\n      pop\n      pop\n      jump\t// out\n        /* \"#utility.yul\":14827:15049   */\n    tag_21:\n        /* \"#utility.yul\":14920:14924   */\n      0x00\n        /* \"#utility.yul\":14958:14960   */\n      0x20\n        /* \"#utility.yul\":14947:14956   */\n      dup3\n        /* \"#utility.yul\":14943:14961   */\n      add\n        /* \"#utility.yul\":14935:14961   */\n      swap1\n      pop\n        /* \"#utility.yul\":14971:15042   */\n      tag_335\n        /* \"#utility.yul\":15039:15040   */\n      0x00\n        /* \"#utility.yul\":15028:15037   */\n      dup4\n        /* \"#utility.yul\":15024:15041   */\n      add\n        /* \"#utility.yul\":15015:15021   */\n      dup5\n        /* \"#utility.yul\":14971:15042   */\n      tag_322\n      jump\t// in\n    tag_335:\n        /* \"#utility.yul\":14827:15049   */\n      swap3\n      swap2\n      pop\n      pop\n      jump\t// out\n        /* \"#utility.yul\":15055:15387   */\n    tag_117:\n        /* \"#utility.yul\":15176:15180   */\n      0x00\n        /* \"#utility.yul\":15214:15216   */\n      0x40\n        /* \"#utility.yul\":15203:15212   */\n      dup3\n        /* \"#utility.yul\":15199:15217   */\n      add\n        /* \"#utility.yul\":15191:15217   */\n      swap1\n      pop\n        /* \"#utility.yul\":15227:15298   */\n      tag_337\n        /* \"#utility.yul\":15295:15296   */\n      0x00\n        /* \"#utility.yul\":15284:15293   */\n      dup4\n        /* \"#utility.yul\":15280:15297   */\n      add\n        /* \"#utility.yul\":15271:15277   */\n      dup6\n        /* \"#utility.yul\":15227:15298   */\n      tag_322\n      jump\t// in\n    tag_337:\n        /* \"#utility.yul\":15308:15380   */\n      tag_338\n        /* \"#utility.yul\":15376:15378   */\n      0x20\n        /* \"#utility.yul\":15365:15374   */\n      dup4\n        /* \"#utility.yul\":15361:15379   */\n      add\n        /* \"#utility.yul\":15352:15358   */\n      dup5\n        /* \"#utility.yul\":15308:15380   */\n      tag_322\n      jump\t// in\n    tag_338:\n        /* \"#utility.yul\":15055:15387   */\n      swap4\n      swap3\n      pop\n      pop\n      pop\n      jump\t// out\n        /* \"#utility.yul\":15393:16128   */\n    tag_120:\n        /* \"#utility.yul\":15610:15614   */\n      0x00\n        /* \"#utility.yul\":15648:15651   */\n      0x80\n        /* \"#utility.yul\":15637:15646   */\n      dup3\n        /* \"#utility.yul\":15633:15652   */\n      add\n        /* \"#utility.yul\":15625:15652   */\n      swap1\n      pop\n        /* \"#utility.yul\":15662:15733   */\n      tag_340\n        /* \"#utility.yul\":15730:15731   */\n      0x00\n        /* \"#utility.yul\":15719:15728   */\n      dup4\n        /* \"#utility.yul\":15715:15732   */\n      add\n        /* \"#utility.yul\":15706:15712   */\n      dup8\n        /* \"#utility.yul\":15662:15733   */\n      tag_322\n      jump\t// in\n    tag_340:\n        /* \"#utility.yul\":15743:15815   */\n      tag_341\n        /* \"#utility.yul\":15811:15813   */\n      0x20\n        /* \"#utility.yul\":15800:15809   */\n      dup4\n        /* \"#utility.yul\":15796:15814   */\n      add\n        /* \"#utility.yul\":15787:15793   */\n      dup7\n        /* \"#utility.yul\":15743:15815   */\n      tag_322\n      jump\t// in\n    tag_341:\n        /* \"#utility.yul\":15862:15871   */\n      dup2\n        /* \"#utility.yul\":15856:15860   */\n      dup2\n        /* \"#utility.yul\":15852:15872   */\n      sub\n        /* \"#utility.yul\":15847:15849   */\n      0x40\n        /* \"#utility.yul\":15836:15845   */\n      dup4\n        /* \"#utility.yul\":15832:15850   */\n      add\n        /* \"#utility.yul\":15825:15873   */\n      mstore\n        /* \"#utility.yul\":15890:15968   */\n      tag_342\n        /* \"#utility.yul\":15963:15967   */\n      dup2\n        /* \"#utility.yul\":15954:15960   */\n      dup6\n        /* \"#utility.yul\":15890:15968   */\n      tag_289\n      jump\t// in\n    tag_342:\n        /* \"#utility.yul\":15882:15968   */\n      swap1\n      pop\n        /* \"#utility.yul\":16015:16024   */\n      dup2\n        /* \"#utility.yul\":16009:16013   */\n      dup2\n        /* \"#utility.yul\":16005:16025   */\n      sub\n        /* \"#utility.yul\":16000:16002   */\n      0x60\n        /* \"#utility.yul\":15989:15998   */\n      dup4\n        /* \"#utility.yul\":15985:16003   */\n      add\n        /* \"#utility.yul\":15978:16026   */\n      mstore\n        /* \"#utility.yul\":16043:16121   */\n      tag_343\n        /* \"#utility.yul\":16116:16120   */\n      dup2\n        /* \"#utility.yul\":16107:16113   */\n      dup5\n        /* \"#utility.yul\":16043:16121   */\n      tag_289\n      jump\t// in\n    tag_343:\n        /* \"#utility.yul\":16035:16121   */\n      swap1\n      pop\n        /* \"#utility.yul\":15393:16128   */\n      swap6\n      swap5\n      pop\n      pop\n      pop\n      pop\n      pop\n      jump\t// out\n        /* \"#utility.yul\":16134:16980   */\n    tag_77:\n        /* \"#utility.yul\":16379:16383   */\n      0x00\n        /* \"#utility.yul\":16417:16420   */\n      0xa0\n        /* \"#utility.yul\":16406:16415   */\n      dup3\n        /* \"#utility.yul\":16402:16421   */\n      add\n        /* \"#utility.yul\":16394:16421   */\n      swap1\n      pop\n        /* \"#utility.yul\":16431:16502   */\n      tag_345\n        /* \"#utility.yul\":16499:16500   */\n      0x00\n        /* \"#utility.yul\":16488:16497   */\n      dup4\n        /* \"#utility.yul\":16484:16501   */\n      add\n        /* \"#utility.yul\":16475:16481   */\n      dup9\n        /* \"#utility.yul\":16431:16502   */\n      tag_322\n      jump\t// in\n    tag_345:\n        /* \"#utility.yul\":16512:16584   */\n      tag_346\n        /* \"#utility.yul\":16580:16582   */\n      0x20\n        /* \"#utility.yul\":16569:16578   */\n      dup4\n        /* \"#utility.yul\":16565:16583   */\n      add\n        /* \"#utility.yul\":16556:16562   */\n      dup8\n        /* \"#utility.yul\":16512:16584   */\n      tag_322\n      jump\t// in\n    tag_346:\n        /* \"#utility.yul\":16631:16640   */\n      dup2\n        /* \"#utility.yul\":16625:16629   */\n      dup2\n        /* \"#utility.yul\":16621:16641   */\n      sub\n        /* \"#utility.yul\":16616:16618   */\n      0x40\n        /* \"#utility.yul\":16605:16614   */\n      dup4\n        /* \"#utility.yul\":16601:16619   */\n      add\n        /* \"#utility.yul\":16594:16642   */\n      mstore\n        /* \"#utility.yul\":16659:16737   */\n      tag_347\n        /* \"#utility.yul\":16732:16736   */\n      dup2\n        /* \"#utility.yul\":16723:16729   */\n      dup7\n        /* \"#utility.yul\":16659:16737   */\n      tag_289\n      jump\t// in\n    tag_347:\n        /* \"#utility.yul\":16651:16737   */\n      swap1\n      pop\n        /* \"#utility.yul\":16784:16793   */\n      dup2\n        /* \"#utility.yul\":16778:16782   */\n      dup2\n        /* \"#utility.yul\":16774:16794   */\n      sub\n        /* \"#utility.yul\":16769:16771   */\n      0x60\n        /* \"#utility.yul\":16758:16767   */\n      dup4\n        /* \"#utility.yul\":16754:16772   */\n      add\n        /* \"#utility.yul\":16747:16795   */\n      mstore\n        /* \"#utility.yul\":16812:16890   */\n      tag_348\n        /* \"#utility.yul\":16885:16889   */\n      dup2\n        /* \"#utility.yul\":16876:16882   */\n      dup6\n        /* \"#utility.yul\":16812:16890   */\n      tag_289\n      jump\t// in\n    tag_348:\n        /* \"#utility.yul\":16804:16890   */\n      swap1\n      pop\n        /* \"#utility.yul\":16900:16973   */\n      tag_349\n        /* \"#utility.yul\":16968:16971   */\n      0x80\n        /* \"#utility.yul\":16957:16966   */\n      dup4\n        /* \"#utility.yul\":16953:16972   */\n      add\n        /* \"#utility.yul\":16944:16950   */\n      dup5\n        /* \"#utility.yul\":16900:16973   */\n      tag_322\n      jump\t// in\n    tag_349:\n        /* \"#utility.yul\":16134:16980   */\n      swap7\n      swap6\n      pop\n      pop\n      pop\n      pop\n      pop\n      pop\n      jump\t// out\n        /* \"#utility.yul\":16986:17428   */\n    tag_83:\n        /* \"#utility.yul\":17135:17139   */\n      0x00\n        /* \"#utility.yul\":17173:17175   */\n      0x60\n        /* \"#utility.yul\":17162:17171   */\n      dup3\n        /* \"#utility.yul\":17158:17176   */\n      add\n        /* \"#utility.yul\":17150:17176   */\n      swap1\n      pop\n        /* \"#utility.yul\":17186:17257   */\n      tag_351\n        /* \"#utility.yul\":17254:17255   */\n      0x00\n        /* \"#utility.yul\":17243:17252   */\n      dup4\n        /* \"#utility.yul\":17239:17256   */\n      add\n        /* \"#utility.yul\":17230:17236   */\n      dup7\n        /* \"#utility.yul\":17186:17257   */\n      tag_322\n      jump\t// in\n    tag_351:\n        /* \"#utility.yul\":17267:17339   */\n      tag_352\n        /* \"#utility.yul\":17335:17337   */\n      0x20\n        /* \"#utility.yul\":17324:17333   */\n      dup4\n        /* \"#utility.yul\":17320:17338   */\n      add\n        /* \"#utility.yul\":17311:17317   */\n      dup6\n        /* \"#utility.yul\":17267:17339   */\n      tag_322\n      jump\t// in\n    tag_352:\n        /* \"#utility.yul\":17349:17421   */\n      tag_353\n        /* \"#utility.yul\":17417:17419   */\n      0x40\n        /* \"#utility.yul\":17406:17415   */\n      dup4\n        /* \"#utility.yul\":17402:17420   */\n      add\n        /* \"#utility.yul\":17393:17399   */\n      dup5\n        /* \"#utility.yul\":17349:17421   */\n      tag_322\n      jump\t// in\n    tag_353:\n        /* \"#utility.yul\":16986:17428   */\n      swap5\n      swap4\n      pop\n      pop\n      pop\n      pop\n      jump\t// out\n        /* \"#utility.yul\":17434:18280   */\n    tag_144:\n        /* \"#utility.yul\":17679:17683   */\n      0x00\n        /* \"#utility.yul\":17717:17720   */\n      0xa0\n        /* \"#utility.yul\":17706:17715   */\n      dup3\n        /* \"#utility.yul\":17702:17721   */\n      add\n        /* \"#utility.yul\":17694:17721   */\n      swap1\n      pop\n        /* \"#utility.yul\":17731:17802   */\n      tag_355\n        /* \"#utility.yul\":17799:17800   */\n      0x00\n        /* \"#utility.yul\":17788:17797   */\n      dup4\n        /* \"#utility.yul\":17784:17801   */\n      add\n        /* \"#utility.yul\":17775:17781   */\n      dup9\n        /* \"#utility.yul\":17731:17802   */\n      tag_322\n      jump\t// in\n    tag_355:\n        /* \"#utility.yul\":17812:17884   */\n      tag_356\n        /* \"#utility.yul\":17880:17882   */\n      0x20\n        /* \"#utility.yul\":17869:17878   */\n      dup4\n        /* \"#utility.yul\":17865:17883   */\n      add\n        /* \"#utility.yul\":17856:17862   */\n      dup8\n        /* \"#utility.yul\":17812:17884   */\n      tag_322\n      jump\t// in\n    tag_356:\n        /* \"#utility.yul\":17894:17966   */\n      tag_357\n        /* \"#utility.yul\":17962:17964   */\n      0x40\n        /* \"#utility.yul\":17951:17960   */\n      dup4\n        /* \"#utility.yul\":17947:17965   */\n      add\n        /* \"#utility.yul\":17938:17944   */\n      dup7\n        /* \"#utility.yul\":17894:17966   */\n      tag_322\n      jump\t// in\n    tag_357:\n        /* \"#utility.yul\":18013:18022   */\n      dup2\n        /* \"#utility.yul\":18007:18011   */\n      dup2\n        /* \"#utility.yul\":18003:18023   */\n      sub\n        /* \"#utility.yul\":17998:18000   */\n      0x60\n        /* \"#utility.yul\":17987:17996   */\n      dup4\n        /* \"#utility.yul\":17983:18001   */\n      add\n        /* \"#utility.yul\":17976:18024   */\n      mstore\n        /* \"#utility.yul\":18041:18119   */\n      tag_358\n        /* \"#utility.yul\":18114:18118   */\n      dup2\n        /* \"#utility.yul\":18105:18111   */\n      dup6\n        /* \"#utility.yul\":18041:18119   */\n      tag_289\n      jump\t// in\n    tag_358:\n        /* \"#utility.yul\":18033:18119   */\n      swap1\n      pop\n        /* \"#utility.yul\":18167:18176   */\n      dup2\n        /* \"#utility.yul\":18161:18165   */\n      dup2\n        /* \"#utility.yul\":18157:18177   */\n      sub\n        /* \"#utility.yul\":18151:18154   */\n      0x80\n        /* \"#utility.yul\":18140:18149   */\n      dup4\n        /* \"#utility.yul\":18136:18155   */\n      add\n        /* \"#utility.yul\":18129:18178   */\n      mstore\n        /* \"#utility.yul\":18195:18273   */\n      tag_359\n        /* \"#utility.yul\":18268:18272   */\n      dup2\n        /* \"#utility.yul\":18259:18265   */\n      dup5\n        /* \"#utility.yul\":18195:18273   */\n      tag_289\n      jump\t// in\n    tag_359:\n        /* \"#utility.yul\":18187:18273   */\n      swap1\n      pop\n        /* \"#utility.yul\":17434:18280   */\n      swap7\n      swap6\n      pop\n      pop\n      pop\n      pop\n      pop\n      pop\n      jump\t// out\n        /* \"#utility.yul\":18286:18415   */\n    tag_166:\n        /* \"#utility.yul\":18320:18326   */\n      0x00\n        /* \"#utility.yul\":18347:18367   */\n      tag_361\n      tag_362\n      jump\t// in\n    tag_361:\n        /* \"#utility.yul\":18337:18367   */\n      swap1\n      pop\n        /* \"#utility.yul\":18376:18409   */\n      tag_363\n        /* \"#utility.yul\":18404:18408   */\n      dup3\n        /* \"#utility.yul\":18396:18402   */\n      dup3\n        /* \"#utility.yul\":18376:18409   */\n      tag_364\n      jump\t// in\n    tag_363:\n        /* \"#utility.yul\":18286:18415   */\n      swap2\n      swap1\n      pop\n      jump\t// out\n        /* \"#utility.yul\":18421:18496   */\n    tag_362:\n        /* \"#utility.yul\":18454:18460   */\n      0x00\n        /* \"#utility.yul\":18487:18489   */\n      0x40\n        /* \"#utility.yul\":18481:18490   */\n      mload\n        /* \"#utility.yul\":18471:18490   */\n      swap1\n      pop\n        /* \"#utility.yul\":18421:18496   */\n      swap1\n      jump\t// out\n        /* \"#utility.yul\":18502:18810   */\n    tag_165:\n        /* \"#utility.yul\":18564:18568   */\n      0x00\n        /* \"#utility.yul\":18654:18672   */\n      0xffffffffffffffff\n        /* \"#utility.yul\":18646:18652   */\n      dup3\n        /* \"#utility.yul\":18643:18673   */\n      gt\n        /* \"#utility.yul\":18640:18696   */\n      iszero\n      tag_367\n      jumpi\n        /* \"#utility.yul\":18676:18694   */\n      tag_368\n      tag_369\n      jump\t// in\n    tag_368:\n        /* \"#utility.yul\":18640:18696   */\n    tag_367:\n        /* \"#utility.yul\":18714:18743   */\n      tag_370\n        /* \"#utility.yul\":18736:18742   */\n      dup3\n        /* \"#utility.yul\":18714:18743   */\n      tag_288\n      jump\t// in\n    tag_370:\n        /* \"#utility.yul\":18706:18743   */\n      swap1\n      pop\n        /* \"#utility.yul\":18798:18802   */\n      0x20\n        /* \"#utility.yul\":18792:18796   */\n      dup2\n        /* \"#utility.yul\":18788:18803   */\n      add\n        /* \"#utility.yul\":18780:18803   */\n      swap1\n      pop\n        /* \"#utility.yul\":18502:18810   */\n      swap2\n      swap1\n      pop\n      jump\t// out\n        /* \"#utility.yul\":18816:18915   */\n    tag_283:\n        /* \"#utility.yul\":18868:18874   */\n      0x00\n        /* \"#utility.yul\":18902:18907   */\n      dup2\n        /* \"#utility.yul\":18896:18908   */\n      mload\n        /* \"#utility.yul\":18886:18908   */\n      swap1\n      pop\n        /* \"#utility.yul\":18816:18915   */\n      swap2\n      swap1\n      pop\n      jump\t// out\n        /* \"#utility.yul\":18921:19080   */\n    tag_285:\n        /* \"#utility.yul\":18995:19006   */\n      0x00\n        /* \"#utility.yul\":19029:19035   */\n      dup3\n        /* \"#utility.yul\":19024:19027   */\n      dup3\n        /* \"#utility.yul\":19017:19036   */\n      mstore\n        /* \"#utility.yul\":19069:19073   */\n      0x20\n        /* \"#utility.yul\":19064:19067   */\n      dup3\n        /* \"#utility.yul\":19060:19074   */\n      add\n        /* \"#utility.yul\":19045:19074   */\n      swap1\n      pop\n        /* \"#utility.yul\":18921:19080   */\n      swap3\n      swap2\n      pop\n      pop\n      jump\t// out\n        /* \"#utility.yul\":19086:19255   */\n    tag_293:\n        /* \"#utility.yul\":19170:19181   */\n      0x00\n        /* \"#utility.yul\":19204:19210   */\n      dup3\n        /* \"#utility.yul\":19199:19202   */\n      dup3\n        /* \"#utility.yul\":19192:19211   */\n      mstore\n        /* \"#utility.yul\":19244:19248   */\n      0x20\n        /* \"#utility.yul\":19239:19242   */\n      dup3\n        /* \"#utility.yul\":19235:19249   */\n      add\n        /* \"#utility.yul\":19220:19249   */\n      swap1\n      pop\n        /* \"#utility.yul\":19086:19255   */\n      swap3\n      swap2\n      pop\n      pop\n      jump\t// out\n        /* \"#utility.yul\":19261:19357   */\n    tag_271:\n        /* \"#utility.yul\":19298:19305   */\n      0x00\n        /* \"#utility.yul\":19327:19351   */\n      tag_375\n        /* \"#utility.yul\":19345:19350   */\n      dup3\n        /* \"#utility.yul\":19327:19351   */\n      tag_376\n      jump\t// in\n    tag_375:\n        /* \"#utility.yul\":19316:19351   */\n      swap1\n      pop\n        /* \"#utility.yul\":19261:19357   */\n      swap2\n      swap1\n      pop\n      jump\t// out\n        /* \"#utility.yul\":19363:19453   */\n    tag_275:\n        /* \"#utility.yul\":19397:19404   */\n      0x00\n        /* \"#utility.yul\":19440:19445   */\n      dup2\n        /* \"#utility.yul\":19433:19446   */\n      iszero\n        /* \"#utility.yul\":19426:19447   */\n      iszero\n        /* \"#utility.yul\":19415:19447   */\n      swap1\n      pop\n        /* \"#utility.yul\":19363:19453   */\n      swap2\n      swap1\n      pop\n      jump\t// out\n        /* \"#utility.yul\":19459:19592   */\n    tag_378:\n        /* \"#utility.yul\":19507:19514   */\n      0x00\n        /* \"#utility.yul\":19536:19541   */\n      dup2\n        /* \"#utility.yul\":19525:19541   */\n      swap1\n      pop\n        /* \"#utility.yul\":19542:19586   */\n      tag_380\n        /* \"#utility.yul\":19580:19585   */\n      dup3\n        /* \"#utility.yul\":19542:19586   */\n      tag_381\n      jump\t// in\n    tag_380:\n        /* \"#utility.yul\":19459:19592   */\n      swap2\n      swap1\n      pop\n      jump\t// out\n        /* \"#utility.yul\":19598:19724   */\n    tag_376:\n        /* \"#utility.yul\":19635:19642   */\n      0x00\n        /* \"#utility.yul\":19675:19717   */\n      0xffffffffffffffffffffffffffffffffffffffff\n        /* \"#utility.yul\":19668:19673   */\n      dup3\n        /* \"#utility.yul\":19664:19718   */\n      and\n        /* \"#utility.yul\":19653:19718   */\n      swap1\n      pop\n        /* \"#utility.yul\":19598:19724   */\n      swap2\n      swap1\n      pop\n      jump\t// out\n        /* \"#utility.yul\":19730:19807   */\n    tag_321:\n        /* \"#utility.yul\":19767:19774   */\n      0x00\n        /* \"#utility.yul\":19796:19801   */\n      dup2\n        /* \"#utility.yul\":19785:19801   */\n      swap1\n      pop\n        /* \"#utility.yul\":19730:19807   */\n      swap2\n      swap1\n      pop\n      jump\t// out\n        /* \"#utility.yul\":19813:19946   */\n    tag_279:\n        /* \"#utility.yul\":19872:19881   */\n      0x00\n        /* \"#utility.yul\":19905:19940   */\n      tag_385\n        /* \"#utility.yul\":19934:19939   */\n      dup3\n        /* \"#utility.yul\":19905:19940   */\n      tag_378\n      jump\t// in\n    tag_385:\n        /* \"#utility.yul\":19892:19940   */\n      swap1\n      pop\n        /* \"#utility.yul\":19813:19946   */\n      swap2\n      swap1\n      pop\n      jump\t// out\n        /* \"#utility.yul\":19952:20106   */\n    tag_171:\n        /* \"#utility.yul\":20036:20042   */\n      dup3\n        /* \"#utility.yul\":20031:20034   */\n      dup2\n        /* \"#utility.yul\":20026:20029   */\n      dup4\n        /* \"#utility.yul\":20013:20043   */\n      calldatacopy\n        /* \"#utility.yul\":20098:20099   */\n      0x00\n        /* \"#utility.yul\":20089:20095   */\n      dup4\n        /* \"#utility.yul\":20084:20087   */\n      dup4\n        /* \"#utility.yul\":20080:20096   */\n      add\n        /* \"#utility.yul\":20073:20100   */\n      mstore\n        /* \"#utility.yul\":19952:20106   */\n      pop\n      pop\n      pop\n      jump\t// out\n        /* \"#utility.yul\":20112:20419   */\n    tag_179:\n        /* \"#utility.yul\":20180:20181   */\n      0x00\n        /* \"#utility.yul\":20190:20303   */\n    tag_388:\n        /* \"#utility.yul\":20204:20210   */\n      dup4\n        /* \"#utility.yul\":20201:20202   */\n      dup2\n        /* \"#utility.yul\":20198:20211   */\n      lt\n        /* \"#utility.yul\":20190:20303   */\n      iszero\n      tag_390\n      jumpi\n        /* \"#utility.yul\":20289:20290   */\n      dup1\n        /* \"#utility.yul\":20284:20287   */\n      dup3\n        /* \"#utility.yul\":20280:20291   */\n      add\n        /* \"#utility.yul\":20274:20292   */\n      mload\n        /* \"#utility.yul\":20270:20271   */\n      dup2\n        /* \"#utility.yul\":20265:20268   */\n      dup5\n        /* \"#utility.yul\":20261:20272   */\n      add\n        /* \"#utility.yul\":20254:20293   */\n      mstore\n        /* \"#utility.yul\":20226:20228   */\n      0x20\n        /* \"#utility.yul\":20223:20224   */\n      dup2\n        /* \"#utility.yul\":20219:20229   */\n      add\n        /* \"#utility.yul\":20214:20229   */\n      swap1\n      pop\n        /* \"#utility.yul\":20190:20303   */\n      jump(tag_388)\n    tag_390:\n        /* \"#utility.yul\":20321:20327   */\n      dup4\n        /* \"#utility.yul\":20318:20319   */\n      dup2\n        /* \"#utility.yul\":20315:20328   */\n      gt\n        /* \"#utility.yul\":20312:20413   */\n      iszero\n      tag_391\n      jumpi\n        /* \"#utility.yul\":20401:20402   */\n      0x00\n        /* \"#utility.yul\":20392:20398   */\n      dup5\n        /* \"#utility.yul\":20387:20390   */\n      dup5\n        /* \"#utility.yul\":20383:20399   */\n      add\n        /* \"#utility.yul\":20376:20403   */\n      mstore\n        /* \"#utility.yul\":20312:20413   */\n    tag_391:\n        /* \"#utility.yul\":20161:20419   */\n      pop\n        /* \"#utility.yul\":20112:20419   */\n      pop\n      pop\n      pop\n      jump\t// out\n        /* \"#utility.yul\":20425:20596   */\n    tag_115:\n        /* \"#utility.yul\":20464:20467   */\n      0x00\n        /* \"#utility.yul\":20487:20511   */\n      tag_393\n        /* \"#utility.yul\":20505:20510   */\n      dup3\n        /* \"#utility.yul\":20487:20511   */\n      tag_321\n      jump\t// in\n    tag_393:\n        /* \"#utility.yul\":20478:20511   */\n      swap2\n      pop\n        /* \"#utility.yul\":20533:20537   */\n      0x00\n        /* \"#utility.yul\":20526:20531   */\n      dup3\n        /* \"#utility.yul\":20523:20538   */\n      eq\n        /* \"#utility.yul\":20520:20561   */\n      iszero\n      tag_394\n      jumpi\n        /* \"#utility.yul\":20541:20559   */\n      tag_395\n      tag_396\n      jump\t// in\n    tag_395:\n        /* \"#utility.yul\":20520:20561   */\n    tag_394:\n        /* \"#utility.yul\":20588:20589   */\n      0x01\n        /* \"#utility.yul\":20581:20586   */\n      dup3\n        /* \"#utility.yul\":20577:20590   */\n      sub\n        /* \"#utility.yul\":20570:20590   */\n      swap1\n      pop\n        /* \"#utility.yul\":20425:20596   */\n      swap2\n      swap1\n      pop\n      jump\t// out\n        /* \"#utility.yul\":20602:20922   */\n    tag_96:\n        /* \"#utility.yul\":20646:20652   */\n      0x00\n        /* \"#utility.yul\":20683:20684   */\n      0x02\n        /* \"#utility.yul\":20677:20681   */\n      dup3\n        /* \"#utility.yul\":20673:20685   */\n      div\n        /* \"#utility.yul\":20663:20685   */\n      swap1\n      pop\n        /* \"#utility.yul\":20730:20731   */\n      0x01\n        /* \"#utility.yul\":20724:20728   */\n      dup3\n        /* \"#utility.yul\":20720:20732   */\n      and\n        /* \"#utility.yul\":20751:20769   */\n      dup1\n        /* \"#utility.yul\":20741:20822   */\n      tag_398\n      jumpi\n        /* \"#utility.yul\":20807:20811   */\n      0x7f\n        /* \"#utility.yul\":20799:20805   */\n      dup3\n        /* \"#utility.yul\":20795:20812   */\n      and\n        /* \"#utility.yul\":20785:20812   */\n      swap2\n      pop\n        /* \"#utility.yul\":20741:20822   */\n    tag_398:\n        /* \"#utility.yul\":20869:20871   */\n      0x20\n        /* \"#utility.yul\":20861:20867   */\n      dup3\n        /* \"#utility.yul\":20858:20872   */\n      lt\n        /* \"#utility.yul\":20838:20856   */\n      dup2\n        /* \"#utility.yul\":20835:20873   */\n      eq\n        /* \"#utility.yul\":20832:20916   */\n      iszero\n      tag_399\n      jumpi\n        /* \"#utility.yul\":20888:20906   */\n      tag_400\n      tag_401\n      jump\t// in\n    tag_400:\n        /* \"#utility.yul\":20832:20916   */\n    tag_399:\n        /* \"#utility.yul\":20653:20922   */\n      pop\n        /* \"#utility.yul\":20602:20922   */\n      swap2\n      swap1\n      pop\n      jump\t// out\n        /* \"#utility.yul\":20928:21209   */\n    tag_364:\n        /* \"#utility.yul\":21011:21038   */\n      tag_403\n        /* \"#utility.yul\":21033:21037   */\n      dup3\n        /* \"#utility.yul\":21011:21038   */\n      tag_288\n      jump\t// in\n    tag_403:\n        /* \"#utility.yul\":21003:21009   */\n      dup2\n        /* \"#utility.yul\":20999:21039   */\n      add\n        /* \"#utility.yul\":21141:21147   */\n      dup2\n        /* \"#utility.yul\":21129:21139   */\n      dup2\n        /* \"#utility.yul\":21126:21148   */\n      lt\n        /* \"#utility.yul\":21105:21123   */\n      0xffffffffffffffff\n        /* \"#utility.yul\":21093:21103   */\n      dup3\n        /* \"#utility.yul\":21090:21124   */\n      gt\n        /* \"#utility.yul\":21087:21149   */\n      or\n        /* \"#utility.yul\":21084:21172   */\n      iszero\n      tag_404\n      jumpi\n        /* \"#utility.yul\":21152:21170   */\n      tag_405\n      tag_369\n      jump\t// in\n    tag_405:\n        /* \"#utility.yul\":21084:21172   */\n    tag_404:\n        /* \"#utility.yul\":21192:21202   */\n      dup1\n        /* \"#utility.yul\":21188:21190   */\n      0x40\n        /* \"#utility.yul\":21181:21203   */\n      mstore\n        /* \"#utility.yul\":20971:21209   */\n      pop\n        /* \"#utility.yul\":20928:21209   */\n      pop\n      pop\n      jump\t// out\n        /* \"#utility.yul\":21215:21448   */\n    tag_79:\n        /* \"#utility.yul\":21254:21257   */\n      0x00\n        /* \"#utility.yul\":21277:21301   */\n      tag_407\n        /* \"#utility.yul\":21295:21300   */\n      dup3\n        /* \"#utility.yul\":21277:21301   */\n      tag_321\n      jump\t// in\n    tag_407:\n        /* \"#utility.yul\":21268:21301   */\n      swap2\n      pop\n        /* \"#utility.yul\":21323:21389   */\n      0xffffffffffffffffffffffffffffffffffffffffffffffffffffffffffffffff\n        /* \"#utility.yul\":21316:21321   */\n      dup3\n        /* \"#utility.yul\":21313:21390   */\n      eq\n        /* \"#utility.yul\":21310:21413   */\n      iszero\n      tag_408\n      jumpi\n        /* \"#utility.yul\":21393:21411   */\n      tag_409\n      tag_396\n      jump\t// in\n    tag_409:\n        /* \"#utility.yul\":21310:21413   */\n    tag_408:\n        /* \"#utility.yul\":21440:21441   */\n      0x01\n        /* \"#utility.yul\":21433:21438   */\n      dup3\n        /* \"#utility.yul\":21429:21442   */\n      add\n        /* \"#utility.yul\":21422:21442   */\n      swap1\n      pop\n        /* \"#utility.yul\":21215:21448   */\n      swap2\n      swap1\n      pop\n      jump\t// out\n        /* \"#utility.yul\":21454:21634   */\n    tag_396:\n        /* \"#utility.yul\":21502:21579   */\n      0x4e487b7100000000000000000000000000000000000000000000000000000000\n        /* \"#utility.yul\":21499:21500   */\n      0x00\n        /* \"#utility.yul\":21492:21580   */\n      mstore\n        /* \"#utility.yul\":21599:21603   */\n      0x11\n        /* \"#utility.yul\":21596:21597   */\n      0x04\n        /* \"#utility.yul\":21589:21604   */\n      mstore\n        /* \"#utility.yul\":21623:21627   */\n      0x24\n        /* \"#utility.yul\":21620:21621   */\n      0x00\n        /* \"#utility.yul\":21613:21628   */\n      revert\n        /* \"#utility.yul\":21640:21820   */\n    tag_75:\n        /* \"#utility.yul\":21688:21765   */\n      0x4e487b7100000000000000000000000000000000000000000000000000000000\n        /* \"#utility.yul\":21685:21686   */\n      0x00\n        /* \"#utility.yul\":21678:21766   */\n      mstore\n        /* \"#utility.yul\":21785:21789   */\n      0x21\n        /* \"#utility.yul\":21782:21783   */\n      0x04\n        /* \"#utility.yul\":21775:21790   */\n      mstore\n        /* \"#utility.yul\":21809:21813   */\n      0x24\n        /* \"#utility.yul\":21806:21807   */\n      0x00\n        /* \"#utility.yul\":21799:21814   */\n      revert\n        /* \"#utility.yul\":21826:22006   */\n    tag_401:\n        /* \"#utility.yul\":21874:21951   */\n      0x4e487b7100000000000000000000000000000000000000000000000000000000\n        /* \"#utility.yul\":21871:21872   */\n      0x00\n        /* \"#utility.yul\":21864:21952   */\n      mstore\n        /* \"#utility.yul\":21971:21975   */\n      0x22\n        /* \"#utility.yul\":21968:21969   */\n      0x04\n        /* \"#utility.yul\":21961:21976   */\n      mstore\n        /* \"#utility.yul\":21995:21999   */\n      0x24\n        /* \"#utility.yul\":21992:21993   */\n      0x00\n        /* \"#utility.yul\":21985:22000   */\n      revert\n        /* \"#utility.yul\":22012:22192   */\n    tag_68:\n        /* \"#utility.yul\":22060:22137   */\n      0x4e487b7100000000000000000000000000000000000000000000000000000000\n        /* \"#utility.yul\":22057:22058   */\n      0x00\n        /* \"#utility.yul\":22050:22138   */\n      mstore\n        /* \"#utility.yul\":22157:22161   */\n      0x32\n        /* \"#utility.yul\":22154:22155   */\n      0x04\n        /* \"#utility.yul\":22147:22162   */\n      mstore\n        /* \"#utility.yul\":22181:22185   */\n      0x24\n        /* \"#utility.yul\":22178:22179   */\n      0x00\n        /* \"#utility.yul\":22171:22186   */\n      revert\n        /* \"#utility.yul\":22198:22378   */\n    tag_369:\n        /* \"#utility.yul\":22246:22323   */\n      0x4e487b7100000000000000000000000000000000000000000000000000000000\n        /* \"#utility.yul\":22243:22244   */\n      0x00\n        /* \"#utility.yul\":22236:22324   */\n      mstore\n        /* \"#utility.yul\":22343:22347   */\n      0x41\n        /* \"#utility.yul\":22340:22341   */\n      0x04\n        /* \"#utility.yul\":22333:22348   */\n      mstore\n        /* \"#utility.yul\":22367:22371   */\n      0x24\n        /* \"#utility.yul\":22364:22365   */\n      0x00\n        /* \"#utility.yul\":22357:22372   */\n      revert\n        /* \"#utility.yul\":22384:22501   */\n    tag_188:\n        /* \"#utility.yul\":22493:22494   */\n      0x00\n        /* \"#utility.yul\":22490:22491   */\n      dup1\n        /* \"#utility.yul\":22483:22495   */\n      revert\n        /* \"#utility.yul\":22507:22624   */\n    tag_169:\n        /* \"#utility.yul\":22616:22617   */\n      0x00\n        /* \"#utility.yul\":22613:22614   */\n      dup1\n        /* \"#utility.yul\":22606:22618   */\n      revert\n        /* \"#utility.yul\":22630:22747   */\n    tag_205:\n        /* \"#utility.yul\":22739:22740   */\n      0x00\n        /* \"#utility.yul\":22736:22737   */\n      dup1\n        /* \"#utility.yul\":22729:22741   */\n      revert\n        /* \"#utility.yul\":22753:22870   */\n    tag_202:\n        /* \"#utility.yul\":22862:22863   */\n      0x00\n        /* \"#utility.yul\":22859:22860   */\n      dup1\n        /* \"#utility.yul\":22852:22864   */\n      revert\n        /* \"#utility.yul\":22876:22978   */\n    tag_288:\n        /* \"#utility.yul\":22917:22923   */\n      0x00\n        /* \"#utility.yul\":22968:22970   */\n      0x1f\n        /* \"#utility.yul\":22964:22971   */\n      not\n        /* \"#utility.yul\":22959:22961   */\n      0x1f\n        /* \"#utility.yul\":22952:22957   */\n      dup4\n        /* \"#utility.yul\":22948:22962   */\n      add\n        /* \"#utility.yul\":22944:22972   */\n      and\n        /* \"#utility.yul\":22934:22972   */\n      swap1\n      pop\n        /* \"#utility.yul\":22876:22978   */\n      swap2\n      swap1\n      pop\n      jump\t// out\n        /* \"#utility.yul\":22984:23204   */\n    tag_300:\n        /* \"#utility.yul\":23124:23158   */\n      0x412053657276696365205072696365206d757374206265207370656369666965\n        /* \"#utility.yul\":23120:23121   */\n      0x00\n        /* \"#utility.yul\":23112:23118   */\n      dup3\n        /* \"#utility.yul\":23108:23122   */\n      add\n        /* \"#utility.yul\":23101:23159   */\n      mstore\n        /* \"#utility.yul\":23193:23196   */\n      0x6400000000000000000000000000000000000000000000000000000000000000\n        /* \"#utility.yul\":23188:23190   */\n      0x20\n        /* \"#utility.yul\":23180:23186   */\n      dup3\n        /* \"#utility.yul\":23176:23191   */\n      add\n        /* \"#utility.yul\":23169:23197   */\n      mstore\n        /* \"#utility.yul\":22984:23204   */\n      pop\n      jump\t// out\n        /* \"#utility.yul\":23210:23381   */\n    tag_305:\n        /* \"#utility.yul\":23350:23373   */\n      0x4120737472696e67206973207265717569726564210000000000000000000000\n        /* \"#utility.yul\":23346:23347   */\n      0x00\n        /* \"#utility.yul\":23338:23344   */\n      dup3\n        /* \"#utility.yul\":23334:23348   */\n      add\n        /* \"#utility.yul\":23327:23374   */\n      mstore\n        /* \"#utility.yul\":23210:23381   */\n      pop\n      jump\t// out\n        /* \"#utility.yul\":23387:23503   */\n    tag_381:\n        /* \"#utility.yul\":23471:23472   */\n      0x06\n        /* \"#utility.yul\":23464:23469   */\n      dup2\n        /* \"#utility.yul\":23461:23473   */\n      lt\n        /* \"#utility.yul\":23451:23497   */\n      tag_423\n      jumpi\n        /* \"#utility.yul\":23477:23495   */\n      tag_424\n      tag_75\n      jump\t// in\n    tag_424:\n        /* \"#utility.yul\":23451:23497   */\n    tag_423:\n        /* \"#utility.yul\":23387:23503   */\n      pop\n      jump\t// out\n        /* \"#utility.yul\":23509:23631   */\n    tag_183:\n        /* \"#utility.yul\":23582:23606   */\n      tag_426\n        /* \"#utility.yul\":23600:23605   */\n      dup2\n        /* \"#utility.yul\":23582:23606   */\n      tag_271\n      jump\t// in\n    tag_426:\n        /* \"#utility.yul\":23575:23580   */\n      dup2\n        /* \"#utility.yul\":23572:23607   */\n      eq\n        /* \"#utility.yul\":23562:23625   */\n      tag_427\n      jumpi\n        /* \"#utility.yul\":23621:23622   */\n      0x00\n        /* \"#utility.yul\":23618:23619   */\n      dup1\n        /* \"#utility.yul\":23611:23623   */\n      revert\n        /* \"#utility.yul\":23562:23625   */\n    tag_427:\n        /* \"#utility.yul\":23509:23631   */\n      pop\n      jump\t// out\n        /* \"#utility.yul\":23637:23759   */\n    tag_198:\n        /* \"#utility.yul\":23710:23734   */\n      tag_429\n        /* \"#utility.yul\":23728:23733   */\n      dup2\n        /* \"#utility.yul\":23710:23734   */\n      tag_321\n      jump\t// in\n    tag_429:\n        /* \"#utility.yul\":23703:23708   */\n      dup2\n        /* \"#utility.yul\":23700:23735   */\n      eq\n        /* \"#utility.yul\":23690:23753   */\n      tag_430\n      jumpi\n        /* \"#utility.yul\":23749:23750   */\n      0x00\n        /* \"#utility.yul\":23746:23747   */\n      dup1\n        /* \"#utility.yul\":23739:23751   */\n      revert\n        /* \"#utility.yul\":23690:23753   */\n    tag_430:\n        /* \"#utility.yul\":23637:23759   */\n      pop\n      jump\t// out\n\n    auxdata: 0xa2646970667358221220929348c53f7f5d99bb7ba0ca64057d155e43ac8490fc320f24f791e88502ec8f64736f6c63430008070033\n}\n",
				"bytecode": {
					"linkReferences": {},
					"object": "6080604052600060015560006002553480156200001b57600080fd5b5060405162001ae138038062001ae183398181016040528101906200004191906200009f565b806000806101000a81548173ffffffffffffffffffffffffffffffffffffffff021916908373ffffffffffffffffffffffffffffffffffffffff1602179055505062000138565b60008151905062000099816200011e565b92915050565b600060208284031215620000b857620000b762000119565b5b6000620000c88482850162000088565b91505092915050565b6000620000de82620000f9565b9050919050565b6000620000f282620000d1565b9050919050565b600073ffffffffffffffffffffffffffffffffffffffff82169050919050565b600080fd5b6200012981620000e5565b81146200013557600080fd5b50565b61199980620001486000396000f3fe608060405234801561001057600080fd5b506004361061009e5760003560e01c806353c49c641161006657806353c49c641461015c57806363ef8a5014610178578063ac10dfe314610194578063b9b6c5d4146101b0578063fd23c4bb146101cc5761009e565b8063256da4e3146100a357806330f73051146100bf578063352d28fd146100dd57806349428a62146100fb5780634994772c1461012c575b600080fd5b6100bd60048036038101906100b89190610e39565b6101e8565b005b6100c7610493565b6040516100d49190611401565b60405180910390f35b6100e5610499565b6040516100f29190611401565b60405180910390f35b6101156004803603810190610110919061107e565b61049f565b604051610123929190611368565b60405180910390f35b61014660048036038101906101419190610eec565b61055e565b60405161015391906113df565b60405180910390f35b61017660048036038101906101719190610eec565b6107fb565b005b610192600480360381019061018d9190610f2c565b61089f565b005b6101ae60048036038101906101a99190610fcb565b610936565b005b6101ca60048036038101906101c5919061107e565b610a53565b005b6101e660048036038101906101e191906110d1565b610ae7565b005b83600081511161022d576040517f08c379a0000000000000000000000000000000000000000000000000000000008152600401610224906113bf565b60405180910390fd5b836000815111610272576040517f08c379a0000000000000000000000000000000000000000000000000000000008152600401610269906113bf565b60405180910390fd5b600084116102b5576040517f08c379a00000000000000000000000000000000000000000000000000000000081526004016102ac9061139f565b60405180910390fd5b600060036000898152602001908152602001600020600254815481106102de576102dd611826565b5b9060005260206000209060080201905087816000018190555060025481600101819055508681600201908051906020019061031a929190610b81565b5085816003019080519060200190610333929190610b81565b5084816004018190555060008160050181905550838160060160006101000a81548173ffffffffffffffffffffffffffffffffffffffff021916908373ffffffffffffffffffffffffffffffffffffffff16021790555060008160070160006101000a81548173ffffffffffffffffffffffffffffffffffffffff021916908373ffffffffffffffffffffffffffffffffffffffff16021790555060018160070160146101000a81548160ff02191690831515021790555060008160070160156101000a81548160ff02191690836005811115610413576104126117c8565b5b02179055507fe8bc23dadb6cac9147246af11cc9afe29b7f5f524a2e539da4486da2196a78f188600254898989604051610451959493929190611498565b60405180910390a16001600081548092919061046c90611750565b91905055506002600081548092919061048490611750565b91905055505050505050505050565b60015481565b60025481565b60608060008054906101000a900473ffffffffffffffffffffffffffffffffffffffff1673ffffffffffffffffffffffffffffffffffffffff166349428a628686866040518463ffffffff1660e01b81526004016104ff939291906114f9565b60006040518083038186803b15801561051757600080fd5b505afa15801561052b573d6000803e3d6000fd5b505050506040513d6000823e3d601f19601f820116820180604052508101906105549190610dc1565b5050935093915050565b610566610c07565b60036000848152602001908152602001600020828154811061058b5761058a611826565b5b90600052602060002090600802016040518061014001604052908160008201548152602001600182015481526020016002820180546105c9906116ed565b80601f01602080910402602001604051908101604052809291908181526020018280546105f5906116ed565b80156106425780601f1061061757610100808354040283529160200191610642565b820191906000526020600020905b81548152906001019060200180831161062557829003601f168201915b5050505050815260200160038201805461065b906116ed565b80601f0160208091040260200160405190810160405280929190818152602001828054610687906116ed565b80156106d45780601f106106a9576101008083540402835291602001916106d4565b820191906000526020600020905b8154815290600101906020018083116106b757829003601f168201915b5050505050815260200160048201548152602001600582015481526020016006820160009054906101000a900473ffffffffffffffffffffffffffffffffffffffff1673ffffffffffffffffffffffffffffffffffffffff1673ffffffffffffffffffffffffffffffffffffffff1681526020016007820160009054906101000a900473ffffffffffffffffffffffffffffffffffffffff1673ffffffffffffffffffffffffffffffffffffffff1673ffffffffffffffffffffffffffffffffffffffff1681526020016007820160149054906101000a900460ff161515151581526020016007820160159054906101000a900460ff1660058111156107dd576107dc6117c8565b5b60058111156107ef576107ee6117c8565b5b81525050905092915050565b600060036000848152602001908152602001600020828154811061082257610821611826565b5b906000526020600020906008020160070160146101000a81548160ff0219169083151502179055506001600081548092919061085d906116c3565b91905055507f04579b03ce378bfed31ee6443865880dab0b281efac453deb39233352189863f828260405161089392919061141c565b60405180910390a15050565b60008054906101000a900473ffffffffffffffffffffffffffffffffffffffff1673ffffffffffffffffffffffffffffffffffffffff166363ef8a50858585856040518563ffffffff1660e01b81526004016108fe9493929190611445565b600060405180830381600087803b15801561091857600080fd5b505af115801561092c573d6000803e3d6000fd5b5050505050505050565b82600360008781526020019081526020016000206002548154811061095e5761095d611826565b5b90600052602060002090600802016002019080519060200190610982929190610b81565b508160036000878152602001908152602001600020600254815481106109ab576109aa611826565b5b906000526020600020906008020160030190805190602001906109cf929190610b81565b508060036000878152602001908152602001600020600254815481106109f8576109f7611826565b5b9060005260206000209060080201600401819055507f68dd1fad96ebc5f1740866ec07701d4ab66240c086d6ae6d351ee74eacdf267e8585858585604051610a44959493929190611498565b60405180910390a15050505050565b60008054906101000a900473ffffffffffffffffffffffffffffffffffffffff1673ffffffffffffffffffffffffffffffffffffffff1663b9b6c5d48484846040518463ffffffff1660e01b8152600401610ab0939291906114f9565b600060405180830381600087803b158015610aca57600080fd5b505af1158015610ade573d6000803e3d6000fd5b50505050505050565b60008054906101000a900473ffffffffffffffffffffffffffffffffffffffff1673ffffffffffffffffffffffffffffffffffffffff1663fd23c4bb86868686866040518663ffffffff1660e01b8152600401610b48959493929190611530565b600060405180830381600087803b158015610b6257600080fd5b505af1158015610b76573d6000803e3d6000fd5b505050505050505050565b828054610b8d906116ed565b90600052602060002090601f016020900481019282610baf5760008555610bf6565b82601f10610bc857805160ff1916838001178555610bf6565b82800160010185558215610bf6579182015b82811115610bf5578251825591602001919060010190610bda565b5b509050610c039190610c9a565b5090565b604051806101400160405280600081526020016000815260200160608152602001606081526020016000815260200160008152602001600073ffffffffffffffffffffffffffffffffffffffff168152602001600073ffffffffffffffffffffffffffffffffffffffff16815260200160001515815260200160006005811115610c9457610c936117c8565b5b81525090565b5b80821115610cb3576000816000905550600101610c9b565b5090565b6000610cca610cc5846115b6565b611591565b905082815260208101848484011115610ce657610ce5611889565b5b610cf1848285611681565b509392505050565b6000610d0c610d07846115b6565b611591565b905082815260208101848484011115610d2857610d27611889565b5b610d33848285611690565b509392505050565b600081359050610d4a81611935565b92915050565b600082601f830112610d6557610d64611884565b5b8135610d75848260208601610cb7565b91505092915050565b600082601f830112610d9357610d92611884565b5b8151610da3848260208601610cf9565b91505092915050565b600081359050610dbb8161194c565b92915050565b60008060408385031215610dd857610dd7611893565b5b600083015167ffffffffffffffff811115610df657610df561188e565b5b610e0285828601610d7e565b925050602083015167ffffffffffffffff811115610e2357610e2261188e565b5b610e2f85828601610d7e565b9150509250929050565b600080600080600060a08688031215610e5557610e54611893565b5b6000610e6388828901610dac565b955050602086013567ffffffffffffffff811115610e8457610e8361188e565b5b610e9088828901610d50565b945050604086013567ffffffffffffffff811115610eb157610eb061188e565b5b610ebd88828901610d50565b9350506060610ece88828901610dac565b9250506080610edf88828901610d3b565b9150509295509295909350565b60008060408385031215610f0357610f02611893565b5b6000610f1185828601610dac565b9250506020610f2285828601610dac565b9150509250929050565b60008060008060808587031215610f4657610f45611893565b5b6000610f5487828801610dac565b9450506020610f6587828801610dac565b935050604085013567ffffffffffffffff811115610f8657610f8561188e565b5b610f9287828801610d50565b925050606085013567ffffffffffffffff811115610fb357610fb261188e565b5b610fbf87828801610d50565b91505092959194509250565b600080600080600060a08688031215610fe757610fe6611893565b5b6000610ff588828901610dac565b955050602061100688828901610dac565b945050604086013567ffffffffffffffff8111156110275761102661188e565b5b61103388828901610d50565b935050606086013567ffffffffffffffff8111156110545761105361188e565b5b61106088828901610d50565b925050608061107188828901610dac565b9150509295509295909350565b60008060006060848603121561109757611096611893565b5b60006110a586828701610dac565b93505060206110b686828701610dac565b92505060406110c786828701610dac565b9150509250925092565b600080600080600060a086880312156110ed576110ec611893565b5b60006110fb88828901610dac565b955050602061110c88828901610dac565b945050604061111d88828901610dac565b935050606086013567ffffffffffffffff81111561113e5761113d61188e565b5b61114a88828901610d50565b925050608086013567ffffffffffffffff81111561116b5761116a61188e565b5b61117788828901610d50565b9150509295509295909350565b61118d81611614565b82525050565b61119c81611626565b82525050565b6111ab8161166f565b82525050565b60006111bc826115e7565b6111c681856115f2565b93506111d6818560208601611690565b6111df81611898565b840191505092915050565b60006111f5826115e7565b6111ff8185611603565b935061120f818560208601611690565b61121881611898565b840191505092915050565b6000611230602183611603565b915061123b826118a9565b604082019050919050565b6000611253601583611603565b915061125e826118f8565b602082019050919050565b600061014083016000830151611282600086018261134a565b506020830151611295602086018261134a565b50604083015184820360408601526112ad82826111b1565b915050606083015184820360608601526112c782826111b1565b91505060808301516112dc608086018261134a565b5060a08301516112ef60a086018261134a565b5060c083015161130260c0860182611184565b5060e083015161131560e0860182611184565b5061010083015161132a610100860182611193565b5061012083015161133f6101208601826111a2565b508091505092915050565b61135381611665565b82525050565b61136281611665565b82525050565b6000604082019050818103600083015261138281856111ea565b9050818103602083015261139681846111ea565b90509392505050565b600060208201905081810360008301526113b881611223565b9050919050565b600060208201905081810360008301526113d881611246565b9050919050565b600060208201905081810360008301526113f98184611269565b905092915050565b60006020820190506114166000830184611359565b92915050565b60006040820190506114316000830185611359565b61143e6020830184611359565b9392505050565b600060808201905061145a6000830187611359565b6114676020830186611359565b818103604083015261147981856111ea565b9050818103606083015261148d81846111ea565b905095945050505050565b600060a0820190506114ad6000830188611359565b6114ba6020830187611359565b81810360408301526114cc81866111ea565b905081810360608301526114e081856111ea565b90506114ef6080830184611359565b9695505050505050565b600060608201905061150e6000830186611359565b61151b6020830185611359565b6115286040830184611359565b949350505050565b600060a0820190506115456000830188611359565b6115526020830187611359565b61155f6040830186611359565b818103606083015261157181856111ea565b9050818103608083015261158581846111ea565b90509695505050505050565b600061159b6115ac565b90506115a7828261171f565b919050565b6000604051905090565b600067ffffffffffffffff8211156115d1576115d0611855565b5b6115da82611898565b9050602081019050919050565b600081519050919050565b600082825260208201905092915050565b600082825260208201905092915050565b600061161f82611645565b9050919050565b60008115159050919050565b600081905061164082611921565b919050565b600073ffffffffffffffffffffffffffffffffffffffff82169050919050565b6000819050919050565b600061167a82611632565b9050919050565b82818337600083830152505050565b60005b838110156116ae578082015181840152602081019050611693565b838111156116bd576000848401525b50505050565b60006116ce82611665565b915060008214156116e2576116e1611799565b5b600182039050919050565b6000600282049050600182168061170557607f821691505b60208210811415611719576117186117f7565b5b50919050565b61172882611898565b810181811067ffffffffffffffff8211171561174757611746611855565b5b80604052505050565b600061175b82611665565b91507fffffffffffffffffffffffffffffffffffffffffffffffffffffffffffffffff82141561178e5761178d611799565b5b600182019050919050565b7f4e487b7100000000000000000000000000000000000000000000000000000000600052601160045260246000fd5b7f4e487b7100000000000000000000000000000000000000000000000000000000600052602160045260246000fd5b7f4e487b7100000000000000000000000000000000000000000000000000000000600052602260045260246000fd5b7f4e487b7100000000000000000000000000000000000000000000000000000000600052603260045260246000fd5b7f4e487b7100000000000000000000000000000000000000000000000000000000600052604160045260246000fd5b600080fd5b600080fd5b600080fd5b600080fd5b6000601f19601f8301169050919050565b7f412053657276696365205072696365206d75737420626520737065636966696560008201527f6400000000000000000000000000000000000000000000000000000000000000602082015250565b7f4120737472696e67206973207265717569726564210000000000000000000000600082015250565b60068110611932576119316117c8565b5b50565b61193e81611614565b811461194957600080fd5b50565b61195581611665565b811461196057600080fd5b5056fea2646970667358221220929348c53f7f5d99bb7ba0ca64057d155e43ac8490fc320f24f791e88502ec8f64736f6c63430008070033",
					"opcodes": "PUSH1 0x80 PUSH1 0x40 MSTORE PUSH1 0x0 PUSH1 0x1 SSTORE PUSH1 0x0 PUSH1 0x2 SSTORE CALLVALUE DUP1 ISZERO PUSH3 0x1B JUMPI PUSH1 0x0 DUP1 REVERT JUMPDEST POP PUSH1 0x40 MLOAD PUSH3 0x1AE1 CODESIZE SUB DUP1 PUSH3 0x1AE1 DUP4 CODECOPY DUP2 DUP2 ADD PUSH1 0x40 MSTORE DUP2 ADD SWAP1 PUSH3 0x41 SWAP2 SWAP1 PUSH3 0x9F JUMP JUMPDEST DUP1 PUSH1 0x0 DUP1 PUSH2 0x100 EXP DUP2 SLOAD DUP2 PUSH20 0xFFFFFFFFFFFFFFFFFFFFFFFFFFFFFFFFFFFFFFFF MUL NOT AND SWAP1 DUP4 PUSH20 0xFFFFFFFFFFFFFFFFFFFFFFFFFFFFFFFFFFFFFFFF AND MUL OR SWAP1 SSTORE POP POP PUSH3 0x138 JUMP JUMPDEST PUSH1 0x0 DUP2 MLOAD SWAP1 POP PUSH3 0x99 DUP2 PUSH3 0x11E JUMP JUMPDEST SWAP3 SWAP2 POP POP JUMP JUMPDEST PUSH1 0x0 PUSH1 0x20 DUP3 DUP5 SUB SLT ISZERO PUSH3 0xB8 JUMPI PUSH3 0xB7 PUSH3 0x119 JUMP JUMPDEST JUMPDEST PUSH1 0x0 PUSH3 0xC8 DUP5 DUP3 DUP6 ADD PUSH3 0x88 JUMP JUMPDEST SWAP2 POP POP SWAP3 SWAP2 POP POP JUMP JUMPDEST PUSH1 0x0 PUSH3 0xDE DUP3 PUSH3 0xF9 JUMP JUMPDEST SWAP1 POP SWAP2 SWAP1 POP JUMP JUMPDEST PUSH1 0x0 PUSH3 0xF2 DUP3 PUSH3 0xD1 JUMP JUMPDEST SWAP1 POP SWAP2 SWAP1 POP JUMP JUMPDEST PUSH1 0x0 PUSH20 0xFFFFFFFFFFFFFFFFFFFFFFFFFFFFFFFFFFFFFFFF DUP3 AND SWAP1 POP SWAP2 SWAP1 POP JUMP JUMPDEST PUSH1 0x0 DUP1 REVERT JUMPDEST PUSH3 0x129 DUP2 PUSH3 0xE5 JUMP JUMPDEST DUP2 EQ PUSH3 0x135 JUMPI PUSH1 0x0 DUP1 REVERT JUMPDEST POP JUMP JUMPDEST PUSH2 0x1999 DUP1 PUSH3 0x148 PUSH1 0x0 CODECOPY PUSH1 0x0 RETURN INVALID PUSH1 0x80 PUSH1 0x40 MSTORE CALLVALUE DUP1 ISZERO PUSH2 0x10 JUMPI PUSH1 0x0 DUP1 REVERT JUMPDEST POP PUSH1 0x4 CALLDATASIZE LT PUSH2 0x9E JUMPI PUSH1 0x0 CALLDATALOAD PUSH1 0xE0 SHR DUP1 PUSH4 0x53C49C64 GT PUSH2 0x66 JUMPI DUP1 PUSH4 0x53C49C64 EQ PUSH2 0x15C JUMPI DUP1 PUSH4 0x63EF8A50 EQ PUSH2 0x178 JUMPI DUP1 PUSH4 0xAC10DFE3 EQ PUSH2 0x194 JUMPI DUP1 PUSH4 0xB9B6C5D4 EQ PUSH2 0x1B0 JUMPI DUP1 PUSH4 0xFD23C4BB EQ PUSH2 0x1CC JUMPI PUSH2 0x9E JUMP JUMPDEST DUP1 PUSH4 0x256DA4E3 EQ PUSH2 0xA3 JUMPI DUP1 PUSH4 0x30F73051 EQ PUSH2 0xBF JUMPI DUP1 PUSH4 0x352D28FD EQ PUSH2 0xDD JUMPI DUP1 PUSH4 0x49428A62 EQ PUSH2 0xFB JUMPI DUP1 PUSH4 0x4994772C EQ PUSH2 0x12C JUMPI JUMPDEST PUSH1 0x0 DUP1 REVERT JUMPDEST PUSH2 0xBD PUSH1 0x4 DUP1 CALLDATASIZE SUB DUP2 ADD SWAP1 PUSH2 0xB8 SWAP2 SWAP1 PUSH2 0xE39 JUMP JUMPDEST PUSH2 0x1E8 JUMP JUMPDEST STOP JUMPDEST PUSH2 0xC7 PUSH2 0x493 JUMP JUMPDEST PUSH1 0x40 MLOAD PUSH2 0xD4 SWAP2 SWAP1 PUSH2 0x1401 JUMP JUMPDEST PUSH1 0x40 MLOAD DUP1 SWAP2 SUB SWAP1 RETURN JUMPDEST PUSH2 0xE5 PUSH2 0x499 JUMP JUMPDEST PUSH1 0x40 MLOAD PUSH2 0xF2 SWAP2 SWAP1 PUSH2 0x1401 JUMP JUMPDEST PUSH1 0x40 MLOAD DUP1 SWAP2 SUB SWAP1 RETURN JUMPDEST PUSH2 0x115 PUSH1 0x4 DUP1 CALLDATASIZE SUB DUP2 ADD SWAP1 PUSH2 0x110 SWAP2 SWAP1 PUSH2 0x107E JUMP JUMPDEST PUSH2 0x49F JUMP JUMPDEST PUSH1 0x40 MLOAD PUSH2 0x123 SWAP3 SWAP2 SWAP1 PUSH2 0x1368 JUMP JUMPDEST PUSH1 0x40 MLOAD DUP1 SWAP2 SUB SWAP1 RETURN JUMPDEST PUSH2 0x146 PUSH1 0x4 DUP1 CALLDATASIZE SUB DUP2 ADD SWAP1 PUSH2 0x141 SWAP2 SWAP1 PUSH2 0xEEC JUMP JUMPDEST PUSH2 0x55E JUMP JUMPDEST PUSH1 0x40 MLOAD PUSH2 0x153 SWAP2 SWAP1 PUSH2 0x13DF JUMP JUMPDEST PUSH1 0x40 MLOAD DUP1 SWAP2 SUB SWAP1 RETURN JUMPDEST PUSH2 0x176 PUSH1 0x4 DUP1 CALLDATASIZE SUB DUP2 ADD SWAP1 PUSH2 0x171 SWAP2 SWAP1 PUSH2 0xEEC JUMP JUMPDEST PUSH2 0x7FB JUMP JUMPDEST STOP JUMPDEST PUSH2 0x192 PUSH1 0x4 DUP1 CALLDATASIZE SUB DUP2 ADD SWAP1 PUSH2 0x18D SWAP2 SWAP1 PUSH2 0xF2C JUMP JUMPDEST PUSH2 0x89F JUMP JUMPDEST STOP JUMPDEST PUSH2 0x1AE PUSH1 0x4 DUP1 CALLDATASIZE SUB DUP2 ADD SWAP1 PUSH2 0x1A9 SWAP2 SWAP1 PUSH2 0xFCB JUMP JUMPDEST PUSH2 0x936 JUMP JUMPDEST STOP JUMPDEST PUSH2 0x1CA PUSH1 0x4 DUP1 CALLDATASIZE SUB DUP2 ADD SWAP1 PUSH2 0x1C5 SWAP2 SWAP1 PUSH2 0x107E JUMP JUMPDEST PUSH2 0xA53 JUMP JUMPDEST STOP JUMPDEST PUSH2 0x1E6 PUSH1 0x4 DUP1 CALLDATASIZE SUB DUP2 ADD SWAP1 PUSH2 0x1E1 SWAP2 SWAP1 PUSH2 0x10D1 JUMP JUMPDEST PUSH2 0xAE7 JUMP JUMPDEST STOP JUMPDEST DUP4 PUSH1 0x0 DUP2 MLOAD GT PUSH2 0x22D JUMPI PUSH1 0x40 MLOAD PUSH32 0x8C379A000000000000000000000000000000000000000000000000000000000 DUP2 MSTORE PUSH1 0x4 ADD PUSH2 0x224 SWAP1 PUSH2 0x13BF JUMP JUMPDEST PUSH1 0x40 MLOAD DUP1 SWAP2 SUB SWAP1 REVERT JUMPDEST DUP4 PUSH1 0x0 DUP2 MLOAD GT PUSH2 0x272 JUMPI PUSH1 0x40 MLOAD PUSH32 0x8C379A000000000000000000000000000000000000000000000000000000000 DUP2 MSTORE PUSH1 0x4 ADD PUSH2 0x269 SWAP1 PUSH2 0x13BF JUMP JUMPDEST PUSH1 0x40 MLOAD DUP1 SWAP2 SUB SWAP1 REVERT JUMPDEST PUSH1 0x0 DUP5 GT PUSH2 0x2B5 JUMPI PUSH1 0x40 MLOAD PUSH32 0x8C379A000000000000000000000000000000000000000000000000000000000 DUP2 MSTORE PUSH1 0x4 ADD PUSH2 0x2AC SWAP1 PUSH2 0x139F JUMP JUMPDEST PUSH1 0x40 MLOAD DUP1 SWAP2 SUB SWAP1 REVERT JUMPDEST PUSH1 0x0 PUSH1 0x3 PUSH1 0x0 DUP10 DUP2 MSTORE PUSH1 0x20 ADD SWAP1 DUP2 MSTORE PUSH1 0x20 ADD PUSH1 0x0 KECCAK256 PUSH1 0x2 SLOAD DUP2 SLOAD DUP2 LT PUSH2 0x2DE JUMPI PUSH2 0x2DD PUSH2 0x1826 JUMP JUMPDEST JUMPDEST SWAP1 PUSH1 0x0 MSTORE PUSH1 0x20 PUSH1 0x0 KECCAK256 SWAP1 PUSH1 0x8 MUL ADD SWAP1 POP DUP8 DUP2 PUSH1 0x0 ADD DUP2 SWAP1 SSTORE POP PUSH1 0x2 SLOAD DUP2 PUSH1 0x1 ADD DUP2 SWAP1 SSTORE POP DUP7 DUP2 PUSH1 0x2 ADD SWAP1 DUP1 MLOAD SWAP1 PUSH1 0x20 ADD SWAP1 PUSH2 0x31A SWAP3 SWAP2 SWAP1 PUSH2 0xB81 JUMP JUMPDEST POP DUP6 DUP2 PUSH1 0x3 ADD SWAP1 DUP1 MLOAD SWAP1 PUSH1 0x20 ADD SWAP1 PUSH2 0x333 SWAP3 SWAP2 SWAP1 PUSH2 0xB81 JUMP JUMPDEST POP DUP5 DUP2 PUSH1 0x4 ADD DUP2 SWAP1 SSTORE POP PUSH1 0x0 DUP2 PUSH1 0x5 ADD DUP2 SWAP1 SSTORE POP DUP4 DUP2 PUSH1 0x6 ADD PUSH1 0x0 PUSH2 0x100 EXP DUP2 SLOAD DUP2 PUSH20 0xFFFFFFFFFFFFFFFFFFFFFFFFFFFFFFFFFFFFFFFF MUL NOT AND SWAP1 DUP4 PUSH20 0xFFFFFFFFFFFFFFFFFFFFFFFFFFFFFFFFFFFFFFFF AND MUL OR SWAP1 SSTORE POP PUSH1 0x0 DUP2 PUSH1 0x7 ADD PUSH1 0x0 PUSH2 0x100 EXP DUP2 SLOAD DUP2 PUSH20 0xFFFFFFFFFFFFFFFFFFFFFFFFFFFFFFFFFFFFFFFF MUL NOT AND SWAP1 DUP4 PUSH20 0xFFFFFFFFFFFFFFFFFFFFFFFFFFFFFFFFFFFFFFFF AND MUL OR SWAP1 SSTORE POP PUSH1 0x1 DUP2 PUSH1 0x7 ADD PUSH1 0x14 PUSH2 0x100 EXP DUP2 SLOAD DUP2 PUSH1 0xFF MUL NOT AND SWAP1 DUP4 ISZERO ISZERO MUL OR SWAP1 SSTORE POP PUSH1 0x0 DUP2 PUSH1 0x7 ADD PUSH1 0x15 PUSH2 0x100 EXP DUP2 SLOAD DUP2 PUSH1 0xFF MUL NOT AND SWAP1 DUP4 PUSH1 0x5 DUP2 GT ISZERO PUSH2 0x413 JUMPI PUSH2 0x412 PUSH2 0x17C8 JUMP JUMPDEST JUMPDEST MUL OR SWAP1 SSTORE POP PUSH32 0xE8BC23DADB6CAC9147246AF11CC9AFE29B7F5F524A2E539DA4486DA2196A78F1 DUP9 PUSH1 0x2 SLOAD DUP10 DUP10 DUP10 PUSH1 0x40 MLOAD PUSH2 0x451 SWAP6 SWAP5 SWAP4 SWAP3 SWAP2 SWAP1 PUSH2 0x1498 JUMP JUMPDEST PUSH1 0x40 MLOAD DUP1 SWAP2 SUB SWAP1 LOG1 PUSH1 0x1 PUSH1 0x0 DUP2 SLOAD DUP1 SWAP3 SWAP2 SWAP1 PUSH2 0x46C SWAP1 PUSH2 0x1750 JUMP JUMPDEST SWAP2 SWAP1 POP SSTORE POP PUSH1 0x2 PUSH1 0x0 DUP2 SLOAD DUP1 SWAP3 SWAP2 SWAP1 PUSH2 0x484 SWAP1 PUSH2 0x1750 JUMP JUMPDEST SWAP2 SWAP1 POP SSTORE POP POP POP POP POP POP POP POP POP JUMP JUMPDEST PUSH1 0x1 SLOAD DUP2 JUMP JUMPDEST PUSH1 0x2 SLOAD DUP2 JUMP JUMPDEST PUSH1 0x60 DUP1 PUSH1 0x0 DUP1 SLOAD SWAP1 PUSH2 0x100 EXP SWAP1 DIV PUSH20 0xFFFFFFFFFFFFFFFFFFFFFFFFFFFFFFFFFFFFFFFF AND PUSH20 0xFFFFFFFFFFFFFFFFFFFFFFFFFFFFFFFFFFFFFFFF AND PUSH4 0x49428A62 DUP7 DUP7 DUP7 PUSH1 0x40 MLOAD DUP5 PUSH4 0xFFFFFFFF AND PUSH1 0xE0 SHL DUP2 MSTORE PUSH1 0x4 ADD PUSH2 0x4FF SWAP4 SWAP3 SWAP2 SWAP1 PUSH2 0x14F9 JUMP JUMPDEST PUSH1 0x0 PUSH1 0x40 MLOAD DUP1 DUP4 SUB DUP2 DUP7 DUP1 EXTCODESIZE ISZERO DUP1 ISZERO PUSH2 0x517 JUMPI PUSH1 0x0 DUP1 REVERT JUMPDEST POP GAS STATICCALL ISZERO DUP1 ISZERO PUSH2 0x52B JUMPI RETURNDATASIZE PUSH1 0x0 DUP1 RETURNDATACOPY RETURNDATASIZE PUSH1 0x0 REVERT JUMPDEST POP POP POP POP PUSH1 0x40 MLOAD RETURNDATASIZE PUSH1 0x0 DUP3 RETURNDATACOPY RETURNDATASIZE PUSH1 0x1F NOT PUSH1 0x1F DUP3 ADD AND DUP3 ADD DUP1 PUSH1 0x40 MSTORE POP DUP2 ADD SWAP1 PUSH2 0x554 SWAP2 SWAP1 PUSH2 0xDC1 JUMP JUMPDEST POP POP SWAP4 POP SWAP4 SWAP2 POP POP JUMP JUMPDEST PUSH2 0x566 PUSH2 0xC07 JUMP JUMPDEST PUSH1 0x3 PUSH1 0x0 DUP5 DUP2 MSTORE PUSH1 0x20 ADD SWAP1 DUP2 MSTORE PUSH1 0x20 ADD PUSH1 0x0 KECCAK256 DUP3 DUP2 SLOAD DUP2 LT PUSH2 0x58B JUMPI PUSH2 0x58A PUSH2 0x1826 JUMP JUMPDEST JUMPDEST SWAP1 PUSH1 0x0 MSTORE PUSH1 0x20 PUSH1 0x0 KECCAK256 SWAP1 PUSH1 0x8 MUL ADD PUSH1 0x40 MLOAD DUP1 PUSH2 0x140 ADD PUSH1 0x40 MSTORE SWAP1 DUP2 PUSH1 0x0 DUP3 ADD SLOAD DUP2 MSTORE PUSH1 0x20 ADD PUSH1 0x1 DUP3 ADD SLOAD DUP2 MSTORE PUSH1 0x20 ADD PUSH1 0x2 DUP3 ADD DUP1 SLOAD PUSH2 0x5C9 SWAP1 PUSH2 0x16ED JUMP JUMPDEST DUP1 PUSH1 0x1F ADD PUSH1 0x20 DUP1 SWAP2 DIV MUL PUSH1 0x20 ADD PUSH1 0x40 MLOAD SWAP1 DUP2 ADD PUSH1 0x40 MSTORE DUP1 SWAP3 SWAP2 SWAP1 DUP2 DUP2 MSTORE PUSH1 0x20 ADD DUP3 DUP1 SLOAD PUSH2 0x5F5 SWAP1 PUSH2 0x16ED JUMP JUMPDEST DUP1 ISZERO PUSH2 0x642 JUMPI DUP1 PUSH1 0x1F LT PUSH2 0x617 JUMPI PUSH2 0x100 DUP1 DUP4 SLOAD DIV MUL DUP4 MSTORE SWAP2 PUSH1 0x20 ADD SWAP2 PUSH2 0x642 JUMP JUMPDEST DUP3 ADD SWAP2 SWAP1 PUSH1 0x0 MSTORE PUSH1 0x20 PUSH1 0x0 KECCAK256 SWAP1 JUMPDEST DUP2 SLOAD DUP2 MSTORE SWAP1 PUSH1 0x1 ADD SWAP1 PUSH1 0x20 ADD DUP1 DUP4 GT PUSH2 0x625 JUMPI DUP3 SWAP1 SUB PUSH1 0x1F AND DUP3 ADD SWAP2 JUMPDEST POP POP POP POP POP DUP2 MSTORE PUSH1 0x20 ADD PUSH1 0x3 DUP3 ADD DUP1 SLOAD PUSH2 0x65B SWAP1 PUSH2 0x16ED JUMP JUMPDEST DUP1 PUSH1 0x1F ADD PUSH1 0x20 DUP1 SWAP2 DIV MUL PUSH1 0x20 ADD PUSH1 0x40 MLOAD SWAP1 DUP2 ADD PUSH1 0x40 MSTORE DUP1 SWAP3 SWAP2 SWAP1 DUP2 DUP2 MSTORE PUSH1 0x20 ADD DUP3 DUP1 SLOAD PUSH2 0x687 SWAP1 PUSH2 0x16ED JUMP JUMPDEST DUP1 ISZERO PUSH2 0x6D4 JUMPI DUP1 PUSH1 0x1F LT PUSH2 0x6A9 JUMPI PUSH2 0x100 DUP1 DUP4 SLOAD DIV MUL DUP4 MSTORE SWAP2 PUSH1 0x20 ADD SWAP2 PUSH2 0x6D4 JUMP JUMPDEST DUP3 ADD SWAP2 SWAP1 PUSH1 0x0 MSTORE PUSH1 0x20 PUSH1 0x0 KECCAK256 SWAP1 JUMPDEST DUP2 SLOAD DUP2 MSTORE SWAP1 PUSH1 0x1 ADD SWAP1 PUSH1 0x20 ADD DUP1 DUP4 GT PUSH2 0x6B7 JUMPI DUP3 SWAP1 SUB PUSH1 0x1F AND DUP3 ADD SWAP2 JUMPDEST POP POP POP POP POP DUP2 MSTORE PUSH1 0x20 ADD PUSH1 0x4 DUP3 ADD SLOAD DUP2 MSTORE PUSH1 0x20 ADD PUSH1 0x5 DUP3 ADD SLOAD DUP2 MSTORE PUSH1 0x20 ADD PUSH1 0x6 DUP3 ADD PUSH1 0x0 SWAP1 SLOAD SWAP1 PUSH2 0x100 EXP SWAP1 DIV PUSH20 0xFFFFFFFFFFFFFFFFFFFFFFFFFFFFFFFFFFFFFFFF AND PUSH20 0xFFFFFFFFFFFFFFFFFFFFFFFFFFFFFFFFFFFFFFFF AND PUSH20 0xFFFFFFFFFFFFFFFFFFFFFFFFFFFFFFFFFFFFFFFF AND DUP2 MSTORE PUSH1 0x20 ADD PUSH1 0x7 DUP3 ADD PUSH1 0x0 SWAP1 SLOAD SWAP1 PUSH2 0x100 EXP SWAP1 DIV PUSH20 0xFFFFFFFFFFFFFFFFFFFFFFFFFFFFFFFFFFFFFFFF AND PUSH20 0xFFFFFFFFFFFFFFFFFFFFFFFFFFFFFFFFFFFFFFFF AND PUSH20 0xFFFFFFFFFFFFFFFFFFFFFFFFFFFFFFFFFFFFFFFF AND DUP2 MSTORE PUSH1 0x20 ADD PUSH1 0x7 DUP3 ADD PUSH1 0x14 SWAP1 SLOAD SWAP1 PUSH2 0x100 EXP SWAP1 DIV PUSH1 0xFF AND ISZERO ISZERO ISZERO ISZERO DUP2 MSTORE PUSH1 0x20 ADD PUSH1 0x7 DUP3 ADD PUSH1 0x15 SWAP1 SLOAD SWAP1 PUSH2 0x100 EXP SWAP1 DIV PUSH1 0xFF AND PUSH1 0x5 DUP2 GT ISZERO PUSH2 0x7DD JUMPI PUSH2 0x7DC PUSH2 0x17C8 JUMP JUMPDEST JUMPDEST PUSH1 0x5 DUP2 GT ISZERO PUSH2 0x7EF JUMPI PUSH2 0x7EE PUSH2 0x17C8 JUMP JUMPDEST JUMPDEST DUP2 MSTORE POP POP SWAP1 POP SWAP3 SWAP2 POP POP JUMP JUMPDEST PUSH1 0x0 PUSH1 0x3 PUSH1 0x0 DUP5 DUP2 MSTORE PUSH1 0x20 ADD SWAP1 DUP2 MSTORE PUSH1 0x20 ADD PUSH1 0x0 KECCAK256 DUP3 DUP2 SLOAD DUP2 LT PUSH2 0x822 JUMPI PUSH2 0x821 PUSH2 0x1826 JUMP JUMPDEST JUMPDEST SWAP1 PUSH1 0x0 MSTORE PUSH1 0x20 PUSH1 0x0 KECCAK256 SWAP1 PUSH1 0x8 MUL ADD PUSH1 0x7 ADD PUSH1 0x14 PUSH2 0x100 EXP DUP2 SLOAD DUP2 PUSH1 0xFF MUL NOT AND SWAP1 DUP4 ISZERO ISZERO MUL OR SWAP1 SSTORE POP PUSH1 0x1 PUSH1 0x0 DUP2 SLOAD DUP1 SWAP3 SWAP2 SWAP1 PUSH2 0x85D SWAP1 PUSH2 0x16C3 JUMP JUMPDEST SWAP2 SWAP1 POP SSTORE POP PUSH32 0x4579B03CE378BFED31EE6443865880DAB0B281EFAC453DEB39233352189863F DUP3 DUP3 PUSH1 0x40 MLOAD PUSH2 0x893 SWAP3 SWAP2 SWAP1 PUSH2 0x141C JUMP JUMPDEST PUSH1 0x40 MLOAD DUP1 SWAP2 SUB SWAP1 LOG1 POP POP JUMP JUMPDEST PUSH1 0x0 DUP1 SLOAD SWAP1 PUSH2 0x100 EXP SWAP1 DIV PUSH20 0xFFFFFFFFFFFFFFFFFFFFFFFFFFFFFFFFFFFFFFFF AND PUSH20 0xFFFFFFFFFFFFFFFFFFFFFFFFFFFFFFFFFFFFFFFF AND PUSH4 0x63EF8A50 DUP6 DUP6 DUP6 DUP6 PUSH1 0x40 MLOAD DUP6 PUSH4 0xFFFFFFFF AND PUSH1 0xE0 SHL DUP2 MSTORE PUSH1 0x4 ADD PUSH2 0x8FE SWAP5 SWAP4 SWAP3 SWAP2 SWAP1 PUSH2 0x1445 JUMP JUMPDEST PUSH1 0x0 PUSH1 0x40 MLOAD DUP1 DUP4 SUB DUP2 PUSH1 0x0 DUP8 DUP1 EXTCODESIZE ISZERO DUP1 ISZERO PUSH2 0x918 JUMPI PUSH1 0x0 DUP1 REVERT JUMPDEST POP GAS CALL ISZERO DUP1 ISZERO PUSH2 0x92C JUMPI RETURNDATASIZE PUSH1 0x0 DUP1 RETURNDATACOPY RETURNDATASIZE PUSH1 0x0 REVERT JUMPDEST POP POP POP POP POP POP POP POP JUMP JUMPDEST DUP3 PUSH1 0x3 PUSH1 0x0 DUP8 DUP2 MSTORE PUSH1 0x20 ADD SWAP1 DUP2 MSTORE PUSH1 0x20 ADD PUSH1 0x0 KECCAK256 PUSH1 0x2 SLOAD DUP2 SLOAD DUP2 LT PUSH2 0x95E JUMPI PUSH2 0x95D PUSH2 0x1826 JUMP JUMPDEST JUMPDEST SWAP1 PUSH1 0x0 MSTORE PUSH1 0x20 PUSH1 0x0 KECCAK256 SWAP1 PUSH1 0x8 MUL ADD PUSH1 0x2 ADD SWAP1 DUP1 MLOAD SWAP1 PUSH1 0x20 ADD SWAP1 PUSH2 0x982 SWAP3 SWAP2 SWAP1 PUSH2 0xB81 JUMP JUMPDEST POP DUP2 PUSH1 0x3 PUSH1 0x0 DUP8 DUP2 MSTORE PUSH1 0x20 ADD SWAP1 DUP2 MSTORE PUSH1 0x20 ADD PUSH1 0x0 KECCAK256 PUSH1 0x2 SLOAD DUP2 SLOAD DUP2 LT PUSH2 0x9AB JUMPI PUSH2 0x9AA PUSH2 0x1826 JUMP JUMPDEST JUMPDEST SWAP1 PUSH1 0x0 MSTORE PUSH1 0x20 PUSH1 0x0 KECCAK256 SWAP1 PUSH1 0x8 MUL ADD PUSH1 0x3 ADD SWAP1 DUP1 MLOAD SWAP1 PUSH1 0x20 ADD SWAP1 PUSH2 0x9CF SWAP3 SWAP2 SWAP1 PUSH2 0xB81 JUMP JUMPDEST POP DUP1 PUSH1 0x3 PUSH1 0x0 DUP8 DUP2 MSTORE PUSH1 0x20 ADD SWAP1 DUP2 MSTORE PUSH1 0x20 ADD PUSH1 0x0 KECCAK256 PUSH1 0x2 SLOAD DUP2 SLOAD DUP2 LT PUSH2 0x9F8 JUMPI PUSH2 0x9F7 PUSH2 0x1826 JUMP JUMPDEST JUMPDEST SWAP1 PUSH1 0x0 MSTORE PUSH1 0x20 PUSH1 0x0 KECCAK256 SWAP1 PUSH1 0x8 MUL ADD PUSH1 0x4 ADD DUP2 SWAP1 SSTORE POP PUSH32 0x68DD1FAD96EBC5F1740866EC07701D4AB66240C086D6AE6D351EE74EACDF267E DUP6 DUP6 DUP6 DUP6 DUP6 PUSH1 0x40 MLOAD PUSH2 0xA44 SWAP6 SWAP5 SWAP4 SWAP3 SWAP2 SWAP1 PUSH2 0x1498 JUMP JUMPDEST PUSH1 0x40 MLOAD DUP1 SWAP2 SUB SWAP1 LOG1 POP POP POP POP POP JUMP JUMPDEST PUSH1 0x0 DUP1 SLOAD SWAP1 PUSH2 0x100 EXP SWAP1 DIV PUSH20 0xFFFFFFFFFFFFFFFFFFFFFFFFFFFFFFFFFFFFFFFF AND PUSH20 0xFFFFFFFFFFFFFFFFFFFFFFFFFFFFFFFFFFFFFFFF AND PUSH4 0xB9B6C5D4 DUP5 DUP5 DUP5 PUSH1 0x40 MLOAD DUP5 PUSH4 0xFFFFFFFF AND PUSH1 0xE0 SHL DUP2 MSTORE PUSH1 0x4 ADD PUSH2 0xAB0 SWAP4 SWAP3 SWAP2 SWAP1 PUSH2 0x14F9 JUMP JUMPDEST PUSH1 0x0 PUSH1 0x40 MLOAD DUP1 DUP4 SUB DUP2 PUSH1 0x0 DUP8 DUP1 EXTCODESIZE ISZERO DUP1 ISZERO PUSH2 0xACA JUMPI PUSH1 0x0 DUP1 REVERT JUMPDEST POP GAS CALL ISZERO DUP1 ISZERO PUSH2 0xADE JUMPI RETURNDATASIZE PUSH1 0x0 DUP1 RETURNDATACOPY RETURNDATASIZE PUSH1 0x0 REVERT JUMPDEST POP POP POP POP POP POP POP JUMP JUMPDEST PUSH1 0x0 DUP1 SLOAD SWAP1 PUSH2 0x100 EXP SWAP1 DIV PUSH20 0xFFFFFFFFFFFFFFFFFFFFFFFFFFFFFFFFFFFFFFFF AND PUSH20 0xFFFFFFFFFFFFFFFFFFFFFFFFFFFFFFFFFFFFFFFF AND PUSH4 0xFD23C4BB DUP7 DUP7 DUP7 DUP7 DUP7 PUSH1 0x40 MLOAD DUP7 PUSH4 0xFFFFFFFF AND PUSH1 0xE0 SHL DUP2 MSTORE PUSH1 0x4 ADD PUSH2 0xB48 SWAP6 SWAP5 SWAP4 SWAP3 SWAP2 SWAP1 PUSH2 0x1530 JUMP JUMPDEST PUSH1 0x0 PUSH1 0x40 MLOAD DUP1 DUP4 SUB DUP2 PUSH1 0x0 DUP8 DUP1 EXTCODESIZE ISZERO DUP1 ISZERO PUSH2 0xB62 JUMPI PUSH1 0x0 DUP1 REVERT JUMPDEST POP GAS CALL ISZERO DUP1 ISZERO PUSH2 0xB76 JUMPI RETURNDATASIZE PUSH1 0x0 DUP1 RETURNDATACOPY RETURNDATASIZE PUSH1 0x0 REVERT JUMPDEST POP POP POP POP POP POP POP POP POP JUMP JUMPDEST DUP3 DUP1 SLOAD PUSH2 0xB8D SWAP1 PUSH2 0x16ED JUMP JUMPDEST SWAP1 PUSH1 0x0 MSTORE PUSH1 0x20 PUSH1 0x0 KECCAK256 SWAP1 PUSH1 0x1F ADD PUSH1 0x20 SWAP1 DIV DUP2 ADD SWAP3 DUP3 PUSH2 0xBAF JUMPI PUSH1 0x0 DUP6 SSTORE PUSH2 0xBF6 JUMP JUMPDEST DUP3 PUSH1 0x1F LT PUSH2 0xBC8 JUMPI DUP1 MLOAD PUSH1 0xFF NOT AND DUP4 DUP1 ADD OR DUP6 SSTORE PUSH2 0xBF6 JUMP JUMPDEST DUP3 DUP1 ADD PUSH1 0x1 ADD DUP6 SSTORE DUP3 ISZERO PUSH2 0xBF6 JUMPI SWAP2 DUP3 ADD JUMPDEST DUP3 DUP2 GT ISZERO PUSH2 0xBF5 JUMPI DUP3 MLOAD DUP3 SSTORE SWAP2 PUSH1 0x20 ADD SWAP2 SWAP1 PUSH1 0x1 ADD SWAP1 PUSH2 0xBDA JUMP JUMPDEST JUMPDEST POP SWAP1 POP PUSH2 0xC03 SWAP2 SWAP1 PUSH2 0xC9A JUMP JUMPDEST POP SWAP1 JUMP JUMPDEST PUSH1 0x40 MLOAD DUP1 PUSH2 0x140 ADD PUSH1 0x40 MSTORE DUP1 PUSH1 0x0 DUP2 MSTORE PUSH1 0x20 ADD PUSH1 0x0 DUP2 MSTORE PUSH1 0x20 ADD PUSH1 0x60 DUP2 MSTORE PUSH1 0x20 ADD PUSH1 0x60 DUP2 MSTORE PUSH1 0x20 ADD PUSH1 0x0 DUP2 MSTORE PUSH1 0x20 ADD PUSH1 0x0 DUP2 MSTORE PUSH1 0x20 ADD PUSH1 0x0 PUSH20 0xFFFFFFFFFFFFFFFFFFFFFFFFFFFFFFFFFFFFFFFF AND DUP2 MSTORE PUSH1 0x20 ADD PUSH1 0x0 PUSH20 0xFFFFFFFFFFFFFFFFFFFFFFFFFFFFFFFFFFFFFFFF AND DUP2 MSTORE PUSH1 0x20 ADD PUSH1 0x0 ISZERO ISZERO DUP2 MSTORE PUSH1 0x20 ADD PUSH1 0x0 PUSH1 0x5 DUP2 GT ISZERO PUSH2 0xC94 JUMPI PUSH2 0xC93 PUSH2 0x17C8 JUMP JUMPDEST JUMPDEST DUP2 MSTORE POP SWAP1 JUMP JUMPDEST JUMPDEST DUP1 DUP3 GT ISZERO PUSH2 0xCB3 JUMPI PUSH1 0x0 DUP2 PUSH1 0x0 SWAP1 SSTORE POP PUSH1 0x1 ADD PUSH2 0xC9B JUMP JUMPDEST POP SWAP1 JUMP JUMPDEST PUSH1 0x0 PUSH2 0xCCA PUSH2 0xCC5 DUP5 PUSH2 0x15B6 JUMP JUMPDEST PUSH2 0x1591 JUMP JUMPDEST SWAP1 POP DUP3 DUP2 MSTORE PUSH1 0x20 DUP2 ADD DUP5 DUP5 DUP5 ADD GT ISZERO PUSH2 0xCE6 JUMPI PUSH2 0xCE5 PUSH2 0x1889 JUMP JUMPDEST JUMPDEST PUSH2 0xCF1 DUP5 DUP3 DUP6 PUSH2 0x1681 JUMP JUMPDEST POP SWAP4 SWAP3 POP POP POP JUMP JUMPDEST PUSH1 0x0 PUSH2 0xD0C PUSH2 0xD07 DUP5 PUSH2 0x15B6 JUMP JUMPDEST PUSH2 0x1591 JUMP JUMPDEST SWAP1 POP DUP3 DUP2 MSTORE PUSH1 0x20 DUP2 ADD DUP5 DUP5 DUP5 ADD GT ISZERO PUSH2 0xD28 JUMPI PUSH2 0xD27 PUSH2 0x1889 JUMP JUMPDEST JUMPDEST PUSH2 0xD33 DUP5 DUP3 DUP6 PUSH2 0x1690 JUMP JUMPDEST POP SWAP4 SWAP3 POP POP POP JUMP JUMPDEST PUSH1 0x0 DUP2 CALLDATALOAD SWAP1 POP PUSH2 0xD4A DUP2 PUSH2 0x1935 JUMP JUMPDEST SWAP3 SWAP2 POP POP JUMP JUMPDEST PUSH1 0x0 DUP3 PUSH1 0x1F DUP4 ADD SLT PUSH2 0xD65 JUMPI PUSH2 0xD64 PUSH2 0x1884 JUMP JUMPDEST JUMPDEST DUP2 CALLDATALOAD PUSH2 0xD75 DUP5 DUP3 PUSH1 0x20 DUP7 ADD PUSH2 0xCB7 JUMP JUMPDEST SWAP2 POP POP SWAP3 SWAP2 POP POP JUMP JUMPDEST PUSH1 0x0 DUP3 PUSH1 0x1F DUP4 ADD SLT PUSH2 0xD93 JUMPI PUSH2 0xD92 PUSH2 0x1884 JUMP JUMPDEST JUMPDEST DUP2 MLOAD PUSH2 0xDA3 DUP5 DUP3 PUSH1 0x20 DUP7 ADD PUSH2 0xCF9 JUMP JUMPDEST SWAP2 POP POP SWAP3 SWAP2 POP POP JUMP JUMPDEST PUSH1 0x0 DUP2 CALLDATALOAD SWAP1 POP PUSH2 0xDBB DUP2 PUSH2 0x194C JUMP JUMPDEST SWAP3 SWAP2 POP POP JUMP JUMPDEST PUSH1 0x0 DUP1 PUSH1 0x40 DUP4 DUP6 SUB SLT ISZERO PUSH2 0xDD8 JUMPI PUSH2 0xDD7 PUSH2 0x1893 JUMP JUMPDEST JUMPDEST PUSH1 0x0 DUP4 ADD MLOAD PUSH8 0xFFFFFFFFFFFFFFFF DUP2 GT ISZERO PUSH2 0xDF6 JUMPI PUSH2 0xDF5 PUSH2 0x188E JUMP JUMPDEST JUMPDEST PUSH2 0xE02 DUP6 DUP3 DUP7 ADD PUSH2 0xD7E JUMP JUMPDEST SWAP3 POP POP PUSH1 0x20 DUP4 ADD MLOAD PUSH8 0xFFFFFFFFFFFFFFFF DUP2 GT ISZERO PUSH2 0xE23 JUMPI PUSH2 0xE22 PUSH2 0x188E JUMP JUMPDEST JUMPDEST PUSH2 0xE2F DUP6 DUP3 DUP7 ADD PUSH2 0xD7E JUMP JUMPDEST SWAP2 POP POP SWAP3 POP SWAP3 SWAP1 POP JUMP JUMPDEST PUSH1 0x0 DUP1 PUSH1 0x0 DUP1 PUSH1 0x0 PUSH1 0xA0 DUP7 DUP9 SUB SLT ISZERO PUSH2 0xE55 JUMPI PUSH2 0xE54 PUSH2 0x1893 JUMP JUMPDEST JUMPDEST PUSH1 0x0 PUSH2 0xE63 DUP9 DUP3 DUP10 ADD PUSH2 0xDAC JUMP JUMPDEST SWAP6 POP POP PUSH1 0x20 DUP7 ADD CALLDATALOAD PUSH8 0xFFFFFFFFFFFFFFFF DUP2 GT ISZERO PUSH2 0xE84 JUMPI PUSH2 0xE83 PUSH2 0x188E JUMP JUMPDEST JUMPDEST PUSH2 0xE90 DUP9 DUP3 DUP10 ADD PUSH2 0xD50 JUMP JUMPDEST SWAP5 POP POP PUSH1 0x40 DUP7 ADD CALLDATALOAD PUSH8 0xFFFFFFFFFFFFFFFF DUP2 GT ISZERO PUSH2 0xEB1 JUMPI PUSH2 0xEB0 PUSH2 0x188E JUMP JUMPDEST JUMPDEST PUSH2 0xEBD DUP9 DUP3 DUP10 ADD PUSH2 0xD50 JUMP JUMPDEST SWAP4 POP POP PUSH1 0x60 PUSH2 0xECE DUP9 DUP3 DUP10 ADD PUSH2 0xDAC JUMP JUMPDEST SWAP3 POP POP PUSH1 0x80 PUSH2 0xEDF DUP9 DUP3 DUP10 ADD PUSH2 0xD3B JUMP JUMPDEST SWAP2 POP POP SWAP3 SWAP6 POP SWAP3 SWAP6 SWAP1 SWAP4 POP JUMP JUMPDEST PUSH1 0x0 DUP1 PUSH1 0x40 DUP4 DUP6 SUB SLT ISZERO PUSH2 0xF03 JUMPI PUSH2 0xF02 PUSH2 0x1893 JUMP JUMPDEST JUMPDEST PUSH1 0x0 PUSH2 0xF11 DUP6 DUP3 DUP7 ADD PUSH2 0xDAC JUMP JUMPDEST SWAP3 POP POP PUSH1 0x20 PUSH2 0xF22 DUP6 DUP3 DUP7 ADD PUSH2 0xDAC JUMP JUMPDEST SWAP2 POP POP SWAP3 POP SWAP3 SWAP1 POP JUMP JUMPDEST PUSH1 0x0 DUP1 PUSH1 0x0 DUP1 PUSH1 0x80 DUP6 DUP8 SUB SLT ISZERO PUSH2 0xF46 JUMPI PUSH2 0xF45 PUSH2 0x1893 JUMP JUMPDEST JUMPDEST PUSH1 0x0 PUSH2 0xF54 DUP8 DUP3 DUP9 ADD PUSH2 0xDAC JUMP JUMPDEST SWAP5 POP POP PUSH1 0x20 PUSH2 0xF65 DUP8 DUP3 DUP9 ADD PUSH2 0xDAC JUMP JUMPDEST SWAP4 POP POP PUSH1 0x40 DUP6 ADD CALLDATALOAD PUSH8 0xFFFFFFFFFFFFFFFF DUP2 GT ISZERO PUSH2 0xF86 JUMPI PUSH2 0xF85 PUSH2 0x188E JUMP JUMPDEST JUMPDEST PUSH2 0xF92 DUP8 DUP3 DUP9 ADD PUSH2 0xD50 JUMP JUMPDEST SWAP3 POP POP PUSH1 0x60 DUP6 ADD CALLDATALOAD PUSH8 0xFFFFFFFFFFFFFFFF DUP2 GT ISZERO PUSH2 0xFB3 JUMPI PUSH2 0xFB2 PUSH2 0x188E JUMP JUMPDEST JUMPDEST PUSH2 0xFBF DUP8 DUP3 DUP9 ADD PUSH2 0xD50 JUMP JUMPDEST SWAP2 POP POP SWAP3 SWAP6 SWAP2 SWAP5 POP SWAP3 POP JUMP JUMPDEST PUSH1 0x0 DUP1 PUSH1 0x0 DUP1 PUSH1 0x0 PUSH1 0xA0 DUP7 DUP9 SUB SLT ISZERO PUSH2 0xFE7 JUMPI PUSH2 0xFE6 PUSH2 0x1893 JUMP JUMPDEST JUMPDEST PUSH1 0x0 PUSH2 0xFF5 DUP9 DUP3 DUP10 ADD PUSH2 0xDAC JUMP JUMPDEST SWAP6 POP POP PUSH1 0x20 PUSH2 0x1006 DUP9 DUP3 DUP10 ADD PUSH2 0xDAC JUMP JUMPDEST SWAP5 POP POP PUSH1 0x40 DUP7 ADD CALLDATALOAD PUSH8 0xFFFFFFFFFFFFFFFF DUP2 GT ISZERO PUSH2 0x1027 JUMPI PUSH2 0x1026 PUSH2 0x188E JUMP JUMPDEST JUMPDEST PUSH2 0x1033 DUP9 DUP3 DUP10 ADD PUSH2 0xD50 JUMP JUMPDEST SWAP4 POP POP PUSH1 0x60 DUP7 ADD CALLDATALOAD PUSH8 0xFFFFFFFFFFFFFFFF DUP2 GT ISZERO PUSH2 0x1054 JUMPI PUSH2 0x1053 PUSH2 0x188E JUMP JUMPDEST JUMPDEST PUSH2 0x1060 DUP9 DUP3 DUP10 ADD PUSH2 0xD50 JUMP JUMPDEST SWAP3 POP POP PUSH1 0x80 PUSH2 0x1071 DUP9 DUP3 DUP10 ADD PUSH2 0xDAC JUMP JUMPDEST SWAP2 POP POP SWAP3 SWAP6 POP SWAP3 SWAP6 SWAP1 SWAP4 POP JUMP JUMPDEST PUSH1 0x0 DUP1 PUSH1 0x0 PUSH1 0x60 DUP5 DUP7 SUB SLT ISZERO PUSH2 0x1097 JUMPI PUSH2 0x1096 PUSH2 0x1893 JUMP JUMPDEST JUMPDEST PUSH1 0x0 PUSH2 0x10A5 DUP7 DUP3 DUP8 ADD PUSH2 0xDAC JUMP JUMPDEST SWAP4 POP POP PUSH1 0x20 PUSH2 0x10B6 DUP7 DUP3 DUP8 ADD PUSH2 0xDAC JUMP JUMPDEST SWAP3 POP POP PUSH1 0x40 PUSH2 0x10C7 DUP7 DUP3 DUP8 ADD PUSH2 0xDAC JUMP JUMPDEST SWAP2 POP POP SWAP3 POP SWAP3 POP SWAP3 JUMP JUMPDEST PUSH1 0x0 DUP1 PUSH1 0x0 DUP1 PUSH1 0x0 PUSH1 0xA0 DUP7 DUP9 SUB SLT ISZERO PUSH2 0x10ED JUMPI PUSH2 0x10EC PUSH2 0x1893 JUMP JUMPDEST JUMPDEST PUSH1 0x0 PUSH2 0x10FB DUP9 DUP3 DUP10 ADD PUSH2 0xDAC JUMP JUMPDEST SWAP6 POP POP PUSH1 0x20 PUSH2 0x110C DUP9 DUP3 DUP10 ADD PUSH2 0xDAC JUMP JUMPDEST SWAP5 POP POP PUSH1 0x40 PUSH2 0x111D DUP9 DUP3 DUP10 ADD PUSH2 0xDAC JUMP JUMPDEST SWAP4 POP POP PUSH1 0x60 DUP7 ADD CALLDATALOAD PUSH8 0xFFFFFFFFFFFFFFFF DUP2 GT ISZERO PUSH2 0x113E JUMPI PUSH2 0x113D PUSH2 0x188E JUMP JUMPDEST JUMPDEST PUSH2 0x114A DUP9 DUP3 DUP10 ADD PUSH2 0xD50 JUMP JUMPDEST SWAP3 POP POP PUSH1 0x80 DUP7 ADD CALLDATALOAD PUSH8 0xFFFFFFFFFFFFFFFF DUP2 GT ISZERO PUSH2 0x116B JUMPI PUSH2 0x116A PUSH2 0x188E JUMP JUMPDEST JUMPDEST PUSH2 0x1177 DUP9 DUP3 DUP10 ADD PUSH2 0xD50 JUMP JUMPDEST SWAP2 POP POP SWAP3 SWAP6 POP SWAP3 SWAP6 SWAP1 SWAP4 POP JUMP JUMPDEST PUSH2 0x118D DUP2 PUSH2 0x1614 JUMP JUMPDEST DUP3 MSTORE POP POP JUMP JUMPDEST PUSH2 0x119C DUP2 PUSH2 0x1626 JUMP JUMPDEST DUP3 MSTORE POP POP JUMP JUMPDEST PUSH2 0x11AB DUP2 PUSH2 0x166F JUMP JUMPDEST DUP3 MSTORE POP POP JUMP JUMPDEST PUSH1 0x0 PUSH2 0x11BC DUP3 PUSH2 0x15E7 JUMP JUMPDEST PUSH2 0x11C6 DUP2 DUP6 PUSH2 0x15F2 JUMP JUMPDEST SWAP4 POP PUSH2 0x11D6 DUP2 DUP6 PUSH1 0x20 DUP7 ADD PUSH2 0x1690 JUMP JUMPDEST PUSH2 0x11DF DUP2 PUSH2 0x1898 JUMP JUMPDEST DUP5 ADD SWAP2 POP POP SWAP3 SWAP2 POP POP JUMP JUMPDEST PUSH1 0x0 PUSH2 0x11F5 DUP3 PUSH2 0x15E7 JUMP JUMPDEST PUSH2 0x11FF DUP2 DUP6 PUSH2 0x1603 JUMP JUMPDEST SWAP4 POP PUSH2 0x120F DUP2 DUP6 PUSH1 0x20 DUP7 ADD PUSH2 0x1690 JUMP JUMPDEST PUSH2 0x1218 DUP2 PUSH2 0x1898 JUMP JUMPDEST DUP5 ADD SWAP2 POP POP SWAP3 SWAP2 POP POP JUMP JUMPDEST PUSH1 0x0 PUSH2 0x1230 PUSH1 0x21 DUP4 PUSH2 0x1603 JUMP JUMPDEST SWAP2 POP PUSH2 0x123B DUP3 PUSH2 0x18A9 JUMP JUMPDEST PUSH1 0x40 DUP3 ADD SWAP1 POP SWAP2 SWAP1 POP JUMP JUMPDEST PUSH1 0x0 PUSH2 0x1253 PUSH1 0x15 DUP4 PUSH2 0x1603 JUMP JUMPDEST SWAP2 POP PUSH2 0x125E DUP3 PUSH2 0x18F8 JUMP JUMPDEST PUSH1 0x20 DUP3 ADD SWAP1 POP SWAP2 SWAP1 POP JUMP JUMPDEST PUSH1 0x0 PUSH2 0x140 DUP4 ADD PUSH1 0x0 DUP4 ADD MLOAD PUSH2 0x1282 PUSH1 0x0 DUP7 ADD DUP3 PUSH2 0x134A JUMP JUMPDEST POP PUSH1 0x20 DUP4 ADD MLOAD PUSH2 0x1295 PUSH1 0x20 DUP7 ADD DUP3 PUSH2 0x134A JUMP JUMPDEST POP PUSH1 0x40 DUP4 ADD MLOAD DUP5 DUP3 SUB PUSH1 0x40 DUP7 ADD MSTORE PUSH2 0x12AD DUP3 DUP3 PUSH2 0x11B1 JUMP JUMPDEST SWAP2 POP POP PUSH1 0x60 DUP4 ADD MLOAD DUP5 DUP3 SUB PUSH1 0x60 DUP7 ADD MSTORE PUSH2 0x12C7 DUP3 DUP3 PUSH2 0x11B1 JUMP JUMPDEST SWAP2 POP POP PUSH1 0x80 DUP4 ADD MLOAD PUSH2 0x12DC PUSH1 0x80 DUP7 ADD DUP3 PUSH2 0x134A JUMP JUMPDEST POP PUSH1 0xA0 DUP4 ADD MLOAD PUSH2 0x12EF PUSH1 0xA0 DUP7 ADD DUP3 PUSH2 0x134A JUMP JUMPDEST POP PUSH1 0xC0 DUP4 ADD MLOAD PUSH2 0x1302 PUSH1 0xC0 DUP7 ADD DUP3 PUSH2 0x1184 JUMP JUMPDEST POP PUSH1 0xE0 DUP4 ADD MLOAD PUSH2 0x1315 PUSH1 0xE0 DUP7 ADD DUP3 PUSH2 0x1184 JUMP JUMPDEST POP PUSH2 0x100 DUP4 ADD MLOAD PUSH2 0x132A PUSH2 0x100 DUP7 ADD DUP3 PUSH2 0x1193 JUMP JUMPDEST POP PUSH2 0x120 DUP4 ADD MLOAD PUSH2 0x133F PUSH2 0x120 DUP7 ADD DUP3 PUSH2 0x11A2 JUMP JUMPDEST POP DUP1 SWAP2 POP POP SWAP3 SWAP2 POP POP JUMP JUMPDEST PUSH2 0x1353 DUP2 PUSH2 0x1665 JUMP JUMPDEST DUP3 MSTORE POP POP JUMP JUMPDEST PUSH2 0x1362 DUP2 PUSH2 0x1665 JUMP JUMPDEST DUP3 MSTORE POP POP JUMP JUMPDEST PUSH1 0x0 PUSH1 0x40 DUP3 ADD SWAP1 POP DUP2 DUP2 SUB PUSH1 0x0 DUP4 ADD MSTORE PUSH2 0x1382 DUP2 DUP6 PUSH2 0x11EA JUMP JUMPDEST SWAP1 POP DUP2 DUP2 SUB PUSH1 0x20 DUP4 ADD MSTORE PUSH2 0x1396 DUP2 DUP5 PUSH2 0x11EA JUMP JUMPDEST SWAP1 POP SWAP4 SWAP3 POP POP POP JUMP JUMPDEST PUSH1 0x0 PUSH1 0x20 DUP3 ADD SWAP1 POP DUP2 DUP2 SUB PUSH1 0x0 DUP4 ADD MSTORE PUSH2 0x13B8 DUP2 PUSH2 0x1223 JUMP JUMPDEST SWAP1 POP SWAP2 SWAP1 POP JUMP JUMPDEST PUSH1 0x0 PUSH1 0x20 DUP3 ADD SWAP1 POP DUP2 DUP2 SUB PUSH1 0x0 DUP4 ADD MSTORE PUSH2 0x13D8 DUP2 PUSH2 0x1246 JUMP JUMPDEST SWAP1 POP SWAP2 SWAP1 POP JUMP JUMPDEST PUSH1 0x0 PUSH1 0x20 DUP3 ADD SWAP1 POP DUP2 DUP2 SUB PUSH1 0x0 DUP4 ADD MSTORE PUSH2 0x13F9 DUP2 DUP5 PUSH2 0x1269 JUMP JUMPDEST SWAP1 POP SWAP3 SWAP2 POP POP JUMP JUMPDEST PUSH1 0x0 PUSH1 0x20 DUP3 ADD SWAP1 POP PUSH2 0x1416 PUSH1 0x0 DUP4 ADD DUP5 PUSH2 0x1359 JUMP JUMPDEST SWAP3 SWAP2 POP POP JUMP JUMPDEST PUSH1 0x0 PUSH1 0x40 DUP3 ADD SWAP1 POP PUSH2 0x1431 PUSH1 0x0 DUP4 ADD DUP6 PUSH2 0x1359 JUMP JUMPDEST PUSH2 0x143E PUSH1 0x20 DUP4 ADD DUP5 PUSH2 0x1359 JUMP JUMPDEST SWAP4 SWAP3 POP POP POP JUMP JUMPDEST PUSH1 0x0 PUSH1 0x80 DUP3 ADD SWAP1 POP PUSH2 0x145A PUSH1 0x0 DUP4 ADD DUP8 PUSH2 0x1359 JUMP JUMPDEST PUSH2 0x1467 PUSH1 0x20 DUP4 ADD DUP7 PUSH2 0x1359 JUMP JUMPDEST DUP2 DUP2 SUB PUSH1 0x40 DUP4 ADD MSTORE PUSH2 0x1479 DUP2 DUP6 PUSH2 0x11EA JUMP JUMPDEST SWAP1 POP DUP2 DUP2 SUB PUSH1 0x60 DUP4 ADD MSTORE PUSH2 0x148D DUP2 DUP5 PUSH2 0x11EA JUMP JUMPDEST SWAP1 POP SWAP6 SWAP5 POP POP POP POP POP JUMP JUMPDEST PUSH1 0x0 PUSH1 0xA0 DUP3 ADD SWAP1 POP PUSH2 0x14AD PUSH1 0x0 DUP4 ADD DUP9 PUSH2 0x1359 JUMP JUMPDEST PUSH2 0x14BA PUSH1 0x20 DUP4 ADD DUP8 PUSH2 0x1359 JUMP JUMPDEST DUP2 DUP2 SUB PUSH1 0x40 DUP4 ADD MSTORE PUSH2 0x14CC DUP2 DUP7 PUSH2 0x11EA JUMP JUMPDEST SWAP1 POP DUP2 DUP2 SUB PUSH1 0x60 DUP4 ADD MSTORE PUSH2 0x14E0 DUP2 DUP6 PUSH2 0x11EA JUMP JUMPDEST SWAP1 POP PUSH2 0x14EF PUSH1 0x80 DUP4 ADD DUP5 PUSH2 0x1359 JUMP JUMPDEST SWAP7 SWAP6 POP POP POP POP POP POP JUMP JUMPDEST PUSH1 0x0 PUSH1 0x60 DUP3 ADD SWAP1 POP PUSH2 0x150E PUSH1 0x0 DUP4 ADD DUP7 PUSH2 0x1359 JUMP JUMPDEST PUSH2 0x151B PUSH1 0x20 DUP4 ADD DUP6 PUSH2 0x1359 JUMP JUMPDEST PUSH2 0x1528 PUSH1 0x40 DUP4 ADD DUP5 PUSH2 0x1359 JUMP JUMPDEST SWAP5 SWAP4 POP POP POP POP JUMP JUMPDEST PUSH1 0x0 PUSH1 0xA0 DUP3 ADD SWAP1 POP PUSH2 0x1545 PUSH1 0x0 DUP4 ADD DUP9 PUSH2 0x1359 JUMP JUMPDEST PUSH2 0x1552 PUSH1 0x20 DUP4 ADD DUP8 PUSH2 0x1359 JUMP JUMPDEST PUSH2 0x155F PUSH1 0x40 DUP4 ADD DUP7 PUSH2 0x1359 JUMP JUMPDEST DUP2 DUP2 SUB PUSH1 0x60 DUP4 ADD MSTORE PUSH2 0x1571 DUP2 DUP6 PUSH2 0x11EA JUMP JUMPDEST SWAP1 POP DUP2 DUP2 SUB PUSH1 0x80 DUP4 ADD MSTORE PUSH2 0x1585 DUP2 DUP5 PUSH2 0x11EA JUMP JUMPDEST SWAP1 POP SWAP7 SWAP6 POP POP POP POP POP POP JUMP JUMPDEST PUSH1 0x0 PUSH2 0x159B PUSH2 0x15AC JUMP JUMPDEST SWAP1 POP PUSH2 0x15A7 DUP3 DUP3 PUSH2 0x171F JUMP JUMPDEST SWAP2 SWAP1 POP JUMP JUMPDEST PUSH1 0x0 PUSH1 0x40 MLOAD SWAP1 POP SWAP1 JUMP JUMPDEST PUSH1 0x0 PUSH8 0xFFFFFFFFFFFFFFFF DUP3 GT ISZERO PUSH2 0x15D1 JUMPI PUSH2 0x15D0 PUSH2 0x1855 JUMP JUMPDEST JUMPDEST PUSH2 0x15DA DUP3 PUSH2 0x1898 JUMP JUMPDEST SWAP1 POP PUSH1 0x20 DUP2 ADD SWAP1 POP SWAP2 SWAP1 POP JUMP JUMPDEST PUSH1 0x0 DUP2 MLOAD SWAP1 POP SWAP2 SWAP1 POP JUMP JUMPDEST PUSH1 0x0 DUP3 DUP3 MSTORE PUSH1 0x20 DUP3 ADD SWAP1 POP SWAP3 SWAP2 POP POP JUMP JUMPDEST PUSH1 0x0 DUP3 DUP3 MSTORE PUSH1 0x20 DUP3 ADD SWAP1 POP SWAP3 SWAP2 POP POP JUMP JUMPDEST PUSH1 0x0 PUSH2 0x161F DUP3 PUSH2 0x1645 JUMP JUMPDEST SWAP1 POP SWAP2 SWAP1 POP JUMP JUMPDEST PUSH1 0x0 DUP2 ISZERO ISZERO SWAP1 POP SWAP2 SWAP1 POP JUMP JUMPDEST PUSH1 0x0 DUP2 SWAP1 POP PUSH2 0x1640 DUP3 PUSH2 0x1921 JUMP JUMPDEST SWAP2 SWAP1 POP JUMP JUMPDEST PUSH1 0x0 PUSH20 0xFFFFFFFFFFFFFFFFFFFFFFFFFFFFFFFFFFFFFFFF DUP3 AND SWAP1 POP SWAP2 SWAP1 POP JUMP JUMPDEST PUSH1 0x0 DUP2 SWAP1 POP SWAP2 SWAP1 POP JUMP JUMPDEST PUSH1 0x0 PUSH2 0x167A DUP3 PUSH2 0x1632 JUMP JUMPDEST SWAP1 POP SWAP2 SWAP1 POP JUMP JUMPDEST DUP3 DUP2 DUP4 CALLDATACOPY PUSH1 0x0 DUP4 DUP4 ADD MSTORE POP POP POP JUMP JUMPDEST PUSH1 0x0 JUMPDEST DUP4 DUP2 LT ISZERO PUSH2 0x16AE JUMPI DUP1 DUP3 ADD MLOAD DUP2 DUP5 ADD MSTORE PUSH1 0x20 DUP2 ADD SWAP1 POP PUSH2 0x1693 JUMP JUMPDEST DUP4 DUP2 GT ISZERO PUSH2 0x16BD JUMPI PUSH1 0x0 DUP5 DUP5 ADD MSTORE JUMPDEST POP POP POP POP JUMP JUMPDEST PUSH1 0x0 PUSH2 0x16CE DUP3 PUSH2 0x1665 JUMP JUMPDEST SWAP2 POP PUSH1 0x0 DUP3 EQ ISZERO PUSH2 0x16E2 JUMPI PUSH2 0x16E1 PUSH2 0x1799 JUMP JUMPDEST JUMPDEST PUSH1 0x1 DUP3 SUB SWAP1 POP SWAP2 SWAP1 POP JUMP JUMPDEST PUSH1 0x0 PUSH1 0x2 DUP3 DIV SWAP1 POP PUSH1 0x1 DUP3 AND DUP1 PUSH2 0x1705 JUMPI PUSH1 0x7F DUP3 AND SWAP2 POP JUMPDEST PUSH1 0x20 DUP3 LT DUP2 EQ ISZERO PUSH2 0x1719 JUMPI PUSH2 0x1718 PUSH2 0x17F7 JUMP JUMPDEST JUMPDEST POP SWAP2 SWAP1 POP JUMP JUMPDEST PUSH2 0x1728 DUP3 PUSH2 0x1898 JUMP JUMPDEST DUP2 ADD DUP2 DUP2 LT PUSH8 0xFFFFFFFFFFFFFFFF DUP3 GT OR ISZERO PUSH2 0x1747 JUMPI PUSH2 0x1746 PUSH2 0x1855 JUMP JUMPDEST JUMPDEST DUP1 PUSH1 0x40 MSTORE POP POP POP JUMP JUMPDEST PUSH1 0x0 PUSH2 0x175B DUP3 PUSH2 0x1665 JUMP JUMPDEST SWAP2 POP PUSH32 0xFFFFFFFFFFFFFFFFFFFFFFFFFFFFFFFFFFFFFFFFFFFFFFFFFFFFFFFFFFFFFFFF DUP3 EQ ISZERO PUSH2 0x178E JUMPI PUSH2 0x178D PUSH2 0x1799 JUMP JUMPDEST JUMPDEST PUSH1 0x1 DUP3 ADD SWAP1 POP SWAP2 SWAP1 POP JUMP JUMPDEST PUSH32 0x4E487B7100000000000000000000000000000000000000000000000000000000 PUSH1 0x0 MSTORE PUSH1 0x11 PUSH1 0x4 MSTORE PUSH1 0x24 PUSH1 0x0 REVERT JUMPDEST PUSH32 0x4E487B7100000000000000000000000000000000000000000000000000000000 PUSH1 0x0 MSTORE PUSH1 0x21 PUSH1 0x4 MSTORE PUSH1 0x24 PUSH1 0x0 REVERT JUMPDEST PUSH32 0x4E487B7100000000000000000000000000000000000000000000000000000000 PUSH1 0x0 MSTORE PUSH1 0x22 PUSH1 0x4 MSTORE PUSH1 0x24 PUSH1 0x0 REVERT JUMPDEST PUSH32 0x4E487B7100000000000000000000000000000000000000000000000000000000 PUSH1 0x0 MSTORE PUSH1 0x32 PUSH1 0x4 MSTORE PUSH1 0x24 PUSH1 0x0 REVERT JUMPDEST PUSH32 0x4E487B7100000000000000000000000000000000000000000000000000000000 PUSH1 0x0 MSTORE PUSH1 0x41 PUSH1 0x4 MSTORE PUSH1 0x24 PUSH1 0x0 REVERT JUMPDEST PUSH1 0x0 DUP1 REVERT JUMPDEST PUSH1 0x0 DUP1 REVERT JUMPDEST PUSH1 0x0 DUP1 REVERT JUMPDEST PUSH1 0x0 DUP1 REVERT JUMPDEST PUSH1 0x0 PUSH1 0x1F NOT PUSH1 0x1F DUP4 ADD AND SWAP1 POP SWAP2 SWAP1 POP JUMP JUMPDEST PUSH32 0x412053657276696365205072696365206D757374206265207370656369666965 PUSH1 0x0 DUP3 ADD MSTORE PUSH32 0x6400000000000000000000000000000000000000000000000000000000000000 PUSH1 0x20 DUP3 ADD MSTORE POP JUMP JUMPDEST PUSH32 0x4120737472696E67206973207265717569726564210000000000000000000000 PUSH1 0x0 DUP3 ADD MSTORE POP JUMP JUMPDEST PUSH1 0x6 DUP2 LT PUSH2 0x1932 JUMPI PUSH2 0x1931 PUSH2 0x17C8 JUMP JUMPDEST JUMPDEST POP JUMP JUMPDEST PUSH2 0x193E DUP2 PUSH2 0x1614 JUMP JUMPDEST DUP2 EQ PUSH2 0x1949 JUMPI PUSH1 0x0 DUP1 REVERT JUMPDEST POP JUMP JUMPDEST PUSH2 0x1955 DUP2 PUSH2 0x1665 JUMP JUMPDEST DUP2 EQ PUSH2 0x1960 JUMPI PUSH1 0x0 DUP1 REVERT JUMPDEST POP JUMP INVALID LOG2 PUSH5 0x6970667358 0x22 SLT KECCAK256 SWAP3 SWAP4 BASEFEE 0xC5 EXTCODEHASH PUSH32 0x5D99BB7BA0CA64057D155E43AC8490FC320F24F791E88502EC8F64736F6C6343 STOP ADDMOD SMOD STOP CALLER "
				},
				"gasEstimates": {
					"creation": {
						"codeDepositCost": "1310600",
						"executionCost": "infinite",
						"totalCost": "infinite"
					},
					"external": {
						"createMilestone(uint256,uint256,string,string)": "infinite",
						"createService(uint256,string,string,uint256,address)": "infinite",
						"deleteMilestone(uint256,uint256,uint256)": "infinite",
						"deleteService(uint256,uint256)": "infinite",
						"readMilestone(uint256,uint256,uint256)": "infinite",
						"readService(uint256,uint256)": "infinite",
						"serviceNum()": "2474",
						"serviceTotal()": "2452",
						"updateMilestone(uint256,uint256,uint256,string,string)": "infinite",
						"updateService(uint256,uint256,string,string,uint256)": "infinite"
					}
				},
				"methodIdentifiers": {
					"createMilestone(uint256,uint256,string,string)": "63ef8a50",
					"createService(uint256,string,string,uint256,address)": "256da4e3",
					"deleteMilestone(uint256,uint256,uint256)": "b9b6c5d4",
					"deleteService(uint256,uint256)": "53c49c64",
					"readMilestone(uint256,uint256,uint256)": "49428a62",
					"readService(uint256,uint256)": "4994772c",
					"serviceNum()": "352d28fd",
					"serviceTotal()": "30f73051",
					"updateMilestone(uint256,uint256,uint256,string,string)": "fd23c4bb",
					"updateService(uint256,uint256,string,string,uint256)": "ac10dfe3"
				}
			},
			"userdoc": {
				"kind": "user",
				"methods": {},
				"version": 1
			}
		}
	}
}