{
	"contracts/Conflict.sol": {
		"Conflict": {
			"abi": [
				{
					"anonymous": false,
					"inputs": [
						{
							"indexed": false,
							"internalType": "uint256",
							"name": "projectNumber",
							"type": "uint256"
						},
						{
							"indexed": false,
							"internalType": "uint256",
							"name": "serviceNumber",
							"type": "uint256"
						},
						{
							"indexed": false,
							"internalType": "uint256",
							"name": "milestoneNumber",
							"type": "uint256"
						},
						{
							"indexed": false,
							"internalType": "address",
							"name": "serviceRequester",
							"type": "address"
						},
						{
							"indexed": false,
							"internalType": "address",
							"name": "serviceProvider",
							"type": "address"
						},
						{
							"indexed": false,
							"internalType": "uint256",
							"name": "totalVoters",
							"type": "uint256"
						}
					],
					"name": "conflictCreated",
					"type": "event"
				},
				{
					"anonymous": false,
					"inputs": [
						{
							"indexed": false,
							"internalType": "uint256",
							"name": "projectNumber",
							"type": "uint256"
						},
						{
							"indexed": false,
							"internalType": "uint256",
							"name": "serviceNumber",
							"type": "uint256"
						},
						{
							"indexed": false,
							"internalType": "uint256",
							"name": "milestoneNumber",
							"type": "uint256"
						},
						{
							"indexed": false,
							"internalType": "address",
							"name": "serviceProvider",
							"type": "address"
						}
					],
					"name": "conflictRaised",
					"type": "event"
				},
				{
					"anonymous": false,
					"inputs": [
						{
							"indexed": false,
							"internalType": "uint256",
							"name": "projectNumber",
							"type": "uint256"
						},
						{
							"indexed": false,
							"internalType": "uint256",
							"name": "serviceNumber",
							"type": "uint256"
						},
						{
							"indexed": false,
							"internalType": "uint256",
							"name": "milestoneNumber",
							"type": "uint256"
						},
						{
							"indexed": false,
							"internalType": "uint8",
							"name": "result",
							"type": "uint8"
						}
					],
					"name": "conflictResult",
					"type": "event"
				},
				{
					"anonymous": false,
					"inputs": [
						{
							"indexed": false,
							"internalType": "uint256",
							"name": "projectNumber",
							"type": "uint256"
						},
						{
							"indexed": false,
							"internalType": "uint256",
							"name": "serviceNumber",
							"type": "uint256"
						},
						{
							"indexed": false,
							"internalType": "uint256",
							"name": "milestoneNumber",
							"type": "uint256"
						},
						{
							"indexed": false,
							"internalType": "address",
							"name": "voter",
							"type": "address"
						},
						{
							"indexed": false,
							"internalType": "uint8",
							"name": "vote",
							"type": "uint8"
						}
					],
					"name": "conflictVoted",
					"type": "event"
				},
				{
					"inputs": [
						{
							"internalType": "uint256",
							"name": "projectNumber",
							"type": "uint256"
						},
						{
							"internalType": "uint256",
							"name": "serviceNumber",
							"type": "uint256"
						},
						{
							"internalType": "uint256",
							"name": "milestoneNumber",
							"type": "uint256"
						},
						{
							"internalType": "address",
							"name": "serviceRequester",
							"type": "address"
						},
						{
							"internalType": "address",
							"name": "serviceProvider",
							"type": "address"
						},
						{
							"internalType": "uint256",
							"name": "totalVoters",
							"type": "uint256"
						}
					],
					"name": "createConflict",
					"outputs": [],
					"stateMutability": "nonpayable",
					"type": "function"
				},
				{
					"inputs": [
						{
							"internalType": "uint256",
							"name": "projectNumber",
							"type": "uint256"
						},
						{
							"internalType": "uint256",
							"name": "serviceNumber",
							"type": "uint256"
						},
						{
							"internalType": "uint256",
							"name": "milestoneNumber",
							"type": "uint256"
						}
					],
					"name": "getConflictStatus",
					"outputs": [
						{
							"internalType": "enum Conflict.ConflictStatus",
							"name": "",
							"type": "uint8"
						}
					],
					"stateMutability": "view",
					"type": "function"
				},
				{
					"inputs": [
						{
							"internalType": "uint256",
							"name": "projectNumber",
							"type": "uint256"
						},
						{
							"internalType": "uint256",
							"name": "serviceNumber",
							"type": "uint256"
						},
						{
							"internalType": "uint256",
							"name": "milestoneNumber",
							"type": "uint256"
						}
					],
					"name": "getResults",
					"outputs": [
						{
							"internalType": "uint256",
							"name": "",
							"type": "uint256"
						}
					],
					"stateMutability": "view",
					"type": "function"
				},
				{
					"inputs": [
						{
							"internalType": "uint256",
							"name": "projectNumber",
							"type": "uint256"
						},
						{
							"internalType": "uint256",
							"name": "serviceNumber",
							"type": "uint256"
						},
						{
							"internalType": "uint256",
							"name": "milestoneNumber",
							"type": "uint256"
						}
					],
					"name": "getVotesCollected",
					"outputs": [
						{
							"internalType": "uint256",
							"name": "",
							"type": "uint256"
						}
					],
					"stateMutability": "view",
					"type": "function"
				},
				{
					"inputs": [
						{
							"internalType": "uint256",
							"name": "projectNumber",
							"type": "uint256"
						},
						{
							"internalType": "uint256",
							"name": "serviceNumber",
							"type": "uint256"
						},
						{
							"internalType": "uint256",
							"name": "milestoneNumber",
							"type": "uint256"
						}
					],
					"name": "getVotesforProvider",
					"outputs": [
						{
							"internalType": "uint256",
							"name": "",
							"type": "uint256"
						}
					],
					"stateMutability": "view",
					"type": "function"
				},
				{
					"inputs": [
						{
							"internalType": "uint256",
							"name": "projectNumber",
							"type": "uint256"
						},
						{
							"internalType": "uint256",
							"name": "serviceNumber",
							"type": "uint256"
						},
						{
							"internalType": "uint256",
							"name": "milestoneNumber",
							"type": "uint256"
						}
					],
					"name": "getVotesforRequester",
					"outputs": [
						{
							"internalType": "uint256",
							"name": "",
							"type": "uint256"
						}
					],
					"stateMutability": "view",
					"type": "function"
				},
				{
					"inputs": [
						{
							"internalType": "uint256",
							"name": "projectNumber",
							"type": "uint256"
						},
						{
							"internalType": "uint256",
							"name": "serviceNumber",
							"type": "uint256"
						},
						{
							"internalType": "uint256",
							"name": "milestoneNumber",
							"type": "uint256"
						},
						{
							"internalType": "address",
							"name": "sender",
							"type": "address"
						},
						{
							"internalType": "uint8",
							"name": "vote",
							"type": "uint8"
						}
					],
					"name": "voteConflict",
					"outputs": [],
					"stateMutability": "nonpayable",
					"type": "function"
				}
			],
			"devdoc": {
				"kind": "dev",
				"methods": {},
				"version": 1
			},
			"evm": {
				"assembly": "    /* \"contracts/Conflict.sol\":156:5936  contract Conflict {... */\n  mstore(0x40, 0x80)\n  callvalue\n  dup1\n  iszero\n  tag_1\n  jumpi\n  0x00\n  dup1\n  revert\ntag_1:\n  pop\n  dataSize(sub_0)\n  dup1\n  dataOffset(sub_0)\n  0x00\n  codecopy\n  0x00\n  return\nstop\n\nsub_0: assembly {\n        /* \"contracts/Conflict.sol\":156:5936  contract Conflict {... */\n      mstore(0x40, 0x80)\n      callvalue\n      dup1\n      iszero\n      tag_1\n      jumpi\n      0x00\n      dup1\n      revert\n    tag_1:\n      pop\n      jumpi(tag_2, lt(calldatasize, 0x04))\n      shr(0xe0, calldataload(0x00))\n      dup1\n      0x9ac78879\n      gt\n      tag_10\n      jumpi\n      dup1\n      0x9ac78879\n      eq\n      tag_6\n      jumpi\n      dup1\n      0xc171bdf7\n      eq\n      tag_7\n      jumpi\n      dup1\n      0xcb4389ce\n      eq\n      tag_8\n      jumpi\n      dup1\n      0xe3d87718\n      eq\n      tag_9\n      jumpi\n      jump(tag_2)\n    tag_10:\n      dup1\n      0x0366cef2\n      eq\n      tag_3\n      jumpi\n      dup1\n      0x3c45fe31\n      eq\n      tag_4\n      jumpi\n      dup1\n      0x71606fb0\n      eq\n      tag_5\n      jumpi\n    tag_2:\n      0x00\n      dup1\n      revert\n        /* \"contracts/Conflict.sol\":4382:5006  function getResults(uint256 projectNumber, uint256 serviceNumber, uint256 milestoneNumber) public view returns (uint) {... */\n    tag_3:\n      tag_11\n      0x04\n      dup1\n      calldatasize\n      sub\n      dup2\n      add\n      swap1\n      tag_12\n      swap2\n      swap1\n      tag_13\n      jump\t// in\n    tag_12:\n      tag_14\n      jump\t// in\n    tag_11:\n      mload(0x40)\n      tag_15\n      swap2\n      swap1\n      tag_16\n      jump\t// in\n    tag_15:\n      mload(0x40)\n      dup1\n      swap2\n      sub\n      swap1\n      return\n        /* \"contracts/Conflict.sol\":5248:5471  function getVotesCollected(uint256 projectNumber, uint256 serviceNumber, uint256 milestoneNumber) public view returns (uint256) {... */\n    tag_4:\n      tag_17\n      0x04\n      dup1\n      calldatasize\n      sub\n      dup2\n      add\n      swap1\n      tag_18\n      swap2\n      swap1\n      tag_13\n      jump\t// in\n    tag_18:\n      tag_19\n      jump\t// in\n    tag_17:\n      mload(0x40)\n      tag_20\n      swap2\n      swap1\n      tag_16\n      jump\t// in\n    tag_20:\n      mload(0x40)\n      dup1\n      swap2\n      sub\n      swap1\n      return\n        /* \"contracts/Conflict.sol\":1406:2584  function createConflict(uint256 projectNumber, uint256 serviceNumber, uint256 milestoneNumber, address serviceRequester, address serviceProvider,  uint256 totalVoters) public {... */\n    tag_5:\n      tag_21\n      0x04\n      dup1\n      calldatasize\n      sub\n      dup2\n      add\n      swap1\n      tag_22\n      swap2\n      swap1\n      tag_23\n      jump\t// in\n    tag_22:\n      tag_24\n      jump\t// in\n    tag_21:\n      stop\n        /* \"contracts/Conflict.sol\":5709:5933  function getVotesforProvider(uint256 projectNumber, uint256 serviceNumber, uint256 milestoneNumber) public view returns (uint256) {... */\n    tag_6:\n      tag_25\n      0x04\n      dup1\n      calldatasize\n      sub\n      dup2\n      add\n      swap1\n      tag_26\n      swap2\n      swap1\n      tag_13\n      jump\t// in\n    tag_26:\n      tag_27\n      jump\t// in\n    tag_25:\n      mload(0x40)\n      tag_28\n      swap2\n      swap1\n      tag_16\n      jump\t// in\n    tag_28:\n      mload(0x40)\n      dup1\n      swap2\n      sub\n      swap1\n      return\n        /* \"contracts/Conflict.sol\":2714:4344  function voteConflict(uint256 projectNumber, uint256 serviceNumber, uint256 milestoneNumber, address sender, uint8 vote) public {... */\n    tag_7:\n      tag_29\n      0x04\n      dup1\n      calldatasize\n      sub\n      dup2\n      add\n      swap1\n      tag_30\n      swap2\n      swap1\n      tag_31\n      jump\t// in\n    tag_30:\n      tag_32\n      jump\t// in\n    tag_29:\n      stop\n        /* \"contracts/Conflict.sol\":5012:5242  function getConflictStatus(uint256 projectNumber, uint256 serviceNumber, uint256 milestoneNumber) public view returns (ConflictStatus) {... */\n    tag_8:\n      tag_33\n      0x04\n      dup1\n      calldatasize\n      sub\n      dup2\n      add\n      swap1\n      tag_34\n      swap2\n      swap1\n      tag_13\n      jump\t// in\n    tag_34:\n      tag_35\n      jump\t// in\n    tag_33:\n      mload(0x40)\n      tag_36\n      swap2\n      swap1\n      tag_37\n      jump\t// in\n    tag_36:\n      mload(0x40)\n      dup1\n      swap2\n      sub\n      swap1\n      return\n        /* \"contracts/Conflict.sol\":5477:5703  function getVotesforRequester(uint256 projectNumber, uint256 serviceNumber, uint256 milestoneNumber) public view returns (uint256) {... */\n    tag_9:\n      tag_38\n      0x04\n      dup1\n      calldatasize\n      sub\n      dup2\n      add\n      swap1\n      tag_39\n      swap2\n      swap1\n      tag_13\n      jump\t// in\n    tag_39:\n      tag_40\n      jump\t// in\n    tag_38:\n      mload(0x40)\n      tag_41\n      swap2\n      swap1\n      tag_16\n      jump\t// in\n    tag_41:\n      mload(0x40)\n      dup1\n      swap2\n      sub\n      swap1\n      return\n        /* \"contracts/Conflict.sol\":4382:5006  function getResults(uint256 projectNumber, uint256 serviceNumber, uint256 milestoneNumber) public view returns (uint) {... */\n    tag_14:\n        /* \"contracts/Conflict.sol\":4494:4498  uint */\n      0x00\n        /* \"contracts/Conflict.sol\":4593:4602  conflicts */\n      dup1\n        /* \"contracts/Conflict.sol\":4593:4617  conflicts[projectNumber] */\n      0x00\n        /* \"contracts/Conflict.sol\":4603:4616  projectNumber */\n      dup6\n        /* \"contracts/Conflict.sol\":4593:4617  conflicts[projectNumber] */\n      dup2\n      mstore\n      0x20\n      add\n      swap1\n      dup2\n      mstore\n      0x20\n      add\n      0x00\n      keccak256\n        /* \"contracts/Conflict.sol\":4593:4632  conflicts[projectNumber][serviceNumber] */\n      0x00\n        /* \"contracts/Conflict.sol\":4618:4631  serviceNumber */\n      dup5\n        /* \"contracts/Conflict.sol\":4593:4632  conflicts[projectNumber][serviceNumber] */\n      dup2\n      mstore\n      0x20\n      add\n      swap1\n      dup2\n      mstore\n      0x20\n      add\n      0x00\n      keccak256\n        /* \"contracts/Conflict.sol\":4593:4649  conflicts[projectNumber][serviceNumber][milestoneNumber] */\n      0x00\n        /* \"contracts/Conflict.sol\":4633:4648  milestoneNumber */\n      dup4\n        /* \"contracts/Conflict.sol\":4593:4649  conflicts[projectNumber][serviceNumber][milestoneNumber] */\n      dup2\n      mstore\n      0x20\n      add\n      swap1\n      dup2\n      mstore\n      0x20\n      add\n      0x00\n      keccak256\n        /* \"contracts/Conflict.sol\":4593:4656  conflicts[projectNumber][serviceNumber][milestoneNumber].voters */\n      0x05\n      add\n      sload\n        /* \"contracts/Conflict.sol\":4518:4527  conflicts */\n      0x00\n        /* \"contracts/Conflict.sol\":4518:4542  conflicts[projectNumber] */\n      dup1\n        /* \"contracts/Conflict.sol\":4528:4541  projectNumber */\n      dup7\n        /* \"contracts/Conflict.sol\":4518:4542  conflicts[projectNumber] */\n      dup2\n      mstore\n      0x20\n      add\n      swap1\n      dup2\n      mstore\n      0x20\n      add\n      0x00\n      keccak256\n        /* \"contracts/Conflict.sol\":4518:4557  conflicts[projectNumber][serviceNumber] */\n      0x00\n        /* \"contracts/Conflict.sol\":4543:4556  serviceNumber */\n      dup6\n        /* \"contracts/Conflict.sol\":4518:4557  conflicts[projectNumber][serviceNumber] */\n      dup2\n      mstore\n      0x20\n      add\n      swap1\n      dup2\n      mstore\n      0x20\n      add\n      0x00\n      keccak256\n        /* \"contracts/Conflict.sol\":4518:4574  conflicts[projectNumber][serviceNumber][milestoneNumber] */\n      0x00\n        /* \"contracts/Conflict.sol\":4558:4573  milestoneNumber */\n      dup5\n        /* \"contracts/Conflict.sol\":4518:4574  conflicts[projectNumber][serviceNumber][milestoneNumber] */\n      dup2\n      mstore\n      0x20\n      add\n      swap1\n      dup2\n      mstore\n      0x20\n      add\n      0x00\n      keccak256\n        /* \"contracts/Conflict.sol\":4518:4589  conflicts[projectNumber][serviceNumber][milestoneNumber].votesCollected */\n      0x06\n      add\n      sload\n        /* \"contracts/Conflict.sol\":4518:4656  conflicts[projectNumber][serviceNumber][milestoneNumber].votesCollected == conflicts[projectNumber][serviceNumber][milestoneNumber].voters */\n      eq\n        /* \"contracts/Conflict.sol\":4510:4735  require(conflicts[projectNumber][serviceNumber][milestoneNumber].votesCollected == conflicts[projectNumber][serviceNumber][milestoneNumber].voters, \"Not everyone has voted, please prompt all other members of project to vote\") */\n      tag_43\n      jumpi\n      mload(0x40)\n      0x08c379a000000000000000000000000000000000000000000000000000000000\n      dup2\n      mstore\n      0x04\n      add\n      tag_44\n      swap1\n      tag_45\n      jump\t// in\n    tag_44:\n      mload(0x40)\n      dup1\n      swap2\n      sub\n      swap1\n      revert\n    tag_43:\n        /* \"contracts/Conflict.sol\":4828:4852  ConflictStatus.completed */\n      0x02\n        /* \"contracts/Conflict.sol\":4753:4852  conflicts[projectNumber][serviceNumber][milestoneNumber].conflictstatus == ConflictStatus.completed */\n      dup1\n      dup2\n      gt\n      iszero\n      tag_46\n      jumpi\n      tag_47\n      tag_48\n      jump\t// in\n    tag_47:\n    tag_46:\n        /* \"contracts/Conflict.sol\":4753:4762  conflicts */\n      0x00\n        /* \"contracts/Conflict.sol\":4753:4777  conflicts[projectNumber] */\n      dup1\n        /* \"contracts/Conflict.sol\":4763:4776  projectNumber */\n      dup7\n        /* \"contracts/Conflict.sol\":4753:4777  conflicts[projectNumber] */\n      dup2\n      mstore\n      0x20\n      add\n      swap1\n      dup2\n      mstore\n      0x20\n      add\n      0x00\n      keccak256\n        /* \"contracts/Conflict.sol\":4753:4792  conflicts[projectNumber][serviceNumber] */\n      0x00\n        /* \"contracts/Conflict.sol\":4778:4791  serviceNumber */\n      dup6\n        /* \"contracts/Conflict.sol\":4753:4792  conflicts[projectNumber][serviceNumber] */\n      dup2\n      mstore\n      0x20\n      add\n      swap1\n      dup2\n      mstore\n      0x20\n      add\n      0x00\n      keccak256\n        /* \"contracts/Conflict.sol\":4753:4809  conflicts[projectNumber][serviceNumber][milestoneNumber] */\n      0x00\n        /* \"contracts/Conflict.sol\":4793:4808  milestoneNumber */\n      dup5\n        /* \"contracts/Conflict.sol\":4753:4809  conflicts[projectNumber][serviceNumber][milestoneNumber] */\n      dup2\n      mstore\n      0x20\n      add\n      swap1\n      dup2\n      mstore\n      0x20\n      add\n      0x00\n      keccak256\n        /* \"contracts/Conflict.sol\":4753:4824  conflicts[projectNumber][serviceNumber][milestoneNumber].conflictstatus */\n      0x04\n      add\n      0x14\n      swap1\n      sload\n      swap1\n      0x0100\n      exp\n      swap1\n      div\n      0xff\n      and\n        /* \"contracts/Conflict.sol\":4753:4852  conflicts[projectNumber][serviceNumber][milestoneNumber].conflictstatus == ConflictStatus.completed */\n      0x02\n      dup2\n      gt\n      iszero\n      tag_49\n      jumpi\n      tag_50\n      tag_48\n      jump\t// in\n    tag_50:\n    tag_49:\n      eq\n        /* \"contracts/Conflict.sol\":4745:4918  require(conflicts[projectNumber][serviceNumber][milestoneNumber].conflictstatus == ConflictStatus.completed, \"Voting has not been completed yet. Please wait for it to end.\") */\n      tag_51\n      jumpi\n      mload(0x40)\n      0x08c379a000000000000000000000000000000000000000000000000000000000\n      dup2\n      mstore\n      0x04\n      add\n      tag_52\n      swap1\n      tag_53\n      jump\t// in\n    tag_52:\n      mload(0x40)\n      dup1\n      swap2\n      sub\n      swap1\n      revert\n    tag_51:\n        /* \"contracts/Conflict.sol\":4936:4945  conflicts */\n      0x00\n        /* \"contracts/Conflict.sol\":4936:4960  conflicts[projectNumber] */\n      dup1\n        /* \"contracts/Conflict.sol\":4946:4959  projectNumber */\n      dup6\n        /* \"contracts/Conflict.sol\":4936:4960  conflicts[projectNumber] */\n      dup2\n      mstore\n      0x20\n      add\n      swap1\n      dup2\n      mstore\n      0x20\n      add\n      0x00\n      keccak256\n        /* \"contracts/Conflict.sol\":4936:4975  conflicts[projectNumber][serviceNumber] */\n      0x00\n        /* \"contracts/Conflict.sol\":4961:4974  serviceNumber */\n      dup5\n        /* \"contracts/Conflict.sol\":4936:4975  conflicts[projectNumber][serviceNumber] */\n      dup2\n      mstore\n      0x20\n      add\n      swap1\n      dup2\n      mstore\n      0x20\n      add\n      0x00\n      keccak256\n        /* \"contracts/Conflict.sol\":4936:4992  conflicts[projectNumber][serviceNumber][milestoneNumber] */\n      0x00\n        /* \"contracts/Conflict.sol\":4976:4991  milestoneNumber */\n      dup4\n        /* \"contracts/Conflict.sol\":4936:4992  conflicts[projectNumber][serviceNumber][milestoneNumber] */\n      dup2\n      mstore\n      0x20\n      add\n      swap1\n      dup2\n      mstore\n      0x20\n      add\n      0x00\n      keccak256\n        /* \"contracts/Conflict.sol\":4936:4999  conflicts[projectNumber][serviceNumber][milestoneNumber].result */\n      0x09\n      add\n      0x01\n      swap1\n      sload\n      swap1\n      0x0100\n      exp\n      swap1\n      div\n      0xff\n      and\n        /* \"contracts/Conflict.sol\":4929:4999  return conflicts[projectNumber][serviceNumber][milestoneNumber].result */\n      0xff\n      and\n      swap1\n      pop\n        /* \"contracts/Conflict.sol\":4382:5006  function getResults(uint256 projectNumber, uint256 serviceNumber, uint256 milestoneNumber) public view returns (uint) {... */\n      swap4\n      swap3\n      pop\n      pop\n      pop\n      jump\t// out\n        /* \"contracts/Conflict.sol\":5248:5471  function getVotesCollected(uint256 projectNumber, uint256 serviceNumber, uint256 milestoneNumber) public view returns (uint256) {... */\n    tag_19:\n        /* \"contracts/Conflict.sol\":5367:5374  uint256 */\n      0x00\n        /* \"contracts/Conflict.sol\":5393:5402  conflicts */\n      dup1\n        /* \"contracts/Conflict.sol\":5393:5417  conflicts[projectNumber] */\n      0x00\n        /* \"contracts/Conflict.sol\":5403:5416  projectNumber */\n      dup6\n        /* \"contracts/Conflict.sol\":5393:5417  conflicts[projectNumber] */\n      dup2\n      mstore\n      0x20\n      add\n      swap1\n      dup2\n      mstore\n      0x20\n      add\n      0x00\n      keccak256\n        /* \"contracts/Conflict.sol\":5393:5432  conflicts[projectNumber][serviceNumber] */\n      0x00\n        /* \"contracts/Conflict.sol\":5418:5431  serviceNumber */\n      dup5\n        /* \"contracts/Conflict.sol\":5393:5432  conflicts[projectNumber][serviceNumber] */\n      dup2\n      mstore\n      0x20\n      add\n      swap1\n      dup2\n      mstore\n      0x20\n      add\n      0x00\n      keccak256\n        /* \"contracts/Conflict.sol\":5393:5449  conflicts[projectNumber][serviceNumber][milestoneNumber] */\n      0x00\n        /* \"contracts/Conflict.sol\":5433:5448  milestoneNumber */\n      dup4\n        /* \"contracts/Conflict.sol\":5393:5449  conflicts[projectNumber][serviceNumber][milestoneNumber] */\n      dup2\n      mstore\n      0x20\n      add\n      swap1\n      dup2\n      mstore\n      0x20\n      add\n      0x00\n      keccak256\n        /* \"contracts/Conflict.sol\":5393:5464  conflicts[projectNumber][serviceNumber][milestoneNumber].votesCollected */\n      0x06\n      add\n      sload\n        /* \"contracts/Conflict.sol\":5386:5464  return conflicts[projectNumber][serviceNumber][milestoneNumber].votesCollected */\n      swap1\n      pop\n        /* \"contracts/Conflict.sol\":5248:5471  function getVotesCollected(uint256 projectNumber, uint256 serviceNumber, uint256 milestoneNumber) public view returns (uint256) {... */\n      swap4\n      swap3\n      pop\n      pop\n      pop\n      jump\t// out\n        /* \"contracts/Conflict.sol\":1406:2584  function createConflict(uint256 projectNumber, uint256 serviceNumber, uint256 milestoneNumber, address serviceRequester, address serviceProvider,  uint256 totalVoters) public {... */\n    tag_24:\n        /* \"contracts/Conflict.sol\":1666:1670  true */\n      0x01\n        /* \"contracts/Conflict.sol\":1599:1670  conflicts[projectNumber][serviceNumber][milestoneNumber].exists != true */\n      iszero\n      iszero\n        /* \"contracts/Conflict.sol\":1599:1608  conflicts */\n      0x00\n        /* \"contracts/Conflict.sol\":1599:1623  conflicts[projectNumber] */\n      dup1\n        /* \"contracts/Conflict.sol\":1609:1622  projectNumber */\n      dup9\n        /* \"contracts/Conflict.sol\":1599:1623  conflicts[projectNumber] */\n      dup2\n      mstore\n      0x20\n      add\n      swap1\n      dup2\n      mstore\n      0x20\n      add\n      0x00\n      keccak256\n        /* \"contracts/Conflict.sol\":1599:1638  conflicts[projectNumber][serviceNumber] */\n      0x00\n        /* \"contracts/Conflict.sol\":1624:1637  serviceNumber */\n      dup8\n        /* \"contracts/Conflict.sol\":1599:1638  conflicts[projectNumber][serviceNumber] */\n      dup2\n      mstore\n      0x20\n      add\n      swap1\n      dup2\n      mstore\n      0x20\n      add\n      0x00\n      keccak256\n        /* \"contracts/Conflict.sol\":1599:1655  conflicts[projectNumber][serviceNumber][milestoneNumber] */\n      0x00\n        /* \"contracts/Conflict.sol\":1639:1654  milestoneNumber */\n      dup7\n        /* \"contracts/Conflict.sol\":1599:1655  conflicts[projectNumber][serviceNumber][milestoneNumber] */\n      dup2\n      mstore\n      0x20\n      add\n      swap1\n      dup2\n      mstore\n      0x20\n      add\n      0x00\n      keccak256\n        /* \"contracts/Conflict.sol\":1599:1662  conflicts[projectNumber][serviceNumber][milestoneNumber].exists */\n      0x09\n      add\n      0x00\n      swap1\n      sload\n      swap1\n      0x0100\n      exp\n      swap1\n      div\n      0xff\n      and\n        /* \"contracts/Conflict.sol\":1599:1670  conflicts[projectNumber][serviceNumber][milestoneNumber].exists != true */\n      iszero\n      iszero\n      eq\n      iszero\n        /* \"contracts/Conflict.sol\":1591:1753  require(conflicts[projectNumber][serviceNumber][milestoneNumber].exists != true , \"Conflict has already been created. Please do not create more than 1 conflict.\") */\n      tag_56\n      jumpi\n      mload(0x40)\n      0x08c379a000000000000000000000000000000000000000000000000000000000\n      dup2\n      mstore\n      0x04\n      add\n      tag_57\n      swap1\n      tag_58\n      jump\t// in\n    tag_57:\n      mload(0x40)\n      dup1\n      swap2\n      sub\n      swap1\n      revert\n    tag_56:\n        /* \"contracts/Conflict.sol\":1789:1817  conflict storage newConflict */\n      0x00\n        /* \"contracts/Conflict.sol\":1820:1829  conflicts */\n      dup1\n        /* \"contracts/Conflict.sol\":1820:1844  conflicts[projectNumber] */\n      0x00\n        /* \"contracts/Conflict.sol\":1830:1843  projectNumber */\n      dup9\n        /* \"contracts/Conflict.sol\":1820:1844  conflicts[projectNumber] */\n      dup2\n      mstore\n      0x20\n      add\n      swap1\n      dup2\n      mstore\n      0x20\n      add\n      0x00\n      keccak256\n        /* \"contracts/Conflict.sol\":1820:1859  conflicts[projectNumber][serviceNumber] */\n      0x00\n        /* \"contracts/Conflict.sol\":1845:1858  serviceNumber */\n      dup8\n        /* \"contracts/Conflict.sol\":1820:1859  conflicts[projectNumber][serviceNumber] */\n      dup2\n      mstore\n      0x20\n      add\n      swap1\n      dup2\n      mstore\n      0x20\n      add\n      0x00\n      keccak256\n        /* \"contracts/Conflict.sol\":1820:1876  conflicts[projectNumber][serviceNumber][milestoneNumber] */\n      0x00\n        /* \"contracts/Conflict.sol\":1860:1875  milestoneNumber */\n      dup7\n        /* \"contracts/Conflict.sol\":1820:1876  conflicts[projectNumber][serviceNumber][milestoneNumber] */\n      dup2\n      mstore\n      0x20\n      add\n      swap1\n      dup2\n      mstore\n      0x20\n      add\n      0x00\n      keccak256\n        /* \"contracts/Conflict.sol\":1789:1876  conflict storage newConflict = conflicts[projectNumber][serviceNumber][milestoneNumber] */\n      swap1\n      pop\n        /* \"contracts/Conflict.sol\":1914:1927  projectNumber */\n      dup7\n        /* \"contracts/Conflict.sol\":1886:1897  newConflict */\n      dup2\n        /* \"contracts/Conflict.sol\":1886:1911  newConflict.projectNumber */\n      0x00\n      add\n        /* \"contracts/Conflict.sol\":1886:1927  newConflict.projectNumber = projectNumber */\n      dup2\n      swap1\n      sstore\n      pop\n        /* \"contracts/Conflict.sol\":1970:1983  serviceNumber */\n      dup6\n        /* \"contracts/Conflict.sol\":1942:1953  newConflict */\n      dup2\n        /* \"contracts/Conflict.sol\":1942:1967  newConflict.serviceNumber */\n      0x01\n      add\n        /* \"contracts/Conflict.sol\":1942:1983  newConflict.serviceNumber = serviceNumber */\n      dup2\n      swap1\n      sstore\n      pop\n        /* \"contracts/Conflict.sol\":2031:2046  milestoneNumber */\n      dup5\n        /* \"contracts/Conflict.sol\":2001:2012  newConflict */\n      dup2\n        /* \"contracts/Conflict.sol\":2001:2028  newConflict.milestoneNumber */\n      0x02\n      add\n        /* \"contracts/Conflict.sol\":2001:2046  newConflict.milestoneNumber = milestoneNumber */\n      dup2\n      swap1\n      sstore\n      pop\n        /* \"contracts/Conflict.sol\":2087:2103  serviceRequester */\n      dup4\n        /* \"contracts/Conflict.sol\":2056:2067  newConflict */\n      dup2\n        /* \"contracts/Conflict.sol\":2056:2084  newConflict.serviceRequester */\n      0x03\n      add\n      0x00\n        /* \"contracts/Conflict.sol\":2056:2103  newConflict.serviceRequester = serviceRequester */\n      0x0100\n      exp\n      dup2\n      sload\n      dup2\n      0xffffffffffffffffffffffffffffffffffffffff\n      mul\n      not\n      and\n      swap1\n      dup4\n      0xffffffffffffffffffffffffffffffffffffffff\n      and\n      mul\n      or\n      swap1\n      sstore\n      pop\n        /* \"contracts/Conflict.sol\":2143:2158  serviceProvider */\n      dup3\n        /* \"contracts/Conflict.sol\":2113:2124  newConflict */\n      dup2\n        /* \"contracts/Conflict.sol\":2113:2140  newConflict.serviceProvider */\n      0x04\n      add\n      0x00\n        /* \"contracts/Conflict.sol\":2113:2158  newConflict.serviceProvider = serviceProvider */\n      0x0100\n      exp\n      dup2\n      sload\n      dup2\n      0xffffffffffffffffffffffffffffffffffffffff\n      mul\n      not\n      and\n      swap1\n      dup4\n      0xffffffffffffffffffffffffffffffffffffffff\n      and\n      mul\n      or\n      swap1\n      sstore\n      pop\n        /* \"contracts/Conflict.sol\":2197:2219  ConflictStatus.pending */\n      0x01\n        /* \"contracts/Conflict.sol\":2168:2179  newConflict */\n      dup2\n        /* \"contracts/Conflict.sol\":2168:2194  newConflict.conflictstatus */\n      0x04\n      add\n      0x14\n        /* \"contracts/Conflict.sol\":2168:2219  newConflict.conflictstatus = ConflictStatus.pending */\n      0x0100\n      exp\n      dup2\n      sload\n      dup2\n      0xff\n      mul\n      not\n      and\n      swap1\n      dup4\n      0x02\n      dup2\n      gt\n      iszero\n      tag_59\n      jumpi\n      tag_60\n      tag_48\n      jump\t// in\n    tag_60:\n    tag_59:\n      mul\n      or\n      swap1\n      sstore\n      pop\n        /* \"contracts/Conflict.sol\":2250:2261  totalVoters */\n      dup2\n        /* \"contracts/Conflict.sol\":2229:2240  newConflict */\n      dup2\n        /* \"contracts/Conflict.sol\":2229:2247  newConflict.voters */\n      0x05\n      add\n        /* \"contracts/Conflict.sol\":2229:2261  newConflict.voters = totalVoters */\n      dup2\n      swap1\n      sstore\n      pop\n        /* \"contracts/Conflict.sol\":2300:2301  0 */\n      0x00\n        /* \"contracts/Conflict.sol\":2271:2282  newConflict */\n      dup2\n        /* \"contracts/Conflict.sol\":2271:2297  newConflict.votesCollected */\n      0x06\n      add\n        /* \"contracts/Conflict.sol\":2271:2301  newConflict.votesCollected = 0 */\n      dup2\n      swap1\n      sstore\n      pop\n        /* \"contracts/Conflict.sol\":2340:2341  0 */\n      0x00\n        /* \"contracts/Conflict.sol\":2311:2322  newConflict */\n      dup2\n        /* \"contracts/Conflict.sol\":2311:2337  newConflict.requesterVotes */\n      0x07\n      add\n        /* \"contracts/Conflict.sol\":2311:2341  newConflict.requesterVotes = 0 */\n      dup2\n      swap1\n      sstore\n      pop\n        /* \"contracts/Conflict.sol\":2379:2380  0 */\n      0x00\n        /* \"contracts/Conflict.sol\":2351:2362  newConflict */\n      dup2\n        /* \"contracts/Conflict.sol\":2351:2376  newConflict.providerVotes */\n      0x08\n      add\n        /* \"contracts/Conflict.sol\":2351:2380  newConflict.providerVotes = 0 */\n      dup2\n      swap1\n      sstore\n      pop\n        /* \"contracts/Conflict.sol\":2415:2419  true */\n      0x01\n        /* \"contracts/Conflict.sol\":2394:2405  newConflict */\n      dup2\n        /* \"contracts/Conflict.sol\":2394:2412  newConflict.exists */\n      0x09\n      add\n      0x00\n        /* \"contracts/Conflict.sol\":2394:2419  newConflict.exists = true */\n      0x0100\n      exp\n      dup2\n      sload\n      dup2\n      0xff\n      mul\n      not\n      and\n      swap1\n      dup4\n      iszero\n      iszero\n      mul\n      or\n      swap1\n      sstore\n      pop\n        /* \"contracts/Conflict.sol\":2450:2451  0 */\n      0x00\n        /* \"contracts/Conflict.sol\":2429:2440  newConflict */\n      dup2\n        /* \"contracts/Conflict.sol\":2429:2447  newConflict.result */\n      0x09\n      add\n      0x01\n        /* \"contracts/Conflict.sol\":2429:2451  newConflict.result = 0 */\n      0x0100\n      exp\n      dup2\n      sload\n      dup2\n      0xff\n      mul\n      not\n      and\n      swap1\n      dup4\n      0xff\n      and\n      mul\n      or\n      swap1\n      sstore\n      pop\n        /* \"contracts/Conflict.sol\":2467:2577  conflictCreated(projectNumber, serviceNumber, milestoneNumber, serviceRequester, serviceProvider, totalVoters) */\n      0xfa127411522a1139d16c2142db999e127aef2288bd98a0558006bb115666ab1b\n        /* \"contracts/Conflict.sol\":2483:2496  projectNumber */\n      dup8\n        /* \"contracts/Conflict.sol\":2498:2511  serviceNumber */\n      dup8\n        /* \"contracts/Conflict.sol\":2513:2528  milestoneNumber */\n      dup8\n        /* \"contracts/Conflict.sol\":2530:2546  serviceRequester */\n      dup8\n        /* \"contracts/Conflict.sol\":2548:2563  serviceProvider */\n      dup8\n        /* \"contracts/Conflict.sol\":2565:2576  totalVoters */\n      dup8\n        /* \"contracts/Conflict.sol\":2467:2577  conflictCreated(projectNumber, serviceNumber, milestoneNumber, serviceRequester, serviceProvider, totalVoters) */\n      mload(0x40)\n      tag_61\n      swap7\n      swap6\n      swap5\n      swap4\n      swap3\n      swap2\n      swap1\n      tag_62\n      jump\t// in\n    tag_61:\n      mload(0x40)\n      dup1\n      swap2\n      sub\n      swap1\n      log1\n        /* \"contracts/Conflict.sol\":1581:2584  {... */\n      pop\n        /* \"contracts/Conflict.sol\":1406:2584  function createConflict(uint256 projectNumber, uint256 serviceNumber, uint256 milestoneNumber, address serviceRequester, address serviceProvider,  uint256 totalVoters) public {... */\n      pop\n      pop\n      pop\n      pop\n      pop\n      pop\n      jump\t// out\n        /* \"contracts/Conflict.sol\":5709:5933  function getVotesforProvider(uint256 projectNumber, uint256 serviceNumber, uint256 milestoneNumber) public view returns (uint256) {... */\n    tag_27:\n        /* \"contracts/Conflict.sol\":5830:5837  uint256 */\n      0x00\n        /* \"contracts/Conflict.sol\":5856:5865  conflicts */\n      dup1\n        /* \"contracts/Conflict.sol\":5856:5880  conflicts[projectNumber] */\n      0x00\n        /* \"contracts/Conflict.sol\":5866:5879  projectNumber */\n      dup6\n        /* \"contracts/Conflict.sol\":5856:5880  conflicts[projectNumber] */\n      dup2\n      mstore\n      0x20\n      add\n      swap1\n      dup2\n      mstore\n      0x20\n      add\n      0x00\n      keccak256\n        /* \"contracts/Conflict.sol\":5856:5895  conflicts[projectNumber][serviceNumber] */\n      0x00\n        /* \"contracts/Conflict.sol\":5881:5894  serviceNumber */\n      dup5\n        /* \"contracts/Conflict.sol\":5856:5895  conflicts[projectNumber][serviceNumber] */\n      dup2\n      mstore\n      0x20\n      add\n      swap1\n      dup2\n      mstore\n      0x20\n      add\n      0x00\n      keccak256\n        /* \"contracts/Conflict.sol\":5856:5912  conflicts[projectNumber][serviceNumber][milestoneNumber] */\n      0x00\n        /* \"contracts/Conflict.sol\":5896:5911  milestoneNumber */\n      dup4\n        /* \"contracts/Conflict.sol\":5856:5912  conflicts[projectNumber][serviceNumber][milestoneNumber] */\n      dup2\n      mstore\n      0x20\n      add\n      swap1\n      dup2\n      mstore\n      0x20\n      add\n      0x00\n      keccak256\n        /* \"contracts/Conflict.sol\":5856:5926  conflicts[projectNumber][serviceNumber][milestoneNumber].providerVotes */\n      0x08\n      add\n      sload\n        /* \"contracts/Conflict.sol\":5849:5926  return conflicts[projectNumber][serviceNumber][milestoneNumber].providerVotes */\n      swap1\n      pop\n        /* \"contracts/Conflict.sol\":5709:5933  function getVotesforProvider(uint256 projectNumber, uint256 serviceNumber, uint256 milestoneNumber) public view returns (uint256) {... */\n      swap4\n      swap3\n      pop\n      pop\n      pop\n      jump\t// out\n        /* \"contracts/Conflict.sol\":2714:4344  function voteConflict(uint256 projectNumber, uint256 serviceNumber, uint256 milestoneNumber, address sender, uint8 vote) public {... */\n    tag_32:\n        /* \"contracts/Conflict.sol\":2937:2943  sender */\n      dup2\n        /* \"contracts/Conflict.sol\":2860:2943  conflicts[projectNumber][serviceNumber][milestoneNumber].serviceRequester != sender */\n      0xffffffffffffffffffffffffffffffffffffffff\n      and\n        /* \"contracts/Conflict.sol\":2860:2869  conflicts */\n      0x00\n        /* \"contracts/Conflict.sol\":2860:2884  conflicts[projectNumber] */\n      dup1\n        /* \"contracts/Conflict.sol\":2870:2883  projectNumber */\n      dup8\n        /* \"contracts/Conflict.sol\":2860:2884  conflicts[projectNumber] */\n      dup2\n      mstore\n      0x20\n      add\n      swap1\n      dup2\n      mstore\n      0x20\n      add\n      0x00\n      keccak256\n        /* \"contracts/Conflict.sol\":2860:2899  conflicts[projectNumber][serviceNumber] */\n      0x00\n        /* \"contracts/Conflict.sol\":2885:2898  serviceNumber */\n      dup7\n        /* \"contracts/Conflict.sol\":2860:2899  conflicts[projectNumber][serviceNumber] */\n      dup2\n      mstore\n      0x20\n      add\n      swap1\n      dup2\n      mstore\n      0x20\n      add\n      0x00\n      keccak256\n        /* \"contracts/Conflict.sol\":2860:2916  conflicts[projectNumber][serviceNumber][milestoneNumber] */\n      0x00\n        /* \"contracts/Conflict.sol\":2900:2915  milestoneNumber */\n      dup6\n        /* \"contracts/Conflict.sol\":2860:2916  conflicts[projectNumber][serviceNumber][milestoneNumber] */\n      dup2\n      mstore\n      0x20\n      add\n      swap1\n      dup2\n      mstore\n      0x20\n      add\n      0x00\n      keccak256\n        /* \"contracts/Conflict.sol\":2860:2933  conflicts[projectNumber][serviceNumber][milestoneNumber].serviceRequester */\n      0x03\n      add\n      0x00\n      swap1\n      sload\n      swap1\n      0x0100\n      exp\n      swap1\n      div\n      0xffffffffffffffffffffffffffffffffffffffff\n      and\n        /* \"contracts/Conflict.sol\":2860:2943  conflicts[projectNumber][serviceNumber][milestoneNumber].serviceRequester != sender */\n      0xffffffffffffffffffffffffffffffffffffffff\n      and\n      eq\n      iszero\n        /* \"contracts/Conflict.sol\":2852:2997  require(conflicts[projectNumber][serviceNumber][milestoneNumber].serviceRequester != sender , \"You raised this conflict. You cannot vote on it.\") */\n      tag_65\n      jumpi\n      mload(0x40)\n      0x08c379a000000000000000000000000000000000000000000000000000000000\n      dup2\n      mstore\n      0x04\n      add\n      tag_66\n      swap1\n      tag_67\n      jump\t// in\n    tag_66:\n      mload(0x40)\n      dup1\n      swap2\n      sub\n      swap1\n      revert\n    tag_65:\n        /* \"contracts/Conflict.sol\":3091:3097  sender */\n      dup2\n        /* \"contracts/Conflict.sol\":3015:3097  conflicts[projectNumber][serviceNumber][milestoneNumber].serviceProvider != sender */\n      0xffffffffffffffffffffffffffffffffffffffff\n      and\n        /* \"contracts/Conflict.sol\":3015:3024  conflicts */\n      0x00\n        /* \"contracts/Conflict.sol\":3015:3039  conflicts[projectNumber] */\n      dup1\n        /* \"contracts/Conflict.sol\":3025:3038  projectNumber */\n      dup8\n        /* \"contracts/Conflict.sol\":3015:3039  conflicts[projectNumber] */\n      dup2\n      mstore\n      0x20\n      add\n      swap1\n      dup2\n      mstore\n      0x20\n      add\n      0x00\n      keccak256\n        /* \"contracts/Conflict.sol\":3015:3054  conflicts[projectNumber][serviceNumber] */\n      0x00\n        /* \"contracts/Conflict.sol\":3040:3053  serviceNumber */\n      dup7\n        /* \"contracts/Conflict.sol\":3015:3054  conflicts[projectNumber][serviceNumber] */\n      dup2\n      mstore\n      0x20\n      add\n      swap1\n      dup2\n      mstore\n      0x20\n      add\n      0x00\n      keccak256\n        /* \"contracts/Conflict.sol\":3015:3071  conflicts[projectNumber][serviceNumber][milestoneNumber] */\n      0x00\n        /* \"contracts/Conflict.sol\":3055:3070  milestoneNumber */\n      dup6\n        /* \"contracts/Conflict.sol\":3015:3071  conflicts[projectNumber][serviceNumber][milestoneNumber] */\n      dup2\n      mstore\n      0x20\n      add\n      swap1\n      dup2\n      mstore\n      0x20\n      add\n      0x00\n      keccak256\n        /* \"contracts/Conflict.sol\":3015:3087  conflicts[projectNumber][serviceNumber][milestoneNumber].serviceProvider */\n      0x04\n      add\n      0x00\n      swap1\n      sload\n      swap1\n      0x0100\n      exp\n      swap1\n      div\n      0xffffffffffffffffffffffffffffffffffffffff\n      and\n        /* \"contracts/Conflict.sol\":3015:3097  conflicts[projectNumber][serviceNumber][milestoneNumber].serviceProvider != sender */\n      0xffffffffffffffffffffffffffffffffffffffff\n      and\n      eq\n      iszero\n        /* \"contracts/Conflict.sol\":3007:3159  require(conflicts[projectNumber][serviceNumber][milestoneNumber].serviceProvider != sender, \"You are involved in this conflict. You cannot vote on it.\") */\n      tag_68\n      jumpi\n      mload(0x40)\n      0x08c379a000000000000000000000000000000000000000000000000000000000\n      dup2\n      mstore\n      0x04\n      add\n      tag_69\n      swap1\n      tag_70\n      jump\t// in\n    tag_69:\n      mload(0x40)\n      dup1\n      swap2\n      sub\n      swap1\n      revert\n    tag_68:\n        /* \"contracts/Conflict.sol\":3260:3269  conflicts */\n      0x00\n        /* \"contracts/Conflict.sol\":3260:3284  conflicts[projectNumber] */\n      dup1\n        /* \"contracts/Conflict.sol\":3270:3283  projectNumber */\n      dup7\n        /* \"contracts/Conflict.sol\":3260:3284  conflicts[projectNumber] */\n      dup2\n      mstore\n      0x20\n      add\n      swap1\n      dup2\n      mstore\n      0x20\n      add\n      0x00\n      keccak256\n        /* \"contracts/Conflict.sol\":3260:3299  conflicts[projectNumber][serviceNumber] */\n      0x00\n        /* \"contracts/Conflict.sol\":3285:3298  serviceNumber */\n      dup6\n        /* \"contracts/Conflict.sol\":3260:3299  conflicts[projectNumber][serviceNumber] */\n      dup2\n      mstore\n      0x20\n      add\n      swap1\n      dup2\n      mstore\n      0x20\n      add\n      0x00\n      keccak256\n        /* \"contracts/Conflict.sol\":3260:3316  conflicts[projectNumber][serviceNumber][milestoneNumber] */\n      0x00\n        /* \"contracts/Conflict.sol\":3300:3315  milestoneNumber */\n      dup5\n        /* \"contracts/Conflict.sol\":3260:3316  conflicts[projectNumber][serviceNumber][milestoneNumber] */\n      dup2\n      mstore\n      0x20\n      add\n      swap1\n      dup2\n      mstore\n      0x20\n      add\n      0x00\n      keccak256\n        /* \"contracts/Conflict.sol\":3260:3323  conflicts[projectNumber][serviceNumber][milestoneNumber].voters */\n      0x05\n      add\n      sload\n        /* \"contracts/Conflict.sol\":3186:3195  conflicts */\n      0x00\n        /* \"contracts/Conflict.sol\":3186:3210  conflicts[projectNumber] */\n      dup1\n        /* \"contracts/Conflict.sol\":3196:3209  projectNumber */\n      dup8\n        /* \"contracts/Conflict.sol\":3186:3210  conflicts[projectNumber] */\n      dup2\n      mstore\n      0x20\n      add\n      swap1\n      dup2\n      mstore\n      0x20\n      add\n      0x00\n      keccak256\n        /* \"contracts/Conflict.sol\":3186:3225  conflicts[projectNumber][serviceNumber] */\n      0x00\n        /* \"contracts/Conflict.sol\":3211:3224  serviceNumber */\n      dup7\n        /* \"contracts/Conflict.sol\":3186:3225  conflicts[projectNumber][serviceNumber] */\n      dup2\n      mstore\n      0x20\n      add\n      swap1\n      dup2\n      mstore\n      0x20\n      add\n      0x00\n      keccak256\n        /* \"contracts/Conflict.sol\":3186:3242  conflicts[projectNumber][serviceNumber][milestoneNumber] */\n      0x00\n        /* \"contracts/Conflict.sol\":3226:3241  milestoneNumber */\n      dup6\n        /* \"contracts/Conflict.sol\":3186:3242  conflicts[projectNumber][serviceNumber][milestoneNumber] */\n      dup2\n      mstore\n      0x20\n      add\n      swap1\n      dup2\n      mstore\n      0x20\n      add\n      0x00\n      keccak256\n        /* \"contracts/Conflict.sol\":3186:3257  conflicts[projectNumber][serviceNumber][milestoneNumber].votesCollected */\n      0x06\n      add\n      sload\n        /* \"contracts/Conflict.sol\":3186:3323  conflicts[projectNumber][serviceNumber][milestoneNumber].votesCollected < conflicts[projectNumber][serviceNumber][milestoneNumber].voters */\n      lt\n        /* \"contracts/Conflict.sol\":3178:3360  require(conflicts[projectNumber][serviceNumber][milestoneNumber].votesCollected < conflicts[projectNumber][serviceNumber][milestoneNumber].voters, \"Enough votes have been collected\") */\n      tag_71\n      jumpi\n      mload(0x40)\n      0x08c379a000000000000000000000000000000000000000000000000000000000\n      dup2\n      mstore\n      0x04\n      add\n      tag_72\n      swap1\n      tag_73\n      jump\t// in\n    tag_72:\n      mload(0x40)\n      dup1\n      swap2\n      sub\n      swap1\n      revert\n    tag_71:\n        /* \"contracts/Conflict.sol\":3452:3453  0 */\n      0x00\n        /* \"contracts/Conflict.sol\":3378:3387  conflicts */\n      dup1\n        /* \"contracts/Conflict.sol\":3378:3402  conflicts[projectNumber] */\n      0x00\n        /* \"contracts/Conflict.sol\":3388:3401  projectNumber */\n      dup8\n        /* \"contracts/Conflict.sol\":3378:3402  conflicts[projectNumber] */\n      dup2\n      mstore\n      0x20\n      add\n      swap1\n      dup2\n      mstore\n      0x20\n      add\n      0x00\n      keccak256\n        /* \"contracts/Conflict.sol\":3378:3417  conflicts[projectNumber][serviceNumber] */\n      0x00\n        /* \"contracts/Conflict.sol\":3403:3416  serviceNumber */\n      dup7\n        /* \"contracts/Conflict.sol\":3378:3417  conflicts[projectNumber][serviceNumber] */\n      dup2\n      mstore\n      0x20\n      add\n      swap1\n      dup2\n      mstore\n      0x20\n      add\n      0x00\n      keccak256\n        /* \"contracts/Conflict.sol\":3378:3434  conflicts[projectNumber][serviceNumber][milestoneNumber] */\n      0x00\n        /* \"contracts/Conflict.sol\":3418:3433  milestoneNumber */\n      dup6\n        /* \"contracts/Conflict.sol\":3378:3434  conflicts[projectNumber][serviceNumber][milestoneNumber] */\n      dup2\n      mstore\n      0x20\n      add\n      swap1\n      dup2\n      mstore\n      0x20\n      add\n      0x00\n      keccak256\n        /* \"contracts/Conflict.sol\":3378:3440  conflicts[projectNumber][serviceNumber][milestoneNumber].votes */\n      0x0a\n      add\n        /* \"contracts/Conflict.sol\":3378:3448  conflicts[projectNumber][serviceNumber][milestoneNumber].votes[sender] */\n      0x00\n        /* \"contracts/Conflict.sol\":3441:3447  sender */\n      dup5\n        /* \"contracts/Conflict.sol\":3378:3448  conflicts[projectNumber][serviceNumber][milestoneNumber].votes[sender] */\n      0xffffffffffffffffffffffffffffffffffffffff\n      and\n      0xffffffffffffffffffffffffffffffffffffffff\n      and\n      dup2\n      mstore\n      0x20\n      add\n      swap1\n      dup2\n      mstore\n      0x20\n      add\n      0x00\n      keccak256\n      0x00\n      swap1\n      sload\n      swap1\n      0x0100\n      exp\n      swap1\n      div\n      0xff\n      and\n        /* \"contracts/Conflict.sol\":3378:3453  conflicts[projectNumber][serviceNumber][milestoneNumber].votes[sender] == 0 */\n      0xff\n      and\n      eq\n        /* \"contracts/Conflict.sol\":3370:3504  require(conflicts[projectNumber][serviceNumber][milestoneNumber].votes[sender] == 0 , \"You have already voted, you cannot vote again\") */\n      tag_74\n      jumpi\n      mload(0x40)\n      0x08c379a000000000000000000000000000000000000000000000000000000000\n      dup2\n      mstore\n      0x04\n      add\n      tag_75\n      swap1\n      tag_76\n      jump\t// in\n    tag_75:\n      mload(0x40)\n      dup1\n      swap2\n      sub\n      swap1\n      revert\n    tag_74:\n        /* \"contracts/Conflict.sol\":3530:3531  1 */\n      0x01\n        /* \"contracts/Conflict.sol\":3522:3526  vote */\n      dup2\n        /* \"contracts/Conflict.sol\":3522:3531  vote == 1 */\n      0xff\n      and\n      eq\n        /* \"contracts/Conflict.sol\":3522:3544  vote == 1 || vote == 2 */\n      dup1\n      tag_77\n      jumpi\n      pop\n        /* \"contracts/Conflict.sol\":3543:3544  2 */\n      0x02\n        /* \"contracts/Conflict.sol\":3535:3539  vote */\n      dup2\n        /* \"contracts/Conflict.sol\":3535:3544  vote == 2 */\n      0xff\n      and\n      eq\n        /* \"contracts/Conflict.sol\":3522:3544  vote == 1 || vote == 2 */\n    tag_77:\n        /* \"contracts/Conflict.sol\":3514:3636  require(vote == 1 || vote == 2, \"You have not input a right vote. You can either vote 1 for Requester or 2 for Provider.\") */\n      tag_78\n      jumpi\n      mload(0x40)\n      0x08c379a000000000000000000000000000000000000000000000000000000000\n      dup2\n      mstore\n      0x04\n      add\n      tag_79\n      swap1\n      tag_80\n      jump\t// in\n    tag_79:\n      mload(0x40)\n      dup1\n      swap2\n      sub\n      swap1\n      revert\n    tag_78:\n        /* \"contracts/Conflict.sol\":3647:3665  conflict storage C */\n      0x00\n        /* \"contracts/Conflict.sol\":3668:3677  conflicts */\n      dup1\n        /* \"contracts/Conflict.sol\":3668:3692  conflicts[projectNumber] */\n      0x00\n        /* \"contracts/Conflict.sol\":3678:3691  projectNumber */\n      dup8\n        /* \"contracts/Conflict.sol\":3668:3692  conflicts[projectNumber] */\n      dup2\n      mstore\n      0x20\n      add\n      swap1\n      dup2\n      mstore\n      0x20\n      add\n      0x00\n      keccak256\n        /* \"contracts/Conflict.sol\":3668:3707  conflicts[projectNumber][serviceNumber] */\n      0x00\n        /* \"contracts/Conflict.sol\":3693:3706  serviceNumber */\n      dup7\n        /* \"contracts/Conflict.sol\":3668:3707  conflicts[projectNumber][serviceNumber] */\n      dup2\n      mstore\n      0x20\n      add\n      swap1\n      dup2\n      mstore\n      0x20\n      add\n      0x00\n      keccak256\n        /* \"contracts/Conflict.sol\":3668:3724  conflicts[projectNumber][serviceNumber][milestoneNumber] */\n      0x00\n        /* \"contracts/Conflict.sol\":3708:3723  milestoneNumber */\n      dup6\n        /* \"contracts/Conflict.sol\":3668:3724  conflicts[projectNumber][serviceNumber][milestoneNumber] */\n      dup2\n      mstore\n      0x20\n      add\n      swap1\n      dup2\n      mstore\n      0x20\n      add\n      0x00\n      keccak256\n        /* \"contracts/Conflict.sol\":3647:3724  conflict storage C = conflicts[projectNumber][serviceNumber][milestoneNumber] */\n      swap1\n      pop\n        /* \"contracts/Conflict.sol\":3752:3756  vote */\n      dup2\n        /* \"contracts/Conflict.sol\":3734:3735  C */\n      dup2\n        /* \"contracts/Conflict.sol\":3734:3741  C.votes */\n      0x0a\n      add\n        /* \"contracts/Conflict.sol\":3734:3749  C.votes[sender] */\n      0x00\n        /* \"contracts/Conflict.sol\":3742:3748  sender */\n      dup6\n        /* \"contracts/Conflict.sol\":3734:3749  C.votes[sender] */\n      0xffffffffffffffffffffffffffffffffffffffff\n      and\n      0xffffffffffffffffffffffffffffffffffffffff\n      and\n      dup2\n      mstore\n      0x20\n      add\n      swap1\n      dup2\n      mstore\n      0x20\n      add\n      0x00\n      keccak256\n      0x00\n        /* \"contracts/Conflict.sol\":3734:3756  C.votes[sender] = vote */\n      0x0100\n      exp\n      dup2\n      sload\n      dup2\n      0xff\n      mul\n      not\n      and\n      swap1\n      dup4\n      0xff\n      and\n      mul\n      or\n      swap1\n      sstore\n      pop\n        /* \"contracts/Conflict.sol\":3779:3780  1 */\n      0x01\n        /* \"contracts/Conflict.sol\":3771:3775  vote */\n      dup3\n        /* \"contracts/Conflict.sol\":3771:3780  vote == 1 */\n      0xff\n      and\n      eq\n        /* \"contracts/Conflict.sol\":3767:3805  if (vote == 1) { C.requesterVotes++; } */\n      iszero\n      tag_81\n      jumpi\n        /* \"contracts/Conflict.sol\":3784:3785  C */\n      dup1\n        /* \"contracts/Conflict.sol\":3784:3800  C.requesterVotes */\n      0x07\n      add\n      0x00\n        /* \"contracts/Conflict.sol\":3784:3802  C.requesterVotes++ */\n      dup2\n      sload\n      dup1\n      swap3\n      swap2\n      swap1\n      tag_82\n      swap1\n      tag_83\n      jump\t// in\n    tag_82:\n      swap2\n      swap1\n      pop\n      sstore\n      pop\n        /* \"contracts/Conflict.sol\":3767:3805  if (vote == 1) { C.requesterVotes++; } */\n    tag_81:\n        /* \"contracts/Conflict.sol\":3826:3827  2 */\n      0x02\n        /* \"contracts/Conflict.sol\":3818:3822  vote */\n      dup3\n        /* \"contracts/Conflict.sol\":3818:3827  vote == 2 */\n      0xff\n      and\n      eq\n        /* \"contracts/Conflict.sol\":3814:3851  if (vote == 2) { C.providerVotes++; } */\n      iszero\n      tag_84\n      jumpi\n        /* \"contracts/Conflict.sol\":3831:3832  C */\n      dup1\n        /* \"contracts/Conflict.sol\":3831:3846  C.providerVotes */\n      0x08\n      add\n      0x00\n        /* \"contracts/Conflict.sol\":3831:3848  C.providerVotes++ */\n      dup2\n      sload\n      dup1\n      swap3\n      swap2\n      swap1\n      tag_85\n      swap1\n      tag_83\n      jump\t// in\n    tag_85:\n      swap2\n      swap1\n      pop\n      sstore\n      pop\n        /* \"contracts/Conflict.sol\":3814:3851  if (vote == 2) { C.providerVotes++; } */\n    tag_84:\n        /* \"contracts/Conflict.sol\":3860:3861  C */\n      dup1\n        /* \"contracts/Conflict.sol\":3860:3876  C.votesCollected */\n      0x06\n      add\n      0x00\n        /* \"contracts/Conflict.sol\":3860:3878  C.votesCollected++ */\n      dup2\n      sload\n      dup1\n      swap3\n      swap2\n      swap1\n      tag_86\n      swap1\n      tag_83\n      jump\t// in\n    tag_86:\n      swap2\n      swap1\n      pop\n      sstore\n      pop\n        /* \"contracts/Conflict.sol\":3894:3972  conflictVoted(projectNumber, serviceNumber, milestoneNumber, msg.sender, vote) */\n      0x20211b974adbe11ce3687d51504ce7ef1fcfbb9c00405ba7aca7b283903f345a\n        /* \"contracts/Conflict.sol\":3908:3921  projectNumber */\n      dup7\n        /* \"contracts/Conflict.sol\":3923:3936  serviceNumber */\n      dup7\n        /* \"contracts/Conflict.sol\":3938:3953  milestoneNumber */\n      dup7\n        /* \"contracts/Conflict.sol\":3955:3965  msg.sender */\n      caller\n        /* \"contracts/Conflict.sol\":3967:3971  vote */\n      dup7\n        /* \"contracts/Conflict.sol\":3894:3972  conflictVoted(projectNumber, serviceNumber, milestoneNumber, msg.sender, vote) */\n      mload(0x40)\n      tag_87\n      swap6\n      swap5\n      swap4\n      swap3\n      swap2\n      swap1\n      tag_88\n      jump\t// in\n    tag_87:\n      mload(0x40)\n      dup1\n      swap2\n      sub\n      swap1\n      log1\n        /* \"contracts/Conflict.sol\":4007:4008  C */\n      dup1\n        /* \"contracts/Conflict.sol\":4007:4015  C.voters */\n      0x05\n      add\n      sload\n        /* \"contracts/Conflict.sol\":3987:3988  C */\n      dup2\n        /* \"contracts/Conflict.sol\":3987:4003  C.votesCollected */\n      0x06\n      add\n      sload\n        /* \"contracts/Conflict.sol\":3987:4015  C.votesCollected == C.voters */\n      eq\n        /* \"contracts/Conflict.sol\":3983:4338  if (C.votesCollected == C.voters) {... */\n      iszero\n      tag_89\n      jumpi\n        /* \"contracts/Conflict.sol\":4053:4054  C */\n      dup1\n        /* \"contracts/Conflict.sol\":4053:4069  C.requesterVotes */\n      0x07\n      add\n      sload\n        /* \"contracts/Conflict.sol\":4035:4036  C */\n      dup2\n        /* \"contracts/Conflict.sol\":4035:4050  C.providerVotes */\n      0x08\n      add\n      sload\n        /* \"contracts/Conflict.sol\":4035:4069  C.providerVotes > C.requesterVotes */\n      gt\n        /* \"contracts/Conflict.sol\":4031:4120  if (C.providerVotes > C.requesterVotes) {C.result = 2; }... */\n      iszero\n      tag_90\n      jumpi\n        /* \"contracts/Conflict.sol\":4083:4084  2 */\n      0x02\n        /* \"contracts/Conflict.sol\":4072:4073  C */\n      dup2\n        /* \"contracts/Conflict.sol\":4072:4080  C.result */\n      0x09\n      add\n      0x01\n        /* \"contracts/Conflict.sol\":4072:4084  C.result = 2 */\n      0x0100\n      exp\n      dup2\n      sload\n      dup2\n      0xff\n      mul\n      not\n      and\n      swap1\n      dup4\n      0xff\n      and\n      mul\n      or\n      swap1\n      sstore\n      pop\n        /* \"contracts/Conflict.sol\":4031:4120  if (C.providerVotes > C.requesterVotes) {C.result = 2; }... */\n      jump(tag_91)\n    tag_90:\n        /* \"contracts/Conflict.sol\":4117:4118  1 */\n      0x01\n        /* \"contracts/Conflict.sol\":4106:4107  C */\n      dup2\n        /* \"contracts/Conflict.sol\":4106:4114  C.result */\n      0x09\n      add\n      0x01\n        /* \"contracts/Conflict.sol\":4106:4118  C.result = 1 */\n      0x0100\n      exp\n      dup2\n      sload\n      dup2\n      0xff\n      mul\n      not\n      and\n      swap1\n      dup4\n      0xff\n      and\n      mul\n      or\n      swap1\n      sstore\n      pop\n        /* \"contracts/Conflict.sol\":4031:4120  if (C.providerVotes > C.requesterVotes) {C.result = 2; }... */\n    tag_91:\n        /* \"contracts/Conflict.sol\":4212:4236  ConflictStatus.completed */\n      0x02\n        /* \"contracts/Conflict.sol\":4193:4194  C */\n      dup2\n        /* \"contracts/Conflict.sol\":4193:4209  C.conflictstatus */\n      0x04\n      add\n      0x14\n        /* \"contracts/Conflict.sol\":4193:4236  C.conflictstatus = ConflictStatus.completed */\n      0x0100\n      exp\n      dup2\n      sload\n      dup2\n      0xff\n      mul\n      not\n      and\n      swap1\n      dup4\n      0x02\n      dup2\n      gt\n      iszero\n      tag_92\n      jumpi\n      tag_93\n      tag_48\n      jump\t// in\n    tag_93:\n    tag_92:\n      mul\n      or\n      swap1\n      sstore\n      pop\n        /* \"contracts/Conflict.sol\":4256:4327  conflictResult(projectNumber, serviceNumber, milestoneNumber, C.result) */\n      0xe59fdbc65a5dd63c529717c2a71d04b136038f05301755de242dd05990c02814\n        /* \"contracts/Conflict.sol\":4271:4284  projectNumber */\n      dup7\n        /* \"contracts/Conflict.sol\":4286:4299  serviceNumber */\n      dup7\n        /* \"contracts/Conflict.sol\":4301:4316  milestoneNumber */\n      dup7\n        /* \"contracts/Conflict.sol\":4318:4319  C */\n      dup5\n        /* \"contracts/Conflict.sol\":4318:4326  C.result */\n      0x09\n      add\n      0x01\n      swap1\n      sload\n      swap1\n      0x0100\n      exp\n      swap1\n      div\n      0xff\n      and\n        /* \"contracts/Conflict.sol\":4256:4327  conflictResult(projectNumber, serviceNumber, milestoneNumber, C.result) */\n      mload(0x40)\n      tag_94\n      swap5\n      swap4\n      swap3\n      swap2\n      swap1\n      tag_95\n      jump\t// in\n    tag_94:\n      mload(0x40)\n      dup1\n      swap2\n      sub\n      swap1\n      log1\n        /* \"contracts/Conflict.sol\":3983:4338  if (C.votesCollected == C.voters) {... */\n    tag_89:\n        /* \"contracts/Conflict.sol\":2842:4344  {... */\n      pop\n        /* \"contracts/Conflict.sol\":2714:4344  function voteConflict(uint256 projectNumber, uint256 serviceNumber, uint256 milestoneNumber, address sender, uint8 vote) public {... */\n      pop\n      pop\n      pop\n      pop\n      pop\n      jump\t// out\n        /* \"contracts/Conflict.sol\":5012:5242  function getConflictStatus(uint256 projectNumber, uint256 serviceNumber, uint256 milestoneNumber) public view returns (ConflictStatus) {... */\n    tag_35:\n        /* \"contracts/Conflict.sol\":5131:5145  ConflictStatus */\n      0x00\n        /* \"contracts/Conflict.sol\":5164:5173  conflicts */\n      dup1\n        /* \"contracts/Conflict.sol\":5164:5188  conflicts[projectNumber] */\n      0x00\n        /* \"contracts/Conflict.sol\":5174:5187  projectNumber */\n      dup6\n        /* \"contracts/Conflict.sol\":5164:5188  conflicts[projectNumber] */\n      dup2\n      mstore\n      0x20\n      add\n      swap1\n      dup2\n      mstore\n      0x20\n      add\n      0x00\n      keccak256\n        /* \"contracts/Conflict.sol\":5164:5203  conflicts[projectNumber][serviceNumber] */\n      0x00\n        /* \"contracts/Conflict.sol\":5189:5202  serviceNumber */\n      dup5\n        /* \"contracts/Conflict.sol\":5164:5203  conflicts[projectNumber][serviceNumber] */\n      dup2\n      mstore\n      0x20\n      add\n      swap1\n      dup2\n      mstore\n      0x20\n      add\n      0x00\n      keccak256\n        /* \"contracts/Conflict.sol\":5164:5220  conflicts[projectNumber][serviceNumber][milestoneNumber] */\n      0x00\n        /* \"contracts/Conflict.sol\":5204:5219  milestoneNumber */\n      dup4\n        /* \"contracts/Conflict.sol\":5164:5220  conflicts[projectNumber][serviceNumber][milestoneNumber] */\n      dup2\n      mstore\n      0x20\n      add\n      swap1\n      dup2\n      mstore\n      0x20\n      add\n      0x00\n      keccak256\n        /* \"contracts/Conflict.sol\":5164:5235  conflicts[projectNumber][serviceNumber][milestoneNumber].conflictstatus */\n      0x04\n      add\n      0x14\n      swap1\n      sload\n      swap1\n      0x0100\n      exp\n      swap1\n      div\n      0xff\n      and\n        /* \"contracts/Conflict.sol\":5157:5235  return conflicts[projectNumber][serviceNumber][milestoneNumber].conflictstatus */\n      swap1\n      pop\n        /* \"contracts/Conflict.sol\":5012:5242  function getConflictStatus(uint256 projectNumber, uint256 serviceNumber, uint256 milestoneNumber) public view returns (ConflictStatus) {... */\n      swap4\n      swap3\n      pop\n      pop\n      pop\n      jump\t// out\n        /* \"contracts/Conflict.sol\":5477:5703  function getVotesforRequester(uint256 projectNumber, uint256 serviceNumber, uint256 milestoneNumber) public view returns (uint256) {... */\n    tag_40:\n        /* \"contracts/Conflict.sol\":5599:5606  uint256 */\n      0x00\n        /* \"contracts/Conflict.sol\":5625:5634  conflicts */\n      dup1\n        /* \"contracts/Conflict.sol\":5625:5649  conflicts[projectNumber] */\n      0x00\n        /* \"contracts/Conflict.sol\":5635:5648  projectNumber */\n      dup6\n        /* \"contracts/Conflict.sol\":5625:5649  conflicts[projectNumber] */\n      dup2\n      mstore\n      0x20\n      add\n      swap1\n      dup2\n      mstore\n      0x20\n      add\n      0x00\n      keccak256\n        /* \"contracts/Conflict.sol\":5625:5664  conflicts[projectNumber][serviceNumber] */\n      0x00\n        /* \"contracts/Conflict.sol\":5650:5663  serviceNumber */\n      dup5\n        /* \"contracts/Conflict.sol\":5625:5664  conflicts[projectNumber][serviceNumber] */\n      dup2\n      mstore\n      0x20\n      add\n      swap1\n      dup2\n      mstore\n      0x20\n      add\n      0x00\n      keccak256\n        /* \"contracts/Conflict.sol\":5625:5681  conflicts[projectNumber][serviceNumber][milestoneNumber] */\n      0x00\n        /* \"contracts/Conflict.sol\":5665:5680  milestoneNumber */\n      dup4\n        /* \"contracts/Conflict.sol\":5625:5681  conflicts[projectNumber][serviceNumber][milestoneNumber] */\n      dup2\n      mstore\n      0x20\n      add\n      swap1\n      dup2\n      mstore\n      0x20\n      add\n      0x00\n      keccak256\n        /* \"contracts/Conflict.sol\":5625:5696  conflicts[projectNumber][serviceNumber][milestoneNumber].requesterVotes */\n      0x07\n      add\n      sload\n        /* \"contracts/Conflict.sol\":5618:5696  return conflicts[projectNumber][serviceNumber][milestoneNumber].requesterVotes */\n      swap1\n      pop\n        /* \"contracts/Conflict.sol\":5477:5703  function getVotesforRequester(uint256 projectNumber, uint256 serviceNumber, uint256 milestoneNumber) public view returns (uint256) {... */\n      swap4\n      swap3\n      pop\n      pop\n      pop\n      jump\t// out\n        /* \"#utility.yul\":7:146   */\n    tag_99:\n        /* \"#utility.yul\":53:58   */\n      0x00\n        /* \"#utility.yul\":91:97   */\n      dup2\n        /* \"#utility.yul\":78:98   */\n      calldataload\n        /* \"#utility.yul\":69:98   */\n      swap1\n      pop\n        /* \"#utility.yul\":107:140   */\n      tag_101\n        /* \"#utility.yul\":134:139   */\n      dup2\n        /* \"#utility.yul\":107:140   */\n      tag_102\n      jump\t// in\n    tag_101:\n        /* \"#utility.yul\":7:146   */\n      swap3\n      swap2\n      pop\n      pop\n      jump\t// out\n        /* \"#utility.yul\":152:291   */\n    tag_103:\n        /* \"#utility.yul\":198:203   */\n      0x00\n        /* \"#utility.yul\":236:242   */\n      dup2\n        /* \"#utility.yul\":223:243   */\n      calldataload\n        /* \"#utility.yul\":214:243   */\n      swap1\n      pop\n        /* \"#utility.yul\":252:285   */\n      tag_105\n        /* \"#utility.yul\":279:284   */\n      dup2\n        /* \"#utility.yul\":252:285   */\n      tag_106\n      jump\t// in\n    tag_105:\n        /* \"#utility.yul\":152:291   */\n      swap3\n      swap2\n      pop\n      pop\n      jump\t// out\n        /* \"#utility.yul\":297:432   */\n    tag_107:\n        /* \"#utility.yul\":341:346   */\n      0x00\n        /* \"#utility.yul\":379:385   */\n      dup2\n        /* \"#utility.yul\":366:386   */\n      calldataload\n        /* \"#utility.yul\":357:386   */\n      swap1\n      pop\n        /* \"#utility.yul\":395:426   */\n      tag_109\n        /* \"#utility.yul\":420:425   */\n      dup2\n        /* \"#utility.yul\":395:426   */\n      tag_110\n      jump\t// in\n    tag_109:\n        /* \"#utility.yul\":297:432   */\n      swap3\n      swap2\n      pop\n      pop\n      jump\t// out\n        /* \"#utility.yul\":438:1057   */\n    tag_13:\n        /* \"#utility.yul\":515:521   */\n      0x00\n        /* \"#utility.yul\":523:529   */\n      dup1\n        /* \"#utility.yul\":531:537   */\n      0x00\n        /* \"#utility.yul\":580:582   */\n      0x60\n        /* \"#utility.yul\":568:577   */\n      dup5\n        /* \"#utility.yul\":559:566   */\n      dup7\n        /* \"#utility.yul\":555:578   */\n      sub\n        /* \"#utility.yul\":551:583   */\n      slt\n        /* \"#utility.yul\":548:667   */\n      iszero\n      tag_112\n      jumpi\n        /* \"#utility.yul\":586:665   */\n      tag_113\n      tag_114\n      jump\t// in\n    tag_113:\n        /* \"#utility.yul\":548:667   */\n    tag_112:\n        /* \"#utility.yul\":706:707   */\n      0x00\n        /* \"#utility.yul\":731:784   */\n      tag_115\n        /* \"#utility.yul\":776:783   */\n      dup7\n        /* \"#utility.yul\":767:773   */\n      dup3\n        /* \"#utility.yul\":756:765   */\n      dup8\n        /* \"#utility.yul\":752:774   */\n      add\n        /* \"#utility.yul\":731:784   */\n      tag_103\n      jump\t// in\n    tag_115:\n        /* \"#utility.yul\":721:784   */\n      swap4\n      pop\n        /* \"#utility.yul\":677:794   */\n      pop\n        /* \"#utility.yul\":833:835   */\n      0x20\n        /* \"#utility.yul\":859:912   */\n      tag_116\n        /* \"#utility.yul\":904:911   */\n      dup7\n        /* \"#utility.yul\":895:901   */\n      dup3\n        /* \"#utility.yul\":884:893   */\n      dup8\n        /* \"#utility.yul\":880:902   */\n      add\n        /* \"#utility.yul\":859:912   */\n      tag_103\n      jump\t// in\n    tag_116:\n        /* \"#utility.yul\":849:912   */\n      swap3\n      pop\n        /* \"#utility.yul\":804:922   */\n      pop\n        /* \"#utility.yul\":961:963   */\n      0x40\n        /* \"#utility.yul\":987:1040   */\n      tag_117\n        /* \"#utility.yul\":1032:1039   */\n      dup7\n        /* \"#utility.yul\":1023:1029   */\n      dup3\n        /* \"#utility.yul\":1012:1021   */\n      dup8\n        /* \"#utility.yul\":1008:1030   */\n      add\n        /* \"#utility.yul\":987:1040   */\n      tag_103\n      jump\t// in\n    tag_117:\n        /* \"#utility.yul\":977:1040   */\n      swap2\n      pop\n        /* \"#utility.yul\":932:1050   */\n      pop\n        /* \"#utility.yul\":438:1057   */\n      swap3\n      pop\n      swap3\n      pop\n      swap3\n      jump\t// out\n        /* \"#utility.yul\":1063:2120   */\n    tag_23:\n        /* \"#utility.yul\":1167:1173   */\n      0x00\n        /* \"#utility.yul\":1175:1181   */\n      dup1\n        /* \"#utility.yul\":1183:1189   */\n      0x00\n        /* \"#utility.yul\":1191:1197   */\n      dup1\n        /* \"#utility.yul\":1199:1205   */\n      0x00\n        /* \"#utility.yul\":1207:1213   */\n      dup1\n        /* \"#utility.yul\":1256:1259   */\n      0xc0\n        /* \"#utility.yul\":1244:1253   */\n      dup8\n        /* \"#utility.yul\":1235:1242   */\n      dup10\n        /* \"#utility.yul\":1231:1254   */\n      sub\n        /* \"#utility.yul\":1227:1260   */\n      slt\n        /* \"#utility.yul\":1224:1344   */\n      iszero\n      tag_119\n      jumpi\n        /* \"#utility.yul\":1263:1342   */\n      tag_120\n      tag_114\n      jump\t// in\n    tag_120:\n        /* \"#utility.yul\":1224:1344   */\n    tag_119:\n        /* \"#utility.yul\":1383:1384   */\n      0x00\n        /* \"#utility.yul\":1408:1461   */\n      tag_121\n        /* \"#utility.yul\":1453:1460   */\n      dup10\n        /* \"#utility.yul\":1444:1450   */\n      dup3\n        /* \"#utility.yul\":1433:1442   */\n      dup11\n        /* \"#utility.yul\":1429:1451   */\n      add\n        /* \"#utility.yul\":1408:1461   */\n      tag_103\n      jump\t// in\n    tag_121:\n        /* \"#utility.yul\":1398:1461   */\n      swap7\n      pop\n        /* \"#utility.yul\":1354:1471   */\n      pop\n        /* \"#utility.yul\":1510:1512   */\n      0x20\n        /* \"#utility.yul\":1536:1589   */\n      tag_122\n        /* \"#utility.yul\":1581:1588   */\n      dup10\n        /* \"#utility.yul\":1572:1578   */\n      dup3\n        /* \"#utility.yul\":1561:1570   */\n      dup11\n        /* \"#utility.yul\":1557:1579   */\n      add\n        /* \"#utility.yul\":1536:1589   */\n      tag_103\n      jump\t// in\n    tag_122:\n        /* \"#utility.yul\":1526:1589   */\n      swap6\n      pop\n        /* \"#utility.yul\":1481:1599   */\n      pop\n        /* \"#utility.yul\":1638:1640   */\n      0x40\n        /* \"#utility.yul\":1664:1717   */\n      tag_123\n        /* \"#utility.yul\":1709:1716   */\n      dup10\n        /* \"#utility.yul\":1700:1706   */\n      dup3\n        /* \"#utility.yul\":1689:1698   */\n      dup11\n        /* \"#utility.yul\":1685:1707   */\n      add\n        /* \"#utility.yul\":1664:1717   */\n      tag_103\n      jump\t// in\n    tag_123:\n        /* \"#utility.yul\":1654:1717   */\n      swap5\n      pop\n        /* \"#utility.yul\":1609:1727   */\n      pop\n        /* \"#utility.yul\":1766:1768   */\n      0x60\n        /* \"#utility.yul\":1792:1845   */\n      tag_124\n        /* \"#utility.yul\":1837:1844   */\n      dup10\n        /* \"#utility.yul\":1828:1834   */\n      dup3\n        /* \"#utility.yul\":1817:1826   */\n      dup11\n        /* \"#utility.yul\":1813:1835   */\n      add\n        /* \"#utility.yul\":1792:1845   */\n      tag_99\n      jump\t// in\n    tag_124:\n        /* \"#utility.yul\":1782:1845   */\n      swap4\n      pop\n        /* \"#utility.yul\":1737:1855   */\n      pop\n        /* \"#utility.yul\":1894:1897   */\n      0x80\n        /* \"#utility.yul\":1921:1974   */\n      tag_125\n        /* \"#utility.yul\":1966:1973   */\n      dup10\n        /* \"#utility.yul\":1957:1963   */\n      dup3\n        /* \"#utility.yul\":1946:1955   */\n      dup11\n        /* \"#utility.yul\":1942:1964   */\n      add\n        /* \"#utility.yul\":1921:1974   */\n      tag_99\n      jump\t// in\n    tag_125:\n        /* \"#utility.yul\":1911:1974   */\n      swap3\n      pop\n        /* \"#utility.yul\":1865:1984   */\n      pop\n        /* \"#utility.yul\":2023:2026   */\n      0xa0\n        /* \"#utility.yul\":2050:2103   */\n      tag_126\n        /* \"#utility.yul\":2095:2102   */\n      dup10\n        /* \"#utility.yul\":2086:2092   */\n      dup3\n        /* \"#utility.yul\":2075:2084   */\n      dup11\n        /* \"#utility.yul\":2071:2093   */\n      add\n        /* \"#utility.yul\":2050:2103   */\n      tag_103\n      jump\t// in\n    tag_126:\n        /* \"#utility.yul\":2040:2103   */\n      swap2\n      pop\n        /* \"#utility.yul\":1994:2113   */\n      pop\n        /* \"#utility.yul\":1063:2120   */\n      swap3\n      swap6\n      pop\n      swap3\n      swap6\n      pop\n      swap3\n      swap6\n      jump\t// out\n        /* \"#utility.yul\":2126:3033   */\n    tag_31:\n        /* \"#utility.yul\":2219:2225   */\n      0x00\n        /* \"#utility.yul\":2227:2233   */\n      dup1\n        /* \"#utility.yul\":2235:2241   */\n      0x00\n        /* \"#utility.yul\":2243:2249   */\n      dup1\n        /* \"#utility.yul\":2251:2257   */\n      0x00\n        /* \"#utility.yul\":2300:2303   */\n      0xa0\n        /* \"#utility.yul\":2288:2297   */\n      dup7\n        /* \"#utility.yul\":2279:2286   */\n      dup9\n        /* \"#utility.yul\":2275:2298   */\n      sub\n        /* \"#utility.yul\":2271:2304   */\n      slt\n        /* \"#utility.yul\":2268:2388   */\n      iszero\n      tag_128\n      jumpi\n        /* \"#utility.yul\":2307:2386   */\n      tag_129\n      tag_114\n      jump\t// in\n    tag_129:\n        /* \"#utility.yul\":2268:2388   */\n    tag_128:\n        /* \"#utility.yul\":2427:2428   */\n      0x00\n        /* \"#utility.yul\":2452:2505   */\n      tag_130\n        /* \"#utility.yul\":2497:2504   */\n      dup9\n        /* \"#utility.yul\":2488:2494   */\n      dup3\n        /* \"#utility.yul\":2477:2486   */\n      dup10\n        /* \"#utility.yul\":2473:2495   */\n      add\n        /* \"#utility.yul\":2452:2505   */\n      tag_103\n      jump\t// in\n    tag_130:\n        /* \"#utility.yul\":2442:2505   */\n      swap6\n      pop\n        /* \"#utility.yul\":2398:2515   */\n      pop\n        /* \"#utility.yul\":2554:2556   */\n      0x20\n        /* \"#utility.yul\":2580:2633   */\n      tag_131\n        /* \"#utility.yul\":2625:2632   */\n      dup9\n        /* \"#utility.yul\":2616:2622   */\n      dup3\n        /* \"#utility.yul\":2605:2614   */\n      dup10\n        /* \"#utility.yul\":2601:2623   */\n      add\n        /* \"#utility.yul\":2580:2633   */\n      tag_103\n      jump\t// in\n    tag_131:\n        /* \"#utility.yul\":2570:2633   */\n      swap5\n      pop\n        /* \"#utility.yul\":2525:2643   */\n      pop\n        /* \"#utility.yul\":2682:2684   */\n      0x40\n        /* \"#utility.yul\":2708:2761   */\n      tag_132\n        /* \"#utility.yul\":2753:2760   */\n      dup9\n        /* \"#utility.yul\":2744:2750   */\n      dup3\n        /* \"#utility.yul\":2733:2742   */\n      dup10\n        /* \"#utility.yul\":2729:2751   */\n      add\n        /* \"#utility.yul\":2708:2761   */\n      tag_103\n      jump\t// in\n    tag_132:\n        /* \"#utility.yul\":2698:2761   */\n      swap4\n      pop\n        /* \"#utility.yul\":2653:2771   */\n      pop\n        /* \"#utility.yul\":2810:2812   */\n      0x60\n        /* \"#utility.yul\":2836:2889   */\n      tag_133\n        /* \"#utility.yul\":2881:2888   */\n      dup9\n        /* \"#utility.yul\":2872:2878   */\n      dup3\n        /* \"#utility.yul\":2861:2870   */\n      dup10\n        /* \"#utility.yul\":2857:2879   */\n      add\n        /* \"#utility.yul\":2836:2889   */\n      tag_99\n      jump\t// in\n    tag_133:\n        /* \"#utility.yul\":2826:2889   */\n      swap3\n      pop\n        /* \"#utility.yul\":2781:2899   */\n      pop\n        /* \"#utility.yul\":2938:2941   */\n      0x80\n        /* \"#utility.yul\":2965:3016   */\n      tag_134\n        /* \"#utility.yul\":3008:3015   */\n      dup9\n        /* \"#utility.yul\":2999:3005   */\n      dup3\n        /* \"#utility.yul\":2988:2997   */\n      dup10\n        /* \"#utility.yul\":2984:3006   */\n      add\n        /* \"#utility.yul\":2965:3016   */\n      tag_107\n      jump\t// in\n    tag_134:\n        /* \"#utility.yul\":2955:3016   */\n      swap2\n      pop\n        /* \"#utility.yul\":2909:3026   */\n      pop\n        /* \"#utility.yul\":2126:3033   */\n      swap3\n      swap6\n      pop\n      swap3\n      swap6\n      swap1\n      swap4\n      pop\n      jump\t// out\n        /* \"#utility.yul\":3039:3157   */\n    tag_135:\n        /* \"#utility.yul\":3126:3150   */\n      tag_137\n        /* \"#utility.yul\":3144:3149   */\n      dup2\n        /* \"#utility.yul\":3126:3150   */\n      tag_138\n      jump\t// in\n    tag_137:\n        /* \"#utility.yul\":3121:3124   */\n      dup3\n        /* \"#utility.yul\":3114:3151   */\n      mstore\n        /* \"#utility.yul\":3039:3157   */\n      pop\n      pop\n      jump\t// out\n        /* \"#utility.yul\":3163:3326   */\n    tag_139:\n        /* \"#utility.yul\":3266:3319   */\n      tag_141\n        /* \"#utility.yul\":3313:3318   */\n      dup2\n        /* \"#utility.yul\":3266:3319   */\n      tag_142\n      jump\t// in\n    tag_141:\n        /* \"#utility.yul\":3261:3264   */\n      dup3\n        /* \"#utility.yul\":3254:3320   */\n      mstore\n        /* \"#utility.yul\":3163:3326   */\n      pop\n      pop\n      jump\t// out\n        /* \"#utility.yul\":3332:3698   */\n    tag_143:\n        /* \"#utility.yul\":3474:3477   */\n      0x00\n        /* \"#utility.yul\":3495:3562   */\n      tag_145\n        /* \"#utility.yul\":3559:3561   */\n      0x57\n        /* \"#utility.yul\":3554:3557   */\n      dup4\n        /* \"#utility.yul\":3495:3562   */\n      tag_146\n      jump\t// in\n    tag_145:\n        /* \"#utility.yul\":3488:3562   */\n      swap2\n      pop\n        /* \"#utility.yul\":3571:3664   */\n      tag_147\n        /* \"#utility.yul\":3660:3663   */\n      dup3\n        /* \"#utility.yul\":3571:3664   */\n      tag_148\n      jump\t// in\n    tag_147:\n        /* \"#utility.yul\":3689:3691   */\n      0x60\n        /* \"#utility.yul\":3684:3687   */\n      dup3\n        /* \"#utility.yul\":3680:3692   */\n      add\n        /* \"#utility.yul\":3673:3692   */\n      swap1\n      pop\n        /* \"#utility.yul\":3332:3698   */\n      swap2\n      swap1\n      pop\n      jump\t// out\n        /* \"#utility.yul\":3704:4070   */\n    tag_149:\n        /* \"#utility.yul\":3846:3849   */\n      0x00\n        /* \"#utility.yul\":3867:3934   */\n      tag_151\n        /* \"#utility.yul\":3931:3933   */\n      0x2d\n        /* \"#utility.yul\":3926:3929   */\n      dup4\n        /* \"#utility.yul\":3867:3934   */\n      tag_146\n      jump\t// in\n    tag_151:\n        /* \"#utility.yul\":3860:3934   */\n      swap2\n      pop\n        /* \"#utility.yul\":3943:4036   */\n      tag_152\n        /* \"#utility.yul\":4032:4035   */\n      dup3\n        /* \"#utility.yul\":3943:4036   */\n      tag_153\n      jump\t// in\n    tag_152:\n        /* \"#utility.yul\":4061:4063   */\n      0x40\n        /* \"#utility.yul\":4056:4059   */\n      dup3\n        /* \"#utility.yul\":4052:4064   */\n      add\n        /* \"#utility.yul\":4045:4064   */\n      swap1\n      pop\n        /* \"#utility.yul\":3704:4070   */\n      swap2\n      swap1\n      pop\n      jump\t// out\n        /* \"#utility.yul\":4076:4442   */\n    tag_154:\n        /* \"#utility.yul\":4218:4221   */\n      0x00\n        /* \"#utility.yul\":4239:4306   */\n      tag_156\n        /* \"#utility.yul\":4303:4305   */\n      0x30\n        /* \"#utility.yul\":4298:4301   */\n      dup4\n        /* \"#utility.yul\":4239:4306   */\n      tag_146\n      jump\t// in\n    tag_156:\n        /* \"#utility.yul\":4232:4306   */\n      swap2\n      pop\n        /* \"#utility.yul\":4315:4408   */\n      tag_157\n        /* \"#utility.yul\":4404:4407   */\n      dup3\n        /* \"#utility.yul\":4315:4408   */\n      tag_158\n      jump\t// in\n    tag_157:\n        /* \"#utility.yul\":4433:4435   */\n      0x40\n        /* \"#utility.yul\":4428:4431   */\n      dup3\n        /* \"#utility.yul\":4424:4436   */\n      add\n        /* \"#utility.yul\":4417:4436   */\n      swap1\n      pop\n        /* \"#utility.yul\":4076:4442   */\n      swap2\n      swap1\n      pop\n      jump\t// out\n        /* \"#utility.yul\":4448:4814   */\n    tag_159:\n        /* \"#utility.yul\":4590:4593   */\n      0x00\n        /* \"#utility.yul\":4611:4678   */\n      tag_161\n        /* \"#utility.yul\":4675:4677   */\n      0x3d\n        /* \"#utility.yul\":4670:4673   */\n      dup4\n        /* \"#utility.yul\":4611:4678   */\n      tag_146\n      jump\t// in\n    tag_161:\n        /* \"#utility.yul\":4604:4678   */\n      swap2\n      pop\n        /* \"#utility.yul\":4687:4780   */\n      tag_162\n        /* \"#utility.yul\":4776:4779   */\n      dup3\n        /* \"#utility.yul\":4687:4780   */\n      tag_163\n      jump\t// in\n    tag_162:\n        /* \"#utility.yul\":4805:4807   */\n      0x40\n        /* \"#utility.yul\":4800:4803   */\n      dup3\n        /* \"#utility.yul\":4796:4808   */\n      add\n        /* \"#utility.yul\":4789:4808   */\n      swap1\n      pop\n        /* \"#utility.yul\":4448:4814   */\n      swap2\n      swap1\n      pop\n      jump\t// out\n        /* \"#utility.yul\":4820:5186   */\n    tag_164:\n        /* \"#utility.yul\":4962:4965   */\n      0x00\n        /* \"#utility.yul\":4983:5050   */\n      tag_166\n        /* \"#utility.yul\":5047:5049   */\n      0x4a\n        /* \"#utility.yul\":5042:5045   */\n      dup4\n        /* \"#utility.yul\":4983:5050   */\n      tag_146\n      jump\t// in\n    tag_166:\n        /* \"#utility.yul\":4976:5050   */\n      swap2\n      pop\n        /* \"#utility.yul\":5059:5152   */\n      tag_167\n        /* \"#utility.yul\":5148:5151   */\n      dup3\n        /* \"#utility.yul\":5059:5152   */\n      tag_168\n      jump\t// in\n    tag_167:\n        /* \"#utility.yul\":5177:5179   */\n      0x60\n        /* \"#utility.yul\":5172:5175   */\n      dup3\n        /* \"#utility.yul\":5168:5180   */\n      add\n        /* \"#utility.yul\":5161:5180   */\n      swap1\n      pop\n        /* \"#utility.yul\":4820:5186   */\n      swap2\n      swap1\n      pop\n      jump\t// out\n        /* \"#utility.yul\":5192:5558   */\n    tag_169:\n        /* \"#utility.yul\":5334:5337   */\n      0x00\n        /* \"#utility.yul\":5355:5422   */\n      tag_171\n        /* \"#utility.yul\":5419:5421   */\n      0x39\n        /* \"#utility.yul\":5414:5417   */\n      dup4\n        /* \"#utility.yul\":5355:5422   */\n      tag_146\n      jump\t// in\n    tag_171:\n        /* \"#utility.yul\":5348:5422   */\n      swap2\n      pop\n        /* \"#utility.yul\":5431:5524   */\n      tag_172\n        /* \"#utility.yul\":5520:5523   */\n      dup3\n        /* \"#utility.yul\":5431:5524   */\n      tag_173\n      jump\t// in\n    tag_172:\n        /* \"#utility.yul\":5549:5551   */\n      0x40\n        /* \"#utility.yul\":5544:5547   */\n      dup3\n        /* \"#utility.yul\":5540:5552   */\n      add\n        /* \"#utility.yul\":5533:5552   */\n      swap1\n      pop\n        /* \"#utility.yul\":5192:5558   */\n      swap2\n      swap1\n      pop\n      jump\t// out\n        /* \"#utility.yul\":5564:5930   */\n    tag_174:\n        /* \"#utility.yul\":5706:5709   */\n      0x00\n        /* \"#utility.yul\":5727:5794   */\n      tag_176\n        /* \"#utility.yul\":5791:5793   */\n      0x20\n        /* \"#utility.yul\":5786:5789   */\n      dup4\n        /* \"#utility.yul\":5727:5794   */\n      tag_146\n      jump\t// in\n    tag_176:\n        /* \"#utility.yul\":5720:5794   */\n      swap2\n      pop\n        /* \"#utility.yul\":5803:5896   */\n      tag_177\n        /* \"#utility.yul\":5892:5895   */\n      dup3\n        /* \"#utility.yul\":5803:5896   */\n      tag_178\n      jump\t// in\n    tag_177:\n        /* \"#utility.yul\":5921:5923   */\n      0x20\n        /* \"#utility.yul\":5916:5919   */\n      dup3\n        /* \"#utility.yul\":5912:5924   */\n      add\n        /* \"#utility.yul\":5905:5924   */\n      swap1\n      pop\n        /* \"#utility.yul\":5564:5930   */\n      swap2\n      swap1\n      pop\n      jump\t// out\n        /* \"#utility.yul\":5936:6302   */\n    tag_179:\n        /* \"#utility.yul\":6078:6081   */\n      0x00\n        /* \"#utility.yul\":6099:6166   */\n      tag_181\n        /* \"#utility.yul\":6163:6165   */\n      0x4d\n        /* \"#utility.yul\":6158:6161   */\n      dup4\n        /* \"#utility.yul\":6099:6166   */\n      tag_146\n      jump\t// in\n    tag_181:\n        /* \"#utility.yul\":6092:6166   */\n      swap2\n      pop\n        /* \"#utility.yul\":6175:6268   */\n      tag_182\n        /* \"#utility.yul\":6264:6267   */\n      dup3\n        /* \"#utility.yul\":6175:6268   */\n      tag_183\n      jump\t// in\n    tag_182:\n        /* \"#utility.yul\":6293:6295   */\n      0x60\n        /* \"#utility.yul\":6288:6291   */\n      dup3\n        /* \"#utility.yul\":6284:6296   */\n      add\n        /* \"#utility.yul\":6277:6296   */\n      swap1\n      pop\n        /* \"#utility.yul\":5936:6302   */\n      swap2\n      swap1\n      pop\n      jump\t// out\n        /* \"#utility.yul\":6308:6426   */\n    tag_184:\n        /* \"#utility.yul\":6395:6419   */\n      tag_186\n        /* \"#utility.yul\":6413:6418   */\n      dup2\n        /* \"#utility.yul\":6395:6419   */\n      tag_187\n      jump\t// in\n    tag_186:\n        /* \"#utility.yul\":6390:6393   */\n      dup3\n        /* \"#utility.yul\":6383:6420   */\n      mstore\n        /* \"#utility.yul\":6308:6426   */\n      pop\n      pop\n      jump\t// out\n        /* \"#utility.yul\":6432:6544   */\n    tag_188:\n        /* \"#utility.yul\":6515:6537   */\n      tag_190\n        /* \"#utility.yul\":6531:6536   */\n      dup2\n        /* \"#utility.yul\":6515:6537   */\n      tag_191\n      jump\t// in\n    tag_190:\n        /* \"#utility.yul\":6510:6513   */\n      dup3\n        /* \"#utility.yul\":6503:6538   */\n      mstore\n        /* \"#utility.yul\":6432:6544   */\n      pop\n      pop\n      jump\t// out\n        /* \"#utility.yul\":6550:6804   */\n    tag_37:\n        /* \"#utility.yul\":6659:6663   */\n      0x00\n        /* \"#utility.yul\":6697:6699   */\n      0x20\n        /* \"#utility.yul\":6686:6695   */\n      dup3\n        /* \"#utility.yul\":6682:6700   */\n      add\n        /* \"#utility.yul\":6674:6700   */\n      swap1\n      pop\n        /* \"#utility.yul\":6710:6797   */\n      tag_193\n        /* \"#utility.yul\":6794:6795   */\n      0x00\n        /* \"#utility.yul\":6783:6792   */\n      dup4\n        /* \"#utility.yul\":6779:6796   */\n      add\n        /* \"#utility.yul\":6770:6776   */\n      dup5\n        /* \"#utility.yul\":6710:6797   */\n      tag_139\n      jump\t// in\n    tag_193:\n        /* \"#utility.yul\":6550:6804   */\n      swap3\n      swap2\n      pop\n      pop\n      jump\t// out\n        /* \"#utility.yul\":6810:7229   */\n    tag_80:\n        /* \"#utility.yul\":6976:6980   */\n      0x00\n        /* \"#utility.yul\":7014:7016   */\n      0x20\n        /* \"#utility.yul\":7003:7012   */\n      dup3\n        /* \"#utility.yul\":6999:7017   */\n      add\n        /* \"#utility.yul\":6991:7017   */\n      swap1\n      pop\n        /* \"#utility.yul\":7063:7072   */\n      dup2\n        /* \"#utility.yul\":7057:7061   */\n      dup2\n        /* \"#utility.yul\":7053:7073   */\n      sub\n        /* \"#utility.yul\":7049:7050   */\n      0x00\n        /* \"#utility.yul\":7038:7047   */\n      dup4\n        /* \"#utility.yul\":7034:7051   */\n      add\n        /* \"#utility.yul\":7027:7074   */\n      mstore\n        /* \"#utility.yul\":7091:7222   */\n      tag_195\n        /* \"#utility.yul\":7217:7221   */\n      dup2\n        /* \"#utility.yul\":7091:7222   */\n      tag_143\n      jump\t// in\n    tag_195:\n        /* \"#utility.yul\":7083:7222   */\n      swap1\n      pop\n        /* \"#utility.yul\":6810:7229   */\n      swap2\n      swap1\n      pop\n      jump\t// out\n        /* \"#utility.yul\":7235:7654   */\n    tag_76:\n        /* \"#utility.yul\":7401:7405   */\n      0x00\n        /* \"#utility.yul\":7439:7441   */\n      0x20\n        /* \"#utility.yul\":7428:7437   */\n      dup3\n        /* \"#utility.yul\":7424:7442   */\n      add\n        /* \"#utility.yul\":7416:7442   */\n      swap1\n      pop\n        /* \"#utility.yul\":7488:7497   */\n      dup2\n        /* \"#utility.yul\":7482:7486   */\n      dup2\n        /* \"#utility.yul\":7478:7498   */\n      sub\n        /* \"#utility.yul\":7474:7475   */\n      0x00\n        /* \"#utility.yul\":7463:7472   */\n      dup4\n        /* \"#utility.yul\":7459:7476   */\n      add\n        /* \"#utility.yul\":7452:7499   */\n      mstore\n        /* \"#utility.yul\":7516:7647   */\n      tag_197\n        /* \"#utility.yul\":7642:7646   */\n      dup2\n        /* \"#utility.yul\":7516:7647   */\n      tag_149\n      jump\t// in\n    tag_197:\n        /* \"#utility.yul\":7508:7647   */\n      swap1\n      pop\n        /* \"#utility.yul\":7235:7654   */\n      swap2\n      swap1\n      pop\n      jump\t// out\n        /* \"#utility.yul\":7660:8079   */\n    tag_67:\n        /* \"#utility.yul\":7826:7830   */\n      0x00\n        /* \"#utility.yul\":7864:7866   */\n      0x20\n        /* \"#utility.yul\":7853:7862   */\n      dup3\n        /* \"#utility.yul\":7849:7867   */\n      add\n        /* \"#utility.yul\":7841:7867   */\n      swap1\n      pop\n        /* \"#utility.yul\":7913:7922   */\n      dup2\n        /* \"#utility.yul\":7907:7911   */\n      dup2\n        /* \"#utility.yul\":7903:7923   */\n      sub\n        /* \"#utility.yul\":7899:7900   */\n      0x00\n        /* \"#utility.yul\":7888:7897   */\n      dup4\n        /* \"#utility.yul\":7884:7901   */\n      add\n        /* \"#utility.yul\":7877:7924   */\n      mstore\n        /* \"#utility.yul\":7941:8072   */\n      tag_199\n        /* \"#utility.yul\":8067:8071   */\n      dup2\n        /* \"#utility.yul\":7941:8072   */\n      tag_154\n      jump\t// in\n    tag_199:\n        /* \"#utility.yul\":7933:8072   */\n      swap1\n      pop\n        /* \"#utility.yul\":7660:8079   */\n      swap2\n      swap1\n      pop\n      jump\t// out\n        /* \"#utility.yul\":8085:8504   */\n    tag_53:\n        /* \"#utility.yul\":8251:8255   */\n      0x00\n        /* \"#utility.yul\":8289:8291   */\n      0x20\n        /* \"#utility.yul\":8278:8287   */\n      dup3\n        /* \"#utility.yul\":8274:8292   */\n      add\n        /* \"#utility.yul\":8266:8292   */\n      swap1\n      pop\n        /* \"#utility.yul\":8338:8347   */\n      dup2\n        /* \"#utility.yul\":8332:8336   */\n      dup2\n        /* \"#utility.yul\":8328:8348   */\n      sub\n        /* \"#utility.yul\":8324:8325   */\n      0x00\n        /* \"#utility.yul\":8313:8322   */\n      dup4\n        /* \"#utility.yul\":8309:8326   */\n      add\n        /* \"#utility.yul\":8302:8349   */\n      mstore\n        /* \"#utility.yul\":8366:8497   */\n      tag_201\n        /* \"#utility.yul\":8492:8496   */\n      dup2\n        /* \"#utility.yul\":8366:8497   */\n      tag_159\n      jump\t// in\n    tag_201:\n        /* \"#utility.yul\":8358:8497   */\n      swap1\n      pop\n        /* \"#utility.yul\":8085:8504   */\n      swap2\n      swap1\n      pop\n      jump\t// out\n        /* \"#utility.yul\":8510:8929   */\n    tag_45:\n        /* \"#utility.yul\":8676:8680   */\n      0x00\n        /* \"#utility.yul\":8714:8716   */\n      0x20\n        /* \"#utility.yul\":8703:8712   */\n      dup3\n        /* \"#utility.yul\":8699:8717   */\n      add\n        /* \"#utility.yul\":8691:8717   */\n      swap1\n      pop\n        /* \"#utility.yul\":8763:8772   */\n      dup2\n        /* \"#utility.yul\":8757:8761   */\n      dup2\n        /* \"#utility.yul\":8753:8773   */\n      sub\n        /* \"#utility.yul\":8749:8750   */\n      0x00\n        /* \"#utility.yul\":8738:8747   */\n      dup4\n        /* \"#utility.yul\":8734:8751   */\n      add\n        /* \"#utility.yul\":8727:8774   */\n      mstore\n        /* \"#utility.yul\":8791:8922   */\n      tag_203\n        /* \"#utility.yul\":8917:8921   */\n      dup2\n        /* \"#utility.yul\":8791:8922   */\n      tag_164\n      jump\t// in\n    tag_203:\n        /* \"#utility.yul\":8783:8922   */\n      swap1\n      pop\n        /* \"#utility.yul\":8510:8929   */\n      swap2\n      swap1\n      pop\n      jump\t// out\n        /* \"#utility.yul\":8935:9354   */\n    tag_70:\n        /* \"#utility.yul\":9101:9105   */\n      0x00\n        /* \"#utility.yul\":9139:9141   */\n      0x20\n        /* \"#utility.yul\":9128:9137   */\n      dup3\n        /* \"#utility.yul\":9124:9142   */\n      add\n        /* \"#utility.yul\":9116:9142   */\n      swap1\n      pop\n        /* \"#utility.yul\":9188:9197   */\n      dup2\n        /* \"#utility.yul\":9182:9186   */\n      dup2\n        /* \"#utility.yul\":9178:9198   */\n      sub\n        /* \"#utility.yul\":9174:9175   */\n      0x00\n        /* \"#utility.yul\":9163:9172   */\n      dup4\n        /* \"#utility.yul\":9159:9176   */\n      add\n        /* \"#utility.yul\":9152:9199   */\n      mstore\n        /* \"#utility.yul\":9216:9347   */\n      tag_205\n        /* \"#utility.yul\":9342:9346   */\n      dup2\n        /* \"#utility.yul\":9216:9347   */\n      tag_169\n      jump\t// in\n    tag_205:\n        /* \"#utility.yul\":9208:9347   */\n      swap1\n      pop\n        /* \"#utility.yul\":8935:9354   */\n      swap2\n      swap1\n      pop\n      jump\t// out\n        /* \"#utility.yul\":9360:9779   */\n    tag_73:\n        /* \"#utility.yul\":9526:9530   */\n      0x00\n        /* \"#utility.yul\":9564:9566   */\n      0x20\n        /* \"#utility.yul\":9553:9562   */\n      dup3\n        /* \"#utility.yul\":9549:9567   */\n      add\n        /* \"#utility.yul\":9541:9567   */\n      swap1\n      pop\n        /* \"#utility.yul\":9613:9622   */\n      dup2\n        /* \"#utility.yul\":9607:9611   */\n      dup2\n        /* \"#utility.yul\":9603:9623   */\n      sub\n        /* \"#utility.yul\":9599:9600   */\n      0x00\n        /* \"#utility.yul\":9588:9597   */\n      dup4\n        /* \"#utility.yul\":9584:9601   */\n      add\n        /* \"#utility.yul\":9577:9624   */\n      mstore\n        /* \"#utility.yul\":9641:9772   */\n      tag_207\n        /* \"#utility.yul\":9767:9771   */\n      dup2\n        /* \"#utility.yul\":9641:9772   */\n      tag_174\n      jump\t// in\n    tag_207:\n        /* \"#utility.yul\":9633:9772   */\n      swap1\n      pop\n        /* \"#utility.yul\":9360:9779   */\n      swap2\n      swap1\n      pop\n      jump\t// out\n        /* \"#utility.yul\":9785:10204   */\n    tag_58:\n        /* \"#utility.yul\":9951:9955   */\n      0x00\n        /* \"#utility.yul\":9989:9991   */\n      0x20\n        /* \"#utility.yul\":9978:9987   */\n      dup3\n        /* \"#utility.yul\":9974:9992   */\n      add\n        /* \"#utility.yul\":9966:9992   */\n      swap1\n      pop\n        /* \"#utility.yul\":10038:10047   */\n      dup2\n        /* \"#utility.yul\":10032:10036   */\n      dup2\n        /* \"#utility.yul\":10028:10048   */\n      sub\n        /* \"#utility.yul\":10024:10025   */\n      0x00\n        /* \"#utility.yul\":10013:10022   */\n      dup4\n        /* \"#utility.yul\":10009:10026   */\n      add\n        /* \"#utility.yul\":10002:10049   */\n      mstore\n        /* \"#utility.yul\":10066:10197   */\n      tag_209\n        /* \"#utility.yul\":10192:10196   */\n      dup2\n        /* \"#utility.yul\":10066:10197   */\n      tag_179\n      jump\t// in\n    tag_209:\n        /* \"#utility.yul\":10058:10197   */\n      swap1\n      pop\n        /* \"#utility.yul\":9785:10204   */\n      swap2\n      swap1\n      pop\n      jump\t// out\n        /* \"#utility.yul\":10210:10432   */\n    tag_16:\n        /* \"#utility.yul\":10303:10307   */\n      0x00\n        /* \"#utility.yul\":10341:10343   */\n      0x20\n        /* \"#utility.yul\":10330:10339   */\n      dup3\n        /* \"#utility.yul\":10326:10344   */\n      add\n        /* \"#utility.yul\":10318:10344   */\n      swap1\n      pop\n        /* \"#utility.yul\":10354:10425   */\n      tag_211\n        /* \"#utility.yul\":10422:10423   */\n      0x00\n        /* \"#utility.yul\":10411:10420   */\n      dup4\n        /* \"#utility.yul\":10407:10424   */\n      add\n        /* \"#utility.yul\":10398:10404   */\n      dup5\n        /* \"#utility.yul\":10354:10425   */\n      tag_184\n      jump\t// in\n    tag_211:\n        /* \"#utility.yul\":10210:10432   */\n      swap3\n      swap2\n      pop\n      pop\n      jump\t// out\n        /* \"#utility.yul\":10438:11213   */\n    tag_62:\n        /* \"#utility.yul\":10671:10675   */\n      0x00\n        /* \"#utility.yul\":10709:10712   */\n      0xc0\n        /* \"#utility.yul\":10698:10707   */\n      dup3\n        /* \"#utility.yul\":10694:10713   */\n      add\n        /* \"#utility.yul\":10686:10713   */\n      swap1\n      pop\n        /* \"#utility.yul\":10723:10794   */\n      tag_213\n        /* \"#utility.yul\":10791:10792   */\n      0x00\n        /* \"#utility.yul\":10780:10789   */\n      dup4\n        /* \"#utility.yul\":10776:10793   */\n      add\n        /* \"#utility.yul\":10767:10773   */\n      dup10\n        /* \"#utility.yul\":10723:10794   */\n      tag_184\n      jump\t// in\n    tag_213:\n        /* \"#utility.yul\":10804:10876   */\n      tag_214\n        /* \"#utility.yul\":10872:10874   */\n      0x20\n        /* \"#utility.yul\":10861:10870   */\n      dup4\n        /* \"#utility.yul\":10857:10875   */\n      add\n        /* \"#utility.yul\":10848:10854   */\n      dup9\n        /* \"#utility.yul\":10804:10876   */\n      tag_184\n      jump\t// in\n    tag_214:\n        /* \"#utility.yul\":10886:10958   */\n      tag_215\n        /* \"#utility.yul\":10954:10956   */\n      0x40\n        /* \"#utility.yul\":10943:10952   */\n      dup4\n        /* \"#utility.yul\":10939:10957   */\n      add\n        /* \"#utility.yul\":10930:10936   */\n      dup8\n        /* \"#utility.yul\":10886:10958   */\n      tag_184\n      jump\t// in\n    tag_215:\n        /* \"#utility.yul\":10968:11040   */\n      tag_216\n        /* \"#utility.yul\":11036:11038   */\n      0x60\n        /* \"#utility.yul\":11025:11034   */\n      dup4\n        /* \"#utility.yul\":11021:11039   */\n      add\n        /* \"#utility.yul\":11012:11018   */\n      dup7\n        /* \"#utility.yul\":10968:11040   */\n      tag_135\n      jump\t// in\n    tag_216:\n        /* \"#utility.yul\":11050:11123   */\n      tag_217\n        /* \"#utility.yul\":11118:11121   */\n      0x80\n        /* \"#utility.yul\":11107:11116   */\n      dup4\n        /* \"#utility.yul\":11103:11122   */\n      add\n        /* \"#utility.yul\":11094:11100   */\n      dup6\n        /* \"#utility.yul\":11050:11123   */\n      tag_135\n      jump\t// in\n    tag_217:\n        /* \"#utility.yul\":11133:11206   */\n      tag_218\n        /* \"#utility.yul\":11201:11204   */\n      0xa0\n        /* \"#utility.yul\":11190:11199   */\n      dup4\n        /* \"#utility.yul\":11186:11205   */\n      add\n        /* \"#utility.yul\":11177:11183   */\n      dup5\n        /* \"#utility.yul\":11133:11206   */\n      tag_184\n      jump\t// in\n    tag_218:\n        /* \"#utility.yul\":10438:11213   */\n      swap8\n      swap7\n      pop\n      pop\n      pop\n      pop\n      pop\n      pop\n      pop\n      jump\t// out\n        /* \"#utility.yul\":11219:11875   */\n    tag_88:\n        /* \"#utility.yul\":11420:11424   */\n      0x00\n        /* \"#utility.yul\":11458:11461   */\n      0xa0\n        /* \"#utility.yul\":11447:11456   */\n      dup3\n        /* \"#utility.yul\":11443:11462   */\n      add\n        /* \"#utility.yul\":11435:11462   */\n      swap1\n      pop\n        /* \"#utility.yul\":11472:11543   */\n      tag_220\n        /* \"#utility.yul\":11540:11541   */\n      0x00\n        /* \"#utility.yul\":11529:11538   */\n      dup4\n        /* \"#utility.yul\":11525:11542   */\n      add\n        /* \"#utility.yul\":11516:11522   */\n      dup9\n        /* \"#utility.yul\":11472:11543   */\n      tag_184\n      jump\t// in\n    tag_220:\n        /* \"#utility.yul\":11553:11625   */\n      tag_221\n        /* \"#utility.yul\":11621:11623   */\n      0x20\n        /* \"#utility.yul\":11610:11619   */\n      dup4\n        /* \"#utility.yul\":11606:11624   */\n      add\n        /* \"#utility.yul\":11597:11603   */\n      dup8\n        /* \"#utility.yul\":11553:11625   */\n      tag_184\n      jump\t// in\n    tag_221:\n        /* \"#utility.yul\":11635:11707   */\n      tag_222\n        /* \"#utility.yul\":11703:11705   */\n      0x40\n        /* \"#utility.yul\":11692:11701   */\n      dup4\n        /* \"#utility.yul\":11688:11706   */\n      add\n        /* \"#utility.yul\":11679:11685   */\n      dup7\n        /* \"#utility.yul\":11635:11707   */\n      tag_184\n      jump\t// in\n    tag_222:\n        /* \"#utility.yul\":11717:11789   */\n      tag_223\n        /* \"#utility.yul\":11785:11787   */\n      0x60\n        /* \"#utility.yul\":11774:11783   */\n      dup4\n        /* \"#utility.yul\":11770:11788   */\n      add\n        /* \"#utility.yul\":11761:11767   */\n      dup6\n        /* \"#utility.yul\":11717:11789   */\n      tag_135\n      jump\t// in\n    tag_223:\n        /* \"#utility.yul\":11799:11868   */\n      tag_224\n        /* \"#utility.yul\":11863:11866   */\n      0x80\n        /* \"#utility.yul\":11852:11861   */\n      dup4\n        /* \"#utility.yul\":11848:11867   */\n      add\n        /* \"#utility.yul\":11839:11845   */\n      dup5\n        /* \"#utility.yul\":11799:11868   */\n      tag_188\n      jump\t// in\n    tag_224:\n        /* \"#utility.yul\":11219:11875   */\n      swap7\n      swap6\n      pop\n      pop\n      pop\n      pop\n      pop\n      pop\n      jump\t// out\n        /* \"#utility.yul\":11881:12426   */\n    tag_95:\n        /* \"#utility.yul\":12054:12058   */\n      0x00\n        /* \"#utility.yul\":12092:12095   */\n      0x80\n        /* \"#utility.yul\":12081:12090   */\n      dup3\n        /* \"#utility.yul\":12077:12096   */\n      add\n        /* \"#utility.yul\":12069:12096   */\n      swap1\n      pop\n        /* \"#utility.yul\":12106:12177   */\n      tag_226\n        /* \"#utility.yul\":12174:12175   */\n      0x00\n        /* \"#utility.yul\":12163:12172   */\n      dup4\n        /* \"#utility.yul\":12159:12176   */\n      add\n        /* \"#utility.yul\":12150:12156   */\n      dup8\n        /* \"#utility.yul\":12106:12177   */\n      tag_184\n      jump\t// in\n    tag_226:\n        /* \"#utility.yul\":12187:12259   */\n      tag_227\n        /* \"#utility.yul\":12255:12257   */\n      0x20\n        /* \"#utility.yul\":12244:12253   */\n      dup4\n        /* \"#utility.yul\":12240:12258   */\n      add\n        /* \"#utility.yul\":12231:12237   */\n      dup7\n        /* \"#utility.yul\":12187:12259   */\n      tag_184\n      jump\t// in\n    tag_227:\n        /* \"#utility.yul\":12269:12341   */\n      tag_228\n        /* \"#utility.yul\":12337:12339   */\n      0x40\n        /* \"#utility.yul\":12326:12335   */\n      dup4\n        /* \"#utility.yul\":12322:12340   */\n      add\n        /* \"#utility.yul\":12313:12319   */\n      dup6\n        /* \"#utility.yul\":12269:12341   */\n      tag_184\n      jump\t// in\n    tag_228:\n        /* \"#utility.yul\":12351:12419   */\n      tag_229\n        /* \"#utility.yul\":12415:12417   */\n      0x60\n        /* \"#utility.yul\":12404:12413   */\n      dup4\n        /* \"#utility.yul\":12400:12418   */\n      add\n        /* \"#utility.yul\":12391:12397   */\n      dup5\n        /* \"#utility.yul\":12351:12419   */\n      tag_188\n      jump\t// in\n    tag_229:\n        /* \"#utility.yul\":11881:12426   */\n      swap6\n      swap5\n      pop\n      pop\n      pop\n      pop\n      pop\n      jump\t// out\n        /* \"#utility.yul\":12513:12682   */\n    tag_146:\n        /* \"#utility.yul\":12597:12608   */\n      0x00\n        /* \"#utility.yul\":12631:12637   */\n      dup3\n        /* \"#utility.yul\":12626:12629   */\n      dup3\n        /* \"#utility.yul\":12619:12638   */\n      mstore\n        /* \"#utility.yul\":12671:12675   */\n      0x20\n        /* \"#utility.yul\":12666:12669   */\n      dup3\n        /* \"#utility.yul\":12662:12676   */\n      add\n        /* \"#utility.yul\":12647:12676   */\n      swap1\n      pop\n        /* \"#utility.yul\":12513:12682   */\n      swap3\n      swap2\n      pop\n      pop\n      jump\t// out\n        /* \"#utility.yul\":12688:12784   */\n    tag_138:\n        /* \"#utility.yul\":12725:12732   */\n      0x00\n        /* \"#utility.yul\":12754:12778   */\n      tag_234\n        /* \"#utility.yul\":12772:12777   */\n      dup3\n        /* \"#utility.yul\":12754:12778   */\n      tag_235\n      jump\t// in\n    tag_234:\n        /* \"#utility.yul\":12743:12778   */\n      swap1\n      pop\n        /* \"#utility.yul\":12688:12784   */\n      swap2\n      swap1\n      pop\n      jump\t// out\n        /* \"#utility.yul\":12790:12937   */\n    tag_236:\n        /* \"#utility.yul\":12845:12852   */\n      0x00\n        /* \"#utility.yul\":12874:12879   */\n      dup2\n        /* \"#utility.yul\":12863:12879   */\n      swap1\n      pop\n        /* \"#utility.yul\":12880:12931   */\n      tag_238\n        /* \"#utility.yul\":12925:12930   */\n      dup3\n        /* \"#utility.yul\":12880:12931   */\n      tag_239\n      jump\t// in\n    tag_238:\n        /* \"#utility.yul\":12790:12937   */\n      swap2\n      swap1\n      pop\n      jump\t// out\n        /* \"#utility.yul\":12943:13069   */\n    tag_235:\n        /* \"#utility.yul\":12980:12987   */\n      0x00\n        /* \"#utility.yul\":13020:13062   */\n      0xffffffffffffffffffffffffffffffffffffffff\n        /* \"#utility.yul\":13013:13018   */\n      dup3\n        /* \"#utility.yul\":13009:13063   */\n      and\n        /* \"#utility.yul\":12998:13063   */\n      swap1\n      pop\n        /* \"#utility.yul\":12943:13069   */\n      swap2\n      swap1\n      pop\n      jump\t// out\n        /* \"#utility.yul\":13075:13152   */\n    tag_187:\n        /* \"#utility.yul\":13112:13119   */\n      0x00\n        /* \"#utility.yul\":13141:13146   */\n      dup2\n        /* \"#utility.yul\":13130:13146   */\n      swap1\n      pop\n        /* \"#utility.yul\":13075:13152   */\n      swap2\n      swap1\n      pop\n      jump\t// out\n        /* \"#utility.yul\":13158:13244   */\n    tag_191:\n        /* \"#utility.yul\":13193:13200   */\n      0x00\n        /* \"#utility.yul\":13233:13237   */\n      0xff\n        /* \"#utility.yul\":13226:13231   */\n      dup3\n        /* \"#utility.yul\":13222:13238   */\n      and\n        /* \"#utility.yul\":13211:13238   */\n      swap1\n      pop\n        /* \"#utility.yul\":13158:13244   */\n      swap2\n      swap1\n      pop\n      jump\t// out\n        /* \"#utility.yul\":13250:13397   */\n    tag_142:\n        /* \"#utility.yul\":13316:13325   */\n      0x00\n        /* \"#utility.yul\":13349:13391   */\n      tag_244\n        /* \"#utility.yul\":13385:13390   */\n      dup3\n        /* \"#utility.yul\":13349:13391   */\n      tag_236\n      jump\t// in\n    tag_244:\n        /* \"#utility.yul\":13336:13391   */\n      swap1\n      pop\n        /* \"#utility.yul\":13250:13397   */\n      swap2\n      swap1\n      pop\n      jump\t// out\n        /* \"#utility.yul\":13403:13636   */\n    tag_83:\n        /* \"#utility.yul\":13442:13445   */\n      0x00\n        /* \"#utility.yul\":13465:13489   */\n      tag_246\n        /* \"#utility.yul\":13483:13488   */\n      dup3\n        /* \"#utility.yul\":13465:13489   */\n      tag_187\n      jump\t// in\n    tag_246:\n        /* \"#utility.yul\":13456:13489   */\n      swap2\n      pop\n        /* \"#utility.yul\":13511:13577   */\n      0xffffffffffffffffffffffffffffffffffffffffffffffffffffffffffffffff\n        /* \"#utility.yul\":13504:13509   */\n      dup3\n        /* \"#utility.yul\":13501:13578   */\n      eq\n        /* \"#utility.yul\":13498:13601   */\n      iszero\n      tag_247\n      jumpi\n        /* \"#utility.yul\":13581:13599   */\n      tag_248\n      tag_249\n      jump\t// in\n    tag_248:\n        /* \"#utility.yul\":13498:13601   */\n    tag_247:\n        /* \"#utility.yul\":13628:13629   */\n      0x01\n        /* \"#utility.yul\":13621:13626   */\n      dup3\n        /* \"#utility.yul\":13617:13630   */\n      add\n        /* \"#utility.yul\":13610:13630   */\n      swap1\n      pop\n        /* \"#utility.yul\":13403:13636   */\n      swap2\n      swap1\n      pop\n      jump\t// out\n        /* \"#utility.yul\":13642:13822   */\n    tag_249:\n        /* \"#utility.yul\":13690:13767   */\n      0x4e487b7100000000000000000000000000000000000000000000000000000000\n        /* \"#utility.yul\":13687:13688   */\n      0x00\n        /* \"#utility.yul\":13680:13768   */\n      mstore\n        /* \"#utility.yul\":13787:13791   */\n      0x11\n        /* \"#utility.yul\":13784:13785   */\n      0x04\n        /* \"#utility.yul\":13777:13792   */\n      mstore\n        /* \"#utility.yul\":13811:13815   */\n      0x24\n        /* \"#utility.yul\":13808:13809   */\n      0x00\n        /* \"#utility.yul\":13801:13816   */\n      revert\n        /* \"#utility.yul\":13828:14008   */\n    tag_48:\n        /* \"#utility.yul\":13876:13953   */\n      0x4e487b7100000000000000000000000000000000000000000000000000000000\n        /* \"#utility.yul\":13873:13874   */\n      0x00\n        /* \"#utility.yul\":13866:13954   */\n      mstore\n        /* \"#utility.yul\":13973:13977   */\n      0x21\n        /* \"#utility.yul\":13970:13971   */\n      0x04\n        /* \"#utility.yul\":13963:13978   */\n      mstore\n        /* \"#utility.yul\":13997:14001   */\n      0x24\n        /* \"#utility.yul\":13994:13995   */\n      0x00\n        /* \"#utility.yul\":13987:14002   */\n      revert\n        /* \"#utility.yul\":14137:14254   */\n    tag_114:\n        /* \"#utility.yul\":14246:14247   */\n      0x00\n        /* \"#utility.yul\":14243:14244   */\n      dup1\n        /* \"#utility.yul\":14236:14248   */\n      revert\n        /* \"#utility.yul\":14260:14571   */\n    tag_148:\n        /* \"#utility.yul\":14400:14434   */\n      0x596f752068617665206e6f7420696e707574206120726967687420766f74652e\n        /* \"#utility.yul\":14396:14397   */\n      0x00\n        /* \"#utility.yul\":14388:14394   */\n      dup3\n        /* \"#utility.yul\":14384:14398   */\n      add\n        /* \"#utility.yul\":14377:14435   */\n      mstore\n        /* \"#utility.yul\":14469:14503   */\n      0x20596f752063616e2065697468657220766f7465203120666f72205265717565\n        /* \"#utility.yul\":14464:14466   */\n      0x20\n        /* \"#utility.yul\":14456:14462   */\n      dup3\n        /* \"#utility.yul\":14452:14467   */\n      add\n        /* \"#utility.yul\":14445:14504   */\n      mstore\n        /* \"#utility.yul\":14538:14563   */\n      0x73746572206f72203220666f722050726f76696465722e000000000000000000\n        /* \"#utility.yul\":14533:14535   */\n      0x40\n        /* \"#utility.yul\":14525:14531   */\n      dup3\n        /* \"#utility.yul\":14521:14536   */\n      add\n        /* \"#utility.yul\":14514:14564   */\n      mstore\n        /* \"#utility.yul\":14260:14571   */\n      pop\n      jump\t// out\n        /* \"#utility.yul\":14577:14809   */\n    tag_153:\n        /* \"#utility.yul\":14717:14751   */\n      0x596f75206861766520616c726561647920766f7465642c20796f752063616e6e\n        /* \"#utility.yul\":14713:14714   */\n      0x00\n        /* \"#utility.yul\":14705:14711   */\n      dup3\n        /* \"#utility.yul\":14701:14715   */\n      add\n        /* \"#utility.yul\":14694:14752   */\n      mstore\n        /* \"#utility.yul\":14786:14801   */\n      0x6f7420766f746520616761696e00000000000000000000000000000000000000\n        /* \"#utility.yul\":14781:14783   */\n      0x20\n        /* \"#utility.yul\":14773:14779   */\n      dup3\n        /* \"#utility.yul\":14769:14784   */\n      add\n        /* \"#utility.yul\":14762:14802   */\n      mstore\n        /* \"#utility.yul\":14577:14809   */\n      pop\n      jump\t// out\n        /* \"#utility.yul\":14815:15050   */\n    tag_158:\n        /* \"#utility.yul\":14955:14989   */\n      0x596f7520726169736564207468697320636f6e666c6963742e20596f75206361\n        /* \"#utility.yul\":14951:14952   */\n      0x00\n        /* \"#utility.yul\":14943:14949   */\n      dup3\n        /* \"#utility.yul\":14939:14953   */\n      add\n        /* \"#utility.yul\":14932:14990   */\n      mstore\n        /* \"#utility.yul\":15024:15042   */\n      0x6e6e6f7420766f7465206f6e2069742e00000000000000000000000000000000\n        /* \"#utility.yul\":15019:15021   */\n      0x20\n        /* \"#utility.yul\":15011:15017   */\n      dup3\n        /* \"#utility.yul\":15007:15022   */\n      add\n        /* \"#utility.yul\":15000:15043   */\n      mstore\n        /* \"#utility.yul\":14815:15050   */\n      pop\n      jump\t// out\n        /* \"#utility.yul\":15056:15304   */\n    tag_163:\n        /* \"#utility.yul\":15196:15230   */\n      0x566f74696e6720686173206e6f74206265656e20636f6d706c65746564207965\n        /* \"#utility.yul\":15192:15193   */\n      0x00\n        /* \"#utility.yul\":15184:15190   */\n      dup3\n        /* \"#utility.yul\":15180:15194   */\n      add\n        /* \"#utility.yul\":15173:15231   */\n      mstore\n        /* \"#utility.yul\":15265:15296   */\n      0x742e20506c65617365207761697420666f7220697420746f20656e642e000000\n        /* \"#utility.yul\":15260:15262   */\n      0x20\n        /* \"#utility.yul\":15252:15258   */\n      dup3\n        /* \"#utility.yul\":15248:15263   */\n      add\n        /* \"#utility.yul\":15241:15297   */\n      mstore\n        /* \"#utility.yul\":15056:15304   */\n      pop\n      jump\t// out\n        /* \"#utility.yul\":15310:15608   */\n    tag_168:\n        /* \"#utility.yul\":15450:15484   */\n      0x4e6f742065766572796f6e652068617320766f7465642c20706c656173652070\n        /* \"#utility.yul\":15446:15447   */\n      0x00\n        /* \"#utility.yul\":15438:15444   */\n      dup3\n        /* \"#utility.yul\":15434:15448   */\n      add\n        /* \"#utility.yul\":15427:15485   */\n      mstore\n        /* \"#utility.yul\":15519:15553   */\n      0x726f6d707420616c6c206f74686572206d656d62657273206f662070726f6a65\n        /* \"#utility.yul\":15514:15516   */\n      0x20\n        /* \"#utility.yul\":15506:15512   */\n      dup3\n        /* \"#utility.yul\":15502:15517   */\n      add\n        /* \"#utility.yul\":15495:15554   */\n      mstore\n        /* \"#utility.yul\":15588:15600   */\n      0x637420746f20766f746500000000000000000000000000000000000000000000\n        /* \"#utility.yul\":15583:15585   */\n      0x40\n        /* \"#utility.yul\":15575:15581   */\n      dup3\n        /* \"#utility.yul\":15571:15586   */\n      add\n        /* \"#utility.yul\":15564:15601   */\n      mstore\n        /* \"#utility.yul\":15310:15608   */\n      pop\n      jump\t// out\n        /* \"#utility.yul\":15614:15858   */\n    tag_173:\n        /* \"#utility.yul\":15754:15788   */\n      0x596f752061726520696e766f6c76656420696e207468697320636f6e666c6963\n        /* \"#utility.yul\":15750:15751   */\n      0x00\n        /* \"#utility.yul\":15742:15748   */\n      dup3\n        /* \"#utility.yul\":15738:15752   */\n      add\n        /* \"#utility.yul\":15731:15789   */\n      mstore\n        /* \"#utility.yul\":15823:15850   */\n      0x742e20596f752063616e6e6f7420766f7465206f6e2069742e00000000000000\n        /* \"#utility.yul\":15818:15820   */\n      0x20\n        /* \"#utility.yul\":15810:15816   */\n      dup3\n        /* \"#utility.yul\":15806:15821   */\n      add\n        /* \"#utility.yul\":15799:15851   */\n      mstore\n        /* \"#utility.yul\":15614:15858   */\n      pop\n      jump\t// out\n        /* \"#utility.yul\":15864:16046   */\n    tag_178:\n        /* \"#utility.yul\":16004:16038   */\n      0x456e6f75676820766f7465732068617665206265656e20636f6c6c6563746564\n        /* \"#utility.yul\":16000:16001   */\n      0x00\n        /* \"#utility.yul\":15992:15998   */\n      dup3\n        /* \"#utility.yul\":15988:16002   */\n      add\n        /* \"#utility.yul\":15981:16039   */\n      mstore\n        /* \"#utility.yul\":15864:16046   */\n      pop\n      jump\t// out\n        /* \"#utility.yul\":16052:16353   */\n    tag_183:\n        /* \"#utility.yul\":16192:16226   */\n      0x436f6e666c6963742068617320616c7265616479206265656e20637265617465\n        /* \"#utility.yul\":16188:16189   */\n      0x00\n        /* \"#utility.yul\":16180:16186   */\n      dup3\n        /* \"#utility.yul\":16176:16190   */\n      add\n        /* \"#utility.yul\":16169:16227   */\n      mstore\n        /* \"#utility.yul\":16261:16295   */\n      0x642e20506c6561736520646f206e6f7420637265617465206d6f726520746861\n        /* \"#utility.yul\":16256:16258   */\n      0x20\n        /* \"#utility.yul\":16248:16254   */\n      dup3\n        /* \"#utility.yul\":16244:16259   */\n      add\n        /* \"#utility.yul\":16237:16296   */\n      mstore\n        /* \"#utility.yul\":16330:16345   */\n      0x6e203120636f6e666c6963742e00000000000000000000000000000000000000\n        /* \"#utility.yul\":16325:16327   */\n      0x40\n        /* \"#utility.yul\":16317:16323   */\n      dup3\n        /* \"#utility.yul\":16313:16328   */\n      add\n        /* \"#utility.yul\":16306:16346   */\n      mstore\n        /* \"#utility.yul\":16052:16353   */\n      pop\n      jump\t// out\n        /* \"#utility.yul\":16359:16482   */\n    tag_239:\n        /* \"#utility.yul\":16450:16451   */\n      0x03\n        /* \"#utility.yul\":16443:16448   */\n      dup2\n        /* \"#utility.yul\":16440:16452   */\n      lt\n        /* \"#utility.yul\":16430:16476   */\n      tag_264\n      jumpi\n        /* \"#utility.yul\":16456:16474   */\n      tag_265\n      tag_48\n      jump\t// in\n    tag_265:\n        /* \"#utility.yul\":16430:16476   */\n    tag_264:\n        /* \"#utility.yul\":16359:16482   */\n      pop\n      jump\t// out\n        /* \"#utility.yul\":16488:16610   */\n    tag_102:\n        /* \"#utility.yul\":16561:16585   */\n      tag_267\n        /* \"#utility.yul\":16579:16584   */\n      dup2\n        /* \"#utility.yul\":16561:16585   */\n      tag_138\n      jump\t// in\n    tag_267:\n        /* \"#utility.yul\":16554:16559   */\n      dup2\n        /* \"#utility.yul\":16551:16586   */\n      eq\n        /* \"#utility.yul\":16541:16604   */\n      tag_268\n      jumpi\n        /* \"#utility.yul\":16600:16601   */\n      0x00\n        /* \"#utility.yul\":16597:16598   */\n      dup1\n        /* \"#utility.yul\":16590:16602   */\n      revert\n        /* \"#utility.yul\":16541:16604   */\n    tag_268:\n        /* \"#utility.yul\":16488:16610   */\n      pop\n      jump\t// out\n        /* \"#utility.yul\":16616:16738   */\n    tag_106:\n        /* \"#utility.yul\":16689:16713   */\n      tag_270\n        /* \"#utility.yul\":16707:16712   */\n      dup2\n        /* \"#utility.yul\":16689:16713   */\n      tag_187\n      jump\t// in\n    tag_270:\n        /* \"#utility.yul\":16682:16687   */\n      dup2\n        /* \"#utility.yul\":16679:16714   */\n      eq\n        /* \"#utility.yul\":16669:16732   */\n      tag_271\n      jumpi\n        /* \"#utility.yul\":16728:16729   */\n      0x00\n        /* \"#utility.yul\":16725:16726   */\n      dup1\n        /* \"#utility.yul\":16718:16730   */\n      revert\n        /* \"#utility.yul\":16669:16732   */\n    tag_271:\n        /* \"#utility.yul\":16616:16738   */\n      pop\n      jump\t// out\n        /* \"#utility.yul\":16744:16862   */\n    tag_110:\n        /* \"#utility.yul\":16815:16837   */\n      tag_273\n        /* \"#utility.yul\":16831:16836   */\n      dup2\n        /* \"#utility.yul\":16815:16837   */\n      tag_191\n      jump\t// in\n    tag_273:\n        /* \"#utility.yul\":16808:16813   */\n      dup2\n        /* \"#utility.yul\":16805:16838   */\n      eq\n        /* \"#utility.yul\":16795:16856   */\n      tag_274\n      jumpi\n        /* \"#utility.yul\":16852:16853   */\n      0x00\n        /* \"#utility.yul\":16849:16850   */\n      dup1\n        /* \"#utility.yul\":16842:16854   */\n      revert\n        /* \"#utility.yul\":16795:16856   */\n    tag_274:\n        /* \"#utility.yul\":16744:16862   */\n      pop\n      jump\t// out\n\n    auxdata: 0xa2646970667358221220604b7e8954409a36e32e00cffb77ae958052e75be395444192cc7bcbf0c8a63e64736f6c63430008070033\n}\n",
				"bytecode": {
					"linkReferences": {},
					"object": "608060405234801561001057600080fd5b506115bf806100206000396000f3fe608060405234801561001057600080fd5b506004361061007d5760003560e01c80639ac788791161005b5780639ac78879146100fe578063c171bdf71461012e578063cb4389ce1461014a578063e3d877181461017a5761007d565b80630366cef2146100825780633c45fe31146100b257806371606fb0146100e2575b600080fd5b61009c60048036038101906100979190610c63565b6101aa565b6040516100a9919061102d565b60405180910390f35b6100cc60048036038101906100c79190610c63565b610357565b6040516100d9919061102d565b60405180910390f35b6100fc60048036038101906100f79190610cb6565b61039a565b005b61011860048036038101906101139190610c63565b6105d8565b604051610125919061102d565b60405180910390f35b61014860048036038101906101439190610d43565b61061b565b005b610164600480360381019061015f9190610c63565b610b91565b6040516101719190610f12565b60405180910390f35b610194600480360381019061018f9190610c63565b610be1565b6040516101a1919061102d565b60405180910390f35b6000806000858152602001908152602001600020600084815260200190815260200160002060008381526020019081526020016000206005015460008086815260200190815260200160002060008581526020019081526020016000206000848152602001908152602001600020600601541461025c576040517f08c379a000000000000000000000000000000000000000000000000000000000815260040161025390610fad565b60405180910390fd5b60028081111561026f5761026e611238565b5b6000808681526020019081526020016000206000858152602001908152602001600020600084815260200190815260200160002060040160149054906101000a900460ff1660028111156102c6576102c5611238565b5b14610306576040517f08c379a00000000000000000000000000000000000000000000000000000000081526004016102fd90610f8d565b60405180910390fd5b6000808581526020019081526020016000206000848152602001908152602001600020600083815260200190815260200160002060090160019054906101000a900460ff1660ff1690509392505050565b6000806000858152602001908152602001600020600084815260200190815260200160002060008381526020019081526020016000206006015490509392505050565b600115156000808881526020019081526020016000206000878152602001908152602001600020600086815260200190815260200160002060090160009054906101000a900460ff1615151415610426576040517f08c379a000000000000000000000000000000000000000000000000000000000815260040161041d9061100d565b60405180910390fd5b6000806000888152602001908152602001600020600087815260200190815260200160002060008681526020019081526020016000209050868160000181905550858160010181905550848160020181905550838160030160006101000a81548173ffffffffffffffffffffffffffffffffffffffff021916908373ffffffffffffffffffffffffffffffffffffffff160217905550828160040160006101000a81548173ffffffffffffffffffffffffffffffffffffffff021916908373ffffffffffffffffffffffffffffffffffffffff16021790555060018160040160146101000a81548160ff0219169083600281111561052757610526611238565b5b021790555081816005018190555060008160060181905550600081600701819055506000816008018190555060018160090160006101000a81548160ff02191690831515021790555060008160090160016101000a81548160ff021916908360ff1602179055507ffa127411522a1139d16c2142db999e127aef2288bd98a0558006bb115666ab1b8787878787876040516105c796959493929190611048565b60405180910390a150505050505050565b6000806000858152602001908152602001600020600084815260200190815260200160002060008381526020019081526020016000206008015490509392505050565b8173ffffffffffffffffffffffffffffffffffffffff166000808781526020019081526020016000206000868152602001908152602001600020600085815260200190815260200160002060030160009054906101000a900473ffffffffffffffffffffffffffffffffffffffff1673ffffffffffffffffffffffffffffffffffffffff1614156106e1576040517f08c379a00000000000000000000000000000000000000000000000000000000081526004016106d890610f6d565b60405180910390fd5b8173ffffffffffffffffffffffffffffffffffffffff166000808781526020019081526020016000206000868152602001908152602001600020600085815260200190815260200160002060040160009054906101000a900473ffffffffffffffffffffffffffffffffffffffff1673ffffffffffffffffffffffffffffffffffffffff1614156107a7576040517f08c379a000000000000000000000000000000000000000000000000000000000815260040161079e90610fcd565b60405180910390fd5b6000808681526020019081526020016000206000858152602001908152602001600020600084815260200190815260200160002060050154600080878152602001908152602001600020600086815260200190815260200160002060008581526020019081526020016000206006015410610857576040517f08c379a000000000000000000000000000000000000000000000000000000000815260040161084e90610fed565b60405180910390fd5b600080600087815260200190815260200160002060008681526020019081526020016000206000858152602001908152602001600020600a0160008473ffffffffffffffffffffffffffffffffffffffff1673ffffffffffffffffffffffffffffffffffffffff16815260200190815260200160002060009054906101000a900460ff1660ff161461091e576040517f08c379a000000000000000000000000000000000000000000000000000000000815260040161091590610f4d565b60405180910390fd5b60018160ff161480610933575060028160ff16145b610972576040517f08c379a000000000000000000000000000000000000000000000000000000000815260040161096990610f2d565b60405180910390fd5b60008060008781526020019081526020016000206000868152602001908152602001600020600085815260200190815260200160002090508181600a0160008573ffffffffffffffffffffffffffffffffffffffff1673ffffffffffffffffffffffffffffffffffffffff16815260200190815260200160002060006101000a81548160ff021916908360ff16021790555060018260ff161415610a2b57806007016000815480929190610a25906111c0565b91905055505b60028260ff161415610a5257806008016000815480929190610a4c906111c0565b91905055505b806006016000815480929190610a67906111c0565b91905055507f20211b974adbe11ce3687d51504ce7ef1fcfbb9c00405ba7aca7b283903f345a8686863386604051610aa39594939291906110a9565b60405180910390a1806005015481600601541415610b8957806007015481600801541115610aee5760028160090160016101000a81548160ff021916908360ff160217905550610b0d565b60018160090160016101000a81548160ff021916908360ff1602179055505b60028160040160146101000a81548160ff02191690836002811115610b3557610b34611238565b5b02179055507fe59fdbc65a5dd63c529717c2a71d04b136038f05301755de242dd05990c028148686868460090160019054906101000a900460ff16604051610b8094939291906110fc565b60405180910390a15b505050505050565b60008060008581526020019081526020016000206000848152602001908152602001600020600083815260200190815260200160002060040160149054906101000a900460ff1690509392505050565b6000806000858152602001908152602001600020600084815260200190815260200160002060008381526020019081526020016000206007015490509392505050565b600081359050610c3381611544565b92915050565b600081359050610c488161155b565b92915050565b600081359050610c5d81611572565b92915050565b600080600060608486031215610c7c57610c7b611267565b5b6000610c8a86828701610c39565b9350506020610c9b86828701610c39565b9250506040610cac86828701610c39565b9150509250925092565b60008060008060008060c08789031215610cd357610cd2611267565b5b6000610ce189828a01610c39565b9650506020610cf289828a01610c39565b9550506040610d0389828a01610c39565b9450506060610d1489828a01610c24565b9350506080610d2589828a01610c24565b92505060a0610d3689828a01610c39565b9150509295509295509295565b600080600080600060a08688031215610d5f57610d5e611267565b5b6000610d6d88828901610c39565b9550506020610d7e88828901610c39565b9450506040610d8f88828901610c39565b9350506060610da088828901610c24565b9250506080610db188828901610c4e565b9150509295509295909350565b610dc781611152565b82525050565b610dd6816111ae565b82525050565b6000610de9605783611141565b9150610df48261126c565b606082019050919050565b6000610e0c602d83611141565b9150610e17826112e1565b604082019050919050565b6000610e2f603083611141565b9150610e3a82611330565b604082019050919050565b6000610e52603d83611141565b9150610e5d8261137f565b604082019050919050565b6000610e75604a83611141565b9150610e80826113ce565b606082019050919050565b6000610e98603983611141565b9150610ea382611443565b604082019050919050565b6000610ebb602083611141565b9150610ec682611492565b602082019050919050565b6000610ede604d83611141565b9150610ee9826114bb565b606082019050919050565b610efd81611197565b82525050565b610f0c816111a1565b82525050565b6000602082019050610f276000830184610dcd565b92915050565b60006020820190508181036000830152610f4681610ddc565b9050919050565b60006020820190508181036000830152610f6681610dff565b9050919050565b60006020820190508181036000830152610f8681610e22565b9050919050565b60006020820190508181036000830152610fa681610e45565b9050919050565b60006020820190508181036000830152610fc681610e68565b9050919050565b60006020820190508181036000830152610fe681610e8b565b9050919050565b6000602082019050818103600083015261100681610eae565b9050919050565b6000602082019050818103600083015261102681610ed1565b9050919050565b60006020820190506110426000830184610ef4565b92915050565b600060c08201905061105d6000830189610ef4565b61106a6020830188610ef4565b6110776040830187610ef4565b6110846060830186610dbe565b6110916080830185610dbe565b61109e60a0830184610ef4565b979650505050505050565b600060a0820190506110be6000830188610ef4565b6110cb6020830187610ef4565b6110d86040830186610ef4565b6110e56060830185610dbe565b6110f26080830184610f03565b9695505050505050565b60006080820190506111116000830187610ef4565b61111e6020830186610ef4565b61112b6040830185610ef4565b6111386060830184610f03565b95945050505050565b600082825260208201905092915050565b600061115d82611177565b9050919050565b600081905061117282611530565b919050565b600073ffffffffffffffffffffffffffffffffffffffff82169050919050565b6000819050919050565b600060ff82169050919050565b60006111b982611164565b9050919050565b60006111cb82611197565b91507fffffffffffffffffffffffffffffffffffffffffffffffffffffffffffffffff8214156111fe576111fd611209565b5b600182019050919050565b7f4e487b7100000000000000000000000000000000000000000000000000000000600052601160045260246000fd5b7f4e487b7100000000000000000000000000000000000000000000000000000000600052602160045260246000fd5b600080fd5b7f596f752068617665206e6f7420696e707574206120726967687420766f74652e60008201527f20596f752063616e2065697468657220766f7465203120666f7220526571756560208201527f73746572206f72203220666f722050726f76696465722e000000000000000000604082015250565b7f596f75206861766520616c726561647920766f7465642c20796f752063616e6e60008201527f6f7420766f746520616761696e00000000000000000000000000000000000000602082015250565b7f596f7520726169736564207468697320636f6e666c6963742e20596f7520636160008201527f6e6e6f7420766f7465206f6e2069742e00000000000000000000000000000000602082015250565b7f566f74696e6720686173206e6f74206265656e20636f6d706c6574656420796560008201527f742e20506c65617365207761697420666f7220697420746f20656e642e000000602082015250565b7f4e6f742065766572796f6e652068617320766f7465642c20706c65617365207060008201527f726f6d707420616c6c206f74686572206d656d62657273206f662070726f6a6560208201527f637420746f20766f746500000000000000000000000000000000000000000000604082015250565b7f596f752061726520696e766f6c76656420696e207468697320636f6e666c696360008201527f742e20596f752063616e6e6f7420766f7465206f6e2069742e00000000000000602082015250565b7f456e6f75676820766f7465732068617665206265656e20636f6c6c6563746564600082015250565b7f436f6e666c6963742068617320616c7265616479206265656e2063726561746560008201527f642e20506c6561736520646f206e6f7420637265617465206d6f72652074686160208201527f6e203120636f6e666c6963742e00000000000000000000000000000000000000604082015250565b6003811061154157611540611238565b5b50565b61154d81611152565b811461155857600080fd5b50565b61156481611197565b811461156f57600080fd5b50565b61157b816111a1565b811461158657600080fd5b5056fea2646970667358221220604b7e8954409a36e32e00cffb77ae958052e75be395444192cc7bcbf0c8a63e64736f6c63430008070033",
					"opcodes": "PUSH1 0x80 PUSH1 0x40 MSTORE CALLVALUE DUP1 ISZERO PUSH2 0x10 JUMPI PUSH1 0x0 DUP1 REVERT JUMPDEST POP PUSH2 0x15BF DUP1 PUSH2 0x20 PUSH1 0x0 CODECOPY PUSH1 0x0 RETURN INVALID PUSH1 0x80 PUSH1 0x40 MSTORE CALLVALUE DUP1 ISZERO PUSH2 0x10 JUMPI PUSH1 0x0 DUP1 REVERT JUMPDEST POP PUSH1 0x4 CALLDATASIZE LT PUSH2 0x7D JUMPI PUSH1 0x0 CALLDATALOAD PUSH1 0xE0 SHR DUP1 PUSH4 0x9AC78879 GT PUSH2 0x5B JUMPI DUP1 PUSH4 0x9AC78879 EQ PUSH2 0xFE JUMPI DUP1 PUSH4 0xC171BDF7 EQ PUSH2 0x12E JUMPI DUP1 PUSH4 0xCB4389CE EQ PUSH2 0x14A JUMPI DUP1 PUSH4 0xE3D87718 EQ PUSH2 0x17A JUMPI PUSH2 0x7D JUMP JUMPDEST DUP1 PUSH4 0x366CEF2 EQ PUSH2 0x82 JUMPI DUP1 PUSH4 0x3C45FE31 EQ PUSH2 0xB2 JUMPI DUP1 PUSH4 0x71606FB0 EQ PUSH2 0xE2 JUMPI JUMPDEST PUSH1 0x0 DUP1 REVERT JUMPDEST PUSH2 0x9C PUSH1 0x4 DUP1 CALLDATASIZE SUB DUP2 ADD SWAP1 PUSH2 0x97 SWAP2 SWAP1 PUSH2 0xC63 JUMP JUMPDEST PUSH2 0x1AA JUMP JUMPDEST PUSH1 0x40 MLOAD PUSH2 0xA9 SWAP2 SWAP1 PUSH2 0x102D JUMP JUMPDEST PUSH1 0x40 MLOAD DUP1 SWAP2 SUB SWAP1 RETURN JUMPDEST PUSH2 0xCC PUSH1 0x4 DUP1 CALLDATASIZE SUB DUP2 ADD SWAP1 PUSH2 0xC7 SWAP2 SWAP1 PUSH2 0xC63 JUMP JUMPDEST PUSH2 0x357 JUMP JUMPDEST PUSH1 0x40 MLOAD PUSH2 0xD9 SWAP2 SWAP1 PUSH2 0x102D JUMP JUMPDEST PUSH1 0x40 MLOAD DUP1 SWAP2 SUB SWAP1 RETURN JUMPDEST PUSH2 0xFC PUSH1 0x4 DUP1 CALLDATASIZE SUB DUP2 ADD SWAP1 PUSH2 0xF7 SWAP2 SWAP1 PUSH2 0xCB6 JUMP JUMPDEST PUSH2 0x39A JUMP JUMPDEST STOP JUMPDEST PUSH2 0x118 PUSH1 0x4 DUP1 CALLDATASIZE SUB DUP2 ADD SWAP1 PUSH2 0x113 SWAP2 SWAP1 PUSH2 0xC63 JUMP JUMPDEST PUSH2 0x5D8 JUMP JUMPDEST PUSH1 0x40 MLOAD PUSH2 0x125 SWAP2 SWAP1 PUSH2 0x102D JUMP JUMPDEST PUSH1 0x40 MLOAD DUP1 SWAP2 SUB SWAP1 RETURN JUMPDEST PUSH2 0x148 PUSH1 0x4 DUP1 CALLDATASIZE SUB DUP2 ADD SWAP1 PUSH2 0x143 SWAP2 SWAP1 PUSH2 0xD43 JUMP JUMPDEST PUSH2 0x61B JUMP JUMPDEST STOP JUMPDEST PUSH2 0x164 PUSH1 0x4 DUP1 CALLDATASIZE SUB DUP2 ADD SWAP1 PUSH2 0x15F SWAP2 SWAP1 PUSH2 0xC63 JUMP JUMPDEST PUSH2 0xB91 JUMP JUMPDEST PUSH1 0x40 MLOAD PUSH2 0x171 SWAP2 SWAP1 PUSH2 0xF12 JUMP JUMPDEST PUSH1 0x40 MLOAD DUP1 SWAP2 SUB SWAP1 RETURN JUMPDEST PUSH2 0x194 PUSH1 0x4 DUP1 CALLDATASIZE SUB DUP2 ADD SWAP1 PUSH2 0x18F SWAP2 SWAP1 PUSH2 0xC63 JUMP JUMPDEST PUSH2 0xBE1 JUMP JUMPDEST PUSH1 0x40 MLOAD PUSH2 0x1A1 SWAP2 SWAP1 PUSH2 0x102D JUMP JUMPDEST PUSH1 0x40 MLOAD DUP1 SWAP2 SUB SWAP1 RETURN JUMPDEST PUSH1 0x0 DUP1 PUSH1 0x0 DUP6 DUP2 MSTORE PUSH1 0x20 ADD SWAP1 DUP2 MSTORE PUSH1 0x20 ADD PUSH1 0x0 KECCAK256 PUSH1 0x0 DUP5 DUP2 MSTORE PUSH1 0x20 ADD SWAP1 DUP2 MSTORE PUSH1 0x20 ADD PUSH1 0x0 KECCAK256 PUSH1 0x0 DUP4 DUP2 MSTORE PUSH1 0x20 ADD SWAP1 DUP2 MSTORE PUSH1 0x20 ADD PUSH1 0x0 KECCAK256 PUSH1 0x5 ADD SLOAD PUSH1 0x0 DUP1 DUP7 DUP2 MSTORE PUSH1 0x20 ADD SWAP1 DUP2 MSTORE PUSH1 0x20 ADD PUSH1 0x0 KECCAK256 PUSH1 0x0 DUP6 DUP2 MSTORE PUSH1 0x20 ADD SWAP1 DUP2 MSTORE PUSH1 0x20 ADD PUSH1 0x0 KECCAK256 PUSH1 0x0 DUP5 DUP2 MSTORE PUSH1 0x20 ADD SWAP1 DUP2 MSTORE PUSH1 0x20 ADD PUSH1 0x0 KECCAK256 PUSH1 0x6 ADD SLOAD EQ PUSH2 0x25C JUMPI PUSH1 0x40 MLOAD PUSH32 0x8C379A000000000000000000000000000000000000000000000000000000000 DUP2 MSTORE PUSH1 0x4 ADD PUSH2 0x253 SWAP1 PUSH2 0xFAD JUMP JUMPDEST PUSH1 0x40 MLOAD DUP1 SWAP2 SUB SWAP1 REVERT JUMPDEST PUSH1 0x2 DUP1 DUP2 GT ISZERO PUSH2 0x26F JUMPI PUSH2 0x26E PUSH2 0x1238 JUMP JUMPDEST JUMPDEST PUSH1 0x0 DUP1 DUP7 DUP2 MSTORE PUSH1 0x20 ADD SWAP1 DUP2 MSTORE PUSH1 0x20 ADD PUSH1 0x0 KECCAK256 PUSH1 0x0 DUP6 DUP2 MSTORE PUSH1 0x20 ADD SWAP1 DUP2 MSTORE PUSH1 0x20 ADD PUSH1 0x0 KECCAK256 PUSH1 0x0 DUP5 DUP2 MSTORE PUSH1 0x20 ADD SWAP1 DUP2 MSTORE PUSH1 0x20 ADD PUSH1 0x0 KECCAK256 PUSH1 0x4 ADD PUSH1 0x14 SWAP1 SLOAD SWAP1 PUSH2 0x100 EXP SWAP1 DIV PUSH1 0xFF AND PUSH1 0x2 DUP2 GT ISZERO PUSH2 0x2C6 JUMPI PUSH2 0x2C5 PUSH2 0x1238 JUMP JUMPDEST JUMPDEST EQ PUSH2 0x306 JUMPI PUSH1 0x40 MLOAD PUSH32 0x8C379A000000000000000000000000000000000000000000000000000000000 DUP2 MSTORE PUSH1 0x4 ADD PUSH2 0x2FD SWAP1 PUSH2 0xF8D JUMP JUMPDEST PUSH1 0x40 MLOAD DUP1 SWAP2 SUB SWAP1 REVERT JUMPDEST PUSH1 0x0 DUP1 DUP6 DUP2 MSTORE PUSH1 0x20 ADD SWAP1 DUP2 MSTORE PUSH1 0x20 ADD PUSH1 0x0 KECCAK256 PUSH1 0x0 DUP5 DUP2 MSTORE PUSH1 0x20 ADD SWAP1 DUP2 MSTORE PUSH1 0x20 ADD PUSH1 0x0 KECCAK256 PUSH1 0x0 DUP4 DUP2 MSTORE PUSH1 0x20 ADD SWAP1 DUP2 MSTORE PUSH1 0x20 ADD PUSH1 0x0 KECCAK256 PUSH1 0x9 ADD PUSH1 0x1 SWAP1 SLOAD SWAP1 PUSH2 0x100 EXP SWAP1 DIV PUSH1 0xFF AND PUSH1 0xFF AND SWAP1 POP SWAP4 SWAP3 POP POP POP JUMP JUMPDEST PUSH1 0x0 DUP1 PUSH1 0x0 DUP6 DUP2 MSTORE PUSH1 0x20 ADD SWAP1 DUP2 MSTORE PUSH1 0x20 ADD PUSH1 0x0 KECCAK256 PUSH1 0x0 DUP5 DUP2 MSTORE PUSH1 0x20 ADD SWAP1 DUP2 MSTORE PUSH1 0x20 ADD PUSH1 0x0 KECCAK256 PUSH1 0x0 DUP4 DUP2 MSTORE PUSH1 0x20 ADD SWAP1 DUP2 MSTORE PUSH1 0x20 ADD PUSH1 0x0 KECCAK256 PUSH1 0x6 ADD SLOAD SWAP1 POP SWAP4 SWAP3 POP POP POP JUMP JUMPDEST PUSH1 0x1 ISZERO ISZERO PUSH1 0x0 DUP1 DUP9 DUP2 MSTORE PUSH1 0x20 ADD SWAP1 DUP2 MSTORE PUSH1 0x20 ADD PUSH1 0x0 KECCAK256 PUSH1 0x0 DUP8 DUP2 MSTORE PUSH1 0x20 ADD SWAP1 DUP2 MSTORE PUSH1 0x20 ADD PUSH1 0x0 KECCAK256 PUSH1 0x0 DUP7 DUP2 MSTORE PUSH1 0x20 ADD SWAP1 DUP2 MSTORE PUSH1 0x20 ADD PUSH1 0x0 KECCAK256 PUSH1 0x9 ADD PUSH1 0x0 SWAP1 SLOAD SWAP1 PUSH2 0x100 EXP SWAP1 DIV PUSH1 0xFF AND ISZERO ISZERO EQ ISZERO PUSH2 0x426 JUMPI PUSH1 0x40 MLOAD PUSH32 0x8C379A000000000000000000000000000000000000000000000000000000000 DUP2 MSTORE PUSH1 0x4 ADD PUSH2 0x41D SWAP1 PUSH2 0x100D JUMP JUMPDEST PUSH1 0x40 MLOAD DUP1 SWAP2 SUB SWAP1 REVERT JUMPDEST PUSH1 0x0 DUP1 PUSH1 0x0 DUP9 DUP2 MSTORE PUSH1 0x20 ADD SWAP1 DUP2 MSTORE PUSH1 0x20 ADD PUSH1 0x0 KECCAK256 PUSH1 0x0 DUP8 DUP2 MSTORE PUSH1 0x20 ADD SWAP1 DUP2 MSTORE PUSH1 0x20 ADD PUSH1 0x0 KECCAK256 PUSH1 0x0 DUP7 DUP2 MSTORE PUSH1 0x20 ADD SWAP1 DUP2 MSTORE PUSH1 0x20 ADD PUSH1 0x0 KECCAK256 SWAP1 POP DUP7 DUP2 PUSH1 0x0 ADD DUP2 SWAP1 SSTORE POP DUP6 DUP2 PUSH1 0x1 ADD DUP2 SWAP1 SSTORE POP DUP5 DUP2 PUSH1 0x2 ADD DUP2 SWAP1 SSTORE POP DUP4 DUP2 PUSH1 0x3 ADD PUSH1 0x0 PUSH2 0x100 EXP DUP2 SLOAD DUP2 PUSH20 0xFFFFFFFFFFFFFFFFFFFFFFFFFFFFFFFFFFFFFFFF MUL NOT AND SWAP1 DUP4 PUSH20 0xFFFFFFFFFFFFFFFFFFFFFFFFFFFFFFFFFFFFFFFF AND MUL OR SWAP1 SSTORE POP DUP3 DUP2 PUSH1 0x4 ADD PUSH1 0x0 PUSH2 0x100 EXP DUP2 SLOAD DUP2 PUSH20 0xFFFFFFFFFFFFFFFFFFFFFFFFFFFFFFFFFFFFFFFF MUL NOT AND SWAP1 DUP4 PUSH20 0xFFFFFFFFFFFFFFFFFFFFFFFFFFFFFFFFFFFFFFFF AND MUL OR SWAP1 SSTORE POP PUSH1 0x1 DUP2 PUSH1 0x4 ADD PUSH1 0x14 PUSH2 0x100 EXP DUP2 SLOAD DUP2 PUSH1 0xFF MUL NOT AND SWAP1 DUP4 PUSH1 0x2 DUP2 GT ISZERO PUSH2 0x527 JUMPI PUSH2 0x526 PUSH2 0x1238 JUMP JUMPDEST JUMPDEST MUL OR SWAP1 SSTORE POP DUP2 DUP2 PUSH1 0x5 ADD DUP2 SWAP1 SSTORE POP PUSH1 0x0 DUP2 PUSH1 0x6 ADD DUP2 SWAP1 SSTORE POP PUSH1 0x0 DUP2 PUSH1 0x7 ADD DUP2 SWAP1 SSTORE POP PUSH1 0x0 DUP2 PUSH1 0x8 ADD DUP2 SWAP1 SSTORE POP PUSH1 0x1 DUP2 PUSH1 0x9 ADD PUSH1 0x0 PUSH2 0x100 EXP DUP2 SLOAD DUP2 PUSH1 0xFF MUL NOT AND SWAP1 DUP4 ISZERO ISZERO MUL OR SWAP1 SSTORE POP PUSH1 0x0 DUP2 PUSH1 0x9 ADD PUSH1 0x1 PUSH2 0x100 EXP DUP2 SLOAD DUP2 PUSH1 0xFF MUL NOT AND SWAP1 DUP4 PUSH1 0xFF AND MUL OR SWAP1 SSTORE POP PUSH32 0xFA127411522A1139D16C2142DB999E127AEF2288BD98A0558006BB115666AB1B DUP8 DUP8 DUP8 DUP8 DUP8 DUP8 PUSH1 0x40 MLOAD PUSH2 0x5C7 SWAP7 SWAP6 SWAP5 SWAP4 SWAP3 SWAP2 SWAP1 PUSH2 0x1048 JUMP JUMPDEST PUSH1 0x40 MLOAD DUP1 SWAP2 SUB SWAP1 LOG1 POP POP POP POP POP POP POP JUMP JUMPDEST PUSH1 0x0 DUP1 PUSH1 0x0 DUP6 DUP2 MSTORE PUSH1 0x20 ADD SWAP1 DUP2 MSTORE PUSH1 0x20 ADD PUSH1 0x0 KECCAK256 PUSH1 0x0 DUP5 DUP2 MSTORE PUSH1 0x20 ADD SWAP1 DUP2 MSTORE PUSH1 0x20 ADD PUSH1 0x0 KECCAK256 PUSH1 0x0 DUP4 DUP2 MSTORE PUSH1 0x20 ADD SWAP1 DUP2 MSTORE PUSH1 0x20 ADD PUSH1 0x0 KECCAK256 PUSH1 0x8 ADD SLOAD SWAP1 POP SWAP4 SWAP3 POP POP POP JUMP JUMPDEST DUP2 PUSH20 0xFFFFFFFFFFFFFFFFFFFFFFFFFFFFFFFFFFFFFFFF AND PUSH1 0x0 DUP1 DUP8 DUP2 MSTORE PUSH1 0x20 ADD SWAP1 DUP2 MSTORE PUSH1 0x20 ADD PUSH1 0x0 KECCAK256 PUSH1 0x0 DUP7 DUP2 MSTORE PUSH1 0x20 ADD SWAP1 DUP2 MSTORE PUSH1 0x20 ADD PUSH1 0x0 KECCAK256 PUSH1 0x0 DUP6 DUP2 MSTORE PUSH1 0x20 ADD SWAP1 DUP2 MSTORE PUSH1 0x20 ADD PUSH1 0x0 KECCAK256 PUSH1 0x3 ADD PUSH1 0x0 SWAP1 SLOAD SWAP1 PUSH2 0x100 EXP SWAP1 DIV PUSH20 0xFFFFFFFFFFFFFFFFFFFFFFFFFFFFFFFFFFFFFFFF AND PUSH20 0xFFFFFFFFFFFFFFFFFFFFFFFFFFFFFFFFFFFFFFFF AND EQ ISZERO PUSH2 0x6E1 JUMPI PUSH1 0x40 MLOAD PUSH32 0x8C379A000000000000000000000000000000000000000000000000000000000 DUP2 MSTORE PUSH1 0x4 ADD PUSH2 0x6D8 SWAP1 PUSH2 0xF6D JUMP JUMPDEST PUSH1 0x40 MLOAD DUP1 SWAP2 SUB SWAP1 REVERT JUMPDEST DUP2 PUSH20 0xFFFFFFFFFFFFFFFFFFFFFFFFFFFFFFFFFFFFFFFF AND PUSH1 0x0 DUP1 DUP8 DUP2 MSTORE PUSH1 0x20 ADD SWAP1 DUP2 MSTORE PUSH1 0x20 ADD PUSH1 0x0 KECCAK256 PUSH1 0x0 DUP7 DUP2 MSTORE PUSH1 0x20 ADD SWAP1 DUP2 MSTORE PUSH1 0x20 ADD PUSH1 0x0 KECCAK256 PUSH1 0x0 DUP6 DUP2 MSTORE PUSH1 0x20 ADD SWAP1 DUP2 MSTORE PUSH1 0x20 ADD PUSH1 0x0 KECCAK256 PUSH1 0x4 ADD PUSH1 0x0 SWAP1 SLOAD SWAP1 PUSH2 0x100 EXP SWAP1 DIV PUSH20 0xFFFFFFFFFFFFFFFFFFFFFFFFFFFFFFFFFFFFFFFF AND PUSH20 0xFFFFFFFFFFFFFFFFFFFFFFFFFFFFFFFFFFFFFFFF AND EQ ISZERO PUSH2 0x7A7 JUMPI PUSH1 0x40 MLOAD PUSH32 0x8C379A000000000000000000000000000000000000000000000000000000000 DUP2 MSTORE PUSH1 0x4 ADD PUSH2 0x79E SWAP1 PUSH2 0xFCD JUMP JUMPDEST PUSH1 0x40 MLOAD DUP1 SWAP2 SUB SWAP1 REVERT JUMPDEST PUSH1 0x0 DUP1 DUP7 DUP2 MSTORE PUSH1 0x20 ADD SWAP1 DUP2 MSTORE PUSH1 0x20 ADD PUSH1 0x0 KECCAK256 PUSH1 0x0 DUP6 DUP2 MSTORE PUSH1 0x20 ADD SWAP1 DUP2 MSTORE PUSH1 0x20 ADD PUSH1 0x0 KECCAK256 PUSH1 0x0 DUP5 DUP2 MSTORE PUSH1 0x20 ADD SWAP1 DUP2 MSTORE PUSH1 0x20 ADD PUSH1 0x0 KECCAK256 PUSH1 0x5 ADD SLOAD PUSH1 0x0 DUP1 DUP8 DUP2 MSTORE PUSH1 0x20 ADD SWAP1 DUP2 MSTORE PUSH1 0x20 ADD PUSH1 0x0 KECCAK256 PUSH1 0x0 DUP7 DUP2 MSTORE PUSH1 0x20 ADD SWAP1 DUP2 MSTORE PUSH1 0x20 ADD PUSH1 0x0 KECCAK256 PUSH1 0x0 DUP6 DUP2 MSTORE PUSH1 0x20 ADD SWAP1 DUP2 MSTORE PUSH1 0x20 ADD PUSH1 0x0 KECCAK256 PUSH1 0x6 ADD SLOAD LT PUSH2 0x857 JUMPI PUSH1 0x40 MLOAD PUSH32 0x8C379A000000000000000000000000000000000000000000000000000000000 DUP2 MSTORE PUSH1 0x4 ADD PUSH2 0x84E SWAP1 PUSH2 0xFED JUMP JUMPDEST PUSH1 0x40 MLOAD DUP1 SWAP2 SUB SWAP1 REVERT JUMPDEST PUSH1 0x0 DUP1 PUSH1 0x0 DUP8 DUP2 MSTORE PUSH1 0x20 ADD SWAP1 DUP2 MSTORE PUSH1 0x20 ADD PUSH1 0x0 KECCAK256 PUSH1 0x0 DUP7 DUP2 MSTORE PUSH1 0x20 ADD SWAP1 DUP2 MSTORE PUSH1 0x20 ADD PUSH1 0x0 KECCAK256 PUSH1 0x0 DUP6 DUP2 MSTORE PUSH1 0x20 ADD SWAP1 DUP2 MSTORE PUSH1 0x20 ADD PUSH1 0x0 KECCAK256 PUSH1 0xA ADD PUSH1 0x0 DUP5 PUSH20 0xFFFFFFFFFFFFFFFFFFFFFFFFFFFFFFFFFFFFFFFF AND PUSH20 0xFFFFFFFFFFFFFFFFFFFFFFFFFFFFFFFFFFFFFFFF AND DUP2 MSTORE PUSH1 0x20 ADD SWAP1 DUP2 MSTORE PUSH1 0x20 ADD PUSH1 0x0 KECCAK256 PUSH1 0x0 SWAP1 SLOAD SWAP1 PUSH2 0x100 EXP SWAP1 DIV PUSH1 0xFF AND PUSH1 0xFF AND EQ PUSH2 0x91E JUMPI PUSH1 0x40 MLOAD PUSH32 0x8C379A000000000000000000000000000000000000000000000000000000000 DUP2 MSTORE PUSH1 0x4 ADD PUSH2 0x915 SWAP1 PUSH2 0xF4D JUMP JUMPDEST PUSH1 0x40 MLOAD DUP1 SWAP2 SUB SWAP1 REVERT JUMPDEST PUSH1 0x1 DUP2 PUSH1 0xFF AND EQ DUP1 PUSH2 0x933 JUMPI POP PUSH1 0x2 DUP2 PUSH1 0xFF AND EQ JUMPDEST PUSH2 0x972 JUMPI PUSH1 0x40 MLOAD PUSH32 0x8C379A000000000000000000000000000000000000000000000000000000000 DUP2 MSTORE PUSH1 0x4 ADD PUSH2 0x969 SWAP1 PUSH2 0xF2D JUMP JUMPDEST PUSH1 0x40 MLOAD DUP1 SWAP2 SUB SWAP1 REVERT JUMPDEST PUSH1 0x0 DUP1 PUSH1 0x0 DUP8 DUP2 MSTORE PUSH1 0x20 ADD SWAP1 DUP2 MSTORE PUSH1 0x20 ADD PUSH1 0x0 KECCAK256 PUSH1 0x0 DUP7 DUP2 MSTORE PUSH1 0x20 ADD SWAP1 DUP2 MSTORE PUSH1 0x20 ADD PUSH1 0x0 KECCAK256 PUSH1 0x0 DUP6 DUP2 MSTORE PUSH1 0x20 ADD SWAP1 DUP2 MSTORE PUSH1 0x20 ADD PUSH1 0x0 KECCAK256 SWAP1 POP DUP2 DUP2 PUSH1 0xA ADD PUSH1 0x0 DUP6 PUSH20 0xFFFFFFFFFFFFFFFFFFFFFFFFFFFFFFFFFFFFFFFF AND PUSH20 0xFFFFFFFFFFFFFFFFFFFFFFFFFFFFFFFFFFFFFFFF AND DUP2 MSTORE PUSH1 0x20 ADD SWAP1 DUP2 MSTORE PUSH1 0x20 ADD PUSH1 0x0 KECCAK256 PUSH1 0x0 PUSH2 0x100 EXP DUP2 SLOAD DUP2 PUSH1 0xFF MUL NOT AND SWAP1 DUP4 PUSH1 0xFF AND MUL OR SWAP1 SSTORE POP PUSH1 0x1 DUP3 PUSH1 0xFF AND EQ ISZERO PUSH2 0xA2B JUMPI DUP1 PUSH1 0x7 ADD PUSH1 0x0 DUP2 SLOAD DUP1 SWAP3 SWAP2 SWAP1 PUSH2 0xA25 SWAP1 PUSH2 0x11C0 JUMP JUMPDEST SWAP2 SWAP1 POP SSTORE POP JUMPDEST PUSH1 0x2 DUP3 PUSH1 0xFF AND EQ ISZERO PUSH2 0xA52 JUMPI DUP1 PUSH1 0x8 ADD PUSH1 0x0 DUP2 SLOAD DUP1 SWAP3 SWAP2 SWAP1 PUSH2 0xA4C SWAP1 PUSH2 0x11C0 JUMP JUMPDEST SWAP2 SWAP1 POP SSTORE POP JUMPDEST DUP1 PUSH1 0x6 ADD PUSH1 0x0 DUP2 SLOAD DUP1 SWAP3 SWAP2 SWAP1 PUSH2 0xA67 SWAP1 PUSH2 0x11C0 JUMP JUMPDEST SWAP2 SWAP1 POP SSTORE POP PUSH32 0x20211B974ADBE11CE3687D51504CE7EF1FCFBB9C00405BA7ACA7B283903F345A DUP7 DUP7 DUP7 CALLER DUP7 PUSH1 0x40 MLOAD PUSH2 0xAA3 SWAP6 SWAP5 SWAP4 SWAP3 SWAP2 SWAP1 PUSH2 0x10A9 JUMP JUMPDEST PUSH1 0x40 MLOAD DUP1 SWAP2 SUB SWAP1 LOG1 DUP1 PUSH1 0x5 ADD SLOAD DUP2 PUSH1 0x6 ADD SLOAD EQ ISZERO PUSH2 0xB89 JUMPI DUP1 PUSH1 0x7 ADD SLOAD DUP2 PUSH1 0x8 ADD SLOAD GT ISZERO PUSH2 0xAEE JUMPI PUSH1 0x2 DUP2 PUSH1 0x9 ADD PUSH1 0x1 PUSH2 0x100 EXP DUP2 SLOAD DUP2 PUSH1 0xFF MUL NOT AND SWAP1 DUP4 PUSH1 0xFF AND MUL OR SWAP1 SSTORE POP PUSH2 0xB0D JUMP JUMPDEST PUSH1 0x1 DUP2 PUSH1 0x9 ADD PUSH1 0x1 PUSH2 0x100 EXP DUP2 SLOAD DUP2 PUSH1 0xFF MUL NOT AND SWAP1 DUP4 PUSH1 0xFF AND MUL OR SWAP1 SSTORE POP JUMPDEST PUSH1 0x2 DUP2 PUSH1 0x4 ADD PUSH1 0x14 PUSH2 0x100 EXP DUP2 SLOAD DUP2 PUSH1 0xFF MUL NOT AND SWAP1 DUP4 PUSH1 0x2 DUP2 GT ISZERO PUSH2 0xB35 JUMPI PUSH2 0xB34 PUSH2 0x1238 JUMP JUMPDEST JUMPDEST MUL OR SWAP1 SSTORE POP PUSH32 0xE59FDBC65A5DD63C529717C2A71D04B136038F05301755DE242DD05990C02814 DUP7 DUP7 DUP7 DUP5 PUSH1 0x9 ADD PUSH1 0x1 SWAP1 SLOAD SWAP1 PUSH2 0x100 EXP SWAP1 DIV PUSH1 0xFF AND PUSH1 0x40 MLOAD PUSH2 0xB80 SWAP5 SWAP4 SWAP3 SWAP2 SWAP1 PUSH2 0x10FC JUMP JUMPDEST PUSH1 0x40 MLOAD DUP1 SWAP2 SUB SWAP1 LOG1 JUMPDEST POP POP POP POP POP POP JUMP JUMPDEST PUSH1 0x0 DUP1 PUSH1 0x0 DUP6 DUP2 MSTORE PUSH1 0x20 ADD SWAP1 DUP2 MSTORE PUSH1 0x20 ADD PUSH1 0x0 KECCAK256 PUSH1 0x0 DUP5 DUP2 MSTORE PUSH1 0x20 ADD SWAP1 DUP2 MSTORE PUSH1 0x20 ADD PUSH1 0x0 KECCAK256 PUSH1 0x0 DUP4 DUP2 MSTORE PUSH1 0x20 ADD SWAP1 DUP2 MSTORE PUSH1 0x20 ADD PUSH1 0x0 KECCAK256 PUSH1 0x4 ADD PUSH1 0x14 SWAP1 SLOAD SWAP1 PUSH2 0x100 EXP SWAP1 DIV PUSH1 0xFF AND SWAP1 POP SWAP4 SWAP3 POP POP POP JUMP JUMPDEST PUSH1 0x0 DUP1 PUSH1 0x0 DUP6 DUP2 MSTORE PUSH1 0x20 ADD SWAP1 DUP2 MSTORE PUSH1 0x20 ADD PUSH1 0x0 KECCAK256 PUSH1 0x0 DUP5 DUP2 MSTORE PUSH1 0x20 ADD SWAP1 DUP2 MSTORE PUSH1 0x20 ADD PUSH1 0x0 KECCAK256 PUSH1 0x0 DUP4 DUP2 MSTORE PUSH1 0x20 ADD SWAP1 DUP2 MSTORE PUSH1 0x20 ADD PUSH1 0x0 KECCAK256 PUSH1 0x7 ADD SLOAD SWAP1 POP SWAP4 SWAP3 POP POP POP JUMP JUMPDEST PUSH1 0x0 DUP2 CALLDATALOAD SWAP1 POP PUSH2 0xC33 DUP2 PUSH2 0x1544 JUMP JUMPDEST SWAP3 SWAP2 POP POP JUMP JUMPDEST PUSH1 0x0 DUP2 CALLDATALOAD SWAP1 POP PUSH2 0xC48 DUP2 PUSH2 0x155B JUMP JUMPDEST SWAP3 SWAP2 POP POP JUMP JUMPDEST PUSH1 0x0 DUP2 CALLDATALOAD SWAP1 POP PUSH2 0xC5D DUP2 PUSH2 0x1572 JUMP JUMPDEST SWAP3 SWAP2 POP POP JUMP JUMPDEST PUSH1 0x0 DUP1 PUSH1 0x0 PUSH1 0x60 DUP5 DUP7 SUB SLT ISZERO PUSH2 0xC7C JUMPI PUSH2 0xC7B PUSH2 0x1267 JUMP JUMPDEST JUMPDEST PUSH1 0x0 PUSH2 0xC8A DUP7 DUP3 DUP8 ADD PUSH2 0xC39 JUMP JUMPDEST SWAP4 POP POP PUSH1 0x20 PUSH2 0xC9B DUP7 DUP3 DUP8 ADD PUSH2 0xC39 JUMP JUMPDEST SWAP3 POP POP PUSH1 0x40 PUSH2 0xCAC DUP7 DUP3 DUP8 ADD PUSH2 0xC39 JUMP JUMPDEST SWAP2 POP POP SWAP3 POP SWAP3 POP SWAP3 JUMP JUMPDEST PUSH1 0x0 DUP1 PUSH1 0x0 DUP1 PUSH1 0x0 DUP1 PUSH1 0xC0 DUP8 DUP10 SUB SLT ISZERO PUSH2 0xCD3 JUMPI PUSH2 0xCD2 PUSH2 0x1267 JUMP JUMPDEST JUMPDEST PUSH1 0x0 PUSH2 0xCE1 DUP10 DUP3 DUP11 ADD PUSH2 0xC39 JUMP JUMPDEST SWAP7 POP POP PUSH1 0x20 PUSH2 0xCF2 DUP10 DUP3 DUP11 ADD PUSH2 0xC39 JUMP JUMPDEST SWAP6 POP POP PUSH1 0x40 PUSH2 0xD03 DUP10 DUP3 DUP11 ADD PUSH2 0xC39 JUMP JUMPDEST SWAP5 POP POP PUSH1 0x60 PUSH2 0xD14 DUP10 DUP3 DUP11 ADD PUSH2 0xC24 JUMP JUMPDEST SWAP4 POP POP PUSH1 0x80 PUSH2 0xD25 DUP10 DUP3 DUP11 ADD PUSH2 0xC24 JUMP JUMPDEST SWAP3 POP POP PUSH1 0xA0 PUSH2 0xD36 DUP10 DUP3 DUP11 ADD PUSH2 0xC39 JUMP JUMPDEST SWAP2 POP POP SWAP3 SWAP6 POP SWAP3 SWAP6 POP SWAP3 SWAP6 JUMP JUMPDEST PUSH1 0x0 DUP1 PUSH1 0x0 DUP1 PUSH1 0x0 PUSH1 0xA0 DUP7 DUP9 SUB SLT ISZERO PUSH2 0xD5F JUMPI PUSH2 0xD5E PUSH2 0x1267 JUMP JUMPDEST JUMPDEST PUSH1 0x0 PUSH2 0xD6D DUP9 DUP3 DUP10 ADD PUSH2 0xC39 JUMP JUMPDEST SWAP6 POP POP PUSH1 0x20 PUSH2 0xD7E DUP9 DUP3 DUP10 ADD PUSH2 0xC39 JUMP JUMPDEST SWAP5 POP POP PUSH1 0x40 PUSH2 0xD8F DUP9 DUP3 DUP10 ADD PUSH2 0xC39 JUMP JUMPDEST SWAP4 POP POP PUSH1 0x60 PUSH2 0xDA0 DUP9 DUP3 DUP10 ADD PUSH2 0xC24 JUMP JUMPDEST SWAP3 POP POP PUSH1 0x80 PUSH2 0xDB1 DUP9 DUP3 DUP10 ADD PUSH2 0xC4E JUMP JUMPDEST SWAP2 POP POP SWAP3 SWAP6 POP SWAP3 SWAP6 SWAP1 SWAP4 POP JUMP JUMPDEST PUSH2 0xDC7 DUP2 PUSH2 0x1152 JUMP JUMPDEST DUP3 MSTORE POP POP JUMP JUMPDEST PUSH2 0xDD6 DUP2 PUSH2 0x11AE JUMP JUMPDEST DUP3 MSTORE POP POP JUMP JUMPDEST PUSH1 0x0 PUSH2 0xDE9 PUSH1 0x57 DUP4 PUSH2 0x1141 JUMP JUMPDEST SWAP2 POP PUSH2 0xDF4 DUP3 PUSH2 0x126C JUMP JUMPDEST PUSH1 0x60 DUP3 ADD SWAP1 POP SWAP2 SWAP1 POP JUMP JUMPDEST PUSH1 0x0 PUSH2 0xE0C PUSH1 0x2D DUP4 PUSH2 0x1141 JUMP JUMPDEST SWAP2 POP PUSH2 0xE17 DUP3 PUSH2 0x12E1 JUMP JUMPDEST PUSH1 0x40 DUP3 ADD SWAP1 POP SWAP2 SWAP1 POP JUMP JUMPDEST PUSH1 0x0 PUSH2 0xE2F PUSH1 0x30 DUP4 PUSH2 0x1141 JUMP JUMPDEST SWAP2 POP PUSH2 0xE3A DUP3 PUSH2 0x1330 JUMP JUMPDEST PUSH1 0x40 DUP3 ADD SWAP1 POP SWAP2 SWAP1 POP JUMP JUMPDEST PUSH1 0x0 PUSH2 0xE52 PUSH1 0x3D DUP4 PUSH2 0x1141 JUMP JUMPDEST SWAP2 POP PUSH2 0xE5D DUP3 PUSH2 0x137F JUMP JUMPDEST PUSH1 0x40 DUP3 ADD SWAP1 POP SWAP2 SWAP1 POP JUMP JUMPDEST PUSH1 0x0 PUSH2 0xE75 PUSH1 0x4A DUP4 PUSH2 0x1141 JUMP JUMPDEST SWAP2 POP PUSH2 0xE80 DUP3 PUSH2 0x13CE JUMP JUMPDEST PUSH1 0x60 DUP3 ADD SWAP1 POP SWAP2 SWAP1 POP JUMP JUMPDEST PUSH1 0x0 PUSH2 0xE98 PUSH1 0x39 DUP4 PUSH2 0x1141 JUMP JUMPDEST SWAP2 POP PUSH2 0xEA3 DUP3 PUSH2 0x1443 JUMP JUMPDEST PUSH1 0x40 DUP3 ADD SWAP1 POP SWAP2 SWAP1 POP JUMP JUMPDEST PUSH1 0x0 PUSH2 0xEBB PUSH1 0x20 DUP4 PUSH2 0x1141 JUMP JUMPDEST SWAP2 POP PUSH2 0xEC6 DUP3 PUSH2 0x1492 JUMP JUMPDEST PUSH1 0x20 DUP3 ADD SWAP1 POP SWAP2 SWAP1 POP JUMP JUMPDEST PUSH1 0x0 PUSH2 0xEDE PUSH1 0x4D DUP4 PUSH2 0x1141 JUMP JUMPDEST SWAP2 POP PUSH2 0xEE9 DUP3 PUSH2 0x14BB JUMP JUMPDEST PUSH1 0x60 DUP3 ADD SWAP1 POP SWAP2 SWAP1 POP JUMP JUMPDEST PUSH2 0xEFD DUP2 PUSH2 0x1197 JUMP JUMPDEST DUP3 MSTORE POP POP JUMP JUMPDEST PUSH2 0xF0C DUP2 PUSH2 0x11A1 JUMP JUMPDEST DUP3 MSTORE POP POP JUMP JUMPDEST PUSH1 0x0 PUSH1 0x20 DUP3 ADD SWAP1 POP PUSH2 0xF27 PUSH1 0x0 DUP4 ADD DUP5 PUSH2 0xDCD JUMP JUMPDEST SWAP3 SWAP2 POP POP JUMP JUMPDEST PUSH1 0x0 PUSH1 0x20 DUP3 ADD SWAP1 POP DUP2 DUP2 SUB PUSH1 0x0 DUP4 ADD MSTORE PUSH2 0xF46 DUP2 PUSH2 0xDDC JUMP JUMPDEST SWAP1 POP SWAP2 SWAP1 POP JUMP JUMPDEST PUSH1 0x0 PUSH1 0x20 DUP3 ADD SWAP1 POP DUP2 DUP2 SUB PUSH1 0x0 DUP4 ADD MSTORE PUSH2 0xF66 DUP2 PUSH2 0xDFF JUMP JUMPDEST SWAP1 POP SWAP2 SWAP1 POP JUMP JUMPDEST PUSH1 0x0 PUSH1 0x20 DUP3 ADD SWAP1 POP DUP2 DUP2 SUB PUSH1 0x0 DUP4 ADD MSTORE PUSH2 0xF86 DUP2 PUSH2 0xE22 JUMP JUMPDEST SWAP1 POP SWAP2 SWAP1 POP JUMP JUMPDEST PUSH1 0x0 PUSH1 0x20 DUP3 ADD SWAP1 POP DUP2 DUP2 SUB PUSH1 0x0 DUP4 ADD MSTORE PUSH2 0xFA6 DUP2 PUSH2 0xE45 JUMP JUMPDEST SWAP1 POP SWAP2 SWAP1 POP JUMP JUMPDEST PUSH1 0x0 PUSH1 0x20 DUP3 ADD SWAP1 POP DUP2 DUP2 SUB PUSH1 0x0 DUP4 ADD MSTORE PUSH2 0xFC6 DUP2 PUSH2 0xE68 JUMP JUMPDEST SWAP1 POP SWAP2 SWAP1 POP JUMP JUMPDEST PUSH1 0x0 PUSH1 0x20 DUP3 ADD SWAP1 POP DUP2 DUP2 SUB PUSH1 0x0 DUP4 ADD MSTORE PUSH2 0xFE6 DUP2 PUSH2 0xE8B JUMP JUMPDEST SWAP1 POP SWAP2 SWAP1 POP JUMP JUMPDEST PUSH1 0x0 PUSH1 0x20 DUP3 ADD SWAP1 POP DUP2 DUP2 SUB PUSH1 0x0 DUP4 ADD MSTORE PUSH2 0x1006 DUP2 PUSH2 0xEAE JUMP JUMPDEST SWAP1 POP SWAP2 SWAP1 POP JUMP JUMPDEST PUSH1 0x0 PUSH1 0x20 DUP3 ADD SWAP1 POP DUP2 DUP2 SUB PUSH1 0x0 DUP4 ADD MSTORE PUSH2 0x1026 DUP2 PUSH2 0xED1 JUMP JUMPDEST SWAP1 POP SWAP2 SWAP1 POP JUMP JUMPDEST PUSH1 0x0 PUSH1 0x20 DUP3 ADD SWAP1 POP PUSH2 0x1042 PUSH1 0x0 DUP4 ADD DUP5 PUSH2 0xEF4 JUMP JUMPDEST SWAP3 SWAP2 POP POP JUMP JUMPDEST PUSH1 0x0 PUSH1 0xC0 DUP3 ADD SWAP1 POP PUSH2 0x105D PUSH1 0x0 DUP4 ADD DUP10 PUSH2 0xEF4 JUMP JUMPDEST PUSH2 0x106A PUSH1 0x20 DUP4 ADD DUP9 PUSH2 0xEF4 JUMP JUMPDEST PUSH2 0x1077 PUSH1 0x40 DUP4 ADD DUP8 PUSH2 0xEF4 JUMP JUMPDEST PUSH2 0x1084 PUSH1 0x60 DUP4 ADD DUP7 PUSH2 0xDBE JUMP JUMPDEST PUSH2 0x1091 PUSH1 0x80 DUP4 ADD DUP6 PUSH2 0xDBE JUMP JUMPDEST PUSH2 0x109E PUSH1 0xA0 DUP4 ADD DUP5 PUSH2 0xEF4 JUMP JUMPDEST SWAP8 SWAP7 POP POP POP POP POP POP POP JUMP JUMPDEST PUSH1 0x0 PUSH1 0xA0 DUP3 ADD SWAP1 POP PUSH2 0x10BE PUSH1 0x0 DUP4 ADD DUP9 PUSH2 0xEF4 JUMP JUMPDEST PUSH2 0x10CB PUSH1 0x20 DUP4 ADD DUP8 PUSH2 0xEF4 JUMP JUMPDEST PUSH2 0x10D8 PUSH1 0x40 DUP4 ADD DUP7 PUSH2 0xEF4 JUMP JUMPDEST PUSH2 0x10E5 PUSH1 0x60 DUP4 ADD DUP6 PUSH2 0xDBE JUMP JUMPDEST PUSH2 0x10F2 PUSH1 0x80 DUP4 ADD DUP5 PUSH2 0xF03 JUMP JUMPDEST SWAP7 SWAP6 POP POP POP POP POP POP JUMP JUMPDEST PUSH1 0x0 PUSH1 0x80 DUP3 ADD SWAP1 POP PUSH2 0x1111 PUSH1 0x0 DUP4 ADD DUP8 PUSH2 0xEF4 JUMP JUMPDEST PUSH2 0x111E PUSH1 0x20 DUP4 ADD DUP7 PUSH2 0xEF4 JUMP JUMPDEST PUSH2 0x112B PUSH1 0x40 DUP4 ADD DUP6 PUSH2 0xEF4 JUMP JUMPDEST PUSH2 0x1138 PUSH1 0x60 DUP4 ADD DUP5 PUSH2 0xF03 JUMP JUMPDEST SWAP6 SWAP5 POP POP POP POP POP JUMP JUMPDEST PUSH1 0x0 DUP3 DUP3 MSTORE PUSH1 0x20 DUP3 ADD SWAP1 POP SWAP3 SWAP2 POP POP JUMP JUMPDEST PUSH1 0x0 PUSH2 0x115D DUP3 PUSH2 0x1177 JUMP JUMPDEST SWAP1 POP SWAP2 SWAP1 POP JUMP JUMPDEST PUSH1 0x0 DUP2 SWAP1 POP PUSH2 0x1172 DUP3 PUSH2 0x1530 JUMP JUMPDEST SWAP2 SWAP1 POP JUMP JUMPDEST PUSH1 0x0 PUSH20 0xFFFFFFFFFFFFFFFFFFFFFFFFFFFFFFFFFFFFFFFF DUP3 AND SWAP1 POP SWAP2 SWAP1 POP JUMP JUMPDEST PUSH1 0x0 DUP2 SWAP1 POP SWAP2 SWAP1 POP JUMP JUMPDEST PUSH1 0x0 PUSH1 0xFF DUP3 AND SWAP1 POP SWAP2 SWAP1 POP JUMP JUMPDEST PUSH1 0x0 PUSH2 0x11B9 DUP3 PUSH2 0x1164 JUMP JUMPDEST SWAP1 POP SWAP2 SWAP1 POP JUMP JUMPDEST PUSH1 0x0 PUSH2 0x11CB DUP3 PUSH2 0x1197 JUMP JUMPDEST SWAP2 POP PUSH32 0xFFFFFFFFFFFFFFFFFFFFFFFFFFFFFFFFFFFFFFFFFFFFFFFFFFFFFFFFFFFFFFFF DUP3 EQ ISZERO PUSH2 0x11FE JUMPI PUSH2 0x11FD PUSH2 0x1209 JUMP JUMPDEST JUMPDEST PUSH1 0x1 DUP3 ADD SWAP1 POP SWAP2 SWAP1 POP JUMP JUMPDEST PUSH32 0x4E487B7100000000000000000000000000000000000000000000000000000000 PUSH1 0x0 MSTORE PUSH1 0x11 PUSH1 0x4 MSTORE PUSH1 0x24 PUSH1 0x0 REVERT JUMPDEST PUSH32 0x4E487B7100000000000000000000000000000000000000000000000000000000 PUSH1 0x0 MSTORE PUSH1 0x21 PUSH1 0x4 MSTORE PUSH1 0x24 PUSH1 0x0 REVERT JUMPDEST PUSH1 0x0 DUP1 REVERT JUMPDEST PUSH32 0x596F752068617665206E6F7420696E707574206120726967687420766F74652E PUSH1 0x0 DUP3 ADD MSTORE PUSH32 0x20596F752063616E2065697468657220766F7465203120666F72205265717565 PUSH1 0x20 DUP3 ADD MSTORE PUSH32 0x73746572206F72203220666F722050726F76696465722E000000000000000000 PUSH1 0x40 DUP3 ADD MSTORE POP JUMP JUMPDEST PUSH32 0x596F75206861766520616C726561647920766F7465642C20796F752063616E6E PUSH1 0x0 DUP3 ADD MSTORE PUSH32 0x6F7420766F746520616761696E00000000000000000000000000000000000000 PUSH1 0x20 DUP3 ADD MSTORE POP JUMP JUMPDEST PUSH32 0x596F7520726169736564207468697320636F6E666C6963742E20596F75206361 PUSH1 0x0 DUP3 ADD MSTORE PUSH32 0x6E6E6F7420766F7465206F6E2069742E00000000000000000000000000000000 PUSH1 0x20 DUP3 ADD MSTORE POP JUMP JUMPDEST PUSH32 0x566F74696E6720686173206E6F74206265656E20636F6D706C65746564207965 PUSH1 0x0 DUP3 ADD MSTORE PUSH32 0x742E20506C65617365207761697420666F7220697420746F20656E642E000000 PUSH1 0x20 DUP3 ADD MSTORE POP JUMP JUMPDEST PUSH32 0x4E6F742065766572796F6E652068617320766F7465642C20706C656173652070 PUSH1 0x0 DUP3 ADD MSTORE PUSH32 0x726F6D707420616C6C206F74686572206D656D62657273206F662070726F6A65 PUSH1 0x20 DUP3 ADD MSTORE PUSH32 0x637420746F20766F746500000000000000000000000000000000000000000000 PUSH1 0x40 DUP3 ADD MSTORE POP JUMP JUMPDEST PUSH32 0x596F752061726520696E766F6C76656420696E207468697320636F6E666C6963 PUSH1 0x0 DUP3 ADD MSTORE PUSH32 0x742E20596F752063616E6E6F7420766F7465206F6E2069742E00000000000000 PUSH1 0x20 DUP3 ADD MSTORE POP JUMP JUMPDEST PUSH32 0x456E6F75676820766F7465732068617665206265656E20636F6C6C6563746564 PUSH1 0x0 DUP3 ADD MSTORE POP JUMP JUMPDEST PUSH32 0x436F6E666C6963742068617320616C7265616479206265656E20637265617465 PUSH1 0x0 DUP3 ADD MSTORE PUSH32 0x642E20506C6561736520646F206E6F7420637265617465206D6F726520746861 PUSH1 0x20 DUP3 ADD MSTORE PUSH32 0x6E203120636F6E666C6963742E00000000000000000000000000000000000000 PUSH1 0x40 DUP3 ADD MSTORE POP JUMP JUMPDEST PUSH1 0x3 DUP2 LT PUSH2 0x1541 JUMPI PUSH2 0x1540 PUSH2 0x1238 JUMP JUMPDEST JUMPDEST POP JUMP JUMPDEST PUSH2 0x154D DUP2 PUSH2 0x1152 JUMP JUMPDEST DUP2 EQ PUSH2 0x1558 JUMPI PUSH1 0x0 DUP1 REVERT JUMPDEST POP JUMP JUMPDEST PUSH2 0x1564 DUP2 PUSH2 0x1197 JUMP JUMPDEST DUP2 EQ PUSH2 0x156F JUMPI PUSH1 0x0 DUP1 REVERT JUMPDEST POP JUMP JUMPDEST PUSH2 0x157B DUP2 PUSH2 0x11A1 JUMP JUMPDEST DUP2 EQ PUSH2 0x1586 JUMPI PUSH1 0x0 DUP1 REVERT JUMPDEST POP JUMP INVALID LOG2 PUSH5 0x6970667358 0x22 SLT KECCAK256 PUSH1 0x4B PUSH31 0x8954409A36E32E00CFFB77AE958052E75BE395444192CC7BCBF0C8A63E6473 PUSH16 0x6C634300080700330000000000000000 "
				},
				"gasEstimates": {
					"creation": {
						"codeDepositCost": "1113400",
						"executionCost": "1154",
						"totalCost": "1114554"
					},
					"external": {
						"createConflict(uint256,uint256,uint256,address,address,uint256)": "infinite",
						"getConflictStatus(uint256,uint256,uint256)": "infinite",
						"getResults(uint256,uint256,uint256)": "infinite",
						"getVotesCollected(uint256,uint256,uint256)": "infinite",
						"getVotesforProvider(uint256,uint256,uint256)": "infinite",
						"getVotesforRequester(uint256,uint256,uint256)": "infinite",
						"voteConflict(uint256,uint256,uint256,address,uint8)": "infinite"
					}
				},
				"methodIdentifiers": {
					"createConflict(uint256,uint256,uint256,address,address,uint256)": "71606fb0",
					"getConflictStatus(uint256,uint256,uint256)": "cb4389ce",
					"getResults(uint256,uint256,uint256)": "0366cef2",
					"getVotesCollected(uint256,uint256,uint256)": "3c45fe31",
					"getVotesforProvider(uint256,uint256,uint256)": "9ac78879",
					"getVotesforRequester(uint256,uint256,uint256)": "e3d87718",
					"voteConflict(uint256,uint256,uint256,address,uint8)": "c171bdf7"
				}
			},
			"userdoc": {
				"kind": "user",
				"methods": {},
				"version": 1
			}
		}
	}
}