{
	"contracts/Milestone.sol": {
		"Milestone": {
			"abi": [
				{
					"inputs": [
						{
							"internalType": "contract Conflict",
							"name": "conflictContract",
							"type": "address"
						}
					],
					"stateMutability": "nonpayable",
					"type": "constructor"
				},
				{
					"anonymous": false,
					"inputs": [
						{
							"indexed": false,
							"internalType": "uint256",
							"name": "projectNumber",
							"type": "uint256"
						},
						{
							"indexed": false,
							"internalType": "uint256",
							"name": "serviceNumber",
							"type": "uint256"
						},
						{
							"indexed": false,
							"internalType": "uint256",
							"name": "milestoneNumber",
							"type": "uint256"
						},
						{
							"indexed": false,
							"internalType": "string",
							"name": "title",
							"type": "string"
						},
						{
							"indexed": false,
							"internalType": "string",
							"name": "description",
							"type": "string"
						}
					],
					"name": "milestoneCreated",
					"type": "event"
				},
				{
					"anonymous": false,
					"inputs": [
						{
							"indexed": false,
							"internalType": "uint256",
							"name": "projectNumber",
							"type": "uint256"
						},
						{
							"indexed": false,
							"internalType": "uint256",
							"name": "serviceNumber",
							"type": "uint256"
						},
						{
							"indexed": false,
							"internalType": "uint256",
							"name": "milestoneNumber",
							"type": "uint256"
						}
					],
					"name": "milestoneDeleted",
					"type": "event"
				},
				{
					"anonymous": false,
					"inputs": [
						{
							"indexed": false,
							"internalType": "uint256",
							"name": "projectNumber",
							"type": "uint256"
						},
						{
							"indexed": false,
							"internalType": "uint256",
							"name": "serviceNumber",
							"type": "uint256"
						},
						{
							"indexed": false,
							"internalType": "uint256",
							"name": "milestoneNumber",
							"type": "uint256"
						},
						{
							"indexed": false,
							"internalType": "string",
							"name": "title",
							"type": "string"
						},
						{
							"indexed": false,
							"internalType": "string",
							"name": "description",
							"type": "string"
						}
					],
					"name": "milestoneUpdated",
					"type": "event"
				},
				{
					"inputs": [
						{
							"internalType": "uint256",
							"name": "projectNumber",
							"type": "uint256"
						},
						{
							"internalType": "uint256",
							"name": "serviceNumber",
							"type": "uint256"
						},
						{
							"internalType": "string",
							"name": "title",
							"type": "string"
						},
						{
							"internalType": "string",
							"name": "description",
							"type": "string"
						}
					],
					"name": "createMilestone",
					"outputs": [],
					"stateMutability": "nonpayable",
					"type": "function"
				},
				{
					"inputs": [
						{
							"internalType": "uint256",
							"name": "projectNumber",
							"type": "uint256"
						},
						{
							"internalType": "uint256",
							"name": "serviceNumber",
							"type": "uint256"
						},
						{
							"internalType": "uint256",
							"name": "milestoneNumber",
							"type": "uint256"
						}
					],
					"name": "deleteMilestone",
					"outputs": [],
					"stateMutability": "nonpayable",
					"type": "function"
				},
				{
					"inputs": [
						{
							"internalType": "uint256",
							"name": "projectNumber",
							"type": "uint256"
						},
						{
							"internalType": "uint256",
							"name": "serviceNumber",
							"type": "uint256"
						},
						{
							"internalType": "uint256",
							"name": "milestoneNumber",
							"type": "uint256"
						}
					],
					"name": "readMilestone",
					"outputs": [
						{
							"internalType": "string",
							"name": "",
							"type": "string"
						},
						{
							"internalType": "string",
							"name": "",
							"type": "string"
						}
					],
					"stateMutability": "view",
					"type": "function"
				},
				{
					"inputs": [
						{
							"internalType": "uint256",
							"name": "projectNumber",
							"type": "uint256"
						},
						{
							"internalType": "uint256",
							"name": "serviceNumber",
							"type": "uint256"
						},
						{
							"internalType": "uint256",
							"name": "milestoneNumber",
							"type": "uint256"
						},
						{
							"internalType": "string",
							"name": "title",
							"type": "string"
						},
						{
							"internalType": "string",
							"name": "description",
							"type": "string"
						}
					],
					"name": "updateMilestone",
					"outputs": [],
					"stateMutability": "nonpayable",
					"type": "function"
				}
			],
			"devdoc": {
				"kind": "dev",
				"methods": {},
				"version": 1
			},
			"evm": {
				"assembly": "    /* \"contracts/Milestone.sol\":92:3261  contract Milestone {... */\n  mstore(0x40, 0x80)\n    /* \"contracts/Milestone.sol\":1155:1156  0 */\n  0x00\n    /* \"contracts/Milestone.sol\":1130:1156  uint256 milestoneTotal = 0 */\n  0x02\n  sstore\n    /* \"contracts/Milestone.sol\":1185:1186  0 */\n  0x00\n    /* \"contracts/Milestone.sol\":1162:1186  uint256 milestoneNum = 0 */\n  0x03\n  sstore\n    /* \"contracts/Milestone.sol\":142:233  constructor (Conflict conflictContract) public {... */\n  callvalue\n  dup1\n  iszero\n  tag_1\n  jumpi\n  0x00\n  dup1\n  revert\ntag_1:\n  pop\n  mload(0x40)\n  sub(codesize, bytecodeSize)\n  dup1\n  bytecodeSize\n  dup4\n  codecopy\n  dup2\n  dup2\n  add\n  0x40\n  mstore\n  dup2\n  add\n  swap1\n  tag_2\n  swap2\n  swap1\n  tag_3\n  jump\t// in\ntag_2:\n    /* \"contracts/Milestone.sol\":210:226  conflictContract */\n  dup1\n    /* \"contracts/Milestone.sol\":199:207  conflict */\n  0x00\n  dup1\n    /* \"contracts/Milestone.sol\":199:226  conflict = conflictContract */\n  0x0100\n  exp\n  dup2\n  sload\n  dup2\n  0xffffffffffffffffffffffffffffffffffffffff\n  mul\n  not\n  and\n  swap1\n  dup4\n  0xffffffffffffffffffffffffffffffffffffffff\n  and\n  mul\n  or\n  swap1\n  sstore\n  pop\n    /* \"contracts/Milestone.sol\":142:233  constructor (Conflict conflictContract) public {... */\n  pop\n    /* \"contracts/Milestone.sol\":92:3261  contract Milestone {... */\n  jump(tag_6)\n    /* \"#utility.yul\":7:182   */\ntag_8:\n    /* \"#utility.yul\":80:85   */\n  0x00\n    /* \"#utility.yul\":111:117   */\n  dup2\n    /* \"#utility.yul\":105:118   */\n  mload\n    /* \"#utility.yul\":96:118   */\n  swap1\n  pop\n    /* \"#utility.yul\":127:176   */\n  tag_10\n    /* \"#utility.yul\":170:175   */\n  dup2\n    /* \"#utility.yul\":127:176   */\n  tag_11\n  jump\t// in\ntag_10:\n    /* \"#utility.yul\":7:182   */\n  swap3\n  swap2\n  pop\n  pop\n  jump\t// out\n    /* \"#utility.yul\":188:571   */\ntag_3:\n    /* \"#utility.yul\":274:280   */\n  0x00\n    /* \"#utility.yul\":323:325   */\n  0x20\n    /* \"#utility.yul\":311:320   */\n  dup3\n    /* \"#utility.yul\":302:309   */\n  dup5\n    /* \"#utility.yul\":298:321   */\n  sub\n    /* \"#utility.yul\":294:326   */\n  slt\n    /* \"#utility.yul\":291:410   */\n  iszero\n  tag_13\n  jumpi\n    /* \"#utility.yul\":329:408   */\n  tag_14\n  tag_15\n  jump\t// in\ntag_14:\n    /* \"#utility.yul\":291:410   */\ntag_13:\n    /* \"#utility.yul\":449:450   */\n  0x00\n    /* \"#utility.yul\":474:554   */\n  tag_16\n    /* \"#utility.yul\":546:553   */\n  dup5\n    /* \"#utility.yul\":537:543   */\n  dup3\n    /* \"#utility.yul\":526:535   */\n  dup6\n    /* \"#utility.yul\":522:544   */\n  add\n    /* \"#utility.yul\":474:554   */\n  tag_8\n  jump\t// in\ntag_16:\n    /* \"#utility.yul\":464:554   */\n  swap2\n  pop\n    /* \"#utility.yul\":420:564   */\n  pop\n    /* \"#utility.yul\":188:571   */\n  swap3\n  swap2\n  pop\n  pop\n  jump\t// out\n    /* \"#utility.yul\":658:754   */\ntag_19:\n    /* \"#utility.yul\":695:702   */\n  0x00\n    /* \"#utility.yul\":724:748   */\n  tag_21\n    /* \"#utility.yul\":742:747   */\n  dup3\n    /* \"#utility.yul\":724:748   */\n  tag_22\n  jump\t// in\ntag_21:\n    /* \"#utility.yul\":713:748   */\n  swap1\n  pop\n    /* \"#utility.yul\":658:754   */\n  swap2\n  swap1\n  pop\n  jump\t// out\n    /* \"#utility.yul\":760:872   */\ntag_23:\n    /* \"#utility.yul\":813:820   */\n  0x00\n    /* \"#utility.yul\":842:866   */\n  tag_25\n    /* \"#utility.yul\":860:865   */\n  dup3\n    /* \"#utility.yul\":842:866   */\n  tag_19\n  jump\t// in\ntag_25:\n    /* \"#utility.yul\":831:866   */\n  swap1\n  pop\n    /* \"#utility.yul\":760:872   */\n  swap2\n  swap1\n  pop\n  jump\t// out\n    /* \"#utility.yul\":878:1004   */\ntag_22:\n    /* \"#utility.yul\":915:922   */\n  0x00\n    /* \"#utility.yul\":955:997   */\n  0xffffffffffffffffffffffffffffffffffffffff\n    /* \"#utility.yul\":948:953   */\n  dup3\n    /* \"#utility.yul\":944:998   */\n  and\n    /* \"#utility.yul\":933:998   */\n  swap1\n  pop\n    /* \"#utility.yul\":878:1004   */\n  swap2\n  swap1\n  pop\n  jump\t// out\n    /* \"#utility.yul\":1133:1250   */\ntag_15:\n    /* \"#utility.yul\":1242:1243   */\n  0x00\n    /* \"#utility.yul\":1239:1240   */\n  dup1\n    /* \"#utility.yul\":1232:1244   */\n  revert\n    /* \"#utility.yul\":1256:1410   */\ntag_11:\n    /* \"#utility.yul\":1345:1385   */\n  tag_31\n    /* \"#utility.yul\":1379:1384   */\n  dup2\n    /* \"#utility.yul\":1345:1385   */\n  tag_23\n  jump\t// in\ntag_31:\n    /* \"#utility.yul\":1338:1343   */\n  dup2\n    /* \"#utility.yul\":1335:1386   */\n  eq\n    /* \"#utility.yul\":1325:1404   */\n  tag_32\n  jumpi\n    /* \"#utility.yul\":1400:1401   */\n  0x00\n    /* \"#utility.yul\":1397:1398   */\n  dup1\n    /* \"#utility.yul\":1390:1402   */\n  revert\n    /* \"#utility.yul\":1325:1404   */\ntag_32:\n    /* \"#utility.yul\":1256:1410   */\n  pop\n  jump\t// out\n    /* \"contracts/Milestone.sol\":92:3261  contract Milestone {... */\ntag_6:\n  dataSize(sub_0)\n  dup1\n  dataOffset(sub_0)\n  0x00\n  codecopy\n  0x00\n  return\nstop\n\nsub_0: assembly {\n        /* \"contracts/Milestone.sol\":92:3261  contract Milestone {... */\n      mstore(0x40, 0x80)\n      callvalue\n      dup1\n      iszero\n      tag_1\n      jumpi\n      0x00\n      dup1\n      revert\n    tag_1:\n      pop\n      jumpi(tag_2, lt(calldatasize, 0x04))\n      shr(0xe0, calldataload(0x00))\n      dup1\n      0x49428a62\n      eq\n      tag_3\n      jumpi\n      dup1\n      0x63ef8a50\n      eq\n      tag_4\n      jumpi\n      dup1\n      0xb9b6c5d4\n      eq\n      tag_5\n      jumpi\n      dup1\n      0xfd23c4bb\n      eq\n      tag_6\n      jumpi\n    tag_2:\n      0x00\n      dup1\n      revert\n        /* \"contracts/Milestone.sol\":2036:2388  function readMilestone(uint256 projectNumber, uint256 serviceNumber, uint256 milestoneNumber) external view returns (string memory , string memory ) {... */\n    tag_3:\n      tag_7\n      0x04\n      dup1\n      calldatasize\n      sub\n      dup2\n      add\n      swap1\n      tag_8\n      swap2\n      swap1\n      tag_9\n      jump\t// in\n    tag_8:\n      tag_10\n      jump\t// in\n    tag_7:\n      mload(0x40)\n      tag_11\n      swap3\n      swap2\n      swap1\n      tag_12\n      jump\t// in\n    tag_11:\n      mload(0x40)\n      dup1\n      swap2\n      sub\n      swap1\n      return\n        /* \"contracts/Milestone.sol\":1281:1989  function createMilestone(uint256 projectNumber, uint256 serviceNumber, string memory title, string memory description) external {... */\n    tag_4:\n      tag_13\n      0x04\n      dup1\n      calldatasize\n      sub\n      dup2\n      add\n      swap1\n      tag_14\n      swap2\n      swap1\n      tag_15\n      jump\t// in\n    tag_14:\n      tag_16\n      jump\t// in\n    tag_13:\n      stop\n        /* \"contracts/Milestone.sol\":2941:3257  function deleteMilestone(uint256 projectNumber, uint256 serviceNumber, uint256 milestoneNumber) external {... */\n    tag_5:\n      tag_17\n      0x04\n      dup1\n      calldatasize\n      sub\n      dup2\n      add\n      swap1\n      tag_18\n      swap2\n      swap1\n      tag_9\n      jump\t// in\n    tag_18:\n      tag_19\n      jump\t// in\n    tag_17:\n      stop\n        /* \"contracts/Milestone.sol\":2435:2893  function updateMilestone(uint256 projectNumber, uint256 serviceNumber, uint256 milestoneNumber, string memory title, string memory description) external {... */\n    tag_6:\n      tag_20\n      0x04\n      dup1\n      calldatasize\n      sub\n      dup2\n      add\n      swap1\n      tag_21\n      swap2\n      swap1\n      tag_22\n      jump\t// in\n    tag_21:\n      tag_23\n      jump\t// in\n    tag_20:\n      stop\n        /* \"contracts/Milestone.sol\":2036:2388  function readMilestone(uint256 projectNumber, uint256 serviceNumber, uint256 milestoneNumber) external view returns (string memory , string memory ) {... */\n    tag_10:\n        /* \"contracts/Milestone.sol\":2153:2166  string memory */\n      0x60\n        /* \"contracts/Milestone.sol\":2169:2182  string memory */\n      dup1\n        /* \"contracts/Milestone.sol\":2212:2230  servicesMilestones */\n      0x01\n        /* \"contracts/Milestone.sol\":2212:2245  servicesMilestones[projectNumber] */\n      0x00\n        /* \"contracts/Milestone.sol\":2231:2244  projectNumber */\n      dup7\n        /* \"contracts/Milestone.sol\":2212:2245  servicesMilestones[projectNumber] */\n      dup2\n      mstore\n      0x20\n      add\n      swap1\n      dup2\n      mstore\n      0x20\n      add\n      0x00\n      keccak256\n        /* \"contracts/Milestone.sol\":2212:2260  servicesMilestones[projectNumber][serviceNumber] */\n      0x00\n        /* \"contracts/Milestone.sol\":2246:2259  serviceNumber */\n      dup6\n        /* \"contracts/Milestone.sol\":2212:2260  servicesMilestones[projectNumber][serviceNumber] */\n      dup2\n      mstore\n      0x20\n      add\n      swap1\n      dup2\n      mstore\n      0x20\n      add\n      0x00\n      keccak256\n        /* \"contracts/Milestone.sol\":2212:2277  servicesMilestones[projectNumber][serviceNumber][milestoneNumber] */\n      0x00\n        /* \"contracts/Milestone.sol\":2261:2276  milestoneNumber */\n      dup5\n        /* \"contracts/Milestone.sol\":2212:2277  servicesMilestones[projectNumber][serviceNumber][milestoneNumber] */\n      dup2\n      mstore\n      0x20\n      add\n      swap1\n      dup2\n      mstore\n      0x20\n      add\n      0x00\n      keccak256\n        /* \"contracts/Milestone.sol\":2212:2283  servicesMilestones[projectNumber][serviceNumber][milestoneNumber].title */\n      0x03\n      add\n        /* \"contracts/Milestone.sol\":2294:2312  servicesMilestones */\n      0x01\n        /* \"contracts/Milestone.sol\":2294:2327  servicesMilestones[projectNumber] */\n      0x00\n        /* \"contracts/Milestone.sol\":2313:2326  projectNumber */\n      dup8\n        /* \"contracts/Milestone.sol\":2294:2327  servicesMilestones[projectNumber] */\n      dup2\n      mstore\n      0x20\n      add\n      swap1\n      dup2\n      mstore\n      0x20\n      add\n      0x00\n      keccak256\n        /* \"contracts/Milestone.sol\":2294:2342  servicesMilestones[projectNumber][serviceNumber] */\n      0x00\n        /* \"contracts/Milestone.sol\":2328:2341  serviceNumber */\n      dup7\n        /* \"contracts/Milestone.sol\":2294:2342  servicesMilestones[projectNumber][serviceNumber] */\n      dup2\n      mstore\n      0x20\n      add\n      swap1\n      dup2\n      mstore\n      0x20\n      add\n      0x00\n      keccak256\n        /* \"contracts/Milestone.sol\":2294:2359  servicesMilestones[projectNumber][serviceNumber][milestoneNumber] */\n      0x00\n        /* \"contracts/Milestone.sol\":2343:2358  milestoneNumber */\n      dup6\n        /* \"contracts/Milestone.sol\":2294:2359  servicesMilestones[projectNumber][serviceNumber][milestoneNumber] */\n      dup2\n      mstore\n      0x20\n      add\n      swap1\n      dup2\n      mstore\n      0x20\n      add\n      0x00\n      keccak256\n        /* \"contracts/Milestone.sol\":2294:2371  servicesMilestones[projectNumber][serviceNumber][milestoneNumber].description */\n      0x04\n      add\n        /* \"contracts/Milestone.sol\":2195:2381  return (... */\n      dup2\n      dup1\n      sload\n      tag_25\n      swap1\n      tag_26\n      jump\t// in\n    tag_25:\n      dup1\n      0x1f\n      add\n      0x20\n      dup1\n      swap2\n      div\n      mul\n      0x20\n      add\n      mload(0x40)\n      swap1\n      dup2\n      add\n      0x40\n      mstore\n      dup1\n      swap3\n      swap2\n      swap1\n      dup2\n      dup2\n      mstore\n      0x20\n      add\n      dup3\n      dup1\n      sload\n      tag_27\n      swap1\n      tag_26\n      jump\t// in\n    tag_27:\n      dup1\n      iszero\n      tag_28\n      jumpi\n      dup1\n      0x1f\n      lt\n      tag_29\n      jumpi\n      0x0100\n      dup1\n      dup4\n      sload\n      div\n      mul\n      dup4\n      mstore\n      swap2\n      0x20\n      add\n      swap2\n      jump(tag_28)\n    tag_29:\n      dup3\n      add\n      swap2\n      swap1\n      0x00\n      mstore\n      keccak256(0x00, 0x20)\n      swap1\n    tag_30:\n      dup2\n      sload\n      dup2\n      mstore\n      swap1\n      0x01\n      add\n      swap1\n      0x20\n      add\n      dup1\n      dup4\n      gt\n      tag_30\n      jumpi\n      dup3\n      swap1\n      sub\n      0x1f\n      and\n      dup3\n      add\n      swap2\n    tag_28:\n      pop\n      pop\n      pop\n      pop\n      pop\n      swap2\n      pop\n      dup1\n      dup1\n      sload\n      tag_31\n      swap1\n      tag_26\n      jump\t// in\n    tag_31:\n      dup1\n      0x1f\n      add\n      0x20\n      dup1\n      swap2\n      div\n      mul\n      0x20\n      add\n      mload(0x40)\n      swap1\n      dup2\n      add\n      0x40\n      mstore\n      dup1\n      swap3\n      swap2\n      swap1\n      dup2\n      dup2\n      mstore\n      0x20\n      add\n      dup3\n      dup1\n      sload\n      tag_32\n      swap1\n      tag_26\n      jump\t// in\n    tag_32:\n      dup1\n      iszero\n      tag_33\n      jumpi\n      dup1\n      0x1f\n      lt\n      tag_34\n      jumpi\n      0x0100\n      dup1\n      dup4\n      sload\n      div\n      mul\n      dup4\n      mstore\n      swap2\n      0x20\n      add\n      swap2\n      jump(tag_33)\n    tag_34:\n      dup3\n      add\n      swap2\n      swap1\n      0x00\n      mstore\n      keccak256(0x00, 0x20)\n      swap1\n    tag_35:\n      dup2\n      sload\n      dup2\n      mstore\n      swap1\n      0x01\n      add\n      swap1\n      0x20\n      add\n      dup1\n      dup4\n      gt\n      tag_35\n      jumpi\n      dup3\n      swap1\n      sub\n      0x1f\n      and\n      dup3\n      add\n      swap2\n    tag_33:\n      pop\n      pop\n      pop\n      pop\n      pop\n      swap1\n      pop\n      swap2\n      pop\n      swap2\n      pop\n        /* \"contracts/Milestone.sol\":2036:2388  function readMilestone(uint256 projectNumber, uint256 serviceNumber, uint256 milestoneNumber) external view returns (string memory , string memory ) {... */\n      swap4\n      pop\n      swap4\n      swap2\n      pop\n      pop\n      jump\t// out\n        /* \"contracts/Milestone.sol\":1281:1989  function createMilestone(uint256 projectNumber, uint256 serviceNumber, string memory title, string memory description) external {... */\n    tag_16:\n        /* \"contracts/Milestone.sol\":1420:1450  milestone storage newMilestone */\n      0x00\n        /* \"contracts/Milestone.sol\":1453:1471  servicesMilestones */\n      0x01\n        /* \"contracts/Milestone.sol\":1453:1486  servicesMilestones[projectNumber] */\n      0x00\n        /* \"contracts/Milestone.sol\":1472:1485  projectNumber */\n      dup7\n        /* \"contracts/Milestone.sol\":1453:1486  servicesMilestones[projectNumber] */\n      dup2\n      mstore\n      0x20\n      add\n      swap1\n      dup2\n      mstore\n      0x20\n      add\n      0x00\n      keccak256\n        /* \"contracts/Milestone.sol\":1453:1501  servicesMilestones[projectNumber][serviceNumber] */\n      0x00\n        /* \"contracts/Milestone.sol\":1487:1500  serviceNumber */\n      dup6\n        /* \"contracts/Milestone.sol\":1453:1501  servicesMilestones[projectNumber][serviceNumber] */\n      dup2\n      mstore\n      0x20\n      add\n      swap1\n      dup2\n      mstore\n      0x20\n      add\n      0x00\n      keccak256\n        /* \"contracts/Milestone.sol\":1453:1515  servicesMilestones[projectNumber][serviceNumber][milestoneNum] */\n      0x00\n        /* \"contracts/Milestone.sol\":1502:1514  milestoneNum */\n      sload(0x03)\n        /* \"contracts/Milestone.sol\":1453:1515  servicesMilestones[projectNumber][serviceNumber][milestoneNum] */\n      dup2\n      mstore\n      0x20\n      add\n      swap1\n      dup2\n      mstore\n      0x20\n      add\n      0x00\n      keccak256\n        /* \"contracts/Milestone.sol\":1420:1515  milestone storage newMilestone = servicesMilestones[projectNumber][serviceNumber][milestoneNum] */\n      swap1\n      pop\n        /* \"contracts/Milestone.sol\":1554:1567  projectNumber */\n      dup5\n        /* \"contracts/Milestone.sol\":1525:1537  newMilestone */\n      dup2\n        /* \"contracts/Milestone.sol\":1525:1551  newMilestone.projectNumber */\n      0x00\n      add\n        /* \"contracts/Milestone.sol\":1525:1567  newMilestone.projectNumber = projectNumber */\n      dup2\n      swap1\n      sstore\n      pop\n        /* \"contracts/Milestone.sol\":1606:1619  serviceNumber */\n      dup4\n        /* \"contracts/Milestone.sol\":1577:1589  newMilestone */\n      dup2\n        /* \"contracts/Milestone.sol\":1577:1603  newMilestone.serviceNumber */\n      0x01\n      add\n        /* \"contracts/Milestone.sol\":1577:1619  newMilestone.serviceNumber = serviceNumber */\n      dup2\n      swap1\n      sstore\n      pop\n        /* \"contracts/Milestone.sol\":1660:1672  milestoneNum */\n      sload(0x03)\n        /* \"contracts/Milestone.sol\":1629:1641  newMilestone */\n      dup2\n        /* \"contracts/Milestone.sol\":1629:1657  newMilestone.milestoneNumber */\n      0x02\n      add\n        /* \"contracts/Milestone.sol\":1629:1672  newMilestone.milestoneNumber = milestoneNum */\n      dup2\n      swap1\n      sstore\n      pop\n        /* \"contracts/Milestone.sol\":1703:1708  title */\n      dup3\n        /* \"contracts/Milestone.sol\":1682:1694  newMilestone */\n      dup2\n        /* \"contracts/Milestone.sol\":1682:1700  newMilestone.title */\n      0x03\n      add\n        /* \"contracts/Milestone.sol\":1682:1708  newMilestone.title = title */\n      swap1\n      dup1\n      mload\n      swap1\n      0x20\n      add\n      swap1\n      tag_37\n      swap3\n      swap2\n      swap1\n      tag_38\n      jump\t// in\n    tag_37:\n      pop\n        /* \"contracts/Milestone.sol\":1745:1756  description */\n      dup2\n        /* \"contracts/Milestone.sol\":1718:1730  newMilestone */\n      dup2\n        /* \"contracts/Milestone.sol\":1718:1742  newMilestone.description */\n      0x04\n      add\n        /* \"contracts/Milestone.sol\":1718:1756  newMilestone.description = description */\n      swap1\n      dup1\n      mload\n      swap1\n      0x20\n      add\n      swap1\n      tag_39\n      swap3\n      swap2\n      swap1\n      tag_38\n      jump\t// in\n    tag_39:\n      pop\n        /* \"contracts/Milestone.sol\":1787:1791  true */\n      0x01\n        /* \"contracts/Milestone.sol\":1766:1778  newMilestone */\n      dup2\n        /* \"contracts/Milestone.sol\":1766:1784  newMilestone.exist */\n      0x05\n      add\n      0x00\n        /* \"contracts/Milestone.sol\":1766:1791  newMilestone.exist = true */\n      0x0100\n      exp\n      dup2\n      sload\n      dup2\n      0xff\n      mul\n      not\n      and\n      swap1\n      dup4\n      iszero\n      iszero\n      mul\n      or\n      swap1\n      sstore\n      pop\n        /* \"contracts/Milestone.sol\":1823:1834  Status.none */\n      0x00\n        /* \"contracts/Milestone.sol\":1801:1813  newMilestone */\n      dup2\n        /* \"contracts/Milestone.sol\":1801:1820  newMilestone.status */\n      0x05\n      add\n      0x01\n        /* \"contracts/Milestone.sol\":1801:1834  newMilestone.status = Status.none */\n      0x0100\n      exp\n      dup2\n      sload\n      dup2\n      0xff\n      mul\n      not\n      and\n      swap1\n      dup4\n      0x06\n      dup2\n      gt\n      iszero\n      tag_40\n      jumpi\n      tag_41\n      tag_42\n      jump\t// in\n    tag_41:\n    tag_40:\n      mul\n      or\n      swap1\n      sstore\n      pop\n        /* \"contracts/Milestone.sol\":1850:1930  milestoneCreated(projectNumber, serviceNumber, milestoneNum, title, description) */\n      0x70d8b12d438dd130d28072c77c8047d9697b630b8dcd969123645998ad67d561\n        /* \"contracts/Milestone.sol\":1867:1880  projectNumber */\n      dup6\n        /* \"contracts/Milestone.sol\":1882:1895  serviceNumber */\n      dup6\n        /* \"contracts/Milestone.sol\":1897:1909  milestoneNum */\n      sload(0x03)\n        /* \"contracts/Milestone.sol\":1911:1916  title */\n      dup7\n        /* \"contracts/Milestone.sol\":1918:1929  description */\n      dup7\n        /* \"contracts/Milestone.sol\":1850:1930  milestoneCreated(projectNumber, serviceNumber, milestoneNum, title, description) */\n      mload(0x40)\n      tag_43\n      swap6\n      swap5\n      swap4\n      swap3\n      swap2\n      swap1\n      tag_44\n      jump\t// in\n    tag_43:\n      mload(0x40)\n      dup1\n      swap2\n      sub\n      swap1\n      log1\n        /* \"contracts/Milestone.sol\":1941:1955  milestoneTotal */\n      0x02\n      0x00\n        /* \"contracts/Milestone.sol\":1941:1957  milestoneTotal++ */\n      dup2\n      sload\n      dup1\n      swap3\n      swap2\n      swap1\n      tag_45\n      swap1\n      tag_46\n      jump\t// in\n    tag_45:\n      swap2\n      swap1\n      pop\n      sstore\n      pop\n        /* \"contracts/Milestone.sol\":1967:1979  milestoneNum */\n      0x03\n      0x00\n        /* \"contracts/Milestone.sol\":1967:1981  milestoneNum++ */\n      dup2\n      sload\n      dup1\n      swap3\n      swap2\n      swap1\n      tag_47\n      swap1\n      tag_46\n      jump\t// in\n    tag_47:\n      swap2\n      swap1\n      pop\n      sstore\n      pop\n        /* \"contracts/Milestone.sol\":1409:1989  {... */\n      pop\n        /* \"contracts/Milestone.sol\":1281:1989  function createMilestone(uint256 projectNumber, uint256 serviceNumber, string memory title, string memory description) external {... */\n      pop\n      pop\n      pop\n      pop\n      jump\t// out\n        /* \"contracts/Milestone.sol\":2941:3257  function deleteMilestone(uint256 projectNumber, uint256 serviceNumber, uint256 milestoneNumber) external {... */\n    tag_19:\n        /* \"contracts/Milestone.sol\":3131:3136  false */\n      0x00\n        /* \"contracts/Milestone.sol\":3057:3075  servicesMilestones */\n      0x01\n        /* \"contracts/Milestone.sol\":3057:3090  servicesMilestones[projectNumber] */\n      0x00\n        /* \"contracts/Milestone.sol\":3076:3089  projectNumber */\n      dup6\n        /* \"contracts/Milestone.sol\":3057:3090  servicesMilestones[projectNumber] */\n      dup2\n      mstore\n      0x20\n      add\n      swap1\n      dup2\n      mstore\n      0x20\n      add\n      0x00\n      keccak256\n        /* \"contracts/Milestone.sol\":3057:3105  servicesMilestones[projectNumber][serviceNumber] */\n      0x00\n        /* \"contracts/Milestone.sol\":3091:3104  serviceNumber */\n      dup5\n        /* \"contracts/Milestone.sol\":3057:3105  servicesMilestones[projectNumber][serviceNumber] */\n      dup2\n      mstore\n      0x20\n      add\n      swap1\n      dup2\n      mstore\n      0x20\n      add\n      0x00\n      keccak256\n        /* \"contracts/Milestone.sol\":3057:3122  servicesMilestones[projectNumber][serviceNumber][milestoneNumber] */\n      0x00\n        /* \"contracts/Milestone.sol\":3106:3121  milestoneNumber */\n      dup4\n        /* \"contracts/Milestone.sol\":3057:3122  servicesMilestones[projectNumber][serviceNumber][milestoneNumber] */\n      dup2\n      mstore\n      0x20\n      add\n      swap1\n      dup2\n      mstore\n      0x20\n      add\n      0x00\n      keccak256\n        /* \"contracts/Milestone.sol\":3057:3128  servicesMilestones[projectNumber][serviceNumber][milestoneNumber].exist */\n      0x05\n      add\n      0x00\n        /* \"contracts/Milestone.sol\":3057:3136  servicesMilestones[projectNumber][serviceNumber][milestoneNumber].exist = false */\n      0x0100\n      exp\n      dup2\n      sload\n      dup2\n      0xff\n      mul\n      not\n      and\n      swap1\n      dup4\n      iszero\n      iszero\n      mul\n      or\n      swap1\n      sstore\n      pop\n        /* \"contracts/Milestone.sol\":3155:3169  milestoneTotal */\n      0x02\n      0x00\n        /* \"contracts/Milestone.sol\":3155:3171  milestoneTotal-- */\n      dup2\n      sload\n      dup1\n      swap3\n      swap2\n      swap1\n      tag_49\n      swap1\n      tag_50\n      jump\t// in\n    tag_49:\n      swap2\n      swap1\n      pop\n      sstore\n      pop\n        /* \"contracts/Milestone.sol\":3187:3250  milestoneDeleted(projectNumber, serviceNumber, milestoneNumber) */\n      0x2b2605ee52ace237f72e6005eee79180ea3b6151bd8848a6be5e3c224b8a6ec6\n        /* \"contracts/Milestone.sol\":3204:3217  projectNumber */\n      dup4\n        /* \"contracts/Milestone.sol\":3219:3232  serviceNumber */\n      dup4\n        /* \"contracts/Milestone.sol\":3234:3249  milestoneNumber */\n      dup4\n        /* \"contracts/Milestone.sol\":3187:3250  milestoneDeleted(projectNumber, serviceNumber, milestoneNumber) */\n      mload(0x40)\n      tag_51\n      swap4\n      swap3\n      swap2\n      swap1\n      tag_52\n      jump\t// in\n    tag_51:\n      mload(0x40)\n      dup1\n      swap2\n      sub\n      swap1\n      log1\n        /* \"contracts/Milestone.sol\":2941:3257  function deleteMilestone(uint256 projectNumber, uint256 serviceNumber, uint256 milestoneNumber) external {... */\n      pop\n      pop\n      pop\n      jump\t// out\n        /* \"contracts/Milestone.sol\":2435:2893  function updateMilestone(uint256 projectNumber, uint256 serviceNumber, uint256 milestoneNumber, string memory title, string memory description) external {... */\n    tag_23:\n        /* \"contracts/Milestone.sol\":2681:2686  title */\n      dup2\n        /* \"contracts/Milestone.sol\":2607:2625  servicesMilestones */\n      0x01\n        /* \"contracts/Milestone.sol\":2607:2640  servicesMilestones[projectNumber] */\n      0x00\n        /* \"contracts/Milestone.sol\":2626:2639  projectNumber */\n      dup8\n        /* \"contracts/Milestone.sol\":2607:2640  servicesMilestones[projectNumber] */\n      dup2\n      mstore\n      0x20\n      add\n      swap1\n      dup2\n      mstore\n      0x20\n      add\n      0x00\n      keccak256\n        /* \"contracts/Milestone.sol\":2607:2655  servicesMilestones[projectNumber][serviceNumber] */\n      0x00\n        /* \"contracts/Milestone.sol\":2641:2654  serviceNumber */\n      dup7\n        /* \"contracts/Milestone.sol\":2607:2655  servicesMilestones[projectNumber][serviceNumber] */\n      dup2\n      mstore\n      0x20\n      add\n      swap1\n      dup2\n      mstore\n      0x20\n      add\n      0x00\n      keccak256\n        /* \"contracts/Milestone.sol\":2607:2672  servicesMilestones[projectNumber][serviceNumber][milestoneNumber] */\n      0x00\n        /* \"contracts/Milestone.sol\":2656:2671  milestoneNumber */\n      dup6\n        /* \"contracts/Milestone.sol\":2607:2672  servicesMilestones[projectNumber][serviceNumber][milestoneNumber] */\n      dup2\n      mstore\n      0x20\n      add\n      swap1\n      dup2\n      mstore\n      0x20\n      add\n      0x00\n      keccak256\n        /* \"contracts/Milestone.sol\":2607:2678  servicesMilestones[projectNumber][serviceNumber][milestoneNumber].title */\n      0x03\n      add\n        /* \"contracts/Milestone.sol\":2607:2686  servicesMilestones[projectNumber][serviceNumber][milestoneNumber].title = title */\n      swap1\n      dup1\n      mload\n      swap1\n      0x20\n      add\n      swap1\n      tag_54\n      swap3\n      swap2\n      swap1\n      tag_38\n      jump\t// in\n    tag_54:\n      pop\n        /* \"contracts/Milestone.sol\":2776:2787  description */\n      dup1\n        /* \"contracts/Milestone.sol\":2696:2714  servicesMilestones */\n      0x01\n        /* \"contracts/Milestone.sol\":2696:2729  servicesMilestones[projectNumber] */\n      0x00\n        /* \"contracts/Milestone.sol\":2715:2728  projectNumber */\n      dup8\n        /* \"contracts/Milestone.sol\":2696:2729  servicesMilestones[projectNumber] */\n      dup2\n      mstore\n      0x20\n      add\n      swap1\n      dup2\n      mstore\n      0x20\n      add\n      0x00\n      keccak256\n        /* \"contracts/Milestone.sol\":2696:2744  servicesMilestones[projectNumber][serviceNumber] */\n      0x00\n        /* \"contracts/Milestone.sol\":2730:2743  serviceNumber */\n      dup7\n        /* \"contracts/Milestone.sol\":2696:2744  servicesMilestones[projectNumber][serviceNumber] */\n      dup2\n      mstore\n      0x20\n      add\n      swap1\n      dup2\n      mstore\n      0x20\n      add\n      0x00\n      keccak256\n        /* \"contracts/Milestone.sol\":2696:2761  servicesMilestones[projectNumber][serviceNumber][milestoneNumber] */\n      0x00\n        /* \"contracts/Milestone.sol\":2745:2760  milestoneNumber */\n      dup6\n        /* \"contracts/Milestone.sol\":2696:2761  servicesMilestones[projectNumber][serviceNumber][milestoneNumber] */\n      dup2\n      mstore\n      0x20\n      add\n      swap1\n      dup2\n      mstore\n      0x20\n      add\n      0x00\n      keccak256\n        /* \"contracts/Milestone.sol\":2696:2773  servicesMilestones[projectNumber][serviceNumber][milestoneNumber].description */\n      0x04\n      add\n        /* \"contracts/Milestone.sol\":2696:2787  servicesMilestones[projectNumber][serviceNumber][milestoneNumber].description = description */\n      swap1\n      dup1\n      mload\n      swap1\n      0x20\n      add\n      swap1\n      tag_55\n      swap3\n      swap2\n      swap1\n      tag_38\n      jump\t// in\n    tag_55:\n      pop\n        /* \"contracts/Milestone.sol\":2803:2886  milestoneUpdated(projectNumber, serviceNumber, milestoneNumber, title, description) */\n      0x8c0d6ff1212c3fbf79bbe6dc1e26cc40c4e137ec5711d4471b16fa121f933511\n        /* \"contracts/Milestone.sol\":2820:2833  projectNumber */\n      dup6\n        /* \"contracts/Milestone.sol\":2835:2848  serviceNumber */\n      dup6\n        /* \"contracts/Milestone.sol\":2850:2865  milestoneNumber */\n      dup6\n        /* \"contracts/Milestone.sol\":2867:2872  title */\n      dup6\n        /* \"contracts/Milestone.sol\":2874:2885  description */\n      dup6\n        /* \"contracts/Milestone.sol\":2803:2886  milestoneUpdated(projectNumber, serviceNumber, milestoneNumber, title, description) */\n      mload(0x40)\n      tag_56\n      swap6\n      swap5\n      swap4\n      swap3\n      swap2\n      swap1\n      tag_44\n      jump\t// in\n    tag_56:\n      mload(0x40)\n      dup1\n      swap2\n      sub\n      swap1\n      log1\n        /* \"contracts/Milestone.sol\":2435:2893  function updateMilestone(uint256 projectNumber, uint256 serviceNumber, uint256 milestoneNumber, string memory title, string memory description) external {... */\n      pop\n      pop\n      pop\n      pop\n      pop\n      jump\t// out\n    tag_38:\n      dup3\n      dup1\n      sload\n      tag_57\n      swap1\n      tag_26\n      jump\t// in\n    tag_57:\n      swap1\n      0x00\n      mstore\n      keccak256(0x00, 0x20)\n      swap1\n      0x1f\n      add\n      0x20\n      swap1\n      div\n      dup2\n      add\n      swap3\n      dup3\n      tag_59\n      jumpi\n      0x00\n      dup6\n      sstore\n      jump(tag_58)\n    tag_59:\n      dup3\n      0x1f\n      lt\n      tag_60\n      jumpi\n      dup1\n      mload\n      not(0xff)\n      and\n      dup4\n      dup1\n      add\n      or\n      dup6\n      sstore\n      jump(tag_58)\n    tag_60:\n      dup3\n      dup1\n      add\n      0x01\n      add\n      dup6\n      sstore\n      dup3\n      iszero\n      tag_58\n      jumpi\n      swap2\n      dup3\n      add\n    tag_61:\n      dup3\n      dup2\n      gt\n      iszero\n      tag_62\n      jumpi\n      dup3\n      mload\n      dup3\n      sstore\n      swap2\n      0x20\n      add\n      swap2\n      swap1\n      0x01\n      add\n      swap1\n      jump(tag_61)\n    tag_62:\n    tag_58:\n      pop\n      swap1\n      pop\n      tag_63\n      swap2\n      swap1\n      tag_64\n      jump\t// in\n    tag_63:\n      pop\n      swap1\n      jump\t// out\n    tag_64:\n    tag_65:\n      dup1\n      dup3\n      gt\n      iszero\n      tag_66\n      jumpi\n      0x00\n      dup2\n      0x00\n      swap1\n      sstore\n      pop\n      0x01\n      add\n      jump(tag_65)\n    tag_66:\n      pop\n      swap1\n      jump\t// out\n        /* \"#utility.yul\":7:419   */\n    tag_68:\n        /* \"#utility.yul\":85:90   */\n      0x00\n        /* \"#utility.yul\":110:176   */\n      tag_70\n        /* \"#utility.yul\":126:175   */\n      tag_71\n        /* \"#utility.yul\":168:174   */\n      dup5\n        /* \"#utility.yul\":126:175   */\n      tag_72\n      jump\t// in\n    tag_71:\n        /* \"#utility.yul\":110:176   */\n      tag_73\n      jump\t// in\n    tag_70:\n        /* \"#utility.yul\":101:176   */\n      swap1\n      pop\n        /* \"#utility.yul\":199:205   */\n      dup3\n        /* \"#utility.yul\":192:197   */\n      dup2\n        /* \"#utility.yul\":185:206   */\n      mstore\n        /* \"#utility.yul\":237:241   */\n      0x20\n        /* \"#utility.yul\":230:235   */\n      dup2\n        /* \"#utility.yul\":226:242   */\n      add\n        /* \"#utility.yul\":275:278   */\n      dup5\n        /* \"#utility.yul\":266:272   */\n      dup5\n        /* \"#utility.yul\":261:264   */\n      dup5\n        /* \"#utility.yul\":257:273   */\n      add\n        /* \"#utility.yul\":254:279   */\n      gt\n        /* \"#utility.yul\":251:363   */\n      iszero\n      tag_74\n      jumpi\n        /* \"#utility.yul\":282:361   */\n      tag_75\n      tag_76\n      jump\t// in\n    tag_75:\n        /* \"#utility.yul\":251:363   */\n    tag_74:\n        /* \"#utility.yul\":372:413   */\n      tag_77\n        /* \"#utility.yul\":406:412   */\n      dup5\n        /* \"#utility.yul\":401:404   */\n      dup3\n        /* \"#utility.yul\":396:399   */\n      dup6\n        /* \"#utility.yul\":372:413   */\n      tag_78\n      jump\t// in\n    tag_77:\n        /* \"#utility.yul\":91:419   */\n      pop\n        /* \"#utility.yul\":7:419   */\n      swap4\n      swap3\n      pop\n      pop\n      pop\n      jump\t// out\n        /* \"#utility.yul\":439:779   */\n    tag_79:\n        /* \"#utility.yul\":495:500   */\n      0x00\n        /* \"#utility.yul\":544:547   */\n      dup3\n        /* \"#utility.yul\":537:541   */\n      0x1f\n        /* \"#utility.yul\":529:535   */\n      dup4\n        /* \"#utility.yul\":525:542   */\n      add\n        /* \"#utility.yul\":521:548   */\n      slt\n        /* \"#utility.yul\":511:633   */\n      tag_81\n      jumpi\n        /* \"#utility.yul\":552:631   */\n      tag_82\n      tag_83\n      jump\t// in\n    tag_82:\n        /* \"#utility.yul\":511:633   */\n    tag_81:\n        /* \"#utility.yul\":669:675   */\n      dup2\n        /* \"#utility.yul\":656:676   */\n      calldataload\n        /* \"#utility.yul\":694:773   */\n      tag_84\n        /* \"#utility.yul\":769:772   */\n      dup5\n        /* \"#utility.yul\":761:767   */\n      dup3\n        /* \"#utility.yul\":754:758   */\n      0x20\n        /* \"#utility.yul\":746:752   */\n      dup7\n        /* \"#utility.yul\":742:759   */\n      add\n        /* \"#utility.yul\":694:773   */\n      tag_68\n      jump\t// in\n    tag_84:\n        /* \"#utility.yul\":685:773   */\n      swap2\n      pop\n        /* \"#utility.yul\":501:779   */\n      pop\n        /* \"#utility.yul\":439:779   */\n      swap3\n      swap2\n      pop\n      pop\n      jump\t// out\n        /* \"#utility.yul\":785:924   */\n    tag_85:\n        /* \"#utility.yul\":831:836   */\n      0x00\n        /* \"#utility.yul\":869:875   */\n      dup2\n        /* \"#utility.yul\":856:876   */\n      calldataload\n        /* \"#utility.yul\":847:876   */\n      swap1\n      pop\n        /* \"#utility.yul\":885:918   */\n      tag_87\n        /* \"#utility.yul\":912:917   */\n      dup2\n        /* \"#utility.yul\":885:918   */\n      tag_88\n      jump\t// in\n    tag_87:\n        /* \"#utility.yul\":785:924   */\n      swap3\n      swap2\n      pop\n      pop\n      jump\t// out\n        /* \"#utility.yul\":930:2055   */\n    tag_15:\n        /* \"#utility.yul\":1036:1042   */\n      0x00\n        /* \"#utility.yul\":1044:1050   */\n      dup1\n        /* \"#utility.yul\":1052:1058   */\n      0x00\n        /* \"#utility.yul\":1060:1066   */\n      dup1\n        /* \"#utility.yul\":1109:1112   */\n      0x80\n        /* \"#utility.yul\":1097:1106   */\n      dup6\n        /* \"#utility.yul\":1088:1095   */\n      dup8\n        /* \"#utility.yul\":1084:1107   */\n      sub\n        /* \"#utility.yul\":1080:1113   */\n      slt\n        /* \"#utility.yul\":1077:1197   */\n      iszero\n      tag_90\n      jumpi\n        /* \"#utility.yul\":1116:1195   */\n      tag_91\n      tag_92\n      jump\t// in\n    tag_91:\n        /* \"#utility.yul\":1077:1197   */\n    tag_90:\n        /* \"#utility.yul\":1236:1237   */\n      0x00\n        /* \"#utility.yul\":1261:1314   */\n      tag_93\n        /* \"#utility.yul\":1306:1313   */\n      dup8\n        /* \"#utility.yul\":1297:1303   */\n      dup3\n        /* \"#utility.yul\":1286:1295   */\n      dup9\n        /* \"#utility.yul\":1282:1304   */\n      add\n        /* \"#utility.yul\":1261:1314   */\n      tag_85\n      jump\t// in\n    tag_93:\n        /* \"#utility.yul\":1251:1314   */\n      swap5\n      pop\n        /* \"#utility.yul\":1207:1324   */\n      pop\n        /* \"#utility.yul\":1363:1365   */\n      0x20\n        /* \"#utility.yul\":1389:1442   */\n      tag_94\n        /* \"#utility.yul\":1434:1441   */\n      dup8\n        /* \"#utility.yul\":1425:1431   */\n      dup3\n        /* \"#utility.yul\":1414:1423   */\n      dup9\n        /* \"#utility.yul\":1410:1432   */\n      add\n        /* \"#utility.yul\":1389:1442   */\n      tag_85\n      jump\t// in\n    tag_94:\n        /* \"#utility.yul\":1379:1442   */\n      swap4\n      pop\n        /* \"#utility.yul\":1334:1452   */\n      pop\n        /* \"#utility.yul\":1519:1521   */\n      0x40\n        /* \"#utility.yul\":1508:1517   */\n      dup6\n        /* \"#utility.yul\":1504:1522   */\n      add\n        /* \"#utility.yul\":1491:1523   */\n      calldataload\n        /* \"#utility.yul\":1550:1568   */\n      0xffffffffffffffff\n        /* \"#utility.yul\":1542:1548   */\n      dup2\n        /* \"#utility.yul\":1539:1569   */\n      gt\n        /* \"#utility.yul\":1536:1653   */\n      iszero\n      tag_95\n      jumpi\n        /* \"#utility.yul\":1572:1651   */\n      tag_96\n      tag_97\n      jump\t// in\n    tag_96:\n        /* \"#utility.yul\":1536:1653   */\n    tag_95:\n        /* \"#utility.yul\":1677:1740   */\n      tag_98\n        /* \"#utility.yul\":1732:1739   */\n      dup8\n        /* \"#utility.yul\":1723:1729   */\n      dup3\n        /* \"#utility.yul\":1712:1721   */\n      dup9\n        /* \"#utility.yul\":1708:1730   */\n      add\n        /* \"#utility.yul\":1677:1740   */\n      tag_79\n      jump\t// in\n    tag_98:\n        /* \"#utility.yul\":1667:1740   */\n      swap3\n      pop\n        /* \"#utility.yul\":1462:1750   */\n      pop\n        /* \"#utility.yul\":1817:1819   */\n      0x60\n        /* \"#utility.yul\":1806:1815   */\n      dup6\n        /* \"#utility.yul\":1802:1820   */\n      add\n        /* \"#utility.yul\":1789:1821   */\n      calldataload\n        /* \"#utility.yul\":1848:1866   */\n      0xffffffffffffffff\n        /* \"#utility.yul\":1840:1846   */\n      dup2\n        /* \"#utility.yul\":1837:1867   */\n      gt\n        /* \"#utility.yul\":1834:1951   */\n      iszero\n      tag_99\n      jumpi\n        /* \"#utility.yul\":1870:1949   */\n      tag_100\n      tag_97\n      jump\t// in\n    tag_100:\n        /* \"#utility.yul\":1834:1951   */\n    tag_99:\n        /* \"#utility.yul\":1975:2038   */\n      tag_101\n        /* \"#utility.yul\":2030:2037   */\n      dup8\n        /* \"#utility.yul\":2021:2027   */\n      dup3\n        /* \"#utility.yul\":2010:2019   */\n      dup9\n        /* \"#utility.yul\":2006:2028   */\n      add\n        /* \"#utility.yul\":1975:2038   */\n      tag_79\n      jump\t// in\n    tag_101:\n        /* \"#utility.yul\":1965:2038   */\n      swap2\n      pop\n        /* \"#utility.yul\":1760:2048   */\n      pop\n        /* \"#utility.yul\":930:2055   */\n      swap3\n      swap6\n      swap2\n      swap5\n      pop\n      swap3\n      pop\n      jump\t// out\n        /* \"#utility.yul\":2061:2680   */\n    tag_9:\n        /* \"#utility.yul\":2138:2144   */\n      0x00\n        /* \"#utility.yul\":2146:2152   */\n      dup1\n        /* \"#utility.yul\":2154:2160   */\n      0x00\n        /* \"#utility.yul\":2203:2205   */\n      0x60\n        /* \"#utility.yul\":2191:2200   */\n      dup5\n        /* \"#utility.yul\":2182:2189   */\n      dup7\n        /* \"#utility.yul\":2178:2201   */\n      sub\n        /* \"#utility.yul\":2174:2206   */\n      slt\n        /* \"#utility.yul\":2171:2290   */\n      iszero\n      tag_103\n      jumpi\n        /* \"#utility.yul\":2209:2288   */\n      tag_104\n      tag_92\n      jump\t// in\n    tag_104:\n        /* \"#utility.yul\":2171:2290   */\n    tag_103:\n        /* \"#utility.yul\":2329:2330   */\n      0x00\n        /* \"#utility.yul\":2354:2407   */\n      tag_105\n        /* \"#utility.yul\":2399:2406   */\n      dup7\n        /* \"#utility.yul\":2390:2396   */\n      dup3\n        /* \"#utility.yul\":2379:2388   */\n      dup8\n        /* \"#utility.yul\":2375:2397   */\n      add\n        /* \"#utility.yul\":2354:2407   */\n      tag_85\n      jump\t// in\n    tag_105:\n        /* \"#utility.yul\":2344:2407   */\n      swap4\n      pop\n        /* \"#utility.yul\":2300:2417   */\n      pop\n        /* \"#utility.yul\":2456:2458   */\n      0x20\n        /* \"#utility.yul\":2482:2535   */\n      tag_106\n        /* \"#utility.yul\":2527:2534   */\n      dup7\n        /* \"#utility.yul\":2518:2524   */\n      dup3\n        /* \"#utility.yul\":2507:2516   */\n      dup8\n        /* \"#utility.yul\":2503:2525   */\n      add\n        /* \"#utility.yul\":2482:2535   */\n      tag_85\n      jump\t// in\n    tag_106:\n        /* \"#utility.yul\":2472:2535   */\n      swap3\n      pop\n        /* \"#utility.yul\":2427:2545   */\n      pop\n        /* \"#utility.yul\":2584:2586   */\n      0x40\n        /* \"#utility.yul\":2610:2663   */\n      tag_107\n        /* \"#utility.yul\":2655:2662   */\n      dup7\n        /* \"#utility.yul\":2646:2652   */\n      dup3\n        /* \"#utility.yul\":2635:2644   */\n      dup8\n        /* \"#utility.yul\":2631:2653   */\n      add\n        /* \"#utility.yul\":2610:2663   */\n      tag_85\n      jump\t// in\n    tag_107:\n        /* \"#utility.yul\":2600:2663   */\n      swap2\n      pop\n        /* \"#utility.yul\":2555:2673   */\n      pop\n        /* \"#utility.yul\":2061:2680   */\n      swap3\n      pop\n      swap3\n      pop\n      swap3\n      jump\t// out\n        /* \"#utility.yul\":2686:3957   */\n    tag_22:\n        /* \"#utility.yul\":2801:2807   */\n      0x00\n        /* \"#utility.yul\":2809:2815   */\n      dup1\n        /* \"#utility.yul\":2817:2823   */\n      0x00\n        /* \"#utility.yul\":2825:2831   */\n      dup1\n        /* \"#utility.yul\":2833:2839   */\n      0x00\n        /* \"#utility.yul\":2882:2885   */\n      0xa0\n        /* \"#utility.yul\":2870:2879   */\n      dup7\n        /* \"#utility.yul\":2861:2868   */\n      dup9\n        /* \"#utility.yul\":2857:2880   */\n      sub\n        /* \"#utility.yul\":2853:2886   */\n      slt\n        /* \"#utility.yul\":2850:2970   */\n      iszero\n      tag_109\n      jumpi\n        /* \"#utility.yul\":2889:2968   */\n      tag_110\n      tag_92\n      jump\t// in\n    tag_110:\n        /* \"#utility.yul\":2850:2970   */\n    tag_109:\n        /* \"#utility.yul\":3009:3010   */\n      0x00\n        /* \"#utility.yul\":3034:3087   */\n      tag_111\n        /* \"#utility.yul\":3079:3086   */\n      dup9\n        /* \"#utility.yul\":3070:3076   */\n      dup3\n        /* \"#utility.yul\":3059:3068   */\n      dup10\n        /* \"#utility.yul\":3055:3077   */\n      add\n        /* \"#utility.yul\":3034:3087   */\n      tag_85\n      jump\t// in\n    tag_111:\n        /* \"#utility.yul\":3024:3087   */\n      swap6\n      pop\n        /* \"#utility.yul\":2980:3097   */\n      pop\n        /* \"#utility.yul\":3136:3138   */\n      0x20\n        /* \"#utility.yul\":3162:3215   */\n      tag_112\n        /* \"#utility.yul\":3207:3214   */\n      dup9\n        /* \"#utility.yul\":3198:3204   */\n      dup3\n        /* \"#utility.yul\":3187:3196   */\n      dup10\n        /* \"#utility.yul\":3183:3205   */\n      add\n        /* \"#utility.yul\":3162:3215   */\n      tag_85\n      jump\t// in\n    tag_112:\n        /* \"#utility.yul\":3152:3215   */\n      swap5\n      pop\n        /* \"#utility.yul\":3107:3225   */\n      pop\n        /* \"#utility.yul\":3264:3266   */\n      0x40\n        /* \"#utility.yul\":3290:3343   */\n      tag_113\n        /* \"#utility.yul\":3335:3342   */\n      dup9\n        /* \"#utility.yul\":3326:3332   */\n      dup3\n        /* \"#utility.yul\":3315:3324   */\n      dup10\n        /* \"#utility.yul\":3311:3333   */\n      add\n        /* \"#utility.yul\":3290:3343   */\n      tag_85\n      jump\t// in\n    tag_113:\n        /* \"#utility.yul\":3280:3343   */\n      swap4\n      pop\n        /* \"#utility.yul\":3235:3353   */\n      pop\n        /* \"#utility.yul\":3420:3422   */\n      0x60\n        /* \"#utility.yul\":3409:3418   */\n      dup7\n        /* \"#utility.yul\":3405:3423   */\n      add\n        /* \"#utility.yul\":3392:3424   */\n      calldataload\n        /* \"#utility.yul\":3451:3469   */\n      0xffffffffffffffff\n        /* \"#utility.yul\":3443:3449   */\n      dup2\n        /* \"#utility.yul\":3440:3470   */\n      gt\n        /* \"#utility.yul\":3437:3554   */\n      iszero\n      tag_114\n      jumpi\n        /* \"#utility.yul\":3473:3552   */\n      tag_115\n      tag_97\n      jump\t// in\n    tag_115:\n        /* \"#utility.yul\":3437:3554   */\n    tag_114:\n        /* \"#utility.yul\":3578:3641   */\n      tag_116\n        /* \"#utility.yul\":3633:3640   */\n      dup9\n        /* \"#utility.yul\":3624:3630   */\n      dup3\n        /* \"#utility.yul\":3613:3622   */\n      dup10\n        /* \"#utility.yul\":3609:3631   */\n      add\n        /* \"#utility.yul\":3578:3641   */\n      tag_79\n      jump\t// in\n    tag_116:\n        /* \"#utility.yul\":3568:3641   */\n      swap3\n      pop\n        /* \"#utility.yul\":3363:3651   */\n      pop\n        /* \"#utility.yul\":3718:3721   */\n      0x80\n        /* \"#utility.yul\":3707:3716   */\n      dup7\n        /* \"#utility.yul\":3703:3722   */\n      add\n        /* \"#utility.yul\":3690:3723   */\n      calldataload\n        /* \"#utility.yul\":3750:3768   */\n      0xffffffffffffffff\n        /* \"#utility.yul\":3742:3748   */\n      dup2\n        /* \"#utility.yul\":3739:3769   */\n      gt\n        /* \"#utility.yul\":3736:3853   */\n      iszero\n      tag_117\n      jumpi\n        /* \"#utility.yul\":3772:3851   */\n      tag_118\n      tag_97\n      jump\t// in\n    tag_118:\n        /* \"#utility.yul\":3736:3853   */\n    tag_117:\n        /* \"#utility.yul\":3877:3940   */\n      tag_119\n        /* \"#utility.yul\":3932:3939   */\n      dup9\n        /* \"#utility.yul\":3923:3929   */\n      dup3\n        /* \"#utility.yul\":3912:3921   */\n      dup10\n        /* \"#utility.yul\":3908:3930   */\n      add\n        /* \"#utility.yul\":3877:3940   */\n      tag_79\n      jump\t// in\n    tag_119:\n        /* \"#utility.yul\":3867:3940   */\n      swap2\n      pop\n        /* \"#utility.yul\":3661:3950   */\n      pop\n        /* \"#utility.yul\":2686:3957   */\n      swap3\n      swap6\n      pop\n      swap3\n      swap6\n      swap1\n      swap4\n      pop\n      jump\t// out\n        /* \"#utility.yul\":3963:4327   */\n    tag_120:\n        /* \"#utility.yul\":4051:4054   */\n      0x00\n        /* \"#utility.yul\":4079:4118   */\n      tag_122\n        /* \"#utility.yul\":4112:4117   */\n      dup3\n        /* \"#utility.yul\":4079:4118   */\n      tag_123\n      jump\t// in\n    tag_122:\n        /* \"#utility.yul\":4134:4205   */\n      tag_124\n        /* \"#utility.yul\":4198:4204   */\n      dup2\n        /* \"#utility.yul\":4193:4196   */\n      dup6\n        /* \"#utility.yul\":4134:4205   */\n      tag_125\n      jump\t// in\n    tag_124:\n        /* \"#utility.yul\":4127:4205   */\n      swap4\n      pop\n        /* \"#utility.yul\":4214:4266   */\n      tag_126\n        /* \"#utility.yul\":4259:4265   */\n      dup2\n        /* \"#utility.yul\":4254:4257   */\n      dup6\n        /* \"#utility.yul\":4247:4251   */\n      0x20\n        /* \"#utility.yul\":4240:4245   */\n      dup7\n        /* \"#utility.yul\":4236:4252   */\n      add\n        /* \"#utility.yul\":4214:4266   */\n      tag_127\n      jump\t// in\n    tag_126:\n        /* \"#utility.yul\":4291:4320   */\n      tag_128\n        /* \"#utility.yul\":4313:4319   */\n      dup2\n        /* \"#utility.yul\":4291:4320   */\n      tag_129\n      jump\t// in\n    tag_128:\n        /* \"#utility.yul\":4286:4289   */\n      dup5\n        /* \"#utility.yul\":4282:4321   */\n      add\n        /* \"#utility.yul\":4275:4321   */\n      swap2\n      pop\n        /* \"#utility.yul\":4055:4327   */\n      pop\n        /* \"#utility.yul\":3963:4327   */\n      swap3\n      swap2\n      pop\n      pop\n      jump\t// out\n        /* \"#utility.yul\":4333:4451   */\n    tag_130:\n        /* \"#utility.yul\":4420:4444   */\n      tag_132\n        /* \"#utility.yul\":4438:4443   */\n      dup2\n        /* \"#utility.yul\":4420:4444   */\n      tag_133\n      jump\t// in\n    tag_132:\n        /* \"#utility.yul\":4415:4418   */\n      dup3\n        /* \"#utility.yul\":4408:4445   */\n      mstore\n        /* \"#utility.yul\":4333:4451   */\n      pop\n      pop\n      jump\t// out\n        /* \"#utility.yul\":4457:4971   */\n    tag_12:\n        /* \"#utility.yul\":4618:4622   */\n      0x00\n        /* \"#utility.yul\":4656:4658   */\n      0x40\n        /* \"#utility.yul\":4645:4654   */\n      dup3\n        /* \"#utility.yul\":4641:4659   */\n      add\n        /* \"#utility.yul\":4633:4659   */\n      swap1\n      pop\n        /* \"#utility.yul\":4705:4714   */\n      dup2\n        /* \"#utility.yul\":4699:4703   */\n      dup2\n        /* \"#utility.yul\":4695:4715   */\n      sub\n        /* \"#utility.yul\":4691:4692   */\n      0x00\n        /* \"#utility.yul\":4680:4689   */\n      dup4\n        /* \"#utility.yul\":4676:4693   */\n      add\n        /* \"#utility.yul\":4669:4716   */\n      mstore\n        /* \"#utility.yul\":4733:4811   */\n      tag_135\n        /* \"#utility.yul\":4806:4810   */\n      dup2\n        /* \"#utility.yul\":4797:4803   */\n      dup6\n        /* \"#utility.yul\":4733:4811   */\n      tag_120\n      jump\t// in\n    tag_135:\n        /* \"#utility.yul\":4725:4811   */\n      swap1\n      pop\n        /* \"#utility.yul\":4858:4867   */\n      dup2\n        /* \"#utility.yul\":4852:4856   */\n      dup2\n        /* \"#utility.yul\":4848:4868   */\n      sub\n        /* \"#utility.yul\":4843:4845   */\n      0x20\n        /* \"#utility.yul\":4832:4841   */\n      dup4\n        /* \"#utility.yul\":4828:4846   */\n      add\n        /* \"#utility.yul\":4821:4869   */\n      mstore\n        /* \"#utility.yul\":4886:4964   */\n      tag_136\n        /* \"#utility.yul\":4959:4963   */\n      dup2\n        /* \"#utility.yul\":4950:4956   */\n      dup5\n        /* \"#utility.yul\":4886:4964   */\n      tag_120\n      jump\t// in\n    tag_136:\n        /* \"#utility.yul\":4878:4964   */\n      swap1\n      pop\n        /* \"#utility.yul\":4457:4971   */\n      swap4\n      swap3\n      pop\n      pop\n      pop\n      jump\t// out\n        /* \"#utility.yul\":4977:5419   */\n    tag_52:\n        /* \"#utility.yul\":5126:5130   */\n      0x00\n        /* \"#utility.yul\":5164:5166   */\n      0x60\n        /* \"#utility.yul\":5153:5162   */\n      dup3\n        /* \"#utility.yul\":5149:5167   */\n      add\n        /* \"#utility.yul\":5141:5167   */\n      swap1\n      pop\n        /* \"#utility.yul\":5177:5248   */\n      tag_138\n        /* \"#utility.yul\":5245:5246   */\n      0x00\n        /* \"#utility.yul\":5234:5243   */\n      dup4\n        /* \"#utility.yul\":5230:5247   */\n      add\n        /* \"#utility.yul\":5221:5227   */\n      dup7\n        /* \"#utility.yul\":5177:5248   */\n      tag_130\n      jump\t// in\n    tag_138:\n        /* \"#utility.yul\":5258:5330   */\n      tag_139\n        /* \"#utility.yul\":5326:5328   */\n      0x20\n        /* \"#utility.yul\":5315:5324   */\n      dup4\n        /* \"#utility.yul\":5311:5329   */\n      add\n        /* \"#utility.yul\":5302:5308   */\n      dup6\n        /* \"#utility.yul\":5258:5330   */\n      tag_130\n      jump\t// in\n    tag_139:\n        /* \"#utility.yul\":5340:5412   */\n      tag_140\n        /* \"#utility.yul\":5408:5410   */\n      0x40\n        /* \"#utility.yul\":5397:5406   */\n      dup4\n        /* \"#utility.yul\":5393:5411   */\n      add\n        /* \"#utility.yul\":5384:5390   */\n      dup5\n        /* \"#utility.yul\":5340:5412   */\n      tag_130\n      jump\t// in\n    tag_140:\n        /* \"#utility.yul\":4977:5419   */\n      swap5\n      swap4\n      pop\n      pop\n      pop\n      pop\n      jump\t// out\n        /* \"#utility.yul\":5425:6271   */\n    tag_44:\n        /* \"#utility.yul\":5670:5674   */\n      0x00\n        /* \"#utility.yul\":5708:5711   */\n      0xa0\n        /* \"#utility.yul\":5697:5706   */\n      dup3\n        /* \"#utility.yul\":5693:5712   */\n      add\n        /* \"#utility.yul\":5685:5712   */\n      swap1\n      pop\n        /* \"#utility.yul\":5722:5793   */\n      tag_142\n        /* \"#utility.yul\":5790:5791   */\n      0x00\n        /* \"#utility.yul\":5779:5788   */\n      dup4\n        /* \"#utility.yul\":5775:5792   */\n      add\n        /* \"#utility.yul\":5766:5772   */\n      dup9\n        /* \"#utility.yul\":5722:5793   */\n      tag_130\n      jump\t// in\n    tag_142:\n        /* \"#utility.yul\":5803:5875   */\n      tag_143\n        /* \"#utility.yul\":5871:5873   */\n      0x20\n        /* \"#utility.yul\":5860:5869   */\n      dup4\n        /* \"#utility.yul\":5856:5874   */\n      add\n        /* \"#utility.yul\":5847:5853   */\n      dup8\n        /* \"#utility.yul\":5803:5875   */\n      tag_130\n      jump\t// in\n    tag_143:\n        /* \"#utility.yul\":5885:5957   */\n      tag_144\n        /* \"#utility.yul\":5953:5955   */\n      0x40\n        /* \"#utility.yul\":5942:5951   */\n      dup4\n        /* \"#utility.yul\":5938:5956   */\n      add\n        /* \"#utility.yul\":5929:5935   */\n      dup7\n        /* \"#utility.yul\":5885:5957   */\n      tag_130\n      jump\t// in\n    tag_144:\n        /* \"#utility.yul\":6004:6013   */\n      dup2\n        /* \"#utility.yul\":5998:6002   */\n      dup2\n        /* \"#utility.yul\":5994:6014   */\n      sub\n        /* \"#utility.yul\":5989:5991   */\n      0x60\n        /* \"#utility.yul\":5978:5987   */\n      dup4\n        /* \"#utility.yul\":5974:5992   */\n      add\n        /* \"#utility.yul\":5967:6015   */\n      mstore\n        /* \"#utility.yul\":6032:6110   */\n      tag_145\n        /* \"#utility.yul\":6105:6109   */\n      dup2\n        /* \"#utility.yul\":6096:6102   */\n      dup6\n        /* \"#utility.yul\":6032:6110   */\n      tag_120\n      jump\t// in\n    tag_145:\n        /* \"#utility.yul\":6024:6110   */\n      swap1\n      pop\n        /* \"#utility.yul\":6158:6167   */\n      dup2\n        /* \"#utility.yul\":6152:6156   */\n      dup2\n        /* \"#utility.yul\":6148:6168   */\n      sub\n        /* \"#utility.yul\":6142:6145   */\n      0x80\n        /* \"#utility.yul\":6131:6140   */\n      dup4\n        /* \"#utility.yul\":6127:6146   */\n      add\n        /* \"#utility.yul\":6120:6169   */\n      mstore\n        /* \"#utility.yul\":6186:6264   */\n      tag_146\n        /* \"#utility.yul\":6259:6263   */\n      dup2\n        /* \"#utility.yul\":6250:6256   */\n      dup5\n        /* \"#utility.yul\":6186:6264   */\n      tag_120\n      jump\t// in\n    tag_146:\n        /* \"#utility.yul\":6178:6264   */\n      swap1\n      pop\n        /* \"#utility.yul\":5425:6271   */\n      swap7\n      swap6\n      pop\n      pop\n      pop\n      pop\n      pop\n      pop\n      jump\t// out\n        /* \"#utility.yul\":6277:6406   */\n    tag_73:\n        /* \"#utility.yul\":6311:6317   */\n      0x00\n        /* \"#utility.yul\":6338:6358   */\n      tag_148\n      tag_149\n      jump\t// in\n    tag_148:\n        /* \"#utility.yul\":6328:6358   */\n      swap1\n      pop\n        /* \"#utility.yul\":6367:6400   */\n      tag_150\n        /* \"#utility.yul\":6395:6399   */\n      dup3\n        /* \"#utility.yul\":6387:6393   */\n      dup3\n        /* \"#utility.yul\":6367:6400   */\n      tag_151\n      jump\t// in\n    tag_150:\n        /* \"#utility.yul\":6277:6406   */\n      swap2\n      swap1\n      pop\n      jump\t// out\n        /* \"#utility.yul\":6412:6487   */\n    tag_149:\n        /* \"#utility.yul\":6445:6451   */\n      0x00\n        /* \"#utility.yul\":6478:6480   */\n      0x40\n        /* \"#utility.yul\":6472:6481   */\n      mload\n        /* \"#utility.yul\":6462:6481   */\n      swap1\n      pop\n        /* \"#utility.yul\":6412:6487   */\n      swap1\n      jump\t// out\n        /* \"#utility.yul\":6493:6801   */\n    tag_72:\n        /* \"#utility.yul\":6555:6559   */\n      0x00\n        /* \"#utility.yul\":6645:6663   */\n      0xffffffffffffffff\n        /* \"#utility.yul\":6637:6643   */\n      dup3\n        /* \"#utility.yul\":6634:6664   */\n      gt\n        /* \"#utility.yul\":6631:6687   */\n      iszero\n      tag_154\n      jumpi\n        /* \"#utility.yul\":6667:6685   */\n      tag_155\n      tag_156\n      jump\t// in\n    tag_155:\n        /* \"#utility.yul\":6631:6687   */\n    tag_154:\n        /* \"#utility.yul\":6705:6734   */\n      tag_157\n        /* \"#utility.yul\":6727:6733   */\n      dup3\n        /* \"#utility.yul\":6705:6734   */\n      tag_129\n      jump\t// in\n    tag_157:\n        /* \"#utility.yul\":6697:6734   */\n      swap1\n      pop\n        /* \"#utility.yul\":6789:6793   */\n      0x20\n        /* \"#utility.yul\":6783:6787   */\n      dup2\n        /* \"#utility.yul\":6779:6794   */\n      add\n        /* \"#utility.yul\":6771:6794   */\n      swap1\n      pop\n        /* \"#utility.yul\":6493:6801   */\n      swap2\n      swap1\n      pop\n      jump\t// out\n        /* \"#utility.yul\":6807:6906   */\n    tag_123:\n        /* \"#utility.yul\":6859:6865   */\n      0x00\n        /* \"#utility.yul\":6893:6898   */\n      dup2\n        /* \"#utility.yul\":6887:6899   */\n      mload\n        /* \"#utility.yul\":6877:6899   */\n      swap1\n      pop\n        /* \"#utility.yul\":6807:6906   */\n      swap2\n      swap1\n      pop\n      jump\t// out\n        /* \"#utility.yul\":6912:7081   */\n    tag_125:\n        /* \"#utility.yul\":6996:7007   */\n      0x00\n        /* \"#utility.yul\":7030:7036   */\n      dup3\n        /* \"#utility.yul\":7025:7028   */\n      dup3\n        /* \"#utility.yul\":7018:7037   */\n      mstore\n        /* \"#utility.yul\":7070:7074   */\n      0x20\n        /* \"#utility.yul\":7065:7068   */\n      dup3\n        /* \"#utility.yul\":7061:7075   */\n      add\n        /* \"#utility.yul\":7046:7075   */\n      swap1\n      pop\n        /* \"#utility.yul\":6912:7081   */\n      swap3\n      swap2\n      pop\n      pop\n      jump\t// out\n        /* \"#utility.yul\":7087:7164   */\n    tag_133:\n        /* \"#utility.yul\":7124:7131   */\n      0x00\n        /* \"#utility.yul\":7153:7158   */\n      dup2\n        /* \"#utility.yul\":7142:7158   */\n      swap1\n      pop\n        /* \"#utility.yul\":7087:7164   */\n      swap2\n      swap1\n      pop\n      jump\t// out\n        /* \"#utility.yul\":7170:7324   */\n    tag_78:\n        /* \"#utility.yul\":7254:7260   */\n      dup3\n        /* \"#utility.yul\":7249:7252   */\n      dup2\n        /* \"#utility.yul\":7244:7247   */\n      dup4\n        /* \"#utility.yul\":7231:7261   */\n      calldatacopy\n        /* \"#utility.yul\":7316:7317   */\n      0x00\n        /* \"#utility.yul\":7307:7313   */\n      dup4\n        /* \"#utility.yul\":7302:7305   */\n      dup4\n        /* \"#utility.yul\":7298:7314   */\n      add\n        /* \"#utility.yul\":7291:7318   */\n      mstore\n        /* \"#utility.yul\":7170:7324   */\n      pop\n      pop\n      pop\n      jump\t// out\n        /* \"#utility.yul\":7330:7637   */\n    tag_127:\n        /* \"#utility.yul\":7398:7399   */\n      0x00\n        /* \"#utility.yul\":7408:7521   */\n    tag_163:\n        /* \"#utility.yul\":7422:7428   */\n      dup4\n        /* \"#utility.yul\":7419:7420   */\n      dup2\n        /* \"#utility.yul\":7416:7429   */\n      lt\n        /* \"#utility.yul\":7408:7521   */\n      iszero\n      tag_165\n      jumpi\n        /* \"#utility.yul\":7507:7508   */\n      dup1\n        /* \"#utility.yul\":7502:7505   */\n      dup3\n        /* \"#utility.yul\":7498:7509   */\n      add\n        /* \"#utility.yul\":7492:7510   */\n      mload\n        /* \"#utility.yul\":7488:7489   */\n      dup2\n        /* \"#utility.yul\":7483:7486   */\n      dup5\n        /* \"#utility.yul\":7479:7490   */\n      add\n        /* \"#utility.yul\":7472:7511   */\n      mstore\n        /* \"#utility.yul\":7444:7446   */\n      0x20\n        /* \"#utility.yul\":7441:7442   */\n      dup2\n        /* \"#utility.yul\":7437:7447   */\n      add\n        /* \"#utility.yul\":7432:7447   */\n      swap1\n      pop\n        /* \"#utility.yul\":7408:7521   */\n      jump(tag_163)\n    tag_165:\n        /* \"#utility.yul\":7539:7545   */\n      dup4\n        /* \"#utility.yul\":7536:7537   */\n      dup2\n        /* \"#utility.yul\":7533:7546   */\n      gt\n        /* \"#utility.yul\":7530:7631   */\n      iszero\n      tag_166\n      jumpi\n        /* \"#utility.yul\":7619:7620   */\n      0x00\n        /* \"#utility.yul\":7610:7616   */\n      dup5\n        /* \"#utility.yul\":7605:7608   */\n      dup5\n        /* \"#utility.yul\":7601:7617   */\n      add\n        /* \"#utility.yul\":7594:7621   */\n      mstore\n        /* \"#utility.yul\":7530:7631   */\n    tag_166:\n        /* \"#utility.yul\":7379:7637   */\n      pop\n        /* \"#utility.yul\":7330:7637   */\n      pop\n      pop\n      pop\n      jump\t// out\n        /* \"#utility.yul\":7643:7814   */\n    tag_50:\n        /* \"#utility.yul\":7682:7685   */\n      0x00\n        /* \"#utility.yul\":7705:7729   */\n      tag_168\n        /* \"#utility.yul\":7723:7728   */\n      dup3\n        /* \"#utility.yul\":7705:7729   */\n      tag_133\n      jump\t// in\n    tag_168:\n        /* \"#utility.yul\":7696:7729   */\n      swap2\n      pop\n        /* \"#utility.yul\":7751:7755   */\n      0x00\n        /* \"#utility.yul\":7744:7749   */\n      dup3\n        /* \"#utility.yul\":7741:7756   */\n      eq\n        /* \"#utility.yul\":7738:7779   */\n      iszero\n      tag_169\n      jumpi\n        /* \"#utility.yul\":7759:7777   */\n      tag_170\n      tag_171\n      jump\t// in\n    tag_170:\n        /* \"#utility.yul\":7738:7779   */\n    tag_169:\n        /* \"#utility.yul\":7806:7807   */\n      0x01\n        /* \"#utility.yul\":7799:7804   */\n      dup3\n        /* \"#utility.yul\":7795:7808   */\n      sub\n        /* \"#utility.yul\":7788:7808   */\n      swap1\n      pop\n        /* \"#utility.yul\":7643:7814   */\n      swap2\n      swap1\n      pop\n      jump\t// out\n        /* \"#utility.yul\":7820:8140   */\n    tag_26:\n        /* \"#utility.yul\":7864:7870   */\n      0x00\n        /* \"#utility.yul\":7901:7902   */\n      0x02\n        /* \"#utility.yul\":7895:7899   */\n      dup3\n        /* \"#utility.yul\":7891:7903   */\n      div\n        /* \"#utility.yul\":7881:7903   */\n      swap1\n      pop\n        /* \"#utility.yul\":7948:7949   */\n      0x01\n        /* \"#utility.yul\":7942:7946   */\n      dup3\n        /* \"#utility.yul\":7938:7950   */\n      and\n        /* \"#utility.yul\":7969:7987   */\n      dup1\n        /* \"#utility.yul\":7959:8040   */\n      tag_173\n      jumpi\n        /* \"#utility.yul\":8025:8029   */\n      0x7f\n        /* \"#utility.yul\":8017:8023   */\n      dup3\n        /* \"#utility.yul\":8013:8030   */\n      and\n        /* \"#utility.yul\":8003:8030   */\n      swap2\n      pop\n        /* \"#utility.yul\":7959:8040   */\n    tag_173:\n        /* \"#utility.yul\":8087:8089   */\n      0x20\n        /* \"#utility.yul\":8079:8085   */\n      dup3\n        /* \"#utility.yul\":8076:8090   */\n      lt\n        /* \"#utility.yul\":8056:8074   */\n      dup2\n        /* \"#utility.yul\":8053:8091   */\n      eq\n        /* \"#utility.yul\":8050:8134   */\n      iszero\n      tag_174\n      jumpi\n        /* \"#utility.yul\":8106:8124   */\n      tag_175\n      tag_176\n      jump\t// in\n    tag_175:\n        /* \"#utility.yul\":8050:8134   */\n    tag_174:\n        /* \"#utility.yul\":7871:8140   */\n      pop\n        /* \"#utility.yul\":7820:8140   */\n      swap2\n      swap1\n      pop\n      jump\t// out\n        /* \"#utility.yul\":8146:8427   */\n    tag_151:\n        /* \"#utility.yul\":8229:8256   */\n      tag_178\n        /* \"#utility.yul\":8251:8255   */\n      dup3\n        /* \"#utility.yul\":8229:8256   */\n      tag_129\n      jump\t// in\n    tag_178:\n        /* \"#utility.yul\":8221:8227   */\n      dup2\n        /* \"#utility.yul\":8217:8257   */\n      add\n        /* \"#utility.yul\":8359:8365   */\n      dup2\n        /* \"#utility.yul\":8347:8357   */\n      dup2\n        /* \"#utility.yul\":8344:8366   */\n      lt\n        /* \"#utility.yul\":8323:8341   */\n      0xffffffffffffffff\n        /* \"#utility.yul\":8311:8321   */\n      dup3\n        /* \"#utility.yul\":8308:8342   */\n      gt\n        /* \"#utility.yul\":8305:8367   */\n      or\n        /* \"#utility.yul\":8302:8390   */\n      iszero\n      tag_179\n      jumpi\n        /* \"#utility.yul\":8370:8388   */\n      tag_180\n      tag_156\n      jump\t// in\n    tag_180:\n        /* \"#utility.yul\":8302:8390   */\n    tag_179:\n        /* \"#utility.yul\":8410:8420   */\n      dup1\n        /* \"#utility.yul\":8406:8408   */\n      0x40\n        /* \"#utility.yul\":8399:8421   */\n      mstore\n        /* \"#utility.yul\":8189:8427   */\n      pop\n        /* \"#utility.yul\":8146:8427   */\n      pop\n      pop\n      jump\t// out\n        /* \"#utility.yul\":8433:8666   */\n    tag_46:\n        /* \"#utility.yul\":8472:8475   */\n      0x00\n        /* \"#utility.yul\":8495:8519   */\n      tag_182\n        /* \"#utility.yul\":8513:8518   */\n      dup3\n        /* \"#utility.yul\":8495:8519   */\n      tag_133\n      jump\t// in\n    tag_182:\n        /* \"#utility.yul\":8486:8519   */\n      swap2\n      pop\n        /* \"#utility.yul\":8541:8607   */\n      0xffffffffffffffffffffffffffffffffffffffffffffffffffffffffffffffff\n        /* \"#utility.yul\":8534:8539   */\n      dup3\n        /* \"#utility.yul\":8531:8608   */\n      eq\n        /* \"#utility.yul\":8528:8631   */\n      iszero\n      tag_183\n      jumpi\n        /* \"#utility.yul\":8611:8629   */\n      tag_184\n      tag_171\n      jump\t// in\n    tag_184:\n        /* \"#utility.yul\":8528:8631   */\n    tag_183:\n        /* \"#utility.yul\":8658:8659   */\n      0x01\n        /* \"#utility.yul\":8651:8656   */\n      dup3\n        /* \"#utility.yul\":8647:8660   */\n      add\n        /* \"#utility.yul\":8640:8660   */\n      swap1\n      pop\n        /* \"#utility.yul\":8433:8666   */\n      swap2\n      swap1\n      pop\n      jump\t// out\n        /* \"#utility.yul\":8672:8852   */\n    tag_171:\n        /* \"#utility.yul\":8720:8797   */\n      0x4e487b7100000000000000000000000000000000000000000000000000000000\n        /* \"#utility.yul\":8717:8718   */\n      0x00\n        /* \"#utility.yul\":8710:8798   */\n      mstore\n        /* \"#utility.yul\":8817:8821   */\n      0x11\n        /* \"#utility.yul\":8814:8815   */\n      0x04\n        /* \"#utility.yul\":8807:8822   */\n      mstore\n        /* \"#utility.yul\":8841:8845   */\n      0x24\n        /* \"#utility.yul\":8838:8839   */\n      0x00\n        /* \"#utility.yul\":8831:8846   */\n      revert\n        /* \"#utility.yul\":8858:9038   */\n    tag_42:\n        /* \"#utility.yul\":8906:8983   */\n      0x4e487b7100000000000000000000000000000000000000000000000000000000\n        /* \"#utility.yul\":8903:8904   */\n      0x00\n        /* \"#utility.yul\":8896:8984   */\n      mstore\n        /* \"#utility.yul\":9003:9007   */\n      0x21\n        /* \"#utility.yul\":9000:9001   */\n      0x04\n        /* \"#utility.yul\":8993:9008   */\n      mstore\n        /* \"#utility.yul\":9027:9031   */\n      0x24\n        /* \"#utility.yul\":9024:9025   */\n      0x00\n        /* \"#utility.yul\":9017:9032   */\n      revert\n        /* \"#utility.yul\":9044:9224   */\n    tag_176:\n        /* \"#utility.yul\":9092:9169   */\n      0x4e487b7100000000000000000000000000000000000000000000000000000000\n        /* \"#utility.yul\":9089:9090   */\n      0x00\n        /* \"#utility.yul\":9082:9170   */\n      mstore\n        /* \"#utility.yul\":9189:9193   */\n      0x22\n        /* \"#utility.yul\":9186:9187   */\n      0x04\n        /* \"#utility.yul\":9179:9194   */\n      mstore\n        /* \"#utility.yul\":9213:9217   */\n      0x24\n        /* \"#utility.yul\":9210:9211   */\n      0x00\n        /* \"#utility.yul\":9203:9218   */\n      revert\n        /* \"#utility.yul\":9230:9410   */\n    tag_156:\n        /* \"#utility.yul\":9278:9355   */\n      0x4e487b7100000000000000000000000000000000000000000000000000000000\n        /* \"#utility.yul\":9275:9276   */\n      0x00\n        /* \"#utility.yul\":9268:9356   */\n      mstore\n        /* \"#utility.yul\":9375:9379   */\n      0x41\n        /* \"#utility.yul\":9372:9373   */\n      0x04\n        /* \"#utility.yul\":9365:9380   */\n      mstore\n        /* \"#utility.yul\":9399:9403   */\n      0x24\n        /* \"#utility.yul\":9396:9397   */\n      0x00\n        /* \"#utility.yul\":9389:9404   */\n      revert\n        /* \"#utility.yul\":9416:9533   */\n    tag_83:\n        /* \"#utility.yul\":9525:9526   */\n      0x00\n        /* \"#utility.yul\":9522:9523   */\n      dup1\n        /* \"#utility.yul\":9515:9527   */\n      revert\n        /* \"#utility.yul\":9539:9656   */\n    tag_76:\n        /* \"#utility.yul\":9648:9649   */\n      0x00\n        /* \"#utility.yul\":9645:9646   */\n      dup1\n        /* \"#utility.yul\":9638:9650   */\n      revert\n        /* \"#utility.yul\":9662:9779   */\n    tag_97:\n        /* \"#utility.yul\":9771:9772   */\n      0x00\n        /* \"#utility.yul\":9768:9769   */\n      dup1\n        /* \"#utility.yul\":9761:9773   */\n      revert\n        /* \"#utility.yul\":9785:9902   */\n    tag_92:\n        /* \"#utility.yul\":9894:9895   */\n      0x00\n        /* \"#utility.yul\":9891:9892   */\n      dup1\n        /* \"#utility.yul\":9884:9896   */\n      revert\n        /* \"#utility.yul\":9908:10010   */\n    tag_129:\n        /* \"#utility.yul\":9949:9955   */\n      0x00\n        /* \"#utility.yul\":10000:10002   */\n      0x1f\n        /* \"#utility.yul\":9996:10003   */\n      not\n        /* \"#utility.yul\":9991:9993   */\n      0x1f\n        /* \"#utility.yul\":9984:9989   */\n      dup4\n        /* \"#utility.yul\":9980:9994   */\n      add\n        /* \"#utility.yul\":9976:10004   */\n      and\n        /* \"#utility.yul\":9966:10004   */\n      swap1\n      pop\n        /* \"#utility.yul\":9908:10010   */\n      swap2\n      swap1\n      pop\n      jump\t// out\n        /* \"#utility.yul\":10016:10138   */\n    tag_88:\n        /* \"#utility.yul\":10089:10113   */\n      tag_195\n        /* \"#utility.yul\":10107:10112   */\n      dup2\n        /* \"#utility.yul\":10089:10113   */\n      tag_133\n      jump\t// in\n    tag_195:\n        /* \"#utility.yul\":10082:10087   */\n      dup2\n        /* \"#utility.yul\":10079:10114   */\n      eq\n        /* \"#utility.yul\":10069:10132   */\n      tag_196\n      jumpi\n        /* \"#utility.yul\":10128:10129   */\n      0x00\n        /* \"#utility.yul\":10125:10126   */\n      dup1\n        /* \"#utility.yul\":10118:10130   */\n      revert\n        /* \"#utility.yul\":10069:10132   */\n    tag_196:\n        /* \"#utility.yul\":10016:10138   */\n      pop\n      jump\t// out\n\n    auxdata: 0xa2646970667358221220a0151ae5709e19181c875cb595190067982da1d1e074172330fc22ee4f39bfe364736f6c63430008070033\n}\n",
				"bytecode": {
					"linkReferences": {},
					"object": "60806040526000600255600060035534801561001a57600080fd5b50604051610d1b380380610d1b833981810160405281019061003c9190610097565b806000806101000a81548173ffffffffffffffffffffffffffffffffffffffff021916908373ffffffffffffffffffffffffffffffffffffffff16021790555050610124565b6000815190506100918161010d565b92915050565b6000602082840312156100ad576100ac610108565b5b60006100bb84828501610082565b91505092915050565b60006100cf826100e8565b9050919050565b60006100e1826100c4565b9050919050565b600073ffffffffffffffffffffffffffffffffffffffff82169050919050565b600080fd5b610116816100d6565b811461012157600080fd5b50565b610be8806101336000396000f3fe608060405234801561001057600080fd5b506004361061004c5760003560e01c806349428a621461005157806363ef8a5014610082578063b9b6c5d41461009e578063fd23c4bb146100ba575b600080fd5b61006b60048036038101906100669190610709565b6100d6565b604051610079929190610857565b60405180910390f35b61009c6004803603810190610097919061066a565b61026d565b005b6100b860048036038101906100b39190610709565b6103b9565b005b6100d460048036038101906100cf919061075c565b610462565b005b6060806001600086815260200190815260200160002060008581526020019081526020016000206000848152602001908152602001600020600301600160008781526020019081526020016000206000868152602001908152602001600020600085815260200190815260200160002060040181805461015590610a0e565b80601f016020809104026020016040519081016040528092919081815260200182805461018190610a0e565b80156101ce5780601f106101a3576101008083540402835291602001916101ce565b820191906000526020600020905b8154815290600101906020018083116101b157829003601f168201915b505050505091508080546101e190610a0e565b80601f016020809104026020016040519081016040528092919081815260200182805461020d90610a0e565b801561025a5780601f1061022f5761010080835404028352916020019161025a565b820191906000526020600020905b81548152906001019060200180831161023d57829003601f168201915b5050505050905091509150935093915050565b60006001600086815260200190815260200160002060008581526020019081526020016000206000600354815260200190815260200160002090508481600001819055508381600101819055506003548160020181905550828160030190805190602001906102dd929190610542565b50818160040190805190602001906102f6929190610542565b5060018160050160006101000a81548160ff02191690831515021790555060008160050160016101000a81548160ff0219169083600681111561033c5761033b610ae9565b5b02179055507f70d8b12d438dd130d28072c77c8047d9697b630b8dcd969123645998ad67d5618585600354868660405161037a9594939291906108c5565b60405180910390a16002600081548092919061039590610a71565b9190505550600360008154809291906103ad90610a71565b91905055505050505050565b6000600160008581526020019081526020016000206000848152602001908152602001600020600083815260200190815260200160002060050160006101000a81548160ff0219169083151502179055506002600081548092919061041d906109e4565b91905055507f2b2605ee52ace237f72e6005eee79180ea3b6151bd8848a6be5e3c224b8a6ec68383836040516104559392919061088e565b60405180910390a1505050565b81600160008781526020019081526020016000206000868152602001908152602001600020600085815260200190815260200160002060030190805190602001906104ae929190610542565b5080600160008781526020019081526020016000206000868152602001908152602001600020600085815260200190815260200160002060040190805190602001906104fb929190610542565b507f8c0d6ff1212c3fbf79bbe6dc1e26cc40c4e137ec5711d4471b16fa121f93351185858585856040516105339594939291906108c5565b60405180910390a15050505050565b82805461054e90610a0e565b90600052602060002090601f01602090048101928261057057600085556105b7565b82601f1061058957805160ff19168380011785556105b7565b828001600101855582156105b7579182015b828111156105b657825182559160200191906001019061059b565b5b5090506105c491906105c8565b5090565b5b808211156105e15760008160009055506001016105c9565b5090565b60006105f86105f38461094b565b610926565b90508281526020810184848401111561061457610613610b7b565b5b61061f8482856109a2565b509392505050565b600082601f83011261063c5761063b610b76565b5b813561064c8482602086016105e5565b91505092915050565b60008135905061066481610b9b565b92915050565b6000806000806080858703121561068457610683610b85565b5b600061069287828801610655565b94505060206106a387828801610655565b935050604085013567ffffffffffffffff8111156106c4576106c3610b80565b5b6106d087828801610627565b925050606085013567ffffffffffffffff8111156106f1576106f0610b80565b5b6106fd87828801610627565b91505092959194509250565b60008060006060848603121561072257610721610b85565b5b600061073086828701610655565b935050602061074186828701610655565b925050604061075286828701610655565b9150509250925092565b600080600080600060a0868803121561077857610777610b85565b5b600061078688828901610655565b955050602061079788828901610655565b94505060406107a888828901610655565b935050606086013567ffffffffffffffff8111156107c9576107c8610b80565b5b6107d588828901610627565b925050608086013567ffffffffffffffff8111156107f6576107f5610b80565b5b61080288828901610627565b9150509295509295909350565b600061081a8261097c565b6108248185610987565b93506108348185602086016109b1565b61083d81610b8a565b840191505092915050565b61085181610998565b82525050565b60006040820190508181036000830152610871818561080f565b90508181036020830152610885818461080f565b90509392505050565b60006060820190506108a36000830186610848565b6108b06020830185610848565b6108bd6040830184610848565b949350505050565b600060a0820190506108da6000830188610848565b6108e76020830187610848565b6108f46040830186610848565b8181036060830152610906818561080f565b9050818103608083015261091a818461080f565b90509695505050505050565b6000610930610941565b905061093c8282610a40565b919050565b6000604051905090565b600067ffffffffffffffff82111561096657610965610b47565b5b61096f82610b8a565b9050602081019050919050565b600081519050919050565b600082825260208201905092915050565b6000819050919050565b82818337600083830152505050565b60005b838110156109cf5780820151818401526020810190506109b4565b838111156109de576000848401525b50505050565b60006109ef82610998565b91506000821415610a0357610a02610aba565b5b600182039050919050565b60006002820490506001821680610a2657607f821691505b60208210811415610a3a57610a39610b18565b5b50919050565b610a4982610b8a565b810181811067ffffffffffffffff82111715610a6857610a67610b47565b5b80604052505050565b6000610a7c82610998565b91507fffffffffffffffffffffffffffffffffffffffffffffffffffffffffffffffff821415610aaf57610aae610aba565b5b600182019050919050565b7f4e487b7100000000000000000000000000000000000000000000000000000000600052601160045260246000fd5b7f4e487b7100000000000000000000000000000000000000000000000000000000600052602160045260246000fd5b7f4e487b7100000000000000000000000000000000000000000000000000000000600052602260045260246000fd5b7f4e487b7100000000000000000000000000000000000000000000000000000000600052604160045260246000fd5b600080fd5b600080fd5b600080fd5b600080fd5b6000601f19601f8301169050919050565b610ba481610998565b8114610baf57600080fd5b5056fea2646970667358221220a0151ae5709e19181c875cb595190067982da1d1e074172330fc22ee4f39bfe364736f6c63430008070033",
					"opcodes": "PUSH1 0x80 PUSH1 0x40 MSTORE PUSH1 0x0 PUSH1 0x2 SSTORE PUSH1 0x0 PUSH1 0x3 SSTORE CALLVALUE DUP1 ISZERO PUSH2 0x1A JUMPI PUSH1 0x0 DUP1 REVERT JUMPDEST POP PUSH1 0x40 MLOAD PUSH2 0xD1B CODESIZE SUB DUP1 PUSH2 0xD1B DUP4 CODECOPY DUP2 DUP2 ADD PUSH1 0x40 MSTORE DUP2 ADD SWAP1 PUSH2 0x3C SWAP2 SWAP1 PUSH2 0x97 JUMP JUMPDEST DUP1 PUSH1 0x0 DUP1 PUSH2 0x100 EXP DUP2 SLOAD DUP2 PUSH20 0xFFFFFFFFFFFFFFFFFFFFFFFFFFFFFFFFFFFFFFFF MUL NOT AND SWAP1 DUP4 PUSH20 0xFFFFFFFFFFFFFFFFFFFFFFFFFFFFFFFFFFFFFFFF AND MUL OR SWAP1 SSTORE POP POP PUSH2 0x124 JUMP JUMPDEST PUSH1 0x0 DUP2 MLOAD SWAP1 POP PUSH2 0x91 DUP2 PUSH2 0x10D JUMP JUMPDEST SWAP3 SWAP2 POP POP JUMP JUMPDEST PUSH1 0x0 PUSH1 0x20 DUP3 DUP5 SUB SLT ISZERO PUSH2 0xAD JUMPI PUSH2 0xAC PUSH2 0x108 JUMP JUMPDEST JUMPDEST PUSH1 0x0 PUSH2 0xBB DUP5 DUP3 DUP6 ADD PUSH2 0x82 JUMP JUMPDEST SWAP2 POP POP SWAP3 SWAP2 POP POP JUMP JUMPDEST PUSH1 0x0 PUSH2 0xCF DUP3 PUSH2 0xE8 JUMP JUMPDEST SWAP1 POP SWAP2 SWAP1 POP JUMP JUMPDEST PUSH1 0x0 PUSH2 0xE1 DUP3 PUSH2 0xC4 JUMP JUMPDEST SWAP1 POP SWAP2 SWAP1 POP JUMP JUMPDEST PUSH1 0x0 PUSH20 0xFFFFFFFFFFFFFFFFFFFFFFFFFFFFFFFFFFFFFFFF DUP3 AND SWAP1 POP SWAP2 SWAP1 POP JUMP JUMPDEST PUSH1 0x0 DUP1 REVERT JUMPDEST PUSH2 0x116 DUP2 PUSH2 0xD6 JUMP JUMPDEST DUP2 EQ PUSH2 0x121 JUMPI PUSH1 0x0 DUP1 REVERT JUMPDEST POP JUMP JUMPDEST PUSH2 0xBE8 DUP1 PUSH2 0x133 PUSH1 0x0 CODECOPY PUSH1 0x0 RETURN INVALID PUSH1 0x80 PUSH1 0x40 MSTORE CALLVALUE DUP1 ISZERO PUSH2 0x10 JUMPI PUSH1 0x0 DUP1 REVERT JUMPDEST POP PUSH1 0x4 CALLDATASIZE LT PUSH2 0x4C JUMPI PUSH1 0x0 CALLDATALOAD PUSH1 0xE0 SHR DUP1 PUSH4 0x49428A62 EQ PUSH2 0x51 JUMPI DUP1 PUSH4 0x63EF8A50 EQ PUSH2 0x82 JUMPI DUP1 PUSH4 0xB9B6C5D4 EQ PUSH2 0x9E JUMPI DUP1 PUSH4 0xFD23C4BB EQ PUSH2 0xBA JUMPI JUMPDEST PUSH1 0x0 DUP1 REVERT JUMPDEST PUSH2 0x6B PUSH1 0x4 DUP1 CALLDATASIZE SUB DUP2 ADD SWAP1 PUSH2 0x66 SWAP2 SWAP1 PUSH2 0x709 JUMP JUMPDEST PUSH2 0xD6 JUMP JUMPDEST PUSH1 0x40 MLOAD PUSH2 0x79 SWAP3 SWAP2 SWAP1 PUSH2 0x857 JUMP JUMPDEST PUSH1 0x40 MLOAD DUP1 SWAP2 SUB SWAP1 RETURN JUMPDEST PUSH2 0x9C PUSH1 0x4 DUP1 CALLDATASIZE SUB DUP2 ADD SWAP1 PUSH2 0x97 SWAP2 SWAP1 PUSH2 0x66A JUMP JUMPDEST PUSH2 0x26D JUMP JUMPDEST STOP JUMPDEST PUSH2 0xB8 PUSH1 0x4 DUP1 CALLDATASIZE SUB DUP2 ADD SWAP1 PUSH2 0xB3 SWAP2 SWAP1 PUSH2 0x709 JUMP JUMPDEST PUSH2 0x3B9 JUMP JUMPDEST STOP JUMPDEST PUSH2 0xD4 PUSH1 0x4 DUP1 CALLDATASIZE SUB DUP2 ADD SWAP1 PUSH2 0xCF SWAP2 SWAP1 PUSH2 0x75C JUMP JUMPDEST PUSH2 0x462 JUMP JUMPDEST STOP JUMPDEST PUSH1 0x60 DUP1 PUSH1 0x1 PUSH1 0x0 DUP7 DUP2 MSTORE PUSH1 0x20 ADD SWAP1 DUP2 MSTORE PUSH1 0x20 ADD PUSH1 0x0 KECCAK256 PUSH1 0x0 DUP6 DUP2 MSTORE PUSH1 0x20 ADD SWAP1 DUP2 MSTORE PUSH1 0x20 ADD PUSH1 0x0 KECCAK256 PUSH1 0x0 DUP5 DUP2 MSTORE PUSH1 0x20 ADD SWAP1 DUP2 MSTORE PUSH1 0x20 ADD PUSH1 0x0 KECCAK256 PUSH1 0x3 ADD PUSH1 0x1 PUSH1 0x0 DUP8 DUP2 MSTORE PUSH1 0x20 ADD SWAP1 DUP2 MSTORE PUSH1 0x20 ADD PUSH1 0x0 KECCAK256 PUSH1 0x0 DUP7 DUP2 MSTORE PUSH1 0x20 ADD SWAP1 DUP2 MSTORE PUSH1 0x20 ADD PUSH1 0x0 KECCAK256 PUSH1 0x0 DUP6 DUP2 MSTORE PUSH1 0x20 ADD SWAP1 DUP2 MSTORE PUSH1 0x20 ADD PUSH1 0x0 KECCAK256 PUSH1 0x4 ADD DUP2 DUP1 SLOAD PUSH2 0x155 SWAP1 PUSH2 0xA0E JUMP JUMPDEST DUP1 PUSH1 0x1F ADD PUSH1 0x20 DUP1 SWAP2 DIV MUL PUSH1 0x20 ADD PUSH1 0x40 MLOAD SWAP1 DUP2 ADD PUSH1 0x40 MSTORE DUP1 SWAP3 SWAP2 SWAP1 DUP2 DUP2 MSTORE PUSH1 0x20 ADD DUP3 DUP1 SLOAD PUSH2 0x181 SWAP1 PUSH2 0xA0E JUMP JUMPDEST DUP1 ISZERO PUSH2 0x1CE JUMPI DUP1 PUSH1 0x1F LT PUSH2 0x1A3 JUMPI PUSH2 0x100 DUP1 DUP4 SLOAD DIV MUL DUP4 MSTORE SWAP2 PUSH1 0x20 ADD SWAP2 PUSH2 0x1CE JUMP JUMPDEST DUP3 ADD SWAP2 SWAP1 PUSH1 0x0 MSTORE PUSH1 0x20 PUSH1 0x0 KECCAK256 SWAP1 JUMPDEST DUP2 SLOAD DUP2 MSTORE SWAP1 PUSH1 0x1 ADD SWAP1 PUSH1 0x20 ADD DUP1 DUP4 GT PUSH2 0x1B1 JUMPI DUP3 SWAP1 SUB PUSH1 0x1F AND DUP3 ADD SWAP2 JUMPDEST POP POP POP POP POP SWAP2 POP DUP1 DUP1 SLOAD PUSH2 0x1E1 SWAP1 PUSH2 0xA0E JUMP JUMPDEST DUP1 PUSH1 0x1F ADD PUSH1 0x20 DUP1 SWAP2 DIV MUL PUSH1 0x20 ADD PUSH1 0x40 MLOAD SWAP1 DUP2 ADD PUSH1 0x40 MSTORE DUP1 SWAP3 SWAP2 SWAP1 DUP2 DUP2 MSTORE PUSH1 0x20 ADD DUP3 DUP1 SLOAD PUSH2 0x20D SWAP1 PUSH2 0xA0E JUMP JUMPDEST DUP1 ISZERO PUSH2 0x25A JUMPI DUP1 PUSH1 0x1F LT PUSH2 0x22F JUMPI PUSH2 0x100 DUP1 DUP4 SLOAD DIV MUL DUP4 MSTORE SWAP2 PUSH1 0x20 ADD SWAP2 PUSH2 0x25A JUMP JUMPDEST DUP3 ADD SWAP2 SWAP1 PUSH1 0x0 MSTORE PUSH1 0x20 PUSH1 0x0 KECCAK256 SWAP1 JUMPDEST DUP2 SLOAD DUP2 MSTORE SWAP1 PUSH1 0x1 ADD SWAP1 PUSH1 0x20 ADD DUP1 DUP4 GT PUSH2 0x23D JUMPI DUP3 SWAP1 SUB PUSH1 0x1F AND DUP3 ADD SWAP2 JUMPDEST POP POP POP POP POP SWAP1 POP SWAP2 POP SWAP2 POP SWAP4 POP SWAP4 SWAP2 POP POP JUMP JUMPDEST PUSH1 0x0 PUSH1 0x1 PUSH1 0x0 DUP7 DUP2 MSTORE PUSH1 0x20 ADD SWAP1 DUP2 MSTORE PUSH1 0x20 ADD PUSH1 0x0 KECCAK256 PUSH1 0x0 DUP6 DUP2 MSTORE PUSH1 0x20 ADD SWAP1 DUP2 MSTORE PUSH1 0x20 ADD PUSH1 0x0 KECCAK256 PUSH1 0x0 PUSH1 0x3 SLOAD DUP2 MSTORE PUSH1 0x20 ADD SWAP1 DUP2 MSTORE PUSH1 0x20 ADD PUSH1 0x0 KECCAK256 SWAP1 POP DUP5 DUP2 PUSH1 0x0 ADD DUP2 SWAP1 SSTORE POP DUP4 DUP2 PUSH1 0x1 ADD DUP2 SWAP1 SSTORE POP PUSH1 0x3 SLOAD DUP2 PUSH1 0x2 ADD DUP2 SWAP1 SSTORE POP DUP3 DUP2 PUSH1 0x3 ADD SWAP1 DUP1 MLOAD SWAP1 PUSH1 0x20 ADD SWAP1 PUSH2 0x2DD SWAP3 SWAP2 SWAP1 PUSH2 0x542 JUMP JUMPDEST POP DUP2 DUP2 PUSH1 0x4 ADD SWAP1 DUP1 MLOAD SWAP1 PUSH1 0x20 ADD SWAP1 PUSH2 0x2F6 SWAP3 SWAP2 SWAP1 PUSH2 0x542 JUMP JUMPDEST POP PUSH1 0x1 DUP2 PUSH1 0x5 ADD PUSH1 0x0 PUSH2 0x100 EXP DUP2 SLOAD DUP2 PUSH1 0xFF MUL NOT AND SWAP1 DUP4 ISZERO ISZERO MUL OR SWAP1 SSTORE POP PUSH1 0x0 DUP2 PUSH1 0x5 ADD PUSH1 0x1 PUSH2 0x100 EXP DUP2 SLOAD DUP2 PUSH1 0xFF MUL NOT AND SWAP1 DUP4 PUSH1 0x6 DUP2 GT ISZERO PUSH2 0x33C JUMPI PUSH2 0x33B PUSH2 0xAE9 JUMP JUMPDEST JUMPDEST MUL OR SWAP1 SSTORE POP PUSH32 0x70D8B12D438DD130D28072C77C8047D9697B630B8DCD969123645998AD67D561 DUP6 DUP6 PUSH1 0x3 SLOAD DUP7 DUP7 PUSH1 0x40 MLOAD PUSH2 0x37A SWAP6 SWAP5 SWAP4 SWAP3 SWAP2 SWAP1 PUSH2 0x8C5 JUMP JUMPDEST PUSH1 0x40 MLOAD DUP1 SWAP2 SUB SWAP1 LOG1 PUSH1 0x2 PUSH1 0x0 DUP2 SLOAD DUP1 SWAP3 SWAP2 SWAP1 PUSH2 0x395 SWAP1 PUSH2 0xA71 JUMP JUMPDEST SWAP2 SWAP1 POP SSTORE POP PUSH1 0x3 PUSH1 0x0 DUP2 SLOAD DUP1 SWAP3 SWAP2 SWAP1 PUSH2 0x3AD SWAP1 PUSH2 0xA71 JUMP JUMPDEST SWAP2 SWAP1 POP SSTORE POP POP POP POP POP POP JUMP JUMPDEST PUSH1 0x0 PUSH1 0x1 PUSH1 0x0 DUP6 DUP2 MSTORE PUSH1 0x20 ADD SWAP1 DUP2 MSTORE PUSH1 0x20 ADD PUSH1 0x0 KECCAK256 PUSH1 0x0 DUP5 DUP2 MSTORE PUSH1 0x20 ADD SWAP1 DUP2 MSTORE PUSH1 0x20 ADD PUSH1 0x0 KECCAK256 PUSH1 0x0 DUP4 DUP2 MSTORE PUSH1 0x20 ADD SWAP1 DUP2 MSTORE PUSH1 0x20 ADD PUSH1 0x0 KECCAK256 PUSH1 0x5 ADD PUSH1 0x0 PUSH2 0x100 EXP DUP2 SLOAD DUP2 PUSH1 0xFF MUL NOT AND SWAP1 DUP4 ISZERO ISZERO MUL OR SWAP1 SSTORE POP PUSH1 0x2 PUSH1 0x0 DUP2 SLOAD DUP1 SWAP3 SWAP2 SWAP1 PUSH2 0x41D SWAP1 PUSH2 0x9E4 JUMP JUMPDEST SWAP2 SWAP1 POP SSTORE POP PUSH32 0x2B2605EE52ACE237F72E6005EEE79180EA3B6151BD8848A6BE5E3C224B8A6EC6 DUP4 DUP4 DUP4 PUSH1 0x40 MLOAD PUSH2 0x455 SWAP4 SWAP3 SWAP2 SWAP1 PUSH2 0x88E JUMP JUMPDEST PUSH1 0x40 MLOAD DUP1 SWAP2 SUB SWAP1 LOG1 POP POP POP JUMP JUMPDEST DUP2 PUSH1 0x1 PUSH1 0x0 DUP8 DUP2 MSTORE PUSH1 0x20 ADD SWAP1 DUP2 MSTORE PUSH1 0x20 ADD PUSH1 0x0 KECCAK256 PUSH1 0x0 DUP7 DUP2 MSTORE PUSH1 0x20 ADD SWAP1 DUP2 MSTORE PUSH1 0x20 ADD PUSH1 0x0 KECCAK256 PUSH1 0x0 DUP6 DUP2 MSTORE PUSH1 0x20 ADD SWAP1 DUP2 MSTORE PUSH1 0x20 ADD PUSH1 0x0 KECCAK256 PUSH1 0x3 ADD SWAP1 DUP1 MLOAD SWAP1 PUSH1 0x20 ADD SWAP1 PUSH2 0x4AE SWAP3 SWAP2 SWAP1 PUSH2 0x542 JUMP JUMPDEST POP DUP1 PUSH1 0x1 PUSH1 0x0 DUP8 DUP2 MSTORE PUSH1 0x20 ADD SWAP1 DUP2 MSTORE PUSH1 0x20 ADD PUSH1 0x0 KECCAK256 PUSH1 0x0 DUP7 DUP2 MSTORE PUSH1 0x20 ADD SWAP1 DUP2 MSTORE PUSH1 0x20 ADD PUSH1 0x0 KECCAK256 PUSH1 0x0 DUP6 DUP2 MSTORE PUSH1 0x20 ADD SWAP1 DUP2 MSTORE PUSH1 0x20 ADD PUSH1 0x0 KECCAK256 PUSH1 0x4 ADD SWAP1 DUP1 MLOAD SWAP1 PUSH1 0x20 ADD SWAP1 PUSH2 0x4FB SWAP3 SWAP2 SWAP1 PUSH2 0x542 JUMP JUMPDEST POP PUSH32 0x8C0D6FF1212C3FBF79BBE6DC1E26CC40C4E137EC5711D4471B16FA121F933511 DUP6 DUP6 DUP6 DUP6 DUP6 PUSH1 0x40 MLOAD PUSH2 0x533 SWAP6 SWAP5 SWAP4 SWAP3 SWAP2 SWAP1 PUSH2 0x8C5 JUMP JUMPDEST PUSH1 0x40 MLOAD DUP1 SWAP2 SUB SWAP1 LOG1 POP POP POP POP POP JUMP JUMPDEST DUP3 DUP1 SLOAD PUSH2 0x54E SWAP1 PUSH2 0xA0E JUMP JUMPDEST SWAP1 PUSH1 0x0 MSTORE PUSH1 0x20 PUSH1 0x0 KECCAK256 SWAP1 PUSH1 0x1F ADD PUSH1 0x20 SWAP1 DIV DUP2 ADD SWAP3 DUP3 PUSH2 0x570 JUMPI PUSH1 0x0 DUP6 SSTORE PUSH2 0x5B7 JUMP JUMPDEST DUP3 PUSH1 0x1F LT PUSH2 0x589 JUMPI DUP1 MLOAD PUSH1 0xFF NOT AND DUP4 DUP1 ADD OR DUP6 SSTORE PUSH2 0x5B7 JUMP JUMPDEST DUP3 DUP1 ADD PUSH1 0x1 ADD DUP6 SSTORE DUP3 ISZERO PUSH2 0x5B7 JUMPI SWAP2 DUP3 ADD JUMPDEST DUP3 DUP2 GT ISZERO PUSH2 0x5B6 JUMPI DUP3 MLOAD DUP3 SSTORE SWAP2 PUSH1 0x20 ADD SWAP2 SWAP1 PUSH1 0x1 ADD SWAP1 PUSH2 0x59B JUMP JUMPDEST JUMPDEST POP SWAP1 POP PUSH2 0x5C4 SWAP2 SWAP1 PUSH2 0x5C8 JUMP JUMPDEST POP SWAP1 JUMP JUMPDEST JUMPDEST DUP1 DUP3 GT ISZERO PUSH2 0x5E1 JUMPI PUSH1 0x0 DUP2 PUSH1 0x0 SWAP1 SSTORE POP PUSH1 0x1 ADD PUSH2 0x5C9 JUMP JUMPDEST POP SWAP1 JUMP JUMPDEST PUSH1 0x0 PUSH2 0x5F8 PUSH2 0x5F3 DUP5 PUSH2 0x94B JUMP JUMPDEST PUSH2 0x926 JUMP JUMPDEST SWAP1 POP DUP3 DUP2 MSTORE PUSH1 0x20 DUP2 ADD DUP5 DUP5 DUP5 ADD GT ISZERO PUSH2 0x614 JUMPI PUSH2 0x613 PUSH2 0xB7B JUMP JUMPDEST JUMPDEST PUSH2 0x61F DUP5 DUP3 DUP6 PUSH2 0x9A2 JUMP JUMPDEST POP SWAP4 SWAP3 POP POP POP JUMP JUMPDEST PUSH1 0x0 DUP3 PUSH1 0x1F DUP4 ADD SLT PUSH2 0x63C JUMPI PUSH2 0x63B PUSH2 0xB76 JUMP JUMPDEST JUMPDEST DUP2 CALLDATALOAD PUSH2 0x64C DUP5 DUP3 PUSH1 0x20 DUP7 ADD PUSH2 0x5E5 JUMP JUMPDEST SWAP2 POP POP SWAP3 SWAP2 POP POP JUMP JUMPDEST PUSH1 0x0 DUP2 CALLDATALOAD SWAP1 POP PUSH2 0x664 DUP2 PUSH2 0xB9B JUMP JUMPDEST SWAP3 SWAP2 POP POP JUMP JUMPDEST PUSH1 0x0 DUP1 PUSH1 0x0 DUP1 PUSH1 0x80 DUP6 DUP8 SUB SLT ISZERO PUSH2 0x684 JUMPI PUSH2 0x683 PUSH2 0xB85 JUMP JUMPDEST JUMPDEST PUSH1 0x0 PUSH2 0x692 DUP8 DUP3 DUP9 ADD PUSH2 0x655 JUMP JUMPDEST SWAP5 POP POP PUSH1 0x20 PUSH2 0x6A3 DUP8 DUP3 DUP9 ADD PUSH2 0x655 JUMP JUMPDEST SWAP4 POP POP PUSH1 0x40 DUP6 ADD CALLDATALOAD PUSH8 0xFFFFFFFFFFFFFFFF DUP2 GT ISZERO PUSH2 0x6C4 JUMPI PUSH2 0x6C3 PUSH2 0xB80 JUMP JUMPDEST JUMPDEST PUSH2 0x6D0 DUP8 DUP3 DUP9 ADD PUSH2 0x627 JUMP JUMPDEST SWAP3 POP POP PUSH1 0x60 DUP6 ADD CALLDATALOAD PUSH8 0xFFFFFFFFFFFFFFFF DUP2 GT ISZERO PUSH2 0x6F1 JUMPI PUSH2 0x6F0 PUSH2 0xB80 JUMP JUMPDEST JUMPDEST PUSH2 0x6FD DUP8 DUP3 DUP9 ADD PUSH2 0x627 JUMP JUMPDEST SWAP2 POP POP SWAP3 SWAP6 SWAP2 SWAP5 POP SWAP3 POP JUMP JUMPDEST PUSH1 0x0 DUP1 PUSH1 0x0 PUSH1 0x60 DUP5 DUP7 SUB SLT ISZERO PUSH2 0x722 JUMPI PUSH2 0x721 PUSH2 0xB85 JUMP JUMPDEST JUMPDEST PUSH1 0x0 PUSH2 0x730 DUP7 DUP3 DUP8 ADD PUSH2 0x655 JUMP JUMPDEST SWAP4 POP POP PUSH1 0x20 PUSH2 0x741 DUP7 DUP3 DUP8 ADD PUSH2 0x655 JUMP JUMPDEST SWAP3 POP POP PUSH1 0x40 PUSH2 0x752 DUP7 DUP3 DUP8 ADD PUSH2 0x655 JUMP JUMPDEST SWAP2 POP POP SWAP3 POP SWAP3 POP SWAP3 JUMP JUMPDEST PUSH1 0x0 DUP1 PUSH1 0x0 DUP1 PUSH1 0x0 PUSH1 0xA0 DUP7 DUP9 SUB SLT ISZERO PUSH2 0x778 JUMPI PUSH2 0x777 PUSH2 0xB85 JUMP JUMPDEST JUMPDEST PUSH1 0x0 PUSH2 0x786 DUP9 DUP3 DUP10 ADD PUSH2 0x655 JUMP JUMPDEST SWAP6 POP POP PUSH1 0x20 PUSH2 0x797 DUP9 DUP3 DUP10 ADD PUSH2 0x655 JUMP JUMPDEST SWAP5 POP POP PUSH1 0x40 PUSH2 0x7A8 DUP9 DUP3 DUP10 ADD PUSH2 0x655 JUMP JUMPDEST SWAP4 POP POP PUSH1 0x60 DUP7 ADD CALLDATALOAD PUSH8 0xFFFFFFFFFFFFFFFF DUP2 GT ISZERO PUSH2 0x7C9 JUMPI PUSH2 0x7C8 PUSH2 0xB80 JUMP JUMPDEST JUMPDEST PUSH2 0x7D5 DUP9 DUP3 DUP10 ADD PUSH2 0x627 JUMP JUMPDEST SWAP3 POP POP PUSH1 0x80 DUP7 ADD CALLDATALOAD PUSH8 0xFFFFFFFFFFFFFFFF DUP2 GT ISZERO PUSH2 0x7F6 JUMPI PUSH2 0x7F5 PUSH2 0xB80 JUMP JUMPDEST JUMPDEST PUSH2 0x802 DUP9 DUP3 DUP10 ADD PUSH2 0x627 JUMP JUMPDEST SWAP2 POP POP SWAP3 SWAP6 POP SWAP3 SWAP6 SWAP1 SWAP4 POP JUMP JUMPDEST PUSH1 0x0 PUSH2 0x81A DUP3 PUSH2 0x97C JUMP JUMPDEST PUSH2 0x824 DUP2 DUP6 PUSH2 0x987 JUMP JUMPDEST SWAP4 POP PUSH2 0x834 DUP2 DUP6 PUSH1 0x20 DUP7 ADD PUSH2 0x9B1 JUMP JUMPDEST PUSH2 0x83D DUP2 PUSH2 0xB8A JUMP JUMPDEST DUP5 ADD SWAP2 POP POP SWAP3 SWAP2 POP POP JUMP JUMPDEST PUSH2 0x851 DUP2 PUSH2 0x998 JUMP JUMPDEST DUP3 MSTORE POP POP JUMP JUMPDEST PUSH1 0x0 PUSH1 0x40 DUP3 ADD SWAP1 POP DUP2 DUP2 SUB PUSH1 0x0 DUP4 ADD MSTORE PUSH2 0x871 DUP2 DUP6 PUSH2 0x80F JUMP JUMPDEST SWAP1 POP DUP2 DUP2 SUB PUSH1 0x20 DUP4 ADD MSTORE PUSH2 0x885 DUP2 DUP5 PUSH2 0x80F JUMP JUMPDEST SWAP1 POP SWAP4 SWAP3 POP POP POP JUMP JUMPDEST PUSH1 0x0 PUSH1 0x60 DUP3 ADD SWAP1 POP PUSH2 0x8A3 PUSH1 0x0 DUP4 ADD DUP7 PUSH2 0x848 JUMP JUMPDEST PUSH2 0x8B0 PUSH1 0x20 DUP4 ADD DUP6 PUSH2 0x848 JUMP JUMPDEST PUSH2 0x8BD PUSH1 0x40 DUP4 ADD DUP5 PUSH2 0x848 JUMP JUMPDEST SWAP5 SWAP4 POP POP POP POP JUMP JUMPDEST PUSH1 0x0 PUSH1 0xA0 DUP3 ADD SWAP1 POP PUSH2 0x8DA PUSH1 0x0 DUP4 ADD DUP9 PUSH2 0x848 JUMP JUMPDEST PUSH2 0x8E7 PUSH1 0x20 DUP4 ADD DUP8 PUSH2 0x848 JUMP JUMPDEST PUSH2 0x8F4 PUSH1 0x40 DUP4 ADD DUP7 PUSH2 0x848 JUMP JUMPDEST DUP2 DUP2 SUB PUSH1 0x60 DUP4 ADD MSTORE PUSH2 0x906 DUP2 DUP6 PUSH2 0x80F JUMP JUMPDEST SWAP1 POP DUP2 DUP2 SUB PUSH1 0x80 DUP4 ADD MSTORE PUSH2 0x91A DUP2 DUP5 PUSH2 0x80F JUMP JUMPDEST SWAP1 POP SWAP7 SWAP6 POP POP POP POP POP POP JUMP JUMPDEST PUSH1 0x0 PUSH2 0x930 PUSH2 0x941 JUMP JUMPDEST SWAP1 POP PUSH2 0x93C DUP3 DUP3 PUSH2 0xA40 JUMP JUMPDEST SWAP2 SWAP1 POP JUMP JUMPDEST PUSH1 0x0 PUSH1 0x40 MLOAD SWAP1 POP SWAP1 JUMP JUMPDEST PUSH1 0x0 PUSH8 0xFFFFFFFFFFFFFFFF DUP3 GT ISZERO PUSH2 0x966 JUMPI PUSH2 0x965 PUSH2 0xB47 JUMP JUMPDEST JUMPDEST PUSH2 0x96F DUP3 PUSH2 0xB8A JUMP JUMPDEST SWAP1 POP PUSH1 0x20 DUP2 ADD SWAP1 POP SWAP2 SWAP1 POP JUMP JUMPDEST PUSH1 0x0 DUP2 MLOAD SWAP1 POP SWAP2 SWAP1 POP JUMP JUMPDEST PUSH1 0x0 DUP3 DUP3 MSTORE PUSH1 0x20 DUP3 ADD SWAP1 POP SWAP3 SWAP2 POP POP JUMP JUMPDEST PUSH1 0x0 DUP2 SWAP1 POP SWAP2 SWAP1 POP JUMP JUMPDEST DUP3 DUP2 DUP4 CALLDATACOPY PUSH1 0x0 DUP4 DUP4 ADD MSTORE POP POP POP JUMP JUMPDEST PUSH1 0x0 JUMPDEST DUP4 DUP2 LT ISZERO PUSH2 0x9CF JUMPI DUP1 DUP3 ADD MLOAD DUP2 DUP5 ADD MSTORE PUSH1 0x20 DUP2 ADD SWAP1 POP PUSH2 0x9B4 JUMP JUMPDEST DUP4 DUP2 GT ISZERO PUSH2 0x9DE JUMPI PUSH1 0x0 DUP5 DUP5 ADD MSTORE JUMPDEST POP POP POP POP JUMP JUMPDEST PUSH1 0x0 PUSH2 0x9EF DUP3 PUSH2 0x998 JUMP JUMPDEST SWAP2 POP PUSH1 0x0 DUP3 EQ ISZERO PUSH2 0xA03 JUMPI PUSH2 0xA02 PUSH2 0xABA JUMP JUMPDEST JUMPDEST PUSH1 0x1 DUP3 SUB SWAP1 POP SWAP2 SWAP1 POP JUMP JUMPDEST PUSH1 0x0 PUSH1 0x2 DUP3 DIV SWAP1 POP PUSH1 0x1 DUP3 AND DUP1 PUSH2 0xA26 JUMPI PUSH1 0x7F DUP3 AND SWAP2 POP JUMPDEST PUSH1 0x20 DUP3 LT DUP2 EQ ISZERO PUSH2 0xA3A JUMPI PUSH2 0xA39 PUSH2 0xB18 JUMP JUMPDEST JUMPDEST POP SWAP2 SWAP1 POP JUMP JUMPDEST PUSH2 0xA49 DUP3 PUSH2 0xB8A JUMP JUMPDEST DUP2 ADD DUP2 DUP2 LT PUSH8 0xFFFFFFFFFFFFFFFF DUP3 GT OR ISZERO PUSH2 0xA68 JUMPI PUSH2 0xA67 PUSH2 0xB47 JUMP JUMPDEST JUMPDEST DUP1 PUSH1 0x40 MSTORE POP POP POP JUMP JUMPDEST PUSH1 0x0 PUSH2 0xA7C DUP3 PUSH2 0x998 JUMP JUMPDEST SWAP2 POP PUSH32 0xFFFFFFFFFFFFFFFFFFFFFFFFFFFFFFFFFFFFFFFFFFFFFFFFFFFFFFFFFFFFFFFF DUP3 EQ ISZERO PUSH2 0xAAF JUMPI PUSH2 0xAAE PUSH2 0xABA JUMP JUMPDEST JUMPDEST PUSH1 0x1 DUP3 ADD SWAP1 POP SWAP2 SWAP1 POP JUMP JUMPDEST PUSH32 0x4E487B7100000000000000000000000000000000000000000000000000000000 PUSH1 0x0 MSTORE PUSH1 0x11 PUSH1 0x4 MSTORE PUSH1 0x24 PUSH1 0x0 REVERT JUMPDEST PUSH32 0x4E487B7100000000000000000000000000000000000000000000000000000000 PUSH1 0x0 MSTORE PUSH1 0x21 PUSH1 0x4 MSTORE PUSH1 0x24 PUSH1 0x0 REVERT JUMPDEST PUSH32 0x4E487B7100000000000000000000000000000000000000000000000000000000 PUSH1 0x0 MSTORE PUSH1 0x22 PUSH1 0x4 MSTORE PUSH1 0x24 PUSH1 0x0 REVERT JUMPDEST PUSH32 0x4E487B7100000000000000000000000000000000000000000000000000000000 PUSH1 0x0 MSTORE PUSH1 0x41 PUSH1 0x4 MSTORE PUSH1 0x24 PUSH1 0x0 REVERT JUMPDEST PUSH1 0x0 DUP1 REVERT JUMPDEST PUSH1 0x0 DUP1 REVERT JUMPDEST PUSH1 0x0 DUP1 REVERT JUMPDEST PUSH1 0x0 DUP1 REVERT JUMPDEST PUSH1 0x0 PUSH1 0x1F NOT PUSH1 0x1F DUP4 ADD AND SWAP1 POP SWAP2 SWAP1 POP JUMP JUMPDEST PUSH2 0xBA4 DUP2 PUSH2 0x998 JUMP JUMPDEST DUP2 EQ PUSH2 0xBAF JUMPI PUSH1 0x0 DUP1 REVERT JUMPDEST POP JUMP INVALID LOG2 PUSH5 0x6970667358 0x22 SLT KECCAK256 LOG0 ISZERO BYTE 0xE5 PUSH17 0x9E19181C875CB595190067982DA1D1E074 OR 0x23 ADDRESS 0xFC 0x22 0xEE 0x4F CODECOPY 0xBF 0xE3 PUSH5 0x736F6C6343 STOP ADDMOD SMOD STOP CALLER "
				},
				"gasEstimates": {
					"creation": {
						"codeDepositCost": "609600",
						"executionCost": "infinite",
						"totalCost": "infinite"
					},
					"external": {
						"createMilestone(uint256,uint256,string,string)": "infinite",
						"deleteMilestone(uint256,uint256,uint256)": "infinite",
						"readMilestone(uint256,uint256,uint256)": "infinite",
						"updateMilestone(uint256,uint256,uint256,string,string)": "infinite"
					}
				},
				"methodIdentifiers": {
					"createMilestone(uint256,uint256,string,string)": "63ef8a50",
					"deleteMilestone(uint256,uint256,uint256)": "b9b6c5d4",
					"readMilestone(uint256,uint256,uint256)": "49428a62",
					"updateMilestone(uint256,uint256,uint256,string,string)": "fd23c4bb"
				}
			},
			"userdoc": {
				"kind": "user",
				"methods": {},
				"version": 1
			}
		}
	}
}