{
	"contracts/Conflict.sol": {
		"Conflict": {
			"abi": [
				{
					"anonymous": false,
					"inputs": [
						{
							"indexed": false,
							"internalType": "uint256",
							"name": "projectNumber",
							"type": "uint256"
						},
						{
							"indexed": false,
							"internalType": "uint256",
							"name": "serviceNumber",
							"type": "uint256"
						},
						{
							"indexed": false,
							"internalType": "uint256",
							"name": "milestoneNumber",
							"type": "uint256"
						},
						{
							"indexed": false,
							"internalType": "address",
							"name": "serviceRequester",
							"type": "address"
						},
						{
							"indexed": false,
							"internalType": "address",
							"name": "serviceProvider",
							"type": "address"
						},
						{
							"indexed": false,
							"internalType": "uint256",
							"name": "totalVoters",
							"type": "uint256"
						}
					],
					"name": "conflictCreated",
					"type": "event"
				},
				{
					"anonymous": false,
					"inputs": [
						{
							"indexed": false,
							"internalType": "uint256",
							"name": "projectNumber",
							"type": "uint256"
						},
						{
							"indexed": false,
							"internalType": "uint256",
							"name": "serviceNumber",
							"type": "uint256"
						},
						{
							"indexed": false,
							"internalType": "uint256",
							"name": "milestoneNumber",
							"type": "uint256"
						},
						{
							"indexed": false,
							"internalType": "address",
							"name": "serviceProvider",
							"type": "address"
						}
					],
					"name": "conflictRaised",
					"type": "event"
				},
				{
					"anonymous": false,
					"inputs": [
						{
							"indexed": false,
							"internalType": "uint256",
							"name": "projectNumber",
							"type": "uint256"
						},
						{
							"indexed": false,
							"internalType": "uint256",
							"name": "serviceNumber",
							"type": "uint256"
						},
						{
							"indexed": false,
							"internalType": "uint256",
							"name": "milestoneNumber",
							"type": "uint256"
						},
						{
							"indexed": false,
							"internalType": "uint8",
							"name": "result",
							"type": "uint8"
						}
					],
					"name": "conflictResult",
					"type": "event"
				},
				{
					"anonymous": false,
					"inputs": [
						{
							"indexed": false,
							"internalType": "uint256",
							"name": "projectNumber",
							"type": "uint256"
						},
						{
							"indexed": false,
							"internalType": "uint256",
							"name": "serviceNumber",
							"type": "uint256"
						},
						{
							"indexed": false,
							"internalType": "uint256",
							"name": "milestoneNumber",
							"type": "uint256"
						},
						{
							"indexed": false,
							"internalType": "address",
							"name": "voter",
							"type": "address"
						},
						{
							"indexed": false,
							"internalType": "uint8",
							"name": "vote",
							"type": "uint8"
						}
					],
					"name": "conflictVoted",
					"type": "event"
				},
				{
					"inputs": [
						{
							"internalType": "uint256",
							"name": "projectNumber",
							"type": "uint256"
						},
						{
							"internalType": "uint256",
							"name": "serviceNumber",
							"type": "uint256"
						},
						{
							"internalType": "uint256",
							"name": "milestoneNumber",
							"type": "uint256"
						},
						{
							"internalType": "address",
							"name": "serviceRequester",
							"type": "address"
						},
						{
							"internalType": "address",
							"name": "serviceProvider",
							"type": "address"
						},
						{
							"internalType": "uint256",
							"name": "totalVoters",
							"type": "uint256"
						}
					],
					"name": "createConflict",
					"outputs": [],
					"stateMutability": "nonpayable",
					"type": "function"
				},
				{
					"inputs": [
						{
							"internalType": "uint256",
							"name": "projectNumber",
							"type": "uint256"
						},
						{
							"internalType": "uint256",
							"name": "serviceNumber",
							"type": "uint256"
						},
						{
							"internalType": "uint256",
							"name": "milestoneNumber",
							"type": "uint256"
						}
					],
					"name": "getConflictStatus",
					"outputs": [
						{
							"internalType": "enum Conflict.ConflictStatus",
							"name": "",
							"type": "uint8"
						}
					],
					"stateMutability": "view",
					"type": "function"
				},
				{
					"inputs": [
						{
							"internalType": "uint256",
							"name": "projectNumber",
							"type": "uint256"
						},
						{
							"internalType": "uint256",
							"name": "serviceNumber",
							"type": "uint256"
						},
						{
							"internalType": "uint256",
							"name": "milestoneNumber",
							"type": "uint256"
						}
					],
					"name": "getResults",
					"outputs": [
						{
							"internalType": "uint256",
							"name": "",
							"type": "uint256"
						}
					],
					"stateMutability": "view",
					"type": "function"
				},
				{
					"inputs": [
						{
							"internalType": "uint256",
							"name": "projectNumber",
							"type": "uint256"
						},
						{
							"internalType": "uint256",
							"name": "serviceNumber",
							"type": "uint256"
						},
						{
							"internalType": "uint256",
							"name": "milestoneNumber",
							"type": "uint256"
						}
					],
					"name": "getVotesCollected",
					"outputs": [
						{
							"internalType": "uint256",
							"name": "",
							"type": "uint256"
						}
					],
					"stateMutability": "view",
					"type": "function"
				},
				{
					"inputs": [
						{
							"internalType": "uint256",
							"name": "projectNumber",
							"type": "uint256"
						},
						{
							"internalType": "uint256",
							"name": "serviceNumber",
							"type": "uint256"
						},
						{
							"internalType": "uint256",
							"name": "milestoneNumber",
							"type": "uint256"
						}
					],
					"name": "getVotesforProvider",
					"outputs": [
						{
							"internalType": "uint256",
							"name": "",
							"type": "uint256"
						}
					],
					"stateMutability": "view",
					"type": "function"
				},
				{
					"inputs": [
						{
							"internalType": "uint256",
							"name": "projectNumber",
							"type": "uint256"
						},
						{
							"internalType": "uint256",
							"name": "serviceNumber",
							"type": "uint256"
						},
						{
							"internalType": "uint256",
							"name": "milestoneNumber",
							"type": "uint256"
						}
					],
					"name": "getVotesforRequester",
					"outputs": [
						{
							"internalType": "uint256",
							"name": "",
							"type": "uint256"
						}
					],
					"stateMutability": "view",
					"type": "function"
				},
				{
					"inputs": [
						{
							"internalType": "uint256",
							"name": "projectNumber",
							"type": "uint256"
						},
						{
							"internalType": "uint256",
							"name": "serviceNumber",
							"type": "uint256"
						},
						{
							"internalType": "uint256",
							"name": "milestoneNumber",
							"type": "uint256"
						},
						{
							"internalType": "address",
							"name": "sender",
							"type": "address"
						},
						{
							"internalType": "uint8",
							"name": "vote",
							"type": "uint8"
						}
					],
					"name": "voteConflict",
					"outputs": [],
					"stateMutability": "nonpayable",
					"type": "function"
				}
			],
			"devdoc": {
				"kind": "dev",
				"methods": {},
				"version": 1
			},
			"evm": {
				"assembly": "    /* \"contracts/Conflict.sol\":196:5975  contract Conflict {... */\n  mstore(0x40, 0x80)\n  callvalue\n  dup1\n  iszero\n  tag_1\n  jumpi\n  0x00\n  dup1\n  revert\ntag_1:\n  pop\n  dataSize(sub_0)\n  dup1\n  dataOffset(sub_0)\n  0x00\n  codecopy\n  0x00\n  return\nstop\n\nsub_0: assembly {\n        /* \"contracts/Conflict.sol\":196:5975  contract Conflict {... */\n      mstore(0x40, 0x80)\n      callvalue\n      dup1\n      iszero\n      tag_1\n      jumpi\n      0x00\n      dup1\n      revert\n    tag_1:\n      pop\n      jumpi(tag_2, lt(calldatasize, 0x04))\n      shr(0xe0, calldataload(0x00))\n      dup1\n      0x9ac78879\n      gt\n      tag_10\n      jumpi\n      dup1\n      0x9ac78879\n      eq\n      tag_6\n      jumpi\n      dup1\n      0xc171bdf7\n      eq\n      tag_7\n      jumpi\n      dup1\n      0xcb4389ce\n      eq\n      tag_8\n      jumpi\n      dup1\n      0xe3d87718\n      eq\n      tag_9\n      jumpi\n      jump(tag_2)\n    tag_10:\n      dup1\n      0x0366cef2\n      eq\n      tag_3\n      jumpi\n      dup1\n      0x3c45fe31\n      eq\n      tag_4\n      jumpi\n      dup1\n      0x71606fb0\n      eq\n      tag_5\n      jumpi\n    tag_2:\n      0x00\n      dup1\n      revert\n        /* \"contracts/Conflict.sol\":4421:5045  function getResults(uint256 projectNumber, uint256 serviceNumber, uint256 milestoneNumber) public view returns (uint) {... */\n    tag_3:\n      tag_11\n      0x04\n      dup1\n      calldatasize\n      sub\n      dup2\n      add\n      swap1\n      tag_12\n      swap2\n      swap1\n      tag_13\n      jump\t// in\n    tag_12:\n      tag_14\n      jump\t// in\n    tag_11:\n      mload(0x40)\n      tag_15\n      swap2\n      swap1\n      tag_16\n      jump\t// in\n    tag_15:\n      mload(0x40)\n      dup1\n      swap2\n      sub\n      swap1\n      return\n        /* \"contracts/Conflict.sol\":5287:5510  function getVotesCollected(uint256 projectNumber, uint256 serviceNumber, uint256 milestoneNumber) public view returns (uint256) {... */\n    tag_4:\n      tag_17\n      0x04\n      dup1\n      calldatasize\n      sub\n      dup2\n      add\n      swap1\n      tag_18\n      swap2\n      swap1\n      tag_13\n      jump\t// in\n    tag_18:\n      tag_19\n      jump\t// in\n    tag_17:\n      mload(0x40)\n      tag_20\n      swap2\n      swap1\n      tag_16\n      jump\t// in\n    tag_20:\n      mload(0x40)\n      dup1\n      swap2\n      sub\n      swap1\n      return\n        /* \"contracts/Conflict.sol\":1446:2624  function createConflict(uint256 projectNumber, uint256 serviceNumber, uint256 milestoneNumber, address serviceRequester, address serviceProvider,  uint256 totalVoters) public {... */\n    tag_5:\n      tag_21\n      0x04\n      dup1\n      calldatasize\n      sub\n      dup2\n      add\n      swap1\n      tag_22\n      swap2\n      swap1\n      tag_23\n      jump\t// in\n    tag_22:\n      tag_24\n      jump\t// in\n    tag_21:\n      stop\n        /* \"contracts/Conflict.sol\":5748:5972  function getVotesforProvider(uint256 projectNumber, uint256 serviceNumber, uint256 milestoneNumber) public view returns (uint256) {... */\n    tag_6:\n      tag_25\n      0x04\n      dup1\n      calldatasize\n      sub\n      dup2\n      add\n      swap1\n      tag_26\n      swap2\n      swap1\n      tag_13\n      jump\t// in\n    tag_26:\n      tag_27\n      jump\t// in\n    tag_25:\n      mload(0x40)\n      tag_28\n      swap2\n      swap1\n      tag_16\n      jump\t// in\n    tag_28:\n      mload(0x40)\n      dup1\n      swap2\n      sub\n      swap1\n      return\n        /* \"contracts/Conflict.sol\":2753:4383  function voteConflict(uint256 projectNumber, uint256 serviceNumber, uint256 milestoneNumber, address sender, uint8 vote) public {... */\n    tag_7:\n      tag_29\n      0x04\n      dup1\n      calldatasize\n      sub\n      dup2\n      add\n      swap1\n      tag_30\n      swap2\n      swap1\n      tag_31\n      jump\t// in\n    tag_30:\n      tag_32\n      jump\t// in\n    tag_29:\n      stop\n        /* \"contracts/Conflict.sol\":5051:5281  function getConflictStatus(uint256 projectNumber, uint256 serviceNumber, uint256 milestoneNumber) public view returns (ConflictStatus) {... */\n    tag_8:\n      tag_33\n      0x04\n      dup1\n      calldatasize\n      sub\n      dup2\n      add\n      swap1\n      tag_34\n      swap2\n      swap1\n      tag_13\n      jump\t// in\n    tag_34:\n      tag_35\n      jump\t// in\n    tag_33:\n      mload(0x40)\n      tag_36\n      swap2\n      swap1\n      tag_37\n      jump\t// in\n    tag_36:\n      mload(0x40)\n      dup1\n      swap2\n      sub\n      swap1\n      return\n        /* \"contracts/Conflict.sol\":5516:5742  function getVotesforRequester(uint256 projectNumber, uint256 serviceNumber, uint256 milestoneNumber) public view returns (uint256) {... */\n    tag_9:\n      tag_38\n      0x04\n      dup1\n      calldatasize\n      sub\n      dup2\n      add\n      swap1\n      tag_39\n      swap2\n      swap1\n      tag_13\n      jump\t// in\n    tag_39:\n      tag_40\n      jump\t// in\n    tag_38:\n      mload(0x40)\n      tag_41\n      swap2\n      swap1\n      tag_16\n      jump\t// in\n    tag_41:\n      mload(0x40)\n      dup1\n      swap2\n      sub\n      swap1\n      return\n        /* \"contracts/Conflict.sol\":4421:5045  function getResults(uint256 projectNumber, uint256 serviceNumber, uint256 milestoneNumber) public view returns (uint) {... */\n    tag_14:\n        /* \"contracts/Conflict.sol\":4533:4537  uint */\n      0x00\n        /* \"contracts/Conflict.sol\":4632:4641  conflicts */\n      dup1\n        /* \"contracts/Conflict.sol\":4632:4656  conflicts[projectNumber] */\n      0x00\n        /* \"contracts/Conflict.sol\":4642:4655  projectNumber */\n      dup6\n        /* \"contracts/Conflict.sol\":4632:4656  conflicts[projectNumber] */\n      dup2\n      mstore\n      0x20\n      add\n      swap1\n      dup2\n      mstore\n      0x20\n      add\n      0x00\n      keccak256\n        /* \"contracts/Conflict.sol\":4632:4671  conflicts[projectNumber][serviceNumber] */\n      0x00\n        /* \"contracts/Conflict.sol\":4657:4670  serviceNumber */\n      dup5\n        /* \"contracts/Conflict.sol\":4632:4671  conflicts[projectNumber][serviceNumber] */\n      dup2\n      mstore\n      0x20\n      add\n      swap1\n      dup2\n      mstore\n      0x20\n      add\n      0x00\n      keccak256\n        /* \"contracts/Conflict.sol\":4632:4688  conflicts[projectNumber][serviceNumber][milestoneNumber] */\n      0x00\n        /* \"contracts/Conflict.sol\":4672:4687  milestoneNumber */\n      dup4\n        /* \"contracts/Conflict.sol\":4632:4688  conflicts[projectNumber][serviceNumber][milestoneNumber] */\n      dup2\n      mstore\n      0x20\n      add\n      swap1\n      dup2\n      mstore\n      0x20\n      add\n      0x00\n      keccak256\n        /* \"contracts/Conflict.sol\":4632:4695  conflicts[projectNumber][serviceNumber][milestoneNumber].voters */\n      0x05\n      add\n      sload\n        /* \"contracts/Conflict.sol\":4557:4566  conflicts */\n      0x00\n        /* \"contracts/Conflict.sol\":4557:4581  conflicts[projectNumber] */\n      dup1\n        /* \"contracts/Conflict.sol\":4567:4580  projectNumber */\n      dup7\n        /* \"contracts/Conflict.sol\":4557:4581  conflicts[projectNumber] */\n      dup2\n      mstore\n      0x20\n      add\n      swap1\n      dup2\n      mstore\n      0x20\n      add\n      0x00\n      keccak256\n        /* \"contracts/Conflict.sol\":4557:4596  conflicts[projectNumber][serviceNumber] */\n      0x00\n        /* \"contracts/Conflict.sol\":4582:4595  serviceNumber */\n      dup6\n        /* \"contracts/Conflict.sol\":4557:4596  conflicts[projectNumber][serviceNumber] */\n      dup2\n      mstore\n      0x20\n      add\n      swap1\n      dup2\n      mstore\n      0x20\n      add\n      0x00\n      keccak256\n        /* \"contracts/Conflict.sol\":4557:4613  conflicts[projectNumber][serviceNumber][milestoneNumber] */\n      0x00\n        /* \"contracts/Conflict.sol\":4597:4612  milestoneNumber */\n      dup5\n        /* \"contracts/Conflict.sol\":4557:4613  conflicts[projectNumber][serviceNumber][milestoneNumber] */\n      dup2\n      mstore\n      0x20\n      add\n      swap1\n      dup2\n      mstore\n      0x20\n      add\n      0x00\n      keccak256\n        /* \"contracts/Conflict.sol\":4557:4628  conflicts[projectNumber][serviceNumber][milestoneNumber].votesCollected */\n      0x06\n      add\n      sload\n        /* \"contracts/Conflict.sol\":4557:4695  conflicts[projectNumber][serviceNumber][milestoneNumber].votesCollected == conflicts[projectNumber][serviceNumber][milestoneNumber].voters */\n      eq\n        /* \"contracts/Conflict.sol\":4549:4774  require(conflicts[projectNumber][serviceNumber][milestoneNumber].votesCollected == conflicts[projectNumber][serviceNumber][milestoneNumber].voters, \"Not everyone has voted, please prompt all other members of project to vote\") */\n      tag_43\n      jumpi\n      mload(0x40)\n      0x08c379a000000000000000000000000000000000000000000000000000000000\n      dup2\n      mstore\n      0x04\n      add\n      tag_44\n      swap1\n      tag_45\n      jump\t// in\n    tag_44:\n      mload(0x40)\n      dup1\n      swap2\n      sub\n      swap1\n      revert\n    tag_43:\n        /* \"contracts/Conflict.sol\":4867:4891  ConflictStatus.completed */\n      0x02\n        /* \"contracts/Conflict.sol\":4792:4891  conflicts[projectNumber][serviceNumber][milestoneNumber].conflictstatus == ConflictStatus.completed */\n      dup1\n      dup2\n      gt\n      iszero\n      tag_46\n      jumpi\n      tag_47\n      tag_48\n      jump\t// in\n    tag_47:\n    tag_46:\n        /* \"contracts/Conflict.sol\":4792:4801  conflicts */\n      0x00\n        /* \"contracts/Conflict.sol\":4792:4816  conflicts[projectNumber] */\n      dup1\n        /* \"contracts/Conflict.sol\":4802:4815  projectNumber */\n      dup7\n        /* \"contracts/Conflict.sol\":4792:4816  conflicts[projectNumber] */\n      dup2\n      mstore\n      0x20\n      add\n      swap1\n      dup2\n      mstore\n      0x20\n      add\n      0x00\n      keccak256\n        /* \"contracts/Conflict.sol\":4792:4831  conflicts[projectNumber][serviceNumber] */\n      0x00\n        /* \"contracts/Conflict.sol\":4817:4830  serviceNumber */\n      dup6\n        /* \"contracts/Conflict.sol\":4792:4831  conflicts[projectNumber][serviceNumber] */\n      dup2\n      mstore\n      0x20\n      add\n      swap1\n      dup2\n      mstore\n      0x20\n      add\n      0x00\n      keccak256\n        /* \"contracts/Conflict.sol\":4792:4848  conflicts[projectNumber][serviceNumber][milestoneNumber] */\n      0x00\n        /* \"contracts/Conflict.sol\":4832:4847  milestoneNumber */\n      dup5\n        /* \"contracts/Conflict.sol\":4792:4848  conflicts[projectNumber][serviceNumber][milestoneNumber] */\n      dup2\n      mstore\n      0x20\n      add\n      swap1\n      dup2\n      mstore\n      0x20\n      add\n      0x00\n      keccak256\n        /* \"contracts/Conflict.sol\":4792:4863  conflicts[projectNumber][serviceNumber][milestoneNumber].conflictstatus */\n      0x04\n      add\n      0x14\n      swap1\n      sload\n      swap1\n      0x0100\n      exp\n      swap1\n      div\n      0xff\n      and\n        /* \"contracts/Conflict.sol\":4792:4891  conflicts[projectNumber][serviceNumber][milestoneNumber].conflictstatus == ConflictStatus.completed */\n      0x02\n      dup2\n      gt\n      iszero\n      tag_49\n      jumpi\n      tag_50\n      tag_48\n      jump\t// in\n    tag_50:\n    tag_49:\n      eq\n        /* \"contracts/Conflict.sol\":4784:4957  require(conflicts[projectNumber][serviceNumber][milestoneNumber].conflictstatus == ConflictStatus.completed, \"Voting has not been completed yet. Please wait for it to end.\") */\n      tag_51\n      jumpi\n      mload(0x40)\n      0x08c379a000000000000000000000000000000000000000000000000000000000\n      dup2\n      mstore\n      0x04\n      add\n      tag_52\n      swap1\n      tag_53\n      jump\t// in\n    tag_52:\n      mload(0x40)\n      dup1\n      swap2\n      sub\n      swap1\n      revert\n    tag_51:\n        /* \"contracts/Conflict.sol\":4975:4984  conflicts */\n      0x00\n        /* \"contracts/Conflict.sol\":4975:4999  conflicts[projectNumber] */\n      dup1\n        /* \"contracts/Conflict.sol\":4985:4998  projectNumber */\n      dup6\n        /* \"contracts/Conflict.sol\":4975:4999  conflicts[projectNumber] */\n      dup2\n      mstore\n      0x20\n      add\n      swap1\n      dup2\n      mstore\n      0x20\n      add\n      0x00\n      keccak256\n        /* \"contracts/Conflict.sol\":4975:5014  conflicts[projectNumber][serviceNumber] */\n      0x00\n        /* \"contracts/Conflict.sol\":5000:5013  serviceNumber */\n      dup5\n        /* \"contracts/Conflict.sol\":4975:5014  conflicts[projectNumber][serviceNumber] */\n      dup2\n      mstore\n      0x20\n      add\n      swap1\n      dup2\n      mstore\n      0x20\n      add\n      0x00\n      keccak256\n        /* \"contracts/Conflict.sol\":4975:5031  conflicts[projectNumber][serviceNumber][milestoneNumber] */\n      0x00\n        /* \"contracts/Conflict.sol\":5015:5030  milestoneNumber */\n      dup4\n        /* \"contracts/Conflict.sol\":4975:5031  conflicts[projectNumber][serviceNumber][milestoneNumber] */\n      dup2\n      mstore\n      0x20\n      add\n      swap1\n      dup2\n      mstore\n      0x20\n      add\n      0x00\n      keccak256\n        /* \"contracts/Conflict.sol\":4975:5038  conflicts[projectNumber][serviceNumber][milestoneNumber].result */\n      0x09\n      add\n      0x01\n      swap1\n      sload\n      swap1\n      0x0100\n      exp\n      swap1\n      div\n      0xff\n      and\n        /* \"contracts/Conflict.sol\":4968:5038  return conflicts[projectNumber][serviceNumber][milestoneNumber].result */\n      0xff\n      and\n      swap1\n      pop\n        /* \"contracts/Conflict.sol\":4421:5045  function getResults(uint256 projectNumber, uint256 serviceNumber, uint256 milestoneNumber) public view returns (uint) {... */\n      swap4\n      swap3\n      pop\n      pop\n      pop\n      jump\t// out\n        /* \"contracts/Conflict.sol\":5287:5510  function getVotesCollected(uint256 projectNumber, uint256 serviceNumber, uint256 milestoneNumber) public view returns (uint256) {... */\n    tag_19:\n        /* \"contracts/Conflict.sol\":5406:5413  uint256 */\n      0x00\n        /* \"contracts/Conflict.sol\":5432:5441  conflicts */\n      dup1\n        /* \"contracts/Conflict.sol\":5432:5456  conflicts[projectNumber] */\n      0x00\n        /* \"contracts/Conflict.sol\":5442:5455  projectNumber */\n      dup6\n        /* \"contracts/Conflict.sol\":5432:5456  conflicts[projectNumber] */\n      dup2\n      mstore\n      0x20\n      add\n      swap1\n      dup2\n      mstore\n      0x20\n      add\n      0x00\n      keccak256\n        /* \"contracts/Conflict.sol\":5432:5471  conflicts[projectNumber][serviceNumber] */\n      0x00\n        /* \"contracts/Conflict.sol\":5457:5470  serviceNumber */\n      dup5\n        /* \"contracts/Conflict.sol\":5432:5471  conflicts[projectNumber][serviceNumber] */\n      dup2\n      mstore\n      0x20\n      add\n      swap1\n      dup2\n      mstore\n      0x20\n      add\n      0x00\n      keccak256\n        /* \"contracts/Conflict.sol\":5432:5488  conflicts[projectNumber][serviceNumber][milestoneNumber] */\n      0x00\n        /* \"contracts/Conflict.sol\":5472:5487  milestoneNumber */\n      dup4\n        /* \"contracts/Conflict.sol\":5432:5488  conflicts[projectNumber][serviceNumber][milestoneNumber] */\n      dup2\n      mstore\n      0x20\n      add\n      swap1\n      dup2\n      mstore\n      0x20\n      add\n      0x00\n      keccak256\n        /* \"contracts/Conflict.sol\":5432:5503  conflicts[projectNumber][serviceNumber][milestoneNumber].votesCollected */\n      0x06\n      add\n      sload\n        /* \"contracts/Conflict.sol\":5425:5503  return conflicts[projectNumber][serviceNumber][milestoneNumber].votesCollected */\n      swap1\n      pop\n        /* \"contracts/Conflict.sol\":5287:5510  function getVotesCollected(uint256 projectNumber, uint256 serviceNumber, uint256 milestoneNumber) public view returns (uint256) {... */\n      swap4\n      swap3\n      pop\n      pop\n      pop\n      jump\t// out\n        /* \"contracts/Conflict.sol\":1446:2624  function createConflict(uint256 projectNumber, uint256 serviceNumber, uint256 milestoneNumber, address serviceRequester, address serviceProvider,  uint256 totalVoters) public {... */\n    tag_24:\n        /* \"contracts/Conflict.sol\":1706:1710  true */\n      0x01\n        /* \"contracts/Conflict.sol\":1639:1710  conflicts[projectNumber][serviceNumber][milestoneNumber].exists != true */\n      iszero\n      iszero\n        /* \"contracts/Conflict.sol\":1639:1648  conflicts */\n      0x00\n        /* \"contracts/Conflict.sol\":1639:1663  conflicts[projectNumber] */\n      dup1\n        /* \"contracts/Conflict.sol\":1649:1662  projectNumber */\n      dup9\n        /* \"contracts/Conflict.sol\":1639:1663  conflicts[projectNumber] */\n      dup2\n      mstore\n      0x20\n      add\n      swap1\n      dup2\n      mstore\n      0x20\n      add\n      0x00\n      keccak256\n        /* \"contracts/Conflict.sol\":1639:1678  conflicts[projectNumber][serviceNumber] */\n      0x00\n        /* \"contracts/Conflict.sol\":1664:1677  serviceNumber */\n      dup8\n        /* \"contracts/Conflict.sol\":1639:1678  conflicts[projectNumber][serviceNumber] */\n      dup2\n      mstore\n      0x20\n      add\n      swap1\n      dup2\n      mstore\n      0x20\n      add\n      0x00\n      keccak256\n        /* \"contracts/Conflict.sol\":1639:1695  conflicts[projectNumber][serviceNumber][milestoneNumber] */\n      0x00\n        /* \"contracts/Conflict.sol\":1679:1694  milestoneNumber */\n      dup7\n        /* \"contracts/Conflict.sol\":1639:1695  conflicts[projectNumber][serviceNumber][milestoneNumber] */\n      dup2\n      mstore\n      0x20\n      add\n      swap1\n      dup2\n      mstore\n      0x20\n      add\n      0x00\n      keccak256\n        /* \"contracts/Conflict.sol\":1639:1702  conflicts[projectNumber][serviceNumber][milestoneNumber].exists */\n      0x09\n      add\n      0x00\n      swap1\n      sload\n      swap1\n      0x0100\n      exp\n      swap1\n      div\n      0xff\n      and\n        /* \"contracts/Conflict.sol\":1639:1710  conflicts[projectNumber][serviceNumber][milestoneNumber].exists != true */\n      iszero\n      iszero\n      eq\n      iszero\n        /* \"contracts/Conflict.sol\":1631:1793  require(conflicts[projectNumber][serviceNumber][milestoneNumber].exists != true , \"Conflict has already been created. Please do not create more than 1 conflict.\") */\n      tag_56\n      jumpi\n      mload(0x40)\n      0x08c379a000000000000000000000000000000000000000000000000000000000\n      dup2\n      mstore\n      0x04\n      add\n      tag_57\n      swap1\n      tag_58\n      jump\t// in\n    tag_57:\n      mload(0x40)\n      dup1\n      swap2\n      sub\n      swap1\n      revert\n    tag_56:\n        /* \"contracts/Conflict.sol\":1829:1857  conflict storage newConflict */\n      0x00\n        /* \"contracts/Conflict.sol\":1860:1869  conflicts */\n      dup1\n        /* \"contracts/Conflict.sol\":1860:1884  conflicts[projectNumber] */\n      0x00\n        /* \"contracts/Conflict.sol\":1870:1883  projectNumber */\n      dup9\n        /* \"contracts/Conflict.sol\":1860:1884  conflicts[projectNumber] */\n      dup2\n      mstore\n      0x20\n      add\n      swap1\n      dup2\n      mstore\n      0x20\n      add\n      0x00\n      keccak256\n        /* \"contracts/Conflict.sol\":1860:1899  conflicts[projectNumber][serviceNumber] */\n      0x00\n        /* \"contracts/Conflict.sol\":1885:1898  serviceNumber */\n      dup8\n        /* \"contracts/Conflict.sol\":1860:1899  conflicts[projectNumber][serviceNumber] */\n      dup2\n      mstore\n      0x20\n      add\n      swap1\n      dup2\n      mstore\n      0x20\n      add\n      0x00\n      keccak256\n        /* \"contracts/Conflict.sol\":1860:1916  conflicts[projectNumber][serviceNumber][milestoneNumber] */\n      0x00\n        /* \"contracts/Conflict.sol\":1900:1915  milestoneNumber */\n      dup7\n        /* \"contracts/Conflict.sol\":1860:1916  conflicts[projectNumber][serviceNumber][milestoneNumber] */\n      dup2\n      mstore\n      0x20\n      add\n      swap1\n      dup2\n      mstore\n      0x20\n      add\n      0x00\n      keccak256\n        /* \"contracts/Conflict.sol\":1829:1916  conflict storage newConflict = conflicts[projectNumber][serviceNumber][milestoneNumber] */\n      swap1\n      pop\n        /* \"contracts/Conflict.sol\":1954:1967  projectNumber */\n      dup7\n        /* \"contracts/Conflict.sol\":1926:1937  newConflict */\n      dup2\n        /* \"contracts/Conflict.sol\":1926:1951  newConflict.projectNumber */\n      0x00\n      add\n        /* \"contracts/Conflict.sol\":1926:1967  newConflict.projectNumber = projectNumber */\n      dup2\n      swap1\n      sstore\n      pop\n        /* \"contracts/Conflict.sol\":2010:2023  serviceNumber */\n      dup6\n        /* \"contracts/Conflict.sol\":1982:1993  newConflict */\n      dup2\n        /* \"contracts/Conflict.sol\":1982:2007  newConflict.serviceNumber */\n      0x01\n      add\n        /* \"contracts/Conflict.sol\":1982:2023  newConflict.serviceNumber = serviceNumber */\n      dup2\n      swap1\n      sstore\n      pop\n        /* \"contracts/Conflict.sol\":2071:2086  milestoneNumber */\n      dup5\n        /* \"contracts/Conflict.sol\":2041:2052  newConflict */\n      dup2\n        /* \"contracts/Conflict.sol\":2041:2068  newConflict.milestoneNumber */\n      0x02\n      add\n        /* \"contracts/Conflict.sol\":2041:2086  newConflict.milestoneNumber = milestoneNumber */\n      dup2\n      swap1\n      sstore\n      pop\n        /* \"contracts/Conflict.sol\":2127:2143  serviceRequester */\n      dup4\n        /* \"contracts/Conflict.sol\":2096:2107  newConflict */\n      dup2\n        /* \"contracts/Conflict.sol\":2096:2124  newConflict.serviceRequester */\n      0x03\n      add\n      0x00\n        /* \"contracts/Conflict.sol\":2096:2143  newConflict.serviceRequester = serviceRequester */\n      0x0100\n      exp\n      dup2\n      sload\n      dup2\n      0xffffffffffffffffffffffffffffffffffffffff\n      mul\n      not\n      and\n      swap1\n      dup4\n      0xffffffffffffffffffffffffffffffffffffffff\n      and\n      mul\n      or\n      swap1\n      sstore\n      pop\n        /* \"contracts/Conflict.sol\":2183:2198  serviceProvider */\n      dup3\n        /* \"contracts/Conflict.sol\":2153:2164  newConflict */\n      dup2\n        /* \"contracts/Conflict.sol\":2153:2180  newConflict.serviceProvider */\n      0x04\n      add\n      0x00\n        /* \"contracts/Conflict.sol\":2153:2198  newConflict.serviceProvider = serviceProvider */\n      0x0100\n      exp\n      dup2\n      sload\n      dup2\n      0xffffffffffffffffffffffffffffffffffffffff\n      mul\n      not\n      and\n      swap1\n      dup4\n      0xffffffffffffffffffffffffffffffffffffffff\n      and\n      mul\n      or\n      swap1\n      sstore\n      pop\n        /* \"contracts/Conflict.sol\":2237:2259  ConflictStatus.pending */\n      0x01\n        /* \"contracts/Conflict.sol\":2208:2219  newConflict */\n      dup2\n        /* \"contracts/Conflict.sol\":2208:2234  newConflict.conflictstatus */\n      0x04\n      add\n      0x14\n        /* \"contracts/Conflict.sol\":2208:2259  newConflict.conflictstatus = ConflictStatus.pending */\n      0x0100\n      exp\n      dup2\n      sload\n      dup2\n      0xff\n      mul\n      not\n      and\n      swap1\n      dup4\n      0x02\n      dup2\n      gt\n      iszero\n      tag_59\n      jumpi\n      tag_60\n      tag_48\n      jump\t// in\n    tag_60:\n    tag_59:\n      mul\n      or\n      swap1\n      sstore\n      pop\n        /* \"contracts/Conflict.sol\":2290:2301  totalVoters */\n      dup2\n        /* \"contracts/Conflict.sol\":2269:2280  newConflict */\n      dup2\n        /* \"contracts/Conflict.sol\":2269:2287  newConflict.voters */\n      0x05\n      add\n        /* \"contracts/Conflict.sol\":2269:2301  newConflict.voters = totalVoters */\n      dup2\n      swap1\n      sstore\n      pop\n        /* \"contracts/Conflict.sol\":2340:2341  0 */\n      0x00\n        /* \"contracts/Conflict.sol\":2311:2322  newConflict */\n      dup2\n        /* \"contracts/Conflict.sol\":2311:2337  newConflict.votesCollected */\n      0x06\n      add\n        /* \"contracts/Conflict.sol\":2311:2341  newConflict.votesCollected = 0 */\n      dup2\n      swap1\n      sstore\n      pop\n        /* \"contracts/Conflict.sol\":2380:2381  0 */\n      0x00\n        /* \"contracts/Conflict.sol\":2351:2362  newConflict */\n      dup2\n        /* \"contracts/Conflict.sol\":2351:2377  newConflict.requesterVotes */\n      0x07\n      add\n        /* \"contracts/Conflict.sol\":2351:2381  newConflict.requesterVotes = 0 */\n      dup2\n      swap1\n      sstore\n      pop\n        /* \"contracts/Conflict.sol\":2419:2420  0 */\n      0x00\n        /* \"contracts/Conflict.sol\":2391:2402  newConflict */\n      dup2\n        /* \"contracts/Conflict.sol\":2391:2416  newConflict.providerVotes */\n      0x08\n      add\n        /* \"contracts/Conflict.sol\":2391:2420  newConflict.providerVotes = 0 */\n      dup2\n      swap1\n      sstore\n      pop\n        /* \"contracts/Conflict.sol\":2455:2459  true */\n      0x01\n        /* \"contracts/Conflict.sol\":2434:2445  newConflict */\n      dup2\n        /* \"contracts/Conflict.sol\":2434:2452  newConflict.exists */\n      0x09\n      add\n      0x00\n        /* \"contracts/Conflict.sol\":2434:2459  newConflict.exists = true */\n      0x0100\n      exp\n      dup2\n      sload\n      dup2\n      0xff\n      mul\n      not\n      and\n      swap1\n      dup4\n      iszero\n      iszero\n      mul\n      or\n      swap1\n      sstore\n      pop\n        /* \"contracts/Conflict.sol\":2490:2491  0 */\n      0x00\n        /* \"contracts/Conflict.sol\":2469:2480  newConflict */\n      dup2\n        /* \"contracts/Conflict.sol\":2469:2487  newConflict.result */\n      0x09\n      add\n      0x01\n        /* \"contracts/Conflict.sol\":2469:2491  newConflict.result = 0 */\n      0x0100\n      exp\n      dup2\n      sload\n      dup2\n      0xff\n      mul\n      not\n      and\n      swap1\n      dup4\n      0xff\n      and\n      mul\n      or\n      swap1\n      sstore\n      pop\n        /* \"contracts/Conflict.sol\":2507:2617  conflictCreated(projectNumber, serviceNumber, milestoneNumber, serviceRequester, serviceProvider, totalVoters) */\n      0xfa127411522a1139d16c2142db999e127aef2288bd98a0558006bb115666ab1b\n        /* \"contracts/Conflict.sol\":2523:2536  projectNumber */\n      dup8\n        /* \"contracts/Conflict.sol\":2538:2551  serviceNumber */\n      dup8\n        /* \"contracts/Conflict.sol\":2553:2568  milestoneNumber */\n      dup8\n        /* \"contracts/Conflict.sol\":2570:2586  serviceRequester */\n      dup8\n        /* \"contracts/Conflict.sol\":2588:2603  serviceProvider */\n      dup8\n        /* \"contracts/Conflict.sol\":2605:2616  totalVoters */\n      dup8\n        /* \"contracts/Conflict.sol\":2507:2617  conflictCreated(projectNumber, serviceNumber, milestoneNumber, serviceRequester, serviceProvider, totalVoters) */\n      mload(0x40)\n      tag_61\n      swap7\n      swap6\n      swap5\n      swap4\n      swap3\n      swap2\n      swap1\n      tag_62\n      jump\t// in\n    tag_61:\n      mload(0x40)\n      dup1\n      swap2\n      sub\n      swap1\n      log1\n        /* \"contracts/Conflict.sol\":1621:2624  {... */\n      pop\n        /* \"contracts/Conflict.sol\":1446:2624  function createConflict(uint256 projectNumber, uint256 serviceNumber, uint256 milestoneNumber, address serviceRequester, address serviceProvider,  uint256 totalVoters) public {... */\n      pop\n      pop\n      pop\n      pop\n      pop\n      pop\n      jump\t// out\n        /* \"contracts/Conflict.sol\":5748:5972  function getVotesforProvider(uint256 projectNumber, uint256 serviceNumber, uint256 milestoneNumber) public view returns (uint256) {... */\n    tag_27:\n        /* \"contracts/Conflict.sol\":5869:5876  uint256 */\n      0x00\n        /* \"contracts/Conflict.sol\":5895:5904  conflicts */\n      dup1\n        /* \"contracts/Conflict.sol\":5895:5919  conflicts[projectNumber] */\n      0x00\n        /* \"contracts/Conflict.sol\":5905:5918  projectNumber */\n      dup6\n        /* \"contracts/Conflict.sol\":5895:5919  conflicts[projectNumber] */\n      dup2\n      mstore\n      0x20\n      add\n      swap1\n      dup2\n      mstore\n      0x20\n      add\n      0x00\n      keccak256\n        /* \"contracts/Conflict.sol\":5895:5934  conflicts[projectNumber][serviceNumber] */\n      0x00\n        /* \"contracts/Conflict.sol\":5920:5933  serviceNumber */\n      dup5\n        /* \"contracts/Conflict.sol\":5895:5934  conflicts[projectNumber][serviceNumber] */\n      dup2\n      mstore\n      0x20\n      add\n      swap1\n      dup2\n      mstore\n      0x20\n      add\n      0x00\n      keccak256\n        /* \"contracts/Conflict.sol\":5895:5951  conflicts[projectNumber][serviceNumber][milestoneNumber] */\n      0x00\n        /* \"contracts/Conflict.sol\":5935:5950  milestoneNumber */\n      dup4\n        /* \"contracts/Conflict.sol\":5895:5951  conflicts[projectNumber][serviceNumber][milestoneNumber] */\n      dup2\n      mstore\n      0x20\n      add\n      swap1\n      dup2\n      mstore\n      0x20\n      add\n      0x00\n      keccak256\n        /* \"contracts/Conflict.sol\":5895:5965  conflicts[projectNumber][serviceNumber][milestoneNumber].providerVotes */\n      0x08\n      add\n      sload\n        /* \"contracts/Conflict.sol\":5888:5965  return conflicts[projectNumber][serviceNumber][milestoneNumber].providerVotes */\n      swap1\n      pop\n        /* \"contracts/Conflict.sol\":5748:5972  function getVotesforProvider(uint256 projectNumber, uint256 serviceNumber, uint256 milestoneNumber) public view returns (uint256) {... */\n      swap4\n      swap3\n      pop\n      pop\n      pop\n      jump\t// out\n        /* \"contracts/Conflict.sol\":2753:4383  function voteConflict(uint256 projectNumber, uint256 serviceNumber, uint256 milestoneNumber, address sender, uint8 vote) public {... */\n    tag_32:\n        /* \"contracts/Conflict.sol\":2976:2982  sender */\n      dup2\n        /* \"contracts/Conflict.sol\":2899:2982  conflicts[projectNumber][serviceNumber][milestoneNumber].serviceRequester != sender */\n      0xffffffffffffffffffffffffffffffffffffffff\n      and\n        /* \"contracts/Conflict.sol\":2899:2908  conflicts */\n      0x00\n        /* \"contracts/Conflict.sol\":2899:2923  conflicts[projectNumber] */\n      dup1\n        /* \"contracts/Conflict.sol\":2909:2922  projectNumber */\n      dup8\n        /* \"contracts/Conflict.sol\":2899:2923  conflicts[projectNumber] */\n      dup2\n      mstore\n      0x20\n      add\n      swap1\n      dup2\n      mstore\n      0x20\n      add\n      0x00\n      keccak256\n        /* \"contracts/Conflict.sol\":2899:2938  conflicts[projectNumber][serviceNumber] */\n      0x00\n        /* \"contracts/Conflict.sol\":2924:2937  serviceNumber */\n      dup7\n        /* \"contracts/Conflict.sol\":2899:2938  conflicts[projectNumber][serviceNumber] */\n      dup2\n      mstore\n      0x20\n      add\n      swap1\n      dup2\n      mstore\n      0x20\n      add\n      0x00\n      keccak256\n        /* \"contracts/Conflict.sol\":2899:2955  conflicts[projectNumber][serviceNumber][milestoneNumber] */\n      0x00\n        /* \"contracts/Conflict.sol\":2939:2954  milestoneNumber */\n      dup6\n        /* \"contracts/Conflict.sol\":2899:2955  conflicts[projectNumber][serviceNumber][milestoneNumber] */\n      dup2\n      mstore\n      0x20\n      add\n      swap1\n      dup2\n      mstore\n      0x20\n      add\n      0x00\n      keccak256\n        /* \"contracts/Conflict.sol\":2899:2972  conflicts[projectNumber][serviceNumber][milestoneNumber].serviceRequester */\n      0x03\n      add\n      0x00\n      swap1\n      sload\n      swap1\n      0x0100\n      exp\n      swap1\n      div\n      0xffffffffffffffffffffffffffffffffffffffff\n      and\n        /* \"contracts/Conflict.sol\":2899:2982  conflicts[projectNumber][serviceNumber][milestoneNumber].serviceRequester != sender */\n      0xffffffffffffffffffffffffffffffffffffffff\n      and\n      eq\n      iszero\n        /* \"contracts/Conflict.sol\":2891:3036  require(conflicts[projectNumber][serviceNumber][milestoneNumber].serviceRequester != sender , \"You raised this conflict. You cannot vote on it.\") */\n      tag_65\n      jumpi\n      mload(0x40)\n      0x08c379a000000000000000000000000000000000000000000000000000000000\n      dup2\n      mstore\n      0x04\n      add\n      tag_66\n      swap1\n      tag_67\n      jump\t// in\n    tag_66:\n      mload(0x40)\n      dup1\n      swap2\n      sub\n      swap1\n      revert\n    tag_65:\n        /* \"contracts/Conflict.sol\":3130:3136  sender */\n      dup2\n        /* \"contracts/Conflict.sol\":3054:3136  conflicts[projectNumber][serviceNumber][milestoneNumber].serviceProvider != sender */\n      0xffffffffffffffffffffffffffffffffffffffff\n      and\n        /* \"contracts/Conflict.sol\":3054:3063  conflicts */\n      0x00\n        /* \"contracts/Conflict.sol\":3054:3078  conflicts[projectNumber] */\n      dup1\n        /* \"contracts/Conflict.sol\":3064:3077  projectNumber */\n      dup8\n        /* \"contracts/Conflict.sol\":3054:3078  conflicts[projectNumber] */\n      dup2\n      mstore\n      0x20\n      add\n      swap1\n      dup2\n      mstore\n      0x20\n      add\n      0x00\n      keccak256\n        /* \"contracts/Conflict.sol\":3054:3093  conflicts[projectNumber][serviceNumber] */\n      0x00\n        /* \"contracts/Conflict.sol\":3079:3092  serviceNumber */\n      dup7\n        /* \"contracts/Conflict.sol\":3054:3093  conflicts[projectNumber][serviceNumber] */\n      dup2\n      mstore\n      0x20\n      add\n      swap1\n      dup2\n      mstore\n      0x20\n      add\n      0x00\n      keccak256\n        /* \"contracts/Conflict.sol\":3054:3110  conflicts[projectNumber][serviceNumber][milestoneNumber] */\n      0x00\n        /* \"contracts/Conflict.sol\":3094:3109  milestoneNumber */\n      dup6\n        /* \"contracts/Conflict.sol\":3054:3110  conflicts[projectNumber][serviceNumber][milestoneNumber] */\n      dup2\n      mstore\n      0x20\n      add\n      swap1\n      dup2\n      mstore\n      0x20\n      add\n      0x00\n      keccak256\n        /* \"contracts/Conflict.sol\":3054:3126  conflicts[projectNumber][serviceNumber][milestoneNumber].serviceProvider */\n      0x04\n      add\n      0x00\n      swap1\n      sload\n      swap1\n      0x0100\n      exp\n      swap1\n      div\n      0xffffffffffffffffffffffffffffffffffffffff\n      and\n        /* \"contracts/Conflict.sol\":3054:3136  conflicts[projectNumber][serviceNumber][milestoneNumber].serviceProvider != sender */\n      0xffffffffffffffffffffffffffffffffffffffff\n      and\n      eq\n      iszero\n        /* \"contracts/Conflict.sol\":3046:3198  require(conflicts[projectNumber][serviceNumber][milestoneNumber].serviceProvider != sender, \"You are involved in this conflict. You cannot vote on it.\") */\n      tag_68\n      jumpi\n      mload(0x40)\n      0x08c379a000000000000000000000000000000000000000000000000000000000\n      dup2\n      mstore\n      0x04\n      add\n      tag_69\n      swap1\n      tag_70\n      jump\t// in\n    tag_69:\n      mload(0x40)\n      dup1\n      swap2\n      sub\n      swap1\n      revert\n    tag_68:\n        /* \"contracts/Conflict.sol\":3299:3308  conflicts */\n      0x00\n        /* \"contracts/Conflict.sol\":3299:3323  conflicts[projectNumber] */\n      dup1\n        /* \"contracts/Conflict.sol\":3309:3322  projectNumber */\n      dup7\n        /* \"contracts/Conflict.sol\":3299:3323  conflicts[projectNumber] */\n      dup2\n      mstore\n      0x20\n      add\n      swap1\n      dup2\n      mstore\n      0x20\n      add\n      0x00\n      keccak256\n        /* \"contracts/Conflict.sol\":3299:3338  conflicts[projectNumber][serviceNumber] */\n      0x00\n        /* \"contracts/Conflict.sol\":3324:3337  serviceNumber */\n      dup6\n        /* \"contracts/Conflict.sol\":3299:3338  conflicts[projectNumber][serviceNumber] */\n      dup2\n      mstore\n      0x20\n      add\n      swap1\n      dup2\n      mstore\n      0x20\n      add\n      0x00\n      keccak256\n        /* \"contracts/Conflict.sol\":3299:3355  conflicts[projectNumber][serviceNumber][milestoneNumber] */\n      0x00\n        /* \"contracts/Conflict.sol\":3339:3354  milestoneNumber */\n      dup5\n        /* \"contracts/Conflict.sol\":3299:3355  conflicts[projectNumber][serviceNumber][milestoneNumber] */\n      dup2\n      mstore\n      0x20\n      add\n      swap1\n      dup2\n      mstore\n      0x20\n      add\n      0x00\n      keccak256\n        /* \"contracts/Conflict.sol\":3299:3362  conflicts[projectNumber][serviceNumber][milestoneNumber].voters */\n      0x05\n      add\n      sload\n        /* \"contracts/Conflict.sol\":3225:3234  conflicts */\n      0x00\n        /* \"contracts/Conflict.sol\":3225:3249  conflicts[projectNumber] */\n      dup1\n        /* \"contracts/Conflict.sol\":3235:3248  projectNumber */\n      dup8\n        /* \"contracts/Conflict.sol\":3225:3249  conflicts[projectNumber] */\n      dup2\n      mstore\n      0x20\n      add\n      swap1\n      dup2\n      mstore\n      0x20\n      add\n      0x00\n      keccak256\n        /* \"contracts/Conflict.sol\":3225:3264  conflicts[projectNumber][serviceNumber] */\n      0x00\n        /* \"contracts/Conflict.sol\":3250:3263  serviceNumber */\n      dup7\n        /* \"contracts/Conflict.sol\":3225:3264  conflicts[projectNumber][serviceNumber] */\n      dup2\n      mstore\n      0x20\n      add\n      swap1\n      dup2\n      mstore\n      0x20\n      add\n      0x00\n      keccak256\n        /* \"contracts/Conflict.sol\":3225:3281  conflicts[projectNumber][serviceNumber][milestoneNumber] */\n      0x00\n        /* \"contracts/Conflict.sol\":3265:3280  milestoneNumber */\n      dup6\n        /* \"contracts/Conflict.sol\":3225:3281  conflicts[projectNumber][serviceNumber][milestoneNumber] */\n      dup2\n      mstore\n      0x20\n      add\n      swap1\n      dup2\n      mstore\n      0x20\n      add\n      0x00\n      keccak256\n        /* \"contracts/Conflict.sol\":3225:3296  conflicts[projectNumber][serviceNumber][milestoneNumber].votesCollected */\n      0x06\n      add\n      sload\n        /* \"contracts/Conflict.sol\":3225:3362  conflicts[projectNumber][serviceNumber][milestoneNumber].votesCollected < conflicts[projectNumber][serviceNumber][milestoneNumber].voters */\n      lt\n        /* \"contracts/Conflict.sol\":3217:3399  require(conflicts[projectNumber][serviceNumber][milestoneNumber].votesCollected < conflicts[projectNumber][serviceNumber][milestoneNumber].voters, \"Enough votes have been collected\") */\n      tag_71\n      jumpi\n      mload(0x40)\n      0x08c379a000000000000000000000000000000000000000000000000000000000\n      dup2\n      mstore\n      0x04\n      add\n      tag_72\n      swap1\n      tag_73\n      jump\t// in\n    tag_72:\n      mload(0x40)\n      dup1\n      swap2\n      sub\n      swap1\n      revert\n    tag_71:\n        /* \"contracts/Conflict.sol\":3491:3492  0 */\n      0x00\n        /* \"contracts/Conflict.sol\":3417:3426  conflicts */\n      dup1\n        /* \"contracts/Conflict.sol\":3417:3441  conflicts[projectNumber] */\n      0x00\n        /* \"contracts/Conflict.sol\":3427:3440  projectNumber */\n      dup8\n        /* \"contracts/Conflict.sol\":3417:3441  conflicts[projectNumber] */\n      dup2\n      mstore\n      0x20\n      add\n      swap1\n      dup2\n      mstore\n      0x20\n      add\n      0x00\n      keccak256\n        /* \"contracts/Conflict.sol\":3417:3456  conflicts[projectNumber][serviceNumber] */\n      0x00\n        /* \"contracts/Conflict.sol\":3442:3455  serviceNumber */\n      dup7\n        /* \"contracts/Conflict.sol\":3417:3456  conflicts[projectNumber][serviceNumber] */\n      dup2\n      mstore\n      0x20\n      add\n      swap1\n      dup2\n      mstore\n      0x20\n      add\n      0x00\n      keccak256\n        /* \"contracts/Conflict.sol\":3417:3473  conflicts[projectNumber][serviceNumber][milestoneNumber] */\n      0x00\n        /* \"contracts/Conflict.sol\":3457:3472  milestoneNumber */\n      dup6\n        /* \"contracts/Conflict.sol\":3417:3473  conflicts[projectNumber][serviceNumber][milestoneNumber] */\n      dup2\n      mstore\n      0x20\n      add\n      swap1\n      dup2\n      mstore\n      0x20\n      add\n      0x00\n      keccak256\n        /* \"contracts/Conflict.sol\":3417:3479  conflicts[projectNumber][serviceNumber][milestoneNumber].votes */\n      0x0a\n      add\n        /* \"contracts/Conflict.sol\":3417:3487  conflicts[projectNumber][serviceNumber][milestoneNumber].votes[sender] */\n      0x00\n        /* \"contracts/Conflict.sol\":3480:3486  sender */\n      dup5\n        /* \"contracts/Conflict.sol\":3417:3487  conflicts[projectNumber][serviceNumber][milestoneNumber].votes[sender] */\n      0xffffffffffffffffffffffffffffffffffffffff\n      and\n      0xffffffffffffffffffffffffffffffffffffffff\n      and\n      dup2\n      mstore\n      0x20\n      add\n      swap1\n      dup2\n      mstore\n      0x20\n      add\n      0x00\n      keccak256\n      0x00\n      swap1\n      sload\n      swap1\n      0x0100\n      exp\n      swap1\n      div\n      0xff\n      and\n        /* \"contracts/Conflict.sol\":3417:3492  conflicts[projectNumber][serviceNumber][milestoneNumber].votes[sender] == 0 */\n      0xff\n      and\n      eq\n        /* \"contracts/Conflict.sol\":3409:3543  require(conflicts[projectNumber][serviceNumber][milestoneNumber].votes[sender] == 0 , \"You have already voted, you cannot vote again\") */\n      tag_74\n      jumpi\n      mload(0x40)\n      0x08c379a000000000000000000000000000000000000000000000000000000000\n      dup2\n      mstore\n      0x04\n      add\n      tag_75\n      swap1\n      tag_76\n      jump\t// in\n    tag_75:\n      mload(0x40)\n      dup1\n      swap2\n      sub\n      swap1\n      revert\n    tag_74:\n        /* \"contracts/Conflict.sol\":3569:3570  1 */\n      0x01\n        /* \"contracts/Conflict.sol\":3561:3565  vote */\n      dup2\n        /* \"contracts/Conflict.sol\":3561:3570  vote == 1 */\n      0xff\n      and\n      eq\n        /* \"contracts/Conflict.sol\":3561:3583  vote == 1 || vote == 2 */\n      dup1\n      tag_77\n      jumpi\n      pop\n        /* \"contracts/Conflict.sol\":3582:3583  2 */\n      0x02\n        /* \"contracts/Conflict.sol\":3574:3578  vote */\n      dup2\n        /* \"contracts/Conflict.sol\":3574:3583  vote == 2 */\n      0xff\n      and\n      eq\n        /* \"contracts/Conflict.sol\":3561:3583  vote == 1 || vote == 2 */\n    tag_77:\n        /* \"contracts/Conflict.sol\":3553:3675  require(vote == 1 || vote == 2, \"You have not input a right vote. You can either vote 1 for Requester or 2 for Provider.\") */\n      tag_78\n      jumpi\n      mload(0x40)\n      0x08c379a000000000000000000000000000000000000000000000000000000000\n      dup2\n      mstore\n      0x04\n      add\n      tag_79\n      swap1\n      tag_80\n      jump\t// in\n    tag_79:\n      mload(0x40)\n      dup1\n      swap2\n      sub\n      swap1\n      revert\n    tag_78:\n        /* \"contracts/Conflict.sol\":3686:3704  conflict storage C */\n      0x00\n        /* \"contracts/Conflict.sol\":3707:3716  conflicts */\n      dup1\n        /* \"contracts/Conflict.sol\":3707:3731  conflicts[projectNumber] */\n      0x00\n        /* \"contracts/Conflict.sol\":3717:3730  projectNumber */\n      dup8\n        /* \"contracts/Conflict.sol\":3707:3731  conflicts[projectNumber] */\n      dup2\n      mstore\n      0x20\n      add\n      swap1\n      dup2\n      mstore\n      0x20\n      add\n      0x00\n      keccak256\n        /* \"contracts/Conflict.sol\":3707:3746  conflicts[projectNumber][serviceNumber] */\n      0x00\n        /* \"contracts/Conflict.sol\":3732:3745  serviceNumber */\n      dup7\n        /* \"contracts/Conflict.sol\":3707:3746  conflicts[projectNumber][serviceNumber] */\n      dup2\n      mstore\n      0x20\n      add\n      swap1\n      dup2\n      mstore\n      0x20\n      add\n      0x00\n      keccak256\n        /* \"contracts/Conflict.sol\":3707:3763  conflicts[projectNumber][serviceNumber][milestoneNumber] */\n      0x00\n        /* \"contracts/Conflict.sol\":3747:3762  milestoneNumber */\n      dup6\n        /* \"contracts/Conflict.sol\":3707:3763  conflicts[projectNumber][serviceNumber][milestoneNumber] */\n      dup2\n      mstore\n      0x20\n      add\n      swap1\n      dup2\n      mstore\n      0x20\n      add\n      0x00\n      keccak256\n        /* \"contracts/Conflict.sol\":3686:3763  conflict storage C = conflicts[projectNumber][serviceNumber][milestoneNumber] */\n      swap1\n      pop\n        /* \"contracts/Conflict.sol\":3791:3795  vote */\n      dup2\n        /* \"contracts/Conflict.sol\":3773:3774  C */\n      dup2\n        /* \"contracts/Conflict.sol\":3773:3780  C.votes */\n      0x0a\n      add\n        /* \"contracts/Conflict.sol\":3773:3788  C.votes[sender] */\n      0x00\n        /* \"contracts/Conflict.sol\":3781:3787  sender */\n      dup6\n        /* \"contracts/Conflict.sol\":3773:3788  C.votes[sender] */\n      0xffffffffffffffffffffffffffffffffffffffff\n      and\n      0xffffffffffffffffffffffffffffffffffffffff\n      and\n      dup2\n      mstore\n      0x20\n      add\n      swap1\n      dup2\n      mstore\n      0x20\n      add\n      0x00\n      keccak256\n      0x00\n        /* \"contracts/Conflict.sol\":3773:3795  C.votes[sender] = vote */\n      0x0100\n      exp\n      dup2\n      sload\n      dup2\n      0xff\n      mul\n      not\n      and\n      swap1\n      dup4\n      0xff\n      and\n      mul\n      or\n      swap1\n      sstore\n      pop\n        /* \"contracts/Conflict.sol\":3818:3819  1 */\n      0x01\n        /* \"contracts/Conflict.sol\":3810:3814  vote */\n      dup3\n        /* \"contracts/Conflict.sol\":3810:3819  vote == 1 */\n      0xff\n      and\n      eq\n        /* \"contracts/Conflict.sol\":3806:3844  if (vote == 1) { C.requesterVotes++; } */\n      iszero\n      tag_81\n      jumpi\n        /* \"contracts/Conflict.sol\":3823:3824  C */\n      dup1\n        /* \"contracts/Conflict.sol\":3823:3839  C.requesterVotes */\n      0x07\n      add\n      0x00\n        /* \"contracts/Conflict.sol\":3823:3841  C.requesterVotes++ */\n      dup2\n      sload\n      dup1\n      swap3\n      swap2\n      swap1\n      tag_82\n      swap1\n      tag_83\n      jump\t// in\n    tag_82:\n      swap2\n      swap1\n      pop\n      sstore\n      pop\n        /* \"contracts/Conflict.sol\":3806:3844  if (vote == 1) { C.requesterVotes++; } */\n    tag_81:\n        /* \"contracts/Conflict.sol\":3865:3866  2 */\n      0x02\n        /* \"contracts/Conflict.sol\":3857:3861  vote */\n      dup3\n        /* \"contracts/Conflict.sol\":3857:3866  vote == 2 */\n      0xff\n      and\n      eq\n        /* \"contracts/Conflict.sol\":3853:3890  if (vote == 2) { C.providerVotes++; } */\n      iszero\n      tag_84\n      jumpi\n        /* \"contracts/Conflict.sol\":3870:3871  C */\n      dup1\n        /* \"contracts/Conflict.sol\":3870:3885  C.providerVotes */\n      0x08\n      add\n      0x00\n        /* \"contracts/Conflict.sol\":3870:3887  C.providerVotes++ */\n      dup2\n      sload\n      dup1\n      swap3\n      swap2\n      swap1\n      tag_85\n      swap1\n      tag_83\n      jump\t// in\n    tag_85:\n      swap2\n      swap1\n      pop\n      sstore\n      pop\n        /* \"contracts/Conflict.sol\":3853:3890  if (vote == 2) { C.providerVotes++; } */\n    tag_84:\n        /* \"contracts/Conflict.sol\":3899:3900  C */\n      dup1\n        /* \"contracts/Conflict.sol\":3899:3915  C.votesCollected */\n      0x06\n      add\n      0x00\n        /* \"contracts/Conflict.sol\":3899:3917  C.votesCollected++ */\n      dup2\n      sload\n      dup1\n      swap3\n      swap2\n      swap1\n      tag_86\n      swap1\n      tag_83\n      jump\t// in\n    tag_86:\n      swap2\n      swap1\n      pop\n      sstore\n      pop\n        /* \"contracts/Conflict.sol\":3933:4011  conflictVoted(projectNumber, serviceNumber, milestoneNumber, msg.sender, vote) */\n      0x20211b974adbe11ce3687d51504ce7ef1fcfbb9c00405ba7aca7b283903f345a\n        /* \"contracts/Conflict.sol\":3947:3960  projectNumber */\n      dup7\n        /* \"contracts/Conflict.sol\":3962:3975  serviceNumber */\n      dup7\n        /* \"contracts/Conflict.sol\":3977:3992  milestoneNumber */\n      dup7\n        /* \"contracts/Conflict.sol\":3994:4004  msg.sender */\n      caller\n        /* \"contracts/Conflict.sol\":4006:4010  vote */\n      dup7\n        /* \"contracts/Conflict.sol\":3933:4011  conflictVoted(projectNumber, serviceNumber, milestoneNumber, msg.sender, vote) */\n      mload(0x40)\n      tag_87\n      swap6\n      swap5\n      swap4\n      swap3\n      swap2\n      swap1\n      tag_88\n      jump\t// in\n    tag_87:\n      mload(0x40)\n      dup1\n      swap2\n      sub\n      swap1\n      log1\n        /* \"contracts/Conflict.sol\":4046:4047  C */\n      dup1\n        /* \"contracts/Conflict.sol\":4046:4054  C.voters */\n      0x05\n      add\n      sload\n        /* \"contracts/Conflict.sol\":4026:4027  C */\n      dup2\n        /* \"contracts/Conflict.sol\":4026:4042  C.votesCollected */\n      0x06\n      add\n      sload\n        /* \"contracts/Conflict.sol\":4026:4054  C.votesCollected == C.voters */\n      eq\n        /* \"contracts/Conflict.sol\":4022:4377  if (C.votesCollected == C.voters) {... */\n      iszero\n      tag_89\n      jumpi\n        /* \"contracts/Conflict.sol\":4092:4093  C */\n      dup1\n        /* \"contracts/Conflict.sol\":4092:4108  C.requesterVotes */\n      0x07\n      add\n      sload\n        /* \"contracts/Conflict.sol\":4074:4075  C */\n      dup2\n        /* \"contracts/Conflict.sol\":4074:4089  C.providerVotes */\n      0x08\n      add\n      sload\n        /* \"contracts/Conflict.sol\":4074:4108  C.providerVotes > C.requesterVotes */\n      gt\n        /* \"contracts/Conflict.sol\":4070:4159  if (C.providerVotes > C.requesterVotes) {C.result = 2; }... */\n      iszero\n      tag_90\n      jumpi\n        /* \"contracts/Conflict.sol\":4122:4123  2 */\n      0x02\n        /* \"contracts/Conflict.sol\":4111:4112  C */\n      dup2\n        /* \"contracts/Conflict.sol\":4111:4119  C.result */\n      0x09\n      add\n      0x01\n        /* \"contracts/Conflict.sol\":4111:4123  C.result = 2 */\n      0x0100\n      exp\n      dup2\n      sload\n      dup2\n      0xff\n      mul\n      not\n      and\n      swap1\n      dup4\n      0xff\n      and\n      mul\n      or\n      swap1\n      sstore\n      pop\n        /* \"contracts/Conflict.sol\":4070:4159  if (C.providerVotes > C.requesterVotes) {C.result = 2; }... */\n      jump(tag_91)\n    tag_90:\n        /* \"contracts/Conflict.sol\":4156:4157  1 */\n      0x01\n        /* \"contracts/Conflict.sol\":4145:4146  C */\n      dup2\n        /* \"contracts/Conflict.sol\":4145:4153  C.result */\n      0x09\n      add\n      0x01\n        /* \"contracts/Conflict.sol\":4145:4157  C.result = 1 */\n      0x0100\n      exp\n      dup2\n      sload\n      dup2\n      0xff\n      mul\n      not\n      and\n      swap1\n      dup4\n      0xff\n      and\n      mul\n      or\n      swap1\n      sstore\n      pop\n        /* \"contracts/Conflict.sol\":4070:4159  if (C.providerVotes > C.requesterVotes) {C.result = 2; }... */\n    tag_91:\n        /* \"contracts/Conflict.sol\":4251:4275  ConflictStatus.completed */\n      0x02\n        /* \"contracts/Conflict.sol\":4232:4233  C */\n      dup2\n        /* \"contracts/Conflict.sol\":4232:4248  C.conflictstatus */\n      0x04\n      add\n      0x14\n        /* \"contracts/Conflict.sol\":4232:4275  C.conflictstatus = ConflictStatus.completed */\n      0x0100\n      exp\n      dup2\n      sload\n      dup2\n      0xff\n      mul\n      not\n      and\n      swap1\n      dup4\n      0x02\n      dup2\n      gt\n      iszero\n      tag_92\n      jumpi\n      tag_93\n      tag_48\n      jump\t// in\n    tag_93:\n    tag_92:\n      mul\n      or\n      swap1\n      sstore\n      pop\n        /* \"contracts/Conflict.sol\":4295:4366  conflictResult(projectNumber, serviceNumber, milestoneNumber, C.result) */\n      0xe59fdbc65a5dd63c529717c2a71d04b136038f05301755de242dd05990c02814\n        /* \"contracts/Conflict.sol\":4310:4323  projectNumber */\n      dup7\n        /* \"contracts/Conflict.sol\":4325:4338  serviceNumber */\n      dup7\n        /* \"contracts/Conflict.sol\":4340:4355  milestoneNumber */\n      dup7\n        /* \"contracts/Conflict.sol\":4357:4358  C */\n      dup5\n        /* \"contracts/Conflict.sol\":4357:4365  C.result */\n      0x09\n      add\n      0x01\n      swap1\n      sload\n      swap1\n      0x0100\n      exp\n      swap1\n      div\n      0xff\n      and\n        /* \"contracts/Conflict.sol\":4295:4366  conflictResult(projectNumber, serviceNumber, milestoneNumber, C.result) */\n      mload(0x40)\n      tag_94\n      swap5\n      swap4\n      swap3\n      swap2\n      swap1\n      tag_95\n      jump\t// in\n    tag_94:\n      mload(0x40)\n      dup1\n      swap2\n      sub\n      swap1\n      log1\n        /* \"contracts/Conflict.sol\":4022:4377  if (C.votesCollected == C.voters) {... */\n    tag_89:\n        /* \"contracts/Conflict.sol\":2881:4383  {... */\n      pop\n        /* \"contracts/Conflict.sol\":2753:4383  function voteConflict(uint256 projectNumber, uint256 serviceNumber, uint256 milestoneNumber, address sender, uint8 vote) public {... */\n      pop\n      pop\n      pop\n      pop\n      pop\n      jump\t// out\n        /* \"contracts/Conflict.sol\":5051:5281  function getConflictStatus(uint256 projectNumber, uint256 serviceNumber, uint256 milestoneNumber) public view returns (ConflictStatus) {... */\n    tag_35:\n        /* \"contracts/Conflict.sol\":5170:5184  ConflictStatus */\n      0x00\n        /* \"contracts/Conflict.sol\":5203:5212  conflicts */\n      dup1\n        /* \"contracts/Conflict.sol\":5203:5227  conflicts[projectNumber] */\n      0x00\n        /* \"contracts/Conflict.sol\":5213:5226  projectNumber */\n      dup6\n        /* \"contracts/Conflict.sol\":5203:5227  conflicts[projectNumber] */\n      dup2\n      mstore\n      0x20\n      add\n      swap1\n      dup2\n      mstore\n      0x20\n      add\n      0x00\n      keccak256\n        /* \"contracts/Conflict.sol\":5203:5242  conflicts[projectNumber][serviceNumber] */\n      0x00\n        /* \"contracts/Conflict.sol\":5228:5241  serviceNumber */\n      dup5\n        /* \"contracts/Conflict.sol\":5203:5242  conflicts[projectNumber][serviceNumber] */\n      dup2\n      mstore\n      0x20\n      add\n      swap1\n      dup2\n      mstore\n      0x20\n      add\n      0x00\n      keccak256\n        /* \"contracts/Conflict.sol\":5203:5259  conflicts[projectNumber][serviceNumber][milestoneNumber] */\n      0x00\n        /* \"contracts/Conflict.sol\":5243:5258  milestoneNumber */\n      dup4\n        /* \"contracts/Conflict.sol\":5203:5259  conflicts[projectNumber][serviceNumber][milestoneNumber] */\n      dup2\n      mstore\n      0x20\n      add\n      swap1\n      dup2\n      mstore\n      0x20\n      add\n      0x00\n      keccak256\n        /* \"contracts/Conflict.sol\":5203:5274  conflicts[projectNumber][serviceNumber][milestoneNumber].conflictstatus */\n      0x04\n      add\n      0x14\n      swap1\n      sload\n      swap1\n      0x0100\n      exp\n      swap1\n      div\n      0xff\n      and\n        /* \"contracts/Conflict.sol\":5196:5274  return conflicts[projectNumber][serviceNumber][milestoneNumber].conflictstatus */\n      swap1\n      pop\n        /* \"contracts/Conflict.sol\":5051:5281  function getConflictStatus(uint256 projectNumber, uint256 serviceNumber, uint256 milestoneNumber) public view returns (ConflictStatus) {... */\n      swap4\n      swap3\n      pop\n      pop\n      pop\n      jump\t// out\n        /* \"contracts/Conflict.sol\":5516:5742  function getVotesforRequester(uint256 projectNumber, uint256 serviceNumber, uint256 milestoneNumber) public view returns (uint256) {... */\n    tag_40:\n        /* \"contracts/Conflict.sol\":5638:5645  uint256 */\n      0x00\n        /* \"contracts/Conflict.sol\":5664:5673  conflicts */\n      dup1\n        /* \"contracts/Conflict.sol\":5664:5688  conflicts[projectNumber] */\n      0x00\n        /* \"contracts/Conflict.sol\":5674:5687  projectNumber */\n      dup6\n        /* \"contracts/Conflict.sol\":5664:5688  conflicts[projectNumber] */\n      dup2\n      mstore\n      0x20\n      add\n      swap1\n      dup2\n      mstore\n      0x20\n      add\n      0x00\n      keccak256\n        /* \"contracts/Conflict.sol\":5664:5703  conflicts[projectNumber][serviceNumber] */\n      0x00\n        /* \"contracts/Conflict.sol\":5689:5702  serviceNumber */\n      dup5\n        /* \"contracts/Conflict.sol\":5664:5703  conflicts[projectNumber][serviceNumber] */\n      dup2\n      mstore\n      0x20\n      add\n      swap1\n      dup2\n      mstore\n      0x20\n      add\n      0x00\n      keccak256\n        /* \"contracts/Conflict.sol\":5664:5720  conflicts[projectNumber][serviceNumber][milestoneNumber] */\n      0x00\n        /* \"contracts/Conflict.sol\":5704:5719  milestoneNumber */\n      dup4\n        /* \"contracts/Conflict.sol\":5664:5720  conflicts[projectNumber][serviceNumber][milestoneNumber] */\n      dup2\n      mstore\n      0x20\n      add\n      swap1\n      dup2\n      mstore\n      0x20\n      add\n      0x00\n      keccak256\n        /* \"contracts/Conflict.sol\":5664:5735  conflicts[projectNumber][serviceNumber][milestoneNumber].requesterVotes */\n      0x07\n      add\n      sload\n        /* \"contracts/Conflict.sol\":5657:5735  return conflicts[projectNumber][serviceNumber][milestoneNumber].requesterVotes */\n      swap1\n      pop\n        /* \"contracts/Conflict.sol\":5516:5742  function getVotesforRequester(uint256 projectNumber, uint256 serviceNumber, uint256 milestoneNumber) public view returns (uint256) {... */\n      swap4\n      swap3\n      pop\n      pop\n      pop\n      jump\t// out\n        /* \"#utility.yul\":7:146   */\n    tag_99:\n        /* \"#utility.yul\":53:58   */\n      0x00\n        /* \"#utility.yul\":91:97   */\n      dup2\n        /* \"#utility.yul\":78:98   */\n      calldataload\n        /* \"#utility.yul\":69:98   */\n      swap1\n      pop\n        /* \"#utility.yul\":107:140   */\n      tag_101\n        /* \"#utility.yul\":134:139   */\n      dup2\n        /* \"#utility.yul\":107:140   */\n      tag_102\n      jump\t// in\n    tag_101:\n        /* \"#utility.yul\":7:146   */\n      swap3\n      swap2\n      pop\n      pop\n      jump\t// out\n        /* \"#utility.yul\":152:291   */\n    tag_103:\n        /* \"#utility.yul\":198:203   */\n      0x00\n        /* \"#utility.yul\":236:242   */\n      dup2\n        /* \"#utility.yul\":223:243   */\n      calldataload\n        /* \"#utility.yul\":214:243   */\n      swap1\n      pop\n        /* \"#utility.yul\":252:285   */\n      tag_105\n        /* \"#utility.yul\":279:284   */\n      dup2\n        /* \"#utility.yul\":252:285   */\n      tag_106\n      jump\t// in\n    tag_105:\n        /* \"#utility.yul\":152:291   */\n      swap3\n      swap2\n      pop\n      pop\n      jump\t// out\n        /* \"#utility.yul\":297:432   */\n    tag_107:\n        /* \"#utility.yul\":341:346   */\n      0x00\n        /* \"#utility.yul\":379:385   */\n      dup2\n        /* \"#utility.yul\":366:386   */\n      calldataload\n        /* \"#utility.yul\":357:386   */\n      swap1\n      pop\n        /* \"#utility.yul\":395:426   */\n      tag_109\n        /* \"#utility.yul\":420:425   */\n      dup2\n        /* \"#utility.yul\":395:426   */\n      tag_110\n      jump\t// in\n    tag_109:\n        /* \"#utility.yul\":297:432   */\n      swap3\n      swap2\n      pop\n      pop\n      jump\t// out\n        /* \"#utility.yul\":438:1057   */\n    tag_13:\n        /* \"#utility.yul\":515:521   */\n      0x00\n        /* \"#utility.yul\":523:529   */\n      dup1\n        /* \"#utility.yul\":531:537   */\n      0x00\n        /* \"#utility.yul\":580:582   */\n      0x60\n        /* \"#utility.yul\":568:577   */\n      dup5\n        /* \"#utility.yul\":559:566   */\n      dup7\n        /* \"#utility.yul\":555:578   */\n      sub\n        /* \"#utility.yul\":551:583   */\n      slt\n        /* \"#utility.yul\":548:667   */\n      iszero\n      tag_112\n      jumpi\n        /* \"#utility.yul\":586:665   */\n      tag_113\n      tag_114\n      jump\t// in\n    tag_113:\n        /* \"#utility.yul\":548:667   */\n    tag_112:\n        /* \"#utility.yul\":706:707   */\n      0x00\n        /* \"#utility.yul\":731:784   */\n      tag_115\n        /* \"#utility.yul\":776:783   */\n      dup7\n        /* \"#utility.yul\":767:773   */\n      dup3\n        /* \"#utility.yul\":756:765   */\n      dup8\n        /* \"#utility.yul\":752:774   */\n      add\n        /* \"#utility.yul\":731:784   */\n      tag_103\n      jump\t// in\n    tag_115:\n        /* \"#utility.yul\":721:784   */\n      swap4\n      pop\n        /* \"#utility.yul\":677:794   */\n      pop\n        /* \"#utility.yul\":833:835   */\n      0x20\n        /* \"#utility.yul\":859:912   */\n      tag_116\n        /* \"#utility.yul\":904:911   */\n      dup7\n        /* \"#utility.yul\":895:901   */\n      dup3\n        /* \"#utility.yul\":884:893   */\n      dup8\n        /* \"#utility.yul\":880:902   */\n      add\n        /* \"#utility.yul\":859:912   */\n      tag_103\n      jump\t// in\n    tag_116:\n        /* \"#utility.yul\":849:912   */\n      swap3\n      pop\n        /* \"#utility.yul\":804:922   */\n      pop\n        /* \"#utility.yul\":961:963   */\n      0x40\n        /* \"#utility.yul\":987:1040   */\n      tag_117\n        /* \"#utility.yul\":1032:1039   */\n      dup7\n        /* \"#utility.yul\":1023:1029   */\n      dup3\n        /* \"#utility.yul\":1012:1021   */\n      dup8\n        /* \"#utility.yul\":1008:1030   */\n      add\n        /* \"#utility.yul\":987:1040   */\n      tag_103\n      jump\t// in\n    tag_117:\n        /* \"#utility.yul\":977:1040   */\n      swap2\n      pop\n        /* \"#utility.yul\":932:1050   */\n      pop\n        /* \"#utility.yul\":438:1057   */\n      swap3\n      pop\n      swap3\n      pop\n      swap3\n      jump\t// out\n        /* \"#utility.yul\":1063:2120   */\n    tag_23:\n        /* \"#utility.yul\":1167:1173   */\n      0x00\n        /* \"#utility.yul\":1175:1181   */\n      dup1\n        /* \"#utility.yul\":1183:1189   */\n      0x00\n        /* \"#utility.yul\":1191:1197   */\n      dup1\n        /* \"#utility.yul\":1199:1205   */\n      0x00\n        /* \"#utility.yul\":1207:1213   */\n      dup1\n        /* \"#utility.yul\":1256:1259   */\n      0xc0\n        /* \"#utility.yul\":1244:1253   */\n      dup8\n        /* \"#utility.yul\":1235:1242   */\n      dup10\n        /* \"#utility.yul\":1231:1254   */\n      sub\n        /* \"#utility.yul\":1227:1260   */\n      slt\n        /* \"#utility.yul\":1224:1344   */\n      iszero\n      tag_119\n      jumpi\n        /* \"#utility.yul\":1263:1342   */\n      tag_120\n      tag_114\n      jump\t// in\n    tag_120:\n        /* \"#utility.yul\":1224:1344   */\n    tag_119:\n        /* \"#utility.yul\":1383:1384   */\n      0x00\n        /* \"#utility.yul\":1408:1461   */\n      tag_121\n        /* \"#utility.yul\":1453:1460   */\n      dup10\n        /* \"#utility.yul\":1444:1450   */\n      dup3\n        /* \"#utility.yul\":1433:1442   */\n      dup11\n        /* \"#utility.yul\":1429:1451   */\n      add\n        /* \"#utility.yul\":1408:1461   */\n      tag_103\n      jump\t// in\n    tag_121:\n        /* \"#utility.yul\":1398:1461   */\n      swap7\n      pop\n        /* \"#utility.yul\":1354:1471   */\n      pop\n        /* \"#utility.yul\":1510:1512   */\n      0x20\n        /* \"#utility.yul\":1536:1589   */\n      tag_122\n        /* \"#utility.yul\":1581:1588   */\n      dup10\n        /* \"#utility.yul\":1572:1578   */\n      dup3\n        /* \"#utility.yul\":1561:1570   */\n      dup11\n        /* \"#utility.yul\":1557:1579   */\n      add\n        /* \"#utility.yul\":1536:1589   */\n      tag_103\n      jump\t// in\n    tag_122:\n        /* \"#utility.yul\":1526:1589   */\n      swap6\n      pop\n        /* \"#utility.yul\":1481:1599   */\n      pop\n        /* \"#utility.yul\":1638:1640   */\n      0x40\n        /* \"#utility.yul\":1664:1717   */\n      tag_123\n        /* \"#utility.yul\":1709:1716   */\n      dup10\n        /* \"#utility.yul\":1700:1706   */\n      dup3\n        /* \"#utility.yul\":1689:1698   */\n      dup11\n        /* \"#utility.yul\":1685:1707   */\n      add\n        /* \"#utility.yul\":1664:1717   */\n      tag_103\n      jump\t// in\n    tag_123:\n        /* \"#utility.yul\":1654:1717   */\n      swap5\n      pop\n        /* \"#utility.yul\":1609:1727   */\n      pop\n        /* \"#utility.yul\":1766:1768   */\n      0x60\n        /* \"#utility.yul\":1792:1845   */\n      tag_124\n        /* \"#utility.yul\":1837:1844   */\n      dup10\n        /* \"#utility.yul\":1828:1834   */\n      dup3\n        /* \"#utility.yul\":1817:1826   */\n      dup11\n        /* \"#utility.yul\":1813:1835   */\n      add\n        /* \"#utility.yul\":1792:1845   */\n      tag_99\n      jump\t// in\n    tag_124:\n        /* \"#utility.yul\":1782:1845   */\n      swap4\n      pop\n        /* \"#utility.yul\":1737:1855   */\n      pop\n        /* \"#utility.yul\":1894:1897   */\n      0x80\n        /* \"#utility.yul\":1921:1974   */\n      tag_125\n        /* \"#utility.yul\":1966:1973   */\n      dup10\n        /* \"#utility.yul\":1957:1963   */\n      dup3\n        /* \"#utility.yul\":1946:1955   */\n      dup11\n        /* \"#utility.yul\":1942:1964   */\n      add\n        /* \"#utility.yul\":1921:1974   */\n      tag_99\n      jump\t// in\n    tag_125:\n        /* \"#utility.yul\":1911:1974   */\n      swap3\n      pop\n        /* \"#utility.yul\":1865:1984   */\n      pop\n        /* \"#utility.yul\":2023:2026   */\n      0xa0\n        /* \"#utility.yul\":2050:2103   */\n      tag_126\n        /* \"#utility.yul\":2095:2102   */\n      dup10\n        /* \"#utility.yul\":2086:2092   */\n      dup3\n        /* \"#utility.yul\":2075:2084   */\n      dup11\n        /* \"#utility.yul\":2071:2093   */\n      add\n        /* \"#utility.yul\":2050:2103   */\n      tag_103\n      jump\t// in\n    tag_126:\n        /* \"#utility.yul\":2040:2103   */\n      swap2\n      pop\n        /* \"#utility.yul\":1994:2113   */\n      pop\n        /* \"#utility.yul\":1063:2120   */\n      swap3\n      swap6\n      pop\n      swap3\n      swap6\n      pop\n      swap3\n      swap6\n      jump\t// out\n        /* \"#utility.yul\":2126:3033   */\n    tag_31:\n        /* \"#utility.yul\":2219:2225   */\n      0x00\n        /* \"#utility.yul\":2227:2233   */\n      dup1\n        /* \"#utility.yul\":2235:2241   */\n      0x00\n        /* \"#utility.yul\":2243:2249   */\n      dup1\n        /* \"#utility.yul\":2251:2257   */\n      0x00\n        /* \"#utility.yul\":2300:2303   */\n      0xa0\n        /* \"#utility.yul\":2288:2297   */\n      dup7\n        /* \"#utility.yul\":2279:2286   */\n      dup9\n        /* \"#utility.yul\":2275:2298   */\n      sub\n        /* \"#utility.yul\":2271:2304   */\n      slt\n        /* \"#utility.yul\":2268:2388   */\n      iszero\n      tag_128\n      jumpi\n        /* \"#utility.yul\":2307:2386   */\n      tag_129\n      tag_114\n      jump\t// in\n    tag_129:\n        /* \"#utility.yul\":2268:2388   */\n    tag_128:\n        /* \"#utility.yul\":2427:2428   */\n      0x00\n        /* \"#utility.yul\":2452:2505   */\n      tag_130\n        /* \"#utility.yul\":2497:2504   */\n      dup9\n        /* \"#utility.yul\":2488:2494   */\n      dup3\n        /* \"#utility.yul\":2477:2486   */\n      dup10\n        /* \"#utility.yul\":2473:2495   */\n      add\n        /* \"#utility.yul\":2452:2505   */\n      tag_103\n      jump\t// in\n    tag_130:\n        /* \"#utility.yul\":2442:2505   */\n      swap6\n      pop\n        /* \"#utility.yul\":2398:2515   */\n      pop\n        /* \"#utility.yul\":2554:2556   */\n      0x20\n        /* \"#utility.yul\":2580:2633   */\n      tag_131\n        /* \"#utility.yul\":2625:2632   */\n      dup9\n        /* \"#utility.yul\":2616:2622   */\n      dup3\n        /* \"#utility.yul\":2605:2614   */\n      dup10\n        /* \"#utility.yul\":2601:2623   */\n      add\n        /* \"#utility.yul\":2580:2633   */\n      tag_103\n      jump\t// in\n    tag_131:\n        /* \"#utility.yul\":2570:2633   */\n      swap5\n      pop\n        /* \"#utility.yul\":2525:2643   */\n      pop\n        /* \"#utility.yul\":2682:2684   */\n      0x40\n        /* \"#utility.yul\":2708:2761   */\n      tag_132\n        /* \"#utility.yul\":2753:2760   */\n      dup9\n        /* \"#utility.yul\":2744:2750   */\n      dup3\n        /* \"#utility.yul\":2733:2742   */\n      dup10\n        /* \"#utility.yul\":2729:2751   */\n      add\n        /* \"#utility.yul\":2708:2761   */\n      tag_103\n      jump\t// in\n    tag_132:\n        /* \"#utility.yul\":2698:2761   */\n      swap4\n      pop\n        /* \"#utility.yul\":2653:2771   */\n      pop\n        /* \"#utility.yul\":2810:2812   */\n      0x60\n        /* \"#utility.yul\":2836:2889   */\n      tag_133\n        /* \"#utility.yul\":2881:2888   */\n      dup9\n        /* \"#utility.yul\":2872:2878   */\n      dup3\n        /* \"#utility.yul\":2861:2870   */\n      dup10\n        /* \"#utility.yul\":2857:2879   */\n      add\n        /* \"#utility.yul\":2836:2889   */\n      tag_99\n      jump\t// in\n    tag_133:\n        /* \"#utility.yul\":2826:2889   */\n      swap3\n      pop\n        /* \"#utility.yul\":2781:2899   */\n      pop\n        /* \"#utility.yul\":2938:2941   */\n      0x80\n        /* \"#utility.yul\":2965:3016   */\n      tag_134\n        /* \"#utility.yul\":3008:3015   */\n      dup9\n        /* \"#utility.yul\":2999:3005   */\n      dup3\n        /* \"#utility.yul\":2988:2997   */\n      dup10\n        /* \"#utility.yul\":2984:3006   */\n      add\n        /* \"#utility.yul\":2965:3016   */\n      tag_107\n      jump\t// in\n    tag_134:\n        /* \"#utility.yul\":2955:3016   */\n      swap2\n      pop\n        /* \"#utility.yul\":2909:3026   */\n      pop\n        /* \"#utility.yul\":2126:3033   */\n      swap3\n      swap6\n      pop\n      swap3\n      swap6\n      swap1\n      swap4\n      pop\n      jump\t// out\n        /* \"#utility.yul\":3039:3157   */\n    tag_135:\n        /* \"#utility.yul\":3126:3150   */\n      tag_137\n        /* \"#utility.yul\":3144:3149   */\n      dup2\n        /* \"#utility.yul\":3126:3150   */\n      tag_138\n      jump\t// in\n    tag_137:\n        /* \"#utility.yul\":3121:3124   */\n      dup3\n        /* \"#utility.yul\":3114:3151   */\n      mstore\n        /* \"#utility.yul\":3039:3157   */\n      pop\n      pop\n      jump\t// out\n        /* \"#utility.yul\":3163:3322   */\n    tag_139:\n        /* \"#utility.yul\":3264:3315   */\n      tag_141\n        /* \"#utility.yul\":3309:3314   */\n      dup2\n        /* \"#utility.yul\":3264:3315   */\n      tag_142\n      jump\t// in\n    tag_141:\n        /* \"#utility.yul\":3259:3262   */\n      dup3\n        /* \"#utility.yul\":3252:3316   */\n      mstore\n        /* \"#utility.yul\":3163:3322   */\n      pop\n      pop\n      jump\t// out\n        /* \"#utility.yul\":3328:3694   */\n    tag_143:\n        /* \"#utility.yul\":3470:3473   */\n      0x00\n        /* \"#utility.yul\":3491:3558   */\n      tag_145\n        /* \"#utility.yul\":3555:3557   */\n      0x57\n        /* \"#utility.yul\":3550:3553   */\n      dup4\n        /* \"#utility.yul\":3491:3558   */\n      tag_146\n      jump\t// in\n    tag_145:\n        /* \"#utility.yul\":3484:3558   */\n      swap2\n      pop\n        /* \"#utility.yul\":3567:3660   */\n      tag_147\n        /* \"#utility.yul\":3656:3659   */\n      dup3\n        /* \"#utility.yul\":3567:3660   */\n      tag_148\n      jump\t// in\n    tag_147:\n        /* \"#utility.yul\":3685:3687   */\n      0x60\n        /* \"#utility.yul\":3680:3683   */\n      dup3\n        /* \"#utility.yul\":3676:3688   */\n      add\n        /* \"#utility.yul\":3669:3688   */\n      swap1\n      pop\n        /* \"#utility.yul\":3328:3694   */\n      swap2\n      swap1\n      pop\n      jump\t// out\n        /* \"#utility.yul\":3700:4066   */\n    tag_149:\n        /* \"#utility.yul\":3842:3845   */\n      0x00\n        /* \"#utility.yul\":3863:3930   */\n      tag_151\n        /* \"#utility.yul\":3927:3929   */\n      0x2d\n        /* \"#utility.yul\":3922:3925   */\n      dup4\n        /* \"#utility.yul\":3863:3930   */\n      tag_146\n      jump\t// in\n    tag_151:\n        /* \"#utility.yul\":3856:3930   */\n      swap2\n      pop\n        /* \"#utility.yul\":3939:4032   */\n      tag_152\n        /* \"#utility.yul\":4028:4031   */\n      dup3\n        /* \"#utility.yul\":3939:4032   */\n      tag_153\n      jump\t// in\n    tag_152:\n        /* \"#utility.yul\":4057:4059   */\n      0x40\n        /* \"#utility.yul\":4052:4055   */\n      dup3\n        /* \"#utility.yul\":4048:4060   */\n      add\n        /* \"#utility.yul\":4041:4060   */\n      swap1\n      pop\n        /* \"#utility.yul\":3700:4066   */\n      swap2\n      swap1\n      pop\n      jump\t// out\n        /* \"#utility.yul\":4072:4438   */\n    tag_154:\n        /* \"#utility.yul\":4214:4217   */\n      0x00\n        /* \"#utility.yul\":4235:4302   */\n      tag_156\n        /* \"#utility.yul\":4299:4301   */\n      0x30\n        /* \"#utility.yul\":4294:4297   */\n      dup4\n        /* \"#utility.yul\":4235:4302   */\n      tag_146\n      jump\t// in\n    tag_156:\n        /* \"#utility.yul\":4228:4302   */\n      swap2\n      pop\n        /* \"#utility.yul\":4311:4404   */\n      tag_157\n        /* \"#utility.yul\":4400:4403   */\n      dup3\n        /* \"#utility.yul\":4311:4404   */\n      tag_158\n      jump\t// in\n    tag_157:\n        /* \"#utility.yul\":4429:4431   */\n      0x40\n        /* \"#utility.yul\":4424:4427   */\n      dup3\n        /* \"#utility.yul\":4420:4432   */\n      add\n        /* \"#utility.yul\":4413:4432   */\n      swap1\n      pop\n        /* \"#utility.yul\":4072:4438   */\n      swap2\n      swap1\n      pop\n      jump\t// out\n        /* \"#utility.yul\":4444:4810   */\n    tag_159:\n        /* \"#utility.yul\":4586:4589   */\n      0x00\n        /* \"#utility.yul\":4607:4674   */\n      tag_161\n        /* \"#utility.yul\":4671:4673   */\n      0x3d\n        /* \"#utility.yul\":4666:4669   */\n      dup4\n        /* \"#utility.yul\":4607:4674   */\n      tag_146\n      jump\t// in\n    tag_161:\n        /* \"#utility.yul\":4600:4674   */\n      swap2\n      pop\n        /* \"#utility.yul\":4683:4776   */\n      tag_162\n        /* \"#utility.yul\":4772:4775   */\n      dup3\n        /* \"#utility.yul\":4683:4776   */\n      tag_163\n      jump\t// in\n    tag_162:\n        /* \"#utility.yul\":4801:4803   */\n      0x40\n        /* \"#utility.yul\":4796:4799   */\n      dup3\n        /* \"#utility.yul\":4792:4804   */\n      add\n        /* \"#utility.yul\":4785:4804   */\n      swap1\n      pop\n        /* \"#utility.yul\":4444:4810   */\n      swap2\n      swap1\n      pop\n      jump\t// out\n        /* \"#utility.yul\":4816:5182   */\n    tag_164:\n        /* \"#utility.yul\":4958:4961   */\n      0x00\n        /* \"#utility.yul\":4979:5046   */\n      tag_166\n        /* \"#utility.yul\":5043:5045   */\n      0x4a\n        /* \"#utility.yul\":5038:5041   */\n      dup4\n        /* \"#utility.yul\":4979:5046   */\n      tag_146\n      jump\t// in\n    tag_166:\n        /* \"#utility.yul\":4972:5046   */\n      swap2\n      pop\n        /* \"#utility.yul\":5055:5148   */\n      tag_167\n        /* \"#utility.yul\":5144:5147   */\n      dup3\n        /* \"#utility.yul\":5055:5148   */\n      tag_168\n      jump\t// in\n    tag_167:\n        /* \"#utility.yul\":5173:5175   */\n      0x60\n        /* \"#utility.yul\":5168:5171   */\n      dup3\n        /* \"#utility.yul\":5164:5176   */\n      add\n        /* \"#utility.yul\":5157:5176   */\n      swap1\n      pop\n        /* \"#utility.yul\":4816:5182   */\n      swap2\n      swap1\n      pop\n      jump\t// out\n        /* \"#utility.yul\":5188:5554   */\n    tag_169:\n        /* \"#utility.yul\":5330:5333   */\n      0x00\n        /* \"#utility.yul\":5351:5418   */\n      tag_171\n        /* \"#utility.yul\":5415:5417   */\n      0x39\n        /* \"#utility.yul\":5410:5413   */\n      dup4\n        /* \"#utility.yul\":5351:5418   */\n      tag_146\n      jump\t// in\n    tag_171:\n        /* \"#utility.yul\":5344:5418   */\n      swap2\n      pop\n        /* \"#utility.yul\":5427:5520   */\n      tag_172\n        /* \"#utility.yul\":5516:5519   */\n      dup3\n        /* \"#utility.yul\":5427:5520   */\n      tag_173\n      jump\t// in\n    tag_172:\n        /* \"#utility.yul\":5545:5547   */\n      0x40\n        /* \"#utility.yul\":5540:5543   */\n      dup3\n        /* \"#utility.yul\":5536:5548   */\n      add\n        /* \"#utility.yul\":5529:5548   */\n      swap1\n      pop\n        /* \"#utility.yul\":5188:5554   */\n      swap2\n      swap1\n      pop\n      jump\t// out\n        /* \"#utility.yul\":5560:5926   */\n    tag_174:\n        /* \"#utility.yul\":5702:5705   */\n      0x00\n        /* \"#utility.yul\":5723:5790   */\n      tag_176\n        /* \"#utility.yul\":5787:5789   */\n      0x20\n        /* \"#utility.yul\":5782:5785   */\n      dup4\n        /* \"#utility.yul\":5723:5790   */\n      tag_146\n      jump\t// in\n    tag_176:\n        /* \"#utility.yul\":5716:5790   */\n      swap2\n      pop\n        /* \"#utility.yul\":5799:5892   */\n      tag_177\n        /* \"#utility.yul\":5888:5891   */\n      dup3\n        /* \"#utility.yul\":5799:5892   */\n      tag_178\n      jump\t// in\n    tag_177:\n        /* \"#utility.yul\":5917:5919   */\n      0x20\n        /* \"#utility.yul\":5912:5915   */\n      dup3\n        /* \"#utility.yul\":5908:5920   */\n      add\n        /* \"#utility.yul\":5901:5920   */\n      swap1\n      pop\n        /* \"#utility.yul\":5560:5926   */\n      swap2\n      swap1\n      pop\n      jump\t// out\n        /* \"#utility.yul\":5932:6298   */\n    tag_179:\n        /* \"#utility.yul\":6074:6077   */\n      0x00\n        /* \"#utility.yul\":6095:6162   */\n      tag_181\n        /* \"#utility.yul\":6159:6161   */\n      0x4d\n        /* \"#utility.yul\":6154:6157   */\n      dup4\n        /* \"#utility.yul\":6095:6162   */\n      tag_146\n      jump\t// in\n    tag_181:\n        /* \"#utility.yul\":6088:6162   */\n      swap2\n      pop\n        /* \"#utility.yul\":6171:6264   */\n      tag_182\n        /* \"#utility.yul\":6260:6263   */\n      dup3\n        /* \"#utility.yul\":6171:6264   */\n      tag_183\n      jump\t// in\n    tag_182:\n        /* \"#utility.yul\":6289:6291   */\n      0x60\n        /* \"#utility.yul\":6284:6287   */\n      dup3\n        /* \"#utility.yul\":6280:6292   */\n      add\n        /* \"#utility.yul\":6273:6292   */\n      swap1\n      pop\n        /* \"#utility.yul\":5932:6298   */\n      swap2\n      swap1\n      pop\n      jump\t// out\n        /* \"#utility.yul\":6304:6422   */\n    tag_184:\n        /* \"#utility.yul\":6391:6415   */\n      tag_186\n        /* \"#utility.yul\":6409:6414   */\n      dup2\n        /* \"#utility.yul\":6391:6415   */\n      tag_187\n      jump\t// in\n    tag_186:\n        /* \"#utility.yul\":6386:6389   */\n      dup3\n        /* \"#utility.yul\":6379:6416   */\n      mstore\n        /* \"#utility.yul\":6304:6422   */\n      pop\n      pop\n      jump\t// out\n        /* \"#utility.yul\":6428:6540   */\n    tag_188:\n        /* \"#utility.yul\":6511:6533   */\n      tag_190\n        /* \"#utility.yul\":6527:6532   */\n      dup2\n        /* \"#utility.yul\":6511:6533   */\n      tag_191\n      jump\t// in\n    tag_190:\n        /* \"#utility.yul\":6506:6509   */\n      dup3\n        /* \"#utility.yul\":6499:6534   */\n      mstore\n        /* \"#utility.yul\":6428:6540   */\n      pop\n      pop\n      jump\t// out\n        /* \"#utility.yul\":6546:6796   */\n    tag_37:\n        /* \"#utility.yul\":6653:6657   */\n      0x00\n        /* \"#utility.yul\":6691:6693   */\n      0x20\n        /* \"#utility.yul\":6680:6689   */\n      dup3\n        /* \"#utility.yul\":6676:6694   */\n      add\n        /* \"#utility.yul\":6668:6694   */\n      swap1\n      pop\n        /* \"#utility.yul\":6704:6789   */\n      tag_193\n        /* \"#utility.yul\":6786:6787   */\n      0x00\n        /* \"#utility.yul\":6775:6784   */\n      dup4\n        /* \"#utility.yul\":6771:6788   */\n      add\n        /* \"#utility.yul\":6762:6768   */\n      dup5\n        /* \"#utility.yul\":6704:6789   */\n      tag_139\n      jump\t// in\n    tag_193:\n        /* \"#utility.yul\":6546:6796   */\n      swap3\n      swap2\n      pop\n      pop\n      jump\t// out\n        /* \"#utility.yul\":6802:7221   */\n    tag_80:\n        /* \"#utility.yul\":6968:6972   */\n      0x00\n        /* \"#utility.yul\":7006:7008   */\n      0x20\n        /* \"#utility.yul\":6995:7004   */\n      dup3\n        /* \"#utility.yul\":6991:7009   */\n      add\n        /* \"#utility.yul\":6983:7009   */\n      swap1\n      pop\n        /* \"#utility.yul\":7055:7064   */\n      dup2\n        /* \"#utility.yul\":7049:7053   */\n      dup2\n        /* \"#utility.yul\":7045:7065   */\n      sub\n        /* \"#utility.yul\":7041:7042   */\n      0x00\n        /* \"#utility.yul\":7030:7039   */\n      dup4\n        /* \"#utility.yul\":7026:7043   */\n      add\n        /* \"#utility.yul\":7019:7066   */\n      mstore\n        /* \"#utility.yul\":7083:7214   */\n      tag_195\n        /* \"#utility.yul\":7209:7213   */\n      dup2\n        /* \"#utility.yul\":7083:7214   */\n      tag_143\n      jump\t// in\n    tag_195:\n        /* \"#utility.yul\":7075:7214   */\n      swap1\n      pop\n        /* \"#utility.yul\":6802:7221   */\n      swap2\n      swap1\n      pop\n      jump\t// out\n        /* \"#utility.yul\":7227:7646   */\n    tag_76:\n        /* \"#utility.yul\":7393:7397   */\n      0x00\n        /* \"#utility.yul\":7431:7433   */\n      0x20\n        /* \"#utility.yul\":7420:7429   */\n      dup3\n        /* \"#utility.yul\":7416:7434   */\n      add\n        /* \"#utility.yul\":7408:7434   */\n      swap1\n      pop\n        /* \"#utility.yul\":7480:7489   */\n      dup2\n        /* \"#utility.yul\":7474:7478   */\n      dup2\n        /* \"#utility.yul\":7470:7490   */\n      sub\n        /* \"#utility.yul\":7466:7467   */\n      0x00\n        /* \"#utility.yul\":7455:7464   */\n      dup4\n        /* \"#utility.yul\":7451:7468   */\n      add\n        /* \"#utility.yul\":7444:7491   */\n      mstore\n        /* \"#utility.yul\":7508:7639   */\n      tag_197\n        /* \"#utility.yul\":7634:7638   */\n      dup2\n        /* \"#utility.yul\":7508:7639   */\n      tag_149\n      jump\t// in\n    tag_197:\n        /* \"#utility.yul\":7500:7639   */\n      swap1\n      pop\n        /* \"#utility.yul\":7227:7646   */\n      swap2\n      swap1\n      pop\n      jump\t// out\n        /* \"#utility.yul\":7652:8071   */\n    tag_67:\n        /* \"#utility.yul\":7818:7822   */\n      0x00\n        /* \"#utility.yul\":7856:7858   */\n      0x20\n        /* \"#utility.yul\":7845:7854   */\n      dup3\n        /* \"#utility.yul\":7841:7859   */\n      add\n        /* \"#utility.yul\":7833:7859   */\n      swap1\n      pop\n        /* \"#utility.yul\":7905:7914   */\n      dup2\n        /* \"#utility.yul\":7899:7903   */\n      dup2\n        /* \"#utility.yul\":7895:7915   */\n      sub\n        /* \"#utility.yul\":7891:7892   */\n      0x00\n        /* \"#utility.yul\":7880:7889   */\n      dup4\n        /* \"#utility.yul\":7876:7893   */\n      add\n        /* \"#utility.yul\":7869:7916   */\n      mstore\n        /* \"#utility.yul\":7933:8064   */\n      tag_199\n        /* \"#utility.yul\":8059:8063   */\n      dup2\n        /* \"#utility.yul\":7933:8064   */\n      tag_154\n      jump\t// in\n    tag_199:\n        /* \"#utility.yul\":7925:8064   */\n      swap1\n      pop\n        /* \"#utility.yul\":7652:8071   */\n      swap2\n      swap1\n      pop\n      jump\t// out\n        /* \"#utility.yul\":8077:8496   */\n    tag_53:\n        /* \"#utility.yul\":8243:8247   */\n      0x00\n        /* \"#utility.yul\":8281:8283   */\n      0x20\n        /* \"#utility.yul\":8270:8279   */\n      dup3\n        /* \"#utility.yul\":8266:8284   */\n      add\n        /* \"#utility.yul\":8258:8284   */\n      swap1\n      pop\n        /* \"#utility.yul\":8330:8339   */\n      dup2\n        /* \"#utility.yul\":8324:8328   */\n      dup2\n        /* \"#utility.yul\":8320:8340   */\n      sub\n        /* \"#utility.yul\":8316:8317   */\n      0x00\n        /* \"#utility.yul\":8305:8314   */\n      dup4\n        /* \"#utility.yul\":8301:8318   */\n      add\n        /* \"#utility.yul\":8294:8341   */\n      mstore\n        /* \"#utility.yul\":8358:8489   */\n      tag_201\n        /* \"#utility.yul\":8484:8488   */\n      dup2\n        /* \"#utility.yul\":8358:8489   */\n      tag_159\n      jump\t// in\n    tag_201:\n        /* \"#utility.yul\":8350:8489   */\n      swap1\n      pop\n        /* \"#utility.yul\":8077:8496   */\n      swap2\n      swap1\n      pop\n      jump\t// out\n        /* \"#utility.yul\":8502:8921   */\n    tag_45:\n        /* \"#utility.yul\":8668:8672   */\n      0x00\n        /* \"#utility.yul\":8706:8708   */\n      0x20\n        /* \"#utility.yul\":8695:8704   */\n      dup3\n        /* \"#utility.yul\":8691:8709   */\n      add\n        /* \"#utility.yul\":8683:8709   */\n      swap1\n      pop\n        /* \"#utility.yul\":8755:8764   */\n      dup2\n        /* \"#utility.yul\":8749:8753   */\n      dup2\n        /* \"#utility.yul\":8745:8765   */\n      sub\n        /* \"#utility.yul\":8741:8742   */\n      0x00\n        /* \"#utility.yul\":8730:8739   */\n      dup4\n        /* \"#utility.yul\":8726:8743   */\n      add\n        /* \"#utility.yul\":8719:8766   */\n      mstore\n        /* \"#utility.yul\":8783:8914   */\n      tag_203\n        /* \"#utility.yul\":8909:8913   */\n      dup2\n        /* \"#utility.yul\":8783:8914   */\n      tag_164\n      jump\t// in\n    tag_203:\n        /* \"#utility.yul\":8775:8914   */\n      swap1\n      pop\n        /* \"#utility.yul\":8502:8921   */\n      swap2\n      swap1\n      pop\n      jump\t// out\n        /* \"#utility.yul\":8927:9346   */\n    tag_70:\n        /* \"#utility.yul\":9093:9097   */\n      0x00\n        /* \"#utility.yul\":9131:9133   */\n      0x20\n        /* \"#utility.yul\":9120:9129   */\n      dup3\n        /* \"#utility.yul\":9116:9134   */\n      add\n        /* \"#utility.yul\":9108:9134   */\n      swap1\n      pop\n        /* \"#utility.yul\":9180:9189   */\n      dup2\n        /* \"#utility.yul\":9174:9178   */\n      dup2\n        /* \"#utility.yul\":9170:9190   */\n      sub\n        /* \"#utility.yul\":9166:9167   */\n      0x00\n        /* \"#utility.yul\":9155:9164   */\n      dup4\n        /* \"#utility.yul\":9151:9168   */\n      add\n        /* \"#utility.yul\":9144:9191   */\n      mstore\n        /* \"#utility.yul\":9208:9339   */\n      tag_205\n        /* \"#utility.yul\":9334:9338   */\n      dup2\n        /* \"#utility.yul\":9208:9339   */\n      tag_169\n      jump\t// in\n    tag_205:\n        /* \"#utility.yul\":9200:9339   */\n      swap1\n      pop\n        /* \"#utility.yul\":8927:9346   */\n      swap2\n      swap1\n      pop\n      jump\t// out\n        /* \"#utility.yul\":9352:9771   */\n    tag_73:\n        /* \"#utility.yul\":9518:9522   */\n      0x00\n        /* \"#utility.yul\":9556:9558   */\n      0x20\n        /* \"#utility.yul\":9545:9554   */\n      dup3\n        /* \"#utility.yul\":9541:9559   */\n      add\n        /* \"#utility.yul\":9533:9559   */\n      swap1\n      pop\n        /* \"#utility.yul\":9605:9614   */\n      dup2\n        /* \"#utility.yul\":9599:9603   */\n      dup2\n        /* \"#utility.yul\":9595:9615   */\n      sub\n        /* \"#utility.yul\":9591:9592   */\n      0x00\n        /* \"#utility.yul\":9580:9589   */\n      dup4\n        /* \"#utility.yul\":9576:9593   */\n      add\n        /* \"#utility.yul\":9569:9616   */\n      mstore\n        /* \"#utility.yul\":9633:9764   */\n      tag_207\n        /* \"#utility.yul\":9759:9763   */\n      dup2\n        /* \"#utility.yul\":9633:9764   */\n      tag_174\n      jump\t// in\n    tag_207:\n        /* \"#utility.yul\":9625:9764   */\n      swap1\n      pop\n        /* \"#utility.yul\":9352:9771   */\n      swap2\n      swap1\n      pop\n      jump\t// out\n        /* \"#utility.yul\":9777:10196   */\n    tag_58:\n        /* \"#utility.yul\":9943:9947   */\n      0x00\n        /* \"#utility.yul\":9981:9983   */\n      0x20\n        /* \"#utility.yul\":9970:9979   */\n      dup3\n        /* \"#utility.yul\":9966:9984   */\n      add\n        /* \"#utility.yul\":9958:9984   */\n      swap1\n      pop\n        /* \"#utility.yul\":10030:10039   */\n      dup2\n        /* \"#utility.yul\":10024:10028   */\n      dup2\n        /* \"#utility.yul\":10020:10040   */\n      sub\n        /* \"#utility.yul\":10016:10017   */\n      0x00\n        /* \"#utility.yul\":10005:10014   */\n      dup4\n        /* \"#utility.yul\":10001:10018   */\n      add\n        /* \"#utility.yul\":9994:10041   */\n      mstore\n        /* \"#utility.yul\":10058:10189   */\n      tag_209\n        /* \"#utility.yul\":10184:10188   */\n      dup2\n        /* \"#utility.yul\":10058:10189   */\n      tag_179\n      jump\t// in\n    tag_209:\n        /* \"#utility.yul\":10050:10189   */\n      swap1\n      pop\n        /* \"#utility.yul\":9777:10196   */\n      swap2\n      swap1\n      pop\n      jump\t// out\n        /* \"#utility.yul\":10202:10424   */\n    tag_16:\n        /* \"#utility.yul\":10295:10299   */\n      0x00\n        /* \"#utility.yul\":10333:10335   */\n      0x20\n        /* \"#utility.yul\":10322:10331   */\n      dup3\n        /* \"#utility.yul\":10318:10336   */\n      add\n        /* \"#utility.yul\":10310:10336   */\n      swap1\n      pop\n        /* \"#utility.yul\":10346:10417   */\n      tag_211\n        /* \"#utility.yul\":10414:10415   */\n      0x00\n        /* \"#utility.yul\":10403:10412   */\n      dup4\n        /* \"#utility.yul\":10399:10416   */\n      add\n        /* \"#utility.yul\":10390:10396   */\n      dup5\n        /* \"#utility.yul\":10346:10417   */\n      tag_184\n      jump\t// in\n    tag_211:\n        /* \"#utility.yul\":10202:10424   */\n      swap3\n      swap2\n      pop\n      pop\n      jump\t// out\n        /* \"#utility.yul\":10430:11205   */\n    tag_62:\n        /* \"#utility.yul\":10663:10667   */\n      0x00\n        /* \"#utility.yul\":10701:10704   */\n      0xc0\n        /* \"#utility.yul\":10690:10699   */\n      dup3\n        /* \"#utility.yul\":10686:10705   */\n      add\n        /* \"#utility.yul\":10678:10705   */\n      swap1\n      pop\n        /* \"#utility.yul\":10715:10786   */\n      tag_213\n        /* \"#utility.yul\":10783:10784   */\n      0x00\n        /* \"#utility.yul\":10772:10781   */\n      dup4\n        /* \"#utility.yul\":10768:10785   */\n      add\n        /* \"#utility.yul\":10759:10765   */\n      dup10\n        /* \"#utility.yul\":10715:10786   */\n      tag_184\n      jump\t// in\n    tag_213:\n        /* \"#utility.yul\":10796:10868   */\n      tag_214\n        /* \"#utility.yul\":10864:10866   */\n      0x20\n        /* \"#utility.yul\":10853:10862   */\n      dup4\n        /* \"#utility.yul\":10849:10867   */\n      add\n        /* \"#utility.yul\":10840:10846   */\n      dup9\n        /* \"#utility.yul\":10796:10868   */\n      tag_184\n      jump\t// in\n    tag_214:\n        /* \"#utility.yul\":10878:10950   */\n      tag_215\n        /* \"#utility.yul\":10946:10948   */\n      0x40\n        /* \"#utility.yul\":10935:10944   */\n      dup4\n        /* \"#utility.yul\":10931:10949   */\n      add\n        /* \"#utility.yul\":10922:10928   */\n      dup8\n        /* \"#utility.yul\":10878:10950   */\n      tag_184\n      jump\t// in\n    tag_215:\n        /* \"#utility.yul\":10960:11032   */\n      tag_216\n        /* \"#utility.yul\":11028:11030   */\n      0x60\n        /* \"#utility.yul\":11017:11026   */\n      dup4\n        /* \"#utility.yul\":11013:11031   */\n      add\n        /* \"#utility.yul\":11004:11010   */\n      dup7\n        /* \"#utility.yul\":10960:11032   */\n      tag_135\n      jump\t// in\n    tag_216:\n        /* \"#utility.yul\":11042:11115   */\n      tag_217\n        /* \"#utility.yul\":11110:11113   */\n      0x80\n        /* \"#utility.yul\":11099:11108   */\n      dup4\n        /* \"#utility.yul\":11095:11114   */\n      add\n        /* \"#utility.yul\":11086:11092   */\n      dup6\n        /* \"#utility.yul\":11042:11115   */\n      tag_135\n      jump\t// in\n    tag_217:\n        /* \"#utility.yul\":11125:11198   */\n      tag_218\n        /* \"#utility.yul\":11193:11196   */\n      0xa0\n        /* \"#utility.yul\":11182:11191   */\n      dup4\n        /* \"#utility.yul\":11178:11197   */\n      add\n        /* \"#utility.yul\":11169:11175   */\n      dup5\n        /* \"#utility.yul\":11125:11198   */\n      tag_184\n      jump\t// in\n    tag_218:\n        /* \"#utility.yul\":10430:11205   */\n      swap8\n      swap7\n      pop\n      pop\n      pop\n      pop\n      pop\n      pop\n      pop\n      jump\t// out\n        /* \"#utility.yul\":11211:11867   */\n    tag_88:\n        /* \"#utility.yul\":11412:11416   */\n      0x00\n        /* \"#utility.yul\":11450:11453   */\n      0xa0\n        /* \"#utility.yul\":11439:11448   */\n      dup3\n        /* \"#utility.yul\":11435:11454   */\n      add\n        /* \"#utility.yul\":11427:11454   */\n      swap1\n      pop\n        /* \"#utility.yul\":11464:11535   */\n      tag_220\n        /* \"#utility.yul\":11532:11533   */\n      0x00\n        /* \"#utility.yul\":11521:11530   */\n      dup4\n        /* \"#utility.yul\":11517:11534   */\n      add\n        /* \"#utility.yul\":11508:11514   */\n      dup9\n        /* \"#utility.yul\":11464:11535   */\n      tag_184\n      jump\t// in\n    tag_220:\n        /* \"#utility.yul\":11545:11617   */\n      tag_221\n        /* \"#utility.yul\":11613:11615   */\n      0x20\n        /* \"#utility.yul\":11602:11611   */\n      dup4\n        /* \"#utility.yul\":11598:11616   */\n      add\n        /* \"#utility.yul\":11589:11595   */\n      dup8\n        /* \"#utility.yul\":11545:11617   */\n      tag_184\n      jump\t// in\n    tag_221:\n        /* \"#utility.yul\":11627:11699   */\n      tag_222\n        /* \"#utility.yul\":11695:11697   */\n      0x40\n        /* \"#utility.yul\":11684:11693   */\n      dup4\n        /* \"#utility.yul\":11680:11698   */\n      add\n        /* \"#utility.yul\":11671:11677   */\n      dup7\n        /* \"#utility.yul\":11627:11699   */\n      tag_184\n      jump\t// in\n    tag_222:\n        /* \"#utility.yul\":11709:11781   */\n      tag_223\n        /* \"#utility.yul\":11777:11779   */\n      0x60\n        /* \"#utility.yul\":11766:11775   */\n      dup4\n        /* \"#utility.yul\":11762:11780   */\n      add\n        /* \"#utility.yul\":11753:11759   */\n      dup6\n        /* \"#utility.yul\":11709:11781   */\n      tag_135\n      jump\t// in\n    tag_223:\n        /* \"#utility.yul\":11791:11860   */\n      tag_224\n        /* \"#utility.yul\":11855:11858   */\n      0x80\n        /* \"#utility.yul\":11844:11853   */\n      dup4\n        /* \"#utility.yul\":11840:11859   */\n      add\n        /* \"#utility.yul\":11831:11837   */\n      dup5\n        /* \"#utility.yul\":11791:11860   */\n      tag_188\n      jump\t// in\n    tag_224:\n        /* \"#utility.yul\":11211:11867   */\n      swap7\n      swap6\n      pop\n      pop\n      pop\n      pop\n      pop\n      pop\n      jump\t// out\n        /* \"#utility.yul\":11873:12418   */\n    tag_95:\n        /* \"#utility.yul\":12046:12050   */\n      0x00\n        /* \"#utility.yul\":12084:12087   */\n      0x80\n        /* \"#utility.yul\":12073:12082   */\n      dup3\n        /* \"#utility.yul\":12069:12088   */\n      add\n        /* \"#utility.yul\":12061:12088   */\n      swap1\n      pop\n        /* \"#utility.yul\":12098:12169   */\n      tag_226\n        /* \"#utility.yul\":12166:12167   */\n      0x00\n        /* \"#utility.yul\":12155:12164   */\n      dup4\n        /* \"#utility.yul\":12151:12168   */\n      add\n        /* \"#utility.yul\":12142:12148   */\n      dup8\n        /* \"#utility.yul\":12098:12169   */\n      tag_184\n      jump\t// in\n    tag_226:\n        /* \"#utility.yul\":12179:12251   */\n      tag_227\n        /* \"#utility.yul\":12247:12249   */\n      0x20\n        /* \"#utility.yul\":12236:12245   */\n      dup4\n        /* \"#utility.yul\":12232:12250   */\n      add\n        /* \"#utility.yul\":12223:12229   */\n      dup7\n        /* \"#utility.yul\":12179:12251   */\n      tag_184\n      jump\t// in\n    tag_227:\n        /* \"#utility.yul\":12261:12333   */\n      tag_228\n        /* \"#utility.yul\":12329:12331   */\n      0x40\n        /* \"#utility.yul\":12318:12327   */\n      dup4\n        /* \"#utility.yul\":12314:12332   */\n      add\n        /* \"#utility.yul\":12305:12311   */\n      dup6\n        /* \"#utility.yul\":12261:12333   */\n      tag_184\n      jump\t// in\n    tag_228:\n        /* \"#utility.yul\":12343:12411   */\n      tag_229\n        /* \"#utility.yul\":12407:12409   */\n      0x60\n        /* \"#utility.yul\":12396:12405   */\n      dup4\n        /* \"#utility.yul\":12392:12410   */\n      add\n        /* \"#utility.yul\":12383:12389   */\n      dup5\n        /* \"#utility.yul\":12343:12411   */\n      tag_188\n      jump\t// in\n    tag_229:\n        /* \"#utility.yul\":11873:12418   */\n      swap6\n      swap5\n      pop\n      pop\n      pop\n      pop\n      pop\n      jump\t// out\n        /* \"#utility.yul\":12505:12674   */\n    tag_146:\n        /* \"#utility.yul\":12589:12600   */\n      0x00\n        /* \"#utility.yul\":12623:12629   */\n      dup3\n        /* \"#utility.yul\":12618:12621   */\n      dup3\n        /* \"#utility.yul\":12611:12630   */\n      mstore\n        /* \"#utility.yul\":12663:12667   */\n      0x20\n        /* \"#utility.yul\":12658:12661   */\n      dup3\n        /* \"#utility.yul\":12654:12668   */\n      add\n        /* \"#utility.yul\":12639:12668   */\n      swap1\n      pop\n        /* \"#utility.yul\":12505:12674   */\n      swap3\n      swap2\n      pop\n      pop\n      jump\t// out\n        /* \"#utility.yul\":12680:12776   */\n    tag_138:\n        /* \"#utility.yul\":12717:12724   */\n      0x00\n        /* \"#utility.yul\":12746:12770   */\n      tag_234\n        /* \"#utility.yul\":12764:12769   */\n      dup3\n        /* \"#utility.yul\":12746:12770   */\n      tag_235\n      jump\t// in\n    tag_234:\n        /* \"#utility.yul\":12735:12770   */\n      swap1\n      pop\n        /* \"#utility.yul\":12680:12776   */\n      swap2\n      swap1\n      pop\n      jump\t// out\n        /* \"#utility.yul\":12782:12925   */\n    tag_236:\n        /* \"#utility.yul\":12835:12842   */\n      0x00\n        /* \"#utility.yul\":12864:12869   */\n      dup2\n        /* \"#utility.yul\":12853:12869   */\n      swap1\n      pop\n        /* \"#utility.yul\":12870:12919   */\n      tag_238\n        /* \"#utility.yul\":12913:12918   */\n      dup3\n        /* \"#utility.yul\":12870:12919   */\n      tag_239\n      jump\t// in\n    tag_238:\n        /* \"#utility.yul\":12782:12925   */\n      swap2\n      swap1\n      pop\n      jump\t// out\n        /* \"#utility.yul\":12931:13057   */\n    tag_235:\n        /* \"#utility.yul\":12968:12975   */\n      0x00\n        /* \"#utility.yul\":13008:13050   */\n      0xffffffffffffffffffffffffffffffffffffffff\n        /* \"#utility.yul\":13001:13006   */\n      dup3\n        /* \"#utility.yul\":12997:13051   */\n      and\n        /* \"#utility.yul\":12986:13051   */\n      swap1\n      pop\n        /* \"#utility.yul\":12931:13057   */\n      swap2\n      swap1\n      pop\n      jump\t// out\n        /* \"#utility.yul\":13063:13140   */\n    tag_187:\n        /* \"#utility.yul\":13100:13107   */\n      0x00\n        /* \"#utility.yul\":13129:13134   */\n      dup2\n        /* \"#utility.yul\":13118:13134   */\n      swap1\n      pop\n        /* \"#utility.yul\":13063:13140   */\n      swap2\n      swap1\n      pop\n      jump\t// out\n        /* \"#utility.yul\":13146:13232   */\n    tag_191:\n        /* \"#utility.yul\":13181:13188   */\n      0x00\n        /* \"#utility.yul\":13221:13225   */\n      0xff\n        /* \"#utility.yul\":13214:13219   */\n      dup3\n        /* \"#utility.yul\":13210:13226   */\n      and\n        /* \"#utility.yul\":13199:13226   */\n      swap1\n      pop\n        /* \"#utility.yul\":13146:13232   */\n      swap2\n      swap1\n      pop\n      jump\t// out\n        /* \"#utility.yul\":13238:13381   */\n    tag_142:\n        /* \"#utility.yul\":13302:13311   */\n      0x00\n        /* \"#utility.yul\":13335:13375   */\n      tag_244\n        /* \"#utility.yul\":13369:13374   */\n      dup3\n        /* \"#utility.yul\":13335:13375   */\n      tag_236\n      jump\t// in\n    tag_244:\n        /* \"#utility.yul\":13322:13375   */\n      swap1\n      pop\n        /* \"#utility.yul\":13238:13381   */\n      swap2\n      swap1\n      pop\n      jump\t// out\n        /* \"#utility.yul\":13387:13620   */\n    tag_83:\n        /* \"#utility.yul\":13426:13429   */\n      0x00\n        /* \"#utility.yul\":13449:13473   */\n      tag_246\n        /* \"#utility.yul\":13467:13472   */\n      dup3\n        /* \"#utility.yul\":13449:13473   */\n      tag_187\n      jump\t// in\n    tag_246:\n        /* \"#utility.yul\":13440:13473   */\n      swap2\n      pop\n        /* \"#utility.yul\":13495:13561   */\n      0xffffffffffffffffffffffffffffffffffffffffffffffffffffffffffffffff\n        /* \"#utility.yul\":13488:13493   */\n      dup3\n        /* \"#utility.yul\":13485:13562   */\n      eq\n        /* \"#utility.yul\":13482:13585   */\n      iszero\n      tag_247\n      jumpi\n        /* \"#utility.yul\":13565:13583   */\n      tag_248\n      tag_249\n      jump\t// in\n    tag_248:\n        /* \"#utility.yul\":13482:13585   */\n    tag_247:\n        /* \"#utility.yul\":13612:13613   */\n      0x01\n        /* \"#utility.yul\":13605:13610   */\n      dup3\n        /* \"#utility.yul\":13601:13614   */\n      add\n        /* \"#utility.yul\":13594:13614   */\n      swap1\n      pop\n        /* \"#utility.yul\":13387:13620   */\n      swap2\n      swap1\n      pop\n      jump\t// out\n        /* \"#utility.yul\":13626:13806   */\n    tag_249:\n        /* \"#utility.yul\":13674:13751   */\n      0x4e487b7100000000000000000000000000000000000000000000000000000000\n        /* \"#utility.yul\":13671:13672   */\n      0x00\n        /* \"#utility.yul\":13664:13752   */\n      mstore\n        /* \"#utility.yul\":13771:13775   */\n      0x11\n        /* \"#utility.yul\":13768:13769   */\n      0x04\n        /* \"#utility.yul\":13761:13776   */\n      mstore\n        /* \"#utility.yul\":13795:13799   */\n      0x24\n        /* \"#utility.yul\":13792:13793   */\n      0x00\n        /* \"#utility.yul\":13785:13800   */\n      revert\n        /* \"#utility.yul\":13812:13992   */\n    tag_48:\n        /* \"#utility.yul\":13860:13937   */\n      0x4e487b7100000000000000000000000000000000000000000000000000000000\n        /* \"#utility.yul\":13857:13858   */\n      0x00\n        /* \"#utility.yul\":13850:13938   */\n      mstore\n        /* \"#utility.yul\":13957:13961   */\n      0x21\n        /* \"#utility.yul\":13954:13955   */\n      0x04\n        /* \"#utility.yul\":13947:13962   */\n      mstore\n        /* \"#utility.yul\":13981:13985   */\n      0x24\n        /* \"#utility.yul\":13978:13979   */\n      0x00\n        /* \"#utility.yul\":13971:13986   */\n      revert\n        /* \"#utility.yul\":14121:14238   */\n    tag_114:\n        /* \"#utility.yul\":14230:14231   */\n      0x00\n        /* \"#utility.yul\":14227:14228   */\n      dup1\n        /* \"#utility.yul\":14220:14232   */\n      revert\n        /* \"#utility.yul\":14244:14555   */\n    tag_148:\n        /* \"#utility.yul\":14384:14418   */\n      0x596f752068617665206e6f7420696e707574206120726967687420766f74652e\n        /* \"#utility.yul\":14380:14381   */\n      0x00\n        /* \"#utility.yul\":14372:14378   */\n      dup3\n        /* \"#utility.yul\":14368:14382   */\n      add\n        /* \"#utility.yul\":14361:14419   */\n      mstore\n        /* \"#utility.yul\":14453:14487   */\n      0x20596f752063616e2065697468657220766f7465203120666f72205265717565\n        /* \"#utility.yul\":14448:14450   */\n      0x20\n        /* \"#utility.yul\":14440:14446   */\n      dup3\n        /* \"#utility.yul\":14436:14451   */\n      add\n        /* \"#utility.yul\":14429:14488   */\n      mstore\n        /* \"#utility.yul\":14522:14547   */\n      0x73746572206f72203220666f722050726f76696465722e000000000000000000\n        /* \"#utility.yul\":14517:14519   */\n      0x40\n        /* \"#utility.yul\":14509:14515   */\n      dup3\n        /* \"#utility.yul\":14505:14520   */\n      add\n        /* \"#utility.yul\":14498:14548   */\n      mstore\n        /* \"#utility.yul\":14244:14555   */\n      pop\n      jump\t// out\n        /* \"#utility.yul\":14561:14793   */\n    tag_153:\n        /* \"#utility.yul\":14701:14735   */\n      0x596f75206861766520616c726561647920766f7465642c20796f752063616e6e\n        /* \"#utility.yul\":14697:14698   */\n      0x00\n        /* \"#utility.yul\":14689:14695   */\n      dup3\n        /* \"#utility.yul\":14685:14699   */\n      add\n        /* \"#utility.yul\":14678:14736   */\n      mstore\n        /* \"#utility.yul\":14770:14785   */\n      0x6f7420766f746520616761696e00000000000000000000000000000000000000\n        /* \"#utility.yul\":14765:14767   */\n      0x20\n        /* \"#utility.yul\":14757:14763   */\n      dup3\n        /* \"#utility.yul\":14753:14768   */\n      add\n        /* \"#utility.yul\":14746:14786   */\n      mstore\n        /* \"#utility.yul\":14561:14793   */\n      pop\n      jump\t// out\n        /* \"#utility.yul\":14799:15034   */\n    tag_158:\n        /* \"#utility.yul\":14939:14973   */\n      0x596f7520726169736564207468697320636f6e666c6963742e20596f75206361\n        /* \"#utility.yul\":14935:14936   */\n      0x00\n        /* \"#utility.yul\":14927:14933   */\n      dup3\n        /* \"#utility.yul\":14923:14937   */\n      add\n        /* \"#utility.yul\":14916:14974   */\n      mstore\n        /* \"#utility.yul\":15008:15026   */\n      0x6e6e6f7420766f7465206f6e2069742e00000000000000000000000000000000\n        /* \"#utility.yul\":15003:15005   */\n      0x20\n        /* \"#utility.yul\":14995:15001   */\n      dup3\n        /* \"#utility.yul\":14991:15006   */\n      add\n        /* \"#utility.yul\":14984:15027   */\n      mstore\n        /* \"#utility.yul\":14799:15034   */\n      pop\n      jump\t// out\n        /* \"#utility.yul\":15040:15288   */\n    tag_163:\n        /* \"#utility.yul\":15180:15214   */\n      0x566f74696e6720686173206e6f74206265656e20636f6d706c65746564207965\n        /* \"#utility.yul\":15176:15177   */\n      0x00\n        /* \"#utility.yul\":15168:15174   */\n      dup3\n        /* \"#utility.yul\":15164:15178   */\n      add\n        /* \"#utility.yul\":15157:15215   */\n      mstore\n        /* \"#utility.yul\":15249:15280   */\n      0x742e20506c65617365207761697420666f7220697420746f20656e642e000000\n        /* \"#utility.yul\":15244:15246   */\n      0x20\n        /* \"#utility.yul\":15236:15242   */\n      dup3\n        /* \"#utility.yul\":15232:15247   */\n      add\n        /* \"#utility.yul\":15225:15281   */\n      mstore\n        /* \"#utility.yul\":15040:15288   */\n      pop\n      jump\t// out\n        /* \"#utility.yul\":15294:15592   */\n    tag_168:\n        /* \"#utility.yul\":15434:15468   */\n      0x4e6f742065766572796f6e652068617320766f7465642c20706c656173652070\n        /* \"#utility.yul\":15430:15431   */\n      0x00\n        /* \"#utility.yul\":15422:15428   */\n      dup3\n        /* \"#utility.yul\":15418:15432   */\n      add\n        /* \"#utility.yul\":15411:15469   */\n      mstore\n        /* \"#utility.yul\":15503:15537   */\n      0x726f6d707420616c6c206f74686572206d656d62657273206f662070726f6a65\n        /* \"#utility.yul\":15498:15500   */\n      0x20\n        /* \"#utility.yul\":15490:15496   */\n      dup3\n        /* \"#utility.yul\":15486:15501   */\n      add\n        /* \"#utility.yul\":15479:15538   */\n      mstore\n        /* \"#utility.yul\":15572:15584   */\n      0x637420746f20766f746500000000000000000000000000000000000000000000\n        /* \"#utility.yul\":15567:15569   */\n      0x40\n        /* \"#utility.yul\":15559:15565   */\n      dup3\n        /* \"#utility.yul\":15555:15570   */\n      add\n        /* \"#utility.yul\":15548:15585   */\n      mstore\n        /* \"#utility.yul\":15294:15592   */\n      pop\n      jump\t// out\n        /* \"#utility.yul\":15598:15842   */\n    tag_173:\n        /* \"#utility.yul\":15738:15772   */\n      0x596f752061726520696e766f6c76656420696e207468697320636f6e666c6963\n        /* \"#utility.yul\":15734:15735   */\n      0x00\n        /* \"#utility.yul\":15726:15732   */\n      dup3\n        /* \"#utility.yul\":15722:15736   */\n      add\n        /* \"#utility.yul\":15715:15773   */\n      mstore\n        /* \"#utility.yul\":15807:15834   */\n      0x742e20596f752063616e6e6f7420766f7465206f6e2069742e00000000000000\n        /* \"#utility.yul\":15802:15804   */\n      0x20\n        /* \"#utility.yul\":15794:15800   */\n      dup3\n        /* \"#utility.yul\":15790:15805   */\n      add\n        /* \"#utility.yul\":15783:15835   */\n      mstore\n        /* \"#utility.yul\":15598:15842   */\n      pop\n      jump\t// out\n        /* \"#utility.yul\":15848:16030   */\n    tag_178:\n        /* \"#utility.yul\":15988:16022   */\n      0x456e6f75676820766f7465732068617665206265656e20636f6c6c6563746564\n        /* \"#utility.yul\":15984:15985   */\n      0x00\n        /* \"#utility.yul\":15976:15982   */\n      dup3\n        /* \"#utility.yul\":15972:15986   */\n      add\n        /* \"#utility.yul\":15965:16023   */\n      mstore\n        /* \"#utility.yul\":15848:16030   */\n      pop\n      jump\t// out\n        /* \"#utility.yul\":16036:16337   */\n    tag_183:\n        /* \"#utility.yul\":16176:16210   */\n      0x436f6e666c6963742068617320616c7265616479206265656e20637265617465\n        /* \"#utility.yul\":16172:16173   */\n      0x00\n        /* \"#utility.yul\":16164:16170   */\n      dup3\n        /* \"#utility.yul\":16160:16174   */\n      add\n        /* \"#utility.yul\":16153:16211   */\n      mstore\n        /* \"#utility.yul\":16245:16279   */\n      0x642e20506c6561736520646f206e6f7420637265617465206d6f726520746861\n        /* \"#utility.yul\":16240:16242   */\n      0x20\n        /* \"#utility.yul\":16232:16238   */\n      dup3\n        /* \"#utility.yul\":16228:16243   */\n      add\n        /* \"#utility.yul\":16221:16280   */\n      mstore\n        /* \"#utility.yul\":16314:16329   */\n      0x6e203120636f6e666c6963742e00000000000000000000000000000000000000\n        /* \"#utility.yul\":16309:16311   */\n      0x40\n        /* \"#utility.yul\":16301:16307   */\n      dup3\n        /* \"#utility.yul\":16297:16312   */\n      add\n        /* \"#utility.yul\":16290:16330   */\n      mstore\n        /* \"#utility.yul\":16036:16337   */\n      pop\n      jump\t// out\n        /* \"#utility.yul\":16343:16464   */\n    tag_239:\n        /* \"#utility.yul\":16432:16433   */\n      0x03\n        /* \"#utility.yul\":16425:16430   */\n      dup2\n        /* \"#utility.yul\":16422:16434   */\n      lt\n        /* \"#utility.yul\":16412:16458   */\n      tag_264\n      jumpi\n        /* \"#utility.yul\":16438:16456   */\n      tag_265\n      tag_48\n      jump\t// in\n    tag_265:\n        /* \"#utility.yul\":16412:16458   */\n    tag_264:\n        /* \"#utility.yul\":16343:16464   */\n      pop\n      jump\t// out\n        /* \"#utility.yul\":16470:16592   */\n    tag_102:\n        /* \"#utility.yul\":16543:16567   */\n      tag_267\n        /* \"#utility.yul\":16561:16566   */\n      dup2\n        /* \"#utility.yul\":16543:16567   */\n      tag_138\n      jump\t// in\n    tag_267:\n        /* \"#utility.yul\":16536:16541   */\n      dup2\n        /* \"#utility.yul\":16533:16568   */\n      eq\n        /* \"#utility.yul\":16523:16586   */\n      tag_268\n      jumpi\n        /* \"#utility.yul\":16582:16583   */\n      0x00\n        /* \"#utility.yul\":16579:16580   */\n      dup1\n        /* \"#utility.yul\":16572:16584   */\n      revert\n        /* \"#utility.yul\":16523:16586   */\n    tag_268:\n        /* \"#utility.yul\":16470:16592   */\n      pop\n      jump\t// out\n        /* \"#utility.yul\":16598:16720   */\n    tag_106:\n        /* \"#utility.yul\":16671:16695   */\n      tag_270\n        /* \"#utility.yul\":16689:16694   */\n      dup2\n        /* \"#utility.yul\":16671:16695   */\n      tag_187\n      jump\t// in\n    tag_270:\n        /* \"#utility.yul\":16664:16669   */\n      dup2\n        /* \"#utility.yul\":16661:16696   */\n      eq\n        /* \"#utility.yul\":16651:16714   */\n      tag_271\n      jumpi\n        /* \"#utility.yul\":16710:16711   */\n      0x00\n        /* \"#utility.yul\":16707:16708   */\n      dup1\n        /* \"#utility.yul\":16700:16712   */\n      revert\n        /* \"#utility.yul\":16651:16714   */\n    tag_271:\n        /* \"#utility.yul\":16598:16720   */\n      pop\n      jump\t// out\n        /* \"#utility.yul\":16726:16844   */\n    tag_110:\n        /* \"#utility.yul\":16797:16819   */\n      tag_273\n        /* \"#utility.yul\":16813:16818   */\n      dup2\n        /* \"#utility.yul\":16797:16819   */\n      tag_191\n      jump\t// in\n    tag_273:\n        /* \"#utility.yul\":16790:16795   */\n      dup2\n        /* \"#utility.yul\":16787:16820   */\n      eq\n        /* \"#utility.yul\":16777:16838   */\n      tag_274\n      jumpi\n        /* \"#utility.yul\":16834:16835   */\n      0x00\n        /* \"#utility.yul\":16831:16832   */\n      dup1\n        /* \"#utility.yul\":16824:16836   */\n      revert\n        /* \"#utility.yul\":16777:16838   */\n    tag_274:\n        /* \"#utility.yul\":16726:16844   */\n      pop\n      jump\t// out\n\n    auxdata: 0xa26469706673582212202f63041d8803d1515c96e32844c845806d84b8d65da5faa597c6c608efe5993564736f6c63430008070033\n}\n",
				"bytecode": {
					"linkReferences": {},
					"object": "608060405234801561001057600080fd5b506115bf806100206000396000f3fe608060405234801561001057600080fd5b506004361061007d5760003560e01c80639ac788791161005b5780639ac78879146100fe578063c171bdf71461012e578063cb4389ce1461014a578063e3d877181461017a5761007d565b80630366cef2146100825780633c45fe31146100b257806371606fb0146100e2575b600080fd5b61009c60048036038101906100979190610c63565b6101aa565b6040516100a9919061102d565b60405180910390f35b6100cc60048036038101906100c79190610c63565b610357565b6040516100d9919061102d565b60405180910390f35b6100fc60048036038101906100f79190610cb6565b61039a565b005b61011860048036038101906101139190610c63565b6105d8565b604051610125919061102d565b60405180910390f35b61014860048036038101906101439190610d43565b61061b565b005b610164600480360381019061015f9190610c63565b610b91565b6040516101719190610f12565b60405180910390f35b610194600480360381019061018f9190610c63565b610be1565b6040516101a1919061102d565b60405180910390f35b6000806000858152602001908152602001600020600084815260200190815260200160002060008381526020019081526020016000206005015460008086815260200190815260200160002060008581526020019081526020016000206000848152602001908152602001600020600601541461025c576040517f08c379a000000000000000000000000000000000000000000000000000000000815260040161025390610fad565b60405180910390fd5b60028081111561026f5761026e611238565b5b6000808681526020019081526020016000206000858152602001908152602001600020600084815260200190815260200160002060040160149054906101000a900460ff1660028111156102c6576102c5611238565b5b14610306576040517f08c379a00000000000000000000000000000000000000000000000000000000081526004016102fd90610f8d565b60405180910390fd5b6000808581526020019081526020016000206000848152602001908152602001600020600083815260200190815260200160002060090160019054906101000a900460ff1660ff1690509392505050565b6000806000858152602001908152602001600020600084815260200190815260200160002060008381526020019081526020016000206006015490509392505050565b600115156000808881526020019081526020016000206000878152602001908152602001600020600086815260200190815260200160002060090160009054906101000a900460ff1615151415610426576040517f08c379a000000000000000000000000000000000000000000000000000000000815260040161041d9061100d565b60405180910390fd5b6000806000888152602001908152602001600020600087815260200190815260200160002060008681526020019081526020016000209050868160000181905550858160010181905550848160020181905550838160030160006101000a81548173ffffffffffffffffffffffffffffffffffffffff021916908373ffffffffffffffffffffffffffffffffffffffff160217905550828160040160006101000a81548173ffffffffffffffffffffffffffffffffffffffff021916908373ffffffffffffffffffffffffffffffffffffffff16021790555060018160040160146101000a81548160ff0219169083600281111561052757610526611238565b5b021790555081816005018190555060008160060181905550600081600701819055506000816008018190555060018160090160006101000a81548160ff02191690831515021790555060008160090160016101000a81548160ff021916908360ff1602179055507ffa127411522a1139d16c2142db999e127aef2288bd98a0558006bb115666ab1b8787878787876040516105c796959493929190611048565b60405180910390a150505050505050565b6000806000858152602001908152602001600020600084815260200190815260200160002060008381526020019081526020016000206008015490509392505050565b8173ffffffffffffffffffffffffffffffffffffffff166000808781526020019081526020016000206000868152602001908152602001600020600085815260200190815260200160002060030160009054906101000a900473ffffffffffffffffffffffffffffffffffffffff1673ffffffffffffffffffffffffffffffffffffffff1614156106e1576040517f08c379a00000000000000000000000000000000000000000000000000000000081526004016106d890610f6d565b60405180910390fd5b8173ffffffffffffffffffffffffffffffffffffffff166000808781526020019081526020016000206000868152602001908152602001600020600085815260200190815260200160002060040160009054906101000a900473ffffffffffffffffffffffffffffffffffffffff1673ffffffffffffffffffffffffffffffffffffffff1614156107a7576040517f08c379a000000000000000000000000000000000000000000000000000000000815260040161079e90610fcd565b60405180910390fd5b6000808681526020019081526020016000206000858152602001908152602001600020600084815260200190815260200160002060050154600080878152602001908152602001600020600086815260200190815260200160002060008581526020019081526020016000206006015410610857576040517f08c379a000000000000000000000000000000000000000000000000000000000815260040161084e90610fed565b60405180910390fd5b600080600087815260200190815260200160002060008681526020019081526020016000206000858152602001908152602001600020600a0160008473ffffffffffffffffffffffffffffffffffffffff1673ffffffffffffffffffffffffffffffffffffffff16815260200190815260200160002060009054906101000a900460ff1660ff161461091e576040517f08c379a000000000000000000000000000000000000000000000000000000000815260040161091590610f4d565b60405180910390fd5b60018160ff161480610933575060028160ff16145b610972576040517f08c379a000000000000000000000000000000000000000000000000000000000815260040161096990610f2d565b60405180910390fd5b60008060008781526020019081526020016000206000868152602001908152602001600020600085815260200190815260200160002090508181600a0160008573ffffffffffffffffffffffffffffffffffffffff1673ffffffffffffffffffffffffffffffffffffffff16815260200190815260200160002060006101000a81548160ff021916908360ff16021790555060018260ff161415610a2b57806007016000815480929190610a25906111c0565b91905055505b60028260ff161415610a5257806008016000815480929190610a4c906111c0565b91905055505b806006016000815480929190610a67906111c0565b91905055507f20211b974adbe11ce3687d51504ce7ef1fcfbb9c00405ba7aca7b283903f345a8686863386604051610aa39594939291906110a9565b60405180910390a1806005015481600601541415610b8957806007015481600801541115610aee5760028160090160016101000a81548160ff021916908360ff160217905550610b0d565b60018160090160016101000a81548160ff021916908360ff1602179055505b60028160040160146101000a81548160ff02191690836002811115610b3557610b34611238565b5b02179055507fe59fdbc65a5dd63c529717c2a71d04b136038f05301755de242dd05990c028148686868460090160019054906101000a900460ff16604051610b8094939291906110fc565b60405180910390a15b505050505050565b60008060008581526020019081526020016000206000848152602001908152602001600020600083815260200190815260200160002060040160149054906101000a900460ff1690509392505050565b6000806000858152602001908152602001600020600084815260200190815260200160002060008381526020019081526020016000206007015490509392505050565b600081359050610c3381611544565b92915050565b600081359050610c488161155b565b92915050565b600081359050610c5d81611572565b92915050565b600080600060608486031215610c7c57610c7b611267565b5b6000610c8a86828701610c39565b9350506020610c9b86828701610c39565b9250506040610cac86828701610c39565b9150509250925092565b60008060008060008060c08789031215610cd357610cd2611267565b5b6000610ce189828a01610c39565b9650506020610cf289828a01610c39565b9550506040610d0389828a01610c39565b9450506060610d1489828a01610c24565b9350506080610d2589828a01610c24565b92505060a0610d3689828a01610c39565b9150509295509295509295565b600080600080600060a08688031215610d5f57610d5e611267565b5b6000610d6d88828901610c39565b9550506020610d7e88828901610c39565b9450506040610d8f88828901610c39565b9350506060610da088828901610c24565b9250506080610db188828901610c4e565b9150509295509295909350565b610dc781611152565b82525050565b610dd6816111ae565b82525050565b6000610de9605783611141565b9150610df48261126c565b606082019050919050565b6000610e0c602d83611141565b9150610e17826112e1565b604082019050919050565b6000610e2f603083611141565b9150610e3a82611330565b604082019050919050565b6000610e52603d83611141565b9150610e5d8261137f565b604082019050919050565b6000610e75604a83611141565b9150610e80826113ce565b606082019050919050565b6000610e98603983611141565b9150610ea382611443565b604082019050919050565b6000610ebb602083611141565b9150610ec682611492565b602082019050919050565b6000610ede604d83611141565b9150610ee9826114bb565b606082019050919050565b610efd81611197565b82525050565b610f0c816111a1565b82525050565b6000602082019050610f276000830184610dcd565b92915050565b60006020820190508181036000830152610f4681610ddc565b9050919050565b60006020820190508181036000830152610f6681610dff565b9050919050565b60006020820190508181036000830152610f8681610e22565b9050919050565b60006020820190508181036000830152610fa681610e45565b9050919050565b60006020820190508181036000830152610fc681610e68565b9050919050565b60006020820190508181036000830152610fe681610e8b565b9050919050565b6000602082019050818103600083015261100681610eae565b9050919050565b6000602082019050818103600083015261102681610ed1565b9050919050565b60006020820190506110426000830184610ef4565b92915050565b600060c08201905061105d6000830189610ef4565b61106a6020830188610ef4565b6110776040830187610ef4565b6110846060830186610dbe565b6110916080830185610dbe565b61109e60a0830184610ef4565b979650505050505050565b600060a0820190506110be6000830188610ef4565b6110cb6020830187610ef4565b6110d86040830186610ef4565b6110e56060830185610dbe565b6110f26080830184610f03565b9695505050505050565b60006080820190506111116000830187610ef4565b61111e6020830186610ef4565b61112b6040830185610ef4565b6111386060830184610f03565b95945050505050565b600082825260208201905092915050565b600061115d82611177565b9050919050565b600081905061117282611530565b919050565b600073ffffffffffffffffffffffffffffffffffffffff82169050919050565b6000819050919050565b600060ff82169050919050565b60006111b982611164565b9050919050565b60006111cb82611197565b91507fffffffffffffffffffffffffffffffffffffffffffffffffffffffffffffffff8214156111fe576111fd611209565b5b600182019050919050565b7f4e487b7100000000000000000000000000000000000000000000000000000000600052601160045260246000fd5b7f4e487b7100000000000000000000000000000000000000000000000000000000600052602160045260246000fd5b600080fd5b7f596f752068617665206e6f7420696e707574206120726967687420766f74652e60008201527f20596f752063616e2065697468657220766f7465203120666f7220526571756560208201527f73746572206f72203220666f722050726f76696465722e000000000000000000604082015250565b7f596f75206861766520616c726561647920766f7465642c20796f752063616e6e60008201527f6f7420766f746520616761696e00000000000000000000000000000000000000602082015250565b7f596f7520726169736564207468697320636f6e666c6963742e20596f7520636160008201527f6e6e6f7420766f7465206f6e2069742e00000000000000000000000000000000602082015250565b7f566f74696e6720686173206e6f74206265656e20636f6d706c6574656420796560008201527f742e20506c65617365207761697420666f7220697420746f20656e642e000000602082015250565b7f4e6f742065766572796f6e652068617320766f7465642c20706c65617365207060008201527f726f6d707420616c6c206f74686572206d656d62657273206f662070726f6a6560208201527f637420746f20766f746500000000000000000000000000000000000000000000604082015250565b7f596f752061726520696e766f6c76656420696e207468697320636f6e666c696360008201527f742e20596f752063616e6e6f7420766f7465206f6e2069742e00000000000000602082015250565b7f456e6f75676820766f7465732068617665206265656e20636f6c6c6563746564600082015250565b7f436f6e666c6963742068617320616c7265616479206265656e2063726561746560008201527f642e20506c6561736520646f206e6f7420637265617465206d6f72652074686160208201527f6e203120636f6e666c6963742e00000000000000000000000000000000000000604082015250565b6003811061154157611540611238565b5b50565b61154d81611152565b811461155857600080fd5b50565b61156481611197565b811461156f57600080fd5b50565b61157b816111a1565b811461158657600080fd5b5056fea26469706673582212202f63041d8803d1515c96e32844c845806d84b8d65da5faa597c6c608efe5993564736f6c63430008070033",
					"opcodes": "PUSH1 0x80 PUSH1 0x40 MSTORE CALLVALUE DUP1 ISZERO PUSH2 0x10 JUMPI PUSH1 0x0 DUP1 REVERT JUMPDEST POP PUSH2 0x15BF DUP1 PUSH2 0x20 PUSH1 0x0 CODECOPY PUSH1 0x0 RETURN INVALID PUSH1 0x80 PUSH1 0x40 MSTORE CALLVALUE DUP1 ISZERO PUSH2 0x10 JUMPI PUSH1 0x0 DUP1 REVERT JUMPDEST POP PUSH1 0x4 CALLDATASIZE LT PUSH2 0x7D JUMPI PUSH1 0x0 CALLDATALOAD PUSH1 0xE0 SHR DUP1 PUSH4 0x9AC78879 GT PUSH2 0x5B JUMPI DUP1 PUSH4 0x9AC78879 EQ PUSH2 0xFE JUMPI DUP1 PUSH4 0xC171BDF7 EQ PUSH2 0x12E JUMPI DUP1 PUSH4 0xCB4389CE EQ PUSH2 0x14A JUMPI DUP1 PUSH4 0xE3D87718 EQ PUSH2 0x17A JUMPI PUSH2 0x7D JUMP JUMPDEST DUP1 PUSH4 0x366CEF2 EQ PUSH2 0x82 JUMPI DUP1 PUSH4 0x3C45FE31 EQ PUSH2 0xB2 JUMPI DUP1 PUSH4 0x71606FB0 EQ PUSH2 0xE2 JUMPI JUMPDEST PUSH1 0x0 DUP1 REVERT JUMPDEST PUSH2 0x9C PUSH1 0x4 DUP1 CALLDATASIZE SUB DUP2 ADD SWAP1 PUSH2 0x97 SWAP2 SWAP1 PUSH2 0xC63 JUMP JUMPDEST PUSH2 0x1AA JUMP JUMPDEST PUSH1 0x40 MLOAD PUSH2 0xA9 SWAP2 SWAP1 PUSH2 0x102D JUMP JUMPDEST PUSH1 0x40 MLOAD DUP1 SWAP2 SUB SWAP1 RETURN JUMPDEST PUSH2 0xCC PUSH1 0x4 DUP1 CALLDATASIZE SUB DUP2 ADD SWAP1 PUSH2 0xC7 SWAP2 SWAP1 PUSH2 0xC63 JUMP JUMPDEST PUSH2 0x357 JUMP JUMPDEST PUSH1 0x40 MLOAD PUSH2 0xD9 SWAP2 SWAP1 PUSH2 0x102D JUMP JUMPDEST PUSH1 0x40 MLOAD DUP1 SWAP2 SUB SWAP1 RETURN JUMPDEST PUSH2 0xFC PUSH1 0x4 DUP1 CALLDATASIZE SUB DUP2 ADD SWAP1 PUSH2 0xF7 SWAP2 SWAP1 PUSH2 0xCB6 JUMP JUMPDEST PUSH2 0x39A JUMP JUMPDEST STOP JUMPDEST PUSH2 0x118 PUSH1 0x4 DUP1 CALLDATASIZE SUB DUP2 ADD SWAP1 PUSH2 0x113 SWAP2 SWAP1 PUSH2 0xC63 JUMP JUMPDEST PUSH2 0x5D8 JUMP JUMPDEST PUSH1 0x40 MLOAD PUSH2 0x125 SWAP2 SWAP1 PUSH2 0x102D JUMP JUMPDEST PUSH1 0x40 MLOAD DUP1 SWAP2 SUB SWAP1 RETURN JUMPDEST PUSH2 0x148 PUSH1 0x4 DUP1 CALLDATASIZE SUB DUP2 ADD SWAP1 PUSH2 0x143 SWAP2 SWAP1 PUSH2 0xD43 JUMP JUMPDEST PUSH2 0x61B JUMP JUMPDEST STOP JUMPDEST PUSH2 0x164 PUSH1 0x4 DUP1 CALLDATASIZE SUB DUP2 ADD SWAP1 PUSH2 0x15F SWAP2 SWAP1 PUSH2 0xC63 JUMP JUMPDEST PUSH2 0xB91 JUMP JUMPDEST PUSH1 0x40 MLOAD PUSH2 0x171 SWAP2 SWAP1 PUSH2 0xF12 JUMP JUMPDEST PUSH1 0x40 MLOAD DUP1 SWAP2 SUB SWAP1 RETURN JUMPDEST PUSH2 0x194 PUSH1 0x4 DUP1 CALLDATASIZE SUB DUP2 ADD SWAP1 PUSH2 0x18F SWAP2 SWAP1 PUSH2 0xC63 JUMP JUMPDEST PUSH2 0xBE1 JUMP JUMPDEST PUSH1 0x40 MLOAD PUSH2 0x1A1 SWAP2 SWAP1 PUSH2 0x102D JUMP JUMPDEST PUSH1 0x40 MLOAD DUP1 SWAP2 SUB SWAP1 RETURN JUMPDEST PUSH1 0x0 DUP1 PUSH1 0x0 DUP6 DUP2 MSTORE PUSH1 0x20 ADD SWAP1 DUP2 MSTORE PUSH1 0x20 ADD PUSH1 0x0 KECCAK256 PUSH1 0x0 DUP5 DUP2 MSTORE PUSH1 0x20 ADD SWAP1 DUP2 MSTORE PUSH1 0x20 ADD PUSH1 0x0 KECCAK256 PUSH1 0x0 DUP4 DUP2 MSTORE PUSH1 0x20 ADD SWAP1 DUP2 MSTORE PUSH1 0x20 ADD PUSH1 0x0 KECCAK256 PUSH1 0x5 ADD SLOAD PUSH1 0x0 DUP1 DUP7 DUP2 MSTORE PUSH1 0x20 ADD SWAP1 DUP2 MSTORE PUSH1 0x20 ADD PUSH1 0x0 KECCAK256 PUSH1 0x0 DUP6 DUP2 MSTORE PUSH1 0x20 ADD SWAP1 DUP2 MSTORE PUSH1 0x20 ADD PUSH1 0x0 KECCAK256 PUSH1 0x0 DUP5 DUP2 MSTORE PUSH1 0x20 ADD SWAP1 DUP2 MSTORE PUSH1 0x20 ADD PUSH1 0x0 KECCAK256 PUSH1 0x6 ADD SLOAD EQ PUSH2 0x25C JUMPI PUSH1 0x40 MLOAD PUSH32 0x8C379A000000000000000000000000000000000000000000000000000000000 DUP2 MSTORE PUSH1 0x4 ADD PUSH2 0x253 SWAP1 PUSH2 0xFAD JUMP JUMPDEST PUSH1 0x40 MLOAD DUP1 SWAP2 SUB SWAP1 REVERT JUMPDEST PUSH1 0x2 DUP1 DUP2 GT ISZERO PUSH2 0x26F JUMPI PUSH2 0x26E PUSH2 0x1238 JUMP JUMPDEST JUMPDEST PUSH1 0x0 DUP1 DUP7 DUP2 MSTORE PUSH1 0x20 ADD SWAP1 DUP2 MSTORE PUSH1 0x20 ADD PUSH1 0x0 KECCAK256 PUSH1 0x0 DUP6 DUP2 MSTORE PUSH1 0x20 ADD SWAP1 DUP2 MSTORE PUSH1 0x20 ADD PUSH1 0x0 KECCAK256 PUSH1 0x0 DUP5 DUP2 MSTORE PUSH1 0x20 ADD SWAP1 DUP2 MSTORE PUSH1 0x20 ADD PUSH1 0x0 KECCAK256 PUSH1 0x4 ADD PUSH1 0x14 SWAP1 SLOAD SWAP1 PUSH2 0x100 EXP SWAP1 DIV PUSH1 0xFF AND PUSH1 0x2 DUP2 GT ISZERO PUSH2 0x2C6 JUMPI PUSH2 0x2C5 PUSH2 0x1238 JUMP JUMPDEST JUMPDEST EQ PUSH2 0x306 JUMPI PUSH1 0x40 MLOAD PUSH32 0x8C379A000000000000000000000000000000000000000000000000000000000 DUP2 MSTORE PUSH1 0x4 ADD PUSH2 0x2FD SWAP1 PUSH2 0xF8D JUMP JUMPDEST PUSH1 0x40 MLOAD DUP1 SWAP2 SUB SWAP1 REVERT JUMPDEST PUSH1 0x0 DUP1 DUP6 DUP2 MSTORE PUSH1 0x20 ADD SWAP1 DUP2 MSTORE PUSH1 0x20 ADD PUSH1 0x0 KECCAK256 PUSH1 0x0 DUP5 DUP2 MSTORE PUSH1 0x20 ADD SWAP1 DUP2 MSTORE PUSH1 0x20 ADD PUSH1 0x0 KECCAK256 PUSH1 0x0 DUP4 DUP2 MSTORE PUSH1 0x20 ADD SWAP1 DUP2 MSTORE PUSH1 0x20 ADD PUSH1 0x0 KECCAK256 PUSH1 0x9 ADD PUSH1 0x1 SWAP1 SLOAD SWAP1 PUSH2 0x100 EXP SWAP1 DIV PUSH1 0xFF AND PUSH1 0xFF AND SWAP1 POP SWAP4 SWAP3 POP POP POP JUMP JUMPDEST PUSH1 0x0 DUP1 PUSH1 0x0 DUP6 DUP2 MSTORE PUSH1 0x20 ADD SWAP1 DUP2 MSTORE PUSH1 0x20 ADD PUSH1 0x0 KECCAK256 PUSH1 0x0 DUP5 DUP2 MSTORE PUSH1 0x20 ADD SWAP1 DUP2 MSTORE PUSH1 0x20 ADD PUSH1 0x0 KECCAK256 PUSH1 0x0 DUP4 DUP2 MSTORE PUSH1 0x20 ADD SWAP1 DUP2 MSTORE PUSH1 0x20 ADD PUSH1 0x0 KECCAK256 PUSH1 0x6 ADD SLOAD SWAP1 POP SWAP4 SWAP3 POP POP POP JUMP JUMPDEST PUSH1 0x1 ISZERO ISZERO PUSH1 0x0 DUP1 DUP9 DUP2 MSTORE PUSH1 0x20 ADD SWAP1 DUP2 MSTORE PUSH1 0x20 ADD PUSH1 0x0 KECCAK256 PUSH1 0x0 DUP8 DUP2 MSTORE PUSH1 0x20 ADD SWAP1 DUP2 MSTORE PUSH1 0x20 ADD PUSH1 0x0 KECCAK256 PUSH1 0x0 DUP7 DUP2 MSTORE PUSH1 0x20 ADD SWAP1 DUP2 MSTORE PUSH1 0x20 ADD PUSH1 0x0 KECCAK256 PUSH1 0x9 ADD PUSH1 0x0 SWAP1 SLOAD SWAP1 PUSH2 0x100 EXP SWAP1 DIV PUSH1 0xFF AND ISZERO ISZERO EQ ISZERO PUSH2 0x426 JUMPI PUSH1 0x40 MLOAD PUSH32 0x8C379A000000000000000000000000000000000000000000000000000000000 DUP2 MSTORE PUSH1 0x4 ADD PUSH2 0x41D SWAP1 PUSH2 0x100D JUMP JUMPDEST PUSH1 0x40 MLOAD DUP1 SWAP2 SUB SWAP1 REVERT JUMPDEST PUSH1 0x0 DUP1 PUSH1 0x0 DUP9 DUP2 MSTORE PUSH1 0x20 ADD SWAP1 DUP2 MSTORE PUSH1 0x20 ADD PUSH1 0x0 KECCAK256 PUSH1 0x0 DUP8 DUP2 MSTORE PUSH1 0x20 ADD SWAP1 DUP2 MSTORE PUSH1 0x20 ADD PUSH1 0x0 KECCAK256 PUSH1 0x0 DUP7 DUP2 MSTORE PUSH1 0x20 ADD SWAP1 DUP2 MSTORE PUSH1 0x20 ADD PUSH1 0x0 KECCAK256 SWAP1 POP DUP7 DUP2 PUSH1 0x0 ADD DUP2 SWAP1 SSTORE POP DUP6 DUP2 PUSH1 0x1 ADD DUP2 SWAP1 SSTORE POP DUP5 DUP2 PUSH1 0x2 ADD DUP2 SWAP1 SSTORE POP DUP4 DUP2 PUSH1 0x3 ADD PUSH1 0x0 PUSH2 0x100 EXP DUP2 SLOAD DUP2 PUSH20 0xFFFFFFFFFFFFFFFFFFFFFFFFFFFFFFFFFFFFFFFF MUL NOT AND SWAP1 DUP4 PUSH20 0xFFFFFFFFFFFFFFFFFFFFFFFFFFFFFFFFFFFFFFFF AND MUL OR SWAP1 SSTORE POP DUP3 DUP2 PUSH1 0x4 ADD PUSH1 0x0 PUSH2 0x100 EXP DUP2 SLOAD DUP2 PUSH20 0xFFFFFFFFFFFFFFFFFFFFFFFFFFFFFFFFFFFFFFFF MUL NOT AND SWAP1 DUP4 PUSH20 0xFFFFFFFFFFFFFFFFFFFFFFFFFFFFFFFFFFFFFFFF AND MUL OR SWAP1 SSTORE POP PUSH1 0x1 DUP2 PUSH1 0x4 ADD PUSH1 0x14 PUSH2 0x100 EXP DUP2 SLOAD DUP2 PUSH1 0xFF MUL NOT AND SWAP1 DUP4 PUSH1 0x2 DUP2 GT ISZERO PUSH2 0x527 JUMPI PUSH2 0x526 PUSH2 0x1238 JUMP JUMPDEST JUMPDEST MUL OR SWAP1 SSTORE POP DUP2 DUP2 PUSH1 0x5 ADD DUP2 SWAP1 SSTORE POP PUSH1 0x0 DUP2 PUSH1 0x6 ADD DUP2 SWAP1 SSTORE POP PUSH1 0x0 DUP2 PUSH1 0x7 ADD DUP2 SWAP1 SSTORE POP PUSH1 0x0 DUP2 PUSH1 0x8 ADD DUP2 SWAP1 SSTORE POP PUSH1 0x1 DUP2 PUSH1 0x9 ADD PUSH1 0x0 PUSH2 0x100 EXP DUP2 SLOAD DUP2 PUSH1 0xFF MUL NOT AND SWAP1 DUP4 ISZERO ISZERO MUL OR SWAP1 SSTORE POP PUSH1 0x0 DUP2 PUSH1 0x9 ADD PUSH1 0x1 PUSH2 0x100 EXP DUP2 SLOAD DUP2 PUSH1 0xFF MUL NOT AND SWAP1 DUP4 PUSH1 0xFF AND MUL OR SWAP1 SSTORE POP PUSH32 0xFA127411522A1139D16C2142DB999E127AEF2288BD98A0558006BB115666AB1B DUP8 DUP8 DUP8 DUP8 DUP8 DUP8 PUSH1 0x40 MLOAD PUSH2 0x5C7 SWAP7 SWAP6 SWAP5 SWAP4 SWAP3 SWAP2 SWAP1 PUSH2 0x1048 JUMP JUMPDEST PUSH1 0x40 MLOAD DUP1 SWAP2 SUB SWAP1 LOG1 POP POP POP POP POP POP POP JUMP JUMPDEST PUSH1 0x0 DUP1 PUSH1 0x0 DUP6 DUP2 MSTORE PUSH1 0x20 ADD SWAP1 DUP2 MSTORE PUSH1 0x20 ADD PUSH1 0x0 KECCAK256 PUSH1 0x0 DUP5 DUP2 MSTORE PUSH1 0x20 ADD SWAP1 DUP2 MSTORE PUSH1 0x20 ADD PUSH1 0x0 KECCAK256 PUSH1 0x0 DUP4 DUP2 MSTORE PUSH1 0x20 ADD SWAP1 DUP2 MSTORE PUSH1 0x20 ADD PUSH1 0x0 KECCAK256 PUSH1 0x8 ADD SLOAD SWAP1 POP SWAP4 SWAP3 POP POP POP JUMP JUMPDEST DUP2 PUSH20 0xFFFFFFFFFFFFFFFFFFFFFFFFFFFFFFFFFFFFFFFF AND PUSH1 0x0 DUP1 DUP8 DUP2 MSTORE PUSH1 0x20 ADD SWAP1 DUP2 MSTORE PUSH1 0x20 ADD PUSH1 0x0 KECCAK256 PUSH1 0x0 DUP7 DUP2 MSTORE PUSH1 0x20 ADD SWAP1 DUP2 MSTORE PUSH1 0x20 ADD PUSH1 0x0 KECCAK256 PUSH1 0x0 DUP6 DUP2 MSTORE PUSH1 0x20 ADD SWAP1 DUP2 MSTORE PUSH1 0x20 ADD PUSH1 0x0 KECCAK256 PUSH1 0x3 ADD PUSH1 0x0 SWAP1 SLOAD SWAP1 PUSH2 0x100 EXP SWAP1 DIV PUSH20 0xFFFFFFFFFFFFFFFFFFFFFFFFFFFFFFFFFFFFFFFF AND PUSH20 0xFFFFFFFFFFFFFFFFFFFFFFFFFFFFFFFFFFFFFFFF AND EQ ISZERO PUSH2 0x6E1 JUMPI PUSH1 0x40 MLOAD PUSH32 0x8C379A000000000000000000000000000000000000000000000000000000000 DUP2 MSTORE PUSH1 0x4 ADD PUSH2 0x6D8 SWAP1 PUSH2 0xF6D JUMP JUMPDEST PUSH1 0x40 MLOAD DUP1 SWAP2 SUB SWAP1 REVERT JUMPDEST DUP2 PUSH20 0xFFFFFFFFFFFFFFFFFFFFFFFFFFFFFFFFFFFFFFFF AND PUSH1 0x0 DUP1 DUP8 DUP2 MSTORE PUSH1 0x20 ADD SWAP1 DUP2 MSTORE PUSH1 0x20 ADD PUSH1 0x0 KECCAK256 PUSH1 0x0 DUP7 DUP2 MSTORE PUSH1 0x20 ADD SWAP1 DUP2 MSTORE PUSH1 0x20 ADD PUSH1 0x0 KECCAK256 PUSH1 0x0 DUP6 DUP2 MSTORE PUSH1 0x20 ADD SWAP1 DUP2 MSTORE PUSH1 0x20 ADD PUSH1 0x0 KECCAK256 PUSH1 0x4 ADD PUSH1 0x0 SWAP1 SLOAD SWAP1 PUSH2 0x100 EXP SWAP1 DIV PUSH20 0xFFFFFFFFFFFFFFFFFFFFFFFFFFFFFFFFFFFFFFFF AND PUSH20 0xFFFFFFFFFFFFFFFFFFFFFFFFFFFFFFFFFFFFFFFF AND EQ ISZERO PUSH2 0x7A7 JUMPI PUSH1 0x40 MLOAD PUSH32 0x8C379A000000000000000000000000000000000000000000000000000000000 DUP2 MSTORE PUSH1 0x4 ADD PUSH2 0x79E SWAP1 PUSH2 0xFCD JUMP JUMPDEST PUSH1 0x40 MLOAD DUP1 SWAP2 SUB SWAP1 REVERT JUMPDEST PUSH1 0x0 DUP1 DUP7 DUP2 MSTORE PUSH1 0x20 ADD SWAP1 DUP2 MSTORE PUSH1 0x20 ADD PUSH1 0x0 KECCAK256 PUSH1 0x0 DUP6 DUP2 MSTORE PUSH1 0x20 ADD SWAP1 DUP2 MSTORE PUSH1 0x20 ADD PUSH1 0x0 KECCAK256 PUSH1 0x0 DUP5 DUP2 MSTORE PUSH1 0x20 ADD SWAP1 DUP2 MSTORE PUSH1 0x20 ADD PUSH1 0x0 KECCAK256 PUSH1 0x5 ADD SLOAD PUSH1 0x0 DUP1 DUP8 DUP2 MSTORE PUSH1 0x20 ADD SWAP1 DUP2 MSTORE PUSH1 0x20 ADD PUSH1 0x0 KECCAK256 PUSH1 0x0 DUP7 DUP2 MSTORE PUSH1 0x20 ADD SWAP1 DUP2 MSTORE PUSH1 0x20 ADD PUSH1 0x0 KECCAK256 PUSH1 0x0 DUP6 DUP2 MSTORE PUSH1 0x20 ADD SWAP1 DUP2 MSTORE PUSH1 0x20 ADD PUSH1 0x0 KECCAK256 PUSH1 0x6 ADD SLOAD LT PUSH2 0x857 JUMPI PUSH1 0x40 MLOAD PUSH32 0x8C379A000000000000000000000000000000000000000000000000000000000 DUP2 MSTORE PUSH1 0x4 ADD PUSH2 0x84E SWAP1 PUSH2 0xFED JUMP JUMPDEST PUSH1 0x40 MLOAD DUP1 SWAP2 SUB SWAP1 REVERT JUMPDEST PUSH1 0x0 DUP1 PUSH1 0x0 DUP8 DUP2 MSTORE PUSH1 0x20 ADD SWAP1 DUP2 MSTORE PUSH1 0x20 ADD PUSH1 0x0 KECCAK256 PUSH1 0x0 DUP7 DUP2 MSTORE PUSH1 0x20 ADD SWAP1 DUP2 MSTORE PUSH1 0x20 ADD PUSH1 0x0 KECCAK256 PUSH1 0x0 DUP6 DUP2 MSTORE PUSH1 0x20 ADD SWAP1 DUP2 MSTORE PUSH1 0x20 ADD PUSH1 0x0 KECCAK256 PUSH1 0xA ADD PUSH1 0x0 DUP5 PUSH20 0xFFFFFFFFFFFFFFFFFFFFFFFFFFFFFFFFFFFFFFFF AND PUSH20 0xFFFFFFFFFFFFFFFFFFFFFFFFFFFFFFFFFFFFFFFF AND DUP2 MSTORE PUSH1 0x20 ADD SWAP1 DUP2 MSTORE PUSH1 0x20 ADD PUSH1 0x0 KECCAK256 PUSH1 0x0 SWAP1 SLOAD SWAP1 PUSH2 0x100 EXP SWAP1 DIV PUSH1 0xFF AND PUSH1 0xFF AND EQ PUSH2 0x91E JUMPI PUSH1 0x40 MLOAD PUSH32 0x8C379A000000000000000000000000000000000000000000000000000000000 DUP2 MSTORE PUSH1 0x4 ADD PUSH2 0x915 SWAP1 PUSH2 0xF4D JUMP JUMPDEST PUSH1 0x40 MLOAD DUP1 SWAP2 SUB SWAP1 REVERT JUMPDEST PUSH1 0x1 DUP2 PUSH1 0xFF AND EQ DUP1 PUSH2 0x933 JUMPI POP PUSH1 0x2 DUP2 PUSH1 0xFF AND EQ JUMPDEST PUSH2 0x972 JUMPI PUSH1 0x40 MLOAD PUSH32 0x8C379A000000000000000000000000000000000000000000000000000000000 DUP2 MSTORE PUSH1 0x4 ADD PUSH2 0x969 SWAP1 PUSH2 0xF2D JUMP JUMPDEST PUSH1 0x40 MLOAD DUP1 SWAP2 SUB SWAP1 REVERT JUMPDEST PUSH1 0x0 DUP1 PUSH1 0x0 DUP8 DUP2 MSTORE PUSH1 0x20 ADD SWAP1 DUP2 MSTORE PUSH1 0x20 ADD PUSH1 0x0 KECCAK256 PUSH1 0x0 DUP7 DUP2 MSTORE PUSH1 0x20 ADD SWAP1 DUP2 MSTORE PUSH1 0x20 ADD PUSH1 0x0 KECCAK256 PUSH1 0x0 DUP6 DUP2 MSTORE PUSH1 0x20 ADD SWAP1 DUP2 MSTORE PUSH1 0x20 ADD PUSH1 0x0 KECCAK256 SWAP1 POP DUP2 DUP2 PUSH1 0xA ADD PUSH1 0x0 DUP6 PUSH20 0xFFFFFFFFFFFFFFFFFFFFFFFFFFFFFFFFFFFFFFFF AND PUSH20 0xFFFFFFFFFFFFFFFFFFFFFFFFFFFFFFFFFFFFFFFF AND DUP2 MSTORE PUSH1 0x20 ADD SWAP1 DUP2 MSTORE PUSH1 0x20 ADD PUSH1 0x0 KECCAK256 PUSH1 0x0 PUSH2 0x100 EXP DUP2 SLOAD DUP2 PUSH1 0xFF MUL NOT AND SWAP1 DUP4 PUSH1 0xFF AND MUL OR SWAP1 SSTORE POP PUSH1 0x1 DUP3 PUSH1 0xFF AND EQ ISZERO PUSH2 0xA2B JUMPI DUP1 PUSH1 0x7 ADD PUSH1 0x0 DUP2 SLOAD DUP1 SWAP3 SWAP2 SWAP1 PUSH2 0xA25 SWAP1 PUSH2 0x11C0 JUMP JUMPDEST SWAP2 SWAP1 POP SSTORE POP JUMPDEST PUSH1 0x2 DUP3 PUSH1 0xFF AND EQ ISZERO PUSH2 0xA52 JUMPI DUP1 PUSH1 0x8 ADD PUSH1 0x0 DUP2 SLOAD DUP1 SWAP3 SWAP2 SWAP1 PUSH2 0xA4C SWAP1 PUSH2 0x11C0 JUMP JUMPDEST SWAP2 SWAP1 POP SSTORE POP JUMPDEST DUP1 PUSH1 0x6 ADD PUSH1 0x0 DUP2 SLOAD DUP1 SWAP3 SWAP2 SWAP1 PUSH2 0xA67 SWAP1 PUSH2 0x11C0 JUMP JUMPDEST SWAP2 SWAP1 POP SSTORE POP PUSH32 0x20211B974ADBE11CE3687D51504CE7EF1FCFBB9C00405BA7ACA7B283903F345A DUP7 DUP7 DUP7 CALLER DUP7 PUSH1 0x40 MLOAD PUSH2 0xAA3 SWAP6 SWAP5 SWAP4 SWAP3 SWAP2 SWAP1 PUSH2 0x10A9 JUMP JUMPDEST PUSH1 0x40 MLOAD DUP1 SWAP2 SUB SWAP1 LOG1 DUP1 PUSH1 0x5 ADD SLOAD DUP2 PUSH1 0x6 ADD SLOAD EQ ISZERO PUSH2 0xB89 JUMPI DUP1 PUSH1 0x7 ADD SLOAD DUP2 PUSH1 0x8 ADD SLOAD GT ISZERO PUSH2 0xAEE JUMPI PUSH1 0x2 DUP2 PUSH1 0x9 ADD PUSH1 0x1 PUSH2 0x100 EXP DUP2 SLOAD DUP2 PUSH1 0xFF MUL NOT AND SWAP1 DUP4 PUSH1 0xFF AND MUL OR SWAP1 SSTORE POP PUSH2 0xB0D JUMP JUMPDEST PUSH1 0x1 DUP2 PUSH1 0x9 ADD PUSH1 0x1 PUSH2 0x100 EXP DUP2 SLOAD DUP2 PUSH1 0xFF MUL NOT AND SWAP1 DUP4 PUSH1 0xFF AND MUL OR SWAP1 SSTORE POP JUMPDEST PUSH1 0x2 DUP2 PUSH1 0x4 ADD PUSH1 0x14 PUSH2 0x100 EXP DUP2 SLOAD DUP2 PUSH1 0xFF MUL NOT AND SWAP1 DUP4 PUSH1 0x2 DUP2 GT ISZERO PUSH2 0xB35 JUMPI PUSH2 0xB34 PUSH2 0x1238 JUMP JUMPDEST JUMPDEST MUL OR SWAP1 SSTORE POP PUSH32 0xE59FDBC65A5DD63C529717C2A71D04B136038F05301755DE242DD05990C02814 DUP7 DUP7 DUP7 DUP5 PUSH1 0x9 ADD PUSH1 0x1 SWAP1 SLOAD SWAP1 PUSH2 0x100 EXP SWAP1 DIV PUSH1 0xFF AND PUSH1 0x40 MLOAD PUSH2 0xB80 SWAP5 SWAP4 SWAP3 SWAP2 SWAP1 PUSH2 0x10FC JUMP JUMPDEST PUSH1 0x40 MLOAD DUP1 SWAP2 SUB SWAP1 LOG1 JUMPDEST POP POP POP POP POP POP JUMP JUMPDEST PUSH1 0x0 DUP1 PUSH1 0x0 DUP6 DUP2 MSTORE PUSH1 0x20 ADD SWAP1 DUP2 MSTORE PUSH1 0x20 ADD PUSH1 0x0 KECCAK256 PUSH1 0x0 DUP5 DUP2 MSTORE PUSH1 0x20 ADD SWAP1 DUP2 MSTORE PUSH1 0x20 ADD PUSH1 0x0 KECCAK256 PUSH1 0x0 DUP4 DUP2 MSTORE PUSH1 0x20 ADD SWAP1 DUP2 MSTORE PUSH1 0x20 ADD PUSH1 0x0 KECCAK256 PUSH1 0x4 ADD PUSH1 0x14 SWAP1 SLOAD SWAP1 PUSH2 0x100 EXP SWAP1 DIV PUSH1 0xFF AND SWAP1 POP SWAP4 SWAP3 POP POP POP JUMP JUMPDEST PUSH1 0x0 DUP1 PUSH1 0x0 DUP6 DUP2 MSTORE PUSH1 0x20 ADD SWAP1 DUP2 MSTORE PUSH1 0x20 ADD PUSH1 0x0 KECCAK256 PUSH1 0x0 DUP5 DUP2 MSTORE PUSH1 0x20 ADD SWAP1 DUP2 MSTORE PUSH1 0x20 ADD PUSH1 0x0 KECCAK256 PUSH1 0x0 DUP4 DUP2 MSTORE PUSH1 0x20 ADD SWAP1 DUP2 MSTORE PUSH1 0x20 ADD PUSH1 0x0 KECCAK256 PUSH1 0x7 ADD SLOAD SWAP1 POP SWAP4 SWAP3 POP POP POP JUMP JUMPDEST PUSH1 0x0 DUP2 CALLDATALOAD SWAP1 POP PUSH2 0xC33 DUP2 PUSH2 0x1544 JUMP JUMPDEST SWAP3 SWAP2 POP POP JUMP JUMPDEST PUSH1 0x0 DUP2 CALLDATALOAD SWAP1 POP PUSH2 0xC48 DUP2 PUSH2 0x155B JUMP JUMPDEST SWAP3 SWAP2 POP POP JUMP JUMPDEST PUSH1 0x0 DUP2 CALLDATALOAD SWAP1 POP PUSH2 0xC5D DUP2 PUSH2 0x1572 JUMP JUMPDEST SWAP3 SWAP2 POP POP JUMP JUMPDEST PUSH1 0x0 DUP1 PUSH1 0x0 PUSH1 0x60 DUP5 DUP7 SUB SLT ISZERO PUSH2 0xC7C JUMPI PUSH2 0xC7B PUSH2 0x1267 JUMP JUMPDEST JUMPDEST PUSH1 0x0 PUSH2 0xC8A DUP7 DUP3 DUP8 ADD PUSH2 0xC39 JUMP JUMPDEST SWAP4 POP POP PUSH1 0x20 PUSH2 0xC9B DUP7 DUP3 DUP8 ADD PUSH2 0xC39 JUMP JUMPDEST SWAP3 POP POP PUSH1 0x40 PUSH2 0xCAC DUP7 DUP3 DUP8 ADD PUSH2 0xC39 JUMP JUMPDEST SWAP2 POP POP SWAP3 POP SWAP3 POP SWAP3 JUMP JUMPDEST PUSH1 0x0 DUP1 PUSH1 0x0 DUP1 PUSH1 0x0 DUP1 PUSH1 0xC0 DUP8 DUP10 SUB SLT ISZERO PUSH2 0xCD3 JUMPI PUSH2 0xCD2 PUSH2 0x1267 JUMP JUMPDEST JUMPDEST PUSH1 0x0 PUSH2 0xCE1 DUP10 DUP3 DUP11 ADD PUSH2 0xC39 JUMP JUMPDEST SWAP7 POP POP PUSH1 0x20 PUSH2 0xCF2 DUP10 DUP3 DUP11 ADD PUSH2 0xC39 JUMP JUMPDEST SWAP6 POP POP PUSH1 0x40 PUSH2 0xD03 DUP10 DUP3 DUP11 ADD PUSH2 0xC39 JUMP JUMPDEST SWAP5 POP POP PUSH1 0x60 PUSH2 0xD14 DUP10 DUP3 DUP11 ADD PUSH2 0xC24 JUMP JUMPDEST SWAP4 POP POP PUSH1 0x80 PUSH2 0xD25 DUP10 DUP3 DUP11 ADD PUSH2 0xC24 JUMP JUMPDEST SWAP3 POP POP PUSH1 0xA0 PUSH2 0xD36 DUP10 DUP3 DUP11 ADD PUSH2 0xC39 JUMP JUMPDEST SWAP2 POP POP SWAP3 SWAP6 POP SWAP3 SWAP6 POP SWAP3 SWAP6 JUMP JUMPDEST PUSH1 0x0 DUP1 PUSH1 0x0 DUP1 PUSH1 0x0 PUSH1 0xA0 DUP7 DUP9 SUB SLT ISZERO PUSH2 0xD5F JUMPI PUSH2 0xD5E PUSH2 0x1267 JUMP JUMPDEST JUMPDEST PUSH1 0x0 PUSH2 0xD6D DUP9 DUP3 DUP10 ADD PUSH2 0xC39 JUMP JUMPDEST SWAP6 POP POP PUSH1 0x20 PUSH2 0xD7E DUP9 DUP3 DUP10 ADD PUSH2 0xC39 JUMP JUMPDEST SWAP5 POP POP PUSH1 0x40 PUSH2 0xD8F DUP9 DUP3 DUP10 ADD PUSH2 0xC39 JUMP JUMPDEST SWAP4 POP POP PUSH1 0x60 PUSH2 0xDA0 DUP9 DUP3 DUP10 ADD PUSH2 0xC24 JUMP JUMPDEST SWAP3 POP POP PUSH1 0x80 PUSH2 0xDB1 DUP9 DUP3 DUP10 ADD PUSH2 0xC4E JUMP JUMPDEST SWAP2 POP POP SWAP3 SWAP6 POP SWAP3 SWAP6 SWAP1 SWAP4 POP JUMP JUMPDEST PUSH2 0xDC7 DUP2 PUSH2 0x1152 JUMP JUMPDEST DUP3 MSTORE POP POP JUMP JUMPDEST PUSH2 0xDD6 DUP2 PUSH2 0x11AE JUMP JUMPDEST DUP3 MSTORE POP POP JUMP JUMPDEST PUSH1 0x0 PUSH2 0xDE9 PUSH1 0x57 DUP4 PUSH2 0x1141 JUMP JUMPDEST SWAP2 POP PUSH2 0xDF4 DUP3 PUSH2 0x126C JUMP JUMPDEST PUSH1 0x60 DUP3 ADD SWAP1 POP SWAP2 SWAP1 POP JUMP JUMPDEST PUSH1 0x0 PUSH2 0xE0C PUSH1 0x2D DUP4 PUSH2 0x1141 JUMP JUMPDEST SWAP2 POP PUSH2 0xE17 DUP3 PUSH2 0x12E1 JUMP JUMPDEST PUSH1 0x40 DUP3 ADD SWAP1 POP SWAP2 SWAP1 POP JUMP JUMPDEST PUSH1 0x0 PUSH2 0xE2F PUSH1 0x30 DUP4 PUSH2 0x1141 JUMP JUMPDEST SWAP2 POP PUSH2 0xE3A DUP3 PUSH2 0x1330 JUMP JUMPDEST PUSH1 0x40 DUP3 ADD SWAP1 POP SWAP2 SWAP1 POP JUMP JUMPDEST PUSH1 0x0 PUSH2 0xE52 PUSH1 0x3D DUP4 PUSH2 0x1141 JUMP JUMPDEST SWAP2 POP PUSH2 0xE5D DUP3 PUSH2 0x137F JUMP JUMPDEST PUSH1 0x40 DUP3 ADD SWAP1 POP SWAP2 SWAP1 POP JUMP JUMPDEST PUSH1 0x0 PUSH2 0xE75 PUSH1 0x4A DUP4 PUSH2 0x1141 JUMP JUMPDEST SWAP2 POP PUSH2 0xE80 DUP3 PUSH2 0x13CE JUMP JUMPDEST PUSH1 0x60 DUP3 ADD SWAP1 POP SWAP2 SWAP1 POP JUMP JUMPDEST PUSH1 0x0 PUSH2 0xE98 PUSH1 0x39 DUP4 PUSH2 0x1141 JUMP JUMPDEST SWAP2 POP PUSH2 0xEA3 DUP3 PUSH2 0x1443 JUMP JUMPDEST PUSH1 0x40 DUP3 ADD SWAP1 POP SWAP2 SWAP1 POP JUMP JUMPDEST PUSH1 0x0 PUSH2 0xEBB PUSH1 0x20 DUP4 PUSH2 0x1141 JUMP JUMPDEST SWAP2 POP PUSH2 0xEC6 DUP3 PUSH2 0x1492 JUMP JUMPDEST PUSH1 0x20 DUP3 ADD SWAP1 POP SWAP2 SWAP1 POP JUMP JUMPDEST PUSH1 0x0 PUSH2 0xEDE PUSH1 0x4D DUP4 PUSH2 0x1141 JUMP JUMPDEST SWAP2 POP PUSH2 0xEE9 DUP3 PUSH2 0x14BB JUMP JUMPDEST PUSH1 0x60 DUP3 ADD SWAP1 POP SWAP2 SWAP1 POP JUMP JUMPDEST PUSH2 0xEFD DUP2 PUSH2 0x1197 JUMP JUMPDEST DUP3 MSTORE POP POP JUMP JUMPDEST PUSH2 0xF0C DUP2 PUSH2 0x11A1 JUMP JUMPDEST DUP3 MSTORE POP POP JUMP JUMPDEST PUSH1 0x0 PUSH1 0x20 DUP3 ADD SWAP1 POP PUSH2 0xF27 PUSH1 0x0 DUP4 ADD DUP5 PUSH2 0xDCD JUMP JUMPDEST SWAP3 SWAP2 POP POP JUMP JUMPDEST PUSH1 0x0 PUSH1 0x20 DUP3 ADD SWAP1 POP DUP2 DUP2 SUB PUSH1 0x0 DUP4 ADD MSTORE PUSH2 0xF46 DUP2 PUSH2 0xDDC JUMP JUMPDEST SWAP1 POP SWAP2 SWAP1 POP JUMP JUMPDEST PUSH1 0x0 PUSH1 0x20 DUP3 ADD SWAP1 POP DUP2 DUP2 SUB PUSH1 0x0 DUP4 ADD MSTORE PUSH2 0xF66 DUP2 PUSH2 0xDFF JUMP JUMPDEST SWAP1 POP SWAP2 SWAP1 POP JUMP JUMPDEST PUSH1 0x0 PUSH1 0x20 DUP3 ADD SWAP1 POP DUP2 DUP2 SUB PUSH1 0x0 DUP4 ADD MSTORE PUSH2 0xF86 DUP2 PUSH2 0xE22 JUMP JUMPDEST SWAP1 POP SWAP2 SWAP1 POP JUMP JUMPDEST PUSH1 0x0 PUSH1 0x20 DUP3 ADD SWAP1 POP DUP2 DUP2 SUB PUSH1 0x0 DUP4 ADD MSTORE PUSH2 0xFA6 DUP2 PUSH2 0xE45 JUMP JUMPDEST SWAP1 POP SWAP2 SWAP1 POP JUMP JUMPDEST PUSH1 0x0 PUSH1 0x20 DUP3 ADD SWAP1 POP DUP2 DUP2 SUB PUSH1 0x0 DUP4 ADD MSTORE PUSH2 0xFC6 DUP2 PUSH2 0xE68 JUMP JUMPDEST SWAP1 POP SWAP2 SWAP1 POP JUMP JUMPDEST PUSH1 0x0 PUSH1 0x20 DUP3 ADD SWAP1 POP DUP2 DUP2 SUB PUSH1 0x0 DUP4 ADD MSTORE PUSH2 0xFE6 DUP2 PUSH2 0xE8B JUMP JUMPDEST SWAP1 POP SWAP2 SWAP1 POP JUMP JUMPDEST PUSH1 0x0 PUSH1 0x20 DUP3 ADD SWAP1 POP DUP2 DUP2 SUB PUSH1 0x0 DUP4 ADD MSTORE PUSH2 0x1006 DUP2 PUSH2 0xEAE JUMP JUMPDEST SWAP1 POP SWAP2 SWAP1 POP JUMP JUMPDEST PUSH1 0x0 PUSH1 0x20 DUP3 ADD SWAP1 POP DUP2 DUP2 SUB PUSH1 0x0 DUP4 ADD MSTORE PUSH2 0x1026 DUP2 PUSH2 0xED1 JUMP JUMPDEST SWAP1 POP SWAP2 SWAP1 POP JUMP JUMPDEST PUSH1 0x0 PUSH1 0x20 DUP3 ADD SWAP1 POP PUSH2 0x1042 PUSH1 0x0 DUP4 ADD DUP5 PUSH2 0xEF4 JUMP JUMPDEST SWAP3 SWAP2 POP POP JUMP JUMPDEST PUSH1 0x0 PUSH1 0xC0 DUP3 ADD SWAP1 POP PUSH2 0x105D PUSH1 0x0 DUP4 ADD DUP10 PUSH2 0xEF4 JUMP JUMPDEST PUSH2 0x106A PUSH1 0x20 DUP4 ADD DUP9 PUSH2 0xEF4 JUMP JUMPDEST PUSH2 0x1077 PUSH1 0x40 DUP4 ADD DUP8 PUSH2 0xEF4 JUMP JUMPDEST PUSH2 0x1084 PUSH1 0x60 DUP4 ADD DUP7 PUSH2 0xDBE JUMP JUMPDEST PUSH2 0x1091 PUSH1 0x80 DUP4 ADD DUP6 PUSH2 0xDBE JUMP JUMPDEST PUSH2 0x109E PUSH1 0xA0 DUP4 ADD DUP5 PUSH2 0xEF4 JUMP JUMPDEST SWAP8 SWAP7 POP POP POP POP POP POP POP JUMP JUMPDEST PUSH1 0x0 PUSH1 0xA0 DUP3 ADD SWAP1 POP PUSH2 0x10BE PUSH1 0x0 DUP4 ADD DUP9 PUSH2 0xEF4 JUMP JUMPDEST PUSH2 0x10CB PUSH1 0x20 DUP4 ADD DUP8 PUSH2 0xEF4 JUMP JUMPDEST PUSH2 0x10D8 PUSH1 0x40 DUP4 ADD DUP7 PUSH2 0xEF4 JUMP JUMPDEST PUSH2 0x10E5 PUSH1 0x60 DUP4 ADD DUP6 PUSH2 0xDBE JUMP JUMPDEST PUSH2 0x10F2 PUSH1 0x80 DUP4 ADD DUP5 PUSH2 0xF03 JUMP JUMPDEST SWAP7 SWAP6 POP POP POP POP POP POP JUMP JUMPDEST PUSH1 0x0 PUSH1 0x80 DUP3 ADD SWAP1 POP PUSH2 0x1111 PUSH1 0x0 DUP4 ADD DUP8 PUSH2 0xEF4 JUMP JUMPDEST PUSH2 0x111E PUSH1 0x20 DUP4 ADD DUP7 PUSH2 0xEF4 JUMP JUMPDEST PUSH2 0x112B PUSH1 0x40 DUP4 ADD DUP6 PUSH2 0xEF4 JUMP JUMPDEST PUSH2 0x1138 PUSH1 0x60 DUP4 ADD DUP5 PUSH2 0xF03 JUMP JUMPDEST SWAP6 SWAP5 POP POP POP POP POP JUMP JUMPDEST PUSH1 0x0 DUP3 DUP3 MSTORE PUSH1 0x20 DUP3 ADD SWAP1 POP SWAP3 SWAP2 POP POP JUMP JUMPDEST PUSH1 0x0 PUSH2 0x115D DUP3 PUSH2 0x1177 JUMP JUMPDEST SWAP1 POP SWAP2 SWAP1 POP JUMP JUMPDEST PUSH1 0x0 DUP2 SWAP1 POP PUSH2 0x1172 DUP3 PUSH2 0x1530 JUMP JUMPDEST SWAP2 SWAP1 POP JUMP JUMPDEST PUSH1 0x0 PUSH20 0xFFFFFFFFFFFFFFFFFFFFFFFFFFFFFFFFFFFFFFFF DUP3 AND SWAP1 POP SWAP2 SWAP1 POP JUMP JUMPDEST PUSH1 0x0 DUP2 SWAP1 POP SWAP2 SWAP1 POP JUMP JUMPDEST PUSH1 0x0 PUSH1 0xFF DUP3 AND SWAP1 POP SWAP2 SWAP1 POP JUMP JUMPDEST PUSH1 0x0 PUSH2 0x11B9 DUP3 PUSH2 0x1164 JUMP JUMPDEST SWAP1 POP SWAP2 SWAP1 POP JUMP JUMPDEST PUSH1 0x0 PUSH2 0x11CB DUP3 PUSH2 0x1197 JUMP JUMPDEST SWAP2 POP PUSH32 0xFFFFFFFFFFFFFFFFFFFFFFFFFFFFFFFFFFFFFFFFFFFFFFFFFFFFFFFFFFFFFFFF DUP3 EQ ISZERO PUSH2 0x11FE JUMPI PUSH2 0x11FD PUSH2 0x1209 JUMP JUMPDEST JUMPDEST PUSH1 0x1 DUP3 ADD SWAP1 POP SWAP2 SWAP1 POP JUMP JUMPDEST PUSH32 0x4E487B7100000000000000000000000000000000000000000000000000000000 PUSH1 0x0 MSTORE PUSH1 0x11 PUSH1 0x4 MSTORE PUSH1 0x24 PUSH1 0x0 REVERT JUMPDEST PUSH32 0x4E487B7100000000000000000000000000000000000000000000000000000000 PUSH1 0x0 MSTORE PUSH1 0x21 PUSH1 0x4 MSTORE PUSH1 0x24 PUSH1 0x0 REVERT JUMPDEST PUSH1 0x0 DUP1 REVERT JUMPDEST PUSH32 0x596F752068617665206E6F7420696E707574206120726967687420766F74652E PUSH1 0x0 DUP3 ADD MSTORE PUSH32 0x20596F752063616E2065697468657220766F7465203120666F72205265717565 PUSH1 0x20 DUP3 ADD MSTORE PUSH32 0x73746572206F72203220666F722050726F76696465722E000000000000000000 PUSH1 0x40 DUP3 ADD MSTORE POP JUMP JUMPDEST PUSH32 0x596F75206861766520616C726561647920766F7465642C20796F752063616E6E PUSH1 0x0 DUP3 ADD MSTORE PUSH32 0x6F7420766F746520616761696E00000000000000000000000000000000000000 PUSH1 0x20 DUP3 ADD MSTORE POP JUMP JUMPDEST PUSH32 0x596F7520726169736564207468697320636F6E666C6963742E20596F75206361 PUSH1 0x0 DUP3 ADD MSTORE PUSH32 0x6E6E6F7420766F7465206F6E2069742E00000000000000000000000000000000 PUSH1 0x20 DUP3 ADD MSTORE POP JUMP JUMPDEST PUSH32 0x566F74696E6720686173206E6F74206265656E20636F6D706C65746564207965 PUSH1 0x0 DUP3 ADD MSTORE PUSH32 0x742E20506C65617365207761697420666F7220697420746F20656E642E000000 PUSH1 0x20 DUP3 ADD MSTORE POP JUMP JUMPDEST PUSH32 0x4E6F742065766572796F6E652068617320766F7465642C20706C656173652070 PUSH1 0x0 DUP3 ADD MSTORE PUSH32 0x726F6D707420616C6C206F74686572206D656D62657273206F662070726F6A65 PUSH1 0x20 DUP3 ADD MSTORE PUSH32 0x637420746F20766F746500000000000000000000000000000000000000000000 PUSH1 0x40 DUP3 ADD MSTORE POP JUMP JUMPDEST PUSH32 0x596F752061726520696E766F6C76656420696E207468697320636F6E666C6963 PUSH1 0x0 DUP3 ADD MSTORE PUSH32 0x742E20596F752063616E6E6F7420766F7465206F6E2069742E00000000000000 PUSH1 0x20 DUP3 ADD MSTORE POP JUMP JUMPDEST PUSH32 0x456E6F75676820766F7465732068617665206265656E20636F6C6C6563746564 PUSH1 0x0 DUP3 ADD MSTORE POP JUMP JUMPDEST PUSH32 0x436F6E666C6963742068617320616C7265616479206265656E20637265617465 PUSH1 0x0 DUP3 ADD MSTORE PUSH32 0x642E20506C6561736520646F206E6F7420637265617465206D6F726520746861 PUSH1 0x20 DUP3 ADD MSTORE PUSH32 0x6E203120636F6E666C6963742E00000000000000000000000000000000000000 PUSH1 0x40 DUP3 ADD MSTORE POP JUMP JUMPDEST PUSH1 0x3 DUP2 LT PUSH2 0x1541 JUMPI PUSH2 0x1540 PUSH2 0x1238 JUMP JUMPDEST JUMPDEST POP JUMP JUMPDEST PUSH2 0x154D DUP2 PUSH2 0x1152 JUMP JUMPDEST DUP2 EQ PUSH2 0x1558 JUMPI PUSH1 0x0 DUP1 REVERT JUMPDEST POP JUMP JUMPDEST PUSH2 0x1564 DUP2 PUSH2 0x1197 JUMP JUMPDEST DUP2 EQ PUSH2 0x156F JUMPI PUSH1 0x0 DUP1 REVERT JUMPDEST POP JUMP JUMPDEST PUSH2 0x157B DUP2 PUSH2 0x11A1 JUMP JUMPDEST DUP2 EQ PUSH2 0x1586 JUMPI PUSH1 0x0 DUP1 REVERT JUMPDEST POP JUMP INVALID LOG2 PUSH5 0x6970667358 0x22 SLT KECCAK256 0x2F PUSH4 0x41D8803 0xD1 MLOAD 0x5C SWAP7 0xE3 0x28 DIFFICULTY 0xC8 GASLIMIT DUP1 PUSH14 0x84B8D65DA5FAA597C6C608EFE599 CALLDATALOAD PUSH5 0x736F6C6343 STOP ADDMOD SMOD STOP CALLER "
				},
				"gasEstimates": {
					"creation": {
						"codeDepositCost": "1113400",
						"executionCost": "1154",
						"totalCost": "1114554"
					},
					"external": {
						"createConflict(uint256,uint256,uint256,address,address,uint256)": "infinite",
						"getConflictStatus(uint256,uint256,uint256)": "infinite",
						"getResults(uint256,uint256,uint256)": "infinite",
						"getVotesCollected(uint256,uint256,uint256)": "infinite",
						"getVotesforProvider(uint256,uint256,uint256)": "infinite",
						"getVotesforRequester(uint256,uint256,uint256)": "infinite",
						"voteConflict(uint256,uint256,uint256,address,uint8)": "infinite"
					}
				},
				"methodIdentifiers": {
					"createConflict(uint256,uint256,uint256,address,address,uint256)": "71606fb0",
					"getConflictStatus(uint256,uint256,uint256)": "cb4389ce",
					"getResults(uint256,uint256,uint256)": "0366cef2",
					"getVotesCollected(uint256,uint256,uint256)": "3c45fe31",
					"getVotesforProvider(uint256,uint256,uint256)": "9ac78879",
					"getVotesforRequester(uint256,uint256,uint256)": "e3d87718",
					"voteConflict(uint256,uint256,uint256,address,uint8)": "c171bdf7"
				}
			},
			"userdoc": {
				"kind": "user",
				"methods": {},
				"version": 1
			}
		}
	}
}