{
	"contracts/Milestone.sol": {
		"Milestone": {
			"abi": [
				{
					"anonymous": false,
					"inputs": [
						{
							"indexed": false,
							"internalType": "uint256",
							"name": "serviceNumber",
							"type": "uint256"
						},
						{
							"indexed": false,
							"internalType": "uint256",
							"name": "milestoneNumber",
							"type": "uint256"
						}
					],
					"name": "milestoneCompleted",
					"type": "event"
				},
				{
					"anonymous": false,
					"inputs": [
						{
							"indexed": false,
							"internalType": "uint256",
							"name": "serviceNumber",
							"type": "uint256"
						},
						{
							"components": [
								{
									"internalType": "string",
									"name": "milestoneTitle",
									"type": "string"
								},
								{
									"internalType": "string",
									"name": "milestoneDescription",
									"type": "string"
								},
								{
									"internalType": "enum Milestone.Status",
									"name": "status",
									"type": "uint8"
								}
							],
							"indexed": false,
							"internalType": "struct Milestone.milestone",
							"name": "newMilestone",
							"type": "tuple"
						},
						{
							"indexed": false,
							"internalType": "uint256",
							"name": "numMilestones",
							"type": "uint256"
						}
					],
					"name": "milestoneCreated",
					"type": "event"
				},
				{
					"anonymous": false,
					"inputs": [
						{
							"indexed": false,
							"internalType": "uint256",
							"name": "serviceNumber",
							"type": "uint256"
						},
						{
							"indexed": false,
							"internalType": "uint256",
							"name": "milestoneNumber",
							"type": "uint256"
						},
						{
							"components": [
								{
									"internalType": "string",
									"name": "milestoneTitle",
									"type": "string"
								},
								{
									"internalType": "string",
									"name": "milestoneDescription",
									"type": "string"
								},
								{
									"internalType": "enum Milestone.Status",
									"name": "status",
									"type": "uint8"
								}
							],
							"indexed": false,
							"internalType": "struct Milestone.milestone",
							"name": "milestoneDeleted",
							"type": "tuple"
						},
						{
							"indexed": false,
							"internalType": "uint256",
							"name": "numMilestones",
							"type": "uint256"
						}
					],
					"name": "milestoneDeleted",
					"type": "event"
				},
				{
					"anonymous": false,
					"inputs": [
						{
							"indexed": false,
							"internalType": "uint256",
							"name": "serviceNumber",
							"type": "uint256"
						},
						{
							"indexed": false,
							"internalType": "uint256",
							"name": "milestoneNumber",
							"type": "uint256"
						},
						{
							"indexed": false,
							"internalType": "enum Milestone.Status",
							"name": "statusBefore",
							"type": "uint8"
						},
						{
							"indexed": false,
							"internalType": "enum Milestone.Status",
							"name": "statusAfter",
							"type": "uint8"
						}
					],
					"name": "milestoneStatusChanged",
					"type": "event"
				},
				{
					"anonymous": false,
					"inputs": [
						{
							"indexed": false,
							"internalType": "uint256",
							"name": "serviceNumber",
							"type": "uint256"
						},
						{
							"indexed": false,
							"internalType": "uint256",
							"name": "milestoneNumber",
							"type": "uint256"
						},
						{
							"components": [
								{
									"internalType": "string",
									"name": "milestoneTitle",
									"type": "string"
								},
								{
									"internalType": "string",
									"name": "milestoneDescription",
									"type": "string"
								},
								{
									"internalType": "enum Milestone.Status",
									"name": "status",
									"type": "uint8"
								}
							],
							"indexed": false,
							"internalType": "struct Milestone.milestone",
							"name": "newMilestone",
							"type": "tuple"
						},
						{
							"components": [
								{
									"internalType": "string",
									"name": "milestoneTitle",
									"type": "string"
								},
								{
									"internalType": "string",
									"name": "milestoneDescription",
									"type": "string"
								},
								{
									"internalType": "enum Milestone.Status",
									"name": "status",
									"type": "uint8"
								}
							],
							"indexed": false,
							"internalType": "struct Milestone.milestone",
							"name": "oldMilestone",
							"type": "tuple"
						}
					],
					"name": "milestoneUpdated",
					"type": "event"
				},
				{
					"inputs": [
						{
							"internalType": "uint256",
							"name": "serviceNumber",
							"type": "uint256"
						}
					],
					"name": "checkAllMilestoneApproved",
					"outputs": [
						{
							"internalType": "bool",
							"name": "",
							"type": "bool"
						}
					],
					"stateMutability": "view",
					"type": "function"
				},
				{
					"inputs": [
						{
							"internalType": "uint256",
							"name": "serviceNumber",
							"type": "uint256"
						}
					],
					"name": "checkAllMilestoneCompleted",
					"outputs": [
						{
							"internalType": "bool",
							"name": "",
							"type": "bool"
						}
					],
					"stateMutability": "view",
					"type": "function"
				},
				{
					"inputs": [
						{
							"internalType": "uint256",
							"name": "serviceNumber",
							"type": "uint256"
						}
					],
					"name": "checkAllMilestoneVerified",
					"outputs": [
						{
							"internalType": "bool",
							"name": "",
							"type": "bool"
						}
					],
					"stateMutability": "view",
					"type": "function"
				},
				{
					"inputs": [
						{
							"internalType": "uint256",
							"name": "serviceNumber",
							"type": "uint256"
						}
					],
					"name": "checkAnyMilestoneConflict",
					"outputs": [
						{
							"internalType": "bool",
							"name": "",
							"type": "bool"
						}
					],
					"stateMutability": "view",
					"type": "function"
				},
				{
					"inputs": [
						{
							"internalType": "uint256",
							"name": "serviceNumber",
							"type": "uint256"
						},
						{
							"internalType": "uint256",
							"name": "milestoneNumber",
							"type": "uint256"
						},
						{
							"internalType": "uint8",
							"name": "status",
							"type": "uint8"
						}
					],
					"name": "checkMilestoneStatus",
					"outputs": [
						{
							"internalType": "bool",
							"name": "",
							"type": "bool"
						}
					],
					"stateMutability": "view",
					"type": "function"
				},
				{
					"inputs": [
						{
							"internalType": "uint256",
							"name": "serviceNumber",
							"type": "uint256"
						}
					],
					"name": "checkMinMilestoneCreated",
					"outputs": [
						{
							"internalType": "bool",
							"name": "",
							"type": "bool"
						}
					],
					"stateMutability": "view",
					"type": "function"
				},
				{
					"inputs": [
						{
							"internalType": "uint256",
							"name": "serviceNumber",
							"type": "uint256"
						},
						{
							"internalType": "string",
							"name": "titleMilestone",
							"type": "string"
						},
						{
							"internalType": "string",
							"name": "descriptionMilestone",
							"type": "string"
						}
					],
					"name": "createMilestone",
					"outputs": [],
					"stateMutability": "nonpayable",
					"type": "function"
				},
				{
					"inputs": [
						{
							"internalType": "uint256",
							"name": "serviceNumber",
							"type": "uint256"
						},
						{
							"internalType": "uint256",
							"name": "milestoneNum",
							"type": "uint256"
						}
					],
					"name": "deleteMilestone",
					"outputs": [],
					"stateMutability": "nonpayable",
					"type": "function"
				},
				{
					"inputs": [
						{
							"internalType": "uint256",
							"name": "serviceNumber",
							"type": "uint256"
						}
					],
					"name": "getAllMilestone",
					"outputs": [
						{
							"components": [
								{
									"internalType": "string",
									"name": "milestoneTitle",
									"type": "string"
								},
								{
									"internalType": "string",
									"name": "milestoneDescription",
									"type": "string"
								},
								{
									"internalType": "enum Milestone.Status",
									"name": "status",
									"type": "uint8"
								}
							],
							"internalType": "struct Milestone.milestone[]",
							"name": "",
							"type": "tuple[]"
						}
					],
					"stateMutability": "view",
					"type": "function"
				},
				{
					"inputs": [
						{
							"internalType": "uint256",
							"name": "serviceNumber",
							"type": "uint256"
						},
						{
							"internalType": "uint256",
							"name": "milestoneNumber",
							"type": "uint256"
						}
					],
					"name": "getMilestoneStatus",
					"outputs": [
						{
							"internalType": "enum Milestone.Status",
							"name": "",
							"type": "uint8"
						}
					],
					"stateMutability": "view",
					"type": "function"
				},
				{
					"inputs": [
						{
							"internalType": "uint256",
							"name": "serviceNumber",
							"type": "uint256"
						}
					],
					"name": "getTotalNumMilestones",
					"outputs": [
						{
							"internalType": "uint256",
							"name": "",
							"type": "uint256"
						}
					],
					"stateMutability": "view",
					"type": "function"
				},
				{
					"inputs": [
						{
							"internalType": "uint256",
							"name": "serviceNumber",
							"type": "uint256"
						}
					],
					"name": "updateAllMilestonePending",
					"outputs": [],
					"stateMutability": "nonpayable",
					"type": "function"
				},
				{
					"inputs": [
						{
							"internalType": "uint256",
							"name": "serviceNumber",
							"type": "uint256"
						},
						{
							"internalType": "uint256",
							"name": "milestoneNum",
							"type": "uint256"
						},
						{
							"internalType": "string",
							"name": "titleMilestone",
							"type": "string"
						},
						{
							"internalType": "string",
							"name": "descriptionMilestone",
							"type": "string"
						}
					],
					"name": "updateMilestone",
					"outputs": [],
					"stateMutability": "nonpayable",
					"type": "function"
				},
				{
					"inputs": [
						{
							"internalType": "uint256",
							"name": "serviceNumber",
							"type": "uint256"
						},
						{
							"internalType": "uint256",
							"name": "milestoneNum",
							"type": "uint256"
						}
					],
					"name": "updateMilestoneApproved",
					"outputs": [],
					"stateMutability": "nonpayable",
					"type": "function"
				},
				{
					"inputs": [
						{
							"internalType": "uint256",
							"name": "serviceNumber",
							"type": "uint256"
						},
						{
							"internalType": "uint256",
							"name": "milestoneNum",
							"type": "uint256"
						}
					],
					"name": "updateMilestoneCompleted",
					"outputs": [],
					"stateMutability": "nonpayable",
					"type": "function"
				},
				{
					"inputs": [
						{
							"internalType": "uint256",
							"name": "serviceNumber",
							"type": "uint256"
						},
						{
							"internalType": "uint256",
							"name": "milestoneNum",
							"type": "uint256"
						}
					],
					"name": "updateMilestoneConflict",
					"outputs": [],
					"stateMutability": "nonpayable",
					"type": "function"
				},
				{
					"inputs": [
						{
							"internalType": "uint256",
							"name": "serviceNumber",
							"type": "uint256"
						},
						{
							"internalType": "uint256",
							"name": "milestoneNum",
							"type": "uint256"
						}
					],
					"name": "updateMilestoneStarted",
					"outputs": [],
					"stateMutability": "nonpayable",
					"type": "function"
				},
				{
					"inputs": [
						{
							"internalType": "uint256",
							"name": "serviceNumber",
							"type": "uint256"
						},
						{
							"internalType": "uint256",
							"name": "milestoneNum",
							"type": "uint256"
						}
					],
					"name": "updateMilestoneVerified",
					"outputs": [],
					"stateMutability": "nonpayable",
					"type": "function"
				}
			],
			"devdoc": {
				"kind": "dev",
				"methods": {},
				"version": 1
			},
			"evm": {
				"assembly": "    /* \"contracts/Milestone.sol\":122:8157  contract Milestone {... */\n  mstore(0x40, 0x80)\n  callvalue\n  dup1\n  iszero\n  tag_1\n  jumpi\n  0x00\n  dup1\n  revert\ntag_1:\n  pop\n  dataSize(sub_0)\n  dup1\n  dataOffset(sub_0)\n  0x00\n  codecopy\n  0x00\n  return\nstop\n\nsub_0: assembly {\n        /* \"contracts/Milestone.sol\":122:8157  contract Milestone {... */\n      mstore(0x40, 0x80)\n      callvalue\n      dup1\n      iszero\n      tag_1\n      jumpi\n      0x00\n      dup1\n      revert\n    tag_1:\n      pop\n      jumpi(tag_2, lt(calldatasize, 0x04))\n      shr(0xe0, calldataload(0x00))\n      dup1\n      0x6139ab8f\n      gt\n      tag_21\n      jumpi\n      dup1\n      0xab7db003\n      gt\n      tag_22\n      jumpi\n      dup1\n      0xab7db003\n      eq\n      tag_16\n      jumpi\n      dup1\n      0xb5015d11\n      eq\n      tag_17\n      jumpi\n      dup1\n      0xbceae35c\n      eq\n      tag_18\n      jumpi\n      dup1\n      0xcc590e6f\n      eq\n      tag_19\n      jumpi\n      dup1\n      0xe8049da1\n      eq\n      tag_20\n      jumpi\n      jump(tag_2)\n    tag_22:\n      dup1\n      0x6139ab8f\n      eq\n      tag_12\n      jumpi\n      dup1\n      0x79a6544e\n      eq\n      tag_13\n      jumpi\n      dup1\n      0x863ccc08\n      eq\n      tag_14\n      jumpi\n      dup1\n      0xa1a56bae\n      eq\n      tag_15\n      jumpi\n      jump(tag_2)\n    tag_21:\n      dup1\n      0x275a645c\n      gt\n      tag_23\n      jumpi\n      dup1\n      0x275a645c\n      eq\n      tag_7\n      jumpi\n      dup1\n      0x46d6e88e\n      eq\n      tag_8\n      jumpi\n      dup1\n      0x533c787b\n      eq\n      tag_9\n      jumpi\n      dup1\n      0x5c91eb59\n      eq\n      tag_10\n      jumpi\n      dup1\n      0x6005ecfd\n      eq\n      tag_11\n      jumpi\n      jump(tag_2)\n    tag_23:\n      dup1\n      0x095674aa\n      eq\n      tag_3\n      jumpi\n      dup1\n      0x1e0f2a46\n      eq\n      tag_4\n      jumpi\n      dup1\n      0x2611954f\n      eq\n      tag_5\n      jumpi\n      dup1\n      0x261ea724\n      eq\n      tag_6\n      jumpi\n    tag_2:\n      0x00\n      dup1\n      revert\n        /* \"contracts/Milestone.sol\":2036:2561  function updateMilestone(uint256 serviceNumber, uint256 milestoneNum, string memory titleMilestone, string memory descriptionMilestone) external doMilestonesExist(serviceNumber) {... */\n    tag_3:\n      tag_24\n      0x04\n      dup1\n      calldatasize\n      sub\n      dup2\n      add\n      swap1\n      tag_25\n      swap2\n      swap1\n      tag_26\n      jump\t// in\n    tag_25:\n      tag_27\n      jump\t// in\n    tag_24:\n      stop\n        /* \"contracts/Milestone.sol\":7376:7545  function checkAllMilestoneVerified(uint256 serviceNumber) public view returns (bool) {... */\n    tag_4:\n      tag_28\n      0x04\n      dup1\n      calldatasize\n      sub\n      dup2\n      add\n      swap1\n      tag_29\n      swap2\n      swap1\n      tag_30\n      jump\t// in\n    tag_29:\n      tag_31\n      jump\t// in\n    tag_28:\n      mload(0x40)\n      tag_32\n      swap2\n      swap1\n      tag_33\n      jump\t// in\n    tag_32:\n      mload(0x40)\n      dup1\n      swap2\n      sub\n      swap1\n      return\n        /* \"contracts/Milestone.sol\":6661:6870  function checkMilestoneStatus(uint256 serviceNumber, uint256 milestoneNumber, uint8 status) public view returns (bool) {... */\n    tag_5:\n      tag_34\n      0x04\n      dup1\n      calldatasize\n      sub\n      dup2\n      add\n      swap1\n      tag_35\n      swap2\n      swap1\n      tag_36\n      jump\t// in\n    tag_35:\n      tag_37\n      jump\t// in\n    tag_34:\n      mload(0x40)\n      tag_38\n      swap2\n      swap1\n      tag_33\n      jump\t// in\n    tag_38:\n      mload(0x40)\n      dup1\n      swap2\n      sub\n      swap1\n      return\n        /* \"contracts/Milestone.sol\":6925:7094  function checkAllMilestoneApproved(uint256 serviceNumber) public view returns (bool) {... */\n    tag_6:\n      tag_39\n      0x04\n      dup1\n      calldatasize\n      sub\n      dup2\n      add\n      swap1\n      tag_40\n      swap2\n      swap1\n      tag_30\n      jump\t// in\n    tag_40:\n      tag_41\n      jump\t// in\n    tag_39:\n      mload(0x40)\n      tag_42\n      swap2\n      swap1\n      tag_33\n      jump\t// in\n    tag_42:\n      mload(0x40)\n      dup1\n      swap2\n      sub\n      swap1\n      return\n        /* \"contracts/Milestone.sol\":4793:4997  function updateMilestoneVerified(uint256 serviceNumber, uint256 milestoneNum) external doMilestonesExist(serviceNumber) {... */\n    tag_7:\n      tag_43\n      0x04\n      dup1\n      calldatasize\n      sub\n      dup2\n      add\n      swap1\n      tag_44\n      swap2\n      swap1\n      tag_45\n      jump\t// in\n    tag_44:\n      tag_46\n      jump\t// in\n    tag_43:\n      stop\n        /* \"contracts/Milestone.sol\":4535:4741  function updateMilestoneCompleted(uint256 serviceNumber, uint256 milestoneNum) external doMilestonesExist(serviceNumber) {... */\n    tag_8:\n      tag_47\n      0x04\n      dup1\n      calldatasize\n      sub\n      dup2\n      add\n      swap1\n      tag_48\n      swap2\n      swap1\n      tag_45\n      jump\t// in\n    tag_48:\n      tag_49\n      jump\t// in\n    tag_47:\n      stop\n        /* \"contracts/Milestone.sol\":5830:6003  function getTotalNumMilestones(uint256 serviceNumber) public view doMilestonesExist(serviceNumber) returns (uint256) {... */\n    tag_9:\n      tag_50\n      0x04\n      dup1\n      calldatasize\n      sub\n      dup2\n      add\n      swap1\n      tag_51\n      swap2\n      swap1\n      tag_30\n      jump\t// in\n    tag_51:\n      tag_52\n      jump\t// in\n    tag_50:\n      mload(0x40)\n      tag_53\n      swap2\n      swap1\n      tag_54\n      jump\t// in\n    tag_53:\n      mload(0x40)\n      dup1\n      swap2\n      sub\n      swap1\n      return\n        /* \"contracts/Milestone.sol\":5618:5789  function getAllMilestone(uint256 serviceNumber) public view doMilestonesExist(serviceNumber) returns (milestone[] memory) {... */\n    tag_10:\n      tag_55\n      0x04\n      dup1\n      calldatasize\n      sub\n      dup2\n      add\n      swap1\n      tag_56\n      swap2\n      swap1\n      tag_30\n      jump\t// in\n    tag_56:\n      tag_57\n      jump\t// in\n    tag_55:\n      mload(0x40)\n      tag_58\n      swap2\n      swap1\n      tag_59\n      jump\t// in\n    tag_58:\n      mload(0x40)\n      dup1\n      swap2\n      sub\n      swap1\n      return\n        /* \"contracts/Milestone.sol\":7984:8153  function checkAnyMilestoneConflict(uint256 serviceNumber) public view returns (bool) {... */\n    tag_11:\n      tag_60\n      0x04\n      dup1\n      calldatasize\n      sub\n      dup2\n      add\n      swap1\n      tag_61\n      swap2\n      swap1\n      tag_30\n      jump\t// in\n    tag_61:\n      tag_62\n      jump\t// in\n    tag_60:\n      mload(0x40)\n      tag_63\n      swap2\n      swap1\n      tag_33\n      jump\t// in\n    tag_63:\n      mload(0x40)\n      dup1\n      swap2\n      sub\n      swap1\n      return\n        /* \"contracts/Milestone.sol\":7150:7321  function checkAllMilestoneCompleted(uint256 serviceNumber) public view returns (bool) {... */\n    tag_12:\n      tag_64\n      0x04\n      dup1\n      calldatasize\n      sub\n      dup2\n      add\n      swap1\n      tag_65\n      swap2\n      swap1\n      tag_30\n      jump\t// in\n    tag_65:\n      tag_66\n      jump\t// in\n    tag_64:\n      mload(0x40)\n      tag_67\n      swap2\n      swap1\n      tag_33\n      jump\t// in\n    tag_67:\n      mload(0x40)\n      dup1\n      swap2\n      sub\n      swap1\n      return\n        /* \"contracts/Milestone.sol\":4027:4231  function updateMilestoneApproved(uint256 serviceNumber, uint256 milestoneNum) external doMilestonesExist(serviceNumber) {... */\n    tag_13:\n      tag_68\n      0x04\n      dup1\n      calldatasize\n      sub\n      dup2\n      add\n      swap1\n      tag_69\n      swap2\n      swap1\n      tag_45\n      jump\t// in\n    tag_69:\n      tag_70\n      jump\t// in\n    tag_68:\n      stop\n        /* \"contracts/Milestone.sol\":6465:6610  function checkMinMilestoneCreated(uint256 serviceNumber) public view returns (bool) {... */\n    tag_14:\n      tag_71\n      0x04\n      dup1\n      calldatasize\n      sub\n      dup2\n      add\n      swap1\n      tag_72\n      swap2\n      swap1\n      tag_30\n      jump\t// in\n    tag_72:\n      tag_73\n      jump\t// in\n    tag_71:\n      mload(0x40)\n      tag_74\n      swap2\n      swap1\n      tag_33\n      jump\t// in\n    tag_74:\n      mload(0x40)\n      dup1\n      swap2\n      sub\n      swap1\n      return\n        /* \"contracts/Milestone.sol\":2662:3188  function deleteMilestone(uint256 serviceNumber, uint256 milestoneNum) external doMilestonesExist(serviceNumber) {... */\n    tag_15:\n      tag_75\n      0x04\n      dup1\n      calldatasize\n      sub\n      dup2\n      add\n      swap1\n      tag_76\n      swap2\n      swap1\n      tag_45\n      jump\t// in\n    tag_76:\n      tag_77\n      jump\t// in\n    tag_75:\n      stop\n        /* \"contracts/Milestone.sol\":4281:4483  function updateMilestoneStarted(uint256 serviceNumber, uint256 milestoneNum) external doMilestonesExist(serviceNumber) {... */\n    tag_16:\n      tag_78\n      0x04\n      dup1\n      calldatasize\n      sub\n      dup2\n      add\n      swap1\n      tag_79\n      swap2\n      swap1\n      tag_45\n      jump\t// in\n    tag_79:\n      tag_80\n      jump\t// in\n    tag_78:\n      stop\n        /* \"contracts/Milestone.sol\":1579:1963  function createMilestone(uint256 serviceNumber, string memory titleMilestone, string memory descriptionMilestone) external {... */\n    tag_17:\n      tag_81\n      0x04\n      dup1\n      calldatasize\n      sub\n      dup2\n      add\n      swap1\n      tag_82\n      swap2\n      swap1\n      tag_83\n      jump\t// in\n    tag_82:\n      tag_84\n      jump\t// in\n    tag_81:\n      stop\n        /* \"contracts/Milestone.sol\":5048:5252  function updateMilestoneConflict(uint256 serviceNumber, uint256 milestoneNum) external doMilestonesExist(serviceNumber) {... */\n    tag_18:\n      tag_85\n      0x04\n      dup1\n      calldatasize\n      sub\n      dup2\n      add\n      swap1\n      tag_86\n      swap2\n      swap1\n      tag_45\n      jump\t// in\n    tag_86:\n      tag_87\n      jump\t// in\n    tag_85:\n      stop\n        /* \"contracts/Milestone.sol\":3754:3976  function updateAllMilestonePending(uint256 serviceNumber) external {... */\n    tag_19:\n      tag_88\n      0x04\n      dup1\n      calldatasize\n      sub\n      dup2\n      add\n      swap1\n      tag_89\n      swap2\n      swap1\n      tag_30\n      jump\t// in\n    tag_89:\n      tag_90\n      jump\t// in\n    tag_88:\n      stop\n        /* \"contracts/Milestone.sol\":5318:5586  function getMilestoneStatus(uint256 serviceNumber, uint256 milestoneNumber) public view doMilestonesExist(serviceNumber) doSpecificMilestoneExist(serviceNumber, milestoneNumber) returns (Status) {... */\n    tag_20:\n      tag_91\n      0x04\n      dup1\n      calldatasize\n      sub\n      dup2\n      add\n      swap1\n      tag_92\n      swap2\n      swap1\n      tag_45\n      jump\t// in\n    tag_92:\n      tag_93\n      jump\t// in\n    tag_91:\n      mload(0x40)\n      tag_94\n      swap2\n      swap1\n      tag_95\n      jump\t// in\n    tag_94:\n      mload(0x40)\n      dup1\n      swap2\n      sub\n      swap1\n      return\n        /* \"contracts/Milestone.sol\":2036:2561  function updateMilestone(uint256 serviceNumber, uint256 milestoneNum, string memory titleMilestone, string memory descriptionMilestone) external doMilestonesExist(serviceNumber) {... */\n    tag_27:\n        /* \"contracts/Milestone.sol\":2199:2212  serviceNumber */\n      dup4\n        /* \"contracts/Milestone.sol\":1211:1212  0 */\n      0x00\n        /* \"contracts/Milestone.sol\":1175:1185  milestones */\n      dup1\n        /* \"contracts/Milestone.sol\":1175:1200  milestones[serviceNumber] */\n      0x00\n        /* \"contracts/Milestone.sol\":1186:1199  serviceNumber */\n      dup4\n        /* \"contracts/Milestone.sol\":1175:1200  milestones[serviceNumber] */\n      dup2\n      mstore\n      0x20\n      add\n      swap1\n      dup2\n      mstore\n      0x20\n      add\n      0x00\n      keccak256\n        /* \"contracts/Milestone.sol\":1175:1207  milestones[serviceNumber].length */\n      dup1\n      sload\n      swap1\n      pop\n        /* \"contracts/Milestone.sol\":1175:1212  milestones[serviceNumber].length != 0 */\n      eq\n      iszero\n        /* \"contracts/Milestone.sol\":1167:1253  require(milestones[serviceNumber].length != 0, \"Milestones have not been created yet\") */\n      tag_97\n      jumpi\n      mload(0x40)\n      0x08c379a000000000000000000000000000000000000000000000000000000000\n      dup2\n      mstore\n      0x04\n      add\n      tag_98\n      swap1\n      tag_99\n      jump\t// in\n    tag_98:\n      mload(0x40)\n      dup1\n      swap2\n      sub\n      swap1\n      revert\n    tag_97:\n        /* \"contracts/Milestone.sol\":2224:2253  milestone memory newMilestone */\n      0x00\n        /* \"contracts/Milestone.sol\":2256:2319  milestone(titleMilestone, descriptionMilestone, Status.pending) */\n      mload(0x40)\n      dup1\n      0x60\n      add\n      0x40\n      mstore\n      dup1\n        /* \"contracts/Milestone.sol\":2266:2280  titleMilestone */\n      dup6\n        /* \"contracts/Milestone.sol\":2256:2319  milestone(titleMilestone, descriptionMilestone, Status.pending) */\n      dup2\n      mstore\n      0x20\n      add\n        /* \"contracts/Milestone.sol\":2282:2302  descriptionMilestone */\n      dup5\n        /* \"contracts/Milestone.sol\":2256:2319  milestone(titleMilestone, descriptionMilestone, Status.pending) */\n      dup2\n      mstore\n      0x20\n      add\n        /* \"contracts/Milestone.sol\":2304:2318  Status.pending */\n      0x01\n        /* \"contracts/Milestone.sol\":2256:2319  milestone(titleMilestone, descriptionMilestone, Status.pending) */\n      0x06\n      dup2\n      gt\n      iszero\n      tag_101\n      jumpi\n      tag_102\n      tag_103\n      jump\t// in\n    tag_102:\n    tag_101:\n      dup2\n      mstore\n      pop\n        /* \"contracts/Milestone.sol\":2224:2319  milestone memory newMilestone = milestone(titleMilestone, descriptionMilestone, Status.pending) */\n      swap1\n      pop\n        /* \"contracts/Milestone.sol\":2329:2358  milestone memory oldMilestone */\n      0x00\n        /* \"contracts/Milestone.sol\":2361:2371  milestones */\n      dup1\n        /* \"contracts/Milestone.sol\":2361:2386  milestones[serviceNumber] */\n      0x00\n        /* \"contracts/Milestone.sol\":2372:2385  serviceNumber */\n      dup9\n        /* \"contracts/Milestone.sol\":2361:2386  milestones[serviceNumber] */\n      dup2\n      mstore\n      0x20\n      add\n      swap1\n      dup2\n      mstore\n      0x20\n      add\n      0x00\n      keccak256\n        /* \"contracts/Milestone.sol\":2387:2399  milestoneNum */\n      dup7\n        /* \"contracts/Milestone.sol\":2361:2400  milestones[serviceNumber][milestoneNum] */\n      dup2\n      sload\n      dup2\n      lt\n      tag_104\n      jumpi\n      tag_105\n      tag_106\n      jump\t// in\n    tag_105:\n    tag_104:\n      swap1\n      0x00\n      mstore\n      keccak256(0x00, 0x20)\n      swap1\n      0x03\n      mul\n      add\n        /* \"contracts/Milestone.sol\":2329:2400  milestone memory oldMilestone = milestones[serviceNumber][milestoneNum] */\n      mload(0x40)\n      dup1\n      0x60\n      add\n      0x40\n      mstore\n      swap1\n      dup2\n      0x00\n      dup3\n      add\n      dup1\n      sload\n      tag_108\n      swap1\n      tag_109\n      jump\t// in\n    tag_108:\n      dup1\n      0x1f\n      add\n      0x20\n      dup1\n      swap2\n      div\n      mul\n      0x20\n      add\n      mload(0x40)\n      swap1\n      dup2\n      add\n      0x40\n      mstore\n      dup1\n      swap3\n      swap2\n      swap1\n      dup2\n      dup2\n      mstore\n      0x20\n      add\n      dup3\n      dup1\n      sload\n      tag_110\n      swap1\n      tag_109\n      jump\t// in\n    tag_110:\n      dup1\n      iszero\n      tag_111\n      jumpi\n      dup1\n      0x1f\n      lt\n      tag_112\n      jumpi\n      0x0100\n      dup1\n      dup4\n      sload\n      div\n      mul\n      dup4\n      mstore\n      swap2\n      0x20\n      add\n      swap2\n      jump(tag_111)\n    tag_112:\n      dup3\n      add\n      swap2\n      swap1\n      0x00\n      mstore\n      keccak256(0x00, 0x20)\n      swap1\n    tag_113:\n      dup2\n      sload\n      dup2\n      mstore\n      swap1\n      0x01\n      add\n      swap1\n      0x20\n      add\n      dup1\n      dup4\n      gt\n      tag_113\n      jumpi\n      dup3\n      swap1\n      sub\n      0x1f\n      and\n      dup3\n      add\n      swap2\n    tag_111:\n      pop\n      pop\n      pop\n      pop\n      pop\n      dup2\n      mstore\n      0x20\n      add\n      0x01\n      dup3\n      add\n      dup1\n      sload\n      tag_114\n      swap1\n      tag_109\n      jump\t// in\n    tag_114:\n      dup1\n      0x1f\n      add\n      0x20\n      dup1\n      swap2\n      div\n      mul\n      0x20\n      add\n      mload(0x40)\n      swap1\n      dup2\n      add\n      0x40\n      mstore\n      dup1\n      swap3\n      swap2\n      swap1\n      dup2\n      dup2\n      mstore\n      0x20\n      add\n      dup3\n      dup1\n      sload\n      tag_115\n      swap1\n      tag_109\n      jump\t// in\n    tag_115:\n      dup1\n      iszero\n      tag_116\n      jumpi\n      dup1\n      0x1f\n      lt\n      tag_117\n      jumpi\n      0x0100\n      dup1\n      dup4\n      sload\n      div\n      mul\n      dup4\n      mstore\n      swap2\n      0x20\n      add\n      swap2\n      jump(tag_116)\n    tag_117:\n      dup3\n      add\n      swap2\n      swap1\n      0x00\n      mstore\n      keccak256(0x00, 0x20)\n      swap1\n    tag_118:\n      dup2\n      sload\n      dup2\n      mstore\n      swap1\n      0x01\n      add\n      swap1\n      0x20\n      add\n      dup1\n      dup4\n      gt\n      tag_118\n      jumpi\n      dup3\n      swap1\n      sub\n      0x1f\n      and\n      dup3\n      add\n      swap2\n    tag_116:\n      pop\n      pop\n      pop\n      pop\n      pop\n      dup2\n      mstore\n      0x20\n      add\n      0x02\n      dup3\n      add\n      0x00\n      swap1\n      sload\n      swap1\n      0x0100\n      exp\n      swap1\n      div\n      0xff\n      and\n      0x06\n      dup2\n      gt\n      iszero\n      tag_119\n      jumpi\n      tag_120\n      tag_103\n      jump\t// in\n    tag_120:\n    tag_119:\n      0x06\n      dup2\n      gt\n      iszero\n      tag_121\n      jumpi\n      tag_122\n      tag_103\n      jump\t// in\n    tag_122:\n    tag_121:\n      dup2\n      mstore\n      pop\n      pop\n      swap1\n      pop\n        /* \"contracts/Milestone.sol\":2453:2465  newMilestone */\n      dup2\n        /* \"contracts/Milestone.sol\":2411:2421  milestones */\n      0x00\n        /* \"contracts/Milestone.sol\":2411:2436  milestones[serviceNumber] */\n      dup1\n        /* \"contracts/Milestone.sol\":2422:2435  serviceNumber */\n      dup10\n        /* \"contracts/Milestone.sol\":2411:2436  milestones[serviceNumber] */\n      dup2\n      mstore\n      0x20\n      add\n      swap1\n      dup2\n      mstore\n      0x20\n      add\n      0x00\n      keccak256\n        /* \"contracts/Milestone.sol\":2437:2449  milestoneNum */\n      dup8\n        /* \"contracts/Milestone.sol\":2411:2450  milestones[serviceNumber][milestoneNum] */\n      dup2\n      sload\n      dup2\n      lt\n      tag_123\n      jumpi\n      tag_124\n      tag_106\n      jump\t// in\n    tag_124:\n    tag_123:\n      swap1\n      0x00\n      mstore\n      keccak256(0x00, 0x20)\n      swap1\n      0x03\n      mul\n      add\n        /* \"contracts/Milestone.sol\":2411:2465  milestones[serviceNumber][milestoneNum] = newMilestone */\n      0x00\n      dup3\n      add\n      mload\n      dup2\n      0x00\n      add\n      swap1\n      dup1\n      mload\n      swap1\n      0x20\n      add\n      swap1\n      tag_126\n      swap3\n      swap2\n      swap1\n      tag_127\n      jump\t// in\n    tag_126:\n      pop\n      0x20\n      dup3\n      add\n      mload\n      dup2\n      0x01\n      add\n      swap1\n      dup1\n      mload\n      swap1\n      0x20\n      add\n      swap1\n      tag_128\n      swap3\n      swap2\n      swap1\n      tag_127\n      jump\t// in\n    tag_128:\n      pop\n      0x40\n      dup3\n      add\n      mload\n      dup2\n      0x02\n      add\n      exp(0x0100, 0x00)\n      dup2\n      sload\n      dup2\n      0xff\n      mul\n      not\n      and\n      swap1\n      dup4\n      0x06\n      dup2\n      gt\n      iszero\n      tag_129\n      jumpi\n      tag_130\n      tag_103\n      jump\t// in\n    tag_130:\n    tag_129:\n      mul\n      or\n      swap1\n      sstore\n      pop\n      swap1\n      pop\n      pop\n        /* \"contracts/Milestone.sol\":2481:2554  milestoneUpdated(serviceNumber, milestoneNum, newMilestone, oldMilestone) */\n      0x65b6a4fc6c03a38284e22d1d709975609c288dbbd2f5d284f2585fd4ad4b46b4\n        /* \"contracts/Milestone.sol\":2498:2511  serviceNumber */\n      dup8\n        /* \"contracts/Milestone.sol\":2513:2525  milestoneNum */\n      dup8\n        /* \"contracts/Milestone.sol\":2527:2539  newMilestone */\n      dup5\n        /* \"contracts/Milestone.sol\":2541:2553  oldMilestone */\n      dup5\n        /* \"contracts/Milestone.sol\":2481:2554  milestoneUpdated(serviceNumber, milestoneNum, newMilestone, oldMilestone) */\n      mload(0x40)\n      tag_131\n      swap5\n      swap4\n      swap3\n      swap2\n      swap1\n      tag_132\n      jump\t// in\n    tag_131:\n      mload(0x40)\n      dup1\n      swap2\n      sub\n      swap1\n      log1\n        /* \"contracts/Milestone.sol\":2214:2561  {... */\n      pop\n      pop\n        /* \"contracts/Milestone.sol\":2036:2561  function updateMilestone(uint256 serviceNumber, uint256 milestoneNum, string memory titleMilestone, string memory descriptionMilestone) external doMilestonesExist(serviceNumber) {... */\n      pop\n      pop\n      pop\n      pop\n      pop\n      jump\t// out\n        /* \"contracts/Milestone.sol\":7376:7545  function checkAllMilestoneVerified(uint256 serviceNumber) public view returns (bool) {... */\n    tag_31:\n        /* \"contracts/Milestone.sol\":7455:7459  bool */\n      0x00\n        /* \"contracts/Milestone.sol\":7478:7538  checkAllMilestoneStatusMatch(serviceNumber, Status.verified) */\n      tag_134\n        /* \"contracts/Milestone.sol\":7507:7520  serviceNumber */\n      dup3\n        /* \"contracts/Milestone.sol\":7522:7537  Status.verified */\n      0x05\n        /* \"contracts/Milestone.sol\":7478:7506  checkAllMilestoneStatusMatch */\n      tag_135\n        /* \"contracts/Milestone.sol\":7478:7538  checkAllMilestoneStatusMatch(serviceNumber, Status.verified) */\n      jump\t// in\n    tag_134:\n        /* \"contracts/Milestone.sol\":7471:7538  return checkAllMilestoneStatusMatch(serviceNumber, Status.verified) */\n      swap1\n      pop\n        /* \"contracts/Milestone.sol\":7376:7545  function checkAllMilestoneVerified(uint256 serviceNumber) public view returns (bool) {... */\n      swap2\n      swap1\n      pop\n      jump\t// out\n        /* \"contracts/Milestone.sol\":6661:6870  function checkMilestoneStatus(uint256 serviceNumber, uint256 milestoneNumber, uint8 status) public view returns (bool) {... */\n    tag_37:\n        /* \"contracts/Milestone.sol\":6774:6778  bool */\n      0x00\n        /* \"contracts/Milestone.sol\":6857:6863  status */\n      dup2\n        /* \"contracts/Milestone.sol\":6797:6863  uint8(milestones[serviceNumber][milestoneNumber].status) == status */\n      0xff\n      and\n        /* \"contracts/Milestone.sol\":6803:6813  milestones */\n      0x00\n        /* \"contracts/Milestone.sol\":6803:6828  milestones[serviceNumber] */\n      dup1\n        /* \"contracts/Milestone.sol\":6814:6827  serviceNumber */\n      dup7\n        /* \"contracts/Milestone.sol\":6803:6828  milestones[serviceNumber] */\n      dup2\n      mstore\n      0x20\n      add\n      swap1\n      dup2\n      mstore\n      0x20\n      add\n      0x00\n      keccak256\n        /* \"contracts/Milestone.sol\":6829:6844  milestoneNumber */\n      dup5\n        /* \"contracts/Milestone.sol\":6803:6845  milestones[serviceNumber][milestoneNumber] */\n      dup2\n      sload\n      dup2\n      lt\n      tag_137\n      jumpi\n      tag_138\n      tag_106\n      jump\t// in\n    tag_138:\n    tag_137:\n      swap1\n      0x00\n      mstore\n      keccak256(0x00, 0x20)\n      swap1\n      0x03\n      mul\n      add\n        /* \"contracts/Milestone.sol\":6803:6852  milestones[serviceNumber][milestoneNumber].status */\n      0x02\n      add\n      0x00\n      swap1\n      sload\n      swap1\n      0x0100\n      exp\n      swap1\n      div\n      0xff\n      and\n        /* \"contracts/Milestone.sol\":6797:6853  uint8(milestones[serviceNumber][milestoneNumber].status) */\n      0x06\n      dup2\n      gt\n      iszero\n      tag_140\n      jumpi\n      tag_141\n      tag_103\n      jump\t// in\n    tag_141:\n    tag_140:\n        /* \"contracts/Milestone.sol\":6797:6863  uint8(milestones[serviceNumber][milestoneNumber].status) == status */\n      0xff\n      and\n      eq\n        /* \"contracts/Milestone.sol\":6790:6863  return uint8(milestones[serviceNumber][milestoneNumber].status) == status */\n      swap1\n      pop\n        /* \"contracts/Milestone.sol\":6661:6870  function checkMilestoneStatus(uint256 serviceNumber, uint256 milestoneNumber, uint8 status) public view returns (bool) {... */\n      swap4\n      swap3\n      pop\n      pop\n      pop\n      jump\t// out\n        /* \"contracts/Milestone.sol\":6925:7094  function checkAllMilestoneApproved(uint256 serviceNumber) public view returns (bool) {... */\n    tag_41:\n        /* \"contracts/Milestone.sol\":7004:7008  bool */\n      0x00\n        /* \"contracts/Milestone.sol\":7027:7087  checkAllMilestoneStatusMatch(serviceNumber, Status.approved) */\n      tag_143\n        /* \"contracts/Milestone.sol\":7056:7069  serviceNumber */\n      dup3\n        /* \"contracts/Milestone.sol\":7071:7086  Status.approved */\n      0x02\n        /* \"contracts/Milestone.sol\":7027:7055  checkAllMilestoneStatusMatch */\n      tag_135\n        /* \"contracts/Milestone.sol\":7027:7087  checkAllMilestoneStatusMatch(serviceNumber, Status.approved) */\n      jump\t// in\n    tag_143:\n        /* \"contracts/Milestone.sol\":7020:7087  return checkAllMilestoneStatusMatch(serviceNumber, Status.approved) */\n      swap1\n      pop\n        /* \"contracts/Milestone.sol\":6925:7094  function checkAllMilestoneApproved(uint256 serviceNumber) public view returns (bool) {... */\n      swap2\n      swap1\n      pop\n      jump\t// out\n        /* \"contracts/Milestone.sol\":4793:4997  function updateMilestoneVerified(uint256 serviceNumber, uint256 milestoneNum) external doMilestonesExist(serviceNumber) {... */\n    tag_46:\n        /* \"contracts/Milestone.sol\":4898:4911  serviceNumber */\n      dup2\n        /* \"contracts/Milestone.sol\":1211:1212  0 */\n      0x00\n        /* \"contracts/Milestone.sol\":1175:1185  milestones */\n      dup1\n        /* \"contracts/Milestone.sol\":1175:1200  milestones[serviceNumber] */\n      0x00\n        /* \"contracts/Milestone.sol\":1186:1199  serviceNumber */\n      dup4\n        /* \"contracts/Milestone.sol\":1175:1200  milestones[serviceNumber] */\n      dup2\n      mstore\n      0x20\n      add\n      swap1\n      dup2\n      mstore\n      0x20\n      add\n      0x00\n      keccak256\n        /* \"contracts/Milestone.sol\":1175:1207  milestones[serviceNumber].length */\n      dup1\n      sload\n      swap1\n      pop\n        /* \"contracts/Milestone.sol\":1175:1212  milestones[serviceNumber].length != 0 */\n      eq\n      iszero\n        /* \"contracts/Milestone.sol\":1167:1253  require(milestones[serviceNumber].length != 0, \"Milestones have not been created yet\") */\n      tag_145\n      jumpi\n      mload(0x40)\n      0x08c379a000000000000000000000000000000000000000000000000000000000\n      dup2\n      mstore\n      0x04\n      add\n      tag_146\n      swap1\n      tag_99\n      jump\t// in\n    tag_146:\n      mload(0x40)\n      dup1\n      swap2\n      sub\n      swap1\n      revert\n    tag_145:\n        /* \"contracts/Milestone.sol\":4923:4990  updateMilestoneStatus(serviceNumber, milestoneNum, Status.verified) */\n      tag_148\n        /* \"contracts/Milestone.sol\":4945:4958  serviceNumber */\n      dup4\n        /* \"contracts/Milestone.sol\":4960:4972  milestoneNum */\n      dup4\n        /* \"contracts/Milestone.sol\":4974:4989  Status.verified */\n      0x05\n        /* \"contracts/Milestone.sol\":4923:4944  updateMilestoneStatus */\n      tag_149\n        /* \"contracts/Milestone.sol\":4923:4990  updateMilestoneStatus(serviceNumber, milestoneNum, Status.verified) */\n      jump\t// in\n    tag_148:\n        /* \"contracts/Milestone.sol\":4793:4997  function updateMilestoneVerified(uint256 serviceNumber, uint256 milestoneNum) external doMilestonesExist(serviceNumber) {... */\n      pop\n      pop\n      pop\n      jump\t// out\n        /* \"contracts/Milestone.sol\":4535:4741  function updateMilestoneCompleted(uint256 serviceNumber, uint256 milestoneNum) external doMilestonesExist(serviceNumber) {... */\n    tag_49:\n        /* \"contracts/Milestone.sol\":4641:4654  serviceNumber */\n      dup2\n        /* \"contracts/Milestone.sol\":1211:1212  0 */\n      0x00\n        /* \"contracts/Milestone.sol\":1175:1185  milestones */\n      dup1\n        /* \"contracts/Milestone.sol\":1175:1200  milestones[serviceNumber] */\n      0x00\n        /* \"contracts/Milestone.sol\":1186:1199  serviceNumber */\n      dup4\n        /* \"contracts/Milestone.sol\":1175:1200  milestones[serviceNumber] */\n      dup2\n      mstore\n      0x20\n      add\n      swap1\n      dup2\n      mstore\n      0x20\n      add\n      0x00\n      keccak256\n        /* \"contracts/Milestone.sol\":1175:1207  milestones[serviceNumber].length */\n      dup1\n      sload\n      swap1\n      pop\n        /* \"contracts/Milestone.sol\":1175:1212  milestones[serviceNumber].length != 0 */\n      eq\n      iszero\n        /* \"contracts/Milestone.sol\":1167:1253  require(milestones[serviceNumber].length != 0, \"Milestones have not been created yet\") */\n      tag_151\n      jumpi\n      mload(0x40)\n      0x08c379a000000000000000000000000000000000000000000000000000000000\n      dup2\n      mstore\n      0x04\n      add\n      tag_152\n      swap1\n      tag_99\n      jump\t// in\n    tag_152:\n      mload(0x40)\n      dup1\n      swap2\n      sub\n      swap1\n      revert\n    tag_151:\n        /* \"contracts/Milestone.sol\":4666:4734  updateMilestoneStatus(serviceNumber, milestoneNum, Status.completed) */\n      tag_154\n        /* \"contracts/Milestone.sol\":4688:4701  serviceNumber */\n      dup4\n        /* \"contracts/Milestone.sol\":4703:4715  milestoneNum */\n      dup4\n        /* \"contracts/Milestone.sol\":4717:4733  Status.completed */\n      0x04\n        /* \"contracts/Milestone.sol\":4666:4687  updateMilestoneStatus */\n      tag_149\n        /* \"contracts/Milestone.sol\":4666:4734  updateMilestoneStatus(serviceNumber, milestoneNum, Status.completed) */\n      jump\t// in\n    tag_154:\n        /* \"contracts/Milestone.sol\":4535:4741  function updateMilestoneCompleted(uint256 serviceNumber, uint256 milestoneNum) external doMilestonesExist(serviceNumber) {... */\n      pop\n      pop\n      pop\n      jump\t// out\n        /* \"contracts/Milestone.sol\":5830:6003  function getTotalNumMilestones(uint256 serviceNumber) public view doMilestonesExist(serviceNumber) returns (uint256) {... */\n    tag_52:\n        /* \"contracts/Milestone.sol\":5938:5945  uint256 */\n      0x00\n        /* \"contracts/Milestone.sol\":5914:5927  serviceNumber */\n      dup2\n        /* \"contracts/Milestone.sol\":1211:1212  0 */\n      0x00\n        /* \"contracts/Milestone.sol\":1175:1185  milestones */\n      dup1\n        /* \"contracts/Milestone.sol\":1175:1200  milestones[serviceNumber] */\n      0x00\n        /* \"contracts/Milestone.sol\":1186:1199  serviceNumber */\n      dup4\n        /* \"contracts/Milestone.sol\":1175:1200  milestones[serviceNumber] */\n      dup2\n      mstore\n      0x20\n      add\n      swap1\n      dup2\n      mstore\n      0x20\n      add\n      0x00\n      keccak256\n        /* \"contracts/Milestone.sol\":1175:1207  milestones[serviceNumber].length */\n      dup1\n      sload\n      swap1\n      pop\n        /* \"contracts/Milestone.sol\":1175:1212  milestones[serviceNumber].length != 0 */\n      eq\n      iszero\n        /* \"contracts/Milestone.sol\":1167:1253  require(milestones[serviceNumber].length != 0, \"Milestones have not been created yet\") */\n      tag_156\n      jumpi\n      mload(0x40)\n      0x08c379a000000000000000000000000000000000000000000000000000000000\n      dup2\n      mstore\n      0x04\n      add\n      tag_157\n      swap1\n      tag_99\n      jump\t// in\n    tag_157:\n      mload(0x40)\n      dup1\n      swap2\n      sub\n      swap1\n      revert\n    tag_156:\n        /* \"contracts/Milestone.sol\":5964:5974  milestones */\n      0x00\n        /* \"contracts/Milestone.sol\":5964:5989  milestones[serviceNumber] */\n      dup1\n        /* \"contracts/Milestone.sol\":5975:5988  serviceNumber */\n      dup5\n        /* \"contracts/Milestone.sol\":5964:5989  milestones[serviceNumber] */\n      dup2\n      mstore\n      0x20\n      add\n      swap1\n      dup2\n      mstore\n      0x20\n      add\n      0x00\n      keccak256\n        /* \"contracts/Milestone.sol\":5964:5996  milestones[serviceNumber].length */\n      dup1\n      sload\n      swap1\n      pop\n        /* \"contracts/Milestone.sol\":5957:5996  return milestones[serviceNumber].length */\n      swap2\n      pop\n        /* \"contracts/Milestone.sol\":5830:6003  function getTotalNumMilestones(uint256 serviceNumber) public view doMilestonesExist(serviceNumber) returns (uint256) {... */\n      pop\n      swap2\n      swap1\n      pop\n      jump\t// out\n        /* \"contracts/Milestone.sol\":5618:5789  function getAllMilestone(uint256 serviceNumber) public view doMilestonesExist(serviceNumber) returns (milestone[] memory) {... */\n    tag_57:\n        /* \"contracts/Milestone.sol\":5720:5738  milestone[] memory */\n      0x60\n        /* \"contracts/Milestone.sol\":5696:5709  serviceNumber */\n      dup2\n        /* \"contracts/Milestone.sol\":1211:1212  0 */\n      0x00\n        /* \"contracts/Milestone.sol\":1175:1185  milestones */\n      dup1\n        /* \"contracts/Milestone.sol\":1175:1200  milestones[serviceNumber] */\n      0x00\n        /* \"contracts/Milestone.sol\":1186:1199  serviceNumber */\n      dup4\n        /* \"contracts/Milestone.sol\":1175:1200  milestones[serviceNumber] */\n      dup2\n      mstore\n      0x20\n      add\n      swap1\n      dup2\n      mstore\n      0x20\n      add\n      0x00\n      keccak256\n        /* \"contracts/Milestone.sol\":1175:1207  milestones[serviceNumber].length */\n      dup1\n      sload\n      swap1\n      pop\n        /* \"contracts/Milestone.sol\":1175:1212  milestones[serviceNumber].length != 0 */\n      eq\n      iszero\n        /* \"contracts/Milestone.sol\":1167:1253  require(milestones[serviceNumber].length != 0, \"Milestones have not been created yet\") */\n      tag_160\n      jumpi\n      mload(0x40)\n      0x08c379a000000000000000000000000000000000000000000000000000000000\n      dup2\n      mstore\n      0x04\n      add\n      tag_161\n      swap1\n      tag_99\n      jump\t// in\n    tag_161:\n      mload(0x40)\n      dup1\n      swap2\n      sub\n      swap1\n      revert\n    tag_160:\n        /* \"contracts/Milestone.sol\":5757:5767  milestones */\n      0x00\n        /* \"contracts/Milestone.sol\":5757:5782  milestones[serviceNumber] */\n      dup1\n        /* \"contracts/Milestone.sol\":5768:5781  serviceNumber */\n      dup5\n        /* \"contracts/Milestone.sol\":5757:5782  milestones[serviceNumber] */\n      dup2\n      mstore\n      0x20\n      add\n      swap1\n      dup2\n      mstore\n      0x20\n      add\n      0x00\n      keccak256\n        /* \"contracts/Milestone.sol\":5750:5782  return milestones[serviceNumber] */\n      dup1\n      sload\n      dup1\n      0x20\n      mul\n      0x20\n      add\n      mload(0x40)\n      swap1\n      dup2\n      add\n      0x40\n      mstore\n      dup1\n      swap3\n      swap2\n      swap1\n      dup2\n      dup2\n      mstore\n      0x20\n      add\n      0x00\n      swap1\n    tag_163:\n      dup3\n      dup3\n      lt\n      iszero\n      tag_164\n      jumpi\n      dup4\n      dup3\n      swap1\n      0x00\n      mstore\n      keccak256(0x00, 0x20)\n      swap1\n      0x03\n      mul\n      add\n      mload(0x40)\n      dup1\n      0x60\n      add\n      0x40\n      mstore\n      swap1\n      dup2\n      0x00\n      dup3\n      add\n      dup1\n      sload\n      tag_166\n      swap1\n      tag_109\n      jump\t// in\n    tag_166:\n      dup1\n      0x1f\n      add\n      0x20\n      dup1\n      swap2\n      div\n      mul\n      0x20\n      add\n      mload(0x40)\n      swap1\n      dup2\n      add\n      0x40\n      mstore\n      dup1\n      swap3\n      swap2\n      swap1\n      dup2\n      dup2\n      mstore\n      0x20\n      add\n      dup3\n      dup1\n      sload\n      tag_167\n      swap1\n      tag_109\n      jump\t// in\n    tag_167:\n      dup1\n      iszero\n      tag_168\n      jumpi\n      dup1\n      0x1f\n      lt\n      tag_169\n      jumpi\n      0x0100\n      dup1\n      dup4\n      sload\n      div\n      mul\n      dup4\n      mstore\n      swap2\n      0x20\n      add\n      swap2\n      jump(tag_168)\n    tag_169:\n      dup3\n      add\n      swap2\n      swap1\n      0x00\n      mstore\n      keccak256(0x00, 0x20)\n      swap1\n    tag_170:\n      dup2\n      sload\n      dup2\n      mstore\n      swap1\n      0x01\n      add\n      swap1\n      0x20\n      add\n      dup1\n      dup4\n      gt\n      tag_170\n      jumpi\n      dup3\n      swap1\n      sub\n      0x1f\n      and\n      dup3\n      add\n      swap2\n    tag_168:\n      pop\n      pop\n      pop\n      pop\n      pop\n      dup2\n      mstore\n      0x20\n      add\n      0x01\n      dup3\n      add\n      dup1\n      sload\n      tag_171\n      swap1\n      tag_109\n      jump\t// in\n    tag_171:\n      dup1\n      0x1f\n      add\n      0x20\n      dup1\n      swap2\n      div\n      mul\n      0x20\n      add\n      mload(0x40)\n      swap1\n      dup2\n      add\n      0x40\n      mstore\n      dup1\n      swap3\n      swap2\n      swap1\n      dup2\n      dup2\n      mstore\n      0x20\n      add\n      dup3\n      dup1\n      sload\n      tag_172\n      swap1\n      tag_109\n      jump\t// in\n    tag_172:\n      dup1\n      iszero\n      tag_173\n      jumpi\n      dup1\n      0x1f\n      lt\n      tag_174\n      jumpi\n      0x0100\n      dup1\n      dup4\n      sload\n      div\n      mul\n      dup4\n      mstore\n      swap2\n      0x20\n      add\n      swap2\n      jump(tag_173)\n    tag_174:\n      dup3\n      add\n      swap2\n      swap1\n      0x00\n      mstore\n      keccak256(0x00, 0x20)\n      swap1\n    tag_175:\n      dup2\n      sload\n      dup2\n      mstore\n      swap1\n      0x01\n      add\n      swap1\n      0x20\n      add\n      dup1\n      dup4\n      gt\n      tag_175\n      jumpi\n      dup3\n      swap1\n      sub\n      0x1f\n      and\n      dup3\n      add\n      swap2\n    tag_173:\n      pop\n      pop\n      pop\n      pop\n      pop\n      dup2\n      mstore\n      0x20\n      add\n      0x02\n      dup3\n      add\n      0x00\n      swap1\n      sload\n      swap1\n      0x0100\n      exp\n      swap1\n      div\n      0xff\n      and\n      0x06\n      dup2\n      gt\n      iszero\n      tag_176\n      jumpi\n      tag_177\n      tag_103\n      jump\t// in\n    tag_177:\n    tag_176:\n      0x06\n      dup2\n      gt\n      iszero\n      tag_178\n      jumpi\n      tag_179\n      tag_103\n      jump\t// in\n    tag_179:\n    tag_178:\n      dup2\n      mstore\n      pop\n      pop\n      dup2\n      mstore\n      0x20\n      add\n      swap1\n      0x01\n      add\n      swap1\n      jump(tag_163)\n    tag_164:\n      pop\n      pop\n      pop\n      pop\n      swap2\n      pop\n        /* \"contracts/Milestone.sol\":5618:5789  function getAllMilestone(uint256 serviceNumber) public view doMilestonesExist(serviceNumber) returns (milestone[] memory) {... */\n      pop\n      swap2\n      swap1\n      pop\n      jump\t// out\n        /* \"contracts/Milestone.sol\":7984:8153  function checkAnyMilestoneConflict(uint256 serviceNumber) public view returns (bool) {... */\n    tag_62:\n        /* \"contracts/Milestone.sol\":8063:8067  bool */\n      0x00\n        /* \"contracts/Milestone.sol\":8086:8146  checkAnyMilestoneStatusMatch(serviceNumber, Status.conflict) */\n      tag_181\n        /* \"contracts/Milestone.sol\":8115:8128  serviceNumber */\n      dup3\n        /* \"contracts/Milestone.sol\":8130:8145  Status.conflict */\n      0x06\n        /* \"contracts/Milestone.sol\":8086:8114  checkAnyMilestoneStatusMatch */\n      tag_182\n        /* \"contracts/Milestone.sol\":8086:8146  checkAnyMilestoneStatusMatch(serviceNumber, Status.conflict) */\n      jump\t// in\n    tag_181:\n        /* \"contracts/Milestone.sol\":8079:8146  return checkAnyMilestoneStatusMatch(serviceNumber, Status.conflict) */\n      swap1\n      pop\n        /* \"contracts/Milestone.sol\":7984:8153  function checkAnyMilestoneConflict(uint256 serviceNumber) public view returns (bool) {... */\n      swap2\n      swap1\n      pop\n      jump\t// out\n        /* \"contracts/Milestone.sol\":7150:7321  function checkAllMilestoneCompleted(uint256 serviceNumber) public view returns (bool) {... */\n    tag_66:\n        /* \"contracts/Milestone.sol\":7230:7234  bool */\n      0x00\n        /* \"contracts/Milestone.sol\":7253:7314  checkAllMilestoneStatusMatch(serviceNumber, Status.completed) */\n      tag_184\n        /* \"contracts/Milestone.sol\":7282:7295  serviceNumber */\n      dup3\n        /* \"contracts/Milestone.sol\":7297:7313  Status.completed */\n      0x04\n        /* \"contracts/Milestone.sol\":7253:7281  checkAllMilestoneStatusMatch */\n      tag_135\n        /* \"contracts/Milestone.sol\":7253:7314  checkAllMilestoneStatusMatch(serviceNumber, Status.completed) */\n      jump\t// in\n    tag_184:\n        /* \"contracts/Milestone.sol\":7246:7314  return checkAllMilestoneStatusMatch(serviceNumber, Status.completed) */\n      swap1\n      pop\n        /* \"contracts/Milestone.sol\":7150:7321  function checkAllMilestoneCompleted(uint256 serviceNumber) public view returns (bool) {... */\n      swap2\n      swap1\n      pop\n      jump\t// out\n        /* \"contracts/Milestone.sol\":4027:4231  function updateMilestoneApproved(uint256 serviceNumber, uint256 milestoneNum) external doMilestonesExist(serviceNumber) {... */\n    tag_70:\n        /* \"contracts/Milestone.sol\":4132:4145  serviceNumber */\n      dup2\n        /* \"contracts/Milestone.sol\":1211:1212  0 */\n      0x00\n        /* \"contracts/Milestone.sol\":1175:1185  milestones */\n      dup1\n        /* \"contracts/Milestone.sol\":1175:1200  milestones[serviceNumber] */\n      0x00\n        /* \"contracts/Milestone.sol\":1186:1199  serviceNumber */\n      dup4\n        /* \"contracts/Milestone.sol\":1175:1200  milestones[serviceNumber] */\n      dup2\n      mstore\n      0x20\n      add\n      swap1\n      dup2\n      mstore\n      0x20\n      add\n      0x00\n      keccak256\n        /* \"contracts/Milestone.sol\":1175:1207  milestones[serviceNumber].length */\n      dup1\n      sload\n      swap1\n      pop\n        /* \"contracts/Milestone.sol\":1175:1212  milestones[serviceNumber].length != 0 */\n      eq\n      iszero\n        /* \"contracts/Milestone.sol\":1167:1253  require(milestones[serviceNumber].length != 0, \"Milestones have not been created yet\") */\n      tag_186\n      jumpi\n      mload(0x40)\n      0x08c379a000000000000000000000000000000000000000000000000000000000\n      dup2\n      mstore\n      0x04\n      add\n      tag_187\n      swap1\n      tag_99\n      jump\t// in\n    tag_187:\n      mload(0x40)\n      dup1\n      swap2\n      sub\n      swap1\n      revert\n    tag_186:\n        /* \"contracts/Milestone.sol\":4157:4224  updateMilestoneStatus(serviceNumber, milestoneNum, Status.approved) */\n      tag_189\n        /* \"contracts/Milestone.sol\":4179:4192  serviceNumber */\n      dup4\n        /* \"contracts/Milestone.sol\":4194:4206  milestoneNum */\n      dup4\n        /* \"contracts/Milestone.sol\":4208:4223  Status.approved */\n      0x02\n        /* \"contracts/Milestone.sol\":4157:4178  updateMilestoneStatus */\n      tag_149\n        /* \"contracts/Milestone.sol\":4157:4224  updateMilestoneStatus(serviceNumber, milestoneNum, Status.approved) */\n      jump\t// in\n    tag_189:\n        /* \"contracts/Milestone.sol\":4027:4231  function updateMilestoneApproved(uint256 serviceNumber, uint256 milestoneNum) external doMilestonesExist(serviceNumber) {... */\n      pop\n      pop\n      pop\n      jump\t// out\n        /* \"contracts/Milestone.sol\":6465:6610  function checkMinMilestoneCreated(uint256 serviceNumber) public view returns (bool) {... */\n    tag_73:\n        /* \"contracts/Milestone.sol\":6543:6547  bool */\n      0x00\n        /* \"contracts/Milestone.sol\":6602:6603  0 */\n      dup1\n        /* \"contracts/Milestone.sol\":6566:6576  milestones */\n      0x00\n        /* \"contracts/Milestone.sol\":6566:6591  milestones[serviceNumber] */\n      dup1\n        /* \"contracts/Milestone.sol\":6577:6590  serviceNumber */\n      dup5\n        /* \"contracts/Milestone.sol\":6566:6591  milestones[serviceNumber] */\n      dup2\n      mstore\n      0x20\n      add\n      swap1\n      dup2\n      mstore\n      0x20\n      add\n      0x00\n      keccak256\n        /* \"contracts/Milestone.sol\":6566:6598  milestones[serviceNumber].length */\n      dup1\n      sload\n      swap1\n      pop\n        /* \"contracts/Milestone.sol\":6566:6603  milestones[serviceNumber].length != 0 */\n      eq\n      iszero\n        /* \"contracts/Milestone.sol\":6559:6603  return milestones[serviceNumber].length != 0 */\n      swap1\n      pop\n        /* \"contracts/Milestone.sol\":6465:6610  function checkMinMilestoneCreated(uint256 serviceNumber) public view returns (bool) {... */\n      swap2\n      swap1\n      pop\n      jump\t// out\n        /* \"contracts/Milestone.sol\":2662:3188  function deleteMilestone(uint256 serviceNumber, uint256 milestoneNum) external doMilestonesExist(serviceNumber) {... */\n    tag_77:\n        /* \"contracts/Milestone.sol\":2759:2772  serviceNumber */\n      dup2\n        /* \"contracts/Milestone.sol\":1211:1212  0 */\n      0x00\n        /* \"contracts/Milestone.sol\":1175:1185  milestones */\n      dup1\n        /* \"contracts/Milestone.sol\":1175:1200  milestones[serviceNumber] */\n      0x00\n        /* \"contracts/Milestone.sol\":1186:1199  serviceNumber */\n      dup4\n        /* \"contracts/Milestone.sol\":1175:1200  milestones[serviceNumber] */\n      dup2\n      mstore\n      0x20\n      add\n      swap1\n      dup2\n      mstore\n      0x20\n      add\n      0x00\n      keccak256\n        /* \"contracts/Milestone.sol\":1175:1207  milestones[serviceNumber].length */\n      dup1\n      sload\n      swap1\n      pop\n        /* \"contracts/Milestone.sol\":1175:1212  milestones[serviceNumber].length != 0 */\n      eq\n      iszero\n        /* \"contracts/Milestone.sol\":1167:1253  require(milestones[serviceNumber].length != 0, \"Milestones have not been created yet\") */\n      tag_192\n      jumpi\n      mload(0x40)\n      0x08c379a000000000000000000000000000000000000000000000000000000000\n      dup2\n      mstore\n      0x04\n      add\n      tag_193\n      swap1\n      tag_99\n      jump\t// in\n    tag_193:\n      mload(0x40)\n      dup1\n      swap2\n      sub\n      swap1\n      revert\n    tag_192:\n        /* \"contracts/Milestone.sol\":2784:2817  milestone memory deletedMilestone */\n      0x00\n        /* \"contracts/Milestone.sol\":2820:2830  milestones */\n      dup1\n        /* \"contracts/Milestone.sol\":2820:2845  milestones[serviceNumber] */\n      0x00\n        /* \"contracts/Milestone.sol\":2831:2844  serviceNumber */\n      dup6\n        /* \"contracts/Milestone.sol\":2820:2845  milestones[serviceNumber] */\n      dup2\n      mstore\n      0x20\n      add\n      swap1\n      dup2\n      mstore\n      0x20\n      add\n      0x00\n      keccak256\n        /* \"contracts/Milestone.sol\":2846:2858  milestoneNum */\n      dup4\n        /* \"contracts/Milestone.sol\":2820:2859  milestones[serviceNumber][milestoneNum] */\n      dup2\n      sload\n      dup2\n      lt\n      tag_195\n      jumpi\n      tag_196\n      tag_106\n      jump\t// in\n    tag_196:\n    tag_195:\n      swap1\n      0x00\n      mstore\n      keccak256(0x00, 0x20)\n      swap1\n      0x03\n      mul\n      add\n        /* \"contracts/Milestone.sol\":2784:2859  milestone memory deletedMilestone = milestones[serviceNumber][milestoneNum] */\n      mload(0x40)\n      dup1\n      0x60\n      add\n      0x40\n      mstore\n      swap1\n      dup2\n      0x00\n      dup3\n      add\n      dup1\n      sload\n      tag_198\n      swap1\n      tag_109\n      jump\t// in\n    tag_198:\n      dup1\n      0x1f\n      add\n      0x20\n      dup1\n      swap2\n      div\n      mul\n      0x20\n      add\n      mload(0x40)\n      swap1\n      dup2\n      add\n      0x40\n      mstore\n      dup1\n      swap3\n      swap2\n      swap1\n      dup2\n      dup2\n      mstore\n      0x20\n      add\n      dup3\n      dup1\n      sload\n      tag_199\n      swap1\n      tag_109\n      jump\t// in\n    tag_199:\n      dup1\n      iszero\n      tag_200\n      jumpi\n      dup1\n      0x1f\n      lt\n      tag_201\n      jumpi\n      0x0100\n      dup1\n      dup4\n      sload\n      div\n      mul\n      dup4\n      mstore\n      swap2\n      0x20\n      add\n      swap2\n      jump(tag_200)\n    tag_201:\n      dup3\n      add\n      swap2\n      swap1\n      0x00\n      mstore\n      keccak256(0x00, 0x20)\n      swap1\n    tag_202:\n      dup2\n      sload\n      dup2\n      mstore\n      swap1\n      0x01\n      add\n      swap1\n      0x20\n      add\n      dup1\n      dup4\n      gt\n      tag_202\n      jumpi\n      dup3\n      swap1\n      sub\n      0x1f\n      and\n      dup3\n      add\n      swap2\n    tag_200:\n      pop\n      pop\n      pop\n      pop\n      pop\n      dup2\n      mstore\n      0x20\n      add\n      0x01\n      dup3\n      add\n      dup1\n      sload\n      tag_203\n      swap1\n      tag_109\n      jump\t// in\n    tag_203:\n      dup1\n      0x1f\n      add\n      0x20\n      dup1\n      swap2\n      div\n      mul\n      0x20\n      add\n      mload(0x40)\n      swap1\n      dup2\n      add\n      0x40\n      mstore\n      dup1\n      swap3\n      swap2\n      swap1\n      dup2\n      dup2\n      mstore\n      0x20\n      add\n      dup3\n      dup1\n      sload\n      tag_204\n      swap1\n      tag_109\n      jump\t// in\n    tag_204:\n      dup1\n      iszero\n      tag_205\n      jumpi\n      dup1\n      0x1f\n      lt\n      tag_206\n      jumpi\n      0x0100\n      dup1\n      dup4\n      sload\n      div\n      mul\n      dup4\n      mstore\n      swap2\n      0x20\n      add\n      swap2\n      jump(tag_205)\n    tag_206:\n      dup3\n      add\n      swap2\n      swap1\n      0x00\n      mstore\n      keccak256(0x00, 0x20)\n      swap1\n    tag_207:\n      dup2\n      sload\n      dup2\n      mstore\n      swap1\n      0x01\n      add\n      swap1\n      0x20\n      add\n      dup1\n      dup4\n      gt\n      tag_207\n      jumpi\n      dup3\n      swap1\n      sub\n      0x1f\n      and\n      dup3\n      add\n      swap2\n    tag_205:\n      pop\n      pop\n      pop\n      pop\n      pop\n      dup2\n      mstore\n      0x20\n      add\n      0x02\n      dup3\n      add\n      0x00\n      swap1\n      sload\n      swap1\n      0x0100\n      exp\n      swap1\n      div\n      0xff\n      and\n      0x06\n      dup2\n      gt\n      iszero\n      tag_208\n      jumpi\n      tag_209\n      tag_103\n      jump\t// in\n    tag_209:\n    tag_208:\n      0x06\n      dup2\n      gt\n      iszero\n      tag_210\n      jumpi\n      tag_211\n      tag_103\n      jump\t// in\n    tag_211:\n    tag_210:\n      dup2\n      mstore\n      pop\n      pop\n      swap1\n      pop\n        /* \"contracts/Milestone.sol\":2875:2881  uint i */\n      0x00\n        /* \"contracts/Milestone.sol\":2884:2896  milestoneNum */\n      dup4\n        /* \"contracts/Milestone.sol\":2875:2896  uint i = milestoneNum */\n      swap1\n      pop\n        /* \"contracts/Milestone.sol\":2870:3028  for (uint i = milestoneNum; i < milestones[serviceNumber].length-1; i++){... */\n    tag_212:\n        /* \"contracts/Milestone.sol\":2935:2936  1 */\n      0x01\n        /* \"contracts/Milestone.sol\":2902:2912  milestones */\n      0x00\n        /* \"contracts/Milestone.sol\":2902:2927  milestones[serviceNumber] */\n      dup1\n        /* \"contracts/Milestone.sol\":2913:2926  serviceNumber */\n      dup8\n        /* \"contracts/Milestone.sol\":2902:2927  milestones[serviceNumber] */\n      dup2\n      mstore\n      0x20\n      add\n      swap1\n      dup2\n      mstore\n      0x20\n      add\n      0x00\n      keccak256\n        /* \"contracts/Milestone.sol\":2902:2934  milestones[serviceNumber].length */\n      dup1\n      sload\n      swap1\n      pop\n        /* \"contracts/Milestone.sol\":2902:2936  milestones[serviceNumber].length-1 */\n      tag_215\n      swap2\n      swap1\n      tag_216\n      jump\t// in\n    tag_215:\n        /* \"contracts/Milestone.sol\":2898:2899  i */\n      dup2\n        /* \"contracts/Milestone.sol\":2898:2936  i < milestones[serviceNumber].length-1 */\n      lt\n        /* \"contracts/Milestone.sol\":2870:3028  for (uint i = milestoneNum; i < milestones[serviceNumber].length-1; i++){... */\n      iszero\n      tag_213\n      jumpi\n        /* \"contracts/Milestone.sol\":2987:2997  milestones */\n      0x00\n        /* \"contracts/Milestone.sol\":2987:3012  milestones[serviceNumber] */\n      dup1\n        /* \"contracts/Milestone.sol\":2998:3011  serviceNumber */\n      dup7\n        /* \"contracts/Milestone.sol\":2987:3012  milestones[serviceNumber] */\n      dup2\n      mstore\n      0x20\n      add\n      swap1\n      dup2\n      mstore\n      0x20\n      add\n      0x00\n      keccak256\n        /* \"contracts/Milestone.sol\":3015:3016  1 */\n      0x01\n        /* \"contracts/Milestone.sol\":3013:3014  i */\n      dup3\n        /* \"contracts/Milestone.sol\":3013:3016  i+1 */\n      tag_217\n      swap2\n      swap1\n      tag_218\n      jump\t// in\n    tag_217:\n        /* \"contracts/Milestone.sol\":2987:3017  milestones[serviceNumber][i+1] */\n      dup2\n      sload\n      dup2\n      lt\n      tag_219\n      jumpi\n      tag_220\n      tag_106\n      jump\t// in\n    tag_220:\n    tag_219:\n      swap1\n      0x00\n      mstore\n      keccak256(0x00, 0x20)\n      swap1\n      0x03\n      mul\n      add\n        /* \"contracts/Milestone.sol\":2956:2966  milestones */\n      0x00\n        /* \"contracts/Milestone.sol\":2956:2981  milestones[serviceNumber] */\n      dup1\n        /* \"contracts/Milestone.sol\":2967:2980  serviceNumber */\n      dup8\n        /* \"contracts/Milestone.sol\":2956:2981  milestones[serviceNumber] */\n      dup2\n      mstore\n      0x20\n      add\n      swap1\n      dup2\n      mstore\n      0x20\n      add\n      0x00\n      keccak256\n        /* \"contracts/Milestone.sol\":2982:2983  i */\n      dup3\n        /* \"contracts/Milestone.sol\":2956:2984  milestones[serviceNumber][i] */\n      dup2\n      sload\n      dup2\n      lt\n      tag_222\n      jumpi\n      tag_223\n      tag_106\n      jump\t// in\n    tag_223:\n    tag_222:\n      swap1\n      0x00\n      mstore\n      keccak256(0x00, 0x20)\n      swap1\n      0x03\n      mul\n      add\n        /* \"contracts/Milestone.sol\":2956:3017  milestones[serviceNumber][i] = milestones[serviceNumber][i+1] */\n      0x00\n      dup3\n      add\n      dup2\n      0x00\n      add\n      swap1\n      dup1\n      sload\n      tag_225\n      swap1\n      tag_109\n      jump\t// in\n    tag_225:\n      tag_226\n      swap3\n      swap2\n      swap1\n      tag_227\n      jump\t// in\n    tag_226:\n      pop\n      0x01\n      dup3\n      add\n      dup2\n      0x01\n      add\n      swap1\n      dup1\n      sload\n      tag_228\n      swap1\n      tag_109\n      jump\t// in\n    tag_228:\n      tag_229\n      swap3\n      swap2\n      swap1\n      tag_227\n      jump\t// in\n    tag_229:\n      pop\n      0x02\n      dup3\n      add\n      0x00\n      swap1\n      sload\n      swap1\n      0x0100\n      exp\n      swap1\n      div\n      0xff\n      and\n      dup2\n      0x02\n      add\n      exp(0x0100, 0x00)\n      dup2\n      sload\n      dup2\n      0xff\n      mul\n      not\n      and\n      swap1\n      dup4\n      0x06\n      dup2\n      gt\n      iszero\n      tag_230\n      jumpi\n      tag_231\n      tag_103\n      jump\t// in\n    tag_231:\n    tag_230:\n      mul\n      or\n      swap1\n      sstore\n      pop\n      swap1\n      pop\n      pop\n        /* \"contracts/Milestone.sol\":2938:2941  i++ */\n      dup1\n      dup1\n      tag_232\n      swap1\n      tag_233\n      jump\t// in\n    tag_232:\n      swap2\n      pop\n      pop\n        /* \"contracts/Milestone.sol\":2870:3028  for (uint i = milestoneNum; i < milestones[serviceNumber].length-1; i++){... */\n      jump(tag_212)\n    tag_213:\n      pop\n        /* \"contracts/Milestone.sol\":3037:3047  milestones */\n      0x00\n        /* \"contracts/Milestone.sol\":3037:3062  milestones[serviceNumber] */\n      dup1\n        /* \"contracts/Milestone.sol\":3048:3061  serviceNumber */\n      dup6\n        /* \"contracts/Milestone.sol\":3037:3062  milestones[serviceNumber] */\n      dup2\n      mstore\n      0x20\n      add\n      swap1\n      dup2\n      mstore\n      0x20\n      add\n      0x00\n      keccak256\n        /* \"contracts/Milestone.sol\":3037:3068  milestones[serviceNumber].pop() */\n      dup1\n      sload\n      dup1\n      tag_234\n      jumpi\n      tag_235\n      tag_236\n      jump\t// in\n    tag_235:\n    tag_234:\n      0x01\n      swap1\n      sub\n      dup2\n      dup2\n      swap1\n      0x00\n      mstore\n      keccak256(0x00, 0x20)\n      swap1\n      0x03\n      mul\n      add\n      0x00\n      dup1\n      dup3\n      add\n      0x00\n      tag_238\n      swap2\n      swap1\n      tag_239\n      jump\t// in\n    tag_238:\n      0x01\n      dup3\n      add\n      0x00\n      tag_240\n      swap2\n      swap1\n      tag_239\n      jump\t// in\n    tag_240:\n      0x02\n      dup3\n      add\n      exp(0x0100, 0x00)\n      dup2\n      sload\n      swap1\n      0xff\n      mul\n      not\n      and\n      swap1\n      sstore\n      pop\n      pop\n      swap1\n      sstore\n        /* \"contracts/Milestone.sol\":3084:3181  milestoneDeleted(serviceNumber, milestoneNum, deletedMilestone, milestones[serviceNumber].length) */\n      0x6d4454e6395559c04e81910079e267dc2b89dc5c7c0c09baf1068ffff6542ce1\n        /* \"contracts/Milestone.sol\":3101:3114  serviceNumber */\n      dup5\n        /* \"contracts/Milestone.sol\":3116:3128  milestoneNum */\n      dup5\n        /* \"contracts/Milestone.sol\":3130:3146  deletedMilestone */\n      dup4\n        /* \"contracts/Milestone.sol\":3148:3158  milestones */\n      0x00\n        /* \"contracts/Milestone.sol\":3148:3173  milestones[serviceNumber] */\n      dup1\n        /* \"contracts/Milestone.sol\":3159:3172  serviceNumber */\n      dup10\n        /* \"contracts/Milestone.sol\":3148:3173  milestones[serviceNumber] */\n      dup2\n      mstore\n      0x20\n      add\n      swap1\n      dup2\n      mstore\n      0x20\n      add\n      0x00\n      keccak256\n        /* \"contracts/Milestone.sol\":3148:3180  milestones[serviceNumber].length */\n      dup1\n      sload\n      swap1\n      pop\n        /* \"contracts/Milestone.sol\":3084:3181  milestoneDeleted(serviceNumber, milestoneNum, deletedMilestone, milestones[serviceNumber].length) */\n      mload(0x40)\n      tag_241\n      swap5\n      swap4\n      swap3\n      swap2\n      swap1\n      tag_242\n      jump\t// in\n    tag_241:\n      mload(0x40)\n      dup1\n      swap2\n      sub\n      swap1\n      log1\n        /* \"contracts/Milestone.sol\":2774:3188  {... */\n      pop\n        /* \"contracts/Milestone.sol\":2662:3188  function deleteMilestone(uint256 serviceNumber, uint256 milestoneNum) external doMilestonesExist(serviceNumber) {... */\n      pop\n      pop\n      pop\n      jump\t// out\n        /* \"contracts/Milestone.sol\":4281:4483  function updateMilestoneStarted(uint256 serviceNumber, uint256 milestoneNum) external doMilestonesExist(serviceNumber) {... */\n    tag_80:\n        /* \"contracts/Milestone.sol\":4385:4398  serviceNumber */\n      dup2\n        /* \"contracts/Milestone.sol\":1211:1212  0 */\n      0x00\n        /* \"contracts/Milestone.sol\":1175:1185  milestones */\n      dup1\n        /* \"contracts/Milestone.sol\":1175:1200  milestones[serviceNumber] */\n      0x00\n        /* \"contracts/Milestone.sol\":1186:1199  serviceNumber */\n      dup4\n        /* \"contracts/Milestone.sol\":1175:1200  milestones[serviceNumber] */\n      dup2\n      mstore\n      0x20\n      add\n      swap1\n      dup2\n      mstore\n      0x20\n      add\n      0x00\n      keccak256\n        /* \"contracts/Milestone.sol\":1175:1207  milestones[serviceNumber].length */\n      dup1\n      sload\n      swap1\n      pop\n        /* \"contracts/Milestone.sol\":1175:1212  milestones[serviceNumber].length != 0 */\n      eq\n      iszero\n        /* \"contracts/Milestone.sol\":1167:1253  require(milestones[serviceNumber].length != 0, \"Milestones have not been created yet\") */\n      tag_244\n      jumpi\n      mload(0x40)\n      0x08c379a000000000000000000000000000000000000000000000000000000000\n      dup2\n      mstore\n      0x04\n      add\n      tag_245\n      swap1\n      tag_99\n      jump\t// in\n    tag_245:\n      mload(0x40)\n      dup1\n      swap2\n      sub\n      swap1\n      revert\n    tag_244:\n        /* \"contracts/Milestone.sol\":4410:4476  updateMilestoneStatus(serviceNumber, milestoneNum, Status.started) */\n      tag_247\n        /* \"contracts/Milestone.sol\":4432:4445  serviceNumber */\n      dup4\n        /* \"contracts/Milestone.sol\":4447:4459  milestoneNum */\n      dup4\n        /* \"contracts/Milestone.sol\":4461:4475  Status.started */\n      0x03\n        /* \"contracts/Milestone.sol\":4410:4431  updateMilestoneStatus */\n      tag_149\n        /* \"contracts/Milestone.sol\":4410:4476  updateMilestoneStatus(serviceNumber, milestoneNum, Status.started) */\n      jump\t// in\n    tag_247:\n        /* \"contracts/Milestone.sol\":4281:4483  function updateMilestoneStarted(uint256 serviceNumber, uint256 milestoneNum) external doMilestonesExist(serviceNumber) {... */\n      pop\n      pop\n      pop\n      jump\t// out\n        /* \"contracts/Milestone.sol\":1579:1963  function createMilestone(uint256 serviceNumber, string memory titleMilestone, string memory descriptionMilestone) external {... */\n    tag_84:\n        /* \"contracts/Milestone.sol\":1712:1741  milestone memory newMilestone */\n      0x00\n        /* \"contracts/Milestone.sol\":1744:1807  milestone(titleMilestone, descriptionMilestone, Status.pending) */\n      mload(0x40)\n      dup1\n      0x60\n      add\n      0x40\n      mstore\n      dup1\n        /* \"contracts/Milestone.sol\":1754:1768  titleMilestone */\n      dup5\n        /* \"contracts/Milestone.sol\":1744:1807  milestone(titleMilestone, descriptionMilestone, Status.pending) */\n      dup2\n      mstore\n      0x20\n      add\n        /* \"contracts/Milestone.sol\":1770:1790  descriptionMilestone */\n      dup4\n        /* \"contracts/Milestone.sol\":1744:1807  milestone(titleMilestone, descriptionMilestone, Status.pending) */\n      dup2\n      mstore\n      0x20\n      add\n        /* \"contracts/Milestone.sol\":1792:1806  Status.pending */\n      0x01\n        /* \"contracts/Milestone.sol\":1744:1807  milestone(titleMilestone, descriptionMilestone, Status.pending) */\n      0x06\n      dup2\n      gt\n      iszero\n      tag_249\n      jumpi\n      tag_250\n      tag_103\n      jump\t// in\n    tag_250:\n    tag_249:\n      dup2\n      mstore\n      pop\n        /* \"contracts/Milestone.sol\":1712:1807  milestone memory newMilestone = milestone(titleMilestone, descriptionMilestone, Status.pending) */\n      swap1\n      pop\n        /* \"contracts/Milestone.sol\":1817:1827  milestones */\n      0x00\n        /* \"contracts/Milestone.sol\":1817:1842  milestones[serviceNumber] */\n      dup1\n        /* \"contracts/Milestone.sol\":1828:1841  serviceNumber */\n      dup6\n        /* \"contracts/Milestone.sol\":1817:1842  milestones[serviceNumber] */\n      dup2\n      mstore\n      0x20\n      add\n      swap1\n      dup2\n      mstore\n      0x20\n      add\n      0x00\n      keccak256\n        /* \"contracts/Milestone.sol\":1848:1860  newMilestone */\n      dup2\n        /* \"contracts/Milestone.sol\":1817:1861  milestones[serviceNumber].push(newMilestone) */\n      swap1\n      dup1\n      0x01\n      dup2\n      sload\n      add\n      dup1\n      dup3\n      sstore\n      dup1\n      swap2\n      pop\n      pop\n      0x01\n      swap1\n      sub\n      swap1\n      0x00\n      mstore\n      keccak256(0x00, 0x20)\n      swap1\n      0x03\n      mul\n      add\n      0x00\n      swap1\n      swap2\n      swap1\n      swap2\n      swap1\n      swap2\n      pop\n      0x00\n      dup3\n      add\n      mload\n      dup2\n      0x00\n      add\n      swap1\n      dup1\n      mload\n      swap1\n      0x20\n      add\n      swap1\n      tag_252\n      swap3\n      swap2\n      swap1\n      tag_127\n      jump\t// in\n    tag_252:\n      pop\n      0x20\n      dup3\n      add\n      mload\n      dup2\n      0x01\n      add\n      swap1\n      dup1\n      mload\n      swap1\n      0x20\n      add\n      swap1\n      tag_253\n      swap3\n      swap2\n      swap1\n      tag_127\n      jump\t// in\n    tag_253:\n      pop\n      0x40\n      dup3\n      add\n      mload\n      dup2\n      0x02\n      add\n      exp(0x0100, 0x00)\n      dup2\n      sload\n      dup2\n      0xff\n      mul\n      not\n      and\n      swap1\n      dup4\n      0x06\n      dup2\n      gt\n      iszero\n      tag_254\n      jumpi\n      tag_255\n      tag_103\n      jump\t// in\n    tag_255:\n    tag_254:\n      mul\n      or\n      swap1\n      sstore\n      pop\n      pop\n      pop\n        /* \"contracts/Milestone.sol\":1877:1956  milestoneCreated(serviceNumber, newMilestone, milestones[serviceNumber].length) */\n      0x0e5e5840c0784eb00d266bdfb12bc390d99afa672e3da23f76eb1a932947bed6\n        /* \"contracts/Milestone.sol\":1894:1907  serviceNumber */\n      dup5\n        /* \"contracts/Milestone.sol\":1909:1921  newMilestone */\n      dup3\n        /* \"contracts/Milestone.sol\":1923:1933  milestones */\n      0x00\n        /* \"contracts/Milestone.sol\":1923:1948  milestones[serviceNumber] */\n      dup1\n        /* \"contracts/Milestone.sol\":1934:1947  serviceNumber */\n      dup9\n        /* \"contracts/Milestone.sol\":1923:1948  milestones[serviceNumber] */\n      dup2\n      mstore\n      0x20\n      add\n      swap1\n      dup2\n      mstore\n      0x20\n      add\n      0x00\n      keccak256\n        /* \"contracts/Milestone.sol\":1923:1955  milestones[serviceNumber].length */\n      dup1\n      sload\n      swap1\n      pop\n        /* \"contracts/Milestone.sol\":1877:1956  milestoneCreated(serviceNumber, newMilestone, milestones[serviceNumber].length) */\n      mload(0x40)\n      tag_256\n      swap4\n      swap3\n      swap2\n      swap1\n      tag_257\n      jump\t// in\n    tag_256:\n      mload(0x40)\n      dup1\n      swap2\n      sub\n      swap1\n      log1\n        /* \"contracts/Milestone.sol\":1702:1963  {... */\n      pop\n        /* \"contracts/Milestone.sol\":1579:1963  function createMilestone(uint256 serviceNumber, string memory titleMilestone, string memory descriptionMilestone) external {... */\n      pop\n      pop\n      pop\n      jump\t// out\n        /* \"contracts/Milestone.sol\":5048:5252  function updateMilestoneConflict(uint256 serviceNumber, uint256 milestoneNum) external doMilestonesExist(serviceNumber) {... */\n    tag_87:\n        /* \"contracts/Milestone.sol\":5153:5166  serviceNumber */\n      dup2\n        /* \"contracts/Milestone.sol\":1211:1212  0 */\n      0x00\n        /* \"contracts/Milestone.sol\":1175:1185  milestones */\n      dup1\n        /* \"contracts/Milestone.sol\":1175:1200  milestones[serviceNumber] */\n      0x00\n        /* \"contracts/Milestone.sol\":1186:1199  serviceNumber */\n      dup4\n        /* \"contracts/Milestone.sol\":1175:1200  milestones[serviceNumber] */\n      dup2\n      mstore\n      0x20\n      add\n      swap1\n      dup2\n      mstore\n      0x20\n      add\n      0x00\n      keccak256\n        /* \"contracts/Milestone.sol\":1175:1207  milestones[serviceNumber].length */\n      dup1\n      sload\n      swap1\n      pop\n        /* \"contracts/Milestone.sol\":1175:1212  milestones[serviceNumber].length != 0 */\n      eq\n      iszero\n        /* \"contracts/Milestone.sol\":1167:1253  require(milestones[serviceNumber].length != 0, \"Milestones have not been created yet\") */\n      tag_259\n      jumpi\n      mload(0x40)\n      0x08c379a000000000000000000000000000000000000000000000000000000000\n      dup2\n      mstore\n      0x04\n      add\n      tag_260\n      swap1\n      tag_99\n      jump\t// in\n    tag_260:\n      mload(0x40)\n      dup1\n      swap2\n      sub\n      swap1\n      revert\n    tag_259:\n        /* \"contracts/Milestone.sol\":5178:5245  updateMilestoneStatus(serviceNumber, milestoneNum, Status.conflict) */\n      tag_262\n        /* \"contracts/Milestone.sol\":5200:5213  serviceNumber */\n      dup4\n        /* \"contracts/Milestone.sol\":5215:5227  milestoneNum */\n      dup4\n        /* \"contracts/Milestone.sol\":5229:5244  Status.conflict */\n      0x06\n        /* \"contracts/Milestone.sol\":5178:5199  updateMilestoneStatus */\n      tag_149\n        /* \"contracts/Milestone.sol\":5178:5245  updateMilestoneStatus(serviceNumber, milestoneNum, Status.conflict) */\n      jump\t// in\n    tag_262:\n        /* \"contracts/Milestone.sol\":5048:5252  function updateMilestoneConflict(uint256 serviceNumber, uint256 milestoneNum) external doMilestonesExist(serviceNumber) {... */\n      pop\n      pop\n      pop\n      jump\t// out\n        /* \"contracts/Milestone.sol\":3754:3976  function updateAllMilestonePending(uint256 serviceNumber) external {... */\n    tag_90:\n        /* \"contracts/Milestone.sol\":3836:3842  uint i */\n      0x00\n        /* \"contracts/Milestone.sol\":3831:3970  for (uint i = 0; i < milestones[serviceNumber].length; i++){... */\n    tag_264:\n        /* \"contracts/Milestone.sol\":3852:3862  milestones */\n      0x00\n        /* \"contracts/Milestone.sol\":3852:3877  milestones[serviceNumber] */\n      dup1\n        /* \"contracts/Milestone.sol\":3863:3876  serviceNumber */\n      dup4\n        /* \"contracts/Milestone.sol\":3852:3877  milestones[serviceNumber] */\n      dup2\n      mstore\n      0x20\n      add\n      swap1\n      dup2\n      mstore\n      0x20\n      add\n      0x00\n      keccak256\n        /* \"contracts/Milestone.sol\":3852:3884  milestones[serviceNumber].length */\n      dup1\n      sload\n      swap1\n      pop\n        /* \"contracts/Milestone.sol\":3848:3849  i */\n      dup2\n        /* \"contracts/Milestone.sol\":3848:3884  i < milestones[serviceNumber].length */\n      lt\n        /* \"contracts/Milestone.sol\":3831:3970  for (uint i = 0; i < milestones[serviceNumber].length; i++){... */\n      iszero\n      tag_265\n      jumpi\n        /* \"contracts/Milestone.sol\":3904:3959  updateMilestoneStatus(serviceNumber, i, Status.pending) */\n      tag_267\n        /* \"contracts/Milestone.sol\":3926:3939  serviceNumber */\n      dup3\n        /* \"contracts/Milestone.sol\":3941:3942  i */\n      dup3\n        /* \"contracts/Milestone.sol\":3944:3958  Status.pending */\n      0x01\n        /* \"contracts/Milestone.sol\":3904:3925  updateMilestoneStatus */\n      tag_149\n        /* \"contracts/Milestone.sol\":3904:3959  updateMilestoneStatus(serviceNumber, i, Status.pending) */\n      jump\t// in\n    tag_267:\n        /* \"contracts/Milestone.sol\":3886:3889  i++ */\n      dup1\n      dup1\n      tag_268\n      swap1\n      tag_233\n      jump\t// in\n    tag_268:\n      swap2\n      pop\n      pop\n        /* \"contracts/Milestone.sol\":3831:3970  for (uint i = 0; i < milestones[serviceNumber].length; i++){... */\n      jump(tag_264)\n    tag_265:\n      pop\n        /* \"contracts/Milestone.sol\":3754:3976  function updateAllMilestonePending(uint256 serviceNumber) external {... */\n      pop\n      jump\t// out\n        /* \"contracts/Milestone.sol\":5318:5586  function getMilestoneStatus(uint256 serviceNumber, uint256 milestoneNumber) public view doMilestonesExist(serviceNumber) doSpecificMilestoneExist(serviceNumber, milestoneNumber) returns (Status) {... */\n    tag_93:\n        /* \"contracts/Milestone.sol\":5505:5511  Status */\n      0x00\n        /* \"contracts/Milestone.sol\":5424:5437  serviceNumber */\n      dup3\n        /* \"contracts/Milestone.sol\":1211:1212  0 */\n      0x00\n        /* \"contracts/Milestone.sol\":1175:1185  milestones */\n      dup1\n        /* \"contracts/Milestone.sol\":1175:1200  milestones[serviceNumber] */\n      0x00\n        /* \"contracts/Milestone.sol\":1186:1199  serviceNumber */\n      dup4\n        /* \"contracts/Milestone.sol\":1175:1200  milestones[serviceNumber] */\n      dup2\n      mstore\n      0x20\n      add\n      swap1\n      dup2\n      mstore\n      0x20\n      add\n      0x00\n      keccak256\n        /* \"contracts/Milestone.sol\":1175:1207  milestones[serviceNumber].length */\n      dup1\n      sload\n      swap1\n      pop\n        /* \"contracts/Milestone.sol\":1175:1212  milestones[serviceNumber].length != 0 */\n      eq\n      iszero\n        /* \"contracts/Milestone.sol\":1167:1253  require(milestones[serviceNumber].length != 0, \"Milestones have not been created yet\") */\n      tag_270\n      jumpi\n      mload(0x40)\n      0x08c379a000000000000000000000000000000000000000000000000000000000\n      dup2\n      mstore\n      0x04\n      add\n      tag_271\n      swap1\n      tag_99\n      jump\t// in\n    tag_271:\n      mload(0x40)\n      dup1\n      swap2\n      sub\n      swap1\n      revert\n    tag_270:\n        /* \"contracts/Milestone.sol\":5464:5477  serviceNumber */\n      dup4\n        /* \"contracts/Milestone.sol\":5479:5494  milestoneNumber */\n      dup4\n        /* \"contracts/Milestone.sol\":1397:1407  milestones */\n      0x00\n        /* \"contracts/Milestone.sol\":1397:1422  milestones[serviceNumber] */\n      dup1\n        /* \"contracts/Milestone.sol\":1408:1421  serviceNumber */\n      dup4\n        /* \"contracts/Milestone.sol\":1397:1422  milestones[serviceNumber] */\n      dup2\n      mstore\n      0x20\n      add\n      swap1\n      dup2\n      mstore\n      0x20\n      add\n      0x00\n      keccak256\n        /* \"contracts/Milestone.sol\":1397:1429  milestones[serviceNumber].length */\n      dup1\n      sload\n      swap1\n      pop\n        /* \"contracts/Milestone.sol\":1382:1394  numMilestone */\n      dup2\n        /* \"contracts/Milestone.sol\":1382:1429  numMilestone < milestones[serviceNumber].length */\n      lt\n        /* \"contracts/Milestone.sol\":1374:1463  require(numMilestone < milestones[serviceNumber].length, \"Milestone number out of range\") */\n      tag_273\n      jumpi\n      mload(0x40)\n      0x08c379a000000000000000000000000000000000000000000000000000000000\n      dup2\n      mstore\n      0x04\n      add\n      tag_274\n      swap1\n      tag_275\n      jump\t// in\n    tag_274:\n      mload(0x40)\n      dup1\n      swap2\n      sub\n      swap1\n      revert\n    tag_273:\n        /* \"contracts/Milestone.sol\":5530:5540  milestones */\n      0x00\n        /* \"contracts/Milestone.sol\":5530:5555  milestones[serviceNumber] */\n      dup1\n        /* \"contracts/Milestone.sol\":5541:5554  serviceNumber */\n      dup8\n        /* \"contracts/Milestone.sol\":5530:5555  milestones[serviceNumber] */\n      dup2\n      mstore\n      0x20\n      add\n      swap1\n      dup2\n      mstore\n      0x20\n      add\n      0x00\n      keccak256\n        /* \"contracts/Milestone.sol\":5556:5571  milestoneNumber */\n      dup6\n        /* \"contracts/Milestone.sol\":5530:5572  milestones[serviceNumber][milestoneNumber] */\n      dup2\n      sload\n      dup2\n      lt\n      tag_277\n      jumpi\n      tag_278\n      tag_106\n      jump\t// in\n    tag_278:\n    tag_277:\n      swap1\n      0x00\n      mstore\n      keccak256(0x00, 0x20)\n      swap1\n      0x03\n      mul\n      add\n        /* \"contracts/Milestone.sol\":5530:5579  milestones[serviceNumber][milestoneNumber].status */\n      0x02\n      add\n      0x00\n      swap1\n      sload\n      swap1\n      0x0100\n      exp\n      swap1\n      div\n      0xff\n      and\n        /* \"contracts/Milestone.sol\":5523:5579  return milestones[serviceNumber][milestoneNumber].status */\n      swap4\n      pop\n        /* \"contracts/Milestone.sol\":1263:1264  _ */\n      pop\n      pop\n        /* \"contracts/Milestone.sol\":5318:5586  function getMilestoneStatus(uint256 serviceNumber, uint256 milestoneNumber) public view doMilestonesExist(serviceNumber) doSpecificMilestoneExist(serviceNumber, milestoneNumber) returns (Status) {... */\n      pop\n      swap3\n      swap2\n      pop\n      pop\n      jump\t// out\n        /* \"contracts/Milestone.sol\":6086:6409  function checkAllMilestoneStatusMatch(uint256 serviceNumber, Status state) internal view returns (bool) {... */\n    tag_135:\n        /* \"contracts/Milestone.sol\":6184:6188  bool */\n      0x00\n        /* \"contracts/Milestone.sol\":6205:6214  uint256 i */\n      dup1\n        /* \"contracts/Milestone.sol\":6217:6218  0 */\n      0x00\n        /* \"contracts/Milestone.sol\":6205:6218  uint256 i = 0 */\n      swap1\n      pop\n        /* \"contracts/Milestone.sol\":6200:6382  for (uint256 i = 0; i < milestones[serviceNumber].length; i++) {... */\n    tag_281:\n        /* \"contracts/Milestone.sol\":6224:6234  milestones */\n      0x00\n        /* \"contracts/Milestone.sol\":6224:6249  milestones[serviceNumber] */\n      dup1\n        /* \"contracts/Milestone.sol\":6235:6248  serviceNumber */\n      dup6\n        /* \"contracts/Milestone.sol\":6224:6249  milestones[serviceNumber] */\n      dup2\n      mstore\n      0x20\n      add\n      swap1\n      dup2\n      mstore\n      0x20\n      add\n      0x00\n      keccak256\n        /* \"contracts/Milestone.sol\":6224:6256  milestones[serviceNumber].length */\n      dup1\n      sload\n      swap1\n      pop\n        /* \"contracts/Milestone.sol\":6220:6221  i */\n      dup2\n        /* \"contracts/Milestone.sol\":6220:6256  i < milestones[serviceNumber].length */\n      lt\n        /* \"contracts/Milestone.sol\":6200:6382  for (uint256 i = 0; i < milestones[serviceNumber].length; i++) {... */\n      iszero\n      tag_282\n      jumpi\n        /* \"contracts/Milestone.sol\":6320:6325  state */\n      dup3\n        /* \"contracts/Milestone.sol\":6281:6325  milestones[serviceNumber][i].status != state */\n      0x06\n      dup2\n      gt\n      iszero\n      tag_284\n      jumpi\n      tag_285\n      tag_103\n      jump\t// in\n    tag_285:\n    tag_284:\n        /* \"contracts/Milestone.sol\":6281:6291  milestones */\n      0x00\n        /* \"contracts/Milestone.sol\":6281:6306  milestones[serviceNumber] */\n      dup1\n        /* \"contracts/Milestone.sol\":6292:6305  serviceNumber */\n      dup7\n        /* \"contracts/Milestone.sol\":6281:6306  milestones[serviceNumber] */\n      dup2\n      mstore\n      0x20\n      add\n      swap1\n      dup2\n      mstore\n      0x20\n      add\n      0x00\n      keccak256\n        /* \"contracts/Milestone.sol\":6307:6308  i */\n      dup3\n        /* \"contracts/Milestone.sol\":6281:6309  milestones[serviceNumber][i] */\n      dup2\n      sload\n      dup2\n      lt\n      tag_286\n      jumpi\n      tag_287\n      tag_106\n      jump\t// in\n    tag_287:\n    tag_286:\n      swap1\n      0x00\n      mstore\n      keccak256(0x00, 0x20)\n      swap1\n      0x03\n      mul\n      add\n        /* \"contracts/Milestone.sol\":6281:6316  milestones[serviceNumber][i].status */\n      0x02\n      add\n      0x00\n      swap1\n      sload\n      swap1\n      0x0100\n      exp\n      swap1\n      div\n      0xff\n      and\n        /* \"contracts/Milestone.sol\":6281:6325  milestones[serviceNumber][i].status != state */\n      0x06\n      dup2\n      gt\n      iszero\n      tag_289\n      jumpi\n      tag_290\n      tag_103\n      jump\t// in\n    tag_290:\n    tag_289:\n      eq\n        /* \"contracts/Milestone.sol\":6277:6372  if (milestones[serviceNumber][i].status != state) {... */\n      tag_291\n      jumpi\n        /* \"contracts/Milestone.sol\":6352:6357  false */\n      0x00\n        /* \"contracts/Milestone.sol\":6345:6357  return false */\n      swap2\n      pop\n      pop\n      jump(tag_280)\n        /* \"contracts/Milestone.sol\":6277:6372  if (milestones[serviceNumber][i].status != state) {... */\n    tag_291:\n        /* \"contracts/Milestone.sol\":6258:6261  i++ */\n      dup1\n      dup1\n      tag_292\n      swap1\n      tag_233\n      jump\t// in\n    tag_292:\n      swap2\n      pop\n      pop\n        /* \"contracts/Milestone.sol\":6200:6382  for (uint256 i = 0; i < milestones[serviceNumber].length; i++) {... */\n      jump(tag_281)\n    tag_282:\n      pop\n        /* \"contracts/Milestone.sol\":6398:6402  true */\n      0x01\n        /* \"contracts/Milestone.sol\":6391:6402  return true */\n      swap1\n      pop\n        /* \"contracts/Milestone.sol\":6086:6409  function checkAllMilestoneStatusMatch(uint256 serviceNumber, Status state) internal view returns (bool) {... */\n    tag_280:\n      swap3\n      swap2\n      pop\n      pop\n      jump\t// out\n        /* \"contracts/Milestone.sol\":3288:3654  function updateMilestoneStatus(uint256 serviceNumber, uint256 milestoneNum, Status status) internal doMilestonesExist(serviceNumber) {... */\n    tag_149:\n        /* \"contracts/Milestone.sol\":3406:3419  serviceNumber */\n      dup3\n        /* \"contracts/Milestone.sol\":1211:1212  0 */\n      0x00\n        /* \"contracts/Milestone.sol\":1175:1185  milestones */\n      dup1\n        /* \"contracts/Milestone.sol\":1175:1200  milestones[serviceNumber] */\n      0x00\n        /* \"contracts/Milestone.sol\":1186:1199  serviceNumber */\n      dup4\n        /* \"contracts/Milestone.sol\":1175:1200  milestones[serviceNumber] */\n      dup2\n      mstore\n      0x20\n      add\n      swap1\n      dup2\n      mstore\n      0x20\n      add\n      0x00\n      keccak256\n        /* \"contracts/Milestone.sol\":1175:1207  milestones[serviceNumber].length */\n      dup1\n      sload\n      swap1\n      pop\n        /* \"contracts/Milestone.sol\":1175:1212  milestones[serviceNumber].length != 0 */\n      eq\n      iszero\n        /* \"contracts/Milestone.sol\":1167:1253  require(milestones[serviceNumber].length != 0, \"Milestones have not been created yet\") */\n      tag_294\n      jumpi\n      mload(0x40)\n      0x08c379a000000000000000000000000000000000000000000000000000000000\n      dup2\n      mstore\n      0x04\n      add\n      tag_295\n      swap1\n      tag_99\n      jump\t// in\n    tag_295:\n      mload(0x40)\n      dup1\n      swap2\n      sub\n      swap1\n      revert\n    tag_294:\n        /* \"contracts/Milestone.sol\":3431:3447  Status curStatus */\n      0x00\n        /* \"contracts/Milestone.sol\":3450:3460  milestones */\n      dup1\n        /* \"contracts/Milestone.sol\":3450:3475  milestones[serviceNumber] */\n      0x00\n        /* \"contracts/Milestone.sol\":3461:3474  serviceNumber */\n      dup7\n        /* \"contracts/Milestone.sol\":3450:3475  milestones[serviceNumber] */\n      dup2\n      mstore\n      0x20\n      add\n      swap1\n      dup2\n      mstore\n      0x20\n      add\n      0x00\n      keccak256\n        /* \"contracts/Milestone.sol\":3476:3488  milestoneNum */\n      dup5\n        /* \"contracts/Milestone.sol\":3450:3489  milestones[serviceNumber][milestoneNum] */\n      dup2\n      sload\n      dup2\n      lt\n      tag_297\n      jumpi\n      tag_298\n      tag_106\n      jump\t// in\n    tag_298:\n    tag_297:\n      swap1\n      0x00\n      mstore\n      keccak256(0x00, 0x20)\n      swap1\n      0x03\n      mul\n      add\n        /* \"contracts/Milestone.sol\":3450:3496  milestones[serviceNumber][milestoneNum].status */\n      0x02\n      add\n      0x00\n      swap1\n      sload\n      swap1\n      0x0100\n      exp\n      swap1\n      div\n      0xff\n      and\n        /* \"contracts/Milestone.sol\":3431:3496  Status curStatus = milestones[serviceNumber][milestoneNum].status */\n      swap1\n      pop\n        /* \"contracts/Milestone.sol\":3555:3561  status */\n      dup3\n        /* \"contracts/Milestone.sol\":3506:3516  milestones */\n      0x00\n        /* \"contracts/Milestone.sol\":3506:3531  milestones[serviceNumber] */\n      dup1\n        /* \"contracts/Milestone.sol\":3517:3530  serviceNumber */\n      dup8\n        /* \"contracts/Milestone.sol\":3506:3531  milestones[serviceNumber] */\n      dup2\n      mstore\n      0x20\n      add\n      swap1\n      dup2\n      mstore\n      0x20\n      add\n      0x00\n      keccak256\n        /* \"contracts/Milestone.sol\":3532:3544  milestoneNum */\n      dup6\n        /* \"contracts/Milestone.sol\":3506:3545  milestones[serviceNumber][milestoneNum] */\n      dup2\n      sload\n      dup2\n      lt\n      tag_300\n      jumpi\n      tag_301\n      tag_106\n      jump\t// in\n    tag_301:\n    tag_300:\n      swap1\n      0x00\n      mstore\n      keccak256(0x00, 0x20)\n      swap1\n      0x03\n      mul\n      add\n        /* \"contracts/Milestone.sol\":3506:3552  milestones[serviceNumber][milestoneNum].status */\n      0x02\n      add\n      0x00\n        /* \"contracts/Milestone.sol\":3506:3561  milestones[serviceNumber][milestoneNum].status = status */\n      0x0100\n      exp\n      dup2\n      sload\n      dup2\n      0xff\n      mul\n      not\n      and\n      swap1\n      dup4\n      0x06\n      dup2\n      gt\n      iszero\n      tag_303\n      jumpi\n      tag_304\n      tag_103\n      jump\t// in\n    tag_304:\n    tag_303:\n      mul\n      or\n      swap1\n      sstore\n      pop\n        /* \"contracts/Milestone.sol\":3577:3647  milestoneStatusChanged(serviceNumber, milestoneNum, curStatus, status) */\n      0xa4e86334f55642d44167e3603aa4f62296dedbc45291b004f14978bb96daea7b\n        /* \"contracts/Milestone.sol\":3600:3613  serviceNumber */\n      dup6\n        /* \"contracts/Milestone.sol\":3615:3627  milestoneNum */\n      dup6\n        /* \"contracts/Milestone.sol\":3629:3638  curStatus */\n      dup4\n        /* \"contracts/Milestone.sol\":3640:3646  status */\n      dup7\n        /* \"contracts/Milestone.sol\":3577:3647  milestoneStatusChanged(serviceNumber, milestoneNum, curStatus, status) */\n      mload(0x40)\n      tag_305\n      swap5\n      swap4\n      swap3\n      swap2\n      swap1\n      tag_306\n      jump\t// in\n    tag_305:\n      mload(0x40)\n      dup1\n      swap2\n      sub\n      swap1\n      log1\n        /* \"contracts/Milestone.sol\":3421:3654  {... */\n      pop\n        /* \"contracts/Milestone.sol\":3288:3654  function updateMilestoneStatus(uint256 serviceNumber, uint256 milestoneNum, Status status) internal doMilestonesExist(serviceNumber) {... */\n      pop\n      pop\n      pop\n      pop\n      jump\t// out\n        /* \"contracts/Milestone.sol\":7605:7928  function checkAnyMilestoneStatusMatch(uint256 serviceNumber, Status state) internal view returns (bool) {... */\n    tag_182:\n        /* \"contracts/Milestone.sol\":7703:7707  bool */\n      0x00\n        /* \"contracts/Milestone.sol\":7724:7733  uint256 i */\n      dup1\n        /* \"contracts/Milestone.sol\":7736:7737  0 */\n      0x00\n        /* \"contracts/Milestone.sol\":7724:7737  uint256 i = 0 */\n      swap1\n      pop\n        /* \"contracts/Milestone.sol\":7719:7901  for (uint256 i = 0; i < milestones[serviceNumber].length; i++) {... */\n    tag_308:\n        /* \"contracts/Milestone.sol\":7743:7753  milestones */\n      0x00\n        /* \"contracts/Milestone.sol\":7743:7768  milestones[serviceNumber] */\n      dup1\n        /* \"contracts/Milestone.sol\":7754:7767  serviceNumber */\n      dup6\n        /* \"contracts/Milestone.sol\":7743:7768  milestones[serviceNumber] */\n      dup2\n      mstore\n      0x20\n      add\n      swap1\n      dup2\n      mstore\n      0x20\n      add\n      0x00\n      keccak256\n        /* \"contracts/Milestone.sol\":7743:7775  milestones[serviceNumber].length */\n      dup1\n      sload\n      swap1\n      pop\n        /* \"contracts/Milestone.sol\":7739:7740  i */\n      dup2\n        /* \"contracts/Milestone.sol\":7739:7775  i < milestones[serviceNumber].length */\n      lt\n        /* \"contracts/Milestone.sol\":7719:7901  for (uint256 i = 0; i < milestones[serviceNumber].length; i++) {... */\n      iszero\n      tag_309\n      jumpi\n        /* \"contracts/Milestone.sol\":7839:7844  state */\n      dup3\n        /* \"contracts/Milestone.sol\":7800:7844  milestones[serviceNumber][i].status == state */\n      0x06\n      dup2\n      gt\n      iszero\n      tag_311\n      jumpi\n      tag_312\n      tag_103\n      jump\t// in\n    tag_312:\n    tag_311:\n        /* \"contracts/Milestone.sol\":7800:7810  milestones */\n      0x00\n        /* \"contracts/Milestone.sol\":7800:7825  milestones[serviceNumber] */\n      dup1\n        /* \"contracts/Milestone.sol\":7811:7824  serviceNumber */\n      dup7\n        /* \"contracts/Milestone.sol\":7800:7825  milestones[serviceNumber] */\n      dup2\n      mstore\n      0x20\n      add\n      swap1\n      dup2\n      mstore\n      0x20\n      add\n      0x00\n      keccak256\n        /* \"contracts/Milestone.sol\":7826:7827  i */\n      dup3\n        /* \"contracts/Milestone.sol\":7800:7828  milestones[serviceNumber][i] */\n      dup2\n      sload\n      dup2\n      lt\n      tag_313\n      jumpi\n      tag_314\n      tag_106\n      jump\t// in\n    tag_314:\n    tag_313:\n      swap1\n      0x00\n      mstore\n      keccak256(0x00, 0x20)\n      swap1\n      0x03\n      mul\n      add\n        /* \"contracts/Milestone.sol\":7800:7835  milestones[serviceNumber][i].status */\n      0x02\n      add\n      0x00\n      swap1\n      sload\n      swap1\n      0x0100\n      exp\n      swap1\n      div\n      0xff\n      and\n        /* \"contracts/Milestone.sol\":7800:7844  milestones[serviceNumber][i].status == state */\n      0x06\n      dup2\n      gt\n      iszero\n      tag_316\n      jumpi\n      tag_317\n      tag_103\n      jump\t// in\n    tag_317:\n    tag_316:\n      eq\n        /* \"contracts/Milestone.sol\":7796:7891  if (milestones[serviceNumber][i].status == state) {... */\n      iszero\n      tag_318\n      jumpi\n        /* \"contracts/Milestone.sol\":7871:7876  false */\n      0x00\n        /* \"contracts/Milestone.sol\":7864:7876  return false */\n      swap2\n      pop\n      pop\n      jump(tag_307)\n        /* \"contracts/Milestone.sol\":7796:7891  if (milestones[serviceNumber][i].status == state) {... */\n    tag_318:\n        /* \"contracts/Milestone.sol\":7777:7780  i++ */\n      dup1\n      dup1\n      tag_319\n      swap1\n      tag_233\n      jump\t// in\n    tag_319:\n      swap2\n      pop\n      pop\n        /* \"contracts/Milestone.sol\":7719:7901  for (uint256 i = 0; i < milestones[serviceNumber].length; i++) {... */\n      jump(tag_308)\n    tag_309:\n      pop\n        /* \"contracts/Milestone.sol\":7917:7921  true */\n      0x01\n        /* \"contracts/Milestone.sol\":7910:7921  return true */\n      swap1\n      pop\n        /* \"contracts/Milestone.sol\":7605:7928  function checkAnyMilestoneStatusMatch(uint256 serviceNumber, Status state) internal view returns (bool) {... */\n    tag_307:\n      swap3\n      swap2\n      pop\n      pop\n      jump\t// out\n    tag_127:\n      dup3\n      dup1\n      sload\n      tag_320\n      swap1\n      tag_109\n      jump\t// in\n    tag_320:\n      swap1\n      0x00\n      mstore\n      keccak256(0x00, 0x20)\n      swap1\n      0x1f\n      add\n      0x20\n      swap1\n      div\n      dup2\n      add\n      swap3\n      dup3\n      tag_322\n      jumpi\n      0x00\n      dup6\n      sstore\n      jump(tag_321)\n    tag_322:\n      dup3\n      0x1f\n      lt\n      tag_323\n      jumpi\n      dup1\n      mload\n      not(0xff)\n      and\n      dup4\n      dup1\n      add\n      or\n      dup6\n      sstore\n      jump(tag_321)\n    tag_323:\n      dup3\n      dup1\n      add\n      0x01\n      add\n      dup6\n      sstore\n      dup3\n      iszero\n      tag_321\n      jumpi\n      swap2\n      dup3\n      add\n    tag_324:\n      dup3\n      dup2\n      gt\n      iszero\n      tag_325\n      jumpi\n      dup3\n      mload\n      dup3\n      sstore\n      swap2\n      0x20\n      add\n      swap2\n      swap1\n      0x01\n      add\n      swap1\n      jump(tag_324)\n    tag_325:\n    tag_321:\n      pop\n      swap1\n      pop\n      tag_326\n      swap2\n      swap1\n      tag_327\n      jump\t// in\n    tag_326:\n      pop\n      swap1\n      jump\t// out\n    tag_227:\n      dup3\n      dup1\n      sload\n      tag_328\n      swap1\n      tag_109\n      jump\t// in\n    tag_328:\n      swap1\n      0x00\n      mstore\n      keccak256(0x00, 0x20)\n      swap1\n      0x1f\n      add\n      0x20\n      swap1\n      div\n      dup2\n      add\n      swap3\n      dup3\n      tag_330\n      jumpi\n      0x00\n      dup6\n      sstore\n      jump(tag_329)\n    tag_330:\n      dup3\n      0x1f\n      lt\n      tag_331\n      jumpi\n      dup1\n      sload\n      dup6\n      sstore\n      jump(tag_329)\n    tag_331:\n      dup3\n      dup1\n      add\n      0x01\n      add\n      dup6\n      sstore\n      dup3\n      iszero\n      tag_329\n      jumpi\n      0x00\n      mstore\n      keccak256(0x00, 0x20)\n      swap2\n      0x1f\n      add\n      0x20\n      swap1\n      div\n      dup3\n      add\n    tag_332:\n      dup3\n      dup2\n      gt\n      iszero\n      tag_333\n      jumpi\n      dup3\n      sload\n      dup3\n      sstore\n      swap2\n      0x01\n      add\n      swap2\n      swap1\n      0x01\n      add\n      swap1\n      jump(tag_332)\n    tag_333:\n    tag_329:\n      pop\n      swap1\n      pop\n      tag_334\n      swap2\n      swap1\n      tag_327\n      jump\t// in\n    tag_334:\n      pop\n      swap1\n      jump\t// out\n    tag_239:\n      pop\n      dup1\n      sload\n      tag_335\n      swap1\n      tag_109\n      jump\t// in\n    tag_335:\n      0x00\n      dup3\n      sstore\n      dup1\n      0x1f\n      lt\n      tag_337\n      jumpi\n      pop\n      jump(tag_336)\n    tag_337:\n      0x1f\n      add\n      0x20\n      swap1\n      div\n      swap1\n      0x00\n      mstore\n      keccak256(0x00, 0x20)\n      swap1\n      dup2\n      add\n      swap1\n      tag_338\n      swap2\n      swap1\n      tag_327\n      jump\t// in\n    tag_338:\n    tag_336:\n      pop\n      jump\t// out\n    tag_327:\n    tag_339:\n      dup1\n      dup3\n      gt\n      iszero\n      tag_340\n      jumpi\n      0x00\n      dup2\n      0x00\n      swap1\n      sstore\n      pop\n      0x01\n      add\n      jump(tag_339)\n    tag_340:\n      pop\n      swap1\n      jump\t// out\n        /* \"#utility.yul\":7:419   */\n    tag_342:\n        /* \"#utility.yul\":85:90   */\n      0x00\n        /* \"#utility.yul\":110:176   */\n      tag_344\n        /* \"#utility.yul\":126:175   */\n      tag_345\n        /* \"#utility.yul\":168:174   */\n      dup5\n        /* \"#utility.yul\":126:175   */\n      tag_346\n      jump\t// in\n    tag_345:\n        /* \"#utility.yul\":110:176   */\n      tag_347\n      jump\t// in\n    tag_344:\n        /* \"#utility.yul\":101:176   */\n      swap1\n      pop\n        /* \"#utility.yul\":199:205   */\n      dup3\n        /* \"#utility.yul\":192:197   */\n      dup2\n        /* \"#utility.yul\":185:206   */\n      mstore\n        /* \"#utility.yul\":237:241   */\n      0x20\n        /* \"#utility.yul\":230:235   */\n      dup2\n        /* \"#utility.yul\":226:242   */\n      add\n        /* \"#utility.yul\":275:278   */\n      dup5\n        /* \"#utility.yul\":266:272   */\n      dup5\n        /* \"#utility.yul\":261:264   */\n      dup5\n        /* \"#utility.yul\":257:273   */\n      add\n        /* \"#utility.yul\":254:279   */\n      gt\n        /* \"#utility.yul\":251:363   */\n      iszero\n      tag_348\n      jumpi\n        /* \"#utility.yul\":282:361   */\n      tag_349\n      tag_350\n      jump\t// in\n    tag_349:\n        /* \"#utility.yul\":251:363   */\n    tag_348:\n        /* \"#utility.yul\":372:413   */\n      tag_351\n        /* \"#utility.yul\":406:412   */\n      dup5\n        /* \"#utility.yul\":401:404   */\n      dup3\n        /* \"#utility.yul\":396:399   */\n      dup6\n        /* \"#utility.yul\":372:413   */\n      tag_352\n      jump\t// in\n    tag_351:\n        /* \"#utility.yul\":91:419   */\n      pop\n        /* \"#utility.yul\":7:419   */\n      swap4\n      swap3\n      pop\n      pop\n      pop\n      jump\t// out\n        /* \"#utility.yul\":439:779   */\n    tag_353:\n        /* \"#utility.yul\":495:500   */\n      0x00\n        /* \"#utility.yul\":544:547   */\n      dup3\n        /* \"#utility.yul\":537:541   */\n      0x1f\n        /* \"#utility.yul\":529:535   */\n      dup4\n        /* \"#utility.yul\":525:542   */\n      add\n        /* \"#utility.yul\":521:548   */\n      slt\n        /* \"#utility.yul\":511:633   */\n      tag_355\n      jumpi\n        /* \"#utility.yul\":552:631   */\n      tag_356\n      tag_357\n      jump\t// in\n    tag_356:\n        /* \"#utility.yul\":511:633   */\n    tag_355:\n        /* \"#utility.yul\":669:675   */\n      dup2\n        /* \"#utility.yul\":656:676   */\n      calldataload\n        /* \"#utility.yul\":694:773   */\n      tag_358\n        /* \"#utility.yul\":769:772   */\n      dup5\n        /* \"#utility.yul\":761:767   */\n      dup3\n        /* \"#utility.yul\":754:758   */\n      0x20\n        /* \"#utility.yul\":746:752   */\n      dup7\n        /* \"#utility.yul\":742:759   */\n      add\n        /* \"#utility.yul\":694:773   */\n      tag_342\n      jump\t// in\n    tag_358:\n        /* \"#utility.yul\":685:773   */\n      swap2\n      pop\n        /* \"#utility.yul\":501:779   */\n      pop\n        /* \"#utility.yul\":439:779   */\n      swap3\n      swap2\n      pop\n      pop\n      jump\t// out\n        /* \"#utility.yul\":785:924   */\n    tag_359:\n        /* \"#utility.yul\":831:836   */\n      0x00\n        /* \"#utility.yul\":869:875   */\n      dup2\n        /* \"#utility.yul\":856:876   */\n      calldataload\n        /* \"#utility.yul\":847:876   */\n      swap1\n      pop\n        /* \"#utility.yul\":885:918   */\n      tag_361\n        /* \"#utility.yul\":912:917   */\n      dup2\n        /* \"#utility.yul\":885:918   */\n      tag_362\n      jump\t// in\n    tag_361:\n        /* \"#utility.yul\":785:924   */\n      swap3\n      swap2\n      pop\n      pop\n      jump\t// out\n        /* \"#utility.yul\":930:1065   */\n    tag_363:\n        /* \"#utility.yul\":974:979   */\n      0x00\n        /* \"#utility.yul\":1012:1018   */\n      dup2\n        /* \"#utility.yul\":999:1019   */\n      calldataload\n        /* \"#utility.yul\":990:1019   */\n      swap1\n      pop\n        /* \"#utility.yul\":1028:1059   */\n      tag_365\n        /* \"#utility.yul\":1053:1058   */\n      dup2\n        /* \"#utility.yul\":1028:1059   */\n      tag_366\n      jump\t// in\n    tag_365:\n        /* \"#utility.yul\":930:1065   */\n      swap3\n      swap2\n      pop\n      pop\n      jump\t// out\n        /* \"#utility.yul\":1071:1400   */\n    tag_30:\n        /* \"#utility.yul\":1130:1136   */\n      0x00\n        /* \"#utility.yul\":1179:1181   */\n      0x20\n        /* \"#utility.yul\":1167:1176   */\n      dup3\n        /* \"#utility.yul\":1158:1165   */\n      dup5\n        /* \"#utility.yul\":1154:1177   */\n      sub\n        /* \"#utility.yul\":1150:1182   */\n      slt\n        /* \"#utility.yul\":1147:1266   */\n      iszero\n      tag_368\n      jumpi\n        /* \"#utility.yul\":1185:1264   */\n      tag_369\n      tag_370\n      jump\t// in\n    tag_369:\n        /* \"#utility.yul\":1147:1266   */\n    tag_368:\n        /* \"#utility.yul\":1305:1306   */\n      0x00\n        /* \"#utility.yul\":1330:1383   */\n      tag_371\n        /* \"#utility.yul\":1375:1382   */\n      dup5\n        /* \"#utility.yul\":1366:1372   */\n      dup3\n        /* \"#utility.yul\":1355:1364   */\n      dup6\n        /* \"#utility.yul\":1351:1373   */\n      add\n        /* \"#utility.yul\":1330:1383   */\n      tag_359\n      jump\t// in\n    tag_371:\n        /* \"#utility.yul\":1320:1383   */\n      swap2\n      pop\n        /* \"#utility.yul\":1276:1393   */\n      pop\n        /* \"#utility.yul\":1071:1400   */\n      swap3\n      swap2\n      pop\n      pop\n      jump\t// out\n        /* \"#utility.yul\":1406:2385   */\n    tag_83:\n        /* \"#utility.yul\":1503:1509   */\n      0x00\n        /* \"#utility.yul\":1511:1517   */\n      dup1\n        /* \"#utility.yul\":1519:1525   */\n      0x00\n        /* \"#utility.yul\":1568:1570   */\n      0x60\n        /* \"#utility.yul\":1556:1565   */\n      dup5\n        /* \"#utility.yul\":1547:1554   */\n      dup7\n        /* \"#utility.yul\":1543:1566   */\n      sub\n        /* \"#utility.yul\":1539:1571   */\n      slt\n        /* \"#utility.yul\":1536:1655   */\n      iszero\n      tag_373\n      jumpi\n        /* \"#utility.yul\":1574:1653   */\n      tag_374\n      tag_370\n      jump\t// in\n    tag_374:\n        /* \"#utility.yul\":1536:1655   */\n    tag_373:\n        /* \"#utility.yul\":1694:1695   */\n      0x00\n        /* \"#utility.yul\":1719:1772   */\n      tag_375\n        /* \"#utility.yul\":1764:1771   */\n      dup7\n        /* \"#utility.yul\":1755:1761   */\n      dup3\n        /* \"#utility.yul\":1744:1753   */\n      dup8\n        /* \"#utility.yul\":1740:1762   */\n      add\n        /* \"#utility.yul\":1719:1772   */\n      tag_359\n      jump\t// in\n    tag_375:\n        /* \"#utility.yul\":1709:1772   */\n      swap4\n      pop\n        /* \"#utility.yul\":1665:1782   */\n      pop\n        /* \"#utility.yul\":1849:1851   */\n      0x20\n        /* \"#utility.yul\":1838:1847   */\n      dup5\n        /* \"#utility.yul\":1834:1852   */\n      add\n        /* \"#utility.yul\":1821:1853   */\n      calldataload\n        /* \"#utility.yul\":1880:1898   */\n      0xffffffffffffffff\n        /* \"#utility.yul\":1872:1878   */\n      dup2\n        /* \"#utility.yul\":1869:1899   */\n      gt\n        /* \"#utility.yul\":1866:1983   */\n      iszero\n      tag_376\n      jumpi\n        /* \"#utility.yul\":1902:1981   */\n      tag_377\n      tag_378\n      jump\t// in\n    tag_377:\n        /* \"#utility.yul\":1866:1983   */\n    tag_376:\n        /* \"#utility.yul\":2007:2070   */\n      tag_379\n        /* \"#utility.yul\":2062:2069   */\n      dup7\n        /* \"#utility.yul\":2053:2059   */\n      dup3\n        /* \"#utility.yul\":2042:2051   */\n      dup8\n        /* \"#utility.yul\":2038:2060   */\n      add\n        /* \"#utility.yul\":2007:2070   */\n      tag_353\n      jump\t// in\n    tag_379:\n        /* \"#utility.yul\":1997:2070   */\n      swap3\n      pop\n        /* \"#utility.yul\":1792:2080   */\n      pop\n        /* \"#utility.yul\":2147:2149   */\n      0x40\n        /* \"#utility.yul\":2136:2145   */\n      dup5\n        /* \"#utility.yul\":2132:2150   */\n      add\n        /* \"#utility.yul\":2119:2151   */\n      calldataload\n        /* \"#utility.yul\":2178:2196   */\n      0xffffffffffffffff\n        /* \"#utility.yul\":2170:2176   */\n      dup2\n        /* \"#utility.yul\":2167:2197   */\n      gt\n        /* \"#utility.yul\":2164:2281   */\n      iszero\n      tag_380\n      jumpi\n        /* \"#utility.yul\":2200:2279   */\n      tag_381\n      tag_378\n      jump\t// in\n    tag_381:\n        /* \"#utility.yul\":2164:2281   */\n    tag_380:\n        /* \"#utility.yul\":2305:2368   */\n      tag_382\n        /* \"#utility.yul\":2360:2367   */\n      dup7\n        /* \"#utility.yul\":2351:2357   */\n      dup3\n        /* \"#utility.yul\":2340:2349   */\n      dup8\n        /* \"#utility.yul\":2336:2358   */\n      add\n        /* \"#utility.yul\":2305:2368   */\n      tag_353\n      jump\t// in\n    tag_382:\n        /* \"#utility.yul\":2295:2368   */\n      swap2\n      pop\n        /* \"#utility.yul\":2090:2378   */\n      pop\n        /* \"#utility.yul\":1406:2385   */\n      swap3\n      pop\n      swap3\n      pop\n      swap3\n      jump\t// out\n        /* \"#utility.yul\":2391:2865   */\n    tag_45:\n        /* \"#utility.yul\":2459:2465   */\n      0x00\n        /* \"#utility.yul\":2467:2473   */\n      dup1\n        /* \"#utility.yul\":2516:2518   */\n      0x40\n        /* \"#utility.yul\":2504:2513   */\n      dup4\n        /* \"#utility.yul\":2495:2502   */\n      dup6\n        /* \"#utility.yul\":2491:2514   */\n      sub\n        /* \"#utility.yul\":2487:2519   */\n      slt\n        /* \"#utility.yul\":2484:2603   */\n      iszero\n      tag_384\n      jumpi\n        /* \"#utility.yul\":2522:2601   */\n      tag_385\n      tag_370\n      jump\t// in\n    tag_385:\n        /* \"#utility.yul\":2484:2603   */\n    tag_384:\n        /* \"#utility.yul\":2642:2643   */\n      0x00\n        /* \"#utility.yul\":2667:2720   */\n      tag_386\n        /* \"#utility.yul\":2712:2719   */\n      dup6\n        /* \"#utility.yul\":2703:2709   */\n      dup3\n        /* \"#utility.yul\":2692:2701   */\n      dup7\n        /* \"#utility.yul\":2688:2710   */\n      add\n        /* \"#utility.yul\":2667:2720   */\n      tag_359\n      jump\t// in\n    tag_386:\n        /* \"#utility.yul\":2657:2720   */\n      swap3\n      pop\n        /* \"#utility.yul\":2613:2730   */\n      pop\n        /* \"#utility.yul\":2769:2771   */\n      0x20\n        /* \"#utility.yul\":2795:2848   */\n      tag_387\n        /* \"#utility.yul\":2840:2847   */\n      dup6\n        /* \"#utility.yul\":2831:2837   */\n      dup3\n        /* \"#utility.yul\":2820:2829   */\n      dup7\n        /* \"#utility.yul\":2816:2838   */\n      add\n        /* \"#utility.yul\":2795:2848   */\n      tag_359\n      jump\t// in\n    tag_387:\n        /* \"#utility.yul\":2785:2848   */\n      swap2\n      pop\n        /* \"#utility.yul\":2740:2858   */\n      pop\n        /* \"#utility.yul\":2391:2865   */\n      swap3\n      pop\n      swap3\n      swap1\n      pop\n      jump\t// out\n        /* \"#utility.yul\":2871:3996   */\n    tag_26:\n        /* \"#utility.yul\":2977:2983   */\n      0x00\n        /* \"#utility.yul\":2985:2991   */\n      dup1\n        /* \"#utility.yul\":2993:2999   */\n      0x00\n        /* \"#utility.yul\":3001:3007   */\n      dup1\n        /* \"#utility.yul\":3050:3053   */\n      0x80\n        /* \"#utility.yul\":3038:3047   */\n      dup6\n        /* \"#utility.yul\":3029:3036   */\n      dup8\n        /* \"#utility.yul\":3025:3048   */\n      sub\n        /* \"#utility.yul\":3021:3054   */\n      slt\n        /* \"#utility.yul\":3018:3138   */\n      iszero\n      tag_389\n      jumpi\n        /* \"#utility.yul\":3057:3136   */\n      tag_390\n      tag_370\n      jump\t// in\n    tag_390:\n        /* \"#utility.yul\":3018:3138   */\n    tag_389:\n        /* \"#utility.yul\":3177:3178   */\n      0x00\n        /* \"#utility.yul\":3202:3255   */\n      tag_391\n        /* \"#utility.yul\":3247:3254   */\n      dup8\n        /* \"#utility.yul\":3238:3244   */\n      dup3\n        /* \"#utility.yul\":3227:3236   */\n      dup9\n        /* \"#utility.yul\":3223:3245   */\n      add\n        /* \"#utility.yul\":3202:3255   */\n      tag_359\n      jump\t// in\n    tag_391:\n        /* \"#utility.yul\":3192:3255   */\n      swap5\n      pop\n        /* \"#utility.yul\":3148:3265   */\n      pop\n        /* \"#utility.yul\":3304:3306   */\n      0x20\n        /* \"#utility.yul\":3330:3383   */\n      tag_392\n        /* \"#utility.yul\":3375:3382   */\n      dup8\n        /* \"#utility.yul\":3366:3372   */\n      dup3\n        /* \"#utility.yul\":3355:3364   */\n      dup9\n        /* \"#utility.yul\":3351:3373   */\n      add\n        /* \"#utility.yul\":3330:3383   */\n      tag_359\n      jump\t// in\n    tag_392:\n        /* \"#utility.yul\":3320:3383   */\n      swap4\n      pop\n        /* \"#utility.yul\":3275:3393   */\n      pop\n        /* \"#utility.yul\":3460:3462   */\n      0x40\n        /* \"#utility.yul\":3449:3458   */\n      dup6\n        /* \"#utility.yul\":3445:3463   */\n      add\n        /* \"#utility.yul\":3432:3464   */\n      calldataload\n        /* \"#utility.yul\":3491:3509   */\n      0xffffffffffffffff\n        /* \"#utility.yul\":3483:3489   */\n      dup2\n        /* \"#utility.yul\":3480:3510   */\n      gt\n        /* \"#utility.yul\":3477:3594   */\n      iszero\n      tag_393\n      jumpi\n        /* \"#utility.yul\":3513:3592   */\n      tag_394\n      tag_378\n      jump\t// in\n    tag_394:\n        /* \"#utility.yul\":3477:3594   */\n    tag_393:\n        /* \"#utility.yul\":3618:3681   */\n      tag_395\n        /* \"#utility.yul\":3673:3680   */\n      dup8\n        /* \"#utility.yul\":3664:3670   */\n      dup3\n        /* \"#utility.yul\":3653:3662   */\n      dup9\n        /* \"#utility.yul\":3649:3671   */\n      add\n        /* \"#utility.yul\":3618:3681   */\n      tag_353\n      jump\t// in\n    tag_395:\n        /* \"#utility.yul\":3608:3681   */\n      swap3\n      pop\n        /* \"#utility.yul\":3403:3691   */\n      pop\n        /* \"#utility.yul\":3758:3760   */\n      0x60\n        /* \"#utility.yul\":3747:3756   */\n      dup6\n        /* \"#utility.yul\":3743:3761   */\n      add\n        /* \"#utility.yul\":3730:3762   */\n      calldataload\n        /* \"#utility.yul\":3789:3807   */\n      0xffffffffffffffff\n        /* \"#utility.yul\":3781:3787   */\n      dup2\n        /* \"#utility.yul\":3778:3808   */\n      gt\n        /* \"#utility.yul\":3775:3892   */\n      iszero\n      tag_396\n      jumpi\n        /* \"#utility.yul\":3811:3890   */\n      tag_397\n      tag_378\n      jump\t// in\n    tag_397:\n        /* \"#utility.yul\":3775:3892   */\n    tag_396:\n        /* \"#utility.yul\":3916:3979   */\n      tag_398\n        /* \"#utility.yul\":3971:3978   */\n      dup8\n        /* \"#utility.yul\":3962:3968   */\n      dup3\n        /* \"#utility.yul\":3951:3960   */\n      dup9\n        /* \"#utility.yul\":3947:3969   */\n      add\n        /* \"#utility.yul\":3916:3979   */\n      tag_353\n      jump\t// in\n    tag_398:\n        /* \"#utility.yul\":3906:3979   */\n      swap2\n      pop\n        /* \"#utility.yul\":3701:3989   */\n      pop\n        /* \"#utility.yul\":2871:3996   */\n      swap3\n      swap6\n      swap2\n      swap5\n      pop\n      swap3\n      pop\n      jump\t// out\n        /* \"#utility.yul\":4002:4617   */\n    tag_36:\n        /* \"#utility.yul\":4077:4083   */\n      0x00\n        /* \"#utility.yul\":4085:4091   */\n      dup1\n        /* \"#utility.yul\":4093:4099   */\n      0x00\n        /* \"#utility.yul\":4142:4144   */\n      0x60\n        /* \"#utility.yul\":4130:4139   */\n      dup5\n        /* \"#utility.yul\":4121:4128   */\n      dup7\n        /* \"#utility.yul\":4117:4140   */\n      sub\n        /* \"#utility.yul\":4113:4145   */\n      slt\n        /* \"#utility.yul\":4110:4229   */\n      iszero\n      tag_400\n      jumpi\n        /* \"#utility.yul\":4148:4227   */\n      tag_401\n      tag_370\n      jump\t// in\n    tag_401:\n        /* \"#utility.yul\":4110:4229   */\n    tag_400:\n        /* \"#utility.yul\":4268:4269   */\n      0x00\n        /* \"#utility.yul\":4293:4346   */\n      tag_402\n        /* \"#utility.yul\":4338:4345   */\n      dup7\n        /* \"#utility.yul\":4329:4335   */\n      dup3\n        /* \"#utility.yul\":4318:4327   */\n      dup8\n        /* \"#utility.yul\":4314:4336   */\n      add\n        /* \"#utility.yul\":4293:4346   */\n      tag_359\n      jump\t// in\n    tag_402:\n        /* \"#utility.yul\":4283:4346   */\n      swap4\n      pop\n        /* \"#utility.yul\":4239:4356   */\n      pop\n        /* \"#utility.yul\":4395:4397   */\n      0x20\n        /* \"#utility.yul\":4421:4474   */\n      tag_403\n        /* \"#utility.yul\":4466:4473   */\n      dup7\n        /* \"#utility.yul\":4457:4463   */\n      dup3\n        /* \"#utility.yul\":4446:4455   */\n      dup8\n        /* \"#utility.yul\":4442:4464   */\n      add\n        /* \"#utility.yul\":4421:4474   */\n      tag_359\n      jump\t// in\n    tag_403:\n        /* \"#utility.yul\":4411:4474   */\n      swap3\n      pop\n        /* \"#utility.yul\":4366:4484   */\n      pop\n        /* \"#utility.yul\":4523:4525   */\n      0x40\n        /* \"#utility.yul\":4549:4600   */\n      tag_404\n        /* \"#utility.yul\":4592:4599   */\n      dup7\n        /* \"#utility.yul\":4583:4589   */\n      dup3\n        /* \"#utility.yul\":4572:4581   */\n      dup8\n        /* \"#utility.yul\":4568:4590   */\n      add\n        /* \"#utility.yul\":4549:4600   */\n      tag_363\n      jump\t// in\n    tag_404:\n        /* \"#utility.yul\":4539:4600   */\n      swap2\n      pop\n        /* \"#utility.yul\":4494:4610   */\n      pop\n        /* \"#utility.yul\":4002:4617   */\n      swap3\n      pop\n      swap3\n      pop\n      swap3\n      jump\t// out\n        /* \"#utility.yul\":4623:4879   */\n    tag_405:\n        /* \"#utility.yul\":4742:4752   */\n      0x00\n        /* \"#utility.yul\":4777:4873   */\n      tag_407\n        /* \"#utility.yul\":4869:4872   */\n      dup4\n        /* \"#utility.yul\":4861:4867   */\n      dup4\n        /* \"#utility.yul\":4777:4873   */\n      tag_408\n      jump\t// in\n    tag_407:\n        /* \"#utility.yul\":4763:4873   */\n      swap1\n      pop\n        /* \"#utility.yul\":4623:4879   */\n      swap3\n      swap2\n      pop\n      pop\n      jump\t// out\n        /* \"#utility.yul\":4953:6064   */\n    tag_409:\n        /* \"#utility.yul\":5122:5125   */\n      0x00\n        /* \"#utility.yul\":5151:5230   */\n      tag_411\n        /* \"#utility.yul\":5224:5229   */\n      dup3\n        /* \"#utility.yul\":5151:5230   */\n      tag_412\n      jump\t// in\n    tag_411:\n        /* \"#utility.yul\":5246:5357   */\n      tag_413\n        /* \"#utility.yul\":5350:5356   */\n      dup2\n        /* \"#utility.yul\":5345:5348   */\n      dup6\n        /* \"#utility.yul\":5246:5357   */\n      tag_414\n      jump\t// in\n    tag_413:\n        /* \"#utility.yul\":5239:5357   */\n      swap4\n      pop\n        /* \"#utility.yul\":5383:5386   */\n      dup4\n        /* \"#utility.yul\":5428:5432   */\n      0x20\n        /* \"#utility.yul\":5420:5426   */\n      dup3\n        /* \"#utility.yul\":5416:5433   */\n      mul\n        /* \"#utility.yul\":5411:5414   */\n      dup6\n        /* \"#utility.yul\":5407:5434   */\n      add\n        /* \"#utility.yul\":5458:5539   */\n      tag_415\n        /* \"#utility.yul\":5533:5538   */\n      dup6\n        /* \"#utility.yul\":5458:5539   */\n      tag_416\n      jump\t// in\n    tag_415:\n        /* \"#utility.yul\":5562:5569   */\n      dup1\n        /* \"#utility.yul\":5593:5594   */\n      0x00\n        /* \"#utility.yul\":5578:6019   */\n    tag_417:\n        /* \"#utility.yul\":5603:5609   */\n      dup6\n        /* \"#utility.yul\":5600:5601   */\n      dup2\n        /* \"#utility.yul\":5597:5610   */\n      lt\n        /* \"#utility.yul\":5578:6019   */\n      iszero\n      tag_419\n      jumpi\n        /* \"#utility.yul\":5674:5683   */\n      dup5\n        /* \"#utility.yul\":5668:5672   */\n      dup5\n        /* \"#utility.yul\":5664:5684   */\n      sub\n        /* \"#utility.yul\":5659:5662   */\n      dup10\n        /* \"#utility.yul\":5652:5685   */\n      mstore\n        /* \"#utility.yul\":5725:5731   */\n      dup2\n        /* \"#utility.yul\":5719:5732   */\n      mload\n        /* \"#utility.yul\":5753:5867   */\n      tag_420\n        /* \"#utility.yul\":5862:5866   */\n      dup6\n        /* \"#utility.yul\":5847:5860   */\n      dup3\n        /* \"#utility.yul\":5753:5867   */\n      tag_405\n      jump\t// in\n    tag_420:\n        /* \"#utility.yul\":5745:5867   */\n      swap5\n      pop\n        /* \"#utility.yul\":5890:5975   */\n      tag_421\n        /* \"#utility.yul\":5968:5974   */\n      dup4\n        /* \"#utility.yul\":5890:5975   */\n      tag_422\n      jump\t// in\n    tag_421:\n        /* \"#utility.yul\":5880:5975   */\n      swap3\n      pop\n        /* \"#utility.yul\":6004:6008   */\n      0x20\n        /* \"#utility.yul\":5999:6002   */\n      dup11\n        /* \"#utility.yul\":5995:6009   */\n      add\n        /* \"#utility.yul\":5988:6009   */\n      swap10\n      pop\n        /* \"#utility.yul\":5638:6019   */\n      pop\n        /* \"#utility.yul\":5625:5626   */\n      0x01\n        /* \"#utility.yul\":5622:5623   */\n      dup2\n        /* \"#utility.yul\":5618:5627   */\n      add\n        /* \"#utility.yul\":5613:5627   */\n      swap1\n      pop\n        /* \"#utility.yul\":5578:6019   */\n      jump(tag_417)\n    tag_419:\n        /* \"#utility.yul\":5582:5596   */\n      pop\n        /* \"#utility.yul\":6035:6039   */\n      dup3\n        /* \"#utility.yul\":6028:6039   */\n      swap8\n      pop\n        /* \"#utility.yul\":6055:6058   */\n      dup8\n        /* \"#utility.yul\":6048:6058   */\n      swap6\n      pop\n        /* \"#utility.yul\":5127:6064   */\n      pop\n      pop\n      pop\n      pop\n      pop\n        /* \"#utility.yul\":4953:6064   */\n      swap3\n      swap2\n      pop\n      pop\n      jump\t// out\n        /* \"#utility.yul\":6070:6179   */\n    tag_423:\n        /* \"#utility.yul\":6151:6172   */\n      tag_425\n        /* \"#utility.yul\":6166:6171   */\n      dup2\n        /* \"#utility.yul\":6151:6172   */\n      tag_426\n      jump\t// in\n    tag_425:\n        /* \"#utility.yul\":6146:6149   */\n      dup3\n        /* \"#utility.yul\":6139:6173   */\n      mstore\n        /* \"#utility.yul\":6070:6179   */\n      pop\n      pop\n      jump\t// out\n        /* \"#utility.yul\":6185:6318   */\n    tag_427:\n        /* \"#utility.yul\":6268:6311   */\n      tag_429\n        /* \"#utility.yul\":6305:6310   */\n      dup2\n        /* \"#utility.yul\":6268:6311   */\n      tag_430\n      jump\t// in\n    tag_429:\n        /* \"#utility.yul\":6263:6266   */\n      dup3\n        /* \"#utility.yul\":6256:6312   */\n      mstore\n        /* \"#utility.yul\":6185:6318   */\n      pop\n      pop\n      jump\t// out\n        /* \"#utility.yul\":6324:6467   */\n    tag_431:\n        /* \"#utility.yul\":6417:6460   */\n      tag_433\n        /* \"#utility.yul\":6454:6459   */\n      dup2\n        /* \"#utility.yul\":6417:6460   */\n      tag_430\n      jump\t// in\n    tag_433:\n        /* \"#utility.yul\":6412:6415   */\n      dup3\n        /* \"#utility.yul\":6405:6461   */\n      mstore\n        /* \"#utility.yul\":6324:6467   */\n      pop\n      pop\n      jump\t// out\n        /* \"#utility.yul\":6473:6817   */\n    tag_434:\n        /* \"#utility.yul\":6551:6554   */\n      0x00\n        /* \"#utility.yul\":6579:6618   */\n      tag_436\n        /* \"#utility.yul\":6612:6617   */\n      dup3\n        /* \"#utility.yul\":6579:6618   */\n      tag_437\n      jump\t// in\n    tag_436:\n        /* \"#utility.yul\":6634:6695   */\n      tag_438\n        /* \"#utility.yul\":6688:6694   */\n      dup2\n        /* \"#utility.yul\":6683:6686   */\n      dup6\n        /* \"#utility.yul\":6634:6695   */\n      tag_439\n      jump\t// in\n    tag_438:\n        /* \"#utility.yul\":6627:6695   */\n      swap4\n      pop\n        /* \"#utility.yul\":6704:6756   */\n      tag_440\n        /* \"#utility.yul\":6749:6755   */\n      dup2\n        /* \"#utility.yul\":6744:6747   */\n      dup6\n        /* \"#utility.yul\":6737:6741   */\n      0x20\n        /* \"#utility.yul\":6730:6735   */\n      dup7\n        /* \"#utility.yul\":6726:6742   */\n      add\n        /* \"#utility.yul\":6704:6756   */\n      tag_441\n      jump\t// in\n    tag_440:\n        /* \"#utility.yul\":6781:6810   */\n      tag_442\n        /* \"#utility.yul\":6803:6809   */\n      dup2\n        /* \"#utility.yul\":6781:6810   */\n      tag_443\n      jump\t// in\n    tag_442:\n        /* \"#utility.yul\":6776:6779   */\n      dup5\n        /* \"#utility.yul\":6772:6811   */\n      add\n        /* \"#utility.yul\":6765:6811   */\n      swap2\n      pop\n        /* \"#utility.yul\":6555:6817   */\n      pop\n        /* \"#utility.yul\":6473:6817   */\n      swap3\n      swap2\n      pop\n      pop\n      jump\t// out\n        /* \"#utility.yul\":6823:7189   */\n    tag_444:\n        /* \"#utility.yul\":6965:6968   */\n      0x00\n        /* \"#utility.yul\":6986:7053   */\n      tag_446\n        /* \"#utility.yul\":7050:7052   */\n      0x1d\n        /* \"#utility.yul\":7045:7048   */\n      dup4\n        /* \"#utility.yul\":6986:7053   */\n      tag_447\n      jump\t// in\n    tag_446:\n        /* \"#utility.yul\":6979:7053   */\n      swap2\n      pop\n        /* \"#utility.yul\":7062:7155   */\n      tag_448\n        /* \"#utility.yul\":7151:7154   */\n      dup3\n        /* \"#utility.yul\":7062:7155   */\n      tag_449\n      jump\t// in\n    tag_448:\n        /* \"#utility.yul\":7180:7182   */\n      0x20\n        /* \"#utility.yul\":7175:7178   */\n      dup3\n        /* \"#utility.yul\":7171:7183   */\n      add\n        /* \"#utility.yul\":7164:7183   */\n      swap1\n      pop\n        /* \"#utility.yul\":6823:7189   */\n      swap2\n      swap1\n      pop\n      jump\t// out\n        /* \"#utility.yul\":7195:7561   */\n    tag_450:\n        /* \"#utility.yul\":7337:7340   */\n      0x00\n        /* \"#utility.yul\":7358:7425   */\n      tag_452\n        /* \"#utility.yul\":7422:7424   */\n      0x24\n        /* \"#utility.yul\":7417:7420   */\n      dup4\n        /* \"#utility.yul\":7358:7425   */\n      tag_447\n      jump\t// in\n    tag_452:\n        /* \"#utility.yul\":7351:7425   */\n      swap2\n      pop\n        /* \"#utility.yul\":7434:7527   */\n      tag_453\n        /* \"#utility.yul\":7523:7526   */\n      dup3\n        /* \"#utility.yul\":7434:7527   */\n      tag_454\n      jump\t// in\n    tag_453:\n        /* \"#utility.yul\":7552:7554   */\n      0x40\n        /* \"#utility.yul\":7547:7550   */\n      dup3\n        /* \"#utility.yul\":7543:7555   */\n      add\n        /* \"#utility.yul\":7536:7555   */\n      swap1\n      pop\n        /* \"#utility.yul\":7195:7561   */\n      swap2\n      swap1\n      pop\n      jump\t// out\n        /* \"#utility.yul\":7631:8506   */\n    tag_408:\n        /* \"#utility.yul\":7740:7743   */\n      0x00\n        /* \"#utility.yul\":7776:7780   */\n      0x60\n        /* \"#utility.yul\":7771:7774   */\n      dup4\n        /* \"#utility.yul\":7767:7781   */\n      add\n        /* \"#utility.yul\":7873:7877   */\n      0x00\n        /* \"#utility.yul\":7866:7871   */\n      dup4\n        /* \"#utility.yul\":7862:7878   */\n      add\n        /* \"#utility.yul\":7856:7879   */\n      mload\n        /* \"#utility.yul\":7926:7929   */\n      dup5\n        /* \"#utility.yul\":7920:7924   */\n      dup3\n        /* \"#utility.yul\":7916:7930   */\n      sub\n        /* \"#utility.yul\":7909:7913   */\n      0x00\n        /* \"#utility.yul\":7904:7907   */\n      dup7\n        /* \"#utility.yul\":7900:7914   */\n      add\n        /* \"#utility.yul\":7893:7931   */\n      mstore\n        /* \"#utility.yul\":7952:8025   */\n      tag_456\n        /* \"#utility.yul\":8020:8024   */\n      dup3\n        /* \"#utility.yul\":8006:8018   */\n      dup3\n        /* \"#utility.yul\":7952:8025   */\n      tag_434\n      jump\t// in\n    tag_456:\n        /* \"#utility.yul\":7944:8025   */\n      swap2\n      pop\n        /* \"#utility.yul\":7791:8036   */\n      pop\n        /* \"#utility.yul\":8134:8138   */\n      0x20\n        /* \"#utility.yul\":8127:8132   */\n      dup4\n        /* \"#utility.yul\":8123:8139   */\n      add\n        /* \"#utility.yul\":8117:8140   */\n      mload\n        /* \"#utility.yul\":8187:8190   */\n      dup5\n        /* \"#utility.yul\":8181:8185   */\n      dup3\n        /* \"#utility.yul\":8177:8191   */\n      sub\n        /* \"#utility.yul\":8170:8174   */\n      0x20\n        /* \"#utility.yul\":8165:8168   */\n      dup7\n        /* \"#utility.yul\":8161:8175   */\n      add\n        /* \"#utility.yul\":8154:8192   */\n      mstore\n        /* \"#utility.yul\":8213:8286   */\n      tag_457\n        /* \"#utility.yul\":8281:8285   */\n      dup3\n        /* \"#utility.yul\":8267:8279   */\n      dup3\n        /* \"#utility.yul\":8213:8286   */\n      tag_434\n      jump\t// in\n    tag_457:\n        /* \"#utility.yul\":8205:8286   */\n      swap2\n      pop\n        /* \"#utility.yul\":8046:8297   */\n      pop\n        /* \"#utility.yul\":8381:8385   */\n      0x40\n        /* \"#utility.yul\":8374:8379   */\n      dup4\n        /* \"#utility.yul\":8370:8386   */\n      add\n        /* \"#utility.yul\":8364:8387   */\n      mload\n        /* \"#utility.yul\":8400:8469   */\n      tag_458\n        /* \"#utility.yul\":8463:8467   */\n      0x40\n        /* \"#utility.yul\":8458:8461   */\n      dup7\n        /* \"#utility.yul\":8454:8468   */\n      add\n        /* \"#utility.yul\":8440:8452   */\n      dup3\n        /* \"#utility.yul\":8400:8469   */\n      tag_427\n      jump\t// in\n    tag_458:\n        /* \"#utility.yul\":8307:8479   */\n      pop\n        /* \"#utility.yul\":8496:8500   */\n      dup1\n        /* \"#utility.yul\":8489:8500   */\n      swap2\n      pop\n        /* \"#utility.yul\":7745:8506   */\n      pop\n        /* \"#utility.yul\":7631:8506   */\n      swap3\n      swap2\n      pop\n      pop\n      jump\t// out\n        /* \"#utility.yul\":8576:9461   */\n    tag_459:\n        /* \"#utility.yul\":8695:8698   */\n      0x00\n        /* \"#utility.yul\":8731:8735   */\n      0x60\n        /* \"#utility.yul\":8726:8729   */\n      dup4\n        /* \"#utility.yul\":8722:8736   */\n      add\n        /* \"#utility.yul\":8828:8832   */\n      0x00\n        /* \"#utility.yul\":8821:8826   */\n      dup4\n        /* \"#utility.yul\":8817:8833   */\n      add\n        /* \"#utility.yul\":8811:8834   */\n      mload\n        /* \"#utility.yul\":8881:8884   */\n      dup5\n        /* \"#utility.yul\":8875:8879   */\n      dup3\n        /* \"#utility.yul\":8871:8885   */\n      sub\n        /* \"#utility.yul\":8864:8868   */\n      0x00\n        /* \"#utility.yul\":8859:8862   */\n      dup7\n        /* \"#utility.yul\":8855:8869   */\n      add\n        /* \"#utility.yul\":8848:8886   */\n      mstore\n        /* \"#utility.yul\":8907:8980   */\n      tag_461\n        /* \"#utility.yul\":8975:8979   */\n      dup3\n        /* \"#utility.yul\":8961:8973   */\n      dup3\n        /* \"#utility.yul\":8907:8980   */\n      tag_434\n      jump\t// in\n    tag_461:\n        /* \"#utility.yul\":8899:8980   */\n      swap2\n      pop\n        /* \"#utility.yul\":8746:8991   */\n      pop\n        /* \"#utility.yul\":9089:9093   */\n      0x20\n        /* \"#utility.yul\":9082:9087   */\n      dup4\n        /* \"#utility.yul\":9078:9094   */\n      add\n        /* \"#utility.yul\":9072:9095   */\n      mload\n        /* \"#utility.yul\":9142:9145   */\n      dup5\n        /* \"#utility.yul\":9136:9140   */\n      dup3\n        /* \"#utility.yul\":9132:9146   */\n      sub\n        /* \"#utility.yul\":9125:9129   */\n      0x20\n        /* \"#utility.yul\":9120:9123   */\n      dup7\n        /* \"#utility.yul\":9116:9130   */\n      add\n        /* \"#utility.yul\":9109:9147   */\n      mstore\n        /* \"#utility.yul\":9168:9241   */\n      tag_462\n        /* \"#utility.yul\":9236:9240   */\n      dup3\n        /* \"#utility.yul\":9222:9234   */\n      dup3\n        /* \"#utility.yul\":9168:9241   */\n      tag_434\n      jump\t// in\n    tag_462:\n        /* \"#utility.yul\":9160:9241   */\n      swap2\n      pop\n        /* \"#utility.yul\":9001:9252   */\n      pop\n        /* \"#utility.yul\":9336:9340   */\n      0x40\n        /* \"#utility.yul\":9329:9334   */\n      dup4\n        /* \"#utility.yul\":9325:9341   */\n      add\n        /* \"#utility.yul\":9319:9342   */\n      mload\n        /* \"#utility.yul\":9355:9424   */\n      tag_463\n        /* \"#utility.yul\":9418:9422   */\n      0x40\n        /* \"#utility.yul\":9413:9416   */\n      dup7\n        /* \"#utility.yul\":9409:9423   */\n      add\n        /* \"#utility.yul\":9395:9407   */\n      dup3\n        /* \"#utility.yul\":9355:9424   */\n      tag_427\n      jump\t// in\n    tag_463:\n        /* \"#utility.yul\":9262:9434   */\n      pop\n        /* \"#utility.yul\":9451:9455   */\n      dup1\n        /* \"#utility.yul\":9444:9455   */\n      swap2\n      pop\n        /* \"#utility.yul\":8700:9461   */\n      pop\n        /* \"#utility.yul\":8576:9461   */\n      swap3\n      swap2\n      pop\n      pop\n      jump\t// out\n        /* \"#utility.yul\":9467:9585   */\n    tag_464:\n        /* \"#utility.yul\":9554:9578   */\n      tag_466\n        /* \"#utility.yul\":9572:9577   */\n      dup2\n        /* \"#utility.yul\":9554:9578   */\n      tag_467\n      jump\t// in\n    tag_466:\n        /* \"#utility.yul\":9549:9552   */\n      dup3\n        /* \"#utility.yul\":9542:9579   */\n      mstore\n        /* \"#utility.yul\":9467:9585   */\n      pop\n      pop\n      jump\t// out\n        /* \"#utility.yul\":9591:10064   */\n    tag_59:\n        /* \"#utility.yul\":9784:9788   */\n      0x00\n        /* \"#utility.yul\":9822:9824   */\n      0x20\n        /* \"#utility.yul\":9811:9820   */\n      dup3\n        /* \"#utility.yul\":9807:9825   */\n      add\n        /* \"#utility.yul\":9799:9825   */\n      swap1\n      pop\n        /* \"#utility.yul\":9871:9880   */\n      dup2\n        /* \"#utility.yul\":9865:9869   */\n      dup2\n        /* \"#utility.yul\":9861:9881   */\n      sub\n        /* \"#utility.yul\":9857:9858   */\n      0x00\n        /* \"#utility.yul\":9846:9855   */\n      dup4\n        /* \"#utility.yul\":9842:9859   */\n      add\n        /* \"#utility.yul\":9835:9882   */\n      mstore\n        /* \"#utility.yul\":9899:10057   */\n      tag_469\n        /* \"#utility.yul\":10052:10056   */\n      dup2\n        /* \"#utility.yul\":10043:10049   */\n      dup5\n        /* \"#utility.yul\":9899:10057   */\n      tag_409\n      jump\t// in\n    tag_469:\n        /* \"#utility.yul\":9891:10057   */\n      swap1\n      pop\n        /* \"#utility.yul\":9591:10064   */\n      swap3\n      swap2\n      pop\n      pop\n      jump\t// out\n        /* \"#utility.yul\":10070:10280   */\n    tag_33:\n        /* \"#utility.yul\":10157:10161   */\n      0x00\n        /* \"#utility.yul\":10195:10197   */\n      0x20\n        /* \"#utility.yul\":10184:10193   */\n      dup3\n        /* \"#utility.yul\":10180:10198   */\n      add\n        /* \"#utility.yul\":10172:10198   */\n      swap1\n      pop\n        /* \"#utility.yul\":10208:10273   */\n      tag_471\n        /* \"#utility.yul\":10270:10271   */\n      0x00\n        /* \"#utility.yul\":10259:10268   */\n      dup4\n        /* \"#utility.yul\":10255:10272   */\n      add\n        /* \"#utility.yul\":10246:10252   */\n      dup5\n        /* \"#utility.yul\":10208:10273   */\n      tag_423\n      jump\t// in\n    tag_471:\n        /* \"#utility.yul\":10070:10280   */\n      swap3\n      swap2\n      pop\n      pop\n      jump\t// out\n        /* \"#utility.yul\":10286:10520   */\n    tag_95:\n        /* \"#utility.yul\":10385:10389   */\n      0x00\n        /* \"#utility.yul\":10423:10425   */\n      0x20\n        /* \"#utility.yul\":10412:10421   */\n      dup3\n        /* \"#utility.yul\":10408:10426   */\n      add\n        /* \"#utility.yul\":10400:10426   */\n      swap1\n      pop\n        /* \"#utility.yul\":10436:10513   */\n      tag_473\n        /* \"#utility.yul\":10510:10511   */\n      0x00\n        /* \"#utility.yul\":10499:10508   */\n      dup4\n        /* \"#utility.yul\":10495:10512   */\n      add\n        /* \"#utility.yul\":10486:10492   */\n      dup5\n        /* \"#utility.yul\":10436:10513   */\n      tag_431\n      jump\t// in\n    tag_473:\n        /* \"#utility.yul\":10286:10520   */\n      swap3\n      swap2\n      pop\n      pop\n      jump\t// out\n        /* \"#utility.yul\":10526:10945   */\n    tag_275:\n        /* \"#utility.yul\":10692:10696   */\n      0x00\n        /* \"#utility.yul\":10730:10732   */\n      0x20\n        /* \"#utility.yul\":10719:10728   */\n      dup3\n        /* \"#utility.yul\":10715:10733   */\n      add\n        /* \"#utility.yul\":10707:10733   */\n      swap1\n      pop\n        /* \"#utility.yul\":10779:10788   */\n      dup2\n        /* \"#utility.yul\":10773:10777   */\n      dup2\n        /* \"#utility.yul\":10769:10789   */\n      sub\n        /* \"#utility.yul\":10765:10766   */\n      0x00\n        /* \"#utility.yul\":10754:10763   */\n      dup4\n        /* \"#utility.yul\":10750:10767   */\n      add\n        /* \"#utility.yul\":10743:10790   */\n      mstore\n        /* \"#utility.yul\":10807:10938   */\n      tag_475\n        /* \"#utility.yul\":10933:10937   */\n      dup2\n        /* \"#utility.yul\":10807:10938   */\n      tag_444\n      jump\t// in\n    tag_475:\n        /* \"#utility.yul\":10799:10938   */\n      swap1\n      pop\n        /* \"#utility.yul\":10526:10945   */\n      swap2\n      swap1\n      pop\n      jump\t// out\n        /* \"#utility.yul\":10951:11370   */\n    tag_99:\n        /* \"#utility.yul\":11117:11121   */\n      0x00\n        /* \"#utility.yul\":11155:11157   */\n      0x20\n        /* \"#utility.yul\":11144:11153   */\n      dup3\n        /* \"#utility.yul\":11140:11158   */\n      add\n        /* \"#utility.yul\":11132:11158   */\n      swap1\n      pop\n        /* \"#utility.yul\":11204:11213   */\n      dup2\n        /* \"#utility.yul\":11198:11202   */\n      dup2\n        /* \"#utility.yul\":11194:11214   */\n      sub\n        /* \"#utility.yul\":11190:11191   */\n      0x00\n        /* \"#utility.yul\":11179:11188   */\n      dup4\n        /* \"#utility.yul\":11175:11192   */\n      add\n        /* \"#utility.yul\":11168:11215   */\n      mstore\n        /* \"#utility.yul\":11232:11363   */\n      tag_477\n        /* \"#utility.yul\":11358:11362   */\n      dup2\n        /* \"#utility.yul\":11232:11363   */\n      tag_450\n      jump\t// in\n    tag_477:\n        /* \"#utility.yul\":11224:11363   */\n      swap1\n      pop\n        /* \"#utility.yul\":10951:11370   */\n      swap2\n      swap1\n      pop\n      jump\t// out\n        /* \"#utility.yul\":11376:11598   */\n    tag_54:\n        /* \"#utility.yul\":11469:11473   */\n      0x00\n        /* \"#utility.yul\":11507:11509   */\n      0x20\n        /* \"#utility.yul\":11496:11505   */\n      dup3\n        /* \"#utility.yul\":11492:11510   */\n      add\n        /* \"#utility.yul\":11484:11510   */\n      swap1\n      pop\n        /* \"#utility.yul\":11520:11591   */\n      tag_479\n        /* \"#utility.yul\":11588:11589   */\n      0x00\n        /* \"#utility.yul\":11577:11586   */\n      dup4\n        /* \"#utility.yul\":11573:11590   */\n      add\n        /* \"#utility.yul\":11564:11570   */\n      dup5\n        /* \"#utility.yul\":11520:11591   */\n      tag_464\n      jump\t// in\n    tag_479:\n        /* \"#utility.yul\":11376:11598   */\n      swap3\n      swap2\n      pop\n      pop\n      jump\t// out\n        /* \"#utility.yul\":11604:12197   */\n    tag_257:\n        /* \"#utility.yul\":11803:11807   */\n      0x00\n        /* \"#utility.yul\":11841:11843   */\n      0x60\n        /* \"#utility.yul\":11830:11839   */\n      dup3\n        /* \"#utility.yul\":11826:11844   */\n      add\n        /* \"#utility.yul\":11818:11844   */\n      swap1\n      pop\n        /* \"#utility.yul\":11854:11925   */\n      tag_481\n        /* \"#utility.yul\":11922:11923   */\n      0x00\n        /* \"#utility.yul\":11911:11920   */\n      dup4\n        /* \"#utility.yul\":11907:11924   */\n      add\n        /* \"#utility.yul\":11898:11904   */\n      dup7\n        /* \"#utility.yul\":11854:11925   */\n      tag_464\n      jump\t// in\n    tag_481:\n        /* \"#utility.yul\":11972:11981   */\n      dup2\n        /* \"#utility.yul\":11966:11970   */\n      dup2\n        /* \"#utility.yul\":11962:11982   */\n      sub\n        /* \"#utility.yul\":11957:11959   */\n      0x20\n        /* \"#utility.yul\":11946:11955   */\n      dup4\n        /* \"#utility.yul\":11942:11960   */\n      add\n        /* \"#utility.yul\":11935:11983   */\n      mstore\n        /* \"#utility.yul\":12000:12108   */\n      tag_482\n        /* \"#utility.yul\":12103:12107   */\n      dup2\n        /* \"#utility.yul\":12094:12100   */\n      dup6\n        /* \"#utility.yul\":12000:12108   */\n      tag_459\n      jump\t// in\n    tag_482:\n        /* \"#utility.yul\":11992:12108   */\n      swap1\n      pop\n        /* \"#utility.yul\":12118:12190   */\n      tag_483\n        /* \"#utility.yul\":12186:12188   */\n      0x40\n        /* \"#utility.yul\":12175:12184   */\n      dup4\n        /* \"#utility.yul\":12171:12189   */\n      add\n        /* \"#utility.yul\":12162:12168   */\n      dup5\n        /* \"#utility.yul\":12118:12190   */\n      tag_464\n      jump\t// in\n    tag_483:\n        /* \"#utility.yul\":11604:12197   */\n      swap5\n      swap4\n      pop\n      pop\n      pop\n      pop\n      jump\t// out\n        /* \"#utility.yul\":12203:12780   */\n    tag_306:\n        /* \"#utility.yul\":12392:12396   */\n      0x00\n        /* \"#utility.yul\":12430:12433   */\n      0x80\n        /* \"#utility.yul\":12419:12428   */\n      dup3\n        /* \"#utility.yul\":12415:12434   */\n      add\n        /* \"#utility.yul\":12407:12434   */\n      swap1\n      pop\n        /* \"#utility.yul\":12444:12515   */\n      tag_485\n        /* \"#utility.yul\":12512:12513   */\n      0x00\n        /* \"#utility.yul\":12501:12510   */\n      dup4\n        /* \"#utility.yul\":12497:12514   */\n      add\n        /* \"#utility.yul\":12488:12494   */\n      dup8\n        /* \"#utility.yul\":12444:12515   */\n      tag_464\n      jump\t// in\n    tag_485:\n        /* \"#utility.yul\":12525:12597   */\n      tag_486\n        /* \"#utility.yul\":12593:12595   */\n      0x20\n        /* \"#utility.yul\":12582:12591   */\n      dup4\n        /* \"#utility.yul\":12578:12596   */\n      add\n        /* \"#utility.yul\":12569:12575   */\n      dup7\n        /* \"#utility.yul\":12525:12597   */\n      tag_464\n      jump\t// in\n    tag_486:\n        /* \"#utility.yul\":12607:12685   */\n      tag_487\n        /* \"#utility.yul\":12681:12683   */\n      0x40\n        /* \"#utility.yul\":12670:12679   */\n      dup4\n        /* \"#utility.yul\":12666:12684   */\n      add\n        /* \"#utility.yul\":12657:12663   */\n      dup6\n        /* \"#utility.yul\":12607:12685   */\n      tag_431\n      jump\t// in\n    tag_487:\n        /* \"#utility.yul\":12695:12773   */\n      tag_488\n        /* \"#utility.yul\":12769:12771   */\n      0x60\n        /* \"#utility.yul\":12758:12767   */\n      dup4\n        /* \"#utility.yul\":12754:12772   */\n      add\n        /* \"#utility.yul\":12745:12751   */\n      dup5\n        /* \"#utility.yul\":12695:12773   */\n      tag_431\n      jump\t// in\n    tag_488:\n        /* \"#utility.yul\":12203:12780   */\n      swap6\n      swap5\n      pop\n      pop\n      pop\n      pop\n      pop\n      jump\t// out\n        /* \"#utility.yul\":12786:13641   */\n    tag_132:\n        /* \"#utility.yul\":13063:13067   */\n      0x00\n        /* \"#utility.yul\":13101:13104   */\n      0x80\n        /* \"#utility.yul\":13090:13099   */\n      dup3\n        /* \"#utility.yul\":13086:13105   */\n      add\n        /* \"#utility.yul\":13078:13105   */\n      swap1\n      pop\n        /* \"#utility.yul\":13115:13186   */\n      tag_490\n        /* \"#utility.yul\":13183:13184   */\n      0x00\n        /* \"#utility.yul\":13172:13181   */\n      dup4\n        /* \"#utility.yul\":13168:13185   */\n      add\n        /* \"#utility.yul\":13159:13165   */\n      dup8\n        /* \"#utility.yul\":13115:13186   */\n      tag_464\n      jump\t// in\n    tag_490:\n        /* \"#utility.yul\":13196:13268   */\n      tag_491\n        /* \"#utility.yul\":13264:13266   */\n      0x20\n        /* \"#utility.yul\":13253:13262   */\n      dup4\n        /* \"#utility.yul\":13249:13267   */\n      add\n        /* \"#utility.yul\":13240:13246   */\n      dup7\n        /* \"#utility.yul\":13196:13268   */\n      tag_464\n      jump\t// in\n    tag_491:\n        /* \"#utility.yul\":13315:13324   */\n      dup2\n        /* \"#utility.yul\":13309:13313   */\n      dup2\n        /* \"#utility.yul\":13305:13325   */\n      sub\n        /* \"#utility.yul\":13300:13302   */\n      0x40\n        /* \"#utility.yul\":13289:13298   */\n      dup4\n        /* \"#utility.yul\":13285:13303   */\n      add\n        /* \"#utility.yul\":13278:13326   */\n      mstore\n        /* \"#utility.yul\":13343:13451   */\n      tag_492\n        /* \"#utility.yul\":13446:13450   */\n      dup2\n        /* \"#utility.yul\":13437:13443   */\n      dup6\n        /* \"#utility.yul\":13343:13451   */\n      tag_459\n      jump\t// in\n    tag_492:\n        /* \"#utility.yul\":13335:13451   */\n      swap1\n      pop\n        /* \"#utility.yul\":13498:13507   */\n      dup2\n        /* \"#utility.yul\":13492:13496   */\n      dup2\n        /* \"#utility.yul\":13488:13508   */\n      sub\n        /* \"#utility.yul\":13483:13485   */\n      0x60\n        /* \"#utility.yul\":13472:13481   */\n      dup4\n        /* \"#utility.yul\":13468:13486   */\n      add\n        /* \"#utility.yul\":13461:13509   */\n      mstore\n        /* \"#utility.yul\":13526:13634   */\n      tag_493\n        /* \"#utility.yul\":13629:13633   */\n      dup2\n        /* \"#utility.yul\":13620:13626   */\n      dup5\n        /* \"#utility.yul\":13526:13634   */\n      tag_459\n      jump\t// in\n    tag_493:\n        /* \"#utility.yul\":13518:13634   */\n      swap1\n      pop\n        /* \"#utility.yul\":12786:13641   */\n      swap6\n      swap5\n      pop\n      pop\n      pop\n      pop\n      pop\n      jump\t// out\n        /* \"#utility.yul\":13647:14351   */\n    tag_242:\n        /* \"#utility.yul\":13874:13878   */\n      0x00\n        /* \"#utility.yul\":13912:13915   */\n      0x80\n        /* \"#utility.yul\":13901:13910   */\n      dup3\n        /* \"#utility.yul\":13897:13916   */\n      add\n        /* \"#utility.yul\":13889:13916   */\n      swap1\n      pop\n        /* \"#utility.yul\":13926:13997   */\n      tag_495\n        /* \"#utility.yul\":13994:13995   */\n      0x00\n        /* \"#utility.yul\":13983:13992   */\n      dup4\n        /* \"#utility.yul\":13979:13996   */\n      add\n        /* \"#utility.yul\":13970:13976   */\n      dup8\n        /* \"#utility.yul\":13926:13997   */\n      tag_464\n      jump\t// in\n    tag_495:\n        /* \"#utility.yul\":14007:14079   */\n      tag_496\n        /* \"#utility.yul\":14075:14077   */\n      0x20\n        /* \"#utility.yul\":14064:14073   */\n      dup4\n        /* \"#utility.yul\":14060:14078   */\n      add\n        /* \"#utility.yul\":14051:14057   */\n      dup7\n        /* \"#utility.yul\":14007:14079   */\n      tag_464\n      jump\t// in\n    tag_496:\n        /* \"#utility.yul\":14126:14135   */\n      dup2\n        /* \"#utility.yul\":14120:14124   */\n      dup2\n        /* \"#utility.yul\":14116:14136   */\n      sub\n        /* \"#utility.yul\":14111:14113   */\n      0x40\n        /* \"#utility.yul\":14100:14109   */\n      dup4\n        /* \"#utility.yul\":14096:14114   */\n      add\n        /* \"#utility.yul\":14089:14137   */\n      mstore\n        /* \"#utility.yul\":14154:14262   */\n      tag_497\n        /* \"#utility.yul\":14257:14261   */\n      dup2\n        /* \"#utility.yul\":14248:14254   */\n      dup6\n        /* \"#utility.yul\":14154:14262   */\n      tag_459\n      jump\t// in\n    tag_497:\n        /* \"#utility.yul\":14146:14262   */\n      swap1\n      pop\n        /* \"#utility.yul\":14272:14344   */\n      tag_498\n        /* \"#utility.yul\":14340:14342   */\n      0x60\n        /* \"#utility.yul\":14329:14338   */\n      dup4\n        /* \"#utility.yul\":14325:14343   */\n      add\n        /* \"#utility.yul\":14316:14322   */\n      dup5\n        /* \"#utility.yul\":14272:14344   */\n      tag_464\n      jump\t// in\n    tag_498:\n        /* \"#utility.yul\":13647:14351   */\n      swap6\n      swap5\n      pop\n      pop\n      pop\n      pop\n      pop\n      jump\t// out\n        /* \"#utility.yul\":14357:14486   */\n    tag_347:\n        /* \"#utility.yul\":14391:14397   */\n      0x00\n        /* \"#utility.yul\":14418:14438   */\n      tag_500\n      tag_501\n      jump\t// in\n    tag_500:\n        /* \"#utility.yul\":14408:14438   */\n      swap1\n      pop\n        /* \"#utility.yul\":14447:14480   */\n      tag_502\n        /* \"#utility.yul\":14475:14479   */\n      dup3\n        /* \"#utility.yul\":14467:14473   */\n      dup3\n        /* \"#utility.yul\":14447:14480   */\n      tag_503\n      jump\t// in\n    tag_502:\n        /* \"#utility.yul\":14357:14486   */\n      swap2\n      swap1\n      pop\n      jump\t// out\n        /* \"#utility.yul\":14492:14567   */\n    tag_501:\n        /* \"#utility.yul\":14525:14531   */\n      0x00\n        /* \"#utility.yul\":14558:14560   */\n      0x40\n        /* \"#utility.yul\":14552:14561   */\n      mload\n        /* \"#utility.yul\":14542:14561   */\n      swap1\n      pop\n        /* \"#utility.yul\":14492:14567   */\n      swap1\n      jump\t// out\n        /* \"#utility.yul\":14573:14881   */\n    tag_346:\n        /* \"#utility.yul\":14635:14639   */\n      0x00\n        /* \"#utility.yul\":14725:14743   */\n      0xffffffffffffffff\n        /* \"#utility.yul\":14717:14723   */\n      dup3\n        /* \"#utility.yul\":14714:14744   */\n      gt\n        /* \"#utility.yul\":14711:14767   */\n      iszero\n      tag_506\n      jumpi\n        /* \"#utility.yul\":14747:14765   */\n      tag_507\n      tag_508\n      jump\t// in\n    tag_507:\n        /* \"#utility.yul\":14711:14767   */\n    tag_506:\n        /* \"#utility.yul\":14785:14814   */\n      tag_509\n        /* \"#utility.yul\":14807:14813   */\n      dup3\n        /* \"#utility.yul\":14785:14814   */\n      tag_443\n      jump\t// in\n    tag_509:\n        /* \"#utility.yul\":14777:14814   */\n      swap1\n      pop\n        /* \"#utility.yul\":14869:14873   */\n      0x20\n        /* \"#utility.yul\":14863:14867   */\n      dup2\n        /* \"#utility.yul\":14859:14874   */\n      add\n        /* \"#utility.yul\":14851:14874   */\n      swap1\n      pop\n        /* \"#utility.yul\":14573:14881   */\n      swap2\n      swap1\n      pop\n      jump\t// out\n        /* \"#utility.yul\":14887:15044   */\n    tag_416:\n        /* \"#utility.yul\":14979:14983   */\n      0x00\n        /* \"#utility.yul\":15002:15005   */\n      dup2\n        /* \"#utility.yul\":14994:15005   */\n      swap1\n      pop\n        /* \"#utility.yul\":15032:15036   */\n      0x20\n        /* \"#utility.yul\":15027:15030   */\n      dup3\n        /* \"#utility.yul\":15023:15037   */\n      add\n        /* \"#utility.yul\":15015:15037   */\n      swap1\n      pop\n        /* \"#utility.yul\":14887:15044   */\n      swap2\n      swap1\n      pop\n      jump\t// out\n        /* \"#utility.yul\":15050:15189   */\n    tag_412:\n        /* \"#utility.yul\":15142:15148   */\n      0x00\n        /* \"#utility.yul\":15176:15181   */\n      dup2\n        /* \"#utility.yul\":15170:15182   */\n      mload\n        /* \"#utility.yul\":15160:15182   */\n      swap1\n      pop\n        /* \"#utility.yul\":15050:15189   */\n      swap2\n      swap1\n      pop\n      jump\t// out\n        /* \"#utility.yul\":15195:15294   */\n    tag_437:\n        /* \"#utility.yul\":15247:15253   */\n      0x00\n        /* \"#utility.yul\":15281:15286   */\n      dup2\n        /* \"#utility.yul\":15275:15287   */\n      mload\n        /* \"#utility.yul\":15265:15287   */\n      swap1\n      pop\n        /* \"#utility.yul\":15195:15294   */\n      swap2\n      swap1\n      pop\n      jump\t// out\n        /* \"#utility.yul\":15300:15438   */\n    tag_422:\n        /* \"#utility.yul\":15395:15399   */\n      0x00\n        /* \"#utility.yul\":15427:15431   */\n      0x20\n        /* \"#utility.yul\":15422:15425   */\n      dup3\n        /* \"#utility.yul\":15418:15432   */\n      add\n        /* \"#utility.yul\":15410:15432   */\n      swap1\n      pop\n        /* \"#utility.yul\":15300:15438   */\n      swap2\n      swap1\n      pop\n      jump\t// out\n        /* \"#utility.yul\":15444:15653   */\n    tag_414:\n        /* \"#utility.yul\":15568:15579   */\n      0x00\n        /* \"#utility.yul\":15602:15608   */\n      dup3\n        /* \"#utility.yul\":15597:15600   */\n      dup3\n        /* \"#utility.yul\":15590:15609   */\n      mstore\n        /* \"#utility.yul\":15642:15646   */\n      0x20\n        /* \"#utility.yul\":15637:15640   */\n      dup3\n        /* \"#utility.yul\":15633:15647   */\n      add\n        /* \"#utility.yul\":15618:15647   */\n      swap1\n      pop\n        /* \"#utility.yul\":15444:15653   */\n      swap3\n      swap2\n      pop\n      pop\n      jump\t// out\n        /* \"#utility.yul\":15659:15818   */\n    tag_439:\n        /* \"#utility.yul\":15733:15744   */\n      0x00\n        /* \"#utility.yul\":15767:15773   */\n      dup3\n        /* \"#utility.yul\":15762:15765   */\n      dup3\n        /* \"#utility.yul\":15755:15774   */\n      mstore\n        /* \"#utility.yul\":15807:15811   */\n      0x20\n        /* \"#utility.yul\":15802:15805   */\n      dup3\n        /* \"#utility.yul\":15798:15812   */\n      add\n        /* \"#utility.yul\":15783:15812   */\n      swap1\n      pop\n        /* \"#utility.yul\":15659:15818   */\n      swap3\n      swap2\n      pop\n      pop\n      jump\t// out\n        /* \"#utility.yul\":15824:15993   */\n    tag_447:\n        /* \"#utility.yul\":15908:15919   */\n      0x00\n        /* \"#utility.yul\":15942:15948   */\n      dup3\n        /* \"#utility.yul\":15937:15940   */\n      dup3\n        /* \"#utility.yul\":15930:15949   */\n      mstore\n        /* \"#utility.yul\":15982:15986   */\n      0x20\n        /* \"#utility.yul\":15977:15980   */\n      dup3\n        /* \"#utility.yul\":15973:15987   */\n      add\n        /* \"#utility.yul\":15958:15987   */\n      swap1\n      pop\n        /* \"#utility.yul\":15824:15993   */\n      swap3\n      swap2\n      pop\n      pop\n      jump\t// out\n        /* \"#utility.yul\":15999:16304   */\n    tag_218:\n        /* \"#utility.yul\":16039:16042   */\n      0x00\n        /* \"#utility.yul\":16058:16078   */\n      tag_518\n        /* \"#utility.yul\":16076:16077   */\n      dup3\n        /* \"#utility.yul\":16058:16078   */\n      tag_467\n      jump\t// in\n    tag_518:\n        /* \"#utility.yul\":16053:16078   */\n      swap2\n      pop\n        /* \"#utility.yul\":16092:16112   */\n      tag_519\n        /* \"#utility.yul\":16110:16111   */\n      dup4\n        /* \"#utility.yul\":16092:16112   */\n      tag_467\n      jump\t// in\n    tag_519:\n        /* \"#utility.yul\":16087:16112   */\n      swap3\n      pop\n        /* \"#utility.yul\":16246:16247   */\n      dup3\n        /* \"#utility.yul\":16178:16244   */\n      0xffffffffffffffffffffffffffffffffffffffffffffffffffffffffffffffff\n        /* \"#utility.yul\":16174:16248   */\n      sub\n        /* \"#utility.yul\":16171:16172   */\n      dup3\n        /* \"#utility.yul\":16168:16249   */\n      gt\n        /* \"#utility.yul\":16165:16272   */\n      iszero\n      tag_520\n      jumpi\n        /* \"#utility.yul\":16252:16270   */\n      tag_521\n      tag_522\n      jump\t// in\n    tag_521:\n        /* \"#utility.yul\":16165:16272   */\n    tag_520:\n        /* \"#utility.yul\":16296:16297   */\n      dup3\n        /* \"#utility.yul\":16293:16294   */\n      dup3\n        /* \"#utility.yul\":16289:16298   */\n      add\n        /* \"#utility.yul\":16282:16298   */\n      swap1\n      pop\n        /* \"#utility.yul\":15999:16304   */\n      swap3\n      swap2\n      pop\n      pop\n      jump\t// out\n        /* \"#utility.yul\":16310:16501   */\n    tag_216:\n        /* \"#utility.yul\":16350:16354   */\n      0x00\n        /* \"#utility.yul\":16370:16390   */\n      tag_524\n        /* \"#utility.yul\":16388:16389   */\n      dup3\n        /* \"#utility.yul\":16370:16390   */\n      tag_467\n      jump\t// in\n    tag_524:\n        /* \"#utility.yul\":16365:16390   */\n      swap2\n      pop\n        /* \"#utility.yul\":16404:16424   */\n      tag_525\n        /* \"#utility.yul\":16422:16423   */\n      dup4\n        /* \"#utility.yul\":16404:16424   */\n      tag_467\n      jump\t// in\n    tag_525:\n        /* \"#utility.yul\":16399:16424   */\n      swap3\n      pop\n        /* \"#utility.yul\":16443:16444   */\n      dup3\n        /* \"#utility.yul\":16440:16441   */\n      dup3\n        /* \"#utility.yul\":16437:16445   */\n      lt\n        /* \"#utility.yul\":16434:16468   */\n      iszero\n      tag_526\n      jumpi\n        /* \"#utility.yul\":16448:16466   */\n      tag_527\n      tag_522\n      jump\t// in\n    tag_527:\n        /* \"#utility.yul\":16434:16468   */\n    tag_526:\n        /* \"#utility.yul\":16493:16494   */\n      dup3\n        /* \"#utility.yul\":16490:16491   */\n      dup3\n        /* \"#utility.yul\":16486:16495   */\n      sub\n        /* \"#utility.yul\":16478:16495   */\n      swap1\n      pop\n        /* \"#utility.yul\":16310:16501   */\n      swap3\n      swap2\n      pop\n      pop\n      jump\t// out\n        /* \"#utility.yul\":16507:16597   */\n    tag_426:\n        /* \"#utility.yul\":16541:16548   */\n      0x00\n        /* \"#utility.yul\":16584:16589   */\n      dup2\n        /* \"#utility.yul\":16577:16590   */\n      iszero\n        /* \"#utility.yul\":16570:16591   */\n      iszero\n        /* \"#utility.yul\":16559:16591   */\n      swap1\n      pop\n        /* \"#utility.yul\":16507:16597   */\n      swap2\n      swap1\n      pop\n      jump\t// out\n        /* \"#utility.yul\":16603:16730   */\n    tag_529:\n        /* \"#utility.yul\":16648:16655   */\n      0x00\n        /* \"#utility.yul\":16677:16682   */\n      dup2\n        /* \"#utility.yul\":16666:16682   */\n      swap1\n      pop\n        /* \"#utility.yul\":16683:16724   */\n      tag_531\n        /* \"#utility.yul\":16718:16723   */\n      dup3\n        /* \"#utility.yul\":16683:16724   */\n      tag_532\n      jump\t// in\n    tag_531:\n        /* \"#utility.yul\":16603:16730   */\n      swap2\n      swap1\n      pop\n      jump\t// out\n        /* \"#utility.yul\":16736:16813   */\n    tag_467:\n        /* \"#utility.yul\":16773:16780   */\n      0x00\n        /* \"#utility.yul\":16802:16807   */\n      dup2\n        /* \"#utility.yul\":16791:16807   */\n      swap1\n      pop\n        /* \"#utility.yul\":16736:16813   */\n      swap2\n      swap1\n      pop\n      jump\t// out\n        /* \"#utility.yul\":16819:16905   */\n    tag_534:\n        /* \"#utility.yul\":16854:16861   */\n      0x00\n        /* \"#utility.yul\":16894:16898   */\n      0xff\n        /* \"#utility.yul\":16887:16892   */\n      dup3\n        /* \"#utility.yul\":16883:16899   */\n      and\n        /* \"#utility.yul\":16872:16899   */\n      swap1\n      pop\n        /* \"#utility.yul\":16819:16905   */\n      swap2\n      swap1\n      pop\n      jump\t// out\n        /* \"#utility.yul\":16911:17038   */\n    tag_430:\n        /* \"#utility.yul\":16967:16976   */\n      0x00\n        /* \"#utility.yul\":17000:17032   */\n      tag_537\n        /* \"#utility.yul\":17026:17031   */\n      dup3\n        /* \"#utility.yul\":17000:17032   */\n      tag_529\n      jump\t// in\n    tag_537:\n        /* \"#utility.yul\":16987:17032   */\n      swap1\n      pop\n        /* \"#utility.yul\":16911:17038   */\n      swap2\n      swap1\n      pop\n      jump\t// out\n        /* \"#utility.yul\":17044:17198   */\n    tag_352:\n        /* \"#utility.yul\":17128:17134   */\n      dup3\n        /* \"#utility.yul\":17123:17126   */\n      dup2\n        /* \"#utility.yul\":17118:17121   */\n      dup4\n        /* \"#utility.yul\":17105:17135   */\n      calldatacopy\n        /* \"#utility.yul\":17190:17191   */\n      0x00\n        /* \"#utility.yul\":17181:17187   */\n      dup4\n        /* \"#utility.yul\":17176:17179   */\n      dup4\n        /* \"#utility.yul\":17172:17188   */\n      add\n        /* \"#utility.yul\":17165:17192   */\n      mstore\n        /* \"#utility.yul\":17044:17198   */\n      pop\n      pop\n      pop\n      jump\t// out\n        /* \"#utility.yul\":17204:17511   */\n    tag_441:\n        /* \"#utility.yul\":17272:17273   */\n      0x00\n        /* \"#utility.yul\":17282:17395   */\n    tag_540:\n        /* \"#utility.yul\":17296:17302   */\n      dup4\n        /* \"#utility.yul\":17293:17294   */\n      dup2\n        /* \"#utility.yul\":17290:17303   */\n      lt\n        /* \"#utility.yul\":17282:17395   */\n      iszero\n      tag_542\n      jumpi\n        /* \"#utility.yul\":17381:17382   */\n      dup1\n        /* \"#utility.yul\":17376:17379   */\n      dup3\n        /* \"#utility.yul\":17372:17383   */\n      add\n        /* \"#utility.yul\":17366:17384   */\n      mload\n        /* \"#utility.yul\":17362:17363   */\n      dup2\n        /* \"#utility.yul\":17357:17360   */\n      dup5\n        /* \"#utility.yul\":17353:17364   */\n      add\n        /* \"#utility.yul\":17346:17385   */\n      mstore\n        /* \"#utility.yul\":17318:17320   */\n      0x20\n        /* \"#utility.yul\":17315:17316   */\n      dup2\n        /* \"#utility.yul\":17311:17321   */\n      add\n        /* \"#utility.yul\":17306:17321   */\n      swap1\n      pop\n        /* \"#utility.yul\":17282:17395   */\n      jump(tag_540)\n    tag_542:\n        /* \"#utility.yul\":17413:17419   */\n      dup4\n        /* \"#utility.yul\":17410:17411   */\n      dup2\n        /* \"#utility.yul\":17407:17420   */\n      gt\n        /* \"#utility.yul\":17404:17505   */\n      iszero\n      tag_543\n      jumpi\n        /* \"#utility.yul\":17493:17494   */\n      0x00\n        /* \"#utility.yul\":17484:17490   */\n      dup5\n        /* \"#utility.yul\":17479:17482   */\n      dup5\n        /* \"#utility.yul\":17475:17491   */\n      add\n        /* \"#utility.yul\":17468:17495   */\n      mstore\n        /* \"#utility.yul\":17404:17505   */\n    tag_543:\n        /* \"#utility.yul\":17253:17511   */\n      pop\n        /* \"#utility.yul\":17204:17511   */\n      pop\n      pop\n      pop\n      jump\t// out\n        /* \"#utility.yul\":17517:17837   */\n    tag_109:\n        /* \"#utility.yul\":17561:17567   */\n      0x00\n        /* \"#utility.yul\":17598:17599   */\n      0x02\n        /* \"#utility.yul\":17592:17596   */\n      dup3\n        /* \"#utility.yul\":17588:17600   */\n      div\n        /* \"#utility.yul\":17578:17600   */\n      swap1\n      pop\n        /* \"#utility.yul\":17645:17646   */\n      0x01\n        /* \"#utility.yul\":17639:17643   */\n      dup3\n        /* \"#utility.yul\":17635:17647   */\n      and\n        /* \"#utility.yul\":17666:17684   */\n      dup1\n        /* \"#utility.yul\":17656:17737   */\n      tag_545\n      jumpi\n        /* \"#utility.yul\":17722:17726   */\n      0x7f\n        /* \"#utility.yul\":17714:17720   */\n      dup3\n        /* \"#utility.yul\":17710:17727   */\n      and\n        /* \"#utility.yul\":17700:17727   */\n      swap2\n      pop\n        /* \"#utility.yul\":17656:17737   */\n    tag_545:\n        /* \"#utility.yul\":17784:17786   */\n      0x20\n        /* \"#utility.yul\":17776:17782   */\n      dup3\n        /* \"#utility.yul\":17773:17787   */\n      lt\n        /* \"#utility.yul\":17753:17771   */\n      dup2\n        /* \"#utility.yul\":17750:17788   */\n      eq\n        /* \"#utility.yul\":17747:17831   */\n      iszero\n      tag_546\n      jumpi\n        /* \"#utility.yul\":17803:17821   */\n      tag_547\n      tag_548\n      jump\t// in\n    tag_547:\n        /* \"#utility.yul\":17747:17831   */\n    tag_546:\n        /* \"#utility.yul\":17568:17837   */\n      pop\n        /* \"#utility.yul\":17517:17837   */\n      swap2\n      swap1\n      pop\n      jump\t// out\n        /* \"#utility.yul\":17843:18124   */\n    tag_503:\n        /* \"#utility.yul\":17926:17953   */\n      tag_550\n        /* \"#utility.yul\":17948:17952   */\n      dup3\n        /* \"#utility.yul\":17926:17953   */\n      tag_443\n      jump\t// in\n    tag_550:\n        /* \"#utility.yul\":17918:17924   */\n      dup2\n        /* \"#utility.yul\":17914:17954   */\n      add\n        /* \"#utility.yul\":18056:18062   */\n      dup2\n        /* \"#utility.yul\":18044:18054   */\n      dup2\n        /* \"#utility.yul\":18041:18063   */\n      lt\n        /* \"#utility.yul\":18020:18038   */\n      0xffffffffffffffff\n        /* \"#utility.yul\":18008:18018   */\n      dup3\n        /* \"#utility.yul\":18005:18039   */\n      gt\n        /* \"#utility.yul\":18002:18064   */\n      or\n        /* \"#utility.yul\":17999:18087   */\n      iszero\n      tag_551\n      jumpi\n        /* \"#utility.yul\":18067:18085   */\n      tag_552\n      tag_508\n      jump\t// in\n    tag_552:\n        /* \"#utility.yul\":17999:18087   */\n    tag_551:\n        /* \"#utility.yul\":18107:18117   */\n      dup1\n        /* \"#utility.yul\":18103:18105   */\n      0x40\n        /* \"#utility.yul\":18096:18118   */\n      mstore\n        /* \"#utility.yul\":17886:18124   */\n      pop\n        /* \"#utility.yul\":17843:18124   */\n      pop\n      pop\n      jump\t// out\n        /* \"#utility.yul\":18130:18363   */\n    tag_233:\n        /* \"#utility.yul\":18169:18172   */\n      0x00\n        /* \"#utility.yul\":18192:18216   */\n      tag_554\n        /* \"#utility.yul\":18210:18215   */\n      dup3\n        /* \"#utility.yul\":18192:18216   */\n      tag_467\n      jump\t// in\n    tag_554:\n        /* \"#utility.yul\":18183:18216   */\n      swap2\n      pop\n        /* \"#utility.yul\":18238:18304   */\n      0xffffffffffffffffffffffffffffffffffffffffffffffffffffffffffffffff\n        /* \"#utility.yul\":18231:18236   */\n      dup3\n        /* \"#utility.yul\":18228:18305   */\n      eq\n        /* \"#utility.yul\":18225:18328   */\n      iszero\n      tag_555\n      jumpi\n        /* \"#utility.yul\":18308:18326   */\n      tag_556\n      tag_522\n      jump\t// in\n    tag_556:\n        /* \"#utility.yul\":18225:18328   */\n    tag_555:\n        /* \"#utility.yul\":18355:18356   */\n      0x01\n        /* \"#utility.yul\":18348:18353   */\n      dup3\n        /* \"#utility.yul\":18344:18357   */\n      add\n        /* \"#utility.yul\":18337:18357   */\n      swap1\n      pop\n        /* \"#utility.yul\":18130:18363   */\n      swap2\n      swap1\n      pop\n      jump\t// out\n        /* \"#utility.yul\":18369:18549   */\n    tag_522:\n        /* \"#utility.yul\":18417:18494   */\n      0x4e487b7100000000000000000000000000000000000000000000000000000000\n        /* \"#utility.yul\":18414:18415   */\n      0x00\n        /* \"#utility.yul\":18407:18495   */\n      mstore\n        /* \"#utility.yul\":18514:18518   */\n      0x11\n        /* \"#utility.yul\":18511:18512   */\n      0x04\n        /* \"#utility.yul\":18504:18519   */\n      mstore\n        /* \"#utility.yul\":18538:18542   */\n      0x24\n        /* \"#utility.yul\":18535:18536   */\n      0x00\n        /* \"#utility.yul\":18528:18543   */\n      revert\n        /* \"#utility.yul\":18555:18735   */\n    tag_103:\n        /* \"#utility.yul\":18603:18680   */\n      0x4e487b7100000000000000000000000000000000000000000000000000000000\n        /* \"#utility.yul\":18600:18601   */\n      0x00\n        /* \"#utility.yul\":18593:18681   */\n      mstore\n        /* \"#utility.yul\":18700:18704   */\n      0x21\n        /* \"#utility.yul\":18697:18698   */\n      0x04\n        /* \"#utility.yul\":18690:18705   */\n      mstore\n        /* \"#utility.yul\":18724:18728   */\n      0x24\n        /* \"#utility.yul\":18721:18722   */\n      0x00\n        /* \"#utility.yul\":18714:18729   */\n      revert\n        /* \"#utility.yul\":18741:18921   */\n    tag_548:\n        /* \"#utility.yul\":18789:18866   */\n      0x4e487b7100000000000000000000000000000000000000000000000000000000\n        /* \"#utility.yul\":18786:18787   */\n      0x00\n        /* \"#utility.yul\":18779:18867   */\n      mstore\n        /* \"#utility.yul\":18886:18890   */\n      0x22\n        /* \"#utility.yul\":18883:18884   */\n      0x04\n        /* \"#utility.yul\":18876:18891   */\n      mstore\n        /* \"#utility.yul\":18910:18914   */\n      0x24\n        /* \"#utility.yul\":18907:18908   */\n      0x00\n        /* \"#utility.yul\":18900:18915   */\n      revert\n        /* \"#utility.yul\":18927:19107   */\n    tag_236:\n        /* \"#utility.yul\":18975:19052   */\n      0x4e487b7100000000000000000000000000000000000000000000000000000000\n        /* \"#utility.yul\":18972:18973   */\n      0x00\n        /* \"#utility.yul\":18965:19053   */\n      mstore\n        /* \"#utility.yul\":19072:19076   */\n      0x31\n        /* \"#utility.yul\":19069:19070   */\n      0x04\n        /* \"#utility.yul\":19062:19077   */\n      mstore\n        /* \"#utility.yul\":19096:19100   */\n      0x24\n        /* \"#utility.yul\":19093:19094   */\n      0x00\n        /* \"#utility.yul\":19086:19101   */\n      revert\n        /* \"#utility.yul\":19113:19293   */\n    tag_106:\n        /* \"#utility.yul\":19161:19238   */\n      0x4e487b7100000000000000000000000000000000000000000000000000000000\n        /* \"#utility.yul\":19158:19159   */\n      0x00\n        /* \"#utility.yul\":19151:19239   */\n      mstore\n        /* \"#utility.yul\":19258:19262   */\n      0x32\n        /* \"#utility.yul\":19255:19256   */\n      0x04\n        /* \"#utility.yul\":19248:19263   */\n      mstore\n        /* \"#utility.yul\":19282:19286   */\n      0x24\n        /* \"#utility.yul\":19279:19280   */\n      0x00\n        /* \"#utility.yul\":19272:19287   */\n      revert\n        /* \"#utility.yul\":19299:19479   */\n    tag_508:\n        /* \"#utility.yul\":19347:19424   */\n      0x4e487b7100000000000000000000000000000000000000000000000000000000\n        /* \"#utility.yul\":19344:19345   */\n      0x00\n        /* \"#utility.yul\":19337:19425   */\n      mstore\n        /* \"#utility.yul\":19444:19448   */\n      0x41\n        /* \"#utility.yul\":19441:19442   */\n      0x04\n        /* \"#utility.yul\":19434:19449   */\n      mstore\n        /* \"#utility.yul\":19468:19472   */\n      0x24\n        /* \"#utility.yul\":19465:19466   */\n      0x00\n        /* \"#utility.yul\":19458:19473   */\n      revert\n        /* \"#utility.yul\":19485:19602   */\n    tag_357:\n        /* \"#utility.yul\":19594:19595   */\n      0x00\n        /* \"#utility.yul\":19591:19592   */\n      dup1\n        /* \"#utility.yul\":19584:19596   */\n      revert\n        /* \"#utility.yul\":19608:19725   */\n    tag_350:\n        /* \"#utility.yul\":19717:19718   */\n      0x00\n        /* \"#utility.yul\":19714:19715   */\n      dup1\n        /* \"#utility.yul\":19707:19719   */\n      revert\n        /* \"#utility.yul\":19731:19848   */\n    tag_378:\n        /* \"#utility.yul\":19840:19841   */\n      0x00\n        /* \"#utility.yul\":19837:19838   */\n      dup1\n        /* \"#utility.yul\":19830:19842   */\n      revert\n        /* \"#utility.yul\":19854:19971   */\n    tag_370:\n        /* \"#utility.yul\":19963:19964   */\n      0x00\n        /* \"#utility.yul\":19960:19961   */\n      dup1\n        /* \"#utility.yul\":19953:19965   */\n      revert\n        /* \"#utility.yul\":19977:20079   */\n    tag_443:\n        /* \"#utility.yul\":20018:20024   */\n      0x00\n        /* \"#utility.yul\":20069:20071   */\n      0x1f\n        /* \"#utility.yul\":20065:20072   */\n      not\n        /* \"#utility.yul\":20060:20062   */\n      0x1f\n        /* \"#utility.yul\":20053:20058   */\n      dup4\n        /* \"#utility.yul\":20049:20063   */\n      add\n        /* \"#utility.yul\":20045:20073   */\n      and\n        /* \"#utility.yul\":20035:20073   */\n      swap1\n      pop\n        /* \"#utility.yul\":19977:20079   */\n      swap2\n      swap1\n      pop\n      jump\t// out\n        /* \"#utility.yul\":20085:20264   */\n    tag_449:\n        /* \"#utility.yul\":20225:20256   */\n      0x4d696c6573746f6e65206e756d626572206f7574206f662072616e6765000000\n        /* \"#utility.yul\":20221:20222   */\n      0x00\n        /* \"#utility.yul\":20213:20219   */\n      dup3\n        /* \"#utility.yul\":20209:20223   */\n      add\n        /* \"#utility.yul\":20202:20257   */\n      mstore\n        /* \"#utility.yul\":20085:20264   */\n      pop\n      jump\t// out\n        /* \"#utility.yul\":20270:20493   */\n    tag_454:\n        /* \"#utility.yul\":20410:20444   */\n      0x4d696c6573746f6e65732068617665206e6f74206265656e2063726561746564\n        /* \"#utility.yul\":20406:20407   */\n      0x00\n        /* \"#utility.yul\":20398:20404   */\n      dup3\n        /* \"#utility.yul\":20394:20408   */\n      add\n        /* \"#utility.yul\":20387:20445   */\n      mstore\n        /* \"#utility.yul\":20479:20485   */\n      0x2079657400000000000000000000000000000000000000000000000000000000\n        /* \"#utility.yul\":20474:20476   */\n      0x20\n        /* \"#utility.yul\":20466:20472   */\n      dup3\n        /* \"#utility.yul\":20462:20477   */\n      add\n        /* \"#utility.yul\":20455:20486   */\n      mstore\n        /* \"#utility.yul\":20270:20493   */\n      pop\n      jump\t// out\n        /* \"#utility.yul\":20499:20612   */\n    tag_532:\n        /* \"#utility.yul\":20580:20581   */\n      0x07\n        /* \"#utility.yul\":20573:20578   */\n      dup2\n        /* \"#utility.yul\":20570:20582   */\n      lt\n        /* \"#utility.yul\":20560:20606   */\n      tag_571\n      jumpi\n        /* \"#utility.yul\":20586:20604   */\n      tag_572\n      tag_103\n      jump\t// in\n    tag_572:\n        /* \"#utility.yul\":20560:20606   */\n    tag_571:\n        /* \"#utility.yul\":20499:20612   */\n      pop\n      jump\t// out\n        /* \"#utility.yul\":20618:20740   */\n    tag_362:\n        /* \"#utility.yul\":20691:20715   */\n      tag_574\n        /* \"#utility.yul\":20709:20714   */\n      dup2\n        /* \"#utility.yul\":20691:20715   */\n      tag_467\n      jump\t// in\n    tag_574:\n        /* \"#utility.yul\":20684:20689   */\n      dup2\n        /* \"#utility.yul\":20681:20716   */\n      eq\n        /* \"#utility.yul\":20671:20734   */\n      tag_575\n      jumpi\n        /* \"#utility.yul\":20730:20731   */\n      0x00\n        /* \"#utility.yul\":20727:20728   */\n      dup1\n        /* \"#utility.yul\":20720:20732   */\n      revert\n        /* \"#utility.yul\":20671:20734   */\n    tag_575:\n        /* \"#utility.yul\":20618:20740   */\n      pop\n      jump\t// out\n        /* \"#utility.yul\":20746:20864   */\n    tag_366:\n        /* \"#utility.yul\":20817:20839   */\n      tag_577\n        /* \"#utility.yul\":20833:20838   */\n      dup2\n        /* \"#utility.yul\":20817:20839   */\n      tag_534\n      jump\t// in\n    tag_577:\n        /* \"#utility.yul\":20810:20815   */\n      dup2\n        /* \"#utility.yul\":20807:20840   */\n      eq\n        /* \"#utility.yul\":20797:20858   */\n      tag_578\n      jumpi\n        /* \"#utility.yul\":20854:20855   */\n      0x00\n        /* \"#utility.yul\":20851:20852   */\n      dup1\n        /* \"#utility.yul\":20844:20856   */\n      revert\n        /* \"#utility.yul\":20797:20858   */\n    tag_578:\n        /* \"#utility.yul\":20746:20864   */\n      pop\n      jump\t// out\n\n    auxdata: 0xa26469706673582212203919467025bfb1cc6e24db8d88086c0a3d8c6c6e2bed6ef24439c6c71e22cebd64736f6c63430008070033\n}\n",
				"bytecode": {
					"linkReferences": {},
					"object": "608060405234801561001057600080fd5b506121f8806100206000396000f3fe608060405234801561001057600080fd5b50600436106101165760003560e01c80636139ab8f116100a2578063ab7db00311610071578063ab7db00314610327578063b5015d1114610343578063bceae35c1461035f578063cc590e6f1461037b578063e8049da11461039757610116565b80636139ab8f1461028f57806379a6544e146102bf578063863ccc08146102db578063a1a56bae1461030b57610116565b8063275a645c116100e9578063275a645c146101c757806346d6e88e146101e3578063533c787b146101ff5780635c91eb591461022f5780636005ecfd1461025f57610116565b8063095674aa1461011b5780631e0f2a46146101375780632611954f14610167578063261ea72414610197575b600080fd5b61013560048036038101906101309190611894565b6103c7565b005b610151600480360381019061014c919061179c565b6106d9565b60405161015e9190611b9a565b60405180910390f35b610181600480360381019061017c9190611933565b6106ed565b60405161018e9190611b9a565b60405180910390f35b6101b160048036038101906101ac919061179c565b610755565b6040516101be9190611b9a565b60405180910390f35b6101e160048036038101906101dc9190611854565b610769565b005b6101fd60048036038101906101f89190611854565b6107d4565b005b6102196004803603810190610214919061179c565b61083f565b6040516102269190611c10565b60405180910390f35b6102496004803603810190610244919061179c565b6108b9565b6040516102569190611b78565b60405180910390f35b6102796004803603810190610274919061179c565b610ae4565b6040516102869190611b9a565b60405180910390f35b6102a960048036038101906102a4919061179c565b610af8565b6040516102b69190611b9a565b60405180910390f35b6102d960048036038101906102d49190611854565b610b0c565b005b6102f560048036038101906102f0919061179c565b610b77565b6040516103029190611b9a565b60405180910390f35b61032560048036038101906103209190611854565b610b99565b005b610341600480360381019061033c9190611854565b610f8d565b005b61035d600480360381019061035891906117c9565b610ff8565b005b61037960048036038101906103749190611854565b611128565b005b6103956004803603810190610390919061179c565b611193565b005b6103b160048036038101906103ac9190611854565b6111d6565b6040516103be9190611bb5565b60405180910390f35b836000806000838152602001908152602001600020805490501415610421576040517f08c379a000000000000000000000000000000000000000000000000000000000815260040161041890611bf0565b60405180910390fd5b600060405180606001604052808581526020018481526020016001600681111561044e5761044d611ff8565b5b81525090506000806000888152602001908152602001600020868154811061047957610478612085565b5b90600052602060002090600302016040518060600160405290816000820180546104a290611f1d565b80601f01602080910402602001604051908101604052809291908181526020018280546104ce90611f1d565b801561051b5780601f106104f05761010080835404028352916020019161051b565b820191906000526020600020905b8154815290600101906020018083116104fe57829003601f168201915b5050505050815260200160018201805461053490611f1d565b80601f016020809104026020016040519081016040528092919081815260200182805461056090611f1d565b80156105ad5780601f10610582576101008083540402835291602001916105ad565b820191906000526020600020905b81548152906001019060200180831161059057829003601f168201915b505050505081526020016002820160009054906101000a900460ff1660068111156105db576105da611ff8565b5b60068111156105ed576105ec611ff8565b5b81525050905081600080898152602001908152602001600020878154811061061857610617612085565b5b90600052602060002090600302016000820151816000019080519060200190610642929190611592565b50602082015181600101908051906020019061065f929190611592565b5060408201518160020160006101000a81548160ff0219169083600681111561068b5761068a611ff8565b5b02179055509050507f65b6a4fc6c03a38284e22d1d709975609c288dbbd2f5d284f2585fd4ad4b46b4878784846040516106c89493929190611cae565b60405180910390a150505050505050565b60006106e68260056112d9565b9050919050565b60008160ff16600080868152602001908152602001600020848154811061071757610716612085565b5b906000526020600020906003020160020160009054906101000a900460ff16600681111561074857610747611ff8565b5b60ff161490509392505050565b60006107628260026112d9565b9050919050565b8160008060008381526020019081526020016000208054905014156107c3576040517f08c379a00000000000000000000000000000000000000000000000000000000081526004016107ba90611bf0565b60405180910390fd5b6107cf83836005611394565b505050565b81600080600083815260200190815260200160002080549050141561082e576040517f08c379a000000000000000000000000000000000000000000000000000000000815260040161082590611bf0565b60405180910390fd5b61083a83836004611394565b505050565b600081600080600083815260200190815260200160002080549050141561089b576040517f08c379a000000000000000000000000000000000000000000000000000000000815260040161089290611bf0565b60405180910390fd5b60008084815260200190815260200160002080549050915050919050565b6060816000806000838152602001908152602001600020805490501415610915576040517f08c379a000000000000000000000000000000000000000000000000000000000815260040161090c90611bf0565b60405180910390fd5b600080848152602001908152602001600020805480602002602001604051908101604052809291908181526020016000905b82821015610ad8578382906000526020600020906003020160405180606001604052908160008201805461097a90611f1d565b80601f01602080910402602001604051908101604052809291908181526020018280546109a690611f1d565b80156109f35780601f106109c8576101008083540402835291602001916109f3565b820191906000526020600020905b8154815290600101906020018083116109d657829003601f168201915b50505050508152602001600182018054610a0c90611f1d565b80601f0160208091040260200160405190810160405280929190818152602001828054610a3890611f1d565b8015610a855780601f10610a5a57610100808354040283529160200191610a85565b820191906000526020600020905b815481529060010190602001808311610a6857829003601f168201915b505050505081526020016002820160009054906101000a900460ff166006811115610ab357610ab2611ff8565b5b6006811115610ac557610ac4611ff8565b5b8152505081526020019060010190610947565b50505050915050919050565b6000610af18260066114d6565b9050919050565b6000610b058260046112d9565b9050919050565b816000806000838152602001908152602001600020805490501415610b66576040517f08c379a0000000000000000000000000000000000000000000000000000000008152600401610b5d90611bf0565b60405180910390fd5b610b7283836002611394565b505050565b6000806000808481526020019081526020016000208054905014159050919050565b816000806000838152602001908152602001600020805490501415610bf3576040517f08c379a0000000000000000000000000000000000000000000000000000000008152600401610bea90611bf0565b60405180910390fd5b60008060008581526020019081526020016000208381548110610c1957610c18612085565b5b9060005260206000209060030201604051806060016040529081600082018054610c4290611f1d565b80601f0160208091040260200160405190810160405280929190818152602001828054610c6e90611f1d565b8015610cbb5780601f10610c9057610100808354040283529160200191610cbb565b820191906000526020600020905b815481529060010190602001808311610c9e57829003601f168201915b50505050508152602001600182018054610cd490611f1d565b80601f0160208091040260200160405190810160405280929190818152602001828054610d0090611f1d565b8015610d4d5780601f10610d2257610100808354040283529160200191610d4d565b820191906000526020600020905b815481529060010190602001808311610d3057829003601f168201915b505050505081526020016002820160009054906101000a900460ff166006811115610d7b57610d7a611ff8565b5b6006811115610d8d57610d8c611ff8565b5b81525050905060008390505b600160008087815260200190815260200160002080549050610dbb9190611e5f565b811015610ec557600080868152602001908152602001600020600182610de19190611e09565b81548110610df257610df1612085565b5b90600052602060002090600302016000808781526020019081526020016000208281548110610e2457610e23612085565b5b90600052602060002090600302016000820181600001908054610e4690611f1d565b610e51929190611618565b506001820181600101908054610e6690611f1d565b610e71929190611618565b506002820160009054906101000a900460ff168160020160006101000a81548160ff02191690836006811115610eaa57610ea9611ff8565b5b02179055509050508080610ebd90611f80565b915050610d99565b50600080858152602001908152602001600020805480610ee857610ee7612056565b5b600190038181906000526020600020906003020160008082016000610f0d91906116a5565b600182016000610f1d91906116a5565b6002820160006101000a81549060ff0219169055505090557f6d4454e6395559c04e81910079e267dc2b89dc5c7c0c09baf1068ffff6542ce184848360008089815260200190815260200160002080549050604051610f7f9493929190611d01565b60405180910390a150505050565b816000806000838152602001908152602001600020805490501415610fe7576040517f08c379a0000000000000000000000000000000000000000000000000000000008152600401610fde90611bf0565b60405180910390fd5b610ff383836003611394565b505050565b600060405180606001604052808481526020018381526020016001600681111561102557611024611ff8565b5b81525090506000808581526020019081526020016000208190806001815401808255809150506001900390600052602060002090600302016000909190919091506000820151816000019080519060200190611082929190611592565b50602082015181600101908051906020019061109f929190611592565b5060408201518160020160006101000a81548160ff021916908360068111156110cb576110ca611ff8565b5b021790555050507f0e5e5840c0784eb00d266bdfb12bc390d99afa672e3da23f76eb1a932947bed684826000808881526020019081526020016000208054905060405161111a93929190611c2b565b60405180910390a150505050565b816000806000838152602001908152602001600020805490501415611182576040517f08c379a000000000000000000000000000000000000000000000000000000000815260040161117990611bf0565b60405180910390fd5b61118e83836006611394565b505050565b60005b600080838152602001908152602001600020805490508110156111d2576111bf82826001611394565b80806111ca90611f80565b915050611196565b5050565b6000826000806000838152602001908152602001600020805490501415611232576040517f08c379a000000000000000000000000000000000000000000000000000000000815260040161122990611bf0565b60405180910390fd5b838360008083815260200190815260200160002080549050811061128b576040517f08c379a000000000000000000000000000000000000000000000000000000000815260040161128290611bd0565b60405180910390fd5b60008087815260200190815260200160002085815481106112af576112ae612085565b5b906000526020600020906003020160020160009054906101000a900460ff16935050505092915050565b600080600090505b600080858152602001908152602001600020805490508110156113885782600681111561131157611310611ff8565b5b600080868152602001908152602001600020828154811061133557611334612085565b5b906000526020600020906003020160020160009054906101000a900460ff16600681111561136657611365611ff8565b5b1461137557600091505061138e565b808061138090611f80565b9150506112e1565b50600190505b92915050565b8260008060008381526020019081526020016000208054905014156113ee576040517f08c379a00000000000000000000000000000000000000000000000000000000081526004016113e590611bf0565b60405180910390fd5b6000806000868152602001908152602001600020848154811061141457611413612085565b5b906000526020600020906003020160020160009054906101000a900460ff16905082600080878152602001908152602001600020858154811061145a57611459612085565b5b906000526020600020906003020160020160006101000a81548160ff0219169083600681111561148d5761148c611ff8565b5b02179055507fa4e86334f55642d44167e3603aa4f62296dedbc45291b004f14978bb96daea7b858583866040516114c79493929190611c69565b60405180910390a15050505050565b600080600090505b600080858152602001908152602001600020805490508110156115865782600681111561150e5761150d611ff8565b5b600080868152602001908152602001600020828154811061153257611531612085565b5b906000526020600020906003020160020160009054906101000a900460ff16600681111561156357611562611ff8565b5b141561157357600091505061158c565b808061157e90611f80565b9150506114de565b50600190505b92915050565b82805461159e90611f1d565b90600052602060002090601f0160209004810192826115c05760008555611607565b82601f106115d957805160ff1916838001178555611607565b82800160010185558215611607579182015b828111156116065782518255916020019190600101906115eb565b5b50905061161491906116e5565b5090565b82805461162490611f1d565b90600052602060002090601f0160209004810192826116465760008555611694565b82601f106116575780548555611694565b8280016001018555821561169457600052602060002091601f016020900482015b82811115611693578254825591600101919060010190611678565b5b5090506116a191906116e5565b5090565b5080546116b190611f1d565b6000825580601f106116c357506116e2565b601f0160209004906000526020600020908101906116e191906116e5565b5b50565b5b808211156116fe5760008160009055506001016116e6565b5090565b600061171561171084611d72565b611d4d565b905082815260208101848484011115611731576117306120e8565b5b61173c848285611edb565b509392505050565b600082601f830112611759576117586120e3565b5b8135611769848260208601611702565b91505092915050565b60008135905061178181612194565b92915050565b600081359050611796816121ab565b92915050565b6000602082840312156117b2576117b16120f2565b5b60006117c084828501611772565b91505092915050565b6000806000606084860312156117e2576117e16120f2565b5b60006117f086828701611772565b935050602084013567ffffffffffffffff811115611811576118106120ed565b5b61181d86828701611744565b925050604084013567ffffffffffffffff81111561183e5761183d6120ed565b5b61184a86828701611744565b9150509250925092565b6000806040838503121561186b5761186a6120f2565b5b600061187985828601611772565b925050602061188a85828601611772565b9150509250929050565b600080600080608085870312156118ae576118ad6120f2565b5b60006118bc87828801611772565b94505060206118cd87828801611772565b935050604085013567ffffffffffffffff8111156118ee576118ed6120ed565b5b6118fa87828801611744565b925050606085013567ffffffffffffffff81111561191b5761191a6120ed565b5b61192787828801611744565b91505092959194509250565b60008060006060848603121561194c5761194b6120f2565b5b600061195a86828701611772565b935050602061196b86828701611772565b925050604061197c86828701611787565b9150509250925092565b60006119928383611abb565b905092915050565b60006119a582611db3565b6119af8185611dd6565b9350836020820285016119c185611da3565b8060005b858110156119fd57848403895281516119de8582611986565b94506119e983611dc9565b925060208a019950506001810190506119c5565b50829750879550505050505092915050565b611a1881611e93565b82525050565b611a2781611ec9565b82525050565b611a3681611ec9565b82525050565b6000611a4782611dbe565b611a518185611de7565b9350611a61818560208601611eea565b611a6a816120f7565b840191505092915050565b6000611a82601d83611df8565b9150611a8d82612108565b602082019050919050565b6000611aa5602483611df8565b9150611ab082612131565b604082019050919050565b60006060830160008301518482036000860152611ad88282611a3c565b91505060208301518482036020860152611af28282611a3c565b9150506040830151611b076040860182611a1e565b508091505092915050565b60006060830160008301518482036000860152611b2f8282611a3c565b91505060208301518482036020860152611b498282611a3c565b9150506040830151611b5e6040860182611a1e565b508091505092915050565b611b7281611eb2565b82525050565b60006020820190508181036000830152611b92818461199a565b905092915050565b6000602082019050611baf6000830184611a0f565b92915050565b6000602082019050611bca6000830184611a2d565b92915050565b60006020820190508181036000830152611be981611a75565b9050919050565b60006020820190508181036000830152611c0981611a98565b9050919050565b6000602082019050611c256000830184611b69565b92915050565b6000606082019050611c406000830186611b69565b8181036020830152611c528185611b12565b9050611c616040830184611b69565b949350505050565b6000608082019050611c7e6000830187611b69565b611c8b6020830186611b69565b611c986040830185611a2d565b611ca56060830184611a2d565b95945050505050565b6000608082019050611cc36000830187611b69565b611cd06020830186611b69565b8181036040830152611ce28185611b12565b90508181036060830152611cf68184611b12565b905095945050505050565b6000608082019050611d166000830187611b69565b611d236020830186611b69565b8181036040830152611d358185611b12565b9050611d446060830184611b69565b95945050505050565b6000611d57611d68565b9050611d638282611f4f565b919050565b6000604051905090565b600067ffffffffffffffff821115611d8d57611d8c6120b4565b5b611d96826120f7565b9050602081019050919050565b6000819050602082019050919050565b600081519050919050565b600081519050919050565b6000602082019050919050565b600082825260208201905092915050565b600082825260208201905092915050565b600082825260208201905092915050565b6000611e1482611eb2565b9150611e1f83611eb2565b9250827fffffffffffffffffffffffffffffffffffffffffffffffffffffffffffffffff03821115611e5457611e53611fc9565b5b828201905092915050565b6000611e6a82611eb2565b9150611e7583611eb2565b925082821015611e8857611e87611fc9565b5b828203905092915050565b60008115159050919050565b6000819050611ead82612180565b919050565b6000819050919050565b600060ff82169050919050565b6000611ed482611e9f565b9050919050565b82818337600083830152505050565b60005b83811015611f08578082015181840152602081019050611eed565b83811115611f17576000848401525b50505050565b60006002820490506001821680611f3557607f821691505b60208210811415611f4957611f48612027565b5b50919050565b611f58826120f7565b810181811067ffffffffffffffff82111715611f7757611f766120b4565b5b80604052505050565b6000611f8b82611eb2565b91507fffffffffffffffffffffffffffffffffffffffffffffffffffffffffffffffff821415611fbe57611fbd611fc9565b5b600182019050919050565b7f4e487b7100000000000000000000000000000000000000000000000000000000600052601160045260246000fd5b7f4e487b7100000000000000000000000000000000000000000000000000000000600052602160045260246000fd5b7f4e487b7100000000000000000000000000000000000000000000000000000000600052602260045260246000fd5b7f4e487b7100000000000000000000000000000000000000000000000000000000600052603160045260246000fd5b7f4e487b7100000000000000000000000000000000000000000000000000000000600052603260045260246000fd5b7f4e487b7100000000000000000000000000000000000000000000000000000000600052604160045260246000fd5b600080fd5b600080fd5b600080fd5b600080fd5b6000601f19601f8301169050919050565b7f4d696c6573746f6e65206e756d626572206f7574206f662072616e6765000000600082015250565b7f4d696c6573746f6e65732068617665206e6f74206265656e206372656174656460008201527f2079657400000000000000000000000000000000000000000000000000000000602082015250565b6007811061219157612190611ff8565b5b50565b61219d81611eb2565b81146121a857600080fd5b50565b6121b481611ebc565b81146121bf57600080fd5b5056fea26469706673582212203919467025bfb1cc6e24db8d88086c0a3d8c6c6e2bed6ef24439c6c71e22cebd64736f6c63430008070033",
					"opcodes": "PUSH1 0x80 PUSH1 0x40 MSTORE CALLVALUE DUP1 ISZERO PUSH2 0x10 JUMPI PUSH1 0x0 DUP1 REVERT JUMPDEST POP PUSH2 0x21F8 DUP1 PUSH2 0x20 PUSH1 0x0 CODECOPY PUSH1 0x0 RETURN INVALID PUSH1 0x80 PUSH1 0x40 MSTORE CALLVALUE DUP1 ISZERO PUSH2 0x10 JUMPI PUSH1 0x0 DUP1 REVERT JUMPDEST POP PUSH1 0x4 CALLDATASIZE LT PUSH2 0x116 JUMPI PUSH1 0x0 CALLDATALOAD PUSH1 0xE0 SHR DUP1 PUSH4 0x6139AB8F GT PUSH2 0xA2 JUMPI DUP1 PUSH4 0xAB7DB003 GT PUSH2 0x71 JUMPI DUP1 PUSH4 0xAB7DB003 EQ PUSH2 0x327 JUMPI DUP1 PUSH4 0xB5015D11 EQ PUSH2 0x343 JUMPI DUP1 PUSH4 0xBCEAE35C EQ PUSH2 0x35F JUMPI DUP1 PUSH4 0xCC590E6F EQ PUSH2 0x37B JUMPI DUP1 PUSH4 0xE8049DA1 EQ PUSH2 0x397 JUMPI PUSH2 0x116 JUMP JUMPDEST DUP1 PUSH4 0x6139AB8F EQ PUSH2 0x28F JUMPI DUP1 PUSH4 0x79A6544E EQ PUSH2 0x2BF JUMPI DUP1 PUSH4 0x863CCC08 EQ PUSH2 0x2DB JUMPI DUP1 PUSH4 0xA1A56BAE EQ PUSH2 0x30B JUMPI PUSH2 0x116 JUMP JUMPDEST DUP1 PUSH4 0x275A645C GT PUSH2 0xE9 JUMPI DUP1 PUSH4 0x275A645C EQ PUSH2 0x1C7 JUMPI DUP1 PUSH4 0x46D6E88E EQ PUSH2 0x1E3 JUMPI DUP1 PUSH4 0x533C787B EQ PUSH2 0x1FF JUMPI DUP1 PUSH4 0x5C91EB59 EQ PUSH2 0x22F JUMPI DUP1 PUSH4 0x6005ECFD EQ PUSH2 0x25F JUMPI PUSH2 0x116 JUMP JUMPDEST DUP1 PUSH4 0x95674AA EQ PUSH2 0x11B JUMPI DUP1 PUSH4 0x1E0F2A46 EQ PUSH2 0x137 JUMPI DUP1 PUSH4 0x2611954F EQ PUSH2 0x167 JUMPI DUP1 PUSH4 0x261EA724 EQ PUSH2 0x197 JUMPI JUMPDEST PUSH1 0x0 DUP1 REVERT JUMPDEST PUSH2 0x135 PUSH1 0x4 DUP1 CALLDATASIZE SUB DUP2 ADD SWAP1 PUSH2 0x130 SWAP2 SWAP1 PUSH2 0x1894 JUMP JUMPDEST PUSH2 0x3C7 JUMP JUMPDEST STOP JUMPDEST PUSH2 0x151 PUSH1 0x4 DUP1 CALLDATASIZE SUB DUP2 ADD SWAP1 PUSH2 0x14C SWAP2 SWAP1 PUSH2 0x179C JUMP JUMPDEST PUSH2 0x6D9 JUMP JUMPDEST PUSH1 0x40 MLOAD PUSH2 0x15E SWAP2 SWAP1 PUSH2 0x1B9A JUMP JUMPDEST PUSH1 0x40 MLOAD DUP1 SWAP2 SUB SWAP1 RETURN JUMPDEST PUSH2 0x181 PUSH1 0x4 DUP1 CALLDATASIZE SUB DUP2 ADD SWAP1 PUSH2 0x17C SWAP2 SWAP1 PUSH2 0x1933 JUMP JUMPDEST PUSH2 0x6ED JUMP JUMPDEST PUSH1 0x40 MLOAD PUSH2 0x18E SWAP2 SWAP1 PUSH2 0x1B9A JUMP JUMPDEST PUSH1 0x40 MLOAD DUP1 SWAP2 SUB SWAP1 RETURN JUMPDEST PUSH2 0x1B1 PUSH1 0x4 DUP1 CALLDATASIZE SUB DUP2 ADD SWAP1 PUSH2 0x1AC SWAP2 SWAP1 PUSH2 0x179C JUMP JUMPDEST PUSH2 0x755 JUMP JUMPDEST PUSH1 0x40 MLOAD PUSH2 0x1BE SWAP2 SWAP1 PUSH2 0x1B9A JUMP JUMPDEST PUSH1 0x40 MLOAD DUP1 SWAP2 SUB SWAP1 RETURN JUMPDEST PUSH2 0x1E1 PUSH1 0x4 DUP1 CALLDATASIZE SUB DUP2 ADD SWAP1 PUSH2 0x1DC SWAP2 SWAP1 PUSH2 0x1854 JUMP JUMPDEST PUSH2 0x769 JUMP JUMPDEST STOP JUMPDEST PUSH2 0x1FD PUSH1 0x4 DUP1 CALLDATASIZE SUB DUP2 ADD SWAP1 PUSH2 0x1F8 SWAP2 SWAP1 PUSH2 0x1854 JUMP JUMPDEST PUSH2 0x7D4 JUMP JUMPDEST STOP JUMPDEST PUSH2 0x219 PUSH1 0x4 DUP1 CALLDATASIZE SUB DUP2 ADD SWAP1 PUSH2 0x214 SWAP2 SWAP1 PUSH2 0x179C JUMP JUMPDEST PUSH2 0x83F JUMP JUMPDEST PUSH1 0x40 MLOAD PUSH2 0x226 SWAP2 SWAP1 PUSH2 0x1C10 JUMP JUMPDEST PUSH1 0x40 MLOAD DUP1 SWAP2 SUB SWAP1 RETURN JUMPDEST PUSH2 0x249 PUSH1 0x4 DUP1 CALLDATASIZE SUB DUP2 ADD SWAP1 PUSH2 0x244 SWAP2 SWAP1 PUSH2 0x179C JUMP JUMPDEST PUSH2 0x8B9 JUMP JUMPDEST PUSH1 0x40 MLOAD PUSH2 0x256 SWAP2 SWAP1 PUSH2 0x1B78 JUMP JUMPDEST PUSH1 0x40 MLOAD DUP1 SWAP2 SUB SWAP1 RETURN JUMPDEST PUSH2 0x279 PUSH1 0x4 DUP1 CALLDATASIZE SUB DUP2 ADD SWAP1 PUSH2 0x274 SWAP2 SWAP1 PUSH2 0x179C JUMP JUMPDEST PUSH2 0xAE4 JUMP JUMPDEST PUSH1 0x40 MLOAD PUSH2 0x286 SWAP2 SWAP1 PUSH2 0x1B9A JUMP JUMPDEST PUSH1 0x40 MLOAD DUP1 SWAP2 SUB SWAP1 RETURN JUMPDEST PUSH2 0x2A9 PUSH1 0x4 DUP1 CALLDATASIZE SUB DUP2 ADD SWAP1 PUSH2 0x2A4 SWAP2 SWAP1 PUSH2 0x179C JUMP JUMPDEST PUSH2 0xAF8 JUMP JUMPDEST PUSH1 0x40 MLOAD PUSH2 0x2B6 SWAP2 SWAP1 PUSH2 0x1B9A JUMP JUMPDEST PUSH1 0x40 MLOAD DUP1 SWAP2 SUB SWAP1 RETURN JUMPDEST PUSH2 0x2D9 PUSH1 0x4 DUP1 CALLDATASIZE SUB DUP2 ADD SWAP1 PUSH2 0x2D4 SWAP2 SWAP1 PUSH2 0x1854 JUMP JUMPDEST PUSH2 0xB0C JUMP JUMPDEST STOP JUMPDEST PUSH2 0x2F5 PUSH1 0x4 DUP1 CALLDATASIZE SUB DUP2 ADD SWAP1 PUSH2 0x2F0 SWAP2 SWAP1 PUSH2 0x179C JUMP JUMPDEST PUSH2 0xB77 JUMP JUMPDEST PUSH1 0x40 MLOAD PUSH2 0x302 SWAP2 SWAP1 PUSH2 0x1B9A JUMP JUMPDEST PUSH1 0x40 MLOAD DUP1 SWAP2 SUB SWAP1 RETURN JUMPDEST PUSH2 0x325 PUSH1 0x4 DUP1 CALLDATASIZE SUB DUP2 ADD SWAP1 PUSH2 0x320 SWAP2 SWAP1 PUSH2 0x1854 JUMP JUMPDEST PUSH2 0xB99 JUMP JUMPDEST STOP JUMPDEST PUSH2 0x341 PUSH1 0x4 DUP1 CALLDATASIZE SUB DUP2 ADD SWAP1 PUSH2 0x33C SWAP2 SWAP1 PUSH2 0x1854 JUMP JUMPDEST PUSH2 0xF8D JUMP JUMPDEST STOP JUMPDEST PUSH2 0x35D PUSH1 0x4 DUP1 CALLDATASIZE SUB DUP2 ADD SWAP1 PUSH2 0x358 SWAP2 SWAP1 PUSH2 0x17C9 JUMP JUMPDEST PUSH2 0xFF8 JUMP JUMPDEST STOP JUMPDEST PUSH2 0x379 PUSH1 0x4 DUP1 CALLDATASIZE SUB DUP2 ADD SWAP1 PUSH2 0x374 SWAP2 SWAP1 PUSH2 0x1854 JUMP JUMPDEST PUSH2 0x1128 JUMP JUMPDEST STOP JUMPDEST PUSH2 0x395 PUSH1 0x4 DUP1 CALLDATASIZE SUB DUP2 ADD SWAP1 PUSH2 0x390 SWAP2 SWAP1 PUSH2 0x179C JUMP JUMPDEST PUSH2 0x1193 JUMP JUMPDEST STOP JUMPDEST PUSH2 0x3B1 PUSH1 0x4 DUP1 CALLDATASIZE SUB DUP2 ADD SWAP1 PUSH2 0x3AC SWAP2 SWAP1 PUSH2 0x1854 JUMP JUMPDEST PUSH2 0x11D6 JUMP JUMPDEST PUSH1 0x40 MLOAD PUSH2 0x3BE SWAP2 SWAP1 PUSH2 0x1BB5 JUMP JUMPDEST PUSH1 0x40 MLOAD DUP1 SWAP2 SUB SWAP1 RETURN JUMPDEST DUP4 PUSH1 0x0 DUP1 PUSH1 0x0 DUP4 DUP2 MSTORE PUSH1 0x20 ADD SWAP1 DUP2 MSTORE PUSH1 0x20 ADD PUSH1 0x0 KECCAK256 DUP1 SLOAD SWAP1 POP EQ ISZERO PUSH2 0x421 JUMPI PUSH1 0x40 MLOAD PUSH32 0x8C379A000000000000000000000000000000000000000000000000000000000 DUP2 MSTORE PUSH1 0x4 ADD PUSH2 0x418 SWAP1 PUSH2 0x1BF0 JUMP JUMPDEST PUSH1 0x40 MLOAD DUP1 SWAP2 SUB SWAP1 REVERT JUMPDEST PUSH1 0x0 PUSH1 0x40 MLOAD DUP1 PUSH1 0x60 ADD PUSH1 0x40 MSTORE DUP1 DUP6 DUP2 MSTORE PUSH1 0x20 ADD DUP5 DUP2 MSTORE PUSH1 0x20 ADD PUSH1 0x1 PUSH1 0x6 DUP2 GT ISZERO PUSH2 0x44E JUMPI PUSH2 0x44D PUSH2 0x1FF8 JUMP JUMPDEST JUMPDEST DUP2 MSTORE POP SWAP1 POP PUSH1 0x0 DUP1 PUSH1 0x0 DUP9 DUP2 MSTORE PUSH1 0x20 ADD SWAP1 DUP2 MSTORE PUSH1 0x20 ADD PUSH1 0x0 KECCAK256 DUP7 DUP2 SLOAD DUP2 LT PUSH2 0x479 JUMPI PUSH2 0x478 PUSH2 0x2085 JUMP JUMPDEST JUMPDEST SWAP1 PUSH1 0x0 MSTORE PUSH1 0x20 PUSH1 0x0 KECCAK256 SWAP1 PUSH1 0x3 MUL ADD PUSH1 0x40 MLOAD DUP1 PUSH1 0x60 ADD PUSH1 0x40 MSTORE SWAP1 DUP2 PUSH1 0x0 DUP3 ADD DUP1 SLOAD PUSH2 0x4A2 SWAP1 PUSH2 0x1F1D JUMP JUMPDEST DUP1 PUSH1 0x1F ADD PUSH1 0x20 DUP1 SWAP2 DIV MUL PUSH1 0x20 ADD PUSH1 0x40 MLOAD SWAP1 DUP2 ADD PUSH1 0x40 MSTORE DUP1 SWAP3 SWAP2 SWAP1 DUP2 DUP2 MSTORE PUSH1 0x20 ADD DUP3 DUP1 SLOAD PUSH2 0x4CE SWAP1 PUSH2 0x1F1D JUMP JUMPDEST DUP1 ISZERO PUSH2 0x51B JUMPI DUP1 PUSH1 0x1F LT PUSH2 0x4F0 JUMPI PUSH2 0x100 DUP1 DUP4 SLOAD DIV MUL DUP4 MSTORE SWAP2 PUSH1 0x20 ADD SWAP2 PUSH2 0x51B JUMP JUMPDEST DUP3 ADD SWAP2 SWAP1 PUSH1 0x0 MSTORE PUSH1 0x20 PUSH1 0x0 KECCAK256 SWAP1 JUMPDEST DUP2 SLOAD DUP2 MSTORE SWAP1 PUSH1 0x1 ADD SWAP1 PUSH1 0x20 ADD DUP1 DUP4 GT PUSH2 0x4FE JUMPI DUP3 SWAP1 SUB PUSH1 0x1F AND DUP3 ADD SWAP2 JUMPDEST POP POP POP POP POP DUP2 MSTORE PUSH1 0x20 ADD PUSH1 0x1 DUP3 ADD DUP1 SLOAD PUSH2 0x534 SWAP1 PUSH2 0x1F1D JUMP JUMPDEST DUP1 PUSH1 0x1F ADD PUSH1 0x20 DUP1 SWAP2 DIV MUL PUSH1 0x20 ADD PUSH1 0x40 MLOAD SWAP1 DUP2 ADD PUSH1 0x40 MSTORE DUP1 SWAP3 SWAP2 SWAP1 DUP2 DUP2 MSTORE PUSH1 0x20 ADD DUP3 DUP1 SLOAD PUSH2 0x560 SWAP1 PUSH2 0x1F1D JUMP JUMPDEST DUP1 ISZERO PUSH2 0x5AD JUMPI DUP1 PUSH1 0x1F LT PUSH2 0x582 JUMPI PUSH2 0x100 DUP1 DUP4 SLOAD DIV MUL DUP4 MSTORE SWAP2 PUSH1 0x20 ADD SWAP2 PUSH2 0x5AD JUMP JUMPDEST DUP3 ADD SWAP2 SWAP1 PUSH1 0x0 MSTORE PUSH1 0x20 PUSH1 0x0 KECCAK256 SWAP1 JUMPDEST DUP2 SLOAD DUP2 MSTORE SWAP1 PUSH1 0x1 ADD SWAP1 PUSH1 0x20 ADD DUP1 DUP4 GT PUSH2 0x590 JUMPI DUP3 SWAP1 SUB PUSH1 0x1F AND DUP3 ADD SWAP2 JUMPDEST POP POP POP POP POP DUP2 MSTORE PUSH1 0x20 ADD PUSH1 0x2 DUP3 ADD PUSH1 0x0 SWAP1 SLOAD SWAP1 PUSH2 0x100 EXP SWAP1 DIV PUSH1 0xFF AND PUSH1 0x6 DUP2 GT ISZERO PUSH2 0x5DB JUMPI PUSH2 0x5DA PUSH2 0x1FF8 JUMP JUMPDEST JUMPDEST PUSH1 0x6 DUP2 GT ISZERO PUSH2 0x5ED JUMPI PUSH2 0x5EC PUSH2 0x1FF8 JUMP JUMPDEST JUMPDEST DUP2 MSTORE POP POP SWAP1 POP DUP2 PUSH1 0x0 DUP1 DUP10 DUP2 MSTORE PUSH1 0x20 ADD SWAP1 DUP2 MSTORE PUSH1 0x20 ADD PUSH1 0x0 KECCAK256 DUP8 DUP2 SLOAD DUP2 LT PUSH2 0x618 JUMPI PUSH2 0x617 PUSH2 0x2085 JUMP JUMPDEST JUMPDEST SWAP1 PUSH1 0x0 MSTORE PUSH1 0x20 PUSH1 0x0 KECCAK256 SWAP1 PUSH1 0x3 MUL ADD PUSH1 0x0 DUP3 ADD MLOAD DUP2 PUSH1 0x0 ADD SWAP1 DUP1 MLOAD SWAP1 PUSH1 0x20 ADD SWAP1 PUSH2 0x642 SWAP3 SWAP2 SWAP1 PUSH2 0x1592 JUMP JUMPDEST POP PUSH1 0x20 DUP3 ADD MLOAD DUP2 PUSH1 0x1 ADD SWAP1 DUP1 MLOAD SWAP1 PUSH1 0x20 ADD SWAP1 PUSH2 0x65F SWAP3 SWAP2 SWAP1 PUSH2 0x1592 JUMP JUMPDEST POP PUSH1 0x40 DUP3 ADD MLOAD DUP2 PUSH1 0x2 ADD PUSH1 0x0 PUSH2 0x100 EXP DUP2 SLOAD DUP2 PUSH1 0xFF MUL NOT AND SWAP1 DUP4 PUSH1 0x6 DUP2 GT ISZERO PUSH2 0x68B JUMPI PUSH2 0x68A PUSH2 0x1FF8 JUMP JUMPDEST JUMPDEST MUL OR SWAP1 SSTORE POP SWAP1 POP POP PUSH32 0x65B6A4FC6C03A38284E22D1D709975609C288DBBD2F5D284F2585FD4AD4B46B4 DUP8 DUP8 DUP5 DUP5 PUSH1 0x40 MLOAD PUSH2 0x6C8 SWAP5 SWAP4 SWAP3 SWAP2 SWAP1 PUSH2 0x1CAE JUMP JUMPDEST PUSH1 0x40 MLOAD DUP1 SWAP2 SUB SWAP1 LOG1 POP POP POP POP POP POP POP JUMP JUMPDEST PUSH1 0x0 PUSH2 0x6E6 DUP3 PUSH1 0x5 PUSH2 0x12D9 JUMP JUMPDEST SWAP1 POP SWAP2 SWAP1 POP JUMP JUMPDEST PUSH1 0x0 DUP2 PUSH1 0xFF AND PUSH1 0x0 DUP1 DUP7 DUP2 MSTORE PUSH1 0x20 ADD SWAP1 DUP2 MSTORE PUSH1 0x20 ADD PUSH1 0x0 KECCAK256 DUP5 DUP2 SLOAD DUP2 LT PUSH2 0x717 JUMPI PUSH2 0x716 PUSH2 0x2085 JUMP JUMPDEST JUMPDEST SWAP1 PUSH1 0x0 MSTORE PUSH1 0x20 PUSH1 0x0 KECCAK256 SWAP1 PUSH1 0x3 MUL ADD PUSH1 0x2 ADD PUSH1 0x0 SWAP1 SLOAD SWAP1 PUSH2 0x100 EXP SWAP1 DIV PUSH1 0xFF AND PUSH1 0x6 DUP2 GT ISZERO PUSH2 0x748 JUMPI PUSH2 0x747 PUSH2 0x1FF8 JUMP JUMPDEST JUMPDEST PUSH1 0xFF AND EQ SWAP1 POP SWAP4 SWAP3 POP POP POP JUMP JUMPDEST PUSH1 0x0 PUSH2 0x762 DUP3 PUSH1 0x2 PUSH2 0x12D9 JUMP JUMPDEST SWAP1 POP SWAP2 SWAP1 POP JUMP JUMPDEST DUP2 PUSH1 0x0 DUP1 PUSH1 0x0 DUP4 DUP2 MSTORE PUSH1 0x20 ADD SWAP1 DUP2 MSTORE PUSH1 0x20 ADD PUSH1 0x0 KECCAK256 DUP1 SLOAD SWAP1 POP EQ ISZERO PUSH2 0x7C3 JUMPI PUSH1 0x40 MLOAD PUSH32 0x8C379A000000000000000000000000000000000000000000000000000000000 DUP2 MSTORE PUSH1 0x4 ADD PUSH2 0x7BA SWAP1 PUSH2 0x1BF0 JUMP JUMPDEST PUSH1 0x40 MLOAD DUP1 SWAP2 SUB SWAP1 REVERT JUMPDEST PUSH2 0x7CF DUP4 DUP4 PUSH1 0x5 PUSH2 0x1394 JUMP JUMPDEST POP POP POP JUMP JUMPDEST DUP2 PUSH1 0x0 DUP1 PUSH1 0x0 DUP4 DUP2 MSTORE PUSH1 0x20 ADD SWAP1 DUP2 MSTORE PUSH1 0x20 ADD PUSH1 0x0 KECCAK256 DUP1 SLOAD SWAP1 POP EQ ISZERO PUSH2 0x82E JUMPI PUSH1 0x40 MLOAD PUSH32 0x8C379A000000000000000000000000000000000000000000000000000000000 DUP2 MSTORE PUSH1 0x4 ADD PUSH2 0x825 SWAP1 PUSH2 0x1BF0 JUMP JUMPDEST PUSH1 0x40 MLOAD DUP1 SWAP2 SUB SWAP1 REVERT JUMPDEST PUSH2 0x83A DUP4 DUP4 PUSH1 0x4 PUSH2 0x1394 JUMP JUMPDEST POP POP POP JUMP JUMPDEST PUSH1 0x0 DUP2 PUSH1 0x0 DUP1 PUSH1 0x0 DUP4 DUP2 MSTORE PUSH1 0x20 ADD SWAP1 DUP2 MSTORE PUSH1 0x20 ADD PUSH1 0x0 KECCAK256 DUP1 SLOAD SWAP1 POP EQ ISZERO PUSH2 0x89B JUMPI PUSH1 0x40 MLOAD PUSH32 0x8C379A000000000000000000000000000000000000000000000000000000000 DUP2 MSTORE PUSH1 0x4 ADD PUSH2 0x892 SWAP1 PUSH2 0x1BF0 JUMP JUMPDEST PUSH1 0x40 MLOAD DUP1 SWAP2 SUB SWAP1 REVERT JUMPDEST PUSH1 0x0 DUP1 DUP5 DUP2 MSTORE PUSH1 0x20 ADD SWAP1 DUP2 MSTORE PUSH1 0x20 ADD PUSH1 0x0 KECCAK256 DUP1 SLOAD SWAP1 POP SWAP2 POP POP SWAP2 SWAP1 POP JUMP JUMPDEST PUSH1 0x60 DUP2 PUSH1 0x0 DUP1 PUSH1 0x0 DUP4 DUP2 MSTORE PUSH1 0x20 ADD SWAP1 DUP2 MSTORE PUSH1 0x20 ADD PUSH1 0x0 KECCAK256 DUP1 SLOAD SWAP1 POP EQ ISZERO PUSH2 0x915 JUMPI PUSH1 0x40 MLOAD PUSH32 0x8C379A000000000000000000000000000000000000000000000000000000000 DUP2 MSTORE PUSH1 0x4 ADD PUSH2 0x90C SWAP1 PUSH2 0x1BF0 JUMP JUMPDEST PUSH1 0x40 MLOAD DUP1 SWAP2 SUB SWAP1 REVERT JUMPDEST PUSH1 0x0 DUP1 DUP5 DUP2 MSTORE PUSH1 0x20 ADD SWAP1 DUP2 MSTORE PUSH1 0x20 ADD PUSH1 0x0 KECCAK256 DUP1 SLOAD DUP1 PUSH1 0x20 MUL PUSH1 0x20 ADD PUSH1 0x40 MLOAD SWAP1 DUP2 ADD PUSH1 0x40 MSTORE DUP1 SWAP3 SWAP2 SWAP1 DUP2 DUP2 MSTORE PUSH1 0x20 ADD PUSH1 0x0 SWAP1 JUMPDEST DUP3 DUP3 LT ISZERO PUSH2 0xAD8 JUMPI DUP4 DUP3 SWAP1 PUSH1 0x0 MSTORE PUSH1 0x20 PUSH1 0x0 KECCAK256 SWAP1 PUSH1 0x3 MUL ADD PUSH1 0x40 MLOAD DUP1 PUSH1 0x60 ADD PUSH1 0x40 MSTORE SWAP1 DUP2 PUSH1 0x0 DUP3 ADD DUP1 SLOAD PUSH2 0x97A SWAP1 PUSH2 0x1F1D JUMP JUMPDEST DUP1 PUSH1 0x1F ADD PUSH1 0x20 DUP1 SWAP2 DIV MUL PUSH1 0x20 ADD PUSH1 0x40 MLOAD SWAP1 DUP2 ADD PUSH1 0x40 MSTORE DUP1 SWAP3 SWAP2 SWAP1 DUP2 DUP2 MSTORE PUSH1 0x20 ADD DUP3 DUP1 SLOAD PUSH2 0x9A6 SWAP1 PUSH2 0x1F1D JUMP JUMPDEST DUP1 ISZERO PUSH2 0x9F3 JUMPI DUP1 PUSH1 0x1F LT PUSH2 0x9C8 JUMPI PUSH2 0x100 DUP1 DUP4 SLOAD DIV MUL DUP4 MSTORE SWAP2 PUSH1 0x20 ADD SWAP2 PUSH2 0x9F3 JUMP JUMPDEST DUP3 ADD SWAP2 SWAP1 PUSH1 0x0 MSTORE PUSH1 0x20 PUSH1 0x0 KECCAK256 SWAP1 JUMPDEST DUP2 SLOAD DUP2 MSTORE SWAP1 PUSH1 0x1 ADD SWAP1 PUSH1 0x20 ADD DUP1 DUP4 GT PUSH2 0x9D6 JUMPI DUP3 SWAP1 SUB PUSH1 0x1F AND DUP3 ADD SWAP2 JUMPDEST POP POP POP POP POP DUP2 MSTORE PUSH1 0x20 ADD PUSH1 0x1 DUP3 ADD DUP1 SLOAD PUSH2 0xA0C SWAP1 PUSH2 0x1F1D JUMP JUMPDEST DUP1 PUSH1 0x1F ADD PUSH1 0x20 DUP1 SWAP2 DIV MUL PUSH1 0x20 ADD PUSH1 0x40 MLOAD SWAP1 DUP2 ADD PUSH1 0x40 MSTORE DUP1 SWAP3 SWAP2 SWAP1 DUP2 DUP2 MSTORE PUSH1 0x20 ADD DUP3 DUP1 SLOAD PUSH2 0xA38 SWAP1 PUSH2 0x1F1D JUMP JUMPDEST DUP1 ISZERO PUSH2 0xA85 JUMPI DUP1 PUSH1 0x1F LT PUSH2 0xA5A JUMPI PUSH2 0x100 DUP1 DUP4 SLOAD DIV MUL DUP4 MSTORE SWAP2 PUSH1 0x20 ADD SWAP2 PUSH2 0xA85 JUMP JUMPDEST DUP3 ADD SWAP2 SWAP1 PUSH1 0x0 MSTORE PUSH1 0x20 PUSH1 0x0 KECCAK256 SWAP1 JUMPDEST DUP2 SLOAD DUP2 MSTORE SWAP1 PUSH1 0x1 ADD SWAP1 PUSH1 0x20 ADD DUP1 DUP4 GT PUSH2 0xA68 JUMPI DUP3 SWAP1 SUB PUSH1 0x1F AND DUP3 ADD SWAP2 JUMPDEST POP POP POP POP POP DUP2 MSTORE PUSH1 0x20 ADD PUSH1 0x2 DUP3 ADD PUSH1 0x0 SWAP1 SLOAD SWAP1 PUSH2 0x100 EXP SWAP1 DIV PUSH1 0xFF AND PUSH1 0x6 DUP2 GT ISZERO PUSH2 0xAB3 JUMPI PUSH2 0xAB2 PUSH2 0x1FF8 JUMP JUMPDEST JUMPDEST PUSH1 0x6 DUP2 GT ISZERO PUSH2 0xAC5 JUMPI PUSH2 0xAC4 PUSH2 0x1FF8 JUMP JUMPDEST JUMPDEST DUP2 MSTORE POP POP DUP2 MSTORE PUSH1 0x20 ADD SWAP1 PUSH1 0x1 ADD SWAP1 PUSH2 0x947 JUMP JUMPDEST POP POP POP POP SWAP2 POP POP SWAP2 SWAP1 POP JUMP JUMPDEST PUSH1 0x0 PUSH2 0xAF1 DUP3 PUSH1 0x6 PUSH2 0x14D6 JUMP JUMPDEST SWAP1 POP SWAP2 SWAP1 POP JUMP JUMPDEST PUSH1 0x0 PUSH2 0xB05 DUP3 PUSH1 0x4 PUSH2 0x12D9 JUMP JUMPDEST SWAP1 POP SWAP2 SWAP1 POP JUMP JUMPDEST DUP2 PUSH1 0x0 DUP1 PUSH1 0x0 DUP4 DUP2 MSTORE PUSH1 0x20 ADD SWAP1 DUP2 MSTORE PUSH1 0x20 ADD PUSH1 0x0 KECCAK256 DUP1 SLOAD SWAP1 POP EQ ISZERO PUSH2 0xB66 JUMPI PUSH1 0x40 MLOAD PUSH32 0x8C379A000000000000000000000000000000000000000000000000000000000 DUP2 MSTORE PUSH1 0x4 ADD PUSH2 0xB5D SWAP1 PUSH2 0x1BF0 JUMP JUMPDEST PUSH1 0x40 MLOAD DUP1 SWAP2 SUB SWAP1 REVERT JUMPDEST PUSH2 0xB72 DUP4 DUP4 PUSH1 0x2 PUSH2 0x1394 JUMP JUMPDEST POP POP POP JUMP JUMPDEST PUSH1 0x0 DUP1 PUSH1 0x0 DUP1 DUP5 DUP2 MSTORE PUSH1 0x20 ADD SWAP1 DUP2 MSTORE PUSH1 0x20 ADD PUSH1 0x0 KECCAK256 DUP1 SLOAD SWAP1 POP EQ ISZERO SWAP1 POP SWAP2 SWAP1 POP JUMP JUMPDEST DUP2 PUSH1 0x0 DUP1 PUSH1 0x0 DUP4 DUP2 MSTORE PUSH1 0x20 ADD SWAP1 DUP2 MSTORE PUSH1 0x20 ADD PUSH1 0x0 KECCAK256 DUP1 SLOAD SWAP1 POP EQ ISZERO PUSH2 0xBF3 JUMPI PUSH1 0x40 MLOAD PUSH32 0x8C379A000000000000000000000000000000000000000000000000000000000 DUP2 MSTORE PUSH1 0x4 ADD PUSH2 0xBEA SWAP1 PUSH2 0x1BF0 JUMP JUMPDEST PUSH1 0x40 MLOAD DUP1 SWAP2 SUB SWAP1 REVERT JUMPDEST PUSH1 0x0 DUP1 PUSH1 0x0 DUP6 DUP2 MSTORE PUSH1 0x20 ADD SWAP1 DUP2 MSTORE PUSH1 0x20 ADD PUSH1 0x0 KECCAK256 DUP4 DUP2 SLOAD DUP2 LT PUSH2 0xC19 JUMPI PUSH2 0xC18 PUSH2 0x2085 JUMP JUMPDEST JUMPDEST SWAP1 PUSH1 0x0 MSTORE PUSH1 0x20 PUSH1 0x0 KECCAK256 SWAP1 PUSH1 0x3 MUL ADD PUSH1 0x40 MLOAD DUP1 PUSH1 0x60 ADD PUSH1 0x40 MSTORE SWAP1 DUP2 PUSH1 0x0 DUP3 ADD DUP1 SLOAD PUSH2 0xC42 SWAP1 PUSH2 0x1F1D JUMP JUMPDEST DUP1 PUSH1 0x1F ADD PUSH1 0x20 DUP1 SWAP2 DIV MUL PUSH1 0x20 ADD PUSH1 0x40 MLOAD SWAP1 DUP2 ADD PUSH1 0x40 MSTORE DUP1 SWAP3 SWAP2 SWAP1 DUP2 DUP2 MSTORE PUSH1 0x20 ADD DUP3 DUP1 SLOAD PUSH2 0xC6E SWAP1 PUSH2 0x1F1D JUMP JUMPDEST DUP1 ISZERO PUSH2 0xCBB JUMPI DUP1 PUSH1 0x1F LT PUSH2 0xC90 JUMPI PUSH2 0x100 DUP1 DUP4 SLOAD DIV MUL DUP4 MSTORE SWAP2 PUSH1 0x20 ADD SWAP2 PUSH2 0xCBB JUMP JUMPDEST DUP3 ADD SWAP2 SWAP1 PUSH1 0x0 MSTORE PUSH1 0x20 PUSH1 0x0 KECCAK256 SWAP1 JUMPDEST DUP2 SLOAD DUP2 MSTORE SWAP1 PUSH1 0x1 ADD SWAP1 PUSH1 0x20 ADD DUP1 DUP4 GT PUSH2 0xC9E JUMPI DUP3 SWAP1 SUB PUSH1 0x1F AND DUP3 ADD SWAP2 JUMPDEST POP POP POP POP POP DUP2 MSTORE PUSH1 0x20 ADD PUSH1 0x1 DUP3 ADD DUP1 SLOAD PUSH2 0xCD4 SWAP1 PUSH2 0x1F1D JUMP JUMPDEST DUP1 PUSH1 0x1F ADD PUSH1 0x20 DUP1 SWAP2 DIV MUL PUSH1 0x20 ADD PUSH1 0x40 MLOAD SWAP1 DUP2 ADD PUSH1 0x40 MSTORE DUP1 SWAP3 SWAP2 SWAP1 DUP2 DUP2 MSTORE PUSH1 0x20 ADD DUP3 DUP1 SLOAD PUSH2 0xD00 SWAP1 PUSH2 0x1F1D JUMP JUMPDEST DUP1 ISZERO PUSH2 0xD4D JUMPI DUP1 PUSH1 0x1F LT PUSH2 0xD22 JUMPI PUSH2 0x100 DUP1 DUP4 SLOAD DIV MUL DUP4 MSTORE SWAP2 PUSH1 0x20 ADD SWAP2 PUSH2 0xD4D JUMP JUMPDEST DUP3 ADD SWAP2 SWAP1 PUSH1 0x0 MSTORE PUSH1 0x20 PUSH1 0x0 KECCAK256 SWAP1 JUMPDEST DUP2 SLOAD DUP2 MSTORE SWAP1 PUSH1 0x1 ADD SWAP1 PUSH1 0x20 ADD DUP1 DUP4 GT PUSH2 0xD30 JUMPI DUP3 SWAP1 SUB PUSH1 0x1F AND DUP3 ADD SWAP2 JUMPDEST POP POP POP POP POP DUP2 MSTORE PUSH1 0x20 ADD PUSH1 0x2 DUP3 ADD PUSH1 0x0 SWAP1 SLOAD SWAP1 PUSH2 0x100 EXP SWAP1 DIV PUSH1 0xFF AND PUSH1 0x6 DUP2 GT ISZERO PUSH2 0xD7B JUMPI PUSH2 0xD7A PUSH2 0x1FF8 JUMP JUMPDEST JUMPDEST PUSH1 0x6 DUP2 GT ISZERO PUSH2 0xD8D JUMPI PUSH2 0xD8C PUSH2 0x1FF8 JUMP JUMPDEST JUMPDEST DUP2 MSTORE POP POP SWAP1 POP PUSH1 0x0 DUP4 SWAP1 POP JUMPDEST PUSH1 0x1 PUSH1 0x0 DUP1 DUP8 DUP2 MSTORE PUSH1 0x20 ADD SWAP1 DUP2 MSTORE PUSH1 0x20 ADD PUSH1 0x0 KECCAK256 DUP1 SLOAD SWAP1 POP PUSH2 0xDBB SWAP2 SWAP1 PUSH2 0x1E5F JUMP JUMPDEST DUP2 LT ISZERO PUSH2 0xEC5 JUMPI PUSH1 0x0 DUP1 DUP7 DUP2 MSTORE PUSH1 0x20 ADD SWAP1 DUP2 MSTORE PUSH1 0x20 ADD PUSH1 0x0 KECCAK256 PUSH1 0x1 DUP3 PUSH2 0xDE1 SWAP2 SWAP1 PUSH2 0x1E09 JUMP JUMPDEST DUP2 SLOAD DUP2 LT PUSH2 0xDF2 JUMPI PUSH2 0xDF1 PUSH2 0x2085 JUMP JUMPDEST JUMPDEST SWAP1 PUSH1 0x0 MSTORE PUSH1 0x20 PUSH1 0x0 KECCAK256 SWAP1 PUSH1 0x3 MUL ADD PUSH1 0x0 DUP1 DUP8 DUP2 MSTORE PUSH1 0x20 ADD SWAP1 DUP2 MSTORE PUSH1 0x20 ADD PUSH1 0x0 KECCAK256 DUP3 DUP2 SLOAD DUP2 LT PUSH2 0xE24 JUMPI PUSH2 0xE23 PUSH2 0x2085 JUMP JUMPDEST JUMPDEST SWAP1 PUSH1 0x0 MSTORE PUSH1 0x20 PUSH1 0x0 KECCAK256 SWAP1 PUSH1 0x3 MUL ADD PUSH1 0x0 DUP3 ADD DUP2 PUSH1 0x0 ADD SWAP1 DUP1 SLOAD PUSH2 0xE46 SWAP1 PUSH2 0x1F1D JUMP JUMPDEST PUSH2 0xE51 SWAP3 SWAP2 SWAP1 PUSH2 0x1618 JUMP JUMPDEST POP PUSH1 0x1 DUP3 ADD DUP2 PUSH1 0x1 ADD SWAP1 DUP1 SLOAD PUSH2 0xE66 SWAP1 PUSH2 0x1F1D JUMP JUMPDEST PUSH2 0xE71 SWAP3 SWAP2 SWAP1 PUSH2 0x1618 JUMP JUMPDEST POP PUSH1 0x2 DUP3 ADD PUSH1 0x0 SWAP1 SLOAD SWAP1 PUSH2 0x100 EXP SWAP1 DIV PUSH1 0xFF AND DUP2 PUSH1 0x2 ADD PUSH1 0x0 PUSH2 0x100 EXP DUP2 SLOAD DUP2 PUSH1 0xFF MUL NOT AND SWAP1 DUP4 PUSH1 0x6 DUP2 GT ISZERO PUSH2 0xEAA JUMPI PUSH2 0xEA9 PUSH2 0x1FF8 JUMP JUMPDEST JUMPDEST MUL OR SWAP1 SSTORE POP SWAP1 POP POP DUP1 DUP1 PUSH2 0xEBD SWAP1 PUSH2 0x1F80 JUMP JUMPDEST SWAP2 POP POP PUSH2 0xD99 JUMP JUMPDEST POP PUSH1 0x0 DUP1 DUP6 DUP2 MSTORE PUSH1 0x20 ADD SWAP1 DUP2 MSTORE PUSH1 0x20 ADD PUSH1 0x0 KECCAK256 DUP1 SLOAD DUP1 PUSH2 0xEE8 JUMPI PUSH2 0xEE7 PUSH2 0x2056 JUMP JUMPDEST JUMPDEST PUSH1 0x1 SWAP1 SUB DUP2 DUP2 SWAP1 PUSH1 0x0 MSTORE PUSH1 0x20 PUSH1 0x0 KECCAK256 SWAP1 PUSH1 0x3 MUL ADD PUSH1 0x0 DUP1 DUP3 ADD PUSH1 0x0 PUSH2 0xF0D SWAP2 SWAP1 PUSH2 0x16A5 JUMP JUMPDEST PUSH1 0x1 DUP3 ADD PUSH1 0x0 PUSH2 0xF1D SWAP2 SWAP1 PUSH2 0x16A5 JUMP JUMPDEST PUSH1 0x2 DUP3 ADD PUSH1 0x0 PUSH2 0x100 EXP DUP2 SLOAD SWAP1 PUSH1 0xFF MUL NOT AND SWAP1 SSTORE POP POP SWAP1 SSTORE PUSH32 0x6D4454E6395559C04E81910079E267DC2B89DC5C7C0C09BAF1068FFFF6542CE1 DUP5 DUP5 DUP4 PUSH1 0x0 DUP1 DUP10 DUP2 MSTORE PUSH1 0x20 ADD SWAP1 DUP2 MSTORE PUSH1 0x20 ADD PUSH1 0x0 KECCAK256 DUP1 SLOAD SWAP1 POP PUSH1 0x40 MLOAD PUSH2 0xF7F SWAP5 SWAP4 SWAP3 SWAP2 SWAP1 PUSH2 0x1D01 JUMP JUMPDEST PUSH1 0x40 MLOAD DUP1 SWAP2 SUB SWAP1 LOG1 POP POP POP POP JUMP JUMPDEST DUP2 PUSH1 0x0 DUP1 PUSH1 0x0 DUP4 DUP2 MSTORE PUSH1 0x20 ADD SWAP1 DUP2 MSTORE PUSH1 0x20 ADD PUSH1 0x0 KECCAK256 DUP1 SLOAD SWAP1 POP EQ ISZERO PUSH2 0xFE7 JUMPI PUSH1 0x40 MLOAD PUSH32 0x8C379A000000000000000000000000000000000000000000000000000000000 DUP2 MSTORE PUSH1 0x4 ADD PUSH2 0xFDE SWAP1 PUSH2 0x1BF0 JUMP JUMPDEST PUSH1 0x40 MLOAD DUP1 SWAP2 SUB SWAP1 REVERT JUMPDEST PUSH2 0xFF3 DUP4 DUP4 PUSH1 0x3 PUSH2 0x1394 JUMP JUMPDEST POP POP POP JUMP JUMPDEST PUSH1 0x0 PUSH1 0x40 MLOAD DUP1 PUSH1 0x60 ADD PUSH1 0x40 MSTORE DUP1 DUP5 DUP2 MSTORE PUSH1 0x20 ADD DUP4 DUP2 MSTORE PUSH1 0x20 ADD PUSH1 0x1 PUSH1 0x6 DUP2 GT ISZERO PUSH2 0x1025 JUMPI PUSH2 0x1024 PUSH2 0x1FF8 JUMP JUMPDEST JUMPDEST DUP2 MSTORE POP SWAP1 POP PUSH1 0x0 DUP1 DUP6 DUP2 MSTORE PUSH1 0x20 ADD SWAP1 DUP2 MSTORE PUSH1 0x20 ADD PUSH1 0x0 KECCAK256 DUP2 SWAP1 DUP1 PUSH1 0x1 DUP2 SLOAD ADD DUP1 DUP3 SSTORE DUP1 SWAP2 POP POP PUSH1 0x1 SWAP1 SUB SWAP1 PUSH1 0x0 MSTORE PUSH1 0x20 PUSH1 0x0 KECCAK256 SWAP1 PUSH1 0x3 MUL ADD PUSH1 0x0 SWAP1 SWAP2 SWAP1 SWAP2 SWAP1 SWAP2 POP PUSH1 0x0 DUP3 ADD MLOAD DUP2 PUSH1 0x0 ADD SWAP1 DUP1 MLOAD SWAP1 PUSH1 0x20 ADD SWAP1 PUSH2 0x1082 SWAP3 SWAP2 SWAP1 PUSH2 0x1592 JUMP JUMPDEST POP PUSH1 0x20 DUP3 ADD MLOAD DUP2 PUSH1 0x1 ADD SWAP1 DUP1 MLOAD SWAP1 PUSH1 0x20 ADD SWAP1 PUSH2 0x109F SWAP3 SWAP2 SWAP1 PUSH2 0x1592 JUMP JUMPDEST POP PUSH1 0x40 DUP3 ADD MLOAD DUP2 PUSH1 0x2 ADD PUSH1 0x0 PUSH2 0x100 EXP DUP2 SLOAD DUP2 PUSH1 0xFF MUL NOT AND SWAP1 DUP4 PUSH1 0x6 DUP2 GT ISZERO PUSH2 0x10CB JUMPI PUSH2 0x10CA PUSH2 0x1FF8 JUMP JUMPDEST JUMPDEST MUL OR SWAP1 SSTORE POP POP POP PUSH32 0xE5E5840C0784EB00D266BDFB12BC390D99AFA672E3DA23F76EB1A932947BED6 DUP5 DUP3 PUSH1 0x0 DUP1 DUP9 DUP2 MSTORE PUSH1 0x20 ADD SWAP1 DUP2 MSTORE PUSH1 0x20 ADD PUSH1 0x0 KECCAK256 DUP1 SLOAD SWAP1 POP PUSH1 0x40 MLOAD PUSH2 0x111A SWAP4 SWAP3 SWAP2 SWAP1 PUSH2 0x1C2B JUMP JUMPDEST PUSH1 0x40 MLOAD DUP1 SWAP2 SUB SWAP1 LOG1 POP POP POP POP JUMP JUMPDEST DUP2 PUSH1 0x0 DUP1 PUSH1 0x0 DUP4 DUP2 MSTORE PUSH1 0x20 ADD SWAP1 DUP2 MSTORE PUSH1 0x20 ADD PUSH1 0x0 KECCAK256 DUP1 SLOAD SWAP1 POP EQ ISZERO PUSH2 0x1182 JUMPI PUSH1 0x40 MLOAD PUSH32 0x8C379A000000000000000000000000000000000000000000000000000000000 DUP2 MSTORE PUSH1 0x4 ADD PUSH2 0x1179 SWAP1 PUSH2 0x1BF0 JUMP JUMPDEST PUSH1 0x40 MLOAD DUP1 SWAP2 SUB SWAP1 REVERT JUMPDEST PUSH2 0x118E DUP4 DUP4 PUSH1 0x6 PUSH2 0x1394 JUMP JUMPDEST POP POP POP JUMP JUMPDEST PUSH1 0x0 JUMPDEST PUSH1 0x0 DUP1 DUP4 DUP2 MSTORE PUSH1 0x20 ADD SWAP1 DUP2 MSTORE PUSH1 0x20 ADD PUSH1 0x0 KECCAK256 DUP1 SLOAD SWAP1 POP DUP2 LT ISZERO PUSH2 0x11D2 JUMPI PUSH2 0x11BF DUP3 DUP3 PUSH1 0x1 PUSH2 0x1394 JUMP JUMPDEST DUP1 DUP1 PUSH2 0x11CA SWAP1 PUSH2 0x1F80 JUMP JUMPDEST SWAP2 POP POP PUSH2 0x1196 JUMP JUMPDEST POP POP JUMP JUMPDEST PUSH1 0x0 DUP3 PUSH1 0x0 DUP1 PUSH1 0x0 DUP4 DUP2 MSTORE PUSH1 0x20 ADD SWAP1 DUP2 MSTORE PUSH1 0x20 ADD PUSH1 0x0 KECCAK256 DUP1 SLOAD SWAP1 POP EQ ISZERO PUSH2 0x1232 JUMPI PUSH1 0x40 MLOAD PUSH32 0x8C379A000000000000000000000000000000000000000000000000000000000 DUP2 MSTORE PUSH1 0x4 ADD PUSH2 0x1229 SWAP1 PUSH2 0x1BF0 JUMP JUMPDEST PUSH1 0x40 MLOAD DUP1 SWAP2 SUB SWAP1 REVERT JUMPDEST DUP4 DUP4 PUSH1 0x0 DUP1 DUP4 DUP2 MSTORE PUSH1 0x20 ADD SWAP1 DUP2 MSTORE PUSH1 0x20 ADD PUSH1 0x0 KECCAK256 DUP1 SLOAD SWAP1 POP DUP2 LT PUSH2 0x128B JUMPI PUSH1 0x40 MLOAD PUSH32 0x8C379A000000000000000000000000000000000000000000000000000000000 DUP2 MSTORE PUSH1 0x4 ADD PUSH2 0x1282 SWAP1 PUSH2 0x1BD0 JUMP JUMPDEST PUSH1 0x40 MLOAD DUP1 SWAP2 SUB SWAP1 REVERT JUMPDEST PUSH1 0x0 DUP1 DUP8 DUP2 MSTORE PUSH1 0x20 ADD SWAP1 DUP2 MSTORE PUSH1 0x20 ADD PUSH1 0x0 KECCAK256 DUP6 DUP2 SLOAD DUP2 LT PUSH2 0x12AF JUMPI PUSH2 0x12AE PUSH2 0x2085 JUMP JUMPDEST JUMPDEST SWAP1 PUSH1 0x0 MSTORE PUSH1 0x20 PUSH1 0x0 KECCAK256 SWAP1 PUSH1 0x3 MUL ADD PUSH1 0x2 ADD PUSH1 0x0 SWAP1 SLOAD SWAP1 PUSH2 0x100 EXP SWAP1 DIV PUSH1 0xFF AND SWAP4 POP POP POP POP SWAP3 SWAP2 POP POP JUMP JUMPDEST PUSH1 0x0 DUP1 PUSH1 0x0 SWAP1 POP JUMPDEST PUSH1 0x0 DUP1 DUP6 DUP2 MSTORE PUSH1 0x20 ADD SWAP1 DUP2 MSTORE PUSH1 0x20 ADD PUSH1 0x0 KECCAK256 DUP1 SLOAD SWAP1 POP DUP2 LT ISZERO PUSH2 0x1388 JUMPI DUP3 PUSH1 0x6 DUP2 GT ISZERO PUSH2 0x1311 JUMPI PUSH2 0x1310 PUSH2 0x1FF8 JUMP JUMPDEST JUMPDEST PUSH1 0x0 DUP1 DUP7 DUP2 MSTORE PUSH1 0x20 ADD SWAP1 DUP2 MSTORE PUSH1 0x20 ADD PUSH1 0x0 KECCAK256 DUP3 DUP2 SLOAD DUP2 LT PUSH2 0x1335 JUMPI PUSH2 0x1334 PUSH2 0x2085 JUMP JUMPDEST JUMPDEST SWAP1 PUSH1 0x0 MSTORE PUSH1 0x20 PUSH1 0x0 KECCAK256 SWAP1 PUSH1 0x3 MUL ADD PUSH1 0x2 ADD PUSH1 0x0 SWAP1 SLOAD SWAP1 PUSH2 0x100 EXP SWAP1 DIV PUSH1 0xFF AND PUSH1 0x6 DUP2 GT ISZERO PUSH2 0x1366 JUMPI PUSH2 0x1365 PUSH2 0x1FF8 JUMP JUMPDEST JUMPDEST EQ PUSH2 0x1375 JUMPI PUSH1 0x0 SWAP2 POP POP PUSH2 0x138E JUMP JUMPDEST DUP1 DUP1 PUSH2 0x1380 SWAP1 PUSH2 0x1F80 JUMP JUMPDEST SWAP2 POP POP PUSH2 0x12E1 JUMP JUMPDEST POP PUSH1 0x1 SWAP1 POP JUMPDEST SWAP3 SWAP2 POP POP JUMP JUMPDEST DUP3 PUSH1 0x0 DUP1 PUSH1 0x0 DUP4 DUP2 MSTORE PUSH1 0x20 ADD SWAP1 DUP2 MSTORE PUSH1 0x20 ADD PUSH1 0x0 KECCAK256 DUP1 SLOAD SWAP1 POP EQ ISZERO PUSH2 0x13EE JUMPI PUSH1 0x40 MLOAD PUSH32 0x8C379A000000000000000000000000000000000000000000000000000000000 DUP2 MSTORE PUSH1 0x4 ADD PUSH2 0x13E5 SWAP1 PUSH2 0x1BF0 JUMP JUMPDEST PUSH1 0x40 MLOAD DUP1 SWAP2 SUB SWAP1 REVERT JUMPDEST PUSH1 0x0 DUP1 PUSH1 0x0 DUP7 DUP2 MSTORE PUSH1 0x20 ADD SWAP1 DUP2 MSTORE PUSH1 0x20 ADD PUSH1 0x0 KECCAK256 DUP5 DUP2 SLOAD DUP2 LT PUSH2 0x1414 JUMPI PUSH2 0x1413 PUSH2 0x2085 JUMP JUMPDEST JUMPDEST SWAP1 PUSH1 0x0 MSTORE PUSH1 0x20 PUSH1 0x0 KECCAK256 SWAP1 PUSH1 0x3 MUL ADD PUSH1 0x2 ADD PUSH1 0x0 SWAP1 SLOAD SWAP1 PUSH2 0x100 EXP SWAP1 DIV PUSH1 0xFF AND SWAP1 POP DUP3 PUSH1 0x0 DUP1 DUP8 DUP2 MSTORE PUSH1 0x20 ADD SWAP1 DUP2 MSTORE PUSH1 0x20 ADD PUSH1 0x0 KECCAK256 DUP6 DUP2 SLOAD DUP2 LT PUSH2 0x145A JUMPI PUSH2 0x1459 PUSH2 0x2085 JUMP JUMPDEST JUMPDEST SWAP1 PUSH1 0x0 MSTORE PUSH1 0x20 PUSH1 0x0 KECCAK256 SWAP1 PUSH1 0x3 MUL ADD PUSH1 0x2 ADD PUSH1 0x0 PUSH2 0x100 EXP DUP2 SLOAD DUP2 PUSH1 0xFF MUL NOT AND SWAP1 DUP4 PUSH1 0x6 DUP2 GT ISZERO PUSH2 0x148D JUMPI PUSH2 0x148C PUSH2 0x1FF8 JUMP JUMPDEST JUMPDEST MUL OR SWAP1 SSTORE POP PUSH32 0xA4E86334F55642D44167E3603AA4F62296DEDBC45291B004F14978BB96DAEA7B DUP6 DUP6 DUP4 DUP7 PUSH1 0x40 MLOAD PUSH2 0x14C7 SWAP5 SWAP4 SWAP3 SWAP2 SWAP1 PUSH2 0x1C69 JUMP JUMPDEST PUSH1 0x40 MLOAD DUP1 SWAP2 SUB SWAP1 LOG1 POP POP POP POP POP JUMP JUMPDEST PUSH1 0x0 DUP1 PUSH1 0x0 SWAP1 POP JUMPDEST PUSH1 0x0 DUP1 DUP6 DUP2 MSTORE PUSH1 0x20 ADD SWAP1 DUP2 MSTORE PUSH1 0x20 ADD PUSH1 0x0 KECCAK256 DUP1 SLOAD SWAP1 POP DUP2 LT ISZERO PUSH2 0x1586 JUMPI DUP3 PUSH1 0x6 DUP2 GT ISZERO PUSH2 0x150E JUMPI PUSH2 0x150D PUSH2 0x1FF8 JUMP JUMPDEST JUMPDEST PUSH1 0x0 DUP1 DUP7 DUP2 MSTORE PUSH1 0x20 ADD SWAP1 DUP2 MSTORE PUSH1 0x20 ADD PUSH1 0x0 KECCAK256 DUP3 DUP2 SLOAD DUP2 LT PUSH2 0x1532 JUMPI PUSH2 0x1531 PUSH2 0x2085 JUMP JUMPDEST JUMPDEST SWAP1 PUSH1 0x0 MSTORE PUSH1 0x20 PUSH1 0x0 KECCAK256 SWAP1 PUSH1 0x3 MUL ADD PUSH1 0x2 ADD PUSH1 0x0 SWAP1 SLOAD SWAP1 PUSH2 0x100 EXP SWAP1 DIV PUSH1 0xFF AND PUSH1 0x6 DUP2 GT ISZERO PUSH2 0x1563 JUMPI PUSH2 0x1562 PUSH2 0x1FF8 JUMP JUMPDEST JUMPDEST EQ ISZERO PUSH2 0x1573 JUMPI PUSH1 0x0 SWAP2 POP POP PUSH2 0x158C JUMP JUMPDEST DUP1 DUP1 PUSH2 0x157E SWAP1 PUSH2 0x1F80 JUMP JUMPDEST SWAP2 POP POP PUSH2 0x14DE JUMP JUMPDEST POP PUSH1 0x1 SWAP1 POP JUMPDEST SWAP3 SWAP2 POP POP JUMP JUMPDEST DUP3 DUP1 SLOAD PUSH2 0x159E SWAP1 PUSH2 0x1F1D JUMP JUMPDEST SWAP1 PUSH1 0x0 MSTORE PUSH1 0x20 PUSH1 0x0 KECCAK256 SWAP1 PUSH1 0x1F ADD PUSH1 0x20 SWAP1 DIV DUP2 ADD SWAP3 DUP3 PUSH2 0x15C0 JUMPI PUSH1 0x0 DUP6 SSTORE PUSH2 0x1607 JUMP JUMPDEST DUP3 PUSH1 0x1F LT PUSH2 0x15D9 JUMPI DUP1 MLOAD PUSH1 0xFF NOT AND DUP4 DUP1 ADD OR DUP6 SSTORE PUSH2 0x1607 JUMP JUMPDEST DUP3 DUP1 ADD PUSH1 0x1 ADD DUP6 SSTORE DUP3 ISZERO PUSH2 0x1607 JUMPI SWAP2 DUP3 ADD JUMPDEST DUP3 DUP2 GT ISZERO PUSH2 0x1606 JUMPI DUP3 MLOAD DUP3 SSTORE SWAP2 PUSH1 0x20 ADD SWAP2 SWAP1 PUSH1 0x1 ADD SWAP1 PUSH2 0x15EB JUMP JUMPDEST JUMPDEST POP SWAP1 POP PUSH2 0x1614 SWAP2 SWAP1 PUSH2 0x16E5 JUMP JUMPDEST POP SWAP1 JUMP JUMPDEST DUP3 DUP1 SLOAD PUSH2 0x1624 SWAP1 PUSH2 0x1F1D JUMP JUMPDEST SWAP1 PUSH1 0x0 MSTORE PUSH1 0x20 PUSH1 0x0 KECCAK256 SWAP1 PUSH1 0x1F ADD PUSH1 0x20 SWAP1 DIV DUP2 ADD SWAP3 DUP3 PUSH2 0x1646 JUMPI PUSH1 0x0 DUP6 SSTORE PUSH2 0x1694 JUMP JUMPDEST DUP3 PUSH1 0x1F LT PUSH2 0x1657 JUMPI DUP1 SLOAD DUP6 SSTORE PUSH2 0x1694 JUMP JUMPDEST DUP3 DUP1 ADD PUSH1 0x1 ADD DUP6 SSTORE DUP3 ISZERO PUSH2 0x1694 JUMPI PUSH1 0x0 MSTORE PUSH1 0x20 PUSH1 0x0 KECCAK256 SWAP2 PUSH1 0x1F ADD PUSH1 0x20 SWAP1 DIV DUP3 ADD JUMPDEST DUP3 DUP2 GT ISZERO PUSH2 0x1693 JUMPI DUP3 SLOAD DUP3 SSTORE SWAP2 PUSH1 0x1 ADD SWAP2 SWAP1 PUSH1 0x1 ADD SWAP1 PUSH2 0x1678 JUMP JUMPDEST JUMPDEST POP SWAP1 POP PUSH2 0x16A1 SWAP2 SWAP1 PUSH2 0x16E5 JUMP JUMPDEST POP SWAP1 JUMP JUMPDEST POP DUP1 SLOAD PUSH2 0x16B1 SWAP1 PUSH2 0x1F1D JUMP JUMPDEST PUSH1 0x0 DUP3 SSTORE DUP1 PUSH1 0x1F LT PUSH2 0x16C3 JUMPI POP PUSH2 0x16E2 JUMP JUMPDEST PUSH1 0x1F ADD PUSH1 0x20 SWAP1 DIV SWAP1 PUSH1 0x0 MSTORE PUSH1 0x20 PUSH1 0x0 KECCAK256 SWAP1 DUP2 ADD SWAP1 PUSH2 0x16E1 SWAP2 SWAP1 PUSH2 0x16E5 JUMP JUMPDEST JUMPDEST POP JUMP JUMPDEST JUMPDEST DUP1 DUP3 GT ISZERO PUSH2 0x16FE JUMPI PUSH1 0x0 DUP2 PUSH1 0x0 SWAP1 SSTORE POP PUSH1 0x1 ADD PUSH2 0x16E6 JUMP JUMPDEST POP SWAP1 JUMP JUMPDEST PUSH1 0x0 PUSH2 0x1715 PUSH2 0x1710 DUP5 PUSH2 0x1D72 JUMP JUMPDEST PUSH2 0x1D4D JUMP JUMPDEST SWAP1 POP DUP3 DUP2 MSTORE PUSH1 0x20 DUP2 ADD DUP5 DUP5 DUP5 ADD GT ISZERO PUSH2 0x1731 JUMPI PUSH2 0x1730 PUSH2 0x20E8 JUMP JUMPDEST JUMPDEST PUSH2 0x173C DUP5 DUP3 DUP6 PUSH2 0x1EDB JUMP JUMPDEST POP SWAP4 SWAP3 POP POP POP JUMP JUMPDEST PUSH1 0x0 DUP3 PUSH1 0x1F DUP4 ADD SLT PUSH2 0x1759 JUMPI PUSH2 0x1758 PUSH2 0x20E3 JUMP JUMPDEST JUMPDEST DUP2 CALLDATALOAD PUSH2 0x1769 DUP5 DUP3 PUSH1 0x20 DUP7 ADD PUSH2 0x1702 JUMP JUMPDEST SWAP2 POP POP SWAP3 SWAP2 POP POP JUMP JUMPDEST PUSH1 0x0 DUP2 CALLDATALOAD SWAP1 POP PUSH2 0x1781 DUP2 PUSH2 0x2194 JUMP JUMPDEST SWAP3 SWAP2 POP POP JUMP JUMPDEST PUSH1 0x0 DUP2 CALLDATALOAD SWAP1 POP PUSH2 0x1796 DUP2 PUSH2 0x21AB JUMP JUMPDEST SWAP3 SWAP2 POP POP JUMP JUMPDEST PUSH1 0x0 PUSH1 0x20 DUP3 DUP5 SUB SLT ISZERO PUSH2 0x17B2 JUMPI PUSH2 0x17B1 PUSH2 0x20F2 JUMP JUMPDEST JUMPDEST PUSH1 0x0 PUSH2 0x17C0 DUP5 DUP3 DUP6 ADD PUSH2 0x1772 JUMP JUMPDEST SWAP2 POP POP SWAP3 SWAP2 POP POP JUMP JUMPDEST PUSH1 0x0 DUP1 PUSH1 0x0 PUSH1 0x60 DUP5 DUP7 SUB SLT ISZERO PUSH2 0x17E2 JUMPI PUSH2 0x17E1 PUSH2 0x20F2 JUMP JUMPDEST JUMPDEST PUSH1 0x0 PUSH2 0x17F0 DUP7 DUP3 DUP8 ADD PUSH2 0x1772 JUMP JUMPDEST SWAP4 POP POP PUSH1 0x20 DUP5 ADD CALLDATALOAD PUSH8 0xFFFFFFFFFFFFFFFF DUP2 GT ISZERO PUSH2 0x1811 JUMPI PUSH2 0x1810 PUSH2 0x20ED JUMP JUMPDEST JUMPDEST PUSH2 0x181D DUP7 DUP3 DUP8 ADD PUSH2 0x1744 JUMP JUMPDEST SWAP3 POP POP PUSH1 0x40 DUP5 ADD CALLDATALOAD PUSH8 0xFFFFFFFFFFFFFFFF DUP2 GT ISZERO PUSH2 0x183E JUMPI PUSH2 0x183D PUSH2 0x20ED JUMP JUMPDEST JUMPDEST PUSH2 0x184A DUP7 DUP3 DUP8 ADD PUSH2 0x1744 JUMP JUMPDEST SWAP2 POP POP SWAP3 POP SWAP3 POP SWAP3 JUMP JUMPDEST PUSH1 0x0 DUP1 PUSH1 0x40 DUP4 DUP6 SUB SLT ISZERO PUSH2 0x186B JUMPI PUSH2 0x186A PUSH2 0x20F2 JUMP JUMPDEST JUMPDEST PUSH1 0x0 PUSH2 0x1879 DUP6 DUP3 DUP7 ADD PUSH2 0x1772 JUMP JUMPDEST SWAP3 POP POP PUSH1 0x20 PUSH2 0x188A DUP6 DUP3 DUP7 ADD PUSH2 0x1772 JUMP JUMPDEST SWAP2 POP POP SWAP3 POP SWAP3 SWAP1 POP JUMP JUMPDEST PUSH1 0x0 DUP1 PUSH1 0x0 DUP1 PUSH1 0x80 DUP6 DUP8 SUB SLT ISZERO PUSH2 0x18AE JUMPI PUSH2 0x18AD PUSH2 0x20F2 JUMP JUMPDEST JUMPDEST PUSH1 0x0 PUSH2 0x18BC DUP8 DUP3 DUP9 ADD PUSH2 0x1772 JUMP JUMPDEST SWAP5 POP POP PUSH1 0x20 PUSH2 0x18CD DUP8 DUP3 DUP9 ADD PUSH2 0x1772 JUMP JUMPDEST SWAP4 POP POP PUSH1 0x40 DUP6 ADD CALLDATALOAD PUSH8 0xFFFFFFFFFFFFFFFF DUP2 GT ISZERO PUSH2 0x18EE JUMPI PUSH2 0x18ED PUSH2 0x20ED JUMP JUMPDEST JUMPDEST PUSH2 0x18FA DUP8 DUP3 DUP9 ADD PUSH2 0x1744 JUMP JUMPDEST SWAP3 POP POP PUSH1 0x60 DUP6 ADD CALLDATALOAD PUSH8 0xFFFFFFFFFFFFFFFF DUP2 GT ISZERO PUSH2 0x191B JUMPI PUSH2 0x191A PUSH2 0x20ED JUMP JUMPDEST JUMPDEST PUSH2 0x1927 DUP8 DUP3 DUP9 ADD PUSH2 0x1744 JUMP JUMPDEST SWAP2 POP POP SWAP3 SWAP6 SWAP2 SWAP5 POP SWAP3 POP JUMP JUMPDEST PUSH1 0x0 DUP1 PUSH1 0x0 PUSH1 0x60 DUP5 DUP7 SUB SLT ISZERO PUSH2 0x194C JUMPI PUSH2 0x194B PUSH2 0x20F2 JUMP JUMPDEST JUMPDEST PUSH1 0x0 PUSH2 0x195A DUP7 DUP3 DUP8 ADD PUSH2 0x1772 JUMP JUMPDEST SWAP4 POP POP PUSH1 0x20 PUSH2 0x196B DUP7 DUP3 DUP8 ADD PUSH2 0x1772 JUMP JUMPDEST SWAP3 POP POP PUSH1 0x40 PUSH2 0x197C DUP7 DUP3 DUP8 ADD PUSH2 0x1787 JUMP JUMPDEST SWAP2 POP POP SWAP3 POP SWAP3 POP SWAP3 JUMP JUMPDEST PUSH1 0x0 PUSH2 0x1992 DUP4 DUP4 PUSH2 0x1ABB JUMP JUMPDEST SWAP1 POP SWAP3 SWAP2 POP POP JUMP JUMPDEST PUSH1 0x0 PUSH2 0x19A5 DUP3 PUSH2 0x1DB3 JUMP JUMPDEST PUSH2 0x19AF DUP2 DUP6 PUSH2 0x1DD6 JUMP JUMPDEST SWAP4 POP DUP4 PUSH1 0x20 DUP3 MUL DUP6 ADD PUSH2 0x19C1 DUP6 PUSH2 0x1DA3 JUMP JUMPDEST DUP1 PUSH1 0x0 JUMPDEST DUP6 DUP2 LT ISZERO PUSH2 0x19FD JUMPI DUP5 DUP5 SUB DUP10 MSTORE DUP2 MLOAD PUSH2 0x19DE DUP6 DUP3 PUSH2 0x1986 JUMP JUMPDEST SWAP5 POP PUSH2 0x19E9 DUP4 PUSH2 0x1DC9 JUMP JUMPDEST SWAP3 POP PUSH1 0x20 DUP11 ADD SWAP10 POP POP PUSH1 0x1 DUP2 ADD SWAP1 POP PUSH2 0x19C5 JUMP JUMPDEST POP DUP3 SWAP8 POP DUP8 SWAP6 POP POP POP POP POP POP SWAP3 SWAP2 POP POP JUMP JUMPDEST PUSH2 0x1A18 DUP2 PUSH2 0x1E93 JUMP JUMPDEST DUP3 MSTORE POP POP JUMP JUMPDEST PUSH2 0x1A27 DUP2 PUSH2 0x1EC9 JUMP JUMPDEST DUP3 MSTORE POP POP JUMP JUMPDEST PUSH2 0x1A36 DUP2 PUSH2 0x1EC9 JUMP JUMPDEST DUP3 MSTORE POP POP JUMP JUMPDEST PUSH1 0x0 PUSH2 0x1A47 DUP3 PUSH2 0x1DBE JUMP JUMPDEST PUSH2 0x1A51 DUP2 DUP6 PUSH2 0x1DE7 JUMP JUMPDEST SWAP4 POP PUSH2 0x1A61 DUP2 DUP6 PUSH1 0x20 DUP7 ADD PUSH2 0x1EEA JUMP JUMPDEST PUSH2 0x1A6A DUP2 PUSH2 0x20F7 JUMP JUMPDEST DUP5 ADD SWAP2 POP POP SWAP3 SWAP2 POP POP JUMP JUMPDEST PUSH1 0x0 PUSH2 0x1A82 PUSH1 0x1D DUP4 PUSH2 0x1DF8 JUMP JUMPDEST SWAP2 POP PUSH2 0x1A8D DUP3 PUSH2 0x2108 JUMP JUMPDEST PUSH1 0x20 DUP3 ADD SWAP1 POP SWAP2 SWAP1 POP JUMP JUMPDEST PUSH1 0x0 PUSH2 0x1AA5 PUSH1 0x24 DUP4 PUSH2 0x1DF8 JUMP JUMPDEST SWAP2 POP PUSH2 0x1AB0 DUP3 PUSH2 0x2131 JUMP JUMPDEST PUSH1 0x40 DUP3 ADD SWAP1 POP SWAP2 SWAP1 POP JUMP JUMPDEST PUSH1 0x0 PUSH1 0x60 DUP4 ADD PUSH1 0x0 DUP4 ADD MLOAD DUP5 DUP3 SUB PUSH1 0x0 DUP7 ADD MSTORE PUSH2 0x1AD8 DUP3 DUP3 PUSH2 0x1A3C JUMP JUMPDEST SWAP2 POP POP PUSH1 0x20 DUP4 ADD MLOAD DUP5 DUP3 SUB PUSH1 0x20 DUP7 ADD MSTORE PUSH2 0x1AF2 DUP3 DUP3 PUSH2 0x1A3C JUMP JUMPDEST SWAP2 POP POP PUSH1 0x40 DUP4 ADD MLOAD PUSH2 0x1B07 PUSH1 0x40 DUP7 ADD DUP3 PUSH2 0x1A1E JUMP JUMPDEST POP DUP1 SWAP2 POP POP SWAP3 SWAP2 POP POP JUMP JUMPDEST PUSH1 0x0 PUSH1 0x60 DUP4 ADD PUSH1 0x0 DUP4 ADD MLOAD DUP5 DUP3 SUB PUSH1 0x0 DUP7 ADD MSTORE PUSH2 0x1B2F DUP3 DUP3 PUSH2 0x1A3C JUMP JUMPDEST SWAP2 POP POP PUSH1 0x20 DUP4 ADD MLOAD DUP5 DUP3 SUB PUSH1 0x20 DUP7 ADD MSTORE PUSH2 0x1B49 DUP3 DUP3 PUSH2 0x1A3C JUMP JUMPDEST SWAP2 POP POP PUSH1 0x40 DUP4 ADD MLOAD PUSH2 0x1B5E PUSH1 0x40 DUP7 ADD DUP3 PUSH2 0x1A1E JUMP JUMPDEST POP DUP1 SWAP2 POP POP SWAP3 SWAP2 POP POP JUMP JUMPDEST PUSH2 0x1B72 DUP2 PUSH2 0x1EB2 JUMP JUMPDEST DUP3 MSTORE POP POP JUMP JUMPDEST PUSH1 0x0 PUSH1 0x20 DUP3 ADD SWAP1 POP DUP2 DUP2 SUB PUSH1 0x0 DUP4 ADD MSTORE PUSH2 0x1B92 DUP2 DUP5 PUSH2 0x199A JUMP JUMPDEST SWAP1 POP SWAP3 SWAP2 POP POP JUMP JUMPDEST PUSH1 0x0 PUSH1 0x20 DUP3 ADD SWAP1 POP PUSH2 0x1BAF PUSH1 0x0 DUP4 ADD DUP5 PUSH2 0x1A0F JUMP JUMPDEST SWAP3 SWAP2 POP POP JUMP JUMPDEST PUSH1 0x0 PUSH1 0x20 DUP3 ADD SWAP1 POP PUSH2 0x1BCA PUSH1 0x0 DUP4 ADD DUP5 PUSH2 0x1A2D JUMP JUMPDEST SWAP3 SWAP2 POP POP JUMP JUMPDEST PUSH1 0x0 PUSH1 0x20 DUP3 ADD SWAP1 POP DUP2 DUP2 SUB PUSH1 0x0 DUP4 ADD MSTORE PUSH2 0x1BE9 DUP2 PUSH2 0x1A75 JUMP JUMPDEST SWAP1 POP SWAP2 SWAP1 POP JUMP JUMPDEST PUSH1 0x0 PUSH1 0x20 DUP3 ADD SWAP1 POP DUP2 DUP2 SUB PUSH1 0x0 DUP4 ADD MSTORE PUSH2 0x1C09 DUP2 PUSH2 0x1A98 JUMP JUMPDEST SWAP1 POP SWAP2 SWAP1 POP JUMP JUMPDEST PUSH1 0x0 PUSH1 0x20 DUP3 ADD SWAP1 POP PUSH2 0x1C25 PUSH1 0x0 DUP4 ADD DUP5 PUSH2 0x1B69 JUMP JUMPDEST SWAP3 SWAP2 POP POP JUMP JUMPDEST PUSH1 0x0 PUSH1 0x60 DUP3 ADD SWAP1 POP PUSH2 0x1C40 PUSH1 0x0 DUP4 ADD DUP7 PUSH2 0x1B69 JUMP JUMPDEST DUP2 DUP2 SUB PUSH1 0x20 DUP4 ADD MSTORE PUSH2 0x1C52 DUP2 DUP6 PUSH2 0x1B12 JUMP JUMPDEST SWAP1 POP PUSH2 0x1C61 PUSH1 0x40 DUP4 ADD DUP5 PUSH2 0x1B69 JUMP JUMPDEST SWAP5 SWAP4 POP POP POP POP JUMP JUMPDEST PUSH1 0x0 PUSH1 0x80 DUP3 ADD SWAP1 POP PUSH2 0x1C7E PUSH1 0x0 DUP4 ADD DUP8 PUSH2 0x1B69 JUMP JUMPDEST PUSH2 0x1C8B PUSH1 0x20 DUP4 ADD DUP7 PUSH2 0x1B69 JUMP JUMPDEST PUSH2 0x1C98 PUSH1 0x40 DUP4 ADD DUP6 PUSH2 0x1A2D JUMP JUMPDEST PUSH2 0x1CA5 PUSH1 0x60 DUP4 ADD DUP5 PUSH2 0x1A2D JUMP JUMPDEST SWAP6 SWAP5 POP POP POP POP POP JUMP JUMPDEST PUSH1 0x0 PUSH1 0x80 DUP3 ADD SWAP1 POP PUSH2 0x1CC3 PUSH1 0x0 DUP4 ADD DUP8 PUSH2 0x1B69 JUMP JUMPDEST PUSH2 0x1CD0 PUSH1 0x20 DUP4 ADD DUP7 PUSH2 0x1B69 JUMP JUMPDEST DUP2 DUP2 SUB PUSH1 0x40 DUP4 ADD MSTORE PUSH2 0x1CE2 DUP2 DUP6 PUSH2 0x1B12 JUMP JUMPDEST SWAP1 POP DUP2 DUP2 SUB PUSH1 0x60 DUP4 ADD MSTORE PUSH2 0x1CF6 DUP2 DUP5 PUSH2 0x1B12 JUMP JUMPDEST SWAP1 POP SWAP6 SWAP5 POP POP POP POP POP JUMP JUMPDEST PUSH1 0x0 PUSH1 0x80 DUP3 ADD SWAP1 POP PUSH2 0x1D16 PUSH1 0x0 DUP4 ADD DUP8 PUSH2 0x1B69 JUMP JUMPDEST PUSH2 0x1D23 PUSH1 0x20 DUP4 ADD DUP7 PUSH2 0x1B69 JUMP JUMPDEST DUP2 DUP2 SUB PUSH1 0x40 DUP4 ADD MSTORE PUSH2 0x1D35 DUP2 DUP6 PUSH2 0x1B12 JUMP JUMPDEST SWAP1 POP PUSH2 0x1D44 PUSH1 0x60 DUP4 ADD DUP5 PUSH2 0x1B69 JUMP JUMPDEST SWAP6 SWAP5 POP POP POP POP POP JUMP JUMPDEST PUSH1 0x0 PUSH2 0x1D57 PUSH2 0x1D68 JUMP JUMPDEST SWAP1 POP PUSH2 0x1D63 DUP3 DUP3 PUSH2 0x1F4F JUMP JUMPDEST SWAP2 SWAP1 POP JUMP JUMPDEST PUSH1 0x0 PUSH1 0x40 MLOAD SWAP1 POP SWAP1 JUMP JUMPDEST PUSH1 0x0 PUSH8 0xFFFFFFFFFFFFFFFF DUP3 GT ISZERO PUSH2 0x1D8D JUMPI PUSH2 0x1D8C PUSH2 0x20B4 JUMP JUMPDEST JUMPDEST PUSH2 0x1D96 DUP3 PUSH2 0x20F7 JUMP JUMPDEST SWAP1 POP PUSH1 0x20 DUP2 ADD SWAP1 POP SWAP2 SWAP1 POP JUMP JUMPDEST PUSH1 0x0 DUP2 SWAP1 POP PUSH1 0x20 DUP3 ADD SWAP1 POP SWAP2 SWAP1 POP JUMP JUMPDEST PUSH1 0x0 DUP2 MLOAD SWAP1 POP SWAP2 SWAP1 POP JUMP JUMPDEST PUSH1 0x0 DUP2 MLOAD SWAP1 POP SWAP2 SWAP1 POP JUMP JUMPDEST PUSH1 0x0 PUSH1 0x20 DUP3 ADD SWAP1 POP SWAP2 SWAP1 POP JUMP JUMPDEST PUSH1 0x0 DUP3 DUP3 MSTORE PUSH1 0x20 DUP3 ADD SWAP1 POP SWAP3 SWAP2 POP POP JUMP JUMPDEST PUSH1 0x0 DUP3 DUP3 MSTORE PUSH1 0x20 DUP3 ADD SWAP1 POP SWAP3 SWAP2 POP POP JUMP JUMPDEST PUSH1 0x0 DUP3 DUP3 MSTORE PUSH1 0x20 DUP3 ADD SWAP1 POP SWAP3 SWAP2 POP POP JUMP JUMPDEST PUSH1 0x0 PUSH2 0x1E14 DUP3 PUSH2 0x1EB2 JUMP JUMPDEST SWAP2 POP PUSH2 0x1E1F DUP4 PUSH2 0x1EB2 JUMP JUMPDEST SWAP3 POP DUP3 PUSH32 0xFFFFFFFFFFFFFFFFFFFFFFFFFFFFFFFFFFFFFFFFFFFFFFFFFFFFFFFFFFFFFFFF SUB DUP3 GT ISZERO PUSH2 0x1E54 JUMPI PUSH2 0x1E53 PUSH2 0x1FC9 JUMP JUMPDEST JUMPDEST DUP3 DUP3 ADD SWAP1 POP SWAP3 SWAP2 POP POP JUMP JUMPDEST PUSH1 0x0 PUSH2 0x1E6A DUP3 PUSH2 0x1EB2 JUMP JUMPDEST SWAP2 POP PUSH2 0x1E75 DUP4 PUSH2 0x1EB2 JUMP JUMPDEST SWAP3 POP DUP3 DUP3 LT ISZERO PUSH2 0x1E88 JUMPI PUSH2 0x1E87 PUSH2 0x1FC9 JUMP JUMPDEST JUMPDEST DUP3 DUP3 SUB SWAP1 POP SWAP3 SWAP2 POP POP JUMP JUMPDEST PUSH1 0x0 DUP2 ISZERO ISZERO SWAP1 POP SWAP2 SWAP1 POP JUMP JUMPDEST PUSH1 0x0 DUP2 SWAP1 POP PUSH2 0x1EAD DUP3 PUSH2 0x2180 JUMP JUMPDEST SWAP2 SWAP1 POP JUMP JUMPDEST PUSH1 0x0 DUP2 SWAP1 POP SWAP2 SWAP1 POP JUMP JUMPDEST PUSH1 0x0 PUSH1 0xFF DUP3 AND SWAP1 POP SWAP2 SWAP1 POP JUMP JUMPDEST PUSH1 0x0 PUSH2 0x1ED4 DUP3 PUSH2 0x1E9F JUMP JUMPDEST SWAP1 POP SWAP2 SWAP1 POP JUMP JUMPDEST DUP3 DUP2 DUP4 CALLDATACOPY PUSH1 0x0 DUP4 DUP4 ADD MSTORE POP POP POP JUMP JUMPDEST PUSH1 0x0 JUMPDEST DUP4 DUP2 LT ISZERO PUSH2 0x1F08 JUMPI DUP1 DUP3 ADD MLOAD DUP2 DUP5 ADD MSTORE PUSH1 0x20 DUP2 ADD SWAP1 POP PUSH2 0x1EED JUMP JUMPDEST DUP4 DUP2 GT ISZERO PUSH2 0x1F17 JUMPI PUSH1 0x0 DUP5 DUP5 ADD MSTORE JUMPDEST POP POP POP POP JUMP JUMPDEST PUSH1 0x0 PUSH1 0x2 DUP3 DIV SWAP1 POP PUSH1 0x1 DUP3 AND DUP1 PUSH2 0x1F35 JUMPI PUSH1 0x7F DUP3 AND SWAP2 POP JUMPDEST PUSH1 0x20 DUP3 LT DUP2 EQ ISZERO PUSH2 0x1F49 JUMPI PUSH2 0x1F48 PUSH2 0x2027 JUMP JUMPDEST JUMPDEST POP SWAP2 SWAP1 POP JUMP JUMPDEST PUSH2 0x1F58 DUP3 PUSH2 0x20F7 JUMP JUMPDEST DUP2 ADD DUP2 DUP2 LT PUSH8 0xFFFFFFFFFFFFFFFF DUP3 GT OR ISZERO PUSH2 0x1F77 JUMPI PUSH2 0x1F76 PUSH2 0x20B4 JUMP JUMPDEST JUMPDEST DUP1 PUSH1 0x40 MSTORE POP POP POP JUMP JUMPDEST PUSH1 0x0 PUSH2 0x1F8B DUP3 PUSH2 0x1EB2 JUMP JUMPDEST SWAP2 POP PUSH32 0xFFFFFFFFFFFFFFFFFFFFFFFFFFFFFFFFFFFFFFFFFFFFFFFFFFFFFFFFFFFFFFFF DUP3 EQ ISZERO PUSH2 0x1FBE JUMPI PUSH2 0x1FBD PUSH2 0x1FC9 JUMP JUMPDEST JUMPDEST PUSH1 0x1 DUP3 ADD SWAP1 POP SWAP2 SWAP1 POP JUMP JUMPDEST PUSH32 0x4E487B7100000000000000000000000000000000000000000000000000000000 PUSH1 0x0 MSTORE PUSH1 0x11 PUSH1 0x4 MSTORE PUSH1 0x24 PUSH1 0x0 REVERT JUMPDEST PUSH32 0x4E487B7100000000000000000000000000000000000000000000000000000000 PUSH1 0x0 MSTORE PUSH1 0x21 PUSH1 0x4 MSTORE PUSH1 0x24 PUSH1 0x0 REVERT JUMPDEST PUSH32 0x4E487B7100000000000000000000000000000000000000000000000000000000 PUSH1 0x0 MSTORE PUSH1 0x22 PUSH1 0x4 MSTORE PUSH1 0x24 PUSH1 0x0 REVERT JUMPDEST PUSH32 0x4E487B7100000000000000000000000000000000000000000000000000000000 PUSH1 0x0 MSTORE PUSH1 0x31 PUSH1 0x4 MSTORE PUSH1 0x24 PUSH1 0x0 REVERT JUMPDEST PUSH32 0x4E487B7100000000000000000000000000000000000000000000000000000000 PUSH1 0x0 MSTORE PUSH1 0x32 PUSH1 0x4 MSTORE PUSH1 0x24 PUSH1 0x0 REVERT JUMPDEST PUSH32 0x4E487B7100000000000000000000000000000000000000000000000000000000 PUSH1 0x0 MSTORE PUSH1 0x41 PUSH1 0x4 MSTORE PUSH1 0x24 PUSH1 0x0 REVERT JUMPDEST PUSH1 0x0 DUP1 REVERT JUMPDEST PUSH1 0x0 DUP1 REVERT JUMPDEST PUSH1 0x0 DUP1 REVERT JUMPDEST PUSH1 0x0 DUP1 REVERT JUMPDEST PUSH1 0x0 PUSH1 0x1F NOT PUSH1 0x1F DUP4 ADD AND SWAP1 POP SWAP2 SWAP1 POP JUMP JUMPDEST PUSH32 0x4D696C6573746F6E65206E756D626572206F7574206F662072616E6765000000 PUSH1 0x0 DUP3 ADD MSTORE POP JUMP JUMPDEST PUSH32 0x4D696C6573746F6E65732068617665206E6F74206265656E2063726561746564 PUSH1 0x0 DUP3 ADD MSTORE PUSH32 0x2079657400000000000000000000000000000000000000000000000000000000 PUSH1 0x20 DUP3 ADD MSTORE POP JUMP JUMPDEST PUSH1 0x7 DUP2 LT PUSH2 0x2191 JUMPI PUSH2 0x2190 PUSH2 0x1FF8 JUMP JUMPDEST JUMPDEST POP JUMP JUMPDEST PUSH2 0x219D DUP2 PUSH2 0x1EB2 JUMP JUMPDEST DUP2 EQ PUSH2 0x21A8 JUMPI PUSH1 0x0 DUP1 REVERT JUMPDEST POP JUMP JUMPDEST PUSH2 0x21B4 DUP2 PUSH2 0x1EBC JUMP JUMPDEST DUP2 EQ PUSH2 0x21BF JUMPI PUSH1 0x0 DUP1 REVERT JUMPDEST POP JUMP INVALID LOG2 PUSH5 0x6970667358 0x22 SLT KECCAK256 CODECOPY NOT CHAINID PUSH17 0x25BFB1CC6E24DB8D88086C0A3D8C6C6E2B 0xED PUSH15 0xF24439C6C71E22CEBD64736F6C6343 STOP ADDMOD SMOD STOP CALLER "
				},
				"gasEstimates": {
					"creation": {
						"codeDepositCost": "1739200",
						"executionCost": "1827",
						"totalCost": "1741027"
					},
					"external": {
						"checkAllMilestoneApproved(uint256)": "infinite",
						"checkAllMilestoneCompleted(uint256)": "infinite",
						"checkAllMilestoneVerified(uint256)": "infinite",
						"checkAnyMilestoneConflict(uint256)": "infinite",
						"checkMilestoneStatus(uint256,uint256,uint8)": "infinite",
						"checkMinMilestoneCreated(uint256)": "2870",
						"createMilestone(uint256,string,string)": "infinite",
						"deleteMilestone(uint256,uint256)": "infinite",
						"getAllMilestone(uint256)": "infinite",
						"getMilestoneStatus(uint256,uint256)": "infinite",
						"getTotalNumMilestones(uint256)": "infinite",
						"updateAllMilestonePending(uint256)": "infinite",
						"updateMilestone(uint256,uint256,string,string)": "infinite",
						"updateMilestoneApproved(uint256,uint256)": "infinite",
						"updateMilestoneCompleted(uint256,uint256)": "infinite",
						"updateMilestoneConflict(uint256,uint256)": "infinite",
						"updateMilestoneStarted(uint256,uint256)": "infinite",
						"updateMilestoneVerified(uint256,uint256)": "infinite"
					},
					"internal": {
						"checkAllMilestoneStatusMatch(uint256,enum Milestone.Status)": "infinite",
						"checkAnyMilestoneStatusMatch(uint256,enum Milestone.Status)": "infinite",
						"updateMilestoneStatus(uint256,uint256,enum Milestone.Status)": "infinite"
					}
				},
				"methodIdentifiers": {
					"checkAllMilestoneApproved(uint256)": "261ea724",
					"checkAllMilestoneCompleted(uint256)": "6139ab8f",
					"checkAllMilestoneVerified(uint256)": "1e0f2a46",
					"checkAnyMilestoneConflict(uint256)": "6005ecfd",
					"checkMilestoneStatus(uint256,uint256,uint8)": "2611954f",
					"checkMinMilestoneCreated(uint256)": "863ccc08",
					"createMilestone(uint256,string,string)": "b5015d11",
					"deleteMilestone(uint256,uint256)": "a1a56bae",
					"getAllMilestone(uint256)": "5c91eb59",
					"getMilestoneStatus(uint256,uint256)": "e8049da1",
					"getTotalNumMilestones(uint256)": "533c787b",
					"updateAllMilestonePending(uint256)": "cc590e6f",
					"updateMilestone(uint256,uint256,string,string)": "095674aa",
					"updateMilestoneApproved(uint256,uint256)": "79a6544e",
					"updateMilestoneCompleted(uint256,uint256)": "46d6e88e",
					"updateMilestoneConflict(uint256,uint256)": "bceae35c",
					"updateMilestoneStarted(uint256,uint256)": "ab7db003",
					"updateMilestoneVerified(uint256,uint256)": "275a645c"
				}
			},
			"userdoc": {
				"kind": "user",
				"methods": {},
				"version": 1
			}
		}
	}
}