{
	"contracts/Conflict.sol": {
		"Conflict": {
			"abi": [
				{
					"anonymous": false,
					"inputs": [
						{
							"indexed": false,
							"internalType": "uint256",
							"name": "projectid",
							"type": "uint256"
						},
						{
							"indexed": false,
							"internalType": "uint256",
							"name": "serviceid",
							"type": "uint256"
						},
						{
							"indexed": false,
							"internalType": "uint256",
							"name": "milestoneid",
							"type": "uint256"
						},
						{
							"indexed": false,
							"internalType": "address",
							"name": "serviceProvider",
							"type": "address"
						}
					],
					"name": "conflictRaised",
					"type": "event"
				},
				{
					"anonymous": false,
					"inputs": [
						{
							"indexed": false,
							"internalType": "uint256",
							"name": "projectid",
							"type": "uint256"
						},
						{
							"indexed": false,
							"internalType": "uint256",
							"name": "serviceid",
							"type": "uint256"
						},
						{
							"indexed": false,
							"internalType": "uint256",
							"name": "milestoneid",
							"type": "uint256"
						},
						{
							"indexed": false,
							"internalType": "uint8",
							"name": "result",
							"type": "uint8"
						}
					],
					"name": "conflictResult",
					"type": "event"
				},
				{
					"anonymous": false,
					"inputs": [
						{
							"indexed": false,
							"internalType": "uint256",
							"name": "projectid",
							"type": "uint256"
						},
						{
							"indexed": false,
							"internalType": "uint256",
							"name": "serviceid",
							"type": "uint256"
						},
						{
							"indexed": false,
							"internalType": "uint256",
							"name": "milestoneid",
							"type": "uint256"
						},
						{
							"indexed": false,
							"internalType": "address",
							"name": "voter",
							"type": "address"
						},
						{
							"indexed": false,
							"internalType": "uint8",
							"name": "vote",
							"type": "uint8"
						}
					],
					"name": "conflictVoted",
					"type": "event"
				},
				{
					"inputs": [
						{
							"internalType": "uint256",
							"name": "projectid",
							"type": "uint256"
						},
						{
							"internalType": "uint256",
							"name": "serviceid",
							"type": "uint256"
						},
						{
							"internalType": "uint256",
							"name": "milestoneid",
							"type": "uint256"
						},
						{
							"internalType": "address",
							"name": "serviceProvider",
							"type": "address"
						},
						{
							"internalType": "uint256",
							"name": "tot_voters",
							"type": "uint256"
						}
					],
					"name": "createConflict",
					"outputs": [],
					"stateMutability": "nonpayable",
					"type": "function"
				},
				{
					"inputs": [
						{
							"internalType": "uint256",
							"name": "projectid",
							"type": "uint256"
						},
						{
							"internalType": "uint256",
							"name": "serviceid",
							"type": "uint256"
						},
						{
							"internalType": "uint256",
							"name": "milestoneid",
							"type": "uint256"
						}
					],
					"name": "getConflictStatus",
					"outputs": [
						{
							"internalType": "enum Conflict.ConflictStatus",
							"name": "",
							"type": "uint8"
						}
					],
					"stateMutability": "view",
					"type": "function"
				},
				{
					"inputs": [
						{
							"internalType": "uint256",
							"name": "projectid",
							"type": "uint256"
						},
						{
							"internalType": "uint256",
							"name": "serviceid",
							"type": "uint256"
						},
						{
							"internalType": "uint256",
							"name": "milestoneid",
							"type": "uint256"
						}
					],
					"name": "getResults",
					"outputs": [
						{
							"internalType": "uint256",
							"name": "",
							"type": "uint256"
						}
					],
					"stateMutability": "view",
					"type": "function"
				},
				{
					"inputs": [
						{
							"internalType": "uint256",
							"name": "projectid",
							"type": "uint256"
						},
						{
							"internalType": "uint256",
							"name": "serviceid",
							"type": "uint256"
						},
						{
							"internalType": "uint256",
							"name": "milestoneid",
							"type": "uint256"
						}
					],
					"name": "getVotesCollected",
					"outputs": [
						{
							"internalType": "uint256",
							"name": "",
							"type": "uint256"
						}
					],
					"stateMutability": "view",
					"type": "function"
				},
				{
					"inputs": [
						{
							"internalType": "uint256",
							"name": "projectid",
							"type": "uint256"
						},
						{
							"internalType": "uint256",
							"name": "serviceid",
							"type": "uint256"
						},
						{
							"internalType": "uint256",
							"name": "milestoneid",
							"type": "uint256"
						}
					],
					"name": "getVotesforProvider",
					"outputs": [
						{
							"internalType": "uint256",
							"name": "",
							"type": "uint256"
						}
					],
					"stateMutability": "view",
					"type": "function"
				},
				{
					"inputs": [
						{
							"internalType": "uint256",
							"name": "projectid",
							"type": "uint256"
						},
						{
							"internalType": "uint256",
							"name": "serviceid",
							"type": "uint256"
						},
						{
							"internalType": "uint256",
							"name": "milestoneid",
							"type": "uint256"
						}
					],
					"name": "getVotesforRequester",
					"outputs": [
						{
							"internalType": "uint256",
							"name": "",
							"type": "uint256"
						}
					],
					"stateMutability": "view",
					"type": "function"
				},
				{
					"inputs": [
						{
							"internalType": "uint256",
							"name": "projectid",
							"type": "uint256"
						},
						{
							"internalType": "uint256",
							"name": "serviceid",
							"type": "uint256"
						},
						{
							"internalType": "uint256",
							"name": "milestoneid",
							"type": "uint256"
						},
						{
							"internalType": "uint8",
							"name": "vote",
							"type": "uint8"
						}
					],
					"name": "voteConflict",
					"outputs": [],
					"stateMutability": "nonpayable",
					"type": "function"
				}
			],
			"devdoc": {
				"kind": "dev",
				"methods": {},
				"version": 1
			},
			"evm": {
				"assembly": "    /* \"contracts/Conflict.sol\":156:4988  contract Conflict {... */\n  mstore(0x40, 0x80)\n  callvalue\n  dup1\n  iszero\n  tag_1\n  jumpi\n  0x00\n  dup1\n  revert\ntag_1:\n  pop\n  dataSize(sub_0)\n  dup1\n  dataOffset(sub_0)\n  0x00\n  codecopy\n  0x00\n  return\nstop\n\nsub_0: assembly {\n        /* \"contracts/Conflict.sol\":156:4988  contract Conflict {... */\n      mstore(0x40, 0x80)\n      callvalue\n      dup1\n      iszero\n      tag_1\n      jumpi\n      0x00\n      dup1\n      revert\n    tag_1:\n      pop\n      jumpi(tag_2, lt(calldatasize, 0x04))\n      shr(0xe0, calldataload(0x00))\n      dup1\n      0x9ac78879\n      gt\n      tag_10\n      jumpi\n      dup1\n      0x9ac78879\n      eq\n      tag_6\n      jumpi\n      dup1\n      0xcb4389ce\n      eq\n      tag_7\n      jumpi\n      dup1\n      0xe3d87718\n      eq\n      tag_8\n      jumpi\n      dup1\n      0xfe074c11\n      eq\n      tag_9\n      jumpi\n      jump(tag_2)\n    tag_10:\n      dup1\n      0x0366cef2\n      eq\n      tag_3\n      jumpi\n      dup1\n      0x153d0194\n      eq\n      tag_4\n      jumpi\n      dup1\n      0x3c45fe31\n      eq\n      tag_5\n      jumpi\n    tag_2:\n      0x00\n      dup1\n      revert\n        /* \"contracts/Conflict.sol\":3580:4148  function getResults(uint256 projectid, uint256 serviceid, uint256 milestoneid) public view returns (uint) {... */\n    tag_3:\n      tag_11\n      0x04\n      dup1\n      calldatasize\n      sub\n      dup2\n      add\n      swap1\n      tag_12\n      swap2\n      swap1\n      tag_13\n      jump\t// in\n    tag_12:\n      tag_14\n      jump\t// in\n    tag_11:\n      mload(0x40)\n      tag_15\n      swap2\n      swap1\n      tag_16\n      jump\t// in\n    tag_15:\n      mload(0x40)\n      dup1\n      swap2\n      sub\n      swap1\n      return\n        /* \"contracts/Conflict.sol\":2000:3542  function voteConflict(uint256 projectid, uint256 serviceid, uint256 milestoneid, uint8 vote) public {... */\n    tag_4:\n      tag_17\n      0x04\n      dup1\n      calldatasize\n      sub\n      dup2\n      add\n      swap1\n      tag_18\n      swap2\n      swap1\n      tag_19\n      jump\t// in\n    tag_18:\n      tag_20\n      jump\t// in\n    tag_17:\n      stop\n        /* \"contracts/Conflict.sol\":4366:4565  function getVotesCollected(uint256 projectid, uint256 serviceid, uint256 milestoneid) public view returns (uint256) {... */\n    tag_5:\n      tag_21\n      0x04\n      dup1\n      calldatasize\n      sub\n      dup2\n      add\n      swap1\n      tag_22\n      swap2\n      swap1\n      tag_13\n      jump\t// in\n    tag_22:\n      tag_23\n      jump\t// in\n    tag_21:\n      mload(0x40)\n      tag_24\n      swap2\n      swap1\n      tag_16\n      jump\t// in\n    tag_24:\n      mload(0x40)\n      dup1\n      swap2\n      sub\n      swap1\n      return\n        /* \"contracts/Conflict.sol\":4782:4985  function getVotesforProvider(uint256 projectid, uint256 serviceid, uint256 milestoneid) public view returns (uint256) {... */\n    tag_6:\n      tag_25\n      0x04\n      dup1\n      calldatasize\n      sub\n      dup2\n      add\n      swap1\n      tag_26\n      swap2\n      swap1\n      tag_13\n      jump\t// in\n    tag_26:\n      tag_27\n      jump\t// in\n    tag_25:\n      mload(0x40)\n      tag_28\n      swap2\n      swap1\n      tag_16\n      jump\t// in\n    tag_28:\n      mload(0x40)\n      dup1\n      swap2\n      sub\n      swap1\n      return\n        /* \"contracts/Conflict.sol\":4154:4360  function getConflictStatus(uint256 projectid, uint256 serviceid, uint256 milestoneid) public view returns (ConflictStatus) {... */\n    tag_7:\n      tag_29\n      0x04\n      dup1\n      calldatasize\n      sub\n      dup2\n      add\n      swap1\n      tag_30\n      swap2\n      swap1\n      tag_13\n      jump\t// in\n    tag_30:\n      tag_31\n      jump\t// in\n    tag_29:\n      mload(0x40)\n      tag_32\n      swap2\n      swap1\n      tag_33\n      jump\t// in\n    tag_32:\n      mload(0x40)\n      dup1\n      swap2\n      sub\n      swap1\n      return\n        /* \"contracts/Conflict.sol\":4571:4776  function getVotesforRequester(uint256 projectid, uint256 serviceid, uint256 milestoneid) public view returns (uint256) {... */\n    tag_8:\n      tag_34\n      0x04\n      dup1\n      calldatasize\n      sub\n      dup2\n      add\n      swap1\n      tag_35\n      swap2\n      swap1\n      tag_13\n      jump\t// in\n    tag_35:\n      tag_36\n      jump\t// in\n    tag_34:\n      mload(0x40)\n      tag_37\n      swap2\n      swap1\n      tag_16\n      jump\t// in\n    tag_37:\n      mload(0x40)\n      dup1\n      swap2\n      sub\n      swap1\n      return\n        /* \"contracts/Conflict.sol\":1118:1994  function createConflict(uint256 projectid, uint256 serviceid, uint256 milestoneid, address serviceProvider,  uint256 tot_voters) public {... */\n    tag_9:\n      tag_38\n      0x04\n      dup1\n      calldatasize\n      sub\n      dup2\n      add\n      swap1\n      tag_39\n      swap2\n      swap1\n      tag_40\n      jump\t// in\n    tag_39:\n      tag_41\n      jump\t// in\n    tag_38:\n      stop\n        /* \"contracts/Conflict.sol\":3580:4148  function getResults(uint256 projectid, uint256 serviceid, uint256 milestoneid) public view returns (uint) {... */\n    tag_14:\n        /* \"contracts/Conflict.sol\":3680:3684  uint */\n      0x00\n        /* \"contracts/Conflict.sol\":3767:3776  conflicts */\n      dup1\n        /* \"contracts/Conflict.sol\":3767:3787  conflicts[projectid] */\n      0x00\n        /* \"contracts/Conflict.sol\":3777:3786  projectid */\n      dup6\n        /* \"contracts/Conflict.sol\":3767:3787  conflicts[projectid] */\n      dup2\n      mstore\n      0x20\n      add\n      swap1\n      dup2\n      mstore\n      0x20\n      add\n      0x00\n      keccak256\n        /* \"contracts/Conflict.sol\":3767:3798  conflicts[projectid][serviceid] */\n      0x00\n        /* \"contracts/Conflict.sol\":3788:3797  serviceid */\n      dup5\n        /* \"contracts/Conflict.sol\":3767:3798  conflicts[projectid][serviceid] */\n      dup2\n      mstore\n      0x20\n      add\n      swap1\n      dup2\n      mstore\n      0x20\n      add\n      0x00\n      keccak256\n        /* \"contracts/Conflict.sol\":3767:3811  conflicts[projectid][serviceid][milestoneid] */\n      0x00\n        /* \"contracts/Conflict.sol\":3799:3810  milestoneid */\n      dup4\n        /* \"contracts/Conflict.sol\":3767:3811  conflicts[projectid][serviceid][milestoneid] */\n      dup2\n      mstore\n      0x20\n      add\n      swap1\n      dup2\n      mstore\n      0x20\n      add\n      0x00\n      keccak256\n        /* \"contracts/Conflict.sol\":3767:3822  conflicts[projectid][serviceid][milestoneid].votestotal */\n      0x06\n      add\n      sload\n        /* \"contracts/Conflict.sol\":3704:3713  conflicts */\n      0x00\n        /* \"contracts/Conflict.sol\":3704:3724  conflicts[projectid] */\n      dup1\n        /* \"contracts/Conflict.sol\":3714:3723  projectid */\n      dup7\n        /* \"contracts/Conflict.sol\":3704:3724  conflicts[projectid] */\n      dup2\n      mstore\n      0x20\n      add\n      swap1\n      dup2\n      mstore\n      0x20\n      add\n      0x00\n      keccak256\n        /* \"contracts/Conflict.sol\":3704:3735  conflicts[projectid][serviceid] */\n      0x00\n        /* \"contracts/Conflict.sol\":3725:3734  serviceid */\n      dup6\n        /* \"contracts/Conflict.sol\":3704:3735  conflicts[projectid][serviceid] */\n      dup2\n      mstore\n      0x20\n      add\n      swap1\n      dup2\n      mstore\n      0x20\n      add\n      0x00\n      keccak256\n        /* \"contracts/Conflict.sol\":3704:3748  conflicts[projectid][serviceid][milestoneid] */\n      0x00\n        /* \"contracts/Conflict.sol\":3736:3747  milestoneid */\n      dup5\n        /* \"contracts/Conflict.sol\":3704:3748  conflicts[projectid][serviceid][milestoneid] */\n      dup2\n      mstore\n      0x20\n      add\n      swap1\n      dup2\n      mstore\n      0x20\n      add\n      0x00\n      keccak256\n        /* \"contracts/Conflict.sol\":3704:3763  conflicts[projectid][serviceid][milestoneid].votescollected */\n      0x07\n      add\n      sload\n        /* \"contracts/Conflict.sol\":3704:3822  conflicts[projectid][serviceid][milestoneid].votescollected == conflicts[projectid][serviceid][milestoneid].votestotal */\n      eq\n        /* \"contracts/Conflict.sol\":3696:3901  require(conflicts[projectid][serviceid][milestoneid].votescollected == conflicts[projectid][serviceid][milestoneid].votestotal, \"Not everyone has voted, please prompt all other members of project to vote\") */\n      tag_43\n      jumpi\n      mload(0x40)\n      0x08c379a000000000000000000000000000000000000000000000000000000000\n      dup2\n      mstore\n      0x04\n      add\n      tag_44\n      swap1\n      tag_45\n      jump\t// in\n    tag_44:\n      mload(0x40)\n      dup1\n      swap2\n      sub\n      swap1\n      revert\n    tag_43:\n        /* \"contracts/Conflict.sol\":3982:4006  ConflictStatus.completed */\n      0x02\n        /* \"contracts/Conflict.sol\":3919:4006  conflicts[projectid][serviceid][milestoneid].conflictstatus == ConflictStatus.completed */\n      dup1\n      dup2\n      gt\n      iszero\n      tag_46\n      jumpi\n      tag_47\n      tag_48\n      jump\t// in\n    tag_47:\n    tag_46:\n        /* \"contracts/Conflict.sol\":3919:3928  conflicts */\n      0x00\n        /* \"contracts/Conflict.sol\":3919:3939  conflicts[projectid] */\n      dup1\n        /* \"contracts/Conflict.sol\":3929:3938  projectid */\n      dup7\n        /* \"contracts/Conflict.sol\":3919:3939  conflicts[projectid] */\n      dup2\n      mstore\n      0x20\n      add\n      swap1\n      dup2\n      mstore\n      0x20\n      add\n      0x00\n      keccak256\n        /* \"contracts/Conflict.sol\":3919:3950  conflicts[projectid][serviceid] */\n      0x00\n        /* \"contracts/Conflict.sol\":3940:3949  serviceid */\n      dup6\n        /* \"contracts/Conflict.sol\":3919:3950  conflicts[projectid][serviceid] */\n      dup2\n      mstore\n      0x20\n      add\n      swap1\n      dup2\n      mstore\n      0x20\n      add\n      0x00\n      keccak256\n        /* \"contracts/Conflict.sol\":3919:3963  conflicts[projectid][serviceid][milestoneid] */\n      0x00\n        /* \"contracts/Conflict.sol\":3951:3962  milestoneid */\n      dup5\n        /* \"contracts/Conflict.sol\":3919:3963  conflicts[projectid][serviceid][milestoneid] */\n      dup2\n      mstore\n      0x20\n      add\n      swap1\n      dup2\n      mstore\n      0x20\n      add\n      0x00\n      keccak256\n        /* \"contracts/Conflict.sol\":3919:3978  conflicts[projectid][serviceid][milestoneid].conflictstatus */\n      0x05\n      add\n      0x00\n      swap1\n      sload\n      swap1\n      0x0100\n      exp\n      swap1\n      div\n      0xff\n      and\n        /* \"contracts/Conflict.sol\":3919:4006  conflicts[projectid][serviceid][milestoneid].conflictstatus == ConflictStatus.completed */\n      0x02\n      dup2\n      gt\n      iszero\n      tag_49\n      jumpi\n      tag_50\n      tag_48\n      jump\t// in\n    tag_50:\n    tag_49:\n      eq\n        /* \"contracts/Conflict.sol\":3911:4072  require(conflicts[projectid][serviceid][milestoneid].conflictstatus == ConflictStatus.completed, \"Voting has not been completed yet. Please wait for it to end.\") */\n      tag_51\n      jumpi\n      mload(0x40)\n      0x08c379a000000000000000000000000000000000000000000000000000000000\n      dup2\n      mstore\n      0x04\n      add\n      tag_52\n      swap1\n      tag_53\n      jump\t// in\n    tag_52:\n      mload(0x40)\n      dup1\n      swap2\n      sub\n      swap1\n      revert\n    tag_51:\n        /* \"contracts/Conflict.sol\":4090:4099  conflicts */\n      0x00\n        /* \"contracts/Conflict.sol\":4090:4110  conflicts[projectid] */\n      dup1\n        /* \"contracts/Conflict.sol\":4100:4109  projectid */\n      dup6\n        /* \"contracts/Conflict.sol\":4090:4110  conflicts[projectid] */\n      dup2\n      mstore\n      0x20\n      add\n      swap1\n      dup2\n      mstore\n      0x20\n      add\n      0x00\n      keccak256\n        /* \"contracts/Conflict.sol\":4090:4121  conflicts[projectid][serviceid] */\n      0x00\n        /* \"contracts/Conflict.sol\":4111:4120  serviceid */\n      dup5\n        /* \"contracts/Conflict.sol\":4090:4121  conflicts[projectid][serviceid] */\n      dup2\n      mstore\n      0x20\n      add\n      swap1\n      dup2\n      mstore\n      0x20\n      add\n      0x00\n      keccak256\n        /* \"contracts/Conflict.sol\":4090:4134  conflicts[projectid][serviceid][milestoneid] */\n      0x00\n        /* \"contracts/Conflict.sol\":4122:4133  milestoneid */\n      dup4\n        /* \"contracts/Conflict.sol\":4090:4134  conflicts[projectid][serviceid][milestoneid] */\n      dup2\n      mstore\n      0x20\n      add\n      swap1\n      dup2\n      mstore\n      0x20\n      add\n      0x00\n      keccak256\n        /* \"contracts/Conflict.sol\":4090:4141  conflicts[projectid][serviceid][milestoneid].result */\n      0x0a\n      add\n      0x01\n      swap1\n      sload\n      swap1\n      0x0100\n      exp\n      swap1\n      div\n      0xff\n      and\n        /* \"contracts/Conflict.sol\":4083:4141  return conflicts[projectid][serviceid][milestoneid].result */\n      0xff\n      and\n      swap1\n      pop\n        /* \"contracts/Conflict.sol\":3580:4148  function getResults(uint256 projectid, uint256 serviceid, uint256 milestoneid) public view returns (uint) {... */\n      swap4\n      swap3\n      pop\n      pop\n      pop\n      jump\t// out\n        /* \"contracts/Conflict.sol\":2000:3542  function voteConflict(uint256 projectid, uint256 serviceid, uint256 milestoneid, uint8 vote) public {... */\n    tag_20:\n        /* \"contracts/Conflict.sol\":2183:2193  msg.sender */\n      caller\n        /* \"contracts/Conflict.sol\":2118:2193  conflicts[projectid][serviceid][milestoneid].serviceRequester != msg.sender */\n      0xffffffffffffffffffffffffffffffffffffffff\n      and\n        /* \"contracts/Conflict.sol\":2118:2127  conflicts */\n      0x00\n        /* \"contracts/Conflict.sol\":2118:2138  conflicts[projectid] */\n      dup1\n        /* \"contracts/Conflict.sol\":2128:2137  projectid */\n      dup7\n        /* \"contracts/Conflict.sol\":2118:2138  conflicts[projectid] */\n      dup2\n      mstore\n      0x20\n      add\n      swap1\n      dup2\n      mstore\n      0x20\n      add\n      0x00\n      keccak256\n        /* \"contracts/Conflict.sol\":2118:2149  conflicts[projectid][serviceid] */\n      0x00\n        /* \"contracts/Conflict.sol\":2139:2148  serviceid */\n      dup6\n        /* \"contracts/Conflict.sol\":2118:2149  conflicts[projectid][serviceid] */\n      dup2\n      mstore\n      0x20\n      add\n      swap1\n      dup2\n      mstore\n      0x20\n      add\n      0x00\n      keccak256\n        /* \"contracts/Conflict.sol\":2118:2162  conflicts[projectid][serviceid][milestoneid] */\n      0x00\n        /* \"contracts/Conflict.sol\":2150:2161  milestoneid */\n      dup5\n        /* \"contracts/Conflict.sol\":2118:2162  conflicts[projectid][serviceid][milestoneid] */\n      dup2\n      mstore\n      0x20\n      add\n      swap1\n      dup2\n      mstore\n      0x20\n      add\n      0x00\n      keccak256\n        /* \"contracts/Conflict.sol\":2118:2179  conflicts[projectid][serviceid][milestoneid].serviceRequester */\n      0x00\n      add\n      0x00\n      swap1\n      sload\n      swap1\n      0x0100\n      exp\n      swap1\n      div\n      0xffffffffffffffffffffffffffffffffffffffff\n      and\n        /* \"contracts/Conflict.sol\":2118:2193  conflicts[projectid][serviceid][milestoneid].serviceRequester != msg.sender */\n      0xffffffffffffffffffffffffffffffffffffffff\n      and\n      eq\n      iszero\n        /* \"contracts/Conflict.sol\":2110:2247  require(conflicts[projectid][serviceid][milestoneid].serviceRequester != msg.sender , \"You raised this conflict. You cannot vote on it.\") */\n      tag_55\n      jumpi\n      mload(0x40)\n      0x08c379a000000000000000000000000000000000000000000000000000000000\n      dup2\n      mstore\n      0x04\n      add\n      tag_56\n      swap1\n      tag_57\n      jump\t// in\n    tag_56:\n      mload(0x40)\n      dup1\n      swap2\n      sub\n      swap1\n      revert\n    tag_55:\n        /* \"contracts/Conflict.sol\":2329:2339  msg.sender */\n      caller\n        /* \"contracts/Conflict.sol\":2265:2339  conflicts[projectid][serviceid][milestoneid].serviceProvider != msg.sender */\n      0xffffffffffffffffffffffffffffffffffffffff\n      and\n        /* \"contracts/Conflict.sol\":2265:2274  conflicts */\n      0x00\n        /* \"contracts/Conflict.sol\":2265:2285  conflicts[projectid] */\n      dup1\n        /* \"contracts/Conflict.sol\":2275:2284  projectid */\n      dup7\n        /* \"contracts/Conflict.sol\":2265:2285  conflicts[projectid] */\n      dup2\n      mstore\n      0x20\n      add\n      swap1\n      dup2\n      mstore\n      0x20\n      add\n      0x00\n      keccak256\n        /* \"contracts/Conflict.sol\":2265:2296  conflicts[projectid][serviceid] */\n      0x00\n        /* \"contracts/Conflict.sol\":2286:2295  serviceid */\n      dup6\n        /* \"contracts/Conflict.sol\":2265:2296  conflicts[projectid][serviceid] */\n      dup2\n      mstore\n      0x20\n      add\n      swap1\n      dup2\n      mstore\n      0x20\n      add\n      0x00\n      keccak256\n        /* \"contracts/Conflict.sol\":2265:2309  conflicts[projectid][serviceid][milestoneid] */\n      0x00\n        /* \"contracts/Conflict.sol\":2297:2308  milestoneid */\n      dup5\n        /* \"contracts/Conflict.sol\":2265:2309  conflicts[projectid][serviceid][milestoneid] */\n      dup2\n      mstore\n      0x20\n      add\n      swap1\n      dup2\n      mstore\n      0x20\n      add\n      0x00\n      keccak256\n        /* \"contracts/Conflict.sol\":2265:2325  conflicts[projectid][serviceid][milestoneid].serviceProvider */\n      0x01\n      add\n      0x00\n      swap1\n      sload\n      swap1\n      0x0100\n      exp\n      swap1\n      div\n      0xffffffffffffffffffffffffffffffffffffffff\n      and\n        /* \"contracts/Conflict.sol\":2265:2339  conflicts[projectid][serviceid][milestoneid].serviceProvider != msg.sender */\n      0xffffffffffffffffffffffffffffffffffffffff\n      and\n      eq\n      iszero\n        /* \"contracts/Conflict.sol\":2257:2401  require(conflicts[projectid][serviceid][milestoneid].serviceProvider != msg.sender, \"You are involved in this conflict. You cannot vote on it.\") */\n      tag_58\n      jumpi\n      mload(0x40)\n      0x08c379a000000000000000000000000000000000000000000000000000000000\n      dup2\n      mstore\n      0x04\n      add\n      tag_59\n      swap1\n      tag_60\n      jump\t// in\n    tag_59:\n      mload(0x40)\n      dup1\n      swap2\n      sub\n      swap1\n      revert\n    tag_58:\n        /* \"contracts/Conflict.sol\":2490:2499  conflicts */\n      0x00\n        /* \"contracts/Conflict.sol\":2490:2510  conflicts[projectid] */\n      dup1\n        /* \"contracts/Conflict.sol\":2500:2509  projectid */\n      dup6\n        /* \"contracts/Conflict.sol\":2490:2510  conflicts[projectid] */\n      dup2\n      mstore\n      0x20\n      add\n      swap1\n      dup2\n      mstore\n      0x20\n      add\n      0x00\n      keccak256\n        /* \"contracts/Conflict.sol\":2490:2521  conflicts[projectid][serviceid] */\n      0x00\n        /* \"contracts/Conflict.sol\":2511:2520  serviceid */\n      dup5\n        /* \"contracts/Conflict.sol\":2490:2521  conflicts[projectid][serviceid] */\n      dup2\n      mstore\n      0x20\n      add\n      swap1\n      dup2\n      mstore\n      0x20\n      add\n      0x00\n      keccak256\n        /* \"contracts/Conflict.sol\":2490:2534  conflicts[projectid][serviceid][milestoneid] */\n      0x00\n        /* \"contracts/Conflict.sol\":2522:2533  milestoneid */\n      dup4\n        /* \"contracts/Conflict.sol\":2490:2534  conflicts[projectid][serviceid][milestoneid] */\n      dup2\n      mstore\n      0x20\n      add\n      swap1\n      dup2\n      mstore\n      0x20\n      add\n      0x00\n      keccak256\n        /* \"contracts/Conflict.sol\":2490:2545  conflicts[projectid][serviceid][milestoneid].votestotal */\n      0x06\n      add\n      sload\n        /* \"contracts/Conflict.sol\":2428:2437  conflicts */\n      0x00\n        /* \"contracts/Conflict.sol\":2428:2448  conflicts[projectid] */\n      dup1\n        /* \"contracts/Conflict.sol\":2438:2447  projectid */\n      dup7\n        /* \"contracts/Conflict.sol\":2428:2448  conflicts[projectid] */\n      dup2\n      mstore\n      0x20\n      add\n      swap1\n      dup2\n      mstore\n      0x20\n      add\n      0x00\n      keccak256\n        /* \"contracts/Conflict.sol\":2428:2459  conflicts[projectid][serviceid] */\n      0x00\n        /* \"contracts/Conflict.sol\":2449:2458  serviceid */\n      dup6\n        /* \"contracts/Conflict.sol\":2428:2459  conflicts[projectid][serviceid] */\n      dup2\n      mstore\n      0x20\n      add\n      swap1\n      dup2\n      mstore\n      0x20\n      add\n      0x00\n      keccak256\n        /* \"contracts/Conflict.sol\":2428:2472  conflicts[projectid][serviceid][milestoneid] */\n      0x00\n        /* \"contracts/Conflict.sol\":2460:2471  milestoneid */\n      dup5\n        /* \"contracts/Conflict.sol\":2428:2472  conflicts[projectid][serviceid][milestoneid] */\n      dup2\n      mstore\n      0x20\n      add\n      swap1\n      dup2\n      mstore\n      0x20\n      add\n      0x00\n      keccak256\n        /* \"contracts/Conflict.sol\":2428:2487  conflicts[projectid][serviceid][milestoneid].votescollected */\n      0x07\n      add\n      sload\n        /* \"contracts/Conflict.sol\":2428:2545  conflicts[projectid][serviceid][milestoneid].votescollected < conflicts[projectid][serviceid][milestoneid].votestotal */\n      lt\n        /* \"contracts/Conflict.sol\":2420:2582  require(conflicts[projectid][serviceid][milestoneid].votescollected < conflicts[projectid][serviceid][milestoneid].votestotal, \"Enough votes have been collected\") */\n      tag_61\n      jumpi\n      mload(0x40)\n      0x08c379a000000000000000000000000000000000000000000000000000000000\n      dup2\n      mstore\n      0x04\n      add\n      tag_62\n      swap1\n      tag_63\n      jump\t// in\n    tag_62:\n      mload(0x40)\n      dup1\n      swap2\n      sub\n      swap1\n      revert\n    tag_61:\n        /* \"contracts/Conflict.sol\":2666:2667  0 */\n      0x00\n        /* \"contracts/Conflict.sol\":2600:2609  conflicts */\n      dup1\n        /* \"contracts/Conflict.sol\":2600:2620  conflicts[projectid] */\n      0x00\n        /* \"contracts/Conflict.sol\":2610:2619  projectid */\n      dup7\n        /* \"contracts/Conflict.sol\":2600:2620  conflicts[projectid] */\n      dup2\n      mstore\n      0x20\n      add\n      swap1\n      dup2\n      mstore\n      0x20\n      add\n      0x00\n      keccak256\n        /* \"contracts/Conflict.sol\":2600:2631  conflicts[projectid][serviceid] */\n      0x00\n        /* \"contracts/Conflict.sol\":2621:2630  serviceid */\n      dup6\n        /* \"contracts/Conflict.sol\":2600:2631  conflicts[projectid][serviceid] */\n      dup2\n      mstore\n      0x20\n      add\n      swap1\n      dup2\n      mstore\n      0x20\n      add\n      0x00\n      keccak256\n        /* \"contracts/Conflict.sol\":2600:2644  conflicts[projectid][serviceid][milestoneid] */\n      0x00\n        /* \"contracts/Conflict.sol\":2632:2643  milestoneid */\n      dup5\n        /* \"contracts/Conflict.sol\":2600:2644  conflicts[projectid][serviceid][milestoneid] */\n      dup2\n      mstore\n      0x20\n      add\n      swap1\n      dup2\n      mstore\n      0x20\n      add\n      0x00\n      keccak256\n        /* \"contracts/Conflict.sol\":2600:2650  conflicts[projectid][serviceid][milestoneid].votes */\n      0x0b\n      add\n        /* \"contracts/Conflict.sol\":2600:2662  conflicts[projectid][serviceid][milestoneid].votes[msg.sender] */\n      0x00\n        /* \"contracts/Conflict.sol\":2651:2661  msg.sender */\n      caller\n        /* \"contracts/Conflict.sol\":2600:2662  conflicts[projectid][serviceid][milestoneid].votes[msg.sender] */\n      0xffffffffffffffffffffffffffffffffffffffff\n      and\n      0xffffffffffffffffffffffffffffffffffffffff\n      and\n      dup2\n      mstore\n      0x20\n      add\n      swap1\n      dup2\n      mstore\n      0x20\n      add\n      0x00\n      keccak256\n      0x00\n      swap1\n      sload\n      swap1\n      0x0100\n      exp\n      swap1\n      div\n      0xff\n      and\n        /* \"contracts/Conflict.sol\":2600:2667  conflicts[projectid][serviceid][milestoneid].votes[msg.sender] == 0 */\n      0xff\n      and\n      eq\n        /* \"contracts/Conflict.sol\":2592:2718  require(conflicts[projectid][serviceid][milestoneid].votes[msg.sender] == 0 , \"You have already voted, you cannot vote again\") */\n      tag_64\n      jumpi\n      mload(0x40)\n      0x08c379a000000000000000000000000000000000000000000000000000000000\n      dup2\n      mstore\n      0x04\n      add\n      tag_65\n      swap1\n      tag_66\n      jump\t// in\n    tag_65:\n      mload(0x40)\n      dup1\n      swap2\n      sub\n      swap1\n      revert\n    tag_64:\n        /* \"contracts/Conflict.sol\":2744:2745  1 */\n      0x01\n        /* \"contracts/Conflict.sol\":2736:2740  vote */\n      dup2\n        /* \"contracts/Conflict.sol\":2736:2745  vote == 1 */\n      0xff\n      and\n      eq\n        /* \"contracts/Conflict.sol\":2736:2758  vote == 1 || vote == 2 */\n      dup1\n      tag_67\n      jumpi\n      pop\n        /* \"contracts/Conflict.sol\":2757:2758  2 */\n      0x02\n        /* \"contracts/Conflict.sol\":2749:2753  vote */\n      dup2\n        /* \"contracts/Conflict.sol\":2749:2758  vote == 2 */\n      0xff\n      and\n      eq\n        /* \"contracts/Conflict.sol\":2736:2758  vote == 1 || vote == 2 */\n    tag_67:\n        /* \"contracts/Conflict.sol\":2728:2850  require(vote == 1 || vote == 2, \"You have not input a right vote. You can either vote 1 for Requester or 2 for Provider.\") */\n      tag_68\n      jumpi\n      mload(0x40)\n      0x08c379a000000000000000000000000000000000000000000000000000000000\n      dup2\n      mstore\n      0x04\n      add\n      tag_69\n      swap1\n      tag_70\n      jump\t// in\n    tag_69:\n      mload(0x40)\n      dup1\n      swap2\n      sub\n      swap1\n      revert\n    tag_68:\n        /* \"contracts/Conflict.sol\":2861:2879  conflict storage C */\n      0x00\n        /* \"contracts/Conflict.sol\":2882:2891  conflicts */\n      dup1\n        /* \"contracts/Conflict.sol\":2882:2902  conflicts[projectid] */\n      0x00\n        /* \"contracts/Conflict.sol\":2892:2901  projectid */\n      dup7\n        /* \"contracts/Conflict.sol\":2882:2902  conflicts[projectid] */\n      dup2\n      mstore\n      0x20\n      add\n      swap1\n      dup2\n      mstore\n      0x20\n      add\n      0x00\n      keccak256\n        /* \"contracts/Conflict.sol\":2882:2913  conflicts[projectid][serviceid] */\n      0x00\n        /* \"contracts/Conflict.sol\":2903:2912  serviceid */\n      dup6\n        /* \"contracts/Conflict.sol\":2882:2913  conflicts[projectid][serviceid] */\n      dup2\n      mstore\n      0x20\n      add\n      swap1\n      dup2\n      mstore\n      0x20\n      add\n      0x00\n      keccak256\n        /* \"contracts/Conflict.sol\":2882:2926  conflicts[projectid][serviceid][milestoneid] */\n      0x00\n        /* \"contracts/Conflict.sol\":2914:2925  milestoneid */\n      dup5\n        /* \"contracts/Conflict.sol\":2882:2926  conflicts[projectid][serviceid][milestoneid] */\n      dup2\n      mstore\n      0x20\n      add\n      swap1\n      dup2\n      mstore\n      0x20\n      add\n      0x00\n      keccak256\n        /* \"contracts/Conflict.sol\":2861:2926  conflict storage C = conflicts[projectid][serviceid][milestoneid] */\n      swap1\n      pop\n        /* \"contracts/Conflict.sol\":2958:2962  vote */\n      dup2\n        /* \"contracts/Conflict.sol\":2936:2937  C */\n      dup2\n        /* \"contracts/Conflict.sol\":2936:2943  C.votes */\n      0x0b\n      add\n        /* \"contracts/Conflict.sol\":2936:2955  C.votes[msg.sender] */\n      0x00\n        /* \"contracts/Conflict.sol\":2944:2954  msg.sender */\n      caller\n        /* \"contracts/Conflict.sol\":2936:2955  C.votes[msg.sender] */\n      0xffffffffffffffffffffffffffffffffffffffff\n      and\n      0xffffffffffffffffffffffffffffffffffffffff\n      and\n      dup2\n      mstore\n      0x20\n      add\n      swap1\n      dup2\n      mstore\n      0x20\n      add\n      0x00\n      keccak256\n      0x00\n        /* \"contracts/Conflict.sol\":2936:2962  C.votes[msg.sender] = vote */\n      0x0100\n      exp\n      dup2\n      sload\n      dup2\n      0xff\n      mul\n      not\n      and\n      swap1\n      dup4\n      0xff\n      and\n      mul\n      or\n      swap1\n      sstore\n      pop\n        /* \"contracts/Conflict.sol\":2985:2986  1 */\n      0x01\n        /* \"contracts/Conflict.sol\":2977:2981  vote */\n      dup3\n        /* \"contracts/Conflict.sol\":2977:2986  vote == 1 */\n      0xff\n      and\n      eq\n        /* \"contracts/Conflict.sol\":2973:3014  if (vote == 1) { C.votesforRequester++; } */\n      iszero\n      tag_71\n      jumpi\n        /* \"contracts/Conflict.sol\":2990:2991  C */\n      dup1\n        /* \"contracts/Conflict.sol\":2990:3009  C.votesforRequester */\n      0x08\n      add\n      0x00\n        /* \"contracts/Conflict.sol\":2990:3011  C.votesforRequester++ */\n      dup2\n      sload\n      dup1\n      swap3\n      swap2\n      swap1\n      tag_72\n      swap1\n      tag_73\n      jump\t// in\n    tag_72:\n      swap2\n      swap1\n      pop\n      sstore\n      pop\n        /* \"contracts/Conflict.sol\":2973:3014  if (vote == 1) { C.votesforRequester++; } */\n    tag_71:\n        /* \"contracts/Conflict.sol\":3035:3036  2 */\n      0x02\n        /* \"contracts/Conflict.sol\":3027:3031  vote */\n      dup3\n        /* \"contracts/Conflict.sol\":3027:3036  vote == 2 */\n      0xff\n      and\n      eq\n        /* \"contracts/Conflict.sol\":3023:3063  if (vote == 2) { C.votesforProvider++; } */\n      iszero\n      tag_74\n      jumpi\n        /* \"contracts/Conflict.sol\":3040:3041  C */\n      dup1\n        /* \"contracts/Conflict.sol\":3040:3058  C.votesforProvider */\n      0x09\n      add\n      0x00\n        /* \"contracts/Conflict.sol\":3040:3060  C.votesforProvider++ */\n      dup2\n      sload\n      dup1\n      swap3\n      swap2\n      swap1\n      tag_75\n      swap1\n      tag_73\n      jump\t// in\n    tag_75:\n      swap2\n      swap1\n      pop\n      sstore\n      pop\n        /* \"contracts/Conflict.sol\":3023:3063  if (vote == 2) { C.votesforProvider++; } */\n    tag_74:\n        /* \"contracts/Conflict.sol\":3072:3073  C */\n      dup1\n        /* \"contracts/Conflict.sol\":3072:3088  C.votescollected */\n      0x07\n      add\n      0x00\n        /* \"contracts/Conflict.sol\":3072:3090  C.votescollected++ */\n      dup2\n      sload\n      dup1\n      swap3\n      swap2\n      swap1\n      tag_76\n      swap1\n      tag_73\n      jump\t// in\n    tag_76:\n      swap2\n      swap1\n      pop\n      sstore\n      pop\n        /* \"contracts/Conflict.sol\":3106:3172  conflictVoted(projectid, serviceid, milestoneid, msg.sender, vote) */\n      0x20211b974adbe11ce3687d51504ce7ef1fcfbb9c00405ba7aca7b283903f345a\n        /* \"contracts/Conflict.sol\":3120:3129  projectid */\n      dup6\n        /* \"contracts/Conflict.sol\":3131:3140  serviceid */\n      dup6\n        /* \"contracts/Conflict.sol\":3142:3153  milestoneid */\n      dup6\n        /* \"contracts/Conflict.sol\":3155:3165  msg.sender */\n      caller\n        /* \"contracts/Conflict.sol\":3167:3171  vote */\n      dup7\n        /* \"contracts/Conflict.sol\":3106:3172  conflictVoted(projectid, serviceid, milestoneid, msg.sender, vote) */\n      mload(0x40)\n      tag_77\n      swap6\n      swap5\n      swap4\n      swap3\n      swap2\n      swap1\n      tag_78\n      jump\t// in\n    tag_77:\n      mload(0x40)\n      dup1\n      swap2\n      sub\n      swap1\n      log1\n        /* \"contracts/Conflict.sol\":3207:3208  C */\n      dup1\n        /* \"contracts/Conflict.sol\":3207:3219  C.votestotal */\n      0x06\n      add\n      sload\n        /* \"contracts/Conflict.sol\":3187:3188  C */\n      dup2\n        /* \"contracts/Conflict.sol\":3187:3203  C.votescollected */\n      0x07\n      add\n      sload\n        /* \"contracts/Conflict.sol\":3187:3219  C.votescollected == C.votestotal */\n      eq\n        /* \"contracts/Conflict.sol\":3183:3536  if (C.votescollected == C.votestotal) {... */\n      iszero\n      tag_79\n      jumpi\n        /* \"contracts/Conflict.sol\":3260:3261  C */\n      dup1\n        /* \"contracts/Conflict.sol\":3260:3279  C.votesforRequester */\n      0x08\n      add\n      sload\n        /* \"contracts/Conflict.sol\":3239:3240  C */\n      dup2\n        /* \"contracts/Conflict.sol\":3239:3257  C.votesforProvider */\n      0x09\n      add\n      sload\n        /* \"contracts/Conflict.sol\":3239:3279  C.votesforProvider > C.votesforRequester */\n      gt\n        /* \"contracts/Conflict.sol\":3235:3330  if (C.votesforProvider > C.votesforRequester) {C.result = 2; }... */\n      iszero\n      tag_80\n      jumpi\n        /* \"contracts/Conflict.sol\":3293:3294  2 */\n      0x02\n        /* \"contracts/Conflict.sol\":3282:3283  C */\n      dup2\n        /* \"contracts/Conflict.sol\":3282:3290  C.result */\n      0x0a\n      add\n      0x01\n        /* \"contracts/Conflict.sol\":3282:3294  C.result = 2 */\n      0x0100\n      exp\n      dup2\n      sload\n      dup2\n      0xff\n      mul\n      not\n      and\n      swap1\n      dup4\n      0xff\n      and\n      mul\n      or\n      swap1\n      sstore\n      pop\n        /* \"contracts/Conflict.sol\":3235:3330  if (C.votesforProvider > C.votesforRequester) {C.result = 2; }... */\n      jump(tag_81)\n    tag_80:\n        /* \"contracts/Conflict.sol\":3327:3328  1 */\n      0x01\n        /* \"contracts/Conflict.sol\":3316:3317  C */\n      dup2\n        /* \"contracts/Conflict.sol\":3316:3324  C.result */\n      0x0a\n      add\n      0x01\n        /* \"contracts/Conflict.sol\":3316:3328  C.result = 1 */\n      0x0100\n      exp\n      dup2\n      sload\n      dup2\n      0xff\n      mul\n      not\n      and\n      swap1\n      dup4\n      0xff\n      and\n      mul\n      or\n      swap1\n      sstore\n      pop\n        /* \"contracts/Conflict.sol\":3235:3330  if (C.votesforProvider > C.votesforRequester) {C.result = 2; }... */\n    tag_81:\n        /* \"contracts/Conflict.sol\":3422:3446  ConflictStatus.completed */\n      0x02\n        /* \"contracts/Conflict.sol\":3403:3404  C */\n      dup2\n        /* \"contracts/Conflict.sol\":3403:3419  C.conflictstatus */\n      0x05\n      add\n      0x00\n        /* \"contracts/Conflict.sol\":3403:3446  C.conflictstatus = ConflictStatus.completed */\n      0x0100\n      exp\n      dup2\n      sload\n      dup2\n      0xff\n      mul\n      not\n      and\n      swap1\n      dup4\n      0x02\n      dup2\n      gt\n      iszero\n      tag_82\n      jumpi\n      tag_83\n      tag_48\n      jump\t// in\n    tag_83:\n    tag_82:\n      mul\n      or\n      swap1\n      sstore\n      pop\n        /* \"contracts/Conflict.sol\":3466:3525  conflictResult(projectid, serviceid, milestoneid, C.result) */\n      0xe59fdbc65a5dd63c529717c2a71d04b136038f05301755de242dd05990c02814\n        /* \"contracts/Conflict.sol\":3481:3490  projectid */\n      dup6\n        /* \"contracts/Conflict.sol\":3492:3501  serviceid */\n      dup6\n        /* \"contracts/Conflict.sol\":3503:3514  milestoneid */\n      dup6\n        /* \"contracts/Conflict.sol\":3516:3517  C */\n      dup5\n        /* \"contracts/Conflict.sol\":3516:3524  C.result */\n      0x0a\n      add\n      0x01\n      swap1\n      sload\n      swap1\n      0x0100\n      exp\n      swap1\n      div\n      0xff\n      and\n        /* \"contracts/Conflict.sol\":3466:3525  conflictResult(projectid, serviceid, milestoneid, C.result) */\n      mload(0x40)\n      tag_84\n      swap5\n      swap4\n      swap3\n      swap2\n      swap1\n      tag_85\n      jump\t// in\n    tag_84:\n      mload(0x40)\n      dup1\n      swap2\n      sub\n      swap1\n      log1\n        /* \"contracts/Conflict.sol\":3183:3536  if (C.votescollected == C.votestotal) {... */\n    tag_79:\n        /* \"contracts/Conflict.sol\":2100:3542  {... */\n      pop\n        /* \"contracts/Conflict.sol\":2000:3542  function voteConflict(uint256 projectid, uint256 serviceid, uint256 milestoneid, uint8 vote) public {... */\n      pop\n      pop\n      pop\n      pop\n      jump\t// out\n        /* \"contracts/Conflict.sol\":4366:4565  function getVotesCollected(uint256 projectid, uint256 serviceid, uint256 milestoneid) public view returns (uint256) {... */\n    tag_23:\n        /* \"contracts/Conflict.sol\":4473:4480  uint256 */\n      0x00\n        /* \"contracts/Conflict.sol\":4499:4508  conflicts */\n      dup1\n        /* \"contracts/Conflict.sol\":4499:4519  conflicts[projectid] */\n      0x00\n        /* \"contracts/Conflict.sol\":4509:4518  projectid */\n      dup6\n        /* \"contracts/Conflict.sol\":4499:4519  conflicts[projectid] */\n      dup2\n      mstore\n      0x20\n      add\n      swap1\n      dup2\n      mstore\n      0x20\n      add\n      0x00\n      keccak256\n        /* \"contracts/Conflict.sol\":4499:4530  conflicts[projectid][serviceid] */\n      0x00\n        /* \"contracts/Conflict.sol\":4520:4529  serviceid */\n      dup5\n        /* \"contracts/Conflict.sol\":4499:4530  conflicts[projectid][serviceid] */\n      dup2\n      mstore\n      0x20\n      add\n      swap1\n      dup2\n      mstore\n      0x20\n      add\n      0x00\n      keccak256\n        /* \"contracts/Conflict.sol\":4499:4543  conflicts[projectid][serviceid][milestoneid] */\n      0x00\n        /* \"contracts/Conflict.sol\":4531:4542  milestoneid */\n      dup4\n        /* \"contracts/Conflict.sol\":4499:4543  conflicts[projectid][serviceid][milestoneid] */\n      dup2\n      mstore\n      0x20\n      add\n      swap1\n      dup2\n      mstore\n      0x20\n      add\n      0x00\n      keccak256\n        /* \"contracts/Conflict.sol\":4499:4558  conflicts[projectid][serviceid][milestoneid].votescollected */\n      0x07\n      add\n      sload\n        /* \"contracts/Conflict.sol\":4492:4558  return conflicts[projectid][serviceid][milestoneid].votescollected */\n      swap1\n      pop\n        /* \"contracts/Conflict.sol\":4366:4565  function getVotesCollected(uint256 projectid, uint256 serviceid, uint256 milestoneid) public view returns (uint256) {... */\n      swap4\n      swap3\n      pop\n      pop\n      pop\n      jump\t// out\n        /* \"contracts/Conflict.sol\":4782:4985  function getVotesforProvider(uint256 projectid, uint256 serviceid, uint256 milestoneid) public view returns (uint256) {... */\n    tag_27:\n        /* \"contracts/Conflict.sol\":4891:4898  uint256 */\n      0x00\n        /* \"contracts/Conflict.sol\":4917:4926  conflicts */\n      dup1\n        /* \"contracts/Conflict.sol\":4917:4937  conflicts[projectid] */\n      0x00\n        /* \"contracts/Conflict.sol\":4927:4936  projectid */\n      dup6\n        /* \"contracts/Conflict.sol\":4917:4937  conflicts[projectid] */\n      dup2\n      mstore\n      0x20\n      add\n      swap1\n      dup2\n      mstore\n      0x20\n      add\n      0x00\n      keccak256\n        /* \"contracts/Conflict.sol\":4917:4948  conflicts[projectid][serviceid] */\n      0x00\n        /* \"contracts/Conflict.sol\":4938:4947  serviceid */\n      dup5\n        /* \"contracts/Conflict.sol\":4917:4948  conflicts[projectid][serviceid] */\n      dup2\n      mstore\n      0x20\n      add\n      swap1\n      dup2\n      mstore\n      0x20\n      add\n      0x00\n      keccak256\n        /* \"contracts/Conflict.sol\":4917:4961  conflicts[projectid][serviceid][milestoneid] */\n      0x00\n        /* \"contracts/Conflict.sol\":4949:4960  milestoneid */\n      dup4\n        /* \"contracts/Conflict.sol\":4917:4961  conflicts[projectid][serviceid][milestoneid] */\n      dup2\n      mstore\n      0x20\n      add\n      swap1\n      dup2\n      mstore\n      0x20\n      add\n      0x00\n      keccak256\n        /* \"contracts/Conflict.sol\":4917:4978  conflicts[projectid][serviceid][milestoneid].votesforProvider */\n      0x09\n      add\n      sload\n        /* \"contracts/Conflict.sol\":4910:4978  return conflicts[projectid][serviceid][milestoneid].votesforProvider */\n      swap1\n      pop\n        /* \"contracts/Conflict.sol\":4782:4985  function getVotesforProvider(uint256 projectid, uint256 serviceid, uint256 milestoneid) public view returns (uint256) {... */\n      swap4\n      swap3\n      pop\n      pop\n      pop\n      jump\t// out\n        /* \"contracts/Conflict.sol\":4154:4360  function getConflictStatus(uint256 projectid, uint256 serviceid, uint256 milestoneid) public view returns (ConflictStatus) {... */\n    tag_31:\n        /* \"contracts/Conflict.sol\":4261:4275  ConflictStatus */\n      0x00\n        /* \"contracts/Conflict.sol\":4294:4303  conflicts */\n      dup1\n        /* \"contracts/Conflict.sol\":4294:4314  conflicts[projectid] */\n      0x00\n        /* \"contracts/Conflict.sol\":4304:4313  projectid */\n      dup6\n        /* \"contracts/Conflict.sol\":4294:4314  conflicts[projectid] */\n      dup2\n      mstore\n      0x20\n      add\n      swap1\n      dup2\n      mstore\n      0x20\n      add\n      0x00\n      keccak256\n        /* \"contracts/Conflict.sol\":4294:4325  conflicts[projectid][serviceid] */\n      0x00\n        /* \"contracts/Conflict.sol\":4315:4324  serviceid */\n      dup5\n        /* \"contracts/Conflict.sol\":4294:4325  conflicts[projectid][serviceid] */\n      dup2\n      mstore\n      0x20\n      add\n      swap1\n      dup2\n      mstore\n      0x20\n      add\n      0x00\n      keccak256\n        /* \"contracts/Conflict.sol\":4294:4338  conflicts[projectid][serviceid][milestoneid] */\n      0x00\n        /* \"contracts/Conflict.sol\":4326:4337  milestoneid */\n      dup4\n        /* \"contracts/Conflict.sol\":4294:4338  conflicts[projectid][serviceid][milestoneid] */\n      dup2\n      mstore\n      0x20\n      add\n      swap1\n      dup2\n      mstore\n      0x20\n      add\n      0x00\n      keccak256\n        /* \"contracts/Conflict.sol\":4294:4353  conflicts[projectid][serviceid][milestoneid].conflictstatus */\n      0x05\n      add\n      0x00\n      swap1\n      sload\n      swap1\n      0x0100\n      exp\n      swap1\n      div\n      0xff\n      and\n        /* \"contracts/Conflict.sol\":4287:4353  return conflicts[projectid][serviceid][milestoneid].conflictstatus */\n      swap1\n      pop\n        /* \"contracts/Conflict.sol\":4154:4360  function getConflictStatus(uint256 projectid, uint256 serviceid, uint256 milestoneid) public view returns (ConflictStatus) {... */\n      swap4\n      swap3\n      pop\n      pop\n      pop\n      jump\t// out\n        /* \"contracts/Conflict.sol\":4571:4776  function getVotesforRequester(uint256 projectid, uint256 serviceid, uint256 milestoneid) public view returns (uint256) {... */\n    tag_36:\n        /* \"contracts/Conflict.sol\":4681:4688  uint256 */\n      0x00\n        /* \"contracts/Conflict.sol\":4707:4716  conflicts */\n      dup1\n        /* \"contracts/Conflict.sol\":4707:4727  conflicts[projectid] */\n      0x00\n        /* \"contracts/Conflict.sol\":4717:4726  projectid */\n      dup6\n        /* \"contracts/Conflict.sol\":4707:4727  conflicts[projectid] */\n      dup2\n      mstore\n      0x20\n      add\n      swap1\n      dup2\n      mstore\n      0x20\n      add\n      0x00\n      keccak256\n        /* \"contracts/Conflict.sol\":4707:4738  conflicts[projectid][serviceid] */\n      0x00\n        /* \"contracts/Conflict.sol\":4728:4737  serviceid */\n      dup5\n        /* \"contracts/Conflict.sol\":4707:4738  conflicts[projectid][serviceid] */\n      dup2\n      mstore\n      0x20\n      add\n      swap1\n      dup2\n      mstore\n      0x20\n      add\n      0x00\n      keccak256\n        /* \"contracts/Conflict.sol\":4707:4751  conflicts[projectid][serviceid][milestoneid] */\n      0x00\n        /* \"contracts/Conflict.sol\":4739:4750  milestoneid */\n      dup4\n        /* \"contracts/Conflict.sol\":4707:4751  conflicts[projectid][serviceid][milestoneid] */\n      dup2\n      mstore\n      0x20\n      add\n      swap1\n      dup2\n      mstore\n      0x20\n      add\n      0x00\n      keccak256\n        /* \"contracts/Conflict.sol\":4707:4769  conflicts[projectid][serviceid][milestoneid].votesforRequester */\n      0x08\n      add\n      sload\n        /* \"contracts/Conflict.sol\":4700:4769  return conflicts[projectid][serviceid][milestoneid].votesforRequester */\n      swap1\n      pop\n        /* \"contracts/Conflict.sol\":4571:4776  function getVotesforRequester(uint256 projectid, uint256 serviceid, uint256 milestoneid) public view returns (uint256) {... */\n      swap4\n      swap3\n      pop\n      pop\n      pop\n      jump\t// out\n        /* \"contracts/Conflict.sol\":1118:1994  function createConflict(uint256 projectid, uint256 serviceid, uint256 milestoneid, address serviceProvider,  uint256 tot_voters) public {... */\n    tag_41:\n        /* \"contracts/Conflict.sol\":1327:1331  true */\n      0x01\n        /* \"contracts/Conflict.sol\":1272:1331  conflicts[projectid][serviceid][milestoneid].exists != true */\n      iszero\n      iszero\n        /* \"contracts/Conflict.sol\":1272:1281  conflicts */\n      0x00\n        /* \"contracts/Conflict.sol\":1272:1292  conflicts[projectid] */\n      dup1\n        /* \"contracts/Conflict.sol\":1282:1291  projectid */\n      dup8\n        /* \"contracts/Conflict.sol\":1272:1292  conflicts[projectid] */\n      dup2\n      mstore\n      0x20\n      add\n      swap1\n      dup2\n      mstore\n      0x20\n      add\n      0x00\n      keccak256\n        /* \"contracts/Conflict.sol\":1272:1303  conflicts[projectid][serviceid] */\n      0x00\n        /* \"contracts/Conflict.sol\":1293:1302  serviceid */\n      dup7\n        /* \"contracts/Conflict.sol\":1272:1303  conflicts[projectid][serviceid] */\n      dup2\n      mstore\n      0x20\n      add\n      swap1\n      dup2\n      mstore\n      0x20\n      add\n      0x00\n      keccak256\n        /* \"contracts/Conflict.sol\":1272:1316  conflicts[projectid][serviceid][milestoneid] */\n      0x00\n        /* \"contracts/Conflict.sol\":1304:1315  milestoneid */\n      dup6\n        /* \"contracts/Conflict.sol\":1272:1316  conflicts[projectid][serviceid][milestoneid] */\n      dup2\n      mstore\n      0x20\n      add\n      swap1\n      dup2\n      mstore\n      0x20\n      add\n      0x00\n      keccak256\n        /* \"contracts/Conflict.sol\":1272:1323  conflicts[projectid][serviceid][milestoneid].exists */\n      0x0a\n      add\n      0x00\n      swap1\n      sload\n      swap1\n      0x0100\n      exp\n      swap1\n      div\n      0xff\n      and\n        /* \"contracts/Conflict.sol\":1272:1331  conflicts[projectid][serviceid][milestoneid].exists != true */\n      iszero\n      iszero\n      eq\n      iszero\n        /* \"contracts/Conflict.sol\":1264:1414  require(conflicts[projectid][serviceid][milestoneid].exists != true , \"Conflict has already been created. Please do not create more than 1 conflict.\") */\n      tag_91\n      jumpi\n      mload(0x40)\n      0x08c379a000000000000000000000000000000000000000000000000000000000\n      dup2\n      mstore\n      0x04\n      add\n      tag_92\n      swap1\n      tag_93\n      jump\t// in\n    tag_92:\n      mload(0x40)\n      dup1\n      swap2\n      sub\n      swap1\n      revert\n    tag_91:\n        /* \"contracts/Conflict.sol\":1450:1478  conflict storage newConflict */\n      0x00\n        /* \"contracts/Conflict.sol\":1481:1490  conflicts */\n      dup1\n        /* \"contracts/Conflict.sol\":1481:1501  conflicts[projectid] */\n      0x00\n        /* \"contracts/Conflict.sol\":1491:1500  projectid */\n      dup8\n        /* \"contracts/Conflict.sol\":1481:1501  conflicts[projectid] */\n      dup2\n      mstore\n      0x20\n      add\n      swap1\n      dup2\n      mstore\n      0x20\n      add\n      0x00\n      keccak256\n        /* \"contracts/Conflict.sol\":1481:1512  conflicts[projectid][serviceid] */\n      0x00\n        /* \"contracts/Conflict.sol\":1502:1511  serviceid */\n      dup7\n        /* \"contracts/Conflict.sol\":1481:1512  conflicts[projectid][serviceid] */\n      dup2\n      mstore\n      0x20\n      add\n      swap1\n      dup2\n      mstore\n      0x20\n      add\n      0x00\n      keccak256\n        /* \"contracts/Conflict.sol\":1481:1525  conflicts[projectid][serviceid][milestoneid] */\n      0x00\n        /* \"contracts/Conflict.sol\":1513:1524  milestoneid */\n      dup6\n        /* \"contracts/Conflict.sol\":1481:1525  conflicts[projectid][serviceid][milestoneid] */\n      dup2\n      mstore\n      0x20\n      add\n      swap1\n      dup2\n      mstore\n      0x20\n      add\n      0x00\n      keccak256\n        /* \"contracts/Conflict.sol\":1450:1525  conflict storage newConflict = conflicts[projectid][serviceid][milestoneid] */\n      swap1\n      pop\n        /* \"contracts/Conflict.sol\":1566:1576  msg.sender */\n      caller\n        /* \"contracts/Conflict.sol\":1535:1546  newConflict */\n      dup2\n        /* \"contracts/Conflict.sol\":1535:1563  newConflict.serviceRequester */\n      0x00\n      add\n      0x00\n        /* \"contracts/Conflict.sol\":1535:1576  newConflict.serviceRequester = msg.sender */\n      0x0100\n      exp\n      dup2\n      sload\n      dup2\n      0xffffffffffffffffffffffffffffffffffffffff\n      mul\n      not\n      and\n      swap1\n      dup4\n      0xffffffffffffffffffffffffffffffffffffffff\n      and\n      mul\n      or\n      swap1\n      sstore\n      pop\n        /* \"contracts/Conflict.sol\":1616:1631  serviceProvider */\n      dup3\n        /* \"contracts/Conflict.sol\":1586:1597  newConflict */\n      dup2\n        /* \"contracts/Conflict.sol\":1586:1613  newConflict.serviceProvider */\n      0x01\n      add\n      0x00\n        /* \"contracts/Conflict.sol\":1586:1631  newConflict.serviceProvider = serviceProvider */\n      0x0100\n      exp\n      dup2\n      sload\n      dup2\n      0xffffffffffffffffffffffffffffffffffffffff\n      mul\n      not\n      and\n      swap1\n      dup4\n      0xffffffffffffffffffffffffffffffffffffffff\n      and\n      mul\n      or\n      swap1\n      sstore\n      pop\n        /* \"contracts/Conflict.sol\":1667:1678  milestoneid */\n      dup4\n        /* \"contracts/Conflict.sol\":1641:1652  newConflict */\n      dup2\n        /* \"contracts/Conflict.sol\":1641:1664  newConflict.milestoneid */\n      0x02\n      add\n        /* \"contracts/Conflict.sol\":1641:1678  newConflict.milestoneid = milestoneid */\n      dup2\n      swap1\n      sstore\n      pop\n        /* \"contracts/Conflict.sol\":1712:1721  serviceid */\n      dup5\n        /* \"contracts/Conflict.sol\":1688:1699  newConflict */\n      dup2\n        /* \"contracts/Conflict.sol\":1688:1709  newConflict.serviceid */\n      0x03\n      add\n        /* \"contracts/Conflict.sol\":1688:1721  newConflict.serviceid = serviceid */\n      dup2\n      swap1\n      sstore\n      pop\n        /* \"contracts/Conflict.sol\":1755:1764  projectid */\n      dup6\n        /* \"contracts/Conflict.sol\":1731:1742  newConflict */\n      dup2\n        /* \"contracts/Conflict.sol\":1731:1752  newConflict.projectid */\n      0x04\n      add\n        /* \"contracts/Conflict.sol\":1731:1764  newConflict.projectid = projectid */\n      dup2\n      swap1\n      sstore\n      pop\n        /* \"contracts/Conflict.sol\":1795:1799  true */\n      0x01\n        /* \"contracts/Conflict.sol\":1774:1785  newConflict */\n      dup2\n        /* \"contracts/Conflict.sol\":1774:1792  newConflict.exists */\n      0x0a\n      add\n      0x00\n        /* \"contracts/Conflict.sol\":1774:1799  newConflict.exists = true */\n      0x0100\n      exp\n      dup2\n      sload\n      dup2\n      0xff\n      mul\n      not\n      and\n      swap1\n      dup4\n      iszero\n      iszero\n      mul\n      or\n      swap1\n      sstore\n      pop\n        /* \"contracts/Conflict.sol\":1838:1860  ConflictStatus.pending */\n      0x01\n        /* \"contracts/Conflict.sol\":1809:1820  newConflict */\n      dup2\n        /* \"contracts/Conflict.sol\":1809:1835  newConflict.conflictstatus */\n      0x05\n      add\n      0x00\n        /* \"contracts/Conflict.sol\":1809:1860  newConflict.conflictstatus = ConflictStatus.pending */\n      0x0100\n      exp\n      dup2\n      sload\n      dup2\n      0xff\n      mul\n      not\n      and\n      swap1\n      dup4\n      0x02\n      dup2\n      gt\n      iszero\n      tag_94\n      jumpi\n      tag_95\n      tag_48\n      jump\t// in\n    tag_95:\n    tag_94:\n      mul\n      or\n      swap1\n      sstore\n      pop\n        /* \"contracts/Conflict.sol\":1895:1905  tot_voters */\n      dup2\n        /* \"contracts/Conflict.sol\":1870:1881  newConflict */\n      dup2\n        /* \"contracts/Conflict.sol\":1870:1892  newConflict.votestotal */\n      0x06\n      add\n        /* \"contracts/Conflict.sol\":1870:1905  newConflict.votestotal = tot_voters */\n      dup2\n      swap1\n      sstore\n      pop\n        /* \"contracts/Conflict.sol\":1921:1987  conflictRaised(projectid, serviceid, milestoneid, serviceProvider) */\n      0xc1617c5bbf96cace25a096d26ca0a119036155dc519dd9ef0ee51434015a5ac1\n        /* \"contracts/Conflict.sol\":1936:1945  projectid */\n      dup7\n        /* \"contracts/Conflict.sol\":1947:1956  serviceid */\n      dup7\n        /* \"contracts/Conflict.sol\":1958:1969  milestoneid */\n      dup7\n        /* \"contracts/Conflict.sol\":1971:1986  serviceProvider */\n      dup7\n        /* \"contracts/Conflict.sol\":1921:1987  conflictRaised(projectid, serviceid, milestoneid, serviceProvider) */\n      mload(0x40)\n      tag_96\n      swap5\n      swap4\n      swap3\n      swap2\n      swap1\n      tag_97\n      jump\t// in\n    tag_96:\n      mload(0x40)\n      dup1\n      swap2\n      sub\n      swap1\n      log1\n        /* \"contracts/Conflict.sol\":1254:1994  {... */\n      pop\n        /* \"contracts/Conflict.sol\":1118:1994  function createConflict(uint256 projectid, uint256 serviceid, uint256 milestoneid, address serviceProvider,  uint256 tot_voters) public {... */\n      pop\n      pop\n      pop\n      pop\n      pop\n      jump\t// out\n        /* \"#utility.yul\":7:146   */\n    tag_99:\n        /* \"#utility.yul\":53:58   */\n      0x00\n        /* \"#utility.yul\":91:97   */\n      dup2\n        /* \"#utility.yul\":78:98   */\n      calldataload\n        /* \"#utility.yul\":69:98   */\n      swap1\n      pop\n        /* \"#utility.yul\":107:140   */\n      tag_101\n        /* \"#utility.yul\":134:139   */\n      dup2\n        /* \"#utility.yul\":107:140   */\n      tag_102\n      jump\t// in\n    tag_101:\n        /* \"#utility.yul\":7:146   */\n      swap3\n      swap2\n      pop\n      pop\n      jump\t// out\n        /* \"#utility.yul\":152:291   */\n    tag_103:\n        /* \"#utility.yul\":198:203   */\n      0x00\n        /* \"#utility.yul\":236:242   */\n      dup2\n        /* \"#utility.yul\":223:243   */\n      calldataload\n        /* \"#utility.yul\":214:243   */\n      swap1\n      pop\n        /* \"#utility.yul\":252:285   */\n      tag_105\n        /* \"#utility.yul\":279:284   */\n      dup2\n        /* \"#utility.yul\":252:285   */\n      tag_106\n      jump\t// in\n    tag_105:\n        /* \"#utility.yul\":152:291   */\n      swap3\n      swap2\n      pop\n      pop\n      jump\t// out\n        /* \"#utility.yul\":297:432   */\n    tag_107:\n        /* \"#utility.yul\":341:346   */\n      0x00\n        /* \"#utility.yul\":379:385   */\n      dup2\n        /* \"#utility.yul\":366:386   */\n      calldataload\n        /* \"#utility.yul\":357:386   */\n      swap1\n      pop\n        /* \"#utility.yul\":395:426   */\n      tag_109\n        /* \"#utility.yul\":420:425   */\n      dup2\n        /* \"#utility.yul\":395:426   */\n      tag_110\n      jump\t// in\n    tag_109:\n        /* \"#utility.yul\":297:432   */\n      swap3\n      swap2\n      pop\n      pop\n      jump\t// out\n        /* \"#utility.yul\":438:1057   */\n    tag_13:\n        /* \"#utility.yul\":515:521   */\n      0x00\n        /* \"#utility.yul\":523:529   */\n      dup1\n        /* \"#utility.yul\":531:537   */\n      0x00\n        /* \"#utility.yul\":580:582   */\n      0x60\n        /* \"#utility.yul\":568:577   */\n      dup5\n        /* \"#utility.yul\":559:566   */\n      dup7\n        /* \"#utility.yul\":555:578   */\n      sub\n        /* \"#utility.yul\":551:583   */\n      slt\n        /* \"#utility.yul\":548:667   */\n      iszero\n      tag_112\n      jumpi\n        /* \"#utility.yul\":586:665   */\n      tag_113\n      tag_114\n      jump\t// in\n    tag_113:\n        /* \"#utility.yul\":548:667   */\n    tag_112:\n        /* \"#utility.yul\":706:707   */\n      0x00\n        /* \"#utility.yul\":731:784   */\n      tag_115\n        /* \"#utility.yul\":776:783   */\n      dup7\n        /* \"#utility.yul\":767:773   */\n      dup3\n        /* \"#utility.yul\":756:765   */\n      dup8\n        /* \"#utility.yul\":752:774   */\n      add\n        /* \"#utility.yul\":731:784   */\n      tag_103\n      jump\t// in\n    tag_115:\n        /* \"#utility.yul\":721:784   */\n      swap4\n      pop\n        /* \"#utility.yul\":677:794   */\n      pop\n        /* \"#utility.yul\":833:835   */\n      0x20\n        /* \"#utility.yul\":859:912   */\n      tag_116\n        /* \"#utility.yul\":904:911   */\n      dup7\n        /* \"#utility.yul\":895:901   */\n      dup3\n        /* \"#utility.yul\":884:893   */\n      dup8\n        /* \"#utility.yul\":880:902   */\n      add\n        /* \"#utility.yul\":859:912   */\n      tag_103\n      jump\t// in\n    tag_116:\n        /* \"#utility.yul\":849:912   */\n      swap3\n      pop\n        /* \"#utility.yul\":804:922   */\n      pop\n        /* \"#utility.yul\":961:963   */\n      0x40\n        /* \"#utility.yul\":987:1040   */\n      tag_117\n        /* \"#utility.yul\":1032:1039   */\n      dup7\n        /* \"#utility.yul\":1023:1029   */\n      dup3\n        /* \"#utility.yul\":1012:1021   */\n      dup8\n        /* \"#utility.yul\":1008:1030   */\n      add\n        /* \"#utility.yul\":987:1040   */\n      tag_103\n      jump\t// in\n    tag_117:\n        /* \"#utility.yul\":977:1040   */\n      swap2\n      pop\n        /* \"#utility.yul\":932:1050   */\n      pop\n        /* \"#utility.yul\":438:1057   */\n      swap3\n      pop\n      swap3\n      pop\n      swap3\n      jump\t// out\n        /* \"#utility.yul\":1063:1974   */\n    tag_40:\n        /* \"#utility.yul\":1158:1164   */\n      0x00\n        /* \"#utility.yul\":1166:1172   */\n      dup1\n        /* \"#utility.yul\":1174:1180   */\n      0x00\n        /* \"#utility.yul\":1182:1188   */\n      dup1\n        /* \"#utility.yul\":1190:1196   */\n      0x00\n        /* \"#utility.yul\":1239:1242   */\n      0xa0\n        /* \"#utility.yul\":1227:1236   */\n      dup7\n        /* \"#utility.yul\":1218:1225   */\n      dup9\n        /* \"#utility.yul\":1214:1237   */\n      sub\n        /* \"#utility.yul\":1210:1243   */\n      slt\n        /* \"#utility.yul\":1207:1327   */\n      iszero\n      tag_119\n      jumpi\n        /* \"#utility.yul\":1246:1325   */\n      tag_120\n      tag_114\n      jump\t// in\n    tag_120:\n        /* \"#utility.yul\":1207:1327   */\n    tag_119:\n        /* \"#utility.yul\":1366:1367   */\n      0x00\n        /* \"#utility.yul\":1391:1444   */\n      tag_121\n        /* \"#utility.yul\":1436:1443   */\n      dup9\n        /* \"#utility.yul\":1427:1433   */\n      dup3\n        /* \"#utility.yul\":1416:1425   */\n      dup10\n        /* \"#utility.yul\":1412:1434   */\n      add\n        /* \"#utility.yul\":1391:1444   */\n      tag_103\n      jump\t// in\n    tag_121:\n        /* \"#utility.yul\":1381:1444   */\n      swap6\n      pop\n        /* \"#utility.yul\":1337:1454   */\n      pop\n        /* \"#utility.yul\":1493:1495   */\n      0x20\n        /* \"#utility.yul\":1519:1572   */\n      tag_122\n        /* \"#utility.yul\":1564:1571   */\n      dup9\n        /* \"#utility.yul\":1555:1561   */\n      dup3\n        /* \"#utility.yul\":1544:1553   */\n      dup10\n        /* \"#utility.yul\":1540:1562   */\n      add\n        /* \"#utility.yul\":1519:1572   */\n      tag_103\n      jump\t// in\n    tag_122:\n        /* \"#utility.yul\":1509:1572   */\n      swap5\n      pop\n        /* \"#utility.yul\":1464:1582   */\n      pop\n        /* \"#utility.yul\":1621:1623   */\n      0x40\n        /* \"#utility.yul\":1647:1700   */\n      tag_123\n        /* \"#utility.yul\":1692:1699   */\n      dup9\n        /* \"#utility.yul\":1683:1689   */\n      dup3\n        /* \"#utility.yul\":1672:1681   */\n      dup10\n        /* \"#utility.yul\":1668:1690   */\n      add\n        /* \"#utility.yul\":1647:1700   */\n      tag_103\n      jump\t// in\n    tag_123:\n        /* \"#utility.yul\":1637:1700   */\n      swap4\n      pop\n        /* \"#utility.yul\":1592:1710   */\n      pop\n        /* \"#utility.yul\":1749:1751   */\n      0x60\n        /* \"#utility.yul\":1775:1828   */\n      tag_124\n        /* \"#utility.yul\":1820:1827   */\n      dup9\n        /* \"#utility.yul\":1811:1817   */\n      dup3\n        /* \"#utility.yul\":1800:1809   */\n      dup10\n        /* \"#utility.yul\":1796:1818   */\n      add\n        /* \"#utility.yul\":1775:1828   */\n      tag_99\n      jump\t// in\n    tag_124:\n        /* \"#utility.yul\":1765:1828   */\n      swap3\n      pop\n        /* \"#utility.yul\":1720:1838   */\n      pop\n        /* \"#utility.yul\":1877:1880   */\n      0x80\n        /* \"#utility.yul\":1904:1957   */\n      tag_125\n        /* \"#utility.yul\":1949:1956   */\n      dup9\n        /* \"#utility.yul\":1940:1946   */\n      dup3\n        /* \"#utility.yul\":1929:1938   */\n      dup10\n        /* \"#utility.yul\":1925:1947   */\n      add\n        /* \"#utility.yul\":1904:1957   */\n      tag_103\n      jump\t// in\n    tag_125:\n        /* \"#utility.yul\":1894:1957   */\n      swap2\n      pop\n        /* \"#utility.yul\":1848:1967   */\n      pop\n        /* \"#utility.yul\":1063:1974   */\n      swap3\n      swap6\n      pop\n      swap3\n      swap6\n      swap1\n      swap4\n      pop\n      jump\t// out\n        /* \"#utility.yul\":1980:2741   */\n    tag_19:\n        /* \"#utility.yul\":2064:2070   */\n      0x00\n        /* \"#utility.yul\":2072:2078   */\n      dup1\n        /* \"#utility.yul\":2080:2086   */\n      0x00\n        /* \"#utility.yul\":2088:2094   */\n      dup1\n        /* \"#utility.yul\":2137:2140   */\n      0x80\n        /* \"#utility.yul\":2125:2134   */\n      dup6\n        /* \"#utility.yul\":2116:2123   */\n      dup8\n        /* \"#utility.yul\":2112:2135   */\n      sub\n        /* \"#utility.yul\":2108:2141   */\n      slt\n        /* \"#utility.yul\":2105:2225   */\n      iszero\n      tag_127\n      jumpi\n        /* \"#utility.yul\":2144:2223   */\n      tag_128\n      tag_114\n      jump\t// in\n    tag_128:\n        /* \"#utility.yul\":2105:2225   */\n    tag_127:\n        /* \"#utility.yul\":2264:2265   */\n      0x00\n        /* \"#utility.yul\":2289:2342   */\n      tag_129\n        /* \"#utility.yul\":2334:2341   */\n      dup8\n        /* \"#utility.yul\":2325:2331   */\n      dup3\n        /* \"#utility.yul\":2314:2323   */\n      dup9\n        /* \"#utility.yul\":2310:2332   */\n      add\n        /* \"#utility.yul\":2289:2342   */\n      tag_103\n      jump\t// in\n    tag_129:\n        /* \"#utility.yul\":2279:2342   */\n      swap5\n      pop\n        /* \"#utility.yul\":2235:2352   */\n      pop\n        /* \"#utility.yul\":2391:2393   */\n      0x20\n        /* \"#utility.yul\":2417:2470   */\n      tag_130\n        /* \"#utility.yul\":2462:2469   */\n      dup8\n        /* \"#utility.yul\":2453:2459   */\n      dup3\n        /* \"#utility.yul\":2442:2451   */\n      dup9\n        /* \"#utility.yul\":2438:2460   */\n      add\n        /* \"#utility.yul\":2417:2470   */\n      tag_103\n      jump\t// in\n    tag_130:\n        /* \"#utility.yul\":2407:2470   */\n      swap4\n      pop\n        /* \"#utility.yul\":2362:2480   */\n      pop\n        /* \"#utility.yul\":2519:2521   */\n      0x40\n        /* \"#utility.yul\":2545:2598   */\n      tag_131\n        /* \"#utility.yul\":2590:2597   */\n      dup8\n        /* \"#utility.yul\":2581:2587   */\n      dup3\n        /* \"#utility.yul\":2570:2579   */\n      dup9\n        /* \"#utility.yul\":2566:2588   */\n      add\n        /* \"#utility.yul\":2545:2598   */\n      tag_103\n      jump\t// in\n    tag_131:\n        /* \"#utility.yul\":2535:2598   */\n      swap3\n      pop\n        /* \"#utility.yul\":2490:2608   */\n      pop\n        /* \"#utility.yul\":2647:2649   */\n      0x60\n        /* \"#utility.yul\":2673:2724   */\n      tag_132\n        /* \"#utility.yul\":2716:2723   */\n      dup8\n        /* \"#utility.yul\":2707:2713   */\n      dup3\n        /* \"#utility.yul\":2696:2705   */\n      dup9\n        /* \"#utility.yul\":2692:2714   */\n      add\n        /* \"#utility.yul\":2673:2724   */\n      tag_107\n      jump\t// in\n    tag_132:\n        /* \"#utility.yul\":2663:2724   */\n      swap2\n      pop\n        /* \"#utility.yul\":2618:2734   */\n      pop\n        /* \"#utility.yul\":1980:2741   */\n      swap3\n      swap6\n      swap2\n      swap5\n      pop\n      swap3\n      pop\n      jump\t// out\n        /* \"#utility.yul\":2747:2865   */\n    tag_133:\n        /* \"#utility.yul\":2834:2858   */\n      tag_135\n        /* \"#utility.yul\":2852:2857   */\n      dup2\n        /* \"#utility.yul\":2834:2858   */\n      tag_136\n      jump\t// in\n    tag_135:\n        /* \"#utility.yul\":2829:2832   */\n      dup3\n        /* \"#utility.yul\":2822:2859   */\n      mstore\n        /* \"#utility.yul\":2747:2865   */\n      pop\n      pop\n      jump\t// out\n        /* \"#utility.yul\":2871:3030   */\n    tag_137:\n        /* \"#utility.yul\":2972:3023   */\n      tag_139\n        /* \"#utility.yul\":3017:3022   */\n      dup2\n        /* \"#utility.yul\":2972:3023   */\n      tag_140\n      jump\t// in\n    tag_139:\n        /* \"#utility.yul\":2967:2970   */\n      dup3\n        /* \"#utility.yul\":2960:3024   */\n      mstore\n        /* \"#utility.yul\":2871:3030   */\n      pop\n      pop\n      jump\t// out\n        /* \"#utility.yul\":3036:3402   */\n    tag_141:\n        /* \"#utility.yul\":3178:3181   */\n      0x00\n        /* \"#utility.yul\":3199:3266   */\n      tag_143\n        /* \"#utility.yul\":3263:3265   */\n      0x57\n        /* \"#utility.yul\":3258:3261   */\n      dup4\n        /* \"#utility.yul\":3199:3266   */\n      tag_144\n      jump\t// in\n    tag_143:\n        /* \"#utility.yul\":3192:3266   */\n      swap2\n      pop\n        /* \"#utility.yul\":3275:3368   */\n      tag_145\n        /* \"#utility.yul\":3364:3367   */\n      dup3\n        /* \"#utility.yul\":3275:3368   */\n      tag_146\n      jump\t// in\n    tag_145:\n        /* \"#utility.yul\":3393:3395   */\n      0x60\n        /* \"#utility.yul\":3388:3391   */\n      dup3\n        /* \"#utility.yul\":3384:3396   */\n      add\n        /* \"#utility.yul\":3377:3396   */\n      swap1\n      pop\n        /* \"#utility.yul\":3036:3402   */\n      swap2\n      swap1\n      pop\n      jump\t// out\n        /* \"#utility.yul\":3408:3774   */\n    tag_147:\n        /* \"#utility.yul\":3550:3553   */\n      0x00\n        /* \"#utility.yul\":3571:3638   */\n      tag_149\n        /* \"#utility.yul\":3635:3637   */\n      0x2d\n        /* \"#utility.yul\":3630:3633   */\n      dup4\n        /* \"#utility.yul\":3571:3638   */\n      tag_144\n      jump\t// in\n    tag_149:\n        /* \"#utility.yul\":3564:3638   */\n      swap2\n      pop\n        /* \"#utility.yul\":3647:3740   */\n      tag_150\n        /* \"#utility.yul\":3736:3739   */\n      dup3\n        /* \"#utility.yul\":3647:3740   */\n      tag_151\n      jump\t// in\n    tag_150:\n        /* \"#utility.yul\":3765:3767   */\n      0x40\n        /* \"#utility.yul\":3760:3763   */\n      dup3\n        /* \"#utility.yul\":3756:3768   */\n      add\n        /* \"#utility.yul\":3749:3768   */\n      swap1\n      pop\n        /* \"#utility.yul\":3408:3774   */\n      swap2\n      swap1\n      pop\n      jump\t// out\n        /* \"#utility.yul\":3780:4146   */\n    tag_152:\n        /* \"#utility.yul\":3922:3925   */\n      0x00\n        /* \"#utility.yul\":3943:4010   */\n      tag_154\n        /* \"#utility.yul\":4007:4009   */\n      0x30\n        /* \"#utility.yul\":4002:4005   */\n      dup4\n        /* \"#utility.yul\":3943:4010   */\n      tag_144\n      jump\t// in\n    tag_154:\n        /* \"#utility.yul\":3936:4010   */\n      swap2\n      pop\n        /* \"#utility.yul\":4019:4112   */\n      tag_155\n        /* \"#utility.yul\":4108:4111   */\n      dup3\n        /* \"#utility.yul\":4019:4112   */\n      tag_156\n      jump\t// in\n    tag_155:\n        /* \"#utility.yul\":4137:4139   */\n      0x40\n        /* \"#utility.yul\":4132:4135   */\n      dup3\n        /* \"#utility.yul\":4128:4140   */\n      add\n        /* \"#utility.yul\":4121:4140   */\n      swap1\n      pop\n        /* \"#utility.yul\":3780:4146   */\n      swap2\n      swap1\n      pop\n      jump\t// out\n        /* \"#utility.yul\":4152:4518   */\n    tag_157:\n        /* \"#utility.yul\":4294:4297   */\n      0x00\n        /* \"#utility.yul\":4315:4382   */\n      tag_159\n        /* \"#utility.yul\":4379:4381   */\n      0x3d\n        /* \"#utility.yul\":4374:4377   */\n      dup4\n        /* \"#utility.yul\":4315:4382   */\n      tag_144\n      jump\t// in\n    tag_159:\n        /* \"#utility.yul\":4308:4382   */\n      swap2\n      pop\n        /* \"#utility.yul\":4391:4484   */\n      tag_160\n        /* \"#utility.yul\":4480:4483   */\n      dup3\n        /* \"#utility.yul\":4391:4484   */\n      tag_161\n      jump\t// in\n    tag_160:\n        /* \"#utility.yul\":4509:4511   */\n      0x40\n        /* \"#utility.yul\":4504:4507   */\n      dup3\n        /* \"#utility.yul\":4500:4512   */\n      add\n        /* \"#utility.yul\":4493:4512   */\n      swap1\n      pop\n        /* \"#utility.yul\":4152:4518   */\n      swap2\n      swap1\n      pop\n      jump\t// out\n        /* \"#utility.yul\":4524:4890   */\n    tag_162:\n        /* \"#utility.yul\":4666:4669   */\n      0x00\n        /* \"#utility.yul\":4687:4754   */\n      tag_164\n        /* \"#utility.yul\":4751:4753   */\n      0x4a\n        /* \"#utility.yul\":4746:4749   */\n      dup4\n        /* \"#utility.yul\":4687:4754   */\n      tag_144\n      jump\t// in\n    tag_164:\n        /* \"#utility.yul\":4680:4754   */\n      swap2\n      pop\n        /* \"#utility.yul\":4763:4856   */\n      tag_165\n        /* \"#utility.yul\":4852:4855   */\n      dup3\n        /* \"#utility.yul\":4763:4856   */\n      tag_166\n      jump\t// in\n    tag_165:\n        /* \"#utility.yul\":4881:4883   */\n      0x60\n        /* \"#utility.yul\":4876:4879   */\n      dup3\n        /* \"#utility.yul\":4872:4884   */\n      add\n        /* \"#utility.yul\":4865:4884   */\n      swap1\n      pop\n        /* \"#utility.yul\":4524:4890   */\n      swap2\n      swap1\n      pop\n      jump\t// out\n        /* \"#utility.yul\":4896:5262   */\n    tag_167:\n        /* \"#utility.yul\":5038:5041   */\n      0x00\n        /* \"#utility.yul\":5059:5126   */\n      tag_169\n        /* \"#utility.yul\":5123:5125   */\n      0x39\n        /* \"#utility.yul\":5118:5121   */\n      dup4\n        /* \"#utility.yul\":5059:5126   */\n      tag_144\n      jump\t// in\n    tag_169:\n        /* \"#utility.yul\":5052:5126   */\n      swap2\n      pop\n        /* \"#utility.yul\":5135:5228   */\n      tag_170\n        /* \"#utility.yul\":5224:5227   */\n      dup3\n        /* \"#utility.yul\":5135:5228   */\n      tag_171\n      jump\t// in\n    tag_170:\n        /* \"#utility.yul\":5253:5255   */\n      0x40\n        /* \"#utility.yul\":5248:5251   */\n      dup3\n        /* \"#utility.yul\":5244:5256   */\n      add\n        /* \"#utility.yul\":5237:5256   */\n      swap1\n      pop\n        /* \"#utility.yul\":4896:5262   */\n      swap2\n      swap1\n      pop\n      jump\t// out\n        /* \"#utility.yul\":5268:5634   */\n    tag_172:\n        /* \"#utility.yul\":5410:5413   */\n      0x00\n        /* \"#utility.yul\":5431:5498   */\n      tag_174\n        /* \"#utility.yul\":5495:5497   */\n      0x20\n        /* \"#utility.yul\":5490:5493   */\n      dup4\n        /* \"#utility.yul\":5431:5498   */\n      tag_144\n      jump\t// in\n    tag_174:\n        /* \"#utility.yul\":5424:5498   */\n      swap2\n      pop\n        /* \"#utility.yul\":5507:5600   */\n      tag_175\n        /* \"#utility.yul\":5596:5599   */\n      dup3\n        /* \"#utility.yul\":5507:5600   */\n      tag_176\n      jump\t// in\n    tag_175:\n        /* \"#utility.yul\":5625:5627   */\n      0x20\n        /* \"#utility.yul\":5620:5623   */\n      dup3\n        /* \"#utility.yul\":5616:5628   */\n      add\n        /* \"#utility.yul\":5609:5628   */\n      swap1\n      pop\n        /* \"#utility.yul\":5268:5634   */\n      swap2\n      swap1\n      pop\n      jump\t// out\n        /* \"#utility.yul\":5640:6006   */\n    tag_177:\n        /* \"#utility.yul\":5782:5785   */\n      0x00\n        /* \"#utility.yul\":5803:5870   */\n      tag_179\n        /* \"#utility.yul\":5867:5869   */\n      0x4d\n        /* \"#utility.yul\":5862:5865   */\n      dup4\n        /* \"#utility.yul\":5803:5870   */\n      tag_144\n      jump\t// in\n    tag_179:\n        /* \"#utility.yul\":5796:5870   */\n      swap2\n      pop\n        /* \"#utility.yul\":5879:5972   */\n      tag_180\n        /* \"#utility.yul\":5968:5971   */\n      dup3\n        /* \"#utility.yul\":5879:5972   */\n      tag_181\n      jump\t// in\n    tag_180:\n        /* \"#utility.yul\":5997:5999   */\n      0x60\n        /* \"#utility.yul\":5992:5995   */\n      dup3\n        /* \"#utility.yul\":5988:6000   */\n      add\n        /* \"#utility.yul\":5981:6000   */\n      swap1\n      pop\n        /* \"#utility.yul\":5640:6006   */\n      swap2\n      swap1\n      pop\n      jump\t// out\n        /* \"#utility.yul\":6012:6130   */\n    tag_182:\n        /* \"#utility.yul\":6099:6123   */\n      tag_184\n        /* \"#utility.yul\":6117:6122   */\n      dup2\n        /* \"#utility.yul\":6099:6123   */\n      tag_185\n      jump\t// in\n    tag_184:\n        /* \"#utility.yul\":6094:6097   */\n      dup3\n        /* \"#utility.yul\":6087:6124   */\n      mstore\n        /* \"#utility.yul\":6012:6130   */\n      pop\n      pop\n      jump\t// out\n        /* \"#utility.yul\":6136:6248   */\n    tag_186:\n        /* \"#utility.yul\":6219:6241   */\n      tag_188\n        /* \"#utility.yul\":6235:6240   */\n      dup2\n        /* \"#utility.yul\":6219:6241   */\n      tag_189\n      jump\t// in\n    tag_188:\n        /* \"#utility.yul\":6214:6217   */\n      dup3\n        /* \"#utility.yul\":6207:6242   */\n      mstore\n        /* \"#utility.yul\":6136:6248   */\n      pop\n      pop\n      jump\t// out\n        /* \"#utility.yul\":6254:6504   */\n    tag_33:\n        /* \"#utility.yul\":6361:6365   */\n      0x00\n        /* \"#utility.yul\":6399:6401   */\n      0x20\n        /* \"#utility.yul\":6388:6397   */\n      dup3\n        /* \"#utility.yul\":6384:6402   */\n      add\n        /* \"#utility.yul\":6376:6402   */\n      swap1\n      pop\n        /* \"#utility.yul\":6412:6497   */\n      tag_191\n        /* \"#utility.yul\":6494:6495   */\n      0x00\n        /* \"#utility.yul\":6483:6492   */\n      dup4\n        /* \"#utility.yul\":6479:6496   */\n      add\n        /* \"#utility.yul\":6470:6476   */\n      dup5\n        /* \"#utility.yul\":6412:6497   */\n      tag_137\n      jump\t// in\n    tag_191:\n        /* \"#utility.yul\":6254:6504   */\n      swap3\n      swap2\n      pop\n      pop\n      jump\t// out\n        /* \"#utility.yul\":6510:6929   */\n    tag_70:\n        /* \"#utility.yul\":6676:6680   */\n      0x00\n        /* \"#utility.yul\":6714:6716   */\n      0x20\n        /* \"#utility.yul\":6703:6712   */\n      dup3\n        /* \"#utility.yul\":6699:6717   */\n      add\n        /* \"#utility.yul\":6691:6717   */\n      swap1\n      pop\n        /* \"#utility.yul\":6763:6772   */\n      dup2\n        /* \"#utility.yul\":6757:6761   */\n      dup2\n        /* \"#utility.yul\":6753:6773   */\n      sub\n        /* \"#utility.yul\":6749:6750   */\n      0x00\n        /* \"#utility.yul\":6738:6747   */\n      dup4\n        /* \"#utility.yul\":6734:6751   */\n      add\n        /* \"#utility.yul\":6727:6774   */\n      mstore\n        /* \"#utility.yul\":6791:6922   */\n      tag_193\n        /* \"#utility.yul\":6917:6921   */\n      dup2\n        /* \"#utility.yul\":6791:6922   */\n      tag_141\n      jump\t// in\n    tag_193:\n        /* \"#utility.yul\":6783:6922   */\n      swap1\n      pop\n        /* \"#utility.yul\":6510:6929   */\n      swap2\n      swap1\n      pop\n      jump\t// out\n        /* \"#utility.yul\":6935:7354   */\n    tag_66:\n        /* \"#utility.yul\":7101:7105   */\n      0x00\n        /* \"#utility.yul\":7139:7141   */\n      0x20\n        /* \"#utility.yul\":7128:7137   */\n      dup3\n        /* \"#utility.yul\":7124:7142   */\n      add\n        /* \"#utility.yul\":7116:7142   */\n      swap1\n      pop\n        /* \"#utility.yul\":7188:7197   */\n      dup2\n        /* \"#utility.yul\":7182:7186   */\n      dup2\n        /* \"#utility.yul\":7178:7198   */\n      sub\n        /* \"#utility.yul\":7174:7175   */\n      0x00\n        /* \"#utility.yul\":7163:7172   */\n      dup4\n        /* \"#utility.yul\":7159:7176   */\n      add\n        /* \"#utility.yul\":7152:7199   */\n      mstore\n        /* \"#utility.yul\":7216:7347   */\n      tag_195\n        /* \"#utility.yul\":7342:7346   */\n      dup2\n        /* \"#utility.yul\":7216:7347   */\n      tag_147\n      jump\t// in\n    tag_195:\n        /* \"#utility.yul\":7208:7347   */\n      swap1\n      pop\n        /* \"#utility.yul\":6935:7354   */\n      swap2\n      swap1\n      pop\n      jump\t// out\n        /* \"#utility.yul\":7360:7779   */\n    tag_57:\n        /* \"#utility.yul\":7526:7530   */\n      0x00\n        /* \"#utility.yul\":7564:7566   */\n      0x20\n        /* \"#utility.yul\":7553:7562   */\n      dup3\n        /* \"#utility.yul\":7549:7567   */\n      add\n        /* \"#utility.yul\":7541:7567   */\n      swap1\n      pop\n        /* \"#utility.yul\":7613:7622   */\n      dup2\n        /* \"#utility.yul\":7607:7611   */\n      dup2\n        /* \"#utility.yul\":7603:7623   */\n      sub\n        /* \"#utility.yul\":7599:7600   */\n      0x00\n        /* \"#utility.yul\":7588:7597   */\n      dup4\n        /* \"#utility.yul\":7584:7601   */\n      add\n        /* \"#utility.yul\":7577:7624   */\n      mstore\n        /* \"#utility.yul\":7641:7772   */\n      tag_197\n        /* \"#utility.yul\":7767:7771   */\n      dup2\n        /* \"#utility.yul\":7641:7772   */\n      tag_152\n      jump\t// in\n    tag_197:\n        /* \"#utility.yul\":7633:7772   */\n      swap1\n      pop\n        /* \"#utility.yul\":7360:7779   */\n      swap2\n      swap1\n      pop\n      jump\t// out\n        /* \"#utility.yul\":7785:8204   */\n    tag_53:\n        /* \"#utility.yul\":7951:7955   */\n      0x00\n        /* \"#utility.yul\":7989:7991   */\n      0x20\n        /* \"#utility.yul\":7978:7987   */\n      dup3\n        /* \"#utility.yul\":7974:7992   */\n      add\n        /* \"#utility.yul\":7966:7992   */\n      swap1\n      pop\n        /* \"#utility.yul\":8038:8047   */\n      dup2\n        /* \"#utility.yul\":8032:8036   */\n      dup2\n        /* \"#utility.yul\":8028:8048   */\n      sub\n        /* \"#utility.yul\":8024:8025   */\n      0x00\n        /* \"#utility.yul\":8013:8022   */\n      dup4\n        /* \"#utility.yul\":8009:8026   */\n      add\n        /* \"#utility.yul\":8002:8049   */\n      mstore\n        /* \"#utility.yul\":8066:8197   */\n      tag_199\n        /* \"#utility.yul\":8192:8196   */\n      dup2\n        /* \"#utility.yul\":8066:8197   */\n      tag_157\n      jump\t// in\n    tag_199:\n        /* \"#utility.yul\":8058:8197   */\n      swap1\n      pop\n        /* \"#utility.yul\":7785:8204   */\n      swap2\n      swap1\n      pop\n      jump\t// out\n        /* \"#utility.yul\":8210:8629   */\n    tag_45:\n        /* \"#utility.yul\":8376:8380   */\n      0x00\n        /* \"#utility.yul\":8414:8416   */\n      0x20\n        /* \"#utility.yul\":8403:8412   */\n      dup3\n        /* \"#utility.yul\":8399:8417   */\n      add\n        /* \"#utility.yul\":8391:8417   */\n      swap1\n      pop\n        /* \"#utility.yul\":8463:8472   */\n      dup2\n        /* \"#utility.yul\":8457:8461   */\n      dup2\n        /* \"#utility.yul\":8453:8473   */\n      sub\n        /* \"#utility.yul\":8449:8450   */\n      0x00\n        /* \"#utility.yul\":8438:8447   */\n      dup4\n        /* \"#utility.yul\":8434:8451   */\n      add\n        /* \"#utility.yul\":8427:8474   */\n      mstore\n        /* \"#utility.yul\":8491:8622   */\n      tag_201\n        /* \"#utility.yul\":8617:8621   */\n      dup2\n        /* \"#utility.yul\":8491:8622   */\n      tag_162\n      jump\t// in\n    tag_201:\n        /* \"#utility.yul\":8483:8622   */\n      swap1\n      pop\n        /* \"#utility.yul\":8210:8629   */\n      swap2\n      swap1\n      pop\n      jump\t// out\n        /* \"#utility.yul\":8635:9054   */\n    tag_60:\n        /* \"#utility.yul\":8801:8805   */\n      0x00\n        /* \"#utility.yul\":8839:8841   */\n      0x20\n        /* \"#utility.yul\":8828:8837   */\n      dup3\n        /* \"#utility.yul\":8824:8842   */\n      add\n        /* \"#utility.yul\":8816:8842   */\n      swap1\n      pop\n        /* \"#utility.yul\":8888:8897   */\n      dup2\n        /* \"#utility.yul\":8882:8886   */\n      dup2\n        /* \"#utility.yul\":8878:8898   */\n      sub\n        /* \"#utility.yul\":8874:8875   */\n      0x00\n        /* \"#utility.yul\":8863:8872   */\n      dup4\n        /* \"#utility.yul\":8859:8876   */\n      add\n        /* \"#utility.yul\":8852:8899   */\n      mstore\n        /* \"#utility.yul\":8916:9047   */\n      tag_203\n        /* \"#utility.yul\":9042:9046   */\n      dup2\n        /* \"#utility.yul\":8916:9047   */\n      tag_167\n      jump\t// in\n    tag_203:\n        /* \"#utility.yul\":8908:9047   */\n      swap1\n      pop\n        /* \"#utility.yul\":8635:9054   */\n      swap2\n      swap1\n      pop\n      jump\t// out\n        /* \"#utility.yul\":9060:9479   */\n    tag_63:\n        /* \"#utility.yul\":9226:9230   */\n      0x00\n        /* \"#utility.yul\":9264:9266   */\n      0x20\n        /* \"#utility.yul\":9253:9262   */\n      dup3\n        /* \"#utility.yul\":9249:9267   */\n      add\n        /* \"#utility.yul\":9241:9267   */\n      swap1\n      pop\n        /* \"#utility.yul\":9313:9322   */\n      dup2\n        /* \"#utility.yul\":9307:9311   */\n      dup2\n        /* \"#utility.yul\":9303:9323   */\n      sub\n        /* \"#utility.yul\":9299:9300   */\n      0x00\n        /* \"#utility.yul\":9288:9297   */\n      dup4\n        /* \"#utility.yul\":9284:9301   */\n      add\n        /* \"#utility.yul\":9277:9324   */\n      mstore\n        /* \"#utility.yul\":9341:9472   */\n      tag_205\n        /* \"#utility.yul\":9467:9471   */\n      dup2\n        /* \"#utility.yul\":9341:9472   */\n      tag_172\n      jump\t// in\n    tag_205:\n        /* \"#utility.yul\":9333:9472   */\n      swap1\n      pop\n        /* \"#utility.yul\":9060:9479   */\n      swap2\n      swap1\n      pop\n      jump\t// out\n        /* \"#utility.yul\":9485:9904   */\n    tag_93:\n        /* \"#utility.yul\":9651:9655   */\n      0x00\n        /* \"#utility.yul\":9689:9691   */\n      0x20\n        /* \"#utility.yul\":9678:9687   */\n      dup3\n        /* \"#utility.yul\":9674:9692   */\n      add\n        /* \"#utility.yul\":9666:9692   */\n      swap1\n      pop\n        /* \"#utility.yul\":9738:9747   */\n      dup2\n        /* \"#utility.yul\":9732:9736   */\n      dup2\n        /* \"#utility.yul\":9728:9748   */\n      sub\n        /* \"#utility.yul\":9724:9725   */\n      0x00\n        /* \"#utility.yul\":9713:9722   */\n      dup4\n        /* \"#utility.yul\":9709:9726   */\n      add\n        /* \"#utility.yul\":9702:9749   */\n      mstore\n        /* \"#utility.yul\":9766:9897   */\n      tag_207\n        /* \"#utility.yul\":9892:9896   */\n      dup2\n        /* \"#utility.yul\":9766:9897   */\n      tag_177\n      jump\t// in\n    tag_207:\n        /* \"#utility.yul\":9758:9897   */\n      swap1\n      pop\n        /* \"#utility.yul\":9485:9904   */\n      swap2\n      swap1\n      pop\n      jump\t// out\n        /* \"#utility.yul\":9910:10132   */\n    tag_16:\n        /* \"#utility.yul\":10003:10007   */\n      0x00\n        /* \"#utility.yul\":10041:10043   */\n      0x20\n        /* \"#utility.yul\":10030:10039   */\n      dup3\n        /* \"#utility.yul\":10026:10044   */\n      add\n        /* \"#utility.yul\":10018:10044   */\n      swap1\n      pop\n        /* \"#utility.yul\":10054:10125   */\n      tag_209\n        /* \"#utility.yul\":10122:10123   */\n      0x00\n        /* \"#utility.yul\":10111:10120   */\n      dup4\n        /* \"#utility.yul\":10107:10124   */\n      add\n        /* \"#utility.yul\":10098:10104   */\n      dup5\n        /* \"#utility.yul\":10054:10125   */\n      tag_182\n      jump\t// in\n    tag_209:\n        /* \"#utility.yul\":9910:10132   */\n      swap3\n      swap2\n      pop\n      pop\n      jump\t// out\n        /* \"#utility.yul\":10138:10691   */\n    tag_97:\n        /* \"#utility.yul\":10315:10319   */\n      0x00\n        /* \"#utility.yul\":10353:10356   */\n      0x80\n        /* \"#utility.yul\":10342:10351   */\n      dup3\n        /* \"#utility.yul\":10338:10357   */\n      add\n        /* \"#utility.yul\":10330:10357   */\n      swap1\n      pop\n        /* \"#utility.yul\":10367:10438   */\n      tag_211\n        /* \"#utility.yul\":10435:10436   */\n      0x00\n        /* \"#utility.yul\":10424:10433   */\n      dup4\n        /* \"#utility.yul\":10420:10437   */\n      add\n        /* \"#utility.yul\":10411:10417   */\n      dup8\n        /* \"#utility.yul\":10367:10438   */\n      tag_182\n      jump\t// in\n    tag_211:\n        /* \"#utility.yul\":10448:10520   */\n      tag_212\n        /* \"#utility.yul\":10516:10518   */\n      0x20\n        /* \"#utility.yul\":10505:10514   */\n      dup4\n        /* \"#utility.yul\":10501:10519   */\n      add\n        /* \"#utility.yul\":10492:10498   */\n      dup7\n        /* \"#utility.yul\":10448:10520   */\n      tag_182\n      jump\t// in\n    tag_212:\n        /* \"#utility.yul\":10530:10602   */\n      tag_213\n        /* \"#utility.yul\":10598:10600   */\n      0x40\n        /* \"#utility.yul\":10587:10596   */\n      dup4\n        /* \"#utility.yul\":10583:10601   */\n      add\n        /* \"#utility.yul\":10574:10580   */\n      dup6\n        /* \"#utility.yul\":10530:10602   */\n      tag_182\n      jump\t// in\n    tag_213:\n        /* \"#utility.yul\":10612:10684   */\n      tag_214\n        /* \"#utility.yul\":10680:10682   */\n      0x60\n        /* \"#utility.yul\":10669:10678   */\n      dup4\n        /* \"#utility.yul\":10665:10683   */\n      add\n        /* \"#utility.yul\":10656:10662   */\n      dup5\n        /* \"#utility.yul\":10612:10684   */\n      tag_133\n      jump\t// in\n    tag_214:\n        /* \"#utility.yul\":10138:10691   */\n      swap6\n      swap5\n      pop\n      pop\n      pop\n      pop\n      pop\n      jump\t// out\n        /* \"#utility.yul\":10697:11353   */\n    tag_78:\n        /* \"#utility.yul\":10898:10902   */\n      0x00\n        /* \"#utility.yul\":10936:10939   */\n      0xa0\n        /* \"#utility.yul\":10925:10934   */\n      dup3\n        /* \"#utility.yul\":10921:10940   */\n      add\n        /* \"#utility.yul\":10913:10940   */\n      swap1\n      pop\n        /* \"#utility.yul\":10950:11021   */\n      tag_216\n        /* \"#utility.yul\":11018:11019   */\n      0x00\n        /* \"#utility.yul\":11007:11016   */\n      dup4\n        /* \"#utility.yul\":11003:11020   */\n      add\n        /* \"#utility.yul\":10994:11000   */\n      dup9\n        /* \"#utility.yul\":10950:11021   */\n      tag_182\n      jump\t// in\n    tag_216:\n        /* \"#utility.yul\":11031:11103   */\n      tag_217\n        /* \"#utility.yul\":11099:11101   */\n      0x20\n        /* \"#utility.yul\":11088:11097   */\n      dup4\n        /* \"#utility.yul\":11084:11102   */\n      add\n        /* \"#utility.yul\":11075:11081   */\n      dup8\n        /* \"#utility.yul\":11031:11103   */\n      tag_182\n      jump\t// in\n    tag_217:\n        /* \"#utility.yul\":11113:11185   */\n      tag_218\n        /* \"#utility.yul\":11181:11183   */\n      0x40\n        /* \"#utility.yul\":11170:11179   */\n      dup4\n        /* \"#utility.yul\":11166:11184   */\n      add\n        /* \"#utility.yul\":11157:11163   */\n      dup7\n        /* \"#utility.yul\":11113:11185   */\n      tag_182\n      jump\t// in\n    tag_218:\n        /* \"#utility.yul\":11195:11267   */\n      tag_219\n        /* \"#utility.yul\":11263:11265   */\n      0x60\n        /* \"#utility.yul\":11252:11261   */\n      dup4\n        /* \"#utility.yul\":11248:11266   */\n      add\n        /* \"#utility.yul\":11239:11245   */\n      dup6\n        /* \"#utility.yul\":11195:11267   */\n      tag_133\n      jump\t// in\n    tag_219:\n        /* \"#utility.yul\":11277:11346   */\n      tag_220\n        /* \"#utility.yul\":11341:11344   */\n      0x80\n        /* \"#utility.yul\":11330:11339   */\n      dup4\n        /* \"#utility.yul\":11326:11345   */\n      add\n        /* \"#utility.yul\":11317:11323   */\n      dup5\n        /* \"#utility.yul\":11277:11346   */\n      tag_186\n      jump\t// in\n    tag_220:\n        /* \"#utility.yul\":10697:11353   */\n      swap7\n      swap6\n      pop\n      pop\n      pop\n      pop\n      pop\n      pop\n      jump\t// out\n        /* \"#utility.yul\":11359:11904   */\n    tag_85:\n        /* \"#utility.yul\":11532:11536   */\n      0x00\n        /* \"#utility.yul\":11570:11573   */\n      0x80\n        /* \"#utility.yul\":11559:11568   */\n      dup3\n        /* \"#utility.yul\":11555:11574   */\n      add\n        /* \"#utility.yul\":11547:11574   */\n      swap1\n      pop\n        /* \"#utility.yul\":11584:11655   */\n      tag_222\n        /* \"#utility.yul\":11652:11653   */\n      0x00\n        /* \"#utility.yul\":11641:11650   */\n      dup4\n        /* \"#utility.yul\":11637:11654   */\n      add\n        /* \"#utility.yul\":11628:11634   */\n      dup8\n        /* \"#utility.yul\":11584:11655   */\n      tag_182\n      jump\t// in\n    tag_222:\n        /* \"#utility.yul\":11665:11737   */\n      tag_223\n        /* \"#utility.yul\":11733:11735   */\n      0x20\n        /* \"#utility.yul\":11722:11731   */\n      dup4\n        /* \"#utility.yul\":11718:11736   */\n      add\n        /* \"#utility.yul\":11709:11715   */\n      dup7\n        /* \"#utility.yul\":11665:11737   */\n      tag_182\n      jump\t// in\n    tag_223:\n        /* \"#utility.yul\":11747:11819   */\n      tag_224\n        /* \"#utility.yul\":11815:11817   */\n      0x40\n        /* \"#utility.yul\":11804:11813   */\n      dup4\n        /* \"#utility.yul\":11800:11818   */\n      add\n        /* \"#utility.yul\":11791:11797   */\n      dup6\n        /* \"#utility.yul\":11747:11819   */\n      tag_182\n      jump\t// in\n    tag_224:\n        /* \"#utility.yul\":11829:11897   */\n      tag_225\n        /* \"#utility.yul\":11893:11895   */\n      0x60\n        /* \"#utility.yul\":11882:11891   */\n      dup4\n        /* \"#utility.yul\":11878:11896   */\n      add\n        /* \"#utility.yul\":11869:11875   */\n      dup5\n        /* \"#utility.yul\":11829:11897   */\n      tag_186\n      jump\t// in\n    tag_225:\n        /* \"#utility.yul\":11359:11904   */\n      swap6\n      swap5\n      pop\n      pop\n      pop\n      pop\n      pop\n      jump\t// out\n        /* \"#utility.yul\":11991:12160   */\n    tag_144:\n        /* \"#utility.yul\":12075:12086   */\n      0x00\n        /* \"#utility.yul\":12109:12115   */\n      dup3\n        /* \"#utility.yul\":12104:12107   */\n      dup3\n        /* \"#utility.yul\":12097:12116   */\n      mstore\n        /* \"#utility.yul\":12149:12153   */\n      0x20\n        /* \"#utility.yul\":12144:12147   */\n      dup3\n        /* \"#utility.yul\":12140:12154   */\n      add\n        /* \"#utility.yul\":12125:12154   */\n      swap1\n      pop\n        /* \"#utility.yul\":11991:12160   */\n      swap3\n      swap2\n      pop\n      pop\n      jump\t// out\n        /* \"#utility.yul\":12166:12262   */\n    tag_136:\n        /* \"#utility.yul\":12203:12210   */\n      0x00\n        /* \"#utility.yul\":12232:12256   */\n      tag_230\n        /* \"#utility.yul\":12250:12255   */\n      dup3\n        /* \"#utility.yul\":12232:12256   */\n      tag_231\n      jump\t// in\n    tag_230:\n        /* \"#utility.yul\":12221:12256   */\n      swap1\n      pop\n        /* \"#utility.yul\":12166:12262   */\n      swap2\n      swap1\n      pop\n      jump\t// out\n        /* \"#utility.yul\":12268:12411   */\n    tag_232:\n        /* \"#utility.yul\":12321:12328   */\n      0x00\n        /* \"#utility.yul\":12350:12355   */\n      dup2\n        /* \"#utility.yul\":12339:12355   */\n      swap1\n      pop\n        /* \"#utility.yul\":12356:12405   */\n      tag_234\n        /* \"#utility.yul\":12399:12404   */\n      dup3\n        /* \"#utility.yul\":12356:12405   */\n      tag_235\n      jump\t// in\n    tag_234:\n        /* \"#utility.yul\":12268:12411   */\n      swap2\n      swap1\n      pop\n      jump\t// out\n        /* \"#utility.yul\":12417:12543   */\n    tag_231:\n        /* \"#utility.yul\":12454:12461   */\n      0x00\n        /* \"#utility.yul\":12494:12536   */\n      0xffffffffffffffffffffffffffffffffffffffff\n        /* \"#utility.yul\":12487:12492   */\n      dup3\n        /* \"#utility.yul\":12483:12537   */\n      and\n        /* \"#utility.yul\":12472:12537   */\n      swap1\n      pop\n        /* \"#utility.yul\":12417:12543   */\n      swap2\n      swap1\n      pop\n      jump\t// out\n        /* \"#utility.yul\":12549:12626   */\n    tag_185:\n        /* \"#utility.yul\":12586:12593   */\n      0x00\n        /* \"#utility.yul\":12615:12620   */\n      dup2\n        /* \"#utility.yul\":12604:12620   */\n      swap1\n      pop\n        /* \"#utility.yul\":12549:12626   */\n      swap2\n      swap1\n      pop\n      jump\t// out\n        /* \"#utility.yul\":12632:12718   */\n    tag_189:\n        /* \"#utility.yul\":12667:12674   */\n      0x00\n        /* \"#utility.yul\":12707:12711   */\n      0xff\n        /* \"#utility.yul\":12700:12705   */\n      dup3\n        /* \"#utility.yul\":12696:12712   */\n      and\n        /* \"#utility.yul\":12685:12712   */\n      swap1\n      pop\n        /* \"#utility.yul\":12632:12718   */\n      swap2\n      swap1\n      pop\n      jump\t// out\n        /* \"#utility.yul\":12724:12867   */\n    tag_140:\n        /* \"#utility.yul\":12788:12797   */\n      0x00\n        /* \"#utility.yul\":12821:12861   */\n      tag_240\n        /* \"#utility.yul\":12855:12860   */\n      dup3\n        /* \"#utility.yul\":12821:12861   */\n      tag_232\n      jump\t// in\n    tag_240:\n        /* \"#utility.yul\":12808:12861   */\n      swap1\n      pop\n        /* \"#utility.yul\":12724:12867   */\n      swap2\n      swap1\n      pop\n      jump\t// out\n        /* \"#utility.yul\":12873:13106   */\n    tag_73:\n        /* \"#utility.yul\":12912:12915   */\n      0x00\n        /* \"#utility.yul\":12935:12959   */\n      tag_242\n        /* \"#utility.yul\":12953:12958   */\n      dup3\n        /* \"#utility.yul\":12935:12959   */\n      tag_185\n      jump\t// in\n    tag_242:\n        /* \"#utility.yul\":12926:12959   */\n      swap2\n      pop\n        /* \"#utility.yul\":12981:13047   */\n      0xffffffffffffffffffffffffffffffffffffffffffffffffffffffffffffffff\n        /* \"#utility.yul\":12974:12979   */\n      dup3\n        /* \"#utility.yul\":12971:13048   */\n      eq\n        /* \"#utility.yul\":12968:13071   */\n      iszero\n      tag_243\n      jumpi\n        /* \"#utility.yul\":13051:13069   */\n      tag_244\n      tag_245\n      jump\t// in\n    tag_244:\n        /* \"#utility.yul\":12968:13071   */\n    tag_243:\n        /* \"#utility.yul\":13098:13099   */\n      0x01\n        /* \"#utility.yul\":13091:13096   */\n      dup3\n        /* \"#utility.yul\":13087:13100   */\n      add\n        /* \"#utility.yul\":13080:13100   */\n      swap1\n      pop\n        /* \"#utility.yul\":12873:13106   */\n      swap2\n      swap1\n      pop\n      jump\t// out\n        /* \"#utility.yul\":13112:13292   */\n    tag_245:\n        /* \"#utility.yul\":13160:13237   */\n      0x4e487b7100000000000000000000000000000000000000000000000000000000\n        /* \"#utility.yul\":13157:13158   */\n      0x00\n        /* \"#utility.yul\":13150:13238   */\n      mstore\n        /* \"#utility.yul\":13257:13261   */\n      0x11\n        /* \"#utility.yul\":13254:13255   */\n      0x04\n        /* \"#utility.yul\":13247:13262   */\n      mstore\n        /* \"#utility.yul\":13281:13285   */\n      0x24\n        /* \"#utility.yul\":13278:13279   */\n      0x00\n        /* \"#utility.yul\":13271:13286   */\n      revert\n        /* \"#utility.yul\":13298:13478   */\n    tag_48:\n        /* \"#utility.yul\":13346:13423   */\n      0x4e487b7100000000000000000000000000000000000000000000000000000000\n        /* \"#utility.yul\":13343:13344   */\n      0x00\n        /* \"#utility.yul\":13336:13424   */\n      mstore\n        /* \"#utility.yul\":13443:13447   */\n      0x21\n        /* \"#utility.yul\":13440:13441   */\n      0x04\n        /* \"#utility.yul\":13433:13448   */\n      mstore\n        /* \"#utility.yul\":13467:13471   */\n      0x24\n        /* \"#utility.yul\":13464:13465   */\n      0x00\n        /* \"#utility.yul\":13457:13472   */\n      revert\n        /* \"#utility.yul\":13607:13724   */\n    tag_114:\n        /* \"#utility.yul\":13716:13717   */\n      0x00\n        /* \"#utility.yul\":13713:13714   */\n      dup1\n        /* \"#utility.yul\":13706:13718   */\n      revert\n        /* \"#utility.yul\":13730:14041   */\n    tag_146:\n        /* \"#utility.yul\":13870:13904   */\n      0x596f752068617665206e6f7420696e707574206120726967687420766f74652e\n        /* \"#utility.yul\":13866:13867   */\n      0x00\n        /* \"#utility.yul\":13858:13864   */\n      dup3\n        /* \"#utility.yul\":13854:13868   */\n      add\n        /* \"#utility.yul\":13847:13905   */\n      mstore\n        /* \"#utility.yul\":13939:13973   */\n      0x20596f752063616e2065697468657220766f7465203120666f72205265717565\n        /* \"#utility.yul\":13934:13936   */\n      0x20\n        /* \"#utility.yul\":13926:13932   */\n      dup3\n        /* \"#utility.yul\":13922:13937   */\n      add\n        /* \"#utility.yul\":13915:13974   */\n      mstore\n        /* \"#utility.yul\":14008:14033   */\n      0x73746572206f72203220666f722050726f76696465722e000000000000000000\n        /* \"#utility.yul\":14003:14005   */\n      0x40\n        /* \"#utility.yul\":13995:14001   */\n      dup3\n        /* \"#utility.yul\":13991:14006   */\n      add\n        /* \"#utility.yul\":13984:14034   */\n      mstore\n        /* \"#utility.yul\":13730:14041   */\n      pop\n      jump\t// out\n        /* \"#utility.yul\":14047:14279   */\n    tag_151:\n        /* \"#utility.yul\":14187:14221   */\n      0x596f75206861766520616c726561647920766f7465642c20796f752063616e6e\n        /* \"#utility.yul\":14183:14184   */\n      0x00\n        /* \"#utility.yul\":14175:14181   */\n      dup3\n        /* \"#utility.yul\":14171:14185   */\n      add\n        /* \"#utility.yul\":14164:14222   */\n      mstore\n        /* \"#utility.yul\":14256:14271   */\n      0x6f7420766f746520616761696e00000000000000000000000000000000000000\n        /* \"#utility.yul\":14251:14253   */\n      0x20\n        /* \"#utility.yul\":14243:14249   */\n      dup3\n        /* \"#utility.yul\":14239:14254   */\n      add\n        /* \"#utility.yul\":14232:14272   */\n      mstore\n        /* \"#utility.yul\":14047:14279   */\n      pop\n      jump\t// out\n        /* \"#utility.yul\":14285:14520   */\n    tag_156:\n        /* \"#utility.yul\":14425:14459   */\n      0x596f7520726169736564207468697320636f6e666c6963742e20596f75206361\n        /* \"#utility.yul\":14421:14422   */\n      0x00\n        /* \"#utility.yul\":14413:14419   */\n      dup3\n        /* \"#utility.yul\":14409:14423   */\n      add\n        /* \"#utility.yul\":14402:14460   */\n      mstore\n        /* \"#utility.yul\":14494:14512   */\n      0x6e6e6f7420766f7465206f6e2069742e00000000000000000000000000000000\n        /* \"#utility.yul\":14489:14491   */\n      0x20\n        /* \"#utility.yul\":14481:14487   */\n      dup3\n        /* \"#utility.yul\":14477:14492   */\n      add\n        /* \"#utility.yul\":14470:14513   */\n      mstore\n        /* \"#utility.yul\":14285:14520   */\n      pop\n      jump\t// out\n        /* \"#utility.yul\":14526:14774   */\n    tag_161:\n        /* \"#utility.yul\":14666:14700   */\n      0x566f74696e6720686173206e6f74206265656e20636f6d706c65746564207965\n        /* \"#utility.yul\":14662:14663   */\n      0x00\n        /* \"#utility.yul\":14654:14660   */\n      dup3\n        /* \"#utility.yul\":14650:14664   */\n      add\n        /* \"#utility.yul\":14643:14701   */\n      mstore\n        /* \"#utility.yul\":14735:14766   */\n      0x742e20506c65617365207761697420666f7220697420746f20656e642e000000\n        /* \"#utility.yul\":14730:14732   */\n      0x20\n        /* \"#utility.yul\":14722:14728   */\n      dup3\n        /* \"#utility.yul\":14718:14733   */\n      add\n        /* \"#utility.yul\":14711:14767   */\n      mstore\n        /* \"#utility.yul\":14526:14774   */\n      pop\n      jump\t// out\n        /* \"#utility.yul\":14780:15078   */\n    tag_166:\n        /* \"#utility.yul\":14920:14954   */\n      0x4e6f742065766572796f6e652068617320766f7465642c20706c656173652070\n        /* \"#utility.yul\":14916:14917   */\n      0x00\n        /* \"#utility.yul\":14908:14914   */\n      dup3\n        /* \"#utility.yul\":14904:14918   */\n      add\n        /* \"#utility.yul\":14897:14955   */\n      mstore\n        /* \"#utility.yul\":14989:15023   */\n      0x726f6d707420616c6c206f74686572206d656d62657273206f662070726f6a65\n        /* \"#utility.yul\":14984:14986   */\n      0x20\n        /* \"#utility.yul\":14976:14982   */\n      dup3\n        /* \"#utility.yul\":14972:14987   */\n      add\n        /* \"#utility.yul\":14965:15024   */\n      mstore\n        /* \"#utility.yul\":15058:15070   */\n      0x637420746f20766f746500000000000000000000000000000000000000000000\n        /* \"#utility.yul\":15053:15055   */\n      0x40\n        /* \"#utility.yul\":15045:15051   */\n      dup3\n        /* \"#utility.yul\":15041:15056   */\n      add\n        /* \"#utility.yul\":15034:15071   */\n      mstore\n        /* \"#utility.yul\":14780:15078   */\n      pop\n      jump\t// out\n        /* \"#utility.yul\":15084:15328   */\n    tag_171:\n        /* \"#utility.yul\":15224:15258   */\n      0x596f752061726520696e766f6c76656420696e207468697320636f6e666c6963\n        /* \"#utility.yul\":15220:15221   */\n      0x00\n        /* \"#utility.yul\":15212:15218   */\n      dup3\n        /* \"#utility.yul\":15208:15222   */\n      add\n        /* \"#utility.yul\":15201:15259   */\n      mstore\n        /* \"#utility.yul\":15293:15320   */\n      0x742e20596f752063616e6e6f7420766f7465206f6e2069742e00000000000000\n        /* \"#utility.yul\":15288:15290   */\n      0x20\n        /* \"#utility.yul\":15280:15286   */\n      dup3\n        /* \"#utility.yul\":15276:15291   */\n      add\n        /* \"#utility.yul\":15269:15321   */\n      mstore\n        /* \"#utility.yul\":15084:15328   */\n      pop\n      jump\t// out\n        /* \"#utility.yul\":15334:15516   */\n    tag_176:\n        /* \"#utility.yul\":15474:15508   */\n      0x456e6f75676820766f7465732068617665206265656e20636f6c6c6563746564\n        /* \"#utility.yul\":15470:15471   */\n      0x00\n        /* \"#utility.yul\":15462:15468   */\n      dup3\n        /* \"#utility.yul\":15458:15472   */\n      add\n        /* \"#utility.yul\":15451:15509   */\n      mstore\n        /* \"#utility.yul\":15334:15516   */\n      pop\n      jump\t// out\n        /* \"#utility.yul\":15522:15823   */\n    tag_181:\n        /* \"#utility.yul\":15662:15696   */\n      0x436f6e666c6963742068617320616c7265616479206265656e20637265617465\n        /* \"#utility.yul\":15658:15659   */\n      0x00\n        /* \"#utility.yul\":15650:15656   */\n      dup3\n        /* \"#utility.yul\":15646:15660   */\n      add\n        /* \"#utility.yul\":15639:15697   */\n      mstore\n        /* \"#utility.yul\":15731:15765   */\n      0x642e20506c6561736520646f206e6f7420637265617465206d6f726520746861\n        /* \"#utility.yul\":15726:15728   */\n      0x20\n        /* \"#utility.yul\":15718:15724   */\n      dup3\n        /* \"#utility.yul\":15714:15729   */\n      add\n        /* \"#utility.yul\":15707:15766   */\n      mstore\n        /* \"#utility.yul\":15800:15815   */\n      0x6e203120636f6e666c6963742e00000000000000000000000000000000000000\n        /* \"#utility.yul\":15795:15797   */\n      0x40\n        /* \"#utility.yul\":15787:15793   */\n      dup3\n        /* \"#utility.yul\":15783:15798   */\n      add\n        /* \"#utility.yul\":15776:15816   */\n      mstore\n        /* \"#utility.yul\":15522:15823   */\n      pop\n      jump\t// out\n        /* \"#utility.yul\":15829:15950   */\n    tag_235:\n        /* \"#utility.yul\":15918:15919   */\n      0x03\n        /* \"#utility.yul\":15911:15916   */\n      dup2\n        /* \"#utility.yul\":15908:15920   */\n      lt\n        /* \"#utility.yul\":15898:15944   */\n      tag_260\n      jumpi\n        /* \"#utility.yul\":15924:15942   */\n      tag_261\n      tag_48\n      jump\t// in\n    tag_261:\n        /* \"#utility.yul\":15898:15944   */\n    tag_260:\n        /* \"#utility.yul\":15829:15950   */\n      pop\n      jump\t// out\n        /* \"#utility.yul\":15956:16078   */\n    tag_102:\n        /* \"#utility.yul\":16029:16053   */\n      tag_263\n        /* \"#utility.yul\":16047:16052   */\n      dup2\n        /* \"#utility.yul\":16029:16053   */\n      tag_136\n      jump\t// in\n    tag_263:\n        /* \"#utility.yul\":16022:16027   */\n      dup2\n        /* \"#utility.yul\":16019:16054   */\n      eq\n        /* \"#utility.yul\":16009:16072   */\n      tag_264\n      jumpi\n        /* \"#utility.yul\":16068:16069   */\n      0x00\n        /* \"#utility.yul\":16065:16066   */\n      dup1\n        /* \"#utility.yul\":16058:16070   */\n      revert\n        /* \"#utility.yul\":16009:16072   */\n    tag_264:\n        /* \"#utility.yul\":15956:16078   */\n      pop\n      jump\t// out\n        /* \"#utility.yul\":16084:16206   */\n    tag_106:\n        /* \"#utility.yul\":16157:16181   */\n      tag_266\n        /* \"#utility.yul\":16175:16180   */\n      dup2\n        /* \"#utility.yul\":16157:16181   */\n      tag_185\n      jump\t// in\n    tag_266:\n        /* \"#utility.yul\":16150:16155   */\n      dup2\n        /* \"#utility.yul\":16147:16182   */\n      eq\n        /* \"#utility.yul\":16137:16200   */\n      tag_267\n      jumpi\n        /* \"#utility.yul\":16196:16197   */\n      0x00\n        /* \"#utility.yul\":16193:16194   */\n      dup1\n        /* \"#utility.yul\":16186:16198   */\n      revert\n        /* \"#utility.yul\":16137:16200   */\n    tag_267:\n        /* \"#utility.yul\":16084:16206   */\n      pop\n      jump\t// out\n        /* \"#utility.yul\":16212:16330   */\n    tag_110:\n        /* \"#utility.yul\":16283:16305   */\n      tag_269\n        /* \"#utility.yul\":16299:16304   */\n      dup2\n        /* \"#utility.yul\":16283:16305   */\n      tag_189\n      jump\t// in\n    tag_269:\n        /* \"#utility.yul\":16276:16281   */\n      dup2\n        /* \"#utility.yul\":16273:16306   */\n      eq\n        /* \"#utility.yul\":16263:16324   */\n      tag_270\n      jumpi\n        /* \"#utility.yul\":16320:16321   */\n      0x00\n        /* \"#utility.yul\":16317:16318   */\n      dup1\n        /* \"#utility.yul\":16310:16322   */\n      revert\n        /* \"#utility.yul\":16263:16324   */\n    tag_270:\n        /* \"#utility.yul\":16212:16330   */\n      pop\n      jump\t// out\n\n    auxdata: 0xa2646970667358221220163e718a2df764bdbdf97e598b456971c6a15ac88a1cf470b2488f1c95723ce464736f6c63430008070033\n}\n",
				"bytecode": {
					"linkReferences": {},
					"object": "608060405234801561001057600080fd5b5061153b806100206000396000f3fe608060405234801561001057600080fd5b506004361061007d5760003560e01c80639ac788791161005b5780639ac78879146100fe578063cb4389ce1461012e578063e3d877181461015e578063fe074c111461018e5761007d565b80630366cef214610082578063153d0194146100b25780633c45fe31146100ce575b600080fd5b61009c60048036038101906100979190610c21565b6101aa565b6040516100a99190610fc5565b60405180910390f35b6100cc60048036038101906100c79190610cef565b610357565b005b6100e860048036038101906100e39190610c21565b6108cc565b6040516100f59190610fc5565b60405180910390f35b61011860048036038101906101139190610c21565b61090f565b6040516101259190610fc5565b60405180910390f35b61014860048036038101906101439190610c21565b610952565b6040516101559190610eaa565b60405180910390f35b61017860048036038101906101739190610c21565b6109a2565b6040516101859190610fc5565b60405180910390f35b6101a860048036038101906101a39190610c74565b6109e5565b005b6000806000858152602001908152602001600020600084815260200190815260200160002060008381526020019081526020016000206006015460008086815260200190815260200160002060008581526020019081526020016000206000848152602001908152602001600020600701541461025c576040517f08c379a000000000000000000000000000000000000000000000000000000000815260040161025390610f45565b60405180910390fd5b60028081111561026f5761026e6111b4565b5b6000808681526020019081526020016000206000858152602001908152602001600020600084815260200190815260200160002060050160009054906101000a900460ff1660028111156102c6576102c56111b4565b5b14610306576040517f08c379a00000000000000000000000000000000000000000000000000000000081526004016102fd90610f25565b60405180910390fd5b60008085815260200190815260200160002060008481526020019081526020016000206000838152602001908152602001600020600a0160019054906101000a900460ff1660ff1690509392505050565b3373ffffffffffffffffffffffffffffffffffffffff166000808681526020019081526020016000206000858152602001908152602001600020600084815260200190815260200160002060000160009054906101000a900473ffffffffffffffffffffffffffffffffffffffff1673ffffffffffffffffffffffffffffffffffffffff16141561041d576040517f08c379a000000000000000000000000000000000000000000000000000000000815260040161041490610f05565b60405180910390fd5b3373ffffffffffffffffffffffffffffffffffffffff166000808681526020019081526020016000206000858152602001908152602001600020600084815260200190815260200160002060010160009054906101000a900473ffffffffffffffffffffffffffffffffffffffff1673ffffffffffffffffffffffffffffffffffffffff1614156104e3576040517f08c379a00000000000000000000000000000000000000000000000000000000081526004016104da90610f65565b60405180910390fd5b6000808581526020019081526020016000206000848152602001908152602001600020600083815260200190815260200160002060060154600080868152602001908152602001600020600085815260200190815260200160002060008481526020019081526020016000206007015410610593576040517f08c379a000000000000000000000000000000000000000000000000000000000815260040161058a90610f85565b60405180910390fd5b600080600086815260200190815260200160002060008581526020019081526020016000206000848152602001908152602001600020600b0160003373ffffffffffffffffffffffffffffffffffffffff1673ffffffffffffffffffffffffffffffffffffffff16815260200190815260200160002060009054906101000a900460ff1660ff161461065a576040517f08c379a000000000000000000000000000000000000000000000000000000000815260040161065190610ee5565b60405180910390fd5b60018160ff16148061066f575060028160ff16145b6106ae576040517f08c379a00000000000000000000000000000000000000000000000000000000081526004016106a590610ec5565b60405180910390fd5b60008060008681526020019081526020016000206000858152602001908152602001600020600084815260200190815260200160002090508181600b0160003373ffffffffffffffffffffffffffffffffffffffff1673ffffffffffffffffffffffffffffffffffffffff16815260200190815260200160002060006101000a81548160ff021916908360ff16021790555060018260ff161415610767578060080160008154809291906107619061113c565b91905055505b60028260ff16141561078e578060090160008154809291906107889061113c565b91905055505b8060070160008154809291906107a39061113c565b91905055507f20211b974adbe11ce3687d51504ce7ef1fcfbb9c00405ba7aca7b283903f345a85858533866040516107df959493929190611025565b60405180910390a18060060154816007015414156108c55780600801548160090154111561082a57600281600a0160016101000a81548160ff021916908360ff160217905550610849565b600181600a0160016101000a81548160ff021916908360ff1602179055505b60028160050160006101000a81548160ff02191690836002811115610871576108706111b4565b5b02179055507fe59fdbc65a5dd63c529717c2a71d04b136038f05301755de242dd05990c0281485858584600a0160019054906101000a900460ff166040516108bc9493929190611078565b60405180910390a15b5050505050565b6000806000858152602001908152602001600020600084815260200190815260200160002060008381526020019081526020016000206007015490509392505050565b6000806000858152602001908152602001600020600084815260200190815260200160002060008381526020019081526020016000206009015490509392505050565b60008060008581526020019081526020016000206000848152602001908152602001600020600083815260200190815260200160002060050160009054906101000a900460ff1690509392505050565b6000806000858152602001908152602001600020600084815260200190815260200160002060008381526020019081526020016000206008015490509392505050565b6001151560008087815260200190815260200160002060008681526020019081526020016000206000858152602001908152602001600020600a0160009054906101000a900460ff1615151415610a71576040517f08c379a0000000000000000000000000000000000000000000000000000000008152600401610a6890610fa5565b60405180910390fd5b6000806000878152602001908152602001600020600086815260200190815260200160002060008581526020019081526020016000209050338160000160006101000a81548173ffffffffffffffffffffffffffffffffffffffff021916908373ffffffffffffffffffffffffffffffffffffffff160217905550828160010160006101000a81548173ffffffffffffffffffffffffffffffffffffffff021916908373ffffffffffffffffffffffffffffffffffffffff160217905550838160020181905550848160030181905550858160040181905550600181600a0160006101000a81548160ff02191690831515021790555060018160050160006101000a81548160ff02191690836002811115610b8f57610b8e6111b4565b5b02179055508181600601819055507fc1617c5bbf96cace25a096d26ca0a119036155dc519dd9ef0ee51434015a5ac186868686604051610bd29493929190610fe0565b60405180910390a1505050505050565b600081359050610bf1816114c0565b92915050565b600081359050610c06816114d7565b92915050565b600081359050610c1b816114ee565b92915050565b600080600060608486031215610c3a57610c396111e3565b5b6000610c4886828701610bf7565b9350506020610c5986828701610bf7565b9250506040610c6a86828701610bf7565b9150509250925092565b600080600080600060a08688031215610c9057610c8f6111e3565b5b6000610c9e88828901610bf7565b9550506020610caf88828901610bf7565b9450506040610cc088828901610bf7565b9350506060610cd188828901610be2565b9250506080610ce288828901610bf7565b9150509295509295909350565b60008060008060808587031215610d0957610d086111e3565b5b6000610d1787828801610bf7565b9450506020610d2887828801610bf7565b9350506040610d3987828801610bf7565b9250506060610d4a87828801610c0c565b91505092959194509250565b610d5f816110ce565b82525050565b610d6e8161112a565b82525050565b6000610d816057836110bd565b9150610d8c826111e8565b606082019050919050565b6000610da4602d836110bd565b9150610daf8261125d565b604082019050919050565b6000610dc76030836110bd565b9150610dd2826112ac565b604082019050919050565b6000610dea603d836110bd565b9150610df5826112fb565b604082019050919050565b6000610e0d604a836110bd565b9150610e188261134a565b606082019050919050565b6000610e306039836110bd565b9150610e3b826113bf565b604082019050919050565b6000610e536020836110bd565b9150610e5e8261140e565b602082019050919050565b6000610e76604d836110bd565b9150610e8182611437565b606082019050919050565b610e9581611113565b82525050565b610ea48161111d565b82525050565b6000602082019050610ebf6000830184610d65565b92915050565b60006020820190508181036000830152610ede81610d74565b9050919050565b60006020820190508181036000830152610efe81610d97565b9050919050565b60006020820190508181036000830152610f1e81610dba565b9050919050565b60006020820190508181036000830152610f3e81610ddd565b9050919050565b60006020820190508181036000830152610f5e81610e00565b9050919050565b60006020820190508181036000830152610f7e81610e23565b9050919050565b60006020820190508181036000830152610f9e81610e46565b9050919050565b60006020820190508181036000830152610fbe81610e69565b9050919050565b6000602082019050610fda6000830184610e8c565b92915050565b6000608082019050610ff56000830187610e8c565b6110026020830186610e8c565b61100f6040830185610e8c565b61101c6060830184610d56565b95945050505050565b600060a08201905061103a6000830188610e8c565b6110476020830187610e8c565b6110546040830186610e8c565b6110616060830185610d56565b61106e6080830184610e9b565b9695505050505050565b600060808201905061108d6000830187610e8c565b61109a6020830186610e8c565b6110a76040830185610e8c565b6110b46060830184610e9b565b95945050505050565b600082825260208201905092915050565b60006110d9826110f3565b9050919050565b60008190506110ee826114ac565b919050565b600073ffffffffffffffffffffffffffffffffffffffff82169050919050565b6000819050919050565b600060ff82169050919050565b6000611135826110e0565b9050919050565b600061114782611113565b91507fffffffffffffffffffffffffffffffffffffffffffffffffffffffffffffffff82141561117a57611179611185565b5b600182019050919050565b7f4e487b7100000000000000000000000000000000000000000000000000000000600052601160045260246000fd5b7f4e487b7100000000000000000000000000000000000000000000000000000000600052602160045260246000fd5b600080fd5b7f596f752068617665206e6f7420696e707574206120726967687420766f74652e60008201527f20596f752063616e2065697468657220766f7465203120666f7220526571756560208201527f73746572206f72203220666f722050726f76696465722e000000000000000000604082015250565b7f596f75206861766520616c726561647920766f7465642c20796f752063616e6e60008201527f6f7420766f746520616761696e00000000000000000000000000000000000000602082015250565b7f596f7520726169736564207468697320636f6e666c6963742e20596f7520636160008201527f6e6e6f7420766f7465206f6e2069742e00000000000000000000000000000000602082015250565b7f566f74696e6720686173206e6f74206265656e20636f6d706c6574656420796560008201527f742e20506c65617365207761697420666f7220697420746f20656e642e000000602082015250565b7f4e6f742065766572796f6e652068617320766f7465642c20706c65617365207060008201527f726f6d707420616c6c206f74686572206d656d62657273206f662070726f6a6560208201527f637420746f20766f746500000000000000000000000000000000000000000000604082015250565b7f596f752061726520696e766f6c76656420696e207468697320636f6e666c696360008201527f742e20596f752063616e6e6f7420766f7465206f6e2069742e00000000000000602082015250565b7f456e6f75676820766f7465732068617665206265656e20636f6c6c6563746564600082015250565b7f436f6e666c6963742068617320616c7265616479206265656e2063726561746560008201527f642e20506c6561736520646f206e6f7420637265617465206d6f72652074686160208201527f6e203120636f6e666c6963742e00000000000000000000000000000000000000604082015250565b600381106114bd576114bc6111b4565b5b50565b6114c9816110ce565b81146114d457600080fd5b50565b6114e081611113565b81146114eb57600080fd5b50565b6114f78161111d565b811461150257600080fd5b5056fea2646970667358221220163e718a2df764bdbdf97e598b456971c6a15ac88a1cf470b2488f1c95723ce464736f6c63430008070033",
					"opcodes": "PUSH1 0x80 PUSH1 0x40 MSTORE CALLVALUE DUP1 ISZERO PUSH2 0x10 JUMPI PUSH1 0x0 DUP1 REVERT JUMPDEST POP PUSH2 0x153B DUP1 PUSH2 0x20 PUSH1 0x0 CODECOPY PUSH1 0x0 RETURN INVALID PUSH1 0x80 PUSH1 0x40 MSTORE CALLVALUE DUP1 ISZERO PUSH2 0x10 JUMPI PUSH1 0x0 DUP1 REVERT JUMPDEST POP PUSH1 0x4 CALLDATASIZE LT PUSH2 0x7D JUMPI PUSH1 0x0 CALLDATALOAD PUSH1 0xE0 SHR DUP1 PUSH4 0x9AC78879 GT PUSH2 0x5B JUMPI DUP1 PUSH4 0x9AC78879 EQ PUSH2 0xFE JUMPI DUP1 PUSH4 0xCB4389CE EQ PUSH2 0x12E JUMPI DUP1 PUSH4 0xE3D87718 EQ PUSH2 0x15E JUMPI DUP1 PUSH4 0xFE074C11 EQ PUSH2 0x18E JUMPI PUSH2 0x7D JUMP JUMPDEST DUP1 PUSH4 0x366CEF2 EQ PUSH2 0x82 JUMPI DUP1 PUSH4 0x153D0194 EQ PUSH2 0xB2 JUMPI DUP1 PUSH4 0x3C45FE31 EQ PUSH2 0xCE JUMPI JUMPDEST PUSH1 0x0 DUP1 REVERT JUMPDEST PUSH2 0x9C PUSH1 0x4 DUP1 CALLDATASIZE SUB DUP2 ADD SWAP1 PUSH2 0x97 SWAP2 SWAP1 PUSH2 0xC21 JUMP JUMPDEST PUSH2 0x1AA JUMP JUMPDEST PUSH1 0x40 MLOAD PUSH2 0xA9 SWAP2 SWAP1 PUSH2 0xFC5 JUMP JUMPDEST PUSH1 0x40 MLOAD DUP1 SWAP2 SUB SWAP1 RETURN JUMPDEST PUSH2 0xCC PUSH1 0x4 DUP1 CALLDATASIZE SUB DUP2 ADD SWAP1 PUSH2 0xC7 SWAP2 SWAP1 PUSH2 0xCEF JUMP JUMPDEST PUSH2 0x357 JUMP JUMPDEST STOP JUMPDEST PUSH2 0xE8 PUSH1 0x4 DUP1 CALLDATASIZE SUB DUP2 ADD SWAP1 PUSH2 0xE3 SWAP2 SWAP1 PUSH2 0xC21 JUMP JUMPDEST PUSH2 0x8CC JUMP JUMPDEST PUSH1 0x40 MLOAD PUSH2 0xF5 SWAP2 SWAP1 PUSH2 0xFC5 JUMP JUMPDEST PUSH1 0x40 MLOAD DUP1 SWAP2 SUB SWAP1 RETURN JUMPDEST PUSH2 0x118 PUSH1 0x4 DUP1 CALLDATASIZE SUB DUP2 ADD SWAP1 PUSH2 0x113 SWAP2 SWAP1 PUSH2 0xC21 JUMP JUMPDEST PUSH2 0x90F JUMP JUMPDEST PUSH1 0x40 MLOAD PUSH2 0x125 SWAP2 SWAP1 PUSH2 0xFC5 JUMP JUMPDEST PUSH1 0x40 MLOAD DUP1 SWAP2 SUB SWAP1 RETURN JUMPDEST PUSH2 0x148 PUSH1 0x4 DUP1 CALLDATASIZE SUB DUP2 ADD SWAP1 PUSH2 0x143 SWAP2 SWAP1 PUSH2 0xC21 JUMP JUMPDEST PUSH2 0x952 JUMP JUMPDEST PUSH1 0x40 MLOAD PUSH2 0x155 SWAP2 SWAP1 PUSH2 0xEAA JUMP JUMPDEST PUSH1 0x40 MLOAD DUP1 SWAP2 SUB SWAP1 RETURN JUMPDEST PUSH2 0x178 PUSH1 0x4 DUP1 CALLDATASIZE SUB DUP2 ADD SWAP1 PUSH2 0x173 SWAP2 SWAP1 PUSH2 0xC21 JUMP JUMPDEST PUSH2 0x9A2 JUMP JUMPDEST PUSH1 0x40 MLOAD PUSH2 0x185 SWAP2 SWAP1 PUSH2 0xFC5 JUMP JUMPDEST PUSH1 0x40 MLOAD DUP1 SWAP2 SUB SWAP1 RETURN JUMPDEST PUSH2 0x1A8 PUSH1 0x4 DUP1 CALLDATASIZE SUB DUP2 ADD SWAP1 PUSH2 0x1A3 SWAP2 SWAP1 PUSH2 0xC74 JUMP JUMPDEST PUSH2 0x9E5 JUMP JUMPDEST STOP JUMPDEST PUSH1 0x0 DUP1 PUSH1 0x0 DUP6 DUP2 MSTORE PUSH1 0x20 ADD SWAP1 DUP2 MSTORE PUSH1 0x20 ADD PUSH1 0x0 KECCAK256 PUSH1 0x0 DUP5 DUP2 MSTORE PUSH1 0x20 ADD SWAP1 DUP2 MSTORE PUSH1 0x20 ADD PUSH1 0x0 KECCAK256 PUSH1 0x0 DUP4 DUP2 MSTORE PUSH1 0x20 ADD SWAP1 DUP2 MSTORE PUSH1 0x20 ADD PUSH1 0x0 KECCAK256 PUSH1 0x6 ADD SLOAD PUSH1 0x0 DUP1 DUP7 DUP2 MSTORE PUSH1 0x20 ADD SWAP1 DUP2 MSTORE PUSH1 0x20 ADD PUSH1 0x0 KECCAK256 PUSH1 0x0 DUP6 DUP2 MSTORE PUSH1 0x20 ADD SWAP1 DUP2 MSTORE PUSH1 0x20 ADD PUSH1 0x0 KECCAK256 PUSH1 0x0 DUP5 DUP2 MSTORE PUSH1 0x20 ADD SWAP1 DUP2 MSTORE PUSH1 0x20 ADD PUSH1 0x0 KECCAK256 PUSH1 0x7 ADD SLOAD EQ PUSH2 0x25C JUMPI PUSH1 0x40 MLOAD PUSH32 0x8C379A000000000000000000000000000000000000000000000000000000000 DUP2 MSTORE PUSH1 0x4 ADD PUSH2 0x253 SWAP1 PUSH2 0xF45 JUMP JUMPDEST PUSH1 0x40 MLOAD DUP1 SWAP2 SUB SWAP1 REVERT JUMPDEST PUSH1 0x2 DUP1 DUP2 GT ISZERO PUSH2 0x26F JUMPI PUSH2 0x26E PUSH2 0x11B4 JUMP JUMPDEST JUMPDEST PUSH1 0x0 DUP1 DUP7 DUP2 MSTORE PUSH1 0x20 ADD SWAP1 DUP2 MSTORE PUSH1 0x20 ADD PUSH1 0x0 KECCAK256 PUSH1 0x0 DUP6 DUP2 MSTORE PUSH1 0x20 ADD SWAP1 DUP2 MSTORE PUSH1 0x20 ADD PUSH1 0x0 KECCAK256 PUSH1 0x0 DUP5 DUP2 MSTORE PUSH1 0x20 ADD SWAP1 DUP2 MSTORE PUSH1 0x20 ADD PUSH1 0x0 KECCAK256 PUSH1 0x5 ADD PUSH1 0x0 SWAP1 SLOAD SWAP1 PUSH2 0x100 EXP SWAP1 DIV PUSH1 0xFF AND PUSH1 0x2 DUP2 GT ISZERO PUSH2 0x2C6 JUMPI PUSH2 0x2C5 PUSH2 0x11B4 JUMP JUMPDEST JUMPDEST EQ PUSH2 0x306 JUMPI PUSH1 0x40 MLOAD PUSH32 0x8C379A000000000000000000000000000000000000000000000000000000000 DUP2 MSTORE PUSH1 0x4 ADD PUSH2 0x2FD SWAP1 PUSH2 0xF25 JUMP JUMPDEST PUSH1 0x40 MLOAD DUP1 SWAP2 SUB SWAP1 REVERT JUMPDEST PUSH1 0x0 DUP1 DUP6 DUP2 MSTORE PUSH1 0x20 ADD SWAP1 DUP2 MSTORE PUSH1 0x20 ADD PUSH1 0x0 KECCAK256 PUSH1 0x0 DUP5 DUP2 MSTORE PUSH1 0x20 ADD SWAP1 DUP2 MSTORE PUSH1 0x20 ADD PUSH1 0x0 KECCAK256 PUSH1 0x0 DUP4 DUP2 MSTORE PUSH1 0x20 ADD SWAP1 DUP2 MSTORE PUSH1 0x20 ADD PUSH1 0x0 KECCAK256 PUSH1 0xA ADD PUSH1 0x1 SWAP1 SLOAD SWAP1 PUSH2 0x100 EXP SWAP1 DIV PUSH1 0xFF AND PUSH1 0xFF AND SWAP1 POP SWAP4 SWAP3 POP POP POP JUMP JUMPDEST CALLER PUSH20 0xFFFFFFFFFFFFFFFFFFFFFFFFFFFFFFFFFFFFFFFF AND PUSH1 0x0 DUP1 DUP7 DUP2 MSTORE PUSH1 0x20 ADD SWAP1 DUP2 MSTORE PUSH1 0x20 ADD PUSH1 0x0 KECCAK256 PUSH1 0x0 DUP6 DUP2 MSTORE PUSH1 0x20 ADD SWAP1 DUP2 MSTORE PUSH1 0x20 ADD PUSH1 0x0 KECCAK256 PUSH1 0x0 DUP5 DUP2 MSTORE PUSH1 0x20 ADD SWAP1 DUP2 MSTORE PUSH1 0x20 ADD PUSH1 0x0 KECCAK256 PUSH1 0x0 ADD PUSH1 0x0 SWAP1 SLOAD SWAP1 PUSH2 0x100 EXP SWAP1 DIV PUSH20 0xFFFFFFFFFFFFFFFFFFFFFFFFFFFFFFFFFFFFFFFF AND PUSH20 0xFFFFFFFFFFFFFFFFFFFFFFFFFFFFFFFFFFFFFFFF AND EQ ISZERO PUSH2 0x41D JUMPI PUSH1 0x40 MLOAD PUSH32 0x8C379A000000000000000000000000000000000000000000000000000000000 DUP2 MSTORE PUSH1 0x4 ADD PUSH2 0x414 SWAP1 PUSH2 0xF05 JUMP JUMPDEST PUSH1 0x40 MLOAD DUP1 SWAP2 SUB SWAP1 REVERT JUMPDEST CALLER PUSH20 0xFFFFFFFFFFFFFFFFFFFFFFFFFFFFFFFFFFFFFFFF AND PUSH1 0x0 DUP1 DUP7 DUP2 MSTORE PUSH1 0x20 ADD SWAP1 DUP2 MSTORE PUSH1 0x20 ADD PUSH1 0x0 KECCAK256 PUSH1 0x0 DUP6 DUP2 MSTORE PUSH1 0x20 ADD SWAP1 DUP2 MSTORE PUSH1 0x20 ADD PUSH1 0x0 KECCAK256 PUSH1 0x0 DUP5 DUP2 MSTORE PUSH1 0x20 ADD SWAP1 DUP2 MSTORE PUSH1 0x20 ADD PUSH1 0x0 KECCAK256 PUSH1 0x1 ADD PUSH1 0x0 SWAP1 SLOAD SWAP1 PUSH2 0x100 EXP SWAP1 DIV PUSH20 0xFFFFFFFFFFFFFFFFFFFFFFFFFFFFFFFFFFFFFFFF AND PUSH20 0xFFFFFFFFFFFFFFFFFFFFFFFFFFFFFFFFFFFFFFFF AND EQ ISZERO PUSH2 0x4E3 JUMPI PUSH1 0x40 MLOAD PUSH32 0x8C379A000000000000000000000000000000000000000000000000000000000 DUP2 MSTORE PUSH1 0x4 ADD PUSH2 0x4DA SWAP1 PUSH2 0xF65 JUMP JUMPDEST PUSH1 0x40 MLOAD DUP1 SWAP2 SUB SWAP1 REVERT JUMPDEST PUSH1 0x0 DUP1 DUP6 DUP2 MSTORE PUSH1 0x20 ADD SWAP1 DUP2 MSTORE PUSH1 0x20 ADD PUSH1 0x0 KECCAK256 PUSH1 0x0 DUP5 DUP2 MSTORE PUSH1 0x20 ADD SWAP1 DUP2 MSTORE PUSH1 0x20 ADD PUSH1 0x0 KECCAK256 PUSH1 0x0 DUP4 DUP2 MSTORE PUSH1 0x20 ADD SWAP1 DUP2 MSTORE PUSH1 0x20 ADD PUSH1 0x0 KECCAK256 PUSH1 0x6 ADD SLOAD PUSH1 0x0 DUP1 DUP7 DUP2 MSTORE PUSH1 0x20 ADD SWAP1 DUP2 MSTORE PUSH1 0x20 ADD PUSH1 0x0 KECCAK256 PUSH1 0x0 DUP6 DUP2 MSTORE PUSH1 0x20 ADD SWAP1 DUP2 MSTORE PUSH1 0x20 ADD PUSH1 0x0 KECCAK256 PUSH1 0x0 DUP5 DUP2 MSTORE PUSH1 0x20 ADD SWAP1 DUP2 MSTORE PUSH1 0x20 ADD PUSH1 0x0 KECCAK256 PUSH1 0x7 ADD SLOAD LT PUSH2 0x593 JUMPI PUSH1 0x40 MLOAD PUSH32 0x8C379A000000000000000000000000000000000000000000000000000000000 DUP2 MSTORE PUSH1 0x4 ADD PUSH2 0x58A SWAP1 PUSH2 0xF85 JUMP JUMPDEST PUSH1 0x40 MLOAD DUP1 SWAP2 SUB SWAP1 REVERT JUMPDEST PUSH1 0x0 DUP1 PUSH1 0x0 DUP7 DUP2 MSTORE PUSH1 0x20 ADD SWAP1 DUP2 MSTORE PUSH1 0x20 ADD PUSH1 0x0 KECCAK256 PUSH1 0x0 DUP6 DUP2 MSTORE PUSH1 0x20 ADD SWAP1 DUP2 MSTORE PUSH1 0x20 ADD PUSH1 0x0 KECCAK256 PUSH1 0x0 DUP5 DUP2 MSTORE PUSH1 0x20 ADD SWAP1 DUP2 MSTORE PUSH1 0x20 ADD PUSH1 0x0 KECCAK256 PUSH1 0xB ADD PUSH1 0x0 CALLER PUSH20 0xFFFFFFFFFFFFFFFFFFFFFFFFFFFFFFFFFFFFFFFF AND PUSH20 0xFFFFFFFFFFFFFFFFFFFFFFFFFFFFFFFFFFFFFFFF AND DUP2 MSTORE PUSH1 0x20 ADD SWAP1 DUP2 MSTORE PUSH1 0x20 ADD PUSH1 0x0 KECCAK256 PUSH1 0x0 SWAP1 SLOAD SWAP1 PUSH2 0x100 EXP SWAP1 DIV PUSH1 0xFF AND PUSH1 0xFF AND EQ PUSH2 0x65A JUMPI PUSH1 0x40 MLOAD PUSH32 0x8C379A000000000000000000000000000000000000000000000000000000000 DUP2 MSTORE PUSH1 0x4 ADD PUSH2 0x651 SWAP1 PUSH2 0xEE5 JUMP JUMPDEST PUSH1 0x40 MLOAD DUP1 SWAP2 SUB SWAP1 REVERT JUMPDEST PUSH1 0x1 DUP2 PUSH1 0xFF AND EQ DUP1 PUSH2 0x66F JUMPI POP PUSH1 0x2 DUP2 PUSH1 0xFF AND EQ JUMPDEST PUSH2 0x6AE JUMPI PUSH1 0x40 MLOAD PUSH32 0x8C379A000000000000000000000000000000000000000000000000000000000 DUP2 MSTORE PUSH1 0x4 ADD PUSH2 0x6A5 SWAP1 PUSH2 0xEC5 JUMP JUMPDEST PUSH1 0x40 MLOAD DUP1 SWAP2 SUB SWAP1 REVERT JUMPDEST PUSH1 0x0 DUP1 PUSH1 0x0 DUP7 DUP2 MSTORE PUSH1 0x20 ADD SWAP1 DUP2 MSTORE PUSH1 0x20 ADD PUSH1 0x0 KECCAK256 PUSH1 0x0 DUP6 DUP2 MSTORE PUSH1 0x20 ADD SWAP1 DUP2 MSTORE PUSH1 0x20 ADD PUSH1 0x0 KECCAK256 PUSH1 0x0 DUP5 DUP2 MSTORE PUSH1 0x20 ADD SWAP1 DUP2 MSTORE PUSH1 0x20 ADD PUSH1 0x0 KECCAK256 SWAP1 POP DUP2 DUP2 PUSH1 0xB ADD PUSH1 0x0 CALLER PUSH20 0xFFFFFFFFFFFFFFFFFFFFFFFFFFFFFFFFFFFFFFFF AND PUSH20 0xFFFFFFFFFFFFFFFFFFFFFFFFFFFFFFFFFFFFFFFF AND DUP2 MSTORE PUSH1 0x20 ADD SWAP1 DUP2 MSTORE PUSH1 0x20 ADD PUSH1 0x0 KECCAK256 PUSH1 0x0 PUSH2 0x100 EXP DUP2 SLOAD DUP2 PUSH1 0xFF MUL NOT AND SWAP1 DUP4 PUSH1 0xFF AND MUL OR SWAP1 SSTORE POP PUSH1 0x1 DUP3 PUSH1 0xFF AND EQ ISZERO PUSH2 0x767 JUMPI DUP1 PUSH1 0x8 ADD PUSH1 0x0 DUP2 SLOAD DUP1 SWAP3 SWAP2 SWAP1 PUSH2 0x761 SWAP1 PUSH2 0x113C JUMP JUMPDEST SWAP2 SWAP1 POP SSTORE POP JUMPDEST PUSH1 0x2 DUP3 PUSH1 0xFF AND EQ ISZERO PUSH2 0x78E JUMPI DUP1 PUSH1 0x9 ADD PUSH1 0x0 DUP2 SLOAD DUP1 SWAP3 SWAP2 SWAP1 PUSH2 0x788 SWAP1 PUSH2 0x113C JUMP JUMPDEST SWAP2 SWAP1 POP SSTORE POP JUMPDEST DUP1 PUSH1 0x7 ADD PUSH1 0x0 DUP2 SLOAD DUP1 SWAP3 SWAP2 SWAP1 PUSH2 0x7A3 SWAP1 PUSH2 0x113C JUMP JUMPDEST SWAP2 SWAP1 POP SSTORE POP PUSH32 0x20211B974ADBE11CE3687D51504CE7EF1FCFBB9C00405BA7ACA7B283903F345A DUP6 DUP6 DUP6 CALLER DUP7 PUSH1 0x40 MLOAD PUSH2 0x7DF SWAP6 SWAP5 SWAP4 SWAP3 SWAP2 SWAP1 PUSH2 0x1025 JUMP JUMPDEST PUSH1 0x40 MLOAD DUP1 SWAP2 SUB SWAP1 LOG1 DUP1 PUSH1 0x6 ADD SLOAD DUP2 PUSH1 0x7 ADD SLOAD EQ ISZERO PUSH2 0x8C5 JUMPI DUP1 PUSH1 0x8 ADD SLOAD DUP2 PUSH1 0x9 ADD SLOAD GT ISZERO PUSH2 0x82A JUMPI PUSH1 0x2 DUP2 PUSH1 0xA ADD PUSH1 0x1 PUSH2 0x100 EXP DUP2 SLOAD DUP2 PUSH1 0xFF MUL NOT AND SWAP1 DUP4 PUSH1 0xFF AND MUL OR SWAP1 SSTORE POP PUSH2 0x849 JUMP JUMPDEST PUSH1 0x1 DUP2 PUSH1 0xA ADD PUSH1 0x1 PUSH2 0x100 EXP DUP2 SLOAD DUP2 PUSH1 0xFF MUL NOT AND SWAP1 DUP4 PUSH1 0xFF AND MUL OR SWAP1 SSTORE POP JUMPDEST PUSH1 0x2 DUP2 PUSH1 0x5 ADD PUSH1 0x0 PUSH2 0x100 EXP DUP2 SLOAD DUP2 PUSH1 0xFF MUL NOT AND SWAP1 DUP4 PUSH1 0x2 DUP2 GT ISZERO PUSH2 0x871 JUMPI PUSH2 0x870 PUSH2 0x11B4 JUMP JUMPDEST JUMPDEST MUL OR SWAP1 SSTORE POP PUSH32 0xE59FDBC65A5DD63C529717C2A71D04B136038F05301755DE242DD05990C02814 DUP6 DUP6 DUP6 DUP5 PUSH1 0xA ADD PUSH1 0x1 SWAP1 SLOAD SWAP1 PUSH2 0x100 EXP SWAP1 DIV PUSH1 0xFF AND PUSH1 0x40 MLOAD PUSH2 0x8BC SWAP5 SWAP4 SWAP3 SWAP2 SWAP1 PUSH2 0x1078 JUMP JUMPDEST PUSH1 0x40 MLOAD DUP1 SWAP2 SUB SWAP1 LOG1 JUMPDEST POP POP POP POP POP JUMP JUMPDEST PUSH1 0x0 DUP1 PUSH1 0x0 DUP6 DUP2 MSTORE PUSH1 0x20 ADD SWAP1 DUP2 MSTORE PUSH1 0x20 ADD PUSH1 0x0 KECCAK256 PUSH1 0x0 DUP5 DUP2 MSTORE PUSH1 0x20 ADD SWAP1 DUP2 MSTORE PUSH1 0x20 ADD PUSH1 0x0 KECCAK256 PUSH1 0x0 DUP4 DUP2 MSTORE PUSH1 0x20 ADD SWAP1 DUP2 MSTORE PUSH1 0x20 ADD PUSH1 0x0 KECCAK256 PUSH1 0x7 ADD SLOAD SWAP1 POP SWAP4 SWAP3 POP POP POP JUMP JUMPDEST PUSH1 0x0 DUP1 PUSH1 0x0 DUP6 DUP2 MSTORE PUSH1 0x20 ADD SWAP1 DUP2 MSTORE PUSH1 0x20 ADD PUSH1 0x0 KECCAK256 PUSH1 0x0 DUP5 DUP2 MSTORE PUSH1 0x20 ADD SWAP1 DUP2 MSTORE PUSH1 0x20 ADD PUSH1 0x0 KECCAK256 PUSH1 0x0 DUP4 DUP2 MSTORE PUSH1 0x20 ADD SWAP1 DUP2 MSTORE PUSH1 0x20 ADD PUSH1 0x0 KECCAK256 PUSH1 0x9 ADD SLOAD SWAP1 POP SWAP4 SWAP3 POP POP POP JUMP JUMPDEST PUSH1 0x0 DUP1 PUSH1 0x0 DUP6 DUP2 MSTORE PUSH1 0x20 ADD SWAP1 DUP2 MSTORE PUSH1 0x20 ADD PUSH1 0x0 KECCAK256 PUSH1 0x0 DUP5 DUP2 MSTORE PUSH1 0x20 ADD SWAP1 DUP2 MSTORE PUSH1 0x20 ADD PUSH1 0x0 KECCAK256 PUSH1 0x0 DUP4 DUP2 MSTORE PUSH1 0x20 ADD SWAP1 DUP2 MSTORE PUSH1 0x20 ADD PUSH1 0x0 KECCAK256 PUSH1 0x5 ADD PUSH1 0x0 SWAP1 SLOAD SWAP1 PUSH2 0x100 EXP SWAP1 DIV PUSH1 0xFF AND SWAP1 POP SWAP4 SWAP3 POP POP POP JUMP JUMPDEST PUSH1 0x0 DUP1 PUSH1 0x0 DUP6 DUP2 MSTORE PUSH1 0x20 ADD SWAP1 DUP2 MSTORE PUSH1 0x20 ADD PUSH1 0x0 KECCAK256 PUSH1 0x0 DUP5 DUP2 MSTORE PUSH1 0x20 ADD SWAP1 DUP2 MSTORE PUSH1 0x20 ADD PUSH1 0x0 KECCAK256 PUSH1 0x0 DUP4 DUP2 MSTORE PUSH1 0x20 ADD SWAP1 DUP2 MSTORE PUSH1 0x20 ADD PUSH1 0x0 KECCAK256 PUSH1 0x8 ADD SLOAD SWAP1 POP SWAP4 SWAP3 POP POP POP JUMP JUMPDEST PUSH1 0x1 ISZERO ISZERO PUSH1 0x0 DUP1 DUP8 DUP2 MSTORE PUSH1 0x20 ADD SWAP1 DUP2 MSTORE PUSH1 0x20 ADD PUSH1 0x0 KECCAK256 PUSH1 0x0 DUP7 DUP2 MSTORE PUSH1 0x20 ADD SWAP1 DUP2 MSTORE PUSH1 0x20 ADD PUSH1 0x0 KECCAK256 PUSH1 0x0 DUP6 DUP2 MSTORE PUSH1 0x20 ADD SWAP1 DUP2 MSTORE PUSH1 0x20 ADD PUSH1 0x0 KECCAK256 PUSH1 0xA ADD PUSH1 0x0 SWAP1 SLOAD SWAP1 PUSH2 0x100 EXP SWAP1 DIV PUSH1 0xFF AND ISZERO ISZERO EQ ISZERO PUSH2 0xA71 JUMPI PUSH1 0x40 MLOAD PUSH32 0x8C379A000000000000000000000000000000000000000000000000000000000 DUP2 MSTORE PUSH1 0x4 ADD PUSH2 0xA68 SWAP1 PUSH2 0xFA5 JUMP JUMPDEST PUSH1 0x40 MLOAD DUP1 SWAP2 SUB SWAP1 REVERT JUMPDEST PUSH1 0x0 DUP1 PUSH1 0x0 DUP8 DUP2 MSTORE PUSH1 0x20 ADD SWAP1 DUP2 MSTORE PUSH1 0x20 ADD PUSH1 0x0 KECCAK256 PUSH1 0x0 DUP7 DUP2 MSTORE PUSH1 0x20 ADD SWAP1 DUP2 MSTORE PUSH1 0x20 ADD PUSH1 0x0 KECCAK256 PUSH1 0x0 DUP6 DUP2 MSTORE PUSH1 0x20 ADD SWAP1 DUP2 MSTORE PUSH1 0x20 ADD PUSH1 0x0 KECCAK256 SWAP1 POP CALLER DUP2 PUSH1 0x0 ADD PUSH1 0x0 PUSH2 0x100 EXP DUP2 SLOAD DUP2 PUSH20 0xFFFFFFFFFFFFFFFFFFFFFFFFFFFFFFFFFFFFFFFF MUL NOT AND SWAP1 DUP4 PUSH20 0xFFFFFFFFFFFFFFFFFFFFFFFFFFFFFFFFFFFFFFFF AND MUL OR SWAP1 SSTORE POP DUP3 DUP2 PUSH1 0x1 ADD PUSH1 0x0 PUSH2 0x100 EXP DUP2 SLOAD DUP2 PUSH20 0xFFFFFFFFFFFFFFFFFFFFFFFFFFFFFFFFFFFFFFFF MUL NOT AND SWAP1 DUP4 PUSH20 0xFFFFFFFFFFFFFFFFFFFFFFFFFFFFFFFFFFFFFFFF AND MUL OR SWAP1 SSTORE POP DUP4 DUP2 PUSH1 0x2 ADD DUP2 SWAP1 SSTORE POP DUP5 DUP2 PUSH1 0x3 ADD DUP2 SWAP1 SSTORE POP DUP6 DUP2 PUSH1 0x4 ADD DUP2 SWAP1 SSTORE POP PUSH1 0x1 DUP2 PUSH1 0xA ADD PUSH1 0x0 PUSH2 0x100 EXP DUP2 SLOAD DUP2 PUSH1 0xFF MUL NOT AND SWAP1 DUP4 ISZERO ISZERO MUL OR SWAP1 SSTORE POP PUSH1 0x1 DUP2 PUSH1 0x5 ADD PUSH1 0x0 PUSH2 0x100 EXP DUP2 SLOAD DUP2 PUSH1 0xFF MUL NOT AND SWAP1 DUP4 PUSH1 0x2 DUP2 GT ISZERO PUSH2 0xB8F JUMPI PUSH2 0xB8E PUSH2 0x11B4 JUMP JUMPDEST JUMPDEST MUL OR SWAP1 SSTORE POP DUP2 DUP2 PUSH1 0x6 ADD DUP2 SWAP1 SSTORE POP PUSH32 0xC1617C5BBF96CACE25A096D26CA0A119036155DC519DD9EF0EE51434015A5AC1 DUP7 DUP7 DUP7 DUP7 PUSH1 0x40 MLOAD PUSH2 0xBD2 SWAP5 SWAP4 SWAP3 SWAP2 SWAP1 PUSH2 0xFE0 JUMP JUMPDEST PUSH1 0x40 MLOAD DUP1 SWAP2 SUB SWAP1 LOG1 POP POP POP POP POP POP JUMP JUMPDEST PUSH1 0x0 DUP2 CALLDATALOAD SWAP1 POP PUSH2 0xBF1 DUP2 PUSH2 0x14C0 JUMP JUMPDEST SWAP3 SWAP2 POP POP JUMP JUMPDEST PUSH1 0x0 DUP2 CALLDATALOAD SWAP1 POP PUSH2 0xC06 DUP2 PUSH2 0x14D7 JUMP JUMPDEST SWAP3 SWAP2 POP POP JUMP JUMPDEST PUSH1 0x0 DUP2 CALLDATALOAD SWAP1 POP PUSH2 0xC1B DUP2 PUSH2 0x14EE JUMP JUMPDEST SWAP3 SWAP2 POP POP JUMP JUMPDEST PUSH1 0x0 DUP1 PUSH1 0x0 PUSH1 0x60 DUP5 DUP7 SUB SLT ISZERO PUSH2 0xC3A JUMPI PUSH2 0xC39 PUSH2 0x11E3 JUMP JUMPDEST JUMPDEST PUSH1 0x0 PUSH2 0xC48 DUP7 DUP3 DUP8 ADD PUSH2 0xBF7 JUMP JUMPDEST SWAP4 POP POP PUSH1 0x20 PUSH2 0xC59 DUP7 DUP3 DUP8 ADD PUSH2 0xBF7 JUMP JUMPDEST SWAP3 POP POP PUSH1 0x40 PUSH2 0xC6A DUP7 DUP3 DUP8 ADD PUSH2 0xBF7 JUMP JUMPDEST SWAP2 POP POP SWAP3 POP SWAP3 POP SWAP3 JUMP JUMPDEST PUSH1 0x0 DUP1 PUSH1 0x0 DUP1 PUSH1 0x0 PUSH1 0xA0 DUP7 DUP9 SUB SLT ISZERO PUSH2 0xC90 JUMPI PUSH2 0xC8F PUSH2 0x11E3 JUMP JUMPDEST JUMPDEST PUSH1 0x0 PUSH2 0xC9E DUP9 DUP3 DUP10 ADD PUSH2 0xBF7 JUMP JUMPDEST SWAP6 POP POP PUSH1 0x20 PUSH2 0xCAF DUP9 DUP3 DUP10 ADD PUSH2 0xBF7 JUMP JUMPDEST SWAP5 POP POP PUSH1 0x40 PUSH2 0xCC0 DUP9 DUP3 DUP10 ADD PUSH2 0xBF7 JUMP JUMPDEST SWAP4 POP POP PUSH1 0x60 PUSH2 0xCD1 DUP9 DUP3 DUP10 ADD PUSH2 0xBE2 JUMP JUMPDEST SWAP3 POP POP PUSH1 0x80 PUSH2 0xCE2 DUP9 DUP3 DUP10 ADD PUSH2 0xBF7 JUMP JUMPDEST SWAP2 POP POP SWAP3 SWAP6 POP SWAP3 SWAP6 SWAP1 SWAP4 POP JUMP JUMPDEST PUSH1 0x0 DUP1 PUSH1 0x0 DUP1 PUSH1 0x80 DUP6 DUP8 SUB SLT ISZERO PUSH2 0xD09 JUMPI PUSH2 0xD08 PUSH2 0x11E3 JUMP JUMPDEST JUMPDEST PUSH1 0x0 PUSH2 0xD17 DUP8 DUP3 DUP9 ADD PUSH2 0xBF7 JUMP JUMPDEST SWAP5 POP POP PUSH1 0x20 PUSH2 0xD28 DUP8 DUP3 DUP9 ADD PUSH2 0xBF7 JUMP JUMPDEST SWAP4 POP POP PUSH1 0x40 PUSH2 0xD39 DUP8 DUP3 DUP9 ADD PUSH2 0xBF7 JUMP JUMPDEST SWAP3 POP POP PUSH1 0x60 PUSH2 0xD4A DUP8 DUP3 DUP9 ADD PUSH2 0xC0C JUMP JUMPDEST SWAP2 POP POP SWAP3 SWAP6 SWAP2 SWAP5 POP SWAP3 POP JUMP JUMPDEST PUSH2 0xD5F DUP2 PUSH2 0x10CE JUMP JUMPDEST DUP3 MSTORE POP POP JUMP JUMPDEST PUSH2 0xD6E DUP2 PUSH2 0x112A JUMP JUMPDEST DUP3 MSTORE POP POP JUMP JUMPDEST PUSH1 0x0 PUSH2 0xD81 PUSH1 0x57 DUP4 PUSH2 0x10BD JUMP JUMPDEST SWAP2 POP PUSH2 0xD8C DUP3 PUSH2 0x11E8 JUMP JUMPDEST PUSH1 0x60 DUP3 ADD SWAP1 POP SWAP2 SWAP1 POP JUMP JUMPDEST PUSH1 0x0 PUSH2 0xDA4 PUSH1 0x2D DUP4 PUSH2 0x10BD JUMP JUMPDEST SWAP2 POP PUSH2 0xDAF DUP3 PUSH2 0x125D JUMP JUMPDEST PUSH1 0x40 DUP3 ADD SWAP1 POP SWAP2 SWAP1 POP JUMP JUMPDEST PUSH1 0x0 PUSH2 0xDC7 PUSH1 0x30 DUP4 PUSH2 0x10BD JUMP JUMPDEST SWAP2 POP PUSH2 0xDD2 DUP3 PUSH2 0x12AC JUMP JUMPDEST PUSH1 0x40 DUP3 ADD SWAP1 POP SWAP2 SWAP1 POP JUMP JUMPDEST PUSH1 0x0 PUSH2 0xDEA PUSH1 0x3D DUP4 PUSH2 0x10BD JUMP JUMPDEST SWAP2 POP PUSH2 0xDF5 DUP3 PUSH2 0x12FB JUMP JUMPDEST PUSH1 0x40 DUP3 ADD SWAP1 POP SWAP2 SWAP1 POP JUMP JUMPDEST PUSH1 0x0 PUSH2 0xE0D PUSH1 0x4A DUP4 PUSH2 0x10BD JUMP JUMPDEST SWAP2 POP PUSH2 0xE18 DUP3 PUSH2 0x134A JUMP JUMPDEST PUSH1 0x60 DUP3 ADD SWAP1 POP SWAP2 SWAP1 POP JUMP JUMPDEST PUSH1 0x0 PUSH2 0xE30 PUSH1 0x39 DUP4 PUSH2 0x10BD JUMP JUMPDEST SWAP2 POP PUSH2 0xE3B DUP3 PUSH2 0x13BF JUMP JUMPDEST PUSH1 0x40 DUP3 ADD SWAP1 POP SWAP2 SWAP1 POP JUMP JUMPDEST PUSH1 0x0 PUSH2 0xE53 PUSH1 0x20 DUP4 PUSH2 0x10BD JUMP JUMPDEST SWAP2 POP PUSH2 0xE5E DUP3 PUSH2 0x140E JUMP JUMPDEST PUSH1 0x20 DUP3 ADD SWAP1 POP SWAP2 SWAP1 POP JUMP JUMPDEST PUSH1 0x0 PUSH2 0xE76 PUSH1 0x4D DUP4 PUSH2 0x10BD JUMP JUMPDEST SWAP2 POP PUSH2 0xE81 DUP3 PUSH2 0x1437 JUMP JUMPDEST PUSH1 0x60 DUP3 ADD SWAP1 POP SWAP2 SWAP1 POP JUMP JUMPDEST PUSH2 0xE95 DUP2 PUSH2 0x1113 JUMP JUMPDEST DUP3 MSTORE POP POP JUMP JUMPDEST PUSH2 0xEA4 DUP2 PUSH2 0x111D JUMP JUMPDEST DUP3 MSTORE POP POP JUMP JUMPDEST PUSH1 0x0 PUSH1 0x20 DUP3 ADD SWAP1 POP PUSH2 0xEBF PUSH1 0x0 DUP4 ADD DUP5 PUSH2 0xD65 JUMP JUMPDEST SWAP3 SWAP2 POP POP JUMP JUMPDEST PUSH1 0x0 PUSH1 0x20 DUP3 ADD SWAP1 POP DUP2 DUP2 SUB PUSH1 0x0 DUP4 ADD MSTORE PUSH2 0xEDE DUP2 PUSH2 0xD74 JUMP JUMPDEST SWAP1 POP SWAP2 SWAP1 POP JUMP JUMPDEST PUSH1 0x0 PUSH1 0x20 DUP3 ADD SWAP1 POP DUP2 DUP2 SUB PUSH1 0x0 DUP4 ADD MSTORE PUSH2 0xEFE DUP2 PUSH2 0xD97 JUMP JUMPDEST SWAP1 POP SWAP2 SWAP1 POP JUMP JUMPDEST PUSH1 0x0 PUSH1 0x20 DUP3 ADD SWAP1 POP DUP2 DUP2 SUB PUSH1 0x0 DUP4 ADD MSTORE PUSH2 0xF1E DUP2 PUSH2 0xDBA JUMP JUMPDEST SWAP1 POP SWAP2 SWAP1 POP JUMP JUMPDEST PUSH1 0x0 PUSH1 0x20 DUP3 ADD SWAP1 POP DUP2 DUP2 SUB PUSH1 0x0 DUP4 ADD MSTORE PUSH2 0xF3E DUP2 PUSH2 0xDDD JUMP JUMPDEST SWAP1 POP SWAP2 SWAP1 POP JUMP JUMPDEST PUSH1 0x0 PUSH1 0x20 DUP3 ADD SWAP1 POP DUP2 DUP2 SUB PUSH1 0x0 DUP4 ADD MSTORE PUSH2 0xF5E DUP2 PUSH2 0xE00 JUMP JUMPDEST SWAP1 POP SWAP2 SWAP1 POP JUMP JUMPDEST PUSH1 0x0 PUSH1 0x20 DUP3 ADD SWAP1 POP DUP2 DUP2 SUB PUSH1 0x0 DUP4 ADD MSTORE PUSH2 0xF7E DUP2 PUSH2 0xE23 JUMP JUMPDEST SWAP1 POP SWAP2 SWAP1 POP JUMP JUMPDEST PUSH1 0x0 PUSH1 0x20 DUP3 ADD SWAP1 POP DUP2 DUP2 SUB PUSH1 0x0 DUP4 ADD MSTORE PUSH2 0xF9E DUP2 PUSH2 0xE46 JUMP JUMPDEST SWAP1 POP SWAP2 SWAP1 POP JUMP JUMPDEST PUSH1 0x0 PUSH1 0x20 DUP3 ADD SWAP1 POP DUP2 DUP2 SUB PUSH1 0x0 DUP4 ADD MSTORE PUSH2 0xFBE DUP2 PUSH2 0xE69 JUMP JUMPDEST SWAP1 POP SWAP2 SWAP1 POP JUMP JUMPDEST PUSH1 0x0 PUSH1 0x20 DUP3 ADD SWAP1 POP PUSH2 0xFDA PUSH1 0x0 DUP4 ADD DUP5 PUSH2 0xE8C JUMP JUMPDEST SWAP3 SWAP2 POP POP JUMP JUMPDEST PUSH1 0x0 PUSH1 0x80 DUP3 ADD SWAP1 POP PUSH2 0xFF5 PUSH1 0x0 DUP4 ADD DUP8 PUSH2 0xE8C JUMP JUMPDEST PUSH2 0x1002 PUSH1 0x20 DUP4 ADD DUP7 PUSH2 0xE8C JUMP JUMPDEST PUSH2 0x100F PUSH1 0x40 DUP4 ADD DUP6 PUSH2 0xE8C JUMP JUMPDEST PUSH2 0x101C PUSH1 0x60 DUP4 ADD DUP5 PUSH2 0xD56 JUMP JUMPDEST SWAP6 SWAP5 POP POP POP POP POP JUMP JUMPDEST PUSH1 0x0 PUSH1 0xA0 DUP3 ADD SWAP1 POP PUSH2 0x103A PUSH1 0x0 DUP4 ADD DUP9 PUSH2 0xE8C JUMP JUMPDEST PUSH2 0x1047 PUSH1 0x20 DUP4 ADD DUP8 PUSH2 0xE8C JUMP JUMPDEST PUSH2 0x1054 PUSH1 0x40 DUP4 ADD DUP7 PUSH2 0xE8C JUMP JUMPDEST PUSH2 0x1061 PUSH1 0x60 DUP4 ADD DUP6 PUSH2 0xD56 JUMP JUMPDEST PUSH2 0x106E PUSH1 0x80 DUP4 ADD DUP5 PUSH2 0xE9B JUMP JUMPDEST SWAP7 SWAP6 POP POP POP POP POP POP JUMP JUMPDEST PUSH1 0x0 PUSH1 0x80 DUP3 ADD SWAP1 POP PUSH2 0x108D PUSH1 0x0 DUP4 ADD DUP8 PUSH2 0xE8C JUMP JUMPDEST PUSH2 0x109A PUSH1 0x20 DUP4 ADD DUP7 PUSH2 0xE8C JUMP JUMPDEST PUSH2 0x10A7 PUSH1 0x40 DUP4 ADD DUP6 PUSH2 0xE8C JUMP JUMPDEST PUSH2 0x10B4 PUSH1 0x60 DUP4 ADD DUP5 PUSH2 0xE9B JUMP JUMPDEST SWAP6 SWAP5 POP POP POP POP POP JUMP JUMPDEST PUSH1 0x0 DUP3 DUP3 MSTORE PUSH1 0x20 DUP3 ADD SWAP1 POP SWAP3 SWAP2 POP POP JUMP JUMPDEST PUSH1 0x0 PUSH2 0x10D9 DUP3 PUSH2 0x10F3 JUMP JUMPDEST SWAP1 POP SWAP2 SWAP1 POP JUMP JUMPDEST PUSH1 0x0 DUP2 SWAP1 POP PUSH2 0x10EE DUP3 PUSH2 0x14AC JUMP JUMPDEST SWAP2 SWAP1 POP JUMP JUMPDEST PUSH1 0x0 PUSH20 0xFFFFFFFFFFFFFFFFFFFFFFFFFFFFFFFFFFFFFFFF DUP3 AND SWAP1 POP SWAP2 SWAP1 POP JUMP JUMPDEST PUSH1 0x0 DUP2 SWAP1 POP SWAP2 SWAP1 POP JUMP JUMPDEST PUSH1 0x0 PUSH1 0xFF DUP3 AND SWAP1 POP SWAP2 SWAP1 POP JUMP JUMPDEST PUSH1 0x0 PUSH2 0x1135 DUP3 PUSH2 0x10E0 JUMP JUMPDEST SWAP1 POP SWAP2 SWAP1 POP JUMP JUMPDEST PUSH1 0x0 PUSH2 0x1147 DUP3 PUSH2 0x1113 JUMP JUMPDEST SWAP2 POP PUSH32 0xFFFFFFFFFFFFFFFFFFFFFFFFFFFFFFFFFFFFFFFFFFFFFFFFFFFFFFFFFFFFFFFF DUP3 EQ ISZERO PUSH2 0x117A JUMPI PUSH2 0x1179 PUSH2 0x1185 JUMP JUMPDEST JUMPDEST PUSH1 0x1 DUP3 ADD SWAP1 POP SWAP2 SWAP1 POP JUMP JUMPDEST PUSH32 0x4E487B7100000000000000000000000000000000000000000000000000000000 PUSH1 0x0 MSTORE PUSH1 0x11 PUSH1 0x4 MSTORE PUSH1 0x24 PUSH1 0x0 REVERT JUMPDEST PUSH32 0x4E487B7100000000000000000000000000000000000000000000000000000000 PUSH1 0x0 MSTORE PUSH1 0x21 PUSH1 0x4 MSTORE PUSH1 0x24 PUSH1 0x0 REVERT JUMPDEST PUSH1 0x0 DUP1 REVERT JUMPDEST PUSH32 0x596F752068617665206E6F7420696E707574206120726967687420766F74652E PUSH1 0x0 DUP3 ADD MSTORE PUSH32 0x20596F752063616E2065697468657220766F7465203120666F72205265717565 PUSH1 0x20 DUP3 ADD MSTORE PUSH32 0x73746572206F72203220666F722050726F76696465722E000000000000000000 PUSH1 0x40 DUP3 ADD MSTORE POP JUMP JUMPDEST PUSH32 0x596F75206861766520616C726561647920766F7465642C20796F752063616E6E PUSH1 0x0 DUP3 ADD MSTORE PUSH32 0x6F7420766F746520616761696E00000000000000000000000000000000000000 PUSH1 0x20 DUP3 ADD MSTORE POP JUMP JUMPDEST PUSH32 0x596F7520726169736564207468697320636F6E666C6963742E20596F75206361 PUSH1 0x0 DUP3 ADD MSTORE PUSH32 0x6E6E6F7420766F7465206F6E2069742E00000000000000000000000000000000 PUSH1 0x20 DUP3 ADD MSTORE POP JUMP JUMPDEST PUSH32 0x566F74696E6720686173206E6F74206265656E20636F6D706C65746564207965 PUSH1 0x0 DUP3 ADD MSTORE PUSH32 0x742E20506C65617365207761697420666F7220697420746F20656E642E000000 PUSH1 0x20 DUP3 ADD MSTORE POP JUMP JUMPDEST PUSH32 0x4E6F742065766572796F6E652068617320766F7465642C20706C656173652070 PUSH1 0x0 DUP3 ADD MSTORE PUSH32 0x726F6D707420616C6C206F74686572206D656D62657273206F662070726F6A65 PUSH1 0x20 DUP3 ADD MSTORE PUSH32 0x637420746F20766F746500000000000000000000000000000000000000000000 PUSH1 0x40 DUP3 ADD MSTORE POP JUMP JUMPDEST PUSH32 0x596F752061726520696E766F6C76656420696E207468697320636F6E666C6963 PUSH1 0x0 DUP3 ADD MSTORE PUSH32 0x742E20596F752063616E6E6F7420766F7465206F6E2069742E00000000000000 PUSH1 0x20 DUP3 ADD MSTORE POP JUMP JUMPDEST PUSH32 0x456E6F75676820766F7465732068617665206265656E20636F6C6C6563746564 PUSH1 0x0 DUP3 ADD MSTORE POP JUMP JUMPDEST PUSH32 0x436F6E666C6963742068617320616C7265616479206265656E20637265617465 PUSH1 0x0 DUP3 ADD MSTORE PUSH32 0x642E20506C6561736520646F206E6F7420637265617465206D6F726520746861 PUSH1 0x20 DUP3 ADD MSTORE PUSH32 0x6E203120636F6E666C6963742E00000000000000000000000000000000000000 PUSH1 0x40 DUP3 ADD MSTORE POP JUMP JUMPDEST PUSH1 0x3 DUP2 LT PUSH2 0x14BD JUMPI PUSH2 0x14BC PUSH2 0x11B4 JUMP JUMPDEST JUMPDEST POP JUMP JUMPDEST PUSH2 0x14C9 DUP2 PUSH2 0x10CE JUMP JUMPDEST DUP2 EQ PUSH2 0x14D4 JUMPI PUSH1 0x0 DUP1 REVERT JUMPDEST POP JUMP JUMPDEST PUSH2 0x14E0 DUP2 PUSH2 0x1113 JUMP JUMPDEST DUP2 EQ PUSH2 0x14EB JUMPI PUSH1 0x0 DUP1 REVERT JUMPDEST POP JUMP JUMPDEST PUSH2 0x14F7 DUP2 PUSH2 0x111D JUMP JUMPDEST DUP2 EQ PUSH2 0x1502 JUMPI PUSH1 0x0 DUP1 REVERT JUMPDEST POP JUMP INVALID LOG2 PUSH5 0x6970667358 0x22 SLT KECCAK256 AND RETURNDATACOPY PUSH18 0x8A2DF764BDBDF97E598B456971C6A15AC88A SHR DELEGATECALL PUSH17 0xB2488F1C95723CE464736F6C6343000807 STOP CALLER "
				},
				"gasEstimates": {
					"creation": {
						"codeDepositCost": "1087000",
						"executionCost": "1127",
						"totalCost": "1088127"
					},
					"external": {
						"createConflict(uint256,uint256,uint256,address,uint256)": "infinite",
						"getConflictStatus(uint256,uint256,uint256)": "infinite",
						"getResults(uint256,uint256,uint256)": "infinite",
						"getVotesCollected(uint256,uint256,uint256)": "infinite",
						"getVotesforProvider(uint256,uint256,uint256)": "infinite",
						"getVotesforRequester(uint256,uint256,uint256)": "infinite",
						"voteConflict(uint256,uint256,uint256,uint8)": "infinite"
					}
				},
				"methodIdentifiers": {
					"createConflict(uint256,uint256,uint256,address,uint256)": "fe074c11",
					"getConflictStatus(uint256,uint256,uint256)": "cb4389ce",
					"getResults(uint256,uint256,uint256)": "0366cef2",
					"getVotesCollected(uint256,uint256,uint256)": "3c45fe31",
					"getVotesforProvider(uint256,uint256,uint256)": "9ac78879",
					"getVotesforRequester(uint256,uint256,uint256)": "e3d87718",
					"voteConflict(uint256,uint256,uint256,uint8)": "153d0194"
				}
			},
			"userdoc": {
				"kind": "user",
				"methods": {},
				"version": 1
			}
		}
	}
}