{
	"contracts/Milestone.sol": {
		"Milestone": {
			"abi": [
				{
					"inputs": [
						{
							"internalType": "contract Conflict",
							"name": "conflictContract",
							"type": "address"
						}
					],
					"stateMutability": "nonpayable",
					"type": "constructor"
				},
				{
					"anonymous": false,
					"inputs": [
						{
							"indexed": false,
							"internalType": "uint256",
							"name": "projectNumber",
							"type": "uint256"
						},
						{
							"indexed": false,
							"internalType": "uint256",
							"name": "serviceNumber",
							"type": "uint256"
						},
						{
							"indexed": false,
							"internalType": "uint256",
							"name": "milestoneNumber",
							"type": "uint256"
						},
						{
							"indexed": false,
							"internalType": "string",
							"name": "title",
							"type": "string"
						},
						{
							"indexed": false,
							"internalType": "string",
							"name": "description",
							"type": "string"
						}
					],
					"name": "milestoneCreated",
					"type": "event"
				},
				{
					"anonymous": false,
					"inputs": [
						{
							"indexed": false,
							"internalType": "uint256",
							"name": "projectNumber",
							"type": "uint256"
						},
						{
							"indexed": false,
							"internalType": "uint256",
							"name": "serviceNumber",
							"type": "uint256"
						},
						{
							"indexed": false,
							"internalType": "uint256",
							"name": "milestoneNumber",
							"type": "uint256"
						}
					],
					"name": "milestoneDeleted",
					"type": "event"
				},
				{
					"anonymous": false,
					"inputs": [
						{
							"indexed": false,
							"internalType": "uint256",
							"name": "projectNumber",
							"type": "uint256"
						},
						{
							"indexed": false,
							"internalType": "uint256",
							"name": "serviceNumber",
							"type": "uint256"
						},
						{
							"indexed": false,
							"internalType": "uint256",
							"name": "milestoneNumber",
							"type": "uint256"
						},
						{
							"indexed": false,
							"internalType": "string",
							"name": "title",
							"type": "string"
						},
						{
							"indexed": false,
							"internalType": "string",
							"name": "description",
							"type": "string"
						}
					],
					"name": "milestoneUpdated",
					"type": "event"
				},
				{
					"inputs": [
						{
							"internalType": "uint256",
							"name": "projectNumber",
							"type": "uint256"
						},
						{
							"internalType": "uint256",
							"name": "serviceNumber",
							"type": "uint256"
						},
						{
							"internalType": "uint256",
							"name": "milestoneNumber",
							"type": "uint256"
						},
						{
							"internalType": "string",
							"name": "title",
							"type": "string"
						},
						{
							"internalType": "string",
							"name": "description",
							"type": "string"
						},
						{
							"internalType": "address",
							"name": "serviceRequester",
							"type": "address"
						},
						{
							"internalType": "address",
							"name": "serviceProvider",
							"type": "address"
						},
						{
							"internalType": "uint256",
							"name": "totalVoters",
							"type": "uint256"
						}
					],
					"name": "createConflict",
					"outputs": [],
					"stateMutability": "nonpayable",
					"type": "function"
				},
				{
					"inputs": [
						{
							"internalType": "uint256",
							"name": "projectNumber",
							"type": "uint256"
						},
						{
							"internalType": "uint256",
							"name": "serviceNumber",
							"type": "uint256"
						},
						{
							"internalType": "string",
							"name": "title",
							"type": "string"
						},
						{
							"internalType": "string",
							"name": "description",
							"type": "string"
						}
					],
					"name": "createMilestone",
					"outputs": [],
					"stateMutability": "nonpayable",
					"type": "function"
				},
				{
					"inputs": [
						{
							"internalType": "uint256",
							"name": "projectNumber",
							"type": "uint256"
						},
						{
							"internalType": "uint256",
							"name": "serviceNumber",
							"type": "uint256"
						},
						{
							"internalType": "uint256",
							"name": "milestoneNumber",
							"type": "uint256"
						}
					],
					"name": "deleteMilestone",
					"outputs": [],
					"stateMutability": "nonpayable",
					"type": "function"
				},
				{
					"inputs": [
						{
							"internalType": "uint256",
							"name": "projectNumber",
							"type": "uint256"
						},
						{
							"internalType": "uint256",
							"name": "serviceNumber",
							"type": "uint256"
						},
						{
							"internalType": "uint256",
							"name": "milestoneNumber",
							"type": "uint256"
						}
					],
					"name": "readMilestoneTitle",
					"outputs": [
						{
							"internalType": "string",
							"name": "",
							"type": "string"
						}
					],
					"stateMutability": "view",
					"type": "function"
				},
				{
					"inputs": [
						{
							"internalType": "uint256",
							"name": "projectNumber",
							"type": "uint256"
						},
						{
							"internalType": "uint256",
							"name": "serviceNumber",
							"type": "uint256"
						},
						{
							"internalType": "uint256",
							"name": "milestoneNumber",
							"type": "uint256"
						},
						{
							"internalType": "string",
							"name": "title",
							"type": "string"
						},
						{
							"internalType": "string",
							"name": "description",
							"type": "string"
						}
					],
					"name": "updateMilestone",
					"outputs": [],
					"stateMutability": "nonpayable",
					"type": "function"
				}
			],
			"devdoc": {
				"kind": "dev",
				"methods": {},
				"version": 1
			},
			"evm": {
				"assembly": "    /* \"contracts/Milestone.sol\":92:3570  contract Milestone {... */\n  mstore(0x40, 0x80)\n    /* \"contracts/Milestone.sol\":1155:1156  0 */\n  0x00\n    /* \"contracts/Milestone.sol\":1130:1156  uint256 milestoneTotal = 0 */\n  0x02\n  sstore\n    /* \"contracts/Milestone.sol\":1185:1186  0 */\n  0x00\n    /* \"contracts/Milestone.sol\":1162:1186  uint256 milestoneNum = 0 */\n  0x03\n  sstore\n    /* \"contracts/Milestone.sol\":142:233  constructor (Conflict conflictContract) public {... */\n  callvalue\n  dup1\n  iszero\n  tag_1\n  jumpi\n  0x00\n  dup1\n  revert\ntag_1:\n  pop\n  mload(0x40)\n  sub(codesize, bytecodeSize)\n  dup1\n  bytecodeSize\n  dup4\n  codecopy\n  dup2\n  dup2\n  add\n  0x40\n  mstore\n  dup2\n  add\n  swap1\n  tag_2\n  swap2\n  swap1\n  tag_3\n  jump\t// in\ntag_2:\n    /* \"contracts/Milestone.sol\":210:226  conflictContract */\n  dup1\n    /* \"contracts/Milestone.sol\":199:207  conflict */\n  0x00\n  dup1\n    /* \"contracts/Milestone.sol\":199:226  conflict = conflictContract */\n  0x0100\n  exp\n  dup2\n  sload\n  dup2\n  0xffffffffffffffffffffffffffffffffffffffff\n  mul\n  not\n  and\n  swap1\n  dup4\n  0xffffffffffffffffffffffffffffffffffffffff\n  and\n  mul\n  or\n  swap1\n  sstore\n  pop\n    /* \"contracts/Milestone.sol\":142:233  constructor (Conflict conflictContract) public {... */\n  pop\n    /* \"contracts/Milestone.sol\":92:3570  contract Milestone {... */\n  jump(tag_6)\n    /* \"#utility.yul\":7:182   */\ntag_8:\n    /* \"#utility.yul\":80:85   */\n  0x00\n    /* \"#utility.yul\":111:117   */\n  dup2\n    /* \"#utility.yul\":105:118   */\n  mload\n    /* \"#utility.yul\":96:118   */\n  swap1\n  pop\n    /* \"#utility.yul\":127:176   */\n  tag_10\n    /* \"#utility.yul\":170:175   */\n  dup2\n    /* \"#utility.yul\":127:176   */\n  tag_11\n  jump\t// in\ntag_10:\n    /* \"#utility.yul\":7:182   */\n  swap3\n  swap2\n  pop\n  pop\n  jump\t// out\n    /* \"#utility.yul\":188:571   */\ntag_3:\n    /* \"#utility.yul\":274:280   */\n  0x00\n    /* \"#utility.yul\":323:325   */\n  0x20\n    /* \"#utility.yul\":311:320   */\n  dup3\n    /* \"#utility.yul\":302:309   */\n  dup5\n    /* \"#utility.yul\":298:321   */\n  sub\n    /* \"#utility.yul\":294:326   */\n  slt\n    /* \"#utility.yul\":291:410   */\n  iszero\n  tag_13\n  jumpi\n    /* \"#utility.yul\":329:408   */\n  tag_14\n  tag_15\n  jump\t// in\ntag_14:\n    /* \"#utility.yul\":291:410   */\ntag_13:\n    /* \"#utility.yul\":449:450   */\n  0x00\n    /* \"#utility.yul\":474:554   */\n  tag_16\n    /* \"#utility.yul\":546:553   */\n  dup5\n    /* \"#utility.yul\":537:543   */\n  dup3\n    /* \"#utility.yul\":526:535   */\n  dup6\n    /* \"#utility.yul\":522:544   */\n  add\n    /* \"#utility.yul\":474:554   */\n  tag_8\n  jump\t// in\ntag_16:\n    /* \"#utility.yul\":464:554   */\n  swap2\n  pop\n    /* \"#utility.yul\":420:564   */\n  pop\n    /* \"#utility.yul\":188:571   */\n  swap3\n  swap2\n  pop\n  pop\n  jump\t// out\n    /* \"#utility.yul\":658:754   */\ntag_19:\n    /* \"#utility.yul\":695:702   */\n  0x00\n    /* \"#utility.yul\":724:748   */\n  tag_21\n    /* \"#utility.yul\":742:747   */\n  dup3\n    /* \"#utility.yul\":724:748   */\n  tag_22\n  jump\t// in\ntag_21:\n    /* \"#utility.yul\":713:748   */\n  swap1\n  pop\n    /* \"#utility.yul\":658:754   */\n  swap2\n  swap1\n  pop\n  jump\t// out\n    /* \"#utility.yul\":760:872   */\ntag_23:\n    /* \"#utility.yul\":813:820   */\n  0x00\n    /* \"#utility.yul\":842:866   */\n  tag_25\n    /* \"#utility.yul\":860:865   */\n  dup3\n    /* \"#utility.yul\":842:866   */\n  tag_19\n  jump\t// in\ntag_25:\n    /* \"#utility.yul\":831:866   */\n  swap1\n  pop\n    /* \"#utility.yul\":760:872   */\n  swap2\n  swap1\n  pop\n  jump\t// out\n    /* \"#utility.yul\":878:1004   */\ntag_22:\n    /* \"#utility.yul\":915:922   */\n  0x00\n    /* \"#utility.yul\":955:997   */\n  0xffffffffffffffffffffffffffffffffffffffff\n    /* \"#utility.yul\":948:953   */\n  dup3\n    /* \"#utility.yul\":944:998   */\n  and\n    /* \"#utility.yul\":933:998   */\n  swap1\n  pop\n    /* \"#utility.yul\":878:1004   */\n  swap2\n  swap1\n  pop\n  jump\t// out\n    /* \"#utility.yul\":1133:1250   */\ntag_15:\n    /* \"#utility.yul\":1242:1243   */\n  0x00\n    /* \"#utility.yul\":1239:1240   */\n  dup1\n    /* \"#utility.yul\":1232:1244   */\n  revert\n    /* \"#utility.yul\":1256:1410   */\ntag_11:\n    /* \"#utility.yul\":1345:1385   */\n  tag_31\n    /* \"#utility.yul\":1379:1384   */\n  dup2\n    /* \"#utility.yul\":1345:1385   */\n  tag_23\n  jump\t// in\ntag_31:\n    /* \"#utility.yul\":1338:1343   */\n  dup2\n    /* \"#utility.yul\":1335:1386   */\n  eq\n    /* \"#utility.yul\":1325:1404   */\n  tag_32\n  jumpi\n    /* \"#utility.yul\":1400:1401   */\n  0x00\n    /* \"#utility.yul\":1397:1398   */\n  dup1\n    /* \"#utility.yul\":1390:1402   */\n  revert\n    /* \"#utility.yul\":1325:1404   */\ntag_32:\n    /* \"#utility.yul\":1256:1410   */\n  pop\n  jump\t// out\n    /* \"contracts/Milestone.sol\":92:3570  contract Milestone {... */\ntag_6:\n  dataSize(sub_0)\n  dup1\n  dataOffset(sub_0)\n  0x00\n  codecopy\n  0x00\n  return\nstop\n\nsub_0: assembly {\n        /* \"contracts/Milestone.sol\":92:3570  contract Milestone {... */\n      mstore(0x40, 0x80)\n      callvalue\n      dup1\n      iszero\n      tag_1\n      jumpi\n      0x00\n      dup1\n      revert\n    tag_1:\n      pop\n      jumpi(tag_2, lt(calldatasize, 0x04))\n      shr(0xe0, calldataload(0x00))\n      dup1\n      0x63ef8a50\n      eq\n      tag_3\n      jumpi\n      dup1\n      0xace731bd\n      eq\n      tag_4\n      jumpi\n      dup1\n      0xb9b6c5d4\n      eq\n      tag_5\n      jumpi\n      dup1\n      0xe62fac27\n      eq\n      tag_6\n      jumpi\n      dup1\n      0xfd23c4bb\n      eq\n      tag_7\n      jumpi\n    tag_2:\n      0x00\n      dup1\n      revert\n        /* \"contracts/Milestone.sol\":1282:1990  function createMilestone(uint256 projectNumber, uint256 serviceNumber, string memory title, string memory description) external {... */\n    tag_3:\n      tag_8\n      0x04\n      dup1\n      calldatasize\n      sub\n      dup2\n      add\n      swap1\n      tag_9\n      swap2\n      swap1\n      tag_10\n      jump\t// in\n    tag_9:\n      tag_11\n      jump\t// in\n    tag_8:\n      stop\n        /* \"contracts/Milestone.sol\":2037:2271  function readMilestoneTitle(uint256 projectNumber, uint256 serviceNumber, uint256 milestoneNumber) external view returns (string memory) {... */\n    tag_4:\n      tag_12\n      0x04\n      dup1\n      calldatasize\n      sub\n      dup2\n      add\n      swap1\n      tag_13\n      swap2\n      swap1\n      tag_14\n      jump\t// in\n    tag_13:\n      tag_15\n      jump\t// in\n    tag_12:\n      mload(0x40)\n      tag_16\n      swap2\n      swap1\n      tag_17\n      jump\t// in\n    tag_16:\n      mload(0x40)\n      dup1\n      swap2\n      sub\n      swap1\n      return\n        /* \"contracts/Milestone.sol\":2826:3142  function deleteMilestone(uint256 projectNumber, uint256 serviceNumber, uint256 milestoneNumber) external {... */\n    tag_5:\n      tag_18\n      0x04\n      dup1\n      calldatasize\n      sub\n      dup2\n      add\n      swap1\n      tag_19\n      swap2\n      swap1\n      tag_14\n      jump\t// in\n    tag_19:\n      tag_20\n      jump\t// in\n    tag_18:\n      stop\n        /* \"contracts/Milestone.sol\":3194:3567  function createConflict(uint256 projectNumber, uint256 serviceNumber, uint256 milestoneNumber, string memory title, string memory description, address serviceRequester, address serviceProvider,  uint256 totalVoters) external {... */\n    tag_6:\n      tag_21\n      0x04\n      dup1\n      calldatasize\n      sub\n      dup2\n      add\n      swap1\n      tag_22\n      swap2\n      swap1\n      tag_23\n      jump\t// in\n    tag_22:\n      tag_24\n      jump\t// in\n    tag_21:\n      stop\n        /* \"contracts/Milestone.sol\":2319:2777  function updateMilestone(uint256 projectNumber, uint256 serviceNumber, uint256 milestoneNumber, string memory title, string memory description) external {... */\n    tag_7:\n      tag_25\n      0x04\n      dup1\n      calldatasize\n      sub\n      dup2\n      add\n      swap1\n      tag_26\n      swap2\n      swap1\n      tag_27\n      jump\t// in\n    tag_26:\n      tag_28\n      jump\t// in\n    tag_25:\n      stop\n        /* \"contracts/Milestone.sol\":1282:1990  function createMilestone(uint256 projectNumber, uint256 serviceNumber, string memory title, string memory description) external {... */\n    tag_11:\n        /* \"contracts/Milestone.sol\":1421:1451  milestone storage newMilestone */\n      0x00\n        /* \"contracts/Milestone.sol\":1454:1472  servicesMilestones */\n      0x01\n        /* \"contracts/Milestone.sol\":1454:1487  servicesMilestones[projectNumber] */\n      0x00\n        /* \"contracts/Milestone.sol\":1473:1486  projectNumber */\n      dup7\n        /* \"contracts/Milestone.sol\":1454:1487  servicesMilestones[projectNumber] */\n      dup2\n      mstore\n      0x20\n      add\n      swap1\n      dup2\n      mstore\n      0x20\n      add\n      0x00\n      keccak256\n        /* \"contracts/Milestone.sol\":1454:1502  servicesMilestones[projectNumber][serviceNumber] */\n      0x00\n        /* \"contracts/Milestone.sol\":1488:1501  serviceNumber */\n      dup6\n        /* \"contracts/Milestone.sol\":1454:1502  servicesMilestones[projectNumber][serviceNumber] */\n      dup2\n      mstore\n      0x20\n      add\n      swap1\n      dup2\n      mstore\n      0x20\n      add\n      0x00\n      keccak256\n        /* \"contracts/Milestone.sol\":1454:1516  servicesMilestones[projectNumber][serviceNumber][milestoneNum] */\n      0x00\n        /* \"contracts/Milestone.sol\":1503:1515  milestoneNum */\n      sload(0x03)\n        /* \"contracts/Milestone.sol\":1454:1516  servicesMilestones[projectNumber][serviceNumber][milestoneNum] */\n      dup2\n      mstore\n      0x20\n      add\n      swap1\n      dup2\n      mstore\n      0x20\n      add\n      0x00\n      keccak256\n        /* \"contracts/Milestone.sol\":1421:1516  milestone storage newMilestone = servicesMilestones[projectNumber][serviceNumber][milestoneNum] */\n      swap1\n      pop\n        /* \"contracts/Milestone.sol\":1555:1568  projectNumber */\n      dup5\n        /* \"contracts/Milestone.sol\":1526:1538  newMilestone */\n      dup2\n        /* \"contracts/Milestone.sol\":1526:1552  newMilestone.projectNumber */\n      0x00\n      add\n        /* \"contracts/Milestone.sol\":1526:1568  newMilestone.projectNumber = projectNumber */\n      dup2\n      swap1\n      sstore\n      pop\n        /* \"contracts/Milestone.sol\":1607:1620  serviceNumber */\n      dup4\n        /* \"contracts/Milestone.sol\":1578:1590  newMilestone */\n      dup2\n        /* \"contracts/Milestone.sol\":1578:1604  newMilestone.serviceNumber */\n      0x01\n      add\n        /* \"contracts/Milestone.sol\":1578:1620  newMilestone.serviceNumber = serviceNumber */\n      dup2\n      swap1\n      sstore\n      pop\n        /* \"contracts/Milestone.sol\":1661:1673  milestoneNum */\n      sload(0x03)\n        /* \"contracts/Milestone.sol\":1630:1642  newMilestone */\n      dup2\n        /* \"contracts/Milestone.sol\":1630:1658  newMilestone.milestoneNumber */\n      0x02\n      add\n        /* \"contracts/Milestone.sol\":1630:1673  newMilestone.milestoneNumber = milestoneNum */\n      dup2\n      swap1\n      sstore\n      pop\n        /* \"contracts/Milestone.sol\":1704:1709  title */\n      dup3\n        /* \"contracts/Milestone.sol\":1683:1695  newMilestone */\n      dup2\n        /* \"contracts/Milestone.sol\":1683:1701  newMilestone.title */\n      0x03\n      add\n        /* \"contracts/Milestone.sol\":1683:1709  newMilestone.title = title */\n      swap1\n      dup1\n      mload\n      swap1\n      0x20\n      add\n      swap1\n      tag_30\n      swap3\n      swap2\n      swap1\n      tag_31\n      jump\t// in\n    tag_30:\n      pop\n        /* \"contracts/Milestone.sol\":1746:1757  description */\n      dup2\n        /* \"contracts/Milestone.sol\":1719:1731  newMilestone */\n      dup2\n        /* \"contracts/Milestone.sol\":1719:1743  newMilestone.description */\n      0x04\n      add\n        /* \"contracts/Milestone.sol\":1719:1757  newMilestone.description = description */\n      swap1\n      dup1\n      mload\n      swap1\n      0x20\n      add\n      swap1\n      tag_32\n      swap3\n      swap2\n      swap1\n      tag_31\n      jump\t// in\n    tag_32:\n      pop\n        /* \"contracts/Milestone.sol\":1788:1792  true */\n      0x01\n        /* \"contracts/Milestone.sol\":1767:1779  newMilestone */\n      dup2\n        /* \"contracts/Milestone.sol\":1767:1785  newMilestone.exist */\n      0x05\n      add\n      0x00\n        /* \"contracts/Milestone.sol\":1767:1792  newMilestone.exist = true */\n      0x0100\n      exp\n      dup2\n      sload\n      dup2\n      0xff\n      mul\n      not\n      and\n      swap1\n      dup4\n      iszero\n      iszero\n      mul\n      or\n      swap1\n      sstore\n      pop\n        /* \"contracts/Milestone.sol\":1824:1835  Status.none */\n      0x00\n        /* \"contracts/Milestone.sol\":1802:1814  newMilestone */\n      dup2\n        /* \"contracts/Milestone.sol\":1802:1821  newMilestone.status */\n      0x05\n      add\n      0x01\n        /* \"contracts/Milestone.sol\":1802:1835  newMilestone.status = Status.none */\n      0x0100\n      exp\n      dup2\n      sload\n      dup2\n      0xff\n      mul\n      not\n      and\n      swap1\n      dup4\n      0x06\n      dup2\n      gt\n      iszero\n      tag_33\n      jumpi\n      tag_34\n      tag_35\n      jump\t// in\n    tag_34:\n    tag_33:\n      mul\n      or\n      swap1\n      sstore\n      pop\n        /* \"contracts/Milestone.sol\":1851:1931  milestoneCreated(projectNumber, serviceNumber, milestoneNum, title, description) */\n      0x70d8b12d438dd130d28072c77c8047d9697b630b8dcd969123645998ad67d561\n        /* \"contracts/Milestone.sol\":1868:1881  projectNumber */\n      dup6\n        /* \"contracts/Milestone.sol\":1883:1896  serviceNumber */\n      dup6\n        /* \"contracts/Milestone.sol\":1898:1910  milestoneNum */\n      sload(0x03)\n        /* \"contracts/Milestone.sol\":1912:1917  title */\n      dup7\n        /* \"contracts/Milestone.sol\":1919:1930  description */\n      dup7\n        /* \"contracts/Milestone.sol\":1851:1931  milestoneCreated(projectNumber, serviceNumber, milestoneNum, title, description) */\n      mload(0x40)\n      tag_36\n      swap6\n      swap5\n      swap4\n      swap3\n      swap2\n      swap1\n      tag_37\n      jump\t// in\n    tag_36:\n      mload(0x40)\n      dup1\n      swap2\n      sub\n      swap1\n      log1\n        /* \"contracts/Milestone.sol\":1942:1956  milestoneTotal */\n      0x02\n      0x00\n        /* \"contracts/Milestone.sol\":1942:1958  milestoneTotal++ */\n      dup2\n      sload\n      dup1\n      swap3\n      swap2\n      swap1\n      tag_38\n      swap1\n      tag_39\n      jump\t// in\n    tag_38:\n      swap2\n      swap1\n      pop\n      sstore\n      pop\n        /* \"contracts/Milestone.sol\":1968:1980  milestoneNum */\n      0x03\n      0x00\n        /* \"contracts/Milestone.sol\":1968:1982  milestoneNum++ */\n      dup2\n      sload\n      dup1\n      swap3\n      swap2\n      swap1\n      tag_40\n      swap1\n      tag_39\n      jump\t// in\n    tag_40:\n      swap2\n      swap1\n      pop\n      sstore\n      pop\n        /* \"contracts/Milestone.sol\":1410:1990  {... */\n      pop\n        /* \"contracts/Milestone.sol\":1282:1990  function createMilestone(uint256 projectNumber, uint256 serviceNumber, string memory title, string memory description) external {... */\n      pop\n      pop\n      pop\n      pop\n      jump\t// out\n        /* \"contracts/Milestone.sol\":2037:2271  function readMilestoneTitle(uint256 projectNumber, uint256 serviceNumber, uint256 milestoneNumber) external view returns (string memory) {... */\n    tag_15:\n        /* \"contracts/Milestone.sol\":2159:2172  string memory */\n      0x60\n        /* \"contracts/Milestone.sol\":2192:2210  servicesMilestones */\n      0x01\n        /* \"contracts/Milestone.sol\":2192:2225  servicesMilestones[projectNumber] */\n      0x00\n        /* \"contracts/Milestone.sol\":2211:2224  projectNumber */\n      dup6\n        /* \"contracts/Milestone.sol\":2192:2225  servicesMilestones[projectNumber] */\n      dup2\n      mstore\n      0x20\n      add\n      swap1\n      dup2\n      mstore\n      0x20\n      add\n      0x00\n      keccak256\n        /* \"contracts/Milestone.sol\":2192:2240  servicesMilestones[projectNumber][serviceNumber] */\n      0x00\n        /* \"contracts/Milestone.sol\":2226:2239  serviceNumber */\n      dup5\n        /* \"contracts/Milestone.sol\":2192:2240  servicesMilestones[projectNumber][serviceNumber] */\n      dup2\n      mstore\n      0x20\n      add\n      swap1\n      dup2\n      mstore\n      0x20\n      add\n      0x00\n      keccak256\n        /* \"contracts/Milestone.sol\":2192:2257  servicesMilestones[projectNumber][serviceNumber][milestoneNumber] */\n      0x00\n        /* \"contracts/Milestone.sol\":2241:2256  milestoneNumber */\n      dup4\n        /* \"contracts/Milestone.sol\":2192:2257  servicesMilestones[projectNumber][serviceNumber][milestoneNumber] */\n      dup2\n      mstore\n      0x20\n      add\n      swap1\n      dup2\n      mstore\n      0x20\n      add\n      0x00\n      keccak256\n        /* \"contracts/Milestone.sol\":2192:2263  servicesMilestones[projectNumber][serviceNumber][milestoneNumber].title */\n      0x03\n      add\n        /* \"contracts/Milestone.sol\":2184:2264  return (servicesMilestones[projectNumber][serviceNumber][milestoneNumber].title) */\n      dup1\n      sload\n      tag_42\n      swap1\n      tag_43\n      jump\t// in\n    tag_42:\n      dup1\n      0x1f\n      add\n      0x20\n      dup1\n      swap2\n      div\n      mul\n      0x20\n      add\n      mload(0x40)\n      swap1\n      dup2\n      add\n      0x40\n      mstore\n      dup1\n      swap3\n      swap2\n      swap1\n      dup2\n      dup2\n      mstore\n      0x20\n      add\n      dup3\n      dup1\n      sload\n      tag_44\n      swap1\n      tag_43\n      jump\t// in\n    tag_44:\n      dup1\n      iszero\n      tag_45\n      jumpi\n      dup1\n      0x1f\n      lt\n      tag_46\n      jumpi\n      0x0100\n      dup1\n      dup4\n      sload\n      div\n      mul\n      dup4\n      mstore\n      swap2\n      0x20\n      add\n      swap2\n      jump(tag_45)\n    tag_46:\n      dup3\n      add\n      swap2\n      swap1\n      0x00\n      mstore\n      keccak256(0x00, 0x20)\n      swap1\n    tag_47:\n      dup2\n      sload\n      dup2\n      mstore\n      swap1\n      0x01\n      add\n      swap1\n      0x20\n      add\n      dup1\n      dup4\n      gt\n      tag_47\n      jumpi\n      dup3\n      swap1\n      sub\n      0x1f\n      and\n      dup3\n      add\n      swap2\n    tag_45:\n      pop\n      pop\n      pop\n      pop\n      pop\n      swap1\n      pop\n        /* \"contracts/Milestone.sol\":2037:2271  function readMilestoneTitle(uint256 projectNumber, uint256 serviceNumber, uint256 milestoneNumber) external view returns (string memory) {... */\n      swap4\n      swap3\n      pop\n      pop\n      pop\n      jump\t// out\n        /* \"contracts/Milestone.sol\":2826:3142  function deleteMilestone(uint256 projectNumber, uint256 serviceNumber, uint256 milestoneNumber) external {... */\n    tag_20:\n        /* \"contracts/Milestone.sol\":3016:3021  false */\n      0x00\n        /* \"contracts/Milestone.sol\":2942:2960  servicesMilestones */\n      0x01\n        /* \"contracts/Milestone.sol\":2942:2975  servicesMilestones[projectNumber] */\n      0x00\n        /* \"contracts/Milestone.sol\":2961:2974  projectNumber */\n      dup6\n        /* \"contracts/Milestone.sol\":2942:2975  servicesMilestones[projectNumber] */\n      dup2\n      mstore\n      0x20\n      add\n      swap1\n      dup2\n      mstore\n      0x20\n      add\n      0x00\n      keccak256\n        /* \"contracts/Milestone.sol\":2942:2990  servicesMilestones[projectNumber][serviceNumber] */\n      0x00\n        /* \"contracts/Milestone.sol\":2976:2989  serviceNumber */\n      dup5\n        /* \"contracts/Milestone.sol\":2942:2990  servicesMilestones[projectNumber][serviceNumber] */\n      dup2\n      mstore\n      0x20\n      add\n      swap1\n      dup2\n      mstore\n      0x20\n      add\n      0x00\n      keccak256\n        /* \"contracts/Milestone.sol\":2942:3007  servicesMilestones[projectNumber][serviceNumber][milestoneNumber] */\n      0x00\n        /* \"contracts/Milestone.sol\":2991:3006  milestoneNumber */\n      dup4\n        /* \"contracts/Milestone.sol\":2942:3007  servicesMilestones[projectNumber][serviceNumber][milestoneNumber] */\n      dup2\n      mstore\n      0x20\n      add\n      swap1\n      dup2\n      mstore\n      0x20\n      add\n      0x00\n      keccak256\n        /* \"contracts/Milestone.sol\":2942:3013  servicesMilestones[projectNumber][serviceNumber][milestoneNumber].exist */\n      0x05\n      add\n      0x00\n        /* \"contracts/Milestone.sol\":2942:3021  servicesMilestones[projectNumber][serviceNumber][milestoneNumber].exist = false */\n      0x0100\n      exp\n      dup2\n      sload\n      dup2\n      0xff\n      mul\n      not\n      and\n      swap1\n      dup4\n      iszero\n      iszero\n      mul\n      or\n      swap1\n      sstore\n      pop\n        /* \"contracts/Milestone.sol\":3040:3054  milestoneTotal */\n      0x02\n      0x00\n        /* \"contracts/Milestone.sol\":3040:3056  milestoneTotal-- */\n      dup2\n      sload\n      dup1\n      swap3\n      swap2\n      swap1\n      tag_49\n      swap1\n      tag_50\n      jump\t// in\n    tag_49:\n      swap2\n      swap1\n      pop\n      sstore\n      pop\n        /* \"contracts/Milestone.sol\":3072:3135  milestoneDeleted(projectNumber, serviceNumber, milestoneNumber) */\n      0x2b2605ee52ace237f72e6005eee79180ea3b6151bd8848a6be5e3c224b8a6ec6\n        /* \"contracts/Milestone.sol\":3089:3102  projectNumber */\n      dup4\n        /* \"contracts/Milestone.sol\":3104:3117  serviceNumber */\n      dup4\n        /* \"contracts/Milestone.sol\":3119:3134  milestoneNumber */\n      dup4\n        /* \"contracts/Milestone.sol\":3072:3135  milestoneDeleted(projectNumber, serviceNumber, milestoneNumber) */\n      mload(0x40)\n      tag_51\n      swap4\n      swap3\n      swap2\n      swap1\n      tag_52\n      jump\t// in\n    tag_51:\n      mload(0x40)\n      dup1\n      swap2\n      sub\n      swap1\n      log1\n        /* \"contracts/Milestone.sol\":2826:3142  function deleteMilestone(uint256 projectNumber, uint256 serviceNumber, uint256 milestoneNumber) external {... */\n      pop\n      pop\n      pop\n      jump\t// out\n        /* \"contracts/Milestone.sol\":3194:3567  function createConflict(uint256 projectNumber, uint256 serviceNumber, uint256 milestoneNumber, string memory title, string memory description, address serviceRequester, address serviceProvider,  uint256 totalVoters) external {... */\n    tag_24:\n        /* \"contracts/Milestone.sol\":3429:3437  conflict */\n      0x00\n      dup1\n      sload\n      swap1\n      0x0100\n      exp\n      swap1\n      div\n      0xffffffffffffffffffffffffffffffffffffffff\n      and\n        /* \"contracts/Milestone.sol\":3429:3452  conflict.createConflict */\n      0xffffffffffffffffffffffffffffffffffffffff\n      and\n      0xe62fac27\n        /* \"contracts/Milestone.sol\":3453:3466  projectNumber */\n      dup10\n        /* \"contracts/Milestone.sol\":3467:3480  serviceNumber */\n      dup10\n        /* \"contracts/Milestone.sol\":3481:3496  milestoneNumber */\n      dup10\n        /* \"contracts/Milestone.sol\":3497:3502  title */\n      dup10\n        /* \"contracts/Milestone.sol\":3503:3514  description */\n      dup10\n        /* \"contracts/Milestone.sol\":3515:3531  serviceRequester */\n      dup10\n        /* \"contracts/Milestone.sol\":3532:3547  serviceProvider */\n      dup10\n        /* \"contracts/Milestone.sol\":3548:3559  totalVoters */\n      dup10\n        /* \"contracts/Milestone.sol\":3429:3560  conflict.createConflict(projectNumber,serviceNumber,milestoneNumber,title,description,serviceRequester,serviceProvider,totalVoters) */\n      mload(0x40)\n      dup10\n      0xffffffff\n      and\n      0xe0\n      shl\n      dup2\n      mstore\n      0x04\n      add\n      tag_54\n      swap9\n      swap8\n      swap7\n      swap6\n      swap5\n      swap4\n      swap3\n      swap2\n      swap1\n      tag_55\n      jump\t// in\n    tag_54:\n      0x00\n      mload(0x40)\n      dup1\n      dup4\n      sub\n      dup2\n      0x00\n      dup8\n      dup1\n      extcodesize\n      iszero\n      dup1\n      iszero\n      tag_56\n      jumpi\n      0x00\n      dup1\n      revert\n    tag_56:\n      pop\n      gas\n      call\n      iszero\n      dup1\n      iszero\n      tag_58\n      jumpi\n      returndatasize\n      0x00\n      dup1\n      returndatacopy\n      revert(0x00, returndatasize)\n    tag_58:\n      pop\n      pop\n      pop\n      pop\n        /* \"contracts/Milestone.sol\":3194:3567  function createConflict(uint256 projectNumber, uint256 serviceNumber, uint256 milestoneNumber, string memory title, string memory description, address serviceRequester, address serviceProvider,  uint256 totalVoters) external {... */\n      pop\n      pop\n      pop\n      pop\n      pop\n      pop\n      pop\n      pop\n      jump\t// out\n        /* \"contracts/Milestone.sol\":2319:2777  function updateMilestone(uint256 projectNumber, uint256 serviceNumber, uint256 milestoneNumber, string memory title, string memory description) external {... */\n    tag_28:\n        /* \"contracts/Milestone.sol\":2565:2570  title */\n      dup2\n        /* \"contracts/Milestone.sol\":2491:2509  servicesMilestones */\n      0x01\n        /* \"contracts/Milestone.sol\":2491:2524  servicesMilestones[projectNumber] */\n      0x00\n        /* \"contracts/Milestone.sol\":2510:2523  projectNumber */\n      dup8\n        /* \"contracts/Milestone.sol\":2491:2524  servicesMilestones[projectNumber] */\n      dup2\n      mstore\n      0x20\n      add\n      swap1\n      dup2\n      mstore\n      0x20\n      add\n      0x00\n      keccak256\n        /* \"contracts/Milestone.sol\":2491:2539  servicesMilestones[projectNumber][serviceNumber] */\n      0x00\n        /* \"contracts/Milestone.sol\":2525:2538  serviceNumber */\n      dup7\n        /* \"contracts/Milestone.sol\":2491:2539  servicesMilestones[projectNumber][serviceNumber] */\n      dup2\n      mstore\n      0x20\n      add\n      swap1\n      dup2\n      mstore\n      0x20\n      add\n      0x00\n      keccak256\n        /* \"contracts/Milestone.sol\":2491:2556  servicesMilestones[projectNumber][serviceNumber][milestoneNumber] */\n      0x00\n        /* \"contracts/Milestone.sol\":2540:2555  milestoneNumber */\n      dup6\n        /* \"contracts/Milestone.sol\":2491:2556  servicesMilestones[projectNumber][serviceNumber][milestoneNumber] */\n      dup2\n      mstore\n      0x20\n      add\n      swap1\n      dup2\n      mstore\n      0x20\n      add\n      0x00\n      keccak256\n        /* \"contracts/Milestone.sol\":2491:2562  servicesMilestones[projectNumber][serviceNumber][milestoneNumber].title */\n      0x03\n      add\n        /* \"contracts/Milestone.sol\":2491:2570  servicesMilestones[projectNumber][serviceNumber][milestoneNumber].title = title */\n      swap1\n      dup1\n      mload\n      swap1\n      0x20\n      add\n      swap1\n      tag_60\n      swap3\n      swap2\n      swap1\n      tag_31\n      jump\t// in\n    tag_60:\n      pop\n        /* \"contracts/Milestone.sol\":2660:2671  description */\n      dup1\n        /* \"contracts/Milestone.sol\":2580:2598  servicesMilestones */\n      0x01\n        /* \"contracts/Milestone.sol\":2580:2613  servicesMilestones[projectNumber] */\n      0x00\n        /* \"contracts/Milestone.sol\":2599:2612  projectNumber */\n      dup8\n        /* \"contracts/Milestone.sol\":2580:2613  servicesMilestones[projectNumber] */\n      dup2\n      mstore\n      0x20\n      add\n      swap1\n      dup2\n      mstore\n      0x20\n      add\n      0x00\n      keccak256\n        /* \"contracts/Milestone.sol\":2580:2628  servicesMilestones[projectNumber][serviceNumber] */\n      0x00\n        /* \"contracts/Milestone.sol\":2614:2627  serviceNumber */\n      dup7\n        /* \"contracts/Milestone.sol\":2580:2628  servicesMilestones[projectNumber][serviceNumber] */\n      dup2\n      mstore\n      0x20\n      add\n      swap1\n      dup2\n      mstore\n      0x20\n      add\n      0x00\n      keccak256\n        /* \"contracts/Milestone.sol\":2580:2645  servicesMilestones[projectNumber][serviceNumber][milestoneNumber] */\n      0x00\n        /* \"contracts/Milestone.sol\":2629:2644  milestoneNumber */\n      dup6\n        /* \"contracts/Milestone.sol\":2580:2645  servicesMilestones[projectNumber][serviceNumber][milestoneNumber] */\n      dup2\n      mstore\n      0x20\n      add\n      swap1\n      dup2\n      mstore\n      0x20\n      add\n      0x00\n      keccak256\n        /* \"contracts/Milestone.sol\":2580:2657  servicesMilestones[projectNumber][serviceNumber][milestoneNumber].description */\n      0x04\n      add\n        /* \"contracts/Milestone.sol\":2580:2671  servicesMilestones[projectNumber][serviceNumber][milestoneNumber].description = description */\n      swap1\n      dup1\n      mload\n      swap1\n      0x20\n      add\n      swap1\n      tag_61\n      swap3\n      swap2\n      swap1\n      tag_31\n      jump\t// in\n    tag_61:\n      pop\n        /* \"contracts/Milestone.sol\":2687:2770  milestoneUpdated(projectNumber, serviceNumber, milestoneNumber, title, description) */\n      0x8c0d6ff1212c3fbf79bbe6dc1e26cc40c4e137ec5711d4471b16fa121f933511\n        /* \"contracts/Milestone.sol\":2704:2717  projectNumber */\n      dup6\n        /* \"contracts/Milestone.sol\":2719:2732  serviceNumber */\n      dup6\n        /* \"contracts/Milestone.sol\":2734:2749  milestoneNumber */\n      dup6\n        /* \"contracts/Milestone.sol\":2751:2756  title */\n      dup6\n        /* \"contracts/Milestone.sol\":2758:2769  description */\n      dup6\n        /* \"contracts/Milestone.sol\":2687:2770  milestoneUpdated(projectNumber, serviceNumber, milestoneNumber, title, description) */\n      mload(0x40)\n      tag_62\n      swap6\n      swap5\n      swap4\n      swap3\n      swap2\n      swap1\n      tag_37\n      jump\t// in\n    tag_62:\n      mload(0x40)\n      dup1\n      swap2\n      sub\n      swap1\n      log1\n        /* \"contracts/Milestone.sol\":2319:2777  function updateMilestone(uint256 projectNumber, uint256 serviceNumber, uint256 milestoneNumber, string memory title, string memory description) external {... */\n      pop\n      pop\n      pop\n      pop\n      pop\n      jump\t// out\n    tag_31:\n      dup3\n      dup1\n      sload\n      tag_63\n      swap1\n      tag_43\n      jump\t// in\n    tag_63:\n      swap1\n      0x00\n      mstore\n      keccak256(0x00, 0x20)\n      swap1\n      0x1f\n      add\n      0x20\n      swap1\n      div\n      dup2\n      add\n      swap3\n      dup3\n      tag_65\n      jumpi\n      0x00\n      dup6\n      sstore\n      jump(tag_64)\n    tag_65:\n      dup3\n      0x1f\n      lt\n      tag_66\n      jumpi\n      dup1\n      mload\n      not(0xff)\n      and\n      dup4\n      dup1\n      add\n      or\n      dup6\n      sstore\n      jump(tag_64)\n    tag_66:\n      dup3\n      dup1\n      add\n      0x01\n      add\n      dup6\n      sstore\n      dup3\n      iszero\n      tag_64\n      jumpi\n      swap2\n      dup3\n      add\n    tag_67:\n      dup3\n      dup2\n      gt\n      iszero\n      tag_68\n      jumpi\n      dup3\n      mload\n      dup3\n      sstore\n      swap2\n      0x20\n      add\n      swap2\n      swap1\n      0x01\n      add\n      swap1\n      jump(tag_67)\n    tag_68:\n    tag_64:\n      pop\n      swap1\n      pop\n      tag_69\n      swap2\n      swap1\n      tag_70\n      jump\t// in\n    tag_69:\n      pop\n      swap1\n      jump\t// out\n    tag_70:\n    tag_71:\n      dup1\n      dup3\n      gt\n      iszero\n      tag_72\n      jumpi\n      0x00\n      dup2\n      0x00\n      swap1\n      sstore\n      pop\n      0x01\n      add\n      jump(tag_71)\n    tag_72:\n      pop\n      swap1\n      jump\t// out\n        /* \"#utility.yul\":7:419   */\n    tag_74:\n        /* \"#utility.yul\":85:90   */\n      0x00\n        /* \"#utility.yul\":110:176   */\n      tag_76\n        /* \"#utility.yul\":126:175   */\n      tag_77\n        /* \"#utility.yul\":168:174   */\n      dup5\n        /* \"#utility.yul\":126:175   */\n      tag_78\n      jump\t// in\n    tag_77:\n        /* \"#utility.yul\":110:176   */\n      tag_79\n      jump\t// in\n    tag_76:\n        /* \"#utility.yul\":101:176   */\n      swap1\n      pop\n        /* \"#utility.yul\":199:205   */\n      dup3\n        /* \"#utility.yul\":192:197   */\n      dup2\n        /* \"#utility.yul\":185:206   */\n      mstore\n        /* \"#utility.yul\":237:241   */\n      0x20\n        /* \"#utility.yul\":230:235   */\n      dup2\n        /* \"#utility.yul\":226:242   */\n      add\n        /* \"#utility.yul\":275:278   */\n      dup5\n        /* \"#utility.yul\":266:272   */\n      dup5\n        /* \"#utility.yul\":261:264   */\n      dup5\n        /* \"#utility.yul\":257:273   */\n      add\n        /* \"#utility.yul\":254:279   */\n      gt\n        /* \"#utility.yul\":251:363   */\n      iszero\n      tag_80\n      jumpi\n        /* \"#utility.yul\":282:361   */\n      tag_81\n      tag_82\n      jump\t// in\n    tag_81:\n        /* \"#utility.yul\":251:363   */\n    tag_80:\n        /* \"#utility.yul\":372:413   */\n      tag_83\n        /* \"#utility.yul\":406:412   */\n      dup5\n        /* \"#utility.yul\":401:404   */\n      dup3\n        /* \"#utility.yul\":396:399   */\n      dup6\n        /* \"#utility.yul\":372:413   */\n      tag_84\n      jump\t// in\n    tag_83:\n        /* \"#utility.yul\":91:419   */\n      pop\n        /* \"#utility.yul\":7:419   */\n      swap4\n      swap3\n      pop\n      pop\n      pop\n      jump\t// out\n        /* \"#utility.yul\":425:564   */\n    tag_85:\n        /* \"#utility.yul\":471:476   */\n      0x00\n        /* \"#utility.yul\":509:515   */\n      dup2\n        /* \"#utility.yul\":496:516   */\n      calldataload\n        /* \"#utility.yul\":487:516   */\n      swap1\n      pop\n        /* \"#utility.yul\":525:558   */\n      tag_87\n        /* \"#utility.yul\":552:557   */\n      dup2\n        /* \"#utility.yul\":525:558   */\n      tag_88\n      jump\t// in\n    tag_87:\n        /* \"#utility.yul\":425:564   */\n      swap3\n      swap2\n      pop\n      pop\n      jump\t// out\n        /* \"#utility.yul\":584:924   */\n    tag_89:\n        /* \"#utility.yul\":640:645   */\n      0x00\n        /* \"#utility.yul\":689:692   */\n      dup3\n        /* \"#utility.yul\":682:686   */\n      0x1f\n        /* \"#utility.yul\":674:680   */\n      dup4\n        /* \"#utility.yul\":670:687   */\n      add\n        /* \"#utility.yul\":666:693   */\n      slt\n        /* \"#utility.yul\":656:778   */\n      tag_91\n      jumpi\n        /* \"#utility.yul\":697:776   */\n      tag_92\n      tag_93\n      jump\t// in\n    tag_92:\n        /* \"#utility.yul\":656:778   */\n    tag_91:\n        /* \"#utility.yul\":814:820   */\n      dup2\n        /* \"#utility.yul\":801:821   */\n      calldataload\n        /* \"#utility.yul\":839:918   */\n      tag_94\n        /* \"#utility.yul\":914:917   */\n      dup5\n        /* \"#utility.yul\":906:912   */\n      dup3\n        /* \"#utility.yul\":899:903   */\n      0x20\n        /* \"#utility.yul\":891:897   */\n      dup7\n        /* \"#utility.yul\":887:904   */\n      add\n        /* \"#utility.yul\":839:918   */\n      tag_74\n      jump\t// in\n    tag_94:\n        /* \"#utility.yul\":830:918   */\n      swap2\n      pop\n        /* \"#utility.yul\":646:924   */\n      pop\n        /* \"#utility.yul\":584:924   */\n      swap3\n      swap2\n      pop\n      pop\n      jump\t// out\n        /* \"#utility.yul\":930:1069   */\n    tag_95:\n        /* \"#utility.yul\":976:981   */\n      0x00\n        /* \"#utility.yul\":1014:1020   */\n      dup2\n        /* \"#utility.yul\":1001:1021   */\n      calldataload\n        /* \"#utility.yul\":992:1021   */\n      swap1\n      pop\n        /* \"#utility.yul\":1030:1063   */\n      tag_97\n        /* \"#utility.yul\":1057:1062   */\n      dup2\n        /* \"#utility.yul\":1030:1063   */\n      tag_98\n      jump\t// in\n    tag_97:\n        /* \"#utility.yul\":930:1069   */\n      swap3\n      swap2\n      pop\n      pop\n      jump\t// out\n        /* \"#utility.yul\":1075:2200   */\n    tag_10:\n        /* \"#utility.yul\":1181:1187   */\n      0x00\n        /* \"#utility.yul\":1189:1195   */\n      dup1\n        /* \"#utility.yul\":1197:1203   */\n      0x00\n        /* \"#utility.yul\":1205:1211   */\n      dup1\n        /* \"#utility.yul\":1254:1257   */\n      0x80\n        /* \"#utility.yul\":1242:1251   */\n      dup6\n        /* \"#utility.yul\":1233:1240   */\n      dup8\n        /* \"#utility.yul\":1229:1252   */\n      sub\n        /* \"#utility.yul\":1225:1258   */\n      slt\n        /* \"#utility.yul\":1222:1342   */\n      iszero\n      tag_100\n      jumpi\n        /* \"#utility.yul\":1261:1340   */\n      tag_101\n      tag_102\n      jump\t// in\n    tag_101:\n        /* \"#utility.yul\":1222:1342   */\n    tag_100:\n        /* \"#utility.yul\":1381:1382   */\n      0x00\n        /* \"#utility.yul\":1406:1459   */\n      tag_103\n        /* \"#utility.yul\":1451:1458   */\n      dup8\n        /* \"#utility.yul\":1442:1448   */\n      dup3\n        /* \"#utility.yul\":1431:1440   */\n      dup9\n        /* \"#utility.yul\":1427:1449   */\n      add\n        /* \"#utility.yul\":1406:1459   */\n      tag_95\n      jump\t// in\n    tag_103:\n        /* \"#utility.yul\":1396:1459   */\n      swap5\n      pop\n        /* \"#utility.yul\":1352:1469   */\n      pop\n        /* \"#utility.yul\":1508:1510   */\n      0x20\n        /* \"#utility.yul\":1534:1587   */\n      tag_104\n        /* \"#utility.yul\":1579:1586   */\n      dup8\n        /* \"#utility.yul\":1570:1576   */\n      dup3\n        /* \"#utility.yul\":1559:1568   */\n      dup9\n        /* \"#utility.yul\":1555:1577   */\n      add\n        /* \"#utility.yul\":1534:1587   */\n      tag_95\n      jump\t// in\n    tag_104:\n        /* \"#utility.yul\":1524:1587   */\n      swap4\n      pop\n        /* \"#utility.yul\":1479:1597   */\n      pop\n        /* \"#utility.yul\":1664:1666   */\n      0x40\n        /* \"#utility.yul\":1653:1662   */\n      dup6\n        /* \"#utility.yul\":1649:1667   */\n      add\n        /* \"#utility.yul\":1636:1668   */\n      calldataload\n        /* \"#utility.yul\":1695:1713   */\n      0xffffffffffffffff\n        /* \"#utility.yul\":1687:1693   */\n      dup2\n        /* \"#utility.yul\":1684:1714   */\n      gt\n        /* \"#utility.yul\":1681:1798   */\n      iszero\n      tag_105\n      jumpi\n        /* \"#utility.yul\":1717:1796   */\n      tag_106\n      tag_107\n      jump\t// in\n    tag_106:\n        /* \"#utility.yul\":1681:1798   */\n    tag_105:\n        /* \"#utility.yul\":1822:1885   */\n      tag_108\n        /* \"#utility.yul\":1877:1884   */\n      dup8\n        /* \"#utility.yul\":1868:1874   */\n      dup3\n        /* \"#utility.yul\":1857:1866   */\n      dup9\n        /* \"#utility.yul\":1853:1875   */\n      add\n        /* \"#utility.yul\":1822:1885   */\n      tag_89\n      jump\t// in\n    tag_108:\n        /* \"#utility.yul\":1812:1885   */\n      swap3\n      pop\n        /* \"#utility.yul\":1607:1895   */\n      pop\n        /* \"#utility.yul\":1962:1964   */\n      0x60\n        /* \"#utility.yul\":1951:1960   */\n      dup6\n        /* \"#utility.yul\":1947:1965   */\n      add\n        /* \"#utility.yul\":1934:1966   */\n      calldataload\n        /* \"#utility.yul\":1993:2011   */\n      0xffffffffffffffff\n        /* \"#utility.yul\":1985:1991   */\n      dup2\n        /* \"#utility.yul\":1982:2012   */\n      gt\n        /* \"#utility.yul\":1979:2096   */\n      iszero\n      tag_109\n      jumpi\n        /* \"#utility.yul\":2015:2094   */\n      tag_110\n      tag_107\n      jump\t// in\n    tag_110:\n        /* \"#utility.yul\":1979:2096   */\n    tag_109:\n        /* \"#utility.yul\":2120:2183   */\n      tag_111\n        /* \"#utility.yul\":2175:2182   */\n      dup8\n        /* \"#utility.yul\":2166:2172   */\n      dup3\n        /* \"#utility.yul\":2155:2164   */\n      dup9\n        /* \"#utility.yul\":2151:2173   */\n      add\n        /* \"#utility.yul\":2120:2183   */\n      tag_89\n      jump\t// in\n    tag_111:\n        /* \"#utility.yul\":2110:2183   */\n      swap2\n      pop\n        /* \"#utility.yul\":1905:2193   */\n      pop\n        /* \"#utility.yul\":1075:2200   */\n      swap3\n      swap6\n      swap2\n      swap5\n      pop\n      swap3\n      pop\n      jump\t// out\n        /* \"#utility.yul\":2206:2825   */\n    tag_14:\n        /* \"#utility.yul\":2283:2289   */\n      0x00\n        /* \"#utility.yul\":2291:2297   */\n      dup1\n        /* \"#utility.yul\":2299:2305   */\n      0x00\n        /* \"#utility.yul\":2348:2350   */\n      0x60\n        /* \"#utility.yul\":2336:2345   */\n      dup5\n        /* \"#utility.yul\":2327:2334   */\n      dup7\n        /* \"#utility.yul\":2323:2346   */\n      sub\n        /* \"#utility.yul\":2319:2351   */\n      slt\n        /* \"#utility.yul\":2316:2435   */\n      iszero\n      tag_113\n      jumpi\n        /* \"#utility.yul\":2354:2433   */\n      tag_114\n      tag_102\n      jump\t// in\n    tag_114:\n        /* \"#utility.yul\":2316:2435   */\n    tag_113:\n        /* \"#utility.yul\":2474:2475   */\n      0x00\n        /* \"#utility.yul\":2499:2552   */\n      tag_115\n        /* \"#utility.yul\":2544:2551   */\n      dup7\n        /* \"#utility.yul\":2535:2541   */\n      dup3\n        /* \"#utility.yul\":2524:2533   */\n      dup8\n        /* \"#utility.yul\":2520:2542   */\n      add\n        /* \"#utility.yul\":2499:2552   */\n      tag_95\n      jump\t// in\n    tag_115:\n        /* \"#utility.yul\":2489:2552   */\n      swap4\n      pop\n        /* \"#utility.yul\":2445:2562   */\n      pop\n        /* \"#utility.yul\":2601:2603   */\n      0x20\n        /* \"#utility.yul\":2627:2680   */\n      tag_116\n        /* \"#utility.yul\":2672:2679   */\n      dup7\n        /* \"#utility.yul\":2663:2669   */\n      dup3\n        /* \"#utility.yul\":2652:2661   */\n      dup8\n        /* \"#utility.yul\":2648:2670   */\n      add\n        /* \"#utility.yul\":2627:2680   */\n      tag_95\n      jump\t// in\n    tag_116:\n        /* \"#utility.yul\":2617:2680   */\n      swap3\n      pop\n        /* \"#utility.yul\":2572:2690   */\n      pop\n        /* \"#utility.yul\":2729:2731   */\n      0x40\n        /* \"#utility.yul\":2755:2808   */\n      tag_117\n        /* \"#utility.yul\":2800:2807   */\n      dup7\n        /* \"#utility.yul\":2791:2797   */\n      dup3\n        /* \"#utility.yul\":2780:2789   */\n      dup8\n        /* \"#utility.yul\":2776:2798   */\n      add\n        /* \"#utility.yul\":2755:2808   */\n      tag_95\n      jump\t// in\n    tag_117:\n        /* \"#utility.yul\":2745:2808   */\n      swap2\n      pop\n        /* \"#utility.yul\":2700:2818   */\n      pop\n        /* \"#utility.yul\":2206:2825   */\n      swap3\n      pop\n      swap3\n      pop\n      swap3\n      jump\t// out\n        /* \"#utility.yul\":2831:4102   */\n    tag_27:\n        /* \"#utility.yul\":2946:2952   */\n      0x00\n        /* \"#utility.yul\":2954:2960   */\n      dup1\n        /* \"#utility.yul\":2962:2968   */\n      0x00\n        /* \"#utility.yul\":2970:2976   */\n      dup1\n        /* \"#utility.yul\":2978:2984   */\n      0x00\n        /* \"#utility.yul\":3027:3030   */\n      0xa0\n        /* \"#utility.yul\":3015:3024   */\n      dup7\n        /* \"#utility.yul\":3006:3013   */\n      dup9\n        /* \"#utility.yul\":3002:3025   */\n      sub\n        /* \"#utility.yul\":2998:3031   */\n      slt\n        /* \"#utility.yul\":2995:3115   */\n      iszero\n      tag_119\n      jumpi\n        /* \"#utility.yul\":3034:3113   */\n      tag_120\n      tag_102\n      jump\t// in\n    tag_120:\n        /* \"#utility.yul\":2995:3115   */\n    tag_119:\n        /* \"#utility.yul\":3154:3155   */\n      0x00\n        /* \"#utility.yul\":3179:3232   */\n      tag_121\n        /* \"#utility.yul\":3224:3231   */\n      dup9\n        /* \"#utility.yul\":3215:3221   */\n      dup3\n        /* \"#utility.yul\":3204:3213   */\n      dup10\n        /* \"#utility.yul\":3200:3222   */\n      add\n        /* \"#utility.yul\":3179:3232   */\n      tag_95\n      jump\t// in\n    tag_121:\n        /* \"#utility.yul\":3169:3232   */\n      swap6\n      pop\n        /* \"#utility.yul\":3125:3242   */\n      pop\n        /* \"#utility.yul\":3281:3283   */\n      0x20\n        /* \"#utility.yul\":3307:3360   */\n      tag_122\n        /* \"#utility.yul\":3352:3359   */\n      dup9\n        /* \"#utility.yul\":3343:3349   */\n      dup3\n        /* \"#utility.yul\":3332:3341   */\n      dup10\n        /* \"#utility.yul\":3328:3350   */\n      add\n        /* \"#utility.yul\":3307:3360   */\n      tag_95\n      jump\t// in\n    tag_122:\n        /* \"#utility.yul\":3297:3360   */\n      swap5\n      pop\n        /* \"#utility.yul\":3252:3370   */\n      pop\n        /* \"#utility.yul\":3409:3411   */\n      0x40\n        /* \"#utility.yul\":3435:3488   */\n      tag_123\n        /* \"#utility.yul\":3480:3487   */\n      dup9\n        /* \"#utility.yul\":3471:3477   */\n      dup3\n        /* \"#utility.yul\":3460:3469   */\n      dup10\n        /* \"#utility.yul\":3456:3478   */\n      add\n        /* \"#utility.yul\":3435:3488   */\n      tag_95\n      jump\t// in\n    tag_123:\n        /* \"#utility.yul\":3425:3488   */\n      swap4\n      pop\n        /* \"#utility.yul\":3380:3498   */\n      pop\n        /* \"#utility.yul\":3565:3567   */\n      0x60\n        /* \"#utility.yul\":3554:3563   */\n      dup7\n        /* \"#utility.yul\":3550:3568   */\n      add\n        /* \"#utility.yul\":3537:3569   */\n      calldataload\n        /* \"#utility.yul\":3596:3614   */\n      0xffffffffffffffff\n        /* \"#utility.yul\":3588:3594   */\n      dup2\n        /* \"#utility.yul\":3585:3615   */\n      gt\n        /* \"#utility.yul\":3582:3699   */\n      iszero\n      tag_124\n      jumpi\n        /* \"#utility.yul\":3618:3697   */\n      tag_125\n      tag_107\n      jump\t// in\n    tag_125:\n        /* \"#utility.yul\":3582:3699   */\n    tag_124:\n        /* \"#utility.yul\":3723:3786   */\n      tag_126\n        /* \"#utility.yul\":3778:3785   */\n      dup9\n        /* \"#utility.yul\":3769:3775   */\n      dup3\n        /* \"#utility.yul\":3758:3767   */\n      dup10\n        /* \"#utility.yul\":3754:3776   */\n      add\n        /* \"#utility.yul\":3723:3786   */\n      tag_89\n      jump\t// in\n    tag_126:\n        /* \"#utility.yul\":3713:3786   */\n      swap3\n      pop\n        /* \"#utility.yul\":3508:3796   */\n      pop\n        /* \"#utility.yul\":3863:3866   */\n      0x80\n        /* \"#utility.yul\":3852:3861   */\n      dup7\n        /* \"#utility.yul\":3848:3867   */\n      add\n        /* \"#utility.yul\":3835:3868   */\n      calldataload\n        /* \"#utility.yul\":3895:3913   */\n      0xffffffffffffffff\n        /* \"#utility.yul\":3887:3893   */\n      dup2\n        /* \"#utility.yul\":3884:3914   */\n      gt\n        /* \"#utility.yul\":3881:3998   */\n      iszero\n      tag_127\n      jumpi\n        /* \"#utility.yul\":3917:3996   */\n      tag_128\n      tag_107\n      jump\t// in\n    tag_128:\n        /* \"#utility.yul\":3881:3998   */\n    tag_127:\n        /* \"#utility.yul\":4022:4085   */\n      tag_129\n        /* \"#utility.yul\":4077:4084   */\n      dup9\n        /* \"#utility.yul\":4068:4074   */\n      dup3\n        /* \"#utility.yul\":4057:4066   */\n      dup10\n        /* \"#utility.yul\":4053:4075   */\n      add\n        /* \"#utility.yul\":4022:4085   */\n      tag_89\n      jump\t// in\n    tag_129:\n        /* \"#utility.yul\":4012:4085   */\n      swap2\n      pop\n        /* \"#utility.yul\":3806:4095   */\n      pop\n        /* \"#utility.yul\":2831:4102   */\n      swap3\n      swap6\n      pop\n      swap3\n      swap6\n      swap1\n      swap4\n      pop\n      jump\t// out\n        /* \"#utility.yul\":4108:5817   */\n    tag_23:\n        /* \"#utility.yul\":4250:4256   */\n      0x00\n        /* \"#utility.yul\":4258:4264   */\n      dup1\n        /* \"#utility.yul\":4266:4272   */\n      0x00\n        /* \"#utility.yul\":4274:4280   */\n      dup1\n        /* \"#utility.yul\":4282:4288   */\n      0x00\n        /* \"#utility.yul\":4290:4296   */\n      dup1\n        /* \"#utility.yul\":4298:4304   */\n      0x00\n        /* \"#utility.yul\":4306:4312   */\n      dup1\n        /* \"#utility.yul\":4355:4358   */\n      0x0100\n        /* \"#utility.yul\":4343:4352   */\n      dup10\n        /* \"#utility.yul\":4334:4341   */\n      dup12\n        /* \"#utility.yul\":4330:4353   */\n      sub\n        /* \"#utility.yul\":4326:4359   */\n      slt\n        /* \"#utility.yul\":4323:4443   */\n      iszero\n      tag_131\n      jumpi\n        /* \"#utility.yul\":4362:4441   */\n      tag_132\n      tag_102\n      jump\t// in\n    tag_132:\n        /* \"#utility.yul\":4323:4443   */\n    tag_131:\n        /* \"#utility.yul\":4482:4483   */\n      0x00\n        /* \"#utility.yul\":4507:4560   */\n      tag_133\n        /* \"#utility.yul\":4552:4559   */\n      dup12\n        /* \"#utility.yul\":4543:4549   */\n      dup3\n        /* \"#utility.yul\":4532:4541   */\n      dup13\n        /* \"#utility.yul\":4528:4550   */\n      add\n        /* \"#utility.yul\":4507:4560   */\n      tag_95\n      jump\t// in\n    tag_133:\n        /* \"#utility.yul\":4497:4560   */\n      swap9\n      pop\n        /* \"#utility.yul\":4453:4570   */\n      pop\n        /* \"#utility.yul\":4609:4611   */\n      0x20\n        /* \"#utility.yul\":4635:4688   */\n      tag_134\n        /* \"#utility.yul\":4680:4687   */\n      dup12\n        /* \"#utility.yul\":4671:4677   */\n      dup3\n        /* \"#utility.yul\":4660:4669   */\n      dup13\n        /* \"#utility.yul\":4656:4678   */\n      add\n        /* \"#utility.yul\":4635:4688   */\n      tag_95\n      jump\t// in\n    tag_134:\n        /* \"#utility.yul\":4625:4688   */\n      swap8\n      pop\n        /* \"#utility.yul\":4580:4698   */\n      pop\n        /* \"#utility.yul\":4737:4739   */\n      0x40\n        /* \"#utility.yul\":4763:4816   */\n      tag_135\n        /* \"#utility.yul\":4808:4815   */\n      dup12\n        /* \"#utility.yul\":4799:4805   */\n      dup3\n        /* \"#utility.yul\":4788:4797   */\n      dup13\n        /* \"#utility.yul\":4784:4806   */\n      add\n        /* \"#utility.yul\":4763:4816   */\n      tag_95\n      jump\t// in\n    tag_135:\n        /* \"#utility.yul\":4753:4816   */\n      swap7\n      pop\n        /* \"#utility.yul\":4708:4826   */\n      pop\n        /* \"#utility.yul\":4893:4895   */\n      0x60\n        /* \"#utility.yul\":4882:4891   */\n      dup10\n        /* \"#utility.yul\":4878:4896   */\n      add\n        /* \"#utility.yul\":4865:4897   */\n      calldataload\n        /* \"#utility.yul\":4924:4942   */\n      0xffffffffffffffff\n        /* \"#utility.yul\":4916:4922   */\n      dup2\n        /* \"#utility.yul\":4913:4943   */\n      gt\n        /* \"#utility.yul\":4910:5027   */\n      iszero\n      tag_136\n      jumpi\n        /* \"#utility.yul\":4946:5025   */\n      tag_137\n      tag_107\n      jump\t// in\n    tag_137:\n        /* \"#utility.yul\":4910:5027   */\n    tag_136:\n        /* \"#utility.yul\":5051:5114   */\n      tag_138\n        /* \"#utility.yul\":5106:5113   */\n      dup12\n        /* \"#utility.yul\":5097:5103   */\n      dup3\n        /* \"#utility.yul\":5086:5095   */\n      dup13\n        /* \"#utility.yul\":5082:5104   */\n      add\n        /* \"#utility.yul\":5051:5114   */\n      tag_89\n      jump\t// in\n    tag_138:\n        /* \"#utility.yul\":5041:5114   */\n      swap6\n      pop\n        /* \"#utility.yul\":4836:5124   */\n      pop\n        /* \"#utility.yul\":5191:5194   */\n      0x80\n        /* \"#utility.yul\":5180:5189   */\n      dup10\n        /* \"#utility.yul\":5176:5195   */\n      add\n        /* \"#utility.yul\":5163:5196   */\n      calldataload\n        /* \"#utility.yul\":5223:5241   */\n      0xffffffffffffffff\n        /* \"#utility.yul\":5215:5221   */\n      dup2\n        /* \"#utility.yul\":5212:5242   */\n      gt\n        /* \"#utility.yul\":5209:5326   */\n      iszero\n      tag_139\n      jumpi\n        /* \"#utility.yul\":5245:5324   */\n      tag_140\n      tag_107\n      jump\t// in\n    tag_140:\n        /* \"#utility.yul\":5209:5326   */\n    tag_139:\n        /* \"#utility.yul\":5350:5413   */\n      tag_141\n        /* \"#utility.yul\":5405:5412   */\n      dup12\n        /* \"#utility.yul\":5396:5402   */\n      dup3\n        /* \"#utility.yul\":5385:5394   */\n      dup13\n        /* \"#utility.yul\":5381:5403   */\n      add\n        /* \"#utility.yul\":5350:5413   */\n      tag_89\n      jump\t// in\n    tag_141:\n        /* \"#utility.yul\":5340:5413   */\n      swap5\n      pop\n        /* \"#utility.yul\":5134:5423   */\n      pop\n        /* \"#utility.yul\":5462:5465   */\n      0xa0\n        /* \"#utility.yul\":5489:5542   */\n      tag_142\n        /* \"#utility.yul\":5534:5541   */\n      dup12\n        /* \"#utility.yul\":5525:5531   */\n      dup3\n        /* \"#utility.yul\":5514:5523   */\n      dup13\n        /* \"#utility.yul\":5510:5532   */\n      add\n        /* \"#utility.yul\":5489:5542   */\n      tag_85\n      jump\t// in\n    tag_142:\n        /* \"#utility.yul\":5479:5542   */\n      swap4\n      pop\n        /* \"#utility.yul\":5433:5552   */\n      pop\n        /* \"#utility.yul\":5591:5594   */\n      0xc0\n        /* \"#utility.yul\":5618:5671   */\n      tag_143\n        /* \"#utility.yul\":5663:5670   */\n      dup12\n        /* \"#utility.yul\":5654:5660   */\n      dup3\n        /* \"#utility.yul\":5643:5652   */\n      dup13\n        /* \"#utility.yul\":5639:5661   */\n      add\n        /* \"#utility.yul\":5618:5671   */\n      tag_85\n      jump\t// in\n    tag_143:\n        /* \"#utility.yul\":5608:5671   */\n      swap3\n      pop\n        /* \"#utility.yul\":5562:5681   */\n      pop\n        /* \"#utility.yul\":5720:5723   */\n      0xe0\n        /* \"#utility.yul\":5747:5800   */\n      tag_144\n        /* \"#utility.yul\":5792:5799   */\n      dup12\n        /* \"#utility.yul\":5783:5789   */\n      dup3\n        /* \"#utility.yul\":5772:5781   */\n      dup13\n        /* \"#utility.yul\":5768:5790   */\n      add\n        /* \"#utility.yul\":5747:5800   */\n      tag_95\n      jump\t// in\n    tag_144:\n        /* \"#utility.yul\":5737:5800   */\n      swap2\n      pop\n        /* \"#utility.yul\":5691:5810   */\n      pop\n        /* \"#utility.yul\":4108:5817   */\n      swap3\n      swap6\n      swap9\n      pop\n      swap3\n      swap6\n      swap9\n      swap1\n      swap4\n      swap7\n      pop\n      jump\t// out\n        /* \"#utility.yul\":5823:5941   */\n    tag_145:\n        /* \"#utility.yul\":5910:5934   */\n      tag_147\n        /* \"#utility.yul\":5928:5933   */\n      dup2\n        /* \"#utility.yul\":5910:5934   */\n      tag_148\n      jump\t// in\n    tag_147:\n        /* \"#utility.yul\":5905:5908   */\n      dup3\n        /* \"#utility.yul\":5898:5935   */\n      mstore\n        /* \"#utility.yul\":5823:5941   */\n      pop\n      pop\n      jump\t// out\n        /* \"#utility.yul\":5947:6311   */\n    tag_149:\n        /* \"#utility.yul\":6035:6038   */\n      0x00\n        /* \"#utility.yul\":6063:6102   */\n      tag_151\n        /* \"#utility.yul\":6096:6101   */\n      dup3\n        /* \"#utility.yul\":6063:6102   */\n      tag_152\n      jump\t// in\n    tag_151:\n        /* \"#utility.yul\":6118:6189   */\n      tag_153\n        /* \"#utility.yul\":6182:6188   */\n      dup2\n        /* \"#utility.yul\":6177:6180   */\n      dup6\n        /* \"#utility.yul\":6118:6189   */\n      tag_154\n      jump\t// in\n    tag_153:\n        /* \"#utility.yul\":6111:6189   */\n      swap4\n      pop\n        /* \"#utility.yul\":6198:6250   */\n      tag_155\n        /* \"#utility.yul\":6243:6249   */\n      dup2\n        /* \"#utility.yul\":6238:6241   */\n      dup6\n        /* \"#utility.yul\":6231:6235   */\n      0x20\n        /* \"#utility.yul\":6224:6229   */\n      dup7\n        /* \"#utility.yul\":6220:6236   */\n      add\n        /* \"#utility.yul\":6198:6250   */\n      tag_156\n      jump\t// in\n    tag_155:\n        /* \"#utility.yul\":6275:6304   */\n      tag_157\n        /* \"#utility.yul\":6297:6303   */\n      dup2\n        /* \"#utility.yul\":6275:6304   */\n      tag_158\n      jump\t// in\n    tag_157:\n        /* \"#utility.yul\":6270:6273   */\n      dup5\n        /* \"#utility.yul\":6266:6305   */\n      add\n        /* \"#utility.yul\":6259:6305   */\n      swap2\n      pop\n        /* \"#utility.yul\":6039:6311   */\n      pop\n        /* \"#utility.yul\":5947:6311   */\n      swap3\n      swap2\n      pop\n      pop\n      jump\t// out\n        /* \"#utility.yul\":6317:6435   */\n    tag_159:\n        /* \"#utility.yul\":6404:6428   */\n      tag_161\n        /* \"#utility.yul\":6422:6427   */\n      dup2\n        /* \"#utility.yul\":6404:6428   */\n      tag_162\n      jump\t// in\n    tag_161:\n        /* \"#utility.yul\":6399:6402   */\n      dup3\n        /* \"#utility.yul\":6392:6429   */\n      mstore\n        /* \"#utility.yul\":6317:6435   */\n      pop\n      pop\n      jump\t// out\n        /* \"#utility.yul\":6441:6754   */\n    tag_17:\n        /* \"#utility.yul\":6554:6558   */\n      0x00\n        /* \"#utility.yul\":6592:6594   */\n      0x20\n        /* \"#utility.yul\":6581:6590   */\n      dup3\n        /* \"#utility.yul\":6577:6595   */\n      add\n        /* \"#utility.yul\":6569:6595   */\n      swap1\n      pop\n        /* \"#utility.yul\":6641:6650   */\n      dup2\n        /* \"#utility.yul\":6635:6639   */\n      dup2\n        /* \"#utility.yul\":6631:6651   */\n      sub\n        /* \"#utility.yul\":6627:6628   */\n      0x00\n        /* \"#utility.yul\":6616:6625   */\n      dup4\n        /* \"#utility.yul\":6612:6629   */\n      add\n        /* \"#utility.yul\":6605:6652   */\n      mstore\n        /* \"#utility.yul\":6669:6747   */\n      tag_164\n        /* \"#utility.yul\":6742:6746   */\n      dup2\n        /* \"#utility.yul\":6733:6739   */\n      dup5\n        /* \"#utility.yul\":6669:6747   */\n      tag_149\n      jump\t// in\n    tag_164:\n        /* \"#utility.yul\":6661:6747   */\n      swap1\n      pop\n        /* \"#utility.yul\":6441:6754   */\n      swap3\n      swap2\n      pop\n      pop\n      jump\t// out\n        /* \"#utility.yul\":6760:7202   */\n    tag_52:\n        /* \"#utility.yul\":6909:6913   */\n      0x00\n        /* \"#utility.yul\":6947:6949   */\n      0x60\n        /* \"#utility.yul\":6936:6945   */\n      dup3\n        /* \"#utility.yul\":6932:6950   */\n      add\n        /* \"#utility.yul\":6924:6950   */\n      swap1\n      pop\n        /* \"#utility.yul\":6960:7031   */\n      tag_166\n        /* \"#utility.yul\":7028:7029   */\n      0x00\n        /* \"#utility.yul\":7017:7026   */\n      dup4\n        /* \"#utility.yul\":7013:7030   */\n      add\n        /* \"#utility.yul\":7004:7010   */\n      dup7\n        /* \"#utility.yul\":6960:7031   */\n      tag_159\n      jump\t// in\n    tag_166:\n        /* \"#utility.yul\":7041:7113   */\n      tag_167\n        /* \"#utility.yul\":7109:7111   */\n      0x20\n        /* \"#utility.yul\":7098:7107   */\n      dup4\n        /* \"#utility.yul\":7094:7112   */\n      add\n        /* \"#utility.yul\":7085:7091   */\n      dup6\n        /* \"#utility.yul\":7041:7113   */\n      tag_159\n      jump\t// in\n    tag_167:\n        /* \"#utility.yul\":7123:7195   */\n      tag_168\n        /* \"#utility.yul\":7191:7193   */\n      0x40\n        /* \"#utility.yul\":7180:7189   */\n      dup4\n        /* \"#utility.yul\":7176:7194   */\n      add\n        /* \"#utility.yul\":7167:7173   */\n      dup5\n        /* \"#utility.yul\":7123:7195   */\n      tag_159\n      jump\t// in\n    tag_168:\n        /* \"#utility.yul\":6760:7202   */\n      swap5\n      swap4\n      pop\n      pop\n      pop\n      pop\n      jump\t// out\n        /* \"#utility.yul\":7208:8054   */\n    tag_37:\n        /* \"#utility.yul\":7453:7457   */\n      0x00\n        /* \"#utility.yul\":7491:7494   */\n      0xa0\n        /* \"#utility.yul\":7480:7489   */\n      dup3\n        /* \"#utility.yul\":7476:7495   */\n      add\n        /* \"#utility.yul\":7468:7495   */\n      swap1\n      pop\n        /* \"#utility.yul\":7505:7576   */\n      tag_170\n        /* \"#utility.yul\":7573:7574   */\n      0x00\n        /* \"#utility.yul\":7562:7571   */\n      dup4\n        /* \"#utility.yul\":7558:7575   */\n      add\n        /* \"#utility.yul\":7549:7555   */\n      dup9\n        /* \"#utility.yul\":7505:7576   */\n      tag_159\n      jump\t// in\n    tag_170:\n        /* \"#utility.yul\":7586:7658   */\n      tag_171\n        /* \"#utility.yul\":7654:7656   */\n      0x20\n        /* \"#utility.yul\":7643:7652   */\n      dup4\n        /* \"#utility.yul\":7639:7657   */\n      add\n        /* \"#utility.yul\":7630:7636   */\n      dup8\n        /* \"#utility.yul\":7586:7658   */\n      tag_159\n      jump\t// in\n    tag_171:\n        /* \"#utility.yul\":7668:7740   */\n      tag_172\n        /* \"#utility.yul\":7736:7738   */\n      0x40\n        /* \"#utility.yul\":7725:7734   */\n      dup4\n        /* \"#utility.yul\":7721:7739   */\n      add\n        /* \"#utility.yul\":7712:7718   */\n      dup7\n        /* \"#utility.yul\":7668:7740   */\n      tag_159\n      jump\t// in\n    tag_172:\n        /* \"#utility.yul\":7787:7796   */\n      dup2\n        /* \"#utility.yul\":7781:7785   */\n      dup2\n        /* \"#utility.yul\":7777:7797   */\n      sub\n        /* \"#utility.yul\":7772:7774   */\n      0x60\n        /* \"#utility.yul\":7761:7770   */\n      dup4\n        /* \"#utility.yul\":7757:7775   */\n      add\n        /* \"#utility.yul\":7750:7798   */\n      mstore\n        /* \"#utility.yul\":7815:7893   */\n      tag_173\n        /* \"#utility.yul\":7888:7892   */\n      dup2\n        /* \"#utility.yul\":7879:7885   */\n      dup6\n        /* \"#utility.yul\":7815:7893   */\n      tag_149\n      jump\t// in\n    tag_173:\n        /* \"#utility.yul\":7807:7893   */\n      swap1\n      pop\n        /* \"#utility.yul\":7941:7950   */\n      dup2\n        /* \"#utility.yul\":7935:7939   */\n      dup2\n        /* \"#utility.yul\":7931:7951   */\n      sub\n        /* \"#utility.yul\":7925:7928   */\n      0x80\n        /* \"#utility.yul\":7914:7923   */\n      dup4\n        /* \"#utility.yul\":7910:7929   */\n      add\n        /* \"#utility.yul\":7903:7952   */\n      mstore\n        /* \"#utility.yul\":7969:8047   */\n      tag_174\n        /* \"#utility.yul\":8042:8046   */\n      dup2\n        /* \"#utility.yul\":8033:8039   */\n      dup5\n        /* \"#utility.yul\":7969:8047   */\n      tag_149\n      jump\t// in\n    tag_174:\n        /* \"#utility.yul\":7961:8047   */\n      swap1\n      pop\n        /* \"#utility.yul\":7208:8054   */\n      swap7\n      swap6\n      pop\n      pop\n      pop\n      pop\n      pop\n      pop\n      jump\t// out\n        /* \"#utility.yul\":8060:9239   */\n    tag_55:\n        /* \"#utility.yul\":8389:8393   */\n      0x00\n        /* \"#utility.yul\":8427:8430   */\n      0x0100\n        /* \"#utility.yul\":8416:8425   */\n      dup3\n        /* \"#utility.yul\":8412:8431   */\n      add\n        /* \"#utility.yul\":8404:8431   */\n      swap1\n      pop\n        /* \"#utility.yul\":8441:8512   */\n      tag_176\n        /* \"#utility.yul\":8509:8510   */\n      0x00\n        /* \"#utility.yul\":8498:8507   */\n      dup4\n        /* \"#utility.yul\":8494:8511   */\n      add\n        /* \"#utility.yul\":8485:8491   */\n      dup12\n        /* \"#utility.yul\":8441:8512   */\n      tag_159\n      jump\t// in\n    tag_176:\n        /* \"#utility.yul\":8522:8594   */\n      tag_177\n        /* \"#utility.yul\":8590:8592   */\n      0x20\n        /* \"#utility.yul\":8579:8588   */\n      dup4\n        /* \"#utility.yul\":8575:8593   */\n      add\n        /* \"#utility.yul\":8566:8572   */\n      dup11\n        /* \"#utility.yul\":8522:8594   */\n      tag_159\n      jump\t// in\n    tag_177:\n        /* \"#utility.yul\":8604:8676   */\n      tag_178\n        /* \"#utility.yul\":8672:8674   */\n      0x40\n        /* \"#utility.yul\":8661:8670   */\n      dup4\n        /* \"#utility.yul\":8657:8675   */\n      add\n        /* \"#utility.yul\":8648:8654   */\n      dup10\n        /* \"#utility.yul\":8604:8676   */\n      tag_159\n      jump\t// in\n    tag_178:\n        /* \"#utility.yul\":8723:8732   */\n      dup2\n        /* \"#utility.yul\":8717:8721   */\n      dup2\n        /* \"#utility.yul\":8713:8733   */\n      sub\n        /* \"#utility.yul\":8708:8710   */\n      0x60\n        /* \"#utility.yul\":8697:8706   */\n      dup4\n        /* \"#utility.yul\":8693:8711   */\n      add\n        /* \"#utility.yul\":8686:8734   */\n      mstore\n        /* \"#utility.yul\":8751:8829   */\n      tag_179\n        /* \"#utility.yul\":8824:8828   */\n      dup2\n        /* \"#utility.yul\":8815:8821   */\n      dup9\n        /* \"#utility.yul\":8751:8829   */\n      tag_149\n      jump\t// in\n    tag_179:\n        /* \"#utility.yul\":8743:8829   */\n      swap1\n      pop\n        /* \"#utility.yul\":8877:8886   */\n      dup2\n        /* \"#utility.yul\":8871:8875   */\n      dup2\n        /* \"#utility.yul\":8867:8887   */\n      sub\n        /* \"#utility.yul\":8861:8864   */\n      0x80\n        /* \"#utility.yul\":8850:8859   */\n      dup4\n        /* \"#utility.yul\":8846:8865   */\n      add\n        /* \"#utility.yul\":8839:8888   */\n      mstore\n        /* \"#utility.yul\":8905:8983   */\n      tag_180\n        /* \"#utility.yul\":8978:8982   */\n      dup2\n        /* \"#utility.yul\":8969:8975   */\n      dup8\n        /* \"#utility.yul\":8905:8983   */\n      tag_149\n      jump\t// in\n    tag_180:\n        /* \"#utility.yul\":8897:8983   */\n      swap1\n      pop\n        /* \"#utility.yul\":8993:9066   */\n      tag_181\n        /* \"#utility.yul\":9061:9064   */\n      0xa0\n        /* \"#utility.yul\":9050:9059   */\n      dup4\n        /* \"#utility.yul\":9046:9065   */\n      add\n        /* \"#utility.yul\":9037:9043   */\n      dup7\n        /* \"#utility.yul\":8993:9066   */\n      tag_145\n      jump\t// in\n    tag_181:\n        /* \"#utility.yul\":9076:9149   */\n      tag_182\n        /* \"#utility.yul\":9144:9147   */\n      0xc0\n        /* \"#utility.yul\":9133:9142   */\n      dup4\n        /* \"#utility.yul\":9129:9148   */\n      add\n        /* \"#utility.yul\":9120:9126   */\n      dup6\n        /* \"#utility.yul\":9076:9149   */\n      tag_145\n      jump\t// in\n    tag_182:\n        /* \"#utility.yul\":9159:9232   */\n      tag_183\n        /* \"#utility.yul\":9227:9230   */\n      0xe0\n        /* \"#utility.yul\":9216:9225   */\n      dup4\n        /* \"#utility.yul\":9212:9231   */\n      add\n        /* \"#utility.yul\":9203:9209   */\n      dup5\n        /* \"#utility.yul\":9159:9232   */\n      tag_159\n      jump\t// in\n    tag_183:\n        /* \"#utility.yul\":8060:9239   */\n      swap10\n      swap9\n      pop\n      pop\n      pop\n      pop\n      pop\n      pop\n      pop\n      pop\n      pop\n      jump\t// out\n        /* \"#utility.yul\":9245:9374   */\n    tag_79:\n        /* \"#utility.yul\":9279:9285   */\n      0x00\n        /* \"#utility.yul\":9306:9326   */\n      tag_185\n      tag_186\n      jump\t// in\n    tag_185:\n        /* \"#utility.yul\":9296:9326   */\n      swap1\n      pop\n        /* \"#utility.yul\":9335:9368   */\n      tag_187\n        /* \"#utility.yul\":9363:9367   */\n      dup3\n        /* \"#utility.yul\":9355:9361   */\n      dup3\n        /* \"#utility.yul\":9335:9368   */\n      tag_188\n      jump\t// in\n    tag_187:\n        /* \"#utility.yul\":9245:9374   */\n      swap2\n      swap1\n      pop\n      jump\t// out\n        /* \"#utility.yul\":9380:9455   */\n    tag_186:\n        /* \"#utility.yul\":9413:9419   */\n      0x00\n        /* \"#utility.yul\":9446:9448   */\n      0x40\n        /* \"#utility.yul\":9440:9449   */\n      mload\n        /* \"#utility.yul\":9430:9449   */\n      swap1\n      pop\n        /* \"#utility.yul\":9380:9455   */\n      swap1\n      jump\t// out\n        /* \"#utility.yul\":9461:9769   */\n    tag_78:\n        /* \"#utility.yul\":9523:9527   */\n      0x00\n        /* \"#utility.yul\":9613:9631   */\n      0xffffffffffffffff\n        /* \"#utility.yul\":9605:9611   */\n      dup3\n        /* \"#utility.yul\":9602:9632   */\n      gt\n        /* \"#utility.yul\":9599:9655   */\n      iszero\n      tag_191\n      jumpi\n        /* \"#utility.yul\":9635:9653   */\n      tag_192\n      tag_193\n      jump\t// in\n    tag_192:\n        /* \"#utility.yul\":9599:9655   */\n    tag_191:\n        /* \"#utility.yul\":9673:9702   */\n      tag_194\n        /* \"#utility.yul\":9695:9701   */\n      dup3\n        /* \"#utility.yul\":9673:9702   */\n      tag_158\n      jump\t// in\n    tag_194:\n        /* \"#utility.yul\":9665:9702   */\n      swap1\n      pop\n        /* \"#utility.yul\":9757:9761   */\n      0x20\n        /* \"#utility.yul\":9751:9755   */\n      dup2\n        /* \"#utility.yul\":9747:9762   */\n      add\n        /* \"#utility.yul\":9739:9762   */\n      swap1\n      pop\n        /* \"#utility.yul\":9461:9769   */\n      swap2\n      swap1\n      pop\n      jump\t// out\n        /* \"#utility.yul\":9775:9874   */\n    tag_152:\n        /* \"#utility.yul\":9827:9833   */\n      0x00\n        /* \"#utility.yul\":9861:9866   */\n      dup2\n        /* \"#utility.yul\":9855:9867   */\n      mload\n        /* \"#utility.yul\":9845:9867   */\n      swap1\n      pop\n        /* \"#utility.yul\":9775:9874   */\n      swap2\n      swap1\n      pop\n      jump\t// out\n        /* \"#utility.yul\":9880:10049   */\n    tag_154:\n        /* \"#utility.yul\":9964:9975   */\n      0x00\n        /* \"#utility.yul\":9998:10004   */\n      dup3\n        /* \"#utility.yul\":9993:9996   */\n      dup3\n        /* \"#utility.yul\":9986:10005   */\n      mstore\n        /* \"#utility.yul\":10038:10042   */\n      0x20\n        /* \"#utility.yul\":10033:10036   */\n      dup3\n        /* \"#utility.yul\":10029:10043   */\n      add\n        /* \"#utility.yul\":10014:10043   */\n      swap1\n      pop\n        /* \"#utility.yul\":9880:10049   */\n      swap3\n      swap2\n      pop\n      pop\n      jump\t// out\n        /* \"#utility.yul\":10055:10151   */\n    tag_148:\n        /* \"#utility.yul\":10092:10099   */\n      0x00\n        /* \"#utility.yul\":10121:10145   */\n      tag_198\n        /* \"#utility.yul\":10139:10144   */\n      dup3\n        /* \"#utility.yul\":10121:10145   */\n      tag_199\n      jump\t// in\n    tag_198:\n        /* \"#utility.yul\":10110:10145   */\n      swap1\n      pop\n        /* \"#utility.yul\":10055:10151   */\n      swap2\n      swap1\n      pop\n      jump\t// out\n        /* \"#utility.yul\":10157:10283   */\n    tag_199:\n        /* \"#utility.yul\":10194:10201   */\n      0x00\n        /* \"#utility.yul\":10234:10276   */\n      0xffffffffffffffffffffffffffffffffffffffff\n        /* \"#utility.yul\":10227:10232   */\n      dup3\n        /* \"#utility.yul\":10223:10277   */\n      and\n        /* \"#utility.yul\":10212:10277   */\n      swap1\n      pop\n        /* \"#utility.yul\":10157:10283   */\n      swap2\n      swap1\n      pop\n      jump\t// out\n        /* \"#utility.yul\":10289:10366   */\n    tag_162:\n        /* \"#utility.yul\":10326:10333   */\n      0x00\n        /* \"#utility.yul\":10355:10360   */\n      dup2\n        /* \"#utility.yul\":10344:10360   */\n      swap1\n      pop\n        /* \"#utility.yul\":10289:10366   */\n      swap2\n      swap1\n      pop\n      jump\t// out\n        /* \"#utility.yul\":10372:10526   */\n    tag_84:\n        /* \"#utility.yul\":10456:10462   */\n      dup3\n        /* \"#utility.yul\":10451:10454   */\n      dup2\n        /* \"#utility.yul\":10446:10449   */\n      dup4\n        /* \"#utility.yul\":10433:10463   */\n      calldatacopy\n        /* \"#utility.yul\":10518:10519   */\n      0x00\n        /* \"#utility.yul\":10509:10515   */\n      dup4\n        /* \"#utility.yul\":10504:10507   */\n      dup4\n        /* \"#utility.yul\":10500:10516   */\n      add\n        /* \"#utility.yul\":10493:10520   */\n      mstore\n        /* \"#utility.yul\":10372:10526   */\n      pop\n      pop\n      pop\n      jump\t// out\n        /* \"#utility.yul\":10532:10839   */\n    tag_156:\n        /* \"#utility.yul\":10600:10601   */\n      0x00\n        /* \"#utility.yul\":10610:10723   */\n    tag_204:\n        /* \"#utility.yul\":10624:10630   */\n      dup4\n        /* \"#utility.yul\":10621:10622   */\n      dup2\n        /* \"#utility.yul\":10618:10631   */\n      lt\n        /* \"#utility.yul\":10610:10723   */\n      iszero\n      tag_206\n      jumpi\n        /* \"#utility.yul\":10709:10710   */\n      dup1\n        /* \"#utility.yul\":10704:10707   */\n      dup3\n        /* \"#utility.yul\":10700:10711   */\n      add\n        /* \"#utility.yul\":10694:10712   */\n      mload\n        /* \"#utility.yul\":10690:10691   */\n      dup2\n        /* \"#utility.yul\":10685:10688   */\n      dup5\n        /* \"#utility.yul\":10681:10692   */\n      add\n        /* \"#utility.yul\":10674:10713   */\n      mstore\n        /* \"#utility.yul\":10646:10648   */\n      0x20\n        /* \"#utility.yul\":10643:10644   */\n      dup2\n        /* \"#utility.yul\":10639:10649   */\n      add\n        /* \"#utility.yul\":10634:10649   */\n      swap1\n      pop\n        /* \"#utility.yul\":10610:10723   */\n      jump(tag_204)\n    tag_206:\n        /* \"#utility.yul\":10741:10747   */\n      dup4\n        /* \"#utility.yul\":10738:10739   */\n      dup2\n        /* \"#utility.yul\":10735:10748   */\n      gt\n        /* \"#utility.yul\":10732:10833   */\n      iszero\n      tag_207\n      jumpi\n        /* \"#utility.yul\":10821:10822   */\n      0x00\n        /* \"#utility.yul\":10812:10818   */\n      dup5\n        /* \"#utility.yul\":10807:10810   */\n      dup5\n        /* \"#utility.yul\":10803:10819   */\n      add\n        /* \"#utility.yul\":10796:10823   */\n      mstore\n        /* \"#utility.yul\":10732:10833   */\n    tag_207:\n        /* \"#utility.yul\":10581:10839   */\n      pop\n        /* \"#utility.yul\":10532:10839   */\n      pop\n      pop\n      pop\n      jump\t// out\n        /* \"#utility.yul\":10845:11016   */\n    tag_50:\n        /* \"#utility.yul\":10884:10887   */\n      0x00\n        /* \"#utility.yul\":10907:10931   */\n      tag_209\n        /* \"#utility.yul\":10925:10930   */\n      dup3\n        /* \"#utility.yul\":10907:10931   */\n      tag_162\n      jump\t// in\n    tag_209:\n        /* \"#utility.yul\":10898:10931   */\n      swap2\n      pop\n        /* \"#utility.yul\":10953:10957   */\n      0x00\n        /* \"#utility.yul\":10946:10951   */\n      dup3\n        /* \"#utility.yul\":10943:10958   */\n      eq\n        /* \"#utility.yul\":10940:10981   */\n      iszero\n      tag_210\n      jumpi\n        /* \"#utility.yul\":10961:10979   */\n      tag_211\n      tag_212\n      jump\t// in\n    tag_211:\n        /* \"#utility.yul\":10940:10981   */\n    tag_210:\n        /* \"#utility.yul\":11008:11009   */\n      0x01\n        /* \"#utility.yul\":11001:11006   */\n      dup3\n        /* \"#utility.yul\":10997:11010   */\n      sub\n        /* \"#utility.yul\":10990:11010   */\n      swap1\n      pop\n        /* \"#utility.yul\":10845:11016   */\n      swap2\n      swap1\n      pop\n      jump\t// out\n        /* \"#utility.yul\":11022:11342   */\n    tag_43:\n        /* \"#utility.yul\":11066:11072   */\n      0x00\n        /* \"#utility.yul\":11103:11104   */\n      0x02\n        /* \"#utility.yul\":11097:11101   */\n      dup3\n        /* \"#utility.yul\":11093:11105   */\n      div\n        /* \"#utility.yul\":11083:11105   */\n      swap1\n      pop\n        /* \"#utility.yul\":11150:11151   */\n      0x01\n        /* \"#utility.yul\":11144:11148   */\n      dup3\n        /* \"#utility.yul\":11140:11152   */\n      and\n        /* \"#utility.yul\":11171:11189   */\n      dup1\n        /* \"#utility.yul\":11161:11242   */\n      tag_214\n      jumpi\n        /* \"#utility.yul\":11227:11231   */\n      0x7f\n        /* \"#utility.yul\":11219:11225   */\n      dup3\n        /* \"#utility.yul\":11215:11232   */\n      and\n        /* \"#utility.yul\":11205:11232   */\n      swap2\n      pop\n        /* \"#utility.yul\":11161:11242   */\n    tag_214:\n        /* \"#utility.yul\":11289:11291   */\n      0x20\n        /* \"#utility.yul\":11281:11287   */\n      dup3\n        /* \"#utility.yul\":11278:11292   */\n      lt\n        /* \"#utility.yul\":11258:11276   */\n      dup2\n        /* \"#utility.yul\":11255:11293   */\n      eq\n        /* \"#utility.yul\":11252:11336   */\n      iszero\n      tag_215\n      jumpi\n        /* \"#utility.yul\":11308:11326   */\n      tag_216\n      tag_217\n      jump\t// in\n    tag_216:\n        /* \"#utility.yul\":11252:11336   */\n    tag_215:\n        /* \"#utility.yul\":11073:11342   */\n      pop\n        /* \"#utility.yul\":11022:11342   */\n      swap2\n      swap1\n      pop\n      jump\t// out\n        /* \"#utility.yul\":11348:11629   */\n    tag_188:\n        /* \"#utility.yul\":11431:11458   */\n      tag_219\n        /* \"#utility.yul\":11453:11457   */\n      dup3\n        /* \"#utility.yul\":11431:11458   */\n      tag_158\n      jump\t// in\n    tag_219:\n        /* \"#utility.yul\":11423:11429   */\n      dup2\n        /* \"#utility.yul\":11419:11459   */\n      add\n        /* \"#utility.yul\":11561:11567   */\n      dup2\n        /* \"#utility.yul\":11549:11559   */\n      dup2\n        /* \"#utility.yul\":11546:11568   */\n      lt\n        /* \"#utility.yul\":11525:11543   */\n      0xffffffffffffffff\n        /* \"#utility.yul\":11513:11523   */\n      dup3\n        /* \"#utility.yul\":11510:11544   */\n      gt\n        /* \"#utility.yul\":11507:11569   */\n      or\n        /* \"#utility.yul\":11504:11592   */\n      iszero\n      tag_220\n      jumpi\n        /* \"#utility.yul\":11572:11590   */\n      tag_221\n      tag_193\n      jump\t// in\n    tag_221:\n        /* \"#utility.yul\":11504:11592   */\n    tag_220:\n        /* \"#utility.yul\":11612:11622   */\n      dup1\n        /* \"#utility.yul\":11608:11610   */\n      0x40\n        /* \"#utility.yul\":11601:11623   */\n      mstore\n        /* \"#utility.yul\":11391:11629   */\n      pop\n        /* \"#utility.yul\":11348:11629   */\n      pop\n      pop\n      jump\t// out\n        /* \"#utility.yul\":11635:11868   */\n    tag_39:\n        /* \"#utility.yul\":11674:11677   */\n      0x00\n        /* \"#utility.yul\":11697:11721   */\n      tag_223\n        /* \"#utility.yul\":11715:11720   */\n      dup3\n        /* \"#utility.yul\":11697:11721   */\n      tag_162\n      jump\t// in\n    tag_223:\n        /* \"#utility.yul\":11688:11721   */\n      swap2\n      pop\n        /* \"#utility.yul\":11743:11809   */\n      0xffffffffffffffffffffffffffffffffffffffffffffffffffffffffffffffff\n        /* \"#utility.yul\":11736:11741   */\n      dup3\n        /* \"#utility.yul\":11733:11810   */\n      eq\n        /* \"#utility.yul\":11730:11833   */\n      iszero\n      tag_224\n      jumpi\n        /* \"#utility.yul\":11813:11831   */\n      tag_225\n      tag_212\n      jump\t// in\n    tag_225:\n        /* \"#utility.yul\":11730:11833   */\n    tag_224:\n        /* \"#utility.yul\":11860:11861   */\n      0x01\n        /* \"#utility.yul\":11853:11858   */\n      dup3\n        /* \"#utility.yul\":11849:11862   */\n      add\n        /* \"#utility.yul\":11842:11862   */\n      swap1\n      pop\n        /* \"#utility.yul\":11635:11868   */\n      swap2\n      swap1\n      pop\n      jump\t// out\n        /* \"#utility.yul\":11874:12054   */\n    tag_212:\n        /* \"#utility.yul\":11922:11999   */\n      0x4e487b7100000000000000000000000000000000000000000000000000000000\n        /* \"#utility.yul\":11919:11920   */\n      0x00\n        /* \"#utility.yul\":11912:12000   */\n      mstore\n        /* \"#utility.yul\":12019:12023   */\n      0x11\n        /* \"#utility.yul\":12016:12017   */\n      0x04\n        /* \"#utility.yul\":12009:12024   */\n      mstore\n        /* \"#utility.yul\":12043:12047   */\n      0x24\n        /* \"#utility.yul\":12040:12041   */\n      0x00\n        /* \"#utility.yul\":12033:12048   */\n      revert\n        /* \"#utility.yul\":12060:12240   */\n    tag_35:\n        /* \"#utility.yul\":12108:12185   */\n      0x4e487b7100000000000000000000000000000000000000000000000000000000\n        /* \"#utility.yul\":12105:12106   */\n      0x00\n        /* \"#utility.yul\":12098:12186   */\n      mstore\n        /* \"#utility.yul\":12205:12209   */\n      0x21\n        /* \"#utility.yul\":12202:12203   */\n      0x04\n        /* \"#utility.yul\":12195:12210   */\n      mstore\n        /* \"#utility.yul\":12229:12233   */\n      0x24\n        /* \"#utility.yul\":12226:12227   */\n      0x00\n        /* \"#utility.yul\":12219:12234   */\n      revert\n        /* \"#utility.yul\":12246:12426   */\n    tag_217:\n        /* \"#utility.yul\":12294:12371   */\n      0x4e487b7100000000000000000000000000000000000000000000000000000000\n        /* \"#utility.yul\":12291:12292   */\n      0x00\n        /* \"#utility.yul\":12284:12372   */\n      mstore\n        /* \"#utility.yul\":12391:12395   */\n      0x22\n        /* \"#utility.yul\":12388:12389   */\n      0x04\n        /* \"#utility.yul\":12381:12396   */\n      mstore\n        /* \"#utility.yul\":12415:12419   */\n      0x24\n        /* \"#utility.yul\":12412:12413   */\n      0x00\n        /* \"#utility.yul\":12405:12420   */\n      revert\n        /* \"#utility.yul\":12432:12612   */\n    tag_193:\n        /* \"#utility.yul\":12480:12557   */\n      0x4e487b7100000000000000000000000000000000000000000000000000000000\n        /* \"#utility.yul\":12477:12478   */\n      0x00\n        /* \"#utility.yul\":12470:12558   */\n      mstore\n        /* \"#utility.yul\":12577:12581   */\n      0x41\n        /* \"#utility.yul\":12574:12575   */\n      0x04\n        /* \"#utility.yul\":12567:12582   */\n      mstore\n        /* \"#utility.yul\":12601:12605   */\n      0x24\n        /* \"#utility.yul\":12598:12599   */\n      0x00\n        /* \"#utility.yul\":12591:12606   */\n      revert\n        /* \"#utility.yul\":12618:12735   */\n    tag_93:\n        /* \"#utility.yul\":12727:12728   */\n      0x00\n        /* \"#utility.yul\":12724:12725   */\n      dup1\n        /* \"#utility.yul\":12717:12729   */\n      revert\n        /* \"#utility.yul\":12741:12858   */\n    tag_82:\n        /* \"#utility.yul\":12850:12851   */\n      0x00\n        /* \"#utility.yul\":12847:12848   */\n      dup1\n        /* \"#utility.yul\":12840:12852   */\n      revert\n        /* \"#utility.yul\":12864:12981   */\n    tag_107:\n        /* \"#utility.yul\":12973:12974   */\n      0x00\n        /* \"#utility.yul\":12970:12971   */\n      dup1\n        /* \"#utility.yul\":12963:12975   */\n      revert\n        /* \"#utility.yul\":12987:13104   */\n    tag_102:\n        /* \"#utility.yul\":13096:13097   */\n      0x00\n        /* \"#utility.yul\":13093:13094   */\n      dup1\n        /* \"#utility.yul\":13086:13098   */\n      revert\n        /* \"#utility.yul\":13110:13212   */\n    tag_158:\n        /* \"#utility.yul\":13151:13157   */\n      0x00\n        /* \"#utility.yul\":13202:13204   */\n      0x1f\n        /* \"#utility.yul\":13198:13205   */\n      not\n        /* \"#utility.yul\":13193:13195   */\n      0x1f\n        /* \"#utility.yul\":13186:13191   */\n      dup4\n        /* \"#utility.yul\":13182:13196   */\n      add\n        /* \"#utility.yul\":13178:13206   */\n      and\n        /* \"#utility.yul\":13168:13206   */\n      swap1\n      pop\n        /* \"#utility.yul\":13110:13212   */\n      swap2\n      swap1\n      pop\n      jump\t// out\n        /* \"#utility.yul\":13218:13340   */\n    tag_88:\n        /* \"#utility.yul\":13291:13315   */\n      tag_236\n        /* \"#utility.yul\":13309:13314   */\n      dup2\n        /* \"#utility.yul\":13291:13315   */\n      tag_148\n      jump\t// in\n    tag_236:\n        /* \"#utility.yul\":13284:13289   */\n      dup2\n        /* \"#utility.yul\":13281:13316   */\n      eq\n        /* \"#utility.yul\":13271:13334   */\n      tag_237\n      jumpi\n        /* \"#utility.yul\":13330:13331   */\n      0x00\n        /* \"#utility.yul\":13327:13328   */\n      dup1\n        /* \"#utility.yul\":13320:13332   */\n      revert\n        /* \"#utility.yul\":13271:13334   */\n    tag_237:\n        /* \"#utility.yul\":13218:13340   */\n      pop\n      jump\t// out\n        /* \"#utility.yul\":13346:13468   */\n    tag_98:\n        /* \"#utility.yul\":13419:13443   */\n      tag_239\n        /* \"#utility.yul\":13437:13442   */\n      dup2\n        /* \"#utility.yul\":13419:13443   */\n      tag_162\n      jump\t// in\n    tag_239:\n        /* \"#utility.yul\":13412:13417   */\n      dup2\n        /* \"#utility.yul\":13409:13444   */\n      eq\n        /* \"#utility.yul\":13399:13462   */\n      tag_240\n      jumpi\n        /* \"#utility.yul\":13458:13459   */\n      0x00\n        /* \"#utility.yul\":13455:13456   */\n      dup1\n        /* \"#utility.yul\":13448:13460   */\n      revert\n        /* \"#utility.yul\":13399:13462   */\n    tag_240:\n        /* \"#utility.yul\":13346:13468   */\n      pop\n      jump\t// out\n\n    auxdata: 0xa2646970667358221220b0a4edd80a37c31c18363069dd90bdac02a6ecc2eba81f64fa1ffb0ae115279e64736f6c63430008070033\n}\n",
				"bytecode": {
					"linkReferences": {},
					"object": "6080604052600060025560006003553480156200001b57600080fd5b5060405162000f0038038062000f0083398181016040528101906200004191906200009f565b806000806101000a81548173ffffffffffffffffffffffffffffffffffffffff021916908373ffffffffffffffffffffffffffffffffffffffff1602179055505062000138565b60008151905062000099816200011e565b92915050565b600060208284031215620000b857620000b762000119565b5b6000620000c88482850162000088565b91505092915050565b6000620000de82620000f9565b9050919050565b6000620000f282620000d1565b9050919050565b600073ffffffffffffffffffffffffffffffffffffffff82169050919050565b600080fd5b6200012981620000e5565b81146200013557600080fd5b50565b610db880620001486000396000f3fe608060405234801561001057600080fd5b50600436106100575760003560e01c806363ef8a501461005c578063ace731bd14610078578063b9b6c5d4146100a8578063e62fac27146100c4578063fd23c4bb146100e0575b600080fd5b6100766004803603810190610071919061067d565b6100fc565b005b610092600480360381019061008d919061071c565b610248565b60405161009f9190610967565b60405180910390f35b6100c260048036038101906100bd919061071c565b610314565b005b6100de60048036038101906100d99190610822565b6103bd565b005b6100fa60048036038101906100f5919061076f565b610460565b005b600060016000868152602001908152602001600020600085815260200190815260200160002060006003548152602001908152602001600020905084816000018190555083816001018190555060035481600201819055508281600301908051906020019061016c929190610540565b5081816004019080519060200190610185929190610540565b5060018160050160006101000a81548160ff02191690831515021790555060008160050160016101000a81548160ff021916908360068111156101cb576101ca610ca2565b5b02179055507f70d8b12d438dd130d28072c77c8047d9697b630b8dcd969123645998ad67d561858560035486866040516102099594939291906109c0565b60405180910390a16002600081548092919061022490610c2a565b91905055506003600081548092919061023c90610c2a565b91905055505050505050565b60606001600085815260200190815260200160002060008481526020019081526020016000206000838152602001908152602001600020600301805461028d90610bc7565b80601f01602080910402602001604051908101604052809291908181526020018280546102b990610bc7565b80156103065780601f106102db57610100808354040283529160200191610306565b820191906000526020600020905b8154815290600101906020018083116102e957829003601f168201915b505050505090509392505050565b6000600160008581526020019081526020016000206000848152602001908152602001600020600083815260200190815260200160002060050160006101000a81548160ff0219169083151502179055506002600081548092919061037890610b9d565b91905055507f2b2605ee52ace237f72e6005eee79180ea3b6151bd8848a6be5e3c224b8a6ec68383836040516103b093929190610989565b60405180910390a1505050565b60008054906101000a900473ffffffffffffffffffffffffffffffffffffffff1673ffffffffffffffffffffffffffffffffffffffff1663e62fac2789898989898989896040518963ffffffff1660e01b8152600401610424989796959493929190610a21565b600060405180830381600087803b15801561043e57600080fd5b505af1158015610452573d6000803e3d6000fd5b505050505050505050505050565b81600160008781526020019081526020016000206000868152602001908152602001600020600085815260200190815260200160002060030190805190602001906104ac929190610540565b5080600160008781526020019081526020016000206000868152602001908152602001600020600085815260200190815260200160002060040190805190602001906104f9929190610540565b507f8c0d6ff1212c3fbf79bbe6dc1e26cc40c4e137ec5711d4471b16fa121f93351185858585856040516105319594939291906109c0565b60405180910390a15050505050565b82805461054c90610bc7565b90600052602060002090601f01602090048101928261056e57600085556105b5565b82601f1061058757805160ff19168380011785556105b5565b828001600101855582156105b5579182015b828111156105b4578251825591602001919060010190610599565b5b5090506105c291906105c6565b5090565b5b808211156105df5760008160009055506001016105c7565b5090565b60006105f66105f184610ad2565b610aad565b90508281526020810184848401111561061257610611610d34565b5b61061d848285610b5b565b509392505050565b60008135905061063481610d54565b92915050565b600082601f83011261064f5761064e610d2f565b5b813561065f8482602086016105e3565b91505092915050565b60008135905061067781610d6b565b92915050565b6000806000806080858703121561069757610696610d3e565b5b60006106a587828801610668565b94505060206106b687828801610668565b935050604085013567ffffffffffffffff8111156106d7576106d6610d39565b5b6106e38782880161063a565b925050606085013567ffffffffffffffff81111561070457610703610d39565b5b6107108782880161063a565b91505092959194509250565b60008060006060848603121561073557610734610d3e565b5b600061074386828701610668565b935050602061075486828701610668565b925050604061076586828701610668565b9150509250925092565b600080600080600060a0868803121561078b5761078a610d3e565b5b600061079988828901610668565b95505060206107aa88828901610668565b94505060406107bb88828901610668565b935050606086013567ffffffffffffffff8111156107dc576107db610d39565b5b6107e88882890161063a565b925050608086013567ffffffffffffffff81111561080957610808610d39565b5b6108158882890161063a565b9150509295509295909350565b600080600080600080600080610100898b03121561084357610842610d3e565b5b60006108518b828c01610668565b98505060206108628b828c01610668565b97505060406108738b828c01610668565b965050606089013567ffffffffffffffff81111561089457610893610d39565b5b6108a08b828c0161063a565b955050608089013567ffffffffffffffff8111156108c1576108c0610d39565b5b6108cd8b828c0161063a565b94505060a06108de8b828c01610625565b93505060c06108ef8b828c01610625565b92505060e06109008b828c01610668565b9150509295985092959890939650565b61091981610b1f565b82525050565b600061092a82610b03565b6109348185610b0e565b9350610944818560208601610b6a565b61094d81610d43565b840191505092915050565b61096181610b51565b82525050565b60006020820190508181036000830152610981818461091f565b905092915050565b600060608201905061099e6000830186610958565b6109ab6020830185610958565b6109b86040830184610958565b949350505050565b600060a0820190506109d56000830188610958565b6109e26020830187610958565b6109ef6040830186610958565b8181036060830152610a01818561091f565b90508181036080830152610a15818461091f565b90509695505050505050565b600061010082019050610a37600083018b610958565b610a44602083018a610958565b610a516040830189610958565b8181036060830152610a63818861091f565b90508181036080830152610a77818761091f565b9050610a8660a0830186610910565b610a9360c0830185610910565b610aa060e0830184610958565b9998505050505050505050565b6000610ab7610ac8565b9050610ac38282610bf9565b919050565b6000604051905090565b600067ffffffffffffffff821115610aed57610aec610d00565b5b610af682610d43565b9050602081019050919050565b600081519050919050565b600082825260208201905092915050565b6000610b2a82610b31565b9050919050565b600073ffffffffffffffffffffffffffffffffffffffff82169050919050565b6000819050919050565b82818337600083830152505050565b60005b83811015610b88578082015181840152602081019050610b6d565b83811115610b97576000848401525b50505050565b6000610ba882610b51565b91506000821415610bbc57610bbb610c73565b5b600182039050919050565b60006002820490506001821680610bdf57607f821691505b60208210811415610bf357610bf2610cd1565b5b50919050565b610c0282610d43565b810181811067ffffffffffffffff82111715610c2157610c20610d00565b5b80604052505050565b6000610c3582610b51565b91507fffffffffffffffffffffffffffffffffffffffffffffffffffffffffffffffff821415610c6857610c67610c73565b5b600182019050919050565b7f4e487b7100000000000000000000000000000000000000000000000000000000600052601160045260246000fd5b7f4e487b7100000000000000000000000000000000000000000000000000000000600052602160045260246000fd5b7f4e487b7100000000000000000000000000000000000000000000000000000000600052602260045260246000fd5b7f4e487b7100000000000000000000000000000000000000000000000000000000600052604160045260246000fd5b600080fd5b600080fd5b600080fd5b600080fd5b6000601f19601f8301169050919050565b610d5d81610b1f565b8114610d6857600080fd5b50565b610d7481610b51565b8114610d7f57600080fd5b5056fea2646970667358221220b0a4edd80a37c31c18363069dd90bdac02a6ecc2eba81f64fa1ffb0ae115279e64736f6c63430008070033",
					"opcodes": "PUSH1 0x80 PUSH1 0x40 MSTORE PUSH1 0x0 PUSH1 0x2 SSTORE PUSH1 0x0 PUSH1 0x3 SSTORE CALLVALUE DUP1 ISZERO PUSH3 0x1B JUMPI PUSH1 0x0 DUP1 REVERT JUMPDEST POP PUSH1 0x40 MLOAD PUSH3 0xF00 CODESIZE SUB DUP1 PUSH3 0xF00 DUP4 CODECOPY DUP2 DUP2 ADD PUSH1 0x40 MSTORE DUP2 ADD SWAP1 PUSH3 0x41 SWAP2 SWAP1 PUSH3 0x9F JUMP JUMPDEST DUP1 PUSH1 0x0 DUP1 PUSH2 0x100 EXP DUP2 SLOAD DUP2 PUSH20 0xFFFFFFFFFFFFFFFFFFFFFFFFFFFFFFFFFFFFFFFF MUL NOT AND SWAP1 DUP4 PUSH20 0xFFFFFFFFFFFFFFFFFFFFFFFFFFFFFFFFFFFFFFFF AND MUL OR SWAP1 SSTORE POP POP PUSH3 0x138 JUMP JUMPDEST PUSH1 0x0 DUP2 MLOAD SWAP1 POP PUSH3 0x99 DUP2 PUSH3 0x11E JUMP JUMPDEST SWAP3 SWAP2 POP POP JUMP JUMPDEST PUSH1 0x0 PUSH1 0x20 DUP3 DUP5 SUB SLT ISZERO PUSH3 0xB8 JUMPI PUSH3 0xB7 PUSH3 0x119 JUMP JUMPDEST JUMPDEST PUSH1 0x0 PUSH3 0xC8 DUP5 DUP3 DUP6 ADD PUSH3 0x88 JUMP JUMPDEST SWAP2 POP POP SWAP3 SWAP2 POP POP JUMP JUMPDEST PUSH1 0x0 PUSH3 0xDE DUP3 PUSH3 0xF9 JUMP JUMPDEST SWAP1 POP SWAP2 SWAP1 POP JUMP JUMPDEST PUSH1 0x0 PUSH3 0xF2 DUP3 PUSH3 0xD1 JUMP JUMPDEST SWAP1 POP SWAP2 SWAP1 POP JUMP JUMPDEST PUSH1 0x0 PUSH20 0xFFFFFFFFFFFFFFFFFFFFFFFFFFFFFFFFFFFFFFFF DUP3 AND SWAP1 POP SWAP2 SWAP1 POP JUMP JUMPDEST PUSH1 0x0 DUP1 REVERT JUMPDEST PUSH3 0x129 DUP2 PUSH3 0xE5 JUMP JUMPDEST DUP2 EQ PUSH3 0x135 JUMPI PUSH1 0x0 DUP1 REVERT JUMPDEST POP JUMP JUMPDEST PUSH2 0xDB8 DUP1 PUSH3 0x148 PUSH1 0x0 CODECOPY PUSH1 0x0 RETURN INVALID PUSH1 0x80 PUSH1 0x40 MSTORE CALLVALUE DUP1 ISZERO PUSH2 0x10 JUMPI PUSH1 0x0 DUP1 REVERT JUMPDEST POP PUSH1 0x4 CALLDATASIZE LT PUSH2 0x57 JUMPI PUSH1 0x0 CALLDATALOAD PUSH1 0xE0 SHR DUP1 PUSH4 0x63EF8A50 EQ PUSH2 0x5C JUMPI DUP1 PUSH4 0xACE731BD EQ PUSH2 0x78 JUMPI DUP1 PUSH4 0xB9B6C5D4 EQ PUSH2 0xA8 JUMPI DUP1 PUSH4 0xE62FAC27 EQ PUSH2 0xC4 JUMPI DUP1 PUSH4 0xFD23C4BB EQ PUSH2 0xE0 JUMPI JUMPDEST PUSH1 0x0 DUP1 REVERT JUMPDEST PUSH2 0x76 PUSH1 0x4 DUP1 CALLDATASIZE SUB DUP2 ADD SWAP1 PUSH2 0x71 SWAP2 SWAP1 PUSH2 0x67D JUMP JUMPDEST PUSH2 0xFC JUMP JUMPDEST STOP JUMPDEST PUSH2 0x92 PUSH1 0x4 DUP1 CALLDATASIZE SUB DUP2 ADD SWAP1 PUSH2 0x8D SWAP2 SWAP1 PUSH2 0x71C JUMP JUMPDEST PUSH2 0x248 JUMP JUMPDEST PUSH1 0x40 MLOAD PUSH2 0x9F SWAP2 SWAP1 PUSH2 0x967 JUMP JUMPDEST PUSH1 0x40 MLOAD DUP1 SWAP2 SUB SWAP1 RETURN JUMPDEST PUSH2 0xC2 PUSH1 0x4 DUP1 CALLDATASIZE SUB DUP2 ADD SWAP1 PUSH2 0xBD SWAP2 SWAP1 PUSH2 0x71C JUMP JUMPDEST PUSH2 0x314 JUMP JUMPDEST STOP JUMPDEST PUSH2 0xDE PUSH1 0x4 DUP1 CALLDATASIZE SUB DUP2 ADD SWAP1 PUSH2 0xD9 SWAP2 SWAP1 PUSH2 0x822 JUMP JUMPDEST PUSH2 0x3BD JUMP JUMPDEST STOP JUMPDEST PUSH2 0xFA PUSH1 0x4 DUP1 CALLDATASIZE SUB DUP2 ADD SWAP1 PUSH2 0xF5 SWAP2 SWAP1 PUSH2 0x76F JUMP JUMPDEST PUSH2 0x460 JUMP JUMPDEST STOP JUMPDEST PUSH1 0x0 PUSH1 0x1 PUSH1 0x0 DUP7 DUP2 MSTORE PUSH1 0x20 ADD SWAP1 DUP2 MSTORE PUSH1 0x20 ADD PUSH1 0x0 KECCAK256 PUSH1 0x0 DUP6 DUP2 MSTORE PUSH1 0x20 ADD SWAP1 DUP2 MSTORE PUSH1 0x20 ADD PUSH1 0x0 KECCAK256 PUSH1 0x0 PUSH1 0x3 SLOAD DUP2 MSTORE PUSH1 0x20 ADD SWAP1 DUP2 MSTORE PUSH1 0x20 ADD PUSH1 0x0 KECCAK256 SWAP1 POP DUP5 DUP2 PUSH1 0x0 ADD DUP2 SWAP1 SSTORE POP DUP4 DUP2 PUSH1 0x1 ADD DUP2 SWAP1 SSTORE POP PUSH1 0x3 SLOAD DUP2 PUSH1 0x2 ADD DUP2 SWAP1 SSTORE POP DUP3 DUP2 PUSH1 0x3 ADD SWAP1 DUP1 MLOAD SWAP1 PUSH1 0x20 ADD SWAP1 PUSH2 0x16C SWAP3 SWAP2 SWAP1 PUSH2 0x540 JUMP JUMPDEST POP DUP2 DUP2 PUSH1 0x4 ADD SWAP1 DUP1 MLOAD SWAP1 PUSH1 0x20 ADD SWAP1 PUSH2 0x185 SWAP3 SWAP2 SWAP1 PUSH2 0x540 JUMP JUMPDEST POP PUSH1 0x1 DUP2 PUSH1 0x5 ADD PUSH1 0x0 PUSH2 0x100 EXP DUP2 SLOAD DUP2 PUSH1 0xFF MUL NOT AND SWAP1 DUP4 ISZERO ISZERO MUL OR SWAP1 SSTORE POP PUSH1 0x0 DUP2 PUSH1 0x5 ADD PUSH1 0x1 PUSH2 0x100 EXP DUP2 SLOAD DUP2 PUSH1 0xFF MUL NOT AND SWAP1 DUP4 PUSH1 0x6 DUP2 GT ISZERO PUSH2 0x1CB JUMPI PUSH2 0x1CA PUSH2 0xCA2 JUMP JUMPDEST JUMPDEST MUL OR SWAP1 SSTORE POP PUSH32 0x70D8B12D438DD130D28072C77C8047D9697B630B8DCD969123645998AD67D561 DUP6 DUP6 PUSH1 0x3 SLOAD DUP7 DUP7 PUSH1 0x40 MLOAD PUSH2 0x209 SWAP6 SWAP5 SWAP4 SWAP3 SWAP2 SWAP1 PUSH2 0x9C0 JUMP JUMPDEST PUSH1 0x40 MLOAD DUP1 SWAP2 SUB SWAP1 LOG1 PUSH1 0x2 PUSH1 0x0 DUP2 SLOAD DUP1 SWAP3 SWAP2 SWAP1 PUSH2 0x224 SWAP1 PUSH2 0xC2A JUMP JUMPDEST SWAP2 SWAP1 POP SSTORE POP PUSH1 0x3 PUSH1 0x0 DUP2 SLOAD DUP1 SWAP3 SWAP2 SWAP1 PUSH2 0x23C SWAP1 PUSH2 0xC2A JUMP JUMPDEST SWAP2 SWAP1 POP SSTORE POP POP POP POP POP POP JUMP JUMPDEST PUSH1 0x60 PUSH1 0x1 PUSH1 0x0 DUP6 DUP2 MSTORE PUSH1 0x20 ADD SWAP1 DUP2 MSTORE PUSH1 0x20 ADD PUSH1 0x0 KECCAK256 PUSH1 0x0 DUP5 DUP2 MSTORE PUSH1 0x20 ADD SWAP1 DUP2 MSTORE PUSH1 0x20 ADD PUSH1 0x0 KECCAK256 PUSH1 0x0 DUP4 DUP2 MSTORE PUSH1 0x20 ADD SWAP1 DUP2 MSTORE PUSH1 0x20 ADD PUSH1 0x0 KECCAK256 PUSH1 0x3 ADD DUP1 SLOAD PUSH2 0x28D SWAP1 PUSH2 0xBC7 JUMP JUMPDEST DUP1 PUSH1 0x1F ADD PUSH1 0x20 DUP1 SWAP2 DIV MUL PUSH1 0x20 ADD PUSH1 0x40 MLOAD SWAP1 DUP2 ADD PUSH1 0x40 MSTORE DUP1 SWAP3 SWAP2 SWAP1 DUP2 DUP2 MSTORE PUSH1 0x20 ADD DUP3 DUP1 SLOAD PUSH2 0x2B9 SWAP1 PUSH2 0xBC7 JUMP JUMPDEST DUP1 ISZERO PUSH2 0x306 JUMPI DUP1 PUSH1 0x1F LT PUSH2 0x2DB JUMPI PUSH2 0x100 DUP1 DUP4 SLOAD DIV MUL DUP4 MSTORE SWAP2 PUSH1 0x20 ADD SWAP2 PUSH2 0x306 JUMP JUMPDEST DUP3 ADD SWAP2 SWAP1 PUSH1 0x0 MSTORE PUSH1 0x20 PUSH1 0x0 KECCAK256 SWAP1 JUMPDEST DUP2 SLOAD DUP2 MSTORE SWAP1 PUSH1 0x1 ADD SWAP1 PUSH1 0x20 ADD DUP1 DUP4 GT PUSH2 0x2E9 JUMPI DUP3 SWAP1 SUB PUSH1 0x1F AND DUP3 ADD SWAP2 JUMPDEST POP POP POP POP POP SWAP1 POP SWAP4 SWAP3 POP POP POP JUMP JUMPDEST PUSH1 0x0 PUSH1 0x1 PUSH1 0x0 DUP6 DUP2 MSTORE PUSH1 0x20 ADD SWAP1 DUP2 MSTORE PUSH1 0x20 ADD PUSH1 0x0 KECCAK256 PUSH1 0x0 DUP5 DUP2 MSTORE PUSH1 0x20 ADD SWAP1 DUP2 MSTORE PUSH1 0x20 ADD PUSH1 0x0 KECCAK256 PUSH1 0x0 DUP4 DUP2 MSTORE PUSH1 0x20 ADD SWAP1 DUP2 MSTORE PUSH1 0x20 ADD PUSH1 0x0 KECCAK256 PUSH1 0x5 ADD PUSH1 0x0 PUSH2 0x100 EXP DUP2 SLOAD DUP2 PUSH1 0xFF MUL NOT AND SWAP1 DUP4 ISZERO ISZERO MUL OR SWAP1 SSTORE POP PUSH1 0x2 PUSH1 0x0 DUP2 SLOAD DUP1 SWAP3 SWAP2 SWAP1 PUSH2 0x378 SWAP1 PUSH2 0xB9D JUMP JUMPDEST SWAP2 SWAP1 POP SSTORE POP PUSH32 0x2B2605EE52ACE237F72E6005EEE79180EA3B6151BD8848A6BE5E3C224B8A6EC6 DUP4 DUP4 DUP4 PUSH1 0x40 MLOAD PUSH2 0x3B0 SWAP4 SWAP3 SWAP2 SWAP1 PUSH2 0x989 JUMP JUMPDEST PUSH1 0x40 MLOAD DUP1 SWAP2 SUB SWAP1 LOG1 POP POP POP JUMP JUMPDEST PUSH1 0x0 DUP1 SLOAD SWAP1 PUSH2 0x100 EXP SWAP1 DIV PUSH20 0xFFFFFFFFFFFFFFFFFFFFFFFFFFFFFFFFFFFFFFFF AND PUSH20 0xFFFFFFFFFFFFFFFFFFFFFFFFFFFFFFFFFFFFFFFF AND PUSH4 0xE62FAC27 DUP10 DUP10 DUP10 DUP10 DUP10 DUP10 DUP10 DUP10 PUSH1 0x40 MLOAD DUP10 PUSH4 0xFFFFFFFF AND PUSH1 0xE0 SHL DUP2 MSTORE PUSH1 0x4 ADD PUSH2 0x424 SWAP9 SWAP8 SWAP7 SWAP6 SWAP5 SWAP4 SWAP3 SWAP2 SWAP1 PUSH2 0xA21 JUMP JUMPDEST PUSH1 0x0 PUSH1 0x40 MLOAD DUP1 DUP4 SUB DUP2 PUSH1 0x0 DUP8 DUP1 EXTCODESIZE ISZERO DUP1 ISZERO PUSH2 0x43E JUMPI PUSH1 0x0 DUP1 REVERT JUMPDEST POP GAS CALL ISZERO DUP1 ISZERO PUSH2 0x452 JUMPI RETURNDATASIZE PUSH1 0x0 DUP1 RETURNDATACOPY RETURNDATASIZE PUSH1 0x0 REVERT JUMPDEST POP POP POP POP POP POP POP POP POP POP POP POP JUMP JUMPDEST DUP2 PUSH1 0x1 PUSH1 0x0 DUP8 DUP2 MSTORE PUSH1 0x20 ADD SWAP1 DUP2 MSTORE PUSH1 0x20 ADD PUSH1 0x0 KECCAK256 PUSH1 0x0 DUP7 DUP2 MSTORE PUSH1 0x20 ADD SWAP1 DUP2 MSTORE PUSH1 0x20 ADD PUSH1 0x0 KECCAK256 PUSH1 0x0 DUP6 DUP2 MSTORE PUSH1 0x20 ADD SWAP1 DUP2 MSTORE PUSH1 0x20 ADD PUSH1 0x0 KECCAK256 PUSH1 0x3 ADD SWAP1 DUP1 MLOAD SWAP1 PUSH1 0x20 ADD SWAP1 PUSH2 0x4AC SWAP3 SWAP2 SWAP1 PUSH2 0x540 JUMP JUMPDEST POP DUP1 PUSH1 0x1 PUSH1 0x0 DUP8 DUP2 MSTORE PUSH1 0x20 ADD SWAP1 DUP2 MSTORE PUSH1 0x20 ADD PUSH1 0x0 KECCAK256 PUSH1 0x0 DUP7 DUP2 MSTORE PUSH1 0x20 ADD SWAP1 DUP2 MSTORE PUSH1 0x20 ADD PUSH1 0x0 KECCAK256 PUSH1 0x0 DUP6 DUP2 MSTORE PUSH1 0x20 ADD SWAP1 DUP2 MSTORE PUSH1 0x20 ADD PUSH1 0x0 KECCAK256 PUSH1 0x4 ADD SWAP1 DUP1 MLOAD SWAP1 PUSH1 0x20 ADD SWAP1 PUSH2 0x4F9 SWAP3 SWAP2 SWAP1 PUSH2 0x540 JUMP JUMPDEST POP PUSH32 0x8C0D6FF1212C3FBF79BBE6DC1E26CC40C4E137EC5711D4471B16FA121F933511 DUP6 DUP6 DUP6 DUP6 DUP6 PUSH1 0x40 MLOAD PUSH2 0x531 SWAP6 SWAP5 SWAP4 SWAP3 SWAP2 SWAP1 PUSH2 0x9C0 JUMP JUMPDEST PUSH1 0x40 MLOAD DUP1 SWAP2 SUB SWAP1 LOG1 POP POP POP POP POP JUMP JUMPDEST DUP3 DUP1 SLOAD PUSH2 0x54C SWAP1 PUSH2 0xBC7 JUMP JUMPDEST SWAP1 PUSH1 0x0 MSTORE PUSH1 0x20 PUSH1 0x0 KECCAK256 SWAP1 PUSH1 0x1F ADD PUSH1 0x20 SWAP1 DIV DUP2 ADD SWAP3 DUP3 PUSH2 0x56E JUMPI PUSH1 0x0 DUP6 SSTORE PUSH2 0x5B5 JUMP JUMPDEST DUP3 PUSH1 0x1F LT PUSH2 0x587 JUMPI DUP1 MLOAD PUSH1 0xFF NOT AND DUP4 DUP1 ADD OR DUP6 SSTORE PUSH2 0x5B5 JUMP JUMPDEST DUP3 DUP1 ADD PUSH1 0x1 ADD DUP6 SSTORE DUP3 ISZERO PUSH2 0x5B5 JUMPI SWAP2 DUP3 ADD JUMPDEST DUP3 DUP2 GT ISZERO PUSH2 0x5B4 JUMPI DUP3 MLOAD DUP3 SSTORE SWAP2 PUSH1 0x20 ADD SWAP2 SWAP1 PUSH1 0x1 ADD SWAP1 PUSH2 0x599 JUMP JUMPDEST JUMPDEST POP SWAP1 POP PUSH2 0x5C2 SWAP2 SWAP1 PUSH2 0x5C6 JUMP JUMPDEST POP SWAP1 JUMP JUMPDEST JUMPDEST DUP1 DUP3 GT ISZERO PUSH2 0x5DF JUMPI PUSH1 0x0 DUP2 PUSH1 0x0 SWAP1 SSTORE POP PUSH1 0x1 ADD PUSH2 0x5C7 JUMP JUMPDEST POP SWAP1 JUMP JUMPDEST PUSH1 0x0 PUSH2 0x5F6 PUSH2 0x5F1 DUP5 PUSH2 0xAD2 JUMP JUMPDEST PUSH2 0xAAD JUMP JUMPDEST SWAP1 POP DUP3 DUP2 MSTORE PUSH1 0x20 DUP2 ADD DUP5 DUP5 DUP5 ADD GT ISZERO PUSH2 0x612 JUMPI PUSH2 0x611 PUSH2 0xD34 JUMP JUMPDEST JUMPDEST PUSH2 0x61D DUP5 DUP3 DUP6 PUSH2 0xB5B JUMP JUMPDEST POP SWAP4 SWAP3 POP POP POP JUMP JUMPDEST PUSH1 0x0 DUP2 CALLDATALOAD SWAP1 POP PUSH2 0x634 DUP2 PUSH2 0xD54 JUMP JUMPDEST SWAP3 SWAP2 POP POP JUMP JUMPDEST PUSH1 0x0 DUP3 PUSH1 0x1F DUP4 ADD SLT PUSH2 0x64F JUMPI PUSH2 0x64E PUSH2 0xD2F JUMP JUMPDEST JUMPDEST DUP2 CALLDATALOAD PUSH2 0x65F DUP5 DUP3 PUSH1 0x20 DUP7 ADD PUSH2 0x5E3 JUMP JUMPDEST SWAP2 POP POP SWAP3 SWAP2 POP POP JUMP JUMPDEST PUSH1 0x0 DUP2 CALLDATALOAD SWAP1 POP PUSH2 0x677 DUP2 PUSH2 0xD6B JUMP JUMPDEST SWAP3 SWAP2 POP POP JUMP JUMPDEST PUSH1 0x0 DUP1 PUSH1 0x0 DUP1 PUSH1 0x80 DUP6 DUP8 SUB SLT ISZERO PUSH2 0x697 JUMPI PUSH2 0x696 PUSH2 0xD3E JUMP JUMPDEST JUMPDEST PUSH1 0x0 PUSH2 0x6A5 DUP8 DUP3 DUP9 ADD PUSH2 0x668 JUMP JUMPDEST SWAP5 POP POP PUSH1 0x20 PUSH2 0x6B6 DUP8 DUP3 DUP9 ADD PUSH2 0x668 JUMP JUMPDEST SWAP4 POP POP PUSH1 0x40 DUP6 ADD CALLDATALOAD PUSH8 0xFFFFFFFFFFFFFFFF DUP2 GT ISZERO PUSH2 0x6D7 JUMPI PUSH2 0x6D6 PUSH2 0xD39 JUMP JUMPDEST JUMPDEST PUSH2 0x6E3 DUP8 DUP3 DUP9 ADD PUSH2 0x63A JUMP JUMPDEST SWAP3 POP POP PUSH1 0x60 DUP6 ADD CALLDATALOAD PUSH8 0xFFFFFFFFFFFFFFFF DUP2 GT ISZERO PUSH2 0x704 JUMPI PUSH2 0x703 PUSH2 0xD39 JUMP JUMPDEST JUMPDEST PUSH2 0x710 DUP8 DUP3 DUP9 ADD PUSH2 0x63A JUMP JUMPDEST SWAP2 POP POP SWAP3 SWAP6 SWAP2 SWAP5 POP SWAP3 POP JUMP JUMPDEST PUSH1 0x0 DUP1 PUSH1 0x0 PUSH1 0x60 DUP5 DUP7 SUB SLT ISZERO PUSH2 0x735 JUMPI PUSH2 0x734 PUSH2 0xD3E JUMP JUMPDEST JUMPDEST PUSH1 0x0 PUSH2 0x743 DUP7 DUP3 DUP8 ADD PUSH2 0x668 JUMP JUMPDEST SWAP4 POP POP PUSH1 0x20 PUSH2 0x754 DUP7 DUP3 DUP8 ADD PUSH2 0x668 JUMP JUMPDEST SWAP3 POP POP PUSH1 0x40 PUSH2 0x765 DUP7 DUP3 DUP8 ADD PUSH2 0x668 JUMP JUMPDEST SWAP2 POP POP SWAP3 POP SWAP3 POP SWAP3 JUMP JUMPDEST PUSH1 0x0 DUP1 PUSH1 0x0 DUP1 PUSH1 0x0 PUSH1 0xA0 DUP7 DUP9 SUB SLT ISZERO PUSH2 0x78B JUMPI PUSH2 0x78A PUSH2 0xD3E JUMP JUMPDEST JUMPDEST PUSH1 0x0 PUSH2 0x799 DUP9 DUP3 DUP10 ADD PUSH2 0x668 JUMP JUMPDEST SWAP6 POP POP PUSH1 0x20 PUSH2 0x7AA DUP9 DUP3 DUP10 ADD PUSH2 0x668 JUMP JUMPDEST SWAP5 POP POP PUSH1 0x40 PUSH2 0x7BB DUP9 DUP3 DUP10 ADD PUSH2 0x668 JUMP JUMPDEST SWAP4 POP POP PUSH1 0x60 DUP7 ADD CALLDATALOAD PUSH8 0xFFFFFFFFFFFFFFFF DUP2 GT ISZERO PUSH2 0x7DC JUMPI PUSH2 0x7DB PUSH2 0xD39 JUMP JUMPDEST JUMPDEST PUSH2 0x7E8 DUP9 DUP3 DUP10 ADD PUSH2 0x63A JUMP JUMPDEST SWAP3 POP POP PUSH1 0x80 DUP7 ADD CALLDATALOAD PUSH8 0xFFFFFFFFFFFFFFFF DUP2 GT ISZERO PUSH2 0x809 JUMPI PUSH2 0x808 PUSH2 0xD39 JUMP JUMPDEST JUMPDEST PUSH2 0x815 DUP9 DUP3 DUP10 ADD PUSH2 0x63A JUMP JUMPDEST SWAP2 POP POP SWAP3 SWAP6 POP SWAP3 SWAP6 SWAP1 SWAP4 POP JUMP JUMPDEST PUSH1 0x0 DUP1 PUSH1 0x0 DUP1 PUSH1 0x0 DUP1 PUSH1 0x0 DUP1 PUSH2 0x100 DUP10 DUP12 SUB SLT ISZERO PUSH2 0x843 JUMPI PUSH2 0x842 PUSH2 0xD3E JUMP JUMPDEST JUMPDEST PUSH1 0x0 PUSH2 0x851 DUP12 DUP3 DUP13 ADD PUSH2 0x668 JUMP JUMPDEST SWAP9 POP POP PUSH1 0x20 PUSH2 0x862 DUP12 DUP3 DUP13 ADD PUSH2 0x668 JUMP JUMPDEST SWAP8 POP POP PUSH1 0x40 PUSH2 0x873 DUP12 DUP3 DUP13 ADD PUSH2 0x668 JUMP JUMPDEST SWAP7 POP POP PUSH1 0x60 DUP10 ADD CALLDATALOAD PUSH8 0xFFFFFFFFFFFFFFFF DUP2 GT ISZERO PUSH2 0x894 JUMPI PUSH2 0x893 PUSH2 0xD39 JUMP JUMPDEST JUMPDEST PUSH2 0x8A0 DUP12 DUP3 DUP13 ADD PUSH2 0x63A JUMP JUMPDEST SWAP6 POP POP PUSH1 0x80 DUP10 ADD CALLDATALOAD PUSH8 0xFFFFFFFFFFFFFFFF DUP2 GT ISZERO PUSH2 0x8C1 JUMPI PUSH2 0x8C0 PUSH2 0xD39 JUMP JUMPDEST JUMPDEST PUSH2 0x8CD DUP12 DUP3 DUP13 ADD PUSH2 0x63A JUMP JUMPDEST SWAP5 POP POP PUSH1 0xA0 PUSH2 0x8DE DUP12 DUP3 DUP13 ADD PUSH2 0x625 JUMP JUMPDEST SWAP4 POP POP PUSH1 0xC0 PUSH2 0x8EF DUP12 DUP3 DUP13 ADD PUSH2 0x625 JUMP JUMPDEST SWAP3 POP POP PUSH1 0xE0 PUSH2 0x900 DUP12 DUP3 DUP13 ADD PUSH2 0x668 JUMP JUMPDEST SWAP2 POP POP SWAP3 SWAP6 SWAP9 POP SWAP3 SWAP6 SWAP9 SWAP1 SWAP4 SWAP7 POP JUMP JUMPDEST PUSH2 0x919 DUP2 PUSH2 0xB1F JUMP JUMPDEST DUP3 MSTORE POP POP JUMP JUMPDEST PUSH1 0x0 PUSH2 0x92A DUP3 PUSH2 0xB03 JUMP JUMPDEST PUSH2 0x934 DUP2 DUP6 PUSH2 0xB0E JUMP JUMPDEST SWAP4 POP PUSH2 0x944 DUP2 DUP6 PUSH1 0x20 DUP7 ADD PUSH2 0xB6A JUMP JUMPDEST PUSH2 0x94D DUP2 PUSH2 0xD43 JUMP JUMPDEST DUP5 ADD SWAP2 POP POP SWAP3 SWAP2 POP POP JUMP JUMPDEST PUSH2 0x961 DUP2 PUSH2 0xB51 JUMP JUMPDEST DUP3 MSTORE POP POP JUMP JUMPDEST PUSH1 0x0 PUSH1 0x20 DUP3 ADD SWAP1 POP DUP2 DUP2 SUB PUSH1 0x0 DUP4 ADD MSTORE PUSH2 0x981 DUP2 DUP5 PUSH2 0x91F JUMP JUMPDEST SWAP1 POP SWAP3 SWAP2 POP POP JUMP JUMPDEST PUSH1 0x0 PUSH1 0x60 DUP3 ADD SWAP1 POP PUSH2 0x99E PUSH1 0x0 DUP4 ADD DUP7 PUSH2 0x958 JUMP JUMPDEST PUSH2 0x9AB PUSH1 0x20 DUP4 ADD DUP6 PUSH2 0x958 JUMP JUMPDEST PUSH2 0x9B8 PUSH1 0x40 DUP4 ADD DUP5 PUSH2 0x958 JUMP JUMPDEST SWAP5 SWAP4 POP POP POP POP JUMP JUMPDEST PUSH1 0x0 PUSH1 0xA0 DUP3 ADD SWAP1 POP PUSH2 0x9D5 PUSH1 0x0 DUP4 ADD DUP9 PUSH2 0x958 JUMP JUMPDEST PUSH2 0x9E2 PUSH1 0x20 DUP4 ADD DUP8 PUSH2 0x958 JUMP JUMPDEST PUSH2 0x9EF PUSH1 0x40 DUP4 ADD DUP7 PUSH2 0x958 JUMP JUMPDEST DUP2 DUP2 SUB PUSH1 0x60 DUP4 ADD MSTORE PUSH2 0xA01 DUP2 DUP6 PUSH2 0x91F JUMP JUMPDEST SWAP1 POP DUP2 DUP2 SUB PUSH1 0x80 DUP4 ADD MSTORE PUSH2 0xA15 DUP2 DUP5 PUSH2 0x91F JUMP JUMPDEST SWAP1 POP SWAP7 SWAP6 POP POP POP POP POP POP JUMP JUMPDEST PUSH1 0x0 PUSH2 0x100 DUP3 ADD SWAP1 POP PUSH2 0xA37 PUSH1 0x0 DUP4 ADD DUP12 PUSH2 0x958 JUMP JUMPDEST PUSH2 0xA44 PUSH1 0x20 DUP4 ADD DUP11 PUSH2 0x958 JUMP JUMPDEST PUSH2 0xA51 PUSH1 0x40 DUP4 ADD DUP10 PUSH2 0x958 JUMP JUMPDEST DUP2 DUP2 SUB PUSH1 0x60 DUP4 ADD MSTORE PUSH2 0xA63 DUP2 DUP9 PUSH2 0x91F JUMP JUMPDEST SWAP1 POP DUP2 DUP2 SUB PUSH1 0x80 DUP4 ADD MSTORE PUSH2 0xA77 DUP2 DUP8 PUSH2 0x91F JUMP JUMPDEST SWAP1 POP PUSH2 0xA86 PUSH1 0xA0 DUP4 ADD DUP7 PUSH2 0x910 JUMP JUMPDEST PUSH2 0xA93 PUSH1 0xC0 DUP4 ADD DUP6 PUSH2 0x910 JUMP JUMPDEST PUSH2 0xAA0 PUSH1 0xE0 DUP4 ADD DUP5 PUSH2 0x958 JUMP JUMPDEST SWAP10 SWAP9 POP POP POP POP POP POP POP POP POP JUMP JUMPDEST PUSH1 0x0 PUSH2 0xAB7 PUSH2 0xAC8 JUMP JUMPDEST SWAP1 POP PUSH2 0xAC3 DUP3 DUP3 PUSH2 0xBF9 JUMP JUMPDEST SWAP2 SWAP1 POP JUMP JUMPDEST PUSH1 0x0 PUSH1 0x40 MLOAD SWAP1 POP SWAP1 JUMP JUMPDEST PUSH1 0x0 PUSH8 0xFFFFFFFFFFFFFFFF DUP3 GT ISZERO PUSH2 0xAED JUMPI PUSH2 0xAEC PUSH2 0xD00 JUMP JUMPDEST JUMPDEST PUSH2 0xAF6 DUP3 PUSH2 0xD43 JUMP JUMPDEST SWAP1 POP PUSH1 0x20 DUP2 ADD SWAP1 POP SWAP2 SWAP1 POP JUMP JUMPDEST PUSH1 0x0 DUP2 MLOAD SWAP1 POP SWAP2 SWAP1 POP JUMP JUMPDEST PUSH1 0x0 DUP3 DUP3 MSTORE PUSH1 0x20 DUP3 ADD SWAP1 POP SWAP3 SWAP2 POP POP JUMP JUMPDEST PUSH1 0x0 PUSH2 0xB2A DUP3 PUSH2 0xB31 JUMP JUMPDEST SWAP1 POP SWAP2 SWAP1 POP JUMP JUMPDEST PUSH1 0x0 PUSH20 0xFFFFFFFFFFFFFFFFFFFFFFFFFFFFFFFFFFFFFFFF DUP3 AND SWAP1 POP SWAP2 SWAP1 POP JUMP JUMPDEST PUSH1 0x0 DUP2 SWAP1 POP SWAP2 SWAP1 POP JUMP JUMPDEST DUP3 DUP2 DUP4 CALLDATACOPY PUSH1 0x0 DUP4 DUP4 ADD MSTORE POP POP POP JUMP JUMPDEST PUSH1 0x0 JUMPDEST DUP4 DUP2 LT ISZERO PUSH2 0xB88 JUMPI DUP1 DUP3 ADD MLOAD DUP2 DUP5 ADD MSTORE PUSH1 0x20 DUP2 ADD SWAP1 POP PUSH2 0xB6D JUMP JUMPDEST DUP4 DUP2 GT ISZERO PUSH2 0xB97 JUMPI PUSH1 0x0 DUP5 DUP5 ADD MSTORE JUMPDEST POP POP POP POP JUMP JUMPDEST PUSH1 0x0 PUSH2 0xBA8 DUP3 PUSH2 0xB51 JUMP JUMPDEST SWAP2 POP PUSH1 0x0 DUP3 EQ ISZERO PUSH2 0xBBC JUMPI PUSH2 0xBBB PUSH2 0xC73 JUMP JUMPDEST JUMPDEST PUSH1 0x1 DUP3 SUB SWAP1 POP SWAP2 SWAP1 POP JUMP JUMPDEST PUSH1 0x0 PUSH1 0x2 DUP3 DIV SWAP1 POP PUSH1 0x1 DUP3 AND DUP1 PUSH2 0xBDF JUMPI PUSH1 0x7F DUP3 AND SWAP2 POP JUMPDEST PUSH1 0x20 DUP3 LT DUP2 EQ ISZERO PUSH2 0xBF3 JUMPI PUSH2 0xBF2 PUSH2 0xCD1 JUMP JUMPDEST JUMPDEST POP SWAP2 SWAP1 POP JUMP JUMPDEST PUSH2 0xC02 DUP3 PUSH2 0xD43 JUMP JUMPDEST DUP2 ADD DUP2 DUP2 LT PUSH8 0xFFFFFFFFFFFFFFFF DUP3 GT OR ISZERO PUSH2 0xC21 JUMPI PUSH2 0xC20 PUSH2 0xD00 JUMP JUMPDEST JUMPDEST DUP1 PUSH1 0x40 MSTORE POP POP POP JUMP JUMPDEST PUSH1 0x0 PUSH2 0xC35 DUP3 PUSH2 0xB51 JUMP JUMPDEST SWAP2 POP PUSH32 0xFFFFFFFFFFFFFFFFFFFFFFFFFFFFFFFFFFFFFFFFFFFFFFFFFFFFFFFFFFFFFFFF DUP3 EQ ISZERO PUSH2 0xC68 JUMPI PUSH2 0xC67 PUSH2 0xC73 JUMP JUMPDEST JUMPDEST PUSH1 0x1 DUP3 ADD SWAP1 POP SWAP2 SWAP1 POP JUMP JUMPDEST PUSH32 0x4E487B7100000000000000000000000000000000000000000000000000000000 PUSH1 0x0 MSTORE PUSH1 0x11 PUSH1 0x4 MSTORE PUSH1 0x24 PUSH1 0x0 REVERT JUMPDEST PUSH32 0x4E487B7100000000000000000000000000000000000000000000000000000000 PUSH1 0x0 MSTORE PUSH1 0x21 PUSH1 0x4 MSTORE PUSH1 0x24 PUSH1 0x0 REVERT JUMPDEST PUSH32 0x4E487B7100000000000000000000000000000000000000000000000000000000 PUSH1 0x0 MSTORE PUSH1 0x22 PUSH1 0x4 MSTORE PUSH1 0x24 PUSH1 0x0 REVERT JUMPDEST PUSH32 0x4E487B7100000000000000000000000000000000000000000000000000000000 PUSH1 0x0 MSTORE PUSH1 0x41 PUSH1 0x4 MSTORE PUSH1 0x24 PUSH1 0x0 REVERT JUMPDEST PUSH1 0x0 DUP1 REVERT JUMPDEST PUSH1 0x0 DUP1 REVERT JUMPDEST PUSH1 0x0 DUP1 REVERT JUMPDEST PUSH1 0x0 DUP1 REVERT JUMPDEST PUSH1 0x0 PUSH1 0x1F NOT PUSH1 0x1F DUP4 ADD AND SWAP1 POP SWAP2 SWAP1 POP JUMP JUMPDEST PUSH2 0xD5D DUP2 PUSH2 0xB1F JUMP JUMPDEST DUP2 EQ PUSH2 0xD68 JUMPI PUSH1 0x0 DUP1 REVERT JUMPDEST POP JUMP JUMPDEST PUSH2 0xD74 DUP2 PUSH2 0xB51 JUMP JUMPDEST DUP2 EQ PUSH2 0xD7F JUMPI PUSH1 0x0 DUP1 REVERT JUMPDEST POP JUMP INVALID LOG2 PUSH5 0x6970667358 0x22 SLT KECCAK256 0xB0 LOG4 0xED 0xD8 EXP CALLDATACOPY 0xC3 SHR XOR CALLDATASIZE ADDRESS PUSH10 0xDD90BDAC02A6ECC2EBA8 0x1F PUSH5 0xFA1FFB0AE1 ISZERO 0x27 SWAP15 PUSH5 0x736F6C6343 STOP ADDMOD SMOD STOP CALLER "
				},
				"gasEstimates": {
					"creation": {
						"codeDepositCost": "702400",
						"executionCost": "infinite",
						"totalCost": "infinite"
					},
					"external": {
						"createConflict(uint256,uint256,uint256,string,string,address,address,uint256)": "infinite",
						"createMilestone(uint256,uint256,string,string)": "infinite",
						"deleteMilestone(uint256,uint256,uint256)": "infinite",
						"readMilestoneTitle(uint256,uint256,uint256)": "infinite",
						"updateMilestone(uint256,uint256,uint256,string,string)": "infinite"
					}
				},
				"methodIdentifiers": {
					"createConflict(uint256,uint256,uint256,string,string,address,address,uint256)": "e62fac27",
					"createMilestone(uint256,uint256,string,string)": "63ef8a50",
					"deleteMilestone(uint256,uint256,uint256)": "b9b6c5d4",
					"readMilestoneTitle(uint256,uint256,uint256)": "ace731bd",
					"updateMilestone(uint256,uint256,uint256,string,string)": "fd23c4bb"
				}
			},
			"userdoc": {
				"kind": "user",
				"methods": {},
				"version": 1
			}
		}
	}
}