{
	"contracts/Profile.sol": {
		"Profile": {
			"abi": [
				{
					"anonymous": false,
					"inputs": [
						{
							"indexed": false,
							"internalType": "string",
							"name": "name",
							"type": "string"
						},
						{
							"indexed": false,
							"internalType": "string",
							"name": "ownername",
							"type": "string"
						},
						{
							"indexed": false,
							"internalType": "string",
							"name": "password",
							"type": "string"
						},
						{
							"indexed": false,
							"internalType": "address",
							"name": "owner",
							"type": "address"
						}
					],
					"name": "profileCreated",
					"type": "event"
				},
				{
					"anonymous": false,
					"inputs": [
						{
							"indexed": false,
							"internalType": "address",
							"name": "owner",
							"type": "address"
						}
					],
					"name": "profileDeleted",
					"type": "event"
				},
				{
					"inputs": [
						{
							"internalType": "string",
							"name": "name",
							"type": "string"
						},
						{
							"internalType": "string",
							"name": "ownername",
							"type": "string"
						},
						{
							"internalType": "string",
							"name": "password",
							"type": "string"
						},
						{
							"internalType": "address",
							"name": "owner",
							"type": "address"
						}
					],
					"name": "createProfile",
					"outputs": [],
					"stateMutability": "nonpayable",
					"type": "function"
				},
				{
					"inputs": [
						{
							"internalType": "address",
							"name": "owner",
							"type": "address"
						}
					],
					"name": "deleteProfile",
					"outputs": [],
					"stateMutability": "nonpayable",
					"type": "function"
				},
				{
					"inputs": [
						{
							"internalType": "address",
							"name": "owner",
							"type": "address"
						}
					],
					"name": "getName",
					"outputs": [
						{
							"internalType": "string",
							"name": "",
							"type": "string"
						}
					],
					"stateMutability": "view",
					"type": "function"
				},
				{
					"inputs": [],
					"name": "numProfile",
					"outputs": [
						{
							"internalType": "uint256",
							"name": "",
							"type": "uint256"
						}
					],
					"stateMutability": "view",
					"type": "function"
				},
				{
					"inputs": [
						{
							"internalType": "string",
							"name": "newName",
							"type": "string"
						},
						{
							"internalType": "address",
							"name": "owner",
							"type": "address"
						}
					],
					"name": "updateProfileName",
					"outputs": [],
					"stateMutability": "nonpayable",
					"type": "function"
				}
			],
			"devdoc": {
				"kind": "dev",
				"methods": {},
				"version": 1
			},
			"evm": {
				"assembly": "    /* \"contracts/Profile.sol\":152:1960  contract Profile {... */\n  mstore(0x40, 0x80)\n    /* \"contracts/Profile.sol\":623:624  0 */\n  0x00\n    /* \"contracts/Profile.sol\":595:624  uint256 public numProfile = 0 */\n  0x01\n  sstore\n    /* \"contracts/Profile.sol\":152:1960  contract Profile {... */\n  callvalue\n  dup1\n  iszero\n  tag_1\n  jumpi\n  0x00\n  dup1\n  revert\ntag_1:\n  pop\n  dataSize(sub_0)\n  dup1\n  dataOffset(sub_0)\n  0x00\n  codecopy\n  0x00\n  return\nstop\n\nsub_0: assembly {\n        /* \"contracts/Profile.sol\":152:1960  contract Profile {... */\n      mstore(0x40, 0x80)\n      callvalue\n      dup1\n      iszero\n      tag_1\n      jumpi\n      0x00\n      dup1\n      revert\n    tag_1:\n      pop\n      jumpi(tag_2, lt(calldatasize, 0x04))\n      shr(0xe0, calldataload(0x00))\n      dup1\n      0x16913469\n      eq\n      tag_3\n      jumpi\n      dup1\n      0x22a9d1bc\n      eq\n      tag_4\n      jumpi\n      dup1\n      0x5fd4b08a\n      eq\n      tag_5\n      jumpi\n      dup1\n      0xa0441f29\n      eq\n      tag_6\n      jumpi\n      dup1\n      0xb94864eb\n      eq\n      tag_7\n      jumpi\n    tag_2:\n      0x00\n      dup1\n      revert\n        /* \"contracts/Profile.sol\":595:624  uint256 public numProfile = 0 */\n    tag_3:\n      tag_8\n      tag_9\n      jump\t// in\n    tag_8:\n      mload(0x40)\n      tag_10\n      swap2\n      swap1\n      tag_11\n      jump\t// in\n    tag_10:\n      mload(0x40)\n      dup1\n      swap2\n      sub\n      swap1\n      return\n        /* \"contracts/Profile.sol\":868:1306  function createProfile(string memory name, string memory ownername, string memory password, address owner)  external {... */\n    tag_4:\n      tag_12\n      0x04\n      dup1\n      calldatasize\n      sub\n      dup2\n      add\n      swap1\n      tag_13\n      swap2\n      swap1\n      tag_14\n      jump\t// in\n    tag_13:\n      tag_15\n      jump\t// in\n    tag_12:\n      stop\n        /* \"contracts/Profile.sol\":1818:1957  function getName(address owner) external validProfile (owner) view returns ( string memory) {... */\n    tag_5:\n      tag_16\n      0x04\n      dup1\n      calldatasize\n      sub\n      dup2\n      add\n      swap1\n      tag_17\n      swap2\n      swap1\n      tag_18\n      jump\t// in\n    tag_17:\n      tag_19\n      jump\t// in\n    tag_16:\n      mload(0x40)\n      tag_20\n      swap2\n      swap1\n      tag_21\n      jump\t// in\n    tag_20:\n      mload(0x40)\n      dup1\n      swap2\n      sub\n      swap1\n      return\n        /* \"contracts/Profile.sol\":1353:1561  function deleteProfile(address owner) external validProfile (owner) {... */\n    tag_6:\n      tag_22\n      0x04\n      dup1\n      calldatasize\n      sub\n      dup2\n      add\n      swap1\n      tag_23\n      swap2\n      swap1\n      tag_18\n      jump\t// in\n    tag_23:\n      tag_24\n      jump\t// in\n    tag_22:\n      stop\n        /* \"contracts/Profile.sol\":1608:1754  function updateProfileName(string memory newName, address owner) external validProfile (owner) {... */\n    tag_7:\n      tag_25\n      0x04\n      dup1\n      calldatasize\n      sub\n      dup2\n      add\n      swap1\n      tag_26\n      swap2\n      swap1\n      tag_27\n      jump\t// in\n    tag_26:\n      tag_28\n      jump\t// in\n    tag_25:\n      stop\n        /* \"contracts/Profile.sol\":595:624  uint256 public numProfile = 0 */\n    tag_9:\n      sload(0x01)\n      dup2\n      jump\t// out\n        /* \"contracts/Profile.sol\":868:1306  function createProfile(string memory name, string memory ownername, string memory password, address owner)  external {... */\n    tag_15:\n        /* \"contracts/Profile.sol\":1033:1038  false */\n      0x00\n        /* \"contracts/Profile.sol\":1003:1038  profileList[owner].created == false */\n      iszero\n      iszero\n        /* \"contracts/Profile.sol\":1003:1014  profileList */\n      0x00\n        /* \"contracts/Profile.sol\":1003:1021  profileList[owner] */\n      dup1\n        /* \"contracts/Profile.sol\":1015:1020  owner */\n      dup4\n        /* \"contracts/Profile.sol\":1003:1021  profileList[owner] */\n      0xffffffffffffffffffffffffffffffffffffffff\n      and\n      0xffffffffffffffffffffffffffffffffffffffff\n      and\n      dup2\n      mstore\n      0x20\n      add\n      swap1\n      dup2\n      mstore\n      0x20\n      add\n      0x00\n      keccak256\n        /* \"contracts/Profile.sol\":1003:1029  profileList[owner].created */\n      0x03\n      add\n      0x14\n      swap1\n      sload\n      swap1\n      0x0100\n      exp\n      swap1\n      div\n      0xff\n      and\n        /* \"contracts/Profile.sol\":1003:1038  profileList[owner].created == false */\n      iszero\n      iszero\n      eq\n        /* \"contracts/Profile.sol\":995:1076  require(profileList[owner].created == false, \"Cannot create more than 1 profile\") */\n      tag_30\n      jumpi\n      mload(0x40)\n      0x08c379a000000000000000000000000000000000000000000000000000000000\n      dup2\n      mstore\n      0x04\n      add\n      tag_31\n      swap1\n      tag_32\n      jump\t// in\n    tag_31:\n      mload(0x40)\n      dup1\n      swap2\n      sub\n      swap1\n      revert\n    tag_30:\n        /* \"contracts/Profile.sol\":1086:1111  profile memory newProfile */\n      0x00\n        /* \"contracts/Profile.sol\":1114:1157  profile(name,ownername,password,owner,true) */\n      mload(0x40)\n      dup1\n      0xa0\n      add\n      0x40\n      mstore\n      dup1\n        /* \"contracts/Profile.sol\":1122:1126  name */\n      dup7\n        /* \"contracts/Profile.sol\":1114:1157  profile(name,ownername,password,owner,true) */\n      dup2\n      mstore\n      0x20\n      add\n        /* \"contracts/Profile.sol\":1127:1136  ownername */\n      dup6\n        /* \"contracts/Profile.sol\":1114:1157  profile(name,ownername,password,owner,true) */\n      dup2\n      mstore\n      0x20\n      add\n        /* \"contracts/Profile.sol\":1137:1145  password */\n      dup5\n        /* \"contracts/Profile.sol\":1114:1157  profile(name,ownername,password,owner,true) */\n      dup2\n      mstore\n      0x20\n      add\n        /* \"contracts/Profile.sol\":1146:1151  owner */\n      dup4\n        /* \"contracts/Profile.sol\":1114:1157  profile(name,ownername,password,owner,true) */\n      0xffffffffffffffffffffffffffffffffffffffff\n      and\n      dup2\n      mstore\n      0x20\n      add\n        /* \"contracts/Profile.sol\":1152:1156  true */\n      0x01\n        /* \"contracts/Profile.sol\":1114:1157  profile(name,ownername,password,owner,true) */\n      iszero\n      iszero\n      dup2\n      mstore\n      pop\n        /* \"contracts/Profile.sol\":1086:1157  profile memory newProfile = profile(name,ownername,password,owner,true) */\n      swap1\n      pop\n        /* \"contracts/Profile.sol\":1188:1198  newProfile */\n      dup1\n        /* \"contracts/Profile.sol\":1167:1178  profileList */\n      0x00\n        /* \"contracts/Profile.sol\":1167:1185  profileList[owner] */\n      dup1\n        /* \"contracts/Profile.sol\":1179:1184  owner */\n      dup5\n        /* \"contracts/Profile.sol\":1167:1185  profileList[owner] */\n      0xffffffffffffffffffffffffffffffffffffffff\n      and\n      0xffffffffffffffffffffffffffffffffffffffff\n      and\n      dup2\n      mstore\n      0x20\n      add\n      swap1\n      dup2\n      mstore\n      0x20\n      add\n      0x00\n      keccak256\n        /* \"contracts/Profile.sol\":1167:1198  profileList[owner] = newProfile */\n      0x00\n      dup3\n      add\n      mload\n      dup2\n      0x00\n      add\n      swap1\n      dup1\n      mload\n      swap1\n      0x20\n      add\n      swap1\n      tag_33\n      swap3\n      swap2\n      swap1\n      tag_34\n      jump\t// in\n    tag_33:\n      pop\n      0x20\n      dup3\n      add\n      mload\n      dup2\n      0x01\n      add\n      swap1\n      dup1\n      mload\n      swap1\n      0x20\n      add\n      swap1\n      tag_35\n      swap3\n      swap2\n      swap1\n      tag_34\n      jump\t// in\n    tag_35:\n      pop\n      0x40\n      dup3\n      add\n      mload\n      dup2\n      0x02\n      add\n      swap1\n      dup1\n      mload\n      swap1\n      0x20\n      add\n      swap1\n      tag_36\n      swap3\n      swap2\n      swap1\n      tag_34\n      jump\t// in\n    tag_36:\n      pop\n      0x60\n      dup3\n      add\n      mload\n      dup2\n      0x03\n      add\n      exp(0x0100, 0x00)\n      dup2\n      sload\n      dup2\n      0xffffffffffffffffffffffffffffffffffffffff\n      mul\n      not\n      and\n      swap1\n      dup4\n      0xffffffffffffffffffffffffffffffffffffffff\n      and\n      mul\n      or\n      swap1\n      sstore\n      pop\n      0x80\n      dup3\n      add\n      mload\n      dup2\n      0x03\n      add\n      exp(0x0100, 0x14)\n      dup2\n      sload\n      dup2\n      0xff\n      mul\n      not\n      and\n      swap1\n      dup4\n      iszero\n      iszero\n      mul\n      or\n      swap1\n      sstore\n      pop\n      swap1\n      pop\n      pop\n        /* \"contracts/Profile.sol\":1234:1235  1 */\n      0x01\n        /* \"contracts/Profile.sol\":1221:1231  numProfile */\n      dup1\n      sload\n        /* \"contracts/Profile.sol\":1221:1235  numProfile + 1 */\n      tag_37\n      swap2\n      swap1\n      tag_38\n      jump\t// in\n    tag_37:\n        /* \"contracts/Profile.sol\":1208:1218  numProfile */\n      0x01\n        /* \"contracts/Profile.sol\":1208:1235  numProfile = numProfile + 1 */\n      dup2\n      swap1\n      sstore\n      pop\n        /* \"contracts/Profile.sol\":1250:1299  profileCreated( name, ownername, password, owner) */\n      0xab9b331051b603353f375206f077385a1677688e31ac29bacfca94ead2f9f624\n        /* \"contracts/Profile.sol\":1266:1270  name */\n      dup6\n        /* \"contracts/Profile.sol\":1272:1281  ownername */\n      dup6\n        /* \"contracts/Profile.sol\":1283:1291  password */\n      dup6\n        /* \"contracts/Profile.sol\":1293:1298  owner */\n      dup6\n        /* \"contracts/Profile.sol\":1250:1299  profileCreated( name, ownername, password, owner) */\n      mload(0x40)\n      tag_39\n      swap5\n      swap4\n      swap3\n      swap2\n      swap1\n      tag_40\n      jump\t// in\n    tag_39:\n      mload(0x40)\n      dup1\n      swap2\n      sub\n      swap1\n      log1\n        /* \"contracts/Profile.sol\":985:1306  {... */\n      pop\n        /* \"contracts/Profile.sol\":868:1306  function createProfile(string memory name, string memory ownername, string memory password, address owner)  external {... */\n      pop\n      pop\n      pop\n      pop\n      jump\t// out\n        /* \"contracts/Profile.sol\":1818:1957  function getName(address owner) external validProfile (owner) view returns ( string memory) {... */\n    tag_19:\n        /* \"contracts/Profile.sol\":1895:1908  string memory */\n      0x60\n        /* \"contracts/Profile.sol\":1873:1878  owner */\n      dup2\n        /* \"contracts/Profile.sol\":773:777  true */\n      0x01\n        /* \"contracts/Profile.sol\":743:777  profileList[owner].created == true */\n      iszero\n      iszero\n        /* \"contracts/Profile.sol\":743:754  profileList */\n      0x00\n        /* \"contracts/Profile.sol\":743:761  profileList[owner] */\n      dup1\n        /* \"contracts/Profile.sol\":755:760  owner */\n      dup4\n        /* \"contracts/Profile.sol\":743:761  profileList[owner] */\n      0xffffffffffffffffffffffffffffffffffffffff\n      and\n      0xffffffffffffffffffffffffffffffffffffffff\n      and\n      dup2\n      mstore\n      0x20\n      add\n      swap1\n      dup2\n      mstore\n      0x20\n      add\n      0x00\n      keccak256\n        /* \"contracts/Profile.sol\":743:769  profileList[owner].created */\n      0x03\n      add\n      0x14\n      swap1\n      sload\n      swap1\n      0x0100\n      exp\n      swap1\n      div\n      0xff\n      and\n        /* \"contracts/Profile.sol\":743:777  profileList[owner].created == true */\n      iszero\n      iszero\n      eq\n        /* \"contracts/Profile.sol\":735:804  require(profileList[owner].created == true, \"Profile does not exist\") */\n      tag_42\n      jumpi\n      mload(0x40)\n      0x08c379a000000000000000000000000000000000000000000000000000000000\n      dup2\n      mstore\n      0x04\n      add\n      tag_43\n      swap1\n      tag_44\n      jump\t// in\n    tag_43:\n      mload(0x40)\n      dup1\n      swap2\n      sub\n      swap1\n      revert\n    tag_42:\n        /* \"contracts/Profile.sol\":1927:1938  profileList */\n      0x00\n        /* \"contracts/Profile.sol\":1927:1945  profileList[owner] */\n      dup1\n        /* \"contracts/Profile.sol\":1939:1944  owner */\n      dup5\n        /* \"contracts/Profile.sol\":1927:1945  profileList[owner] */\n      0xffffffffffffffffffffffffffffffffffffffff\n      and\n      0xffffffffffffffffffffffffffffffffffffffff\n      and\n      dup2\n      mstore\n      0x20\n      add\n      swap1\n      dup2\n      mstore\n      0x20\n      add\n      0x00\n      keccak256\n        /* \"contracts/Profile.sol\":1927:1950  profileList[owner].name */\n      0x00\n      add\n        /* \"contracts/Profile.sol\":1920:1950  return profileList[owner].name */\n      dup1\n      sload\n      tag_46\n      swap1\n      tag_47\n      jump\t// in\n    tag_46:\n      dup1\n      0x1f\n      add\n      0x20\n      dup1\n      swap2\n      div\n      mul\n      0x20\n      add\n      mload(0x40)\n      swap1\n      dup2\n      add\n      0x40\n      mstore\n      dup1\n      swap3\n      swap2\n      swap1\n      dup2\n      dup2\n      mstore\n      0x20\n      add\n      dup3\n      dup1\n      sload\n      tag_48\n      swap1\n      tag_47\n      jump\t// in\n    tag_48:\n      dup1\n      iszero\n      tag_49\n      jumpi\n      dup1\n      0x1f\n      lt\n      tag_50\n      jumpi\n      0x0100\n      dup1\n      dup4\n      sload\n      div\n      mul\n      dup4\n      mstore\n      swap2\n      0x20\n      add\n      swap2\n      jump(tag_49)\n    tag_50:\n      dup3\n      add\n      swap2\n      swap1\n      0x00\n      mstore\n      keccak256(0x00, 0x20)\n      swap1\n    tag_51:\n      dup2\n      sload\n      dup2\n      mstore\n      swap1\n      0x01\n      add\n      swap1\n      0x20\n      add\n      dup1\n      dup4\n      gt\n      tag_51\n      jumpi\n      dup3\n      swap1\n      sub\n      0x1f\n      and\n      dup3\n      add\n      swap2\n    tag_49:\n      pop\n      pop\n      pop\n      pop\n      pop\n      swap2\n      pop\n        /* \"contracts/Profile.sol\":1818:1957  function getName(address owner) external validProfile (owner) view returns ( string memory) {... */\n      pop\n      swap2\n      swap1\n      pop\n      jump\t// out\n        /* \"contracts/Profile.sol\":1353:1561  function deleteProfile(address owner) external validProfile (owner) {... */\n    tag_24:\n        /* \"contracts/Profile.sol\":1414:1419  owner */\n      dup1\n        /* \"contracts/Profile.sol\":773:777  true */\n      0x01\n        /* \"contracts/Profile.sol\":743:777  profileList[owner].created == true */\n      iszero\n      iszero\n        /* \"contracts/Profile.sol\":743:754  profileList */\n      0x00\n        /* \"contracts/Profile.sol\":743:761  profileList[owner] */\n      dup1\n        /* \"contracts/Profile.sol\":755:760  owner */\n      dup4\n        /* \"contracts/Profile.sol\":743:761  profileList[owner] */\n      0xffffffffffffffffffffffffffffffffffffffff\n      and\n      0xffffffffffffffffffffffffffffffffffffffff\n      and\n      dup2\n      mstore\n      0x20\n      add\n      swap1\n      dup2\n      mstore\n      0x20\n      add\n      0x00\n      keccak256\n        /* \"contracts/Profile.sol\":743:769  profileList[owner].created */\n      0x03\n      add\n      0x14\n      swap1\n      sload\n      swap1\n      0x0100\n      exp\n      swap1\n      div\n      0xff\n      and\n        /* \"contracts/Profile.sol\":743:777  profileList[owner].created == true */\n      iszero\n      iszero\n      eq\n        /* \"contracts/Profile.sol\":735:804  require(profileList[owner].created == true, \"Profile does not exist\") */\n      tag_53\n      jumpi\n      mload(0x40)\n      0x08c379a000000000000000000000000000000000000000000000000000000000\n      dup2\n      mstore\n      0x04\n      add\n      tag_54\n      swap1\n      tag_44\n      jump\t// in\n    tag_54:\n      mload(0x40)\n      dup1\n      swap2\n      sub\n      swap1\n      revert\n    tag_53:\n        /* \"contracts/Profile.sol\":1460:1465  false */\n      0x00\n        /* \"contracts/Profile.sol\":1431:1442  profileList */\n      dup1\n        /* \"contracts/Profile.sol\":1431:1449  profileList[owner] */\n      0x00\n        /* \"contracts/Profile.sol\":1443:1448  owner */\n      dup5\n        /* \"contracts/Profile.sol\":1431:1449  profileList[owner] */\n      0xffffffffffffffffffffffffffffffffffffffff\n      and\n      0xffffffffffffffffffffffffffffffffffffffff\n      and\n      dup2\n      mstore\n      0x20\n      add\n      swap1\n      dup2\n      mstore\n      0x20\n      add\n      0x00\n      keccak256\n        /* \"contracts/Profile.sol\":1431:1457  profileList[owner].created */\n      0x03\n      add\n      0x14\n        /* \"contracts/Profile.sol\":1431:1465  profileList[owner].created = false */\n      0x0100\n      exp\n      dup2\n      sload\n      dup2\n      0xff\n      mul\n      not\n      and\n      swap1\n      dup4\n      iszero\n      iszero\n      mul\n      or\n      swap1\n      sstore\n      pop\n        /* \"contracts/Profile.sol\":1516:1517  1 */\n      0x01\n        /* \"contracts/Profile.sol\":1503:1513  numProfile */\n      dup1\n      sload\n        /* \"contracts/Profile.sol\":1503:1517  numProfile - 1 */\n      tag_56\n      swap2\n      swap1\n      tag_57\n      jump\t// in\n    tag_56:\n        /* \"contracts/Profile.sol\":1490:1500  numProfile */\n      0x01\n        /* \"contracts/Profile.sol\":1490:1517  numProfile = numProfile - 1 */\n      dup2\n      swap1\n      sstore\n      pop\n        /* \"contracts/Profile.sol\":1533:1554  profileDeleted(owner) */\n      0xb3e28db4a27e0be6fecdbb889b7a847c4451545c8158cdec23f4fc29d6756d19\n        /* \"contracts/Profile.sol\":1548:1553  owner */\n      dup3\n        /* \"contracts/Profile.sol\":1533:1554  profileDeleted(owner) */\n      mload(0x40)\n      tag_58\n      swap2\n      swap1\n      tag_59\n      jump\t// in\n    tag_58:\n      mload(0x40)\n      dup1\n      swap2\n      sub\n      swap1\n      log1\n        /* \"contracts/Profile.sol\":1353:1561  function deleteProfile(address owner) external validProfile (owner) {... */\n      pop\n      pop\n      jump\t// out\n        /* \"contracts/Profile.sol\":1608:1754  function updateProfileName(string memory newName, address owner) external validProfile (owner) {... */\n    tag_28:\n        /* \"contracts/Profile.sol\":1696:1701  owner */\n      dup1\n        /* \"contracts/Profile.sol\":773:777  true */\n      0x01\n        /* \"contracts/Profile.sol\":743:777  profileList[owner].created == true */\n      iszero\n      iszero\n        /* \"contracts/Profile.sol\":743:754  profileList */\n      0x00\n        /* \"contracts/Profile.sol\":743:761  profileList[owner] */\n      dup1\n        /* \"contracts/Profile.sol\":755:760  owner */\n      dup4\n        /* \"contracts/Profile.sol\":743:761  profileList[owner] */\n      0xffffffffffffffffffffffffffffffffffffffff\n      and\n      0xffffffffffffffffffffffffffffffffffffffff\n      and\n      dup2\n      mstore\n      0x20\n      add\n      swap1\n      dup2\n      mstore\n      0x20\n      add\n      0x00\n      keccak256\n        /* \"contracts/Profile.sol\":743:769  profileList[owner].created */\n      0x03\n      add\n      0x14\n      swap1\n      sload\n      swap1\n      0x0100\n      exp\n      swap1\n      div\n      0xff\n      and\n        /* \"contracts/Profile.sol\":743:777  profileList[owner].created == true */\n      iszero\n      iszero\n      eq\n        /* \"contracts/Profile.sol\":735:804  require(profileList[owner].created == true, \"Profile does not exist\") */\n      tag_61\n      jumpi\n      mload(0x40)\n      0x08c379a000000000000000000000000000000000000000000000000000000000\n      dup2\n      mstore\n      0x04\n      add\n      tag_62\n      swap1\n      tag_44\n      jump\t// in\n    tag_62:\n      mload(0x40)\n      dup1\n      swap2\n      sub\n      swap1\n      revert\n    tag_61:\n        /* \"contracts/Profile.sol\":1739:1746  newName */\n      dup3\n        /* \"contracts/Profile.sol\":1713:1724  profileList */\n      0x00\n        /* \"contracts/Profile.sol\":1713:1731  profileList[owner] */\n      dup1\n        /* \"contracts/Profile.sol\":1725:1730  owner */\n      dup5\n        /* \"contracts/Profile.sol\":1713:1731  profileList[owner] */\n      0xffffffffffffffffffffffffffffffffffffffff\n      and\n      0xffffffffffffffffffffffffffffffffffffffff\n      and\n      dup2\n      mstore\n      0x20\n      add\n      swap1\n      dup2\n      mstore\n      0x20\n      add\n      0x00\n      keccak256\n        /* \"contracts/Profile.sol\":1713:1736  profileList[owner].name */\n      0x00\n      add\n        /* \"contracts/Profile.sol\":1713:1746  profileList[owner].name = newName */\n      swap1\n      dup1\n      mload\n      swap1\n      0x20\n      add\n      swap1\n      tag_64\n      swap3\n      swap2\n      swap1\n      tag_34\n      jump\t// in\n    tag_64:\n      pop\n        /* \"contracts/Profile.sol\":1608:1754  function updateProfileName(string memory newName, address owner) external validProfile (owner) {... */\n      pop\n      pop\n      pop\n      jump\t// out\n    tag_34:\n      dup3\n      dup1\n      sload\n      tag_65\n      swap1\n      tag_47\n      jump\t// in\n    tag_65:\n      swap1\n      0x00\n      mstore\n      keccak256(0x00, 0x20)\n      swap1\n      0x1f\n      add\n      0x20\n      swap1\n      div\n      dup2\n      add\n      swap3\n      dup3\n      tag_67\n      jumpi\n      0x00\n      dup6\n      sstore\n      jump(tag_66)\n    tag_67:\n      dup3\n      0x1f\n      lt\n      tag_68\n      jumpi\n      dup1\n      mload\n      not(0xff)\n      and\n      dup4\n      dup1\n      add\n      or\n      dup6\n      sstore\n      jump(tag_66)\n    tag_68:\n      dup3\n      dup1\n      add\n      0x01\n      add\n      dup6\n      sstore\n      dup3\n      iszero\n      tag_66\n      jumpi\n      swap2\n      dup3\n      add\n    tag_69:\n      dup3\n      dup2\n      gt\n      iszero\n      tag_70\n      jumpi\n      dup3\n      mload\n      dup3\n      sstore\n      swap2\n      0x20\n      add\n      swap2\n      swap1\n      0x01\n      add\n      swap1\n      jump(tag_69)\n    tag_70:\n    tag_66:\n      pop\n      swap1\n      pop\n      tag_71\n      swap2\n      swap1\n      tag_72\n      jump\t// in\n    tag_71:\n      pop\n      swap1\n      jump\t// out\n    tag_72:\n    tag_73:\n      dup1\n      dup3\n      gt\n      iszero\n      tag_74\n      jumpi\n      0x00\n      dup2\n      0x00\n      swap1\n      sstore\n      pop\n      0x01\n      add\n      jump(tag_73)\n    tag_74:\n      pop\n      swap1\n      jump\t// out\n        /* \"#utility.yul\":7:419   */\n    tag_76:\n        /* \"#utility.yul\":85:90   */\n      0x00\n        /* \"#utility.yul\":110:176   */\n      tag_78\n        /* \"#utility.yul\":126:175   */\n      tag_79\n        /* \"#utility.yul\":168:174   */\n      dup5\n        /* \"#utility.yul\":126:175   */\n      tag_80\n      jump\t// in\n    tag_79:\n        /* \"#utility.yul\":110:176   */\n      tag_81\n      jump\t// in\n    tag_78:\n        /* \"#utility.yul\":101:176   */\n      swap1\n      pop\n        /* \"#utility.yul\":199:205   */\n      dup3\n        /* \"#utility.yul\":192:197   */\n      dup2\n        /* \"#utility.yul\":185:206   */\n      mstore\n        /* \"#utility.yul\":237:241   */\n      0x20\n        /* \"#utility.yul\":230:235   */\n      dup2\n        /* \"#utility.yul\":226:242   */\n      add\n        /* \"#utility.yul\":275:278   */\n      dup5\n        /* \"#utility.yul\":266:272   */\n      dup5\n        /* \"#utility.yul\":261:264   */\n      dup5\n        /* \"#utility.yul\":257:273   */\n      add\n        /* \"#utility.yul\":254:279   */\n      gt\n        /* \"#utility.yul\":251:363   */\n      iszero\n      tag_82\n      jumpi\n        /* \"#utility.yul\":282:361   */\n      tag_83\n      tag_84\n      jump\t// in\n    tag_83:\n        /* \"#utility.yul\":251:363   */\n    tag_82:\n        /* \"#utility.yul\":372:413   */\n      tag_85\n        /* \"#utility.yul\":406:412   */\n      dup5\n        /* \"#utility.yul\":401:404   */\n      dup3\n        /* \"#utility.yul\":396:399   */\n      dup6\n        /* \"#utility.yul\":372:413   */\n      tag_86\n      jump\t// in\n    tag_85:\n        /* \"#utility.yul\":91:419   */\n      pop\n        /* \"#utility.yul\":7:419   */\n      swap4\n      swap3\n      pop\n      pop\n      pop\n      jump\t// out\n        /* \"#utility.yul\":425:564   */\n    tag_87:\n        /* \"#utility.yul\":471:476   */\n      0x00\n        /* \"#utility.yul\":509:515   */\n      dup2\n        /* \"#utility.yul\":496:516   */\n      calldataload\n        /* \"#utility.yul\":487:516   */\n      swap1\n      pop\n        /* \"#utility.yul\":525:558   */\n      tag_89\n        /* \"#utility.yul\":552:557   */\n      dup2\n        /* \"#utility.yul\":525:558   */\n      tag_90\n      jump\t// in\n    tag_89:\n        /* \"#utility.yul\":425:564   */\n      swap3\n      swap2\n      pop\n      pop\n      jump\t// out\n        /* \"#utility.yul\":584:924   */\n    tag_91:\n        /* \"#utility.yul\":640:645   */\n      0x00\n        /* \"#utility.yul\":689:692   */\n      dup3\n        /* \"#utility.yul\":682:686   */\n      0x1f\n        /* \"#utility.yul\":674:680   */\n      dup4\n        /* \"#utility.yul\":670:687   */\n      add\n        /* \"#utility.yul\":666:693   */\n      slt\n        /* \"#utility.yul\":656:778   */\n      tag_93\n      jumpi\n        /* \"#utility.yul\":697:776   */\n      tag_94\n      tag_95\n      jump\t// in\n    tag_94:\n        /* \"#utility.yul\":656:778   */\n    tag_93:\n        /* \"#utility.yul\":814:820   */\n      dup2\n        /* \"#utility.yul\":801:821   */\n      calldataload\n        /* \"#utility.yul\":839:918   */\n      tag_96\n        /* \"#utility.yul\":914:917   */\n      dup5\n        /* \"#utility.yul\":906:912   */\n      dup3\n        /* \"#utility.yul\":899:903   */\n      0x20\n        /* \"#utility.yul\":891:897   */\n      dup7\n        /* \"#utility.yul\":887:904   */\n      add\n        /* \"#utility.yul\":839:918   */\n      tag_76\n      jump\t// in\n    tag_96:\n        /* \"#utility.yul\":830:918   */\n      swap2\n      pop\n        /* \"#utility.yul\":646:924   */\n      pop\n        /* \"#utility.yul\":584:924   */\n      swap3\n      swap2\n      pop\n      pop\n      jump\t// out\n        /* \"#utility.yul\":930:1259   */\n    tag_18:\n        /* \"#utility.yul\":989:995   */\n      0x00\n        /* \"#utility.yul\":1038:1040   */\n      0x20\n        /* \"#utility.yul\":1026:1035   */\n      dup3\n        /* \"#utility.yul\":1017:1024   */\n      dup5\n        /* \"#utility.yul\":1013:1036   */\n      sub\n        /* \"#utility.yul\":1009:1041   */\n      slt\n        /* \"#utility.yul\":1006:1125   */\n      iszero\n      tag_98\n      jumpi\n        /* \"#utility.yul\":1044:1123   */\n      tag_99\n      tag_100\n      jump\t// in\n    tag_99:\n        /* \"#utility.yul\":1006:1125   */\n    tag_98:\n        /* \"#utility.yul\":1164:1165   */\n      0x00\n        /* \"#utility.yul\":1189:1242   */\n      tag_101\n        /* \"#utility.yul\":1234:1241   */\n      dup5\n        /* \"#utility.yul\":1225:1231   */\n      dup3\n        /* \"#utility.yul\":1214:1223   */\n      dup6\n        /* \"#utility.yul\":1210:1232   */\n      add\n        /* \"#utility.yul\":1189:1242   */\n      tag_87\n      jump\t// in\n    tag_101:\n        /* \"#utility.yul\":1179:1242   */\n      swap2\n      pop\n        /* \"#utility.yul\":1135:1252   */\n      pop\n        /* \"#utility.yul\":930:1259   */\n      swap3\n      swap2\n      pop\n      pop\n      jump\t// out\n        /* \"#utility.yul\":1265:1919   */\n    tag_27:\n        /* \"#utility.yul\":1343:1349   */\n      0x00\n        /* \"#utility.yul\":1351:1357   */\n      dup1\n        /* \"#utility.yul\":1400:1402   */\n      0x40\n        /* \"#utility.yul\":1388:1397   */\n      dup4\n        /* \"#utility.yul\":1379:1386   */\n      dup6\n        /* \"#utility.yul\":1375:1398   */\n      sub\n        /* \"#utility.yul\":1371:1403   */\n      slt\n        /* \"#utility.yul\":1368:1487   */\n      iszero\n      tag_103\n      jumpi\n        /* \"#utility.yul\":1406:1485   */\n      tag_104\n      tag_100\n      jump\t// in\n    tag_104:\n        /* \"#utility.yul\":1368:1487   */\n    tag_103:\n        /* \"#utility.yul\":1554:1555   */\n      0x00\n        /* \"#utility.yul\":1543:1552   */\n      dup4\n        /* \"#utility.yul\":1539:1556   */\n      add\n        /* \"#utility.yul\":1526:1557   */\n      calldataload\n        /* \"#utility.yul\":1584:1602   */\n      0xffffffffffffffff\n        /* \"#utility.yul\":1576:1582   */\n      dup2\n        /* \"#utility.yul\":1573:1603   */\n      gt\n        /* \"#utility.yul\":1570:1687   */\n      iszero\n      tag_105\n      jumpi\n        /* \"#utility.yul\":1606:1685   */\n      tag_106\n      tag_107\n      jump\t// in\n    tag_106:\n        /* \"#utility.yul\":1570:1687   */\n    tag_105:\n        /* \"#utility.yul\":1711:1774   */\n      tag_108\n        /* \"#utility.yul\":1766:1773   */\n      dup6\n        /* \"#utility.yul\":1757:1763   */\n      dup3\n        /* \"#utility.yul\":1746:1755   */\n      dup7\n        /* \"#utility.yul\":1742:1764   */\n      add\n        /* \"#utility.yul\":1711:1774   */\n      tag_91\n      jump\t// in\n    tag_108:\n        /* \"#utility.yul\":1701:1774   */\n      swap3\n      pop\n        /* \"#utility.yul\":1497:1784   */\n      pop\n        /* \"#utility.yul\":1823:1825   */\n      0x20\n        /* \"#utility.yul\":1849:1902   */\n      tag_109\n        /* \"#utility.yul\":1894:1901   */\n      dup6\n        /* \"#utility.yul\":1885:1891   */\n      dup3\n        /* \"#utility.yul\":1874:1883   */\n      dup7\n        /* \"#utility.yul\":1870:1892   */\n      add\n        /* \"#utility.yul\":1849:1902   */\n      tag_87\n      jump\t// in\n    tag_109:\n        /* \"#utility.yul\":1839:1902   */\n      swap2\n      pop\n        /* \"#utility.yul\":1794:1912   */\n      pop\n        /* \"#utility.yul\":1265:1919   */\n      swap3\n      pop\n      swap3\n      swap1\n      pop\n      jump\t// out\n        /* \"#utility.yul\":1925:3230   */\n    tag_14:\n        /* \"#utility.yul\":2041:2047   */\n      0x00\n        /* \"#utility.yul\":2049:2055   */\n      dup1\n        /* \"#utility.yul\":2057:2063   */\n      0x00\n        /* \"#utility.yul\":2065:2071   */\n      dup1\n        /* \"#utility.yul\":2114:2117   */\n      0x80\n        /* \"#utility.yul\":2102:2111   */\n      dup6\n        /* \"#utility.yul\":2093:2100   */\n      dup8\n        /* \"#utility.yul\":2089:2112   */\n      sub\n        /* \"#utility.yul\":2085:2118   */\n      slt\n        /* \"#utility.yul\":2082:2202   */\n      iszero\n      tag_111\n      jumpi\n        /* \"#utility.yul\":2121:2200   */\n      tag_112\n      tag_100\n      jump\t// in\n    tag_112:\n        /* \"#utility.yul\":2082:2202   */\n    tag_111:\n        /* \"#utility.yul\":2269:2270   */\n      0x00\n        /* \"#utility.yul\":2258:2267   */\n      dup6\n        /* \"#utility.yul\":2254:2271   */\n      add\n        /* \"#utility.yul\":2241:2272   */\n      calldataload\n        /* \"#utility.yul\":2299:2317   */\n      0xffffffffffffffff\n        /* \"#utility.yul\":2291:2297   */\n      dup2\n        /* \"#utility.yul\":2288:2318   */\n      gt\n        /* \"#utility.yul\":2285:2402   */\n      iszero\n      tag_113\n      jumpi\n        /* \"#utility.yul\":2321:2400   */\n      tag_114\n      tag_107\n      jump\t// in\n    tag_114:\n        /* \"#utility.yul\":2285:2402   */\n    tag_113:\n        /* \"#utility.yul\":2426:2489   */\n      tag_115\n        /* \"#utility.yul\":2481:2488   */\n      dup8\n        /* \"#utility.yul\":2472:2478   */\n      dup3\n        /* \"#utility.yul\":2461:2470   */\n      dup9\n        /* \"#utility.yul\":2457:2479   */\n      add\n        /* \"#utility.yul\":2426:2489   */\n      tag_91\n      jump\t// in\n    tag_115:\n        /* \"#utility.yul\":2416:2489   */\n      swap5\n      pop\n        /* \"#utility.yul\":2212:2499   */\n      pop\n        /* \"#utility.yul\":2566:2568   */\n      0x20\n        /* \"#utility.yul\":2555:2564   */\n      dup6\n        /* \"#utility.yul\":2551:2569   */\n      add\n        /* \"#utility.yul\":2538:2570   */\n      calldataload\n        /* \"#utility.yul\":2597:2615   */\n      0xffffffffffffffff\n        /* \"#utility.yul\":2589:2595   */\n      dup2\n        /* \"#utility.yul\":2586:2616   */\n      gt\n        /* \"#utility.yul\":2583:2700   */\n      iszero\n      tag_116\n      jumpi\n        /* \"#utility.yul\":2619:2698   */\n      tag_117\n      tag_107\n      jump\t// in\n    tag_117:\n        /* \"#utility.yul\":2583:2700   */\n    tag_116:\n        /* \"#utility.yul\":2724:2787   */\n      tag_118\n        /* \"#utility.yul\":2779:2786   */\n      dup8\n        /* \"#utility.yul\":2770:2776   */\n      dup3\n        /* \"#utility.yul\":2759:2768   */\n      dup9\n        /* \"#utility.yul\":2755:2777   */\n      add\n        /* \"#utility.yul\":2724:2787   */\n      tag_91\n      jump\t// in\n    tag_118:\n        /* \"#utility.yul\":2714:2787   */\n      swap4\n      pop\n        /* \"#utility.yul\":2509:2797   */\n      pop\n        /* \"#utility.yul\":2864:2866   */\n      0x40\n        /* \"#utility.yul\":2853:2862   */\n      dup6\n        /* \"#utility.yul\":2849:2867   */\n      add\n        /* \"#utility.yul\":2836:2868   */\n      calldataload\n        /* \"#utility.yul\":2895:2913   */\n      0xffffffffffffffff\n        /* \"#utility.yul\":2887:2893   */\n      dup2\n        /* \"#utility.yul\":2884:2914   */\n      gt\n        /* \"#utility.yul\":2881:2998   */\n      iszero\n      tag_119\n      jumpi\n        /* \"#utility.yul\":2917:2996   */\n      tag_120\n      tag_107\n      jump\t// in\n    tag_120:\n        /* \"#utility.yul\":2881:2998   */\n    tag_119:\n        /* \"#utility.yul\":3022:3085   */\n      tag_121\n        /* \"#utility.yul\":3077:3084   */\n      dup8\n        /* \"#utility.yul\":3068:3074   */\n      dup3\n        /* \"#utility.yul\":3057:3066   */\n      dup9\n        /* \"#utility.yul\":3053:3075   */\n      add\n        /* \"#utility.yul\":3022:3085   */\n      tag_91\n      jump\t// in\n    tag_121:\n        /* \"#utility.yul\":3012:3085   */\n      swap3\n      pop\n        /* \"#utility.yul\":2807:3095   */\n      pop\n        /* \"#utility.yul\":3134:3136   */\n      0x60\n        /* \"#utility.yul\":3160:3213   */\n      tag_122\n        /* \"#utility.yul\":3205:3212   */\n      dup8\n        /* \"#utility.yul\":3196:3202   */\n      dup3\n        /* \"#utility.yul\":3185:3194   */\n      dup9\n        /* \"#utility.yul\":3181:3203   */\n      add\n        /* \"#utility.yul\":3160:3213   */\n      tag_87\n      jump\t// in\n    tag_122:\n        /* \"#utility.yul\":3150:3213   */\n      swap2\n      pop\n        /* \"#utility.yul\":3105:3223   */\n      pop\n        /* \"#utility.yul\":1925:3230   */\n      swap3\n      swap6\n      swap2\n      swap5\n      pop\n      swap3\n      pop\n      jump\t// out\n        /* \"#utility.yul\":3236:3354   */\n    tag_123:\n        /* \"#utility.yul\":3323:3347   */\n      tag_125\n        /* \"#utility.yul\":3341:3346   */\n      dup2\n        /* \"#utility.yul\":3323:3347   */\n      tag_126\n      jump\t// in\n    tag_125:\n        /* \"#utility.yul\":3318:3321   */\n      dup3\n        /* \"#utility.yul\":3311:3348   */\n      mstore\n        /* \"#utility.yul\":3236:3354   */\n      pop\n      pop\n      jump\t// out\n        /* \"#utility.yul\":3360:3724   */\n    tag_127:\n        /* \"#utility.yul\":3448:3451   */\n      0x00\n        /* \"#utility.yul\":3476:3515   */\n      tag_129\n        /* \"#utility.yul\":3509:3514   */\n      dup3\n        /* \"#utility.yul\":3476:3515   */\n      tag_130\n      jump\t// in\n    tag_129:\n        /* \"#utility.yul\":3531:3602   */\n      tag_131\n        /* \"#utility.yul\":3595:3601   */\n      dup2\n        /* \"#utility.yul\":3590:3593   */\n      dup6\n        /* \"#utility.yul\":3531:3602   */\n      tag_132\n      jump\t// in\n    tag_131:\n        /* \"#utility.yul\":3524:3602   */\n      swap4\n      pop\n        /* \"#utility.yul\":3611:3663   */\n      tag_133\n        /* \"#utility.yul\":3656:3662   */\n      dup2\n        /* \"#utility.yul\":3651:3654   */\n      dup6\n        /* \"#utility.yul\":3644:3648   */\n      0x20\n        /* \"#utility.yul\":3637:3642   */\n      dup7\n        /* \"#utility.yul\":3633:3649   */\n      add\n        /* \"#utility.yul\":3611:3663   */\n      tag_134\n      jump\t// in\n    tag_133:\n        /* \"#utility.yul\":3688:3717   */\n      tag_135\n        /* \"#utility.yul\":3710:3716   */\n      dup2\n        /* \"#utility.yul\":3688:3717   */\n      tag_136\n      jump\t// in\n    tag_135:\n        /* \"#utility.yul\":3683:3686   */\n      dup5\n        /* \"#utility.yul\":3679:3718   */\n      add\n        /* \"#utility.yul\":3672:3718   */\n      swap2\n      pop\n        /* \"#utility.yul\":3452:3724   */\n      pop\n        /* \"#utility.yul\":3360:3724   */\n      swap3\n      swap2\n      pop\n      pop\n      jump\t// out\n        /* \"#utility.yul\":3730:4096   */\n    tag_137:\n        /* \"#utility.yul\":3872:3875   */\n      0x00\n        /* \"#utility.yul\":3893:3960   */\n      tag_139\n        /* \"#utility.yul\":3957:3959   */\n      0x16\n        /* \"#utility.yul\":3952:3955   */\n      dup4\n        /* \"#utility.yul\":3893:3960   */\n      tag_132\n      jump\t// in\n    tag_139:\n        /* \"#utility.yul\":3886:3960   */\n      swap2\n      pop\n        /* \"#utility.yul\":3969:4062   */\n      tag_140\n        /* \"#utility.yul\":4058:4061   */\n      dup3\n        /* \"#utility.yul\":3969:4062   */\n      tag_141\n      jump\t// in\n    tag_140:\n        /* \"#utility.yul\":4087:4089   */\n      0x20\n        /* \"#utility.yul\":4082:4085   */\n      dup3\n        /* \"#utility.yul\":4078:4090   */\n      add\n        /* \"#utility.yul\":4071:4090   */\n      swap1\n      pop\n        /* \"#utility.yul\":3730:4096   */\n      swap2\n      swap1\n      pop\n      jump\t// out\n        /* \"#utility.yul\":4102:4468   */\n    tag_142:\n        /* \"#utility.yul\":4244:4247   */\n      0x00\n        /* \"#utility.yul\":4265:4332   */\n      tag_144\n        /* \"#utility.yul\":4329:4331   */\n      0x21\n        /* \"#utility.yul\":4324:4327   */\n      dup4\n        /* \"#utility.yul\":4265:4332   */\n      tag_132\n      jump\t// in\n    tag_144:\n        /* \"#utility.yul\":4258:4332   */\n      swap2\n      pop\n        /* \"#utility.yul\":4341:4434   */\n      tag_145\n        /* \"#utility.yul\":4430:4433   */\n      dup3\n        /* \"#utility.yul\":4341:4434   */\n      tag_146\n      jump\t// in\n    tag_145:\n        /* \"#utility.yul\":4459:4461   */\n      0x40\n        /* \"#utility.yul\":4454:4457   */\n      dup3\n        /* \"#utility.yul\":4450:4462   */\n      add\n        /* \"#utility.yul\":4443:4462   */\n      swap1\n      pop\n        /* \"#utility.yul\":4102:4468   */\n      swap2\n      swap1\n      pop\n      jump\t// out\n        /* \"#utility.yul\":4474:4592   */\n    tag_147:\n        /* \"#utility.yul\":4561:4585   */\n      tag_149\n        /* \"#utility.yul\":4579:4584   */\n      dup2\n        /* \"#utility.yul\":4561:4585   */\n      tag_150\n      jump\t// in\n    tag_149:\n        /* \"#utility.yul\":4556:4559   */\n      dup3\n        /* \"#utility.yul\":4549:4586   */\n      mstore\n        /* \"#utility.yul\":4474:4592   */\n      pop\n      pop\n      jump\t// out\n        /* \"#utility.yul\":4598:4820   */\n    tag_59:\n        /* \"#utility.yul\":4691:4695   */\n      0x00\n        /* \"#utility.yul\":4729:4731   */\n      0x20\n        /* \"#utility.yul\":4718:4727   */\n      dup3\n        /* \"#utility.yul\":4714:4732   */\n      add\n        /* \"#utility.yul\":4706:4732   */\n      swap1\n      pop\n        /* \"#utility.yul\":4742:4813   */\n      tag_152\n        /* \"#utility.yul\":4810:4811   */\n      0x00\n        /* \"#utility.yul\":4799:4808   */\n      dup4\n        /* \"#utility.yul\":4795:4812   */\n      add\n        /* \"#utility.yul\":4786:4792   */\n      dup5\n        /* \"#utility.yul\":4742:4813   */\n      tag_123\n      jump\t// in\n    tag_152:\n        /* \"#utility.yul\":4598:4820   */\n      swap3\n      swap2\n      pop\n      pop\n      jump\t// out\n        /* \"#utility.yul\":4826:5139   */\n    tag_21:\n        /* \"#utility.yul\":4939:4943   */\n      0x00\n        /* \"#utility.yul\":4977:4979   */\n      0x20\n        /* \"#utility.yul\":4966:4975   */\n      dup3\n        /* \"#utility.yul\":4962:4980   */\n      add\n        /* \"#utility.yul\":4954:4980   */\n      swap1\n      pop\n        /* \"#utility.yul\":5026:5035   */\n      dup2\n        /* \"#utility.yul\":5020:5024   */\n      dup2\n        /* \"#utility.yul\":5016:5036   */\n      sub\n        /* \"#utility.yul\":5012:5013   */\n      0x00\n        /* \"#utility.yul\":5001:5010   */\n      dup4\n        /* \"#utility.yul\":4997:5014   */\n      add\n        /* \"#utility.yul\":4990:5037   */\n      mstore\n        /* \"#utility.yul\":5054:5132   */\n      tag_154\n        /* \"#utility.yul\":5127:5131   */\n      dup2\n        /* \"#utility.yul\":5118:5124   */\n      dup5\n        /* \"#utility.yul\":5054:5132   */\n      tag_127\n      jump\t// in\n    tag_154:\n        /* \"#utility.yul\":5046:5132   */\n      swap1\n      pop\n        /* \"#utility.yul\":4826:5139   */\n      swap3\n      swap2\n      pop\n      pop\n      jump\t// out\n        /* \"#utility.yul\":5145:5971   */\n    tag_40:\n        /* \"#utility.yul\":5382:5386   */\n      0x00\n        /* \"#utility.yul\":5420:5423   */\n      0x80\n        /* \"#utility.yul\":5409:5418   */\n      dup3\n        /* \"#utility.yul\":5405:5424   */\n      add\n        /* \"#utility.yul\":5397:5424   */\n      swap1\n      pop\n        /* \"#utility.yul\":5470:5479   */\n      dup2\n        /* \"#utility.yul\":5464:5468   */\n      dup2\n        /* \"#utility.yul\":5460:5480   */\n      sub\n        /* \"#utility.yul\":5456:5457   */\n      0x00\n        /* \"#utility.yul\":5445:5454   */\n      dup4\n        /* \"#utility.yul\":5441:5458   */\n      add\n        /* \"#utility.yul\":5434:5481   */\n      mstore\n        /* \"#utility.yul\":5498:5576   */\n      tag_156\n        /* \"#utility.yul\":5571:5575   */\n      dup2\n        /* \"#utility.yul\":5562:5568   */\n      dup8\n        /* \"#utility.yul\":5498:5576   */\n      tag_127\n      jump\t// in\n    tag_156:\n        /* \"#utility.yul\":5490:5576   */\n      swap1\n      pop\n        /* \"#utility.yul\":5623:5632   */\n      dup2\n        /* \"#utility.yul\":5617:5621   */\n      dup2\n        /* \"#utility.yul\":5613:5633   */\n      sub\n        /* \"#utility.yul\":5608:5610   */\n      0x20\n        /* \"#utility.yul\":5597:5606   */\n      dup4\n        /* \"#utility.yul\":5593:5611   */\n      add\n        /* \"#utility.yul\":5586:5634   */\n      mstore\n        /* \"#utility.yul\":5651:5729   */\n      tag_157\n        /* \"#utility.yul\":5724:5728   */\n      dup2\n        /* \"#utility.yul\":5715:5721   */\n      dup7\n        /* \"#utility.yul\":5651:5729   */\n      tag_127\n      jump\t// in\n    tag_157:\n        /* \"#utility.yul\":5643:5729   */\n      swap1\n      pop\n        /* \"#utility.yul\":5776:5785   */\n      dup2\n        /* \"#utility.yul\":5770:5774   */\n      dup2\n        /* \"#utility.yul\":5766:5786   */\n      sub\n        /* \"#utility.yul\":5761:5763   */\n      0x40\n        /* \"#utility.yul\":5750:5759   */\n      dup4\n        /* \"#utility.yul\":5746:5764   */\n      add\n        /* \"#utility.yul\":5739:5787   */\n      mstore\n        /* \"#utility.yul\":5804:5882   */\n      tag_158\n        /* \"#utility.yul\":5877:5881   */\n      dup2\n        /* \"#utility.yul\":5868:5874   */\n      dup6\n        /* \"#utility.yul\":5804:5882   */\n      tag_127\n      jump\t// in\n    tag_158:\n        /* \"#utility.yul\":5796:5882   */\n      swap1\n      pop\n        /* \"#utility.yul\":5892:5964   */\n      tag_159\n        /* \"#utility.yul\":5960:5962   */\n      0x60\n        /* \"#utility.yul\":5949:5958   */\n      dup4\n        /* \"#utility.yul\":5945:5963   */\n      add\n        /* \"#utility.yul\":5936:5942   */\n      dup5\n        /* \"#utility.yul\":5892:5964   */\n      tag_123\n      jump\t// in\n    tag_159:\n        /* \"#utility.yul\":5145:5971   */\n      swap6\n      swap5\n      pop\n      pop\n      pop\n      pop\n      pop\n      jump\t// out\n        /* \"#utility.yul\":5977:6396   */\n    tag_44:\n        /* \"#utility.yul\":6143:6147   */\n      0x00\n        /* \"#utility.yul\":6181:6183   */\n      0x20\n        /* \"#utility.yul\":6170:6179   */\n      dup3\n        /* \"#utility.yul\":6166:6184   */\n      add\n        /* \"#utility.yul\":6158:6184   */\n      swap1\n      pop\n        /* \"#utility.yul\":6230:6239   */\n      dup2\n        /* \"#utility.yul\":6224:6228   */\n      dup2\n        /* \"#utility.yul\":6220:6240   */\n      sub\n        /* \"#utility.yul\":6216:6217   */\n      0x00\n        /* \"#utility.yul\":6205:6214   */\n      dup4\n        /* \"#utility.yul\":6201:6218   */\n      add\n        /* \"#utility.yul\":6194:6241   */\n      mstore\n        /* \"#utility.yul\":6258:6389   */\n      tag_161\n        /* \"#utility.yul\":6384:6388   */\n      dup2\n        /* \"#utility.yul\":6258:6389   */\n      tag_137\n      jump\t// in\n    tag_161:\n        /* \"#utility.yul\":6250:6389   */\n      swap1\n      pop\n        /* \"#utility.yul\":5977:6396   */\n      swap2\n      swap1\n      pop\n      jump\t// out\n        /* \"#utility.yul\":6402:6821   */\n    tag_32:\n        /* \"#utility.yul\":6568:6572   */\n      0x00\n        /* \"#utility.yul\":6606:6608   */\n      0x20\n        /* \"#utility.yul\":6595:6604   */\n      dup3\n        /* \"#utility.yul\":6591:6609   */\n      add\n        /* \"#utility.yul\":6583:6609   */\n      swap1\n      pop\n        /* \"#utility.yul\":6655:6664   */\n      dup2\n        /* \"#utility.yul\":6649:6653   */\n      dup2\n        /* \"#utility.yul\":6645:6665   */\n      sub\n        /* \"#utility.yul\":6641:6642   */\n      0x00\n        /* \"#utility.yul\":6630:6639   */\n      dup4\n        /* \"#utility.yul\":6626:6643   */\n      add\n        /* \"#utility.yul\":6619:6666   */\n      mstore\n        /* \"#utility.yul\":6683:6814   */\n      tag_163\n        /* \"#utility.yul\":6809:6813   */\n      dup2\n        /* \"#utility.yul\":6683:6814   */\n      tag_142\n      jump\t// in\n    tag_163:\n        /* \"#utility.yul\":6675:6814   */\n      swap1\n      pop\n        /* \"#utility.yul\":6402:6821   */\n      swap2\n      swap1\n      pop\n      jump\t// out\n        /* \"#utility.yul\":6827:7049   */\n    tag_11:\n        /* \"#utility.yul\":6920:6924   */\n      0x00\n        /* \"#utility.yul\":6958:6960   */\n      0x20\n        /* \"#utility.yul\":6947:6956   */\n      dup3\n        /* \"#utility.yul\":6943:6961   */\n      add\n        /* \"#utility.yul\":6935:6961   */\n      swap1\n      pop\n        /* \"#utility.yul\":6971:7042   */\n      tag_165\n        /* \"#utility.yul\":7039:7040   */\n      0x00\n        /* \"#utility.yul\":7028:7037   */\n      dup4\n        /* \"#utility.yul\":7024:7041   */\n      add\n        /* \"#utility.yul\":7015:7021   */\n      dup5\n        /* \"#utility.yul\":6971:7042   */\n      tag_147\n      jump\t// in\n    tag_165:\n        /* \"#utility.yul\":6827:7049   */\n      swap3\n      swap2\n      pop\n      pop\n      jump\t// out\n        /* \"#utility.yul\":7055:7184   */\n    tag_81:\n        /* \"#utility.yul\":7089:7095   */\n      0x00\n        /* \"#utility.yul\":7116:7136   */\n      tag_167\n      tag_168\n      jump\t// in\n    tag_167:\n        /* \"#utility.yul\":7106:7136   */\n      swap1\n      pop\n        /* \"#utility.yul\":7145:7178   */\n      tag_169\n        /* \"#utility.yul\":7173:7177   */\n      dup3\n        /* \"#utility.yul\":7165:7171   */\n      dup3\n        /* \"#utility.yul\":7145:7178   */\n      tag_170\n      jump\t// in\n    tag_169:\n        /* \"#utility.yul\":7055:7184   */\n      swap2\n      swap1\n      pop\n      jump\t// out\n        /* \"#utility.yul\":7190:7265   */\n    tag_168:\n        /* \"#utility.yul\":7223:7229   */\n      0x00\n        /* \"#utility.yul\":7256:7258   */\n      0x40\n        /* \"#utility.yul\":7250:7259   */\n      mload\n        /* \"#utility.yul\":7240:7259   */\n      swap1\n      pop\n        /* \"#utility.yul\":7190:7265   */\n      swap1\n      jump\t// out\n        /* \"#utility.yul\":7271:7579   */\n    tag_80:\n        /* \"#utility.yul\":7333:7337   */\n      0x00\n        /* \"#utility.yul\":7423:7441   */\n      0xffffffffffffffff\n        /* \"#utility.yul\":7415:7421   */\n      dup3\n        /* \"#utility.yul\":7412:7442   */\n      gt\n        /* \"#utility.yul\":7409:7465   */\n      iszero\n      tag_173\n      jumpi\n        /* \"#utility.yul\":7445:7463   */\n      tag_174\n      tag_175\n      jump\t// in\n    tag_174:\n        /* \"#utility.yul\":7409:7465   */\n    tag_173:\n        /* \"#utility.yul\":7483:7512   */\n      tag_176\n        /* \"#utility.yul\":7505:7511   */\n      dup3\n        /* \"#utility.yul\":7483:7512   */\n      tag_136\n      jump\t// in\n    tag_176:\n        /* \"#utility.yul\":7475:7512   */\n      swap1\n      pop\n        /* \"#utility.yul\":7567:7571   */\n      0x20\n        /* \"#utility.yul\":7561:7565   */\n      dup2\n        /* \"#utility.yul\":7557:7572   */\n      add\n        /* \"#utility.yul\":7549:7572   */\n      swap1\n      pop\n        /* \"#utility.yul\":7271:7579   */\n      swap2\n      swap1\n      pop\n      jump\t// out\n        /* \"#utility.yul\":7585:7684   */\n    tag_130:\n        /* \"#utility.yul\":7637:7643   */\n      0x00\n        /* \"#utility.yul\":7671:7676   */\n      dup2\n        /* \"#utility.yul\":7665:7677   */\n      mload\n        /* \"#utility.yul\":7655:7677   */\n      swap1\n      pop\n        /* \"#utility.yul\":7585:7684   */\n      swap2\n      swap1\n      pop\n      jump\t// out\n        /* \"#utility.yul\":7690:7859   */\n    tag_132:\n        /* \"#utility.yul\":7774:7785   */\n      0x00\n        /* \"#utility.yul\":7808:7814   */\n      dup3\n        /* \"#utility.yul\":7803:7806   */\n      dup3\n        /* \"#utility.yul\":7796:7815   */\n      mstore\n        /* \"#utility.yul\":7848:7852   */\n      0x20\n        /* \"#utility.yul\":7843:7846   */\n      dup3\n        /* \"#utility.yul\":7839:7853   */\n      add\n        /* \"#utility.yul\":7824:7853   */\n      swap1\n      pop\n        /* \"#utility.yul\":7690:7859   */\n      swap3\n      swap2\n      pop\n      pop\n      jump\t// out\n        /* \"#utility.yul\":7865:8170   */\n    tag_38:\n        /* \"#utility.yul\":7905:7908   */\n      0x00\n        /* \"#utility.yul\":7924:7944   */\n      tag_180\n        /* \"#utility.yul\":7942:7943   */\n      dup3\n        /* \"#utility.yul\":7924:7944   */\n      tag_150\n      jump\t// in\n    tag_180:\n        /* \"#utility.yul\":7919:7944   */\n      swap2\n      pop\n        /* \"#utility.yul\":7958:7978   */\n      tag_181\n        /* \"#utility.yul\":7976:7977   */\n      dup4\n        /* \"#utility.yul\":7958:7978   */\n      tag_150\n      jump\t// in\n    tag_181:\n        /* \"#utility.yul\":7953:7978   */\n      swap3\n      pop\n        /* \"#utility.yul\":8112:8113   */\n      dup3\n        /* \"#utility.yul\":8044:8110   */\n      0xffffffffffffffffffffffffffffffffffffffffffffffffffffffffffffffff\n        /* \"#utility.yul\":8040:8114   */\n      sub\n        /* \"#utility.yul\":8037:8038   */\n      dup3\n        /* \"#utility.yul\":8034:8115   */\n      gt\n        /* \"#utility.yul\":8031:8138   */\n      iszero\n      tag_182\n      jumpi\n        /* \"#utility.yul\":8118:8136   */\n      tag_183\n      tag_184\n      jump\t// in\n    tag_183:\n        /* \"#utility.yul\":8031:8138   */\n    tag_182:\n        /* \"#utility.yul\":8162:8163   */\n      dup3\n        /* \"#utility.yul\":8159:8160   */\n      dup3\n        /* \"#utility.yul\":8155:8164   */\n      add\n        /* \"#utility.yul\":8148:8164   */\n      swap1\n      pop\n        /* \"#utility.yul\":7865:8170   */\n      swap3\n      swap2\n      pop\n      pop\n      jump\t// out\n        /* \"#utility.yul\":8176:8367   */\n    tag_57:\n        /* \"#utility.yul\":8216:8220   */\n      0x00\n        /* \"#utility.yul\":8236:8256   */\n      tag_186\n        /* \"#utility.yul\":8254:8255   */\n      dup3\n        /* \"#utility.yul\":8236:8256   */\n      tag_150\n      jump\t// in\n    tag_186:\n        /* \"#utility.yul\":8231:8256   */\n      swap2\n      pop\n        /* \"#utility.yul\":8270:8290   */\n      tag_187\n        /* \"#utility.yul\":8288:8289   */\n      dup4\n        /* \"#utility.yul\":8270:8290   */\n      tag_150\n      jump\t// in\n    tag_187:\n        /* \"#utility.yul\":8265:8290   */\n      swap3\n      pop\n        /* \"#utility.yul\":8309:8310   */\n      dup3\n        /* \"#utility.yul\":8306:8307   */\n      dup3\n        /* \"#utility.yul\":8303:8311   */\n      lt\n        /* \"#utility.yul\":8300:8334   */\n      iszero\n      tag_188\n      jumpi\n        /* \"#utility.yul\":8314:8332   */\n      tag_189\n      tag_184\n      jump\t// in\n    tag_189:\n        /* \"#utility.yul\":8300:8334   */\n    tag_188:\n        /* \"#utility.yul\":8359:8360   */\n      dup3\n        /* \"#utility.yul\":8356:8357   */\n      dup3\n        /* \"#utility.yul\":8352:8361   */\n      sub\n        /* \"#utility.yul\":8344:8361   */\n      swap1\n      pop\n        /* \"#utility.yul\":8176:8367   */\n      swap3\n      swap2\n      pop\n      pop\n      jump\t// out\n        /* \"#utility.yul\":8373:8469   */\n    tag_126:\n        /* \"#utility.yul\":8410:8417   */\n      0x00\n        /* \"#utility.yul\":8439:8463   */\n      tag_191\n        /* \"#utility.yul\":8457:8462   */\n      dup3\n        /* \"#utility.yul\":8439:8463   */\n      tag_192\n      jump\t// in\n    tag_191:\n        /* \"#utility.yul\":8428:8463   */\n      swap1\n      pop\n        /* \"#utility.yul\":8373:8469   */\n      swap2\n      swap1\n      pop\n      jump\t// out\n        /* \"#utility.yul\":8475:8601   */\n    tag_192:\n        /* \"#utility.yul\":8512:8519   */\n      0x00\n        /* \"#utility.yul\":8552:8594   */\n      0xffffffffffffffffffffffffffffffffffffffff\n        /* \"#utility.yul\":8545:8550   */\n      dup3\n        /* \"#utility.yul\":8541:8595   */\n      and\n        /* \"#utility.yul\":8530:8595   */\n      swap1\n      pop\n        /* \"#utility.yul\":8475:8601   */\n      swap2\n      swap1\n      pop\n      jump\t// out\n        /* \"#utility.yul\":8607:8684   */\n    tag_150:\n        /* \"#utility.yul\":8644:8651   */\n      0x00\n        /* \"#utility.yul\":8673:8678   */\n      dup2\n        /* \"#utility.yul\":8662:8678   */\n      swap1\n      pop\n        /* \"#utility.yul\":8607:8684   */\n      swap2\n      swap1\n      pop\n      jump\t// out\n        /* \"#utility.yul\":8690:8844   */\n    tag_86:\n        /* \"#utility.yul\":8774:8780   */\n      dup3\n        /* \"#utility.yul\":8769:8772   */\n      dup2\n        /* \"#utility.yul\":8764:8767   */\n      dup4\n        /* \"#utility.yul\":8751:8781   */\n      calldatacopy\n        /* \"#utility.yul\":8836:8837   */\n      0x00\n        /* \"#utility.yul\":8827:8833   */\n      dup4\n        /* \"#utility.yul\":8822:8825   */\n      dup4\n        /* \"#utility.yul\":8818:8834   */\n      add\n        /* \"#utility.yul\":8811:8838   */\n      mstore\n        /* \"#utility.yul\":8690:8844   */\n      pop\n      pop\n      pop\n      jump\t// out\n        /* \"#utility.yul\":8850:9157   */\n    tag_134:\n        /* \"#utility.yul\":8918:8919   */\n      0x00\n        /* \"#utility.yul\":8928:9041   */\n    tag_197:\n        /* \"#utility.yul\":8942:8948   */\n      dup4\n        /* \"#utility.yul\":8939:8940   */\n      dup2\n        /* \"#utility.yul\":8936:8949   */\n      lt\n        /* \"#utility.yul\":8928:9041   */\n      iszero\n      tag_199\n      jumpi\n        /* \"#utility.yul\":9027:9028   */\n      dup1\n        /* \"#utility.yul\":9022:9025   */\n      dup3\n        /* \"#utility.yul\":9018:9029   */\n      add\n        /* \"#utility.yul\":9012:9030   */\n      mload\n        /* \"#utility.yul\":9008:9009   */\n      dup2\n        /* \"#utility.yul\":9003:9006   */\n      dup5\n        /* \"#utility.yul\":8999:9010   */\n      add\n        /* \"#utility.yul\":8992:9031   */\n      mstore\n        /* \"#utility.yul\":8964:8966   */\n      0x20\n        /* \"#utility.yul\":8961:8962   */\n      dup2\n        /* \"#utility.yul\":8957:8967   */\n      add\n        /* \"#utility.yul\":8952:8967   */\n      swap1\n      pop\n        /* \"#utility.yul\":8928:9041   */\n      jump(tag_197)\n    tag_199:\n        /* \"#utility.yul\":9059:9065   */\n      dup4\n        /* \"#utility.yul\":9056:9057   */\n      dup2\n        /* \"#utility.yul\":9053:9066   */\n      gt\n        /* \"#utility.yul\":9050:9151   */\n      iszero\n      tag_200\n      jumpi\n        /* \"#utility.yul\":9139:9140   */\n      0x00\n        /* \"#utility.yul\":9130:9136   */\n      dup5\n        /* \"#utility.yul\":9125:9128   */\n      dup5\n        /* \"#utility.yul\":9121:9137   */\n      add\n        /* \"#utility.yul\":9114:9141   */\n      mstore\n        /* \"#utility.yul\":9050:9151   */\n    tag_200:\n        /* \"#utility.yul\":8899:9157   */\n      pop\n        /* \"#utility.yul\":8850:9157   */\n      pop\n      pop\n      pop\n      jump\t// out\n        /* \"#utility.yul\":9163:9483   */\n    tag_47:\n        /* \"#utility.yul\":9207:9213   */\n      0x00\n        /* \"#utility.yul\":9244:9245   */\n      0x02\n        /* \"#utility.yul\":9238:9242   */\n      dup3\n        /* \"#utility.yul\":9234:9246   */\n      div\n        /* \"#utility.yul\":9224:9246   */\n      swap1\n      pop\n        /* \"#utility.yul\":9291:9292   */\n      0x01\n        /* \"#utility.yul\":9285:9289   */\n      dup3\n        /* \"#utility.yul\":9281:9293   */\n      and\n        /* \"#utility.yul\":9312:9330   */\n      dup1\n        /* \"#utility.yul\":9302:9383   */\n      tag_202\n      jumpi\n        /* \"#utility.yul\":9368:9372   */\n      0x7f\n        /* \"#utility.yul\":9360:9366   */\n      dup3\n        /* \"#utility.yul\":9356:9373   */\n      and\n        /* \"#utility.yul\":9346:9373   */\n      swap2\n      pop\n        /* \"#utility.yul\":9302:9383   */\n    tag_202:\n        /* \"#utility.yul\":9430:9432   */\n      0x20\n        /* \"#utility.yul\":9422:9428   */\n      dup3\n        /* \"#utility.yul\":9419:9433   */\n      lt\n        /* \"#utility.yul\":9399:9417   */\n      dup2\n        /* \"#utility.yul\":9396:9434   */\n      eq\n        /* \"#utility.yul\":9393:9477   */\n      iszero\n      tag_203\n      jumpi\n        /* \"#utility.yul\":9449:9467   */\n      tag_204\n      tag_205\n      jump\t// in\n    tag_204:\n        /* \"#utility.yul\":9393:9477   */\n    tag_203:\n        /* \"#utility.yul\":9214:9483   */\n      pop\n        /* \"#utility.yul\":9163:9483   */\n      swap2\n      swap1\n      pop\n      jump\t// out\n        /* \"#utility.yul\":9489:9770   */\n    tag_170:\n        /* \"#utility.yul\":9572:9599   */\n      tag_207\n        /* \"#utility.yul\":9594:9598   */\n      dup3\n        /* \"#utility.yul\":9572:9599   */\n      tag_136\n      jump\t// in\n    tag_207:\n        /* \"#utility.yul\":9564:9570   */\n      dup2\n        /* \"#utility.yul\":9560:9600   */\n      add\n        /* \"#utility.yul\":9702:9708   */\n      dup2\n        /* \"#utility.yul\":9690:9700   */\n      dup2\n        /* \"#utility.yul\":9687:9709   */\n      lt\n        /* \"#utility.yul\":9666:9684   */\n      0xffffffffffffffff\n        /* \"#utility.yul\":9654:9664   */\n      dup3\n        /* \"#utility.yul\":9651:9685   */\n      gt\n        /* \"#utility.yul\":9648:9710   */\n      or\n        /* \"#utility.yul\":9645:9733   */\n      iszero\n      tag_208\n      jumpi\n        /* \"#utility.yul\":9713:9731   */\n      tag_209\n      tag_175\n      jump\t// in\n    tag_209:\n        /* \"#utility.yul\":9645:9733   */\n    tag_208:\n        /* \"#utility.yul\":9753:9763   */\n      dup1\n        /* \"#utility.yul\":9749:9751   */\n      0x40\n        /* \"#utility.yul\":9742:9764   */\n      mstore\n        /* \"#utility.yul\":9532:9770   */\n      pop\n        /* \"#utility.yul\":9489:9770   */\n      pop\n      pop\n      jump\t// out\n        /* \"#utility.yul\":9776:9956   */\n    tag_184:\n        /* \"#utility.yul\":9824:9901   */\n      0x4e487b7100000000000000000000000000000000000000000000000000000000\n        /* \"#utility.yul\":9821:9822   */\n      0x00\n        /* \"#utility.yul\":9814:9902   */\n      mstore\n        /* \"#utility.yul\":9921:9925   */\n      0x11\n        /* \"#utility.yul\":9918:9919   */\n      0x04\n        /* \"#utility.yul\":9911:9926   */\n      mstore\n        /* \"#utility.yul\":9945:9949   */\n      0x24\n        /* \"#utility.yul\":9942:9943   */\n      0x00\n        /* \"#utility.yul\":9935:9950   */\n      revert\n        /* \"#utility.yul\":9962:10142   */\n    tag_205:\n        /* \"#utility.yul\":10010:10087   */\n      0x4e487b7100000000000000000000000000000000000000000000000000000000\n        /* \"#utility.yul\":10007:10008   */\n      0x00\n        /* \"#utility.yul\":10000:10088   */\n      mstore\n        /* \"#utility.yul\":10107:10111   */\n      0x22\n        /* \"#utility.yul\":10104:10105   */\n      0x04\n        /* \"#utility.yul\":10097:10112   */\n      mstore\n        /* \"#utility.yul\":10131:10135   */\n      0x24\n        /* \"#utility.yul\":10128:10129   */\n      0x00\n        /* \"#utility.yul\":10121:10136   */\n      revert\n        /* \"#utility.yul\":10148:10328   */\n    tag_175:\n        /* \"#utility.yul\":10196:10273   */\n      0x4e487b7100000000000000000000000000000000000000000000000000000000\n        /* \"#utility.yul\":10193:10194   */\n      0x00\n        /* \"#utility.yul\":10186:10274   */\n      mstore\n        /* \"#utility.yul\":10293:10297   */\n      0x41\n        /* \"#utility.yul\":10290:10291   */\n      0x04\n        /* \"#utility.yul\":10283:10298   */\n      mstore\n        /* \"#utility.yul\":10317:10321   */\n      0x24\n        /* \"#utility.yul\":10314:10315   */\n      0x00\n        /* \"#utility.yul\":10307:10322   */\n      revert\n        /* \"#utility.yul\":10334:10451   */\n    tag_95:\n        /* \"#utility.yul\":10443:10444   */\n      0x00\n        /* \"#utility.yul\":10440:10441   */\n      dup1\n        /* \"#utility.yul\":10433:10445   */\n      revert\n        /* \"#utility.yul\":10457:10574   */\n    tag_84:\n        /* \"#utility.yul\":10566:10567   */\n      0x00\n        /* \"#utility.yul\":10563:10564   */\n      dup1\n        /* \"#utility.yul\":10556:10568   */\n      revert\n        /* \"#utility.yul\":10580:10697   */\n    tag_107:\n        /* \"#utility.yul\":10689:10690   */\n      0x00\n        /* \"#utility.yul\":10686:10687   */\n      dup1\n        /* \"#utility.yul\":10679:10691   */\n      revert\n        /* \"#utility.yul\":10703:10820   */\n    tag_100:\n        /* \"#utility.yul\":10812:10813   */\n      0x00\n        /* \"#utility.yul\":10809:10810   */\n      dup1\n        /* \"#utility.yul\":10802:10814   */\n      revert\n        /* \"#utility.yul\":10826:10928   */\n    tag_136:\n        /* \"#utility.yul\":10867:10873   */\n      0x00\n        /* \"#utility.yul\":10918:10920   */\n      0x1f\n        /* \"#utility.yul\":10914:10921   */\n      not\n        /* \"#utility.yul\":10909:10911   */\n      0x1f\n        /* \"#utility.yul\":10902:10907   */\n      dup4\n        /* \"#utility.yul\":10898:10912   */\n      add\n        /* \"#utility.yul\":10894:10922   */\n      and\n        /* \"#utility.yul\":10884:10922   */\n      swap1\n      pop\n        /* \"#utility.yul\":10826:10928   */\n      swap2\n      swap1\n      pop\n      jump\t// out\n        /* \"#utility.yul\":10934:11106   */\n    tag_141:\n        /* \"#utility.yul\":11074:11098   */\n      0x50726f66696c6520646f6573206e6f7420657869737400000000000000000000\n        /* \"#utility.yul\":11070:11071   */\n      0x00\n        /* \"#utility.yul\":11062:11068   */\n      dup3\n        /* \"#utility.yul\":11058:11072   */\n      add\n        /* \"#utility.yul\":11051:11099   */\n      mstore\n        /* \"#utility.yul\":10934:11106   */\n      pop\n      jump\t// out\n        /* \"#utility.yul\":11112:11332   */\n    tag_146:\n        /* \"#utility.yul\":11252:11286   */\n      0x43616e6e6f7420637265617465206d6f7265207468616e20312070726f66696c\n        /* \"#utility.yul\":11248:11249   */\n      0x00\n        /* \"#utility.yul\":11240:11246   */\n      dup3\n        /* \"#utility.yul\":11236:11250   */\n      add\n        /* \"#utility.yul\":11229:11287   */\n      mstore\n        /* \"#utility.yul\":11321:11324   */\n      0x6500000000000000000000000000000000000000000000000000000000000000\n        /* \"#utility.yul\":11316:11318   */\n      0x20\n        /* \"#utility.yul\":11308:11314   */\n      dup3\n        /* \"#utility.yul\":11304:11319   */\n      add\n        /* \"#utility.yul\":11297:11325   */\n      mstore\n        /* \"#utility.yul\":11112:11332   */\n      pop\n      jump\t// out\n        /* \"#utility.yul\":11338:11460   */\n    tag_90:\n        /* \"#utility.yul\":11411:11435   */\n      tag_221\n        /* \"#utility.yul\":11429:11434   */\n      dup2\n        /* \"#utility.yul\":11411:11435   */\n      tag_126\n      jump\t// in\n    tag_221:\n        /* \"#utility.yul\":11404:11409   */\n      dup2\n        /* \"#utility.yul\":11401:11436   */\n      eq\n        /* \"#utility.yul\":11391:11454   */\n      tag_222\n      jumpi\n        /* \"#utility.yul\":11450:11451   */\n      0x00\n        /* \"#utility.yul\":11447:11448   */\n      dup1\n        /* \"#utility.yul\":11440:11452   */\n      revert\n        /* \"#utility.yul\":11391:11454   */\n    tag_222:\n        /* \"#utility.yul\":11338:11460   */\n      pop\n      jump\t// out\n\n    auxdata: 0xa2646970667358221220f33e7d1130a813270bef73ca008a29d6c145d3f4cc3a0fc56fe4e9bf6c8c04c964736f6c63430008070033\n}\n",
				"bytecode": {
					"linkReferences": {},
					"object": "6080604052600060015534801561001557600080fd5b50610e1e806100256000396000f3fe608060405234801561001057600080fd5b50600436106100575760003560e01c8063169134691461005c57806322a9d1bc1461007a5780635fd4b08a14610096578063a0441f29146100c6578063b94864eb146100e2575b600080fd5b6100646100fe565b6040516100719190610aaf565b60405180910390f35b610094600480360381019061008f9190610880565b610104565b005b6100b060048036038101906100ab91906107f7565b610335565b6040516100bd91906109f3565b60405180910390f35b6100e060048036038101906100db91906107f7565b61049f565b005b6100fc60048036038101906100f79190610824565b6105de565b005b60015481565b600015156000808373ffffffffffffffffffffffffffffffffffffffff1673ffffffffffffffffffffffffffffffffffffffff16815260200190815260200160002060030160149054906101000a900460ff16151514610199576040517f08c379a000000000000000000000000000000000000000000000000000000000815260040161019090610a8f565b60405180910390fd5b60006040518060a001604052808681526020018581526020018481526020018373ffffffffffffffffffffffffffffffffffffffff168152602001600115158152509050806000808473ffffffffffffffffffffffffffffffffffffffff1673ffffffffffffffffffffffffffffffffffffffff16815260200190815260200160002060008201518160000190805190602001906102389291906106cf565b5060208201518160010190805190602001906102559291906106cf565b5060408201518160020190805190602001906102729291906106cf565b5060608201518160030160006101000a81548173ffffffffffffffffffffffffffffffffffffffff021916908373ffffffffffffffffffffffffffffffffffffffff16021790555060808201518160030160146101000a81548160ff021916908315150217905550905050600180546102eb9190610b3c565b6001819055507fab9b331051b603353f375206f077385a1677688e31ac29bacfca94ead2f9f624858585856040516103269493929190610a15565b60405180910390a15050505050565b606081600115156000808373ffffffffffffffffffffffffffffffffffffffff1673ffffffffffffffffffffffffffffffffffffffff16815260200190815260200160002060030160149054906101000a900460ff161515146103cd576040517f08c379a00000000000000000000000000000000000000000000000000000000081526004016103c490610a6f565b60405180910390fd5b6000808473ffffffffffffffffffffffffffffffffffffffff1673ffffffffffffffffffffffffffffffffffffffff168152602001908152602001600020600001805461041990610c44565b80601f016020809104026020016040519081016040528092919081815260200182805461044590610c44565b80156104925780601f1061046757610100808354040283529160200191610492565b820191906000526020600020905b81548152906001019060200180831161047557829003601f168201915b5050505050915050919050565b80600115156000808373ffffffffffffffffffffffffffffffffffffffff1673ffffffffffffffffffffffffffffffffffffffff16815260200190815260200160002060030160149054906101000a900460ff16151514610535576040517f08c379a000000000000000000000000000000000000000000000000000000000815260040161052c90610a6f565b60405180910390fd5b60008060008473ffffffffffffffffffffffffffffffffffffffff1673ffffffffffffffffffffffffffffffffffffffff16815260200190815260200160002060030160146101000a81548160ff0219169083151502179055506001805461059d9190610b92565b6001819055507fb3e28db4a27e0be6fecdbb889b7a847c4451545c8158cdec23f4fc29d6756d19826040516105d291906109d8565b60405180910390a15050565b80600115156000808373ffffffffffffffffffffffffffffffffffffffff1673ffffffffffffffffffffffffffffffffffffffff16815260200190815260200160002060030160149054906101000a900460ff16151514610674576040517f08c379a000000000000000000000000000000000000000000000000000000000815260040161066b90610a6f565b60405180910390fd5b826000808473ffffffffffffffffffffffffffffffffffffffff1673ffffffffffffffffffffffffffffffffffffffff16815260200190815260200160002060000190805190602001906106c99291906106cf565b50505050565b8280546106db90610c44565b90600052602060002090601f0160209004810192826106fd5760008555610744565b82601f1061071657805160ff1916838001178555610744565b82800160010185558215610744579182015b82811115610743578251825591602001919060010190610728565b5b5090506107519190610755565b5090565b5b8082111561076e576000816000905550600101610756565b5090565b600061078561078084610aef565b610aca565b9050828152602081018484840111156107a1576107a0610d39565b5b6107ac848285610c02565b509392505050565b6000813590506107c381610dd1565b92915050565b600082601f8301126107de576107dd610d34565b5b81356107ee848260208601610772565b91505092915050565b60006020828403121561080d5761080c610d43565b5b600061081b848285016107b4565b91505092915050565b6000806040838503121561083b5761083a610d43565b5b600083013567ffffffffffffffff81111561085957610858610d3e565b5b610865858286016107c9565b9250506020610876858286016107b4565b9150509250929050565b6000806000806080858703121561089a57610899610d43565b5b600085013567ffffffffffffffff8111156108b8576108b7610d3e565b5b6108c4878288016107c9565b945050602085013567ffffffffffffffff8111156108e5576108e4610d3e565b5b6108f1878288016107c9565b935050604085013567ffffffffffffffff81111561091257610911610d3e565b5b61091e878288016107c9565b925050606061092f878288016107b4565b91505092959194509250565b61094481610bc6565b82525050565b600061095582610b20565b61095f8185610b2b565b935061096f818560208601610c11565b61097881610d48565b840191505092915050565b6000610990601683610b2b565b915061099b82610d59565b602082019050919050565b60006109b3602183610b2b565b91506109be82610d82565b604082019050919050565b6109d281610bf8565b82525050565b60006020820190506109ed600083018461093b565b92915050565b60006020820190508181036000830152610a0d818461094a565b905092915050565b60006080820190508181036000830152610a2f818761094a565b90508181036020830152610a43818661094a565b90508181036040830152610a57818561094a565b9050610a66606083018461093b565b95945050505050565b60006020820190508181036000830152610a8881610983565b9050919050565b60006020820190508181036000830152610aa8816109a6565b9050919050565b6000602082019050610ac460008301846109c9565b92915050565b6000610ad4610ae5565b9050610ae08282610c76565b919050565b6000604051905090565b600067ffffffffffffffff821115610b0a57610b09610d05565b5b610b1382610d48565b9050602081019050919050565b600081519050919050565b600082825260208201905092915050565b6000610b4782610bf8565b9150610b5283610bf8565b9250827fffffffffffffffffffffffffffffffffffffffffffffffffffffffffffffffff03821115610b8757610b86610ca7565b5b828201905092915050565b6000610b9d82610bf8565b9150610ba883610bf8565b925082821015610bbb57610bba610ca7565b5b828203905092915050565b6000610bd182610bd8565b9050919050565b600073ffffffffffffffffffffffffffffffffffffffff82169050919050565b6000819050919050565b82818337600083830152505050565b60005b83811015610c2f578082015181840152602081019050610c14565b83811115610c3e576000848401525b50505050565b60006002820490506001821680610c5c57607f821691505b60208210811415610c7057610c6f610cd6565b5b50919050565b610c7f82610d48565b810181811067ffffffffffffffff82111715610c9e57610c9d610d05565b5b80604052505050565b7f4e487b7100000000000000000000000000000000000000000000000000000000600052601160045260246000fd5b7f4e487b7100000000000000000000000000000000000000000000000000000000600052602260045260246000fd5b7f4e487b7100000000000000000000000000000000000000000000000000000000600052604160045260246000fd5b600080fd5b600080fd5b600080fd5b600080fd5b6000601f19601f8301169050919050565b7f50726f66696c6520646f6573206e6f7420657869737400000000000000000000600082015250565b7f43616e6e6f7420637265617465206d6f7265207468616e20312070726f66696c60008201527f6500000000000000000000000000000000000000000000000000000000000000602082015250565b610dda81610bc6565b8114610de557600080fd5b5056fea2646970667358221220f33e7d1130a813270bef73ca008a29d6c145d3f4cc3a0fc56fe4e9bf6c8c04c964736f6c63430008070033",
					"opcodes": "PUSH1 0x80 PUSH1 0x40 MSTORE PUSH1 0x0 PUSH1 0x1 SSTORE CALLVALUE DUP1 ISZERO PUSH2 0x15 JUMPI PUSH1 0x0 DUP1 REVERT JUMPDEST POP PUSH2 0xE1E DUP1 PUSH2 0x25 PUSH1 0x0 CODECOPY PUSH1 0x0 RETURN INVALID PUSH1 0x80 PUSH1 0x40 MSTORE CALLVALUE DUP1 ISZERO PUSH2 0x10 JUMPI PUSH1 0x0 DUP1 REVERT JUMPDEST POP PUSH1 0x4 CALLDATASIZE LT PUSH2 0x57 JUMPI PUSH1 0x0 CALLDATALOAD PUSH1 0xE0 SHR DUP1 PUSH4 0x16913469 EQ PUSH2 0x5C JUMPI DUP1 PUSH4 0x22A9D1BC EQ PUSH2 0x7A JUMPI DUP1 PUSH4 0x5FD4B08A EQ PUSH2 0x96 JUMPI DUP1 PUSH4 0xA0441F29 EQ PUSH2 0xC6 JUMPI DUP1 PUSH4 0xB94864EB EQ PUSH2 0xE2 JUMPI JUMPDEST PUSH1 0x0 DUP1 REVERT JUMPDEST PUSH2 0x64 PUSH2 0xFE JUMP JUMPDEST PUSH1 0x40 MLOAD PUSH2 0x71 SWAP2 SWAP1 PUSH2 0xAAF JUMP JUMPDEST PUSH1 0x40 MLOAD DUP1 SWAP2 SUB SWAP1 RETURN JUMPDEST PUSH2 0x94 PUSH1 0x4 DUP1 CALLDATASIZE SUB DUP2 ADD SWAP1 PUSH2 0x8F SWAP2 SWAP1 PUSH2 0x880 JUMP JUMPDEST PUSH2 0x104 JUMP JUMPDEST STOP JUMPDEST PUSH2 0xB0 PUSH1 0x4 DUP1 CALLDATASIZE SUB DUP2 ADD SWAP1 PUSH2 0xAB SWAP2 SWAP1 PUSH2 0x7F7 JUMP JUMPDEST PUSH2 0x335 JUMP JUMPDEST PUSH1 0x40 MLOAD PUSH2 0xBD SWAP2 SWAP1 PUSH2 0x9F3 JUMP JUMPDEST PUSH1 0x40 MLOAD DUP1 SWAP2 SUB SWAP1 RETURN JUMPDEST PUSH2 0xE0 PUSH1 0x4 DUP1 CALLDATASIZE SUB DUP2 ADD SWAP1 PUSH2 0xDB SWAP2 SWAP1 PUSH2 0x7F7 JUMP JUMPDEST PUSH2 0x49F JUMP JUMPDEST STOP JUMPDEST PUSH2 0xFC PUSH1 0x4 DUP1 CALLDATASIZE SUB DUP2 ADD SWAP1 PUSH2 0xF7 SWAP2 SWAP1 PUSH2 0x824 JUMP JUMPDEST PUSH2 0x5DE JUMP JUMPDEST STOP JUMPDEST PUSH1 0x1 SLOAD DUP2 JUMP JUMPDEST PUSH1 0x0 ISZERO ISZERO PUSH1 0x0 DUP1 DUP4 PUSH20 0xFFFFFFFFFFFFFFFFFFFFFFFFFFFFFFFFFFFFFFFF AND PUSH20 0xFFFFFFFFFFFFFFFFFFFFFFFFFFFFFFFFFFFFFFFF AND DUP2 MSTORE PUSH1 0x20 ADD SWAP1 DUP2 MSTORE PUSH1 0x20 ADD PUSH1 0x0 KECCAK256 PUSH1 0x3 ADD PUSH1 0x14 SWAP1 SLOAD SWAP1 PUSH2 0x100 EXP SWAP1 DIV PUSH1 0xFF AND ISZERO ISZERO EQ PUSH2 0x199 JUMPI PUSH1 0x40 MLOAD PUSH32 0x8C379A000000000000000000000000000000000000000000000000000000000 DUP2 MSTORE PUSH1 0x4 ADD PUSH2 0x190 SWAP1 PUSH2 0xA8F JUMP JUMPDEST PUSH1 0x40 MLOAD DUP1 SWAP2 SUB SWAP1 REVERT JUMPDEST PUSH1 0x0 PUSH1 0x40 MLOAD DUP1 PUSH1 0xA0 ADD PUSH1 0x40 MSTORE DUP1 DUP7 DUP2 MSTORE PUSH1 0x20 ADD DUP6 DUP2 MSTORE PUSH1 0x20 ADD DUP5 DUP2 MSTORE PUSH1 0x20 ADD DUP4 PUSH20 0xFFFFFFFFFFFFFFFFFFFFFFFFFFFFFFFFFFFFFFFF AND DUP2 MSTORE PUSH1 0x20 ADD PUSH1 0x1 ISZERO ISZERO DUP2 MSTORE POP SWAP1 POP DUP1 PUSH1 0x0 DUP1 DUP5 PUSH20 0xFFFFFFFFFFFFFFFFFFFFFFFFFFFFFFFFFFFFFFFF AND PUSH20 0xFFFFFFFFFFFFFFFFFFFFFFFFFFFFFFFFFFFFFFFF AND DUP2 MSTORE PUSH1 0x20 ADD SWAP1 DUP2 MSTORE PUSH1 0x20 ADD PUSH1 0x0 KECCAK256 PUSH1 0x0 DUP3 ADD MLOAD DUP2 PUSH1 0x0 ADD SWAP1 DUP1 MLOAD SWAP1 PUSH1 0x20 ADD SWAP1 PUSH2 0x238 SWAP3 SWAP2 SWAP1 PUSH2 0x6CF JUMP JUMPDEST POP PUSH1 0x20 DUP3 ADD MLOAD DUP2 PUSH1 0x1 ADD SWAP1 DUP1 MLOAD SWAP1 PUSH1 0x20 ADD SWAP1 PUSH2 0x255 SWAP3 SWAP2 SWAP1 PUSH2 0x6CF JUMP JUMPDEST POP PUSH1 0x40 DUP3 ADD MLOAD DUP2 PUSH1 0x2 ADD SWAP1 DUP1 MLOAD SWAP1 PUSH1 0x20 ADD SWAP1 PUSH2 0x272 SWAP3 SWAP2 SWAP1 PUSH2 0x6CF JUMP JUMPDEST POP PUSH1 0x60 DUP3 ADD MLOAD DUP2 PUSH1 0x3 ADD PUSH1 0x0 PUSH2 0x100 EXP DUP2 SLOAD DUP2 PUSH20 0xFFFFFFFFFFFFFFFFFFFFFFFFFFFFFFFFFFFFFFFF MUL NOT AND SWAP1 DUP4 PUSH20 0xFFFFFFFFFFFFFFFFFFFFFFFFFFFFFFFFFFFFFFFF AND MUL OR SWAP1 SSTORE POP PUSH1 0x80 DUP3 ADD MLOAD DUP2 PUSH1 0x3 ADD PUSH1 0x14 PUSH2 0x100 EXP DUP2 SLOAD DUP2 PUSH1 0xFF MUL NOT AND SWAP1 DUP4 ISZERO ISZERO MUL OR SWAP1 SSTORE POP SWAP1 POP POP PUSH1 0x1 DUP1 SLOAD PUSH2 0x2EB SWAP2 SWAP1 PUSH2 0xB3C JUMP JUMPDEST PUSH1 0x1 DUP2 SWAP1 SSTORE POP PUSH32 0xAB9B331051B603353F375206F077385A1677688E31AC29BACFCA94EAD2F9F624 DUP6 DUP6 DUP6 DUP6 PUSH1 0x40 MLOAD PUSH2 0x326 SWAP5 SWAP4 SWAP3 SWAP2 SWAP1 PUSH2 0xA15 JUMP JUMPDEST PUSH1 0x40 MLOAD DUP1 SWAP2 SUB SWAP1 LOG1 POP POP POP POP POP JUMP JUMPDEST PUSH1 0x60 DUP2 PUSH1 0x1 ISZERO ISZERO PUSH1 0x0 DUP1 DUP4 PUSH20 0xFFFFFFFFFFFFFFFFFFFFFFFFFFFFFFFFFFFFFFFF AND PUSH20 0xFFFFFFFFFFFFFFFFFFFFFFFFFFFFFFFFFFFFFFFF AND DUP2 MSTORE PUSH1 0x20 ADD SWAP1 DUP2 MSTORE PUSH1 0x20 ADD PUSH1 0x0 KECCAK256 PUSH1 0x3 ADD PUSH1 0x14 SWAP1 SLOAD SWAP1 PUSH2 0x100 EXP SWAP1 DIV PUSH1 0xFF AND ISZERO ISZERO EQ PUSH2 0x3CD JUMPI PUSH1 0x40 MLOAD PUSH32 0x8C379A000000000000000000000000000000000000000000000000000000000 DUP2 MSTORE PUSH1 0x4 ADD PUSH2 0x3C4 SWAP1 PUSH2 0xA6F JUMP JUMPDEST PUSH1 0x40 MLOAD DUP1 SWAP2 SUB SWAP1 REVERT JUMPDEST PUSH1 0x0 DUP1 DUP5 PUSH20 0xFFFFFFFFFFFFFFFFFFFFFFFFFFFFFFFFFFFFFFFF AND PUSH20 0xFFFFFFFFFFFFFFFFFFFFFFFFFFFFFFFFFFFFFFFF AND DUP2 MSTORE PUSH1 0x20 ADD SWAP1 DUP2 MSTORE PUSH1 0x20 ADD PUSH1 0x0 KECCAK256 PUSH1 0x0 ADD DUP1 SLOAD PUSH2 0x419 SWAP1 PUSH2 0xC44 JUMP JUMPDEST DUP1 PUSH1 0x1F ADD PUSH1 0x20 DUP1 SWAP2 DIV MUL PUSH1 0x20 ADD PUSH1 0x40 MLOAD SWAP1 DUP2 ADD PUSH1 0x40 MSTORE DUP1 SWAP3 SWAP2 SWAP1 DUP2 DUP2 MSTORE PUSH1 0x20 ADD DUP3 DUP1 SLOAD PUSH2 0x445 SWAP1 PUSH2 0xC44 JUMP JUMPDEST DUP1 ISZERO PUSH2 0x492 JUMPI DUP1 PUSH1 0x1F LT PUSH2 0x467 JUMPI PUSH2 0x100 DUP1 DUP4 SLOAD DIV MUL DUP4 MSTORE SWAP2 PUSH1 0x20 ADD SWAP2 PUSH2 0x492 JUMP JUMPDEST DUP3 ADD SWAP2 SWAP1 PUSH1 0x0 MSTORE PUSH1 0x20 PUSH1 0x0 KECCAK256 SWAP1 JUMPDEST DUP2 SLOAD DUP2 MSTORE SWAP1 PUSH1 0x1 ADD SWAP1 PUSH1 0x20 ADD DUP1 DUP4 GT PUSH2 0x475 JUMPI DUP3 SWAP1 SUB PUSH1 0x1F AND DUP3 ADD SWAP2 JUMPDEST POP POP POP POP POP SWAP2 POP POP SWAP2 SWAP1 POP JUMP JUMPDEST DUP1 PUSH1 0x1 ISZERO ISZERO PUSH1 0x0 DUP1 DUP4 PUSH20 0xFFFFFFFFFFFFFFFFFFFFFFFFFFFFFFFFFFFFFFFF AND PUSH20 0xFFFFFFFFFFFFFFFFFFFFFFFFFFFFFFFFFFFFFFFF AND DUP2 MSTORE PUSH1 0x20 ADD SWAP1 DUP2 MSTORE PUSH1 0x20 ADD PUSH1 0x0 KECCAK256 PUSH1 0x3 ADD PUSH1 0x14 SWAP1 SLOAD SWAP1 PUSH2 0x100 EXP SWAP1 DIV PUSH1 0xFF AND ISZERO ISZERO EQ PUSH2 0x535 JUMPI PUSH1 0x40 MLOAD PUSH32 0x8C379A000000000000000000000000000000000000000000000000000000000 DUP2 MSTORE PUSH1 0x4 ADD PUSH2 0x52C SWAP1 PUSH2 0xA6F JUMP JUMPDEST PUSH1 0x40 MLOAD DUP1 SWAP2 SUB SWAP1 REVERT JUMPDEST PUSH1 0x0 DUP1 PUSH1 0x0 DUP5 PUSH20 0xFFFFFFFFFFFFFFFFFFFFFFFFFFFFFFFFFFFFFFFF AND PUSH20 0xFFFFFFFFFFFFFFFFFFFFFFFFFFFFFFFFFFFFFFFF AND DUP2 MSTORE PUSH1 0x20 ADD SWAP1 DUP2 MSTORE PUSH1 0x20 ADD PUSH1 0x0 KECCAK256 PUSH1 0x3 ADD PUSH1 0x14 PUSH2 0x100 EXP DUP2 SLOAD DUP2 PUSH1 0xFF MUL NOT AND SWAP1 DUP4 ISZERO ISZERO MUL OR SWAP1 SSTORE POP PUSH1 0x1 DUP1 SLOAD PUSH2 0x59D SWAP2 SWAP1 PUSH2 0xB92 JUMP JUMPDEST PUSH1 0x1 DUP2 SWAP1 SSTORE POP PUSH32 0xB3E28DB4A27E0BE6FECDBB889B7A847C4451545C8158CDEC23F4FC29D6756D19 DUP3 PUSH1 0x40 MLOAD PUSH2 0x5D2 SWAP2 SWAP1 PUSH2 0x9D8 JUMP JUMPDEST PUSH1 0x40 MLOAD DUP1 SWAP2 SUB SWAP1 LOG1 POP POP JUMP JUMPDEST DUP1 PUSH1 0x1 ISZERO ISZERO PUSH1 0x0 DUP1 DUP4 PUSH20 0xFFFFFFFFFFFFFFFFFFFFFFFFFFFFFFFFFFFFFFFF AND PUSH20 0xFFFFFFFFFFFFFFFFFFFFFFFFFFFFFFFFFFFFFFFF AND DUP2 MSTORE PUSH1 0x20 ADD SWAP1 DUP2 MSTORE PUSH1 0x20 ADD PUSH1 0x0 KECCAK256 PUSH1 0x3 ADD PUSH1 0x14 SWAP1 SLOAD SWAP1 PUSH2 0x100 EXP SWAP1 DIV PUSH1 0xFF AND ISZERO ISZERO EQ PUSH2 0x674 JUMPI PUSH1 0x40 MLOAD PUSH32 0x8C379A000000000000000000000000000000000000000000000000000000000 DUP2 MSTORE PUSH1 0x4 ADD PUSH2 0x66B SWAP1 PUSH2 0xA6F JUMP JUMPDEST PUSH1 0x40 MLOAD DUP1 SWAP2 SUB SWAP1 REVERT JUMPDEST DUP3 PUSH1 0x0 DUP1 DUP5 PUSH20 0xFFFFFFFFFFFFFFFFFFFFFFFFFFFFFFFFFFFFFFFF AND PUSH20 0xFFFFFFFFFFFFFFFFFFFFFFFFFFFFFFFFFFFFFFFF AND DUP2 MSTORE PUSH1 0x20 ADD SWAP1 DUP2 MSTORE PUSH1 0x20 ADD PUSH1 0x0 KECCAK256 PUSH1 0x0 ADD SWAP1 DUP1 MLOAD SWAP1 PUSH1 0x20 ADD SWAP1 PUSH2 0x6C9 SWAP3 SWAP2 SWAP1 PUSH2 0x6CF JUMP JUMPDEST POP POP POP POP JUMP JUMPDEST DUP3 DUP1 SLOAD PUSH2 0x6DB SWAP1 PUSH2 0xC44 JUMP JUMPDEST SWAP1 PUSH1 0x0 MSTORE PUSH1 0x20 PUSH1 0x0 KECCAK256 SWAP1 PUSH1 0x1F ADD PUSH1 0x20 SWAP1 DIV DUP2 ADD SWAP3 DUP3 PUSH2 0x6FD JUMPI PUSH1 0x0 DUP6 SSTORE PUSH2 0x744 JUMP JUMPDEST DUP3 PUSH1 0x1F LT PUSH2 0x716 JUMPI DUP1 MLOAD PUSH1 0xFF NOT AND DUP4 DUP1 ADD OR DUP6 SSTORE PUSH2 0x744 JUMP JUMPDEST DUP3 DUP1 ADD PUSH1 0x1 ADD DUP6 SSTORE DUP3 ISZERO PUSH2 0x744 JUMPI SWAP2 DUP3 ADD JUMPDEST DUP3 DUP2 GT ISZERO PUSH2 0x743 JUMPI DUP3 MLOAD DUP3 SSTORE SWAP2 PUSH1 0x20 ADD SWAP2 SWAP1 PUSH1 0x1 ADD SWAP1 PUSH2 0x728 JUMP JUMPDEST JUMPDEST POP SWAP1 POP PUSH2 0x751 SWAP2 SWAP1 PUSH2 0x755 JUMP JUMPDEST POP SWAP1 JUMP JUMPDEST JUMPDEST DUP1 DUP3 GT ISZERO PUSH2 0x76E JUMPI PUSH1 0x0 DUP2 PUSH1 0x0 SWAP1 SSTORE POP PUSH1 0x1 ADD PUSH2 0x756 JUMP JUMPDEST POP SWAP1 JUMP JUMPDEST PUSH1 0x0 PUSH2 0x785 PUSH2 0x780 DUP5 PUSH2 0xAEF JUMP JUMPDEST PUSH2 0xACA JUMP JUMPDEST SWAP1 POP DUP3 DUP2 MSTORE PUSH1 0x20 DUP2 ADD DUP5 DUP5 DUP5 ADD GT ISZERO PUSH2 0x7A1 JUMPI PUSH2 0x7A0 PUSH2 0xD39 JUMP JUMPDEST JUMPDEST PUSH2 0x7AC DUP5 DUP3 DUP6 PUSH2 0xC02 JUMP JUMPDEST POP SWAP4 SWAP3 POP POP POP JUMP JUMPDEST PUSH1 0x0 DUP2 CALLDATALOAD SWAP1 POP PUSH2 0x7C3 DUP2 PUSH2 0xDD1 JUMP JUMPDEST SWAP3 SWAP2 POP POP JUMP JUMPDEST PUSH1 0x0 DUP3 PUSH1 0x1F DUP4 ADD SLT PUSH2 0x7DE JUMPI PUSH2 0x7DD PUSH2 0xD34 JUMP JUMPDEST JUMPDEST DUP2 CALLDATALOAD PUSH2 0x7EE DUP5 DUP3 PUSH1 0x20 DUP7 ADD PUSH2 0x772 JUMP JUMPDEST SWAP2 POP POP SWAP3 SWAP2 POP POP JUMP JUMPDEST PUSH1 0x0 PUSH1 0x20 DUP3 DUP5 SUB SLT ISZERO PUSH2 0x80D JUMPI PUSH2 0x80C PUSH2 0xD43 JUMP JUMPDEST JUMPDEST PUSH1 0x0 PUSH2 0x81B DUP5 DUP3 DUP6 ADD PUSH2 0x7B4 JUMP JUMPDEST SWAP2 POP POP SWAP3 SWAP2 POP POP JUMP JUMPDEST PUSH1 0x0 DUP1 PUSH1 0x40 DUP4 DUP6 SUB SLT ISZERO PUSH2 0x83B JUMPI PUSH2 0x83A PUSH2 0xD43 JUMP JUMPDEST JUMPDEST PUSH1 0x0 DUP4 ADD CALLDATALOAD PUSH8 0xFFFFFFFFFFFFFFFF DUP2 GT ISZERO PUSH2 0x859 JUMPI PUSH2 0x858 PUSH2 0xD3E JUMP JUMPDEST JUMPDEST PUSH2 0x865 DUP6 DUP3 DUP7 ADD PUSH2 0x7C9 JUMP JUMPDEST SWAP3 POP POP PUSH1 0x20 PUSH2 0x876 DUP6 DUP3 DUP7 ADD PUSH2 0x7B4 JUMP JUMPDEST SWAP2 POP POP SWAP3 POP SWAP3 SWAP1 POP JUMP JUMPDEST PUSH1 0x0 DUP1 PUSH1 0x0 DUP1 PUSH1 0x80 DUP6 DUP8 SUB SLT ISZERO PUSH2 0x89A JUMPI PUSH2 0x899 PUSH2 0xD43 JUMP JUMPDEST JUMPDEST PUSH1 0x0 DUP6 ADD CALLDATALOAD PUSH8 0xFFFFFFFFFFFFFFFF DUP2 GT ISZERO PUSH2 0x8B8 JUMPI PUSH2 0x8B7 PUSH2 0xD3E JUMP JUMPDEST JUMPDEST PUSH2 0x8C4 DUP8 DUP3 DUP9 ADD PUSH2 0x7C9 JUMP JUMPDEST SWAP5 POP POP PUSH1 0x20 DUP6 ADD CALLDATALOAD PUSH8 0xFFFFFFFFFFFFFFFF DUP2 GT ISZERO PUSH2 0x8E5 JUMPI PUSH2 0x8E4 PUSH2 0xD3E JUMP JUMPDEST JUMPDEST PUSH2 0x8F1 DUP8 DUP3 DUP9 ADD PUSH2 0x7C9 JUMP JUMPDEST SWAP4 POP POP PUSH1 0x40 DUP6 ADD CALLDATALOAD PUSH8 0xFFFFFFFFFFFFFFFF DUP2 GT ISZERO PUSH2 0x912 JUMPI PUSH2 0x911 PUSH2 0xD3E JUMP JUMPDEST JUMPDEST PUSH2 0x91E DUP8 DUP3 DUP9 ADD PUSH2 0x7C9 JUMP JUMPDEST SWAP3 POP POP PUSH1 0x60 PUSH2 0x92F DUP8 DUP3 DUP9 ADD PUSH2 0x7B4 JUMP JUMPDEST SWAP2 POP POP SWAP3 SWAP6 SWAP2 SWAP5 POP SWAP3 POP JUMP JUMPDEST PUSH2 0x944 DUP2 PUSH2 0xBC6 JUMP JUMPDEST DUP3 MSTORE POP POP JUMP JUMPDEST PUSH1 0x0 PUSH2 0x955 DUP3 PUSH2 0xB20 JUMP JUMPDEST PUSH2 0x95F DUP2 DUP6 PUSH2 0xB2B JUMP JUMPDEST SWAP4 POP PUSH2 0x96F DUP2 DUP6 PUSH1 0x20 DUP7 ADD PUSH2 0xC11 JUMP JUMPDEST PUSH2 0x978 DUP2 PUSH2 0xD48 JUMP JUMPDEST DUP5 ADD SWAP2 POP POP SWAP3 SWAP2 POP POP JUMP JUMPDEST PUSH1 0x0 PUSH2 0x990 PUSH1 0x16 DUP4 PUSH2 0xB2B JUMP JUMPDEST SWAP2 POP PUSH2 0x99B DUP3 PUSH2 0xD59 JUMP JUMPDEST PUSH1 0x20 DUP3 ADD SWAP1 POP SWAP2 SWAP1 POP JUMP JUMPDEST PUSH1 0x0 PUSH2 0x9B3 PUSH1 0x21 DUP4 PUSH2 0xB2B JUMP JUMPDEST SWAP2 POP PUSH2 0x9BE DUP3 PUSH2 0xD82 JUMP JUMPDEST PUSH1 0x40 DUP3 ADD SWAP1 POP SWAP2 SWAP1 POP JUMP JUMPDEST PUSH2 0x9D2 DUP2 PUSH2 0xBF8 JUMP JUMPDEST DUP3 MSTORE POP POP JUMP JUMPDEST PUSH1 0x0 PUSH1 0x20 DUP3 ADD SWAP1 POP PUSH2 0x9ED PUSH1 0x0 DUP4 ADD DUP5 PUSH2 0x93B JUMP JUMPDEST SWAP3 SWAP2 POP POP JUMP JUMPDEST PUSH1 0x0 PUSH1 0x20 DUP3 ADD SWAP1 POP DUP2 DUP2 SUB PUSH1 0x0 DUP4 ADD MSTORE PUSH2 0xA0D DUP2 DUP5 PUSH2 0x94A JUMP JUMPDEST SWAP1 POP SWAP3 SWAP2 POP POP JUMP JUMPDEST PUSH1 0x0 PUSH1 0x80 DUP3 ADD SWAP1 POP DUP2 DUP2 SUB PUSH1 0x0 DUP4 ADD MSTORE PUSH2 0xA2F DUP2 DUP8 PUSH2 0x94A JUMP JUMPDEST SWAP1 POP DUP2 DUP2 SUB PUSH1 0x20 DUP4 ADD MSTORE PUSH2 0xA43 DUP2 DUP7 PUSH2 0x94A JUMP JUMPDEST SWAP1 POP DUP2 DUP2 SUB PUSH1 0x40 DUP4 ADD MSTORE PUSH2 0xA57 DUP2 DUP6 PUSH2 0x94A JUMP JUMPDEST SWAP1 POP PUSH2 0xA66 PUSH1 0x60 DUP4 ADD DUP5 PUSH2 0x93B JUMP JUMPDEST SWAP6 SWAP5 POP POP POP POP POP JUMP JUMPDEST PUSH1 0x0 PUSH1 0x20 DUP3 ADD SWAP1 POP DUP2 DUP2 SUB PUSH1 0x0 DUP4 ADD MSTORE PUSH2 0xA88 DUP2 PUSH2 0x983 JUMP JUMPDEST SWAP1 POP SWAP2 SWAP1 POP JUMP JUMPDEST PUSH1 0x0 PUSH1 0x20 DUP3 ADD SWAP1 POP DUP2 DUP2 SUB PUSH1 0x0 DUP4 ADD MSTORE PUSH2 0xAA8 DUP2 PUSH2 0x9A6 JUMP JUMPDEST SWAP1 POP SWAP2 SWAP1 POP JUMP JUMPDEST PUSH1 0x0 PUSH1 0x20 DUP3 ADD SWAP1 POP PUSH2 0xAC4 PUSH1 0x0 DUP4 ADD DUP5 PUSH2 0x9C9 JUMP JUMPDEST SWAP3 SWAP2 POP POP JUMP JUMPDEST PUSH1 0x0 PUSH2 0xAD4 PUSH2 0xAE5 JUMP JUMPDEST SWAP1 POP PUSH2 0xAE0 DUP3 DUP3 PUSH2 0xC76 JUMP JUMPDEST SWAP2 SWAP1 POP JUMP JUMPDEST PUSH1 0x0 PUSH1 0x40 MLOAD SWAP1 POP SWAP1 JUMP JUMPDEST PUSH1 0x0 PUSH8 0xFFFFFFFFFFFFFFFF DUP3 GT ISZERO PUSH2 0xB0A JUMPI PUSH2 0xB09 PUSH2 0xD05 JUMP JUMPDEST JUMPDEST PUSH2 0xB13 DUP3 PUSH2 0xD48 JUMP JUMPDEST SWAP1 POP PUSH1 0x20 DUP2 ADD SWAP1 POP SWAP2 SWAP1 POP JUMP JUMPDEST PUSH1 0x0 DUP2 MLOAD SWAP1 POP SWAP2 SWAP1 POP JUMP JUMPDEST PUSH1 0x0 DUP3 DUP3 MSTORE PUSH1 0x20 DUP3 ADD SWAP1 POP SWAP3 SWAP2 POP POP JUMP JUMPDEST PUSH1 0x0 PUSH2 0xB47 DUP3 PUSH2 0xBF8 JUMP JUMPDEST SWAP2 POP PUSH2 0xB52 DUP4 PUSH2 0xBF8 JUMP JUMPDEST SWAP3 POP DUP3 PUSH32 0xFFFFFFFFFFFFFFFFFFFFFFFFFFFFFFFFFFFFFFFFFFFFFFFFFFFFFFFFFFFFFFFF SUB DUP3 GT ISZERO PUSH2 0xB87 JUMPI PUSH2 0xB86 PUSH2 0xCA7 JUMP JUMPDEST JUMPDEST DUP3 DUP3 ADD SWAP1 POP SWAP3 SWAP2 POP POP JUMP JUMPDEST PUSH1 0x0 PUSH2 0xB9D DUP3 PUSH2 0xBF8 JUMP JUMPDEST SWAP2 POP PUSH2 0xBA8 DUP4 PUSH2 0xBF8 JUMP JUMPDEST SWAP3 POP DUP3 DUP3 LT ISZERO PUSH2 0xBBB JUMPI PUSH2 0xBBA PUSH2 0xCA7 JUMP JUMPDEST JUMPDEST DUP3 DUP3 SUB SWAP1 POP SWAP3 SWAP2 POP POP JUMP JUMPDEST PUSH1 0x0 PUSH2 0xBD1 DUP3 PUSH2 0xBD8 JUMP JUMPDEST SWAP1 POP SWAP2 SWAP1 POP JUMP JUMPDEST PUSH1 0x0 PUSH20 0xFFFFFFFFFFFFFFFFFFFFFFFFFFFFFFFFFFFFFFFF DUP3 AND SWAP1 POP SWAP2 SWAP1 POP JUMP JUMPDEST PUSH1 0x0 DUP2 SWAP1 POP SWAP2 SWAP1 POP JUMP JUMPDEST DUP3 DUP2 DUP4 CALLDATACOPY PUSH1 0x0 DUP4 DUP4 ADD MSTORE POP POP POP JUMP JUMPDEST PUSH1 0x0 JUMPDEST DUP4 DUP2 LT ISZERO PUSH2 0xC2F JUMPI DUP1 DUP3 ADD MLOAD DUP2 DUP5 ADD MSTORE PUSH1 0x20 DUP2 ADD SWAP1 POP PUSH2 0xC14 JUMP JUMPDEST DUP4 DUP2 GT ISZERO PUSH2 0xC3E JUMPI PUSH1 0x0 DUP5 DUP5 ADD MSTORE JUMPDEST POP POP POP POP JUMP JUMPDEST PUSH1 0x0 PUSH1 0x2 DUP3 DIV SWAP1 POP PUSH1 0x1 DUP3 AND DUP1 PUSH2 0xC5C JUMPI PUSH1 0x7F DUP3 AND SWAP2 POP JUMPDEST PUSH1 0x20 DUP3 LT DUP2 EQ ISZERO PUSH2 0xC70 JUMPI PUSH2 0xC6F PUSH2 0xCD6 JUMP JUMPDEST JUMPDEST POP SWAP2 SWAP1 POP JUMP JUMPDEST PUSH2 0xC7F DUP3 PUSH2 0xD48 JUMP JUMPDEST DUP2 ADD DUP2 DUP2 LT PUSH8 0xFFFFFFFFFFFFFFFF DUP3 GT OR ISZERO PUSH2 0xC9E JUMPI PUSH2 0xC9D PUSH2 0xD05 JUMP JUMPDEST JUMPDEST DUP1 PUSH1 0x40 MSTORE POP POP POP JUMP JUMPDEST PUSH32 0x4E487B7100000000000000000000000000000000000000000000000000000000 PUSH1 0x0 MSTORE PUSH1 0x11 PUSH1 0x4 MSTORE PUSH1 0x24 PUSH1 0x0 REVERT JUMPDEST PUSH32 0x4E487B7100000000000000000000000000000000000000000000000000000000 PUSH1 0x0 MSTORE PUSH1 0x22 PUSH1 0x4 MSTORE PUSH1 0x24 PUSH1 0x0 REVERT JUMPDEST PUSH32 0x4E487B7100000000000000000000000000000000000000000000000000000000 PUSH1 0x0 MSTORE PUSH1 0x41 PUSH1 0x4 MSTORE PUSH1 0x24 PUSH1 0x0 REVERT JUMPDEST PUSH1 0x0 DUP1 REVERT JUMPDEST PUSH1 0x0 DUP1 REVERT JUMPDEST PUSH1 0x0 DUP1 REVERT JUMPDEST PUSH1 0x0 DUP1 REVERT JUMPDEST PUSH1 0x0 PUSH1 0x1F NOT PUSH1 0x1F DUP4 ADD AND SWAP1 POP SWAP2 SWAP1 POP JUMP JUMPDEST PUSH32 0x50726F66696C6520646F6573206E6F7420657869737400000000000000000000 PUSH1 0x0 DUP3 ADD MSTORE POP JUMP JUMPDEST PUSH32 0x43616E6E6F7420637265617465206D6F7265207468616E20312070726F66696C PUSH1 0x0 DUP3 ADD MSTORE PUSH32 0x6500000000000000000000000000000000000000000000000000000000000000 PUSH1 0x20 DUP3 ADD MSTORE POP JUMP JUMPDEST PUSH2 0xDDA DUP2 PUSH2 0xBC6 JUMP JUMPDEST DUP2 EQ PUSH2 0xDE5 JUMPI PUSH1 0x0 DUP1 REVERT JUMPDEST POP JUMP INVALID LOG2 PUSH5 0x6970667358 0x22 SLT KECCAK256 RETURN RETURNDATACOPY PUSH30 0x1130A813270BEF73CA008A29D6C145D3F4CC3A0FC56FE4E9BF6C8C04C964 PUSH20 0x6F6C634300080700330000000000000000000000 "
				},
				"gasEstimates": {
					"creation": {
						"codeDepositCost": "722800",
						"executionCost": "5759",
						"totalCost": "728559"
					},
					"external": {
						"createProfile(string,string,string,address)": "infinite",
						"deleteProfile(address)": "infinite",
						"getName(address)": "infinite",
						"numProfile()": "2407",
						"updateProfileName(string,address)": "infinite"
					}
				},
				"methodIdentifiers": {
					"createProfile(string,string,string,address)": "22a9d1bc",
					"deleteProfile(address)": "a0441f29",
					"getName(address)": "5fd4b08a",
					"numProfile()": "16913469",
					"updateProfileName(string,address)": "b94864eb"
				}
			},
			"userdoc": {
				"kind": "user",
				"methods": {},
				"version": 1
			}
		}
	}
}