{
	"contracts/Conflict.sol": {
		"Conflict": {
			"abi": [
				{
					"anonymous": false,
					"inputs": [
						{
							"indexed": false,
							"internalType": "uint256",
							"name": "projectNumber",
							"type": "uint256"
						},
						{
							"indexed": false,
							"internalType": "uint256",
							"name": "serviceNumber",
							"type": "uint256"
						},
						{
							"indexed": false,
							"internalType": "uint256",
							"name": "milestoneNumber",
							"type": "uint256"
						},
						{
							"indexed": false,
							"internalType": "address",
							"name": "serviceRequester",
							"type": "address"
						},
						{
							"indexed": false,
							"internalType": "address",
							"name": "serviceProvider",
							"type": "address"
						},
						{
							"indexed": false,
							"internalType": "uint256",
							"name": "totalVoters",
							"type": "uint256"
						}
					],
					"name": "conflictCreated",
					"type": "event"
				},
				{
					"anonymous": false,
					"inputs": [
						{
							"indexed": false,
							"internalType": "uint256",
							"name": "projectNumber",
							"type": "uint256"
						},
						{
							"indexed": false,
							"internalType": "uint256",
							"name": "serviceNumber",
							"type": "uint256"
						},
						{
							"indexed": false,
							"internalType": "uint256",
							"name": "milestoneNumber",
							"type": "uint256"
						},
						{
							"indexed": false,
							"internalType": "address",
							"name": "serviceProvider",
							"type": "address"
						}
					],
					"name": "conflictRaised",
					"type": "event"
				},
				{
					"anonymous": false,
					"inputs": [
						{
							"indexed": false,
							"internalType": "uint256",
							"name": "projectNumber",
							"type": "uint256"
						},
						{
							"indexed": false,
							"internalType": "uint256",
							"name": "serviceNumber",
							"type": "uint256"
						},
						{
							"indexed": false,
							"internalType": "uint256",
							"name": "milestoneNumber",
							"type": "uint256"
						},
						{
							"indexed": false,
							"internalType": "uint8",
							"name": "result",
							"type": "uint8"
						}
					],
					"name": "conflictResult",
					"type": "event"
				},
				{
					"anonymous": false,
					"inputs": [
						{
							"indexed": false,
							"internalType": "uint256",
							"name": "projectNumber",
							"type": "uint256"
						},
						{
							"indexed": false,
							"internalType": "uint256",
							"name": "serviceNumber",
							"type": "uint256"
						},
						{
							"indexed": false,
							"internalType": "uint256",
							"name": "milestoneNumber",
							"type": "uint256"
						},
						{
							"indexed": false,
							"internalType": "address",
							"name": "voter",
							"type": "address"
						},
						{
							"indexed": false,
							"internalType": "uint8",
							"name": "vote",
							"type": "uint8"
						}
					],
					"name": "conflictVoted",
					"type": "event"
				},
				{
					"inputs": [
						{
							"internalType": "uint256",
							"name": "projectNumber",
							"type": "uint256"
						},
						{
							"internalType": "uint256",
							"name": "serviceNumber",
							"type": "uint256"
						},
						{
							"internalType": "uint256",
							"name": "milestoneNumber",
							"type": "uint256"
						},
						{
							"internalType": "address",
							"name": "serviceRequester",
							"type": "address"
						},
						{
							"internalType": "address",
							"name": "serviceProvider",
							"type": "address"
						},
						{
							"internalType": "uint256",
							"name": "totalVoters",
							"type": "uint256"
						}
					],
					"name": "createConflict",
					"outputs": [],
					"stateMutability": "nonpayable",
					"type": "function"
				},
				{
					"inputs": [
						{
							"internalType": "uint256",
							"name": "projectNumber",
							"type": "uint256"
						},
						{
							"internalType": "uint256",
							"name": "serviceNumber",
							"type": "uint256"
						},
						{
							"internalType": "uint256",
							"name": "milestoneNumber",
							"type": "uint256"
						}
					],
					"name": "getConflictStatus",
					"outputs": [
						{
							"internalType": "enum Conflict.ConflictStatus",
							"name": "",
							"type": "uint8"
						}
					],
					"stateMutability": "view",
					"type": "function"
				},
				{
					"inputs": [
						{
							"internalType": "uint256",
							"name": "projectNumber",
							"type": "uint256"
						},
						{
							"internalType": "uint256",
							"name": "serviceNumber",
							"type": "uint256"
						},
						{
							"internalType": "uint256",
							"name": "milestoneNumber",
							"type": "uint256"
						}
					],
					"name": "getResults",
					"outputs": [
						{
							"internalType": "uint256",
							"name": "",
							"type": "uint256"
						}
					],
					"stateMutability": "view",
					"type": "function"
				},
				{
					"inputs": [
						{
							"internalType": "uint256",
							"name": "projectNumber",
							"type": "uint256"
						},
						{
							"internalType": "uint256",
							"name": "serviceNumber",
							"type": "uint256"
						},
						{
							"internalType": "uint256",
							"name": "milestoneNumber",
							"type": "uint256"
						}
					],
					"name": "getVotesCollected",
					"outputs": [
						{
							"internalType": "uint256",
							"name": "",
							"type": "uint256"
						}
					],
					"stateMutability": "view",
					"type": "function"
				},
				{
					"inputs": [
						{
							"internalType": "uint256",
							"name": "projectNumber",
							"type": "uint256"
						},
						{
							"internalType": "uint256",
							"name": "serviceNumber",
							"type": "uint256"
						},
						{
							"internalType": "uint256",
							"name": "milestoneNumber",
							"type": "uint256"
						}
					],
					"name": "getVotesforProvider",
					"outputs": [
						{
							"internalType": "uint256",
							"name": "",
							"type": "uint256"
						}
					],
					"stateMutability": "view",
					"type": "function"
				},
				{
					"inputs": [
						{
							"internalType": "uint256",
							"name": "projectNumber",
							"type": "uint256"
						},
						{
							"internalType": "uint256",
							"name": "serviceNumber",
							"type": "uint256"
						},
						{
							"internalType": "uint256",
							"name": "milestoneNumber",
							"type": "uint256"
						}
					],
					"name": "getVotesforRequester",
					"outputs": [
						{
							"internalType": "uint256",
							"name": "",
							"type": "uint256"
						}
					],
					"stateMutability": "view",
					"type": "function"
				},
				{
					"inputs": [
						{
							"internalType": "uint256",
							"name": "projectNumber",
							"type": "uint256"
						},
						{
							"internalType": "uint256",
							"name": "serviceNumber",
							"type": "uint256"
						},
						{
							"internalType": "uint256",
							"name": "milestoneNumber",
							"type": "uint256"
						},
						{
							"internalType": "uint8",
							"name": "vote",
							"type": "uint8"
						}
					],
					"name": "voteConflict",
					"outputs": [],
					"stateMutability": "nonpayable",
					"type": "function"
				}
			],
			"devdoc": {
				"kind": "dev",
				"methods": {},
				"version": 1
			},
			"evm": {
				"assembly": "    /* \"contracts/Conflict.sol\":156:5772  contract Conflict {... */\n  mstore(0x40, 0x80)\n  callvalue\n  dup1\n  iszero\n  tag_1\n  jumpi\n  0x00\n  dup1\n  revert\ntag_1:\n  pop\n  dataSize(sub_0)\n  dup1\n  dataOffset(sub_0)\n  0x00\n  codecopy\n  0x00\n  return\nstop\n\nsub_0: assembly {\n        /* \"contracts/Conflict.sol\":156:5772  contract Conflict {... */\n      mstore(0x40, 0x80)\n      callvalue\n      dup1\n      iszero\n      tag_1\n      jumpi\n      0x00\n      dup1\n      revert\n    tag_1:\n      pop\n      jumpi(tag_2, lt(calldatasize, 0x04))\n      shr(0xe0, calldataload(0x00))\n      dup1\n      0x71606fb0\n      gt\n      tag_10\n      jumpi\n      dup1\n      0x71606fb0\n      eq\n      tag_6\n      jumpi\n      dup1\n      0x9ac78879\n      eq\n      tag_7\n      jumpi\n      dup1\n      0xcb4389ce\n      eq\n      tag_8\n      jumpi\n      dup1\n      0xe3d87718\n      eq\n      tag_9\n      jumpi\n      jump(tag_2)\n    tag_10:\n      dup1\n      0x0366cef2\n      eq\n      tag_3\n      jumpi\n      dup1\n      0x153d0194\n      eq\n      tag_4\n      jumpi\n      dup1\n      0x3c45fe31\n      eq\n      tag_5\n      jumpi\n    tag_2:\n      0x00\n      dup1\n      revert\n        /* \"contracts/Conflict.sol\":4218:4842  function getResults(uint256 projectNumber, uint256 serviceNumber, uint256 milestoneNumber) public view returns (uint) {... */\n    tag_3:\n      tag_11\n      0x04\n      dup1\n      calldatasize\n      sub\n      dup2\n      add\n      swap1\n      tag_12\n      swap2\n      swap1\n      tag_13\n      jump\t// in\n    tag_12:\n      tag_14\n      jump\t// in\n    tag_11:\n      mload(0x40)\n      tag_15\n      swap2\n      swap1\n      tag_16\n      jump\t// in\n    tag_15:\n      mload(0x40)\n      dup1\n      swap2\n      sub\n      swap1\n      return\n        /* \"contracts/Conflict.sol\":2550:4180  function voteConflict(uint256 projectNumber, uint256 serviceNumber, uint256 milestoneNumber, uint8 vote) public {... */\n    tag_4:\n      tag_17\n      0x04\n      dup1\n      calldatasize\n      sub\n      dup2\n      add\n      swap1\n      tag_18\n      swap2\n      swap1\n      tag_19\n      jump\t// in\n    tag_18:\n      tag_20\n      jump\t// in\n    tag_17:\n      stop\n        /* \"contracts/Conflict.sol\":5084:5307  function getVotesCollected(uint256 projectNumber, uint256 serviceNumber, uint256 milestoneNumber) public view returns (uint256) {... */\n    tag_5:\n      tag_21\n      0x04\n      dup1\n      calldatasize\n      sub\n      dup2\n      add\n      swap1\n      tag_22\n      swap2\n      swap1\n      tag_13\n      jump\t// in\n    tag_22:\n      tag_23\n      jump\t// in\n    tag_21:\n      mload(0x40)\n      tag_24\n      swap2\n      swap1\n      tag_16\n      jump\t// in\n    tag_24:\n      mload(0x40)\n      dup1\n      swap2\n      sub\n      swap1\n      return\n        /* \"contracts/Conflict.sol\":1366:2544  function createConflict(uint256 projectNumber, uint256 serviceNumber, uint256 milestoneNumber, address serviceRequester, address serviceProvider,  uint256 totalVoters) public {... */\n    tag_6:\n      tag_25\n      0x04\n      dup1\n      calldatasize\n      sub\n      dup2\n      add\n      swap1\n      tag_26\n      swap2\n      swap1\n      tag_27\n      jump\t// in\n    tag_26:\n      tag_28\n      jump\t// in\n    tag_25:\n      stop\n        /* \"contracts/Conflict.sol\":5545:5769  function getVotesforProvider(uint256 projectNumber, uint256 serviceNumber, uint256 milestoneNumber) public view returns (uint256) {... */\n    tag_7:\n      tag_29\n      0x04\n      dup1\n      calldatasize\n      sub\n      dup2\n      add\n      swap1\n      tag_30\n      swap2\n      swap1\n      tag_13\n      jump\t// in\n    tag_30:\n      tag_31\n      jump\t// in\n    tag_29:\n      mload(0x40)\n      tag_32\n      swap2\n      swap1\n      tag_16\n      jump\t// in\n    tag_32:\n      mload(0x40)\n      dup1\n      swap2\n      sub\n      swap1\n      return\n        /* \"contracts/Conflict.sol\":4848:5078  function getConflictStatus(uint256 projectNumber, uint256 serviceNumber, uint256 milestoneNumber) public view returns (ConflictStatus) {... */\n    tag_8:\n      tag_33\n      0x04\n      dup1\n      calldatasize\n      sub\n      dup2\n      add\n      swap1\n      tag_34\n      swap2\n      swap1\n      tag_13\n      jump\t// in\n    tag_34:\n      tag_35\n      jump\t// in\n    tag_33:\n      mload(0x40)\n      tag_36\n      swap2\n      swap1\n      tag_37\n      jump\t// in\n    tag_36:\n      mload(0x40)\n      dup1\n      swap2\n      sub\n      swap1\n      return\n        /* \"contracts/Conflict.sol\":5313:5539  function getVotesforRequester(uint256 projectNumber, uint256 serviceNumber, uint256 milestoneNumber) public view returns (uint256) {... */\n    tag_9:\n      tag_38\n      0x04\n      dup1\n      calldatasize\n      sub\n      dup2\n      add\n      swap1\n      tag_39\n      swap2\n      swap1\n      tag_13\n      jump\t// in\n    tag_39:\n      tag_40\n      jump\t// in\n    tag_38:\n      mload(0x40)\n      tag_41\n      swap2\n      swap1\n      tag_16\n      jump\t// in\n    tag_41:\n      mload(0x40)\n      dup1\n      swap2\n      sub\n      swap1\n      return\n        /* \"contracts/Conflict.sol\":4218:4842  function getResults(uint256 projectNumber, uint256 serviceNumber, uint256 milestoneNumber) public view returns (uint) {... */\n    tag_14:\n        /* \"contracts/Conflict.sol\":4330:4334  uint */\n      0x00\n        /* \"contracts/Conflict.sol\":4429:4438  conflicts */\n      dup1\n        /* \"contracts/Conflict.sol\":4429:4453  conflicts[projectNumber] */\n      0x00\n        /* \"contracts/Conflict.sol\":4439:4452  projectNumber */\n      dup6\n        /* \"contracts/Conflict.sol\":4429:4453  conflicts[projectNumber] */\n      dup2\n      mstore\n      0x20\n      add\n      swap1\n      dup2\n      mstore\n      0x20\n      add\n      0x00\n      keccak256\n        /* \"contracts/Conflict.sol\":4429:4468  conflicts[projectNumber][serviceNumber] */\n      0x00\n        /* \"contracts/Conflict.sol\":4454:4467  serviceNumber */\n      dup5\n        /* \"contracts/Conflict.sol\":4429:4468  conflicts[projectNumber][serviceNumber] */\n      dup2\n      mstore\n      0x20\n      add\n      swap1\n      dup2\n      mstore\n      0x20\n      add\n      0x00\n      keccak256\n        /* \"contracts/Conflict.sol\":4429:4485  conflicts[projectNumber][serviceNumber][milestoneNumber] */\n      0x00\n        /* \"contracts/Conflict.sol\":4469:4484  milestoneNumber */\n      dup4\n        /* \"contracts/Conflict.sol\":4429:4485  conflicts[projectNumber][serviceNumber][milestoneNumber] */\n      dup2\n      mstore\n      0x20\n      add\n      swap1\n      dup2\n      mstore\n      0x20\n      add\n      0x00\n      keccak256\n        /* \"contracts/Conflict.sol\":4429:4492  conflicts[projectNumber][serviceNumber][milestoneNumber].voters */\n      0x05\n      add\n      sload\n        /* \"contracts/Conflict.sol\":4354:4363  conflicts */\n      0x00\n        /* \"contracts/Conflict.sol\":4354:4378  conflicts[projectNumber] */\n      dup1\n        /* \"contracts/Conflict.sol\":4364:4377  projectNumber */\n      dup7\n        /* \"contracts/Conflict.sol\":4354:4378  conflicts[projectNumber] */\n      dup2\n      mstore\n      0x20\n      add\n      swap1\n      dup2\n      mstore\n      0x20\n      add\n      0x00\n      keccak256\n        /* \"contracts/Conflict.sol\":4354:4393  conflicts[projectNumber][serviceNumber] */\n      0x00\n        /* \"contracts/Conflict.sol\":4379:4392  serviceNumber */\n      dup6\n        /* \"contracts/Conflict.sol\":4354:4393  conflicts[projectNumber][serviceNumber] */\n      dup2\n      mstore\n      0x20\n      add\n      swap1\n      dup2\n      mstore\n      0x20\n      add\n      0x00\n      keccak256\n        /* \"contracts/Conflict.sol\":4354:4410  conflicts[projectNumber][serviceNumber][milestoneNumber] */\n      0x00\n        /* \"contracts/Conflict.sol\":4394:4409  milestoneNumber */\n      dup5\n        /* \"contracts/Conflict.sol\":4354:4410  conflicts[projectNumber][serviceNumber][milestoneNumber] */\n      dup2\n      mstore\n      0x20\n      add\n      swap1\n      dup2\n      mstore\n      0x20\n      add\n      0x00\n      keccak256\n        /* \"contracts/Conflict.sol\":4354:4425  conflicts[projectNumber][serviceNumber][milestoneNumber].votesCollected */\n      0x06\n      add\n      sload\n        /* \"contracts/Conflict.sol\":4354:4492  conflicts[projectNumber][serviceNumber][milestoneNumber].votesCollected == conflicts[projectNumber][serviceNumber][milestoneNumber].voters */\n      eq\n        /* \"contracts/Conflict.sol\":4346:4571  require(conflicts[projectNumber][serviceNumber][milestoneNumber].votesCollected == conflicts[projectNumber][serviceNumber][milestoneNumber].voters, \"Not everyone has voted, please prompt all other members of project to vote\") */\n      tag_43\n      jumpi\n      mload(0x40)\n      0x08c379a000000000000000000000000000000000000000000000000000000000\n      dup2\n      mstore\n      0x04\n      add\n      tag_44\n      swap1\n      tag_45\n      jump\t// in\n    tag_44:\n      mload(0x40)\n      dup1\n      swap2\n      sub\n      swap1\n      revert\n    tag_43:\n        /* \"contracts/Conflict.sol\":4664:4688  ConflictStatus.completed */\n      0x02\n        /* \"contracts/Conflict.sol\":4589:4688  conflicts[projectNumber][serviceNumber][milestoneNumber].conflictstatus == ConflictStatus.completed */\n      dup1\n      dup2\n      gt\n      iszero\n      tag_46\n      jumpi\n      tag_47\n      tag_48\n      jump\t// in\n    tag_47:\n    tag_46:\n        /* \"contracts/Conflict.sol\":4589:4598  conflicts */\n      0x00\n        /* \"contracts/Conflict.sol\":4589:4613  conflicts[projectNumber] */\n      dup1\n        /* \"contracts/Conflict.sol\":4599:4612  projectNumber */\n      dup7\n        /* \"contracts/Conflict.sol\":4589:4613  conflicts[projectNumber] */\n      dup2\n      mstore\n      0x20\n      add\n      swap1\n      dup2\n      mstore\n      0x20\n      add\n      0x00\n      keccak256\n        /* \"contracts/Conflict.sol\":4589:4628  conflicts[projectNumber][serviceNumber] */\n      0x00\n        /* \"contracts/Conflict.sol\":4614:4627  serviceNumber */\n      dup6\n        /* \"contracts/Conflict.sol\":4589:4628  conflicts[projectNumber][serviceNumber] */\n      dup2\n      mstore\n      0x20\n      add\n      swap1\n      dup2\n      mstore\n      0x20\n      add\n      0x00\n      keccak256\n        /* \"contracts/Conflict.sol\":4589:4645  conflicts[projectNumber][serviceNumber][milestoneNumber] */\n      0x00\n        /* \"contracts/Conflict.sol\":4629:4644  milestoneNumber */\n      dup5\n        /* \"contracts/Conflict.sol\":4589:4645  conflicts[projectNumber][serviceNumber][milestoneNumber] */\n      dup2\n      mstore\n      0x20\n      add\n      swap1\n      dup2\n      mstore\n      0x20\n      add\n      0x00\n      keccak256\n        /* \"contracts/Conflict.sol\":4589:4660  conflicts[projectNumber][serviceNumber][milestoneNumber].conflictstatus */\n      0x04\n      add\n      0x14\n      swap1\n      sload\n      swap1\n      0x0100\n      exp\n      swap1\n      div\n      0xff\n      and\n        /* \"contracts/Conflict.sol\":4589:4688  conflicts[projectNumber][serviceNumber][milestoneNumber].conflictstatus == ConflictStatus.completed */\n      0x02\n      dup2\n      gt\n      iszero\n      tag_49\n      jumpi\n      tag_50\n      tag_48\n      jump\t// in\n    tag_50:\n    tag_49:\n      eq\n        /* \"contracts/Conflict.sol\":4581:4754  require(conflicts[projectNumber][serviceNumber][milestoneNumber].conflictstatus == ConflictStatus.completed, \"Voting has not been completed yet. Please wait for it to end.\") */\n      tag_51\n      jumpi\n      mload(0x40)\n      0x08c379a000000000000000000000000000000000000000000000000000000000\n      dup2\n      mstore\n      0x04\n      add\n      tag_52\n      swap1\n      tag_53\n      jump\t// in\n    tag_52:\n      mload(0x40)\n      dup1\n      swap2\n      sub\n      swap1\n      revert\n    tag_51:\n        /* \"contracts/Conflict.sol\":4772:4781  conflicts */\n      0x00\n        /* \"contracts/Conflict.sol\":4772:4796  conflicts[projectNumber] */\n      dup1\n        /* \"contracts/Conflict.sol\":4782:4795  projectNumber */\n      dup6\n        /* \"contracts/Conflict.sol\":4772:4796  conflicts[projectNumber] */\n      dup2\n      mstore\n      0x20\n      add\n      swap1\n      dup2\n      mstore\n      0x20\n      add\n      0x00\n      keccak256\n        /* \"contracts/Conflict.sol\":4772:4811  conflicts[projectNumber][serviceNumber] */\n      0x00\n        /* \"contracts/Conflict.sol\":4797:4810  serviceNumber */\n      dup5\n        /* \"contracts/Conflict.sol\":4772:4811  conflicts[projectNumber][serviceNumber] */\n      dup2\n      mstore\n      0x20\n      add\n      swap1\n      dup2\n      mstore\n      0x20\n      add\n      0x00\n      keccak256\n        /* \"contracts/Conflict.sol\":4772:4828  conflicts[projectNumber][serviceNumber][milestoneNumber] */\n      0x00\n        /* \"contracts/Conflict.sol\":4812:4827  milestoneNumber */\n      dup4\n        /* \"contracts/Conflict.sol\":4772:4828  conflicts[projectNumber][serviceNumber][milestoneNumber] */\n      dup2\n      mstore\n      0x20\n      add\n      swap1\n      dup2\n      mstore\n      0x20\n      add\n      0x00\n      keccak256\n        /* \"contracts/Conflict.sol\":4772:4835  conflicts[projectNumber][serviceNumber][milestoneNumber].result */\n      0x09\n      add\n      0x01\n      swap1\n      sload\n      swap1\n      0x0100\n      exp\n      swap1\n      div\n      0xff\n      and\n        /* \"contracts/Conflict.sol\":4765:4835  return conflicts[projectNumber][serviceNumber][milestoneNumber].result */\n      0xff\n      and\n      swap1\n      pop\n        /* \"contracts/Conflict.sol\":4218:4842  function getResults(uint256 projectNumber, uint256 serviceNumber, uint256 milestoneNumber) public view returns (uint) {... */\n      swap4\n      swap3\n      pop\n      pop\n      pop\n      jump\t// out\n        /* \"contracts/Conflict.sol\":2550:4180  function voteConflict(uint256 projectNumber, uint256 serviceNumber, uint256 milestoneNumber, uint8 vote) public {... */\n    tag_20:\n        /* \"contracts/Conflict.sol\":2757:2767  msg.sender */\n      caller\n        /* \"contracts/Conflict.sol\":2680:2767  conflicts[projectNumber][serviceNumber][milestoneNumber].serviceRequester != msg.sender */\n      0xffffffffffffffffffffffffffffffffffffffff\n      and\n        /* \"contracts/Conflict.sol\":2680:2689  conflicts */\n      0x00\n        /* \"contracts/Conflict.sol\":2680:2704  conflicts[projectNumber] */\n      dup1\n        /* \"contracts/Conflict.sol\":2690:2703  projectNumber */\n      dup7\n        /* \"contracts/Conflict.sol\":2680:2704  conflicts[projectNumber] */\n      dup2\n      mstore\n      0x20\n      add\n      swap1\n      dup2\n      mstore\n      0x20\n      add\n      0x00\n      keccak256\n        /* \"contracts/Conflict.sol\":2680:2719  conflicts[projectNumber][serviceNumber] */\n      0x00\n        /* \"contracts/Conflict.sol\":2705:2718  serviceNumber */\n      dup6\n        /* \"contracts/Conflict.sol\":2680:2719  conflicts[projectNumber][serviceNumber] */\n      dup2\n      mstore\n      0x20\n      add\n      swap1\n      dup2\n      mstore\n      0x20\n      add\n      0x00\n      keccak256\n        /* \"contracts/Conflict.sol\":2680:2736  conflicts[projectNumber][serviceNumber][milestoneNumber] */\n      0x00\n        /* \"contracts/Conflict.sol\":2720:2735  milestoneNumber */\n      dup5\n        /* \"contracts/Conflict.sol\":2680:2736  conflicts[projectNumber][serviceNumber][milestoneNumber] */\n      dup2\n      mstore\n      0x20\n      add\n      swap1\n      dup2\n      mstore\n      0x20\n      add\n      0x00\n      keccak256\n        /* \"contracts/Conflict.sol\":2680:2753  conflicts[projectNumber][serviceNumber][milestoneNumber].serviceRequester */\n      0x03\n      add\n      0x00\n      swap1\n      sload\n      swap1\n      0x0100\n      exp\n      swap1\n      div\n      0xffffffffffffffffffffffffffffffffffffffff\n      and\n        /* \"contracts/Conflict.sol\":2680:2767  conflicts[projectNumber][serviceNumber][milestoneNumber].serviceRequester != msg.sender */\n      0xffffffffffffffffffffffffffffffffffffffff\n      and\n      eq\n      iszero\n        /* \"contracts/Conflict.sol\":2672:2821  require(conflicts[projectNumber][serviceNumber][milestoneNumber].serviceRequester != msg.sender , \"You raised this conflict. You cannot vote on it.\") */\n      tag_55\n      jumpi\n      mload(0x40)\n      0x08c379a000000000000000000000000000000000000000000000000000000000\n      dup2\n      mstore\n      0x04\n      add\n      tag_56\n      swap1\n      tag_57\n      jump\t// in\n    tag_56:\n      mload(0x40)\n      dup1\n      swap2\n      sub\n      swap1\n      revert\n    tag_55:\n        /* \"contracts/Conflict.sol\":2915:2925  msg.sender */\n      caller\n        /* \"contracts/Conflict.sol\":2839:2925  conflicts[projectNumber][serviceNumber][milestoneNumber].serviceProvider != msg.sender */\n      0xffffffffffffffffffffffffffffffffffffffff\n      and\n        /* \"contracts/Conflict.sol\":2839:2848  conflicts */\n      0x00\n        /* \"contracts/Conflict.sol\":2839:2863  conflicts[projectNumber] */\n      dup1\n        /* \"contracts/Conflict.sol\":2849:2862  projectNumber */\n      dup7\n        /* \"contracts/Conflict.sol\":2839:2863  conflicts[projectNumber] */\n      dup2\n      mstore\n      0x20\n      add\n      swap1\n      dup2\n      mstore\n      0x20\n      add\n      0x00\n      keccak256\n        /* \"contracts/Conflict.sol\":2839:2878  conflicts[projectNumber][serviceNumber] */\n      0x00\n        /* \"contracts/Conflict.sol\":2864:2877  serviceNumber */\n      dup6\n        /* \"contracts/Conflict.sol\":2839:2878  conflicts[projectNumber][serviceNumber] */\n      dup2\n      mstore\n      0x20\n      add\n      swap1\n      dup2\n      mstore\n      0x20\n      add\n      0x00\n      keccak256\n        /* \"contracts/Conflict.sol\":2839:2895  conflicts[projectNumber][serviceNumber][milestoneNumber] */\n      0x00\n        /* \"contracts/Conflict.sol\":2879:2894  milestoneNumber */\n      dup5\n        /* \"contracts/Conflict.sol\":2839:2895  conflicts[projectNumber][serviceNumber][milestoneNumber] */\n      dup2\n      mstore\n      0x20\n      add\n      swap1\n      dup2\n      mstore\n      0x20\n      add\n      0x00\n      keccak256\n        /* \"contracts/Conflict.sol\":2839:2911  conflicts[projectNumber][serviceNumber][milestoneNumber].serviceProvider */\n      0x04\n      add\n      0x00\n      swap1\n      sload\n      swap1\n      0x0100\n      exp\n      swap1\n      div\n      0xffffffffffffffffffffffffffffffffffffffff\n      and\n        /* \"contracts/Conflict.sol\":2839:2925  conflicts[projectNumber][serviceNumber][milestoneNumber].serviceProvider != msg.sender */\n      0xffffffffffffffffffffffffffffffffffffffff\n      and\n      eq\n      iszero\n        /* \"contracts/Conflict.sol\":2831:2987  require(conflicts[projectNumber][serviceNumber][milestoneNumber].serviceProvider != msg.sender, \"You are involved in this conflict. You cannot vote on it.\") */\n      tag_58\n      jumpi\n      mload(0x40)\n      0x08c379a000000000000000000000000000000000000000000000000000000000\n      dup2\n      mstore\n      0x04\n      add\n      tag_59\n      swap1\n      tag_60\n      jump\t// in\n    tag_59:\n      mload(0x40)\n      dup1\n      swap2\n      sub\n      swap1\n      revert\n    tag_58:\n        /* \"contracts/Conflict.sol\":3088:3097  conflicts */\n      0x00\n        /* \"contracts/Conflict.sol\":3088:3112  conflicts[projectNumber] */\n      dup1\n        /* \"contracts/Conflict.sol\":3098:3111  projectNumber */\n      dup6\n        /* \"contracts/Conflict.sol\":3088:3112  conflicts[projectNumber] */\n      dup2\n      mstore\n      0x20\n      add\n      swap1\n      dup2\n      mstore\n      0x20\n      add\n      0x00\n      keccak256\n        /* \"contracts/Conflict.sol\":3088:3127  conflicts[projectNumber][serviceNumber] */\n      0x00\n        /* \"contracts/Conflict.sol\":3113:3126  serviceNumber */\n      dup5\n        /* \"contracts/Conflict.sol\":3088:3127  conflicts[projectNumber][serviceNumber] */\n      dup2\n      mstore\n      0x20\n      add\n      swap1\n      dup2\n      mstore\n      0x20\n      add\n      0x00\n      keccak256\n        /* \"contracts/Conflict.sol\":3088:3144  conflicts[projectNumber][serviceNumber][milestoneNumber] */\n      0x00\n        /* \"contracts/Conflict.sol\":3128:3143  milestoneNumber */\n      dup4\n        /* \"contracts/Conflict.sol\":3088:3144  conflicts[projectNumber][serviceNumber][milestoneNumber] */\n      dup2\n      mstore\n      0x20\n      add\n      swap1\n      dup2\n      mstore\n      0x20\n      add\n      0x00\n      keccak256\n        /* \"contracts/Conflict.sol\":3088:3151  conflicts[projectNumber][serviceNumber][milestoneNumber].voters */\n      0x05\n      add\n      sload\n        /* \"contracts/Conflict.sol\":3014:3023  conflicts */\n      0x00\n        /* \"contracts/Conflict.sol\":3014:3038  conflicts[projectNumber] */\n      dup1\n        /* \"contracts/Conflict.sol\":3024:3037  projectNumber */\n      dup7\n        /* \"contracts/Conflict.sol\":3014:3038  conflicts[projectNumber] */\n      dup2\n      mstore\n      0x20\n      add\n      swap1\n      dup2\n      mstore\n      0x20\n      add\n      0x00\n      keccak256\n        /* \"contracts/Conflict.sol\":3014:3053  conflicts[projectNumber][serviceNumber] */\n      0x00\n        /* \"contracts/Conflict.sol\":3039:3052  serviceNumber */\n      dup6\n        /* \"contracts/Conflict.sol\":3014:3053  conflicts[projectNumber][serviceNumber] */\n      dup2\n      mstore\n      0x20\n      add\n      swap1\n      dup2\n      mstore\n      0x20\n      add\n      0x00\n      keccak256\n        /* \"contracts/Conflict.sol\":3014:3070  conflicts[projectNumber][serviceNumber][milestoneNumber] */\n      0x00\n        /* \"contracts/Conflict.sol\":3054:3069  milestoneNumber */\n      dup5\n        /* \"contracts/Conflict.sol\":3014:3070  conflicts[projectNumber][serviceNumber][milestoneNumber] */\n      dup2\n      mstore\n      0x20\n      add\n      swap1\n      dup2\n      mstore\n      0x20\n      add\n      0x00\n      keccak256\n        /* \"contracts/Conflict.sol\":3014:3085  conflicts[projectNumber][serviceNumber][milestoneNumber].votesCollected */\n      0x06\n      add\n      sload\n        /* \"contracts/Conflict.sol\":3014:3151  conflicts[projectNumber][serviceNumber][milestoneNumber].votesCollected < conflicts[projectNumber][serviceNumber][milestoneNumber].voters */\n      lt\n        /* \"contracts/Conflict.sol\":3006:3188  require(conflicts[projectNumber][serviceNumber][milestoneNumber].votesCollected < conflicts[projectNumber][serviceNumber][milestoneNumber].voters, \"Enough votes have been collected\") */\n      tag_61\n      jumpi\n      mload(0x40)\n      0x08c379a000000000000000000000000000000000000000000000000000000000\n      dup2\n      mstore\n      0x04\n      add\n      tag_62\n      swap1\n      tag_63\n      jump\t// in\n    tag_62:\n      mload(0x40)\n      dup1\n      swap2\n      sub\n      swap1\n      revert\n    tag_61:\n        /* \"contracts/Conflict.sol\":3284:3285  0 */\n      0x00\n        /* \"contracts/Conflict.sol\":3206:3215  conflicts */\n      dup1\n        /* \"contracts/Conflict.sol\":3206:3230  conflicts[projectNumber] */\n      0x00\n        /* \"contracts/Conflict.sol\":3216:3229  projectNumber */\n      dup7\n        /* \"contracts/Conflict.sol\":3206:3230  conflicts[projectNumber] */\n      dup2\n      mstore\n      0x20\n      add\n      swap1\n      dup2\n      mstore\n      0x20\n      add\n      0x00\n      keccak256\n        /* \"contracts/Conflict.sol\":3206:3245  conflicts[projectNumber][serviceNumber] */\n      0x00\n        /* \"contracts/Conflict.sol\":3231:3244  serviceNumber */\n      dup6\n        /* \"contracts/Conflict.sol\":3206:3245  conflicts[projectNumber][serviceNumber] */\n      dup2\n      mstore\n      0x20\n      add\n      swap1\n      dup2\n      mstore\n      0x20\n      add\n      0x00\n      keccak256\n        /* \"contracts/Conflict.sol\":3206:3262  conflicts[projectNumber][serviceNumber][milestoneNumber] */\n      0x00\n        /* \"contracts/Conflict.sol\":3246:3261  milestoneNumber */\n      dup5\n        /* \"contracts/Conflict.sol\":3206:3262  conflicts[projectNumber][serviceNumber][milestoneNumber] */\n      dup2\n      mstore\n      0x20\n      add\n      swap1\n      dup2\n      mstore\n      0x20\n      add\n      0x00\n      keccak256\n        /* \"contracts/Conflict.sol\":3206:3268  conflicts[projectNumber][serviceNumber][milestoneNumber].votes */\n      0x0a\n      add\n        /* \"contracts/Conflict.sol\":3206:3280  conflicts[projectNumber][serviceNumber][milestoneNumber].votes[msg.sender] */\n      0x00\n        /* \"contracts/Conflict.sol\":3269:3279  msg.sender */\n      caller\n        /* \"contracts/Conflict.sol\":3206:3280  conflicts[projectNumber][serviceNumber][milestoneNumber].votes[msg.sender] */\n      0xffffffffffffffffffffffffffffffffffffffff\n      and\n      0xffffffffffffffffffffffffffffffffffffffff\n      and\n      dup2\n      mstore\n      0x20\n      add\n      swap1\n      dup2\n      mstore\n      0x20\n      add\n      0x00\n      keccak256\n      0x00\n      swap1\n      sload\n      swap1\n      0x0100\n      exp\n      swap1\n      div\n      0xff\n      and\n        /* \"contracts/Conflict.sol\":3206:3285  conflicts[projectNumber][serviceNumber][milestoneNumber].votes[msg.sender] == 0 */\n      0xff\n      and\n      eq\n        /* \"contracts/Conflict.sol\":3198:3336  require(conflicts[projectNumber][serviceNumber][milestoneNumber].votes[msg.sender] == 0 , \"You have already voted, you cannot vote again\") */\n      tag_64\n      jumpi\n      mload(0x40)\n      0x08c379a000000000000000000000000000000000000000000000000000000000\n      dup2\n      mstore\n      0x04\n      add\n      tag_65\n      swap1\n      tag_66\n      jump\t// in\n    tag_65:\n      mload(0x40)\n      dup1\n      swap2\n      sub\n      swap1\n      revert\n    tag_64:\n        /* \"contracts/Conflict.sol\":3362:3363  1 */\n      0x01\n        /* \"contracts/Conflict.sol\":3354:3358  vote */\n      dup2\n        /* \"contracts/Conflict.sol\":3354:3363  vote == 1 */\n      0xff\n      and\n      eq\n        /* \"contracts/Conflict.sol\":3354:3376  vote == 1 || vote == 2 */\n      dup1\n      tag_67\n      jumpi\n      pop\n        /* \"contracts/Conflict.sol\":3375:3376  2 */\n      0x02\n        /* \"contracts/Conflict.sol\":3367:3371  vote */\n      dup2\n        /* \"contracts/Conflict.sol\":3367:3376  vote == 2 */\n      0xff\n      and\n      eq\n        /* \"contracts/Conflict.sol\":3354:3376  vote == 1 || vote == 2 */\n    tag_67:\n        /* \"contracts/Conflict.sol\":3346:3468  require(vote == 1 || vote == 2, \"You have not input a right vote. You can either vote 1 for Requester or 2 for Provider.\") */\n      tag_68\n      jumpi\n      mload(0x40)\n      0x08c379a000000000000000000000000000000000000000000000000000000000\n      dup2\n      mstore\n      0x04\n      add\n      tag_69\n      swap1\n      tag_70\n      jump\t// in\n    tag_69:\n      mload(0x40)\n      dup1\n      swap2\n      sub\n      swap1\n      revert\n    tag_68:\n        /* \"contracts/Conflict.sol\":3479:3497  conflict storage C */\n      0x00\n        /* \"contracts/Conflict.sol\":3500:3509  conflicts */\n      dup1\n        /* \"contracts/Conflict.sol\":3500:3524  conflicts[projectNumber] */\n      0x00\n        /* \"contracts/Conflict.sol\":3510:3523  projectNumber */\n      dup7\n        /* \"contracts/Conflict.sol\":3500:3524  conflicts[projectNumber] */\n      dup2\n      mstore\n      0x20\n      add\n      swap1\n      dup2\n      mstore\n      0x20\n      add\n      0x00\n      keccak256\n        /* \"contracts/Conflict.sol\":3500:3539  conflicts[projectNumber][serviceNumber] */\n      0x00\n        /* \"contracts/Conflict.sol\":3525:3538  serviceNumber */\n      dup6\n        /* \"contracts/Conflict.sol\":3500:3539  conflicts[projectNumber][serviceNumber] */\n      dup2\n      mstore\n      0x20\n      add\n      swap1\n      dup2\n      mstore\n      0x20\n      add\n      0x00\n      keccak256\n        /* \"contracts/Conflict.sol\":3500:3556  conflicts[projectNumber][serviceNumber][milestoneNumber] */\n      0x00\n        /* \"contracts/Conflict.sol\":3540:3555  milestoneNumber */\n      dup5\n        /* \"contracts/Conflict.sol\":3500:3556  conflicts[projectNumber][serviceNumber][milestoneNumber] */\n      dup2\n      mstore\n      0x20\n      add\n      swap1\n      dup2\n      mstore\n      0x20\n      add\n      0x00\n      keccak256\n        /* \"contracts/Conflict.sol\":3479:3556  conflict storage C = conflicts[projectNumber][serviceNumber][milestoneNumber] */\n      swap1\n      pop\n        /* \"contracts/Conflict.sol\":3588:3592  vote */\n      dup2\n        /* \"contracts/Conflict.sol\":3566:3567  C */\n      dup2\n        /* \"contracts/Conflict.sol\":3566:3573  C.votes */\n      0x0a\n      add\n        /* \"contracts/Conflict.sol\":3566:3585  C.votes[msg.sender] */\n      0x00\n        /* \"contracts/Conflict.sol\":3574:3584  msg.sender */\n      caller\n        /* \"contracts/Conflict.sol\":3566:3585  C.votes[msg.sender] */\n      0xffffffffffffffffffffffffffffffffffffffff\n      and\n      0xffffffffffffffffffffffffffffffffffffffff\n      and\n      dup2\n      mstore\n      0x20\n      add\n      swap1\n      dup2\n      mstore\n      0x20\n      add\n      0x00\n      keccak256\n      0x00\n        /* \"contracts/Conflict.sol\":3566:3592  C.votes[msg.sender] = vote */\n      0x0100\n      exp\n      dup2\n      sload\n      dup2\n      0xff\n      mul\n      not\n      and\n      swap1\n      dup4\n      0xff\n      and\n      mul\n      or\n      swap1\n      sstore\n      pop\n        /* \"contracts/Conflict.sol\":3615:3616  1 */\n      0x01\n        /* \"contracts/Conflict.sol\":3607:3611  vote */\n      dup3\n        /* \"contracts/Conflict.sol\":3607:3616  vote == 1 */\n      0xff\n      and\n      eq\n        /* \"contracts/Conflict.sol\":3603:3641  if (vote == 1) { C.requesterVotes++; } */\n      iszero\n      tag_71\n      jumpi\n        /* \"contracts/Conflict.sol\":3620:3621  C */\n      dup1\n        /* \"contracts/Conflict.sol\":3620:3636  C.requesterVotes */\n      0x07\n      add\n      0x00\n        /* \"contracts/Conflict.sol\":3620:3638  C.requesterVotes++ */\n      dup2\n      sload\n      dup1\n      swap3\n      swap2\n      swap1\n      tag_72\n      swap1\n      tag_73\n      jump\t// in\n    tag_72:\n      swap2\n      swap1\n      pop\n      sstore\n      pop\n        /* \"contracts/Conflict.sol\":3603:3641  if (vote == 1) { C.requesterVotes++; } */\n    tag_71:\n        /* \"contracts/Conflict.sol\":3662:3663  2 */\n      0x02\n        /* \"contracts/Conflict.sol\":3654:3658  vote */\n      dup3\n        /* \"contracts/Conflict.sol\":3654:3663  vote == 2 */\n      0xff\n      and\n      eq\n        /* \"contracts/Conflict.sol\":3650:3687  if (vote == 2) { C.providerVotes++; } */\n      iszero\n      tag_74\n      jumpi\n        /* \"contracts/Conflict.sol\":3667:3668  C */\n      dup1\n        /* \"contracts/Conflict.sol\":3667:3682  C.providerVotes */\n      0x08\n      add\n      0x00\n        /* \"contracts/Conflict.sol\":3667:3684  C.providerVotes++ */\n      dup2\n      sload\n      dup1\n      swap3\n      swap2\n      swap1\n      tag_75\n      swap1\n      tag_73\n      jump\t// in\n    tag_75:\n      swap2\n      swap1\n      pop\n      sstore\n      pop\n        /* \"contracts/Conflict.sol\":3650:3687  if (vote == 2) { C.providerVotes++; } */\n    tag_74:\n        /* \"contracts/Conflict.sol\":3696:3697  C */\n      dup1\n        /* \"contracts/Conflict.sol\":3696:3712  C.votesCollected */\n      0x06\n      add\n      0x00\n        /* \"contracts/Conflict.sol\":3696:3714  C.votesCollected++ */\n      dup2\n      sload\n      dup1\n      swap3\n      swap2\n      swap1\n      tag_76\n      swap1\n      tag_73\n      jump\t// in\n    tag_76:\n      swap2\n      swap1\n      pop\n      sstore\n      pop\n        /* \"contracts/Conflict.sol\":3730:3808  conflictVoted(projectNumber, serviceNumber, milestoneNumber, msg.sender, vote) */\n      0x20211b974adbe11ce3687d51504ce7ef1fcfbb9c00405ba7aca7b283903f345a\n        /* \"contracts/Conflict.sol\":3744:3757  projectNumber */\n      dup6\n        /* \"contracts/Conflict.sol\":3759:3772  serviceNumber */\n      dup6\n        /* \"contracts/Conflict.sol\":3774:3789  milestoneNumber */\n      dup6\n        /* \"contracts/Conflict.sol\":3791:3801  msg.sender */\n      caller\n        /* \"contracts/Conflict.sol\":3803:3807  vote */\n      dup7\n        /* \"contracts/Conflict.sol\":3730:3808  conflictVoted(projectNumber, serviceNumber, milestoneNumber, msg.sender, vote) */\n      mload(0x40)\n      tag_77\n      swap6\n      swap5\n      swap4\n      swap3\n      swap2\n      swap1\n      tag_78\n      jump\t// in\n    tag_77:\n      mload(0x40)\n      dup1\n      swap2\n      sub\n      swap1\n      log1\n        /* \"contracts/Conflict.sol\":3843:3844  C */\n      dup1\n        /* \"contracts/Conflict.sol\":3843:3851  C.voters */\n      0x05\n      add\n      sload\n        /* \"contracts/Conflict.sol\":3823:3824  C */\n      dup2\n        /* \"contracts/Conflict.sol\":3823:3839  C.votesCollected */\n      0x06\n      add\n      sload\n        /* \"contracts/Conflict.sol\":3823:3851  C.votesCollected == C.voters */\n      eq\n        /* \"contracts/Conflict.sol\":3819:4174  if (C.votesCollected == C.voters) {... */\n      iszero\n      tag_79\n      jumpi\n        /* \"contracts/Conflict.sol\":3889:3890  C */\n      dup1\n        /* \"contracts/Conflict.sol\":3889:3905  C.requesterVotes */\n      0x07\n      add\n      sload\n        /* \"contracts/Conflict.sol\":3871:3872  C */\n      dup2\n        /* \"contracts/Conflict.sol\":3871:3886  C.providerVotes */\n      0x08\n      add\n      sload\n        /* \"contracts/Conflict.sol\":3871:3905  C.providerVotes > C.requesterVotes */\n      gt\n        /* \"contracts/Conflict.sol\":3867:3956  if (C.providerVotes > C.requesterVotes) {C.result = 2; }... */\n      iszero\n      tag_80\n      jumpi\n        /* \"contracts/Conflict.sol\":3919:3920  2 */\n      0x02\n        /* \"contracts/Conflict.sol\":3908:3909  C */\n      dup2\n        /* \"contracts/Conflict.sol\":3908:3916  C.result */\n      0x09\n      add\n      0x01\n        /* \"contracts/Conflict.sol\":3908:3920  C.result = 2 */\n      0x0100\n      exp\n      dup2\n      sload\n      dup2\n      0xff\n      mul\n      not\n      and\n      swap1\n      dup4\n      0xff\n      and\n      mul\n      or\n      swap1\n      sstore\n      pop\n        /* \"contracts/Conflict.sol\":3867:3956  if (C.providerVotes > C.requesterVotes) {C.result = 2; }... */\n      jump(tag_81)\n    tag_80:\n        /* \"contracts/Conflict.sol\":3953:3954  1 */\n      0x01\n        /* \"contracts/Conflict.sol\":3942:3943  C */\n      dup2\n        /* \"contracts/Conflict.sol\":3942:3950  C.result */\n      0x09\n      add\n      0x01\n        /* \"contracts/Conflict.sol\":3942:3954  C.result = 1 */\n      0x0100\n      exp\n      dup2\n      sload\n      dup2\n      0xff\n      mul\n      not\n      and\n      swap1\n      dup4\n      0xff\n      and\n      mul\n      or\n      swap1\n      sstore\n      pop\n        /* \"contracts/Conflict.sol\":3867:3956  if (C.providerVotes > C.requesterVotes) {C.result = 2; }... */\n    tag_81:\n        /* \"contracts/Conflict.sol\":4048:4072  ConflictStatus.completed */\n      0x02\n        /* \"contracts/Conflict.sol\":4029:4030  C */\n      dup2\n        /* \"contracts/Conflict.sol\":4029:4045  C.conflictstatus */\n      0x04\n      add\n      0x14\n        /* \"contracts/Conflict.sol\":4029:4072  C.conflictstatus = ConflictStatus.completed */\n      0x0100\n      exp\n      dup2\n      sload\n      dup2\n      0xff\n      mul\n      not\n      and\n      swap1\n      dup4\n      0x02\n      dup2\n      gt\n      iszero\n      tag_82\n      jumpi\n      tag_83\n      tag_48\n      jump\t// in\n    tag_83:\n    tag_82:\n      mul\n      or\n      swap1\n      sstore\n      pop\n        /* \"contracts/Conflict.sol\":4092:4163  conflictResult(projectNumber, serviceNumber, milestoneNumber, C.result) */\n      0xe59fdbc65a5dd63c529717c2a71d04b136038f05301755de242dd05990c02814\n        /* \"contracts/Conflict.sol\":4107:4120  projectNumber */\n      dup6\n        /* \"contracts/Conflict.sol\":4122:4135  serviceNumber */\n      dup6\n        /* \"contracts/Conflict.sol\":4137:4152  milestoneNumber */\n      dup6\n        /* \"contracts/Conflict.sol\":4154:4155  C */\n      dup5\n        /* \"contracts/Conflict.sol\":4154:4162  C.result */\n      0x09\n      add\n      0x01\n      swap1\n      sload\n      swap1\n      0x0100\n      exp\n      swap1\n      div\n      0xff\n      and\n        /* \"contracts/Conflict.sol\":4092:4163  conflictResult(projectNumber, serviceNumber, milestoneNumber, C.result) */\n      mload(0x40)\n      tag_84\n      swap5\n      swap4\n      swap3\n      swap2\n      swap1\n      tag_85\n      jump\t// in\n    tag_84:\n      mload(0x40)\n      dup1\n      swap2\n      sub\n      swap1\n      log1\n        /* \"contracts/Conflict.sol\":3819:4174  if (C.votesCollected == C.voters) {... */\n    tag_79:\n        /* \"contracts/Conflict.sol\":2662:4180  {... */\n      pop\n        /* \"contracts/Conflict.sol\":2550:4180  function voteConflict(uint256 projectNumber, uint256 serviceNumber, uint256 milestoneNumber, uint8 vote) public {... */\n      pop\n      pop\n      pop\n      pop\n      jump\t// out\n        /* \"contracts/Conflict.sol\":5084:5307  function getVotesCollected(uint256 projectNumber, uint256 serviceNumber, uint256 milestoneNumber) public view returns (uint256) {... */\n    tag_23:\n        /* \"contracts/Conflict.sol\":5203:5210  uint256 */\n      0x00\n        /* \"contracts/Conflict.sol\":5229:5238  conflicts */\n      dup1\n        /* \"contracts/Conflict.sol\":5229:5253  conflicts[projectNumber] */\n      0x00\n        /* \"contracts/Conflict.sol\":5239:5252  projectNumber */\n      dup6\n        /* \"contracts/Conflict.sol\":5229:5253  conflicts[projectNumber] */\n      dup2\n      mstore\n      0x20\n      add\n      swap1\n      dup2\n      mstore\n      0x20\n      add\n      0x00\n      keccak256\n        /* \"contracts/Conflict.sol\":5229:5268  conflicts[projectNumber][serviceNumber] */\n      0x00\n        /* \"contracts/Conflict.sol\":5254:5267  serviceNumber */\n      dup5\n        /* \"contracts/Conflict.sol\":5229:5268  conflicts[projectNumber][serviceNumber] */\n      dup2\n      mstore\n      0x20\n      add\n      swap1\n      dup2\n      mstore\n      0x20\n      add\n      0x00\n      keccak256\n        /* \"contracts/Conflict.sol\":5229:5285  conflicts[projectNumber][serviceNumber][milestoneNumber] */\n      0x00\n        /* \"contracts/Conflict.sol\":5269:5284  milestoneNumber */\n      dup4\n        /* \"contracts/Conflict.sol\":5229:5285  conflicts[projectNumber][serviceNumber][milestoneNumber] */\n      dup2\n      mstore\n      0x20\n      add\n      swap1\n      dup2\n      mstore\n      0x20\n      add\n      0x00\n      keccak256\n        /* \"contracts/Conflict.sol\":5229:5300  conflicts[projectNumber][serviceNumber][milestoneNumber].votesCollected */\n      0x06\n      add\n      sload\n        /* \"contracts/Conflict.sol\":5222:5300  return conflicts[projectNumber][serviceNumber][milestoneNumber].votesCollected */\n      swap1\n      pop\n        /* \"contracts/Conflict.sol\":5084:5307  function getVotesCollected(uint256 projectNumber, uint256 serviceNumber, uint256 milestoneNumber) public view returns (uint256) {... */\n      swap4\n      swap3\n      pop\n      pop\n      pop\n      jump\t// out\n        /* \"contracts/Conflict.sol\":1366:2544  function createConflict(uint256 projectNumber, uint256 serviceNumber, uint256 milestoneNumber, address serviceRequester, address serviceProvider,  uint256 totalVoters) public {... */\n    tag_28:\n        /* \"contracts/Conflict.sol\":1626:1630  true */\n      0x01\n        /* \"contracts/Conflict.sol\":1559:1630  conflicts[projectNumber][serviceNumber][milestoneNumber].exists != true */\n      iszero\n      iszero\n        /* \"contracts/Conflict.sol\":1559:1568  conflicts */\n      0x00\n        /* \"contracts/Conflict.sol\":1559:1583  conflicts[projectNumber] */\n      dup1\n        /* \"contracts/Conflict.sol\":1569:1582  projectNumber */\n      dup9\n        /* \"contracts/Conflict.sol\":1559:1583  conflicts[projectNumber] */\n      dup2\n      mstore\n      0x20\n      add\n      swap1\n      dup2\n      mstore\n      0x20\n      add\n      0x00\n      keccak256\n        /* \"contracts/Conflict.sol\":1559:1598  conflicts[projectNumber][serviceNumber] */\n      0x00\n        /* \"contracts/Conflict.sol\":1584:1597  serviceNumber */\n      dup8\n        /* \"contracts/Conflict.sol\":1559:1598  conflicts[projectNumber][serviceNumber] */\n      dup2\n      mstore\n      0x20\n      add\n      swap1\n      dup2\n      mstore\n      0x20\n      add\n      0x00\n      keccak256\n        /* \"contracts/Conflict.sol\":1559:1615  conflicts[projectNumber][serviceNumber][milestoneNumber] */\n      0x00\n        /* \"contracts/Conflict.sol\":1599:1614  milestoneNumber */\n      dup7\n        /* \"contracts/Conflict.sol\":1559:1615  conflicts[projectNumber][serviceNumber][milestoneNumber] */\n      dup2\n      mstore\n      0x20\n      add\n      swap1\n      dup2\n      mstore\n      0x20\n      add\n      0x00\n      keccak256\n        /* \"contracts/Conflict.sol\":1559:1622  conflicts[projectNumber][serviceNumber][milestoneNumber].exists */\n      0x09\n      add\n      0x00\n      swap1\n      sload\n      swap1\n      0x0100\n      exp\n      swap1\n      div\n      0xff\n      and\n        /* \"contracts/Conflict.sol\":1559:1630  conflicts[projectNumber][serviceNumber][milestoneNumber].exists != true */\n      iszero\n      iszero\n      eq\n      iszero\n        /* \"contracts/Conflict.sol\":1551:1713  require(conflicts[projectNumber][serviceNumber][milestoneNumber].exists != true , \"Conflict has already been created. Please do not create more than 1 conflict.\") */\n      tag_88\n      jumpi\n      mload(0x40)\n      0x08c379a000000000000000000000000000000000000000000000000000000000\n      dup2\n      mstore\n      0x04\n      add\n      tag_89\n      swap1\n      tag_90\n      jump\t// in\n    tag_89:\n      mload(0x40)\n      dup1\n      swap2\n      sub\n      swap1\n      revert\n    tag_88:\n        /* \"contracts/Conflict.sol\":1749:1777  conflict storage newConflict */\n      0x00\n        /* \"contracts/Conflict.sol\":1780:1789  conflicts */\n      dup1\n        /* \"contracts/Conflict.sol\":1780:1804  conflicts[projectNumber] */\n      0x00\n        /* \"contracts/Conflict.sol\":1790:1803  projectNumber */\n      dup9\n        /* \"contracts/Conflict.sol\":1780:1804  conflicts[projectNumber] */\n      dup2\n      mstore\n      0x20\n      add\n      swap1\n      dup2\n      mstore\n      0x20\n      add\n      0x00\n      keccak256\n        /* \"contracts/Conflict.sol\":1780:1819  conflicts[projectNumber][serviceNumber] */\n      0x00\n        /* \"contracts/Conflict.sol\":1805:1818  serviceNumber */\n      dup8\n        /* \"contracts/Conflict.sol\":1780:1819  conflicts[projectNumber][serviceNumber] */\n      dup2\n      mstore\n      0x20\n      add\n      swap1\n      dup2\n      mstore\n      0x20\n      add\n      0x00\n      keccak256\n        /* \"contracts/Conflict.sol\":1780:1836  conflicts[projectNumber][serviceNumber][milestoneNumber] */\n      0x00\n        /* \"contracts/Conflict.sol\":1820:1835  milestoneNumber */\n      dup7\n        /* \"contracts/Conflict.sol\":1780:1836  conflicts[projectNumber][serviceNumber][milestoneNumber] */\n      dup2\n      mstore\n      0x20\n      add\n      swap1\n      dup2\n      mstore\n      0x20\n      add\n      0x00\n      keccak256\n        /* \"contracts/Conflict.sol\":1749:1836  conflict storage newConflict = conflicts[projectNumber][serviceNumber][milestoneNumber] */\n      swap1\n      pop\n        /* \"contracts/Conflict.sol\":1874:1887  projectNumber */\n      dup7\n        /* \"contracts/Conflict.sol\":1846:1857  newConflict */\n      dup2\n        /* \"contracts/Conflict.sol\":1846:1871  newConflict.projectNumber */\n      0x00\n      add\n        /* \"contracts/Conflict.sol\":1846:1887  newConflict.projectNumber = projectNumber */\n      dup2\n      swap1\n      sstore\n      pop\n        /* \"contracts/Conflict.sol\":1930:1943  serviceNumber */\n      dup6\n        /* \"contracts/Conflict.sol\":1902:1913  newConflict */\n      dup2\n        /* \"contracts/Conflict.sol\":1902:1927  newConflict.serviceNumber */\n      0x01\n      add\n        /* \"contracts/Conflict.sol\":1902:1943  newConflict.serviceNumber = serviceNumber */\n      dup2\n      swap1\n      sstore\n      pop\n        /* \"contracts/Conflict.sol\":1991:2006  milestoneNumber */\n      dup5\n        /* \"contracts/Conflict.sol\":1961:1972  newConflict */\n      dup2\n        /* \"contracts/Conflict.sol\":1961:1988  newConflict.milestoneNumber */\n      0x02\n      add\n        /* \"contracts/Conflict.sol\":1961:2006  newConflict.milestoneNumber = milestoneNumber */\n      dup2\n      swap1\n      sstore\n      pop\n        /* \"contracts/Conflict.sol\":2047:2063  serviceRequester */\n      dup4\n        /* \"contracts/Conflict.sol\":2016:2027  newConflict */\n      dup2\n        /* \"contracts/Conflict.sol\":2016:2044  newConflict.serviceRequester */\n      0x03\n      add\n      0x00\n        /* \"contracts/Conflict.sol\":2016:2063  newConflict.serviceRequester = serviceRequester */\n      0x0100\n      exp\n      dup2\n      sload\n      dup2\n      0xffffffffffffffffffffffffffffffffffffffff\n      mul\n      not\n      and\n      swap1\n      dup4\n      0xffffffffffffffffffffffffffffffffffffffff\n      and\n      mul\n      or\n      swap1\n      sstore\n      pop\n        /* \"contracts/Conflict.sol\":2103:2118  serviceProvider */\n      dup3\n        /* \"contracts/Conflict.sol\":2073:2084  newConflict */\n      dup2\n        /* \"contracts/Conflict.sol\":2073:2100  newConflict.serviceProvider */\n      0x04\n      add\n      0x00\n        /* \"contracts/Conflict.sol\":2073:2118  newConflict.serviceProvider = serviceProvider */\n      0x0100\n      exp\n      dup2\n      sload\n      dup2\n      0xffffffffffffffffffffffffffffffffffffffff\n      mul\n      not\n      and\n      swap1\n      dup4\n      0xffffffffffffffffffffffffffffffffffffffff\n      and\n      mul\n      or\n      swap1\n      sstore\n      pop\n        /* \"contracts/Conflict.sol\":2157:2179  ConflictStatus.pending */\n      0x01\n        /* \"contracts/Conflict.sol\":2128:2139  newConflict */\n      dup2\n        /* \"contracts/Conflict.sol\":2128:2154  newConflict.conflictstatus */\n      0x04\n      add\n      0x14\n        /* \"contracts/Conflict.sol\":2128:2179  newConflict.conflictstatus = ConflictStatus.pending */\n      0x0100\n      exp\n      dup2\n      sload\n      dup2\n      0xff\n      mul\n      not\n      and\n      swap1\n      dup4\n      0x02\n      dup2\n      gt\n      iszero\n      tag_91\n      jumpi\n      tag_92\n      tag_48\n      jump\t// in\n    tag_92:\n    tag_91:\n      mul\n      or\n      swap1\n      sstore\n      pop\n        /* \"contracts/Conflict.sol\":2210:2221  totalVoters */\n      dup2\n        /* \"contracts/Conflict.sol\":2189:2200  newConflict */\n      dup2\n        /* \"contracts/Conflict.sol\":2189:2207  newConflict.voters */\n      0x05\n      add\n        /* \"contracts/Conflict.sol\":2189:2221  newConflict.voters = totalVoters */\n      dup2\n      swap1\n      sstore\n      pop\n        /* \"contracts/Conflict.sol\":2260:2261  0 */\n      0x00\n        /* \"contracts/Conflict.sol\":2231:2242  newConflict */\n      dup2\n        /* \"contracts/Conflict.sol\":2231:2257  newConflict.votesCollected */\n      0x06\n      add\n        /* \"contracts/Conflict.sol\":2231:2261  newConflict.votesCollected = 0 */\n      dup2\n      swap1\n      sstore\n      pop\n        /* \"contracts/Conflict.sol\":2300:2301  0 */\n      0x00\n        /* \"contracts/Conflict.sol\":2271:2282  newConflict */\n      dup2\n        /* \"contracts/Conflict.sol\":2271:2297  newConflict.requesterVotes */\n      0x07\n      add\n        /* \"contracts/Conflict.sol\":2271:2301  newConflict.requesterVotes = 0 */\n      dup2\n      swap1\n      sstore\n      pop\n        /* \"contracts/Conflict.sol\":2339:2340  0 */\n      0x00\n        /* \"contracts/Conflict.sol\":2311:2322  newConflict */\n      dup2\n        /* \"contracts/Conflict.sol\":2311:2336  newConflict.providerVotes */\n      0x08\n      add\n        /* \"contracts/Conflict.sol\":2311:2340  newConflict.providerVotes = 0 */\n      dup2\n      swap1\n      sstore\n      pop\n        /* \"contracts/Conflict.sol\":2375:2379  true */\n      0x01\n        /* \"contracts/Conflict.sol\":2354:2365  newConflict */\n      dup2\n        /* \"contracts/Conflict.sol\":2354:2372  newConflict.exists */\n      0x09\n      add\n      0x00\n        /* \"contracts/Conflict.sol\":2354:2379  newConflict.exists = true */\n      0x0100\n      exp\n      dup2\n      sload\n      dup2\n      0xff\n      mul\n      not\n      and\n      swap1\n      dup4\n      iszero\n      iszero\n      mul\n      or\n      swap1\n      sstore\n      pop\n        /* \"contracts/Conflict.sol\":2410:2411  0 */\n      0x00\n        /* \"contracts/Conflict.sol\":2389:2400  newConflict */\n      dup2\n        /* \"contracts/Conflict.sol\":2389:2407  newConflict.result */\n      0x09\n      add\n      0x01\n        /* \"contracts/Conflict.sol\":2389:2411  newConflict.result = 0 */\n      0x0100\n      exp\n      dup2\n      sload\n      dup2\n      0xff\n      mul\n      not\n      and\n      swap1\n      dup4\n      0xff\n      and\n      mul\n      or\n      swap1\n      sstore\n      pop\n        /* \"contracts/Conflict.sol\":2427:2537  conflictCreated(projectNumber, serviceNumber, milestoneNumber, serviceRequester, serviceProvider, totalVoters) */\n      0xfa127411522a1139d16c2142db999e127aef2288bd98a0558006bb115666ab1b\n        /* \"contracts/Conflict.sol\":2443:2456  projectNumber */\n      dup8\n        /* \"contracts/Conflict.sol\":2458:2471  serviceNumber */\n      dup8\n        /* \"contracts/Conflict.sol\":2473:2488  milestoneNumber */\n      dup8\n        /* \"contracts/Conflict.sol\":2490:2506  serviceRequester */\n      dup8\n        /* \"contracts/Conflict.sol\":2508:2523  serviceProvider */\n      dup8\n        /* \"contracts/Conflict.sol\":2525:2536  totalVoters */\n      dup8\n        /* \"contracts/Conflict.sol\":2427:2537  conflictCreated(projectNumber, serviceNumber, milestoneNumber, serviceRequester, serviceProvider, totalVoters) */\n      mload(0x40)\n      tag_93\n      swap7\n      swap6\n      swap5\n      swap4\n      swap3\n      swap2\n      swap1\n      tag_94\n      jump\t// in\n    tag_93:\n      mload(0x40)\n      dup1\n      swap2\n      sub\n      swap1\n      log1\n        /* \"contracts/Conflict.sol\":1541:2544  {... */\n      pop\n        /* \"contracts/Conflict.sol\":1366:2544  function createConflict(uint256 projectNumber, uint256 serviceNumber, uint256 milestoneNumber, address serviceRequester, address serviceProvider,  uint256 totalVoters) public {... */\n      pop\n      pop\n      pop\n      pop\n      pop\n      pop\n      jump\t// out\n        /* \"contracts/Conflict.sol\":5545:5769  function getVotesforProvider(uint256 projectNumber, uint256 serviceNumber, uint256 milestoneNumber) public view returns (uint256) {... */\n    tag_31:\n        /* \"contracts/Conflict.sol\":5666:5673  uint256 */\n      0x00\n        /* \"contracts/Conflict.sol\":5692:5701  conflicts */\n      dup1\n        /* \"contracts/Conflict.sol\":5692:5716  conflicts[projectNumber] */\n      0x00\n        /* \"contracts/Conflict.sol\":5702:5715  projectNumber */\n      dup6\n        /* \"contracts/Conflict.sol\":5692:5716  conflicts[projectNumber] */\n      dup2\n      mstore\n      0x20\n      add\n      swap1\n      dup2\n      mstore\n      0x20\n      add\n      0x00\n      keccak256\n        /* \"contracts/Conflict.sol\":5692:5731  conflicts[projectNumber][serviceNumber] */\n      0x00\n        /* \"contracts/Conflict.sol\":5717:5730  serviceNumber */\n      dup5\n        /* \"contracts/Conflict.sol\":5692:5731  conflicts[projectNumber][serviceNumber] */\n      dup2\n      mstore\n      0x20\n      add\n      swap1\n      dup2\n      mstore\n      0x20\n      add\n      0x00\n      keccak256\n        /* \"contracts/Conflict.sol\":5692:5748  conflicts[projectNumber][serviceNumber][milestoneNumber] */\n      0x00\n        /* \"contracts/Conflict.sol\":5732:5747  milestoneNumber */\n      dup4\n        /* \"contracts/Conflict.sol\":5692:5748  conflicts[projectNumber][serviceNumber][milestoneNumber] */\n      dup2\n      mstore\n      0x20\n      add\n      swap1\n      dup2\n      mstore\n      0x20\n      add\n      0x00\n      keccak256\n        /* \"contracts/Conflict.sol\":5692:5762  conflicts[projectNumber][serviceNumber][milestoneNumber].providerVotes */\n      0x08\n      add\n      sload\n        /* \"contracts/Conflict.sol\":5685:5762  return conflicts[projectNumber][serviceNumber][milestoneNumber].providerVotes */\n      swap1\n      pop\n        /* \"contracts/Conflict.sol\":5545:5769  function getVotesforProvider(uint256 projectNumber, uint256 serviceNumber, uint256 milestoneNumber) public view returns (uint256) {... */\n      swap4\n      swap3\n      pop\n      pop\n      pop\n      jump\t// out\n        /* \"contracts/Conflict.sol\":4848:5078  function getConflictStatus(uint256 projectNumber, uint256 serviceNumber, uint256 milestoneNumber) public view returns (ConflictStatus) {... */\n    tag_35:\n        /* \"contracts/Conflict.sol\":4967:4981  ConflictStatus */\n      0x00\n        /* \"contracts/Conflict.sol\":5000:5009  conflicts */\n      dup1\n        /* \"contracts/Conflict.sol\":5000:5024  conflicts[projectNumber] */\n      0x00\n        /* \"contracts/Conflict.sol\":5010:5023  projectNumber */\n      dup6\n        /* \"contracts/Conflict.sol\":5000:5024  conflicts[projectNumber] */\n      dup2\n      mstore\n      0x20\n      add\n      swap1\n      dup2\n      mstore\n      0x20\n      add\n      0x00\n      keccak256\n        /* \"contracts/Conflict.sol\":5000:5039  conflicts[projectNumber][serviceNumber] */\n      0x00\n        /* \"contracts/Conflict.sol\":5025:5038  serviceNumber */\n      dup5\n        /* \"contracts/Conflict.sol\":5000:5039  conflicts[projectNumber][serviceNumber] */\n      dup2\n      mstore\n      0x20\n      add\n      swap1\n      dup2\n      mstore\n      0x20\n      add\n      0x00\n      keccak256\n        /* \"contracts/Conflict.sol\":5000:5056  conflicts[projectNumber][serviceNumber][milestoneNumber] */\n      0x00\n        /* \"contracts/Conflict.sol\":5040:5055  milestoneNumber */\n      dup4\n        /* \"contracts/Conflict.sol\":5000:5056  conflicts[projectNumber][serviceNumber][milestoneNumber] */\n      dup2\n      mstore\n      0x20\n      add\n      swap1\n      dup2\n      mstore\n      0x20\n      add\n      0x00\n      keccak256\n        /* \"contracts/Conflict.sol\":5000:5071  conflicts[projectNumber][serviceNumber][milestoneNumber].conflictstatus */\n      0x04\n      add\n      0x14\n      swap1\n      sload\n      swap1\n      0x0100\n      exp\n      swap1\n      div\n      0xff\n      and\n        /* \"contracts/Conflict.sol\":4993:5071  return conflicts[projectNumber][serviceNumber][milestoneNumber].conflictstatus */\n      swap1\n      pop\n        /* \"contracts/Conflict.sol\":4848:5078  function getConflictStatus(uint256 projectNumber, uint256 serviceNumber, uint256 milestoneNumber) public view returns (ConflictStatus) {... */\n      swap4\n      swap3\n      pop\n      pop\n      pop\n      jump\t// out\n        /* \"contracts/Conflict.sol\":5313:5539  function getVotesforRequester(uint256 projectNumber, uint256 serviceNumber, uint256 milestoneNumber) public view returns (uint256) {... */\n    tag_40:\n        /* \"contracts/Conflict.sol\":5435:5442  uint256 */\n      0x00\n        /* \"contracts/Conflict.sol\":5461:5470  conflicts */\n      dup1\n        /* \"contracts/Conflict.sol\":5461:5485  conflicts[projectNumber] */\n      0x00\n        /* \"contracts/Conflict.sol\":5471:5484  projectNumber */\n      dup6\n        /* \"contracts/Conflict.sol\":5461:5485  conflicts[projectNumber] */\n      dup2\n      mstore\n      0x20\n      add\n      swap1\n      dup2\n      mstore\n      0x20\n      add\n      0x00\n      keccak256\n        /* \"contracts/Conflict.sol\":5461:5500  conflicts[projectNumber][serviceNumber] */\n      0x00\n        /* \"contracts/Conflict.sol\":5486:5499  serviceNumber */\n      dup5\n        /* \"contracts/Conflict.sol\":5461:5500  conflicts[projectNumber][serviceNumber] */\n      dup2\n      mstore\n      0x20\n      add\n      swap1\n      dup2\n      mstore\n      0x20\n      add\n      0x00\n      keccak256\n        /* \"contracts/Conflict.sol\":5461:5517  conflicts[projectNumber][serviceNumber][milestoneNumber] */\n      0x00\n        /* \"contracts/Conflict.sol\":5501:5516  milestoneNumber */\n      dup4\n        /* \"contracts/Conflict.sol\":5461:5517  conflicts[projectNumber][serviceNumber][milestoneNumber] */\n      dup2\n      mstore\n      0x20\n      add\n      swap1\n      dup2\n      mstore\n      0x20\n      add\n      0x00\n      keccak256\n        /* \"contracts/Conflict.sol\":5461:5532  conflicts[projectNumber][serviceNumber][milestoneNumber].requesterVotes */\n      0x07\n      add\n      sload\n        /* \"contracts/Conflict.sol\":5454:5532  return conflicts[projectNumber][serviceNumber][milestoneNumber].requesterVotes */\n      swap1\n      pop\n        /* \"contracts/Conflict.sol\":5313:5539  function getVotesforRequester(uint256 projectNumber, uint256 serviceNumber, uint256 milestoneNumber) public view returns (uint256) {... */\n      swap4\n      swap3\n      pop\n      pop\n      pop\n      jump\t// out\n        /* \"#utility.yul\":7:146   */\n    tag_99:\n        /* \"#utility.yul\":53:58   */\n      0x00\n        /* \"#utility.yul\":91:97   */\n      dup2\n        /* \"#utility.yul\":78:98   */\n      calldataload\n        /* \"#utility.yul\":69:98   */\n      swap1\n      pop\n        /* \"#utility.yul\":107:140   */\n      tag_101\n        /* \"#utility.yul\":134:139   */\n      dup2\n        /* \"#utility.yul\":107:140   */\n      tag_102\n      jump\t// in\n    tag_101:\n        /* \"#utility.yul\":7:146   */\n      swap3\n      swap2\n      pop\n      pop\n      jump\t// out\n        /* \"#utility.yul\":152:291   */\n    tag_103:\n        /* \"#utility.yul\":198:203   */\n      0x00\n        /* \"#utility.yul\":236:242   */\n      dup2\n        /* \"#utility.yul\":223:243   */\n      calldataload\n        /* \"#utility.yul\":214:243   */\n      swap1\n      pop\n        /* \"#utility.yul\":252:285   */\n      tag_105\n        /* \"#utility.yul\":279:284   */\n      dup2\n        /* \"#utility.yul\":252:285   */\n      tag_106\n      jump\t// in\n    tag_105:\n        /* \"#utility.yul\":152:291   */\n      swap3\n      swap2\n      pop\n      pop\n      jump\t// out\n        /* \"#utility.yul\":297:432   */\n    tag_107:\n        /* \"#utility.yul\":341:346   */\n      0x00\n        /* \"#utility.yul\":379:385   */\n      dup2\n        /* \"#utility.yul\":366:386   */\n      calldataload\n        /* \"#utility.yul\":357:386   */\n      swap1\n      pop\n        /* \"#utility.yul\":395:426   */\n      tag_109\n        /* \"#utility.yul\":420:425   */\n      dup2\n        /* \"#utility.yul\":395:426   */\n      tag_110\n      jump\t// in\n    tag_109:\n        /* \"#utility.yul\":297:432   */\n      swap3\n      swap2\n      pop\n      pop\n      jump\t// out\n        /* \"#utility.yul\":438:1057   */\n    tag_13:\n        /* \"#utility.yul\":515:521   */\n      0x00\n        /* \"#utility.yul\":523:529   */\n      dup1\n        /* \"#utility.yul\":531:537   */\n      0x00\n        /* \"#utility.yul\":580:582   */\n      0x60\n        /* \"#utility.yul\":568:577   */\n      dup5\n        /* \"#utility.yul\":559:566   */\n      dup7\n        /* \"#utility.yul\":555:578   */\n      sub\n        /* \"#utility.yul\":551:583   */\n      slt\n        /* \"#utility.yul\":548:667   */\n      iszero\n      tag_112\n      jumpi\n        /* \"#utility.yul\":586:665   */\n      tag_113\n      tag_114\n      jump\t// in\n    tag_113:\n        /* \"#utility.yul\":548:667   */\n    tag_112:\n        /* \"#utility.yul\":706:707   */\n      0x00\n        /* \"#utility.yul\":731:784   */\n      tag_115\n        /* \"#utility.yul\":776:783   */\n      dup7\n        /* \"#utility.yul\":767:773   */\n      dup3\n        /* \"#utility.yul\":756:765   */\n      dup8\n        /* \"#utility.yul\":752:774   */\n      add\n        /* \"#utility.yul\":731:784   */\n      tag_103\n      jump\t// in\n    tag_115:\n        /* \"#utility.yul\":721:784   */\n      swap4\n      pop\n        /* \"#utility.yul\":677:794   */\n      pop\n        /* \"#utility.yul\":833:835   */\n      0x20\n        /* \"#utility.yul\":859:912   */\n      tag_116\n        /* \"#utility.yul\":904:911   */\n      dup7\n        /* \"#utility.yul\":895:901   */\n      dup3\n        /* \"#utility.yul\":884:893   */\n      dup8\n        /* \"#utility.yul\":880:902   */\n      add\n        /* \"#utility.yul\":859:912   */\n      tag_103\n      jump\t// in\n    tag_116:\n        /* \"#utility.yul\":849:912   */\n      swap3\n      pop\n        /* \"#utility.yul\":804:922   */\n      pop\n        /* \"#utility.yul\":961:963   */\n      0x40\n        /* \"#utility.yul\":987:1040   */\n      tag_117\n        /* \"#utility.yul\":1032:1039   */\n      dup7\n        /* \"#utility.yul\":1023:1029   */\n      dup3\n        /* \"#utility.yul\":1012:1021   */\n      dup8\n        /* \"#utility.yul\":1008:1030   */\n      add\n        /* \"#utility.yul\":987:1040   */\n      tag_103\n      jump\t// in\n    tag_117:\n        /* \"#utility.yul\":977:1040   */\n      swap2\n      pop\n        /* \"#utility.yul\":932:1050   */\n      pop\n        /* \"#utility.yul\":438:1057   */\n      swap3\n      pop\n      swap3\n      pop\n      swap3\n      jump\t// out\n        /* \"#utility.yul\":1063:2120   */\n    tag_27:\n        /* \"#utility.yul\":1167:1173   */\n      0x00\n        /* \"#utility.yul\":1175:1181   */\n      dup1\n        /* \"#utility.yul\":1183:1189   */\n      0x00\n        /* \"#utility.yul\":1191:1197   */\n      dup1\n        /* \"#utility.yul\":1199:1205   */\n      0x00\n        /* \"#utility.yul\":1207:1213   */\n      dup1\n        /* \"#utility.yul\":1256:1259   */\n      0xc0\n        /* \"#utility.yul\":1244:1253   */\n      dup8\n        /* \"#utility.yul\":1235:1242   */\n      dup10\n        /* \"#utility.yul\":1231:1254   */\n      sub\n        /* \"#utility.yul\":1227:1260   */\n      slt\n        /* \"#utility.yul\":1224:1344   */\n      iszero\n      tag_119\n      jumpi\n        /* \"#utility.yul\":1263:1342   */\n      tag_120\n      tag_114\n      jump\t// in\n    tag_120:\n        /* \"#utility.yul\":1224:1344   */\n    tag_119:\n        /* \"#utility.yul\":1383:1384   */\n      0x00\n        /* \"#utility.yul\":1408:1461   */\n      tag_121\n        /* \"#utility.yul\":1453:1460   */\n      dup10\n        /* \"#utility.yul\":1444:1450   */\n      dup3\n        /* \"#utility.yul\":1433:1442   */\n      dup11\n        /* \"#utility.yul\":1429:1451   */\n      add\n        /* \"#utility.yul\":1408:1461   */\n      tag_103\n      jump\t// in\n    tag_121:\n        /* \"#utility.yul\":1398:1461   */\n      swap7\n      pop\n        /* \"#utility.yul\":1354:1471   */\n      pop\n        /* \"#utility.yul\":1510:1512   */\n      0x20\n        /* \"#utility.yul\":1536:1589   */\n      tag_122\n        /* \"#utility.yul\":1581:1588   */\n      dup10\n        /* \"#utility.yul\":1572:1578   */\n      dup3\n        /* \"#utility.yul\":1561:1570   */\n      dup11\n        /* \"#utility.yul\":1557:1579   */\n      add\n        /* \"#utility.yul\":1536:1589   */\n      tag_103\n      jump\t// in\n    tag_122:\n        /* \"#utility.yul\":1526:1589   */\n      swap6\n      pop\n        /* \"#utility.yul\":1481:1599   */\n      pop\n        /* \"#utility.yul\":1638:1640   */\n      0x40\n        /* \"#utility.yul\":1664:1717   */\n      tag_123\n        /* \"#utility.yul\":1709:1716   */\n      dup10\n        /* \"#utility.yul\":1700:1706   */\n      dup3\n        /* \"#utility.yul\":1689:1698   */\n      dup11\n        /* \"#utility.yul\":1685:1707   */\n      add\n        /* \"#utility.yul\":1664:1717   */\n      tag_103\n      jump\t// in\n    tag_123:\n        /* \"#utility.yul\":1654:1717   */\n      swap5\n      pop\n        /* \"#utility.yul\":1609:1727   */\n      pop\n        /* \"#utility.yul\":1766:1768   */\n      0x60\n        /* \"#utility.yul\":1792:1845   */\n      tag_124\n        /* \"#utility.yul\":1837:1844   */\n      dup10\n        /* \"#utility.yul\":1828:1834   */\n      dup3\n        /* \"#utility.yul\":1817:1826   */\n      dup11\n        /* \"#utility.yul\":1813:1835   */\n      add\n        /* \"#utility.yul\":1792:1845   */\n      tag_99\n      jump\t// in\n    tag_124:\n        /* \"#utility.yul\":1782:1845   */\n      swap4\n      pop\n        /* \"#utility.yul\":1737:1855   */\n      pop\n        /* \"#utility.yul\":1894:1897   */\n      0x80\n        /* \"#utility.yul\":1921:1974   */\n      tag_125\n        /* \"#utility.yul\":1966:1973   */\n      dup10\n        /* \"#utility.yul\":1957:1963   */\n      dup3\n        /* \"#utility.yul\":1946:1955   */\n      dup11\n        /* \"#utility.yul\":1942:1964   */\n      add\n        /* \"#utility.yul\":1921:1974   */\n      tag_99\n      jump\t// in\n    tag_125:\n        /* \"#utility.yul\":1911:1974   */\n      swap3\n      pop\n        /* \"#utility.yul\":1865:1984   */\n      pop\n        /* \"#utility.yul\":2023:2026   */\n      0xa0\n        /* \"#utility.yul\":2050:2103   */\n      tag_126\n        /* \"#utility.yul\":2095:2102   */\n      dup10\n        /* \"#utility.yul\":2086:2092   */\n      dup3\n        /* \"#utility.yul\":2075:2084   */\n      dup11\n        /* \"#utility.yul\":2071:2093   */\n      add\n        /* \"#utility.yul\":2050:2103   */\n      tag_103\n      jump\t// in\n    tag_126:\n        /* \"#utility.yul\":2040:2103   */\n      swap2\n      pop\n        /* \"#utility.yul\":1994:2113   */\n      pop\n        /* \"#utility.yul\":1063:2120   */\n      swap3\n      swap6\n      pop\n      swap3\n      swap6\n      pop\n      swap3\n      swap6\n      jump\t// out\n        /* \"#utility.yul\":2126:2887   */\n    tag_19:\n        /* \"#utility.yul\":2210:2216   */\n      0x00\n        /* \"#utility.yul\":2218:2224   */\n      dup1\n        /* \"#utility.yul\":2226:2232   */\n      0x00\n        /* \"#utility.yul\":2234:2240   */\n      dup1\n        /* \"#utility.yul\":2283:2286   */\n      0x80\n        /* \"#utility.yul\":2271:2280   */\n      dup6\n        /* \"#utility.yul\":2262:2269   */\n      dup8\n        /* \"#utility.yul\":2258:2281   */\n      sub\n        /* \"#utility.yul\":2254:2287   */\n      slt\n        /* \"#utility.yul\":2251:2371   */\n      iszero\n      tag_128\n      jumpi\n        /* \"#utility.yul\":2290:2369   */\n      tag_129\n      tag_114\n      jump\t// in\n    tag_129:\n        /* \"#utility.yul\":2251:2371   */\n    tag_128:\n        /* \"#utility.yul\":2410:2411   */\n      0x00\n        /* \"#utility.yul\":2435:2488   */\n      tag_130\n        /* \"#utility.yul\":2480:2487   */\n      dup8\n        /* \"#utility.yul\":2471:2477   */\n      dup3\n        /* \"#utility.yul\":2460:2469   */\n      dup9\n        /* \"#utility.yul\":2456:2478   */\n      add\n        /* \"#utility.yul\":2435:2488   */\n      tag_103\n      jump\t// in\n    tag_130:\n        /* \"#utility.yul\":2425:2488   */\n      swap5\n      pop\n        /* \"#utility.yul\":2381:2498   */\n      pop\n        /* \"#utility.yul\":2537:2539   */\n      0x20\n        /* \"#utility.yul\":2563:2616   */\n      tag_131\n        /* \"#utility.yul\":2608:2615   */\n      dup8\n        /* \"#utility.yul\":2599:2605   */\n      dup3\n        /* \"#utility.yul\":2588:2597   */\n      dup9\n        /* \"#utility.yul\":2584:2606   */\n      add\n        /* \"#utility.yul\":2563:2616   */\n      tag_103\n      jump\t// in\n    tag_131:\n        /* \"#utility.yul\":2553:2616   */\n      swap4\n      pop\n        /* \"#utility.yul\":2508:2626   */\n      pop\n        /* \"#utility.yul\":2665:2667   */\n      0x40\n        /* \"#utility.yul\":2691:2744   */\n      tag_132\n        /* \"#utility.yul\":2736:2743   */\n      dup8\n        /* \"#utility.yul\":2727:2733   */\n      dup3\n        /* \"#utility.yul\":2716:2725   */\n      dup9\n        /* \"#utility.yul\":2712:2734   */\n      add\n        /* \"#utility.yul\":2691:2744   */\n      tag_103\n      jump\t// in\n    tag_132:\n        /* \"#utility.yul\":2681:2744   */\n      swap3\n      pop\n        /* \"#utility.yul\":2636:2754   */\n      pop\n        /* \"#utility.yul\":2793:2795   */\n      0x60\n        /* \"#utility.yul\":2819:2870   */\n      tag_133\n        /* \"#utility.yul\":2862:2869   */\n      dup8\n        /* \"#utility.yul\":2853:2859   */\n      dup3\n        /* \"#utility.yul\":2842:2851   */\n      dup9\n        /* \"#utility.yul\":2838:2860   */\n      add\n        /* \"#utility.yul\":2819:2870   */\n      tag_107\n      jump\t// in\n    tag_133:\n        /* \"#utility.yul\":2809:2870   */\n      swap2\n      pop\n        /* \"#utility.yul\":2764:2880   */\n      pop\n        /* \"#utility.yul\":2126:2887   */\n      swap3\n      swap6\n      swap2\n      swap5\n      pop\n      swap3\n      pop\n      jump\t// out\n        /* \"#utility.yul\":2893:3011   */\n    tag_134:\n        /* \"#utility.yul\":2980:3004   */\n      tag_136\n        /* \"#utility.yul\":2998:3003   */\n      dup2\n        /* \"#utility.yul\":2980:3004   */\n      tag_137\n      jump\t// in\n    tag_136:\n        /* \"#utility.yul\":2975:2978   */\n      dup3\n        /* \"#utility.yul\":2968:3005   */\n      mstore\n        /* \"#utility.yul\":2893:3011   */\n      pop\n      pop\n      jump\t// out\n        /* \"#utility.yul\":3017:3176   */\n    tag_138:\n        /* \"#utility.yul\":3118:3169   */\n      tag_140\n        /* \"#utility.yul\":3163:3168   */\n      dup2\n        /* \"#utility.yul\":3118:3169   */\n      tag_141\n      jump\t// in\n    tag_140:\n        /* \"#utility.yul\":3113:3116   */\n      dup3\n        /* \"#utility.yul\":3106:3170   */\n      mstore\n        /* \"#utility.yul\":3017:3176   */\n      pop\n      pop\n      jump\t// out\n        /* \"#utility.yul\":3182:3548   */\n    tag_142:\n        /* \"#utility.yul\":3324:3327   */\n      0x00\n        /* \"#utility.yul\":3345:3412   */\n      tag_144\n        /* \"#utility.yul\":3409:3411   */\n      0x57\n        /* \"#utility.yul\":3404:3407   */\n      dup4\n        /* \"#utility.yul\":3345:3412   */\n      tag_145\n      jump\t// in\n    tag_144:\n        /* \"#utility.yul\":3338:3412   */\n      swap2\n      pop\n        /* \"#utility.yul\":3421:3514   */\n      tag_146\n        /* \"#utility.yul\":3510:3513   */\n      dup3\n        /* \"#utility.yul\":3421:3514   */\n      tag_147\n      jump\t// in\n    tag_146:\n        /* \"#utility.yul\":3539:3541   */\n      0x60\n        /* \"#utility.yul\":3534:3537   */\n      dup3\n        /* \"#utility.yul\":3530:3542   */\n      add\n        /* \"#utility.yul\":3523:3542   */\n      swap1\n      pop\n        /* \"#utility.yul\":3182:3548   */\n      swap2\n      swap1\n      pop\n      jump\t// out\n        /* \"#utility.yul\":3554:3920   */\n    tag_148:\n        /* \"#utility.yul\":3696:3699   */\n      0x00\n        /* \"#utility.yul\":3717:3784   */\n      tag_150\n        /* \"#utility.yul\":3781:3783   */\n      0x2d\n        /* \"#utility.yul\":3776:3779   */\n      dup4\n        /* \"#utility.yul\":3717:3784   */\n      tag_145\n      jump\t// in\n    tag_150:\n        /* \"#utility.yul\":3710:3784   */\n      swap2\n      pop\n        /* \"#utility.yul\":3793:3886   */\n      tag_151\n        /* \"#utility.yul\":3882:3885   */\n      dup3\n        /* \"#utility.yul\":3793:3886   */\n      tag_152\n      jump\t// in\n    tag_151:\n        /* \"#utility.yul\":3911:3913   */\n      0x40\n        /* \"#utility.yul\":3906:3909   */\n      dup3\n        /* \"#utility.yul\":3902:3914   */\n      add\n        /* \"#utility.yul\":3895:3914   */\n      swap1\n      pop\n        /* \"#utility.yul\":3554:3920   */\n      swap2\n      swap1\n      pop\n      jump\t// out\n        /* \"#utility.yul\":3926:4292   */\n    tag_153:\n        /* \"#utility.yul\":4068:4071   */\n      0x00\n        /* \"#utility.yul\":4089:4156   */\n      tag_155\n        /* \"#utility.yul\":4153:4155   */\n      0x30\n        /* \"#utility.yul\":4148:4151   */\n      dup4\n        /* \"#utility.yul\":4089:4156   */\n      tag_145\n      jump\t// in\n    tag_155:\n        /* \"#utility.yul\":4082:4156   */\n      swap2\n      pop\n        /* \"#utility.yul\":4165:4258   */\n      tag_156\n        /* \"#utility.yul\":4254:4257   */\n      dup3\n        /* \"#utility.yul\":4165:4258   */\n      tag_157\n      jump\t// in\n    tag_156:\n        /* \"#utility.yul\":4283:4285   */\n      0x40\n        /* \"#utility.yul\":4278:4281   */\n      dup3\n        /* \"#utility.yul\":4274:4286   */\n      add\n        /* \"#utility.yul\":4267:4286   */\n      swap1\n      pop\n        /* \"#utility.yul\":3926:4292   */\n      swap2\n      swap1\n      pop\n      jump\t// out\n        /* \"#utility.yul\":4298:4664   */\n    tag_158:\n        /* \"#utility.yul\":4440:4443   */\n      0x00\n        /* \"#utility.yul\":4461:4528   */\n      tag_160\n        /* \"#utility.yul\":4525:4527   */\n      0x3d\n        /* \"#utility.yul\":4520:4523   */\n      dup4\n        /* \"#utility.yul\":4461:4528   */\n      tag_145\n      jump\t// in\n    tag_160:\n        /* \"#utility.yul\":4454:4528   */\n      swap2\n      pop\n        /* \"#utility.yul\":4537:4630   */\n      tag_161\n        /* \"#utility.yul\":4626:4629   */\n      dup3\n        /* \"#utility.yul\":4537:4630   */\n      tag_162\n      jump\t// in\n    tag_161:\n        /* \"#utility.yul\":4655:4657   */\n      0x40\n        /* \"#utility.yul\":4650:4653   */\n      dup3\n        /* \"#utility.yul\":4646:4658   */\n      add\n        /* \"#utility.yul\":4639:4658   */\n      swap1\n      pop\n        /* \"#utility.yul\":4298:4664   */\n      swap2\n      swap1\n      pop\n      jump\t// out\n        /* \"#utility.yul\":4670:5036   */\n    tag_163:\n        /* \"#utility.yul\":4812:4815   */\n      0x00\n        /* \"#utility.yul\":4833:4900   */\n      tag_165\n        /* \"#utility.yul\":4897:4899   */\n      0x4a\n        /* \"#utility.yul\":4892:4895   */\n      dup4\n        /* \"#utility.yul\":4833:4900   */\n      tag_145\n      jump\t// in\n    tag_165:\n        /* \"#utility.yul\":4826:4900   */\n      swap2\n      pop\n        /* \"#utility.yul\":4909:5002   */\n      tag_166\n        /* \"#utility.yul\":4998:5001   */\n      dup3\n        /* \"#utility.yul\":4909:5002   */\n      tag_167\n      jump\t// in\n    tag_166:\n        /* \"#utility.yul\":5027:5029   */\n      0x60\n        /* \"#utility.yul\":5022:5025   */\n      dup3\n        /* \"#utility.yul\":5018:5030   */\n      add\n        /* \"#utility.yul\":5011:5030   */\n      swap1\n      pop\n        /* \"#utility.yul\":4670:5036   */\n      swap2\n      swap1\n      pop\n      jump\t// out\n        /* \"#utility.yul\":5042:5408   */\n    tag_168:\n        /* \"#utility.yul\":5184:5187   */\n      0x00\n        /* \"#utility.yul\":5205:5272   */\n      tag_170\n        /* \"#utility.yul\":5269:5271   */\n      0x39\n        /* \"#utility.yul\":5264:5267   */\n      dup4\n        /* \"#utility.yul\":5205:5272   */\n      tag_145\n      jump\t// in\n    tag_170:\n        /* \"#utility.yul\":5198:5272   */\n      swap2\n      pop\n        /* \"#utility.yul\":5281:5374   */\n      tag_171\n        /* \"#utility.yul\":5370:5373   */\n      dup3\n        /* \"#utility.yul\":5281:5374   */\n      tag_172\n      jump\t// in\n    tag_171:\n        /* \"#utility.yul\":5399:5401   */\n      0x40\n        /* \"#utility.yul\":5394:5397   */\n      dup3\n        /* \"#utility.yul\":5390:5402   */\n      add\n        /* \"#utility.yul\":5383:5402   */\n      swap1\n      pop\n        /* \"#utility.yul\":5042:5408   */\n      swap2\n      swap1\n      pop\n      jump\t// out\n        /* \"#utility.yul\":5414:5780   */\n    tag_173:\n        /* \"#utility.yul\":5556:5559   */\n      0x00\n        /* \"#utility.yul\":5577:5644   */\n      tag_175\n        /* \"#utility.yul\":5641:5643   */\n      0x20\n        /* \"#utility.yul\":5636:5639   */\n      dup4\n        /* \"#utility.yul\":5577:5644   */\n      tag_145\n      jump\t// in\n    tag_175:\n        /* \"#utility.yul\":5570:5644   */\n      swap2\n      pop\n        /* \"#utility.yul\":5653:5746   */\n      tag_176\n        /* \"#utility.yul\":5742:5745   */\n      dup3\n        /* \"#utility.yul\":5653:5746   */\n      tag_177\n      jump\t// in\n    tag_176:\n        /* \"#utility.yul\":5771:5773   */\n      0x20\n        /* \"#utility.yul\":5766:5769   */\n      dup3\n        /* \"#utility.yul\":5762:5774   */\n      add\n        /* \"#utility.yul\":5755:5774   */\n      swap1\n      pop\n        /* \"#utility.yul\":5414:5780   */\n      swap2\n      swap1\n      pop\n      jump\t// out\n        /* \"#utility.yul\":5786:6152   */\n    tag_178:\n        /* \"#utility.yul\":5928:5931   */\n      0x00\n        /* \"#utility.yul\":5949:6016   */\n      tag_180\n        /* \"#utility.yul\":6013:6015   */\n      0x4d\n        /* \"#utility.yul\":6008:6011   */\n      dup4\n        /* \"#utility.yul\":5949:6016   */\n      tag_145\n      jump\t// in\n    tag_180:\n        /* \"#utility.yul\":5942:6016   */\n      swap2\n      pop\n        /* \"#utility.yul\":6025:6118   */\n      tag_181\n        /* \"#utility.yul\":6114:6117   */\n      dup3\n        /* \"#utility.yul\":6025:6118   */\n      tag_182\n      jump\t// in\n    tag_181:\n        /* \"#utility.yul\":6143:6145   */\n      0x60\n        /* \"#utility.yul\":6138:6141   */\n      dup3\n        /* \"#utility.yul\":6134:6146   */\n      add\n        /* \"#utility.yul\":6127:6146   */\n      swap1\n      pop\n        /* \"#utility.yul\":5786:6152   */\n      swap2\n      swap1\n      pop\n      jump\t// out\n        /* \"#utility.yul\":6158:6276   */\n    tag_183:\n        /* \"#utility.yul\":6245:6269   */\n      tag_185\n        /* \"#utility.yul\":6263:6268   */\n      dup2\n        /* \"#utility.yul\":6245:6269   */\n      tag_186\n      jump\t// in\n    tag_185:\n        /* \"#utility.yul\":6240:6243   */\n      dup3\n        /* \"#utility.yul\":6233:6270   */\n      mstore\n        /* \"#utility.yul\":6158:6276   */\n      pop\n      pop\n      jump\t// out\n        /* \"#utility.yul\":6282:6394   */\n    tag_187:\n        /* \"#utility.yul\":6365:6387   */\n      tag_189\n        /* \"#utility.yul\":6381:6386   */\n      dup2\n        /* \"#utility.yul\":6365:6387   */\n      tag_190\n      jump\t// in\n    tag_189:\n        /* \"#utility.yul\":6360:6363   */\n      dup3\n        /* \"#utility.yul\":6353:6388   */\n      mstore\n        /* \"#utility.yul\":6282:6394   */\n      pop\n      pop\n      jump\t// out\n        /* \"#utility.yul\":6400:6650   */\n    tag_37:\n        /* \"#utility.yul\":6507:6511   */\n      0x00\n        /* \"#utility.yul\":6545:6547   */\n      0x20\n        /* \"#utility.yul\":6534:6543   */\n      dup3\n        /* \"#utility.yul\":6530:6548   */\n      add\n        /* \"#utility.yul\":6522:6548   */\n      swap1\n      pop\n        /* \"#utility.yul\":6558:6643   */\n      tag_192\n        /* \"#utility.yul\":6640:6641   */\n      0x00\n        /* \"#utility.yul\":6629:6638   */\n      dup4\n        /* \"#utility.yul\":6625:6642   */\n      add\n        /* \"#utility.yul\":6616:6622   */\n      dup5\n        /* \"#utility.yul\":6558:6643   */\n      tag_138\n      jump\t// in\n    tag_192:\n        /* \"#utility.yul\":6400:6650   */\n      swap3\n      swap2\n      pop\n      pop\n      jump\t// out\n        /* \"#utility.yul\":6656:7075   */\n    tag_70:\n        /* \"#utility.yul\":6822:6826   */\n      0x00\n        /* \"#utility.yul\":6860:6862   */\n      0x20\n        /* \"#utility.yul\":6849:6858   */\n      dup3\n        /* \"#utility.yul\":6845:6863   */\n      add\n        /* \"#utility.yul\":6837:6863   */\n      swap1\n      pop\n        /* \"#utility.yul\":6909:6918   */\n      dup2\n        /* \"#utility.yul\":6903:6907   */\n      dup2\n        /* \"#utility.yul\":6899:6919   */\n      sub\n        /* \"#utility.yul\":6895:6896   */\n      0x00\n        /* \"#utility.yul\":6884:6893   */\n      dup4\n        /* \"#utility.yul\":6880:6897   */\n      add\n        /* \"#utility.yul\":6873:6920   */\n      mstore\n        /* \"#utility.yul\":6937:7068   */\n      tag_194\n        /* \"#utility.yul\":7063:7067   */\n      dup2\n        /* \"#utility.yul\":6937:7068   */\n      tag_142\n      jump\t// in\n    tag_194:\n        /* \"#utility.yul\":6929:7068   */\n      swap1\n      pop\n        /* \"#utility.yul\":6656:7075   */\n      swap2\n      swap1\n      pop\n      jump\t// out\n        /* \"#utility.yul\":7081:7500   */\n    tag_66:\n        /* \"#utility.yul\":7247:7251   */\n      0x00\n        /* \"#utility.yul\":7285:7287   */\n      0x20\n        /* \"#utility.yul\":7274:7283   */\n      dup3\n        /* \"#utility.yul\":7270:7288   */\n      add\n        /* \"#utility.yul\":7262:7288   */\n      swap1\n      pop\n        /* \"#utility.yul\":7334:7343   */\n      dup2\n        /* \"#utility.yul\":7328:7332   */\n      dup2\n        /* \"#utility.yul\":7324:7344   */\n      sub\n        /* \"#utility.yul\":7320:7321   */\n      0x00\n        /* \"#utility.yul\":7309:7318   */\n      dup4\n        /* \"#utility.yul\":7305:7322   */\n      add\n        /* \"#utility.yul\":7298:7345   */\n      mstore\n        /* \"#utility.yul\":7362:7493   */\n      tag_196\n        /* \"#utility.yul\":7488:7492   */\n      dup2\n        /* \"#utility.yul\":7362:7493   */\n      tag_148\n      jump\t// in\n    tag_196:\n        /* \"#utility.yul\":7354:7493   */\n      swap1\n      pop\n        /* \"#utility.yul\":7081:7500   */\n      swap2\n      swap1\n      pop\n      jump\t// out\n        /* \"#utility.yul\":7506:7925   */\n    tag_57:\n        /* \"#utility.yul\":7672:7676   */\n      0x00\n        /* \"#utility.yul\":7710:7712   */\n      0x20\n        /* \"#utility.yul\":7699:7708   */\n      dup3\n        /* \"#utility.yul\":7695:7713   */\n      add\n        /* \"#utility.yul\":7687:7713   */\n      swap1\n      pop\n        /* \"#utility.yul\":7759:7768   */\n      dup2\n        /* \"#utility.yul\":7753:7757   */\n      dup2\n        /* \"#utility.yul\":7749:7769   */\n      sub\n        /* \"#utility.yul\":7745:7746   */\n      0x00\n        /* \"#utility.yul\":7734:7743   */\n      dup4\n        /* \"#utility.yul\":7730:7747   */\n      add\n        /* \"#utility.yul\":7723:7770   */\n      mstore\n        /* \"#utility.yul\":7787:7918   */\n      tag_198\n        /* \"#utility.yul\":7913:7917   */\n      dup2\n        /* \"#utility.yul\":7787:7918   */\n      tag_153\n      jump\t// in\n    tag_198:\n        /* \"#utility.yul\":7779:7918   */\n      swap1\n      pop\n        /* \"#utility.yul\":7506:7925   */\n      swap2\n      swap1\n      pop\n      jump\t// out\n        /* \"#utility.yul\":7931:8350   */\n    tag_53:\n        /* \"#utility.yul\":8097:8101   */\n      0x00\n        /* \"#utility.yul\":8135:8137   */\n      0x20\n        /* \"#utility.yul\":8124:8133   */\n      dup3\n        /* \"#utility.yul\":8120:8138   */\n      add\n        /* \"#utility.yul\":8112:8138   */\n      swap1\n      pop\n        /* \"#utility.yul\":8184:8193   */\n      dup2\n        /* \"#utility.yul\":8178:8182   */\n      dup2\n        /* \"#utility.yul\":8174:8194   */\n      sub\n        /* \"#utility.yul\":8170:8171   */\n      0x00\n        /* \"#utility.yul\":8159:8168   */\n      dup4\n        /* \"#utility.yul\":8155:8172   */\n      add\n        /* \"#utility.yul\":8148:8195   */\n      mstore\n        /* \"#utility.yul\":8212:8343   */\n      tag_200\n        /* \"#utility.yul\":8338:8342   */\n      dup2\n        /* \"#utility.yul\":8212:8343   */\n      tag_158\n      jump\t// in\n    tag_200:\n        /* \"#utility.yul\":8204:8343   */\n      swap1\n      pop\n        /* \"#utility.yul\":7931:8350   */\n      swap2\n      swap1\n      pop\n      jump\t// out\n        /* \"#utility.yul\":8356:8775   */\n    tag_45:\n        /* \"#utility.yul\":8522:8526   */\n      0x00\n        /* \"#utility.yul\":8560:8562   */\n      0x20\n        /* \"#utility.yul\":8549:8558   */\n      dup3\n        /* \"#utility.yul\":8545:8563   */\n      add\n        /* \"#utility.yul\":8537:8563   */\n      swap1\n      pop\n        /* \"#utility.yul\":8609:8618   */\n      dup2\n        /* \"#utility.yul\":8603:8607   */\n      dup2\n        /* \"#utility.yul\":8599:8619   */\n      sub\n        /* \"#utility.yul\":8595:8596   */\n      0x00\n        /* \"#utility.yul\":8584:8593   */\n      dup4\n        /* \"#utility.yul\":8580:8597   */\n      add\n        /* \"#utility.yul\":8573:8620   */\n      mstore\n        /* \"#utility.yul\":8637:8768   */\n      tag_202\n        /* \"#utility.yul\":8763:8767   */\n      dup2\n        /* \"#utility.yul\":8637:8768   */\n      tag_163\n      jump\t// in\n    tag_202:\n        /* \"#utility.yul\":8629:8768   */\n      swap1\n      pop\n        /* \"#utility.yul\":8356:8775   */\n      swap2\n      swap1\n      pop\n      jump\t// out\n        /* \"#utility.yul\":8781:9200   */\n    tag_60:\n        /* \"#utility.yul\":8947:8951   */\n      0x00\n        /* \"#utility.yul\":8985:8987   */\n      0x20\n        /* \"#utility.yul\":8974:8983   */\n      dup3\n        /* \"#utility.yul\":8970:8988   */\n      add\n        /* \"#utility.yul\":8962:8988   */\n      swap1\n      pop\n        /* \"#utility.yul\":9034:9043   */\n      dup2\n        /* \"#utility.yul\":9028:9032   */\n      dup2\n        /* \"#utility.yul\":9024:9044   */\n      sub\n        /* \"#utility.yul\":9020:9021   */\n      0x00\n        /* \"#utility.yul\":9009:9018   */\n      dup4\n        /* \"#utility.yul\":9005:9022   */\n      add\n        /* \"#utility.yul\":8998:9045   */\n      mstore\n        /* \"#utility.yul\":9062:9193   */\n      tag_204\n        /* \"#utility.yul\":9188:9192   */\n      dup2\n        /* \"#utility.yul\":9062:9193   */\n      tag_168\n      jump\t// in\n    tag_204:\n        /* \"#utility.yul\":9054:9193   */\n      swap1\n      pop\n        /* \"#utility.yul\":8781:9200   */\n      swap2\n      swap1\n      pop\n      jump\t// out\n        /* \"#utility.yul\":9206:9625   */\n    tag_63:\n        /* \"#utility.yul\":9372:9376   */\n      0x00\n        /* \"#utility.yul\":9410:9412   */\n      0x20\n        /* \"#utility.yul\":9399:9408   */\n      dup3\n        /* \"#utility.yul\":9395:9413   */\n      add\n        /* \"#utility.yul\":9387:9413   */\n      swap1\n      pop\n        /* \"#utility.yul\":9459:9468   */\n      dup2\n        /* \"#utility.yul\":9453:9457   */\n      dup2\n        /* \"#utility.yul\":9449:9469   */\n      sub\n        /* \"#utility.yul\":9445:9446   */\n      0x00\n        /* \"#utility.yul\":9434:9443   */\n      dup4\n        /* \"#utility.yul\":9430:9447   */\n      add\n        /* \"#utility.yul\":9423:9470   */\n      mstore\n        /* \"#utility.yul\":9487:9618   */\n      tag_206\n        /* \"#utility.yul\":9613:9617   */\n      dup2\n        /* \"#utility.yul\":9487:9618   */\n      tag_173\n      jump\t// in\n    tag_206:\n        /* \"#utility.yul\":9479:9618   */\n      swap1\n      pop\n        /* \"#utility.yul\":9206:9625   */\n      swap2\n      swap1\n      pop\n      jump\t// out\n        /* \"#utility.yul\":9631:10050   */\n    tag_90:\n        /* \"#utility.yul\":9797:9801   */\n      0x00\n        /* \"#utility.yul\":9835:9837   */\n      0x20\n        /* \"#utility.yul\":9824:9833   */\n      dup3\n        /* \"#utility.yul\":9820:9838   */\n      add\n        /* \"#utility.yul\":9812:9838   */\n      swap1\n      pop\n        /* \"#utility.yul\":9884:9893   */\n      dup2\n        /* \"#utility.yul\":9878:9882   */\n      dup2\n        /* \"#utility.yul\":9874:9894   */\n      sub\n        /* \"#utility.yul\":9870:9871   */\n      0x00\n        /* \"#utility.yul\":9859:9868   */\n      dup4\n        /* \"#utility.yul\":9855:9872   */\n      add\n        /* \"#utility.yul\":9848:9895   */\n      mstore\n        /* \"#utility.yul\":9912:10043   */\n      tag_208\n        /* \"#utility.yul\":10038:10042   */\n      dup2\n        /* \"#utility.yul\":9912:10043   */\n      tag_178\n      jump\t// in\n    tag_208:\n        /* \"#utility.yul\":9904:10043   */\n      swap1\n      pop\n        /* \"#utility.yul\":9631:10050   */\n      swap2\n      swap1\n      pop\n      jump\t// out\n        /* \"#utility.yul\":10056:10278   */\n    tag_16:\n        /* \"#utility.yul\":10149:10153   */\n      0x00\n        /* \"#utility.yul\":10187:10189   */\n      0x20\n        /* \"#utility.yul\":10176:10185   */\n      dup3\n        /* \"#utility.yul\":10172:10190   */\n      add\n        /* \"#utility.yul\":10164:10190   */\n      swap1\n      pop\n        /* \"#utility.yul\":10200:10271   */\n      tag_210\n        /* \"#utility.yul\":10268:10269   */\n      0x00\n        /* \"#utility.yul\":10257:10266   */\n      dup4\n        /* \"#utility.yul\":10253:10270   */\n      add\n        /* \"#utility.yul\":10244:10250   */\n      dup5\n        /* \"#utility.yul\":10200:10271   */\n      tag_183\n      jump\t// in\n    tag_210:\n        /* \"#utility.yul\":10056:10278   */\n      swap3\n      swap2\n      pop\n      pop\n      jump\t// out\n        /* \"#utility.yul\":10284:11059   */\n    tag_94:\n        /* \"#utility.yul\":10517:10521   */\n      0x00\n        /* \"#utility.yul\":10555:10558   */\n      0xc0\n        /* \"#utility.yul\":10544:10553   */\n      dup3\n        /* \"#utility.yul\":10540:10559   */\n      add\n        /* \"#utility.yul\":10532:10559   */\n      swap1\n      pop\n        /* \"#utility.yul\":10569:10640   */\n      tag_212\n        /* \"#utility.yul\":10637:10638   */\n      0x00\n        /* \"#utility.yul\":10626:10635   */\n      dup4\n        /* \"#utility.yul\":10622:10639   */\n      add\n        /* \"#utility.yul\":10613:10619   */\n      dup10\n        /* \"#utility.yul\":10569:10640   */\n      tag_183\n      jump\t// in\n    tag_212:\n        /* \"#utility.yul\":10650:10722   */\n      tag_213\n        /* \"#utility.yul\":10718:10720   */\n      0x20\n        /* \"#utility.yul\":10707:10716   */\n      dup4\n        /* \"#utility.yul\":10703:10721   */\n      add\n        /* \"#utility.yul\":10694:10700   */\n      dup9\n        /* \"#utility.yul\":10650:10722   */\n      tag_183\n      jump\t// in\n    tag_213:\n        /* \"#utility.yul\":10732:10804   */\n      tag_214\n        /* \"#utility.yul\":10800:10802   */\n      0x40\n        /* \"#utility.yul\":10789:10798   */\n      dup4\n        /* \"#utility.yul\":10785:10803   */\n      add\n        /* \"#utility.yul\":10776:10782   */\n      dup8\n        /* \"#utility.yul\":10732:10804   */\n      tag_183\n      jump\t// in\n    tag_214:\n        /* \"#utility.yul\":10814:10886   */\n      tag_215\n        /* \"#utility.yul\":10882:10884   */\n      0x60\n        /* \"#utility.yul\":10871:10880   */\n      dup4\n        /* \"#utility.yul\":10867:10885   */\n      add\n        /* \"#utility.yul\":10858:10864   */\n      dup7\n        /* \"#utility.yul\":10814:10886   */\n      tag_134\n      jump\t// in\n    tag_215:\n        /* \"#utility.yul\":10896:10969   */\n      tag_216\n        /* \"#utility.yul\":10964:10967   */\n      0x80\n        /* \"#utility.yul\":10953:10962   */\n      dup4\n        /* \"#utility.yul\":10949:10968   */\n      add\n        /* \"#utility.yul\":10940:10946   */\n      dup6\n        /* \"#utility.yul\":10896:10969   */\n      tag_134\n      jump\t// in\n    tag_216:\n        /* \"#utility.yul\":10979:11052   */\n      tag_217\n        /* \"#utility.yul\":11047:11050   */\n      0xa0\n        /* \"#utility.yul\":11036:11045   */\n      dup4\n        /* \"#utility.yul\":11032:11051   */\n      add\n        /* \"#utility.yul\":11023:11029   */\n      dup5\n        /* \"#utility.yul\":10979:11052   */\n      tag_183\n      jump\t// in\n    tag_217:\n        /* \"#utility.yul\":10284:11059   */\n      swap8\n      swap7\n      pop\n      pop\n      pop\n      pop\n      pop\n      pop\n      pop\n      jump\t// out\n        /* \"#utility.yul\":11065:11721   */\n    tag_78:\n        /* \"#utility.yul\":11266:11270   */\n      0x00\n        /* \"#utility.yul\":11304:11307   */\n      0xa0\n        /* \"#utility.yul\":11293:11302   */\n      dup3\n        /* \"#utility.yul\":11289:11308   */\n      add\n        /* \"#utility.yul\":11281:11308   */\n      swap1\n      pop\n        /* \"#utility.yul\":11318:11389   */\n      tag_219\n        /* \"#utility.yul\":11386:11387   */\n      0x00\n        /* \"#utility.yul\":11375:11384   */\n      dup4\n        /* \"#utility.yul\":11371:11388   */\n      add\n        /* \"#utility.yul\":11362:11368   */\n      dup9\n        /* \"#utility.yul\":11318:11389   */\n      tag_183\n      jump\t// in\n    tag_219:\n        /* \"#utility.yul\":11399:11471   */\n      tag_220\n        /* \"#utility.yul\":11467:11469   */\n      0x20\n        /* \"#utility.yul\":11456:11465   */\n      dup4\n        /* \"#utility.yul\":11452:11470   */\n      add\n        /* \"#utility.yul\":11443:11449   */\n      dup8\n        /* \"#utility.yul\":11399:11471   */\n      tag_183\n      jump\t// in\n    tag_220:\n        /* \"#utility.yul\":11481:11553   */\n      tag_221\n        /* \"#utility.yul\":11549:11551   */\n      0x40\n        /* \"#utility.yul\":11538:11547   */\n      dup4\n        /* \"#utility.yul\":11534:11552   */\n      add\n        /* \"#utility.yul\":11525:11531   */\n      dup7\n        /* \"#utility.yul\":11481:11553   */\n      tag_183\n      jump\t// in\n    tag_221:\n        /* \"#utility.yul\":11563:11635   */\n      tag_222\n        /* \"#utility.yul\":11631:11633   */\n      0x60\n        /* \"#utility.yul\":11620:11629   */\n      dup4\n        /* \"#utility.yul\":11616:11634   */\n      add\n        /* \"#utility.yul\":11607:11613   */\n      dup6\n        /* \"#utility.yul\":11563:11635   */\n      tag_134\n      jump\t// in\n    tag_222:\n        /* \"#utility.yul\":11645:11714   */\n      tag_223\n        /* \"#utility.yul\":11709:11712   */\n      0x80\n        /* \"#utility.yul\":11698:11707   */\n      dup4\n        /* \"#utility.yul\":11694:11713   */\n      add\n        /* \"#utility.yul\":11685:11691   */\n      dup5\n        /* \"#utility.yul\":11645:11714   */\n      tag_187\n      jump\t// in\n    tag_223:\n        /* \"#utility.yul\":11065:11721   */\n      swap7\n      swap6\n      pop\n      pop\n      pop\n      pop\n      pop\n      pop\n      jump\t// out\n        /* \"#utility.yul\":11727:12272   */\n    tag_85:\n        /* \"#utility.yul\":11900:11904   */\n      0x00\n        /* \"#utility.yul\":11938:11941   */\n      0x80\n        /* \"#utility.yul\":11927:11936   */\n      dup3\n        /* \"#utility.yul\":11923:11942   */\n      add\n        /* \"#utility.yul\":11915:11942   */\n      swap1\n      pop\n        /* \"#utility.yul\":11952:12023   */\n      tag_225\n        /* \"#utility.yul\":12020:12021   */\n      0x00\n        /* \"#utility.yul\":12009:12018   */\n      dup4\n        /* \"#utility.yul\":12005:12022   */\n      add\n        /* \"#utility.yul\":11996:12002   */\n      dup8\n        /* \"#utility.yul\":11952:12023   */\n      tag_183\n      jump\t// in\n    tag_225:\n        /* \"#utility.yul\":12033:12105   */\n      tag_226\n        /* \"#utility.yul\":12101:12103   */\n      0x20\n        /* \"#utility.yul\":12090:12099   */\n      dup4\n        /* \"#utility.yul\":12086:12104   */\n      add\n        /* \"#utility.yul\":12077:12083   */\n      dup7\n        /* \"#utility.yul\":12033:12105   */\n      tag_183\n      jump\t// in\n    tag_226:\n        /* \"#utility.yul\":12115:12187   */\n      tag_227\n        /* \"#utility.yul\":12183:12185   */\n      0x40\n        /* \"#utility.yul\":12172:12181   */\n      dup4\n        /* \"#utility.yul\":12168:12186   */\n      add\n        /* \"#utility.yul\":12159:12165   */\n      dup6\n        /* \"#utility.yul\":12115:12187   */\n      tag_183\n      jump\t// in\n    tag_227:\n        /* \"#utility.yul\":12197:12265   */\n      tag_228\n        /* \"#utility.yul\":12261:12263   */\n      0x60\n        /* \"#utility.yul\":12250:12259   */\n      dup4\n        /* \"#utility.yul\":12246:12264   */\n      add\n        /* \"#utility.yul\":12237:12243   */\n      dup5\n        /* \"#utility.yul\":12197:12265   */\n      tag_187\n      jump\t// in\n    tag_228:\n        /* \"#utility.yul\":11727:12272   */\n      swap6\n      swap5\n      pop\n      pop\n      pop\n      pop\n      pop\n      jump\t// out\n        /* \"#utility.yul\":12359:12528   */\n    tag_145:\n        /* \"#utility.yul\":12443:12454   */\n      0x00\n        /* \"#utility.yul\":12477:12483   */\n      dup3\n        /* \"#utility.yul\":12472:12475   */\n      dup3\n        /* \"#utility.yul\":12465:12484   */\n      mstore\n        /* \"#utility.yul\":12517:12521   */\n      0x20\n        /* \"#utility.yul\":12512:12515   */\n      dup3\n        /* \"#utility.yul\":12508:12522   */\n      add\n        /* \"#utility.yul\":12493:12522   */\n      swap1\n      pop\n        /* \"#utility.yul\":12359:12528   */\n      swap3\n      swap2\n      pop\n      pop\n      jump\t// out\n        /* \"#utility.yul\":12534:12630   */\n    tag_137:\n        /* \"#utility.yul\":12571:12578   */\n      0x00\n        /* \"#utility.yul\":12600:12624   */\n      tag_233\n        /* \"#utility.yul\":12618:12623   */\n      dup3\n        /* \"#utility.yul\":12600:12624   */\n      tag_234\n      jump\t// in\n    tag_233:\n        /* \"#utility.yul\":12589:12624   */\n      swap1\n      pop\n        /* \"#utility.yul\":12534:12630   */\n      swap2\n      swap1\n      pop\n      jump\t// out\n        /* \"#utility.yul\":12636:12779   */\n    tag_235:\n        /* \"#utility.yul\":12689:12696   */\n      0x00\n        /* \"#utility.yul\":12718:12723   */\n      dup2\n        /* \"#utility.yul\":12707:12723   */\n      swap1\n      pop\n        /* \"#utility.yul\":12724:12773   */\n      tag_237\n        /* \"#utility.yul\":12767:12772   */\n      dup3\n        /* \"#utility.yul\":12724:12773   */\n      tag_238\n      jump\t// in\n    tag_237:\n        /* \"#utility.yul\":12636:12779   */\n      swap2\n      swap1\n      pop\n      jump\t// out\n        /* \"#utility.yul\":12785:12911   */\n    tag_234:\n        /* \"#utility.yul\":12822:12829   */\n      0x00\n        /* \"#utility.yul\":12862:12904   */\n      0xffffffffffffffffffffffffffffffffffffffff\n        /* \"#utility.yul\":12855:12860   */\n      dup3\n        /* \"#utility.yul\":12851:12905   */\n      and\n        /* \"#utility.yul\":12840:12905   */\n      swap1\n      pop\n        /* \"#utility.yul\":12785:12911   */\n      swap2\n      swap1\n      pop\n      jump\t// out\n        /* \"#utility.yul\":12917:12994   */\n    tag_186:\n        /* \"#utility.yul\":12954:12961   */\n      0x00\n        /* \"#utility.yul\":12983:12988   */\n      dup2\n        /* \"#utility.yul\":12972:12988   */\n      swap1\n      pop\n        /* \"#utility.yul\":12917:12994   */\n      swap2\n      swap1\n      pop\n      jump\t// out\n        /* \"#utility.yul\":13000:13086   */\n    tag_190:\n        /* \"#utility.yul\":13035:13042   */\n      0x00\n        /* \"#utility.yul\":13075:13079   */\n      0xff\n        /* \"#utility.yul\":13068:13073   */\n      dup3\n        /* \"#utility.yul\":13064:13080   */\n      and\n        /* \"#utility.yul\":13053:13080   */\n      swap1\n      pop\n        /* \"#utility.yul\":13000:13086   */\n      swap2\n      swap1\n      pop\n      jump\t// out\n        /* \"#utility.yul\":13092:13235   */\n    tag_141:\n        /* \"#utility.yul\":13156:13165   */\n      0x00\n        /* \"#utility.yul\":13189:13229   */\n      tag_243\n        /* \"#utility.yul\":13223:13228   */\n      dup3\n        /* \"#utility.yul\":13189:13229   */\n      tag_235\n      jump\t// in\n    tag_243:\n        /* \"#utility.yul\":13176:13229   */\n      swap1\n      pop\n        /* \"#utility.yul\":13092:13235   */\n      swap2\n      swap1\n      pop\n      jump\t// out\n        /* \"#utility.yul\":13241:13474   */\n    tag_73:\n        /* \"#utility.yul\":13280:13283   */\n      0x00\n        /* \"#utility.yul\":13303:13327   */\n      tag_245\n        /* \"#utility.yul\":13321:13326   */\n      dup3\n        /* \"#utility.yul\":13303:13327   */\n      tag_186\n      jump\t// in\n    tag_245:\n        /* \"#utility.yul\":13294:13327   */\n      swap2\n      pop\n        /* \"#utility.yul\":13349:13415   */\n      0xffffffffffffffffffffffffffffffffffffffffffffffffffffffffffffffff\n        /* \"#utility.yul\":13342:13347   */\n      dup3\n        /* \"#utility.yul\":13339:13416   */\n      eq\n        /* \"#utility.yul\":13336:13439   */\n      iszero\n      tag_246\n      jumpi\n        /* \"#utility.yul\":13419:13437   */\n      tag_247\n      tag_248\n      jump\t// in\n    tag_247:\n        /* \"#utility.yul\":13336:13439   */\n    tag_246:\n        /* \"#utility.yul\":13466:13467   */\n      0x01\n        /* \"#utility.yul\":13459:13464   */\n      dup3\n        /* \"#utility.yul\":13455:13468   */\n      add\n        /* \"#utility.yul\":13448:13468   */\n      swap1\n      pop\n        /* \"#utility.yul\":13241:13474   */\n      swap2\n      swap1\n      pop\n      jump\t// out\n        /* \"#utility.yul\":13480:13660   */\n    tag_248:\n        /* \"#utility.yul\":13528:13605   */\n      0x4e487b7100000000000000000000000000000000000000000000000000000000\n        /* \"#utility.yul\":13525:13526   */\n      0x00\n        /* \"#utility.yul\":13518:13606   */\n      mstore\n        /* \"#utility.yul\":13625:13629   */\n      0x11\n        /* \"#utility.yul\":13622:13623   */\n      0x04\n        /* \"#utility.yul\":13615:13630   */\n      mstore\n        /* \"#utility.yul\":13649:13653   */\n      0x24\n        /* \"#utility.yul\":13646:13647   */\n      0x00\n        /* \"#utility.yul\":13639:13654   */\n      revert\n        /* \"#utility.yul\":13666:13846   */\n    tag_48:\n        /* \"#utility.yul\":13714:13791   */\n      0x4e487b7100000000000000000000000000000000000000000000000000000000\n        /* \"#utility.yul\":13711:13712   */\n      0x00\n        /* \"#utility.yul\":13704:13792   */\n      mstore\n        /* \"#utility.yul\":13811:13815   */\n      0x21\n        /* \"#utility.yul\":13808:13809   */\n      0x04\n        /* \"#utility.yul\":13801:13816   */\n      mstore\n        /* \"#utility.yul\":13835:13839   */\n      0x24\n        /* \"#utility.yul\":13832:13833   */\n      0x00\n        /* \"#utility.yul\":13825:13840   */\n      revert\n        /* \"#utility.yul\":13975:14092   */\n    tag_114:\n        /* \"#utility.yul\":14084:14085   */\n      0x00\n        /* \"#utility.yul\":14081:14082   */\n      dup1\n        /* \"#utility.yul\":14074:14086   */\n      revert\n        /* \"#utility.yul\":14098:14409   */\n    tag_147:\n        /* \"#utility.yul\":14238:14272   */\n      0x596f752068617665206e6f7420696e707574206120726967687420766f74652e\n        /* \"#utility.yul\":14234:14235   */\n      0x00\n        /* \"#utility.yul\":14226:14232   */\n      dup3\n        /* \"#utility.yul\":14222:14236   */\n      add\n        /* \"#utility.yul\":14215:14273   */\n      mstore\n        /* \"#utility.yul\":14307:14341   */\n      0x20596f752063616e2065697468657220766f7465203120666f72205265717565\n        /* \"#utility.yul\":14302:14304   */\n      0x20\n        /* \"#utility.yul\":14294:14300   */\n      dup3\n        /* \"#utility.yul\":14290:14305   */\n      add\n        /* \"#utility.yul\":14283:14342   */\n      mstore\n        /* \"#utility.yul\":14376:14401   */\n      0x73746572206f72203220666f722050726f76696465722e000000000000000000\n        /* \"#utility.yul\":14371:14373   */\n      0x40\n        /* \"#utility.yul\":14363:14369   */\n      dup3\n        /* \"#utility.yul\":14359:14374   */\n      add\n        /* \"#utility.yul\":14352:14402   */\n      mstore\n        /* \"#utility.yul\":14098:14409   */\n      pop\n      jump\t// out\n        /* \"#utility.yul\":14415:14647   */\n    tag_152:\n        /* \"#utility.yul\":14555:14589   */\n      0x596f75206861766520616c726561647920766f7465642c20796f752063616e6e\n        /* \"#utility.yul\":14551:14552   */\n      0x00\n        /* \"#utility.yul\":14543:14549   */\n      dup3\n        /* \"#utility.yul\":14539:14553   */\n      add\n        /* \"#utility.yul\":14532:14590   */\n      mstore\n        /* \"#utility.yul\":14624:14639   */\n      0x6f7420766f746520616761696e00000000000000000000000000000000000000\n        /* \"#utility.yul\":14619:14621   */\n      0x20\n        /* \"#utility.yul\":14611:14617   */\n      dup3\n        /* \"#utility.yul\":14607:14622   */\n      add\n        /* \"#utility.yul\":14600:14640   */\n      mstore\n        /* \"#utility.yul\":14415:14647   */\n      pop\n      jump\t// out\n        /* \"#utility.yul\":14653:14888   */\n    tag_157:\n        /* \"#utility.yul\":14793:14827   */\n      0x596f7520726169736564207468697320636f6e666c6963742e20596f75206361\n        /* \"#utility.yul\":14789:14790   */\n      0x00\n        /* \"#utility.yul\":14781:14787   */\n      dup3\n        /* \"#utility.yul\":14777:14791   */\n      add\n        /* \"#utility.yul\":14770:14828   */\n      mstore\n        /* \"#utility.yul\":14862:14880   */\n      0x6e6e6f7420766f7465206f6e2069742e00000000000000000000000000000000\n        /* \"#utility.yul\":14857:14859   */\n      0x20\n        /* \"#utility.yul\":14849:14855   */\n      dup3\n        /* \"#utility.yul\":14845:14860   */\n      add\n        /* \"#utility.yul\":14838:14881   */\n      mstore\n        /* \"#utility.yul\":14653:14888   */\n      pop\n      jump\t// out\n        /* \"#utility.yul\":14894:15142   */\n    tag_162:\n        /* \"#utility.yul\":15034:15068   */\n      0x566f74696e6720686173206e6f74206265656e20636f6d706c65746564207965\n        /* \"#utility.yul\":15030:15031   */\n      0x00\n        /* \"#utility.yul\":15022:15028   */\n      dup3\n        /* \"#utility.yul\":15018:15032   */\n      add\n        /* \"#utility.yul\":15011:15069   */\n      mstore\n        /* \"#utility.yul\":15103:15134   */\n      0x742e20506c65617365207761697420666f7220697420746f20656e642e000000\n        /* \"#utility.yul\":15098:15100   */\n      0x20\n        /* \"#utility.yul\":15090:15096   */\n      dup3\n        /* \"#utility.yul\":15086:15101   */\n      add\n        /* \"#utility.yul\":15079:15135   */\n      mstore\n        /* \"#utility.yul\":14894:15142   */\n      pop\n      jump\t// out\n        /* \"#utility.yul\":15148:15446   */\n    tag_167:\n        /* \"#utility.yul\":15288:15322   */\n      0x4e6f742065766572796f6e652068617320766f7465642c20706c656173652070\n        /* \"#utility.yul\":15284:15285   */\n      0x00\n        /* \"#utility.yul\":15276:15282   */\n      dup3\n        /* \"#utility.yul\":15272:15286   */\n      add\n        /* \"#utility.yul\":15265:15323   */\n      mstore\n        /* \"#utility.yul\":15357:15391   */\n      0x726f6d707420616c6c206f74686572206d656d62657273206f662070726f6a65\n        /* \"#utility.yul\":15352:15354   */\n      0x20\n        /* \"#utility.yul\":15344:15350   */\n      dup3\n        /* \"#utility.yul\":15340:15355   */\n      add\n        /* \"#utility.yul\":15333:15392   */\n      mstore\n        /* \"#utility.yul\":15426:15438   */\n      0x637420746f20766f746500000000000000000000000000000000000000000000\n        /* \"#utility.yul\":15421:15423   */\n      0x40\n        /* \"#utility.yul\":15413:15419   */\n      dup3\n        /* \"#utility.yul\":15409:15424   */\n      add\n        /* \"#utility.yul\":15402:15439   */\n      mstore\n        /* \"#utility.yul\":15148:15446   */\n      pop\n      jump\t// out\n        /* \"#utility.yul\":15452:15696   */\n    tag_172:\n        /* \"#utility.yul\":15592:15626   */\n      0x596f752061726520696e766f6c76656420696e207468697320636f6e666c6963\n        /* \"#utility.yul\":15588:15589   */\n      0x00\n        /* \"#utility.yul\":15580:15586   */\n      dup3\n        /* \"#utility.yul\":15576:15590   */\n      add\n        /* \"#utility.yul\":15569:15627   */\n      mstore\n        /* \"#utility.yul\":15661:15688   */\n      0x742e20596f752063616e6e6f7420766f7465206f6e2069742e00000000000000\n        /* \"#utility.yul\":15656:15658   */\n      0x20\n        /* \"#utility.yul\":15648:15654   */\n      dup3\n        /* \"#utility.yul\":15644:15659   */\n      add\n        /* \"#utility.yul\":15637:15689   */\n      mstore\n        /* \"#utility.yul\":15452:15696   */\n      pop\n      jump\t// out\n        /* \"#utility.yul\":15702:15884   */\n    tag_177:\n        /* \"#utility.yul\":15842:15876   */\n      0x456e6f75676820766f7465732068617665206265656e20636f6c6c6563746564\n        /* \"#utility.yul\":15838:15839   */\n      0x00\n        /* \"#utility.yul\":15830:15836   */\n      dup3\n        /* \"#utility.yul\":15826:15840   */\n      add\n        /* \"#utility.yul\":15819:15877   */\n      mstore\n        /* \"#utility.yul\":15702:15884   */\n      pop\n      jump\t// out\n        /* \"#utility.yul\":15890:16191   */\n    tag_182:\n        /* \"#utility.yul\":16030:16064   */\n      0x436f6e666c6963742068617320616c7265616479206265656e20637265617465\n        /* \"#utility.yul\":16026:16027   */\n      0x00\n        /* \"#utility.yul\":16018:16024   */\n      dup3\n        /* \"#utility.yul\":16014:16028   */\n      add\n        /* \"#utility.yul\":16007:16065   */\n      mstore\n        /* \"#utility.yul\":16099:16133   */\n      0x642e20506c6561736520646f206e6f7420637265617465206d6f726520746861\n        /* \"#utility.yul\":16094:16096   */\n      0x20\n        /* \"#utility.yul\":16086:16092   */\n      dup3\n        /* \"#utility.yul\":16082:16097   */\n      add\n        /* \"#utility.yul\":16075:16134   */\n      mstore\n        /* \"#utility.yul\":16168:16183   */\n      0x6e203120636f6e666c6963742e00000000000000000000000000000000000000\n        /* \"#utility.yul\":16163:16165   */\n      0x40\n        /* \"#utility.yul\":16155:16161   */\n      dup3\n        /* \"#utility.yul\":16151:16166   */\n      add\n        /* \"#utility.yul\":16144:16184   */\n      mstore\n        /* \"#utility.yul\":15890:16191   */\n      pop\n      jump\t// out\n        /* \"#utility.yul\":16197:16318   */\n    tag_238:\n        /* \"#utility.yul\":16286:16287   */\n      0x03\n        /* \"#utility.yul\":16279:16284   */\n      dup2\n        /* \"#utility.yul\":16276:16288   */\n      lt\n        /* \"#utility.yul\":16266:16312   */\n      tag_263\n      jumpi\n        /* \"#utility.yul\":16292:16310   */\n      tag_264\n      tag_48\n      jump\t// in\n    tag_264:\n        /* \"#utility.yul\":16266:16312   */\n    tag_263:\n        /* \"#utility.yul\":16197:16318   */\n      pop\n      jump\t// out\n        /* \"#utility.yul\":16324:16446   */\n    tag_102:\n        /* \"#utility.yul\":16397:16421   */\n      tag_266\n        /* \"#utility.yul\":16415:16420   */\n      dup2\n        /* \"#utility.yul\":16397:16421   */\n      tag_137\n      jump\t// in\n    tag_266:\n        /* \"#utility.yul\":16390:16395   */\n      dup2\n        /* \"#utility.yul\":16387:16422   */\n      eq\n        /* \"#utility.yul\":16377:16440   */\n      tag_267\n      jumpi\n        /* \"#utility.yul\":16436:16437   */\n      0x00\n        /* \"#utility.yul\":16433:16434   */\n      dup1\n        /* \"#utility.yul\":16426:16438   */\n      revert\n        /* \"#utility.yul\":16377:16440   */\n    tag_267:\n        /* \"#utility.yul\":16324:16446   */\n      pop\n      jump\t// out\n        /* \"#utility.yul\":16452:16574   */\n    tag_106:\n        /* \"#utility.yul\":16525:16549   */\n      tag_269\n        /* \"#utility.yul\":16543:16548   */\n      dup2\n        /* \"#utility.yul\":16525:16549   */\n      tag_186\n      jump\t// in\n    tag_269:\n        /* \"#utility.yul\":16518:16523   */\n      dup2\n        /* \"#utility.yul\":16515:16550   */\n      eq\n        /* \"#utility.yul\":16505:16568   */\n      tag_270\n      jumpi\n        /* \"#utility.yul\":16564:16565   */\n      0x00\n        /* \"#utility.yul\":16561:16562   */\n      dup1\n        /* \"#utility.yul\":16554:16566   */\n      revert\n        /* \"#utility.yul\":16505:16568   */\n    tag_270:\n        /* \"#utility.yul\":16452:16574   */\n      pop\n      jump\t// out\n        /* \"#utility.yul\":16580:16698   */\n    tag_110:\n        /* \"#utility.yul\":16651:16673   */\n      tag_272\n        /* \"#utility.yul\":16667:16672   */\n      dup2\n        /* \"#utility.yul\":16651:16673   */\n      tag_190\n      jump\t// in\n    tag_272:\n        /* \"#utility.yul\":16644:16649   */\n      dup2\n        /* \"#utility.yul\":16641:16674   */\n      eq\n        /* \"#utility.yul\":16631:16692   */\n      tag_273\n      jumpi\n        /* \"#utility.yul\":16688:16689   */\n      0x00\n        /* \"#utility.yul\":16685:16686   */\n      dup1\n        /* \"#utility.yul\":16678:16690   */\n      revert\n        /* \"#utility.yul\":16631:16692   */\n    tag_273:\n        /* \"#utility.yul\":16580:16698   */\n      pop\n      jump\t// out\n\n    auxdata: 0xa264697066735822122062e6de394884500a5ec202d4e04ab98206ab4d363a2d3d1f409835c980c857c764736f6c63430008070033\n}\n",
				"bytecode": {
					"linkReferences": {},
					"object": "608060405234801561001057600080fd5b506115aa806100206000396000f3fe608060405234801561001057600080fd5b506004361061007d5760003560e01c806371606fb01161005b57806371606fb0146100fe5780639ac788791461011a578063cb4389ce1461014a578063e3d877181461017a5761007d565b80630366cef214610082578063153d0194146100b25780633c45fe31146100ce575b600080fd5b61009c60048036038101906100979190610c62565b6101aa565b6040516100a99190611018565b60405180910390f35b6100cc60048036038101906100c79190610d42565b610357565b005b6100e860048036038101906100e39190610c62565b6108cc565b6040516100f59190611018565b60405180910390f35b61011860048036038101906101139190610cb5565b61090f565b005b610134600480360381019061012f9190610c62565b610b4d565b6040516101419190611018565b60405180910390f35b610164600480360381019061015f9190610c62565b610b90565b6040516101719190610efd565b60405180910390f35b610194600480360381019061018f9190610c62565b610be0565b6040516101a19190611018565b60405180910390f35b6000806000858152602001908152602001600020600084815260200190815260200160002060008381526020019081526020016000206005015460008086815260200190815260200160002060008581526020019081526020016000206000848152602001908152602001600020600601541461025c576040517f08c379a000000000000000000000000000000000000000000000000000000000815260040161025390610f98565b60405180910390fd5b60028081111561026f5761026e611223565b5b6000808681526020019081526020016000206000858152602001908152602001600020600084815260200190815260200160002060040160149054906101000a900460ff1660028111156102c6576102c5611223565b5b14610306576040517f08c379a00000000000000000000000000000000000000000000000000000000081526004016102fd90610f78565b60405180910390fd5b6000808581526020019081526020016000206000848152602001908152602001600020600083815260200190815260200160002060090160019054906101000a900460ff1660ff1690509392505050565b3373ffffffffffffffffffffffffffffffffffffffff166000808681526020019081526020016000206000858152602001908152602001600020600084815260200190815260200160002060030160009054906101000a900473ffffffffffffffffffffffffffffffffffffffff1673ffffffffffffffffffffffffffffffffffffffff16141561041d576040517f08c379a000000000000000000000000000000000000000000000000000000000815260040161041490610f58565b60405180910390fd5b3373ffffffffffffffffffffffffffffffffffffffff166000808681526020019081526020016000206000858152602001908152602001600020600084815260200190815260200160002060040160009054906101000a900473ffffffffffffffffffffffffffffffffffffffff1673ffffffffffffffffffffffffffffffffffffffff1614156104e3576040517f08c379a00000000000000000000000000000000000000000000000000000000081526004016104da90610fb8565b60405180910390fd5b6000808581526020019081526020016000206000848152602001908152602001600020600083815260200190815260200160002060050154600080868152602001908152602001600020600085815260200190815260200160002060008481526020019081526020016000206006015410610593576040517f08c379a000000000000000000000000000000000000000000000000000000000815260040161058a90610fd8565b60405180910390fd5b600080600086815260200190815260200160002060008581526020019081526020016000206000848152602001908152602001600020600a0160003373ffffffffffffffffffffffffffffffffffffffff1673ffffffffffffffffffffffffffffffffffffffff16815260200190815260200160002060009054906101000a900460ff1660ff161461065a576040517f08c379a000000000000000000000000000000000000000000000000000000000815260040161065190610f38565b60405180910390fd5b60018160ff16148061066f575060028160ff16145b6106ae576040517f08c379a00000000000000000000000000000000000000000000000000000000081526004016106a590610f18565b60405180910390fd5b60008060008681526020019081526020016000206000858152602001908152602001600020600084815260200190815260200160002090508181600a0160003373ffffffffffffffffffffffffffffffffffffffff1673ffffffffffffffffffffffffffffffffffffffff16815260200190815260200160002060006101000a81548160ff021916908360ff16021790555060018260ff16141561076757806007016000815480929190610761906111ab565b91905055505b60028260ff16141561078e57806008016000815480929190610788906111ab565b91905055505b8060060160008154809291906107a3906111ab565b91905055507f20211b974adbe11ce3687d51504ce7ef1fcfbb9c00405ba7aca7b283903f345a85858533866040516107df959493929190611094565b60405180910390a18060050154816006015414156108c55780600701548160080154111561082a5760028160090160016101000a81548160ff021916908360ff160217905550610849565b60018160090160016101000a81548160ff021916908360ff1602179055505b60028160040160146101000a81548160ff0219169083600281111561087157610870611223565b5b02179055507fe59fdbc65a5dd63c529717c2a71d04b136038f05301755de242dd05990c028148585858460090160019054906101000a900460ff166040516108bc94939291906110e7565b60405180910390a15b5050505050565b6000806000858152602001908152602001600020600084815260200190815260200160002060008381526020019081526020016000206006015490509392505050565b600115156000808881526020019081526020016000206000878152602001908152602001600020600086815260200190815260200160002060090160009054906101000a900460ff161515141561099b576040517f08c379a000000000000000000000000000000000000000000000000000000000815260040161099290610ff8565b60405180910390fd5b6000806000888152602001908152602001600020600087815260200190815260200160002060008681526020019081526020016000209050868160000181905550858160010181905550848160020181905550838160030160006101000a81548173ffffffffffffffffffffffffffffffffffffffff021916908373ffffffffffffffffffffffffffffffffffffffff160217905550828160040160006101000a81548173ffffffffffffffffffffffffffffffffffffffff021916908373ffffffffffffffffffffffffffffffffffffffff16021790555060018160040160146101000a81548160ff02191690836002811115610a9c57610a9b611223565b5b021790555081816005018190555060008160060181905550600081600701819055506000816008018190555060018160090160006101000a81548160ff02191690831515021790555060008160090160016101000a81548160ff021916908360ff1602179055507ffa127411522a1139d16c2142db999e127aef2288bd98a0558006bb115666ab1b878787878787604051610b3c96959493929190611033565b60405180910390a150505050505050565b6000806000858152602001908152602001600020600084815260200190815260200160002060008381526020019081526020016000206008015490509392505050565b60008060008581526020019081526020016000206000848152602001908152602001600020600083815260200190815260200160002060040160149054906101000a900460ff1690509392505050565b6000806000858152602001908152602001600020600084815260200190815260200160002060008381526020019081526020016000206007015490509392505050565b600081359050610c328161152f565b92915050565b600081359050610c4781611546565b92915050565b600081359050610c5c8161155d565b92915050565b600080600060608486031215610c7b57610c7a611252565b5b6000610c8986828701610c38565b9350506020610c9a86828701610c38565b9250506040610cab86828701610c38565b9150509250925092565b60008060008060008060c08789031215610cd257610cd1611252565b5b6000610ce089828a01610c38565b9650506020610cf189828a01610c38565b9550506040610d0289828a01610c38565b9450506060610d1389828a01610c23565b9350506080610d2489828a01610c23565b92505060a0610d3589828a01610c38565b9150509295509295509295565b60008060008060808587031215610d5c57610d5b611252565b5b6000610d6a87828801610c38565b9450506020610d7b87828801610c38565b9350506040610d8c87828801610c38565b9250506060610d9d87828801610c4d565b91505092959194509250565b610db28161113d565b82525050565b610dc181611199565b82525050565b6000610dd460578361112c565b9150610ddf82611257565b606082019050919050565b6000610df7602d8361112c565b9150610e02826112cc565b604082019050919050565b6000610e1a60308361112c565b9150610e258261131b565b604082019050919050565b6000610e3d603d8361112c565b9150610e488261136a565b604082019050919050565b6000610e60604a8361112c565b9150610e6b826113b9565b606082019050919050565b6000610e8360398361112c565b9150610e8e8261142e565b604082019050919050565b6000610ea660208361112c565b9150610eb18261147d565b602082019050919050565b6000610ec9604d8361112c565b9150610ed4826114a6565b606082019050919050565b610ee881611182565b82525050565b610ef78161118c565b82525050565b6000602082019050610f126000830184610db8565b92915050565b60006020820190508181036000830152610f3181610dc7565b9050919050565b60006020820190508181036000830152610f5181610dea565b9050919050565b60006020820190508181036000830152610f7181610e0d565b9050919050565b60006020820190508181036000830152610f9181610e30565b9050919050565b60006020820190508181036000830152610fb181610e53565b9050919050565b60006020820190508181036000830152610fd181610e76565b9050919050565b60006020820190508181036000830152610ff181610e99565b9050919050565b6000602082019050818103600083015261101181610ebc565b9050919050565b600060208201905061102d6000830184610edf565b92915050565b600060c0820190506110486000830189610edf565b6110556020830188610edf565b6110626040830187610edf565b61106f6060830186610da9565b61107c6080830185610da9565b61108960a0830184610edf565b979650505050505050565b600060a0820190506110a96000830188610edf565b6110b66020830187610edf565b6110c36040830186610edf565b6110d06060830185610da9565b6110dd6080830184610eee565b9695505050505050565b60006080820190506110fc6000830187610edf565b6111096020830186610edf565b6111166040830185610edf565b6111236060830184610eee565b95945050505050565b600082825260208201905092915050565b600061114882611162565b9050919050565b600081905061115d8261151b565b919050565b600073ffffffffffffffffffffffffffffffffffffffff82169050919050565b6000819050919050565b600060ff82169050919050565b60006111a48261114f565b9050919050565b60006111b682611182565b91507fffffffffffffffffffffffffffffffffffffffffffffffffffffffffffffffff8214156111e9576111e86111f4565b5b600182019050919050565b7f4e487b7100000000000000000000000000000000000000000000000000000000600052601160045260246000fd5b7f4e487b7100000000000000000000000000000000000000000000000000000000600052602160045260246000fd5b600080fd5b7f596f752068617665206e6f7420696e707574206120726967687420766f74652e60008201527f20596f752063616e2065697468657220766f7465203120666f7220526571756560208201527f73746572206f72203220666f722050726f76696465722e000000000000000000604082015250565b7f596f75206861766520616c726561647920766f7465642c20796f752063616e6e60008201527f6f7420766f746520616761696e00000000000000000000000000000000000000602082015250565b7f596f7520726169736564207468697320636f6e666c6963742e20596f7520636160008201527f6e6e6f7420766f7465206f6e2069742e00000000000000000000000000000000602082015250565b7f566f74696e6720686173206e6f74206265656e20636f6d706c6574656420796560008201527f742e20506c65617365207761697420666f7220697420746f20656e642e000000602082015250565b7f4e6f742065766572796f6e652068617320766f7465642c20706c65617365207060008201527f726f6d707420616c6c206f74686572206d656d62657273206f662070726f6a6560208201527f637420746f20766f746500000000000000000000000000000000000000000000604082015250565b7f596f752061726520696e766f6c76656420696e207468697320636f6e666c696360008201527f742e20596f752063616e6e6f7420766f7465206f6e2069742e00000000000000602082015250565b7f456e6f75676820766f7465732068617665206265656e20636f6c6c6563746564600082015250565b7f436f6e666c6963742068617320616c7265616479206265656e2063726561746560008201527f642e20506c6561736520646f206e6f7420637265617465206d6f72652074686160208201527f6e203120636f6e666c6963742e00000000000000000000000000000000000000604082015250565b6003811061152c5761152b611223565b5b50565b6115388161113d565b811461154357600080fd5b50565b61154f81611182565b811461155a57600080fd5b50565b6115668161118c565b811461157157600080fd5b5056fea264697066735822122062e6de394884500a5ec202d4e04ab98206ab4d363a2d3d1f409835c980c857c764736f6c63430008070033",
					"opcodes": "PUSH1 0x80 PUSH1 0x40 MSTORE CALLVALUE DUP1 ISZERO PUSH2 0x10 JUMPI PUSH1 0x0 DUP1 REVERT JUMPDEST POP PUSH2 0x15AA DUP1 PUSH2 0x20 PUSH1 0x0 CODECOPY PUSH1 0x0 RETURN INVALID PUSH1 0x80 PUSH1 0x40 MSTORE CALLVALUE DUP1 ISZERO PUSH2 0x10 JUMPI PUSH1 0x0 DUP1 REVERT JUMPDEST POP PUSH1 0x4 CALLDATASIZE LT PUSH2 0x7D JUMPI PUSH1 0x0 CALLDATALOAD PUSH1 0xE0 SHR DUP1 PUSH4 0x71606FB0 GT PUSH2 0x5B JUMPI DUP1 PUSH4 0x71606FB0 EQ PUSH2 0xFE JUMPI DUP1 PUSH4 0x9AC78879 EQ PUSH2 0x11A JUMPI DUP1 PUSH4 0xCB4389CE EQ PUSH2 0x14A JUMPI DUP1 PUSH4 0xE3D87718 EQ PUSH2 0x17A JUMPI PUSH2 0x7D JUMP JUMPDEST DUP1 PUSH4 0x366CEF2 EQ PUSH2 0x82 JUMPI DUP1 PUSH4 0x153D0194 EQ PUSH2 0xB2 JUMPI DUP1 PUSH4 0x3C45FE31 EQ PUSH2 0xCE JUMPI JUMPDEST PUSH1 0x0 DUP1 REVERT JUMPDEST PUSH2 0x9C PUSH1 0x4 DUP1 CALLDATASIZE SUB DUP2 ADD SWAP1 PUSH2 0x97 SWAP2 SWAP1 PUSH2 0xC62 JUMP JUMPDEST PUSH2 0x1AA JUMP JUMPDEST PUSH1 0x40 MLOAD PUSH2 0xA9 SWAP2 SWAP1 PUSH2 0x1018 JUMP JUMPDEST PUSH1 0x40 MLOAD DUP1 SWAP2 SUB SWAP1 RETURN JUMPDEST PUSH2 0xCC PUSH1 0x4 DUP1 CALLDATASIZE SUB DUP2 ADD SWAP1 PUSH2 0xC7 SWAP2 SWAP1 PUSH2 0xD42 JUMP JUMPDEST PUSH2 0x357 JUMP JUMPDEST STOP JUMPDEST PUSH2 0xE8 PUSH1 0x4 DUP1 CALLDATASIZE SUB DUP2 ADD SWAP1 PUSH2 0xE3 SWAP2 SWAP1 PUSH2 0xC62 JUMP JUMPDEST PUSH2 0x8CC JUMP JUMPDEST PUSH1 0x40 MLOAD PUSH2 0xF5 SWAP2 SWAP1 PUSH2 0x1018 JUMP JUMPDEST PUSH1 0x40 MLOAD DUP1 SWAP2 SUB SWAP1 RETURN JUMPDEST PUSH2 0x118 PUSH1 0x4 DUP1 CALLDATASIZE SUB DUP2 ADD SWAP1 PUSH2 0x113 SWAP2 SWAP1 PUSH2 0xCB5 JUMP JUMPDEST PUSH2 0x90F JUMP JUMPDEST STOP JUMPDEST PUSH2 0x134 PUSH1 0x4 DUP1 CALLDATASIZE SUB DUP2 ADD SWAP1 PUSH2 0x12F SWAP2 SWAP1 PUSH2 0xC62 JUMP JUMPDEST PUSH2 0xB4D JUMP JUMPDEST PUSH1 0x40 MLOAD PUSH2 0x141 SWAP2 SWAP1 PUSH2 0x1018 JUMP JUMPDEST PUSH1 0x40 MLOAD DUP1 SWAP2 SUB SWAP1 RETURN JUMPDEST PUSH2 0x164 PUSH1 0x4 DUP1 CALLDATASIZE SUB DUP2 ADD SWAP1 PUSH2 0x15F SWAP2 SWAP1 PUSH2 0xC62 JUMP JUMPDEST PUSH2 0xB90 JUMP JUMPDEST PUSH1 0x40 MLOAD PUSH2 0x171 SWAP2 SWAP1 PUSH2 0xEFD JUMP JUMPDEST PUSH1 0x40 MLOAD DUP1 SWAP2 SUB SWAP1 RETURN JUMPDEST PUSH2 0x194 PUSH1 0x4 DUP1 CALLDATASIZE SUB DUP2 ADD SWAP1 PUSH2 0x18F SWAP2 SWAP1 PUSH2 0xC62 JUMP JUMPDEST PUSH2 0xBE0 JUMP JUMPDEST PUSH1 0x40 MLOAD PUSH2 0x1A1 SWAP2 SWAP1 PUSH2 0x1018 JUMP JUMPDEST PUSH1 0x40 MLOAD DUP1 SWAP2 SUB SWAP1 RETURN JUMPDEST PUSH1 0x0 DUP1 PUSH1 0x0 DUP6 DUP2 MSTORE PUSH1 0x20 ADD SWAP1 DUP2 MSTORE PUSH1 0x20 ADD PUSH1 0x0 KECCAK256 PUSH1 0x0 DUP5 DUP2 MSTORE PUSH1 0x20 ADD SWAP1 DUP2 MSTORE PUSH1 0x20 ADD PUSH1 0x0 KECCAK256 PUSH1 0x0 DUP4 DUP2 MSTORE PUSH1 0x20 ADD SWAP1 DUP2 MSTORE PUSH1 0x20 ADD PUSH1 0x0 KECCAK256 PUSH1 0x5 ADD SLOAD PUSH1 0x0 DUP1 DUP7 DUP2 MSTORE PUSH1 0x20 ADD SWAP1 DUP2 MSTORE PUSH1 0x20 ADD PUSH1 0x0 KECCAK256 PUSH1 0x0 DUP6 DUP2 MSTORE PUSH1 0x20 ADD SWAP1 DUP2 MSTORE PUSH1 0x20 ADD PUSH1 0x0 KECCAK256 PUSH1 0x0 DUP5 DUP2 MSTORE PUSH1 0x20 ADD SWAP1 DUP2 MSTORE PUSH1 0x20 ADD PUSH1 0x0 KECCAK256 PUSH1 0x6 ADD SLOAD EQ PUSH2 0x25C JUMPI PUSH1 0x40 MLOAD PUSH32 0x8C379A000000000000000000000000000000000000000000000000000000000 DUP2 MSTORE PUSH1 0x4 ADD PUSH2 0x253 SWAP1 PUSH2 0xF98 JUMP JUMPDEST PUSH1 0x40 MLOAD DUP1 SWAP2 SUB SWAP1 REVERT JUMPDEST PUSH1 0x2 DUP1 DUP2 GT ISZERO PUSH2 0x26F JUMPI PUSH2 0x26E PUSH2 0x1223 JUMP JUMPDEST JUMPDEST PUSH1 0x0 DUP1 DUP7 DUP2 MSTORE PUSH1 0x20 ADD SWAP1 DUP2 MSTORE PUSH1 0x20 ADD PUSH1 0x0 KECCAK256 PUSH1 0x0 DUP6 DUP2 MSTORE PUSH1 0x20 ADD SWAP1 DUP2 MSTORE PUSH1 0x20 ADD PUSH1 0x0 KECCAK256 PUSH1 0x0 DUP5 DUP2 MSTORE PUSH1 0x20 ADD SWAP1 DUP2 MSTORE PUSH1 0x20 ADD PUSH1 0x0 KECCAK256 PUSH1 0x4 ADD PUSH1 0x14 SWAP1 SLOAD SWAP1 PUSH2 0x100 EXP SWAP1 DIV PUSH1 0xFF AND PUSH1 0x2 DUP2 GT ISZERO PUSH2 0x2C6 JUMPI PUSH2 0x2C5 PUSH2 0x1223 JUMP JUMPDEST JUMPDEST EQ PUSH2 0x306 JUMPI PUSH1 0x40 MLOAD PUSH32 0x8C379A000000000000000000000000000000000000000000000000000000000 DUP2 MSTORE PUSH1 0x4 ADD PUSH2 0x2FD SWAP1 PUSH2 0xF78 JUMP JUMPDEST PUSH1 0x40 MLOAD DUP1 SWAP2 SUB SWAP1 REVERT JUMPDEST PUSH1 0x0 DUP1 DUP6 DUP2 MSTORE PUSH1 0x20 ADD SWAP1 DUP2 MSTORE PUSH1 0x20 ADD PUSH1 0x0 KECCAK256 PUSH1 0x0 DUP5 DUP2 MSTORE PUSH1 0x20 ADD SWAP1 DUP2 MSTORE PUSH1 0x20 ADD PUSH1 0x0 KECCAK256 PUSH1 0x0 DUP4 DUP2 MSTORE PUSH1 0x20 ADD SWAP1 DUP2 MSTORE PUSH1 0x20 ADD PUSH1 0x0 KECCAK256 PUSH1 0x9 ADD PUSH1 0x1 SWAP1 SLOAD SWAP1 PUSH2 0x100 EXP SWAP1 DIV PUSH1 0xFF AND PUSH1 0xFF AND SWAP1 POP SWAP4 SWAP3 POP POP POP JUMP JUMPDEST CALLER PUSH20 0xFFFFFFFFFFFFFFFFFFFFFFFFFFFFFFFFFFFFFFFF AND PUSH1 0x0 DUP1 DUP7 DUP2 MSTORE PUSH1 0x20 ADD SWAP1 DUP2 MSTORE PUSH1 0x20 ADD PUSH1 0x0 KECCAK256 PUSH1 0x0 DUP6 DUP2 MSTORE PUSH1 0x20 ADD SWAP1 DUP2 MSTORE PUSH1 0x20 ADD PUSH1 0x0 KECCAK256 PUSH1 0x0 DUP5 DUP2 MSTORE PUSH1 0x20 ADD SWAP1 DUP2 MSTORE PUSH1 0x20 ADD PUSH1 0x0 KECCAK256 PUSH1 0x3 ADD PUSH1 0x0 SWAP1 SLOAD SWAP1 PUSH2 0x100 EXP SWAP1 DIV PUSH20 0xFFFFFFFFFFFFFFFFFFFFFFFFFFFFFFFFFFFFFFFF AND PUSH20 0xFFFFFFFFFFFFFFFFFFFFFFFFFFFFFFFFFFFFFFFF AND EQ ISZERO PUSH2 0x41D JUMPI PUSH1 0x40 MLOAD PUSH32 0x8C379A000000000000000000000000000000000000000000000000000000000 DUP2 MSTORE PUSH1 0x4 ADD PUSH2 0x414 SWAP1 PUSH2 0xF58 JUMP JUMPDEST PUSH1 0x40 MLOAD DUP1 SWAP2 SUB SWAP1 REVERT JUMPDEST CALLER PUSH20 0xFFFFFFFFFFFFFFFFFFFFFFFFFFFFFFFFFFFFFFFF AND PUSH1 0x0 DUP1 DUP7 DUP2 MSTORE PUSH1 0x20 ADD SWAP1 DUP2 MSTORE PUSH1 0x20 ADD PUSH1 0x0 KECCAK256 PUSH1 0x0 DUP6 DUP2 MSTORE PUSH1 0x20 ADD SWAP1 DUP2 MSTORE PUSH1 0x20 ADD PUSH1 0x0 KECCAK256 PUSH1 0x0 DUP5 DUP2 MSTORE PUSH1 0x20 ADD SWAP1 DUP2 MSTORE PUSH1 0x20 ADD PUSH1 0x0 KECCAK256 PUSH1 0x4 ADD PUSH1 0x0 SWAP1 SLOAD SWAP1 PUSH2 0x100 EXP SWAP1 DIV PUSH20 0xFFFFFFFFFFFFFFFFFFFFFFFFFFFFFFFFFFFFFFFF AND PUSH20 0xFFFFFFFFFFFFFFFFFFFFFFFFFFFFFFFFFFFFFFFF AND EQ ISZERO PUSH2 0x4E3 JUMPI PUSH1 0x40 MLOAD PUSH32 0x8C379A000000000000000000000000000000000000000000000000000000000 DUP2 MSTORE PUSH1 0x4 ADD PUSH2 0x4DA SWAP1 PUSH2 0xFB8 JUMP JUMPDEST PUSH1 0x40 MLOAD DUP1 SWAP2 SUB SWAP1 REVERT JUMPDEST PUSH1 0x0 DUP1 DUP6 DUP2 MSTORE PUSH1 0x20 ADD SWAP1 DUP2 MSTORE PUSH1 0x20 ADD PUSH1 0x0 KECCAK256 PUSH1 0x0 DUP5 DUP2 MSTORE PUSH1 0x20 ADD SWAP1 DUP2 MSTORE PUSH1 0x20 ADD PUSH1 0x0 KECCAK256 PUSH1 0x0 DUP4 DUP2 MSTORE PUSH1 0x20 ADD SWAP1 DUP2 MSTORE PUSH1 0x20 ADD PUSH1 0x0 KECCAK256 PUSH1 0x5 ADD SLOAD PUSH1 0x0 DUP1 DUP7 DUP2 MSTORE PUSH1 0x20 ADD SWAP1 DUP2 MSTORE PUSH1 0x20 ADD PUSH1 0x0 KECCAK256 PUSH1 0x0 DUP6 DUP2 MSTORE PUSH1 0x20 ADD SWAP1 DUP2 MSTORE PUSH1 0x20 ADD PUSH1 0x0 KECCAK256 PUSH1 0x0 DUP5 DUP2 MSTORE PUSH1 0x20 ADD SWAP1 DUP2 MSTORE PUSH1 0x20 ADD PUSH1 0x0 KECCAK256 PUSH1 0x6 ADD SLOAD LT PUSH2 0x593 JUMPI PUSH1 0x40 MLOAD PUSH32 0x8C379A000000000000000000000000000000000000000000000000000000000 DUP2 MSTORE PUSH1 0x4 ADD PUSH2 0x58A SWAP1 PUSH2 0xFD8 JUMP JUMPDEST PUSH1 0x40 MLOAD DUP1 SWAP2 SUB SWAP1 REVERT JUMPDEST PUSH1 0x0 DUP1 PUSH1 0x0 DUP7 DUP2 MSTORE PUSH1 0x20 ADD SWAP1 DUP2 MSTORE PUSH1 0x20 ADD PUSH1 0x0 KECCAK256 PUSH1 0x0 DUP6 DUP2 MSTORE PUSH1 0x20 ADD SWAP1 DUP2 MSTORE PUSH1 0x20 ADD PUSH1 0x0 KECCAK256 PUSH1 0x0 DUP5 DUP2 MSTORE PUSH1 0x20 ADD SWAP1 DUP2 MSTORE PUSH1 0x20 ADD PUSH1 0x0 KECCAK256 PUSH1 0xA ADD PUSH1 0x0 CALLER PUSH20 0xFFFFFFFFFFFFFFFFFFFFFFFFFFFFFFFFFFFFFFFF AND PUSH20 0xFFFFFFFFFFFFFFFFFFFFFFFFFFFFFFFFFFFFFFFF AND DUP2 MSTORE PUSH1 0x20 ADD SWAP1 DUP2 MSTORE PUSH1 0x20 ADD PUSH1 0x0 KECCAK256 PUSH1 0x0 SWAP1 SLOAD SWAP1 PUSH2 0x100 EXP SWAP1 DIV PUSH1 0xFF AND PUSH1 0xFF AND EQ PUSH2 0x65A JUMPI PUSH1 0x40 MLOAD PUSH32 0x8C379A000000000000000000000000000000000000000000000000000000000 DUP2 MSTORE PUSH1 0x4 ADD PUSH2 0x651 SWAP1 PUSH2 0xF38 JUMP JUMPDEST PUSH1 0x40 MLOAD DUP1 SWAP2 SUB SWAP1 REVERT JUMPDEST PUSH1 0x1 DUP2 PUSH1 0xFF AND EQ DUP1 PUSH2 0x66F JUMPI POP PUSH1 0x2 DUP2 PUSH1 0xFF AND EQ JUMPDEST PUSH2 0x6AE JUMPI PUSH1 0x40 MLOAD PUSH32 0x8C379A000000000000000000000000000000000000000000000000000000000 DUP2 MSTORE PUSH1 0x4 ADD PUSH2 0x6A5 SWAP1 PUSH2 0xF18 JUMP JUMPDEST PUSH1 0x40 MLOAD DUP1 SWAP2 SUB SWAP1 REVERT JUMPDEST PUSH1 0x0 DUP1 PUSH1 0x0 DUP7 DUP2 MSTORE PUSH1 0x20 ADD SWAP1 DUP2 MSTORE PUSH1 0x20 ADD PUSH1 0x0 KECCAK256 PUSH1 0x0 DUP6 DUP2 MSTORE PUSH1 0x20 ADD SWAP1 DUP2 MSTORE PUSH1 0x20 ADD PUSH1 0x0 KECCAK256 PUSH1 0x0 DUP5 DUP2 MSTORE PUSH1 0x20 ADD SWAP1 DUP2 MSTORE PUSH1 0x20 ADD PUSH1 0x0 KECCAK256 SWAP1 POP DUP2 DUP2 PUSH1 0xA ADD PUSH1 0x0 CALLER PUSH20 0xFFFFFFFFFFFFFFFFFFFFFFFFFFFFFFFFFFFFFFFF AND PUSH20 0xFFFFFFFFFFFFFFFFFFFFFFFFFFFFFFFFFFFFFFFF AND DUP2 MSTORE PUSH1 0x20 ADD SWAP1 DUP2 MSTORE PUSH1 0x20 ADD PUSH1 0x0 KECCAK256 PUSH1 0x0 PUSH2 0x100 EXP DUP2 SLOAD DUP2 PUSH1 0xFF MUL NOT AND SWAP1 DUP4 PUSH1 0xFF AND MUL OR SWAP1 SSTORE POP PUSH1 0x1 DUP3 PUSH1 0xFF AND EQ ISZERO PUSH2 0x767 JUMPI DUP1 PUSH1 0x7 ADD PUSH1 0x0 DUP2 SLOAD DUP1 SWAP3 SWAP2 SWAP1 PUSH2 0x761 SWAP1 PUSH2 0x11AB JUMP JUMPDEST SWAP2 SWAP1 POP SSTORE POP JUMPDEST PUSH1 0x2 DUP3 PUSH1 0xFF AND EQ ISZERO PUSH2 0x78E JUMPI DUP1 PUSH1 0x8 ADD PUSH1 0x0 DUP2 SLOAD DUP1 SWAP3 SWAP2 SWAP1 PUSH2 0x788 SWAP1 PUSH2 0x11AB JUMP JUMPDEST SWAP2 SWAP1 POP SSTORE POP JUMPDEST DUP1 PUSH1 0x6 ADD PUSH1 0x0 DUP2 SLOAD DUP1 SWAP3 SWAP2 SWAP1 PUSH2 0x7A3 SWAP1 PUSH2 0x11AB JUMP JUMPDEST SWAP2 SWAP1 POP SSTORE POP PUSH32 0x20211B974ADBE11CE3687D51504CE7EF1FCFBB9C00405BA7ACA7B283903F345A DUP6 DUP6 DUP6 CALLER DUP7 PUSH1 0x40 MLOAD PUSH2 0x7DF SWAP6 SWAP5 SWAP4 SWAP3 SWAP2 SWAP1 PUSH2 0x1094 JUMP JUMPDEST PUSH1 0x40 MLOAD DUP1 SWAP2 SUB SWAP1 LOG1 DUP1 PUSH1 0x5 ADD SLOAD DUP2 PUSH1 0x6 ADD SLOAD EQ ISZERO PUSH2 0x8C5 JUMPI DUP1 PUSH1 0x7 ADD SLOAD DUP2 PUSH1 0x8 ADD SLOAD GT ISZERO PUSH2 0x82A JUMPI PUSH1 0x2 DUP2 PUSH1 0x9 ADD PUSH1 0x1 PUSH2 0x100 EXP DUP2 SLOAD DUP2 PUSH1 0xFF MUL NOT AND SWAP1 DUP4 PUSH1 0xFF AND MUL OR SWAP1 SSTORE POP PUSH2 0x849 JUMP JUMPDEST PUSH1 0x1 DUP2 PUSH1 0x9 ADD PUSH1 0x1 PUSH2 0x100 EXP DUP2 SLOAD DUP2 PUSH1 0xFF MUL NOT AND SWAP1 DUP4 PUSH1 0xFF AND MUL OR SWAP1 SSTORE POP JUMPDEST PUSH1 0x2 DUP2 PUSH1 0x4 ADD PUSH1 0x14 PUSH2 0x100 EXP DUP2 SLOAD DUP2 PUSH1 0xFF MUL NOT AND SWAP1 DUP4 PUSH1 0x2 DUP2 GT ISZERO PUSH2 0x871 JUMPI PUSH2 0x870 PUSH2 0x1223 JUMP JUMPDEST JUMPDEST MUL OR SWAP1 SSTORE POP PUSH32 0xE59FDBC65A5DD63C529717C2A71D04B136038F05301755DE242DD05990C02814 DUP6 DUP6 DUP6 DUP5 PUSH1 0x9 ADD PUSH1 0x1 SWAP1 SLOAD SWAP1 PUSH2 0x100 EXP SWAP1 DIV PUSH1 0xFF AND PUSH1 0x40 MLOAD PUSH2 0x8BC SWAP5 SWAP4 SWAP3 SWAP2 SWAP1 PUSH2 0x10E7 JUMP JUMPDEST PUSH1 0x40 MLOAD DUP1 SWAP2 SUB SWAP1 LOG1 JUMPDEST POP POP POP POP POP JUMP JUMPDEST PUSH1 0x0 DUP1 PUSH1 0x0 DUP6 DUP2 MSTORE PUSH1 0x20 ADD SWAP1 DUP2 MSTORE PUSH1 0x20 ADD PUSH1 0x0 KECCAK256 PUSH1 0x0 DUP5 DUP2 MSTORE PUSH1 0x20 ADD SWAP1 DUP2 MSTORE PUSH1 0x20 ADD PUSH1 0x0 KECCAK256 PUSH1 0x0 DUP4 DUP2 MSTORE PUSH1 0x20 ADD SWAP1 DUP2 MSTORE PUSH1 0x20 ADD PUSH1 0x0 KECCAK256 PUSH1 0x6 ADD SLOAD SWAP1 POP SWAP4 SWAP3 POP POP POP JUMP JUMPDEST PUSH1 0x1 ISZERO ISZERO PUSH1 0x0 DUP1 DUP9 DUP2 MSTORE PUSH1 0x20 ADD SWAP1 DUP2 MSTORE PUSH1 0x20 ADD PUSH1 0x0 KECCAK256 PUSH1 0x0 DUP8 DUP2 MSTORE PUSH1 0x20 ADD SWAP1 DUP2 MSTORE PUSH1 0x20 ADD PUSH1 0x0 KECCAK256 PUSH1 0x0 DUP7 DUP2 MSTORE PUSH1 0x20 ADD SWAP1 DUP2 MSTORE PUSH1 0x20 ADD PUSH1 0x0 KECCAK256 PUSH1 0x9 ADD PUSH1 0x0 SWAP1 SLOAD SWAP1 PUSH2 0x100 EXP SWAP1 DIV PUSH1 0xFF AND ISZERO ISZERO EQ ISZERO PUSH2 0x99B JUMPI PUSH1 0x40 MLOAD PUSH32 0x8C379A000000000000000000000000000000000000000000000000000000000 DUP2 MSTORE PUSH1 0x4 ADD PUSH2 0x992 SWAP1 PUSH2 0xFF8 JUMP JUMPDEST PUSH1 0x40 MLOAD DUP1 SWAP2 SUB SWAP1 REVERT JUMPDEST PUSH1 0x0 DUP1 PUSH1 0x0 DUP9 DUP2 MSTORE PUSH1 0x20 ADD SWAP1 DUP2 MSTORE PUSH1 0x20 ADD PUSH1 0x0 KECCAK256 PUSH1 0x0 DUP8 DUP2 MSTORE PUSH1 0x20 ADD SWAP1 DUP2 MSTORE PUSH1 0x20 ADD PUSH1 0x0 KECCAK256 PUSH1 0x0 DUP7 DUP2 MSTORE PUSH1 0x20 ADD SWAP1 DUP2 MSTORE PUSH1 0x20 ADD PUSH1 0x0 KECCAK256 SWAP1 POP DUP7 DUP2 PUSH1 0x0 ADD DUP2 SWAP1 SSTORE POP DUP6 DUP2 PUSH1 0x1 ADD DUP2 SWAP1 SSTORE POP DUP5 DUP2 PUSH1 0x2 ADD DUP2 SWAP1 SSTORE POP DUP4 DUP2 PUSH1 0x3 ADD PUSH1 0x0 PUSH2 0x100 EXP DUP2 SLOAD DUP2 PUSH20 0xFFFFFFFFFFFFFFFFFFFFFFFFFFFFFFFFFFFFFFFF MUL NOT AND SWAP1 DUP4 PUSH20 0xFFFFFFFFFFFFFFFFFFFFFFFFFFFFFFFFFFFFFFFF AND MUL OR SWAP1 SSTORE POP DUP3 DUP2 PUSH1 0x4 ADD PUSH1 0x0 PUSH2 0x100 EXP DUP2 SLOAD DUP2 PUSH20 0xFFFFFFFFFFFFFFFFFFFFFFFFFFFFFFFFFFFFFFFF MUL NOT AND SWAP1 DUP4 PUSH20 0xFFFFFFFFFFFFFFFFFFFFFFFFFFFFFFFFFFFFFFFF AND MUL OR SWAP1 SSTORE POP PUSH1 0x1 DUP2 PUSH1 0x4 ADD PUSH1 0x14 PUSH2 0x100 EXP DUP2 SLOAD DUP2 PUSH1 0xFF MUL NOT AND SWAP1 DUP4 PUSH1 0x2 DUP2 GT ISZERO PUSH2 0xA9C JUMPI PUSH2 0xA9B PUSH2 0x1223 JUMP JUMPDEST JUMPDEST MUL OR SWAP1 SSTORE POP DUP2 DUP2 PUSH1 0x5 ADD DUP2 SWAP1 SSTORE POP PUSH1 0x0 DUP2 PUSH1 0x6 ADD DUP2 SWAP1 SSTORE POP PUSH1 0x0 DUP2 PUSH1 0x7 ADD DUP2 SWAP1 SSTORE POP PUSH1 0x0 DUP2 PUSH1 0x8 ADD DUP2 SWAP1 SSTORE POP PUSH1 0x1 DUP2 PUSH1 0x9 ADD PUSH1 0x0 PUSH2 0x100 EXP DUP2 SLOAD DUP2 PUSH1 0xFF MUL NOT AND SWAP1 DUP4 ISZERO ISZERO MUL OR SWAP1 SSTORE POP PUSH1 0x0 DUP2 PUSH1 0x9 ADD PUSH1 0x1 PUSH2 0x100 EXP DUP2 SLOAD DUP2 PUSH1 0xFF MUL NOT AND SWAP1 DUP4 PUSH1 0xFF AND MUL OR SWAP1 SSTORE POP PUSH32 0xFA127411522A1139D16C2142DB999E127AEF2288BD98A0558006BB115666AB1B DUP8 DUP8 DUP8 DUP8 DUP8 DUP8 PUSH1 0x40 MLOAD PUSH2 0xB3C SWAP7 SWAP6 SWAP5 SWAP4 SWAP3 SWAP2 SWAP1 PUSH2 0x1033 JUMP JUMPDEST PUSH1 0x40 MLOAD DUP1 SWAP2 SUB SWAP1 LOG1 POP POP POP POP POP POP POP JUMP JUMPDEST PUSH1 0x0 DUP1 PUSH1 0x0 DUP6 DUP2 MSTORE PUSH1 0x20 ADD SWAP1 DUP2 MSTORE PUSH1 0x20 ADD PUSH1 0x0 KECCAK256 PUSH1 0x0 DUP5 DUP2 MSTORE PUSH1 0x20 ADD SWAP1 DUP2 MSTORE PUSH1 0x20 ADD PUSH1 0x0 KECCAK256 PUSH1 0x0 DUP4 DUP2 MSTORE PUSH1 0x20 ADD SWAP1 DUP2 MSTORE PUSH1 0x20 ADD PUSH1 0x0 KECCAK256 PUSH1 0x8 ADD SLOAD SWAP1 POP SWAP4 SWAP3 POP POP POP JUMP JUMPDEST PUSH1 0x0 DUP1 PUSH1 0x0 DUP6 DUP2 MSTORE PUSH1 0x20 ADD SWAP1 DUP2 MSTORE PUSH1 0x20 ADD PUSH1 0x0 KECCAK256 PUSH1 0x0 DUP5 DUP2 MSTORE PUSH1 0x20 ADD SWAP1 DUP2 MSTORE PUSH1 0x20 ADD PUSH1 0x0 KECCAK256 PUSH1 0x0 DUP4 DUP2 MSTORE PUSH1 0x20 ADD SWAP1 DUP2 MSTORE PUSH1 0x20 ADD PUSH1 0x0 KECCAK256 PUSH1 0x4 ADD PUSH1 0x14 SWAP1 SLOAD SWAP1 PUSH2 0x100 EXP SWAP1 DIV PUSH1 0xFF AND SWAP1 POP SWAP4 SWAP3 POP POP POP JUMP JUMPDEST PUSH1 0x0 DUP1 PUSH1 0x0 DUP6 DUP2 MSTORE PUSH1 0x20 ADD SWAP1 DUP2 MSTORE PUSH1 0x20 ADD PUSH1 0x0 KECCAK256 PUSH1 0x0 DUP5 DUP2 MSTORE PUSH1 0x20 ADD SWAP1 DUP2 MSTORE PUSH1 0x20 ADD PUSH1 0x0 KECCAK256 PUSH1 0x0 DUP4 DUP2 MSTORE PUSH1 0x20 ADD SWAP1 DUP2 MSTORE PUSH1 0x20 ADD PUSH1 0x0 KECCAK256 PUSH1 0x7 ADD SLOAD SWAP1 POP SWAP4 SWAP3 POP POP POP JUMP JUMPDEST PUSH1 0x0 DUP2 CALLDATALOAD SWAP1 POP PUSH2 0xC32 DUP2 PUSH2 0x152F JUMP JUMPDEST SWAP3 SWAP2 POP POP JUMP JUMPDEST PUSH1 0x0 DUP2 CALLDATALOAD SWAP1 POP PUSH2 0xC47 DUP2 PUSH2 0x1546 JUMP JUMPDEST SWAP3 SWAP2 POP POP JUMP JUMPDEST PUSH1 0x0 DUP2 CALLDATALOAD SWAP1 POP PUSH2 0xC5C DUP2 PUSH2 0x155D JUMP JUMPDEST SWAP3 SWAP2 POP POP JUMP JUMPDEST PUSH1 0x0 DUP1 PUSH1 0x0 PUSH1 0x60 DUP5 DUP7 SUB SLT ISZERO PUSH2 0xC7B JUMPI PUSH2 0xC7A PUSH2 0x1252 JUMP JUMPDEST JUMPDEST PUSH1 0x0 PUSH2 0xC89 DUP7 DUP3 DUP8 ADD PUSH2 0xC38 JUMP JUMPDEST SWAP4 POP POP PUSH1 0x20 PUSH2 0xC9A DUP7 DUP3 DUP8 ADD PUSH2 0xC38 JUMP JUMPDEST SWAP3 POP POP PUSH1 0x40 PUSH2 0xCAB DUP7 DUP3 DUP8 ADD PUSH2 0xC38 JUMP JUMPDEST SWAP2 POP POP SWAP3 POP SWAP3 POP SWAP3 JUMP JUMPDEST PUSH1 0x0 DUP1 PUSH1 0x0 DUP1 PUSH1 0x0 DUP1 PUSH1 0xC0 DUP8 DUP10 SUB SLT ISZERO PUSH2 0xCD2 JUMPI PUSH2 0xCD1 PUSH2 0x1252 JUMP JUMPDEST JUMPDEST PUSH1 0x0 PUSH2 0xCE0 DUP10 DUP3 DUP11 ADD PUSH2 0xC38 JUMP JUMPDEST SWAP7 POP POP PUSH1 0x20 PUSH2 0xCF1 DUP10 DUP3 DUP11 ADD PUSH2 0xC38 JUMP JUMPDEST SWAP6 POP POP PUSH1 0x40 PUSH2 0xD02 DUP10 DUP3 DUP11 ADD PUSH2 0xC38 JUMP JUMPDEST SWAP5 POP POP PUSH1 0x60 PUSH2 0xD13 DUP10 DUP3 DUP11 ADD PUSH2 0xC23 JUMP JUMPDEST SWAP4 POP POP PUSH1 0x80 PUSH2 0xD24 DUP10 DUP3 DUP11 ADD PUSH2 0xC23 JUMP JUMPDEST SWAP3 POP POP PUSH1 0xA0 PUSH2 0xD35 DUP10 DUP3 DUP11 ADD PUSH2 0xC38 JUMP JUMPDEST SWAP2 POP POP SWAP3 SWAP6 POP SWAP3 SWAP6 POP SWAP3 SWAP6 JUMP JUMPDEST PUSH1 0x0 DUP1 PUSH1 0x0 DUP1 PUSH1 0x80 DUP6 DUP8 SUB SLT ISZERO PUSH2 0xD5C JUMPI PUSH2 0xD5B PUSH2 0x1252 JUMP JUMPDEST JUMPDEST PUSH1 0x0 PUSH2 0xD6A DUP8 DUP3 DUP9 ADD PUSH2 0xC38 JUMP JUMPDEST SWAP5 POP POP PUSH1 0x20 PUSH2 0xD7B DUP8 DUP3 DUP9 ADD PUSH2 0xC38 JUMP JUMPDEST SWAP4 POP POP PUSH1 0x40 PUSH2 0xD8C DUP8 DUP3 DUP9 ADD PUSH2 0xC38 JUMP JUMPDEST SWAP3 POP POP PUSH1 0x60 PUSH2 0xD9D DUP8 DUP3 DUP9 ADD PUSH2 0xC4D JUMP JUMPDEST SWAP2 POP POP SWAP3 SWAP6 SWAP2 SWAP5 POP SWAP3 POP JUMP JUMPDEST PUSH2 0xDB2 DUP2 PUSH2 0x113D JUMP JUMPDEST DUP3 MSTORE POP POP JUMP JUMPDEST PUSH2 0xDC1 DUP2 PUSH2 0x1199 JUMP JUMPDEST DUP3 MSTORE POP POP JUMP JUMPDEST PUSH1 0x0 PUSH2 0xDD4 PUSH1 0x57 DUP4 PUSH2 0x112C JUMP JUMPDEST SWAP2 POP PUSH2 0xDDF DUP3 PUSH2 0x1257 JUMP JUMPDEST PUSH1 0x60 DUP3 ADD SWAP1 POP SWAP2 SWAP1 POP JUMP JUMPDEST PUSH1 0x0 PUSH2 0xDF7 PUSH1 0x2D DUP4 PUSH2 0x112C JUMP JUMPDEST SWAP2 POP PUSH2 0xE02 DUP3 PUSH2 0x12CC JUMP JUMPDEST PUSH1 0x40 DUP3 ADD SWAP1 POP SWAP2 SWAP1 POP JUMP JUMPDEST PUSH1 0x0 PUSH2 0xE1A PUSH1 0x30 DUP4 PUSH2 0x112C JUMP JUMPDEST SWAP2 POP PUSH2 0xE25 DUP3 PUSH2 0x131B JUMP JUMPDEST PUSH1 0x40 DUP3 ADD SWAP1 POP SWAP2 SWAP1 POP JUMP JUMPDEST PUSH1 0x0 PUSH2 0xE3D PUSH1 0x3D DUP4 PUSH2 0x112C JUMP JUMPDEST SWAP2 POP PUSH2 0xE48 DUP3 PUSH2 0x136A JUMP JUMPDEST PUSH1 0x40 DUP3 ADD SWAP1 POP SWAP2 SWAP1 POP JUMP JUMPDEST PUSH1 0x0 PUSH2 0xE60 PUSH1 0x4A DUP4 PUSH2 0x112C JUMP JUMPDEST SWAP2 POP PUSH2 0xE6B DUP3 PUSH2 0x13B9 JUMP JUMPDEST PUSH1 0x60 DUP3 ADD SWAP1 POP SWAP2 SWAP1 POP JUMP JUMPDEST PUSH1 0x0 PUSH2 0xE83 PUSH1 0x39 DUP4 PUSH2 0x112C JUMP JUMPDEST SWAP2 POP PUSH2 0xE8E DUP3 PUSH2 0x142E JUMP JUMPDEST PUSH1 0x40 DUP3 ADD SWAP1 POP SWAP2 SWAP1 POP JUMP JUMPDEST PUSH1 0x0 PUSH2 0xEA6 PUSH1 0x20 DUP4 PUSH2 0x112C JUMP JUMPDEST SWAP2 POP PUSH2 0xEB1 DUP3 PUSH2 0x147D JUMP JUMPDEST PUSH1 0x20 DUP3 ADD SWAP1 POP SWAP2 SWAP1 POP JUMP JUMPDEST PUSH1 0x0 PUSH2 0xEC9 PUSH1 0x4D DUP4 PUSH2 0x112C JUMP JUMPDEST SWAP2 POP PUSH2 0xED4 DUP3 PUSH2 0x14A6 JUMP JUMPDEST PUSH1 0x60 DUP3 ADD SWAP1 POP SWAP2 SWAP1 POP JUMP JUMPDEST PUSH2 0xEE8 DUP2 PUSH2 0x1182 JUMP JUMPDEST DUP3 MSTORE POP POP JUMP JUMPDEST PUSH2 0xEF7 DUP2 PUSH2 0x118C JUMP JUMPDEST DUP3 MSTORE POP POP JUMP JUMPDEST PUSH1 0x0 PUSH1 0x20 DUP3 ADD SWAP1 POP PUSH2 0xF12 PUSH1 0x0 DUP4 ADD DUP5 PUSH2 0xDB8 JUMP JUMPDEST SWAP3 SWAP2 POP POP JUMP JUMPDEST PUSH1 0x0 PUSH1 0x20 DUP3 ADD SWAP1 POP DUP2 DUP2 SUB PUSH1 0x0 DUP4 ADD MSTORE PUSH2 0xF31 DUP2 PUSH2 0xDC7 JUMP JUMPDEST SWAP1 POP SWAP2 SWAP1 POP JUMP JUMPDEST PUSH1 0x0 PUSH1 0x20 DUP3 ADD SWAP1 POP DUP2 DUP2 SUB PUSH1 0x0 DUP4 ADD MSTORE PUSH2 0xF51 DUP2 PUSH2 0xDEA JUMP JUMPDEST SWAP1 POP SWAP2 SWAP1 POP JUMP JUMPDEST PUSH1 0x0 PUSH1 0x20 DUP3 ADD SWAP1 POP DUP2 DUP2 SUB PUSH1 0x0 DUP4 ADD MSTORE PUSH2 0xF71 DUP2 PUSH2 0xE0D JUMP JUMPDEST SWAP1 POP SWAP2 SWAP1 POP JUMP JUMPDEST PUSH1 0x0 PUSH1 0x20 DUP3 ADD SWAP1 POP DUP2 DUP2 SUB PUSH1 0x0 DUP4 ADD MSTORE PUSH2 0xF91 DUP2 PUSH2 0xE30 JUMP JUMPDEST SWAP1 POP SWAP2 SWAP1 POP JUMP JUMPDEST PUSH1 0x0 PUSH1 0x20 DUP3 ADD SWAP1 POP DUP2 DUP2 SUB PUSH1 0x0 DUP4 ADD MSTORE PUSH2 0xFB1 DUP2 PUSH2 0xE53 JUMP JUMPDEST SWAP1 POP SWAP2 SWAP1 POP JUMP JUMPDEST PUSH1 0x0 PUSH1 0x20 DUP3 ADD SWAP1 POP DUP2 DUP2 SUB PUSH1 0x0 DUP4 ADD MSTORE PUSH2 0xFD1 DUP2 PUSH2 0xE76 JUMP JUMPDEST SWAP1 POP SWAP2 SWAP1 POP JUMP JUMPDEST PUSH1 0x0 PUSH1 0x20 DUP3 ADD SWAP1 POP DUP2 DUP2 SUB PUSH1 0x0 DUP4 ADD MSTORE PUSH2 0xFF1 DUP2 PUSH2 0xE99 JUMP JUMPDEST SWAP1 POP SWAP2 SWAP1 POP JUMP JUMPDEST PUSH1 0x0 PUSH1 0x20 DUP3 ADD SWAP1 POP DUP2 DUP2 SUB PUSH1 0x0 DUP4 ADD MSTORE PUSH2 0x1011 DUP2 PUSH2 0xEBC JUMP JUMPDEST SWAP1 POP SWAP2 SWAP1 POP JUMP JUMPDEST PUSH1 0x0 PUSH1 0x20 DUP3 ADD SWAP1 POP PUSH2 0x102D PUSH1 0x0 DUP4 ADD DUP5 PUSH2 0xEDF JUMP JUMPDEST SWAP3 SWAP2 POP POP JUMP JUMPDEST PUSH1 0x0 PUSH1 0xC0 DUP3 ADD SWAP1 POP PUSH2 0x1048 PUSH1 0x0 DUP4 ADD DUP10 PUSH2 0xEDF JUMP JUMPDEST PUSH2 0x1055 PUSH1 0x20 DUP4 ADD DUP9 PUSH2 0xEDF JUMP JUMPDEST PUSH2 0x1062 PUSH1 0x40 DUP4 ADD DUP8 PUSH2 0xEDF JUMP JUMPDEST PUSH2 0x106F PUSH1 0x60 DUP4 ADD DUP7 PUSH2 0xDA9 JUMP JUMPDEST PUSH2 0x107C PUSH1 0x80 DUP4 ADD DUP6 PUSH2 0xDA9 JUMP JUMPDEST PUSH2 0x1089 PUSH1 0xA0 DUP4 ADD DUP5 PUSH2 0xEDF JUMP JUMPDEST SWAP8 SWAP7 POP POP POP POP POP POP POP JUMP JUMPDEST PUSH1 0x0 PUSH1 0xA0 DUP3 ADD SWAP1 POP PUSH2 0x10A9 PUSH1 0x0 DUP4 ADD DUP9 PUSH2 0xEDF JUMP JUMPDEST PUSH2 0x10B6 PUSH1 0x20 DUP4 ADD DUP8 PUSH2 0xEDF JUMP JUMPDEST PUSH2 0x10C3 PUSH1 0x40 DUP4 ADD DUP7 PUSH2 0xEDF JUMP JUMPDEST PUSH2 0x10D0 PUSH1 0x60 DUP4 ADD DUP6 PUSH2 0xDA9 JUMP JUMPDEST PUSH2 0x10DD PUSH1 0x80 DUP4 ADD DUP5 PUSH2 0xEEE JUMP JUMPDEST SWAP7 SWAP6 POP POP POP POP POP POP JUMP JUMPDEST PUSH1 0x0 PUSH1 0x80 DUP3 ADD SWAP1 POP PUSH2 0x10FC PUSH1 0x0 DUP4 ADD DUP8 PUSH2 0xEDF JUMP JUMPDEST PUSH2 0x1109 PUSH1 0x20 DUP4 ADD DUP7 PUSH2 0xEDF JUMP JUMPDEST PUSH2 0x1116 PUSH1 0x40 DUP4 ADD DUP6 PUSH2 0xEDF JUMP JUMPDEST PUSH2 0x1123 PUSH1 0x60 DUP4 ADD DUP5 PUSH2 0xEEE JUMP JUMPDEST SWAP6 SWAP5 POP POP POP POP POP JUMP JUMPDEST PUSH1 0x0 DUP3 DUP3 MSTORE PUSH1 0x20 DUP3 ADD SWAP1 POP SWAP3 SWAP2 POP POP JUMP JUMPDEST PUSH1 0x0 PUSH2 0x1148 DUP3 PUSH2 0x1162 JUMP JUMPDEST SWAP1 POP SWAP2 SWAP1 POP JUMP JUMPDEST PUSH1 0x0 DUP2 SWAP1 POP PUSH2 0x115D DUP3 PUSH2 0x151B JUMP JUMPDEST SWAP2 SWAP1 POP JUMP JUMPDEST PUSH1 0x0 PUSH20 0xFFFFFFFFFFFFFFFFFFFFFFFFFFFFFFFFFFFFFFFF DUP3 AND SWAP1 POP SWAP2 SWAP1 POP JUMP JUMPDEST PUSH1 0x0 DUP2 SWAP1 POP SWAP2 SWAP1 POP JUMP JUMPDEST PUSH1 0x0 PUSH1 0xFF DUP3 AND SWAP1 POP SWAP2 SWAP1 POP JUMP JUMPDEST PUSH1 0x0 PUSH2 0x11A4 DUP3 PUSH2 0x114F JUMP JUMPDEST SWAP1 POP SWAP2 SWAP1 POP JUMP JUMPDEST PUSH1 0x0 PUSH2 0x11B6 DUP3 PUSH2 0x1182 JUMP JUMPDEST SWAP2 POP PUSH32 0xFFFFFFFFFFFFFFFFFFFFFFFFFFFFFFFFFFFFFFFFFFFFFFFFFFFFFFFFFFFFFFFF DUP3 EQ ISZERO PUSH2 0x11E9 JUMPI PUSH2 0x11E8 PUSH2 0x11F4 JUMP JUMPDEST JUMPDEST PUSH1 0x1 DUP3 ADD SWAP1 POP SWAP2 SWAP1 POP JUMP JUMPDEST PUSH32 0x4E487B7100000000000000000000000000000000000000000000000000000000 PUSH1 0x0 MSTORE PUSH1 0x11 PUSH1 0x4 MSTORE PUSH1 0x24 PUSH1 0x0 REVERT JUMPDEST PUSH32 0x4E487B7100000000000000000000000000000000000000000000000000000000 PUSH1 0x0 MSTORE PUSH1 0x21 PUSH1 0x4 MSTORE PUSH1 0x24 PUSH1 0x0 REVERT JUMPDEST PUSH1 0x0 DUP1 REVERT JUMPDEST PUSH32 0x596F752068617665206E6F7420696E707574206120726967687420766F74652E PUSH1 0x0 DUP3 ADD MSTORE PUSH32 0x20596F752063616E2065697468657220766F7465203120666F72205265717565 PUSH1 0x20 DUP3 ADD MSTORE PUSH32 0x73746572206F72203220666F722050726F76696465722E000000000000000000 PUSH1 0x40 DUP3 ADD MSTORE POP JUMP JUMPDEST PUSH32 0x596F75206861766520616C726561647920766F7465642C20796F752063616E6E PUSH1 0x0 DUP3 ADD MSTORE PUSH32 0x6F7420766F746520616761696E00000000000000000000000000000000000000 PUSH1 0x20 DUP3 ADD MSTORE POP JUMP JUMPDEST PUSH32 0x596F7520726169736564207468697320636F6E666C6963742E20596F75206361 PUSH1 0x0 DUP3 ADD MSTORE PUSH32 0x6E6E6F7420766F7465206F6E2069742E00000000000000000000000000000000 PUSH1 0x20 DUP3 ADD MSTORE POP JUMP JUMPDEST PUSH32 0x566F74696E6720686173206E6F74206265656E20636F6D706C65746564207965 PUSH1 0x0 DUP3 ADD MSTORE PUSH32 0x742E20506C65617365207761697420666F7220697420746F20656E642E000000 PUSH1 0x20 DUP3 ADD MSTORE POP JUMP JUMPDEST PUSH32 0x4E6F742065766572796F6E652068617320766F7465642C20706C656173652070 PUSH1 0x0 DUP3 ADD MSTORE PUSH32 0x726F6D707420616C6C206F74686572206D656D62657273206F662070726F6A65 PUSH1 0x20 DUP3 ADD MSTORE PUSH32 0x637420746F20766F746500000000000000000000000000000000000000000000 PUSH1 0x40 DUP3 ADD MSTORE POP JUMP JUMPDEST PUSH32 0x596F752061726520696E766F6C76656420696E207468697320636F6E666C6963 PUSH1 0x0 DUP3 ADD MSTORE PUSH32 0x742E20596F752063616E6E6F7420766F7465206F6E2069742E00000000000000 PUSH1 0x20 DUP3 ADD MSTORE POP JUMP JUMPDEST PUSH32 0x456E6F75676820766F7465732068617665206265656E20636F6C6C6563746564 PUSH1 0x0 DUP3 ADD MSTORE POP JUMP JUMPDEST PUSH32 0x436F6E666C6963742068617320616C7265616479206265656E20637265617465 PUSH1 0x0 DUP3 ADD MSTORE PUSH32 0x642E20506C6561736520646F206E6F7420637265617465206D6F726520746861 PUSH1 0x20 DUP3 ADD MSTORE PUSH32 0x6E203120636F6E666C6963742E00000000000000000000000000000000000000 PUSH1 0x40 DUP3 ADD MSTORE POP JUMP JUMPDEST PUSH1 0x3 DUP2 LT PUSH2 0x152C JUMPI PUSH2 0x152B PUSH2 0x1223 JUMP JUMPDEST JUMPDEST POP JUMP JUMPDEST PUSH2 0x1538 DUP2 PUSH2 0x113D JUMP JUMPDEST DUP2 EQ PUSH2 0x1543 JUMPI PUSH1 0x0 DUP1 REVERT JUMPDEST POP JUMP JUMPDEST PUSH2 0x154F DUP2 PUSH2 0x1182 JUMP JUMPDEST DUP2 EQ PUSH2 0x155A JUMPI PUSH1 0x0 DUP1 REVERT JUMPDEST POP JUMP JUMPDEST PUSH2 0x1566 DUP2 PUSH2 0x118C JUMP JUMPDEST DUP2 EQ PUSH2 0x1571 JUMPI PUSH1 0x0 DUP1 REVERT JUMPDEST POP JUMP INVALID LOG2 PUSH5 0x6970667358 0x22 SLT KECCAK256 PUSH3 0xE6DE39 BASEFEE DUP5 POP EXP 0x5E 0xC2 MUL 0xD4 0xE0 0x4A 0xB9 DUP3 MOD 0xAB 0x4D CALLDATASIZE GASPRICE 0x2D RETURNDATASIZE 0x1F BLOCKHASH SWAP9 CALLDATALOAD 0xC9 DUP1 0xC8 JUMPI 0xC7 PUSH5 0x736F6C6343 STOP ADDMOD SMOD STOP CALLER "
				},
				"gasEstimates": {
					"creation": {
						"codeDepositCost": "1109200",
						"executionCost": "1154",
						"totalCost": "1110354"
					},
					"external": {
						"createConflict(uint256,uint256,uint256,address,address,uint256)": "infinite",
						"getConflictStatus(uint256,uint256,uint256)": "infinite",
						"getResults(uint256,uint256,uint256)": "infinite",
						"getVotesCollected(uint256,uint256,uint256)": "infinite",
						"getVotesforProvider(uint256,uint256,uint256)": "infinite",
						"getVotesforRequester(uint256,uint256,uint256)": "infinite",
						"voteConflict(uint256,uint256,uint256,uint8)": "infinite"
					}
				},
				"methodIdentifiers": {
					"createConflict(uint256,uint256,uint256,address,address,uint256)": "71606fb0",
					"getConflictStatus(uint256,uint256,uint256)": "cb4389ce",
					"getResults(uint256,uint256,uint256)": "0366cef2",
					"getVotesCollected(uint256,uint256,uint256)": "3c45fe31",
					"getVotesforProvider(uint256,uint256,uint256)": "9ac78879",
					"getVotesforRequester(uint256,uint256,uint256)": "e3d87718",
					"voteConflict(uint256,uint256,uint256,uint8)": "153d0194"
				}
			},
			"userdoc": {
				"kind": "user",
				"methods": {},
				"version": 1
			}
		}
	}
}