{
	"contracts/Profile.sol": {
		"Profile": {
			"abi": [
				{
					"anonymous": false,
					"inputs": [
						{
							"indexed": false,
							"internalType": "bool",
							"name": "successful",
							"type": "bool"
						}
					],
					"name": "serviceCreated",
					"type": "event"
				},
				{
					"inputs": [],
					"name": "checkValidProfile",
					"outputs": [
						{
							"internalType": "bool",
							"name": "",
							"type": "bool"
						}
					],
					"stateMutability": "view",
					"type": "function"
				},
				{
					"inputs": [
						{
							"internalType": "string",
							"name": "name",
							"type": "string"
						},
						{
							"internalType": "string",
							"name": "username",
							"type": "string"
						},
						{
							"internalType": "string",
							"name": "password",
							"type": "string"
						}
					],
					"name": "createProfile",
					"outputs": [],
					"stateMutability": "nonpayable",
					"type": "function"
				},
				{
					"inputs": [],
					"name": "deleteProfile",
					"outputs": [],
					"stateMutability": "nonpayable",
					"type": "function"
				},
				{
					"inputs": [],
					"name": "getName",
					"outputs": [
						{
							"internalType": "string",
							"name": "",
							"type": "string"
						}
					],
					"stateMutability": "view",
					"type": "function"
				},
				{
					"inputs": [],
					"name": "numProfile",
					"outputs": [
						{
							"internalType": "uint256",
							"name": "",
							"type": "uint256"
						}
					],
					"stateMutability": "view",
					"type": "function"
				},
				{
					"inputs": [
						{
							"internalType": "uint256",
							"name": "serviceNumber",
							"type": "uint256"
						}
					],
					"name": "putService",
					"outputs": [],
					"stateMutability": "nonpayable",
					"type": "function"
				}
			],
			"devdoc": {
				"kind": "dev",
				"methods": {},
				"version": 1
			},
			"evm": {
				"assembly": "    /* \"contracts/Profile.sol\":124:2211  contract Profile {... */\n  mstore(0x40, 0x80)\n    /* \"contracts/Profile.sol\":850:851  0 */\n  0x00\n    /* \"contracts/Profile.sol\":822:851  uint256 public numProfile = 0 */\n  0x03\n  sstore\n    /* \"contracts/Profile.sol\":124:2211  contract Profile {... */\n  callvalue\n  dup1\n  iszero\n  tag_1\n  jumpi\n  0x00\n  dup1\n  revert\ntag_1:\n  pop\n  dataSize(sub_0)\n  dup1\n  dataOffset(sub_0)\n  0x00\n  codecopy\n  0x00\n  return\nstop\n\nsub_0: assembly {\n        /* \"contracts/Profile.sol\":124:2211  contract Profile {... */\n      mstore(0x40, 0x80)\n      callvalue\n      dup1\n      iszero\n      tag_1\n      jumpi\n      0x00\n      dup1\n      revert\n    tag_1:\n      pop\n      jumpi(tag_2, lt(calldatasize, 0x04))\n      shr(0xe0, calldataload(0x00))\n      dup1\n      0x16913469\n      eq\n      tag_3\n      jumpi\n      dup1\n      0x17d7de7c\n      eq\n      tag_4\n      jumpi\n      dup1\n      0x3ae7dc1a\n      eq\n      tag_5\n      jumpi\n      dup1\n      0x5544f6b4\n      eq\n      tag_6\n      jumpi\n      dup1\n      0x6d4540eb\n      eq\n      tag_7\n      jumpi\n      dup1\n      0x9841c82c\n      eq\n      tag_8\n      jumpi\n    tag_2:\n      0x00\n      dup1\n      revert\n        /* \"contracts/Profile.sol\":822:851  uint256 public numProfile = 0 */\n    tag_3:\n      tag_9\n      tag_10\n      jump\t// in\n    tag_9:\n      mload(0x40)\n      tag_11\n      swap2\n      swap1\n      tag_12\n      jump\t// in\n    tag_11:\n      mload(0x40)\n      dup1\n      swap2\n      sub\n      swap1\n      return\n        /* \"contracts/Profile.sol\":1582:1705  function getName() public validProfile() view returns ( string memory) {... */\n    tag_4:\n      tag_13\n      tag_14\n      jump\t// in\n    tag_13:\n      mload(0x40)\n      tag_15\n      swap2\n      swap1\n      tag_16\n      jump\t// in\n    tag_15:\n      mload(0x40)\n      dup1\n      swap2\n      sub\n      swap1\n      return\n        /* \"contracts/Profile.sol\":1764:1890  function checkValidProfile() public view returns (bool) {... */\n    tag_5:\n      tag_17\n      tag_18\n      jump\t// in\n    tag_17:\n      mload(0x40)\n      tag_19\n      swap2\n      swap1\n      tag_20\n      jump\t// in\n    tag_19:\n      mload(0x40)\n      dup1\n      swap2\n      sub\n      swap1\n      return\n        /* \"contracts/Profile.sol\":1929:2208  function putService(uint256 serviceNumber) public {... */\n    tag_6:\n      tag_21\n      0x04\n      dup1\n      calldatasize\n      sub\n      dup2\n      add\n      swap1\n      tag_22\n      swap2\n      swap1\n      tag_23\n      jump\t// in\n    tag_22:\n      tag_24\n      jump\t// in\n    tag_21:\n      stop\n        /* \"contracts/Profile.sol\":1268:1371  function deleteProfile() public {... */\n    tag_7:\n      tag_25\n      tag_26\n      jump\t// in\n    tag_25:\n      stop\n        /* \"contracts/Profile.sol\":949:1221  function createProfile(string memory name, string memory username, string memory password) public {... */\n    tag_8:\n      tag_27\n      0x04\n      dup1\n      calldatasize\n      sub\n      dup2\n      add\n      swap1\n      tag_28\n      swap2\n      swap1\n      tag_29\n      jump\t// in\n    tag_28:\n      tag_30\n      jump\t// in\n    tag_27:\n      stop\n        /* \"contracts/Profile.sol\":822:851  uint256 public numProfile = 0 */\n    tag_10:\n      sload(0x03)\n      dup2\n      jump\t// out\n        /* \"contracts/Profile.sol\":1582:1705  function getName() public validProfile() view returns ( string memory) {... */\n    tag_14:\n        /* \"contracts/Profile.sol\":1638:1651  string memory */\n      0x60\n        /* \"contracts/Profile.sol\":1496:1500  true */\n      0x01\n        /* \"contracts/Profile.sol\":1461:1500  profileList[msg.sender].created == true */\n      iszero\n      iszero\n        /* \"contracts/Profile.sol\":1461:1472  profileList */\n      0x00\n        /* \"contracts/Profile.sol\":1461:1484  profileList[msg.sender] */\n      dup1\n        /* \"contracts/Profile.sol\":1473:1483  msg.sender */\n      caller\n        /* \"contracts/Profile.sol\":1461:1484  profileList[msg.sender] */\n      0xffffffffffffffffffffffffffffffffffffffff\n      and\n      0xffffffffffffffffffffffffffffffffffffffff\n      and\n      dup2\n      mstore\n      0x20\n      add\n      swap1\n      dup2\n      mstore\n      0x20\n      add\n      0x00\n      keccak256\n        /* \"contracts/Profile.sol\":1461:1492  profileList[msg.sender].created */\n      0x03\n      add\n      0x14\n      swap1\n      sload\n      swap1\n      0x0100\n      exp\n      swap1\n      div\n      0xff\n      and\n        /* \"contracts/Profile.sol\":1461:1500  profileList[msg.sender].created == true */\n      iszero\n      iszero\n      eq\n        /* \"contracts/Profile.sol\":1453:1501  require(profileList[msg.sender].created == true) */\n      tag_32\n      jumpi\n      0x00\n      dup1\n      revert\n    tag_32:\n        /* \"contracts/Profile.sol\":1670:1681  profileList */\n      0x00\n        /* \"contracts/Profile.sol\":1670:1693  profileList[msg.sender] */\n      dup1\n        /* \"contracts/Profile.sol\":1682:1692  msg.sender */\n      caller\n        /* \"contracts/Profile.sol\":1670:1693  profileList[msg.sender] */\n      0xffffffffffffffffffffffffffffffffffffffff\n      and\n      0xffffffffffffffffffffffffffffffffffffffff\n      and\n      dup2\n      mstore\n      0x20\n      add\n      swap1\n      dup2\n      mstore\n      0x20\n      add\n      0x00\n      keccak256\n        /* \"contracts/Profile.sol\":1670:1698  profileList[msg.sender].name */\n      0x00\n      add\n        /* \"contracts/Profile.sol\":1663:1698  return profileList[msg.sender].name */\n      dup1\n      sload\n      tag_34\n      swap1\n      tag_35\n      jump\t// in\n    tag_34:\n      dup1\n      0x1f\n      add\n      0x20\n      dup1\n      swap2\n      div\n      mul\n      0x20\n      add\n      mload(0x40)\n      swap1\n      dup2\n      add\n      0x40\n      mstore\n      dup1\n      swap3\n      swap2\n      swap1\n      dup2\n      dup2\n      mstore\n      0x20\n      add\n      dup3\n      dup1\n      sload\n      tag_36\n      swap1\n      tag_35\n      jump\t// in\n    tag_36:\n      dup1\n      iszero\n      tag_37\n      jumpi\n      dup1\n      0x1f\n      lt\n      tag_38\n      jumpi\n      0x0100\n      dup1\n      dup4\n      sload\n      div\n      mul\n      dup4\n      mstore\n      swap2\n      0x20\n      add\n      swap2\n      jump(tag_37)\n    tag_38:\n      dup3\n      add\n      swap2\n      swap1\n      0x00\n      mstore\n      keccak256(0x00, 0x20)\n      swap1\n    tag_39:\n      dup2\n      sload\n      dup2\n      mstore\n      swap1\n      0x01\n      add\n      swap1\n      0x20\n      add\n      dup1\n      dup4\n      gt\n      tag_39\n      jumpi\n      dup3\n      swap1\n      sub\n      0x1f\n      and\n      dup3\n      add\n      swap2\n    tag_37:\n      pop\n      pop\n      pop\n      pop\n      pop\n      swap1\n      pop\n        /* \"contracts/Profile.sol\":1582:1705  function getName() public validProfile() view returns ( string memory) {... */\n      swap1\n      jump\t// out\n        /* \"contracts/Profile.sol\":1764:1890  function checkValidProfile() public view returns (bool) {... */\n    tag_18:\n        /* \"contracts/Profile.sol\":1814:1818  bool */\n      0x00\n        /* \"contracts/Profile.sol\":1837:1848  profileList */\n      dup1\n        /* \"contracts/Profile.sol\":1837:1860  profileList[msg.sender] */\n      0x00\n        /* \"contracts/Profile.sol\":1849:1859  msg.sender */\n      caller\n        /* \"contracts/Profile.sol\":1837:1860  profileList[msg.sender] */\n      0xffffffffffffffffffffffffffffffffffffffff\n      and\n      0xffffffffffffffffffffffffffffffffffffffff\n      and\n      dup2\n      mstore\n      0x20\n      add\n      swap1\n      dup2\n      mstore\n      0x20\n      add\n      0x00\n      keccak256\n        /* \"contracts/Profile.sol\":1837:1868  profileList[msg.sender].created */\n      0x03\n      add\n      0x14\n      swap1\n      sload\n      swap1\n      0x0100\n      exp\n      swap1\n      div\n      0xff\n      and\n        /* \"contracts/Profile.sol\":1837:1883  profileList[msg.sender].created ? true : false */\n      tag_41\n      jumpi\n        /* \"contracts/Profile.sol\":1878:1883  false */\n      0x00\n        /* \"contracts/Profile.sol\":1837:1883  profileList[msg.sender].created ? true : false */\n      jump(tag_42)\n    tag_41:\n        /* \"contracts/Profile.sol\":1871:1875  true */\n      0x01\n        /* \"contracts/Profile.sol\":1837:1883  profileList[msg.sender].created ? true : false */\n    tag_42:\n        /* \"contracts/Profile.sol\":1830:1883  return profileList[msg.sender].created ? true : false */\n      swap1\n      pop\n        /* \"contracts/Profile.sol\":1764:1890  function checkValidProfile() public view returns (bool) {... */\n      swap1\n      jump\t// out\n        /* \"contracts/Profile.sol\":1929:2208  function putService(uint256 serviceNumber) public {... */\n    tag_24:\n        /* \"contracts/Profile.sol\":2032:2037  false */\n      0x00\n        /* \"contracts/Profile.sol\":1993:2037  services[msg.sender][serviceNumber] == false */\n      iszero\n      iszero\n        /* \"contracts/Profile.sol\":1993:2001  services */\n      0x01\n        /* \"contracts/Profile.sol\":1993:2013  services[msg.sender] */\n      0x00\n        /* \"contracts/Profile.sol\":2002:2012  msg.sender */\n      caller\n        /* \"contracts/Profile.sol\":1993:2013  services[msg.sender] */\n      0xffffffffffffffffffffffffffffffffffffffff\n      and\n      0xffffffffffffffffffffffffffffffffffffffff\n      and\n      dup2\n      mstore\n      0x20\n      add\n      swap1\n      dup2\n      mstore\n      0x20\n      add\n      0x00\n      keccak256\n        /* \"contracts/Profile.sol\":1993:2028  services[msg.sender][serviceNumber] */\n      0x00\n        /* \"contracts/Profile.sol\":2014:2027  serviceNumber */\n      dup4\n        /* \"contracts/Profile.sol\":1993:2028  services[msg.sender][serviceNumber] */\n      dup2\n      mstore\n      0x20\n      add\n      swap1\n      dup2\n      mstore\n      0x20\n      add\n      0x00\n      keccak256\n      0x00\n      swap1\n      sload\n      swap1\n      0x0100\n      exp\n      swap1\n      div\n      0xff\n      and\n        /* \"contracts/Profile.sol\":1993:2037  services[msg.sender][serviceNumber] == false */\n      iszero\n      iszero\n      eq\n        /* \"contracts/Profile.sol\":1989:2202  if (services[msg.sender][serviceNumber] == false) {... */\n      iszero\n      tag_44\n      jumpi\n        /* \"contracts/Profile.sol\":2091:2095  true */\n      0x01\n        /* \"contracts/Profile.sol\":2053:2061  services */\n      dup1\n        /* \"contracts/Profile.sol\":2053:2073  services[msg.sender] */\n      0x00\n        /* \"contracts/Profile.sol\":2062:2072  msg.sender */\n      caller\n        /* \"contracts/Profile.sol\":2053:2073  services[msg.sender] */\n      0xffffffffffffffffffffffffffffffffffffffff\n      and\n      0xffffffffffffffffffffffffffffffffffffffff\n      and\n      dup2\n      mstore\n      0x20\n      add\n      swap1\n      dup2\n      mstore\n      0x20\n      add\n      0x00\n      keccak256\n        /* \"contracts/Profile.sol\":2053:2088  services[msg.sender][serviceNumber] */\n      0x00\n        /* \"contracts/Profile.sol\":2074:2087  serviceNumber */\n      dup4\n        /* \"contracts/Profile.sol\":2053:2088  services[msg.sender][serviceNumber] */\n      dup2\n      mstore\n      0x20\n      add\n      swap1\n      dup2\n      mstore\n      0x20\n      add\n      0x00\n      keccak256\n      0x00\n        /* \"contracts/Profile.sol\":2053:2095  services[msg.sender][serviceNumber] = true */\n      0x0100\n      exp\n      dup2\n      sload\n      dup2\n      0xff\n      mul\n      not\n      and\n      swap1\n      dup4\n      iszero\n      iszero\n      mul\n      or\n      swap1\n      sstore\n      pop\n        /* \"contracts/Profile.sol\":2114:2134  serviceCreated(true) */\n      0x141f0f98191bb867d14e65d7d6496cba0add11cde65dc83f66c03f1dc876c5f1\n        /* \"contracts/Profile.sol\":2129:2133  true */\n      0x01\n        /* \"contracts/Profile.sol\":2114:2134  serviceCreated(true) */\n      mload(0x40)\n      tag_45\n      swap2\n      swap1\n      tag_20\n      jump\t// in\n    tag_45:\n      mload(0x40)\n      dup1\n      swap2\n      sub\n      swap1\n      log1\n        /* \"contracts/Profile.sol\":1989:2202  if (services[msg.sender][serviceNumber] == false) {... */\n      jump(tag_46)\n    tag_44:\n        /* \"contracts/Profile.sol\":2170:2191  serviceCreated(false) */\n      0x141f0f98191bb867d14e65d7d6496cba0add11cde65dc83f66c03f1dc876c5f1\n        /* \"contracts/Profile.sol\":2185:2190  false */\n      0x00\n        /* \"contracts/Profile.sol\":2170:2191  serviceCreated(false) */\n      mload(0x40)\n      tag_47\n      swap2\n      swap1\n      tag_20\n      jump\t// in\n    tag_47:\n      mload(0x40)\n      dup1\n      swap2\n      sub\n      swap1\n      log1\n        /* \"contracts/Profile.sol\":1989:2202  if (services[msg.sender][serviceNumber] == false) {... */\n    tag_46:\n        /* \"contracts/Profile.sol\":1929:2208  function putService(uint256 serviceNumber) public {... */\n      pop\n      jump\t// out\n        /* \"contracts/Profile.sol\":1268:1371  function deleteProfile() public {... */\n    tag_26:\n        /* \"contracts/Profile.sol\":1344:1349  false */\n      0x00\n        /* \"contracts/Profile.sol\":1310:1321  profileList */\n      dup1\n        /* \"contracts/Profile.sol\":1310:1333  profileList[msg.sender] */\n      0x00\n        /* \"contracts/Profile.sol\":1322:1332  msg.sender */\n      caller\n        /* \"contracts/Profile.sol\":1310:1333  profileList[msg.sender] */\n      0xffffffffffffffffffffffffffffffffffffffff\n      and\n      0xffffffffffffffffffffffffffffffffffffffff\n      and\n      dup2\n      mstore\n      0x20\n      add\n      swap1\n      dup2\n      mstore\n      0x20\n      add\n      0x00\n      keccak256\n        /* \"contracts/Profile.sol\":1310:1341  profileList[msg.sender].created */\n      0x03\n      add\n      0x14\n        /* \"contracts/Profile.sol\":1310:1349  profileList[msg.sender].created = false */\n      0x0100\n      exp\n      dup2\n      sload\n      dup2\n      0xff\n      mul\n      not\n      and\n      swap1\n      dup4\n      iszero\n      iszero\n      mul\n      or\n      swap1\n      sstore\n      pop\n        /* \"contracts/Profile.sol\":1268:1371  function deleteProfile() public {... */\n      jump\t// out\n        /* \"contracts/Profile.sol\":949:1221  function createProfile(string memory name, string memory username, string memory password) public {... */\n    tag_30:\n        /* \"contracts/Profile.sol\":1057:1082  profile memory newProfile */\n      0x00\n        /* \"contracts/Profile.sol\":1085:1132  profile(name,username,password,msg.sender,true) */\n      mload(0x40)\n      dup1\n      0xa0\n      add\n      0x40\n      mstore\n      dup1\n        /* \"contracts/Profile.sol\":1093:1097  name */\n      dup6\n        /* \"contracts/Profile.sol\":1085:1132  profile(name,username,password,msg.sender,true) */\n      dup2\n      mstore\n      0x20\n      add\n        /* \"contracts/Profile.sol\":1098:1106  username */\n      dup5\n        /* \"contracts/Profile.sol\":1085:1132  profile(name,username,password,msg.sender,true) */\n      dup2\n      mstore\n      0x20\n      add\n        /* \"contracts/Profile.sol\":1107:1115  password */\n      dup4\n        /* \"contracts/Profile.sol\":1085:1132  profile(name,username,password,msg.sender,true) */\n      dup2\n      mstore\n      0x20\n      add\n        /* \"contracts/Profile.sol\":1116:1126  msg.sender */\n      caller\n        /* \"contracts/Profile.sol\":1085:1132  profile(name,username,password,msg.sender,true) */\n      0xffffffffffffffffffffffffffffffffffffffff\n      and\n      dup2\n      mstore\n      0x20\n      add\n        /* \"contracts/Profile.sol\":1127:1131  true */\n      0x01\n        /* \"contracts/Profile.sol\":1085:1132  profile(name,username,password,msg.sender,true) */\n      iszero\n      iszero\n      dup2\n      mstore\n      pop\n        /* \"contracts/Profile.sol\":1057:1132  profile memory newProfile = profile(name,username,password,msg.sender,true) */\n      swap1\n      pop\n        /* \"contracts/Profile.sol\":1168:1178  newProfile */\n      dup1\n        /* \"contracts/Profile.sol\":1142:1153  profileList */\n      0x00\n        /* \"contracts/Profile.sol\":1142:1165  profileList[msg.sender] */\n      dup1\n        /* \"contracts/Profile.sol\":1154:1164  msg.sender */\n      caller\n        /* \"contracts/Profile.sol\":1142:1165  profileList[msg.sender] */\n      0xffffffffffffffffffffffffffffffffffffffff\n      and\n      0xffffffffffffffffffffffffffffffffffffffff\n      and\n      dup2\n      mstore\n      0x20\n      add\n      swap1\n      dup2\n      mstore\n      0x20\n      add\n      0x00\n      keccak256\n        /* \"contracts/Profile.sol\":1142:1178  profileList[msg.sender] = newProfile */\n      0x00\n      dup3\n      add\n      mload\n      dup2\n      0x00\n      add\n      swap1\n      dup1\n      mload\n      swap1\n      0x20\n      add\n      swap1\n      tag_50\n      swap3\n      swap2\n      swap1\n      tag_51\n      jump\t// in\n    tag_50:\n      pop\n      0x20\n      dup3\n      add\n      mload\n      dup2\n      0x01\n      add\n      swap1\n      dup1\n      mload\n      swap1\n      0x20\n      add\n      swap1\n      tag_52\n      swap3\n      swap2\n      swap1\n      tag_51\n      jump\t// in\n    tag_52:\n      pop\n      0x40\n      dup3\n      add\n      mload\n      dup2\n      0x02\n      add\n      swap1\n      dup1\n      mload\n      swap1\n      0x20\n      add\n      swap1\n      tag_53\n      swap3\n      swap2\n      swap1\n      tag_51\n      jump\t// in\n    tag_53:\n      pop\n      0x60\n      dup3\n      add\n      mload\n      dup2\n      0x03\n      add\n      exp(0x0100, 0x00)\n      dup2\n      sload\n      dup2\n      0xffffffffffffffffffffffffffffffffffffffff\n      mul\n      not\n      and\n      swap1\n      dup4\n      0xffffffffffffffffffffffffffffffffffffffff\n      and\n      mul\n      or\n      swap1\n      sstore\n      pop\n      0x80\n      dup3\n      add\n      mload\n      dup2\n      0x03\n      add\n      exp(0x0100, 0x14)\n      dup2\n      sload\n      dup2\n      0xff\n      mul\n      not\n      and\n      swap1\n      dup4\n      iszero\n      iszero\n      mul\n      or\n      swap1\n      sstore\n      pop\n      swap1\n      pop\n      pop\n        /* \"contracts/Profile.sol\":1201:1211  numProfile */\n      0x03\n      0x00\n        /* \"contracts/Profile.sol\":1201:1214  numProfile ++ */\n      dup2\n      sload\n      dup1\n      swap3\n      swap2\n      swap1\n      tag_54\n      swap1\n      tag_55\n      jump\t// in\n    tag_54:\n      swap2\n      swap1\n      pop\n      sstore\n        /* \"contracts/Profile.sol\":1188:1198  numProfile */\n      0x03\n        /* \"contracts/Profile.sol\":1188:1214  numProfile = numProfile ++ */\n      dup2\n      swap1\n      sstore\n      pop\n        /* \"contracts/Profile.sol\":1047:1221  {... */\n      pop\n        /* \"contracts/Profile.sol\":949:1221  function createProfile(string memory name, string memory username, string memory password) public {... */\n      pop\n      pop\n      pop\n      jump\t// out\n    tag_51:\n      dup3\n      dup1\n      sload\n      tag_56\n      swap1\n      tag_35\n      jump\t// in\n    tag_56:\n      swap1\n      0x00\n      mstore\n      keccak256(0x00, 0x20)\n      swap1\n      0x1f\n      add\n      0x20\n      swap1\n      div\n      dup2\n      add\n      swap3\n      dup3\n      tag_58\n      jumpi\n      0x00\n      dup6\n      sstore\n      jump(tag_57)\n    tag_58:\n      dup3\n      0x1f\n      lt\n      tag_59\n      jumpi\n      dup1\n      mload\n      not(0xff)\n      and\n      dup4\n      dup1\n      add\n      or\n      dup6\n      sstore\n      jump(tag_57)\n    tag_59:\n      dup3\n      dup1\n      add\n      0x01\n      add\n      dup6\n      sstore\n      dup3\n      iszero\n      tag_57\n      jumpi\n      swap2\n      dup3\n      add\n    tag_60:\n      dup3\n      dup2\n      gt\n      iszero\n      tag_61\n      jumpi\n      dup3\n      mload\n      dup3\n      sstore\n      swap2\n      0x20\n      add\n      swap2\n      swap1\n      0x01\n      add\n      swap1\n      jump(tag_60)\n    tag_61:\n    tag_57:\n      pop\n      swap1\n      pop\n      tag_62\n      swap2\n      swap1\n      tag_63\n      jump\t// in\n    tag_62:\n      pop\n      swap1\n      jump\t// out\n    tag_63:\n    tag_64:\n      dup1\n      dup3\n      gt\n      iszero\n      tag_65\n      jumpi\n      0x00\n      dup2\n      0x00\n      swap1\n      sstore\n      pop\n      0x01\n      add\n      jump(tag_64)\n    tag_65:\n      pop\n      swap1\n      jump\t// out\n        /* \"#utility.yul\":7:419   */\n    tag_67:\n        /* \"#utility.yul\":85:90   */\n      0x00\n        /* \"#utility.yul\":110:176   */\n      tag_69\n        /* \"#utility.yul\":126:175   */\n      tag_70\n        /* \"#utility.yul\":168:174   */\n      dup5\n        /* \"#utility.yul\":126:175   */\n      tag_71\n      jump\t// in\n    tag_70:\n        /* \"#utility.yul\":110:176   */\n      tag_72\n      jump\t// in\n    tag_69:\n        /* \"#utility.yul\":101:176   */\n      swap1\n      pop\n        /* \"#utility.yul\":199:205   */\n      dup3\n        /* \"#utility.yul\":192:197   */\n      dup2\n        /* \"#utility.yul\":185:206   */\n      mstore\n        /* \"#utility.yul\":237:241   */\n      0x20\n        /* \"#utility.yul\":230:235   */\n      dup2\n        /* \"#utility.yul\":226:242   */\n      add\n        /* \"#utility.yul\":275:278   */\n      dup5\n        /* \"#utility.yul\":266:272   */\n      dup5\n        /* \"#utility.yul\":261:264   */\n      dup5\n        /* \"#utility.yul\":257:273   */\n      add\n        /* \"#utility.yul\":254:279   */\n      gt\n        /* \"#utility.yul\":251:363   */\n      iszero\n      tag_73\n      jumpi\n        /* \"#utility.yul\":282:361   */\n      tag_74\n      tag_75\n      jump\t// in\n    tag_74:\n        /* \"#utility.yul\":251:363   */\n    tag_73:\n        /* \"#utility.yul\":372:413   */\n      tag_76\n        /* \"#utility.yul\":406:412   */\n      dup5\n        /* \"#utility.yul\":401:404   */\n      dup3\n        /* \"#utility.yul\":396:399   */\n      dup6\n        /* \"#utility.yul\":372:413   */\n      tag_77\n      jump\t// in\n    tag_76:\n        /* \"#utility.yul\":91:419   */\n      pop\n        /* \"#utility.yul\":7:419   */\n      swap4\n      swap3\n      pop\n      pop\n      pop\n      jump\t// out\n        /* \"#utility.yul\":439:779   */\n    tag_78:\n        /* \"#utility.yul\":495:500   */\n      0x00\n        /* \"#utility.yul\":544:547   */\n      dup3\n        /* \"#utility.yul\":537:541   */\n      0x1f\n        /* \"#utility.yul\":529:535   */\n      dup4\n        /* \"#utility.yul\":525:542   */\n      add\n        /* \"#utility.yul\":521:548   */\n      slt\n        /* \"#utility.yul\":511:633   */\n      tag_80\n      jumpi\n        /* \"#utility.yul\":552:631   */\n      tag_81\n      tag_82\n      jump\t// in\n    tag_81:\n        /* \"#utility.yul\":511:633   */\n    tag_80:\n        /* \"#utility.yul\":669:675   */\n      dup2\n        /* \"#utility.yul\":656:676   */\n      calldataload\n        /* \"#utility.yul\":694:773   */\n      tag_83\n        /* \"#utility.yul\":769:772   */\n      dup5\n        /* \"#utility.yul\":761:767   */\n      dup3\n        /* \"#utility.yul\":754:758   */\n      0x20\n        /* \"#utility.yul\":746:752   */\n      dup7\n        /* \"#utility.yul\":742:759   */\n      add\n        /* \"#utility.yul\":694:773   */\n      tag_67\n      jump\t// in\n    tag_83:\n        /* \"#utility.yul\":685:773   */\n      swap2\n      pop\n        /* \"#utility.yul\":501:779   */\n      pop\n        /* \"#utility.yul\":439:779   */\n      swap3\n      swap2\n      pop\n      pop\n      jump\t// out\n        /* \"#utility.yul\":785:924   */\n    tag_84:\n        /* \"#utility.yul\":831:836   */\n      0x00\n        /* \"#utility.yul\":869:875   */\n      dup2\n        /* \"#utility.yul\":856:876   */\n      calldataload\n        /* \"#utility.yul\":847:876   */\n      swap1\n      pop\n        /* \"#utility.yul\":885:918   */\n      tag_86\n        /* \"#utility.yul\":912:917   */\n      dup2\n        /* \"#utility.yul\":885:918   */\n      tag_87\n      jump\t// in\n    tag_86:\n        /* \"#utility.yul\":785:924   */\n      swap3\n      swap2\n      pop\n      pop\n      jump\t// out\n        /* \"#utility.yul\":930:2089   */\n    tag_29:\n        /* \"#utility.yul\":1037:1043   */\n      0x00\n        /* \"#utility.yul\":1045:1051   */\n      dup1\n        /* \"#utility.yul\":1053:1059   */\n      0x00\n        /* \"#utility.yul\":1102:1104   */\n      0x60\n        /* \"#utility.yul\":1090:1099   */\n      dup5\n        /* \"#utility.yul\":1081:1088   */\n      dup7\n        /* \"#utility.yul\":1077:1100   */\n      sub\n        /* \"#utility.yul\":1073:1105   */\n      slt\n        /* \"#utility.yul\":1070:1189   */\n      iszero\n      tag_89\n      jumpi\n        /* \"#utility.yul\":1108:1187   */\n      tag_90\n      tag_91\n      jump\t// in\n    tag_90:\n        /* \"#utility.yul\":1070:1189   */\n    tag_89:\n        /* \"#utility.yul\":1256:1257   */\n      0x00\n        /* \"#utility.yul\":1245:1254   */\n      dup5\n        /* \"#utility.yul\":1241:1258   */\n      add\n        /* \"#utility.yul\":1228:1259   */\n      calldataload\n        /* \"#utility.yul\":1286:1304   */\n      0xffffffffffffffff\n        /* \"#utility.yul\":1278:1284   */\n      dup2\n        /* \"#utility.yul\":1275:1305   */\n      gt\n        /* \"#utility.yul\":1272:1389   */\n      iszero\n      tag_92\n      jumpi\n        /* \"#utility.yul\":1308:1387   */\n      tag_93\n      tag_94\n      jump\t// in\n    tag_93:\n        /* \"#utility.yul\":1272:1389   */\n    tag_92:\n        /* \"#utility.yul\":1413:1476   */\n      tag_95\n        /* \"#utility.yul\":1468:1475   */\n      dup7\n        /* \"#utility.yul\":1459:1465   */\n      dup3\n        /* \"#utility.yul\":1448:1457   */\n      dup8\n        /* \"#utility.yul\":1444:1466   */\n      add\n        /* \"#utility.yul\":1413:1476   */\n      tag_78\n      jump\t// in\n    tag_95:\n        /* \"#utility.yul\":1403:1476   */\n      swap4\n      pop\n        /* \"#utility.yul\":1199:1486   */\n      pop\n        /* \"#utility.yul\":1553:1555   */\n      0x20\n        /* \"#utility.yul\":1542:1551   */\n      dup5\n        /* \"#utility.yul\":1538:1556   */\n      add\n        /* \"#utility.yul\":1525:1557   */\n      calldataload\n        /* \"#utility.yul\":1584:1602   */\n      0xffffffffffffffff\n        /* \"#utility.yul\":1576:1582   */\n      dup2\n        /* \"#utility.yul\":1573:1603   */\n      gt\n        /* \"#utility.yul\":1570:1687   */\n      iszero\n      tag_96\n      jumpi\n        /* \"#utility.yul\":1606:1685   */\n      tag_97\n      tag_94\n      jump\t// in\n    tag_97:\n        /* \"#utility.yul\":1570:1687   */\n    tag_96:\n        /* \"#utility.yul\":1711:1774   */\n      tag_98\n        /* \"#utility.yul\":1766:1773   */\n      dup7\n        /* \"#utility.yul\":1757:1763   */\n      dup3\n        /* \"#utility.yul\":1746:1755   */\n      dup8\n        /* \"#utility.yul\":1742:1764   */\n      add\n        /* \"#utility.yul\":1711:1774   */\n      tag_78\n      jump\t// in\n    tag_98:\n        /* \"#utility.yul\":1701:1774   */\n      swap3\n      pop\n        /* \"#utility.yul\":1496:1784   */\n      pop\n        /* \"#utility.yul\":1851:1853   */\n      0x40\n        /* \"#utility.yul\":1840:1849   */\n      dup5\n        /* \"#utility.yul\":1836:1854   */\n      add\n        /* \"#utility.yul\":1823:1855   */\n      calldataload\n        /* \"#utility.yul\":1882:1900   */\n      0xffffffffffffffff\n        /* \"#utility.yul\":1874:1880   */\n      dup2\n        /* \"#utility.yul\":1871:1901   */\n      gt\n        /* \"#utility.yul\":1868:1985   */\n      iszero\n      tag_99\n      jumpi\n        /* \"#utility.yul\":1904:1983   */\n      tag_100\n      tag_94\n      jump\t// in\n    tag_100:\n        /* \"#utility.yul\":1868:1985   */\n    tag_99:\n        /* \"#utility.yul\":2009:2072   */\n      tag_101\n        /* \"#utility.yul\":2064:2071   */\n      dup7\n        /* \"#utility.yul\":2055:2061   */\n      dup3\n        /* \"#utility.yul\":2044:2053   */\n      dup8\n        /* \"#utility.yul\":2040:2062   */\n      add\n        /* \"#utility.yul\":2009:2072   */\n      tag_78\n      jump\t// in\n    tag_101:\n        /* \"#utility.yul\":1999:2072   */\n      swap2\n      pop\n        /* \"#utility.yul\":1794:2082   */\n      pop\n        /* \"#utility.yul\":930:2089   */\n      swap3\n      pop\n      swap3\n      pop\n      swap3\n      jump\t// out\n        /* \"#utility.yul\":2095:2424   */\n    tag_23:\n        /* \"#utility.yul\":2154:2160   */\n      0x00\n        /* \"#utility.yul\":2203:2205   */\n      0x20\n        /* \"#utility.yul\":2191:2200   */\n      dup3\n        /* \"#utility.yul\":2182:2189   */\n      dup5\n        /* \"#utility.yul\":2178:2201   */\n      sub\n        /* \"#utility.yul\":2174:2206   */\n      slt\n        /* \"#utility.yul\":2171:2290   */\n      iszero\n      tag_103\n      jumpi\n        /* \"#utility.yul\":2209:2288   */\n      tag_104\n      tag_91\n      jump\t// in\n    tag_104:\n        /* \"#utility.yul\":2171:2290   */\n    tag_103:\n        /* \"#utility.yul\":2329:2330   */\n      0x00\n        /* \"#utility.yul\":2354:2407   */\n      tag_105\n        /* \"#utility.yul\":2399:2406   */\n      dup5\n        /* \"#utility.yul\":2390:2396   */\n      dup3\n        /* \"#utility.yul\":2379:2388   */\n      dup6\n        /* \"#utility.yul\":2375:2397   */\n      add\n        /* \"#utility.yul\":2354:2407   */\n      tag_84\n      jump\t// in\n    tag_105:\n        /* \"#utility.yul\":2344:2407   */\n      swap2\n      pop\n        /* \"#utility.yul\":2300:2417   */\n      pop\n        /* \"#utility.yul\":2095:2424   */\n      swap3\n      swap2\n      pop\n      pop\n      jump\t// out\n        /* \"#utility.yul\":2430:2539   */\n    tag_106:\n        /* \"#utility.yul\":2511:2532   */\n      tag_108\n        /* \"#utility.yul\":2526:2531   */\n      dup2\n        /* \"#utility.yul\":2511:2532   */\n      tag_109\n      jump\t// in\n    tag_108:\n        /* \"#utility.yul\":2506:2509   */\n      dup3\n        /* \"#utility.yul\":2499:2533   */\n      mstore\n        /* \"#utility.yul\":2430:2539   */\n      pop\n      pop\n      jump\t// out\n        /* \"#utility.yul\":2545:2909   */\n    tag_110:\n        /* \"#utility.yul\":2633:2636   */\n      0x00\n        /* \"#utility.yul\":2661:2700   */\n      tag_112\n        /* \"#utility.yul\":2694:2699   */\n      dup3\n        /* \"#utility.yul\":2661:2700   */\n      tag_113\n      jump\t// in\n    tag_112:\n        /* \"#utility.yul\":2716:2787   */\n      tag_114\n        /* \"#utility.yul\":2780:2786   */\n      dup2\n        /* \"#utility.yul\":2775:2778   */\n      dup6\n        /* \"#utility.yul\":2716:2787   */\n      tag_115\n      jump\t// in\n    tag_114:\n        /* \"#utility.yul\":2709:2787   */\n      swap4\n      pop\n        /* \"#utility.yul\":2796:2848   */\n      tag_116\n        /* \"#utility.yul\":2841:2847   */\n      dup2\n        /* \"#utility.yul\":2836:2839   */\n      dup6\n        /* \"#utility.yul\":2829:2833   */\n      0x20\n        /* \"#utility.yul\":2822:2827   */\n      dup7\n        /* \"#utility.yul\":2818:2834   */\n      add\n        /* \"#utility.yul\":2796:2848   */\n      tag_117\n      jump\t// in\n    tag_116:\n        /* \"#utility.yul\":2873:2902   */\n      tag_118\n        /* \"#utility.yul\":2895:2901   */\n      dup2\n        /* \"#utility.yul\":2873:2902   */\n      tag_119\n      jump\t// in\n    tag_118:\n        /* \"#utility.yul\":2868:2871   */\n      dup5\n        /* \"#utility.yul\":2864:2903   */\n      add\n        /* \"#utility.yul\":2857:2903   */\n      swap2\n      pop\n        /* \"#utility.yul\":2637:2909   */\n      pop\n        /* \"#utility.yul\":2545:2909   */\n      swap3\n      swap2\n      pop\n      pop\n      jump\t// out\n        /* \"#utility.yul\":2915:3033   */\n    tag_120:\n        /* \"#utility.yul\":3002:3026   */\n      tag_122\n        /* \"#utility.yul\":3020:3025   */\n      dup2\n        /* \"#utility.yul\":3002:3026   */\n      tag_123\n      jump\t// in\n    tag_122:\n        /* \"#utility.yul\":2997:3000   */\n      dup3\n        /* \"#utility.yul\":2990:3027   */\n      mstore\n        /* \"#utility.yul\":2915:3033   */\n      pop\n      pop\n      jump\t// out\n        /* \"#utility.yul\":3039:3249   */\n    tag_20:\n        /* \"#utility.yul\":3126:3130   */\n      0x00\n        /* \"#utility.yul\":3164:3166   */\n      0x20\n        /* \"#utility.yul\":3153:3162   */\n      dup3\n        /* \"#utility.yul\":3149:3167   */\n      add\n        /* \"#utility.yul\":3141:3167   */\n      swap1\n      pop\n        /* \"#utility.yul\":3177:3242   */\n      tag_125\n        /* \"#utility.yul\":3239:3240   */\n      0x00\n        /* \"#utility.yul\":3228:3237   */\n      dup4\n        /* \"#utility.yul\":3224:3241   */\n      add\n        /* \"#utility.yul\":3215:3221   */\n      dup5\n        /* \"#utility.yul\":3177:3242   */\n      tag_106\n      jump\t// in\n    tag_125:\n        /* \"#utility.yul\":3039:3249   */\n      swap3\n      swap2\n      pop\n      pop\n      jump\t// out\n        /* \"#utility.yul\":3255:3568   */\n    tag_16:\n        /* \"#utility.yul\":3368:3372   */\n      0x00\n        /* \"#utility.yul\":3406:3408   */\n      0x20\n        /* \"#utility.yul\":3395:3404   */\n      dup3\n        /* \"#utility.yul\":3391:3409   */\n      add\n        /* \"#utility.yul\":3383:3409   */\n      swap1\n      pop\n        /* \"#utility.yul\":3455:3464   */\n      dup2\n        /* \"#utility.yul\":3449:3453   */\n      dup2\n        /* \"#utility.yul\":3445:3465   */\n      sub\n        /* \"#utility.yul\":3441:3442   */\n      0x00\n        /* \"#utility.yul\":3430:3439   */\n      dup4\n        /* \"#utility.yul\":3426:3443   */\n      add\n        /* \"#utility.yul\":3419:3466   */\n      mstore\n        /* \"#utility.yul\":3483:3561   */\n      tag_127\n        /* \"#utility.yul\":3556:3560   */\n      dup2\n        /* \"#utility.yul\":3547:3553   */\n      dup5\n        /* \"#utility.yul\":3483:3561   */\n      tag_110\n      jump\t// in\n    tag_127:\n        /* \"#utility.yul\":3475:3561   */\n      swap1\n      pop\n        /* \"#utility.yul\":3255:3568   */\n      swap3\n      swap2\n      pop\n      pop\n      jump\t// out\n        /* \"#utility.yul\":3574:3796   */\n    tag_12:\n        /* \"#utility.yul\":3667:3671   */\n      0x00\n        /* \"#utility.yul\":3705:3707   */\n      0x20\n        /* \"#utility.yul\":3694:3703   */\n      dup3\n        /* \"#utility.yul\":3690:3708   */\n      add\n        /* \"#utility.yul\":3682:3708   */\n      swap1\n      pop\n        /* \"#utility.yul\":3718:3789   */\n      tag_129\n        /* \"#utility.yul\":3786:3787   */\n      0x00\n        /* \"#utility.yul\":3775:3784   */\n      dup4\n        /* \"#utility.yul\":3771:3788   */\n      add\n        /* \"#utility.yul\":3762:3768   */\n      dup5\n        /* \"#utility.yul\":3718:3789   */\n      tag_120\n      jump\t// in\n    tag_129:\n        /* \"#utility.yul\":3574:3796   */\n      swap3\n      swap2\n      pop\n      pop\n      jump\t// out\n        /* \"#utility.yul\":3802:3931   */\n    tag_72:\n        /* \"#utility.yul\":3836:3842   */\n      0x00\n        /* \"#utility.yul\":3863:3883   */\n      tag_131\n      tag_132\n      jump\t// in\n    tag_131:\n        /* \"#utility.yul\":3853:3883   */\n      swap1\n      pop\n        /* \"#utility.yul\":3892:3925   */\n      tag_133\n        /* \"#utility.yul\":3920:3924   */\n      dup3\n        /* \"#utility.yul\":3912:3918   */\n      dup3\n        /* \"#utility.yul\":3892:3925   */\n      tag_134\n      jump\t// in\n    tag_133:\n        /* \"#utility.yul\":3802:3931   */\n      swap2\n      swap1\n      pop\n      jump\t// out\n        /* \"#utility.yul\":3937:4012   */\n    tag_132:\n        /* \"#utility.yul\":3970:3976   */\n      0x00\n        /* \"#utility.yul\":4003:4005   */\n      0x40\n        /* \"#utility.yul\":3997:4006   */\n      mload\n        /* \"#utility.yul\":3987:4006   */\n      swap1\n      pop\n        /* \"#utility.yul\":3937:4012   */\n      swap1\n      jump\t// out\n        /* \"#utility.yul\":4018:4326   */\n    tag_71:\n        /* \"#utility.yul\":4080:4084   */\n      0x00\n        /* \"#utility.yul\":4170:4188   */\n      0xffffffffffffffff\n        /* \"#utility.yul\":4162:4168   */\n      dup3\n        /* \"#utility.yul\":4159:4189   */\n      gt\n        /* \"#utility.yul\":4156:4212   */\n      iszero\n      tag_137\n      jumpi\n        /* \"#utility.yul\":4192:4210   */\n      tag_138\n      tag_139\n      jump\t// in\n    tag_138:\n        /* \"#utility.yul\":4156:4212   */\n    tag_137:\n        /* \"#utility.yul\":4230:4259   */\n      tag_140\n        /* \"#utility.yul\":4252:4258   */\n      dup3\n        /* \"#utility.yul\":4230:4259   */\n      tag_119\n      jump\t// in\n    tag_140:\n        /* \"#utility.yul\":4222:4259   */\n      swap1\n      pop\n        /* \"#utility.yul\":4314:4318   */\n      0x20\n        /* \"#utility.yul\":4308:4312   */\n      dup2\n        /* \"#utility.yul\":4304:4319   */\n      add\n        /* \"#utility.yul\":4296:4319   */\n      swap1\n      pop\n        /* \"#utility.yul\":4018:4326   */\n      swap2\n      swap1\n      pop\n      jump\t// out\n        /* \"#utility.yul\":4332:4431   */\n    tag_113:\n        /* \"#utility.yul\":4384:4390   */\n      0x00\n        /* \"#utility.yul\":4418:4423   */\n      dup2\n        /* \"#utility.yul\":4412:4424   */\n      mload\n        /* \"#utility.yul\":4402:4424   */\n      swap1\n      pop\n        /* \"#utility.yul\":4332:4431   */\n      swap2\n      swap1\n      pop\n      jump\t// out\n        /* \"#utility.yul\":4437:4606   */\n    tag_115:\n        /* \"#utility.yul\":4521:4532   */\n      0x00\n        /* \"#utility.yul\":4555:4561   */\n      dup3\n        /* \"#utility.yul\":4550:4553   */\n      dup3\n        /* \"#utility.yul\":4543:4562   */\n      mstore\n        /* \"#utility.yul\":4595:4599   */\n      0x20\n        /* \"#utility.yul\":4590:4593   */\n      dup3\n        /* \"#utility.yul\":4586:4600   */\n      add\n        /* \"#utility.yul\":4571:4600   */\n      swap1\n      pop\n        /* \"#utility.yul\":4437:4606   */\n      swap3\n      swap2\n      pop\n      pop\n      jump\t// out\n        /* \"#utility.yul\":4612:4702   */\n    tag_109:\n        /* \"#utility.yul\":4646:4653   */\n      0x00\n        /* \"#utility.yul\":4689:4694   */\n      dup2\n        /* \"#utility.yul\":4682:4695   */\n      iszero\n        /* \"#utility.yul\":4675:4696   */\n      iszero\n        /* \"#utility.yul\":4664:4696   */\n      swap1\n      pop\n        /* \"#utility.yul\":4612:4702   */\n      swap2\n      swap1\n      pop\n      jump\t// out\n        /* \"#utility.yul\":4708:4785   */\n    tag_123:\n        /* \"#utility.yul\":4745:4752   */\n      0x00\n        /* \"#utility.yul\":4774:4779   */\n      dup2\n        /* \"#utility.yul\":4763:4779   */\n      swap1\n      pop\n        /* \"#utility.yul\":4708:4785   */\n      swap2\n      swap1\n      pop\n      jump\t// out\n        /* \"#utility.yul\":4791:4945   */\n    tag_77:\n        /* \"#utility.yul\":4875:4881   */\n      dup3\n        /* \"#utility.yul\":4870:4873   */\n      dup2\n        /* \"#utility.yul\":4865:4868   */\n      dup4\n        /* \"#utility.yul\":4852:4882   */\n      calldatacopy\n        /* \"#utility.yul\":4937:4938   */\n      0x00\n        /* \"#utility.yul\":4928:4934   */\n      dup4\n        /* \"#utility.yul\":4923:4926   */\n      dup4\n        /* \"#utility.yul\":4919:4935   */\n      add\n        /* \"#utility.yul\":4912:4939   */\n      mstore\n        /* \"#utility.yul\":4791:4945   */\n      pop\n      pop\n      pop\n      jump\t// out\n        /* \"#utility.yul\":4951:5258   */\n    tag_117:\n        /* \"#utility.yul\":5019:5020   */\n      0x00\n        /* \"#utility.yul\":5029:5142   */\n    tag_147:\n        /* \"#utility.yul\":5043:5049   */\n      dup4\n        /* \"#utility.yul\":5040:5041   */\n      dup2\n        /* \"#utility.yul\":5037:5050   */\n      lt\n        /* \"#utility.yul\":5029:5142   */\n      iszero\n      tag_149\n      jumpi\n        /* \"#utility.yul\":5128:5129   */\n      dup1\n        /* \"#utility.yul\":5123:5126   */\n      dup3\n        /* \"#utility.yul\":5119:5130   */\n      add\n        /* \"#utility.yul\":5113:5131   */\n      mload\n        /* \"#utility.yul\":5109:5110   */\n      dup2\n        /* \"#utility.yul\":5104:5107   */\n      dup5\n        /* \"#utility.yul\":5100:5111   */\n      add\n        /* \"#utility.yul\":5093:5132   */\n      mstore\n        /* \"#utility.yul\":5065:5067   */\n      0x20\n        /* \"#utility.yul\":5062:5063   */\n      dup2\n        /* \"#utility.yul\":5058:5068   */\n      add\n        /* \"#utility.yul\":5053:5068   */\n      swap1\n      pop\n        /* \"#utility.yul\":5029:5142   */\n      jump(tag_147)\n    tag_149:\n        /* \"#utility.yul\":5160:5166   */\n      dup4\n        /* \"#utility.yul\":5157:5158   */\n      dup2\n        /* \"#utility.yul\":5154:5167   */\n      gt\n        /* \"#utility.yul\":5151:5252   */\n      iszero\n      tag_150\n      jumpi\n        /* \"#utility.yul\":5240:5241   */\n      0x00\n        /* \"#utility.yul\":5231:5237   */\n      dup5\n        /* \"#utility.yul\":5226:5229   */\n      dup5\n        /* \"#utility.yul\":5222:5238   */\n      add\n        /* \"#utility.yul\":5215:5242   */\n      mstore\n        /* \"#utility.yul\":5151:5252   */\n    tag_150:\n        /* \"#utility.yul\":5000:5258   */\n      pop\n        /* \"#utility.yul\":4951:5258   */\n      pop\n      pop\n      pop\n      jump\t// out\n        /* \"#utility.yul\":5264:5584   */\n    tag_35:\n        /* \"#utility.yul\":5308:5314   */\n      0x00\n        /* \"#utility.yul\":5345:5346   */\n      0x02\n        /* \"#utility.yul\":5339:5343   */\n      dup3\n        /* \"#utility.yul\":5335:5347   */\n      div\n        /* \"#utility.yul\":5325:5347   */\n      swap1\n      pop\n        /* \"#utility.yul\":5392:5393   */\n      0x01\n        /* \"#utility.yul\":5386:5390   */\n      dup3\n        /* \"#utility.yul\":5382:5394   */\n      and\n        /* \"#utility.yul\":5413:5431   */\n      dup1\n        /* \"#utility.yul\":5403:5484   */\n      tag_152\n      jumpi\n        /* \"#utility.yul\":5469:5473   */\n      0x7f\n        /* \"#utility.yul\":5461:5467   */\n      dup3\n        /* \"#utility.yul\":5457:5474   */\n      and\n        /* \"#utility.yul\":5447:5474   */\n      swap2\n      pop\n        /* \"#utility.yul\":5403:5484   */\n    tag_152:\n        /* \"#utility.yul\":5531:5533   */\n      0x20\n        /* \"#utility.yul\":5523:5529   */\n      dup3\n        /* \"#utility.yul\":5520:5534   */\n      lt\n        /* \"#utility.yul\":5500:5518   */\n      dup2\n        /* \"#utility.yul\":5497:5535   */\n      eq\n        /* \"#utility.yul\":5494:5578   */\n      iszero\n      tag_153\n      jumpi\n        /* \"#utility.yul\":5550:5568   */\n      tag_154\n      tag_155\n      jump\t// in\n    tag_154:\n        /* \"#utility.yul\":5494:5578   */\n    tag_153:\n        /* \"#utility.yul\":5315:5584   */\n      pop\n        /* \"#utility.yul\":5264:5584   */\n      swap2\n      swap1\n      pop\n      jump\t// out\n        /* \"#utility.yul\":5590:5871   */\n    tag_134:\n        /* \"#utility.yul\":5673:5700   */\n      tag_157\n        /* \"#utility.yul\":5695:5699   */\n      dup3\n        /* \"#utility.yul\":5673:5700   */\n      tag_119\n      jump\t// in\n    tag_157:\n        /* \"#utility.yul\":5665:5671   */\n      dup2\n        /* \"#utility.yul\":5661:5701   */\n      add\n        /* \"#utility.yul\":5803:5809   */\n      dup2\n        /* \"#utility.yul\":5791:5801   */\n      dup2\n        /* \"#utility.yul\":5788:5810   */\n      lt\n        /* \"#utility.yul\":5767:5785   */\n      0xffffffffffffffff\n        /* \"#utility.yul\":5755:5765   */\n      dup3\n        /* \"#utility.yul\":5752:5786   */\n      gt\n        /* \"#utility.yul\":5749:5811   */\n      or\n        /* \"#utility.yul\":5746:5834   */\n      iszero\n      tag_158\n      jumpi\n        /* \"#utility.yul\":5814:5832   */\n      tag_159\n      tag_139\n      jump\t// in\n    tag_159:\n        /* \"#utility.yul\":5746:5834   */\n    tag_158:\n        /* \"#utility.yul\":5854:5864   */\n      dup1\n        /* \"#utility.yul\":5850:5852   */\n      0x40\n        /* \"#utility.yul\":5843:5865   */\n      mstore\n        /* \"#utility.yul\":5633:5871   */\n      pop\n        /* \"#utility.yul\":5590:5871   */\n      pop\n      pop\n      jump\t// out\n        /* \"#utility.yul\":5877:6110   */\n    tag_55:\n        /* \"#utility.yul\":5916:5919   */\n      0x00\n        /* \"#utility.yul\":5939:5963   */\n      tag_161\n        /* \"#utility.yul\":5957:5962   */\n      dup3\n        /* \"#utility.yul\":5939:5963   */\n      tag_123\n      jump\t// in\n    tag_161:\n        /* \"#utility.yul\":5930:5963   */\n      swap2\n      pop\n        /* \"#utility.yul\":5985:6051   */\n      0xffffffffffffffffffffffffffffffffffffffffffffffffffffffffffffffff\n        /* \"#utility.yul\":5978:5983   */\n      dup3\n        /* \"#utility.yul\":5975:6052   */\n      eq\n        /* \"#utility.yul\":5972:6075   */\n      iszero\n      tag_162\n      jumpi\n        /* \"#utility.yul\":6055:6073   */\n      tag_163\n      tag_164\n      jump\t// in\n    tag_163:\n        /* \"#utility.yul\":5972:6075   */\n    tag_162:\n        /* \"#utility.yul\":6102:6103   */\n      0x01\n        /* \"#utility.yul\":6095:6100   */\n      dup3\n        /* \"#utility.yul\":6091:6104   */\n      add\n        /* \"#utility.yul\":6084:6104   */\n      swap1\n      pop\n        /* \"#utility.yul\":5877:6110   */\n      swap2\n      swap1\n      pop\n      jump\t// out\n        /* \"#utility.yul\":6116:6296   */\n    tag_164:\n        /* \"#utility.yul\":6164:6241   */\n      0x4e487b7100000000000000000000000000000000000000000000000000000000\n        /* \"#utility.yul\":6161:6162   */\n      0x00\n        /* \"#utility.yul\":6154:6242   */\n      mstore\n        /* \"#utility.yul\":6261:6265   */\n      0x11\n        /* \"#utility.yul\":6258:6259   */\n      0x04\n        /* \"#utility.yul\":6251:6266   */\n      mstore\n        /* \"#utility.yul\":6285:6289   */\n      0x24\n        /* \"#utility.yul\":6282:6283   */\n      0x00\n        /* \"#utility.yul\":6275:6290   */\n      revert\n        /* \"#utility.yul\":6302:6482   */\n    tag_155:\n        /* \"#utility.yul\":6350:6427   */\n      0x4e487b7100000000000000000000000000000000000000000000000000000000\n        /* \"#utility.yul\":6347:6348   */\n      0x00\n        /* \"#utility.yul\":6340:6428   */\n      mstore\n        /* \"#utility.yul\":6447:6451   */\n      0x22\n        /* \"#utility.yul\":6444:6445   */\n      0x04\n        /* \"#utility.yul\":6437:6452   */\n      mstore\n        /* \"#utility.yul\":6471:6475   */\n      0x24\n        /* \"#utility.yul\":6468:6469   */\n      0x00\n        /* \"#utility.yul\":6461:6476   */\n      revert\n        /* \"#utility.yul\":6488:6668   */\n    tag_139:\n        /* \"#utility.yul\":6536:6613   */\n      0x4e487b7100000000000000000000000000000000000000000000000000000000\n        /* \"#utility.yul\":6533:6534   */\n      0x00\n        /* \"#utility.yul\":6526:6614   */\n      mstore\n        /* \"#utility.yul\":6633:6637   */\n      0x41\n        /* \"#utility.yul\":6630:6631   */\n      0x04\n        /* \"#utility.yul\":6623:6638   */\n      mstore\n        /* \"#utility.yul\":6657:6661   */\n      0x24\n        /* \"#utility.yul\":6654:6655   */\n      0x00\n        /* \"#utility.yul\":6647:6662   */\n      revert\n        /* \"#utility.yul\":6674:6791   */\n    tag_82:\n        /* \"#utility.yul\":6783:6784   */\n      0x00\n        /* \"#utility.yul\":6780:6781   */\n      dup1\n        /* \"#utility.yul\":6773:6785   */\n      revert\n        /* \"#utility.yul\":6797:6914   */\n    tag_75:\n        /* \"#utility.yul\":6906:6907   */\n      0x00\n        /* \"#utility.yul\":6903:6904   */\n      dup1\n        /* \"#utility.yul\":6896:6908   */\n      revert\n        /* \"#utility.yul\":6920:7037   */\n    tag_94:\n        /* \"#utility.yul\":7029:7030   */\n      0x00\n        /* \"#utility.yul\":7026:7027   */\n      dup1\n        /* \"#utility.yul\":7019:7031   */\n      revert\n        /* \"#utility.yul\":7043:7160   */\n    tag_91:\n        /* \"#utility.yul\":7152:7153   */\n      0x00\n        /* \"#utility.yul\":7149:7150   */\n      dup1\n        /* \"#utility.yul\":7142:7154   */\n      revert\n        /* \"#utility.yul\":7166:7268   */\n    tag_119:\n        /* \"#utility.yul\":7207:7213   */\n      0x00\n        /* \"#utility.yul\":7258:7260   */\n      0x1f\n        /* \"#utility.yul\":7254:7261   */\n      not\n        /* \"#utility.yul\":7249:7251   */\n      0x1f\n        /* \"#utility.yul\":7242:7247   */\n      dup4\n        /* \"#utility.yul\":7238:7252   */\n      add\n        /* \"#utility.yul\":7234:7262   */\n      and\n        /* \"#utility.yul\":7224:7262   */\n      swap1\n      pop\n        /* \"#utility.yul\":7166:7268   */\n      swap2\n      swap1\n      pop\n      jump\t// out\n        /* \"#utility.yul\":7274:7396   */\n    tag_87:\n        /* \"#utility.yul\":7347:7371   */\n      tag_174\n        /* \"#utility.yul\":7365:7370   */\n      dup2\n        /* \"#utility.yul\":7347:7371   */\n      tag_123\n      jump\t// in\n    tag_174:\n        /* \"#utility.yul\":7340:7345   */\n      dup2\n        /* \"#utility.yul\":7337:7372   */\n      eq\n        /* \"#utility.yul\":7327:7390   */\n      tag_175\n      jumpi\n        /* \"#utility.yul\":7386:7387   */\n      0x00\n        /* \"#utility.yul\":7383:7384   */\n      dup1\n        /* \"#utility.yul\":7376:7388   */\n      revert\n        /* \"#utility.yul\":7327:7390   */\n    tag_175:\n        /* \"#utility.yul\":7274:7396   */\n      pop\n      jump\t// out\n\n    auxdata: 0xa26469706673582212200e38d4e9e07d6afb34ec5c6c82ed970145bd2ac6f91afd9585394b3ac3b861a464736f6c63430008070033\n}\n",
				"bytecode": {
					"linkReferences": {},
					"object": "6080604052600060035534801561001557600080fd5b50610acb806100256000396000f3fe608060405234801561001057600080fd5b50600436106100625760003560e01c8063169134691461006757806317d7de7c146100855780633ae7dc1a146100a35780635544f6b4146100c15780636d4540eb146100dd5780639841c82c146100e7575b600080fd5b61006f610103565b60405161007c919061083b565b60405180910390f35b61008d610109565b60405161009a9190610819565b60405180910390f35b6100ab610239565b6040516100b891906107fe565b60405180910390f35b6100db60048036038101906100d6919061077a565b61029d565b005b6100e56103e8565b005b61010160048036038101906100fc91906106d3565b610444565b005b60035481565b6060600115156000803373ffffffffffffffffffffffffffffffffffffffff1673ffffffffffffffffffffffffffffffffffffffff16815260200190815260200160002060030160149054906101000a900460ff1615151461016a57600080fd5b6000803373ffffffffffffffffffffffffffffffffffffffff1673ffffffffffffffffffffffffffffffffffffffff16815260200190815260200160002060000180546101b690610920565b80601f01602080910402602001604051908101604052809291908181526020018280546101e290610920565b801561022f5780601f106102045761010080835404028352916020019161022f565b820191906000526020600020905b81548152906001019060200180831161021257829003601f168201915b5050505050905090565b60008060003373ffffffffffffffffffffffffffffffffffffffff1673ffffffffffffffffffffffffffffffffffffffff16815260200190815260200160002060030160149054906101000a900460ff16610295576000610298565b60015b905090565b60001515600160003373ffffffffffffffffffffffffffffffffffffffff1673ffffffffffffffffffffffffffffffffffffffff168152602001908152602001600020600083815260200190815260200160002060009054906101000a900460ff16151514156103ac5760018060003373ffffffffffffffffffffffffffffffffffffffff1673ffffffffffffffffffffffffffffffffffffffff168152602001908152602001600020600083815260200190815260200160002060006101000a81548160ff0219169083151502179055507f141f0f98191bb867d14e65d7d6496cba0add11cde65dc83f66c03f1dc876c5f1600160405161039f91906107fe565b60405180910390a16103e5565b7f141f0f98191bb867d14e65d7d6496cba0add11cde65dc83f66c03f1dc876c5f160006040516103dc91906107fe565b60405180910390a15b50565b60008060003373ffffffffffffffffffffffffffffffffffffffff1673ffffffffffffffffffffffffffffffffffffffff16815260200190815260200160002060030160146101000a81548160ff021916908315150217905550565b60006040518060a001604052808581526020018481526020018381526020013373ffffffffffffffffffffffffffffffffffffffff168152602001600115158152509050806000803373ffffffffffffffffffffffffffffffffffffffff1673ffffffffffffffffffffffffffffffffffffffff16815260200190815260200160002060008201518160000190805190602001906104e39291906105ab565b5060208201518160010190805190602001906105009291906105ab565b50604082015181600201908051906020019061051d9291906105ab565b5060608201518160030160006101000a81548173ffffffffffffffffffffffffffffffffffffffff021916908373ffffffffffffffffffffffffffffffffffffffff16021790555060808201518160030160146101000a81548160ff0219169083151502179055509050506003600081548092919061059b90610983565b9190505560038190555050505050565b8280546105b790610920565b90600052602060002090601f0160209004810192826105d95760008555610620565b82601f106105f257805160ff1916838001178555610620565b82800160010185558215610620579182015b8281111561061f578251825591602001919060010190610604565b5b50905061062d9190610631565b5090565b5b8082111561064a576000816000905550600101610632565b5090565b600061066161065c8461087b565b610856565b90508281526020810184848401111561067d5761067c610a5e565b5b6106888482856108de565b509392505050565b600082601f8301126106a5576106a4610a59565b5b81356106b584826020860161064e565b91505092915050565b6000813590506106cd81610a7e565b92915050565b6000806000606084860312156106ec576106eb610a68565b5b600084013567ffffffffffffffff81111561070a57610709610a63565b5b61071686828701610690565b935050602084013567ffffffffffffffff81111561073757610736610a63565b5b61074386828701610690565b925050604084013567ffffffffffffffff81111561076457610763610a63565b5b61077086828701610690565b9150509250925092565b6000602082840312156107905761078f610a68565b5b600061079e848285016106be565b91505092915050565b6107b0816108c8565b82525050565b60006107c1826108ac565b6107cb81856108b7565b93506107db8185602086016108ed565b6107e481610a6d565b840191505092915050565b6107f8816108d4565b82525050565b600060208201905061081360008301846107a7565b92915050565b6000602082019050818103600083015261083381846107b6565b905092915050565b600060208201905061085060008301846107ef565b92915050565b6000610860610871565b905061086c8282610952565b919050565b6000604051905090565b600067ffffffffffffffff82111561089657610895610a2a565b5b61089f82610a6d565b9050602081019050919050565b600081519050919050565b600082825260208201905092915050565b60008115159050919050565b6000819050919050565b82818337600083830152505050565b60005b8381101561090b5780820151818401526020810190506108f0565b8381111561091a576000848401525b50505050565b6000600282049050600182168061093857607f821691505b6020821081141561094c5761094b6109fb565b5b50919050565b61095b82610a6d565b810181811067ffffffffffffffff8211171561097a57610979610a2a565b5b80604052505050565b600061098e826108d4565b91507fffffffffffffffffffffffffffffffffffffffffffffffffffffffffffffffff8214156109c1576109c06109cc565b5b600182019050919050565b7f4e487b7100000000000000000000000000000000000000000000000000000000600052601160045260246000fd5b7f4e487b7100000000000000000000000000000000000000000000000000000000600052602260045260246000fd5b7f4e487b7100000000000000000000000000000000000000000000000000000000600052604160045260246000fd5b600080fd5b600080fd5b600080fd5b600080fd5b6000601f19601f8301169050919050565b610a87816108d4565b8114610a9257600080fd5b5056fea26469706673582212200e38d4e9e07d6afb34ec5c6c82ed970145bd2ac6f91afd9585394b3ac3b861a464736f6c63430008070033",
					"opcodes": "PUSH1 0x80 PUSH1 0x40 MSTORE PUSH1 0x0 PUSH1 0x3 SSTORE CALLVALUE DUP1 ISZERO PUSH2 0x15 JUMPI PUSH1 0x0 DUP1 REVERT JUMPDEST POP PUSH2 0xACB DUP1 PUSH2 0x25 PUSH1 0x0 CODECOPY PUSH1 0x0 RETURN INVALID PUSH1 0x80 PUSH1 0x40 MSTORE CALLVALUE DUP1 ISZERO PUSH2 0x10 JUMPI PUSH1 0x0 DUP1 REVERT JUMPDEST POP PUSH1 0x4 CALLDATASIZE LT PUSH2 0x62 JUMPI PUSH1 0x0 CALLDATALOAD PUSH1 0xE0 SHR DUP1 PUSH4 0x16913469 EQ PUSH2 0x67 JUMPI DUP1 PUSH4 0x17D7DE7C EQ PUSH2 0x85 JUMPI DUP1 PUSH4 0x3AE7DC1A EQ PUSH2 0xA3 JUMPI DUP1 PUSH4 0x5544F6B4 EQ PUSH2 0xC1 JUMPI DUP1 PUSH4 0x6D4540EB EQ PUSH2 0xDD JUMPI DUP1 PUSH4 0x9841C82C EQ PUSH2 0xE7 JUMPI JUMPDEST PUSH1 0x0 DUP1 REVERT JUMPDEST PUSH2 0x6F PUSH2 0x103 JUMP JUMPDEST PUSH1 0x40 MLOAD PUSH2 0x7C SWAP2 SWAP1 PUSH2 0x83B JUMP JUMPDEST PUSH1 0x40 MLOAD DUP1 SWAP2 SUB SWAP1 RETURN JUMPDEST PUSH2 0x8D PUSH2 0x109 JUMP JUMPDEST PUSH1 0x40 MLOAD PUSH2 0x9A SWAP2 SWAP1 PUSH2 0x819 JUMP JUMPDEST PUSH1 0x40 MLOAD DUP1 SWAP2 SUB SWAP1 RETURN JUMPDEST PUSH2 0xAB PUSH2 0x239 JUMP JUMPDEST PUSH1 0x40 MLOAD PUSH2 0xB8 SWAP2 SWAP1 PUSH2 0x7FE JUMP JUMPDEST PUSH1 0x40 MLOAD DUP1 SWAP2 SUB SWAP1 RETURN JUMPDEST PUSH2 0xDB PUSH1 0x4 DUP1 CALLDATASIZE SUB DUP2 ADD SWAP1 PUSH2 0xD6 SWAP2 SWAP1 PUSH2 0x77A JUMP JUMPDEST PUSH2 0x29D JUMP JUMPDEST STOP JUMPDEST PUSH2 0xE5 PUSH2 0x3E8 JUMP JUMPDEST STOP JUMPDEST PUSH2 0x101 PUSH1 0x4 DUP1 CALLDATASIZE SUB DUP2 ADD SWAP1 PUSH2 0xFC SWAP2 SWAP1 PUSH2 0x6D3 JUMP JUMPDEST PUSH2 0x444 JUMP JUMPDEST STOP JUMPDEST PUSH1 0x3 SLOAD DUP2 JUMP JUMPDEST PUSH1 0x60 PUSH1 0x1 ISZERO ISZERO PUSH1 0x0 DUP1 CALLER PUSH20 0xFFFFFFFFFFFFFFFFFFFFFFFFFFFFFFFFFFFFFFFF AND PUSH20 0xFFFFFFFFFFFFFFFFFFFFFFFFFFFFFFFFFFFFFFFF AND DUP2 MSTORE PUSH1 0x20 ADD SWAP1 DUP2 MSTORE PUSH1 0x20 ADD PUSH1 0x0 KECCAK256 PUSH1 0x3 ADD PUSH1 0x14 SWAP1 SLOAD SWAP1 PUSH2 0x100 EXP SWAP1 DIV PUSH1 0xFF AND ISZERO ISZERO EQ PUSH2 0x16A JUMPI PUSH1 0x0 DUP1 REVERT JUMPDEST PUSH1 0x0 DUP1 CALLER PUSH20 0xFFFFFFFFFFFFFFFFFFFFFFFFFFFFFFFFFFFFFFFF AND PUSH20 0xFFFFFFFFFFFFFFFFFFFFFFFFFFFFFFFFFFFFFFFF AND DUP2 MSTORE PUSH1 0x20 ADD SWAP1 DUP2 MSTORE PUSH1 0x20 ADD PUSH1 0x0 KECCAK256 PUSH1 0x0 ADD DUP1 SLOAD PUSH2 0x1B6 SWAP1 PUSH2 0x920 JUMP JUMPDEST DUP1 PUSH1 0x1F ADD PUSH1 0x20 DUP1 SWAP2 DIV MUL PUSH1 0x20 ADD PUSH1 0x40 MLOAD SWAP1 DUP2 ADD PUSH1 0x40 MSTORE DUP1 SWAP3 SWAP2 SWAP1 DUP2 DUP2 MSTORE PUSH1 0x20 ADD DUP3 DUP1 SLOAD PUSH2 0x1E2 SWAP1 PUSH2 0x920 JUMP JUMPDEST DUP1 ISZERO PUSH2 0x22F JUMPI DUP1 PUSH1 0x1F LT PUSH2 0x204 JUMPI PUSH2 0x100 DUP1 DUP4 SLOAD DIV MUL DUP4 MSTORE SWAP2 PUSH1 0x20 ADD SWAP2 PUSH2 0x22F JUMP JUMPDEST DUP3 ADD SWAP2 SWAP1 PUSH1 0x0 MSTORE PUSH1 0x20 PUSH1 0x0 KECCAK256 SWAP1 JUMPDEST DUP2 SLOAD DUP2 MSTORE SWAP1 PUSH1 0x1 ADD SWAP1 PUSH1 0x20 ADD DUP1 DUP4 GT PUSH2 0x212 JUMPI DUP3 SWAP1 SUB PUSH1 0x1F AND DUP3 ADD SWAP2 JUMPDEST POP POP POP POP POP SWAP1 POP SWAP1 JUMP JUMPDEST PUSH1 0x0 DUP1 PUSH1 0x0 CALLER PUSH20 0xFFFFFFFFFFFFFFFFFFFFFFFFFFFFFFFFFFFFFFFF AND PUSH20 0xFFFFFFFFFFFFFFFFFFFFFFFFFFFFFFFFFFFFFFFF AND DUP2 MSTORE PUSH1 0x20 ADD SWAP1 DUP2 MSTORE PUSH1 0x20 ADD PUSH1 0x0 KECCAK256 PUSH1 0x3 ADD PUSH1 0x14 SWAP1 SLOAD SWAP1 PUSH2 0x100 EXP SWAP1 DIV PUSH1 0xFF AND PUSH2 0x295 JUMPI PUSH1 0x0 PUSH2 0x298 JUMP JUMPDEST PUSH1 0x1 JUMPDEST SWAP1 POP SWAP1 JUMP JUMPDEST PUSH1 0x0 ISZERO ISZERO PUSH1 0x1 PUSH1 0x0 CALLER PUSH20 0xFFFFFFFFFFFFFFFFFFFFFFFFFFFFFFFFFFFFFFFF AND PUSH20 0xFFFFFFFFFFFFFFFFFFFFFFFFFFFFFFFFFFFFFFFF AND DUP2 MSTORE PUSH1 0x20 ADD SWAP1 DUP2 MSTORE PUSH1 0x20 ADD PUSH1 0x0 KECCAK256 PUSH1 0x0 DUP4 DUP2 MSTORE PUSH1 0x20 ADD SWAP1 DUP2 MSTORE PUSH1 0x20 ADD PUSH1 0x0 KECCAK256 PUSH1 0x0 SWAP1 SLOAD SWAP1 PUSH2 0x100 EXP SWAP1 DIV PUSH1 0xFF AND ISZERO ISZERO EQ ISZERO PUSH2 0x3AC JUMPI PUSH1 0x1 DUP1 PUSH1 0x0 CALLER PUSH20 0xFFFFFFFFFFFFFFFFFFFFFFFFFFFFFFFFFFFFFFFF AND PUSH20 0xFFFFFFFFFFFFFFFFFFFFFFFFFFFFFFFFFFFFFFFF AND DUP2 MSTORE PUSH1 0x20 ADD SWAP1 DUP2 MSTORE PUSH1 0x20 ADD PUSH1 0x0 KECCAK256 PUSH1 0x0 DUP4 DUP2 MSTORE PUSH1 0x20 ADD SWAP1 DUP2 MSTORE PUSH1 0x20 ADD PUSH1 0x0 KECCAK256 PUSH1 0x0 PUSH2 0x100 EXP DUP2 SLOAD DUP2 PUSH1 0xFF MUL NOT AND SWAP1 DUP4 ISZERO ISZERO MUL OR SWAP1 SSTORE POP PUSH32 0x141F0F98191BB867D14E65D7D6496CBA0ADD11CDE65DC83F66C03F1DC876C5F1 PUSH1 0x1 PUSH1 0x40 MLOAD PUSH2 0x39F SWAP2 SWAP1 PUSH2 0x7FE JUMP JUMPDEST PUSH1 0x40 MLOAD DUP1 SWAP2 SUB SWAP1 LOG1 PUSH2 0x3E5 JUMP JUMPDEST PUSH32 0x141F0F98191BB867D14E65D7D6496CBA0ADD11CDE65DC83F66C03F1DC876C5F1 PUSH1 0x0 PUSH1 0x40 MLOAD PUSH2 0x3DC SWAP2 SWAP1 PUSH2 0x7FE JUMP JUMPDEST PUSH1 0x40 MLOAD DUP1 SWAP2 SUB SWAP1 LOG1 JUMPDEST POP JUMP JUMPDEST PUSH1 0x0 DUP1 PUSH1 0x0 CALLER PUSH20 0xFFFFFFFFFFFFFFFFFFFFFFFFFFFFFFFFFFFFFFFF AND PUSH20 0xFFFFFFFFFFFFFFFFFFFFFFFFFFFFFFFFFFFFFFFF AND DUP2 MSTORE PUSH1 0x20 ADD SWAP1 DUP2 MSTORE PUSH1 0x20 ADD PUSH1 0x0 KECCAK256 PUSH1 0x3 ADD PUSH1 0x14 PUSH2 0x100 EXP DUP2 SLOAD DUP2 PUSH1 0xFF MUL NOT AND SWAP1 DUP4 ISZERO ISZERO MUL OR SWAP1 SSTORE POP JUMP JUMPDEST PUSH1 0x0 PUSH1 0x40 MLOAD DUP1 PUSH1 0xA0 ADD PUSH1 0x40 MSTORE DUP1 DUP6 DUP2 MSTORE PUSH1 0x20 ADD DUP5 DUP2 MSTORE PUSH1 0x20 ADD DUP4 DUP2 MSTORE PUSH1 0x20 ADD CALLER PUSH20 0xFFFFFFFFFFFFFFFFFFFFFFFFFFFFFFFFFFFFFFFF AND DUP2 MSTORE PUSH1 0x20 ADD PUSH1 0x1 ISZERO ISZERO DUP2 MSTORE POP SWAP1 POP DUP1 PUSH1 0x0 DUP1 CALLER PUSH20 0xFFFFFFFFFFFFFFFFFFFFFFFFFFFFFFFFFFFFFFFF AND PUSH20 0xFFFFFFFFFFFFFFFFFFFFFFFFFFFFFFFFFFFFFFFF AND DUP2 MSTORE PUSH1 0x20 ADD SWAP1 DUP2 MSTORE PUSH1 0x20 ADD PUSH1 0x0 KECCAK256 PUSH1 0x0 DUP3 ADD MLOAD DUP2 PUSH1 0x0 ADD SWAP1 DUP1 MLOAD SWAP1 PUSH1 0x20 ADD SWAP1 PUSH2 0x4E3 SWAP3 SWAP2 SWAP1 PUSH2 0x5AB JUMP JUMPDEST POP PUSH1 0x20 DUP3 ADD MLOAD DUP2 PUSH1 0x1 ADD SWAP1 DUP1 MLOAD SWAP1 PUSH1 0x20 ADD SWAP1 PUSH2 0x500 SWAP3 SWAP2 SWAP1 PUSH2 0x5AB JUMP JUMPDEST POP PUSH1 0x40 DUP3 ADD MLOAD DUP2 PUSH1 0x2 ADD SWAP1 DUP1 MLOAD SWAP1 PUSH1 0x20 ADD SWAP1 PUSH2 0x51D SWAP3 SWAP2 SWAP1 PUSH2 0x5AB JUMP JUMPDEST POP PUSH1 0x60 DUP3 ADD MLOAD DUP2 PUSH1 0x3 ADD PUSH1 0x0 PUSH2 0x100 EXP DUP2 SLOAD DUP2 PUSH20 0xFFFFFFFFFFFFFFFFFFFFFFFFFFFFFFFFFFFFFFFF MUL NOT AND SWAP1 DUP4 PUSH20 0xFFFFFFFFFFFFFFFFFFFFFFFFFFFFFFFFFFFFFFFF AND MUL OR SWAP1 SSTORE POP PUSH1 0x80 DUP3 ADD MLOAD DUP2 PUSH1 0x3 ADD PUSH1 0x14 PUSH2 0x100 EXP DUP2 SLOAD DUP2 PUSH1 0xFF MUL NOT AND SWAP1 DUP4 ISZERO ISZERO MUL OR SWAP1 SSTORE POP SWAP1 POP POP PUSH1 0x3 PUSH1 0x0 DUP2 SLOAD DUP1 SWAP3 SWAP2 SWAP1 PUSH2 0x59B SWAP1 PUSH2 0x983 JUMP JUMPDEST SWAP2 SWAP1 POP SSTORE PUSH1 0x3 DUP2 SWAP1 SSTORE POP POP POP POP POP JUMP JUMPDEST DUP3 DUP1 SLOAD PUSH2 0x5B7 SWAP1 PUSH2 0x920 JUMP JUMPDEST SWAP1 PUSH1 0x0 MSTORE PUSH1 0x20 PUSH1 0x0 KECCAK256 SWAP1 PUSH1 0x1F ADD PUSH1 0x20 SWAP1 DIV DUP2 ADD SWAP3 DUP3 PUSH2 0x5D9 JUMPI PUSH1 0x0 DUP6 SSTORE PUSH2 0x620 JUMP JUMPDEST DUP3 PUSH1 0x1F LT PUSH2 0x5F2 JUMPI DUP1 MLOAD PUSH1 0xFF NOT AND DUP4 DUP1 ADD OR DUP6 SSTORE PUSH2 0x620 JUMP JUMPDEST DUP3 DUP1 ADD PUSH1 0x1 ADD DUP6 SSTORE DUP3 ISZERO PUSH2 0x620 JUMPI SWAP2 DUP3 ADD JUMPDEST DUP3 DUP2 GT ISZERO PUSH2 0x61F JUMPI DUP3 MLOAD DUP3 SSTORE SWAP2 PUSH1 0x20 ADD SWAP2 SWAP1 PUSH1 0x1 ADD SWAP1 PUSH2 0x604 JUMP JUMPDEST JUMPDEST POP SWAP1 POP PUSH2 0x62D SWAP2 SWAP1 PUSH2 0x631 JUMP JUMPDEST POP SWAP1 JUMP JUMPDEST JUMPDEST DUP1 DUP3 GT ISZERO PUSH2 0x64A JUMPI PUSH1 0x0 DUP2 PUSH1 0x0 SWAP1 SSTORE POP PUSH1 0x1 ADD PUSH2 0x632 JUMP JUMPDEST POP SWAP1 JUMP JUMPDEST PUSH1 0x0 PUSH2 0x661 PUSH2 0x65C DUP5 PUSH2 0x87B JUMP JUMPDEST PUSH2 0x856 JUMP JUMPDEST SWAP1 POP DUP3 DUP2 MSTORE PUSH1 0x20 DUP2 ADD DUP5 DUP5 DUP5 ADD GT ISZERO PUSH2 0x67D JUMPI PUSH2 0x67C PUSH2 0xA5E JUMP JUMPDEST JUMPDEST PUSH2 0x688 DUP5 DUP3 DUP6 PUSH2 0x8DE JUMP JUMPDEST POP SWAP4 SWAP3 POP POP POP JUMP JUMPDEST PUSH1 0x0 DUP3 PUSH1 0x1F DUP4 ADD SLT PUSH2 0x6A5 JUMPI PUSH2 0x6A4 PUSH2 0xA59 JUMP JUMPDEST JUMPDEST DUP2 CALLDATALOAD PUSH2 0x6B5 DUP5 DUP3 PUSH1 0x20 DUP7 ADD PUSH2 0x64E JUMP JUMPDEST SWAP2 POP POP SWAP3 SWAP2 POP POP JUMP JUMPDEST PUSH1 0x0 DUP2 CALLDATALOAD SWAP1 POP PUSH2 0x6CD DUP2 PUSH2 0xA7E JUMP JUMPDEST SWAP3 SWAP2 POP POP JUMP JUMPDEST PUSH1 0x0 DUP1 PUSH1 0x0 PUSH1 0x60 DUP5 DUP7 SUB SLT ISZERO PUSH2 0x6EC JUMPI PUSH2 0x6EB PUSH2 0xA68 JUMP JUMPDEST JUMPDEST PUSH1 0x0 DUP5 ADD CALLDATALOAD PUSH8 0xFFFFFFFFFFFFFFFF DUP2 GT ISZERO PUSH2 0x70A JUMPI PUSH2 0x709 PUSH2 0xA63 JUMP JUMPDEST JUMPDEST PUSH2 0x716 DUP7 DUP3 DUP8 ADD PUSH2 0x690 JUMP JUMPDEST SWAP4 POP POP PUSH1 0x20 DUP5 ADD CALLDATALOAD PUSH8 0xFFFFFFFFFFFFFFFF DUP2 GT ISZERO PUSH2 0x737 JUMPI PUSH2 0x736 PUSH2 0xA63 JUMP JUMPDEST JUMPDEST PUSH2 0x743 DUP7 DUP3 DUP8 ADD PUSH2 0x690 JUMP JUMPDEST SWAP3 POP POP PUSH1 0x40 DUP5 ADD CALLDATALOAD PUSH8 0xFFFFFFFFFFFFFFFF DUP2 GT ISZERO PUSH2 0x764 JUMPI PUSH2 0x763 PUSH2 0xA63 JUMP JUMPDEST JUMPDEST PUSH2 0x770 DUP7 DUP3 DUP8 ADD PUSH2 0x690 JUMP JUMPDEST SWAP2 POP POP SWAP3 POP SWAP3 POP SWAP3 JUMP JUMPDEST PUSH1 0x0 PUSH1 0x20 DUP3 DUP5 SUB SLT ISZERO PUSH2 0x790 JUMPI PUSH2 0x78F PUSH2 0xA68 JUMP JUMPDEST JUMPDEST PUSH1 0x0 PUSH2 0x79E DUP5 DUP3 DUP6 ADD PUSH2 0x6BE JUMP JUMPDEST SWAP2 POP POP SWAP3 SWAP2 POP POP JUMP JUMPDEST PUSH2 0x7B0 DUP2 PUSH2 0x8C8 JUMP JUMPDEST DUP3 MSTORE POP POP JUMP JUMPDEST PUSH1 0x0 PUSH2 0x7C1 DUP3 PUSH2 0x8AC JUMP JUMPDEST PUSH2 0x7CB DUP2 DUP6 PUSH2 0x8B7 JUMP JUMPDEST SWAP4 POP PUSH2 0x7DB DUP2 DUP6 PUSH1 0x20 DUP7 ADD PUSH2 0x8ED JUMP JUMPDEST PUSH2 0x7E4 DUP2 PUSH2 0xA6D JUMP JUMPDEST DUP5 ADD SWAP2 POP POP SWAP3 SWAP2 POP POP JUMP JUMPDEST PUSH2 0x7F8 DUP2 PUSH2 0x8D4 JUMP JUMPDEST DUP3 MSTORE POP POP JUMP JUMPDEST PUSH1 0x0 PUSH1 0x20 DUP3 ADD SWAP1 POP PUSH2 0x813 PUSH1 0x0 DUP4 ADD DUP5 PUSH2 0x7A7 JUMP JUMPDEST SWAP3 SWAP2 POP POP JUMP JUMPDEST PUSH1 0x0 PUSH1 0x20 DUP3 ADD SWAP1 POP DUP2 DUP2 SUB PUSH1 0x0 DUP4 ADD MSTORE PUSH2 0x833 DUP2 DUP5 PUSH2 0x7B6 JUMP JUMPDEST SWAP1 POP SWAP3 SWAP2 POP POP JUMP JUMPDEST PUSH1 0x0 PUSH1 0x20 DUP3 ADD SWAP1 POP PUSH2 0x850 PUSH1 0x0 DUP4 ADD DUP5 PUSH2 0x7EF JUMP JUMPDEST SWAP3 SWAP2 POP POP JUMP JUMPDEST PUSH1 0x0 PUSH2 0x860 PUSH2 0x871 JUMP JUMPDEST SWAP1 POP PUSH2 0x86C DUP3 DUP3 PUSH2 0x952 JUMP JUMPDEST SWAP2 SWAP1 POP JUMP JUMPDEST PUSH1 0x0 PUSH1 0x40 MLOAD SWAP1 POP SWAP1 JUMP JUMPDEST PUSH1 0x0 PUSH8 0xFFFFFFFFFFFFFFFF DUP3 GT ISZERO PUSH2 0x896 JUMPI PUSH2 0x895 PUSH2 0xA2A JUMP JUMPDEST JUMPDEST PUSH2 0x89F DUP3 PUSH2 0xA6D JUMP JUMPDEST SWAP1 POP PUSH1 0x20 DUP2 ADD SWAP1 POP SWAP2 SWAP1 POP JUMP JUMPDEST PUSH1 0x0 DUP2 MLOAD SWAP1 POP SWAP2 SWAP1 POP JUMP JUMPDEST PUSH1 0x0 DUP3 DUP3 MSTORE PUSH1 0x20 DUP3 ADD SWAP1 POP SWAP3 SWAP2 POP POP JUMP JUMPDEST PUSH1 0x0 DUP2 ISZERO ISZERO SWAP1 POP SWAP2 SWAP1 POP JUMP JUMPDEST PUSH1 0x0 DUP2 SWAP1 POP SWAP2 SWAP1 POP JUMP JUMPDEST DUP3 DUP2 DUP4 CALLDATACOPY PUSH1 0x0 DUP4 DUP4 ADD MSTORE POP POP POP JUMP JUMPDEST PUSH1 0x0 JUMPDEST DUP4 DUP2 LT ISZERO PUSH2 0x90B JUMPI DUP1 DUP3 ADD MLOAD DUP2 DUP5 ADD MSTORE PUSH1 0x20 DUP2 ADD SWAP1 POP PUSH2 0x8F0 JUMP JUMPDEST DUP4 DUP2 GT ISZERO PUSH2 0x91A JUMPI PUSH1 0x0 DUP5 DUP5 ADD MSTORE JUMPDEST POP POP POP POP JUMP JUMPDEST PUSH1 0x0 PUSH1 0x2 DUP3 DIV SWAP1 POP PUSH1 0x1 DUP3 AND DUP1 PUSH2 0x938 JUMPI PUSH1 0x7F DUP3 AND SWAP2 POP JUMPDEST PUSH1 0x20 DUP3 LT DUP2 EQ ISZERO PUSH2 0x94C JUMPI PUSH2 0x94B PUSH2 0x9FB JUMP JUMPDEST JUMPDEST POP SWAP2 SWAP1 POP JUMP JUMPDEST PUSH2 0x95B DUP3 PUSH2 0xA6D JUMP JUMPDEST DUP2 ADD DUP2 DUP2 LT PUSH8 0xFFFFFFFFFFFFFFFF DUP3 GT OR ISZERO PUSH2 0x97A JUMPI PUSH2 0x979 PUSH2 0xA2A JUMP JUMPDEST JUMPDEST DUP1 PUSH1 0x40 MSTORE POP POP POP JUMP JUMPDEST PUSH1 0x0 PUSH2 0x98E DUP3 PUSH2 0x8D4 JUMP JUMPDEST SWAP2 POP PUSH32 0xFFFFFFFFFFFFFFFFFFFFFFFFFFFFFFFFFFFFFFFFFFFFFFFFFFFFFFFFFFFFFFFF DUP3 EQ ISZERO PUSH2 0x9C1 JUMPI PUSH2 0x9C0 PUSH2 0x9CC JUMP JUMPDEST JUMPDEST PUSH1 0x1 DUP3 ADD SWAP1 POP SWAP2 SWAP1 POP JUMP JUMPDEST PUSH32 0x4E487B7100000000000000000000000000000000000000000000000000000000 PUSH1 0x0 MSTORE PUSH1 0x11 PUSH1 0x4 MSTORE PUSH1 0x24 PUSH1 0x0 REVERT JUMPDEST PUSH32 0x4E487B7100000000000000000000000000000000000000000000000000000000 PUSH1 0x0 MSTORE PUSH1 0x22 PUSH1 0x4 MSTORE PUSH1 0x24 PUSH1 0x0 REVERT JUMPDEST PUSH32 0x4E487B7100000000000000000000000000000000000000000000000000000000 PUSH1 0x0 MSTORE PUSH1 0x41 PUSH1 0x4 MSTORE PUSH1 0x24 PUSH1 0x0 REVERT JUMPDEST PUSH1 0x0 DUP1 REVERT JUMPDEST PUSH1 0x0 DUP1 REVERT JUMPDEST PUSH1 0x0 DUP1 REVERT JUMPDEST PUSH1 0x0 DUP1 REVERT JUMPDEST PUSH1 0x0 PUSH1 0x1F NOT PUSH1 0x1F DUP4 ADD AND SWAP1 POP SWAP2 SWAP1 POP JUMP JUMPDEST PUSH2 0xA87 DUP2 PUSH2 0x8D4 JUMP JUMPDEST DUP2 EQ PUSH2 0xA92 JUMPI PUSH1 0x0 DUP1 REVERT JUMPDEST POP JUMP INVALID LOG2 PUSH5 0x6970667358 0x22 SLT KECCAK256 0xE CODESIZE 0xD4 0xE9 0xE0 PUSH30 0x6AFB34EC5C6C82ED970145BD2AC6F91AFD9585394B3AC3B861A464736F6C PUSH4 0x43000807 STOP CALLER "
				},
				"gasEstimates": {
					"creation": {
						"codeDepositCost": "552600",
						"executionCost": "5593",
						"totalCost": "558193"
					},
					"external": {
						"checkValidProfile()": "2674",
						"createProfile(string,string,string)": "infinite",
						"deleteProfile()": "24622",
						"getName()": "infinite",
						"numProfile()": "2407",
						"putService(uint256)": "28433"
					}
				},
				"methodIdentifiers": {
					"checkValidProfile()": "3ae7dc1a",
					"createProfile(string,string,string)": "9841c82c",
					"deleteProfile()": "6d4540eb",
					"getName()": "17d7de7c",
					"numProfile()": "16913469",
					"putService(uint256)": "5544f6b4"
				}
			},
			"userdoc": {
				"kind": "user",
				"methods": {},
				"version": 1
			}
		}
	}
}