{
	"contracts/Milestone.sol": {
		"Milestone": {
			"abi": [
				{
					"anonymous": false,
					"inputs": [
						{
							"indexed": false,
							"internalType": "uint256",
							"name": "projectNumber",
							"type": "uint256"
						},
						{
							"indexed": false,
							"internalType": "uint256",
							"name": "serviceNumber",
							"type": "uint256"
						},
						{
							"indexed": false,
							"internalType": "uint256",
							"name": "milestoneNumber",
							"type": "uint256"
						},
						{
							"indexed": false,
							"internalType": "string",
							"name": "titleMilestone",
							"type": "string"
						},
						{
							"indexed": false,
							"internalType": "string",
							"name": "descriptionMilestone",
							"type": "string"
						}
					],
					"name": "milestoneCreated",
					"type": "event"
				},
				{
					"anonymous": false,
					"inputs": [
						{
							"indexed": false,
							"internalType": "uint256",
							"name": "projectNumber",
							"type": "uint256"
						},
						{
							"indexed": false,
							"internalType": "uint256",
							"name": "serviceNumber",
							"type": "uint256"
						},
						{
							"indexed": false,
							"internalType": "uint256",
							"name": "milestoneNumber",
							"type": "uint256"
						}
					],
					"name": "milestoneDeleted",
					"type": "event"
				},
				{
					"anonymous": false,
					"inputs": [
						{
							"indexed": false,
							"internalType": "uint256",
							"name": "projectNumber",
							"type": "uint256"
						},
						{
							"indexed": false,
							"internalType": "uint256",
							"name": "serviceNumber",
							"type": "uint256"
						},
						{
							"indexed": false,
							"internalType": "uint256",
							"name": "milestoneNumber",
							"type": "uint256"
						},
						{
							"indexed": false,
							"internalType": "string",
							"name": "titleMilestone",
							"type": "string"
						},
						{
							"indexed": false,
							"internalType": "string",
							"name": "descriptionMilestone",
							"type": "string"
						}
					],
					"name": "milestoneUpdated",
					"type": "event"
				},
				{
					"inputs": [
						{
							"internalType": "uint256",
							"name": "projectNumber",
							"type": "uint256"
						},
						{
							"internalType": "uint256",
							"name": "serviceNumber",
							"type": "uint256"
						},
						{
							"internalType": "string",
							"name": "titleMilestone",
							"type": "string"
						},
						{
							"internalType": "string",
							"name": "descriptionMilestone",
							"type": "string"
						}
					],
					"name": "createMilestone",
					"outputs": [],
					"stateMutability": "nonpayable",
					"type": "function"
				},
				{
					"inputs": [
						{
							"internalType": "uint256",
							"name": "projectNumber",
							"type": "uint256"
						},
						{
							"internalType": "uint256",
							"name": "serviceNumber",
							"type": "uint256"
						},
						{
							"internalType": "uint256",
							"name": "milestoneNumber",
							"type": "uint256"
						}
					],
					"name": "deleteMilestone",
					"outputs": [],
					"stateMutability": "nonpayable",
					"type": "function"
				},
				{
					"inputs": [
						{
							"internalType": "uint256",
							"name": "projectNumber",
							"type": "uint256"
						},
						{
							"internalType": "uint256",
							"name": "serviceNumber",
							"type": "uint256"
						},
						{
							"internalType": "uint256",
							"name": "milestoneNumber",
							"type": "uint256"
						},
						{
							"internalType": "string",
							"name": "titleMilestone",
							"type": "string"
						},
						{
							"internalType": "string",
							"name": "descriptionMilestone",
							"type": "string"
						}
					],
					"name": "updateMilestone",
					"outputs": [],
					"stateMutability": "nonpayable",
					"type": "function"
				}
			],
			"devdoc": {
				"kind": "dev",
				"methods": {},
				"version": 1
			},
			"evm": {
				"assembly": "    /* \"contracts/Milestone.sol\":66:2819  contract Milestone {... */\n  mstore(0x40, 0x80)\n  callvalue\n  dup1\n  iszero\n  tag_1\n  jumpi\n  0x00\n  dup1\n  revert\ntag_1:\n  pop\n  dataSize(sub_0)\n  dup1\n  dataOffset(sub_0)\n  0x00\n  codecopy\n  0x00\n  return\nstop\n\nsub_0: assembly {\n        /* \"contracts/Milestone.sol\":66:2819  contract Milestone {... */\n      mstore(0x40, 0x80)\n      callvalue\n      dup1\n      iszero\n      tag_1\n      jumpi\n      0x00\n      dup1\n      revert\n    tag_1:\n      pop\n      jumpi(tag_2, lt(calldatasize, 0x04))\n      shr(0xe0, calldataload(0x00))\n      dup1\n      0x63ef8a50\n      eq\n      tag_3\n      jumpi\n      dup1\n      0xb9b6c5d4\n      eq\n      tag_4\n      jumpi\n      dup1\n      0xfd23c4bb\n      eq\n      tag_5\n      jumpi\n    tag_2:\n      0x00\n      dup1\n      revert\n        /* \"contracts/Milestone.sol\":1089:1687  function createMilestone(uint256 projectNumber, uint256 serviceNumber, string memory titleMilestone, string memory descriptionMilestone) public {... */\n    tag_3:\n      tag_6\n      0x04\n      dup1\n      calldatasize\n      sub\n      dup2\n      add\n      swap1\n      tag_7\n      swap2\n      swap1\n      tag_8\n      jump\t// in\n    tag_7:\n      tag_9\n      jump\t// in\n    tag_6:\n      stop\n        /* \"contracts/Milestone.sol\":2323:2815  function deleteMilestone(uint256 projectNumber, uint256 serviceNumber, uint256 milestoneNumber) public {... */\n    tag_4:\n      tag_10\n      0x04\n      dup1\n      calldatasize\n      sub\n      dup2\n      add\n      swap1\n      tag_11\n      swap2\n      swap1\n      tag_12\n      jump\t// in\n    tag_11:\n      tag_13\n      jump\t// in\n    tag_10:\n      stop\n        /* \"contracts/Milestone.sol\":1734:2275  function updateMilestone(uint256 projectNumber, uint256 serviceNumber, uint256 milestoneNumber, string memory titleMilestone, string memory descriptionMilestone) public {... */\n    tag_5:\n      tag_14\n      0x04\n      dup1\n      calldatasize\n      sub\n      dup2\n      add\n      swap1\n      tag_15\n      swap2\n      swap1\n      tag_16\n      jump\t// in\n    tag_15:\n      tag_17\n      jump\t// in\n    tag_14:\n      stop\n        /* \"contracts/Milestone.sol\":1089:1687  function createMilestone(uint256 projectNumber, uint256 serviceNumber, string memory titleMilestone, string memory descriptionMilestone) public {... */\n    tag_9:\n        /* \"contracts/Milestone.sol\":1243:1266  uint256 milestoneNumber */\n      0x00\n        /* \"contracts/Milestone.sol\":1327:1328  1 */\n      0x01\n        /* \"contracts/Milestone.sol\":1269:1287  servicesMilestones */\n      0x00\n        /* \"contracts/Milestone.sol\":1269:1302  servicesMilestones[projectNumber] */\n      dup1\n        /* \"contracts/Milestone.sol\":1288:1301  projectNumber */\n      dup8\n        /* \"contracts/Milestone.sol\":1269:1302  servicesMilestones[projectNumber] */\n      dup2\n      mstore\n      0x20\n      add\n      swap1\n      dup2\n      mstore\n      0x20\n      add\n      0x00\n      keccak256\n        /* \"contracts/Milestone.sol\":1303:1316  serviceNumber */\n      dup6\n        /* \"contracts/Milestone.sol\":1269:1317  servicesMilestones[projectNumber][serviceNumber] */\n      dup2\n      sload\n      dup2\n      lt\n      tag_19\n      jumpi\n      tag_20\n      tag_21\n      jump\t// in\n    tag_20:\n    tag_19:\n      swap1\n      0x00\n      mstore\n      keccak256(0x00, 0x20)\n      add\n        /* \"contracts/Milestone.sol\":1269:1324  servicesMilestones[projectNumber][serviceNumber].length */\n      dup1\n      sload\n      swap1\n      pop\n        /* \"contracts/Milestone.sol\":1269:1328  servicesMilestones[projectNumber][serviceNumber].length + 1 */\n      tag_23\n      swap2\n      swap1\n      tag_24\n      jump\t// in\n    tag_23:\n        /* \"contracts/Milestone.sol\":1243:1328  uint256 milestoneNumber = servicesMilestones[projectNumber][serviceNumber].length + 1 */\n      swap1\n      pop\n        /* \"contracts/Milestone.sol\":1338:1367  milestone memory newMilestone */\n      0x00\n        /* \"contracts/Milestone.sol\":1370:1486  milestone(projectNumber, serviceNumber, milestoneNumber, titleMilestone, descriptionMilestone, true, Status.pending) */\n      mload(0x40)\n      dup1\n      0xe0\n      add\n      0x40\n      mstore\n      dup1\n        /* \"contracts/Milestone.sol\":1380:1393  projectNumber */\n      dup8\n        /* \"contracts/Milestone.sol\":1370:1486  milestone(projectNumber, serviceNumber, milestoneNumber, titleMilestone, descriptionMilestone, true, Status.pending) */\n      dup2\n      mstore\n      0x20\n      add\n        /* \"contracts/Milestone.sol\":1395:1408  serviceNumber */\n      dup7\n        /* \"contracts/Milestone.sol\":1370:1486  milestone(projectNumber, serviceNumber, milestoneNumber, titleMilestone, descriptionMilestone, true, Status.pending) */\n      dup2\n      mstore\n      0x20\n      add\n        /* \"contracts/Milestone.sol\":1410:1425  milestoneNumber */\n      dup4\n        /* \"contracts/Milestone.sol\":1370:1486  milestone(projectNumber, serviceNumber, milestoneNumber, titleMilestone, descriptionMilestone, true, Status.pending) */\n      dup2\n      mstore\n      0x20\n      add\n        /* \"contracts/Milestone.sol\":1427:1441  titleMilestone */\n      dup6\n        /* \"contracts/Milestone.sol\":1370:1486  milestone(projectNumber, serviceNumber, milestoneNumber, titleMilestone, descriptionMilestone, true, Status.pending) */\n      dup2\n      mstore\n      0x20\n      add\n        /* \"contracts/Milestone.sol\":1443:1463  descriptionMilestone */\n      dup5\n        /* \"contracts/Milestone.sol\":1370:1486  milestone(projectNumber, serviceNumber, milestoneNumber, titleMilestone, descriptionMilestone, true, Status.pending) */\n      dup2\n      mstore\n      0x20\n      add\n        /* \"contracts/Milestone.sol\":1465:1469  true */\n      0x01\n        /* \"contracts/Milestone.sol\":1370:1486  milestone(projectNumber, serviceNumber, milestoneNumber, titleMilestone, descriptionMilestone, true, Status.pending) */\n      iszero\n      iszero\n      dup2\n      mstore\n      0x20\n      add\n        /* \"contracts/Milestone.sol\":1471:1485  Status.pending */\n      0x01\n        /* \"contracts/Milestone.sol\":1370:1486  milestone(projectNumber, serviceNumber, milestoneNumber, titleMilestone, descriptionMilestone, true, Status.pending) */\n      0x06\n      dup2\n      gt\n      iszero\n      tag_25\n      jumpi\n      tag_26\n      tag_27\n      jump\t// in\n    tag_26:\n    tag_25:\n      dup2\n      mstore\n      pop\n        /* \"contracts/Milestone.sol\":1338:1486  milestone memory newMilestone = milestone(projectNumber, serviceNumber, milestoneNumber, titleMilestone, descriptionMilestone, true, Status.pending) */\n      swap1\n      pop\n        /* \"contracts/Milestone.sol\":1496:1514  servicesMilestones */\n      0x00\n        /* \"contracts/Milestone.sol\":1496:1529  servicesMilestones[projectNumber] */\n      dup1\n        /* \"contracts/Milestone.sol\":1515:1528  projectNumber */\n      dup8\n        /* \"contracts/Milestone.sol\":1496:1529  servicesMilestones[projectNumber] */\n      dup2\n      mstore\n      0x20\n      add\n      swap1\n      dup2\n      mstore\n      0x20\n      add\n      0x00\n      keccak256\n        /* \"contracts/Milestone.sol\":1530:1543  serviceNumber */\n      dup6\n        /* \"contracts/Milestone.sol\":1496:1544  servicesMilestones[projectNumber][serviceNumber] */\n      dup2\n      sload\n      dup2\n      lt\n      tag_28\n      jumpi\n      tag_29\n      tag_21\n      jump\t// in\n    tag_29:\n    tag_28:\n      swap1\n      0x00\n      mstore\n      keccak256(0x00, 0x20)\n      add\n        /* \"contracts/Milestone.sol\":1550:1562  newMilestone */\n      dup2\n        /* \"contracts/Milestone.sol\":1496:1563  servicesMilestones[projectNumber][serviceNumber].push(newMilestone) */\n      swap1\n      dup1\n      0x01\n      dup2\n      sload\n      add\n      dup1\n      dup3\n      sstore\n      dup1\n      swap2\n      pop\n      pop\n      0x01\n      swap1\n      sub\n      swap1\n      0x00\n      mstore\n      keccak256(0x00, 0x20)\n      swap1\n      0x06\n      mul\n      add\n      0x00\n      swap1\n      swap2\n      swap1\n      swap2\n      swap1\n      swap2\n      pop\n      0x00\n      dup3\n      add\n      mload\n      dup2\n      0x00\n      add\n      sstore\n      0x20\n      dup3\n      add\n      mload\n      dup2\n      0x01\n      add\n      sstore\n      0x40\n      dup3\n      add\n      mload\n      dup2\n      0x02\n      add\n      sstore\n      0x60\n      dup3\n      add\n      mload\n      dup2\n      0x03\n      add\n      swap1\n      dup1\n      mload\n      swap1\n      0x20\n      add\n      swap1\n      tag_32\n      swap3\n      swap2\n      swap1\n      tag_33\n      jump\t// in\n    tag_32:\n      pop\n      0x80\n      dup3\n      add\n      mload\n      dup2\n      0x04\n      add\n      swap1\n      dup1\n      mload\n      swap1\n      0x20\n      add\n      swap1\n      tag_34\n      swap3\n      swap2\n      swap1\n      tag_33\n      jump\t// in\n    tag_34:\n      pop\n      0xa0\n      dup3\n      add\n      mload\n      dup2\n      0x05\n      add\n      exp(0x0100, 0x00)\n      dup2\n      sload\n      dup2\n      0xff\n      mul\n      not\n      and\n      swap1\n      dup4\n      iszero\n      iszero\n      mul\n      or\n      swap1\n      sstore\n      pop\n      0xc0\n      dup3\n      add\n      mload\n      dup2\n      0x05\n      add\n      exp(0x0100, 0x01)\n      dup2\n      sload\n      dup2\n      0xff\n      mul\n      not\n      and\n      swap1\n      dup4\n      0x06\n      dup2\n      gt\n      iszero\n      tag_35\n      jumpi\n      tag_36\n      tag_27\n      jump\t// in\n    tag_36:\n    tag_35:\n      mul\n      or\n      swap1\n      sstore\n      pop\n      pop\n      pop\n        /* \"contracts/Milestone.sol\":1579:1680  milestoneCreated(projectNumber, serviceNumber, milestoneNumber, titleMilestone, descriptionMilestone) */\n      0x70d8b12d438dd130d28072c77c8047d9697b630b8dcd969123645998ad67d561\n        /* \"contracts/Milestone.sol\":1596:1609  projectNumber */\n      dup7\n        /* \"contracts/Milestone.sol\":1611:1624  serviceNumber */\n      dup7\n        /* \"contracts/Milestone.sol\":1626:1641  milestoneNumber */\n      dup5\n        /* \"contracts/Milestone.sol\":1643:1657  titleMilestone */\n      dup8\n        /* \"contracts/Milestone.sol\":1659:1679  descriptionMilestone */\n      dup8\n        /* \"contracts/Milestone.sol\":1579:1680  milestoneCreated(projectNumber, serviceNumber, milestoneNumber, titleMilestone, descriptionMilestone) */\n      mload(0x40)\n      tag_37\n      swap6\n      swap5\n      swap4\n      swap3\n      swap2\n      swap1\n      tag_38\n      jump\t// in\n    tag_37:\n      mload(0x40)\n      dup1\n      swap2\n      sub\n      swap1\n      log1\n        /* \"contracts/Milestone.sol\":1233:1687  {... */\n      pop\n      pop\n        /* \"contracts/Milestone.sol\":1089:1687  function createMilestone(uint256 projectNumber, uint256 serviceNumber, string memory titleMilestone, string memory descriptionMilestone) public {... */\n      pop\n      pop\n      pop\n      pop\n      jump\t// out\n        /* \"contracts/Milestone.sol\":2323:2815  function deleteMilestone(uint256 projectNumber, uint256 serviceNumber, uint256 milestoneNumber) public {... */\n    tag_13:\n        /* \"contracts/Milestone.sol\":2441:2447  uint i */\n      0x00\n        /* \"contracts/Milestone.sol\":2450:2465  milestoneNumber */\n      dup2\n        /* \"contracts/Milestone.sol\":2441:2465  uint i = milestoneNumber */\n      swap1\n      pop\n        /* \"contracts/Milestone.sol\":2436:2666  for (uint i = milestoneNumber; i < servicesMilestones[projectNumber][serviceNumber].length-1; i++){... */\n    tag_40:\n        /* \"contracts/Milestone.sol\":2527:2528  1 */\n      0x01\n        /* \"contracts/Milestone.sol\":2471:2489  servicesMilestones */\n      0x00\n        /* \"contracts/Milestone.sol\":2471:2504  servicesMilestones[projectNumber] */\n      dup1\n        /* \"contracts/Milestone.sol\":2490:2503  projectNumber */\n      dup7\n        /* \"contracts/Milestone.sol\":2471:2504  servicesMilestones[projectNumber] */\n      dup2\n      mstore\n      0x20\n      add\n      swap1\n      dup2\n      mstore\n      0x20\n      add\n      0x00\n      keccak256\n        /* \"contracts/Milestone.sol\":2505:2518  serviceNumber */\n      dup5\n        /* \"contracts/Milestone.sol\":2471:2519  servicesMilestones[projectNumber][serviceNumber] */\n      dup2\n      sload\n      dup2\n      lt\n      tag_43\n      jumpi\n      tag_44\n      tag_21\n      jump\t// in\n    tag_44:\n    tag_43:\n      swap1\n      0x00\n      mstore\n      keccak256(0x00, 0x20)\n      add\n        /* \"contracts/Milestone.sol\":2471:2526  servicesMilestones[projectNumber][serviceNumber].length */\n      dup1\n      sload\n      swap1\n      pop\n        /* \"contracts/Milestone.sol\":2471:2528  servicesMilestones[projectNumber][serviceNumber].length-1 */\n      tag_46\n      swap2\n      swap1\n      tag_47\n      jump\t// in\n    tag_46:\n        /* \"contracts/Milestone.sol\":2467:2468  i */\n      dup2\n        /* \"contracts/Milestone.sol\":2467:2528  i < servicesMilestones[projectNumber][serviceNumber].length-1 */\n      lt\n        /* \"contracts/Milestone.sol\":2436:2666  for (uint i = milestoneNumber; i < servicesMilestones[projectNumber][serviceNumber].length-1; i++){... */\n      iszero\n      tag_41\n      jumpi\n        /* \"contracts/Milestone.sol\":2602:2620  servicesMilestones */\n      0x00\n        /* \"contracts/Milestone.sol\":2602:2635  servicesMilestones[projectNumber] */\n      dup1\n        /* \"contracts/Milestone.sol\":2621:2634  projectNumber */\n      dup6\n        /* \"contracts/Milestone.sol\":2602:2635  servicesMilestones[projectNumber] */\n      dup2\n      mstore\n      0x20\n      add\n      swap1\n      dup2\n      mstore\n      0x20\n      add\n      0x00\n      keccak256\n        /* \"contracts/Milestone.sol\":2636:2649  serviceNumber */\n      dup4\n        /* \"contracts/Milestone.sol\":2602:2650  servicesMilestones[projectNumber][serviceNumber] */\n      dup2\n      sload\n      dup2\n      lt\n      tag_48\n      jumpi\n      tag_49\n      tag_21\n      jump\t// in\n    tag_49:\n    tag_48:\n      swap1\n      0x00\n      mstore\n      keccak256(0x00, 0x20)\n      add\n        /* \"contracts/Milestone.sol\":2653:2654  1 */\n      0x01\n        /* \"contracts/Milestone.sol\":2651:2652  i */\n      dup3\n        /* \"contracts/Milestone.sol\":2651:2654  i+1 */\n      tag_51\n      swap2\n      swap1\n      tag_24\n      jump\t// in\n    tag_51:\n        /* \"contracts/Milestone.sol\":2602:2655  servicesMilestones[projectNumber][serviceNumber][i+1] */\n      dup2\n      sload\n      dup2\n      lt\n      tag_52\n      jumpi\n      tag_53\n      tag_21\n      jump\t// in\n    tag_53:\n    tag_52:\n      swap1\n      0x00\n      mstore\n      keccak256(0x00, 0x20)\n      swap1\n      0x06\n      mul\n      add\n        /* \"contracts/Milestone.sol\":2548:2566  servicesMilestones */\n      0x00\n        /* \"contracts/Milestone.sol\":2548:2581  servicesMilestones[projectNumber] */\n      dup1\n        /* \"contracts/Milestone.sol\":2567:2580  projectNumber */\n      dup7\n        /* \"contracts/Milestone.sol\":2548:2581  servicesMilestones[projectNumber] */\n      dup2\n      mstore\n      0x20\n      add\n      swap1\n      dup2\n      mstore\n      0x20\n      add\n      0x00\n      keccak256\n        /* \"contracts/Milestone.sol\":2582:2595  serviceNumber */\n      dup5\n        /* \"contracts/Milestone.sol\":2548:2596  servicesMilestones[projectNumber][serviceNumber] */\n      dup2\n      sload\n      dup2\n      lt\n      tag_55\n      jumpi\n      tag_56\n      tag_21\n      jump\t// in\n    tag_56:\n    tag_55:\n      swap1\n      0x00\n      mstore\n      keccak256(0x00, 0x20)\n      add\n        /* \"contracts/Milestone.sol\":2597:2598  i */\n      dup3\n        /* \"contracts/Milestone.sol\":2548:2599  servicesMilestones[projectNumber][serviceNumber][i] */\n      dup2\n      sload\n      dup2\n      lt\n      tag_58\n      jumpi\n      tag_59\n      tag_21\n      jump\t// in\n    tag_59:\n    tag_58:\n      swap1\n      0x00\n      mstore\n      keccak256(0x00, 0x20)\n      swap1\n      0x06\n      mul\n      add\n        /* \"contracts/Milestone.sol\":2548:2655  servicesMilestones[projectNumber][serviceNumber][i] = servicesMilestones[projectNumber][serviceNumber][i+1] */\n      0x00\n      dup3\n      add\n      sload\n      dup2\n      0x00\n      add\n      sstore\n      0x01\n      dup3\n      add\n      sload\n      dup2\n      0x01\n      add\n      sstore\n      0x02\n      dup3\n      add\n      sload\n      dup2\n      0x02\n      add\n      sstore\n      0x03\n      dup3\n      add\n      dup2\n      0x03\n      add\n      swap1\n      dup1\n      sload\n      tag_61\n      swap1\n      tag_62\n      jump\t// in\n    tag_61:\n      tag_63\n      swap3\n      swap2\n      swap1\n      tag_64\n      jump\t// in\n    tag_63:\n      pop\n      0x04\n      dup3\n      add\n      dup2\n      0x04\n      add\n      swap1\n      dup1\n      sload\n      tag_65\n      swap1\n      tag_62\n      jump\t// in\n    tag_65:\n      tag_66\n      swap3\n      swap2\n      swap1\n      tag_64\n      jump\t// in\n    tag_66:\n      pop\n      0x05\n      dup3\n      add\n      0x00\n      swap1\n      sload\n      swap1\n      0x0100\n      exp\n      swap1\n      div\n      0xff\n      and\n      dup2\n      0x05\n      add\n      exp(0x0100, 0x00)\n      dup2\n      sload\n      dup2\n      0xff\n      mul\n      not\n      and\n      swap1\n      dup4\n      iszero\n      iszero\n      mul\n      or\n      swap1\n      sstore\n      pop\n      0x05\n      dup3\n      add\n      0x01\n      swap1\n      sload\n      swap1\n      0x0100\n      exp\n      swap1\n      div\n      0xff\n      and\n      dup2\n      0x05\n      add\n      exp(0x0100, 0x01)\n      dup2\n      sload\n      dup2\n      0xff\n      mul\n      not\n      and\n      swap1\n      dup4\n      0x06\n      dup2\n      gt\n      iszero\n      tag_67\n      jumpi\n      tag_68\n      tag_27\n      jump\t// in\n    tag_68:\n    tag_67:\n      mul\n      or\n      swap1\n      sstore\n      pop\n      swap1\n      pop\n      pop\n        /* \"contracts/Milestone.sol\":2530:2533  i++ */\n      dup1\n      dup1\n      tag_69\n      swap1\n      tag_70\n      jump\t// in\n    tag_69:\n      swap2\n      pop\n      pop\n        /* \"contracts/Milestone.sol\":2436:2666  for (uint i = milestoneNumber; i < servicesMilestones[projectNumber][serviceNumber].length-1; i++){... */\n      jump(tag_40)\n    tag_41:\n      pop\n        /* \"contracts/Milestone.sol\":2675:2693  servicesMilestones */\n      0x00\n        /* \"contracts/Milestone.sol\":2675:2708  servicesMilestones[projectNumber] */\n      dup1\n        /* \"contracts/Milestone.sol\":2694:2707  projectNumber */\n      dup5\n        /* \"contracts/Milestone.sol\":2675:2708  servicesMilestones[projectNumber] */\n      dup2\n      mstore\n      0x20\n      add\n      swap1\n      dup2\n      mstore\n      0x20\n      add\n      0x00\n      keccak256\n        /* \"contracts/Milestone.sol\":2709:2722  serviceNumber */\n      dup3\n        /* \"contracts/Milestone.sol\":2675:2723  servicesMilestones[projectNumber][serviceNumber] */\n      dup2\n      sload\n      dup2\n      lt\n      tag_71\n      jumpi\n      tag_72\n      tag_21\n      jump\t// in\n    tag_72:\n    tag_71:\n      swap1\n      0x00\n      mstore\n      keccak256(0x00, 0x20)\n      add\n        /* \"contracts/Milestone.sol\":2675:2729  servicesMilestones[projectNumber][serviceNumber].pop() */\n      dup1\n      sload\n      dup1\n      tag_74\n      jumpi\n      tag_75\n      tag_76\n      jump\t// in\n    tag_75:\n    tag_74:\n      0x01\n      swap1\n      sub\n      dup2\n      dup2\n      swap1\n      0x00\n      mstore\n      keccak256(0x00, 0x20)\n      swap1\n      0x06\n      mul\n      add\n      0x00\n      dup1\n      dup3\n      add\n      0x00\n      swap1\n      sstore\n      0x01\n      dup3\n      add\n      0x00\n      swap1\n      sstore\n      0x02\n      dup3\n      add\n      0x00\n      swap1\n      sstore\n      0x03\n      dup3\n      add\n      0x00\n      tag_78\n      swap2\n      swap1\n      tag_79\n      jump\t// in\n    tag_78:\n      0x04\n      dup3\n      add\n      0x00\n      tag_80\n      swap2\n      swap1\n      tag_79\n      jump\t// in\n    tag_80:\n      0x05\n      dup3\n      add\n      exp(0x0100, 0x00)\n      dup2\n      sload\n      swap1\n      0xff\n      mul\n      not\n      and\n      swap1\n      sstore\n      0x05\n      dup3\n      add\n      exp(0x0100, 0x01)\n      dup2\n      sload\n      swap1\n      0xff\n      mul\n      not\n      and\n      swap1\n      sstore\n      pop\n      pop\n      swap1\n      sstore\n        /* \"contracts/Milestone.sol\":2745:2808  milestoneDeleted(projectNumber, serviceNumber, milestoneNumber) */\n      0x2b2605ee52ace237f72e6005eee79180ea3b6151bd8848a6be5e3c224b8a6ec6\n        /* \"contracts/Milestone.sol\":2762:2775  projectNumber */\n      dup4\n        /* \"contracts/Milestone.sol\":2777:2790  serviceNumber */\n      dup4\n        /* \"contracts/Milestone.sol\":2792:2807  milestoneNumber */\n      dup4\n        /* \"contracts/Milestone.sol\":2745:2808  milestoneDeleted(projectNumber, serviceNumber, milestoneNumber) */\n      mload(0x40)\n      tag_81\n      swap4\n      swap3\n      swap2\n      swap1\n      tag_82\n      jump\t// in\n    tag_81:\n      mload(0x40)\n      dup1\n      swap2\n      sub\n      swap1\n      log1\n        /* \"contracts/Milestone.sol\":2323:2815  function deleteMilestone(uint256 projectNumber, uint256 serviceNumber, uint256 milestoneNumber) public {... */\n      pop\n      pop\n      pop\n      jump\t// out\n        /* \"contracts/Milestone.sol\":1734:2275  function updateMilestone(uint256 projectNumber, uint256 serviceNumber, uint256 milestoneNumber, string memory titleMilestone, string memory descriptionMilestone) public {... */\n    tag_17:\n        /* \"contracts/Milestone.sol\":1913:1942  milestone memory newMilestone */\n      0x00\n        /* \"contracts/Milestone.sol\":1945:2061  milestone(projectNumber, serviceNumber, milestoneNumber, titleMilestone, descriptionMilestone, true, Status.pending) */\n      mload(0x40)\n      dup1\n      0xe0\n      add\n      0x40\n      mstore\n      dup1\n        /* \"contracts/Milestone.sol\":1955:1968  projectNumber */\n      dup8\n        /* \"contracts/Milestone.sol\":1945:2061  milestone(projectNumber, serviceNumber, milestoneNumber, titleMilestone, descriptionMilestone, true, Status.pending) */\n      dup2\n      mstore\n      0x20\n      add\n        /* \"contracts/Milestone.sol\":1970:1983  serviceNumber */\n      dup7\n        /* \"contracts/Milestone.sol\":1945:2061  milestone(projectNumber, serviceNumber, milestoneNumber, titleMilestone, descriptionMilestone, true, Status.pending) */\n      dup2\n      mstore\n      0x20\n      add\n        /* \"contracts/Milestone.sol\":1985:2000  milestoneNumber */\n      dup6\n        /* \"contracts/Milestone.sol\":1945:2061  milestone(projectNumber, serviceNumber, milestoneNumber, titleMilestone, descriptionMilestone, true, Status.pending) */\n      dup2\n      mstore\n      0x20\n      add\n        /* \"contracts/Milestone.sol\":2002:2016  titleMilestone */\n      dup5\n        /* \"contracts/Milestone.sol\":1945:2061  milestone(projectNumber, serviceNumber, milestoneNumber, titleMilestone, descriptionMilestone, true, Status.pending) */\n      dup2\n      mstore\n      0x20\n      add\n        /* \"contracts/Milestone.sol\":2018:2038  descriptionMilestone */\n      dup4\n        /* \"contracts/Milestone.sol\":1945:2061  milestone(projectNumber, serviceNumber, milestoneNumber, titleMilestone, descriptionMilestone, true, Status.pending) */\n      dup2\n      mstore\n      0x20\n      add\n        /* \"contracts/Milestone.sol\":2040:2044  true */\n      0x01\n        /* \"contracts/Milestone.sol\":1945:2061  milestone(projectNumber, serviceNumber, milestoneNumber, titleMilestone, descriptionMilestone, true, Status.pending) */\n      iszero\n      iszero\n      dup2\n      mstore\n      0x20\n      add\n        /* \"contracts/Milestone.sol\":2046:2060  Status.pending */\n      0x01\n        /* \"contracts/Milestone.sol\":1945:2061  milestone(projectNumber, serviceNumber, milestoneNumber, titleMilestone, descriptionMilestone, true, Status.pending) */\n      0x06\n      dup2\n      gt\n      iszero\n      tag_84\n      jumpi\n      tag_85\n      tag_27\n      jump\t// in\n    tag_85:\n    tag_84:\n      dup2\n      mstore\n      pop\n        /* \"contracts/Milestone.sol\":1913:2061  milestone memory newMilestone = milestone(projectNumber, serviceNumber, milestoneNumber, titleMilestone, descriptionMilestone, true, Status.pending) */\n      swap1\n      pop\n        /* \"contracts/Milestone.sol\":2139:2151  newMilestone */\n      dup1\n        /* \"contracts/Milestone.sol\":2071:2089  servicesMilestones */\n      0x00\n        /* \"contracts/Milestone.sol\":2071:2104  servicesMilestones[projectNumber] */\n      dup1\n        /* \"contracts/Milestone.sol\":2090:2103  projectNumber */\n      dup9\n        /* \"contracts/Milestone.sol\":2071:2104  servicesMilestones[projectNumber] */\n      dup2\n      mstore\n      0x20\n      add\n      swap1\n      dup2\n      mstore\n      0x20\n      add\n      0x00\n      keccak256\n        /* \"contracts/Milestone.sol\":2105:2118  serviceNumber */\n      dup7\n        /* \"contracts/Milestone.sol\":2071:2119  servicesMilestones[projectNumber][serviceNumber] */\n      dup2\n      sload\n      dup2\n      lt\n      tag_86\n      jumpi\n      tag_87\n      tag_21\n      jump\t// in\n    tag_87:\n    tag_86:\n      swap1\n      0x00\n      mstore\n      keccak256(0x00, 0x20)\n      add\n        /* \"contracts/Milestone.sol\":2120:2135  milestoneNumber */\n      dup6\n        /* \"contracts/Milestone.sol\":2071:2136  servicesMilestones[projectNumber][serviceNumber][milestoneNumber] */\n      dup2\n      sload\n      dup2\n      lt\n      tag_89\n      jumpi\n      tag_90\n      tag_21\n      jump\t// in\n    tag_90:\n    tag_89:\n      swap1\n      0x00\n      mstore\n      keccak256(0x00, 0x20)\n      swap1\n      0x06\n      mul\n      add\n        /* \"contracts/Milestone.sol\":2071:2151  servicesMilestones[projectNumber][serviceNumber][milestoneNumber] = newMilestone */\n      0x00\n      dup3\n      add\n      mload\n      dup2\n      0x00\n      add\n      sstore\n      0x20\n      dup3\n      add\n      mload\n      dup2\n      0x01\n      add\n      sstore\n      0x40\n      dup3\n      add\n      mload\n      dup2\n      0x02\n      add\n      sstore\n      0x60\n      dup3\n      add\n      mload\n      dup2\n      0x03\n      add\n      swap1\n      dup1\n      mload\n      swap1\n      0x20\n      add\n      swap1\n      tag_92\n      swap3\n      swap2\n      swap1\n      tag_33\n      jump\t// in\n    tag_92:\n      pop\n      0x80\n      dup3\n      add\n      mload\n      dup2\n      0x04\n      add\n      swap1\n      dup1\n      mload\n      swap1\n      0x20\n      add\n      swap1\n      tag_93\n      swap3\n      swap2\n      swap1\n      tag_33\n      jump\t// in\n    tag_93:\n      pop\n      0xa0\n      dup3\n      add\n      mload\n      dup2\n      0x05\n      add\n      exp(0x0100, 0x00)\n      dup2\n      sload\n      dup2\n      0xff\n      mul\n      not\n      and\n      swap1\n      dup4\n      iszero\n      iszero\n      mul\n      or\n      swap1\n      sstore\n      pop\n      0xc0\n      dup3\n      add\n      mload\n      dup2\n      0x05\n      add\n      exp(0x0100, 0x01)\n      dup2\n      sload\n      dup2\n      0xff\n      mul\n      not\n      and\n      swap1\n      dup4\n      0x06\n      dup2\n      gt\n      iszero\n      tag_94\n      jumpi\n      tag_95\n      tag_27\n      jump\t// in\n    tag_95:\n    tag_94:\n      mul\n      or\n      swap1\n      sstore\n      pop\n      swap1\n      pop\n      pop\n        /* \"contracts/Milestone.sol\":2167:2268  milestoneUpdated(projectNumber, serviceNumber, milestoneNumber, titleMilestone, descriptionMilestone) */\n      0x8c0d6ff1212c3fbf79bbe6dc1e26cc40c4e137ec5711d4471b16fa121f933511\n        /* \"contracts/Milestone.sol\":2184:2197  projectNumber */\n      dup7\n        /* \"contracts/Milestone.sol\":2199:2212  serviceNumber */\n      dup7\n        /* \"contracts/Milestone.sol\":2214:2229  milestoneNumber */\n      dup7\n        /* \"contracts/Milestone.sol\":2231:2245  titleMilestone */\n      dup7\n        /* \"contracts/Milestone.sol\":2247:2267  descriptionMilestone */\n      dup7\n        /* \"contracts/Milestone.sol\":2167:2268  milestoneUpdated(projectNumber, serviceNumber, milestoneNumber, titleMilestone, descriptionMilestone) */\n      mload(0x40)\n      tag_96\n      swap6\n      swap5\n      swap4\n      swap3\n      swap2\n      swap1\n      tag_38\n      jump\t// in\n    tag_96:\n      mload(0x40)\n      dup1\n      swap2\n      sub\n      swap1\n      log1\n        /* \"contracts/Milestone.sol\":1903:2275  {... */\n      pop\n        /* \"contracts/Milestone.sol\":1734:2275  function updateMilestone(uint256 projectNumber, uint256 serviceNumber, uint256 milestoneNumber, string memory titleMilestone, string memory descriptionMilestone) public {... */\n      pop\n      pop\n      pop\n      pop\n      pop\n      jump\t// out\n    tag_33:\n      dup3\n      dup1\n      sload\n      tag_97\n      swap1\n      tag_62\n      jump\t// in\n    tag_97:\n      swap1\n      0x00\n      mstore\n      keccak256(0x00, 0x20)\n      swap1\n      0x1f\n      add\n      0x20\n      swap1\n      div\n      dup2\n      add\n      swap3\n      dup3\n      tag_99\n      jumpi\n      0x00\n      dup6\n      sstore\n      jump(tag_98)\n    tag_99:\n      dup3\n      0x1f\n      lt\n      tag_100\n      jumpi\n      dup1\n      mload\n      not(0xff)\n      and\n      dup4\n      dup1\n      add\n      or\n      dup6\n      sstore\n      jump(tag_98)\n    tag_100:\n      dup3\n      dup1\n      add\n      0x01\n      add\n      dup6\n      sstore\n      dup3\n      iszero\n      tag_98\n      jumpi\n      swap2\n      dup3\n      add\n    tag_101:\n      dup3\n      dup2\n      gt\n      iszero\n      tag_102\n      jumpi\n      dup3\n      mload\n      dup3\n      sstore\n      swap2\n      0x20\n      add\n      swap2\n      swap1\n      0x01\n      add\n      swap1\n      jump(tag_101)\n    tag_102:\n    tag_98:\n      pop\n      swap1\n      pop\n      tag_103\n      swap2\n      swap1\n      tag_104\n      jump\t// in\n    tag_103:\n      pop\n      swap1\n      jump\t// out\n    tag_64:\n      dup3\n      dup1\n      sload\n      tag_105\n      swap1\n      tag_62\n      jump\t// in\n    tag_105:\n      swap1\n      0x00\n      mstore\n      keccak256(0x00, 0x20)\n      swap1\n      0x1f\n      add\n      0x20\n      swap1\n      div\n      dup2\n      add\n      swap3\n      dup3\n      tag_107\n      jumpi\n      0x00\n      dup6\n      sstore\n      jump(tag_106)\n    tag_107:\n      dup3\n      0x1f\n      lt\n      tag_108\n      jumpi\n      dup1\n      sload\n      dup6\n      sstore\n      jump(tag_106)\n    tag_108:\n      dup3\n      dup1\n      add\n      0x01\n      add\n      dup6\n      sstore\n      dup3\n      iszero\n      tag_106\n      jumpi\n      0x00\n      mstore\n      keccak256(0x00, 0x20)\n      swap2\n      0x1f\n      add\n      0x20\n      swap1\n      div\n      dup3\n      add\n    tag_109:\n      dup3\n      dup2\n      gt\n      iszero\n      tag_110\n      jumpi\n      dup3\n      sload\n      dup3\n      sstore\n      swap2\n      0x01\n      add\n      swap2\n      swap1\n      0x01\n      add\n      swap1\n      jump(tag_109)\n    tag_110:\n    tag_106:\n      pop\n      swap1\n      pop\n      tag_111\n      swap2\n      swap1\n      tag_104\n      jump\t// in\n    tag_111:\n      pop\n      swap1\n      jump\t// out\n    tag_79:\n      pop\n      dup1\n      sload\n      tag_112\n      swap1\n      tag_62\n      jump\t// in\n    tag_112:\n      0x00\n      dup3\n      sstore\n      dup1\n      0x1f\n      lt\n      tag_114\n      jumpi\n      pop\n      jump(tag_113)\n    tag_114:\n      0x1f\n      add\n      0x20\n      swap1\n      div\n      swap1\n      0x00\n      mstore\n      keccak256(0x00, 0x20)\n      swap1\n      dup2\n      add\n      swap1\n      tag_115\n      swap2\n      swap1\n      tag_104\n      jump\t// in\n    tag_115:\n    tag_113:\n      pop\n      jump\t// out\n    tag_104:\n    tag_116:\n      dup1\n      dup3\n      gt\n      iszero\n      tag_117\n      jumpi\n      0x00\n      dup2\n      0x00\n      swap1\n      sstore\n      pop\n      0x01\n      add\n      jump(tag_116)\n    tag_117:\n      pop\n      swap1\n      jump\t// out\n        /* \"#utility.yul\":7:419   */\n    tag_119:\n        /* \"#utility.yul\":85:90   */\n      0x00\n        /* \"#utility.yul\":110:176   */\n      tag_121\n        /* \"#utility.yul\":126:175   */\n      tag_122\n        /* \"#utility.yul\":168:174   */\n      dup5\n        /* \"#utility.yul\":126:175   */\n      tag_123\n      jump\t// in\n    tag_122:\n        /* \"#utility.yul\":110:176   */\n      tag_124\n      jump\t// in\n    tag_121:\n        /* \"#utility.yul\":101:176   */\n      swap1\n      pop\n        /* \"#utility.yul\":199:205   */\n      dup3\n        /* \"#utility.yul\":192:197   */\n      dup2\n        /* \"#utility.yul\":185:206   */\n      mstore\n        /* \"#utility.yul\":237:241   */\n      0x20\n        /* \"#utility.yul\":230:235   */\n      dup2\n        /* \"#utility.yul\":226:242   */\n      add\n        /* \"#utility.yul\":275:278   */\n      dup5\n        /* \"#utility.yul\":266:272   */\n      dup5\n        /* \"#utility.yul\":261:264   */\n      dup5\n        /* \"#utility.yul\":257:273   */\n      add\n        /* \"#utility.yul\":254:279   */\n      gt\n        /* \"#utility.yul\":251:363   */\n      iszero\n      tag_125\n      jumpi\n        /* \"#utility.yul\":282:361   */\n      tag_126\n      tag_127\n      jump\t// in\n    tag_126:\n        /* \"#utility.yul\":251:363   */\n    tag_125:\n        /* \"#utility.yul\":372:413   */\n      tag_128\n        /* \"#utility.yul\":406:412   */\n      dup5\n        /* \"#utility.yul\":401:404   */\n      dup3\n        /* \"#utility.yul\":396:399   */\n      dup6\n        /* \"#utility.yul\":372:413   */\n      tag_129\n      jump\t// in\n    tag_128:\n        /* \"#utility.yul\":91:419   */\n      pop\n        /* \"#utility.yul\":7:419   */\n      swap4\n      swap3\n      pop\n      pop\n      pop\n      jump\t// out\n        /* \"#utility.yul\":439:779   */\n    tag_130:\n        /* \"#utility.yul\":495:500   */\n      0x00\n        /* \"#utility.yul\":544:547   */\n      dup3\n        /* \"#utility.yul\":537:541   */\n      0x1f\n        /* \"#utility.yul\":529:535   */\n      dup4\n        /* \"#utility.yul\":525:542   */\n      add\n        /* \"#utility.yul\":521:548   */\n      slt\n        /* \"#utility.yul\":511:633   */\n      tag_132\n      jumpi\n        /* \"#utility.yul\":552:631   */\n      tag_133\n      tag_134\n      jump\t// in\n    tag_133:\n        /* \"#utility.yul\":511:633   */\n    tag_132:\n        /* \"#utility.yul\":669:675   */\n      dup2\n        /* \"#utility.yul\":656:676   */\n      calldataload\n        /* \"#utility.yul\":694:773   */\n      tag_135\n        /* \"#utility.yul\":769:772   */\n      dup5\n        /* \"#utility.yul\":761:767   */\n      dup3\n        /* \"#utility.yul\":754:758   */\n      0x20\n        /* \"#utility.yul\":746:752   */\n      dup7\n        /* \"#utility.yul\":742:759   */\n      add\n        /* \"#utility.yul\":694:773   */\n      tag_119\n      jump\t// in\n    tag_135:\n        /* \"#utility.yul\":685:773   */\n      swap2\n      pop\n        /* \"#utility.yul\":501:779   */\n      pop\n        /* \"#utility.yul\":439:779   */\n      swap3\n      swap2\n      pop\n      pop\n      jump\t// out\n        /* \"#utility.yul\":785:924   */\n    tag_136:\n        /* \"#utility.yul\":831:836   */\n      0x00\n        /* \"#utility.yul\":869:875   */\n      dup2\n        /* \"#utility.yul\":856:876   */\n      calldataload\n        /* \"#utility.yul\":847:876   */\n      swap1\n      pop\n        /* \"#utility.yul\":885:918   */\n      tag_138\n        /* \"#utility.yul\":912:917   */\n      dup2\n        /* \"#utility.yul\":885:918   */\n      tag_139\n      jump\t// in\n    tag_138:\n        /* \"#utility.yul\":785:924   */\n      swap3\n      swap2\n      pop\n      pop\n      jump\t// out\n        /* \"#utility.yul\":930:2055   */\n    tag_8:\n        /* \"#utility.yul\":1036:1042   */\n      0x00\n        /* \"#utility.yul\":1044:1050   */\n      dup1\n        /* \"#utility.yul\":1052:1058   */\n      0x00\n        /* \"#utility.yul\":1060:1066   */\n      dup1\n        /* \"#utility.yul\":1109:1112   */\n      0x80\n        /* \"#utility.yul\":1097:1106   */\n      dup6\n        /* \"#utility.yul\":1088:1095   */\n      dup8\n        /* \"#utility.yul\":1084:1107   */\n      sub\n        /* \"#utility.yul\":1080:1113   */\n      slt\n        /* \"#utility.yul\":1077:1197   */\n      iszero\n      tag_141\n      jumpi\n        /* \"#utility.yul\":1116:1195   */\n      tag_142\n      tag_143\n      jump\t// in\n    tag_142:\n        /* \"#utility.yul\":1077:1197   */\n    tag_141:\n        /* \"#utility.yul\":1236:1237   */\n      0x00\n        /* \"#utility.yul\":1261:1314   */\n      tag_144\n        /* \"#utility.yul\":1306:1313   */\n      dup8\n        /* \"#utility.yul\":1297:1303   */\n      dup3\n        /* \"#utility.yul\":1286:1295   */\n      dup9\n        /* \"#utility.yul\":1282:1304   */\n      add\n        /* \"#utility.yul\":1261:1314   */\n      tag_136\n      jump\t// in\n    tag_144:\n        /* \"#utility.yul\":1251:1314   */\n      swap5\n      pop\n        /* \"#utility.yul\":1207:1324   */\n      pop\n        /* \"#utility.yul\":1363:1365   */\n      0x20\n        /* \"#utility.yul\":1389:1442   */\n      tag_145\n        /* \"#utility.yul\":1434:1441   */\n      dup8\n        /* \"#utility.yul\":1425:1431   */\n      dup3\n        /* \"#utility.yul\":1414:1423   */\n      dup9\n        /* \"#utility.yul\":1410:1432   */\n      add\n        /* \"#utility.yul\":1389:1442   */\n      tag_136\n      jump\t// in\n    tag_145:\n        /* \"#utility.yul\":1379:1442   */\n      swap4\n      pop\n        /* \"#utility.yul\":1334:1452   */\n      pop\n        /* \"#utility.yul\":1519:1521   */\n      0x40\n        /* \"#utility.yul\":1508:1517   */\n      dup6\n        /* \"#utility.yul\":1504:1522   */\n      add\n        /* \"#utility.yul\":1491:1523   */\n      calldataload\n        /* \"#utility.yul\":1550:1568   */\n      0xffffffffffffffff\n        /* \"#utility.yul\":1542:1548   */\n      dup2\n        /* \"#utility.yul\":1539:1569   */\n      gt\n        /* \"#utility.yul\":1536:1653   */\n      iszero\n      tag_146\n      jumpi\n        /* \"#utility.yul\":1572:1651   */\n      tag_147\n      tag_148\n      jump\t// in\n    tag_147:\n        /* \"#utility.yul\":1536:1653   */\n    tag_146:\n        /* \"#utility.yul\":1677:1740   */\n      tag_149\n        /* \"#utility.yul\":1732:1739   */\n      dup8\n        /* \"#utility.yul\":1723:1729   */\n      dup3\n        /* \"#utility.yul\":1712:1721   */\n      dup9\n        /* \"#utility.yul\":1708:1730   */\n      add\n        /* \"#utility.yul\":1677:1740   */\n      tag_130\n      jump\t// in\n    tag_149:\n        /* \"#utility.yul\":1667:1740   */\n      swap3\n      pop\n        /* \"#utility.yul\":1462:1750   */\n      pop\n        /* \"#utility.yul\":1817:1819   */\n      0x60\n        /* \"#utility.yul\":1806:1815   */\n      dup6\n        /* \"#utility.yul\":1802:1820   */\n      add\n        /* \"#utility.yul\":1789:1821   */\n      calldataload\n        /* \"#utility.yul\":1848:1866   */\n      0xffffffffffffffff\n        /* \"#utility.yul\":1840:1846   */\n      dup2\n        /* \"#utility.yul\":1837:1867   */\n      gt\n        /* \"#utility.yul\":1834:1951   */\n      iszero\n      tag_150\n      jumpi\n        /* \"#utility.yul\":1870:1949   */\n      tag_151\n      tag_148\n      jump\t// in\n    tag_151:\n        /* \"#utility.yul\":1834:1951   */\n    tag_150:\n        /* \"#utility.yul\":1975:2038   */\n      tag_152\n        /* \"#utility.yul\":2030:2037   */\n      dup8\n        /* \"#utility.yul\":2021:2027   */\n      dup3\n        /* \"#utility.yul\":2010:2019   */\n      dup9\n        /* \"#utility.yul\":2006:2028   */\n      add\n        /* \"#utility.yul\":1975:2038   */\n      tag_130\n      jump\t// in\n    tag_152:\n        /* \"#utility.yul\":1965:2038   */\n      swap2\n      pop\n        /* \"#utility.yul\":1760:2048   */\n      pop\n        /* \"#utility.yul\":930:2055   */\n      swap3\n      swap6\n      swap2\n      swap5\n      pop\n      swap3\n      pop\n      jump\t// out\n        /* \"#utility.yul\":2061:2680   */\n    tag_12:\n        /* \"#utility.yul\":2138:2144   */\n      0x00\n        /* \"#utility.yul\":2146:2152   */\n      dup1\n        /* \"#utility.yul\":2154:2160   */\n      0x00\n        /* \"#utility.yul\":2203:2205   */\n      0x60\n        /* \"#utility.yul\":2191:2200   */\n      dup5\n        /* \"#utility.yul\":2182:2189   */\n      dup7\n        /* \"#utility.yul\":2178:2201   */\n      sub\n        /* \"#utility.yul\":2174:2206   */\n      slt\n        /* \"#utility.yul\":2171:2290   */\n      iszero\n      tag_154\n      jumpi\n        /* \"#utility.yul\":2209:2288   */\n      tag_155\n      tag_143\n      jump\t// in\n    tag_155:\n        /* \"#utility.yul\":2171:2290   */\n    tag_154:\n        /* \"#utility.yul\":2329:2330   */\n      0x00\n        /* \"#utility.yul\":2354:2407   */\n      tag_156\n        /* \"#utility.yul\":2399:2406   */\n      dup7\n        /* \"#utility.yul\":2390:2396   */\n      dup3\n        /* \"#utility.yul\":2379:2388   */\n      dup8\n        /* \"#utility.yul\":2375:2397   */\n      add\n        /* \"#utility.yul\":2354:2407   */\n      tag_136\n      jump\t// in\n    tag_156:\n        /* \"#utility.yul\":2344:2407   */\n      swap4\n      pop\n        /* \"#utility.yul\":2300:2417   */\n      pop\n        /* \"#utility.yul\":2456:2458   */\n      0x20\n        /* \"#utility.yul\":2482:2535   */\n      tag_157\n        /* \"#utility.yul\":2527:2534   */\n      dup7\n        /* \"#utility.yul\":2518:2524   */\n      dup3\n        /* \"#utility.yul\":2507:2516   */\n      dup8\n        /* \"#utility.yul\":2503:2525   */\n      add\n        /* \"#utility.yul\":2482:2535   */\n      tag_136\n      jump\t// in\n    tag_157:\n        /* \"#utility.yul\":2472:2535   */\n      swap3\n      pop\n        /* \"#utility.yul\":2427:2545   */\n      pop\n        /* \"#utility.yul\":2584:2586   */\n      0x40\n        /* \"#utility.yul\":2610:2663   */\n      tag_158\n        /* \"#utility.yul\":2655:2662   */\n      dup7\n        /* \"#utility.yul\":2646:2652   */\n      dup3\n        /* \"#utility.yul\":2635:2644   */\n      dup8\n        /* \"#utility.yul\":2631:2653   */\n      add\n        /* \"#utility.yul\":2610:2663   */\n      tag_136\n      jump\t// in\n    tag_158:\n        /* \"#utility.yul\":2600:2663   */\n      swap2\n      pop\n        /* \"#utility.yul\":2555:2673   */\n      pop\n        /* \"#utility.yul\":2061:2680   */\n      swap3\n      pop\n      swap3\n      pop\n      swap3\n      jump\t// out\n        /* \"#utility.yul\":2686:3957   */\n    tag_16:\n        /* \"#utility.yul\":2801:2807   */\n      0x00\n        /* \"#utility.yul\":2809:2815   */\n      dup1\n        /* \"#utility.yul\":2817:2823   */\n      0x00\n        /* \"#utility.yul\":2825:2831   */\n      dup1\n        /* \"#utility.yul\":2833:2839   */\n      0x00\n        /* \"#utility.yul\":2882:2885   */\n      0xa0\n        /* \"#utility.yul\":2870:2879   */\n      dup7\n        /* \"#utility.yul\":2861:2868   */\n      dup9\n        /* \"#utility.yul\":2857:2880   */\n      sub\n        /* \"#utility.yul\":2853:2886   */\n      slt\n        /* \"#utility.yul\":2850:2970   */\n      iszero\n      tag_160\n      jumpi\n        /* \"#utility.yul\":2889:2968   */\n      tag_161\n      tag_143\n      jump\t// in\n    tag_161:\n        /* \"#utility.yul\":2850:2970   */\n    tag_160:\n        /* \"#utility.yul\":3009:3010   */\n      0x00\n        /* \"#utility.yul\":3034:3087   */\n      tag_162\n        /* \"#utility.yul\":3079:3086   */\n      dup9\n        /* \"#utility.yul\":3070:3076   */\n      dup3\n        /* \"#utility.yul\":3059:3068   */\n      dup10\n        /* \"#utility.yul\":3055:3077   */\n      add\n        /* \"#utility.yul\":3034:3087   */\n      tag_136\n      jump\t// in\n    tag_162:\n        /* \"#utility.yul\":3024:3087   */\n      swap6\n      pop\n        /* \"#utility.yul\":2980:3097   */\n      pop\n        /* \"#utility.yul\":3136:3138   */\n      0x20\n        /* \"#utility.yul\":3162:3215   */\n      tag_163\n        /* \"#utility.yul\":3207:3214   */\n      dup9\n        /* \"#utility.yul\":3198:3204   */\n      dup3\n        /* \"#utility.yul\":3187:3196   */\n      dup10\n        /* \"#utility.yul\":3183:3205   */\n      add\n        /* \"#utility.yul\":3162:3215   */\n      tag_136\n      jump\t// in\n    tag_163:\n        /* \"#utility.yul\":3152:3215   */\n      swap5\n      pop\n        /* \"#utility.yul\":3107:3225   */\n      pop\n        /* \"#utility.yul\":3264:3266   */\n      0x40\n        /* \"#utility.yul\":3290:3343   */\n      tag_164\n        /* \"#utility.yul\":3335:3342   */\n      dup9\n        /* \"#utility.yul\":3326:3332   */\n      dup3\n        /* \"#utility.yul\":3315:3324   */\n      dup10\n        /* \"#utility.yul\":3311:3333   */\n      add\n        /* \"#utility.yul\":3290:3343   */\n      tag_136\n      jump\t// in\n    tag_164:\n        /* \"#utility.yul\":3280:3343   */\n      swap4\n      pop\n        /* \"#utility.yul\":3235:3353   */\n      pop\n        /* \"#utility.yul\":3420:3422   */\n      0x60\n        /* \"#utility.yul\":3409:3418   */\n      dup7\n        /* \"#utility.yul\":3405:3423   */\n      add\n        /* \"#utility.yul\":3392:3424   */\n      calldataload\n        /* \"#utility.yul\":3451:3469   */\n      0xffffffffffffffff\n        /* \"#utility.yul\":3443:3449   */\n      dup2\n        /* \"#utility.yul\":3440:3470   */\n      gt\n        /* \"#utility.yul\":3437:3554   */\n      iszero\n      tag_165\n      jumpi\n        /* \"#utility.yul\":3473:3552   */\n      tag_166\n      tag_148\n      jump\t// in\n    tag_166:\n        /* \"#utility.yul\":3437:3554   */\n    tag_165:\n        /* \"#utility.yul\":3578:3641   */\n      tag_167\n        /* \"#utility.yul\":3633:3640   */\n      dup9\n        /* \"#utility.yul\":3624:3630   */\n      dup3\n        /* \"#utility.yul\":3613:3622   */\n      dup10\n        /* \"#utility.yul\":3609:3631   */\n      add\n        /* \"#utility.yul\":3578:3641   */\n      tag_130\n      jump\t// in\n    tag_167:\n        /* \"#utility.yul\":3568:3641   */\n      swap3\n      pop\n        /* \"#utility.yul\":3363:3651   */\n      pop\n        /* \"#utility.yul\":3718:3721   */\n      0x80\n        /* \"#utility.yul\":3707:3716   */\n      dup7\n        /* \"#utility.yul\":3703:3722   */\n      add\n        /* \"#utility.yul\":3690:3723   */\n      calldataload\n        /* \"#utility.yul\":3750:3768   */\n      0xffffffffffffffff\n        /* \"#utility.yul\":3742:3748   */\n      dup2\n        /* \"#utility.yul\":3739:3769   */\n      gt\n        /* \"#utility.yul\":3736:3853   */\n      iszero\n      tag_168\n      jumpi\n        /* \"#utility.yul\":3772:3851   */\n      tag_169\n      tag_148\n      jump\t// in\n    tag_169:\n        /* \"#utility.yul\":3736:3853   */\n    tag_168:\n        /* \"#utility.yul\":3877:3940   */\n      tag_170\n        /* \"#utility.yul\":3932:3939   */\n      dup9\n        /* \"#utility.yul\":3923:3929   */\n      dup3\n        /* \"#utility.yul\":3912:3921   */\n      dup10\n        /* \"#utility.yul\":3908:3930   */\n      add\n        /* \"#utility.yul\":3877:3940   */\n      tag_130\n      jump\t// in\n    tag_170:\n        /* \"#utility.yul\":3867:3940   */\n      swap2\n      pop\n        /* \"#utility.yul\":3661:3950   */\n      pop\n        /* \"#utility.yul\":2686:3957   */\n      swap3\n      swap6\n      pop\n      swap3\n      swap6\n      swap1\n      swap4\n      pop\n      jump\t// out\n        /* \"#utility.yul\":3963:4327   */\n    tag_171:\n        /* \"#utility.yul\":4051:4054   */\n      0x00\n        /* \"#utility.yul\":4079:4118   */\n      tag_173\n        /* \"#utility.yul\":4112:4117   */\n      dup3\n        /* \"#utility.yul\":4079:4118   */\n      tag_174\n      jump\t// in\n    tag_173:\n        /* \"#utility.yul\":4134:4205   */\n      tag_175\n        /* \"#utility.yul\":4198:4204   */\n      dup2\n        /* \"#utility.yul\":4193:4196   */\n      dup6\n        /* \"#utility.yul\":4134:4205   */\n      tag_176\n      jump\t// in\n    tag_175:\n        /* \"#utility.yul\":4127:4205   */\n      swap4\n      pop\n        /* \"#utility.yul\":4214:4266   */\n      tag_177\n        /* \"#utility.yul\":4259:4265   */\n      dup2\n        /* \"#utility.yul\":4254:4257   */\n      dup6\n        /* \"#utility.yul\":4247:4251   */\n      0x20\n        /* \"#utility.yul\":4240:4245   */\n      dup7\n        /* \"#utility.yul\":4236:4252   */\n      add\n        /* \"#utility.yul\":4214:4266   */\n      tag_178\n      jump\t// in\n    tag_177:\n        /* \"#utility.yul\":4291:4320   */\n      tag_179\n        /* \"#utility.yul\":4313:4319   */\n      dup2\n        /* \"#utility.yul\":4291:4320   */\n      tag_180\n      jump\t// in\n    tag_179:\n        /* \"#utility.yul\":4286:4289   */\n      dup5\n        /* \"#utility.yul\":4282:4321   */\n      add\n        /* \"#utility.yul\":4275:4321   */\n      swap2\n      pop\n        /* \"#utility.yul\":4055:4327   */\n      pop\n        /* \"#utility.yul\":3963:4327   */\n      swap3\n      swap2\n      pop\n      pop\n      jump\t// out\n        /* \"#utility.yul\":4333:4451   */\n    tag_181:\n        /* \"#utility.yul\":4420:4444   */\n      tag_183\n        /* \"#utility.yul\":4438:4443   */\n      dup2\n        /* \"#utility.yul\":4420:4444   */\n      tag_184\n      jump\t// in\n    tag_183:\n        /* \"#utility.yul\":4415:4418   */\n      dup3\n        /* \"#utility.yul\":4408:4445   */\n      mstore\n        /* \"#utility.yul\":4333:4451   */\n      pop\n      pop\n      jump\t// out\n        /* \"#utility.yul\":4457:4899   */\n    tag_82:\n        /* \"#utility.yul\":4606:4610   */\n      0x00\n        /* \"#utility.yul\":4644:4646   */\n      0x60\n        /* \"#utility.yul\":4633:4642   */\n      dup3\n        /* \"#utility.yul\":4629:4647   */\n      add\n        /* \"#utility.yul\":4621:4647   */\n      swap1\n      pop\n        /* \"#utility.yul\":4657:4728   */\n      tag_186\n        /* \"#utility.yul\":4725:4726   */\n      0x00\n        /* \"#utility.yul\":4714:4723   */\n      dup4\n        /* \"#utility.yul\":4710:4727   */\n      add\n        /* \"#utility.yul\":4701:4707   */\n      dup7\n        /* \"#utility.yul\":4657:4728   */\n      tag_181\n      jump\t// in\n    tag_186:\n        /* \"#utility.yul\":4738:4810   */\n      tag_187\n        /* \"#utility.yul\":4806:4808   */\n      0x20\n        /* \"#utility.yul\":4795:4804   */\n      dup4\n        /* \"#utility.yul\":4791:4809   */\n      add\n        /* \"#utility.yul\":4782:4788   */\n      dup6\n        /* \"#utility.yul\":4738:4810   */\n      tag_181\n      jump\t// in\n    tag_187:\n        /* \"#utility.yul\":4820:4892   */\n      tag_188\n        /* \"#utility.yul\":4888:4890   */\n      0x40\n        /* \"#utility.yul\":4877:4886   */\n      dup4\n        /* \"#utility.yul\":4873:4891   */\n      add\n        /* \"#utility.yul\":4864:4870   */\n      dup5\n        /* \"#utility.yul\":4820:4892   */\n      tag_181\n      jump\t// in\n    tag_188:\n        /* \"#utility.yul\":4457:4899   */\n      swap5\n      swap4\n      pop\n      pop\n      pop\n      pop\n      jump\t// out\n        /* \"#utility.yul\":4905:5751   */\n    tag_38:\n        /* \"#utility.yul\":5150:5154   */\n      0x00\n        /* \"#utility.yul\":5188:5191   */\n      0xa0\n        /* \"#utility.yul\":5177:5186   */\n      dup3\n        /* \"#utility.yul\":5173:5192   */\n      add\n        /* \"#utility.yul\":5165:5192   */\n      swap1\n      pop\n        /* \"#utility.yul\":5202:5273   */\n      tag_190\n        /* \"#utility.yul\":5270:5271   */\n      0x00\n        /* \"#utility.yul\":5259:5268   */\n      dup4\n        /* \"#utility.yul\":5255:5272   */\n      add\n        /* \"#utility.yul\":5246:5252   */\n      dup9\n        /* \"#utility.yul\":5202:5273   */\n      tag_181\n      jump\t// in\n    tag_190:\n        /* \"#utility.yul\":5283:5355   */\n      tag_191\n        /* \"#utility.yul\":5351:5353   */\n      0x20\n        /* \"#utility.yul\":5340:5349   */\n      dup4\n        /* \"#utility.yul\":5336:5354   */\n      add\n        /* \"#utility.yul\":5327:5333   */\n      dup8\n        /* \"#utility.yul\":5283:5355   */\n      tag_181\n      jump\t// in\n    tag_191:\n        /* \"#utility.yul\":5365:5437   */\n      tag_192\n        /* \"#utility.yul\":5433:5435   */\n      0x40\n        /* \"#utility.yul\":5422:5431   */\n      dup4\n        /* \"#utility.yul\":5418:5436   */\n      add\n        /* \"#utility.yul\":5409:5415   */\n      dup7\n        /* \"#utility.yul\":5365:5437   */\n      tag_181\n      jump\t// in\n    tag_192:\n        /* \"#utility.yul\":5484:5493   */\n      dup2\n        /* \"#utility.yul\":5478:5482   */\n      dup2\n        /* \"#utility.yul\":5474:5494   */\n      sub\n        /* \"#utility.yul\":5469:5471   */\n      0x60\n        /* \"#utility.yul\":5458:5467   */\n      dup4\n        /* \"#utility.yul\":5454:5472   */\n      add\n        /* \"#utility.yul\":5447:5495   */\n      mstore\n        /* \"#utility.yul\":5512:5590   */\n      tag_193\n        /* \"#utility.yul\":5585:5589   */\n      dup2\n        /* \"#utility.yul\":5576:5582   */\n      dup6\n        /* \"#utility.yul\":5512:5590   */\n      tag_171\n      jump\t// in\n    tag_193:\n        /* \"#utility.yul\":5504:5590   */\n      swap1\n      pop\n        /* \"#utility.yul\":5638:5647   */\n      dup2\n        /* \"#utility.yul\":5632:5636   */\n      dup2\n        /* \"#utility.yul\":5628:5648   */\n      sub\n        /* \"#utility.yul\":5622:5625   */\n      0x80\n        /* \"#utility.yul\":5611:5620   */\n      dup4\n        /* \"#utility.yul\":5607:5626   */\n      add\n        /* \"#utility.yul\":5600:5649   */\n      mstore\n        /* \"#utility.yul\":5666:5744   */\n      tag_194\n        /* \"#utility.yul\":5739:5743   */\n      dup2\n        /* \"#utility.yul\":5730:5736   */\n      dup5\n        /* \"#utility.yul\":5666:5744   */\n      tag_171\n      jump\t// in\n    tag_194:\n        /* \"#utility.yul\":5658:5744   */\n      swap1\n      pop\n        /* \"#utility.yul\":4905:5751   */\n      swap7\n      swap6\n      pop\n      pop\n      pop\n      pop\n      pop\n      pop\n      jump\t// out\n        /* \"#utility.yul\":5757:5886   */\n    tag_124:\n        /* \"#utility.yul\":5791:5797   */\n      0x00\n        /* \"#utility.yul\":5818:5838   */\n      tag_196\n      tag_197\n      jump\t// in\n    tag_196:\n        /* \"#utility.yul\":5808:5838   */\n      swap1\n      pop\n        /* \"#utility.yul\":5847:5880   */\n      tag_198\n        /* \"#utility.yul\":5875:5879   */\n      dup3\n        /* \"#utility.yul\":5867:5873   */\n      dup3\n        /* \"#utility.yul\":5847:5880   */\n      tag_199\n      jump\t// in\n    tag_198:\n        /* \"#utility.yul\":5757:5886   */\n      swap2\n      swap1\n      pop\n      jump\t// out\n        /* \"#utility.yul\":5892:5967   */\n    tag_197:\n        /* \"#utility.yul\":5925:5931   */\n      0x00\n        /* \"#utility.yul\":5958:5960   */\n      0x40\n        /* \"#utility.yul\":5952:5961   */\n      mload\n        /* \"#utility.yul\":5942:5961   */\n      swap1\n      pop\n        /* \"#utility.yul\":5892:5967   */\n      swap1\n      jump\t// out\n        /* \"#utility.yul\":5973:6281   */\n    tag_123:\n        /* \"#utility.yul\":6035:6039   */\n      0x00\n        /* \"#utility.yul\":6125:6143   */\n      0xffffffffffffffff\n        /* \"#utility.yul\":6117:6123   */\n      dup3\n        /* \"#utility.yul\":6114:6144   */\n      gt\n        /* \"#utility.yul\":6111:6167   */\n      iszero\n      tag_202\n      jumpi\n        /* \"#utility.yul\":6147:6165   */\n      tag_203\n      tag_204\n      jump\t// in\n    tag_203:\n        /* \"#utility.yul\":6111:6167   */\n    tag_202:\n        /* \"#utility.yul\":6185:6214   */\n      tag_205\n        /* \"#utility.yul\":6207:6213   */\n      dup3\n        /* \"#utility.yul\":6185:6214   */\n      tag_180\n      jump\t// in\n    tag_205:\n        /* \"#utility.yul\":6177:6214   */\n      swap1\n      pop\n        /* \"#utility.yul\":6269:6273   */\n      0x20\n        /* \"#utility.yul\":6263:6267   */\n      dup2\n        /* \"#utility.yul\":6259:6274   */\n      add\n        /* \"#utility.yul\":6251:6274   */\n      swap1\n      pop\n        /* \"#utility.yul\":5973:6281   */\n      swap2\n      swap1\n      pop\n      jump\t// out\n        /* \"#utility.yul\":6287:6386   */\n    tag_174:\n        /* \"#utility.yul\":6339:6345   */\n      0x00\n        /* \"#utility.yul\":6373:6378   */\n      dup2\n        /* \"#utility.yul\":6367:6379   */\n      mload\n        /* \"#utility.yul\":6357:6379   */\n      swap1\n      pop\n        /* \"#utility.yul\":6287:6386   */\n      swap2\n      swap1\n      pop\n      jump\t// out\n        /* \"#utility.yul\":6392:6561   */\n    tag_176:\n        /* \"#utility.yul\":6476:6487   */\n      0x00\n        /* \"#utility.yul\":6510:6516   */\n      dup3\n        /* \"#utility.yul\":6505:6508   */\n      dup3\n        /* \"#utility.yul\":6498:6517   */\n      mstore\n        /* \"#utility.yul\":6550:6554   */\n      0x20\n        /* \"#utility.yul\":6545:6548   */\n      dup3\n        /* \"#utility.yul\":6541:6555   */\n      add\n        /* \"#utility.yul\":6526:6555   */\n      swap1\n      pop\n        /* \"#utility.yul\":6392:6561   */\n      swap3\n      swap2\n      pop\n      pop\n      jump\t// out\n        /* \"#utility.yul\":6567:6872   */\n    tag_24:\n        /* \"#utility.yul\":6607:6610   */\n      0x00\n        /* \"#utility.yul\":6626:6646   */\n      tag_209\n        /* \"#utility.yul\":6644:6645   */\n      dup3\n        /* \"#utility.yul\":6626:6646   */\n      tag_184\n      jump\t// in\n    tag_209:\n        /* \"#utility.yul\":6621:6646   */\n      swap2\n      pop\n        /* \"#utility.yul\":6660:6680   */\n      tag_210\n        /* \"#utility.yul\":6678:6679   */\n      dup4\n        /* \"#utility.yul\":6660:6680   */\n      tag_184\n      jump\t// in\n    tag_210:\n        /* \"#utility.yul\":6655:6680   */\n      swap3\n      pop\n        /* \"#utility.yul\":6814:6815   */\n      dup3\n        /* \"#utility.yul\":6746:6812   */\n      0xffffffffffffffffffffffffffffffffffffffffffffffffffffffffffffffff\n        /* \"#utility.yul\":6742:6816   */\n      sub\n        /* \"#utility.yul\":6739:6740   */\n      dup3\n        /* \"#utility.yul\":6736:6817   */\n      gt\n        /* \"#utility.yul\":6733:6840   */\n      iszero\n      tag_211\n      jumpi\n        /* \"#utility.yul\":6820:6838   */\n      tag_212\n      tag_213\n      jump\t// in\n    tag_212:\n        /* \"#utility.yul\":6733:6840   */\n    tag_211:\n        /* \"#utility.yul\":6864:6865   */\n      dup3\n        /* \"#utility.yul\":6861:6862   */\n      dup3\n        /* \"#utility.yul\":6857:6866   */\n      add\n        /* \"#utility.yul\":6850:6866   */\n      swap1\n      pop\n        /* \"#utility.yul\":6567:6872   */\n      swap3\n      swap2\n      pop\n      pop\n      jump\t// out\n        /* \"#utility.yul\":6878:7069   */\n    tag_47:\n        /* \"#utility.yul\":6918:6922   */\n      0x00\n        /* \"#utility.yul\":6938:6958   */\n      tag_215\n        /* \"#utility.yul\":6956:6957   */\n      dup3\n        /* \"#utility.yul\":6938:6958   */\n      tag_184\n      jump\t// in\n    tag_215:\n        /* \"#utility.yul\":6933:6958   */\n      swap2\n      pop\n        /* \"#utility.yul\":6972:6992   */\n      tag_216\n        /* \"#utility.yul\":6990:6991   */\n      dup4\n        /* \"#utility.yul\":6972:6992   */\n      tag_184\n      jump\t// in\n    tag_216:\n        /* \"#utility.yul\":6967:6992   */\n      swap3\n      pop\n        /* \"#utility.yul\":7011:7012   */\n      dup3\n        /* \"#utility.yul\":7008:7009   */\n      dup3\n        /* \"#utility.yul\":7005:7013   */\n      lt\n        /* \"#utility.yul\":7002:7036   */\n      iszero\n      tag_217\n      jumpi\n        /* \"#utility.yul\":7016:7034   */\n      tag_218\n      tag_213\n      jump\t// in\n    tag_218:\n        /* \"#utility.yul\":7002:7036   */\n    tag_217:\n        /* \"#utility.yul\":7061:7062   */\n      dup3\n        /* \"#utility.yul\":7058:7059   */\n      dup3\n        /* \"#utility.yul\":7054:7063   */\n      sub\n        /* \"#utility.yul\":7046:7063   */\n      swap1\n      pop\n        /* \"#utility.yul\":6878:7069   */\n      swap3\n      swap2\n      pop\n      pop\n      jump\t// out\n        /* \"#utility.yul\":7075:7152   */\n    tag_184:\n        /* \"#utility.yul\":7112:7119   */\n      0x00\n        /* \"#utility.yul\":7141:7146   */\n      dup2\n        /* \"#utility.yul\":7130:7146   */\n      swap1\n      pop\n        /* \"#utility.yul\":7075:7152   */\n      swap2\n      swap1\n      pop\n      jump\t// out\n        /* \"#utility.yul\":7158:7312   */\n    tag_129:\n        /* \"#utility.yul\":7242:7248   */\n      dup3\n        /* \"#utility.yul\":7237:7240   */\n      dup2\n        /* \"#utility.yul\":7232:7235   */\n      dup4\n        /* \"#utility.yul\":7219:7249   */\n      calldatacopy\n        /* \"#utility.yul\":7304:7305   */\n      0x00\n        /* \"#utility.yul\":7295:7301   */\n      dup4\n        /* \"#utility.yul\":7290:7293   */\n      dup4\n        /* \"#utility.yul\":7286:7302   */\n      add\n        /* \"#utility.yul\":7279:7306   */\n      mstore\n        /* \"#utility.yul\":7158:7312   */\n      pop\n      pop\n      pop\n      jump\t// out\n        /* \"#utility.yul\":7318:7625   */\n    tag_178:\n        /* \"#utility.yul\":7386:7387   */\n      0x00\n        /* \"#utility.yul\":7396:7509   */\n    tag_222:\n        /* \"#utility.yul\":7410:7416   */\n      dup4\n        /* \"#utility.yul\":7407:7408   */\n      dup2\n        /* \"#utility.yul\":7404:7417   */\n      lt\n        /* \"#utility.yul\":7396:7509   */\n      iszero\n      tag_224\n      jumpi\n        /* \"#utility.yul\":7495:7496   */\n      dup1\n        /* \"#utility.yul\":7490:7493   */\n      dup3\n        /* \"#utility.yul\":7486:7497   */\n      add\n        /* \"#utility.yul\":7480:7498   */\n      mload\n        /* \"#utility.yul\":7476:7477   */\n      dup2\n        /* \"#utility.yul\":7471:7474   */\n      dup5\n        /* \"#utility.yul\":7467:7478   */\n      add\n        /* \"#utility.yul\":7460:7499   */\n      mstore\n        /* \"#utility.yul\":7432:7434   */\n      0x20\n        /* \"#utility.yul\":7429:7430   */\n      dup2\n        /* \"#utility.yul\":7425:7435   */\n      add\n        /* \"#utility.yul\":7420:7435   */\n      swap1\n      pop\n        /* \"#utility.yul\":7396:7509   */\n      jump(tag_222)\n    tag_224:\n        /* \"#utility.yul\":7527:7533   */\n      dup4\n        /* \"#utility.yul\":7524:7525   */\n      dup2\n        /* \"#utility.yul\":7521:7534   */\n      gt\n        /* \"#utility.yul\":7518:7619   */\n      iszero\n      tag_225\n      jumpi\n        /* \"#utility.yul\":7607:7608   */\n      0x00\n        /* \"#utility.yul\":7598:7604   */\n      dup5\n        /* \"#utility.yul\":7593:7596   */\n      dup5\n        /* \"#utility.yul\":7589:7605   */\n      add\n        /* \"#utility.yul\":7582:7609   */\n      mstore\n        /* \"#utility.yul\":7518:7619   */\n    tag_225:\n        /* \"#utility.yul\":7367:7625   */\n      pop\n        /* \"#utility.yul\":7318:7625   */\n      pop\n      pop\n      pop\n      jump\t// out\n        /* \"#utility.yul\":7631:7951   */\n    tag_62:\n        /* \"#utility.yul\":7675:7681   */\n      0x00\n        /* \"#utility.yul\":7712:7713   */\n      0x02\n        /* \"#utility.yul\":7706:7710   */\n      dup3\n        /* \"#utility.yul\":7702:7714   */\n      div\n        /* \"#utility.yul\":7692:7714   */\n      swap1\n      pop\n        /* \"#utility.yul\":7759:7760   */\n      0x01\n        /* \"#utility.yul\":7753:7757   */\n      dup3\n        /* \"#utility.yul\":7749:7761   */\n      and\n        /* \"#utility.yul\":7780:7798   */\n      dup1\n        /* \"#utility.yul\":7770:7851   */\n      tag_227\n      jumpi\n        /* \"#utility.yul\":7836:7840   */\n      0x7f\n        /* \"#utility.yul\":7828:7834   */\n      dup3\n        /* \"#utility.yul\":7824:7841   */\n      and\n        /* \"#utility.yul\":7814:7841   */\n      swap2\n      pop\n        /* \"#utility.yul\":7770:7851   */\n    tag_227:\n        /* \"#utility.yul\":7898:7900   */\n      0x20\n        /* \"#utility.yul\":7890:7896   */\n      dup3\n        /* \"#utility.yul\":7887:7901   */\n      lt\n        /* \"#utility.yul\":7867:7885   */\n      dup2\n        /* \"#utility.yul\":7864:7902   */\n      eq\n        /* \"#utility.yul\":7861:7945   */\n      iszero\n      tag_228\n      jumpi\n        /* \"#utility.yul\":7917:7935   */\n      tag_229\n      tag_230\n      jump\t// in\n    tag_229:\n        /* \"#utility.yul\":7861:7945   */\n    tag_228:\n        /* \"#utility.yul\":7682:7951   */\n      pop\n        /* \"#utility.yul\":7631:7951   */\n      swap2\n      swap1\n      pop\n      jump\t// out\n        /* \"#utility.yul\":7957:8238   */\n    tag_199:\n        /* \"#utility.yul\":8040:8067   */\n      tag_232\n        /* \"#utility.yul\":8062:8066   */\n      dup3\n        /* \"#utility.yul\":8040:8067   */\n      tag_180\n      jump\t// in\n    tag_232:\n        /* \"#utility.yul\":8032:8038   */\n      dup2\n        /* \"#utility.yul\":8028:8068   */\n      add\n        /* \"#utility.yul\":8170:8176   */\n      dup2\n        /* \"#utility.yul\":8158:8168   */\n      dup2\n        /* \"#utility.yul\":8155:8177   */\n      lt\n        /* \"#utility.yul\":8134:8152   */\n      0xffffffffffffffff\n        /* \"#utility.yul\":8122:8132   */\n      dup3\n        /* \"#utility.yul\":8119:8153   */\n      gt\n        /* \"#utility.yul\":8116:8178   */\n      or\n        /* \"#utility.yul\":8113:8201   */\n      iszero\n      tag_233\n      jumpi\n        /* \"#utility.yul\":8181:8199   */\n      tag_234\n      tag_204\n      jump\t// in\n    tag_234:\n        /* \"#utility.yul\":8113:8201   */\n    tag_233:\n        /* \"#utility.yul\":8221:8231   */\n      dup1\n        /* \"#utility.yul\":8217:8219   */\n      0x40\n        /* \"#utility.yul\":8210:8232   */\n      mstore\n        /* \"#utility.yul\":8000:8238   */\n      pop\n        /* \"#utility.yul\":7957:8238   */\n      pop\n      pop\n      jump\t// out\n        /* \"#utility.yul\":8244:8477   */\n    tag_70:\n        /* \"#utility.yul\":8283:8286   */\n      0x00\n        /* \"#utility.yul\":8306:8330   */\n      tag_236\n        /* \"#utility.yul\":8324:8329   */\n      dup3\n        /* \"#utility.yul\":8306:8330   */\n      tag_184\n      jump\t// in\n    tag_236:\n        /* \"#utility.yul\":8297:8330   */\n      swap2\n      pop\n        /* \"#utility.yul\":8352:8418   */\n      0xffffffffffffffffffffffffffffffffffffffffffffffffffffffffffffffff\n        /* \"#utility.yul\":8345:8350   */\n      dup3\n        /* \"#utility.yul\":8342:8419   */\n      eq\n        /* \"#utility.yul\":8339:8442   */\n      iszero\n      tag_237\n      jumpi\n        /* \"#utility.yul\":8422:8440   */\n      tag_238\n      tag_213\n      jump\t// in\n    tag_238:\n        /* \"#utility.yul\":8339:8442   */\n    tag_237:\n        /* \"#utility.yul\":8469:8470   */\n      0x01\n        /* \"#utility.yul\":8462:8467   */\n      dup3\n        /* \"#utility.yul\":8458:8471   */\n      add\n        /* \"#utility.yul\":8451:8471   */\n      swap1\n      pop\n        /* \"#utility.yul\":8244:8477   */\n      swap2\n      swap1\n      pop\n      jump\t// out\n        /* \"#utility.yul\":8483:8663   */\n    tag_213:\n        /* \"#utility.yul\":8531:8608   */\n      0x4e487b7100000000000000000000000000000000000000000000000000000000\n        /* \"#utility.yul\":8528:8529   */\n      0x00\n        /* \"#utility.yul\":8521:8609   */\n      mstore\n        /* \"#utility.yul\":8628:8632   */\n      0x11\n        /* \"#utility.yul\":8625:8626   */\n      0x04\n        /* \"#utility.yul\":8618:8633   */\n      mstore\n        /* \"#utility.yul\":8652:8656   */\n      0x24\n        /* \"#utility.yul\":8649:8650   */\n      0x00\n        /* \"#utility.yul\":8642:8657   */\n      revert\n        /* \"#utility.yul\":8669:8849   */\n    tag_27:\n        /* \"#utility.yul\":8717:8794   */\n      0x4e487b7100000000000000000000000000000000000000000000000000000000\n        /* \"#utility.yul\":8714:8715   */\n      0x00\n        /* \"#utility.yul\":8707:8795   */\n      mstore\n        /* \"#utility.yul\":8814:8818   */\n      0x21\n        /* \"#utility.yul\":8811:8812   */\n      0x04\n        /* \"#utility.yul\":8804:8819   */\n      mstore\n        /* \"#utility.yul\":8838:8842   */\n      0x24\n        /* \"#utility.yul\":8835:8836   */\n      0x00\n        /* \"#utility.yul\":8828:8843   */\n      revert\n        /* \"#utility.yul\":8855:9035   */\n    tag_230:\n        /* \"#utility.yul\":8903:8980   */\n      0x4e487b7100000000000000000000000000000000000000000000000000000000\n        /* \"#utility.yul\":8900:8901   */\n      0x00\n        /* \"#utility.yul\":8893:8981   */\n      mstore\n        /* \"#utility.yul\":9000:9004   */\n      0x22\n        /* \"#utility.yul\":8997:8998   */\n      0x04\n        /* \"#utility.yul\":8990:9005   */\n      mstore\n        /* \"#utility.yul\":9024:9028   */\n      0x24\n        /* \"#utility.yul\":9021:9022   */\n      0x00\n        /* \"#utility.yul\":9014:9029   */\n      revert\n        /* \"#utility.yul\":9041:9221   */\n    tag_76:\n        /* \"#utility.yul\":9089:9166   */\n      0x4e487b7100000000000000000000000000000000000000000000000000000000\n        /* \"#utility.yul\":9086:9087   */\n      0x00\n        /* \"#utility.yul\":9079:9167   */\n      mstore\n        /* \"#utility.yul\":9186:9190   */\n      0x31\n        /* \"#utility.yul\":9183:9184   */\n      0x04\n        /* \"#utility.yul\":9176:9191   */\n      mstore\n        /* \"#utility.yul\":9210:9214   */\n      0x24\n        /* \"#utility.yul\":9207:9208   */\n      0x00\n        /* \"#utility.yul\":9200:9215   */\n      revert\n        /* \"#utility.yul\":9227:9407   */\n    tag_21:\n        /* \"#utility.yul\":9275:9352   */\n      0x4e487b7100000000000000000000000000000000000000000000000000000000\n        /* \"#utility.yul\":9272:9273   */\n      0x00\n        /* \"#utility.yul\":9265:9353   */\n      mstore\n        /* \"#utility.yul\":9372:9376   */\n      0x32\n        /* \"#utility.yul\":9369:9370   */\n      0x04\n        /* \"#utility.yul\":9362:9377   */\n      mstore\n        /* \"#utility.yul\":9396:9400   */\n      0x24\n        /* \"#utility.yul\":9393:9394   */\n      0x00\n        /* \"#utility.yul\":9386:9401   */\n      revert\n        /* \"#utility.yul\":9413:9593   */\n    tag_204:\n        /* \"#utility.yul\":9461:9538   */\n      0x4e487b7100000000000000000000000000000000000000000000000000000000\n        /* \"#utility.yul\":9458:9459   */\n      0x00\n        /* \"#utility.yul\":9451:9539   */\n      mstore\n        /* \"#utility.yul\":9558:9562   */\n      0x41\n        /* \"#utility.yul\":9555:9556   */\n      0x04\n        /* \"#utility.yul\":9548:9563   */\n      mstore\n        /* \"#utility.yul\":9582:9586   */\n      0x24\n        /* \"#utility.yul\":9579:9580   */\n      0x00\n        /* \"#utility.yul\":9572:9587   */\n      revert\n        /* \"#utility.yul\":9599:9716   */\n    tag_134:\n        /* \"#utility.yul\":9708:9709   */\n      0x00\n        /* \"#utility.yul\":9705:9706   */\n      dup1\n        /* \"#utility.yul\":9698:9710   */\n      revert\n        /* \"#utility.yul\":9722:9839   */\n    tag_127:\n        /* \"#utility.yul\":9831:9832   */\n      0x00\n        /* \"#utility.yul\":9828:9829   */\n      dup1\n        /* \"#utility.yul\":9821:9833   */\n      revert\n        /* \"#utility.yul\":9845:9962   */\n    tag_148:\n        /* \"#utility.yul\":9954:9955   */\n      0x00\n        /* \"#utility.yul\":9951:9952   */\n      dup1\n        /* \"#utility.yul\":9944:9956   */\n      revert\n        /* \"#utility.yul\":9968:10085   */\n    tag_143:\n        /* \"#utility.yul\":10077:10078   */\n      0x00\n        /* \"#utility.yul\":10074:10075   */\n      dup1\n        /* \"#utility.yul\":10067:10079   */\n      revert\n        /* \"#utility.yul\":10091:10193   */\n    tag_180:\n        /* \"#utility.yul\":10132:10138   */\n      0x00\n        /* \"#utility.yul\":10183:10185   */\n      0x1f\n        /* \"#utility.yul\":10179:10186   */\n      not\n        /* \"#utility.yul\":10174:10176   */\n      0x1f\n        /* \"#utility.yul\":10167:10172   */\n      dup4\n        /* \"#utility.yul\":10163:10177   */\n      add\n        /* \"#utility.yul\":10159:10187   */\n      and\n        /* \"#utility.yul\":10149:10187   */\n      swap1\n      pop\n        /* \"#utility.yul\":10091:10193   */\n      swap2\n      swap1\n      pop\n      jump\t// out\n        /* \"#utility.yul\":10199:10321   */\n    tag_139:\n        /* \"#utility.yul\":10272:10296   */\n      tag_251\n        /* \"#utility.yul\":10290:10295   */\n      dup2\n        /* \"#utility.yul\":10272:10296   */\n      tag_184\n      jump\t// in\n    tag_251:\n        /* \"#utility.yul\":10265:10270   */\n      dup2\n        /* \"#utility.yul\":10262:10297   */\n      eq\n        /* \"#utility.yul\":10252:10315   */\n      tag_252\n      jumpi\n        /* \"#utility.yul\":10311:10312   */\n      0x00\n        /* \"#utility.yul\":10308:10309   */\n      dup1\n        /* \"#utility.yul\":10301:10313   */\n      revert\n        /* \"#utility.yul\":10252:10315   */\n    tag_252:\n        /* \"#utility.yul\":10199:10321   */\n      pop\n      jump\t// out\n\n    auxdata: 0xa264697066735822122034a6cf26c64a9aef9c592301c97c87fb7bcd26a95350f873f732c507c149479f64736f6c63430008070033\n}\n",
				"bytecode": {
					"linkReferences": {},
					"object": "608060405234801561001057600080fd5b50610ec3806100206000396000f3fe608060405234801561001057600080fd5b50600436106100415760003560e01c806363ef8a5014610046578063b9b6c5d414610062578063fd23c4bb1461007e575b600080fd5b610060600480360381019061005b91906108be565b61009a565b005b61007c6004803603810190610077919061095d565b610272565b005b610098600480360381019061009391906109b0565b61053b565b005b6000600160008087815260200190815260200160002085815481106100c2576100c1610df3565b5b90600052602060002001805490506100da9190610bb5565b905060006040518060e001604052808781526020018681526020018381526020018581526020018481526020016001151581526020016001600681111561012457610123610d66565b5b8152509050600080878152602001908152602001600020858154811061014d5761014c610df3565b5b9060005260206000200181908060018154018082558091505060019003906000526020600020906006020160009091909190915060008201518160000155602082015181600101556040820151816002015560608201518160030190805190602001906101bb9291906106c9565b5060808201518160040190805190602001906101d89291906106c9565b5060a08201518160050160006101000a81548160ff02191690831515021790555060c08201518160050160016101000a81548160ff0219169083600681111561022457610223610d66565b5b021790555050507f70d8b12d438dd130d28072c77c8047d9697b630b8dcd969123645998ad67d5618686848787604051610262959493929190610ae2565b60405180910390a1505050505050565b60008190505b6001600080868152602001908152602001600020848154811061029e5761029d610df3565b5b90600052602060002001805490506102b69190610c0b565b8110156104435760008085815260200190815260200160002083815481106102e1576102e0610df3565b5b906000526020600020016001826102f89190610bb5565b8154811061030957610308610df3565b5b9060005260206000209060060201600080868152602001908152602001600020848154811061033b5761033a610df3565b5b90600052602060002001828154811061035757610356610df3565b5b9060005260206000209060060201600082015481600001556001820154816001015560028201548160020155600382018160030190805461039790610c8b565b6103a292919061074f565b5060048201816004019080546103b790610c8b565b6103c292919061074f565b506005820160009054906101000a900460ff168160050160006101000a81548160ff0219169083151502179055506005820160019054906101000a900460ff168160050160016101000a81548160ff0219169083600681111561042857610427610d66565b5b0217905550905050808061043b90610cee565b915050610278565b50600080848152602001908152602001600020828154811061046857610467610df3565b5b9060005260206000200180548061048257610481610dc4565b5b6001900381819060005260206000209060060201600080820160009055600182016000905560028201600090556003820160006104bf91906107dc565b6004820160006104cf91906107dc565b6005820160006101000a81549060ff02191690556005820160016101000a81549060ff0219169055505090557f2b2605ee52ace237f72e6005eee79180ea3b6151bd8848a6be5e3c224b8a6ec683838360405161052e93929190610aab565b60405180910390a1505050565b60006040518060e001604052808781526020018681526020018581526020018481526020018381526020016001151581526020016001600681111561058357610582610d66565b5b81525090508060008088815260200190815260200160002086815481106105ad576105ac610df3565b5b9060005260206000200185815481106105c9576105c8610df3565b5b906000526020600020906006020160008201518160000155602082015181600101556040820151816002015560608201518160030190805190602001906106119291906106c9565b50608082015181600401908051906020019061062e9291906106c9565b5060a08201518160050160006101000a81548160ff02191690831515021790555060c08201518160050160016101000a81548160ff0219169083600681111561067a57610679610d66565b5b02179055509050507f8c0d6ff1212c3fbf79bbe6dc1e26cc40c4e137ec5711d4471b16fa121f93351186868686866040516106b9959493929190610ae2565b60405180910390a1505050505050565b8280546106d590610c8b565b90600052602060002090601f0160209004810192826106f7576000855561073e565b82601f1061071057805160ff191683800117855561073e565b8280016001018555821561073e579182015b8281111561073d578251825591602001919060010190610722565b5b50905061074b919061081c565b5090565b82805461075b90610c8b565b90600052602060002090601f01602090048101928261077d57600085556107cb565b82601f1061078e57805485556107cb565b828001600101855582156107cb57600052602060002091601f016020900482015b828111156107ca5782548255916001019190600101906107af565b5b5090506107d8919061081c565b5090565b5080546107e890610c8b565b6000825580601f106107fa5750610819565b601f016020900490600052602060002090810190610818919061081c565b5b50565b5b8082111561083557600081600090555060010161081d565b5090565b600061084c61084784610b68565b610b43565b90508281526020810184848401111561086857610867610e56565b5b610873848285610c49565b509392505050565b600082601f8301126108905761088f610e51565b5b81356108a0848260208601610839565b91505092915050565b6000813590506108b881610e76565b92915050565b600080600080608085870312156108d8576108d7610e60565b5b60006108e6878288016108a9565b94505060206108f7878288016108a9565b935050604085013567ffffffffffffffff81111561091857610917610e5b565b5b6109248782880161087b565b925050606085013567ffffffffffffffff81111561094557610944610e5b565b5b6109518782880161087b565b91505092959194509250565b60008060006060848603121561097657610975610e60565b5b6000610984868287016108a9565b9350506020610995868287016108a9565b92505060406109a6868287016108a9565b9150509250925092565b600080600080600060a086880312156109cc576109cb610e60565b5b60006109da888289016108a9565b95505060206109eb888289016108a9565b94505060406109fc888289016108a9565b935050606086013567ffffffffffffffff811115610a1d57610a1c610e5b565b5b610a298882890161087b565b925050608086013567ffffffffffffffff811115610a4a57610a49610e5b565b5b610a568882890161087b565b9150509295509295909350565b6000610a6e82610b99565b610a788185610ba4565b9350610a88818560208601610c58565b610a9181610e65565b840191505092915050565b610aa581610c3f565b82525050565b6000606082019050610ac06000830186610a9c565b610acd6020830185610a9c565b610ada6040830184610a9c565b949350505050565b600060a082019050610af76000830188610a9c565b610b046020830187610a9c565b610b116040830186610a9c565b8181036060830152610b238185610a63565b90508181036080830152610b378184610a63565b90509695505050505050565b6000610b4d610b5e565b9050610b598282610cbd565b919050565b6000604051905090565b600067ffffffffffffffff821115610b8357610b82610e22565b5b610b8c82610e65565b9050602081019050919050565b600081519050919050565b600082825260208201905092915050565b6000610bc082610c3f565b9150610bcb83610c3f565b9250827fffffffffffffffffffffffffffffffffffffffffffffffffffffffffffffffff03821115610c0057610bff610d37565b5b828201905092915050565b6000610c1682610c3f565b9150610c2183610c3f565b925082821015610c3457610c33610d37565b5b828203905092915050565b6000819050919050565b82818337600083830152505050565b60005b83811015610c76578082015181840152602081019050610c5b565b83811115610c85576000848401525b50505050565b60006002820490506001821680610ca357607f821691505b60208210811415610cb757610cb6610d95565b5b50919050565b610cc682610e65565b810181811067ffffffffffffffff82111715610ce557610ce4610e22565b5b80604052505050565b6000610cf982610c3f565b91507fffffffffffffffffffffffffffffffffffffffffffffffffffffffffffffffff821415610d2c57610d2b610d37565b5b600182019050919050565b7f4e487b7100000000000000000000000000000000000000000000000000000000600052601160045260246000fd5b7f4e487b7100000000000000000000000000000000000000000000000000000000600052602160045260246000fd5b7f4e487b7100000000000000000000000000000000000000000000000000000000600052602260045260246000fd5b7f4e487b7100000000000000000000000000000000000000000000000000000000600052603160045260246000fd5b7f4e487b7100000000000000000000000000000000000000000000000000000000600052603260045260246000fd5b7f4e487b7100000000000000000000000000000000000000000000000000000000600052604160045260246000fd5b600080fd5b600080fd5b600080fd5b600080fd5b6000601f19601f8301169050919050565b610e7f81610c3f565b8114610e8a57600080fd5b5056fea264697066735822122034a6cf26c64a9aef9c592301c97c87fb7bcd26a95350f873f732c507c149479f64736f6c63430008070033",
					"opcodes": "PUSH1 0x80 PUSH1 0x40 MSTORE CALLVALUE DUP1 ISZERO PUSH2 0x10 JUMPI PUSH1 0x0 DUP1 REVERT JUMPDEST POP PUSH2 0xEC3 DUP1 PUSH2 0x20 PUSH1 0x0 CODECOPY PUSH1 0x0 RETURN INVALID PUSH1 0x80 PUSH1 0x40 MSTORE CALLVALUE DUP1 ISZERO PUSH2 0x10 JUMPI PUSH1 0x0 DUP1 REVERT JUMPDEST POP PUSH1 0x4 CALLDATASIZE LT PUSH2 0x41 JUMPI PUSH1 0x0 CALLDATALOAD PUSH1 0xE0 SHR DUP1 PUSH4 0x63EF8A50 EQ PUSH2 0x46 JUMPI DUP1 PUSH4 0xB9B6C5D4 EQ PUSH2 0x62 JUMPI DUP1 PUSH4 0xFD23C4BB EQ PUSH2 0x7E JUMPI JUMPDEST PUSH1 0x0 DUP1 REVERT JUMPDEST PUSH2 0x60 PUSH1 0x4 DUP1 CALLDATASIZE SUB DUP2 ADD SWAP1 PUSH2 0x5B SWAP2 SWAP1 PUSH2 0x8BE JUMP JUMPDEST PUSH2 0x9A JUMP JUMPDEST STOP JUMPDEST PUSH2 0x7C PUSH1 0x4 DUP1 CALLDATASIZE SUB DUP2 ADD SWAP1 PUSH2 0x77 SWAP2 SWAP1 PUSH2 0x95D JUMP JUMPDEST PUSH2 0x272 JUMP JUMPDEST STOP JUMPDEST PUSH2 0x98 PUSH1 0x4 DUP1 CALLDATASIZE SUB DUP2 ADD SWAP1 PUSH2 0x93 SWAP2 SWAP1 PUSH2 0x9B0 JUMP JUMPDEST PUSH2 0x53B JUMP JUMPDEST STOP JUMPDEST PUSH1 0x0 PUSH1 0x1 PUSH1 0x0 DUP1 DUP8 DUP2 MSTORE PUSH1 0x20 ADD SWAP1 DUP2 MSTORE PUSH1 0x20 ADD PUSH1 0x0 KECCAK256 DUP6 DUP2 SLOAD DUP2 LT PUSH2 0xC2 JUMPI PUSH2 0xC1 PUSH2 0xDF3 JUMP JUMPDEST JUMPDEST SWAP1 PUSH1 0x0 MSTORE PUSH1 0x20 PUSH1 0x0 KECCAK256 ADD DUP1 SLOAD SWAP1 POP PUSH2 0xDA SWAP2 SWAP1 PUSH2 0xBB5 JUMP JUMPDEST SWAP1 POP PUSH1 0x0 PUSH1 0x40 MLOAD DUP1 PUSH1 0xE0 ADD PUSH1 0x40 MSTORE DUP1 DUP8 DUP2 MSTORE PUSH1 0x20 ADD DUP7 DUP2 MSTORE PUSH1 0x20 ADD DUP4 DUP2 MSTORE PUSH1 0x20 ADD DUP6 DUP2 MSTORE PUSH1 0x20 ADD DUP5 DUP2 MSTORE PUSH1 0x20 ADD PUSH1 0x1 ISZERO ISZERO DUP2 MSTORE PUSH1 0x20 ADD PUSH1 0x1 PUSH1 0x6 DUP2 GT ISZERO PUSH2 0x124 JUMPI PUSH2 0x123 PUSH2 0xD66 JUMP JUMPDEST JUMPDEST DUP2 MSTORE POP SWAP1 POP PUSH1 0x0 DUP1 DUP8 DUP2 MSTORE PUSH1 0x20 ADD SWAP1 DUP2 MSTORE PUSH1 0x20 ADD PUSH1 0x0 KECCAK256 DUP6 DUP2 SLOAD DUP2 LT PUSH2 0x14D JUMPI PUSH2 0x14C PUSH2 0xDF3 JUMP JUMPDEST JUMPDEST SWAP1 PUSH1 0x0 MSTORE PUSH1 0x20 PUSH1 0x0 KECCAK256 ADD DUP2 SWAP1 DUP1 PUSH1 0x1 DUP2 SLOAD ADD DUP1 DUP3 SSTORE DUP1 SWAP2 POP POP PUSH1 0x1 SWAP1 SUB SWAP1 PUSH1 0x0 MSTORE PUSH1 0x20 PUSH1 0x0 KECCAK256 SWAP1 PUSH1 0x6 MUL ADD PUSH1 0x0 SWAP1 SWAP2 SWAP1 SWAP2 SWAP1 SWAP2 POP PUSH1 0x0 DUP3 ADD MLOAD DUP2 PUSH1 0x0 ADD SSTORE PUSH1 0x20 DUP3 ADD MLOAD DUP2 PUSH1 0x1 ADD SSTORE PUSH1 0x40 DUP3 ADD MLOAD DUP2 PUSH1 0x2 ADD SSTORE PUSH1 0x60 DUP3 ADD MLOAD DUP2 PUSH1 0x3 ADD SWAP1 DUP1 MLOAD SWAP1 PUSH1 0x20 ADD SWAP1 PUSH2 0x1BB SWAP3 SWAP2 SWAP1 PUSH2 0x6C9 JUMP JUMPDEST POP PUSH1 0x80 DUP3 ADD MLOAD DUP2 PUSH1 0x4 ADD SWAP1 DUP1 MLOAD SWAP1 PUSH1 0x20 ADD SWAP1 PUSH2 0x1D8 SWAP3 SWAP2 SWAP1 PUSH2 0x6C9 JUMP JUMPDEST POP PUSH1 0xA0 DUP3 ADD MLOAD DUP2 PUSH1 0x5 ADD PUSH1 0x0 PUSH2 0x100 EXP DUP2 SLOAD DUP2 PUSH1 0xFF MUL NOT AND SWAP1 DUP4 ISZERO ISZERO MUL OR SWAP1 SSTORE POP PUSH1 0xC0 DUP3 ADD MLOAD DUP2 PUSH1 0x5 ADD PUSH1 0x1 PUSH2 0x100 EXP DUP2 SLOAD DUP2 PUSH1 0xFF MUL NOT AND SWAP1 DUP4 PUSH1 0x6 DUP2 GT ISZERO PUSH2 0x224 JUMPI PUSH2 0x223 PUSH2 0xD66 JUMP JUMPDEST JUMPDEST MUL OR SWAP1 SSTORE POP POP POP PUSH32 0x70D8B12D438DD130D28072C77C8047D9697B630B8DCD969123645998AD67D561 DUP7 DUP7 DUP5 DUP8 DUP8 PUSH1 0x40 MLOAD PUSH2 0x262 SWAP6 SWAP5 SWAP4 SWAP3 SWAP2 SWAP1 PUSH2 0xAE2 JUMP JUMPDEST PUSH1 0x40 MLOAD DUP1 SWAP2 SUB SWAP1 LOG1 POP POP POP POP POP POP JUMP JUMPDEST PUSH1 0x0 DUP2 SWAP1 POP JUMPDEST PUSH1 0x1 PUSH1 0x0 DUP1 DUP7 DUP2 MSTORE PUSH1 0x20 ADD SWAP1 DUP2 MSTORE PUSH1 0x20 ADD PUSH1 0x0 KECCAK256 DUP5 DUP2 SLOAD DUP2 LT PUSH2 0x29E JUMPI PUSH2 0x29D PUSH2 0xDF3 JUMP JUMPDEST JUMPDEST SWAP1 PUSH1 0x0 MSTORE PUSH1 0x20 PUSH1 0x0 KECCAK256 ADD DUP1 SLOAD SWAP1 POP PUSH2 0x2B6 SWAP2 SWAP1 PUSH2 0xC0B JUMP JUMPDEST DUP2 LT ISZERO PUSH2 0x443 JUMPI PUSH1 0x0 DUP1 DUP6 DUP2 MSTORE PUSH1 0x20 ADD SWAP1 DUP2 MSTORE PUSH1 0x20 ADD PUSH1 0x0 KECCAK256 DUP4 DUP2 SLOAD DUP2 LT PUSH2 0x2E1 JUMPI PUSH2 0x2E0 PUSH2 0xDF3 JUMP JUMPDEST JUMPDEST SWAP1 PUSH1 0x0 MSTORE PUSH1 0x20 PUSH1 0x0 KECCAK256 ADD PUSH1 0x1 DUP3 PUSH2 0x2F8 SWAP2 SWAP1 PUSH2 0xBB5 JUMP JUMPDEST DUP2 SLOAD DUP2 LT PUSH2 0x309 JUMPI PUSH2 0x308 PUSH2 0xDF3 JUMP JUMPDEST JUMPDEST SWAP1 PUSH1 0x0 MSTORE PUSH1 0x20 PUSH1 0x0 KECCAK256 SWAP1 PUSH1 0x6 MUL ADD PUSH1 0x0 DUP1 DUP7 DUP2 MSTORE PUSH1 0x20 ADD SWAP1 DUP2 MSTORE PUSH1 0x20 ADD PUSH1 0x0 KECCAK256 DUP5 DUP2 SLOAD DUP2 LT PUSH2 0x33B JUMPI PUSH2 0x33A PUSH2 0xDF3 JUMP JUMPDEST JUMPDEST SWAP1 PUSH1 0x0 MSTORE PUSH1 0x20 PUSH1 0x0 KECCAK256 ADD DUP3 DUP2 SLOAD DUP2 LT PUSH2 0x357 JUMPI PUSH2 0x356 PUSH2 0xDF3 JUMP JUMPDEST JUMPDEST SWAP1 PUSH1 0x0 MSTORE PUSH1 0x20 PUSH1 0x0 KECCAK256 SWAP1 PUSH1 0x6 MUL ADD PUSH1 0x0 DUP3 ADD SLOAD DUP2 PUSH1 0x0 ADD SSTORE PUSH1 0x1 DUP3 ADD SLOAD DUP2 PUSH1 0x1 ADD SSTORE PUSH1 0x2 DUP3 ADD SLOAD DUP2 PUSH1 0x2 ADD SSTORE PUSH1 0x3 DUP3 ADD DUP2 PUSH1 0x3 ADD SWAP1 DUP1 SLOAD PUSH2 0x397 SWAP1 PUSH2 0xC8B JUMP JUMPDEST PUSH2 0x3A2 SWAP3 SWAP2 SWAP1 PUSH2 0x74F JUMP JUMPDEST POP PUSH1 0x4 DUP3 ADD DUP2 PUSH1 0x4 ADD SWAP1 DUP1 SLOAD PUSH2 0x3B7 SWAP1 PUSH2 0xC8B JUMP JUMPDEST PUSH2 0x3C2 SWAP3 SWAP2 SWAP1 PUSH2 0x74F JUMP JUMPDEST POP PUSH1 0x5 DUP3 ADD PUSH1 0x0 SWAP1 SLOAD SWAP1 PUSH2 0x100 EXP SWAP1 DIV PUSH1 0xFF AND DUP2 PUSH1 0x5 ADD PUSH1 0x0 PUSH2 0x100 EXP DUP2 SLOAD DUP2 PUSH1 0xFF MUL NOT AND SWAP1 DUP4 ISZERO ISZERO MUL OR SWAP1 SSTORE POP PUSH1 0x5 DUP3 ADD PUSH1 0x1 SWAP1 SLOAD SWAP1 PUSH2 0x100 EXP SWAP1 DIV PUSH1 0xFF AND DUP2 PUSH1 0x5 ADD PUSH1 0x1 PUSH2 0x100 EXP DUP2 SLOAD DUP2 PUSH1 0xFF MUL NOT AND SWAP1 DUP4 PUSH1 0x6 DUP2 GT ISZERO PUSH2 0x428 JUMPI PUSH2 0x427 PUSH2 0xD66 JUMP JUMPDEST JUMPDEST MUL OR SWAP1 SSTORE POP SWAP1 POP POP DUP1 DUP1 PUSH2 0x43B SWAP1 PUSH2 0xCEE JUMP JUMPDEST SWAP2 POP POP PUSH2 0x278 JUMP JUMPDEST POP PUSH1 0x0 DUP1 DUP5 DUP2 MSTORE PUSH1 0x20 ADD SWAP1 DUP2 MSTORE PUSH1 0x20 ADD PUSH1 0x0 KECCAK256 DUP3 DUP2 SLOAD DUP2 LT PUSH2 0x468 JUMPI PUSH2 0x467 PUSH2 0xDF3 JUMP JUMPDEST JUMPDEST SWAP1 PUSH1 0x0 MSTORE PUSH1 0x20 PUSH1 0x0 KECCAK256 ADD DUP1 SLOAD DUP1 PUSH2 0x482 JUMPI PUSH2 0x481 PUSH2 0xDC4 JUMP JUMPDEST JUMPDEST PUSH1 0x1 SWAP1 SUB DUP2 DUP2 SWAP1 PUSH1 0x0 MSTORE PUSH1 0x20 PUSH1 0x0 KECCAK256 SWAP1 PUSH1 0x6 MUL ADD PUSH1 0x0 DUP1 DUP3 ADD PUSH1 0x0 SWAP1 SSTORE PUSH1 0x1 DUP3 ADD PUSH1 0x0 SWAP1 SSTORE PUSH1 0x2 DUP3 ADD PUSH1 0x0 SWAP1 SSTORE PUSH1 0x3 DUP3 ADD PUSH1 0x0 PUSH2 0x4BF SWAP2 SWAP1 PUSH2 0x7DC JUMP JUMPDEST PUSH1 0x4 DUP3 ADD PUSH1 0x0 PUSH2 0x4CF SWAP2 SWAP1 PUSH2 0x7DC JUMP JUMPDEST PUSH1 0x5 DUP3 ADD PUSH1 0x0 PUSH2 0x100 EXP DUP2 SLOAD SWAP1 PUSH1 0xFF MUL NOT AND SWAP1 SSTORE PUSH1 0x5 DUP3 ADD PUSH1 0x1 PUSH2 0x100 EXP DUP2 SLOAD SWAP1 PUSH1 0xFF MUL NOT AND SWAP1 SSTORE POP POP SWAP1 SSTORE PUSH32 0x2B2605EE52ACE237F72E6005EEE79180EA3B6151BD8848A6BE5E3C224B8A6EC6 DUP4 DUP4 DUP4 PUSH1 0x40 MLOAD PUSH2 0x52E SWAP4 SWAP3 SWAP2 SWAP1 PUSH2 0xAAB JUMP JUMPDEST PUSH1 0x40 MLOAD DUP1 SWAP2 SUB SWAP1 LOG1 POP POP POP JUMP JUMPDEST PUSH1 0x0 PUSH1 0x40 MLOAD DUP1 PUSH1 0xE0 ADD PUSH1 0x40 MSTORE DUP1 DUP8 DUP2 MSTORE PUSH1 0x20 ADD DUP7 DUP2 MSTORE PUSH1 0x20 ADD DUP6 DUP2 MSTORE PUSH1 0x20 ADD DUP5 DUP2 MSTORE PUSH1 0x20 ADD DUP4 DUP2 MSTORE PUSH1 0x20 ADD PUSH1 0x1 ISZERO ISZERO DUP2 MSTORE PUSH1 0x20 ADD PUSH1 0x1 PUSH1 0x6 DUP2 GT ISZERO PUSH2 0x583 JUMPI PUSH2 0x582 PUSH2 0xD66 JUMP JUMPDEST JUMPDEST DUP2 MSTORE POP SWAP1 POP DUP1 PUSH1 0x0 DUP1 DUP9 DUP2 MSTORE PUSH1 0x20 ADD SWAP1 DUP2 MSTORE PUSH1 0x20 ADD PUSH1 0x0 KECCAK256 DUP7 DUP2 SLOAD DUP2 LT PUSH2 0x5AD JUMPI PUSH2 0x5AC PUSH2 0xDF3 JUMP JUMPDEST JUMPDEST SWAP1 PUSH1 0x0 MSTORE PUSH1 0x20 PUSH1 0x0 KECCAK256 ADD DUP6 DUP2 SLOAD DUP2 LT PUSH2 0x5C9 JUMPI PUSH2 0x5C8 PUSH2 0xDF3 JUMP JUMPDEST JUMPDEST SWAP1 PUSH1 0x0 MSTORE PUSH1 0x20 PUSH1 0x0 KECCAK256 SWAP1 PUSH1 0x6 MUL ADD PUSH1 0x0 DUP3 ADD MLOAD DUP2 PUSH1 0x0 ADD SSTORE PUSH1 0x20 DUP3 ADD MLOAD DUP2 PUSH1 0x1 ADD SSTORE PUSH1 0x40 DUP3 ADD MLOAD DUP2 PUSH1 0x2 ADD SSTORE PUSH1 0x60 DUP3 ADD MLOAD DUP2 PUSH1 0x3 ADD SWAP1 DUP1 MLOAD SWAP1 PUSH1 0x20 ADD SWAP1 PUSH2 0x611 SWAP3 SWAP2 SWAP1 PUSH2 0x6C9 JUMP JUMPDEST POP PUSH1 0x80 DUP3 ADD MLOAD DUP2 PUSH1 0x4 ADD SWAP1 DUP1 MLOAD SWAP1 PUSH1 0x20 ADD SWAP1 PUSH2 0x62E SWAP3 SWAP2 SWAP1 PUSH2 0x6C9 JUMP JUMPDEST POP PUSH1 0xA0 DUP3 ADD MLOAD DUP2 PUSH1 0x5 ADD PUSH1 0x0 PUSH2 0x100 EXP DUP2 SLOAD DUP2 PUSH1 0xFF MUL NOT AND SWAP1 DUP4 ISZERO ISZERO MUL OR SWAP1 SSTORE POP PUSH1 0xC0 DUP3 ADD MLOAD DUP2 PUSH1 0x5 ADD PUSH1 0x1 PUSH2 0x100 EXP DUP2 SLOAD DUP2 PUSH1 0xFF MUL NOT AND SWAP1 DUP4 PUSH1 0x6 DUP2 GT ISZERO PUSH2 0x67A JUMPI PUSH2 0x679 PUSH2 0xD66 JUMP JUMPDEST JUMPDEST MUL OR SWAP1 SSTORE POP SWAP1 POP POP PUSH32 0x8C0D6FF1212C3FBF79BBE6DC1E26CC40C4E137EC5711D4471B16FA121F933511 DUP7 DUP7 DUP7 DUP7 DUP7 PUSH1 0x40 MLOAD PUSH2 0x6B9 SWAP6 SWAP5 SWAP4 SWAP3 SWAP2 SWAP1 PUSH2 0xAE2 JUMP JUMPDEST PUSH1 0x40 MLOAD DUP1 SWAP2 SUB SWAP1 LOG1 POP POP POP POP POP POP JUMP JUMPDEST DUP3 DUP1 SLOAD PUSH2 0x6D5 SWAP1 PUSH2 0xC8B JUMP JUMPDEST SWAP1 PUSH1 0x0 MSTORE PUSH1 0x20 PUSH1 0x0 KECCAK256 SWAP1 PUSH1 0x1F ADD PUSH1 0x20 SWAP1 DIV DUP2 ADD SWAP3 DUP3 PUSH2 0x6F7 JUMPI PUSH1 0x0 DUP6 SSTORE PUSH2 0x73E JUMP JUMPDEST DUP3 PUSH1 0x1F LT PUSH2 0x710 JUMPI DUP1 MLOAD PUSH1 0xFF NOT AND DUP4 DUP1 ADD OR DUP6 SSTORE PUSH2 0x73E JUMP JUMPDEST DUP3 DUP1 ADD PUSH1 0x1 ADD DUP6 SSTORE DUP3 ISZERO PUSH2 0x73E JUMPI SWAP2 DUP3 ADD JUMPDEST DUP3 DUP2 GT ISZERO PUSH2 0x73D JUMPI DUP3 MLOAD DUP3 SSTORE SWAP2 PUSH1 0x20 ADD SWAP2 SWAP1 PUSH1 0x1 ADD SWAP1 PUSH2 0x722 JUMP JUMPDEST JUMPDEST POP SWAP1 POP PUSH2 0x74B SWAP2 SWAP1 PUSH2 0x81C JUMP JUMPDEST POP SWAP1 JUMP JUMPDEST DUP3 DUP1 SLOAD PUSH2 0x75B SWAP1 PUSH2 0xC8B JUMP JUMPDEST SWAP1 PUSH1 0x0 MSTORE PUSH1 0x20 PUSH1 0x0 KECCAK256 SWAP1 PUSH1 0x1F ADD PUSH1 0x20 SWAP1 DIV DUP2 ADD SWAP3 DUP3 PUSH2 0x77D JUMPI PUSH1 0x0 DUP6 SSTORE PUSH2 0x7CB JUMP JUMPDEST DUP3 PUSH1 0x1F LT PUSH2 0x78E JUMPI DUP1 SLOAD DUP6 SSTORE PUSH2 0x7CB JUMP JUMPDEST DUP3 DUP1 ADD PUSH1 0x1 ADD DUP6 SSTORE DUP3 ISZERO PUSH2 0x7CB JUMPI PUSH1 0x0 MSTORE PUSH1 0x20 PUSH1 0x0 KECCAK256 SWAP2 PUSH1 0x1F ADD PUSH1 0x20 SWAP1 DIV DUP3 ADD JUMPDEST DUP3 DUP2 GT ISZERO PUSH2 0x7CA JUMPI DUP3 SLOAD DUP3 SSTORE SWAP2 PUSH1 0x1 ADD SWAP2 SWAP1 PUSH1 0x1 ADD SWAP1 PUSH2 0x7AF JUMP JUMPDEST JUMPDEST POP SWAP1 POP PUSH2 0x7D8 SWAP2 SWAP1 PUSH2 0x81C JUMP JUMPDEST POP SWAP1 JUMP JUMPDEST POP DUP1 SLOAD PUSH2 0x7E8 SWAP1 PUSH2 0xC8B JUMP JUMPDEST PUSH1 0x0 DUP3 SSTORE DUP1 PUSH1 0x1F LT PUSH2 0x7FA JUMPI POP PUSH2 0x819 JUMP JUMPDEST PUSH1 0x1F ADD PUSH1 0x20 SWAP1 DIV SWAP1 PUSH1 0x0 MSTORE PUSH1 0x20 PUSH1 0x0 KECCAK256 SWAP1 DUP2 ADD SWAP1 PUSH2 0x818 SWAP2 SWAP1 PUSH2 0x81C JUMP JUMPDEST JUMPDEST POP JUMP JUMPDEST JUMPDEST DUP1 DUP3 GT ISZERO PUSH2 0x835 JUMPI PUSH1 0x0 DUP2 PUSH1 0x0 SWAP1 SSTORE POP PUSH1 0x1 ADD PUSH2 0x81D JUMP JUMPDEST POP SWAP1 JUMP JUMPDEST PUSH1 0x0 PUSH2 0x84C PUSH2 0x847 DUP5 PUSH2 0xB68 JUMP JUMPDEST PUSH2 0xB43 JUMP JUMPDEST SWAP1 POP DUP3 DUP2 MSTORE PUSH1 0x20 DUP2 ADD DUP5 DUP5 DUP5 ADD GT ISZERO PUSH2 0x868 JUMPI PUSH2 0x867 PUSH2 0xE56 JUMP JUMPDEST JUMPDEST PUSH2 0x873 DUP5 DUP3 DUP6 PUSH2 0xC49 JUMP JUMPDEST POP SWAP4 SWAP3 POP POP POP JUMP JUMPDEST PUSH1 0x0 DUP3 PUSH1 0x1F DUP4 ADD SLT PUSH2 0x890 JUMPI PUSH2 0x88F PUSH2 0xE51 JUMP JUMPDEST JUMPDEST DUP2 CALLDATALOAD PUSH2 0x8A0 DUP5 DUP3 PUSH1 0x20 DUP7 ADD PUSH2 0x839 JUMP JUMPDEST SWAP2 POP POP SWAP3 SWAP2 POP POP JUMP JUMPDEST PUSH1 0x0 DUP2 CALLDATALOAD SWAP1 POP PUSH2 0x8B8 DUP2 PUSH2 0xE76 JUMP JUMPDEST SWAP3 SWAP2 POP POP JUMP JUMPDEST PUSH1 0x0 DUP1 PUSH1 0x0 DUP1 PUSH1 0x80 DUP6 DUP8 SUB SLT ISZERO PUSH2 0x8D8 JUMPI PUSH2 0x8D7 PUSH2 0xE60 JUMP JUMPDEST JUMPDEST PUSH1 0x0 PUSH2 0x8E6 DUP8 DUP3 DUP9 ADD PUSH2 0x8A9 JUMP JUMPDEST SWAP5 POP POP PUSH1 0x20 PUSH2 0x8F7 DUP8 DUP3 DUP9 ADD PUSH2 0x8A9 JUMP JUMPDEST SWAP4 POP POP PUSH1 0x40 DUP6 ADD CALLDATALOAD PUSH8 0xFFFFFFFFFFFFFFFF DUP2 GT ISZERO PUSH2 0x918 JUMPI PUSH2 0x917 PUSH2 0xE5B JUMP JUMPDEST JUMPDEST PUSH2 0x924 DUP8 DUP3 DUP9 ADD PUSH2 0x87B JUMP JUMPDEST SWAP3 POP POP PUSH1 0x60 DUP6 ADD CALLDATALOAD PUSH8 0xFFFFFFFFFFFFFFFF DUP2 GT ISZERO PUSH2 0x945 JUMPI PUSH2 0x944 PUSH2 0xE5B JUMP JUMPDEST JUMPDEST PUSH2 0x951 DUP8 DUP3 DUP9 ADD PUSH2 0x87B JUMP JUMPDEST SWAP2 POP POP SWAP3 SWAP6 SWAP2 SWAP5 POP SWAP3 POP JUMP JUMPDEST PUSH1 0x0 DUP1 PUSH1 0x0 PUSH1 0x60 DUP5 DUP7 SUB SLT ISZERO PUSH2 0x976 JUMPI PUSH2 0x975 PUSH2 0xE60 JUMP JUMPDEST JUMPDEST PUSH1 0x0 PUSH2 0x984 DUP7 DUP3 DUP8 ADD PUSH2 0x8A9 JUMP JUMPDEST SWAP4 POP POP PUSH1 0x20 PUSH2 0x995 DUP7 DUP3 DUP8 ADD PUSH2 0x8A9 JUMP JUMPDEST SWAP3 POP POP PUSH1 0x40 PUSH2 0x9A6 DUP7 DUP3 DUP8 ADD PUSH2 0x8A9 JUMP JUMPDEST SWAP2 POP POP SWAP3 POP SWAP3 POP SWAP3 JUMP JUMPDEST PUSH1 0x0 DUP1 PUSH1 0x0 DUP1 PUSH1 0x0 PUSH1 0xA0 DUP7 DUP9 SUB SLT ISZERO PUSH2 0x9CC JUMPI PUSH2 0x9CB PUSH2 0xE60 JUMP JUMPDEST JUMPDEST PUSH1 0x0 PUSH2 0x9DA DUP9 DUP3 DUP10 ADD PUSH2 0x8A9 JUMP JUMPDEST SWAP6 POP POP PUSH1 0x20 PUSH2 0x9EB DUP9 DUP3 DUP10 ADD PUSH2 0x8A9 JUMP JUMPDEST SWAP5 POP POP PUSH1 0x40 PUSH2 0x9FC DUP9 DUP3 DUP10 ADD PUSH2 0x8A9 JUMP JUMPDEST SWAP4 POP POP PUSH1 0x60 DUP7 ADD CALLDATALOAD PUSH8 0xFFFFFFFFFFFFFFFF DUP2 GT ISZERO PUSH2 0xA1D JUMPI PUSH2 0xA1C PUSH2 0xE5B JUMP JUMPDEST JUMPDEST PUSH2 0xA29 DUP9 DUP3 DUP10 ADD PUSH2 0x87B JUMP JUMPDEST SWAP3 POP POP PUSH1 0x80 DUP7 ADD CALLDATALOAD PUSH8 0xFFFFFFFFFFFFFFFF DUP2 GT ISZERO PUSH2 0xA4A JUMPI PUSH2 0xA49 PUSH2 0xE5B JUMP JUMPDEST JUMPDEST PUSH2 0xA56 DUP9 DUP3 DUP10 ADD PUSH2 0x87B JUMP JUMPDEST SWAP2 POP POP SWAP3 SWAP6 POP SWAP3 SWAP6 SWAP1 SWAP4 POP JUMP JUMPDEST PUSH1 0x0 PUSH2 0xA6E DUP3 PUSH2 0xB99 JUMP JUMPDEST PUSH2 0xA78 DUP2 DUP6 PUSH2 0xBA4 JUMP JUMPDEST SWAP4 POP PUSH2 0xA88 DUP2 DUP6 PUSH1 0x20 DUP7 ADD PUSH2 0xC58 JUMP JUMPDEST PUSH2 0xA91 DUP2 PUSH2 0xE65 JUMP JUMPDEST DUP5 ADD SWAP2 POP POP SWAP3 SWAP2 POP POP JUMP JUMPDEST PUSH2 0xAA5 DUP2 PUSH2 0xC3F JUMP JUMPDEST DUP3 MSTORE POP POP JUMP JUMPDEST PUSH1 0x0 PUSH1 0x60 DUP3 ADD SWAP1 POP PUSH2 0xAC0 PUSH1 0x0 DUP4 ADD DUP7 PUSH2 0xA9C JUMP JUMPDEST PUSH2 0xACD PUSH1 0x20 DUP4 ADD DUP6 PUSH2 0xA9C JUMP JUMPDEST PUSH2 0xADA PUSH1 0x40 DUP4 ADD DUP5 PUSH2 0xA9C JUMP JUMPDEST SWAP5 SWAP4 POP POP POP POP JUMP JUMPDEST PUSH1 0x0 PUSH1 0xA0 DUP3 ADD SWAP1 POP PUSH2 0xAF7 PUSH1 0x0 DUP4 ADD DUP9 PUSH2 0xA9C JUMP JUMPDEST PUSH2 0xB04 PUSH1 0x20 DUP4 ADD DUP8 PUSH2 0xA9C JUMP JUMPDEST PUSH2 0xB11 PUSH1 0x40 DUP4 ADD DUP7 PUSH2 0xA9C JUMP JUMPDEST DUP2 DUP2 SUB PUSH1 0x60 DUP4 ADD MSTORE PUSH2 0xB23 DUP2 DUP6 PUSH2 0xA63 JUMP JUMPDEST SWAP1 POP DUP2 DUP2 SUB PUSH1 0x80 DUP4 ADD MSTORE PUSH2 0xB37 DUP2 DUP5 PUSH2 0xA63 JUMP JUMPDEST SWAP1 POP SWAP7 SWAP6 POP POP POP POP POP POP JUMP JUMPDEST PUSH1 0x0 PUSH2 0xB4D PUSH2 0xB5E JUMP JUMPDEST SWAP1 POP PUSH2 0xB59 DUP3 DUP3 PUSH2 0xCBD JUMP JUMPDEST SWAP2 SWAP1 POP JUMP JUMPDEST PUSH1 0x0 PUSH1 0x40 MLOAD SWAP1 POP SWAP1 JUMP JUMPDEST PUSH1 0x0 PUSH8 0xFFFFFFFFFFFFFFFF DUP3 GT ISZERO PUSH2 0xB83 JUMPI PUSH2 0xB82 PUSH2 0xE22 JUMP JUMPDEST JUMPDEST PUSH2 0xB8C DUP3 PUSH2 0xE65 JUMP JUMPDEST SWAP1 POP PUSH1 0x20 DUP2 ADD SWAP1 POP SWAP2 SWAP1 POP JUMP JUMPDEST PUSH1 0x0 DUP2 MLOAD SWAP1 POP SWAP2 SWAP1 POP JUMP JUMPDEST PUSH1 0x0 DUP3 DUP3 MSTORE PUSH1 0x20 DUP3 ADD SWAP1 POP SWAP3 SWAP2 POP POP JUMP JUMPDEST PUSH1 0x0 PUSH2 0xBC0 DUP3 PUSH2 0xC3F JUMP JUMPDEST SWAP2 POP PUSH2 0xBCB DUP4 PUSH2 0xC3F JUMP JUMPDEST SWAP3 POP DUP3 PUSH32 0xFFFFFFFFFFFFFFFFFFFFFFFFFFFFFFFFFFFFFFFFFFFFFFFFFFFFFFFFFFFFFFFF SUB DUP3 GT ISZERO PUSH2 0xC00 JUMPI PUSH2 0xBFF PUSH2 0xD37 JUMP JUMPDEST JUMPDEST DUP3 DUP3 ADD SWAP1 POP SWAP3 SWAP2 POP POP JUMP JUMPDEST PUSH1 0x0 PUSH2 0xC16 DUP3 PUSH2 0xC3F JUMP JUMPDEST SWAP2 POP PUSH2 0xC21 DUP4 PUSH2 0xC3F JUMP JUMPDEST SWAP3 POP DUP3 DUP3 LT ISZERO PUSH2 0xC34 JUMPI PUSH2 0xC33 PUSH2 0xD37 JUMP JUMPDEST JUMPDEST DUP3 DUP3 SUB SWAP1 POP SWAP3 SWAP2 POP POP JUMP JUMPDEST PUSH1 0x0 DUP2 SWAP1 POP SWAP2 SWAP1 POP JUMP JUMPDEST DUP3 DUP2 DUP4 CALLDATACOPY PUSH1 0x0 DUP4 DUP4 ADD MSTORE POP POP POP JUMP JUMPDEST PUSH1 0x0 JUMPDEST DUP4 DUP2 LT ISZERO PUSH2 0xC76 JUMPI DUP1 DUP3 ADD MLOAD DUP2 DUP5 ADD MSTORE PUSH1 0x20 DUP2 ADD SWAP1 POP PUSH2 0xC5B JUMP JUMPDEST DUP4 DUP2 GT ISZERO PUSH2 0xC85 JUMPI PUSH1 0x0 DUP5 DUP5 ADD MSTORE JUMPDEST POP POP POP POP JUMP JUMPDEST PUSH1 0x0 PUSH1 0x2 DUP3 DIV SWAP1 POP PUSH1 0x1 DUP3 AND DUP1 PUSH2 0xCA3 JUMPI PUSH1 0x7F DUP3 AND SWAP2 POP JUMPDEST PUSH1 0x20 DUP3 LT DUP2 EQ ISZERO PUSH2 0xCB7 JUMPI PUSH2 0xCB6 PUSH2 0xD95 JUMP JUMPDEST JUMPDEST POP SWAP2 SWAP1 POP JUMP JUMPDEST PUSH2 0xCC6 DUP3 PUSH2 0xE65 JUMP JUMPDEST DUP2 ADD DUP2 DUP2 LT PUSH8 0xFFFFFFFFFFFFFFFF DUP3 GT OR ISZERO PUSH2 0xCE5 JUMPI PUSH2 0xCE4 PUSH2 0xE22 JUMP JUMPDEST JUMPDEST DUP1 PUSH1 0x40 MSTORE POP POP POP JUMP JUMPDEST PUSH1 0x0 PUSH2 0xCF9 DUP3 PUSH2 0xC3F JUMP JUMPDEST SWAP2 POP PUSH32 0xFFFFFFFFFFFFFFFFFFFFFFFFFFFFFFFFFFFFFFFFFFFFFFFFFFFFFFFFFFFFFFFF DUP3 EQ ISZERO PUSH2 0xD2C JUMPI PUSH2 0xD2B PUSH2 0xD37 JUMP JUMPDEST JUMPDEST PUSH1 0x1 DUP3 ADD SWAP1 POP SWAP2 SWAP1 POP JUMP JUMPDEST PUSH32 0x4E487B7100000000000000000000000000000000000000000000000000000000 PUSH1 0x0 MSTORE PUSH1 0x11 PUSH1 0x4 MSTORE PUSH1 0x24 PUSH1 0x0 REVERT JUMPDEST PUSH32 0x4E487B7100000000000000000000000000000000000000000000000000000000 PUSH1 0x0 MSTORE PUSH1 0x21 PUSH1 0x4 MSTORE PUSH1 0x24 PUSH1 0x0 REVERT JUMPDEST PUSH32 0x4E487B7100000000000000000000000000000000000000000000000000000000 PUSH1 0x0 MSTORE PUSH1 0x22 PUSH1 0x4 MSTORE PUSH1 0x24 PUSH1 0x0 REVERT JUMPDEST PUSH32 0x4E487B7100000000000000000000000000000000000000000000000000000000 PUSH1 0x0 MSTORE PUSH1 0x31 PUSH1 0x4 MSTORE PUSH1 0x24 PUSH1 0x0 REVERT JUMPDEST PUSH32 0x4E487B7100000000000000000000000000000000000000000000000000000000 PUSH1 0x0 MSTORE PUSH1 0x32 PUSH1 0x4 MSTORE PUSH1 0x24 PUSH1 0x0 REVERT JUMPDEST PUSH32 0x4E487B7100000000000000000000000000000000000000000000000000000000 PUSH1 0x0 MSTORE PUSH1 0x41 PUSH1 0x4 MSTORE PUSH1 0x24 PUSH1 0x0 REVERT JUMPDEST PUSH1 0x0 DUP1 REVERT JUMPDEST PUSH1 0x0 DUP1 REVERT JUMPDEST PUSH1 0x0 DUP1 REVERT JUMPDEST PUSH1 0x0 DUP1 REVERT JUMPDEST PUSH1 0x0 PUSH1 0x1F NOT PUSH1 0x1F DUP4 ADD AND SWAP1 POP SWAP2 SWAP1 POP JUMP JUMPDEST PUSH2 0xE7F DUP2 PUSH2 0xC3F JUMP JUMPDEST DUP2 EQ PUSH2 0xE8A JUMPI PUSH1 0x0 DUP1 REVERT JUMPDEST POP JUMP INVALID LOG2 PUSH5 0x6970667358 0x22 SLT KECCAK256 CALLVALUE 0xA6 0xCF 0x26 0xC6 0x4A SWAP11 0xEF SWAP13 MSIZE 0x23 ADD 0xC9 PUSH29 0x87FB7BCD26A95350F873F732C507C149479F64736F6C63430008070033 "
				},
				"gasEstimates": {
					"creation": {
						"codeDepositCost": "755800",
						"executionCost": "792",
						"totalCost": "756592"
					},
					"external": {
						"createMilestone(uint256,uint256,string,string)": "infinite",
						"deleteMilestone(uint256,uint256,uint256)": "infinite",
						"updateMilestone(uint256,uint256,uint256,string,string)": "infinite"
					}
				},
				"methodIdentifiers": {
					"createMilestone(uint256,uint256,string,string)": "63ef8a50",
					"deleteMilestone(uint256,uint256,uint256)": "b9b6c5d4",
					"updateMilestone(uint256,uint256,uint256,string,string)": "fd23c4bb"
				}
			},
			"userdoc": {
				"kind": "user",
				"methods": {},
				"version": 1
			}
		}
	}
}