{
	"contracts/Profile.sol": {
		"Profile": {
			"abi": [
				{
					"anonymous": false,
					"inputs": [
						{
							"indexed": false,
							"internalType": "bool",
							"name": "successful",
							"type": "bool"
						}
					],
					"name": "serviceCreated",
					"type": "event"
				},
				{
					"inputs": [],
					"name": "checkValidProfile",
					"outputs": [
						{
							"internalType": "bool",
							"name": "",
							"type": "bool"
						}
					],
					"stateMutability": "view",
					"type": "function"
				},
				{
					"inputs": [
						{
							"internalType": "string",
							"name": "name",
							"type": "string"
						},
						{
							"internalType": "string",
							"name": "username",
							"type": "string"
						},
						{
							"internalType": "string",
							"name": "password",
							"type": "string"
						}
					],
					"name": "createProfile",
					"outputs": [],
					"stateMutability": "nonpayable",
					"type": "function"
				},
				{
					"inputs": [],
					"name": "deleteProfile",
					"outputs": [],
					"stateMutability": "nonpayable",
					"type": "function"
				},
				{
					"inputs": [],
					"name": "getName",
					"outputs": [
						{
							"internalType": "string",
							"name": "",
							"type": "string"
						}
					],
					"stateMutability": "view",
					"type": "function"
				},
				{
					"inputs": [],
					"name": "numProfile",
					"outputs": [
						{
							"internalType": "uint256",
							"name": "",
							"type": "uint256"
						}
					],
					"stateMutability": "view",
					"type": "function"
				},
				{
					"inputs": [
						{
							"internalType": "string",
							"name": "newName",
							"type": "string"
						}
					],
					"name": "updateProfileName",
					"outputs": [],
					"stateMutability": "nonpayable",
					"type": "function"
				}
			],
			"devdoc": {
				"kind": "dev",
				"methods": {},
				"version": 1
			},
			"evm": {
				"assembly": "    /* \"contracts/Profile.sol\":124:2019  contract Profile {... */\n  mstore(0x40, 0x80)\n    /* \"contracts/Profile.sol\":850:851  0 */\n  0x00\n    /* \"contracts/Profile.sol\":822:851  uint256 public numProfile = 0 */\n  0x03\n  sstore\n    /* \"contracts/Profile.sol\":124:2019  contract Profile {... */\n  callvalue\n  dup1\n  iszero\n  tag_1\n  jumpi\n  0x00\n  dup1\n  revert\ntag_1:\n  pop\n  dataSize(sub_0)\n  dup1\n  dataOffset(sub_0)\n  0x00\n  codecopy\n  0x00\n  return\nstop\n\nsub_0: assembly {\n        /* \"contracts/Profile.sol\":124:2019  contract Profile {... */\n      mstore(0x40, 0x80)\n      callvalue\n      dup1\n      iszero\n      tag_1\n      jumpi\n      0x00\n      dup1\n      revert\n    tag_1:\n      pop\n      jumpi(tag_2, lt(calldatasize, 0x04))\n      shr(0xe0, calldataload(0x00))\n      dup1\n      0x16913469\n      eq\n      tag_3\n      jumpi\n      dup1\n      0x17d7de7c\n      eq\n      tag_4\n      jumpi\n      dup1\n      0x3ae7dc1a\n      eq\n      tag_5\n      jumpi\n      dup1\n      0x6d4540eb\n      eq\n      tag_6\n      jumpi\n      dup1\n      0x9841c82c\n      eq\n      tag_7\n      jumpi\n      dup1\n      0xee8b7cd9\n      eq\n      tag_8\n      jumpi\n    tag_2:\n      0x00\n      dup1\n      revert\n        /* \"contracts/Profile.sol\":822:851  uint256 public numProfile = 0 */\n    tag_3:\n      tag_9\n      tag_10\n      jump\t// in\n    tag_9:\n      mload(0x40)\n      tag_11\n      swap2\n      swap1\n      tag_12\n      jump\t// in\n    tag_11:\n      mload(0x40)\n      dup1\n      swap2\n      sub\n      swap1\n      return\n        /* \"contracts/Profile.sol\":1706:1831  function getName() external validProfile() view returns ( string memory) {... */\n    tag_4:\n      tag_13\n      tag_14\n      jump\t// in\n    tag_13:\n      mload(0x40)\n      tag_15\n      swap2\n      swap1\n      tag_16\n      jump\t// in\n    tag_15:\n      mload(0x40)\n      dup1\n      swap2\n      sub\n      swap1\n      return\n        /* \"contracts/Profile.sol\":1890:2016  function checkValidProfile() public view returns (bool) {... */\n    tag_5:\n      tag_17\n      tag_18\n      jump\t// in\n    tag_17:\n      mload(0x40)\n      tag_19\n      swap2\n      swap1\n      tag_20\n      jump\t// in\n    tag_19:\n      mload(0x40)\n      dup1\n      swap2\n      sub\n      swap1\n      return\n        /* \"contracts/Profile.sol\":1270:1375  function deleteProfile() external {... */\n    tag_6:\n      tag_21\n      tag_22\n      jump\t// in\n    tag_21:\n      stop\n        /* \"contracts/Profile.sol\":949:1223  function createProfile(string memory name, string memory username, string memory password) external {... */\n    tag_7:\n      tag_23\n      0x04\n      dup1\n      calldatasize\n      sub\n      dup2\n      add\n      swap1\n      tag_24\n      swap2\n      swap1\n      tag_25\n      jump\t// in\n    tag_24:\n      tag_26\n      jump\t// in\n    tag_23:\n      stop\n        /* \"contracts/Profile.sol\":1422:1537  function updateProfileName(string memory newName) external {... */\n    tag_8:\n      tag_27\n      0x04\n      dup1\n      calldatasize\n      sub\n      dup2\n      add\n      swap1\n      tag_28\n      swap2\n      swap1\n      tag_29\n      jump\t// in\n    tag_28:\n      tag_30\n      jump\t// in\n    tag_27:\n      stop\n        /* \"contracts/Profile.sol\":822:851  uint256 public numProfile = 0 */\n    tag_10:\n      sload(0x03)\n      dup2\n      jump\t// out\n        /* \"contracts/Profile.sol\":1706:1831  function getName() external validProfile() view returns ( string memory) {... */\n    tag_14:\n        /* \"contracts/Profile.sol\":1764:1777  string memory */\n      0x60\n        /* \"contracts/Profile.sol\":1620:1624  true */\n      0x01\n        /* \"contracts/Profile.sol\":1585:1624  profileList[msg.sender].created == true */\n      iszero\n      iszero\n        /* \"contracts/Profile.sol\":1585:1596  profileList */\n      0x00\n        /* \"contracts/Profile.sol\":1585:1608  profileList[msg.sender] */\n      dup1\n        /* \"contracts/Profile.sol\":1597:1607  msg.sender */\n      caller\n        /* \"contracts/Profile.sol\":1585:1608  profileList[msg.sender] */\n      0xffffffffffffffffffffffffffffffffffffffff\n      and\n      0xffffffffffffffffffffffffffffffffffffffff\n      and\n      dup2\n      mstore\n      0x20\n      add\n      swap1\n      dup2\n      mstore\n      0x20\n      add\n      0x00\n      keccak256\n        /* \"contracts/Profile.sol\":1585:1616  profileList[msg.sender].created */\n      0x03\n      add\n      0x14\n      swap1\n      sload\n      swap1\n      0x0100\n      exp\n      swap1\n      div\n      0xff\n      and\n        /* \"contracts/Profile.sol\":1585:1624  profileList[msg.sender].created == true */\n      iszero\n      iszero\n      eq\n        /* \"contracts/Profile.sol\":1577:1625  require(profileList[msg.sender].created == true) */\n      tag_32\n      jumpi\n      0x00\n      dup1\n      revert\n    tag_32:\n        /* \"contracts/Profile.sol\":1796:1807  profileList */\n      0x00\n        /* \"contracts/Profile.sol\":1796:1819  profileList[msg.sender] */\n      dup1\n        /* \"contracts/Profile.sol\":1808:1818  msg.sender */\n      caller\n        /* \"contracts/Profile.sol\":1796:1819  profileList[msg.sender] */\n      0xffffffffffffffffffffffffffffffffffffffff\n      and\n      0xffffffffffffffffffffffffffffffffffffffff\n      and\n      dup2\n      mstore\n      0x20\n      add\n      swap1\n      dup2\n      mstore\n      0x20\n      add\n      0x00\n      keccak256\n        /* \"contracts/Profile.sol\":1796:1824  profileList[msg.sender].name */\n      0x00\n      add\n        /* \"contracts/Profile.sol\":1789:1824  return profileList[msg.sender].name */\n      dup1\n      sload\n      tag_34\n      swap1\n      tag_35\n      jump\t// in\n    tag_34:\n      dup1\n      0x1f\n      add\n      0x20\n      dup1\n      swap2\n      div\n      mul\n      0x20\n      add\n      mload(0x40)\n      swap1\n      dup2\n      add\n      0x40\n      mstore\n      dup1\n      swap3\n      swap2\n      swap1\n      dup2\n      dup2\n      mstore\n      0x20\n      add\n      dup3\n      dup1\n      sload\n      tag_36\n      swap1\n      tag_35\n      jump\t// in\n    tag_36:\n      dup1\n      iszero\n      tag_37\n      jumpi\n      dup1\n      0x1f\n      lt\n      tag_38\n      jumpi\n      0x0100\n      dup1\n      dup4\n      sload\n      div\n      mul\n      dup4\n      mstore\n      swap2\n      0x20\n      add\n      swap2\n      jump(tag_37)\n    tag_38:\n      dup3\n      add\n      swap2\n      swap1\n      0x00\n      mstore\n      keccak256(0x00, 0x20)\n      swap1\n    tag_39:\n      dup2\n      sload\n      dup2\n      mstore\n      swap1\n      0x01\n      add\n      swap1\n      0x20\n      add\n      dup1\n      dup4\n      gt\n      tag_39\n      jumpi\n      dup3\n      swap1\n      sub\n      0x1f\n      and\n      dup3\n      add\n      swap2\n    tag_37:\n      pop\n      pop\n      pop\n      pop\n      pop\n      swap1\n      pop\n        /* \"contracts/Profile.sol\":1706:1831  function getName() external validProfile() view returns ( string memory) {... */\n      swap1\n      jump\t// out\n        /* \"contracts/Profile.sol\":1890:2016  function checkValidProfile() public view returns (bool) {... */\n    tag_18:\n        /* \"contracts/Profile.sol\":1940:1944  bool */\n      0x00\n        /* \"contracts/Profile.sol\":1963:1974  profileList */\n      dup1\n        /* \"contracts/Profile.sol\":1963:1986  profileList[msg.sender] */\n      0x00\n        /* \"contracts/Profile.sol\":1975:1985  msg.sender */\n      caller\n        /* \"contracts/Profile.sol\":1963:1986  profileList[msg.sender] */\n      0xffffffffffffffffffffffffffffffffffffffff\n      and\n      0xffffffffffffffffffffffffffffffffffffffff\n      and\n      dup2\n      mstore\n      0x20\n      add\n      swap1\n      dup2\n      mstore\n      0x20\n      add\n      0x00\n      keccak256\n        /* \"contracts/Profile.sol\":1963:1994  profileList[msg.sender].created */\n      0x03\n      add\n      0x14\n      swap1\n      sload\n      swap1\n      0x0100\n      exp\n      swap1\n      div\n      0xff\n      and\n        /* \"contracts/Profile.sol\":1963:2009  profileList[msg.sender].created ? true : false */\n      tag_41\n      jumpi\n        /* \"contracts/Profile.sol\":2004:2009  false */\n      0x00\n        /* \"contracts/Profile.sol\":1963:2009  profileList[msg.sender].created ? true : false */\n      jump(tag_42)\n    tag_41:\n        /* \"contracts/Profile.sol\":1997:2001  true */\n      0x01\n        /* \"contracts/Profile.sol\":1963:2009  profileList[msg.sender].created ? true : false */\n    tag_42:\n        /* \"contracts/Profile.sol\":1956:2009  return profileList[msg.sender].created ? true : false */\n      swap1\n      pop\n        /* \"contracts/Profile.sol\":1890:2016  function checkValidProfile() public view returns (bool) {... */\n      swap1\n      jump\t// out\n        /* \"contracts/Profile.sol\":1270:1375  function deleteProfile() external {... */\n    tag_22:\n        /* \"contracts/Profile.sol\":1348:1353  false */\n      0x00\n        /* \"contracts/Profile.sol\":1314:1325  profileList */\n      dup1\n        /* \"contracts/Profile.sol\":1314:1337  profileList[msg.sender] */\n      0x00\n        /* \"contracts/Profile.sol\":1326:1336  msg.sender */\n      caller\n        /* \"contracts/Profile.sol\":1314:1337  profileList[msg.sender] */\n      0xffffffffffffffffffffffffffffffffffffffff\n      and\n      0xffffffffffffffffffffffffffffffffffffffff\n      and\n      dup2\n      mstore\n      0x20\n      add\n      swap1\n      dup2\n      mstore\n      0x20\n      add\n      0x00\n      keccak256\n        /* \"contracts/Profile.sol\":1314:1345  profileList[msg.sender].created */\n      0x03\n      add\n      0x14\n        /* \"contracts/Profile.sol\":1314:1353  profileList[msg.sender].created = false */\n      0x0100\n      exp\n      dup2\n      sload\n      dup2\n      0xff\n      mul\n      not\n      and\n      swap1\n      dup4\n      iszero\n      iszero\n      mul\n      or\n      swap1\n      sstore\n      pop\n        /* \"contracts/Profile.sol\":1270:1375  function deleteProfile() external {... */\n      jump\t// out\n        /* \"contracts/Profile.sol\":949:1223  function createProfile(string memory name, string memory username, string memory password) external {... */\n    tag_26:\n        /* \"contracts/Profile.sol\":1059:1084  profile memory newProfile */\n      0x00\n        /* \"contracts/Profile.sol\":1087:1134  profile(name,username,password,msg.sender,true) */\n      mload(0x40)\n      dup1\n      0xa0\n      add\n      0x40\n      mstore\n      dup1\n        /* \"contracts/Profile.sol\":1095:1099  name */\n      dup6\n        /* \"contracts/Profile.sol\":1087:1134  profile(name,username,password,msg.sender,true) */\n      dup2\n      mstore\n      0x20\n      add\n        /* \"contracts/Profile.sol\":1100:1108  username */\n      dup5\n        /* \"contracts/Profile.sol\":1087:1134  profile(name,username,password,msg.sender,true) */\n      dup2\n      mstore\n      0x20\n      add\n        /* \"contracts/Profile.sol\":1109:1117  password */\n      dup4\n        /* \"contracts/Profile.sol\":1087:1134  profile(name,username,password,msg.sender,true) */\n      dup2\n      mstore\n      0x20\n      add\n        /* \"contracts/Profile.sol\":1118:1128  msg.sender */\n      caller\n        /* \"contracts/Profile.sol\":1087:1134  profile(name,username,password,msg.sender,true) */\n      0xffffffffffffffffffffffffffffffffffffffff\n      and\n      dup2\n      mstore\n      0x20\n      add\n        /* \"contracts/Profile.sol\":1129:1133  true */\n      0x01\n        /* \"contracts/Profile.sol\":1087:1134  profile(name,username,password,msg.sender,true) */\n      iszero\n      iszero\n      dup2\n      mstore\n      pop\n        /* \"contracts/Profile.sol\":1059:1134  profile memory newProfile = profile(name,username,password,msg.sender,true) */\n      swap1\n      pop\n        /* \"contracts/Profile.sol\":1170:1180  newProfile */\n      dup1\n        /* \"contracts/Profile.sol\":1144:1155  profileList */\n      0x00\n        /* \"contracts/Profile.sol\":1144:1167  profileList[msg.sender] */\n      dup1\n        /* \"contracts/Profile.sol\":1156:1166  msg.sender */\n      caller\n        /* \"contracts/Profile.sol\":1144:1167  profileList[msg.sender] */\n      0xffffffffffffffffffffffffffffffffffffffff\n      and\n      0xffffffffffffffffffffffffffffffffffffffff\n      and\n      dup2\n      mstore\n      0x20\n      add\n      swap1\n      dup2\n      mstore\n      0x20\n      add\n      0x00\n      keccak256\n        /* \"contracts/Profile.sol\":1144:1180  profileList[msg.sender] = newProfile */\n      0x00\n      dup3\n      add\n      mload\n      dup2\n      0x00\n      add\n      swap1\n      dup1\n      mload\n      swap1\n      0x20\n      add\n      swap1\n      tag_45\n      swap3\n      swap2\n      swap1\n      tag_46\n      jump\t// in\n    tag_45:\n      pop\n      0x20\n      dup3\n      add\n      mload\n      dup2\n      0x01\n      add\n      swap1\n      dup1\n      mload\n      swap1\n      0x20\n      add\n      swap1\n      tag_47\n      swap3\n      swap2\n      swap1\n      tag_46\n      jump\t// in\n    tag_47:\n      pop\n      0x40\n      dup3\n      add\n      mload\n      dup2\n      0x02\n      add\n      swap1\n      dup1\n      mload\n      swap1\n      0x20\n      add\n      swap1\n      tag_48\n      swap3\n      swap2\n      swap1\n      tag_46\n      jump\t// in\n    tag_48:\n      pop\n      0x60\n      dup3\n      add\n      mload\n      dup2\n      0x03\n      add\n      exp(0x0100, 0x00)\n      dup2\n      sload\n      dup2\n      0xffffffffffffffffffffffffffffffffffffffff\n      mul\n      not\n      and\n      swap1\n      dup4\n      0xffffffffffffffffffffffffffffffffffffffff\n      and\n      mul\n      or\n      swap1\n      sstore\n      pop\n      0x80\n      dup3\n      add\n      mload\n      dup2\n      0x03\n      add\n      exp(0x0100, 0x14)\n      dup2\n      sload\n      dup2\n      0xff\n      mul\n      not\n      and\n      swap1\n      dup4\n      iszero\n      iszero\n      mul\n      or\n      swap1\n      sstore\n      pop\n      swap1\n      pop\n      pop\n        /* \"contracts/Profile.sol\":1203:1213  numProfile */\n      0x03\n      0x00\n        /* \"contracts/Profile.sol\":1203:1216  numProfile ++ */\n      dup2\n      sload\n      dup1\n      swap3\n      swap2\n      swap1\n      tag_49\n      swap1\n      tag_50\n      jump\t// in\n    tag_49:\n      swap2\n      swap1\n      pop\n      sstore\n        /* \"contracts/Profile.sol\":1190:1200  numProfile */\n      0x03\n        /* \"contracts/Profile.sol\":1190:1216  numProfile = numProfile ++ */\n      dup2\n      swap1\n      sstore\n      pop\n        /* \"contracts/Profile.sol\":1049:1223  {... */\n      pop\n        /* \"contracts/Profile.sol\":949:1223  function createProfile(string memory name, string memory username, string memory password) external {... */\n      pop\n      pop\n      pop\n      jump\t// out\n        /* \"contracts/Profile.sol\":1422:1537  function updateProfileName(string memory newName) external {... */\n    tag_30:\n        /* \"contracts/Profile.sol\":1522:1529  newName */\n      dup1\n        /* \"contracts/Profile.sol\":1491:1502  profileList */\n      0x00\n        /* \"contracts/Profile.sol\":1491:1514  profileList[msg.sender] */\n      dup1\n        /* \"contracts/Profile.sol\":1503:1513  msg.sender */\n      caller\n        /* \"contracts/Profile.sol\":1491:1514  profileList[msg.sender] */\n      0xffffffffffffffffffffffffffffffffffffffff\n      and\n      0xffffffffffffffffffffffffffffffffffffffff\n      and\n      dup2\n      mstore\n      0x20\n      add\n      swap1\n      dup2\n      mstore\n      0x20\n      add\n      0x00\n      keccak256\n        /* \"contracts/Profile.sol\":1491:1519  profileList[msg.sender].name */\n      0x00\n      add\n        /* \"contracts/Profile.sol\":1491:1529  profileList[msg.sender].name = newName */\n      swap1\n      dup1\n      mload\n      swap1\n      0x20\n      add\n      swap1\n      tag_52\n      swap3\n      swap2\n      swap1\n      tag_46\n      jump\t// in\n    tag_52:\n      pop\n        /* \"contracts/Profile.sol\":1422:1537  function updateProfileName(string memory newName) external {... */\n      pop\n      jump\t// out\n    tag_46:\n      dup3\n      dup1\n      sload\n      tag_53\n      swap1\n      tag_35\n      jump\t// in\n    tag_53:\n      swap1\n      0x00\n      mstore\n      keccak256(0x00, 0x20)\n      swap1\n      0x1f\n      add\n      0x20\n      swap1\n      div\n      dup2\n      add\n      swap3\n      dup3\n      tag_55\n      jumpi\n      0x00\n      dup6\n      sstore\n      jump(tag_54)\n    tag_55:\n      dup3\n      0x1f\n      lt\n      tag_56\n      jumpi\n      dup1\n      mload\n      not(0xff)\n      and\n      dup4\n      dup1\n      add\n      or\n      dup6\n      sstore\n      jump(tag_54)\n    tag_56:\n      dup3\n      dup1\n      add\n      0x01\n      add\n      dup6\n      sstore\n      dup3\n      iszero\n      tag_54\n      jumpi\n      swap2\n      dup3\n      add\n    tag_57:\n      dup3\n      dup2\n      gt\n      iszero\n      tag_58\n      jumpi\n      dup3\n      mload\n      dup3\n      sstore\n      swap2\n      0x20\n      add\n      swap2\n      swap1\n      0x01\n      add\n      swap1\n      jump(tag_57)\n    tag_58:\n    tag_54:\n      pop\n      swap1\n      pop\n      tag_59\n      swap2\n      swap1\n      tag_60\n      jump\t// in\n    tag_59:\n      pop\n      swap1\n      jump\t// out\n    tag_60:\n    tag_61:\n      dup1\n      dup3\n      gt\n      iszero\n      tag_62\n      jumpi\n      0x00\n      dup2\n      0x00\n      swap1\n      sstore\n      pop\n      0x01\n      add\n      jump(tag_61)\n    tag_62:\n      pop\n      swap1\n      jump\t// out\n        /* \"#utility.yul\":7:419   */\n    tag_64:\n        /* \"#utility.yul\":85:90   */\n      0x00\n        /* \"#utility.yul\":110:176   */\n      tag_66\n        /* \"#utility.yul\":126:175   */\n      tag_67\n        /* \"#utility.yul\":168:174   */\n      dup5\n        /* \"#utility.yul\":126:175   */\n      tag_68\n      jump\t// in\n    tag_67:\n        /* \"#utility.yul\":110:176   */\n      tag_69\n      jump\t// in\n    tag_66:\n        /* \"#utility.yul\":101:176   */\n      swap1\n      pop\n        /* \"#utility.yul\":199:205   */\n      dup3\n        /* \"#utility.yul\":192:197   */\n      dup2\n        /* \"#utility.yul\":185:206   */\n      mstore\n        /* \"#utility.yul\":237:241   */\n      0x20\n        /* \"#utility.yul\":230:235   */\n      dup2\n        /* \"#utility.yul\":226:242   */\n      add\n        /* \"#utility.yul\":275:278   */\n      dup5\n        /* \"#utility.yul\":266:272   */\n      dup5\n        /* \"#utility.yul\":261:264   */\n      dup5\n        /* \"#utility.yul\":257:273   */\n      add\n        /* \"#utility.yul\":254:279   */\n      gt\n        /* \"#utility.yul\":251:363   */\n      iszero\n      tag_70\n      jumpi\n        /* \"#utility.yul\":282:361   */\n      tag_71\n      tag_72\n      jump\t// in\n    tag_71:\n        /* \"#utility.yul\":251:363   */\n    tag_70:\n        /* \"#utility.yul\":372:413   */\n      tag_73\n        /* \"#utility.yul\":406:412   */\n      dup5\n        /* \"#utility.yul\":401:404   */\n      dup3\n        /* \"#utility.yul\":396:399   */\n      dup6\n        /* \"#utility.yul\":372:413   */\n      tag_74\n      jump\t// in\n    tag_73:\n        /* \"#utility.yul\":91:419   */\n      pop\n        /* \"#utility.yul\":7:419   */\n      swap4\n      swap3\n      pop\n      pop\n      pop\n      jump\t// out\n        /* \"#utility.yul\":439:779   */\n    tag_75:\n        /* \"#utility.yul\":495:500   */\n      0x00\n        /* \"#utility.yul\":544:547   */\n      dup3\n        /* \"#utility.yul\":537:541   */\n      0x1f\n        /* \"#utility.yul\":529:535   */\n      dup4\n        /* \"#utility.yul\":525:542   */\n      add\n        /* \"#utility.yul\":521:548   */\n      slt\n        /* \"#utility.yul\":511:633   */\n      tag_77\n      jumpi\n        /* \"#utility.yul\":552:631   */\n      tag_78\n      tag_79\n      jump\t// in\n    tag_78:\n        /* \"#utility.yul\":511:633   */\n    tag_77:\n        /* \"#utility.yul\":669:675   */\n      dup2\n        /* \"#utility.yul\":656:676   */\n      calldataload\n        /* \"#utility.yul\":694:773   */\n      tag_80\n        /* \"#utility.yul\":769:772   */\n      dup5\n        /* \"#utility.yul\":761:767   */\n      dup3\n        /* \"#utility.yul\":754:758   */\n      0x20\n        /* \"#utility.yul\":746:752   */\n      dup7\n        /* \"#utility.yul\":742:759   */\n      add\n        /* \"#utility.yul\":694:773   */\n      tag_64\n      jump\t// in\n    tag_80:\n        /* \"#utility.yul\":685:773   */\n      swap2\n      pop\n        /* \"#utility.yul\":501:779   */\n      pop\n        /* \"#utility.yul\":439:779   */\n      swap3\n      swap2\n      pop\n      pop\n      jump\t// out\n        /* \"#utility.yul\":785:1294   */\n    tag_29:\n        /* \"#utility.yul\":854:860   */\n      0x00\n        /* \"#utility.yul\":903:905   */\n      0x20\n        /* \"#utility.yul\":891:900   */\n      dup3\n        /* \"#utility.yul\":882:889   */\n      dup5\n        /* \"#utility.yul\":878:901   */\n      sub\n        /* \"#utility.yul\":874:906   */\n      slt\n        /* \"#utility.yul\":871:990   */\n      iszero\n      tag_82\n      jumpi\n        /* \"#utility.yul\":909:988   */\n      tag_83\n      tag_84\n      jump\t// in\n    tag_83:\n        /* \"#utility.yul\":871:990   */\n    tag_82:\n        /* \"#utility.yul\":1057:1058   */\n      0x00\n        /* \"#utility.yul\":1046:1055   */\n      dup3\n        /* \"#utility.yul\":1042:1059   */\n      add\n        /* \"#utility.yul\":1029:1060   */\n      calldataload\n        /* \"#utility.yul\":1087:1105   */\n      0xffffffffffffffff\n        /* \"#utility.yul\":1079:1085   */\n      dup2\n        /* \"#utility.yul\":1076:1106   */\n      gt\n        /* \"#utility.yul\":1073:1190   */\n      iszero\n      tag_85\n      jumpi\n        /* \"#utility.yul\":1109:1188   */\n      tag_86\n      tag_87\n      jump\t// in\n    tag_86:\n        /* \"#utility.yul\":1073:1190   */\n    tag_85:\n        /* \"#utility.yul\":1214:1277   */\n      tag_88\n        /* \"#utility.yul\":1269:1276   */\n      dup5\n        /* \"#utility.yul\":1260:1266   */\n      dup3\n        /* \"#utility.yul\":1249:1258   */\n      dup6\n        /* \"#utility.yul\":1245:1267   */\n      add\n        /* \"#utility.yul\":1214:1277   */\n      tag_75\n      jump\t// in\n    tag_88:\n        /* \"#utility.yul\":1204:1277   */\n      swap2\n      pop\n        /* \"#utility.yul\":1000:1287   */\n      pop\n        /* \"#utility.yul\":785:1294   */\n      swap3\n      swap2\n      pop\n      pop\n      jump\t// out\n        /* \"#utility.yul\":1300:2459   */\n    tag_25:\n        /* \"#utility.yul\":1407:1413   */\n      0x00\n        /* \"#utility.yul\":1415:1421   */\n      dup1\n        /* \"#utility.yul\":1423:1429   */\n      0x00\n        /* \"#utility.yul\":1472:1474   */\n      0x60\n        /* \"#utility.yul\":1460:1469   */\n      dup5\n        /* \"#utility.yul\":1451:1458   */\n      dup7\n        /* \"#utility.yul\":1447:1470   */\n      sub\n        /* \"#utility.yul\":1443:1475   */\n      slt\n        /* \"#utility.yul\":1440:1559   */\n      iszero\n      tag_90\n      jumpi\n        /* \"#utility.yul\":1478:1557   */\n      tag_91\n      tag_84\n      jump\t// in\n    tag_91:\n        /* \"#utility.yul\":1440:1559   */\n    tag_90:\n        /* \"#utility.yul\":1626:1627   */\n      0x00\n        /* \"#utility.yul\":1615:1624   */\n      dup5\n        /* \"#utility.yul\":1611:1628   */\n      add\n        /* \"#utility.yul\":1598:1629   */\n      calldataload\n        /* \"#utility.yul\":1656:1674   */\n      0xffffffffffffffff\n        /* \"#utility.yul\":1648:1654   */\n      dup2\n        /* \"#utility.yul\":1645:1675   */\n      gt\n        /* \"#utility.yul\":1642:1759   */\n      iszero\n      tag_92\n      jumpi\n        /* \"#utility.yul\":1678:1757   */\n      tag_93\n      tag_87\n      jump\t// in\n    tag_93:\n        /* \"#utility.yul\":1642:1759   */\n    tag_92:\n        /* \"#utility.yul\":1783:1846   */\n      tag_94\n        /* \"#utility.yul\":1838:1845   */\n      dup7\n        /* \"#utility.yul\":1829:1835   */\n      dup3\n        /* \"#utility.yul\":1818:1827   */\n      dup8\n        /* \"#utility.yul\":1814:1836   */\n      add\n        /* \"#utility.yul\":1783:1846   */\n      tag_75\n      jump\t// in\n    tag_94:\n        /* \"#utility.yul\":1773:1846   */\n      swap4\n      pop\n        /* \"#utility.yul\":1569:1856   */\n      pop\n        /* \"#utility.yul\":1923:1925   */\n      0x20\n        /* \"#utility.yul\":1912:1921   */\n      dup5\n        /* \"#utility.yul\":1908:1926   */\n      add\n        /* \"#utility.yul\":1895:1927   */\n      calldataload\n        /* \"#utility.yul\":1954:1972   */\n      0xffffffffffffffff\n        /* \"#utility.yul\":1946:1952   */\n      dup2\n        /* \"#utility.yul\":1943:1973   */\n      gt\n        /* \"#utility.yul\":1940:2057   */\n      iszero\n      tag_95\n      jumpi\n        /* \"#utility.yul\":1976:2055   */\n      tag_96\n      tag_87\n      jump\t// in\n    tag_96:\n        /* \"#utility.yul\":1940:2057   */\n    tag_95:\n        /* \"#utility.yul\":2081:2144   */\n      tag_97\n        /* \"#utility.yul\":2136:2143   */\n      dup7\n        /* \"#utility.yul\":2127:2133   */\n      dup3\n        /* \"#utility.yul\":2116:2125   */\n      dup8\n        /* \"#utility.yul\":2112:2134   */\n      add\n        /* \"#utility.yul\":2081:2144   */\n      tag_75\n      jump\t// in\n    tag_97:\n        /* \"#utility.yul\":2071:2144   */\n      swap3\n      pop\n        /* \"#utility.yul\":1866:2154   */\n      pop\n        /* \"#utility.yul\":2221:2223   */\n      0x40\n        /* \"#utility.yul\":2210:2219   */\n      dup5\n        /* \"#utility.yul\":2206:2224   */\n      add\n        /* \"#utility.yul\":2193:2225   */\n      calldataload\n        /* \"#utility.yul\":2252:2270   */\n      0xffffffffffffffff\n        /* \"#utility.yul\":2244:2250   */\n      dup2\n        /* \"#utility.yul\":2241:2271   */\n      gt\n        /* \"#utility.yul\":2238:2355   */\n      iszero\n      tag_98\n      jumpi\n        /* \"#utility.yul\":2274:2353   */\n      tag_99\n      tag_87\n      jump\t// in\n    tag_99:\n        /* \"#utility.yul\":2238:2355   */\n    tag_98:\n        /* \"#utility.yul\":2379:2442   */\n      tag_100\n        /* \"#utility.yul\":2434:2441   */\n      dup7\n        /* \"#utility.yul\":2425:2431   */\n      dup3\n        /* \"#utility.yul\":2414:2423   */\n      dup8\n        /* \"#utility.yul\":2410:2432   */\n      add\n        /* \"#utility.yul\":2379:2442   */\n      tag_75\n      jump\t// in\n    tag_100:\n        /* \"#utility.yul\":2369:2442   */\n      swap2\n      pop\n        /* \"#utility.yul\":2164:2452   */\n      pop\n        /* \"#utility.yul\":1300:2459   */\n      swap3\n      pop\n      swap3\n      pop\n      swap3\n      jump\t// out\n        /* \"#utility.yul\":2465:2574   */\n    tag_101:\n        /* \"#utility.yul\":2546:2567   */\n      tag_103\n        /* \"#utility.yul\":2561:2566   */\n      dup2\n        /* \"#utility.yul\":2546:2567   */\n      tag_104\n      jump\t// in\n    tag_103:\n        /* \"#utility.yul\":2541:2544   */\n      dup3\n        /* \"#utility.yul\":2534:2568   */\n      mstore\n        /* \"#utility.yul\":2465:2574   */\n      pop\n      pop\n      jump\t// out\n        /* \"#utility.yul\":2580:2944   */\n    tag_105:\n        /* \"#utility.yul\":2668:2671   */\n      0x00\n        /* \"#utility.yul\":2696:2735   */\n      tag_107\n        /* \"#utility.yul\":2729:2734   */\n      dup3\n        /* \"#utility.yul\":2696:2735   */\n      tag_108\n      jump\t// in\n    tag_107:\n        /* \"#utility.yul\":2751:2822   */\n      tag_109\n        /* \"#utility.yul\":2815:2821   */\n      dup2\n        /* \"#utility.yul\":2810:2813   */\n      dup6\n        /* \"#utility.yul\":2751:2822   */\n      tag_110\n      jump\t// in\n    tag_109:\n        /* \"#utility.yul\":2744:2822   */\n      swap4\n      pop\n        /* \"#utility.yul\":2831:2883   */\n      tag_111\n        /* \"#utility.yul\":2876:2882   */\n      dup2\n        /* \"#utility.yul\":2871:2874   */\n      dup6\n        /* \"#utility.yul\":2864:2868   */\n      0x20\n        /* \"#utility.yul\":2857:2862   */\n      dup7\n        /* \"#utility.yul\":2853:2869   */\n      add\n        /* \"#utility.yul\":2831:2883   */\n      tag_112\n      jump\t// in\n    tag_111:\n        /* \"#utility.yul\":2908:2937   */\n      tag_113\n        /* \"#utility.yul\":2930:2936   */\n      dup2\n        /* \"#utility.yul\":2908:2937   */\n      tag_114\n      jump\t// in\n    tag_113:\n        /* \"#utility.yul\":2903:2906   */\n      dup5\n        /* \"#utility.yul\":2899:2938   */\n      add\n        /* \"#utility.yul\":2892:2938   */\n      swap2\n      pop\n        /* \"#utility.yul\":2672:2944   */\n      pop\n        /* \"#utility.yul\":2580:2944   */\n      swap3\n      swap2\n      pop\n      pop\n      jump\t// out\n        /* \"#utility.yul\":2950:3068   */\n    tag_115:\n        /* \"#utility.yul\":3037:3061   */\n      tag_117\n        /* \"#utility.yul\":3055:3060   */\n      dup2\n        /* \"#utility.yul\":3037:3061   */\n      tag_118\n      jump\t// in\n    tag_117:\n        /* \"#utility.yul\":3032:3035   */\n      dup3\n        /* \"#utility.yul\":3025:3062   */\n      mstore\n        /* \"#utility.yul\":2950:3068   */\n      pop\n      pop\n      jump\t// out\n        /* \"#utility.yul\":3074:3284   */\n    tag_20:\n        /* \"#utility.yul\":3161:3165   */\n      0x00\n        /* \"#utility.yul\":3199:3201   */\n      0x20\n        /* \"#utility.yul\":3188:3197   */\n      dup3\n        /* \"#utility.yul\":3184:3202   */\n      add\n        /* \"#utility.yul\":3176:3202   */\n      swap1\n      pop\n        /* \"#utility.yul\":3212:3277   */\n      tag_120\n        /* \"#utility.yul\":3274:3275   */\n      0x00\n        /* \"#utility.yul\":3263:3272   */\n      dup4\n        /* \"#utility.yul\":3259:3276   */\n      add\n        /* \"#utility.yul\":3250:3256   */\n      dup5\n        /* \"#utility.yul\":3212:3277   */\n      tag_101\n      jump\t// in\n    tag_120:\n        /* \"#utility.yul\":3074:3284   */\n      swap3\n      swap2\n      pop\n      pop\n      jump\t// out\n        /* \"#utility.yul\":3290:3603   */\n    tag_16:\n        /* \"#utility.yul\":3403:3407   */\n      0x00\n        /* \"#utility.yul\":3441:3443   */\n      0x20\n        /* \"#utility.yul\":3430:3439   */\n      dup3\n        /* \"#utility.yul\":3426:3444   */\n      add\n        /* \"#utility.yul\":3418:3444   */\n      swap1\n      pop\n        /* \"#utility.yul\":3490:3499   */\n      dup2\n        /* \"#utility.yul\":3484:3488   */\n      dup2\n        /* \"#utility.yul\":3480:3500   */\n      sub\n        /* \"#utility.yul\":3476:3477   */\n      0x00\n        /* \"#utility.yul\":3465:3474   */\n      dup4\n        /* \"#utility.yul\":3461:3478   */\n      add\n        /* \"#utility.yul\":3454:3501   */\n      mstore\n        /* \"#utility.yul\":3518:3596   */\n      tag_122\n        /* \"#utility.yul\":3591:3595   */\n      dup2\n        /* \"#utility.yul\":3582:3588   */\n      dup5\n        /* \"#utility.yul\":3518:3596   */\n      tag_105\n      jump\t// in\n    tag_122:\n        /* \"#utility.yul\":3510:3596   */\n      swap1\n      pop\n        /* \"#utility.yul\":3290:3603   */\n      swap3\n      swap2\n      pop\n      pop\n      jump\t// out\n        /* \"#utility.yul\":3609:3831   */\n    tag_12:\n        /* \"#utility.yul\":3702:3706   */\n      0x00\n        /* \"#utility.yul\":3740:3742   */\n      0x20\n        /* \"#utility.yul\":3729:3738   */\n      dup3\n        /* \"#utility.yul\":3725:3743   */\n      add\n        /* \"#utility.yul\":3717:3743   */\n      swap1\n      pop\n        /* \"#utility.yul\":3753:3824   */\n      tag_124\n        /* \"#utility.yul\":3821:3822   */\n      0x00\n        /* \"#utility.yul\":3810:3819   */\n      dup4\n        /* \"#utility.yul\":3806:3823   */\n      add\n        /* \"#utility.yul\":3797:3803   */\n      dup5\n        /* \"#utility.yul\":3753:3824   */\n      tag_115\n      jump\t// in\n    tag_124:\n        /* \"#utility.yul\":3609:3831   */\n      swap3\n      swap2\n      pop\n      pop\n      jump\t// out\n        /* \"#utility.yul\":3837:3966   */\n    tag_69:\n        /* \"#utility.yul\":3871:3877   */\n      0x00\n        /* \"#utility.yul\":3898:3918   */\n      tag_126\n      tag_127\n      jump\t// in\n    tag_126:\n        /* \"#utility.yul\":3888:3918   */\n      swap1\n      pop\n        /* \"#utility.yul\":3927:3960   */\n      tag_128\n        /* \"#utility.yul\":3955:3959   */\n      dup3\n        /* \"#utility.yul\":3947:3953   */\n      dup3\n        /* \"#utility.yul\":3927:3960   */\n      tag_129\n      jump\t// in\n    tag_128:\n        /* \"#utility.yul\":3837:3966   */\n      swap2\n      swap1\n      pop\n      jump\t// out\n        /* \"#utility.yul\":3972:4047   */\n    tag_127:\n        /* \"#utility.yul\":4005:4011   */\n      0x00\n        /* \"#utility.yul\":4038:4040   */\n      0x40\n        /* \"#utility.yul\":4032:4041   */\n      mload\n        /* \"#utility.yul\":4022:4041   */\n      swap1\n      pop\n        /* \"#utility.yul\":3972:4047   */\n      swap1\n      jump\t// out\n        /* \"#utility.yul\":4053:4361   */\n    tag_68:\n        /* \"#utility.yul\":4115:4119   */\n      0x00\n        /* \"#utility.yul\":4205:4223   */\n      0xffffffffffffffff\n        /* \"#utility.yul\":4197:4203   */\n      dup3\n        /* \"#utility.yul\":4194:4224   */\n      gt\n        /* \"#utility.yul\":4191:4247   */\n      iszero\n      tag_132\n      jumpi\n        /* \"#utility.yul\":4227:4245   */\n      tag_133\n      tag_134\n      jump\t// in\n    tag_133:\n        /* \"#utility.yul\":4191:4247   */\n    tag_132:\n        /* \"#utility.yul\":4265:4294   */\n      tag_135\n        /* \"#utility.yul\":4287:4293   */\n      dup3\n        /* \"#utility.yul\":4265:4294   */\n      tag_114\n      jump\t// in\n    tag_135:\n        /* \"#utility.yul\":4257:4294   */\n      swap1\n      pop\n        /* \"#utility.yul\":4349:4353   */\n      0x20\n        /* \"#utility.yul\":4343:4347   */\n      dup2\n        /* \"#utility.yul\":4339:4354   */\n      add\n        /* \"#utility.yul\":4331:4354   */\n      swap1\n      pop\n        /* \"#utility.yul\":4053:4361   */\n      swap2\n      swap1\n      pop\n      jump\t// out\n        /* \"#utility.yul\":4367:4466   */\n    tag_108:\n        /* \"#utility.yul\":4419:4425   */\n      0x00\n        /* \"#utility.yul\":4453:4458   */\n      dup2\n        /* \"#utility.yul\":4447:4459   */\n      mload\n        /* \"#utility.yul\":4437:4459   */\n      swap1\n      pop\n        /* \"#utility.yul\":4367:4466   */\n      swap2\n      swap1\n      pop\n      jump\t// out\n        /* \"#utility.yul\":4472:4641   */\n    tag_110:\n        /* \"#utility.yul\":4556:4567   */\n      0x00\n        /* \"#utility.yul\":4590:4596   */\n      dup3\n        /* \"#utility.yul\":4585:4588   */\n      dup3\n        /* \"#utility.yul\":4578:4597   */\n      mstore\n        /* \"#utility.yul\":4630:4634   */\n      0x20\n        /* \"#utility.yul\":4625:4628   */\n      dup3\n        /* \"#utility.yul\":4621:4635   */\n      add\n        /* \"#utility.yul\":4606:4635   */\n      swap1\n      pop\n        /* \"#utility.yul\":4472:4641   */\n      swap3\n      swap2\n      pop\n      pop\n      jump\t// out\n        /* \"#utility.yul\":4647:4737   */\n    tag_104:\n        /* \"#utility.yul\":4681:4688   */\n      0x00\n        /* \"#utility.yul\":4724:4729   */\n      dup2\n        /* \"#utility.yul\":4717:4730   */\n      iszero\n        /* \"#utility.yul\":4710:4731   */\n      iszero\n        /* \"#utility.yul\":4699:4731   */\n      swap1\n      pop\n        /* \"#utility.yul\":4647:4737   */\n      swap2\n      swap1\n      pop\n      jump\t// out\n        /* \"#utility.yul\":4743:4820   */\n    tag_118:\n        /* \"#utility.yul\":4780:4787   */\n      0x00\n        /* \"#utility.yul\":4809:4814   */\n      dup2\n        /* \"#utility.yul\":4798:4814   */\n      swap1\n      pop\n        /* \"#utility.yul\":4743:4820   */\n      swap2\n      swap1\n      pop\n      jump\t// out\n        /* \"#utility.yul\":4826:4980   */\n    tag_74:\n        /* \"#utility.yul\":4910:4916   */\n      dup3\n        /* \"#utility.yul\":4905:4908   */\n      dup2\n        /* \"#utility.yul\":4900:4903   */\n      dup4\n        /* \"#utility.yul\":4887:4917   */\n      calldatacopy\n        /* \"#utility.yul\":4972:4973   */\n      0x00\n        /* \"#utility.yul\":4963:4969   */\n      dup4\n        /* \"#utility.yul\":4958:4961   */\n      dup4\n        /* \"#utility.yul\":4954:4970   */\n      add\n        /* \"#utility.yul\":4947:4974   */\n      mstore\n        /* \"#utility.yul\":4826:4980   */\n      pop\n      pop\n      pop\n      jump\t// out\n        /* \"#utility.yul\":4986:5293   */\n    tag_112:\n        /* \"#utility.yul\":5054:5055   */\n      0x00\n        /* \"#utility.yul\":5064:5177   */\n    tag_142:\n        /* \"#utility.yul\":5078:5084   */\n      dup4\n        /* \"#utility.yul\":5075:5076   */\n      dup2\n        /* \"#utility.yul\":5072:5085   */\n      lt\n        /* \"#utility.yul\":5064:5177   */\n      iszero\n      tag_144\n      jumpi\n        /* \"#utility.yul\":5163:5164   */\n      dup1\n        /* \"#utility.yul\":5158:5161   */\n      dup3\n        /* \"#utility.yul\":5154:5165   */\n      add\n        /* \"#utility.yul\":5148:5166   */\n      mload\n        /* \"#utility.yul\":5144:5145   */\n      dup2\n        /* \"#utility.yul\":5139:5142   */\n      dup5\n        /* \"#utility.yul\":5135:5146   */\n      add\n        /* \"#utility.yul\":5128:5167   */\n      mstore\n        /* \"#utility.yul\":5100:5102   */\n      0x20\n        /* \"#utility.yul\":5097:5098   */\n      dup2\n        /* \"#utility.yul\":5093:5103   */\n      add\n        /* \"#utility.yul\":5088:5103   */\n      swap1\n      pop\n        /* \"#utility.yul\":5064:5177   */\n      jump(tag_142)\n    tag_144:\n        /* \"#utility.yul\":5195:5201   */\n      dup4\n        /* \"#utility.yul\":5192:5193   */\n      dup2\n        /* \"#utility.yul\":5189:5202   */\n      gt\n        /* \"#utility.yul\":5186:5287   */\n      iszero\n      tag_145\n      jumpi\n        /* \"#utility.yul\":5275:5276   */\n      0x00\n        /* \"#utility.yul\":5266:5272   */\n      dup5\n        /* \"#utility.yul\":5261:5264   */\n      dup5\n        /* \"#utility.yul\":5257:5273   */\n      add\n        /* \"#utility.yul\":5250:5277   */\n      mstore\n        /* \"#utility.yul\":5186:5287   */\n    tag_145:\n        /* \"#utility.yul\":5035:5293   */\n      pop\n        /* \"#utility.yul\":4986:5293   */\n      pop\n      pop\n      pop\n      jump\t// out\n        /* \"#utility.yul\":5299:5619   */\n    tag_35:\n        /* \"#utility.yul\":5343:5349   */\n      0x00\n        /* \"#utility.yul\":5380:5381   */\n      0x02\n        /* \"#utility.yul\":5374:5378   */\n      dup3\n        /* \"#utility.yul\":5370:5382   */\n      div\n        /* \"#utility.yul\":5360:5382   */\n      swap1\n      pop\n        /* \"#utility.yul\":5427:5428   */\n      0x01\n        /* \"#utility.yul\":5421:5425   */\n      dup3\n        /* \"#utility.yul\":5417:5429   */\n      and\n        /* \"#utility.yul\":5448:5466   */\n      dup1\n        /* \"#utility.yul\":5438:5519   */\n      tag_147\n      jumpi\n        /* \"#utility.yul\":5504:5508   */\n      0x7f\n        /* \"#utility.yul\":5496:5502   */\n      dup3\n        /* \"#utility.yul\":5492:5509   */\n      and\n        /* \"#utility.yul\":5482:5509   */\n      swap2\n      pop\n        /* \"#utility.yul\":5438:5519   */\n    tag_147:\n        /* \"#utility.yul\":5566:5568   */\n      0x20\n        /* \"#utility.yul\":5558:5564   */\n      dup3\n        /* \"#utility.yul\":5555:5569   */\n      lt\n        /* \"#utility.yul\":5535:5553   */\n      dup2\n        /* \"#utility.yul\":5532:5570   */\n      eq\n        /* \"#utility.yul\":5529:5613   */\n      iszero\n      tag_148\n      jumpi\n        /* \"#utility.yul\":5585:5603   */\n      tag_149\n      tag_150\n      jump\t// in\n    tag_149:\n        /* \"#utility.yul\":5529:5613   */\n    tag_148:\n        /* \"#utility.yul\":5350:5619   */\n      pop\n        /* \"#utility.yul\":5299:5619   */\n      swap2\n      swap1\n      pop\n      jump\t// out\n        /* \"#utility.yul\":5625:5906   */\n    tag_129:\n        /* \"#utility.yul\":5708:5735   */\n      tag_152\n        /* \"#utility.yul\":5730:5734   */\n      dup3\n        /* \"#utility.yul\":5708:5735   */\n      tag_114\n      jump\t// in\n    tag_152:\n        /* \"#utility.yul\":5700:5706   */\n      dup2\n        /* \"#utility.yul\":5696:5736   */\n      add\n        /* \"#utility.yul\":5838:5844   */\n      dup2\n        /* \"#utility.yul\":5826:5836   */\n      dup2\n        /* \"#utility.yul\":5823:5845   */\n      lt\n        /* \"#utility.yul\":5802:5820   */\n      0xffffffffffffffff\n        /* \"#utility.yul\":5790:5800   */\n      dup3\n        /* \"#utility.yul\":5787:5821   */\n      gt\n        /* \"#utility.yul\":5784:5846   */\n      or\n        /* \"#utility.yul\":5781:5869   */\n      iszero\n      tag_153\n      jumpi\n        /* \"#utility.yul\":5849:5867   */\n      tag_154\n      tag_134\n      jump\t// in\n    tag_154:\n        /* \"#utility.yul\":5781:5869   */\n    tag_153:\n        /* \"#utility.yul\":5889:5899   */\n      dup1\n        /* \"#utility.yul\":5885:5887   */\n      0x40\n        /* \"#utility.yul\":5878:5900   */\n      mstore\n        /* \"#utility.yul\":5668:5906   */\n      pop\n        /* \"#utility.yul\":5625:5906   */\n      pop\n      pop\n      jump\t// out\n        /* \"#utility.yul\":5912:6145   */\n    tag_50:\n        /* \"#utility.yul\":5951:5954   */\n      0x00\n        /* \"#utility.yul\":5974:5998   */\n      tag_156\n        /* \"#utility.yul\":5992:5997   */\n      dup3\n        /* \"#utility.yul\":5974:5998   */\n      tag_118\n      jump\t// in\n    tag_156:\n        /* \"#utility.yul\":5965:5998   */\n      swap2\n      pop\n        /* \"#utility.yul\":6020:6086   */\n      0xffffffffffffffffffffffffffffffffffffffffffffffffffffffffffffffff\n        /* \"#utility.yul\":6013:6018   */\n      dup3\n        /* \"#utility.yul\":6010:6087   */\n      eq\n        /* \"#utility.yul\":6007:6110   */\n      iszero\n      tag_157\n      jumpi\n        /* \"#utility.yul\":6090:6108   */\n      tag_158\n      tag_159\n      jump\t// in\n    tag_158:\n        /* \"#utility.yul\":6007:6110   */\n    tag_157:\n        /* \"#utility.yul\":6137:6138   */\n      0x01\n        /* \"#utility.yul\":6130:6135   */\n      dup3\n        /* \"#utility.yul\":6126:6139   */\n      add\n        /* \"#utility.yul\":6119:6139   */\n      swap1\n      pop\n        /* \"#utility.yul\":5912:6145   */\n      swap2\n      swap1\n      pop\n      jump\t// out\n        /* \"#utility.yul\":6151:6331   */\n    tag_159:\n        /* \"#utility.yul\":6199:6276   */\n      0x4e487b7100000000000000000000000000000000000000000000000000000000\n        /* \"#utility.yul\":6196:6197   */\n      0x00\n        /* \"#utility.yul\":6189:6277   */\n      mstore\n        /* \"#utility.yul\":6296:6300   */\n      0x11\n        /* \"#utility.yul\":6293:6294   */\n      0x04\n        /* \"#utility.yul\":6286:6301   */\n      mstore\n        /* \"#utility.yul\":6320:6324   */\n      0x24\n        /* \"#utility.yul\":6317:6318   */\n      0x00\n        /* \"#utility.yul\":6310:6325   */\n      revert\n        /* \"#utility.yul\":6337:6517   */\n    tag_150:\n        /* \"#utility.yul\":6385:6462   */\n      0x4e487b7100000000000000000000000000000000000000000000000000000000\n        /* \"#utility.yul\":6382:6383   */\n      0x00\n        /* \"#utility.yul\":6375:6463   */\n      mstore\n        /* \"#utility.yul\":6482:6486   */\n      0x22\n        /* \"#utility.yul\":6479:6480   */\n      0x04\n        /* \"#utility.yul\":6472:6487   */\n      mstore\n        /* \"#utility.yul\":6506:6510   */\n      0x24\n        /* \"#utility.yul\":6503:6504   */\n      0x00\n        /* \"#utility.yul\":6496:6511   */\n      revert\n        /* \"#utility.yul\":6523:6703   */\n    tag_134:\n        /* \"#utility.yul\":6571:6648   */\n      0x4e487b7100000000000000000000000000000000000000000000000000000000\n        /* \"#utility.yul\":6568:6569   */\n      0x00\n        /* \"#utility.yul\":6561:6649   */\n      mstore\n        /* \"#utility.yul\":6668:6672   */\n      0x41\n        /* \"#utility.yul\":6665:6666   */\n      0x04\n        /* \"#utility.yul\":6658:6673   */\n      mstore\n        /* \"#utility.yul\":6692:6696   */\n      0x24\n        /* \"#utility.yul\":6689:6690   */\n      0x00\n        /* \"#utility.yul\":6682:6697   */\n      revert\n        /* \"#utility.yul\":6709:6826   */\n    tag_79:\n        /* \"#utility.yul\":6818:6819   */\n      0x00\n        /* \"#utility.yul\":6815:6816   */\n      dup1\n        /* \"#utility.yul\":6808:6820   */\n      revert\n        /* \"#utility.yul\":6832:6949   */\n    tag_72:\n        /* \"#utility.yul\":6941:6942   */\n      0x00\n        /* \"#utility.yul\":6938:6939   */\n      dup1\n        /* \"#utility.yul\":6931:6943   */\n      revert\n        /* \"#utility.yul\":6955:7072   */\n    tag_87:\n        /* \"#utility.yul\":7064:7065   */\n      0x00\n        /* \"#utility.yul\":7061:7062   */\n      dup1\n        /* \"#utility.yul\":7054:7066   */\n      revert\n        /* \"#utility.yul\":7078:7195   */\n    tag_84:\n        /* \"#utility.yul\":7187:7188   */\n      0x00\n        /* \"#utility.yul\":7184:7185   */\n      dup1\n        /* \"#utility.yul\":7177:7189   */\n      revert\n        /* \"#utility.yul\":7201:7303   */\n    tag_114:\n        /* \"#utility.yul\":7242:7248   */\n      0x00\n        /* \"#utility.yul\":7293:7295   */\n      0x1f\n        /* \"#utility.yul\":7289:7296   */\n      not\n        /* \"#utility.yul\":7284:7286   */\n      0x1f\n        /* \"#utility.yul\":7277:7282   */\n      dup4\n        /* \"#utility.yul\":7273:7287   */\n      add\n        /* \"#utility.yul\":7269:7297   */\n      and\n        /* \"#utility.yul\":7259:7297   */\n      swap1\n      pop\n        /* \"#utility.yul\":7201:7303   */\n      swap2\n      swap1\n      pop\n      jump\t// out\n\n    auxdata: 0xa2646970667358221220dc4928ca6b1fa66c3763eb52eb4f040e067599140423916fe4eaeb59270f9a5564736f6c63430008070033\n}\n",
				"bytecode": {
					"linkReferences": {},
					"object": "6080604052600060035534801561001557600080fd5b506109c9806100256000396000f3fe608060405234801561001057600080fd5b50600436106100625760003560e01c8063169134691461006757806317d7de7c146100855780633ae7dc1a146100a35780636d4540eb146100c15780639841c82c146100cb578063ee8b7cd9146100e7575b600080fd5b61006f610103565b60405161007c9190610750565b60405180910390f35b61008d610109565b60405161009a919061072e565b60405180910390f35b6100ab610239565b6040516100b89190610713565b60405180910390f35b6100c961029d565b005b6100e560048036038101906100e09190610615565b6102f9565b005b61010160048036038101906100fc91906105cc565b610460565b005b60035481565b6060600115156000803373ffffffffffffffffffffffffffffffffffffffff1673ffffffffffffffffffffffffffffffffffffffff16815260200190815260200160002060030160149054906101000a900460ff1615151461016a57600080fd5b6000803373ffffffffffffffffffffffffffffffffffffffff1673ffffffffffffffffffffffffffffffffffffffff16815260200190815260200160002060000180546101b690610835565b80601f01602080910402602001604051908101604052809291908181526020018280546101e290610835565b801561022f5780601f106102045761010080835404028352916020019161022f565b820191906000526020600020905b81548152906001019060200180831161021257829003601f168201915b5050505050905090565b60008060003373ffffffffffffffffffffffffffffffffffffffff1673ffffffffffffffffffffffffffffffffffffffff16815260200190815260200160002060030160149054906101000a900460ff16610295576000610298565b60015b905090565b60008060003373ffffffffffffffffffffffffffffffffffffffff1673ffffffffffffffffffffffffffffffffffffffff16815260200190815260200160002060030160146101000a81548160ff021916908315150217905550565b60006040518060a001604052808581526020018481526020018381526020013373ffffffffffffffffffffffffffffffffffffffff168152602001600115158152509050806000803373ffffffffffffffffffffffffffffffffffffffff1673ffffffffffffffffffffffffffffffffffffffff16815260200190815260200160002060008201518160000190805190602001906103989291906104b9565b5060208201518160010190805190602001906103b59291906104b9565b5060408201518160020190805190602001906103d29291906104b9565b5060608201518160030160006101000a81548173ffffffffffffffffffffffffffffffffffffffff021916908373ffffffffffffffffffffffffffffffffffffffff16021790555060808201518160030160146101000a81548160ff0219169083151502179055509050506003600081548092919061045090610898565b9190505560038190555050505050565b806000803373ffffffffffffffffffffffffffffffffffffffff1673ffffffffffffffffffffffffffffffffffffffff16815260200190815260200160002060000190805190602001906104b59291906104b9565b5050565b8280546104c590610835565b90600052602060002090601f0160209004810192826104e7576000855561052e565b82601f1061050057805160ff191683800117855561052e565b8280016001018555821561052e579182015b8281111561052d578251825591602001919060010190610512565b5b50905061053b919061053f565b5090565b5b80821115610558576000816000905550600101610540565b5090565b600061056f61056a84610790565b61076b565b90508281526020810184848401111561058b5761058a610973565b5b6105968482856107f3565b509392505050565b600082601f8301126105b3576105b261096e565b5b81356105c384826020860161055c565b91505092915050565b6000602082840312156105e2576105e161097d565b5b600082013567ffffffffffffffff811115610600576105ff610978565b5b61060c8482850161059e565b91505092915050565b60008060006060848603121561062e5761062d61097d565b5b600084013567ffffffffffffffff81111561064c5761064b610978565b5b6106588682870161059e565b935050602084013567ffffffffffffffff81111561067957610678610978565b5b6106858682870161059e565b925050604084013567ffffffffffffffff8111156106a6576106a5610978565b5b6106b28682870161059e565b9150509250925092565b6106c5816107dd565b82525050565b60006106d6826107c1565b6106e081856107cc565b93506106f0818560208601610802565b6106f981610982565b840191505092915050565b61070d816107e9565b82525050565b600060208201905061072860008301846106bc565b92915050565b6000602082019050818103600083015261074881846106cb565b905092915050565b60006020820190506107656000830184610704565b92915050565b6000610775610786565b90506107818282610867565b919050565b6000604051905090565b600067ffffffffffffffff8211156107ab576107aa61093f565b5b6107b482610982565b9050602081019050919050565b600081519050919050565b600082825260208201905092915050565b60008115159050919050565b6000819050919050565b82818337600083830152505050565b60005b83811015610820578082015181840152602081019050610805565b8381111561082f576000848401525b50505050565b6000600282049050600182168061084d57607f821691505b6020821081141561086157610860610910565b5b50919050565b61087082610982565b810181811067ffffffffffffffff8211171561088f5761088e61093f565b5b80604052505050565b60006108a3826107e9565b91507fffffffffffffffffffffffffffffffffffffffffffffffffffffffffffffffff8214156108d6576108d56108e1565b5b600182019050919050565b7f4e487b7100000000000000000000000000000000000000000000000000000000600052601160045260246000fd5b7f4e487b7100000000000000000000000000000000000000000000000000000000600052602260045260246000fd5b7f4e487b7100000000000000000000000000000000000000000000000000000000600052604160045260246000fd5b600080fd5b600080fd5b600080fd5b600080fd5b6000601f19601f830116905091905056fea2646970667358221220dc4928ca6b1fa66c3763eb52eb4f040e067599140423916fe4eaeb59270f9a5564736f6c63430008070033",
					"opcodes": "PUSH1 0x80 PUSH1 0x40 MSTORE PUSH1 0x0 PUSH1 0x3 SSTORE CALLVALUE DUP1 ISZERO PUSH2 0x15 JUMPI PUSH1 0x0 DUP1 REVERT JUMPDEST POP PUSH2 0x9C9 DUP1 PUSH2 0x25 PUSH1 0x0 CODECOPY PUSH1 0x0 RETURN INVALID PUSH1 0x80 PUSH1 0x40 MSTORE CALLVALUE DUP1 ISZERO PUSH2 0x10 JUMPI PUSH1 0x0 DUP1 REVERT JUMPDEST POP PUSH1 0x4 CALLDATASIZE LT PUSH2 0x62 JUMPI PUSH1 0x0 CALLDATALOAD PUSH1 0xE0 SHR DUP1 PUSH4 0x16913469 EQ PUSH2 0x67 JUMPI DUP1 PUSH4 0x17D7DE7C EQ PUSH2 0x85 JUMPI DUP1 PUSH4 0x3AE7DC1A EQ PUSH2 0xA3 JUMPI DUP1 PUSH4 0x6D4540EB EQ PUSH2 0xC1 JUMPI DUP1 PUSH4 0x9841C82C EQ PUSH2 0xCB JUMPI DUP1 PUSH4 0xEE8B7CD9 EQ PUSH2 0xE7 JUMPI JUMPDEST PUSH1 0x0 DUP1 REVERT JUMPDEST PUSH2 0x6F PUSH2 0x103 JUMP JUMPDEST PUSH1 0x40 MLOAD PUSH2 0x7C SWAP2 SWAP1 PUSH2 0x750 JUMP JUMPDEST PUSH1 0x40 MLOAD DUP1 SWAP2 SUB SWAP1 RETURN JUMPDEST PUSH2 0x8D PUSH2 0x109 JUMP JUMPDEST PUSH1 0x40 MLOAD PUSH2 0x9A SWAP2 SWAP1 PUSH2 0x72E JUMP JUMPDEST PUSH1 0x40 MLOAD DUP1 SWAP2 SUB SWAP1 RETURN JUMPDEST PUSH2 0xAB PUSH2 0x239 JUMP JUMPDEST PUSH1 0x40 MLOAD PUSH2 0xB8 SWAP2 SWAP1 PUSH2 0x713 JUMP JUMPDEST PUSH1 0x40 MLOAD DUP1 SWAP2 SUB SWAP1 RETURN JUMPDEST PUSH2 0xC9 PUSH2 0x29D JUMP JUMPDEST STOP JUMPDEST PUSH2 0xE5 PUSH1 0x4 DUP1 CALLDATASIZE SUB DUP2 ADD SWAP1 PUSH2 0xE0 SWAP2 SWAP1 PUSH2 0x615 JUMP JUMPDEST PUSH2 0x2F9 JUMP JUMPDEST STOP JUMPDEST PUSH2 0x101 PUSH1 0x4 DUP1 CALLDATASIZE SUB DUP2 ADD SWAP1 PUSH2 0xFC SWAP2 SWAP1 PUSH2 0x5CC JUMP JUMPDEST PUSH2 0x460 JUMP JUMPDEST STOP JUMPDEST PUSH1 0x3 SLOAD DUP2 JUMP JUMPDEST PUSH1 0x60 PUSH1 0x1 ISZERO ISZERO PUSH1 0x0 DUP1 CALLER PUSH20 0xFFFFFFFFFFFFFFFFFFFFFFFFFFFFFFFFFFFFFFFF AND PUSH20 0xFFFFFFFFFFFFFFFFFFFFFFFFFFFFFFFFFFFFFFFF AND DUP2 MSTORE PUSH1 0x20 ADD SWAP1 DUP2 MSTORE PUSH1 0x20 ADD PUSH1 0x0 KECCAK256 PUSH1 0x3 ADD PUSH1 0x14 SWAP1 SLOAD SWAP1 PUSH2 0x100 EXP SWAP1 DIV PUSH1 0xFF AND ISZERO ISZERO EQ PUSH2 0x16A JUMPI PUSH1 0x0 DUP1 REVERT JUMPDEST PUSH1 0x0 DUP1 CALLER PUSH20 0xFFFFFFFFFFFFFFFFFFFFFFFFFFFFFFFFFFFFFFFF AND PUSH20 0xFFFFFFFFFFFFFFFFFFFFFFFFFFFFFFFFFFFFFFFF AND DUP2 MSTORE PUSH1 0x20 ADD SWAP1 DUP2 MSTORE PUSH1 0x20 ADD PUSH1 0x0 KECCAK256 PUSH1 0x0 ADD DUP1 SLOAD PUSH2 0x1B6 SWAP1 PUSH2 0x835 JUMP JUMPDEST DUP1 PUSH1 0x1F ADD PUSH1 0x20 DUP1 SWAP2 DIV MUL PUSH1 0x20 ADD PUSH1 0x40 MLOAD SWAP1 DUP2 ADD PUSH1 0x40 MSTORE DUP1 SWAP3 SWAP2 SWAP1 DUP2 DUP2 MSTORE PUSH1 0x20 ADD DUP3 DUP1 SLOAD PUSH2 0x1E2 SWAP1 PUSH2 0x835 JUMP JUMPDEST DUP1 ISZERO PUSH2 0x22F JUMPI DUP1 PUSH1 0x1F LT PUSH2 0x204 JUMPI PUSH2 0x100 DUP1 DUP4 SLOAD DIV MUL DUP4 MSTORE SWAP2 PUSH1 0x20 ADD SWAP2 PUSH2 0x22F JUMP JUMPDEST DUP3 ADD SWAP2 SWAP1 PUSH1 0x0 MSTORE PUSH1 0x20 PUSH1 0x0 KECCAK256 SWAP1 JUMPDEST DUP2 SLOAD DUP2 MSTORE SWAP1 PUSH1 0x1 ADD SWAP1 PUSH1 0x20 ADD DUP1 DUP4 GT PUSH2 0x212 JUMPI DUP3 SWAP1 SUB PUSH1 0x1F AND DUP3 ADD SWAP2 JUMPDEST POP POP POP POP POP SWAP1 POP SWAP1 JUMP JUMPDEST PUSH1 0x0 DUP1 PUSH1 0x0 CALLER PUSH20 0xFFFFFFFFFFFFFFFFFFFFFFFFFFFFFFFFFFFFFFFF AND PUSH20 0xFFFFFFFFFFFFFFFFFFFFFFFFFFFFFFFFFFFFFFFF AND DUP2 MSTORE PUSH1 0x20 ADD SWAP1 DUP2 MSTORE PUSH1 0x20 ADD PUSH1 0x0 KECCAK256 PUSH1 0x3 ADD PUSH1 0x14 SWAP1 SLOAD SWAP1 PUSH2 0x100 EXP SWAP1 DIV PUSH1 0xFF AND PUSH2 0x295 JUMPI PUSH1 0x0 PUSH2 0x298 JUMP JUMPDEST PUSH1 0x1 JUMPDEST SWAP1 POP SWAP1 JUMP JUMPDEST PUSH1 0x0 DUP1 PUSH1 0x0 CALLER PUSH20 0xFFFFFFFFFFFFFFFFFFFFFFFFFFFFFFFFFFFFFFFF AND PUSH20 0xFFFFFFFFFFFFFFFFFFFFFFFFFFFFFFFFFFFFFFFF AND DUP2 MSTORE PUSH1 0x20 ADD SWAP1 DUP2 MSTORE PUSH1 0x20 ADD PUSH1 0x0 KECCAK256 PUSH1 0x3 ADD PUSH1 0x14 PUSH2 0x100 EXP DUP2 SLOAD DUP2 PUSH1 0xFF MUL NOT AND SWAP1 DUP4 ISZERO ISZERO MUL OR SWAP1 SSTORE POP JUMP JUMPDEST PUSH1 0x0 PUSH1 0x40 MLOAD DUP1 PUSH1 0xA0 ADD PUSH1 0x40 MSTORE DUP1 DUP6 DUP2 MSTORE PUSH1 0x20 ADD DUP5 DUP2 MSTORE PUSH1 0x20 ADD DUP4 DUP2 MSTORE PUSH1 0x20 ADD CALLER PUSH20 0xFFFFFFFFFFFFFFFFFFFFFFFFFFFFFFFFFFFFFFFF AND DUP2 MSTORE PUSH1 0x20 ADD PUSH1 0x1 ISZERO ISZERO DUP2 MSTORE POP SWAP1 POP DUP1 PUSH1 0x0 DUP1 CALLER PUSH20 0xFFFFFFFFFFFFFFFFFFFFFFFFFFFFFFFFFFFFFFFF AND PUSH20 0xFFFFFFFFFFFFFFFFFFFFFFFFFFFFFFFFFFFFFFFF AND DUP2 MSTORE PUSH1 0x20 ADD SWAP1 DUP2 MSTORE PUSH1 0x20 ADD PUSH1 0x0 KECCAK256 PUSH1 0x0 DUP3 ADD MLOAD DUP2 PUSH1 0x0 ADD SWAP1 DUP1 MLOAD SWAP1 PUSH1 0x20 ADD SWAP1 PUSH2 0x398 SWAP3 SWAP2 SWAP1 PUSH2 0x4B9 JUMP JUMPDEST POP PUSH1 0x20 DUP3 ADD MLOAD DUP2 PUSH1 0x1 ADD SWAP1 DUP1 MLOAD SWAP1 PUSH1 0x20 ADD SWAP1 PUSH2 0x3B5 SWAP3 SWAP2 SWAP1 PUSH2 0x4B9 JUMP JUMPDEST POP PUSH1 0x40 DUP3 ADD MLOAD DUP2 PUSH1 0x2 ADD SWAP1 DUP1 MLOAD SWAP1 PUSH1 0x20 ADD SWAP1 PUSH2 0x3D2 SWAP3 SWAP2 SWAP1 PUSH2 0x4B9 JUMP JUMPDEST POP PUSH1 0x60 DUP3 ADD MLOAD DUP2 PUSH1 0x3 ADD PUSH1 0x0 PUSH2 0x100 EXP DUP2 SLOAD DUP2 PUSH20 0xFFFFFFFFFFFFFFFFFFFFFFFFFFFFFFFFFFFFFFFF MUL NOT AND SWAP1 DUP4 PUSH20 0xFFFFFFFFFFFFFFFFFFFFFFFFFFFFFFFFFFFFFFFF AND MUL OR SWAP1 SSTORE POP PUSH1 0x80 DUP3 ADD MLOAD DUP2 PUSH1 0x3 ADD PUSH1 0x14 PUSH2 0x100 EXP DUP2 SLOAD DUP2 PUSH1 0xFF MUL NOT AND SWAP1 DUP4 ISZERO ISZERO MUL OR SWAP1 SSTORE POP SWAP1 POP POP PUSH1 0x3 PUSH1 0x0 DUP2 SLOAD DUP1 SWAP3 SWAP2 SWAP1 PUSH2 0x450 SWAP1 PUSH2 0x898 JUMP JUMPDEST SWAP2 SWAP1 POP SSTORE PUSH1 0x3 DUP2 SWAP1 SSTORE POP POP POP POP POP JUMP JUMPDEST DUP1 PUSH1 0x0 DUP1 CALLER PUSH20 0xFFFFFFFFFFFFFFFFFFFFFFFFFFFFFFFFFFFFFFFF AND PUSH20 0xFFFFFFFFFFFFFFFFFFFFFFFFFFFFFFFFFFFFFFFF AND DUP2 MSTORE PUSH1 0x20 ADD SWAP1 DUP2 MSTORE PUSH1 0x20 ADD PUSH1 0x0 KECCAK256 PUSH1 0x0 ADD SWAP1 DUP1 MLOAD SWAP1 PUSH1 0x20 ADD SWAP1 PUSH2 0x4B5 SWAP3 SWAP2 SWAP1 PUSH2 0x4B9 JUMP JUMPDEST POP POP JUMP JUMPDEST DUP3 DUP1 SLOAD PUSH2 0x4C5 SWAP1 PUSH2 0x835 JUMP JUMPDEST SWAP1 PUSH1 0x0 MSTORE PUSH1 0x20 PUSH1 0x0 KECCAK256 SWAP1 PUSH1 0x1F ADD PUSH1 0x20 SWAP1 DIV DUP2 ADD SWAP3 DUP3 PUSH2 0x4E7 JUMPI PUSH1 0x0 DUP6 SSTORE PUSH2 0x52E JUMP JUMPDEST DUP3 PUSH1 0x1F LT PUSH2 0x500 JUMPI DUP1 MLOAD PUSH1 0xFF NOT AND DUP4 DUP1 ADD OR DUP6 SSTORE PUSH2 0x52E JUMP JUMPDEST DUP3 DUP1 ADD PUSH1 0x1 ADD DUP6 SSTORE DUP3 ISZERO PUSH2 0x52E JUMPI SWAP2 DUP3 ADD JUMPDEST DUP3 DUP2 GT ISZERO PUSH2 0x52D JUMPI DUP3 MLOAD DUP3 SSTORE SWAP2 PUSH1 0x20 ADD SWAP2 SWAP1 PUSH1 0x1 ADD SWAP1 PUSH2 0x512 JUMP JUMPDEST JUMPDEST POP SWAP1 POP PUSH2 0x53B SWAP2 SWAP1 PUSH2 0x53F JUMP JUMPDEST POP SWAP1 JUMP JUMPDEST JUMPDEST DUP1 DUP3 GT ISZERO PUSH2 0x558 JUMPI PUSH1 0x0 DUP2 PUSH1 0x0 SWAP1 SSTORE POP PUSH1 0x1 ADD PUSH2 0x540 JUMP JUMPDEST POP SWAP1 JUMP JUMPDEST PUSH1 0x0 PUSH2 0x56F PUSH2 0x56A DUP5 PUSH2 0x790 JUMP JUMPDEST PUSH2 0x76B JUMP JUMPDEST SWAP1 POP DUP3 DUP2 MSTORE PUSH1 0x20 DUP2 ADD DUP5 DUP5 DUP5 ADD GT ISZERO PUSH2 0x58B JUMPI PUSH2 0x58A PUSH2 0x973 JUMP JUMPDEST JUMPDEST PUSH2 0x596 DUP5 DUP3 DUP6 PUSH2 0x7F3 JUMP JUMPDEST POP SWAP4 SWAP3 POP POP POP JUMP JUMPDEST PUSH1 0x0 DUP3 PUSH1 0x1F DUP4 ADD SLT PUSH2 0x5B3 JUMPI PUSH2 0x5B2 PUSH2 0x96E JUMP JUMPDEST JUMPDEST DUP2 CALLDATALOAD PUSH2 0x5C3 DUP5 DUP3 PUSH1 0x20 DUP7 ADD PUSH2 0x55C JUMP JUMPDEST SWAP2 POP POP SWAP3 SWAP2 POP POP JUMP JUMPDEST PUSH1 0x0 PUSH1 0x20 DUP3 DUP5 SUB SLT ISZERO PUSH2 0x5E2 JUMPI PUSH2 0x5E1 PUSH2 0x97D JUMP JUMPDEST JUMPDEST PUSH1 0x0 DUP3 ADD CALLDATALOAD PUSH8 0xFFFFFFFFFFFFFFFF DUP2 GT ISZERO PUSH2 0x600 JUMPI PUSH2 0x5FF PUSH2 0x978 JUMP JUMPDEST JUMPDEST PUSH2 0x60C DUP5 DUP3 DUP6 ADD PUSH2 0x59E JUMP JUMPDEST SWAP2 POP POP SWAP3 SWAP2 POP POP JUMP JUMPDEST PUSH1 0x0 DUP1 PUSH1 0x0 PUSH1 0x60 DUP5 DUP7 SUB SLT ISZERO PUSH2 0x62E JUMPI PUSH2 0x62D PUSH2 0x97D JUMP JUMPDEST JUMPDEST PUSH1 0x0 DUP5 ADD CALLDATALOAD PUSH8 0xFFFFFFFFFFFFFFFF DUP2 GT ISZERO PUSH2 0x64C JUMPI PUSH2 0x64B PUSH2 0x978 JUMP JUMPDEST JUMPDEST PUSH2 0x658 DUP7 DUP3 DUP8 ADD PUSH2 0x59E JUMP JUMPDEST SWAP4 POP POP PUSH1 0x20 DUP5 ADD CALLDATALOAD PUSH8 0xFFFFFFFFFFFFFFFF DUP2 GT ISZERO PUSH2 0x679 JUMPI PUSH2 0x678 PUSH2 0x978 JUMP JUMPDEST JUMPDEST PUSH2 0x685 DUP7 DUP3 DUP8 ADD PUSH2 0x59E JUMP JUMPDEST SWAP3 POP POP PUSH1 0x40 DUP5 ADD CALLDATALOAD PUSH8 0xFFFFFFFFFFFFFFFF DUP2 GT ISZERO PUSH2 0x6A6 JUMPI PUSH2 0x6A5 PUSH2 0x978 JUMP JUMPDEST JUMPDEST PUSH2 0x6B2 DUP7 DUP3 DUP8 ADD PUSH2 0x59E JUMP JUMPDEST SWAP2 POP POP SWAP3 POP SWAP3 POP SWAP3 JUMP JUMPDEST PUSH2 0x6C5 DUP2 PUSH2 0x7DD JUMP JUMPDEST DUP3 MSTORE POP POP JUMP JUMPDEST PUSH1 0x0 PUSH2 0x6D6 DUP3 PUSH2 0x7C1 JUMP JUMPDEST PUSH2 0x6E0 DUP2 DUP6 PUSH2 0x7CC JUMP JUMPDEST SWAP4 POP PUSH2 0x6F0 DUP2 DUP6 PUSH1 0x20 DUP7 ADD PUSH2 0x802 JUMP JUMPDEST PUSH2 0x6F9 DUP2 PUSH2 0x982 JUMP JUMPDEST DUP5 ADD SWAP2 POP POP SWAP3 SWAP2 POP POP JUMP JUMPDEST PUSH2 0x70D DUP2 PUSH2 0x7E9 JUMP JUMPDEST DUP3 MSTORE POP POP JUMP JUMPDEST PUSH1 0x0 PUSH1 0x20 DUP3 ADD SWAP1 POP PUSH2 0x728 PUSH1 0x0 DUP4 ADD DUP5 PUSH2 0x6BC JUMP JUMPDEST SWAP3 SWAP2 POP POP JUMP JUMPDEST PUSH1 0x0 PUSH1 0x20 DUP3 ADD SWAP1 POP DUP2 DUP2 SUB PUSH1 0x0 DUP4 ADD MSTORE PUSH2 0x748 DUP2 DUP5 PUSH2 0x6CB JUMP JUMPDEST SWAP1 POP SWAP3 SWAP2 POP POP JUMP JUMPDEST PUSH1 0x0 PUSH1 0x20 DUP3 ADD SWAP1 POP PUSH2 0x765 PUSH1 0x0 DUP4 ADD DUP5 PUSH2 0x704 JUMP JUMPDEST SWAP3 SWAP2 POP POP JUMP JUMPDEST PUSH1 0x0 PUSH2 0x775 PUSH2 0x786 JUMP JUMPDEST SWAP1 POP PUSH2 0x781 DUP3 DUP3 PUSH2 0x867 JUMP JUMPDEST SWAP2 SWAP1 POP JUMP JUMPDEST PUSH1 0x0 PUSH1 0x40 MLOAD SWAP1 POP SWAP1 JUMP JUMPDEST PUSH1 0x0 PUSH8 0xFFFFFFFFFFFFFFFF DUP3 GT ISZERO PUSH2 0x7AB JUMPI PUSH2 0x7AA PUSH2 0x93F JUMP JUMPDEST JUMPDEST PUSH2 0x7B4 DUP3 PUSH2 0x982 JUMP JUMPDEST SWAP1 POP PUSH1 0x20 DUP2 ADD SWAP1 POP SWAP2 SWAP1 POP JUMP JUMPDEST PUSH1 0x0 DUP2 MLOAD SWAP1 POP SWAP2 SWAP1 POP JUMP JUMPDEST PUSH1 0x0 DUP3 DUP3 MSTORE PUSH1 0x20 DUP3 ADD SWAP1 POP SWAP3 SWAP2 POP POP JUMP JUMPDEST PUSH1 0x0 DUP2 ISZERO ISZERO SWAP1 POP SWAP2 SWAP1 POP JUMP JUMPDEST PUSH1 0x0 DUP2 SWAP1 POP SWAP2 SWAP1 POP JUMP JUMPDEST DUP3 DUP2 DUP4 CALLDATACOPY PUSH1 0x0 DUP4 DUP4 ADD MSTORE POP POP POP JUMP JUMPDEST PUSH1 0x0 JUMPDEST DUP4 DUP2 LT ISZERO PUSH2 0x820 JUMPI DUP1 DUP3 ADD MLOAD DUP2 DUP5 ADD MSTORE PUSH1 0x20 DUP2 ADD SWAP1 POP PUSH2 0x805 JUMP JUMPDEST DUP4 DUP2 GT ISZERO PUSH2 0x82F JUMPI PUSH1 0x0 DUP5 DUP5 ADD MSTORE JUMPDEST POP POP POP POP JUMP JUMPDEST PUSH1 0x0 PUSH1 0x2 DUP3 DIV SWAP1 POP PUSH1 0x1 DUP3 AND DUP1 PUSH2 0x84D JUMPI PUSH1 0x7F DUP3 AND SWAP2 POP JUMPDEST PUSH1 0x20 DUP3 LT DUP2 EQ ISZERO PUSH2 0x861 JUMPI PUSH2 0x860 PUSH2 0x910 JUMP JUMPDEST JUMPDEST POP SWAP2 SWAP1 POP JUMP JUMPDEST PUSH2 0x870 DUP3 PUSH2 0x982 JUMP JUMPDEST DUP2 ADD DUP2 DUP2 LT PUSH8 0xFFFFFFFFFFFFFFFF DUP3 GT OR ISZERO PUSH2 0x88F JUMPI PUSH2 0x88E PUSH2 0x93F JUMP JUMPDEST JUMPDEST DUP1 PUSH1 0x40 MSTORE POP POP POP JUMP JUMPDEST PUSH1 0x0 PUSH2 0x8A3 DUP3 PUSH2 0x7E9 JUMP JUMPDEST SWAP2 POP PUSH32 0xFFFFFFFFFFFFFFFFFFFFFFFFFFFFFFFFFFFFFFFFFFFFFFFFFFFFFFFFFFFFFFFF DUP3 EQ ISZERO PUSH2 0x8D6 JUMPI PUSH2 0x8D5 PUSH2 0x8E1 JUMP JUMPDEST JUMPDEST PUSH1 0x1 DUP3 ADD SWAP1 POP SWAP2 SWAP1 POP JUMP JUMPDEST PUSH32 0x4E487B7100000000000000000000000000000000000000000000000000000000 PUSH1 0x0 MSTORE PUSH1 0x11 PUSH1 0x4 MSTORE PUSH1 0x24 PUSH1 0x0 REVERT JUMPDEST PUSH32 0x4E487B7100000000000000000000000000000000000000000000000000000000 PUSH1 0x0 MSTORE PUSH1 0x22 PUSH1 0x4 MSTORE PUSH1 0x24 PUSH1 0x0 REVERT JUMPDEST PUSH32 0x4E487B7100000000000000000000000000000000000000000000000000000000 PUSH1 0x0 MSTORE PUSH1 0x41 PUSH1 0x4 MSTORE PUSH1 0x24 PUSH1 0x0 REVERT JUMPDEST PUSH1 0x0 DUP1 REVERT JUMPDEST PUSH1 0x0 DUP1 REVERT JUMPDEST PUSH1 0x0 DUP1 REVERT JUMPDEST PUSH1 0x0 DUP1 REVERT JUMPDEST PUSH1 0x0 PUSH1 0x1F NOT PUSH1 0x1F DUP4 ADD AND SWAP1 POP SWAP2 SWAP1 POP JUMP INVALID LOG2 PUSH5 0x6970667358 0x22 SLT KECCAK256 0xDC 0x49 0x28 0xCA PUSH12 0x1FA66C3763EB52EB4F040E06 PUSH22 0x99140423916FE4EAEB59270F9A5564736F6C63430008 SMOD STOP CALLER "
				},
				"gasEstimates": {
					"creation": {
						"codeDepositCost": "501000",
						"executionCost": "5543",
						"totalCost": "506543"
					},
					"external": {
						"checkValidProfile()": "2674",
						"createProfile(string,string,string)": "infinite",
						"deleteProfile()": "24600",
						"getName()": "infinite",
						"numProfile()": "2407",
						"updateProfileName(string)": "infinite"
					}
				},
				"methodIdentifiers": {
					"checkValidProfile()": "3ae7dc1a",
					"createProfile(string,string,string)": "9841c82c",
					"deleteProfile()": "6d4540eb",
					"getName()": "17d7de7c",
					"numProfile()": "16913469",
					"updateProfileName(string)": "ee8b7cd9"
				}
			},
			"userdoc": {
				"kind": "user",
				"methods": {},
				"version": 1
			}
		}
	}
}