{
	"contracts/Profile.sol": {
		"Profile": {
			"abi": [
				{
					"anonymous": false,
					"inputs": [
						{
							"indexed": false,
							"internalType": "bool",
							"name": "successful",
							"type": "bool"
						}
					],
					"name": "serviceCreated",
					"type": "event"
				},
				{
					"inputs": [],
					"name": "checkValidProfile",
					"outputs": [
						{
							"internalType": "bool",
							"name": "",
							"type": "bool"
						}
					],
					"stateMutability": "view",
					"type": "function"
				},
				{
					"inputs": [
						{
							"internalType": "string",
							"name": "name",
							"type": "string"
						},
						{
							"internalType": "string",
							"name": "username",
							"type": "string"
						},
						{
							"internalType": "string",
							"name": "password",
							"type": "string"
						}
					],
					"name": "createProfile",
					"outputs": [],
					"stateMutability": "nonpayable",
					"type": "function"
				},
				{
					"inputs": [],
					"name": "deleteProfile",
					"outputs": [],
					"stateMutability": "nonpayable",
					"type": "function"
				},
				{
					"inputs": [],
					"name": "getName",
					"outputs": [
						{
							"internalType": "string",
							"name": "",
							"type": "string"
						}
					],
					"stateMutability": "view",
					"type": "function"
				},
				{
					"inputs": [],
					"name": "numProfile",
					"outputs": [
						{
							"internalType": "uint256",
							"name": "",
							"type": "uint256"
						}
					],
					"stateMutability": "view",
					"type": "function"
				},
				{
					"inputs": [
						{
							"internalType": "uint256",
							"name": "serviceNumber",
							"type": "uint256"
						}
					],
					"name": "putService",
					"outputs": [],
					"stateMutability": "nonpayable",
					"type": "function"
				},
				{
					"inputs": [
						{
							"internalType": "string",
							"name": "newName",
							"type": "string"
						}
					],
					"name": "updateProfileName",
					"outputs": [],
					"stateMutability": "nonpayable",
					"type": "function"
				}
			],
			"devdoc": {
				"kind": "dev",
				"methods": {},
				"version": 1
			},
			"evm": {
				"assembly": "    /* \"contracts/Profile.sol\":124:2342  contract Profile {... */\n  mstore(0x40, 0x80)\n    /* \"contracts/Profile.sol\":850:851  0 */\n  0x00\n    /* \"contracts/Profile.sol\":822:851  uint256 public numProfile = 0 */\n  0x03\n  sstore\n    /* \"contracts/Profile.sol\":124:2342  contract Profile {... */\n  callvalue\n  dup1\n  iszero\n  tag_1\n  jumpi\n  0x00\n  dup1\n  revert\ntag_1:\n  pop\n  dataSize(sub_0)\n  dup1\n  dataOffset(sub_0)\n  0x00\n  codecopy\n  0x00\n  return\nstop\n\nsub_0: assembly {\n        /* \"contracts/Profile.sol\":124:2342  contract Profile {... */\n      mstore(0x40, 0x80)\n      callvalue\n      dup1\n      iszero\n      tag_1\n      jumpi\n      0x00\n      dup1\n      revert\n    tag_1:\n      pop\n      jumpi(tag_2, lt(calldatasize, 0x04))\n      shr(0xe0, calldataload(0x00))\n      dup1\n      0x5544f6b4\n      gt\n      tag_10\n      jumpi\n      dup1\n      0x5544f6b4\n      eq\n      tag_6\n      jumpi\n      dup1\n      0x6d4540eb\n      eq\n      tag_7\n      jumpi\n      dup1\n      0x9841c82c\n      eq\n      tag_8\n      jumpi\n      dup1\n      0xee8b7cd9\n      eq\n      tag_9\n      jumpi\n      jump(tag_2)\n    tag_10:\n      dup1\n      0x16913469\n      eq\n      tag_3\n      jumpi\n      dup1\n      0x17d7de7c\n      eq\n      tag_4\n      jumpi\n      dup1\n      0x3ae7dc1a\n      eq\n      tag_5\n      jumpi\n    tag_2:\n      0x00\n      dup1\n      revert\n        /* \"contracts/Profile.sol\":822:851  uint256 public numProfile = 0 */\n    tag_3:\n      tag_11\n      tag_12\n      jump\t// in\n    tag_11:\n      mload(0x40)\n      tag_13\n      swap2\n      swap1\n      tag_14\n      jump\t// in\n    tag_13:\n      mload(0x40)\n      dup1\n      swap2\n      sub\n      swap1\n      return\n        /* \"contracts/Profile.sol\":1706:1832  function getName() external validProfile()  view returns ( string memory) {... */\n    tag_4:\n      tag_15\n      tag_16\n      jump\t// in\n    tag_15:\n      mload(0x40)\n      tag_17\n      swap2\n      swap1\n      tag_18\n      jump\t// in\n    tag_17:\n      mload(0x40)\n      dup1\n      swap2\n      sub\n      swap1\n      return\n        /* \"contracts/Profile.sol\":1891:2019  function checkValidProfile() external view returns (bool) {... */\n    tag_5:\n      tag_19\n      tag_20\n      jump\t// in\n    tag_19:\n      mload(0x40)\n      tag_21\n      swap2\n      swap1\n      tag_22\n      jump\t// in\n    tag_21:\n      mload(0x40)\n      dup1\n      swap2\n      sub\n      swap1\n      return\n        /* \"contracts/Profile.sol\":2058:2339  function putService(uint256 serviceNumber) external {... */\n    tag_6:\n      tag_23\n      0x04\n      dup1\n      calldatasize\n      sub\n      dup2\n      add\n      swap1\n      tag_24\n      swap2\n      swap1\n      tag_25\n      jump\t// in\n    tag_24:\n      tag_26\n      jump\t// in\n    tag_23:\n      stop\n        /* \"contracts/Profile.sol\":1270:1375  function deleteProfile() external {... */\n    tag_7:\n      tag_27\n      tag_28\n      jump\t// in\n    tag_27:\n      stop\n        /* \"contracts/Profile.sol\":949:1223  function createProfile(string memory name, string memory username, string memory password) external {... */\n    tag_8:\n      tag_29\n      0x04\n      dup1\n      calldatasize\n      sub\n      dup2\n      add\n      swap1\n      tag_30\n      swap2\n      swap1\n      tag_31\n      jump\t// in\n    tag_30:\n      tag_32\n      jump\t// in\n    tag_29:\n      stop\n        /* \"contracts/Profile.sol\":1422:1537  function updateProfileName(string memory newName) external {... */\n    tag_9:\n      tag_33\n      0x04\n      dup1\n      calldatasize\n      sub\n      dup2\n      add\n      swap1\n      tag_34\n      swap2\n      swap1\n      tag_35\n      jump\t// in\n    tag_34:\n      tag_36\n      jump\t// in\n    tag_33:\n      stop\n        /* \"contracts/Profile.sol\":822:851  uint256 public numProfile = 0 */\n    tag_12:\n      sload(0x03)\n      dup2\n      jump\t// out\n        /* \"contracts/Profile.sol\":1706:1832  function getName() external validProfile()  view returns ( string memory) {... */\n    tag_16:\n        /* \"contracts/Profile.sol\":1765:1778  string memory */\n      0x60\n        /* \"contracts/Profile.sol\":1620:1624  true */\n      0x01\n        /* \"contracts/Profile.sol\":1585:1624  profileList[msg.sender].created == true */\n      iszero\n      iszero\n        /* \"contracts/Profile.sol\":1585:1596  profileList */\n      0x00\n        /* \"contracts/Profile.sol\":1585:1608  profileList[msg.sender] */\n      dup1\n        /* \"contracts/Profile.sol\":1597:1607  msg.sender */\n      caller\n        /* \"contracts/Profile.sol\":1585:1608  profileList[msg.sender] */\n      0xffffffffffffffffffffffffffffffffffffffff\n      and\n      0xffffffffffffffffffffffffffffffffffffffff\n      and\n      dup2\n      mstore\n      0x20\n      add\n      swap1\n      dup2\n      mstore\n      0x20\n      add\n      0x00\n      keccak256\n        /* \"contracts/Profile.sol\":1585:1616  profileList[msg.sender].created */\n      0x03\n      add\n      0x14\n      swap1\n      sload\n      swap1\n      0x0100\n      exp\n      swap1\n      div\n      0xff\n      and\n        /* \"contracts/Profile.sol\":1585:1624  profileList[msg.sender].created == true */\n      iszero\n      iszero\n      eq\n        /* \"contracts/Profile.sol\":1577:1625  require(profileList[msg.sender].created == true) */\n      tag_38\n      jumpi\n      0x00\n      dup1\n      revert\n    tag_38:\n        /* \"contracts/Profile.sol\":1797:1808  profileList */\n      0x00\n        /* \"contracts/Profile.sol\":1797:1820  profileList[msg.sender] */\n      dup1\n        /* \"contracts/Profile.sol\":1809:1819  msg.sender */\n      caller\n        /* \"contracts/Profile.sol\":1797:1820  profileList[msg.sender] */\n      0xffffffffffffffffffffffffffffffffffffffff\n      and\n      0xffffffffffffffffffffffffffffffffffffffff\n      and\n      dup2\n      mstore\n      0x20\n      add\n      swap1\n      dup2\n      mstore\n      0x20\n      add\n      0x00\n      keccak256\n        /* \"contracts/Profile.sol\":1797:1825  profileList[msg.sender].name */\n      0x00\n      add\n        /* \"contracts/Profile.sol\":1790:1825  return profileList[msg.sender].name */\n      dup1\n      sload\n      tag_40\n      swap1\n      tag_41\n      jump\t// in\n    tag_40:\n      dup1\n      0x1f\n      add\n      0x20\n      dup1\n      swap2\n      div\n      mul\n      0x20\n      add\n      mload(0x40)\n      swap1\n      dup2\n      add\n      0x40\n      mstore\n      dup1\n      swap3\n      swap2\n      swap1\n      dup2\n      dup2\n      mstore\n      0x20\n      add\n      dup3\n      dup1\n      sload\n      tag_42\n      swap1\n      tag_41\n      jump\t// in\n    tag_42:\n      dup1\n      iszero\n      tag_43\n      jumpi\n      dup1\n      0x1f\n      lt\n      tag_44\n      jumpi\n      0x0100\n      dup1\n      dup4\n      sload\n      div\n      mul\n      dup4\n      mstore\n      swap2\n      0x20\n      add\n      swap2\n      jump(tag_43)\n    tag_44:\n      dup3\n      add\n      swap2\n      swap1\n      0x00\n      mstore\n      keccak256(0x00, 0x20)\n      swap1\n    tag_45:\n      dup2\n      sload\n      dup2\n      mstore\n      swap1\n      0x01\n      add\n      swap1\n      0x20\n      add\n      dup1\n      dup4\n      gt\n      tag_45\n      jumpi\n      dup3\n      swap1\n      sub\n      0x1f\n      and\n      dup3\n      add\n      swap2\n    tag_43:\n      pop\n      pop\n      pop\n      pop\n      pop\n      swap1\n      pop\n        /* \"contracts/Profile.sol\":1706:1832  function getName() external validProfile()  view returns ( string memory) {... */\n      swap1\n      jump\t// out\n        /* \"contracts/Profile.sol\":1891:2019  function checkValidProfile() external view returns (bool) {... */\n    tag_20:\n        /* \"contracts/Profile.sol\":1943:1947  bool */\n      0x00\n        /* \"contracts/Profile.sol\":1966:1977  profileList */\n      dup1\n        /* \"contracts/Profile.sol\":1966:1989  profileList[msg.sender] */\n      0x00\n        /* \"contracts/Profile.sol\":1978:1988  msg.sender */\n      caller\n        /* \"contracts/Profile.sol\":1966:1989  profileList[msg.sender] */\n      0xffffffffffffffffffffffffffffffffffffffff\n      and\n      0xffffffffffffffffffffffffffffffffffffffff\n      and\n      dup2\n      mstore\n      0x20\n      add\n      swap1\n      dup2\n      mstore\n      0x20\n      add\n      0x00\n      keccak256\n        /* \"contracts/Profile.sol\":1966:1997  profileList[msg.sender].created */\n      0x03\n      add\n      0x14\n      swap1\n      sload\n      swap1\n      0x0100\n      exp\n      swap1\n      div\n      0xff\n      and\n        /* \"contracts/Profile.sol\":1966:2012  profileList[msg.sender].created ? true : false */\n      tag_47\n      jumpi\n        /* \"contracts/Profile.sol\":2007:2012  false */\n      0x00\n        /* \"contracts/Profile.sol\":1966:2012  profileList[msg.sender].created ? true : false */\n      jump(tag_48)\n    tag_47:\n        /* \"contracts/Profile.sol\":2000:2004  true */\n      0x01\n        /* \"contracts/Profile.sol\":1966:2012  profileList[msg.sender].created ? true : false */\n    tag_48:\n        /* \"contracts/Profile.sol\":1959:2012  return profileList[msg.sender].created ? true : false */\n      swap1\n      pop\n        /* \"contracts/Profile.sol\":1891:2019  function checkValidProfile() external view returns (bool) {... */\n      swap1\n      jump\t// out\n        /* \"contracts/Profile.sol\":2058:2339  function putService(uint256 serviceNumber) external {... */\n    tag_26:\n        /* \"contracts/Profile.sol\":2163:2168  false */\n      0x00\n        /* \"contracts/Profile.sol\":2124:2168  services[msg.sender][serviceNumber] == false */\n      iszero\n      iszero\n        /* \"contracts/Profile.sol\":2124:2132  services */\n      0x01\n        /* \"contracts/Profile.sol\":2124:2144  services[msg.sender] */\n      0x00\n        /* \"contracts/Profile.sol\":2133:2143  msg.sender */\n      caller\n        /* \"contracts/Profile.sol\":2124:2144  services[msg.sender] */\n      0xffffffffffffffffffffffffffffffffffffffff\n      and\n      0xffffffffffffffffffffffffffffffffffffffff\n      and\n      dup2\n      mstore\n      0x20\n      add\n      swap1\n      dup2\n      mstore\n      0x20\n      add\n      0x00\n      keccak256\n        /* \"contracts/Profile.sol\":2124:2159  services[msg.sender][serviceNumber] */\n      0x00\n        /* \"contracts/Profile.sol\":2145:2158  serviceNumber */\n      dup4\n        /* \"contracts/Profile.sol\":2124:2159  services[msg.sender][serviceNumber] */\n      dup2\n      mstore\n      0x20\n      add\n      swap1\n      dup2\n      mstore\n      0x20\n      add\n      0x00\n      keccak256\n      0x00\n      swap1\n      sload\n      swap1\n      0x0100\n      exp\n      swap1\n      div\n      0xff\n      and\n        /* \"contracts/Profile.sol\":2124:2168  services[msg.sender][serviceNumber] == false */\n      iszero\n      iszero\n      eq\n        /* \"contracts/Profile.sol\":2120:2333  if (services[msg.sender][serviceNumber] == false) {... */\n      iszero\n      tag_50\n      jumpi\n        /* \"contracts/Profile.sol\":2222:2226  true */\n      0x01\n        /* \"contracts/Profile.sol\":2184:2192  services */\n      dup1\n        /* \"contracts/Profile.sol\":2184:2204  services[msg.sender] */\n      0x00\n        /* \"contracts/Profile.sol\":2193:2203  msg.sender */\n      caller\n        /* \"contracts/Profile.sol\":2184:2204  services[msg.sender] */\n      0xffffffffffffffffffffffffffffffffffffffff\n      and\n      0xffffffffffffffffffffffffffffffffffffffff\n      and\n      dup2\n      mstore\n      0x20\n      add\n      swap1\n      dup2\n      mstore\n      0x20\n      add\n      0x00\n      keccak256\n        /* \"contracts/Profile.sol\":2184:2219  services[msg.sender][serviceNumber] */\n      0x00\n        /* \"contracts/Profile.sol\":2205:2218  serviceNumber */\n      dup4\n        /* \"contracts/Profile.sol\":2184:2219  services[msg.sender][serviceNumber] */\n      dup2\n      mstore\n      0x20\n      add\n      swap1\n      dup2\n      mstore\n      0x20\n      add\n      0x00\n      keccak256\n      0x00\n        /* \"contracts/Profile.sol\":2184:2226  services[msg.sender][serviceNumber] = true */\n      0x0100\n      exp\n      dup2\n      sload\n      dup2\n      0xff\n      mul\n      not\n      and\n      swap1\n      dup4\n      iszero\n      iszero\n      mul\n      or\n      swap1\n      sstore\n      pop\n        /* \"contracts/Profile.sol\":2245:2265  serviceCreated(true) */\n      0x141f0f98191bb867d14e65d7d6496cba0add11cde65dc83f66c03f1dc876c5f1\n        /* \"contracts/Profile.sol\":2260:2264  true */\n      0x01\n        /* \"contracts/Profile.sol\":2245:2265  serviceCreated(true) */\n      mload(0x40)\n      tag_51\n      swap2\n      swap1\n      tag_22\n      jump\t// in\n    tag_51:\n      mload(0x40)\n      dup1\n      swap2\n      sub\n      swap1\n      log1\n        /* \"contracts/Profile.sol\":2120:2333  if (services[msg.sender][serviceNumber] == false) {... */\n      jump(tag_52)\n    tag_50:\n        /* \"contracts/Profile.sol\":2301:2322  serviceCreated(false) */\n      0x141f0f98191bb867d14e65d7d6496cba0add11cde65dc83f66c03f1dc876c5f1\n        /* \"contracts/Profile.sol\":2316:2321  false */\n      0x00\n        /* \"contracts/Profile.sol\":2301:2322  serviceCreated(false) */\n      mload(0x40)\n      tag_53\n      swap2\n      swap1\n      tag_22\n      jump\t// in\n    tag_53:\n      mload(0x40)\n      dup1\n      swap2\n      sub\n      swap1\n      log1\n        /* \"contracts/Profile.sol\":2120:2333  if (services[msg.sender][serviceNumber] == false) {... */\n    tag_52:\n        /* \"contracts/Profile.sol\":2058:2339  function putService(uint256 serviceNumber) external {... */\n      pop\n      jump\t// out\n        /* \"contracts/Profile.sol\":1270:1375  function deleteProfile() external {... */\n    tag_28:\n        /* \"contracts/Profile.sol\":1348:1353  false */\n      0x00\n        /* \"contracts/Profile.sol\":1314:1325  profileList */\n      dup1\n        /* \"contracts/Profile.sol\":1314:1337  profileList[msg.sender] */\n      0x00\n        /* \"contracts/Profile.sol\":1326:1336  msg.sender */\n      caller\n        /* \"contracts/Profile.sol\":1314:1337  profileList[msg.sender] */\n      0xffffffffffffffffffffffffffffffffffffffff\n      and\n      0xffffffffffffffffffffffffffffffffffffffff\n      and\n      dup2\n      mstore\n      0x20\n      add\n      swap1\n      dup2\n      mstore\n      0x20\n      add\n      0x00\n      keccak256\n        /* \"contracts/Profile.sol\":1314:1345  profileList[msg.sender].created */\n      0x03\n      add\n      0x14\n        /* \"contracts/Profile.sol\":1314:1353  profileList[msg.sender].created = false */\n      0x0100\n      exp\n      dup2\n      sload\n      dup2\n      0xff\n      mul\n      not\n      and\n      swap1\n      dup4\n      iszero\n      iszero\n      mul\n      or\n      swap1\n      sstore\n      pop\n        /* \"contracts/Profile.sol\":1270:1375  function deleteProfile() external {... */\n      jump\t// out\n        /* \"contracts/Profile.sol\":949:1223  function createProfile(string memory name, string memory username, string memory password) external {... */\n    tag_32:\n        /* \"contracts/Profile.sol\":1059:1084  profile memory newProfile */\n      0x00\n        /* \"contracts/Profile.sol\":1087:1134  profile(name,username,password,msg.sender,true) */\n      mload(0x40)\n      dup1\n      0xa0\n      add\n      0x40\n      mstore\n      dup1\n        /* \"contracts/Profile.sol\":1095:1099  name */\n      dup6\n        /* \"contracts/Profile.sol\":1087:1134  profile(name,username,password,msg.sender,true) */\n      dup2\n      mstore\n      0x20\n      add\n        /* \"contracts/Profile.sol\":1100:1108  username */\n      dup5\n        /* \"contracts/Profile.sol\":1087:1134  profile(name,username,password,msg.sender,true) */\n      dup2\n      mstore\n      0x20\n      add\n        /* \"contracts/Profile.sol\":1109:1117  password */\n      dup4\n        /* \"contracts/Profile.sol\":1087:1134  profile(name,username,password,msg.sender,true) */\n      dup2\n      mstore\n      0x20\n      add\n        /* \"contracts/Profile.sol\":1118:1128  msg.sender */\n      caller\n        /* \"contracts/Profile.sol\":1087:1134  profile(name,username,password,msg.sender,true) */\n      0xffffffffffffffffffffffffffffffffffffffff\n      and\n      dup2\n      mstore\n      0x20\n      add\n        /* \"contracts/Profile.sol\":1129:1133  true */\n      0x01\n        /* \"contracts/Profile.sol\":1087:1134  profile(name,username,password,msg.sender,true) */\n      iszero\n      iszero\n      dup2\n      mstore\n      pop\n        /* \"contracts/Profile.sol\":1059:1134  profile memory newProfile = profile(name,username,password,msg.sender,true) */\n      swap1\n      pop\n        /* \"contracts/Profile.sol\":1170:1180  newProfile */\n      dup1\n        /* \"contracts/Profile.sol\":1144:1155  profileList */\n      0x00\n        /* \"contracts/Profile.sol\":1144:1167  profileList[msg.sender] */\n      dup1\n        /* \"contracts/Profile.sol\":1156:1166  msg.sender */\n      caller\n        /* \"contracts/Profile.sol\":1144:1167  profileList[msg.sender] */\n      0xffffffffffffffffffffffffffffffffffffffff\n      and\n      0xffffffffffffffffffffffffffffffffffffffff\n      and\n      dup2\n      mstore\n      0x20\n      add\n      swap1\n      dup2\n      mstore\n      0x20\n      add\n      0x00\n      keccak256\n        /* \"contracts/Profile.sol\":1144:1180  profileList[msg.sender] = newProfile */\n      0x00\n      dup3\n      add\n      mload\n      dup2\n      0x00\n      add\n      swap1\n      dup1\n      mload\n      swap1\n      0x20\n      add\n      swap1\n      tag_56\n      swap3\n      swap2\n      swap1\n      tag_57\n      jump\t// in\n    tag_56:\n      pop\n      0x20\n      dup3\n      add\n      mload\n      dup2\n      0x01\n      add\n      swap1\n      dup1\n      mload\n      swap1\n      0x20\n      add\n      swap1\n      tag_58\n      swap3\n      swap2\n      swap1\n      tag_57\n      jump\t// in\n    tag_58:\n      pop\n      0x40\n      dup3\n      add\n      mload\n      dup2\n      0x02\n      add\n      swap1\n      dup1\n      mload\n      swap1\n      0x20\n      add\n      swap1\n      tag_59\n      swap3\n      swap2\n      swap1\n      tag_57\n      jump\t// in\n    tag_59:\n      pop\n      0x60\n      dup3\n      add\n      mload\n      dup2\n      0x03\n      add\n      exp(0x0100, 0x00)\n      dup2\n      sload\n      dup2\n      0xffffffffffffffffffffffffffffffffffffffff\n      mul\n      not\n      and\n      swap1\n      dup4\n      0xffffffffffffffffffffffffffffffffffffffff\n      and\n      mul\n      or\n      swap1\n      sstore\n      pop\n      0x80\n      dup3\n      add\n      mload\n      dup2\n      0x03\n      add\n      exp(0x0100, 0x14)\n      dup2\n      sload\n      dup2\n      0xff\n      mul\n      not\n      and\n      swap1\n      dup4\n      iszero\n      iszero\n      mul\n      or\n      swap1\n      sstore\n      pop\n      swap1\n      pop\n      pop\n        /* \"contracts/Profile.sol\":1203:1213  numProfile */\n      0x03\n      0x00\n        /* \"contracts/Profile.sol\":1203:1216  numProfile ++ */\n      dup2\n      sload\n      dup1\n      swap3\n      swap2\n      swap1\n      tag_60\n      swap1\n      tag_61\n      jump\t// in\n    tag_60:\n      swap2\n      swap1\n      pop\n      sstore\n        /* \"contracts/Profile.sol\":1190:1200  numProfile */\n      0x03\n        /* \"contracts/Profile.sol\":1190:1216  numProfile = numProfile ++ */\n      dup2\n      swap1\n      sstore\n      pop\n        /* \"contracts/Profile.sol\":1049:1223  {... */\n      pop\n        /* \"contracts/Profile.sol\":949:1223  function createProfile(string memory name, string memory username, string memory password) external {... */\n      pop\n      pop\n      pop\n      jump\t// out\n        /* \"contracts/Profile.sol\":1422:1537  function updateProfileName(string memory newName) external {... */\n    tag_36:\n        /* \"contracts/Profile.sol\":1522:1529  newName */\n      dup1\n        /* \"contracts/Profile.sol\":1491:1502  profileList */\n      0x00\n        /* \"contracts/Profile.sol\":1491:1514  profileList[msg.sender] */\n      dup1\n        /* \"contracts/Profile.sol\":1503:1513  msg.sender */\n      caller\n        /* \"contracts/Profile.sol\":1491:1514  profileList[msg.sender] */\n      0xffffffffffffffffffffffffffffffffffffffff\n      and\n      0xffffffffffffffffffffffffffffffffffffffff\n      and\n      dup2\n      mstore\n      0x20\n      add\n      swap1\n      dup2\n      mstore\n      0x20\n      add\n      0x00\n      keccak256\n        /* \"contracts/Profile.sol\":1491:1519  profileList[msg.sender].name */\n      0x00\n      add\n        /* \"contracts/Profile.sol\":1491:1529  profileList[msg.sender].name = newName */\n      swap1\n      dup1\n      mload\n      swap1\n      0x20\n      add\n      swap1\n      tag_63\n      swap3\n      swap2\n      swap1\n      tag_57\n      jump\t// in\n    tag_63:\n      pop\n        /* \"contracts/Profile.sol\":1422:1537  function updateProfileName(string memory newName) external {... */\n      pop\n      jump\t// out\n    tag_57:\n      dup3\n      dup1\n      sload\n      tag_64\n      swap1\n      tag_41\n      jump\t// in\n    tag_64:\n      swap1\n      0x00\n      mstore\n      keccak256(0x00, 0x20)\n      swap1\n      0x1f\n      add\n      0x20\n      swap1\n      div\n      dup2\n      add\n      swap3\n      dup3\n      tag_66\n      jumpi\n      0x00\n      dup6\n      sstore\n      jump(tag_65)\n    tag_66:\n      dup3\n      0x1f\n      lt\n      tag_67\n      jumpi\n      dup1\n      mload\n      not(0xff)\n      and\n      dup4\n      dup1\n      add\n      or\n      dup6\n      sstore\n      jump(tag_65)\n    tag_67:\n      dup3\n      dup1\n      add\n      0x01\n      add\n      dup6\n      sstore\n      dup3\n      iszero\n      tag_65\n      jumpi\n      swap2\n      dup3\n      add\n    tag_68:\n      dup3\n      dup2\n      gt\n      iszero\n      tag_69\n      jumpi\n      dup3\n      mload\n      dup3\n      sstore\n      swap2\n      0x20\n      add\n      swap2\n      swap1\n      0x01\n      add\n      swap1\n      jump(tag_68)\n    tag_69:\n    tag_65:\n      pop\n      swap1\n      pop\n      tag_70\n      swap2\n      swap1\n      tag_71\n      jump\t// in\n    tag_70:\n      pop\n      swap1\n      jump\t// out\n    tag_71:\n    tag_72:\n      dup1\n      dup3\n      gt\n      iszero\n      tag_73\n      jumpi\n      0x00\n      dup2\n      0x00\n      swap1\n      sstore\n      pop\n      0x01\n      add\n      jump(tag_72)\n    tag_73:\n      pop\n      swap1\n      jump\t// out\n        /* \"#utility.yul\":7:419   */\n    tag_75:\n        /* \"#utility.yul\":85:90   */\n      0x00\n        /* \"#utility.yul\":110:176   */\n      tag_77\n        /* \"#utility.yul\":126:175   */\n      tag_78\n        /* \"#utility.yul\":168:174   */\n      dup5\n        /* \"#utility.yul\":126:175   */\n      tag_79\n      jump\t// in\n    tag_78:\n        /* \"#utility.yul\":110:176   */\n      tag_80\n      jump\t// in\n    tag_77:\n        /* \"#utility.yul\":101:176   */\n      swap1\n      pop\n        /* \"#utility.yul\":199:205   */\n      dup3\n        /* \"#utility.yul\":192:197   */\n      dup2\n        /* \"#utility.yul\":185:206   */\n      mstore\n        /* \"#utility.yul\":237:241   */\n      0x20\n        /* \"#utility.yul\":230:235   */\n      dup2\n        /* \"#utility.yul\":226:242   */\n      add\n        /* \"#utility.yul\":275:278   */\n      dup5\n        /* \"#utility.yul\":266:272   */\n      dup5\n        /* \"#utility.yul\":261:264   */\n      dup5\n        /* \"#utility.yul\":257:273   */\n      add\n        /* \"#utility.yul\":254:279   */\n      gt\n        /* \"#utility.yul\":251:363   */\n      iszero\n      tag_81\n      jumpi\n        /* \"#utility.yul\":282:361   */\n      tag_82\n      tag_83\n      jump\t// in\n    tag_82:\n        /* \"#utility.yul\":251:363   */\n    tag_81:\n        /* \"#utility.yul\":372:413   */\n      tag_84\n        /* \"#utility.yul\":406:412   */\n      dup5\n        /* \"#utility.yul\":401:404   */\n      dup3\n        /* \"#utility.yul\":396:399   */\n      dup6\n        /* \"#utility.yul\":372:413   */\n      tag_85\n      jump\t// in\n    tag_84:\n        /* \"#utility.yul\":91:419   */\n      pop\n        /* \"#utility.yul\":7:419   */\n      swap4\n      swap3\n      pop\n      pop\n      pop\n      jump\t// out\n        /* \"#utility.yul\":439:779   */\n    tag_86:\n        /* \"#utility.yul\":495:500   */\n      0x00\n        /* \"#utility.yul\":544:547   */\n      dup3\n        /* \"#utility.yul\":537:541   */\n      0x1f\n        /* \"#utility.yul\":529:535   */\n      dup4\n        /* \"#utility.yul\":525:542   */\n      add\n        /* \"#utility.yul\":521:548   */\n      slt\n        /* \"#utility.yul\":511:633   */\n      tag_88\n      jumpi\n        /* \"#utility.yul\":552:631   */\n      tag_89\n      tag_90\n      jump\t// in\n    tag_89:\n        /* \"#utility.yul\":511:633   */\n    tag_88:\n        /* \"#utility.yul\":669:675   */\n      dup2\n        /* \"#utility.yul\":656:676   */\n      calldataload\n        /* \"#utility.yul\":694:773   */\n      tag_91\n        /* \"#utility.yul\":769:772   */\n      dup5\n        /* \"#utility.yul\":761:767   */\n      dup3\n        /* \"#utility.yul\":754:758   */\n      0x20\n        /* \"#utility.yul\":746:752   */\n      dup7\n        /* \"#utility.yul\":742:759   */\n      add\n        /* \"#utility.yul\":694:773   */\n      tag_75\n      jump\t// in\n    tag_91:\n        /* \"#utility.yul\":685:773   */\n      swap2\n      pop\n        /* \"#utility.yul\":501:779   */\n      pop\n        /* \"#utility.yul\":439:779   */\n      swap3\n      swap2\n      pop\n      pop\n      jump\t// out\n        /* \"#utility.yul\":785:924   */\n    tag_92:\n        /* \"#utility.yul\":831:836   */\n      0x00\n        /* \"#utility.yul\":869:875   */\n      dup2\n        /* \"#utility.yul\":856:876   */\n      calldataload\n        /* \"#utility.yul\":847:876   */\n      swap1\n      pop\n        /* \"#utility.yul\":885:918   */\n      tag_94\n        /* \"#utility.yul\":912:917   */\n      dup2\n        /* \"#utility.yul\":885:918   */\n      tag_95\n      jump\t// in\n    tag_94:\n        /* \"#utility.yul\":785:924   */\n      swap3\n      swap2\n      pop\n      pop\n      jump\t// out\n        /* \"#utility.yul\":930:1439   */\n    tag_35:\n        /* \"#utility.yul\":999:1005   */\n      0x00\n        /* \"#utility.yul\":1048:1050   */\n      0x20\n        /* \"#utility.yul\":1036:1045   */\n      dup3\n        /* \"#utility.yul\":1027:1034   */\n      dup5\n        /* \"#utility.yul\":1023:1046   */\n      sub\n        /* \"#utility.yul\":1019:1051   */\n      slt\n        /* \"#utility.yul\":1016:1135   */\n      iszero\n      tag_97\n      jumpi\n        /* \"#utility.yul\":1054:1133   */\n      tag_98\n      tag_99\n      jump\t// in\n    tag_98:\n        /* \"#utility.yul\":1016:1135   */\n    tag_97:\n        /* \"#utility.yul\":1202:1203   */\n      0x00\n        /* \"#utility.yul\":1191:1200   */\n      dup3\n        /* \"#utility.yul\":1187:1204   */\n      add\n        /* \"#utility.yul\":1174:1205   */\n      calldataload\n        /* \"#utility.yul\":1232:1250   */\n      0xffffffffffffffff\n        /* \"#utility.yul\":1224:1230   */\n      dup2\n        /* \"#utility.yul\":1221:1251   */\n      gt\n        /* \"#utility.yul\":1218:1335   */\n      iszero\n      tag_100\n      jumpi\n        /* \"#utility.yul\":1254:1333   */\n      tag_101\n      tag_102\n      jump\t// in\n    tag_101:\n        /* \"#utility.yul\":1218:1335   */\n    tag_100:\n        /* \"#utility.yul\":1359:1422   */\n      tag_103\n        /* \"#utility.yul\":1414:1421   */\n      dup5\n        /* \"#utility.yul\":1405:1411   */\n      dup3\n        /* \"#utility.yul\":1394:1403   */\n      dup6\n        /* \"#utility.yul\":1390:1412   */\n      add\n        /* \"#utility.yul\":1359:1422   */\n      tag_86\n      jump\t// in\n    tag_103:\n        /* \"#utility.yul\":1349:1422   */\n      swap2\n      pop\n        /* \"#utility.yul\":1145:1432   */\n      pop\n        /* \"#utility.yul\":930:1439   */\n      swap3\n      swap2\n      pop\n      pop\n      jump\t// out\n        /* \"#utility.yul\":1445:2604   */\n    tag_31:\n        /* \"#utility.yul\":1552:1558   */\n      0x00\n        /* \"#utility.yul\":1560:1566   */\n      dup1\n        /* \"#utility.yul\":1568:1574   */\n      0x00\n        /* \"#utility.yul\":1617:1619   */\n      0x60\n        /* \"#utility.yul\":1605:1614   */\n      dup5\n        /* \"#utility.yul\":1596:1603   */\n      dup7\n        /* \"#utility.yul\":1592:1615   */\n      sub\n        /* \"#utility.yul\":1588:1620   */\n      slt\n        /* \"#utility.yul\":1585:1704   */\n      iszero\n      tag_105\n      jumpi\n        /* \"#utility.yul\":1623:1702   */\n      tag_106\n      tag_99\n      jump\t// in\n    tag_106:\n        /* \"#utility.yul\":1585:1704   */\n    tag_105:\n        /* \"#utility.yul\":1771:1772   */\n      0x00\n        /* \"#utility.yul\":1760:1769   */\n      dup5\n        /* \"#utility.yul\":1756:1773   */\n      add\n        /* \"#utility.yul\":1743:1774   */\n      calldataload\n        /* \"#utility.yul\":1801:1819   */\n      0xffffffffffffffff\n        /* \"#utility.yul\":1793:1799   */\n      dup2\n        /* \"#utility.yul\":1790:1820   */\n      gt\n        /* \"#utility.yul\":1787:1904   */\n      iszero\n      tag_107\n      jumpi\n        /* \"#utility.yul\":1823:1902   */\n      tag_108\n      tag_102\n      jump\t// in\n    tag_108:\n        /* \"#utility.yul\":1787:1904   */\n    tag_107:\n        /* \"#utility.yul\":1928:1991   */\n      tag_109\n        /* \"#utility.yul\":1983:1990   */\n      dup7\n        /* \"#utility.yul\":1974:1980   */\n      dup3\n        /* \"#utility.yul\":1963:1972   */\n      dup8\n        /* \"#utility.yul\":1959:1981   */\n      add\n        /* \"#utility.yul\":1928:1991   */\n      tag_86\n      jump\t// in\n    tag_109:\n        /* \"#utility.yul\":1918:1991   */\n      swap4\n      pop\n        /* \"#utility.yul\":1714:2001   */\n      pop\n        /* \"#utility.yul\":2068:2070   */\n      0x20\n        /* \"#utility.yul\":2057:2066   */\n      dup5\n        /* \"#utility.yul\":2053:2071   */\n      add\n        /* \"#utility.yul\":2040:2072   */\n      calldataload\n        /* \"#utility.yul\":2099:2117   */\n      0xffffffffffffffff\n        /* \"#utility.yul\":2091:2097   */\n      dup2\n        /* \"#utility.yul\":2088:2118   */\n      gt\n        /* \"#utility.yul\":2085:2202   */\n      iszero\n      tag_110\n      jumpi\n        /* \"#utility.yul\":2121:2200   */\n      tag_111\n      tag_102\n      jump\t// in\n    tag_111:\n        /* \"#utility.yul\":2085:2202   */\n    tag_110:\n        /* \"#utility.yul\":2226:2289   */\n      tag_112\n        /* \"#utility.yul\":2281:2288   */\n      dup7\n        /* \"#utility.yul\":2272:2278   */\n      dup3\n        /* \"#utility.yul\":2261:2270   */\n      dup8\n        /* \"#utility.yul\":2257:2279   */\n      add\n        /* \"#utility.yul\":2226:2289   */\n      tag_86\n      jump\t// in\n    tag_112:\n        /* \"#utility.yul\":2216:2289   */\n      swap3\n      pop\n        /* \"#utility.yul\":2011:2299   */\n      pop\n        /* \"#utility.yul\":2366:2368   */\n      0x40\n        /* \"#utility.yul\":2355:2364   */\n      dup5\n        /* \"#utility.yul\":2351:2369   */\n      add\n        /* \"#utility.yul\":2338:2370   */\n      calldataload\n        /* \"#utility.yul\":2397:2415   */\n      0xffffffffffffffff\n        /* \"#utility.yul\":2389:2395   */\n      dup2\n        /* \"#utility.yul\":2386:2416   */\n      gt\n        /* \"#utility.yul\":2383:2500   */\n      iszero\n      tag_113\n      jumpi\n        /* \"#utility.yul\":2419:2498   */\n      tag_114\n      tag_102\n      jump\t// in\n    tag_114:\n        /* \"#utility.yul\":2383:2500   */\n    tag_113:\n        /* \"#utility.yul\":2524:2587   */\n      tag_115\n        /* \"#utility.yul\":2579:2586   */\n      dup7\n        /* \"#utility.yul\":2570:2576   */\n      dup3\n        /* \"#utility.yul\":2559:2568   */\n      dup8\n        /* \"#utility.yul\":2555:2577   */\n      add\n        /* \"#utility.yul\":2524:2587   */\n      tag_86\n      jump\t// in\n    tag_115:\n        /* \"#utility.yul\":2514:2587   */\n      swap2\n      pop\n        /* \"#utility.yul\":2309:2597   */\n      pop\n        /* \"#utility.yul\":1445:2604   */\n      swap3\n      pop\n      swap3\n      pop\n      swap3\n      jump\t// out\n        /* \"#utility.yul\":2610:2939   */\n    tag_25:\n        /* \"#utility.yul\":2669:2675   */\n      0x00\n        /* \"#utility.yul\":2718:2720   */\n      0x20\n        /* \"#utility.yul\":2706:2715   */\n      dup3\n        /* \"#utility.yul\":2697:2704   */\n      dup5\n        /* \"#utility.yul\":2693:2716   */\n      sub\n        /* \"#utility.yul\":2689:2721   */\n      slt\n        /* \"#utility.yul\":2686:2805   */\n      iszero\n      tag_117\n      jumpi\n        /* \"#utility.yul\":2724:2803   */\n      tag_118\n      tag_99\n      jump\t// in\n    tag_118:\n        /* \"#utility.yul\":2686:2805   */\n    tag_117:\n        /* \"#utility.yul\":2844:2845   */\n      0x00\n        /* \"#utility.yul\":2869:2922   */\n      tag_119\n        /* \"#utility.yul\":2914:2921   */\n      dup5\n        /* \"#utility.yul\":2905:2911   */\n      dup3\n        /* \"#utility.yul\":2894:2903   */\n      dup6\n        /* \"#utility.yul\":2890:2912   */\n      add\n        /* \"#utility.yul\":2869:2922   */\n      tag_92\n      jump\t// in\n    tag_119:\n        /* \"#utility.yul\":2859:2922   */\n      swap2\n      pop\n        /* \"#utility.yul\":2815:2932   */\n      pop\n        /* \"#utility.yul\":2610:2939   */\n      swap3\n      swap2\n      pop\n      pop\n      jump\t// out\n        /* \"#utility.yul\":2945:3054   */\n    tag_120:\n        /* \"#utility.yul\":3026:3047   */\n      tag_122\n        /* \"#utility.yul\":3041:3046   */\n      dup2\n        /* \"#utility.yul\":3026:3047   */\n      tag_123\n      jump\t// in\n    tag_122:\n        /* \"#utility.yul\":3021:3024   */\n      dup3\n        /* \"#utility.yul\":3014:3048   */\n      mstore\n        /* \"#utility.yul\":2945:3054   */\n      pop\n      pop\n      jump\t// out\n        /* \"#utility.yul\":3060:3424   */\n    tag_124:\n        /* \"#utility.yul\":3148:3151   */\n      0x00\n        /* \"#utility.yul\":3176:3215   */\n      tag_126\n        /* \"#utility.yul\":3209:3214   */\n      dup3\n        /* \"#utility.yul\":3176:3215   */\n      tag_127\n      jump\t// in\n    tag_126:\n        /* \"#utility.yul\":3231:3302   */\n      tag_128\n        /* \"#utility.yul\":3295:3301   */\n      dup2\n        /* \"#utility.yul\":3290:3293   */\n      dup6\n        /* \"#utility.yul\":3231:3302   */\n      tag_129\n      jump\t// in\n    tag_128:\n        /* \"#utility.yul\":3224:3302   */\n      swap4\n      pop\n        /* \"#utility.yul\":3311:3363   */\n      tag_130\n        /* \"#utility.yul\":3356:3362   */\n      dup2\n        /* \"#utility.yul\":3351:3354   */\n      dup6\n        /* \"#utility.yul\":3344:3348   */\n      0x20\n        /* \"#utility.yul\":3337:3342   */\n      dup7\n        /* \"#utility.yul\":3333:3349   */\n      add\n        /* \"#utility.yul\":3311:3363   */\n      tag_131\n      jump\t// in\n    tag_130:\n        /* \"#utility.yul\":3388:3417   */\n      tag_132\n        /* \"#utility.yul\":3410:3416   */\n      dup2\n        /* \"#utility.yul\":3388:3417   */\n      tag_133\n      jump\t// in\n    tag_132:\n        /* \"#utility.yul\":3383:3386   */\n      dup5\n        /* \"#utility.yul\":3379:3418   */\n      add\n        /* \"#utility.yul\":3372:3418   */\n      swap2\n      pop\n        /* \"#utility.yul\":3152:3424   */\n      pop\n        /* \"#utility.yul\":3060:3424   */\n      swap3\n      swap2\n      pop\n      pop\n      jump\t// out\n        /* \"#utility.yul\":3430:3548   */\n    tag_134:\n        /* \"#utility.yul\":3517:3541   */\n      tag_136\n        /* \"#utility.yul\":3535:3540   */\n      dup2\n        /* \"#utility.yul\":3517:3541   */\n      tag_137\n      jump\t// in\n    tag_136:\n        /* \"#utility.yul\":3512:3515   */\n      dup3\n        /* \"#utility.yul\":3505:3542   */\n      mstore\n        /* \"#utility.yul\":3430:3548   */\n      pop\n      pop\n      jump\t// out\n        /* \"#utility.yul\":3554:3764   */\n    tag_22:\n        /* \"#utility.yul\":3641:3645   */\n      0x00\n        /* \"#utility.yul\":3679:3681   */\n      0x20\n        /* \"#utility.yul\":3668:3677   */\n      dup3\n        /* \"#utility.yul\":3664:3682   */\n      add\n        /* \"#utility.yul\":3656:3682   */\n      swap1\n      pop\n        /* \"#utility.yul\":3692:3757   */\n      tag_139\n        /* \"#utility.yul\":3754:3755   */\n      0x00\n        /* \"#utility.yul\":3743:3752   */\n      dup4\n        /* \"#utility.yul\":3739:3756   */\n      add\n        /* \"#utility.yul\":3730:3736   */\n      dup5\n        /* \"#utility.yul\":3692:3757   */\n      tag_120\n      jump\t// in\n    tag_139:\n        /* \"#utility.yul\":3554:3764   */\n      swap3\n      swap2\n      pop\n      pop\n      jump\t// out\n        /* \"#utility.yul\":3770:4083   */\n    tag_18:\n        /* \"#utility.yul\":3883:3887   */\n      0x00\n        /* \"#utility.yul\":3921:3923   */\n      0x20\n        /* \"#utility.yul\":3910:3919   */\n      dup3\n        /* \"#utility.yul\":3906:3924   */\n      add\n        /* \"#utility.yul\":3898:3924   */\n      swap1\n      pop\n        /* \"#utility.yul\":3970:3979   */\n      dup2\n        /* \"#utility.yul\":3964:3968   */\n      dup2\n        /* \"#utility.yul\":3960:3980   */\n      sub\n        /* \"#utility.yul\":3956:3957   */\n      0x00\n        /* \"#utility.yul\":3945:3954   */\n      dup4\n        /* \"#utility.yul\":3941:3958   */\n      add\n        /* \"#utility.yul\":3934:3981   */\n      mstore\n        /* \"#utility.yul\":3998:4076   */\n      tag_141\n        /* \"#utility.yul\":4071:4075   */\n      dup2\n        /* \"#utility.yul\":4062:4068   */\n      dup5\n        /* \"#utility.yul\":3998:4076   */\n      tag_124\n      jump\t// in\n    tag_141:\n        /* \"#utility.yul\":3990:4076   */\n      swap1\n      pop\n        /* \"#utility.yul\":3770:4083   */\n      swap3\n      swap2\n      pop\n      pop\n      jump\t// out\n        /* \"#utility.yul\":4089:4311   */\n    tag_14:\n        /* \"#utility.yul\":4182:4186   */\n      0x00\n        /* \"#utility.yul\":4220:4222   */\n      0x20\n        /* \"#utility.yul\":4209:4218   */\n      dup3\n        /* \"#utility.yul\":4205:4223   */\n      add\n        /* \"#utility.yul\":4197:4223   */\n      swap1\n      pop\n        /* \"#utility.yul\":4233:4304   */\n      tag_143\n        /* \"#utility.yul\":4301:4302   */\n      0x00\n        /* \"#utility.yul\":4290:4299   */\n      dup4\n        /* \"#utility.yul\":4286:4303   */\n      add\n        /* \"#utility.yul\":4277:4283   */\n      dup5\n        /* \"#utility.yul\":4233:4304   */\n      tag_134\n      jump\t// in\n    tag_143:\n        /* \"#utility.yul\":4089:4311   */\n      swap3\n      swap2\n      pop\n      pop\n      jump\t// out\n        /* \"#utility.yul\":4317:4446   */\n    tag_80:\n        /* \"#utility.yul\":4351:4357   */\n      0x00\n        /* \"#utility.yul\":4378:4398   */\n      tag_145\n      tag_146\n      jump\t// in\n    tag_145:\n        /* \"#utility.yul\":4368:4398   */\n      swap1\n      pop\n        /* \"#utility.yul\":4407:4440   */\n      tag_147\n        /* \"#utility.yul\":4435:4439   */\n      dup3\n        /* \"#utility.yul\":4427:4433   */\n      dup3\n        /* \"#utility.yul\":4407:4440   */\n      tag_148\n      jump\t// in\n    tag_147:\n        /* \"#utility.yul\":4317:4446   */\n      swap2\n      swap1\n      pop\n      jump\t// out\n        /* \"#utility.yul\":4452:4527   */\n    tag_146:\n        /* \"#utility.yul\":4485:4491   */\n      0x00\n        /* \"#utility.yul\":4518:4520   */\n      0x40\n        /* \"#utility.yul\":4512:4521   */\n      mload\n        /* \"#utility.yul\":4502:4521   */\n      swap1\n      pop\n        /* \"#utility.yul\":4452:4527   */\n      swap1\n      jump\t// out\n        /* \"#utility.yul\":4533:4841   */\n    tag_79:\n        /* \"#utility.yul\":4595:4599   */\n      0x00\n        /* \"#utility.yul\":4685:4703   */\n      0xffffffffffffffff\n        /* \"#utility.yul\":4677:4683   */\n      dup3\n        /* \"#utility.yul\":4674:4704   */\n      gt\n        /* \"#utility.yul\":4671:4727   */\n      iszero\n      tag_151\n      jumpi\n        /* \"#utility.yul\":4707:4725   */\n      tag_152\n      tag_153\n      jump\t// in\n    tag_152:\n        /* \"#utility.yul\":4671:4727   */\n    tag_151:\n        /* \"#utility.yul\":4745:4774   */\n      tag_154\n        /* \"#utility.yul\":4767:4773   */\n      dup3\n        /* \"#utility.yul\":4745:4774   */\n      tag_133\n      jump\t// in\n    tag_154:\n        /* \"#utility.yul\":4737:4774   */\n      swap1\n      pop\n        /* \"#utility.yul\":4829:4833   */\n      0x20\n        /* \"#utility.yul\":4823:4827   */\n      dup2\n        /* \"#utility.yul\":4819:4834   */\n      add\n        /* \"#utility.yul\":4811:4834   */\n      swap1\n      pop\n        /* \"#utility.yul\":4533:4841   */\n      swap2\n      swap1\n      pop\n      jump\t// out\n        /* \"#utility.yul\":4847:4946   */\n    tag_127:\n        /* \"#utility.yul\":4899:4905   */\n      0x00\n        /* \"#utility.yul\":4933:4938   */\n      dup2\n        /* \"#utility.yul\":4927:4939   */\n      mload\n        /* \"#utility.yul\":4917:4939   */\n      swap1\n      pop\n        /* \"#utility.yul\":4847:4946   */\n      swap2\n      swap1\n      pop\n      jump\t// out\n        /* \"#utility.yul\":4952:5121   */\n    tag_129:\n        /* \"#utility.yul\":5036:5047   */\n      0x00\n        /* \"#utility.yul\":5070:5076   */\n      dup3\n        /* \"#utility.yul\":5065:5068   */\n      dup3\n        /* \"#utility.yul\":5058:5077   */\n      mstore\n        /* \"#utility.yul\":5110:5114   */\n      0x20\n        /* \"#utility.yul\":5105:5108   */\n      dup3\n        /* \"#utility.yul\":5101:5115   */\n      add\n        /* \"#utility.yul\":5086:5115   */\n      swap1\n      pop\n        /* \"#utility.yul\":4952:5121   */\n      swap3\n      swap2\n      pop\n      pop\n      jump\t// out\n        /* \"#utility.yul\":5127:5217   */\n    tag_123:\n        /* \"#utility.yul\":5161:5168   */\n      0x00\n        /* \"#utility.yul\":5204:5209   */\n      dup2\n        /* \"#utility.yul\":5197:5210   */\n      iszero\n        /* \"#utility.yul\":5190:5211   */\n      iszero\n        /* \"#utility.yul\":5179:5211   */\n      swap1\n      pop\n        /* \"#utility.yul\":5127:5217   */\n      swap2\n      swap1\n      pop\n      jump\t// out\n        /* \"#utility.yul\":5223:5300   */\n    tag_137:\n        /* \"#utility.yul\":5260:5267   */\n      0x00\n        /* \"#utility.yul\":5289:5294   */\n      dup2\n        /* \"#utility.yul\":5278:5294   */\n      swap1\n      pop\n        /* \"#utility.yul\":5223:5300   */\n      swap2\n      swap1\n      pop\n      jump\t// out\n        /* \"#utility.yul\":5306:5460   */\n    tag_85:\n        /* \"#utility.yul\":5390:5396   */\n      dup3\n        /* \"#utility.yul\":5385:5388   */\n      dup2\n        /* \"#utility.yul\":5380:5383   */\n      dup4\n        /* \"#utility.yul\":5367:5397   */\n      calldatacopy\n        /* \"#utility.yul\":5452:5453   */\n      0x00\n        /* \"#utility.yul\":5443:5449   */\n      dup4\n        /* \"#utility.yul\":5438:5441   */\n      dup4\n        /* \"#utility.yul\":5434:5450   */\n      add\n        /* \"#utility.yul\":5427:5454   */\n      mstore\n        /* \"#utility.yul\":5306:5460   */\n      pop\n      pop\n      pop\n      jump\t// out\n        /* \"#utility.yul\":5466:5773   */\n    tag_131:\n        /* \"#utility.yul\":5534:5535   */\n      0x00\n        /* \"#utility.yul\":5544:5657   */\n    tag_161:\n        /* \"#utility.yul\":5558:5564   */\n      dup4\n        /* \"#utility.yul\":5555:5556   */\n      dup2\n        /* \"#utility.yul\":5552:5565   */\n      lt\n        /* \"#utility.yul\":5544:5657   */\n      iszero\n      tag_163\n      jumpi\n        /* \"#utility.yul\":5643:5644   */\n      dup1\n        /* \"#utility.yul\":5638:5641   */\n      dup3\n        /* \"#utility.yul\":5634:5645   */\n      add\n        /* \"#utility.yul\":5628:5646   */\n      mload\n        /* \"#utility.yul\":5624:5625   */\n      dup2\n        /* \"#utility.yul\":5619:5622   */\n      dup5\n        /* \"#utility.yul\":5615:5626   */\n      add\n        /* \"#utility.yul\":5608:5647   */\n      mstore\n        /* \"#utility.yul\":5580:5582   */\n      0x20\n        /* \"#utility.yul\":5577:5578   */\n      dup2\n        /* \"#utility.yul\":5573:5583   */\n      add\n        /* \"#utility.yul\":5568:5583   */\n      swap1\n      pop\n        /* \"#utility.yul\":5544:5657   */\n      jump(tag_161)\n    tag_163:\n        /* \"#utility.yul\":5675:5681   */\n      dup4\n        /* \"#utility.yul\":5672:5673   */\n      dup2\n        /* \"#utility.yul\":5669:5682   */\n      gt\n        /* \"#utility.yul\":5666:5767   */\n      iszero\n      tag_164\n      jumpi\n        /* \"#utility.yul\":5755:5756   */\n      0x00\n        /* \"#utility.yul\":5746:5752   */\n      dup5\n        /* \"#utility.yul\":5741:5744   */\n      dup5\n        /* \"#utility.yul\":5737:5753   */\n      add\n        /* \"#utility.yul\":5730:5757   */\n      mstore\n        /* \"#utility.yul\":5666:5767   */\n    tag_164:\n        /* \"#utility.yul\":5515:5773   */\n      pop\n        /* \"#utility.yul\":5466:5773   */\n      pop\n      pop\n      pop\n      jump\t// out\n        /* \"#utility.yul\":5779:6099   */\n    tag_41:\n        /* \"#utility.yul\":5823:5829   */\n      0x00\n        /* \"#utility.yul\":5860:5861   */\n      0x02\n        /* \"#utility.yul\":5854:5858   */\n      dup3\n        /* \"#utility.yul\":5850:5862   */\n      div\n        /* \"#utility.yul\":5840:5862   */\n      swap1\n      pop\n        /* \"#utility.yul\":5907:5908   */\n      0x01\n        /* \"#utility.yul\":5901:5905   */\n      dup3\n        /* \"#utility.yul\":5897:5909   */\n      and\n        /* \"#utility.yul\":5928:5946   */\n      dup1\n        /* \"#utility.yul\":5918:5999   */\n      tag_166\n      jumpi\n        /* \"#utility.yul\":5984:5988   */\n      0x7f\n        /* \"#utility.yul\":5976:5982   */\n      dup3\n        /* \"#utility.yul\":5972:5989   */\n      and\n        /* \"#utility.yul\":5962:5989   */\n      swap2\n      pop\n        /* \"#utility.yul\":5918:5999   */\n    tag_166:\n        /* \"#utility.yul\":6046:6048   */\n      0x20\n        /* \"#utility.yul\":6038:6044   */\n      dup3\n        /* \"#utility.yul\":6035:6049   */\n      lt\n        /* \"#utility.yul\":6015:6033   */\n      dup2\n        /* \"#utility.yul\":6012:6050   */\n      eq\n        /* \"#utility.yul\":6009:6093   */\n      iszero\n      tag_167\n      jumpi\n        /* \"#utility.yul\":6065:6083   */\n      tag_168\n      tag_169\n      jump\t// in\n    tag_168:\n        /* \"#utility.yul\":6009:6093   */\n    tag_167:\n        /* \"#utility.yul\":5830:6099   */\n      pop\n        /* \"#utility.yul\":5779:6099   */\n      swap2\n      swap1\n      pop\n      jump\t// out\n        /* \"#utility.yul\":6105:6386   */\n    tag_148:\n        /* \"#utility.yul\":6188:6215   */\n      tag_171\n        /* \"#utility.yul\":6210:6214   */\n      dup3\n        /* \"#utility.yul\":6188:6215   */\n      tag_133\n      jump\t// in\n    tag_171:\n        /* \"#utility.yul\":6180:6186   */\n      dup2\n        /* \"#utility.yul\":6176:6216   */\n      add\n        /* \"#utility.yul\":6318:6324   */\n      dup2\n        /* \"#utility.yul\":6306:6316   */\n      dup2\n        /* \"#utility.yul\":6303:6325   */\n      lt\n        /* \"#utility.yul\":6282:6300   */\n      0xffffffffffffffff\n        /* \"#utility.yul\":6270:6280   */\n      dup3\n        /* \"#utility.yul\":6267:6301   */\n      gt\n        /* \"#utility.yul\":6264:6326   */\n      or\n        /* \"#utility.yul\":6261:6349   */\n      iszero\n      tag_172\n      jumpi\n        /* \"#utility.yul\":6329:6347   */\n      tag_173\n      tag_153\n      jump\t// in\n    tag_173:\n        /* \"#utility.yul\":6261:6349   */\n    tag_172:\n        /* \"#utility.yul\":6369:6379   */\n      dup1\n        /* \"#utility.yul\":6365:6367   */\n      0x40\n        /* \"#utility.yul\":6358:6380   */\n      mstore\n        /* \"#utility.yul\":6148:6386   */\n      pop\n        /* \"#utility.yul\":6105:6386   */\n      pop\n      pop\n      jump\t// out\n        /* \"#utility.yul\":6392:6625   */\n    tag_61:\n        /* \"#utility.yul\":6431:6434   */\n      0x00\n        /* \"#utility.yul\":6454:6478   */\n      tag_175\n        /* \"#utility.yul\":6472:6477   */\n      dup3\n        /* \"#utility.yul\":6454:6478   */\n      tag_137\n      jump\t// in\n    tag_175:\n        /* \"#utility.yul\":6445:6478   */\n      swap2\n      pop\n        /* \"#utility.yul\":6500:6566   */\n      0xffffffffffffffffffffffffffffffffffffffffffffffffffffffffffffffff\n        /* \"#utility.yul\":6493:6498   */\n      dup3\n        /* \"#utility.yul\":6490:6567   */\n      eq\n        /* \"#utility.yul\":6487:6590   */\n      iszero\n      tag_176\n      jumpi\n        /* \"#utility.yul\":6570:6588   */\n      tag_177\n      tag_178\n      jump\t// in\n    tag_177:\n        /* \"#utility.yul\":6487:6590   */\n    tag_176:\n        /* \"#utility.yul\":6617:6618   */\n      0x01\n        /* \"#utility.yul\":6610:6615   */\n      dup3\n        /* \"#utility.yul\":6606:6619   */\n      add\n        /* \"#utility.yul\":6599:6619   */\n      swap1\n      pop\n        /* \"#utility.yul\":6392:6625   */\n      swap2\n      swap1\n      pop\n      jump\t// out\n        /* \"#utility.yul\":6631:6811   */\n    tag_178:\n        /* \"#utility.yul\":6679:6756   */\n      0x4e487b7100000000000000000000000000000000000000000000000000000000\n        /* \"#utility.yul\":6676:6677   */\n      0x00\n        /* \"#utility.yul\":6669:6757   */\n      mstore\n        /* \"#utility.yul\":6776:6780   */\n      0x11\n        /* \"#utility.yul\":6773:6774   */\n      0x04\n        /* \"#utility.yul\":6766:6781   */\n      mstore\n        /* \"#utility.yul\":6800:6804   */\n      0x24\n        /* \"#utility.yul\":6797:6798   */\n      0x00\n        /* \"#utility.yul\":6790:6805   */\n      revert\n        /* \"#utility.yul\":6817:6997   */\n    tag_169:\n        /* \"#utility.yul\":6865:6942   */\n      0x4e487b7100000000000000000000000000000000000000000000000000000000\n        /* \"#utility.yul\":6862:6863   */\n      0x00\n        /* \"#utility.yul\":6855:6943   */\n      mstore\n        /* \"#utility.yul\":6962:6966   */\n      0x22\n        /* \"#utility.yul\":6959:6960   */\n      0x04\n        /* \"#utility.yul\":6952:6967   */\n      mstore\n        /* \"#utility.yul\":6986:6990   */\n      0x24\n        /* \"#utility.yul\":6983:6984   */\n      0x00\n        /* \"#utility.yul\":6976:6991   */\n      revert\n        /* \"#utility.yul\":7003:7183   */\n    tag_153:\n        /* \"#utility.yul\":7051:7128   */\n      0x4e487b7100000000000000000000000000000000000000000000000000000000\n        /* \"#utility.yul\":7048:7049   */\n      0x00\n        /* \"#utility.yul\":7041:7129   */\n      mstore\n        /* \"#utility.yul\":7148:7152   */\n      0x41\n        /* \"#utility.yul\":7145:7146   */\n      0x04\n        /* \"#utility.yul\":7138:7153   */\n      mstore\n        /* \"#utility.yul\":7172:7176   */\n      0x24\n        /* \"#utility.yul\":7169:7170   */\n      0x00\n        /* \"#utility.yul\":7162:7177   */\n      revert\n        /* \"#utility.yul\":7189:7306   */\n    tag_90:\n        /* \"#utility.yul\":7298:7299   */\n      0x00\n        /* \"#utility.yul\":7295:7296   */\n      dup1\n        /* \"#utility.yul\":7288:7300   */\n      revert\n        /* \"#utility.yul\":7312:7429   */\n    tag_83:\n        /* \"#utility.yul\":7421:7422   */\n      0x00\n        /* \"#utility.yul\":7418:7419   */\n      dup1\n        /* \"#utility.yul\":7411:7423   */\n      revert\n        /* \"#utility.yul\":7435:7552   */\n    tag_102:\n        /* \"#utility.yul\":7544:7545   */\n      0x00\n        /* \"#utility.yul\":7541:7542   */\n      dup1\n        /* \"#utility.yul\":7534:7546   */\n      revert\n        /* \"#utility.yul\":7558:7675   */\n    tag_99:\n        /* \"#utility.yul\":7667:7668   */\n      0x00\n        /* \"#utility.yul\":7664:7665   */\n      dup1\n        /* \"#utility.yul\":7657:7669   */\n      revert\n        /* \"#utility.yul\":7681:7783   */\n    tag_133:\n        /* \"#utility.yul\":7722:7728   */\n      0x00\n        /* \"#utility.yul\":7773:7775   */\n      0x1f\n        /* \"#utility.yul\":7769:7776   */\n      not\n        /* \"#utility.yul\":7764:7766   */\n      0x1f\n        /* \"#utility.yul\":7757:7762   */\n      dup4\n        /* \"#utility.yul\":7753:7767   */\n      add\n        /* \"#utility.yul\":7749:7777   */\n      and\n        /* \"#utility.yul\":7739:7777   */\n      swap1\n      pop\n        /* \"#utility.yul\":7681:7783   */\n      swap2\n      swap1\n      pop\n      jump\t// out\n        /* \"#utility.yul\":7789:7911   */\n    tag_95:\n        /* \"#utility.yul\":7862:7886   */\n      tag_188\n        /* \"#utility.yul\":7880:7885   */\n      dup2\n        /* \"#utility.yul\":7862:7886   */\n      tag_137\n      jump\t// in\n    tag_188:\n        /* \"#utility.yul\":7855:7860   */\n      dup2\n        /* \"#utility.yul\":7852:7887   */\n      eq\n        /* \"#utility.yul\":7842:7905   */\n      tag_189\n      jumpi\n        /* \"#utility.yul\":7901:7902   */\n      0x00\n        /* \"#utility.yul\":7898:7899   */\n      dup1\n        /* \"#utility.yul\":7891:7903   */\n      revert\n        /* \"#utility.yul\":7842:7905   */\n    tag_189:\n        /* \"#utility.yul\":7789:7911   */\n      pop\n      jump\t// out\n\n    auxdata: 0xa2646970667358221220d9f6b659ece6e5298a11bedff52847274a7c9f7038ef404af1b3e7700c036f7764736f6c63430008070033\n}\n",
				"bytecode": {
					"linkReferences": {},
					"object": "6080604052600060035534801561001557600080fd5b50610ba4806100256000396000f3fe608060405234801561001057600080fd5b506004361061007d5760003560e01c80635544f6b41161005b5780635544f6b4146100dc5780636d4540eb146100f85780639841c82c14610102578063ee8b7cd91461011e5761007d565b8063169134691461008257806317d7de7c146100a05780633ae7dc1a146100be575b600080fd5b61008a61013a565b6040516100979190610914565b60405180910390f35b6100a8610140565b6040516100b591906108f2565b60405180910390f35b6100c6610270565b6040516100d391906108d7565b60405180910390f35b6100f660048036038101906100f19190610853565b6102d4565b005b61010061041f565b005b61011c600480360381019061011791906107ac565b61047b565b005b61013860048036038101906101339190610763565b6105e2565b005b60035481565b6060600115156000803373ffffffffffffffffffffffffffffffffffffffff1673ffffffffffffffffffffffffffffffffffffffff16815260200190815260200160002060030160149054906101000a900460ff161515146101a157600080fd5b6000803373ffffffffffffffffffffffffffffffffffffffff1673ffffffffffffffffffffffffffffffffffffffff16815260200190815260200160002060000180546101ed906109f9565b80601f0160208091040260200160405190810160405280929190818152602001828054610219906109f9565b80156102665780601f1061023b57610100808354040283529160200191610266565b820191906000526020600020905b81548152906001019060200180831161024957829003601f168201915b5050505050905090565b60008060003373ffffffffffffffffffffffffffffffffffffffff1673ffffffffffffffffffffffffffffffffffffffff16815260200190815260200160002060030160149054906101000a900460ff166102cc5760006102cf565b60015b905090565b60001515600160003373ffffffffffffffffffffffffffffffffffffffff1673ffffffffffffffffffffffffffffffffffffffff168152602001908152602001600020600083815260200190815260200160002060009054906101000a900460ff16151514156103e35760018060003373ffffffffffffffffffffffffffffffffffffffff1673ffffffffffffffffffffffffffffffffffffffff168152602001908152602001600020600083815260200190815260200160002060006101000a81548160ff0219169083151502179055507f141f0f98191bb867d14e65d7d6496cba0add11cde65dc83f66c03f1dc876c5f160016040516103d691906108d7565b60405180910390a161041c565b7f141f0f98191bb867d14e65d7d6496cba0add11cde65dc83f66c03f1dc876c5f1600060405161041391906108d7565b60405180910390a15b50565b60008060003373ffffffffffffffffffffffffffffffffffffffff1673ffffffffffffffffffffffffffffffffffffffff16815260200190815260200160002060030160146101000a81548160ff021916908315150217905550565b60006040518060a001604052808581526020018481526020018381526020013373ffffffffffffffffffffffffffffffffffffffff168152602001600115158152509050806000803373ffffffffffffffffffffffffffffffffffffffff1673ffffffffffffffffffffffffffffffffffffffff168152602001908152602001600020600082015181600001908051906020019061051a92919061063b565b50602082015181600101908051906020019061053792919061063b565b50604082015181600201908051906020019061055492919061063b565b5060608201518160030160006101000a81548173ffffffffffffffffffffffffffffffffffffffff021916908373ffffffffffffffffffffffffffffffffffffffff16021790555060808201518160030160146101000a81548160ff021916908315150217905550905050600360008154809291906105d290610a5c565b9190505560038190555050505050565b806000803373ffffffffffffffffffffffffffffffffffffffff1673ffffffffffffffffffffffffffffffffffffffff168152602001908152602001600020600001908051906020019061063792919061063b565b5050565b828054610647906109f9565b90600052602060002090601f01602090048101928261066957600085556106b0565b82601f1061068257805160ff19168380011785556106b0565b828001600101855582156106b0579182015b828111156106af578251825591602001919060010190610694565b5b5090506106bd91906106c1565b5090565b5b808211156106da5760008160009055506001016106c2565b5090565b60006106f16106ec84610954565b61092f565b90508281526020810184848401111561070d5761070c610b37565b5b6107188482856109b7565b509392505050565b600082601f83011261073557610734610b32565b5b81356107458482602086016106de565b91505092915050565b60008135905061075d81610b57565b92915050565b60006020828403121561077957610778610b41565b5b600082013567ffffffffffffffff81111561079757610796610b3c565b5b6107a384828501610720565b91505092915050565b6000806000606084860312156107c5576107c4610b41565b5b600084013567ffffffffffffffff8111156107e3576107e2610b3c565b5b6107ef86828701610720565b935050602084013567ffffffffffffffff8111156108105761080f610b3c565b5b61081c86828701610720565b925050604084013567ffffffffffffffff81111561083d5761083c610b3c565b5b61084986828701610720565b9150509250925092565b60006020828403121561086957610868610b41565b5b60006108778482850161074e565b91505092915050565b610889816109a1565b82525050565b600061089a82610985565b6108a48185610990565b93506108b48185602086016109c6565b6108bd81610b46565b840191505092915050565b6108d1816109ad565b82525050565b60006020820190506108ec6000830184610880565b92915050565b6000602082019050818103600083015261090c818461088f565b905092915050565b600060208201905061092960008301846108c8565b92915050565b600061093961094a565b90506109458282610a2b565b919050565b6000604051905090565b600067ffffffffffffffff82111561096f5761096e610b03565b5b61097882610b46565b9050602081019050919050565b600081519050919050565b600082825260208201905092915050565b60008115159050919050565b6000819050919050565b82818337600083830152505050565b60005b838110156109e45780820151818401526020810190506109c9565b838111156109f3576000848401525b50505050565b60006002820490506001821680610a1157607f821691505b60208210811415610a2557610a24610ad4565b5b50919050565b610a3482610b46565b810181811067ffffffffffffffff82111715610a5357610a52610b03565b5b80604052505050565b6000610a67826109ad565b91507fffffffffffffffffffffffffffffffffffffffffffffffffffffffffffffffff821415610a9a57610a99610aa5565b5b600182019050919050565b7f4e487b7100000000000000000000000000000000000000000000000000000000600052601160045260246000fd5b7f4e487b7100000000000000000000000000000000000000000000000000000000600052602260045260246000fd5b7f4e487b7100000000000000000000000000000000000000000000000000000000600052604160045260246000fd5b600080fd5b600080fd5b600080fd5b600080fd5b6000601f19601f8301169050919050565b610b60816109ad565b8114610b6b57600080fd5b5056fea2646970667358221220d9f6b659ece6e5298a11bedff52847274a7c9f7038ef404af1b3e7700c036f7764736f6c63430008070033",
					"opcodes": "PUSH1 0x80 PUSH1 0x40 MSTORE PUSH1 0x0 PUSH1 0x3 SSTORE CALLVALUE DUP1 ISZERO PUSH2 0x15 JUMPI PUSH1 0x0 DUP1 REVERT JUMPDEST POP PUSH2 0xBA4 DUP1 PUSH2 0x25 PUSH1 0x0 CODECOPY PUSH1 0x0 RETURN INVALID PUSH1 0x80 PUSH1 0x40 MSTORE CALLVALUE DUP1 ISZERO PUSH2 0x10 JUMPI PUSH1 0x0 DUP1 REVERT JUMPDEST POP PUSH1 0x4 CALLDATASIZE LT PUSH2 0x7D JUMPI PUSH1 0x0 CALLDATALOAD PUSH1 0xE0 SHR DUP1 PUSH4 0x5544F6B4 GT PUSH2 0x5B JUMPI DUP1 PUSH4 0x5544F6B4 EQ PUSH2 0xDC JUMPI DUP1 PUSH4 0x6D4540EB EQ PUSH2 0xF8 JUMPI DUP1 PUSH4 0x9841C82C EQ PUSH2 0x102 JUMPI DUP1 PUSH4 0xEE8B7CD9 EQ PUSH2 0x11E JUMPI PUSH2 0x7D JUMP JUMPDEST DUP1 PUSH4 0x16913469 EQ PUSH2 0x82 JUMPI DUP1 PUSH4 0x17D7DE7C EQ PUSH2 0xA0 JUMPI DUP1 PUSH4 0x3AE7DC1A EQ PUSH2 0xBE JUMPI JUMPDEST PUSH1 0x0 DUP1 REVERT JUMPDEST PUSH2 0x8A PUSH2 0x13A JUMP JUMPDEST PUSH1 0x40 MLOAD PUSH2 0x97 SWAP2 SWAP1 PUSH2 0x914 JUMP JUMPDEST PUSH1 0x40 MLOAD DUP1 SWAP2 SUB SWAP1 RETURN JUMPDEST PUSH2 0xA8 PUSH2 0x140 JUMP JUMPDEST PUSH1 0x40 MLOAD PUSH2 0xB5 SWAP2 SWAP1 PUSH2 0x8F2 JUMP JUMPDEST PUSH1 0x40 MLOAD DUP1 SWAP2 SUB SWAP1 RETURN JUMPDEST PUSH2 0xC6 PUSH2 0x270 JUMP JUMPDEST PUSH1 0x40 MLOAD PUSH2 0xD3 SWAP2 SWAP1 PUSH2 0x8D7 JUMP JUMPDEST PUSH1 0x40 MLOAD DUP1 SWAP2 SUB SWAP1 RETURN JUMPDEST PUSH2 0xF6 PUSH1 0x4 DUP1 CALLDATASIZE SUB DUP2 ADD SWAP1 PUSH2 0xF1 SWAP2 SWAP1 PUSH2 0x853 JUMP JUMPDEST PUSH2 0x2D4 JUMP JUMPDEST STOP JUMPDEST PUSH2 0x100 PUSH2 0x41F JUMP JUMPDEST STOP JUMPDEST PUSH2 0x11C PUSH1 0x4 DUP1 CALLDATASIZE SUB DUP2 ADD SWAP1 PUSH2 0x117 SWAP2 SWAP1 PUSH2 0x7AC JUMP JUMPDEST PUSH2 0x47B JUMP JUMPDEST STOP JUMPDEST PUSH2 0x138 PUSH1 0x4 DUP1 CALLDATASIZE SUB DUP2 ADD SWAP1 PUSH2 0x133 SWAP2 SWAP1 PUSH2 0x763 JUMP JUMPDEST PUSH2 0x5E2 JUMP JUMPDEST STOP JUMPDEST PUSH1 0x3 SLOAD DUP2 JUMP JUMPDEST PUSH1 0x60 PUSH1 0x1 ISZERO ISZERO PUSH1 0x0 DUP1 CALLER PUSH20 0xFFFFFFFFFFFFFFFFFFFFFFFFFFFFFFFFFFFFFFFF AND PUSH20 0xFFFFFFFFFFFFFFFFFFFFFFFFFFFFFFFFFFFFFFFF AND DUP2 MSTORE PUSH1 0x20 ADD SWAP1 DUP2 MSTORE PUSH1 0x20 ADD PUSH1 0x0 KECCAK256 PUSH1 0x3 ADD PUSH1 0x14 SWAP1 SLOAD SWAP1 PUSH2 0x100 EXP SWAP1 DIV PUSH1 0xFF AND ISZERO ISZERO EQ PUSH2 0x1A1 JUMPI PUSH1 0x0 DUP1 REVERT JUMPDEST PUSH1 0x0 DUP1 CALLER PUSH20 0xFFFFFFFFFFFFFFFFFFFFFFFFFFFFFFFFFFFFFFFF AND PUSH20 0xFFFFFFFFFFFFFFFFFFFFFFFFFFFFFFFFFFFFFFFF AND DUP2 MSTORE PUSH1 0x20 ADD SWAP1 DUP2 MSTORE PUSH1 0x20 ADD PUSH1 0x0 KECCAK256 PUSH1 0x0 ADD DUP1 SLOAD PUSH2 0x1ED SWAP1 PUSH2 0x9F9 JUMP JUMPDEST DUP1 PUSH1 0x1F ADD PUSH1 0x20 DUP1 SWAP2 DIV MUL PUSH1 0x20 ADD PUSH1 0x40 MLOAD SWAP1 DUP2 ADD PUSH1 0x40 MSTORE DUP1 SWAP3 SWAP2 SWAP1 DUP2 DUP2 MSTORE PUSH1 0x20 ADD DUP3 DUP1 SLOAD PUSH2 0x219 SWAP1 PUSH2 0x9F9 JUMP JUMPDEST DUP1 ISZERO PUSH2 0x266 JUMPI DUP1 PUSH1 0x1F LT PUSH2 0x23B JUMPI PUSH2 0x100 DUP1 DUP4 SLOAD DIV MUL DUP4 MSTORE SWAP2 PUSH1 0x20 ADD SWAP2 PUSH2 0x266 JUMP JUMPDEST DUP3 ADD SWAP2 SWAP1 PUSH1 0x0 MSTORE PUSH1 0x20 PUSH1 0x0 KECCAK256 SWAP1 JUMPDEST DUP2 SLOAD DUP2 MSTORE SWAP1 PUSH1 0x1 ADD SWAP1 PUSH1 0x20 ADD DUP1 DUP4 GT PUSH2 0x249 JUMPI DUP3 SWAP1 SUB PUSH1 0x1F AND DUP3 ADD SWAP2 JUMPDEST POP POP POP POP POP SWAP1 POP SWAP1 JUMP JUMPDEST PUSH1 0x0 DUP1 PUSH1 0x0 CALLER PUSH20 0xFFFFFFFFFFFFFFFFFFFFFFFFFFFFFFFFFFFFFFFF AND PUSH20 0xFFFFFFFFFFFFFFFFFFFFFFFFFFFFFFFFFFFFFFFF AND DUP2 MSTORE PUSH1 0x20 ADD SWAP1 DUP2 MSTORE PUSH1 0x20 ADD PUSH1 0x0 KECCAK256 PUSH1 0x3 ADD PUSH1 0x14 SWAP1 SLOAD SWAP1 PUSH2 0x100 EXP SWAP1 DIV PUSH1 0xFF AND PUSH2 0x2CC JUMPI PUSH1 0x0 PUSH2 0x2CF JUMP JUMPDEST PUSH1 0x1 JUMPDEST SWAP1 POP SWAP1 JUMP JUMPDEST PUSH1 0x0 ISZERO ISZERO PUSH1 0x1 PUSH1 0x0 CALLER PUSH20 0xFFFFFFFFFFFFFFFFFFFFFFFFFFFFFFFFFFFFFFFF AND PUSH20 0xFFFFFFFFFFFFFFFFFFFFFFFFFFFFFFFFFFFFFFFF AND DUP2 MSTORE PUSH1 0x20 ADD SWAP1 DUP2 MSTORE PUSH1 0x20 ADD PUSH1 0x0 KECCAK256 PUSH1 0x0 DUP4 DUP2 MSTORE PUSH1 0x20 ADD SWAP1 DUP2 MSTORE PUSH1 0x20 ADD PUSH1 0x0 KECCAK256 PUSH1 0x0 SWAP1 SLOAD SWAP1 PUSH2 0x100 EXP SWAP1 DIV PUSH1 0xFF AND ISZERO ISZERO EQ ISZERO PUSH2 0x3E3 JUMPI PUSH1 0x1 DUP1 PUSH1 0x0 CALLER PUSH20 0xFFFFFFFFFFFFFFFFFFFFFFFFFFFFFFFFFFFFFFFF AND PUSH20 0xFFFFFFFFFFFFFFFFFFFFFFFFFFFFFFFFFFFFFFFF AND DUP2 MSTORE PUSH1 0x20 ADD SWAP1 DUP2 MSTORE PUSH1 0x20 ADD PUSH1 0x0 KECCAK256 PUSH1 0x0 DUP4 DUP2 MSTORE PUSH1 0x20 ADD SWAP1 DUP2 MSTORE PUSH1 0x20 ADD PUSH1 0x0 KECCAK256 PUSH1 0x0 PUSH2 0x100 EXP DUP2 SLOAD DUP2 PUSH1 0xFF MUL NOT AND SWAP1 DUP4 ISZERO ISZERO MUL OR SWAP1 SSTORE POP PUSH32 0x141F0F98191BB867D14E65D7D6496CBA0ADD11CDE65DC83F66C03F1DC876C5F1 PUSH1 0x1 PUSH1 0x40 MLOAD PUSH2 0x3D6 SWAP2 SWAP1 PUSH2 0x8D7 JUMP JUMPDEST PUSH1 0x40 MLOAD DUP1 SWAP2 SUB SWAP1 LOG1 PUSH2 0x41C JUMP JUMPDEST PUSH32 0x141F0F98191BB867D14E65D7D6496CBA0ADD11CDE65DC83F66C03F1DC876C5F1 PUSH1 0x0 PUSH1 0x40 MLOAD PUSH2 0x413 SWAP2 SWAP1 PUSH2 0x8D7 JUMP JUMPDEST PUSH1 0x40 MLOAD DUP1 SWAP2 SUB SWAP1 LOG1 JUMPDEST POP JUMP JUMPDEST PUSH1 0x0 DUP1 PUSH1 0x0 CALLER PUSH20 0xFFFFFFFFFFFFFFFFFFFFFFFFFFFFFFFFFFFFFFFF AND PUSH20 0xFFFFFFFFFFFFFFFFFFFFFFFFFFFFFFFFFFFFFFFF AND DUP2 MSTORE PUSH1 0x20 ADD SWAP1 DUP2 MSTORE PUSH1 0x20 ADD PUSH1 0x0 KECCAK256 PUSH1 0x3 ADD PUSH1 0x14 PUSH2 0x100 EXP DUP2 SLOAD DUP2 PUSH1 0xFF MUL NOT AND SWAP1 DUP4 ISZERO ISZERO MUL OR SWAP1 SSTORE POP JUMP JUMPDEST PUSH1 0x0 PUSH1 0x40 MLOAD DUP1 PUSH1 0xA0 ADD PUSH1 0x40 MSTORE DUP1 DUP6 DUP2 MSTORE PUSH1 0x20 ADD DUP5 DUP2 MSTORE PUSH1 0x20 ADD DUP4 DUP2 MSTORE PUSH1 0x20 ADD CALLER PUSH20 0xFFFFFFFFFFFFFFFFFFFFFFFFFFFFFFFFFFFFFFFF AND DUP2 MSTORE PUSH1 0x20 ADD PUSH1 0x1 ISZERO ISZERO DUP2 MSTORE POP SWAP1 POP DUP1 PUSH1 0x0 DUP1 CALLER PUSH20 0xFFFFFFFFFFFFFFFFFFFFFFFFFFFFFFFFFFFFFFFF AND PUSH20 0xFFFFFFFFFFFFFFFFFFFFFFFFFFFFFFFFFFFFFFFF AND DUP2 MSTORE PUSH1 0x20 ADD SWAP1 DUP2 MSTORE PUSH1 0x20 ADD PUSH1 0x0 KECCAK256 PUSH1 0x0 DUP3 ADD MLOAD DUP2 PUSH1 0x0 ADD SWAP1 DUP1 MLOAD SWAP1 PUSH1 0x20 ADD SWAP1 PUSH2 0x51A SWAP3 SWAP2 SWAP1 PUSH2 0x63B JUMP JUMPDEST POP PUSH1 0x20 DUP3 ADD MLOAD DUP2 PUSH1 0x1 ADD SWAP1 DUP1 MLOAD SWAP1 PUSH1 0x20 ADD SWAP1 PUSH2 0x537 SWAP3 SWAP2 SWAP1 PUSH2 0x63B JUMP JUMPDEST POP PUSH1 0x40 DUP3 ADD MLOAD DUP2 PUSH1 0x2 ADD SWAP1 DUP1 MLOAD SWAP1 PUSH1 0x20 ADD SWAP1 PUSH2 0x554 SWAP3 SWAP2 SWAP1 PUSH2 0x63B JUMP JUMPDEST POP PUSH1 0x60 DUP3 ADD MLOAD DUP2 PUSH1 0x3 ADD PUSH1 0x0 PUSH2 0x100 EXP DUP2 SLOAD DUP2 PUSH20 0xFFFFFFFFFFFFFFFFFFFFFFFFFFFFFFFFFFFFFFFF MUL NOT AND SWAP1 DUP4 PUSH20 0xFFFFFFFFFFFFFFFFFFFFFFFFFFFFFFFFFFFFFFFF AND MUL OR SWAP1 SSTORE POP PUSH1 0x80 DUP3 ADD MLOAD DUP2 PUSH1 0x3 ADD PUSH1 0x14 PUSH2 0x100 EXP DUP2 SLOAD DUP2 PUSH1 0xFF MUL NOT AND SWAP1 DUP4 ISZERO ISZERO MUL OR SWAP1 SSTORE POP SWAP1 POP POP PUSH1 0x3 PUSH1 0x0 DUP2 SLOAD DUP1 SWAP3 SWAP2 SWAP1 PUSH2 0x5D2 SWAP1 PUSH2 0xA5C JUMP JUMPDEST SWAP2 SWAP1 POP SSTORE PUSH1 0x3 DUP2 SWAP1 SSTORE POP POP POP POP POP JUMP JUMPDEST DUP1 PUSH1 0x0 DUP1 CALLER PUSH20 0xFFFFFFFFFFFFFFFFFFFFFFFFFFFFFFFFFFFFFFFF AND PUSH20 0xFFFFFFFFFFFFFFFFFFFFFFFFFFFFFFFFFFFFFFFF AND DUP2 MSTORE PUSH1 0x20 ADD SWAP1 DUP2 MSTORE PUSH1 0x20 ADD PUSH1 0x0 KECCAK256 PUSH1 0x0 ADD SWAP1 DUP1 MLOAD SWAP1 PUSH1 0x20 ADD SWAP1 PUSH2 0x637 SWAP3 SWAP2 SWAP1 PUSH2 0x63B JUMP JUMPDEST POP POP JUMP JUMPDEST DUP3 DUP1 SLOAD PUSH2 0x647 SWAP1 PUSH2 0x9F9 JUMP JUMPDEST SWAP1 PUSH1 0x0 MSTORE PUSH1 0x20 PUSH1 0x0 KECCAK256 SWAP1 PUSH1 0x1F ADD PUSH1 0x20 SWAP1 DIV DUP2 ADD SWAP3 DUP3 PUSH2 0x669 JUMPI PUSH1 0x0 DUP6 SSTORE PUSH2 0x6B0 JUMP JUMPDEST DUP3 PUSH1 0x1F LT PUSH2 0x682 JUMPI DUP1 MLOAD PUSH1 0xFF NOT AND DUP4 DUP1 ADD OR DUP6 SSTORE PUSH2 0x6B0 JUMP JUMPDEST DUP3 DUP1 ADD PUSH1 0x1 ADD DUP6 SSTORE DUP3 ISZERO PUSH2 0x6B0 JUMPI SWAP2 DUP3 ADD JUMPDEST DUP3 DUP2 GT ISZERO PUSH2 0x6AF JUMPI DUP3 MLOAD DUP3 SSTORE SWAP2 PUSH1 0x20 ADD SWAP2 SWAP1 PUSH1 0x1 ADD SWAP1 PUSH2 0x694 JUMP JUMPDEST JUMPDEST POP SWAP1 POP PUSH2 0x6BD SWAP2 SWAP1 PUSH2 0x6C1 JUMP JUMPDEST POP SWAP1 JUMP JUMPDEST JUMPDEST DUP1 DUP3 GT ISZERO PUSH2 0x6DA JUMPI PUSH1 0x0 DUP2 PUSH1 0x0 SWAP1 SSTORE POP PUSH1 0x1 ADD PUSH2 0x6C2 JUMP JUMPDEST POP SWAP1 JUMP JUMPDEST PUSH1 0x0 PUSH2 0x6F1 PUSH2 0x6EC DUP5 PUSH2 0x954 JUMP JUMPDEST PUSH2 0x92F JUMP JUMPDEST SWAP1 POP DUP3 DUP2 MSTORE PUSH1 0x20 DUP2 ADD DUP5 DUP5 DUP5 ADD GT ISZERO PUSH2 0x70D JUMPI PUSH2 0x70C PUSH2 0xB37 JUMP JUMPDEST JUMPDEST PUSH2 0x718 DUP5 DUP3 DUP6 PUSH2 0x9B7 JUMP JUMPDEST POP SWAP4 SWAP3 POP POP POP JUMP JUMPDEST PUSH1 0x0 DUP3 PUSH1 0x1F DUP4 ADD SLT PUSH2 0x735 JUMPI PUSH2 0x734 PUSH2 0xB32 JUMP JUMPDEST JUMPDEST DUP2 CALLDATALOAD PUSH2 0x745 DUP5 DUP3 PUSH1 0x20 DUP7 ADD PUSH2 0x6DE JUMP JUMPDEST SWAP2 POP POP SWAP3 SWAP2 POP POP JUMP JUMPDEST PUSH1 0x0 DUP2 CALLDATALOAD SWAP1 POP PUSH2 0x75D DUP2 PUSH2 0xB57 JUMP JUMPDEST SWAP3 SWAP2 POP POP JUMP JUMPDEST PUSH1 0x0 PUSH1 0x20 DUP3 DUP5 SUB SLT ISZERO PUSH2 0x779 JUMPI PUSH2 0x778 PUSH2 0xB41 JUMP JUMPDEST JUMPDEST PUSH1 0x0 DUP3 ADD CALLDATALOAD PUSH8 0xFFFFFFFFFFFFFFFF DUP2 GT ISZERO PUSH2 0x797 JUMPI PUSH2 0x796 PUSH2 0xB3C JUMP JUMPDEST JUMPDEST PUSH2 0x7A3 DUP5 DUP3 DUP6 ADD PUSH2 0x720 JUMP JUMPDEST SWAP2 POP POP SWAP3 SWAP2 POP POP JUMP JUMPDEST PUSH1 0x0 DUP1 PUSH1 0x0 PUSH1 0x60 DUP5 DUP7 SUB SLT ISZERO PUSH2 0x7C5 JUMPI PUSH2 0x7C4 PUSH2 0xB41 JUMP JUMPDEST JUMPDEST PUSH1 0x0 DUP5 ADD CALLDATALOAD PUSH8 0xFFFFFFFFFFFFFFFF DUP2 GT ISZERO PUSH2 0x7E3 JUMPI PUSH2 0x7E2 PUSH2 0xB3C JUMP JUMPDEST JUMPDEST PUSH2 0x7EF DUP7 DUP3 DUP8 ADD PUSH2 0x720 JUMP JUMPDEST SWAP4 POP POP PUSH1 0x20 DUP5 ADD CALLDATALOAD PUSH8 0xFFFFFFFFFFFFFFFF DUP2 GT ISZERO PUSH2 0x810 JUMPI PUSH2 0x80F PUSH2 0xB3C JUMP JUMPDEST JUMPDEST PUSH2 0x81C DUP7 DUP3 DUP8 ADD PUSH2 0x720 JUMP JUMPDEST SWAP3 POP POP PUSH1 0x40 DUP5 ADD CALLDATALOAD PUSH8 0xFFFFFFFFFFFFFFFF DUP2 GT ISZERO PUSH2 0x83D JUMPI PUSH2 0x83C PUSH2 0xB3C JUMP JUMPDEST JUMPDEST PUSH2 0x849 DUP7 DUP3 DUP8 ADD PUSH2 0x720 JUMP JUMPDEST SWAP2 POP POP SWAP3 POP SWAP3 POP SWAP3 JUMP JUMPDEST PUSH1 0x0 PUSH1 0x20 DUP3 DUP5 SUB SLT ISZERO PUSH2 0x869 JUMPI PUSH2 0x868 PUSH2 0xB41 JUMP JUMPDEST JUMPDEST PUSH1 0x0 PUSH2 0x877 DUP5 DUP3 DUP6 ADD PUSH2 0x74E JUMP JUMPDEST SWAP2 POP POP SWAP3 SWAP2 POP POP JUMP JUMPDEST PUSH2 0x889 DUP2 PUSH2 0x9A1 JUMP JUMPDEST DUP3 MSTORE POP POP JUMP JUMPDEST PUSH1 0x0 PUSH2 0x89A DUP3 PUSH2 0x985 JUMP JUMPDEST PUSH2 0x8A4 DUP2 DUP6 PUSH2 0x990 JUMP JUMPDEST SWAP4 POP PUSH2 0x8B4 DUP2 DUP6 PUSH1 0x20 DUP7 ADD PUSH2 0x9C6 JUMP JUMPDEST PUSH2 0x8BD DUP2 PUSH2 0xB46 JUMP JUMPDEST DUP5 ADD SWAP2 POP POP SWAP3 SWAP2 POP POP JUMP JUMPDEST PUSH2 0x8D1 DUP2 PUSH2 0x9AD JUMP JUMPDEST DUP3 MSTORE POP POP JUMP JUMPDEST PUSH1 0x0 PUSH1 0x20 DUP3 ADD SWAP1 POP PUSH2 0x8EC PUSH1 0x0 DUP4 ADD DUP5 PUSH2 0x880 JUMP JUMPDEST SWAP3 SWAP2 POP POP JUMP JUMPDEST PUSH1 0x0 PUSH1 0x20 DUP3 ADD SWAP1 POP DUP2 DUP2 SUB PUSH1 0x0 DUP4 ADD MSTORE PUSH2 0x90C DUP2 DUP5 PUSH2 0x88F JUMP JUMPDEST SWAP1 POP SWAP3 SWAP2 POP POP JUMP JUMPDEST PUSH1 0x0 PUSH1 0x20 DUP3 ADD SWAP1 POP PUSH2 0x929 PUSH1 0x0 DUP4 ADD DUP5 PUSH2 0x8C8 JUMP JUMPDEST SWAP3 SWAP2 POP POP JUMP JUMPDEST PUSH1 0x0 PUSH2 0x939 PUSH2 0x94A JUMP JUMPDEST SWAP1 POP PUSH2 0x945 DUP3 DUP3 PUSH2 0xA2B JUMP JUMPDEST SWAP2 SWAP1 POP JUMP JUMPDEST PUSH1 0x0 PUSH1 0x40 MLOAD SWAP1 POP SWAP1 JUMP JUMPDEST PUSH1 0x0 PUSH8 0xFFFFFFFFFFFFFFFF DUP3 GT ISZERO PUSH2 0x96F JUMPI PUSH2 0x96E PUSH2 0xB03 JUMP JUMPDEST JUMPDEST PUSH2 0x978 DUP3 PUSH2 0xB46 JUMP JUMPDEST SWAP1 POP PUSH1 0x20 DUP2 ADD SWAP1 POP SWAP2 SWAP1 POP JUMP JUMPDEST PUSH1 0x0 DUP2 MLOAD SWAP1 POP SWAP2 SWAP1 POP JUMP JUMPDEST PUSH1 0x0 DUP3 DUP3 MSTORE PUSH1 0x20 DUP3 ADD SWAP1 POP SWAP3 SWAP2 POP POP JUMP JUMPDEST PUSH1 0x0 DUP2 ISZERO ISZERO SWAP1 POP SWAP2 SWAP1 POP JUMP JUMPDEST PUSH1 0x0 DUP2 SWAP1 POP SWAP2 SWAP1 POP JUMP JUMPDEST DUP3 DUP2 DUP4 CALLDATACOPY PUSH1 0x0 DUP4 DUP4 ADD MSTORE POP POP POP JUMP JUMPDEST PUSH1 0x0 JUMPDEST DUP4 DUP2 LT ISZERO PUSH2 0x9E4 JUMPI DUP1 DUP3 ADD MLOAD DUP2 DUP5 ADD MSTORE PUSH1 0x20 DUP2 ADD SWAP1 POP PUSH2 0x9C9 JUMP JUMPDEST DUP4 DUP2 GT ISZERO PUSH2 0x9F3 JUMPI PUSH1 0x0 DUP5 DUP5 ADD MSTORE JUMPDEST POP POP POP POP JUMP JUMPDEST PUSH1 0x0 PUSH1 0x2 DUP3 DIV SWAP1 POP PUSH1 0x1 DUP3 AND DUP1 PUSH2 0xA11 JUMPI PUSH1 0x7F DUP3 AND SWAP2 POP JUMPDEST PUSH1 0x20 DUP3 LT DUP2 EQ ISZERO PUSH2 0xA25 JUMPI PUSH2 0xA24 PUSH2 0xAD4 JUMP JUMPDEST JUMPDEST POP SWAP2 SWAP1 POP JUMP JUMPDEST PUSH2 0xA34 DUP3 PUSH2 0xB46 JUMP JUMPDEST DUP2 ADD DUP2 DUP2 LT PUSH8 0xFFFFFFFFFFFFFFFF DUP3 GT OR ISZERO PUSH2 0xA53 JUMPI PUSH2 0xA52 PUSH2 0xB03 JUMP JUMPDEST JUMPDEST DUP1 PUSH1 0x40 MSTORE POP POP POP JUMP JUMPDEST PUSH1 0x0 PUSH2 0xA67 DUP3 PUSH2 0x9AD JUMP JUMPDEST SWAP2 POP PUSH32 0xFFFFFFFFFFFFFFFFFFFFFFFFFFFFFFFFFFFFFFFFFFFFFFFFFFFFFFFFFFFFFFFF DUP3 EQ ISZERO PUSH2 0xA9A JUMPI PUSH2 0xA99 PUSH2 0xAA5 JUMP JUMPDEST JUMPDEST PUSH1 0x1 DUP3 ADD SWAP1 POP SWAP2 SWAP1 POP JUMP JUMPDEST PUSH32 0x4E487B7100000000000000000000000000000000000000000000000000000000 PUSH1 0x0 MSTORE PUSH1 0x11 PUSH1 0x4 MSTORE PUSH1 0x24 PUSH1 0x0 REVERT JUMPDEST PUSH32 0x4E487B7100000000000000000000000000000000000000000000000000000000 PUSH1 0x0 MSTORE PUSH1 0x22 PUSH1 0x4 MSTORE PUSH1 0x24 PUSH1 0x0 REVERT JUMPDEST PUSH32 0x4E487B7100000000000000000000000000000000000000000000000000000000 PUSH1 0x0 MSTORE PUSH1 0x41 PUSH1 0x4 MSTORE PUSH1 0x24 PUSH1 0x0 REVERT JUMPDEST PUSH1 0x0 DUP1 REVERT JUMPDEST PUSH1 0x0 DUP1 REVERT JUMPDEST PUSH1 0x0 DUP1 REVERT JUMPDEST PUSH1 0x0 DUP1 REVERT JUMPDEST PUSH1 0x0 PUSH1 0x1F NOT PUSH1 0x1F DUP4 ADD AND SWAP1 POP SWAP2 SWAP1 POP JUMP JUMPDEST PUSH2 0xB60 DUP2 PUSH2 0x9AD JUMP JUMPDEST DUP2 EQ PUSH2 0xB6B JUMPI PUSH1 0x0 DUP1 REVERT JUMPDEST POP JUMP INVALID LOG2 PUSH5 0x6970667358 0x22 SLT KECCAK256 0xD9 0xF6 0xB6 MSIZE 0xEC 0xE6 0xE5 0x29 DUP11 GT 0xBE 0xDF CREATE2 0x28 SELFBALANCE 0x27 0x4A PUSH29 0x9F7038EF404AF1B3E7700C036F7764736F6C6343000807003300000000 "
				},
				"gasEstimates": {
					"creation": {
						"codeDepositCost": "596000",
						"executionCost": "5638",
						"totalCost": "601638"
					},
					"external": {
						"checkValidProfile()": "2697",
						"createProfile(string,string,string)": "infinite",
						"deleteProfile()": "24578",
						"getName()": "infinite",
						"numProfile()": "2430",
						"putService(uint256)": "28389",
						"updateProfileName(string)": "infinite"
					}
				},
				"methodIdentifiers": {
					"checkValidProfile()": "3ae7dc1a",
					"createProfile(string,string,string)": "9841c82c",
					"deleteProfile()": "6d4540eb",
					"getName()": "17d7de7c",
					"numProfile()": "16913469",
					"putService(uint256)": "5544f6b4",
					"updateProfileName(string)": "ee8b7cd9"
				}
			},
			"userdoc": {
				"kind": "user",
				"methods": {},
				"version": 1
			}
		}
	}
}