{
	"contracts/ERC20.sol": {
		"ERC20": {
			"abi": [
				{
					"anonymous": false,
					"inputs": [
						{
							"indexed": true,
							"internalType": "address",
							"name": "owner",
							"type": "address"
						},
						{
							"indexed": true,
							"internalType": "address",
							"name": "spender",
							"type": "address"
						},
						{
							"indexed": false,
							"internalType": "uint256",
							"name": "value",
							"type": "uint256"
						}
					],
					"name": "Approval",
					"type": "event"
				},
				{
					"anonymous": false,
					"inputs": [
						{
							"indexed": true,
							"internalType": "address",
							"name": "to",
							"type": "address"
						},
						{
							"indexed": false,
							"internalType": "uint256",
							"name": "amount",
							"type": "uint256"
						}
					],
					"name": "Mint",
					"type": "event"
				},
				{
					"anonymous": false,
					"inputs": [],
					"name": "MintFinished",
					"type": "event"
				},
				{
					"anonymous": false,
					"inputs": [
						{
							"indexed": true,
							"internalType": "address",
							"name": "from",
							"type": "address"
						},
						{
							"indexed": true,
							"internalType": "address",
							"name": "to",
							"type": "address"
						},
						{
							"indexed": false,
							"internalType": "uint256",
							"name": "value",
							"type": "uint256"
						}
					],
					"name": "Transfer",
					"type": "event"
				},
				{
					"inputs": [
						{
							"internalType": "address",
							"name": "_owner",
							"type": "address"
						},
						{
							"internalType": "address",
							"name": "_spender",
							"type": "address"
						}
					],
					"name": "allowance",
					"outputs": [
						{
							"internalType": "uint256",
							"name": "",
							"type": "uint256"
						}
					],
					"stateMutability": "view",
					"type": "function"
				},
				{
					"inputs": [
						{
							"internalType": "address",
							"name": "_spender",
							"type": "address"
						},
						{
							"internalType": "uint256",
							"name": "_value",
							"type": "uint256"
						}
					],
					"name": "approve",
					"outputs": [
						{
							"internalType": "bool",
							"name": "",
							"type": "bool"
						}
					],
					"stateMutability": "nonpayable",
					"type": "function"
				},
				{
					"inputs": [
						{
							"internalType": "address",
							"name": "_owner",
							"type": "address"
						}
					],
					"name": "balanceOf",
					"outputs": [
						{
							"internalType": "uint256",
							"name": "",
							"type": "uint256"
						}
					],
					"stateMutability": "view",
					"type": "function"
				},
				{
					"inputs": [],
					"name": "decimals",
					"outputs": [
						{
							"internalType": "uint8",
							"name": "",
							"type": "uint8"
						}
					],
					"stateMutability": "view",
					"type": "function"
				},
				{
					"inputs": [],
					"name": "finishMinting",
					"outputs": [
						{
							"internalType": "bool",
							"name": "",
							"type": "bool"
						}
					],
					"stateMutability": "nonpayable",
					"type": "function"
				},
				{
					"inputs": [],
					"name": "getOwner",
					"outputs": [
						{
							"internalType": "address",
							"name": "",
							"type": "address"
						}
					],
					"stateMutability": "view",
					"type": "function"
				},
				{
					"inputs": [
						{
							"internalType": "address",
							"name": "_to",
							"type": "address"
						},
						{
							"internalType": "uint256",
							"name": "_amount",
							"type": "uint256"
						}
					],
					"name": "mint",
					"outputs": [
						{
							"internalType": "bool",
							"name": "",
							"type": "bool"
						}
					],
					"stateMutability": "nonpayable",
					"type": "function"
				},
				{
					"inputs": [],
					"name": "mintingFinished",
					"outputs": [
						{
							"internalType": "bool",
							"name": "",
							"type": "bool"
						}
					],
					"stateMutability": "view",
					"type": "function"
				},
				{
					"inputs": [],
					"name": "name",
					"outputs": [
						{
							"internalType": "string",
							"name": "",
							"type": "string"
						}
					],
					"stateMutability": "view",
					"type": "function"
				},
				{
					"inputs": [],
					"name": "owner",
					"outputs": [
						{
							"internalType": "address",
							"name": "",
							"type": "address"
						}
					],
					"stateMutability": "view",
					"type": "function"
				},
				{
					"inputs": [],
					"name": "symbol",
					"outputs": [
						{
							"internalType": "string",
							"name": "",
							"type": "string"
						}
					],
					"stateMutability": "view",
					"type": "function"
				},
				{
					"inputs": [],
					"name": "totalSupply",
					"outputs": [
						{
							"internalType": "uint256",
							"name": "",
							"type": "uint256"
						}
					],
					"stateMutability": "view",
					"type": "function"
				},
				{
					"inputs": [
						{
							"internalType": "address",
							"name": "_to",
							"type": "address"
						},
						{
							"internalType": "uint256",
							"name": "_value",
							"type": "uint256"
						}
					],
					"name": "transfer",
					"outputs": [
						{
							"internalType": "bool",
							"name": "",
							"type": "bool"
						}
					],
					"stateMutability": "nonpayable",
					"type": "function"
				},
				{
					"inputs": [
						{
							"internalType": "address",
							"name": "_from",
							"type": "address"
						},
						{
							"internalType": "address",
							"name": "_to",
							"type": "address"
						},
						{
							"internalType": "uint256",
							"name": "_value",
							"type": "uint256"
						}
					],
					"name": "transferFrom",
					"outputs": [
						{
							"internalType": "bool",
							"name": "",
							"type": "bool"
						}
					],
					"stateMutability": "nonpayable",
					"type": "function"
				}
			],
			"devdoc": {
				"kind": "dev",
				"methods": {
					"allowance(address,address)": {
						"details": "Function to check the amount of tokens that an owner allowed to a spender.",
						"params": {
							"_owner": "address The address which owns the funds.",
							"_spender": "address The address which will spend the funds."
						},
						"returns": {
							"_0": "A uint256 specifying the amount of tokens still available for the spender."
						}
					},
					"approve(address,uint256)": {
						"details": "Approve the passed address to spend the specified amount of tokens on behalf of msg.sender. Beware that changing an allowance with this method brings the risk that someone may use both the old and the new allowance by unfortunate transaction ordering. One possible solution to mitigate this race condition is to first reduce the spender's allowance to 0 and set the desired value afterwards: https://github.com/ethereum/EIPs/issues/20#issuecomment-263524729",
						"params": {
							"_spender": "The address which will spend the funds.",
							"_value": "The amount of tokens to be spent."
						}
					},
					"balanceOf(address)": {
						"details": "Gets the balance of the specified address.",
						"params": {
							"_owner": "The address to query the the balance of."
						},
						"returns": {
							"_0": "An uint256 representing the amount owned by the passed address."
						}
					},
					"finishMinting()": {
						"details": "Function to stop minting new tokens.",
						"returns": {
							"_0": "True if the operation was successful."
						}
					},
					"mint(address,uint256)": {
						"details": "Function to mint tokens",
						"params": {
							"_amount": "The amount of tokens to mint.",
							"_to": "The address that will receive the minted tokens."
						},
						"returns": {
							"_0": "A boolean that indicates if the operation was successful."
						}
					},
					"totalSupply()": {
						"details": "total number of tokens in existence"
					},
					"transfer(address,uint256)": {
						"details": "transfer token for a specified address",
						"params": {
							"_to": "The address to transfer to.",
							"_value": "The amount to be transferred."
						}
					},
					"transferFrom(address,address,uint256)": {
						"details": "Transfer tokens from one address to another",
						"params": {
							"_from": "address The address which you want to send tokens from",
							"_to": "address The address which you want to transfer to",
							"_value": "uint256 the amount of tokens to be transferred"
						}
					}
				},
				"version": 1
			},
			"evm": {
				"assembly": "    /* \"contracts/ERC20.sol\":97:4936  contract ERC20 {\r... */\n  mstore(0x40, 0x80)\n    /* \"contracts/ERC20.sol\":188:193  false */\n  0x00\n    /* \"contracts/ERC20.sol\":158:193  bool public mintingFinished = false */\n  dup1\n  exp(0x0100, 0x00)\n  dup2\n  sload\n  dup2\n  0xff\n  mul\n  not\n  and\n  swap1\n  dup4\n  iszero\n  iszero\n  mul\n  or\n  swap1\n  sstore\n  pop\n    /* \"contracts/ERC20.sol\":229:239  msg.sender */\n  caller\n    /* \"contracts/ERC20.sol\":206:239  address public owner = msg.sender */\n  0x00\n  exp(0x0100, 0x01)\n  dup2\n  sload\n  dup2\n  0xffffffffffffffffffffffffffffffffffffffff\n  mul\n  not\n  and\n  swap1\n  dup4\n  0xffffffffffffffffffffffffffffffffffffffff\n  and\n  mul\n  or\n  swap1\n  sstore\n  pop\n    /* \"contracts/ERC20.sol\":97:4936  contract ERC20 {\r... */\n  callvalue\n  dup1\n  iszero\n  tag_1\n  jumpi\n  0x00\n  dup1\n  revert\ntag_1:\n  pop\n  dataSize(sub_0)\n  dup1\n  dataOffset(sub_0)\n  0x00\n  codecopy\n  0x00\n  return\nstop\n\nsub_0: assembly {\n        /* \"contracts/ERC20.sol\":97:4936  contract ERC20 {\r... */\n      mstore(0x40, 0x80)\n      callvalue\n      dup1\n      iszero\n      tag_1\n      jumpi\n      0x00\n      dup1\n      revert\n    tag_1:\n      pop\n      jumpi(tag_2, lt(calldatasize, 0x04))\n      shr(0xe0, calldataload(0x00))\n      dup1\n      0x70a08231\n      gt\n      tag_17\n      jumpi\n      dup1\n      0x8da5cb5b\n      gt\n      tag_18\n      jumpi\n      dup1\n      0x8da5cb5b\n      eq\n      tag_13\n      jumpi\n      dup1\n      0x95d89b41\n      eq\n      tag_14\n      jumpi\n      dup1\n      0xa9059cbb\n      eq\n      tag_15\n      jumpi\n      dup1\n      0xdd62ed3e\n      eq\n      tag_16\n      jumpi\n      jump(tag_2)\n    tag_18:\n      dup1\n      0x70a08231\n      eq\n      tag_10\n      jumpi\n      dup1\n      0x7d64bcb4\n      eq\n      tag_11\n      jumpi\n      dup1\n      0x893d20e8\n      eq\n      tag_12\n      jumpi\n      jump(tag_2)\n    tag_17:\n      dup1\n      0x18160ddd\n      gt\n      tag_19\n      jumpi\n      dup1\n      0x18160ddd\n      eq\n      tag_6\n      jumpi\n      dup1\n      0x23b872dd\n      eq\n      tag_7\n      jumpi\n      dup1\n      0x313ce567\n      eq\n      tag_8\n      jumpi\n      dup1\n      0x40c10f19\n      eq\n      tag_9\n      jumpi\n      jump(tag_2)\n    tag_19:\n      dup1\n      0x05d2035b\n      eq\n      tag_3\n      jumpi\n      dup1\n      0x06fdde03\n      eq\n      tag_4\n      jumpi\n      dup1\n      0x095ea7b3\n      eq\n      tag_5\n      jumpi\n    tag_2:\n      0x00\n      dup1\n      revert\n        /* \"contracts/ERC20.sol\":158:193  bool public mintingFinished = false */\n    tag_3:\n      tag_20\n      tag_21\n      jump\t// in\n    tag_20:\n      mload(0x40)\n      tag_22\n      swap2\n      swap1\n      tag_23\n      jump\t// in\n    tag_22:\n      mload(0x40)\n      dup1\n      swap2\n      sub\n      swap1\n      return\n        /* \"contracts/ERC20.sol\":380:428  string public constant name = \"BloctractorToken\" */\n    tag_4:\n      tag_24\n      tag_25\n      jump\t// in\n    tag_24:\n      mload(0x40)\n      tag_26\n      swap2\n      swap1\n      tag_27\n      jump\t// in\n    tag_26:\n      mload(0x40)\n      dup1\n      swap2\n      sub\n      swap1\n      return\n        /* \"contracts/ERC20.sol\":3234:3426  function approve(address _spender, uint256 _value) public returns (bool) {\r... */\n    tag_5:\n      tag_28\n      0x04\n      dup1\n      calldatasize\n      sub\n      dup2\n      add\n      swap1\n      tag_29\n      swap2\n      swap1\n      tag_30\n      jump\t// in\n    tag_29:\n      tag_31\n      jump\t// in\n    tag_28:\n      mload(0x40)\n      tag_32\n      swap2\n      swap1\n      tag_23\n      jump\t// in\n    tag_32:\n      mload(0x40)\n      dup1\n      swap2\n      sub\n      swap1\n      return\n        /* \"contracts/ERC20.sol\":862:947  function totalSupply() public view returns (uint256) {\r... */\n    tag_6:\n      tag_33\n      tag_34\n      jump\t// in\n    tag_33:\n      mload(0x40)\n      tag_35\n      swap2\n      swap1\n      tag_36\n      jump\t// in\n    tag_35:\n      mload(0x40)\n      dup1\n      swap2\n      sub\n      swap1\n      return\n        /* \"contracts/ERC20.sol\":2078:2599  function transferFrom(address _from, address _to, uint256 _value) public returns (bool) {\r... */\n    tag_7:\n      tag_37\n      0x04\n      dup1\n      calldatasize\n      sub\n      dup2\n      add\n      swap1\n      tag_38\n      swap2\n      swap1\n      tag_39\n      jump\t// in\n    tag_38:\n      tag_40\n      jump\t// in\n    tag_37:\n      mload(0x40)\n      tag_41\n      swap2\n      swap1\n      tag_23\n      jump\t// in\n    tag_41:\n      mload(0x40)\n      dup1\n      swap2\n      sub\n      swap1\n      return\n        /* \"contracts/ERC20.sol\":478:513  uint8 public constant decimals = 18 */\n    tag_8:\n      tag_42\n      tag_43\n      jump\t// in\n    tag_42:\n      mload(0x40)\n      tag_44\n      swap2\n      swap1\n      tag_45\n      jump\t// in\n    tag_44:\n      mload(0x40)\n      dup1\n      swap2\n      sub\n      swap1\n      return\n        /* \"contracts/ERC20.sol\":4133:4413  function mint(address _to, uint256 _amount) onlyOwner canMint public returns (bool) {\r... */\n    tag_9:\n      tag_46\n      0x04\n      dup1\n      calldatasize\n      sub\n      dup2\n      add\n      swap1\n      tag_47\n      swap2\n      swap1\n      tag_30\n      jump\t// in\n    tag_47:\n      tag_48\n      jump\t// in\n    tag_46:\n      mload(0x40)\n      tag_49\n      swap2\n      swap1\n      tag_23\n      jump\t// in\n    tag_49:\n      mload(0x40)\n      dup1\n      swap2\n      sub\n      swap1\n      return\n        /* \"contracts/ERC20.sol\":1160:1261  function balanceOf(address _owner) public view returns (uint256) {\r... */\n    tag_10:\n      tag_50\n      0x04\n      dup1\n      calldatasize\n      sub\n      dup2\n      add\n      swap1\n      tag_51\n      swap2\n      swap1\n      tag_52\n      jump\t// in\n    tag_51:\n      tag_53\n      jump\t// in\n    tag_50:\n      mload(0x40)\n      tag_54\n      swap2\n      swap1\n      tag_36\n      jump\t// in\n    tag_54:\n      mload(0x40)\n      dup1\n      swap2\n      sub\n      swap1\n      return\n        /* \"contracts/ERC20.sol\":4533:4677  function finishMinting() onlyOwner canMint public returns (bool) {\r... */\n    tag_11:\n      tag_55\n      tag_56\n      jump\t// in\n    tag_55:\n      mload(0x40)\n      tag_57\n      swap2\n      swap1\n      tag_23\n      jump\t// in\n    tag_57:\n      mload(0x40)\n      dup1\n      swap2\n      sub\n      swap1\n      return\n        /* \"contracts/ERC20.sol\":4685:4761  function getOwner() public view returns (address){\r... */\n    tag_12:\n      tag_58\n      tag_59\n      jump\t// in\n    tag_58:\n      mload(0x40)\n      tag_60\n      swap2\n      swap1\n      tag_61\n      jump\t// in\n    tag_60:\n      mload(0x40)\n      dup1\n      swap2\n      sub\n      swap1\n      return\n        /* \"contracts/ERC20.sol\":206:239  address public owner = msg.sender */\n    tag_13:\n      tag_62\n      tag_63\n      jump\t// in\n    tag_62:\n      mload(0x40)\n      tag_64\n      swap2\n      swap1\n      tag_61\n      jump\t// in\n    tag_64:\n      mload(0x40)\n      dup1\n      swap2\n      sub\n      swap1\n      return\n        /* \"contracts/ERC20.sol\":435:471  string public constant symbol = \"BT\" */\n    tag_14:\n      tag_65\n      tag_66\n      jump\t// in\n    tag_65:\n      mload(0x40)\n      tag_67\n      swap2\n      swap1\n      tag_27\n      jump\t// in\n    tag_67:\n      mload(0x40)\n      dup1\n      swap2\n      sub\n      swap1\n      return\n        /* \"contracts/ERC20.sol\":1424:1791  function transfer(address _to, uint256 _value) public returns (bool) {\r... */\n    tag_15:\n      tag_68\n      0x04\n      dup1\n      calldatasize\n      sub\n      dup2\n      add\n      swap1\n      tag_69\n      swap2\n      swap1\n      tag_30\n      jump\t// in\n    tag_69:\n      tag_70\n      jump\t// in\n    tag_68:\n      mload(0x40)\n      tag_71\n      swap2\n      swap1\n      tag_23\n      jump\t// in\n    tag_71:\n      mload(0x40)\n      dup1\n      swap2\n      sub\n      swap1\n      return\n        /* \"contracts/ERC20.sol\":3753:3881  function allowance(address _owner, address _spender) public view returns (uint256) {\r... */\n    tag_16:\n      tag_72\n      0x04\n      dup1\n      calldatasize\n      sub\n      dup2\n      add\n      swap1\n      tag_73\n      swap2\n      swap1\n      tag_74\n      jump\t// in\n    tag_73:\n      tag_75\n      jump\t// in\n    tag_72:\n      mload(0x40)\n      tag_76\n      swap2\n      swap1\n      tag_36\n      jump\t// in\n    tag_76:\n      mload(0x40)\n      dup1\n      swap2\n      sub\n      swap1\n      return\n        /* \"contracts/ERC20.sol\":158:193  bool public mintingFinished = false */\n    tag_21:\n      0x00\n      dup1\n      sload\n      swap1\n      0x0100\n      exp\n      swap1\n      div\n      0xff\n      and\n      dup2\n      jump\t// out\n        /* \"contracts/ERC20.sol\":380:428  string public constant name = \"BloctractorToken\" */\n    tag_25:\n      mload(0x40)\n      dup1\n      0x40\n      add\n      0x40\n      mstore\n      dup1\n      0x10\n      dup2\n      mstore\n      0x20\n      add\n      0x426c6f6374726163746f72546f6b656e00000000000000000000000000000000\n      dup2\n      mstore\n      pop\n      dup2\n      jump\t// out\n        /* \"contracts/ERC20.sol\":3234:3426  function approve(address _spender, uint256 _value) public returns (bool) {\r... */\n    tag_31:\n        /* \"contracts/ERC20.sol\":3301:3305  bool */\n      0x00\n        /* \"contracts/ERC20.sol\":3346:3352  _value */\n      dup2\n        /* \"contracts/ERC20.sol\":3314:3321  allowed */\n      0x01\n        /* \"contracts/ERC20.sol\":3314:3333  allowed[msg.sender] */\n      0x00\n        /* \"contracts/ERC20.sol\":3322:3332  msg.sender */\n      caller\n        /* \"contracts/ERC20.sol\":3314:3333  allowed[msg.sender] */\n      0xffffffffffffffffffffffffffffffffffffffff\n      and\n      0xffffffffffffffffffffffffffffffffffffffff\n      and\n      dup2\n      mstore\n      0x20\n      add\n      swap1\n      dup2\n      mstore\n      0x20\n      add\n      0x00\n      keccak256\n        /* \"contracts/ERC20.sol\":3314:3343  allowed[msg.sender][_spender] */\n      0x00\n        /* \"contracts/ERC20.sol\":3334:3342  _spender */\n      dup6\n        /* \"contracts/ERC20.sol\":3314:3343  allowed[msg.sender][_spender] */\n      0xffffffffffffffffffffffffffffffffffffffff\n      and\n      0xffffffffffffffffffffffffffffffffffffffff\n      and\n      dup2\n      mstore\n      0x20\n      add\n      swap1\n      dup2\n      mstore\n      0x20\n      add\n      0x00\n      keccak256\n        /* \"contracts/ERC20.sol\":3314:3352  allowed[msg.sender][_spender] = _value */\n      dup2\n      swap1\n      sstore\n      pop\n        /* \"contracts/ERC20.sol\":3385:3393  _spender */\n      dup3\n        /* \"contracts/ERC20.sol\":3364:3402  Approval(msg.sender, _spender, _value) */\n      0xffffffffffffffffffffffffffffffffffffffff\n      and\n        /* \"contracts/ERC20.sol\":3373:3383  msg.sender */\n      caller\n        /* \"contracts/ERC20.sol\":3364:3402  Approval(msg.sender, _spender, _value) */\n      0xffffffffffffffffffffffffffffffffffffffff\n      and\n      0x8c5be1e5ebec7d5bd14f71427d1e84f3dd0314c0f7b2291e5b200ac8c7c3b925\n        /* \"contracts/ERC20.sol\":3395:3401  _value */\n      dup5\n        /* \"contracts/ERC20.sol\":3364:3402  Approval(msg.sender, _spender, _value) */\n      mload(0x40)\n      tag_78\n      swap2\n      swap1\n      tag_36\n      jump\t// in\n    tag_78:\n      mload(0x40)\n      dup1\n      swap2\n      sub\n      swap1\n      log3\n        /* \"contracts/ERC20.sol\":3416:3420  true */\n      0x01\n        /* \"contracts/ERC20.sol\":3409:3420  return true */\n      swap1\n      pop\n        /* \"contracts/ERC20.sol\":3234:3426  function approve(address _spender, uint256 _value) public returns (bool) {\r... */\n      swap3\n      swap2\n      pop\n      pop\n      jump\t// out\n        /* \"contracts/ERC20.sol\":862:947  function totalSupply() public view returns (uint256) {\r... */\n    tag_34:\n        /* \"contracts/ERC20.sol\":906:913  uint256 */\n      0x00\n        /* \"contracts/ERC20.sol\":929:941  totalSupply_ */\n      sload(0x03)\n        /* \"contracts/ERC20.sol\":922:941  return totalSupply_ */\n      swap1\n      pop\n        /* \"contracts/ERC20.sol\":862:947  function totalSupply() public view returns (uint256) {\r... */\n      swap1\n      jump\t// out\n        /* \"contracts/ERC20.sol\":2078:2599  function transferFrom(address _from, address _to, uint256 _value) public returns (bool) {\r... */\n    tag_40:\n        /* \"contracts/ERC20.sol\":2160:2164  bool */\n      0x00\n        /* \"contracts/ERC20.sol\":2196:2197  0 */\n      dup1\n        /* \"contracts/ERC20.sol\":2181:2198  _to != address(0) */\n      0xffffffffffffffffffffffffffffffffffffffff\n      and\n        /* \"contracts/ERC20.sol\":2181:2184  _to */\n      dup4\n        /* \"contracts/ERC20.sol\":2181:2198  _to != address(0) */\n      0xffffffffffffffffffffffffffffffffffffffff\n      and\n      eq\n      iszero\n        /* \"contracts/ERC20.sol\":2173:2199  require(_to != address(0)) */\n      tag_81\n      jumpi\n      0x00\n      dup1\n      revert\n    tag_81:\n        /* \"contracts/ERC20.sol\":2224:2232  balances */\n      0x02\n        /* \"contracts/ERC20.sol\":2224:2239  balances[_from] */\n      0x00\n        /* \"contracts/ERC20.sol\":2233:2238  _from */\n      dup6\n        /* \"contracts/ERC20.sol\":2224:2239  balances[_from] */\n      0xffffffffffffffffffffffffffffffffffffffff\n      and\n      0xffffffffffffffffffffffffffffffffffffffff\n      and\n      dup2\n      mstore\n      0x20\n      add\n      swap1\n      dup2\n      mstore\n      0x20\n      add\n      0x00\n      keccak256\n      sload\n        /* \"contracts/ERC20.sol\":2214:2220  _value */\n      dup3\n        /* \"contracts/ERC20.sol\":2214:2239  _value <= balances[_from] */\n      gt\n      iszero\n        /* \"contracts/ERC20.sol\":2206:2276  require(_value <= balances[_from], \"From doesn't have enough balance\") */\n      tag_82\n      jumpi\n      mload(0x40)\n      0x08c379a000000000000000000000000000000000000000000000000000000000\n      dup2\n      mstore\n      0x04\n      add\n      tag_83\n      swap1\n      tag_84\n      jump\t// in\n    tag_83:\n      mload(0x40)\n      dup1\n      swap2\n      sub\n      swap1\n      revert\n    tag_82:\n        /* \"contracts/ERC20.sol\":2301:2308  allowed */\n      0x01\n        /* \"contracts/ERC20.sol\":2301:2315  allowed[_from] */\n      0x00\n        /* \"contracts/ERC20.sol\":2309:2314  _from */\n      dup6\n        /* \"contracts/ERC20.sol\":2301:2315  allowed[_from] */\n      0xffffffffffffffffffffffffffffffffffffffff\n      and\n      0xffffffffffffffffffffffffffffffffffffffff\n      and\n      dup2\n      mstore\n      0x20\n      add\n      swap1\n      dup2\n      mstore\n      0x20\n      add\n      0x00\n      keccak256\n        /* \"contracts/ERC20.sol\":2301:2326  allowed[_from][tx.origin] */\n      0x00\n        /* \"contracts/ERC20.sol\":2316:2325  tx.origin */\n      origin\n        /* \"contracts/ERC20.sol\":2301:2326  allowed[_from][tx.origin] */\n      0xffffffffffffffffffffffffffffffffffffffff\n      and\n      0xffffffffffffffffffffffffffffffffffffffff\n      and\n      dup2\n      mstore\n      0x20\n      add\n      swap1\n      dup2\n      mstore\n      0x20\n      add\n      0x00\n      keccak256\n      sload\n        /* \"contracts/ERC20.sol\":2291:2297  _value */\n      dup3\n        /* \"contracts/ERC20.sol\":2291:2326  _value <= allowed[_from][tx.origin] */\n      gt\n      iszero\n        /* \"contracts/ERC20.sol\":2283:2361  require(_value <= allowed[_from][tx.origin], \"Not allowed to spend this much\") */\n      tag_85\n      jumpi\n      mload(0x40)\n      0x08c379a000000000000000000000000000000000000000000000000000000000\n      dup2\n      mstore\n      0x04\n      add\n      tag_86\n      swap1\n      tag_87\n      jump\t// in\n    tag_86:\n      mload(0x40)\n      dup1\n      swap2\n      sub\n      swap1\n      revert\n    tag_85:\n        /* \"contracts/ERC20.sol\":2388:2415  balances[_from].sub(_value) */\n      tag_88\n        /* \"contracts/ERC20.sol\":2408:2414  _value */\n      dup3\n        /* \"contracts/ERC20.sol\":2388:2396  balances */\n      0x02\n        /* \"contracts/ERC20.sol\":2388:2403  balances[_from] */\n      0x00\n        /* \"contracts/ERC20.sol\":2397:2402  _from */\n      dup8\n        /* \"contracts/ERC20.sol\":2388:2403  balances[_from] */\n      0xffffffffffffffffffffffffffffffffffffffff\n      and\n      0xffffffffffffffffffffffffffffffffffffffff\n      and\n      dup2\n      mstore\n      0x20\n      add\n      swap1\n      dup2\n      mstore\n      0x20\n      add\n      0x00\n      keccak256\n      sload\n        /* \"contracts/ERC20.sol\":2388:2407  balances[_from].sub */\n      tag_89\n      swap1\n        /* \"contracts/ERC20.sol\":2388:2415  balances[_from].sub(_value) */\n      swap2\n      swap1\n      0xffffffff\n      and\n      jump\t// in\n    tag_88:\n        /* \"contracts/ERC20.sol\":2370:2378  balances */\n      0x02\n        /* \"contracts/ERC20.sol\":2370:2385  balances[_from] */\n      0x00\n        /* \"contracts/ERC20.sol\":2379:2384  _from */\n      dup7\n        /* \"contracts/ERC20.sol\":2370:2385  balances[_from] */\n      0xffffffffffffffffffffffffffffffffffffffff\n      and\n      0xffffffffffffffffffffffffffffffffffffffff\n      and\n      dup2\n      mstore\n      0x20\n      add\n      swap1\n      dup2\n      mstore\n      0x20\n      add\n      0x00\n      keccak256\n        /* \"contracts/ERC20.sol\":2370:2415  balances[_from] = balances[_from].sub(_value) */\n      dup2\n      swap1\n      sstore\n      pop\n        /* \"contracts/ERC20.sol\":2438:2463  balances[_to].add(_value) */\n      tag_90\n        /* \"contracts/ERC20.sol\":2456:2462  _value */\n      dup3\n        /* \"contracts/ERC20.sol\":2438:2446  balances */\n      0x02\n        /* \"contracts/ERC20.sol\":2438:2451  balances[_to] */\n      0x00\n        /* \"contracts/ERC20.sol\":2447:2450  _to */\n      dup7\n        /* \"contracts/ERC20.sol\":2438:2451  balances[_to] */\n      0xffffffffffffffffffffffffffffffffffffffff\n      and\n      0xffffffffffffffffffffffffffffffffffffffff\n      and\n      dup2\n      mstore\n      0x20\n      add\n      swap1\n      dup2\n      mstore\n      0x20\n      add\n      0x00\n      keccak256\n      sload\n        /* \"contracts/ERC20.sol\":2438:2455  balances[_to].add */\n      tag_91\n      swap1\n        /* \"contracts/ERC20.sol\":2438:2463  balances[_to].add(_value) */\n      swap2\n      swap1\n      0xffffffff\n      and\n      jump\t// in\n    tag_90:\n        /* \"contracts/ERC20.sol\":2422:2430  balances */\n      0x02\n        /* \"contracts/ERC20.sol\":2422:2435  balances[_to] */\n      0x00\n        /* \"contracts/ERC20.sol\":2431:2434  _to */\n      dup6\n        /* \"contracts/ERC20.sol\":2422:2435  balances[_to] */\n      0xffffffffffffffffffffffffffffffffffffffff\n      and\n      0xffffffffffffffffffffffffffffffffffffffff\n      and\n      dup2\n      mstore\n      0x20\n      add\n      swap1\n      dup2\n      mstore\n      0x20\n      add\n      0x00\n      keccak256\n        /* \"contracts/ERC20.sol\":2422:2463  balances[_to] = balances[_to].add(_value) */\n      dup2\n      swap1\n      sstore\n      pop\n        /* \"contracts/ERC20.sol\":2498:2535  allowed[_from][tx.origin].sub(_value) */\n      tag_92\n        /* \"contracts/ERC20.sol\":2528:2534  _value */\n      dup3\n        /* \"contracts/ERC20.sol\":2498:2505  allowed */\n      0x01\n        /* \"contracts/ERC20.sol\":2498:2512  allowed[_from] */\n      0x00\n        /* \"contracts/ERC20.sol\":2506:2511  _from */\n      dup8\n        /* \"contracts/ERC20.sol\":2498:2512  allowed[_from] */\n      0xffffffffffffffffffffffffffffffffffffffff\n      and\n      0xffffffffffffffffffffffffffffffffffffffff\n      and\n      dup2\n      mstore\n      0x20\n      add\n      swap1\n      dup2\n      mstore\n      0x20\n      add\n      0x00\n      keccak256\n        /* \"contracts/ERC20.sol\":2498:2523  allowed[_from][tx.origin] */\n      0x00\n        /* \"contracts/ERC20.sol\":2513:2522  tx.origin */\n      origin\n        /* \"contracts/ERC20.sol\":2498:2523  allowed[_from][tx.origin] */\n      0xffffffffffffffffffffffffffffffffffffffff\n      and\n      0xffffffffffffffffffffffffffffffffffffffff\n      and\n      dup2\n      mstore\n      0x20\n      add\n      swap1\n      dup2\n      mstore\n      0x20\n      add\n      0x00\n      keccak256\n      sload\n        /* \"contracts/ERC20.sol\":2498:2527  allowed[_from][tx.origin].sub */\n      tag_89\n      swap1\n        /* \"contracts/ERC20.sol\":2498:2535  allowed[_from][tx.origin].sub(_value) */\n      swap2\n      swap1\n      0xffffffff\n      and\n      jump\t// in\n    tag_92:\n        /* \"contracts/ERC20.sol\":2470:2477  allowed */\n      0x01\n        /* \"contracts/ERC20.sol\":2470:2484  allowed[_from] */\n      0x00\n        /* \"contracts/ERC20.sol\":2478:2483  _from */\n      dup7\n        /* \"contracts/ERC20.sol\":2470:2484  allowed[_from] */\n      0xffffffffffffffffffffffffffffffffffffffff\n      and\n      0xffffffffffffffffffffffffffffffffffffffff\n      and\n      dup2\n      mstore\n      0x20\n      add\n      swap1\n      dup2\n      mstore\n      0x20\n      add\n      0x00\n      keccak256\n        /* \"contracts/ERC20.sol\":2470:2495  allowed[_from][tx.origin] */\n      0x00\n        /* \"contracts/ERC20.sol\":2485:2494  tx.origin */\n      origin\n        /* \"contracts/ERC20.sol\":2470:2495  allowed[_from][tx.origin] */\n      0xffffffffffffffffffffffffffffffffffffffff\n      and\n      0xffffffffffffffffffffffffffffffffffffffff\n      and\n      dup2\n      mstore\n      0x20\n      add\n      swap1\n      dup2\n      mstore\n      0x20\n      add\n      0x00\n      keccak256\n        /* \"contracts/ERC20.sol\":2470:2535  allowed[_from][tx.origin] = allowed[_from][tx.origin].sub(_value) */\n      dup2\n      swap1\n      sstore\n      pop\n        /* \"contracts/ERC20.sol\":2563:2566  _to */\n      dup3\n        /* \"contracts/ERC20.sol\":2547:2575  Transfer(_from, _to, _value) */\n      0xffffffffffffffffffffffffffffffffffffffff\n      and\n        /* \"contracts/ERC20.sol\":2556:2561  _from */\n      dup5\n        /* \"contracts/ERC20.sol\":2547:2575  Transfer(_from, _to, _value) */\n      0xffffffffffffffffffffffffffffffffffffffff\n      and\n      0xddf252ad1be2c89b69c2b068fc378daa952ba7f163c4a11628f55a4df523b3ef\n        /* \"contracts/ERC20.sol\":2568:2574  _value */\n      dup5\n        /* \"contracts/ERC20.sol\":2547:2575  Transfer(_from, _to, _value) */\n      mload(0x40)\n      tag_93\n      swap2\n      swap1\n      tag_36\n      jump\t// in\n    tag_93:\n      mload(0x40)\n      dup1\n      swap2\n      sub\n      swap1\n      log3\n        /* \"contracts/ERC20.sol\":2589:2593  true */\n      0x01\n        /* \"contracts/ERC20.sol\":2582:2593  return true */\n      swap1\n      pop\n        /* \"contracts/ERC20.sol\":2078:2599  function transferFrom(address _from, address _to, uint256 _value) public returns (bool) {\r... */\n      swap4\n      swap3\n      pop\n      pop\n      pop\n      jump\t// out\n        /* \"contracts/ERC20.sol\":478:513  uint8 public constant decimals = 18 */\n    tag_43:\n        /* \"contracts/ERC20.sol\":511:513  18 */\n      0x12\n        /* \"contracts/ERC20.sol\":478:513  uint8 public constant decimals = 18 */\n      dup2\n      jump\t// out\n        /* \"contracts/ERC20.sol\":4133:4413  function mint(address _to, uint256 _amount) onlyOwner canMint public returns (bool) {\r... */\n    tag_48:\n        /* \"contracts/ERC20.sol\":4211:4215  bool */\n      0x00\n        /* \"contracts/ERC20.sol\":4824:4829  owner */\n      dup1\n      0x01\n      swap1\n      sload\n      swap1\n      0x0100\n      exp\n      swap1\n      div\n      0xffffffffffffffffffffffffffffffffffffffff\n      and\n        /* \"contracts/ERC20.sol\":4810:4829  msg.sender == owner */\n      0xffffffffffffffffffffffffffffffffffffffff\n      and\n        /* \"contracts/ERC20.sol\":4810:4820  msg.sender */\n      caller\n        /* \"contracts/ERC20.sol\":4810:4829  msg.sender == owner */\n      0xffffffffffffffffffffffffffffffffffffffff\n      and\n      eq\n        /* \"contracts/ERC20.sol\":4802:4830  require(msg.sender == owner) */\n      tag_95\n      jumpi\n      0x00\n      dup1\n      revert\n    tag_95:\n        /* \"contracts/ERC20.sol\":4891:4906  mintingFinished */\n      0x00\n      dup1\n      sload\n      swap1\n      0x0100\n      exp\n      swap1\n      div\n      0xff\n      and\n        /* \"contracts/ERC20.sol\":4890:4906  !mintingFinished */\n      iszero\n        /* \"contracts/ERC20.sol\":4882:4907  require(!mintingFinished) */\n      tag_97\n      jumpi\n      0x00\n      dup1\n      revert\n    tag_97:\n        /* \"contracts/ERC20.sol\":4239:4264  totalSupply_.add(_amount) */\n      tag_99\n        /* \"contracts/ERC20.sol\":4256:4263  _amount */\n      dup3\n        /* \"contracts/ERC20.sol\":4239:4251  totalSupply_ */\n      sload(0x03)\n        /* \"contracts/ERC20.sol\":4239:4255  totalSupply_.add */\n      tag_91\n      swap1\n        /* \"contracts/ERC20.sol\":4239:4264  totalSupply_.add(_amount) */\n      swap2\n      swap1\n      0xffffffff\n      and\n      jump\t// in\n    tag_99:\n        /* \"contracts/ERC20.sol\":4224:4236  totalSupply_ */\n      0x03\n        /* \"contracts/ERC20.sol\":4224:4264  totalSupply_ = totalSupply_.add(_amount) */\n      dup2\n      swap1\n      sstore\n      pop\n        /* \"contracts/ERC20.sol\":4287:4313  balances[_to].add(_amount) */\n      tag_100\n        /* \"contracts/ERC20.sol\":4305:4312  _amount */\n      dup3\n        /* \"contracts/ERC20.sol\":4287:4295  balances */\n      0x02\n        /* \"contracts/ERC20.sol\":4287:4300  balances[_to] */\n      0x00\n        /* \"contracts/ERC20.sol\":4296:4299  _to */\n      dup7\n        /* \"contracts/ERC20.sol\":4287:4300  balances[_to] */\n      0xffffffffffffffffffffffffffffffffffffffff\n      and\n      0xffffffffffffffffffffffffffffffffffffffff\n      and\n      dup2\n      mstore\n      0x20\n      add\n      swap1\n      dup2\n      mstore\n      0x20\n      add\n      0x00\n      keccak256\n      sload\n        /* \"contracts/ERC20.sol\":4287:4304  balances[_to].add */\n      tag_91\n      swap1\n        /* \"contracts/ERC20.sol\":4287:4313  balances[_to].add(_amount) */\n      swap2\n      swap1\n      0xffffffff\n      and\n      jump\t// in\n    tag_100:\n        /* \"contracts/ERC20.sol\":4271:4279  balances */\n      0x02\n        /* \"contracts/ERC20.sol\":4271:4284  balances[_to] */\n      0x00\n        /* \"contracts/ERC20.sol\":4280:4283  _to */\n      dup6\n        /* \"contracts/ERC20.sol\":4271:4284  balances[_to] */\n      0xffffffffffffffffffffffffffffffffffffffff\n      and\n      0xffffffffffffffffffffffffffffffffffffffff\n      and\n      dup2\n      mstore\n      0x20\n      add\n      swap1\n      dup2\n      mstore\n      0x20\n      add\n      0x00\n      keccak256\n        /* \"contracts/ERC20.sol\":4271:4313  balances[_to] = balances[_to].add(_amount) */\n      dup2\n      swap1\n      sstore\n      pop\n        /* \"contracts/ERC20.sol\":4330:4333  _to */\n      dup3\n        /* \"contracts/ERC20.sol\":4325:4343  Mint(_to, _amount) */\n      0xffffffffffffffffffffffffffffffffffffffff\n      and\n      0x0f6798a560793a54c3bcfe86a93cde1e73087d944c0ea20544137d4121396885\n        /* \"contracts/ERC20.sol\":4335:4342  _amount */\n      dup4\n        /* \"contracts/ERC20.sol\":4325:4343  Mint(_to, _amount) */\n      mload(0x40)\n      tag_101\n      swap2\n      swap1\n      tag_36\n      jump\t// in\n    tag_101:\n      mload(0x40)\n      dup1\n      swap2\n      sub\n      swap1\n      log2\n        /* \"contracts/ERC20.sol\":4376:4379  _to */\n      dup3\n        /* \"contracts/ERC20.sol\":4355:4389  Transfer(address(0), _to, _amount) */\n      0xffffffffffffffffffffffffffffffffffffffff\n      and\n        /* \"contracts/ERC20.sol\":4372:4373  0 */\n      0x00\n        /* \"contracts/ERC20.sol\":4355:4389  Transfer(address(0), _to, _amount) */\n      0xffffffffffffffffffffffffffffffffffffffff\n      and\n      0xddf252ad1be2c89b69c2b068fc378daa952ba7f163c4a11628f55a4df523b3ef\n        /* \"contracts/ERC20.sol\":4381:4388  _amount */\n      dup5\n        /* \"contracts/ERC20.sol\":4355:4389  Transfer(address(0), _to, _amount) */\n      mload(0x40)\n      tag_102\n      swap2\n      swap1\n      tag_36\n      jump\t// in\n    tag_102:\n      mload(0x40)\n      dup1\n      swap2\n      sub\n      swap1\n      log3\n        /* \"contracts/ERC20.sol\":4403:4407  true */\n      0x01\n        /* \"contracts/ERC20.sol\":4396:4407  return true */\n      swap1\n      pop\n        /* \"contracts/ERC20.sol\":4133:4413  function mint(address _to, uint256 _amount) onlyOwner canMint public returns (bool) {\r... */\n      swap3\n      swap2\n      pop\n      pop\n      jump\t// out\n        /* \"contracts/ERC20.sol\":1160:1261  function balanceOf(address _owner) public view returns (uint256) {\r... */\n    tag_53:\n        /* \"contracts/ERC20.sol\":1216:1223  uint256 */\n      0x00\n        /* \"contracts/ERC20.sol\":1239:1247  balances */\n      0x02\n        /* \"contracts/ERC20.sol\":1239:1255  balances[_owner] */\n      0x00\n        /* \"contracts/ERC20.sol\":1248:1254  _owner */\n      dup4\n        /* \"contracts/ERC20.sol\":1239:1255  balances[_owner] */\n      0xffffffffffffffffffffffffffffffffffffffff\n      and\n      0xffffffffffffffffffffffffffffffffffffffff\n      and\n      dup2\n      mstore\n      0x20\n      add\n      swap1\n      dup2\n      mstore\n      0x20\n      add\n      0x00\n      keccak256\n      sload\n        /* \"contracts/ERC20.sol\":1232:1255  return balances[_owner] */\n      swap1\n      pop\n        /* \"contracts/ERC20.sol\":1160:1261  function balanceOf(address _owner) public view returns (uint256) {\r... */\n      swap2\n      swap1\n      pop\n      jump\t// out\n        /* \"contracts/ERC20.sol\":4533:4677  function finishMinting() onlyOwner canMint public returns (bool) {\r... */\n    tag_56:\n        /* \"contracts/ERC20.sol\":4592:4596  bool */\n      0x00\n        /* \"contracts/ERC20.sol\":4824:4829  owner */\n      dup1\n      0x01\n      swap1\n      sload\n      swap1\n      0x0100\n      exp\n      swap1\n      div\n      0xffffffffffffffffffffffffffffffffffffffff\n      and\n        /* \"contracts/ERC20.sol\":4810:4829  msg.sender == owner */\n      0xffffffffffffffffffffffffffffffffffffffff\n      and\n        /* \"contracts/ERC20.sol\":4810:4820  msg.sender */\n      caller\n        /* \"contracts/ERC20.sol\":4810:4829  msg.sender == owner */\n      0xffffffffffffffffffffffffffffffffffffffff\n      and\n      eq\n        /* \"contracts/ERC20.sol\":4802:4830  require(msg.sender == owner) */\n      tag_105\n      jumpi\n      0x00\n      dup1\n      revert\n    tag_105:\n        /* \"contracts/ERC20.sol\":4891:4906  mintingFinished */\n      0x00\n      dup1\n      sload\n      swap1\n      0x0100\n      exp\n      swap1\n      div\n      0xff\n      and\n        /* \"contracts/ERC20.sol\":4890:4906  !mintingFinished */\n      iszero\n        /* \"contracts/ERC20.sol\":4882:4907  require(!mintingFinished) */\n      tag_107\n      jumpi\n      0x00\n      dup1\n      revert\n    tag_107:\n        /* \"contracts/ERC20.sol\":4623:4627  true */\n      0x01\n        /* \"contracts/ERC20.sol\":4605:4620  mintingFinished */\n      0x00\n      dup1\n        /* \"contracts/ERC20.sol\":4605:4627  mintingFinished = true */\n      0x0100\n      exp\n      dup2\n      sload\n      dup2\n      0xff\n      mul\n      not\n      and\n      swap1\n      dup4\n      iszero\n      iszero\n      mul\n      or\n      swap1\n      sstore\n      pop\n        /* \"contracts/ERC20.sol\":4639:4653  MintFinished() */\n      0xae5184fba832cb2b1f702aca6117b8d265eaf03ad33eb133f19dde0f5920fa08\n      mload(0x40)\n      mload(0x40)\n      dup1\n      swap2\n      sub\n      swap1\n      log1\n        /* \"contracts/ERC20.sol\":4667:4671  true */\n      0x01\n        /* \"contracts/ERC20.sol\":4660:4671  return true */\n      swap1\n      pop\n        /* \"contracts/ERC20.sol\":4533:4677  function finishMinting() onlyOwner canMint public returns (bool) {\r... */\n      swap1\n      jump\t// out\n        /* \"contracts/ERC20.sol\":4685:4761  function getOwner() public view returns (address){\r... */\n    tag_59:\n        /* \"contracts/ERC20.sol\":4726:4733  address */\n      0x00\n        /* \"contracts/ERC20.sol\":4750:4755  owner */\n      dup1\n      0x01\n      swap1\n      sload\n      swap1\n      0x0100\n      exp\n      swap1\n      div\n      0xffffffffffffffffffffffffffffffffffffffff\n      and\n        /* \"contracts/ERC20.sol\":4743:4755  return owner */\n      swap1\n      pop\n        /* \"contracts/ERC20.sol\":4685:4761  function getOwner() public view returns (address){\r... */\n      swap1\n      jump\t// out\n        /* \"contracts/ERC20.sol\":206:239  address public owner = msg.sender */\n    tag_63:\n      0x00\n      0x01\n      swap1\n      sload\n      swap1\n      0x0100\n      exp\n      swap1\n      div\n      0xffffffffffffffffffffffffffffffffffffffff\n      and\n      dup2\n      jump\t// out\n        /* \"contracts/ERC20.sol\":435:471  string public constant symbol = \"BT\" */\n    tag_66:\n      mload(0x40)\n      dup1\n      0x40\n      add\n      0x40\n      mstore\n      dup1\n      0x02\n      dup2\n      mstore\n      0x20\n      add\n      0x4254000000000000000000000000000000000000000000000000000000000000\n      dup2\n      mstore\n      pop\n      dup2\n      jump\t// out\n        /* \"contracts/ERC20.sol\":1424:1791  function transfer(address _to, uint256 _value) public returns (bool) {\r... */\n    tag_70:\n        /* \"contracts/ERC20.sol\":1487:1491  bool */\n      0x00\n        /* \"contracts/ERC20.sol\":1523:1524  0 */\n      dup1\n        /* \"contracts/ERC20.sol\":1508:1525  _to != address(0) */\n      0xffffffffffffffffffffffffffffffffffffffff\n      and\n        /* \"contracts/ERC20.sol\":1508:1511  _to */\n      dup4\n        /* \"contracts/ERC20.sol\":1508:1525  _to != address(0) */\n      0xffffffffffffffffffffffffffffffffffffffff\n      and\n      eq\n      iszero\n        /* \"contracts/ERC20.sol\":1500:1526  require(_to != address(0)) */\n      tag_111\n      jumpi\n      0x00\n      dup1\n      revert\n    tag_111:\n        /* \"contracts/ERC20.sol\":1551:1559  balances */\n      0x02\n        /* \"contracts/ERC20.sol\":1551:1570  balances[tx.origin] */\n      0x00\n        /* \"contracts/ERC20.sol\":1560:1569  tx.origin */\n      origin\n        /* \"contracts/ERC20.sol\":1551:1570  balances[tx.origin] */\n      0xffffffffffffffffffffffffffffffffffffffff\n      and\n      0xffffffffffffffffffffffffffffffffffffffff\n      and\n      dup2\n      mstore\n      0x20\n      add\n      swap1\n      dup2\n      mstore\n      0x20\n      add\n      0x00\n      keccak256\n      sload\n        /* \"contracts/ERC20.sol\":1541:1547  _value */\n      dup3\n        /* \"contracts/ERC20.sol\":1541:1570  _value <= balances[tx.origin] */\n      gt\n      iszero\n        /* \"contracts/ERC20.sol\":1533:1613  require(_value <= balances[tx.origin], \"msg.sender doesn't have enough balance\") */\n      tag_112\n      jumpi\n      mload(0x40)\n      0x08c379a000000000000000000000000000000000000000000000000000000000\n      dup2\n      mstore\n      0x04\n      add\n      tag_113\n      swap1\n      tag_114\n      jump\t// in\n    tag_113:\n      mload(0x40)\n      dup1\n      swap2\n      sub\n      swap1\n      revert\n    tag_112:\n        /* \"contracts/ERC20.sol\":1644:1675  balances[tx.origin].sub(_value) */\n      tag_115\n        /* \"contracts/ERC20.sol\":1668:1674  _value */\n      dup3\n        /* \"contracts/ERC20.sol\":1644:1652  balances */\n      0x02\n        /* \"contracts/ERC20.sol\":1644:1663  balances[tx.origin] */\n      0x00\n        /* \"contracts/ERC20.sol\":1653:1662  tx.origin */\n      origin\n        /* \"contracts/ERC20.sol\":1644:1663  balances[tx.origin] */\n      0xffffffffffffffffffffffffffffffffffffffff\n      and\n      0xffffffffffffffffffffffffffffffffffffffff\n      and\n      dup2\n      mstore\n      0x20\n      add\n      swap1\n      dup2\n      mstore\n      0x20\n      add\n      0x00\n      keccak256\n      sload\n        /* \"contracts/ERC20.sol\":1644:1667  balances[tx.origin].sub */\n      tag_89\n      swap1\n        /* \"contracts/ERC20.sol\":1644:1675  balances[tx.origin].sub(_value) */\n      swap2\n      swap1\n      0xffffffff\n      and\n      jump\t// in\n    tag_115:\n        /* \"contracts/ERC20.sol\":1622:1630  balances */\n      0x02\n        /* \"contracts/ERC20.sol\":1622:1641  balances[tx.origin] */\n      0x00\n        /* \"contracts/ERC20.sol\":1631:1640  tx.origin */\n      origin\n        /* \"contracts/ERC20.sol\":1622:1641  balances[tx.origin] */\n      0xffffffffffffffffffffffffffffffffffffffff\n      and\n      0xffffffffffffffffffffffffffffffffffffffff\n      and\n      dup2\n      mstore\n      0x20\n      add\n      swap1\n      dup2\n      mstore\n      0x20\n      add\n      0x00\n      keccak256\n        /* \"contracts/ERC20.sol\":1622:1675  balances[tx.origin] = balances[tx.origin].sub(_value) */\n      dup2\n      swap1\n      sstore\n      pop\n        /* \"contracts/ERC20.sol\":1698:1723  balances[_to].add(_value) */\n      tag_116\n        /* \"contracts/ERC20.sol\":1716:1722  _value */\n      dup3\n        /* \"contracts/ERC20.sol\":1698:1706  balances */\n      0x02\n        /* \"contracts/ERC20.sol\":1698:1711  balances[_to] */\n      0x00\n        /* \"contracts/ERC20.sol\":1707:1710  _to */\n      dup7\n        /* \"contracts/ERC20.sol\":1698:1711  balances[_to] */\n      0xffffffffffffffffffffffffffffffffffffffff\n      and\n      0xffffffffffffffffffffffffffffffffffffffff\n      and\n      dup2\n      mstore\n      0x20\n      add\n      swap1\n      dup2\n      mstore\n      0x20\n      add\n      0x00\n      keccak256\n      sload\n        /* \"contracts/ERC20.sol\":1698:1715  balances[_to].add */\n      tag_91\n      swap1\n        /* \"contracts/ERC20.sol\":1698:1723  balances[_to].add(_value) */\n      swap2\n      swap1\n      0xffffffff\n      and\n      jump\t// in\n    tag_116:\n        /* \"contracts/ERC20.sol\":1682:1690  balances */\n      0x02\n        /* \"contracts/ERC20.sol\":1682:1695  balances[_to] */\n      0x00\n        /* \"contracts/ERC20.sol\":1691:1694  _to */\n      dup6\n        /* \"contracts/ERC20.sol\":1682:1695  balances[_to] */\n      0xffffffffffffffffffffffffffffffffffffffff\n      and\n      0xffffffffffffffffffffffffffffffffffffffff\n      and\n      dup2\n      mstore\n      0x20\n      add\n      swap1\n      dup2\n      mstore\n      0x20\n      add\n      0x00\n      keccak256\n        /* \"contracts/ERC20.sol\":1682:1723  balances[_to] = balances[_to].add(_value) */\n      dup2\n      swap1\n      sstore\n      pop\n        /* \"contracts/ERC20.sol\":1755:1758  _to */\n      dup3\n        /* \"contracts/ERC20.sol\":1735:1767  Transfer(tx.origin, _to, _value) */\n      0xffffffffffffffffffffffffffffffffffffffff\n      and\n        /* \"contracts/ERC20.sol\":1744:1753  tx.origin */\n      origin\n        /* \"contracts/ERC20.sol\":1735:1767  Transfer(tx.origin, _to, _value) */\n      0xffffffffffffffffffffffffffffffffffffffff\n      and\n      0xddf252ad1be2c89b69c2b068fc378daa952ba7f163c4a11628f55a4df523b3ef\n        /* \"contracts/ERC20.sol\":1760:1766  _value */\n      dup5\n        /* \"contracts/ERC20.sol\":1735:1767  Transfer(tx.origin, _to, _value) */\n      mload(0x40)\n      tag_117\n      swap2\n      swap1\n      tag_36\n      jump\t// in\n    tag_117:\n      mload(0x40)\n      dup1\n      swap2\n      sub\n      swap1\n      log3\n        /* \"contracts/ERC20.sol\":1781:1785  true */\n      0x01\n        /* \"contracts/ERC20.sol\":1774:1785  return true */\n      swap1\n      pop\n        /* \"contracts/ERC20.sol\":1424:1791  function transfer(address _to, uint256 _value) public returns (bool) {\r... */\n      swap3\n      swap2\n      pop\n      pop\n      jump\t// out\n        /* \"contracts/ERC20.sol\":3753:3881  function allowance(address _owner, address _spender) public view returns (uint256) {\r... */\n    tag_75:\n        /* \"contracts/ERC20.sol\":3827:3834  uint256 */\n      0x00\n        /* \"contracts/ERC20.sol\":3850:3857  allowed */\n      0x01\n        /* \"contracts/ERC20.sol\":3850:3865  allowed[_owner] */\n      0x00\n        /* \"contracts/ERC20.sol\":3858:3864  _owner */\n      dup5\n        /* \"contracts/ERC20.sol\":3850:3865  allowed[_owner] */\n      0xffffffffffffffffffffffffffffffffffffffff\n      and\n      0xffffffffffffffffffffffffffffffffffffffff\n      and\n      dup2\n      mstore\n      0x20\n      add\n      swap1\n      dup2\n      mstore\n      0x20\n      add\n      0x00\n      keccak256\n        /* \"contracts/ERC20.sol\":3850:3875  allowed[_owner][_spender] */\n      0x00\n        /* \"contracts/ERC20.sol\":3866:3874  _spender */\n      dup4\n        /* \"contracts/ERC20.sol\":3850:3875  allowed[_owner][_spender] */\n      0xffffffffffffffffffffffffffffffffffffffff\n      and\n      0xffffffffffffffffffffffffffffffffffffffff\n      and\n      dup2\n      mstore\n      0x20\n      add\n      swap1\n      dup2\n      mstore\n      0x20\n      add\n      0x00\n      keccak256\n      sload\n        /* \"contracts/ERC20.sol\":3843:3875  return allowed[_owner][_spender] */\n      swap1\n      pop\n        /* \"contracts/ERC20.sol\":3753:3881  function allowance(address _owner, address _spender) public view returns (uint256) {\r... */\n      swap3\n      swap2\n      pop\n      pop\n      jump\t// out\n        /* \"contracts/SafeMath.sol\":875:985  function sub(uint256 a, uint256 b) internal pure returns (uint256) {... */\n    tag_89:\n        /* \"contracts/SafeMath.sol\":933:940  uint256 */\n      0x00\n        /* \"contracts/SafeMath.sol\":960:961  a */\n      dup3\n        /* \"contracts/SafeMath.sol\":955:956  b */\n      dup3\n        /* \"contracts/SafeMath.sol\":955:961  b <= a */\n      gt\n      iszero\n        /* \"contracts/SafeMath.sol\":948:962  assert(b <= a) */\n      tag_120\n      jumpi\n      tag_121\n      tag_122\n      jump\t// in\n    tag_121:\n    tag_120:\n        /* \"contracts/SafeMath.sol\":979:980  b */\n      dup2\n        /* \"contracts/SafeMath.sol\":975:976  a */\n      dup4\n        /* \"contracts/SafeMath.sol\":975:980  a - b */\n      tag_123\n      swap2\n      swap1\n      tag_124\n      jump\t// in\n    tag_123:\n        /* \"contracts/SafeMath.sol\":968:980  return a - b */\n      swap1\n      pop\n        /* \"contracts/SafeMath.sol\":875:985  function sub(uint256 a, uint256 b) internal pure returns (uint256) {... */\n      swap3\n      swap2\n      pop\n      pop\n      jump\t// out\n        /* \"contracts/SafeMath.sol\":1047:1170  function add(uint256 a, uint256 b) internal pure returns (uint256 c) {... */\n    tag_91:\n        /* \"contracts/SafeMath.sol\":1105:1114  uint256 c */\n      0x00\n        /* \"contracts/SafeMath.sol\":1130:1131  b */\n      dup2\n        /* \"contracts/SafeMath.sol\":1126:1127  a */\n      dup4\n        /* \"contracts/SafeMath.sol\":1126:1131  a + b */\n      tag_126\n      swap2\n      swap1\n      tag_127\n      jump\t// in\n    tag_126:\n        /* \"contracts/SafeMath.sol\":1122:1131  c = a + b */\n      swap1\n      pop\n        /* \"contracts/SafeMath.sol\":1149:1150  a */\n      dup3\n        /* \"contracts/SafeMath.sol\":1144:1145  c */\n      dup2\n        /* \"contracts/SafeMath.sol\":1144:1150  c >= a */\n      lt\n      iszero\n        /* \"contracts/SafeMath.sol\":1137:1151  assert(c >= a) */\n      tag_128\n      jumpi\n      tag_129\n      tag_122\n      jump\t// in\n    tag_129:\n    tag_128:\n        /* \"contracts/SafeMath.sol\":1047:1170  function add(uint256 a, uint256 b) internal pure returns (uint256 c) {... */\n      swap3\n      swap2\n      pop\n      pop\n      jump\t// out\n        /* \"#utility.yul\":7:146   */\n    tag_131:\n        /* \"#utility.yul\":53:58   */\n      0x00\n        /* \"#utility.yul\":91:97   */\n      dup2\n        /* \"#utility.yul\":78:98   */\n      calldataload\n        /* \"#utility.yul\":69:98   */\n      swap1\n      pop\n        /* \"#utility.yul\":107:140   */\n      tag_133\n        /* \"#utility.yul\":134:139   */\n      dup2\n        /* \"#utility.yul\":107:140   */\n      tag_134\n      jump\t// in\n    tag_133:\n        /* \"#utility.yul\":7:146   */\n      swap3\n      swap2\n      pop\n      pop\n      jump\t// out\n        /* \"#utility.yul\":152:291   */\n    tag_135:\n        /* \"#utility.yul\":198:203   */\n      0x00\n        /* \"#utility.yul\":236:242   */\n      dup2\n        /* \"#utility.yul\":223:243   */\n      calldataload\n        /* \"#utility.yul\":214:243   */\n      swap1\n      pop\n        /* \"#utility.yul\":252:285   */\n      tag_137\n        /* \"#utility.yul\":279:284   */\n      dup2\n        /* \"#utility.yul\":252:285   */\n      tag_138\n      jump\t// in\n    tag_137:\n        /* \"#utility.yul\":152:291   */\n      swap3\n      swap2\n      pop\n      pop\n      jump\t// out\n        /* \"#utility.yul\":297:626   */\n    tag_52:\n        /* \"#utility.yul\":356:362   */\n      0x00\n        /* \"#utility.yul\":405:407   */\n      0x20\n        /* \"#utility.yul\":393:402   */\n      dup3\n        /* \"#utility.yul\":384:391   */\n      dup5\n        /* \"#utility.yul\":380:403   */\n      sub\n        /* \"#utility.yul\":376:408   */\n      slt\n        /* \"#utility.yul\":373:492   */\n      iszero\n      tag_140\n      jumpi\n        /* \"#utility.yul\":411:490   */\n      tag_141\n      tag_142\n      jump\t// in\n    tag_141:\n        /* \"#utility.yul\":373:492   */\n    tag_140:\n        /* \"#utility.yul\":531:532   */\n      0x00\n        /* \"#utility.yul\":556:609   */\n      tag_143\n        /* \"#utility.yul\":601:608   */\n      dup5\n        /* \"#utility.yul\":592:598   */\n      dup3\n        /* \"#utility.yul\":581:590   */\n      dup6\n        /* \"#utility.yul\":577:599   */\n      add\n        /* \"#utility.yul\":556:609   */\n      tag_131\n      jump\t// in\n    tag_143:\n        /* \"#utility.yul\":546:609   */\n      swap2\n      pop\n        /* \"#utility.yul\":502:619   */\n      pop\n        /* \"#utility.yul\":297:626   */\n      swap3\n      swap2\n      pop\n      pop\n      jump\t// out\n        /* \"#utility.yul\":632:1106   */\n    tag_74:\n        /* \"#utility.yul\":700:706   */\n      0x00\n        /* \"#utility.yul\":708:714   */\n      dup1\n        /* \"#utility.yul\":757:759   */\n      0x40\n        /* \"#utility.yul\":745:754   */\n      dup4\n        /* \"#utility.yul\":736:743   */\n      dup6\n        /* \"#utility.yul\":732:755   */\n      sub\n        /* \"#utility.yul\":728:760   */\n      slt\n        /* \"#utility.yul\":725:844   */\n      iszero\n      tag_145\n      jumpi\n        /* \"#utility.yul\":763:842   */\n      tag_146\n      tag_142\n      jump\t// in\n    tag_146:\n        /* \"#utility.yul\":725:844   */\n    tag_145:\n        /* \"#utility.yul\":883:884   */\n      0x00\n        /* \"#utility.yul\":908:961   */\n      tag_147\n        /* \"#utility.yul\":953:960   */\n      dup6\n        /* \"#utility.yul\":944:950   */\n      dup3\n        /* \"#utility.yul\":933:942   */\n      dup7\n        /* \"#utility.yul\":929:951   */\n      add\n        /* \"#utility.yul\":908:961   */\n      tag_131\n      jump\t// in\n    tag_147:\n        /* \"#utility.yul\":898:961   */\n      swap3\n      pop\n        /* \"#utility.yul\":854:971   */\n      pop\n        /* \"#utility.yul\":1010:1012   */\n      0x20\n        /* \"#utility.yul\":1036:1089   */\n      tag_148\n        /* \"#utility.yul\":1081:1088   */\n      dup6\n        /* \"#utility.yul\":1072:1078   */\n      dup3\n        /* \"#utility.yul\":1061:1070   */\n      dup7\n        /* \"#utility.yul\":1057:1079   */\n      add\n        /* \"#utility.yul\":1036:1089   */\n      tag_131\n      jump\t// in\n    tag_148:\n        /* \"#utility.yul\":1026:1089   */\n      swap2\n      pop\n        /* \"#utility.yul\":981:1099   */\n      pop\n        /* \"#utility.yul\":632:1106   */\n      swap3\n      pop\n      swap3\n      swap1\n      pop\n      jump\t// out\n        /* \"#utility.yul\":1112:1731   */\n    tag_39:\n        /* \"#utility.yul\":1189:1195   */\n      0x00\n        /* \"#utility.yul\":1197:1203   */\n      dup1\n        /* \"#utility.yul\":1205:1211   */\n      0x00\n        /* \"#utility.yul\":1254:1256   */\n      0x60\n        /* \"#utility.yul\":1242:1251   */\n      dup5\n        /* \"#utility.yul\":1233:1240   */\n      dup7\n        /* \"#utility.yul\":1229:1252   */\n      sub\n        /* \"#utility.yul\":1225:1257   */\n      slt\n        /* \"#utility.yul\":1222:1341   */\n      iszero\n      tag_150\n      jumpi\n        /* \"#utility.yul\":1260:1339   */\n      tag_151\n      tag_142\n      jump\t// in\n    tag_151:\n        /* \"#utility.yul\":1222:1341   */\n    tag_150:\n        /* \"#utility.yul\":1380:1381   */\n      0x00\n        /* \"#utility.yul\":1405:1458   */\n      tag_152\n        /* \"#utility.yul\":1450:1457   */\n      dup7\n        /* \"#utility.yul\":1441:1447   */\n      dup3\n        /* \"#utility.yul\":1430:1439   */\n      dup8\n        /* \"#utility.yul\":1426:1448   */\n      add\n        /* \"#utility.yul\":1405:1458   */\n      tag_131\n      jump\t// in\n    tag_152:\n        /* \"#utility.yul\":1395:1458   */\n      swap4\n      pop\n        /* \"#utility.yul\":1351:1468   */\n      pop\n        /* \"#utility.yul\":1507:1509   */\n      0x20\n        /* \"#utility.yul\":1533:1586   */\n      tag_153\n        /* \"#utility.yul\":1578:1585   */\n      dup7\n        /* \"#utility.yul\":1569:1575   */\n      dup3\n        /* \"#utility.yul\":1558:1567   */\n      dup8\n        /* \"#utility.yul\":1554:1576   */\n      add\n        /* \"#utility.yul\":1533:1586   */\n      tag_131\n      jump\t// in\n    tag_153:\n        /* \"#utility.yul\":1523:1586   */\n      swap3\n      pop\n        /* \"#utility.yul\":1478:1596   */\n      pop\n        /* \"#utility.yul\":1635:1637   */\n      0x40\n        /* \"#utility.yul\":1661:1714   */\n      tag_154\n        /* \"#utility.yul\":1706:1713   */\n      dup7\n        /* \"#utility.yul\":1697:1703   */\n      dup3\n        /* \"#utility.yul\":1686:1695   */\n      dup8\n        /* \"#utility.yul\":1682:1704   */\n      add\n        /* \"#utility.yul\":1661:1714   */\n      tag_135\n      jump\t// in\n    tag_154:\n        /* \"#utility.yul\":1651:1714   */\n      swap2\n      pop\n        /* \"#utility.yul\":1606:1724   */\n      pop\n        /* \"#utility.yul\":1112:1731   */\n      swap3\n      pop\n      swap3\n      pop\n      swap3\n      jump\t// out\n        /* \"#utility.yul\":1737:2211   */\n    tag_30:\n        /* \"#utility.yul\":1805:1811   */\n      0x00\n        /* \"#utility.yul\":1813:1819   */\n      dup1\n        /* \"#utility.yul\":1862:1864   */\n      0x40\n        /* \"#utility.yul\":1850:1859   */\n      dup4\n        /* \"#utility.yul\":1841:1848   */\n      dup6\n        /* \"#utility.yul\":1837:1860   */\n      sub\n        /* \"#utility.yul\":1833:1865   */\n      slt\n        /* \"#utility.yul\":1830:1949   */\n      iszero\n      tag_156\n      jumpi\n        /* \"#utility.yul\":1868:1947   */\n      tag_157\n      tag_142\n      jump\t// in\n    tag_157:\n        /* \"#utility.yul\":1830:1949   */\n    tag_156:\n        /* \"#utility.yul\":1988:1989   */\n      0x00\n        /* \"#utility.yul\":2013:2066   */\n      tag_158\n        /* \"#utility.yul\":2058:2065   */\n      dup6\n        /* \"#utility.yul\":2049:2055   */\n      dup3\n        /* \"#utility.yul\":2038:2047   */\n      dup7\n        /* \"#utility.yul\":2034:2056   */\n      add\n        /* \"#utility.yul\":2013:2066   */\n      tag_131\n      jump\t// in\n    tag_158:\n        /* \"#utility.yul\":2003:2066   */\n      swap3\n      pop\n        /* \"#utility.yul\":1959:2076   */\n      pop\n        /* \"#utility.yul\":2115:2117   */\n      0x20\n        /* \"#utility.yul\":2141:2194   */\n      tag_159\n        /* \"#utility.yul\":2186:2193   */\n      dup6\n        /* \"#utility.yul\":2177:2183   */\n      dup3\n        /* \"#utility.yul\":2166:2175   */\n      dup7\n        /* \"#utility.yul\":2162:2184   */\n      add\n        /* \"#utility.yul\":2141:2194   */\n      tag_135\n      jump\t// in\n    tag_159:\n        /* \"#utility.yul\":2131:2194   */\n      swap2\n      pop\n        /* \"#utility.yul\":2086:2204   */\n      pop\n        /* \"#utility.yul\":1737:2211   */\n      swap3\n      pop\n      swap3\n      swap1\n      pop\n      jump\t// out\n        /* \"#utility.yul\":2217:2335   */\n    tag_160:\n        /* \"#utility.yul\":2304:2328   */\n      tag_162\n        /* \"#utility.yul\":2322:2327   */\n      dup2\n        /* \"#utility.yul\":2304:2328   */\n      tag_163\n      jump\t// in\n    tag_162:\n        /* \"#utility.yul\":2299:2302   */\n      dup3\n        /* \"#utility.yul\":2292:2329   */\n      mstore\n        /* \"#utility.yul\":2217:2335   */\n      pop\n      pop\n      jump\t// out\n        /* \"#utility.yul\":2341:2450   */\n    tag_164:\n        /* \"#utility.yul\":2422:2443   */\n      tag_166\n        /* \"#utility.yul\":2437:2442   */\n      dup2\n        /* \"#utility.yul\":2422:2443   */\n      tag_167\n      jump\t// in\n    tag_166:\n        /* \"#utility.yul\":2417:2420   */\n      dup3\n        /* \"#utility.yul\":2410:2444   */\n      mstore\n        /* \"#utility.yul\":2341:2450   */\n      pop\n      pop\n      jump\t// out\n        /* \"#utility.yul\":2456:2820   */\n    tag_168:\n        /* \"#utility.yul\":2544:2547   */\n      0x00\n        /* \"#utility.yul\":2572:2611   */\n      tag_170\n        /* \"#utility.yul\":2605:2610   */\n      dup3\n        /* \"#utility.yul\":2572:2611   */\n      tag_171\n      jump\t// in\n    tag_170:\n        /* \"#utility.yul\":2627:2698   */\n      tag_172\n        /* \"#utility.yul\":2691:2697   */\n      dup2\n        /* \"#utility.yul\":2686:2689   */\n      dup6\n        /* \"#utility.yul\":2627:2698   */\n      tag_173\n      jump\t// in\n    tag_172:\n        /* \"#utility.yul\":2620:2698   */\n      swap4\n      pop\n        /* \"#utility.yul\":2707:2759   */\n      tag_174\n        /* \"#utility.yul\":2752:2758   */\n      dup2\n        /* \"#utility.yul\":2747:2750   */\n      dup6\n        /* \"#utility.yul\":2740:2744   */\n      0x20\n        /* \"#utility.yul\":2733:2738   */\n      dup7\n        /* \"#utility.yul\":2729:2745   */\n      add\n        /* \"#utility.yul\":2707:2759   */\n      tag_175\n      jump\t// in\n    tag_174:\n        /* \"#utility.yul\":2784:2813   */\n      tag_176\n        /* \"#utility.yul\":2806:2812   */\n      dup2\n        /* \"#utility.yul\":2784:2813   */\n      tag_177\n      jump\t// in\n    tag_176:\n        /* \"#utility.yul\":2779:2782   */\n      dup5\n        /* \"#utility.yul\":2775:2814   */\n      add\n        /* \"#utility.yul\":2768:2814   */\n      swap2\n      pop\n        /* \"#utility.yul\":2548:2820   */\n      pop\n        /* \"#utility.yul\":2456:2820   */\n      swap3\n      swap2\n      pop\n      pop\n      jump\t// out\n        /* \"#utility.yul\":2826:3192   */\n    tag_178:\n        /* \"#utility.yul\":2968:2971   */\n      0x00\n        /* \"#utility.yul\":2989:3056   */\n      tag_180\n        /* \"#utility.yul\":3053:3055   */\n      0x26\n        /* \"#utility.yul\":3048:3051   */\n      dup4\n        /* \"#utility.yul\":2989:3056   */\n      tag_173\n      jump\t// in\n    tag_180:\n        /* \"#utility.yul\":2982:3056   */\n      swap2\n      pop\n        /* \"#utility.yul\":3065:3158   */\n      tag_181\n        /* \"#utility.yul\":3154:3157   */\n      dup3\n        /* \"#utility.yul\":3065:3158   */\n      tag_182\n      jump\t// in\n    tag_181:\n        /* \"#utility.yul\":3183:3185   */\n      0x40\n        /* \"#utility.yul\":3178:3181   */\n      dup3\n        /* \"#utility.yul\":3174:3186   */\n      add\n        /* \"#utility.yul\":3167:3186   */\n      swap1\n      pop\n        /* \"#utility.yul\":2826:3192   */\n      swap2\n      swap1\n      pop\n      jump\t// out\n        /* \"#utility.yul\":3198:3564   */\n    tag_183:\n        /* \"#utility.yul\":3340:3343   */\n      0x00\n        /* \"#utility.yul\":3361:3428   */\n      tag_185\n        /* \"#utility.yul\":3425:3427   */\n      0x20\n        /* \"#utility.yul\":3420:3423   */\n      dup4\n        /* \"#utility.yul\":3361:3428   */\n      tag_173\n      jump\t// in\n    tag_185:\n        /* \"#utility.yul\":3354:3428   */\n      swap2\n      pop\n        /* \"#utility.yul\":3437:3530   */\n      tag_186\n        /* \"#utility.yul\":3526:3529   */\n      dup3\n        /* \"#utility.yul\":3437:3530   */\n      tag_187\n      jump\t// in\n    tag_186:\n        /* \"#utility.yul\":3555:3557   */\n      0x20\n        /* \"#utility.yul\":3550:3553   */\n      dup3\n        /* \"#utility.yul\":3546:3558   */\n      add\n        /* \"#utility.yul\":3539:3558   */\n      swap1\n      pop\n        /* \"#utility.yul\":3198:3564   */\n      swap2\n      swap1\n      pop\n      jump\t// out\n        /* \"#utility.yul\":3570:3936   */\n    tag_188:\n        /* \"#utility.yul\":3712:3715   */\n      0x00\n        /* \"#utility.yul\":3733:3800   */\n      tag_190\n        /* \"#utility.yul\":3797:3799   */\n      0x1e\n        /* \"#utility.yul\":3792:3795   */\n      dup4\n        /* \"#utility.yul\":3733:3800   */\n      tag_173\n      jump\t// in\n    tag_190:\n        /* \"#utility.yul\":3726:3800   */\n      swap2\n      pop\n        /* \"#utility.yul\":3809:3902   */\n      tag_191\n        /* \"#utility.yul\":3898:3901   */\n      dup3\n        /* \"#utility.yul\":3809:3902   */\n      tag_192\n      jump\t// in\n    tag_191:\n        /* \"#utility.yul\":3927:3929   */\n      0x20\n        /* \"#utility.yul\":3922:3925   */\n      dup3\n        /* \"#utility.yul\":3918:3930   */\n      add\n        /* \"#utility.yul\":3911:3930   */\n      swap1\n      pop\n        /* \"#utility.yul\":3570:3936   */\n      swap2\n      swap1\n      pop\n      jump\t// out\n        /* \"#utility.yul\":3942:4060   */\n    tag_193:\n        /* \"#utility.yul\":4029:4053   */\n      tag_195\n        /* \"#utility.yul\":4047:4052   */\n      dup2\n        /* \"#utility.yul\":4029:4053   */\n      tag_196\n      jump\t// in\n    tag_195:\n        /* \"#utility.yul\":4024:4027   */\n      dup3\n        /* \"#utility.yul\":4017:4054   */\n      mstore\n        /* \"#utility.yul\":3942:4060   */\n      pop\n      pop\n      jump\t// out\n        /* \"#utility.yul\":4066:4178   */\n    tag_197:\n        /* \"#utility.yul\":4149:4171   */\n      tag_199\n        /* \"#utility.yul\":4165:4170   */\n      dup2\n        /* \"#utility.yul\":4149:4171   */\n      tag_200\n      jump\t// in\n    tag_199:\n        /* \"#utility.yul\":4144:4147   */\n      dup3\n        /* \"#utility.yul\":4137:4172   */\n      mstore\n        /* \"#utility.yul\":4066:4178   */\n      pop\n      pop\n      jump\t// out\n        /* \"#utility.yul\":4184:4406   */\n    tag_61:\n        /* \"#utility.yul\":4277:4281   */\n      0x00\n        /* \"#utility.yul\":4315:4317   */\n      0x20\n        /* \"#utility.yul\":4304:4313   */\n      dup3\n        /* \"#utility.yul\":4300:4318   */\n      add\n        /* \"#utility.yul\":4292:4318   */\n      swap1\n      pop\n        /* \"#utility.yul\":4328:4399   */\n      tag_202\n        /* \"#utility.yul\":4396:4397   */\n      0x00\n        /* \"#utility.yul\":4385:4394   */\n      dup4\n        /* \"#utility.yul\":4381:4398   */\n      add\n        /* \"#utility.yul\":4372:4378   */\n      dup5\n        /* \"#utility.yul\":4328:4399   */\n      tag_160\n      jump\t// in\n    tag_202:\n        /* \"#utility.yul\":4184:4406   */\n      swap3\n      swap2\n      pop\n      pop\n      jump\t// out\n        /* \"#utility.yul\":4412:4622   */\n    tag_23:\n        /* \"#utility.yul\":4499:4503   */\n      0x00\n        /* \"#utility.yul\":4537:4539   */\n      0x20\n        /* \"#utility.yul\":4526:4535   */\n      dup3\n        /* \"#utility.yul\":4522:4540   */\n      add\n        /* \"#utility.yul\":4514:4540   */\n      swap1\n      pop\n        /* \"#utility.yul\":4550:4615   */\n      tag_204\n        /* \"#utility.yul\":4612:4613   */\n      0x00\n        /* \"#utility.yul\":4601:4610   */\n      dup4\n        /* \"#utility.yul\":4597:4614   */\n      add\n        /* \"#utility.yul\":4588:4594   */\n      dup5\n        /* \"#utility.yul\":4550:4615   */\n      tag_164\n      jump\t// in\n    tag_204:\n        /* \"#utility.yul\":4412:4622   */\n      swap3\n      swap2\n      pop\n      pop\n      jump\t// out\n        /* \"#utility.yul\":4628:4941   */\n    tag_27:\n        /* \"#utility.yul\":4741:4745   */\n      0x00\n        /* \"#utility.yul\":4779:4781   */\n      0x20\n        /* \"#utility.yul\":4768:4777   */\n      dup3\n        /* \"#utility.yul\":4764:4782   */\n      add\n        /* \"#utility.yul\":4756:4782   */\n      swap1\n      pop\n        /* \"#utility.yul\":4828:4837   */\n      dup2\n        /* \"#utility.yul\":4822:4826   */\n      dup2\n        /* \"#utility.yul\":4818:4838   */\n      sub\n        /* \"#utility.yul\":4814:4815   */\n      0x00\n        /* \"#utility.yul\":4803:4812   */\n      dup4\n        /* \"#utility.yul\":4799:4816   */\n      add\n        /* \"#utility.yul\":4792:4839   */\n      mstore\n        /* \"#utility.yul\":4856:4934   */\n      tag_206\n        /* \"#utility.yul\":4929:4933   */\n      dup2\n        /* \"#utility.yul\":4920:4926   */\n      dup5\n        /* \"#utility.yul\":4856:4934   */\n      tag_168\n      jump\t// in\n    tag_206:\n        /* \"#utility.yul\":4848:4934   */\n      swap1\n      pop\n        /* \"#utility.yul\":4628:4941   */\n      swap3\n      swap2\n      pop\n      pop\n      jump\t// out\n        /* \"#utility.yul\":4947:5366   */\n    tag_114:\n        /* \"#utility.yul\":5113:5117   */\n      0x00\n        /* \"#utility.yul\":5151:5153   */\n      0x20\n        /* \"#utility.yul\":5140:5149   */\n      dup3\n        /* \"#utility.yul\":5136:5154   */\n      add\n        /* \"#utility.yul\":5128:5154   */\n      swap1\n      pop\n        /* \"#utility.yul\":5200:5209   */\n      dup2\n        /* \"#utility.yul\":5194:5198   */\n      dup2\n        /* \"#utility.yul\":5190:5210   */\n      sub\n        /* \"#utility.yul\":5186:5187   */\n      0x00\n        /* \"#utility.yul\":5175:5184   */\n      dup4\n        /* \"#utility.yul\":5171:5188   */\n      add\n        /* \"#utility.yul\":5164:5211   */\n      mstore\n        /* \"#utility.yul\":5228:5359   */\n      tag_208\n        /* \"#utility.yul\":5354:5358   */\n      dup2\n        /* \"#utility.yul\":5228:5359   */\n      tag_178\n      jump\t// in\n    tag_208:\n        /* \"#utility.yul\":5220:5359   */\n      swap1\n      pop\n        /* \"#utility.yul\":4947:5366   */\n      swap2\n      swap1\n      pop\n      jump\t// out\n        /* \"#utility.yul\":5372:5791   */\n    tag_84:\n        /* \"#utility.yul\":5538:5542   */\n      0x00\n        /* \"#utility.yul\":5576:5578   */\n      0x20\n        /* \"#utility.yul\":5565:5574   */\n      dup3\n        /* \"#utility.yul\":5561:5579   */\n      add\n        /* \"#utility.yul\":5553:5579   */\n      swap1\n      pop\n        /* \"#utility.yul\":5625:5634   */\n      dup2\n        /* \"#utility.yul\":5619:5623   */\n      dup2\n        /* \"#utility.yul\":5615:5635   */\n      sub\n        /* \"#utility.yul\":5611:5612   */\n      0x00\n        /* \"#utility.yul\":5600:5609   */\n      dup4\n        /* \"#utility.yul\":5596:5613   */\n      add\n        /* \"#utility.yul\":5589:5636   */\n      mstore\n        /* \"#utility.yul\":5653:5784   */\n      tag_210\n        /* \"#utility.yul\":5779:5783   */\n      dup2\n        /* \"#utility.yul\":5653:5784   */\n      tag_183\n      jump\t// in\n    tag_210:\n        /* \"#utility.yul\":5645:5784   */\n      swap1\n      pop\n        /* \"#utility.yul\":5372:5791   */\n      swap2\n      swap1\n      pop\n      jump\t// out\n        /* \"#utility.yul\":5797:6216   */\n    tag_87:\n        /* \"#utility.yul\":5963:5967   */\n      0x00\n        /* \"#utility.yul\":6001:6003   */\n      0x20\n        /* \"#utility.yul\":5990:5999   */\n      dup3\n        /* \"#utility.yul\":5986:6004   */\n      add\n        /* \"#utility.yul\":5978:6004   */\n      swap1\n      pop\n        /* \"#utility.yul\":6050:6059   */\n      dup2\n        /* \"#utility.yul\":6044:6048   */\n      dup2\n        /* \"#utility.yul\":6040:6060   */\n      sub\n        /* \"#utility.yul\":6036:6037   */\n      0x00\n        /* \"#utility.yul\":6025:6034   */\n      dup4\n        /* \"#utility.yul\":6021:6038   */\n      add\n        /* \"#utility.yul\":6014:6061   */\n      mstore\n        /* \"#utility.yul\":6078:6209   */\n      tag_212\n        /* \"#utility.yul\":6204:6208   */\n      dup2\n        /* \"#utility.yul\":6078:6209   */\n      tag_188\n      jump\t// in\n    tag_212:\n        /* \"#utility.yul\":6070:6209   */\n      swap1\n      pop\n        /* \"#utility.yul\":5797:6216   */\n      swap2\n      swap1\n      pop\n      jump\t// out\n        /* \"#utility.yul\":6222:6444   */\n    tag_36:\n        /* \"#utility.yul\":6315:6319   */\n      0x00\n        /* \"#utility.yul\":6353:6355   */\n      0x20\n        /* \"#utility.yul\":6342:6351   */\n      dup3\n        /* \"#utility.yul\":6338:6356   */\n      add\n        /* \"#utility.yul\":6330:6356   */\n      swap1\n      pop\n        /* \"#utility.yul\":6366:6437   */\n      tag_214\n        /* \"#utility.yul\":6434:6435   */\n      0x00\n        /* \"#utility.yul\":6423:6432   */\n      dup4\n        /* \"#utility.yul\":6419:6436   */\n      add\n        /* \"#utility.yul\":6410:6416   */\n      dup5\n        /* \"#utility.yul\":6366:6437   */\n      tag_193\n      jump\t// in\n    tag_214:\n        /* \"#utility.yul\":6222:6444   */\n      swap3\n      swap2\n      pop\n      pop\n      jump\t// out\n        /* \"#utility.yul\":6450:6664   */\n    tag_45:\n        /* \"#utility.yul\":6539:6543   */\n      0x00\n        /* \"#utility.yul\":6577:6579   */\n      0x20\n        /* \"#utility.yul\":6566:6575   */\n      dup3\n        /* \"#utility.yul\":6562:6580   */\n      add\n        /* \"#utility.yul\":6554:6580   */\n      swap1\n      pop\n        /* \"#utility.yul\":6590:6657   */\n      tag_216\n        /* \"#utility.yul\":6654:6655   */\n      0x00\n        /* \"#utility.yul\":6643:6652   */\n      dup4\n        /* \"#utility.yul\":6639:6656   */\n      add\n        /* \"#utility.yul\":6630:6636   */\n      dup5\n        /* \"#utility.yul\":6590:6657   */\n      tag_197\n      jump\t// in\n    tag_216:\n        /* \"#utility.yul\":6450:6664   */\n      swap3\n      swap2\n      pop\n      pop\n      jump\t// out\n        /* \"#utility.yul\":6751:6850   */\n    tag_171:\n        /* \"#utility.yul\":6803:6809   */\n      0x00\n        /* \"#utility.yul\":6837:6842   */\n      dup2\n        /* \"#utility.yul\":6831:6843   */\n      mload\n        /* \"#utility.yul\":6821:6843   */\n      swap1\n      pop\n        /* \"#utility.yul\":6751:6850   */\n      swap2\n      swap1\n      pop\n      jump\t// out\n        /* \"#utility.yul\":6856:7025   */\n    tag_173:\n        /* \"#utility.yul\":6940:6951   */\n      0x00\n        /* \"#utility.yul\":6974:6980   */\n      dup3\n        /* \"#utility.yul\":6969:6972   */\n      dup3\n        /* \"#utility.yul\":6962:6981   */\n      mstore\n        /* \"#utility.yul\":7014:7018   */\n      0x20\n        /* \"#utility.yul\":7009:7012   */\n      dup3\n        /* \"#utility.yul\":7005:7019   */\n      add\n        /* \"#utility.yul\":6990:7019   */\n      swap1\n      pop\n        /* \"#utility.yul\":6856:7025   */\n      swap3\n      swap2\n      pop\n      pop\n      jump\t// out\n        /* \"#utility.yul\":7031:7336   */\n    tag_127:\n        /* \"#utility.yul\":7071:7074   */\n      0x00\n        /* \"#utility.yul\":7090:7110   */\n      tag_222\n        /* \"#utility.yul\":7108:7109   */\n      dup3\n        /* \"#utility.yul\":7090:7110   */\n      tag_196\n      jump\t// in\n    tag_222:\n        /* \"#utility.yul\":7085:7110   */\n      swap2\n      pop\n        /* \"#utility.yul\":7124:7144   */\n      tag_223\n        /* \"#utility.yul\":7142:7143   */\n      dup4\n        /* \"#utility.yul\":7124:7144   */\n      tag_196\n      jump\t// in\n    tag_223:\n        /* \"#utility.yul\":7119:7144   */\n      swap3\n      pop\n        /* \"#utility.yul\":7278:7279   */\n      dup3\n        /* \"#utility.yul\":7210:7276   */\n      0xffffffffffffffffffffffffffffffffffffffffffffffffffffffffffffffff\n        /* \"#utility.yul\":7206:7280   */\n      sub\n        /* \"#utility.yul\":7203:7204   */\n      dup3\n        /* \"#utility.yul\":7200:7281   */\n      gt\n        /* \"#utility.yul\":7197:7304   */\n      iszero\n      tag_224\n      jumpi\n        /* \"#utility.yul\":7284:7302   */\n      tag_225\n      tag_226\n      jump\t// in\n    tag_225:\n        /* \"#utility.yul\":7197:7304   */\n    tag_224:\n        /* \"#utility.yul\":7328:7329   */\n      dup3\n        /* \"#utility.yul\":7325:7326   */\n      dup3\n        /* \"#utility.yul\":7321:7330   */\n      add\n        /* \"#utility.yul\":7314:7330   */\n      swap1\n      pop\n        /* \"#utility.yul\":7031:7336   */\n      swap3\n      swap2\n      pop\n      pop\n      jump\t// out\n        /* \"#utility.yul\":7342:7533   */\n    tag_124:\n        /* \"#utility.yul\":7382:7386   */\n      0x00\n        /* \"#utility.yul\":7402:7422   */\n      tag_228\n        /* \"#utility.yul\":7420:7421   */\n      dup3\n        /* \"#utility.yul\":7402:7422   */\n      tag_196\n      jump\t// in\n    tag_228:\n        /* \"#utility.yul\":7397:7422   */\n      swap2\n      pop\n        /* \"#utility.yul\":7436:7456   */\n      tag_229\n        /* \"#utility.yul\":7454:7455   */\n      dup4\n        /* \"#utility.yul\":7436:7456   */\n      tag_196\n      jump\t// in\n    tag_229:\n        /* \"#utility.yul\":7431:7456   */\n      swap3\n      pop\n        /* \"#utility.yul\":7475:7476   */\n      dup3\n        /* \"#utility.yul\":7472:7473   */\n      dup3\n        /* \"#utility.yul\":7469:7477   */\n      lt\n        /* \"#utility.yul\":7466:7500   */\n      iszero\n      tag_230\n      jumpi\n        /* \"#utility.yul\":7480:7498   */\n      tag_231\n      tag_226\n      jump\t// in\n    tag_231:\n        /* \"#utility.yul\":7466:7500   */\n    tag_230:\n        /* \"#utility.yul\":7525:7526   */\n      dup3\n        /* \"#utility.yul\":7522:7523   */\n      dup3\n        /* \"#utility.yul\":7518:7527   */\n      sub\n        /* \"#utility.yul\":7510:7527   */\n      swap1\n      pop\n        /* \"#utility.yul\":7342:7533   */\n      swap3\n      swap2\n      pop\n      pop\n      jump\t// out\n        /* \"#utility.yul\":7539:7635   */\n    tag_163:\n        /* \"#utility.yul\":7576:7583   */\n      0x00\n        /* \"#utility.yul\":7605:7629   */\n      tag_233\n        /* \"#utility.yul\":7623:7628   */\n      dup3\n        /* \"#utility.yul\":7605:7629   */\n      tag_234\n      jump\t// in\n    tag_233:\n        /* \"#utility.yul\":7594:7629   */\n      swap1\n      pop\n        /* \"#utility.yul\":7539:7635   */\n      swap2\n      swap1\n      pop\n      jump\t// out\n        /* \"#utility.yul\":7641:7731   */\n    tag_167:\n        /* \"#utility.yul\":7675:7682   */\n      0x00\n        /* \"#utility.yul\":7718:7723   */\n      dup2\n        /* \"#utility.yul\":7711:7724   */\n      iszero\n        /* \"#utility.yul\":7704:7725   */\n      iszero\n        /* \"#utility.yul\":7693:7725   */\n      swap1\n      pop\n        /* \"#utility.yul\":7641:7731   */\n      swap2\n      swap1\n      pop\n      jump\t// out\n        /* \"#utility.yul\":7737:7863   */\n    tag_234:\n        /* \"#utility.yul\":7774:7781   */\n      0x00\n        /* \"#utility.yul\":7814:7856   */\n      0xffffffffffffffffffffffffffffffffffffffff\n        /* \"#utility.yul\":7807:7812   */\n      dup3\n        /* \"#utility.yul\":7803:7857   */\n      and\n        /* \"#utility.yul\":7792:7857   */\n      swap1\n      pop\n        /* \"#utility.yul\":7737:7863   */\n      swap2\n      swap1\n      pop\n      jump\t// out\n        /* \"#utility.yul\":7869:7946   */\n    tag_196:\n        /* \"#utility.yul\":7906:7913   */\n      0x00\n        /* \"#utility.yul\":7935:7940   */\n      dup2\n        /* \"#utility.yul\":7924:7940   */\n      swap1\n      pop\n        /* \"#utility.yul\":7869:7946   */\n      swap2\n      swap1\n      pop\n      jump\t// out\n        /* \"#utility.yul\":7952:8038   */\n    tag_200:\n        /* \"#utility.yul\":7987:7994   */\n      0x00\n        /* \"#utility.yul\":8027:8031   */\n      0xff\n        /* \"#utility.yul\":8020:8025   */\n      dup3\n        /* \"#utility.yul\":8016:8032   */\n      and\n        /* \"#utility.yul\":8005:8032   */\n      swap1\n      pop\n        /* \"#utility.yul\":7952:8038   */\n      swap2\n      swap1\n      pop\n      jump\t// out\n        /* \"#utility.yul\":8044:8351   */\n    tag_175:\n        /* \"#utility.yul\":8112:8113   */\n      0x00\n        /* \"#utility.yul\":8122:8235   */\n    tag_240:\n        /* \"#utility.yul\":8136:8142   */\n      dup4\n        /* \"#utility.yul\":8133:8134   */\n      dup2\n        /* \"#utility.yul\":8130:8143   */\n      lt\n        /* \"#utility.yul\":8122:8235   */\n      iszero\n      tag_242\n      jumpi\n        /* \"#utility.yul\":8221:8222   */\n      dup1\n        /* \"#utility.yul\":8216:8219   */\n      dup3\n        /* \"#utility.yul\":8212:8223   */\n      add\n        /* \"#utility.yul\":8206:8224   */\n      mload\n        /* \"#utility.yul\":8202:8203   */\n      dup2\n        /* \"#utility.yul\":8197:8200   */\n      dup5\n        /* \"#utility.yul\":8193:8204   */\n      add\n        /* \"#utility.yul\":8186:8225   */\n      mstore\n        /* \"#utility.yul\":8158:8160   */\n      0x20\n        /* \"#utility.yul\":8155:8156   */\n      dup2\n        /* \"#utility.yul\":8151:8161   */\n      add\n        /* \"#utility.yul\":8146:8161   */\n      swap1\n      pop\n        /* \"#utility.yul\":8122:8235   */\n      jump(tag_240)\n    tag_242:\n        /* \"#utility.yul\":8253:8259   */\n      dup4\n        /* \"#utility.yul\":8250:8251   */\n      dup2\n        /* \"#utility.yul\":8247:8260   */\n      gt\n        /* \"#utility.yul\":8244:8345   */\n      iszero\n      tag_243\n      jumpi\n        /* \"#utility.yul\":8333:8334   */\n      0x00\n        /* \"#utility.yul\":8324:8330   */\n      dup5\n        /* \"#utility.yul\":8319:8322   */\n      dup5\n        /* \"#utility.yul\":8315:8331   */\n      add\n        /* \"#utility.yul\":8308:8335   */\n      mstore\n        /* \"#utility.yul\":8244:8345   */\n    tag_243:\n        /* \"#utility.yul\":8093:8351   */\n      pop\n        /* \"#utility.yul\":8044:8351   */\n      pop\n      pop\n      pop\n      jump\t// out\n        /* \"#utility.yul\":8357:8537   */\n    tag_122:\n        /* \"#utility.yul\":8405:8482   */\n      0x4e487b7100000000000000000000000000000000000000000000000000000000\n        /* \"#utility.yul\":8402:8403   */\n      0x00\n        /* \"#utility.yul\":8395:8483   */\n      mstore\n        /* \"#utility.yul\":8502:8506   */\n      0x01\n        /* \"#utility.yul\":8499:8500   */\n      0x04\n        /* \"#utility.yul\":8492:8507   */\n      mstore\n        /* \"#utility.yul\":8526:8530   */\n      0x24\n        /* \"#utility.yul\":8523:8524   */\n      0x00\n        /* \"#utility.yul\":8516:8531   */\n      revert\n        /* \"#utility.yul\":8543:8723   */\n    tag_226:\n        /* \"#utility.yul\":8591:8668   */\n      0x4e487b7100000000000000000000000000000000000000000000000000000000\n        /* \"#utility.yul\":8588:8589   */\n      0x00\n        /* \"#utility.yul\":8581:8669   */\n      mstore\n        /* \"#utility.yul\":8688:8692   */\n      0x11\n        /* \"#utility.yul\":8685:8686   */\n      0x04\n        /* \"#utility.yul\":8678:8693   */\n      mstore\n        /* \"#utility.yul\":8712:8716   */\n      0x24\n        /* \"#utility.yul\":8709:8710   */\n      0x00\n        /* \"#utility.yul\":8702:8717   */\n      revert\n        /* \"#utility.yul\":8852:8969   */\n    tag_142:\n        /* \"#utility.yul\":8961:8962   */\n      0x00\n        /* \"#utility.yul\":8958:8959   */\n      dup1\n        /* \"#utility.yul\":8951:8963   */\n      revert\n        /* \"#utility.yul\":8975:9077   */\n    tag_177:\n        /* \"#utility.yul\":9016:9022   */\n      0x00\n        /* \"#utility.yul\":9067:9069   */\n      0x1f\n        /* \"#utility.yul\":9063:9070   */\n      not\n        /* \"#utility.yul\":9058:9060   */\n      0x1f\n        /* \"#utility.yul\":9051:9056   */\n      dup4\n        /* \"#utility.yul\":9047:9061   */\n      add\n        /* \"#utility.yul\":9043:9071   */\n      and\n        /* \"#utility.yul\":9033:9071   */\n      swap1\n      pop\n        /* \"#utility.yul\":8975:9077   */\n      swap2\n      swap1\n      pop\n      jump\t// out\n        /* \"#utility.yul\":9083:9308   */\n    tag_182:\n        /* \"#utility.yul\":9223:9257   */\n      0x6d73672e73656e64657220646f65736e2774206861766520656e6f7567682062\n        /* \"#utility.yul\":9219:9220   */\n      0x00\n        /* \"#utility.yul\":9211:9217   */\n      dup3\n        /* \"#utility.yul\":9207:9221   */\n      add\n        /* \"#utility.yul\":9200:9258   */\n      mstore\n        /* \"#utility.yul\":9292:9300   */\n      0x616c616e63650000000000000000000000000000000000000000000000000000\n        /* \"#utility.yul\":9287:9289   */\n      0x20\n        /* \"#utility.yul\":9279:9285   */\n      dup3\n        /* \"#utility.yul\":9275:9290   */\n      add\n        /* \"#utility.yul\":9268:9301   */\n      mstore\n        /* \"#utility.yul\":9083:9308   */\n      pop\n      jump\t// out\n        /* \"#utility.yul\":9314:9496   */\n    tag_187:\n        /* \"#utility.yul\":9454:9488   */\n      0x46726f6d20646f65736e2774206861766520656e6f7567682062616c616e6365\n        /* \"#utility.yul\":9450:9451   */\n      0x00\n        /* \"#utility.yul\":9442:9448   */\n      dup3\n        /* \"#utility.yul\":9438:9452   */\n      add\n        /* \"#utility.yul\":9431:9489   */\n      mstore\n        /* \"#utility.yul\":9314:9496   */\n      pop\n      jump\t// out\n        /* \"#utility.yul\":9502:9682   */\n    tag_192:\n        /* \"#utility.yul\":9642:9674   */\n      0x4e6f7420616c6c6f77656420746f207370656e642074686973206d7563680000\n        /* \"#utility.yul\":9638:9639   */\n      0x00\n        /* \"#utility.yul\":9630:9636   */\n      dup3\n        /* \"#utility.yul\":9626:9640   */\n      add\n        /* \"#utility.yul\":9619:9675   */\n      mstore\n        /* \"#utility.yul\":9502:9682   */\n      pop\n      jump\t// out\n        /* \"#utility.yul\":9688:9810   */\n    tag_134:\n        /* \"#utility.yul\":9761:9785   */\n      tag_254\n        /* \"#utility.yul\":9779:9784   */\n      dup2\n        /* \"#utility.yul\":9761:9785   */\n      tag_163\n      jump\t// in\n    tag_254:\n        /* \"#utility.yul\":9754:9759   */\n      dup2\n        /* \"#utility.yul\":9751:9786   */\n      eq\n        /* \"#utility.yul\":9741:9804   */\n      tag_255\n      jumpi\n        /* \"#utility.yul\":9800:9801   */\n      0x00\n        /* \"#utility.yul\":9797:9798   */\n      dup1\n        /* \"#utility.yul\":9790:9802   */\n      revert\n        /* \"#utility.yul\":9741:9804   */\n    tag_255:\n        /* \"#utility.yul\":9688:9810   */\n      pop\n      jump\t// out\n        /* \"#utility.yul\":9816:9938   */\n    tag_138:\n        /* \"#utility.yul\":9889:9913   */\n      tag_257\n        /* \"#utility.yul\":9907:9912   */\n      dup2\n        /* \"#utility.yul\":9889:9913   */\n      tag_196\n      jump\t// in\n    tag_257:\n        /* \"#utility.yul\":9882:9887   */\n      dup2\n        /* \"#utility.yul\":9879:9914   */\n      eq\n        /* \"#utility.yul\":9869:9932   */\n      tag_258\n      jumpi\n        /* \"#utility.yul\":9928:9929   */\n      0x00\n        /* \"#utility.yul\":9925:9926   */\n      dup1\n        /* \"#utility.yul\":9918:9930   */\n      revert\n        /* \"#utility.yul\":9869:9932   */\n    tag_258:\n        /* \"#utility.yul\":9816:9938   */\n      pop\n      jump\t// out\n\n    auxdata: 0xa26469706673582212205de56c53650c539a7a7c4fb8c0ad85e5a6f15e484ac9b165ee03beb6bc000f5064736f6c63430008070033\n}\n",
				"bytecode": {
					"linkReferences": {},
					"object": "608060405260008060006101000a81548160ff02191690831515021790555033600060016101000a81548173ffffffffffffffffffffffffffffffffffffffff021916908373ffffffffffffffffffffffffffffffffffffffff16021790555034801561006b57600080fd5b506114a98061007b6000396000f3fe608060405234801561001057600080fd5b50600436106100ea5760003560e01c806370a082311161008c5780638da5cb5b116100665780638da5cb5b1461026357806395d89b4114610281578063a9059cbb1461029f578063dd62ed3e146102cf576100ea565b806370a08231146101f75780637d64bcb414610227578063893d20e814610245576100ea565b806318160ddd116100c857806318160ddd1461015b57806323b872dd14610179578063313ce567146101a957806340c10f19146101c7576100ea565b806305d2035b146100ef57806306fdde031461010d578063095ea7b31461012b575b600080fd5b6100f76102ff565b604051610104919061112f565b60405180910390f35b610115610310565b604051610122919061114a565b60405180910390f35b61014560048036038101906101409190610ff6565b610349565b604051610152919061112f565b60405180910390f35b61016361043b565b60405161017091906111cc565b60405180910390f35b610193600480360381019061018e9190610fa3565b610445565b6040516101a0919061112f565b60405180910390f35b6101b161086a565b6040516101be91906111e7565b60405180910390f35b6101e160048036038101906101dc9190610ff6565b61086f565b6040516101ee919061112f565b60405180910390f35b610211600480360381019061020c9190610f36565b610a50565b60405161021e91906111cc565b60405180910390f35b61022f610a99565b60405161023c919061112f565b60405180910390f35b61024d610b59565b60405161025a9190611114565b60405180910390f35b61026b610b82565b6040516102789190611114565b60405180910390f35b610289610ba8565b604051610296919061114a565b60405180910390f35b6102b960048036038101906102b49190610ff6565b610be1565b6040516102c6919061112f565b60405180910390f35b6102e960048036038101906102e49190610f63565b610e37565b6040516102f691906111cc565b60405180910390f35b60008054906101000a900460ff1681565b6040518060400160405280601081526020017f426c6f6374726163746f72546f6b656e0000000000000000000000000000000081525081565b600081600160003373ffffffffffffffffffffffffffffffffffffffff1673ffffffffffffffffffffffffffffffffffffffff16815260200190815260200160002060008573ffffffffffffffffffffffffffffffffffffffff1673ffffffffffffffffffffffffffffffffffffffff168152602001908152602001600020819055508273ffffffffffffffffffffffffffffffffffffffff163373ffffffffffffffffffffffffffffffffffffffff167f8c5be1e5ebec7d5bd14f71427d1e84f3dd0314c0f7b2291e5b200ac8c7c3b9258460405161042991906111cc565b60405180910390a36001905092915050565b6000600354905090565b60008073ffffffffffffffffffffffffffffffffffffffff168373ffffffffffffffffffffffffffffffffffffffff16141561048057600080fd5b600260008573ffffffffffffffffffffffffffffffffffffffff1673ffffffffffffffffffffffffffffffffffffffff16815260200190815260200160002054821115610502576040517f08c379a00000000000000000000000000000000000000000000000000000000081526004016104f99061118c565b60405180910390fd5b600160008573ffffffffffffffffffffffffffffffffffffffff1673ffffffffffffffffffffffffffffffffffffffff16815260200190815260200160002060003273ffffffffffffffffffffffffffffffffffffffff1673ffffffffffffffffffffffffffffffffffffffff168152602001908152602001600020548211156105c1576040517f08c379a00000000000000000000000000000000000000000000000000000000081526004016105b8906111ac565b60405180910390fd5b61061382600260008773ffffffffffffffffffffffffffffffffffffffff1673ffffffffffffffffffffffffffffffffffffffff16815260200190815260200160002054610ebe90919063ffffffff16565b600260008673ffffffffffffffffffffffffffffffffffffffff1673ffffffffffffffffffffffffffffffffffffffff168152602001908152602001600020819055506106a882600260008673ffffffffffffffffffffffffffffffffffffffff1673ffffffffffffffffffffffffffffffffffffffff16815260200190815260200160002054610ee590919063ffffffff16565b600260008573ffffffffffffffffffffffffffffffffffffffff1673ffffffffffffffffffffffffffffffffffffffff1681526020019081526020016000208190555061077a82600160008773ffffffffffffffffffffffffffffffffffffffff1673ffffffffffffffffffffffffffffffffffffffff16815260200190815260200160002060003273ffffffffffffffffffffffffffffffffffffffff1673ffffffffffffffffffffffffffffffffffffffff16815260200190815260200160002054610ebe90919063ffffffff16565b600160008673ffffffffffffffffffffffffffffffffffffffff1673ffffffffffffffffffffffffffffffffffffffff16815260200190815260200160002060003273ffffffffffffffffffffffffffffffffffffffff1673ffffffffffffffffffffffffffffffffffffffff168152602001908152602001600020819055508273ffffffffffffffffffffffffffffffffffffffff168473ffffffffffffffffffffffffffffffffffffffff167fddf252ad1be2c89b69c2b068fc378daa952ba7f163c4a11628f55a4df523b3ef8460405161085791906111cc565b60405180910390a3600190509392505050565b601281565b60008060019054906101000a900473ffffffffffffffffffffffffffffffffffffffff1673ffffffffffffffffffffffffffffffffffffffff163373ffffffffffffffffffffffffffffffffffffffff16146108ca57600080fd5b60008054906101000a900460ff16156108e257600080fd5b6108f782600354610ee590919063ffffffff16565b60038190555061094f82600260008673ffffffffffffffffffffffffffffffffffffffff1673ffffffffffffffffffffffffffffffffffffffff16815260200190815260200160002054610ee590919063ffffffff16565b600260008573ffffffffffffffffffffffffffffffffffffffff1673ffffffffffffffffffffffffffffffffffffffff168152602001908152602001600020819055508273ffffffffffffffffffffffffffffffffffffffff167f0f6798a560793a54c3bcfe86a93cde1e73087d944c0ea20544137d4121396885836040516109d891906111cc565b60405180910390a28273ffffffffffffffffffffffffffffffffffffffff16600073ffffffffffffffffffffffffffffffffffffffff167fddf252ad1be2c89b69c2b068fc378daa952ba7f163c4a11628f55a4df523b3ef84604051610a3e91906111cc565b60405180910390a36001905092915050565b6000600260008373ffffffffffffffffffffffffffffffffffffffff1673ffffffffffffffffffffffffffffffffffffffff168152602001908152602001600020549050919050565b60008060019054906101000a900473ffffffffffffffffffffffffffffffffffffffff1673ffffffffffffffffffffffffffffffffffffffff163373ffffffffffffffffffffffffffffffffffffffff1614610af457600080fd5b60008054906101000a900460ff1615610b0c57600080fd5b60016000806101000a81548160ff0219169083151502179055507fae5184fba832cb2b1f702aca6117b8d265eaf03ad33eb133f19dde0f5920fa0860405160405180910390a16001905090565b60008060019054906101000a900473ffffffffffffffffffffffffffffffffffffffff16905090565b600060019054906101000a900473ffffffffffffffffffffffffffffffffffffffff1681565b6040518060400160405280600281526020017f425400000000000000000000000000000000000000000000000000000000000081525081565b60008073ffffffffffffffffffffffffffffffffffffffff168373ffffffffffffffffffffffffffffffffffffffff161415610c1c57600080fd5b600260003273ffffffffffffffffffffffffffffffffffffffff1673ffffffffffffffffffffffffffffffffffffffff16815260200190815260200160002054821115610c9e576040517f08c379a0000000000000000000000000000000000000000000000000000000008152600401610c959061116c565b60405180910390fd5b610cf082600260003273ffffffffffffffffffffffffffffffffffffffff1673ffffffffffffffffffffffffffffffffffffffff16815260200190815260200160002054610ebe90919063ffffffff16565b600260003273ffffffffffffffffffffffffffffffffffffffff1673ffffffffffffffffffffffffffffffffffffffff16815260200190815260200160002081905550610d8582600260008673ffffffffffffffffffffffffffffffffffffffff1673ffffffffffffffffffffffffffffffffffffffff16815260200190815260200160002054610ee590919063ffffffff16565b600260008573ffffffffffffffffffffffffffffffffffffffff1673ffffffffffffffffffffffffffffffffffffffff168152602001908152602001600020819055508273ffffffffffffffffffffffffffffffffffffffff163273ffffffffffffffffffffffffffffffffffffffff167fddf252ad1be2c89b69c2b068fc378daa952ba7f163c4a11628f55a4df523b3ef84604051610e2591906111cc565b60405180910390a36001905092915050565b6000600160008473ffffffffffffffffffffffffffffffffffffffff1673ffffffffffffffffffffffffffffffffffffffff16815260200190815260200160002060008373ffffffffffffffffffffffffffffffffffffffff1673ffffffffffffffffffffffffffffffffffffffff16815260200190815260200160002054905092915050565b600082821115610ed157610ed0611330565b5b8183610edd9190611274565b905092915050565b60008183610ef3919061121e565b905082811015610f0657610f05611330565b5b92915050565b600081359050610f1b81611445565b92915050565b600081359050610f308161145c565b92915050565b600060208284031215610f4c57610f4b61138e565b5b6000610f5a84828501610f0c565b91505092915050565b60008060408385031215610f7a57610f7961138e565b5b6000610f8885828601610f0c565b9250506020610f9985828601610f0c565b9150509250929050565b600080600060608486031215610fbc57610fbb61138e565b5b6000610fca86828701610f0c565b9350506020610fdb86828701610f0c565b9250506040610fec86828701610f21565b9150509250925092565b6000806040838503121561100d5761100c61138e565b5b600061101b85828601610f0c565b925050602061102c85828601610f21565b9150509250929050565b61103f816112a8565b82525050565b61104e816112ba565b82525050565b600061105f82611202565b611069818561120d565b93506110798185602086016112fd565b61108281611393565b840191505092915050565b600061109a60268361120d565b91506110a5826113a4565b604082019050919050565b60006110bd60208361120d565b91506110c8826113f3565b602082019050919050565b60006110e0601e8361120d565b91506110eb8261141c565b602082019050919050565b6110ff816112e6565b82525050565b61110e816112f0565b82525050565b60006020820190506111296000830184611036565b92915050565b60006020820190506111446000830184611045565b92915050565b600060208201905081810360008301526111648184611054565b905092915050565b600060208201905081810360008301526111858161108d565b9050919050565b600060208201905081810360008301526111a5816110b0565b9050919050565b600060208201905081810360008301526111c5816110d3565b9050919050565b60006020820190506111e160008301846110f6565b92915050565b60006020820190506111fc6000830184611105565b92915050565b600081519050919050565b600082825260208201905092915050565b6000611229826112e6565b9150611234836112e6565b9250827fffffffffffffffffffffffffffffffffffffffffffffffffffffffffffffffff038211156112695761126861135f565b5b828201905092915050565b600061127f826112e6565b915061128a836112e6565b92508282101561129d5761129c61135f565b5b828203905092915050565b60006112b3826112c6565b9050919050565b60008115159050919050565b600073ffffffffffffffffffffffffffffffffffffffff82169050919050565b6000819050919050565b600060ff82169050919050565b60005b8381101561131b578082015181840152602081019050611300565b8381111561132a576000848401525b50505050565b7f4e487b7100000000000000000000000000000000000000000000000000000000600052600160045260246000fd5b7f4e487b7100000000000000000000000000000000000000000000000000000000600052601160045260246000fd5b600080fd5b6000601f19601f8301169050919050565b7f6d73672e73656e64657220646f65736e2774206861766520656e6f756768206260008201527f616c616e63650000000000000000000000000000000000000000000000000000602082015250565b7f46726f6d20646f65736e2774206861766520656e6f7567682062616c616e6365600082015250565b7f4e6f7420616c6c6f77656420746f207370656e642074686973206d7563680000600082015250565b61144e816112a8565b811461145957600080fd5b50565b611465816112e6565b811461147057600080fd5b5056fea26469706673582212205de56c53650c539a7a7c4fb8c0ad85e5a6f15e484ac9b165ee03beb6bc000f5064736f6c63430008070033",
					"opcodes": "PUSH1 0x80 PUSH1 0x40 MSTORE PUSH1 0x0 DUP1 PUSH1 0x0 PUSH2 0x100 EXP DUP2 SLOAD DUP2 PUSH1 0xFF MUL NOT AND SWAP1 DUP4 ISZERO ISZERO MUL OR SWAP1 SSTORE POP CALLER PUSH1 0x0 PUSH1 0x1 PUSH2 0x100 EXP DUP2 SLOAD DUP2 PUSH20 0xFFFFFFFFFFFFFFFFFFFFFFFFFFFFFFFFFFFFFFFF MUL NOT AND SWAP1 DUP4 PUSH20 0xFFFFFFFFFFFFFFFFFFFFFFFFFFFFFFFFFFFFFFFF AND MUL OR SWAP1 SSTORE POP CALLVALUE DUP1 ISZERO PUSH2 0x6B JUMPI PUSH1 0x0 DUP1 REVERT JUMPDEST POP PUSH2 0x14A9 DUP1 PUSH2 0x7B PUSH1 0x0 CODECOPY PUSH1 0x0 RETURN INVALID PUSH1 0x80 PUSH1 0x40 MSTORE CALLVALUE DUP1 ISZERO PUSH2 0x10 JUMPI PUSH1 0x0 DUP1 REVERT JUMPDEST POP PUSH1 0x4 CALLDATASIZE LT PUSH2 0xEA JUMPI PUSH1 0x0 CALLDATALOAD PUSH1 0xE0 SHR DUP1 PUSH4 0x70A08231 GT PUSH2 0x8C JUMPI DUP1 PUSH4 0x8DA5CB5B GT PUSH2 0x66 JUMPI DUP1 PUSH4 0x8DA5CB5B EQ PUSH2 0x263 JUMPI DUP1 PUSH4 0x95D89B41 EQ PUSH2 0x281 JUMPI DUP1 PUSH4 0xA9059CBB EQ PUSH2 0x29F JUMPI DUP1 PUSH4 0xDD62ED3E EQ PUSH2 0x2CF JUMPI PUSH2 0xEA JUMP JUMPDEST DUP1 PUSH4 0x70A08231 EQ PUSH2 0x1F7 JUMPI DUP1 PUSH4 0x7D64BCB4 EQ PUSH2 0x227 JUMPI DUP1 PUSH4 0x893D20E8 EQ PUSH2 0x245 JUMPI PUSH2 0xEA JUMP JUMPDEST DUP1 PUSH4 0x18160DDD GT PUSH2 0xC8 JUMPI DUP1 PUSH4 0x18160DDD EQ PUSH2 0x15B JUMPI DUP1 PUSH4 0x23B872DD EQ PUSH2 0x179 JUMPI DUP1 PUSH4 0x313CE567 EQ PUSH2 0x1A9 JUMPI DUP1 PUSH4 0x40C10F19 EQ PUSH2 0x1C7 JUMPI PUSH2 0xEA JUMP JUMPDEST DUP1 PUSH4 0x5D2035B EQ PUSH2 0xEF JUMPI DUP1 PUSH4 0x6FDDE03 EQ PUSH2 0x10D JUMPI DUP1 PUSH4 0x95EA7B3 EQ PUSH2 0x12B JUMPI JUMPDEST PUSH1 0x0 DUP1 REVERT JUMPDEST PUSH2 0xF7 PUSH2 0x2FF JUMP JUMPDEST PUSH1 0x40 MLOAD PUSH2 0x104 SWAP2 SWAP1 PUSH2 0x112F JUMP JUMPDEST PUSH1 0x40 MLOAD DUP1 SWAP2 SUB SWAP1 RETURN JUMPDEST PUSH2 0x115 PUSH2 0x310 JUMP JUMPDEST PUSH1 0x40 MLOAD PUSH2 0x122 SWAP2 SWAP1 PUSH2 0x114A JUMP JUMPDEST PUSH1 0x40 MLOAD DUP1 SWAP2 SUB SWAP1 RETURN JUMPDEST PUSH2 0x145 PUSH1 0x4 DUP1 CALLDATASIZE SUB DUP2 ADD SWAP1 PUSH2 0x140 SWAP2 SWAP1 PUSH2 0xFF6 JUMP JUMPDEST PUSH2 0x349 JUMP JUMPDEST PUSH1 0x40 MLOAD PUSH2 0x152 SWAP2 SWAP1 PUSH2 0x112F JUMP JUMPDEST PUSH1 0x40 MLOAD DUP1 SWAP2 SUB SWAP1 RETURN JUMPDEST PUSH2 0x163 PUSH2 0x43B JUMP JUMPDEST PUSH1 0x40 MLOAD PUSH2 0x170 SWAP2 SWAP1 PUSH2 0x11CC JUMP JUMPDEST PUSH1 0x40 MLOAD DUP1 SWAP2 SUB SWAP1 RETURN JUMPDEST PUSH2 0x193 PUSH1 0x4 DUP1 CALLDATASIZE SUB DUP2 ADD SWAP1 PUSH2 0x18E SWAP2 SWAP1 PUSH2 0xFA3 JUMP JUMPDEST PUSH2 0x445 JUMP JUMPDEST PUSH1 0x40 MLOAD PUSH2 0x1A0 SWAP2 SWAP1 PUSH2 0x112F JUMP JUMPDEST PUSH1 0x40 MLOAD DUP1 SWAP2 SUB SWAP1 RETURN JUMPDEST PUSH2 0x1B1 PUSH2 0x86A JUMP JUMPDEST PUSH1 0x40 MLOAD PUSH2 0x1BE SWAP2 SWAP1 PUSH2 0x11E7 JUMP JUMPDEST PUSH1 0x40 MLOAD DUP1 SWAP2 SUB SWAP1 RETURN JUMPDEST PUSH2 0x1E1 PUSH1 0x4 DUP1 CALLDATASIZE SUB DUP2 ADD SWAP1 PUSH2 0x1DC SWAP2 SWAP1 PUSH2 0xFF6 JUMP JUMPDEST PUSH2 0x86F JUMP JUMPDEST PUSH1 0x40 MLOAD PUSH2 0x1EE SWAP2 SWAP1 PUSH2 0x112F JUMP JUMPDEST PUSH1 0x40 MLOAD DUP1 SWAP2 SUB SWAP1 RETURN JUMPDEST PUSH2 0x211 PUSH1 0x4 DUP1 CALLDATASIZE SUB DUP2 ADD SWAP1 PUSH2 0x20C SWAP2 SWAP1 PUSH2 0xF36 JUMP JUMPDEST PUSH2 0xA50 JUMP JUMPDEST PUSH1 0x40 MLOAD PUSH2 0x21E SWAP2 SWAP1 PUSH2 0x11CC JUMP JUMPDEST PUSH1 0x40 MLOAD DUP1 SWAP2 SUB SWAP1 RETURN JUMPDEST PUSH2 0x22F PUSH2 0xA99 JUMP JUMPDEST PUSH1 0x40 MLOAD PUSH2 0x23C SWAP2 SWAP1 PUSH2 0x112F JUMP JUMPDEST PUSH1 0x40 MLOAD DUP1 SWAP2 SUB SWAP1 RETURN JUMPDEST PUSH2 0x24D PUSH2 0xB59 JUMP JUMPDEST PUSH1 0x40 MLOAD PUSH2 0x25A SWAP2 SWAP1 PUSH2 0x1114 JUMP JUMPDEST PUSH1 0x40 MLOAD DUP1 SWAP2 SUB SWAP1 RETURN JUMPDEST PUSH2 0x26B PUSH2 0xB82 JUMP JUMPDEST PUSH1 0x40 MLOAD PUSH2 0x278 SWAP2 SWAP1 PUSH2 0x1114 JUMP JUMPDEST PUSH1 0x40 MLOAD DUP1 SWAP2 SUB SWAP1 RETURN JUMPDEST PUSH2 0x289 PUSH2 0xBA8 JUMP JUMPDEST PUSH1 0x40 MLOAD PUSH2 0x296 SWAP2 SWAP1 PUSH2 0x114A JUMP JUMPDEST PUSH1 0x40 MLOAD DUP1 SWAP2 SUB SWAP1 RETURN JUMPDEST PUSH2 0x2B9 PUSH1 0x4 DUP1 CALLDATASIZE SUB DUP2 ADD SWAP1 PUSH2 0x2B4 SWAP2 SWAP1 PUSH2 0xFF6 JUMP JUMPDEST PUSH2 0xBE1 JUMP JUMPDEST PUSH1 0x40 MLOAD PUSH2 0x2C6 SWAP2 SWAP1 PUSH2 0x112F JUMP JUMPDEST PUSH1 0x40 MLOAD DUP1 SWAP2 SUB SWAP1 RETURN JUMPDEST PUSH2 0x2E9 PUSH1 0x4 DUP1 CALLDATASIZE SUB DUP2 ADD SWAP1 PUSH2 0x2E4 SWAP2 SWAP1 PUSH2 0xF63 JUMP JUMPDEST PUSH2 0xE37 JUMP JUMPDEST PUSH1 0x40 MLOAD PUSH2 0x2F6 SWAP2 SWAP1 PUSH2 0x11CC JUMP JUMPDEST PUSH1 0x40 MLOAD DUP1 SWAP2 SUB SWAP1 RETURN JUMPDEST PUSH1 0x0 DUP1 SLOAD SWAP1 PUSH2 0x100 EXP SWAP1 DIV PUSH1 0xFF AND DUP2 JUMP JUMPDEST PUSH1 0x40 MLOAD DUP1 PUSH1 0x40 ADD PUSH1 0x40 MSTORE DUP1 PUSH1 0x10 DUP2 MSTORE PUSH1 0x20 ADD PUSH32 0x426C6F6374726163746F72546F6B656E00000000000000000000000000000000 DUP2 MSTORE POP DUP2 JUMP JUMPDEST PUSH1 0x0 DUP2 PUSH1 0x1 PUSH1 0x0 CALLER PUSH20 0xFFFFFFFFFFFFFFFFFFFFFFFFFFFFFFFFFFFFFFFF AND PUSH20 0xFFFFFFFFFFFFFFFFFFFFFFFFFFFFFFFFFFFFFFFF AND DUP2 MSTORE PUSH1 0x20 ADD SWAP1 DUP2 MSTORE PUSH1 0x20 ADD PUSH1 0x0 KECCAK256 PUSH1 0x0 DUP6 PUSH20 0xFFFFFFFFFFFFFFFFFFFFFFFFFFFFFFFFFFFFFFFF AND PUSH20 0xFFFFFFFFFFFFFFFFFFFFFFFFFFFFFFFFFFFFFFFF AND DUP2 MSTORE PUSH1 0x20 ADD SWAP1 DUP2 MSTORE PUSH1 0x20 ADD PUSH1 0x0 KECCAK256 DUP2 SWAP1 SSTORE POP DUP3 PUSH20 0xFFFFFFFFFFFFFFFFFFFFFFFFFFFFFFFFFFFFFFFF AND CALLER PUSH20 0xFFFFFFFFFFFFFFFFFFFFFFFFFFFFFFFFFFFFFFFF AND PUSH32 0x8C5BE1E5EBEC7D5BD14F71427D1E84F3DD0314C0F7B2291E5B200AC8C7C3B925 DUP5 PUSH1 0x40 MLOAD PUSH2 0x429 SWAP2 SWAP1 PUSH2 0x11CC JUMP JUMPDEST PUSH1 0x40 MLOAD DUP1 SWAP2 SUB SWAP1 LOG3 PUSH1 0x1 SWAP1 POP SWAP3 SWAP2 POP POP JUMP JUMPDEST PUSH1 0x0 PUSH1 0x3 SLOAD SWAP1 POP SWAP1 JUMP JUMPDEST PUSH1 0x0 DUP1 PUSH20 0xFFFFFFFFFFFFFFFFFFFFFFFFFFFFFFFFFFFFFFFF AND DUP4 PUSH20 0xFFFFFFFFFFFFFFFFFFFFFFFFFFFFFFFFFFFFFFFF AND EQ ISZERO PUSH2 0x480 JUMPI PUSH1 0x0 DUP1 REVERT JUMPDEST PUSH1 0x2 PUSH1 0x0 DUP6 PUSH20 0xFFFFFFFFFFFFFFFFFFFFFFFFFFFFFFFFFFFFFFFF AND PUSH20 0xFFFFFFFFFFFFFFFFFFFFFFFFFFFFFFFFFFFFFFFF AND DUP2 MSTORE PUSH1 0x20 ADD SWAP1 DUP2 MSTORE PUSH1 0x20 ADD PUSH1 0x0 KECCAK256 SLOAD DUP3 GT ISZERO PUSH2 0x502 JUMPI PUSH1 0x40 MLOAD PUSH32 0x8C379A000000000000000000000000000000000000000000000000000000000 DUP2 MSTORE PUSH1 0x4 ADD PUSH2 0x4F9 SWAP1 PUSH2 0x118C JUMP JUMPDEST PUSH1 0x40 MLOAD DUP1 SWAP2 SUB SWAP1 REVERT JUMPDEST PUSH1 0x1 PUSH1 0x0 DUP6 PUSH20 0xFFFFFFFFFFFFFFFFFFFFFFFFFFFFFFFFFFFFFFFF AND PUSH20 0xFFFFFFFFFFFFFFFFFFFFFFFFFFFFFFFFFFFFFFFF AND DUP2 MSTORE PUSH1 0x20 ADD SWAP1 DUP2 MSTORE PUSH1 0x20 ADD PUSH1 0x0 KECCAK256 PUSH1 0x0 ORIGIN PUSH20 0xFFFFFFFFFFFFFFFFFFFFFFFFFFFFFFFFFFFFFFFF AND PUSH20 0xFFFFFFFFFFFFFFFFFFFFFFFFFFFFFFFFFFFFFFFF AND DUP2 MSTORE PUSH1 0x20 ADD SWAP1 DUP2 MSTORE PUSH1 0x20 ADD PUSH1 0x0 KECCAK256 SLOAD DUP3 GT ISZERO PUSH2 0x5C1 JUMPI PUSH1 0x40 MLOAD PUSH32 0x8C379A000000000000000000000000000000000000000000000000000000000 DUP2 MSTORE PUSH1 0x4 ADD PUSH2 0x5B8 SWAP1 PUSH2 0x11AC JUMP JUMPDEST PUSH1 0x40 MLOAD DUP1 SWAP2 SUB SWAP1 REVERT JUMPDEST PUSH2 0x613 DUP3 PUSH1 0x2 PUSH1 0x0 DUP8 PUSH20 0xFFFFFFFFFFFFFFFFFFFFFFFFFFFFFFFFFFFFFFFF AND PUSH20 0xFFFFFFFFFFFFFFFFFFFFFFFFFFFFFFFFFFFFFFFF AND DUP2 MSTORE PUSH1 0x20 ADD SWAP1 DUP2 MSTORE PUSH1 0x20 ADD PUSH1 0x0 KECCAK256 SLOAD PUSH2 0xEBE SWAP1 SWAP2 SWAP1 PUSH4 0xFFFFFFFF AND JUMP JUMPDEST PUSH1 0x2 PUSH1 0x0 DUP7 PUSH20 0xFFFFFFFFFFFFFFFFFFFFFFFFFFFFFFFFFFFFFFFF AND PUSH20 0xFFFFFFFFFFFFFFFFFFFFFFFFFFFFFFFFFFFFFFFF AND DUP2 MSTORE PUSH1 0x20 ADD SWAP1 DUP2 MSTORE PUSH1 0x20 ADD PUSH1 0x0 KECCAK256 DUP2 SWAP1 SSTORE POP PUSH2 0x6A8 DUP3 PUSH1 0x2 PUSH1 0x0 DUP7 PUSH20 0xFFFFFFFFFFFFFFFFFFFFFFFFFFFFFFFFFFFFFFFF AND PUSH20 0xFFFFFFFFFFFFFFFFFFFFFFFFFFFFFFFFFFFFFFFF AND DUP2 MSTORE PUSH1 0x20 ADD SWAP1 DUP2 MSTORE PUSH1 0x20 ADD PUSH1 0x0 KECCAK256 SLOAD PUSH2 0xEE5 SWAP1 SWAP2 SWAP1 PUSH4 0xFFFFFFFF AND JUMP JUMPDEST PUSH1 0x2 PUSH1 0x0 DUP6 PUSH20 0xFFFFFFFFFFFFFFFFFFFFFFFFFFFFFFFFFFFFFFFF AND PUSH20 0xFFFFFFFFFFFFFFFFFFFFFFFFFFFFFFFFFFFFFFFF AND DUP2 MSTORE PUSH1 0x20 ADD SWAP1 DUP2 MSTORE PUSH1 0x20 ADD PUSH1 0x0 KECCAK256 DUP2 SWAP1 SSTORE POP PUSH2 0x77A DUP3 PUSH1 0x1 PUSH1 0x0 DUP8 PUSH20 0xFFFFFFFFFFFFFFFFFFFFFFFFFFFFFFFFFFFFFFFF AND PUSH20 0xFFFFFFFFFFFFFFFFFFFFFFFFFFFFFFFFFFFFFFFF AND DUP2 MSTORE PUSH1 0x20 ADD SWAP1 DUP2 MSTORE PUSH1 0x20 ADD PUSH1 0x0 KECCAK256 PUSH1 0x0 ORIGIN PUSH20 0xFFFFFFFFFFFFFFFFFFFFFFFFFFFFFFFFFFFFFFFF AND PUSH20 0xFFFFFFFFFFFFFFFFFFFFFFFFFFFFFFFFFFFFFFFF AND DUP2 MSTORE PUSH1 0x20 ADD SWAP1 DUP2 MSTORE PUSH1 0x20 ADD PUSH1 0x0 KECCAK256 SLOAD PUSH2 0xEBE SWAP1 SWAP2 SWAP1 PUSH4 0xFFFFFFFF AND JUMP JUMPDEST PUSH1 0x1 PUSH1 0x0 DUP7 PUSH20 0xFFFFFFFFFFFFFFFFFFFFFFFFFFFFFFFFFFFFFFFF AND PUSH20 0xFFFFFFFFFFFFFFFFFFFFFFFFFFFFFFFFFFFFFFFF AND DUP2 MSTORE PUSH1 0x20 ADD SWAP1 DUP2 MSTORE PUSH1 0x20 ADD PUSH1 0x0 KECCAK256 PUSH1 0x0 ORIGIN PUSH20 0xFFFFFFFFFFFFFFFFFFFFFFFFFFFFFFFFFFFFFFFF AND PUSH20 0xFFFFFFFFFFFFFFFFFFFFFFFFFFFFFFFFFFFFFFFF AND DUP2 MSTORE PUSH1 0x20 ADD SWAP1 DUP2 MSTORE PUSH1 0x20 ADD PUSH1 0x0 KECCAK256 DUP2 SWAP1 SSTORE POP DUP3 PUSH20 0xFFFFFFFFFFFFFFFFFFFFFFFFFFFFFFFFFFFFFFFF AND DUP5 PUSH20 0xFFFFFFFFFFFFFFFFFFFFFFFFFFFFFFFFFFFFFFFF AND PUSH32 0xDDF252AD1BE2C89B69C2B068FC378DAA952BA7F163C4A11628F55A4DF523B3EF DUP5 PUSH1 0x40 MLOAD PUSH2 0x857 SWAP2 SWAP1 PUSH2 0x11CC JUMP JUMPDEST PUSH1 0x40 MLOAD DUP1 SWAP2 SUB SWAP1 LOG3 PUSH1 0x1 SWAP1 POP SWAP4 SWAP3 POP POP POP JUMP JUMPDEST PUSH1 0x12 DUP2 JUMP JUMPDEST PUSH1 0x0 DUP1 PUSH1 0x1 SWAP1 SLOAD SWAP1 PUSH2 0x100 EXP SWAP1 DIV PUSH20 0xFFFFFFFFFFFFFFFFFFFFFFFFFFFFFFFFFFFFFFFF AND PUSH20 0xFFFFFFFFFFFFFFFFFFFFFFFFFFFFFFFFFFFFFFFF AND CALLER PUSH20 0xFFFFFFFFFFFFFFFFFFFFFFFFFFFFFFFFFFFFFFFF AND EQ PUSH2 0x8CA JUMPI PUSH1 0x0 DUP1 REVERT JUMPDEST PUSH1 0x0 DUP1 SLOAD SWAP1 PUSH2 0x100 EXP SWAP1 DIV PUSH1 0xFF AND ISZERO PUSH2 0x8E2 JUMPI PUSH1 0x0 DUP1 REVERT JUMPDEST PUSH2 0x8F7 DUP3 PUSH1 0x3 SLOAD PUSH2 0xEE5 SWAP1 SWAP2 SWAP1 PUSH4 0xFFFFFFFF AND JUMP JUMPDEST PUSH1 0x3 DUP2 SWAP1 SSTORE POP PUSH2 0x94F DUP3 PUSH1 0x2 PUSH1 0x0 DUP7 PUSH20 0xFFFFFFFFFFFFFFFFFFFFFFFFFFFFFFFFFFFFFFFF AND PUSH20 0xFFFFFFFFFFFFFFFFFFFFFFFFFFFFFFFFFFFFFFFF AND DUP2 MSTORE PUSH1 0x20 ADD SWAP1 DUP2 MSTORE PUSH1 0x20 ADD PUSH1 0x0 KECCAK256 SLOAD PUSH2 0xEE5 SWAP1 SWAP2 SWAP1 PUSH4 0xFFFFFFFF AND JUMP JUMPDEST PUSH1 0x2 PUSH1 0x0 DUP6 PUSH20 0xFFFFFFFFFFFFFFFFFFFFFFFFFFFFFFFFFFFFFFFF AND PUSH20 0xFFFFFFFFFFFFFFFFFFFFFFFFFFFFFFFFFFFFFFFF AND DUP2 MSTORE PUSH1 0x20 ADD SWAP1 DUP2 MSTORE PUSH1 0x20 ADD PUSH1 0x0 KECCAK256 DUP2 SWAP1 SSTORE POP DUP3 PUSH20 0xFFFFFFFFFFFFFFFFFFFFFFFFFFFFFFFFFFFFFFFF AND PUSH32 0xF6798A560793A54C3BCFE86A93CDE1E73087D944C0EA20544137D4121396885 DUP4 PUSH1 0x40 MLOAD PUSH2 0x9D8 SWAP2 SWAP1 PUSH2 0x11CC JUMP JUMPDEST PUSH1 0x40 MLOAD DUP1 SWAP2 SUB SWAP1 LOG2 DUP3 PUSH20 0xFFFFFFFFFFFFFFFFFFFFFFFFFFFFFFFFFFFFFFFF AND PUSH1 0x0 PUSH20 0xFFFFFFFFFFFFFFFFFFFFFFFFFFFFFFFFFFFFFFFF AND PUSH32 0xDDF252AD1BE2C89B69C2B068FC378DAA952BA7F163C4A11628F55A4DF523B3EF DUP5 PUSH1 0x40 MLOAD PUSH2 0xA3E SWAP2 SWAP1 PUSH2 0x11CC JUMP JUMPDEST PUSH1 0x40 MLOAD DUP1 SWAP2 SUB SWAP1 LOG3 PUSH1 0x1 SWAP1 POP SWAP3 SWAP2 POP POP JUMP JUMPDEST PUSH1 0x0 PUSH1 0x2 PUSH1 0x0 DUP4 PUSH20 0xFFFFFFFFFFFFFFFFFFFFFFFFFFFFFFFFFFFFFFFF AND PUSH20 0xFFFFFFFFFFFFFFFFFFFFFFFFFFFFFFFFFFFFFFFF AND DUP2 MSTORE PUSH1 0x20 ADD SWAP1 DUP2 MSTORE PUSH1 0x20 ADD PUSH1 0x0 KECCAK256 SLOAD SWAP1 POP SWAP2 SWAP1 POP JUMP JUMPDEST PUSH1 0x0 DUP1 PUSH1 0x1 SWAP1 SLOAD SWAP1 PUSH2 0x100 EXP SWAP1 DIV PUSH20 0xFFFFFFFFFFFFFFFFFFFFFFFFFFFFFFFFFFFFFFFF AND PUSH20 0xFFFFFFFFFFFFFFFFFFFFFFFFFFFFFFFFFFFFFFFF AND CALLER PUSH20 0xFFFFFFFFFFFFFFFFFFFFFFFFFFFFFFFFFFFFFFFF AND EQ PUSH2 0xAF4 JUMPI PUSH1 0x0 DUP1 REVERT JUMPDEST PUSH1 0x0 DUP1 SLOAD SWAP1 PUSH2 0x100 EXP SWAP1 DIV PUSH1 0xFF AND ISZERO PUSH2 0xB0C JUMPI PUSH1 0x0 DUP1 REVERT JUMPDEST PUSH1 0x1 PUSH1 0x0 DUP1 PUSH2 0x100 EXP DUP2 SLOAD DUP2 PUSH1 0xFF MUL NOT AND SWAP1 DUP4 ISZERO ISZERO MUL OR SWAP1 SSTORE POP PUSH32 0xAE5184FBA832CB2B1F702ACA6117B8D265EAF03AD33EB133F19DDE0F5920FA08 PUSH1 0x40 MLOAD PUSH1 0x40 MLOAD DUP1 SWAP2 SUB SWAP1 LOG1 PUSH1 0x1 SWAP1 POP SWAP1 JUMP JUMPDEST PUSH1 0x0 DUP1 PUSH1 0x1 SWAP1 SLOAD SWAP1 PUSH2 0x100 EXP SWAP1 DIV PUSH20 0xFFFFFFFFFFFFFFFFFFFFFFFFFFFFFFFFFFFFFFFF AND SWAP1 POP SWAP1 JUMP JUMPDEST PUSH1 0x0 PUSH1 0x1 SWAP1 SLOAD SWAP1 PUSH2 0x100 EXP SWAP1 DIV PUSH20 0xFFFFFFFFFFFFFFFFFFFFFFFFFFFFFFFFFFFFFFFF AND DUP2 JUMP JUMPDEST PUSH1 0x40 MLOAD DUP1 PUSH1 0x40 ADD PUSH1 0x40 MSTORE DUP1 PUSH1 0x2 DUP2 MSTORE PUSH1 0x20 ADD PUSH32 0x4254000000000000000000000000000000000000000000000000000000000000 DUP2 MSTORE POP DUP2 JUMP JUMPDEST PUSH1 0x0 DUP1 PUSH20 0xFFFFFFFFFFFFFFFFFFFFFFFFFFFFFFFFFFFFFFFF AND DUP4 PUSH20 0xFFFFFFFFFFFFFFFFFFFFFFFFFFFFFFFFFFFFFFFF AND EQ ISZERO PUSH2 0xC1C JUMPI PUSH1 0x0 DUP1 REVERT JUMPDEST PUSH1 0x2 PUSH1 0x0 ORIGIN PUSH20 0xFFFFFFFFFFFFFFFFFFFFFFFFFFFFFFFFFFFFFFFF AND PUSH20 0xFFFFFFFFFFFFFFFFFFFFFFFFFFFFFFFFFFFFFFFF AND DUP2 MSTORE PUSH1 0x20 ADD SWAP1 DUP2 MSTORE PUSH1 0x20 ADD PUSH1 0x0 KECCAK256 SLOAD DUP3 GT ISZERO PUSH2 0xC9E JUMPI PUSH1 0x40 MLOAD PUSH32 0x8C379A000000000000000000000000000000000000000000000000000000000 DUP2 MSTORE PUSH1 0x4 ADD PUSH2 0xC95 SWAP1 PUSH2 0x116C JUMP JUMPDEST PUSH1 0x40 MLOAD DUP1 SWAP2 SUB SWAP1 REVERT JUMPDEST PUSH2 0xCF0 DUP3 PUSH1 0x2 PUSH1 0x0 ORIGIN PUSH20 0xFFFFFFFFFFFFFFFFFFFFFFFFFFFFFFFFFFFFFFFF AND PUSH20 0xFFFFFFFFFFFFFFFFFFFFFFFFFFFFFFFFFFFFFFFF AND DUP2 MSTORE PUSH1 0x20 ADD SWAP1 DUP2 MSTORE PUSH1 0x20 ADD PUSH1 0x0 KECCAK256 SLOAD PUSH2 0xEBE SWAP1 SWAP2 SWAP1 PUSH4 0xFFFFFFFF AND JUMP JUMPDEST PUSH1 0x2 PUSH1 0x0 ORIGIN PUSH20 0xFFFFFFFFFFFFFFFFFFFFFFFFFFFFFFFFFFFFFFFF AND PUSH20 0xFFFFFFFFFFFFFFFFFFFFFFFFFFFFFFFFFFFFFFFF AND DUP2 MSTORE PUSH1 0x20 ADD SWAP1 DUP2 MSTORE PUSH1 0x20 ADD PUSH1 0x0 KECCAK256 DUP2 SWAP1 SSTORE POP PUSH2 0xD85 DUP3 PUSH1 0x2 PUSH1 0x0 DUP7 PUSH20 0xFFFFFFFFFFFFFFFFFFFFFFFFFFFFFFFFFFFFFFFF AND PUSH20 0xFFFFFFFFFFFFFFFFFFFFFFFFFFFFFFFFFFFFFFFF AND DUP2 MSTORE PUSH1 0x20 ADD SWAP1 DUP2 MSTORE PUSH1 0x20 ADD PUSH1 0x0 KECCAK256 SLOAD PUSH2 0xEE5 SWAP1 SWAP2 SWAP1 PUSH4 0xFFFFFFFF AND JUMP JUMPDEST PUSH1 0x2 PUSH1 0x0 DUP6 PUSH20 0xFFFFFFFFFFFFFFFFFFFFFFFFFFFFFFFFFFFFFFFF AND PUSH20 0xFFFFFFFFFFFFFFFFFFFFFFFFFFFFFFFFFFFFFFFF AND DUP2 MSTORE PUSH1 0x20 ADD SWAP1 DUP2 MSTORE PUSH1 0x20 ADD PUSH1 0x0 KECCAK256 DUP2 SWAP1 SSTORE POP DUP3 PUSH20 0xFFFFFFFFFFFFFFFFFFFFFFFFFFFFFFFFFFFFFFFF AND ORIGIN PUSH20 0xFFFFFFFFFFFFFFFFFFFFFFFFFFFFFFFFFFFFFFFF AND PUSH32 0xDDF252AD1BE2C89B69C2B068FC378DAA952BA7F163C4A11628F55A4DF523B3EF DUP5 PUSH1 0x40 MLOAD PUSH2 0xE25 SWAP2 SWAP1 PUSH2 0x11CC JUMP JUMPDEST PUSH1 0x40 MLOAD DUP1 SWAP2 SUB SWAP1 LOG3 PUSH1 0x1 SWAP1 POP SWAP3 SWAP2 POP POP JUMP JUMPDEST PUSH1 0x0 PUSH1 0x1 PUSH1 0x0 DUP5 PUSH20 0xFFFFFFFFFFFFFFFFFFFFFFFFFFFFFFFFFFFFFFFF AND PUSH20 0xFFFFFFFFFFFFFFFFFFFFFFFFFFFFFFFFFFFFFFFF AND DUP2 MSTORE PUSH1 0x20 ADD SWAP1 DUP2 MSTORE PUSH1 0x20 ADD PUSH1 0x0 KECCAK256 PUSH1 0x0 DUP4 PUSH20 0xFFFFFFFFFFFFFFFFFFFFFFFFFFFFFFFFFFFFFFFF AND PUSH20 0xFFFFFFFFFFFFFFFFFFFFFFFFFFFFFFFFFFFFFFFF AND DUP2 MSTORE PUSH1 0x20 ADD SWAP1 DUP2 MSTORE PUSH1 0x20 ADD PUSH1 0x0 KECCAK256 SLOAD SWAP1 POP SWAP3 SWAP2 POP POP JUMP JUMPDEST PUSH1 0x0 DUP3 DUP3 GT ISZERO PUSH2 0xED1 JUMPI PUSH2 0xED0 PUSH2 0x1330 JUMP JUMPDEST JUMPDEST DUP2 DUP4 PUSH2 0xEDD SWAP2 SWAP1 PUSH2 0x1274 JUMP JUMPDEST SWAP1 POP SWAP3 SWAP2 POP POP JUMP JUMPDEST PUSH1 0x0 DUP2 DUP4 PUSH2 0xEF3 SWAP2 SWAP1 PUSH2 0x121E JUMP JUMPDEST SWAP1 POP DUP3 DUP2 LT ISZERO PUSH2 0xF06 JUMPI PUSH2 0xF05 PUSH2 0x1330 JUMP JUMPDEST JUMPDEST SWAP3 SWAP2 POP POP JUMP JUMPDEST PUSH1 0x0 DUP2 CALLDATALOAD SWAP1 POP PUSH2 0xF1B DUP2 PUSH2 0x1445 JUMP JUMPDEST SWAP3 SWAP2 POP POP JUMP JUMPDEST PUSH1 0x0 DUP2 CALLDATALOAD SWAP1 POP PUSH2 0xF30 DUP2 PUSH2 0x145C JUMP JUMPDEST SWAP3 SWAP2 POP POP JUMP JUMPDEST PUSH1 0x0 PUSH1 0x20 DUP3 DUP5 SUB SLT ISZERO PUSH2 0xF4C JUMPI PUSH2 0xF4B PUSH2 0x138E JUMP JUMPDEST JUMPDEST PUSH1 0x0 PUSH2 0xF5A DUP5 DUP3 DUP6 ADD PUSH2 0xF0C JUMP JUMPDEST SWAP2 POP POP SWAP3 SWAP2 POP POP JUMP JUMPDEST PUSH1 0x0 DUP1 PUSH1 0x40 DUP4 DUP6 SUB SLT ISZERO PUSH2 0xF7A JUMPI PUSH2 0xF79 PUSH2 0x138E JUMP JUMPDEST JUMPDEST PUSH1 0x0 PUSH2 0xF88 DUP6 DUP3 DUP7 ADD PUSH2 0xF0C JUMP JUMPDEST SWAP3 POP POP PUSH1 0x20 PUSH2 0xF99 DUP6 DUP3 DUP7 ADD PUSH2 0xF0C JUMP JUMPDEST SWAP2 POP POP SWAP3 POP SWAP3 SWAP1 POP JUMP JUMPDEST PUSH1 0x0 DUP1 PUSH1 0x0 PUSH1 0x60 DUP5 DUP7 SUB SLT ISZERO PUSH2 0xFBC JUMPI PUSH2 0xFBB PUSH2 0x138E JUMP JUMPDEST JUMPDEST PUSH1 0x0 PUSH2 0xFCA DUP7 DUP3 DUP8 ADD PUSH2 0xF0C JUMP JUMPDEST SWAP4 POP POP PUSH1 0x20 PUSH2 0xFDB DUP7 DUP3 DUP8 ADD PUSH2 0xF0C JUMP JUMPDEST SWAP3 POP POP PUSH1 0x40 PUSH2 0xFEC DUP7 DUP3 DUP8 ADD PUSH2 0xF21 JUMP JUMPDEST SWAP2 POP POP SWAP3 POP SWAP3 POP SWAP3 JUMP JUMPDEST PUSH1 0x0 DUP1 PUSH1 0x40 DUP4 DUP6 SUB SLT ISZERO PUSH2 0x100D JUMPI PUSH2 0x100C PUSH2 0x138E JUMP JUMPDEST JUMPDEST PUSH1 0x0 PUSH2 0x101B DUP6 DUP3 DUP7 ADD PUSH2 0xF0C JUMP JUMPDEST SWAP3 POP POP PUSH1 0x20 PUSH2 0x102C DUP6 DUP3 DUP7 ADD PUSH2 0xF21 JUMP JUMPDEST SWAP2 POP POP SWAP3 POP SWAP3 SWAP1 POP JUMP JUMPDEST PUSH2 0x103F DUP2 PUSH2 0x12A8 JUMP JUMPDEST DUP3 MSTORE POP POP JUMP JUMPDEST PUSH2 0x104E DUP2 PUSH2 0x12BA JUMP JUMPDEST DUP3 MSTORE POP POP JUMP JUMPDEST PUSH1 0x0 PUSH2 0x105F DUP3 PUSH2 0x1202 JUMP JUMPDEST PUSH2 0x1069 DUP2 DUP6 PUSH2 0x120D JUMP JUMPDEST SWAP4 POP PUSH2 0x1079 DUP2 DUP6 PUSH1 0x20 DUP7 ADD PUSH2 0x12FD JUMP JUMPDEST PUSH2 0x1082 DUP2 PUSH2 0x1393 JUMP JUMPDEST DUP5 ADD SWAP2 POP POP SWAP3 SWAP2 POP POP JUMP JUMPDEST PUSH1 0x0 PUSH2 0x109A PUSH1 0x26 DUP4 PUSH2 0x120D JUMP JUMPDEST SWAP2 POP PUSH2 0x10A5 DUP3 PUSH2 0x13A4 JUMP JUMPDEST PUSH1 0x40 DUP3 ADD SWAP1 POP SWAP2 SWAP1 POP JUMP JUMPDEST PUSH1 0x0 PUSH2 0x10BD PUSH1 0x20 DUP4 PUSH2 0x120D JUMP JUMPDEST SWAP2 POP PUSH2 0x10C8 DUP3 PUSH2 0x13F3 JUMP JUMPDEST PUSH1 0x20 DUP3 ADD SWAP1 POP SWAP2 SWAP1 POP JUMP JUMPDEST PUSH1 0x0 PUSH2 0x10E0 PUSH1 0x1E DUP4 PUSH2 0x120D JUMP JUMPDEST SWAP2 POP PUSH2 0x10EB DUP3 PUSH2 0x141C JUMP JUMPDEST PUSH1 0x20 DUP3 ADD SWAP1 POP SWAP2 SWAP1 POP JUMP JUMPDEST PUSH2 0x10FF DUP2 PUSH2 0x12E6 JUMP JUMPDEST DUP3 MSTORE POP POP JUMP JUMPDEST PUSH2 0x110E DUP2 PUSH2 0x12F0 JUMP JUMPDEST DUP3 MSTORE POP POP JUMP JUMPDEST PUSH1 0x0 PUSH1 0x20 DUP3 ADD SWAP1 POP PUSH2 0x1129 PUSH1 0x0 DUP4 ADD DUP5 PUSH2 0x1036 JUMP JUMPDEST SWAP3 SWAP2 POP POP JUMP JUMPDEST PUSH1 0x0 PUSH1 0x20 DUP3 ADD SWAP1 POP PUSH2 0x1144 PUSH1 0x0 DUP4 ADD DUP5 PUSH2 0x1045 JUMP JUMPDEST SWAP3 SWAP2 POP POP JUMP JUMPDEST PUSH1 0x0 PUSH1 0x20 DUP3 ADD SWAP1 POP DUP2 DUP2 SUB PUSH1 0x0 DUP4 ADD MSTORE PUSH2 0x1164 DUP2 DUP5 PUSH2 0x1054 JUMP JUMPDEST SWAP1 POP SWAP3 SWAP2 POP POP JUMP JUMPDEST PUSH1 0x0 PUSH1 0x20 DUP3 ADD SWAP1 POP DUP2 DUP2 SUB PUSH1 0x0 DUP4 ADD MSTORE PUSH2 0x1185 DUP2 PUSH2 0x108D JUMP JUMPDEST SWAP1 POP SWAP2 SWAP1 POP JUMP JUMPDEST PUSH1 0x0 PUSH1 0x20 DUP3 ADD SWAP1 POP DUP2 DUP2 SUB PUSH1 0x0 DUP4 ADD MSTORE PUSH2 0x11A5 DUP2 PUSH2 0x10B0 JUMP JUMPDEST SWAP1 POP SWAP2 SWAP1 POP JUMP JUMPDEST PUSH1 0x0 PUSH1 0x20 DUP3 ADD SWAP1 POP DUP2 DUP2 SUB PUSH1 0x0 DUP4 ADD MSTORE PUSH2 0x11C5 DUP2 PUSH2 0x10D3 JUMP JUMPDEST SWAP1 POP SWAP2 SWAP1 POP JUMP JUMPDEST PUSH1 0x0 PUSH1 0x20 DUP3 ADD SWAP1 POP PUSH2 0x11E1 PUSH1 0x0 DUP4 ADD DUP5 PUSH2 0x10F6 JUMP JUMPDEST SWAP3 SWAP2 POP POP JUMP JUMPDEST PUSH1 0x0 PUSH1 0x20 DUP3 ADD SWAP1 POP PUSH2 0x11FC PUSH1 0x0 DUP4 ADD DUP5 PUSH2 0x1105 JUMP JUMPDEST SWAP3 SWAP2 POP POP JUMP JUMPDEST PUSH1 0x0 DUP2 MLOAD SWAP1 POP SWAP2 SWAP1 POP JUMP JUMPDEST PUSH1 0x0 DUP3 DUP3 MSTORE PUSH1 0x20 DUP3 ADD SWAP1 POP SWAP3 SWAP2 POP POP JUMP JUMPDEST PUSH1 0x0 PUSH2 0x1229 DUP3 PUSH2 0x12E6 JUMP JUMPDEST SWAP2 POP PUSH2 0x1234 DUP4 PUSH2 0x12E6 JUMP JUMPDEST SWAP3 POP DUP3 PUSH32 0xFFFFFFFFFFFFFFFFFFFFFFFFFFFFFFFFFFFFFFFFFFFFFFFFFFFFFFFFFFFFFFFF SUB DUP3 GT ISZERO PUSH2 0x1269 JUMPI PUSH2 0x1268 PUSH2 0x135F JUMP JUMPDEST JUMPDEST DUP3 DUP3 ADD SWAP1 POP SWAP3 SWAP2 POP POP JUMP JUMPDEST PUSH1 0x0 PUSH2 0x127F DUP3 PUSH2 0x12E6 JUMP JUMPDEST SWAP2 POP PUSH2 0x128A DUP4 PUSH2 0x12E6 JUMP JUMPDEST SWAP3 POP DUP3 DUP3 LT ISZERO PUSH2 0x129D JUMPI PUSH2 0x129C PUSH2 0x135F JUMP JUMPDEST JUMPDEST DUP3 DUP3 SUB SWAP1 POP SWAP3 SWAP2 POP POP JUMP JUMPDEST PUSH1 0x0 PUSH2 0x12B3 DUP3 PUSH2 0x12C6 JUMP JUMPDEST SWAP1 POP SWAP2 SWAP1 POP JUMP JUMPDEST PUSH1 0x0 DUP2 ISZERO ISZERO SWAP1 POP SWAP2 SWAP1 POP JUMP JUMPDEST PUSH1 0x0 PUSH20 0xFFFFFFFFFFFFFFFFFFFFFFFFFFFFFFFFFFFFFFFF DUP3 AND SWAP1 POP SWAP2 SWAP1 POP JUMP JUMPDEST PUSH1 0x0 DUP2 SWAP1 POP SWAP2 SWAP1 POP JUMP JUMPDEST PUSH1 0x0 PUSH1 0xFF DUP3 AND SWAP1 POP SWAP2 SWAP1 POP JUMP JUMPDEST PUSH1 0x0 JUMPDEST DUP4 DUP2 LT ISZERO PUSH2 0x131B JUMPI DUP1 DUP3 ADD MLOAD DUP2 DUP5 ADD MSTORE PUSH1 0x20 DUP2 ADD SWAP1 POP PUSH2 0x1300 JUMP JUMPDEST DUP4 DUP2 GT ISZERO PUSH2 0x132A JUMPI PUSH1 0x0 DUP5 DUP5 ADD MSTORE JUMPDEST POP POP POP POP JUMP JUMPDEST PUSH32 0x4E487B7100000000000000000000000000000000000000000000000000000000 PUSH1 0x0 MSTORE PUSH1 0x1 PUSH1 0x4 MSTORE PUSH1 0x24 PUSH1 0x0 REVERT JUMPDEST PUSH32 0x4E487B7100000000000000000000000000000000000000000000000000000000 PUSH1 0x0 MSTORE PUSH1 0x11 PUSH1 0x4 MSTORE PUSH1 0x24 PUSH1 0x0 REVERT JUMPDEST PUSH1 0x0 DUP1 REVERT JUMPDEST PUSH1 0x0 PUSH1 0x1F NOT PUSH1 0x1F DUP4 ADD AND SWAP1 POP SWAP2 SWAP1 POP JUMP JUMPDEST PUSH32 0x6D73672E73656E64657220646F65736E2774206861766520656E6F7567682062 PUSH1 0x0 DUP3 ADD MSTORE PUSH32 0x616C616E63650000000000000000000000000000000000000000000000000000 PUSH1 0x20 DUP3 ADD MSTORE POP JUMP JUMPDEST PUSH32 0x46726F6D20646F65736E2774206861766520656E6F7567682062616C616E6365 PUSH1 0x0 DUP3 ADD MSTORE POP JUMP JUMPDEST PUSH32 0x4E6F7420616C6C6F77656420746F207370656E642074686973206D7563680000 PUSH1 0x0 DUP3 ADD MSTORE POP JUMP JUMPDEST PUSH2 0x144E DUP2 PUSH2 0x12A8 JUMP JUMPDEST DUP2 EQ PUSH2 0x1459 JUMPI PUSH1 0x0 DUP1 REVERT JUMPDEST POP JUMP JUMPDEST PUSH2 0x1465 DUP2 PUSH2 0x12E6 JUMP JUMPDEST DUP2 EQ PUSH2 0x1470 JUMPI PUSH1 0x0 DUP1 REVERT JUMPDEST POP JUMP INVALID LOG2 PUSH5 0x6970667358 0x22 SLT KECCAK256 0x5D 0xE5 PUSH13 0x53650C539A7A7C4FB8C0AD85E5 0xA6 CALL 0x5E BASEFEE 0x4A 0xC9 0xB1 PUSH6 0xEE03BEB6BC00 0xF POP PUSH5 0x736F6C6343 STOP ADDMOD SMOD STOP CALLER "
				},
				"gasEstimates": {
					"creation": {
						"codeDepositCost": "1057800",
						"executionCost": "49683",
						"totalCost": "1107483"
					},
					"external": {
						"allowance(address,address)": "infinite",
						"approve(address,uint256)": "infinite",
						"balanceOf(address)": "2864",
						"decimals()": "402",
						"finishMinting()": "29805",
						"getOwner()": "2639",
						"mint(address,uint256)": "infinite",
						"mintingFinished()": "2492",
						"name()": "infinite",
						"owner()": "2586",
						"symbol()": "infinite",
						"totalSupply()": "2460",
						"transfer(address,uint256)": "infinite",
						"transferFrom(address,address,uint256)": "infinite"
					}
				},
				"methodIdentifiers": {
					"allowance(address,address)": "dd62ed3e",
					"approve(address,uint256)": "095ea7b3",
					"balanceOf(address)": "70a08231",
					"decimals()": "313ce567",
					"finishMinting()": "7d64bcb4",
					"getOwner()": "893d20e8",
					"mint(address,uint256)": "40c10f19",
					"mintingFinished()": "05d2035b",
					"name()": "06fdde03",
					"owner()": "8da5cb5b",
					"symbol()": "95d89b41",
					"totalSupply()": "18160ddd",
					"transfer(address,uint256)": "a9059cbb",
					"transferFrom(address,address,uint256)": "23b872dd"
				}
			},
			"userdoc": {
				"kind": "user",
				"methods": {},
				"version": 1
			}
		}
	}
}