{
	"contracts/Service.sol": {
		"Service": {
			"abi": [
				{
					"anonymous": false,
					"inputs": [
						{
							"indexed": false,
							"internalType": "enum Service.Status",
							"name": "status",
							"type": "uint8"
						}
					],
					"name": "serviceApproved",
					"type": "event"
				},
				{
					"anonymous": false,
					"inputs": [
						{
							"indexed": false,
							"internalType": "enum Service.Status",
							"name": "status",
							"type": "uint8"
						}
					],
					"name": "serviceCancelRequest",
					"type": "event"
				},
				{
					"anonymous": false,
					"inputs": [
						{
							"indexed": false,
							"internalType": "enum Service.Status",
							"name": "status",
							"type": "uint8"
						}
					],
					"name": "serviceCompleted",
					"type": "event"
				},
				{
					"anonymous": false,
					"inputs": [
						{
							"indexed": false,
							"internalType": "uint256",
							"name": "serviceNumber",
							"type": "uint256"
						},
						{
							"components": [
								{
									"internalType": "uint256",
									"name": "serviceId",
									"type": "uint256"
								},
								{
									"internalType": "string",
									"name": "title",
									"type": "string"
								},
								{
									"internalType": "string",
									"name": "description",
									"type": "string"
								},
								{
									"internalType": "uint256",
									"name": "price",
									"type": "uint256"
								},
								{
									"internalType": "uint256",
									"name": "currentMilestone",
									"type": "uint256"
								},
								{
									"internalType": "uint256",
									"name": "serviceNumber",
									"type": "uint256"
								},
								{
									"internalType": "address",
									"name": "serviceProvider",
									"type": "address"
								},
								{
									"internalType": "address",
									"name": "serviceRequester",
									"type": "address"
								},
								{
									"internalType": "bool",
									"name": "exist",
									"type": "bool"
								},
								{
									"internalType": "enum Service.Status",
									"name": "status",
									"type": "uint8"
								}
							],
							"indexed": false,
							"internalType": "struct Service.service",
							"name": "newService",
							"type": "tuple"
						}
					],
					"name": "serviceCreated",
					"type": "event"
				},
				{
					"anonymous": false,
					"inputs": [
						{
							"indexed": false,
							"internalType": "uint256",
							"name": "serviceNumber",
							"type": "uint256"
						}
					],
					"name": "serviceDeleted",
					"type": "event"
				},
				{
					"anonymous": false,
					"inputs": [
						{
							"indexed": false,
							"internalType": "enum Service.Status",
							"name": "status",
							"type": "uint8"
						}
					],
					"name": "serviceRejected",
					"type": "event"
				},
				{
					"anonymous": false,
					"inputs": [
						{
							"indexed": false,
							"internalType": "enum Service.Status",
							"name": "status",
							"type": "uint8"
						},
						{
							"indexed": false,
							"internalType": "uint256",
							"name": "serviceNumber",
							"type": "uint256"
						}
					],
					"name": "serviceRequested",
					"type": "event"
				},
				{
					"anonymous": false,
					"inputs": [
						{
							"indexed": false,
							"internalType": "enum Service.Status",
							"name": "status",
							"type": "uint8"
						}
					],
					"name": "serviceStarted",
					"type": "event"
				},
				{
					"anonymous": false,
					"inputs": [
						{
							"indexed": false,
							"internalType": "uint256",
							"name": "serviceNumber",
							"type": "uint256"
						},
						{
							"indexed": false,
							"internalType": "enum Service.Status",
							"name": "statusBefore",
							"type": "uint8"
						},
						{
							"indexed": false,
							"internalType": "enum Service.Status",
							"name": "statusAfter",
							"type": "uint8"
						}
					],
					"name": "serviceStatusChanged",
					"type": "event"
				},
				{
					"inputs": [
						{
							"internalType": "uint256",
							"name": "serviceNumber",
							"type": "uint256"
						}
					],
					"name": "deleteRequestService",
					"outputs": [],
					"stateMutability": "nonpayable",
					"type": "function"
				},
				{
					"inputs": [],
					"name": "numService",
					"outputs": [
						{
							"internalType": "uint256",
							"name": "",
							"type": "uint256"
						}
					],
					"stateMutability": "view",
					"type": "function"
				},
				{
					"inputs": [
						{
							"internalType": "string",
							"name": "title",
							"type": "string"
						},
						{
							"internalType": "string",
							"name": "description",
							"type": "string"
						},
						{
							"internalType": "uint256",
							"name": "price",
							"type": "uint256"
						}
					],
					"name": "requestService",
					"outputs": [
						{
							"internalType": "uint256",
							"name": "",
							"type": "uint256"
						}
					],
					"stateMutability": "nonpayable",
					"type": "function"
				}
			],
			"devdoc": {
				"kind": "dev",
				"methods": {},
				"version": 1
			},
			"evm": {
				"assembly": "    /* \"contracts/Service.sol\":148:3270  contract Service {... */\n  mstore(0x40, 0x80)\n    /* \"contracts/Service.sol\":1489:1490  0 */\n  0x00\n    /* \"contracts/Service.sol\":1461:1490  uint256 public numService = 0 */\n  0x01\n  sstore\n    /* \"contracts/Service.sol\":148:3270  contract Service {... */\n  callvalue\n  dup1\n  iszero\n  tag_1\n  jumpi\n  0x00\n  dup1\n  revert\ntag_1:\n  pop\n  dataSize(sub_0)\n  dup1\n  dataOffset(sub_0)\n  0x00\n  codecopy\n  0x00\n  return\nstop\n\nsub_0: assembly {\n        /* \"contracts/Service.sol\":148:3270  contract Service {... */\n      mstore(0x40, 0x80)\n      callvalue\n      dup1\n      iszero\n      tag_1\n      jumpi\n      0x00\n      dup1\n      revert\n    tag_1:\n      pop\n      jumpi(tag_2, lt(calldatasize, 0x04))\n      shr(0xe0, calldataload(0x00))\n      dup1\n      0x854c4707\n      eq\n      tag_3\n      jumpi\n      dup1\n      0x9ef60730\n      eq\n      tag_4\n      jumpi\n      dup1\n      0xe9ed56a5\n      eq\n      tag_5\n      jumpi\n    tag_2:\n      0x00\n      dup1\n      revert\n        /* \"contracts/Service.sol\":1461:1490  uint256 public numService = 0 */\n    tag_3:\n      tag_6\n      tag_7\n      jump\t// in\n    tag_6:\n      mload(0x40)\n      tag_8\n      swap2\n      swap1\n      tag_9\n      jump\t// in\n    tag_8:\n      mload(0x40)\n      dup1\n      swap2\n      sub\n      swap1\n      return\n        /* \"contracts/Service.sol\":2865:3262  function deleteRequestService(uint256 serviceNumber) public ... */\n    tag_4:\n      tag_10\n      0x04\n      dup1\n      calldatasize\n      sub\n      dup2\n      add\n      swap1\n      tag_11\n      swap2\n      swap1\n      tag_12\n      jump\t// in\n    tag_11:\n      tag_13\n      jump\t// in\n    tag_10:\n      stop\n        /* \"contracts/Service.sol\":2124:2822  function requestService(string memory title, string memory description, uint256 price) public requiredString(title) requiredString(description) returns (uint256) {        ... */\n    tag_5:\n      tag_14\n      0x04\n      dup1\n      calldatasize\n      sub\n      dup2\n      add\n      swap1\n      tag_15\n      swap2\n      swap1\n      tag_16\n      jump\t// in\n    tag_15:\n      tag_17\n      jump\t// in\n    tag_14:\n      mload(0x40)\n      tag_18\n      swap2\n      swap1\n      tag_9\n      jump\t// in\n    tag_18:\n      mload(0x40)\n      dup1\n      swap2\n      sub\n      swap1\n      return\n        /* \"contracts/Service.sol\":1461:1490  uint256 public numService = 0 */\n    tag_7:\n      sload(0x01)\n      dup2\n      jump\t// out\n        /* \"contracts/Service.sol\":2865:3262  function deleteRequestService(uint256 serviceNumber) public ... */\n    tag_13:\n        /* \"contracts/Service.sol\":2952:2965  serviceNumber */\n      dup1\n        /* \"contracts/Service.sol\":1747:1751  true */\n      0x01\n        /* \"contracts/Service.sol\":1714:1751  services[serviceNumber].exist == true */\n      iszero\n      iszero\n        /* \"contracts/Service.sol\":1714:1722  services */\n      0x00\n        /* \"contracts/Service.sol\":1714:1737  services[serviceNumber] */\n      dup1\n        /* \"contracts/Service.sol\":1723:1736  serviceNumber */\n      dup4\n        /* \"contracts/Service.sol\":1714:1737  services[serviceNumber] */\n      dup2\n      mstore\n      0x20\n      add\n      swap1\n      dup2\n      mstore\n      0x20\n      add\n      0x00\n      keccak256\n        /* \"contracts/Service.sol\":1714:1743  services[serviceNumber].exist */\n      0x07\n      add\n      0x14\n      swap1\n      sload\n      swap1\n      0x0100\n      exp\n      swap1\n      div\n      0xff\n      and\n        /* \"contracts/Service.sol\":1714:1751  services[serviceNumber].exist == true */\n      iszero\n      iszero\n      eq\n        /* \"contracts/Service.sol\":1706:1812  require(services[serviceNumber].exist == true, \"This service has been deleted and does not exist anymore\") */\n      tag_20\n      jumpi\n      mload(0x40)\n      0x08c379a000000000000000000000000000000000000000000000000000000000\n      dup2\n      mstore\n      0x04\n      add\n      tag_21\n      swap1\n      tag_22\n      jump\t// in\n    tag_21:\n      mload(0x40)\n      dup1\n      swap2\n      sub\n      swap1\n      revert\n    tag_20:\n        /* \"contracts/Service.sol\":3056:3069  serviceNumber */\n      dup2\n        /* \"contracts/Service.sol\":3071:3082  Status.none */\n      0x00\n        /* \"contracts/Service.sol\":1951:1956  state */\n      dup1\n        /* \"contracts/Service.sol\":1917:1956  services[serviceNumber].status == state */\n      0x05\n      dup2\n      gt\n      iszero\n      tag_24\n      jumpi\n      tag_25\n      tag_26\n      jump\t// in\n    tag_25:\n    tag_24:\n        /* \"contracts/Service.sol\":1917:1925  services */\n      0x00\n        /* \"contracts/Service.sol\":1917:1940  services[serviceNumber] */\n      dup1\n        /* \"contracts/Service.sol\":1926:1939  serviceNumber */\n      dup5\n        /* \"contracts/Service.sol\":1917:1940  services[serviceNumber] */\n      dup2\n      mstore\n      0x20\n      add\n      swap1\n      dup2\n      mstore\n      0x20\n      add\n      0x00\n      keccak256\n        /* \"contracts/Service.sol\":1917:1947  services[serviceNumber].status */\n      0x07\n      add\n      0x15\n      swap1\n      sload\n      swap1\n      0x0100\n      exp\n      swap1\n      div\n      0xff\n      and\n        /* \"contracts/Service.sol\":1917:1956  services[serviceNumber].status == state */\n      0x05\n      dup2\n      gt\n      iszero\n      tag_27\n      jumpi\n      tag_28\n      tag_26\n      jump\t// in\n    tag_28:\n    tag_27:\n      eq\n        /* \"contracts/Service.sol\":1909:2023  require(services[serviceNumber].status == state, \"The status of this service does not match the intended status.\") */\n      tag_29\n      jumpi\n      mload(0x40)\n      0x08c379a000000000000000000000000000000000000000000000000000000000\n      dup2\n      mstore\n      0x04\n      add\n      tag_30\n      swap1\n      tag_31\n      jump\t// in\n    tag_30:\n      mload(0x40)\n      dup1\n      swap2\n      sub\n      swap1\n      revert\n    tag_29:\n        /* \"contracts/Service.sol\":3184:3189  false */\n      0x00\n        /* \"contracts/Service.sol\":3152:3160  services */\n      dup1\n        /* \"contracts/Service.sol\":3152:3175  services[serviceNumber] */\n      0x00\n        /* \"contracts/Service.sol\":3161:3174  serviceNumber */\n      dup7\n        /* \"contracts/Service.sol\":3152:3175  services[serviceNumber] */\n      dup2\n      mstore\n      0x20\n      add\n      swap1\n      dup2\n      mstore\n      0x20\n      add\n      0x00\n      keccak256\n        /* \"contracts/Service.sol\":3152:3181  services[serviceNumber].exist */\n      0x07\n      add\n      0x14\n        /* \"contracts/Service.sol\":3152:3189  services[serviceNumber].exist = false */\n      0x0100\n      exp\n      dup2\n      sload\n      dup2\n      0xff\n      mul\n      not\n      and\n      swap1\n      dup4\n      iszero\n      iszero\n      mul\n      or\n      swap1\n      sstore\n      pop\n        /* \"contracts/Service.sol\":3199:3209  numService */\n      0x01\n      0x00\n        /* \"contracts/Service.sol\":3199:3211  numService-- */\n      dup2\n      sload\n      dup1\n      swap3\n      swap2\n      swap1\n      tag_33\n      swap1\n      tag_34\n      jump\t// in\n    tag_33:\n      swap2\n      swap1\n      pop\n      sstore\n      pop\n        /* \"contracts/Service.sol\":3226:3255  serviceDeleted(serviceNumber) */\n      0x6694ca203a0738585d2b2d17b211195dfb43e09eb19ac1f2c3a59c168e135872\n        /* \"contracts/Service.sol\":3241:3254  serviceNumber */\n      dup5\n        /* \"contracts/Service.sol\":3226:3255  serviceDeleted(serviceNumber) */\n      mload(0x40)\n      tag_35\n      swap2\n      swap1\n      tag_9\n      jump\t// in\n    tag_35:\n      mload(0x40)\n      dup1\n      swap2\n      sub\n      swap1\n      log1\n        /* \"contracts/Service.sol\":1822:1823  _ */\n      pop\n      pop\n        /* \"contracts/Service.sol\":2865:3262  function deleteRequestService(uint256 serviceNumber) public ... */\n      pop\n      pop\n      jump\t// out\n        /* \"contracts/Service.sol\":2124:2822  function requestService(string memory title, string memory description, uint256 price) public requiredString(title) requiredString(description) returns (uint256) {        ... */\n    tag_17:\n        /* \"contracts/Service.sol\":2277:2284  uint256 */\n      0x00\n        /* \"contracts/Service.sol\":2233:2238  title */\n      dup4\n        /* \"contracts/Service.sol\":1599:1600  0 */\n      0x00\n        /* \"contracts/Service.sol\":1585:1588  str */\n      dup2\n        /* \"contracts/Service.sol\":1579:1596  bytes(str).length */\n      mload\n        /* \"contracts/Service.sol\":1579:1600  bytes(str).length > 0 */\n      gt\n        /* \"contracts/Service.sol\":1571:1626  require(bytes(str).length > 0, \"A string is required!\") */\n      tag_37\n      jumpi\n      mload(0x40)\n      0x08c379a000000000000000000000000000000000000000000000000000000000\n      dup2\n      mstore\n      0x04\n      add\n      tag_38\n      swap1\n      tag_39\n      jump\t// in\n    tag_38:\n      mload(0x40)\n      dup1\n      swap2\n      sub\n      swap1\n      revert\n    tag_37:\n        /* \"contracts/Service.sol\":2255:2266  description */\n      dup4\n        /* \"contracts/Service.sol\":1599:1600  0 */\n      0x00\n        /* \"contracts/Service.sol\":1585:1588  str */\n      dup2\n        /* \"contracts/Service.sol\":1579:1596  bytes(str).length */\n      mload\n        /* \"contracts/Service.sol\":1579:1600  bytes(str).length > 0 */\n      gt\n        /* \"contracts/Service.sol\":1571:1626  require(bytes(str).length > 0, \"A string is required!\") */\n      tag_41\n      jumpi\n      mload(0x40)\n      0x08c379a000000000000000000000000000000000000000000000000000000000\n      dup2\n      mstore\n      0x04\n      add\n      tag_42\n      swap1\n      tag_39\n      jump\t// in\n    tag_42:\n      mload(0x40)\n      dup1\n      swap2\n      sub\n      swap1\n      revert\n    tag_41:\n        /* \"contracts/Service.sol\":2320:2321  0 */\n      0x00\n        /* \"contracts/Service.sol\":2312:2317  price */\n      dup5\n        /* \"contracts/Service.sol\":2312:2321  price > 0 */\n      gt\n        /* \"contracts/Service.sol\":2304:2359  require(price > 0, \"A Service Price must be specified\") */\n      tag_44\n      jumpi\n      mload(0x40)\n      0x08c379a000000000000000000000000000000000000000000000000000000000\n      dup2\n      mstore\n      0x04\n      add\n      tag_45\n      swap1\n      tag_46\n      jump\t// in\n    tag_45:\n      mload(0x40)\n      dup1\n      swap2\n      sub\n      swap1\n      revert\n    tag_44:\n        /* \"contracts/Service.sol\":2370:2396  service storage newService */\n      0x00\n        /* \"contracts/Service.sol\":2399:2407  services */\n      dup1\n        /* \"contracts/Service.sol\":2399:2419  services[numService] */\n      0x00\n        /* \"contracts/Service.sol\":2408:2418  numService */\n      sload(0x01)\n        /* \"contracts/Service.sol\":2399:2419  services[numService] */\n      dup2\n      mstore\n      0x20\n      add\n      swap1\n      dup2\n      mstore\n      0x20\n      add\n      0x00\n      keccak256\n        /* \"contracts/Service.sol\":2370:2419  service storage newService = services[numService] */\n      swap1\n      pop\n        /* \"contracts/Service.sol\":2448:2453  title */\n      dup7\n        /* \"contracts/Service.sol\":2429:2439  newService */\n      dup2\n        /* \"contracts/Service.sol\":2429:2445  newService.title */\n      0x01\n      add\n        /* \"contracts/Service.sol\":2429:2453  newService.title = title */\n      swap1\n      dup1\n      mload\n      swap1\n      0x20\n      add\n      swap1\n      tag_47\n      swap3\n      swap2\n      swap1\n      tag_48\n      jump\t// in\n    tag_47:\n      pop\n        /* \"contracts/Service.sol\":2488:2499  description */\n      dup6\n        /* \"contracts/Service.sol\":2463:2473  newService */\n      dup2\n        /* \"contracts/Service.sol\":2463:2485  newService.description */\n      0x02\n      add\n        /* \"contracts/Service.sol\":2463:2499  newService.description = description */\n      swap1\n      dup1\n      mload\n      swap1\n      0x20\n      add\n      swap1\n      tag_49\n      swap3\n      swap2\n      swap1\n      tag_48\n      jump\t// in\n    tag_49:\n      pop\n        /* \"contracts/Service.sol\":2528:2533  price */\n      dup5\n        /* \"contracts/Service.sol\":2509:2519  newService */\n      dup2\n        /* \"contracts/Service.sol\":2509:2525  newService.price */\n      0x03\n      add\n        /* \"contracts/Service.sol\":2509:2533  newService.price = price */\n      dup2\n      swap1\n      sstore\n      pop\n        /* \"contracts/Service.sol\":2570:2580  numService */\n      sload(0x01)\n        /* \"contracts/Service.sol\":2543:2553  newService */\n      dup2\n        /* \"contracts/Service.sol\":2543:2567  newService.serviceNumber */\n      0x05\n      add\n        /* \"contracts/Service.sol\":2543:2580  newService.serviceNumber = numService */\n      dup2\n      swap1\n      sstore\n      pop\n        /* \"contracts/Service.sol\":2619:2629  msg.sender */\n      caller\n        /* \"contracts/Service.sol\":2590:2600  newService */\n      dup2\n        /* \"contracts/Service.sol\":2590:2616  newService.serviceProvider */\n      0x06\n      add\n      0x00\n        /* \"contracts/Service.sol\":2590:2629  newService.serviceProvider = msg.sender */\n      0x0100\n      exp\n      dup2\n      sload\n      dup2\n      0xffffffffffffffffffffffffffffffffffffffff\n      mul\n      not\n      and\n      swap1\n      dup4\n      0xffffffffffffffffffffffffffffffffffffffff\n      and\n      mul\n      or\n      swap1\n      sstore\n      pop\n        /* \"contracts/Service.sol\":2658:2662  true */\n      0x01\n        /* \"contracts/Service.sol\":2639:2649  newService */\n      dup2\n        /* \"contracts/Service.sol\":2639:2655  newService.exist */\n      0x07\n      add\n      0x14\n        /* \"contracts/Service.sol\":2639:2662  newService.exist = true */\n      0x0100\n      exp\n      dup2\n      sload\n      dup2\n      0xff\n      mul\n      not\n      and\n      swap1\n      dup4\n      iszero\n      iszero\n      mul\n      or\n      swap1\n      sstore\n      pop\n        /* \"contracts/Service.sol\":2692:2703  Status.none */\n      0x00\n        /* \"contracts/Service.sol\":2672:2682  newService */\n      dup2\n        /* \"contracts/Service.sol\":2672:2689  newService.status */\n      0x07\n      add\n      0x15\n        /* \"contracts/Service.sol\":2672:2703  newService.status = Status.none */\n      0x0100\n      exp\n      dup2\n      sload\n      dup2\n      0xff\n      mul\n      not\n      and\n      swap1\n      dup4\n      0x05\n      dup2\n      gt\n      iszero\n      tag_50\n      jumpi\n      tag_51\n      tag_26\n      jump\t// in\n    tag_51:\n    tag_50:\n      mul\n      or\n      swap1\n      sstore\n      pop\n        /* \"contracts/Service.sol\":2719:2757  serviceCreated(numService, newService) */\n      0x758e44eab201e6a5cd91575a09b546834ec55366c96d92cbf24ad0049aee3de5\n        /* \"contracts/Service.sol\":2734:2744  numService */\n      sload(0x01)\n        /* \"contracts/Service.sol\":2746:2756  newService */\n      dup3\n        /* \"contracts/Service.sol\":2719:2757  serviceCreated(numService, newService) */\n      mload(0x40)\n      tag_52\n      swap3\n      swap2\n      swap1\n      tag_53\n      jump\t// in\n    tag_52:\n      mload(0x40)\n      dup1\n      swap2\n      sub\n      swap1\n      log1\n        /* \"contracts/Service.sol\":2767:2777  numService */\n      0x01\n      0x00\n        /* \"contracts/Service.sol\":2767:2779  numService++ */\n      dup2\n      sload\n      dup1\n      swap3\n      swap2\n      swap1\n      tag_54\n      swap1\n      tag_55\n      jump\t// in\n    tag_54:\n      swap2\n      swap1\n      pop\n      sstore\n      pop\n        /* \"contracts/Service.sol\":2805:2815  numService */\n      sload(0x01)\n        /* \"contracts/Service.sol\":2798:2815  return numService */\n      swap4\n      pop\n      pop\n        /* \"contracts/Service.sol\":1636:1637  _ */\n      pop\n        /* \"contracts/Service.sol\":2124:2822  function requestService(string memory title, string memory description, uint256 price) public requiredString(title) requiredString(description) returns (uint256) {        ... */\n      pop\n      swap4\n      swap3\n      pop\n      pop\n      pop\n      jump\t// out\n    tag_48:\n      dup3\n      dup1\n      sload\n      tag_56\n      swap1\n      tag_57\n      jump\t// in\n    tag_56:\n      swap1\n      0x00\n      mstore\n      keccak256(0x00, 0x20)\n      swap1\n      0x1f\n      add\n      0x20\n      swap1\n      div\n      dup2\n      add\n      swap3\n      dup3\n      tag_59\n      jumpi\n      0x00\n      dup6\n      sstore\n      jump(tag_58)\n    tag_59:\n      dup3\n      0x1f\n      lt\n      tag_60\n      jumpi\n      dup1\n      mload\n      not(0xff)\n      and\n      dup4\n      dup1\n      add\n      or\n      dup6\n      sstore\n      jump(tag_58)\n    tag_60:\n      dup3\n      dup1\n      add\n      0x01\n      add\n      dup6\n      sstore\n      dup3\n      iszero\n      tag_58\n      jumpi\n      swap2\n      dup3\n      add\n    tag_61:\n      dup3\n      dup2\n      gt\n      iszero\n      tag_62\n      jumpi\n      dup3\n      mload\n      dup3\n      sstore\n      swap2\n      0x20\n      add\n      swap2\n      swap1\n      0x01\n      add\n      swap1\n      jump(tag_61)\n    tag_62:\n    tag_58:\n      pop\n      swap1\n      pop\n      tag_63\n      swap2\n      swap1\n      tag_64\n      jump\t// in\n    tag_63:\n      pop\n      swap1\n      jump\t// out\n    tag_64:\n    tag_65:\n      dup1\n      dup3\n      gt\n      iszero\n      tag_66\n      jumpi\n      0x00\n      dup2\n      0x00\n      swap1\n      sstore\n      pop\n      0x01\n      add\n      jump(tag_65)\n    tag_66:\n      pop\n      swap1\n      jump\t// out\n        /* \"#utility.yul\":7:419   */\n    tag_68:\n        /* \"#utility.yul\":85:90   */\n      0x00\n        /* \"#utility.yul\":110:176   */\n      tag_70\n        /* \"#utility.yul\":126:175   */\n      tag_71\n        /* \"#utility.yul\":168:174   */\n      dup5\n        /* \"#utility.yul\":126:175   */\n      tag_72\n      jump\t// in\n    tag_71:\n        /* \"#utility.yul\":110:176   */\n      tag_73\n      jump\t// in\n    tag_70:\n        /* \"#utility.yul\":101:176   */\n      swap1\n      pop\n        /* \"#utility.yul\":199:205   */\n      dup3\n        /* \"#utility.yul\":192:197   */\n      dup2\n        /* \"#utility.yul\":185:206   */\n      mstore\n        /* \"#utility.yul\":237:241   */\n      0x20\n        /* \"#utility.yul\":230:235   */\n      dup2\n        /* \"#utility.yul\":226:242   */\n      add\n        /* \"#utility.yul\":275:278   */\n      dup5\n        /* \"#utility.yul\":266:272   */\n      dup5\n        /* \"#utility.yul\":261:264   */\n      dup5\n        /* \"#utility.yul\":257:273   */\n      add\n        /* \"#utility.yul\":254:279   */\n      gt\n        /* \"#utility.yul\":251:363   */\n      iszero\n      tag_74\n      jumpi\n        /* \"#utility.yul\":282:361   */\n      tag_75\n      tag_76\n      jump\t// in\n    tag_75:\n        /* \"#utility.yul\":251:363   */\n    tag_74:\n        /* \"#utility.yul\":372:413   */\n      tag_77\n        /* \"#utility.yul\":406:412   */\n      dup5\n        /* \"#utility.yul\":401:404   */\n      dup3\n        /* \"#utility.yul\":396:399   */\n      dup6\n        /* \"#utility.yul\":372:413   */\n      tag_78\n      jump\t// in\n    tag_77:\n        /* \"#utility.yul\":91:419   */\n      pop\n        /* \"#utility.yul\":7:419   */\n      swap4\n      swap3\n      pop\n      pop\n      pop\n      jump\t// out\n        /* \"#utility.yul\":439:779   */\n    tag_79:\n        /* \"#utility.yul\":495:500   */\n      0x00\n        /* \"#utility.yul\":544:547   */\n      dup3\n        /* \"#utility.yul\":537:541   */\n      0x1f\n        /* \"#utility.yul\":529:535   */\n      dup4\n        /* \"#utility.yul\":525:542   */\n      add\n        /* \"#utility.yul\":521:548   */\n      slt\n        /* \"#utility.yul\":511:633   */\n      tag_81\n      jumpi\n        /* \"#utility.yul\":552:631   */\n      tag_82\n      tag_83\n      jump\t// in\n    tag_82:\n        /* \"#utility.yul\":511:633   */\n    tag_81:\n        /* \"#utility.yul\":669:675   */\n      dup2\n        /* \"#utility.yul\":656:676   */\n      calldataload\n        /* \"#utility.yul\":694:773   */\n      tag_84\n        /* \"#utility.yul\":769:772   */\n      dup5\n        /* \"#utility.yul\":761:767   */\n      dup3\n        /* \"#utility.yul\":754:758   */\n      0x20\n        /* \"#utility.yul\":746:752   */\n      dup7\n        /* \"#utility.yul\":742:759   */\n      add\n        /* \"#utility.yul\":694:773   */\n      tag_68\n      jump\t// in\n    tag_84:\n        /* \"#utility.yul\":685:773   */\n      swap2\n      pop\n        /* \"#utility.yul\":501:779   */\n      pop\n        /* \"#utility.yul\":439:779   */\n      swap3\n      swap2\n      pop\n      pop\n      jump\t// out\n        /* \"#utility.yul\":785:924   */\n    tag_85:\n        /* \"#utility.yul\":831:836   */\n      0x00\n        /* \"#utility.yul\":869:875   */\n      dup2\n        /* \"#utility.yul\":856:876   */\n      calldataload\n        /* \"#utility.yul\":847:876   */\n      swap1\n      pop\n        /* \"#utility.yul\":885:918   */\n      tag_87\n        /* \"#utility.yul\":912:917   */\n      dup2\n        /* \"#utility.yul\":885:918   */\n      tag_88\n      jump\t// in\n    tag_87:\n        /* \"#utility.yul\":785:924   */\n      swap3\n      swap2\n      pop\n      pop\n      jump\t// out\n        /* \"#utility.yul\":930:1909   */\n    tag_16:\n        /* \"#utility.yul\":1027:1033   */\n      0x00\n        /* \"#utility.yul\":1035:1041   */\n      dup1\n        /* \"#utility.yul\":1043:1049   */\n      0x00\n        /* \"#utility.yul\":1092:1094   */\n      0x60\n        /* \"#utility.yul\":1080:1089   */\n      dup5\n        /* \"#utility.yul\":1071:1078   */\n      dup7\n        /* \"#utility.yul\":1067:1090   */\n      sub\n        /* \"#utility.yul\":1063:1095   */\n      slt\n        /* \"#utility.yul\":1060:1179   */\n      iszero\n      tag_90\n      jumpi\n        /* \"#utility.yul\":1098:1177   */\n      tag_91\n      tag_92\n      jump\t// in\n    tag_91:\n        /* \"#utility.yul\":1060:1179   */\n    tag_90:\n        /* \"#utility.yul\":1246:1247   */\n      0x00\n        /* \"#utility.yul\":1235:1244   */\n      dup5\n        /* \"#utility.yul\":1231:1248   */\n      add\n        /* \"#utility.yul\":1218:1249   */\n      calldataload\n        /* \"#utility.yul\":1276:1294   */\n      0xffffffffffffffff\n        /* \"#utility.yul\":1268:1274   */\n      dup2\n        /* \"#utility.yul\":1265:1295   */\n      gt\n        /* \"#utility.yul\":1262:1379   */\n      iszero\n      tag_93\n      jumpi\n        /* \"#utility.yul\":1298:1377   */\n      tag_94\n      tag_95\n      jump\t// in\n    tag_94:\n        /* \"#utility.yul\":1262:1379   */\n    tag_93:\n        /* \"#utility.yul\":1403:1466   */\n      tag_96\n        /* \"#utility.yul\":1458:1465   */\n      dup7\n        /* \"#utility.yul\":1449:1455   */\n      dup3\n        /* \"#utility.yul\":1438:1447   */\n      dup8\n        /* \"#utility.yul\":1434:1456   */\n      add\n        /* \"#utility.yul\":1403:1466   */\n      tag_79\n      jump\t// in\n    tag_96:\n        /* \"#utility.yul\":1393:1466   */\n      swap4\n      pop\n        /* \"#utility.yul\":1189:1476   */\n      pop\n        /* \"#utility.yul\":1543:1545   */\n      0x20\n        /* \"#utility.yul\":1532:1541   */\n      dup5\n        /* \"#utility.yul\":1528:1546   */\n      add\n        /* \"#utility.yul\":1515:1547   */\n      calldataload\n        /* \"#utility.yul\":1574:1592   */\n      0xffffffffffffffff\n        /* \"#utility.yul\":1566:1572   */\n      dup2\n        /* \"#utility.yul\":1563:1593   */\n      gt\n        /* \"#utility.yul\":1560:1677   */\n      iszero\n      tag_97\n      jumpi\n        /* \"#utility.yul\":1596:1675   */\n      tag_98\n      tag_95\n      jump\t// in\n    tag_98:\n        /* \"#utility.yul\":1560:1677   */\n    tag_97:\n        /* \"#utility.yul\":1701:1764   */\n      tag_99\n        /* \"#utility.yul\":1756:1763   */\n      dup7\n        /* \"#utility.yul\":1747:1753   */\n      dup3\n        /* \"#utility.yul\":1736:1745   */\n      dup8\n        /* \"#utility.yul\":1732:1754   */\n      add\n        /* \"#utility.yul\":1701:1764   */\n      tag_79\n      jump\t// in\n    tag_99:\n        /* \"#utility.yul\":1691:1764   */\n      swap3\n      pop\n        /* \"#utility.yul\":1486:1774   */\n      pop\n        /* \"#utility.yul\":1813:1815   */\n      0x40\n        /* \"#utility.yul\":1839:1892   */\n      tag_100\n        /* \"#utility.yul\":1884:1891   */\n      dup7\n        /* \"#utility.yul\":1875:1881   */\n      dup3\n        /* \"#utility.yul\":1864:1873   */\n      dup8\n        /* \"#utility.yul\":1860:1882   */\n      add\n        /* \"#utility.yul\":1839:1892   */\n      tag_85\n      jump\t// in\n    tag_100:\n        /* \"#utility.yul\":1829:1892   */\n      swap2\n      pop\n        /* \"#utility.yul\":1784:1902   */\n      pop\n        /* \"#utility.yul\":930:1909   */\n      swap3\n      pop\n      swap3\n      pop\n      swap3\n      jump\t// out\n        /* \"#utility.yul\":1915:2244   */\n    tag_12:\n        /* \"#utility.yul\":1974:1980   */\n      0x00\n        /* \"#utility.yul\":2023:2025   */\n      0x20\n        /* \"#utility.yul\":2011:2020   */\n      dup3\n        /* \"#utility.yul\":2002:2009   */\n      dup5\n        /* \"#utility.yul\":1998:2021   */\n      sub\n        /* \"#utility.yul\":1994:2026   */\n      slt\n        /* \"#utility.yul\":1991:2110   */\n      iszero\n      tag_102\n      jumpi\n        /* \"#utility.yul\":2029:2108   */\n      tag_103\n      tag_92\n      jump\t// in\n    tag_103:\n        /* \"#utility.yul\":1991:2110   */\n    tag_102:\n        /* \"#utility.yul\":2149:2150   */\n      0x00\n        /* \"#utility.yul\":2174:2227   */\n      tag_104\n        /* \"#utility.yul\":2219:2226   */\n      dup5\n        /* \"#utility.yul\":2210:2216   */\n      dup3\n        /* \"#utility.yul\":2199:2208   */\n      dup6\n        /* \"#utility.yul\":2195:2217   */\n      add\n        /* \"#utility.yul\":2174:2227   */\n      tag_85\n      jump\t// in\n    tag_104:\n        /* \"#utility.yul\":2164:2227   */\n      swap2\n      pop\n        /* \"#utility.yul\":2120:2237   */\n      pop\n        /* \"#utility.yul\":1915:2244   */\n      swap3\n      swap2\n      pop\n      pop\n      jump\t// out\n        /* \"#utility.yul\":2250:2358   */\n    tag_105:\n        /* \"#utility.yul\":2327:2351   */\n      tag_107\n        /* \"#utility.yul\":2345:2350   */\n      dup2\n        /* \"#utility.yul\":2327:2351   */\n      tag_108\n      jump\t// in\n    tag_107:\n        /* \"#utility.yul\":2322:2325   */\n      dup3\n        /* \"#utility.yul\":2315:2352   */\n      mstore\n        /* \"#utility.yul\":2250:2358   */\n      pop\n      pop\n      jump\t// out\n        /* \"#utility.yul\":2364:2463   */\n    tag_109:\n        /* \"#utility.yul\":2435:2456   */\n      tag_111\n        /* \"#utility.yul\":2450:2455   */\n      dup2\n        /* \"#utility.yul\":2435:2456   */\n      tag_112\n      jump\t// in\n    tag_111:\n        /* \"#utility.yul\":2430:2433   */\n      dup3\n        /* \"#utility.yul\":2423:2457   */\n      mstore\n        /* \"#utility.yul\":2364:2463   */\n      pop\n      pop\n      jump\t// out\n        /* \"#utility.yul\":2469:2606   */\n    tag_113:\n        /* \"#utility.yul\":2554:2599   */\n      tag_115\n        /* \"#utility.yul\":2593:2598   */\n      dup2\n        /* \"#utility.yul\":2554:2599   */\n      tag_116\n      jump\t// in\n    tag_115:\n        /* \"#utility.yul\":2549:2552   */\n      dup3\n        /* \"#utility.yul\":2542:2600   */\n      mstore\n        /* \"#utility.yul\":2469:2606   */\n      pop\n      pop\n      jump\t// out\n        /* \"#utility.yul\":2636:3418   */\n    tag_117:\n        /* \"#utility.yul\":2711:2714   */\n      0x00\n        /* \"#utility.yul\":2748:2753   */\n      dup2\n        /* \"#utility.yul\":2742:2754   */\n      sload\n        /* \"#utility.yul\":2777:2813   */\n      tag_119\n        /* \"#utility.yul\":2803:2812   */\n      dup2\n        /* \"#utility.yul\":2777:2813   */\n      tag_57\n      jump\t// in\n    tag_119:\n        /* \"#utility.yul\":2829:2890   */\n      tag_120\n        /* \"#utility.yul\":2883:2889   */\n      dup2\n        /* \"#utility.yul\":2878:2881   */\n      dup7\n        /* \"#utility.yul\":2829:2890   */\n      tag_121\n      jump\t// in\n    tag_120:\n        /* \"#utility.yul\":2822:2890   */\n      swap5\n      pop\n        /* \"#utility.yul\":2921:2922   */\n      0x01\n        /* \"#utility.yul\":2910:2919   */\n      dup3\n        /* \"#utility.yul\":2906:2923   */\n      and\n        /* \"#utility.yul\":2937:2938   */\n      0x00\n        /* \"#utility.yul\":2932:3067   */\n      dup2\n      eq\n      tag_123\n      jumpi\n        /* \"#utility.yul\":3081:3082   */\n      0x01\n        /* \"#utility.yul\":3076:3412   */\n      dup2\n      eq\n      tag_124\n      jumpi\n        /* \"#utility.yul\":2899:3412   */\n      jump(tag_122)\n        /* \"#utility.yul\":2932:3067   */\n    tag_123:\n        /* \"#utility.yul\":3016:3020   */\n      0xff\n        /* \"#utility.yul\":3012:3021   */\n      not\n        /* \"#utility.yul\":3001:3010   */\n      dup4\n        /* \"#utility.yul\":2997:3022   */\n      and\n        /* \"#utility.yul\":2992:2995   */\n      dup7\n        /* \"#utility.yul\":2985:3023   */\n      mstore\n        /* \"#utility.yul\":3052:3056   */\n      0x20\n        /* \"#utility.yul\":3047:3050   */\n      dup7\n        /* \"#utility.yul\":3043:3057   */\n      add\n        /* \"#utility.yul\":3036:3057   */\n      swap4\n      pop\n        /* \"#utility.yul\":2932:3067   */\n      jump(tag_122)\n        /* \"#utility.yul\":3076:3412   */\n    tag_124:\n        /* \"#utility.yul\":3143:3181   */\n      tag_125\n        /* \"#utility.yul\":3175:3180   */\n      dup6\n        /* \"#utility.yul\":3143:3181   */\n      tag_126\n      jump\t// in\n    tag_125:\n        /* \"#utility.yul\":3203:3204   */\n      0x00\n        /* \"#utility.yul\":3217:3371   */\n    tag_127:\n        /* \"#utility.yul\":3231:3237   */\n      dup4\n        /* \"#utility.yul\":3228:3229   */\n      dup2\n        /* \"#utility.yul\":3225:3238   */\n      lt\n        /* \"#utility.yul\":3217:3371   */\n      iszero\n      tag_129\n      jumpi\n        /* \"#utility.yul\":3305:3312   */\n      dup2\n        /* \"#utility.yul\":3299:3313   */\n      sload\n        /* \"#utility.yul\":3295:3296   */\n      dup2\n        /* \"#utility.yul\":3290:3293   */\n      dup10\n        /* \"#utility.yul\":3286:3297   */\n      add\n        /* \"#utility.yul\":3279:3314   */\n      mstore\n        /* \"#utility.yul\":3355:3356   */\n      0x01\n        /* \"#utility.yul\":3346:3353   */\n      dup3\n        /* \"#utility.yul\":3342:3357   */\n      add\n        /* \"#utility.yul\":3331:3357   */\n      swap2\n      pop\n        /* \"#utility.yul\":3253:3257   */\n      0x20\n        /* \"#utility.yul\":3250:3251   */\n      dup2\n        /* \"#utility.yul\":3246:3258   */\n      add\n        /* \"#utility.yul\":3241:3258   */\n      swap1\n      pop\n        /* \"#utility.yul\":3217:3371   */\n      jump(tag_127)\n    tag_129:\n        /* \"#utility.yul\":3400:3401   */\n      dup1\n        /* \"#utility.yul\":3395:3398   */\n      dup9\n        /* \"#utility.yul\":3391:3402   */\n      add\n        /* \"#utility.yul\":3384:3402   */\n      swap6\n      pop\n        /* \"#utility.yul\":3083:3412   */\n      pop\n      pop\n        /* \"#utility.yul\":2899:3412   */\n    tag_122:\n      pop\n        /* \"#utility.yul\":2715:3418   */\n      pop\n      pop\n        /* \"#utility.yul\":2636:3418   */\n      swap3\n      swap2\n      pop\n      pop\n      jump\t// out\n        /* \"#utility.yul\":3424:3790   */\n    tag_130:\n        /* \"#utility.yul\":3566:3569   */\n      0x00\n        /* \"#utility.yul\":3587:3654   */\n      tag_132\n        /* \"#utility.yul\":3651:3653   */\n      0x21\n        /* \"#utility.yul\":3646:3649   */\n      dup4\n        /* \"#utility.yul\":3587:3654   */\n      tag_133\n      jump\t// in\n    tag_132:\n        /* \"#utility.yul\":3580:3654   */\n      swap2\n      pop\n        /* \"#utility.yul\":3663:3756   */\n      tag_134\n        /* \"#utility.yul\":3752:3755   */\n      dup3\n        /* \"#utility.yul\":3663:3756   */\n      tag_135\n      jump\t// in\n    tag_134:\n        /* \"#utility.yul\":3781:3783   */\n      0x40\n        /* \"#utility.yul\":3776:3779   */\n      dup3\n        /* \"#utility.yul\":3772:3784   */\n      add\n        /* \"#utility.yul\":3765:3784   */\n      swap1\n      pop\n        /* \"#utility.yul\":3424:3790   */\n      swap2\n      swap1\n      pop\n      jump\t// out\n        /* \"#utility.yul\":3796:4162   */\n    tag_136:\n        /* \"#utility.yul\":3938:3941   */\n      0x00\n        /* \"#utility.yul\":3959:4026   */\n      tag_138\n        /* \"#utility.yul\":4023:4025   */\n      0x3e\n        /* \"#utility.yul\":4018:4021   */\n      dup4\n        /* \"#utility.yul\":3959:4026   */\n      tag_133\n      jump\t// in\n    tag_138:\n        /* \"#utility.yul\":3952:4026   */\n      swap2\n      pop\n        /* \"#utility.yul\":4035:4128   */\n      tag_139\n        /* \"#utility.yul\":4124:4127   */\n      dup3\n        /* \"#utility.yul\":4035:4128   */\n      tag_140\n      jump\t// in\n    tag_139:\n        /* \"#utility.yul\":4153:4155   */\n      0x40\n        /* \"#utility.yul\":4148:4151   */\n      dup3\n        /* \"#utility.yul\":4144:4156   */\n      add\n        /* \"#utility.yul\":4137:4156   */\n      swap1\n      pop\n        /* \"#utility.yul\":3796:4162   */\n      swap2\n      swap1\n      pop\n      jump\t// out\n        /* \"#utility.yul\":4168:4534   */\n    tag_141:\n        /* \"#utility.yul\":4310:4313   */\n      0x00\n        /* \"#utility.yul\":4331:4398   */\n      tag_143\n        /* \"#utility.yul\":4395:4397   */\n      0x15\n        /* \"#utility.yul\":4390:4393   */\n      dup4\n        /* \"#utility.yul\":4331:4398   */\n      tag_133\n      jump\t// in\n    tag_143:\n        /* \"#utility.yul\":4324:4398   */\n      swap2\n      pop\n        /* \"#utility.yul\":4407:4500   */\n      tag_144\n        /* \"#utility.yul\":4496:4499   */\n      dup3\n        /* \"#utility.yul\":4407:4500   */\n      tag_145\n      jump\t// in\n    tag_144:\n        /* \"#utility.yul\":4525:4527   */\n      0x20\n        /* \"#utility.yul\":4520:4523   */\n      dup3\n        /* \"#utility.yul\":4516:4528   */\n      add\n        /* \"#utility.yul\":4509:4528   */\n      swap1\n      pop\n        /* \"#utility.yul\":4168:4534   */\n      swap2\n      swap1\n      pop\n      jump\t// out\n        /* \"#utility.yul\":4540:4906   */\n    tag_146:\n        /* \"#utility.yul\":4682:4685   */\n      0x00\n        /* \"#utility.yul\":4703:4770   */\n      tag_148\n        /* \"#utility.yul\":4767:4769   */\n      0x38\n        /* \"#utility.yul\":4762:4765   */\n      dup4\n        /* \"#utility.yul\":4703:4770   */\n      tag_133\n      jump\t// in\n    tag_148:\n        /* \"#utility.yul\":4696:4770   */\n      swap2\n      pop\n        /* \"#utility.yul\":4779:4872   */\n      tag_149\n        /* \"#utility.yul\":4868:4871   */\n      dup3\n        /* \"#utility.yul\":4779:4872   */\n      tag_150\n      jump\t// in\n    tag_149:\n        /* \"#utility.yul\":4897:4899   */\n      0x40\n        /* \"#utility.yul\":4892:4895   */\n      dup3\n        /* \"#utility.yul\":4888:4900   */\n      add\n        /* \"#utility.yul\":4881:4900   */\n      swap1\n      pop\n        /* \"#utility.yul\":4540:4906   */\n      swap2\n      swap1\n      pop\n      jump\t// out\n        /* \"#utility.yul\":4968:7665   */\n    tag_151:\n        /* \"#utility.yul\":5086:5089   */\n      0x00\n        /* \"#utility.yul\":5122:5128   */\n      0x0140\n        /* \"#utility.yul\":5117:5120   */\n      dup4\n        /* \"#utility.yul\":5113:5129   */\n      add\n        /* \"#utility.yul\":5155:5156   */\n      0x00\n        /* \"#utility.yul\":5235:5239   */\n      dup1\n        /* \"#utility.yul\":5228:5233   */\n      dup5\n        /* \"#utility.yul\":5224:5240   */\n      add\n        /* \"#utility.yul\":5218:5241   */\n      sload\n        /* \"#utility.yul\":5205:5241   */\n      swap1\n      pop\n        /* \"#utility.yul\":5274:5329   */\n      tag_153\n        /* \"#utility.yul\":5319:5328   */\n      dup2\n        /* \"#utility.yul\":5274:5329   */\n      tag_154\n      jump\t// in\n    tag_153:\n        /* \"#utility.yul\":5342:5405   */\n      tag_155\n        /* \"#utility.yul\":5399:5403   */\n      0x00\n        /* \"#utility.yul\":5394:5397   */\n      dup8\n        /* \"#utility.yul\":5390:5404   */\n      add\n        /* \"#utility.yul\":5376:5388   */\n      dup3\n        /* \"#utility.yul\":5342:5405   */\n      tag_156\n      jump\t// in\n    tag_155:\n        /* \"#utility.yul\":5166:5415   */\n      pop\n        /* \"#utility.yul\":5492:5496   */\n      0x01\n        /* \"#utility.yul\":5485:5490   */\n      dup5\n        /* \"#utility.yul\":5481:5497   */\n      add\n        /* \"#utility.yul\":5544:5547   */\n      dup6\n        /* \"#utility.yul\":5538:5542   */\n      dup4\n        /* \"#utility.yul\":5534:5548   */\n      sub\n        /* \"#utility.yul\":5527:5531   */\n      0x20\n        /* \"#utility.yul\":5522:5525   */\n      dup8\n        /* \"#utility.yul\":5518:5532   */\n      add\n        /* \"#utility.yul\":5511:5549   */\n      mstore\n        /* \"#utility.yul\":5570:5640   */\n      tag_157\n        /* \"#utility.yul\":5635:5639   */\n      dup4\n        /* \"#utility.yul\":5621:5633   */\n      dup3\n        /* \"#utility.yul\":5570:5640   */\n      tag_117\n      jump\t// in\n    tag_157:\n        /* \"#utility.yul\":5562:5640   */\n      swap3\n      pop\n        /* \"#utility.yul\":5425:5651   */\n      pop\n        /* \"#utility.yul\":5734:5738   */\n      0x02\n        /* \"#utility.yul\":5727:5732   */\n      dup5\n        /* \"#utility.yul\":5723:5739   */\n      add\n        /* \"#utility.yul\":5786:5789   */\n      dup6\n        /* \"#utility.yul\":5780:5784   */\n      dup4\n        /* \"#utility.yul\":5776:5790   */\n      sub\n        /* \"#utility.yul\":5769:5773   */\n      0x40\n        /* \"#utility.yul\":5764:5767   */\n      dup8\n        /* \"#utility.yul\":5760:5774   */\n      add\n        /* \"#utility.yul\":5753:5791   */\n      mstore\n        /* \"#utility.yul\":5812:5882   */\n      tag_158\n        /* \"#utility.yul\":5877:5881   */\n      dup4\n        /* \"#utility.yul\":5863:5875   */\n      dup3\n        /* \"#utility.yul\":5812:5882   */\n      tag_117\n      jump\t// in\n    tag_158:\n        /* \"#utility.yul\":5804:5882   */\n      swap3\n      pop\n        /* \"#utility.yul\":5661:5893   */\n      pop\n        /* \"#utility.yul\":5968:5972   */\n      0x03\n        /* \"#utility.yul\":5961:5966   */\n      dup5\n        /* \"#utility.yul\":5957:5973   */\n      add\n        /* \"#utility.yul\":5951:5974   */\n      sload\n        /* \"#utility.yul\":5938:5974   */\n      swap1\n      pop\n        /* \"#utility.yul\":6007:6062   */\n      tag_159\n        /* \"#utility.yul\":6052:6061   */\n      dup2\n        /* \"#utility.yul\":6007:6062   */\n      tag_154\n      jump\t// in\n    tag_159:\n        /* \"#utility.yul\":6075:6138   */\n      tag_160\n        /* \"#utility.yul\":6132:6136   */\n      0x60\n        /* \"#utility.yul\":6127:6130   */\n      dup8\n        /* \"#utility.yul\":6123:6137   */\n      add\n        /* \"#utility.yul\":6109:6121   */\n      dup3\n        /* \"#utility.yul\":6075:6138   */\n      tag_156\n      jump\t// in\n    tag_160:\n        /* \"#utility.yul\":5903:6148   */\n      pop\n        /* \"#utility.yul\":6234:6238   */\n      0x04\n        /* \"#utility.yul\":6227:6232   */\n      dup5\n        /* \"#utility.yul\":6223:6239   */\n      add\n        /* \"#utility.yul\":6217:6240   */\n      sload\n        /* \"#utility.yul\":6204:6240   */\n      swap1\n      pop\n        /* \"#utility.yul\":6273:6328   */\n      tag_161\n        /* \"#utility.yul\":6318:6327   */\n      dup2\n        /* \"#utility.yul\":6273:6328   */\n      tag_154\n      jump\t// in\n    tag_161:\n        /* \"#utility.yul\":6341:6404   */\n      tag_162\n        /* \"#utility.yul\":6398:6402   */\n      0x80\n        /* \"#utility.yul\":6393:6396   */\n      dup8\n        /* \"#utility.yul\":6389:6403   */\n      add\n        /* \"#utility.yul\":6375:6387   */\n      dup3\n        /* \"#utility.yul\":6341:6404   */\n      tag_156\n      jump\t// in\n    tag_162:\n        /* \"#utility.yul\":6158:6414   */\n      pop\n        /* \"#utility.yul\":6497:6501   */\n      0x05\n        /* \"#utility.yul\":6490:6495   */\n      dup5\n        /* \"#utility.yul\":6486:6502   */\n      add\n        /* \"#utility.yul\":6480:6503   */\n      sload\n        /* \"#utility.yul\":6467:6503   */\n      swap1\n      pop\n        /* \"#utility.yul\":6536:6591   */\n      tag_163\n        /* \"#utility.yul\":6581:6590   */\n      dup2\n        /* \"#utility.yul\":6536:6591   */\n      tag_154\n      jump\t// in\n    tag_163:\n        /* \"#utility.yul\":6604:6667   */\n      tag_164\n        /* \"#utility.yul\":6661:6665   */\n      0xa0\n        /* \"#utility.yul\":6656:6659   */\n      dup8\n        /* \"#utility.yul\":6652:6666   */\n      add\n        /* \"#utility.yul\":6638:6650   */\n      dup3\n        /* \"#utility.yul\":6604:6667   */\n      tag_156\n      jump\t// in\n    tag_164:\n        /* \"#utility.yul\":6424:6677   */\n      pop\n        /* \"#utility.yul\":6762:6766   */\n      0x06\n        /* \"#utility.yul\":6755:6760   */\n      dup5\n        /* \"#utility.yul\":6751:6767   */\n      add\n        /* \"#utility.yul\":6745:6768   */\n      sload\n        /* \"#utility.yul\":6732:6768   */\n      swap1\n      pop\n        /* \"#utility.yul\":6801:6856   */\n      tag_165\n        /* \"#utility.yul\":6846:6855   */\n      dup2\n        /* \"#utility.yul\":6801:6856   */\n      tag_166\n      jump\t// in\n    tag_165:\n        /* \"#utility.yul\":6869:6932   */\n      tag_167\n        /* \"#utility.yul\":6926:6930   */\n      0xc0\n        /* \"#utility.yul\":6921:6924   */\n      dup8\n        /* \"#utility.yul\":6917:6931   */\n      add\n        /* \"#utility.yul\":6903:6915   */\n      dup3\n        /* \"#utility.yul\":6869:6932   */\n      tag_105\n      jump\t// in\n    tag_167:\n        /* \"#utility.yul\":6687:6942   */\n      pop\n        /* \"#utility.yul\":7028:7032   */\n      0x07\n        /* \"#utility.yul\":7021:7026   */\n      dup5\n        /* \"#utility.yul\":7017:7033   */\n      add\n        /* \"#utility.yul\":7011:7034   */\n      sload\n        /* \"#utility.yul\":6998:7034   */\n      swap1\n      pop\n        /* \"#utility.yul\":7067:7122   */\n      tag_168\n        /* \"#utility.yul\":7112:7121   */\n      dup2\n        /* \"#utility.yul\":7067:7122   */\n      tag_166\n      jump\t// in\n    tag_168:\n        /* \"#utility.yul\":7135:7198   */\n      tag_169\n        /* \"#utility.yul\":7192:7196   */\n      0xe0\n        /* \"#utility.yul\":7187:7190   */\n      dup8\n        /* \"#utility.yul\":7183:7197   */\n      add\n        /* \"#utility.yul\":7169:7181   */\n      dup3\n        /* \"#utility.yul\":7135:7198   */\n      tag_105\n      jump\t// in\n    tag_169:\n        /* \"#utility.yul\":6952:7208   */\n      pop\n        /* \"#utility.yul\":7274:7327   */\n      tag_170\n        /* \"#utility.yul\":7317:7326   */\n      dup2\n        /* \"#utility.yul\":7274:7327   */\n      tag_171\n      jump\t// in\n    tag_170:\n        /* \"#utility.yul\":7340:7399   */\n      tag_172\n        /* \"#utility.yul\":7391:7397   */\n      0x0100\n        /* \"#utility.yul\":7386:7389   */\n      dup8\n        /* \"#utility.yul\":7382:7398   */\n      add\n        /* \"#utility.yul\":7368:7380   */\n      dup3\n        /* \"#utility.yul\":7340:7399   */\n      tag_109\n      jump\t// in\n    tag_172:\n        /* \"#utility.yul\":7218:7409   */\n      pop\n        /* \"#utility.yul\":7476:7542   */\n      tag_173\n        /* \"#utility.yul\":7532:7541   */\n      dup2\n        /* \"#utility.yul\":7476:7542   */\n      tag_174\n      jump\t// in\n    tag_173:\n        /* \"#utility.yul\":7555:7628   */\n      tag_175\n        /* \"#utility.yul\":7620:7626   */\n      0x0120\n        /* \"#utility.yul\":7615:7618   */\n      dup8\n        /* \"#utility.yul\":7611:7627   */\n      add\n        /* \"#utility.yul\":7597:7609   */\n      dup3\n        /* \"#utility.yul\":7555:7628   */\n      tag_113\n      jump\t// in\n    tag_175:\n        /* \"#utility.yul\":7419:7638   */\n      pop\n        /* \"#utility.yul\":7655:7659   */\n      dup2\n        /* \"#utility.yul\":7648:7659   */\n      swap3\n      pop\n        /* \"#utility.yul\":5091:7665   */\n      pop\n      pop\n        /* \"#utility.yul\":4968:7665   */\n      swap3\n      swap2\n      pop\n      pop\n      jump\t// out\n        /* \"#utility.yul\":7671:7779   */\n    tag_156:\n        /* \"#utility.yul\":7748:7772   */\n      tag_177\n        /* \"#utility.yul\":7766:7771   */\n      dup2\n        /* \"#utility.yul\":7748:7772   */\n      tag_178\n      jump\t// in\n    tag_177:\n        /* \"#utility.yul\":7743:7746   */\n      dup3\n        /* \"#utility.yul\":7736:7773   */\n      mstore\n        /* \"#utility.yul\":7671:7779   */\n      pop\n      pop\n      jump\t// out\n        /* \"#utility.yul\":7785:7903   */\n    tag_179:\n        /* \"#utility.yul\":7872:7896   */\n      tag_181\n        /* \"#utility.yul\":7890:7895   */\n      dup2\n        /* \"#utility.yul\":7872:7896   */\n      tag_178\n      jump\t// in\n    tag_181:\n        /* \"#utility.yul\":7867:7870   */\n      dup3\n        /* \"#utility.yul\":7860:7897   */\n      mstore\n        /* \"#utility.yul\":7785:7903   */\n      pop\n      pop\n      jump\t// out\n        /* \"#utility.yul\":7909:8328   */\n    tag_46:\n        /* \"#utility.yul\":8075:8079   */\n      0x00\n        /* \"#utility.yul\":8113:8115   */\n      0x20\n        /* \"#utility.yul\":8102:8111   */\n      dup3\n        /* \"#utility.yul\":8098:8116   */\n      add\n        /* \"#utility.yul\":8090:8116   */\n      swap1\n      pop\n        /* \"#utility.yul\":8162:8171   */\n      dup2\n        /* \"#utility.yul\":8156:8160   */\n      dup2\n        /* \"#utility.yul\":8152:8172   */\n      sub\n        /* \"#utility.yul\":8148:8149   */\n      0x00\n        /* \"#utility.yul\":8137:8146   */\n      dup4\n        /* \"#utility.yul\":8133:8150   */\n      add\n        /* \"#utility.yul\":8126:8173   */\n      mstore\n        /* \"#utility.yul\":8190:8321   */\n      tag_183\n        /* \"#utility.yul\":8316:8320   */\n      dup2\n        /* \"#utility.yul\":8190:8321   */\n      tag_130\n      jump\t// in\n    tag_183:\n        /* \"#utility.yul\":8182:8321   */\n      swap1\n      pop\n        /* \"#utility.yul\":7909:8328   */\n      swap2\n      swap1\n      pop\n      jump\t// out\n        /* \"#utility.yul\":8334:8753   */\n    tag_31:\n        /* \"#utility.yul\":8500:8504   */\n      0x00\n        /* \"#utility.yul\":8538:8540   */\n      0x20\n        /* \"#utility.yul\":8527:8536   */\n      dup3\n        /* \"#utility.yul\":8523:8541   */\n      add\n        /* \"#utility.yul\":8515:8541   */\n      swap1\n      pop\n        /* \"#utility.yul\":8587:8596   */\n      dup2\n        /* \"#utility.yul\":8581:8585   */\n      dup2\n        /* \"#utility.yul\":8577:8597   */\n      sub\n        /* \"#utility.yul\":8573:8574   */\n      0x00\n        /* \"#utility.yul\":8562:8571   */\n      dup4\n        /* \"#utility.yul\":8558:8575   */\n      add\n        /* \"#utility.yul\":8551:8598   */\n      mstore\n        /* \"#utility.yul\":8615:8746   */\n      tag_185\n        /* \"#utility.yul\":8741:8745   */\n      dup2\n        /* \"#utility.yul\":8615:8746   */\n      tag_136\n      jump\t// in\n    tag_185:\n        /* \"#utility.yul\":8607:8746   */\n      swap1\n      pop\n        /* \"#utility.yul\":8334:8753   */\n      swap2\n      swap1\n      pop\n      jump\t// out\n        /* \"#utility.yul\":8759:9178   */\n    tag_39:\n        /* \"#utility.yul\":8925:8929   */\n      0x00\n        /* \"#utility.yul\":8963:8965   */\n      0x20\n        /* \"#utility.yul\":8952:8961   */\n      dup3\n        /* \"#utility.yul\":8948:8966   */\n      add\n        /* \"#utility.yul\":8940:8966   */\n      swap1\n      pop\n        /* \"#utility.yul\":9012:9021   */\n      dup2\n        /* \"#utility.yul\":9006:9010   */\n      dup2\n        /* \"#utility.yul\":9002:9022   */\n      sub\n        /* \"#utility.yul\":8998:8999   */\n      0x00\n        /* \"#utility.yul\":8987:8996   */\n      dup4\n        /* \"#utility.yul\":8983:9000   */\n      add\n        /* \"#utility.yul\":8976:9023   */\n      mstore\n        /* \"#utility.yul\":9040:9171   */\n      tag_187\n        /* \"#utility.yul\":9166:9170   */\n      dup2\n        /* \"#utility.yul\":9040:9171   */\n      tag_141\n      jump\t// in\n    tag_187:\n        /* \"#utility.yul\":9032:9171   */\n      swap1\n      pop\n        /* \"#utility.yul\":8759:9178   */\n      swap2\n      swap1\n      pop\n      jump\t// out\n        /* \"#utility.yul\":9184:9603   */\n    tag_22:\n        /* \"#utility.yul\":9350:9354   */\n      0x00\n        /* \"#utility.yul\":9388:9390   */\n      0x20\n        /* \"#utility.yul\":9377:9386   */\n      dup3\n        /* \"#utility.yul\":9373:9391   */\n      add\n        /* \"#utility.yul\":9365:9391   */\n      swap1\n      pop\n        /* \"#utility.yul\":9437:9446   */\n      dup2\n        /* \"#utility.yul\":9431:9435   */\n      dup2\n        /* \"#utility.yul\":9427:9447   */\n      sub\n        /* \"#utility.yul\":9423:9424   */\n      0x00\n        /* \"#utility.yul\":9412:9421   */\n      dup4\n        /* \"#utility.yul\":9408:9425   */\n      add\n        /* \"#utility.yul\":9401:9448   */\n      mstore\n        /* \"#utility.yul\":9465:9596   */\n      tag_189\n        /* \"#utility.yul\":9591:9595   */\n      dup2\n        /* \"#utility.yul\":9465:9596   */\n      tag_146\n      jump\t// in\n    tag_189:\n        /* \"#utility.yul\":9457:9596   */\n      swap1\n      pop\n        /* \"#utility.yul\":9184:9603   */\n      swap2\n      swap1\n      pop\n      jump\t// out\n        /* \"#utility.yul\":9609:9831   */\n    tag_9:\n        /* \"#utility.yul\":9702:9706   */\n      0x00\n        /* \"#utility.yul\":9740:9742   */\n      0x20\n        /* \"#utility.yul\":9729:9738   */\n      dup3\n        /* \"#utility.yul\":9725:9743   */\n      add\n        /* \"#utility.yul\":9717:9743   */\n      swap1\n      pop\n        /* \"#utility.yul\":9753:9824   */\n      tag_191\n        /* \"#utility.yul\":9821:9822   */\n      0x00\n        /* \"#utility.yul\":9810:9819   */\n      dup4\n        /* \"#utility.yul\":9806:9823   */\n      add\n        /* \"#utility.yul\":9797:9803   */\n      dup5\n        /* \"#utility.yul\":9753:9824   */\n      tag_179\n      jump\t// in\n    tag_191:\n        /* \"#utility.yul\":9609:9831   */\n      swap3\n      swap2\n      pop\n      pop\n      jump\t// out\n        /* \"#utility.yul\":9837:10318   */\n    tag_53:\n        /* \"#utility.yul\":10007:10011   */\n      0x00\n        /* \"#utility.yul\":10045:10047   */\n      0x40\n        /* \"#utility.yul\":10034:10043   */\n      dup3\n        /* \"#utility.yul\":10030:10048   */\n      add\n        /* \"#utility.yul\":10022:10048   */\n      swap1\n      pop\n        /* \"#utility.yul\":10058:10129   */\n      tag_193\n        /* \"#utility.yul\":10126:10127   */\n      0x00\n        /* \"#utility.yul\":10115:10124   */\n      dup4\n        /* \"#utility.yul\":10111:10128   */\n      add\n        /* \"#utility.yul\":10102:10108   */\n      dup6\n        /* \"#utility.yul\":10058:10129   */\n      tag_179\n      jump\t// in\n    tag_193:\n        /* \"#utility.yul\":10176:10185   */\n      dup2\n        /* \"#utility.yul\":10170:10174   */\n      dup2\n        /* \"#utility.yul\":10166:10186   */\n      sub\n        /* \"#utility.yul\":10161:10163   */\n      0x20\n        /* \"#utility.yul\":10150:10159   */\n      dup4\n        /* \"#utility.yul\":10146:10164   */\n      add\n        /* \"#utility.yul\":10139:10187   */\n      mstore\n        /* \"#utility.yul\":10204:10311   */\n      tag_194\n        /* \"#utility.yul\":10306:10310   */\n      dup2\n        /* \"#utility.yul\":10297:10303   */\n      dup5\n        /* \"#utility.yul\":10204:10311   */\n      tag_151\n      jump\t// in\n    tag_194:\n        /* \"#utility.yul\":10196:10311   */\n      swap1\n      pop\n        /* \"#utility.yul\":9837:10318   */\n      swap4\n      swap3\n      pop\n      pop\n      pop\n      jump\t// out\n        /* \"#utility.yul\":10324:10453   */\n    tag_73:\n        /* \"#utility.yul\":10358:10364   */\n      0x00\n        /* \"#utility.yul\":10385:10405   */\n      tag_196\n      tag_197\n      jump\t// in\n    tag_196:\n        /* \"#utility.yul\":10375:10405   */\n      swap1\n      pop\n        /* \"#utility.yul\":10414:10447   */\n      tag_198\n        /* \"#utility.yul\":10442:10446   */\n      dup3\n        /* \"#utility.yul\":10434:10440   */\n      dup3\n        /* \"#utility.yul\":10414:10447   */\n      tag_199\n      jump\t// in\n    tag_198:\n        /* \"#utility.yul\":10324:10453   */\n      swap2\n      swap1\n      pop\n      jump\t// out\n        /* \"#utility.yul\":10459:10534   */\n    tag_197:\n        /* \"#utility.yul\":10492:10498   */\n      0x00\n        /* \"#utility.yul\":10525:10527   */\n      0x40\n        /* \"#utility.yul\":10519:10528   */\n      mload\n        /* \"#utility.yul\":10509:10528   */\n      swap1\n      pop\n        /* \"#utility.yul\":10459:10534   */\n      swap1\n      jump\t// out\n        /* \"#utility.yul\":10540:10848   */\n    tag_72:\n        /* \"#utility.yul\":10602:10606   */\n      0x00\n        /* \"#utility.yul\":10692:10710   */\n      0xffffffffffffffff\n        /* \"#utility.yul\":10684:10690   */\n      dup3\n        /* \"#utility.yul\":10681:10711   */\n      gt\n        /* \"#utility.yul\":10678:10734   */\n      iszero\n      tag_202\n      jumpi\n        /* \"#utility.yul\":10714:10732   */\n      tag_203\n      tag_204\n      jump\t// in\n    tag_203:\n        /* \"#utility.yul\":10678:10734   */\n    tag_202:\n        /* \"#utility.yul\":10752:10781   */\n      tag_205\n        /* \"#utility.yul\":10774:10780   */\n      dup3\n        /* \"#utility.yul\":10752:10781   */\n      tag_206\n      jump\t// in\n    tag_205:\n        /* \"#utility.yul\":10744:10781   */\n      swap1\n      pop\n        /* \"#utility.yul\":10836:10840   */\n      0x20\n        /* \"#utility.yul\":10830:10834   */\n      dup2\n        /* \"#utility.yul\":10826:10841   */\n      add\n        /* \"#utility.yul\":10818:10841   */\n      swap1\n      pop\n        /* \"#utility.yul\":10540:10848   */\n      swap2\n      swap1\n      pop\n      jump\t// out\n        /* \"#utility.yul\":10854:10995   */\n    tag_126:\n        /* \"#utility.yul\":10903:10907   */\n      0x00\n        /* \"#utility.yul\":10926:10929   */\n      dup2\n        /* \"#utility.yul\":10918:10929   */\n      swap1\n      pop\n        /* \"#utility.yul\":10949:10952   */\n      dup2\n        /* \"#utility.yul\":10946:10947   */\n      0x00\n        /* \"#utility.yul\":10939:10953   */\n      mstore\n        /* \"#utility.yul\":10983:10987   */\n      0x20\n        /* \"#utility.yul\":10980:10981   */\n      0x00\n        /* \"#utility.yul\":10970:10988   */\n      keccak256\n        /* \"#utility.yul\":10962:10988   */\n      swap1\n      pop\n        /* \"#utility.yul\":10854:10995   */\n      swap2\n      swap1\n      pop\n      jump\t// out\n        /* \"#utility.yul\":11001:11160   */\n    tag_121:\n        /* \"#utility.yul\":11075:11086   */\n      0x00\n        /* \"#utility.yul\":11109:11115   */\n      dup3\n        /* \"#utility.yul\":11104:11107   */\n      dup3\n        /* \"#utility.yul\":11097:11116   */\n      mstore\n        /* \"#utility.yul\":11149:11153   */\n      0x20\n        /* \"#utility.yul\":11144:11147   */\n      dup3\n        /* \"#utility.yul\":11140:11154   */\n      add\n        /* \"#utility.yul\":11125:11154   */\n      swap1\n      pop\n        /* \"#utility.yul\":11001:11160   */\n      swap3\n      swap2\n      pop\n      pop\n      jump\t// out\n        /* \"#utility.yul\":11166:11335   */\n    tag_133:\n        /* \"#utility.yul\":11250:11261   */\n      0x00\n        /* \"#utility.yul\":11284:11290   */\n      dup3\n        /* \"#utility.yul\":11279:11282   */\n      dup3\n        /* \"#utility.yul\":11272:11291   */\n      mstore\n        /* \"#utility.yul\":11324:11328   */\n      0x20\n        /* \"#utility.yul\":11319:11322   */\n      dup3\n        /* \"#utility.yul\":11315:11329   */\n      add\n        /* \"#utility.yul\":11300:11329   */\n      swap1\n      pop\n        /* \"#utility.yul\":11166:11335   */\n      swap3\n      swap2\n      pop\n      pop\n      jump\t// out\n        /* \"#utility.yul\":11341:11480   */\n    tag_210:\n        /* \"#utility.yul\":11391:11398   */\n      0x00\n        /* \"#utility.yul\":11431:11473   */\n      0xffffffffffffffffffffffffffffffffffffffff\n        /* \"#utility.yul\":11424:11429   */\n      dup3\n        /* \"#utility.yul\":11420:11474   */\n      and\n        /* \"#utility.yul\":11409:11474   */\n      swap1\n      pop\n        /* \"#utility.yul\":11341:11480   */\n      swap2\n      swap1\n      pop\n      jump\t// out\n        /* \"#utility.yul\":11486:11584   */\n    tag_212:\n        /* \"#utility.yul\":11533:11540   */\n      0x00\n        /* \"#utility.yul\":11573:11577   */\n      0xff\n        /* \"#utility.yul\":11566:11571   */\n      dup3\n        /* \"#utility.yul\":11562:11578   */\n      and\n        /* \"#utility.yul\":11551:11578   */\n      swap1\n      pop\n        /* \"#utility.yul\":11486:11584   */\n      swap2\n      swap1\n      pop\n      jump\t// out\n        /* \"#utility.yul\":11590:11701   */\n    tag_214:\n        /* \"#utility.yul\":11650:11657   */\n      0x00\n        /* \"#utility.yul\":11690:11694   */\n      0xff\n        /* \"#utility.yul\":11683:11688   */\n      dup3\n        /* \"#utility.yul\":11679:11695   */\n      and\n        /* \"#utility.yul\":11668:11695   */\n      swap1\n      pop\n        /* \"#utility.yul\":11590:11701   */\n      swap2\n      swap1\n      pop\n      jump\t// out\n        /* \"#utility.yul\":11707:11797   */\n    tag_216:\n        /* \"#utility.yul\":11757:11764   */\n      0x00\n        /* \"#utility.yul\":11786:11791   */\n      dup2\n        /* \"#utility.yul\":11775:11791   */\n      swap1\n      pop\n        /* \"#utility.yul\":11707:11797   */\n      swap2\n      swap1\n      pop\n      jump\t// out\n        /* \"#utility.yul\":11803:11899   */\n    tag_108:\n        /* \"#utility.yul\":11840:11847   */\n      0x00\n        /* \"#utility.yul\":11869:11893   */\n      tag_219\n        /* \"#utility.yul\":11887:11892   */\n      dup3\n        /* \"#utility.yul\":11869:11893   */\n      tag_220\n      jump\t// in\n    tag_219:\n        /* \"#utility.yul\":11858:11893   */\n      swap1\n      pop\n        /* \"#utility.yul\":11803:11899   */\n      swap2\n      swap1\n      pop\n      jump\t// out\n        /* \"#utility.yul\":11905:11995   */\n    tag_112:\n        /* \"#utility.yul\":11939:11946   */\n      0x00\n        /* \"#utility.yul\":11982:11987   */\n      dup2\n        /* \"#utility.yul\":11975:11988   */\n      iszero\n        /* \"#utility.yul\":11968:11989   */\n      iszero\n        /* \"#utility.yul\":11957:11989   */\n      swap1\n      pop\n        /* \"#utility.yul\":11905:11995   */\n      swap2\n      swap1\n      pop\n      jump\t// out\n        /* \"#utility.yul\":12001:12132   */\n    tag_222:\n        /* \"#utility.yul\":12048:12055   */\n      0x00\n        /* \"#utility.yul\":12077:12082   */\n      dup2\n        /* \"#utility.yul\":12066:12082   */\n      swap1\n      pop\n        /* \"#utility.yul\":12083:12126   */\n      tag_224\n        /* \"#utility.yul\":12120:12125   */\n      dup3\n        /* \"#utility.yul\":12083:12126   */\n      tag_225\n      jump\t// in\n    tag_224:\n        /* \"#utility.yul\":12001:12132   */\n      swap2\n      swap1\n      pop\n      jump\t// out\n        /* \"#utility.yul\":12138:12264   */\n    tag_220:\n        /* \"#utility.yul\":12175:12182   */\n      0x00\n        /* \"#utility.yul\":12215:12257   */\n      0xffffffffffffffffffffffffffffffffffffffff\n        /* \"#utility.yul\":12208:12213   */\n      dup3\n        /* \"#utility.yul\":12204:12258   */\n      and\n        /* \"#utility.yul\":12193:12258   */\n      swap1\n      pop\n        /* \"#utility.yul\":12138:12264   */\n      swap2\n      swap1\n      pop\n      jump\t// out\n        /* \"#utility.yul\":12270:12347   */\n    tag_178:\n        /* \"#utility.yul\":12307:12314   */\n      0x00\n        /* \"#utility.yul\":12336:12341   */\n      dup2\n        /* \"#utility.yul\":12325:12341   */\n      swap1\n      pop\n        /* \"#utility.yul\":12270:12347   */\n      swap2\n      swap1\n      pop\n      jump\t// out\n        /* \"#utility.yul\":12353:12484   */\n    tag_116:\n        /* \"#utility.yul\":12411:12420   */\n      0x00\n        /* \"#utility.yul\":12444:12478   */\n      tag_229\n        /* \"#utility.yul\":12472:12477   */\n      dup3\n        /* \"#utility.yul\":12444:12478   */\n      tag_222\n      jump\t// in\n    tag_229:\n        /* \"#utility.yul\":12431:12478   */\n      swap1\n      pop\n        /* \"#utility.yul\":12353:12484   */\n      swap2\n      swap1\n      pop\n      jump\t// out\n        /* \"#utility.yul\":12490:12644   */\n    tag_78:\n        /* \"#utility.yul\":12574:12580   */\n      dup3\n        /* \"#utility.yul\":12569:12572   */\n      dup2\n        /* \"#utility.yul\":12564:12567   */\n      dup4\n        /* \"#utility.yul\":12551:12581   */\n      calldatacopy\n        /* \"#utility.yul\":12636:12637   */\n      0x00\n        /* \"#utility.yul\":12627:12633   */\n      dup4\n        /* \"#utility.yul\":12622:12625   */\n      dup4\n        /* \"#utility.yul\":12618:12634   */\n      add\n        /* \"#utility.yul\":12611:12638   */\n      mstore\n        /* \"#utility.yul\":12490:12644   */\n      pop\n      pop\n      pop\n      jump\t// out\n        /* \"#utility.yul\":12650:12821   */\n    tag_34:\n        /* \"#utility.yul\":12689:12692   */\n      0x00\n        /* \"#utility.yul\":12712:12736   */\n      tag_232\n        /* \"#utility.yul\":12730:12735   */\n      dup3\n        /* \"#utility.yul\":12712:12736   */\n      tag_178\n      jump\t// in\n    tag_232:\n        /* \"#utility.yul\":12703:12736   */\n      swap2\n      pop\n        /* \"#utility.yul\":12758:12762   */\n      0x00\n        /* \"#utility.yul\":12751:12756   */\n      dup3\n        /* \"#utility.yul\":12748:12763   */\n      eq\n        /* \"#utility.yul\":12745:12786   */\n      iszero\n      tag_233\n      jumpi\n        /* \"#utility.yul\":12766:12784   */\n      tag_234\n      tag_235\n      jump\t// in\n    tag_234:\n        /* \"#utility.yul\":12745:12786   */\n    tag_233:\n        /* \"#utility.yul\":12813:12814   */\n      0x01\n        /* \"#utility.yul\":12806:12811   */\n      dup3\n        /* \"#utility.yul\":12802:12815   */\n      sub\n        /* \"#utility.yul\":12795:12815   */\n      swap1\n      pop\n        /* \"#utility.yul\":12650:12821   */\n      swap2\n      swap1\n      pop\n      jump\t// out\n        /* \"#utility.yul\":12827:13147   */\n    tag_57:\n        /* \"#utility.yul\":12871:12877   */\n      0x00\n        /* \"#utility.yul\":12908:12909   */\n      0x02\n        /* \"#utility.yul\":12902:12906   */\n      dup3\n        /* \"#utility.yul\":12898:12910   */\n      div\n        /* \"#utility.yul\":12888:12910   */\n      swap1\n      pop\n        /* \"#utility.yul\":12955:12956   */\n      0x01\n        /* \"#utility.yul\":12949:12953   */\n      dup3\n        /* \"#utility.yul\":12945:12957   */\n      and\n        /* \"#utility.yul\":12976:12994   */\n      dup1\n        /* \"#utility.yul\":12966:13047   */\n      tag_237\n      jumpi\n        /* \"#utility.yul\":13032:13036   */\n      0x7f\n        /* \"#utility.yul\":13024:13030   */\n      dup3\n        /* \"#utility.yul\":13020:13037   */\n      and\n        /* \"#utility.yul\":13010:13037   */\n      swap2\n      pop\n        /* \"#utility.yul\":12966:13047   */\n    tag_237:\n        /* \"#utility.yul\":13094:13096   */\n      0x20\n        /* \"#utility.yul\":13086:13092   */\n      dup3\n        /* \"#utility.yul\":13083:13097   */\n      lt\n        /* \"#utility.yul\":13063:13081   */\n      dup2\n        /* \"#utility.yul\":13060:13098   */\n      eq\n        /* \"#utility.yul\":13057:13141   */\n      iszero\n      tag_238\n      jumpi\n        /* \"#utility.yul\":13113:13131   */\n      tag_239\n      tag_240\n      jump\t// in\n    tag_239:\n        /* \"#utility.yul\":13057:13141   */\n    tag_238:\n        /* \"#utility.yul\":12878:13147   */\n      pop\n        /* \"#utility.yul\":12827:13147   */\n      swap2\n      swap1\n      pop\n      jump\t// out\n        /* \"#utility.yul\":13153:13319   */\n    tag_166:\n        /* \"#utility.yul\":13222:13227   */\n      0x00\n        /* \"#utility.yul\":13247:13313   */\n      tag_242\n        /* \"#utility.yul\":13278:13312   */\n      tag_243\n        /* \"#utility.yul\":13301:13311   */\n      dup4\n        /* \"#utility.yul\":13278:13312   */\n      tag_244\n      jump\t// in\n    tag_243:\n        /* \"#utility.yul\":13247:13313   */\n      tag_210\n      jump\t// in\n    tag_242:\n        /* \"#utility.yul\":13238:13313   */\n      swap1\n      pop\n        /* \"#utility.yul\":13153:13319   */\n      swap2\n      swap1\n      pop\n      jump\t// out\n        /* \"#utility.yul\":13325:13491   */\n    tag_154:\n        /* \"#utility.yul\":13394:13399   */\n      0x00\n        /* \"#utility.yul\":13419:13485   */\n      tag_246\n        /* \"#utility.yul\":13450:13484   */\n      tag_247\n        /* \"#utility.yul\":13473:13483   */\n      dup4\n        /* \"#utility.yul\":13450:13484   */\n      tag_244\n      jump\t// in\n    tag_247:\n        /* \"#utility.yul\":13419:13485   */\n      tag_216\n      jump\t// in\n    tag_246:\n        /* \"#utility.yul\":13410:13485   */\n      swap1\n      pop\n        /* \"#utility.yul\":13325:13491   */\n      swap2\n      swap1\n      pop\n      jump\t// out\n        /* \"#utility.yul\":13497:13660   */\n    tag_171:\n        /* \"#utility.yul\":13564:13569   */\n      0x00\n        /* \"#utility.yul\":13589:13654   */\n      tag_249\n        /* \"#utility.yul\":13617:13653   */\n      tag_250\n        /* \"#utility.yul\":13642:13652   */\n      dup4\n        /* \"#utility.yul\":13617:13653   */\n      tag_251\n      jump\t// in\n    tag_250:\n        /* \"#utility.yul\":13589:13654   */\n      tag_212\n      jump\t// in\n    tag_249:\n        /* \"#utility.yul\":13580:13654   */\n      swap1\n      pop\n        /* \"#utility.yul\":13497:13660   */\n      swap2\n      swap1\n      pop\n      jump\t// out\n        /* \"#utility.yul\":13666:13855   */\n    tag_174:\n        /* \"#utility.yul\":13746:13751   */\n      0x00\n        /* \"#utility.yul\":13771:13849   */\n      tag_253\n        /* \"#utility.yul\":13812:13848   */\n      tag_254\n        /* \"#utility.yul\":13837:13847   */\n      dup4\n        /* \"#utility.yul\":13812:13848   */\n      tag_255\n      jump\t// in\n    tag_254:\n        /* \"#utility.yul\":13771:13849   */\n      tag_214\n      jump\t// in\n    tag_253:\n        /* \"#utility.yul\":13762:13849   */\n      swap1\n      pop\n        /* \"#utility.yul\":13666:13855   */\n      swap2\n      swap1\n      pop\n      jump\t// out\n        /* \"#utility.yul\":13861:14142   */\n    tag_199:\n        /* \"#utility.yul\":13944:13971   */\n      tag_257\n        /* \"#utility.yul\":13966:13970   */\n      dup3\n        /* \"#utility.yul\":13944:13971   */\n      tag_206\n      jump\t// in\n    tag_257:\n        /* \"#utility.yul\":13936:13942   */\n      dup2\n        /* \"#utility.yul\":13932:13972   */\n      add\n        /* \"#utility.yul\":14074:14080   */\n      dup2\n        /* \"#utility.yul\":14062:14072   */\n      dup2\n        /* \"#utility.yul\":14059:14081   */\n      lt\n        /* \"#utility.yul\":14038:14056   */\n      0xffffffffffffffff\n        /* \"#utility.yul\":14026:14036   */\n      dup3\n        /* \"#utility.yul\":14023:14057   */\n      gt\n        /* \"#utility.yul\":14020:14082   */\n      or\n        /* \"#utility.yul\":14017:14105   */\n      iszero\n      tag_258\n      jumpi\n        /* \"#utility.yul\":14085:14103   */\n      tag_259\n      tag_204\n      jump\t// in\n    tag_259:\n        /* \"#utility.yul\":14017:14105   */\n    tag_258:\n        /* \"#utility.yul\":14125:14135   */\n      dup1\n        /* \"#utility.yul\":14121:14123   */\n      0x40\n        /* \"#utility.yul\":14114:14136   */\n      mstore\n        /* \"#utility.yul\":13904:14142   */\n      pop\n        /* \"#utility.yul\":13861:14142   */\n      pop\n      pop\n      jump\t// out\n        /* \"#utility.yul\":14148:14381   */\n    tag_55:\n        /* \"#utility.yul\":14187:14190   */\n      0x00\n        /* \"#utility.yul\":14210:14234   */\n      tag_261\n        /* \"#utility.yul\":14228:14233   */\n      dup3\n        /* \"#utility.yul\":14210:14234   */\n      tag_178\n      jump\t// in\n    tag_261:\n        /* \"#utility.yul\":14201:14234   */\n      swap2\n      pop\n        /* \"#utility.yul\":14256:14322   */\n      0xffffffffffffffffffffffffffffffffffffffffffffffffffffffffffffffff\n        /* \"#utility.yul\":14249:14254   */\n      dup3\n        /* \"#utility.yul\":14246:14323   */\n      eq\n        /* \"#utility.yul\":14243:14346   */\n      iszero\n      tag_262\n      jumpi\n        /* \"#utility.yul\":14326:14344   */\n      tag_263\n      tag_235\n      jump\t// in\n    tag_263:\n        /* \"#utility.yul\":14243:14346   */\n    tag_262:\n        /* \"#utility.yul\":14373:14374   */\n      0x01\n        /* \"#utility.yul\":14366:14371   */\n      dup3\n        /* \"#utility.yul\":14362:14375   */\n      add\n        /* \"#utility.yul\":14355:14375   */\n      swap1\n      pop\n        /* \"#utility.yul\":14148:14381   */\n      swap2\n      swap1\n      pop\n      jump\t// out\n        /* \"#utility.yul\":14387:14567   */\n    tag_235:\n        /* \"#utility.yul\":14435:14512   */\n      0x4e487b7100000000000000000000000000000000000000000000000000000000\n        /* \"#utility.yul\":14432:14433   */\n      0x00\n        /* \"#utility.yul\":14425:14513   */\n      mstore\n        /* \"#utility.yul\":14532:14536   */\n      0x11\n        /* \"#utility.yul\":14529:14530   */\n      0x04\n        /* \"#utility.yul\":14522:14537   */\n      mstore\n        /* \"#utility.yul\":14556:14560   */\n      0x24\n        /* \"#utility.yul\":14553:14554   */\n      0x00\n        /* \"#utility.yul\":14546:14561   */\n      revert\n        /* \"#utility.yul\":14573:14753   */\n    tag_26:\n        /* \"#utility.yul\":14621:14698   */\n      0x4e487b7100000000000000000000000000000000000000000000000000000000\n        /* \"#utility.yul\":14618:14619   */\n      0x00\n        /* \"#utility.yul\":14611:14699   */\n      mstore\n        /* \"#utility.yul\":14718:14722   */\n      0x21\n        /* \"#utility.yul\":14715:14716   */\n      0x04\n        /* \"#utility.yul\":14708:14723   */\n      mstore\n        /* \"#utility.yul\":14742:14746   */\n      0x24\n        /* \"#utility.yul\":14739:14740   */\n      0x00\n        /* \"#utility.yul\":14732:14747   */\n      revert\n        /* \"#utility.yul\":14759:14939   */\n    tag_240:\n        /* \"#utility.yul\":14807:14884   */\n      0x4e487b7100000000000000000000000000000000000000000000000000000000\n        /* \"#utility.yul\":14804:14805   */\n      0x00\n        /* \"#utility.yul\":14797:14885   */\n      mstore\n        /* \"#utility.yul\":14904:14908   */\n      0x22\n        /* \"#utility.yul\":14901:14902   */\n      0x04\n        /* \"#utility.yul\":14894:14909   */\n      mstore\n        /* \"#utility.yul\":14928:14932   */\n      0x24\n        /* \"#utility.yul\":14925:14926   */\n      0x00\n        /* \"#utility.yul\":14918:14933   */\n      revert\n        /* \"#utility.yul\":14945:15125   */\n    tag_204:\n        /* \"#utility.yul\":14993:15070   */\n      0x4e487b7100000000000000000000000000000000000000000000000000000000\n        /* \"#utility.yul\":14990:14991   */\n      0x00\n        /* \"#utility.yul\":14983:15071   */\n      mstore\n        /* \"#utility.yul\":15090:15094   */\n      0x41\n        /* \"#utility.yul\":15087:15088   */\n      0x04\n        /* \"#utility.yul\":15080:15095   */\n      mstore\n        /* \"#utility.yul\":15114:15118   */\n      0x24\n        /* \"#utility.yul\":15111:15112   */\n      0x00\n        /* \"#utility.yul\":15104:15119   */\n      revert\n        /* \"#utility.yul\":15131:15248   */\n    tag_83:\n        /* \"#utility.yul\":15240:15241   */\n      0x00\n        /* \"#utility.yul\":15237:15238   */\n      dup1\n        /* \"#utility.yul\":15230:15242   */\n      revert\n        /* \"#utility.yul\":15254:15371   */\n    tag_76:\n        /* \"#utility.yul\":15363:15364   */\n      0x00\n        /* \"#utility.yul\":15360:15361   */\n      dup1\n        /* \"#utility.yul\":15353:15365   */\n      revert\n        /* \"#utility.yul\":15377:15494   */\n    tag_95:\n        /* \"#utility.yul\":15486:15487   */\n      0x00\n        /* \"#utility.yul\":15483:15484   */\n      dup1\n        /* \"#utility.yul\":15476:15488   */\n      revert\n        /* \"#utility.yul\":15500:15617   */\n    tag_92:\n        /* \"#utility.yul\":15609:15610   */\n      0x00\n        /* \"#utility.yul\":15606:15607   */\n      dup1\n        /* \"#utility.yul\":15599:15611   */\n      revert\n        /* \"#utility.yul\":15623:15725   */\n    tag_206:\n        /* \"#utility.yul\":15664:15670   */\n      0x00\n        /* \"#utility.yul\":15715:15717   */\n      0x1f\n        /* \"#utility.yul\":15711:15718   */\n      not\n        /* \"#utility.yul\":15706:15708   */\n      0x1f\n        /* \"#utility.yul\":15699:15704   */\n      dup4\n        /* \"#utility.yul\":15695:15709   */\n      add\n        /* \"#utility.yul\":15691:15719   */\n      and\n        /* \"#utility.yul\":15681:15719   */\n      swap1\n      pop\n        /* \"#utility.yul\":15623:15725   */\n      swap2\n      swap1\n      pop\n      jump\t// out\n        /* \"#utility.yul\":15731:15833   */\n    tag_244:\n        /* \"#utility.yul\":15773:15781   */\n      0x00\n        /* \"#utility.yul\":15820:15825   */\n      dup2\n        /* \"#utility.yul\":15817:15818   */\n      0x00\n        /* \"#utility.yul\":15813:15826   */\n      shr\n        /* \"#utility.yul\":15792:15826   */\n      swap1\n      pop\n        /* \"#utility.yul\":15731:15833   */\n      swap2\n      swap1\n      pop\n      jump\t// out\n        /* \"#utility.yul\":15839:15945   */\n    tag_251:\n        /* \"#utility.yul\":15883:15891   */\n      0x00\n        /* \"#utility.yul\":15932:15937   */\n      dup2\n        /* \"#utility.yul\":15927:15930   */\n      0xa0\n        /* \"#utility.yul\":15923:15938   */\n      shr\n        /* \"#utility.yul\":15902:15938   */\n      swap1\n      pop\n        /* \"#utility.yul\":15839:15945   */\n      swap2\n      swap1\n      pop\n      jump\t// out\n        /* \"#utility.yul\":15951:16057   */\n    tag_255:\n        /* \"#utility.yul\":15995:16003   */\n      0x00\n        /* \"#utility.yul\":16044:16049   */\n      dup2\n        /* \"#utility.yul\":16039:16042   */\n      0xa8\n        /* \"#utility.yul\":16035:16050   */\n      shr\n        /* \"#utility.yul\":16014:16050   */\n      swap1\n      pop\n        /* \"#utility.yul\":15951:16057   */\n      swap2\n      swap1\n      pop\n      jump\t// out\n        /* \"#utility.yul\":16063:16283   */\n    tag_135:\n        /* \"#utility.yul\":16203:16237   */\n      0x412053657276696365205072696365206d757374206265207370656369666965\n        /* \"#utility.yul\":16199:16200   */\n      0x00\n        /* \"#utility.yul\":16191:16197   */\n      dup3\n        /* \"#utility.yul\":16187:16201   */\n      add\n        /* \"#utility.yul\":16180:16238   */\n      mstore\n        /* \"#utility.yul\":16272:16275   */\n      0x6400000000000000000000000000000000000000000000000000000000000000\n        /* \"#utility.yul\":16267:16269   */\n      0x20\n        /* \"#utility.yul\":16259:16265   */\n      dup3\n        /* \"#utility.yul\":16255:16270   */\n      add\n        /* \"#utility.yul\":16248:16276   */\n      mstore\n        /* \"#utility.yul\":16063:16283   */\n      pop\n      jump\t// out\n        /* \"#utility.yul\":16289:16538   */\n    tag_140:\n        /* \"#utility.yul\":16429:16463   */\n      0x54686520737461747573206f662074686973207365727669636520646f657320\n        /* \"#utility.yul\":16425:16426   */\n      0x00\n        /* \"#utility.yul\":16417:16423   */\n      dup3\n        /* \"#utility.yul\":16413:16427   */\n      add\n        /* \"#utility.yul\":16406:16464   */\n      mstore\n        /* \"#utility.yul\":16498:16530   */\n      0x6e6f74206d617463682074686520696e74656e646564207374617475732e0000\n        /* \"#utility.yul\":16493:16495   */\n      0x20\n        /* \"#utility.yul\":16485:16491   */\n      dup3\n        /* \"#utility.yul\":16481:16496   */\n      add\n        /* \"#utility.yul\":16474:16531   */\n      mstore\n        /* \"#utility.yul\":16289:16538   */\n      pop\n      jump\t// out\n        /* \"#utility.yul\":16544:16715   */\n    tag_145:\n        /* \"#utility.yul\":16684:16707   */\n      0x4120737472696e67206973207265717569726564210000000000000000000000\n        /* \"#utility.yul\":16680:16681   */\n      0x00\n        /* \"#utility.yul\":16672:16678   */\n      dup3\n        /* \"#utility.yul\":16668:16682   */\n      add\n        /* \"#utility.yul\":16661:16708   */\n      mstore\n        /* \"#utility.yul\":16544:16715   */\n      pop\n      jump\t// out\n        /* \"#utility.yul\":16721:16964   */\n    tag_150:\n        /* \"#utility.yul\":16861:16895   */\n      0x54686973207365727669636520686173206265656e2064656c6574656420616e\n        /* \"#utility.yul\":16857:16858   */\n      0x00\n        /* \"#utility.yul\":16849:16855   */\n      dup3\n        /* \"#utility.yul\":16845:16859   */\n      add\n        /* \"#utility.yul\":16838:16896   */\n      mstore\n        /* \"#utility.yul\":16930:16956   */\n      0x6420646f6573206e6f7420657869737420616e796d6f72650000000000000000\n        /* \"#utility.yul\":16925:16927   */\n      0x20\n        /* \"#utility.yul\":16917:16923   */\n      dup3\n        /* \"#utility.yul\":16913:16928   */\n      add\n        /* \"#utility.yul\":16906:16957   */\n      mstore\n        /* \"#utility.yul\":16721:16964   */\n      pop\n      jump\t// out\n        /* \"#utility.yul\":16970:17085   */\n    tag_225:\n        /* \"#utility.yul\":17053:17054   */\n      0x06\n        /* \"#utility.yul\":17046:17051   */\n      dup2\n        /* \"#utility.yul\":17043:17055   */\n      lt\n        /* \"#utility.yul\":17033:17079   */\n      tag_281\n      jumpi\n        /* \"#utility.yul\":17059:17077   */\n      tag_282\n      tag_26\n      jump\t// in\n    tag_282:\n        /* \"#utility.yul\":17033:17079   */\n    tag_281:\n        /* \"#utility.yul\":16970:17085   */\n      pop\n      jump\t// out\n        /* \"#utility.yul\":17091:17213   */\n    tag_88:\n        /* \"#utility.yul\":17164:17188   */\n      tag_284\n        /* \"#utility.yul\":17182:17187   */\n      dup2\n        /* \"#utility.yul\":17164:17188   */\n      tag_178\n      jump\t// in\n    tag_284:\n        /* \"#utility.yul\":17157:17162   */\n      dup2\n        /* \"#utility.yul\":17154:17189   */\n      eq\n        /* \"#utility.yul\":17144:17207   */\n      tag_285\n      jumpi\n        /* \"#utility.yul\":17203:17204   */\n      0x00\n        /* \"#utility.yul\":17200:17201   */\n      dup1\n        /* \"#utility.yul\":17193:17205   */\n      revert\n        /* \"#utility.yul\":17144:17207   */\n    tag_285:\n        /* \"#utility.yul\":17091:17213   */\n      pop\n      jump\t// out\n\n    auxdata: 0xa26469706673582212207c8525f98dda66e3ed570eeb9ac3fe8660328f8ff07c07d84019a69264a52f6264736f6c63430008070033\n}\n",
				"bytecode": {
					"linkReferences": {},
					"object": "6080604052600060015534801561001557600080fd5b50610e7f806100256000396000f3fe608060405234801561001057600080fd5b50600436106100415760003560e01c8063854c4707146100465780639ef6073014610064578063e9ed56a514610080575b600080fd5b61004e6100b0565b60405161005b919061092a565b60405180910390f35b61007e600480360381019061007991906105fd565b6100b6565b005b61009a60048036038101906100959190610572565b61022e565b6040516100a7919061092a565b60405180910390f35b60015481565b806001151560008083815260200190815260200160002060070160149054906101000a900460ff16151514610120576040517f08c379a00000000000000000000000000000000000000000000000000000000081526004016101179061090a565b60405180910390fd5b81600080600581111561013657610135610c2f565b5b60008084815260200190815260200160002060070160159054906101000a900460ff16600581111561016b5761016a610c2f565b5b146101ab576040517f08c379a00000000000000000000000000000000000000000000000000000000081526004016101a2906108ca565b60405180910390fd5b600080600086815260200190815260200160002060070160146101000a81548160ff021916908315150217905550600160008154809291906101ec90610ac2565b91905055507f6694ca203a0738585d2b2d17b211195dfb43e09eb19ac1f2c3a59c168e13587284604051610220919061092a565b60405180910390a150505050565b6000836000815111610275576040517f08c379a000000000000000000000000000000000000000000000000000000000815260040161026c906108ea565b60405180910390fd5b8360008151116102ba576040517f08c379a00000000000000000000000000000000000000000000000000000000081526004016102b1906108ea565b60405180910390fd5b600084116102fd576040517f08c379a00000000000000000000000000000000000000000000000000000000081526004016102f4906108aa565b60405180910390fd5b6000806000600154815260200190815260200160002090508681600101908051906020019061032d92919061044a565b508581600201908051906020019061034692919061044a565b508481600301819055506001548160050181905550338160060160006101000a81548173ffffffffffffffffffffffffffffffffffffffff021916908373ffffffffffffffffffffffffffffffffffffffff16021790555060018160070160146101000a81548160ff02191690831515021790555060008160070160156101000a81548160ff021916908360058111156103e3576103e2610c2f565b5b02179055507f758e44eab201e6a5cd91575a09b546834ec55366c96d92cbf24ad0049aee3de56001548260405161041b929190610945565b60405180910390a16001600081548092919061043690610bb7565b919050555060015493505050509392505050565b82805461045690610aec565b90600052602060002090601f01602090048101928261047857600085556104bf565b82601f1061049157805160ff19168380011785556104bf565b828001600101855582156104bf579182015b828111156104be5782518255916020019190600101906104a3565b5b5090506104cc91906104d0565b5090565b5b808211156104e95760008160009055506001016104d1565b5090565b60006105006104fb8461099a565b610975565b90508281526020810184848401111561051c5761051b610cc1565b5b610527848285610ab3565b509392505050565b600082601f83011261054457610543610cbc565b5b81356105548482602086016104ed565b91505092915050565b60008135905061056c81610e32565b92915050565b60008060006060848603121561058b5761058a610ccb565b5b600084013567ffffffffffffffff8111156105a9576105a8610cc6565b5b6105b58682870161052f565b935050602084013567ffffffffffffffff8111156105d6576105d5610cc6565b5b6105e28682870161052f565b92505060406105f38682870161055d565b9150509250925092565b60006020828403121561061357610612610ccb565b5b60006106218482850161055d565b91505092915050565b61063381610a46565b82525050565b61064281610a58565b82525050565b61065181610aa1565b82525050565b6000815461066481610aec565b61066e81866109e0565b94506001821660008114610689576001811461069b576106ce565b60ff19831686526020860193506106ce565b6106a4856109cb565b60005b838110156106c6578154818901526001820191506020810190506106a7565b808801955050505b50505092915050565b60006106e46021836109f1565b91506106ef82610d08565b604082019050919050565b6000610707603e836109f1565b915061071282610d57565b604082019050919050565b600061072a6015836109f1565b915061073582610da6565b602082019050919050565b600061074d6038836109f1565b915061075882610dcf565b604082019050919050565b60006101408301600080840154905061077b81610b38565b610788600087018261088c565b5060018401858303602087015261079f8382610657565b9250506002840185830360408701526107b88382610657565b925050600384015490506107cb81610b38565b6107d8606087018261088c565b50600484015490506107e981610b38565b6107f6608087018261088c565b506005840154905061080781610b38565b61081460a087018261088c565b506006840154905061082581610b1e565b61083260c087018261062a565b506007840154905061084381610b1e565b61085060e087018261062a565b5061085a81610b52565b610868610100870182610639565b5061087281610b6c565b610880610120870182610648565b50819250505092915050565b61089581610a97565b82525050565b6108a481610a97565b82525050565b600060208201905081810360008301526108c3816106d7565b9050919050565b600060208201905081810360008301526108e3816106fa565b9050919050565b600060208201905081810360008301526109038161071d565b9050919050565b6000602082019050818103600083015261092381610740565b9050919050565b600060208201905061093f600083018461089b565b92915050565b600060408201905061095a600083018561089b565b818103602083015261096c8184610763565b90509392505050565b600061097f610990565b905061098b8282610b86565b919050565b6000604051905090565b600067ffffffffffffffff8211156109b5576109b4610c8d565b5b6109be82610cd0565b9050602081019050919050565b60008190508160005260206000209050919050565b600082825260208201905092915050565b600082825260208201905092915050565b600073ffffffffffffffffffffffffffffffffffffffff82169050919050565b600060ff82169050919050565b600060ff82169050919050565b6000819050919050565b6000610a5182610a77565b9050919050565b60008115159050919050565b6000819050610a7282610e1e565b919050565b600073ffffffffffffffffffffffffffffffffffffffff82169050919050565b6000819050919050565b6000610aac82610a64565b9050919050565b82818337600083830152505050565b6000610acd82610a97565b91506000821415610ae157610ae0610c00565b5b600182039050919050565b60006002820490506001821680610b0457607f821691505b60208210811415610b1857610b17610c5e565b5b50919050565b6000610b31610b2c83610ce1565b610a02565b9050919050565b6000610b4b610b4683610ce1565b610a3c565b9050919050565b6000610b65610b6083610cee565b610a22565b9050919050565b6000610b7f610b7a83610cfb565b610a2f565b9050919050565b610b8f82610cd0565b810181811067ffffffffffffffff82111715610bae57610bad610c8d565b5b80604052505050565b6000610bc282610a97565b91507fffffffffffffffffffffffffffffffffffffffffffffffffffffffffffffffff821415610bf557610bf4610c00565b5b600182019050919050565b7f4e487b7100000000000000000000000000000000000000000000000000000000600052601160045260246000fd5b7f4e487b7100000000000000000000000000000000000000000000000000000000600052602160045260246000fd5b7f4e487b7100000000000000000000000000000000000000000000000000000000600052602260045260246000fd5b7f4e487b7100000000000000000000000000000000000000000000000000000000600052604160045260246000fd5b600080fd5b600080fd5b600080fd5b600080fd5b6000601f19601f8301169050919050565b60008160001c9050919050565b60008160a01c9050919050565b60008160a81c9050919050565b7f412053657276696365205072696365206d75737420626520737065636966696560008201527f6400000000000000000000000000000000000000000000000000000000000000602082015250565b7f54686520737461747573206f662074686973207365727669636520646f65732060008201527f6e6f74206d617463682074686520696e74656e646564207374617475732e0000602082015250565b7f4120737472696e67206973207265717569726564210000000000000000000000600082015250565b7f54686973207365727669636520686173206265656e2064656c6574656420616e60008201527f6420646f6573206e6f7420657869737420616e796d6f72650000000000000000602082015250565b60068110610e2f57610e2e610c2f565b5b50565b610e3b81610a97565b8114610e4657600080fd5b5056fea26469706673582212207c8525f98dda66e3ed570eeb9ac3fe8660328f8ff07c07d84019a69264a52f6264736f6c63430008070033",
					"opcodes": "PUSH1 0x80 PUSH1 0x40 MSTORE PUSH1 0x0 PUSH1 0x1 SSTORE CALLVALUE DUP1 ISZERO PUSH2 0x15 JUMPI PUSH1 0x0 DUP1 REVERT JUMPDEST POP PUSH2 0xE7F DUP1 PUSH2 0x25 PUSH1 0x0 CODECOPY PUSH1 0x0 RETURN INVALID PUSH1 0x80 PUSH1 0x40 MSTORE CALLVALUE DUP1 ISZERO PUSH2 0x10 JUMPI PUSH1 0x0 DUP1 REVERT JUMPDEST POP PUSH1 0x4 CALLDATASIZE LT PUSH2 0x41 JUMPI PUSH1 0x0 CALLDATALOAD PUSH1 0xE0 SHR DUP1 PUSH4 0x854C4707 EQ PUSH2 0x46 JUMPI DUP1 PUSH4 0x9EF60730 EQ PUSH2 0x64 JUMPI DUP1 PUSH4 0xE9ED56A5 EQ PUSH2 0x80 JUMPI JUMPDEST PUSH1 0x0 DUP1 REVERT JUMPDEST PUSH2 0x4E PUSH2 0xB0 JUMP JUMPDEST PUSH1 0x40 MLOAD PUSH2 0x5B SWAP2 SWAP1 PUSH2 0x92A JUMP JUMPDEST PUSH1 0x40 MLOAD DUP1 SWAP2 SUB SWAP1 RETURN JUMPDEST PUSH2 0x7E PUSH1 0x4 DUP1 CALLDATASIZE SUB DUP2 ADD SWAP1 PUSH2 0x79 SWAP2 SWAP1 PUSH2 0x5FD JUMP JUMPDEST PUSH2 0xB6 JUMP JUMPDEST STOP JUMPDEST PUSH2 0x9A PUSH1 0x4 DUP1 CALLDATASIZE SUB DUP2 ADD SWAP1 PUSH2 0x95 SWAP2 SWAP1 PUSH2 0x572 JUMP JUMPDEST PUSH2 0x22E JUMP JUMPDEST PUSH1 0x40 MLOAD PUSH2 0xA7 SWAP2 SWAP1 PUSH2 0x92A JUMP JUMPDEST PUSH1 0x40 MLOAD DUP1 SWAP2 SUB SWAP1 RETURN JUMPDEST PUSH1 0x1 SLOAD DUP2 JUMP JUMPDEST DUP1 PUSH1 0x1 ISZERO ISZERO PUSH1 0x0 DUP1 DUP4 DUP2 MSTORE PUSH1 0x20 ADD SWAP1 DUP2 MSTORE PUSH1 0x20 ADD PUSH1 0x0 KECCAK256 PUSH1 0x7 ADD PUSH1 0x14 SWAP1 SLOAD SWAP1 PUSH2 0x100 EXP SWAP1 DIV PUSH1 0xFF AND ISZERO ISZERO EQ PUSH2 0x120 JUMPI PUSH1 0x40 MLOAD PUSH32 0x8C379A000000000000000000000000000000000000000000000000000000000 DUP2 MSTORE PUSH1 0x4 ADD PUSH2 0x117 SWAP1 PUSH2 0x90A JUMP JUMPDEST PUSH1 0x40 MLOAD DUP1 SWAP2 SUB SWAP1 REVERT JUMPDEST DUP2 PUSH1 0x0 DUP1 PUSH1 0x5 DUP2 GT ISZERO PUSH2 0x136 JUMPI PUSH2 0x135 PUSH2 0xC2F JUMP JUMPDEST JUMPDEST PUSH1 0x0 DUP1 DUP5 DUP2 MSTORE PUSH1 0x20 ADD SWAP1 DUP2 MSTORE PUSH1 0x20 ADD PUSH1 0x0 KECCAK256 PUSH1 0x7 ADD PUSH1 0x15 SWAP1 SLOAD SWAP1 PUSH2 0x100 EXP SWAP1 DIV PUSH1 0xFF AND PUSH1 0x5 DUP2 GT ISZERO PUSH2 0x16B JUMPI PUSH2 0x16A PUSH2 0xC2F JUMP JUMPDEST JUMPDEST EQ PUSH2 0x1AB JUMPI PUSH1 0x40 MLOAD PUSH32 0x8C379A000000000000000000000000000000000000000000000000000000000 DUP2 MSTORE PUSH1 0x4 ADD PUSH2 0x1A2 SWAP1 PUSH2 0x8CA JUMP JUMPDEST PUSH1 0x40 MLOAD DUP1 SWAP2 SUB SWAP1 REVERT JUMPDEST PUSH1 0x0 DUP1 PUSH1 0x0 DUP7 DUP2 MSTORE PUSH1 0x20 ADD SWAP1 DUP2 MSTORE PUSH1 0x20 ADD PUSH1 0x0 KECCAK256 PUSH1 0x7 ADD PUSH1 0x14 PUSH2 0x100 EXP DUP2 SLOAD DUP2 PUSH1 0xFF MUL NOT AND SWAP1 DUP4 ISZERO ISZERO MUL OR SWAP1 SSTORE POP PUSH1 0x1 PUSH1 0x0 DUP2 SLOAD DUP1 SWAP3 SWAP2 SWAP1 PUSH2 0x1EC SWAP1 PUSH2 0xAC2 JUMP JUMPDEST SWAP2 SWAP1 POP SSTORE POP PUSH32 0x6694CA203A0738585D2B2D17B211195DFB43E09EB19AC1F2C3A59C168E135872 DUP5 PUSH1 0x40 MLOAD PUSH2 0x220 SWAP2 SWAP1 PUSH2 0x92A JUMP JUMPDEST PUSH1 0x40 MLOAD DUP1 SWAP2 SUB SWAP1 LOG1 POP POP POP POP JUMP JUMPDEST PUSH1 0x0 DUP4 PUSH1 0x0 DUP2 MLOAD GT PUSH2 0x275 JUMPI PUSH1 0x40 MLOAD PUSH32 0x8C379A000000000000000000000000000000000000000000000000000000000 DUP2 MSTORE PUSH1 0x4 ADD PUSH2 0x26C SWAP1 PUSH2 0x8EA JUMP JUMPDEST PUSH1 0x40 MLOAD DUP1 SWAP2 SUB SWAP1 REVERT JUMPDEST DUP4 PUSH1 0x0 DUP2 MLOAD GT PUSH2 0x2BA JUMPI PUSH1 0x40 MLOAD PUSH32 0x8C379A000000000000000000000000000000000000000000000000000000000 DUP2 MSTORE PUSH1 0x4 ADD PUSH2 0x2B1 SWAP1 PUSH2 0x8EA JUMP JUMPDEST PUSH1 0x40 MLOAD DUP1 SWAP2 SUB SWAP1 REVERT JUMPDEST PUSH1 0x0 DUP5 GT PUSH2 0x2FD JUMPI PUSH1 0x40 MLOAD PUSH32 0x8C379A000000000000000000000000000000000000000000000000000000000 DUP2 MSTORE PUSH1 0x4 ADD PUSH2 0x2F4 SWAP1 PUSH2 0x8AA JUMP JUMPDEST PUSH1 0x40 MLOAD DUP1 SWAP2 SUB SWAP1 REVERT JUMPDEST PUSH1 0x0 DUP1 PUSH1 0x0 PUSH1 0x1 SLOAD DUP2 MSTORE PUSH1 0x20 ADD SWAP1 DUP2 MSTORE PUSH1 0x20 ADD PUSH1 0x0 KECCAK256 SWAP1 POP DUP7 DUP2 PUSH1 0x1 ADD SWAP1 DUP1 MLOAD SWAP1 PUSH1 0x20 ADD SWAP1 PUSH2 0x32D SWAP3 SWAP2 SWAP1 PUSH2 0x44A JUMP JUMPDEST POP DUP6 DUP2 PUSH1 0x2 ADD SWAP1 DUP1 MLOAD SWAP1 PUSH1 0x20 ADD SWAP1 PUSH2 0x346 SWAP3 SWAP2 SWAP1 PUSH2 0x44A JUMP JUMPDEST POP DUP5 DUP2 PUSH1 0x3 ADD DUP2 SWAP1 SSTORE POP PUSH1 0x1 SLOAD DUP2 PUSH1 0x5 ADD DUP2 SWAP1 SSTORE POP CALLER DUP2 PUSH1 0x6 ADD PUSH1 0x0 PUSH2 0x100 EXP DUP2 SLOAD DUP2 PUSH20 0xFFFFFFFFFFFFFFFFFFFFFFFFFFFFFFFFFFFFFFFF MUL NOT AND SWAP1 DUP4 PUSH20 0xFFFFFFFFFFFFFFFFFFFFFFFFFFFFFFFFFFFFFFFF AND MUL OR SWAP1 SSTORE POP PUSH1 0x1 DUP2 PUSH1 0x7 ADD PUSH1 0x14 PUSH2 0x100 EXP DUP2 SLOAD DUP2 PUSH1 0xFF MUL NOT AND SWAP1 DUP4 ISZERO ISZERO MUL OR SWAP1 SSTORE POP PUSH1 0x0 DUP2 PUSH1 0x7 ADD PUSH1 0x15 PUSH2 0x100 EXP DUP2 SLOAD DUP2 PUSH1 0xFF MUL NOT AND SWAP1 DUP4 PUSH1 0x5 DUP2 GT ISZERO PUSH2 0x3E3 JUMPI PUSH2 0x3E2 PUSH2 0xC2F JUMP JUMPDEST JUMPDEST MUL OR SWAP1 SSTORE POP PUSH32 0x758E44EAB201E6A5CD91575A09B546834EC55366C96D92CBF24AD0049AEE3DE5 PUSH1 0x1 SLOAD DUP3 PUSH1 0x40 MLOAD PUSH2 0x41B SWAP3 SWAP2 SWAP1 PUSH2 0x945 JUMP JUMPDEST PUSH1 0x40 MLOAD DUP1 SWAP2 SUB SWAP1 LOG1 PUSH1 0x1 PUSH1 0x0 DUP2 SLOAD DUP1 SWAP3 SWAP2 SWAP1 PUSH2 0x436 SWAP1 PUSH2 0xBB7 JUMP JUMPDEST SWAP2 SWAP1 POP SSTORE POP PUSH1 0x1 SLOAD SWAP4 POP POP POP POP SWAP4 SWAP3 POP POP POP JUMP JUMPDEST DUP3 DUP1 SLOAD PUSH2 0x456 SWAP1 PUSH2 0xAEC JUMP JUMPDEST SWAP1 PUSH1 0x0 MSTORE PUSH1 0x20 PUSH1 0x0 KECCAK256 SWAP1 PUSH1 0x1F ADD PUSH1 0x20 SWAP1 DIV DUP2 ADD SWAP3 DUP3 PUSH2 0x478 JUMPI PUSH1 0x0 DUP6 SSTORE PUSH2 0x4BF JUMP JUMPDEST DUP3 PUSH1 0x1F LT PUSH2 0x491 JUMPI DUP1 MLOAD PUSH1 0xFF NOT AND DUP4 DUP1 ADD OR DUP6 SSTORE PUSH2 0x4BF JUMP JUMPDEST DUP3 DUP1 ADD PUSH1 0x1 ADD DUP6 SSTORE DUP3 ISZERO PUSH2 0x4BF JUMPI SWAP2 DUP3 ADD JUMPDEST DUP3 DUP2 GT ISZERO PUSH2 0x4BE JUMPI DUP3 MLOAD DUP3 SSTORE SWAP2 PUSH1 0x20 ADD SWAP2 SWAP1 PUSH1 0x1 ADD SWAP1 PUSH2 0x4A3 JUMP JUMPDEST JUMPDEST POP SWAP1 POP PUSH2 0x4CC SWAP2 SWAP1 PUSH2 0x4D0 JUMP JUMPDEST POP SWAP1 JUMP JUMPDEST JUMPDEST DUP1 DUP3 GT ISZERO PUSH2 0x4E9 JUMPI PUSH1 0x0 DUP2 PUSH1 0x0 SWAP1 SSTORE POP PUSH1 0x1 ADD PUSH2 0x4D1 JUMP JUMPDEST POP SWAP1 JUMP JUMPDEST PUSH1 0x0 PUSH2 0x500 PUSH2 0x4FB DUP5 PUSH2 0x99A JUMP JUMPDEST PUSH2 0x975 JUMP JUMPDEST SWAP1 POP DUP3 DUP2 MSTORE PUSH1 0x20 DUP2 ADD DUP5 DUP5 DUP5 ADD GT ISZERO PUSH2 0x51C JUMPI PUSH2 0x51B PUSH2 0xCC1 JUMP JUMPDEST JUMPDEST PUSH2 0x527 DUP5 DUP3 DUP6 PUSH2 0xAB3 JUMP JUMPDEST POP SWAP4 SWAP3 POP POP POP JUMP JUMPDEST PUSH1 0x0 DUP3 PUSH1 0x1F DUP4 ADD SLT PUSH2 0x544 JUMPI PUSH2 0x543 PUSH2 0xCBC JUMP JUMPDEST JUMPDEST DUP2 CALLDATALOAD PUSH2 0x554 DUP5 DUP3 PUSH1 0x20 DUP7 ADD PUSH2 0x4ED JUMP JUMPDEST SWAP2 POP POP SWAP3 SWAP2 POP POP JUMP JUMPDEST PUSH1 0x0 DUP2 CALLDATALOAD SWAP1 POP PUSH2 0x56C DUP2 PUSH2 0xE32 JUMP JUMPDEST SWAP3 SWAP2 POP POP JUMP JUMPDEST PUSH1 0x0 DUP1 PUSH1 0x0 PUSH1 0x60 DUP5 DUP7 SUB SLT ISZERO PUSH2 0x58B JUMPI PUSH2 0x58A PUSH2 0xCCB JUMP JUMPDEST JUMPDEST PUSH1 0x0 DUP5 ADD CALLDATALOAD PUSH8 0xFFFFFFFFFFFFFFFF DUP2 GT ISZERO PUSH2 0x5A9 JUMPI PUSH2 0x5A8 PUSH2 0xCC6 JUMP JUMPDEST JUMPDEST PUSH2 0x5B5 DUP7 DUP3 DUP8 ADD PUSH2 0x52F JUMP JUMPDEST SWAP4 POP POP PUSH1 0x20 DUP5 ADD CALLDATALOAD PUSH8 0xFFFFFFFFFFFFFFFF DUP2 GT ISZERO PUSH2 0x5D6 JUMPI PUSH2 0x5D5 PUSH2 0xCC6 JUMP JUMPDEST JUMPDEST PUSH2 0x5E2 DUP7 DUP3 DUP8 ADD PUSH2 0x52F JUMP JUMPDEST SWAP3 POP POP PUSH1 0x40 PUSH2 0x5F3 DUP7 DUP3 DUP8 ADD PUSH2 0x55D JUMP JUMPDEST SWAP2 POP POP SWAP3 POP SWAP3 POP SWAP3 JUMP JUMPDEST PUSH1 0x0 PUSH1 0x20 DUP3 DUP5 SUB SLT ISZERO PUSH2 0x613 JUMPI PUSH2 0x612 PUSH2 0xCCB JUMP JUMPDEST JUMPDEST PUSH1 0x0 PUSH2 0x621 DUP5 DUP3 DUP6 ADD PUSH2 0x55D JUMP JUMPDEST SWAP2 POP POP SWAP3 SWAP2 POP POP JUMP JUMPDEST PUSH2 0x633 DUP2 PUSH2 0xA46 JUMP JUMPDEST DUP3 MSTORE POP POP JUMP JUMPDEST PUSH2 0x642 DUP2 PUSH2 0xA58 JUMP JUMPDEST DUP3 MSTORE POP POP JUMP JUMPDEST PUSH2 0x651 DUP2 PUSH2 0xAA1 JUMP JUMPDEST DUP3 MSTORE POP POP JUMP JUMPDEST PUSH1 0x0 DUP2 SLOAD PUSH2 0x664 DUP2 PUSH2 0xAEC JUMP JUMPDEST PUSH2 0x66E DUP2 DUP7 PUSH2 0x9E0 JUMP JUMPDEST SWAP5 POP PUSH1 0x1 DUP3 AND PUSH1 0x0 DUP2 EQ PUSH2 0x689 JUMPI PUSH1 0x1 DUP2 EQ PUSH2 0x69B JUMPI PUSH2 0x6CE JUMP JUMPDEST PUSH1 0xFF NOT DUP4 AND DUP7 MSTORE PUSH1 0x20 DUP7 ADD SWAP4 POP PUSH2 0x6CE JUMP JUMPDEST PUSH2 0x6A4 DUP6 PUSH2 0x9CB JUMP JUMPDEST PUSH1 0x0 JUMPDEST DUP4 DUP2 LT ISZERO PUSH2 0x6C6 JUMPI DUP2 SLOAD DUP2 DUP10 ADD MSTORE PUSH1 0x1 DUP3 ADD SWAP2 POP PUSH1 0x20 DUP2 ADD SWAP1 POP PUSH2 0x6A7 JUMP JUMPDEST DUP1 DUP9 ADD SWAP6 POP POP POP JUMPDEST POP POP POP SWAP3 SWAP2 POP POP JUMP JUMPDEST PUSH1 0x0 PUSH2 0x6E4 PUSH1 0x21 DUP4 PUSH2 0x9F1 JUMP JUMPDEST SWAP2 POP PUSH2 0x6EF DUP3 PUSH2 0xD08 JUMP JUMPDEST PUSH1 0x40 DUP3 ADD SWAP1 POP SWAP2 SWAP1 POP JUMP JUMPDEST PUSH1 0x0 PUSH2 0x707 PUSH1 0x3E DUP4 PUSH2 0x9F1 JUMP JUMPDEST SWAP2 POP PUSH2 0x712 DUP3 PUSH2 0xD57 JUMP JUMPDEST PUSH1 0x40 DUP3 ADD SWAP1 POP SWAP2 SWAP1 POP JUMP JUMPDEST PUSH1 0x0 PUSH2 0x72A PUSH1 0x15 DUP4 PUSH2 0x9F1 JUMP JUMPDEST SWAP2 POP PUSH2 0x735 DUP3 PUSH2 0xDA6 JUMP JUMPDEST PUSH1 0x20 DUP3 ADD SWAP1 POP SWAP2 SWAP1 POP JUMP JUMPDEST PUSH1 0x0 PUSH2 0x74D PUSH1 0x38 DUP4 PUSH2 0x9F1 JUMP JUMPDEST SWAP2 POP PUSH2 0x758 DUP3 PUSH2 0xDCF JUMP JUMPDEST PUSH1 0x40 DUP3 ADD SWAP1 POP SWAP2 SWAP1 POP JUMP JUMPDEST PUSH1 0x0 PUSH2 0x140 DUP4 ADD PUSH1 0x0 DUP1 DUP5 ADD SLOAD SWAP1 POP PUSH2 0x77B DUP2 PUSH2 0xB38 JUMP JUMPDEST PUSH2 0x788 PUSH1 0x0 DUP8 ADD DUP3 PUSH2 0x88C JUMP JUMPDEST POP PUSH1 0x1 DUP5 ADD DUP6 DUP4 SUB PUSH1 0x20 DUP8 ADD MSTORE PUSH2 0x79F DUP4 DUP3 PUSH2 0x657 JUMP JUMPDEST SWAP3 POP POP PUSH1 0x2 DUP5 ADD DUP6 DUP4 SUB PUSH1 0x40 DUP8 ADD MSTORE PUSH2 0x7B8 DUP4 DUP3 PUSH2 0x657 JUMP JUMPDEST SWAP3 POP POP PUSH1 0x3 DUP5 ADD SLOAD SWAP1 POP PUSH2 0x7CB DUP2 PUSH2 0xB38 JUMP JUMPDEST PUSH2 0x7D8 PUSH1 0x60 DUP8 ADD DUP3 PUSH2 0x88C JUMP JUMPDEST POP PUSH1 0x4 DUP5 ADD SLOAD SWAP1 POP PUSH2 0x7E9 DUP2 PUSH2 0xB38 JUMP JUMPDEST PUSH2 0x7F6 PUSH1 0x80 DUP8 ADD DUP3 PUSH2 0x88C JUMP JUMPDEST POP PUSH1 0x5 DUP5 ADD SLOAD SWAP1 POP PUSH2 0x807 DUP2 PUSH2 0xB38 JUMP JUMPDEST PUSH2 0x814 PUSH1 0xA0 DUP8 ADD DUP3 PUSH2 0x88C JUMP JUMPDEST POP PUSH1 0x6 DUP5 ADD SLOAD SWAP1 POP PUSH2 0x825 DUP2 PUSH2 0xB1E JUMP JUMPDEST PUSH2 0x832 PUSH1 0xC0 DUP8 ADD DUP3 PUSH2 0x62A JUMP JUMPDEST POP PUSH1 0x7 DUP5 ADD SLOAD SWAP1 POP PUSH2 0x843 DUP2 PUSH2 0xB1E JUMP JUMPDEST PUSH2 0x850 PUSH1 0xE0 DUP8 ADD DUP3 PUSH2 0x62A JUMP JUMPDEST POP PUSH2 0x85A DUP2 PUSH2 0xB52 JUMP JUMPDEST PUSH2 0x868 PUSH2 0x100 DUP8 ADD DUP3 PUSH2 0x639 JUMP JUMPDEST POP PUSH2 0x872 DUP2 PUSH2 0xB6C JUMP JUMPDEST PUSH2 0x880 PUSH2 0x120 DUP8 ADD DUP3 PUSH2 0x648 JUMP JUMPDEST POP DUP2 SWAP3 POP POP POP SWAP3 SWAP2 POP POP JUMP JUMPDEST PUSH2 0x895 DUP2 PUSH2 0xA97 JUMP JUMPDEST DUP3 MSTORE POP POP JUMP JUMPDEST PUSH2 0x8A4 DUP2 PUSH2 0xA97 JUMP JUMPDEST DUP3 MSTORE POP POP JUMP JUMPDEST PUSH1 0x0 PUSH1 0x20 DUP3 ADD SWAP1 POP DUP2 DUP2 SUB PUSH1 0x0 DUP4 ADD MSTORE PUSH2 0x8C3 DUP2 PUSH2 0x6D7 JUMP JUMPDEST SWAP1 POP SWAP2 SWAP1 POP JUMP JUMPDEST PUSH1 0x0 PUSH1 0x20 DUP3 ADD SWAP1 POP DUP2 DUP2 SUB PUSH1 0x0 DUP4 ADD MSTORE PUSH2 0x8E3 DUP2 PUSH2 0x6FA JUMP JUMPDEST SWAP1 POP SWAP2 SWAP1 POP JUMP JUMPDEST PUSH1 0x0 PUSH1 0x20 DUP3 ADD SWAP1 POP DUP2 DUP2 SUB PUSH1 0x0 DUP4 ADD MSTORE PUSH2 0x903 DUP2 PUSH2 0x71D JUMP JUMPDEST SWAP1 POP SWAP2 SWAP1 POP JUMP JUMPDEST PUSH1 0x0 PUSH1 0x20 DUP3 ADD SWAP1 POP DUP2 DUP2 SUB PUSH1 0x0 DUP4 ADD MSTORE PUSH2 0x923 DUP2 PUSH2 0x740 JUMP JUMPDEST SWAP1 POP SWAP2 SWAP1 POP JUMP JUMPDEST PUSH1 0x0 PUSH1 0x20 DUP3 ADD SWAP1 POP PUSH2 0x93F PUSH1 0x0 DUP4 ADD DUP5 PUSH2 0x89B JUMP JUMPDEST SWAP3 SWAP2 POP POP JUMP JUMPDEST PUSH1 0x0 PUSH1 0x40 DUP3 ADD SWAP1 POP PUSH2 0x95A PUSH1 0x0 DUP4 ADD DUP6 PUSH2 0x89B JUMP JUMPDEST DUP2 DUP2 SUB PUSH1 0x20 DUP4 ADD MSTORE PUSH2 0x96C DUP2 DUP5 PUSH2 0x763 JUMP JUMPDEST SWAP1 POP SWAP4 SWAP3 POP POP POP JUMP JUMPDEST PUSH1 0x0 PUSH2 0x97F PUSH2 0x990 JUMP JUMPDEST SWAP1 POP PUSH2 0x98B DUP3 DUP3 PUSH2 0xB86 JUMP JUMPDEST SWAP2 SWAP1 POP JUMP JUMPDEST PUSH1 0x0 PUSH1 0x40 MLOAD SWAP1 POP SWAP1 JUMP JUMPDEST PUSH1 0x0 PUSH8 0xFFFFFFFFFFFFFFFF DUP3 GT ISZERO PUSH2 0x9B5 JUMPI PUSH2 0x9B4 PUSH2 0xC8D JUMP JUMPDEST JUMPDEST PUSH2 0x9BE DUP3 PUSH2 0xCD0 JUMP JUMPDEST SWAP1 POP PUSH1 0x20 DUP2 ADD SWAP1 POP SWAP2 SWAP1 POP JUMP JUMPDEST PUSH1 0x0 DUP2 SWAP1 POP DUP2 PUSH1 0x0 MSTORE PUSH1 0x20 PUSH1 0x0 KECCAK256 SWAP1 POP SWAP2 SWAP1 POP JUMP JUMPDEST PUSH1 0x0 DUP3 DUP3 MSTORE PUSH1 0x20 DUP3 ADD SWAP1 POP SWAP3 SWAP2 POP POP JUMP JUMPDEST PUSH1 0x0 DUP3 DUP3 MSTORE PUSH1 0x20 DUP3 ADD SWAP1 POP SWAP3 SWAP2 POP POP JUMP JUMPDEST PUSH1 0x0 PUSH20 0xFFFFFFFFFFFFFFFFFFFFFFFFFFFFFFFFFFFFFFFF DUP3 AND SWAP1 POP SWAP2 SWAP1 POP JUMP JUMPDEST PUSH1 0x0 PUSH1 0xFF DUP3 AND SWAP1 POP SWAP2 SWAP1 POP JUMP JUMPDEST PUSH1 0x0 PUSH1 0xFF DUP3 AND SWAP1 POP SWAP2 SWAP1 POP JUMP JUMPDEST PUSH1 0x0 DUP2 SWAP1 POP SWAP2 SWAP1 POP JUMP JUMPDEST PUSH1 0x0 PUSH2 0xA51 DUP3 PUSH2 0xA77 JUMP JUMPDEST SWAP1 POP SWAP2 SWAP1 POP JUMP JUMPDEST PUSH1 0x0 DUP2 ISZERO ISZERO SWAP1 POP SWAP2 SWAP1 POP JUMP JUMPDEST PUSH1 0x0 DUP2 SWAP1 POP PUSH2 0xA72 DUP3 PUSH2 0xE1E JUMP JUMPDEST SWAP2 SWAP1 POP JUMP JUMPDEST PUSH1 0x0 PUSH20 0xFFFFFFFFFFFFFFFFFFFFFFFFFFFFFFFFFFFFFFFF DUP3 AND SWAP1 POP SWAP2 SWAP1 POP JUMP JUMPDEST PUSH1 0x0 DUP2 SWAP1 POP SWAP2 SWAP1 POP JUMP JUMPDEST PUSH1 0x0 PUSH2 0xAAC DUP3 PUSH2 0xA64 JUMP JUMPDEST SWAP1 POP SWAP2 SWAP1 POP JUMP JUMPDEST DUP3 DUP2 DUP4 CALLDATACOPY PUSH1 0x0 DUP4 DUP4 ADD MSTORE POP POP POP JUMP JUMPDEST PUSH1 0x0 PUSH2 0xACD DUP3 PUSH2 0xA97 JUMP JUMPDEST SWAP2 POP PUSH1 0x0 DUP3 EQ ISZERO PUSH2 0xAE1 JUMPI PUSH2 0xAE0 PUSH2 0xC00 JUMP JUMPDEST JUMPDEST PUSH1 0x1 DUP3 SUB SWAP1 POP SWAP2 SWAP1 POP JUMP JUMPDEST PUSH1 0x0 PUSH1 0x2 DUP3 DIV SWAP1 POP PUSH1 0x1 DUP3 AND DUP1 PUSH2 0xB04 JUMPI PUSH1 0x7F DUP3 AND SWAP2 POP JUMPDEST PUSH1 0x20 DUP3 LT DUP2 EQ ISZERO PUSH2 0xB18 JUMPI PUSH2 0xB17 PUSH2 0xC5E JUMP JUMPDEST JUMPDEST POP SWAP2 SWAP1 POP JUMP JUMPDEST PUSH1 0x0 PUSH2 0xB31 PUSH2 0xB2C DUP4 PUSH2 0xCE1 JUMP JUMPDEST PUSH2 0xA02 JUMP JUMPDEST SWAP1 POP SWAP2 SWAP1 POP JUMP JUMPDEST PUSH1 0x0 PUSH2 0xB4B PUSH2 0xB46 DUP4 PUSH2 0xCE1 JUMP JUMPDEST PUSH2 0xA3C JUMP JUMPDEST SWAP1 POP SWAP2 SWAP1 POP JUMP JUMPDEST PUSH1 0x0 PUSH2 0xB65 PUSH2 0xB60 DUP4 PUSH2 0xCEE JUMP JUMPDEST PUSH2 0xA22 JUMP JUMPDEST SWAP1 POP SWAP2 SWAP1 POP JUMP JUMPDEST PUSH1 0x0 PUSH2 0xB7F PUSH2 0xB7A DUP4 PUSH2 0xCFB JUMP JUMPDEST PUSH2 0xA2F JUMP JUMPDEST SWAP1 POP SWAP2 SWAP1 POP JUMP JUMPDEST PUSH2 0xB8F DUP3 PUSH2 0xCD0 JUMP JUMPDEST DUP2 ADD DUP2 DUP2 LT PUSH8 0xFFFFFFFFFFFFFFFF DUP3 GT OR ISZERO PUSH2 0xBAE JUMPI PUSH2 0xBAD PUSH2 0xC8D JUMP JUMPDEST JUMPDEST DUP1 PUSH1 0x40 MSTORE POP POP POP JUMP JUMPDEST PUSH1 0x0 PUSH2 0xBC2 DUP3 PUSH2 0xA97 JUMP JUMPDEST SWAP2 POP PUSH32 0xFFFFFFFFFFFFFFFFFFFFFFFFFFFFFFFFFFFFFFFFFFFFFFFFFFFFFFFFFFFFFFFF DUP3 EQ ISZERO PUSH2 0xBF5 JUMPI PUSH2 0xBF4 PUSH2 0xC00 JUMP JUMPDEST JUMPDEST PUSH1 0x1 DUP3 ADD SWAP1 POP SWAP2 SWAP1 POP JUMP JUMPDEST PUSH32 0x4E487B7100000000000000000000000000000000000000000000000000000000 PUSH1 0x0 MSTORE PUSH1 0x11 PUSH1 0x4 MSTORE PUSH1 0x24 PUSH1 0x0 REVERT JUMPDEST PUSH32 0x4E487B7100000000000000000000000000000000000000000000000000000000 PUSH1 0x0 MSTORE PUSH1 0x21 PUSH1 0x4 MSTORE PUSH1 0x24 PUSH1 0x0 REVERT JUMPDEST PUSH32 0x4E487B7100000000000000000000000000000000000000000000000000000000 PUSH1 0x0 MSTORE PUSH1 0x22 PUSH1 0x4 MSTORE PUSH1 0x24 PUSH1 0x0 REVERT JUMPDEST PUSH32 0x4E487B7100000000000000000000000000000000000000000000000000000000 PUSH1 0x0 MSTORE PUSH1 0x41 PUSH1 0x4 MSTORE PUSH1 0x24 PUSH1 0x0 REVERT JUMPDEST PUSH1 0x0 DUP1 REVERT JUMPDEST PUSH1 0x0 DUP1 REVERT JUMPDEST PUSH1 0x0 DUP1 REVERT JUMPDEST PUSH1 0x0 DUP1 REVERT JUMPDEST PUSH1 0x0 PUSH1 0x1F NOT PUSH1 0x1F DUP4 ADD AND SWAP1 POP SWAP2 SWAP1 POP JUMP JUMPDEST PUSH1 0x0 DUP2 PUSH1 0x0 SHR SWAP1 POP SWAP2 SWAP1 POP JUMP JUMPDEST PUSH1 0x0 DUP2 PUSH1 0xA0 SHR SWAP1 POP SWAP2 SWAP1 POP JUMP JUMPDEST PUSH1 0x0 DUP2 PUSH1 0xA8 SHR SWAP1 POP SWAP2 SWAP1 POP JUMP JUMPDEST PUSH32 0x412053657276696365205072696365206D757374206265207370656369666965 PUSH1 0x0 DUP3 ADD MSTORE PUSH32 0x6400000000000000000000000000000000000000000000000000000000000000 PUSH1 0x20 DUP3 ADD MSTORE POP JUMP JUMPDEST PUSH32 0x54686520737461747573206F662074686973207365727669636520646F657320 PUSH1 0x0 DUP3 ADD MSTORE PUSH32 0x6E6F74206D617463682074686520696E74656E646564207374617475732E0000 PUSH1 0x20 DUP3 ADD MSTORE POP JUMP JUMPDEST PUSH32 0x4120737472696E67206973207265717569726564210000000000000000000000 PUSH1 0x0 DUP3 ADD MSTORE POP JUMP JUMPDEST PUSH32 0x54686973207365727669636520686173206265656E2064656C6574656420616E PUSH1 0x0 DUP3 ADD MSTORE PUSH32 0x6420646F6573206E6F7420657869737420616E796D6F72650000000000000000 PUSH1 0x20 DUP3 ADD MSTORE POP JUMP JUMPDEST PUSH1 0x6 DUP2 LT PUSH2 0xE2F JUMPI PUSH2 0xE2E PUSH2 0xC2F JUMP JUMPDEST JUMPDEST POP JUMP JUMPDEST PUSH2 0xE3B DUP2 PUSH2 0xA97 JUMP JUMPDEST DUP2 EQ PUSH2 0xE46 JUMPI PUSH1 0x0 DUP1 REVERT JUMPDEST POP JUMP INVALID LOG2 PUSH5 0x6970667358 0x22 SLT KECCAK256 PUSH29 0x8525F98DDA66E3ED570EEB9AC3FE8660328F8FF07C07D84019A69264A5 0x2F PUSH3 0x64736F PUSH13 0x63430008070033000000000000 "
				},
				"gasEstimates": {
					"creation": {
						"codeDepositCost": "742200",
						"executionCost": "5779",
						"totalCost": "747979"
					},
					"external": {
						"deleteRequestService(uint256)": "infinite",
						"numService()": "2407",
						"requestService(string,string,uint256)": "infinite"
					}
				},
				"methodIdentifiers": {
					"deleteRequestService(uint256)": "9ef60730",
					"numService()": "854c4707",
					"requestService(string,string,uint256)": "e9ed56a5"
				}
			},
			"userdoc": {
				"kind": "user",
				"methods": {},
				"version": 1
			}
		}
	}
}