{
	"contracts/Conflict.sol": {
		"Conflict": {
			"abi": [
				{
					"anonymous": false,
					"inputs": [
						{
							"indexed": false,
							"internalType": "uint256",
							"name": "projectNumber",
							"type": "uint256"
						},
						{
							"indexed": false,
							"internalType": "uint256",
							"name": "serviceNumber",
							"type": "uint256"
						},
						{
							"indexed": false,
							"internalType": "uint256",
							"name": "milestoneNumber",
							"type": "uint256"
						},
						{
							"indexed": false,
							"internalType": "address",
							"name": "serviceRequester",
							"type": "address"
						},
						{
							"indexed": false,
							"internalType": "address",
							"name": "serviceProvider",
							"type": "address"
						},
						{
							"indexed": false,
							"internalType": "uint256",
							"name": "totalVoters",
							"type": "uint256"
						}
					],
					"name": "conflictCreated",
					"type": "event"
				},
				{
					"anonymous": false,
					"inputs": [
						{
							"indexed": false,
							"internalType": "uint256",
							"name": "projectNumber",
							"type": "uint256"
						},
						{
							"indexed": false,
							"internalType": "uint256",
							"name": "serviceNumber",
							"type": "uint256"
						},
						{
							"indexed": false,
							"internalType": "uint256",
							"name": "milestoneNumber",
							"type": "uint256"
						},
						{
							"indexed": false,
							"internalType": "address",
							"name": "serviceProvider",
							"type": "address"
						}
					],
					"name": "conflictRaised",
					"type": "event"
				},
				{
					"anonymous": false,
					"inputs": [
						{
							"indexed": false,
							"internalType": "uint256",
							"name": "projectNumber",
							"type": "uint256"
						},
						{
							"indexed": false,
							"internalType": "uint256",
							"name": "serviceNumber",
							"type": "uint256"
						},
						{
							"indexed": false,
							"internalType": "uint256",
							"name": "milestoneNumber",
							"type": "uint256"
						},
						{
							"indexed": false,
							"internalType": "uint8",
							"name": "result",
							"type": "uint8"
						}
					],
					"name": "conflictResult",
					"type": "event"
				},
				{
					"anonymous": false,
					"inputs": [
						{
							"indexed": false,
							"internalType": "uint256",
							"name": "projectNumber",
							"type": "uint256"
						},
						{
							"indexed": false,
							"internalType": "uint256",
							"name": "serviceNumber",
							"type": "uint256"
						},
						{
							"indexed": false,
							"internalType": "uint256",
							"name": "milestoneNumber",
							"type": "uint256"
						},
						{
							"indexed": false,
							"internalType": "address",
							"name": "voter",
							"type": "address"
						},
						{
							"indexed": false,
							"internalType": "uint8",
							"name": "vote",
							"type": "uint8"
						}
					],
					"name": "conflictVoted",
					"type": "event"
				},
				{
					"inputs": [
						{
							"internalType": "uint256",
							"name": "projectNumber",
							"type": "uint256"
						},
						{
							"internalType": "uint256",
							"name": "serviceNumber",
							"type": "uint256"
						},
						{
							"internalType": "uint256",
							"name": "milestoneNumber",
							"type": "uint256"
						},
						{
							"internalType": "string",
							"name": "title",
							"type": "string"
						},
						{
							"internalType": "string",
							"name": "description",
							"type": "string"
						},
						{
							"internalType": "address payable",
							"name": "serviceRequester",
							"type": "address"
						},
						{
							"internalType": "address payable",
							"name": "serviceProvider",
							"type": "address"
						},
						{
							"internalType": "uint256",
							"name": "totalVoters",
							"type": "uint256"
						}
					],
					"name": "createConflict",
					"outputs": [],
					"stateMutability": "nonpayable",
					"type": "function"
				},
				{
					"inputs": [
						{
							"internalType": "uint256",
							"name": "projectNumber",
							"type": "uint256"
						},
						{
							"internalType": "uint256",
							"name": "serviceNumber",
							"type": "uint256"
						},
						{
							"internalType": "uint256",
							"name": "milestoneNumber",
							"type": "uint256"
						}
					],
					"name": "deleteConflict",
					"outputs": [],
					"stateMutability": "nonpayable",
					"type": "function"
				},
				{
					"inputs": [
						{
							"internalType": "uint256",
							"name": "projectNumber",
							"type": "uint256"
						},
						{
							"internalType": "uint256",
							"name": "serviceNumber",
							"type": "uint256"
						},
						{
							"internalType": "uint256",
							"name": "milestoneNumber",
							"type": "uint256"
						}
					],
					"name": "doesConflictExist",
					"outputs": [
						{
							"internalType": "bool",
							"name": "",
							"type": "bool"
						}
					],
					"stateMutability": "view",
					"type": "function"
				},
				{
					"inputs": [
						{
							"internalType": "uint256",
							"name": "projectNumber",
							"type": "uint256"
						},
						{
							"internalType": "uint256",
							"name": "serviceNumber",
							"type": "uint256"
						},
						{
							"internalType": "uint256",
							"name": "milestoneNumber",
							"type": "uint256"
						}
					],
					"name": "getConflictStatus",
					"outputs": [
						{
							"internalType": "enum States.ConflictStatus",
							"name": "",
							"type": "uint8"
						}
					],
					"stateMutability": "view",
					"type": "function"
				},
				{
					"inputs": [
						{
							"internalType": "uint256",
							"name": "projectNumber",
							"type": "uint256"
						},
						{
							"internalType": "uint256",
							"name": "serviceNumber",
							"type": "uint256"
						},
						{
							"internalType": "uint256",
							"name": "milestoneNumber",
							"type": "uint256"
						}
					],
					"name": "getResults",
					"outputs": [
						{
							"internalType": "uint256",
							"name": "",
							"type": "uint256"
						}
					],
					"stateMutability": "view",
					"type": "function"
				},
				{
					"inputs": [
						{
							"internalType": "uint256",
							"name": "projectNumber",
							"type": "uint256"
						},
						{
							"internalType": "uint256",
							"name": "serviceNumber",
							"type": "uint256"
						},
						{
							"internalType": "uint256",
							"name": "milestoneNumber",
							"type": "uint256"
						}
					],
					"name": "getVotesCollected",
					"outputs": [
						{
							"internalType": "uint256",
							"name": "",
							"type": "uint256"
						}
					],
					"stateMutability": "view",
					"type": "function"
				},
				{
					"inputs": [
						{
							"internalType": "uint256",
							"name": "projectNumber",
							"type": "uint256"
						},
						{
							"internalType": "uint256",
							"name": "serviceNumber",
							"type": "uint256"
						},
						{
							"internalType": "uint256",
							"name": "milestoneNumber",
							"type": "uint256"
						}
					],
					"name": "getVotesforProvider",
					"outputs": [
						{
							"internalType": "uint256",
							"name": "",
							"type": "uint256"
						}
					],
					"stateMutability": "view",
					"type": "function"
				},
				{
					"inputs": [
						{
							"internalType": "uint256",
							"name": "projectNumber",
							"type": "uint256"
						},
						{
							"internalType": "uint256",
							"name": "serviceNumber",
							"type": "uint256"
						},
						{
							"internalType": "uint256",
							"name": "milestoneNumber",
							"type": "uint256"
						}
					],
					"name": "getVotesforRequester",
					"outputs": [
						{
							"internalType": "uint256",
							"name": "",
							"type": "uint256"
						}
					],
					"stateMutability": "view",
					"type": "function"
				},
				{
					"inputs": [
						{
							"internalType": "uint256",
							"name": "projectNumber",
							"type": "uint256"
						},
						{
							"internalType": "uint256",
							"name": "serviceNumber",
							"type": "uint256"
						},
						{
							"internalType": "uint256",
							"name": "milestoneNumber",
							"type": "uint256"
						}
					],
					"name": "startVote",
					"outputs": [],
					"stateMutability": "nonpayable",
					"type": "function"
				},
				{
					"inputs": [
						{
							"internalType": "uint256",
							"name": "projectNumber",
							"type": "uint256"
						},
						{
							"internalType": "uint256",
							"name": "serviceNumber",
							"type": "uint256"
						},
						{
							"internalType": "uint256",
							"name": "milestoneNumber",
							"type": "uint256"
						},
						{
							"internalType": "string",
							"name": "title",
							"type": "string"
						},
						{
							"internalType": "string",
							"name": "description",
							"type": "string"
						}
					],
					"name": "updateConflict",
					"outputs": [],
					"stateMutability": "nonpayable",
					"type": "function"
				},
				{
					"inputs": [
						{
							"internalType": "uint256",
							"name": "projectNumber",
							"type": "uint256"
						},
						{
							"internalType": "uint256",
							"name": "serviceNumber",
							"type": "uint256"
						},
						{
							"internalType": "uint256",
							"name": "milestoneNumber",
							"type": "uint256"
						},
						{
							"internalType": "address",
							"name": "_from",
							"type": "address"
						},
						{
							"internalType": "uint8",
							"name": "vote",
							"type": "uint8"
						}
					],
					"name": "voteConflict",
					"outputs": [],
					"stateMutability": "nonpayable",
					"type": "function"
				}
			],
			"devdoc": {
				"kind": "dev",
				"methods": {},
				"version": 1
			},
			"evm": {
				"assembly": "    /* \"contracts/Conflict.sol\":192:9326  contract Conflict {... */\n  mstore(0x40, 0x80)\n  callvalue\n  dup1\n  iszero\n  tag_1\n  jumpi\n  0x00\n  dup1\n  revert\ntag_1:\n  pop\n  dataSize(sub_0)\n  dup1\n  dataOffset(sub_0)\n  0x00\n  codecopy\n  0x00\n  return\nstop\n\nsub_0: assembly {\n        /* \"contracts/Conflict.sol\":192:9326  contract Conflict {... */\n      mstore(0x40, 0x80)\n      callvalue\n      dup1\n      iszero\n      tag_1\n      jumpi\n      0x00\n      dup1\n      revert\n    tag_1:\n      pop\n      jumpi(tag_2, lt(calldatasize, 0x04))\n      shr(0xe0, calldataload(0x00))\n      dup1\n      0x9c87a5e9\n      gt\n      tag_14\n      jumpi\n      dup1\n      0x9c87a5e9\n      eq\n      tag_8\n      jumpi\n      dup1\n      0xc171bdf7\n      eq\n      tag_9\n      jumpi\n      dup1\n      0xcb4389ce\n      eq\n      tag_10\n      jumpi\n      dup1\n      0xd1e992a7\n      eq\n      tag_11\n      jumpi\n      dup1\n      0xe3d87718\n      eq\n      tag_12\n      jumpi\n      dup1\n      0xe62fac27\n      eq\n      tag_13\n      jumpi\n      jump(tag_2)\n    tag_14:\n      dup1\n      0x3f489f\n      eq\n      tag_3\n      jumpi\n      dup1\n      0x0366cef2\n      eq\n      tag_4\n      jumpi\n      dup1\n      0x3c45fe31\n      eq\n      tag_5\n      jumpi\n      dup1\n      0x79712b01\n      eq\n      tag_6\n      jumpi\n      dup1\n      0x9ac78879\n      eq\n      tag_7\n      jumpi\n    tag_2:\n      0x00\n      dup1\n      revert\n        /* \"contracts/Conflict.sol\":4869:5336  function deleteConflict(uint256 projectNumber, uint256 serviceNumber, uint256 milestoneNumber) external ... */\n    tag_3:\n      tag_15\n      0x04\n      dup1\n      calldatasize\n      sub\n      dup2\n      add\n      swap1\n      tag_16\n      swap2\n      swap1\n      tag_17\n      jump\t// in\n    tag_16:\n      tag_18\n      jump\t// in\n    tag_15:\n      stop\n        /* \"contracts/Conflict.sol\":7542:8173  function getResults(uint256 projectNumber, uint256 serviceNumber, uint256 milestoneNumber) public view returns (uint) {... */\n    tag_4:\n      tag_19\n      0x04\n      dup1\n      calldatasize\n      sub\n      dup2\n      add\n      swap1\n      tag_20\n      swap2\n      swap1\n      tag_17\n      jump\t// in\n    tag_20:\n      tag_21\n      jump\t// in\n    tag_19:\n      mload(0x40)\n      tag_22\n      swap2\n      swap1\n      tag_23\n      jump\t// in\n    tag_22:\n      mload(0x40)\n      dup1\n      swap2\n      sub\n      swap1\n      return\n        /* \"contracts/Conflict.sol\":8422:8645  function getVotesCollected(uint256 projectNumber, uint256 serviceNumber, uint256 milestoneNumber) public view returns (uint256) {... */\n    tag_5:\n      tag_24\n      0x04\n      dup1\n      calldatasize\n      sub\n      dup2\n      add\n      swap1\n      tag_25\n      swap2\n      swap1\n      tag_17\n      jump\t// in\n    tag_25:\n      tag_26\n      jump\t// in\n    tag_24:\n      mload(0x40)\n      tag_27\n      swap2\n      swap1\n      tag_23\n      jump\t// in\n    tag_27:\n      mload(0x40)\n      dup1\n      swap2\n      sub\n      swap1\n      return\n        /* \"contracts/Conflict.sol\":9113:9323  function doesConflictExist(uint256 projectNumber, uint256 serviceNumber, uint256 milestoneNumber) public view returns (bool){... */\n    tag_6:\n      tag_28\n      0x04\n      dup1\n      calldatasize\n      sub\n      dup2\n      add\n      swap1\n      tag_29\n      swap2\n      swap1\n      tag_17\n      jump\t// in\n    tag_29:\n      tag_30\n      jump\t// in\n    tag_28:\n      mload(0x40)\n      tag_31\n      swap2\n      swap1\n      tag_32\n      jump\t// in\n    tag_31:\n      mload(0x40)\n      dup1\n      swap2\n      sub\n      swap1\n      return\n        /* \"contracts/Conflict.sol\":8883:9107  function getVotesforProvider(uint256 projectNumber, uint256 serviceNumber, uint256 milestoneNumber) public view returns (uint256) {... */\n    tag_7:\n      tag_33\n      0x04\n      dup1\n      calldatasize\n      sub\n      dup2\n      add\n      swap1\n      tag_34\n      swap2\n      swap1\n      tag_17\n      jump\t// in\n    tag_34:\n      tag_35\n      jump\t// in\n    tag_33:\n      mload(0x40)\n      tag_36\n      swap2\n      swap1\n      tag_23\n      jump\t// in\n    tag_36:\n      mload(0x40)\n      dup1\n      swap2\n      sub\n      swap1\n      return\n        /* \"contracts/Conflict.sol\":5385:5754  function startVote(uint256 projectNumber,uint256 serviceNumber, uint256 milestoneNumber) external ... */\n    tag_8:\n      tag_37\n      0x04\n      dup1\n      calldatasize\n      sub\n      dup2\n      add\n      swap1\n      tag_38\n      swap2\n      swap1\n      tag_17\n      jump\t// in\n    tag_38:\n      tag_39\n      jump\t// in\n    tag_37:\n      stop\n        /* \"contracts/Conflict.sol\":5799:7506  function voteConflict(uint256 projectNumber, uint256 serviceNumber, uint256 milestoneNumber, address _from, uint8 vote) public ... */\n    tag_9:\n      tag_40\n      0x04\n      dup1\n      calldatasize\n      sub\n      dup2\n      add\n      swap1\n      tag_41\n      swap2\n      swap1\n      tag_42\n      jump\t// in\n    tag_41:\n      tag_43\n      jump\t// in\n    tag_40:\n      stop\n        /* \"contracts/Conflict.sol\":8179:8416  function getConflictStatus(uint256 projectNumber, uint256 serviceNumber, uint256 milestoneNumber) public view returns (States.ConflictStatus) {... */\n    tag_10:\n      tag_44\n      0x04\n      dup1\n      calldatasize\n      sub\n      dup2\n      add\n      swap1\n      tag_45\n      swap2\n      swap1\n      tag_17\n      jump\t// in\n    tag_45:\n      tag_46\n      jump\t// in\n    tag_44:\n      mload(0x40)\n      tag_47\n      swap2\n      swap1\n      tag_48\n      jump\t// in\n    tag_47:\n      mload(0x40)\n      dup1\n      swap2\n      sub\n      swap1\n      return\n        /* \"contracts/Conflict.sol\":4326:4821  function updateConflict(uint256 projectNumber, uint256 serviceNumber, uint256 milestoneNumber, string memory title, string memory description) external ... */\n    tag_11:\n      tag_49\n      0x04\n      dup1\n      calldatasize\n      sub\n      dup2\n      add\n      swap1\n      tag_50\n      swap2\n      swap1\n      tag_51\n      jump\t// in\n    tag_50:\n      tag_52\n      jump\t// in\n    tag_49:\n      stop\n        /* \"contracts/Conflict.sol\":8651:8877  function getVotesforRequester(uint256 projectNumber, uint256 serviceNumber, uint256 milestoneNumber) public view returns (uint256) {... */\n    tag_12:\n      tag_53\n      0x04\n      dup1\n      calldatasize\n      sub\n      dup2\n      add\n      swap1\n      tag_54\n      swap2\n      swap1\n      tag_17\n      jump\t// in\n    tag_54:\n      tag_55\n      jump\t// in\n    tag_53:\n      mload(0x40)\n      tag_56\n      swap2\n      swap1\n      tag_23\n      jump\t// in\n    tag_56:\n      mload(0x40)\n      dup1\n      swap2\n      sub\n      swap1\n      return\n        /* \"contracts/Conflict.sol\":2891:4279  function createConflict(uint256 projectNumber, uint256 serviceNumber, uint256 milestoneNumber, string memory title, string memory description, address payable serviceRequester, address payable serviceProvider, uint256 totalVoters) public ... */\n    tag_13:\n      tag_57\n      0x04\n      dup1\n      calldatasize\n      sub\n      dup2\n      add\n      swap1\n      tag_58\n      swap2\n      swap1\n      tag_59\n      jump\t// in\n    tag_58:\n      tag_60\n      jump\t// in\n    tag_57:\n      stop\n        /* \"contracts/Conflict.sol\":4869:5336  function deleteConflict(uint256 projectNumber, uint256 serviceNumber, uint256 milestoneNumber) external ... */\n    tag_18:\n        /* \"contracts/Conflict.sol\":4998:5011  projectNumber */\n      dup3\n        /* \"contracts/Conflict.sol\":5013:5026  serviceNumber */\n      dup3\n        /* \"contracts/Conflict.sol\":5028:5043  milestoneNumber */\n      dup3\n        /* \"contracts/Conflict.sol\":1667:1671  true */\n      0x01\n        /* \"contracts/Conflict.sol\":1599:1671  doesConflictExist(projectNumber, serviceNumber, milestoneNumber) == true */\n      iszero\n      iszero\n        /* \"contracts/Conflict.sol\":1599:1663  doesConflictExist(projectNumber, serviceNumber, milestoneNumber) */\n      tag_62\n        /* \"contracts/Conflict.sol\":1617:1630  projectNumber */\n      dup5\n        /* \"contracts/Conflict.sol\":1632:1645  serviceNumber */\n      dup5\n        /* \"contracts/Conflict.sol\":1647:1662  milestoneNumber */\n      dup5\n        /* \"contracts/Conflict.sol\":1599:1616  doesConflictExist */\n      tag_30\n        /* \"contracts/Conflict.sol\":1599:1663  doesConflictExist(projectNumber, serviceNumber, milestoneNumber) */\n      jump\t// in\n    tag_62:\n        /* \"contracts/Conflict.sol\":1599:1671  doesConflictExist(projectNumber, serviceNumber, milestoneNumber) == true */\n      iszero\n      iszero\n      eq\n        /* \"contracts/Conflict.sol\":1591:1705  require(doesConflictExist(projectNumber, serviceNumber, milestoneNumber) == true, \"This Conflict does not exist.\") */\n      tag_63\n      jumpi\n      mload(0x40)\n      0x08c379a000000000000000000000000000000000000000000000000000000000\n      dup2\n      mstore\n      0x04\n      add\n      tag_64\n      swap1\n      tag_65\n      jump\t// in\n    tag_64:\n      mload(0x40)\n      dup1\n      swap2\n      sub\n      swap1\n      revert\n    tag_63:\n        /* \"contracts/Conflict.sol\":5061:5074  projectNumber */\n      dup6\n        /* \"contracts/Conflict.sol\":5076:5089  serviceNumber */\n      dup6\n        /* \"contracts/Conflict.sol\":5091:5106  milestoneNumber */\n      dup6\n        /* \"contracts/Conflict.sol\":5107:5136  States.ConflictStatus.created */\n      0x00\n        /* \"contracts/Conflict.sol\":1938:1943  state */\n      dup1\n        /* \"contracts/Conflict.sol\":1863:1943  conflicts[projectNumber][serviceNumber][milestoneNumber].conflictStatus == state */\n      0x03\n      dup2\n      gt\n      iszero\n      tag_67\n      jumpi\n      tag_68\n      tag_69\n      jump\t// in\n    tag_68:\n    tag_67:\n        /* \"contracts/Conflict.sol\":1863:1872  conflicts */\n      0x00\n        /* \"contracts/Conflict.sol\":1863:1887  conflicts[projectNumber] */\n      dup1\n        /* \"contracts/Conflict.sol\":1873:1886  projectNumber */\n      dup7\n        /* \"contracts/Conflict.sol\":1863:1887  conflicts[projectNumber] */\n      dup2\n      mstore\n      0x20\n      add\n      swap1\n      dup2\n      mstore\n      0x20\n      add\n      0x00\n      keccak256\n        /* \"contracts/Conflict.sol\":1863:1902  conflicts[projectNumber][serviceNumber] */\n      0x00\n        /* \"contracts/Conflict.sol\":1888:1901  serviceNumber */\n      dup6\n        /* \"contracts/Conflict.sol\":1863:1902  conflicts[projectNumber][serviceNumber] */\n      dup2\n      mstore\n      0x20\n      add\n      swap1\n      dup2\n      mstore\n      0x20\n      add\n      0x00\n      keccak256\n        /* \"contracts/Conflict.sol\":1863:1919  conflicts[projectNumber][serviceNumber][milestoneNumber] */\n      0x00\n        /* \"contracts/Conflict.sol\":1903:1918  milestoneNumber */\n      dup5\n        /* \"contracts/Conflict.sol\":1863:1919  conflicts[projectNumber][serviceNumber][milestoneNumber] */\n      dup2\n      mstore\n      0x20\n      add\n      swap1\n      dup2\n      mstore\n      0x20\n      add\n      0x00\n      keccak256\n        /* \"contracts/Conflict.sol\":1863:1934  conflicts[projectNumber][serviceNumber][milestoneNumber].conflictStatus */\n      0x06\n      add\n      0x14\n      swap1\n      sload\n      swap1\n      0x0100\n      exp\n      swap1\n      div\n      0xff\n      and\n        /* \"contracts/Conflict.sol\":1863:1943  conflicts[projectNumber][serviceNumber][milestoneNumber].conflictStatus == state */\n      0x03\n      dup2\n      gt\n      iszero\n      tag_70\n      jumpi\n      tag_71\n      tag_69\n      jump\t// in\n    tag_71:\n    tag_70:\n      eq\n        /* \"contracts/Conflict.sol\":1855:1980  require(conflicts[projectNumber][serviceNumber][milestoneNumber].conflictStatus == state, \"Cannot carry out this operation!\") */\n      tag_72\n      jumpi\n      mload(0x40)\n      0x08c379a000000000000000000000000000000000000000000000000000000000\n      dup2\n      mstore\n      0x04\n      add\n      tag_73\n      swap1\n      tag_74\n      jump\t// in\n    tag_73:\n      mload(0x40)\n      dup1\n      swap2\n      sub\n      swap1\n      revert\n    tag_72:\n        /* \"contracts/Conflict.sol\":5217:5222  false */\n      0x00\n        /* \"contracts/Conflict.sol\":5152:5161  conflicts */\n      dup1\n        /* \"contracts/Conflict.sol\":5152:5176  conflicts[projectNumber] */\n      0x00\n        /* \"contracts/Conflict.sol\":5162:5175  projectNumber */\n      dup13\n        /* \"contracts/Conflict.sol\":5152:5176  conflicts[projectNumber] */\n      dup2\n      mstore\n      0x20\n      add\n      swap1\n      dup2\n      mstore\n      0x20\n      add\n      0x00\n      keccak256\n        /* \"contracts/Conflict.sol\":5152:5191  conflicts[projectNumber][serviceNumber] */\n      0x00\n        /* \"contracts/Conflict.sol\":5177:5190  serviceNumber */\n      dup12\n        /* \"contracts/Conflict.sol\":5152:5191  conflicts[projectNumber][serviceNumber] */\n      dup2\n      mstore\n      0x20\n      add\n      swap1\n      dup2\n      mstore\n      0x20\n      add\n      0x00\n      keccak256\n        /* \"contracts/Conflict.sol\":5152:5208  conflicts[projectNumber][serviceNumber][milestoneNumber] */\n      0x00\n        /* \"contracts/Conflict.sol\":5192:5207  milestoneNumber */\n      dup11\n        /* \"contracts/Conflict.sol\":5152:5208  conflicts[projectNumber][serviceNumber][milestoneNumber] */\n      dup2\n      mstore\n      0x20\n      add\n      swap1\n      dup2\n      mstore\n      0x20\n      add\n      0x00\n      keccak256\n        /* \"contracts/Conflict.sol\":5152:5214  conflicts[projectNumber][serviceNumber][milestoneNumber].exist */\n      0x0b\n      add\n      0x00\n        /* \"contracts/Conflict.sol\":5152:5222  conflicts[projectNumber][serviceNumber][milestoneNumber].exist = false */\n      0x0100\n      exp\n      dup2\n      sload\n      dup2\n      0xff\n      mul\n      not\n      and\n      swap1\n      dup4\n      iszero\n      iszero\n      mul\n      or\n      swap1\n      sstore\n      pop\n        /* \"contracts/Conflict.sol\":5234:5323  setState(projectNumber, serviceNumber, milestoneNumber, States.ConflictStatus.terminated) */\n      tag_76\n        /* \"contracts/Conflict.sol\":5243:5256  projectNumber */\n      dup11\n        /* \"contracts/Conflict.sol\":5258:5271  serviceNumber */\n      dup11\n        /* \"contracts/Conflict.sol\":5273:5288  milestoneNumber */\n      dup11\n        /* \"contracts/Conflict.sol\":5290:5322  States.ConflictStatus.terminated */\n      0x03\n        /* \"contracts/Conflict.sol\":5234:5242  setState */\n      tag_77\n        /* \"contracts/Conflict.sol\":5234:5323  setState(projectNumber, serviceNumber, milestoneNumber, States.ConflictStatus.terminated) */\n      jump\t// in\n    tag_76:\n        /* \"contracts/Conflict.sol\":1715:1716  _ */\n      pop\n      pop\n      pop\n      pop\n        /* \"contracts/Conflict.sol\":4869:5336  function deleteConflict(uint256 projectNumber, uint256 serviceNumber, uint256 milestoneNumber) external ... */\n      pop\n      pop\n      pop\n      pop\n      pop\n      pop\n      jump\t// out\n        /* \"contracts/Conflict.sol\":7542:8173  function getResults(uint256 projectNumber, uint256 serviceNumber, uint256 milestoneNumber) public view returns (uint) {... */\n    tag_21:\n        /* \"contracts/Conflict.sol\":7654:7658  uint */\n      0x00\n        /* \"contracts/Conflict.sol\":7753:7762  conflicts */\n      dup1\n        /* \"contracts/Conflict.sol\":7753:7777  conflicts[projectNumber] */\n      0x00\n        /* \"contracts/Conflict.sol\":7763:7776  projectNumber */\n      dup6\n        /* \"contracts/Conflict.sol\":7753:7777  conflicts[projectNumber] */\n      dup2\n      mstore\n      0x20\n      add\n      swap1\n      dup2\n      mstore\n      0x20\n      add\n      0x00\n      keccak256\n        /* \"contracts/Conflict.sol\":7753:7792  conflicts[projectNumber][serviceNumber] */\n      0x00\n        /* \"contracts/Conflict.sol\":7778:7791  serviceNumber */\n      dup5\n        /* \"contracts/Conflict.sol\":7753:7792  conflicts[projectNumber][serviceNumber] */\n      dup2\n      mstore\n      0x20\n      add\n      swap1\n      dup2\n      mstore\n      0x20\n      add\n      0x00\n      keccak256\n        /* \"contracts/Conflict.sol\":7753:7809  conflicts[projectNumber][serviceNumber][milestoneNumber] */\n      0x00\n        /* \"contracts/Conflict.sol\":7793:7808  milestoneNumber */\n      dup4\n        /* \"contracts/Conflict.sol\":7753:7809  conflicts[projectNumber][serviceNumber][milestoneNumber] */\n      dup2\n      mstore\n      0x20\n      add\n      swap1\n      dup2\n      mstore\n      0x20\n      add\n      0x00\n      keccak256\n        /* \"contracts/Conflict.sol\":7753:7816  conflicts[projectNumber][serviceNumber][milestoneNumber].voters */\n      0x07\n      add\n      sload\n        /* \"contracts/Conflict.sol\":7678:7687  conflicts */\n      0x00\n        /* \"contracts/Conflict.sol\":7678:7702  conflicts[projectNumber] */\n      dup1\n        /* \"contracts/Conflict.sol\":7688:7701  projectNumber */\n      dup7\n        /* \"contracts/Conflict.sol\":7678:7702  conflicts[projectNumber] */\n      dup2\n      mstore\n      0x20\n      add\n      swap1\n      dup2\n      mstore\n      0x20\n      add\n      0x00\n      keccak256\n        /* \"contracts/Conflict.sol\":7678:7717  conflicts[projectNumber][serviceNumber] */\n      0x00\n        /* \"contracts/Conflict.sol\":7703:7716  serviceNumber */\n      dup6\n        /* \"contracts/Conflict.sol\":7678:7717  conflicts[projectNumber][serviceNumber] */\n      dup2\n      mstore\n      0x20\n      add\n      swap1\n      dup2\n      mstore\n      0x20\n      add\n      0x00\n      keccak256\n        /* \"contracts/Conflict.sol\":7678:7734  conflicts[projectNumber][serviceNumber][milestoneNumber] */\n      0x00\n        /* \"contracts/Conflict.sol\":7718:7733  milestoneNumber */\n      dup5\n        /* \"contracts/Conflict.sol\":7678:7734  conflicts[projectNumber][serviceNumber][milestoneNumber] */\n      dup2\n      mstore\n      0x20\n      add\n      swap1\n      dup2\n      mstore\n      0x20\n      add\n      0x00\n      keccak256\n        /* \"contracts/Conflict.sol\":7678:7749  conflicts[projectNumber][serviceNumber][milestoneNumber].votesCollected */\n      0x08\n      add\n      sload\n        /* \"contracts/Conflict.sol\":7678:7816  conflicts[projectNumber][serviceNumber][milestoneNumber].votesCollected == conflicts[projectNumber][serviceNumber][milestoneNumber].voters */\n      eq\n        /* \"contracts/Conflict.sol\":7670:7895  require(conflicts[projectNumber][serviceNumber][milestoneNumber].votesCollected == conflicts[projectNumber][serviceNumber][milestoneNumber].voters, \"Not everyone has voted, please prompt all other members of project to vote\") */\n      tag_79\n      jumpi\n      mload(0x40)\n      0x08c379a000000000000000000000000000000000000000000000000000000000\n      dup2\n      mstore\n      0x04\n      add\n      tag_80\n      swap1\n      tag_81\n      jump\t// in\n    tag_80:\n      mload(0x40)\n      dup1\n      swap2\n      sub\n      swap1\n      revert\n    tag_79:\n        /* \"contracts/Conflict.sol\":7988:8019  States.ConflictStatus.completed */\n      0x02\n        /* \"contracts/Conflict.sol\":7913:8019  conflicts[projectNumber][serviceNumber][milestoneNumber].conflictStatus == States.ConflictStatus.completed */\n      0x03\n      dup2\n      gt\n      iszero\n      tag_82\n      jumpi\n      tag_83\n      tag_69\n      jump\t// in\n    tag_83:\n    tag_82:\n        /* \"contracts/Conflict.sol\":7913:7922  conflicts */\n      0x00\n        /* \"contracts/Conflict.sol\":7913:7937  conflicts[projectNumber] */\n      dup1\n        /* \"contracts/Conflict.sol\":7923:7936  projectNumber */\n      dup7\n        /* \"contracts/Conflict.sol\":7913:7937  conflicts[projectNumber] */\n      dup2\n      mstore\n      0x20\n      add\n      swap1\n      dup2\n      mstore\n      0x20\n      add\n      0x00\n      keccak256\n        /* \"contracts/Conflict.sol\":7913:7952  conflicts[projectNumber][serviceNumber] */\n      0x00\n        /* \"contracts/Conflict.sol\":7938:7951  serviceNumber */\n      dup6\n        /* \"contracts/Conflict.sol\":7913:7952  conflicts[projectNumber][serviceNumber] */\n      dup2\n      mstore\n      0x20\n      add\n      swap1\n      dup2\n      mstore\n      0x20\n      add\n      0x00\n      keccak256\n        /* \"contracts/Conflict.sol\":7913:7969  conflicts[projectNumber][serviceNumber][milestoneNumber] */\n      0x00\n        /* \"contracts/Conflict.sol\":7953:7968  milestoneNumber */\n      dup5\n        /* \"contracts/Conflict.sol\":7913:7969  conflicts[projectNumber][serviceNumber][milestoneNumber] */\n      dup2\n      mstore\n      0x20\n      add\n      swap1\n      dup2\n      mstore\n      0x20\n      add\n      0x00\n      keccak256\n        /* \"contracts/Conflict.sol\":7913:7984  conflicts[projectNumber][serviceNumber][milestoneNumber].conflictStatus */\n      0x06\n      add\n      0x14\n      swap1\n      sload\n      swap1\n      0x0100\n      exp\n      swap1\n      div\n      0xff\n      and\n        /* \"contracts/Conflict.sol\":7913:8019  conflicts[projectNumber][serviceNumber][milestoneNumber].conflictStatus == States.ConflictStatus.completed */\n      0x03\n      dup2\n      gt\n      iszero\n      tag_84\n      jumpi\n      tag_85\n      tag_69\n      jump\t// in\n    tag_85:\n    tag_84:\n      eq\n        /* \"contracts/Conflict.sol\":7905:8085  require(conflicts[projectNumber][serviceNumber][milestoneNumber].conflictStatus == States.ConflictStatus.completed, \"Voting has not been completed yet. Please wait for it to end.\") */\n      tag_86\n      jumpi\n      mload(0x40)\n      0x08c379a000000000000000000000000000000000000000000000000000000000\n      dup2\n      mstore\n      0x04\n      add\n      tag_87\n      swap1\n      tag_88\n      jump\t// in\n    tag_87:\n      mload(0x40)\n      dup1\n      swap2\n      sub\n      swap1\n      revert\n    tag_86:\n        /* \"contracts/Conflict.sol\":8103:8112  conflicts */\n      0x00\n        /* \"contracts/Conflict.sol\":8103:8127  conflicts[projectNumber] */\n      dup1\n        /* \"contracts/Conflict.sol\":8113:8126  projectNumber */\n      dup6\n        /* \"contracts/Conflict.sol\":8103:8127  conflicts[projectNumber] */\n      dup2\n      mstore\n      0x20\n      add\n      swap1\n      dup2\n      mstore\n      0x20\n      add\n      0x00\n      keccak256\n        /* \"contracts/Conflict.sol\":8103:8142  conflicts[projectNumber][serviceNumber] */\n      0x00\n        /* \"contracts/Conflict.sol\":8128:8141  serviceNumber */\n      dup5\n        /* \"contracts/Conflict.sol\":8103:8142  conflicts[projectNumber][serviceNumber] */\n      dup2\n      mstore\n      0x20\n      add\n      swap1\n      dup2\n      mstore\n      0x20\n      add\n      0x00\n      keccak256\n        /* \"contracts/Conflict.sol\":8103:8159  conflicts[projectNumber][serviceNumber][milestoneNumber] */\n      0x00\n        /* \"contracts/Conflict.sol\":8143:8158  milestoneNumber */\n      dup4\n        /* \"contracts/Conflict.sol\":8103:8159  conflicts[projectNumber][serviceNumber][milestoneNumber] */\n      dup2\n      mstore\n      0x20\n      add\n      swap1\n      dup2\n      mstore\n      0x20\n      add\n      0x00\n      keccak256\n        /* \"contracts/Conflict.sol\":8103:8166  conflicts[projectNumber][serviceNumber][milestoneNumber].result */\n      0x0b\n      add\n      0x01\n      swap1\n      sload\n      swap1\n      0x0100\n      exp\n      swap1\n      div\n      0xff\n      and\n        /* \"contracts/Conflict.sol\":8096:8166  return conflicts[projectNumber][serviceNumber][milestoneNumber].result */\n      0xff\n      and\n      swap1\n      pop\n        /* \"contracts/Conflict.sol\":7542:8173  function getResults(uint256 projectNumber, uint256 serviceNumber, uint256 milestoneNumber) public view returns (uint) {... */\n      swap4\n      swap3\n      pop\n      pop\n      pop\n      jump\t// out\n        /* \"contracts/Conflict.sol\":8422:8645  function getVotesCollected(uint256 projectNumber, uint256 serviceNumber, uint256 milestoneNumber) public view returns (uint256) {... */\n    tag_26:\n        /* \"contracts/Conflict.sol\":8541:8548  uint256 */\n      0x00\n        /* \"contracts/Conflict.sol\":8567:8576  conflicts */\n      dup1\n        /* \"contracts/Conflict.sol\":8567:8591  conflicts[projectNumber] */\n      0x00\n        /* \"contracts/Conflict.sol\":8577:8590  projectNumber */\n      dup6\n        /* \"contracts/Conflict.sol\":8567:8591  conflicts[projectNumber] */\n      dup2\n      mstore\n      0x20\n      add\n      swap1\n      dup2\n      mstore\n      0x20\n      add\n      0x00\n      keccak256\n        /* \"contracts/Conflict.sol\":8567:8606  conflicts[projectNumber][serviceNumber] */\n      0x00\n        /* \"contracts/Conflict.sol\":8592:8605  serviceNumber */\n      dup5\n        /* \"contracts/Conflict.sol\":8567:8606  conflicts[projectNumber][serviceNumber] */\n      dup2\n      mstore\n      0x20\n      add\n      swap1\n      dup2\n      mstore\n      0x20\n      add\n      0x00\n      keccak256\n        /* \"contracts/Conflict.sol\":8567:8623  conflicts[projectNumber][serviceNumber][milestoneNumber] */\n      0x00\n        /* \"contracts/Conflict.sol\":8607:8622  milestoneNumber */\n      dup4\n        /* \"contracts/Conflict.sol\":8567:8623  conflicts[projectNumber][serviceNumber][milestoneNumber] */\n      dup2\n      mstore\n      0x20\n      add\n      swap1\n      dup2\n      mstore\n      0x20\n      add\n      0x00\n      keccak256\n        /* \"contracts/Conflict.sol\":8567:8638  conflicts[projectNumber][serviceNumber][milestoneNumber].votesCollected */\n      0x08\n      add\n      sload\n        /* \"contracts/Conflict.sol\":8560:8638  return conflicts[projectNumber][serviceNumber][milestoneNumber].votesCollected */\n      swap1\n      pop\n        /* \"contracts/Conflict.sol\":8422:8645  function getVotesCollected(uint256 projectNumber, uint256 serviceNumber, uint256 milestoneNumber) public view returns (uint256) {... */\n      swap4\n      swap3\n      pop\n      pop\n      pop\n      jump\t// out\n        /* \"contracts/Conflict.sol\":9113:9323  function doesConflictExist(uint256 projectNumber, uint256 serviceNumber, uint256 milestoneNumber) public view returns (bool){... */\n    tag_30:\n        /* \"contracts/Conflict.sol\":9232:9236  bool */\n      0x00\n        /* \"contracts/Conflict.sol\":9254:9263  conflicts */\n      dup1\n        /* \"contracts/Conflict.sol\":9254:9278  conflicts[projectNumber] */\n      0x00\n        /* \"contracts/Conflict.sol\":9264:9277  projectNumber */\n      dup6\n        /* \"contracts/Conflict.sol\":9254:9278  conflicts[projectNumber] */\n      dup2\n      mstore\n      0x20\n      add\n      swap1\n      dup2\n      mstore\n      0x20\n      add\n      0x00\n      keccak256\n        /* \"contracts/Conflict.sol\":9254:9293  conflicts[projectNumber][serviceNumber] */\n      0x00\n        /* \"contracts/Conflict.sol\":9279:9292  serviceNumber */\n      dup5\n        /* \"contracts/Conflict.sol\":9254:9293  conflicts[projectNumber][serviceNumber] */\n      dup2\n      mstore\n      0x20\n      add\n      swap1\n      dup2\n      mstore\n      0x20\n      add\n      0x00\n      keccak256\n        /* \"contracts/Conflict.sol\":9254:9310  conflicts[projectNumber][serviceNumber][milestoneNumber] */\n      0x00\n        /* \"contracts/Conflict.sol\":9294:9309  milestoneNumber */\n      dup4\n        /* \"contracts/Conflict.sol\":9254:9310  conflicts[projectNumber][serviceNumber][milestoneNumber] */\n      dup2\n      mstore\n      0x20\n      add\n      swap1\n      dup2\n      mstore\n      0x20\n      add\n      0x00\n      keccak256\n        /* \"contracts/Conflict.sol\":9254:9316  conflicts[projectNumber][serviceNumber][milestoneNumber].exist */\n      0x0b\n      add\n      0x00\n      swap1\n      sload\n      swap1\n      0x0100\n      exp\n      swap1\n      div\n      0xff\n      and\n        /* \"contracts/Conflict.sol\":9247:9316  return conflicts[projectNumber][serviceNumber][milestoneNumber].exist */\n      swap1\n      pop\n        /* \"contracts/Conflict.sol\":9113:9323  function doesConflictExist(uint256 projectNumber, uint256 serviceNumber, uint256 milestoneNumber) public view returns (bool){... */\n      swap4\n      swap3\n      pop\n      pop\n      pop\n      jump\t// out\n        /* \"contracts/Conflict.sol\":8883:9107  function getVotesforProvider(uint256 projectNumber, uint256 serviceNumber, uint256 milestoneNumber) public view returns (uint256) {... */\n    tag_35:\n        /* \"contracts/Conflict.sol\":9004:9011  uint256 */\n      0x00\n        /* \"contracts/Conflict.sol\":9030:9039  conflicts */\n      dup1\n        /* \"contracts/Conflict.sol\":9030:9054  conflicts[projectNumber] */\n      0x00\n        /* \"contracts/Conflict.sol\":9040:9053  projectNumber */\n      dup6\n        /* \"contracts/Conflict.sol\":9030:9054  conflicts[projectNumber] */\n      dup2\n      mstore\n      0x20\n      add\n      swap1\n      dup2\n      mstore\n      0x20\n      add\n      0x00\n      keccak256\n        /* \"contracts/Conflict.sol\":9030:9069  conflicts[projectNumber][serviceNumber] */\n      0x00\n        /* \"contracts/Conflict.sol\":9055:9068  serviceNumber */\n      dup5\n        /* \"contracts/Conflict.sol\":9030:9069  conflicts[projectNumber][serviceNumber] */\n      dup2\n      mstore\n      0x20\n      add\n      swap1\n      dup2\n      mstore\n      0x20\n      add\n      0x00\n      keccak256\n        /* \"contracts/Conflict.sol\":9030:9086  conflicts[projectNumber][serviceNumber][milestoneNumber] */\n      0x00\n        /* \"contracts/Conflict.sol\":9070:9085  milestoneNumber */\n      dup4\n        /* \"contracts/Conflict.sol\":9030:9086  conflicts[projectNumber][serviceNumber][milestoneNumber] */\n      dup2\n      mstore\n      0x20\n      add\n      swap1\n      dup2\n      mstore\n      0x20\n      add\n      0x00\n      keccak256\n        /* \"contracts/Conflict.sol\":9030:9100  conflicts[projectNumber][serviceNumber][milestoneNumber].providerVotes */\n      0x0a\n      add\n      sload\n        /* \"contracts/Conflict.sol\":9023:9100  return conflicts[projectNumber][serviceNumber][milestoneNumber].providerVotes */\n      swap1\n      pop\n        /* \"contracts/Conflict.sol\":8883:9107  function getVotesforProvider(uint256 projectNumber, uint256 serviceNumber, uint256 milestoneNumber) public view returns (uint256) {... */\n      swap4\n      swap3\n      pop\n      pop\n      pop\n      jump\t// out\n        /* \"contracts/Conflict.sol\":5385:5754  function startVote(uint256 projectNumber,uint256 serviceNumber, uint256 milestoneNumber) external ... */\n    tag_39:\n        /* \"contracts/Conflict.sol\":5508:5521  projectNumber */\n      dup3\n        /* \"contracts/Conflict.sol\":5523:5536  serviceNumber */\n      dup3\n        /* \"contracts/Conflict.sol\":5538:5553  milestoneNumber */\n      dup3\n        /* \"contracts/Conflict.sol\":1667:1671  true */\n      0x01\n        /* \"contracts/Conflict.sol\":1599:1671  doesConflictExist(projectNumber, serviceNumber, milestoneNumber) == true */\n      iszero\n      iszero\n        /* \"contracts/Conflict.sol\":1599:1663  doesConflictExist(projectNumber, serviceNumber, milestoneNumber) */\n      tag_93\n        /* \"contracts/Conflict.sol\":1617:1630  projectNumber */\n      dup5\n        /* \"contracts/Conflict.sol\":1632:1645  serviceNumber */\n      dup5\n        /* \"contracts/Conflict.sol\":1647:1662  milestoneNumber */\n      dup5\n        /* \"contracts/Conflict.sol\":1599:1616  doesConflictExist */\n      tag_30\n        /* \"contracts/Conflict.sol\":1599:1663  doesConflictExist(projectNumber, serviceNumber, milestoneNumber) */\n      jump\t// in\n    tag_93:\n        /* \"contracts/Conflict.sol\":1599:1671  doesConflictExist(projectNumber, serviceNumber, milestoneNumber) == true */\n      iszero\n      iszero\n      eq\n        /* \"contracts/Conflict.sol\":1591:1705  require(doesConflictExist(projectNumber, serviceNumber, milestoneNumber) == true, \"This Conflict does not exist.\") */\n      tag_94\n      jumpi\n      mload(0x40)\n      0x08c379a000000000000000000000000000000000000000000000000000000000\n      dup2\n      mstore\n      0x04\n      add\n      tag_95\n      swap1\n      tag_65\n      jump\t// in\n    tag_95:\n      mload(0x40)\n      dup1\n      swap2\n      sub\n      swap1\n      revert\n    tag_94:\n        /* \"contracts/Conflict.sol\":5571:5584  projectNumber */\n      dup6\n        /* \"contracts/Conflict.sol\":5586:5599  serviceNumber */\n      dup6\n        /* \"contracts/Conflict.sol\":5601:5616  milestoneNumber */\n      dup6\n        /* \"contracts/Conflict.sol\":5617:5646  States.ConflictStatus.created */\n      0x00\n        /* \"contracts/Conflict.sol\":1938:1943  state */\n      dup1\n        /* \"contracts/Conflict.sol\":1863:1943  conflicts[projectNumber][serviceNumber][milestoneNumber].conflictStatus == state */\n      0x03\n      dup2\n      gt\n      iszero\n      tag_97\n      jumpi\n      tag_98\n      tag_69\n      jump\t// in\n    tag_98:\n    tag_97:\n        /* \"contracts/Conflict.sol\":1863:1872  conflicts */\n      0x00\n        /* \"contracts/Conflict.sol\":1863:1887  conflicts[projectNumber] */\n      dup1\n        /* \"contracts/Conflict.sol\":1873:1886  projectNumber */\n      dup7\n        /* \"contracts/Conflict.sol\":1863:1887  conflicts[projectNumber] */\n      dup2\n      mstore\n      0x20\n      add\n      swap1\n      dup2\n      mstore\n      0x20\n      add\n      0x00\n      keccak256\n        /* \"contracts/Conflict.sol\":1863:1902  conflicts[projectNumber][serviceNumber] */\n      0x00\n        /* \"contracts/Conflict.sol\":1888:1901  serviceNumber */\n      dup6\n        /* \"contracts/Conflict.sol\":1863:1902  conflicts[projectNumber][serviceNumber] */\n      dup2\n      mstore\n      0x20\n      add\n      swap1\n      dup2\n      mstore\n      0x20\n      add\n      0x00\n      keccak256\n        /* \"contracts/Conflict.sol\":1863:1919  conflicts[projectNumber][serviceNumber][milestoneNumber] */\n      0x00\n        /* \"contracts/Conflict.sol\":1903:1918  milestoneNumber */\n      dup5\n        /* \"contracts/Conflict.sol\":1863:1919  conflicts[projectNumber][serviceNumber][milestoneNumber] */\n      dup2\n      mstore\n      0x20\n      add\n      swap1\n      dup2\n      mstore\n      0x20\n      add\n      0x00\n      keccak256\n        /* \"contracts/Conflict.sol\":1863:1934  conflicts[projectNumber][serviceNumber][milestoneNumber].conflictStatus */\n      0x06\n      add\n      0x14\n      swap1\n      sload\n      swap1\n      0x0100\n      exp\n      swap1\n      div\n      0xff\n      and\n        /* \"contracts/Conflict.sol\":1863:1943  conflicts[projectNumber][serviceNumber][milestoneNumber].conflictStatus == state */\n      0x03\n      dup2\n      gt\n      iszero\n      tag_99\n      jumpi\n      tag_100\n      tag_69\n      jump\t// in\n    tag_100:\n    tag_99:\n      eq\n        /* \"contracts/Conflict.sol\":1855:1980  require(conflicts[projectNumber][serviceNumber][milestoneNumber].conflictStatus == state, \"Cannot carry out this operation!\") */\n      tag_101\n      jumpi\n      mload(0x40)\n      0x08c379a000000000000000000000000000000000000000000000000000000000\n      dup2\n      mstore\n      0x04\n      add\n      tag_102\n      swap1\n      tag_74\n      jump\t// in\n    tag_102:\n      mload(0x40)\n      dup1\n      swap2\n      sub\n      swap1\n      revert\n    tag_101:\n        /* \"contracts/Conflict.sol\":5662:5747  setState(projectNumber, serviceNumber, milestoneNumber, States.ConflictStatus.voting) */\n      tag_104\n        /* \"contracts/Conflict.sol\":5671:5684  projectNumber */\n      dup11\n        /* \"contracts/Conflict.sol\":5686:5699  serviceNumber */\n      dup11\n        /* \"contracts/Conflict.sol\":5701:5716  milestoneNumber */\n      dup11\n        /* \"contracts/Conflict.sol\":5718:5746  States.ConflictStatus.voting */\n      0x01\n        /* \"contracts/Conflict.sol\":5662:5670  setState */\n      tag_77\n        /* \"contracts/Conflict.sol\":5662:5747  setState(projectNumber, serviceNumber, milestoneNumber, States.ConflictStatus.voting) */\n      jump\t// in\n    tag_104:\n        /* \"contracts/Conflict.sol\":1715:1716  _ */\n      pop\n      pop\n      pop\n      pop\n        /* \"contracts/Conflict.sol\":5385:5754  function startVote(uint256 projectNumber,uint256 serviceNumber, uint256 milestoneNumber) external ... */\n      pop\n      pop\n      pop\n      pop\n      pop\n      pop\n      jump\t// out\n        /* \"contracts/Conflict.sol\":5799:7506  function voteConflict(uint256 projectNumber, uint256 serviceNumber, uint256 milestoneNumber, address _from, uint8 vote) public ... */\n    tag_43:\n        /* \"contracts/Conflict.sol\":5951:5964  projectNumber */\n      dup5\n        /* \"contracts/Conflict.sol\":5966:5979  serviceNumber */\n      dup5\n        /* \"contracts/Conflict.sol\":5981:5996  milestoneNumber */\n      dup5\n        /* \"contracts/Conflict.sol\":1667:1671  true */\n      0x01\n        /* \"contracts/Conflict.sol\":1599:1671  doesConflictExist(projectNumber, serviceNumber, milestoneNumber) == true */\n      iszero\n      iszero\n        /* \"contracts/Conflict.sol\":1599:1663  doesConflictExist(projectNumber, serviceNumber, milestoneNumber) */\n      tag_106\n        /* \"contracts/Conflict.sol\":1617:1630  projectNumber */\n      dup5\n        /* \"contracts/Conflict.sol\":1632:1645  serviceNumber */\n      dup5\n        /* \"contracts/Conflict.sol\":1647:1662  milestoneNumber */\n      dup5\n        /* \"contracts/Conflict.sol\":1599:1616  doesConflictExist */\n      tag_30\n        /* \"contracts/Conflict.sol\":1599:1663  doesConflictExist(projectNumber, serviceNumber, milestoneNumber) */\n      jump\t// in\n    tag_106:\n        /* \"contracts/Conflict.sol\":1599:1671  doesConflictExist(projectNumber, serviceNumber, milestoneNumber) == true */\n      iszero\n      iszero\n      eq\n        /* \"contracts/Conflict.sol\":1591:1705  require(doesConflictExist(projectNumber, serviceNumber, milestoneNumber) == true, \"This Conflict does not exist.\") */\n      tag_107\n      jumpi\n      mload(0x40)\n      0x08c379a000000000000000000000000000000000000000000000000000000000\n      dup2\n      mstore\n      0x04\n      add\n      tag_108\n      swap1\n      tag_65\n      jump\t// in\n    tag_108:\n      mload(0x40)\n      dup1\n      swap2\n      sub\n      swap1\n      revert\n    tag_107:\n        /* \"contracts/Conflict.sol\":6014:6027  projectNumber */\n      dup8\n        /* \"contracts/Conflict.sol\":6029:6042  serviceNumber */\n      dup8\n        /* \"contracts/Conflict.sol\":6044:6059  milestoneNumber */\n      dup8\n        /* \"contracts/Conflict.sol\":6060:6088  States.ConflictStatus.voting */\n      0x01\n        /* \"contracts/Conflict.sol\":1938:1943  state */\n      dup1\n        /* \"contracts/Conflict.sol\":1863:1943  conflicts[projectNumber][serviceNumber][milestoneNumber].conflictStatus == state */\n      0x03\n      dup2\n      gt\n      iszero\n      tag_110\n      jumpi\n      tag_111\n      tag_69\n      jump\t// in\n    tag_111:\n    tag_110:\n        /* \"contracts/Conflict.sol\":1863:1872  conflicts */\n      0x00\n        /* \"contracts/Conflict.sol\":1863:1887  conflicts[projectNumber] */\n      dup1\n        /* \"contracts/Conflict.sol\":1873:1886  projectNumber */\n      dup7\n        /* \"contracts/Conflict.sol\":1863:1887  conflicts[projectNumber] */\n      dup2\n      mstore\n      0x20\n      add\n      swap1\n      dup2\n      mstore\n      0x20\n      add\n      0x00\n      keccak256\n        /* \"contracts/Conflict.sol\":1863:1902  conflicts[projectNumber][serviceNumber] */\n      0x00\n        /* \"contracts/Conflict.sol\":1888:1901  serviceNumber */\n      dup6\n        /* \"contracts/Conflict.sol\":1863:1902  conflicts[projectNumber][serviceNumber] */\n      dup2\n      mstore\n      0x20\n      add\n      swap1\n      dup2\n      mstore\n      0x20\n      add\n      0x00\n      keccak256\n        /* \"contracts/Conflict.sol\":1863:1919  conflicts[projectNumber][serviceNumber][milestoneNumber] */\n      0x00\n        /* \"contracts/Conflict.sol\":1903:1918  milestoneNumber */\n      dup5\n        /* \"contracts/Conflict.sol\":1863:1919  conflicts[projectNumber][serviceNumber][milestoneNumber] */\n      dup2\n      mstore\n      0x20\n      add\n      swap1\n      dup2\n      mstore\n      0x20\n      add\n      0x00\n      keccak256\n        /* \"contracts/Conflict.sol\":1863:1934  conflicts[projectNumber][serviceNumber][milestoneNumber].conflictStatus */\n      0x06\n      add\n      0x14\n      swap1\n      sload\n      swap1\n      0x0100\n      exp\n      swap1\n      div\n      0xff\n      and\n        /* \"contracts/Conflict.sol\":1863:1943  conflicts[projectNumber][serviceNumber][milestoneNumber].conflictStatus == state */\n      0x03\n      dup2\n      gt\n      iszero\n      tag_112\n      jumpi\n      tag_113\n      tag_69\n      jump\t// in\n    tag_113:\n    tag_112:\n      eq\n        /* \"contracts/Conflict.sol\":1855:1980  require(conflicts[projectNumber][serviceNumber][milestoneNumber].conflictStatus == state, \"Cannot carry out this operation!\") */\n      tag_114\n      jumpi\n      mload(0x40)\n      0x08c379a000000000000000000000000000000000000000000000000000000000\n      dup2\n      mstore\n      0x04\n      add\n      tag_115\n      swap1\n      tag_74\n      jump\t// in\n    tag_115:\n      mload(0x40)\n      dup1\n      swap2\n      sub\n      swap1\n      revert\n    tag_114:\n        /* \"contracts/Conflict.sol\":6104:6133  conflict storage currConflict */\n      0x00\n        /* \"contracts/Conflict.sol\":6136:6145  conflicts */\n      dup1\n        /* \"contracts/Conflict.sol\":6136:6160  conflicts[projectNumber] */\n      0x00\n        /* \"contracts/Conflict.sol\":6146:6159  projectNumber */\n      dup15\n        /* \"contracts/Conflict.sol\":6136:6160  conflicts[projectNumber] */\n      dup2\n      mstore\n      0x20\n      add\n      swap1\n      dup2\n      mstore\n      0x20\n      add\n      0x00\n      keccak256\n        /* \"contracts/Conflict.sol\":6136:6175  conflicts[projectNumber][serviceNumber] */\n      0x00\n        /* \"contracts/Conflict.sol\":6161:6174  serviceNumber */\n      dup14\n        /* \"contracts/Conflict.sol\":6136:6175  conflicts[projectNumber][serviceNumber] */\n      dup2\n      mstore\n      0x20\n      add\n      swap1\n      dup2\n      mstore\n      0x20\n      add\n      0x00\n      keccak256\n        /* \"contracts/Conflict.sol\":6136:6192  conflicts[projectNumber][serviceNumber][milestoneNumber] */\n      0x00\n        /* \"contracts/Conflict.sol\":6176:6191  milestoneNumber */\n      dup13\n        /* \"contracts/Conflict.sol\":6136:6192  conflicts[projectNumber][serviceNumber][milestoneNumber] */\n      dup2\n      mstore\n      0x20\n      add\n      swap1\n      dup2\n      mstore\n      0x20\n      add\n      0x00\n      keccak256\n        /* \"contracts/Conflict.sol\":6104:6192  conflict storage currConflict = conflicts[projectNumber][serviceNumber][milestoneNumber] */\n      swap1\n      pop\n        /* \"contracts/Conflict.sol\":6243:6248  _from */\n      dup10\n        /* \"contracts/Conflict.sol\":6210:6248  currConflict.serviceRequester != _from */\n      0xffffffffffffffffffffffffffffffffffffffff\n      and\n        /* \"contracts/Conflict.sol\":6210:6222  currConflict */\n      dup2\n        /* \"contracts/Conflict.sol\":6210:6239  currConflict.serviceRequester */\n      0x05\n      add\n      0x00\n      swap1\n      sload\n      swap1\n      0x0100\n      exp\n      swap1\n      div\n      0xffffffffffffffffffffffffffffffffffffffff\n      and\n        /* \"contracts/Conflict.sol\":6210:6248  currConflict.serviceRequester != _from */\n      0xffffffffffffffffffffffffffffffffffffffff\n      and\n      eq\n      iszero\n        /* \"contracts/Conflict.sol\":6202:6302  require(currConflict.serviceRequester != _from , \"You raised this conflict. You cannot vote on it.\") */\n      tag_117\n      jumpi\n      mload(0x40)\n      0x08c379a000000000000000000000000000000000000000000000000000000000\n      dup2\n      mstore\n      0x04\n      add\n      tag_118\n      swap1\n      tag_119\n      jump\t// in\n    tag_118:\n      mload(0x40)\n      dup1\n      swap2\n      sub\n      swap1\n      revert\n    tag_117:\n        /* \"contracts/Conflict.sol\":6352:6357  _from */\n      dup10\n        /* \"contracts/Conflict.sol\":6320:6357  currConflict.serviceProvider != _from */\n      0xffffffffffffffffffffffffffffffffffffffff\n      and\n        /* \"contracts/Conflict.sol\":6320:6332  currConflict */\n      dup2\n        /* \"contracts/Conflict.sol\":6320:6348  currConflict.serviceProvider */\n      0x06\n      add\n      0x00\n      swap1\n      sload\n      swap1\n      0x0100\n      exp\n      swap1\n      div\n      0xffffffffffffffffffffffffffffffffffffffff\n      and\n        /* \"contracts/Conflict.sol\":6320:6357  currConflict.serviceProvider != _from */\n      0xffffffffffffffffffffffffffffffffffffffff\n      and\n      eq\n      iszero\n        /* \"contracts/Conflict.sol\":6312:6419  require(currConflict.serviceProvider != _from, \"You are involved in this conflict. You cannot vote on it.\") */\n      tag_120\n      jumpi\n      mload(0x40)\n      0x08c379a000000000000000000000000000000000000000000000000000000000\n      dup2\n      mstore\n      0x04\n      add\n      tag_121\n      swap1\n      tag_122\n      jump\t// in\n    tag_121:\n      mload(0x40)\n      dup1\n      swap2\n      sub\n      swap1\n      revert\n    tag_120:\n        /* \"contracts/Conflict.sol\":6467:6479  currConflict */\n      dup1\n        /* \"contracts/Conflict.sol\":6467:6486  currConflict.voters */\n      0x07\n      add\n      sload\n        /* \"contracts/Conflict.sol\":6437:6449  currConflict */\n      dup2\n        /* \"contracts/Conflict.sol\":6437:6464  currConflict.votesCollected */\n      0x08\n      add\n      sload\n        /* \"contracts/Conflict.sol\":6437:6486  currConflict.votesCollected < currConflict.voters */\n      lt\n        /* \"contracts/Conflict.sol\":6429:6523  require(currConflict.votesCollected < currConflict.voters, \"Enough votes have been collected\") */\n      tag_123\n      jumpi\n      mload(0x40)\n      0x08c379a000000000000000000000000000000000000000000000000000000000\n      dup2\n      mstore\n      0x04\n      add\n      tag_124\n      swap1\n      tag_125\n      jump\t// in\n    tag_124:\n      mload(0x40)\n      dup1\n      swap2\n      sub\n      swap1\n      revert\n    tag_123:\n        /* \"contracts/Conflict.sol\":6570:6571  0 */\n      0x00\n        /* \"contracts/Conflict.sol\":6541:6553  currConflict */\n      dup2\n        /* \"contracts/Conflict.sol\":6541:6559  currConflict.votes */\n      0x0c\n      add\n        /* \"contracts/Conflict.sol\":6541:6566  currConflict.votes[_from] */\n      0x00\n        /* \"contracts/Conflict.sol\":6560:6565  _from */\n      dup13\n        /* \"contracts/Conflict.sol\":6541:6566  currConflict.votes[_from] */\n      0xffffffffffffffffffffffffffffffffffffffff\n      and\n      0xffffffffffffffffffffffffffffffffffffffff\n      and\n      dup2\n      mstore\n      0x20\n      add\n      swap1\n      dup2\n      mstore\n      0x20\n      add\n      0x00\n      keccak256\n      0x00\n      swap1\n      sload\n      swap1\n      0x0100\n      exp\n      swap1\n      div\n      0xff\n      and\n        /* \"contracts/Conflict.sol\":6541:6571  currConflict.votes[_from] == 0 */\n      0xff\n      and\n      eq\n        /* \"contracts/Conflict.sol\":6533:6622  require(currConflict.votes[_from] == 0 , \"You have already voted, you cannot vote again\") */\n      tag_126\n      jumpi\n      mload(0x40)\n      0x08c379a000000000000000000000000000000000000000000000000000000000\n      dup2\n      mstore\n      0x04\n      add\n      tag_127\n      swap1\n      tag_128\n      jump\t// in\n    tag_127:\n      mload(0x40)\n      dup1\n      swap2\n      sub\n      swap1\n      revert\n    tag_126:\n        /* \"contracts/Conflict.sol\":6648:6649  1 */\n      0x01\n        /* \"contracts/Conflict.sol\":6640:6644  vote */\n      dup10\n        /* \"contracts/Conflict.sol\":6640:6649  vote == 1 */\n      0xff\n      and\n      eq\n        /* \"contracts/Conflict.sol\":6640:6662  vote == 1 || vote == 2 */\n      dup1\n      tag_129\n      jumpi\n      pop\n        /* \"contracts/Conflict.sol\":6661:6662  2 */\n      0x02\n        /* \"contracts/Conflict.sol\":6653:6657  vote */\n      dup10\n        /* \"contracts/Conflict.sol\":6653:6662  vote == 2 */\n      0xff\n      and\n      eq\n        /* \"contracts/Conflict.sol\":6640:6662  vote == 1 || vote == 2 */\n    tag_129:\n        /* \"contracts/Conflict.sol\":6632:6754  require(vote == 1 || vote == 2, \"You have not input a right vote. You can either vote 1 for Requester or 2 for Provider.\") */\n      tag_130\n      jumpi\n      mload(0x40)\n      0x08c379a000000000000000000000000000000000000000000000000000000000\n      dup2\n      mstore\n      0x04\n      add\n      tag_131\n      swap1\n      tag_132\n      jump\t// in\n    tag_131:\n      mload(0x40)\n      dup1\n      swap2\n      sub\n      swap1\n      revert\n    tag_130:\n        /* \"contracts/Conflict.sol\":6765:6783  conflict storage C */\n      0x00\n        /* \"contracts/Conflict.sol\":6786:6795  conflicts */\n      dup1\n        /* \"contracts/Conflict.sol\":6786:6810  conflicts[projectNumber] */\n      0x00\n        /* \"contracts/Conflict.sol\":6796:6809  projectNumber */\n      dup16\n        /* \"contracts/Conflict.sol\":6786:6810  conflicts[projectNumber] */\n      dup2\n      mstore\n      0x20\n      add\n      swap1\n      dup2\n      mstore\n      0x20\n      add\n      0x00\n      keccak256\n        /* \"contracts/Conflict.sol\":6786:6825  conflicts[projectNumber][serviceNumber] */\n      0x00\n        /* \"contracts/Conflict.sol\":6811:6824  serviceNumber */\n      dup15\n        /* \"contracts/Conflict.sol\":6786:6825  conflicts[projectNumber][serviceNumber] */\n      dup2\n      mstore\n      0x20\n      add\n      swap1\n      dup2\n      mstore\n      0x20\n      add\n      0x00\n      keccak256\n        /* \"contracts/Conflict.sol\":6786:6842  conflicts[projectNumber][serviceNumber][milestoneNumber] */\n      0x00\n        /* \"contracts/Conflict.sol\":6826:6841  milestoneNumber */\n      dup14\n        /* \"contracts/Conflict.sol\":6786:6842  conflicts[projectNumber][serviceNumber][milestoneNumber] */\n      dup2\n      mstore\n      0x20\n      add\n      swap1\n      dup2\n      mstore\n      0x20\n      add\n      0x00\n      keccak256\n        /* \"contracts/Conflict.sol\":6765:6842  conflict storage C = conflicts[projectNumber][serviceNumber][milestoneNumber] */\n      swap1\n      pop\n        /* \"contracts/Conflict.sol\":6869:6873  vote */\n      dup10\n        /* \"contracts/Conflict.sol\":6852:6853  C */\n      dup2\n        /* \"contracts/Conflict.sol\":6852:6859  C.votes */\n      0x0c\n      add\n        /* \"contracts/Conflict.sol\":6852:6866  C.votes[_from] */\n      0x00\n        /* \"contracts/Conflict.sol\":6860:6865  _from */\n      dup14\n        /* \"contracts/Conflict.sol\":6852:6866  C.votes[_from] */\n      0xffffffffffffffffffffffffffffffffffffffff\n      and\n      0xffffffffffffffffffffffffffffffffffffffff\n      and\n      dup2\n      mstore\n      0x20\n      add\n      swap1\n      dup2\n      mstore\n      0x20\n      add\n      0x00\n      keccak256\n      0x00\n        /* \"contracts/Conflict.sol\":6852:6873  C.votes[_from] = vote */\n      0x0100\n      exp\n      dup2\n      sload\n      dup2\n      0xff\n      mul\n      not\n      and\n      swap1\n      dup4\n      0xff\n      and\n      mul\n      or\n      swap1\n      sstore\n      pop\n        /* \"contracts/Conflict.sol\":6896:6897  1 */\n      0x01\n        /* \"contracts/Conflict.sol\":6888:6892  vote */\n      dup11\n        /* \"contracts/Conflict.sol\":6888:6897  vote == 1 */\n      0xff\n      and\n      eq\n        /* \"contracts/Conflict.sol\":6884:6922  if (vote == 1) { C.requesterVotes++; } */\n      iszero\n      tag_133\n      jumpi\n        /* \"contracts/Conflict.sol\":6901:6902  C */\n      dup1\n        /* \"contracts/Conflict.sol\":6901:6917  C.requesterVotes */\n      0x09\n      add\n      0x00\n        /* \"contracts/Conflict.sol\":6901:6919  C.requesterVotes++ */\n      dup2\n      sload\n      dup1\n      swap3\n      swap2\n      swap1\n      tag_134\n      swap1\n      tag_135\n      jump\t// in\n    tag_134:\n      swap2\n      swap1\n      pop\n      sstore\n      pop\n        /* \"contracts/Conflict.sol\":6884:6922  if (vote == 1) { C.requesterVotes++; } */\n    tag_133:\n        /* \"contracts/Conflict.sol\":6943:6944  2 */\n      0x02\n        /* \"contracts/Conflict.sol\":6935:6939  vote */\n      dup11\n        /* \"contracts/Conflict.sol\":6935:6944  vote == 2 */\n      0xff\n      and\n      eq\n        /* \"contracts/Conflict.sol\":6931:6968  if (vote == 2) { C.providerVotes++; } */\n      iszero\n      tag_136\n      jumpi\n        /* \"contracts/Conflict.sol\":6948:6949  C */\n      dup1\n        /* \"contracts/Conflict.sol\":6948:6963  C.providerVotes */\n      0x0a\n      add\n      0x00\n        /* \"contracts/Conflict.sol\":6948:6965  C.providerVotes++ */\n      dup2\n      sload\n      dup1\n      swap3\n      swap2\n      swap1\n      tag_137\n      swap1\n      tag_135\n      jump\t// in\n    tag_137:\n      swap2\n      swap1\n      pop\n      sstore\n      pop\n        /* \"contracts/Conflict.sol\":6931:6968  if (vote == 2) { C.providerVotes++; } */\n    tag_136:\n        /* \"contracts/Conflict.sol\":6977:6978  C */\n      dup1\n        /* \"contracts/Conflict.sol\":6977:6993  C.votesCollected */\n      0x08\n      add\n      0x00\n        /* \"contracts/Conflict.sol\":6977:6995  C.votesCollected++ */\n      dup2\n      sload\n      dup1\n      swap3\n      swap2\n      swap1\n      tag_138\n      swap1\n      tag_135\n      jump\t// in\n    tag_138:\n      swap2\n      swap1\n      pop\n      sstore\n      pop\n        /* \"contracts/Conflict.sol\":7011:7089  conflictVoted(projectNumber, serviceNumber, milestoneNumber, msg.sender, vote) */\n      0x20211b974adbe11ce3687d51504ce7ef1fcfbb9c00405ba7aca7b283903f345a\n        /* \"contracts/Conflict.sol\":7025:7038  projectNumber */\n      dup15\n        /* \"contracts/Conflict.sol\":7040:7053  serviceNumber */\n      dup15\n        /* \"contracts/Conflict.sol\":7055:7070  milestoneNumber */\n      dup15\n        /* \"contracts/Conflict.sol\":7072:7082  msg.sender */\n      caller\n        /* \"contracts/Conflict.sol\":7084:7088  vote */\n      dup15\n        /* \"contracts/Conflict.sol\":7011:7089  conflictVoted(projectNumber, serviceNumber, milestoneNumber, msg.sender, vote) */\n      mload(0x40)\n      tag_139\n      swap6\n      swap5\n      swap4\n      swap3\n      swap2\n      swap1\n      tag_140\n      jump\t// in\n    tag_139:\n      mload(0x40)\n      dup1\n      swap2\n      sub\n      swap1\n      log1\n        /* \"contracts/Conflict.sol\":7124:7125  C */\n      dup1\n        /* \"contracts/Conflict.sol\":7124:7132  C.voters */\n      0x07\n      add\n      sload\n        /* \"contracts/Conflict.sol\":7104:7105  C */\n      dup2\n        /* \"contracts/Conflict.sol\":7104:7120  C.votesCollected */\n      0x08\n      add\n      sload\n        /* \"contracts/Conflict.sol\":7104:7132  C.votesCollected == C.voters */\n      eq\n        /* \"contracts/Conflict.sol\":7100:7500  if (C.votesCollected == C.voters) {... */\n      iszero\n      tag_141\n      jumpi\n        /* \"contracts/Conflict.sol\":7170:7171  C */\n      dup1\n        /* \"contracts/Conflict.sol\":7170:7186  C.requesterVotes */\n      0x09\n      add\n      sload\n        /* \"contracts/Conflict.sol\":7152:7153  C */\n      dup2\n        /* \"contracts/Conflict.sol\":7152:7167  C.providerVotes */\n      0x0a\n      add\n      sload\n        /* \"contracts/Conflict.sol\":7152:7186  C.providerVotes > C.requesterVotes */\n      gt\n        /* \"contracts/Conflict.sol\":7148:7237  if (C.providerVotes > C.requesterVotes) {C.result = 2; }... */\n      iszero\n      tag_142\n      jumpi\n        /* \"contracts/Conflict.sol\":7200:7201  2 */\n      0x02\n        /* \"contracts/Conflict.sol\":7189:7190  C */\n      dup2\n        /* \"contracts/Conflict.sol\":7189:7197  C.result */\n      0x0b\n      add\n      0x01\n        /* \"contracts/Conflict.sol\":7189:7201  C.result = 2 */\n      0x0100\n      exp\n      dup2\n      sload\n      dup2\n      0xff\n      mul\n      not\n      and\n      swap1\n      dup4\n      0xff\n      and\n      mul\n      or\n      swap1\n      sstore\n      pop\n        /* \"contracts/Conflict.sol\":7148:7237  if (C.providerVotes > C.requesterVotes) {C.result = 2; }... */\n      jump(tag_143)\n    tag_142:\n        /* \"contracts/Conflict.sol\":7234:7235  1 */\n      0x01\n        /* \"contracts/Conflict.sol\":7223:7224  C */\n      dup2\n        /* \"contracts/Conflict.sol\":7223:7231  C.result */\n      0x0b\n      add\n      0x01\n        /* \"contracts/Conflict.sol\":7223:7235  C.result = 1 */\n      0x0100\n      exp\n      dup2\n      sload\n      dup2\n      0xff\n      mul\n      not\n      and\n      swap1\n      dup4\n      0xff\n      and\n      mul\n      or\n      swap1\n      sstore\n      pop\n        /* \"contracts/Conflict.sol\":7148:7237  if (C.providerVotes > C.requesterVotes) {C.result = 2; }... */\n    tag_143:\n        /* \"contracts/Conflict.sol\":7310:7398  setState(projectNumber, serviceNumber, milestoneNumber, States.ConflictStatus.completed) */\n      tag_144\n        /* \"contracts/Conflict.sol\":7319:7332  projectNumber */\n      dup15\n        /* \"contracts/Conflict.sol\":7334:7347  serviceNumber */\n      dup15\n        /* \"contracts/Conflict.sol\":7349:7364  milestoneNumber */\n      dup15\n        /* \"contracts/Conflict.sol\":7366:7397  States.ConflictStatus.completed */\n      0x02\n        /* \"contracts/Conflict.sol\":7310:7318  setState */\n      tag_77\n        /* \"contracts/Conflict.sol\":7310:7398  setState(projectNumber, serviceNumber, milestoneNumber, States.ConflictStatus.completed) */\n      jump\t// in\n    tag_144:\n        /* \"contracts/Conflict.sol\":7418:7489  conflictResult(projectNumber, serviceNumber, milestoneNumber, C.result) */\n      0xe59fdbc65a5dd63c529717c2a71d04b136038f05301755de242dd05990c02814\n        /* \"contracts/Conflict.sol\":7433:7446  projectNumber */\n      dup15\n        /* \"contracts/Conflict.sol\":7448:7461  serviceNumber */\n      dup15\n        /* \"contracts/Conflict.sol\":7463:7478  milestoneNumber */\n      dup15\n        /* \"contracts/Conflict.sol\":7480:7481  C */\n      dup5\n        /* \"contracts/Conflict.sol\":7480:7488  C.result */\n      0x0b\n      add\n      0x01\n      swap1\n      sload\n      swap1\n      0x0100\n      exp\n      swap1\n      div\n      0xff\n      and\n        /* \"contracts/Conflict.sol\":7418:7489  conflictResult(projectNumber, serviceNumber, milestoneNumber, C.result) */\n      mload(0x40)\n      tag_145\n      swap5\n      swap4\n      swap3\n      swap2\n      swap1\n      tag_146\n      jump\t// in\n    tag_145:\n      mload(0x40)\n      dup1\n      swap2\n      sub\n      swap1\n      log1\n        /* \"contracts/Conflict.sol\":7100:7500  if (C.votesCollected == C.voters) {... */\n    tag_141:\n        /* \"contracts/Conflict.sol\":6094:7506  {... */\n      pop\n      pop\n        /* \"contracts/Conflict.sol\":1715:1716  _ */\n      pop\n      pop\n      pop\n      pop\n        /* \"contracts/Conflict.sol\":5799:7506  function voteConflict(uint256 projectNumber, uint256 serviceNumber, uint256 milestoneNumber, address _from, uint8 vote) public ... */\n      pop\n      pop\n      pop\n      pop\n      pop\n      pop\n      pop\n      pop\n      jump\t// out\n        /* \"contracts/Conflict.sol\":8179:8416  function getConflictStatus(uint256 projectNumber, uint256 serviceNumber, uint256 milestoneNumber) public view returns (States.ConflictStatus) {... */\n    tag_46:\n        /* \"contracts/Conflict.sol\":8298:8319  States.ConflictStatus */\n      0x00\n        /* \"contracts/Conflict.sol\":8338:8347  conflicts */\n      dup1\n        /* \"contracts/Conflict.sol\":8338:8362  conflicts[projectNumber] */\n      0x00\n        /* \"contracts/Conflict.sol\":8348:8361  projectNumber */\n      dup6\n        /* \"contracts/Conflict.sol\":8338:8362  conflicts[projectNumber] */\n      dup2\n      mstore\n      0x20\n      add\n      swap1\n      dup2\n      mstore\n      0x20\n      add\n      0x00\n      keccak256\n        /* \"contracts/Conflict.sol\":8338:8377  conflicts[projectNumber][serviceNumber] */\n      0x00\n        /* \"contracts/Conflict.sol\":8363:8376  serviceNumber */\n      dup5\n        /* \"contracts/Conflict.sol\":8338:8377  conflicts[projectNumber][serviceNumber] */\n      dup2\n      mstore\n      0x20\n      add\n      swap1\n      dup2\n      mstore\n      0x20\n      add\n      0x00\n      keccak256\n        /* \"contracts/Conflict.sol\":8338:8394  conflicts[projectNumber][serviceNumber][milestoneNumber] */\n      0x00\n        /* \"contracts/Conflict.sol\":8378:8393  milestoneNumber */\n      dup4\n        /* \"contracts/Conflict.sol\":8338:8394  conflicts[projectNumber][serviceNumber][milestoneNumber] */\n      dup2\n      mstore\n      0x20\n      add\n      swap1\n      dup2\n      mstore\n      0x20\n      add\n      0x00\n      keccak256\n        /* \"contracts/Conflict.sol\":8338:8409  conflicts[projectNumber][serviceNumber][milestoneNumber].conflictStatus */\n      0x06\n      add\n      0x14\n      swap1\n      sload\n      swap1\n      0x0100\n      exp\n      swap1\n      div\n      0xff\n      and\n        /* \"contracts/Conflict.sol\":8331:8409  return conflicts[projectNumber][serviceNumber][milestoneNumber].conflictStatus */\n      swap1\n      pop\n        /* \"contracts/Conflict.sol\":8179:8416  function getConflictStatus(uint256 projectNumber, uint256 serviceNumber, uint256 milestoneNumber) public view returns (States.ConflictStatus) {... */\n      swap4\n      swap3\n      pop\n      pop\n      pop\n      jump\t// out\n        /* \"contracts/Conflict.sol\":4326:4821  function updateConflict(uint256 projectNumber, uint256 serviceNumber, uint256 milestoneNumber, string memory title, string memory description) external ... */\n    tag_52:\n        /* \"contracts/Conflict.sol\":4495:4508  projectNumber */\n      dup5\n        /* \"contracts/Conflict.sol\":4510:4523  serviceNumber */\n      dup5\n        /* \"contracts/Conflict.sol\":4525:4540  milestoneNumber */\n      dup5\n        /* \"contracts/Conflict.sol\":4541:4570  States.ConflictStatus.created */\n      0x00\n        /* \"contracts/Conflict.sol\":1938:1943  state */\n      dup1\n        /* \"contracts/Conflict.sol\":1863:1943  conflicts[projectNumber][serviceNumber][milestoneNumber].conflictStatus == state */\n      0x03\n      dup2\n      gt\n      iszero\n      tag_149\n      jumpi\n      tag_150\n      tag_69\n      jump\t// in\n    tag_150:\n    tag_149:\n        /* \"contracts/Conflict.sol\":1863:1872  conflicts */\n      0x00\n        /* \"contracts/Conflict.sol\":1863:1887  conflicts[projectNumber] */\n      dup1\n        /* \"contracts/Conflict.sol\":1873:1886  projectNumber */\n      dup7\n        /* \"contracts/Conflict.sol\":1863:1887  conflicts[projectNumber] */\n      dup2\n      mstore\n      0x20\n      add\n      swap1\n      dup2\n      mstore\n      0x20\n      add\n      0x00\n      keccak256\n        /* \"contracts/Conflict.sol\":1863:1902  conflicts[projectNumber][serviceNumber] */\n      0x00\n        /* \"contracts/Conflict.sol\":1888:1901  serviceNumber */\n      dup6\n        /* \"contracts/Conflict.sol\":1863:1902  conflicts[projectNumber][serviceNumber] */\n      dup2\n      mstore\n      0x20\n      add\n      swap1\n      dup2\n      mstore\n      0x20\n      add\n      0x00\n      keccak256\n        /* \"contracts/Conflict.sol\":1863:1919  conflicts[projectNumber][serviceNumber][milestoneNumber] */\n      0x00\n        /* \"contracts/Conflict.sol\":1903:1918  milestoneNumber */\n      dup5\n        /* \"contracts/Conflict.sol\":1863:1919  conflicts[projectNumber][serviceNumber][milestoneNumber] */\n      dup2\n      mstore\n      0x20\n      add\n      swap1\n      dup2\n      mstore\n      0x20\n      add\n      0x00\n      keccak256\n        /* \"contracts/Conflict.sol\":1863:1934  conflicts[projectNumber][serviceNumber][milestoneNumber].conflictStatus */\n      0x06\n      add\n      0x14\n      swap1\n      sload\n      swap1\n      0x0100\n      exp\n      swap1\n      div\n      0xff\n      and\n        /* \"contracts/Conflict.sol\":1863:1943  conflicts[projectNumber][serviceNumber][milestoneNumber].conflictStatus == state */\n      0x03\n      dup2\n      gt\n      iszero\n      tag_151\n      jumpi\n      tag_152\n      tag_69\n      jump\t// in\n    tag_152:\n    tag_151:\n      eq\n        /* \"contracts/Conflict.sol\":1855:1980  require(conflicts[projectNumber][serviceNumber][milestoneNumber].conflictStatus == state, \"Cannot carry out this operation!\") */\n      tag_153\n      jumpi\n      mload(0x40)\n      0x08c379a000000000000000000000000000000000000000000000000000000000\n      dup2\n      mstore\n      0x04\n      add\n      tag_154\n      swap1\n      tag_74\n      jump\t// in\n    tag_154:\n      mload(0x40)\n      dup1\n      swap2\n      sub\n      swap1\n      revert\n    tag_153:\n        /* \"contracts/Conflict.sol\":4595:4600  title */\n      dup6\n        /* \"contracts/Conflict.sol\":2085:2086  0 */\n      0x00\n        /* \"contracts/Conflict.sol\":2071:2074  str */\n      dup2\n        /* \"contracts/Conflict.sol\":2065:2082  bytes(str).length */\n      mload\n        /* \"contracts/Conflict.sol\":2065:2086  bytes(str).length > 0 */\n      gt\n        /* \"contracts/Conflict.sol\":2057:2112  require(bytes(str).length > 0, \"A string is required!\") */\n      tag_156\n      jumpi\n      mload(0x40)\n      0x08c379a000000000000000000000000000000000000000000000000000000000\n      dup2\n      mstore\n      0x04\n      add\n      tag_157\n      swap1\n      tag_158\n      jump\t// in\n    tag_157:\n      mload(0x40)\n      dup1\n      swap2\n      sub\n      swap1\n      revert\n    tag_156:\n        /* \"contracts/Conflict.sol\":4625:4636  description */\n      dup6\n        /* \"contracts/Conflict.sol\":2085:2086  0 */\n      0x00\n        /* \"contracts/Conflict.sol\":2071:2074  str */\n      dup2\n        /* \"contracts/Conflict.sol\":2065:2082  bytes(str).length */\n      mload\n        /* \"contracts/Conflict.sol\":2065:2086  bytes(str).length > 0 */\n      gt\n        /* \"contracts/Conflict.sol\":2057:2112  require(bytes(str).length > 0, \"A string is required!\") */\n      tag_160\n      jumpi\n      mload(0x40)\n      0x08c379a000000000000000000000000000000000000000000000000000000000\n      dup2\n      mstore\n      0x04\n      add\n      tag_161\n      swap1\n      tag_158\n      jump\t// in\n    tag_161:\n      mload(0x40)\n      dup1\n      swap2\n      sub\n      swap1\n      revert\n    tag_160:\n        /* \"contracts/Conflict.sol\":4717:4722  title */\n      dup8\n        /* \"contracts/Conflict.sol\":4652:4661  conflicts */\n      0x00\n        /* \"contracts/Conflict.sol\":4652:4676  conflicts[projectNumber] */\n      dup1\n        /* \"contracts/Conflict.sol\":4662:4675  projectNumber */\n      dup14\n        /* \"contracts/Conflict.sol\":4652:4676  conflicts[projectNumber] */\n      dup2\n      mstore\n      0x20\n      add\n      swap1\n      dup2\n      mstore\n      0x20\n      add\n      0x00\n      keccak256\n        /* \"contracts/Conflict.sol\":4652:4691  conflicts[projectNumber][serviceNumber] */\n      0x00\n        /* \"contracts/Conflict.sol\":4677:4690  serviceNumber */\n      dup13\n        /* \"contracts/Conflict.sol\":4652:4691  conflicts[projectNumber][serviceNumber] */\n      dup2\n      mstore\n      0x20\n      add\n      swap1\n      dup2\n      mstore\n      0x20\n      add\n      0x00\n      keccak256\n        /* \"contracts/Conflict.sol\":4652:4708  conflicts[projectNumber][serviceNumber][milestoneNumber] */\n      0x00\n        /* \"contracts/Conflict.sol\":4692:4707  milestoneNumber */\n      dup12\n        /* \"contracts/Conflict.sol\":4652:4708  conflicts[projectNumber][serviceNumber][milestoneNumber] */\n      dup2\n      mstore\n      0x20\n      add\n      swap1\n      dup2\n      mstore\n      0x20\n      add\n      0x00\n      keccak256\n        /* \"contracts/Conflict.sol\":4652:4714  conflicts[projectNumber][serviceNumber][milestoneNumber].title */\n      0x03\n      add\n        /* \"contracts/Conflict.sol\":4652:4722  conflicts[projectNumber][serviceNumber][milestoneNumber].title = title */\n      swap1\n      dup1\n      mload\n      swap1\n      0x20\n      add\n      swap1\n      tag_163\n      swap3\n      swap2\n      swap1\n      tag_164\n      jump\t// in\n    tag_163:\n      pop\n        /* \"contracts/Conflict.sol\":4803:4814  description */\n      dup7\n        /* \"contracts/Conflict.sol\":4732:4741  conflicts */\n      0x00\n        /* \"contracts/Conflict.sol\":4732:4756  conflicts[projectNumber] */\n      dup1\n        /* \"contracts/Conflict.sol\":4742:4755  projectNumber */\n      dup14\n        /* \"contracts/Conflict.sol\":4732:4756  conflicts[projectNumber] */\n      dup2\n      mstore\n      0x20\n      add\n      swap1\n      dup2\n      mstore\n      0x20\n      add\n      0x00\n      keccak256\n        /* \"contracts/Conflict.sol\":4732:4771  conflicts[projectNumber][serviceNumber] */\n      0x00\n        /* \"contracts/Conflict.sol\":4757:4770  serviceNumber */\n      dup13\n        /* \"contracts/Conflict.sol\":4732:4771  conflicts[projectNumber][serviceNumber] */\n      dup2\n      mstore\n      0x20\n      add\n      swap1\n      dup2\n      mstore\n      0x20\n      add\n      0x00\n      keccak256\n        /* \"contracts/Conflict.sol\":4732:4788  conflicts[projectNumber][serviceNumber][milestoneNumber] */\n      0x00\n        /* \"contracts/Conflict.sol\":4772:4787  milestoneNumber */\n      dup12\n        /* \"contracts/Conflict.sol\":4732:4788  conflicts[projectNumber][serviceNumber][milestoneNumber] */\n      dup2\n      mstore\n      0x20\n      add\n      swap1\n      dup2\n      mstore\n      0x20\n      add\n      0x00\n      keccak256\n        /* \"contracts/Conflict.sol\":4732:4800  conflicts[projectNumber][serviceNumber][milestoneNumber].description */\n      0x04\n      add\n        /* \"contracts/Conflict.sol\":4732:4814  conflicts[projectNumber][serviceNumber][milestoneNumber].description = description */\n      swap1\n      dup1\n      mload\n      swap1\n      0x20\n      add\n      swap1\n      tag_165\n      swap3\n      swap2\n      swap1\n      tag_164\n      jump\t// in\n    tag_165:\n      pop\n        /* \"contracts/Conflict.sol\":2122:2123  _ */\n      pop\n        /* \"contracts/Conflict.sol\":1990:1991  _ */\n      pop\n        /* \"contracts/Conflict.sol\":4326:4821  function updateConflict(uint256 projectNumber, uint256 serviceNumber, uint256 milestoneNumber, string memory title, string memory description) external ... */\n      pop\n      pop\n      pop\n      pop\n      pop\n      pop\n      pop\n      pop\n      pop\n      jump\t// out\n        /* \"contracts/Conflict.sol\":8651:8877  function getVotesforRequester(uint256 projectNumber, uint256 serviceNumber, uint256 milestoneNumber) public view returns (uint256) {... */\n    tag_55:\n        /* \"contracts/Conflict.sol\":8773:8780  uint256 */\n      0x00\n        /* \"contracts/Conflict.sol\":8799:8808  conflicts */\n      dup1\n        /* \"contracts/Conflict.sol\":8799:8823  conflicts[projectNumber] */\n      0x00\n        /* \"contracts/Conflict.sol\":8809:8822  projectNumber */\n      dup6\n        /* \"contracts/Conflict.sol\":8799:8823  conflicts[projectNumber] */\n      dup2\n      mstore\n      0x20\n      add\n      swap1\n      dup2\n      mstore\n      0x20\n      add\n      0x00\n      keccak256\n        /* \"contracts/Conflict.sol\":8799:8838  conflicts[projectNumber][serviceNumber] */\n      0x00\n        /* \"contracts/Conflict.sol\":8824:8837  serviceNumber */\n      dup5\n        /* \"contracts/Conflict.sol\":8799:8838  conflicts[projectNumber][serviceNumber] */\n      dup2\n      mstore\n      0x20\n      add\n      swap1\n      dup2\n      mstore\n      0x20\n      add\n      0x00\n      keccak256\n        /* \"contracts/Conflict.sol\":8799:8855  conflicts[projectNumber][serviceNumber][milestoneNumber] */\n      0x00\n        /* \"contracts/Conflict.sol\":8839:8854  milestoneNumber */\n      dup4\n        /* \"contracts/Conflict.sol\":8799:8855  conflicts[projectNumber][serviceNumber][milestoneNumber] */\n      dup2\n      mstore\n      0x20\n      add\n      swap1\n      dup2\n      mstore\n      0x20\n      add\n      0x00\n      keccak256\n        /* \"contracts/Conflict.sol\":8799:8870  conflicts[projectNumber][serviceNumber][milestoneNumber].requesterVotes */\n      0x09\n      add\n      sload\n        /* \"contracts/Conflict.sol\":8792:8870  return conflicts[projectNumber][serviceNumber][milestoneNumber].requesterVotes */\n      swap1\n      pop\n        /* \"contracts/Conflict.sol\":8651:8877  function getVotesforRequester(uint256 projectNumber, uint256 serviceNumber, uint256 milestoneNumber) public view returns (uint256) {... */\n      swap4\n      swap3\n      pop\n      pop\n      pop\n      jump\t// out\n        /* \"contracts/Conflict.sol\":2891:4279  function createConflict(uint256 projectNumber, uint256 serviceNumber, uint256 milestoneNumber, string memory title, string memory description, address payable serviceRequester, address payable serviceProvider, uint256 totalVoters) public ... */\n    tag_60:\n        /* \"contracts/Conflict.sol\":3153:3158  title */\n      dup5\n        /* \"contracts/Conflict.sol\":2085:2086  0 */\n      0x00\n        /* \"contracts/Conflict.sol\":2071:2074  str */\n      dup2\n        /* \"contracts/Conflict.sol\":2065:2082  bytes(str).length */\n      mload\n        /* \"contracts/Conflict.sol\":2065:2086  bytes(str).length > 0 */\n      gt\n        /* \"contracts/Conflict.sol\":2057:2112  require(bytes(str).length > 0, \"A string is required!\") */\n      tag_168\n      jumpi\n      mload(0x40)\n      0x08c379a000000000000000000000000000000000000000000000000000000000\n      dup2\n      mstore\n      0x04\n      add\n      tag_169\n      swap1\n      tag_158\n      jump\t// in\n    tag_169:\n      mload(0x40)\n      dup1\n      swap2\n      sub\n      swap1\n      revert\n    tag_168:\n        /* \"contracts/Conflict.sol\":3183:3194  description */\n      dup5\n        /* \"contracts/Conflict.sol\":2085:2086  0 */\n      0x00\n        /* \"contracts/Conflict.sol\":2071:2074  str */\n      dup2\n        /* \"contracts/Conflict.sol\":2065:2082  bytes(str).length */\n      mload\n        /* \"contracts/Conflict.sol\":2065:2086  bytes(str).length > 0 */\n      gt\n        /* \"contracts/Conflict.sol\":2057:2112  require(bytes(str).length > 0, \"A string is required!\") */\n      tag_171\n      jumpi\n      mload(0x40)\n      0x08c379a000000000000000000000000000000000000000000000000000000000\n      dup2\n      mstore\n      0x04\n      add\n      tag_172\n      swap1\n      tag_158\n      jump\t// in\n    tag_172:\n      mload(0x40)\n      dup1\n      swap2\n      sub\n      swap1\n      revert\n    tag_171:\n        /* \"contracts/Conflict.sol\":3286:3291  false */\n      0x00\n        /* \"contracts/Conflict.sol\":3218:3291  doesConflictExist(projectNumber, serviceNumber, milestoneNumber) == false */\n      iszero\n      iszero\n        /* \"contracts/Conflict.sol\":3218:3282  doesConflictExist(projectNumber, serviceNumber, milestoneNumber) */\n      tag_174\n        /* \"contracts/Conflict.sol\":3236:3249  projectNumber */\n      dup12\n        /* \"contracts/Conflict.sol\":3251:3264  serviceNumber */\n      dup12\n        /* \"contracts/Conflict.sol\":3266:3281  milestoneNumber */\n      dup12\n        /* \"contracts/Conflict.sol\":3218:3235  doesConflictExist */\n      tag_30\n        /* \"contracts/Conflict.sol\":3218:3282  doesConflictExist(projectNumber, serviceNumber, milestoneNumber) */\n      jump\t// in\n    tag_174:\n        /* \"contracts/Conflict.sol\":3218:3291  doesConflictExist(projectNumber, serviceNumber, milestoneNumber) == false */\n      iszero\n      iszero\n      eq\n        /* \"contracts/Conflict.sol\":3210:3360  require(doesConflictExist(projectNumber, serviceNumber, milestoneNumber) == false, \"Conflict has already been created for this particular Milestone.\") */\n      tag_175\n      jumpi\n      mload(0x40)\n      0x08c379a000000000000000000000000000000000000000000000000000000000\n      dup2\n      mstore\n      0x04\n      add\n      tag_176\n      swap1\n      tag_177\n      jump\t// in\n    tag_176:\n      mload(0x40)\n      dup1\n      swap2\n      sub\n      swap1\n      revert\n    tag_175:\n        /* \"contracts/Conflict.sol\":3396:3424  conflict storage newConflict */\n      0x00\n        /* \"contracts/Conflict.sol\":3427:3436  conflicts */\n      dup1\n        /* \"contracts/Conflict.sol\":3427:3451  conflicts[projectNumber] */\n      0x00\n        /* \"contracts/Conflict.sol\":3437:3450  projectNumber */\n      dup13\n        /* \"contracts/Conflict.sol\":3427:3451  conflicts[projectNumber] */\n      dup2\n      mstore\n      0x20\n      add\n      swap1\n      dup2\n      mstore\n      0x20\n      add\n      0x00\n      keccak256\n        /* \"contracts/Conflict.sol\":3427:3466  conflicts[projectNumber][serviceNumber] */\n      0x00\n        /* \"contracts/Conflict.sol\":3452:3465  serviceNumber */\n      dup12\n        /* \"contracts/Conflict.sol\":3427:3466  conflicts[projectNumber][serviceNumber] */\n      dup2\n      mstore\n      0x20\n      add\n      swap1\n      dup2\n      mstore\n      0x20\n      add\n      0x00\n      keccak256\n        /* \"contracts/Conflict.sol\":3427:3483  conflicts[projectNumber][serviceNumber][milestoneNumber] */\n      0x00\n        /* \"contracts/Conflict.sol\":3467:3482  milestoneNumber */\n      dup11\n        /* \"contracts/Conflict.sol\":3427:3483  conflicts[projectNumber][serviceNumber][milestoneNumber] */\n      dup2\n      mstore\n      0x20\n      add\n      swap1\n      dup2\n      mstore\n      0x20\n      add\n      0x00\n      keccak256\n        /* \"contracts/Conflict.sol\":3396:3483  conflict storage newConflict = conflicts[projectNumber][serviceNumber][milestoneNumber] */\n      swap1\n      pop\n        /* \"contracts/Conflict.sol\":3521:3534  projectNumber */\n      dup11\n        /* \"contracts/Conflict.sol\":3493:3504  newConflict */\n      dup2\n        /* \"contracts/Conflict.sol\":3493:3518  newConflict.projectNumber */\n      0x00\n      add\n        /* \"contracts/Conflict.sol\":3493:3534  newConflict.projectNumber = projectNumber */\n      dup2\n      swap1\n      sstore\n      pop\n        /* \"contracts/Conflict.sol\":3577:3590  serviceNumber */\n      dup10\n        /* \"contracts/Conflict.sol\":3549:3560  newConflict */\n      dup2\n        /* \"contracts/Conflict.sol\":3549:3574  newConflict.serviceNumber */\n      0x01\n      add\n        /* \"contracts/Conflict.sol\":3549:3590  newConflict.serviceNumber = serviceNumber */\n      dup2\n      swap1\n      sstore\n      pop\n        /* \"contracts/Conflict.sol\":3638:3653  milestoneNumber */\n      dup9\n        /* \"contracts/Conflict.sol\":3608:3619  newConflict */\n      dup2\n        /* \"contracts/Conflict.sol\":3608:3635  newConflict.milestoneNumber */\n      0x02\n      add\n        /* \"contracts/Conflict.sol\":3608:3653  newConflict.milestoneNumber = milestoneNumber */\n      dup2\n      swap1\n      sstore\n      pop\n        /* \"contracts/Conflict.sol\":3683:3688  title */\n      dup8\n        /* \"contracts/Conflict.sol\":3663:3674  newConflict */\n      dup2\n        /* \"contracts/Conflict.sol\":3663:3680  newConflict.title */\n      0x03\n      add\n        /* \"contracts/Conflict.sol\":3663:3688  newConflict.title = title */\n      swap1\n      dup1\n      mload\n      swap1\n      0x20\n      add\n      swap1\n      tag_178\n      swap3\n      swap2\n      swap1\n      tag_164\n      jump\t// in\n    tag_178:\n      pop\n        /* \"contracts/Conflict.sol\":3724:3735  description */\n      dup7\n        /* \"contracts/Conflict.sol\":3698:3709  newConflict */\n      dup2\n        /* \"contracts/Conflict.sol\":3698:3721  newConflict.description */\n      0x04\n      add\n        /* \"contracts/Conflict.sol\":3698:3735  newConflict.description = description */\n      swap1\n      dup1\n      mload\n      swap1\n      0x20\n      add\n      swap1\n      tag_179\n      swap3\n      swap2\n      swap1\n      tag_164\n      jump\t// in\n    tag_179:\n      pop\n        /* \"contracts/Conflict.sol\":3776:3792  serviceRequester */\n      dup6\n        /* \"contracts/Conflict.sol\":3745:3756  newConflict */\n      dup2\n        /* \"contracts/Conflict.sol\":3745:3773  newConflict.serviceRequester */\n      0x05\n      add\n      0x00\n        /* \"contracts/Conflict.sol\":3745:3792  newConflict.serviceRequester = serviceRequester */\n      0x0100\n      exp\n      dup2\n      sload\n      dup2\n      0xffffffffffffffffffffffffffffffffffffffff\n      mul\n      not\n      and\n      swap1\n      dup4\n      0xffffffffffffffffffffffffffffffffffffffff\n      and\n      mul\n      or\n      swap1\n      sstore\n      pop\n        /* \"contracts/Conflict.sol\":3832:3847  serviceProvider */\n      dup5\n        /* \"contracts/Conflict.sol\":3802:3813  newConflict */\n      dup2\n        /* \"contracts/Conflict.sol\":3802:3829  newConflict.serviceProvider */\n      0x06\n      add\n      0x00\n        /* \"contracts/Conflict.sol\":3802:3847  newConflict.serviceProvider = serviceProvider */\n      0x0100\n      exp\n      dup2\n      sload\n      dup2\n      0xffffffffffffffffffffffffffffffffffffffff\n      mul\n      not\n      and\n      swap1\n      dup4\n      0xffffffffffffffffffffffffffffffffffffffff\n      and\n      mul\n      or\n      swap1\n      sstore\n      pop\n        /* \"contracts/Conflict.sol\":3886:3915  States.ConflictStatus.created */\n      0x00\n        /* \"contracts/Conflict.sol\":3857:3868  newConflict */\n      dup2\n        /* \"contracts/Conflict.sol\":3857:3883  newConflict.conflictStatus */\n      0x06\n      add\n      0x14\n        /* \"contracts/Conflict.sol\":3857:3915  newConflict.conflictStatus = States.ConflictStatus.created */\n      0x0100\n      exp\n      dup2\n      sload\n      dup2\n      0xff\n      mul\n      not\n      and\n      swap1\n      dup4\n      0x03\n      dup2\n      gt\n      iszero\n      tag_180\n      jumpi\n      tag_181\n      tag_69\n      jump\t// in\n    tag_181:\n    tag_180:\n      mul\n      or\n      swap1\n      sstore\n      pop\n        /* \"contracts/Conflict.sol\":3946:3957  totalVoters */\n      dup4\n        /* \"contracts/Conflict.sol\":3925:3936  newConflict */\n      dup2\n        /* \"contracts/Conflict.sol\":3925:3943  newConflict.voters */\n      0x07\n      add\n        /* \"contracts/Conflict.sol\":3925:3957  newConflict.voters = totalVoters */\n      dup2\n      swap1\n      sstore\n      pop\n        /* \"contracts/Conflict.sol\":3996:3997  0 */\n      0x00\n        /* \"contracts/Conflict.sol\":3967:3978  newConflict */\n      dup2\n        /* \"contracts/Conflict.sol\":3967:3993  newConflict.votesCollected */\n      0x08\n      add\n        /* \"contracts/Conflict.sol\":3967:3997  newConflict.votesCollected = 0 */\n      dup2\n      swap1\n      sstore\n      pop\n        /* \"contracts/Conflict.sol\":4036:4037  0 */\n      0x00\n        /* \"contracts/Conflict.sol\":4007:4018  newConflict */\n      dup2\n        /* \"contracts/Conflict.sol\":4007:4033  newConflict.requesterVotes */\n      0x09\n      add\n        /* \"contracts/Conflict.sol\":4007:4037  newConflict.requesterVotes = 0 */\n      dup2\n      swap1\n      sstore\n      pop\n        /* \"contracts/Conflict.sol\":4075:4076  0 */\n      0x00\n        /* \"contracts/Conflict.sol\":4047:4058  newConflict */\n      dup2\n        /* \"contracts/Conflict.sol\":4047:4072  newConflict.providerVotes */\n      0x0a\n      add\n        /* \"contracts/Conflict.sol\":4047:4076  newConflict.providerVotes = 0 */\n      dup2\n      swap1\n      sstore\n      pop\n        /* \"contracts/Conflict.sol\":4110:4114  true */\n      0x01\n        /* \"contracts/Conflict.sol\":4090:4101  newConflict */\n      dup2\n        /* \"contracts/Conflict.sol\":4090:4107  newConflict.exist */\n      0x0b\n      add\n      0x00\n        /* \"contracts/Conflict.sol\":4090:4114  newConflict.exist = true */\n      0x0100\n      exp\n      dup2\n      sload\n      dup2\n      0xff\n      mul\n      not\n      and\n      swap1\n      dup4\n      iszero\n      iszero\n      mul\n      or\n      swap1\n      sstore\n      pop\n        /* \"contracts/Conflict.sol\":4145:4146  0 */\n      0x00\n        /* \"contracts/Conflict.sol\":4124:4135  newConflict */\n      dup2\n        /* \"contracts/Conflict.sol\":4124:4142  newConflict.result */\n      0x0b\n      add\n      0x01\n        /* \"contracts/Conflict.sol\":4124:4146  newConflict.result = 0 */\n      0x0100\n      exp\n      dup2\n      sload\n      dup2\n      0xff\n      mul\n      not\n      and\n      swap1\n      dup4\n      0xff\n      and\n      mul\n      or\n      swap1\n      sstore\n      pop\n        /* \"contracts/Conflict.sol\":4162:4272  conflictCreated(projectNumber, serviceNumber, milestoneNumber, serviceRequester, serviceProvider, totalVoters) */\n      0xfa127411522a1139d16c2142db999e127aef2288bd98a0558006bb115666ab1b\n        /* \"contracts/Conflict.sol\":4178:4191  projectNumber */\n      dup12\n        /* \"contracts/Conflict.sol\":4193:4206  serviceNumber */\n      dup12\n        /* \"contracts/Conflict.sol\":4208:4223  milestoneNumber */\n      dup12\n        /* \"contracts/Conflict.sol\":4225:4241  serviceRequester */\n      dup10\n        /* \"contracts/Conflict.sol\":4243:4258  serviceProvider */\n      dup10\n        /* \"contracts/Conflict.sol\":4260:4271  totalVoters */\n      dup10\n        /* \"contracts/Conflict.sol\":4162:4272  conflictCreated(projectNumber, serviceNumber, milestoneNumber, serviceRequester, serviceProvider, totalVoters) */\n      mload(0x40)\n      tag_182\n      swap7\n      swap6\n      swap5\n      swap4\n      swap3\n      swap2\n      swap1\n      tag_183\n      jump\t// in\n    tag_182:\n      mload(0x40)\n      dup1\n      swap2\n      sub\n      swap1\n      log1\n        /* \"contracts/Conflict.sol\":3200:4279  {... */\n      pop\n        /* \"contracts/Conflict.sol\":2122:2123  _ */\n      pop\n        /* \"contracts/Conflict.sol\":2891:4279  function createConflict(uint256 projectNumber, uint256 serviceNumber, uint256 milestoneNumber, string memory title, string memory description, address payable serviceRequester, address payable serviceProvider, uint256 totalVoters) public ... */\n      pop\n      pop\n      pop\n      pop\n      pop\n      pop\n      pop\n      pop\n      pop\n      jump\t// out\n        /* \"contracts/Conflict.sol\":2621:2844  function setState(uint256 projectNumber, uint256 serviceNumber, uint256 milestoneNumber, States.ConflictStatus state) internal {... */\n    tag_77:\n        /* \"contracts/Conflict.sol\":2832:2837  state */\n      dup1\n        /* \"contracts/Conflict.sol\":2758:2767  conflicts */\n      0x00\n        /* \"contracts/Conflict.sol\":2758:2782  conflicts[projectNumber] */\n      dup1\n        /* \"contracts/Conflict.sol\":2768:2781  projectNumber */\n      dup7\n        /* \"contracts/Conflict.sol\":2758:2782  conflicts[projectNumber] */\n      dup2\n      mstore\n      0x20\n      add\n      swap1\n      dup2\n      mstore\n      0x20\n      add\n      0x00\n      keccak256\n        /* \"contracts/Conflict.sol\":2758:2797  conflicts[projectNumber][serviceNumber] */\n      0x00\n        /* \"contracts/Conflict.sol\":2783:2796  serviceNumber */\n      dup6\n        /* \"contracts/Conflict.sol\":2758:2797  conflicts[projectNumber][serviceNumber] */\n      dup2\n      mstore\n      0x20\n      add\n      swap1\n      dup2\n      mstore\n      0x20\n      add\n      0x00\n      keccak256\n        /* \"contracts/Conflict.sol\":2758:2814  conflicts[projectNumber][serviceNumber][milestoneNumber] */\n      0x00\n        /* \"contracts/Conflict.sol\":2798:2813  milestoneNumber */\n      dup5\n        /* \"contracts/Conflict.sol\":2758:2814  conflicts[projectNumber][serviceNumber][milestoneNumber] */\n      dup2\n      mstore\n      0x20\n      add\n      swap1\n      dup2\n      mstore\n      0x20\n      add\n      0x00\n      keccak256\n        /* \"contracts/Conflict.sol\":2758:2829  conflicts[projectNumber][serviceNumber][milestoneNumber].conflictStatus */\n      0x06\n      add\n      0x14\n        /* \"contracts/Conflict.sol\":2758:2837  conflicts[projectNumber][serviceNumber][milestoneNumber].conflictStatus = state */\n      0x0100\n      exp\n      dup2\n      sload\n      dup2\n      0xff\n      mul\n      not\n      and\n      swap1\n      dup4\n      0x03\n      dup2\n      gt\n      iszero\n      tag_185\n      jumpi\n      tag_186\n      tag_69\n      jump\t// in\n    tag_186:\n    tag_185:\n      mul\n      or\n      swap1\n      sstore\n      pop\n        /* \"contracts/Conflict.sol\":2621:2844  function setState(uint256 projectNumber, uint256 serviceNumber, uint256 milestoneNumber, States.ConflictStatus state) internal {... */\n      pop\n      pop\n      pop\n      pop\n      jump\t// out\n    tag_164:\n      dup3\n      dup1\n      sload\n      tag_187\n      swap1\n      tag_188\n      jump\t// in\n    tag_187:\n      swap1\n      0x00\n      mstore\n      keccak256(0x00, 0x20)\n      swap1\n      0x1f\n      add\n      0x20\n      swap1\n      div\n      dup2\n      add\n      swap3\n      dup3\n      tag_190\n      jumpi\n      0x00\n      dup6\n      sstore\n      jump(tag_189)\n    tag_190:\n      dup3\n      0x1f\n      lt\n      tag_191\n      jumpi\n      dup1\n      mload\n      not(0xff)\n      and\n      dup4\n      dup1\n      add\n      or\n      dup6\n      sstore\n      jump(tag_189)\n    tag_191:\n      dup3\n      dup1\n      add\n      0x01\n      add\n      dup6\n      sstore\n      dup3\n      iszero\n      tag_189\n      jumpi\n      swap2\n      dup3\n      add\n    tag_192:\n      dup3\n      dup2\n      gt\n      iszero\n      tag_193\n      jumpi\n      dup3\n      mload\n      dup3\n      sstore\n      swap2\n      0x20\n      add\n      swap2\n      swap1\n      0x01\n      add\n      swap1\n      jump(tag_192)\n    tag_193:\n    tag_189:\n      pop\n      swap1\n      pop\n      tag_194\n      swap2\n      swap1\n      tag_195\n      jump\t// in\n    tag_194:\n      pop\n      swap1\n      jump\t// out\n    tag_195:\n    tag_196:\n      dup1\n      dup3\n      gt\n      iszero\n      tag_197\n      jumpi\n      0x00\n      dup2\n      0x00\n      swap1\n      sstore\n      pop\n      0x01\n      add\n      jump(tag_196)\n    tag_197:\n      pop\n      swap1\n      jump\t// out\n        /* \"#utility.yul\":7:419   */\n    tag_199:\n        /* \"#utility.yul\":85:90   */\n      0x00\n        /* \"#utility.yul\":110:176   */\n      tag_201\n        /* \"#utility.yul\":126:175   */\n      tag_202\n        /* \"#utility.yul\":168:174   */\n      dup5\n        /* \"#utility.yul\":126:175   */\n      tag_203\n      jump\t// in\n    tag_202:\n        /* \"#utility.yul\":110:176   */\n      tag_204\n      jump\t// in\n    tag_201:\n        /* \"#utility.yul\":101:176   */\n      swap1\n      pop\n        /* \"#utility.yul\":199:205   */\n      dup3\n        /* \"#utility.yul\":192:197   */\n      dup2\n        /* \"#utility.yul\":185:206   */\n      mstore\n        /* \"#utility.yul\":237:241   */\n      0x20\n        /* \"#utility.yul\":230:235   */\n      dup2\n        /* \"#utility.yul\":226:242   */\n      add\n        /* \"#utility.yul\":275:278   */\n      dup5\n        /* \"#utility.yul\":266:272   */\n      dup5\n        /* \"#utility.yul\":261:264   */\n      dup5\n        /* \"#utility.yul\":257:273   */\n      add\n        /* \"#utility.yul\":254:279   */\n      gt\n        /* \"#utility.yul\":251:363   */\n      iszero\n      tag_205\n      jumpi\n        /* \"#utility.yul\":282:361   */\n      tag_206\n      tag_207\n      jump\t// in\n    tag_206:\n        /* \"#utility.yul\":251:363   */\n    tag_205:\n        /* \"#utility.yul\":372:413   */\n      tag_208\n        /* \"#utility.yul\":406:412   */\n      dup5\n        /* \"#utility.yul\":401:404   */\n      dup3\n        /* \"#utility.yul\":396:399   */\n      dup6\n        /* \"#utility.yul\":372:413   */\n      tag_209\n      jump\t// in\n    tag_208:\n        /* \"#utility.yul\":91:419   */\n      pop\n        /* \"#utility.yul\":7:419   */\n      swap4\n      swap3\n      pop\n      pop\n      pop\n      jump\t// out\n        /* \"#utility.yul\":425:564   */\n    tag_210:\n        /* \"#utility.yul\":471:476   */\n      0x00\n        /* \"#utility.yul\":509:515   */\n      dup2\n        /* \"#utility.yul\":496:516   */\n      calldataload\n        /* \"#utility.yul\":487:516   */\n      swap1\n      pop\n        /* \"#utility.yul\":525:558   */\n      tag_212\n        /* \"#utility.yul\":552:557   */\n      dup2\n        /* \"#utility.yul\":525:558   */\n      tag_213\n      jump\t// in\n    tag_212:\n        /* \"#utility.yul\":425:564   */\n      swap3\n      swap2\n      pop\n      pop\n      jump\t// out\n        /* \"#utility.yul\":570:725   */\n    tag_214:\n        /* \"#utility.yul\":624:629   */\n      0x00\n        /* \"#utility.yul\":662:668   */\n      dup2\n        /* \"#utility.yul\":649:669   */\n      calldataload\n        /* \"#utility.yul\":640:669   */\n      swap1\n      pop\n        /* \"#utility.yul\":678:719   */\n      tag_216\n        /* \"#utility.yul\":713:718   */\n      dup2\n        /* \"#utility.yul\":678:719   */\n      tag_217\n      jump\t// in\n    tag_216:\n        /* \"#utility.yul\":570:725   */\n      swap3\n      swap2\n      pop\n      pop\n      jump\t// out\n        /* \"#utility.yul\":745:1085   */\n    tag_218:\n        /* \"#utility.yul\":801:806   */\n      0x00\n        /* \"#utility.yul\":850:853   */\n      dup3\n        /* \"#utility.yul\":843:847   */\n      0x1f\n        /* \"#utility.yul\":835:841   */\n      dup4\n        /* \"#utility.yul\":831:848   */\n      add\n        /* \"#utility.yul\":827:854   */\n      slt\n        /* \"#utility.yul\":817:939   */\n      tag_220\n      jumpi\n        /* \"#utility.yul\":858:937   */\n      tag_221\n      tag_222\n      jump\t// in\n    tag_221:\n        /* \"#utility.yul\":817:939   */\n    tag_220:\n        /* \"#utility.yul\":975:981   */\n      dup2\n        /* \"#utility.yul\":962:982   */\n      calldataload\n        /* \"#utility.yul\":1000:1079   */\n      tag_223\n        /* \"#utility.yul\":1075:1078   */\n      dup5\n        /* \"#utility.yul\":1067:1073   */\n      dup3\n        /* \"#utility.yul\":1060:1064   */\n      0x20\n        /* \"#utility.yul\":1052:1058   */\n      dup7\n        /* \"#utility.yul\":1048:1065   */\n      add\n        /* \"#utility.yul\":1000:1079   */\n      tag_199\n      jump\t// in\n    tag_223:\n        /* \"#utility.yul\":991:1079   */\n      swap2\n      pop\n        /* \"#utility.yul\":807:1085   */\n      pop\n        /* \"#utility.yul\":745:1085   */\n      swap3\n      swap2\n      pop\n      pop\n      jump\t// out\n        /* \"#utility.yul\":1091:1230   */\n    tag_224:\n        /* \"#utility.yul\":1137:1142   */\n      0x00\n        /* \"#utility.yul\":1175:1181   */\n      dup2\n        /* \"#utility.yul\":1162:1182   */\n      calldataload\n        /* \"#utility.yul\":1153:1182   */\n      swap1\n      pop\n        /* \"#utility.yul\":1191:1224   */\n      tag_226\n        /* \"#utility.yul\":1218:1223   */\n      dup2\n        /* \"#utility.yul\":1191:1224   */\n      tag_227\n      jump\t// in\n    tag_226:\n        /* \"#utility.yul\":1091:1230   */\n      swap3\n      swap2\n      pop\n      pop\n      jump\t// out\n        /* \"#utility.yul\":1236:1371   */\n    tag_228:\n        /* \"#utility.yul\":1280:1285   */\n      0x00\n        /* \"#utility.yul\":1318:1324   */\n      dup2\n        /* \"#utility.yul\":1305:1325   */\n      calldataload\n        /* \"#utility.yul\":1296:1325   */\n      swap1\n      pop\n        /* \"#utility.yul\":1334:1365   */\n      tag_230\n        /* \"#utility.yul\":1359:1364   */\n      dup2\n        /* \"#utility.yul\":1334:1365   */\n      tag_231\n      jump\t// in\n    tag_230:\n        /* \"#utility.yul\":1236:1371   */\n      swap3\n      swap2\n      pop\n      pop\n      jump\t// out\n        /* \"#utility.yul\":1377:1996   */\n    tag_17:\n        /* \"#utility.yul\":1454:1460   */\n      0x00\n        /* \"#utility.yul\":1462:1468   */\n      dup1\n        /* \"#utility.yul\":1470:1476   */\n      0x00\n        /* \"#utility.yul\":1519:1521   */\n      0x60\n        /* \"#utility.yul\":1507:1516   */\n      dup5\n        /* \"#utility.yul\":1498:1505   */\n      dup7\n        /* \"#utility.yul\":1494:1517   */\n      sub\n        /* \"#utility.yul\":1490:1522   */\n      slt\n        /* \"#utility.yul\":1487:1606   */\n      iszero\n      tag_233\n      jumpi\n        /* \"#utility.yul\":1525:1604   */\n      tag_234\n      tag_235\n      jump\t// in\n    tag_234:\n        /* \"#utility.yul\":1487:1606   */\n    tag_233:\n        /* \"#utility.yul\":1645:1646   */\n      0x00\n        /* \"#utility.yul\":1670:1723   */\n      tag_236\n        /* \"#utility.yul\":1715:1722   */\n      dup7\n        /* \"#utility.yul\":1706:1712   */\n      dup3\n        /* \"#utility.yul\":1695:1704   */\n      dup8\n        /* \"#utility.yul\":1691:1713   */\n      add\n        /* \"#utility.yul\":1670:1723   */\n      tag_224\n      jump\t// in\n    tag_236:\n        /* \"#utility.yul\":1660:1723   */\n      swap4\n      pop\n        /* \"#utility.yul\":1616:1733   */\n      pop\n        /* \"#utility.yul\":1772:1774   */\n      0x20\n        /* \"#utility.yul\":1798:1851   */\n      tag_237\n        /* \"#utility.yul\":1843:1850   */\n      dup7\n        /* \"#utility.yul\":1834:1840   */\n      dup3\n        /* \"#utility.yul\":1823:1832   */\n      dup8\n        /* \"#utility.yul\":1819:1841   */\n      add\n        /* \"#utility.yul\":1798:1851   */\n      tag_224\n      jump\t// in\n    tag_237:\n        /* \"#utility.yul\":1788:1851   */\n      swap3\n      pop\n        /* \"#utility.yul\":1743:1861   */\n      pop\n        /* \"#utility.yul\":1900:1902   */\n      0x40\n        /* \"#utility.yul\":1926:1979   */\n      tag_238\n        /* \"#utility.yul\":1971:1978   */\n      dup7\n        /* \"#utility.yul\":1962:1968   */\n      dup3\n        /* \"#utility.yul\":1951:1960   */\n      dup8\n        /* \"#utility.yul\":1947:1969   */\n      add\n        /* \"#utility.yul\":1926:1979   */\n      tag_224\n      jump\t// in\n    tag_238:\n        /* \"#utility.yul\":1916:1979   */\n      swap2\n      pop\n        /* \"#utility.yul\":1871:1989   */\n      pop\n        /* \"#utility.yul\":1377:1996   */\n      swap3\n      pop\n      swap3\n      pop\n      swap3\n      jump\t// out\n        /* \"#utility.yul\":2002:2909   */\n    tag_42:\n        /* \"#utility.yul\":2095:2101   */\n      0x00\n        /* \"#utility.yul\":2103:2109   */\n      dup1\n        /* \"#utility.yul\":2111:2117   */\n      0x00\n        /* \"#utility.yul\":2119:2125   */\n      dup1\n        /* \"#utility.yul\":2127:2133   */\n      0x00\n        /* \"#utility.yul\":2176:2179   */\n      0xa0\n        /* \"#utility.yul\":2164:2173   */\n      dup7\n        /* \"#utility.yul\":2155:2162   */\n      dup9\n        /* \"#utility.yul\":2151:2174   */\n      sub\n        /* \"#utility.yul\":2147:2180   */\n      slt\n        /* \"#utility.yul\":2144:2264   */\n      iszero\n      tag_240\n      jumpi\n        /* \"#utility.yul\":2183:2262   */\n      tag_241\n      tag_235\n      jump\t// in\n    tag_241:\n        /* \"#utility.yul\":2144:2264   */\n    tag_240:\n        /* \"#utility.yul\":2303:2304   */\n      0x00\n        /* \"#utility.yul\":2328:2381   */\n      tag_242\n        /* \"#utility.yul\":2373:2380   */\n      dup9\n        /* \"#utility.yul\":2364:2370   */\n      dup3\n        /* \"#utility.yul\":2353:2362   */\n      dup10\n        /* \"#utility.yul\":2349:2371   */\n      add\n        /* \"#utility.yul\":2328:2381   */\n      tag_224\n      jump\t// in\n    tag_242:\n        /* \"#utility.yul\":2318:2381   */\n      swap6\n      pop\n        /* \"#utility.yul\":2274:2391   */\n      pop\n        /* \"#utility.yul\":2430:2432   */\n      0x20\n        /* \"#utility.yul\":2456:2509   */\n      tag_243\n        /* \"#utility.yul\":2501:2508   */\n      dup9\n        /* \"#utility.yul\":2492:2498   */\n      dup3\n        /* \"#utility.yul\":2481:2490   */\n      dup10\n        /* \"#utility.yul\":2477:2499   */\n      add\n        /* \"#utility.yul\":2456:2509   */\n      tag_224\n      jump\t// in\n    tag_243:\n        /* \"#utility.yul\":2446:2509   */\n      swap5\n      pop\n        /* \"#utility.yul\":2401:2519   */\n      pop\n        /* \"#utility.yul\":2558:2560   */\n      0x40\n        /* \"#utility.yul\":2584:2637   */\n      tag_244\n        /* \"#utility.yul\":2629:2636   */\n      dup9\n        /* \"#utility.yul\":2620:2626   */\n      dup3\n        /* \"#utility.yul\":2609:2618   */\n      dup10\n        /* \"#utility.yul\":2605:2627   */\n      add\n        /* \"#utility.yul\":2584:2637   */\n      tag_224\n      jump\t// in\n    tag_244:\n        /* \"#utility.yul\":2574:2637   */\n      swap4\n      pop\n        /* \"#utility.yul\":2529:2647   */\n      pop\n        /* \"#utility.yul\":2686:2688   */\n      0x60\n        /* \"#utility.yul\":2712:2765   */\n      tag_245\n        /* \"#utility.yul\":2757:2764   */\n      dup9\n        /* \"#utility.yul\":2748:2754   */\n      dup3\n        /* \"#utility.yul\":2737:2746   */\n      dup10\n        /* \"#utility.yul\":2733:2755   */\n      add\n        /* \"#utility.yul\":2712:2765   */\n      tag_210\n      jump\t// in\n    tag_245:\n        /* \"#utility.yul\":2702:2765   */\n      swap3\n      pop\n        /* \"#utility.yul\":2657:2775   */\n      pop\n        /* \"#utility.yul\":2814:2817   */\n      0x80\n        /* \"#utility.yul\":2841:2892   */\n      tag_246\n        /* \"#utility.yul\":2884:2891   */\n      dup9\n        /* \"#utility.yul\":2875:2881   */\n      dup3\n        /* \"#utility.yul\":2864:2873   */\n      dup10\n        /* \"#utility.yul\":2860:2882   */\n      add\n        /* \"#utility.yul\":2841:2892   */\n      tag_228\n      jump\t// in\n    tag_246:\n        /* \"#utility.yul\":2831:2892   */\n      swap2\n      pop\n        /* \"#utility.yul\":2785:2902   */\n      pop\n        /* \"#utility.yul\":2002:2909   */\n      swap3\n      swap6\n      pop\n      swap3\n      swap6\n      swap1\n      swap4\n      pop\n      jump\t// out\n        /* \"#utility.yul\":2915:4186   */\n    tag_51:\n        /* \"#utility.yul\":3030:3036   */\n      0x00\n        /* \"#utility.yul\":3038:3044   */\n      dup1\n        /* \"#utility.yul\":3046:3052   */\n      0x00\n        /* \"#utility.yul\":3054:3060   */\n      dup1\n        /* \"#utility.yul\":3062:3068   */\n      0x00\n        /* \"#utility.yul\":3111:3114   */\n      0xa0\n        /* \"#utility.yul\":3099:3108   */\n      dup7\n        /* \"#utility.yul\":3090:3097   */\n      dup9\n        /* \"#utility.yul\":3086:3109   */\n      sub\n        /* \"#utility.yul\":3082:3115   */\n      slt\n        /* \"#utility.yul\":3079:3199   */\n      iszero\n      tag_248\n      jumpi\n        /* \"#utility.yul\":3118:3197   */\n      tag_249\n      tag_235\n      jump\t// in\n    tag_249:\n        /* \"#utility.yul\":3079:3199   */\n    tag_248:\n        /* \"#utility.yul\":3238:3239   */\n      0x00\n        /* \"#utility.yul\":3263:3316   */\n      tag_250\n        /* \"#utility.yul\":3308:3315   */\n      dup9\n        /* \"#utility.yul\":3299:3305   */\n      dup3\n        /* \"#utility.yul\":3288:3297   */\n      dup10\n        /* \"#utility.yul\":3284:3306   */\n      add\n        /* \"#utility.yul\":3263:3316   */\n      tag_224\n      jump\t// in\n    tag_250:\n        /* \"#utility.yul\":3253:3316   */\n      swap6\n      pop\n        /* \"#utility.yul\":3209:3326   */\n      pop\n        /* \"#utility.yul\":3365:3367   */\n      0x20\n        /* \"#utility.yul\":3391:3444   */\n      tag_251\n        /* \"#utility.yul\":3436:3443   */\n      dup9\n        /* \"#utility.yul\":3427:3433   */\n      dup3\n        /* \"#utility.yul\":3416:3425   */\n      dup10\n        /* \"#utility.yul\":3412:3434   */\n      add\n        /* \"#utility.yul\":3391:3444   */\n      tag_224\n      jump\t// in\n    tag_251:\n        /* \"#utility.yul\":3381:3444   */\n      swap5\n      pop\n        /* \"#utility.yul\":3336:3454   */\n      pop\n        /* \"#utility.yul\":3493:3495   */\n      0x40\n        /* \"#utility.yul\":3519:3572   */\n      tag_252\n        /* \"#utility.yul\":3564:3571   */\n      dup9\n        /* \"#utility.yul\":3555:3561   */\n      dup3\n        /* \"#utility.yul\":3544:3553   */\n      dup10\n        /* \"#utility.yul\":3540:3562   */\n      add\n        /* \"#utility.yul\":3519:3572   */\n      tag_224\n      jump\t// in\n    tag_252:\n        /* \"#utility.yul\":3509:3572   */\n      swap4\n      pop\n        /* \"#utility.yul\":3464:3582   */\n      pop\n        /* \"#utility.yul\":3649:3651   */\n      0x60\n        /* \"#utility.yul\":3638:3647   */\n      dup7\n        /* \"#utility.yul\":3634:3652   */\n      add\n        /* \"#utility.yul\":3621:3653   */\n      calldataload\n        /* \"#utility.yul\":3680:3698   */\n      0xffffffffffffffff\n        /* \"#utility.yul\":3672:3678   */\n      dup2\n        /* \"#utility.yul\":3669:3699   */\n      gt\n        /* \"#utility.yul\":3666:3783   */\n      iszero\n      tag_253\n      jumpi\n        /* \"#utility.yul\":3702:3781   */\n      tag_254\n      tag_255\n      jump\t// in\n    tag_254:\n        /* \"#utility.yul\":3666:3783   */\n    tag_253:\n        /* \"#utility.yul\":3807:3870   */\n      tag_256\n        /* \"#utility.yul\":3862:3869   */\n      dup9\n        /* \"#utility.yul\":3853:3859   */\n      dup3\n        /* \"#utility.yul\":3842:3851   */\n      dup10\n        /* \"#utility.yul\":3838:3860   */\n      add\n        /* \"#utility.yul\":3807:3870   */\n      tag_218\n      jump\t// in\n    tag_256:\n        /* \"#utility.yul\":3797:3870   */\n      swap3\n      pop\n        /* \"#utility.yul\":3592:3880   */\n      pop\n        /* \"#utility.yul\":3947:3950   */\n      0x80\n        /* \"#utility.yul\":3936:3945   */\n      dup7\n        /* \"#utility.yul\":3932:3951   */\n      add\n        /* \"#utility.yul\":3919:3952   */\n      calldataload\n        /* \"#utility.yul\":3979:3997   */\n      0xffffffffffffffff\n        /* \"#utility.yul\":3971:3977   */\n      dup2\n        /* \"#utility.yul\":3968:3998   */\n      gt\n        /* \"#utility.yul\":3965:4082   */\n      iszero\n      tag_257\n      jumpi\n        /* \"#utility.yul\":4001:4080   */\n      tag_258\n      tag_255\n      jump\t// in\n    tag_258:\n        /* \"#utility.yul\":3965:4082   */\n    tag_257:\n        /* \"#utility.yul\":4106:4169   */\n      tag_259\n        /* \"#utility.yul\":4161:4168   */\n      dup9\n        /* \"#utility.yul\":4152:4158   */\n      dup3\n        /* \"#utility.yul\":4141:4150   */\n      dup10\n        /* \"#utility.yul\":4137:4159   */\n      add\n        /* \"#utility.yul\":4106:4169   */\n      tag_218\n      jump\t// in\n    tag_259:\n        /* \"#utility.yul\":4096:4169   */\n      swap2\n      pop\n        /* \"#utility.yul\":3890:4179   */\n      pop\n        /* \"#utility.yul\":2915:4186   */\n      swap3\n      swap6\n      pop\n      swap3\n      swap6\n      swap1\n      swap4\n      pop\n      jump\t// out\n        /* \"#utility.yul\":4192:5933   */\n    tag_59:\n        /* \"#utility.yul\":4350:4356   */\n      0x00\n        /* \"#utility.yul\":4358:4364   */\n      dup1\n        /* \"#utility.yul\":4366:4372   */\n      0x00\n        /* \"#utility.yul\":4374:4380   */\n      dup1\n        /* \"#utility.yul\":4382:4388   */\n      0x00\n        /* \"#utility.yul\":4390:4396   */\n      dup1\n        /* \"#utility.yul\":4398:4404   */\n      0x00\n        /* \"#utility.yul\":4406:4412   */\n      dup1\n        /* \"#utility.yul\":4455:4458   */\n      0x0100\n        /* \"#utility.yul\":4443:4452   */\n      dup10\n        /* \"#utility.yul\":4434:4441   */\n      dup12\n        /* \"#utility.yul\":4430:4453   */\n      sub\n        /* \"#utility.yul\":4426:4459   */\n      slt\n        /* \"#utility.yul\":4423:4543   */\n      iszero\n      tag_261\n      jumpi\n        /* \"#utility.yul\":4462:4541   */\n      tag_262\n      tag_235\n      jump\t// in\n    tag_262:\n        /* \"#utility.yul\":4423:4543   */\n    tag_261:\n        /* \"#utility.yul\":4582:4583   */\n      0x00\n        /* \"#utility.yul\":4607:4660   */\n      tag_263\n        /* \"#utility.yul\":4652:4659   */\n      dup12\n        /* \"#utility.yul\":4643:4649   */\n      dup3\n        /* \"#utility.yul\":4632:4641   */\n      dup13\n        /* \"#utility.yul\":4628:4650   */\n      add\n        /* \"#utility.yul\":4607:4660   */\n      tag_224\n      jump\t// in\n    tag_263:\n        /* \"#utility.yul\":4597:4660   */\n      swap9\n      pop\n        /* \"#utility.yul\":4553:4670   */\n      pop\n        /* \"#utility.yul\":4709:4711   */\n      0x20\n        /* \"#utility.yul\":4735:4788   */\n      tag_264\n        /* \"#utility.yul\":4780:4787   */\n      dup12\n        /* \"#utility.yul\":4771:4777   */\n      dup3\n        /* \"#utility.yul\":4760:4769   */\n      dup13\n        /* \"#utility.yul\":4756:4778   */\n      add\n        /* \"#utility.yul\":4735:4788   */\n      tag_224\n      jump\t// in\n    tag_264:\n        /* \"#utility.yul\":4725:4788   */\n      swap8\n      pop\n        /* \"#utility.yul\":4680:4798   */\n      pop\n        /* \"#utility.yul\":4837:4839   */\n      0x40\n        /* \"#utility.yul\":4863:4916   */\n      tag_265\n        /* \"#utility.yul\":4908:4915   */\n      dup12\n        /* \"#utility.yul\":4899:4905   */\n      dup3\n        /* \"#utility.yul\":4888:4897   */\n      dup13\n        /* \"#utility.yul\":4884:4906   */\n      add\n        /* \"#utility.yul\":4863:4916   */\n      tag_224\n      jump\t// in\n    tag_265:\n        /* \"#utility.yul\":4853:4916   */\n      swap7\n      pop\n        /* \"#utility.yul\":4808:4926   */\n      pop\n        /* \"#utility.yul\":4993:4995   */\n      0x60\n        /* \"#utility.yul\":4982:4991   */\n      dup10\n        /* \"#utility.yul\":4978:4996   */\n      add\n        /* \"#utility.yul\":4965:4997   */\n      calldataload\n        /* \"#utility.yul\":5024:5042   */\n      0xffffffffffffffff\n        /* \"#utility.yul\":5016:5022   */\n      dup2\n        /* \"#utility.yul\":5013:5043   */\n      gt\n        /* \"#utility.yul\":5010:5127   */\n      iszero\n      tag_266\n      jumpi\n        /* \"#utility.yul\":5046:5125   */\n      tag_267\n      tag_255\n      jump\t// in\n    tag_267:\n        /* \"#utility.yul\":5010:5127   */\n    tag_266:\n        /* \"#utility.yul\":5151:5214   */\n      tag_268\n        /* \"#utility.yul\":5206:5213   */\n      dup12\n        /* \"#utility.yul\":5197:5203   */\n      dup3\n        /* \"#utility.yul\":5186:5195   */\n      dup13\n        /* \"#utility.yul\":5182:5204   */\n      add\n        /* \"#utility.yul\":5151:5214   */\n      tag_218\n      jump\t// in\n    tag_268:\n        /* \"#utility.yul\":5141:5214   */\n      swap6\n      pop\n        /* \"#utility.yul\":4936:5224   */\n      pop\n        /* \"#utility.yul\":5291:5294   */\n      0x80\n        /* \"#utility.yul\":5280:5289   */\n      dup10\n        /* \"#utility.yul\":5276:5295   */\n      add\n        /* \"#utility.yul\":5263:5296   */\n      calldataload\n        /* \"#utility.yul\":5323:5341   */\n      0xffffffffffffffff\n        /* \"#utility.yul\":5315:5321   */\n      dup2\n        /* \"#utility.yul\":5312:5342   */\n      gt\n        /* \"#utility.yul\":5309:5426   */\n      iszero\n      tag_269\n      jumpi\n        /* \"#utility.yul\":5345:5424   */\n      tag_270\n      tag_255\n      jump\t// in\n    tag_270:\n        /* \"#utility.yul\":5309:5426   */\n    tag_269:\n        /* \"#utility.yul\":5450:5513   */\n      tag_271\n        /* \"#utility.yul\":5505:5512   */\n      dup12\n        /* \"#utility.yul\":5496:5502   */\n      dup3\n        /* \"#utility.yul\":5485:5494   */\n      dup13\n        /* \"#utility.yul\":5481:5503   */\n      add\n        /* \"#utility.yul\":5450:5513   */\n      tag_218\n      jump\t// in\n    tag_271:\n        /* \"#utility.yul\":5440:5513   */\n      swap5\n      pop\n        /* \"#utility.yul\":5234:5523   */\n      pop\n        /* \"#utility.yul\":5562:5565   */\n      0xa0\n        /* \"#utility.yul\":5589:5650   */\n      tag_272\n        /* \"#utility.yul\":5642:5649   */\n      dup12\n        /* \"#utility.yul\":5633:5639   */\n      dup3\n        /* \"#utility.yul\":5622:5631   */\n      dup13\n        /* \"#utility.yul\":5618:5640   */\n      add\n        /* \"#utility.yul\":5589:5650   */\n      tag_214\n      jump\t// in\n    tag_272:\n        /* \"#utility.yul\":5579:5650   */\n      swap4\n      pop\n        /* \"#utility.yul\":5533:5660   */\n      pop\n        /* \"#utility.yul\":5699:5702   */\n      0xc0\n        /* \"#utility.yul\":5726:5787   */\n      tag_273\n        /* \"#utility.yul\":5779:5786   */\n      dup12\n        /* \"#utility.yul\":5770:5776   */\n      dup3\n        /* \"#utility.yul\":5759:5768   */\n      dup13\n        /* \"#utility.yul\":5755:5777   */\n      add\n        /* \"#utility.yul\":5726:5787   */\n      tag_214\n      jump\t// in\n    tag_273:\n        /* \"#utility.yul\":5716:5787   */\n      swap3\n      pop\n        /* \"#utility.yul\":5670:5797   */\n      pop\n        /* \"#utility.yul\":5836:5839   */\n      0xe0\n        /* \"#utility.yul\":5863:5916   */\n      tag_274\n        /* \"#utility.yul\":5908:5915   */\n      dup12\n        /* \"#utility.yul\":5899:5905   */\n      dup3\n        /* \"#utility.yul\":5888:5897   */\n      dup13\n        /* \"#utility.yul\":5884:5906   */\n      add\n        /* \"#utility.yul\":5863:5916   */\n      tag_224\n      jump\t// in\n    tag_274:\n        /* \"#utility.yul\":5853:5916   */\n      swap2\n      pop\n        /* \"#utility.yul\":5807:5926   */\n      pop\n        /* \"#utility.yul\":4192:5933   */\n      swap3\n      swap6\n      swap9\n      pop\n      swap3\n      swap6\n      swap9\n      swap1\n      swap4\n      swap7\n      pop\n      jump\t// out\n        /* \"#utility.yul\":5939:6086   */\n    tag_275:\n        /* \"#utility.yul\":6034:6079   */\n      tag_277\n        /* \"#utility.yul\":6073:6078   */\n      dup2\n        /* \"#utility.yul\":6034:6079   */\n      tag_278\n      jump\t// in\n    tag_277:\n        /* \"#utility.yul\":6029:6032   */\n      dup3\n        /* \"#utility.yul\":6022:6080   */\n      mstore\n        /* \"#utility.yul\":5939:6086   */\n      pop\n      pop\n      jump\t// out\n        /* \"#utility.yul\":6092:6210   */\n    tag_279:\n        /* \"#utility.yul\":6179:6203   */\n      tag_281\n        /* \"#utility.yul\":6197:6202   */\n      dup2\n        /* \"#utility.yul\":6179:6203   */\n      tag_282\n      jump\t// in\n    tag_281:\n        /* \"#utility.yul\":6174:6177   */\n      dup3\n        /* \"#utility.yul\":6167:6204   */\n      mstore\n        /* \"#utility.yul\":6092:6210   */\n      pop\n      pop\n      jump\t// out\n        /* \"#utility.yul\":6216:6325   */\n    tag_283:\n        /* \"#utility.yul\":6297:6318   */\n      tag_285\n        /* \"#utility.yul\":6312:6317   */\n      dup2\n        /* \"#utility.yul\":6297:6318   */\n      tag_286\n      jump\t// in\n    tag_285:\n        /* \"#utility.yul\":6292:6295   */\n      dup3\n        /* \"#utility.yul\":6285:6319   */\n      mstore\n        /* \"#utility.yul\":6216:6325   */\n      pop\n      pop\n      jump\t// out\n        /* \"#utility.yul\":6331:6494   */\n    tag_287:\n        /* \"#utility.yul\":6434:6487   */\n      tag_289\n        /* \"#utility.yul\":6481:6486   */\n      dup2\n        /* \"#utility.yul\":6434:6487   */\n      tag_290\n      jump\t// in\n    tag_289:\n        /* \"#utility.yul\":6429:6432   */\n      dup3\n        /* \"#utility.yul\":6422:6488   */\n      mstore\n        /* \"#utility.yul\":6331:6494   */\n      pop\n      pop\n      jump\t// out\n        /* \"#utility.yul\":6500:6866   */\n    tag_291:\n        /* \"#utility.yul\":6642:6645   */\n      0x00\n        /* \"#utility.yul\":6663:6730   */\n      tag_293\n        /* \"#utility.yul\":6727:6729   */\n      0x57\n        /* \"#utility.yul\":6722:6725   */\n      dup4\n        /* \"#utility.yul\":6663:6730   */\n      tag_294\n      jump\t// in\n    tag_293:\n        /* \"#utility.yul\":6656:6730   */\n      swap2\n      pop\n        /* \"#utility.yul\":6739:6832   */\n      tag_295\n        /* \"#utility.yul\":6828:6831   */\n      dup3\n        /* \"#utility.yul\":6739:6832   */\n      tag_296\n      jump\t// in\n    tag_295:\n        /* \"#utility.yul\":6857:6859   */\n      0x60\n        /* \"#utility.yul\":6852:6855   */\n      dup3\n        /* \"#utility.yul\":6848:6860   */\n      add\n        /* \"#utility.yul\":6841:6860   */\n      swap1\n      pop\n        /* \"#utility.yul\":6500:6866   */\n      swap2\n      swap1\n      pop\n      jump\t// out\n        /* \"#utility.yul\":6872:7238   */\n    tag_297:\n        /* \"#utility.yul\":7014:7017   */\n      0x00\n        /* \"#utility.yul\":7035:7102   */\n      tag_299\n        /* \"#utility.yul\":7099:7101   */\n      0x2d\n        /* \"#utility.yul\":7094:7097   */\n      dup4\n        /* \"#utility.yul\":7035:7102   */\n      tag_294\n      jump\t// in\n    tag_299:\n        /* \"#utility.yul\":7028:7102   */\n      swap2\n      pop\n        /* \"#utility.yul\":7111:7204   */\n      tag_300\n        /* \"#utility.yul\":7200:7203   */\n      dup3\n        /* \"#utility.yul\":7111:7204   */\n      tag_301\n      jump\t// in\n    tag_300:\n        /* \"#utility.yul\":7229:7231   */\n      0x40\n        /* \"#utility.yul\":7224:7227   */\n      dup3\n        /* \"#utility.yul\":7220:7232   */\n      add\n        /* \"#utility.yul\":7213:7232   */\n      swap1\n      pop\n        /* \"#utility.yul\":6872:7238   */\n      swap2\n      swap1\n      pop\n      jump\t// out\n        /* \"#utility.yul\":7244:7610   */\n    tag_302:\n        /* \"#utility.yul\":7386:7389   */\n      0x00\n        /* \"#utility.yul\":7407:7474   */\n      tag_304\n        /* \"#utility.yul\":7471:7473   */\n      0x20\n        /* \"#utility.yul\":7466:7469   */\n      dup4\n        /* \"#utility.yul\":7407:7474   */\n      tag_294\n      jump\t// in\n    tag_304:\n        /* \"#utility.yul\":7400:7474   */\n      swap2\n      pop\n        /* \"#utility.yul\":7483:7576   */\n      tag_305\n        /* \"#utility.yul\":7572:7575   */\n      dup3\n        /* \"#utility.yul\":7483:7576   */\n      tag_306\n      jump\t// in\n    tag_305:\n        /* \"#utility.yul\":7601:7603   */\n      0x20\n        /* \"#utility.yul\":7596:7599   */\n      dup3\n        /* \"#utility.yul\":7592:7604   */\n      add\n        /* \"#utility.yul\":7585:7604   */\n      swap1\n      pop\n        /* \"#utility.yul\":7244:7610   */\n      swap2\n      swap1\n      pop\n      jump\t// out\n        /* \"#utility.yul\":7616:7982   */\n    tag_307:\n        /* \"#utility.yul\":7758:7761   */\n      0x00\n        /* \"#utility.yul\":7779:7846   */\n      tag_309\n        /* \"#utility.yul\":7843:7845   */\n      0x1d\n        /* \"#utility.yul\":7838:7841   */\n      dup4\n        /* \"#utility.yul\":7779:7846   */\n      tag_294\n      jump\t// in\n    tag_309:\n        /* \"#utility.yul\":7772:7846   */\n      swap2\n      pop\n        /* \"#utility.yul\":7855:7948   */\n      tag_310\n        /* \"#utility.yul\":7944:7947   */\n      dup3\n        /* \"#utility.yul\":7855:7948   */\n      tag_311\n      jump\t// in\n    tag_310:\n        /* \"#utility.yul\":7973:7975   */\n      0x20\n        /* \"#utility.yul\":7968:7971   */\n      dup3\n        /* \"#utility.yul\":7964:7976   */\n      add\n        /* \"#utility.yul\":7957:7976   */\n      swap1\n      pop\n        /* \"#utility.yul\":7616:7982   */\n      swap2\n      swap1\n      pop\n      jump\t// out\n        /* \"#utility.yul\":7988:8354   */\n    tag_312:\n        /* \"#utility.yul\":8130:8133   */\n      0x00\n        /* \"#utility.yul\":8151:8218   */\n      tag_314\n        /* \"#utility.yul\":8215:8217   */\n      0x30\n        /* \"#utility.yul\":8210:8213   */\n      dup4\n        /* \"#utility.yul\":8151:8218   */\n      tag_294\n      jump\t// in\n    tag_314:\n        /* \"#utility.yul\":8144:8218   */\n      swap2\n      pop\n        /* \"#utility.yul\":8227:8320   */\n      tag_315\n        /* \"#utility.yul\":8316:8319   */\n      dup3\n        /* \"#utility.yul\":8227:8320   */\n      tag_316\n      jump\t// in\n    tag_315:\n        /* \"#utility.yul\":8345:8347   */\n      0x40\n        /* \"#utility.yul\":8340:8343   */\n      dup3\n        /* \"#utility.yul\":8336:8348   */\n      add\n        /* \"#utility.yul\":8329:8348   */\n      swap1\n      pop\n        /* \"#utility.yul\":7988:8354   */\n      swap2\n      swap1\n      pop\n      jump\t// out\n        /* \"#utility.yul\":8360:8726   */\n    tag_317:\n        /* \"#utility.yul\":8502:8505   */\n      0x00\n        /* \"#utility.yul\":8523:8590   */\n      tag_319\n        /* \"#utility.yul\":8587:8589   */\n      0x40\n        /* \"#utility.yul\":8582:8585   */\n      dup4\n        /* \"#utility.yul\":8523:8590   */\n      tag_294\n      jump\t// in\n    tag_319:\n        /* \"#utility.yul\":8516:8590   */\n      swap2\n      pop\n        /* \"#utility.yul\":8599:8692   */\n      tag_320\n        /* \"#utility.yul\":8688:8691   */\n      dup3\n        /* \"#utility.yul\":8599:8692   */\n      tag_321\n      jump\t// in\n    tag_320:\n        /* \"#utility.yul\":8717:8719   */\n      0x40\n        /* \"#utility.yul\":8712:8715   */\n      dup3\n        /* \"#utility.yul\":8708:8720   */\n      add\n        /* \"#utility.yul\":8701:8720   */\n      swap1\n      pop\n        /* \"#utility.yul\":8360:8726   */\n      swap2\n      swap1\n      pop\n      jump\t// out\n        /* \"#utility.yul\":8732:9098   */\n    tag_322:\n        /* \"#utility.yul\":8874:8877   */\n      0x00\n        /* \"#utility.yul\":8895:8962   */\n      tag_324\n        /* \"#utility.yul\":8959:8961   */\n      0x3d\n        /* \"#utility.yul\":8954:8957   */\n      dup4\n        /* \"#utility.yul\":8895:8962   */\n      tag_294\n      jump\t// in\n    tag_324:\n        /* \"#utility.yul\":8888:8962   */\n      swap2\n      pop\n        /* \"#utility.yul\":8971:9064   */\n      tag_325\n        /* \"#utility.yul\":9060:9063   */\n      dup3\n        /* \"#utility.yul\":8971:9064   */\n      tag_326\n      jump\t// in\n    tag_325:\n        /* \"#utility.yul\":9089:9091   */\n      0x40\n        /* \"#utility.yul\":9084:9087   */\n      dup3\n        /* \"#utility.yul\":9080:9092   */\n      add\n        /* \"#utility.yul\":9073:9092   */\n      swap1\n      pop\n        /* \"#utility.yul\":8732:9098   */\n      swap2\n      swap1\n      pop\n      jump\t// out\n        /* \"#utility.yul\":9104:9470   */\n    tag_327:\n        /* \"#utility.yul\":9246:9249   */\n      0x00\n        /* \"#utility.yul\":9267:9334   */\n      tag_329\n        /* \"#utility.yul\":9331:9333   */\n      0x4a\n        /* \"#utility.yul\":9326:9329   */\n      dup4\n        /* \"#utility.yul\":9267:9334   */\n      tag_294\n      jump\t// in\n    tag_329:\n        /* \"#utility.yul\":9260:9334   */\n      swap2\n      pop\n        /* \"#utility.yul\":9343:9436   */\n      tag_330\n        /* \"#utility.yul\":9432:9435   */\n      dup3\n        /* \"#utility.yul\":9343:9436   */\n      tag_331\n      jump\t// in\n    tag_330:\n        /* \"#utility.yul\":9461:9463   */\n      0x60\n        /* \"#utility.yul\":9456:9459   */\n      dup3\n        /* \"#utility.yul\":9452:9464   */\n      add\n        /* \"#utility.yul\":9445:9464   */\n      swap1\n      pop\n        /* \"#utility.yul\":9104:9470   */\n      swap2\n      swap1\n      pop\n      jump\t// out\n        /* \"#utility.yul\":9476:9842   */\n    tag_332:\n        /* \"#utility.yul\":9618:9621   */\n      0x00\n        /* \"#utility.yul\":9639:9706   */\n      tag_334\n        /* \"#utility.yul\":9703:9705   */\n      0x15\n        /* \"#utility.yul\":9698:9701   */\n      dup4\n        /* \"#utility.yul\":9639:9706   */\n      tag_294\n      jump\t// in\n    tag_334:\n        /* \"#utility.yul\":9632:9706   */\n      swap2\n      pop\n        /* \"#utility.yul\":9715:9808   */\n      tag_335\n        /* \"#utility.yul\":9804:9807   */\n      dup3\n        /* \"#utility.yul\":9715:9808   */\n      tag_336\n      jump\t// in\n    tag_335:\n        /* \"#utility.yul\":9833:9835   */\n      0x20\n        /* \"#utility.yul\":9828:9831   */\n      dup3\n        /* \"#utility.yul\":9824:9836   */\n      add\n        /* \"#utility.yul\":9817:9836   */\n      swap1\n      pop\n        /* \"#utility.yul\":9476:9842   */\n      swap2\n      swap1\n      pop\n      jump\t// out\n        /* \"#utility.yul\":9848:10214   */\n    tag_337:\n        /* \"#utility.yul\":9990:9993   */\n      0x00\n        /* \"#utility.yul\":10011:10078   */\n      tag_339\n        /* \"#utility.yul\":10075:10077   */\n      0x39\n        /* \"#utility.yul\":10070:10073   */\n      dup4\n        /* \"#utility.yul\":10011:10078   */\n      tag_294\n      jump\t// in\n    tag_339:\n        /* \"#utility.yul\":10004:10078   */\n      swap2\n      pop\n        /* \"#utility.yul\":10087:10180   */\n      tag_340\n        /* \"#utility.yul\":10176:10179   */\n      dup3\n        /* \"#utility.yul\":10087:10180   */\n      tag_341\n      jump\t// in\n    tag_340:\n        /* \"#utility.yul\":10205:10207   */\n      0x40\n        /* \"#utility.yul\":10200:10203   */\n      dup3\n        /* \"#utility.yul\":10196:10208   */\n      add\n        /* \"#utility.yul\":10189:10208   */\n      swap1\n      pop\n        /* \"#utility.yul\":9848:10214   */\n      swap2\n      swap1\n      pop\n      jump\t// out\n        /* \"#utility.yul\":10220:10586   */\n    tag_342:\n        /* \"#utility.yul\":10362:10365   */\n      0x00\n        /* \"#utility.yul\":10383:10450   */\n      tag_344\n        /* \"#utility.yul\":10447:10449   */\n      0x20\n        /* \"#utility.yul\":10442:10445   */\n      dup4\n        /* \"#utility.yul\":10383:10450   */\n      tag_294\n      jump\t// in\n    tag_344:\n        /* \"#utility.yul\":10376:10450   */\n      swap2\n      pop\n        /* \"#utility.yul\":10459:10552   */\n      tag_345\n        /* \"#utility.yul\":10548:10551   */\n      dup3\n        /* \"#utility.yul\":10459:10552   */\n      tag_346\n      jump\t// in\n    tag_345:\n        /* \"#utility.yul\":10577:10579   */\n      0x20\n        /* \"#utility.yul\":10572:10575   */\n      dup3\n        /* \"#utility.yul\":10568:10580   */\n      add\n        /* \"#utility.yul\":10561:10580   */\n      swap1\n      pop\n        /* \"#utility.yul\":10220:10586   */\n      swap2\n      swap1\n      pop\n      jump\t// out\n        /* \"#utility.yul\":10592:10710   */\n    tag_347:\n        /* \"#utility.yul\":10679:10703   */\n      tag_349\n        /* \"#utility.yul\":10697:10702   */\n      dup2\n        /* \"#utility.yul\":10679:10703   */\n      tag_350\n      jump\t// in\n    tag_349:\n        /* \"#utility.yul\":10674:10677   */\n      dup3\n        /* \"#utility.yul\":10667:10704   */\n      mstore\n        /* \"#utility.yul\":10592:10710   */\n      pop\n      pop\n      jump\t// out\n        /* \"#utility.yul\":10716:10828   */\n    tag_351:\n        /* \"#utility.yul\":10799:10821   */\n      tag_353\n        /* \"#utility.yul\":10815:10820   */\n      dup2\n        /* \"#utility.yul\":10799:10821   */\n      tag_354\n      jump\t// in\n    tag_353:\n        /* \"#utility.yul\":10794:10797   */\n      dup3\n        /* \"#utility.yul\":10787:10822   */\n      mstore\n        /* \"#utility.yul\":10716:10828   */\n      pop\n      pop\n      jump\t// out\n        /* \"#utility.yul\":10834:11044   */\n    tag_32:\n        /* \"#utility.yul\":10921:10925   */\n      0x00\n        /* \"#utility.yul\":10959:10961   */\n      0x20\n        /* \"#utility.yul\":10948:10957   */\n      dup3\n        /* \"#utility.yul\":10944:10962   */\n      add\n        /* \"#utility.yul\":10936:10962   */\n      swap1\n      pop\n        /* \"#utility.yul\":10972:11037   */\n      tag_356\n        /* \"#utility.yul\":11034:11035   */\n      0x00\n        /* \"#utility.yul\":11023:11032   */\n      dup4\n        /* \"#utility.yul\":11019:11036   */\n      add\n        /* \"#utility.yul\":11010:11016   */\n      dup5\n        /* \"#utility.yul\":10972:11037   */\n      tag_283\n      jump\t// in\n    tag_356:\n        /* \"#utility.yul\":10834:11044   */\n      swap3\n      swap2\n      pop\n      pop\n      jump\t// out\n        /* \"#utility.yul\":11050:11304   */\n    tag_48:\n        /* \"#utility.yul\":11159:11163   */\n      0x00\n        /* \"#utility.yul\":11197:11199   */\n      0x20\n        /* \"#utility.yul\":11186:11195   */\n      dup3\n        /* \"#utility.yul\":11182:11200   */\n      add\n        /* \"#utility.yul\":11174:11200   */\n      swap1\n      pop\n        /* \"#utility.yul\":11210:11297   */\n      tag_358\n        /* \"#utility.yul\":11294:11295   */\n      0x00\n        /* \"#utility.yul\":11283:11292   */\n      dup4\n        /* \"#utility.yul\":11279:11296   */\n      add\n        /* \"#utility.yul\":11270:11276   */\n      dup5\n        /* \"#utility.yul\":11210:11297   */\n      tag_287\n      jump\t// in\n    tag_358:\n        /* \"#utility.yul\":11050:11304   */\n      swap3\n      swap2\n      pop\n      pop\n      jump\t// out\n        /* \"#utility.yul\":11310:11729   */\n    tag_132:\n        /* \"#utility.yul\":11476:11480   */\n      0x00\n        /* \"#utility.yul\":11514:11516   */\n      0x20\n        /* \"#utility.yul\":11503:11512   */\n      dup3\n        /* \"#utility.yul\":11499:11517   */\n      add\n        /* \"#utility.yul\":11491:11517   */\n      swap1\n      pop\n        /* \"#utility.yul\":11563:11572   */\n      dup2\n        /* \"#utility.yul\":11557:11561   */\n      dup2\n        /* \"#utility.yul\":11553:11573   */\n      sub\n        /* \"#utility.yul\":11549:11550   */\n      0x00\n        /* \"#utility.yul\":11538:11547   */\n      dup4\n        /* \"#utility.yul\":11534:11551   */\n      add\n        /* \"#utility.yul\":11527:11574   */\n      mstore\n        /* \"#utility.yul\":11591:11722   */\n      tag_360\n        /* \"#utility.yul\":11717:11721   */\n      dup2\n        /* \"#utility.yul\":11591:11722   */\n      tag_291\n      jump\t// in\n    tag_360:\n        /* \"#utility.yul\":11583:11722   */\n      swap1\n      pop\n        /* \"#utility.yul\":11310:11729   */\n      swap2\n      swap1\n      pop\n      jump\t// out\n        /* \"#utility.yul\":11735:12154   */\n    tag_128:\n        /* \"#utility.yul\":11901:11905   */\n      0x00\n        /* \"#utility.yul\":11939:11941   */\n      0x20\n        /* \"#utility.yul\":11928:11937   */\n      dup3\n        /* \"#utility.yul\":11924:11942   */\n      add\n        /* \"#utility.yul\":11916:11942   */\n      swap1\n      pop\n        /* \"#utility.yul\":11988:11997   */\n      dup2\n        /* \"#utility.yul\":11982:11986   */\n      dup2\n        /* \"#utility.yul\":11978:11998   */\n      sub\n        /* \"#utility.yul\":11974:11975   */\n      0x00\n        /* \"#utility.yul\":11963:11972   */\n      dup4\n        /* \"#utility.yul\":11959:11976   */\n      add\n        /* \"#utility.yul\":11952:11999   */\n      mstore\n        /* \"#utility.yul\":12016:12147   */\n      tag_362\n        /* \"#utility.yul\":12142:12146   */\n      dup2\n        /* \"#utility.yul\":12016:12147   */\n      tag_297\n      jump\t// in\n    tag_362:\n        /* \"#utility.yul\":12008:12147   */\n      swap1\n      pop\n        /* \"#utility.yul\":11735:12154   */\n      swap2\n      swap1\n      pop\n      jump\t// out\n        /* \"#utility.yul\":12160:12579   */\n    tag_74:\n        /* \"#utility.yul\":12326:12330   */\n      0x00\n        /* \"#utility.yul\":12364:12366   */\n      0x20\n        /* \"#utility.yul\":12353:12362   */\n      dup3\n        /* \"#utility.yul\":12349:12367   */\n      add\n        /* \"#utility.yul\":12341:12367   */\n      swap1\n      pop\n        /* \"#utility.yul\":12413:12422   */\n      dup2\n        /* \"#utility.yul\":12407:12411   */\n      dup2\n        /* \"#utility.yul\":12403:12423   */\n      sub\n        /* \"#utility.yul\":12399:12400   */\n      0x00\n        /* \"#utility.yul\":12388:12397   */\n      dup4\n        /* \"#utility.yul\":12384:12401   */\n      add\n        /* \"#utility.yul\":12377:12424   */\n      mstore\n        /* \"#utility.yul\":12441:12572   */\n      tag_364\n        /* \"#utility.yul\":12567:12571   */\n      dup2\n        /* \"#utility.yul\":12441:12572   */\n      tag_302\n      jump\t// in\n    tag_364:\n        /* \"#utility.yul\":12433:12572   */\n      swap1\n      pop\n        /* \"#utility.yul\":12160:12579   */\n      swap2\n      swap1\n      pop\n      jump\t// out\n        /* \"#utility.yul\":12585:13004   */\n    tag_65:\n        /* \"#utility.yul\":12751:12755   */\n      0x00\n        /* \"#utility.yul\":12789:12791   */\n      0x20\n        /* \"#utility.yul\":12778:12787   */\n      dup3\n        /* \"#utility.yul\":12774:12792   */\n      add\n        /* \"#utility.yul\":12766:12792   */\n      swap1\n      pop\n        /* \"#utility.yul\":12838:12847   */\n      dup2\n        /* \"#utility.yul\":12832:12836   */\n      dup2\n        /* \"#utility.yul\":12828:12848   */\n      sub\n        /* \"#utility.yul\":12824:12825   */\n      0x00\n        /* \"#utility.yul\":12813:12822   */\n      dup4\n        /* \"#utility.yul\":12809:12826   */\n      add\n        /* \"#utility.yul\":12802:12849   */\n      mstore\n        /* \"#utility.yul\":12866:12997   */\n      tag_366\n        /* \"#utility.yul\":12992:12996   */\n      dup2\n        /* \"#utility.yul\":12866:12997   */\n      tag_307\n      jump\t// in\n    tag_366:\n        /* \"#utility.yul\":12858:12997   */\n      swap1\n      pop\n        /* \"#utility.yul\":12585:13004   */\n      swap2\n      swap1\n      pop\n      jump\t// out\n        /* \"#utility.yul\":13010:13429   */\n    tag_119:\n        /* \"#utility.yul\":13176:13180   */\n      0x00\n        /* \"#utility.yul\":13214:13216   */\n      0x20\n        /* \"#utility.yul\":13203:13212   */\n      dup3\n        /* \"#utility.yul\":13199:13217   */\n      add\n        /* \"#utility.yul\":13191:13217   */\n      swap1\n      pop\n        /* \"#utility.yul\":13263:13272   */\n      dup2\n        /* \"#utility.yul\":13257:13261   */\n      dup2\n        /* \"#utility.yul\":13253:13273   */\n      sub\n        /* \"#utility.yul\":13249:13250   */\n      0x00\n        /* \"#utility.yul\":13238:13247   */\n      dup4\n        /* \"#utility.yul\":13234:13251   */\n      add\n        /* \"#utility.yul\":13227:13274   */\n      mstore\n        /* \"#utility.yul\":13291:13422   */\n      tag_368\n        /* \"#utility.yul\":13417:13421   */\n      dup2\n        /* \"#utility.yul\":13291:13422   */\n      tag_312\n      jump\t// in\n    tag_368:\n        /* \"#utility.yul\":13283:13422   */\n      swap1\n      pop\n        /* \"#utility.yul\":13010:13429   */\n      swap2\n      swap1\n      pop\n      jump\t// out\n        /* \"#utility.yul\":13435:13854   */\n    tag_177:\n        /* \"#utility.yul\":13601:13605   */\n      0x00\n        /* \"#utility.yul\":13639:13641   */\n      0x20\n        /* \"#utility.yul\":13628:13637   */\n      dup3\n        /* \"#utility.yul\":13624:13642   */\n      add\n        /* \"#utility.yul\":13616:13642   */\n      swap1\n      pop\n        /* \"#utility.yul\":13688:13697   */\n      dup2\n        /* \"#utility.yul\":13682:13686   */\n      dup2\n        /* \"#utility.yul\":13678:13698   */\n      sub\n        /* \"#utility.yul\":13674:13675   */\n      0x00\n        /* \"#utility.yul\":13663:13672   */\n      dup4\n        /* \"#utility.yul\":13659:13676   */\n      add\n        /* \"#utility.yul\":13652:13699   */\n      mstore\n        /* \"#utility.yul\":13716:13847   */\n      tag_370\n        /* \"#utility.yul\":13842:13846   */\n      dup2\n        /* \"#utility.yul\":13716:13847   */\n      tag_317\n      jump\t// in\n    tag_370:\n        /* \"#utility.yul\":13708:13847   */\n      swap1\n      pop\n        /* \"#utility.yul\":13435:13854   */\n      swap2\n      swap1\n      pop\n      jump\t// out\n        /* \"#utility.yul\":13860:14279   */\n    tag_88:\n        /* \"#utility.yul\":14026:14030   */\n      0x00\n        /* \"#utility.yul\":14064:14066   */\n      0x20\n        /* \"#utility.yul\":14053:14062   */\n      dup3\n        /* \"#utility.yul\":14049:14067   */\n      add\n        /* \"#utility.yul\":14041:14067   */\n      swap1\n      pop\n        /* \"#utility.yul\":14113:14122   */\n      dup2\n        /* \"#utility.yul\":14107:14111   */\n      dup2\n        /* \"#utility.yul\":14103:14123   */\n      sub\n        /* \"#utility.yul\":14099:14100   */\n      0x00\n        /* \"#utility.yul\":14088:14097   */\n      dup4\n        /* \"#utility.yul\":14084:14101   */\n      add\n        /* \"#utility.yul\":14077:14124   */\n      mstore\n        /* \"#utility.yul\":14141:14272   */\n      tag_372\n        /* \"#utility.yul\":14267:14271   */\n      dup2\n        /* \"#utility.yul\":14141:14272   */\n      tag_322\n      jump\t// in\n    tag_372:\n        /* \"#utility.yul\":14133:14272   */\n      swap1\n      pop\n        /* \"#utility.yul\":13860:14279   */\n      swap2\n      swap1\n      pop\n      jump\t// out\n        /* \"#utility.yul\":14285:14704   */\n    tag_81:\n        /* \"#utility.yul\":14451:14455   */\n      0x00\n        /* \"#utility.yul\":14489:14491   */\n      0x20\n        /* \"#utility.yul\":14478:14487   */\n      dup3\n        /* \"#utility.yul\":14474:14492   */\n      add\n        /* \"#utility.yul\":14466:14492   */\n      swap1\n      pop\n        /* \"#utility.yul\":14538:14547   */\n      dup2\n        /* \"#utility.yul\":14532:14536   */\n      dup2\n        /* \"#utility.yul\":14528:14548   */\n      sub\n        /* \"#utility.yul\":14524:14525   */\n      0x00\n        /* \"#utility.yul\":14513:14522   */\n      dup4\n        /* \"#utility.yul\":14509:14526   */\n      add\n        /* \"#utility.yul\":14502:14549   */\n      mstore\n        /* \"#utility.yul\":14566:14697   */\n      tag_374\n        /* \"#utility.yul\":14692:14696   */\n      dup2\n        /* \"#utility.yul\":14566:14697   */\n      tag_327\n      jump\t// in\n    tag_374:\n        /* \"#utility.yul\":14558:14697   */\n      swap1\n      pop\n        /* \"#utility.yul\":14285:14704   */\n      swap2\n      swap1\n      pop\n      jump\t// out\n        /* \"#utility.yul\":14710:15129   */\n    tag_158:\n        /* \"#utility.yul\":14876:14880   */\n      0x00\n        /* \"#utility.yul\":14914:14916   */\n      0x20\n        /* \"#utility.yul\":14903:14912   */\n      dup3\n        /* \"#utility.yul\":14899:14917   */\n      add\n        /* \"#utility.yul\":14891:14917   */\n      swap1\n      pop\n        /* \"#utility.yul\":14963:14972   */\n      dup2\n        /* \"#utility.yul\":14957:14961   */\n      dup2\n        /* \"#utility.yul\":14953:14973   */\n      sub\n        /* \"#utility.yul\":14949:14950   */\n      0x00\n        /* \"#utility.yul\":14938:14947   */\n      dup4\n        /* \"#utility.yul\":14934:14951   */\n      add\n        /* \"#utility.yul\":14927:14974   */\n      mstore\n        /* \"#utility.yul\":14991:15122   */\n      tag_376\n        /* \"#utility.yul\":15117:15121   */\n      dup2\n        /* \"#utility.yul\":14991:15122   */\n      tag_332\n      jump\t// in\n    tag_376:\n        /* \"#utility.yul\":14983:15122   */\n      swap1\n      pop\n        /* \"#utility.yul\":14710:15129   */\n      swap2\n      swap1\n      pop\n      jump\t// out\n        /* \"#utility.yul\":15135:15554   */\n    tag_122:\n        /* \"#utility.yul\":15301:15305   */\n      0x00\n        /* \"#utility.yul\":15339:15341   */\n      0x20\n        /* \"#utility.yul\":15328:15337   */\n      dup3\n        /* \"#utility.yul\":15324:15342   */\n      add\n        /* \"#utility.yul\":15316:15342   */\n      swap1\n      pop\n        /* \"#utility.yul\":15388:15397   */\n      dup2\n        /* \"#utility.yul\":15382:15386   */\n      dup2\n        /* \"#utility.yul\":15378:15398   */\n      sub\n        /* \"#utility.yul\":15374:15375   */\n      0x00\n        /* \"#utility.yul\":15363:15372   */\n      dup4\n        /* \"#utility.yul\":15359:15376   */\n      add\n        /* \"#utility.yul\":15352:15399   */\n      mstore\n        /* \"#utility.yul\":15416:15547   */\n      tag_378\n        /* \"#utility.yul\":15542:15546   */\n      dup2\n        /* \"#utility.yul\":15416:15547   */\n      tag_337\n      jump\t// in\n    tag_378:\n        /* \"#utility.yul\":15408:15547   */\n      swap1\n      pop\n        /* \"#utility.yul\":15135:15554   */\n      swap2\n      swap1\n      pop\n      jump\t// out\n        /* \"#utility.yul\":15560:15979   */\n    tag_125:\n        /* \"#utility.yul\":15726:15730   */\n      0x00\n        /* \"#utility.yul\":15764:15766   */\n      0x20\n        /* \"#utility.yul\":15753:15762   */\n      dup3\n        /* \"#utility.yul\":15749:15767   */\n      add\n        /* \"#utility.yul\":15741:15767   */\n      swap1\n      pop\n        /* \"#utility.yul\":15813:15822   */\n      dup2\n        /* \"#utility.yul\":15807:15811   */\n      dup2\n        /* \"#utility.yul\":15803:15823   */\n      sub\n        /* \"#utility.yul\":15799:15800   */\n      0x00\n        /* \"#utility.yul\":15788:15797   */\n      dup4\n        /* \"#utility.yul\":15784:15801   */\n      add\n        /* \"#utility.yul\":15777:15824   */\n      mstore\n        /* \"#utility.yul\":15841:15972   */\n      tag_380\n        /* \"#utility.yul\":15967:15971   */\n      dup2\n        /* \"#utility.yul\":15841:15972   */\n      tag_342\n      jump\t// in\n    tag_380:\n        /* \"#utility.yul\":15833:15972   */\n      swap1\n      pop\n        /* \"#utility.yul\":15560:15979   */\n      swap2\n      swap1\n      pop\n      jump\t// out\n        /* \"#utility.yul\":15985:16207   */\n    tag_23:\n        /* \"#utility.yul\":16078:16082   */\n      0x00\n        /* \"#utility.yul\":16116:16118   */\n      0x20\n        /* \"#utility.yul\":16105:16114   */\n      dup3\n        /* \"#utility.yul\":16101:16119   */\n      add\n        /* \"#utility.yul\":16093:16119   */\n      swap1\n      pop\n        /* \"#utility.yul\":16129:16200   */\n      tag_382\n        /* \"#utility.yul\":16197:16198   */\n      0x00\n        /* \"#utility.yul\":16186:16195   */\n      dup4\n        /* \"#utility.yul\":16182:16199   */\n      add\n        /* \"#utility.yul\":16173:16179   */\n      dup5\n        /* \"#utility.yul\":16129:16200   */\n      tag_347\n      jump\t// in\n    tag_382:\n        /* \"#utility.yul\":15985:16207   */\n      swap3\n      swap2\n      pop\n      pop\n      jump\t// out\n        /* \"#utility.yul\":16213:17020   */\n    tag_183:\n        /* \"#utility.yul\":16462:16466   */\n      0x00\n        /* \"#utility.yul\":16500:16503   */\n      0xc0\n        /* \"#utility.yul\":16489:16498   */\n      dup3\n        /* \"#utility.yul\":16485:16504   */\n      add\n        /* \"#utility.yul\":16477:16504   */\n      swap1\n      pop\n        /* \"#utility.yul\":16514:16585   */\n      tag_384\n        /* \"#utility.yul\":16582:16583   */\n      0x00\n        /* \"#utility.yul\":16571:16580   */\n      dup4\n        /* \"#utility.yul\":16567:16584   */\n      add\n        /* \"#utility.yul\":16558:16564   */\n      dup10\n        /* \"#utility.yul\":16514:16585   */\n      tag_347\n      jump\t// in\n    tag_384:\n        /* \"#utility.yul\":16595:16667   */\n      tag_385\n        /* \"#utility.yul\":16663:16665   */\n      0x20\n        /* \"#utility.yul\":16652:16661   */\n      dup4\n        /* \"#utility.yul\":16648:16666   */\n      add\n        /* \"#utility.yul\":16639:16645   */\n      dup9\n        /* \"#utility.yul\":16595:16667   */\n      tag_347\n      jump\t// in\n    tag_385:\n        /* \"#utility.yul\":16677:16749   */\n      tag_386\n        /* \"#utility.yul\":16745:16747   */\n      0x40\n        /* \"#utility.yul\":16734:16743   */\n      dup4\n        /* \"#utility.yul\":16730:16748   */\n      add\n        /* \"#utility.yul\":16721:16727   */\n      dup8\n        /* \"#utility.yul\":16677:16749   */\n      tag_347\n      jump\t// in\n    tag_386:\n        /* \"#utility.yul\":16759:16839   */\n      tag_387\n        /* \"#utility.yul\":16835:16837   */\n      0x60\n        /* \"#utility.yul\":16824:16833   */\n      dup4\n        /* \"#utility.yul\":16820:16838   */\n      add\n        /* \"#utility.yul\":16811:16817   */\n      dup7\n        /* \"#utility.yul\":16759:16839   */\n      tag_275\n      jump\t// in\n    tag_387:\n        /* \"#utility.yul\":16849:16930   */\n      tag_388\n        /* \"#utility.yul\":16925:16928   */\n      0x80\n        /* \"#utility.yul\":16914:16923   */\n      dup4\n        /* \"#utility.yul\":16910:16929   */\n      add\n        /* \"#utility.yul\":16901:16907   */\n      dup6\n        /* \"#utility.yul\":16849:16930   */\n      tag_275\n      jump\t// in\n    tag_388:\n        /* \"#utility.yul\":16940:17013   */\n      tag_389\n        /* \"#utility.yul\":17008:17011   */\n      0xa0\n        /* \"#utility.yul\":16997:17006   */\n      dup4\n        /* \"#utility.yul\":16993:17012   */\n      add\n        /* \"#utility.yul\":16984:16990   */\n      dup5\n        /* \"#utility.yul\":16940:17013   */\n      tag_347\n      jump\t// in\n    tag_389:\n        /* \"#utility.yul\":16213:17020   */\n      swap8\n      swap7\n      pop\n      pop\n      pop\n      pop\n      pop\n      pop\n      pop\n      jump\t// out\n        /* \"#utility.yul\":17026:17682   */\n    tag_140:\n        /* \"#utility.yul\":17227:17231   */\n      0x00\n        /* \"#utility.yul\":17265:17268   */\n      0xa0\n        /* \"#utility.yul\":17254:17263   */\n      dup3\n        /* \"#utility.yul\":17250:17269   */\n      add\n        /* \"#utility.yul\":17242:17269   */\n      swap1\n      pop\n        /* \"#utility.yul\":17279:17350   */\n      tag_391\n        /* \"#utility.yul\":17347:17348   */\n      0x00\n        /* \"#utility.yul\":17336:17345   */\n      dup4\n        /* \"#utility.yul\":17332:17349   */\n      add\n        /* \"#utility.yul\":17323:17329   */\n      dup9\n        /* \"#utility.yul\":17279:17350   */\n      tag_347\n      jump\t// in\n    tag_391:\n        /* \"#utility.yul\":17360:17432   */\n      tag_392\n        /* \"#utility.yul\":17428:17430   */\n      0x20\n        /* \"#utility.yul\":17417:17426   */\n      dup4\n        /* \"#utility.yul\":17413:17431   */\n      add\n        /* \"#utility.yul\":17404:17410   */\n      dup8\n        /* \"#utility.yul\":17360:17432   */\n      tag_347\n      jump\t// in\n    tag_392:\n        /* \"#utility.yul\":17442:17514   */\n      tag_393\n        /* \"#utility.yul\":17510:17512   */\n      0x40\n        /* \"#utility.yul\":17499:17508   */\n      dup4\n        /* \"#utility.yul\":17495:17513   */\n      add\n        /* \"#utility.yul\":17486:17492   */\n      dup7\n        /* \"#utility.yul\":17442:17514   */\n      tag_347\n      jump\t// in\n    tag_393:\n        /* \"#utility.yul\":17524:17596   */\n      tag_394\n        /* \"#utility.yul\":17592:17594   */\n      0x60\n        /* \"#utility.yul\":17581:17590   */\n      dup4\n        /* \"#utility.yul\":17577:17595   */\n      add\n        /* \"#utility.yul\":17568:17574   */\n      dup6\n        /* \"#utility.yul\":17524:17596   */\n      tag_279\n      jump\t// in\n    tag_394:\n        /* \"#utility.yul\":17606:17675   */\n      tag_395\n        /* \"#utility.yul\":17670:17673   */\n      0x80\n        /* \"#utility.yul\":17659:17668   */\n      dup4\n        /* \"#utility.yul\":17655:17674   */\n      add\n        /* \"#utility.yul\":17646:17652   */\n      dup5\n        /* \"#utility.yul\":17606:17675   */\n      tag_351\n      jump\t// in\n    tag_395:\n        /* \"#utility.yul\":17026:17682   */\n      swap7\n      swap6\n      pop\n      pop\n      pop\n      pop\n      pop\n      pop\n      jump\t// out\n        /* \"#utility.yul\":17688:18233   */\n    tag_146:\n        /* \"#utility.yul\":17861:17865   */\n      0x00\n        /* \"#utility.yul\":17899:17902   */\n      0x80\n        /* \"#utility.yul\":17888:17897   */\n      dup3\n        /* \"#utility.yul\":17884:17903   */\n      add\n        /* \"#utility.yul\":17876:17903   */\n      swap1\n      pop\n        /* \"#utility.yul\":17913:17984   */\n      tag_397\n        /* \"#utility.yul\":17981:17982   */\n      0x00\n        /* \"#utility.yul\":17970:17979   */\n      dup4\n        /* \"#utility.yul\":17966:17983   */\n      add\n        /* \"#utility.yul\":17957:17963   */\n      dup8\n        /* \"#utility.yul\":17913:17984   */\n      tag_347\n      jump\t// in\n    tag_397:\n        /* \"#utility.yul\":17994:18066   */\n      tag_398\n        /* \"#utility.yul\":18062:18064   */\n      0x20\n        /* \"#utility.yul\":18051:18060   */\n      dup4\n        /* \"#utility.yul\":18047:18065   */\n      add\n        /* \"#utility.yul\":18038:18044   */\n      dup7\n        /* \"#utility.yul\":17994:18066   */\n      tag_347\n      jump\t// in\n    tag_398:\n        /* \"#utility.yul\":18076:18148   */\n      tag_399\n        /* \"#utility.yul\":18144:18146   */\n      0x40\n        /* \"#utility.yul\":18133:18142   */\n      dup4\n        /* \"#utility.yul\":18129:18147   */\n      add\n        /* \"#utility.yul\":18120:18126   */\n      dup6\n        /* \"#utility.yul\":18076:18148   */\n      tag_347\n      jump\t// in\n    tag_399:\n        /* \"#utility.yul\":18158:18226   */\n      tag_400\n        /* \"#utility.yul\":18222:18224   */\n      0x60\n        /* \"#utility.yul\":18211:18220   */\n      dup4\n        /* \"#utility.yul\":18207:18225   */\n      add\n        /* \"#utility.yul\":18198:18204   */\n      dup5\n        /* \"#utility.yul\":18158:18226   */\n      tag_351\n      jump\t// in\n    tag_400:\n        /* \"#utility.yul\":17688:18233   */\n      swap6\n      swap5\n      pop\n      pop\n      pop\n      pop\n      pop\n      jump\t// out\n        /* \"#utility.yul\":18239:18368   */\n    tag_204:\n        /* \"#utility.yul\":18273:18279   */\n      0x00\n        /* \"#utility.yul\":18300:18320   */\n      tag_402\n      tag_403\n      jump\t// in\n    tag_402:\n        /* \"#utility.yul\":18290:18320   */\n      swap1\n      pop\n        /* \"#utility.yul\":18329:18362   */\n      tag_404\n        /* \"#utility.yul\":18357:18361   */\n      dup3\n        /* \"#utility.yul\":18349:18355   */\n      dup3\n        /* \"#utility.yul\":18329:18362   */\n      tag_405\n      jump\t// in\n    tag_404:\n        /* \"#utility.yul\":18239:18368   */\n      swap2\n      swap1\n      pop\n      jump\t// out\n        /* \"#utility.yul\":18374:18449   */\n    tag_403:\n        /* \"#utility.yul\":18407:18413   */\n      0x00\n        /* \"#utility.yul\":18440:18442   */\n      0x40\n        /* \"#utility.yul\":18434:18443   */\n      mload\n        /* \"#utility.yul\":18424:18443   */\n      swap1\n      pop\n        /* \"#utility.yul\":18374:18449   */\n      swap1\n      jump\t// out\n        /* \"#utility.yul\":18455:18763   */\n    tag_203:\n        /* \"#utility.yul\":18517:18521   */\n      0x00\n        /* \"#utility.yul\":18607:18625   */\n      0xffffffffffffffff\n        /* \"#utility.yul\":18599:18605   */\n      dup3\n        /* \"#utility.yul\":18596:18626   */\n      gt\n        /* \"#utility.yul\":18593:18649   */\n      iszero\n      tag_408\n      jumpi\n        /* \"#utility.yul\":18629:18647   */\n      tag_409\n      tag_410\n      jump\t// in\n    tag_409:\n        /* \"#utility.yul\":18593:18649   */\n    tag_408:\n        /* \"#utility.yul\":18667:18696   */\n      tag_411\n        /* \"#utility.yul\":18689:18695   */\n      dup3\n        /* \"#utility.yul\":18667:18696   */\n      tag_412\n      jump\t// in\n    tag_411:\n        /* \"#utility.yul\":18659:18696   */\n      swap1\n      pop\n        /* \"#utility.yul\":18751:18755   */\n      0x20\n        /* \"#utility.yul\":18745:18749   */\n      dup2\n        /* \"#utility.yul\":18741:18756   */\n      add\n        /* \"#utility.yul\":18733:18756   */\n      swap1\n      pop\n        /* \"#utility.yul\":18455:18763   */\n      swap2\n      swap1\n      pop\n      jump\t// out\n        /* \"#utility.yul\":18769:18938   */\n    tag_294:\n        /* \"#utility.yul\":18853:18864   */\n      0x00\n        /* \"#utility.yul\":18887:18893   */\n      dup3\n        /* \"#utility.yul\":18882:18885   */\n      dup3\n        /* \"#utility.yul\":18875:18894   */\n      mstore\n        /* \"#utility.yul\":18927:18931   */\n      0x20\n        /* \"#utility.yul\":18922:18925   */\n      dup3\n        /* \"#utility.yul\":18918:18932   */\n      add\n        /* \"#utility.yul\":18903:18932   */\n      swap1\n      pop\n        /* \"#utility.yul\":18769:18938   */\n      swap3\n      swap2\n      pop\n      pop\n      jump\t// out\n        /* \"#utility.yul\":18944:19040   */\n    tag_282:\n        /* \"#utility.yul\":18981:18988   */\n      0x00\n        /* \"#utility.yul\":19010:19034   */\n      tag_415\n        /* \"#utility.yul\":19028:19033   */\n      dup3\n        /* \"#utility.yul\":19010:19034   */\n      tag_416\n      jump\t// in\n    tag_415:\n        /* \"#utility.yul\":18999:19034   */\n      swap1\n      pop\n        /* \"#utility.yul\":18944:19040   */\n      swap2\n      swap1\n      pop\n      jump\t// out\n        /* \"#utility.yul\":19046:19150   */\n    tag_417:\n        /* \"#utility.yul\":19091:19098   */\n      0x00\n        /* \"#utility.yul\":19120:19144   */\n      tag_419\n        /* \"#utility.yul\":19138:19143   */\n      dup3\n        /* \"#utility.yul\":19120:19144   */\n      tag_416\n      jump\t// in\n    tag_419:\n        /* \"#utility.yul\":19109:19144   */\n      swap1\n      pop\n        /* \"#utility.yul\":19046:19150   */\n      swap2\n      swap1\n      pop\n      jump\t// out\n        /* \"#utility.yul\":19156:19246   */\n    tag_286:\n        /* \"#utility.yul\":19190:19197   */\n      0x00\n        /* \"#utility.yul\":19233:19238   */\n      dup2\n        /* \"#utility.yul\":19226:19239   */\n      iszero\n        /* \"#utility.yul\":19219:19240   */\n      iszero\n        /* \"#utility.yul\":19208:19240   */\n      swap1\n      pop\n        /* \"#utility.yul\":19156:19246   */\n      swap2\n      swap1\n      pop\n      jump\t// out\n        /* \"#utility.yul\":19252:19399   */\n    tag_421:\n        /* \"#utility.yul\":19307:19314   */\n      0x00\n        /* \"#utility.yul\":19336:19341   */\n      dup2\n        /* \"#utility.yul\":19325:19341   */\n      swap1\n      pop\n        /* \"#utility.yul\":19342:19393   */\n      tag_423\n        /* \"#utility.yul\":19387:19392   */\n      dup3\n        /* \"#utility.yul\":19342:19393   */\n      tag_424\n      jump\t// in\n    tag_423:\n        /* \"#utility.yul\":19252:19399   */\n      swap2\n      swap1\n      pop\n      jump\t// out\n        /* \"#utility.yul\":19405:19531   */\n    tag_416:\n        /* \"#utility.yul\":19442:19449   */\n      0x00\n        /* \"#utility.yul\":19482:19524   */\n      0xffffffffffffffffffffffffffffffffffffffff\n        /* \"#utility.yul\":19475:19480   */\n      dup3\n        /* \"#utility.yul\":19471:19525   */\n      and\n        /* \"#utility.yul\":19460:19525   */\n      swap1\n      pop\n        /* \"#utility.yul\":19405:19531   */\n      swap2\n      swap1\n      pop\n      jump\t// out\n        /* \"#utility.yul\":19537:19614   */\n    tag_350:\n        /* \"#utility.yul\":19574:19581   */\n      0x00\n        /* \"#utility.yul\":19603:19608   */\n      dup2\n        /* \"#utility.yul\":19592:19608   */\n      swap1\n      pop\n        /* \"#utility.yul\":19537:19614   */\n      swap2\n      swap1\n      pop\n      jump\t// out\n        /* \"#utility.yul\":19620:19706   */\n    tag_354:\n        /* \"#utility.yul\":19655:19662   */\n      0x00\n        /* \"#utility.yul\":19695:19699   */\n      0xff\n        /* \"#utility.yul\":19688:19693   */\n      dup3\n        /* \"#utility.yul\":19684:19700   */\n      and\n        /* \"#utility.yul\":19673:19700   */\n      swap1\n      pop\n        /* \"#utility.yul\":19620:19706   */\n      swap2\n      swap1\n      pop\n      jump\t// out\n        /* \"#utility.yul\":19712:19846   */\n    tag_278:\n        /* \"#utility.yul\":19770:19779   */\n      0x00\n        /* \"#utility.yul\":19803:19840   */\n      tag_429\n        /* \"#utility.yul\":19834:19839   */\n      dup3\n        /* \"#utility.yul\":19803:19840   */\n      tag_430\n      jump\t// in\n    tag_429:\n        /* \"#utility.yul\":19790:19840   */\n      swap1\n      pop\n        /* \"#utility.yul\":19712:19846   */\n      swap2\n      swap1\n      pop\n      jump\t// out\n        /* \"#utility.yul\":19852:19999   */\n    tag_290:\n        /* \"#utility.yul\":19918:19927   */\n      0x00\n        /* \"#utility.yul\":19951:19993   */\n      tag_432\n        /* \"#utility.yul\":19987:19992   */\n      dup3\n        /* \"#utility.yul\":19951:19993   */\n      tag_421\n      jump\t// in\n    tag_432:\n        /* \"#utility.yul\":19938:19993   */\n      swap1\n      pop\n        /* \"#utility.yul\":19852:19999   */\n      swap2\n      swap1\n      pop\n      jump\t// out\n        /* \"#utility.yul\":20005:20131   */\n    tag_430:\n        /* \"#utility.yul\":20055:20064   */\n      0x00\n        /* \"#utility.yul\":20088:20125   */\n      tag_434\n        /* \"#utility.yul\":20119:20124   */\n      dup3\n        /* \"#utility.yul\":20088:20125   */\n      tag_435\n      jump\t// in\n    tag_434:\n        /* \"#utility.yul\":20075:20125   */\n      swap1\n      pop\n        /* \"#utility.yul\":20005:20131   */\n      swap2\n      swap1\n      pop\n      jump\t// out\n        /* \"#utility.yul\":20137:20250   */\n    tag_435:\n        /* \"#utility.yul\":20187:20196   */\n      0x00\n        /* \"#utility.yul\":20220:20244   */\n      tag_437\n        /* \"#utility.yul\":20238:20243   */\n      dup3\n        /* \"#utility.yul\":20220:20244   */\n      tag_416\n      jump\t// in\n    tag_437:\n        /* \"#utility.yul\":20207:20244   */\n      swap1\n      pop\n        /* \"#utility.yul\":20137:20250   */\n      swap2\n      swap1\n      pop\n      jump\t// out\n        /* \"#utility.yul\":20256:20410   */\n    tag_209:\n        /* \"#utility.yul\":20340:20346   */\n      dup3\n        /* \"#utility.yul\":20335:20338   */\n      dup2\n        /* \"#utility.yul\":20330:20333   */\n      dup4\n        /* \"#utility.yul\":20317:20347   */\n      calldatacopy\n        /* \"#utility.yul\":20402:20403   */\n      0x00\n        /* \"#utility.yul\":20393:20399   */\n      dup4\n        /* \"#utility.yul\":20388:20391   */\n      dup4\n        /* \"#utility.yul\":20384:20400   */\n      add\n        /* \"#utility.yul\":20377:20404   */\n      mstore\n        /* \"#utility.yul\":20256:20410   */\n      pop\n      pop\n      pop\n      jump\t// out\n        /* \"#utility.yul\":20416:20736   */\n    tag_188:\n        /* \"#utility.yul\":20460:20466   */\n      0x00\n        /* \"#utility.yul\":20497:20498   */\n      0x02\n        /* \"#utility.yul\":20491:20495   */\n      dup3\n        /* \"#utility.yul\":20487:20499   */\n      div\n        /* \"#utility.yul\":20477:20499   */\n      swap1\n      pop\n        /* \"#utility.yul\":20544:20545   */\n      0x01\n        /* \"#utility.yul\":20538:20542   */\n      dup3\n        /* \"#utility.yul\":20534:20546   */\n      and\n        /* \"#utility.yul\":20565:20583   */\n      dup1\n        /* \"#utility.yul\":20555:20636   */\n      tag_440\n      jumpi\n        /* \"#utility.yul\":20621:20625   */\n      0x7f\n        /* \"#utility.yul\":20613:20619   */\n      dup3\n        /* \"#utility.yul\":20609:20626   */\n      and\n        /* \"#utility.yul\":20599:20626   */\n      swap2\n      pop\n        /* \"#utility.yul\":20555:20636   */\n    tag_440:\n        /* \"#utility.yul\":20683:20685   */\n      0x20\n        /* \"#utility.yul\":20675:20681   */\n      dup3\n        /* \"#utility.yul\":20672:20686   */\n      lt\n        /* \"#utility.yul\":20652:20670   */\n      dup2\n        /* \"#utility.yul\":20649:20687   */\n      eq\n        /* \"#utility.yul\":20646:20730   */\n      iszero\n      tag_441\n      jumpi\n        /* \"#utility.yul\":20702:20720   */\n      tag_442\n      tag_443\n      jump\t// in\n    tag_442:\n        /* \"#utility.yul\":20646:20730   */\n    tag_441:\n        /* \"#utility.yul\":20467:20736   */\n      pop\n        /* \"#utility.yul\":20416:20736   */\n      swap2\n      swap1\n      pop\n      jump\t// out\n        /* \"#utility.yul\":20742:21023   */\n    tag_405:\n        /* \"#utility.yul\":20825:20852   */\n      tag_445\n        /* \"#utility.yul\":20847:20851   */\n      dup3\n        /* \"#utility.yul\":20825:20852   */\n      tag_412\n      jump\t// in\n    tag_445:\n        /* \"#utility.yul\":20817:20823   */\n      dup2\n        /* \"#utility.yul\":20813:20853   */\n      add\n        /* \"#utility.yul\":20955:20961   */\n      dup2\n        /* \"#utility.yul\":20943:20953   */\n      dup2\n        /* \"#utility.yul\":20940:20962   */\n      lt\n        /* \"#utility.yul\":20919:20937   */\n      0xffffffffffffffff\n        /* \"#utility.yul\":20907:20917   */\n      dup3\n        /* \"#utility.yul\":20904:20938   */\n      gt\n        /* \"#utility.yul\":20901:20963   */\n      or\n        /* \"#utility.yul\":20898:20986   */\n      iszero\n      tag_446\n      jumpi\n        /* \"#utility.yul\":20966:20984   */\n      tag_447\n      tag_410\n      jump\t// in\n    tag_447:\n        /* \"#utility.yul\":20898:20986   */\n    tag_446:\n        /* \"#utility.yul\":21006:21016   */\n      dup1\n        /* \"#utility.yul\":21002:21004   */\n      0x40\n        /* \"#utility.yul\":20995:21017   */\n      mstore\n        /* \"#utility.yul\":20785:21023   */\n      pop\n        /* \"#utility.yul\":20742:21023   */\n      pop\n      pop\n      jump\t// out\n        /* \"#utility.yul\":21029:21262   */\n    tag_135:\n        /* \"#utility.yul\":21068:21071   */\n      0x00\n        /* \"#utility.yul\":21091:21115   */\n      tag_449\n        /* \"#utility.yul\":21109:21114   */\n      dup3\n        /* \"#utility.yul\":21091:21115   */\n      tag_350\n      jump\t// in\n    tag_449:\n        /* \"#utility.yul\":21082:21115   */\n      swap2\n      pop\n        /* \"#utility.yul\":21137:21203   */\n      0xffffffffffffffffffffffffffffffffffffffffffffffffffffffffffffffff\n        /* \"#utility.yul\":21130:21135   */\n      dup3\n        /* \"#utility.yul\":21127:21204   */\n      eq\n        /* \"#utility.yul\":21124:21227   */\n      iszero\n      tag_450\n      jumpi\n        /* \"#utility.yul\":21207:21225   */\n      tag_451\n      tag_452\n      jump\t// in\n    tag_451:\n        /* \"#utility.yul\":21124:21227   */\n    tag_450:\n        /* \"#utility.yul\":21254:21255   */\n      0x01\n        /* \"#utility.yul\":21247:21252   */\n      dup3\n        /* \"#utility.yul\":21243:21256   */\n      add\n        /* \"#utility.yul\":21236:21256   */\n      swap1\n      pop\n        /* \"#utility.yul\":21029:21262   */\n      swap2\n      swap1\n      pop\n      jump\t// out\n        /* \"#utility.yul\":21268:21448   */\n    tag_452:\n        /* \"#utility.yul\":21316:21393   */\n      0x4e487b7100000000000000000000000000000000000000000000000000000000\n        /* \"#utility.yul\":21313:21314   */\n      0x00\n        /* \"#utility.yul\":21306:21394   */\n      mstore\n        /* \"#utility.yul\":21413:21417   */\n      0x11\n        /* \"#utility.yul\":21410:21411   */\n      0x04\n        /* \"#utility.yul\":21403:21418   */\n      mstore\n        /* \"#utility.yul\":21437:21441   */\n      0x24\n        /* \"#utility.yul\":21434:21435   */\n      0x00\n        /* \"#utility.yul\":21427:21442   */\n      revert\n        /* \"#utility.yul\":21454:21634   */\n    tag_69:\n        /* \"#utility.yul\":21502:21579   */\n      0x4e487b7100000000000000000000000000000000000000000000000000000000\n        /* \"#utility.yul\":21499:21500   */\n      0x00\n        /* \"#utility.yul\":21492:21580   */\n      mstore\n        /* \"#utility.yul\":21599:21603   */\n      0x21\n        /* \"#utility.yul\":21596:21597   */\n      0x04\n        /* \"#utility.yul\":21589:21604   */\n      mstore\n        /* \"#utility.yul\":21623:21627   */\n      0x24\n        /* \"#utility.yul\":21620:21621   */\n      0x00\n        /* \"#utility.yul\":21613:21628   */\n      revert\n        /* \"#utility.yul\":21640:21820   */\n    tag_443:\n        /* \"#utility.yul\":21688:21765   */\n      0x4e487b7100000000000000000000000000000000000000000000000000000000\n        /* \"#utility.yul\":21685:21686   */\n      0x00\n        /* \"#utility.yul\":21678:21766   */\n      mstore\n        /* \"#utility.yul\":21785:21789   */\n      0x22\n        /* \"#utility.yul\":21782:21783   */\n      0x04\n        /* \"#utility.yul\":21775:21790   */\n      mstore\n        /* \"#utility.yul\":21809:21813   */\n      0x24\n        /* \"#utility.yul\":21806:21807   */\n      0x00\n        /* \"#utility.yul\":21799:21814   */\n      revert\n        /* \"#utility.yul\":21826:22006   */\n    tag_410:\n        /* \"#utility.yul\":21874:21951   */\n      0x4e487b7100000000000000000000000000000000000000000000000000000000\n        /* \"#utility.yul\":21871:21872   */\n      0x00\n        /* \"#utility.yul\":21864:21952   */\n      mstore\n        /* \"#utility.yul\":21971:21975   */\n      0x41\n        /* \"#utility.yul\":21968:21969   */\n      0x04\n        /* \"#utility.yul\":21961:21976   */\n      mstore\n        /* \"#utility.yul\":21995:21999   */\n      0x24\n        /* \"#utility.yul\":21992:21993   */\n      0x00\n        /* \"#utility.yul\":21985:22000   */\n      revert\n        /* \"#utility.yul\":22012:22129   */\n    tag_222:\n        /* \"#utility.yul\":22121:22122   */\n      0x00\n        /* \"#utility.yul\":22118:22119   */\n      dup1\n        /* \"#utility.yul\":22111:22123   */\n      revert\n        /* \"#utility.yul\":22135:22252   */\n    tag_207:\n        /* \"#utility.yul\":22244:22245   */\n      0x00\n        /* \"#utility.yul\":22241:22242   */\n      dup1\n        /* \"#utility.yul\":22234:22246   */\n      revert\n        /* \"#utility.yul\":22258:22375   */\n    tag_255:\n        /* \"#utility.yul\":22367:22368   */\n      0x00\n        /* \"#utility.yul\":22364:22365   */\n      dup1\n        /* \"#utility.yul\":22357:22369   */\n      revert\n        /* \"#utility.yul\":22381:22498   */\n    tag_235:\n        /* \"#utility.yul\":22490:22491   */\n      0x00\n        /* \"#utility.yul\":22487:22488   */\n      dup1\n        /* \"#utility.yul\":22480:22492   */\n      revert\n        /* \"#utility.yul\":22504:22606   */\n    tag_412:\n        /* \"#utility.yul\":22545:22551   */\n      0x00\n        /* \"#utility.yul\":22596:22598   */\n      0x1f\n        /* \"#utility.yul\":22592:22599   */\n      not\n        /* \"#utility.yul\":22587:22589   */\n      0x1f\n        /* \"#utility.yul\":22580:22585   */\n      dup4\n        /* \"#utility.yul\":22576:22590   */\n      add\n        /* \"#utility.yul\":22572:22600   */\n      and\n        /* \"#utility.yul\":22562:22600   */\n      swap1\n      pop\n        /* \"#utility.yul\":22504:22606   */\n      swap2\n      swap1\n      pop\n      jump\t// out\n        /* \"#utility.yul\":22612:22923   */\n    tag_296:\n        /* \"#utility.yul\":22752:22786   */\n      0x596f752068617665206e6f7420696e707574206120726967687420766f74652e\n        /* \"#utility.yul\":22748:22749   */\n      0x00\n        /* \"#utility.yul\":22740:22746   */\n      dup3\n        /* \"#utility.yul\":22736:22750   */\n      add\n        /* \"#utility.yul\":22729:22787   */\n      mstore\n        /* \"#utility.yul\":22821:22855   */\n      0x20596f752063616e2065697468657220766f7465203120666f72205265717565\n        /* \"#utility.yul\":22816:22818   */\n      0x20\n        /* \"#utility.yul\":22808:22814   */\n      dup3\n        /* \"#utility.yul\":22804:22819   */\n      add\n        /* \"#utility.yul\":22797:22856   */\n      mstore\n        /* \"#utility.yul\":22890:22915   */\n      0x73746572206f72203220666f722050726f76696465722e000000000000000000\n        /* \"#utility.yul\":22885:22887   */\n      0x40\n        /* \"#utility.yul\":22877:22883   */\n      dup3\n        /* \"#utility.yul\":22873:22888   */\n      add\n        /* \"#utility.yul\":22866:22916   */\n      mstore\n        /* \"#utility.yul\":22612:22923   */\n      pop\n      jump\t// out\n        /* \"#utility.yul\":22929:23161   */\n    tag_301:\n        /* \"#utility.yul\":23069:23103   */\n      0x596f75206861766520616c726561647920766f7465642c20796f752063616e6e\n        /* \"#utility.yul\":23065:23066   */\n      0x00\n        /* \"#utility.yul\":23057:23063   */\n      dup3\n        /* \"#utility.yul\":23053:23067   */\n      add\n        /* \"#utility.yul\":23046:23104   */\n      mstore\n        /* \"#utility.yul\":23138:23153   */\n      0x6f7420766f746520616761696e00000000000000000000000000000000000000\n        /* \"#utility.yul\":23133:23135   */\n      0x20\n        /* \"#utility.yul\":23125:23131   */\n      dup3\n        /* \"#utility.yul\":23121:23136   */\n      add\n        /* \"#utility.yul\":23114:23154   */\n      mstore\n        /* \"#utility.yul\":22929:23161   */\n      pop\n      jump\t// out\n        /* \"#utility.yul\":23167:23349   */\n    tag_306:\n        /* \"#utility.yul\":23307:23341   */\n      0x43616e6e6f74206361727279206f75742074686973206f7065726174696f6e21\n        /* \"#utility.yul\":23303:23304   */\n      0x00\n        /* \"#utility.yul\":23295:23301   */\n      dup3\n        /* \"#utility.yul\":23291:23305   */\n      add\n        /* \"#utility.yul\":23284:23342   */\n      mstore\n        /* \"#utility.yul\":23167:23349   */\n      pop\n      jump\t// out\n        /* \"#utility.yul\":23355:23534   */\n    tag_311:\n        /* \"#utility.yul\":23495:23526   */\n      0x5468697320436f6e666c69637420646f6573206e6f742065786973742e000000\n        /* \"#utility.yul\":23491:23492   */\n      0x00\n        /* \"#utility.yul\":23483:23489   */\n      dup3\n        /* \"#utility.yul\":23479:23493   */\n      add\n        /* \"#utility.yul\":23472:23527   */\n      mstore\n        /* \"#utility.yul\":23355:23534   */\n      pop\n      jump\t// out\n        /* \"#utility.yul\":23540:23775   */\n    tag_316:\n        /* \"#utility.yul\":23680:23714   */\n      0x596f7520726169736564207468697320636f6e666c6963742e20596f75206361\n        /* \"#utility.yul\":23676:23677   */\n      0x00\n        /* \"#utility.yul\":23668:23674   */\n      dup3\n        /* \"#utility.yul\":23664:23678   */\n      add\n        /* \"#utility.yul\":23657:23715   */\n      mstore\n        /* \"#utility.yul\":23749:23767   */\n      0x6e6e6f7420766f7465206f6e2069742e00000000000000000000000000000000\n        /* \"#utility.yul\":23744:23746   */\n      0x20\n        /* \"#utility.yul\":23736:23742   */\n      dup3\n        /* \"#utility.yul\":23732:23747   */\n      add\n        /* \"#utility.yul\":23725:23768   */\n      mstore\n        /* \"#utility.yul\":23540:23775   */\n      pop\n      jump\t// out\n        /* \"#utility.yul\":23781:24032   */\n    tag_321:\n        /* \"#utility.yul\":23921:23955   */\n      0x436f6e666c6963742068617320616c7265616479206265656e20637265617465\n        /* \"#utility.yul\":23917:23918   */\n      0x00\n        /* \"#utility.yul\":23909:23915   */\n      dup3\n        /* \"#utility.yul\":23905:23919   */\n      add\n        /* \"#utility.yul\":23898:23956   */\n      mstore\n        /* \"#utility.yul\":23990:24024   */\n      0x6420666f72207468697320706172746963756c6172204d696c6573746f6e652e\n        /* \"#utility.yul\":23985:23987   */\n      0x20\n        /* \"#utility.yul\":23977:23983   */\n      dup3\n        /* \"#utility.yul\":23973:23988   */\n      add\n        /* \"#utility.yul\":23966:24025   */\n      mstore\n        /* \"#utility.yul\":23781:24032   */\n      pop\n      jump\t// out\n        /* \"#utility.yul\":24038:24286   */\n    tag_326:\n        /* \"#utility.yul\":24178:24212   */\n      0x566f74696e6720686173206e6f74206265656e20636f6d706c65746564207965\n        /* \"#utility.yul\":24174:24175   */\n      0x00\n        /* \"#utility.yul\":24166:24172   */\n      dup3\n        /* \"#utility.yul\":24162:24176   */\n      add\n        /* \"#utility.yul\":24155:24213   */\n      mstore\n        /* \"#utility.yul\":24247:24278   */\n      0x742e20506c65617365207761697420666f7220697420746f20656e642e000000\n        /* \"#utility.yul\":24242:24244   */\n      0x20\n        /* \"#utility.yul\":24234:24240   */\n      dup3\n        /* \"#utility.yul\":24230:24245   */\n      add\n        /* \"#utility.yul\":24223:24279   */\n      mstore\n        /* \"#utility.yul\":24038:24286   */\n      pop\n      jump\t// out\n        /* \"#utility.yul\":24292:24590   */\n    tag_331:\n        /* \"#utility.yul\":24432:24466   */\n      0x4e6f742065766572796f6e652068617320766f7465642c20706c656173652070\n        /* \"#utility.yul\":24428:24429   */\n      0x00\n        /* \"#utility.yul\":24420:24426   */\n      dup3\n        /* \"#utility.yul\":24416:24430   */\n      add\n        /* \"#utility.yul\":24409:24467   */\n      mstore\n        /* \"#utility.yul\":24501:24535   */\n      0x726f6d707420616c6c206f74686572206d656d62657273206f662070726f6a65\n        /* \"#utility.yul\":24496:24498   */\n      0x20\n        /* \"#utility.yul\":24488:24494   */\n      dup3\n        /* \"#utility.yul\":24484:24499   */\n      add\n        /* \"#utility.yul\":24477:24536   */\n      mstore\n        /* \"#utility.yul\":24570:24582   */\n      0x637420746f20766f746500000000000000000000000000000000000000000000\n        /* \"#utility.yul\":24565:24567   */\n      0x40\n        /* \"#utility.yul\":24557:24563   */\n      dup3\n        /* \"#utility.yul\":24553:24568   */\n      add\n        /* \"#utility.yul\":24546:24583   */\n      mstore\n        /* \"#utility.yul\":24292:24590   */\n      pop\n      jump\t// out\n        /* \"#utility.yul\":24596:24767   */\n    tag_336:\n        /* \"#utility.yul\":24736:24759   */\n      0x4120737472696e67206973207265717569726564210000000000000000000000\n        /* \"#utility.yul\":24732:24733   */\n      0x00\n        /* \"#utility.yul\":24724:24730   */\n      dup3\n        /* \"#utility.yul\":24720:24734   */\n      add\n        /* \"#utility.yul\":24713:24760   */\n      mstore\n        /* \"#utility.yul\":24596:24767   */\n      pop\n      jump\t// out\n        /* \"#utility.yul\":24773:25017   */\n    tag_341:\n        /* \"#utility.yul\":24913:24947   */\n      0x596f752061726520696e766f6c76656420696e207468697320636f6e666c6963\n        /* \"#utility.yul\":24909:24910   */\n      0x00\n        /* \"#utility.yul\":24901:24907   */\n      dup3\n        /* \"#utility.yul\":24897:24911   */\n      add\n        /* \"#utility.yul\":24890:24948   */\n      mstore\n        /* \"#utility.yul\":24982:25009   */\n      0x742e20596f752063616e6e6f7420766f7465206f6e2069742e00000000000000\n        /* \"#utility.yul\":24977:24979   */\n      0x20\n        /* \"#utility.yul\":24969:24975   */\n      dup3\n        /* \"#utility.yul\":24965:24980   */\n      add\n        /* \"#utility.yul\":24958:25010   */\n      mstore\n        /* \"#utility.yul\":24773:25017   */\n      pop\n      jump\t// out\n        /* \"#utility.yul\":25023:25205   */\n    tag_346:\n        /* \"#utility.yul\":25163:25197   */\n      0x456e6f75676820766f7465732068617665206265656e20636f6c6c6563746564\n        /* \"#utility.yul\":25159:25160   */\n      0x00\n        /* \"#utility.yul\":25151:25157   */\n      dup3\n        /* \"#utility.yul\":25147:25161   */\n      add\n        /* \"#utility.yul\":25140:25198   */\n      mstore\n        /* \"#utility.yul\":25023:25205   */\n      pop\n      jump\t// out\n        /* \"#utility.yul\":25211:25334   */\n    tag_424:\n        /* \"#utility.yul\":25302:25303   */\n      0x04\n        /* \"#utility.yul\":25295:25300   */\n      dup2\n        /* \"#utility.yul\":25292:25304   */\n      lt\n        /* \"#utility.yul\":25282:25328   */\n      tag_474\n      jumpi\n        /* \"#utility.yul\":25308:25326   */\n      tag_475\n      tag_69\n      jump\t// in\n    tag_475:\n        /* \"#utility.yul\":25282:25328   */\n    tag_474:\n        /* \"#utility.yul\":25211:25334   */\n      pop\n      jump\t// out\n        /* \"#utility.yul\":25340:25462   */\n    tag_213:\n        /* \"#utility.yul\":25413:25437   */\n      tag_477\n        /* \"#utility.yul\":25431:25436   */\n      dup2\n        /* \"#utility.yul\":25413:25437   */\n      tag_282\n      jump\t// in\n    tag_477:\n        /* \"#utility.yul\":25406:25411   */\n      dup2\n        /* \"#utility.yul\":25403:25438   */\n      eq\n        /* \"#utility.yul\":25393:25456   */\n      tag_478\n      jumpi\n        /* \"#utility.yul\":25452:25453   */\n      0x00\n        /* \"#utility.yul\":25449:25450   */\n      dup1\n        /* \"#utility.yul\":25442:25454   */\n      revert\n        /* \"#utility.yul\":25393:25456   */\n    tag_478:\n        /* \"#utility.yul\":25340:25462   */\n      pop\n      jump\t// out\n        /* \"#utility.yul\":25468:25606   */\n    tag_217:\n        /* \"#utility.yul\":25549:25581   */\n      tag_480\n        /* \"#utility.yul\":25575:25580   */\n      dup2\n        /* \"#utility.yul\":25549:25581   */\n      tag_417\n      jump\t// in\n    tag_480:\n        /* \"#utility.yul\":25542:25547   */\n      dup2\n        /* \"#utility.yul\":25539:25582   */\n      eq\n        /* \"#utility.yul\":25529:25600   */\n      tag_481\n      jumpi\n        /* \"#utility.yul\":25596:25597   */\n      0x00\n        /* \"#utility.yul\":25593:25594   */\n      dup1\n        /* \"#utility.yul\":25586:25598   */\n      revert\n        /* \"#utility.yul\":25529:25600   */\n    tag_481:\n        /* \"#utility.yul\":25468:25606   */\n      pop\n      jump\t// out\n        /* \"#utility.yul\":25612:25734   */\n    tag_227:\n        /* \"#utility.yul\":25685:25709   */\n      tag_483\n        /* \"#utility.yul\":25703:25708   */\n      dup2\n        /* \"#utility.yul\":25685:25709   */\n      tag_350\n      jump\t// in\n    tag_483:\n        /* \"#utility.yul\":25678:25683   */\n      dup2\n        /* \"#utility.yul\":25675:25710   */\n      eq\n        /* \"#utility.yul\":25665:25728   */\n      tag_484\n      jumpi\n        /* \"#utility.yul\":25724:25725   */\n      0x00\n        /* \"#utility.yul\":25721:25722   */\n      dup1\n        /* \"#utility.yul\":25714:25726   */\n      revert\n        /* \"#utility.yul\":25665:25728   */\n    tag_484:\n        /* \"#utility.yul\":25612:25734   */\n      pop\n      jump\t// out\n        /* \"#utility.yul\":25740:25858   */\n    tag_231:\n        /* \"#utility.yul\":25811:25833   */\n      tag_486\n        /* \"#utility.yul\":25827:25832   */\n      dup2\n        /* \"#utility.yul\":25811:25833   */\n      tag_354\n      jump\t// in\n    tag_486:\n        /* \"#utility.yul\":25804:25809   */\n      dup2\n        /* \"#utility.yul\":25801:25834   */\n      eq\n        /* \"#utility.yul\":25791:25852   */\n      tag_487\n      jumpi\n        /* \"#utility.yul\":25848:25849   */\n      0x00\n        /* \"#utility.yul\":25845:25846   */\n      dup1\n        /* \"#utility.yul\":25838:25850   */\n      revert\n        /* \"#utility.yul\":25791:25852   */\n    tag_487:\n        /* \"#utility.yul\":25740:25858   */\n      pop\n      jump\t// out\n\n    auxdata: 0xa2646970667358221220f135d4388c1ff10a81421944ef332649f7cee534ffc05a111fc2df2c880a3d3964736f6c63430008070033\n}\n",
				"bytecode": {
					"linkReferences": {},
					"object": "608060405234801561001057600080fd5b50612177806100206000396000f3fe608060405234801561001057600080fd5b50600436106100a85760003560e01c80639c87a5e9116100715780639c87a5e914610189578063c171bdf7146101a5578063cb4389ce146101c1578063d1e992a7146101f1578063e3d877181461020d578063e62fac271461023d576100a8565b80623f489f146100ad5780630366cef2146100c95780633c45fe31146100f957806379712b01146101295780639ac7887914610159575b600080fd5b6100c760048036038101906100c291906113ff565b610259565b005b6100e360048036038101906100de91906113ff565b6103c5565b6040516100f091906119df565b60405180910390f35b610113600480360381019061010e91906113ff565b610573565b60405161012091906119df565b60405180910390f35b610143600480360381019061013e91906113ff565b6105b6565b6040516101509190611849565b60405180910390f35b610173600480360381019061016e91906113ff565b610606565b60405161018091906119df565b60405180910390f35b6101a3600480360381019061019e91906113ff565b610649565b005b6101bf60048036038101906101ba9190611452565b610765565b005b6101db60048036038101906101d691906113ff565b610cff565b6040516101e89190611864565b60405180910390f35b61020b600480360381019061020691906114cd565b610d4f565b005b610227600480360381019061022291906113ff565b610f2d565b60405161023491906119df565b60405180910390f35b61025760048036038101906102529190611580565b610f70565b005b8282826001151561026b8484846105b6565b1515146102ad576040517f08c379a00000000000000000000000000000000000000000000000000000000081526004016102a4906118df565b60405180910390fd5b85858560008060038111156102c5576102c4611d06565b5b6000808681526020019081526020016000206000858152602001908152602001600020600084815260200190815260200160002060060160149054906101000a900460ff16600381111561031c5761031b611d06565b5b1461035c576040517f08c379a0000000000000000000000000000000000000000000000000000000008152600401610353906118bf565b60405180910390fd5b60008060008c815260200190815260200160002060008b815260200190815260200160002060008a8152602001908152602001600020600b0160006101000a81548160ff0219169083151502179055506103b98a8a8a6003611233565b50505050505050505050565b60008060008581526020019081526020016000206000848152602001908152602001600020600083815260200190815260200160002060070154600080868152602001908152602001600020600085815260200190815260200160002060008481526020019081526020016000206008015414610477576040517f08c379a000000000000000000000000000000000000000000000000000000000815260040161046e9061195f565b60405180910390fd5b6002600381111561048b5761048a611d06565b5b6000808681526020019081526020016000206000858152602001908152602001600020600084815260200190815260200160002060060160149054906101000a900460ff1660038111156104e2576104e1611d06565b5b14610522576040517f08c379a00000000000000000000000000000000000000000000000000000000081526004016105199061193f565b60405180910390fd5b60008085815260200190815260200160002060008481526020019081526020016000206000838152602001908152602001600020600b0160019054906101000a900460ff1660ff1690509392505050565b6000806000858152602001908152602001600020600084815260200190815260200160002060008381526020019081526020016000206008015490509392505050565b600080600085815260200190815260200160002060008481526020019081526020016000206000838152602001908152602001600020600b0160009054906101000a900460ff1690509392505050565b600080600085815260200190815260200160002060008481526020019081526020016000206000838152602001908152602001600020600a015490509392505050565b8282826001151561065b8484846105b6565b15151461069d576040517f08c379a0000000000000000000000000000000000000000000000000000000008152600401610694906118df565b60405180910390fd5b85858560008060038111156106b5576106b4611d06565b5b6000808681526020019081526020016000206000858152602001908152602001600020600084815260200190815260200160002060060160149054906101000a900460ff16600381111561070c5761070b611d06565b5b1461074c576040517f08c379a0000000000000000000000000000000000000000000000000000000008152600401610743906118bf565b60405180910390fd5b6107598a8a8a6001611233565b50505050505050505050565b848484600115156107778484846105b6565b1515146107b9576040517f08c379a00000000000000000000000000000000000000000000000000000000081526004016107b0906118df565b60405180910390fd5b87878760018060038111156107d1576107d0611d06565b5b6000808681526020019081526020016000206000858152602001908152602001600020600084815260200190815260200160002060060160149054906101000a900460ff16600381111561082857610827611d06565b5b14610868576040517f08c379a000000000000000000000000000000000000000000000000000000000815260040161085f906118bf565b60405180910390fd5b60008060008e815260200190815260200160002060008d815260200190815260200160002060008c815260200190815260200160002090508973ffffffffffffffffffffffffffffffffffffffff168160050160009054906101000a900473ffffffffffffffffffffffffffffffffffffffff1673ffffffffffffffffffffffffffffffffffffffff161415610933576040517f08c379a000000000000000000000000000000000000000000000000000000000815260040161092a906118ff565b60405180910390fd5b8973ffffffffffffffffffffffffffffffffffffffff168160060160009054906101000a900473ffffffffffffffffffffffffffffffffffffffff1673ffffffffffffffffffffffffffffffffffffffff1614156109c6576040517f08c379a00000000000000000000000000000000000000000000000000000000081526004016109bd9061199f565b60405180910390fd5b8060070154816008015410610a10576040517f08c379a0000000000000000000000000000000000000000000000000000000008152600401610a07906119bf565b60405180910390fd5b600081600c0160008c73ffffffffffffffffffffffffffffffffffffffff1673ffffffffffffffffffffffffffffffffffffffff16815260200190815260200160002060009054906101000a900460ff1660ff1614610aa4576040517f08c379a0000000000000000000000000000000000000000000000000000000008152600401610a9b9061189f565b60405180910390fd5b60018960ff161480610ab9575060028960ff16145b610af8576040517f08c379a0000000000000000000000000000000000000000000000000000000008152600401610aef9061187f565b60405180910390fd5b60008060008f815260200190815260200160002060008e815260200190815260200160002060008d815260200190815260200160002090508981600c0160008d73ffffffffffffffffffffffffffffffffffffffff1673ffffffffffffffffffffffffffffffffffffffff16815260200190815260200160002060006101000a81548160ff021916908360ff16021790555060018a60ff161415610bb157806009016000815480929190610bab90611c8e565b91905055505b60028a60ff161415610bd85780600a016000815480929190610bd290611c8e565b91905055505b806008016000815480929190610bed90611c8e565b91905055507f20211b974adbe11ce3687d51504ce7ef1fcfbb9c00405ba7aca7b283903f345a8e8e8e338e604051610c29959493929190611a5b565b60405180910390a1806007015481600801541415610cef57806009015481600a01541115610c7457600281600b0160016101000a81548160ff021916908360ff160217905550610c93565b600181600b0160016101000a81548160ff021916908360ff1602179055505b610ca08e8e8e6002611233565b7fe59fdbc65a5dd63c529717c2a71d04b136038f05301755de242dd05990c028148e8e8e84600b0160019054906101000a900460ff16604051610ce69493929190611aae565b60405180910390a15b5050505050505050505050505050565b60008060008581526020019081526020016000206000848152602001908152602001600020600083815260200190815260200160002060060160149054906101000a900460ff1690509392505050565b8484846000806003811115610d6757610d66611d06565b5b6000808681526020019081526020016000206000858152602001908152602001600020600084815260200190815260200160002060060160149054906101000a900460ff166003811115610dbe57610dbd611d06565b5b14610dfe576040517f08c379a0000000000000000000000000000000000000000000000000000000008152600401610df5906118bf565b60405180910390fd5b856000815111610e43576040517f08c379a0000000000000000000000000000000000000000000000000000000008152600401610e3a9061197f565b60405180910390fd5b856000815111610e88576040517f08c379a0000000000000000000000000000000000000000000000000000000008152600401610e7f9061197f565b60405180910390fd5b876000808d815260200190815260200160002060008c815260200190815260200160002060008b81526020019081526020016000206003019080519060200190610ed3929190611298565b50866000808d815260200190815260200160002060008c815260200190815260200160002060008b81526020019081526020016000206004019080519060200190610f1f929190611298565b505050505050505050505050565b6000806000858152602001908152602001600020600084815260200190815260200160002060008381526020019081526020016000206009015490509392505050565b846000815111610fb5576040517f08c379a0000000000000000000000000000000000000000000000000000000008152600401610fac9061197f565b60405180910390fd5b846000815111610ffa576040517f08c379a0000000000000000000000000000000000000000000000000000000008152600401610ff19061197f565b60405180910390fd5b600015156110098b8b8b6105b6565b15151461104b576040517f08c379a00000000000000000000000000000000000000000000000000000000081526004016110429061191f565b60405180910390fd5b60008060008c815260200190815260200160002060008b815260200190815260200160002060008a815260200190815260200160002090508a8160000181905550898160010181905550888160020181905550878160030190805190602001906110b6929190611298565b50868160040190805190602001906110cf929190611298565b50858160050160006101000a81548173ffffffffffffffffffffffffffffffffffffffff021916908373ffffffffffffffffffffffffffffffffffffffff160217905550848160060160006101000a81548173ffffffffffffffffffffffffffffffffffffffff021916908373ffffffffffffffffffffffffffffffffffffffff16021790555060008160060160146101000a81548160ff0219169083600381111561117e5761117d611d06565b5b02179055508381600701819055506000816008018190555060008160090181905550600081600a0181905550600181600b0160006101000a81548160ff021916908315150217905550600081600b0160016101000a81548160ff021916908360ff1602179055507ffa127411522a1139d16c2142db999e127aef2288bd98a0558006bb115666ab1b8b8b8b89898960405161121e969594939291906119fa565b60405180910390a15050505050505050505050565b806000808681526020019081526020016000206000858152602001908152602001600020600084815260200190815260200160002060060160146101000a81548160ff0219169083600381111561128d5761128c611d06565b5b021790555050505050565b8280546112a490611c2b565b90600052602060002090601f0160209004810192826112c6576000855561130d565b82601f106112df57805160ff191683800117855561130d565b8280016001018555821561130d579182015b8281111561130c5782518255916020019190600101906112f1565b5b50905061131a919061131e565b5090565b5b8082111561133757600081600090555060010161131f565b5090565b600061134e61134984611b18565b611af3565b90508281526020810184848401111561136a57611369611d98565b5b611375848285611c1c565b509392505050565b60008135905061138c816120e5565b92915050565b6000813590506113a1816120fc565b92915050565b600082601f8301126113bc576113bb611d93565b5b81356113cc84826020860161133b565b91505092915050565b6000813590506113e481612113565b92915050565b6000813590506113f98161212a565b92915050565b60008060006060848603121561141857611417611da2565b5b6000611426868287016113d5565b9350506020611437868287016113d5565b9250506040611448868287016113d5565b9150509250925092565b600080600080600060a0868803121561146e5761146d611da2565b5b600061147c888289016113d5565b955050602061148d888289016113d5565b945050604061149e888289016113d5565b93505060606114af8882890161137d565b92505060806114c0888289016113ea565b9150509295509295909350565b600080600080600060a086880312156114e9576114e8611da2565b5b60006114f7888289016113d5565b9550506020611508888289016113d5565b9450506040611519888289016113d5565b935050606086013567ffffffffffffffff81111561153a57611539611d9d565b5b611546888289016113a7565b925050608086013567ffffffffffffffff81111561156757611566611d9d565b5b611573888289016113a7565b9150509295509295909350565b600080600080600080600080610100898b0312156115a1576115a0611da2565b5b60006115af8b828c016113d5565b98505060206115c08b828c016113d5565b97505060406115d18b828c016113d5565b965050606089013567ffffffffffffffff8111156115f2576115f1611d9d565b5b6115fe8b828c016113a7565b955050608089013567ffffffffffffffff81111561161f5761161e611d9d565b5b61162b8b828c016113a7565b94505060a061163c8b828c01611392565b93505060c061164d8b828c01611392565b92505060e061165e8b828c016113d5565b9150509295985092959890939650565b61167781611bd4565b82525050565b61168681611b5a565b82525050565b61169581611b7e565b82525050565b6116a481611be6565b82525050565b60006116b7605783611b49565b91506116c282611db8565b606082019050919050565b60006116da602d83611b49565b91506116e582611e2d565b604082019050919050565b60006116fd602083611b49565b915061170882611e7c565b602082019050919050565b6000611720601d83611b49565b915061172b82611ea5565b602082019050919050565b6000611743603083611b49565b915061174e82611ece565b604082019050919050565b6000611766604083611b49565b915061177182611f1d565b604082019050919050565b6000611789603d83611b49565b915061179482611f6c565b604082019050919050565b60006117ac604a83611b49565b91506117b782611fbb565b606082019050919050565b60006117cf601583611b49565b91506117da82612030565b602082019050919050565b60006117f2603983611b49565b91506117fd82612059565b604082019050919050565b6000611815602083611b49565b9150611820826120a8565b602082019050919050565b61183481611bbd565b82525050565b61184381611bc7565b82525050565b600060208201905061185e600083018461168c565b92915050565b6000602082019050611879600083018461169b565b92915050565b60006020820190508181036000830152611898816116aa565b9050919050565b600060208201905081810360008301526118b8816116cd565b9050919050565b600060208201905081810360008301526118d8816116f0565b9050919050565b600060208201905081810360008301526118f881611713565b9050919050565b6000602082019050818103600083015261191881611736565b9050919050565b6000602082019050818103600083015261193881611759565b9050919050565b600060208201905081810360008301526119588161177c565b9050919050565b600060208201905081810360008301526119788161179f565b9050919050565b60006020820190508181036000830152611998816117c2565b9050919050565b600060208201905081810360008301526119b8816117e5565b9050919050565b600060208201905081810360008301526119d881611808565b9050919050565b60006020820190506119f4600083018461182b565b92915050565b600060c082019050611a0f600083018961182b565b611a1c602083018861182b565b611a29604083018761182b565b611a36606083018661166e565b611a43608083018561166e565b611a5060a083018461182b565b979650505050505050565b600060a082019050611a70600083018861182b565b611a7d602083018761182b565b611a8a604083018661182b565b611a97606083018561167d565b611aa4608083018461183a565b9695505050505050565b6000608082019050611ac3600083018761182b565b611ad0602083018661182b565b611add604083018561182b565b611aea606083018461183a565b95945050505050565b6000611afd611b0e565b9050611b098282611c5d565b919050565b6000604051905090565b600067ffffffffffffffff821115611b3357611b32611d64565b5b611b3c82611da7565b9050602081019050919050565b600082825260208201905092915050565b6000611b6582611b9d565b9050919050565b6000611b7782611b9d565b9050919050565b60008115159050919050565b6000819050611b98826120d1565b919050565b600073ffffffffffffffffffffffffffffffffffffffff82169050919050565b6000819050919050565b600060ff82169050919050565b6000611bdf82611bf8565b9050919050565b6000611bf182611b8a565b9050919050565b6000611c0382611c0a565b9050919050565b6000611c1582611b9d565b9050919050565b82818337600083830152505050565b60006002820490506001821680611c4357607f821691505b60208210811415611c5757611c56611d35565b5b50919050565b611c6682611da7565b810181811067ffffffffffffffff82111715611c8557611c84611d64565b5b80604052505050565b6000611c9982611bbd565b91507fffffffffffffffffffffffffffffffffffffffffffffffffffffffffffffffff821415611ccc57611ccb611cd7565b5b600182019050919050565b7f4e487b7100000000000000000000000000000000000000000000000000000000600052601160045260246000fd5b7f4e487b7100000000000000000000000000000000000000000000000000000000600052602160045260246000fd5b7f4e487b7100000000000000000000000000000000000000000000000000000000600052602260045260246000fd5b7f4e487b7100000000000000000000000000000000000000000000000000000000600052604160045260246000fd5b600080fd5b600080fd5b600080fd5b600080fd5b6000601f19601f8301169050919050565b7f596f752068617665206e6f7420696e707574206120726967687420766f74652e60008201527f20596f752063616e2065697468657220766f7465203120666f7220526571756560208201527f73746572206f72203220666f722050726f76696465722e000000000000000000604082015250565b7f596f75206861766520616c726561647920766f7465642c20796f752063616e6e60008201527f6f7420766f746520616761696e00000000000000000000000000000000000000602082015250565b7f43616e6e6f74206361727279206f75742074686973206f7065726174696f6e21600082015250565b7f5468697320436f6e666c69637420646f6573206e6f742065786973742e000000600082015250565b7f596f7520726169736564207468697320636f6e666c6963742e20596f7520636160008201527f6e6e6f7420766f7465206f6e2069742e00000000000000000000000000000000602082015250565b7f436f6e666c6963742068617320616c7265616479206265656e2063726561746560008201527f6420666f72207468697320706172746963756c6172204d696c6573746f6e652e602082015250565b7f566f74696e6720686173206e6f74206265656e20636f6d706c6574656420796560008201527f742e20506c65617365207761697420666f7220697420746f20656e642e000000602082015250565b7f4e6f742065766572796f6e652068617320766f7465642c20706c65617365207060008201527f726f6d707420616c6c206f74686572206d656d62657273206f662070726f6a6560208201527f637420746f20766f746500000000000000000000000000000000000000000000604082015250565b7f4120737472696e67206973207265717569726564210000000000000000000000600082015250565b7f596f752061726520696e766f6c76656420696e207468697320636f6e666c696360008201527f742e20596f752063616e6e6f7420766f7465206f6e2069742e00000000000000602082015250565b7f456e6f75676820766f7465732068617665206265656e20636f6c6c6563746564600082015250565b600481106120e2576120e1611d06565b5b50565b6120ee81611b5a565b81146120f957600080fd5b50565b61210581611b6c565b811461211057600080fd5b50565b61211c81611bbd565b811461212757600080fd5b50565b61213381611bc7565b811461213e57600080fd5b5056fea2646970667358221220f135d4388c1ff10a81421944ef332649f7cee534ffc05a111fc2df2c880a3d3964736f6c63430008070033",
					"opcodes": "PUSH1 0x80 PUSH1 0x40 MSTORE CALLVALUE DUP1 ISZERO PUSH2 0x10 JUMPI PUSH1 0x0 DUP1 REVERT JUMPDEST POP PUSH2 0x2177 DUP1 PUSH2 0x20 PUSH1 0x0 CODECOPY PUSH1 0x0 RETURN INVALID PUSH1 0x80 PUSH1 0x40 MSTORE CALLVALUE DUP1 ISZERO PUSH2 0x10 JUMPI PUSH1 0x0 DUP1 REVERT JUMPDEST POP PUSH1 0x4 CALLDATASIZE LT PUSH2 0xA8 JUMPI PUSH1 0x0 CALLDATALOAD PUSH1 0xE0 SHR DUP1 PUSH4 0x9C87A5E9 GT PUSH2 0x71 JUMPI DUP1 PUSH4 0x9C87A5E9 EQ PUSH2 0x189 JUMPI DUP1 PUSH4 0xC171BDF7 EQ PUSH2 0x1A5 JUMPI DUP1 PUSH4 0xCB4389CE EQ PUSH2 0x1C1 JUMPI DUP1 PUSH4 0xD1E992A7 EQ PUSH2 0x1F1 JUMPI DUP1 PUSH4 0xE3D87718 EQ PUSH2 0x20D JUMPI DUP1 PUSH4 0xE62FAC27 EQ PUSH2 0x23D JUMPI PUSH2 0xA8 JUMP JUMPDEST DUP1 PUSH3 0x3F489F EQ PUSH2 0xAD JUMPI DUP1 PUSH4 0x366CEF2 EQ PUSH2 0xC9 JUMPI DUP1 PUSH4 0x3C45FE31 EQ PUSH2 0xF9 JUMPI DUP1 PUSH4 0x79712B01 EQ PUSH2 0x129 JUMPI DUP1 PUSH4 0x9AC78879 EQ PUSH2 0x159 JUMPI JUMPDEST PUSH1 0x0 DUP1 REVERT JUMPDEST PUSH2 0xC7 PUSH1 0x4 DUP1 CALLDATASIZE SUB DUP2 ADD SWAP1 PUSH2 0xC2 SWAP2 SWAP1 PUSH2 0x13FF JUMP JUMPDEST PUSH2 0x259 JUMP JUMPDEST STOP JUMPDEST PUSH2 0xE3 PUSH1 0x4 DUP1 CALLDATASIZE SUB DUP2 ADD SWAP1 PUSH2 0xDE SWAP2 SWAP1 PUSH2 0x13FF JUMP JUMPDEST PUSH2 0x3C5 JUMP JUMPDEST PUSH1 0x40 MLOAD PUSH2 0xF0 SWAP2 SWAP1 PUSH2 0x19DF JUMP JUMPDEST PUSH1 0x40 MLOAD DUP1 SWAP2 SUB SWAP1 RETURN JUMPDEST PUSH2 0x113 PUSH1 0x4 DUP1 CALLDATASIZE SUB DUP2 ADD SWAP1 PUSH2 0x10E SWAP2 SWAP1 PUSH2 0x13FF JUMP JUMPDEST PUSH2 0x573 JUMP JUMPDEST PUSH1 0x40 MLOAD PUSH2 0x120 SWAP2 SWAP1 PUSH2 0x19DF JUMP JUMPDEST PUSH1 0x40 MLOAD DUP1 SWAP2 SUB SWAP1 RETURN JUMPDEST PUSH2 0x143 PUSH1 0x4 DUP1 CALLDATASIZE SUB DUP2 ADD SWAP1 PUSH2 0x13E SWAP2 SWAP1 PUSH2 0x13FF JUMP JUMPDEST PUSH2 0x5B6 JUMP JUMPDEST PUSH1 0x40 MLOAD PUSH2 0x150 SWAP2 SWAP1 PUSH2 0x1849 JUMP JUMPDEST PUSH1 0x40 MLOAD DUP1 SWAP2 SUB SWAP1 RETURN JUMPDEST PUSH2 0x173 PUSH1 0x4 DUP1 CALLDATASIZE SUB DUP2 ADD SWAP1 PUSH2 0x16E SWAP2 SWAP1 PUSH2 0x13FF JUMP JUMPDEST PUSH2 0x606 JUMP JUMPDEST PUSH1 0x40 MLOAD PUSH2 0x180 SWAP2 SWAP1 PUSH2 0x19DF JUMP JUMPDEST PUSH1 0x40 MLOAD DUP1 SWAP2 SUB SWAP1 RETURN JUMPDEST PUSH2 0x1A3 PUSH1 0x4 DUP1 CALLDATASIZE SUB DUP2 ADD SWAP1 PUSH2 0x19E SWAP2 SWAP1 PUSH2 0x13FF JUMP JUMPDEST PUSH2 0x649 JUMP JUMPDEST STOP JUMPDEST PUSH2 0x1BF PUSH1 0x4 DUP1 CALLDATASIZE SUB DUP2 ADD SWAP1 PUSH2 0x1BA SWAP2 SWAP1 PUSH2 0x1452 JUMP JUMPDEST PUSH2 0x765 JUMP JUMPDEST STOP JUMPDEST PUSH2 0x1DB PUSH1 0x4 DUP1 CALLDATASIZE SUB DUP2 ADD SWAP1 PUSH2 0x1D6 SWAP2 SWAP1 PUSH2 0x13FF JUMP JUMPDEST PUSH2 0xCFF JUMP JUMPDEST PUSH1 0x40 MLOAD PUSH2 0x1E8 SWAP2 SWAP1 PUSH2 0x1864 JUMP JUMPDEST PUSH1 0x40 MLOAD DUP1 SWAP2 SUB SWAP1 RETURN JUMPDEST PUSH2 0x20B PUSH1 0x4 DUP1 CALLDATASIZE SUB DUP2 ADD SWAP1 PUSH2 0x206 SWAP2 SWAP1 PUSH2 0x14CD JUMP JUMPDEST PUSH2 0xD4F JUMP JUMPDEST STOP JUMPDEST PUSH2 0x227 PUSH1 0x4 DUP1 CALLDATASIZE SUB DUP2 ADD SWAP1 PUSH2 0x222 SWAP2 SWAP1 PUSH2 0x13FF JUMP JUMPDEST PUSH2 0xF2D JUMP JUMPDEST PUSH1 0x40 MLOAD PUSH2 0x234 SWAP2 SWAP1 PUSH2 0x19DF JUMP JUMPDEST PUSH1 0x40 MLOAD DUP1 SWAP2 SUB SWAP1 RETURN JUMPDEST PUSH2 0x257 PUSH1 0x4 DUP1 CALLDATASIZE SUB DUP2 ADD SWAP1 PUSH2 0x252 SWAP2 SWAP1 PUSH2 0x1580 JUMP JUMPDEST PUSH2 0xF70 JUMP JUMPDEST STOP JUMPDEST DUP3 DUP3 DUP3 PUSH1 0x1 ISZERO ISZERO PUSH2 0x26B DUP5 DUP5 DUP5 PUSH2 0x5B6 JUMP JUMPDEST ISZERO ISZERO EQ PUSH2 0x2AD JUMPI PUSH1 0x40 MLOAD PUSH32 0x8C379A000000000000000000000000000000000000000000000000000000000 DUP2 MSTORE PUSH1 0x4 ADD PUSH2 0x2A4 SWAP1 PUSH2 0x18DF JUMP JUMPDEST PUSH1 0x40 MLOAD DUP1 SWAP2 SUB SWAP1 REVERT JUMPDEST DUP6 DUP6 DUP6 PUSH1 0x0 DUP1 PUSH1 0x3 DUP2 GT ISZERO PUSH2 0x2C5 JUMPI PUSH2 0x2C4 PUSH2 0x1D06 JUMP JUMPDEST JUMPDEST PUSH1 0x0 DUP1 DUP7 DUP2 MSTORE PUSH1 0x20 ADD SWAP1 DUP2 MSTORE PUSH1 0x20 ADD PUSH1 0x0 KECCAK256 PUSH1 0x0 DUP6 DUP2 MSTORE PUSH1 0x20 ADD SWAP1 DUP2 MSTORE PUSH1 0x20 ADD PUSH1 0x0 KECCAK256 PUSH1 0x0 DUP5 DUP2 MSTORE PUSH1 0x20 ADD SWAP1 DUP2 MSTORE PUSH1 0x20 ADD PUSH1 0x0 KECCAK256 PUSH1 0x6 ADD PUSH1 0x14 SWAP1 SLOAD SWAP1 PUSH2 0x100 EXP SWAP1 DIV PUSH1 0xFF AND PUSH1 0x3 DUP2 GT ISZERO PUSH2 0x31C JUMPI PUSH2 0x31B PUSH2 0x1D06 JUMP JUMPDEST JUMPDEST EQ PUSH2 0x35C JUMPI PUSH1 0x40 MLOAD PUSH32 0x8C379A000000000000000000000000000000000000000000000000000000000 DUP2 MSTORE PUSH1 0x4 ADD PUSH2 0x353 SWAP1 PUSH2 0x18BF JUMP JUMPDEST PUSH1 0x40 MLOAD DUP1 SWAP2 SUB SWAP1 REVERT JUMPDEST PUSH1 0x0 DUP1 PUSH1 0x0 DUP13 DUP2 MSTORE PUSH1 0x20 ADD SWAP1 DUP2 MSTORE PUSH1 0x20 ADD PUSH1 0x0 KECCAK256 PUSH1 0x0 DUP12 DUP2 MSTORE PUSH1 0x20 ADD SWAP1 DUP2 MSTORE PUSH1 0x20 ADD PUSH1 0x0 KECCAK256 PUSH1 0x0 DUP11 DUP2 MSTORE PUSH1 0x20 ADD SWAP1 DUP2 MSTORE PUSH1 0x20 ADD PUSH1 0x0 KECCAK256 PUSH1 0xB ADD PUSH1 0x0 PUSH2 0x100 EXP DUP2 SLOAD DUP2 PUSH1 0xFF MUL NOT AND SWAP1 DUP4 ISZERO ISZERO MUL OR SWAP1 SSTORE POP PUSH2 0x3B9 DUP11 DUP11 DUP11 PUSH1 0x3 PUSH2 0x1233 JUMP JUMPDEST POP POP POP POP POP POP POP POP POP POP JUMP JUMPDEST PUSH1 0x0 DUP1 PUSH1 0x0 DUP6 DUP2 MSTORE PUSH1 0x20 ADD SWAP1 DUP2 MSTORE PUSH1 0x20 ADD PUSH1 0x0 KECCAK256 PUSH1 0x0 DUP5 DUP2 MSTORE PUSH1 0x20 ADD SWAP1 DUP2 MSTORE PUSH1 0x20 ADD PUSH1 0x0 KECCAK256 PUSH1 0x0 DUP4 DUP2 MSTORE PUSH1 0x20 ADD SWAP1 DUP2 MSTORE PUSH1 0x20 ADD PUSH1 0x0 KECCAK256 PUSH1 0x7 ADD SLOAD PUSH1 0x0 DUP1 DUP7 DUP2 MSTORE PUSH1 0x20 ADD SWAP1 DUP2 MSTORE PUSH1 0x20 ADD PUSH1 0x0 KECCAK256 PUSH1 0x0 DUP6 DUP2 MSTORE PUSH1 0x20 ADD SWAP1 DUP2 MSTORE PUSH1 0x20 ADD PUSH1 0x0 KECCAK256 PUSH1 0x0 DUP5 DUP2 MSTORE PUSH1 0x20 ADD SWAP1 DUP2 MSTORE PUSH1 0x20 ADD PUSH1 0x0 KECCAK256 PUSH1 0x8 ADD SLOAD EQ PUSH2 0x477 JUMPI PUSH1 0x40 MLOAD PUSH32 0x8C379A000000000000000000000000000000000000000000000000000000000 DUP2 MSTORE PUSH1 0x4 ADD PUSH2 0x46E SWAP1 PUSH2 0x195F JUMP JUMPDEST PUSH1 0x40 MLOAD DUP1 SWAP2 SUB SWAP1 REVERT JUMPDEST PUSH1 0x2 PUSH1 0x3 DUP2 GT ISZERO PUSH2 0x48B JUMPI PUSH2 0x48A PUSH2 0x1D06 JUMP JUMPDEST JUMPDEST PUSH1 0x0 DUP1 DUP7 DUP2 MSTORE PUSH1 0x20 ADD SWAP1 DUP2 MSTORE PUSH1 0x20 ADD PUSH1 0x0 KECCAK256 PUSH1 0x0 DUP6 DUP2 MSTORE PUSH1 0x20 ADD SWAP1 DUP2 MSTORE PUSH1 0x20 ADD PUSH1 0x0 KECCAK256 PUSH1 0x0 DUP5 DUP2 MSTORE PUSH1 0x20 ADD SWAP1 DUP2 MSTORE PUSH1 0x20 ADD PUSH1 0x0 KECCAK256 PUSH1 0x6 ADD PUSH1 0x14 SWAP1 SLOAD SWAP1 PUSH2 0x100 EXP SWAP1 DIV PUSH1 0xFF AND PUSH1 0x3 DUP2 GT ISZERO PUSH2 0x4E2 JUMPI PUSH2 0x4E1 PUSH2 0x1D06 JUMP JUMPDEST JUMPDEST EQ PUSH2 0x522 JUMPI PUSH1 0x40 MLOAD PUSH32 0x8C379A000000000000000000000000000000000000000000000000000000000 DUP2 MSTORE PUSH1 0x4 ADD PUSH2 0x519 SWAP1 PUSH2 0x193F JUMP JUMPDEST PUSH1 0x40 MLOAD DUP1 SWAP2 SUB SWAP1 REVERT JUMPDEST PUSH1 0x0 DUP1 DUP6 DUP2 MSTORE PUSH1 0x20 ADD SWAP1 DUP2 MSTORE PUSH1 0x20 ADD PUSH1 0x0 KECCAK256 PUSH1 0x0 DUP5 DUP2 MSTORE PUSH1 0x20 ADD SWAP1 DUP2 MSTORE PUSH1 0x20 ADD PUSH1 0x0 KECCAK256 PUSH1 0x0 DUP4 DUP2 MSTORE PUSH1 0x20 ADD SWAP1 DUP2 MSTORE PUSH1 0x20 ADD PUSH1 0x0 KECCAK256 PUSH1 0xB ADD PUSH1 0x1 SWAP1 SLOAD SWAP1 PUSH2 0x100 EXP SWAP1 DIV PUSH1 0xFF AND PUSH1 0xFF AND SWAP1 POP SWAP4 SWAP3 POP POP POP JUMP JUMPDEST PUSH1 0x0 DUP1 PUSH1 0x0 DUP6 DUP2 MSTORE PUSH1 0x20 ADD SWAP1 DUP2 MSTORE PUSH1 0x20 ADD PUSH1 0x0 KECCAK256 PUSH1 0x0 DUP5 DUP2 MSTORE PUSH1 0x20 ADD SWAP1 DUP2 MSTORE PUSH1 0x20 ADD PUSH1 0x0 KECCAK256 PUSH1 0x0 DUP4 DUP2 MSTORE PUSH1 0x20 ADD SWAP1 DUP2 MSTORE PUSH1 0x20 ADD PUSH1 0x0 KECCAK256 PUSH1 0x8 ADD SLOAD SWAP1 POP SWAP4 SWAP3 POP POP POP JUMP JUMPDEST PUSH1 0x0 DUP1 PUSH1 0x0 DUP6 DUP2 MSTORE PUSH1 0x20 ADD SWAP1 DUP2 MSTORE PUSH1 0x20 ADD PUSH1 0x0 KECCAK256 PUSH1 0x0 DUP5 DUP2 MSTORE PUSH1 0x20 ADD SWAP1 DUP2 MSTORE PUSH1 0x20 ADD PUSH1 0x0 KECCAK256 PUSH1 0x0 DUP4 DUP2 MSTORE PUSH1 0x20 ADD SWAP1 DUP2 MSTORE PUSH1 0x20 ADD PUSH1 0x0 KECCAK256 PUSH1 0xB ADD PUSH1 0x0 SWAP1 SLOAD SWAP1 PUSH2 0x100 EXP SWAP1 DIV PUSH1 0xFF AND SWAP1 POP SWAP4 SWAP3 POP POP POP JUMP JUMPDEST PUSH1 0x0 DUP1 PUSH1 0x0 DUP6 DUP2 MSTORE PUSH1 0x20 ADD SWAP1 DUP2 MSTORE PUSH1 0x20 ADD PUSH1 0x0 KECCAK256 PUSH1 0x0 DUP5 DUP2 MSTORE PUSH1 0x20 ADD SWAP1 DUP2 MSTORE PUSH1 0x20 ADD PUSH1 0x0 KECCAK256 PUSH1 0x0 DUP4 DUP2 MSTORE PUSH1 0x20 ADD SWAP1 DUP2 MSTORE PUSH1 0x20 ADD PUSH1 0x0 KECCAK256 PUSH1 0xA ADD SLOAD SWAP1 POP SWAP4 SWAP3 POP POP POP JUMP JUMPDEST DUP3 DUP3 DUP3 PUSH1 0x1 ISZERO ISZERO PUSH2 0x65B DUP5 DUP5 DUP5 PUSH2 0x5B6 JUMP JUMPDEST ISZERO ISZERO EQ PUSH2 0x69D JUMPI PUSH1 0x40 MLOAD PUSH32 0x8C379A000000000000000000000000000000000000000000000000000000000 DUP2 MSTORE PUSH1 0x4 ADD PUSH2 0x694 SWAP1 PUSH2 0x18DF JUMP JUMPDEST PUSH1 0x40 MLOAD DUP1 SWAP2 SUB SWAP1 REVERT JUMPDEST DUP6 DUP6 DUP6 PUSH1 0x0 DUP1 PUSH1 0x3 DUP2 GT ISZERO PUSH2 0x6B5 JUMPI PUSH2 0x6B4 PUSH2 0x1D06 JUMP JUMPDEST JUMPDEST PUSH1 0x0 DUP1 DUP7 DUP2 MSTORE PUSH1 0x20 ADD SWAP1 DUP2 MSTORE PUSH1 0x20 ADD PUSH1 0x0 KECCAK256 PUSH1 0x0 DUP6 DUP2 MSTORE PUSH1 0x20 ADD SWAP1 DUP2 MSTORE PUSH1 0x20 ADD PUSH1 0x0 KECCAK256 PUSH1 0x0 DUP5 DUP2 MSTORE PUSH1 0x20 ADD SWAP1 DUP2 MSTORE PUSH1 0x20 ADD PUSH1 0x0 KECCAK256 PUSH1 0x6 ADD PUSH1 0x14 SWAP1 SLOAD SWAP1 PUSH2 0x100 EXP SWAP1 DIV PUSH1 0xFF AND PUSH1 0x3 DUP2 GT ISZERO PUSH2 0x70C JUMPI PUSH2 0x70B PUSH2 0x1D06 JUMP JUMPDEST JUMPDEST EQ PUSH2 0x74C JUMPI PUSH1 0x40 MLOAD PUSH32 0x8C379A000000000000000000000000000000000000000000000000000000000 DUP2 MSTORE PUSH1 0x4 ADD PUSH2 0x743 SWAP1 PUSH2 0x18BF JUMP JUMPDEST PUSH1 0x40 MLOAD DUP1 SWAP2 SUB SWAP1 REVERT JUMPDEST PUSH2 0x759 DUP11 DUP11 DUP11 PUSH1 0x1 PUSH2 0x1233 JUMP JUMPDEST POP POP POP POP POP POP POP POP POP POP JUMP JUMPDEST DUP5 DUP5 DUP5 PUSH1 0x1 ISZERO ISZERO PUSH2 0x777 DUP5 DUP5 DUP5 PUSH2 0x5B6 JUMP JUMPDEST ISZERO ISZERO EQ PUSH2 0x7B9 JUMPI PUSH1 0x40 MLOAD PUSH32 0x8C379A000000000000000000000000000000000000000000000000000000000 DUP2 MSTORE PUSH1 0x4 ADD PUSH2 0x7B0 SWAP1 PUSH2 0x18DF JUMP JUMPDEST PUSH1 0x40 MLOAD DUP1 SWAP2 SUB SWAP1 REVERT JUMPDEST DUP8 DUP8 DUP8 PUSH1 0x1 DUP1 PUSH1 0x3 DUP2 GT ISZERO PUSH2 0x7D1 JUMPI PUSH2 0x7D0 PUSH2 0x1D06 JUMP JUMPDEST JUMPDEST PUSH1 0x0 DUP1 DUP7 DUP2 MSTORE PUSH1 0x20 ADD SWAP1 DUP2 MSTORE PUSH1 0x20 ADD PUSH1 0x0 KECCAK256 PUSH1 0x0 DUP6 DUP2 MSTORE PUSH1 0x20 ADD SWAP1 DUP2 MSTORE PUSH1 0x20 ADD PUSH1 0x0 KECCAK256 PUSH1 0x0 DUP5 DUP2 MSTORE PUSH1 0x20 ADD SWAP1 DUP2 MSTORE PUSH1 0x20 ADD PUSH1 0x0 KECCAK256 PUSH1 0x6 ADD PUSH1 0x14 SWAP1 SLOAD SWAP1 PUSH2 0x100 EXP SWAP1 DIV PUSH1 0xFF AND PUSH1 0x3 DUP2 GT ISZERO PUSH2 0x828 JUMPI PUSH2 0x827 PUSH2 0x1D06 JUMP JUMPDEST JUMPDEST EQ PUSH2 0x868 JUMPI PUSH1 0x40 MLOAD PUSH32 0x8C379A000000000000000000000000000000000000000000000000000000000 DUP2 MSTORE PUSH1 0x4 ADD PUSH2 0x85F SWAP1 PUSH2 0x18BF JUMP JUMPDEST PUSH1 0x40 MLOAD DUP1 SWAP2 SUB SWAP1 REVERT JUMPDEST PUSH1 0x0 DUP1 PUSH1 0x0 DUP15 DUP2 MSTORE PUSH1 0x20 ADD SWAP1 DUP2 MSTORE PUSH1 0x20 ADD PUSH1 0x0 KECCAK256 PUSH1 0x0 DUP14 DUP2 MSTORE PUSH1 0x20 ADD SWAP1 DUP2 MSTORE PUSH1 0x20 ADD PUSH1 0x0 KECCAK256 PUSH1 0x0 DUP13 DUP2 MSTORE PUSH1 0x20 ADD SWAP1 DUP2 MSTORE PUSH1 0x20 ADD PUSH1 0x0 KECCAK256 SWAP1 POP DUP10 PUSH20 0xFFFFFFFFFFFFFFFFFFFFFFFFFFFFFFFFFFFFFFFF AND DUP2 PUSH1 0x5 ADD PUSH1 0x0 SWAP1 SLOAD SWAP1 PUSH2 0x100 EXP SWAP1 DIV PUSH20 0xFFFFFFFFFFFFFFFFFFFFFFFFFFFFFFFFFFFFFFFF AND PUSH20 0xFFFFFFFFFFFFFFFFFFFFFFFFFFFFFFFFFFFFFFFF AND EQ ISZERO PUSH2 0x933 JUMPI PUSH1 0x40 MLOAD PUSH32 0x8C379A000000000000000000000000000000000000000000000000000000000 DUP2 MSTORE PUSH1 0x4 ADD PUSH2 0x92A SWAP1 PUSH2 0x18FF JUMP JUMPDEST PUSH1 0x40 MLOAD DUP1 SWAP2 SUB SWAP1 REVERT JUMPDEST DUP10 PUSH20 0xFFFFFFFFFFFFFFFFFFFFFFFFFFFFFFFFFFFFFFFF AND DUP2 PUSH1 0x6 ADD PUSH1 0x0 SWAP1 SLOAD SWAP1 PUSH2 0x100 EXP SWAP1 DIV PUSH20 0xFFFFFFFFFFFFFFFFFFFFFFFFFFFFFFFFFFFFFFFF AND PUSH20 0xFFFFFFFFFFFFFFFFFFFFFFFFFFFFFFFFFFFFFFFF AND EQ ISZERO PUSH2 0x9C6 JUMPI PUSH1 0x40 MLOAD PUSH32 0x8C379A000000000000000000000000000000000000000000000000000000000 DUP2 MSTORE PUSH1 0x4 ADD PUSH2 0x9BD SWAP1 PUSH2 0x199F JUMP JUMPDEST PUSH1 0x40 MLOAD DUP1 SWAP2 SUB SWAP1 REVERT JUMPDEST DUP1 PUSH1 0x7 ADD SLOAD DUP2 PUSH1 0x8 ADD SLOAD LT PUSH2 0xA10 JUMPI PUSH1 0x40 MLOAD PUSH32 0x8C379A000000000000000000000000000000000000000000000000000000000 DUP2 MSTORE PUSH1 0x4 ADD PUSH2 0xA07 SWAP1 PUSH2 0x19BF JUMP JUMPDEST PUSH1 0x40 MLOAD DUP1 SWAP2 SUB SWAP1 REVERT JUMPDEST PUSH1 0x0 DUP2 PUSH1 0xC ADD PUSH1 0x0 DUP13 PUSH20 0xFFFFFFFFFFFFFFFFFFFFFFFFFFFFFFFFFFFFFFFF AND PUSH20 0xFFFFFFFFFFFFFFFFFFFFFFFFFFFFFFFFFFFFFFFF AND DUP2 MSTORE PUSH1 0x20 ADD SWAP1 DUP2 MSTORE PUSH1 0x20 ADD PUSH1 0x0 KECCAK256 PUSH1 0x0 SWAP1 SLOAD SWAP1 PUSH2 0x100 EXP SWAP1 DIV PUSH1 0xFF AND PUSH1 0xFF AND EQ PUSH2 0xAA4 JUMPI PUSH1 0x40 MLOAD PUSH32 0x8C379A000000000000000000000000000000000000000000000000000000000 DUP2 MSTORE PUSH1 0x4 ADD PUSH2 0xA9B SWAP1 PUSH2 0x189F JUMP JUMPDEST PUSH1 0x40 MLOAD DUP1 SWAP2 SUB SWAP1 REVERT JUMPDEST PUSH1 0x1 DUP10 PUSH1 0xFF AND EQ DUP1 PUSH2 0xAB9 JUMPI POP PUSH1 0x2 DUP10 PUSH1 0xFF AND EQ JUMPDEST PUSH2 0xAF8 JUMPI PUSH1 0x40 MLOAD PUSH32 0x8C379A000000000000000000000000000000000000000000000000000000000 DUP2 MSTORE PUSH1 0x4 ADD PUSH2 0xAEF SWAP1 PUSH2 0x187F JUMP JUMPDEST PUSH1 0x40 MLOAD DUP1 SWAP2 SUB SWAP1 REVERT JUMPDEST PUSH1 0x0 DUP1 PUSH1 0x0 DUP16 DUP2 MSTORE PUSH1 0x20 ADD SWAP1 DUP2 MSTORE PUSH1 0x20 ADD PUSH1 0x0 KECCAK256 PUSH1 0x0 DUP15 DUP2 MSTORE PUSH1 0x20 ADD SWAP1 DUP2 MSTORE PUSH1 0x20 ADD PUSH1 0x0 KECCAK256 PUSH1 0x0 DUP14 DUP2 MSTORE PUSH1 0x20 ADD SWAP1 DUP2 MSTORE PUSH1 0x20 ADD PUSH1 0x0 KECCAK256 SWAP1 POP DUP10 DUP2 PUSH1 0xC ADD PUSH1 0x0 DUP14 PUSH20 0xFFFFFFFFFFFFFFFFFFFFFFFFFFFFFFFFFFFFFFFF AND PUSH20 0xFFFFFFFFFFFFFFFFFFFFFFFFFFFFFFFFFFFFFFFF AND DUP2 MSTORE PUSH1 0x20 ADD SWAP1 DUP2 MSTORE PUSH1 0x20 ADD PUSH1 0x0 KECCAK256 PUSH1 0x0 PUSH2 0x100 EXP DUP2 SLOAD DUP2 PUSH1 0xFF MUL NOT AND SWAP1 DUP4 PUSH1 0xFF AND MUL OR SWAP1 SSTORE POP PUSH1 0x1 DUP11 PUSH1 0xFF AND EQ ISZERO PUSH2 0xBB1 JUMPI DUP1 PUSH1 0x9 ADD PUSH1 0x0 DUP2 SLOAD DUP1 SWAP3 SWAP2 SWAP1 PUSH2 0xBAB SWAP1 PUSH2 0x1C8E JUMP JUMPDEST SWAP2 SWAP1 POP SSTORE POP JUMPDEST PUSH1 0x2 DUP11 PUSH1 0xFF AND EQ ISZERO PUSH2 0xBD8 JUMPI DUP1 PUSH1 0xA ADD PUSH1 0x0 DUP2 SLOAD DUP1 SWAP3 SWAP2 SWAP1 PUSH2 0xBD2 SWAP1 PUSH2 0x1C8E JUMP JUMPDEST SWAP2 SWAP1 POP SSTORE POP JUMPDEST DUP1 PUSH1 0x8 ADD PUSH1 0x0 DUP2 SLOAD DUP1 SWAP3 SWAP2 SWAP1 PUSH2 0xBED SWAP1 PUSH2 0x1C8E JUMP JUMPDEST SWAP2 SWAP1 POP SSTORE POP PUSH32 0x20211B974ADBE11CE3687D51504CE7EF1FCFBB9C00405BA7ACA7B283903F345A DUP15 DUP15 DUP15 CALLER DUP15 PUSH1 0x40 MLOAD PUSH2 0xC29 SWAP6 SWAP5 SWAP4 SWAP3 SWAP2 SWAP1 PUSH2 0x1A5B JUMP JUMPDEST PUSH1 0x40 MLOAD DUP1 SWAP2 SUB SWAP1 LOG1 DUP1 PUSH1 0x7 ADD SLOAD DUP2 PUSH1 0x8 ADD SLOAD EQ ISZERO PUSH2 0xCEF JUMPI DUP1 PUSH1 0x9 ADD SLOAD DUP2 PUSH1 0xA ADD SLOAD GT ISZERO PUSH2 0xC74 JUMPI PUSH1 0x2 DUP2 PUSH1 0xB ADD PUSH1 0x1 PUSH2 0x100 EXP DUP2 SLOAD DUP2 PUSH1 0xFF MUL NOT AND SWAP1 DUP4 PUSH1 0xFF AND MUL OR SWAP1 SSTORE POP PUSH2 0xC93 JUMP JUMPDEST PUSH1 0x1 DUP2 PUSH1 0xB ADD PUSH1 0x1 PUSH2 0x100 EXP DUP2 SLOAD DUP2 PUSH1 0xFF MUL NOT AND SWAP1 DUP4 PUSH1 0xFF AND MUL OR SWAP1 SSTORE POP JUMPDEST PUSH2 0xCA0 DUP15 DUP15 DUP15 PUSH1 0x2 PUSH2 0x1233 JUMP JUMPDEST PUSH32 0xE59FDBC65A5DD63C529717C2A71D04B136038F05301755DE242DD05990C02814 DUP15 DUP15 DUP15 DUP5 PUSH1 0xB ADD PUSH1 0x1 SWAP1 SLOAD SWAP1 PUSH2 0x100 EXP SWAP1 DIV PUSH1 0xFF AND PUSH1 0x40 MLOAD PUSH2 0xCE6 SWAP5 SWAP4 SWAP3 SWAP2 SWAP1 PUSH2 0x1AAE JUMP JUMPDEST PUSH1 0x40 MLOAD DUP1 SWAP2 SUB SWAP1 LOG1 JUMPDEST POP POP POP POP POP POP POP POP POP POP POP POP POP POP JUMP JUMPDEST PUSH1 0x0 DUP1 PUSH1 0x0 DUP6 DUP2 MSTORE PUSH1 0x20 ADD SWAP1 DUP2 MSTORE PUSH1 0x20 ADD PUSH1 0x0 KECCAK256 PUSH1 0x0 DUP5 DUP2 MSTORE PUSH1 0x20 ADD SWAP1 DUP2 MSTORE PUSH1 0x20 ADD PUSH1 0x0 KECCAK256 PUSH1 0x0 DUP4 DUP2 MSTORE PUSH1 0x20 ADD SWAP1 DUP2 MSTORE PUSH1 0x20 ADD PUSH1 0x0 KECCAK256 PUSH1 0x6 ADD PUSH1 0x14 SWAP1 SLOAD SWAP1 PUSH2 0x100 EXP SWAP1 DIV PUSH1 0xFF AND SWAP1 POP SWAP4 SWAP3 POP POP POP JUMP JUMPDEST DUP5 DUP5 DUP5 PUSH1 0x0 DUP1 PUSH1 0x3 DUP2 GT ISZERO PUSH2 0xD67 JUMPI PUSH2 0xD66 PUSH2 0x1D06 JUMP JUMPDEST JUMPDEST PUSH1 0x0 DUP1 DUP7 DUP2 MSTORE PUSH1 0x20 ADD SWAP1 DUP2 MSTORE PUSH1 0x20 ADD PUSH1 0x0 KECCAK256 PUSH1 0x0 DUP6 DUP2 MSTORE PUSH1 0x20 ADD SWAP1 DUP2 MSTORE PUSH1 0x20 ADD PUSH1 0x0 KECCAK256 PUSH1 0x0 DUP5 DUP2 MSTORE PUSH1 0x20 ADD SWAP1 DUP2 MSTORE PUSH1 0x20 ADD PUSH1 0x0 KECCAK256 PUSH1 0x6 ADD PUSH1 0x14 SWAP1 SLOAD SWAP1 PUSH2 0x100 EXP SWAP1 DIV PUSH1 0xFF AND PUSH1 0x3 DUP2 GT ISZERO PUSH2 0xDBE JUMPI PUSH2 0xDBD PUSH2 0x1D06 JUMP JUMPDEST JUMPDEST EQ PUSH2 0xDFE JUMPI PUSH1 0x40 MLOAD PUSH32 0x8C379A000000000000000000000000000000000000000000000000000000000 DUP2 MSTORE PUSH1 0x4 ADD PUSH2 0xDF5 SWAP1 PUSH2 0x18BF JUMP JUMPDEST PUSH1 0x40 MLOAD DUP1 SWAP2 SUB SWAP1 REVERT JUMPDEST DUP6 PUSH1 0x0 DUP2 MLOAD GT PUSH2 0xE43 JUMPI PUSH1 0x40 MLOAD PUSH32 0x8C379A000000000000000000000000000000000000000000000000000000000 DUP2 MSTORE PUSH1 0x4 ADD PUSH2 0xE3A SWAP1 PUSH2 0x197F JUMP JUMPDEST PUSH1 0x40 MLOAD DUP1 SWAP2 SUB SWAP1 REVERT JUMPDEST DUP6 PUSH1 0x0 DUP2 MLOAD GT PUSH2 0xE88 JUMPI PUSH1 0x40 MLOAD PUSH32 0x8C379A000000000000000000000000000000000000000000000000000000000 DUP2 MSTORE PUSH1 0x4 ADD PUSH2 0xE7F SWAP1 PUSH2 0x197F JUMP JUMPDEST PUSH1 0x40 MLOAD DUP1 SWAP2 SUB SWAP1 REVERT JUMPDEST DUP8 PUSH1 0x0 DUP1 DUP14 DUP2 MSTORE PUSH1 0x20 ADD SWAP1 DUP2 MSTORE PUSH1 0x20 ADD PUSH1 0x0 KECCAK256 PUSH1 0x0 DUP13 DUP2 MSTORE PUSH1 0x20 ADD SWAP1 DUP2 MSTORE PUSH1 0x20 ADD PUSH1 0x0 KECCAK256 PUSH1 0x0 DUP12 DUP2 MSTORE PUSH1 0x20 ADD SWAP1 DUP2 MSTORE PUSH1 0x20 ADD PUSH1 0x0 KECCAK256 PUSH1 0x3 ADD SWAP1 DUP1 MLOAD SWAP1 PUSH1 0x20 ADD SWAP1 PUSH2 0xED3 SWAP3 SWAP2 SWAP1 PUSH2 0x1298 JUMP JUMPDEST POP DUP7 PUSH1 0x0 DUP1 DUP14 DUP2 MSTORE PUSH1 0x20 ADD SWAP1 DUP2 MSTORE PUSH1 0x20 ADD PUSH1 0x0 KECCAK256 PUSH1 0x0 DUP13 DUP2 MSTORE PUSH1 0x20 ADD SWAP1 DUP2 MSTORE PUSH1 0x20 ADD PUSH1 0x0 KECCAK256 PUSH1 0x0 DUP12 DUP2 MSTORE PUSH1 0x20 ADD SWAP1 DUP2 MSTORE PUSH1 0x20 ADD PUSH1 0x0 KECCAK256 PUSH1 0x4 ADD SWAP1 DUP1 MLOAD SWAP1 PUSH1 0x20 ADD SWAP1 PUSH2 0xF1F SWAP3 SWAP2 SWAP1 PUSH2 0x1298 JUMP JUMPDEST POP POP POP POP POP POP POP POP POP POP POP POP JUMP JUMPDEST PUSH1 0x0 DUP1 PUSH1 0x0 DUP6 DUP2 MSTORE PUSH1 0x20 ADD SWAP1 DUP2 MSTORE PUSH1 0x20 ADD PUSH1 0x0 KECCAK256 PUSH1 0x0 DUP5 DUP2 MSTORE PUSH1 0x20 ADD SWAP1 DUP2 MSTORE PUSH1 0x20 ADD PUSH1 0x0 KECCAK256 PUSH1 0x0 DUP4 DUP2 MSTORE PUSH1 0x20 ADD SWAP1 DUP2 MSTORE PUSH1 0x20 ADD PUSH1 0x0 KECCAK256 PUSH1 0x9 ADD SLOAD SWAP1 POP SWAP4 SWAP3 POP POP POP JUMP JUMPDEST DUP5 PUSH1 0x0 DUP2 MLOAD GT PUSH2 0xFB5 JUMPI PUSH1 0x40 MLOAD PUSH32 0x8C379A000000000000000000000000000000000000000000000000000000000 DUP2 MSTORE PUSH1 0x4 ADD PUSH2 0xFAC SWAP1 PUSH2 0x197F JUMP JUMPDEST PUSH1 0x40 MLOAD DUP1 SWAP2 SUB SWAP1 REVERT JUMPDEST DUP5 PUSH1 0x0 DUP2 MLOAD GT PUSH2 0xFFA JUMPI PUSH1 0x40 MLOAD PUSH32 0x8C379A000000000000000000000000000000000000000000000000000000000 DUP2 MSTORE PUSH1 0x4 ADD PUSH2 0xFF1 SWAP1 PUSH2 0x197F JUMP JUMPDEST PUSH1 0x40 MLOAD DUP1 SWAP2 SUB SWAP1 REVERT JUMPDEST PUSH1 0x0 ISZERO ISZERO PUSH2 0x1009 DUP12 DUP12 DUP12 PUSH2 0x5B6 JUMP JUMPDEST ISZERO ISZERO EQ PUSH2 0x104B JUMPI PUSH1 0x40 MLOAD PUSH32 0x8C379A000000000000000000000000000000000000000000000000000000000 DUP2 MSTORE PUSH1 0x4 ADD PUSH2 0x1042 SWAP1 PUSH2 0x191F JUMP JUMPDEST PUSH1 0x40 MLOAD DUP1 SWAP2 SUB SWAP1 REVERT JUMPDEST PUSH1 0x0 DUP1 PUSH1 0x0 DUP13 DUP2 MSTORE PUSH1 0x20 ADD SWAP1 DUP2 MSTORE PUSH1 0x20 ADD PUSH1 0x0 KECCAK256 PUSH1 0x0 DUP12 DUP2 MSTORE PUSH1 0x20 ADD SWAP1 DUP2 MSTORE PUSH1 0x20 ADD PUSH1 0x0 KECCAK256 PUSH1 0x0 DUP11 DUP2 MSTORE PUSH1 0x20 ADD SWAP1 DUP2 MSTORE PUSH1 0x20 ADD PUSH1 0x0 KECCAK256 SWAP1 POP DUP11 DUP2 PUSH1 0x0 ADD DUP2 SWAP1 SSTORE POP DUP10 DUP2 PUSH1 0x1 ADD DUP2 SWAP1 SSTORE POP DUP9 DUP2 PUSH1 0x2 ADD DUP2 SWAP1 SSTORE POP DUP8 DUP2 PUSH1 0x3 ADD SWAP1 DUP1 MLOAD SWAP1 PUSH1 0x20 ADD SWAP1 PUSH2 0x10B6 SWAP3 SWAP2 SWAP1 PUSH2 0x1298 JUMP JUMPDEST POP DUP7 DUP2 PUSH1 0x4 ADD SWAP1 DUP1 MLOAD SWAP1 PUSH1 0x20 ADD SWAP1 PUSH2 0x10CF SWAP3 SWAP2 SWAP1 PUSH2 0x1298 JUMP JUMPDEST POP DUP6 DUP2 PUSH1 0x5 ADD PUSH1 0x0 PUSH2 0x100 EXP DUP2 SLOAD DUP2 PUSH20 0xFFFFFFFFFFFFFFFFFFFFFFFFFFFFFFFFFFFFFFFF MUL NOT AND SWAP1 DUP4 PUSH20 0xFFFFFFFFFFFFFFFFFFFFFFFFFFFFFFFFFFFFFFFF AND MUL OR SWAP1 SSTORE POP DUP5 DUP2 PUSH1 0x6 ADD PUSH1 0x0 PUSH2 0x100 EXP DUP2 SLOAD DUP2 PUSH20 0xFFFFFFFFFFFFFFFFFFFFFFFFFFFFFFFFFFFFFFFF MUL NOT AND SWAP1 DUP4 PUSH20 0xFFFFFFFFFFFFFFFFFFFFFFFFFFFFFFFFFFFFFFFF AND MUL OR SWAP1 SSTORE POP PUSH1 0x0 DUP2 PUSH1 0x6 ADD PUSH1 0x14 PUSH2 0x100 EXP DUP2 SLOAD DUP2 PUSH1 0xFF MUL NOT AND SWAP1 DUP4 PUSH1 0x3 DUP2 GT ISZERO PUSH2 0x117E JUMPI PUSH2 0x117D PUSH2 0x1D06 JUMP JUMPDEST JUMPDEST MUL OR SWAP1 SSTORE POP DUP4 DUP2 PUSH1 0x7 ADD DUP2 SWAP1 SSTORE POP PUSH1 0x0 DUP2 PUSH1 0x8 ADD DUP2 SWAP1 SSTORE POP PUSH1 0x0 DUP2 PUSH1 0x9 ADD DUP2 SWAP1 SSTORE POP PUSH1 0x0 DUP2 PUSH1 0xA ADD DUP2 SWAP1 SSTORE POP PUSH1 0x1 DUP2 PUSH1 0xB ADD PUSH1 0x0 PUSH2 0x100 EXP DUP2 SLOAD DUP2 PUSH1 0xFF MUL NOT AND SWAP1 DUP4 ISZERO ISZERO MUL OR SWAP1 SSTORE POP PUSH1 0x0 DUP2 PUSH1 0xB ADD PUSH1 0x1 PUSH2 0x100 EXP DUP2 SLOAD DUP2 PUSH1 0xFF MUL NOT AND SWAP1 DUP4 PUSH1 0xFF AND MUL OR SWAP1 SSTORE POP PUSH32 0xFA127411522A1139D16C2142DB999E127AEF2288BD98A0558006BB115666AB1B DUP12 DUP12 DUP12 DUP10 DUP10 DUP10 PUSH1 0x40 MLOAD PUSH2 0x121E SWAP7 SWAP6 SWAP5 SWAP4 SWAP3 SWAP2 SWAP1 PUSH2 0x19FA JUMP JUMPDEST PUSH1 0x40 MLOAD DUP1 SWAP2 SUB SWAP1 LOG1 POP POP POP POP POP POP POP POP POP POP POP JUMP JUMPDEST DUP1 PUSH1 0x0 DUP1 DUP7 DUP2 MSTORE PUSH1 0x20 ADD SWAP1 DUP2 MSTORE PUSH1 0x20 ADD PUSH1 0x0 KECCAK256 PUSH1 0x0 DUP6 DUP2 MSTORE PUSH1 0x20 ADD SWAP1 DUP2 MSTORE PUSH1 0x20 ADD PUSH1 0x0 KECCAK256 PUSH1 0x0 DUP5 DUP2 MSTORE PUSH1 0x20 ADD SWAP1 DUP2 MSTORE PUSH1 0x20 ADD PUSH1 0x0 KECCAK256 PUSH1 0x6 ADD PUSH1 0x14 PUSH2 0x100 EXP DUP2 SLOAD DUP2 PUSH1 0xFF MUL NOT AND SWAP1 DUP4 PUSH1 0x3 DUP2 GT ISZERO PUSH2 0x128D JUMPI PUSH2 0x128C PUSH2 0x1D06 JUMP JUMPDEST JUMPDEST MUL OR SWAP1 SSTORE POP POP POP POP POP JUMP JUMPDEST DUP3 DUP1 SLOAD PUSH2 0x12A4 SWAP1 PUSH2 0x1C2B JUMP JUMPDEST SWAP1 PUSH1 0x0 MSTORE PUSH1 0x20 PUSH1 0x0 KECCAK256 SWAP1 PUSH1 0x1F ADD PUSH1 0x20 SWAP1 DIV DUP2 ADD SWAP3 DUP3 PUSH2 0x12C6 JUMPI PUSH1 0x0 DUP6 SSTORE PUSH2 0x130D JUMP JUMPDEST DUP3 PUSH1 0x1F LT PUSH2 0x12DF JUMPI DUP1 MLOAD PUSH1 0xFF NOT AND DUP4 DUP1 ADD OR DUP6 SSTORE PUSH2 0x130D JUMP JUMPDEST DUP3 DUP1 ADD PUSH1 0x1 ADD DUP6 SSTORE DUP3 ISZERO PUSH2 0x130D JUMPI SWAP2 DUP3 ADD JUMPDEST DUP3 DUP2 GT ISZERO PUSH2 0x130C JUMPI DUP3 MLOAD DUP3 SSTORE SWAP2 PUSH1 0x20 ADD SWAP2 SWAP1 PUSH1 0x1 ADD SWAP1 PUSH2 0x12F1 JUMP JUMPDEST JUMPDEST POP SWAP1 POP PUSH2 0x131A SWAP2 SWAP1 PUSH2 0x131E JUMP JUMPDEST POP SWAP1 JUMP JUMPDEST JUMPDEST DUP1 DUP3 GT ISZERO PUSH2 0x1337 JUMPI PUSH1 0x0 DUP2 PUSH1 0x0 SWAP1 SSTORE POP PUSH1 0x1 ADD PUSH2 0x131F JUMP JUMPDEST POP SWAP1 JUMP JUMPDEST PUSH1 0x0 PUSH2 0x134E PUSH2 0x1349 DUP5 PUSH2 0x1B18 JUMP JUMPDEST PUSH2 0x1AF3 JUMP JUMPDEST SWAP1 POP DUP3 DUP2 MSTORE PUSH1 0x20 DUP2 ADD DUP5 DUP5 DUP5 ADD GT ISZERO PUSH2 0x136A JUMPI PUSH2 0x1369 PUSH2 0x1D98 JUMP JUMPDEST JUMPDEST PUSH2 0x1375 DUP5 DUP3 DUP6 PUSH2 0x1C1C JUMP JUMPDEST POP SWAP4 SWAP3 POP POP POP JUMP JUMPDEST PUSH1 0x0 DUP2 CALLDATALOAD SWAP1 POP PUSH2 0x138C DUP2 PUSH2 0x20E5 JUMP JUMPDEST SWAP3 SWAP2 POP POP JUMP JUMPDEST PUSH1 0x0 DUP2 CALLDATALOAD SWAP1 POP PUSH2 0x13A1 DUP2 PUSH2 0x20FC JUMP JUMPDEST SWAP3 SWAP2 POP POP JUMP JUMPDEST PUSH1 0x0 DUP3 PUSH1 0x1F DUP4 ADD SLT PUSH2 0x13BC JUMPI PUSH2 0x13BB PUSH2 0x1D93 JUMP JUMPDEST JUMPDEST DUP2 CALLDATALOAD PUSH2 0x13CC DUP5 DUP3 PUSH1 0x20 DUP7 ADD PUSH2 0x133B JUMP JUMPDEST SWAP2 POP POP SWAP3 SWAP2 POP POP JUMP JUMPDEST PUSH1 0x0 DUP2 CALLDATALOAD SWAP1 POP PUSH2 0x13E4 DUP2 PUSH2 0x2113 JUMP JUMPDEST SWAP3 SWAP2 POP POP JUMP JUMPDEST PUSH1 0x0 DUP2 CALLDATALOAD SWAP1 POP PUSH2 0x13F9 DUP2 PUSH2 0x212A JUMP JUMPDEST SWAP3 SWAP2 POP POP JUMP JUMPDEST PUSH1 0x0 DUP1 PUSH1 0x0 PUSH1 0x60 DUP5 DUP7 SUB SLT ISZERO PUSH2 0x1418 JUMPI PUSH2 0x1417 PUSH2 0x1DA2 JUMP JUMPDEST JUMPDEST PUSH1 0x0 PUSH2 0x1426 DUP7 DUP3 DUP8 ADD PUSH2 0x13D5 JUMP JUMPDEST SWAP4 POP POP PUSH1 0x20 PUSH2 0x1437 DUP7 DUP3 DUP8 ADD PUSH2 0x13D5 JUMP JUMPDEST SWAP3 POP POP PUSH1 0x40 PUSH2 0x1448 DUP7 DUP3 DUP8 ADD PUSH2 0x13D5 JUMP JUMPDEST SWAP2 POP POP SWAP3 POP SWAP3 POP SWAP3 JUMP JUMPDEST PUSH1 0x0 DUP1 PUSH1 0x0 DUP1 PUSH1 0x0 PUSH1 0xA0 DUP7 DUP9 SUB SLT ISZERO PUSH2 0x146E JUMPI PUSH2 0x146D PUSH2 0x1DA2 JUMP JUMPDEST JUMPDEST PUSH1 0x0 PUSH2 0x147C DUP9 DUP3 DUP10 ADD PUSH2 0x13D5 JUMP JUMPDEST SWAP6 POP POP PUSH1 0x20 PUSH2 0x148D DUP9 DUP3 DUP10 ADD PUSH2 0x13D5 JUMP JUMPDEST SWAP5 POP POP PUSH1 0x40 PUSH2 0x149E DUP9 DUP3 DUP10 ADD PUSH2 0x13D5 JUMP JUMPDEST SWAP4 POP POP PUSH1 0x60 PUSH2 0x14AF DUP9 DUP3 DUP10 ADD PUSH2 0x137D JUMP JUMPDEST SWAP3 POP POP PUSH1 0x80 PUSH2 0x14C0 DUP9 DUP3 DUP10 ADD PUSH2 0x13EA JUMP JUMPDEST SWAP2 POP POP SWAP3 SWAP6 POP SWAP3 SWAP6 SWAP1 SWAP4 POP JUMP JUMPDEST PUSH1 0x0 DUP1 PUSH1 0x0 DUP1 PUSH1 0x0 PUSH1 0xA0 DUP7 DUP9 SUB SLT ISZERO PUSH2 0x14E9 JUMPI PUSH2 0x14E8 PUSH2 0x1DA2 JUMP JUMPDEST JUMPDEST PUSH1 0x0 PUSH2 0x14F7 DUP9 DUP3 DUP10 ADD PUSH2 0x13D5 JUMP JUMPDEST SWAP6 POP POP PUSH1 0x20 PUSH2 0x1508 DUP9 DUP3 DUP10 ADD PUSH2 0x13D5 JUMP JUMPDEST SWAP5 POP POP PUSH1 0x40 PUSH2 0x1519 DUP9 DUP3 DUP10 ADD PUSH2 0x13D5 JUMP JUMPDEST SWAP4 POP POP PUSH1 0x60 DUP7 ADD CALLDATALOAD PUSH8 0xFFFFFFFFFFFFFFFF DUP2 GT ISZERO PUSH2 0x153A JUMPI PUSH2 0x1539 PUSH2 0x1D9D JUMP JUMPDEST JUMPDEST PUSH2 0x1546 DUP9 DUP3 DUP10 ADD PUSH2 0x13A7 JUMP JUMPDEST SWAP3 POP POP PUSH1 0x80 DUP7 ADD CALLDATALOAD PUSH8 0xFFFFFFFFFFFFFFFF DUP2 GT ISZERO PUSH2 0x1567 JUMPI PUSH2 0x1566 PUSH2 0x1D9D JUMP JUMPDEST JUMPDEST PUSH2 0x1573 DUP9 DUP3 DUP10 ADD PUSH2 0x13A7 JUMP JUMPDEST SWAP2 POP POP SWAP3 SWAP6 POP SWAP3 SWAP6 SWAP1 SWAP4 POP JUMP JUMPDEST PUSH1 0x0 DUP1 PUSH1 0x0 DUP1 PUSH1 0x0 DUP1 PUSH1 0x0 DUP1 PUSH2 0x100 DUP10 DUP12 SUB SLT ISZERO PUSH2 0x15A1 JUMPI PUSH2 0x15A0 PUSH2 0x1DA2 JUMP JUMPDEST JUMPDEST PUSH1 0x0 PUSH2 0x15AF DUP12 DUP3 DUP13 ADD PUSH2 0x13D5 JUMP JUMPDEST SWAP9 POP POP PUSH1 0x20 PUSH2 0x15C0 DUP12 DUP3 DUP13 ADD PUSH2 0x13D5 JUMP JUMPDEST SWAP8 POP POP PUSH1 0x40 PUSH2 0x15D1 DUP12 DUP3 DUP13 ADD PUSH2 0x13D5 JUMP JUMPDEST SWAP7 POP POP PUSH1 0x60 DUP10 ADD CALLDATALOAD PUSH8 0xFFFFFFFFFFFFFFFF DUP2 GT ISZERO PUSH2 0x15F2 JUMPI PUSH2 0x15F1 PUSH2 0x1D9D JUMP JUMPDEST JUMPDEST PUSH2 0x15FE DUP12 DUP3 DUP13 ADD PUSH2 0x13A7 JUMP JUMPDEST SWAP6 POP POP PUSH1 0x80 DUP10 ADD CALLDATALOAD PUSH8 0xFFFFFFFFFFFFFFFF DUP2 GT ISZERO PUSH2 0x161F JUMPI PUSH2 0x161E PUSH2 0x1D9D JUMP JUMPDEST JUMPDEST PUSH2 0x162B DUP12 DUP3 DUP13 ADD PUSH2 0x13A7 JUMP JUMPDEST SWAP5 POP POP PUSH1 0xA0 PUSH2 0x163C DUP12 DUP3 DUP13 ADD PUSH2 0x1392 JUMP JUMPDEST SWAP4 POP POP PUSH1 0xC0 PUSH2 0x164D DUP12 DUP3 DUP13 ADD PUSH2 0x1392 JUMP JUMPDEST SWAP3 POP POP PUSH1 0xE0 PUSH2 0x165E DUP12 DUP3 DUP13 ADD PUSH2 0x13D5 JUMP JUMPDEST SWAP2 POP POP SWAP3 SWAP6 SWAP9 POP SWAP3 SWAP6 SWAP9 SWAP1 SWAP4 SWAP7 POP JUMP JUMPDEST PUSH2 0x1677 DUP2 PUSH2 0x1BD4 JUMP JUMPDEST DUP3 MSTORE POP POP JUMP JUMPDEST PUSH2 0x1686 DUP2 PUSH2 0x1B5A JUMP JUMPDEST DUP3 MSTORE POP POP JUMP JUMPDEST PUSH2 0x1695 DUP2 PUSH2 0x1B7E JUMP JUMPDEST DUP3 MSTORE POP POP JUMP JUMPDEST PUSH2 0x16A4 DUP2 PUSH2 0x1BE6 JUMP JUMPDEST DUP3 MSTORE POP POP JUMP JUMPDEST PUSH1 0x0 PUSH2 0x16B7 PUSH1 0x57 DUP4 PUSH2 0x1B49 JUMP JUMPDEST SWAP2 POP PUSH2 0x16C2 DUP3 PUSH2 0x1DB8 JUMP JUMPDEST PUSH1 0x60 DUP3 ADD SWAP1 POP SWAP2 SWAP1 POP JUMP JUMPDEST PUSH1 0x0 PUSH2 0x16DA PUSH1 0x2D DUP4 PUSH2 0x1B49 JUMP JUMPDEST SWAP2 POP PUSH2 0x16E5 DUP3 PUSH2 0x1E2D JUMP JUMPDEST PUSH1 0x40 DUP3 ADD SWAP1 POP SWAP2 SWAP1 POP JUMP JUMPDEST PUSH1 0x0 PUSH2 0x16FD PUSH1 0x20 DUP4 PUSH2 0x1B49 JUMP JUMPDEST SWAP2 POP PUSH2 0x1708 DUP3 PUSH2 0x1E7C JUMP JUMPDEST PUSH1 0x20 DUP3 ADD SWAP1 POP SWAP2 SWAP1 POP JUMP JUMPDEST PUSH1 0x0 PUSH2 0x1720 PUSH1 0x1D DUP4 PUSH2 0x1B49 JUMP JUMPDEST SWAP2 POP PUSH2 0x172B DUP3 PUSH2 0x1EA5 JUMP JUMPDEST PUSH1 0x20 DUP3 ADD SWAP1 POP SWAP2 SWAP1 POP JUMP JUMPDEST PUSH1 0x0 PUSH2 0x1743 PUSH1 0x30 DUP4 PUSH2 0x1B49 JUMP JUMPDEST SWAP2 POP PUSH2 0x174E DUP3 PUSH2 0x1ECE JUMP JUMPDEST PUSH1 0x40 DUP3 ADD SWAP1 POP SWAP2 SWAP1 POP JUMP JUMPDEST PUSH1 0x0 PUSH2 0x1766 PUSH1 0x40 DUP4 PUSH2 0x1B49 JUMP JUMPDEST SWAP2 POP PUSH2 0x1771 DUP3 PUSH2 0x1F1D JUMP JUMPDEST PUSH1 0x40 DUP3 ADD SWAP1 POP SWAP2 SWAP1 POP JUMP JUMPDEST PUSH1 0x0 PUSH2 0x1789 PUSH1 0x3D DUP4 PUSH2 0x1B49 JUMP JUMPDEST SWAP2 POP PUSH2 0x1794 DUP3 PUSH2 0x1F6C JUMP JUMPDEST PUSH1 0x40 DUP3 ADD SWAP1 POP SWAP2 SWAP1 POP JUMP JUMPDEST PUSH1 0x0 PUSH2 0x17AC PUSH1 0x4A DUP4 PUSH2 0x1B49 JUMP JUMPDEST SWAP2 POP PUSH2 0x17B7 DUP3 PUSH2 0x1FBB JUMP JUMPDEST PUSH1 0x60 DUP3 ADD SWAP1 POP SWAP2 SWAP1 POP JUMP JUMPDEST PUSH1 0x0 PUSH2 0x17CF PUSH1 0x15 DUP4 PUSH2 0x1B49 JUMP JUMPDEST SWAP2 POP PUSH2 0x17DA DUP3 PUSH2 0x2030 JUMP JUMPDEST PUSH1 0x20 DUP3 ADD SWAP1 POP SWAP2 SWAP1 POP JUMP JUMPDEST PUSH1 0x0 PUSH2 0x17F2 PUSH1 0x39 DUP4 PUSH2 0x1B49 JUMP JUMPDEST SWAP2 POP PUSH2 0x17FD DUP3 PUSH2 0x2059 JUMP JUMPDEST PUSH1 0x40 DUP3 ADD SWAP1 POP SWAP2 SWAP1 POP JUMP JUMPDEST PUSH1 0x0 PUSH2 0x1815 PUSH1 0x20 DUP4 PUSH2 0x1B49 JUMP JUMPDEST SWAP2 POP PUSH2 0x1820 DUP3 PUSH2 0x20A8 JUMP JUMPDEST PUSH1 0x20 DUP3 ADD SWAP1 POP SWAP2 SWAP1 POP JUMP JUMPDEST PUSH2 0x1834 DUP2 PUSH2 0x1BBD JUMP JUMPDEST DUP3 MSTORE POP POP JUMP JUMPDEST PUSH2 0x1843 DUP2 PUSH2 0x1BC7 JUMP JUMPDEST DUP3 MSTORE POP POP JUMP JUMPDEST PUSH1 0x0 PUSH1 0x20 DUP3 ADD SWAP1 POP PUSH2 0x185E PUSH1 0x0 DUP4 ADD DUP5 PUSH2 0x168C JUMP JUMPDEST SWAP3 SWAP2 POP POP JUMP JUMPDEST PUSH1 0x0 PUSH1 0x20 DUP3 ADD SWAP1 POP PUSH2 0x1879 PUSH1 0x0 DUP4 ADD DUP5 PUSH2 0x169B JUMP JUMPDEST SWAP3 SWAP2 POP POP JUMP JUMPDEST PUSH1 0x0 PUSH1 0x20 DUP3 ADD SWAP1 POP DUP2 DUP2 SUB PUSH1 0x0 DUP4 ADD MSTORE PUSH2 0x1898 DUP2 PUSH2 0x16AA JUMP JUMPDEST SWAP1 POP SWAP2 SWAP1 POP JUMP JUMPDEST PUSH1 0x0 PUSH1 0x20 DUP3 ADD SWAP1 POP DUP2 DUP2 SUB PUSH1 0x0 DUP4 ADD MSTORE PUSH2 0x18B8 DUP2 PUSH2 0x16CD JUMP JUMPDEST SWAP1 POP SWAP2 SWAP1 POP JUMP JUMPDEST PUSH1 0x0 PUSH1 0x20 DUP3 ADD SWAP1 POP DUP2 DUP2 SUB PUSH1 0x0 DUP4 ADD MSTORE PUSH2 0x18D8 DUP2 PUSH2 0x16F0 JUMP JUMPDEST SWAP1 POP SWAP2 SWAP1 POP JUMP JUMPDEST PUSH1 0x0 PUSH1 0x20 DUP3 ADD SWAP1 POP DUP2 DUP2 SUB PUSH1 0x0 DUP4 ADD MSTORE PUSH2 0x18F8 DUP2 PUSH2 0x1713 JUMP JUMPDEST SWAP1 POP SWAP2 SWAP1 POP JUMP JUMPDEST PUSH1 0x0 PUSH1 0x20 DUP3 ADD SWAP1 POP DUP2 DUP2 SUB PUSH1 0x0 DUP4 ADD MSTORE PUSH2 0x1918 DUP2 PUSH2 0x1736 JUMP JUMPDEST SWAP1 POP SWAP2 SWAP1 POP JUMP JUMPDEST PUSH1 0x0 PUSH1 0x20 DUP3 ADD SWAP1 POP DUP2 DUP2 SUB PUSH1 0x0 DUP4 ADD MSTORE PUSH2 0x1938 DUP2 PUSH2 0x1759 JUMP JUMPDEST SWAP1 POP SWAP2 SWAP1 POP JUMP JUMPDEST PUSH1 0x0 PUSH1 0x20 DUP3 ADD SWAP1 POP DUP2 DUP2 SUB PUSH1 0x0 DUP4 ADD MSTORE PUSH2 0x1958 DUP2 PUSH2 0x177C JUMP JUMPDEST SWAP1 POP SWAP2 SWAP1 POP JUMP JUMPDEST PUSH1 0x0 PUSH1 0x20 DUP3 ADD SWAP1 POP DUP2 DUP2 SUB PUSH1 0x0 DUP4 ADD MSTORE PUSH2 0x1978 DUP2 PUSH2 0x179F JUMP JUMPDEST SWAP1 POP SWAP2 SWAP1 POP JUMP JUMPDEST PUSH1 0x0 PUSH1 0x20 DUP3 ADD SWAP1 POP DUP2 DUP2 SUB PUSH1 0x0 DUP4 ADD MSTORE PUSH2 0x1998 DUP2 PUSH2 0x17C2 JUMP JUMPDEST SWAP1 POP SWAP2 SWAP1 POP JUMP JUMPDEST PUSH1 0x0 PUSH1 0x20 DUP3 ADD SWAP1 POP DUP2 DUP2 SUB PUSH1 0x0 DUP4 ADD MSTORE PUSH2 0x19B8 DUP2 PUSH2 0x17E5 JUMP JUMPDEST SWAP1 POP SWAP2 SWAP1 POP JUMP JUMPDEST PUSH1 0x0 PUSH1 0x20 DUP3 ADD SWAP1 POP DUP2 DUP2 SUB PUSH1 0x0 DUP4 ADD MSTORE PUSH2 0x19D8 DUP2 PUSH2 0x1808 JUMP JUMPDEST SWAP1 POP SWAP2 SWAP1 POP JUMP JUMPDEST PUSH1 0x0 PUSH1 0x20 DUP3 ADD SWAP1 POP PUSH2 0x19F4 PUSH1 0x0 DUP4 ADD DUP5 PUSH2 0x182B JUMP JUMPDEST SWAP3 SWAP2 POP POP JUMP JUMPDEST PUSH1 0x0 PUSH1 0xC0 DUP3 ADD SWAP1 POP PUSH2 0x1A0F PUSH1 0x0 DUP4 ADD DUP10 PUSH2 0x182B JUMP JUMPDEST PUSH2 0x1A1C PUSH1 0x20 DUP4 ADD DUP9 PUSH2 0x182B JUMP JUMPDEST PUSH2 0x1A29 PUSH1 0x40 DUP4 ADD DUP8 PUSH2 0x182B JUMP JUMPDEST PUSH2 0x1A36 PUSH1 0x60 DUP4 ADD DUP7 PUSH2 0x166E JUMP JUMPDEST PUSH2 0x1A43 PUSH1 0x80 DUP4 ADD DUP6 PUSH2 0x166E JUMP JUMPDEST PUSH2 0x1A50 PUSH1 0xA0 DUP4 ADD DUP5 PUSH2 0x182B JUMP JUMPDEST SWAP8 SWAP7 POP POP POP POP POP POP POP JUMP JUMPDEST PUSH1 0x0 PUSH1 0xA0 DUP3 ADD SWAP1 POP PUSH2 0x1A70 PUSH1 0x0 DUP4 ADD DUP9 PUSH2 0x182B JUMP JUMPDEST PUSH2 0x1A7D PUSH1 0x20 DUP4 ADD DUP8 PUSH2 0x182B JUMP JUMPDEST PUSH2 0x1A8A PUSH1 0x40 DUP4 ADD DUP7 PUSH2 0x182B JUMP JUMPDEST PUSH2 0x1A97 PUSH1 0x60 DUP4 ADD DUP6 PUSH2 0x167D JUMP JUMPDEST PUSH2 0x1AA4 PUSH1 0x80 DUP4 ADD DUP5 PUSH2 0x183A JUMP JUMPDEST SWAP7 SWAP6 POP POP POP POP POP POP JUMP JUMPDEST PUSH1 0x0 PUSH1 0x80 DUP3 ADD SWAP1 POP PUSH2 0x1AC3 PUSH1 0x0 DUP4 ADD DUP8 PUSH2 0x182B JUMP JUMPDEST PUSH2 0x1AD0 PUSH1 0x20 DUP4 ADD DUP7 PUSH2 0x182B JUMP JUMPDEST PUSH2 0x1ADD PUSH1 0x40 DUP4 ADD DUP6 PUSH2 0x182B JUMP JUMPDEST PUSH2 0x1AEA PUSH1 0x60 DUP4 ADD DUP5 PUSH2 0x183A JUMP JUMPDEST SWAP6 SWAP5 POP POP POP POP POP JUMP JUMPDEST PUSH1 0x0 PUSH2 0x1AFD PUSH2 0x1B0E JUMP JUMPDEST SWAP1 POP PUSH2 0x1B09 DUP3 DUP3 PUSH2 0x1C5D JUMP JUMPDEST SWAP2 SWAP1 POP JUMP JUMPDEST PUSH1 0x0 PUSH1 0x40 MLOAD SWAP1 POP SWAP1 JUMP JUMPDEST PUSH1 0x0 PUSH8 0xFFFFFFFFFFFFFFFF DUP3 GT ISZERO PUSH2 0x1B33 JUMPI PUSH2 0x1B32 PUSH2 0x1D64 JUMP JUMPDEST JUMPDEST PUSH2 0x1B3C DUP3 PUSH2 0x1DA7 JUMP JUMPDEST SWAP1 POP PUSH1 0x20 DUP2 ADD SWAP1 POP SWAP2 SWAP1 POP JUMP JUMPDEST PUSH1 0x0 DUP3 DUP3 MSTORE PUSH1 0x20 DUP3 ADD SWAP1 POP SWAP3 SWAP2 POP POP JUMP JUMPDEST PUSH1 0x0 PUSH2 0x1B65 DUP3 PUSH2 0x1B9D JUMP JUMPDEST SWAP1 POP SWAP2 SWAP1 POP JUMP JUMPDEST PUSH1 0x0 PUSH2 0x1B77 DUP3 PUSH2 0x1B9D JUMP JUMPDEST SWAP1 POP SWAP2 SWAP1 POP JUMP JUMPDEST PUSH1 0x0 DUP2 ISZERO ISZERO SWAP1 POP SWAP2 SWAP1 POP JUMP JUMPDEST PUSH1 0x0 DUP2 SWAP1 POP PUSH2 0x1B98 DUP3 PUSH2 0x20D1 JUMP JUMPDEST SWAP2 SWAP1 POP JUMP JUMPDEST PUSH1 0x0 PUSH20 0xFFFFFFFFFFFFFFFFFFFFFFFFFFFFFFFFFFFFFFFF DUP3 AND SWAP1 POP SWAP2 SWAP1 POP JUMP JUMPDEST PUSH1 0x0 DUP2 SWAP1 POP SWAP2 SWAP1 POP JUMP JUMPDEST PUSH1 0x0 PUSH1 0xFF DUP3 AND SWAP1 POP SWAP2 SWAP1 POP JUMP JUMPDEST PUSH1 0x0 PUSH2 0x1BDF DUP3 PUSH2 0x1BF8 JUMP JUMPDEST SWAP1 POP SWAP2 SWAP1 POP JUMP JUMPDEST PUSH1 0x0 PUSH2 0x1BF1 DUP3 PUSH2 0x1B8A JUMP JUMPDEST SWAP1 POP SWAP2 SWAP1 POP JUMP JUMPDEST PUSH1 0x0 PUSH2 0x1C03 DUP3 PUSH2 0x1C0A JUMP JUMPDEST SWAP1 POP SWAP2 SWAP1 POP JUMP JUMPDEST PUSH1 0x0 PUSH2 0x1C15 DUP3 PUSH2 0x1B9D JUMP JUMPDEST SWAP1 POP SWAP2 SWAP1 POP JUMP JUMPDEST DUP3 DUP2 DUP4 CALLDATACOPY PUSH1 0x0 DUP4 DUP4 ADD MSTORE POP POP POP JUMP JUMPDEST PUSH1 0x0 PUSH1 0x2 DUP3 DIV SWAP1 POP PUSH1 0x1 DUP3 AND DUP1 PUSH2 0x1C43 JUMPI PUSH1 0x7F DUP3 AND SWAP2 POP JUMPDEST PUSH1 0x20 DUP3 LT DUP2 EQ ISZERO PUSH2 0x1C57 JUMPI PUSH2 0x1C56 PUSH2 0x1D35 JUMP JUMPDEST JUMPDEST POP SWAP2 SWAP1 POP JUMP JUMPDEST PUSH2 0x1C66 DUP3 PUSH2 0x1DA7 JUMP JUMPDEST DUP2 ADD DUP2 DUP2 LT PUSH8 0xFFFFFFFFFFFFFFFF DUP3 GT OR ISZERO PUSH2 0x1C85 JUMPI PUSH2 0x1C84 PUSH2 0x1D64 JUMP JUMPDEST JUMPDEST DUP1 PUSH1 0x40 MSTORE POP POP POP JUMP JUMPDEST PUSH1 0x0 PUSH2 0x1C99 DUP3 PUSH2 0x1BBD JUMP JUMPDEST SWAP2 POP PUSH32 0xFFFFFFFFFFFFFFFFFFFFFFFFFFFFFFFFFFFFFFFFFFFFFFFFFFFFFFFFFFFFFFFF DUP3 EQ ISZERO PUSH2 0x1CCC JUMPI PUSH2 0x1CCB PUSH2 0x1CD7 JUMP JUMPDEST JUMPDEST PUSH1 0x1 DUP3 ADD SWAP1 POP SWAP2 SWAP1 POP JUMP JUMPDEST PUSH32 0x4E487B7100000000000000000000000000000000000000000000000000000000 PUSH1 0x0 MSTORE PUSH1 0x11 PUSH1 0x4 MSTORE PUSH1 0x24 PUSH1 0x0 REVERT JUMPDEST PUSH32 0x4E487B7100000000000000000000000000000000000000000000000000000000 PUSH1 0x0 MSTORE PUSH1 0x21 PUSH1 0x4 MSTORE PUSH1 0x24 PUSH1 0x0 REVERT JUMPDEST PUSH32 0x4E487B7100000000000000000000000000000000000000000000000000000000 PUSH1 0x0 MSTORE PUSH1 0x22 PUSH1 0x4 MSTORE PUSH1 0x24 PUSH1 0x0 REVERT JUMPDEST PUSH32 0x4E487B7100000000000000000000000000000000000000000000000000000000 PUSH1 0x0 MSTORE PUSH1 0x41 PUSH1 0x4 MSTORE PUSH1 0x24 PUSH1 0x0 REVERT JUMPDEST PUSH1 0x0 DUP1 REVERT JUMPDEST PUSH1 0x0 DUP1 REVERT JUMPDEST PUSH1 0x0 DUP1 REVERT JUMPDEST PUSH1 0x0 DUP1 REVERT JUMPDEST PUSH1 0x0 PUSH1 0x1F NOT PUSH1 0x1F DUP4 ADD AND SWAP1 POP SWAP2 SWAP1 POP JUMP JUMPDEST PUSH32 0x596F752068617665206E6F7420696E707574206120726967687420766F74652E PUSH1 0x0 DUP3 ADD MSTORE PUSH32 0x20596F752063616E2065697468657220766F7465203120666F72205265717565 PUSH1 0x20 DUP3 ADD MSTORE PUSH32 0x73746572206F72203220666F722050726F76696465722E000000000000000000 PUSH1 0x40 DUP3 ADD MSTORE POP JUMP JUMPDEST PUSH32 0x596F75206861766520616C726561647920766F7465642C20796F752063616E6E PUSH1 0x0 DUP3 ADD MSTORE PUSH32 0x6F7420766F746520616761696E00000000000000000000000000000000000000 PUSH1 0x20 DUP3 ADD MSTORE POP JUMP JUMPDEST PUSH32 0x43616E6E6F74206361727279206F75742074686973206F7065726174696F6E21 PUSH1 0x0 DUP3 ADD MSTORE POP JUMP JUMPDEST PUSH32 0x5468697320436F6E666C69637420646F6573206E6F742065786973742E000000 PUSH1 0x0 DUP3 ADD MSTORE POP JUMP JUMPDEST PUSH32 0x596F7520726169736564207468697320636F6E666C6963742E20596F75206361 PUSH1 0x0 DUP3 ADD MSTORE PUSH32 0x6E6E6F7420766F7465206F6E2069742E00000000000000000000000000000000 PUSH1 0x20 DUP3 ADD MSTORE POP JUMP JUMPDEST PUSH32 0x436F6E666C6963742068617320616C7265616479206265656E20637265617465 PUSH1 0x0 DUP3 ADD MSTORE PUSH32 0x6420666F72207468697320706172746963756C6172204D696C6573746F6E652E PUSH1 0x20 DUP3 ADD MSTORE POP JUMP JUMPDEST PUSH32 0x566F74696E6720686173206E6F74206265656E20636F6D706C65746564207965 PUSH1 0x0 DUP3 ADD MSTORE PUSH32 0x742E20506C65617365207761697420666F7220697420746F20656E642E000000 PUSH1 0x20 DUP3 ADD MSTORE POP JUMP JUMPDEST PUSH32 0x4E6F742065766572796F6E652068617320766F7465642C20706C656173652070 PUSH1 0x0 DUP3 ADD MSTORE PUSH32 0x726F6D707420616C6C206F74686572206D656D62657273206F662070726F6A65 PUSH1 0x20 DUP3 ADD MSTORE PUSH32 0x637420746F20766F746500000000000000000000000000000000000000000000 PUSH1 0x40 DUP3 ADD MSTORE POP JUMP JUMPDEST PUSH32 0x4120737472696E67206973207265717569726564210000000000000000000000 PUSH1 0x0 DUP3 ADD MSTORE POP JUMP JUMPDEST PUSH32 0x596F752061726520696E766F6C76656420696E207468697320636F6E666C6963 PUSH1 0x0 DUP3 ADD MSTORE PUSH32 0x742E20596F752063616E6E6F7420766F7465206F6E2069742E00000000000000 PUSH1 0x20 DUP3 ADD MSTORE POP JUMP JUMPDEST PUSH32 0x456E6F75676820766F7465732068617665206265656E20636F6C6C6563746564 PUSH1 0x0 DUP3 ADD MSTORE POP JUMP JUMPDEST PUSH1 0x4 DUP2 LT PUSH2 0x20E2 JUMPI PUSH2 0x20E1 PUSH2 0x1D06 JUMP JUMPDEST JUMPDEST POP JUMP JUMPDEST PUSH2 0x20EE DUP2 PUSH2 0x1B5A JUMP JUMPDEST DUP2 EQ PUSH2 0x20F9 JUMPI PUSH1 0x0 DUP1 REVERT JUMPDEST POP JUMP JUMPDEST PUSH2 0x2105 DUP2 PUSH2 0x1B6C JUMP JUMPDEST DUP2 EQ PUSH2 0x2110 JUMPI PUSH1 0x0 DUP1 REVERT JUMPDEST POP JUMP JUMPDEST PUSH2 0x211C DUP2 PUSH2 0x1BBD JUMP JUMPDEST DUP2 EQ PUSH2 0x2127 JUMPI PUSH1 0x0 DUP1 REVERT JUMPDEST POP JUMP JUMPDEST PUSH2 0x2133 DUP2 PUSH2 0x1BC7 JUMP JUMPDEST DUP2 EQ PUSH2 0x213E JUMPI PUSH1 0x0 DUP1 REVERT JUMPDEST POP JUMP INVALID LOG2 PUSH5 0x6970667358 0x22 SLT KECCAK256 CALL CALLDATALOAD 0xD4 CODESIZE DUP13 0x1F CALL EXP DUP2 TIMESTAMP NOT DIFFICULTY 0xEF CALLER 0x26 0x49 0xF7 0xCE 0xE5 CALLVALUE SELFDESTRUCT 0xC0 GAS GT 0x1F 0xC2 0xDF 0x2C DUP9 EXP RETURNDATASIZE CODECOPY PUSH5 0x736F6C6343 STOP ADDMOD SMOD STOP CALLER "
				},
				"gasEstimates": {
					"creation": {
						"codeDepositCost": "1713400",
						"executionCost": "1799",
						"totalCost": "1715199"
					},
					"external": {
						"createConflict(uint256,uint256,uint256,string,string,address,address,uint256)": "infinite",
						"deleteConflict(uint256,uint256,uint256)": "infinite",
						"doesConflictExist(uint256,uint256,uint256)": "infinite",
						"getConflictStatus(uint256,uint256,uint256)": "infinite",
						"getResults(uint256,uint256,uint256)": "infinite",
						"getVotesCollected(uint256,uint256,uint256)": "infinite",
						"getVotesforProvider(uint256,uint256,uint256)": "infinite",
						"getVotesforRequester(uint256,uint256,uint256)": "infinite",
						"startVote(uint256,uint256,uint256)": "infinite",
						"updateConflict(uint256,uint256,uint256,string,string)": "infinite",
						"voteConflict(uint256,uint256,uint256,address,uint8)": "infinite"
					},
					"internal": {
						"setState(uint256,uint256,uint256,enum States.ConflictStatus)": "24600"
					}
				},
				"methodIdentifiers": {
					"createConflict(uint256,uint256,uint256,string,string,address,address,uint256)": "e62fac27",
					"deleteConflict(uint256,uint256,uint256)": "003f489f",
					"doesConflictExist(uint256,uint256,uint256)": "79712b01",
					"getConflictStatus(uint256,uint256,uint256)": "cb4389ce",
					"getResults(uint256,uint256,uint256)": "0366cef2",
					"getVotesCollected(uint256,uint256,uint256)": "3c45fe31",
					"getVotesforProvider(uint256,uint256,uint256)": "9ac78879",
					"getVotesforRequester(uint256,uint256,uint256)": "e3d87718",
					"startVote(uint256,uint256,uint256)": "9c87a5e9",
					"updateConflict(uint256,uint256,uint256,string,string)": "d1e992a7",
					"voteConflict(uint256,uint256,uint256,address,uint8)": "c171bdf7"
				}
			},
			"userdoc": {
				"kind": "user",
				"methods": {},
				"version": 1
			}
		}
	}
}