{
	"contracts/Profile.sol": {
		"Profile": {
			"abi": [
				{
					"anonymous": false,
					"inputs": [
						{
							"indexed": false,
							"internalType": "string",
							"name": "name",
							"type": "string"
						}
					],
					"name": "profileCreated",
					"type": "event"
				},
				{
					"anonymous": false,
					"inputs": [
						{
							"indexed": false,
							"internalType": "bool",
							"name": "successful",
							"type": "bool"
						}
					],
					"name": "serviceCreated",
					"type": "event"
				},
				{
					"inputs": [],
					"name": "checkValidProfile",
					"outputs": [
						{
							"internalType": "bool",
							"name": "",
							"type": "bool"
						}
					],
					"stateMutability": "view",
					"type": "function"
				},
				{
					"inputs": [
						{
							"internalType": "string",
							"name": "name",
							"type": "string"
						},
						{
							"internalType": "string",
							"name": "username",
							"type": "string"
						},
						{
							"internalType": "string",
							"name": "password",
							"type": "string"
						},
						{
							"internalType": "address",
							"name": "user",
							"type": "address"
						}
					],
					"name": "createProfile",
					"outputs": [],
					"stateMutability": "nonpayable",
					"type": "function"
				},
				{
					"inputs": [
						{
							"internalType": "address",
							"name": "user",
							"type": "address"
						}
					],
					"name": "deleteProfile",
					"outputs": [],
					"stateMutability": "nonpayable",
					"type": "function"
				},
				{
					"inputs": [],
					"name": "getName",
					"outputs": [
						{
							"internalType": "string",
							"name": "",
							"type": "string"
						}
					],
					"stateMutability": "view",
					"type": "function"
				},
				{
					"inputs": [],
					"name": "numProfile",
					"outputs": [
						{
							"internalType": "uint256",
							"name": "",
							"type": "uint256"
						}
					],
					"stateMutability": "view",
					"type": "function"
				},
				{
					"inputs": [
						{
							"internalType": "string",
							"name": "newName",
							"type": "string"
						}
					],
					"name": "updateProfileName",
					"outputs": [],
					"stateMutability": "nonpayable",
					"type": "function"
				}
			],
			"devdoc": {
				"kind": "dev",
				"methods": {},
				"version": 1
			},
			"evm": {
				"assembly": "    /* \"contracts/Profile.sol\":124:2230  contract Profile {... */\n  mstore(0x40, 0x80)\n    /* \"contracts/Profile.sol\":890:891  0 */\n  0x00\n    /* \"contracts/Profile.sol\":862:891  uint256 public numProfile = 0 */\n  0x03\n  sstore\n    /* \"contracts/Profile.sol\":124:2230  contract Profile {... */\n  callvalue\n  dup1\n  iszero\n  tag_1\n  jumpi\n  0x00\n  dup1\n  revert\ntag_1:\n  pop\n  dataSize(sub_0)\n  dup1\n  dataOffset(sub_0)\n  0x00\n  codecopy\n  0x00\n  return\nstop\n\nsub_0: assembly {\n        /* \"contracts/Profile.sol\":124:2230  contract Profile {... */\n      mstore(0x40, 0x80)\n      callvalue\n      dup1\n      iszero\n      tag_1\n      jumpi\n      0x00\n      dup1\n      revert\n    tag_1:\n      pop\n      jumpi(tag_2, lt(calldatasize, 0x04))\n      shr(0xe0, calldataload(0x00))\n      dup1\n      0x16913469\n      eq\n      tag_3\n      jumpi\n      dup1\n      0x17d7de7c\n      eq\n      tag_4\n      jumpi\n      dup1\n      0x22a9d1bc\n      eq\n      tag_5\n      jumpi\n      dup1\n      0x3ae7dc1a\n      eq\n      tag_6\n      jumpi\n      dup1\n      0xa0441f29\n      eq\n      tag_7\n      jumpi\n      dup1\n      0xee8b7cd9\n      eq\n      tag_8\n      jumpi\n    tag_2:\n      0x00\n      dup1\n      revert\n        /* \"contracts/Profile.sol\":862:891  uint256 public numProfile = 0 */\n    tag_3:\n      tag_9\n      tag_10\n      jump\t// in\n    tag_9:\n      mload(0x40)\n      tag_11\n      swap2\n      swap1\n      tag_12\n      jump\t// in\n    tag_11:\n      mload(0x40)\n      dup1\n      swap2\n      sub\n      swap1\n      return\n        /* \"contracts/Profile.sol\":1917:2042  function getName() external validProfile() view returns ( string memory) {... */\n    tag_4:\n      tag_13\n      tag_14\n      jump\t// in\n    tag_13:\n      mload(0x40)\n      tag_15\n      swap2\n      swap1\n      tag_16\n      jump\t// in\n    tag_15:\n      mload(0x40)\n      dup1\n      swap2\n      sub\n      swap1\n      return\n        /* \"contracts/Profile.sol\":989:1392  function createProfile(string memory name, string memory username, string memory password, address user)  external {... */\n    tag_5:\n      tag_17\n      0x04\n      dup1\n      calldatasize\n      sub\n      dup2\n      add\n      swap1\n      tag_18\n      swap2\n      swap1\n      tag_19\n      jump\t// in\n    tag_18:\n      tag_20\n      jump\t// in\n    tag_17:\n      stop\n        /* \"contracts/Profile.sol\":2101:2227  function checkValidProfile() public view returns (bool) {... */\n    tag_6:\n      tag_21\n      tag_22\n      jump\t// in\n    tag_21:\n      mload(0x40)\n      tag_23\n      swap2\n      swap1\n      tag_24\n      jump\t// in\n    tag_23:\n      mload(0x40)\n      dup1\n      swap2\n      sub\n      swap1\n      return\n        /* \"contracts/Profile.sol\":1439:1588  function deleteProfile(address user) external {... */\n    tag_7:\n      tag_25\n      0x04\n      dup1\n      calldatasize\n      sub\n      dup2\n      add\n      swap1\n      tag_26\n      swap2\n      swap1\n      tag_27\n      jump\t// in\n    tag_26:\n      tag_28\n      jump\t// in\n    tag_25:\n      stop\n        /* \"contracts/Profile.sol\":1635:1750  function updateProfileName(string memory newName) external {... */\n    tag_8:\n      tag_29\n      0x04\n      dup1\n      calldatasize\n      sub\n      dup2\n      add\n      swap1\n      tag_30\n      swap2\n      swap1\n      tag_31\n      jump\t// in\n    tag_30:\n      tag_32\n      jump\t// in\n    tag_29:\n      stop\n        /* \"contracts/Profile.sol\":862:891  uint256 public numProfile = 0 */\n    tag_10:\n      sload(0x03)\n      dup2\n      jump\t// out\n        /* \"contracts/Profile.sol\":1917:2042  function getName() external validProfile() view returns ( string memory) {... */\n    tag_14:\n        /* \"contracts/Profile.sol\":1975:1988  string memory */\n      0x60\n        /* \"contracts/Profile.sol\":1831:1835  true */\n      0x01\n        /* \"contracts/Profile.sol\":1796:1835  profileList[msg.sender].created == true */\n      iszero\n      iszero\n        /* \"contracts/Profile.sol\":1796:1807  profileList */\n      0x00\n        /* \"contracts/Profile.sol\":1796:1819  profileList[msg.sender] */\n      dup1\n        /* \"contracts/Profile.sol\":1808:1818  msg.sender */\n      caller\n        /* \"contracts/Profile.sol\":1796:1819  profileList[msg.sender] */\n      0xffffffffffffffffffffffffffffffffffffffff\n      and\n      0xffffffffffffffffffffffffffffffffffffffff\n      and\n      dup2\n      mstore\n      0x20\n      add\n      swap1\n      dup2\n      mstore\n      0x20\n      add\n      0x00\n      keccak256\n        /* \"contracts/Profile.sol\":1796:1827  profileList[msg.sender].created */\n      0x03\n      add\n      0x14\n      swap1\n      sload\n      swap1\n      0x0100\n      exp\n      swap1\n      div\n      0xff\n      and\n        /* \"contracts/Profile.sol\":1796:1835  profileList[msg.sender].created == true */\n      iszero\n      iszero\n      eq\n        /* \"contracts/Profile.sol\":1788:1836  require(profileList[msg.sender].created == true) */\n      tag_34\n      jumpi\n      0x00\n      dup1\n      revert\n    tag_34:\n        /* \"contracts/Profile.sol\":2007:2018  profileList */\n      0x00\n        /* \"contracts/Profile.sol\":2007:2030  profileList[msg.sender] */\n      dup1\n        /* \"contracts/Profile.sol\":2019:2029  msg.sender */\n      caller\n        /* \"contracts/Profile.sol\":2007:2030  profileList[msg.sender] */\n      0xffffffffffffffffffffffffffffffffffffffff\n      and\n      0xffffffffffffffffffffffffffffffffffffffff\n      and\n      dup2\n      mstore\n      0x20\n      add\n      swap1\n      dup2\n      mstore\n      0x20\n      add\n      0x00\n      keccak256\n        /* \"contracts/Profile.sol\":2007:2035  profileList[msg.sender].name */\n      0x00\n      add\n        /* \"contracts/Profile.sol\":2000:2035  return profileList[msg.sender].name */\n      dup1\n      sload\n      tag_36\n      swap1\n      tag_37\n      jump\t// in\n    tag_36:\n      dup1\n      0x1f\n      add\n      0x20\n      dup1\n      swap2\n      div\n      mul\n      0x20\n      add\n      mload(0x40)\n      swap1\n      dup2\n      add\n      0x40\n      mstore\n      dup1\n      swap3\n      swap2\n      swap1\n      dup2\n      dup2\n      mstore\n      0x20\n      add\n      dup3\n      dup1\n      sload\n      tag_38\n      swap1\n      tag_37\n      jump\t// in\n    tag_38:\n      dup1\n      iszero\n      tag_39\n      jumpi\n      dup1\n      0x1f\n      lt\n      tag_40\n      jumpi\n      0x0100\n      dup1\n      dup4\n      sload\n      div\n      mul\n      dup4\n      mstore\n      swap2\n      0x20\n      add\n      swap2\n      jump(tag_39)\n    tag_40:\n      dup3\n      add\n      swap2\n      swap1\n      0x00\n      mstore\n      keccak256(0x00, 0x20)\n      swap1\n    tag_41:\n      dup2\n      sload\n      dup2\n      mstore\n      swap1\n      0x01\n      add\n      swap1\n      0x20\n      add\n      dup1\n      dup4\n      gt\n      tag_41\n      jumpi\n      dup3\n      swap1\n      sub\n      0x1f\n      and\n      dup3\n      add\n      swap2\n    tag_39:\n      pop\n      pop\n      pop\n      pop\n      pop\n      swap1\n      pop\n        /* \"contracts/Profile.sol\":1917:2042  function getName() external validProfile() view returns ( string memory) {... */\n      swap1\n      jump\t// out\n        /* \"contracts/Profile.sol\":989:1392  function createProfile(string memory name, string memory username, string memory password, address user)  external {... */\n    tag_20:\n        /* \"contracts/Profile.sol\":1151:1156  false */\n      0x00\n        /* \"contracts/Profile.sol\":1122:1156  profileList[user].created == false */\n      iszero\n      iszero\n        /* \"contracts/Profile.sol\":1122:1133  profileList */\n      0x00\n        /* \"contracts/Profile.sol\":1122:1139  profileList[user] */\n      dup1\n        /* \"contracts/Profile.sol\":1134:1138  user */\n      dup4\n        /* \"contracts/Profile.sol\":1122:1139  profileList[user] */\n      0xffffffffffffffffffffffffffffffffffffffff\n      and\n      0xffffffffffffffffffffffffffffffffffffffff\n      and\n      dup2\n      mstore\n      0x20\n      add\n      swap1\n      dup2\n      mstore\n      0x20\n      add\n      0x00\n      keccak256\n        /* \"contracts/Profile.sol\":1122:1147  profileList[user].created */\n      0x03\n      add\n      0x14\n      swap1\n      sload\n      swap1\n      0x0100\n      exp\n      swap1\n      div\n      0xff\n      and\n        /* \"contracts/Profile.sol\":1122:1156  profileList[user].created == false */\n      iszero\n      iszero\n      eq\n        /* \"contracts/Profile.sol\":1114:1194  require(profileList[user].created == false, \"Cannot create more than 1 profile\") */\n      tag_43\n      jumpi\n      mload(0x40)\n      0x08c379a000000000000000000000000000000000000000000000000000000000\n      dup2\n      mstore\n      0x04\n      add\n      tag_44\n      swap1\n      tag_45\n      jump\t// in\n    tag_44:\n      mload(0x40)\n      dup1\n      swap2\n      sub\n      swap1\n      revert\n    tag_43:\n        /* \"contracts/Profile.sol\":1204:1229  profile memory newProfile */\n      0x00\n        /* \"contracts/Profile.sol\":1232:1273  profile(name,username,password,user,true) */\n      mload(0x40)\n      dup1\n      0xa0\n      add\n      0x40\n      mstore\n      dup1\n        /* \"contracts/Profile.sol\":1240:1244  name */\n      dup7\n        /* \"contracts/Profile.sol\":1232:1273  profile(name,username,password,user,true) */\n      dup2\n      mstore\n      0x20\n      add\n        /* \"contracts/Profile.sol\":1245:1253  username */\n      dup6\n        /* \"contracts/Profile.sol\":1232:1273  profile(name,username,password,user,true) */\n      dup2\n      mstore\n      0x20\n      add\n        /* \"contracts/Profile.sol\":1254:1262  password */\n      dup5\n        /* \"contracts/Profile.sol\":1232:1273  profile(name,username,password,user,true) */\n      dup2\n      mstore\n      0x20\n      add\n        /* \"contracts/Profile.sol\":1263:1267  user */\n      dup4\n        /* \"contracts/Profile.sol\":1232:1273  profile(name,username,password,user,true) */\n      0xffffffffffffffffffffffffffffffffffffffff\n      and\n      dup2\n      mstore\n      0x20\n      add\n        /* \"contracts/Profile.sol\":1268:1272  true */\n      0x01\n        /* \"contracts/Profile.sol\":1232:1273  profile(name,username,password,user,true) */\n      iszero\n      iszero\n      dup2\n      mstore\n      pop\n        /* \"contracts/Profile.sol\":1204:1273  profile memory newProfile = profile(name,username,password,user,true) */\n      swap1\n      pop\n        /* \"contracts/Profile.sol\":1303:1313  newProfile */\n      dup1\n        /* \"contracts/Profile.sol\":1283:1294  profileList */\n      0x00\n        /* \"contracts/Profile.sol\":1283:1300  profileList[user] */\n      dup1\n        /* \"contracts/Profile.sol\":1295:1299  user */\n      dup5\n        /* \"contracts/Profile.sol\":1283:1300  profileList[user] */\n      0xffffffffffffffffffffffffffffffffffffffff\n      and\n      0xffffffffffffffffffffffffffffffffffffffff\n      and\n      dup2\n      mstore\n      0x20\n      add\n      swap1\n      dup2\n      mstore\n      0x20\n      add\n      0x00\n      keccak256\n        /* \"contracts/Profile.sol\":1283:1313  profileList[user] = newProfile */\n      0x00\n      dup3\n      add\n      mload\n      dup2\n      0x00\n      add\n      swap1\n      dup1\n      mload\n      swap1\n      0x20\n      add\n      swap1\n      tag_46\n      swap3\n      swap2\n      swap1\n      tag_47\n      jump\t// in\n    tag_46:\n      pop\n      0x20\n      dup3\n      add\n      mload\n      dup2\n      0x01\n      add\n      swap1\n      dup1\n      mload\n      swap1\n      0x20\n      add\n      swap1\n      tag_48\n      swap3\n      swap2\n      swap1\n      tag_47\n      jump\t// in\n    tag_48:\n      pop\n      0x40\n      dup3\n      add\n      mload\n      dup2\n      0x02\n      add\n      swap1\n      dup1\n      mload\n      swap1\n      0x20\n      add\n      swap1\n      tag_49\n      swap3\n      swap2\n      swap1\n      tag_47\n      jump\t// in\n    tag_49:\n      pop\n      0x60\n      dup3\n      add\n      mload\n      dup2\n      0x03\n      add\n      exp(0x0100, 0x00)\n      dup2\n      sload\n      dup2\n      0xffffffffffffffffffffffffffffffffffffffff\n      mul\n      not\n      and\n      swap1\n      dup4\n      0xffffffffffffffffffffffffffffffffffffffff\n      and\n      mul\n      or\n      swap1\n      sstore\n      pop\n      0x80\n      dup3\n      add\n      mload\n      dup2\n      0x03\n      add\n      exp(0x0100, 0x14)\n      dup2\n      sload\n      dup2\n      0xff\n      mul\n      not\n      and\n      swap1\n      dup4\n      iszero\n      iszero\n      mul\n      or\n      swap1\n      sstore\n      pop\n      swap1\n      pop\n      pop\n        /* \"contracts/Profile.sol\":1349:1350  1 */\n      0x01\n        /* \"contracts/Profile.sol\":1336:1346  numProfile */\n      sload(0x03)\n        /* \"contracts/Profile.sol\":1336:1350  numProfile + 1 */\n      tag_50\n      swap2\n      swap1\n      tag_51\n      jump\t// in\n    tag_50:\n        /* \"contracts/Profile.sol\":1323:1333  numProfile */\n      0x03\n        /* \"contracts/Profile.sol\":1323:1350  numProfile = numProfile + 1 */\n      dup2\n      swap1\n      sstore\n      pop\n        /* \"contracts/Profile.sol\":1365:1385  profileCreated(name) */\n      0xb3455b03a6e133be9b93e8f000fd0c9252e1178a557652af2f19aafde3382b27\n        /* \"contracts/Profile.sol\":1380:1384  name */\n      dup6\n        /* \"contracts/Profile.sol\":1365:1385  profileCreated(name) */\n      mload(0x40)\n      tag_52\n      swap2\n      swap1\n      tag_16\n      jump\t// in\n    tag_52:\n      mload(0x40)\n      dup1\n      swap2\n      sub\n      swap1\n      log1\n        /* \"contracts/Profile.sol\":1104:1392  {... */\n      pop\n        /* \"contracts/Profile.sol\":989:1392  function createProfile(string memory name, string memory username, string memory password, address user)  external {... */\n      pop\n      pop\n      pop\n      pop\n      jump\t// out\n        /* \"contracts/Profile.sol\":2101:2227  function checkValidProfile() public view returns (bool) {... */\n    tag_22:\n        /* \"contracts/Profile.sol\":2151:2155  bool */\n      0x00\n        /* \"contracts/Profile.sol\":2174:2185  profileList */\n      dup1\n        /* \"contracts/Profile.sol\":2174:2197  profileList[msg.sender] */\n      0x00\n        /* \"contracts/Profile.sol\":2186:2196  msg.sender */\n      caller\n        /* \"contracts/Profile.sol\":2174:2197  profileList[msg.sender] */\n      0xffffffffffffffffffffffffffffffffffffffff\n      and\n      0xffffffffffffffffffffffffffffffffffffffff\n      and\n      dup2\n      mstore\n      0x20\n      add\n      swap1\n      dup2\n      mstore\n      0x20\n      add\n      0x00\n      keccak256\n        /* \"contracts/Profile.sol\":2174:2205  profileList[msg.sender].created */\n      0x03\n      add\n      0x14\n      swap1\n      sload\n      swap1\n      0x0100\n      exp\n      swap1\n      div\n      0xff\n      and\n        /* \"contracts/Profile.sol\":2174:2220  profileList[msg.sender].created ? true : false */\n      tag_54\n      jumpi\n        /* \"contracts/Profile.sol\":2215:2220  false */\n      0x00\n        /* \"contracts/Profile.sol\":2174:2220  profileList[msg.sender].created ? true : false */\n      jump(tag_55)\n    tag_54:\n        /* \"contracts/Profile.sol\":2208:2212  true */\n      0x01\n        /* \"contracts/Profile.sol\":2174:2220  profileList[msg.sender].created ? true : false */\n    tag_55:\n        /* \"contracts/Profile.sol\":2167:2220  return profileList[msg.sender].created ? true : false */\n      swap1\n      pop\n        /* \"contracts/Profile.sol\":2101:2227  function checkValidProfile() public view returns (bool) {... */\n      swap1\n      jump\t// out\n        /* \"contracts/Profile.sol\":1439:1588  function deleteProfile(address user) external {... */\n    tag_28:\n        /* \"contracts/Profile.sol\":1523:1528  false */\n      0x00\n        /* \"contracts/Profile.sol\":1495:1506  profileList */\n      dup1\n        /* \"contracts/Profile.sol\":1495:1512  profileList[user] */\n      0x00\n        /* \"contracts/Profile.sol\":1507:1511  user */\n      dup4\n        /* \"contracts/Profile.sol\":1495:1512  profileList[user] */\n      0xffffffffffffffffffffffffffffffffffffffff\n      and\n      0xffffffffffffffffffffffffffffffffffffffff\n      and\n      dup2\n      mstore\n      0x20\n      add\n      swap1\n      dup2\n      mstore\n      0x20\n      add\n      0x00\n      keccak256\n        /* \"contracts/Profile.sol\":1495:1520  profileList[user].created */\n      0x03\n      add\n      0x14\n        /* \"contracts/Profile.sol\":1495:1528  profileList[user].created = false */\n      0x0100\n      exp\n      dup2\n      sload\n      dup2\n      0xff\n      mul\n      not\n      and\n      swap1\n      dup4\n      iszero\n      iszero\n      mul\n      or\n      swap1\n      sstore\n      pop\n        /* \"contracts/Profile.sol\":1579:1580  1 */\n      0x01\n        /* \"contracts/Profile.sol\":1566:1576  numProfile */\n      sload(0x03)\n        /* \"contracts/Profile.sol\":1566:1580  numProfile - 1 */\n      tag_57\n      swap2\n      swap1\n      tag_58\n      jump\t// in\n    tag_57:\n        /* \"contracts/Profile.sol\":1553:1563  numProfile */\n      0x03\n        /* \"contracts/Profile.sol\":1553:1580  numProfile = numProfile - 1 */\n      dup2\n      swap1\n      sstore\n      pop\n        /* \"contracts/Profile.sol\":1439:1588  function deleteProfile(address user) external {... */\n      pop\n      jump\t// out\n        /* \"contracts/Profile.sol\":1635:1750  function updateProfileName(string memory newName) external {... */\n    tag_32:\n        /* \"contracts/Profile.sol\":1735:1742  newName */\n      dup1\n        /* \"contracts/Profile.sol\":1704:1715  profileList */\n      0x00\n        /* \"contracts/Profile.sol\":1704:1727  profileList[msg.sender] */\n      dup1\n        /* \"contracts/Profile.sol\":1716:1726  msg.sender */\n      caller\n        /* \"contracts/Profile.sol\":1704:1727  profileList[msg.sender] */\n      0xffffffffffffffffffffffffffffffffffffffff\n      and\n      0xffffffffffffffffffffffffffffffffffffffff\n      and\n      dup2\n      mstore\n      0x20\n      add\n      swap1\n      dup2\n      mstore\n      0x20\n      add\n      0x00\n      keccak256\n        /* \"contracts/Profile.sol\":1704:1732  profileList[msg.sender].name */\n      0x00\n      add\n        /* \"contracts/Profile.sol\":1704:1742  profileList[msg.sender].name = newName */\n      swap1\n      dup1\n      mload\n      swap1\n      0x20\n      add\n      swap1\n      tag_60\n      swap3\n      swap2\n      swap1\n      tag_47\n      jump\t// in\n    tag_60:\n      pop\n        /* \"contracts/Profile.sol\":1635:1750  function updateProfileName(string memory newName) external {... */\n      pop\n      jump\t// out\n    tag_47:\n      dup3\n      dup1\n      sload\n      tag_61\n      swap1\n      tag_37\n      jump\t// in\n    tag_61:\n      swap1\n      0x00\n      mstore\n      keccak256(0x00, 0x20)\n      swap1\n      0x1f\n      add\n      0x20\n      swap1\n      div\n      dup2\n      add\n      swap3\n      dup3\n      tag_63\n      jumpi\n      0x00\n      dup6\n      sstore\n      jump(tag_62)\n    tag_63:\n      dup3\n      0x1f\n      lt\n      tag_64\n      jumpi\n      dup1\n      mload\n      not(0xff)\n      and\n      dup4\n      dup1\n      add\n      or\n      dup6\n      sstore\n      jump(tag_62)\n    tag_64:\n      dup3\n      dup1\n      add\n      0x01\n      add\n      dup6\n      sstore\n      dup3\n      iszero\n      tag_62\n      jumpi\n      swap2\n      dup3\n      add\n    tag_65:\n      dup3\n      dup2\n      gt\n      iszero\n      tag_66\n      jumpi\n      dup3\n      mload\n      dup3\n      sstore\n      swap2\n      0x20\n      add\n      swap2\n      swap1\n      0x01\n      add\n      swap1\n      jump(tag_65)\n    tag_66:\n    tag_62:\n      pop\n      swap1\n      pop\n      tag_67\n      swap2\n      swap1\n      tag_68\n      jump\t// in\n    tag_67:\n      pop\n      swap1\n      jump\t// out\n    tag_68:\n    tag_69:\n      dup1\n      dup3\n      gt\n      iszero\n      tag_70\n      jumpi\n      0x00\n      dup2\n      0x00\n      swap1\n      sstore\n      pop\n      0x01\n      add\n      jump(tag_69)\n    tag_70:\n      pop\n      swap1\n      jump\t// out\n        /* \"#utility.yul\":7:419   */\n    tag_72:\n        /* \"#utility.yul\":85:90   */\n      0x00\n        /* \"#utility.yul\":110:176   */\n      tag_74\n        /* \"#utility.yul\":126:175   */\n      tag_75\n        /* \"#utility.yul\":168:174   */\n      dup5\n        /* \"#utility.yul\":126:175   */\n      tag_76\n      jump\t// in\n    tag_75:\n        /* \"#utility.yul\":110:176   */\n      tag_77\n      jump\t// in\n    tag_74:\n        /* \"#utility.yul\":101:176   */\n      swap1\n      pop\n        /* \"#utility.yul\":199:205   */\n      dup3\n        /* \"#utility.yul\":192:197   */\n      dup2\n        /* \"#utility.yul\":185:206   */\n      mstore\n        /* \"#utility.yul\":237:241   */\n      0x20\n        /* \"#utility.yul\":230:235   */\n      dup2\n        /* \"#utility.yul\":226:242   */\n      add\n        /* \"#utility.yul\":275:278   */\n      dup5\n        /* \"#utility.yul\":266:272   */\n      dup5\n        /* \"#utility.yul\":261:264   */\n      dup5\n        /* \"#utility.yul\":257:273   */\n      add\n        /* \"#utility.yul\":254:279   */\n      gt\n        /* \"#utility.yul\":251:363   */\n      iszero\n      tag_78\n      jumpi\n        /* \"#utility.yul\":282:361   */\n      tag_79\n      tag_80\n      jump\t// in\n    tag_79:\n        /* \"#utility.yul\":251:363   */\n    tag_78:\n        /* \"#utility.yul\":372:413   */\n      tag_81\n        /* \"#utility.yul\":406:412   */\n      dup5\n        /* \"#utility.yul\":401:404   */\n      dup3\n        /* \"#utility.yul\":396:399   */\n      dup6\n        /* \"#utility.yul\":372:413   */\n      tag_82\n      jump\t// in\n    tag_81:\n        /* \"#utility.yul\":91:419   */\n      pop\n        /* \"#utility.yul\":7:419   */\n      swap4\n      swap3\n      pop\n      pop\n      pop\n      jump\t// out\n        /* \"#utility.yul\":425:564   */\n    tag_83:\n        /* \"#utility.yul\":471:476   */\n      0x00\n        /* \"#utility.yul\":509:515   */\n      dup2\n        /* \"#utility.yul\":496:516   */\n      calldataload\n        /* \"#utility.yul\":487:516   */\n      swap1\n      pop\n        /* \"#utility.yul\":525:558   */\n      tag_85\n        /* \"#utility.yul\":552:557   */\n      dup2\n        /* \"#utility.yul\":525:558   */\n      tag_86\n      jump\t// in\n    tag_85:\n        /* \"#utility.yul\":425:564   */\n      swap3\n      swap2\n      pop\n      pop\n      jump\t// out\n        /* \"#utility.yul\":584:924   */\n    tag_87:\n        /* \"#utility.yul\":640:645   */\n      0x00\n        /* \"#utility.yul\":689:692   */\n      dup3\n        /* \"#utility.yul\":682:686   */\n      0x1f\n        /* \"#utility.yul\":674:680   */\n      dup4\n        /* \"#utility.yul\":670:687   */\n      add\n        /* \"#utility.yul\":666:693   */\n      slt\n        /* \"#utility.yul\":656:778   */\n      tag_89\n      jumpi\n        /* \"#utility.yul\":697:776   */\n      tag_90\n      tag_91\n      jump\t// in\n    tag_90:\n        /* \"#utility.yul\":656:778   */\n    tag_89:\n        /* \"#utility.yul\":814:820   */\n      dup2\n        /* \"#utility.yul\":801:821   */\n      calldataload\n        /* \"#utility.yul\":839:918   */\n      tag_92\n        /* \"#utility.yul\":914:917   */\n      dup5\n        /* \"#utility.yul\":906:912   */\n      dup3\n        /* \"#utility.yul\":899:903   */\n      0x20\n        /* \"#utility.yul\":891:897   */\n      dup7\n        /* \"#utility.yul\":887:904   */\n      add\n        /* \"#utility.yul\":839:918   */\n      tag_72\n      jump\t// in\n    tag_92:\n        /* \"#utility.yul\":830:918   */\n      swap2\n      pop\n        /* \"#utility.yul\":646:924   */\n      pop\n        /* \"#utility.yul\":584:924   */\n      swap3\n      swap2\n      pop\n      pop\n      jump\t// out\n        /* \"#utility.yul\":930:1259   */\n    tag_27:\n        /* \"#utility.yul\":989:995   */\n      0x00\n        /* \"#utility.yul\":1038:1040   */\n      0x20\n        /* \"#utility.yul\":1026:1035   */\n      dup3\n        /* \"#utility.yul\":1017:1024   */\n      dup5\n        /* \"#utility.yul\":1013:1036   */\n      sub\n        /* \"#utility.yul\":1009:1041   */\n      slt\n        /* \"#utility.yul\":1006:1125   */\n      iszero\n      tag_94\n      jumpi\n        /* \"#utility.yul\":1044:1123   */\n      tag_95\n      tag_96\n      jump\t// in\n    tag_95:\n        /* \"#utility.yul\":1006:1125   */\n    tag_94:\n        /* \"#utility.yul\":1164:1165   */\n      0x00\n        /* \"#utility.yul\":1189:1242   */\n      tag_97\n        /* \"#utility.yul\":1234:1241   */\n      dup5\n        /* \"#utility.yul\":1225:1231   */\n      dup3\n        /* \"#utility.yul\":1214:1223   */\n      dup6\n        /* \"#utility.yul\":1210:1232   */\n      add\n        /* \"#utility.yul\":1189:1242   */\n      tag_83\n      jump\t// in\n    tag_97:\n        /* \"#utility.yul\":1179:1242   */\n      swap2\n      pop\n        /* \"#utility.yul\":1135:1252   */\n      pop\n        /* \"#utility.yul\":930:1259   */\n      swap3\n      swap2\n      pop\n      pop\n      jump\t// out\n        /* \"#utility.yul\":1265:1774   */\n    tag_31:\n        /* \"#utility.yul\":1334:1340   */\n      0x00\n        /* \"#utility.yul\":1383:1385   */\n      0x20\n        /* \"#utility.yul\":1371:1380   */\n      dup3\n        /* \"#utility.yul\":1362:1369   */\n      dup5\n        /* \"#utility.yul\":1358:1381   */\n      sub\n        /* \"#utility.yul\":1354:1386   */\n      slt\n        /* \"#utility.yul\":1351:1470   */\n      iszero\n      tag_99\n      jumpi\n        /* \"#utility.yul\":1389:1468   */\n      tag_100\n      tag_96\n      jump\t// in\n    tag_100:\n        /* \"#utility.yul\":1351:1470   */\n    tag_99:\n        /* \"#utility.yul\":1537:1538   */\n      0x00\n        /* \"#utility.yul\":1526:1535   */\n      dup3\n        /* \"#utility.yul\":1522:1539   */\n      add\n        /* \"#utility.yul\":1509:1540   */\n      calldataload\n        /* \"#utility.yul\":1567:1585   */\n      0xffffffffffffffff\n        /* \"#utility.yul\":1559:1565   */\n      dup2\n        /* \"#utility.yul\":1556:1586   */\n      gt\n        /* \"#utility.yul\":1553:1670   */\n      iszero\n      tag_101\n      jumpi\n        /* \"#utility.yul\":1589:1668   */\n      tag_102\n      tag_103\n      jump\t// in\n    tag_102:\n        /* \"#utility.yul\":1553:1670   */\n    tag_101:\n        /* \"#utility.yul\":1694:1757   */\n      tag_104\n        /* \"#utility.yul\":1749:1756   */\n      dup5\n        /* \"#utility.yul\":1740:1746   */\n      dup3\n        /* \"#utility.yul\":1729:1738   */\n      dup6\n        /* \"#utility.yul\":1725:1747   */\n      add\n        /* \"#utility.yul\":1694:1757   */\n      tag_87\n      jump\t// in\n    tag_104:\n        /* \"#utility.yul\":1684:1757   */\n      swap2\n      pop\n        /* \"#utility.yul\":1480:1767   */\n      pop\n        /* \"#utility.yul\":1265:1774   */\n      swap3\n      swap2\n      pop\n      pop\n      jump\t// out\n        /* \"#utility.yul\":1780:3085   */\n    tag_19:\n        /* \"#utility.yul\":1896:1902   */\n      0x00\n        /* \"#utility.yul\":1904:1910   */\n      dup1\n        /* \"#utility.yul\":1912:1918   */\n      0x00\n        /* \"#utility.yul\":1920:1926   */\n      dup1\n        /* \"#utility.yul\":1969:1972   */\n      0x80\n        /* \"#utility.yul\":1957:1966   */\n      dup6\n        /* \"#utility.yul\":1948:1955   */\n      dup8\n        /* \"#utility.yul\":1944:1967   */\n      sub\n        /* \"#utility.yul\":1940:1973   */\n      slt\n        /* \"#utility.yul\":1937:2057   */\n      iszero\n      tag_106\n      jumpi\n        /* \"#utility.yul\":1976:2055   */\n      tag_107\n      tag_96\n      jump\t// in\n    tag_107:\n        /* \"#utility.yul\":1937:2057   */\n    tag_106:\n        /* \"#utility.yul\":2124:2125   */\n      0x00\n        /* \"#utility.yul\":2113:2122   */\n      dup6\n        /* \"#utility.yul\":2109:2126   */\n      add\n        /* \"#utility.yul\":2096:2127   */\n      calldataload\n        /* \"#utility.yul\":2154:2172   */\n      0xffffffffffffffff\n        /* \"#utility.yul\":2146:2152   */\n      dup2\n        /* \"#utility.yul\":2143:2173   */\n      gt\n        /* \"#utility.yul\":2140:2257   */\n      iszero\n      tag_108\n      jumpi\n        /* \"#utility.yul\":2176:2255   */\n      tag_109\n      tag_103\n      jump\t// in\n    tag_109:\n        /* \"#utility.yul\":2140:2257   */\n    tag_108:\n        /* \"#utility.yul\":2281:2344   */\n      tag_110\n        /* \"#utility.yul\":2336:2343   */\n      dup8\n        /* \"#utility.yul\":2327:2333   */\n      dup3\n        /* \"#utility.yul\":2316:2325   */\n      dup9\n        /* \"#utility.yul\":2312:2334   */\n      add\n        /* \"#utility.yul\":2281:2344   */\n      tag_87\n      jump\t// in\n    tag_110:\n        /* \"#utility.yul\":2271:2344   */\n      swap5\n      pop\n        /* \"#utility.yul\":2067:2354   */\n      pop\n        /* \"#utility.yul\":2421:2423   */\n      0x20\n        /* \"#utility.yul\":2410:2419   */\n      dup6\n        /* \"#utility.yul\":2406:2424   */\n      add\n        /* \"#utility.yul\":2393:2425   */\n      calldataload\n        /* \"#utility.yul\":2452:2470   */\n      0xffffffffffffffff\n        /* \"#utility.yul\":2444:2450   */\n      dup2\n        /* \"#utility.yul\":2441:2471   */\n      gt\n        /* \"#utility.yul\":2438:2555   */\n      iszero\n      tag_111\n      jumpi\n        /* \"#utility.yul\":2474:2553   */\n      tag_112\n      tag_103\n      jump\t// in\n    tag_112:\n        /* \"#utility.yul\":2438:2555   */\n    tag_111:\n        /* \"#utility.yul\":2579:2642   */\n      tag_113\n        /* \"#utility.yul\":2634:2641   */\n      dup8\n        /* \"#utility.yul\":2625:2631   */\n      dup3\n        /* \"#utility.yul\":2614:2623   */\n      dup9\n        /* \"#utility.yul\":2610:2632   */\n      add\n        /* \"#utility.yul\":2579:2642   */\n      tag_87\n      jump\t// in\n    tag_113:\n        /* \"#utility.yul\":2569:2642   */\n      swap4\n      pop\n        /* \"#utility.yul\":2364:2652   */\n      pop\n        /* \"#utility.yul\":2719:2721   */\n      0x40\n        /* \"#utility.yul\":2708:2717   */\n      dup6\n        /* \"#utility.yul\":2704:2722   */\n      add\n        /* \"#utility.yul\":2691:2723   */\n      calldataload\n        /* \"#utility.yul\":2750:2768   */\n      0xffffffffffffffff\n        /* \"#utility.yul\":2742:2748   */\n      dup2\n        /* \"#utility.yul\":2739:2769   */\n      gt\n        /* \"#utility.yul\":2736:2853   */\n      iszero\n      tag_114\n      jumpi\n        /* \"#utility.yul\":2772:2851   */\n      tag_115\n      tag_103\n      jump\t// in\n    tag_115:\n        /* \"#utility.yul\":2736:2853   */\n    tag_114:\n        /* \"#utility.yul\":2877:2940   */\n      tag_116\n        /* \"#utility.yul\":2932:2939   */\n      dup8\n        /* \"#utility.yul\":2923:2929   */\n      dup3\n        /* \"#utility.yul\":2912:2921   */\n      dup9\n        /* \"#utility.yul\":2908:2930   */\n      add\n        /* \"#utility.yul\":2877:2940   */\n      tag_87\n      jump\t// in\n    tag_116:\n        /* \"#utility.yul\":2867:2940   */\n      swap3\n      pop\n        /* \"#utility.yul\":2662:2950   */\n      pop\n        /* \"#utility.yul\":2989:2991   */\n      0x60\n        /* \"#utility.yul\":3015:3068   */\n      tag_117\n        /* \"#utility.yul\":3060:3067   */\n      dup8\n        /* \"#utility.yul\":3051:3057   */\n      dup3\n        /* \"#utility.yul\":3040:3049   */\n      dup9\n        /* \"#utility.yul\":3036:3058   */\n      add\n        /* \"#utility.yul\":3015:3068   */\n      tag_83\n      jump\t// in\n    tag_117:\n        /* \"#utility.yul\":3005:3068   */\n      swap2\n      pop\n        /* \"#utility.yul\":2960:3078   */\n      pop\n        /* \"#utility.yul\":1780:3085   */\n      swap3\n      swap6\n      swap2\n      swap5\n      pop\n      swap3\n      pop\n      jump\t// out\n        /* \"#utility.yul\":3091:3200   */\n    tag_118:\n        /* \"#utility.yul\":3172:3193   */\n      tag_120\n        /* \"#utility.yul\":3187:3192   */\n      dup2\n        /* \"#utility.yul\":3172:3193   */\n      tag_121\n      jump\t// in\n    tag_120:\n        /* \"#utility.yul\":3167:3170   */\n      dup3\n        /* \"#utility.yul\":3160:3194   */\n      mstore\n        /* \"#utility.yul\":3091:3200   */\n      pop\n      pop\n      jump\t// out\n        /* \"#utility.yul\":3206:3570   */\n    tag_122:\n        /* \"#utility.yul\":3294:3297   */\n      0x00\n        /* \"#utility.yul\":3322:3361   */\n      tag_124\n        /* \"#utility.yul\":3355:3360   */\n      dup3\n        /* \"#utility.yul\":3322:3361   */\n      tag_125\n      jump\t// in\n    tag_124:\n        /* \"#utility.yul\":3377:3448   */\n      tag_126\n        /* \"#utility.yul\":3441:3447   */\n      dup2\n        /* \"#utility.yul\":3436:3439   */\n      dup6\n        /* \"#utility.yul\":3377:3448   */\n      tag_127\n      jump\t// in\n    tag_126:\n        /* \"#utility.yul\":3370:3448   */\n      swap4\n      pop\n        /* \"#utility.yul\":3457:3509   */\n      tag_128\n        /* \"#utility.yul\":3502:3508   */\n      dup2\n        /* \"#utility.yul\":3497:3500   */\n      dup6\n        /* \"#utility.yul\":3490:3494   */\n      0x20\n        /* \"#utility.yul\":3483:3488   */\n      dup7\n        /* \"#utility.yul\":3479:3495   */\n      add\n        /* \"#utility.yul\":3457:3509   */\n      tag_129\n      jump\t// in\n    tag_128:\n        /* \"#utility.yul\":3534:3563   */\n      tag_130\n        /* \"#utility.yul\":3556:3562   */\n      dup2\n        /* \"#utility.yul\":3534:3563   */\n      tag_131\n      jump\t// in\n    tag_130:\n        /* \"#utility.yul\":3529:3532   */\n      dup5\n        /* \"#utility.yul\":3525:3564   */\n      add\n        /* \"#utility.yul\":3518:3564   */\n      swap2\n      pop\n        /* \"#utility.yul\":3298:3570   */\n      pop\n        /* \"#utility.yul\":3206:3570   */\n      swap3\n      swap2\n      pop\n      pop\n      jump\t// out\n        /* \"#utility.yul\":3576:3942   */\n    tag_132:\n        /* \"#utility.yul\":3718:3721   */\n      0x00\n        /* \"#utility.yul\":3739:3806   */\n      tag_134\n        /* \"#utility.yul\":3803:3805   */\n      0x21\n        /* \"#utility.yul\":3798:3801   */\n      dup4\n        /* \"#utility.yul\":3739:3806   */\n      tag_127\n      jump\t// in\n    tag_134:\n        /* \"#utility.yul\":3732:3806   */\n      swap2\n      pop\n        /* \"#utility.yul\":3815:3908   */\n      tag_135\n        /* \"#utility.yul\":3904:3907   */\n      dup3\n        /* \"#utility.yul\":3815:3908   */\n      tag_136\n      jump\t// in\n    tag_135:\n        /* \"#utility.yul\":3933:3935   */\n      0x40\n        /* \"#utility.yul\":3928:3931   */\n      dup3\n        /* \"#utility.yul\":3924:3936   */\n      add\n        /* \"#utility.yul\":3917:3936   */\n      swap1\n      pop\n        /* \"#utility.yul\":3576:3942   */\n      swap2\n      swap1\n      pop\n      jump\t// out\n        /* \"#utility.yul\":3948:4066   */\n    tag_137:\n        /* \"#utility.yul\":4035:4059   */\n      tag_139\n        /* \"#utility.yul\":4053:4058   */\n      dup2\n        /* \"#utility.yul\":4035:4059   */\n      tag_140\n      jump\t// in\n    tag_139:\n        /* \"#utility.yul\":4030:4033   */\n      dup3\n        /* \"#utility.yul\":4023:4060   */\n      mstore\n        /* \"#utility.yul\":3948:4066   */\n      pop\n      pop\n      jump\t// out\n        /* \"#utility.yul\":4072:4282   */\n    tag_24:\n        /* \"#utility.yul\":4159:4163   */\n      0x00\n        /* \"#utility.yul\":4197:4199   */\n      0x20\n        /* \"#utility.yul\":4186:4195   */\n      dup3\n        /* \"#utility.yul\":4182:4200   */\n      add\n        /* \"#utility.yul\":4174:4200   */\n      swap1\n      pop\n        /* \"#utility.yul\":4210:4275   */\n      tag_142\n        /* \"#utility.yul\":4272:4273   */\n      0x00\n        /* \"#utility.yul\":4261:4270   */\n      dup4\n        /* \"#utility.yul\":4257:4274   */\n      add\n        /* \"#utility.yul\":4248:4254   */\n      dup5\n        /* \"#utility.yul\":4210:4275   */\n      tag_118\n      jump\t// in\n    tag_142:\n        /* \"#utility.yul\":4072:4282   */\n      swap3\n      swap2\n      pop\n      pop\n      jump\t// out\n        /* \"#utility.yul\":4288:4601   */\n    tag_16:\n        /* \"#utility.yul\":4401:4405   */\n      0x00\n        /* \"#utility.yul\":4439:4441   */\n      0x20\n        /* \"#utility.yul\":4428:4437   */\n      dup3\n        /* \"#utility.yul\":4424:4442   */\n      add\n        /* \"#utility.yul\":4416:4442   */\n      swap1\n      pop\n        /* \"#utility.yul\":4488:4497   */\n      dup2\n        /* \"#utility.yul\":4482:4486   */\n      dup2\n        /* \"#utility.yul\":4478:4498   */\n      sub\n        /* \"#utility.yul\":4474:4475   */\n      0x00\n        /* \"#utility.yul\":4463:4472   */\n      dup4\n        /* \"#utility.yul\":4459:4476   */\n      add\n        /* \"#utility.yul\":4452:4499   */\n      mstore\n        /* \"#utility.yul\":4516:4594   */\n      tag_144\n        /* \"#utility.yul\":4589:4593   */\n      dup2\n        /* \"#utility.yul\":4580:4586   */\n      dup5\n        /* \"#utility.yul\":4516:4594   */\n      tag_122\n      jump\t// in\n    tag_144:\n        /* \"#utility.yul\":4508:4594   */\n      swap1\n      pop\n        /* \"#utility.yul\":4288:4601   */\n      swap3\n      swap2\n      pop\n      pop\n      jump\t// out\n        /* \"#utility.yul\":4607:5026   */\n    tag_45:\n        /* \"#utility.yul\":4773:4777   */\n      0x00\n        /* \"#utility.yul\":4811:4813   */\n      0x20\n        /* \"#utility.yul\":4800:4809   */\n      dup3\n        /* \"#utility.yul\":4796:4814   */\n      add\n        /* \"#utility.yul\":4788:4814   */\n      swap1\n      pop\n        /* \"#utility.yul\":4860:4869   */\n      dup2\n        /* \"#utility.yul\":4854:4858   */\n      dup2\n        /* \"#utility.yul\":4850:4870   */\n      sub\n        /* \"#utility.yul\":4846:4847   */\n      0x00\n        /* \"#utility.yul\":4835:4844   */\n      dup4\n        /* \"#utility.yul\":4831:4848   */\n      add\n        /* \"#utility.yul\":4824:4871   */\n      mstore\n        /* \"#utility.yul\":4888:5019   */\n      tag_146\n        /* \"#utility.yul\":5014:5018   */\n      dup2\n        /* \"#utility.yul\":4888:5019   */\n      tag_132\n      jump\t// in\n    tag_146:\n        /* \"#utility.yul\":4880:5019   */\n      swap1\n      pop\n        /* \"#utility.yul\":4607:5026   */\n      swap2\n      swap1\n      pop\n      jump\t// out\n        /* \"#utility.yul\":5032:5254   */\n    tag_12:\n        /* \"#utility.yul\":5125:5129   */\n      0x00\n        /* \"#utility.yul\":5163:5165   */\n      0x20\n        /* \"#utility.yul\":5152:5161   */\n      dup3\n        /* \"#utility.yul\":5148:5166   */\n      add\n        /* \"#utility.yul\":5140:5166   */\n      swap1\n      pop\n        /* \"#utility.yul\":5176:5247   */\n      tag_148\n        /* \"#utility.yul\":5244:5245   */\n      0x00\n        /* \"#utility.yul\":5233:5242   */\n      dup4\n        /* \"#utility.yul\":5229:5246   */\n      add\n        /* \"#utility.yul\":5220:5226   */\n      dup5\n        /* \"#utility.yul\":5176:5247   */\n      tag_137\n      jump\t// in\n    tag_148:\n        /* \"#utility.yul\":5032:5254   */\n      swap3\n      swap2\n      pop\n      pop\n      jump\t// out\n        /* \"#utility.yul\":5260:5389   */\n    tag_77:\n        /* \"#utility.yul\":5294:5300   */\n      0x00\n        /* \"#utility.yul\":5321:5341   */\n      tag_150\n      tag_151\n      jump\t// in\n    tag_150:\n        /* \"#utility.yul\":5311:5341   */\n      swap1\n      pop\n        /* \"#utility.yul\":5350:5383   */\n      tag_152\n        /* \"#utility.yul\":5378:5382   */\n      dup3\n        /* \"#utility.yul\":5370:5376   */\n      dup3\n        /* \"#utility.yul\":5350:5383   */\n      tag_153\n      jump\t// in\n    tag_152:\n        /* \"#utility.yul\":5260:5389   */\n      swap2\n      swap1\n      pop\n      jump\t// out\n        /* \"#utility.yul\":5395:5470   */\n    tag_151:\n        /* \"#utility.yul\":5428:5434   */\n      0x00\n        /* \"#utility.yul\":5461:5463   */\n      0x40\n        /* \"#utility.yul\":5455:5464   */\n      mload\n        /* \"#utility.yul\":5445:5464   */\n      swap1\n      pop\n        /* \"#utility.yul\":5395:5470   */\n      swap1\n      jump\t// out\n        /* \"#utility.yul\":5476:5784   */\n    tag_76:\n        /* \"#utility.yul\":5538:5542   */\n      0x00\n        /* \"#utility.yul\":5628:5646   */\n      0xffffffffffffffff\n        /* \"#utility.yul\":5620:5626   */\n      dup3\n        /* \"#utility.yul\":5617:5647   */\n      gt\n        /* \"#utility.yul\":5614:5670   */\n      iszero\n      tag_156\n      jumpi\n        /* \"#utility.yul\":5650:5668   */\n      tag_157\n      tag_158\n      jump\t// in\n    tag_157:\n        /* \"#utility.yul\":5614:5670   */\n    tag_156:\n        /* \"#utility.yul\":5688:5717   */\n      tag_159\n        /* \"#utility.yul\":5710:5716   */\n      dup3\n        /* \"#utility.yul\":5688:5717   */\n      tag_131\n      jump\t// in\n    tag_159:\n        /* \"#utility.yul\":5680:5717   */\n      swap1\n      pop\n        /* \"#utility.yul\":5772:5776   */\n      0x20\n        /* \"#utility.yul\":5766:5770   */\n      dup2\n        /* \"#utility.yul\":5762:5777   */\n      add\n        /* \"#utility.yul\":5754:5777   */\n      swap1\n      pop\n        /* \"#utility.yul\":5476:5784   */\n      swap2\n      swap1\n      pop\n      jump\t// out\n        /* \"#utility.yul\":5790:5889   */\n    tag_125:\n        /* \"#utility.yul\":5842:5848   */\n      0x00\n        /* \"#utility.yul\":5876:5881   */\n      dup2\n        /* \"#utility.yul\":5870:5882   */\n      mload\n        /* \"#utility.yul\":5860:5882   */\n      swap1\n      pop\n        /* \"#utility.yul\":5790:5889   */\n      swap2\n      swap1\n      pop\n      jump\t// out\n        /* \"#utility.yul\":5895:6064   */\n    tag_127:\n        /* \"#utility.yul\":5979:5990   */\n      0x00\n        /* \"#utility.yul\":6013:6019   */\n      dup3\n        /* \"#utility.yul\":6008:6011   */\n      dup3\n        /* \"#utility.yul\":6001:6020   */\n      mstore\n        /* \"#utility.yul\":6053:6057   */\n      0x20\n        /* \"#utility.yul\":6048:6051   */\n      dup3\n        /* \"#utility.yul\":6044:6058   */\n      add\n        /* \"#utility.yul\":6029:6058   */\n      swap1\n      pop\n        /* \"#utility.yul\":5895:6064   */\n      swap3\n      swap2\n      pop\n      pop\n      jump\t// out\n        /* \"#utility.yul\":6070:6375   */\n    tag_51:\n        /* \"#utility.yul\":6110:6113   */\n      0x00\n        /* \"#utility.yul\":6129:6149   */\n      tag_163\n        /* \"#utility.yul\":6147:6148   */\n      dup3\n        /* \"#utility.yul\":6129:6149   */\n      tag_140\n      jump\t// in\n    tag_163:\n        /* \"#utility.yul\":6124:6149   */\n      swap2\n      pop\n        /* \"#utility.yul\":6163:6183   */\n      tag_164\n        /* \"#utility.yul\":6181:6182   */\n      dup4\n        /* \"#utility.yul\":6163:6183   */\n      tag_140\n      jump\t// in\n    tag_164:\n        /* \"#utility.yul\":6158:6183   */\n      swap3\n      pop\n        /* \"#utility.yul\":6317:6318   */\n      dup3\n        /* \"#utility.yul\":6249:6315   */\n      0xffffffffffffffffffffffffffffffffffffffffffffffffffffffffffffffff\n        /* \"#utility.yul\":6245:6319   */\n      sub\n        /* \"#utility.yul\":6242:6243   */\n      dup3\n        /* \"#utility.yul\":6239:6320   */\n      gt\n        /* \"#utility.yul\":6236:6343   */\n      iszero\n      tag_165\n      jumpi\n        /* \"#utility.yul\":6323:6341   */\n      tag_166\n      tag_167\n      jump\t// in\n    tag_166:\n        /* \"#utility.yul\":6236:6343   */\n    tag_165:\n        /* \"#utility.yul\":6367:6368   */\n      dup3\n        /* \"#utility.yul\":6364:6365   */\n      dup3\n        /* \"#utility.yul\":6360:6369   */\n      add\n        /* \"#utility.yul\":6353:6369   */\n      swap1\n      pop\n        /* \"#utility.yul\":6070:6375   */\n      swap3\n      swap2\n      pop\n      pop\n      jump\t// out\n        /* \"#utility.yul\":6381:6572   */\n    tag_58:\n        /* \"#utility.yul\":6421:6425   */\n      0x00\n        /* \"#utility.yul\":6441:6461   */\n      tag_169\n        /* \"#utility.yul\":6459:6460   */\n      dup3\n        /* \"#utility.yul\":6441:6461   */\n      tag_140\n      jump\t// in\n    tag_169:\n        /* \"#utility.yul\":6436:6461   */\n      swap2\n      pop\n        /* \"#utility.yul\":6475:6495   */\n      tag_170\n        /* \"#utility.yul\":6493:6494   */\n      dup4\n        /* \"#utility.yul\":6475:6495   */\n      tag_140\n      jump\t// in\n    tag_170:\n        /* \"#utility.yul\":6470:6495   */\n      swap3\n      pop\n        /* \"#utility.yul\":6514:6515   */\n      dup3\n        /* \"#utility.yul\":6511:6512   */\n      dup3\n        /* \"#utility.yul\":6508:6516   */\n      lt\n        /* \"#utility.yul\":6505:6539   */\n      iszero\n      tag_171\n      jumpi\n        /* \"#utility.yul\":6519:6537   */\n      tag_172\n      tag_167\n      jump\t// in\n    tag_172:\n        /* \"#utility.yul\":6505:6539   */\n    tag_171:\n        /* \"#utility.yul\":6564:6565   */\n      dup3\n        /* \"#utility.yul\":6561:6562   */\n      dup3\n        /* \"#utility.yul\":6557:6566   */\n      sub\n        /* \"#utility.yul\":6549:6566   */\n      swap1\n      pop\n        /* \"#utility.yul\":6381:6572   */\n      swap3\n      swap2\n      pop\n      pop\n      jump\t// out\n        /* \"#utility.yul\":6578:6674   */\n    tag_173:\n        /* \"#utility.yul\":6615:6622   */\n      0x00\n        /* \"#utility.yul\":6644:6668   */\n      tag_175\n        /* \"#utility.yul\":6662:6667   */\n      dup3\n        /* \"#utility.yul\":6644:6668   */\n      tag_176\n      jump\t// in\n    tag_175:\n        /* \"#utility.yul\":6633:6668   */\n      swap1\n      pop\n        /* \"#utility.yul\":6578:6674   */\n      swap2\n      swap1\n      pop\n      jump\t// out\n        /* \"#utility.yul\":6680:6770   */\n    tag_121:\n        /* \"#utility.yul\":6714:6721   */\n      0x00\n        /* \"#utility.yul\":6757:6762   */\n      dup2\n        /* \"#utility.yul\":6750:6763   */\n      iszero\n        /* \"#utility.yul\":6743:6764   */\n      iszero\n        /* \"#utility.yul\":6732:6764   */\n      swap1\n      pop\n        /* \"#utility.yul\":6680:6770   */\n      swap2\n      swap1\n      pop\n      jump\t// out\n        /* \"#utility.yul\":6776:6902   */\n    tag_176:\n        /* \"#utility.yul\":6813:6820   */\n      0x00\n        /* \"#utility.yul\":6853:6895   */\n      0xffffffffffffffffffffffffffffffffffffffff\n        /* \"#utility.yul\":6846:6851   */\n      dup3\n        /* \"#utility.yul\":6842:6896   */\n      and\n        /* \"#utility.yul\":6831:6896   */\n      swap1\n      pop\n        /* \"#utility.yul\":6776:6902   */\n      swap2\n      swap1\n      pop\n      jump\t// out\n        /* \"#utility.yul\":6908:6985   */\n    tag_140:\n        /* \"#utility.yul\":6945:6952   */\n      0x00\n        /* \"#utility.yul\":6974:6979   */\n      dup2\n        /* \"#utility.yul\":6963:6979   */\n      swap1\n      pop\n        /* \"#utility.yul\":6908:6985   */\n      swap2\n      swap1\n      pop\n      jump\t// out\n        /* \"#utility.yul\":6991:7145   */\n    tag_82:\n        /* \"#utility.yul\":7075:7081   */\n      dup3\n        /* \"#utility.yul\":7070:7073   */\n      dup2\n        /* \"#utility.yul\":7065:7068   */\n      dup4\n        /* \"#utility.yul\":7052:7082   */\n      calldatacopy\n        /* \"#utility.yul\":7137:7138   */\n      0x00\n        /* \"#utility.yul\":7128:7134   */\n      dup4\n        /* \"#utility.yul\":7123:7126   */\n      dup4\n        /* \"#utility.yul\":7119:7135   */\n      add\n        /* \"#utility.yul\":7112:7139   */\n      mstore\n        /* \"#utility.yul\":6991:7145   */\n      pop\n      pop\n      pop\n      jump\t// out\n        /* \"#utility.yul\":7151:7458   */\n    tag_129:\n        /* \"#utility.yul\":7219:7220   */\n      0x00\n        /* \"#utility.yul\":7229:7342   */\n    tag_182:\n        /* \"#utility.yul\":7243:7249   */\n      dup4\n        /* \"#utility.yul\":7240:7241   */\n      dup2\n        /* \"#utility.yul\":7237:7250   */\n      lt\n        /* \"#utility.yul\":7229:7342   */\n      iszero\n      tag_184\n      jumpi\n        /* \"#utility.yul\":7328:7329   */\n      dup1\n        /* \"#utility.yul\":7323:7326   */\n      dup3\n        /* \"#utility.yul\":7319:7330   */\n      add\n        /* \"#utility.yul\":7313:7331   */\n      mload\n        /* \"#utility.yul\":7309:7310   */\n      dup2\n        /* \"#utility.yul\":7304:7307   */\n      dup5\n        /* \"#utility.yul\":7300:7311   */\n      add\n        /* \"#utility.yul\":7293:7332   */\n      mstore\n        /* \"#utility.yul\":7265:7267   */\n      0x20\n        /* \"#utility.yul\":7262:7263   */\n      dup2\n        /* \"#utility.yul\":7258:7268   */\n      add\n        /* \"#utility.yul\":7253:7268   */\n      swap1\n      pop\n        /* \"#utility.yul\":7229:7342   */\n      jump(tag_182)\n    tag_184:\n        /* \"#utility.yul\":7360:7366   */\n      dup4\n        /* \"#utility.yul\":7357:7358   */\n      dup2\n        /* \"#utility.yul\":7354:7367   */\n      gt\n        /* \"#utility.yul\":7351:7452   */\n      iszero\n      tag_185\n      jumpi\n        /* \"#utility.yul\":7440:7441   */\n      0x00\n        /* \"#utility.yul\":7431:7437   */\n      dup5\n        /* \"#utility.yul\":7426:7429   */\n      dup5\n        /* \"#utility.yul\":7422:7438   */\n      add\n        /* \"#utility.yul\":7415:7442   */\n      mstore\n        /* \"#utility.yul\":7351:7452   */\n    tag_185:\n        /* \"#utility.yul\":7200:7458   */\n      pop\n        /* \"#utility.yul\":7151:7458   */\n      pop\n      pop\n      pop\n      jump\t// out\n        /* \"#utility.yul\":7464:7784   */\n    tag_37:\n        /* \"#utility.yul\":7508:7514   */\n      0x00\n        /* \"#utility.yul\":7545:7546   */\n      0x02\n        /* \"#utility.yul\":7539:7543   */\n      dup3\n        /* \"#utility.yul\":7535:7547   */\n      div\n        /* \"#utility.yul\":7525:7547   */\n      swap1\n      pop\n        /* \"#utility.yul\":7592:7593   */\n      0x01\n        /* \"#utility.yul\":7586:7590   */\n      dup3\n        /* \"#utility.yul\":7582:7594   */\n      and\n        /* \"#utility.yul\":7613:7631   */\n      dup1\n        /* \"#utility.yul\":7603:7684   */\n      tag_187\n      jumpi\n        /* \"#utility.yul\":7669:7673   */\n      0x7f\n        /* \"#utility.yul\":7661:7667   */\n      dup3\n        /* \"#utility.yul\":7657:7674   */\n      and\n        /* \"#utility.yul\":7647:7674   */\n      swap2\n      pop\n        /* \"#utility.yul\":7603:7684   */\n    tag_187:\n        /* \"#utility.yul\":7731:7733   */\n      0x20\n        /* \"#utility.yul\":7723:7729   */\n      dup3\n        /* \"#utility.yul\":7720:7734   */\n      lt\n        /* \"#utility.yul\":7700:7718   */\n      dup2\n        /* \"#utility.yul\":7697:7735   */\n      eq\n        /* \"#utility.yul\":7694:7778   */\n      iszero\n      tag_188\n      jumpi\n        /* \"#utility.yul\":7750:7768   */\n      tag_189\n      tag_190\n      jump\t// in\n    tag_189:\n        /* \"#utility.yul\":7694:7778   */\n    tag_188:\n        /* \"#utility.yul\":7515:7784   */\n      pop\n        /* \"#utility.yul\":7464:7784   */\n      swap2\n      swap1\n      pop\n      jump\t// out\n        /* \"#utility.yul\":7790:8071   */\n    tag_153:\n        /* \"#utility.yul\":7873:7900   */\n      tag_192\n        /* \"#utility.yul\":7895:7899   */\n      dup3\n        /* \"#utility.yul\":7873:7900   */\n      tag_131\n      jump\t// in\n    tag_192:\n        /* \"#utility.yul\":7865:7871   */\n      dup2\n        /* \"#utility.yul\":7861:7901   */\n      add\n        /* \"#utility.yul\":8003:8009   */\n      dup2\n        /* \"#utility.yul\":7991:8001   */\n      dup2\n        /* \"#utility.yul\":7988:8010   */\n      lt\n        /* \"#utility.yul\":7967:7985   */\n      0xffffffffffffffff\n        /* \"#utility.yul\":7955:7965   */\n      dup3\n        /* \"#utility.yul\":7952:7986   */\n      gt\n        /* \"#utility.yul\":7949:8011   */\n      or\n        /* \"#utility.yul\":7946:8034   */\n      iszero\n      tag_193\n      jumpi\n        /* \"#utility.yul\":8014:8032   */\n      tag_194\n      tag_158\n      jump\t// in\n    tag_194:\n        /* \"#utility.yul\":7946:8034   */\n    tag_193:\n        /* \"#utility.yul\":8054:8064   */\n      dup1\n        /* \"#utility.yul\":8050:8052   */\n      0x40\n        /* \"#utility.yul\":8043:8065   */\n      mstore\n        /* \"#utility.yul\":7833:8071   */\n      pop\n        /* \"#utility.yul\":7790:8071   */\n      pop\n      pop\n      jump\t// out\n        /* \"#utility.yul\":8077:8257   */\n    tag_167:\n        /* \"#utility.yul\":8125:8202   */\n      0x4e487b7100000000000000000000000000000000000000000000000000000000\n        /* \"#utility.yul\":8122:8123   */\n      0x00\n        /* \"#utility.yul\":8115:8203   */\n      mstore\n        /* \"#utility.yul\":8222:8226   */\n      0x11\n        /* \"#utility.yul\":8219:8220   */\n      0x04\n        /* \"#utility.yul\":8212:8227   */\n      mstore\n        /* \"#utility.yul\":8246:8250   */\n      0x24\n        /* \"#utility.yul\":8243:8244   */\n      0x00\n        /* \"#utility.yul\":8236:8251   */\n      revert\n        /* \"#utility.yul\":8263:8443   */\n    tag_190:\n        /* \"#utility.yul\":8311:8388   */\n      0x4e487b7100000000000000000000000000000000000000000000000000000000\n        /* \"#utility.yul\":8308:8309   */\n      0x00\n        /* \"#utility.yul\":8301:8389   */\n      mstore\n        /* \"#utility.yul\":8408:8412   */\n      0x22\n        /* \"#utility.yul\":8405:8406   */\n      0x04\n        /* \"#utility.yul\":8398:8413   */\n      mstore\n        /* \"#utility.yul\":8432:8436   */\n      0x24\n        /* \"#utility.yul\":8429:8430   */\n      0x00\n        /* \"#utility.yul\":8422:8437   */\n      revert\n        /* \"#utility.yul\":8449:8629   */\n    tag_158:\n        /* \"#utility.yul\":8497:8574   */\n      0x4e487b7100000000000000000000000000000000000000000000000000000000\n        /* \"#utility.yul\":8494:8495   */\n      0x00\n        /* \"#utility.yul\":8487:8575   */\n      mstore\n        /* \"#utility.yul\":8594:8598   */\n      0x41\n        /* \"#utility.yul\":8591:8592   */\n      0x04\n        /* \"#utility.yul\":8584:8599   */\n      mstore\n        /* \"#utility.yul\":8618:8622   */\n      0x24\n        /* \"#utility.yul\":8615:8616   */\n      0x00\n        /* \"#utility.yul\":8608:8623   */\n      revert\n        /* \"#utility.yul\":8635:8752   */\n    tag_91:\n        /* \"#utility.yul\":8744:8745   */\n      0x00\n        /* \"#utility.yul\":8741:8742   */\n      dup1\n        /* \"#utility.yul\":8734:8746   */\n      revert\n        /* \"#utility.yul\":8758:8875   */\n    tag_80:\n        /* \"#utility.yul\":8867:8868   */\n      0x00\n        /* \"#utility.yul\":8864:8865   */\n      dup1\n        /* \"#utility.yul\":8857:8869   */\n      revert\n        /* \"#utility.yul\":8881:8998   */\n    tag_103:\n        /* \"#utility.yul\":8990:8991   */\n      0x00\n        /* \"#utility.yul\":8987:8988   */\n      dup1\n        /* \"#utility.yul\":8980:8992   */\n      revert\n        /* \"#utility.yul\":9004:9121   */\n    tag_96:\n        /* \"#utility.yul\":9113:9114   */\n      0x00\n        /* \"#utility.yul\":9110:9111   */\n      dup1\n        /* \"#utility.yul\":9103:9115   */\n      revert\n        /* \"#utility.yul\":9127:9229   */\n    tag_131:\n        /* \"#utility.yul\":9168:9174   */\n      0x00\n        /* \"#utility.yul\":9219:9221   */\n      0x1f\n        /* \"#utility.yul\":9215:9222   */\n      not\n        /* \"#utility.yul\":9210:9212   */\n      0x1f\n        /* \"#utility.yul\":9203:9208   */\n      dup4\n        /* \"#utility.yul\":9199:9213   */\n      add\n        /* \"#utility.yul\":9195:9223   */\n      and\n        /* \"#utility.yul\":9185:9223   */\n      swap1\n      pop\n        /* \"#utility.yul\":9127:9229   */\n      swap2\n      swap1\n      pop\n      jump\t// out\n        /* \"#utility.yul\":9235:9455   */\n    tag_136:\n        /* \"#utility.yul\":9375:9409   */\n      0x43616e6e6f7420637265617465206d6f7265207468616e20312070726f66696c\n        /* \"#utility.yul\":9371:9372   */\n      0x00\n        /* \"#utility.yul\":9363:9369   */\n      dup3\n        /* \"#utility.yul\":9359:9373   */\n      add\n        /* \"#utility.yul\":9352:9410   */\n      mstore\n        /* \"#utility.yul\":9444:9447   */\n      0x6500000000000000000000000000000000000000000000000000000000000000\n        /* \"#utility.yul\":9439:9441   */\n      0x20\n        /* \"#utility.yul\":9431:9437   */\n      dup3\n        /* \"#utility.yul\":9427:9442   */\n      add\n        /* \"#utility.yul\":9420:9448   */\n      mstore\n        /* \"#utility.yul\":9235:9455   */\n      pop\n      jump\t// out\n        /* \"#utility.yul\":9461:9583   */\n    tag_86:\n        /* \"#utility.yul\":9534:9558   */\n      tag_205\n        /* \"#utility.yul\":9552:9557   */\n      dup2\n        /* \"#utility.yul\":9534:9558   */\n      tag_173\n      jump\t// in\n    tag_205:\n        /* \"#utility.yul\":9527:9532   */\n      dup2\n        /* \"#utility.yul\":9524:9559   */\n      eq\n        /* \"#utility.yul\":9514:9577   */\n      tag_206\n      jumpi\n        /* \"#utility.yul\":9573:9574   */\n      0x00\n        /* \"#utility.yul\":9570:9571   */\n      dup1\n        /* \"#utility.yul\":9563:9575   */\n      revert\n        /* \"#utility.yul\":9514:9577   */\n    tag_206:\n        /* \"#utility.yul\":9461:9583   */\n      pop\n      jump\t// out\n\n    auxdata: 0xa26469706673582212203ec87085ba8c6b88be48e0773b5b63866aa92e9a15197d3cbe079ccc21a8b80364736f6c63430008070033\n}\n",
				"bytecode": {
					"linkReferences": {},
					"object": "6080604052600060035534801561001557600080fd5b50610c28806100256000396000f3fe608060405234801561001057600080fd5b50600436106100625760003560e01c8063169134691461006757806317d7de7c1461008557806322a9d1bc146100a35780633ae7dc1a146100bf578063a0441f29146100dd578063ee8b7cd9146100f9575b600080fd5b61006f610115565b60405161007c91906108d6565b60405180910390f35b61008d61011b565b60405161009a9190610894565b60405180910390f35b6100bd60048036038101906100b89190610744565b61024b565b005b6100c7610477565b6040516100d49190610879565b60405180910390f35b6100f760048036038101906100f291906106ce565b6104db565b005b610113600480360381019061010e91906106fb565b61054d565b005b60035481565b6060600115156000803373ffffffffffffffffffffffffffffffffffffffff1673ffffffffffffffffffffffffffffffffffffffff16815260200190815260200160002060030160149054906101000a900460ff1615151461017c57600080fd5b6000803373ffffffffffffffffffffffffffffffffffffffff1673ffffffffffffffffffffffffffffffffffffffff16815260200190815260200160002060000180546101c890610a77565b80601f01602080910402602001604051908101604052809291908181526020018280546101f490610a77565b80156102415780601f1061021657610100808354040283529160200191610241565b820191906000526020600020905b81548152906001019060200180831161022457829003601f168201915b5050505050905090565b600015156000808373ffffffffffffffffffffffffffffffffffffffff1673ffffffffffffffffffffffffffffffffffffffff16815260200190815260200160002060030160149054906101000a900460ff161515146102e0576040517f08c379a00000000000000000000000000000000000000000000000000000000081526004016102d7906108b6565b60405180910390fd5b60006040518060a001604052808681526020018581526020018481526020018373ffffffffffffffffffffffffffffffffffffffff168152602001600115158152509050806000808473ffffffffffffffffffffffffffffffffffffffff1673ffffffffffffffffffffffffffffffffffffffff168152602001908152602001600020600082015181600001908051906020019061037f9291906105a6565b50602082015181600101908051906020019061039c9291906105a6565b5060408201518160020190805190602001906103b99291906105a6565b5060608201518160030160006101000a81548173ffffffffffffffffffffffffffffffffffffffff021916908373ffffffffffffffffffffffffffffffffffffffff16021790555060808201518160030160146101000a81548160ff02191690831515021790555090505060016003546104339190610963565b6003819055507fb3455b03a6e133be9b93e8f000fd0c9252e1178a557652af2f19aafde3382b27856040516104689190610894565b60405180910390a15050505050565b60008060003373ffffffffffffffffffffffffffffffffffffffff1673ffffffffffffffffffffffffffffffffffffffff16815260200190815260200160002060030160149054906101000a900460ff166104d35760006104d6565b60015b905090565b60008060008373ffffffffffffffffffffffffffffffffffffffff1673ffffffffffffffffffffffffffffffffffffffff16815260200190815260200160002060030160146101000a81548160ff021916908315150217905550600160035461054491906109b9565b60038190555050565b806000803373ffffffffffffffffffffffffffffffffffffffff1673ffffffffffffffffffffffffffffffffffffffff16815260200190815260200160002060000190805190602001906105a29291906105a6565b5050565b8280546105b290610a77565b90600052602060002090601f0160209004810192826105d4576000855561061b565b82601f106105ed57805160ff191683800117855561061b565b8280016001018555821561061b579182015b8281111561061a5782518255916020019190600101906105ff565b5b509050610628919061062c565b5090565b5b8082111561064557600081600090555060010161062d565b5090565b600061065c61065784610916565b6108f1565b90508281526020810184848401111561067857610677610b6c565b5b610683848285610a35565b509392505050565b60008135905061069a81610bdb565b92915050565b600082601f8301126106b5576106b4610b67565b5b81356106c5848260208601610649565b91505092915050565b6000602082840312156106e4576106e3610b76565b5b60006106f28482850161068b565b91505092915050565b60006020828403121561071157610710610b76565b5b600082013567ffffffffffffffff81111561072f5761072e610b71565b5b61073b848285016106a0565b91505092915050565b6000806000806080858703121561075e5761075d610b76565b5b600085013567ffffffffffffffff81111561077c5761077b610b71565b5b610788878288016106a0565b945050602085013567ffffffffffffffff8111156107a9576107a8610b71565b5b6107b5878288016106a0565b935050604085013567ffffffffffffffff8111156107d6576107d5610b71565b5b6107e2878288016106a0565b92505060606107f38782880161068b565b91505092959194509250565b610808816109ff565b82525050565b600061081982610947565b6108238185610952565b9350610833818560208601610a44565b61083c81610b7b565b840191505092915050565b6000610854602183610952565b915061085f82610b8c565b604082019050919050565b61087381610a2b565b82525050565b600060208201905061088e60008301846107ff565b92915050565b600060208201905081810360008301526108ae818461080e565b905092915050565b600060208201905081810360008301526108cf81610847565b9050919050565b60006020820190506108eb600083018461086a565b92915050565b60006108fb61090c565b90506109078282610aa9565b919050565b6000604051905090565b600067ffffffffffffffff82111561093157610930610b38565b5b61093a82610b7b565b9050602081019050919050565b600081519050919050565b600082825260208201905092915050565b600061096e82610a2b565b915061097983610a2b565b9250827fffffffffffffffffffffffffffffffffffffffffffffffffffffffffffffffff038211156109ae576109ad610ada565b5b828201905092915050565b60006109c482610a2b565b91506109cf83610a2b565b9250828210156109e2576109e1610ada565b5b828203905092915050565b60006109f882610a0b565b9050919050565b60008115159050919050565b600073ffffffffffffffffffffffffffffffffffffffff82169050919050565b6000819050919050565b82818337600083830152505050565b60005b83811015610a62578082015181840152602081019050610a47565b83811115610a71576000848401525b50505050565b60006002820490506001821680610a8f57607f821691505b60208210811415610aa357610aa2610b09565b5b50919050565b610ab282610b7b565b810181811067ffffffffffffffff82111715610ad157610ad0610b38565b5b80604052505050565b7f4e487b7100000000000000000000000000000000000000000000000000000000600052601160045260246000fd5b7f4e487b7100000000000000000000000000000000000000000000000000000000600052602260045260246000fd5b7f4e487b7100000000000000000000000000000000000000000000000000000000600052604160045260246000fd5b600080fd5b600080fd5b600080fd5b600080fd5b6000601f19601f8301169050919050565b7f43616e6e6f7420637265617465206d6f7265207468616e20312070726f66696c60008201527f6500000000000000000000000000000000000000000000000000000000000000602082015250565b610be4816109ed565b8114610bef57600080fd5b5056fea26469706673582212203ec87085ba8c6b88be48e0773b5b63866aa92e9a15197d3cbe079ccc21a8b80364736f6c63430008070033",
					"opcodes": "PUSH1 0x80 PUSH1 0x40 MSTORE PUSH1 0x0 PUSH1 0x3 SSTORE CALLVALUE DUP1 ISZERO PUSH2 0x15 JUMPI PUSH1 0x0 DUP1 REVERT JUMPDEST POP PUSH2 0xC28 DUP1 PUSH2 0x25 PUSH1 0x0 CODECOPY PUSH1 0x0 RETURN INVALID PUSH1 0x80 PUSH1 0x40 MSTORE CALLVALUE DUP1 ISZERO PUSH2 0x10 JUMPI PUSH1 0x0 DUP1 REVERT JUMPDEST POP PUSH1 0x4 CALLDATASIZE LT PUSH2 0x62 JUMPI PUSH1 0x0 CALLDATALOAD PUSH1 0xE0 SHR DUP1 PUSH4 0x16913469 EQ PUSH2 0x67 JUMPI DUP1 PUSH4 0x17D7DE7C EQ PUSH2 0x85 JUMPI DUP1 PUSH4 0x22A9D1BC EQ PUSH2 0xA3 JUMPI DUP1 PUSH4 0x3AE7DC1A EQ PUSH2 0xBF JUMPI DUP1 PUSH4 0xA0441F29 EQ PUSH2 0xDD JUMPI DUP1 PUSH4 0xEE8B7CD9 EQ PUSH2 0xF9 JUMPI JUMPDEST PUSH1 0x0 DUP1 REVERT JUMPDEST PUSH2 0x6F PUSH2 0x115 JUMP JUMPDEST PUSH1 0x40 MLOAD PUSH2 0x7C SWAP2 SWAP1 PUSH2 0x8D6 JUMP JUMPDEST PUSH1 0x40 MLOAD DUP1 SWAP2 SUB SWAP1 RETURN JUMPDEST PUSH2 0x8D PUSH2 0x11B JUMP JUMPDEST PUSH1 0x40 MLOAD PUSH2 0x9A SWAP2 SWAP1 PUSH2 0x894 JUMP JUMPDEST PUSH1 0x40 MLOAD DUP1 SWAP2 SUB SWAP1 RETURN JUMPDEST PUSH2 0xBD PUSH1 0x4 DUP1 CALLDATASIZE SUB DUP2 ADD SWAP1 PUSH2 0xB8 SWAP2 SWAP1 PUSH2 0x744 JUMP JUMPDEST PUSH2 0x24B JUMP JUMPDEST STOP JUMPDEST PUSH2 0xC7 PUSH2 0x477 JUMP JUMPDEST PUSH1 0x40 MLOAD PUSH2 0xD4 SWAP2 SWAP1 PUSH2 0x879 JUMP JUMPDEST PUSH1 0x40 MLOAD DUP1 SWAP2 SUB SWAP1 RETURN JUMPDEST PUSH2 0xF7 PUSH1 0x4 DUP1 CALLDATASIZE SUB DUP2 ADD SWAP1 PUSH2 0xF2 SWAP2 SWAP1 PUSH2 0x6CE JUMP JUMPDEST PUSH2 0x4DB JUMP JUMPDEST STOP JUMPDEST PUSH2 0x113 PUSH1 0x4 DUP1 CALLDATASIZE SUB DUP2 ADD SWAP1 PUSH2 0x10E SWAP2 SWAP1 PUSH2 0x6FB JUMP JUMPDEST PUSH2 0x54D JUMP JUMPDEST STOP JUMPDEST PUSH1 0x3 SLOAD DUP2 JUMP JUMPDEST PUSH1 0x60 PUSH1 0x1 ISZERO ISZERO PUSH1 0x0 DUP1 CALLER PUSH20 0xFFFFFFFFFFFFFFFFFFFFFFFFFFFFFFFFFFFFFFFF AND PUSH20 0xFFFFFFFFFFFFFFFFFFFFFFFFFFFFFFFFFFFFFFFF AND DUP2 MSTORE PUSH1 0x20 ADD SWAP1 DUP2 MSTORE PUSH1 0x20 ADD PUSH1 0x0 KECCAK256 PUSH1 0x3 ADD PUSH1 0x14 SWAP1 SLOAD SWAP1 PUSH2 0x100 EXP SWAP1 DIV PUSH1 0xFF AND ISZERO ISZERO EQ PUSH2 0x17C JUMPI PUSH1 0x0 DUP1 REVERT JUMPDEST PUSH1 0x0 DUP1 CALLER PUSH20 0xFFFFFFFFFFFFFFFFFFFFFFFFFFFFFFFFFFFFFFFF AND PUSH20 0xFFFFFFFFFFFFFFFFFFFFFFFFFFFFFFFFFFFFFFFF AND DUP2 MSTORE PUSH1 0x20 ADD SWAP1 DUP2 MSTORE PUSH1 0x20 ADD PUSH1 0x0 KECCAK256 PUSH1 0x0 ADD DUP1 SLOAD PUSH2 0x1C8 SWAP1 PUSH2 0xA77 JUMP JUMPDEST DUP1 PUSH1 0x1F ADD PUSH1 0x20 DUP1 SWAP2 DIV MUL PUSH1 0x20 ADD PUSH1 0x40 MLOAD SWAP1 DUP2 ADD PUSH1 0x40 MSTORE DUP1 SWAP3 SWAP2 SWAP1 DUP2 DUP2 MSTORE PUSH1 0x20 ADD DUP3 DUP1 SLOAD PUSH2 0x1F4 SWAP1 PUSH2 0xA77 JUMP JUMPDEST DUP1 ISZERO PUSH2 0x241 JUMPI DUP1 PUSH1 0x1F LT PUSH2 0x216 JUMPI PUSH2 0x100 DUP1 DUP4 SLOAD DIV MUL DUP4 MSTORE SWAP2 PUSH1 0x20 ADD SWAP2 PUSH2 0x241 JUMP JUMPDEST DUP3 ADD SWAP2 SWAP1 PUSH1 0x0 MSTORE PUSH1 0x20 PUSH1 0x0 KECCAK256 SWAP1 JUMPDEST DUP2 SLOAD DUP2 MSTORE SWAP1 PUSH1 0x1 ADD SWAP1 PUSH1 0x20 ADD DUP1 DUP4 GT PUSH2 0x224 JUMPI DUP3 SWAP1 SUB PUSH1 0x1F AND DUP3 ADD SWAP2 JUMPDEST POP POP POP POP POP SWAP1 POP SWAP1 JUMP JUMPDEST PUSH1 0x0 ISZERO ISZERO PUSH1 0x0 DUP1 DUP4 PUSH20 0xFFFFFFFFFFFFFFFFFFFFFFFFFFFFFFFFFFFFFFFF AND PUSH20 0xFFFFFFFFFFFFFFFFFFFFFFFFFFFFFFFFFFFFFFFF AND DUP2 MSTORE PUSH1 0x20 ADD SWAP1 DUP2 MSTORE PUSH1 0x20 ADD PUSH1 0x0 KECCAK256 PUSH1 0x3 ADD PUSH1 0x14 SWAP1 SLOAD SWAP1 PUSH2 0x100 EXP SWAP1 DIV PUSH1 0xFF AND ISZERO ISZERO EQ PUSH2 0x2E0 JUMPI PUSH1 0x40 MLOAD PUSH32 0x8C379A000000000000000000000000000000000000000000000000000000000 DUP2 MSTORE PUSH1 0x4 ADD PUSH2 0x2D7 SWAP1 PUSH2 0x8B6 JUMP JUMPDEST PUSH1 0x40 MLOAD DUP1 SWAP2 SUB SWAP1 REVERT JUMPDEST PUSH1 0x0 PUSH1 0x40 MLOAD DUP1 PUSH1 0xA0 ADD PUSH1 0x40 MSTORE DUP1 DUP7 DUP2 MSTORE PUSH1 0x20 ADD DUP6 DUP2 MSTORE PUSH1 0x20 ADD DUP5 DUP2 MSTORE PUSH1 0x20 ADD DUP4 PUSH20 0xFFFFFFFFFFFFFFFFFFFFFFFFFFFFFFFFFFFFFFFF AND DUP2 MSTORE PUSH1 0x20 ADD PUSH1 0x1 ISZERO ISZERO DUP2 MSTORE POP SWAP1 POP DUP1 PUSH1 0x0 DUP1 DUP5 PUSH20 0xFFFFFFFFFFFFFFFFFFFFFFFFFFFFFFFFFFFFFFFF AND PUSH20 0xFFFFFFFFFFFFFFFFFFFFFFFFFFFFFFFFFFFFFFFF AND DUP2 MSTORE PUSH1 0x20 ADD SWAP1 DUP2 MSTORE PUSH1 0x20 ADD PUSH1 0x0 KECCAK256 PUSH1 0x0 DUP3 ADD MLOAD DUP2 PUSH1 0x0 ADD SWAP1 DUP1 MLOAD SWAP1 PUSH1 0x20 ADD SWAP1 PUSH2 0x37F SWAP3 SWAP2 SWAP1 PUSH2 0x5A6 JUMP JUMPDEST POP PUSH1 0x20 DUP3 ADD MLOAD DUP2 PUSH1 0x1 ADD SWAP1 DUP1 MLOAD SWAP1 PUSH1 0x20 ADD SWAP1 PUSH2 0x39C SWAP3 SWAP2 SWAP1 PUSH2 0x5A6 JUMP JUMPDEST POP PUSH1 0x40 DUP3 ADD MLOAD DUP2 PUSH1 0x2 ADD SWAP1 DUP1 MLOAD SWAP1 PUSH1 0x20 ADD SWAP1 PUSH2 0x3B9 SWAP3 SWAP2 SWAP1 PUSH2 0x5A6 JUMP JUMPDEST POP PUSH1 0x60 DUP3 ADD MLOAD DUP2 PUSH1 0x3 ADD PUSH1 0x0 PUSH2 0x100 EXP DUP2 SLOAD DUP2 PUSH20 0xFFFFFFFFFFFFFFFFFFFFFFFFFFFFFFFFFFFFFFFF MUL NOT AND SWAP1 DUP4 PUSH20 0xFFFFFFFFFFFFFFFFFFFFFFFFFFFFFFFFFFFFFFFF AND MUL OR SWAP1 SSTORE POP PUSH1 0x80 DUP3 ADD MLOAD DUP2 PUSH1 0x3 ADD PUSH1 0x14 PUSH2 0x100 EXP DUP2 SLOAD DUP2 PUSH1 0xFF MUL NOT AND SWAP1 DUP4 ISZERO ISZERO MUL OR SWAP1 SSTORE POP SWAP1 POP POP PUSH1 0x1 PUSH1 0x3 SLOAD PUSH2 0x433 SWAP2 SWAP1 PUSH2 0x963 JUMP JUMPDEST PUSH1 0x3 DUP2 SWAP1 SSTORE POP PUSH32 0xB3455B03A6E133BE9B93E8F000FD0C9252E1178A557652AF2F19AAFDE3382B27 DUP6 PUSH1 0x40 MLOAD PUSH2 0x468 SWAP2 SWAP1 PUSH2 0x894 JUMP JUMPDEST PUSH1 0x40 MLOAD DUP1 SWAP2 SUB SWAP1 LOG1 POP POP POP POP POP JUMP JUMPDEST PUSH1 0x0 DUP1 PUSH1 0x0 CALLER PUSH20 0xFFFFFFFFFFFFFFFFFFFFFFFFFFFFFFFFFFFFFFFF AND PUSH20 0xFFFFFFFFFFFFFFFFFFFFFFFFFFFFFFFFFFFFFFFF AND DUP2 MSTORE PUSH1 0x20 ADD SWAP1 DUP2 MSTORE PUSH1 0x20 ADD PUSH1 0x0 KECCAK256 PUSH1 0x3 ADD PUSH1 0x14 SWAP1 SLOAD SWAP1 PUSH2 0x100 EXP SWAP1 DIV PUSH1 0xFF AND PUSH2 0x4D3 JUMPI PUSH1 0x0 PUSH2 0x4D6 JUMP JUMPDEST PUSH1 0x1 JUMPDEST SWAP1 POP SWAP1 JUMP JUMPDEST PUSH1 0x0 DUP1 PUSH1 0x0 DUP4 PUSH20 0xFFFFFFFFFFFFFFFFFFFFFFFFFFFFFFFFFFFFFFFF AND PUSH20 0xFFFFFFFFFFFFFFFFFFFFFFFFFFFFFFFFFFFFFFFF AND DUP2 MSTORE PUSH1 0x20 ADD SWAP1 DUP2 MSTORE PUSH1 0x20 ADD PUSH1 0x0 KECCAK256 PUSH1 0x3 ADD PUSH1 0x14 PUSH2 0x100 EXP DUP2 SLOAD DUP2 PUSH1 0xFF MUL NOT AND SWAP1 DUP4 ISZERO ISZERO MUL OR SWAP1 SSTORE POP PUSH1 0x1 PUSH1 0x3 SLOAD PUSH2 0x544 SWAP2 SWAP1 PUSH2 0x9B9 JUMP JUMPDEST PUSH1 0x3 DUP2 SWAP1 SSTORE POP POP JUMP JUMPDEST DUP1 PUSH1 0x0 DUP1 CALLER PUSH20 0xFFFFFFFFFFFFFFFFFFFFFFFFFFFFFFFFFFFFFFFF AND PUSH20 0xFFFFFFFFFFFFFFFFFFFFFFFFFFFFFFFFFFFFFFFF AND DUP2 MSTORE PUSH1 0x20 ADD SWAP1 DUP2 MSTORE PUSH1 0x20 ADD PUSH1 0x0 KECCAK256 PUSH1 0x0 ADD SWAP1 DUP1 MLOAD SWAP1 PUSH1 0x20 ADD SWAP1 PUSH2 0x5A2 SWAP3 SWAP2 SWAP1 PUSH2 0x5A6 JUMP JUMPDEST POP POP JUMP JUMPDEST DUP3 DUP1 SLOAD PUSH2 0x5B2 SWAP1 PUSH2 0xA77 JUMP JUMPDEST SWAP1 PUSH1 0x0 MSTORE PUSH1 0x20 PUSH1 0x0 KECCAK256 SWAP1 PUSH1 0x1F ADD PUSH1 0x20 SWAP1 DIV DUP2 ADD SWAP3 DUP3 PUSH2 0x5D4 JUMPI PUSH1 0x0 DUP6 SSTORE PUSH2 0x61B JUMP JUMPDEST DUP3 PUSH1 0x1F LT PUSH2 0x5ED JUMPI DUP1 MLOAD PUSH1 0xFF NOT AND DUP4 DUP1 ADD OR DUP6 SSTORE PUSH2 0x61B JUMP JUMPDEST DUP3 DUP1 ADD PUSH1 0x1 ADD DUP6 SSTORE DUP3 ISZERO PUSH2 0x61B JUMPI SWAP2 DUP3 ADD JUMPDEST DUP3 DUP2 GT ISZERO PUSH2 0x61A JUMPI DUP3 MLOAD DUP3 SSTORE SWAP2 PUSH1 0x20 ADD SWAP2 SWAP1 PUSH1 0x1 ADD SWAP1 PUSH2 0x5FF JUMP JUMPDEST JUMPDEST POP SWAP1 POP PUSH2 0x628 SWAP2 SWAP1 PUSH2 0x62C JUMP JUMPDEST POP SWAP1 JUMP JUMPDEST JUMPDEST DUP1 DUP3 GT ISZERO PUSH2 0x645 JUMPI PUSH1 0x0 DUP2 PUSH1 0x0 SWAP1 SSTORE POP PUSH1 0x1 ADD PUSH2 0x62D JUMP JUMPDEST POP SWAP1 JUMP JUMPDEST PUSH1 0x0 PUSH2 0x65C PUSH2 0x657 DUP5 PUSH2 0x916 JUMP JUMPDEST PUSH2 0x8F1 JUMP JUMPDEST SWAP1 POP DUP3 DUP2 MSTORE PUSH1 0x20 DUP2 ADD DUP5 DUP5 DUP5 ADD GT ISZERO PUSH2 0x678 JUMPI PUSH2 0x677 PUSH2 0xB6C JUMP JUMPDEST JUMPDEST PUSH2 0x683 DUP5 DUP3 DUP6 PUSH2 0xA35 JUMP JUMPDEST POP SWAP4 SWAP3 POP POP POP JUMP JUMPDEST PUSH1 0x0 DUP2 CALLDATALOAD SWAP1 POP PUSH2 0x69A DUP2 PUSH2 0xBDB JUMP JUMPDEST SWAP3 SWAP2 POP POP JUMP JUMPDEST PUSH1 0x0 DUP3 PUSH1 0x1F DUP4 ADD SLT PUSH2 0x6B5 JUMPI PUSH2 0x6B4 PUSH2 0xB67 JUMP JUMPDEST JUMPDEST DUP2 CALLDATALOAD PUSH2 0x6C5 DUP5 DUP3 PUSH1 0x20 DUP7 ADD PUSH2 0x649 JUMP JUMPDEST SWAP2 POP POP SWAP3 SWAP2 POP POP JUMP JUMPDEST PUSH1 0x0 PUSH1 0x20 DUP3 DUP5 SUB SLT ISZERO PUSH2 0x6E4 JUMPI PUSH2 0x6E3 PUSH2 0xB76 JUMP JUMPDEST JUMPDEST PUSH1 0x0 PUSH2 0x6F2 DUP5 DUP3 DUP6 ADD PUSH2 0x68B JUMP JUMPDEST SWAP2 POP POP SWAP3 SWAP2 POP POP JUMP JUMPDEST PUSH1 0x0 PUSH1 0x20 DUP3 DUP5 SUB SLT ISZERO PUSH2 0x711 JUMPI PUSH2 0x710 PUSH2 0xB76 JUMP JUMPDEST JUMPDEST PUSH1 0x0 DUP3 ADD CALLDATALOAD PUSH8 0xFFFFFFFFFFFFFFFF DUP2 GT ISZERO PUSH2 0x72F JUMPI PUSH2 0x72E PUSH2 0xB71 JUMP JUMPDEST JUMPDEST PUSH2 0x73B DUP5 DUP3 DUP6 ADD PUSH2 0x6A0 JUMP JUMPDEST SWAP2 POP POP SWAP3 SWAP2 POP POP JUMP JUMPDEST PUSH1 0x0 DUP1 PUSH1 0x0 DUP1 PUSH1 0x80 DUP6 DUP8 SUB SLT ISZERO PUSH2 0x75E JUMPI PUSH2 0x75D PUSH2 0xB76 JUMP JUMPDEST JUMPDEST PUSH1 0x0 DUP6 ADD CALLDATALOAD PUSH8 0xFFFFFFFFFFFFFFFF DUP2 GT ISZERO PUSH2 0x77C JUMPI PUSH2 0x77B PUSH2 0xB71 JUMP JUMPDEST JUMPDEST PUSH2 0x788 DUP8 DUP3 DUP9 ADD PUSH2 0x6A0 JUMP JUMPDEST SWAP5 POP POP PUSH1 0x20 DUP6 ADD CALLDATALOAD PUSH8 0xFFFFFFFFFFFFFFFF DUP2 GT ISZERO PUSH2 0x7A9 JUMPI PUSH2 0x7A8 PUSH2 0xB71 JUMP JUMPDEST JUMPDEST PUSH2 0x7B5 DUP8 DUP3 DUP9 ADD PUSH2 0x6A0 JUMP JUMPDEST SWAP4 POP POP PUSH1 0x40 DUP6 ADD CALLDATALOAD PUSH8 0xFFFFFFFFFFFFFFFF DUP2 GT ISZERO PUSH2 0x7D6 JUMPI PUSH2 0x7D5 PUSH2 0xB71 JUMP JUMPDEST JUMPDEST PUSH2 0x7E2 DUP8 DUP3 DUP9 ADD PUSH2 0x6A0 JUMP JUMPDEST SWAP3 POP POP PUSH1 0x60 PUSH2 0x7F3 DUP8 DUP3 DUP9 ADD PUSH2 0x68B JUMP JUMPDEST SWAP2 POP POP SWAP3 SWAP6 SWAP2 SWAP5 POP SWAP3 POP JUMP JUMPDEST PUSH2 0x808 DUP2 PUSH2 0x9FF JUMP JUMPDEST DUP3 MSTORE POP POP JUMP JUMPDEST PUSH1 0x0 PUSH2 0x819 DUP3 PUSH2 0x947 JUMP JUMPDEST PUSH2 0x823 DUP2 DUP6 PUSH2 0x952 JUMP JUMPDEST SWAP4 POP PUSH2 0x833 DUP2 DUP6 PUSH1 0x20 DUP7 ADD PUSH2 0xA44 JUMP JUMPDEST PUSH2 0x83C DUP2 PUSH2 0xB7B JUMP JUMPDEST DUP5 ADD SWAP2 POP POP SWAP3 SWAP2 POP POP JUMP JUMPDEST PUSH1 0x0 PUSH2 0x854 PUSH1 0x21 DUP4 PUSH2 0x952 JUMP JUMPDEST SWAP2 POP PUSH2 0x85F DUP3 PUSH2 0xB8C JUMP JUMPDEST PUSH1 0x40 DUP3 ADD SWAP1 POP SWAP2 SWAP1 POP JUMP JUMPDEST PUSH2 0x873 DUP2 PUSH2 0xA2B JUMP JUMPDEST DUP3 MSTORE POP POP JUMP JUMPDEST PUSH1 0x0 PUSH1 0x20 DUP3 ADD SWAP1 POP PUSH2 0x88E PUSH1 0x0 DUP4 ADD DUP5 PUSH2 0x7FF JUMP JUMPDEST SWAP3 SWAP2 POP POP JUMP JUMPDEST PUSH1 0x0 PUSH1 0x20 DUP3 ADD SWAP1 POP DUP2 DUP2 SUB PUSH1 0x0 DUP4 ADD MSTORE PUSH2 0x8AE DUP2 DUP5 PUSH2 0x80E JUMP JUMPDEST SWAP1 POP SWAP3 SWAP2 POP POP JUMP JUMPDEST PUSH1 0x0 PUSH1 0x20 DUP3 ADD SWAP1 POP DUP2 DUP2 SUB PUSH1 0x0 DUP4 ADD MSTORE PUSH2 0x8CF DUP2 PUSH2 0x847 JUMP JUMPDEST SWAP1 POP SWAP2 SWAP1 POP JUMP JUMPDEST PUSH1 0x0 PUSH1 0x20 DUP3 ADD SWAP1 POP PUSH2 0x8EB PUSH1 0x0 DUP4 ADD DUP5 PUSH2 0x86A JUMP JUMPDEST SWAP3 SWAP2 POP POP JUMP JUMPDEST PUSH1 0x0 PUSH2 0x8FB PUSH2 0x90C JUMP JUMPDEST SWAP1 POP PUSH2 0x907 DUP3 DUP3 PUSH2 0xAA9 JUMP JUMPDEST SWAP2 SWAP1 POP JUMP JUMPDEST PUSH1 0x0 PUSH1 0x40 MLOAD SWAP1 POP SWAP1 JUMP JUMPDEST PUSH1 0x0 PUSH8 0xFFFFFFFFFFFFFFFF DUP3 GT ISZERO PUSH2 0x931 JUMPI PUSH2 0x930 PUSH2 0xB38 JUMP JUMPDEST JUMPDEST PUSH2 0x93A DUP3 PUSH2 0xB7B JUMP JUMPDEST SWAP1 POP PUSH1 0x20 DUP2 ADD SWAP1 POP SWAP2 SWAP1 POP JUMP JUMPDEST PUSH1 0x0 DUP2 MLOAD SWAP1 POP SWAP2 SWAP1 POP JUMP JUMPDEST PUSH1 0x0 DUP3 DUP3 MSTORE PUSH1 0x20 DUP3 ADD SWAP1 POP SWAP3 SWAP2 POP POP JUMP JUMPDEST PUSH1 0x0 PUSH2 0x96E DUP3 PUSH2 0xA2B JUMP JUMPDEST SWAP2 POP PUSH2 0x979 DUP4 PUSH2 0xA2B JUMP JUMPDEST SWAP3 POP DUP3 PUSH32 0xFFFFFFFFFFFFFFFFFFFFFFFFFFFFFFFFFFFFFFFFFFFFFFFFFFFFFFFFFFFFFFFF SUB DUP3 GT ISZERO PUSH2 0x9AE JUMPI PUSH2 0x9AD PUSH2 0xADA JUMP JUMPDEST JUMPDEST DUP3 DUP3 ADD SWAP1 POP SWAP3 SWAP2 POP POP JUMP JUMPDEST PUSH1 0x0 PUSH2 0x9C4 DUP3 PUSH2 0xA2B JUMP JUMPDEST SWAP2 POP PUSH2 0x9CF DUP4 PUSH2 0xA2B JUMP JUMPDEST SWAP3 POP DUP3 DUP3 LT ISZERO PUSH2 0x9E2 JUMPI PUSH2 0x9E1 PUSH2 0xADA JUMP JUMPDEST JUMPDEST DUP3 DUP3 SUB SWAP1 POP SWAP3 SWAP2 POP POP JUMP JUMPDEST PUSH1 0x0 PUSH2 0x9F8 DUP3 PUSH2 0xA0B JUMP JUMPDEST SWAP1 POP SWAP2 SWAP1 POP JUMP JUMPDEST PUSH1 0x0 DUP2 ISZERO ISZERO SWAP1 POP SWAP2 SWAP1 POP JUMP JUMPDEST PUSH1 0x0 PUSH20 0xFFFFFFFFFFFFFFFFFFFFFFFFFFFFFFFFFFFFFFFF DUP3 AND SWAP1 POP SWAP2 SWAP1 POP JUMP JUMPDEST PUSH1 0x0 DUP2 SWAP1 POP SWAP2 SWAP1 POP JUMP JUMPDEST DUP3 DUP2 DUP4 CALLDATACOPY PUSH1 0x0 DUP4 DUP4 ADD MSTORE POP POP POP JUMP JUMPDEST PUSH1 0x0 JUMPDEST DUP4 DUP2 LT ISZERO PUSH2 0xA62 JUMPI DUP1 DUP3 ADD MLOAD DUP2 DUP5 ADD MSTORE PUSH1 0x20 DUP2 ADD SWAP1 POP PUSH2 0xA47 JUMP JUMPDEST DUP4 DUP2 GT ISZERO PUSH2 0xA71 JUMPI PUSH1 0x0 DUP5 DUP5 ADD MSTORE JUMPDEST POP POP POP POP JUMP JUMPDEST PUSH1 0x0 PUSH1 0x2 DUP3 DIV SWAP1 POP PUSH1 0x1 DUP3 AND DUP1 PUSH2 0xA8F JUMPI PUSH1 0x7F DUP3 AND SWAP2 POP JUMPDEST PUSH1 0x20 DUP3 LT DUP2 EQ ISZERO PUSH2 0xAA3 JUMPI PUSH2 0xAA2 PUSH2 0xB09 JUMP JUMPDEST JUMPDEST POP SWAP2 SWAP1 POP JUMP JUMPDEST PUSH2 0xAB2 DUP3 PUSH2 0xB7B JUMP JUMPDEST DUP2 ADD DUP2 DUP2 LT PUSH8 0xFFFFFFFFFFFFFFFF DUP3 GT OR ISZERO PUSH2 0xAD1 JUMPI PUSH2 0xAD0 PUSH2 0xB38 JUMP JUMPDEST JUMPDEST DUP1 PUSH1 0x40 MSTORE POP POP POP JUMP JUMPDEST PUSH32 0x4E487B7100000000000000000000000000000000000000000000000000000000 PUSH1 0x0 MSTORE PUSH1 0x11 PUSH1 0x4 MSTORE PUSH1 0x24 PUSH1 0x0 REVERT JUMPDEST PUSH32 0x4E487B7100000000000000000000000000000000000000000000000000000000 PUSH1 0x0 MSTORE PUSH1 0x22 PUSH1 0x4 MSTORE PUSH1 0x24 PUSH1 0x0 REVERT JUMPDEST PUSH32 0x4E487B7100000000000000000000000000000000000000000000000000000000 PUSH1 0x0 MSTORE PUSH1 0x41 PUSH1 0x4 MSTORE PUSH1 0x24 PUSH1 0x0 REVERT JUMPDEST PUSH1 0x0 DUP1 REVERT JUMPDEST PUSH1 0x0 DUP1 REVERT JUMPDEST PUSH1 0x0 DUP1 REVERT JUMPDEST PUSH1 0x0 DUP1 REVERT JUMPDEST PUSH1 0x0 PUSH1 0x1F NOT PUSH1 0x1F DUP4 ADD AND SWAP1 POP SWAP2 SWAP1 POP JUMP JUMPDEST PUSH32 0x43616E6E6F7420637265617465206D6F7265207468616E20312070726F66696C PUSH1 0x0 DUP3 ADD MSTORE PUSH32 0x6500000000000000000000000000000000000000000000000000000000000000 PUSH1 0x20 DUP3 ADD MSTORE POP JUMP JUMPDEST PUSH2 0xBE4 DUP2 PUSH2 0x9ED JUMP JUMPDEST DUP2 EQ PUSH2 0xBEF JUMPI PUSH1 0x0 DUP1 REVERT JUMPDEST POP JUMP INVALID LOG2 PUSH5 0x6970667358 0x22 SLT KECCAK256 RETURNDATACOPY 0xC8 PUSH17 0x85BA8C6B88BE48E0773B5B63866AA92E9A ISZERO NOT PUSH30 0x3CBE079CCC21A8B80364736F6C6343000807003300000000000000000000 "
				},
				"gasEstimates": {
					"creation": {
						"codeDepositCost": "622400",
						"executionCost": "5663",
						"totalCost": "628063"
					},
					"external": {
						"checkValidProfile()": "2696",
						"createProfile(string,string,string,address)": "infinite",
						"deleteProfile(address)": "infinite",
						"getName()": "infinite",
						"numProfile()": "2407",
						"updateProfileName(string)": "infinite"
					}
				},
				"methodIdentifiers": {
					"checkValidProfile()": "3ae7dc1a",
					"createProfile(string,string,string,address)": "22a9d1bc",
					"deleteProfile(address)": "a0441f29",
					"getName()": "17d7de7c",
					"numProfile()": "16913469",
					"updateProfileName(string)": "ee8b7cd9"
				}
			},
			"userdoc": {
				"kind": "user",
				"methods": {},
				"version": 1
			}
		}
	}
}