{
	"contracts/Profile.sol": {
		"Profile": {
			"abi": [
				{
					"anonymous": false,
					"inputs": [
						{
							"indexed": false,
							"internalType": "string",
							"name": "name",
							"type": "string"
						}
					],
					"name": "profileCreated",
					"type": "event"
				},
				{
					"anonymous": false,
					"inputs": [
						{
							"indexed": false,
							"internalType": "bool",
							"name": "successful",
							"type": "bool"
						}
					],
					"name": "serviceCreated",
					"type": "event"
				},
				{
					"inputs": [],
					"name": "checkValidProfile",
					"outputs": [
						{
							"internalType": "bool",
							"name": "",
							"type": "bool"
						}
					],
					"stateMutability": "view",
					"type": "function"
				},
				{
					"inputs": [
						{
							"internalType": "string",
							"name": "name",
							"type": "string"
						},
						{
							"internalType": "string",
							"name": "username",
							"type": "string"
						},
						{
							"internalType": "string",
							"name": "password",
							"type": "string"
						},
						{
							"internalType": "address",
							"name": "user",
							"type": "address"
						}
					],
					"name": "createProfile",
					"outputs": [],
					"stateMutability": "nonpayable",
					"type": "function"
				},
				{
					"inputs": [
						{
							"internalType": "address",
							"name": "user",
							"type": "address"
						}
					],
					"name": "deleteProfile",
					"outputs": [],
					"stateMutability": "nonpayable",
					"type": "function"
				},
				{
					"inputs": [],
					"name": "getName",
					"outputs": [
						{
							"internalType": "string",
							"name": "",
							"type": "string"
						}
					],
					"stateMutability": "view",
					"type": "function"
				},
				{
					"inputs": [],
					"name": "numProfile",
					"outputs": [
						{
							"internalType": "uint256",
							"name": "",
							"type": "uint256"
						}
					],
					"stateMutability": "view",
					"type": "function"
				},
				{
					"inputs": [
						{
							"internalType": "string",
							"name": "newName",
							"type": "string"
						}
					],
					"name": "updateProfileName",
					"outputs": [],
					"stateMutability": "nonpayable",
					"type": "function"
				}
			],
			"devdoc": {
				"kind": "dev",
				"methods": {},
				"version": 1
			},
			"evm": {
				"assembly": "    /* \"contracts/Profile.sol\":124:2192  contract Profile {... */\n  mstore(0x40, 0x80)\n    /* \"contracts/Profile.sol\":890:891  0 */\n  0x00\n    /* \"contracts/Profile.sol\":862:891  uint256 public numProfile = 0 */\n  0x03\n  sstore\n    /* \"contracts/Profile.sol\":124:2192  contract Profile {... */\n  callvalue\n  dup1\n  iszero\n  tag_1\n  jumpi\n  0x00\n  dup1\n  revert\ntag_1:\n  pop\n  dataSize(sub_0)\n  dup1\n  dataOffset(sub_0)\n  0x00\n  codecopy\n  0x00\n  return\nstop\n\nsub_0: assembly {\n        /* \"contracts/Profile.sol\":124:2192  contract Profile {... */\n      mstore(0x40, 0x80)\n      callvalue\n      dup1\n      iszero\n      tag_1\n      jumpi\n      0x00\n      dup1\n      revert\n    tag_1:\n      pop\n      jumpi(tag_2, lt(calldatasize, 0x04))\n      shr(0xe0, calldataload(0x00))\n      dup1\n      0x16913469\n      eq\n      tag_3\n      jumpi\n      dup1\n      0x17d7de7c\n      eq\n      tag_4\n      jumpi\n      dup1\n      0x22a9d1bc\n      eq\n      tag_5\n      jumpi\n      dup1\n      0x3ae7dc1a\n      eq\n      tag_6\n      jumpi\n      dup1\n      0xa0441f29\n      eq\n      tag_7\n      jumpi\n      dup1\n      0xee8b7cd9\n      eq\n      tag_8\n      jumpi\n    tag_2:\n      0x00\n      dup1\n      revert\n        /* \"contracts/Profile.sol\":862:891  uint256 public numProfile = 0 */\n    tag_3:\n      tag_9\n      tag_10\n      jump\t// in\n    tag_9:\n      mload(0x40)\n      tag_11\n      swap2\n      swap1\n      tag_12\n      jump\t// in\n    tag_11:\n      mload(0x40)\n      dup1\n      swap2\n      sub\n      swap1\n      return\n        /* \"contracts/Profile.sol\":1879:2004  function getName() external validProfile() view returns ( string memory) {... */\n    tag_4:\n      tag_13\n      tag_14\n      jump\t// in\n    tag_13:\n      mload(0x40)\n      tag_15\n      swap2\n      swap1\n      tag_16\n      jump\t// in\n    tag_15:\n      mload(0x40)\n      dup1\n      swap2\n      sub\n      swap1\n      return\n        /* \"contracts/Profile.sol\":989:1392  function createProfile(string memory name, string memory username, string memory password, address user)  external {... */\n    tag_5:\n      tag_17\n      0x04\n      dup1\n      calldatasize\n      sub\n      dup2\n      add\n      swap1\n      tag_18\n      swap2\n      swap1\n      tag_19\n      jump\t// in\n    tag_18:\n      tag_20\n      jump\t// in\n    tag_17:\n      stop\n        /* \"contracts/Profile.sol\":2063:2189  function checkValidProfile() public view returns (bool) {... */\n    tag_6:\n      tag_21\n      tag_22\n      jump\t// in\n    tag_21:\n      mload(0x40)\n      tag_23\n      swap2\n      swap1\n      tag_24\n      jump\t// in\n    tag_23:\n      mload(0x40)\n      dup1\n      swap2\n      sub\n      swap1\n      return\n        /* \"contracts/Profile.sol\":1439:1550  function deleteProfile(address user) external {... */\n    tag_7:\n      tag_25\n      0x04\n      dup1\n      calldatasize\n      sub\n      dup2\n      add\n      swap1\n      tag_26\n      swap2\n      swap1\n      tag_27\n      jump\t// in\n    tag_26:\n      tag_28\n      jump\t// in\n    tag_25:\n      stop\n        /* \"contracts/Profile.sol\":1597:1712  function updateProfileName(string memory newName) external {... */\n    tag_8:\n      tag_29\n      0x04\n      dup1\n      calldatasize\n      sub\n      dup2\n      add\n      swap1\n      tag_30\n      swap2\n      swap1\n      tag_31\n      jump\t// in\n    tag_30:\n      tag_32\n      jump\t// in\n    tag_29:\n      stop\n        /* \"contracts/Profile.sol\":862:891  uint256 public numProfile = 0 */\n    tag_10:\n      sload(0x03)\n      dup2\n      jump\t// out\n        /* \"contracts/Profile.sol\":1879:2004  function getName() external validProfile() view returns ( string memory) {... */\n    tag_14:\n        /* \"contracts/Profile.sol\":1937:1950  string memory */\n      0x60\n        /* \"contracts/Profile.sol\":1793:1797  true */\n      0x01\n        /* \"contracts/Profile.sol\":1758:1797  profileList[msg.sender].created == true */\n      iszero\n      iszero\n        /* \"contracts/Profile.sol\":1758:1769  profileList */\n      0x00\n        /* \"contracts/Profile.sol\":1758:1781  profileList[msg.sender] */\n      dup1\n        /* \"contracts/Profile.sol\":1770:1780  msg.sender */\n      caller\n        /* \"contracts/Profile.sol\":1758:1781  profileList[msg.sender] */\n      0xffffffffffffffffffffffffffffffffffffffff\n      and\n      0xffffffffffffffffffffffffffffffffffffffff\n      and\n      dup2\n      mstore\n      0x20\n      add\n      swap1\n      dup2\n      mstore\n      0x20\n      add\n      0x00\n      keccak256\n        /* \"contracts/Profile.sol\":1758:1789  profileList[msg.sender].created */\n      0x03\n      add\n      0x14\n      swap1\n      sload\n      swap1\n      0x0100\n      exp\n      swap1\n      div\n      0xff\n      and\n        /* \"contracts/Profile.sol\":1758:1797  profileList[msg.sender].created == true */\n      iszero\n      iszero\n      eq\n        /* \"contracts/Profile.sol\":1750:1798  require(profileList[msg.sender].created == true) */\n      tag_34\n      jumpi\n      0x00\n      dup1\n      revert\n    tag_34:\n        /* \"contracts/Profile.sol\":1969:1980  profileList */\n      0x00\n        /* \"contracts/Profile.sol\":1969:1992  profileList[msg.sender] */\n      dup1\n        /* \"contracts/Profile.sol\":1981:1991  msg.sender */\n      caller\n        /* \"contracts/Profile.sol\":1969:1992  profileList[msg.sender] */\n      0xffffffffffffffffffffffffffffffffffffffff\n      and\n      0xffffffffffffffffffffffffffffffffffffffff\n      and\n      dup2\n      mstore\n      0x20\n      add\n      swap1\n      dup2\n      mstore\n      0x20\n      add\n      0x00\n      keccak256\n        /* \"contracts/Profile.sol\":1969:1997  profileList[msg.sender].name */\n      0x00\n      add\n        /* \"contracts/Profile.sol\":1962:1997  return profileList[msg.sender].name */\n      dup1\n      sload\n      tag_36\n      swap1\n      tag_37\n      jump\t// in\n    tag_36:\n      dup1\n      0x1f\n      add\n      0x20\n      dup1\n      swap2\n      div\n      mul\n      0x20\n      add\n      mload(0x40)\n      swap1\n      dup2\n      add\n      0x40\n      mstore\n      dup1\n      swap3\n      swap2\n      swap1\n      dup2\n      dup2\n      mstore\n      0x20\n      add\n      dup3\n      dup1\n      sload\n      tag_38\n      swap1\n      tag_37\n      jump\t// in\n    tag_38:\n      dup1\n      iszero\n      tag_39\n      jumpi\n      dup1\n      0x1f\n      lt\n      tag_40\n      jumpi\n      0x0100\n      dup1\n      dup4\n      sload\n      div\n      mul\n      dup4\n      mstore\n      swap2\n      0x20\n      add\n      swap2\n      jump(tag_39)\n    tag_40:\n      dup3\n      add\n      swap2\n      swap1\n      0x00\n      mstore\n      keccak256(0x00, 0x20)\n      swap1\n    tag_41:\n      dup2\n      sload\n      dup2\n      mstore\n      swap1\n      0x01\n      add\n      swap1\n      0x20\n      add\n      dup1\n      dup4\n      gt\n      tag_41\n      jumpi\n      dup3\n      swap1\n      sub\n      0x1f\n      and\n      dup3\n      add\n      swap2\n    tag_39:\n      pop\n      pop\n      pop\n      pop\n      pop\n      swap1\n      pop\n        /* \"contracts/Profile.sol\":1879:2004  function getName() external validProfile() view returns ( string memory) {... */\n      swap1\n      jump\t// out\n        /* \"contracts/Profile.sol\":989:1392  function createProfile(string memory name, string memory username, string memory password, address user)  external {... */\n    tag_20:\n        /* \"contracts/Profile.sol\":1151:1156  false */\n      0x00\n        /* \"contracts/Profile.sol\":1122:1156  profileList[user].created == false */\n      iszero\n      iszero\n        /* \"contracts/Profile.sol\":1122:1133  profileList */\n      0x00\n        /* \"contracts/Profile.sol\":1122:1139  profileList[user] */\n      dup1\n        /* \"contracts/Profile.sol\":1134:1138  user */\n      dup4\n        /* \"contracts/Profile.sol\":1122:1139  profileList[user] */\n      0xffffffffffffffffffffffffffffffffffffffff\n      and\n      0xffffffffffffffffffffffffffffffffffffffff\n      and\n      dup2\n      mstore\n      0x20\n      add\n      swap1\n      dup2\n      mstore\n      0x20\n      add\n      0x00\n      keccak256\n        /* \"contracts/Profile.sol\":1122:1147  profileList[user].created */\n      0x03\n      add\n      0x14\n      swap1\n      sload\n      swap1\n      0x0100\n      exp\n      swap1\n      div\n      0xff\n      and\n        /* \"contracts/Profile.sol\":1122:1156  profileList[user].created == false */\n      iszero\n      iszero\n      eq\n        /* \"contracts/Profile.sol\":1114:1194  require(profileList[user].created == false, \"Cannot create more than 1 profile\") */\n      tag_43\n      jumpi\n      mload(0x40)\n      0x08c379a000000000000000000000000000000000000000000000000000000000\n      dup2\n      mstore\n      0x04\n      add\n      tag_44\n      swap1\n      tag_45\n      jump\t// in\n    tag_44:\n      mload(0x40)\n      dup1\n      swap2\n      sub\n      swap1\n      revert\n    tag_43:\n        /* \"contracts/Profile.sol\":1204:1229  profile memory newProfile */\n      0x00\n        /* \"contracts/Profile.sol\":1232:1273  profile(name,username,password,user,true) */\n      mload(0x40)\n      dup1\n      0xa0\n      add\n      0x40\n      mstore\n      dup1\n        /* \"contracts/Profile.sol\":1240:1244  name */\n      dup7\n        /* \"contracts/Profile.sol\":1232:1273  profile(name,username,password,user,true) */\n      dup2\n      mstore\n      0x20\n      add\n        /* \"contracts/Profile.sol\":1245:1253  username */\n      dup6\n        /* \"contracts/Profile.sol\":1232:1273  profile(name,username,password,user,true) */\n      dup2\n      mstore\n      0x20\n      add\n        /* \"contracts/Profile.sol\":1254:1262  password */\n      dup5\n        /* \"contracts/Profile.sol\":1232:1273  profile(name,username,password,user,true) */\n      dup2\n      mstore\n      0x20\n      add\n        /* \"contracts/Profile.sol\":1263:1267  user */\n      dup4\n        /* \"contracts/Profile.sol\":1232:1273  profile(name,username,password,user,true) */\n      0xffffffffffffffffffffffffffffffffffffffff\n      and\n      dup2\n      mstore\n      0x20\n      add\n        /* \"contracts/Profile.sol\":1268:1272  true */\n      0x01\n        /* \"contracts/Profile.sol\":1232:1273  profile(name,username,password,user,true) */\n      iszero\n      iszero\n      dup2\n      mstore\n      pop\n        /* \"contracts/Profile.sol\":1204:1273  profile memory newProfile = profile(name,username,password,user,true) */\n      swap1\n      pop\n        /* \"contracts/Profile.sol\":1303:1313  newProfile */\n      dup1\n        /* \"contracts/Profile.sol\":1283:1294  profileList */\n      0x00\n        /* \"contracts/Profile.sol\":1283:1300  profileList[user] */\n      dup1\n        /* \"contracts/Profile.sol\":1295:1299  user */\n      dup5\n        /* \"contracts/Profile.sol\":1283:1300  profileList[user] */\n      0xffffffffffffffffffffffffffffffffffffffff\n      and\n      0xffffffffffffffffffffffffffffffffffffffff\n      and\n      dup2\n      mstore\n      0x20\n      add\n      swap1\n      dup2\n      mstore\n      0x20\n      add\n      0x00\n      keccak256\n        /* \"contracts/Profile.sol\":1283:1313  profileList[user] = newProfile */\n      0x00\n      dup3\n      add\n      mload\n      dup2\n      0x00\n      add\n      swap1\n      dup1\n      mload\n      swap1\n      0x20\n      add\n      swap1\n      tag_46\n      swap3\n      swap2\n      swap1\n      tag_47\n      jump\t// in\n    tag_46:\n      pop\n      0x20\n      dup3\n      add\n      mload\n      dup2\n      0x01\n      add\n      swap1\n      dup1\n      mload\n      swap1\n      0x20\n      add\n      swap1\n      tag_48\n      swap3\n      swap2\n      swap1\n      tag_47\n      jump\t// in\n    tag_48:\n      pop\n      0x40\n      dup3\n      add\n      mload\n      dup2\n      0x02\n      add\n      swap1\n      dup1\n      mload\n      swap1\n      0x20\n      add\n      swap1\n      tag_49\n      swap3\n      swap2\n      swap1\n      tag_47\n      jump\t// in\n    tag_49:\n      pop\n      0x60\n      dup3\n      add\n      mload\n      dup2\n      0x03\n      add\n      exp(0x0100, 0x00)\n      dup2\n      sload\n      dup2\n      0xffffffffffffffffffffffffffffffffffffffff\n      mul\n      not\n      and\n      swap1\n      dup4\n      0xffffffffffffffffffffffffffffffffffffffff\n      and\n      mul\n      or\n      swap1\n      sstore\n      pop\n      0x80\n      dup3\n      add\n      mload\n      dup2\n      0x03\n      add\n      exp(0x0100, 0x14)\n      dup2\n      sload\n      dup2\n      0xff\n      mul\n      not\n      and\n      swap1\n      dup4\n      iszero\n      iszero\n      mul\n      or\n      swap1\n      sstore\n      pop\n      swap1\n      pop\n      pop\n        /* \"contracts/Profile.sol\":1349:1350  1 */\n      0x01\n        /* \"contracts/Profile.sol\":1336:1346  numProfile */\n      sload(0x03)\n        /* \"contracts/Profile.sol\":1336:1350  numProfile + 1 */\n      tag_50\n      swap2\n      swap1\n      tag_51\n      jump\t// in\n    tag_50:\n        /* \"contracts/Profile.sol\":1323:1333  numProfile */\n      0x03\n        /* \"contracts/Profile.sol\":1323:1350  numProfile = numProfile + 1 */\n      dup2\n      swap1\n      sstore\n      pop\n        /* \"contracts/Profile.sol\":1365:1385  profileCreated(name) */\n      0xb3455b03a6e133be9b93e8f000fd0c9252e1178a557652af2f19aafde3382b27\n        /* \"contracts/Profile.sol\":1380:1384  name */\n      dup6\n        /* \"contracts/Profile.sol\":1365:1385  profileCreated(name) */\n      mload(0x40)\n      tag_52\n      swap2\n      swap1\n      tag_16\n      jump\t// in\n    tag_52:\n      mload(0x40)\n      dup1\n      swap2\n      sub\n      swap1\n      log1\n        /* \"contracts/Profile.sol\":1104:1392  {... */\n      pop\n        /* \"contracts/Profile.sol\":989:1392  function createProfile(string memory name, string memory username, string memory password, address user)  external {... */\n      pop\n      pop\n      pop\n      pop\n      jump\t// out\n        /* \"contracts/Profile.sol\":2063:2189  function checkValidProfile() public view returns (bool) {... */\n    tag_22:\n        /* \"contracts/Profile.sol\":2113:2117  bool */\n      0x00\n        /* \"contracts/Profile.sol\":2136:2147  profileList */\n      dup1\n        /* \"contracts/Profile.sol\":2136:2159  profileList[msg.sender] */\n      0x00\n        /* \"contracts/Profile.sol\":2148:2158  msg.sender */\n      caller\n        /* \"contracts/Profile.sol\":2136:2159  profileList[msg.sender] */\n      0xffffffffffffffffffffffffffffffffffffffff\n      and\n      0xffffffffffffffffffffffffffffffffffffffff\n      and\n      dup2\n      mstore\n      0x20\n      add\n      swap1\n      dup2\n      mstore\n      0x20\n      add\n      0x00\n      keccak256\n        /* \"contracts/Profile.sol\":2136:2167  profileList[msg.sender].created */\n      0x03\n      add\n      0x14\n      swap1\n      sload\n      swap1\n      0x0100\n      exp\n      swap1\n      div\n      0xff\n      and\n        /* \"contracts/Profile.sol\":2136:2182  profileList[msg.sender].created ? true : false */\n      tag_54\n      jumpi\n        /* \"contracts/Profile.sol\":2177:2182  false */\n      0x00\n        /* \"contracts/Profile.sol\":2136:2182  profileList[msg.sender].created ? true : false */\n      jump(tag_55)\n    tag_54:\n        /* \"contracts/Profile.sol\":2170:2174  true */\n      0x01\n        /* \"contracts/Profile.sol\":2136:2182  profileList[msg.sender].created ? true : false */\n    tag_55:\n        /* \"contracts/Profile.sol\":2129:2182  return profileList[msg.sender].created ? true : false */\n      swap1\n      pop\n        /* \"contracts/Profile.sol\":2063:2189  function checkValidProfile() public view returns (bool) {... */\n      swap1\n      jump\t// out\n        /* \"contracts/Profile.sol\":1439:1550  function deleteProfile(address user) external {... */\n    tag_28:\n        /* \"contracts/Profile.sol\":1523:1528  false */\n      0x00\n        /* \"contracts/Profile.sol\":1495:1506  profileList */\n      dup1\n        /* \"contracts/Profile.sol\":1495:1512  profileList[user] */\n      0x00\n        /* \"contracts/Profile.sol\":1507:1511  user */\n      dup4\n        /* \"contracts/Profile.sol\":1495:1512  profileList[user] */\n      0xffffffffffffffffffffffffffffffffffffffff\n      and\n      0xffffffffffffffffffffffffffffffffffffffff\n      and\n      dup2\n      mstore\n      0x20\n      add\n      swap1\n      dup2\n      mstore\n      0x20\n      add\n      0x00\n      keccak256\n        /* \"contracts/Profile.sol\":1495:1520  profileList[user].created */\n      0x03\n      add\n      0x14\n        /* \"contracts/Profile.sol\":1495:1528  profileList[user].created = false */\n      0x0100\n      exp\n      dup2\n      sload\n      dup2\n      0xff\n      mul\n      not\n      and\n      swap1\n      dup4\n      iszero\n      iszero\n      mul\n      or\n      swap1\n      sstore\n      pop\n        /* \"contracts/Profile.sol\":1439:1550  function deleteProfile(address user) external {... */\n      pop\n      jump\t// out\n        /* \"contracts/Profile.sol\":1597:1712  function updateProfileName(string memory newName) external {... */\n    tag_32:\n        /* \"contracts/Profile.sol\":1697:1704  newName */\n      dup1\n        /* \"contracts/Profile.sol\":1666:1677  profileList */\n      0x00\n        /* \"contracts/Profile.sol\":1666:1689  profileList[msg.sender] */\n      dup1\n        /* \"contracts/Profile.sol\":1678:1688  msg.sender */\n      caller\n        /* \"contracts/Profile.sol\":1666:1689  profileList[msg.sender] */\n      0xffffffffffffffffffffffffffffffffffffffff\n      and\n      0xffffffffffffffffffffffffffffffffffffffff\n      and\n      dup2\n      mstore\n      0x20\n      add\n      swap1\n      dup2\n      mstore\n      0x20\n      add\n      0x00\n      keccak256\n        /* \"contracts/Profile.sol\":1666:1694  profileList[msg.sender].name */\n      0x00\n      add\n        /* \"contracts/Profile.sol\":1666:1704  profileList[msg.sender].name = newName */\n      swap1\n      dup1\n      mload\n      swap1\n      0x20\n      add\n      swap1\n      tag_58\n      swap3\n      swap2\n      swap1\n      tag_47\n      jump\t// in\n    tag_58:\n      pop\n        /* \"contracts/Profile.sol\":1597:1712  function updateProfileName(string memory newName) external {... */\n      pop\n      jump\t// out\n    tag_47:\n      dup3\n      dup1\n      sload\n      tag_59\n      swap1\n      tag_37\n      jump\t// in\n    tag_59:\n      swap1\n      0x00\n      mstore\n      keccak256(0x00, 0x20)\n      swap1\n      0x1f\n      add\n      0x20\n      swap1\n      div\n      dup2\n      add\n      swap3\n      dup3\n      tag_61\n      jumpi\n      0x00\n      dup6\n      sstore\n      jump(tag_60)\n    tag_61:\n      dup3\n      0x1f\n      lt\n      tag_62\n      jumpi\n      dup1\n      mload\n      not(0xff)\n      and\n      dup4\n      dup1\n      add\n      or\n      dup6\n      sstore\n      jump(tag_60)\n    tag_62:\n      dup3\n      dup1\n      add\n      0x01\n      add\n      dup6\n      sstore\n      dup3\n      iszero\n      tag_60\n      jumpi\n      swap2\n      dup3\n      add\n    tag_63:\n      dup3\n      dup2\n      gt\n      iszero\n      tag_64\n      jumpi\n      dup3\n      mload\n      dup3\n      sstore\n      swap2\n      0x20\n      add\n      swap2\n      swap1\n      0x01\n      add\n      swap1\n      jump(tag_63)\n    tag_64:\n    tag_60:\n      pop\n      swap1\n      pop\n      tag_65\n      swap2\n      swap1\n      tag_66\n      jump\t// in\n    tag_65:\n      pop\n      swap1\n      jump\t// out\n    tag_66:\n    tag_67:\n      dup1\n      dup3\n      gt\n      iszero\n      tag_68\n      jumpi\n      0x00\n      dup2\n      0x00\n      swap1\n      sstore\n      pop\n      0x01\n      add\n      jump(tag_67)\n    tag_68:\n      pop\n      swap1\n      jump\t// out\n        /* \"#utility.yul\":7:419   */\n    tag_70:\n        /* \"#utility.yul\":85:90   */\n      0x00\n        /* \"#utility.yul\":110:176   */\n      tag_72\n        /* \"#utility.yul\":126:175   */\n      tag_73\n        /* \"#utility.yul\":168:174   */\n      dup5\n        /* \"#utility.yul\":126:175   */\n      tag_74\n      jump\t// in\n    tag_73:\n        /* \"#utility.yul\":110:176   */\n      tag_75\n      jump\t// in\n    tag_72:\n        /* \"#utility.yul\":101:176   */\n      swap1\n      pop\n        /* \"#utility.yul\":199:205   */\n      dup3\n        /* \"#utility.yul\":192:197   */\n      dup2\n        /* \"#utility.yul\":185:206   */\n      mstore\n        /* \"#utility.yul\":237:241   */\n      0x20\n        /* \"#utility.yul\":230:235   */\n      dup2\n        /* \"#utility.yul\":226:242   */\n      add\n        /* \"#utility.yul\":275:278   */\n      dup5\n        /* \"#utility.yul\":266:272   */\n      dup5\n        /* \"#utility.yul\":261:264   */\n      dup5\n        /* \"#utility.yul\":257:273   */\n      add\n        /* \"#utility.yul\":254:279   */\n      gt\n        /* \"#utility.yul\":251:363   */\n      iszero\n      tag_76\n      jumpi\n        /* \"#utility.yul\":282:361   */\n      tag_77\n      tag_78\n      jump\t// in\n    tag_77:\n        /* \"#utility.yul\":251:363   */\n    tag_76:\n        /* \"#utility.yul\":372:413   */\n      tag_79\n        /* \"#utility.yul\":406:412   */\n      dup5\n        /* \"#utility.yul\":401:404   */\n      dup3\n        /* \"#utility.yul\":396:399   */\n      dup6\n        /* \"#utility.yul\":372:413   */\n      tag_80\n      jump\t// in\n    tag_79:\n        /* \"#utility.yul\":91:419   */\n      pop\n        /* \"#utility.yul\":7:419   */\n      swap4\n      swap3\n      pop\n      pop\n      pop\n      jump\t// out\n        /* \"#utility.yul\":425:564   */\n    tag_81:\n        /* \"#utility.yul\":471:476   */\n      0x00\n        /* \"#utility.yul\":509:515   */\n      dup2\n        /* \"#utility.yul\":496:516   */\n      calldataload\n        /* \"#utility.yul\":487:516   */\n      swap1\n      pop\n        /* \"#utility.yul\":525:558   */\n      tag_83\n        /* \"#utility.yul\":552:557   */\n      dup2\n        /* \"#utility.yul\":525:558   */\n      tag_84\n      jump\t// in\n    tag_83:\n        /* \"#utility.yul\":425:564   */\n      swap3\n      swap2\n      pop\n      pop\n      jump\t// out\n        /* \"#utility.yul\":584:924   */\n    tag_85:\n        /* \"#utility.yul\":640:645   */\n      0x00\n        /* \"#utility.yul\":689:692   */\n      dup3\n        /* \"#utility.yul\":682:686   */\n      0x1f\n        /* \"#utility.yul\":674:680   */\n      dup4\n        /* \"#utility.yul\":670:687   */\n      add\n        /* \"#utility.yul\":666:693   */\n      slt\n        /* \"#utility.yul\":656:778   */\n      tag_87\n      jumpi\n        /* \"#utility.yul\":697:776   */\n      tag_88\n      tag_89\n      jump\t// in\n    tag_88:\n        /* \"#utility.yul\":656:778   */\n    tag_87:\n        /* \"#utility.yul\":814:820   */\n      dup2\n        /* \"#utility.yul\":801:821   */\n      calldataload\n        /* \"#utility.yul\":839:918   */\n      tag_90\n        /* \"#utility.yul\":914:917   */\n      dup5\n        /* \"#utility.yul\":906:912   */\n      dup3\n        /* \"#utility.yul\":899:903   */\n      0x20\n        /* \"#utility.yul\":891:897   */\n      dup7\n        /* \"#utility.yul\":887:904   */\n      add\n        /* \"#utility.yul\":839:918   */\n      tag_70\n      jump\t// in\n    tag_90:\n        /* \"#utility.yul\":830:918   */\n      swap2\n      pop\n        /* \"#utility.yul\":646:924   */\n      pop\n        /* \"#utility.yul\":584:924   */\n      swap3\n      swap2\n      pop\n      pop\n      jump\t// out\n        /* \"#utility.yul\":930:1259   */\n    tag_27:\n        /* \"#utility.yul\":989:995   */\n      0x00\n        /* \"#utility.yul\":1038:1040   */\n      0x20\n        /* \"#utility.yul\":1026:1035   */\n      dup3\n        /* \"#utility.yul\":1017:1024   */\n      dup5\n        /* \"#utility.yul\":1013:1036   */\n      sub\n        /* \"#utility.yul\":1009:1041   */\n      slt\n        /* \"#utility.yul\":1006:1125   */\n      iszero\n      tag_92\n      jumpi\n        /* \"#utility.yul\":1044:1123   */\n      tag_93\n      tag_94\n      jump\t// in\n    tag_93:\n        /* \"#utility.yul\":1006:1125   */\n    tag_92:\n        /* \"#utility.yul\":1164:1165   */\n      0x00\n        /* \"#utility.yul\":1189:1242   */\n      tag_95\n        /* \"#utility.yul\":1234:1241   */\n      dup5\n        /* \"#utility.yul\":1225:1231   */\n      dup3\n        /* \"#utility.yul\":1214:1223   */\n      dup6\n        /* \"#utility.yul\":1210:1232   */\n      add\n        /* \"#utility.yul\":1189:1242   */\n      tag_81\n      jump\t// in\n    tag_95:\n        /* \"#utility.yul\":1179:1242   */\n      swap2\n      pop\n        /* \"#utility.yul\":1135:1252   */\n      pop\n        /* \"#utility.yul\":930:1259   */\n      swap3\n      swap2\n      pop\n      pop\n      jump\t// out\n        /* \"#utility.yul\":1265:1774   */\n    tag_31:\n        /* \"#utility.yul\":1334:1340   */\n      0x00\n        /* \"#utility.yul\":1383:1385   */\n      0x20\n        /* \"#utility.yul\":1371:1380   */\n      dup3\n        /* \"#utility.yul\":1362:1369   */\n      dup5\n        /* \"#utility.yul\":1358:1381   */\n      sub\n        /* \"#utility.yul\":1354:1386   */\n      slt\n        /* \"#utility.yul\":1351:1470   */\n      iszero\n      tag_97\n      jumpi\n        /* \"#utility.yul\":1389:1468   */\n      tag_98\n      tag_94\n      jump\t// in\n    tag_98:\n        /* \"#utility.yul\":1351:1470   */\n    tag_97:\n        /* \"#utility.yul\":1537:1538   */\n      0x00\n        /* \"#utility.yul\":1526:1535   */\n      dup3\n        /* \"#utility.yul\":1522:1539   */\n      add\n        /* \"#utility.yul\":1509:1540   */\n      calldataload\n        /* \"#utility.yul\":1567:1585   */\n      0xffffffffffffffff\n        /* \"#utility.yul\":1559:1565   */\n      dup2\n        /* \"#utility.yul\":1556:1586   */\n      gt\n        /* \"#utility.yul\":1553:1670   */\n      iszero\n      tag_99\n      jumpi\n        /* \"#utility.yul\":1589:1668   */\n      tag_100\n      tag_101\n      jump\t// in\n    tag_100:\n        /* \"#utility.yul\":1553:1670   */\n    tag_99:\n        /* \"#utility.yul\":1694:1757   */\n      tag_102\n        /* \"#utility.yul\":1749:1756   */\n      dup5\n        /* \"#utility.yul\":1740:1746   */\n      dup3\n        /* \"#utility.yul\":1729:1738   */\n      dup6\n        /* \"#utility.yul\":1725:1747   */\n      add\n        /* \"#utility.yul\":1694:1757   */\n      tag_85\n      jump\t// in\n    tag_102:\n        /* \"#utility.yul\":1684:1757   */\n      swap2\n      pop\n        /* \"#utility.yul\":1480:1767   */\n      pop\n        /* \"#utility.yul\":1265:1774   */\n      swap3\n      swap2\n      pop\n      pop\n      jump\t// out\n        /* \"#utility.yul\":1780:3085   */\n    tag_19:\n        /* \"#utility.yul\":1896:1902   */\n      0x00\n        /* \"#utility.yul\":1904:1910   */\n      dup1\n        /* \"#utility.yul\":1912:1918   */\n      0x00\n        /* \"#utility.yul\":1920:1926   */\n      dup1\n        /* \"#utility.yul\":1969:1972   */\n      0x80\n        /* \"#utility.yul\":1957:1966   */\n      dup6\n        /* \"#utility.yul\":1948:1955   */\n      dup8\n        /* \"#utility.yul\":1944:1967   */\n      sub\n        /* \"#utility.yul\":1940:1973   */\n      slt\n        /* \"#utility.yul\":1937:2057   */\n      iszero\n      tag_104\n      jumpi\n        /* \"#utility.yul\":1976:2055   */\n      tag_105\n      tag_94\n      jump\t// in\n    tag_105:\n        /* \"#utility.yul\":1937:2057   */\n    tag_104:\n        /* \"#utility.yul\":2124:2125   */\n      0x00\n        /* \"#utility.yul\":2113:2122   */\n      dup6\n        /* \"#utility.yul\":2109:2126   */\n      add\n        /* \"#utility.yul\":2096:2127   */\n      calldataload\n        /* \"#utility.yul\":2154:2172   */\n      0xffffffffffffffff\n        /* \"#utility.yul\":2146:2152   */\n      dup2\n        /* \"#utility.yul\":2143:2173   */\n      gt\n        /* \"#utility.yul\":2140:2257   */\n      iszero\n      tag_106\n      jumpi\n        /* \"#utility.yul\":2176:2255   */\n      tag_107\n      tag_101\n      jump\t// in\n    tag_107:\n        /* \"#utility.yul\":2140:2257   */\n    tag_106:\n        /* \"#utility.yul\":2281:2344   */\n      tag_108\n        /* \"#utility.yul\":2336:2343   */\n      dup8\n        /* \"#utility.yul\":2327:2333   */\n      dup3\n        /* \"#utility.yul\":2316:2325   */\n      dup9\n        /* \"#utility.yul\":2312:2334   */\n      add\n        /* \"#utility.yul\":2281:2344   */\n      tag_85\n      jump\t// in\n    tag_108:\n        /* \"#utility.yul\":2271:2344   */\n      swap5\n      pop\n        /* \"#utility.yul\":2067:2354   */\n      pop\n        /* \"#utility.yul\":2421:2423   */\n      0x20\n        /* \"#utility.yul\":2410:2419   */\n      dup6\n        /* \"#utility.yul\":2406:2424   */\n      add\n        /* \"#utility.yul\":2393:2425   */\n      calldataload\n        /* \"#utility.yul\":2452:2470   */\n      0xffffffffffffffff\n        /* \"#utility.yul\":2444:2450   */\n      dup2\n        /* \"#utility.yul\":2441:2471   */\n      gt\n        /* \"#utility.yul\":2438:2555   */\n      iszero\n      tag_109\n      jumpi\n        /* \"#utility.yul\":2474:2553   */\n      tag_110\n      tag_101\n      jump\t// in\n    tag_110:\n        /* \"#utility.yul\":2438:2555   */\n    tag_109:\n        /* \"#utility.yul\":2579:2642   */\n      tag_111\n        /* \"#utility.yul\":2634:2641   */\n      dup8\n        /* \"#utility.yul\":2625:2631   */\n      dup3\n        /* \"#utility.yul\":2614:2623   */\n      dup9\n        /* \"#utility.yul\":2610:2632   */\n      add\n        /* \"#utility.yul\":2579:2642   */\n      tag_85\n      jump\t// in\n    tag_111:\n        /* \"#utility.yul\":2569:2642   */\n      swap4\n      pop\n        /* \"#utility.yul\":2364:2652   */\n      pop\n        /* \"#utility.yul\":2719:2721   */\n      0x40\n        /* \"#utility.yul\":2708:2717   */\n      dup6\n        /* \"#utility.yul\":2704:2722   */\n      add\n        /* \"#utility.yul\":2691:2723   */\n      calldataload\n        /* \"#utility.yul\":2750:2768   */\n      0xffffffffffffffff\n        /* \"#utility.yul\":2742:2748   */\n      dup2\n        /* \"#utility.yul\":2739:2769   */\n      gt\n        /* \"#utility.yul\":2736:2853   */\n      iszero\n      tag_112\n      jumpi\n        /* \"#utility.yul\":2772:2851   */\n      tag_113\n      tag_101\n      jump\t// in\n    tag_113:\n        /* \"#utility.yul\":2736:2853   */\n    tag_112:\n        /* \"#utility.yul\":2877:2940   */\n      tag_114\n        /* \"#utility.yul\":2932:2939   */\n      dup8\n        /* \"#utility.yul\":2923:2929   */\n      dup3\n        /* \"#utility.yul\":2912:2921   */\n      dup9\n        /* \"#utility.yul\":2908:2930   */\n      add\n        /* \"#utility.yul\":2877:2940   */\n      tag_85\n      jump\t// in\n    tag_114:\n        /* \"#utility.yul\":2867:2940   */\n      swap3\n      pop\n        /* \"#utility.yul\":2662:2950   */\n      pop\n        /* \"#utility.yul\":2989:2991   */\n      0x60\n        /* \"#utility.yul\":3015:3068   */\n      tag_115\n        /* \"#utility.yul\":3060:3067   */\n      dup8\n        /* \"#utility.yul\":3051:3057   */\n      dup3\n        /* \"#utility.yul\":3040:3049   */\n      dup9\n        /* \"#utility.yul\":3036:3058   */\n      add\n        /* \"#utility.yul\":3015:3068   */\n      tag_81\n      jump\t// in\n    tag_115:\n        /* \"#utility.yul\":3005:3068   */\n      swap2\n      pop\n        /* \"#utility.yul\":2960:3078   */\n      pop\n        /* \"#utility.yul\":1780:3085   */\n      swap3\n      swap6\n      swap2\n      swap5\n      pop\n      swap3\n      pop\n      jump\t// out\n        /* \"#utility.yul\":3091:3200   */\n    tag_116:\n        /* \"#utility.yul\":3172:3193   */\n      tag_118\n        /* \"#utility.yul\":3187:3192   */\n      dup2\n        /* \"#utility.yul\":3172:3193   */\n      tag_119\n      jump\t// in\n    tag_118:\n        /* \"#utility.yul\":3167:3170   */\n      dup3\n        /* \"#utility.yul\":3160:3194   */\n      mstore\n        /* \"#utility.yul\":3091:3200   */\n      pop\n      pop\n      jump\t// out\n        /* \"#utility.yul\":3206:3570   */\n    tag_120:\n        /* \"#utility.yul\":3294:3297   */\n      0x00\n        /* \"#utility.yul\":3322:3361   */\n      tag_122\n        /* \"#utility.yul\":3355:3360   */\n      dup3\n        /* \"#utility.yul\":3322:3361   */\n      tag_123\n      jump\t// in\n    tag_122:\n        /* \"#utility.yul\":3377:3448   */\n      tag_124\n        /* \"#utility.yul\":3441:3447   */\n      dup2\n        /* \"#utility.yul\":3436:3439   */\n      dup6\n        /* \"#utility.yul\":3377:3448   */\n      tag_125\n      jump\t// in\n    tag_124:\n        /* \"#utility.yul\":3370:3448   */\n      swap4\n      pop\n        /* \"#utility.yul\":3457:3509   */\n      tag_126\n        /* \"#utility.yul\":3502:3508   */\n      dup2\n        /* \"#utility.yul\":3497:3500   */\n      dup6\n        /* \"#utility.yul\":3490:3494   */\n      0x20\n        /* \"#utility.yul\":3483:3488   */\n      dup7\n        /* \"#utility.yul\":3479:3495   */\n      add\n        /* \"#utility.yul\":3457:3509   */\n      tag_127\n      jump\t// in\n    tag_126:\n        /* \"#utility.yul\":3534:3563   */\n      tag_128\n        /* \"#utility.yul\":3556:3562   */\n      dup2\n        /* \"#utility.yul\":3534:3563   */\n      tag_129\n      jump\t// in\n    tag_128:\n        /* \"#utility.yul\":3529:3532   */\n      dup5\n        /* \"#utility.yul\":3525:3564   */\n      add\n        /* \"#utility.yul\":3518:3564   */\n      swap2\n      pop\n        /* \"#utility.yul\":3298:3570   */\n      pop\n        /* \"#utility.yul\":3206:3570   */\n      swap3\n      swap2\n      pop\n      pop\n      jump\t// out\n        /* \"#utility.yul\":3576:3942   */\n    tag_130:\n        /* \"#utility.yul\":3718:3721   */\n      0x00\n        /* \"#utility.yul\":3739:3806   */\n      tag_132\n        /* \"#utility.yul\":3803:3805   */\n      0x21\n        /* \"#utility.yul\":3798:3801   */\n      dup4\n        /* \"#utility.yul\":3739:3806   */\n      tag_125\n      jump\t// in\n    tag_132:\n        /* \"#utility.yul\":3732:3806   */\n      swap2\n      pop\n        /* \"#utility.yul\":3815:3908   */\n      tag_133\n        /* \"#utility.yul\":3904:3907   */\n      dup3\n        /* \"#utility.yul\":3815:3908   */\n      tag_134\n      jump\t// in\n    tag_133:\n        /* \"#utility.yul\":3933:3935   */\n      0x40\n        /* \"#utility.yul\":3928:3931   */\n      dup3\n        /* \"#utility.yul\":3924:3936   */\n      add\n        /* \"#utility.yul\":3917:3936   */\n      swap1\n      pop\n        /* \"#utility.yul\":3576:3942   */\n      swap2\n      swap1\n      pop\n      jump\t// out\n        /* \"#utility.yul\":3948:4066   */\n    tag_135:\n        /* \"#utility.yul\":4035:4059   */\n      tag_137\n        /* \"#utility.yul\":4053:4058   */\n      dup2\n        /* \"#utility.yul\":4035:4059   */\n      tag_138\n      jump\t// in\n    tag_137:\n        /* \"#utility.yul\":4030:4033   */\n      dup3\n        /* \"#utility.yul\":4023:4060   */\n      mstore\n        /* \"#utility.yul\":3948:4066   */\n      pop\n      pop\n      jump\t// out\n        /* \"#utility.yul\":4072:4282   */\n    tag_24:\n        /* \"#utility.yul\":4159:4163   */\n      0x00\n        /* \"#utility.yul\":4197:4199   */\n      0x20\n        /* \"#utility.yul\":4186:4195   */\n      dup3\n        /* \"#utility.yul\":4182:4200   */\n      add\n        /* \"#utility.yul\":4174:4200   */\n      swap1\n      pop\n        /* \"#utility.yul\":4210:4275   */\n      tag_140\n        /* \"#utility.yul\":4272:4273   */\n      0x00\n        /* \"#utility.yul\":4261:4270   */\n      dup4\n        /* \"#utility.yul\":4257:4274   */\n      add\n        /* \"#utility.yul\":4248:4254   */\n      dup5\n        /* \"#utility.yul\":4210:4275   */\n      tag_116\n      jump\t// in\n    tag_140:\n        /* \"#utility.yul\":4072:4282   */\n      swap3\n      swap2\n      pop\n      pop\n      jump\t// out\n        /* \"#utility.yul\":4288:4601   */\n    tag_16:\n        /* \"#utility.yul\":4401:4405   */\n      0x00\n        /* \"#utility.yul\":4439:4441   */\n      0x20\n        /* \"#utility.yul\":4428:4437   */\n      dup3\n        /* \"#utility.yul\":4424:4442   */\n      add\n        /* \"#utility.yul\":4416:4442   */\n      swap1\n      pop\n        /* \"#utility.yul\":4488:4497   */\n      dup2\n        /* \"#utility.yul\":4482:4486   */\n      dup2\n        /* \"#utility.yul\":4478:4498   */\n      sub\n        /* \"#utility.yul\":4474:4475   */\n      0x00\n        /* \"#utility.yul\":4463:4472   */\n      dup4\n        /* \"#utility.yul\":4459:4476   */\n      add\n        /* \"#utility.yul\":4452:4499   */\n      mstore\n        /* \"#utility.yul\":4516:4594   */\n      tag_142\n        /* \"#utility.yul\":4589:4593   */\n      dup2\n        /* \"#utility.yul\":4580:4586   */\n      dup5\n        /* \"#utility.yul\":4516:4594   */\n      tag_120\n      jump\t// in\n    tag_142:\n        /* \"#utility.yul\":4508:4594   */\n      swap1\n      pop\n        /* \"#utility.yul\":4288:4601   */\n      swap3\n      swap2\n      pop\n      pop\n      jump\t// out\n        /* \"#utility.yul\":4607:5026   */\n    tag_45:\n        /* \"#utility.yul\":4773:4777   */\n      0x00\n        /* \"#utility.yul\":4811:4813   */\n      0x20\n        /* \"#utility.yul\":4800:4809   */\n      dup3\n        /* \"#utility.yul\":4796:4814   */\n      add\n        /* \"#utility.yul\":4788:4814   */\n      swap1\n      pop\n        /* \"#utility.yul\":4860:4869   */\n      dup2\n        /* \"#utility.yul\":4854:4858   */\n      dup2\n        /* \"#utility.yul\":4850:4870   */\n      sub\n        /* \"#utility.yul\":4846:4847   */\n      0x00\n        /* \"#utility.yul\":4835:4844   */\n      dup4\n        /* \"#utility.yul\":4831:4848   */\n      add\n        /* \"#utility.yul\":4824:4871   */\n      mstore\n        /* \"#utility.yul\":4888:5019   */\n      tag_144\n        /* \"#utility.yul\":5014:5018   */\n      dup2\n        /* \"#utility.yul\":4888:5019   */\n      tag_130\n      jump\t// in\n    tag_144:\n        /* \"#utility.yul\":4880:5019   */\n      swap1\n      pop\n        /* \"#utility.yul\":4607:5026   */\n      swap2\n      swap1\n      pop\n      jump\t// out\n        /* \"#utility.yul\":5032:5254   */\n    tag_12:\n        /* \"#utility.yul\":5125:5129   */\n      0x00\n        /* \"#utility.yul\":5163:5165   */\n      0x20\n        /* \"#utility.yul\":5152:5161   */\n      dup3\n        /* \"#utility.yul\":5148:5166   */\n      add\n        /* \"#utility.yul\":5140:5166   */\n      swap1\n      pop\n        /* \"#utility.yul\":5176:5247   */\n      tag_146\n        /* \"#utility.yul\":5244:5245   */\n      0x00\n        /* \"#utility.yul\":5233:5242   */\n      dup4\n        /* \"#utility.yul\":5229:5246   */\n      add\n        /* \"#utility.yul\":5220:5226   */\n      dup5\n        /* \"#utility.yul\":5176:5247   */\n      tag_135\n      jump\t// in\n    tag_146:\n        /* \"#utility.yul\":5032:5254   */\n      swap3\n      swap2\n      pop\n      pop\n      jump\t// out\n        /* \"#utility.yul\":5260:5389   */\n    tag_75:\n        /* \"#utility.yul\":5294:5300   */\n      0x00\n        /* \"#utility.yul\":5321:5341   */\n      tag_148\n      tag_149\n      jump\t// in\n    tag_148:\n        /* \"#utility.yul\":5311:5341   */\n      swap1\n      pop\n        /* \"#utility.yul\":5350:5383   */\n      tag_150\n        /* \"#utility.yul\":5378:5382   */\n      dup3\n        /* \"#utility.yul\":5370:5376   */\n      dup3\n        /* \"#utility.yul\":5350:5383   */\n      tag_151\n      jump\t// in\n    tag_150:\n        /* \"#utility.yul\":5260:5389   */\n      swap2\n      swap1\n      pop\n      jump\t// out\n        /* \"#utility.yul\":5395:5470   */\n    tag_149:\n        /* \"#utility.yul\":5428:5434   */\n      0x00\n        /* \"#utility.yul\":5461:5463   */\n      0x40\n        /* \"#utility.yul\":5455:5464   */\n      mload\n        /* \"#utility.yul\":5445:5464   */\n      swap1\n      pop\n        /* \"#utility.yul\":5395:5470   */\n      swap1\n      jump\t// out\n        /* \"#utility.yul\":5476:5784   */\n    tag_74:\n        /* \"#utility.yul\":5538:5542   */\n      0x00\n        /* \"#utility.yul\":5628:5646   */\n      0xffffffffffffffff\n        /* \"#utility.yul\":5620:5626   */\n      dup3\n        /* \"#utility.yul\":5617:5647   */\n      gt\n        /* \"#utility.yul\":5614:5670   */\n      iszero\n      tag_154\n      jumpi\n        /* \"#utility.yul\":5650:5668   */\n      tag_155\n      tag_156\n      jump\t// in\n    tag_155:\n        /* \"#utility.yul\":5614:5670   */\n    tag_154:\n        /* \"#utility.yul\":5688:5717   */\n      tag_157\n        /* \"#utility.yul\":5710:5716   */\n      dup3\n        /* \"#utility.yul\":5688:5717   */\n      tag_129\n      jump\t// in\n    tag_157:\n        /* \"#utility.yul\":5680:5717   */\n      swap1\n      pop\n        /* \"#utility.yul\":5772:5776   */\n      0x20\n        /* \"#utility.yul\":5766:5770   */\n      dup2\n        /* \"#utility.yul\":5762:5777   */\n      add\n        /* \"#utility.yul\":5754:5777   */\n      swap1\n      pop\n        /* \"#utility.yul\":5476:5784   */\n      swap2\n      swap1\n      pop\n      jump\t// out\n        /* \"#utility.yul\":5790:5889   */\n    tag_123:\n        /* \"#utility.yul\":5842:5848   */\n      0x00\n        /* \"#utility.yul\":5876:5881   */\n      dup2\n        /* \"#utility.yul\":5870:5882   */\n      mload\n        /* \"#utility.yul\":5860:5882   */\n      swap1\n      pop\n        /* \"#utility.yul\":5790:5889   */\n      swap2\n      swap1\n      pop\n      jump\t// out\n        /* \"#utility.yul\":5895:6064   */\n    tag_125:\n        /* \"#utility.yul\":5979:5990   */\n      0x00\n        /* \"#utility.yul\":6013:6019   */\n      dup3\n        /* \"#utility.yul\":6008:6011   */\n      dup3\n        /* \"#utility.yul\":6001:6020   */\n      mstore\n        /* \"#utility.yul\":6053:6057   */\n      0x20\n        /* \"#utility.yul\":6048:6051   */\n      dup3\n        /* \"#utility.yul\":6044:6058   */\n      add\n        /* \"#utility.yul\":6029:6058   */\n      swap1\n      pop\n        /* \"#utility.yul\":5895:6064   */\n      swap3\n      swap2\n      pop\n      pop\n      jump\t// out\n        /* \"#utility.yul\":6070:6375   */\n    tag_51:\n        /* \"#utility.yul\":6110:6113   */\n      0x00\n        /* \"#utility.yul\":6129:6149   */\n      tag_161\n        /* \"#utility.yul\":6147:6148   */\n      dup3\n        /* \"#utility.yul\":6129:6149   */\n      tag_138\n      jump\t// in\n    tag_161:\n        /* \"#utility.yul\":6124:6149   */\n      swap2\n      pop\n        /* \"#utility.yul\":6163:6183   */\n      tag_162\n        /* \"#utility.yul\":6181:6182   */\n      dup4\n        /* \"#utility.yul\":6163:6183   */\n      tag_138\n      jump\t// in\n    tag_162:\n        /* \"#utility.yul\":6158:6183   */\n      swap3\n      pop\n        /* \"#utility.yul\":6317:6318   */\n      dup3\n        /* \"#utility.yul\":6249:6315   */\n      0xffffffffffffffffffffffffffffffffffffffffffffffffffffffffffffffff\n        /* \"#utility.yul\":6245:6319   */\n      sub\n        /* \"#utility.yul\":6242:6243   */\n      dup3\n        /* \"#utility.yul\":6239:6320   */\n      gt\n        /* \"#utility.yul\":6236:6343   */\n      iszero\n      tag_163\n      jumpi\n        /* \"#utility.yul\":6323:6341   */\n      tag_164\n      tag_165\n      jump\t// in\n    tag_164:\n        /* \"#utility.yul\":6236:6343   */\n    tag_163:\n        /* \"#utility.yul\":6367:6368   */\n      dup3\n        /* \"#utility.yul\":6364:6365   */\n      dup3\n        /* \"#utility.yul\":6360:6369   */\n      add\n        /* \"#utility.yul\":6353:6369   */\n      swap1\n      pop\n        /* \"#utility.yul\":6070:6375   */\n      swap3\n      swap2\n      pop\n      pop\n      jump\t// out\n        /* \"#utility.yul\":6381:6477   */\n    tag_166:\n        /* \"#utility.yul\":6418:6425   */\n      0x00\n        /* \"#utility.yul\":6447:6471   */\n      tag_168\n        /* \"#utility.yul\":6465:6470   */\n      dup3\n        /* \"#utility.yul\":6447:6471   */\n      tag_169\n      jump\t// in\n    tag_168:\n        /* \"#utility.yul\":6436:6471   */\n      swap1\n      pop\n        /* \"#utility.yul\":6381:6477   */\n      swap2\n      swap1\n      pop\n      jump\t// out\n        /* \"#utility.yul\":6483:6573   */\n    tag_119:\n        /* \"#utility.yul\":6517:6524   */\n      0x00\n        /* \"#utility.yul\":6560:6565   */\n      dup2\n        /* \"#utility.yul\":6553:6566   */\n      iszero\n        /* \"#utility.yul\":6546:6567   */\n      iszero\n        /* \"#utility.yul\":6535:6567   */\n      swap1\n      pop\n        /* \"#utility.yul\":6483:6573   */\n      swap2\n      swap1\n      pop\n      jump\t// out\n        /* \"#utility.yul\":6579:6705   */\n    tag_169:\n        /* \"#utility.yul\":6616:6623   */\n      0x00\n        /* \"#utility.yul\":6656:6698   */\n      0xffffffffffffffffffffffffffffffffffffffff\n        /* \"#utility.yul\":6649:6654   */\n      dup3\n        /* \"#utility.yul\":6645:6699   */\n      and\n        /* \"#utility.yul\":6634:6699   */\n      swap1\n      pop\n        /* \"#utility.yul\":6579:6705   */\n      swap2\n      swap1\n      pop\n      jump\t// out\n        /* \"#utility.yul\":6711:6788   */\n    tag_138:\n        /* \"#utility.yul\":6748:6755   */\n      0x00\n        /* \"#utility.yul\":6777:6782   */\n      dup2\n        /* \"#utility.yul\":6766:6782   */\n      swap1\n      pop\n        /* \"#utility.yul\":6711:6788   */\n      swap2\n      swap1\n      pop\n      jump\t// out\n        /* \"#utility.yul\":6794:6948   */\n    tag_80:\n        /* \"#utility.yul\":6878:6884   */\n      dup3\n        /* \"#utility.yul\":6873:6876   */\n      dup2\n        /* \"#utility.yul\":6868:6871   */\n      dup4\n        /* \"#utility.yul\":6855:6885   */\n      calldatacopy\n        /* \"#utility.yul\":6940:6941   */\n      0x00\n        /* \"#utility.yul\":6931:6937   */\n      dup4\n        /* \"#utility.yul\":6926:6929   */\n      dup4\n        /* \"#utility.yul\":6922:6938   */\n      add\n        /* \"#utility.yul\":6915:6942   */\n      mstore\n        /* \"#utility.yul\":6794:6948   */\n      pop\n      pop\n      pop\n      jump\t// out\n        /* \"#utility.yul\":6954:7261   */\n    tag_127:\n        /* \"#utility.yul\":7022:7023   */\n      0x00\n        /* \"#utility.yul\":7032:7145   */\n    tag_175:\n        /* \"#utility.yul\":7046:7052   */\n      dup4\n        /* \"#utility.yul\":7043:7044   */\n      dup2\n        /* \"#utility.yul\":7040:7053   */\n      lt\n        /* \"#utility.yul\":7032:7145   */\n      iszero\n      tag_177\n      jumpi\n        /* \"#utility.yul\":7131:7132   */\n      dup1\n        /* \"#utility.yul\":7126:7129   */\n      dup3\n        /* \"#utility.yul\":7122:7133   */\n      add\n        /* \"#utility.yul\":7116:7134   */\n      mload\n        /* \"#utility.yul\":7112:7113   */\n      dup2\n        /* \"#utility.yul\":7107:7110   */\n      dup5\n        /* \"#utility.yul\":7103:7114   */\n      add\n        /* \"#utility.yul\":7096:7135   */\n      mstore\n        /* \"#utility.yul\":7068:7070   */\n      0x20\n        /* \"#utility.yul\":7065:7066   */\n      dup2\n        /* \"#utility.yul\":7061:7071   */\n      add\n        /* \"#utility.yul\":7056:7071   */\n      swap1\n      pop\n        /* \"#utility.yul\":7032:7145   */\n      jump(tag_175)\n    tag_177:\n        /* \"#utility.yul\":7163:7169   */\n      dup4\n        /* \"#utility.yul\":7160:7161   */\n      dup2\n        /* \"#utility.yul\":7157:7170   */\n      gt\n        /* \"#utility.yul\":7154:7255   */\n      iszero\n      tag_178\n      jumpi\n        /* \"#utility.yul\":7243:7244   */\n      0x00\n        /* \"#utility.yul\":7234:7240   */\n      dup5\n        /* \"#utility.yul\":7229:7232   */\n      dup5\n        /* \"#utility.yul\":7225:7241   */\n      add\n        /* \"#utility.yul\":7218:7245   */\n      mstore\n        /* \"#utility.yul\":7154:7255   */\n    tag_178:\n        /* \"#utility.yul\":7003:7261   */\n      pop\n        /* \"#utility.yul\":6954:7261   */\n      pop\n      pop\n      pop\n      jump\t// out\n        /* \"#utility.yul\":7267:7587   */\n    tag_37:\n        /* \"#utility.yul\":7311:7317   */\n      0x00\n        /* \"#utility.yul\":7348:7349   */\n      0x02\n        /* \"#utility.yul\":7342:7346   */\n      dup3\n        /* \"#utility.yul\":7338:7350   */\n      div\n        /* \"#utility.yul\":7328:7350   */\n      swap1\n      pop\n        /* \"#utility.yul\":7395:7396   */\n      0x01\n        /* \"#utility.yul\":7389:7393   */\n      dup3\n        /* \"#utility.yul\":7385:7397   */\n      and\n        /* \"#utility.yul\":7416:7434   */\n      dup1\n        /* \"#utility.yul\":7406:7487   */\n      tag_180\n      jumpi\n        /* \"#utility.yul\":7472:7476   */\n      0x7f\n        /* \"#utility.yul\":7464:7470   */\n      dup3\n        /* \"#utility.yul\":7460:7477   */\n      and\n        /* \"#utility.yul\":7450:7477   */\n      swap2\n      pop\n        /* \"#utility.yul\":7406:7487   */\n    tag_180:\n        /* \"#utility.yul\":7534:7536   */\n      0x20\n        /* \"#utility.yul\":7526:7532   */\n      dup3\n        /* \"#utility.yul\":7523:7537   */\n      lt\n        /* \"#utility.yul\":7503:7521   */\n      dup2\n        /* \"#utility.yul\":7500:7538   */\n      eq\n        /* \"#utility.yul\":7497:7581   */\n      iszero\n      tag_181\n      jumpi\n        /* \"#utility.yul\":7553:7571   */\n      tag_182\n      tag_183\n      jump\t// in\n    tag_182:\n        /* \"#utility.yul\":7497:7581   */\n    tag_181:\n        /* \"#utility.yul\":7318:7587   */\n      pop\n        /* \"#utility.yul\":7267:7587   */\n      swap2\n      swap1\n      pop\n      jump\t// out\n        /* \"#utility.yul\":7593:7874   */\n    tag_151:\n        /* \"#utility.yul\":7676:7703   */\n      tag_185\n        /* \"#utility.yul\":7698:7702   */\n      dup3\n        /* \"#utility.yul\":7676:7703   */\n      tag_129\n      jump\t// in\n    tag_185:\n        /* \"#utility.yul\":7668:7674   */\n      dup2\n        /* \"#utility.yul\":7664:7704   */\n      add\n        /* \"#utility.yul\":7806:7812   */\n      dup2\n        /* \"#utility.yul\":7794:7804   */\n      dup2\n        /* \"#utility.yul\":7791:7813   */\n      lt\n        /* \"#utility.yul\":7770:7788   */\n      0xffffffffffffffff\n        /* \"#utility.yul\":7758:7768   */\n      dup3\n        /* \"#utility.yul\":7755:7789   */\n      gt\n        /* \"#utility.yul\":7752:7814   */\n      or\n        /* \"#utility.yul\":7749:7837   */\n      iszero\n      tag_186\n      jumpi\n        /* \"#utility.yul\":7817:7835   */\n      tag_187\n      tag_156\n      jump\t// in\n    tag_187:\n        /* \"#utility.yul\":7749:7837   */\n    tag_186:\n        /* \"#utility.yul\":7857:7867   */\n      dup1\n        /* \"#utility.yul\":7853:7855   */\n      0x40\n        /* \"#utility.yul\":7846:7868   */\n      mstore\n        /* \"#utility.yul\":7636:7874   */\n      pop\n        /* \"#utility.yul\":7593:7874   */\n      pop\n      pop\n      jump\t// out\n        /* \"#utility.yul\":7880:8060   */\n    tag_165:\n        /* \"#utility.yul\":7928:8005   */\n      0x4e487b7100000000000000000000000000000000000000000000000000000000\n        /* \"#utility.yul\":7925:7926   */\n      0x00\n        /* \"#utility.yul\":7918:8006   */\n      mstore\n        /* \"#utility.yul\":8025:8029   */\n      0x11\n        /* \"#utility.yul\":8022:8023   */\n      0x04\n        /* \"#utility.yul\":8015:8030   */\n      mstore\n        /* \"#utility.yul\":8049:8053   */\n      0x24\n        /* \"#utility.yul\":8046:8047   */\n      0x00\n        /* \"#utility.yul\":8039:8054   */\n      revert\n        /* \"#utility.yul\":8066:8246   */\n    tag_183:\n        /* \"#utility.yul\":8114:8191   */\n      0x4e487b7100000000000000000000000000000000000000000000000000000000\n        /* \"#utility.yul\":8111:8112   */\n      0x00\n        /* \"#utility.yul\":8104:8192   */\n      mstore\n        /* \"#utility.yul\":8211:8215   */\n      0x22\n        /* \"#utility.yul\":8208:8209   */\n      0x04\n        /* \"#utility.yul\":8201:8216   */\n      mstore\n        /* \"#utility.yul\":8235:8239   */\n      0x24\n        /* \"#utility.yul\":8232:8233   */\n      0x00\n        /* \"#utility.yul\":8225:8240   */\n      revert\n        /* \"#utility.yul\":8252:8432   */\n    tag_156:\n        /* \"#utility.yul\":8300:8377   */\n      0x4e487b7100000000000000000000000000000000000000000000000000000000\n        /* \"#utility.yul\":8297:8298   */\n      0x00\n        /* \"#utility.yul\":8290:8378   */\n      mstore\n        /* \"#utility.yul\":8397:8401   */\n      0x41\n        /* \"#utility.yul\":8394:8395   */\n      0x04\n        /* \"#utility.yul\":8387:8402   */\n      mstore\n        /* \"#utility.yul\":8421:8425   */\n      0x24\n        /* \"#utility.yul\":8418:8419   */\n      0x00\n        /* \"#utility.yul\":8411:8426   */\n      revert\n        /* \"#utility.yul\":8438:8555   */\n    tag_89:\n        /* \"#utility.yul\":8547:8548   */\n      0x00\n        /* \"#utility.yul\":8544:8545   */\n      dup1\n        /* \"#utility.yul\":8537:8549   */\n      revert\n        /* \"#utility.yul\":8561:8678   */\n    tag_78:\n        /* \"#utility.yul\":8670:8671   */\n      0x00\n        /* \"#utility.yul\":8667:8668   */\n      dup1\n        /* \"#utility.yul\":8660:8672   */\n      revert\n        /* \"#utility.yul\":8684:8801   */\n    tag_101:\n        /* \"#utility.yul\":8793:8794   */\n      0x00\n        /* \"#utility.yul\":8790:8791   */\n      dup1\n        /* \"#utility.yul\":8783:8795   */\n      revert\n        /* \"#utility.yul\":8807:8924   */\n    tag_94:\n        /* \"#utility.yul\":8916:8917   */\n      0x00\n        /* \"#utility.yul\":8913:8914   */\n      dup1\n        /* \"#utility.yul\":8906:8918   */\n      revert\n        /* \"#utility.yul\":8930:9032   */\n    tag_129:\n        /* \"#utility.yul\":8971:8977   */\n      0x00\n        /* \"#utility.yul\":9022:9024   */\n      0x1f\n        /* \"#utility.yul\":9018:9025   */\n      not\n        /* \"#utility.yul\":9013:9015   */\n      0x1f\n        /* \"#utility.yul\":9006:9011   */\n      dup4\n        /* \"#utility.yul\":9002:9016   */\n      add\n        /* \"#utility.yul\":8998:9026   */\n      and\n        /* \"#utility.yul\":8988:9026   */\n      swap1\n      pop\n        /* \"#utility.yul\":8930:9032   */\n      swap2\n      swap1\n      pop\n      jump\t// out\n        /* \"#utility.yul\":9038:9258   */\n    tag_134:\n        /* \"#utility.yul\":9178:9212   */\n      0x43616e6e6f7420637265617465206d6f7265207468616e20312070726f66696c\n        /* \"#utility.yul\":9174:9175   */\n      0x00\n        /* \"#utility.yul\":9166:9172   */\n      dup3\n        /* \"#utility.yul\":9162:9176   */\n      add\n        /* \"#utility.yul\":9155:9213   */\n      mstore\n        /* \"#utility.yul\":9247:9250   */\n      0x6500000000000000000000000000000000000000000000000000000000000000\n        /* \"#utility.yul\":9242:9244   */\n      0x20\n        /* \"#utility.yul\":9234:9240   */\n      dup3\n        /* \"#utility.yul\":9230:9245   */\n      add\n        /* \"#utility.yul\":9223:9251   */\n      mstore\n        /* \"#utility.yul\":9038:9258   */\n      pop\n      jump\t// out\n        /* \"#utility.yul\":9264:9386   */\n    tag_84:\n        /* \"#utility.yul\":9337:9361   */\n      tag_198\n        /* \"#utility.yul\":9355:9360   */\n      dup2\n        /* \"#utility.yul\":9337:9361   */\n      tag_166\n      jump\t// in\n    tag_198:\n        /* \"#utility.yul\":9330:9335   */\n      dup2\n        /* \"#utility.yul\":9327:9362   */\n      eq\n        /* \"#utility.yul\":9317:9380   */\n      tag_199\n      jumpi\n        /* \"#utility.yul\":9376:9377   */\n      0x00\n        /* \"#utility.yul\":9373:9374   */\n      dup1\n        /* \"#utility.yul\":9366:9378   */\n      revert\n        /* \"#utility.yul\":9317:9380   */\n    tag_199:\n        /* \"#utility.yul\":9264:9386   */\n      pop\n      jump\t// out\n\n    auxdata: 0xa2646970667358221220709e5934f23f1b9583f310f5af6259bd9657c3cd0a93818268f1af80e6f13d5b64736f6c63430008070033\n}\n",
				"bytecode": {
					"linkReferences": {},
					"object": "6080604052600060035534801561001557600080fd5b50610bdf806100256000396000f3fe608060405234801561001057600080fd5b50600436106100625760003560e01c8063169134691461006757806317d7de7c1461008557806322a9d1bc146100a35780633ae7dc1a146100bf578063a0441f29146100dd578063ee8b7cd9146100f9575b600080fd5b61006f610115565b60405161007c91906108c1565b60405180910390f35b61008d61011b565b60405161009a919061087f565b60405180910390f35b6100bd60048036038101906100b8919061072f565b61024b565b005b6100c7610477565b6040516100d49190610864565b60405180910390f35b6100f760048036038101906100f291906106b9565b6104db565b005b610113600480360381019061010e91906106e6565b610538565b005b60035481565b6060600115156000803373ffffffffffffffffffffffffffffffffffffffff1673ffffffffffffffffffffffffffffffffffffffff16815260200190815260200160002060030160149054906101000a900460ff1615151461017c57600080fd5b6000803373ffffffffffffffffffffffffffffffffffffffff1673ffffffffffffffffffffffffffffffffffffffff16815260200190815260200160002060000180546101c890610a2e565b80601f01602080910402602001604051908101604052809291908181526020018280546101f490610a2e565b80156102415780601f1061021657610100808354040283529160200191610241565b820191906000526020600020905b81548152906001019060200180831161022457829003601f168201915b5050505050905090565b600015156000808373ffffffffffffffffffffffffffffffffffffffff1673ffffffffffffffffffffffffffffffffffffffff16815260200190815260200160002060030160149054906101000a900460ff161515146102e0576040517f08c379a00000000000000000000000000000000000000000000000000000000081526004016102d7906108a1565b60405180910390fd5b60006040518060a001604052808681526020018581526020018481526020018373ffffffffffffffffffffffffffffffffffffffff168152602001600115158152509050806000808473ffffffffffffffffffffffffffffffffffffffff1673ffffffffffffffffffffffffffffffffffffffff168152602001908152602001600020600082015181600001908051906020019061037f929190610591565b50602082015181600101908051906020019061039c929190610591565b5060408201518160020190805190602001906103b9929190610591565b5060608201518160030160006101000a81548173ffffffffffffffffffffffffffffffffffffffff021916908373ffffffffffffffffffffffffffffffffffffffff16021790555060808201518160030160146101000a81548160ff0219169083151502179055509050506001600354610433919061094e565b6003819055507fb3455b03a6e133be9b93e8f000fd0c9252e1178a557652af2f19aafde3382b2785604051610468919061087f565b60405180910390a15050505050565b60008060003373ffffffffffffffffffffffffffffffffffffffff1673ffffffffffffffffffffffffffffffffffffffff16815260200190815260200160002060030160149054906101000a900460ff166104d35760006104d6565b60015b905090565b60008060008373ffffffffffffffffffffffffffffffffffffffff1673ffffffffffffffffffffffffffffffffffffffff16815260200190815260200160002060030160146101000a81548160ff02191690831515021790555050565b806000803373ffffffffffffffffffffffffffffffffffffffff1673ffffffffffffffffffffffffffffffffffffffff168152602001908152602001600020600001908051906020019061058d929190610591565b5050565b82805461059d90610a2e565b90600052602060002090601f0160209004810192826105bf5760008555610606565b82601f106105d857805160ff1916838001178555610606565b82800160010185558215610606579182015b828111156106055782518255916020019190600101906105ea565b5b5090506106139190610617565b5090565b5b80821115610630576000816000905550600101610618565b5090565b600061064761064284610901565b6108dc565b90508281526020810184848401111561066357610662610b23565b5b61066e8482856109ec565b509392505050565b60008135905061068581610b92565b92915050565b600082601f8301126106a05761069f610b1e565b5b81356106b0848260208601610634565b91505092915050565b6000602082840312156106cf576106ce610b2d565b5b60006106dd84828501610676565b91505092915050565b6000602082840312156106fc576106fb610b2d565b5b600082013567ffffffffffffffff81111561071a57610719610b28565b5b6107268482850161068b565b91505092915050565b6000806000806080858703121561074957610748610b2d565b5b600085013567ffffffffffffffff81111561076757610766610b28565b5b6107738782880161068b565b945050602085013567ffffffffffffffff81111561079457610793610b28565b5b6107a08782880161068b565b935050604085013567ffffffffffffffff8111156107c1576107c0610b28565b5b6107cd8782880161068b565b92505060606107de87828801610676565b91505092959194509250565b6107f3816109b6565b82525050565b600061080482610932565b61080e818561093d565b935061081e8185602086016109fb565b61082781610b32565b840191505092915050565b600061083f60218361093d565b915061084a82610b43565b604082019050919050565b61085e816109e2565b82525050565b600060208201905061087960008301846107ea565b92915050565b6000602082019050818103600083015261089981846107f9565b905092915050565b600060208201905081810360008301526108ba81610832565b9050919050565b60006020820190506108d66000830184610855565b92915050565b60006108e66108f7565b90506108f28282610a60565b919050565b6000604051905090565b600067ffffffffffffffff82111561091c5761091b610aef565b5b61092582610b32565b9050602081019050919050565b600081519050919050565b600082825260208201905092915050565b6000610959826109e2565b9150610964836109e2565b9250827fffffffffffffffffffffffffffffffffffffffffffffffffffffffffffffffff0382111561099957610998610a91565b5b828201905092915050565b60006109af826109c2565b9050919050565b60008115159050919050565b600073ffffffffffffffffffffffffffffffffffffffff82169050919050565b6000819050919050565b82818337600083830152505050565b60005b83811015610a195780820151818401526020810190506109fe565b83811115610a28576000848401525b50505050565b60006002820490506001821680610a4657607f821691505b60208210811415610a5a57610a59610ac0565b5b50919050565b610a6982610b32565b810181811067ffffffffffffffff82111715610a8857610a87610aef565b5b80604052505050565b7f4e487b7100000000000000000000000000000000000000000000000000000000600052601160045260246000fd5b7f4e487b7100000000000000000000000000000000000000000000000000000000600052602260045260246000fd5b7f4e487b7100000000000000000000000000000000000000000000000000000000600052604160045260246000fd5b600080fd5b600080fd5b600080fd5b600080fd5b6000601f19601f8301169050919050565b7f43616e6e6f7420637265617465206d6f7265207468616e20312070726f66696c60008201527f6500000000000000000000000000000000000000000000000000000000000000602082015250565b610b9b816109a4565b8114610ba657600080fd5b5056fea2646970667358221220709e5934f23f1b9583f310f5af6259bd9657c3cd0a93818268f1af80e6f13d5b64736f6c63430008070033",
					"opcodes": "PUSH1 0x80 PUSH1 0x40 MSTORE PUSH1 0x0 PUSH1 0x3 SSTORE CALLVALUE DUP1 ISZERO PUSH2 0x15 JUMPI PUSH1 0x0 DUP1 REVERT JUMPDEST POP PUSH2 0xBDF DUP1 PUSH2 0x25 PUSH1 0x0 CODECOPY PUSH1 0x0 RETURN INVALID PUSH1 0x80 PUSH1 0x40 MSTORE CALLVALUE DUP1 ISZERO PUSH2 0x10 JUMPI PUSH1 0x0 DUP1 REVERT JUMPDEST POP PUSH1 0x4 CALLDATASIZE LT PUSH2 0x62 JUMPI PUSH1 0x0 CALLDATALOAD PUSH1 0xE0 SHR DUP1 PUSH4 0x16913469 EQ PUSH2 0x67 JUMPI DUP1 PUSH4 0x17D7DE7C EQ PUSH2 0x85 JUMPI DUP1 PUSH4 0x22A9D1BC EQ PUSH2 0xA3 JUMPI DUP1 PUSH4 0x3AE7DC1A EQ PUSH2 0xBF JUMPI DUP1 PUSH4 0xA0441F29 EQ PUSH2 0xDD JUMPI DUP1 PUSH4 0xEE8B7CD9 EQ PUSH2 0xF9 JUMPI JUMPDEST PUSH1 0x0 DUP1 REVERT JUMPDEST PUSH2 0x6F PUSH2 0x115 JUMP JUMPDEST PUSH1 0x40 MLOAD PUSH2 0x7C SWAP2 SWAP1 PUSH2 0x8C1 JUMP JUMPDEST PUSH1 0x40 MLOAD DUP1 SWAP2 SUB SWAP1 RETURN JUMPDEST PUSH2 0x8D PUSH2 0x11B JUMP JUMPDEST PUSH1 0x40 MLOAD PUSH2 0x9A SWAP2 SWAP1 PUSH2 0x87F JUMP JUMPDEST PUSH1 0x40 MLOAD DUP1 SWAP2 SUB SWAP1 RETURN JUMPDEST PUSH2 0xBD PUSH1 0x4 DUP1 CALLDATASIZE SUB DUP2 ADD SWAP1 PUSH2 0xB8 SWAP2 SWAP1 PUSH2 0x72F JUMP JUMPDEST PUSH2 0x24B JUMP JUMPDEST STOP JUMPDEST PUSH2 0xC7 PUSH2 0x477 JUMP JUMPDEST PUSH1 0x40 MLOAD PUSH2 0xD4 SWAP2 SWAP1 PUSH2 0x864 JUMP JUMPDEST PUSH1 0x40 MLOAD DUP1 SWAP2 SUB SWAP1 RETURN JUMPDEST PUSH2 0xF7 PUSH1 0x4 DUP1 CALLDATASIZE SUB DUP2 ADD SWAP1 PUSH2 0xF2 SWAP2 SWAP1 PUSH2 0x6B9 JUMP JUMPDEST PUSH2 0x4DB JUMP JUMPDEST STOP JUMPDEST PUSH2 0x113 PUSH1 0x4 DUP1 CALLDATASIZE SUB DUP2 ADD SWAP1 PUSH2 0x10E SWAP2 SWAP1 PUSH2 0x6E6 JUMP JUMPDEST PUSH2 0x538 JUMP JUMPDEST STOP JUMPDEST PUSH1 0x3 SLOAD DUP2 JUMP JUMPDEST PUSH1 0x60 PUSH1 0x1 ISZERO ISZERO PUSH1 0x0 DUP1 CALLER PUSH20 0xFFFFFFFFFFFFFFFFFFFFFFFFFFFFFFFFFFFFFFFF AND PUSH20 0xFFFFFFFFFFFFFFFFFFFFFFFFFFFFFFFFFFFFFFFF AND DUP2 MSTORE PUSH1 0x20 ADD SWAP1 DUP2 MSTORE PUSH1 0x20 ADD PUSH1 0x0 KECCAK256 PUSH1 0x3 ADD PUSH1 0x14 SWAP1 SLOAD SWAP1 PUSH2 0x100 EXP SWAP1 DIV PUSH1 0xFF AND ISZERO ISZERO EQ PUSH2 0x17C JUMPI PUSH1 0x0 DUP1 REVERT JUMPDEST PUSH1 0x0 DUP1 CALLER PUSH20 0xFFFFFFFFFFFFFFFFFFFFFFFFFFFFFFFFFFFFFFFF AND PUSH20 0xFFFFFFFFFFFFFFFFFFFFFFFFFFFFFFFFFFFFFFFF AND DUP2 MSTORE PUSH1 0x20 ADD SWAP1 DUP2 MSTORE PUSH1 0x20 ADD PUSH1 0x0 KECCAK256 PUSH1 0x0 ADD DUP1 SLOAD PUSH2 0x1C8 SWAP1 PUSH2 0xA2E JUMP JUMPDEST DUP1 PUSH1 0x1F ADD PUSH1 0x20 DUP1 SWAP2 DIV MUL PUSH1 0x20 ADD PUSH1 0x40 MLOAD SWAP1 DUP2 ADD PUSH1 0x40 MSTORE DUP1 SWAP3 SWAP2 SWAP1 DUP2 DUP2 MSTORE PUSH1 0x20 ADD DUP3 DUP1 SLOAD PUSH2 0x1F4 SWAP1 PUSH2 0xA2E JUMP JUMPDEST DUP1 ISZERO PUSH2 0x241 JUMPI DUP1 PUSH1 0x1F LT PUSH2 0x216 JUMPI PUSH2 0x100 DUP1 DUP4 SLOAD DIV MUL DUP4 MSTORE SWAP2 PUSH1 0x20 ADD SWAP2 PUSH2 0x241 JUMP JUMPDEST DUP3 ADD SWAP2 SWAP1 PUSH1 0x0 MSTORE PUSH1 0x20 PUSH1 0x0 KECCAK256 SWAP1 JUMPDEST DUP2 SLOAD DUP2 MSTORE SWAP1 PUSH1 0x1 ADD SWAP1 PUSH1 0x20 ADD DUP1 DUP4 GT PUSH2 0x224 JUMPI DUP3 SWAP1 SUB PUSH1 0x1F AND DUP3 ADD SWAP2 JUMPDEST POP POP POP POP POP SWAP1 POP SWAP1 JUMP JUMPDEST PUSH1 0x0 ISZERO ISZERO PUSH1 0x0 DUP1 DUP4 PUSH20 0xFFFFFFFFFFFFFFFFFFFFFFFFFFFFFFFFFFFFFFFF AND PUSH20 0xFFFFFFFFFFFFFFFFFFFFFFFFFFFFFFFFFFFFFFFF AND DUP2 MSTORE PUSH1 0x20 ADD SWAP1 DUP2 MSTORE PUSH1 0x20 ADD PUSH1 0x0 KECCAK256 PUSH1 0x3 ADD PUSH1 0x14 SWAP1 SLOAD SWAP1 PUSH2 0x100 EXP SWAP1 DIV PUSH1 0xFF AND ISZERO ISZERO EQ PUSH2 0x2E0 JUMPI PUSH1 0x40 MLOAD PUSH32 0x8C379A000000000000000000000000000000000000000000000000000000000 DUP2 MSTORE PUSH1 0x4 ADD PUSH2 0x2D7 SWAP1 PUSH2 0x8A1 JUMP JUMPDEST PUSH1 0x40 MLOAD DUP1 SWAP2 SUB SWAP1 REVERT JUMPDEST PUSH1 0x0 PUSH1 0x40 MLOAD DUP1 PUSH1 0xA0 ADD PUSH1 0x40 MSTORE DUP1 DUP7 DUP2 MSTORE PUSH1 0x20 ADD DUP6 DUP2 MSTORE PUSH1 0x20 ADD DUP5 DUP2 MSTORE PUSH1 0x20 ADD DUP4 PUSH20 0xFFFFFFFFFFFFFFFFFFFFFFFFFFFFFFFFFFFFFFFF AND DUP2 MSTORE PUSH1 0x20 ADD PUSH1 0x1 ISZERO ISZERO DUP2 MSTORE POP SWAP1 POP DUP1 PUSH1 0x0 DUP1 DUP5 PUSH20 0xFFFFFFFFFFFFFFFFFFFFFFFFFFFFFFFFFFFFFFFF AND PUSH20 0xFFFFFFFFFFFFFFFFFFFFFFFFFFFFFFFFFFFFFFFF AND DUP2 MSTORE PUSH1 0x20 ADD SWAP1 DUP2 MSTORE PUSH1 0x20 ADD PUSH1 0x0 KECCAK256 PUSH1 0x0 DUP3 ADD MLOAD DUP2 PUSH1 0x0 ADD SWAP1 DUP1 MLOAD SWAP1 PUSH1 0x20 ADD SWAP1 PUSH2 0x37F SWAP3 SWAP2 SWAP1 PUSH2 0x591 JUMP JUMPDEST POP PUSH1 0x20 DUP3 ADD MLOAD DUP2 PUSH1 0x1 ADD SWAP1 DUP1 MLOAD SWAP1 PUSH1 0x20 ADD SWAP1 PUSH2 0x39C SWAP3 SWAP2 SWAP1 PUSH2 0x591 JUMP JUMPDEST POP PUSH1 0x40 DUP3 ADD MLOAD DUP2 PUSH1 0x2 ADD SWAP1 DUP1 MLOAD SWAP1 PUSH1 0x20 ADD SWAP1 PUSH2 0x3B9 SWAP3 SWAP2 SWAP1 PUSH2 0x591 JUMP JUMPDEST POP PUSH1 0x60 DUP3 ADD MLOAD DUP2 PUSH1 0x3 ADD PUSH1 0x0 PUSH2 0x100 EXP DUP2 SLOAD DUP2 PUSH20 0xFFFFFFFFFFFFFFFFFFFFFFFFFFFFFFFFFFFFFFFF MUL NOT AND SWAP1 DUP4 PUSH20 0xFFFFFFFFFFFFFFFFFFFFFFFFFFFFFFFFFFFFFFFF AND MUL OR SWAP1 SSTORE POP PUSH1 0x80 DUP3 ADD MLOAD DUP2 PUSH1 0x3 ADD PUSH1 0x14 PUSH2 0x100 EXP DUP2 SLOAD DUP2 PUSH1 0xFF MUL NOT AND SWAP1 DUP4 ISZERO ISZERO MUL OR SWAP1 SSTORE POP SWAP1 POP POP PUSH1 0x1 PUSH1 0x3 SLOAD PUSH2 0x433 SWAP2 SWAP1 PUSH2 0x94E JUMP JUMPDEST PUSH1 0x3 DUP2 SWAP1 SSTORE POP PUSH32 0xB3455B03A6E133BE9B93E8F000FD0C9252E1178A557652AF2F19AAFDE3382B27 DUP6 PUSH1 0x40 MLOAD PUSH2 0x468 SWAP2 SWAP1 PUSH2 0x87F JUMP JUMPDEST PUSH1 0x40 MLOAD DUP1 SWAP2 SUB SWAP1 LOG1 POP POP POP POP POP JUMP JUMPDEST PUSH1 0x0 DUP1 PUSH1 0x0 CALLER PUSH20 0xFFFFFFFFFFFFFFFFFFFFFFFFFFFFFFFFFFFFFFFF AND PUSH20 0xFFFFFFFFFFFFFFFFFFFFFFFFFFFFFFFFFFFFFFFF AND DUP2 MSTORE PUSH1 0x20 ADD SWAP1 DUP2 MSTORE PUSH1 0x20 ADD PUSH1 0x0 KECCAK256 PUSH1 0x3 ADD PUSH1 0x14 SWAP1 SLOAD SWAP1 PUSH2 0x100 EXP SWAP1 DIV PUSH1 0xFF AND PUSH2 0x4D3 JUMPI PUSH1 0x0 PUSH2 0x4D6 JUMP JUMPDEST PUSH1 0x1 JUMPDEST SWAP1 POP SWAP1 JUMP JUMPDEST PUSH1 0x0 DUP1 PUSH1 0x0 DUP4 PUSH20 0xFFFFFFFFFFFFFFFFFFFFFFFFFFFFFFFFFFFFFFFF AND PUSH20 0xFFFFFFFFFFFFFFFFFFFFFFFFFFFFFFFFFFFFFFFF AND DUP2 MSTORE PUSH1 0x20 ADD SWAP1 DUP2 MSTORE PUSH1 0x20 ADD PUSH1 0x0 KECCAK256 PUSH1 0x3 ADD PUSH1 0x14 PUSH2 0x100 EXP DUP2 SLOAD DUP2 PUSH1 0xFF MUL NOT AND SWAP1 DUP4 ISZERO ISZERO MUL OR SWAP1 SSTORE POP POP JUMP JUMPDEST DUP1 PUSH1 0x0 DUP1 CALLER PUSH20 0xFFFFFFFFFFFFFFFFFFFFFFFFFFFFFFFFFFFFFFFF AND PUSH20 0xFFFFFFFFFFFFFFFFFFFFFFFFFFFFFFFFFFFFFFFF AND DUP2 MSTORE PUSH1 0x20 ADD SWAP1 DUP2 MSTORE PUSH1 0x20 ADD PUSH1 0x0 KECCAK256 PUSH1 0x0 ADD SWAP1 DUP1 MLOAD SWAP1 PUSH1 0x20 ADD SWAP1 PUSH2 0x58D SWAP3 SWAP2 SWAP1 PUSH2 0x591 JUMP JUMPDEST POP POP JUMP JUMPDEST DUP3 DUP1 SLOAD PUSH2 0x59D SWAP1 PUSH2 0xA2E JUMP JUMPDEST SWAP1 PUSH1 0x0 MSTORE PUSH1 0x20 PUSH1 0x0 KECCAK256 SWAP1 PUSH1 0x1F ADD PUSH1 0x20 SWAP1 DIV DUP2 ADD SWAP3 DUP3 PUSH2 0x5BF JUMPI PUSH1 0x0 DUP6 SSTORE PUSH2 0x606 JUMP JUMPDEST DUP3 PUSH1 0x1F LT PUSH2 0x5D8 JUMPI DUP1 MLOAD PUSH1 0xFF NOT AND DUP4 DUP1 ADD OR DUP6 SSTORE PUSH2 0x606 JUMP JUMPDEST DUP3 DUP1 ADD PUSH1 0x1 ADD DUP6 SSTORE DUP3 ISZERO PUSH2 0x606 JUMPI SWAP2 DUP3 ADD JUMPDEST DUP3 DUP2 GT ISZERO PUSH2 0x605 JUMPI DUP3 MLOAD DUP3 SSTORE SWAP2 PUSH1 0x20 ADD SWAP2 SWAP1 PUSH1 0x1 ADD SWAP1 PUSH2 0x5EA JUMP JUMPDEST JUMPDEST POP SWAP1 POP PUSH2 0x613 SWAP2 SWAP1 PUSH2 0x617 JUMP JUMPDEST POP SWAP1 JUMP JUMPDEST JUMPDEST DUP1 DUP3 GT ISZERO PUSH2 0x630 JUMPI PUSH1 0x0 DUP2 PUSH1 0x0 SWAP1 SSTORE POP PUSH1 0x1 ADD PUSH2 0x618 JUMP JUMPDEST POP SWAP1 JUMP JUMPDEST PUSH1 0x0 PUSH2 0x647 PUSH2 0x642 DUP5 PUSH2 0x901 JUMP JUMPDEST PUSH2 0x8DC JUMP JUMPDEST SWAP1 POP DUP3 DUP2 MSTORE PUSH1 0x20 DUP2 ADD DUP5 DUP5 DUP5 ADD GT ISZERO PUSH2 0x663 JUMPI PUSH2 0x662 PUSH2 0xB23 JUMP JUMPDEST JUMPDEST PUSH2 0x66E DUP5 DUP3 DUP6 PUSH2 0x9EC JUMP JUMPDEST POP SWAP4 SWAP3 POP POP POP JUMP JUMPDEST PUSH1 0x0 DUP2 CALLDATALOAD SWAP1 POP PUSH2 0x685 DUP2 PUSH2 0xB92 JUMP JUMPDEST SWAP3 SWAP2 POP POP JUMP JUMPDEST PUSH1 0x0 DUP3 PUSH1 0x1F DUP4 ADD SLT PUSH2 0x6A0 JUMPI PUSH2 0x69F PUSH2 0xB1E JUMP JUMPDEST JUMPDEST DUP2 CALLDATALOAD PUSH2 0x6B0 DUP5 DUP3 PUSH1 0x20 DUP7 ADD PUSH2 0x634 JUMP JUMPDEST SWAP2 POP POP SWAP3 SWAP2 POP POP JUMP JUMPDEST PUSH1 0x0 PUSH1 0x20 DUP3 DUP5 SUB SLT ISZERO PUSH2 0x6CF JUMPI PUSH2 0x6CE PUSH2 0xB2D JUMP JUMPDEST JUMPDEST PUSH1 0x0 PUSH2 0x6DD DUP5 DUP3 DUP6 ADD PUSH2 0x676 JUMP JUMPDEST SWAP2 POP POP SWAP3 SWAP2 POP POP JUMP JUMPDEST PUSH1 0x0 PUSH1 0x20 DUP3 DUP5 SUB SLT ISZERO PUSH2 0x6FC JUMPI PUSH2 0x6FB PUSH2 0xB2D JUMP JUMPDEST JUMPDEST PUSH1 0x0 DUP3 ADD CALLDATALOAD PUSH8 0xFFFFFFFFFFFFFFFF DUP2 GT ISZERO PUSH2 0x71A JUMPI PUSH2 0x719 PUSH2 0xB28 JUMP JUMPDEST JUMPDEST PUSH2 0x726 DUP5 DUP3 DUP6 ADD PUSH2 0x68B JUMP JUMPDEST SWAP2 POP POP SWAP3 SWAP2 POP POP JUMP JUMPDEST PUSH1 0x0 DUP1 PUSH1 0x0 DUP1 PUSH1 0x80 DUP6 DUP8 SUB SLT ISZERO PUSH2 0x749 JUMPI PUSH2 0x748 PUSH2 0xB2D JUMP JUMPDEST JUMPDEST PUSH1 0x0 DUP6 ADD CALLDATALOAD PUSH8 0xFFFFFFFFFFFFFFFF DUP2 GT ISZERO PUSH2 0x767 JUMPI PUSH2 0x766 PUSH2 0xB28 JUMP JUMPDEST JUMPDEST PUSH2 0x773 DUP8 DUP3 DUP9 ADD PUSH2 0x68B JUMP JUMPDEST SWAP5 POP POP PUSH1 0x20 DUP6 ADD CALLDATALOAD PUSH8 0xFFFFFFFFFFFFFFFF DUP2 GT ISZERO PUSH2 0x794 JUMPI PUSH2 0x793 PUSH2 0xB28 JUMP JUMPDEST JUMPDEST PUSH2 0x7A0 DUP8 DUP3 DUP9 ADD PUSH2 0x68B JUMP JUMPDEST SWAP4 POP POP PUSH1 0x40 DUP6 ADD CALLDATALOAD PUSH8 0xFFFFFFFFFFFFFFFF DUP2 GT ISZERO PUSH2 0x7C1 JUMPI PUSH2 0x7C0 PUSH2 0xB28 JUMP JUMPDEST JUMPDEST PUSH2 0x7CD DUP8 DUP3 DUP9 ADD PUSH2 0x68B JUMP JUMPDEST SWAP3 POP POP PUSH1 0x60 PUSH2 0x7DE DUP8 DUP3 DUP9 ADD PUSH2 0x676 JUMP JUMPDEST SWAP2 POP POP SWAP3 SWAP6 SWAP2 SWAP5 POP SWAP3 POP JUMP JUMPDEST PUSH2 0x7F3 DUP2 PUSH2 0x9B6 JUMP JUMPDEST DUP3 MSTORE POP POP JUMP JUMPDEST PUSH1 0x0 PUSH2 0x804 DUP3 PUSH2 0x932 JUMP JUMPDEST PUSH2 0x80E DUP2 DUP6 PUSH2 0x93D JUMP JUMPDEST SWAP4 POP PUSH2 0x81E DUP2 DUP6 PUSH1 0x20 DUP7 ADD PUSH2 0x9FB JUMP JUMPDEST PUSH2 0x827 DUP2 PUSH2 0xB32 JUMP JUMPDEST DUP5 ADD SWAP2 POP POP SWAP3 SWAP2 POP POP JUMP JUMPDEST PUSH1 0x0 PUSH2 0x83F PUSH1 0x21 DUP4 PUSH2 0x93D JUMP JUMPDEST SWAP2 POP PUSH2 0x84A DUP3 PUSH2 0xB43 JUMP JUMPDEST PUSH1 0x40 DUP3 ADD SWAP1 POP SWAP2 SWAP1 POP JUMP JUMPDEST PUSH2 0x85E DUP2 PUSH2 0x9E2 JUMP JUMPDEST DUP3 MSTORE POP POP JUMP JUMPDEST PUSH1 0x0 PUSH1 0x20 DUP3 ADD SWAP1 POP PUSH2 0x879 PUSH1 0x0 DUP4 ADD DUP5 PUSH2 0x7EA JUMP JUMPDEST SWAP3 SWAP2 POP POP JUMP JUMPDEST PUSH1 0x0 PUSH1 0x20 DUP3 ADD SWAP1 POP DUP2 DUP2 SUB PUSH1 0x0 DUP4 ADD MSTORE PUSH2 0x899 DUP2 DUP5 PUSH2 0x7F9 JUMP JUMPDEST SWAP1 POP SWAP3 SWAP2 POP POP JUMP JUMPDEST PUSH1 0x0 PUSH1 0x20 DUP3 ADD SWAP1 POP DUP2 DUP2 SUB PUSH1 0x0 DUP4 ADD MSTORE PUSH2 0x8BA DUP2 PUSH2 0x832 JUMP JUMPDEST SWAP1 POP SWAP2 SWAP1 POP JUMP JUMPDEST PUSH1 0x0 PUSH1 0x20 DUP3 ADD SWAP1 POP PUSH2 0x8D6 PUSH1 0x0 DUP4 ADD DUP5 PUSH2 0x855 JUMP JUMPDEST SWAP3 SWAP2 POP POP JUMP JUMPDEST PUSH1 0x0 PUSH2 0x8E6 PUSH2 0x8F7 JUMP JUMPDEST SWAP1 POP PUSH2 0x8F2 DUP3 DUP3 PUSH2 0xA60 JUMP JUMPDEST SWAP2 SWAP1 POP JUMP JUMPDEST PUSH1 0x0 PUSH1 0x40 MLOAD SWAP1 POP SWAP1 JUMP JUMPDEST PUSH1 0x0 PUSH8 0xFFFFFFFFFFFFFFFF DUP3 GT ISZERO PUSH2 0x91C JUMPI PUSH2 0x91B PUSH2 0xAEF JUMP JUMPDEST JUMPDEST PUSH2 0x925 DUP3 PUSH2 0xB32 JUMP JUMPDEST SWAP1 POP PUSH1 0x20 DUP2 ADD SWAP1 POP SWAP2 SWAP1 POP JUMP JUMPDEST PUSH1 0x0 DUP2 MLOAD SWAP1 POP SWAP2 SWAP1 POP JUMP JUMPDEST PUSH1 0x0 DUP3 DUP3 MSTORE PUSH1 0x20 DUP3 ADD SWAP1 POP SWAP3 SWAP2 POP POP JUMP JUMPDEST PUSH1 0x0 PUSH2 0x959 DUP3 PUSH2 0x9E2 JUMP JUMPDEST SWAP2 POP PUSH2 0x964 DUP4 PUSH2 0x9E2 JUMP JUMPDEST SWAP3 POP DUP3 PUSH32 0xFFFFFFFFFFFFFFFFFFFFFFFFFFFFFFFFFFFFFFFFFFFFFFFFFFFFFFFFFFFFFFFF SUB DUP3 GT ISZERO PUSH2 0x999 JUMPI PUSH2 0x998 PUSH2 0xA91 JUMP JUMPDEST JUMPDEST DUP3 DUP3 ADD SWAP1 POP SWAP3 SWAP2 POP POP JUMP JUMPDEST PUSH1 0x0 PUSH2 0x9AF DUP3 PUSH2 0x9C2 JUMP JUMPDEST SWAP1 POP SWAP2 SWAP1 POP JUMP JUMPDEST PUSH1 0x0 DUP2 ISZERO ISZERO SWAP1 POP SWAP2 SWAP1 POP JUMP JUMPDEST PUSH1 0x0 PUSH20 0xFFFFFFFFFFFFFFFFFFFFFFFFFFFFFFFFFFFFFFFF DUP3 AND SWAP1 POP SWAP2 SWAP1 POP JUMP JUMPDEST PUSH1 0x0 DUP2 SWAP1 POP SWAP2 SWAP1 POP JUMP JUMPDEST DUP3 DUP2 DUP4 CALLDATACOPY PUSH1 0x0 DUP4 DUP4 ADD MSTORE POP POP POP JUMP JUMPDEST PUSH1 0x0 JUMPDEST DUP4 DUP2 LT ISZERO PUSH2 0xA19 JUMPI DUP1 DUP3 ADD MLOAD DUP2 DUP5 ADD MSTORE PUSH1 0x20 DUP2 ADD SWAP1 POP PUSH2 0x9FE JUMP JUMPDEST DUP4 DUP2 GT ISZERO PUSH2 0xA28 JUMPI PUSH1 0x0 DUP5 DUP5 ADD MSTORE JUMPDEST POP POP POP POP JUMP JUMPDEST PUSH1 0x0 PUSH1 0x2 DUP3 DIV SWAP1 POP PUSH1 0x1 DUP3 AND DUP1 PUSH2 0xA46 JUMPI PUSH1 0x7F DUP3 AND SWAP2 POP JUMPDEST PUSH1 0x20 DUP3 LT DUP2 EQ ISZERO PUSH2 0xA5A JUMPI PUSH2 0xA59 PUSH2 0xAC0 JUMP JUMPDEST JUMPDEST POP SWAP2 SWAP1 POP JUMP JUMPDEST PUSH2 0xA69 DUP3 PUSH2 0xB32 JUMP JUMPDEST DUP2 ADD DUP2 DUP2 LT PUSH8 0xFFFFFFFFFFFFFFFF DUP3 GT OR ISZERO PUSH2 0xA88 JUMPI PUSH2 0xA87 PUSH2 0xAEF JUMP JUMPDEST JUMPDEST DUP1 PUSH1 0x40 MSTORE POP POP POP JUMP JUMPDEST PUSH32 0x4E487B7100000000000000000000000000000000000000000000000000000000 PUSH1 0x0 MSTORE PUSH1 0x11 PUSH1 0x4 MSTORE PUSH1 0x24 PUSH1 0x0 REVERT JUMPDEST PUSH32 0x4E487B7100000000000000000000000000000000000000000000000000000000 PUSH1 0x0 MSTORE PUSH1 0x22 PUSH1 0x4 MSTORE PUSH1 0x24 PUSH1 0x0 REVERT JUMPDEST PUSH32 0x4E487B7100000000000000000000000000000000000000000000000000000000 PUSH1 0x0 MSTORE PUSH1 0x41 PUSH1 0x4 MSTORE PUSH1 0x24 PUSH1 0x0 REVERT JUMPDEST PUSH1 0x0 DUP1 REVERT JUMPDEST PUSH1 0x0 DUP1 REVERT JUMPDEST PUSH1 0x0 DUP1 REVERT JUMPDEST PUSH1 0x0 DUP1 REVERT JUMPDEST PUSH1 0x0 PUSH1 0x1F NOT PUSH1 0x1F DUP4 ADD AND SWAP1 POP SWAP2 SWAP1 POP JUMP JUMPDEST PUSH32 0x43616E6E6F7420637265617465206D6F7265207468616E20312070726F66696C PUSH1 0x0 DUP3 ADD MSTORE PUSH32 0x6500000000000000000000000000000000000000000000000000000000000000 PUSH1 0x20 DUP3 ADD MSTORE POP JUMP JUMPDEST PUSH2 0xB9B DUP2 PUSH2 0x9A4 JUMP JUMPDEST DUP2 EQ PUSH2 0xBA6 JUMPI PUSH1 0x0 DUP1 REVERT JUMPDEST POP JUMP INVALID LOG2 PUSH5 0x6970667358 0x22 SLT KECCAK256 PUSH17 0x9E5934F23F1B9583F310F5AF6259BD9657 0xC3 0xCD EXP SWAP4 DUP2 DUP3 PUSH9 0xF1AF80E6F13D5B6473 PUSH16 0x6C634300080700330000000000000000 "
				},
				"gasEstimates": {
					"creation": {
						"codeDepositCost": "607800",
						"executionCost": "5644",
						"totalCost": "613444"
					},
					"external": {
						"checkValidProfile()": "2696",
						"createProfile(string,string,string,address)": "infinite",
						"deleteProfile(address)": "24934",
						"getName()": "infinite",
						"numProfile()": "2407",
						"updateProfileName(string)": "infinite"
					}
				},
				"methodIdentifiers": {
					"checkValidProfile()": "3ae7dc1a",
					"createProfile(string,string,string,address)": "22a9d1bc",
					"deleteProfile(address)": "a0441f29",
					"getName()": "17d7de7c",
					"numProfile()": "16913469",
					"updateProfileName(string)": "ee8b7cd9"
				}
			},
			"userdoc": {
				"kind": "user",
				"methods": {},
				"version": 1
			}
		}
	}
}