{
	"data": {
		"bytecode": {
			"linkReferences": {},
			"object": "608060405233600260006101000a81548173ffffffffffffffffffffffffffffffffffffffff021916908373ffffffffffffffffffffffffffffffffffffffff16021790555033600360006101000a81548173ffffffffffffffffffffffffffffffffffffffff021916908373ffffffffffffffffffffffffffffffffffffffff1602179055503480156200009357600080fd5b5060405162002a1d38038062002a1d8339818101604052810190620000b991906200018f565b826000806101000a81548173ffffffffffffffffffffffffffffffffffffffff021916908373ffffffffffffffffffffffffffffffffffffffff16021790555081600160006101000a81548173ffffffffffffffffffffffffffffffffffffffff021916908373ffffffffffffffffffffffffffffffffffffffff16021790555080600481905550505050620002a4565b6000815190506200015b8162000256565b92915050565b600081519050620001728162000270565b92915050565b60008151905062000189816200028a565b92915050565b600080600060608486031215620001ab57620001aa62000251565b5b6000620001bb868287016200014a565b9350506020620001ce8682870162000161565b9250506040620001e18682870162000178565b9150509250925092565b6000620001f88262000227565b9050919050565b60006200020c82620001eb565b9050919050565b60006200022082620001eb565b9050919050565b600073ffffffffffffffffffffffffffffffffffffffff82169050919050565b6000819050919050565b600080fd5b6200026181620001ff565b81146200026d57600080fd5b50565b6200027b8162000213565b81146200028757600080fd5b50565b620002958162000247565b8114620002a157600080fd5b50565b61276980620002b46000396000f3fe608060405234801561001057600080fd5b50600436106101e45760003560e01c80636f871c3d1161010f578063ba1feb8a116100a2578063ccee835b11610071578063ccee835b1461051f578063d1e992a71461054f578063f1f924871461056b578063fd23c4bb14610587576101e4565b8063ba1feb8a1461049b578063bba93c0b146104b7578063c304ccdc146104d3578063c3b9e30414610503576101e4565b806398facc73116100de57806398facc73146104175780639c87a5e914610433578063ace731bd1461044f578063b9b6c5d41461047f576101e4565b80636f871c3d146103a5578063741a7591146103c15780637d3ebecd146103df5780638c4c1347146103fb576101e4565b80634cd0cb2811610187578063664fc0cd11610156578063664fc0cd146103335780636795f3b7146103635780636bd062041461037f5780636d4540eb1461039b576101e4565b80634cd0cb28146102c357806353c49c64146102df57806363ef8a50146102fb57806363fccb0314610317576101e4565b806312327a66116101c357806312327a661461023d578063153d01941461026d57806317d7de7c146102895780632a31f1d7146102a7576101e4565b80623f489f146101e9578063010dfd931461020557806308c6f4ab14610221575b600080fd5b61020360048036038101906101fe9190611cc9565b6105a3565b005b61021f600480360381019061021a9190611c04565b610638565b005b61023b60048036038101906102369190611cc9565b6106d9565b005b61025760048036038101906102529190611a40565b610771565b6040516102649190612034565b60405180910390f35b61028760048036038101906102829190611f3d565b610829565b005b6102916108c4565b60405161029e9190612034565b60405180910390f35b6102c160048036038101906102bc9190611e78565b610979565b005b6102dd60048036038101906102d89190611a40565b610a1a565b005b6102f960048036038101906102f49190611b25565b610aac565b005b61031560048036038101906103109190611b65565b610b41565b005b610331600480360381019061032c9190611b25565b610bdc565b005b61034d60048036038101906103489190611b25565b610c71565b60405161035a919061209b565b60405180910390f35b61037d60048036038101906103789190611b25565b610d28565b005b610399600480360381019061039491906119c8565b610dbd565b005b6103a3610e52565b005b6103bf60048036038101906103ba9190611b25565b610edf565b005b6103c9610f74565b6040516103d6919061209b565b60405180910390f35b6103f960048036038101906103f49190611a9a565b610f7a565b005b61041560048036038101906104109190611a9a565b611012565b005b610431600480360381019061042c9190611b25565b6110aa565b005b61044d60048036038101906104489190611cc9565b61113f565b005b61046960048036038101906104649190611cc9565b6111d7565b6040516104769190612034565b60405180910390f35b61049960048036038101906104949190611cc9565b611295565b005b6104b560048036038101906104b091906119c8565b61132d565b005b6104d160048036038101906104cc9190611d1c565b6113c0565b005b6104ed60048036038101906104e89190611b25565b61145f565b6040516104fa9190612034565b60405180910390f35b61051d60048036038101906105189190611cc9565b61151a565b005b61053960048036038101906105349190611b25565b6115b2565b604051610546919061209b565b60405180910390f35b61056960048036038101906105649190611dc5565b611669565b005b610585600480360381019061058091906119c8565b611705565b005b6105a1600480360381019061059c9190611dc5565b611798565b005b600160009054906101000a900473ffffffffffffffffffffffffffffffffffffffff1673ffffffffffffffffffffffffffffffffffffffff16623f489f8484846040518463ffffffff1660e01b815260040161060193929190612270565b600060405180830381600087803b15801561061b57600080fd5b505af115801561062f573d6000803e3d6000fd5b50505050505050565b600160009054906101000a900473ffffffffffffffffffffffffffffffffffffffff1673ffffffffffffffffffffffffffffffffffffffff16630c7d7ceb878787878787336040518863ffffffff1660e01b815260040161069f97969594939291906121f3565b600060405180830381600087803b1580156106b957600080fd5b505af11580156106cd573d6000803e3d6000fd5b50505050505050505050565b600160009054906101000a900473ffffffffffffffffffffffffffffffffffffffff1673ffffffffffffffffffffffffffffffffffffffff1663b1e2ec78848484336040518563ffffffff1660e01b815260040161073a94939291906122a7565b600060405180830381600087803b15801561075457600080fd5b505af1158015610768573d6000803e3d6000fd5b50505050505050565b6060600160009054906101000a900473ffffffffffffffffffffffffffffffffffffffff1673ffffffffffffffffffffffffffffffffffffffff166312327a66836040518263ffffffff1660e01b81526004016107ce919061209b565b60006040518083038186803b1580156107e657600080fd5b505afa1580156107fa573d6000803e3d6000fd5b505050506040513d6000823e3d601f19601f82011682018060405250810190610823919061197f565b50919050565b600160009054906101000a900473ffffffffffffffffffffffffffffffffffffffff1673ffffffffffffffffffffffffffffffffffffffff1663c171bdf785858533866040518663ffffffff1660e01b815260040161088c959493929190612354565b600060405180830381600087803b1580156108a657600080fd5b505af11580156108ba573d6000803e3d6000fd5b5050505050505050565b606060008054906101000a900473ffffffffffffffffffffffffffffffffffffffff1673ffffffffffffffffffffffffffffffffffffffff16635fd4b08a336040518263ffffffff1660e01b815260040161091f9190612019565b60006040518083038186803b15801561093757600080fd5b505afa15801561094b573d6000803e3d6000fd5b505050506040513d6000823e3d601f19601f82011682018060405250810190610974919061197f565b905090565b600160009054906101000a900473ffffffffffffffffffffffffffffffffffffffff1673ffffffffffffffffffffffffffffffffffffffff1663e731ac45878787878733886040518863ffffffff1660e01b81526004016109e09796959493929190612477565b600060405180830381600087803b1580156109fa57600080fd5b505af1158015610a0e573d6000803e3d6000fd5b50505050505050505050565b600160009054906101000a900473ffffffffffffffffffffffffffffffffffffffff1673ffffffffffffffffffffffffffffffffffffffff166387d5e03482336040518363ffffffff1660e01b8152600401610a779291906120b6565b600060405180830381600087803b158015610a9157600080fd5b505af1158015610aa5573d6000803e3d6000fd5b5050505050565b600160009054906101000a900473ffffffffffffffffffffffffffffffffffffffff1673ffffffffffffffffffffffffffffffffffffffff166358fa4c5e8383336040518463ffffffff1660e01b8152600401610b0b9392919061215b565b600060405180830381600087803b158015610b2557600080fd5b505af1158015610b39573d6000803e3d6000fd5b505050505050565b600160009054906101000a900473ffffffffffffffffffffffffffffffffffffffff1673ffffffffffffffffffffffffffffffffffffffff1663b3fbe99785858585336040518663ffffffff1660e01b8152600401610ba4959493929190612192565b600060405180830381600087803b158015610bbe57600080fd5b505af1158015610bd2573d6000803e3d6000fd5b5050505050505050565b600160009054906101000a900473ffffffffffffffffffffffffffffffffffffffff1673ffffffffffffffffffffffffffffffffffffffff1663529884e78383336040518463ffffffff1660e01b8152600401610c3b9392919061215b565b600060405180830381600087803b158015610c5557600080fd5b505af1158015610c69573d6000803e3d6000fd5b505050505050565b6000600160009054906101000a900473ffffffffffffffffffffffffffffffffffffffff1673ffffffffffffffffffffffffffffffffffffffff1663664fc0cd84846040518363ffffffff1660e01b8152600401610cd0929190612132565b60206040518083038186803b158015610ce857600080fd5b505afa158015610cfc573d6000803e3d6000fd5b505050506040513d601f19601f82011682018060405250810190610d209190611a6d565b905092915050565b600160009054906101000a900473ffffffffffffffffffffffffffffffffffffffff1673ffffffffffffffffffffffffffffffffffffffff166314da947b8383336040518463ffffffff1660e01b8152600401610d879392919061215b565b600060405180830381600087803b158015610da157600080fd5b505af1158015610db5573d6000803e3d6000fd5b505050505050565b600160009054906101000a900473ffffffffffffffffffffffffffffffffffffffff1673ffffffffffffffffffffffffffffffffffffffff166360ae1e928383336040518463ffffffff1660e01b8152600401610e1c93929190612056565b600060405180830381600087803b158015610e3657600080fd5b505af1158015610e4a573d6000803e3d6000fd5b505050505050565b60008054906101000a900473ffffffffffffffffffffffffffffffffffffffff1673ffffffffffffffffffffffffffffffffffffffff1663a0441f29336040518263ffffffff1660e01b8152600401610eab9190612019565b600060405180830381600087803b158015610ec557600080fd5b505af1158015610ed9573d6000803e3d6000fd5b50505050565b600160009054906101000a900473ffffffffffffffffffffffffffffffffffffffff1673ffffffffffffffffffffffffffffffffffffffff16638c749c748383336040518463ffffffff1660e01b8152600401610f3e9392919061215b565b600060405180830381600087803b158015610f5857600080fd5b505af1158015610f6c573d6000803e3d6000fd5b505050505050565b60045481565b600160009054906101000a900473ffffffffffffffffffffffffffffffffffffffff1673ffffffffffffffffffffffffffffffffffffffff1663a19bffbe848484336040518563ffffffff1660e01b8152600401610fdb94939291906120df565b600060405180830381600087803b158015610ff557600080fd5b505af1158015611009573d6000803e3d6000fd5b50505050505050565b600160009054906101000a900473ffffffffffffffffffffffffffffffffffffffff1673ffffffffffffffffffffffffffffffffffffffff1663c3c4a6a4848484336040518563ffffffff1660e01b815260040161107394939291906120df565b600060405180830381600087803b15801561108d57600080fd5b505af11580156110a1573d6000803e3d6000fd5b50505050505050565b600160009054906101000a900473ffffffffffffffffffffffffffffffffffffffff1673ffffffffffffffffffffffffffffffffffffffff1663f0f238ce8383336040518463ffffffff1660e01b81526004016111099392919061215b565b600060405180830381600087803b15801561112357600080fd5b505af1158015611137573d6000803e3d6000fd5b505050505050565b600160009054906101000a900473ffffffffffffffffffffffffffffffffffffffff1673ffffffffffffffffffffffffffffffffffffffff1663a02b90c9848484336040518563ffffffff1660e01b81526004016111a094939291906122a7565b600060405180830381600087803b1580156111ba57600080fd5b505af11580156111ce573d6000803e3d6000fd5b50505050505050565b6060600160009054906101000a900473ffffffffffffffffffffffffffffffffffffffff1673ffffffffffffffffffffffffffffffffffffffff1663ace731bd8585856040518463ffffffff1660e01b815260040161123893929190612270565b60006040518083038186803b15801561125057600080fd5b505afa158015611264573d6000803e3d6000fd5b505050506040513d6000823e3d601f19601f8201168201806040525081019061128d919061197f565b509392505050565b600160009054906101000a900473ffffffffffffffffffffffffffffffffffffffff1673ffffffffffffffffffffffffffffffffffffffff166353c400e1848484336040518563ffffffff1660e01b81526004016112f694939291906122a7565b600060405180830381600087803b15801561131057600080fd5b505af1158015611324573d6000803e3d6000fd5b50505050505050565b60008054906101000a900473ffffffffffffffffffffffffffffffffffffffff1673ffffffffffffffffffffffffffffffffffffffff1663b3ed9b4c8383336040518463ffffffff1660e01b815260040161138a93929190612056565b600060405180830381600087803b1580156113a457600080fd5b505af11580156113b8573d6000803e3d6000fd5b505050505050565b600160009054906101000a900473ffffffffffffffffffffffffffffffffffffffff1673ffffffffffffffffffffffffffffffffffffffff1663bba93c0b8787878787876040518763ffffffff1660e01b8152600401611425969594939291906122ec565b600060405180830381600087803b15801561143f57600080fd5b505af1158015611453573d6000803e3d6000fd5b50505050505050505050565b6060600160009054906101000a900473ffffffffffffffffffffffffffffffffffffffff1673ffffffffffffffffffffffffffffffffffffffff1663c304ccdc84846040518363ffffffff1660e01b81526004016114be929190612132565b60006040518083038186803b1580156114d657600080fd5b505afa1580156114ea573d6000803e3d6000fd5b505050506040513d6000823e3d601f19601f82011682018060405250810190611513919061197f565b5092915050565b600160009054906101000a900473ffffffffffffffffffffffffffffffffffffffff1673ffffffffffffffffffffffffffffffffffffffff1663ce1f8a89848484336040518563ffffffff1660e01b815260040161157b94939291906122a7565b600060405180830381600087803b15801561159557600080fd5b505af11580156115a9573d6000803e3d6000fd5b50505050505050565b6000600160009054906101000a900473ffffffffffffffffffffffffffffffffffffffff1673ffffffffffffffffffffffffffffffffffffffff1663ccee835b84846040518363ffffffff1660e01b8152600401611611929190612132565b60206040518083038186803b15801561162957600080fd5b505afa15801561163d573d6000803e3d6000fd5b505050506040513d601f19601f820116820180604052508101906116619190611a6d565b905092915050565b600160009054906101000a900473ffffffffffffffffffffffffffffffffffffffff1673ffffffffffffffffffffffffffffffffffffffff1663d1e992a786868686866040518663ffffffff1660e01b81526004016116cc9594939291906123a7565b600060405180830381600087803b1580156116e657600080fd5b505af11580156116fa573d6000803e3d6000fd5b505050505050505050565b60008054906101000a900473ffffffffffffffffffffffffffffffffffffffff1673ffffffffffffffffffffffffffffffffffffffff1663b69471e78383336040518463ffffffff1660e01b815260040161176293929190612056565b600060405180830381600087803b15801561177c57600080fd5b505af1158015611790573d6000803e3d6000fd5b505050505050565b600160009054906101000a900473ffffffffffffffffffffffffffffffffffffffff1673ffffffffffffffffffffffffffffffffffffffff16631db95ff38686868686336040518763ffffffff1660e01b81526004016117fd96959493929190612408565b600060405180830381600087803b15801561181757600080fd5b505af115801561182b573d6000803e3d6000fd5b505050505050505050565b600061184961184484612519565b6124f4565b905082815260208101848484011115611865576118646126aa565b5b6118708482856125d4565b509392505050565b600061188b61188684612519565b6124f4565b9050828152602081018484840111156118a7576118a66126aa565b5b6118b28482856125e3565b509392505050565b6000813590506118c9816126de565b92915050565b6000813590506118de816126f5565b92915050565b600082601f8301126118f9576118f86126a5565b5b8135611909848260208601611836565b91505092915050565b600082601f830112611927576119266126a5565b5b8151611937848260208601611878565b91505092915050565b60008135905061194f81612705565b92915050565b60008151905061196481612705565b92915050565b6000813590506119798161271c565b92915050565b600060208284031215611995576119946126b4565b5b600082015167ffffffffffffffff8111156119b3576119b26126af565b5b6119bf84828501611912565b91505092915050565b600080604083850312156119df576119de6126b4565b5b600083013567ffffffffffffffff8111156119fd576119fc6126af565b5b611a09858286016118e4565b925050602083013567ffffffffffffffff811115611a2a57611a296126af565b5b611a36858286016118e4565b9150509250929050565b600060208284031215611a5657611a556126b4565b5b6000611a6484828501611940565b91505092915050565b600060208284031215611a8357611a826126b4565b5b6000611a9184828501611955565b91505092915050565b600080600060608486031215611ab357611ab26126b4565b5b6000611ac186828701611940565b935050602084013567ffffffffffffffff811115611ae257611ae16126af565b5b611aee868287016118e4565b925050604084013567ffffffffffffffff811115611b0f57611b0e6126af565b5b611b1b868287016118e4565b9150509250925092565b60008060408385031215611b3c57611b3b6126b4565b5b6000611b4a85828601611940565b9250506020611b5b85828601611940565b9150509250929050565b60008060008060808587031215611b7f57611b7e6126b4565b5b6000611b8d87828801611940565b9450506020611b9e87828801611940565b935050604085013567ffffffffffffffff811115611bbf57611bbe6126af565b5b611bcb878288016118e4565b925050606085013567ffffffffffffffff811115611bec57611beb6126af565b5b611bf8878288016118e4565b91505092959194509250565b60008060008060008060c08789031215611c2157611c206126b4565b5b6000611c2f89828a01611940565b9650506020611c4089828a01611940565b955050604087013567ffffffffffffffff811115611c6157611c606126af565b5b611c6d89828a016118e4565b945050606087013567ffffffffffffffff811115611c8e57611c8d6126af565b5b611c9a89828a016118e4565b9350506080611cab89828a01611940565b92505060a0611cbc89828a016118cf565b9150509295509295509295565b600080600060608486031215611ce257611ce16126b4565b5b6000611cf086828701611940565b9350506020611d0186828701611940565b9250506040611d1286828701611940565b9150509250925092565b60008060008060008060c08789031215611d3957611d386126b4565b5b6000611d4789828a01611940565b9650506020611d5889828a01611940565b9550506040611d6989828a01611940565b9450506060611d7a89828a016118ba565b935050608087013567ffffffffffffffff811115611d9b57611d9a6126af565b5b611da789828a016118e4565b92505060a0611db889828a01611940565b9150509295509295509295565b600080600080600060a08688031215611de157611de06126b4565b5b6000611def88828901611940565b9550506020611e0088828901611940565b9450506040611e1188828901611940565b935050606086013567ffffffffffffffff811115611e3257611e316126af565b5b611e3e888289016118e4565b925050608086013567ffffffffffffffff811115611e5f57611e5e6126af565b5b611e6b888289016118e4565b9150509295509295909350565b60008060008060008060c08789031215611e9557611e946126b4565b5b6000611ea389828a01611940565b9650506020611eb489828a01611940565b9550506040611ec589828a01611940565b945050606087013567ffffffffffffffff811115611ee657611ee56126af565b5b611ef289828a016118e4565b935050608087013567ffffffffffffffff811115611f1357611f126126af565b5b611f1f89828a016118e4565b92505060a0611f3089828a01611940565b9150509295509295509295565b60008060008060808587031215611f5757611f566126b4565b5b6000611f6587828801611940565b9450506020611f7687828801611940565b9350506040611f8787828801611940565b9250506060611f988782880161196a565b91505092959194509250565b611fad81612566565b82525050565b611fbc816125c2565b82525050565b6000611fcd8261254a565b611fd78185612555565b9350611fe78185602086016125e3565b611ff0816126b9565b840191505092915050565b612004816125ab565b82525050565b612013816125b5565b82525050565b600060208201905061202e6000830184611fa4565b92915050565b6000602082019050818103600083015261204e8184611fc2565b905092915050565b600060608201905081810360008301526120708186611fc2565b905081810360208301526120848185611fc2565b90506120936040830184611fa4565b949350505050565b60006020820190506120b06000830184611ffb565b92915050565b60006040820190506120cb6000830185611ffb565b6120d86020830184611fa4565b9392505050565b60006080820190506120f46000830187611ffb565b81810360208301526121068186611fc2565b9050818103604083015261211a8185611fc2565b90506121296060830184611fa4565b95945050505050565b60006040820190506121476000830185611ffb565b6121546020830184611ffb565b9392505050565b60006060820190506121706000830186611ffb565b61217d6020830185611ffb565b61218a6040830184611fa4565b949350505050565b600060a0820190506121a76000830188611ffb565b6121b46020830187611ffb565b81810360408301526121c68186611fc2565b905081810360608301526121da8185611fc2565b90506121e96080830184611fa4565b9695505050505050565b600060e082019050612208600083018a611ffb565b6122156020830189611ffb565b81810360408301526122278188611fc2565b9050818103606083015261223b8187611fc2565b905061224a6080830186611ffb565b61225760a0830185611fb3565b61226460c0830184611fa4565b98975050505050505050565b60006060820190506122856000830186611ffb565b6122926020830185611ffb565b61229f6040830184611ffb565b949350505050565b60006080820190506122bc6000830187611ffb565b6122c96020830186611ffb565b6122d66040830185611ffb565b6122e36060830184611fa4565b95945050505050565b600060c0820190506123016000830189611ffb565b61230e6020830188611ffb565b61231b6040830187611ffb565b6123286060830186611fa4565b818103608083015261233a8185611fc2565b905061234960a0830184611ffb565b979650505050505050565b600060a0820190506123696000830188611ffb565b6123766020830187611ffb565b6123836040830186611ffb565b6123906060830185611fa4565b61239d608083018461200a565b9695505050505050565b600060a0820190506123bc6000830188611ffb565b6123c96020830187611ffb565b6123d66040830186611ffb565b81810360608301526123e88185611fc2565b905081810360808301526123fc8184611fc2565b90509695505050505050565b600060c08201905061241d6000830189611ffb565b61242a6020830188611ffb565b6124376040830187611ffb565b81810360608301526124498186611fc2565b9050818103608083015261245d8185611fc2565b905061246c60a0830184611fa4565b979650505050505050565b600060e08201905061248c600083018a611ffb565b6124996020830189611ffb565b6124a66040830188611ffb565b81810360608301526124b88187611fc2565b905081810360808301526124cc8186611fc2565b90506124db60a0830185611fa4565b6124e860c0830184611ffb565b98975050505050505050565b60006124fe61250f565b905061250a8282612616565b919050565b6000604051905090565b600067ffffffffffffffff82111561253457612533612676565b5b61253d826126b9565b9050602081019050919050565b600081519050919050565b600082825260208201905092915050565b60006125718261258b565b9050919050565b6000819050612586826126ca565b919050565b600073ffffffffffffffffffffffffffffffffffffffff82169050919050565b6000819050919050565b600060ff82169050919050565b60006125cd82612578565b9050919050565b82818337600083830152505050565b60005b838110156126015780820151818401526020810190506125e6565b83811115612610576000848401525b50505050565b61261f826126b9565b810181811067ffffffffffffffff8211171561263e5761263d612676565b5b80604052505050565b7f4e487b7100000000000000000000000000000000000000000000000000000000600052602160045260246000fd5b7f4e487b7100000000000000000000000000000000000000000000000000000000600052604160045260246000fd5b600080fd5b600080fd5b600080fd5b600080fd5b6000601f19601f8301169050919050565b600681106126db576126da612647565b5b50565b6126e781612566565b81146126f257600080fd5b50565b6006811061270257600080fd5b50565b61270e816125ab565b811461271957600080fd5b50565b612725816125b5565b811461273057600080fd5b5056fea2646970667358221220093035d68437a0c424f6aad81da48d631de04f1be2a26fbf7543060aa462cab164736f6c63430008070033",
			"opcodes": "PUSH1 0x80 PUSH1 0x40 MSTORE CALLER PUSH1 0x2 PUSH1 0x0 PUSH2 0x100 EXP DUP2 SLOAD DUP2 PUSH20 0xFFFFFFFFFFFFFFFFFFFFFFFFFFFFFFFFFFFFFFFF MUL NOT AND SWAP1 DUP4 PUSH20 0xFFFFFFFFFFFFFFFFFFFFFFFFFFFFFFFFFFFFFFFF AND MUL OR SWAP1 SSTORE POP CALLER PUSH1 0x3 PUSH1 0x0 PUSH2 0x100 EXP DUP2 SLOAD DUP2 PUSH20 0xFFFFFFFFFFFFFFFFFFFFFFFFFFFFFFFFFFFFFFFF MUL NOT AND SWAP1 DUP4 PUSH20 0xFFFFFFFFFFFFFFFFFFFFFFFFFFFFFFFFFFFFFFFF AND MUL OR SWAP1 SSTORE POP CALLVALUE DUP1 ISZERO PUSH3 0x93 JUMPI PUSH1 0x0 DUP1 REVERT JUMPDEST POP PUSH1 0x40 MLOAD PUSH3 0x2A1D CODESIZE SUB DUP1 PUSH3 0x2A1D DUP4 CODECOPY DUP2 DUP2 ADD PUSH1 0x40 MSTORE DUP2 ADD SWAP1 PUSH3 0xB9 SWAP2 SWAP1 PUSH3 0x18F JUMP JUMPDEST DUP3 PUSH1 0x0 DUP1 PUSH2 0x100 EXP DUP2 SLOAD DUP2 PUSH20 0xFFFFFFFFFFFFFFFFFFFFFFFFFFFFFFFFFFFFFFFF MUL NOT AND SWAP1 DUP4 PUSH20 0xFFFFFFFFFFFFFFFFFFFFFFFFFFFFFFFFFFFFFFFF AND MUL OR SWAP1 SSTORE POP DUP2 PUSH1 0x1 PUSH1 0x0 PUSH2 0x100 EXP DUP2 SLOAD DUP2 PUSH20 0xFFFFFFFFFFFFFFFFFFFFFFFFFFFFFFFFFFFFFFFF MUL NOT AND SWAP1 DUP4 PUSH20 0xFFFFFFFFFFFFFFFFFFFFFFFFFFFFFFFFFFFFFFFF AND MUL OR SWAP1 SSTORE POP DUP1 PUSH1 0x4 DUP2 SWAP1 SSTORE POP POP POP POP PUSH3 0x2A4 JUMP JUMPDEST PUSH1 0x0 DUP2 MLOAD SWAP1 POP PUSH3 0x15B DUP2 PUSH3 0x256 JUMP JUMPDEST SWAP3 SWAP2 POP POP JUMP JUMPDEST PUSH1 0x0 DUP2 MLOAD SWAP1 POP PUSH3 0x172 DUP2 PUSH3 0x270 JUMP JUMPDEST SWAP3 SWAP2 POP POP JUMP JUMPDEST PUSH1 0x0 DUP2 MLOAD SWAP1 POP PUSH3 0x189 DUP2 PUSH3 0x28A JUMP JUMPDEST SWAP3 SWAP2 POP POP JUMP JUMPDEST PUSH1 0x0 DUP1 PUSH1 0x0 PUSH1 0x60 DUP5 DUP7 SUB SLT ISZERO PUSH3 0x1AB JUMPI PUSH3 0x1AA PUSH3 0x251 JUMP JUMPDEST JUMPDEST PUSH1 0x0 PUSH3 0x1BB DUP7 DUP3 DUP8 ADD PUSH3 0x14A JUMP JUMPDEST SWAP4 POP POP PUSH1 0x20 PUSH3 0x1CE DUP7 DUP3 DUP8 ADD PUSH3 0x161 JUMP JUMPDEST SWAP3 POP POP PUSH1 0x40 PUSH3 0x1E1 DUP7 DUP3 DUP8 ADD PUSH3 0x178 JUMP JUMPDEST SWAP2 POP POP SWAP3 POP SWAP3 POP SWAP3 JUMP JUMPDEST PUSH1 0x0 PUSH3 0x1F8 DUP3 PUSH3 0x227 JUMP JUMPDEST SWAP1 POP SWAP2 SWAP1 POP JUMP JUMPDEST PUSH1 0x0 PUSH3 0x20C DUP3 PUSH3 0x1EB JUMP JUMPDEST SWAP1 POP SWAP2 SWAP1 POP JUMP JUMPDEST PUSH1 0x0 PUSH3 0x220 DUP3 PUSH3 0x1EB JUMP JUMPDEST SWAP1 POP SWAP2 SWAP1 POP JUMP JUMPDEST PUSH1 0x0 PUSH20 0xFFFFFFFFFFFFFFFFFFFFFFFFFFFFFFFFFFFFFFFF DUP3 AND SWAP1 POP SWAP2 SWAP1 POP JUMP JUMPDEST PUSH1 0x0 DUP2 SWAP1 POP SWAP2 SWAP1 POP JUMP JUMPDEST PUSH1 0x0 DUP1 REVERT JUMPDEST PUSH3 0x261 DUP2 PUSH3 0x1FF JUMP JUMPDEST DUP2 EQ PUSH3 0x26D JUMPI PUSH1 0x0 DUP1 REVERT JUMPDEST POP JUMP JUMPDEST PUSH3 0x27B DUP2 PUSH3 0x213 JUMP JUMPDEST DUP2 EQ PUSH3 0x287 JUMPI PUSH1 0x0 DUP1 REVERT JUMPDEST POP JUMP JUMPDEST PUSH3 0x295 DUP2 PUSH3 0x247 JUMP JUMPDEST DUP2 EQ PUSH3 0x2A1 JUMPI PUSH1 0x0 DUP1 REVERT JUMPDEST POP JUMP JUMPDEST PUSH2 0x2769 DUP1 PUSH3 0x2B4 PUSH1 0x0 CODECOPY PUSH1 0x0 RETURN INVALID PUSH1 0x80 PUSH1 0x40 MSTORE CALLVALUE DUP1 ISZERO PUSH2 0x10 JUMPI PUSH1 0x0 DUP1 REVERT JUMPDEST POP PUSH1 0x4 CALLDATASIZE LT PUSH2 0x1E4 JUMPI PUSH1 0x0 CALLDATALOAD PUSH1 0xE0 SHR DUP1 PUSH4 0x6F871C3D GT PUSH2 0x10F JUMPI DUP1 PUSH4 0xBA1FEB8A GT PUSH2 0xA2 JUMPI DUP1 PUSH4 0xCCEE835B GT PUSH2 0x71 JUMPI DUP1 PUSH4 0xCCEE835B EQ PUSH2 0x51F JUMPI DUP1 PUSH4 0xD1E992A7 EQ PUSH2 0x54F JUMPI DUP1 PUSH4 0xF1F92487 EQ PUSH2 0x56B JUMPI DUP1 PUSH4 0xFD23C4BB EQ PUSH2 0x587 JUMPI PUSH2 0x1E4 JUMP JUMPDEST DUP1 PUSH4 0xBA1FEB8A EQ PUSH2 0x49B JUMPI DUP1 PUSH4 0xBBA93C0B EQ PUSH2 0x4B7 JUMPI DUP1 PUSH4 0xC304CCDC EQ PUSH2 0x4D3 JUMPI DUP1 PUSH4 0xC3B9E304 EQ PUSH2 0x503 JUMPI PUSH2 0x1E4 JUMP JUMPDEST DUP1 PUSH4 0x98FACC73 GT PUSH2 0xDE JUMPI DUP1 PUSH4 0x98FACC73 EQ PUSH2 0x417 JUMPI DUP1 PUSH4 0x9C87A5E9 EQ PUSH2 0x433 JUMPI DUP1 PUSH4 0xACE731BD EQ PUSH2 0x44F JUMPI DUP1 PUSH4 0xB9B6C5D4 EQ PUSH2 0x47F JUMPI PUSH2 0x1E4 JUMP JUMPDEST DUP1 PUSH4 0x6F871C3D EQ PUSH2 0x3A5 JUMPI DUP1 PUSH4 0x741A7591 EQ PUSH2 0x3C1 JUMPI DUP1 PUSH4 0x7D3EBECD EQ PUSH2 0x3DF JUMPI DUP1 PUSH4 0x8C4C1347 EQ PUSH2 0x3FB JUMPI PUSH2 0x1E4 JUMP JUMPDEST DUP1 PUSH4 0x4CD0CB28 GT PUSH2 0x187 JUMPI DUP1 PUSH4 0x664FC0CD GT PUSH2 0x156 JUMPI DUP1 PUSH4 0x664FC0CD EQ PUSH2 0x333 JUMPI DUP1 PUSH4 0x6795F3B7 EQ PUSH2 0x363 JUMPI DUP1 PUSH4 0x6BD06204 EQ PUSH2 0x37F JUMPI DUP1 PUSH4 0x6D4540EB EQ PUSH2 0x39B JUMPI PUSH2 0x1E4 JUMP JUMPDEST DUP1 PUSH4 0x4CD0CB28 EQ PUSH2 0x2C3 JUMPI DUP1 PUSH4 0x53C49C64 EQ PUSH2 0x2DF JUMPI DUP1 PUSH4 0x63EF8A50 EQ PUSH2 0x2FB JUMPI DUP1 PUSH4 0x63FCCB03 EQ PUSH2 0x317 JUMPI PUSH2 0x1E4 JUMP JUMPDEST DUP1 PUSH4 0x12327A66 GT PUSH2 0x1C3 JUMPI DUP1 PUSH4 0x12327A66 EQ PUSH2 0x23D JUMPI DUP1 PUSH4 0x153D0194 EQ PUSH2 0x26D JUMPI DUP1 PUSH4 0x17D7DE7C EQ PUSH2 0x289 JUMPI DUP1 PUSH4 0x2A31F1D7 EQ PUSH2 0x2A7 JUMPI PUSH2 0x1E4 JUMP JUMPDEST DUP1 PUSH3 0x3F489F EQ PUSH2 0x1E9 JUMPI DUP1 PUSH4 0x10DFD93 EQ PUSH2 0x205 JUMPI DUP1 PUSH4 0x8C6F4AB EQ PUSH2 0x221 JUMPI JUMPDEST PUSH1 0x0 DUP1 REVERT JUMPDEST PUSH2 0x203 PUSH1 0x4 DUP1 CALLDATASIZE SUB DUP2 ADD SWAP1 PUSH2 0x1FE SWAP2 SWAP1 PUSH2 0x1CC9 JUMP JUMPDEST PUSH2 0x5A3 JUMP JUMPDEST STOP JUMPDEST PUSH2 0x21F PUSH1 0x4 DUP1 CALLDATASIZE SUB DUP2 ADD SWAP1 PUSH2 0x21A SWAP2 SWAP1 PUSH2 0x1C04 JUMP JUMPDEST PUSH2 0x638 JUMP JUMPDEST STOP JUMPDEST PUSH2 0x23B PUSH1 0x4 DUP1 CALLDATASIZE SUB DUP2 ADD SWAP1 PUSH2 0x236 SWAP2 SWAP1 PUSH2 0x1CC9 JUMP JUMPDEST PUSH2 0x6D9 JUMP JUMPDEST STOP JUMPDEST PUSH2 0x257 PUSH1 0x4 DUP1 CALLDATASIZE SUB DUP2 ADD SWAP1 PUSH2 0x252 SWAP2 SWAP1 PUSH2 0x1A40 JUMP JUMPDEST PUSH2 0x771 JUMP JUMPDEST PUSH1 0x40 MLOAD PUSH2 0x264 SWAP2 SWAP1 PUSH2 0x2034 JUMP JUMPDEST PUSH1 0x40 MLOAD DUP1 SWAP2 SUB SWAP1 RETURN JUMPDEST PUSH2 0x287 PUSH1 0x4 DUP1 CALLDATASIZE SUB DUP2 ADD SWAP1 PUSH2 0x282 SWAP2 SWAP1 PUSH2 0x1F3D JUMP JUMPDEST PUSH2 0x829 JUMP JUMPDEST STOP JUMPDEST PUSH2 0x291 PUSH2 0x8C4 JUMP JUMPDEST PUSH1 0x40 MLOAD PUSH2 0x29E SWAP2 SWAP1 PUSH2 0x2034 JUMP JUMPDEST PUSH1 0x40 MLOAD DUP1 SWAP2 SUB SWAP1 RETURN JUMPDEST PUSH2 0x2C1 PUSH1 0x4 DUP1 CALLDATASIZE SUB DUP2 ADD SWAP1 PUSH2 0x2BC SWAP2 SWAP1 PUSH2 0x1E78 JUMP JUMPDEST PUSH2 0x979 JUMP JUMPDEST STOP JUMPDEST PUSH2 0x2DD PUSH1 0x4 DUP1 CALLDATASIZE SUB DUP2 ADD SWAP1 PUSH2 0x2D8 SWAP2 SWAP1 PUSH2 0x1A40 JUMP JUMPDEST PUSH2 0xA1A JUMP JUMPDEST STOP JUMPDEST PUSH2 0x2F9 PUSH1 0x4 DUP1 CALLDATASIZE SUB DUP2 ADD SWAP1 PUSH2 0x2F4 SWAP2 SWAP1 PUSH2 0x1B25 JUMP JUMPDEST PUSH2 0xAAC JUMP JUMPDEST STOP JUMPDEST PUSH2 0x315 PUSH1 0x4 DUP1 CALLDATASIZE SUB DUP2 ADD SWAP1 PUSH2 0x310 SWAP2 SWAP1 PUSH2 0x1B65 JUMP JUMPDEST PUSH2 0xB41 JUMP JUMPDEST STOP JUMPDEST PUSH2 0x331 PUSH1 0x4 DUP1 CALLDATASIZE SUB DUP2 ADD SWAP1 PUSH2 0x32C SWAP2 SWAP1 PUSH2 0x1B25 JUMP JUMPDEST PUSH2 0xBDC JUMP JUMPDEST STOP JUMPDEST PUSH2 0x34D PUSH1 0x4 DUP1 CALLDATASIZE SUB DUP2 ADD SWAP1 PUSH2 0x348 SWAP2 SWAP1 PUSH2 0x1B25 JUMP JUMPDEST PUSH2 0xC71 JUMP JUMPDEST PUSH1 0x40 MLOAD PUSH2 0x35A SWAP2 SWAP1 PUSH2 0x209B JUMP JUMPDEST PUSH1 0x40 MLOAD DUP1 SWAP2 SUB SWAP1 RETURN JUMPDEST PUSH2 0x37D PUSH1 0x4 DUP1 CALLDATASIZE SUB DUP2 ADD SWAP1 PUSH2 0x378 SWAP2 SWAP1 PUSH2 0x1B25 JUMP JUMPDEST PUSH2 0xD28 JUMP JUMPDEST STOP JUMPDEST PUSH2 0x399 PUSH1 0x4 DUP1 CALLDATASIZE SUB DUP2 ADD SWAP1 PUSH2 0x394 SWAP2 SWAP1 PUSH2 0x19C8 JUMP JUMPDEST PUSH2 0xDBD JUMP JUMPDEST STOP JUMPDEST PUSH2 0x3A3 PUSH2 0xE52 JUMP JUMPDEST STOP JUMPDEST PUSH2 0x3BF PUSH1 0x4 DUP1 CALLDATASIZE SUB DUP2 ADD SWAP1 PUSH2 0x3BA SWAP2 SWAP1 PUSH2 0x1B25 JUMP JUMPDEST PUSH2 0xEDF JUMP JUMPDEST STOP JUMPDEST PUSH2 0x3C9 PUSH2 0xF74 JUMP JUMPDEST PUSH1 0x40 MLOAD PUSH2 0x3D6 SWAP2 SWAP1 PUSH2 0x209B JUMP JUMPDEST PUSH1 0x40 MLOAD DUP1 SWAP2 SUB SWAP1 RETURN JUMPDEST PUSH2 0x3F9 PUSH1 0x4 DUP1 CALLDATASIZE SUB DUP2 ADD SWAP1 PUSH2 0x3F4 SWAP2 SWAP1 PUSH2 0x1A9A JUMP JUMPDEST PUSH2 0xF7A JUMP JUMPDEST STOP JUMPDEST PUSH2 0x415 PUSH1 0x4 DUP1 CALLDATASIZE SUB DUP2 ADD SWAP1 PUSH2 0x410 SWAP2 SWAP1 PUSH2 0x1A9A JUMP JUMPDEST PUSH2 0x1012 JUMP JUMPDEST STOP JUMPDEST PUSH2 0x431 PUSH1 0x4 DUP1 CALLDATASIZE SUB DUP2 ADD SWAP1 PUSH2 0x42C SWAP2 SWAP1 PUSH2 0x1B25 JUMP JUMPDEST PUSH2 0x10AA JUMP JUMPDEST STOP JUMPDEST PUSH2 0x44D PUSH1 0x4 DUP1 CALLDATASIZE SUB DUP2 ADD SWAP1 PUSH2 0x448 SWAP2 SWAP1 PUSH2 0x1CC9 JUMP JUMPDEST PUSH2 0x113F JUMP JUMPDEST STOP JUMPDEST PUSH2 0x469 PUSH1 0x4 DUP1 CALLDATASIZE SUB DUP2 ADD SWAP1 PUSH2 0x464 SWAP2 SWAP1 PUSH2 0x1CC9 JUMP JUMPDEST PUSH2 0x11D7 JUMP JUMPDEST PUSH1 0x40 MLOAD PUSH2 0x476 SWAP2 SWAP1 PUSH2 0x2034 JUMP JUMPDEST PUSH1 0x40 MLOAD DUP1 SWAP2 SUB SWAP1 RETURN JUMPDEST PUSH2 0x499 PUSH1 0x4 DUP1 CALLDATASIZE SUB DUP2 ADD SWAP1 PUSH2 0x494 SWAP2 SWAP1 PUSH2 0x1CC9 JUMP JUMPDEST PUSH2 0x1295 JUMP JUMPDEST STOP JUMPDEST PUSH2 0x4B5 PUSH1 0x4 DUP1 CALLDATASIZE SUB DUP2 ADD SWAP1 PUSH2 0x4B0 SWAP2 SWAP1 PUSH2 0x19C8 JUMP JUMPDEST PUSH2 0x132D JUMP JUMPDEST STOP JUMPDEST PUSH2 0x4D1 PUSH1 0x4 DUP1 CALLDATASIZE SUB DUP2 ADD SWAP1 PUSH2 0x4CC SWAP2 SWAP1 PUSH2 0x1D1C JUMP JUMPDEST PUSH2 0x13C0 JUMP JUMPDEST STOP JUMPDEST PUSH2 0x4ED PUSH1 0x4 DUP1 CALLDATASIZE SUB DUP2 ADD SWAP1 PUSH2 0x4E8 SWAP2 SWAP1 PUSH2 0x1B25 JUMP JUMPDEST PUSH2 0x145F JUMP JUMPDEST PUSH1 0x40 MLOAD PUSH2 0x4FA SWAP2 SWAP1 PUSH2 0x2034 JUMP JUMPDEST PUSH1 0x40 MLOAD DUP1 SWAP2 SUB SWAP1 RETURN JUMPDEST PUSH2 0x51D PUSH1 0x4 DUP1 CALLDATASIZE SUB DUP2 ADD SWAP1 PUSH2 0x518 SWAP2 SWAP1 PUSH2 0x1CC9 JUMP JUMPDEST PUSH2 0x151A JUMP JUMPDEST STOP JUMPDEST PUSH2 0x539 PUSH1 0x4 DUP1 CALLDATASIZE SUB DUP2 ADD SWAP1 PUSH2 0x534 SWAP2 SWAP1 PUSH2 0x1B25 JUMP JUMPDEST PUSH2 0x15B2 JUMP JUMPDEST PUSH1 0x40 MLOAD PUSH2 0x546 SWAP2 SWAP1 PUSH2 0x209B JUMP JUMPDEST PUSH1 0x40 MLOAD DUP1 SWAP2 SUB SWAP1 RETURN JUMPDEST PUSH2 0x569 PUSH1 0x4 DUP1 CALLDATASIZE SUB DUP2 ADD SWAP1 PUSH2 0x564 SWAP2 SWAP1 PUSH2 0x1DC5 JUMP JUMPDEST PUSH2 0x1669 JUMP JUMPDEST STOP JUMPDEST PUSH2 0x585 PUSH1 0x4 DUP1 CALLDATASIZE SUB DUP2 ADD SWAP1 PUSH2 0x580 SWAP2 SWAP1 PUSH2 0x19C8 JUMP JUMPDEST PUSH2 0x1705 JUMP JUMPDEST STOP JUMPDEST PUSH2 0x5A1 PUSH1 0x4 DUP1 CALLDATASIZE SUB DUP2 ADD SWAP1 PUSH2 0x59C SWAP2 SWAP1 PUSH2 0x1DC5 JUMP JUMPDEST PUSH2 0x1798 JUMP JUMPDEST STOP JUMPDEST PUSH1 0x1 PUSH1 0x0 SWAP1 SLOAD SWAP1 PUSH2 0x100 EXP SWAP1 DIV PUSH20 0xFFFFFFFFFFFFFFFFFFFFFFFFFFFFFFFFFFFFFFFF AND PUSH20 0xFFFFFFFFFFFFFFFFFFFFFFFFFFFFFFFFFFFFFFFF AND PUSH3 0x3F489F DUP5 DUP5 DUP5 PUSH1 0x40 MLOAD DUP5 PUSH4 0xFFFFFFFF AND PUSH1 0xE0 SHL DUP2 MSTORE PUSH1 0x4 ADD PUSH2 0x601 SWAP4 SWAP3 SWAP2 SWAP1 PUSH2 0x2270 JUMP JUMPDEST PUSH1 0x0 PUSH1 0x40 MLOAD DUP1 DUP4 SUB DUP2 PUSH1 0x0 DUP8 DUP1 EXTCODESIZE ISZERO DUP1 ISZERO PUSH2 0x61B JUMPI PUSH1 0x0 DUP1 REVERT JUMPDEST POP GAS CALL ISZERO DUP1 ISZERO PUSH2 0x62F JUMPI RETURNDATASIZE PUSH1 0x0 DUP1 RETURNDATACOPY RETURNDATASIZE PUSH1 0x0 REVERT JUMPDEST POP POP POP POP POP POP POP JUMP JUMPDEST PUSH1 0x1 PUSH1 0x0 SWAP1 SLOAD SWAP1 PUSH2 0x100 EXP SWAP1 DIV PUSH20 0xFFFFFFFFFFFFFFFFFFFFFFFFFFFFFFFFFFFFFFFF AND PUSH20 0xFFFFFFFFFFFFFFFFFFFFFFFFFFFFFFFFFFFFFFFF AND PUSH4 0xC7D7CEB DUP8 DUP8 DUP8 DUP8 DUP8 DUP8 CALLER PUSH1 0x40 MLOAD DUP9 PUSH4 0xFFFFFFFF AND PUSH1 0xE0 SHL DUP2 MSTORE PUSH1 0x4 ADD PUSH2 0x69F SWAP8 SWAP7 SWAP6 SWAP5 SWAP4 SWAP3 SWAP2 SWAP1 PUSH2 0x21F3 JUMP JUMPDEST PUSH1 0x0 PUSH1 0x40 MLOAD DUP1 DUP4 SUB DUP2 PUSH1 0x0 DUP8 DUP1 EXTCODESIZE ISZERO DUP1 ISZERO PUSH2 0x6B9 JUMPI PUSH1 0x0 DUP1 REVERT JUMPDEST POP GAS CALL ISZERO DUP1 ISZERO PUSH2 0x6CD JUMPI RETURNDATASIZE PUSH1 0x0 DUP1 RETURNDATACOPY RETURNDATASIZE PUSH1 0x0 REVERT JUMPDEST POP POP POP POP POP POP POP POP POP POP JUMP JUMPDEST PUSH1 0x1 PUSH1 0x0 SWAP1 SLOAD SWAP1 PUSH2 0x100 EXP SWAP1 DIV PUSH20 0xFFFFFFFFFFFFFFFFFFFFFFFFFFFFFFFFFFFFFFFF AND PUSH20 0xFFFFFFFFFFFFFFFFFFFFFFFFFFFFFFFFFFFFFFFF AND PUSH4 0xB1E2EC78 DUP5 DUP5 DUP5 CALLER PUSH1 0x40 MLOAD DUP6 PUSH4 0xFFFFFFFF AND PUSH1 0xE0 SHL DUP2 MSTORE PUSH1 0x4 ADD PUSH2 0x73A SWAP5 SWAP4 SWAP3 SWAP2 SWAP1 PUSH2 0x22A7 JUMP JUMPDEST PUSH1 0x0 PUSH1 0x40 MLOAD DUP1 DUP4 SUB DUP2 PUSH1 0x0 DUP8 DUP1 EXTCODESIZE ISZERO DUP1 ISZERO PUSH2 0x754 JUMPI PUSH1 0x0 DUP1 REVERT JUMPDEST POP GAS CALL ISZERO DUP1 ISZERO PUSH2 0x768 JUMPI RETURNDATASIZE PUSH1 0x0 DUP1 RETURNDATACOPY RETURNDATASIZE PUSH1 0x0 REVERT JUMPDEST POP POP POP POP POP POP POP JUMP JUMPDEST PUSH1 0x60 PUSH1 0x1 PUSH1 0x0 SWAP1 SLOAD SWAP1 PUSH2 0x100 EXP SWAP1 DIV PUSH20 0xFFFFFFFFFFFFFFFFFFFFFFFFFFFFFFFFFFFFFFFF AND PUSH20 0xFFFFFFFFFFFFFFFFFFFFFFFFFFFFFFFFFFFFFFFF AND PUSH4 0x12327A66 DUP4 PUSH1 0x40 MLOAD DUP3 PUSH4 0xFFFFFFFF AND PUSH1 0xE0 SHL DUP2 MSTORE PUSH1 0x4 ADD PUSH2 0x7CE SWAP2 SWAP1 PUSH2 0x209B JUMP JUMPDEST PUSH1 0x0 PUSH1 0x40 MLOAD DUP1 DUP4 SUB DUP2 DUP7 DUP1 EXTCODESIZE ISZERO DUP1 ISZERO PUSH2 0x7E6 JUMPI PUSH1 0x0 DUP1 REVERT JUMPDEST POP GAS STATICCALL ISZERO DUP1 ISZERO PUSH2 0x7FA JUMPI RETURNDATASIZE PUSH1 0x0 DUP1 RETURNDATACOPY RETURNDATASIZE PUSH1 0x0 REVERT JUMPDEST POP POP POP POP PUSH1 0x40 MLOAD RETURNDATASIZE PUSH1 0x0 DUP3 RETURNDATACOPY RETURNDATASIZE PUSH1 0x1F NOT PUSH1 0x1F DUP3 ADD AND DUP3 ADD DUP1 PUSH1 0x40 MSTORE POP DUP2 ADD SWAP1 PUSH2 0x823 SWAP2 SWAP1 PUSH2 0x197F JUMP JUMPDEST POP SWAP2 SWAP1 POP JUMP JUMPDEST PUSH1 0x1 PUSH1 0x0 SWAP1 SLOAD SWAP1 PUSH2 0x100 EXP SWAP1 DIV PUSH20 0xFFFFFFFFFFFFFFFFFFFFFFFFFFFFFFFFFFFFFFFF AND PUSH20 0xFFFFFFFFFFFFFFFFFFFFFFFFFFFFFFFFFFFFFFFF AND PUSH4 0xC171BDF7 DUP6 DUP6 DUP6 CALLER DUP7 PUSH1 0x40 MLOAD DUP7 PUSH4 0xFFFFFFFF AND PUSH1 0xE0 SHL DUP2 MSTORE PUSH1 0x4 ADD PUSH2 0x88C SWAP6 SWAP5 SWAP4 SWAP3 SWAP2 SWAP1 PUSH2 0x2354 JUMP JUMPDEST PUSH1 0x0 PUSH1 0x40 MLOAD DUP1 DUP4 SUB DUP2 PUSH1 0x0 DUP8 DUP1 EXTCODESIZE ISZERO DUP1 ISZERO PUSH2 0x8A6 JUMPI PUSH1 0x0 DUP1 REVERT JUMPDEST POP GAS CALL ISZERO DUP1 ISZERO PUSH2 0x8BA JUMPI RETURNDATASIZE PUSH1 0x0 DUP1 RETURNDATACOPY RETURNDATASIZE PUSH1 0x0 REVERT JUMPDEST POP POP POP POP POP POP POP POP JUMP JUMPDEST PUSH1 0x60 PUSH1 0x0 DUP1 SLOAD SWAP1 PUSH2 0x100 EXP SWAP1 DIV PUSH20 0xFFFFFFFFFFFFFFFFFFFFFFFFFFFFFFFFFFFFFFFF AND PUSH20 0xFFFFFFFFFFFFFFFFFFFFFFFFFFFFFFFFFFFFFFFF AND PUSH4 0x5FD4B08A CALLER PUSH1 0x40 MLOAD DUP3 PUSH4 0xFFFFFFFF AND PUSH1 0xE0 SHL DUP2 MSTORE PUSH1 0x4 ADD PUSH2 0x91F SWAP2 SWAP1 PUSH2 0x2019 JUMP JUMPDEST PUSH1 0x0 PUSH1 0x40 MLOAD DUP1 DUP4 SUB DUP2 DUP7 DUP1 EXTCODESIZE ISZERO DUP1 ISZERO PUSH2 0x937 JUMPI PUSH1 0x0 DUP1 REVERT JUMPDEST POP GAS STATICCALL ISZERO DUP1 ISZERO PUSH2 0x94B JUMPI RETURNDATASIZE PUSH1 0x0 DUP1 RETURNDATACOPY RETURNDATASIZE PUSH1 0x0 REVERT JUMPDEST POP POP POP POP PUSH1 0x40 MLOAD RETURNDATASIZE PUSH1 0x0 DUP3 RETURNDATACOPY RETURNDATASIZE PUSH1 0x1F NOT PUSH1 0x1F DUP3 ADD AND DUP3 ADD DUP1 PUSH1 0x40 MSTORE POP DUP2 ADD SWAP1 PUSH2 0x974 SWAP2 SWAP1 PUSH2 0x197F JUMP JUMPDEST SWAP1 POP SWAP1 JUMP JUMPDEST PUSH1 0x1 PUSH1 0x0 SWAP1 SLOAD SWAP1 PUSH2 0x100 EXP SWAP1 DIV PUSH20 0xFFFFFFFFFFFFFFFFFFFFFFFFFFFFFFFFFFFFFFFF AND PUSH20 0xFFFFFFFFFFFFFFFFFFFFFFFFFFFFFFFFFFFFFFFF AND PUSH4 0xE731AC45 DUP8 DUP8 DUP8 DUP8 DUP8 CALLER DUP9 PUSH1 0x40 MLOAD DUP9 PUSH4 0xFFFFFFFF AND PUSH1 0xE0 SHL DUP2 MSTORE PUSH1 0x4 ADD PUSH2 0x9E0 SWAP8 SWAP7 SWAP6 SWAP5 SWAP4 SWAP3 SWAP2 SWAP1 PUSH2 0x2477 JUMP JUMPDEST PUSH1 0x0 PUSH1 0x40 MLOAD DUP1 DUP4 SUB DUP2 PUSH1 0x0 DUP8 DUP1 EXTCODESIZE ISZERO DUP1 ISZERO PUSH2 0x9FA JUMPI PUSH1 0x0 DUP1 REVERT JUMPDEST POP GAS CALL ISZERO DUP1 ISZERO PUSH2 0xA0E JUMPI RETURNDATASIZE PUSH1 0x0 DUP1 RETURNDATACOPY RETURNDATASIZE PUSH1 0x0 REVERT JUMPDEST POP POP POP POP POP POP POP POP POP POP JUMP JUMPDEST PUSH1 0x1 PUSH1 0x0 SWAP1 SLOAD SWAP1 PUSH2 0x100 EXP SWAP1 DIV PUSH20 0xFFFFFFFFFFFFFFFFFFFFFFFFFFFFFFFFFFFFFFFF AND PUSH20 0xFFFFFFFFFFFFFFFFFFFFFFFFFFFFFFFFFFFFFFFF AND PUSH4 0x87D5E034 DUP3 CALLER PUSH1 0x40 MLOAD DUP4 PUSH4 0xFFFFFFFF AND PUSH1 0xE0 SHL DUP2 MSTORE PUSH1 0x4 ADD PUSH2 0xA77 SWAP3 SWAP2 SWAP1 PUSH2 0x20B6 JUMP JUMPDEST PUSH1 0x0 PUSH1 0x40 MLOAD DUP1 DUP4 SUB DUP2 PUSH1 0x0 DUP8 DUP1 EXTCODESIZE ISZERO DUP1 ISZERO PUSH2 0xA91 JUMPI PUSH1 0x0 DUP1 REVERT JUMPDEST POP GAS CALL ISZERO DUP1 ISZERO PUSH2 0xAA5 JUMPI RETURNDATASIZE PUSH1 0x0 DUP1 RETURNDATACOPY RETURNDATASIZE PUSH1 0x0 REVERT JUMPDEST POP POP POP POP POP JUMP JUMPDEST PUSH1 0x1 PUSH1 0x0 SWAP1 SLOAD SWAP1 PUSH2 0x100 EXP SWAP1 DIV PUSH20 0xFFFFFFFFFFFFFFFFFFFFFFFFFFFFFFFFFFFFFFFF AND PUSH20 0xFFFFFFFFFFFFFFFFFFFFFFFFFFFFFFFFFFFFFFFF AND PUSH4 0x58FA4C5E DUP4 DUP4 CALLER PUSH1 0x40 MLOAD DUP5 PUSH4 0xFFFFFFFF AND PUSH1 0xE0 SHL DUP2 MSTORE PUSH1 0x4 ADD PUSH2 0xB0B SWAP4 SWAP3 SWAP2 SWAP1 PUSH2 0x215B JUMP JUMPDEST PUSH1 0x0 PUSH1 0x40 MLOAD DUP1 DUP4 SUB DUP2 PUSH1 0x0 DUP8 DUP1 EXTCODESIZE ISZERO DUP1 ISZERO PUSH2 0xB25 JUMPI PUSH1 0x0 DUP1 REVERT JUMPDEST POP GAS CALL ISZERO DUP1 ISZERO PUSH2 0xB39 JUMPI RETURNDATASIZE PUSH1 0x0 DUP1 RETURNDATACOPY RETURNDATASIZE PUSH1 0x0 REVERT JUMPDEST POP POP POP POP POP POP JUMP JUMPDEST PUSH1 0x1 PUSH1 0x0 SWAP1 SLOAD SWAP1 PUSH2 0x100 EXP SWAP1 DIV PUSH20 0xFFFFFFFFFFFFFFFFFFFFFFFFFFFFFFFFFFFFFFFF AND PUSH20 0xFFFFFFFFFFFFFFFFFFFFFFFFFFFFFFFFFFFFFFFF AND PUSH4 0xB3FBE997 DUP6 DUP6 DUP6 DUP6 CALLER PUSH1 0x40 MLOAD DUP7 PUSH4 0xFFFFFFFF AND PUSH1 0xE0 SHL DUP2 MSTORE PUSH1 0x4 ADD PUSH2 0xBA4 SWAP6 SWAP5 SWAP4 SWAP3 SWAP2 SWAP1 PUSH2 0x2192 JUMP JUMPDEST PUSH1 0x0 PUSH1 0x40 MLOAD DUP1 DUP4 SUB DUP2 PUSH1 0x0 DUP8 DUP1 EXTCODESIZE ISZERO DUP1 ISZERO PUSH2 0xBBE JUMPI PUSH1 0x0 DUP1 REVERT JUMPDEST POP GAS CALL ISZERO DUP1 ISZERO PUSH2 0xBD2 JUMPI RETURNDATASIZE PUSH1 0x0 DUP1 RETURNDATACOPY RETURNDATASIZE PUSH1 0x0 REVERT JUMPDEST POP POP POP POP POP POP POP POP JUMP JUMPDEST PUSH1 0x1 PUSH1 0x0 SWAP1 SLOAD SWAP1 PUSH2 0x100 EXP SWAP1 DIV PUSH20 0xFFFFFFFFFFFFFFFFFFFFFFFFFFFFFFFFFFFFFFFF AND PUSH20 0xFFFFFFFFFFFFFFFFFFFFFFFFFFFFFFFFFFFFFFFF AND PUSH4 0x529884E7 DUP4 DUP4 CALLER PUSH1 0x40 MLOAD DUP5 PUSH4 0xFFFFFFFF AND PUSH1 0xE0 SHL DUP2 MSTORE PUSH1 0x4 ADD PUSH2 0xC3B SWAP4 SWAP3 SWAP2 SWAP1 PUSH2 0x215B JUMP JUMPDEST PUSH1 0x0 PUSH1 0x40 MLOAD DUP1 DUP4 SUB DUP2 PUSH1 0x0 DUP8 DUP1 EXTCODESIZE ISZERO DUP1 ISZERO PUSH2 0xC55 JUMPI PUSH1 0x0 DUP1 REVERT JUMPDEST POP GAS CALL ISZERO DUP1 ISZERO PUSH2 0xC69 JUMPI RETURNDATASIZE PUSH1 0x0 DUP1 RETURNDATACOPY RETURNDATASIZE PUSH1 0x0 REVERT JUMPDEST POP POP POP POP POP POP JUMP JUMPDEST PUSH1 0x0 PUSH1 0x1 PUSH1 0x0 SWAP1 SLOAD SWAP1 PUSH2 0x100 EXP SWAP1 DIV PUSH20 0xFFFFFFFFFFFFFFFFFFFFFFFFFFFFFFFFFFFFFFFF AND PUSH20 0xFFFFFFFFFFFFFFFFFFFFFFFFFFFFFFFFFFFFFFFF AND PUSH4 0x664FC0CD DUP5 DUP5 PUSH1 0x40 MLOAD DUP4 PUSH4 0xFFFFFFFF AND PUSH1 0xE0 SHL DUP2 MSTORE PUSH1 0x4 ADD PUSH2 0xCD0 SWAP3 SWAP2 SWAP1 PUSH2 0x2132 JUMP JUMPDEST PUSH1 0x20 PUSH1 0x40 MLOAD DUP1 DUP4 SUB DUP2 DUP7 DUP1 EXTCODESIZE ISZERO DUP1 ISZERO PUSH2 0xCE8 JUMPI PUSH1 0x0 DUP1 REVERT JUMPDEST POP GAS STATICCALL ISZERO DUP1 ISZERO PUSH2 0xCFC JUMPI RETURNDATASIZE PUSH1 0x0 DUP1 RETURNDATACOPY RETURNDATASIZE PUSH1 0x0 REVERT JUMPDEST POP POP POP POP PUSH1 0x40 MLOAD RETURNDATASIZE PUSH1 0x1F NOT PUSH1 0x1F DUP3 ADD AND DUP3 ADD DUP1 PUSH1 0x40 MSTORE POP DUP2 ADD SWAP1 PUSH2 0xD20 SWAP2 SWAP1 PUSH2 0x1A6D JUMP JUMPDEST SWAP1 POP SWAP3 SWAP2 POP POP JUMP JUMPDEST PUSH1 0x1 PUSH1 0x0 SWAP1 SLOAD SWAP1 PUSH2 0x100 EXP SWAP1 DIV PUSH20 0xFFFFFFFFFFFFFFFFFFFFFFFFFFFFFFFFFFFFFFFF AND PUSH20 0xFFFFFFFFFFFFFFFFFFFFFFFFFFFFFFFFFFFFFFFF AND PUSH4 0x14DA947B DUP4 DUP4 CALLER PUSH1 0x40 MLOAD DUP5 PUSH4 0xFFFFFFFF AND PUSH1 0xE0 SHL DUP2 MSTORE PUSH1 0x4 ADD PUSH2 0xD87 SWAP4 SWAP3 SWAP2 SWAP1 PUSH2 0x215B JUMP JUMPDEST PUSH1 0x0 PUSH1 0x40 MLOAD DUP1 DUP4 SUB DUP2 PUSH1 0x0 DUP8 DUP1 EXTCODESIZE ISZERO DUP1 ISZERO PUSH2 0xDA1 JUMPI PUSH1 0x0 DUP1 REVERT JUMPDEST POP GAS CALL ISZERO DUP1 ISZERO PUSH2 0xDB5 JUMPI RETURNDATASIZE PUSH1 0x0 DUP1 RETURNDATACOPY RETURNDATASIZE PUSH1 0x0 REVERT JUMPDEST POP POP POP POP POP POP JUMP JUMPDEST PUSH1 0x1 PUSH1 0x0 SWAP1 SLOAD SWAP1 PUSH2 0x100 EXP SWAP1 DIV PUSH20 0xFFFFFFFFFFFFFFFFFFFFFFFFFFFFFFFFFFFFFFFF AND PUSH20 0xFFFFFFFFFFFFFFFFFFFFFFFFFFFFFFFFFFFFFFFF AND PUSH4 0x60AE1E92 DUP4 DUP4 CALLER PUSH1 0x40 MLOAD DUP5 PUSH4 0xFFFFFFFF AND PUSH1 0xE0 SHL DUP2 MSTORE PUSH1 0x4 ADD PUSH2 0xE1C SWAP4 SWAP3 SWAP2 SWAP1 PUSH2 0x2056 JUMP JUMPDEST PUSH1 0x0 PUSH1 0x40 MLOAD DUP1 DUP4 SUB DUP2 PUSH1 0x0 DUP8 DUP1 EXTCODESIZE ISZERO DUP1 ISZERO PUSH2 0xE36 JUMPI PUSH1 0x0 DUP1 REVERT JUMPDEST POP GAS CALL ISZERO DUP1 ISZERO PUSH2 0xE4A JUMPI RETURNDATASIZE PUSH1 0x0 DUP1 RETURNDATACOPY RETURNDATASIZE PUSH1 0x0 REVERT JUMPDEST POP POP POP POP POP POP JUMP JUMPDEST PUSH1 0x0 DUP1 SLOAD SWAP1 PUSH2 0x100 EXP SWAP1 DIV PUSH20 0xFFFFFFFFFFFFFFFFFFFFFFFFFFFFFFFFFFFFFFFF AND PUSH20 0xFFFFFFFFFFFFFFFFFFFFFFFFFFFFFFFFFFFFFFFF AND PUSH4 0xA0441F29 CALLER PUSH1 0x40 MLOAD DUP3 PUSH4 0xFFFFFFFF AND PUSH1 0xE0 SHL DUP2 MSTORE PUSH1 0x4 ADD PUSH2 0xEAB SWAP2 SWAP1 PUSH2 0x2019 JUMP JUMPDEST PUSH1 0x0 PUSH1 0x40 MLOAD DUP1 DUP4 SUB DUP2 PUSH1 0x0 DUP8 DUP1 EXTCODESIZE ISZERO DUP1 ISZERO PUSH2 0xEC5 JUMPI PUSH1 0x0 DUP1 REVERT JUMPDEST POP GAS CALL ISZERO DUP1 ISZERO PUSH2 0xED9 JUMPI RETURNDATASIZE PUSH1 0x0 DUP1 RETURNDATACOPY RETURNDATASIZE PUSH1 0x0 REVERT JUMPDEST POP POP POP POP JUMP JUMPDEST PUSH1 0x1 PUSH1 0x0 SWAP1 SLOAD SWAP1 PUSH2 0x100 EXP SWAP1 DIV PUSH20 0xFFFFFFFFFFFFFFFFFFFFFFFFFFFFFFFFFFFFFFFF AND PUSH20 0xFFFFFFFFFFFFFFFFFFFFFFFFFFFFFFFFFFFFFFFF AND PUSH4 0x8C749C74 DUP4 DUP4 CALLER PUSH1 0x40 MLOAD DUP5 PUSH4 0xFFFFFFFF AND PUSH1 0xE0 SHL DUP2 MSTORE PUSH1 0x4 ADD PUSH2 0xF3E SWAP4 SWAP3 SWAP2 SWAP1 PUSH2 0x215B JUMP JUMPDEST PUSH1 0x0 PUSH1 0x40 MLOAD DUP1 DUP4 SUB DUP2 PUSH1 0x0 DUP8 DUP1 EXTCODESIZE ISZERO DUP1 ISZERO PUSH2 0xF58 JUMPI PUSH1 0x0 DUP1 REVERT JUMPDEST POP GAS CALL ISZERO DUP1 ISZERO PUSH2 0xF6C JUMPI RETURNDATASIZE PUSH1 0x0 DUP1 RETURNDATACOPY RETURNDATASIZE PUSH1 0x0 REVERT JUMPDEST POP POP POP POP POP POP JUMP JUMPDEST PUSH1 0x4 SLOAD DUP2 JUMP JUMPDEST PUSH1 0x1 PUSH1 0x0 SWAP1 SLOAD SWAP1 PUSH2 0x100 EXP SWAP1 DIV PUSH20 0xFFFFFFFFFFFFFFFFFFFFFFFFFFFFFFFFFFFFFFFF AND PUSH20 0xFFFFFFFFFFFFFFFFFFFFFFFFFFFFFFFFFFFFFFFF AND PUSH4 0xA19BFFBE DUP5 DUP5 DUP5 CALLER PUSH1 0x40 MLOAD DUP6 PUSH4 0xFFFFFFFF AND PUSH1 0xE0 SHL DUP2 MSTORE PUSH1 0x4 ADD PUSH2 0xFDB SWAP5 SWAP4 SWAP3 SWAP2 SWAP1 PUSH2 0x20DF JUMP JUMPDEST PUSH1 0x0 PUSH1 0x40 MLOAD DUP1 DUP4 SUB DUP2 PUSH1 0x0 DUP8 DUP1 EXTCODESIZE ISZERO DUP1 ISZERO PUSH2 0xFF5 JUMPI PUSH1 0x0 DUP1 REVERT JUMPDEST POP GAS CALL ISZERO DUP1 ISZERO PUSH2 0x1009 JUMPI RETURNDATASIZE PUSH1 0x0 DUP1 RETURNDATACOPY RETURNDATASIZE PUSH1 0x0 REVERT JUMPDEST POP POP POP POP POP POP POP JUMP JUMPDEST PUSH1 0x1 PUSH1 0x0 SWAP1 SLOAD SWAP1 PUSH2 0x100 EXP SWAP1 DIV PUSH20 0xFFFFFFFFFFFFFFFFFFFFFFFFFFFFFFFFFFFFFFFF AND PUSH20 0xFFFFFFFFFFFFFFFFFFFFFFFFFFFFFFFFFFFFFFFF AND PUSH4 0xC3C4A6A4 DUP5 DUP5 DUP5 CALLER PUSH1 0x40 MLOAD DUP6 PUSH4 0xFFFFFFFF AND PUSH1 0xE0 SHL DUP2 MSTORE PUSH1 0x4 ADD PUSH2 0x1073 SWAP5 SWAP4 SWAP3 SWAP2 SWAP1 PUSH2 0x20DF JUMP JUMPDEST PUSH1 0x0 PUSH1 0x40 MLOAD DUP1 DUP4 SUB DUP2 PUSH1 0x0 DUP8 DUP1 EXTCODESIZE ISZERO DUP1 ISZERO PUSH2 0x108D JUMPI PUSH1 0x0 DUP1 REVERT JUMPDEST POP GAS CALL ISZERO DUP1 ISZERO PUSH2 0x10A1 JUMPI RETURNDATASIZE PUSH1 0x0 DUP1 RETURNDATACOPY RETURNDATASIZE PUSH1 0x0 REVERT JUMPDEST POP POP POP POP POP POP POP JUMP JUMPDEST PUSH1 0x1 PUSH1 0x0 SWAP1 SLOAD SWAP1 PUSH2 0x100 EXP SWAP1 DIV PUSH20 0xFFFFFFFFFFFFFFFFFFFFFFFFFFFFFFFFFFFFFFFF AND PUSH20 0xFFFFFFFFFFFFFFFFFFFFFFFFFFFFFFFFFFFFFFFF AND PUSH4 0xF0F238CE DUP4 DUP4 CALLER PUSH1 0x40 MLOAD DUP5 PUSH4 0xFFFFFFFF AND PUSH1 0xE0 SHL DUP2 MSTORE PUSH1 0x4 ADD PUSH2 0x1109 SWAP4 SWAP3 SWAP2 SWAP1 PUSH2 0x215B JUMP JUMPDEST PUSH1 0x0 PUSH1 0x40 MLOAD DUP1 DUP4 SUB DUP2 PUSH1 0x0 DUP8 DUP1 EXTCODESIZE ISZERO DUP1 ISZERO PUSH2 0x1123 JUMPI PUSH1 0x0 DUP1 REVERT JUMPDEST POP GAS CALL ISZERO DUP1 ISZERO PUSH2 0x1137 JUMPI RETURNDATASIZE PUSH1 0x0 DUP1 RETURNDATACOPY RETURNDATASIZE PUSH1 0x0 REVERT JUMPDEST POP POP POP POP POP POP JUMP JUMPDEST PUSH1 0x1 PUSH1 0x0 SWAP1 SLOAD SWAP1 PUSH2 0x100 EXP SWAP1 DIV PUSH20 0xFFFFFFFFFFFFFFFFFFFFFFFFFFFFFFFFFFFFFFFF AND PUSH20 0xFFFFFFFFFFFFFFFFFFFFFFFFFFFFFFFFFFFFFFFF AND PUSH4 0xA02B90C9 DUP5 DUP5 DUP5 CALLER PUSH1 0x40 MLOAD DUP6 PUSH4 0xFFFFFFFF AND PUSH1 0xE0 SHL DUP2 MSTORE PUSH1 0x4 ADD PUSH2 0x11A0 SWAP5 SWAP4 SWAP3 SWAP2 SWAP1 PUSH2 0x22A7 JUMP JUMPDEST PUSH1 0x0 PUSH1 0x40 MLOAD DUP1 DUP4 SUB DUP2 PUSH1 0x0 DUP8 DUP1 EXTCODESIZE ISZERO DUP1 ISZERO PUSH2 0x11BA JUMPI PUSH1 0x0 DUP1 REVERT JUMPDEST POP GAS CALL ISZERO DUP1 ISZERO PUSH2 0x11CE JUMPI RETURNDATASIZE PUSH1 0x0 DUP1 RETURNDATACOPY RETURNDATASIZE PUSH1 0x0 REVERT JUMPDEST POP POP POP POP POP POP POP JUMP JUMPDEST PUSH1 0x60 PUSH1 0x1 PUSH1 0x0 SWAP1 SLOAD SWAP1 PUSH2 0x100 EXP SWAP1 DIV PUSH20 0xFFFFFFFFFFFFFFFFFFFFFFFFFFFFFFFFFFFFFFFF AND PUSH20 0xFFFFFFFFFFFFFFFFFFFFFFFFFFFFFFFFFFFFFFFF AND PUSH4 0xACE731BD DUP6 DUP6 DUP6 PUSH1 0x40 MLOAD DUP5 PUSH4 0xFFFFFFFF AND PUSH1 0xE0 SHL DUP2 MSTORE PUSH1 0x4 ADD PUSH2 0x1238 SWAP4 SWAP3 SWAP2 SWAP1 PUSH2 0x2270 JUMP JUMPDEST PUSH1 0x0 PUSH1 0x40 MLOAD DUP1 DUP4 SUB DUP2 DUP7 DUP1 EXTCODESIZE ISZERO DUP1 ISZERO PUSH2 0x1250 JUMPI PUSH1 0x0 DUP1 REVERT JUMPDEST POP GAS STATICCALL ISZERO DUP1 ISZERO PUSH2 0x1264 JUMPI RETURNDATASIZE PUSH1 0x0 DUP1 RETURNDATACOPY RETURNDATASIZE PUSH1 0x0 REVERT JUMPDEST POP POP POP POP PUSH1 0x40 MLOAD RETURNDATASIZE PUSH1 0x0 DUP3 RETURNDATACOPY RETURNDATASIZE PUSH1 0x1F NOT PUSH1 0x1F DUP3 ADD AND DUP3 ADD DUP1 PUSH1 0x40 MSTORE POP DUP2 ADD SWAP1 PUSH2 0x128D SWAP2 SWAP1 PUSH2 0x197F JUMP JUMPDEST POP SWAP4 SWAP3 POP POP POP JUMP JUMPDEST PUSH1 0x1 PUSH1 0x0 SWAP1 SLOAD SWAP1 PUSH2 0x100 EXP SWAP1 DIV PUSH20 0xFFFFFFFFFFFFFFFFFFFFFFFFFFFFFFFFFFFFFFFF AND PUSH20 0xFFFFFFFFFFFFFFFFFFFFFFFFFFFFFFFFFFFFFFFF AND PUSH4 0x53C400E1 DUP5 DUP5 DUP5 CALLER PUSH1 0x40 MLOAD DUP6 PUSH4 0xFFFFFFFF AND PUSH1 0xE0 SHL DUP2 MSTORE PUSH1 0x4 ADD PUSH2 0x12F6 SWAP5 SWAP4 SWAP3 SWAP2 SWAP1 PUSH2 0x22A7 JUMP JUMPDEST PUSH1 0x0 PUSH1 0x40 MLOAD DUP1 DUP4 SUB DUP2 PUSH1 0x0 DUP8 DUP1 EXTCODESIZE ISZERO DUP1 ISZERO PUSH2 0x1310 JUMPI PUSH1 0x0 DUP1 REVERT JUMPDEST POP GAS CALL ISZERO DUP1 ISZERO PUSH2 0x1324 JUMPI RETURNDATASIZE PUSH1 0x0 DUP1 RETURNDATACOPY RETURNDATASIZE PUSH1 0x0 REVERT JUMPDEST POP POP POP POP POP POP POP JUMP JUMPDEST PUSH1 0x0 DUP1 SLOAD SWAP1 PUSH2 0x100 EXP SWAP1 DIV PUSH20 0xFFFFFFFFFFFFFFFFFFFFFFFFFFFFFFFFFFFFFFFF AND PUSH20 0xFFFFFFFFFFFFFFFFFFFFFFFFFFFFFFFFFFFFFFFF AND PUSH4 0xB3ED9B4C DUP4 DUP4 CALLER PUSH1 0x40 MLOAD DUP5 PUSH4 0xFFFFFFFF AND PUSH1 0xE0 SHL DUP2 MSTORE PUSH1 0x4 ADD PUSH2 0x138A SWAP4 SWAP3 SWAP2 SWAP1 PUSH2 0x2056 JUMP JUMPDEST PUSH1 0x0 PUSH1 0x40 MLOAD DUP1 DUP4 SUB DUP2 PUSH1 0x0 DUP8 DUP1 EXTCODESIZE ISZERO DUP1 ISZERO PUSH2 0x13A4 JUMPI PUSH1 0x0 DUP1 REVERT JUMPDEST POP GAS CALL ISZERO DUP1 ISZERO PUSH2 0x13B8 JUMPI RETURNDATASIZE PUSH1 0x0 DUP1 RETURNDATACOPY RETURNDATASIZE PUSH1 0x0 REVERT JUMPDEST POP POP POP POP POP POP JUMP JUMPDEST PUSH1 0x1 PUSH1 0x0 SWAP1 SLOAD SWAP1 PUSH2 0x100 EXP SWAP1 DIV PUSH20 0xFFFFFFFFFFFFFFFFFFFFFFFFFFFFFFFFFFFFFFFF AND PUSH20 0xFFFFFFFFFFFFFFFFFFFFFFFFFFFFFFFFFFFFFFFF AND PUSH4 0xBBA93C0B DUP8 DUP8 DUP8 DUP8 DUP8 DUP8 PUSH1 0x40 MLOAD DUP8 PUSH4 0xFFFFFFFF AND PUSH1 0xE0 SHL DUP2 MSTORE PUSH1 0x4 ADD PUSH2 0x1425 SWAP7 SWAP6 SWAP5 SWAP4 SWAP3 SWAP2 SWAP1 PUSH2 0x22EC JUMP JUMPDEST PUSH1 0x0 PUSH1 0x40 MLOAD DUP1 DUP4 SUB DUP2 PUSH1 0x0 DUP8 DUP1 EXTCODESIZE ISZERO DUP1 ISZERO PUSH2 0x143F JUMPI PUSH1 0x0 DUP1 REVERT JUMPDEST POP GAS CALL ISZERO DUP1 ISZERO PUSH2 0x1453 JUMPI RETURNDATASIZE PUSH1 0x0 DUP1 RETURNDATACOPY RETURNDATASIZE PUSH1 0x0 REVERT JUMPDEST POP POP POP POP POP POP POP POP POP POP JUMP JUMPDEST PUSH1 0x60 PUSH1 0x1 PUSH1 0x0 SWAP1 SLOAD SWAP1 PUSH2 0x100 EXP SWAP1 DIV PUSH20 0xFFFFFFFFFFFFFFFFFFFFFFFFFFFFFFFFFFFFFFFF AND PUSH20 0xFFFFFFFFFFFFFFFFFFFFFFFFFFFFFFFFFFFFFFFF AND PUSH4 0xC304CCDC DUP5 DUP5 PUSH1 0x40 MLOAD DUP4 PUSH4 0xFFFFFFFF AND PUSH1 0xE0 SHL DUP2 MSTORE PUSH1 0x4 ADD PUSH2 0x14BE SWAP3 SWAP2 SWAP1 PUSH2 0x2132 JUMP JUMPDEST PUSH1 0x0 PUSH1 0x40 MLOAD DUP1 DUP4 SUB DUP2 DUP7 DUP1 EXTCODESIZE ISZERO DUP1 ISZERO PUSH2 0x14D6 JUMPI PUSH1 0x0 DUP1 REVERT JUMPDEST POP GAS STATICCALL ISZERO DUP1 ISZERO PUSH2 0x14EA JUMPI RETURNDATASIZE PUSH1 0x0 DUP1 RETURNDATACOPY RETURNDATASIZE PUSH1 0x0 REVERT JUMPDEST POP POP POP POP PUSH1 0x40 MLOAD RETURNDATASIZE PUSH1 0x0 DUP3 RETURNDATACOPY RETURNDATASIZE PUSH1 0x1F NOT PUSH1 0x1F DUP3 ADD AND DUP3 ADD DUP1 PUSH1 0x40 MSTORE POP DUP2 ADD SWAP1 PUSH2 0x1513 SWAP2 SWAP1 PUSH2 0x197F JUMP JUMPDEST POP SWAP3 SWAP2 POP POP JUMP JUMPDEST PUSH1 0x1 PUSH1 0x0 SWAP1 SLOAD SWAP1 PUSH2 0x100 EXP SWAP1 DIV PUSH20 0xFFFFFFFFFFFFFFFFFFFFFFFFFFFFFFFFFFFFFFFF AND PUSH20 0xFFFFFFFFFFFFFFFFFFFFFFFFFFFFFFFFFFFFFFFF AND PUSH4 0xCE1F8A89 DUP5 DUP5 DUP5 CALLER PUSH1 0x40 MLOAD DUP6 PUSH4 0xFFFFFFFF AND PUSH1 0xE0 SHL DUP2 MSTORE PUSH1 0x4 ADD PUSH2 0x157B SWAP5 SWAP4 SWAP3 SWAP2 SWAP1 PUSH2 0x22A7 JUMP JUMPDEST PUSH1 0x0 PUSH1 0x40 MLOAD DUP1 DUP4 SUB DUP2 PUSH1 0x0 DUP8 DUP1 EXTCODESIZE ISZERO DUP1 ISZERO PUSH2 0x1595 JUMPI PUSH1 0x0 DUP1 REVERT JUMPDEST POP GAS CALL ISZERO DUP1 ISZERO PUSH2 0x15A9 JUMPI RETURNDATASIZE PUSH1 0x0 DUP1 RETURNDATACOPY RETURNDATASIZE PUSH1 0x0 REVERT JUMPDEST POP POP POP POP POP POP POP JUMP JUMPDEST PUSH1 0x0 PUSH1 0x1 PUSH1 0x0 SWAP1 SLOAD SWAP1 PUSH2 0x100 EXP SWAP1 DIV PUSH20 0xFFFFFFFFFFFFFFFFFFFFFFFFFFFFFFFFFFFFFFFF AND PUSH20 0xFFFFFFFFFFFFFFFFFFFFFFFFFFFFFFFFFFFFFFFF AND PUSH4 0xCCEE835B DUP5 DUP5 PUSH1 0x40 MLOAD DUP4 PUSH4 0xFFFFFFFF AND PUSH1 0xE0 SHL DUP2 MSTORE PUSH1 0x4 ADD PUSH2 0x1611 SWAP3 SWAP2 SWAP1 PUSH2 0x2132 JUMP JUMPDEST PUSH1 0x20 PUSH1 0x40 MLOAD DUP1 DUP4 SUB DUP2 DUP7 DUP1 EXTCODESIZE ISZERO DUP1 ISZERO PUSH2 0x1629 JUMPI PUSH1 0x0 DUP1 REVERT JUMPDEST POP GAS STATICCALL ISZERO DUP1 ISZERO PUSH2 0x163D JUMPI RETURNDATASIZE PUSH1 0x0 DUP1 RETURNDATACOPY RETURNDATASIZE PUSH1 0x0 REVERT JUMPDEST POP POP POP POP PUSH1 0x40 MLOAD RETURNDATASIZE PUSH1 0x1F NOT PUSH1 0x1F DUP3 ADD AND DUP3 ADD DUP1 PUSH1 0x40 MSTORE POP DUP2 ADD SWAP1 PUSH2 0x1661 SWAP2 SWAP1 PUSH2 0x1A6D JUMP JUMPDEST SWAP1 POP SWAP3 SWAP2 POP POP JUMP JUMPDEST PUSH1 0x1 PUSH1 0x0 SWAP1 SLOAD SWAP1 PUSH2 0x100 EXP SWAP1 DIV PUSH20 0xFFFFFFFFFFFFFFFFFFFFFFFFFFFFFFFFFFFFFFFF AND PUSH20 0xFFFFFFFFFFFFFFFFFFFFFFFFFFFFFFFFFFFFFFFF AND PUSH4 0xD1E992A7 DUP7 DUP7 DUP7 DUP7 DUP7 PUSH1 0x40 MLOAD DUP7 PUSH4 0xFFFFFFFF AND PUSH1 0xE0 SHL DUP2 MSTORE PUSH1 0x4 ADD PUSH2 0x16CC SWAP6 SWAP5 SWAP4 SWAP3 SWAP2 SWAP1 PUSH2 0x23A7 JUMP JUMPDEST PUSH1 0x0 PUSH1 0x40 MLOAD DUP1 DUP4 SUB DUP2 PUSH1 0x0 DUP8 DUP1 EXTCODESIZE ISZERO DUP1 ISZERO PUSH2 0x16E6 JUMPI PUSH1 0x0 DUP1 REVERT JUMPDEST POP GAS CALL ISZERO DUP1 ISZERO PUSH2 0x16FA JUMPI RETURNDATASIZE PUSH1 0x0 DUP1 RETURNDATACOPY RETURNDATASIZE PUSH1 0x0 REVERT JUMPDEST POP POP POP POP POP POP POP POP POP JUMP JUMPDEST PUSH1 0x0 DUP1 SLOAD SWAP1 PUSH2 0x100 EXP SWAP1 DIV PUSH20 0xFFFFFFFFFFFFFFFFFFFFFFFFFFFFFFFFFFFFFFFF AND PUSH20 0xFFFFFFFFFFFFFFFFFFFFFFFFFFFFFFFFFFFFFFFF AND PUSH4 0xB69471E7 DUP4 DUP4 CALLER PUSH1 0x40 MLOAD DUP5 PUSH4 0xFFFFFFFF AND PUSH1 0xE0 SHL DUP2 MSTORE PUSH1 0x4 ADD PUSH2 0x1762 SWAP4 SWAP3 SWAP2 SWAP1 PUSH2 0x2056 JUMP JUMPDEST PUSH1 0x0 PUSH1 0x40 MLOAD DUP1 DUP4 SUB DUP2 PUSH1 0x0 DUP8 DUP1 EXTCODESIZE ISZERO DUP1 ISZERO PUSH2 0x177C JUMPI PUSH1 0x0 DUP1 REVERT JUMPDEST POP GAS CALL ISZERO DUP1 ISZERO PUSH2 0x1790 JUMPI RETURNDATASIZE PUSH1 0x0 DUP1 RETURNDATACOPY RETURNDATASIZE PUSH1 0x0 REVERT JUMPDEST POP POP POP POP POP POP JUMP JUMPDEST PUSH1 0x1 PUSH1 0x0 SWAP1 SLOAD SWAP1 PUSH2 0x100 EXP SWAP1 DIV PUSH20 0xFFFFFFFFFFFFFFFFFFFFFFFFFFFFFFFFFFFFFFFF AND PUSH20 0xFFFFFFFFFFFFFFFFFFFFFFFFFFFFFFFFFFFFFFFF AND PUSH4 0x1DB95FF3 DUP7 DUP7 DUP7 DUP7 DUP7 CALLER PUSH1 0x40 MLOAD DUP8 PUSH4 0xFFFFFFFF AND PUSH1 0xE0 SHL DUP2 MSTORE PUSH1 0x4 ADD PUSH2 0x17FD SWAP7 SWAP6 SWAP5 SWAP4 SWAP3 SWAP2 SWAP1 PUSH2 0x2408 JUMP JUMPDEST PUSH1 0x0 PUSH1 0x40 MLOAD DUP1 DUP4 SUB DUP2 PUSH1 0x0 DUP8 DUP1 EXTCODESIZE ISZERO DUP1 ISZERO PUSH2 0x1817 JUMPI PUSH1 0x0 DUP1 REVERT JUMPDEST POP GAS CALL ISZERO DUP1 ISZERO PUSH2 0x182B JUMPI RETURNDATASIZE PUSH1 0x0 DUP1 RETURNDATACOPY RETURNDATASIZE PUSH1 0x0 REVERT JUMPDEST POP POP POP POP POP POP POP POP POP JUMP JUMPDEST PUSH1 0x0 PUSH2 0x1849 PUSH2 0x1844 DUP5 PUSH2 0x2519 JUMP JUMPDEST PUSH2 0x24F4 JUMP JUMPDEST SWAP1 POP DUP3 DUP2 MSTORE PUSH1 0x20 DUP2 ADD DUP5 DUP5 DUP5 ADD GT ISZERO PUSH2 0x1865 JUMPI PUSH2 0x1864 PUSH2 0x26AA JUMP JUMPDEST JUMPDEST PUSH2 0x1870 DUP5 DUP3 DUP6 PUSH2 0x25D4 JUMP JUMPDEST POP SWAP4 SWAP3 POP POP POP JUMP JUMPDEST PUSH1 0x0 PUSH2 0x188B PUSH2 0x1886 DUP5 PUSH2 0x2519 JUMP JUMPDEST PUSH2 0x24F4 JUMP JUMPDEST SWAP1 POP DUP3 DUP2 MSTORE PUSH1 0x20 DUP2 ADD DUP5 DUP5 DUP5 ADD GT ISZERO PUSH2 0x18A7 JUMPI PUSH2 0x18A6 PUSH2 0x26AA JUMP JUMPDEST JUMPDEST PUSH2 0x18B2 DUP5 DUP3 DUP6 PUSH2 0x25E3 JUMP JUMPDEST POP SWAP4 SWAP3 POP POP POP JUMP JUMPDEST PUSH1 0x0 DUP2 CALLDATALOAD SWAP1 POP PUSH2 0x18C9 DUP2 PUSH2 0x26DE JUMP JUMPDEST SWAP3 SWAP2 POP POP JUMP JUMPDEST PUSH1 0x0 DUP2 CALLDATALOAD SWAP1 POP PUSH2 0x18DE DUP2 PUSH2 0x26F5 JUMP JUMPDEST SWAP3 SWAP2 POP POP JUMP JUMPDEST PUSH1 0x0 DUP3 PUSH1 0x1F DUP4 ADD SLT PUSH2 0x18F9 JUMPI PUSH2 0x18F8 PUSH2 0x26A5 JUMP JUMPDEST JUMPDEST DUP2 CALLDATALOAD PUSH2 0x1909 DUP5 DUP3 PUSH1 0x20 DUP7 ADD PUSH2 0x1836 JUMP JUMPDEST SWAP2 POP POP SWAP3 SWAP2 POP POP JUMP JUMPDEST PUSH1 0x0 DUP3 PUSH1 0x1F DUP4 ADD SLT PUSH2 0x1927 JUMPI PUSH2 0x1926 PUSH2 0x26A5 JUMP JUMPDEST JUMPDEST DUP2 MLOAD PUSH2 0x1937 DUP5 DUP3 PUSH1 0x20 DUP7 ADD PUSH2 0x1878 JUMP JUMPDEST SWAP2 POP POP SWAP3 SWAP2 POP POP JUMP JUMPDEST PUSH1 0x0 DUP2 CALLDATALOAD SWAP1 POP PUSH2 0x194F DUP2 PUSH2 0x2705 JUMP JUMPDEST SWAP3 SWAP2 POP POP JUMP JUMPDEST PUSH1 0x0 DUP2 MLOAD SWAP1 POP PUSH2 0x1964 DUP2 PUSH2 0x2705 JUMP JUMPDEST SWAP3 SWAP2 POP POP JUMP JUMPDEST PUSH1 0x0 DUP2 CALLDATALOAD SWAP1 POP PUSH2 0x1979 DUP2 PUSH2 0x271C JUMP JUMPDEST SWAP3 SWAP2 POP POP JUMP JUMPDEST PUSH1 0x0 PUSH1 0x20 DUP3 DUP5 SUB SLT ISZERO PUSH2 0x1995 JUMPI PUSH2 0x1994 PUSH2 0x26B4 JUMP JUMPDEST JUMPDEST PUSH1 0x0 DUP3 ADD MLOAD PUSH8 0xFFFFFFFFFFFFFFFF DUP2 GT ISZERO PUSH2 0x19B3 JUMPI PUSH2 0x19B2 PUSH2 0x26AF JUMP JUMPDEST JUMPDEST PUSH2 0x19BF DUP5 DUP3 DUP6 ADD PUSH2 0x1912 JUMP JUMPDEST SWAP2 POP POP SWAP3 SWAP2 POP POP JUMP JUMPDEST PUSH1 0x0 DUP1 PUSH1 0x40 DUP4 DUP6 SUB SLT ISZERO PUSH2 0x19DF JUMPI PUSH2 0x19DE PUSH2 0x26B4 JUMP JUMPDEST JUMPDEST PUSH1 0x0 DUP4 ADD CALLDATALOAD PUSH8 0xFFFFFFFFFFFFFFFF DUP2 GT ISZERO PUSH2 0x19FD JUMPI PUSH2 0x19FC PUSH2 0x26AF JUMP JUMPDEST JUMPDEST PUSH2 0x1A09 DUP6 DUP3 DUP7 ADD PUSH2 0x18E4 JUMP JUMPDEST SWAP3 POP POP PUSH1 0x20 DUP4 ADD CALLDATALOAD PUSH8 0xFFFFFFFFFFFFFFFF DUP2 GT ISZERO PUSH2 0x1A2A JUMPI PUSH2 0x1A29 PUSH2 0x26AF JUMP JUMPDEST JUMPDEST PUSH2 0x1A36 DUP6 DUP3 DUP7 ADD PUSH2 0x18E4 JUMP JUMPDEST SWAP2 POP POP SWAP3 POP SWAP3 SWAP1 POP JUMP JUMPDEST PUSH1 0x0 PUSH1 0x20 DUP3 DUP5 SUB SLT ISZERO PUSH2 0x1A56 JUMPI PUSH2 0x1A55 PUSH2 0x26B4 JUMP JUMPDEST JUMPDEST PUSH1 0x0 PUSH2 0x1A64 DUP5 DUP3 DUP6 ADD PUSH2 0x1940 JUMP JUMPDEST SWAP2 POP POP SWAP3 SWAP2 POP POP JUMP JUMPDEST PUSH1 0x0 PUSH1 0x20 DUP3 DUP5 SUB SLT ISZERO PUSH2 0x1A83 JUMPI PUSH2 0x1A82 PUSH2 0x26B4 JUMP JUMPDEST JUMPDEST PUSH1 0x0 PUSH2 0x1A91 DUP5 DUP3 DUP6 ADD PUSH2 0x1955 JUMP JUMPDEST SWAP2 POP POP SWAP3 SWAP2 POP POP JUMP JUMPDEST PUSH1 0x0 DUP1 PUSH1 0x0 PUSH1 0x60 DUP5 DUP7 SUB SLT ISZERO PUSH2 0x1AB3 JUMPI PUSH2 0x1AB2 PUSH2 0x26B4 JUMP JUMPDEST JUMPDEST PUSH1 0x0 PUSH2 0x1AC1 DUP7 DUP3 DUP8 ADD PUSH2 0x1940 JUMP JUMPDEST SWAP4 POP POP PUSH1 0x20 DUP5 ADD CALLDATALOAD PUSH8 0xFFFFFFFFFFFFFFFF DUP2 GT ISZERO PUSH2 0x1AE2 JUMPI PUSH2 0x1AE1 PUSH2 0x26AF JUMP JUMPDEST JUMPDEST PUSH2 0x1AEE DUP7 DUP3 DUP8 ADD PUSH2 0x18E4 JUMP JUMPDEST SWAP3 POP POP PUSH1 0x40 DUP5 ADD CALLDATALOAD PUSH8 0xFFFFFFFFFFFFFFFF DUP2 GT ISZERO PUSH2 0x1B0F JUMPI PUSH2 0x1B0E PUSH2 0x26AF JUMP JUMPDEST JUMPDEST PUSH2 0x1B1B DUP7 DUP3 DUP8 ADD PUSH2 0x18E4 JUMP JUMPDEST SWAP2 POP POP SWAP3 POP SWAP3 POP SWAP3 JUMP JUMPDEST PUSH1 0x0 DUP1 PUSH1 0x40 DUP4 DUP6 SUB SLT ISZERO PUSH2 0x1B3C JUMPI PUSH2 0x1B3B PUSH2 0x26B4 JUMP JUMPDEST JUMPDEST PUSH1 0x0 PUSH2 0x1B4A DUP6 DUP3 DUP7 ADD PUSH2 0x1940 JUMP JUMPDEST SWAP3 POP POP PUSH1 0x20 PUSH2 0x1B5B DUP6 DUP3 DUP7 ADD PUSH2 0x1940 JUMP JUMPDEST SWAP2 POP POP SWAP3 POP SWAP3 SWAP1 POP JUMP JUMPDEST PUSH1 0x0 DUP1 PUSH1 0x0 DUP1 PUSH1 0x80 DUP6 DUP8 SUB SLT ISZERO PUSH2 0x1B7F JUMPI PUSH2 0x1B7E PUSH2 0x26B4 JUMP JUMPDEST JUMPDEST PUSH1 0x0 PUSH2 0x1B8D DUP8 DUP3 DUP9 ADD PUSH2 0x1940 JUMP JUMPDEST SWAP5 POP POP PUSH1 0x20 PUSH2 0x1B9E DUP8 DUP3 DUP9 ADD PUSH2 0x1940 JUMP JUMPDEST SWAP4 POP POP PUSH1 0x40 DUP6 ADD CALLDATALOAD PUSH8 0xFFFFFFFFFFFFFFFF DUP2 GT ISZERO PUSH2 0x1BBF JUMPI PUSH2 0x1BBE PUSH2 0x26AF JUMP JUMPDEST JUMPDEST PUSH2 0x1BCB DUP8 DUP3 DUP9 ADD PUSH2 0x18E4 JUMP JUMPDEST SWAP3 POP POP PUSH1 0x60 DUP6 ADD CALLDATALOAD PUSH8 0xFFFFFFFFFFFFFFFF DUP2 GT ISZERO PUSH2 0x1BEC JUMPI PUSH2 0x1BEB PUSH2 0x26AF JUMP JUMPDEST JUMPDEST PUSH2 0x1BF8 DUP8 DUP3 DUP9 ADD PUSH2 0x18E4 JUMP JUMPDEST SWAP2 POP POP SWAP3 SWAP6 SWAP2 SWAP5 POP SWAP3 POP JUMP JUMPDEST PUSH1 0x0 DUP1 PUSH1 0x0 DUP1 PUSH1 0x0 DUP1 PUSH1 0xC0 DUP8 DUP10 SUB SLT ISZERO PUSH2 0x1C21 JUMPI PUSH2 0x1C20 PUSH2 0x26B4 JUMP JUMPDEST JUMPDEST PUSH1 0x0 PUSH2 0x1C2F DUP10 DUP3 DUP11 ADD PUSH2 0x1940 JUMP JUMPDEST SWAP7 POP POP PUSH1 0x20 PUSH2 0x1C40 DUP10 DUP3 DUP11 ADD PUSH2 0x1940 JUMP JUMPDEST SWAP6 POP POP PUSH1 0x40 DUP8 ADD CALLDATALOAD PUSH8 0xFFFFFFFFFFFFFFFF DUP2 GT ISZERO PUSH2 0x1C61 JUMPI PUSH2 0x1C60 PUSH2 0x26AF JUMP JUMPDEST JUMPDEST PUSH2 0x1C6D DUP10 DUP3 DUP11 ADD PUSH2 0x18E4 JUMP JUMPDEST SWAP5 POP POP PUSH1 0x60 DUP8 ADD CALLDATALOAD PUSH8 0xFFFFFFFFFFFFFFFF DUP2 GT ISZERO PUSH2 0x1C8E JUMPI PUSH2 0x1C8D PUSH2 0x26AF JUMP JUMPDEST JUMPDEST PUSH2 0x1C9A DUP10 DUP3 DUP11 ADD PUSH2 0x18E4 JUMP JUMPDEST SWAP4 POP POP PUSH1 0x80 PUSH2 0x1CAB DUP10 DUP3 DUP11 ADD PUSH2 0x1940 JUMP JUMPDEST SWAP3 POP POP PUSH1 0xA0 PUSH2 0x1CBC DUP10 DUP3 DUP11 ADD PUSH2 0x18CF JUMP JUMPDEST SWAP2 POP POP SWAP3 SWAP6 POP SWAP3 SWAP6 POP SWAP3 SWAP6 JUMP JUMPDEST PUSH1 0x0 DUP1 PUSH1 0x0 PUSH1 0x60 DUP5 DUP7 SUB SLT ISZERO PUSH2 0x1CE2 JUMPI PUSH2 0x1CE1 PUSH2 0x26B4 JUMP JUMPDEST JUMPDEST PUSH1 0x0 PUSH2 0x1CF0 DUP7 DUP3 DUP8 ADD PUSH2 0x1940 JUMP JUMPDEST SWAP4 POP POP PUSH1 0x20 PUSH2 0x1D01 DUP7 DUP3 DUP8 ADD PUSH2 0x1940 JUMP JUMPDEST SWAP3 POP POP PUSH1 0x40 PUSH2 0x1D12 DUP7 DUP3 DUP8 ADD PUSH2 0x1940 JUMP JUMPDEST SWAP2 POP POP SWAP3 POP SWAP3 POP SWAP3 JUMP JUMPDEST PUSH1 0x0 DUP1 PUSH1 0x0 DUP1 PUSH1 0x0 DUP1 PUSH1 0xC0 DUP8 DUP10 SUB SLT ISZERO PUSH2 0x1D39 JUMPI PUSH2 0x1D38 PUSH2 0x26B4 JUMP JUMPDEST JUMPDEST PUSH1 0x0 PUSH2 0x1D47 DUP10 DUP3 DUP11 ADD PUSH2 0x1940 JUMP JUMPDEST SWAP7 POP POP PUSH1 0x20 PUSH2 0x1D58 DUP10 DUP3 DUP11 ADD PUSH2 0x1940 JUMP JUMPDEST SWAP6 POP POP PUSH1 0x40 PUSH2 0x1D69 DUP10 DUP3 DUP11 ADD PUSH2 0x1940 JUMP JUMPDEST SWAP5 POP POP PUSH1 0x60 PUSH2 0x1D7A DUP10 DUP3 DUP11 ADD PUSH2 0x18BA JUMP JUMPDEST SWAP4 POP POP PUSH1 0x80 DUP8 ADD CALLDATALOAD PUSH8 0xFFFFFFFFFFFFFFFF DUP2 GT ISZERO PUSH2 0x1D9B JUMPI PUSH2 0x1D9A PUSH2 0x26AF JUMP JUMPDEST JUMPDEST PUSH2 0x1DA7 DUP10 DUP3 DUP11 ADD PUSH2 0x18E4 JUMP JUMPDEST SWAP3 POP POP PUSH1 0xA0 PUSH2 0x1DB8 DUP10 DUP3 DUP11 ADD PUSH2 0x1940 JUMP JUMPDEST SWAP2 POP POP SWAP3 SWAP6 POP SWAP3 SWAP6 POP SWAP3 SWAP6 JUMP JUMPDEST PUSH1 0x0 DUP1 PUSH1 0x0 DUP1 PUSH1 0x0 PUSH1 0xA0 DUP7 DUP9 SUB SLT ISZERO PUSH2 0x1DE1 JUMPI PUSH2 0x1DE0 PUSH2 0x26B4 JUMP JUMPDEST JUMPDEST PUSH1 0x0 PUSH2 0x1DEF DUP9 DUP3 DUP10 ADD PUSH2 0x1940 JUMP JUMPDEST SWAP6 POP POP PUSH1 0x20 PUSH2 0x1E00 DUP9 DUP3 DUP10 ADD PUSH2 0x1940 JUMP JUMPDEST SWAP5 POP POP PUSH1 0x40 PUSH2 0x1E11 DUP9 DUP3 DUP10 ADD PUSH2 0x1940 JUMP JUMPDEST SWAP4 POP POP PUSH1 0x60 DUP7 ADD CALLDATALOAD PUSH8 0xFFFFFFFFFFFFFFFF DUP2 GT ISZERO PUSH2 0x1E32 JUMPI PUSH2 0x1E31 PUSH2 0x26AF JUMP JUMPDEST JUMPDEST PUSH2 0x1E3E DUP9 DUP3 DUP10 ADD PUSH2 0x18E4 JUMP JUMPDEST SWAP3 POP POP PUSH1 0x80 DUP7 ADD CALLDATALOAD PUSH8 0xFFFFFFFFFFFFFFFF DUP2 GT ISZERO PUSH2 0x1E5F JUMPI PUSH2 0x1E5E PUSH2 0x26AF JUMP JUMPDEST JUMPDEST PUSH2 0x1E6B DUP9 DUP3 DUP10 ADD PUSH2 0x18E4 JUMP JUMPDEST SWAP2 POP POP SWAP3 SWAP6 POP SWAP3 SWAP6 SWAP1 SWAP4 POP JUMP JUMPDEST PUSH1 0x0 DUP1 PUSH1 0x0 DUP1 PUSH1 0x0 DUP1 PUSH1 0xC0 DUP8 DUP10 SUB SLT ISZERO PUSH2 0x1E95 JUMPI PUSH2 0x1E94 PUSH2 0x26B4 JUMP JUMPDEST JUMPDEST PUSH1 0x0 PUSH2 0x1EA3 DUP10 DUP3 DUP11 ADD PUSH2 0x1940 JUMP JUMPDEST SWAP7 POP POP PUSH1 0x20 PUSH2 0x1EB4 DUP10 DUP3 DUP11 ADD PUSH2 0x1940 JUMP JUMPDEST SWAP6 POP POP PUSH1 0x40 PUSH2 0x1EC5 DUP10 DUP3 DUP11 ADD PUSH2 0x1940 JUMP JUMPDEST SWAP5 POP POP PUSH1 0x60 DUP8 ADD CALLDATALOAD PUSH8 0xFFFFFFFFFFFFFFFF DUP2 GT ISZERO PUSH2 0x1EE6 JUMPI PUSH2 0x1EE5 PUSH2 0x26AF JUMP JUMPDEST JUMPDEST PUSH2 0x1EF2 DUP10 DUP3 DUP11 ADD PUSH2 0x18E4 JUMP JUMPDEST SWAP4 POP POP PUSH1 0x80 DUP8 ADD CALLDATALOAD PUSH8 0xFFFFFFFFFFFFFFFF DUP2 GT ISZERO PUSH2 0x1F13 JUMPI PUSH2 0x1F12 PUSH2 0x26AF JUMP JUMPDEST JUMPDEST PUSH2 0x1F1F DUP10 DUP3 DUP11 ADD PUSH2 0x18E4 JUMP JUMPDEST SWAP3 POP POP PUSH1 0xA0 PUSH2 0x1F30 DUP10 DUP3 DUP11 ADD PUSH2 0x1940 JUMP JUMPDEST SWAP2 POP POP SWAP3 SWAP6 POP SWAP3 SWAP6 POP SWAP3 SWAP6 JUMP JUMPDEST PUSH1 0x0 DUP1 PUSH1 0x0 DUP1 PUSH1 0x80 DUP6 DUP8 SUB SLT ISZERO PUSH2 0x1F57 JUMPI PUSH2 0x1F56 PUSH2 0x26B4 JUMP JUMPDEST JUMPDEST PUSH1 0x0 PUSH2 0x1F65 DUP8 DUP3 DUP9 ADD PUSH2 0x1940 JUMP JUMPDEST SWAP5 POP POP PUSH1 0x20 PUSH2 0x1F76 DUP8 DUP3 DUP9 ADD PUSH2 0x1940 JUMP JUMPDEST SWAP4 POP POP PUSH1 0x40 PUSH2 0x1F87 DUP8 DUP3 DUP9 ADD PUSH2 0x1940 JUMP JUMPDEST SWAP3 POP POP PUSH1 0x60 PUSH2 0x1F98 DUP8 DUP3 DUP9 ADD PUSH2 0x196A JUMP JUMPDEST SWAP2 POP POP SWAP3 SWAP6 SWAP2 SWAP5 POP SWAP3 POP JUMP JUMPDEST PUSH2 0x1FAD DUP2 PUSH2 0x2566 JUMP JUMPDEST DUP3 MSTORE POP POP JUMP JUMPDEST PUSH2 0x1FBC DUP2 PUSH2 0x25C2 JUMP JUMPDEST DUP3 MSTORE POP POP JUMP JUMPDEST PUSH1 0x0 PUSH2 0x1FCD DUP3 PUSH2 0x254A JUMP JUMPDEST PUSH2 0x1FD7 DUP2 DUP6 PUSH2 0x2555 JUMP JUMPDEST SWAP4 POP PUSH2 0x1FE7 DUP2 DUP6 PUSH1 0x20 DUP7 ADD PUSH2 0x25E3 JUMP JUMPDEST PUSH2 0x1FF0 DUP2 PUSH2 0x26B9 JUMP JUMPDEST DUP5 ADD SWAP2 POP POP SWAP3 SWAP2 POP POP JUMP JUMPDEST PUSH2 0x2004 DUP2 PUSH2 0x25AB JUMP JUMPDEST DUP3 MSTORE POP POP JUMP JUMPDEST PUSH2 0x2013 DUP2 PUSH2 0x25B5 JUMP JUMPDEST DUP3 MSTORE POP POP JUMP JUMPDEST PUSH1 0x0 PUSH1 0x20 DUP3 ADD SWAP1 POP PUSH2 0x202E PUSH1 0x0 DUP4 ADD DUP5 PUSH2 0x1FA4 JUMP JUMPDEST SWAP3 SWAP2 POP POP JUMP JUMPDEST PUSH1 0x0 PUSH1 0x20 DUP3 ADD SWAP1 POP DUP2 DUP2 SUB PUSH1 0x0 DUP4 ADD MSTORE PUSH2 0x204E DUP2 DUP5 PUSH2 0x1FC2 JUMP JUMPDEST SWAP1 POP SWAP3 SWAP2 POP POP JUMP JUMPDEST PUSH1 0x0 PUSH1 0x60 DUP3 ADD SWAP1 POP DUP2 DUP2 SUB PUSH1 0x0 DUP4 ADD MSTORE PUSH2 0x2070 DUP2 DUP7 PUSH2 0x1FC2 JUMP JUMPDEST SWAP1 POP DUP2 DUP2 SUB PUSH1 0x20 DUP4 ADD MSTORE PUSH2 0x2084 DUP2 DUP6 PUSH2 0x1FC2 JUMP JUMPDEST SWAP1 POP PUSH2 0x2093 PUSH1 0x40 DUP4 ADD DUP5 PUSH2 0x1FA4 JUMP JUMPDEST SWAP5 SWAP4 POP POP POP POP JUMP JUMPDEST PUSH1 0x0 PUSH1 0x20 DUP3 ADD SWAP1 POP PUSH2 0x20B0 PUSH1 0x0 DUP4 ADD DUP5 PUSH2 0x1FFB JUMP JUMPDEST SWAP3 SWAP2 POP POP JUMP JUMPDEST PUSH1 0x0 PUSH1 0x40 DUP3 ADD SWAP1 POP PUSH2 0x20CB PUSH1 0x0 DUP4 ADD DUP6 PUSH2 0x1FFB JUMP JUMPDEST PUSH2 0x20D8 PUSH1 0x20 DUP4 ADD DUP5 PUSH2 0x1FA4 JUMP JUMPDEST SWAP4 SWAP3 POP POP POP JUMP JUMPDEST PUSH1 0x0 PUSH1 0x80 DUP3 ADD SWAP1 POP PUSH2 0x20F4 PUSH1 0x0 DUP4 ADD DUP8 PUSH2 0x1FFB JUMP JUMPDEST DUP2 DUP2 SUB PUSH1 0x20 DUP4 ADD MSTORE PUSH2 0x2106 DUP2 DUP7 PUSH2 0x1FC2 JUMP JUMPDEST SWAP1 POP DUP2 DUP2 SUB PUSH1 0x40 DUP4 ADD MSTORE PUSH2 0x211A DUP2 DUP6 PUSH2 0x1FC2 JUMP JUMPDEST SWAP1 POP PUSH2 0x2129 PUSH1 0x60 DUP4 ADD DUP5 PUSH2 0x1FA4 JUMP JUMPDEST SWAP6 SWAP5 POP POP POP POP POP JUMP JUMPDEST PUSH1 0x0 PUSH1 0x40 DUP3 ADD SWAP1 POP PUSH2 0x2147 PUSH1 0x0 DUP4 ADD DUP6 PUSH2 0x1FFB JUMP JUMPDEST PUSH2 0x2154 PUSH1 0x20 DUP4 ADD DUP5 PUSH2 0x1FFB JUMP JUMPDEST SWAP4 SWAP3 POP POP POP JUMP JUMPDEST PUSH1 0x0 PUSH1 0x60 DUP3 ADD SWAP1 POP PUSH2 0x2170 PUSH1 0x0 DUP4 ADD DUP7 PUSH2 0x1FFB JUMP JUMPDEST PUSH2 0x217D PUSH1 0x20 DUP4 ADD DUP6 PUSH2 0x1FFB JUMP JUMPDEST PUSH2 0x218A PUSH1 0x40 DUP4 ADD DUP5 PUSH2 0x1FA4 JUMP JUMPDEST SWAP5 SWAP4 POP POP POP POP JUMP JUMPDEST PUSH1 0x0 PUSH1 0xA0 DUP3 ADD SWAP1 POP PUSH2 0x21A7 PUSH1 0x0 DUP4 ADD DUP9 PUSH2 0x1FFB JUMP JUMPDEST PUSH2 0x21B4 PUSH1 0x20 DUP4 ADD DUP8 PUSH2 0x1FFB JUMP JUMPDEST DUP2 DUP2 SUB PUSH1 0x40 DUP4 ADD MSTORE PUSH2 0x21C6 DUP2 DUP7 PUSH2 0x1FC2 JUMP JUMPDEST SWAP1 POP DUP2 DUP2 SUB PUSH1 0x60 DUP4 ADD MSTORE PUSH2 0x21DA DUP2 DUP6 PUSH2 0x1FC2 JUMP JUMPDEST SWAP1 POP PUSH2 0x21E9 PUSH1 0x80 DUP4 ADD DUP5 PUSH2 0x1FA4 JUMP JUMPDEST SWAP7 SWAP6 POP POP POP POP POP POP JUMP JUMPDEST PUSH1 0x0 PUSH1 0xE0 DUP3 ADD SWAP1 POP PUSH2 0x2208 PUSH1 0x0 DUP4 ADD DUP11 PUSH2 0x1FFB JUMP JUMPDEST PUSH2 0x2215 PUSH1 0x20 DUP4 ADD DUP10 PUSH2 0x1FFB JUMP JUMPDEST DUP2 DUP2 SUB PUSH1 0x40 DUP4 ADD MSTORE PUSH2 0x2227 DUP2 DUP9 PUSH2 0x1FC2 JUMP JUMPDEST SWAP1 POP DUP2 DUP2 SUB PUSH1 0x60 DUP4 ADD MSTORE PUSH2 0x223B DUP2 DUP8 PUSH2 0x1FC2 JUMP JUMPDEST SWAP1 POP PUSH2 0x224A PUSH1 0x80 DUP4 ADD DUP7 PUSH2 0x1FFB JUMP JUMPDEST PUSH2 0x2257 PUSH1 0xA0 DUP4 ADD DUP6 PUSH2 0x1FB3 JUMP JUMPDEST PUSH2 0x2264 PUSH1 0xC0 DUP4 ADD DUP5 PUSH2 0x1FA4 JUMP JUMPDEST SWAP9 SWAP8 POP POP POP POP POP POP POP POP JUMP JUMPDEST PUSH1 0x0 PUSH1 0x60 DUP3 ADD SWAP1 POP PUSH2 0x2285 PUSH1 0x0 DUP4 ADD DUP7 PUSH2 0x1FFB JUMP JUMPDEST PUSH2 0x2292 PUSH1 0x20 DUP4 ADD DUP6 PUSH2 0x1FFB JUMP JUMPDEST PUSH2 0x229F PUSH1 0x40 DUP4 ADD DUP5 PUSH2 0x1FFB JUMP JUMPDEST SWAP5 SWAP4 POP POP POP POP JUMP JUMPDEST PUSH1 0x0 PUSH1 0x80 DUP3 ADD SWAP1 POP PUSH2 0x22BC PUSH1 0x0 DUP4 ADD DUP8 PUSH2 0x1FFB JUMP JUMPDEST PUSH2 0x22C9 PUSH1 0x20 DUP4 ADD DUP7 PUSH2 0x1FFB JUMP JUMPDEST PUSH2 0x22D6 PUSH1 0x40 DUP4 ADD DUP6 PUSH2 0x1FFB JUMP JUMPDEST PUSH2 0x22E3 PUSH1 0x60 DUP4 ADD DUP5 PUSH2 0x1FA4 JUMP JUMPDEST SWAP6 SWAP5 POP POP POP POP POP JUMP JUMPDEST PUSH1 0x0 PUSH1 0xC0 DUP3 ADD SWAP1 POP PUSH2 0x2301 PUSH1 0x0 DUP4 ADD DUP10 PUSH2 0x1FFB JUMP JUMPDEST PUSH2 0x230E PUSH1 0x20 DUP4 ADD DUP9 PUSH2 0x1FFB JUMP JUMPDEST PUSH2 0x231B PUSH1 0x40 DUP4 ADD DUP8 PUSH2 0x1FFB JUMP JUMPDEST PUSH2 0x2328 PUSH1 0x60 DUP4 ADD DUP7 PUSH2 0x1FA4 JUMP JUMPDEST DUP2 DUP2 SUB PUSH1 0x80 DUP4 ADD MSTORE PUSH2 0x233A DUP2 DUP6 PUSH2 0x1FC2 JUMP JUMPDEST SWAP1 POP PUSH2 0x2349 PUSH1 0xA0 DUP4 ADD DUP5 PUSH2 0x1FFB JUMP JUMPDEST SWAP8 SWAP7 POP POP POP POP POP POP POP JUMP JUMPDEST PUSH1 0x0 PUSH1 0xA0 DUP3 ADD SWAP1 POP PUSH2 0x2369 PUSH1 0x0 DUP4 ADD DUP9 PUSH2 0x1FFB JUMP JUMPDEST PUSH2 0x2376 PUSH1 0x20 DUP4 ADD DUP8 PUSH2 0x1FFB JUMP JUMPDEST PUSH2 0x2383 PUSH1 0x40 DUP4 ADD DUP7 PUSH2 0x1FFB JUMP JUMPDEST PUSH2 0x2390 PUSH1 0x60 DUP4 ADD DUP6 PUSH2 0x1FA4 JUMP JUMPDEST PUSH2 0x239D PUSH1 0x80 DUP4 ADD DUP5 PUSH2 0x200A JUMP JUMPDEST SWAP7 SWAP6 POP POP POP POP POP POP JUMP JUMPDEST PUSH1 0x0 PUSH1 0xA0 DUP3 ADD SWAP1 POP PUSH2 0x23BC PUSH1 0x0 DUP4 ADD DUP9 PUSH2 0x1FFB JUMP JUMPDEST PUSH2 0x23C9 PUSH1 0x20 DUP4 ADD DUP8 PUSH2 0x1FFB JUMP JUMPDEST PUSH2 0x23D6 PUSH1 0x40 DUP4 ADD DUP7 PUSH2 0x1FFB JUMP JUMPDEST DUP2 DUP2 SUB PUSH1 0x60 DUP4 ADD MSTORE PUSH2 0x23E8 DUP2 DUP6 PUSH2 0x1FC2 JUMP JUMPDEST SWAP1 POP DUP2 DUP2 SUB PUSH1 0x80 DUP4 ADD MSTORE PUSH2 0x23FC DUP2 DUP5 PUSH2 0x1FC2 JUMP JUMPDEST SWAP1 POP SWAP7 SWAP6 POP POP POP POP POP POP JUMP JUMPDEST PUSH1 0x0 PUSH1 0xC0 DUP3 ADD SWAP1 POP PUSH2 0x241D PUSH1 0x0 DUP4 ADD DUP10 PUSH2 0x1FFB JUMP JUMPDEST PUSH2 0x242A PUSH1 0x20 DUP4 ADD DUP9 PUSH2 0x1FFB JUMP JUMPDEST PUSH2 0x2437 PUSH1 0x40 DUP4 ADD DUP8 PUSH2 0x1FFB JUMP JUMPDEST DUP2 DUP2 SUB PUSH1 0x60 DUP4 ADD MSTORE PUSH2 0x2449 DUP2 DUP7 PUSH2 0x1FC2 JUMP JUMPDEST SWAP1 POP DUP2 DUP2 SUB PUSH1 0x80 DUP4 ADD MSTORE PUSH2 0x245D DUP2 DUP6 PUSH2 0x1FC2 JUMP JUMPDEST SWAP1 POP PUSH2 0x246C PUSH1 0xA0 DUP4 ADD DUP5 PUSH2 0x1FA4 JUMP JUMPDEST SWAP8 SWAP7 POP POP POP POP POP POP POP JUMP JUMPDEST PUSH1 0x0 PUSH1 0xE0 DUP3 ADD SWAP1 POP PUSH2 0x248C PUSH1 0x0 DUP4 ADD DUP11 PUSH2 0x1FFB JUMP JUMPDEST PUSH2 0x2499 PUSH1 0x20 DUP4 ADD DUP10 PUSH2 0x1FFB JUMP JUMPDEST PUSH2 0x24A6 PUSH1 0x40 DUP4 ADD DUP9 PUSH2 0x1FFB JUMP JUMPDEST DUP2 DUP2 SUB PUSH1 0x60 DUP4 ADD MSTORE PUSH2 0x24B8 DUP2 DUP8 PUSH2 0x1FC2 JUMP JUMPDEST SWAP1 POP DUP2 DUP2 SUB PUSH1 0x80 DUP4 ADD MSTORE PUSH2 0x24CC DUP2 DUP7 PUSH2 0x1FC2 JUMP JUMPDEST SWAP1 POP PUSH2 0x24DB PUSH1 0xA0 DUP4 ADD DUP6 PUSH2 0x1FA4 JUMP JUMPDEST PUSH2 0x24E8 PUSH1 0xC0 DUP4 ADD DUP5 PUSH2 0x1FFB JUMP JUMPDEST SWAP9 SWAP8 POP POP POP POP POP POP POP POP JUMP JUMPDEST PUSH1 0x0 PUSH2 0x24FE PUSH2 0x250F JUMP JUMPDEST SWAP1 POP PUSH2 0x250A DUP3 DUP3 PUSH2 0x2616 JUMP JUMPDEST SWAP2 SWAP1 POP JUMP JUMPDEST PUSH1 0x0 PUSH1 0x40 MLOAD SWAP1 POP SWAP1 JUMP JUMPDEST PUSH1 0x0 PUSH8 0xFFFFFFFFFFFFFFFF DUP3 GT ISZERO PUSH2 0x2534 JUMPI PUSH2 0x2533 PUSH2 0x2676 JUMP JUMPDEST JUMPDEST PUSH2 0x253D DUP3 PUSH2 0x26B9 JUMP JUMPDEST SWAP1 POP PUSH1 0x20 DUP2 ADD SWAP1 POP SWAP2 SWAP1 POP JUMP JUMPDEST PUSH1 0x0 DUP2 MLOAD SWAP1 POP SWAP2 SWAP1 POP JUMP JUMPDEST PUSH1 0x0 DUP3 DUP3 MSTORE PUSH1 0x20 DUP3 ADD SWAP1 POP SWAP3 SWAP2 POP POP JUMP JUMPDEST PUSH1 0x0 PUSH2 0x2571 DUP3 PUSH2 0x258B JUMP JUMPDEST SWAP1 POP SWAP2 SWAP1 POP JUMP JUMPDEST PUSH1 0x0 DUP2 SWAP1 POP PUSH2 0x2586 DUP3 PUSH2 0x26CA JUMP JUMPDEST SWAP2 SWAP1 POP JUMP JUMPDEST PUSH1 0x0 PUSH20 0xFFFFFFFFFFFFFFFFFFFFFFFFFFFFFFFFFFFFFFFF DUP3 AND SWAP1 POP SWAP2 SWAP1 POP JUMP JUMPDEST PUSH1 0x0 DUP2 SWAP1 POP SWAP2 SWAP1 POP JUMP JUMPDEST PUSH1 0x0 PUSH1 0xFF DUP3 AND SWAP1 POP SWAP2 SWAP1 POP JUMP JUMPDEST PUSH1 0x0 PUSH2 0x25CD DUP3 PUSH2 0x2578 JUMP JUMPDEST SWAP1 POP SWAP2 SWAP1 POP JUMP JUMPDEST DUP3 DUP2 DUP4 CALLDATACOPY PUSH1 0x0 DUP4 DUP4 ADD MSTORE POP POP POP JUMP JUMPDEST PUSH1 0x0 JUMPDEST DUP4 DUP2 LT ISZERO PUSH2 0x2601 JUMPI DUP1 DUP3 ADD MLOAD DUP2 DUP5 ADD MSTORE PUSH1 0x20 DUP2 ADD SWAP1 POP PUSH2 0x25E6 JUMP JUMPDEST DUP4 DUP2 GT ISZERO PUSH2 0x2610 JUMPI PUSH1 0x0 DUP5 DUP5 ADD MSTORE JUMPDEST POP POP POP POP JUMP JUMPDEST PUSH2 0x261F DUP3 PUSH2 0x26B9 JUMP JUMPDEST DUP2 ADD DUP2 DUP2 LT PUSH8 0xFFFFFFFFFFFFFFFF DUP3 GT OR ISZERO PUSH2 0x263E JUMPI PUSH2 0x263D PUSH2 0x2676 JUMP JUMPDEST JUMPDEST DUP1 PUSH1 0x40 MSTORE POP POP POP JUMP JUMPDEST PUSH32 0x4E487B7100000000000000000000000000000000000000000000000000000000 PUSH1 0x0 MSTORE PUSH1 0x21 PUSH1 0x4 MSTORE PUSH1 0x24 PUSH1 0x0 REVERT JUMPDEST PUSH32 0x4E487B7100000000000000000000000000000000000000000000000000000000 PUSH1 0x0 MSTORE PUSH1 0x41 PUSH1 0x4 MSTORE PUSH1 0x24 PUSH1 0x0 REVERT JUMPDEST PUSH1 0x0 DUP1 REVERT JUMPDEST PUSH1 0x0 DUP1 REVERT JUMPDEST PUSH1 0x0 DUP1 REVERT JUMPDEST PUSH1 0x0 DUP1 REVERT JUMPDEST PUSH1 0x0 PUSH1 0x1F NOT PUSH1 0x1F DUP4 ADD AND SWAP1 POP SWAP2 SWAP1 POP JUMP JUMPDEST PUSH1 0x6 DUP2 LT PUSH2 0x26DB JUMPI PUSH2 0x26DA PUSH2 0x2647 JUMP JUMPDEST JUMPDEST POP JUMP JUMPDEST PUSH2 0x26E7 DUP2 PUSH2 0x2566 JUMP JUMPDEST DUP2 EQ PUSH2 0x26F2 JUMPI PUSH1 0x0 DUP1 REVERT JUMPDEST POP JUMP JUMPDEST PUSH1 0x6 DUP2 LT PUSH2 0x2702 JUMPI PUSH1 0x0 DUP1 REVERT JUMPDEST POP JUMP JUMPDEST PUSH2 0x270E DUP2 PUSH2 0x25AB JUMP JUMPDEST DUP2 EQ PUSH2 0x2719 JUMPI PUSH1 0x0 DUP1 REVERT JUMPDEST POP JUMP JUMPDEST PUSH2 0x2725 DUP2 PUSH2 0x25B5 JUMP JUMPDEST DUP2 EQ PUSH2 0x2730 JUMPI PUSH1 0x0 DUP1 REVERT JUMPDEST POP JUMP INVALID LOG2 PUSH5 0x6970667358 0x22 SLT KECCAK256 MULMOD ADDRESS CALLDATALOAD 0xD6 DUP5 CALLDATACOPY LOG0 0xC4 0x24 0xF6 0xAA 0xD8 SAR LOG4 DUP14 PUSH4 0x1DE04F1B 0xE2 LOG2 PUSH16 0xBF7543060AA462CAB164736F6C634300 ADDMOD SMOD STOP CALLER "
		},
		"gasEstimates": {
			"creation": {
				"codeDepositCost": "2017800",
				"executionCost": "infinite",
				"totalCost": "infinite"
			},
			"external": {
				"acceptServiceRequest(uint256,uint256)": "infinite",
				"comissionFee()": "2497",
				"completeMilestone(uint256,uint256,uint256)": "infinite",
				"completeServiceRequest(uint256,uint256)": "infinite",
				"createConflict(uint256,uint256,uint256,string,string,uint256)": "infinite",
				"createMilestone(uint256,uint256,string,string)": "infinite",
				"createProfile(string,string)": "infinite",
				"createProject(string,string)": "infinite",
				"createService(uint256,string,string)": "infinite",
				"deleteConflict(uint256,uint256,uint256)": "infinite",
				"deleteMilestone(uint256,uint256,uint256)": "infinite",
				"deleteProfile()": "infinite",
				"deleteProject(uint256)": "infinite",
				"deleteService(uint256,uint256)": "infinite",
				"getAvgServiceProviderStarRating(uint256,uint256)": "infinite",
				"getAvgServiceRequesterStarRating(uint256,uint256)": "infinite",
				"getName()": "infinite",
				"readMilestoneTitle(uint256,uint256,uint256)": "infinite",
				"readProjectTitle(uint256)": "infinite",
				"readServiceTitle(uint256,uint256)": "infinite",
				"rejectServiceRequest(uint256,uint256)": "infinite",
				"reviewMilestone(uint256,uint256,uint256,address,string,uint256)": "infinite",
				"startVote(uint256,uint256,uint256)": "infinite",
				"takeServiceRequest(uint256,uint256)": "infinite",
				"updateConflict(uint256,uint256,uint256,string,string)": "infinite",
				"updateMilestone(uint256,uint256,uint256,string,string)": "infinite",
				"updateProfileName(string,string)": "infinite",
				"updateProject(uint256,string,string)": "infinite",
				"updateService(uint256,uint256,string,string,uint256,uint8)": "infinite",
				"verifyMilestone(uint256,uint256,uint256)": "infinite",
				"voteConflict(uint256,uint256,uint256,uint8)": "infinite"
			}
		},
		"methodIdentifiers": {
			"acceptServiceRequest(uint256,uint256)": "6795f3b7",
			"comissionFee()": "741a7591",
			"completeMilestone(uint256,uint256,uint256)": "c3b9e304",
			"completeServiceRequest(uint256,uint256)": "6f871c3d",
			"createConflict(uint256,uint256,uint256,string,string,uint256)": "2a31f1d7",
			"createMilestone(uint256,uint256,string,string)": "63ef8a50",
			"createProfile(string,string)": "ba1feb8a",
			"createProject(string,string)": "6bd06204",
			"createService(uint256,string,string)": "7d3ebecd",
			"deleteConflict(uint256,uint256,uint256)": "003f489f",
			"deleteMilestone(uint256,uint256,uint256)": "b9b6c5d4",
			"deleteProfile()": "6d4540eb",
			"deleteProject(uint256)": "4cd0cb28",
			"deleteService(uint256,uint256)": "53c49c64",
			"getAvgServiceProviderStarRating(uint256,uint256)": "ccee835b",
			"getAvgServiceRequesterStarRating(uint256,uint256)": "664fc0cd",
			"getName()": "17d7de7c",
			"readMilestoneTitle(uint256,uint256,uint256)": "ace731bd",
			"readProjectTitle(uint256)": "12327a66",
			"readServiceTitle(uint256,uint256)": "c304ccdc",
			"rejectServiceRequest(uint256,uint256)": "63fccb03",
			"reviewMilestone(uint256,uint256,uint256,address,string,uint256)": "bba93c0b",
			"startVote(uint256,uint256,uint256)": "9c87a5e9",
			"takeServiceRequest(uint256,uint256)": "98facc73",
			"updateConflict(uint256,uint256,uint256,string,string)": "d1e992a7",
			"updateMilestone(uint256,uint256,uint256,string,string)": "fd23c4bb",
			"updateProfileName(string,string)": "f1f92487",
			"updateProject(uint256,string,string)": "8c4c1347",
			"updateService(uint256,uint256,string,string,uint256,uint8)": "010dfd93",
			"verifyMilestone(uint256,uint256,uint256)": "08c6f4ab",
			"voteConflict(uint256,uint256,uint256,uint8)": "153d0194"
		}
	},
	"abi": [
		{
			"inputs": [
				{
					"internalType": "contract Profile",
					"name": "profileContract",
					"type": "address"
				},
				{
					"internalType": "contract Project",
					"name": "projectContract",
					"type": "address"
				},
				{
					"internalType": "uint256",
					"name": "fee",
					"type": "uint256"
				}
			],
			"stateMutability": "nonpayable",
			"type": "constructor"
		},
		{
			"inputs": [
				{
					"internalType": "uint256",
					"name": "projectNumber",
					"type": "uint256"
				},
				{
					"internalType": "uint256",
					"name": "serviceNumber",
					"type": "uint256"
				}
			],
			"name": "acceptServiceRequest",
			"outputs": [],
			"stateMutability": "nonpayable",
			"type": "function"
		},
		{
			"inputs": [],
			"name": "comissionFee",
			"outputs": [
				{
					"internalType": "uint256",
					"name": "",
					"type": "uint256"
				}
			],
			"stateMutability": "view",
			"type": "function"
		},
		{
			"inputs": [
				{
					"internalType": "uint256",
					"name": "projectNumber",
					"type": "uint256"
				},
				{
					"internalType": "uint256",
					"name": "serviceNumber",
					"type": "uint256"
				},
				{
					"internalType": "uint256",
					"name": "milestoneNumber",
					"type": "uint256"
				}
			],
			"name": "completeMilestone",
			"outputs": [],
			"stateMutability": "nonpayable",
			"type": "function"
		},
		{
			"inputs": [
				{
					"internalType": "uint256",
					"name": "projectNumber",
					"type": "uint256"
				},
				{
					"internalType": "uint256",
					"name": "serviceNumber",
					"type": "uint256"
				}
			],
			"name": "completeServiceRequest",
			"outputs": [],
			"stateMutability": "nonpayable",
			"type": "function"
		},
		{
			"inputs": [
				{
					"internalType": "uint256",
					"name": "projectNumber",
					"type": "uint256"
				},
				{
					"internalType": "uint256",
					"name": "serviceNumber",
					"type": "uint256"
				},
				{
					"internalType": "uint256",
					"name": "milestoneNumber",
					"type": "uint256"
				},
				{
					"internalType": "string",
					"name": "title",
					"type": "string"
				},
				{
					"internalType": "string",
					"name": "description",
					"type": "string"
				},
				{
					"internalType": "uint256",
					"name": "totalVoters",
					"type": "uint256"
				}
			],
			"name": "createConflict",
			"outputs": [],
			"stateMutability": "nonpayable",
			"type": "function"
		},
		{
			"inputs": [
				{
					"internalType": "uint256",
					"name": "projectNumber",
					"type": "uint256"
				},
				{
					"internalType": "uint256",
					"name": "serviceNumber",
					"type": "uint256"
				},
				{
					"internalType": "string",
					"name": "titleMilestone",
					"type": "string"
				},
				{
					"internalType": "string",
					"name": "descriptionMilestone",
					"type": "string"
				}
			],
			"name": "createMilestone",
			"outputs": [],
			"stateMutability": "nonpayable",
			"type": "function"
		},
		{
			"inputs": [
				{
					"internalType": "string",
					"name": "name",
					"type": "string"
				},
				{
					"internalType": "string",
					"name": "password",
					"type": "string"
				}
			],
			"name": "createProfile",
			"outputs": [],
			"stateMutability": "nonpayable",
			"type": "function"
		},
		{
			"inputs": [
				{
					"internalType": "string",
					"name": "title",
					"type": "string"
				},
				{
					"internalType": "string",
					"name": "description",
					"type": "string"
				}
			],
			"name": "createProject",
			"outputs": [],
			"stateMutability": "nonpayable",
			"type": "function"
		},
		{
			"inputs": [
				{
					"internalType": "uint256",
					"name": "projectNumber",
					"type": "uint256"
				},
				{
					"internalType": "string",
					"name": "title",
					"type": "string"
				},
				{
					"internalType": "string",
					"name": "description",
					"type": "string"
				}
			],
			"name": "createService",
			"outputs": [],
			"stateMutability": "nonpayable",
			"type": "function"
		},
		{
			"inputs": [
				{
					"internalType": "uint256",
					"name": "projectNumber",
					"type": "uint256"
				},
				{
					"internalType": "uint256",
					"name": "serviceNumber",
					"type": "uint256"
				},
				{
					"internalType": "uint256",
					"name": "milestoneNumber",
					"type": "uint256"
				}
			],
			"name": "deleteConflict",
			"outputs": [],
			"stateMutability": "nonpayable",
			"type": "function"
		},
		{
			"inputs": [
				{
					"internalType": "uint256",
					"name": "projectNumber",
					"type": "uint256"
				},
				{
					"internalType": "uint256",
					"name": "serviceNumber",
					"type": "uint256"
				},
				{
					"internalType": "uint256",
					"name": "milestoneNumber",
					"type": "uint256"
				}
			],
			"name": "deleteMilestone",
			"outputs": [],
			"stateMutability": "nonpayable",
			"type": "function"
		},
		{
			"inputs": [],
			"name": "deleteProfile",
			"outputs": [],
			"stateMutability": "nonpayable",
			"type": "function"
		},
		{
			"inputs": [
				{
					"internalType": "uint256",
					"name": "projectNumber",
					"type": "uint256"
				}
			],
			"name": "deleteProject",
			"outputs": [],
			"stateMutability": "nonpayable",
			"type": "function"
		},
		{
			"inputs": [
				{
					"internalType": "uint256",
					"name": "projectNumber",
					"type": "uint256"
				},
				{
					"internalType": "uint256",
					"name": "serviceNumber",
					"type": "uint256"
				}
			],
			"name": "deleteService",
			"outputs": [],
			"stateMutability": "nonpayable",
			"type": "function"
		},
		{
			"inputs": [
				{
					"internalType": "uint256",
					"name": "projectNumber",
					"type": "uint256"
				},
				{
					"internalType": "uint256",
					"name": "serviceNumber",
					"type": "uint256"
				}
			],
			"name": "getAvgServiceProviderStarRating",
			"outputs": [
				{
					"internalType": "uint256",
					"name": "",
					"type": "uint256"
				}
			],
			"stateMutability": "view",
			"type": "function"
		},
		{
			"inputs": [
				{
					"internalType": "uint256",
					"name": "projectNumber",
					"type": "uint256"
				},
				{
					"internalType": "uint256",
					"name": "serviceNumber",
					"type": "uint256"
				}
			],
			"name": "getAvgServiceRequesterStarRating",
			"outputs": [
				{
					"internalType": "uint256",
					"name": "",
					"type": "uint256"
				}
			],
			"stateMutability": "view",
			"type": "function"
		},
		{
			"inputs": [],
			"name": "getName",
			"outputs": [
				{
					"internalType": "string",
					"name": "",
					"type": "string"
				}
			],
			"stateMutability": "view",
			"type": "function"
		},
		{
			"inputs": [
				{
					"internalType": "uint256",
					"name": "projectNumber",
					"type": "uint256"
				},
				{
					"internalType": "uint256",
					"name": "serviceNumber",
					"type": "uint256"
				},
				{
					"internalType": "uint256",
					"name": "milestoneNumber",
					"type": "uint256"
				}
			],
			"name": "readMilestoneTitle",
			"outputs": [
				{
					"internalType": "string",
					"name": "",
					"type": "string"
				}
			],
			"stateMutability": "view",
			"type": "function"
		},
		{
			"inputs": [
				{
					"internalType": "uint256",
					"name": "projectNumber",
					"type": "uint256"
				}
			],
			"name": "readProjectTitle",
			"outputs": [
				{
					"internalType": "string",
					"name": "",
					"type": "string"
				}
			],
			"stateMutability": "view",
			"type": "function"
		},
		{
			"inputs": [
				{
					"internalType": "uint256",
					"name": "projectNumber",
					"type": "uint256"
				},
				{
					"internalType": "uint256",
					"name": "serviceNumber",
					"type": "uint256"
				}
			],
			"name": "readServiceTitle",
			"outputs": [
				{
					"internalType": "string",
					"name": "",
					"type": "string"
				}
			],
			"stateMutability": "view",
			"type": "function"
		},
		{
			"inputs": [
				{
					"internalType": "uint256",
					"name": "projectNumber",
					"type": "uint256"
				},
				{
					"internalType": "uint256",
					"name": "serviceNumber",
					"type": "uint256"
				}
			],
			"name": "rejectServiceRequest",
			"outputs": [],
			"stateMutability": "nonpayable",
			"type": "function"
		},
		{
			"inputs": [
				{
					"internalType": "uint256",
					"name": "projectNumber",
					"type": "uint256"
				},
				{
					"internalType": "uint256",
					"name": "serviceNumber",
					"type": "uint256"
				},
				{
					"internalType": "uint256",
					"name": "milestoneNumber",
					"type": "uint256"
				},
				{
					"internalType": "address",
					"name": "_from",
					"type": "address"
				},
				{
					"internalType": "string",
					"name": "review_input",
					"type": "string"
				},
				{
					"internalType": "uint256",
					"name": "star_rating",
					"type": "uint256"
				}
			],
			"name": "reviewMilestone",
			"outputs": [],
			"stateMutability": "nonpayable",
			"type": "function"
		},
		{
			"inputs": [
				{
					"internalType": "uint256",
					"name": "projectNumber",
					"type": "uint256"
				},
				{
					"internalType": "uint256",
					"name": "serviceNumber",
					"type": "uint256"
				},
				{
					"internalType": "uint256",
					"name": "milestoneNumber",
					"type": "uint256"
				}
			],
			"name": "startVote",
			"outputs": [],
			"stateMutability": "nonpayable",
			"type": "function"
		},
		{
			"inputs": [
				{
					"internalType": "uint256",
					"name": "projectNumber",
					"type": "uint256"
				},
				{
					"internalType": "uint256",
					"name": "serviceNumber",
					"type": "uint256"
				}
			],
			"name": "takeServiceRequest",
			"outputs": [],
			"stateMutability": "nonpayable",
			"type": "function"
		},
		{
			"inputs": [
				{
					"internalType": "uint256",
					"name": "projectNumber",
					"type": "uint256"
				},
				{
					"internalType": "uint256",
					"name": "serviceNumber",
					"type": "uint256"
				},
				{
					"internalType": "uint256",
					"name": "milestoneNumber",
					"type": "uint256"
				},
				{
					"internalType": "string",
					"name": "title",
					"type": "string"
				},
				{
					"internalType": "string",
					"name": "description",
					"type": "string"
				}
			],
			"name": "updateConflict",
			"outputs": [],
			"stateMutability": "nonpayable",
			"type": "function"
		},
		{
			"inputs": [
				{
					"internalType": "uint256",
					"name": "projectNumber",
					"type": "uint256"
				},
				{
					"internalType": "uint256",
					"name": "serviceNumber",
					"type": "uint256"
				},
				{
					"internalType": "uint256",
					"name": "milestoneNumber",
					"type": "uint256"
				},
				{
					"internalType": "string",
					"name": "titleMilestone",
					"type": "string"
				},
				{
					"internalType": "string",
					"name": "descriptionMilestone",
					"type": "string"
				}
			],
			"name": "updateMilestone",
			"outputs": [],
			"stateMutability": "nonpayable",
			"type": "function"
		},
		{
			"inputs": [
				{
					"internalType": "string",
					"name": "name",
					"type": "string"
				},
				{
					"internalType": "string",
					"name": "password",
					"type": "string"
				}
			],
			"name": "updateProfileName",
			"outputs": [],
			"stateMutability": "nonpayable",
			"type": "function"
		},
		{
			"inputs": [
				{
					"internalType": "uint256",
					"name": "projectNumber",
					"type": "uint256"
				},
				{
					"internalType": "string",
					"name": "title",
					"type": "string"
				},
				{
					"internalType": "string",
					"name": "description",
					"type": "string"
				}
			],
			"name": "updateProject",
			"outputs": [],
			"stateMutability": "nonpayable",
			"type": "function"
		},
		{
			"inputs": [
				{
					"internalType": "uint256",
					"name": "projectNumber",
					"type": "uint256"
				},
				{
					"internalType": "uint256",
					"name": "serviceNumber",
					"type": "uint256"
				},
				{
					"internalType": "string",
					"name": "title",
					"type": "string"
				},
				{
					"internalType": "string",
					"name": "description",
					"type": "string"
				},
				{
					"internalType": "uint256",
					"name": "price",
					"type": "uint256"
				},
				{
					"internalType": "enum States.ServiceStatus",
					"name": "status",
					"type": "uint8"
				}
			],
			"name": "updateService",
			"outputs": [],
			"stateMutability": "nonpayable",
			"type": "function"
		},
		{
			"inputs": [
				{
					"internalType": "uint256",
					"name": "projectNumber",
					"type": "uint256"
				},
				{
					"internalType": "uint256",
					"name": "serviceNumber",
					"type": "uint256"
				},
				{
					"internalType": "uint256",
					"name": "milestoneNumber",
					"type": "uint256"
				}
			],
			"name": "verifyMilestone",
			"outputs": [],
			"stateMutability": "nonpayable",
			"type": "function"
		},
		{
			"inputs": [
				{
					"internalType": "uint256",
					"name": "projectNumber",
					"type": "uint256"
				},
				{
					"internalType": "uint256",
					"name": "serviceNumber",
					"type": "uint256"
				},
				{
					"internalType": "uint256",
					"name": "milestoneNumber",
					"type": "uint256"
				},
				{
					"internalType": "uint8",
					"name": "vote",
					"type": "uint8"
				}
			],
			"name": "voteConflict",
			"outputs": [],
			"stateMutability": "nonpayable",
			"type": "function"
		}
	]
}