{
	"data": {
		"bytecode": {
			"linkReferences": {},
			"object": "608060405234801561001057600080fd5b5061153b806100206000396000f3fe608060405234801561001057600080fd5b506004361061007d5760003560e01c80639ac788791161005b5780639ac78879146100fe578063cb4389ce1461012e578063e3d877181461015e578063fe074c111461018e5761007d565b80630366cef214610082578063153d0194146100b25780633c45fe31146100ce575b600080fd5b61009c60048036038101906100979190610c21565b6101aa565b6040516100a99190610fc5565b60405180910390f35b6100cc60048036038101906100c79190610cef565b610357565b005b6100e860048036038101906100e39190610c21565b6108cc565b6040516100f59190610fc5565b60405180910390f35b61011860048036038101906101139190610c21565b61090f565b6040516101259190610fc5565b60405180910390f35b61014860048036038101906101439190610c21565b610952565b6040516101559190610eaa565b60405180910390f35b61017860048036038101906101739190610c21565b6109a2565b6040516101859190610fc5565b60405180910390f35b6101a860048036038101906101a39190610c74565b6109e5565b005b6000806000858152602001908152602001600020600084815260200190815260200160002060008381526020019081526020016000206006015460008086815260200190815260200160002060008581526020019081526020016000206000848152602001908152602001600020600701541461025c576040517f08c379a000000000000000000000000000000000000000000000000000000000815260040161025390610f45565b60405180910390fd5b60028081111561026f5761026e6111b4565b5b6000808681526020019081526020016000206000858152602001908152602001600020600084815260200190815260200160002060050160009054906101000a900460ff1660028111156102c6576102c56111b4565b5b14610306576040517f08c379a00000000000000000000000000000000000000000000000000000000081526004016102fd90610f25565b60405180910390fd5b60008085815260200190815260200160002060008481526020019081526020016000206000838152602001908152602001600020600a0160019054906101000a900460ff1660ff1690509392505050565b3373ffffffffffffffffffffffffffffffffffffffff166000808681526020019081526020016000206000858152602001908152602001600020600084815260200190815260200160002060000160009054906101000a900473ffffffffffffffffffffffffffffffffffffffff1673ffffffffffffffffffffffffffffffffffffffff16141561041d576040517f08c379a000000000000000000000000000000000000000000000000000000000815260040161041490610f05565b60405180910390fd5b3373ffffffffffffffffffffffffffffffffffffffff166000808681526020019081526020016000206000858152602001908152602001600020600084815260200190815260200160002060010160009054906101000a900473ffffffffffffffffffffffffffffffffffffffff1673ffffffffffffffffffffffffffffffffffffffff1614156104e3576040517f08c379a00000000000000000000000000000000000000000000000000000000081526004016104da90610f65565b60405180910390fd5b6000808581526020019081526020016000206000848152602001908152602001600020600083815260200190815260200160002060060154600080868152602001908152602001600020600085815260200190815260200160002060008481526020019081526020016000206007015410610593576040517f08c379a000000000000000000000000000000000000000000000000000000000815260040161058a90610f85565b60405180910390fd5b600080600086815260200190815260200160002060008581526020019081526020016000206000848152602001908152602001600020600b0160003373ffffffffffffffffffffffffffffffffffffffff1673ffffffffffffffffffffffffffffffffffffffff16815260200190815260200160002060009054906101000a900460ff1660ff161461065a576040517f08c379a000000000000000000000000000000000000000000000000000000000815260040161065190610ee5565b60405180910390fd5b60018160ff16148061066f575060028160ff16145b6106ae576040517f08c379a00000000000000000000000000000000000000000000000000000000081526004016106a590610ec5565b60405180910390fd5b60008060008681526020019081526020016000206000858152602001908152602001600020600084815260200190815260200160002090508181600b0160003373ffffffffffffffffffffffffffffffffffffffff1673ffffffffffffffffffffffffffffffffffffffff16815260200190815260200160002060006101000a81548160ff021916908360ff16021790555060018260ff161415610767578060080160008154809291906107619061113c565b91905055505b60028260ff16141561078e578060090160008154809291906107889061113c565b91905055505b8060070160008154809291906107a39061113c565b91905055507f20211b974adbe11ce3687d51504ce7ef1fcfbb9c00405ba7aca7b283903f345a85858533866040516107df959493929190611025565b60405180910390a18060060154816007015414156108c55780600801548160090154111561082a57600281600a0160016101000a81548160ff021916908360ff160217905550610849565b600181600a0160016101000a81548160ff021916908360ff1602179055505b60028160050160006101000a81548160ff02191690836002811115610871576108706111b4565b5b02179055507fe59fdbc65a5dd63c529717c2a71d04b136038f05301755de242dd05990c0281485858584600a0160019054906101000a900460ff166040516108bc9493929190611078565b60405180910390a15b5050505050565b6000806000858152602001908152602001600020600084815260200190815260200160002060008381526020019081526020016000206007015490509392505050565b6000806000858152602001908152602001600020600084815260200190815260200160002060008381526020019081526020016000206009015490509392505050565b60008060008581526020019081526020016000206000848152602001908152602001600020600083815260200190815260200160002060050160009054906101000a900460ff1690509392505050565b6000806000858152602001908152602001600020600084815260200190815260200160002060008381526020019081526020016000206008015490509392505050565b6001151560008087815260200190815260200160002060008681526020019081526020016000206000858152602001908152602001600020600a0160009054906101000a900460ff1615151415610a71576040517f08c379a0000000000000000000000000000000000000000000000000000000008152600401610a6890610fa5565b60405180910390fd5b6000806000878152602001908152602001600020600086815260200190815260200160002060008581526020019081526020016000209050338160000160006101000a81548173ffffffffffffffffffffffffffffffffffffffff021916908373ffffffffffffffffffffffffffffffffffffffff160217905550828160010160006101000a81548173ffffffffffffffffffffffffffffffffffffffff021916908373ffffffffffffffffffffffffffffffffffffffff160217905550838160020181905550848160030181905550858160040181905550600181600a0160006101000a81548160ff02191690831515021790555060018160050160006101000a81548160ff02191690836002811115610b8f57610b8e6111b4565b5b02179055508181600601819055507fc1617c5bbf96cace25a096d26ca0a119036155dc519dd9ef0ee51434015a5ac186868686604051610bd29493929190610fe0565b60405180910390a1505050505050565b600081359050610bf1816114c0565b92915050565b600081359050610c06816114d7565b92915050565b600081359050610c1b816114ee565b92915050565b600080600060608486031215610c3a57610c396111e3565b5b6000610c4886828701610bf7565b9350506020610c5986828701610bf7565b9250506040610c6a86828701610bf7565b9150509250925092565b600080600080600060a08688031215610c9057610c8f6111e3565b5b6000610c9e88828901610bf7565b9550506020610caf88828901610bf7565b9450506040610cc088828901610bf7565b9350506060610cd188828901610be2565b9250506080610ce288828901610bf7565b9150509295509295909350565b60008060008060808587031215610d0957610d086111e3565b5b6000610d1787828801610bf7565b9450506020610d2887828801610bf7565b9350506040610d3987828801610bf7565b9250506060610d4a87828801610c0c565b91505092959194509250565b610d5f816110ce565b82525050565b610d6e8161112a565b82525050565b6000610d816057836110bd565b9150610d8c826111e8565b606082019050919050565b6000610da4602d836110bd565b9150610daf8261125d565b604082019050919050565b6000610dc76030836110bd565b9150610dd2826112ac565b604082019050919050565b6000610dea603d836110bd565b9150610df5826112fb565b604082019050919050565b6000610e0d604a836110bd565b9150610e188261134a565b606082019050919050565b6000610e306039836110bd565b9150610e3b826113bf565b604082019050919050565b6000610e536020836110bd565b9150610e5e8261140e565b602082019050919050565b6000610e76604d836110bd565b9150610e8182611437565b606082019050919050565b610e9581611113565b82525050565b610ea48161111d565b82525050565b6000602082019050610ebf6000830184610d65565b92915050565b60006020820190508181036000830152610ede81610d74565b9050919050565b60006020820190508181036000830152610efe81610d97565b9050919050565b60006020820190508181036000830152610f1e81610dba565b9050919050565b60006020820190508181036000830152610f3e81610ddd565b9050919050565b60006020820190508181036000830152610f5e81610e00565b9050919050565b60006020820190508181036000830152610f7e81610e23565b9050919050565b60006020820190508181036000830152610f9e81610e46565b9050919050565b60006020820190508181036000830152610fbe81610e69565b9050919050565b6000602082019050610fda6000830184610e8c565b92915050565b6000608082019050610ff56000830187610e8c565b6110026020830186610e8c565b61100f6040830185610e8c565b61101c6060830184610d56565b95945050505050565b600060a08201905061103a6000830188610e8c565b6110476020830187610e8c565b6110546040830186610e8c565b6110616060830185610d56565b61106e6080830184610e9b565b9695505050505050565b600060808201905061108d6000830187610e8c565b61109a6020830186610e8c565b6110a76040830185610e8c565b6110b46060830184610e9b565b95945050505050565b600082825260208201905092915050565b60006110d9826110f3565b9050919050565b60008190506110ee826114ac565b919050565b600073ffffffffffffffffffffffffffffffffffffffff82169050919050565b6000819050919050565b600060ff82169050919050565b6000611135826110e0565b9050919050565b600061114782611113565b91507fffffffffffffffffffffffffffffffffffffffffffffffffffffffffffffffff82141561117a57611179611185565b5b600182019050919050565b7f4e487b7100000000000000000000000000000000000000000000000000000000600052601160045260246000fd5b7f4e487b7100000000000000000000000000000000000000000000000000000000600052602160045260246000fd5b600080fd5b7f596f752068617665206e6f7420696e707574206120726967687420766f74652e60008201527f20596f752063616e2065697468657220766f7465203120666f7220526571756560208201527f73746572206f72203220666f722050726f76696465722e000000000000000000604082015250565b7f596f75206861766520616c726561647920766f7465642c20796f752063616e6e60008201527f6f7420766f746520616761696e00000000000000000000000000000000000000602082015250565b7f596f7520726169736564207468697320636f6e666c6963742e20596f7520636160008201527f6e6e6f7420766f7465206f6e2069742e00000000000000000000000000000000602082015250565b7f566f74696e6720686173206e6f74206265656e20636f6d706c6574656420796560008201527f742e20506c65617365207761697420666f7220697420746f20656e642e000000602082015250565b7f4e6f742065766572796f6e652068617320766f7465642c20706c65617365207060008201527f726f6d707420616c6c206f74686572206d656d62657273206f662070726f6a6560208201527f637420746f20766f746500000000000000000000000000000000000000000000604082015250565b7f596f752061726520696e766f6c76656420696e207468697320636f6e666c696360008201527f742e20596f752063616e6e6f7420766f7465206f6e2069742e00000000000000602082015250565b7f456e6f75676820766f7465732068617665206265656e20636f6c6c6563746564600082015250565b7f436f6e666c6963742068617320616c7265616479206265656e2063726561746560008201527f642e20506c6561736520646f206e6f7420637265617465206d6f72652074686160208201527f6e203120636f6e666c6963742e00000000000000000000000000000000000000604082015250565b600381106114bd576114bc6111b4565b5b50565b6114c9816110ce565b81146114d457600080fd5b50565b6114e081611113565b81146114eb57600080fd5b50565b6114f78161111d565b811461150257600080fd5b5056fea2646970667358221220838218f3176117031eb8c9d1cd42895821cfd9547b39bcbf639c4a34e7ba457664736f6c63430008070033",
			"opcodes": "PUSH1 0x80 PUSH1 0x40 MSTORE CALLVALUE DUP1 ISZERO PUSH2 0x10 JUMPI PUSH1 0x0 DUP1 REVERT JUMPDEST POP PUSH2 0x153B DUP1 PUSH2 0x20 PUSH1 0x0 CODECOPY PUSH1 0x0 RETURN INVALID PUSH1 0x80 PUSH1 0x40 MSTORE CALLVALUE DUP1 ISZERO PUSH2 0x10 JUMPI PUSH1 0x0 DUP1 REVERT JUMPDEST POP PUSH1 0x4 CALLDATASIZE LT PUSH2 0x7D JUMPI PUSH1 0x0 CALLDATALOAD PUSH1 0xE0 SHR DUP1 PUSH4 0x9AC78879 GT PUSH2 0x5B JUMPI DUP1 PUSH4 0x9AC78879 EQ PUSH2 0xFE JUMPI DUP1 PUSH4 0xCB4389CE EQ PUSH2 0x12E JUMPI DUP1 PUSH4 0xE3D87718 EQ PUSH2 0x15E JUMPI DUP1 PUSH4 0xFE074C11 EQ PUSH2 0x18E JUMPI PUSH2 0x7D JUMP JUMPDEST DUP1 PUSH4 0x366CEF2 EQ PUSH2 0x82 JUMPI DUP1 PUSH4 0x153D0194 EQ PUSH2 0xB2 JUMPI DUP1 PUSH4 0x3C45FE31 EQ PUSH2 0xCE JUMPI JUMPDEST PUSH1 0x0 DUP1 REVERT JUMPDEST PUSH2 0x9C PUSH1 0x4 DUP1 CALLDATASIZE SUB DUP2 ADD SWAP1 PUSH2 0x97 SWAP2 SWAP1 PUSH2 0xC21 JUMP JUMPDEST PUSH2 0x1AA JUMP JUMPDEST PUSH1 0x40 MLOAD PUSH2 0xA9 SWAP2 SWAP1 PUSH2 0xFC5 JUMP JUMPDEST PUSH1 0x40 MLOAD DUP1 SWAP2 SUB SWAP1 RETURN JUMPDEST PUSH2 0xCC PUSH1 0x4 DUP1 CALLDATASIZE SUB DUP2 ADD SWAP1 PUSH2 0xC7 SWAP2 SWAP1 PUSH2 0xCEF JUMP JUMPDEST PUSH2 0x357 JUMP JUMPDEST STOP JUMPDEST PUSH2 0xE8 PUSH1 0x4 DUP1 CALLDATASIZE SUB DUP2 ADD SWAP1 PUSH2 0xE3 SWAP2 SWAP1 PUSH2 0xC21 JUMP JUMPDEST PUSH2 0x8CC JUMP JUMPDEST PUSH1 0x40 MLOAD PUSH2 0xF5 SWAP2 SWAP1 PUSH2 0xFC5 JUMP JUMPDEST PUSH1 0x40 MLOAD DUP1 SWAP2 SUB SWAP1 RETURN JUMPDEST PUSH2 0x118 PUSH1 0x4 DUP1 CALLDATASIZE SUB DUP2 ADD SWAP1 PUSH2 0x113 SWAP2 SWAP1 PUSH2 0xC21 JUMP JUMPDEST PUSH2 0x90F JUMP JUMPDEST PUSH1 0x40 MLOAD PUSH2 0x125 SWAP2 SWAP1 PUSH2 0xFC5 JUMP JUMPDEST PUSH1 0x40 MLOAD DUP1 SWAP2 SUB SWAP1 RETURN JUMPDEST PUSH2 0x148 PUSH1 0x4 DUP1 CALLDATASIZE SUB DUP2 ADD SWAP1 PUSH2 0x143 SWAP2 SWAP1 PUSH2 0xC21 JUMP JUMPDEST PUSH2 0x952 JUMP JUMPDEST PUSH1 0x40 MLOAD PUSH2 0x155 SWAP2 SWAP1 PUSH2 0xEAA JUMP JUMPDEST PUSH1 0x40 MLOAD DUP1 SWAP2 SUB SWAP1 RETURN JUMPDEST PUSH2 0x178 PUSH1 0x4 DUP1 CALLDATASIZE SUB DUP2 ADD SWAP1 PUSH2 0x173 SWAP2 SWAP1 PUSH2 0xC21 JUMP JUMPDEST PUSH2 0x9A2 JUMP JUMPDEST PUSH1 0x40 MLOAD PUSH2 0x185 SWAP2 SWAP1 PUSH2 0xFC5 JUMP JUMPDEST PUSH1 0x40 MLOAD DUP1 SWAP2 SUB SWAP1 RETURN JUMPDEST PUSH2 0x1A8 PUSH1 0x4 DUP1 CALLDATASIZE SUB DUP2 ADD SWAP1 PUSH2 0x1A3 SWAP2 SWAP1 PUSH2 0xC74 JUMP JUMPDEST PUSH2 0x9E5 JUMP JUMPDEST STOP JUMPDEST PUSH1 0x0 DUP1 PUSH1 0x0 DUP6 DUP2 MSTORE PUSH1 0x20 ADD SWAP1 DUP2 MSTORE PUSH1 0x20 ADD PUSH1 0x0 KECCAK256 PUSH1 0x0 DUP5 DUP2 MSTORE PUSH1 0x20 ADD SWAP1 DUP2 MSTORE PUSH1 0x20 ADD PUSH1 0x0 KECCAK256 PUSH1 0x0 DUP4 DUP2 MSTORE PUSH1 0x20 ADD SWAP1 DUP2 MSTORE PUSH1 0x20 ADD PUSH1 0x0 KECCAK256 PUSH1 0x6 ADD SLOAD PUSH1 0x0 DUP1 DUP7 DUP2 MSTORE PUSH1 0x20 ADD SWAP1 DUP2 MSTORE PUSH1 0x20 ADD PUSH1 0x0 KECCAK256 PUSH1 0x0 DUP6 DUP2 MSTORE PUSH1 0x20 ADD SWAP1 DUP2 MSTORE PUSH1 0x20 ADD PUSH1 0x0 KECCAK256 PUSH1 0x0 DUP5 DUP2 MSTORE PUSH1 0x20 ADD SWAP1 DUP2 MSTORE PUSH1 0x20 ADD PUSH1 0x0 KECCAK256 PUSH1 0x7 ADD SLOAD EQ PUSH2 0x25C JUMPI PUSH1 0x40 MLOAD PUSH32 0x8C379A000000000000000000000000000000000000000000000000000000000 DUP2 MSTORE PUSH1 0x4 ADD PUSH2 0x253 SWAP1 PUSH2 0xF45 JUMP JUMPDEST PUSH1 0x40 MLOAD DUP1 SWAP2 SUB SWAP1 REVERT JUMPDEST PUSH1 0x2 DUP1 DUP2 GT ISZERO PUSH2 0x26F JUMPI PUSH2 0x26E PUSH2 0x11B4 JUMP JUMPDEST JUMPDEST PUSH1 0x0 DUP1 DUP7 DUP2 MSTORE PUSH1 0x20 ADD SWAP1 DUP2 MSTORE PUSH1 0x20 ADD PUSH1 0x0 KECCAK256 PUSH1 0x0 DUP6 DUP2 MSTORE PUSH1 0x20 ADD SWAP1 DUP2 MSTORE PUSH1 0x20 ADD PUSH1 0x0 KECCAK256 PUSH1 0x0 DUP5 DUP2 MSTORE PUSH1 0x20 ADD SWAP1 DUP2 MSTORE PUSH1 0x20 ADD PUSH1 0x0 KECCAK256 PUSH1 0x5 ADD PUSH1 0x0 SWAP1 SLOAD SWAP1 PUSH2 0x100 EXP SWAP1 DIV PUSH1 0xFF AND PUSH1 0x2 DUP2 GT ISZERO PUSH2 0x2C6 JUMPI PUSH2 0x2C5 PUSH2 0x11B4 JUMP JUMPDEST JUMPDEST EQ PUSH2 0x306 JUMPI PUSH1 0x40 MLOAD PUSH32 0x8C379A000000000000000000000000000000000000000000000000000000000 DUP2 MSTORE PUSH1 0x4 ADD PUSH2 0x2FD SWAP1 PUSH2 0xF25 JUMP JUMPDEST PUSH1 0x40 MLOAD DUP1 SWAP2 SUB SWAP1 REVERT JUMPDEST PUSH1 0x0 DUP1 DUP6 DUP2 MSTORE PUSH1 0x20 ADD SWAP1 DUP2 MSTORE PUSH1 0x20 ADD PUSH1 0x0 KECCAK256 PUSH1 0x0 DUP5 DUP2 MSTORE PUSH1 0x20 ADD SWAP1 DUP2 MSTORE PUSH1 0x20 ADD PUSH1 0x0 KECCAK256 PUSH1 0x0 DUP4 DUP2 MSTORE PUSH1 0x20 ADD SWAP1 DUP2 MSTORE PUSH1 0x20 ADD PUSH1 0x0 KECCAK256 PUSH1 0xA ADD PUSH1 0x1 SWAP1 SLOAD SWAP1 PUSH2 0x100 EXP SWAP1 DIV PUSH1 0xFF AND PUSH1 0xFF AND SWAP1 POP SWAP4 SWAP3 POP POP POP JUMP JUMPDEST CALLER PUSH20 0xFFFFFFFFFFFFFFFFFFFFFFFFFFFFFFFFFFFFFFFF AND PUSH1 0x0 DUP1 DUP7 DUP2 MSTORE PUSH1 0x20 ADD SWAP1 DUP2 MSTORE PUSH1 0x20 ADD PUSH1 0x0 KECCAK256 PUSH1 0x0 DUP6 DUP2 MSTORE PUSH1 0x20 ADD SWAP1 DUP2 MSTORE PUSH1 0x20 ADD PUSH1 0x0 KECCAK256 PUSH1 0x0 DUP5 DUP2 MSTORE PUSH1 0x20 ADD SWAP1 DUP2 MSTORE PUSH1 0x20 ADD PUSH1 0x0 KECCAK256 PUSH1 0x0 ADD PUSH1 0x0 SWAP1 SLOAD SWAP1 PUSH2 0x100 EXP SWAP1 DIV PUSH20 0xFFFFFFFFFFFFFFFFFFFFFFFFFFFFFFFFFFFFFFFF AND PUSH20 0xFFFFFFFFFFFFFFFFFFFFFFFFFFFFFFFFFFFFFFFF AND EQ ISZERO PUSH2 0x41D JUMPI PUSH1 0x40 MLOAD PUSH32 0x8C379A000000000000000000000000000000000000000000000000000000000 DUP2 MSTORE PUSH1 0x4 ADD PUSH2 0x414 SWAP1 PUSH2 0xF05 JUMP JUMPDEST PUSH1 0x40 MLOAD DUP1 SWAP2 SUB SWAP1 REVERT JUMPDEST CALLER PUSH20 0xFFFFFFFFFFFFFFFFFFFFFFFFFFFFFFFFFFFFFFFF AND PUSH1 0x0 DUP1 DUP7 DUP2 MSTORE PUSH1 0x20 ADD SWAP1 DUP2 MSTORE PUSH1 0x20 ADD PUSH1 0x0 KECCAK256 PUSH1 0x0 DUP6 DUP2 MSTORE PUSH1 0x20 ADD SWAP1 DUP2 MSTORE PUSH1 0x20 ADD PUSH1 0x0 KECCAK256 PUSH1 0x0 DUP5 DUP2 MSTORE PUSH1 0x20 ADD SWAP1 DUP2 MSTORE PUSH1 0x20 ADD PUSH1 0x0 KECCAK256 PUSH1 0x1 ADD PUSH1 0x0 SWAP1 SLOAD SWAP1 PUSH2 0x100 EXP SWAP1 DIV PUSH20 0xFFFFFFFFFFFFFFFFFFFFFFFFFFFFFFFFFFFFFFFF AND PUSH20 0xFFFFFFFFFFFFFFFFFFFFFFFFFFFFFFFFFFFFFFFF AND EQ ISZERO PUSH2 0x4E3 JUMPI PUSH1 0x40 MLOAD PUSH32 0x8C379A000000000000000000000000000000000000000000000000000000000 DUP2 MSTORE PUSH1 0x4 ADD PUSH2 0x4DA SWAP1 PUSH2 0xF65 JUMP JUMPDEST PUSH1 0x40 MLOAD DUP1 SWAP2 SUB SWAP1 REVERT JUMPDEST PUSH1 0x0 DUP1 DUP6 DUP2 MSTORE PUSH1 0x20 ADD SWAP1 DUP2 MSTORE PUSH1 0x20 ADD PUSH1 0x0 KECCAK256 PUSH1 0x0 DUP5 DUP2 MSTORE PUSH1 0x20 ADD SWAP1 DUP2 MSTORE PUSH1 0x20 ADD PUSH1 0x0 KECCAK256 PUSH1 0x0 DUP4 DUP2 MSTORE PUSH1 0x20 ADD SWAP1 DUP2 MSTORE PUSH1 0x20 ADD PUSH1 0x0 KECCAK256 PUSH1 0x6 ADD SLOAD PUSH1 0x0 DUP1 DUP7 DUP2 MSTORE PUSH1 0x20 ADD SWAP1 DUP2 MSTORE PUSH1 0x20 ADD PUSH1 0x0 KECCAK256 PUSH1 0x0 DUP6 DUP2 MSTORE PUSH1 0x20 ADD SWAP1 DUP2 MSTORE PUSH1 0x20 ADD PUSH1 0x0 KECCAK256 PUSH1 0x0 DUP5 DUP2 MSTORE PUSH1 0x20 ADD SWAP1 DUP2 MSTORE PUSH1 0x20 ADD PUSH1 0x0 KECCAK256 PUSH1 0x7 ADD SLOAD LT PUSH2 0x593 JUMPI PUSH1 0x40 MLOAD PUSH32 0x8C379A000000000000000000000000000000000000000000000000000000000 DUP2 MSTORE PUSH1 0x4 ADD PUSH2 0x58A SWAP1 PUSH2 0xF85 JUMP JUMPDEST PUSH1 0x40 MLOAD DUP1 SWAP2 SUB SWAP1 REVERT JUMPDEST PUSH1 0x0 DUP1 PUSH1 0x0 DUP7 DUP2 MSTORE PUSH1 0x20 ADD SWAP1 DUP2 MSTORE PUSH1 0x20 ADD PUSH1 0x0 KECCAK256 PUSH1 0x0 DUP6 DUP2 MSTORE PUSH1 0x20 ADD SWAP1 DUP2 MSTORE PUSH1 0x20 ADD PUSH1 0x0 KECCAK256 PUSH1 0x0 DUP5 DUP2 MSTORE PUSH1 0x20 ADD SWAP1 DUP2 MSTORE PUSH1 0x20 ADD PUSH1 0x0 KECCAK256 PUSH1 0xB ADD PUSH1 0x0 CALLER PUSH20 0xFFFFFFFFFFFFFFFFFFFFFFFFFFFFFFFFFFFFFFFF AND PUSH20 0xFFFFFFFFFFFFFFFFFFFFFFFFFFFFFFFFFFFFFFFF AND DUP2 MSTORE PUSH1 0x20 ADD SWAP1 DUP2 MSTORE PUSH1 0x20 ADD PUSH1 0x0 KECCAK256 PUSH1 0x0 SWAP1 SLOAD SWAP1 PUSH2 0x100 EXP SWAP1 DIV PUSH1 0xFF AND PUSH1 0xFF AND EQ PUSH2 0x65A JUMPI PUSH1 0x40 MLOAD PUSH32 0x8C379A000000000000000000000000000000000000000000000000000000000 DUP2 MSTORE PUSH1 0x4 ADD PUSH2 0x651 SWAP1 PUSH2 0xEE5 JUMP JUMPDEST PUSH1 0x40 MLOAD DUP1 SWAP2 SUB SWAP1 REVERT JUMPDEST PUSH1 0x1 DUP2 PUSH1 0xFF AND EQ DUP1 PUSH2 0x66F JUMPI POP PUSH1 0x2 DUP2 PUSH1 0xFF AND EQ JUMPDEST PUSH2 0x6AE JUMPI PUSH1 0x40 MLOAD PUSH32 0x8C379A000000000000000000000000000000000000000000000000000000000 DUP2 MSTORE PUSH1 0x4 ADD PUSH2 0x6A5 SWAP1 PUSH2 0xEC5 JUMP JUMPDEST PUSH1 0x40 MLOAD DUP1 SWAP2 SUB SWAP1 REVERT JUMPDEST PUSH1 0x0 DUP1 PUSH1 0x0 DUP7 DUP2 MSTORE PUSH1 0x20 ADD SWAP1 DUP2 MSTORE PUSH1 0x20 ADD PUSH1 0x0 KECCAK256 PUSH1 0x0 DUP6 DUP2 MSTORE PUSH1 0x20 ADD SWAP1 DUP2 MSTORE PUSH1 0x20 ADD PUSH1 0x0 KECCAK256 PUSH1 0x0 DUP5 DUP2 MSTORE PUSH1 0x20 ADD SWAP1 DUP2 MSTORE PUSH1 0x20 ADD PUSH1 0x0 KECCAK256 SWAP1 POP DUP2 DUP2 PUSH1 0xB ADD PUSH1 0x0 CALLER PUSH20 0xFFFFFFFFFFFFFFFFFFFFFFFFFFFFFFFFFFFFFFFF AND PUSH20 0xFFFFFFFFFFFFFFFFFFFFFFFFFFFFFFFFFFFFFFFF AND DUP2 MSTORE PUSH1 0x20 ADD SWAP1 DUP2 MSTORE PUSH1 0x20 ADD PUSH1 0x0 KECCAK256 PUSH1 0x0 PUSH2 0x100 EXP DUP2 SLOAD DUP2 PUSH1 0xFF MUL NOT AND SWAP1 DUP4 PUSH1 0xFF AND MUL OR SWAP1 SSTORE POP PUSH1 0x1 DUP3 PUSH1 0xFF AND EQ ISZERO PUSH2 0x767 JUMPI DUP1 PUSH1 0x8 ADD PUSH1 0x0 DUP2 SLOAD DUP1 SWAP3 SWAP2 SWAP1 PUSH2 0x761 SWAP1 PUSH2 0x113C JUMP JUMPDEST SWAP2 SWAP1 POP SSTORE POP JUMPDEST PUSH1 0x2 DUP3 PUSH1 0xFF AND EQ ISZERO PUSH2 0x78E JUMPI DUP1 PUSH1 0x9 ADD PUSH1 0x0 DUP2 SLOAD DUP1 SWAP3 SWAP2 SWAP1 PUSH2 0x788 SWAP1 PUSH2 0x113C JUMP JUMPDEST SWAP2 SWAP1 POP SSTORE POP JUMPDEST DUP1 PUSH1 0x7 ADD PUSH1 0x0 DUP2 SLOAD DUP1 SWAP3 SWAP2 SWAP1 PUSH2 0x7A3 SWAP1 PUSH2 0x113C JUMP JUMPDEST SWAP2 SWAP1 POP SSTORE POP PUSH32 0x20211B974ADBE11CE3687D51504CE7EF1FCFBB9C00405BA7ACA7B283903F345A DUP6 DUP6 DUP6 CALLER DUP7 PUSH1 0x40 MLOAD PUSH2 0x7DF SWAP6 SWAP5 SWAP4 SWAP3 SWAP2 SWAP1 PUSH2 0x1025 JUMP JUMPDEST PUSH1 0x40 MLOAD DUP1 SWAP2 SUB SWAP1 LOG1 DUP1 PUSH1 0x6 ADD SLOAD DUP2 PUSH1 0x7 ADD SLOAD EQ ISZERO PUSH2 0x8C5 JUMPI DUP1 PUSH1 0x8 ADD SLOAD DUP2 PUSH1 0x9 ADD SLOAD GT ISZERO PUSH2 0x82A JUMPI PUSH1 0x2 DUP2 PUSH1 0xA ADD PUSH1 0x1 PUSH2 0x100 EXP DUP2 SLOAD DUP2 PUSH1 0xFF MUL NOT AND SWAP1 DUP4 PUSH1 0xFF AND MUL OR SWAP1 SSTORE POP PUSH2 0x849 JUMP JUMPDEST PUSH1 0x1 DUP2 PUSH1 0xA ADD PUSH1 0x1 PUSH2 0x100 EXP DUP2 SLOAD DUP2 PUSH1 0xFF MUL NOT AND SWAP1 DUP4 PUSH1 0xFF AND MUL OR SWAP1 SSTORE POP JUMPDEST PUSH1 0x2 DUP2 PUSH1 0x5 ADD PUSH1 0x0 PUSH2 0x100 EXP DUP2 SLOAD DUP2 PUSH1 0xFF MUL NOT AND SWAP1 DUP4 PUSH1 0x2 DUP2 GT ISZERO PUSH2 0x871 JUMPI PUSH2 0x870 PUSH2 0x11B4 JUMP JUMPDEST JUMPDEST MUL OR SWAP1 SSTORE POP PUSH32 0xE59FDBC65A5DD63C529717C2A71D04B136038F05301755DE242DD05990C02814 DUP6 DUP6 DUP6 DUP5 PUSH1 0xA ADD PUSH1 0x1 SWAP1 SLOAD SWAP1 PUSH2 0x100 EXP SWAP1 DIV PUSH1 0xFF AND PUSH1 0x40 MLOAD PUSH2 0x8BC SWAP5 SWAP4 SWAP3 SWAP2 SWAP1 PUSH2 0x1078 JUMP JUMPDEST PUSH1 0x40 MLOAD DUP1 SWAP2 SUB SWAP1 LOG1 JUMPDEST POP POP POP POP POP JUMP JUMPDEST PUSH1 0x0 DUP1 PUSH1 0x0 DUP6 DUP2 MSTORE PUSH1 0x20 ADD SWAP1 DUP2 MSTORE PUSH1 0x20 ADD PUSH1 0x0 KECCAK256 PUSH1 0x0 DUP5 DUP2 MSTORE PUSH1 0x20 ADD SWAP1 DUP2 MSTORE PUSH1 0x20 ADD PUSH1 0x0 KECCAK256 PUSH1 0x0 DUP4 DUP2 MSTORE PUSH1 0x20 ADD SWAP1 DUP2 MSTORE PUSH1 0x20 ADD PUSH1 0x0 KECCAK256 PUSH1 0x7 ADD SLOAD SWAP1 POP SWAP4 SWAP3 POP POP POP JUMP JUMPDEST PUSH1 0x0 DUP1 PUSH1 0x0 DUP6 DUP2 MSTORE PUSH1 0x20 ADD SWAP1 DUP2 MSTORE PUSH1 0x20 ADD PUSH1 0x0 KECCAK256 PUSH1 0x0 DUP5 DUP2 MSTORE PUSH1 0x20 ADD SWAP1 DUP2 MSTORE PUSH1 0x20 ADD PUSH1 0x0 KECCAK256 PUSH1 0x0 DUP4 DUP2 MSTORE PUSH1 0x20 ADD SWAP1 DUP2 MSTORE PUSH1 0x20 ADD PUSH1 0x0 KECCAK256 PUSH1 0x9 ADD SLOAD SWAP1 POP SWAP4 SWAP3 POP POP POP JUMP JUMPDEST PUSH1 0x0 DUP1 PUSH1 0x0 DUP6 DUP2 MSTORE PUSH1 0x20 ADD SWAP1 DUP2 MSTORE PUSH1 0x20 ADD PUSH1 0x0 KECCAK256 PUSH1 0x0 DUP5 DUP2 MSTORE PUSH1 0x20 ADD SWAP1 DUP2 MSTORE PUSH1 0x20 ADD PUSH1 0x0 KECCAK256 PUSH1 0x0 DUP4 DUP2 MSTORE PUSH1 0x20 ADD SWAP1 DUP2 MSTORE PUSH1 0x20 ADD PUSH1 0x0 KECCAK256 PUSH1 0x5 ADD PUSH1 0x0 SWAP1 SLOAD SWAP1 PUSH2 0x100 EXP SWAP1 DIV PUSH1 0xFF AND SWAP1 POP SWAP4 SWAP3 POP POP POP JUMP JUMPDEST PUSH1 0x0 DUP1 PUSH1 0x0 DUP6 DUP2 MSTORE PUSH1 0x20 ADD SWAP1 DUP2 MSTORE PUSH1 0x20 ADD PUSH1 0x0 KECCAK256 PUSH1 0x0 DUP5 DUP2 MSTORE PUSH1 0x20 ADD SWAP1 DUP2 MSTORE PUSH1 0x20 ADD PUSH1 0x0 KECCAK256 PUSH1 0x0 DUP4 DUP2 MSTORE PUSH1 0x20 ADD SWAP1 DUP2 MSTORE PUSH1 0x20 ADD PUSH1 0x0 KECCAK256 PUSH1 0x8 ADD SLOAD SWAP1 POP SWAP4 SWAP3 POP POP POP JUMP JUMPDEST PUSH1 0x1 ISZERO ISZERO PUSH1 0x0 DUP1 DUP8 DUP2 MSTORE PUSH1 0x20 ADD SWAP1 DUP2 MSTORE PUSH1 0x20 ADD PUSH1 0x0 KECCAK256 PUSH1 0x0 DUP7 DUP2 MSTORE PUSH1 0x20 ADD SWAP1 DUP2 MSTORE PUSH1 0x20 ADD PUSH1 0x0 KECCAK256 PUSH1 0x0 DUP6 DUP2 MSTORE PUSH1 0x20 ADD SWAP1 DUP2 MSTORE PUSH1 0x20 ADD PUSH1 0x0 KECCAK256 PUSH1 0xA ADD PUSH1 0x0 SWAP1 SLOAD SWAP1 PUSH2 0x100 EXP SWAP1 DIV PUSH1 0xFF AND ISZERO ISZERO EQ ISZERO PUSH2 0xA71 JUMPI PUSH1 0x40 MLOAD PUSH32 0x8C379A000000000000000000000000000000000000000000000000000000000 DUP2 MSTORE PUSH1 0x4 ADD PUSH2 0xA68 SWAP1 PUSH2 0xFA5 JUMP JUMPDEST PUSH1 0x40 MLOAD DUP1 SWAP2 SUB SWAP1 REVERT JUMPDEST PUSH1 0x0 DUP1 PUSH1 0x0 DUP8 DUP2 MSTORE PUSH1 0x20 ADD SWAP1 DUP2 MSTORE PUSH1 0x20 ADD PUSH1 0x0 KECCAK256 PUSH1 0x0 DUP7 DUP2 MSTORE PUSH1 0x20 ADD SWAP1 DUP2 MSTORE PUSH1 0x20 ADD PUSH1 0x0 KECCAK256 PUSH1 0x0 DUP6 DUP2 MSTORE PUSH1 0x20 ADD SWAP1 DUP2 MSTORE PUSH1 0x20 ADD PUSH1 0x0 KECCAK256 SWAP1 POP CALLER DUP2 PUSH1 0x0 ADD PUSH1 0x0 PUSH2 0x100 EXP DUP2 SLOAD DUP2 PUSH20 0xFFFFFFFFFFFFFFFFFFFFFFFFFFFFFFFFFFFFFFFF MUL NOT AND SWAP1 DUP4 PUSH20 0xFFFFFFFFFFFFFFFFFFFFFFFFFFFFFFFFFFFFFFFF AND MUL OR SWAP1 SSTORE POP DUP3 DUP2 PUSH1 0x1 ADD PUSH1 0x0 PUSH2 0x100 EXP DUP2 SLOAD DUP2 PUSH20 0xFFFFFFFFFFFFFFFFFFFFFFFFFFFFFFFFFFFFFFFF MUL NOT AND SWAP1 DUP4 PUSH20 0xFFFFFFFFFFFFFFFFFFFFFFFFFFFFFFFFFFFFFFFF AND MUL OR SWAP1 SSTORE POP DUP4 DUP2 PUSH1 0x2 ADD DUP2 SWAP1 SSTORE POP DUP5 DUP2 PUSH1 0x3 ADD DUP2 SWAP1 SSTORE POP DUP6 DUP2 PUSH1 0x4 ADD DUP2 SWAP1 SSTORE POP PUSH1 0x1 DUP2 PUSH1 0xA ADD PUSH1 0x0 PUSH2 0x100 EXP DUP2 SLOAD DUP2 PUSH1 0xFF MUL NOT AND SWAP1 DUP4 ISZERO ISZERO MUL OR SWAP1 SSTORE POP PUSH1 0x1 DUP2 PUSH1 0x5 ADD PUSH1 0x0 PUSH2 0x100 EXP DUP2 SLOAD DUP2 PUSH1 0xFF MUL NOT AND SWAP1 DUP4 PUSH1 0x2 DUP2 GT ISZERO PUSH2 0xB8F JUMPI PUSH2 0xB8E PUSH2 0x11B4 JUMP JUMPDEST JUMPDEST MUL OR SWAP1 SSTORE POP DUP2 DUP2 PUSH1 0x6 ADD DUP2 SWAP1 SSTORE POP PUSH32 0xC1617C5BBF96CACE25A096D26CA0A119036155DC519DD9EF0EE51434015A5AC1 DUP7 DUP7 DUP7 DUP7 PUSH1 0x40 MLOAD PUSH2 0xBD2 SWAP5 SWAP4 SWAP3 SWAP2 SWAP1 PUSH2 0xFE0 JUMP JUMPDEST PUSH1 0x40 MLOAD DUP1 SWAP2 SUB SWAP1 LOG1 POP POP POP POP POP POP JUMP JUMPDEST PUSH1 0x0 DUP2 CALLDATALOAD SWAP1 POP PUSH2 0xBF1 DUP2 PUSH2 0x14C0 JUMP JUMPDEST SWAP3 SWAP2 POP POP JUMP JUMPDEST PUSH1 0x0 DUP2 CALLDATALOAD SWAP1 POP PUSH2 0xC06 DUP2 PUSH2 0x14D7 JUMP JUMPDEST SWAP3 SWAP2 POP POP JUMP JUMPDEST PUSH1 0x0 DUP2 CALLDATALOAD SWAP1 POP PUSH2 0xC1B DUP2 PUSH2 0x14EE JUMP JUMPDEST SWAP3 SWAP2 POP POP JUMP JUMPDEST PUSH1 0x0 DUP1 PUSH1 0x0 PUSH1 0x60 DUP5 DUP7 SUB SLT ISZERO PUSH2 0xC3A JUMPI PUSH2 0xC39 PUSH2 0x11E3 JUMP JUMPDEST JUMPDEST PUSH1 0x0 PUSH2 0xC48 DUP7 DUP3 DUP8 ADD PUSH2 0xBF7 JUMP JUMPDEST SWAP4 POP POP PUSH1 0x20 PUSH2 0xC59 DUP7 DUP3 DUP8 ADD PUSH2 0xBF7 JUMP JUMPDEST SWAP3 POP POP PUSH1 0x40 PUSH2 0xC6A DUP7 DUP3 DUP8 ADD PUSH2 0xBF7 JUMP JUMPDEST SWAP2 POP POP SWAP3 POP SWAP3 POP SWAP3 JUMP JUMPDEST PUSH1 0x0 DUP1 PUSH1 0x0 DUP1 PUSH1 0x0 PUSH1 0xA0 DUP7 DUP9 SUB SLT ISZERO PUSH2 0xC90 JUMPI PUSH2 0xC8F PUSH2 0x11E3 JUMP JUMPDEST JUMPDEST PUSH1 0x0 PUSH2 0xC9E DUP9 DUP3 DUP10 ADD PUSH2 0xBF7 JUMP JUMPDEST SWAP6 POP POP PUSH1 0x20 PUSH2 0xCAF DUP9 DUP3 DUP10 ADD PUSH2 0xBF7 JUMP JUMPDEST SWAP5 POP POP PUSH1 0x40 PUSH2 0xCC0 DUP9 DUP3 DUP10 ADD PUSH2 0xBF7 JUMP JUMPDEST SWAP4 POP POP PUSH1 0x60 PUSH2 0xCD1 DUP9 DUP3 DUP10 ADD PUSH2 0xBE2 JUMP JUMPDEST SWAP3 POP POP PUSH1 0x80 PUSH2 0xCE2 DUP9 DUP3 DUP10 ADD PUSH2 0xBF7 JUMP JUMPDEST SWAP2 POP POP SWAP3 SWAP6 POP SWAP3 SWAP6 SWAP1 SWAP4 POP JUMP JUMPDEST PUSH1 0x0 DUP1 PUSH1 0x0 DUP1 PUSH1 0x80 DUP6 DUP8 SUB SLT ISZERO PUSH2 0xD09 JUMPI PUSH2 0xD08 PUSH2 0x11E3 JUMP JUMPDEST JUMPDEST PUSH1 0x0 PUSH2 0xD17 DUP8 DUP3 DUP9 ADD PUSH2 0xBF7 JUMP JUMPDEST SWAP5 POP POP PUSH1 0x20 PUSH2 0xD28 DUP8 DUP3 DUP9 ADD PUSH2 0xBF7 JUMP JUMPDEST SWAP4 POP POP PUSH1 0x40 PUSH2 0xD39 DUP8 DUP3 DUP9 ADD PUSH2 0xBF7 JUMP JUMPDEST SWAP3 POP POP PUSH1 0x60 PUSH2 0xD4A DUP8 DUP3 DUP9 ADD PUSH2 0xC0C JUMP JUMPDEST SWAP2 POP POP SWAP3 SWAP6 SWAP2 SWAP5 POP SWAP3 POP JUMP JUMPDEST PUSH2 0xD5F DUP2 PUSH2 0x10CE JUMP JUMPDEST DUP3 MSTORE POP POP JUMP JUMPDEST PUSH2 0xD6E DUP2 PUSH2 0x112A JUMP JUMPDEST DUP3 MSTORE POP POP JUMP JUMPDEST PUSH1 0x0 PUSH2 0xD81 PUSH1 0x57 DUP4 PUSH2 0x10BD JUMP JUMPDEST SWAP2 POP PUSH2 0xD8C DUP3 PUSH2 0x11E8 JUMP JUMPDEST PUSH1 0x60 DUP3 ADD SWAP1 POP SWAP2 SWAP1 POP JUMP JUMPDEST PUSH1 0x0 PUSH2 0xDA4 PUSH1 0x2D DUP4 PUSH2 0x10BD JUMP JUMPDEST SWAP2 POP PUSH2 0xDAF DUP3 PUSH2 0x125D JUMP JUMPDEST PUSH1 0x40 DUP3 ADD SWAP1 POP SWAP2 SWAP1 POP JUMP JUMPDEST PUSH1 0x0 PUSH2 0xDC7 PUSH1 0x30 DUP4 PUSH2 0x10BD JUMP JUMPDEST SWAP2 POP PUSH2 0xDD2 DUP3 PUSH2 0x12AC JUMP JUMPDEST PUSH1 0x40 DUP3 ADD SWAP1 POP SWAP2 SWAP1 POP JUMP JUMPDEST PUSH1 0x0 PUSH2 0xDEA PUSH1 0x3D DUP4 PUSH2 0x10BD JUMP JUMPDEST SWAP2 POP PUSH2 0xDF5 DUP3 PUSH2 0x12FB JUMP JUMPDEST PUSH1 0x40 DUP3 ADD SWAP1 POP SWAP2 SWAP1 POP JUMP JUMPDEST PUSH1 0x0 PUSH2 0xE0D PUSH1 0x4A DUP4 PUSH2 0x10BD JUMP JUMPDEST SWAP2 POP PUSH2 0xE18 DUP3 PUSH2 0x134A JUMP JUMPDEST PUSH1 0x60 DUP3 ADD SWAP1 POP SWAP2 SWAP1 POP JUMP JUMPDEST PUSH1 0x0 PUSH2 0xE30 PUSH1 0x39 DUP4 PUSH2 0x10BD JUMP JUMPDEST SWAP2 POP PUSH2 0xE3B DUP3 PUSH2 0x13BF JUMP JUMPDEST PUSH1 0x40 DUP3 ADD SWAP1 POP SWAP2 SWAP1 POP JUMP JUMPDEST PUSH1 0x0 PUSH2 0xE53 PUSH1 0x20 DUP4 PUSH2 0x10BD JUMP JUMPDEST SWAP2 POP PUSH2 0xE5E DUP3 PUSH2 0x140E JUMP JUMPDEST PUSH1 0x20 DUP3 ADD SWAP1 POP SWAP2 SWAP1 POP JUMP JUMPDEST PUSH1 0x0 PUSH2 0xE76 PUSH1 0x4D DUP4 PUSH2 0x10BD JUMP JUMPDEST SWAP2 POP PUSH2 0xE81 DUP3 PUSH2 0x1437 JUMP JUMPDEST PUSH1 0x60 DUP3 ADD SWAP1 POP SWAP2 SWAP1 POP JUMP JUMPDEST PUSH2 0xE95 DUP2 PUSH2 0x1113 JUMP JUMPDEST DUP3 MSTORE POP POP JUMP JUMPDEST PUSH2 0xEA4 DUP2 PUSH2 0x111D JUMP JUMPDEST DUP3 MSTORE POP POP JUMP JUMPDEST PUSH1 0x0 PUSH1 0x20 DUP3 ADD SWAP1 POP PUSH2 0xEBF PUSH1 0x0 DUP4 ADD DUP5 PUSH2 0xD65 JUMP JUMPDEST SWAP3 SWAP2 POP POP JUMP JUMPDEST PUSH1 0x0 PUSH1 0x20 DUP3 ADD SWAP1 POP DUP2 DUP2 SUB PUSH1 0x0 DUP4 ADD MSTORE PUSH2 0xEDE DUP2 PUSH2 0xD74 JUMP JUMPDEST SWAP1 POP SWAP2 SWAP1 POP JUMP JUMPDEST PUSH1 0x0 PUSH1 0x20 DUP3 ADD SWAP1 POP DUP2 DUP2 SUB PUSH1 0x0 DUP4 ADD MSTORE PUSH2 0xEFE DUP2 PUSH2 0xD97 JUMP JUMPDEST SWAP1 POP SWAP2 SWAP1 POP JUMP JUMPDEST PUSH1 0x0 PUSH1 0x20 DUP3 ADD SWAP1 POP DUP2 DUP2 SUB PUSH1 0x0 DUP4 ADD MSTORE PUSH2 0xF1E DUP2 PUSH2 0xDBA JUMP JUMPDEST SWAP1 POP SWAP2 SWAP1 POP JUMP JUMPDEST PUSH1 0x0 PUSH1 0x20 DUP3 ADD SWAP1 POP DUP2 DUP2 SUB PUSH1 0x0 DUP4 ADD MSTORE PUSH2 0xF3E DUP2 PUSH2 0xDDD JUMP JUMPDEST SWAP1 POP SWAP2 SWAP1 POP JUMP JUMPDEST PUSH1 0x0 PUSH1 0x20 DUP3 ADD SWAP1 POP DUP2 DUP2 SUB PUSH1 0x0 DUP4 ADD MSTORE PUSH2 0xF5E DUP2 PUSH2 0xE00 JUMP JUMPDEST SWAP1 POP SWAP2 SWAP1 POP JUMP JUMPDEST PUSH1 0x0 PUSH1 0x20 DUP3 ADD SWAP1 POP DUP2 DUP2 SUB PUSH1 0x0 DUP4 ADD MSTORE PUSH2 0xF7E DUP2 PUSH2 0xE23 JUMP JUMPDEST SWAP1 POP SWAP2 SWAP1 POP JUMP JUMPDEST PUSH1 0x0 PUSH1 0x20 DUP3 ADD SWAP1 POP DUP2 DUP2 SUB PUSH1 0x0 DUP4 ADD MSTORE PUSH2 0xF9E DUP2 PUSH2 0xE46 JUMP JUMPDEST SWAP1 POP SWAP2 SWAP1 POP JUMP JUMPDEST PUSH1 0x0 PUSH1 0x20 DUP3 ADD SWAP1 POP DUP2 DUP2 SUB PUSH1 0x0 DUP4 ADD MSTORE PUSH2 0xFBE DUP2 PUSH2 0xE69 JUMP JUMPDEST SWAP1 POP SWAP2 SWAP1 POP JUMP JUMPDEST PUSH1 0x0 PUSH1 0x20 DUP3 ADD SWAP1 POP PUSH2 0xFDA PUSH1 0x0 DUP4 ADD DUP5 PUSH2 0xE8C JUMP JUMPDEST SWAP3 SWAP2 POP POP JUMP JUMPDEST PUSH1 0x0 PUSH1 0x80 DUP3 ADD SWAP1 POP PUSH2 0xFF5 PUSH1 0x0 DUP4 ADD DUP8 PUSH2 0xE8C JUMP JUMPDEST PUSH2 0x1002 PUSH1 0x20 DUP4 ADD DUP7 PUSH2 0xE8C JUMP JUMPDEST PUSH2 0x100F PUSH1 0x40 DUP4 ADD DUP6 PUSH2 0xE8C JUMP JUMPDEST PUSH2 0x101C PUSH1 0x60 DUP4 ADD DUP5 PUSH2 0xD56 JUMP JUMPDEST SWAP6 SWAP5 POP POP POP POP POP JUMP JUMPDEST PUSH1 0x0 PUSH1 0xA0 DUP3 ADD SWAP1 POP PUSH2 0x103A PUSH1 0x0 DUP4 ADD DUP9 PUSH2 0xE8C JUMP JUMPDEST PUSH2 0x1047 PUSH1 0x20 DUP4 ADD DUP8 PUSH2 0xE8C JUMP JUMPDEST PUSH2 0x1054 PUSH1 0x40 DUP4 ADD DUP7 PUSH2 0xE8C JUMP JUMPDEST PUSH2 0x1061 PUSH1 0x60 DUP4 ADD DUP6 PUSH2 0xD56 JUMP JUMPDEST PUSH2 0x106E PUSH1 0x80 DUP4 ADD DUP5 PUSH2 0xE9B JUMP JUMPDEST SWAP7 SWAP6 POP POP POP POP POP POP JUMP JUMPDEST PUSH1 0x0 PUSH1 0x80 DUP3 ADD SWAP1 POP PUSH2 0x108D PUSH1 0x0 DUP4 ADD DUP8 PUSH2 0xE8C JUMP JUMPDEST PUSH2 0x109A PUSH1 0x20 DUP4 ADD DUP7 PUSH2 0xE8C JUMP JUMPDEST PUSH2 0x10A7 PUSH1 0x40 DUP4 ADD DUP6 PUSH2 0xE8C JUMP JUMPDEST PUSH2 0x10B4 PUSH1 0x60 DUP4 ADD DUP5 PUSH2 0xE9B JUMP JUMPDEST SWAP6 SWAP5 POP POP POP POP POP JUMP JUMPDEST PUSH1 0x0 DUP3 DUP3 MSTORE PUSH1 0x20 DUP3 ADD SWAP1 POP SWAP3 SWAP2 POP POP JUMP JUMPDEST PUSH1 0x0 PUSH2 0x10D9 DUP3 PUSH2 0x10F3 JUMP JUMPDEST SWAP1 POP SWAP2 SWAP1 POP JUMP JUMPDEST PUSH1 0x0 DUP2 SWAP1 POP PUSH2 0x10EE DUP3 PUSH2 0x14AC JUMP JUMPDEST SWAP2 SWAP1 POP JUMP JUMPDEST PUSH1 0x0 PUSH20 0xFFFFFFFFFFFFFFFFFFFFFFFFFFFFFFFFFFFFFFFF DUP3 AND SWAP1 POP SWAP2 SWAP1 POP JUMP JUMPDEST PUSH1 0x0 DUP2 SWAP1 POP SWAP2 SWAP1 POP JUMP JUMPDEST PUSH1 0x0 PUSH1 0xFF DUP3 AND SWAP1 POP SWAP2 SWAP1 POP JUMP JUMPDEST PUSH1 0x0 PUSH2 0x1135 DUP3 PUSH2 0x10E0 JUMP JUMPDEST SWAP1 POP SWAP2 SWAP1 POP JUMP JUMPDEST PUSH1 0x0 PUSH2 0x1147 DUP3 PUSH2 0x1113 JUMP JUMPDEST SWAP2 POP PUSH32 0xFFFFFFFFFFFFFFFFFFFFFFFFFFFFFFFFFFFFFFFFFFFFFFFFFFFFFFFFFFFFFFFF DUP3 EQ ISZERO PUSH2 0x117A JUMPI PUSH2 0x1179 PUSH2 0x1185 JUMP JUMPDEST JUMPDEST PUSH1 0x1 DUP3 ADD SWAP1 POP SWAP2 SWAP1 POP JUMP JUMPDEST PUSH32 0x4E487B7100000000000000000000000000000000000000000000000000000000 PUSH1 0x0 MSTORE PUSH1 0x11 PUSH1 0x4 MSTORE PUSH1 0x24 PUSH1 0x0 REVERT JUMPDEST PUSH32 0x4E487B7100000000000000000000000000000000000000000000000000000000 PUSH1 0x0 MSTORE PUSH1 0x21 PUSH1 0x4 MSTORE PUSH1 0x24 PUSH1 0x0 REVERT JUMPDEST PUSH1 0x0 DUP1 REVERT JUMPDEST PUSH32 0x596F752068617665206E6F7420696E707574206120726967687420766F74652E PUSH1 0x0 DUP3 ADD MSTORE PUSH32 0x20596F752063616E2065697468657220766F7465203120666F72205265717565 PUSH1 0x20 DUP3 ADD MSTORE PUSH32 0x73746572206F72203220666F722050726F76696465722E000000000000000000 PUSH1 0x40 DUP3 ADD MSTORE POP JUMP JUMPDEST PUSH32 0x596F75206861766520616C726561647920766F7465642C20796F752063616E6E PUSH1 0x0 DUP3 ADD MSTORE PUSH32 0x6F7420766F746520616761696E00000000000000000000000000000000000000 PUSH1 0x20 DUP3 ADD MSTORE POP JUMP JUMPDEST PUSH32 0x596F7520726169736564207468697320636F6E666C6963742E20596F75206361 PUSH1 0x0 DUP3 ADD MSTORE PUSH32 0x6E6E6F7420766F7465206F6E2069742E00000000000000000000000000000000 PUSH1 0x20 DUP3 ADD MSTORE POP JUMP JUMPDEST PUSH32 0x566F74696E6720686173206E6F74206265656E20636F6D706C65746564207965 PUSH1 0x0 DUP3 ADD MSTORE PUSH32 0x742E20506C65617365207761697420666F7220697420746F20656E642E000000 PUSH1 0x20 DUP3 ADD MSTORE POP JUMP JUMPDEST PUSH32 0x4E6F742065766572796F6E652068617320766F7465642C20706C656173652070 PUSH1 0x0 DUP3 ADD MSTORE PUSH32 0x726F6D707420616C6C206F74686572206D656D62657273206F662070726F6A65 PUSH1 0x20 DUP3 ADD MSTORE PUSH32 0x637420746F20766F746500000000000000000000000000000000000000000000 PUSH1 0x40 DUP3 ADD MSTORE POP JUMP JUMPDEST PUSH32 0x596F752061726520696E766F6C76656420696E207468697320636F6E666C6963 PUSH1 0x0 DUP3 ADD MSTORE PUSH32 0x742E20596F752063616E6E6F7420766F7465206F6E2069742E00000000000000 PUSH1 0x20 DUP3 ADD MSTORE POP JUMP JUMPDEST PUSH32 0x456E6F75676820766F7465732068617665206265656E20636F6C6C6563746564 PUSH1 0x0 DUP3 ADD MSTORE POP JUMP JUMPDEST PUSH32 0x436F6E666C6963742068617320616C7265616479206265656E20637265617465 PUSH1 0x0 DUP3 ADD MSTORE PUSH32 0x642E20506C6561736520646F206E6F7420637265617465206D6F726520746861 PUSH1 0x20 DUP3 ADD MSTORE PUSH32 0x6E203120636F6E666C6963742E00000000000000000000000000000000000000 PUSH1 0x40 DUP3 ADD MSTORE POP JUMP JUMPDEST PUSH1 0x3 DUP2 LT PUSH2 0x14BD JUMPI PUSH2 0x14BC PUSH2 0x11B4 JUMP JUMPDEST JUMPDEST POP JUMP JUMPDEST PUSH2 0x14C9 DUP2 PUSH2 0x10CE JUMP JUMPDEST DUP2 EQ PUSH2 0x14D4 JUMPI PUSH1 0x0 DUP1 REVERT JUMPDEST POP JUMP JUMPDEST PUSH2 0x14E0 DUP2 PUSH2 0x1113 JUMP JUMPDEST DUP2 EQ PUSH2 0x14EB JUMPI PUSH1 0x0 DUP1 REVERT JUMPDEST POP JUMP JUMPDEST PUSH2 0x14F7 DUP2 PUSH2 0x111D JUMP JUMPDEST DUP2 EQ PUSH2 0x1502 JUMPI PUSH1 0x0 DUP1 REVERT JUMPDEST POP JUMP INVALID LOG2 PUSH5 0x6970667358 0x22 SLT KECCAK256 DUP4 DUP3 XOR RETURN OR PUSH2 0x1703 0x1E 0xB8 0xC9 0xD1 0xCD TIMESTAMP DUP10 PC 0x21 0xCF 0xD9 SLOAD PUSH28 0x39BCBF639C4A34E7BA457664736F6C63430008070033000000000000 "
		},
		"gasEstimates": {
			"creation": {
				"codeDepositCost": "1087000",
				"executionCost": "1127",
				"totalCost": "1088127"
			},
			"external": {
				"createConflict(uint256,uint256,uint256,address,uint256)": "infinite",
				"getConflictStatus(uint256,uint256,uint256)": "infinite",
				"getResults(uint256,uint256,uint256)": "infinite",
				"getVotesCollected(uint256,uint256,uint256)": "infinite",
				"getVotesforProvider(uint256,uint256,uint256)": "infinite",
				"getVotesforRequester(uint256,uint256,uint256)": "infinite",
				"voteConflict(uint256,uint256,uint256,uint8)": "infinite"
			}
		},
		"methodIdentifiers": {
			"createConflict(uint256,uint256,uint256,address,uint256)": "fe074c11",
			"getConflictStatus(uint256,uint256,uint256)": "cb4389ce",
			"getResults(uint256,uint256,uint256)": "0366cef2",
			"getVotesCollected(uint256,uint256,uint256)": "3c45fe31",
			"getVotesforProvider(uint256,uint256,uint256)": "9ac78879",
			"getVotesforRequester(uint256,uint256,uint256)": "e3d87718",
			"voteConflict(uint256,uint256,uint256,uint8)": "153d0194"
		}
	},
	"abi": [
		{
			"anonymous": false,
			"inputs": [
				{
					"indexed": false,
					"internalType": "uint256",
					"name": "projectid",
					"type": "uint256"
				},
				{
					"indexed": false,
					"internalType": "uint256",
					"name": "serviceid",
					"type": "uint256"
				},
				{
					"indexed": false,
					"internalType": "uint256",
					"name": "milestoneid",
					"type": "uint256"
				},
				{
					"indexed": false,
					"internalType": "address",
					"name": "serviceProvider",
					"type": "address"
				}
			],
			"name": "conflictRaised",
			"type": "event"
		},
		{
			"anonymous": false,
			"inputs": [
				{
					"indexed": false,
					"internalType": "uint256",
					"name": "projectid",
					"type": "uint256"
				},
				{
					"indexed": false,
					"internalType": "uint256",
					"name": "serviceid",
					"type": "uint256"
				},
				{
					"indexed": false,
					"internalType": "uint256",
					"name": "milestoneid",
					"type": "uint256"
				},
				{
					"indexed": false,
					"internalType": "uint8",
					"name": "result",
					"type": "uint8"
				}
			],
			"name": "conflictResult",
			"type": "event"
		},
		{
			"anonymous": false,
			"inputs": [
				{
					"indexed": false,
					"internalType": "uint256",
					"name": "projectid",
					"type": "uint256"
				},
				{
					"indexed": false,
					"internalType": "uint256",
					"name": "serviceid",
					"type": "uint256"
				},
				{
					"indexed": false,
					"internalType": "uint256",
					"name": "milestoneid",
					"type": "uint256"
				},
				{
					"indexed": false,
					"internalType": "address",
					"name": "voter",
					"type": "address"
				},
				{
					"indexed": false,
					"internalType": "uint8",
					"name": "vote",
					"type": "uint8"
				}
			],
			"name": "conflictVoted",
			"type": "event"
		},
		{
			"inputs": [
				{
					"internalType": "uint256",
					"name": "projectid",
					"type": "uint256"
				},
				{
					"internalType": "uint256",
					"name": "serviceid",
					"type": "uint256"
				},
				{
					"internalType": "uint256",
					"name": "milestoneid",
					"type": "uint256"
				},
				{
					"internalType": "address",
					"name": "serviceProvider",
					"type": "address"
				},
				{
					"internalType": "uint256",
					"name": "tot_voters",
					"type": "uint256"
				}
			],
			"name": "createConflict",
			"outputs": [],
			"stateMutability": "nonpayable",
			"type": "function"
		},
		{
			"inputs": [
				{
					"internalType": "uint256",
					"name": "projectid",
					"type": "uint256"
				},
				{
					"internalType": "uint256",
					"name": "serviceid",
					"type": "uint256"
				},
				{
					"internalType": "uint256",
					"name": "milestoneid",
					"type": "uint256"
				}
			],
			"name": "getConflictStatus",
			"outputs": [
				{
					"internalType": "enum ConflictResolution.ConflictStatus",
					"name": "",
					"type": "uint8"
				}
			],
			"stateMutability": "view",
			"type": "function"
		},
		{
			"inputs": [
				{
					"internalType": "uint256",
					"name": "projectid",
					"type": "uint256"
				},
				{
					"internalType": "uint256",
					"name": "serviceid",
					"type": "uint256"
				},
				{
					"internalType": "uint256",
					"name": "milestoneid",
					"type": "uint256"
				}
			],
			"name": "getResults",
			"outputs": [
				{
					"internalType": "uint256",
					"name": "",
					"type": "uint256"
				}
			],
			"stateMutability": "view",
			"type": "function"
		},
		{
			"inputs": [
				{
					"internalType": "uint256",
					"name": "projectid",
					"type": "uint256"
				},
				{
					"internalType": "uint256",
					"name": "serviceid",
					"type": "uint256"
				},
				{
					"internalType": "uint256",
					"name": "milestoneid",
					"type": "uint256"
				}
			],
			"name": "getVotesCollected",
			"outputs": [
				{
					"internalType": "uint256",
					"name": "",
					"type": "uint256"
				}
			],
			"stateMutability": "view",
			"type": "function"
		},
		{
			"inputs": [
				{
					"internalType": "uint256",
					"name": "projectid",
					"type": "uint256"
				},
				{
					"internalType": "uint256",
					"name": "serviceid",
					"type": "uint256"
				},
				{
					"internalType": "uint256",
					"name": "milestoneid",
					"type": "uint256"
				}
			],
			"name": "getVotesforProvider",
			"outputs": [
				{
					"internalType": "uint256",
					"name": "",
					"type": "uint256"
				}
			],
			"stateMutability": "view",
			"type": "function"
		},
		{
			"inputs": [
				{
					"internalType": "uint256",
					"name": "projectid",
					"type": "uint256"
				},
				{
					"internalType": "uint256",
					"name": "serviceid",
					"type": "uint256"
				},
				{
					"internalType": "uint256",
					"name": "milestoneid",
					"type": "uint256"
				}
			],
			"name": "getVotesforRequester",
			"outputs": [
				{
					"internalType": "uint256",
					"name": "",
					"type": "uint256"
				}
			],
			"stateMutability": "view",
			"type": "function"
		},
		{
			"inputs": [
				{
					"internalType": "uint256",
					"name": "projectid",
					"type": "uint256"
				},
				{
					"internalType": "uint256",
					"name": "serviceid",
					"type": "uint256"
				},
				{
					"internalType": "uint256",
					"name": "milestoneid",
					"type": "uint256"
				},
				{
					"internalType": "uint8",
					"name": "vote",
					"type": "uint8"
				}
			],
			"name": "voteConflict",
			"outputs": [],
			"stateMutability": "nonpayable",
			"type": "function"
		}
	]
}