{
	"data": {
		"bytecode": {
			"linkReferences": {},
			"object": "6080604052600060025560006003553480156200001b57600080fd5b50604051620018473803806200184783398181016040528101906200004191906200009f565b806000806101000a81548173ffffffffffffffffffffffffffffffffffffffff021916908373ffffffffffffffffffffffffffffffffffffffff1602179055505062000138565b60008151905062000099816200011e565b92915050565b600060208284031215620000b857620000b762000119565b5b6000620000c88482850162000088565b91505092915050565b6000620000de82620000f9565b9050919050565b6000620000f282620000d1565b9050919050565b600073ffffffffffffffffffffffffffffffffffffffff82169050919050565b600080fd5b6200012981620000e5565b81146200013557600080fd5b50565b6116ff80620001486000396000f3fe608060405234801561001057600080fd5b50600436106100ce5760003560e01c8063b9b6c5d41161008c578063d1e992a711610066578063d1e992a714610233578063e3d877181461024f578063e62fac271461027f578063fd23c4bb1461029b576100ce565b8063b9b6c5d4146101cb578063c171bdf7146101e7578063cb4389ce14610203576100ce565b80623f489f146100d35780630366cef2146100ef5780633c45fe311461011f57806363ef8a501461014f5780639ac788791461016b578063ace731bd1461019b575b600080fd5b6100ed60048036038101906100e89190610ed4565b6102b7565b005b61010960048036038101906101049190610ed4565b61034a565b60405161011691906111f5565b60405180910390f35b61013960048036038101906101349190610ed4565b610403565b60405161014691906111f5565b60405180910390f35b61016960048036038101906101649190610e35565b6104bc565b005b61018560048036038101906101809190610ed4565b610608565b60405161019291906111f5565b60405180910390f35b6101b560048036038101906101b09190610ed4565b6106c1565b6040516101c291906111d3565b60405180910390f35b6101e560048036038101906101e09190610ed4565b61078d565b005b61020160048036038101906101fc9190610f27565b610836565b005b61021d60048036038101906102189190610ed4565b6108d0565b60405161022a91906111b8565b60405180910390f35b61024d60048036038101906102489190610fa2565b610989565b005b61026960048036038101906102649190610ed4565b610a23565b60405161027691906111f5565b60405180910390f35b61029960048036038101906102949190611055565b610adc565b005b6102b560048036038101906102b09190610fa2565b610b7f565b005b60008054906101000a900473ffffffffffffffffffffffffffffffffffffffff1673ffffffffffffffffffffffffffffffffffffffff16623f489f8484846040518463ffffffff1660e01b815260040161031393929190611210565b600060405180830381600087803b15801561032d57600080fd5b505af1158015610341573d6000803e3d6000fd5b50505050505050565b60008060009054906101000a900473ffffffffffffffffffffffffffffffffffffffff1673ffffffffffffffffffffffffffffffffffffffff16630366cef28585856040518463ffffffff1660e01b81526004016103aa93929190611210565b60206040518083038186803b1580156103c257600080fd5b505afa1580156103d6573d6000803e3d6000fd5b505050506040513d601f19601f820116820180604052508101906103fa9190610e08565b90509392505050565b60008060009054906101000a900473ffffffffffffffffffffffffffffffffffffffff1673ffffffffffffffffffffffffffffffffffffffff16633c45fe318585856040518463ffffffff1660e01b815260040161046393929190611210565b60206040518083038186803b15801561047b57600080fd5b505afa15801561048f573d6000803e3d6000fd5b505050506040513d601f19601f820116820180604052508101906104b39190610e08565b90509392505050565b600060016000868152602001908152602001600020600085815260200190815260200160002060006003548152602001908152602001600020905084816000018190555083816001018190555060035481600201819055508281600301908051906020019061052c929190610c5f565b5081816004019080519060200190610545929190610c5f565b5060018160050160006101000a81548160ff02191690831515021790555060008160050160016101000a81548160ff0219169083600681111561058b5761058a6115ae565b5b02179055507f70d8b12d438dd130d28072c77c8047d9697b630b8dcd969123645998ad67d561858560035486866040516105c995949392919061129a565b60405180910390a1600260008154809291906105e490611536565b9190505550600360008154809291906105fc90611536565b91905055505050505050565b60008060009054906101000a900473ffffffffffffffffffffffffffffffffffffffff1673ffffffffffffffffffffffffffffffffffffffff16639ac788798585856040518463ffffffff1660e01b815260040161066893929190611210565b60206040518083038186803b15801561068057600080fd5b505afa158015610694573d6000803e3d6000fd5b505050506040513d601f19601f820116820180604052508101906106b89190610e08565b90509392505050565b606060016000858152602001908152602001600020600084815260200190815260200160002060008381526020019081526020016000206003018054610706906114d3565b80601f0160208091040260200160405190810160405280929190818152602001828054610732906114d3565b801561077f5780601f106107545761010080835404028352916020019161077f565b820191906000526020600020905b81548152906001019060200180831161076257829003601f168201915b505050505090509392505050565b6000600160008581526020019081526020016000206000848152602001908152602001600020600083815260200190815260200160002060050160006101000a81548160ff021916908315150217905550600260008154809291906107f1906114a9565b91905055507f2b2605ee52ace237f72e6005eee79180ea3b6151bd8848a6be5e3c224b8a6ec683838360405161082993929190611210565b60405180910390a1505050565b60008054906101000a900473ffffffffffffffffffffffffffffffffffffffff1673ffffffffffffffffffffffffffffffffffffffff1663c171bdf786868686866040518663ffffffff1660e01b8152600401610897959493929190611247565b600060405180830381600087803b1580156108b157600080fd5b505af11580156108c5573d6000803e3d6000fd5b505050505050505050565b60008060009054906101000a900473ffffffffffffffffffffffffffffffffffffffff1673ffffffffffffffffffffffffffffffffffffffff1663cb4389ce8585856040518463ffffffff1660e01b815260040161093093929190611210565b60206040518083038186803b15801561094857600080fd5b505afa15801561095c573d6000803e3d6000fd5b505050506040513d601f19601f820116820180604052508101906109809190610ddb565b90509392505050565b60008054906101000a900473ffffffffffffffffffffffffffffffffffffffff1673ffffffffffffffffffffffffffffffffffffffff1663d1e992a786868686866040518663ffffffff1660e01b81526004016109ea95949392919061129a565b600060405180830381600087803b158015610a0457600080fd5b505af1158015610a18573d6000803e3d6000fd5b505050505050505050565b60008060009054906101000a900473ffffffffffffffffffffffffffffffffffffffff1673ffffffffffffffffffffffffffffffffffffffff1663e3d877188585856040518463ffffffff1660e01b8152600401610a8393929190611210565b60206040518083038186803b158015610a9b57600080fd5b505afa158015610aaf573d6000803e3d6000fd5b505050506040513d601f19601f82011682018060405250810190610ad39190610e08565b90509392505050565b60008054906101000a900473ffffffffffffffffffffffffffffffffffffffff1673ffffffffffffffffffffffffffffffffffffffff1663e62fac2789898989898989896040518963ffffffff1660e01b8152600401610b439897969594939291906112fb565b600060405180830381600087803b158015610b5d57600080fd5b505af1158015610b71573d6000803e3d6000fd5b505050505050505050505050565b8160016000878152602001908152602001600020600086815260200190815260200160002060008581526020019081526020016000206003019080519060200190610bcb929190610c5f565b508060016000878152602001908152602001600020600086815260200190815260200160002060008581526020019081526020016000206004019080519060200190610c18929190610c5f565b507f8c0d6ff1212c3fbf79bbe6dc1e26cc40c4e137ec5711d4471b16fa121f9335118585858585604051610c5095949392919061129a565b60405180910390a15050505050565b828054610c6b906114d3565b90600052602060002090601f016020900481019282610c8d5760008555610cd4565b82601f10610ca657805160ff1916838001178555610cd4565b82800160010185558215610cd4579182015b82811115610cd3578251825591602001919060010190610cb8565b5b509050610ce19190610ce5565b5090565b5b80821115610cfe576000816000905550600101610ce6565b5090565b6000610d15610d10846113ac565b611387565b905082815260208101848484011115610d3157610d30611640565b5b610d3c848285611467565b509392505050565b600081359050610d5381611674565b92915050565b600081519050610d688161168b565b92915050565b600082601f830112610d8357610d8261163b565b5b8135610d93848260208601610d02565b91505092915050565b600081359050610dab8161169b565b92915050565b600081519050610dc08161169b565b92915050565b600081359050610dd5816116b2565b92915050565b600060208284031215610df157610df061164a565b5b6000610dff84828501610d59565b91505092915050565b600060208284031215610e1e57610e1d61164a565b5b6000610e2c84828501610db1565b91505092915050565b60008060008060808587031215610e4f57610e4e61164a565b5b6000610e5d87828801610d9c565b9450506020610e6e87828801610d9c565b935050604085013567ffffffffffffffff811115610e8f57610e8e611645565b5b610e9b87828801610d6e565b925050606085013567ffffffffffffffff811115610ebc57610ebb611645565b5b610ec887828801610d6e565b91505092959194509250565b600080600060608486031215610eed57610eec61164a565b5b6000610efb86828701610d9c565b9350506020610f0c86828701610d9c565b9250506040610f1d86828701610d9c565b9150509250925092565b600080600080600060a08688031215610f4357610f4261164a565b5b6000610f5188828901610d9c565b9550506020610f6288828901610d9c565b9450506040610f7388828901610d9c565b9350506060610f8488828901610d44565b9250506080610f9588828901610dc6565b9150509295509295909350565b600080600080600060a08688031215610fbe57610fbd61164a565b5b6000610fcc88828901610d9c565b9550506020610fdd88828901610d9c565b9450506040610fee88828901610d9c565b935050606086013567ffffffffffffffff81111561100f5761100e611645565b5b61101b88828901610d6e565b925050608086013567ffffffffffffffff81111561103c5761103b611645565b5b61104888828901610d6e565b9150509295509295909350565b600080600080600080600080610100898b0312156110765761107561164a565b5b60006110848b828c01610d9c565b98505060206110958b828c01610d9c565b97505060406110a68b828c01610d9c565b965050606089013567ffffffffffffffff8111156110c7576110c6611645565b5b6110d38b828c01610d6e565b955050608089013567ffffffffffffffff8111156110f4576110f3611645565b5b6111008b828c01610d6e565b94505060a06111118b828c01610d44565b93505060c06111228b828c01610d44565b92505060e06111338b828c01610d9c565b9150509295985092959890939650565b61114c816113f9565b82525050565b61115b81611455565b82525050565b600061116c826113dd565b61117681856113e8565b9350611186818560208601611476565b61118f8161164f565b840191505092915050565b6111a38161143e565b82525050565b6111b281611448565b82525050565b60006020820190506111cd6000830184611152565b92915050565b600060208201905081810360008301526111ed8184611161565b905092915050565b600060208201905061120a600083018461119a565b92915050565b6000606082019050611225600083018661119a565b611232602083018561119a565b61123f604083018461119a565b949350505050565b600060a08201905061125c600083018861119a565b611269602083018761119a565b611276604083018661119a565b6112836060830185611143565b61129060808301846111a9565b9695505050505050565b600060a0820190506112af600083018861119a565b6112bc602083018761119a565b6112c9604083018661119a565b81810360608301526112db8185611161565b905081810360808301526112ef8184611161565b90509695505050505050565b600061010082019050611311600083018b61119a565b61131e602083018a61119a565b61132b604083018961119a565b818103606083015261133d8188611161565b905081810360808301526113518187611161565b905061136060a0830186611143565b61136d60c0830185611143565b61137a60e083018461119a565b9998505050505050505050565b60006113916113a2565b905061139d8282611505565b919050565b6000604051905090565b600067ffffffffffffffff8211156113c7576113c661160c565b5b6113d08261164f565b9050602081019050919050565b600081519050919050565b600082825260208201905092915050565b60006114048261141e565b9050919050565b600081905061141982611660565b919050565b600073ffffffffffffffffffffffffffffffffffffffff82169050919050565b6000819050919050565b600060ff82169050919050565b60006114608261140b565b9050919050565b82818337600083830152505050565b60005b83811015611494578082015181840152602081019050611479565b838111156114a3576000848401525b50505050565b60006114b48261143e565b915060008214156114c8576114c761157f565b5b600182039050919050565b600060028204905060018216806114eb57607f821691505b602082108114156114ff576114fe6115dd565b5b50919050565b61150e8261164f565b810181811067ffffffffffffffff8211171561152d5761152c61160c565b5b80604052505050565b60006115418261143e565b91507fffffffffffffffffffffffffffffffffffffffffffffffffffffffffffffffff8214156115745761157361157f565b5b600182019050919050565b7f4e487b7100000000000000000000000000000000000000000000000000000000600052601160045260246000fd5b7f4e487b7100000000000000000000000000000000000000000000000000000000600052602160045260246000fd5b7f4e487b7100000000000000000000000000000000000000000000000000000000600052602260045260246000fd5b7f4e487b7100000000000000000000000000000000000000000000000000000000600052604160045260246000fd5b600080fd5b600080fd5b600080fd5b600080fd5b6000601f19601f8301169050919050565b60038110611671576116706115ae565b5b50565b61167d816113f9565b811461168857600080fd5b50565b6003811061169857600080fd5b50565b6116a48161143e565b81146116af57600080fd5b50565b6116bb81611448565b81146116c657600080fd5b5056fea26469706673582212204b470ee603a308b987c383e4aefba43bf7fc9de1756ae8478b026c95deae463c64736f6c63430008070033",
			"opcodes": "PUSH1 0x80 PUSH1 0x40 MSTORE PUSH1 0x0 PUSH1 0x2 SSTORE PUSH1 0x0 PUSH1 0x3 SSTORE CALLVALUE DUP1 ISZERO PUSH3 0x1B JUMPI PUSH1 0x0 DUP1 REVERT JUMPDEST POP PUSH1 0x40 MLOAD PUSH3 0x1847 CODESIZE SUB DUP1 PUSH3 0x1847 DUP4 CODECOPY DUP2 DUP2 ADD PUSH1 0x40 MSTORE DUP2 ADD SWAP1 PUSH3 0x41 SWAP2 SWAP1 PUSH3 0x9F JUMP JUMPDEST DUP1 PUSH1 0x0 DUP1 PUSH2 0x100 EXP DUP2 SLOAD DUP2 PUSH20 0xFFFFFFFFFFFFFFFFFFFFFFFFFFFFFFFFFFFFFFFF MUL NOT AND SWAP1 DUP4 PUSH20 0xFFFFFFFFFFFFFFFFFFFFFFFFFFFFFFFFFFFFFFFF AND MUL OR SWAP1 SSTORE POP POP PUSH3 0x138 JUMP JUMPDEST PUSH1 0x0 DUP2 MLOAD SWAP1 POP PUSH3 0x99 DUP2 PUSH3 0x11E JUMP JUMPDEST SWAP3 SWAP2 POP POP JUMP JUMPDEST PUSH1 0x0 PUSH1 0x20 DUP3 DUP5 SUB SLT ISZERO PUSH3 0xB8 JUMPI PUSH3 0xB7 PUSH3 0x119 JUMP JUMPDEST JUMPDEST PUSH1 0x0 PUSH3 0xC8 DUP5 DUP3 DUP6 ADD PUSH3 0x88 JUMP JUMPDEST SWAP2 POP POP SWAP3 SWAP2 POP POP JUMP JUMPDEST PUSH1 0x0 PUSH3 0xDE DUP3 PUSH3 0xF9 JUMP JUMPDEST SWAP1 POP SWAP2 SWAP1 POP JUMP JUMPDEST PUSH1 0x0 PUSH3 0xF2 DUP3 PUSH3 0xD1 JUMP JUMPDEST SWAP1 POP SWAP2 SWAP1 POP JUMP JUMPDEST PUSH1 0x0 PUSH20 0xFFFFFFFFFFFFFFFFFFFFFFFFFFFFFFFFFFFFFFFF DUP3 AND SWAP1 POP SWAP2 SWAP1 POP JUMP JUMPDEST PUSH1 0x0 DUP1 REVERT JUMPDEST PUSH3 0x129 DUP2 PUSH3 0xE5 JUMP JUMPDEST DUP2 EQ PUSH3 0x135 JUMPI PUSH1 0x0 DUP1 REVERT JUMPDEST POP JUMP JUMPDEST PUSH2 0x16FF DUP1 PUSH3 0x148 PUSH1 0x0 CODECOPY PUSH1 0x0 RETURN INVALID PUSH1 0x80 PUSH1 0x40 MSTORE CALLVALUE DUP1 ISZERO PUSH2 0x10 JUMPI PUSH1 0x0 DUP1 REVERT JUMPDEST POP PUSH1 0x4 CALLDATASIZE LT PUSH2 0xCE JUMPI PUSH1 0x0 CALLDATALOAD PUSH1 0xE0 SHR DUP1 PUSH4 0xB9B6C5D4 GT PUSH2 0x8C JUMPI DUP1 PUSH4 0xD1E992A7 GT PUSH2 0x66 JUMPI DUP1 PUSH4 0xD1E992A7 EQ PUSH2 0x233 JUMPI DUP1 PUSH4 0xE3D87718 EQ PUSH2 0x24F JUMPI DUP1 PUSH4 0xE62FAC27 EQ PUSH2 0x27F JUMPI DUP1 PUSH4 0xFD23C4BB EQ PUSH2 0x29B JUMPI PUSH2 0xCE JUMP JUMPDEST DUP1 PUSH4 0xB9B6C5D4 EQ PUSH2 0x1CB JUMPI DUP1 PUSH4 0xC171BDF7 EQ PUSH2 0x1E7 JUMPI DUP1 PUSH4 0xCB4389CE EQ PUSH2 0x203 JUMPI PUSH2 0xCE JUMP JUMPDEST DUP1 PUSH3 0x3F489F EQ PUSH2 0xD3 JUMPI DUP1 PUSH4 0x366CEF2 EQ PUSH2 0xEF JUMPI DUP1 PUSH4 0x3C45FE31 EQ PUSH2 0x11F JUMPI DUP1 PUSH4 0x63EF8A50 EQ PUSH2 0x14F JUMPI DUP1 PUSH4 0x9AC78879 EQ PUSH2 0x16B JUMPI DUP1 PUSH4 0xACE731BD EQ PUSH2 0x19B JUMPI JUMPDEST PUSH1 0x0 DUP1 REVERT JUMPDEST PUSH2 0xED PUSH1 0x4 DUP1 CALLDATASIZE SUB DUP2 ADD SWAP1 PUSH2 0xE8 SWAP2 SWAP1 PUSH2 0xED4 JUMP JUMPDEST PUSH2 0x2B7 JUMP JUMPDEST STOP JUMPDEST PUSH2 0x109 PUSH1 0x4 DUP1 CALLDATASIZE SUB DUP2 ADD SWAP1 PUSH2 0x104 SWAP2 SWAP1 PUSH2 0xED4 JUMP JUMPDEST PUSH2 0x34A JUMP JUMPDEST PUSH1 0x40 MLOAD PUSH2 0x116 SWAP2 SWAP1 PUSH2 0x11F5 JUMP JUMPDEST PUSH1 0x40 MLOAD DUP1 SWAP2 SUB SWAP1 RETURN JUMPDEST PUSH2 0x139 PUSH1 0x4 DUP1 CALLDATASIZE SUB DUP2 ADD SWAP1 PUSH2 0x134 SWAP2 SWAP1 PUSH2 0xED4 JUMP JUMPDEST PUSH2 0x403 JUMP JUMPDEST PUSH1 0x40 MLOAD PUSH2 0x146 SWAP2 SWAP1 PUSH2 0x11F5 JUMP JUMPDEST PUSH1 0x40 MLOAD DUP1 SWAP2 SUB SWAP1 RETURN JUMPDEST PUSH2 0x169 PUSH1 0x4 DUP1 CALLDATASIZE SUB DUP2 ADD SWAP1 PUSH2 0x164 SWAP2 SWAP1 PUSH2 0xE35 JUMP JUMPDEST PUSH2 0x4BC JUMP JUMPDEST STOP JUMPDEST PUSH2 0x185 PUSH1 0x4 DUP1 CALLDATASIZE SUB DUP2 ADD SWAP1 PUSH2 0x180 SWAP2 SWAP1 PUSH2 0xED4 JUMP JUMPDEST PUSH2 0x608 JUMP JUMPDEST PUSH1 0x40 MLOAD PUSH2 0x192 SWAP2 SWAP1 PUSH2 0x11F5 JUMP JUMPDEST PUSH1 0x40 MLOAD DUP1 SWAP2 SUB SWAP1 RETURN JUMPDEST PUSH2 0x1B5 PUSH1 0x4 DUP1 CALLDATASIZE SUB DUP2 ADD SWAP1 PUSH2 0x1B0 SWAP2 SWAP1 PUSH2 0xED4 JUMP JUMPDEST PUSH2 0x6C1 JUMP JUMPDEST PUSH1 0x40 MLOAD PUSH2 0x1C2 SWAP2 SWAP1 PUSH2 0x11D3 JUMP JUMPDEST PUSH1 0x40 MLOAD DUP1 SWAP2 SUB SWAP1 RETURN JUMPDEST PUSH2 0x1E5 PUSH1 0x4 DUP1 CALLDATASIZE SUB DUP2 ADD SWAP1 PUSH2 0x1E0 SWAP2 SWAP1 PUSH2 0xED4 JUMP JUMPDEST PUSH2 0x78D JUMP JUMPDEST STOP JUMPDEST PUSH2 0x201 PUSH1 0x4 DUP1 CALLDATASIZE SUB DUP2 ADD SWAP1 PUSH2 0x1FC SWAP2 SWAP1 PUSH2 0xF27 JUMP JUMPDEST PUSH2 0x836 JUMP JUMPDEST STOP JUMPDEST PUSH2 0x21D PUSH1 0x4 DUP1 CALLDATASIZE SUB DUP2 ADD SWAP1 PUSH2 0x218 SWAP2 SWAP1 PUSH2 0xED4 JUMP JUMPDEST PUSH2 0x8D0 JUMP JUMPDEST PUSH1 0x40 MLOAD PUSH2 0x22A SWAP2 SWAP1 PUSH2 0x11B8 JUMP JUMPDEST PUSH1 0x40 MLOAD DUP1 SWAP2 SUB SWAP1 RETURN JUMPDEST PUSH2 0x24D PUSH1 0x4 DUP1 CALLDATASIZE SUB DUP2 ADD SWAP1 PUSH2 0x248 SWAP2 SWAP1 PUSH2 0xFA2 JUMP JUMPDEST PUSH2 0x989 JUMP JUMPDEST STOP JUMPDEST PUSH2 0x269 PUSH1 0x4 DUP1 CALLDATASIZE SUB DUP2 ADD SWAP1 PUSH2 0x264 SWAP2 SWAP1 PUSH2 0xED4 JUMP JUMPDEST PUSH2 0xA23 JUMP JUMPDEST PUSH1 0x40 MLOAD PUSH2 0x276 SWAP2 SWAP1 PUSH2 0x11F5 JUMP JUMPDEST PUSH1 0x40 MLOAD DUP1 SWAP2 SUB SWAP1 RETURN JUMPDEST PUSH2 0x299 PUSH1 0x4 DUP1 CALLDATASIZE SUB DUP2 ADD SWAP1 PUSH2 0x294 SWAP2 SWAP1 PUSH2 0x1055 JUMP JUMPDEST PUSH2 0xADC JUMP JUMPDEST STOP JUMPDEST PUSH2 0x2B5 PUSH1 0x4 DUP1 CALLDATASIZE SUB DUP2 ADD SWAP1 PUSH2 0x2B0 SWAP2 SWAP1 PUSH2 0xFA2 JUMP JUMPDEST PUSH2 0xB7F JUMP JUMPDEST STOP JUMPDEST PUSH1 0x0 DUP1 SLOAD SWAP1 PUSH2 0x100 EXP SWAP1 DIV PUSH20 0xFFFFFFFFFFFFFFFFFFFFFFFFFFFFFFFFFFFFFFFF AND PUSH20 0xFFFFFFFFFFFFFFFFFFFFFFFFFFFFFFFFFFFFFFFF AND PUSH3 0x3F489F DUP5 DUP5 DUP5 PUSH1 0x40 MLOAD DUP5 PUSH4 0xFFFFFFFF AND PUSH1 0xE0 SHL DUP2 MSTORE PUSH1 0x4 ADD PUSH2 0x313 SWAP4 SWAP3 SWAP2 SWAP1 PUSH2 0x1210 JUMP JUMPDEST PUSH1 0x0 PUSH1 0x40 MLOAD DUP1 DUP4 SUB DUP2 PUSH1 0x0 DUP8 DUP1 EXTCODESIZE ISZERO DUP1 ISZERO PUSH2 0x32D JUMPI PUSH1 0x0 DUP1 REVERT JUMPDEST POP GAS CALL ISZERO DUP1 ISZERO PUSH2 0x341 JUMPI RETURNDATASIZE PUSH1 0x0 DUP1 RETURNDATACOPY RETURNDATASIZE PUSH1 0x0 REVERT JUMPDEST POP POP POP POP POP POP POP JUMP JUMPDEST PUSH1 0x0 DUP1 PUSH1 0x0 SWAP1 SLOAD SWAP1 PUSH2 0x100 EXP SWAP1 DIV PUSH20 0xFFFFFFFFFFFFFFFFFFFFFFFFFFFFFFFFFFFFFFFF AND PUSH20 0xFFFFFFFFFFFFFFFFFFFFFFFFFFFFFFFFFFFFFFFF AND PUSH4 0x366CEF2 DUP6 DUP6 DUP6 PUSH1 0x40 MLOAD DUP5 PUSH4 0xFFFFFFFF AND PUSH1 0xE0 SHL DUP2 MSTORE PUSH1 0x4 ADD PUSH2 0x3AA SWAP4 SWAP3 SWAP2 SWAP1 PUSH2 0x1210 JUMP JUMPDEST PUSH1 0x20 PUSH1 0x40 MLOAD DUP1 DUP4 SUB DUP2 DUP7 DUP1 EXTCODESIZE ISZERO DUP1 ISZERO PUSH2 0x3C2 JUMPI PUSH1 0x0 DUP1 REVERT JUMPDEST POP GAS STATICCALL ISZERO DUP1 ISZERO PUSH2 0x3D6 JUMPI RETURNDATASIZE PUSH1 0x0 DUP1 RETURNDATACOPY RETURNDATASIZE PUSH1 0x0 REVERT JUMPDEST POP POP POP POP PUSH1 0x40 MLOAD RETURNDATASIZE PUSH1 0x1F NOT PUSH1 0x1F DUP3 ADD AND DUP3 ADD DUP1 PUSH1 0x40 MSTORE POP DUP2 ADD SWAP1 PUSH2 0x3FA SWAP2 SWAP1 PUSH2 0xE08 JUMP JUMPDEST SWAP1 POP SWAP4 SWAP3 POP POP POP JUMP JUMPDEST PUSH1 0x0 DUP1 PUSH1 0x0 SWAP1 SLOAD SWAP1 PUSH2 0x100 EXP SWAP1 DIV PUSH20 0xFFFFFFFFFFFFFFFFFFFFFFFFFFFFFFFFFFFFFFFF AND PUSH20 0xFFFFFFFFFFFFFFFFFFFFFFFFFFFFFFFFFFFFFFFF AND PUSH4 0x3C45FE31 DUP6 DUP6 DUP6 PUSH1 0x40 MLOAD DUP5 PUSH4 0xFFFFFFFF AND PUSH1 0xE0 SHL DUP2 MSTORE PUSH1 0x4 ADD PUSH2 0x463 SWAP4 SWAP3 SWAP2 SWAP1 PUSH2 0x1210 JUMP JUMPDEST PUSH1 0x20 PUSH1 0x40 MLOAD DUP1 DUP4 SUB DUP2 DUP7 DUP1 EXTCODESIZE ISZERO DUP1 ISZERO PUSH2 0x47B JUMPI PUSH1 0x0 DUP1 REVERT JUMPDEST POP GAS STATICCALL ISZERO DUP1 ISZERO PUSH2 0x48F JUMPI RETURNDATASIZE PUSH1 0x0 DUP1 RETURNDATACOPY RETURNDATASIZE PUSH1 0x0 REVERT JUMPDEST POP POP POP POP PUSH1 0x40 MLOAD RETURNDATASIZE PUSH1 0x1F NOT PUSH1 0x1F DUP3 ADD AND DUP3 ADD DUP1 PUSH1 0x40 MSTORE POP DUP2 ADD SWAP1 PUSH2 0x4B3 SWAP2 SWAP1 PUSH2 0xE08 JUMP JUMPDEST SWAP1 POP SWAP4 SWAP3 POP POP POP JUMP JUMPDEST PUSH1 0x0 PUSH1 0x1 PUSH1 0x0 DUP7 DUP2 MSTORE PUSH1 0x20 ADD SWAP1 DUP2 MSTORE PUSH1 0x20 ADD PUSH1 0x0 KECCAK256 PUSH1 0x0 DUP6 DUP2 MSTORE PUSH1 0x20 ADD SWAP1 DUP2 MSTORE PUSH1 0x20 ADD PUSH1 0x0 KECCAK256 PUSH1 0x0 PUSH1 0x3 SLOAD DUP2 MSTORE PUSH1 0x20 ADD SWAP1 DUP2 MSTORE PUSH1 0x20 ADD PUSH1 0x0 KECCAK256 SWAP1 POP DUP5 DUP2 PUSH1 0x0 ADD DUP2 SWAP1 SSTORE POP DUP4 DUP2 PUSH1 0x1 ADD DUP2 SWAP1 SSTORE POP PUSH1 0x3 SLOAD DUP2 PUSH1 0x2 ADD DUP2 SWAP1 SSTORE POP DUP3 DUP2 PUSH1 0x3 ADD SWAP1 DUP1 MLOAD SWAP1 PUSH1 0x20 ADD SWAP1 PUSH2 0x52C SWAP3 SWAP2 SWAP1 PUSH2 0xC5F JUMP JUMPDEST POP DUP2 DUP2 PUSH1 0x4 ADD SWAP1 DUP1 MLOAD SWAP1 PUSH1 0x20 ADD SWAP1 PUSH2 0x545 SWAP3 SWAP2 SWAP1 PUSH2 0xC5F JUMP JUMPDEST POP PUSH1 0x1 DUP2 PUSH1 0x5 ADD PUSH1 0x0 PUSH2 0x100 EXP DUP2 SLOAD DUP2 PUSH1 0xFF MUL NOT AND SWAP1 DUP4 ISZERO ISZERO MUL OR SWAP1 SSTORE POP PUSH1 0x0 DUP2 PUSH1 0x5 ADD PUSH1 0x1 PUSH2 0x100 EXP DUP2 SLOAD DUP2 PUSH1 0xFF MUL NOT AND SWAP1 DUP4 PUSH1 0x6 DUP2 GT ISZERO PUSH2 0x58B JUMPI PUSH2 0x58A PUSH2 0x15AE JUMP JUMPDEST JUMPDEST MUL OR SWAP1 SSTORE POP PUSH32 0x70D8B12D438DD130D28072C77C8047D9697B630B8DCD969123645998AD67D561 DUP6 DUP6 PUSH1 0x3 SLOAD DUP7 DUP7 PUSH1 0x40 MLOAD PUSH2 0x5C9 SWAP6 SWAP5 SWAP4 SWAP3 SWAP2 SWAP1 PUSH2 0x129A JUMP JUMPDEST PUSH1 0x40 MLOAD DUP1 SWAP2 SUB SWAP1 LOG1 PUSH1 0x2 PUSH1 0x0 DUP2 SLOAD DUP1 SWAP3 SWAP2 SWAP1 PUSH2 0x5E4 SWAP1 PUSH2 0x1536 JUMP JUMPDEST SWAP2 SWAP1 POP SSTORE POP PUSH1 0x3 PUSH1 0x0 DUP2 SLOAD DUP1 SWAP3 SWAP2 SWAP1 PUSH2 0x5FC SWAP1 PUSH2 0x1536 JUMP JUMPDEST SWAP2 SWAP1 POP SSTORE POP POP POP POP POP POP JUMP JUMPDEST PUSH1 0x0 DUP1 PUSH1 0x0 SWAP1 SLOAD SWAP1 PUSH2 0x100 EXP SWAP1 DIV PUSH20 0xFFFFFFFFFFFFFFFFFFFFFFFFFFFFFFFFFFFFFFFF AND PUSH20 0xFFFFFFFFFFFFFFFFFFFFFFFFFFFFFFFFFFFFFFFF AND PUSH4 0x9AC78879 DUP6 DUP6 DUP6 PUSH1 0x40 MLOAD DUP5 PUSH4 0xFFFFFFFF AND PUSH1 0xE0 SHL DUP2 MSTORE PUSH1 0x4 ADD PUSH2 0x668 SWAP4 SWAP3 SWAP2 SWAP1 PUSH2 0x1210 JUMP JUMPDEST PUSH1 0x20 PUSH1 0x40 MLOAD DUP1 DUP4 SUB DUP2 DUP7 DUP1 EXTCODESIZE ISZERO DUP1 ISZERO PUSH2 0x680 JUMPI PUSH1 0x0 DUP1 REVERT JUMPDEST POP GAS STATICCALL ISZERO DUP1 ISZERO PUSH2 0x694 JUMPI RETURNDATASIZE PUSH1 0x0 DUP1 RETURNDATACOPY RETURNDATASIZE PUSH1 0x0 REVERT JUMPDEST POP POP POP POP PUSH1 0x40 MLOAD RETURNDATASIZE PUSH1 0x1F NOT PUSH1 0x1F DUP3 ADD AND DUP3 ADD DUP1 PUSH1 0x40 MSTORE POP DUP2 ADD SWAP1 PUSH2 0x6B8 SWAP2 SWAP1 PUSH2 0xE08 JUMP JUMPDEST SWAP1 POP SWAP4 SWAP3 POP POP POP JUMP JUMPDEST PUSH1 0x60 PUSH1 0x1 PUSH1 0x0 DUP6 DUP2 MSTORE PUSH1 0x20 ADD SWAP1 DUP2 MSTORE PUSH1 0x20 ADD PUSH1 0x0 KECCAK256 PUSH1 0x0 DUP5 DUP2 MSTORE PUSH1 0x20 ADD SWAP1 DUP2 MSTORE PUSH1 0x20 ADD PUSH1 0x0 KECCAK256 PUSH1 0x0 DUP4 DUP2 MSTORE PUSH1 0x20 ADD SWAP1 DUP2 MSTORE PUSH1 0x20 ADD PUSH1 0x0 KECCAK256 PUSH1 0x3 ADD DUP1 SLOAD PUSH2 0x706 SWAP1 PUSH2 0x14D3 JUMP JUMPDEST DUP1 PUSH1 0x1F ADD PUSH1 0x20 DUP1 SWAP2 DIV MUL PUSH1 0x20 ADD PUSH1 0x40 MLOAD SWAP1 DUP2 ADD PUSH1 0x40 MSTORE DUP1 SWAP3 SWAP2 SWAP1 DUP2 DUP2 MSTORE PUSH1 0x20 ADD DUP3 DUP1 SLOAD PUSH2 0x732 SWAP1 PUSH2 0x14D3 JUMP JUMPDEST DUP1 ISZERO PUSH2 0x77F JUMPI DUP1 PUSH1 0x1F LT PUSH2 0x754 JUMPI PUSH2 0x100 DUP1 DUP4 SLOAD DIV MUL DUP4 MSTORE SWAP2 PUSH1 0x20 ADD SWAP2 PUSH2 0x77F JUMP JUMPDEST DUP3 ADD SWAP2 SWAP1 PUSH1 0x0 MSTORE PUSH1 0x20 PUSH1 0x0 KECCAK256 SWAP1 JUMPDEST DUP2 SLOAD DUP2 MSTORE SWAP1 PUSH1 0x1 ADD SWAP1 PUSH1 0x20 ADD DUP1 DUP4 GT PUSH2 0x762 JUMPI DUP3 SWAP1 SUB PUSH1 0x1F AND DUP3 ADD SWAP2 JUMPDEST POP POP POP POP POP SWAP1 POP SWAP4 SWAP3 POP POP POP JUMP JUMPDEST PUSH1 0x0 PUSH1 0x1 PUSH1 0x0 DUP6 DUP2 MSTORE PUSH1 0x20 ADD SWAP1 DUP2 MSTORE PUSH1 0x20 ADD PUSH1 0x0 KECCAK256 PUSH1 0x0 DUP5 DUP2 MSTORE PUSH1 0x20 ADD SWAP1 DUP2 MSTORE PUSH1 0x20 ADD PUSH1 0x0 KECCAK256 PUSH1 0x0 DUP4 DUP2 MSTORE PUSH1 0x20 ADD SWAP1 DUP2 MSTORE PUSH1 0x20 ADD PUSH1 0x0 KECCAK256 PUSH1 0x5 ADD PUSH1 0x0 PUSH2 0x100 EXP DUP2 SLOAD DUP2 PUSH1 0xFF MUL NOT AND SWAP1 DUP4 ISZERO ISZERO MUL OR SWAP1 SSTORE POP PUSH1 0x2 PUSH1 0x0 DUP2 SLOAD DUP1 SWAP3 SWAP2 SWAP1 PUSH2 0x7F1 SWAP1 PUSH2 0x14A9 JUMP JUMPDEST SWAP2 SWAP1 POP SSTORE POP PUSH32 0x2B2605EE52ACE237F72E6005EEE79180EA3B6151BD8848A6BE5E3C224B8A6EC6 DUP4 DUP4 DUP4 PUSH1 0x40 MLOAD PUSH2 0x829 SWAP4 SWAP3 SWAP2 SWAP1 PUSH2 0x1210 JUMP JUMPDEST PUSH1 0x40 MLOAD DUP1 SWAP2 SUB SWAP1 LOG1 POP POP POP JUMP JUMPDEST PUSH1 0x0 DUP1 SLOAD SWAP1 PUSH2 0x100 EXP SWAP1 DIV PUSH20 0xFFFFFFFFFFFFFFFFFFFFFFFFFFFFFFFFFFFFFFFF AND PUSH20 0xFFFFFFFFFFFFFFFFFFFFFFFFFFFFFFFFFFFFFFFF AND PUSH4 0xC171BDF7 DUP7 DUP7 DUP7 DUP7 DUP7 PUSH1 0x40 MLOAD DUP7 PUSH4 0xFFFFFFFF AND PUSH1 0xE0 SHL DUP2 MSTORE PUSH1 0x4 ADD PUSH2 0x897 SWAP6 SWAP5 SWAP4 SWAP3 SWAP2 SWAP1 PUSH2 0x1247 JUMP JUMPDEST PUSH1 0x0 PUSH1 0x40 MLOAD DUP1 DUP4 SUB DUP2 PUSH1 0x0 DUP8 DUP1 EXTCODESIZE ISZERO DUP1 ISZERO PUSH2 0x8B1 JUMPI PUSH1 0x0 DUP1 REVERT JUMPDEST POP GAS CALL ISZERO DUP1 ISZERO PUSH2 0x8C5 JUMPI RETURNDATASIZE PUSH1 0x0 DUP1 RETURNDATACOPY RETURNDATASIZE PUSH1 0x0 REVERT JUMPDEST POP POP POP POP POP POP POP POP POP JUMP JUMPDEST PUSH1 0x0 DUP1 PUSH1 0x0 SWAP1 SLOAD SWAP1 PUSH2 0x100 EXP SWAP1 DIV PUSH20 0xFFFFFFFFFFFFFFFFFFFFFFFFFFFFFFFFFFFFFFFF AND PUSH20 0xFFFFFFFFFFFFFFFFFFFFFFFFFFFFFFFFFFFFFFFF AND PUSH4 0xCB4389CE DUP6 DUP6 DUP6 PUSH1 0x40 MLOAD DUP5 PUSH4 0xFFFFFFFF AND PUSH1 0xE0 SHL DUP2 MSTORE PUSH1 0x4 ADD PUSH2 0x930 SWAP4 SWAP3 SWAP2 SWAP1 PUSH2 0x1210 JUMP JUMPDEST PUSH1 0x20 PUSH1 0x40 MLOAD DUP1 DUP4 SUB DUP2 DUP7 DUP1 EXTCODESIZE ISZERO DUP1 ISZERO PUSH2 0x948 JUMPI PUSH1 0x0 DUP1 REVERT JUMPDEST POP GAS STATICCALL ISZERO DUP1 ISZERO PUSH2 0x95C JUMPI RETURNDATASIZE PUSH1 0x0 DUP1 RETURNDATACOPY RETURNDATASIZE PUSH1 0x0 REVERT JUMPDEST POP POP POP POP PUSH1 0x40 MLOAD RETURNDATASIZE PUSH1 0x1F NOT PUSH1 0x1F DUP3 ADD AND DUP3 ADD DUP1 PUSH1 0x40 MSTORE POP DUP2 ADD SWAP1 PUSH2 0x980 SWAP2 SWAP1 PUSH2 0xDDB JUMP JUMPDEST SWAP1 POP SWAP4 SWAP3 POP POP POP JUMP JUMPDEST PUSH1 0x0 DUP1 SLOAD SWAP1 PUSH2 0x100 EXP SWAP1 DIV PUSH20 0xFFFFFFFFFFFFFFFFFFFFFFFFFFFFFFFFFFFFFFFF AND PUSH20 0xFFFFFFFFFFFFFFFFFFFFFFFFFFFFFFFFFFFFFFFF AND PUSH4 0xD1E992A7 DUP7 DUP7 DUP7 DUP7 DUP7 PUSH1 0x40 MLOAD DUP7 PUSH4 0xFFFFFFFF AND PUSH1 0xE0 SHL DUP2 MSTORE PUSH1 0x4 ADD PUSH2 0x9EA SWAP6 SWAP5 SWAP4 SWAP3 SWAP2 SWAP1 PUSH2 0x129A JUMP JUMPDEST PUSH1 0x0 PUSH1 0x40 MLOAD DUP1 DUP4 SUB DUP2 PUSH1 0x0 DUP8 DUP1 EXTCODESIZE ISZERO DUP1 ISZERO PUSH2 0xA04 JUMPI PUSH1 0x0 DUP1 REVERT JUMPDEST POP GAS CALL ISZERO DUP1 ISZERO PUSH2 0xA18 JUMPI RETURNDATASIZE PUSH1 0x0 DUP1 RETURNDATACOPY RETURNDATASIZE PUSH1 0x0 REVERT JUMPDEST POP POP POP POP POP POP POP POP POP JUMP JUMPDEST PUSH1 0x0 DUP1 PUSH1 0x0 SWAP1 SLOAD SWAP1 PUSH2 0x100 EXP SWAP1 DIV PUSH20 0xFFFFFFFFFFFFFFFFFFFFFFFFFFFFFFFFFFFFFFFF AND PUSH20 0xFFFFFFFFFFFFFFFFFFFFFFFFFFFFFFFFFFFFFFFF AND PUSH4 0xE3D87718 DUP6 DUP6 DUP6 PUSH1 0x40 MLOAD DUP5 PUSH4 0xFFFFFFFF AND PUSH1 0xE0 SHL DUP2 MSTORE PUSH1 0x4 ADD PUSH2 0xA83 SWAP4 SWAP3 SWAP2 SWAP1 PUSH2 0x1210 JUMP JUMPDEST PUSH1 0x20 PUSH1 0x40 MLOAD DUP1 DUP4 SUB DUP2 DUP7 DUP1 EXTCODESIZE ISZERO DUP1 ISZERO PUSH2 0xA9B JUMPI PUSH1 0x0 DUP1 REVERT JUMPDEST POP GAS STATICCALL ISZERO DUP1 ISZERO PUSH2 0xAAF JUMPI RETURNDATASIZE PUSH1 0x0 DUP1 RETURNDATACOPY RETURNDATASIZE PUSH1 0x0 REVERT JUMPDEST POP POP POP POP PUSH1 0x40 MLOAD RETURNDATASIZE PUSH1 0x1F NOT PUSH1 0x1F DUP3 ADD AND DUP3 ADD DUP1 PUSH1 0x40 MSTORE POP DUP2 ADD SWAP1 PUSH2 0xAD3 SWAP2 SWAP1 PUSH2 0xE08 JUMP JUMPDEST SWAP1 POP SWAP4 SWAP3 POP POP POP JUMP JUMPDEST PUSH1 0x0 DUP1 SLOAD SWAP1 PUSH2 0x100 EXP SWAP1 DIV PUSH20 0xFFFFFFFFFFFFFFFFFFFFFFFFFFFFFFFFFFFFFFFF AND PUSH20 0xFFFFFFFFFFFFFFFFFFFFFFFFFFFFFFFFFFFFFFFF AND PUSH4 0xE62FAC27 DUP10 DUP10 DUP10 DUP10 DUP10 DUP10 DUP10 DUP10 PUSH1 0x40 MLOAD DUP10 PUSH4 0xFFFFFFFF AND PUSH1 0xE0 SHL DUP2 MSTORE PUSH1 0x4 ADD PUSH2 0xB43 SWAP9 SWAP8 SWAP7 SWAP6 SWAP5 SWAP4 SWAP3 SWAP2 SWAP1 PUSH2 0x12FB JUMP JUMPDEST PUSH1 0x0 PUSH1 0x40 MLOAD DUP1 DUP4 SUB DUP2 PUSH1 0x0 DUP8 DUP1 EXTCODESIZE ISZERO DUP1 ISZERO PUSH2 0xB5D JUMPI PUSH1 0x0 DUP1 REVERT JUMPDEST POP GAS CALL ISZERO DUP1 ISZERO PUSH2 0xB71 JUMPI RETURNDATASIZE PUSH1 0x0 DUP1 RETURNDATACOPY RETURNDATASIZE PUSH1 0x0 REVERT JUMPDEST POP POP POP POP POP POP POP POP POP POP POP POP JUMP JUMPDEST DUP2 PUSH1 0x1 PUSH1 0x0 DUP8 DUP2 MSTORE PUSH1 0x20 ADD SWAP1 DUP2 MSTORE PUSH1 0x20 ADD PUSH1 0x0 KECCAK256 PUSH1 0x0 DUP7 DUP2 MSTORE PUSH1 0x20 ADD SWAP1 DUP2 MSTORE PUSH1 0x20 ADD PUSH1 0x0 KECCAK256 PUSH1 0x0 DUP6 DUP2 MSTORE PUSH1 0x20 ADD SWAP1 DUP2 MSTORE PUSH1 0x20 ADD PUSH1 0x0 KECCAK256 PUSH1 0x3 ADD SWAP1 DUP1 MLOAD SWAP1 PUSH1 0x20 ADD SWAP1 PUSH2 0xBCB SWAP3 SWAP2 SWAP1 PUSH2 0xC5F JUMP JUMPDEST POP DUP1 PUSH1 0x1 PUSH1 0x0 DUP8 DUP2 MSTORE PUSH1 0x20 ADD SWAP1 DUP2 MSTORE PUSH1 0x20 ADD PUSH1 0x0 KECCAK256 PUSH1 0x0 DUP7 DUP2 MSTORE PUSH1 0x20 ADD SWAP1 DUP2 MSTORE PUSH1 0x20 ADD PUSH1 0x0 KECCAK256 PUSH1 0x0 DUP6 DUP2 MSTORE PUSH1 0x20 ADD SWAP1 DUP2 MSTORE PUSH1 0x20 ADD PUSH1 0x0 KECCAK256 PUSH1 0x4 ADD SWAP1 DUP1 MLOAD SWAP1 PUSH1 0x20 ADD SWAP1 PUSH2 0xC18 SWAP3 SWAP2 SWAP1 PUSH2 0xC5F JUMP JUMPDEST POP PUSH32 0x8C0D6FF1212C3FBF79BBE6DC1E26CC40C4E137EC5711D4471B16FA121F933511 DUP6 DUP6 DUP6 DUP6 DUP6 PUSH1 0x40 MLOAD PUSH2 0xC50 SWAP6 SWAP5 SWAP4 SWAP3 SWAP2 SWAP1 PUSH2 0x129A JUMP JUMPDEST PUSH1 0x40 MLOAD DUP1 SWAP2 SUB SWAP1 LOG1 POP POP POP POP POP JUMP JUMPDEST DUP3 DUP1 SLOAD PUSH2 0xC6B SWAP1 PUSH2 0x14D3 JUMP JUMPDEST SWAP1 PUSH1 0x0 MSTORE PUSH1 0x20 PUSH1 0x0 KECCAK256 SWAP1 PUSH1 0x1F ADD PUSH1 0x20 SWAP1 DIV DUP2 ADD SWAP3 DUP3 PUSH2 0xC8D JUMPI PUSH1 0x0 DUP6 SSTORE PUSH2 0xCD4 JUMP JUMPDEST DUP3 PUSH1 0x1F LT PUSH2 0xCA6 JUMPI DUP1 MLOAD PUSH1 0xFF NOT AND DUP4 DUP1 ADD OR DUP6 SSTORE PUSH2 0xCD4 JUMP JUMPDEST DUP3 DUP1 ADD PUSH1 0x1 ADD DUP6 SSTORE DUP3 ISZERO PUSH2 0xCD4 JUMPI SWAP2 DUP3 ADD JUMPDEST DUP3 DUP2 GT ISZERO PUSH2 0xCD3 JUMPI DUP3 MLOAD DUP3 SSTORE SWAP2 PUSH1 0x20 ADD SWAP2 SWAP1 PUSH1 0x1 ADD SWAP1 PUSH2 0xCB8 JUMP JUMPDEST JUMPDEST POP SWAP1 POP PUSH2 0xCE1 SWAP2 SWAP1 PUSH2 0xCE5 JUMP JUMPDEST POP SWAP1 JUMP JUMPDEST JUMPDEST DUP1 DUP3 GT ISZERO PUSH2 0xCFE JUMPI PUSH1 0x0 DUP2 PUSH1 0x0 SWAP1 SSTORE POP PUSH1 0x1 ADD PUSH2 0xCE6 JUMP JUMPDEST POP SWAP1 JUMP JUMPDEST PUSH1 0x0 PUSH2 0xD15 PUSH2 0xD10 DUP5 PUSH2 0x13AC JUMP JUMPDEST PUSH2 0x1387 JUMP JUMPDEST SWAP1 POP DUP3 DUP2 MSTORE PUSH1 0x20 DUP2 ADD DUP5 DUP5 DUP5 ADD GT ISZERO PUSH2 0xD31 JUMPI PUSH2 0xD30 PUSH2 0x1640 JUMP JUMPDEST JUMPDEST PUSH2 0xD3C DUP5 DUP3 DUP6 PUSH2 0x1467 JUMP JUMPDEST POP SWAP4 SWAP3 POP POP POP JUMP JUMPDEST PUSH1 0x0 DUP2 CALLDATALOAD SWAP1 POP PUSH2 0xD53 DUP2 PUSH2 0x1674 JUMP JUMPDEST SWAP3 SWAP2 POP POP JUMP JUMPDEST PUSH1 0x0 DUP2 MLOAD SWAP1 POP PUSH2 0xD68 DUP2 PUSH2 0x168B JUMP JUMPDEST SWAP3 SWAP2 POP POP JUMP JUMPDEST PUSH1 0x0 DUP3 PUSH1 0x1F DUP4 ADD SLT PUSH2 0xD83 JUMPI PUSH2 0xD82 PUSH2 0x163B JUMP JUMPDEST JUMPDEST DUP2 CALLDATALOAD PUSH2 0xD93 DUP5 DUP3 PUSH1 0x20 DUP7 ADD PUSH2 0xD02 JUMP JUMPDEST SWAP2 POP POP SWAP3 SWAP2 POP POP JUMP JUMPDEST PUSH1 0x0 DUP2 CALLDATALOAD SWAP1 POP PUSH2 0xDAB DUP2 PUSH2 0x169B JUMP JUMPDEST SWAP3 SWAP2 POP POP JUMP JUMPDEST PUSH1 0x0 DUP2 MLOAD SWAP1 POP PUSH2 0xDC0 DUP2 PUSH2 0x169B JUMP JUMPDEST SWAP3 SWAP2 POP POP JUMP JUMPDEST PUSH1 0x0 DUP2 CALLDATALOAD SWAP1 POP PUSH2 0xDD5 DUP2 PUSH2 0x16B2 JUMP JUMPDEST SWAP3 SWAP2 POP POP JUMP JUMPDEST PUSH1 0x0 PUSH1 0x20 DUP3 DUP5 SUB SLT ISZERO PUSH2 0xDF1 JUMPI PUSH2 0xDF0 PUSH2 0x164A JUMP JUMPDEST JUMPDEST PUSH1 0x0 PUSH2 0xDFF DUP5 DUP3 DUP6 ADD PUSH2 0xD59 JUMP JUMPDEST SWAP2 POP POP SWAP3 SWAP2 POP POP JUMP JUMPDEST PUSH1 0x0 PUSH1 0x20 DUP3 DUP5 SUB SLT ISZERO PUSH2 0xE1E JUMPI PUSH2 0xE1D PUSH2 0x164A JUMP JUMPDEST JUMPDEST PUSH1 0x0 PUSH2 0xE2C DUP5 DUP3 DUP6 ADD PUSH2 0xDB1 JUMP JUMPDEST SWAP2 POP POP SWAP3 SWAP2 POP POP JUMP JUMPDEST PUSH1 0x0 DUP1 PUSH1 0x0 DUP1 PUSH1 0x80 DUP6 DUP8 SUB SLT ISZERO PUSH2 0xE4F JUMPI PUSH2 0xE4E PUSH2 0x164A JUMP JUMPDEST JUMPDEST PUSH1 0x0 PUSH2 0xE5D DUP8 DUP3 DUP9 ADD PUSH2 0xD9C JUMP JUMPDEST SWAP5 POP POP PUSH1 0x20 PUSH2 0xE6E DUP8 DUP3 DUP9 ADD PUSH2 0xD9C JUMP JUMPDEST SWAP4 POP POP PUSH1 0x40 DUP6 ADD CALLDATALOAD PUSH8 0xFFFFFFFFFFFFFFFF DUP2 GT ISZERO PUSH2 0xE8F JUMPI PUSH2 0xE8E PUSH2 0x1645 JUMP JUMPDEST JUMPDEST PUSH2 0xE9B DUP8 DUP3 DUP9 ADD PUSH2 0xD6E JUMP JUMPDEST SWAP3 POP POP PUSH1 0x60 DUP6 ADD CALLDATALOAD PUSH8 0xFFFFFFFFFFFFFFFF DUP2 GT ISZERO PUSH2 0xEBC JUMPI PUSH2 0xEBB PUSH2 0x1645 JUMP JUMPDEST JUMPDEST PUSH2 0xEC8 DUP8 DUP3 DUP9 ADD PUSH2 0xD6E JUMP JUMPDEST SWAP2 POP POP SWAP3 SWAP6 SWAP2 SWAP5 POP SWAP3 POP JUMP JUMPDEST PUSH1 0x0 DUP1 PUSH1 0x0 PUSH1 0x60 DUP5 DUP7 SUB SLT ISZERO PUSH2 0xEED JUMPI PUSH2 0xEEC PUSH2 0x164A JUMP JUMPDEST JUMPDEST PUSH1 0x0 PUSH2 0xEFB DUP7 DUP3 DUP8 ADD PUSH2 0xD9C JUMP JUMPDEST SWAP4 POP POP PUSH1 0x20 PUSH2 0xF0C DUP7 DUP3 DUP8 ADD PUSH2 0xD9C JUMP JUMPDEST SWAP3 POP POP PUSH1 0x40 PUSH2 0xF1D DUP7 DUP3 DUP8 ADD PUSH2 0xD9C JUMP JUMPDEST SWAP2 POP POP SWAP3 POP SWAP3 POP SWAP3 JUMP JUMPDEST PUSH1 0x0 DUP1 PUSH1 0x0 DUP1 PUSH1 0x0 PUSH1 0xA0 DUP7 DUP9 SUB SLT ISZERO PUSH2 0xF43 JUMPI PUSH2 0xF42 PUSH2 0x164A JUMP JUMPDEST JUMPDEST PUSH1 0x0 PUSH2 0xF51 DUP9 DUP3 DUP10 ADD PUSH2 0xD9C JUMP JUMPDEST SWAP6 POP POP PUSH1 0x20 PUSH2 0xF62 DUP9 DUP3 DUP10 ADD PUSH2 0xD9C JUMP JUMPDEST SWAP5 POP POP PUSH1 0x40 PUSH2 0xF73 DUP9 DUP3 DUP10 ADD PUSH2 0xD9C JUMP JUMPDEST SWAP4 POP POP PUSH1 0x60 PUSH2 0xF84 DUP9 DUP3 DUP10 ADD PUSH2 0xD44 JUMP JUMPDEST SWAP3 POP POP PUSH1 0x80 PUSH2 0xF95 DUP9 DUP3 DUP10 ADD PUSH2 0xDC6 JUMP JUMPDEST SWAP2 POP POP SWAP3 SWAP6 POP SWAP3 SWAP6 SWAP1 SWAP4 POP JUMP JUMPDEST PUSH1 0x0 DUP1 PUSH1 0x0 DUP1 PUSH1 0x0 PUSH1 0xA0 DUP7 DUP9 SUB SLT ISZERO PUSH2 0xFBE JUMPI PUSH2 0xFBD PUSH2 0x164A JUMP JUMPDEST JUMPDEST PUSH1 0x0 PUSH2 0xFCC DUP9 DUP3 DUP10 ADD PUSH2 0xD9C JUMP JUMPDEST SWAP6 POP POP PUSH1 0x20 PUSH2 0xFDD DUP9 DUP3 DUP10 ADD PUSH2 0xD9C JUMP JUMPDEST SWAP5 POP POP PUSH1 0x40 PUSH2 0xFEE DUP9 DUP3 DUP10 ADD PUSH2 0xD9C JUMP JUMPDEST SWAP4 POP POP PUSH1 0x60 DUP7 ADD CALLDATALOAD PUSH8 0xFFFFFFFFFFFFFFFF DUP2 GT ISZERO PUSH2 0x100F JUMPI PUSH2 0x100E PUSH2 0x1645 JUMP JUMPDEST JUMPDEST PUSH2 0x101B DUP9 DUP3 DUP10 ADD PUSH2 0xD6E JUMP JUMPDEST SWAP3 POP POP PUSH1 0x80 DUP7 ADD CALLDATALOAD PUSH8 0xFFFFFFFFFFFFFFFF DUP2 GT ISZERO PUSH2 0x103C JUMPI PUSH2 0x103B PUSH2 0x1645 JUMP JUMPDEST JUMPDEST PUSH2 0x1048 DUP9 DUP3 DUP10 ADD PUSH2 0xD6E JUMP JUMPDEST SWAP2 POP POP SWAP3 SWAP6 POP SWAP3 SWAP6 SWAP1 SWAP4 POP JUMP JUMPDEST PUSH1 0x0 DUP1 PUSH1 0x0 DUP1 PUSH1 0x0 DUP1 PUSH1 0x0 DUP1 PUSH2 0x100 DUP10 DUP12 SUB SLT ISZERO PUSH2 0x1076 JUMPI PUSH2 0x1075 PUSH2 0x164A JUMP JUMPDEST JUMPDEST PUSH1 0x0 PUSH2 0x1084 DUP12 DUP3 DUP13 ADD PUSH2 0xD9C JUMP JUMPDEST SWAP9 POP POP PUSH1 0x20 PUSH2 0x1095 DUP12 DUP3 DUP13 ADD PUSH2 0xD9C JUMP JUMPDEST SWAP8 POP POP PUSH1 0x40 PUSH2 0x10A6 DUP12 DUP3 DUP13 ADD PUSH2 0xD9C JUMP JUMPDEST SWAP7 POP POP PUSH1 0x60 DUP10 ADD CALLDATALOAD PUSH8 0xFFFFFFFFFFFFFFFF DUP2 GT ISZERO PUSH2 0x10C7 JUMPI PUSH2 0x10C6 PUSH2 0x1645 JUMP JUMPDEST JUMPDEST PUSH2 0x10D3 DUP12 DUP3 DUP13 ADD PUSH2 0xD6E JUMP JUMPDEST SWAP6 POP POP PUSH1 0x80 DUP10 ADD CALLDATALOAD PUSH8 0xFFFFFFFFFFFFFFFF DUP2 GT ISZERO PUSH2 0x10F4 JUMPI PUSH2 0x10F3 PUSH2 0x1645 JUMP JUMPDEST JUMPDEST PUSH2 0x1100 DUP12 DUP3 DUP13 ADD PUSH2 0xD6E JUMP JUMPDEST SWAP5 POP POP PUSH1 0xA0 PUSH2 0x1111 DUP12 DUP3 DUP13 ADD PUSH2 0xD44 JUMP JUMPDEST SWAP4 POP POP PUSH1 0xC0 PUSH2 0x1122 DUP12 DUP3 DUP13 ADD PUSH2 0xD44 JUMP JUMPDEST SWAP3 POP POP PUSH1 0xE0 PUSH2 0x1133 DUP12 DUP3 DUP13 ADD PUSH2 0xD9C JUMP JUMPDEST SWAP2 POP POP SWAP3 SWAP6 SWAP9 POP SWAP3 SWAP6 SWAP9 SWAP1 SWAP4 SWAP7 POP JUMP JUMPDEST PUSH2 0x114C DUP2 PUSH2 0x13F9 JUMP JUMPDEST DUP3 MSTORE POP POP JUMP JUMPDEST PUSH2 0x115B DUP2 PUSH2 0x1455 JUMP JUMPDEST DUP3 MSTORE POP POP JUMP JUMPDEST PUSH1 0x0 PUSH2 0x116C DUP3 PUSH2 0x13DD JUMP JUMPDEST PUSH2 0x1176 DUP2 DUP6 PUSH2 0x13E8 JUMP JUMPDEST SWAP4 POP PUSH2 0x1186 DUP2 DUP6 PUSH1 0x20 DUP7 ADD PUSH2 0x1476 JUMP JUMPDEST PUSH2 0x118F DUP2 PUSH2 0x164F JUMP JUMPDEST DUP5 ADD SWAP2 POP POP SWAP3 SWAP2 POP POP JUMP JUMPDEST PUSH2 0x11A3 DUP2 PUSH2 0x143E JUMP JUMPDEST DUP3 MSTORE POP POP JUMP JUMPDEST PUSH2 0x11B2 DUP2 PUSH2 0x1448 JUMP JUMPDEST DUP3 MSTORE POP POP JUMP JUMPDEST PUSH1 0x0 PUSH1 0x20 DUP3 ADD SWAP1 POP PUSH2 0x11CD PUSH1 0x0 DUP4 ADD DUP5 PUSH2 0x1152 JUMP JUMPDEST SWAP3 SWAP2 POP POP JUMP JUMPDEST PUSH1 0x0 PUSH1 0x20 DUP3 ADD SWAP1 POP DUP2 DUP2 SUB PUSH1 0x0 DUP4 ADD MSTORE PUSH2 0x11ED DUP2 DUP5 PUSH2 0x1161 JUMP JUMPDEST SWAP1 POP SWAP3 SWAP2 POP POP JUMP JUMPDEST PUSH1 0x0 PUSH1 0x20 DUP3 ADD SWAP1 POP PUSH2 0x120A PUSH1 0x0 DUP4 ADD DUP5 PUSH2 0x119A JUMP JUMPDEST SWAP3 SWAP2 POP POP JUMP JUMPDEST PUSH1 0x0 PUSH1 0x60 DUP3 ADD SWAP1 POP PUSH2 0x1225 PUSH1 0x0 DUP4 ADD DUP7 PUSH2 0x119A JUMP JUMPDEST PUSH2 0x1232 PUSH1 0x20 DUP4 ADD DUP6 PUSH2 0x119A JUMP JUMPDEST PUSH2 0x123F PUSH1 0x40 DUP4 ADD DUP5 PUSH2 0x119A JUMP JUMPDEST SWAP5 SWAP4 POP POP POP POP JUMP JUMPDEST PUSH1 0x0 PUSH1 0xA0 DUP3 ADD SWAP1 POP PUSH2 0x125C PUSH1 0x0 DUP4 ADD DUP9 PUSH2 0x119A JUMP JUMPDEST PUSH2 0x1269 PUSH1 0x20 DUP4 ADD DUP8 PUSH2 0x119A JUMP JUMPDEST PUSH2 0x1276 PUSH1 0x40 DUP4 ADD DUP7 PUSH2 0x119A JUMP JUMPDEST PUSH2 0x1283 PUSH1 0x60 DUP4 ADD DUP6 PUSH2 0x1143 JUMP JUMPDEST PUSH2 0x1290 PUSH1 0x80 DUP4 ADD DUP5 PUSH2 0x11A9 JUMP JUMPDEST SWAP7 SWAP6 POP POP POP POP POP POP JUMP JUMPDEST PUSH1 0x0 PUSH1 0xA0 DUP3 ADD SWAP1 POP PUSH2 0x12AF PUSH1 0x0 DUP4 ADD DUP9 PUSH2 0x119A JUMP JUMPDEST PUSH2 0x12BC PUSH1 0x20 DUP4 ADD DUP8 PUSH2 0x119A JUMP JUMPDEST PUSH2 0x12C9 PUSH1 0x40 DUP4 ADD DUP7 PUSH2 0x119A JUMP JUMPDEST DUP2 DUP2 SUB PUSH1 0x60 DUP4 ADD MSTORE PUSH2 0x12DB DUP2 DUP6 PUSH2 0x1161 JUMP JUMPDEST SWAP1 POP DUP2 DUP2 SUB PUSH1 0x80 DUP4 ADD MSTORE PUSH2 0x12EF DUP2 DUP5 PUSH2 0x1161 JUMP JUMPDEST SWAP1 POP SWAP7 SWAP6 POP POP POP POP POP POP JUMP JUMPDEST PUSH1 0x0 PUSH2 0x100 DUP3 ADD SWAP1 POP PUSH2 0x1311 PUSH1 0x0 DUP4 ADD DUP12 PUSH2 0x119A JUMP JUMPDEST PUSH2 0x131E PUSH1 0x20 DUP4 ADD DUP11 PUSH2 0x119A JUMP JUMPDEST PUSH2 0x132B PUSH1 0x40 DUP4 ADD DUP10 PUSH2 0x119A JUMP JUMPDEST DUP2 DUP2 SUB PUSH1 0x60 DUP4 ADD MSTORE PUSH2 0x133D DUP2 DUP9 PUSH2 0x1161 JUMP JUMPDEST SWAP1 POP DUP2 DUP2 SUB PUSH1 0x80 DUP4 ADD MSTORE PUSH2 0x1351 DUP2 DUP8 PUSH2 0x1161 JUMP JUMPDEST SWAP1 POP PUSH2 0x1360 PUSH1 0xA0 DUP4 ADD DUP7 PUSH2 0x1143 JUMP JUMPDEST PUSH2 0x136D PUSH1 0xC0 DUP4 ADD DUP6 PUSH2 0x1143 JUMP JUMPDEST PUSH2 0x137A PUSH1 0xE0 DUP4 ADD DUP5 PUSH2 0x119A JUMP JUMPDEST SWAP10 SWAP9 POP POP POP POP POP POP POP POP POP JUMP JUMPDEST PUSH1 0x0 PUSH2 0x1391 PUSH2 0x13A2 JUMP JUMPDEST SWAP1 POP PUSH2 0x139D DUP3 DUP3 PUSH2 0x1505 JUMP JUMPDEST SWAP2 SWAP1 POP JUMP JUMPDEST PUSH1 0x0 PUSH1 0x40 MLOAD SWAP1 POP SWAP1 JUMP JUMPDEST PUSH1 0x0 PUSH8 0xFFFFFFFFFFFFFFFF DUP3 GT ISZERO PUSH2 0x13C7 JUMPI PUSH2 0x13C6 PUSH2 0x160C JUMP JUMPDEST JUMPDEST PUSH2 0x13D0 DUP3 PUSH2 0x164F JUMP JUMPDEST SWAP1 POP PUSH1 0x20 DUP2 ADD SWAP1 POP SWAP2 SWAP1 POP JUMP JUMPDEST PUSH1 0x0 DUP2 MLOAD SWAP1 POP SWAP2 SWAP1 POP JUMP JUMPDEST PUSH1 0x0 DUP3 DUP3 MSTORE PUSH1 0x20 DUP3 ADD SWAP1 POP SWAP3 SWAP2 POP POP JUMP JUMPDEST PUSH1 0x0 PUSH2 0x1404 DUP3 PUSH2 0x141E JUMP JUMPDEST SWAP1 POP SWAP2 SWAP1 POP JUMP JUMPDEST PUSH1 0x0 DUP2 SWAP1 POP PUSH2 0x1419 DUP3 PUSH2 0x1660 JUMP JUMPDEST SWAP2 SWAP1 POP JUMP JUMPDEST PUSH1 0x0 PUSH20 0xFFFFFFFFFFFFFFFFFFFFFFFFFFFFFFFFFFFFFFFF DUP3 AND SWAP1 POP SWAP2 SWAP1 POP JUMP JUMPDEST PUSH1 0x0 DUP2 SWAP1 POP SWAP2 SWAP1 POP JUMP JUMPDEST PUSH1 0x0 PUSH1 0xFF DUP3 AND SWAP1 POP SWAP2 SWAP1 POP JUMP JUMPDEST PUSH1 0x0 PUSH2 0x1460 DUP3 PUSH2 0x140B JUMP JUMPDEST SWAP1 POP SWAP2 SWAP1 POP JUMP JUMPDEST DUP3 DUP2 DUP4 CALLDATACOPY PUSH1 0x0 DUP4 DUP4 ADD MSTORE POP POP POP JUMP JUMPDEST PUSH1 0x0 JUMPDEST DUP4 DUP2 LT ISZERO PUSH2 0x1494 JUMPI DUP1 DUP3 ADD MLOAD DUP2 DUP5 ADD MSTORE PUSH1 0x20 DUP2 ADD SWAP1 POP PUSH2 0x1479 JUMP JUMPDEST DUP4 DUP2 GT ISZERO PUSH2 0x14A3 JUMPI PUSH1 0x0 DUP5 DUP5 ADD MSTORE JUMPDEST POP POP POP POP JUMP JUMPDEST PUSH1 0x0 PUSH2 0x14B4 DUP3 PUSH2 0x143E JUMP JUMPDEST SWAP2 POP PUSH1 0x0 DUP3 EQ ISZERO PUSH2 0x14C8 JUMPI PUSH2 0x14C7 PUSH2 0x157F JUMP JUMPDEST JUMPDEST PUSH1 0x1 DUP3 SUB SWAP1 POP SWAP2 SWAP1 POP JUMP JUMPDEST PUSH1 0x0 PUSH1 0x2 DUP3 DIV SWAP1 POP PUSH1 0x1 DUP3 AND DUP1 PUSH2 0x14EB JUMPI PUSH1 0x7F DUP3 AND SWAP2 POP JUMPDEST PUSH1 0x20 DUP3 LT DUP2 EQ ISZERO PUSH2 0x14FF JUMPI PUSH2 0x14FE PUSH2 0x15DD JUMP JUMPDEST JUMPDEST POP SWAP2 SWAP1 POP JUMP JUMPDEST PUSH2 0x150E DUP3 PUSH2 0x164F JUMP JUMPDEST DUP2 ADD DUP2 DUP2 LT PUSH8 0xFFFFFFFFFFFFFFFF DUP3 GT OR ISZERO PUSH2 0x152D JUMPI PUSH2 0x152C PUSH2 0x160C JUMP JUMPDEST JUMPDEST DUP1 PUSH1 0x40 MSTORE POP POP POP JUMP JUMPDEST PUSH1 0x0 PUSH2 0x1541 DUP3 PUSH2 0x143E JUMP JUMPDEST SWAP2 POP PUSH32 0xFFFFFFFFFFFFFFFFFFFFFFFFFFFFFFFFFFFFFFFFFFFFFFFFFFFFFFFFFFFFFFFF DUP3 EQ ISZERO PUSH2 0x1574 JUMPI PUSH2 0x1573 PUSH2 0x157F JUMP JUMPDEST JUMPDEST PUSH1 0x1 DUP3 ADD SWAP1 POP SWAP2 SWAP1 POP JUMP JUMPDEST PUSH32 0x4E487B7100000000000000000000000000000000000000000000000000000000 PUSH1 0x0 MSTORE PUSH1 0x11 PUSH1 0x4 MSTORE PUSH1 0x24 PUSH1 0x0 REVERT JUMPDEST PUSH32 0x4E487B7100000000000000000000000000000000000000000000000000000000 PUSH1 0x0 MSTORE PUSH1 0x21 PUSH1 0x4 MSTORE PUSH1 0x24 PUSH1 0x0 REVERT JUMPDEST PUSH32 0x4E487B7100000000000000000000000000000000000000000000000000000000 PUSH1 0x0 MSTORE PUSH1 0x22 PUSH1 0x4 MSTORE PUSH1 0x24 PUSH1 0x0 REVERT JUMPDEST PUSH32 0x4E487B7100000000000000000000000000000000000000000000000000000000 PUSH1 0x0 MSTORE PUSH1 0x41 PUSH1 0x4 MSTORE PUSH1 0x24 PUSH1 0x0 REVERT JUMPDEST PUSH1 0x0 DUP1 REVERT JUMPDEST PUSH1 0x0 DUP1 REVERT JUMPDEST PUSH1 0x0 DUP1 REVERT JUMPDEST PUSH1 0x0 DUP1 REVERT JUMPDEST PUSH1 0x0 PUSH1 0x1F NOT PUSH1 0x1F DUP4 ADD AND SWAP1 POP SWAP2 SWAP1 POP JUMP JUMPDEST PUSH1 0x3 DUP2 LT PUSH2 0x1671 JUMPI PUSH2 0x1670 PUSH2 0x15AE JUMP JUMPDEST JUMPDEST POP JUMP JUMPDEST PUSH2 0x167D DUP2 PUSH2 0x13F9 JUMP JUMPDEST DUP2 EQ PUSH2 0x1688 JUMPI PUSH1 0x0 DUP1 REVERT JUMPDEST POP JUMP JUMPDEST PUSH1 0x3 DUP2 LT PUSH2 0x1698 JUMPI PUSH1 0x0 DUP1 REVERT JUMPDEST POP JUMP JUMPDEST PUSH2 0x16A4 DUP2 PUSH2 0x143E JUMP JUMPDEST DUP2 EQ PUSH2 0x16AF JUMPI PUSH1 0x0 DUP1 REVERT JUMPDEST POP JUMP JUMPDEST PUSH2 0x16BB DUP2 PUSH2 0x1448 JUMP JUMPDEST DUP2 EQ PUSH2 0x16C6 JUMPI PUSH1 0x0 DUP1 REVERT JUMPDEST POP JUMP INVALID LOG2 PUSH5 0x6970667358 0x22 SLT KECCAK256 0x4B SELFBALANCE 0xE 0xE6 SUB LOG3 ADDMOD 0xB9 DUP8 0xC3 DUP4 0xE4 0xAE 0xFB LOG4 EXTCODESIZE 0xF7 0xFC SWAP14 0xE1 PUSH22 0x6AE8478B026C95DEAE463C64736F6C63430008070033 "
		},
		"gasEstimates": {
			"creation": {
				"codeDepositCost": "1177400",
				"executionCost": "infinite",
				"totalCost": "infinite"
			},
			"external": {
				"createConflict(uint256,uint256,uint256,string,string,address,address,uint256)": "infinite",
				"createMilestone(uint256,uint256,string,string)": "infinite",
				"deleteConflict(uint256,uint256,uint256)": "infinite",
				"deleteMilestone(uint256,uint256,uint256)": "infinite",
				"getConflictStatus(uint256,uint256,uint256)": "infinite",
				"getResults(uint256,uint256,uint256)": "infinite",
				"getVotesCollected(uint256,uint256,uint256)": "infinite",
				"getVotesforProvider(uint256,uint256,uint256)": "infinite",
				"getVotesforRequester(uint256,uint256,uint256)": "infinite",
				"readMilestoneTitle(uint256,uint256,uint256)": "infinite",
				"updateConflict(uint256,uint256,uint256,string,string)": "infinite",
				"updateMilestone(uint256,uint256,uint256,string,string)": "infinite",
				"voteConflict(uint256,uint256,uint256,address,uint8)": "infinite"
			}
		},
		"methodIdentifiers": {
			"createConflict(uint256,uint256,uint256,string,string,address,address,uint256)": "e62fac27",
			"createMilestone(uint256,uint256,string,string)": "63ef8a50",
			"deleteConflict(uint256,uint256,uint256)": "003f489f",
			"deleteMilestone(uint256,uint256,uint256)": "b9b6c5d4",
			"getConflictStatus(uint256,uint256,uint256)": "cb4389ce",
			"getResults(uint256,uint256,uint256)": "0366cef2",
			"getVotesCollected(uint256,uint256,uint256)": "3c45fe31",
			"getVotesforProvider(uint256,uint256,uint256)": "9ac78879",
			"getVotesforRequester(uint256,uint256,uint256)": "e3d87718",
			"readMilestoneTitle(uint256,uint256,uint256)": "ace731bd",
			"updateConflict(uint256,uint256,uint256,string,string)": "d1e992a7",
			"updateMilestone(uint256,uint256,uint256,string,string)": "fd23c4bb",
			"voteConflict(uint256,uint256,uint256,address,uint8)": "c171bdf7"
		}
	},
	"abi": [
		{
			"inputs": [
				{
					"internalType": "contract Conflict",
					"name": "conflictContract",
					"type": "address"
				}
			],
			"stateMutability": "nonpayable",
			"type": "constructor"
		},
		{
			"anonymous": false,
			"inputs": [
				{
					"indexed": false,
					"internalType": "uint256",
					"name": "projectNumber",
					"type": "uint256"
				},
				{
					"indexed": false,
					"internalType": "uint256",
					"name": "serviceNumber",
					"type": "uint256"
				},
				{
					"indexed": false,
					"internalType": "uint256",
					"name": "milestoneNumber",
					"type": "uint256"
				},
				{
					"indexed": false,
					"internalType": "string",
					"name": "title",
					"type": "string"
				},
				{
					"indexed": false,
					"internalType": "string",
					"name": "description",
					"type": "string"
				}
			],
			"name": "milestoneCreated",
			"type": "event"
		},
		{
			"anonymous": false,
			"inputs": [
				{
					"indexed": false,
					"internalType": "uint256",
					"name": "projectNumber",
					"type": "uint256"
				},
				{
					"indexed": false,
					"internalType": "uint256",
					"name": "serviceNumber",
					"type": "uint256"
				},
				{
					"indexed": false,
					"internalType": "uint256",
					"name": "milestoneNumber",
					"type": "uint256"
				}
			],
			"name": "milestoneDeleted",
			"type": "event"
		},
		{
			"anonymous": false,
			"inputs": [
				{
					"indexed": false,
					"internalType": "uint256",
					"name": "projectNumber",
					"type": "uint256"
				},
				{
					"indexed": false,
					"internalType": "uint256",
					"name": "serviceNumber",
					"type": "uint256"
				},
				{
					"indexed": false,
					"internalType": "uint256",
					"name": "milestoneNumber",
					"type": "uint256"
				},
				{
					"indexed": false,
					"internalType": "string",
					"name": "title",
					"type": "string"
				},
				{
					"indexed": false,
					"internalType": "string",
					"name": "description",
					"type": "string"
				}
			],
			"name": "milestoneUpdated",
			"type": "event"
		},
		{
			"inputs": [
				{
					"internalType": "uint256",
					"name": "projectNumber",
					"type": "uint256"
				},
				{
					"internalType": "uint256",
					"name": "serviceNumber",
					"type": "uint256"
				},
				{
					"internalType": "uint256",
					"name": "milestoneNumber",
					"type": "uint256"
				},
				{
					"internalType": "string",
					"name": "title",
					"type": "string"
				},
				{
					"internalType": "string",
					"name": "description",
					"type": "string"
				},
				{
					"internalType": "address",
					"name": "serviceRequester",
					"type": "address"
				},
				{
					"internalType": "address",
					"name": "serviceProvider",
					"type": "address"
				},
				{
					"internalType": "uint256",
					"name": "totalVoters",
					"type": "uint256"
				}
			],
			"name": "createConflict",
			"outputs": [],
			"stateMutability": "nonpayable",
			"type": "function"
		},
		{
			"inputs": [
				{
					"internalType": "uint256",
					"name": "projectNumber",
					"type": "uint256"
				},
				{
					"internalType": "uint256",
					"name": "serviceNumber",
					"type": "uint256"
				},
				{
					"internalType": "string",
					"name": "title",
					"type": "string"
				},
				{
					"internalType": "string",
					"name": "description",
					"type": "string"
				}
			],
			"name": "createMilestone",
			"outputs": [],
			"stateMutability": "nonpayable",
			"type": "function"
		},
		{
			"inputs": [
				{
					"internalType": "uint256",
					"name": "projectNumber",
					"type": "uint256"
				},
				{
					"internalType": "uint256",
					"name": "serviceNumber",
					"type": "uint256"
				},
				{
					"internalType": "uint256",
					"name": "milestoneNumber",
					"type": "uint256"
				}
			],
			"name": "deleteConflict",
			"outputs": [],
			"stateMutability": "nonpayable",
			"type": "function"
		},
		{
			"inputs": [
				{
					"internalType": "uint256",
					"name": "projectNumber",
					"type": "uint256"
				},
				{
					"internalType": "uint256",
					"name": "serviceNumber",
					"type": "uint256"
				},
				{
					"internalType": "uint256",
					"name": "milestoneNumber",
					"type": "uint256"
				}
			],
			"name": "deleteMilestone",
			"outputs": [],
			"stateMutability": "nonpayable",
			"type": "function"
		},
		{
			"inputs": [
				{
					"internalType": "uint256",
					"name": "projectNumber",
					"type": "uint256"
				},
				{
					"internalType": "uint256",
					"name": "serviceNumber",
					"type": "uint256"
				},
				{
					"internalType": "uint256",
					"name": "milestoneNumber",
					"type": "uint256"
				}
			],
			"name": "getConflictStatus",
			"outputs": [
				{
					"internalType": "enum States.ConflictStatus",
					"name": "",
					"type": "uint8"
				}
			],
			"stateMutability": "view",
			"type": "function"
		},
		{
			"inputs": [
				{
					"internalType": "uint256",
					"name": "projectNumber",
					"type": "uint256"
				},
				{
					"internalType": "uint256",
					"name": "serviceNumber",
					"type": "uint256"
				},
				{
					"internalType": "uint256",
					"name": "milestoneNumber",
					"type": "uint256"
				}
			],
			"name": "getResults",
			"outputs": [
				{
					"internalType": "uint256",
					"name": "",
					"type": "uint256"
				}
			],
			"stateMutability": "view",
			"type": "function"
		},
		{
			"inputs": [
				{
					"internalType": "uint256",
					"name": "projectNumber",
					"type": "uint256"
				},
				{
					"internalType": "uint256",
					"name": "serviceNumber",
					"type": "uint256"
				},
				{
					"internalType": "uint256",
					"name": "milestoneNumber",
					"type": "uint256"
				}
			],
			"name": "getVotesCollected",
			"outputs": [
				{
					"internalType": "uint256",
					"name": "",
					"type": "uint256"
				}
			],
			"stateMutability": "view",
			"type": "function"
		},
		{
			"inputs": [
				{
					"internalType": "uint256",
					"name": "projectNumber",
					"type": "uint256"
				},
				{
					"internalType": "uint256",
					"name": "serviceNumber",
					"type": "uint256"
				},
				{
					"internalType": "uint256",
					"name": "milestoneNumber",
					"type": "uint256"
				}
			],
			"name": "getVotesforProvider",
			"outputs": [
				{
					"internalType": "uint256",
					"name": "",
					"type": "uint256"
				}
			],
			"stateMutability": "view",
			"type": "function"
		},
		{
			"inputs": [
				{
					"internalType": "uint256",
					"name": "projectNumber",
					"type": "uint256"
				},
				{
					"internalType": "uint256",
					"name": "serviceNumber",
					"type": "uint256"
				},
				{
					"internalType": "uint256",
					"name": "milestoneNumber",
					"type": "uint256"
				}
			],
			"name": "getVotesforRequester",
			"outputs": [
				{
					"internalType": "uint256",
					"name": "",
					"type": "uint256"
				}
			],
			"stateMutability": "view",
			"type": "function"
		},
		{
			"inputs": [
				{
					"internalType": "uint256",
					"name": "projectNumber",
					"type": "uint256"
				},
				{
					"internalType": "uint256",
					"name": "serviceNumber",
					"type": "uint256"
				},
				{
					"internalType": "uint256",
					"name": "milestoneNumber",
					"type": "uint256"
				}
			],
			"name": "readMilestoneTitle",
			"outputs": [
				{
					"internalType": "string",
					"name": "",
					"type": "string"
				}
			],
			"stateMutability": "view",
			"type": "function"
		},
		{
			"inputs": [
				{
					"internalType": "uint256",
					"name": "projectNumber",
					"type": "uint256"
				},
				{
					"internalType": "uint256",
					"name": "serviceNumber",
					"type": "uint256"
				},
				{
					"internalType": "uint256",
					"name": "milestoneNumber",
					"type": "uint256"
				},
				{
					"internalType": "string",
					"name": "title",
					"type": "string"
				},
				{
					"internalType": "string",
					"name": "description",
					"type": "string"
				}
			],
			"name": "updateConflict",
			"outputs": [],
			"stateMutability": "nonpayable",
			"type": "function"
		},
		{
			"inputs": [
				{
					"internalType": "uint256",
					"name": "projectNumber",
					"type": "uint256"
				},
				{
					"internalType": "uint256",
					"name": "serviceNumber",
					"type": "uint256"
				},
				{
					"internalType": "uint256",
					"name": "milestoneNumber",
					"type": "uint256"
				},
				{
					"internalType": "string",
					"name": "title",
					"type": "string"
				},
				{
					"internalType": "string",
					"name": "description",
					"type": "string"
				}
			],
			"name": "updateMilestone",
			"outputs": [],
			"stateMutability": "nonpayable",
			"type": "function"
		},
		{
			"inputs": [
				{
					"internalType": "uint256",
					"name": "projectNumber",
					"type": "uint256"
				},
				{
					"internalType": "uint256",
					"name": "serviceNumber",
					"type": "uint256"
				},
				{
					"internalType": "uint256",
					"name": "milestoneNumber",
					"type": "uint256"
				},
				{
					"internalType": "address",
					"name": "sender",
					"type": "address"
				},
				{
					"internalType": "uint8",
					"name": "vote",
					"type": "uint8"
				}
			],
			"name": "voteConflict",
			"outputs": [],
			"stateMutability": "nonpayable",
			"type": "function"
		}
	]
}