{
	"data": {
		"bytecode": {
			"linkReferences": {},
			"object": "608060405233600260006101000a81548173ffffffffffffffffffffffffffffffffffffffff021916908373ffffffffffffffffffffffffffffffffffffffff1602179055506000600455600060055560405162003f4638038062003f4683398181016040528101906200007491906200012b565b816000806101000a81548173ffffffffffffffffffffffffffffffffffffffff021916908373ffffffffffffffffffffffffffffffffffffffff16021790555080600160006101000a81548173ffffffffffffffffffffffffffffffffffffffff021916908373ffffffffffffffffffffffffffffffffffffffff160217905550505062000207565b6000815190506200010e81620001d3565b92915050565b6000815190506200012581620001ed565b92915050565b60008060408385031215620001455762000144620001ce565b5b60006200015585828601620000fd565b9250506020620001688582860162000114565b9150509250929050565b60006200017f82620001ae565b9050919050565b6000620001938262000172565b9050919050565b6000620001a78262000172565b9050919050565b600073ffffffffffffffffffffffffffffffffffffffff82169050919050565b600080fd5b620001de8162000186565b8114620001ea57600080fd5b50565b620001f8816200019a565b81146200020457600080fd5b50565b613d2f80620002176000396000f3fe6080604052600436106101345760003560e01c8063ace731bd116100ab578063cb4389ce1161006f578063cb4389ce1461041a578063ccee835b14610457578063ce1f8a8914610494578063d1e992a7146104bd578063e3d87718146104e6578063e62fac271461052357610134565b8063ace731bd1461033f578063b1e2ec781461037c578063b2ce874e14610398578063b3fbe997146103d5578063bba93c0b146103f157610134565b80633f8f5227116100fd5780633f8f52271461022e57806353c400e11461025757806360fb14a614610280578063664fc0cd1461029c5780636a398138146102d95780639ac788791461030257610134565b80623f489f146101395780630366cef21461016257806306cf28a31461019f5780631db95ff3146101c85780633c45fe31146101f1575b600080fd5b34801561014557600080fd5b50610160600480360381019061015b9190612dc8565b61054c565b005b34801561016e57600080fd5b5061018960048036038101906101849190612dc8565b61072b565b6040516101969190613562565b60405180910390f35b3480156101ab57600080fd5b506101c660048036038101906101c191906131f8565b6107e4565b005b3480156101d457600080fd5b506101ef60048036038101906101ea9190612fde565b610a04565b005b3480156101fd57600080fd5b5061021860048036038101906102139190612dc8565b610c25565b6040516102259190613562565b60405180910390f35b34801561023a57600080fd5b5061025560048036038101906102509190613273565b610cde565b005b34801561026357600080fd5b5061027e60048036038101906102799190612e1b565b610f03565b005b61029a60048036038101906102959190613191565b6110f9565b005b3480156102a857600080fd5b506102c360048036038101906102be9190612c82565b6114ab565b6040516102d09190613562565b60405180910390f35b3480156102e557600080fd5b5061030060048036038101906102fb9190612cc2565b611562565b005b34801561030e57600080fd5b5061032960048036038101906103249190612dc8565b6116e3565b6040516103369190613562565b60405180910390f35b34801561034b57600080fd5b5061036660048036038101906103619190612dc8565b61179c565b6040516103739190613480565b60405180910390f35b61039660048036038101906103919190612e1b565b6118f3565b005b3480156103a457600080fd5b506103bf60048036038101906103ba9190612dc8565b611b6a565b6040516103cc9190613562565b60405180910390f35b6103ef60048036038101906103ea9190612d15565b611bae565b005b3480156103fd57600080fd5b5061041860048036038101906104139190612e82565b611e42565b005b34801561042657600080fd5b50610441600480360381019061043c9190612dc8565b6121bb565b60405161044e9190613465565b60405180910390f35b34801561046357600080fd5b5061047e60048036038101906104799190612c82565b612274565b60405161048b9190613562565b60405180910390f35b3480156104a057600080fd5b506104bb60048036038101906104b69190612e1b565b61232b565b005b3480156104c957600080fd5b506104e460048036038101906104df9190612f2b565b612487565b005b3480156104f257600080fd5b5061050d60048036038101906105089190612dc8565b612660565b60405161051a9190613562565b60405180910390f35b34801561052f57600080fd5b5061054a600480360381019061054591906130a3565b612719565b005b828282600360008481526020019081526020016000206000838152602001908152602001600020600082815260200190815260200160002060050160009054906101000a900460ff166105d4576040517f08c379a00000000000000000000000000000000000000000000000000000000081526004016105cb90613522565b60405180910390fd5b85858560068060078111156105ec576105eb613aae565b5b600360008681526020019081526020016000206000858152602001908152602001600020600084815260200190815260200160002060050160019054906101000a900460ff16600781111561064457610643613aae565b5b14610684576040517f08c379a000000000000000000000000000000000000000000000000000000000815260040161067b906134c2565b60405180910390fd5b60008054906101000a900473ffffffffffffffffffffffffffffffffffffffff1673ffffffffffffffffffffffffffffffffffffffff16623f489f8b8b8b6040518463ffffffff1660e01b81526004016106e0939291906135a6565b600060405180830381600087803b1580156106fa57600080fd5b505af115801561070e573d6000803e3d6000fd5b5050505061071f8a8a8a600461287d565b50505050505050505050565b60008060009054906101000a900473ffffffffffffffffffffffffffffffffffffffff1673ffffffffffffffffffffffffffffffffffffffff16630366cef28585856040518463ffffffff1660e01b815260040161078b939291906135a6565b60206040518083038186803b1580156107a357600080fd5b505afa1580156107b7573d6000803e3d6000fd5b505050506040513d601f19601f820116820180604052508101906107db9190612c55565b90509392505050565b848484600360008481526020019081526020016000206000838152602001908152602001600020600082815260200190815260200160002060050160009054906101000a900460ff1661086c576040517f08c379a000000000000000000000000000000000000000000000000000000000815260040161086390613522565b60405180910390fd5b878787600680600781111561088457610883613aae565b5b600360008681526020019081526020016000206000858152602001908152602001600020600084815260200190815260200160002060050160019054906101000a900460ff1660078111156108dc576108db613aae565b5b1461091c576040517f08c379a0000000000000000000000000000000000000000000000000000000008152600401610913906134c2565b60405180910390fd5b6109288c8c8b8b6128e3565b610967576040517f08c379a000000000000000000000000000000000000000000000000000000000815260040161095e90613502565b60405180910390fd5b60008054906101000a900473ffffffffffffffffffffffffffffffffffffffff1673ffffffffffffffffffffffffffffffffffffffff16639c87a5e98d8d8d6040518463ffffffff1660e01b81526004016109c4939291906135a6565b600060405180830381600087803b1580156109de57600080fd5b505af11580156109f2573d6000803e3d6000fd5b50505050505050505050505050505050565b8585856000806007811115610a1c57610a1b613aae565b5b600360008681526020019081526020016000206000858152602001908152602001600020600084815260200190815260200160002060050160019054906101000a900460ff166007811115610a7457610a73613aae565b5b14610ab4576040517f08c379a0000000000000000000000000000000000000000000000000000000008152600401610aab906134c2565b60405180910390fd5b866000815111610af9576040517f08c379a0000000000000000000000000000000000000000000000000000000008152600401610af090613542565b60405180910390fd5b866000815111610b3e576040517f08c379a0000000000000000000000000000000000000000000000000000000008152600401610b3590613542565b60405180910390fd5b88600360008e815260200190815260200160002060008d815260200190815260200160002060008c81526020019081526020016000206003019080519060200190610b8a929190612aac565b5087600360008e815260200190815260200160002060008d815260200190815260200160002060008c81526020019081526020016000206004019080519060200190610bd7929190612aac565b507f8c0d6ff1212c3fbf79bbe6dc1e26cc40c4e137ec5711d4471b16fa121f9335118c8c8c8c8c604051610c0f9594939291906136b5565b60405180910390a1505050505050505050505050565b60008060009054906101000a900473ffffffffffffffffffffffffffffffffffffffff1673ffffffffffffffffffffffffffffffffffffffff16633c45fe318585856040518463ffffffff1660e01b8152600401610c85939291906135a6565b60206040518083038186803b158015610c9d57600080fd5b505afa158015610cb1573d6000803e3d6000fd5b505050506040513d601f19601f82011682018060405250810190610cd59190612c55565b90509392505050565b858585600360008481526020019081526020016000206000838152602001908152602001600020600082815260200190815260200160002060050160009054906101000a900460ff16610d66576040517f08c379a0000000000000000000000000000000000000000000000000000000008152600401610d5d90613522565b60405180910390fd5b8888886006806007811115610d7e57610d7d613aae565b5b600360008681526020019081526020016000206000858152602001908152602001600020600084815260200190815260200160002060050160019054906101000a900460ff166007811115610dd657610dd5613aae565b5b14610e16576040517f08c379a0000000000000000000000000000000000000000000000000000000008152600401610e0d906134c2565b60405180910390fd5b610e228d8d8c8c6128e3565b610e61576040517f08c379a0000000000000000000000000000000000000000000000000000000008152600401610e5890613502565b60405180910390fd5b60008054906101000a900473ffffffffffffffffffffffffffffffffffffffff1673ffffffffffffffffffffffffffffffffffffffff1663c171bdf78e8e8e8d8d6040518663ffffffff1660e01b8152600401610ec2959493929190613662565b600060405180830381600087803b158015610edc57600080fd5b505af1158015610ef0573d6000803e3d6000fd5b5050505050505050505050505050505050565b838383600360008481526020019081526020016000206000838152602001908152602001600020600082815260200190815260200160002060050160009054906101000a900460ff16610f8b576040517f08c379a0000000000000000000000000000000000000000000000000000000008152600401610f8290613522565b60405180910390fd5b8686866000806007811115610fa357610fa2613aae565b5b600360008681526020019081526020016000206000858152602001908152602001600020600084815260200190815260200160002060050160019054906101000a900460ff166007811115610ffb57610ffa613aae565b5b1461103b576040517f08c379a0000000000000000000000000000000000000000000000000000000008152600401611032906134c2565b60405180910390fd5b6000600360008d815260200190815260200160002060008c815260200190815260200160002060008b815260200190815260200160002060050160006101000a81548160ff0219169083151502179055506004600081548092919061109f90613950565b91905055506110b18b8b8b600761287d565b7f2b2605ee52ace237f72e6005eee79180ea3b6151bd8848a6be5e3c224b8a6ec68b8b8b6040516110e4939291906135a6565b60405180910390a15050505050505050505050565b838383600360008481526020019081526020016000206000838152602001908152602001600020600082815260200190815260200160002060050160009054906101000a900460ff16611181576040517f08c379a000000000000000000000000000000000000000000000000000000000815260040161117890613522565b60405180910390fd5b60008060009054906101000a900473ffffffffffffffffffffffffffffffffffffffff1673ffffffffffffffffffffffffffffffffffffffff16630366cef28989896040518463ffffffff1660e01b81526004016111e1939291906135a6565b60206040518083038186803b1580156111f957600080fd5b505afa15801561120d573d6000803e3d6000fd5b505050506040513d601f19601f820116820180604052508101906112319190612c55565b90506000600360008a81526020019081526020016000206000898152602001908152602001600020600088815260200190815260200160002060080160009054906101000a900473ffffffffffffffffffffffffffffffffffffffff1690506000600360008b815260200190815260200160002060008a8152602001908152602001600020600089815260200190815260200160002060070160009054906101000a900473ffffffffffffffffffffffffffffffffffffffff1690506000600360008c815260200190815260200160002060008b815260200190815260200160002060008a815260200190815260200160002060060154905060028414156113c157808814611375576040517f08c379a000000000000000000000000000000000000000000000000000000000815260040161136c906134a2565b60405180910390fd5b8273ffffffffffffffffffffffffffffffffffffffff166108fc349081150290604051600060405180830381858888f193505050501580156113bb573d6000803e3d6000fd5b5061149e565b6002816113ce9190613814565b881461140f576040517f08c379a0000000000000000000000000000000000000000000000000000000008152600401611406906134a2565b60405180910390fd5b8273ffffffffffffffffffffffffffffffffffffffff166108fc349081150290604051600060405180830381858888f19350505050158015611455573d6000803e3d6000fd5b508173ffffffffffffffffffffffffffffffffffffffff166108fc349081150290604051600060405180830381858888f1935050505015801561149c573d6000803e3d6000fd5b505b5050505050505050505050565b6000600160009054906101000a900473ffffffffffffffffffffffffffffffffffffffff1673ffffffffffffffffffffffffffffffffffffffff1663664fc0cd84846040518363ffffffff1660e01b815260040161150a92919061357d565b60206040518083038186803b15801561152257600080fd5b505afa158015611536573d6000803e3d6000fd5b505050506040513d601f19601f8201168201806040525081019061155a9190612c55565b905092915050565b60005b6005548110156116dd576000600781111561158357611582613aae565b5b600360008681526020019081526020016000206000858152602001908152602001600020600083815260200190815260200160002060050160019054906101000a900460ff1660078111156115db576115da613aae565b5b141580611631575060001515600360008681526020019081526020016000206000858152602001908152602001600020600083815260200190815260200160002060050160009054906101000a900460ff161515145b1561163b576116ca565b81600360008681526020019081526020016000206000858152602001908152602001600020600083815260200190815260200160002060080160006101000a81548173ffffffffffffffffffffffffffffffffffffffff021916908373ffffffffffffffffffffffffffffffffffffffff1602179055506116bf848483600261287d565b6116c984846129b3565b5b80806116d5906139dd565b915050611565565b50505050565b60008060009054906101000a900473ffffffffffffffffffffffffffffffffffffffff1673ffffffffffffffffffffffffffffffffffffffff16639ac788798585856040518463ffffffff1660e01b8152600401611743939291906135a6565b60206040518083038186803b15801561175b57600080fd5b505afa15801561176f573d6000803e3d6000fd5b505050506040513d601f19601f820116820180604052508101906117939190612c55565b90509392505050565b6060838383600360008481526020019081526020016000206000838152602001908152602001600020600082815260200190815260200160002060050160009054906101000a900460ff16611826576040517f08c379a000000000000000000000000000000000000000000000000000000000815260040161181d90613522565b60405180910390fd5b600360008881526020019081526020016000206000878152602001908152602001600020600086815260200190815260200160002060030180546118699061397a565b80601f01602080910402602001604051908101604052809291908181526020018280546118959061397a565b80156118e25780601f106118b7576101008083540402835291602001916118e2565b820191906000526020600020905b8154815290600101906020018083116118c557829003601f168201915b505050505093505050509392505050565b838383600360008481526020019081526020016000206000838152602001908152602001600020600082815260200190815260200160002060050160009054906101000a900460ff1661197b576040517f08c379a000000000000000000000000000000000000000000000000000000000815260040161197290613522565b60405180910390fd5b868686600480600781111561199357611992613aae565b5b600360008681526020019081526020016000206000858152602001908152602001600020600084815260200190815260200160002060050160019054906101000a900460ff1660078111156119eb576119ea613aae565b5b14611a2b576040517f08c379a0000000000000000000000000000000000000000000000000000000008152600401611a22906134c2565b60405180910390fd5b611a388b8b8b600561287d565b6000600360008d815260200190815260200160002060008c815260200190815260200160002060008b815260200190815260200160002060080160009054906101000a900473ffffffffffffffffffffffffffffffffffffffff1690506000600360008e815260200190815260200160002060008d815260200190815260200160002060008c8152602001908152602001600020600601549050803414611b14576040517f08c379a0000000000000000000000000000000000000000000000000000000008152600401611b0b906134a2565b60405180910390fd5b8173ffffffffffffffffffffffffffffffffffffffff166108fc349081150290604051600060405180830381858888f19350505050158015611b5a573d6000803e3d6000fd5b5050505050505050505050505050565b600060036000858152602001908152602001600020600084815260200190815260200160002060008381526020019081526020016000206006015490509392505050565b826000815111611bf3576040517f08c379a0000000000000000000000000000000000000000000000000000000008152600401611bea90613542565b60405180910390fd5b826000815111611c38576040517f08c379a0000000000000000000000000000000000000000000000000000000008152600401611c2f90613542565b60405180910390fd5b6000600360008981526020019081526020016000206000888152602001908152602001600020600060055481526020019081526020016000209050878160000181905550868160010181905550600554816002018190555085816003019080519060200190611ca8929190612aac565b5084816004019080519060200190611cc1929190612aac565b5060018160050160006101000a81548160ff02191690831515021790555060008160050160016101000a81548160ff02191690836007811115611d0757611d06613aae565b5b0217905550348160060181905550838160070160006101000a81548173ffffffffffffffffffffffffffffffffffffffff021916908373ffffffffffffffffffffffffffffffffffffffff1602179055507f70d8b12d438dd130d28072c77c8047d9697b630b8dcd969123645998ad67d56188886005548989604051611d919594939291906136b5565b60405180910390a160046000815480929190611dac906139dd565b919050555060056000815480929190611dc4906139dd565b91905055506000600260009054906101000a900473ffffffffffffffffffffffffffffffffffffffff1690508073ffffffffffffffffffffffffffffffffffffffff166108fc349081150290604051600060405180830381858888f19350505050158015611e36573d6000803e3d6000fd5b50505050505050505050565b858585600360008481526020019081526020016000206000838152602001908152602001600020600082815260200190815260200160002060050160009054906101000a900460ff16611eca576040517f08c379a0000000000000000000000000000000000000000000000000000000008152600401611ec190613522565b60405180910390fd5b6000600360008b815260200190815260200160002060008a81526020019081526020016000206000898152602001908152602001600020905060008160080160009054906101000a900473ffffffffffffffffffffffffffffffffffffffff16905060008260070160009054906101000a900473ffffffffffffffffffffffffffffffffffffffff1690508873ffffffffffffffffffffffffffffffffffffffff168273ffffffffffffffffffffffffffffffffffffffff161480611fba57508873ffffffffffffffffffffffffffffffffffffffff168173ffffffffffffffffffffffffffffffffffffffff16145b611ff9576040517f08c379a0000000000000000000000000000000000000000000000000000000008152600401611ff0906134e2565b60405180910390fd5b6004600781111561200d5761200c613aae565b5b8360050160019054906101000a900460ff16600781111561203157612030613aae565b5b1461203b57600080fd5b8873ffffffffffffffffffffffffffffffffffffffff168273ffffffffffffffffffffffffffffffffffffffff16141561211057600160009054906101000a900473ffffffffffffffffffffffffffffffffffffffff1673ffffffffffffffffffffffffffffffffffffffff1663b71779108d8d8d8d868e60008f6040518963ffffffff1660e01b81526004016120d99897969594939291906135dd565b600060405180830381600087803b1580156120f357600080fd5b505af1158015612107573d6000803e3d6000fd5b505050506121ad565b600160009054906101000a900473ffffffffffffffffffffffffffffffffffffffff1673ffffffffffffffffffffffffffffffffffffffff1663b71779108d8d8d8d878e60018f6040518963ffffffff1660e01b815260040161217a9897969594939291906135dd565b600060405180830381600087803b15801561219457600080fd5b505af11580156121a8573d6000803e3d6000fd5b505050505b505050505050505050505050565b60008060009054906101000a900473ffffffffffffffffffffffffffffffffffffffff1673ffffffffffffffffffffffffffffffffffffffff1663cb4389ce8585856040518463ffffffff1660e01b815260040161221b939291906135a6565b60206040518083038186803b15801561223357600080fd5b505afa158015612247573d6000803e3d6000fd5b505050506040513d601f19601f8201168201806040525081019061226b9190612c28565b90509392505050565b6000600160009054906101000a900473ffffffffffffffffffffffffffffffffffffffff1673ffffffffffffffffffffffffffffffffffffffff1663ccee835b84846040518363ffffffff1660e01b81526004016122d392919061357d565b60206040518083038186803b1580156122eb57600080fd5b505afa1580156122ff573d6000803e3d6000fd5b505050506040513d601f19601f820116820180604052508101906123239190612c55565b905092915050565b838383600360008481526020019081526020016000206000838152602001908152602001600020600082815260200190815260200160002060050160009054906101000a900460ff166123b3576040517f08c379a00000000000000000000000000000000000000000000000000000000081526004016123aa90613522565b60405180910390fd5b86868660038060078111156123cb576123ca613aae565b5b600360008681526020019081526020016000206000858152602001908152602001600020600084815260200190815260200160002060050160019054906101000a900460ff16600781111561242357612422613aae565b5b14612463576040517f08c379a000000000000000000000000000000000000000000000000000000000815260040161245a906134c2565b60405180910390fd5b6124708b8b8b600461287d565b61247a8b8b6129b3565b5050505050505050505050565b848484600360008481526020019081526020016000206000838152602001908152602001600020600082815260200190815260200160002060050160009054906101000a900460ff1661250f576040517f08c379a000000000000000000000000000000000000000000000000000000000815260040161250690613522565b60405180910390fd5b878787600680600781111561252757612526613aae565b5b600360008681526020019081526020016000206000858152602001908152602001600020600084815260200190815260200160002060050160019054906101000a900460ff16600781111561257f5761257e613aae565b5b146125bf576040517f08c379a00000000000000000000000000000000000000000000000000000000081526004016125b6906134c2565b60405180910390fd5b60008054906101000a900473ffffffffffffffffffffffffffffffffffffffff1673ffffffffffffffffffffffffffffffffffffffff1663d1e992a78d8d8d8d8d6040518663ffffffff1660e01b81526004016126209594939291906136b5565b600060405180830381600087803b15801561263a57600080fd5b505af115801561264e573d6000803e3d6000fd5b50505050505050505050505050505050565b60008060009054906101000a900473ffffffffffffffffffffffffffffffffffffffff1673ffffffffffffffffffffffffffffffffffffffff1663e3d877188585856040518463ffffffff1660e01b81526004016126c0939291906135a6565b60206040518083038186803b1580156126d857600080fd5b505afa1580156126ec573d6000803e3d6000fd5b505050506040513d601f19601f820116820180604052508101906127109190612c55565b90509392505050565b878787600480600781111561273157612730613aae565b5b600360008681526020019081526020016000206000858152602001908152602001600020600084815260200190815260200160002060050160019054906101000a900460ff16600781111561278957612788613aae565b5b146127c9576040517f08c379a00000000000000000000000000000000000000000000000000000000081526004016127c0906134c2565b60405180910390fd5b60008054906101000a900473ffffffffffffffffffffffffffffffffffffffff1673ffffffffffffffffffffffffffffffffffffffff1663e62fac278d8d8d8d8d8d8d8d6040518963ffffffff1660e01b8152600401612830989796959493929190613716565b600060405180830381600087803b15801561284a57600080fd5b505af115801561285e573d6000803e3d6000fd5b5050505061286f8c8c8c600661287d565b505050505050505050505050565b80600360008681526020019081526020016000206000858152602001908152602001600020600084815260200190815260200160002060050160016101000a81548160ff021916908360078111156128d8576128d7613aae565b5b021790555050505050565b60008060036000878152602001908152602001600020600086815260200190815260200160002090506000805b858160ff1610156129a55760008360008360ff16815260200190815260200160002090508573ffffffffffffffffffffffffffffffffffffffff168160080160009054906101000a900473ffffffffffffffffffffffffffffffffffffffff1673ffffffffffffffffffffffffffffffffffffffff16141561299157600192505b50808061299d90613a26565b915050612910565b508092505050949350505050565b60005b600554811015612aa657600260078111156129d4576129d3613aae565b5b600360008581526020019081526020016000206000848152602001908152602001600020600083815260200190815260200160002060050160019054906101000a900460ff166007811115612a2c57612a2b613aae565b5b148015612a7b5750600360008481526020019081526020016000206000838152602001908152602001600020600082815260200190815260200160002060050160009054906101000a900460ff165b15612a9357612a8d838383600361287d565b50612aa8565b8080612a9e906139dd565b9150506129b6565b505b5050565b828054612ab89061397a565b90600052602060002090601f016020900481019282612ada5760008555612b21565b82601f10612af357805160ff1916838001178555612b21565b82800160010185558215612b21579182015b82811115612b20578251825591602001919060010190612b05565b5b509050612b2e9190612b32565b5090565b5b80821115612b4b576000816000905550600101612b33565b5090565b6000612b62612b5d846137c7565b6137a2565b905082815260208101848484011115612b7e57612b7d613b40565b5b612b8984828561390e565b509392505050565b600081359050612ba081613ca4565b92915050565b600081519050612bb581613cbb565b92915050565b600082601f830112612bd057612bcf613b3b565b5b8135612be0848260208601612b4f565b91505092915050565b600081359050612bf881613ccb565b92915050565b600081519050612c0d81613ccb565b92915050565b600081359050612c2281613ce2565b92915050565b600060208284031215612c3e57612c3d613b4a565b5b6000612c4c84828501612ba6565b91505092915050565b600060208284031215612c6b57612c6a613b4a565b5b6000612c7984828501612bfe565b91505092915050565b60008060408385031215612c9957612c98613b4a565b5b6000612ca785828601612be9565b9250506020612cb885828601612be9565b9150509250929050565b600080600060608486031215612cdb57612cda613b4a565b5b6000612ce986828701612be9565b9350506020612cfa86828701612be9565b9250506040612d0b86828701612b91565b9150509250925092565b600080600080600060a08688031215612d3157612d30613b4a565b5b6000612d3f88828901612be9565b9550506020612d5088828901612be9565b945050604086013567ffffffffffffffff811115612d7157612d70613b45565b5b612d7d88828901612bbb565b935050606086013567ffffffffffffffff811115612d9e57612d9d613b45565b5b612daa88828901612bbb565b9250506080612dbb88828901612b91565b9150509295509295909350565b600080600060608486031215612de157612de0613b4a565b5b6000612def86828701612be9565b9350506020612e0086828701612be9565b9250506040612e1186828701612be9565b9150509250925092565b60008060008060808587031215612e3557612e34613b4a565b5b6000612e4387828801612be9565b9450506020612e5487828801612be9565b9350506040612e6587828801612be9565b9250506060612e7687828801612b91565b91505092959194509250565b60008060008060008060c08789031215612e9f57612e9e613b4a565b5b6000612ead89828a01612be9565b9650506020612ebe89828a01612be9565b9550506040612ecf89828a01612be9565b9450506060612ee089828a01612b91565b935050608087013567ffffffffffffffff811115612f0157612f00613b45565b5b612f0d89828a01612bbb565b92505060a0612f1e89828a01612be9565b9150509295509295509295565b600080600080600060a08688031215612f4757612f46613b4a565b5b6000612f5588828901612be9565b9550506020612f6688828901612be9565b9450506040612f7788828901612be9565b935050606086013567ffffffffffffffff811115612f9857612f97613b45565b5b612fa488828901612bbb565b925050608086013567ffffffffffffffff811115612fc557612fc4613b45565b5b612fd188828901612bbb565b9150509295509295909350565b60008060008060008060c08789031215612ffb57612ffa613b4a565b5b600061300989828a01612be9565b965050602061301a89828a01612be9565b955050604061302b89828a01612be9565b945050606087013567ffffffffffffffff81111561304c5761304b613b45565b5b61305889828a01612bbb565b935050608087013567ffffffffffffffff81111561307957613078613b45565b5b61308589828a01612bbb565b92505060a061309689828a01612b91565b9150509295509295509295565b600080600080600080600080610100898b0312156130c4576130c3613b4a565b5b60006130d28b828c01612be9565b98505060206130e38b828c01612be9565b97505060406130f48b828c01612be9565b965050606089013567ffffffffffffffff81111561311557613114613b45565b5b6131218b828c01612bbb565b955050608089013567ffffffffffffffff81111561314257613141613b45565b5b61314e8b828c01612bbb565b94505060a061315f8b828c01612b91565b93505060c06131708b828c01612b91565b92505060e06131818b828c01612be9565b9150509295985092959890939650565b600080600080608085870312156131ab576131aa613b4a565b5b60006131b987828801612be9565b94505060206131ca87828801612be9565b93505060406131db87828801612be9565b92505060606131ec87828801612be9565b91505092959194509250565b600080600080600060a0868803121561321457613213613b4a565b5b600061322288828901612be9565b955050602061323388828901612be9565b945050604061324488828901612be9565b935050606061325588828901612be9565b925050608061326688828901612b91565b9150509295509295909350565b60008060008060008060c087890312156132905761328f613b4a565b5b600061329e89828a01612be9565b96505060206132af89828a01612be9565b95505060406132c089828a01612be9565b94505060606132d189828a01612be9565b93505060806132e289828a01612b91565b92505060a06132f389828a01612c13565b9150509295509295509295565b613309816138b4565b82525050565b61331881613845565b82525050565b613327816138c6565b82525050565b613336816138d8565b82525050565b6000613347826137f8565b6133518185613803565b935061336181856020860161391d565b61336a81613b4f565b840191505092915050565b6000613382601583613803565b915061338d82613b60565b602082019050919050565b60006133a5602083613803565b91506133b082613b89565b602082019050919050565b60006133c8600883613803565b91506133d382613bb2565b602082019050919050565b60006133eb601683613803565b91506133f682613bdb565b602082019050919050565b600061340e602783613803565b915061341982613c04565b604082019050919050565b6000613431601583613803565b915061343c82613c53565b602082019050919050565b6134508161389d565b82525050565b61345f816138a7565b82525050565b600060208201905061347a600083018461331e565b92915050565b6000602082019050818103600083015261349a818461333c565b905092915050565b600060208201905081810360008301526134bb81613375565b9050919050565b600060208201905081810360008301526134db81613398565b9050919050565b600060208201905081810360008301526134fb816133bb565b9050919050565b6000602082019050818103600083015261351b816133de565b9050919050565b6000602082019050818103600083015261353b81613401565b9050919050565b6000602082019050818103600083015261355b81613424565b9050919050565b60006020820190506135776000830184613447565b92915050565b60006040820190506135926000830185613447565b61359f6020830184613447565b9392505050565b60006060820190506135bb6000830186613447565b6135c86020830185613447565b6135d56040830184613447565b949350505050565b6000610100820190506135f3600083018b613447565b613600602083018a613447565b61360d6040830189613447565b61361a606083018861330f565b613627608083018761330f565b81810360a0830152613639818661333c565b905061364860c083018561332d565b61365560e0830184613447565b9998505050505050505050565b600060a0820190506136776000830188613447565b6136846020830187613447565b6136916040830186613447565b61369e6060830185613300565b6136ab6080830184613456565b9695505050505050565b600060a0820190506136ca6000830188613447565b6136d76020830187613447565b6136e46040830186613447565b81810360608301526136f6818561333c565b9050818103608083015261370a818461333c565b90509695505050505050565b60006101008201905061372c600083018b613447565b613739602083018a613447565b6137466040830189613447565b8181036060830152613758818861333c565b9050818103608083015261376c818761333c565b905061377b60a083018661330f565b61378860c083018561330f565b61379560e0830184613447565b9998505050505050505050565b60006137ac6137bd565b90506137b882826139ac565b919050565b6000604051905090565b600067ffffffffffffffff8211156137e2576137e1613b0c565b5b6137eb82613b4f565b9050602081019050919050565b600081519050919050565b600082825260208201905092915050565b600061381f8261389d565b915061382a8361389d565b92508261383a57613839613a7f565b5b828204905092915050565b60006138508261387d565b9050919050565b600081905061386582613c7c565b919050565b600081905061387882613c90565b919050565b600073ffffffffffffffffffffffffffffffffffffffff82169050919050565b6000819050919050565b600060ff82169050919050565b60006138bf826138ea565b9050919050565b60006138d182613857565b9050919050565b60006138e38261386a565b9050919050565b60006138f5826138fc565b9050919050565b60006139078261387d565b9050919050565b82818337600083830152505050565b60005b8381101561393b578082015181840152602081019050613920565b8381111561394a576000848401525b50505050565b600061395b8261389d565b9150600082141561396f5761396e613a50565b5b600182039050919050565b6000600282049050600182168061399257607f821691505b602082108114156139a6576139a5613add565b5b50919050565b6139b582613b4f565b810181811067ffffffffffffffff821117156139d4576139d3613b0c565b5b80604052505050565b60006139e88261389d565b91507fffffffffffffffffffffffffffffffffffffffffffffffffffffffffffffffff821415613a1b57613a1a613a50565b5b600182019050919050565b6000613a31826138a7565b915060ff821415613a4557613a44613a50565b5b600182019050919050565b7f4e487b7100000000000000000000000000000000000000000000000000000000600052601160045260246000fd5b7f4e487b7100000000000000000000000000000000000000000000000000000000600052601260045260246000fd5b7f4e487b7100000000000000000000000000000000000000000000000000000000600052602160045260246000fd5b7f4e487b7100000000000000000000000000000000000000000000000000000000600052602260045260246000fd5b7f4e487b7100000000000000000000000000000000000000000000000000000000600052604160045260246000fd5b600080fd5b600080fd5b600080fd5b600080fd5b6000601f19601f8301169050919050565b7f416d6f756e74207061696420696e636f72726563740000000000000000000000600082015250565b7f43616e6e6f74206361727279206f75742074686973206f7065726174696f6e21600082015250565b7f20496e76616c6964000000000000000000000000000000000000000000000000600082015250565b7f4e6f7420612076616c69642044414f204d656d62657200000000000000000000600082015250565b7f54686973204d696c6573746f6e6520646f6573206e6f7420657869737420796160008201527f2064756d6d792100000000000000000000000000000000000000000000000000602082015250565b7f4120737472696e67206973207265717569726564210000000000000000000000600082015250565b60048110613c8d57613c8c613aae565b5b50565b60028110613ca157613ca0613aae565b5b50565b613cad81613845565b8114613cb857600080fd5b50565b60048110613cc857600080fd5b50565b613cd48161389d565b8114613cdf57600080fd5b50565b613ceb816138a7565b8114613cf657600080fd5b5056fea2646970667358221220abcdd3b3900df6221e3deb64c01ada0556e6cfd51066e5519024aa6708b17e7564736f6c63430008070033",
			"opcodes": "PUSH1 0x80 PUSH1 0x40 MSTORE CALLER PUSH1 0x2 PUSH1 0x0 PUSH2 0x100 EXP DUP2 SLOAD DUP2 PUSH20 0xFFFFFFFFFFFFFFFFFFFFFFFFFFFFFFFFFFFFFFFF MUL NOT AND SWAP1 DUP4 PUSH20 0xFFFFFFFFFFFFFFFFFFFFFFFFFFFFFFFFFFFFFFFF AND MUL OR SWAP1 SSTORE POP PUSH1 0x0 PUSH1 0x4 SSTORE PUSH1 0x0 PUSH1 0x5 SSTORE PUSH1 0x40 MLOAD PUSH3 0x3F46 CODESIZE SUB DUP1 PUSH3 0x3F46 DUP4 CODECOPY DUP2 DUP2 ADD PUSH1 0x40 MSTORE DUP2 ADD SWAP1 PUSH3 0x74 SWAP2 SWAP1 PUSH3 0x12B JUMP JUMPDEST DUP2 PUSH1 0x0 DUP1 PUSH2 0x100 EXP DUP2 SLOAD DUP2 PUSH20 0xFFFFFFFFFFFFFFFFFFFFFFFFFFFFFFFFFFFFFFFF MUL NOT AND SWAP1 DUP4 PUSH20 0xFFFFFFFFFFFFFFFFFFFFFFFFFFFFFFFFFFFFFFFF AND MUL OR SWAP1 SSTORE POP DUP1 PUSH1 0x1 PUSH1 0x0 PUSH2 0x100 EXP DUP2 SLOAD DUP2 PUSH20 0xFFFFFFFFFFFFFFFFFFFFFFFFFFFFFFFFFFFFFFFF MUL NOT AND SWAP1 DUP4 PUSH20 0xFFFFFFFFFFFFFFFFFFFFFFFFFFFFFFFFFFFFFFFF AND MUL OR SWAP1 SSTORE POP POP POP PUSH3 0x207 JUMP JUMPDEST PUSH1 0x0 DUP2 MLOAD SWAP1 POP PUSH3 0x10E DUP2 PUSH3 0x1D3 JUMP JUMPDEST SWAP3 SWAP2 POP POP JUMP JUMPDEST PUSH1 0x0 DUP2 MLOAD SWAP1 POP PUSH3 0x125 DUP2 PUSH3 0x1ED JUMP JUMPDEST SWAP3 SWAP2 POP POP JUMP JUMPDEST PUSH1 0x0 DUP1 PUSH1 0x40 DUP4 DUP6 SUB SLT ISZERO PUSH3 0x145 JUMPI PUSH3 0x144 PUSH3 0x1CE JUMP JUMPDEST JUMPDEST PUSH1 0x0 PUSH3 0x155 DUP6 DUP3 DUP7 ADD PUSH3 0xFD JUMP JUMPDEST SWAP3 POP POP PUSH1 0x20 PUSH3 0x168 DUP6 DUP3 DUP7 ADD PUSH3 0x114 JUMP JUMPDEST SWAP2 POP POP SWAP3 POP SWAP3 SWAP1 POP JUMP JUMPDEST PUSH1 0x0 PUSH3 0x17F DUP3 PUSH3 0x1AE JUMP JUMPDEST SWAP1 POP SWAP2 SWAP1 POP JUMP JUMPDEST PUSH1 0x0 PUSH3 0x193 DUP3 PUSH3 0x172 JUMP JUMPDEST SWAP1 POP SWAP2 SWAP1 POP JUMP JUMPDEST PUSH1 0x0 PUSH3 0x1A7 DUP3 PUSH3 0x172 JUMP JUMPDEST SWAP1 POP SWAP2 SWAP1 POP JUMP JUMPDEST PUSH1 0x0 PUSH20 0xFFFFFFFFFFFFFFFFFFFFFFFFFFFFFFFFFFFFFFFF DUP3 AND SWAP1 POP SWAP2 SWAP1 POP JUMP JUMPDEST PUSH1 0x0 DUP1 REVERT JUMPDEST PUSH3 0x1DE DUP2 PUSH3 0x186 JUMP JUMPDEST DUP2 EQ PUSH3 0x1EA JUMPI PUSH1 0x0 DUP1 REVERT JUMPDEST POP JUMP JUMPDEST PUSH3 0x1F8 DUP2 PUSH3 0x19A JUMP JUMPDEST DUP2 EQ PUSH3 0x204 JUMPI PUSH1 0x0 DUP1 REVERT JUMPDEST POP JUMP JUMPDEST PUSH2 0x3D2F DUP1 PUSH3 0x217 PUSH1 0x0 CODECOPY PUSH1 0x0 RETURN INVALID PUSH1 0x80 PUSH1 0x40 MSTORE PUSH1 0x4 CALLDATASIZE LT PUSH2 0x134 JUMPI PUSH1 0x0 CALLDATALOAD PUSH1 0xE0 SHR DUP1 PUSH4 0xACE731BD GT PUSH2 0xAB JUMPI DUP1 PUSH4 0xCB4389CE GT PUSH2 0x6F JUMPI DUP1 PUSH4 0xCB4389CE EQ PUSH2 0x41A JUMPI DUP1 PUSH4 0xCCEE835B EQ PUSH2 0x457 JUMPI DUP1 PUSH4 0xCE1F8A89 EQ PUSH2 0x494 JUMPI DUP1 PUSH4 0xD1E992A7 EQ PUSH2 0x4BD JUMPI DUP1 PUSH4 0xE3D87718 EQ PUSH2 0x4E6 JUMPI DUP1 PUSH4 0xE62FAC27 EQ PUSH2 0x523 JUMPI PUSH2 0x134 JUMP JUMPDEST DUP1 PUSH4 0xACE731BD EQ PUSH2 0x33F JUMPI DUP1 PUSH4 0xB1E2EC78 EQ PUSH2 0x37C JUMPI DUP1 PUSH4 0xB2CE874E EQ PUSH2 0x398 JUMPI DUP1 PUSH4 0xB3FBE997 EQ PUSH2 0x3D5 JUMPI DUP1 PUSH4 0xBBA93C0B EQ PUSH2 0x3F1 JUMPI PUSH2 0x134 JUMP JUMPDEST DUP1 PUSH4 0x3F8F5227 GT PUSH2 0xFD JUMPI DUP1 PUSH4 0x3F8F5227 EQ PUSH2 0x22E JUMPI DUP1 PUSH4 0x53C400E1 EQ PUSH2 0x257 JUMPI DUP1 PUSH4 0x60FB14A6 EQ PUSH2 0x280 JUMPI DUP1 PUSH4 0x664FC0CD EQ PUSH2 0x29C JUMPI DUP1 PUSH4 0x6A398138 EQ PUSH2 0x2D9 JUMPI DUP1 PUSH4 0x9AC78879 EQ PUSH2 0x302 JUMPI PUSH2 0x134 JUMP JUMPDEST DUP1 PUSH3 0x3F489F EQ PUSH2 0x139 JUMPI DUP1 PUSH4 0x366CEF2 EQ PUSH2 0x162 JUMPI DUP1 PUSH4 0x6CF28A3 EQ PUSH2 0x19F JUMPI DUP1 PUSH4 0x1DB95FF3 EQ PUSH2 0x1C8 JUMPI DUP1 PUSH4 0x3C45FE31 EQ PUSH2 0x1F1 JUMPI JUMPDEST PUSH1 0x0 DUP1 REVERT JUMPDEST CALLVALUE DUP1 ISZERO PUSH2 0x145 JUMPI PUSH1 0x0 DUP1 REVERT JUMPDEST POP PUSH2 0x160 PUSH1 0x4 DUP1 CALLDATASIZE SUB DUP2 ADD SWAP1 PUSH2 0x15B SWAP2 SWAP1 PUSH2 0x2DC8 JUMP JUMPDEST PUSH2 0x54C JUMP JUMPDEST STOP JUMPDEST CALLVALUE DUP1 ISZERO PUSH2 0x16E JUMPI PUSH1 0x0 DUP1 REVERT JUMPDEST POP PUSH2 0x189 PUSH1 0x4 DUP1 CALLDATASIZE SUB DUP2 ADD SWAP1 PUSH2 0x184 SWAP2 SWAP1 PUSH2 0x2DC8 JUMP JUMPDEST PUSH2 0x72B JUMP JUMPDEST PUSH1 0x40 MLOAD PUSH2 0x196 SWAP2 SWAP1 PUSH2 0x3562 JUMP JUMPDEST PUSH1 0x40 MLOAD DUP1 SWAP2 SUB SWAP1 RETURN JUMPDEST CALLVALUE DUP1 ISZERO PUSH2 0x1AB JUMPI PUSH1 0x0 DUP1 REVERT JUMPDEST POP PUSH2 0x1C6 PUSH1 0x4 DUP1 CALLDATASIZE SUB DUP2 ADD SWAP1 PUSH2 0x1C1 SWAP2 SWAP1 PUSH2 0x31F8 JUMP JUMPDEST PUSH2 0x7E4 JUMP JUMPDEST STOP JUMPDEST CALLVALUE DUP1 ISZERO PUSH2 0x1D4 JUMPI PUSH1 0x0 DUP1 REVERT JUMPDEST POP PUSH2 0x1EF PUSH1 0x4 DUP1 CALLDATASIZE SUB DUP2 ADD SWAP1 PUSH2 0x1EA SWAP2 SWAP1 PUSH2 0x2FDE JUMP JUMPDEST PUSH2 0xA04 JUMP JUMPDEST STOP JUMPDEST CALLVALUE DUP1 ISZERO PUSH2 0x1FD JUMPI PUSH1 0x0 DUP1 REVERT JUMPDEST POP PUSH2 0x218 PUSH1 0x4 DUP1 CALLDATASIZE SUB DUP2 ADD SWAP1 PUSH2 0x213 SWAP2 SWAP1 PUSH2 0x2DC8 JUMP JUMPDEST PUSH2 0xC25 JUMP JUMPDEST PUSH1 0x40 MLOAD PUSH2 0x225 SWAP2 SWAP1 PUSH2 0x3562 JUMP JUMPDEST PUSH1 0x40 MLOAD DUP1 SWAP2 SUB SWAP1 RETURN JUMPDEST CALLVALUE DUP1 ISZERO PUSH2 0x23A JUMPI PUSH1 0x0 DUP1 REVERT JUMPDEST POP PUSH2 0x255 PUSH1 0x4 DUP1 CALLDATASIZE SUB DUP2 ADD SWAP1 PUSH2 0x250 SWAP2 SWAP1 PUSH2 0x3273 JUMP JUMPDEST PUSH2 0xCDE JUMP JUMPDEST STOP JUMPDEST CALLVALUE DUP1 ISZERO PUSH2 0x263 JUMPI PUSH1 0x0 DUP1 REVERT JUMPDEST POP PUSH2 0x27E PUSH1 0x4 DUP1 CALLDATASIZE SUB DUP2 ADD SWAP1 PUSH2 0x279 SWAP2 SWAP1 PUSH2 0x2E1B JUMP JUMPDEST PUSH2 0xF03 JUMP JUMPDEST STOP JUMPDEST PUSH2 0x29A PUSH1 0x4 DUP1 CALLDATASIZE SUB DUP2 ADD SWAP1 PUSH2 0x295 SWAP2 SWAP1 PUSH2 0x3191 JUMP JUMPDEST PUSH2 0x10F9 JUMP JUMPDEST STOP JUMPDEST CALLVALUE DUP1 ISZERO PUSH2 0x2A8 JUMPI PUSH1 0x0 DUP1 REVERT JUMPDEST POP PUSH2 0x2C3 PUSH1 0x4 DUP1 CALLDATASIZE SUB DUP2 ADD SWAP1 PUSH2 0x2BE SWAP2 SWAP1 PUSH2 0x2C82 JUMP JUMPDEST PUSH2 0x14AB JUMP JUMPDEST PUSH1 0x40 MLOAD PUSH2 0x2D0 SWAP2 SWAP1 PUSH2 0x3562 JUMP JUMPDEST PUSH1 0x40 MLOAD DUP1 SWAP2 SUB SWAP1 RETURN JUMPDEST CALLVALUE DUP1 ISZERO PUSH2 0x2E5 JUMPI PUSH1 0x0 DUP1 REVERT JUMPDEST POP PUSH2 0x300 PUSH1 0x4 DUP1 CALLDATASIZE SUB DUP2 ADD SWAP1 PUSH2 0x2FB SWAP2 SWAP1 PUSH2 0x2CC2 JUMP JUMPDEST PUSH2 0x1562 JUMP JUMPDEST STOP JUMPDEST CALLVALUE DUP1 ISZERO PUSH2 0x30E JUMPI PUSH1 0x0 DUP1 REVERT JUMPDEST POP PUSH2 0x329 PUSH1 0x4 DUP1 CALLDATASIZE SUB DUP2 ADD SWAP1 PUSH2 0x324 SWAP2 SWAP1 PUSH2 0x2DC8 JUMP JUMPDEST PUSH2 0x16E3 JUMP JUMPDEST PUSH1 0x40 MLOAD PUSH2 0x336 SWAP2 SWAP1 PUSH2 0x3562 JUMP JUMPDEST PUSH1 0x40 MLOAD DUP1 SWAP2 SUB SWAP1 RETURN JUMPDEST CALLVALUE DUP1 ISZERO PUSH2 0x34B JUMPI PUSH1 0x0 DUP1 REVERT JUMPDEST POP PUSH2 0x366 PUSH1 0x4 DUP1 CALLDATASIZE SUB DUP2 ADD SWAP1 PUSH2 0x361 SWAP2 SWAP1 PUSH2 0x2DC8 JUMP JUMPDEST PUSH2 0x179C JUMP JUMPDEST PUSH1 0x40 MLOAD PUSH2 0x373 SWAP2 SWAP1 PUSH2 0x3480 JUMP JUMPDEST PUSH1 0x40 MLOAD DUP1 SWAP2 SUB SWAP1 RETURN JUMPDEST PUSH2 0x396 PUSH1 0x4 DUP1 CALLDATASIZE SUB DUP2 ADD SWAP1 PUSH2 0x391 SWAP2 SWAP1 PUSH2 0x2E1B JUMP JUMPDEST PUSH2 0x18F3 JUMP JUMPDEST STOP JUMPDEST CALLVALUE DUP1 ISZERO PUSH2 0x3A4 JUMPI PUSH1 0x0 DUP1 REVERT JUMPDEST POP PUSH2 0x3BF PUSH1 0x4 DUP1 CALLDATASIZE SUB DUP2 ADD SWAP1 PUSH2 0x3BA SWAP2 SWAP1 PUSH2 0x2DC8 JUMP JUMPDEST PUSH2 0x1B6A JUMP JUMPDEST PUSH1 0x40 MLOAD PUSH2 0x3CC SWAP2 SWAP1 PUSH2 0x3562 JUMP JUMPDEST PUSH1 0x40 MLOAD DUP1 SWAP2 SUB SWAP1 RETURN JUMPDEST PUSH2 0x3EF PUSH1 0x4 DUP1 CALLDATASIZE SUB DUP2 ADD SWAP1 PUSH2 0x3EA SWAP2 SWAP1 PUSH2 0x2D15 JUMP JUMPDEST PUSH2 0x1BAE JUMP JUMPDEST STOP JUMPDEST CALLVALUE DUP1 ISZERO PUSH2 0x3FD JUMPI PUSH1 0x0 DUP1 REVERT JUMPDEST POP PUSH2 0x418 PUSH1 0x4 DUP1 CALLDATASIZE SUB DUP2 ADD SWAP1 PUSH2 0x413 SWAP2 SWAP1 PUSH2 0x2E82 JUMP JUMPDEST PUSH2 0x1E42 JUMP JUMPDEST STOP JUMPDEST CALLVALUE DUP1 ISZERO PUSH2 0x426 JUMPI PUSH1 0x0 DUP1 REVERT JUMPDEST POP PUSH2 0x441 PUSH1 0x4 DUP1 CALLDATASIZE SUB DUP2 ADD SWAP1 PUSH2 0x43C SWAP2 SWAP1 PUSH2 0x2DC8 JUMP JUMPDEST PUSH2 0x21BB JUMP JUMPDEST PUSH1 0x40 MLOAD PUSH2 0x44E SWAP2 SWAP1 PUSH2 0x3465 JUMP JUMPDEST PUSH1 0x40 MLOAD DUP1 SWAP2 SUB SWAP1 RETURN JUMPDEST CALLVALUE DUP1 ISZERO PUSH2 0x463 JUMPI PUSH1 0x0 DUP1 REVERT JUMPDEST POP PUSH2 0x47E PUSH1 0x4 DUP1 CALLDATASIZE SUB DUP2 ADD SWAP1 PUSH2 0x479 SWAP2 SWAP1 PUSH2 0x2C82 JUMP JUMPDEST PUSH2 0x2274 JUMP JUMPDEST PUSH1 0x40 MLOAD PUSH2 0x48B SWAP2 SWAP1 PUSH2 0x3562 JUMP JUMPDEST PUSH1 0x40 MLOAD DUP1 SWAP2 SUB SWAP1 RETURN JUMPDEST CALLVALUE DUP1 ISZERO PUSH2 0x4A0 JUMPI PUSH1 0x0 DUP1 REVERT JUMPDEST POP PUSH2 0x4BB PUSH1 0x4 DUP1 CALLDATASIZE SUB DUP2 ADD SWAP1 PUSH2 0x4B6 SWAP2 SWAP1 PUSH2 0x2E1B JUMP JUMPDEST PUSH2 0x232B JUMP JUMPDEST STOP JUMPDEST CALLVALUE DUP1 ISZERO PUSH2 0x4C9 JUMPI PUSH1 0x0 DUP1 REVERT JUMPDEST POP PUSH2 0x4E4 PUSH1 0x4 DUP1 CALLDATASIZE SUB DUP2 ADD SWAP1 PUSH2 0x4DF SWAP2 SWAP1 PUSH2 0x2F2B JUMP JUMPDEST PUSH2 0x2487 JUMP JUMPDEST STOP JUMPDEST CALLVALUE DUP1 ISZERO PUSH2 0x4F2 JUMPI PUSH1 0x0 DUP1 REVERT JUMPDEST POP PUSH2 0x50D PUSH1 0x4 DUP1 CALLDATASIZE SUB DUP2 ADD SWAP1 PUSH2 0x508 SWAP2 SWAP1 PUSH2 0x2DC8 JUMP JUMPDEST PUSH2 0x2660 JUMP JUMPDEST PUSH1 0x40 MLOAD PUSH2 0x51A SWAP2 SWAP1 PUSH2 0x3562 JUMP JUMPDEST PUSH1 0x40 MLOAD DUP1 SWAP2 SUB SWAP1 RETURN JUMPDEST CALLVALUE DUP1 ISZERO PUSH2 0x52F JUMPI PUSH1 0x0 DUP1 REVERT JUMPDEST POP PUSH2 0x54A PUSH1 0x4 DUP1 CALLDATASIZE SUB DUP2 ADD SWAP1 PUSH2 0x545 SWAP2 SWAP1 PUSH2 0x30A3 JUMP JUMPDEST PUSH2 0x2719 JUMP JUMPDEST STOP JUMPDEST DUP3 DUP3 DUP3 PUSH1 0x3 PUSH1 0x0 DUP5 DUP2 MSTORE PUSH1 0x20 ADD SWAP1 DUP2 MSTORE PUSH1 0x20 ADD PUSH1 0x0 KECCAK256 PUSH1 0x0 DUP4 DUP2 MSTORE PUSH1 0x20 ADD SWAP1 DUP2 MSTORE PUSH1 0x20 ADD PUSH1 0x0 KECCAK256 PUSH1 0x0 DUP3 DUP2 MSTORE PUSH1 0x20 ADD SWAP1 DUP2 MSTORE PUSH1 0x20 ADD PUSH1 0x0 KECCAK256 PUSH1 0x5 ADD PUSH1 0x0 SWAP1 SLOAD SWAP1 PUSH2 0x100 EXP SWAP1 DIV PUSH1 0xFF AND PUSH2 0x5D4 JUMPI PUSH1 0x40 MLOAD PUSH32 0x8C379A000000000000000000000000000000000000000000000000000000000 DUP2 MSTORE PUSH1 0x4 ADD PUSH2 0x5CB SWAP1 PUSH2 0x3522 JUMP JUMPDEST PUSH1 0x40 MLOAD DUP1 SWAP2 SUB SWAP1 REVERT JUMPDEST DUP6 DUP6 DUP6 PUSH1 0x6 DUP1 PUSH1 0x7 DUP2 GT ISZERO PUSH2 0x5EC JUMPI PUSH2 0x5EB PUSH2 0x3AAE JUMP JUMPDEST JUMPDEST PUSH1 0x3 PUSH1 0x0 DUP7 DUP2 MSTORE PUSH1 0x20 ADD SWAP1 DUP2 MSTORE PUSH1 0x20 ADD PUSH1 0x0 KECCAK256 PUSH1 0x0 DUP6 DUP2 MSTORE PUSH1 0x20 ADD SWAP1 DUP2 MSTORE PUSH1 0x20 ADD PUSH1 0x0 KECCAK256 PUSH1 0x0 DUP5 DUP2 MSTORE PUSH1 0x20 ADD SWAP1 DUP2 MSTORE PUSH1 0x20 ADD PUSH1 0x0 KECCAK256 PUSH1 0x5 ADD PUSH1 0x1 SWAP1 SLOAD SWAP1 PUSH2 0x100 EXP SWAP1 DIV PUSH1 0xFF AND PUSH1 0x7 DUP2 GT ISZERO PUSH2 0x644 JUMPI PUSH2 0x643 PUSH2 0x3AAE JUMP JUMPDEST JUMPDEST EQ PUSH2 0x684 JUMPI PUSH1 0x40 MLOAD PUSH32 0x8C379A000000000000000000000000000000000000000000000000000000000 DUP2 MSTORE PUSH1 0x4 ADD PUSH2 0x67B SWAP1 PUSH2 0x34C2 JUMP JUMPDEST PUSH1 0x40 MLOAD DUP1 SWAP2 SUB SWAP1 REVERT JUMPDEST PUSH1 0x0 DUP1 SLOAD SWAP1 PUSH2 0x100 EXP SWAP1 DIV PUSH20 0xFFFFFFFFFFFFFFFFFFFFFFFFFFFFFFFFFFFFFFFF AND PUSH20 0xFFFFFFFFFFFFFFFFFFFFFFFFFFFFFFFFFFFFFFFF AND PUSH3 0x3F489F DUP12 DUP12 DUP12 PUSH1 0x40 MLOAD DUP5 PUSH4 0xFFFFFFFF AND PUSH1 0xE0 SHL DUP2 MSTORE PUSH1 0x4 ADD PUSH2 0x6E0 SWAP4 SWAP3 SWAP2 SWAP1 PUSH2 0x35A6 JUMP JUMPDEST PUSH1 0x0 PUSH1 0x40 MLOAD DUP1 DUP4 SUB DUP2 PUSH1 0x0 DUP8 DUP1 EXTCODESIZE ISZERO DUP1 ISZERO PUSH2 0x6FA JUMPI PUSH1 0x0 DUP1 REVERT JUMPDEST POP GAS CALL ISZERO DUP1 ISZERO PUSH2 0x70E JUMPI RETURNDATASIZE PUSH1 0x0 DUP1 RETURNDATACOPY RETURNDATASIZE PUSH1 0x0 REVERT JUMPDEST POP POP POP POP PUSH2 0x71F DUP11 DUP11 DUP11 PUSH1 0x4 PUSH2 0x287D JUMP JUMPDEST POP POP POP POP POP POP POP POP POP POP JUMP JUMPDEST PUSH1 0x0 DUP1 PUSH1 0x0 SWAP1 SLOAD SWAP1 PUSH2 0x100 EXP SWAP1 DIV PUSH20 0xFFFFFFFFFFFFFFFFFFFFFFFFFFFFFFFFFFFFFFFF AND PUSH20 0xFFFFFFFFFFFFFFFFFFFFFFFFFFFFFFFFFFFFFFFF AND PUSH4 0x366CEF2 DUP6 DUP6 DUP6 PUSH1 0x40 MLOAD DUP5 PUSH4 0xFFFFFFFF AND PUSH1 0xE0 SHL DUP2 MSTORE PUSH1 0x4 ADD PUSH2 0x78B SWAP4 SWAP3 SWAP2 SWAP1 PUSH2 0x35A6 JUMP JUMPDEST PUSH1 0x20 PUSH1 0x40 MLOAD DUP1 DUP4 SUB DUP2 DUP7 DUP1 EXTCODESIZE ISZERO DUP1 ISZERO PUSH2 0x7A3 JUMPI PUSH1 0x0 DUP1 REVERT JUMPDEST POP GAS STATICCALL ISZERO DUP1 ISZERO PUSH2 0x7B7 JUMPI RETURNDATASIZE PUSH1 0x0 DUP1 RETURNDATACOPY RETURNDATASIZE PUSH1 0x0 REVERT JUMPDEST POP POP POP POP PUSH1 0x40 MLOAD RETURNDATASIZE PUSH1 0x1F NOT PUSH1 0x1F DUP3 ADD AND DUP3 ADD DUP1 PUSH1 0x40 MSTORE POP DUP2 ADD SWAP1 PUSH2 0x7DB SWAP2 SWAP1 PUSH2 0x2C55 JUMP JUMPDEST SWAP1 POP SWAP4 SWAP3 POP POP POP JUMP JUMPDEST DUP5 DUP5 DUP5 PUSH1 0x3 PUSH1 0x0 DUP5 DUP2 MSTORE PUSH1 0x20 ADD SWAP1 DUP2 MSTORE PUSH1 0x20 ADD PUSH1 0x0 KECCAK256 PUSH1 0x0 DUP4 DUP2 MSTORE PUSH1 0x20 ADD SWAP1 DUP2 MSTORE PUSH1 0x20 ADD PUSH1 0x0 KECCAK256 PUSH1 0x0 DUP3 DUP2 MSTORE PUSH1 0x20 ADD SWAP1 DUP2 MSTORE PUSH1 0x20 ADD PUSH1 0x0 KECCAK256 PUSH1 0x5 ADD PUSH1 0x0 SWAP1 SLOAD SWAP1 PUSH2 0x100 EXP SWAP1 DIV PUSH1 0xFF AND PUSH2 0x86C JUMPI PUSH1 0x40 MLOAD PUSH32 0x8C379A000000000000000000000000000000000000000000000000000000000 DUP2 MSTORE PUSH1 0x4 ADD PUSH2 0x863 SWAP1 PUSH2 0x3522 JUMP JUMPDEST PUSH1 0x40 MLOAD DUP1 SWAP2 SUB SWAP1 REVERT JUMPDEST DUP8 DUP8 DUP8 PUSH1 0x6 DUP1 PUSH1 0x7 DUP2 GT ISZERO PUSH2 0x884 JUMPI PUSH2 0x883 PUSH2 0x3AAE JUMP JUMPDEST JUMPDEST PUSH1 0x3 PUSH1 0x0 DUP7 DUP2 MSTORE PUSH1 0x20 ADD SWAP1 DUP2 MSTORE PUSH1 0x20 ADD PUSH1 0x0 KECCAK256 PUSH1 0x0 DUP6 DUP2 MSTORE PUSH1 0x20 ADD SWAP1 DUP2 MSTORE PUSH1 0x20 ADD PUSH1 0x0 KECCAK256 PUSH1 0x0 DUP5 DUP2 MSTORE PUSH1 0x20 ADD SWAP1 DUP2 MSTORE PUSH1 0x20 ADD PUSH1 0x0 KECCAK256 PUSH1 0x5 ADD PUSH1 0x1 SWAP1 SLOAD SWAP1 PUSH2 0x100 EXP SWAP1 DIV PUSH1 0xFF AND PUSH1 0x7 DUP2 GT ISZERO PUSH2 0x8DC JUMPI PUSH2 0x8DB PUSH2 0x3AAE JUMP JUMPDEST JUMPDEST EQ PUSH2 0x91C JUMPI PUSH1 0x40 MLOAD PUSH32 0x8C379A000000000000000000000000000000000000000000000000000000000 DUP2 MSTORE PUSH1 0x4 ADD PUSH2 0x913 SWAP1 PUSH2 0x34C2 JUMP JUMPDEST PUSH1 0x40 MLOAD DUP1 SWAP2 SUB SWAP1 REVERT JUMPDEST PUSH2 0x928 DUP13 DUP13 DUP12 DUP12 PUSH2 0x28E3 JUMP JUMPDEST PUSH2 0x967 JUMPI PUSH1 0x40 MLOAD PUSH32 0x8C379A000000000000000000000000000000000000000000000000000000000 DUP2 MSTORE PUSH1 0x4 ADD PUSH2 0x95E SWAP1 PUSH2 0x3502 JUMP JUMPDEST PUSH1 0x40 MLOAD DUP1 SWAP2 SUB SWAP1 REVERT JUMPDEST PUSH1 0x0 DUP1 SLOAD SWAP1 PUSH2 0x100 EXP SWAP1 DIV PUSH20 0xFFFFFFFFFFFFFFFFFFFFFFFFFFFFFFFFFFFFFFFF AND PUSH20 0xFFFFFFFFFFFFFFFFFFFFFFFFFFFFFFFFFFFFFFFF AND PUSH4 0x9C87A5E9 DUP14 DUP14 DUP14 PUSH1 0x40 MLOAD DUP5 PUSH4 0xFFFFFFFF AND PUSH1 0xE0 SHL DUP2 MSTORE PUSH1 0x4 ADD PUSH2 0x9C4 SWAP4 SWAP3 SWAP2 SWAP1 PUSH2 0x35A6 JUMP JUMPDEST PUSH1 0x0 PUSH1 0x40 MLOAD DUP1 DUP4 SUB DUP2 PUSH1 0x0 DUP8 DUP1 EXTCODESIZE ISZERO DUP1 ISZERO PUSH2 0x9DE JUMPI PUSH1 0x0 DUP1 REVERT JUMPDEST POP GAS CALL ISZERO DUP1 ISZERO PUSH2 0x9F2 JUMPI RETURNDATASIZE PUSH1 0x0 DUP1 RETURNDATACOPY RETURNDATASIZE PUSH1 0x0 REVERT JUMPDEST POP POP POP POP POP POP POP POP POP POP POP POP POP POP POP POP JUMP JUMPDEST DUP6 DUP6 DUP6 PUSH1 0x0 DUP1 PUSH1 0x7 DUP2 GT ISZERO PUSH2 0xA1C JUMPI PUSH2 0xA1B PUSH2 0x3AAE JUMP JUMPDEST JUMPDEST PUSH1 0x3 PUSH1 0x0 DUP7 DUP2 MSTORE PUSH1 0x20 ADD SWAP1 DUP2 MSTORE PUSH1 0x20 ADD PUSH1 0x0 KECCAK256 PUSH1 0x0 DUP6 DUP2 MSTORE PUSH1 0x20 ADD SWAP1 DUP2 MSTORE PUSH1 0x20 ADD PUSH1 0x0 KECCAK256 PUSH1 0x0 DUP5 DUP2 MSTORE PUSH1 0x20 ADD SWAP1 DUP2 MSTORE PUSH1 0x20 ADD PUSH1 0x0 KECCAK256 PUSH1 0x5 ADD PUSH1 0x1 SWAP1 SLOAD SWAP1 PUSH2 0x100 EXP SWAP1 DIV PUSH1 0xFF AND PUSH1 0x7 DUP2 GT ISZERO PUSH2 0xA74 JUMPI PUSH2 0xA73 PUSH2 0x3AAE JUMP JUMPDEST JUMPDEST EQ PUSH2 0xAB4 JUMPI PUSH1 0x40 MLOAD PUSH32 0x8C379A000000000000000000000000000000000000000000000000000000000 DUP2 MSTORE PUSH1 0x4 ADD PUSH2 0xAAB SWAP1 PUSH2 0x34C2 JUMP JUMPDEST PUSH1 0x40 MLOAD DUP1 SWAP2 SUB SWAP1 REVERT JUMPDEST DUP7 PUSH1 0x0 DUP2 MLOAD GT PUSH2 0xAF9 JUMPI PUSH1 0x40 MLOAD PUSH32 0x8C379A000000000000000000000000000000000000000000000000000000000 DUP2 MSTORE PUSH1 0x4 ADD PUSH2 0xAF0 SWAP1 PUSH2 0x3542 JUMP JUMPDEST PUSH1 0x40 MLOAD DUP1 SWAP2 SUB SWAP1 REVERT JUMPDEST DUP7 PUSH1 0x0 DUP2 MLOAD GT PUSH2 0xB3E JUMPI PUSH1 0x40 MLOAD PUSH32 0x8C379A000000000000000000000000000000000000000000000000000000000 DUP2 MSTORE PUSH1 0x4 ADD PUSH2 0xB35 SWAP1 PUSH2 0x3542 JUMP JUMPDEST PUSH1 0x40 MLOAD DUP1 SWAP2 SUB SWAP1 REVERT JUMPDEST DUP9 PUSH1 0x3 PUSH1 0x0 DUP15 DUP2 MSTORE PUSH1 0x20 ADD SWAP1 DUP2 MSTORE PUSH1 0x20 ADD PUSH1 0x0 KECCAK256 PUSH1 0x0 DUP14 DUP2 MSTORE PUSH1 0x20 ADD SWAP1 DUP2 MSTORE PUSH1 0x20 ADD PUSH1 0x0 KECCAK256 PUSH1 0x0 DUP13 DUP2 MSTORE PUSH1 0x20 ADD SWAP1 DUP2 MSTORE PUSH1 0x20 ADD PUSH1 0x0 KECCAK256 PUSH1 0x3 ADD SWAP1 DUP1 MLOAD SWAP1 PUSH1 0x20 ADD SWAP1 PUSH2 0xB8A SWAP3 SWAP2 SWAP1 PUSH2 0x2AAC JUMP JUMPDEST POP DUP8 PUSH1 0x3 PUSH1 0x0 DUP15 DUP2 MSTORE PUSH1 0x20 ADD SWAP1 DUP2 MSTORE PUSH1 0x20 ADD PUSH1 0x0 KECCAK256 PUSH1 0x0 DUP14 DUP2 MSTORE PUSH1 0x20 ADD SWAP1 DUP2 MSTORE PUSH1 0x20 ADD PUSH1 0x0 KECCAK256 PUSH1 0x0 DUP13 DUP2 MSTORE PUSH1 0x20 ADD SWAP1 DUP2 MSTORE PUSH1 0x20 ADD PUSH1 0x0 KECCAK256 PUSH1 0x4 ADD SWAP1 DUP1 MLOAD SWAP1 PUSH1 0x20 ADD SWAP1 PUSH2 0xBD7 SWAP3 SWAP2 SWAP1 PUSH2 0x2AAC JUMP JUMPDEST POP PUSH32 0x8C0D6FF1212C3FBF79BBE6DC1E26CC40C4E137EC5711D4471B16FA121F933511 DUP13 DUP13 DUP13 DUP13 DUP13 PUSH1 0x40 MLOAD PUSH2 0xC0F SWAP6 SWAP5 SWAP4 SWAP3 SWAP2 SWAP1 PUSH2 0x36B5 JUMP JUMPDEST PUSH1 0x40 MLOAD DUP1 SWAP2 SUB SWAP1 LOG1 POP POP POP POP POP POP POP POP POP POP POP POP JUMP JUMPDEST PUSH1 0x0 DUP1 PUSH1 0x0 SWAP1 SLOAD SWAP1 PUSH2 0x100 EXP SWAP1 DIV PUSH20 0xFFFFFFFFFFFFFFFFFFFFFFFFFFFFFFFFFFFFFFFF AND PUSH20 0xFFFFFFFFFFFFFFFFFFFFFFFFFFFFFFFFFFFFFFFF AND PUSH4 0x3C45FE31 DUP6 DUP6 DUP6 PUSH1 0x40 MLOAD DUP5 PUSH4 0xFFFFFFFF AND PUSH1 0xE0 SHL DUP2 MSTORE PUSH1 0x4 ADD PUSH2 0xC85 SWAP4 SWAP3 SWAP2 SWAP1 PUSH2 0x35A6 JUMP JUMPDEST PUSH1 0x20 PUSH1 0x40 MLOAD DUP1 DUP4 SUB DUP2 DUP7 DUP1 EXTCODESIZE ISZERO DUP1 ISZERO PUSH2 0xC9D JUMPI PUSH1 0x0 DUP1 REVERT JUMPDEST POP GAS STATICCALL ISZERO DUP1 ISZERO PUSH2 0xCB1 JUMPI RETURNDATASIZE PUSH1 0x0 DUP1 RETURNDATACOPY RETURNDATASIZE PUSH1 0x0 REVERT JUMPDEST POP POP POP POP PUSH1 0x40 MLOAD RETURNDATASIZE PUSH1 0x1F NOT PUSH1 0x1F DUP3 ADD AND DUP3 ADD DUP1 PUSH1 0x40 MSTORE POP DUP2 ADD SWAP1 PUSH2 0xCD5 SWAP2 SWAP1 PUSH2 0x2C55 JUMP JUMPDEST SWAP1 POP SWAP4 SWAP3 POP POP POP JUMP JUMPDEST DUP6 DUP6 DUP6 PUSH1 0x3 PUSH1 0x0 DUP5 DUP2 MSTORE PUSH1 0x20 ADD SWAP1 DUP2 MSTORE PUSH1 0x20 ADD PUSH1 0x0 KECCAK256 PUSH1 0x0 DUP4 DUP2 MSTORE PUSH1 0x20 ADD SWAP1 DUP2 MSTORE PUSH1 0x20 ADD PUSH1 0x0 KECCAK256 PUSH1 0x0 DUP3 DUP2 MSTORE PUSH1 0x20 ADD SWAP1 DUP2 MSTORE PUSH1 0x20 ADD PUSH1 0x0 KECCAK256 PUSH1 0x5 ADD PUSH1 0x0 SWAP1 SLOAD SWAP1 PUSH2 0x100 EXP SWAP1 DIV PUSH1 0xFF AND PUSH2 0xD66 JUMPI PUSH1 0x40 MLOAD PUSH32 0x8C379A000000000000000000000000000000000000000000000000000000000 DUP2 MSTORE PUSH1 0x4 ADD PUSH2 0xD5D SWAP1 PUSH2 0x3522 JUMP JUMPDEST PUSH1 0x40 MLOAD DUP1 SWAP2 SUB SWAP1 REVERT JUMPDEST DUP9 DUP9 DUP9 PUSH1 0x6 DUP1 PUSH1 0x7 DUP2 GT ISZERO PUSH2 0xD7E JUMPI PUSH2 0xD7D PUSH2 0x3AAE JUMP JUMPDEST JUMPDEST PUSH1 0x3 PUSH1 0x0 DUP7 DUP2 MSTORE PUSH1 0x20 ADD SWAP1 DUP2 MSTORE PUSH1 0x20 ADD PUSH1 0x0 KECCAK256 PUSH1 0x0 DUP6 DUP2 MSTORE PUSH1 0x20 ADD SWAP1 DUP2 MSTORE PUSH1 0x20 ADD PUSH1 0x0 KECCAK256 PUSH1 0x0 DUP5 DUP2 MSTORE PUSH1 0x20 ADD SWAP1 DUP2 MSTORE PUSH1 0x20 ADD PUSH1 0x0 KECCAK256 PUSH1 0x5 ADD PUSH1 0x1 SWAP1 SLOAD SWAP1 PUSH2 0x100 EXP SWAP1 DIV PUSH1 0xFF AND PUSH1 0x7 DUP2 GT ISZERO PUSH2 0xDD6 JUMPI PUSH2 0xDD5 PUSH2 0x3AAE JUMP JUMPDEST JUMPDEST EQ PUSH2 0xE16 JUMPI PUSH1 0x40 MLOAD PUSH32 0x8C379A000000000000000000000000000000000000000000000000000000000 DUP2 MSTORE PUSH1 0x4 ADD PUSH2 0xE0D SWAP1 PUSH2 0x34C2 JUMP JUMPDEST PUSH1 0x40 MLOAD DUP1 SWAP2 SUB SWAP1 REVERT JUMPDEST PUSH2 0xE22 DUP14 DUP14 DUP13 DUP13 PUSH2 0x28E3 JUMP JUMPDEST PUSH2 0xE61 JUMPI PUSH1 0x40 MLOAD PUSH32 0x8C379A000000000000000000000000000000000000000000000000000000000 DUP2 MSTORE PUSH1 0x4 ADD PUSH2 0xE58 SWAP1 PUSH2 0x3502 JUMP JUMPDEST PUSH1 0x40 MLOAD DUP1 SWAP2 SUB SWAP1 REVERT JUMPDEST PUSH1 0x0 DUP1 SLOAD SWAP1 PUSH2 0x100 EXP SWAP1 DIV PUSH20 0xFFFFFFFFFFFFFFFFFFFFFFFFFFFFFFFFFFFFFFFF AND PUSH20 0xFFFFFFFFFFFFFFFFFFFFFFFFFFFFFFFFFFFFFFFF AND PUSH4 0xC171BDF7 DUP15 DUP15 DUP15 DUP14 DUP14 PUSH1 0x40 MLOAD DUP7 PUSH4 0xFFFFFFFF AND PUSH1 0xE0 SHL DUP2 MSTORE PUSH1 0x4 ADD PUSH2 0xEC2 SWAP6 SWAP5 SWAP4 SWAP3 SWAP2 SWAP1 PUSH2 0x3662 JUMP JUMPDEST PUSH1 0x0 PUSH1 0x40 MLOAD DUP1 DUP4 SUB DUP2 PUSH1 0x0 DUP8 DUP1 EXTCODESIZE ISZERO DUP1 ISZERO PUSH2 0xEDC JUMPI PUSH1 0x0 DUP1 REVERT JUMPDEST POP GAS CALL ISZERO DUP1 ISZERO PUSH2 0xEF0 JUMPI RETURNDATASIZE PUSH1 0x0 DUP1 RETURNDATACOPY RETURNDATASIZE PUSH1 0x0 REVERT JUMPDEST POP POP POP POP POP POP POP POP POP POP POP POP POP POP POP POP POP JUMP JUMPDEST DUP4 DUP4 DUP4 PUSH1 0x3 PUSH1 0x0 DUP5 DUP2 MSTORE PUSH1 0x20 ADD SWAP1 DUP2 MSTORE PUSH1 0x20 ADD PUSH1 0x0 KECCAK256 PUSH1 0x0 DUP4 DUP2 MSTORE PUSH1 0x20 ADD SWAP1 DUP2 MSTORE PUSH1 0x20 ADD PUSH1 0x0 KECCAK256 PUSH1 0x0 DUP3 DUP2 MSTORE PUSH1 0x20 ADD SWAP1 DUP2 MSTORE PUSH1 0x20 ADD PUSH1 0x0 KECCAK256 PUSH1 0x5 ADD PUSH1 0x0 SWAP1 SLOAD SWAP1 PUSH2 0x100 EXP SWAP1 DIV PUSH1 0xFF AND PUSH2 0xF8B JUMPI PUSH1 0x40 MLOAD PUSH32 0x8C379A000000000000000000000000000000000000000000000000000000000 DUP2 MSTORE PUSH1 0x4 ADD PUSH2 0xF82 SWAP1 PUSH2 0x3522 JUMP JUMPDEST PUSH1 0x40 MLOAD DUP1 SWAP2 SUB SWAP1 REVERT JUMPDEST DUP7 DUP7 DUP7 PUSH1 0x0 DUP1 PUSH1 0x7 DUP2 GT ISZERO PUSH2 0xFA3 JUMPI PUSH2 0xFA2 PUSH2 0x3AAE JUMP JUMPDEST JUMPDEST PUSH1 0x3 PUSH1 0x0 DUP7 DUP2 MSTORE PUSH1 0x20 ADD SWAP1 DUP2 MSTORE PUSH1 0x20 ADD PUSH1 0x0 KECCAK256 PUSH1 0x0 DUP6 DUP2 MSTORE PUSH1 0x20 ADD SWAP1 DUP2 MSTORE PUSH1 0x20 ADD PUSH1 0x0 KECCAK256 PUSH1 0x0 DUP5 DUP2 MSTORE PUSH1 0x20 ADD SWAP1 DUP2 MSTORE PUSH1 0x20 ADD PUSH1 0x0 KECCAK256 PUSH1 0x5 ADD PUSH1 0x1 SWAP1 SLOAD SWAP1 PUSH2 0x100 EXP SWAP1 DIV PUSH1 0xFF AND PUSH1 0x7 DUP2 GT ISZERO PUSH2 0xFFB JUMPI PUSH2 0xFFA PUSH2 0x3AAE JUMP JUMPDEST JUMPDEST EQ PUSH2 0x103B JUMPI PUSH1 0x40 MLOAD PUSH32 0x8C379A000000000000000000000000000000000000000000000000000000000 DUP2 MSTORE PUSH1 0x4 ADD PUSH2 0x1032 SWAP1 PUSH2 0x34C2 JUMP JUMPDEST PUSH1 0x40 MLOAD DUP1 SWAP2 SUB SWAP1 REVERT JUMPDEST PUSH1 0x0 PUSH1 0x3 PUSH1 0x0 DUP14 DUP2 MSTORE PUSH1 0x20 ADD SWAP1 DUP2 MSTORE PUSH1 0x20 ADD PUSH1 0x0 KECCAK256 PUSH1 0x0 DUP13 DUP2 MSTORE PUSH1 0x20 ADD SWAP1 DUP2 MSTORE PUSH1 0x20 ADD PUSH1 0x0 KECCAK256 PUSH1 0x0 DUP12 DUP2 MSTORE PUSH1 0x20 ADD SWAP1 DUP2 MSTORE PUSH1 0x20 ADD PUSH1 0x0 KECCAK256 PUSH1 0x5 ADD PUSH1 0x0 PUSH2 0x100 EXP DUP2 SLOAD DUP2 PUSH1 0xFF MUL NOT AND SWAP1 DUP4 ISZERO ISZERO MUL OR SWAP1 SSTORE POP PUSH1 0x4 PUSH1 0x0 DUP2 SLOAD DUP1 SWAP3 SWAP2 SWAP1 PUSH2 0x109F SWAP1 PUSH2 0x3950 JUMP JUMPDEST SWAP2 SWAP1 POP SSTORE POP PUSH2 0x10B1 DUP12 DUP12 DUP12 PUSH1 0x7 PUSH2 0x287D JUMP JUMPDEST PUSH32 0x2B2605EE52ACE237F72E6005EEE79180EA3B6151BD8848A6BE5E3C224B8A6EC6 DUP12 DUP12 DUP12 PUSH1 0x40 MLOAD PUSH2 0x10E4 SWAP4 SWAP3 SWAP2 SWAP1 PUSH2 0x35A6 JUMP JUMPDEST PUSH1 0x40 MLOAD DUP1 SWAP2 SUB SWAP1 LOG1 POP POP POP POP POP POP POP POP POP POP POP JUMP JUMPDEST DUP4 DUP4 DUP4 PUSH1 0x3 PUSH1 0x0 DUP5 DUP2 MSTORE PUSH1 0x20 ADD SWAP1 DUP2 MSTORE PUSH1 0x20 ADD PUSH1 0x0 KECCAK256 PUSH1 0x0 DUP4 DUP2 MSTORE PUSH1 0x20 ADD SWAP1 DUP2 MSTORE PUSH1 0x20 ADD PUSH1 0x0 KECCAK256 PUSH1 0x0 DUP3 DUP2 MSTORE PUSH1 0x20 ADD SWAP1 DUP2 MSTORE PUSH1 0x20 ADD PUSH1 0x0 KECCAK256 PUSH1 0x5 ADD PUSH1 0x0 SWAP1 SLOAD SWAP1 PUSH2 0x100 EXP SWAP1 DIV PUSH1 0xFF AND PUSH2 0x1181 JUMPI PUSH1 0x40 MLOAD PUSH32 0x8C379A000000000000000000000000000000000000000000000000000000000 DUP2 MSTORE PUSH1 0x4 ADD PUSH2 0x1178 SWAP1 PUSH2 0x3522 JUMP JUMPDEST PUSH1 0x40 MLOAD DUP1 SWAP2 SUB SWAP1 REVERT JUMPDEST PUSH1 0x0 DUP1 PUSH1 0x0 SWAP1 SLOAD SWAP1 PUSH2 0x100 EXP SWAP1 DIV PUSH20 0xFFFFFFFFFFFFFFFFFFFFFFFFFFFFFFFFFFFFFFFF AND PUSH20 0xFFFFFFFFFFFFFFFFFFFFFFFFFFFFFFFFFFFFFFFF AND PUSH4 0x366CEF2 DUP10 DUP10 DUP10 PUSH1 0x40 MLOAD DUP5 PUSH4 0xFFFFFFFF AND PUSH1 0xE0 SHL DUP2 MSTORE PUSH1 0x4 ADD PUSH2 0x11E1 SWAP4 SWAP3 SWAP2 SWAP1 PUSH2 0x35A6 JUMP JUMPDEST PUSH1 0x20 PUSH1 0x40 MLOAD DUP1 DUP4 SUB DUP2 DUP7 DUP1 EXTCODESIZE ISZERO DUP1 ISZERO PUSH2 0x11F9 JUMPI PUSH1 0x0 DUP1 REVERT JUMPDEST POP GAS STATICCALL ISZERO DUP1 ISZERO PUSH2 0x120D JUMPI RETURNDATASIZE PUSH1 0x0 DUP1 RETURNDATACOPY RETURNDATASIZE PUSH1 0x0 REVERT JUMPDEST POP POP POP POP PUSH1 0x40 MLOAD RETURNDATASIZE PUSH1 0x1F NOT PUSH1 0x1F DUP3 ADD AND DUP3 ADD DUP1 PUSH1 0x40 MSTORE POP DUP2 ADD SWAP1 PUSH2 0x1231 SWAP2 SWAP1 PUSH2 0x2C55 JUMP JUMPDEST SWAP1 POP PUSH1 0x0 PUSH1 0x3 PUSH1 0x0 DUP11 DUP2 MSTORE PUSH1 0x20 ADD SWAP1 DUP2 MSTORE PUSH1 0x20 ADD PUSH1 0x0 KECCAK256 PUSH1 0x0 DUP10 DUP2 MSTORE PUSH1 0x20 ADD SWAP1 DUP2 MSTORE PUSH1 0x20 ADD PUSH1 0x0 KECCAK256 PUSH1 0x0 DUP9 DUP2 MSTORE PUSH1 0x20 ADD SWAP1 DUP2 MSTORE PUSH1 0x20 ADD PUSH1 0x0 KECCAK256 PUSH1 0x8 ADD PUSH1 0x0 SWAP1 SLOAD SWAP1 PUSH2 0x100 EXP SWAP1 DIV PUSH20 0xFFFFFFFFFFFFFFFFFFFFFFFFFFFFFFFFFFFFFFFF AND SWAP1 POP PUSH1 0x0 PUSH1 0x3 PUSH1 0x0 DUP12 DUP2 MSTORE PUSH1 0x20 ADD SWAP1 DUP2 MSTORE PUSH1 0x20 ADD PUSH1 0x0 KECCAK256 PUSH1 0x0 DUP11 DUP2 MSTORE PUSH1 0x20 ADD SWAP1 DUP2 MSTORE PUSH1 0x20 ADD PUSH1 0x0 KECCAK256 PUSH1 0x0 DUP10 DUP2 MSTORE PUSH1 0x20 ADD SWAP1 DUP2 MSTORE PUSH1 0x20 ADD PUSH1 0x0 KECCAK256 PUSH1 0x7 ADD PUSH1 0x0 SWAP1 SLOAD SWAP1 PUSH2 0x100 EXP SWAP1 DIV PUSH20 0xFFFFFFFFFFFFFFFFFFFFFFFFFFFFFFFFFFFFFFFF AND SWAP1 POP PUSH1 0x0 PUSH1 0x3 PUSH1 0x0 DUP13 DUP2 MSTORE PUSH1 0x20 ADD SWAP1 DUP2 MSTORE PUSH1 0x20 ADD PUSH1 0x0 KECCAK256 PUSH1 0x0 DUP12 DUP2 MSTORE PUSH1 0x20 ADD SWAP1 DUP2 MSTORE PUSH1 0x20 ADD PUSH1 0x0 KECCAK256 PUSH1 0x0 DUP11 DUP2 MSTORE PUSH1 0x20 ADD SWAP1 DUP2 MSTORE PUSH1 0x20 ADD PUSH1 0x0 KECCAK256 PUSH1 0x6 ADD SLOAD SWAP1 POP PUSH1 0x2 DUP5 EQ ISZERO PUSH2 0x13C1 JUMPI DUP1 DUP9 EQ PUSH2 0x1375 JUMPI PUSH1 0x40 MLOAD PUSH32 0x8C379A000000000000000000000000000000000000000000000000000000000 DUP2 MSTORE PUSH1 0x4 ADD PUSH2 0x136C SWAP1 PUSH2 0x34A2 JUMP JUMPDEST PUSH1 0x40 MLOAD DUP1 SWAP2 SUB SWAP1 REVERT JUMPDEST DUP3 PUSH20 0xFFFFFFFFFFFFFFFFFFFFFFFFFFFFFFFFFFFFFFFF AND PUSH2 0x8FC CALLVALUE SWAP1 DUP2 ISZERO MUL SWAP1 PUSH1 0x40 MLOAD PUSH1 0x0 PUSH1 0x40 MLOAD DUP1 DUP4 SUB DUP2 DUP6 DUP9 DUP9 CALL SWAP4 POP POP POP POP ISZERO DUP1 ISZERO PUSH2 0x13BB JUMPI RETURNDATASIZE PUSH1 0x0 DUP1 RETURNDATACOPY RETURNDATASIZE PUSH1 0x0 REVERT JUMPDEST POP PUSH2 0x149E JUMP JUMPDEST PUSH1 0x2 DUP2 PUSH2 0x13CE SWAP2 SWAP1 PUSH2 0x3814 JUMP JUMPDEST DUP9 EQ PUSH2 0x140F JUMPI PUSH1 0x40 MLOAD PUSH32 0x8C379A000000000000000000000000000000000000000000000000000000000 DUP2 MSTORE PUSH1 0x4 ADD PUSH2 0x1406 SWAP1 PUSH2 0x34A2 JUMP JUMPDEST PUSH1 0x40 MLOAD DUP1 SWAP2 SUB SWAP1 REVERT JUMPDEST DUP3 PUSH20 0xFFFFFFFFFFFFFFFFFFFFFFFFFFFFFFFFFFFFFFFF AND PUSH2 0x8FC CALLVALUE SWAP1 DUP2 ISZERO MUL SWAP1 PUSH1 0x40 MLOAD PUSH1 0x0 PUSH1 0x40 MLOAD DUP1 DUP4 SUB DUP2 DUP6 DUP9 DUP9 CALL SWAP4 POP POP POP POP ISZERO DUP1 ISZERO PUSH2 0x1455 JUMPI RETURNDATASIZE PUSH1 0x0 DUP1 RETURNDATACOPY RETURNDATASIZE PUSH1 0x0 REVERT JUMPDEST POP DUP2 PUSH20 0xFFFFFFFFFFFFFFFFFFFFFFFFFFFFFFFFFFFFFFFF AND PUSH2 0x8FC CALLVALUE SWAP1 DUP2 ISZERO MUL SWAP1 PUSH1 0x40 MLOAD PUSH1 0x0 PUSH1 0x40 MLOAD DUP1 DUP4 SUB DUP2 DUP6 DUP9 DUP9 CALL SWAP4 POP POP POP POP ISZERO DUP1 ISZERO PUSH2 0x149C JUMPI RETURNDATASIZE PUSH1 0x0 DUP1 RETURNDATACOPY RETURNDATASIZE PUSH1 0x0 REVERT JUMPDEST POP JUMPDEST POP POP POP POP POP POP POP POP POP POP POP JUMP JUMPDEST PUSH1 0x0 PUSH1 0x1 PUSH1 0x0 SWAP1 SLOAD SWAP1 PUSH2 0x100 EXP SWAP1 DIV PUSH20 0xFFFFFFFFFFFFFFFFFFFFFFFFFFFFFFFFFFFFFFFF AND PUSH20 0xFFFFFFFFFFFFFFFFFFFFFFFFFFFFFFFFFFFFFFFF AND PUSH4 0x664FC0CD DUP5 DUP5 PUSH1 0x40 MLOAD DUP4 PUSH4 0xFFFFFFFF AND PUSH1 0xE0 SHL DUP2 MSTORE PUSH1 0x4 ADD PUSH2 0x150A SWAP3 SWAP2 SWAP1 PUSH2 0x357D JUMP JUMPDEST PUSH1 0x20 PUSH1 0x40 MLOAD DUP1 DUP4 SUB DUP2 DUP7 DUP1 EXTCODESIZE ISZERO DUP1 ISZERO PUSH2 0x1522 JUMPI PUSH1 0x0 DUP1 REVERT JUMPDEST POP GAS STATICCALL ISZERO DUP1 ISZERO PUSH2 0x1536 JUMPI RETURNDATASIZE PUSH1 0x0 DUP1 RETURNDATACOPY RETURNDATASIZE PUSH1 0x0 REVERT JUMPDEST POP POP POP POP PUSH1 0x40 MLOAD RETURNDATASIZE PUSH1 0x1F NOT PUSH1 0x1F DUP3 ADD AND DUP3 ADD DUP1 PUSH1 0x40 MSTORE POP DUP2 ADD SWAP1 PUSH2 0x155A SWAP2 SWAP1 PUSH2 0x2C55 JUMP JUMPDEST SWAP1 POP SWAP3 SWAP2 POP POP JUMP JUMPDEST PUSH1 0x0 JUMPDEST PUSH1 0x5 SLOAD DUP2 LT ISZERO PUSH2 0x16DD JUMPI PUSH1 0x0 PUSH1 0x7 DUP2 GT ISZERO PUSH2 0x1583 JUMPI PUSH2 0x1582 PUSH2 0x3AAE JUMP JUMPDEST JUMPDEST PUSH1 0x3 PUSH1 0x0 DUP7 DUP2 MSTORE PUSH1 0x20 ADD SWAP1 DUP2 MSTORE PUSH1 0x20 ADD PUSH1 0x0 KECCAK256 PUSH1 0x0 DUP6 DUP2 MSTORE PUSH1 0x20 ADD SWAP1 DUP2 MSTORE PUSH1 0x20 ADD PUSH1 0x0 KECCAK256 PUSH1 0x0 DUP4 DUP2 MSTORE PUSH1 0x20 ADD SWAP1 DUP2 MSTORE PUSH1 0x20 ADD PUSH1 0x0 KECCAK256 PUSH1 0x5 ADD PUSH1 0x1 SWAP1 SLOAD SWAP1 PUSH2 0x100 EXP SWAP1 DIV PUSH1 0xFF AND PUSH1 0x7 DUP2 GT ISZERO PUSH2 0x15DB JUMPI PUSH2 0x15DA PUSH2 0x3AAE JUMP JUMPDEST JUMPDEST EQ ISZERO DUP1 PUSH2 0x1631 JUMPI POP PUSH1 0x0 ISZERO ISZERO PUSH1 0x3 PUSH1 0x0 DUP7 DUP2 MSTORE PUSH1 0x20 ADD SWAP1 DUP2 MSTORE PUSH1 0x20 ADD PUSH1 0x0 KECCAK256 PUSH1 0x0 DUP6 DUP2 MSTORE PUSH1 0x20 ADD SWAP1 DUP2 MSTORE PUSH1 0x20 ADD PUSH1 0x0 KECCAK256 PUSH1 0x0 DUP4 DUP2 MSTORE PUSH1 0x20 ADD SWAP1 DUP2 MSTORE PUSH1 0x20 ADD PUSH1 0x0 KECCAK256 PUSH1 0x5 ADD PUSH1 0x0 SWAP1 SLOAD SWAP1 PUSH2 0x100 EXP SWAP1 DIV PUSH1 0xFF AND ISZERO ISZERO EQ JUMPDEST ISZERO PUSH2 0x163B JUMPI PUSH2 0x16CA JUMP JUMPDEST DUP2 PUSH1 0x3 PUSH1 0x0 DUP7 DUP2 MSTORE PUSH1 0x20 ADD SWAP1 DUP2 MSTORE PUSH1 0x20 ADD PUSH1 0x0 KECCAK256 PUSH1 0x0 DUP6 DUP2 MSTORE PUSH1 0x20 ADD SWAP1 DUP2 MSTORE PUSH1 0x20 ADD PUSH1 0x0 KECCAK256 PUSH1 0x0 DUP4 DUP2 MSTORE PUSH1 0x20 ADD SWAP1 DUP2 MSTORE PUSH1 0x20 ADD PUSH1 0x0 KECCAK256 PUSH1 0x8 ADD PUSH1 0x0 PUSH2 0x100 EXP DUP2 SLOAD DUP2 PUSH20 0xFFFFFFFFFFFFFFFFFFFFFFFFFFFFFFFFFFFFFFFF MUL NOT AND SWAP1 DUP4 PUSH20 0xFFFFFFFFFFFFFFFFFFFFFFFFFFFFFFFFFFFFFFFF AND MUL OR SWAP1 SSTORE POP PUSH2 0x16BF DUP5 DUP5 DUP4 PUSH1 0x2 PUSH2 0x287D JUMP JUMPDEST PUSH2 0x16C9 DUP5 DUP5 PUSH2 0x29B3 JUMP JUMPDEST JUMPDEST DUP1 DUP1 PUSH2 0x16D5 SWAP1 PUSH2 0x39DD JUMP JUMPDEST SWAP2 POP POP PUSH2 0x1565 JUMP JUMPDEST POP POP POP POP JUMP JUMPDEST PUSH1 0x0 DUP1 PUSH1 0x0 SWAP1 SLOAD SWAP1 PUSH2 0x100 EXP SWAP1 DIV PUSH20 0xFFFFFFFFFFFFFFFFFFFFFFFFFFFFFFFFFFFFFFFF AND PUSH20 0xFFFFFFFFFFFFFFFFFFFFFFFFFFFFFFFFFFFFFFFF AND PUSH4 0x9AC78879 DUP6 DUP6 DUP6 PUSH1 0x40 MLOAD DUP5 PUSH4 0xFFFFFFFF AND PUSH1 0xE0 SHL DUP2 MSTORE PUSH1 0x4 ADD PUSH2 0x1743 SWAP4 SWAP3 SWAP2 SWAP1 PUSH2 0x35A6 JUMP JUMPDEST PUSH1 0x20 PUSH1 0x40 MLOAD DUP1 DUP4 SUB DUP2 DUP7 DUP1 EXTCODESIZE ISZERO DUP1 ISZERO PUSH2 0x175B JUMPI PUSH1 0x0 DUP1 REVERT JUMPDEST POP GAS STATICCALL ISZERO DUP1 ISZERO PUSH2 0x176F JUMPI RETURNDATASIZE PUSH1 0x0 DUP1 RETURNDATACOPY RETURNDATASIZE PUSH1 0x0 REVERT JUMPDEST POP POP POP POP PUSH1 0x40 MLOAD RETURNDATASIZE PUSH1 0x1F NOT PUSH1 0x1F DUP3 ADD AND DUP3 ADD DUP1 PUSH1 0x40 MSTORE POP DUP2 ADD SWAP1 PUSH2 0x1793 SWAP2 SWAP1 PUSH2 0x2C55 JUMP JUMPDEST SWAP1 POP SWAP4 SWAP3 POP POP POP JUMP JUMPDEST PUSH1 0x60 DUP4 DUP4 DUP4 PUSH1 0x3 PUSH1 0x0 DUP5 DUP2 MSTORE PUSH1 0x20 ADD SWAP1 DUP2 MSTORE PUSH1 0x20 ADD PUSH1 0x0 KECCAK256 PUSH1 0x0 DUP4 DUP2 MSTORE PUSH1 0x20 ADD SWAP1 DUP2 MSTORE PUSH1 0x20 ADD PUSH1 0x0 KECCAK256 PUSH1 0x0 DUP3 DUP2 MSTORE PUSH1 0x20 ADD SWAP1 DUP2 MSTORE PUSH1 0x20 ADD PUSH1 0x0 KECCAK256 PUSH1 0x5 ADD PUSH1 0x0 SWAP1 SLOAD SWAP1 PUSH2 0x100 EXP SWAP1 DIV PUSH1 0xFF AND PUSH2 0x1826 JUMPI PUSH1 0x40 MLOAD PUSH32 0x8C379A000000000000000000000000000000000000000000000000000000000 DUP2 MSTORE PUSH1 0x4 ADD PUSH2 0x181D SWAP1 PUSH2 0x3522 JUMP JUMPDEST PUSH1 0x40 MLOAD DUP1 SWAP2 SUB SWAP1 REVERT JUMPDEST PUSH1 0x3 PUSH1 0x0 DUP9 DUP2 MSTORE PUSH1 0x20 ADD SWAP1 DUP2 MSTORE PUSH1 0x20 ADD PUSH1 0x0 KECCAK256 PUSH1 0x0 DUP8 DUP2 MSTORE PUSH1 0x20 ADD SWAP1 DUP2 MSTORE PUSH1 0x20 ADD PUSH1 0x0 KECCAK256 PUSH1 0x0 DUP7 DUP2 MSTORE PUSH1 0x20 ADD SWAP1 DUP2 MSTORE PUSH1 0x20 ADD PUSH1 0x0 KECCAK256 PUSH1 0x3 ADD DUP1 SLOAD PUSH2 0x1869 SWAP1 PUSH2 0x397A JUMP JUMPDEST DUP1 PUSH1 0x1F ADD PUSH1 0x20 DUP1 SWAP2 DIV MUL PUSH1 0x20 ADD PUSH1 0x40 MLOAD SWAP1 DUP2 ADD PUSH1 0x40 MSTORE DUP1 SWAP3 SWAP2 SWAP1 DUP2 DUP2 MSTORE PUSH1 0x20 ADD DUP3 DUP1 SLOAD PUSH2 0x1895 SWAP1 PUSH2 0x397A JUMP JUMPDEST DUP1 ISZERO PUSH2 0x18E2 JUMPI DUP1 PUSH1 0x1F LT PUSH2 0x18B7 JUMPI PUSH2 0x100 DUP1 DUP4 SLOAD DIV MUL DUP4 MSTORE SWAP2 PUSH1 0x20 ADD SWAP2 PUSH2 0x18E2 JUMP JUMPDEST DUP3 ADD SWAP2 SWAP1 PUSH1 0x0 MSTORE PUSH1 0x20 PUSH1 0x0 KECCAK256 SWAP1 JUMPDEST DUP2 SLOAD DUP2 MSTORE SWAP1 PUSH1 0x1 ADD SWAP1 PUSH1 0x20 ADD DUP1 DUP4 GT PUSH2 0x18C5 JUMPI DUP3 SWAP1 SUB PUSH1 0x1F AND DUP3 ADD SWAP2 JUMPDEST POP POP POP POP POP SWAP4 POP POP POP POP SWAP4 SWAP3 POP POP POP JUMP JUMPDEST DUP4 DUP4 DUP4 PUSH1 0x3 PUSH1 0x0 DUP5 DUP2 MSTORE PUSH1 0x20 ADD SWAP1 DUP2 MSTORE PUSH1 0x20 ADD PUSH1 0x0 KECCAK256 PUSH1 0x0 DUP4 DUP2 MSTORE PUSH1 0x20 ADD SWAP1 DUP2 MSTORE PUSH1 0x20 ADD PUSH1 0x0 KECCAK256 PUSH1 0x0 DUP3 DUP2 MSTORE PUSH1 0x20 ADD SWAP1 DUP2 MSTORE PUSH1 0x20 ADD PUSH1 0x0 KECCAK256 PUSH1 0x5 ADD PUSH1 0x0 SWAP1 SLOAD SWAP1 PUSH2 0x100 EXP SWAP1 DIV PUSH1 0xFF AND PUSH2 0x197B JUMPI PUSH1 0x40 MLOAD PUSH32 0x8C379A000000000000000000000000000000000000000000000000000000000 DUP2 MSTORE PUSH1 0x4 ADD PUSH2 0x1972 SWAP1 PUSH2 0x3522 JUMP JUMPDEST PUSH1 0x40 MLOAD DUP1 SWAP2 SUB SWAP1 REVERT JUMPDEST DUP7 DUP7 DUP7 PUSH1 0x4 DUP1 PUSH1 0x7 DUP2 GT ISZERO PUSH2 0x1993 JUMPI PUSH2 0x1992 PUSH2 0x3AAE JUMP JUMPDEST JUMPDEST PUSH1 0x3 PUSH1 0x0 DUP7 DUP2 MSTORE PUSH1 0x20 ADD SWAP1 DUP2 MSTORE PUSH1 0x20 ADD PUSH1 0x0 KECCAK256 PUSH1 0x0 DUP6 DUP2 MSTORE PUSH1 0x20 ADD SWAP1 DUP2 MSTORE PUSH1 0x20 ADD PUSH1 0x0 KECCAK256 PUSH1 0x0 DUP5 DUP2 MSTORE PUSH1 0x20 ADD SWAP1 DUP2 MSTORE PUSH1 0x20 ADD PUSH1 0x0 KECCAK256 PUSH1 0x5 ADD PUSH1 0x1 SWAP1 SLOAD SWAP1 PUSH2 0x100 EXP SWAP1 DIV PUSH1 0xFF AND PUSH1 0x7 DUP2 GT ISZERO PUSH2 0x19EB JUMPI PUSH2 0x19EA PUSH2 0x3AAE JUMP JUMPDEST JUMPDEST EQ PUSH2 0x1A2B JUMPI PUSH1 0x40 MLOAD PUSH32 0x8C379A000000000000000000000000000000000000000000000000000000000 DUP2 MSTORE PUSH1 0x4 ADD PUSH2 0x1A22 SWAP1 PUSH2 0x34C2 JUMP JUMPDEST PUSH1 0x40 MLOAD DUP1 SWAP2 SUB SWAP1 REVERT JUMPDEST PUSH2 0x1A38 DUP12 DUP12 DUP12 PUSH1 0x5 PUSH2 0x287D JUMP JUMPDEST PUSH1 0x0 PUSH1 0x3 PUSH1 0x0 DUP14 DUP2 MSTORE PUSH1 0x20 ADD SWAP1 DUP2 MSTORE PUSH1 0x20 ADD PUSH1 0x0 KECCAK256 PUSH1 0x0 DUP13 DUP2 MSTORE PUSH1 0x20 ADD SWAP1 DUP2 MSTORE PUSH1 0x20 ADD PUSH1 0x0 KECCAK256 PUSH1 0x0 DUP12 DUP2 MSTORE PUSH1 0x20 ADD SWAP1 DUP2 MSTORE PUSH1 0x20 ADD PUSH1 0x0 KECCAK256 PUSH1 0x8 ADD PUSH1 0x0 SWAP1 SLOAD SWAP1 PUSH2 0x100 EXP SWAP1 DIV PUSH20 0xFFFFFFFFFFFFFFFFFFFFFFFFFFFFFFFFFFFFFFFF AND SWAP1 POP PUSH1 0x0 PUSH1 0x3 PUSH1 0x0 DUP15 DUP2 MSTORE PUSH1 0x20 ADD SWAP1 DUP2 MSTORE PUSH1 0x20 ADD PUSH1 0x0 KECCAK256 PUSH1 0x0 DUP14 DUP2 MSTORE PUSH1 0x20 ADD SWAP1 DUP2 MSTORE PUSH1 0x20 ADD PUSH1 0x0 KECCAK256 PUSH1 0x0 DUP13 DUP2 MSTORE PUSH1 0x20 ADD SWAP1 DUP2 MSTORE PUSH1 0x20 ADD PUSH1 0x0 KECCAK256 PUSH1 0x6 ADD SLOAD SWAP1 POP DUP1 CALLVALUE EQ PUSH2 0x1B14 JUMPI PUSH1 0x40 MLOAD PUSH32 0x8C379A000000000000000000000000000000000000000000000000000000000 DUP2 MSTORE PUSH1 0x4 ADD PUSH2 0x1B0B SWAP1 PUSH2 0x34A2 JUMP JUMPDEST PUSH1 0x40 MLOAD DUP1 SWAP2 SUB SWAP1 REVERT JUMPDEST DUP2 PUSH20 0xFFFFFFFFFFFFFFFFFFFFFFFFFFFFFFFFFFFFFFFF AND PUSH2 0x8FC CALLVALUE SWAP1 DUP2 ISZERO MUL SWAP1 PUSH1 0x40 MLOAD PUSH1 0x0 PUSH1 0x40 MLOAD DUP1 DUP4 SUB DUP2 DUP6 DUP9 DUP9 CALL SWAP4 POP POP POP POP ISZERO DUP1 ISZERO PUSH2 0x1B5A JUMPI RETURNDATASIZE PUSH1 0x0 DUP1 RETURNDATACOPY RETURNDATASIZE PUSH1 0x0 REVERT JUMPDEST POP POP POP POP POP POP POP POP POP POP POP POP POP POP JUMP JUMPDEST PUSH1 0x0 PUSH1 0x3 PUSH1 0x0 DUP6 DUP2 MSTORE PUSH1 0x20 ADD SWAP1 DUP2 MSTORE PUSH1 0x20 ADD PUSH1 0x0 KECCAK256 PUSH1 0x0 DUP5 DUP2 MSTORE PUSH1 0x20 ADD SWAP1 DUP2 MSTORE PUSH1 0x20 ADD PUSH1 0x0 KECCAK256 PUSH1 0x0 DUP4 DUP2 MSTORE PUSH1 0x20 ADD SWAP1 DUP2 MSTORE PUSH1 0x20 ADD PUSH1 0x0 KECCAK256 PUSH1 0x6 ADD SLOAD SWAP1 POP SWAP4 SWAP3 POP POP POP JUMP JUMPDEST DUP3 PUSH1 0x0 DUP2 MLOAD GT PUSH2 0x1BF3 JUMPI PUSH1 0x40 MLOAD PUSH32 0x8C379A000000000000000000000000000000000000000000000000000000000 DUP2 MSTORE PUSH1 0x4 ADD PUSH2 0x1BEA SWAP1 PUSH2 0x3542 JUMP JUMPDEST PUSH1 0x40 MLOAD DUP1 SWAP2 SUB SWAP1 REVERT JUMPDEST DUP3 PUSH1 0x0 DUP2 MLOAD GT PUSH2 0x1C38 JUMPI PUSH1 0x40 MLOAD PUSH32 0x8C379A000000000000000000000000000000000000000000000000000000000 DUP2 MSTORE PUSH1 0x4 ADD PUSH2 0x1C2F SWAP1 PUSH2 0x3542 JUMP JUMPDEST PUSH1 0x40 MLOAD DUP1 SWAP2 SUB SWAP1 REVERT JUMPDEST PUSH1 0x0 PUSH1 0x3 PUSH1 0x0 DUP10 DUP2 MSTORE PUSH1 0x20 ADD SWAP1 DUP2 MSTORE PUSH1 0x20 ADD PUSH1 0x0 KECCAK256 PUSH1 0x0 DUP9 DUP2 MSTORE PUSH1 0x20 ADD SWAP1 DUP2 MSTORE PUSH1 0x20 ADD PUSH1 0x0 KECCAK256 PUSH1 0x0 PUSH1 0x5 SLOAD DUP2 MSTORE PUSH1 0x20 ADD SWAP1 DUP2 MSTORE PUSH1 0x20 ADD PUSH1 0x0 KECCAK256 SWAP1 POP DUP8 DUP2 PUSH1 0x0 ADD DUP2 SWAP1 SSTORE POP DUP7 DUP2 PUSH1 0x1 ADD DUP2 SWAP1 SSTORE POP PUSH1 0x5 SLOAD DUP2 PUSH1 0x2 ADD DUP2 SWAP1 SSTORE POP DUP6 DUP2 PUSH1 0x3 ADD SWAP1 DUP1 MLOAD SWAP1 PUSH1 0x20 ADD SWAP1 PUSH2 0x1CA8 SWAP3 SWAP2 SWAP1 PUSH2 0x2AAC JUMP JUMPDEST POP DUP5 DUP2 PUSH1 0x4 ADD SWAP1 DUP1 MLOAD SWAP1 PUSH1 0x20 ADD SWAP1 PUSH2 0x1CC1 SWAP3 SWAP2 SWAP1 PUSH2 0x2AAC JUMP JUMPDEST POP PUSH1 0x1 DUP2 PUSH1 0x5 ADD PUSH1 0x0 PUSH2 0x100 EXP DUP2 SLOAD DUP2 PUSH1 0xFF MUL NOT AND SWAP1 DUP4 ISZERO ISZERO MUL OR SWAP1 SSTORE POP PUSH1 0x0 DUP2 PUSH1 0x5 ADD PUSH1 0x1 PUSH2 0x100 EXP DUP2 SLOAD DUP2 PUSH1 0xFF MUL NOT AND SWAP1 DUP4 PUSH1 0x7 DUP2 GT ISZERO PUSH2 0x1D07 JUMPI PUSH2 0x1D06 PUSH2 0x3AAE JUMP JUMPDEST JUMPDEST MUL OR SWAP1 SSTORE POP CALLVALUE DUP2 PUSH1 0x6 ADD DUP2 SWAP1 SSTORE POP DUP4 DUP2 PUSH1 0x7 ADD PUSH1 0x0 PUSH2 0x100 EXP DUP2 SLOAD DUP2 PUSH20 0xFFFFFFFFFFFFFFFFFFFFFFFFFFFFFFFFFFFFFFFF MUL NOT AND SWAP1 DUP4 PUSH20 0xFFFFFFFFFFFFFFFFFFFFFFFFFFFFFFFFFFFFFFFF AND MUL OR SWAP1 SSTORE POP PUSH32 0x70D8B12D438DD130D28072C77C8047D9697B630B8DCD969123645998AD67D561 DUP9 DUP9 PUSH1 0x5 SLOAD DUP10 DUP10 PUSH1 0x40 MLOAD PUSH2 0x1D91 SWAP6 SWAP5 SWAP4 SWAP3 SWAP2 SWAP1 PUSH2 0x36B5 JUMP JUMPDEST PUSH1 0x40 MLOAD DUP1 SWAP2 SUB SWAP1 LOG1 PUSH1 0x4 PUSH1 0x0 DUP2 SLOAD DUP1 SWAP3 SWAP2 SWAP1 PUSH2 0x1DAC SWAP1 PUSH2 0x39DD JUMP JUMPDEST SWAP2 SWAP1 POP SSTORE POP PUSH1 0x5 PUSH1 0x0 DUP2 SLOAD DUP1 SWAP3 SWAP2 SWAP1 PUSH2 0x1DC4 SWAP1 PUSH2 0x39DD JUMP JUMPDEST SWAP2 SWAP1 POP SSTORE POP PUSH1 0x0 PUSH1 0x2 PUSH1 0x0 SWAP1 SLOAD SWAP1 PUSH2 0x100 EXP SWAP1 DIV PUSH20 0xFFFFFFFFFFFFFFFFFFFFFFFFFFFFFFFFFFFFFFFF AND SWAP1 POP DUP1 PUSH20 0xFFFFFFFFFFFFFFFFFFFFFFFFFFFFFFFFFFFFFFFF AND PUSH2 0x8FC CALLVALUE SWAP1 DUP2 ISZERO MUL SWAP1 PUSH1 0x40 MLOAD PUSH1 0x0 PUSH1 0x40 MLOAD DUP1 DUP4 SUB DUP2 DUP6 DUP9 DUP9 CALL SWAP4 POP POP POP POP ISZERO DUP1 ISZERO PUSH2 0x1E36 JUMPI RETURNDATASIZE PUSH1 0x0 DUP1 RETURNDATACOPY RETURNDATASIZE PUSH1 0x0 REVERT JUMPDEST POP POP POP POP POP POP POP POP POP POP JUMP JUMPDEST DUP6 DUP6 DUP6 PUSH1 0x3 PUSH1 0x0 DUP5 DUP2 MSTORE PUSH1 0x20 ADD SWAP1 DUP2 MSTORE PUSH1 0x20 ADD PUSH1 0x0 KECCAK256 PUSH1 0x0 DUP4 DUP2 MSTORE PUSH1 0x20 ADD SWAP1 DUP2 MSTORE PUSH1 0x20 ADD PUSH1 0x0 KECCAK256 PUSH1 0x0 DUP3 DUP2 MSTORE PUSH1 0x20 ADD SWAP1 DUP2 MSTORE PUSH1 0x20 ADD PUSH1 0x0 KECCAK256 PUSH1 0x5 ADD PUSH1 0x0 SWAP1 SLOAD SWAP1 PUSH2 0x100 EXP SWAP1 DIV PUSH1 0xFF AND PUSH2 0x1ECA JUMPI PUSH1 0x40 MLOAD PUSH32 0x8C379A000000000000000000000000000000000000000000000000000000000 DUP2 MSTORE PUSH1 0x4 ADD PUSH2 0x1EC1 SWAP1 PUSH2 0x3522 JUMP JUMPDEST PUSH1 0x40 MLOAD DUP1 SWAP2 SUB SWAP1 REVERT JUMPDEST PUSH1 0x0 PUSH1 0x3 PUSH1 0x0 DUP12 DUP2 MSTORE PUSH1 0x20 ADD SWAP1 DUP2 MSTORE PUSH1 0x20 ADD PUSH1 0x0 KECCAK256 PUSH1 0x0 DUP11 DUP2 MSTORE PUSH1 0x20 ADD SWAP1 DUP2 MSTORE PUSH1 0x20 ADD PUSH1 0x0 KECCAK256 PUSH1 0x0 DUP10 DUP2 MSTORE PUSH1 0x20 ADD SWAP1 DUP2 MSTORE PUSH1 0x20 ADD PUSH1 0x0 KECCAK256 SWAP1 POP PUSH1 0x0 DUP2 PUSH1 0x8 ADD PUSH1 0x0 SWAP1 SLOAD SWAP1 PUSH2 0x100 EXP SWAP1 DIV PUSH20 0xFFFFFFFFFFFFFFFFFFFFFFFFFFFFFFFFFFFFFFFF AND SWAP1 POP PUSH1 0x0 DUP3 PUSH1 0x7 ADD PUSH1 0x0 SWAP1 SLOAD SWAP1 PUSH2 0x100 EXP SWAP1 DIV PUSH20 0xFFFFFFFFFFFFFFFFFFFFFFFFFFFFFFFFFFFFFFFF AND SWAP1 POP DUP9 PUSH20 0xFFFFFFFFFFFFFFFFFFFFFFFFFFFFFFFFFFFFFFFF AND DUP3 PUSH20 0xFFFFFFFFFFFFFFFFFFFFFFFFFFFFFFFFFFFFFFFF AND EQ DUP1 PUSH2 0x1FBA JUMPI POP DUP9 PUSH20 0xFFFFFFFFFFFFFFFFFFFFFFFFFFFFFFFFFFFFFFFF AND DUP2 PUSH20 0xFFFFFFFFFFFFFFFFFFFFFFFFFFFFFFFFFFFFFFFF AND EQ JUMPDEST PUSH2 0x1FF9 JUMPI PUSH1 0x40 MLOAD PUSH32 0x8C379A000000000000000000000000000000000000000000000000000000000 DUP2 MSTORE PUSH1 0x4 ADD PUSH2 0x1FF0 SWAP1 PUSH2 0x34E2 JUMP JUMPDEST PUSH1 0x40 MLOAD DUP1 SWAP2 SUB SWAP1 REVERT JUMPDEST PUSH1 0x4 PUSH1 0x7 DUP2 GT ISZERO PUSH2 0x200D JUMPI PUSH2 0x200C PUSH2 0x3AAE JUMP JUMPDEST JUMPDEST DUP4 PUSH1 0x5 ADD PUSH1 0x1 SWAP1 SLOAD SWAP1 PUSH2 0x100 EXP SWAP1 DIV PUSH1 0xFF AND PUSH1 0x7 DUP2 GT ISZERO PUSH2 0x2031 JUMPI PUSH2 0x2030 PUSH2 0x3AAE JUMP JUMPDEST JUMPDEST EQ PUSH2 0x203B JUMPI PUSH1 0x0 DUP1 REVERT JUMPDEST DUP9 PUSH20 0xFFFFFFFFFFFFFFFFFFFFFFFFFFFFFFFFFFFFFFFF AND DUP3 PUSH20 0xFFFFFFFFFFFFFFFFFFFFFFFFFFFFFFFFFFFFFFFF AND EQ ISZERO PUSH2 0x2110 JUMPI PUSH1 0x1 PUSH1 0x0 SWAP1 SLOAD SWAP1 PUSH2 0x100 EXP SWAP1 DIV PUSH20 0xFFFFFFFFFFFFFFFFFFFFFFFFFFFFFFFFFFFFFFFF AND PUSH20 0xFFFFFFFFFFFFFFFFFFFFFFFFFFFFFFFFFFFFFFFF AND PUSH4 0xB7177910 DUP14 DUP14 DUP14 DUP14 DUP7 DUP15 PUSH1 0x0 DUP16 PUSH1 0x40 MLOAD DUP10 PUSH4 0xFFFFFFFF AND PUSH1 0xE0 SHL DUP2 MSTORE PUSH1 0x4 ADD PUSH2 0x20D9 SWAP9 SWAP8 SWAP7 SWAP6 SWAP5 SWAP4 SWAP3 SWAP2 SWAP1 PUSH2 0x35DD JUMP JUMPDEST PUSH1 0x0 PUSH1 0x40 MLOAD DUP1 DUP4 SUB DUP2 PUSH1 0x0 DUP8 DUP1 EXTCODESIZE ISZERO DUP1 ISZERO PUSH2 0x20F3 JUMPI PUSH1 0x0 DUP1 REVERT JUMPDEST POP GAS CALL ISZERO DUP1 ISZERO PUSH2 0x2107 JUMPI RETURNDATASIZE PUSH1 0x0 DUP1 RETURNDATACOPY RETURNDATASIZE PUSH1 0x0 REVERT JUMPDEST POP POP POP POP PUSH2 0x21AD JUMP JUMPDEST PUSH1 0x1 PUSH1 0x0 SWAP1 SLOAD SWAP1 PUSH2 0x100 EXP SWAP1 DIV PUSH20 0xFFFFFFFFFFFFFFFFFFFFFFFFFFFFFFFFFFFFFFFF AND PUSH20 0xFFFFFFFFFFFFFFFFFFFFFFFFFFFFFFFFFFFFFFFF AND PUSH4 0xB7177910 DUP14 DUP14 DUP14 DUP14 DUP8 DUP15 PUSH1 0x1 DUP16 PUSH1 0x40 MLOAD DUP10 PUSH4 0xFFFFFFFF AND PUSH1 0xE0 SHL DUP2 MSTORE PUSH1 0x4 ADD PUSH2 0x217A SWAP9 SWAP8 SWAP7 SWAP6 SWAP5 SWAP4 SWAP3 SWAP2 SWAP1 PUSH2 0x35DD JUMP JUMPDEST PUSH1 0x0 PUSH1 0x40 MLOAD DUP1 DUP4 SUB DUP2 PUSH1 0x0 DUP8 DUP1 EXTCODESIZE ISZERO DUP1 ISZERO PUSH2 0x2194 JUMPI PUSH1 0x0 DUP1 REVERT JUMPDEST POP GAS CALL ISZERO DUP1 ISZERO PUSH2 0x21A8 JUMPI RETURNDATASIZE PUSH1 0x0 DUP1 RETURNDATACOPY RETURNDATASIZE PUSH1 0x0 REVERT JUMPDEST POP POP POP POP JUMPDEST POP POP POP POP POP POP POP POP POP POP POP POP JUMP JUMPDEST PUSH1 0x0 DUP1 PUSH1 0x0 SWAP1 SLOAD SWAP1 PUSH2 0x100 EXP SWAP1 DIV PUSH20 0xFFFFFFFFFFFFFFFFFFFFFFFFFFFFFFFFFFFFFFFF AND PUSH20 0xFFFFFFFFFFFFFFFFFFFFFFFFFFFFFFFFFFFFFFFF AND PUSH4 0xCB4389CE DUP6 DUP6 DUP6 PUSH1 0x40 MLOAD DUP5 PUSH4 0xFFFFFFFF AND PUSH1 0xE0 SHL DUP2 MSTORE PUSH1 0x4 ADD PUSH2 0x221B SWAP4 SWAP3 SWAP2 SWAP1 PUSH2 0x35A6 JUMP JUMPDEST PUSH1 0x20 PUSH1 0x40 MLOAD DUP1 DUP4 SUB DUP2 DUP7 DUP1 EXTCODESIZE ISZERO DUP1 ISZERO PUSH2 0x2233 JUMPI PUSH1 0x0 DUP1 REVERT JUMPDEST POP GAS STATICCALL ISZERO DUP1 ISZERO PUSH2 0x2247 JUMPI RETURNDATASIZE PUSH1 0x0 DUP1 RETURNDATACOPY RETURNDATASIZE PUSH1 0x0 REVERT JUMPDEST POP POP POP POP PUSH1 0x40 MLOAD RETURNDATASIZE PUSH1 0x1F NOT PUSH1 0x1F DUP3 ADD AND DUP3 ADD DUP1 PUSH1 0x40 MSTORE POP DUP2 ADD SWAP1 PUSH2 0x226B SWAP2 SWAP1 PUSH2 0x2C28 JUMP JUMPDEST SWAP1 POP SWAP4 SWAP3 POP POP POP JUMP JUMPDEST PUSH1 0x0 PUSH1 0x1 PUSH1 0x0 SWAP1 SLOAD SWAP1 PUSH2 0x100 EXP SWAP1 DIV PUSH20 0xFFFFFFFFFFFFFFFFFFFFFFFFFFFFFFFFFFFFFFFF AND PUSH20 0xFFFFFFFFFFFFFFFFFFFFFFFFFFFFFFFFFFFFFFFF AND PUSH4 0xCCEE835B DUP5 DUP5 PUSH1 0x40 MLOAD DUP4 PUSH4 0xFFFFFFFF AND PUSH1 0xE0 SHL DUP2 MSTORE PUSH1 0x4 ADD PUSH2 0x22D3 SWAP3 SWAP2 SWAP1 PUSH2 0x357D JUMP JUMPDEST PUSH1 0x20 PUSH1 0x40 MLOAD DUP1 DUP4 SUB DUP2 DUP7 DUP1 EXTCODESIZE ISZERO DUP1 ISZERO PUSH2 0x22EB JUMPI PUSH1 0x0 DUP1 REVERT JUMPDEST POP GAS STATICCALL ISZERO DUP1 ISZERO PUSH2 0x22FF JUMPI RETURNDATASIZE PUSH1 0x0 DUP1 RETURNDATACOPY RETURNDATASIZE PUSH1 0x0 REVERT JUMPDEST POP POP POP POP PUSH1 0x40 MLOAD RETURNDATASIZE PUSH1 0x1F NOT PUSH1 0x1F DUP3 ADD AND DUP3 ADD DUP1 PUSH1 0x40 MSTORE POP DUP2 ADD SWAP1 PUSH2 0x2323 SWAP2 SWAP1 PUSH2 0x2C55 JUMP JUMPDEST SWAP1 POP SWAP3 SWAP2 POP POP JUMP JUMPDEST DUP4 DUP4 DUP4 PUSH1 0x3 PUSH1 0x0 DUP5 DUP2 MSTORE PUSH1 0x20 ADD SWAP1 DUP2 MSTORE PUSH1 0x20 ADD PUSH1 0x0 KECCAK256 PUSH1 0x0 DUP4 DUP2 MSTORE PUSH1 0x20 ADD SWAP1 DUP2 MSTORE PUSH1 0x20 ADD PUSH1 0x0 KECCAK256 PUSH1 0x0 DUP3 DUP2 MSTORE PUSH1 0x20 ADD SWAP1 DUP2 MSTORE PUSH1 0x20 ADD PUSH1 0x0 KECCAK256 PUSH1 0x5 ADD PUSH1 0x0 SWAP1 SLOAD SWAP1 PUSH2 0x100 EXP SWAP1 DIV PUSH1 0xFF AND PUSH2 0x23B3 JUMPI PUSH1 0x40 MLOAD PUSH32 0x8C379A000000000000000000000000000000000000000000000000000000000 DUP2 MSTORE PUSH1 0x4 ADD PUSH2 0x23AA SWAP1 PUSH2 0x3522 JUMP JUMPDEST PUSH1 0x40 MLOAD DUP1 SWAP2 SUB SWAP1 REVERT JUMPDEST DUP7 DUP7 DUP7 PUSH1 0x3 DUP1 PUSH1 0x7 DUP2 GT ISZERO PUSH2 0x23CB JUMPI PUSH2 0x23CA PUSH2 0x3AAE JUMP JUMPDEST JUMPDEST PUSH1 0x3 PUSH1 0x0 DUP7 DUP2 MSTORE PUSH1 0x20 ADD SWAP1 DUP2 MSTORE PUSH1 0x20 ADD PUSH1 0x0 KECCAK256 PUSH1 0x0 DUP6 DUP2 MSTORE PUSH1 0x20 ADD SWAP1 DUP2 MSTORE PUSH1 0x20 ADD PUSH1 0x0 KECCAK256 PUSH1 0x0 DUP5 DUP2 MSTORE PUSH1 0x20 ADD SWAP1 DUP2 MSTORE PUSH1 0x20 ADD PUSH1 0x0 KECCAK256 PUSH1 0x5 ADD PUSH1 0x1 SWAP1 SLOAD SWAP1 PUSH2 0x100 EXP SWAP1 DIV PUSH1 0xFF AND PUSH1 0x7 DUP2 GT ISZERO PUSH2 0x2423 JUMPI PUSH2 0x2422 PUSH2 0x3AAE JUMP JUMPDEST JUMPDEST EQ PUSH2 0x2463 JUMPI PUSH1 0x40 MLOAD PUSH32 0x8C379A000000000000000000000000000000000000000000000000000000000 DUP2 MSTORE PUSH1 0x4 ADD PUSH2 0x245A SWAP1 PUSH2 0x34C2 JUMP JUMPDEST PUSH1 0x40 MLOAD DUP1 SWAP2 SUB SWAP1 REVERT JUMPDEST PUSH2 0x2470 DUP12 DUP12 DUP12 PUSH1 0x4 PUSH2 0x287D JUMP JUMPDEST PUSH2 0x247A DUP12 DUP12 PUSH2 0x29B3 JUMP JUMPDEST POP POP POP POP POP POP POP POP POP POP POP JUMP JUMPDEST DUP5 DUP5 DUP5 PUSH1 0x3 PUSH1 0x0 DUP5 DUP2 MSTORE PUSH1 0x20 ADD SWAP1 DUP2 MSTORE PUSH1 0x20 ADD PUSH1 0x0 KECCAK256 PUSH1 0x0 DUP4 DUP2 MSTORE PUSH1 0x20 ADD SWAP1 DUP2 MSTORE PUSH1 0x20 ADD PUSH1 0x0 KECCAK256 PUSH1 0x0 DUP3 DUP2 MSTORE PUSH1 0x20 ADD SWAP1 DUP2 MSTORE PUSH1 0x20 ADD PUSH1 0x0 KECCAK256 PUSH1 0x5 ADD PUSH1 0x0 SWAP1 SLOAD SWAP1 PUSH2 0x100 EXP SWAP1 DIV PUSH1 0xFF AND PUSH2 0x250F JUMPI PUSH1 0x40 MLOAD PUSH32 0x8C379A000000000000000000000000000000000000000000000000000000000 DUP2 MSTORE PUSH1 0x4 ADD PUSH2 0x2506 SWAP1 PUSH2 0x3522 JUMP JUMPDEST PUSH1 0x40 MLOAD DUP1 SWAP2 SUB SWAP1 REVERT JUMPDEST DUP8 DUP8 DUP8 PUSH1 0x6 DUP1 PUSH1 0x7 DUP2 GT ISZERO PUSH2 0x2527 JUMPI PUSH2 0x2526 PUSH2 0x3AAE JUMP JUMPDEST JUMPDEST PUSH1 0x3 PUSH1 0x0 DUP7 DUP2 MSTORE PUSH1 0x20 ADD SWAP1 DUP2 MSTORE PUSH1 0x20 ADD PUSH1 0x0 KECCAK256 PUSH1 0x0 DUP6 DUP2 MSTORE PUSH1 0x20 ADD SWAP1 DUP2 MSTORE PUSH1 0x20 ADD PUSH1 0x0 KECCAK256 PUSH1 0x0 DUP5 DUP2 MSTORE PUSH1 0x20 ADD SWAP1 DUP2 MSTORE PUSH1 0x20 ADD PUSH1 0x0 KECCAK256 PUSH1 0x5 ADD PUSH1 0x1 SWAP1 SLOAD SWAP1 PUSH2 0x100 EXP SWAP1 DIV PUSH1 0xFF AND PUSH1 0x7 DUP2 GT ISZERO PUSH2 0x257F JUMPI PUSH2 0x257E PUSH2 0x3AAE JUMP JUMPDEST JUMPDEST EQ PUSH2 0x25BF JUMPI PUSH1 0x40 MLOAD PUSH32 0x8C379A000000000000000000000000000000000000000000000000000000000 DUP2 MSTORE PUSH1 0x4 ADD PUSH2 0x25B6 SWAP1 PUSH2 0x34C2 JUMP JUMPDEST PUSH1 0x40 MLOAD DUP1 SWAP2 SUB SWAP1 REVERT JUMPDEST PUSH1 0x0 DUP1 SLOAD SWAP1 PUSH2 0x100 EXP SWAP1 DIV PUSH20 0xFFFFFFFFFFFFFFFFFFFFFFFFFFFFFFFFFFFFFFFF AND PUSH20 0xFFFFFFFFFFFFFFFFFFFFFFFFFFFFFFFFFFFFFFFF AND PUSH4 0xD1E992A7 DUP14 DUP14 DUP14 DUP14 DUP14 PUSH1 0x40 MLOAD DUP7 PUSH4 0xFFFFFFFF AND PUSH1 0xE0 SHL DUP2 MSTORE PUSH1 0x4 ADD PUSH2 0x2620 SWAP6 SWAP5 SWAP4 SWAP3 SWAP2 SWAP1 PUSH2 0x36B5 JUMP JUMPDEST PUSH1 0x0 PUSH1 0x40 MLOAD DUP1 DUP4 SUB DUP2 PUSH1 0x0 DUP8 DUP1 EXTCODESIZE ISZERO DUP1 ISZERO PUSH2 0x263A JUMPI PUSH1 0x0 DUP1 REVERT JUMPDEST POP GAS CALL ISZERO DUP1 ISZERO PUSH2 0x264E JUMPI RETURNDATASIZE PUSH1 0x0 DUP1 RETURNDATACOPY RETURNDATASIZE PUSH1 0x0 REVERT JUMPDEST POP POP POP POP POP POP POP POP POP POP POP POP POP POP POP POP JUMP JUMPDEST PUSH1 0x0 DUP1 PUSH1 0x0 SWAP1 SLOAD SWAP1 PUSH2 0x100 EXP SWAP1 DIV PUSH20 0xFFFFFFFFFFFFFFFFFFFFFFFFFFFFFFFFFFFFFFFF AND PUSH20 0xFFFFFFFFFFFFFFFFFFFFFFFFFFFFFFFFFFFFFFFF AND PUSH4 0xE3D87718 DUP6 DUP6 DUP6 PUSH1 0x40 MLOAD DUP5 PUSH4 0xFFFFFFFF AND PUSH1 0xE0 SHL DUP2 MSTORE PUSH1 0x4 ADD PUSH2 0x26C0 SWAP4 SWAP3 SWAP2 SWAP1 PUSH2 0x35A6 JUMP JUMPDEST PUSH1 0x20 PUSH1 0x40 MLOAD DUP1 DUP4 SUB DUP2 DUP7 DUP1 EXTCODESIZE ISZERO DUP1 ISZERO PUSH2 0x26D8 JUMPI PUSH1 0x0 DUP1 REVERT JUMPDEST POP GAS STATICCALL ISZERO DUP1 ISZERO PUSH2 0x26EC JUMPI RETURNDATASIZE PUSH1 0x0 DUP1 RETURNDATACOPY RETURNDATASIZE PUSH1 0x0 REVERT JUMPDEST POP POP POP POP PUSH1 0x40 MLOAD RETURNDATASIZE PUSH1 0x1F NOT PUSH1 0x1F DUP3 ADD AND DUP3 ADD DUP1 PUSH1 0x40 MSTORE POP DUP2 ADD SWAP1 PUSH2 0x2710 SWAP2 SWAP1 PUSH2 0x2C55 JUMP JUMPDEST SWAP1 POP SWAP4 SWAP3 POP POP POP JUMP JUMPDEST DUP8 DUP8 DUP8 PUSH1 0x4 DUP1 PUSH1 0x7 DUP2 GT ISZERO PUSH2 0x2731 JUMPI PUSH2 0x2730 PUSH2 0x3AAE JUMP JUMPDEST JUMPDEST PUSH1 0x3 PUSH1 0x0 DUP7 DUP2 MSTORE PUSH1 0x20 ADD SWAP1 DUP2 MSTORE PUSH1 0x20 ADD PUSH1 0x0 KECCAK256 PUSH1 0x0 DUP6 DUP2 MSTORE PUSH1 0x20 ADD SWAP1 DUP2 MSTORE PUSH1 0x20 ADD PUSH1 0x0 KECCAK256 PUSH1 0x0 DUP5 DUP2 MSTORE PUSH1 0x20 ADD SWAP1 DUP2 MSTORE PUSH1 0x20 ADD PUSH1 0x0 KECCAK256 PUSH1 0x5 ADD PUSH1 0x1 SWAP1 SLOAD SWAP1 PUSH2 0x100 EXP SWAP1 DIV PUSH1 0xFF AND PUSH1 0x7 DUP2 GT ISZERO PUSH2 0x2789 JUMPI PUSH2 0x2788 PUSH2 0x3AAE JUMP JUMPDEST JUMPDEST EQ PUSH2 0x27C9 JUMPI PUSH1 0x40 MLOAD PUSH32 0x8C379A000000000000000000000000000000000000000000000000000000000 DUP2 MSTORE PUSH1 0x4 ADD PUSH2 0x27C0 SWAP1 PUSH2 0x34C2 JUMP JUMPDEST PUSH1 0x40 MLOAD DUP1 SWAP2 SUB SWAP1 REVERT JUMPDEST PUSH1 0x0 DUP1 SLOAD SWAP1 PUSH2 0x100 EXP SWAP1 DIV PUSH20 0xFFFFFFFFFFFFFFFFFFFFFFFFFFFFFFFFFFFFFFFF AND PUSH20 0xFFFFFFFFFFFFFFFFFFFFFFFFFFFFFFFFFFFFFFFF AND PUSH4 0xE62FAC27 DUP14 DUP14 DUP14 DUP14 DUP14 DUP14 DUP14 DUP14 PUSH1 0x40 MLOAD DUP10 PUSH4 0xFFFFFFFF AND PUSH1 0xE0 SHL DUP2 MSTORE PUSH1 0x4 ADD PUSH2 0x2830 SWAP9 SWAP8 SWAP7 SWAP6 SWAP5 SWAP4 SWAP3 SWAP2 SWAP1 PUSH2 0x3716 JUMP JUMPDEST PUSH1 0x0 PUSH1 0x40 MLOAD DUP1 DUP4 SUB DUP2 PUSH1 0x0 DUP8 DUP1 EXTCODESIZE ISZERO DUP1 ISZERO PUSH2 0x284A JUMPI PUSH1 0x0 DUP1 REVERT JUMPDEST POP GAS CALL ISZERO DUP1 ISZERO PUSH2 0x285E JUMPI RETURNDATASIZE PUSH1 0x0 DUP1 RETURNDATACOPY RETURNDATASIZE PUSH1 0x0 REVERT JUMPDEST POP POP POP POP PUSH2 0x286F DUP13 DUP13 DUP13 PUSH1 0x6 PUSH2 0x287D JUMP JUMPDEST POP POP POP POP POP POP POP POP POP POP POP POP JUMP JUMPDEST DUP1 PUSH1 0x3 PUSH1 0x0 DUP7 DUP2 MSTORE PUSH1 0x20 ADD SWAP1 DUP2 MSTORE PUSH1 0x20 ADD PUSH1 0x0 KECCAK256 PUSH1 0x0 DUP6 DUP2 MSTORE PUSH1 0x20 ADD SWAP1 DUP2 MSTORE PUSH1 0x20 ADD PUSH1 0x0 KECCAK256 PUSH1 0x0 DUP5 DUP2 MSTORE PUSH1 0x20 ADD SWAP1 DUP2 MSTORE PUSH1 0x20 ADD PUSH1 0x0 KECCAK256 PUSH1 0x5 ADD PUSH1 0x1 PUSH2 0x100 EXP DUP2 SLOAD DUP2 PUSH1 0xFF MUL NOT AND SWAP1 DUP4 PUSH1 0x7 DUP2 GT ISZERO PUSH2 0x28D8 JUMPI PUSH2 0x28D7 PUSH2 0x3AAE JUMP JUMPDEST JUMPDEST MUL OR SWAP1 SSTORE POP POP POP POP POP JUMP JUMPDEST PUSH1 0x0 DUP1 PUSH1 0x3 PUSH1 0x0 DUP8 DUP2 MSTORE PUSH1 0x20 ADD SWAP1 DUP2 MSTORE PUSH1 0x20 ADD PUSH1 0x0 KECCAK256 PUSH1 0x0 DUP7 DUP2 MSTORE PUSH1 0x20 ADD SWAP1 DUP2 MSTORE PUSH1 0x20 ADD PUSH1 0x0 KECCAK256 SWAP1 POP PUSH1 0x0 DUP1 JUMPDEST DUP6 DUP2 PUSH1 0xFF AND LT ISZERO PUSH2 0x29A5 JUMPI PUSH1 0x0 DUP4 PUSH1 0x0 DUP4 PUSH1 0xFF AND DUP2 MSTORE PUSH1 0x20 ADD SWAP1 DUP2 MSTORE PUSH1 0x20 ADD PUSH1 0x0 KECCAK256 SWAP1 POP DUP6 PUSH20 0xFFFFFFFFFFFFFFFFFFFFFFFFFFFFFFFFFFFFFFFF AND DUP2 PUSH1 0x8 ADD PUSH1 0x0 SWAP1 SLOAD SWAP1 PUSH2 0x100 EXP SWAP1 DIV PUSH20 0xFFFFFFFFFFFFFFFFFFFFFFFFFFFFFFFFFFFFFFFF AND PUSH20 0xFFFFFFFFFFFFFFFFFFFFFFFFFFFFFFFFFFFFFFFF AND EQ ISZERO PUSH2 0x2991 JUMPI PUSH1 0x1 SWAP3 POP JUMPDEST POP DUP1 DUP1 PUSH2 0x299D SWAP1 PUSH2 0x3A26 JUMP JUMPDEST SWAP2 POP POP PUSH2 0x2910 JUMP JUMPDEST POP DUP1 SWAP3 POP POP POP SWAP5 SWAP4 POP POP POP POP JUMP JUMPDEST PUSH1 0x0 JUMPDEST PUSH1 0x5 SLOAD DUP2 LT ISZERO PUSH2 0x2AA6 JUMPI PUSH1 0x2 PUSH1 0x7 DUP2 GT ISZERO PUSH2 0x29D4 JUMPI PUSH2 0x29D3 PUSH2 0x3AAE JUMP JUMPDEST JUMPDEST PUSH1 0x3 PUSH1 0x0 DUP6 DUP2 MSTORE PUSH1 0x20 ADD SWAP1 DUP2 MSTORE PUSH1 0x20 ADD PUSH1 0x0 KECCAK256 PUSH1 0x0 DUP5 DUP2 MSTORE PUSH1 0x20 ADD SWAP1 DUP2 MSTORE PUSH1 0x20 ADD PUSH1 0x0 KECCAK256 PUSH1 0x0 DUP4 DUP2 MSTORE PUSH1 0x20 ADD SWAP1 DUP2 MSTORE PUSH1 0x20 ADD PUSH1 0x0 KECCAK256 PUSH1 0x5 ADD PUSH1 0x1 SWAP1 SLOAD SWAP1 PUSH2 0x100 EXP SWAP1 DIV PUSH1 0xFF AND PUSH1 0x7 DUP2 GT ISZERO PUSH2 0x2A2C JUMPI PUSH2 0x2A2B PUSH2 0x3AAE JUMP JUMPDEST JUMPDEST EQ DUP1 ISZERO PUSH2 0x2A7B JUMPI POP PUSH1 0x3 PUSH1 0x0 DUP5 DUP2 MSTORE PUSH1 0x20 ADD SWAP1 DUP2 MSTORE PUSH1 0x20 ADD PUSH1 0x0 KECCAK256 PUSH1 0x0 DUP4 DUP2 MSTORE PUSH1 0x20 ADD SWAP1 DUP2 MSTORE PUSH1 0x20 ADD PUSH1 0x0 KECCAK256 PUSH1 0x0 DUP3 DUP2 MSTORE PUSH1 0x20 ADD SWAP1 DUP2 MSTORE PUSH1 0x20 ADD PUSH1 0x0 KECCAK256 PUSH1 0x5 ADD PUSH1 0x0 SWAP1 SLOAD SWAP1 PUSH2 0x100 EXP SWAP1 DIV PUSH1 0xFF AND JUMPDEST ISZERO PUSH2 0x2A93 JUMPI PUSH2 0x2A8D DUP4 DUP4 DUP4 PUSH1 0x3 PUSH2 0x287D JUMP JUMPDEST POP PUSH2 0x2AA8 JUMP JUMPDEST DUP1 DUP1 PUSH2 0x2A9E SWAP1 PUSH2 0x39DD JUMP JUMPDEST SWAP2 POP POP PUSH2 0x29B6 JUMP JUMPDEST POP JUMPDEST POP POP JUMP JUMPDEST DUP3 DUP1 SLOAD PUSH2 0x2AB8 SWAP1 PUSH2 0x397A JUMP JUMPDEST SWAP1 PUSH1 0x0 MSTORE PUSH1 0x20 PUSH1 0x0 KECCAK256 SWAP1 PUSH1 0x1F ADD PUSH1 0x20 SWAP1 DIV DUP2 ADD SWAP3 DUP3 PUSH2 0x2ADA JUMPI PUSH1 0x0 DUP6 SSTORE PUSH2 0x2B21 JUMP JUMPDEST DUP3 PUSH1 0x1F LT PUSH2 0x2AF3 JUMPI DUP1 MLOAD PUSH1 0xFF NOT AND DUP4 DUP1 ADD OR DUP6 SSTORE PUSH2 0x2B21 JUMP JUMPDEST DUP3 DUP1 ADD PUSH1 0x1 ADD DUP6 SSTORE DUP3 ISZERO PUSH2 0x2B21 JUMPI SWAP2 DUP3 ADD JUMPDEST DUP3 DUP2 GT ISZERO PUSH2 0x2B20 JUMPI DUP3 MLOAD DUP3 SSTORE SWAP2 PUSH1 0x20 ADD SWAP2 SWAP1 PUSH1 0x1 ADD SWAP1 PUSH2 0x2B05 JUMP JUMPDEST JUMPDEST POP SWAP1 POP PUSH2 0x2B2E SWAP2 SWAP1 PUSH2 0x2B32 JUMP JUMPDEST POP SWAP1 JUMP JUMPDEST JUMPDEST DUP1 DUP3 GT ISZERO PUSH2 0x2B4B JUMPI PUSH1 0x0 DUP2 PUSH1 0x0 SWAP1 SSTORE POP PUSH1 0x1 ADD PUSH2 0x2B33 JUMP JUMPDEST POP SWAP1 JUMP JUMPDEST PUSH1 0x0 PUSH2 0x2B62 PUSH2 0x2B5D DUP5 PUSH2 0x37C7 JUMP JUMPDEST PUSH2 0x37A2 JUMP JUMPDEST SWAP1 POP DUP3 DUP2 MSTORE PUSH1 0x20 DUP2 ADD DUP5 DUP5 DUP5 ADD GT ISZERO PUSH2 0x2B7E JUMPI PUSH2 0x2B7D PUSH2 0x3B40 JUMP JUMPDEST JUMPDEST PUSH2 0x2B89 DUP5 DUP3 DUP6 PUSH2 0x390E JUMP JUMPDEST POP SWAP4 SWAP3 POP POP POP JUMP JUMPDEST PUSH1 0x0 DUP2 CALLDATALOAD SWAP1 POP PUSH2 0x2BA0 DUP2 PUSH2 0x3CA4 JUMP JUMPDEST SWAP3 SWAP2 POP POP JUMP JUMPDEST PUSH1 0x0 DUP2 MLOAD SWAP1 POP PUSH2 0x2BB5 DUP2 PUSH2 0x3CBB JUMP JUMPDEST SWAP3 SWAP2 POP POP JUMP JUMPDEST PUSH1 0x0 DUP3 PUSH1 0x1F DUP4 ADD SLT PUSH2 0x2BD0 JUMPI PUSH2 0x2BCF PUSH2 0x3B3B JUMP JUMPDEST JUMPDEST DUP2 CALLDATALOAD PUSH2 0x2BE0 DUP5 DUP3 PUSH1 0x20 DUP7 ADD PUSH2 0x2B4F JUMP JUMPDEST SWAP2 POP POP SWAP3 SWAP2 POP POP JUMP JUMPDEST PUSH1 0x0 DUP2 CALLDATALOAD SWAP1 POP PUSH2 0x2BF8 DUP2 PUSH2 0x3CCB JUMP JUMPDEST SWAP3 SWAP2 POP POP JUMP JUMPDEST PUSH1 0x0 DUP2 MLOAD SWAP1 POP PUSH2 0x2C0D DUP2 PUSH2 0x3CCB JUMP JUMPDEST SWAP3 SWAP2 POP POP JUMP JUMPDEST PUSH1 0x0 DUP2 CALLDATALOAD SWAP1 POP PUSH2 0x2C22 DUP2 PUSH2 0x3CE2 JUMP JUMPDEST SWAP3 SWAP2 POP POP JUMP JUMPDEST PUSH1 0x0 PUSH1 0x20 DUP3 DUP5 SUB SLT ISZERO PUSH2 0x2C3E JUMPI PUSH2 0x2C3D PUSH2 0x3B4A JUMP JUMPDEST JUMPDEST PUSH1 0x0 PUSH2 0x2C4C DUP5 DUP3 DUP6 ADD PUSH2 0x2BA6 JUMP JUMPDEST SWAP2 POP POP SWAP3 SWAP2 POP POP JUMP JUMPDEST PUSH1 0x0 PUSH1 0x20 DUP3 DUP5 SUB SLT ISZERO PUSH2 0x2C6B JUMPI PUSH2 0x2C6A PUSH2 0x3B4A JUMP JUMPDEST JUMPDEST PUSH1 0x0 PUSH2 0x2C79 DUP5 DUP3 DUP6 ADD PUSH2 0x2BFE JUMP JUMPDEST SWAP2 POP POP SWAP3 SWAP2 POP POP JUMP JUMPDEST PUSH1 0x0 DUP1 PUSH1 0x40 DUP4 DUP6 SUB SLT ISZERO PUSH2 0x2C99 JUMPI PUSH2 0x2C98 PUSH2 0x3B4A JUMP JUMPDEST JUMPDEST PUSH1 0x0 PUSH2 0x2CA7 DUP6 DUP3 DUP7 ADD PUSH2 0x2BE9 JUMP JUMPDEST SWAP3 POP POP PUSH1 0x20 PUSH2 0x2CB8 DUP6 DUP3 DUP7 ADD PUSH2 0x2BE9 JUMP JUMPDEST SWAP2 POP POP SWAP3 POP SWAP3 SWAP1 POP JUMP JUMPDEST PUSH1 0x0 DUP1 PUSH1 0x0 PUSH1 0x60 DUP5 DUP7 SUB SLT ISZERO PUSH2 0x2CDB JUMPI PUSH2 0x2CDA PUSH2 0x3B4A JUMP JUMPDEST JUMPDEST PUSH1 0x0 PUSH2 0x2CE9 DUP7 DUP3 DUP8 ADD PUSH2 0x2BE9 JUMP JUMPDEST SWAP4 POP POP PUSH1 0x20 PUSH2 0x2CFA DUP7 DUP3 DUP8 ADD PUSH2 0x2BE9 JUMP JUMPDEST SWAP3 POP POP PUSH1 0x40 PUSH2 0x2D0B DUP7 DUP3 DUP8 ADD PUSH2 0x2B91 JUMP JUMPDEST SWAP2 POP POP SWAP3 POP SWAP3 POP SWAP3 JUMP JUMPDEST PUSH1 0x0 DUP1 PUSH1 0x0 DUP1 PUSH1 0x0 PUSH1 0xA0 DUP7 DUP9 SUB SLT ISZERO PUSH2 0x2D31 JUMPI PUSH2 0x2D30 PUSH2 0x3B4A JUMP JUMPDEST JUMPDEST PUSH1 0x0 PUSH2 0x2D3F DUP9 DUP3 DUP10 ADD PUSH2 0x2BE9 JUMP JUMPDEST SWAP6 POP POP PUSH1 0x20 PUSH2 0x2D50 DUP9 DUP3 DUP10 ADD PUSH2 0x2BE9 JUMP JUMPDEST SWAP5 POP POP PUSH1 0x40 DUP7 ADD CALLDATALOAD PUSH8 0xFFFFFFFFFFFFFFFF DUP2 GT ISZERO PUSH2 0x2D71 JUMPI PUSH2 0x2D70 PUSH2 0x3B45 JUMP JUMPDEST JUMPDEST PUSH2 0x2D7D DUP9 DUP3 DUP10 ADD PUSH2 0x2BBB JUMP JUMPDEST SWAP4 POP POP PUSH1 0x60 DUP7 ADD CALLDATALOAD PUSH8 0xFFFFFFFFFFFFFFFF DUP2 GT ISZERO PUSH2 0x2D9E JUMPI PUSH2 0x2D9D PUSH2 0x3B45 JUMP JUMPDEST JUMPDEST PUSH2 0x2DAA DUP9 DUP3 DUP10 ADD PUSH2 0x2BBB JUMP JUMPDEST SWAP3 POP POP PUSH1 0x80 PUSH2 0x2DBB DUP9 DUP3 DUP10 ADD PUSH2 0x2B91 JUMP JUMPDEST SWAP2 POP POP SWAP3 SWAP6 POP SWAP3 SWAP6 SWAP1 SWAP4 POP JUMP JUMPDEST PUSH1 0x0 DUP1 PUSH1 0x0 PUSH1 0x60 DUP5 DUP7 SUB SLT ISZERO PUSH2 0x2DE1 JUMPI PUSH2 0x2DE0 PUSH2 0x3B4A JUMP JUMPDEST JUMPDEST PUSH1 0x0 PUSH2 0x2DEF DUP7 DUP3 DUP8 ADD PUSH2 0x2BE9 JUMP JUMPDEST SWAP4 POP POP PUSH1 0x20 PUSH2 0x2E00 DUP7 DUP3 DUP8 ADD PUSH2 0x2BE9 JUMP JUMPDEST SWAP3 POP POP PUSH1 0x40 PUSH2 0x2E11 DUP7 DUP3 DUP8 ADD PUSH2 0x2BE9 JUMP JUMPDEST SWAP2 POP POP SWAP3 POP SWAP3 POP SWAP3 JUMP JUMPDEST PUSH1 0x0 DUP1 PUSH1 0x0 DUP1 PUSH1 0x80 DUP6 DUP8 SUB SLT ISZERO PUSH2 0x2E35 JUMPI PUSH2 0x2E34 PUSH2 0x3B4A JUMP JUMPDEST JUMPDEST PUSH1 0x0 PUSH2 0x2E43 DUP8 DUP3 DUP9 ADD PUSH2 0x2BE9 JUMP JUMPDEST SWAP5 POP POP PUSH1 0x20 PUSH2 0x2E54 DUP8 DUP3 DUP9 ADD PUSH2 0x2BE9 JUMP JUMPDEST SWAP4 POP POP PUSH1 0x40 PUSH2 0x2E65 DUP8 DUP3 DUP9 ADD PUSH2 0x2BE9 JUMP JUMPDEST SWAP3 POP POP PUSH1 0x60 PUSH2 0x2E76 DUP8 DUP3 DUP9 ADD PUSH2 0x2B91 JUMP JUMPDEST SWAP2 POP POP SWAP3 SWAP6 SWAP2 SWAP5 POP SWAP3 POP JUMP JUMPDEST PUSH1 0x0 DUP1 PUSH1 0x0 DUP1 PUSH1 0x0 DUP1 PUSH1 0xC0 DUP8 DUP10 SUB SLT ISZERO PUSH2 0x2E9F JUMPI PUSH2 0x2E9E PUSH2 0x3B4A JUMP JUMPDEST JUMPDEST PUSH1 0x0 PUSH2 0x2EAD DUP10 DUP3 DUP11 ADD PUSH2 0x2BE9 JUMP JUMPDEST SWAP7 POP POP PUSH1 0x20 PUSH2 0x2EBE DUP10 DUP3 DUP11 ADD PUSH2 0x2BE9 JUMP JUMPDEST SWAP6 POP POP PUSH1 0x40 PUSH2 0x2ECF DUP10 DUP3 DUP11 ADD PUSH2 0x2BE9 JUMP JUMPDEST SWAP5 POP POP PUSH1 0x60 PUSH2 0x2EE0 DUP10 DUP3 DUP11 ADD PUSH2 0x2B91 JUMP JUMPDEST SWAP4 POP POP PUSH1 0x80 DUP8 ADD CALLDATALOAD PUSH8 0xFFFFFFFFFFFFFFFF DUP2 GT ISZERO PUSH2 0x2F01 JUMPI PUSH2 0x2F00 PUSH2 0x3B45 JUMP JUMPDEST JUMPDEST PUSH2 0x2F0D DUP10 DUP3 DUP11 ADD PUSH2 0x2BBB JUMP JUMPDEST SWAP3 POP POP PUSH1 0xA0 PUSH2 0x2F1E DUP10 DUP3 DUP11 ADD PUSH2 0x2BE9 JUMP JUMPDEST SWAP2 POP POP SWAP3 SWAP6 POP SWAP3 SWAP6 POP SWAP3 SWAP6 JUMP JUMPDEST PUSH1 0x0 DUP1 PUSH1 0x0 DUP1 PUSH1 0x0 PUSH1 0xA0 DUP7 DUP9 SUB SLT ISZERO PUSH2 0x2F47 JUMPI PUSH2 0x2F46 PUSH2 0x3B4A JUMP JUMPDEST JUMPDEST PUSH1 0x0 PUSH2 0x2F55 DUP9 DUP3 DUP10 ADD PUSH2 0x2BE9 JUMP JUMPDEST SWAP6 POP POP PUSH1 0x20 PUSH2 0x2F66 DUP9 DUP3 DUP10 ADD PUSH2 0x2BE9 JUMP JUMPDEST SWAP5 POP POP PUSH1 0x40 PUSH2 0x2F77 DUP9 DUP3 DUP10 ADD PUSH2 0x2BE9 JUMP JUMPDEST SWAP4 POP POP PUSH1 0x60 DUP7 ADD CALLDATALOAD PUSH8 0xFFFFFFFFFFFFFFFF DUP2 GT ISZERO PUSH2 0x2F98 JUMPI PUSH2 0x2F97 PUSH2 0x3B45 JUMP JUMPDEST JUMPDEST PUSH2 0x2FA4 DUP9 DUP3 DUP10 ADD PUSH2 0x2BBB JUMP JUMPDEST SWAP3 POP POP PUSH1 0x80 DUP7 ADD CALLDATALOAD PUSH8 0xFFFFFFFFFFFFFFFF DUP2 GT ISZERO PUSH2 0x2FC5 JUMPI PUSH2 0x2FC4 PUSH2 0x3B45 JUMP JUMPDEST JUMPDEST PUSH2 0x2FD1 DUP9 DUP3 DUP10 ADD PUSH2 0x2BBB JUMP JUMPDEST SWAP2 POP POP SWAP3 SWAP6 POP SWAP3 SWAP6 SWAP1 SWAP4 POP JUMP JUMPDEST PUSH1 0x0 DUP1 PUSH1 0x0 DUP1 PUSH1 0x0 DUP1 PUSH1 0xC0 DUP8 DUP10 SUB SLT ISZERO PUSH2 0x2FFB JUMPI PUSH2 0x2FFA PUSH2 0x3B4A JUMP JUMPDEST JUMPDEST PUSH1 0x0 PUSH2 0x3009 DUP10 DUP3 DUP11 ADD PUSH2 0x2BE9 JUMP JUMPDEST SWAP7 POP POP PUSH1 0x20 PUSH2 0x301A DUP10 DUP3 DUP11 ADD PUSH2 0x2BE9 JUMP JUMPDEST SWAP6 POP POP PUSH1 0x40 PUSH2 0x302B DUP10 DUP3 DUP11 ADD PUSH2 0x2BE9 JUMP JUMPDEST SWAP5 POP POP PUSH1 0x60 DUP8 ADD CALLDATALOAD PUSH8 0xFFFFFFFFFFFFFFFF DUP2 GT ISZERO PUSH2 0x304C JUMPI PUSH2 0x304B PUSH2 0x3B45 JUMP JUMPDEST JUMPDEST PUSH2 0x3058 DUP10 DUP3 DUP11 ADD PUSH2 0x2BBB JUMP JUMPDEST SWAP4 POP POP PUSH1 0x80 DUP8 ADD CALLDATALOAD PUSH8 0xFFFFFFFFFFFFFFFF DUP2 GT ISZERO PUSH2 0x3079 JUMPI PUSH2 0x3078 PUSH2 0x3B45 JUMP JUMPDEST JUMPDEST PUSH2 0x3085 DUP10 DUP3 DUP11 ADD PUSH2 0x2BBB JUMP JUMPDEST SWAP3 POP POP PUSH1 0xA0 PUSH2 0x3096 DUP10 DUP3 DUP11 ADD PUSH2 0x2B91 JUMP JUMPDEST SWAP2 POP POP SWAP3 SWAP6 POP SWAP3 SWAP6 POP SWAP3 SWAP6 JUMP JUMPDEST PUSH1 0x0 DUP1 PUSH1 0x0 DUP1 PUSH1 0x0 DUP1 PUSH1 0x0 DUP1 PUSH2 0x100 DUP10 DUP12 SUB SLT ISZERO PUSH2 0x30C4 JUMPI PUSH2 0x30C3 PUSH2 0x3B4A JUMP JUMPDEST JUMPDEST PUSH1 0x0 PUSH2 0x30D2 DUP12 DUP3 DUP13 ADD PUSH2 0x2BE9 JUMP JUMPDEST SWAP9 POP POP PUSH1 0x20 PUSH2 0x30E3 DUP12 DUP3 DUP13 ADD PUSH2 0x2BE9 JUMP JUMPDEST SWAP8 POP POP PUSH1 0x40 PUSH2 0x30F4 DUP12 DUP3 DUP13 ADD PUSH2 0x2BE9 JUMP JUMPDEST SWAP7 POP POP PUSH1 0x60 DUP10 ADD CALLDATALOAD PUSH8 0xFFFFFFFFFFFFFFFF DUP2 GT ISZERO PUSH2 0x3115 JUMPI PUSH2 0x3114 PUSH2 0x3B45 JUMP JUMPDEST JUMPDEST PUSH2 0x3121 DUP12 DUP3 DUP13 ADD PUSH2 0x2BBB JUMP JUMPDEST SWAP6 POP POP PUSH1 0x80 DUP10 ADD CALLDATALOAD PUSH8 0xFFFFFFFFFFFFFFFF DUP2 GT ISZERO PUSH2 0x3142 JUMPI PUSH2 0x3141 PUSH2 0x3B45 JUMP JUMPDEST JUMPDEST PUSH2 0x314E DUP12 DUP3 DUP13 ADD PUSH2 0x2BBB JUMP JUMPDEST SWAP5 POP POP PUSH1 0xA0 PUSH2 0x315F DUP12 DUP3 DUP13 ADD PUSH2 0x2B91 JUMP JUMPDEST SWAP4 POP POP PUSH1 0xC0 PUSH2 0x3170 DUP12 DUP3 DUP13 ADD PUSH2 0x2B91 JUMP JUMPDEST SWAP3 POP POP PUSH1 0xE0 PUSH2 0x3181 DUP12 DUP3 DUP13 ADD PUSH2 0x2BE9 JUMP JUMPDEST SWAP2 POP POP SWAP3 SWAP6 SWAP9 POP SWAP3 SWAP6 SWAP9 SWAP1 SWAP4 SWAP7 POP JUMP JUMPDEST PUSH1 0x0 DUP1 PUSH1 0x0 DUP1 PUSH1 0x80 DUP6 DUP8 SUB SLT ISZERO PUSH2 0x31AB JUMPI PUSH2 0x31AA PUSH2 0x3B4A JUMP JUMPDEST JUMPDEST PUSH1 0x0 PUSH2 0x31B9 DUP8 DUP3 DUP9 ADD PUSH2 0x2BE9 JUMP JUMPDEST SWAP5 POP POP PUSH1 0x20 PUSH2 0x31CA DUP8 DUP3 DUP9 ADD PUSH2 0x2BE9 JUMP JUMPDEST SWAP4 POP POP PUSH1 0x40 PUSH2 0x31DB DUP8 DUP3 DUP9 ADD PUSH2 0x2BE9 JUMP JUMPDEST SWAP3 POP POP PUSH1 0x60 PUSH2 0x31EC DUP8 DUP3 DUP9 ADD PUSH2 0x2BE9 JUMP JUMPDEST SWAP2 POP POP SWAP3 SWAP6 SWAP2 SWAP5 POP SWAP3 POP JUMP JUMPDEST PUSH1 0x0 DUP1 PUSH1 0x0 DUP1 PUSH1 0x0 PUSH1 0xA0 DUP7 DUP9 SUB SLT ISZERO PUSH2 0x3214 JUMPI PUSH2 0x3213 PUSH2 0x3B4A JUMP JUMPDEST JUMPDEST PUSH1 0x0 PUSH2 0x3222 DUP9 DUP3 DUP10 ADD PUSH2 0x2BE9 JUMP JUMPDEST SWAP6 POP POP PUSH1 0x20 PUSH2 0x3233 DUP9 DUP3 DUP10 ADD PUSH2 0x2BE9 JUMP JUMPDEST SWAP5 POP POP PUSH1 0x40 PUSH2 0x3244 DUP9 DUP3 DUP10 ADD PUSH2 0x2BE9 JUMP JUMPDEST SWAP4 POP POP PUSH1 0x60 PUSH2 0x3255 DUP9 DUP3 DUP10 ADD PUSH2 0x2BE9 JUMP JUMPDEST SWAP3 POP POP PUSH1 0x80 PUSH2 0x3266 DUP9 DUP3 DUP10 ADD PUSH2 0x2B91 JUMP JUMPDEST SWAP2 POP POP SWAP3 SWAP6 POP SWAP3 SWAP6 SWAP1 SWAP4 POP JUMP JUMPDEST PUSH1 0x0 DUP1 PUSH1 0x0 DUP1 PUSH1 0x0 DUP1 PUSH1 0xC0 DUP8 DUP10 SUB SLT ISZERO PUSH2 0x3290 JUMPI PUSH2 0x328F PUSH2 0x3B4A JUMP JUMPDEST JUMPDEST PUSH1 0x0 PUSH2 0x329E DUP10 DUP3 DUP11 ADD PUSH2 0x2BE9 JUMP JUMPDEST SWAP7 POP POP PUSH1 0x20 PUSH2 0x32AF DUP10 DUP3 DUP11 ADD PUSH2 0x2BE9 JUMP JUMPDEST SWAP6 POP POP PUSH1 0x40 PUSH2 0x32C0 DUP10 DUP3 DUP11 ADD PUSH2 0x2BE9 JUMP JUMPDEST SWAP5 POP POP PUSH1 0x60 PUSH2 0x32D1 DUP10 DUP3 DUP11 ADD PUSH2 0x2BE9 JUMP JUMPDEST SWAP4 POP POP PUSH1 0x80 PUSH2 0x32E2 DUP10 DUP3 DUP11 ADD PUSH2 0x2B91 JUMP JUMPDEST SWAP3 POP POP PUSH1 0xA0 PUSH2 0x32F3 DUP10 DUP3 DUP11 ADD PUSH2 0x2C13 JUMP JUMPDEST SWAP2 POP POP SWAP3 SWAP6 POP SWAP3 SWAP6 POP SWAP3 SWAP6 JUMP JUMPDEST PUSH2 0x3309 DUP2 PUSH2 0x38B4 JUMP JUMPDEST DUP3 MSTORE POP POP JUMP JUMPDEST PUSH2 0x3318 DUP2 PUSH2 0x3845 JUMP JUMPDEST DUP3 MSTORE POP POP JUMP JUMPDEST PUSH2 0x3327 DUP2 PUSH2 0x38C6 JUMP JUMPDEST DUP3 MSTORE POP POP JUMP JUMPDEST PUSH2 0x3336 DUP2 PUSH2 0x38D8 JUMP JUMPDEST DUP3 MSTORE POP POP JUMP JUMPDEST PUSH1 0x0 PUSH2 0x3347 DUP3 PUSH2 0x37F8 JUMP JUMPDEST PUSH2 0x3351 DUP2 DUP6 PUSH2 0x3803 JUMP JUMPDEST SWAP4 POP PUSH2 0x3361 DUP2 DUP6 PUSH1 0x20 DUP7 ADD PUSH2 0x391D JUMP JUMPDEST PUSH2 0x336A DUP2 PUSH2 0x3B4F JUMP JUMPDEST DUP5 ADD SWAP2 POP POP SWAP3 SWAP2 POP POP JUMP JUMPDEST PUSH1 0x0 PUSH2 0x3382 PUSH1 0x15 DUP4 PUSH2 0x3803 JUMP JUMPDEST SWAP2 POP PUSH2 0x338D DUP3 PUSH2 0x3B60 JUMP JUMPDEST PUSH1 0x20 DUP3 ADD SWAP1 POP SWAP2 SWAP1 POP JUMP JUMPDEST PUSH1 0x0 PUSH2 0x33A5 PUSH1 0x20 DUP4 PUSH2 0x3803 JUMP JUMPDEST SWAP2 POP PUSH2 0x33B0 DUP3 PUSH2 0x3B89 JUMP JUMPDEST PUSH1 0x20 DUP3 ADD SWAP1 POP SWAP2 SWAP1 POP JUMP JUMPDEST PUSH1 0x0 PUSH2 0x33C8 PUSH1 0x8 DUP4 PUSH2 0x3803 JUMP JUMPDEST SWAP2 POP PUSH2 0x33D3 DUP3 PUSH2 0x3BB2 JUMP JUMPDEST PUSH1 0x20 DUP3 ADD SWAP1 POP SWAP2 SWAP1 POP JUMP JUMPDEST PUSH1 0x0 PUSH2 0x33EB PUSH1 0x16 DUP4 PUSH2 0x3803 JUMP JUMPDEST SWAP2 POP PUSH2 0x33F6 DUP3 PUSH2 0x3BDB JUMP JUMPDEST PUSH1 0x20 DUP3 ADD SWAP1 POP SWAP2 SWAP1 POP JUMP JUMPDEST PUSH1 0x0 PUSH2 0x340E PUSH1 0x27 DUP4 PUSH2 0x3803 JUMP JUMPDEST SWAP2 POP PUSH2 0x3419 DUP3 PUSH2 0x3C04 JUMP JUMPDEST PUSH1 0x40 DUP3 ADD SWAP1 POP SWAP2 SWAP1 POP JUMP JUMPDEST PUSH1 0x0 PUSH2 0x3431 PUSH1 0x15 DUP4 PUSH2 0x3803 JUMP JUMPDEST SWAP2 POP PUSH2 0x343C DUP3 PUSH2 0x3C53 JUMP JUMPDEST PUSH1 0x20 DUP3 ADD SWAP1 POP SWAP2 SWAP1 POP JUMP JUMPDEST PUSH2 0x3450 DUP2 PUSH2 0x389D JUMP JUMPDEST DUP3 MSTORE POP POP JUMP JUMPDEST PUSH2 0x345F DUP2 PUSH2 0x38A7 JUMP JUMPDEST DUP3 MSTORE POP POP JUMP JUMPDEST PUSH1 0x0 PUSH1 0x20 DUP3 ADD SWAP1 POP PUSH2 0x347A PUSH1 0x0 DUP4 ADD DUP5 PUSH2 0x331E JUMP JUMPDEST SWAP3 SWAP2 POP POP JUMP JUMPDEST PUSH1 0x0 PUSH1 0x20 DUP3 ADD SWAP1 POP DUP2 DUP2 SUB PUSH1 0x0 DUP4 ADD MSTORE PUSH2 0x349A DUP2 DUP5 PUSH2 0x333C JUMP JUMPDEST SWAP1 POP SWAP3 SWAP2 POP POP JUMP JUMPDEST PUSH1 0x0 PUSH1 0x20 DUP3 ADD SWAP1 POP DUP2 DUP2 SUB PUSH1 0x0 DUP4 ADD MSTORE PUSH2 0x34BB DUP2 PUSH2 0x3375 JUMP JUMPDEST SWAP1 POP SWAP2 SWAP1 POP JUMP JUMPDEST PUSH1 0x0 PUSH1 0x20 DUP3 ADD SWAP1 POP DUP2 DUP2 SUB PUSH1 0x0 DUP4 ADD MSTORE PUSH2 0x34DB DUP2 PUSH2 0x3398 JUMP JUMPDEST SWAP1 POP SWAP2 SWAP1 POP JUMP JUMPDEST PUSH1 0x0 PUSH1 0x20 DUP3 ADD SWAP1 POP DUP2 DUP2 SUB PUSH1 0x0 DUP4 ADD MSTORE PUSH2 0x34FB DUP2 PUSH2 0x33BB JUMP JUMPDEST SWAP1 POP SWAP2 SWAP1 POP JUMP JUMPDEST PUSH1 0x0 PUSH1 0x20 DUP3 ADD SWAP1 POP DUP2 DUP2 SUB PUSH1 0x0 DUP4 ADD MSTORE PUSH2 0x351B DUP2 PUSH2 0x33DE JUMP JUMPDEST SWAP1 POP SWAP2 SWAP1 POP JUMP JUMPDEST PUSH1 0x0 PUSH1 0x20 DUP3 ADD SWAP1 POP DUP2 DUP2 SUB PUSH1 0x0 DUP4 ADD MSTORE PUSH2 0x353B DUP2 PUSH2 0x3401 JUMP JUMPDEST SWAP1 POP SWAP2 SWAP1 POP JUMP JUMPDEST PUSH1 0x0 PUSH1 0x20 DUP3 ADD SWAP1 POP DUP2 DUP2 SUB PUSH1 0x0 DUP4 ADD MSTORE PUSH2 0x355B DUP2 PUSH2 0x3424 JUMP JUMPDEST SWAP1 POP SWAP2 SWAP1 POP JUMP JUMPDEST PUSH1 0x0 PUSH1 0x20 DUP3 ADD SWAP1 POP PUSH2 0x3577 PUSH1 0x0 DUP4 ADD DUP5 PUSH2 0x3447 JUMP JUMPDEST SWAP3 SWAP2 POP POP JUMP JUMPDEST PUSH1 0x0 PUSH1 0x40 DUP3 ADD SWAP1 POP PUSH2 0x3592 PUSH1 0x0 DUP4 ADD DUP6 PUSH2 0x3447 JUMP JUMPDEST PUSH2 0x359F PUSH1 0x20 DUP4 ADD DUP5 PUSH2 0x3447 JUMP JUMPDEST SWAP4 SWAP3 POP POP POP JUMP JUMPDEST PUSH1 0x0 PUSH1 0x60 DUP3 ADD SWAP1 POP PUSH2 0x35BB PUSH1 0x0 DUP4 ADD DUP7 PUSH2 0x3447 JUMP JUMPDEST PUSH2 0x35C8 PUSH1 0x20 DUP4 ADD DUP6 PUSH2 0x3447 JUMP JUMPDEST PUSH2 0x35D5 PUSH1 0x40 DUP4 ADD DUP5 PUSH2 0x3447 JUMP JUMPDEST SWAP5 SWAP4 POP POP POP POP JUMP JUMPDEST PUSH1 0x0 PUSH2 0x100 DUP3 ADD SWAP1 POP PUSH2 0x35F3 PUSH1 0x0 DUP4 ADD DUP12 PUSH2 0x3447 JUMP JUMPDEST PUSH2 0x3600 PUSH1 0x20 DUP4 ADD DUP11 PUSH2 0x3447 JUMP JUMPDEST PUSH2 0x360D PUSH1 0x40 DUP4 ADD DUP10 PUSH2 0x3447 JUMP JUMPDEST PUSH2 0x361A PUSH1 0x60 DUP4 ADD DUP9 PUSH2 0x330F JUMP JUMPDEST PUSH2 0x3627 PUSH1 0x80 DUP4 ADD DUP8 PUSH2 0x330F JUMP JUMPDEST DUP2 DUP2 SUB PUSH1 0xA0 DUP4 ADD MSTORE PUSH2 0x3639 DUP2 DUP7 PUSH2 0x333C JUMP JUMPDEST SWAP1 POP PUSH2 0x3648 PUSH1 0xC0 DUP4 ADD DUP6 PUSH2 0x332D JUMP JUMPDEST PUSH2 0x3655 PUSH1 0xE0 DUP4 ADD DUP5 PUSH2 0x3447 JUMP JUMPDEST SWAP10 SWAP9 POP POP POP POP POP POP POP POP POP JUMP JUMPDEST PUSH1 0x0 PUSH1 0xA0 DUP3 ADD SWAP1 POP PUSH2 0x3677 PUSH1 0x0 DUP4 ADD DUP9 PUSH2 0x3447 JUMP JUMPDEST PUSH2 0x3684 PUSH1 0x20 DUP4 ADD DUP8 PUSH2 0x3447 JUMP JUMPDEST PUSH2 0x3691 PUSH1 0x40 DUP4 ADD DUP7 PUSH2 0x3447 JUMP JUMPDEST PUSH2 0x369E PUSH1 0x60 DUP4 ADD DUP6 PUSH2 0x3300 JUMP JUMPDEST PUSH2 0x36AB PUSH1 0x80 DUP4 ADD DUP5 PUSH2 0x3456 JUMP JUMPDEST SWAP7 SWAP6 POP POP POP POP POP POP JUMP JUMPDEST PUSH1 0x0 PUSH1 0xA0 DUP3 ADD SWAP1 POP PUSH2 0x36CA PUSH1 0x0 DUP4 ADD DUP9 PUSH2 0x3447 JUMP JUMPDEST PUSH2 0x36D7 PUSH1 0x20 DUP4 ADD DUP8 PUSH2 0x3447 JUMP JUMPDEST PUSH2 0x36E4 PUSH1 0x40 DUP4 ADD DUP7 PUSH2 0x3447 JUMP JUMPDEST DUP2 DUP2 SUB PUSH1 0x60 DUP4 ADD MSTORE PUSH2 0x36F6 DUP2 DUP6 PUSH2 0x333C JUMP JUMPDEST SWAP1 POP DUP2 DUP2 SUB PUSH1 0x80 DUP4 ADD MSTORE PUSH2 0x370A DUP2 DUP5 PUSH2 0x333C JUMP JUMPDEST SWAP1 POP SWAP7 SWAP6 POP POP POP POP POP POP JUMP JUMPDEST PUSH1 0x0 PUSH2 0x100 DUP3 ADD SWAP1 POP PUSH2 0x372C PUSH1 0x0 DUP4 ADD DUP12 PUSH2 0x3447 JUMP JUMPDEST PUSH2 0x3739 PUSH1 0x20 DUP4 ADD DUP11 PUSH2 0x3447 JUMP JUMPDEST PUSH2 0x3746 PUSH1 0x40 DUP4 ADD DUP10 PUSH2 0x3447 JUMP JUMPDEST DUP2 DUP2 SUB PUSH1 0x60 DUP4 ADD MSTORE PUSH2 0x3758 DUP2 DUP9 PUSH2 0x333C JUMP JUMPDEST SWAP1 POP DUP2 DUP2 SUB PUSH1 0x80 DUP4 ADD MSTORE PUSH2 0x376C DUP2 DUP8 PUSH2 0x333C JUMP JUMPDEST SWAP1 POP PUSH2 0x377B PUSH1 0xA0 DUP4 ADD DUP7 PUSH2 0x330F JUMP JUMPDEST PUSH2 0x3788 PUSH1 0xC0 DUP4 ADD DUP6 PUSH2 0x330F JUMP JUMPDEST PUSH2 0x3795 PUSH1 0xE0 DUP4 ADD DUP5 PUSH2 0x3447 JUMP JUMPDEST SWAP10 SWAP9 POP POP POP POP POP POP POP POP POP JUMP JUMPDEST PUSH1 0x0 PUSH2 0x37AC PUSH2 0x37BD JUMP JUMPDEST SWAP1 POP PUSH2 0x37B8 DUP3 DUP3 PUSH2 0x39AC JUMP JUMPDEST SWAP2 SWAP1 POP JUMP JUMPDEST PUSH1 0x0 PUSH1 0x40 MLOAD SWAP1 POP SWAP1 JUMP JUMPDEST PUSH1 0x0 PUSH8 0xFFFFFFFFFFFFFFFF DUP3 GT ISZERO PUSH2 0x37E2 JUMPI PUSH2 0x37E1 PUSH2 0x3B0C JUMP JUMPDEST JUMPDEST PUSH2 0x37EB DUP3 PUSH2 0x3B4F JUMP JUMPDEST SWAP1 POP PUSH1 0x20 DUP2 ADD SWAP1 POP SWAP2 SWAP1 POP JUMP JUMPDEST PUSH1 0x0 DUP2 MLOAD SWAP1 POP SWAP2 SWAP1 POP JUMP JUMPDEST PUSH1 0x0 DUP3 DUP3 MSTORE PUSH1 0x20 DUP3 ADD SWAP1 POP SWAP3 SWAP2 POP POP JUMP JUMPDEST PUSH1 0x0 PUSH2 0x381F DUP3 PUSH2 0x389D JUMP JUMPDEST SWAP2 POP PUSH2 0x382A DUP4 PUSH2 0x389D JUMP JUMPDEST SWAP3 POP DUP3 PUSH2 0x383A JUMPI PUSH2 0x3839 PUSH2 0x3A7F JUMP JUMPDEST JUMPDEST DUP3 DUP3 DIV SWAP1 POP SWAP3 SWAP2 POP POP JUMP JUMPDEST PUSH1 0x0 PUSH2 0x3850 DUP3 PUSH2 0x387D JUMP JUMPDEST SWAP1 POP SWAP2 SWAP1 POP JUMP JUMPDEST PUSH1 0x0 DUP2 SWAP1 POP PUSH2 0x3865 DUP3 PUSH2 0x3C7C JUMP JUMPDEST SWAP2 SWAP1 POP JUMP JUMPDEST PUSH1 0x0 DUP2 SWAP1 POP PUSH2 0x3878 DUP3 PUSH2 0x3C90 JUMP JUMPDEST SWAP2 SWAP1 POP JUMP JUMPDEST PUSH1 0x0 PUSH20 0xFFFFFFFFFFFFFFFFFFFFFFFFFFFFFFFFFFFFFFFF DUP3 AND SWAP1 POP SWAP2 SWAP1 POP JUMP JUMPDEST PUSH1 0x0 DUP2 SWAP1 POP SWAP2 SWAP1 POP JUMP JUMPDEST PUSH1 0x0 PUSH1 0xFF DUP3 AND SWAP1 POP SWAP2 SWAP1 POP JUMP JUMPDEST PUSH1 0x0 PUSH2 0x38BF DUP3 PUSH2 0x38EA JUMP JUMPDEST SWAP1 POP SWAP2 SWAP1 POP JUMP JUMPDEST PUSH1 0x0 PUSH2 0x38D1 DUP3 PUSH2 0x3857 JUMP JUMPDEST SWAP1 POP SWAP2 SWAP1 POP JUMP JUMPDEST PUSH1 0x0 PUSH2 0x38E3 DUP3 PUSH2 0x386A JUMP JUMPDEST SWAP1 POP SWAP2 SWAP1 POP JUMP JUMPDEST PUSH1 0x0 PUSH2 0x38F5 DUP3 PUSH2 0x38FC JUMP JUMPDEST SWAP1 POP SWAP2 SWAP1 POP JUMP JUMPDEST PUSH1 0x0 PUSH2 0x3907 DUP3 PUSH2 0x387D JUMP JUMPDEST SWAP1 POP SWAP2 SWAP1 POP JUMP JUMPDEST DUP3 DUP2 DUP4 CALLDATACOPY PUSH1 0x0 DUP4 DUP4 ADD MSTORE POP POP POP JUMP JUMPDEST PUSH1 0x0 JUMPDEST DUP4 DUP2 LT ISZERO PUSH2 0x393B JUMPI DUP1 DUP3 ADD MLOAD DUP2 DUP5 ADD MSTORE PUSH1 0x20 DUP2 ADD SWAP1 POP PUSH2 0x3920 JUMP JUMPDEST DUP4 DUP2 GT ISZERO PUSH2 0x394A JUMPI PUSH1 0x0 DUP5 DUP5 ADD MSTORE JUMPDEST POP POP POP POP JUMP JUMPDEST PUSH1 0x0 PUSH2 0x395B DUP3 PUSH2 0x389D JUMP JUMPDEST SWAP2 POP PUSH1 0x0 DUP3 EQ ISZERO PUSH2 0x396F JUMPI PUSH2 0x396E PUSH2 0x3A50 JUMP JUMPDEST JUMPDEST PUSH1 0x1 DUP3 SUB SWAP1 POP SWAP2 SWAP1 POP JUMP JUMPDEST PUSH1 0x0 PUSH1 0x2 DUP3 DIV SWAP1 POP PUSH1 0x1 DUP3 AND DUP1 PUSH2 0x3992 JUMPI PUSH1 0x7F DUP3 AND SWAP2 POP JUMPDEST PUSH1 0x20 DUP3 LT DUP2 EQ ISZERO PUSH2 0x39A6 JUMPI PUSH2 0x39A5 PUSH2 0x3ADD JUMP JUMPDEST JUMPDEST POP SWAP2 SWAP1 POP JUMP JUMPDEST PUSH2 0x39B5 DUP3 PUSH2 0x3B4F JUMP JUMPDEST DUP2 ADD DUP2 DUP2 LT PUSH8 0xFFFFFFFFFFFFFFFF DUP3 GT OR ISZERO PUSH2 0x39D4 JUMPI PUSH2 0x39D3 PUSH2 0x3B0C JUMP JUMPDEST JUMPDEST DUP1 PUSH1 0x40 MSTORE POP POP POP JUMP JUMPDEST PUSH1 0x0 PUSH2 0x39E8 DUP3 PUSH2 0x389D JUMP JUMPDEST SWAP2 POP PUSH32 0xFFFFFFFFFFFFFFFFFFFFFFFFFFFFFFFFFFFFFFFFFFFFFFFFFFFFFFFFFFFFFFFF DUP3 EQ ISZERO PUSH2 0x3A1B JUMPI PUSH2 0x3A1A PUSH2 0x3A50 JUMP JUMPDEST JUMPDEST PUSH1 0x1 DUP3 ADD SWAP1 POP SWAP2 SWAP1 POP JUMP JUMPDEST PUSH1 0x0 PUSH2 0x3A31 DUP3 PUSH2 0x38A7 JUMP JUMPDEST SWAP2 POP PUSH1 0xFF DUP3 EQ ISZERO PUSH2 0x3A45 JUMPI PUSH2 0x3A44 PUSH2 0x3A50 JUMP JUMPDEST JUMPDEST PUSH1 0x1 DUP3 ADD SWAP1 POP SWAP2 SWAP1 POP JUMP JUMPDEST PUSH32 0x4E487B7100000000000000000000000000000000000000000000000000000000 PUSH1 0x0 MSTORE PUSH1 0x11 PUSH1 0x4 MSTORE PUSH1 0x24 PUSH1 0x0 REVERT JUMPDEST PUSH32 0x4E487B7100000000000000000000000000000000000000000000000000000000 PUSH1 0x0 MSTORE PUSH1 0x12 PUSH1 0x4 MSTORE PUSH1 0x24 PUSH1 0x0 REVERT JUMPDEST PUSH32 0x4E487B7100000000000000000000000000000000000000000000000000000000 PUSH1 0x0 MSTORE PUSH1 0x21 PUSH1 0x4 MSTORE PUSH1 0x24 PUSH1 0x0 REVERT JUMPDEST PUSH32 0x4E487B7100000000000000000000000000000000000000000000000000000000 PUSH1 0x0 MSTORE PUSH1 0x22 PUSH1 0x4 MSTORE PUSH1 0x24 PUSH1 0x0 REVERT JUMPDEST PUSH32 0x4E487B7100000000000000000000000000000000000000000000000000000000 PUSH1 0x0 MSTORE PUSH1 0x41 PUSH1 0x4 MSTORE PUSH1 0x24 PUSH1 0x0 REVERT JUMPDEST PUSH1 0x0 DUP1 REVERT JUMPDEST PUSH1 0x0 DUP1 REVERT JUMPDEST PUSH1 0x0 DUP1 REVERT JUMPDEST PUSH1 0x0 DUP1 REVERT JUMPDEST PUSH1 0x0 PUSH1 0x1F NOT PUSH1 0x1F DUP4 ADD AND SWAP1 POP SWAP2 SWAP1 POP JUMP JUMPDEST PUSH32 0x416D6F756E74207061696420696E636F72726563740000000000000000000000 PUSH1 0x0 DUP3 ADD MSTORE POP JUMP JUMPDEST PUSH32 0x43616E6E6F74206361727279206F75742074686973206F7065726174696F6E21 PUSH1 0x0 DUP3 ADD MSTORE POP JUMP JUMPDEST PUSH32 0x20496E76616C6964000000000000000000000000000000000000000000000000 PUSH1 0x0 DUP3 ADD MSTORE POP JUMP JUMPDEST PUSH32 0x4E6F7420612076616C69642044414F204D656D62657200000000000000000000 PUSH1 0x0 DUP3 ADD MSTORE POP JUMP JUMPDEST PUSH32 0x54686973204D696C6573746F6E6520646F6573206E6F74206578697374207961 PUSH1 0x0 DUP3 ADD MSTORE PUSH32 0x2064756D6D792100000000000000000000000000000000000000000000000000 PUSH1 0x20 DUP3 ADD MSTORE POP JUMP JUMPDEST PUSH32 0x4120737472696E67206973207265717569726564210000000000000000000000 PUSH1 0x0 DUP3 ADD MSTORE POP JUMP JUMPDEST PUSH1 0x4 DUP2 LT PUSH2 0x3C8D JUMPI PUSH2 0x3C8C PUSH2 0x3AAE JUMP JUMPDEST JUMPDEST POP JUMP JUMPDEST PUSH1 0x2 DUP2 LT PUSH2 0x3CA1 JUMPI PUSH2 0x3CA0 PUSH2 0x3AAE JUMP JUMPDEST JUMPDEST POP JUMP JUMPDEST PUSH2 0x3CAD DUP2 PUSH2 0x3845 JUMP JUMPDEST DUP2 EQ PUSH2 0x3CB8 JUMPI PUSH1 0x0 DUP1 REVERT JUMPDEST POP JUMP JUMPDEST PUSH1 0x4 DUP2 LT PUSH2 0x3CC8 JUMPI PUSH1 0x0 DUP1 REVERT JUMPDEST POP JUMP JUMPDEST PUSH2 0x3CD4 DUP2 PUSH2 0x389D JUMP JUMPDEST DUP2 EQ PUSH2 0x3CDF JUMPI PUSH1 0x0 DUP1 REVERT JUMPDEST POP JUMP JUMPDEST PUSH2 0x3CEB DUP2 PUSH2 0x38A7 JUMP JUMPDEST DUP2 EQ PUSH2 0x3CF6 JUMPI PUSH1 0x0 DUP1 REVERT JUMPDEST POP JUMP INVALID LOG2 PUSH5 0x6970667358 0x22 SLT KECCAK256 0xAB 0xCD 0xD3 0xB3 SWAP1 0xD 0xF6 0x22 0x1E RETURNDATASIZE 0xEB PUSH5 0xC01ADA0556 0xE6 0xCF 0xD5 LT PUSH7 0xE5519024AA6708 0xB1 PUSH31 0x7564736F6C6343000807003300000000000000000000000000000000000000 "
		},
		"gasEstimates": {
			"creation": {
				"codeDepositCost": "3132600",
				"executionCost": "infinite",
				"totalCost": "infinite"
			},
			"external": {
				"acceptMilestone(uint256,uint256,address)": "infinite",
				"completeMilestone(uint256,uint256,uint256,address)": "infinite",
				"createConflict(uint256,uint256,uint256,string,string,address,address,uint256)": "infinite",
				"createMilestone(uint256,uint256,string,string,address)": "infinite",
				"deleteConflict(uint256,uint256,uint256)": "infinite",
				"deleteMilestone(uint256,uint256,uint256,address)": "infinite",
				"getAvgServiceProviderStarRating(uint256,uint256)": "infinite",
				"getAvgServiceRequesterStarRating(uint256,uint256)": "infinite",
				"getConflictStatus(uint256,uint256,uint256)": "infinite",
				"getMilestonePrice(uint256,uint256,uint256)": "infinite",
				"getResults(uint256,uint256,uint256)": "infinite",
				"getVotesCollected(uint256,uint256,uint256)": "infinite",
				"getVotesforProvider(uint256,uint256,uint256)": "infinite",
				"getVotesforRequester(uint256,uint256,uint256)": "infinite",
				"readMilestoneTitle(uint256,uint256,uint256)": "infinite",
				"resolveConflictPayment(uint256,uint256,uint256,uint256)": "infinite",
				"reviewMilestone(uint256,uint256,uint256,address,string,uint256)": "infinite",
				"startVote(uint256,uint256,uint256,uint256,address)": "infinite",
				"updateConflict(uint256,uint256,uint256,string,string)": "infinite",
				"updateMilestone(uint256,uint256,uint256,string,string,address)": "infinite",
				"verifyMilestone(uint256,uint256,uint256,address)": "infinite",
				"voteConflict(uint256,uint256,uint256,uint256,address,uint8)": "infinite"
			},
			"internal": {
				"checkDAO(uint256,uint256,uint256,address payable)": "infinite",
				"setState(uint256,uint256,uint256,enum States.MilestoneStatus)": "24600",
				"startNextMilestone(uint256,uint256)": "infinite"
			}
		},
		"methodIdentifiers": {
			"acceptMilestone(uint256,uint256,address)": "6a398138",
			"completeMilestone(uint256,uint256,uint256,address)": "ce1f8a89",
			"createConflict(uint256,uint256,uint256,string,string,address,address,uint256)": "e62fac27",
			"createMilestone(uint256,uint256,string,string,address)": "b3fbe997",
			"deleteConflict(uint256,uint256,uint256)": "003f489f",
			"deleteMilestone(uint256,uint256,uint256,address)": "53c400e1",
			"getAvgServiceProviderStarRating(uint256,uint256)": "ccee835b",
			"getAvgServiceRequesterStarRating(uint256,uint256)": "664fc0cd",
			"getConflictStatus(uint256,uint256,uint256)": "cb4389ce",
			"getMilestonePrice(uint256,uint256,uint256)": "b2ce874e",
			"getResults(uint256,uint256,uint256)": "0366cef2",
			"getVotesCollected(uint256,uint256,uint256)": "3c45fe31",
			"getVotesforProvider(uint256,uint256,uint256)": "9ac78879",
			"getVotesforRequester(uint256,uint256,uint256)": "e3d87718",
			"readMilestoneTitle(uint256,uint256,uint256)": "ace731bd",
			"resolveConflictPayment(uint256,uint256,uint256,uint256)": "60fb14a6",
			"reviewMilestone(uint256,uint256,uint256,address,string,uint256)": "bba93c0b",
			"startVote(uint256,uint256,uint256,uint256,address)": "06cf28a3",
			"updateConflict(uint256,uint256,uint256,string,string)": "d1e992a7",
			"updateMilestone(uint256,uint256,uint256,string,string,address)": "1db95ff3",
			"verifyMilestone(uint256,uint256,uint256,address)": "b1e2ec78",
			"voteConflict(uint256,uint256,uint256,uint256,address,uint8)": "3f8f5227"
		}
	},
	"abi": [
		{
			"inputs": [
				{
					"internalType": "contract Conflict",
					"name": "conflictContract",
					"type": "address"
				},
				{
					"internalType": "contract Review",
					"name": "reviewContract",
					"type": "address"
				}
			],
			"stateMutability": "payable",
			"type": "constructor"
		},
		{
			"anonymous": false,
			"inputs": [
				{
					"indexed": false,
					"internalType": "uint256",
					"name": "projectNumber",
					"type": "uint256"
				},
				{
					"indexed": false,
					"internalType": "uint256",
					"name": "serviceNumber",
					"type": "uint256"
				},
				{
					"indexed": false,
					"internalType": "uint256",
					"name": "milestoneNumber",
					"type": "uint256"
				},
				{
					"indexed": false,
					"internalType": "string",
					"name": "title",
					"type": "string"
				},
				{
					"indexed": false,
					"internalType": "string",
					"name": "description",
					"type": "string"
				}
			],
			"name": "milestoneCreated",
			"type": "event"
		},
		{
			"anonymous": false,
			"inputs": [
				{
					"indexed": false,
					"internalType": "uint256",
					"name": "projectNumber",
					"type": "uint256"
				},
				{
					"indexed": false,
					"internalType": "uint256",
					"name": "serviceNumber",
					"type": "uint256"
				},
				{
					"indexed": false,
					"internalType": "uint256",
					"name": "milestoneNumber",
					"type": "uint256"
				}
			],
			"name": "milestoneDeleted",
			"type": "event"
		},
		{
			"anonymous": false,
			"inputs": [
				{
					"indexed": false,
					"internalType": "uint256",
					"name": "projectNumber",
					"type": "uint256"
				},
				{
					"indexed": false,
					"internalType": "uint256",
					"name": "serviceNumber",
					"type": "uint256"
				},
				{
					"indexed": false,
					"internalType": "uint256",
					"name": "milestoneNumber",
					"type": "uint256"
				},
				{
					"indexed": false,
					"internalType": "string",
					"name": "title",
					"type": "string"
				},
				{
					"indexed": false,
					"internalType": "string",
					"name": "description",
					"type": "string"
				}
			],
			"name": "milestoneUpdated",
			"type": "event"
		},
		{
			"inputs": [
				{
					"internalType": "uint256",
					"name": "projectNumber",
					"type": "uint256"
				},
				{
					"internalType": "uint256",
					"name": "serviceNumber",
					"type": "uint256"
				},
				{
					"internalType": "address payable",
					"name": "_from",
					"type": "address"
				}
			],
			"name": "acceptMilestone",
			"outputs": [],
			"stateMutability": "nonpayable",
			"type": "function"
		},
		{
			"inputs": [
				{
					"internalType": "uint256",
					"name": "projectNumber",
					"type": "uint256"
				},
				{
					"internalType": "uint256",
					"name": "serviceNumber",
					"type": "uint256"
				},
				{
					"internalType": "uint256",
					"name": "milestoneNumber",
					"type": "uint256"
				},
				{
					"internalType": "address payable",
					"name": "_from",
					"type": "address"
				}
			],
			"name": "completeMilestone",
			"outputs": [],
			"stateMutability": "nonpayable",
			"type": "function"
		},
		{
			"inputs": [
				{
					"internalType": "uint256",
					"name": "projectNumber",
					"type": "uint256"
				},
				{
					"internalType": "uint256",
					"name": "serviceNumber",
					"type": "uint256"
				},
				{
					"internalType": "uint256",
					"name": "milestoneNumber",
					"type": "uint256"
				},
				{
					"internalType": "string",
					"name": "title",
					"type": "string"
				},
				{
					"internalType": "string",
					"name": "description",
					"type": "string"
				},
				{
					"internalType": "address payable",
					"name": "serviceRequester",
					"type": "address"
				},
				{
					"internalType": "address payable",
					"name": "serviceProvider",
					"type": "address"
				},
				{
					"internalType": "uint256",
					"name": "totalVoters",
					"type": "uint256"
				}
			],
			"name": "createConflict",
			"outputs": [],
			"stateMutability": "nonpayable",
			"type": "function"
		},
		{
			"inputs": [
				{
					"internalType": "uint256",
					"name": "projectNumber",
					"type": "uint256"
				},
				{
					"internalType": "uint256",
					"name": "serviceNumber",
					"type": "uint256"
				},
				{
					"internalType": "string",
					"name": "title",
					"type": "string"
				},
				{
					"internalType": "string",
					"name": "description",
					"type": "string"
				},
				{
					"internalType": "address payable",
					"name": "_from",
					"type": "address"
				}
			],
			"name": "createMilestone",
			"outputs": [],
			"stateMutability": "payable",
			"type": "function"
		},
		{
			"inputs": [
				{
					"internalType": "uint256",
					"name": "projectNumber",
					"type": "uint256"
				},
				{
					"internalType": "uint256",
					"name": "serviceNumber",
					"type": "uint256"
				},
				{
					"internalType": "uint256",
					"name": "milestoneNumber",
					"type": "uint256"
				}
			],
			"name": "deleteConflict",
			"outputs": [],
			"stateMutability": "nonpayable",
			"type": "function"
		},
		{
			"inputs": [
				{
					"internalType": "uint256",
					"name": "projectNumber",
					"type": "uint256"
				},
				{
					"internalType": "uint256",
					"name": "serviceNumber",
					"type": "uint256"
				},
				{
					"internalType": "uint256",
					"name": "milestoneNumber",
					"type": "uint256"
				},
				{
					"internalType": "address payable",
					"name": "_from",
					"type": "address"
				}
			],
			"name": "deleteMilestone",
			"outputs": [],
			"stateMutability": "nonpayable",
			"type": "function"
		},
		{
			"inputs": [
				{
					"internalType": "uint256",
					"name": "projectNumber",
					"type": "uint256"
				},
				{
					"internalType": "uint256",
					"name": "serviceNumber",
					"type": "uint256"
				}
			],
			"name": "getAvgServiceProviderStarRating",
			"outputs": [
				{
					"internalType": "uint256",
					"name": "",
					"type": "uint256"
				}
			],
			"stateMutability": "view",
			"type": "function"
		},
		{
			"inputs": [
				{
					"internalType": "uint256",
					"name": "projectNumber",
					"type": "uint256"
				},
				{
					"internalType": "uint256",
					"name": "serviceNumber",
					"type": "uint256"
				}
			],
			"name": "getAvgServiceRequesterStarRating",
			"outputs": [
				{
					"internalType": "uint256",
					"name": "",
					"type": "uint256"
				}
			],
			"stateMutability": "view",
			"type": "function"
		},
		{
			"inputs": [
				{
					"internalType": "uint256",
					"name": "projectNumber",
					"type": "uint256"
				},
				{
					"internalType": "uint256",
					"name": "serviceNumber",
					"type": "uint256"
				},
				{
					"internalType": "uint256",
					"name": "milestoneNumber",
					"type": "uint256"
				}
			],
			"name": "getConflictStatus",
			"outputs": [
				{
					"internalType": "enum States.ConflictStatus",
					"name": "",
					"type": "uint8"
				}
			],
			"stateMutability": "view",
			"type": "function"
		},
		{
			"inputs": [
				{
					"internalType": "uint256",
					"name": "projectNumber",
					"type": "uint256"
				},
				{
					"internalType": "uint256",
					"name": "serviceNumber",
					"type": "uint256"
				},
				{
					"internalType": "uint256",
					"name": "milestoneNumber",
					"type": "uint256"
				}
			],
			"name": "getMilestonePrice",
			"outputs": [
				{
					"internalType": "uint256",
					"name": "",
					"type": "uint256"
				}
			],
			"stateMutability": "view",
			"type": "function"
		},
		{
			"inputs": [
				{
					"internalType": "uint256",
					"name": "projectNumber",
					"type": "uint256"
				},
				{
					"internalType": "uint256",
					"name": "serviceNumber",
					"type": "uint256"
				},
				{
					"internalType": "uint256",
					"name": "milestoneNumber",
					"type": "uint256"
				}
			],
			"name": "getResults",
			"outputs": [
				{
					"internalType": "uint256",
					"name": "",
					"type": "uint256"
				}
			],
			"stateMutability": "view",
			"type": "function"
		},
		{
			"inputs": [
				{
					"internalType": "uint256",
					"name": "projectNumber",
					"type": "uint256"
				},
				{
					"internalType": "uint256",
					"name": "serviceNumber",
					"type": "uint256"
				},
				{
					"internalType": "uint256",
					"name": "milestoneNumber",
					"type": "uint256"
				}
			],
			"name": "getVotesCollected",
			"outputs": [
				{
					"internalType": "uint256",
					"name": "",
					"type": "uint256"
				}
			],
			"stateMutability": "view",
			"type": "function"
		},
		{
			"inputs": [
				{
					"internalType": "uint256",
					"name": "projectNumber",
					"type": "uint256"
				},
				{
					"internalType": "uint256",
					"name": "serviceNumber",
					"type": "uint256"
				},
				{
					"internalType": "uint256",
					"name": "milestoneNumber",
					"type": "uint256"
				}
			],
			"name": "getVotesforProvider",
			"outputs": [
				{
					"internalType": "uint256",
					"name": "",
					"type": "uint256"
				}
			],
			"stateMutability": "view",
			"type": "function"
		},
		{
			"inputs": [
				{
					"internalType": "uint256",
					"name": "projectNumber",
					"type": "uint256"
				},
				{
					"internalType": "uint256",
					"name": "serviceNumber",
					"type": "uint256"
				},
				{
					"internalType": "uint256",
					"name": "milestoneNumber",
					"type": "uint256"
				}
			],
			"name": "getVotesforRequester",
			"outputs": [
				{
					"internalType": "uint256",
					"name": "",
					"type": "uint256"
				}
			],
			"stateMutability": "view",
			"type": "function"
		},
		{
			"inputs": [
				{
					"internalType": "uint256",
					"name": "projectNumber",
					"type": "uint256"
				},
				{
					"internalType": "uint256",
					"name": "serviceNumber",
					"type": "uint256"
				},
				{
					"internalType": "uint256",
					"name": "milestoneNumber",
					"type": "uint256"
				}
			],
			"name": "readMilestoneTitle",
			"outputs": [
				{
					"internalType": "string",
					"name": "",
					"type": "string"
				}
			],
			"stateMutability": "view",
			"type": "function"
		},
		{
			"inputs": [
				{
					"internalType": "uint256",
					"name": "projectNumber",
					"type": "uint256"
				},
				{
					"internalType": "uint256",
					"name": "serviceNumber",
					"type": "uint256"
				},
				{
					"internalType": "uint256",
					"name": "milestoneNumber",
					"type": "uint256"
				},
				{
					"internalType": "uint256",
					"name": "value",
					"type": "uint256"
				}
			],
			"name": "resolveConflictPayment",
			"outputs": [],
			"stateMutability": "payable",
			"type": "function"
		},
		{
			"inputs": [
				{
					"internalType": "uint256",
					"name": "projectNumber",
					"type": "uint256"
				},
				{
					"internalType": "uint256",
					"name": "serviceNumber",
					"type": "uint256"
				},
				{
					"internalType": "uint256",
					"name": "milestoneNumber",
					"type": "uint256"
				},
				{
					"internalType": "address payable",
					"name": "_from",
					"type": "address"
				},
				{
					"internalType": "string",
					"name": "review_input",
					"type": "string"
				},
				{
					"internalType": "uint256",
					"name": "star_rating",
					"type": "uint256"
				}
			],
			"name": "reviewMilestone",
			"outputs": [],
			"stateMutability": "nonpayable",
			"type": "function"
		},
		{
			"inputs": [
				{
					"internalType": "uint256",
					"name": "projectNumber",
					"type": "uint256"
				},
				{
					"internalType": "uint256",
					"name": "serviceNumber",
					"type": "uint256"
				},
				{
					"internalType": "uint256",
					"name": "milestoneNumber",
					"type": "uint256"
				},
				{
					"internalType": "uint256",
					"name": "numMilestones",
					"type": "uint256"
				},
				{
					"internalType": "address payable",
					"name": "_from",
					"type": "address"
				}
			],
			"name": "startVote",
			"outputs": [],
			"stateMutability": "nonpayable",
			"type": "function"
		},
		{
			"inputs": [
				{
					"internalType": "uint256",
					"name": "projectNumber",
					"type": "uint256"
				},
				{
					"internalType": "uint256",
					"name": "serviceNumber",
					"type": "uint256"
				},
				{
					"internalType": "uint256",
					"name": "milestoneNumber",
					"type": "uint256"
				},
				{
					"internalType": "string",
					"name": "title",
					"type": "string"
				},
				{
					"internalType": "string",
					"name": "description",
					"type": "string"
				}
			],
			"name": "updateConflict",
			"outputs": [],
			"stateMutability": "nonpayable",
			"type": "function"
		},
		{
			"inputs": [
				{
					"internalType": "uint256",
					"name": "projectNumber",
					"type": "uint256"
				},
				{
					"internalType": "uint256",
					"name": "serviceNumber",
					"type": "uint256"
				},
				{
					"internalType": "uint256",
					"name": "milestoneNumber",
					"type": "uint256"
				},
				{
					"internalType": "string",
					"name": "title",
					"type": "string"
				},
				{
					"internalType": "string",
					"name": "description",
					"type": "string"
				},
				{
					"internalType": "address payable",
					"name": "_from",
					"type": "address"
				}
			],
			"name": "updateMilestone",
			"outputs": [],
			"stateMutability": "nonpayable",
			"type": "function"
		},
		{
			"inputs": [
				{
					"internalType": "uint256",
					"name": "projectNumber",
					"type": "uint256"
				},
				{
					"internalType": "uint256",
					"name": "serviceNumber",
					"type": "uint256"
				},
				{
					"internalType": "uint256",
					"name": "milestoneNumber",
					"type": "uint256"
				},
				{
					"internalType": "address payable",
					"name": "_from",
					"type": "address"
				}
			],
			"name": "verifyMilestone",
			"outputs": [],
			"stateMutability": "payable",
			"type": "function"
		},
		{
			"inputs": [
				{
					"internalType": "uint256",
					"name": "projectNumber",
					"type": "uint256"
				},
				{
					"internalType": "uint256",
					"name": "serviceNumber",
					"type": "uint256"
				},
				{
					"internalType": "uint256",
					"name": "milestoneNumber",
					"type": "uint256"
				},
				{
					"internalType": "uint256",
					"name": "numMilestones",
					"type": "uint256"
				},
				{
					"internalType": "address payable",
					"name": "_from",
					"type": "address"
				},
				{
					"internalType": "uint8",
					"name": "vote",
					"type": "uint8"
				}
			],
			"name": "voteConflict",
			"outputs": [],
			"stateMutability": "nonpayable",
			"type": "function"
		}
	]
}