{
	"data": {
		"bytecode": {
			"linkReferences": {},
			"object": "60806040523480156200001157600080fd5b50604051620011e1380380620011e1833981810160405281019062000037919062000095565b806000806101000a81548173ffffffffffffffffffffffffffffffffffffffff021916908373ffffffffffffffffffffffffffffffffffffffff160217905550506200012e565b6000815190506200008f8162000114565b92915050565b600060208284031215620000ae57620000ad6200010f565b5b6000620000be848285016200007e565b91505092915050565b6000620000d482620000ef565b9050919050565b6000620000e882620000c7565b9050919050565b600073ffffffffffffffffffffffffffffffffffffffff82169050919050565b600080fd5b6200011f81620000db565b81146200012b57600080fd5b50565b6110a3806200013e6000396000f3fe608060405234801561001057600080fd5b506004361061004c5760003560e01c806349428a621461005157806363ef8a5014610082578063b9b6c5d41461009e578063fd23c4bb146100ba575b600080fd5b61006b60048036038101906100669190610b06565b6100d6565b604051610079929190610c54565b60405180910390f35b61009c60048036038101906100979190610a67565b61028b565b005b6100b860048036038101906100b39190610b06565b61044e565b005b6100d460048036038101906100cf9190610b59565b6106ee565b005b606080600160008681526020019081526020016000206000858152602001908152602001600020838154811061010f5761010e610fd3565b5b9060005260206000209060060201600301600160008781526020019081526020016000206000868152602001908152602001600020848154811061015657610155610fd3565b5b906000526020600020906006020160040181805461017390610e6b565b80601f016020809104026020016040519081016040528092919081815260200182805461019f90610e6b565b80156101ec5780601f106101c1576101008083540402835291602001916101ec565b820191906000526020600020905b8154815290600101906020018083116101cf57829003601f168201915b505050505091508080546101ff90610e6b565b80601f016020809104026020016040519081016040528092919081815260200182805461022b90610e6b565b80156102785780601f1061024d57610100808354040283529160200191610278565b820191906000526020600020905b81548152906001019060200180831161025b57829003601f168201915b5050505050905091509150935093915050565b600060018060008781526020019081526020016000206000868152602001908152602001600020805490506102c09190610d95565b905060006040518060e001604052808781526020018681526020018381526020018581526020018481526020016001151581526020016001600681111561030a57610309610f46565b5b81525090506001600087815260200190815260200160002060008681526020019081526020016000208190806001815401808255809150506001900390600052602060002090600602016000909190919091506000820151816000015560208201518160010155604082015181600201556060820151816003019080519060200190610397929190610872565b5060808201518160040190805190602001906103b4929190610872565b5060a08201518160050160006101000a81548160ff02191690831515021790555060c08201518160050160016101000a81548160ff02191690836006811115610400576103ff610f46565b5b021790555050507f70d8b12d438dd130d28072c77c8047d9697b630b8dcd969123645998ad67d561868684878760405161043e959493929190610cc2565b60405180910390a1505050505050565b60008190505b60018060008681526020019081526020016000206000858152602001908152602001600020805490506104879190610deb565b811015610600576001600085815260200190815260200160002060008481526020019081526020016000206001826104bf9190610d95565b815481106104d0576104cf610fd3565b5b9060005260206000209060060201600160008681526020019081526020016000206000858152602001908152602001600020828154811061051457610513610fd3565b5b9060005260206000209060060201600082015481600001556001820154816001015560028201548160020155600382018160030190805461055490610e6b565b61055f9291906108f8565b50600482018160040190805461057490610e6b565b61057f9291906108f8565b506005820160009054906101000a900460ff168160050160006101000a81548160ff0219169083151502179055506005820160019054906101000a900460ff168160050160016101000a81548160ff021916908360068111156105e5576105e4610f46565b5b021790555090505080806105f890610ece565b915050610454565b5060016000848152602001908152602001600020600083815260200190815260200160002080548061063557610634610fa4565b5b6001900381819060005260206000209060060201600080820160009055600182016000905560028201600090556003820160006106729190610985565b6004820160006106829190610985565b6005820160006101000a81549060ff02191690556005820160016101000a81549060ff0219169055505090557f2b2605ee52ace237f72e6005eee79180ea3b6151bd8848a6be5e3c224b8a6ec68383836040516106e193929190610c8b565b60405180910390a1505050565b60006040518060e001604052808781526020018681526020018581526020018481526020018381526020016001151581526020016001600681111561073657610735610f46565b5b815250905080600160008881526020019081526020016000206000878152602001908152602001600020858154811061077257610771610fd3565b5b906000526020600020906006020160008201518160000155602082015181600101556040820151816002015560608201518160030190805190602001906107ba929190610872565b5060808201518160040190805190602001906107d7929190610872565b5060a08201518160050160006101000a81548160ff02191690831515021790555060c08201518160050160016101000a81548160ff0219169083600681111561082357610822610f46565b5b02179055509050507f8c0d6ff1212c3fbf79bbe6dc1e26cc40c4e137ec5711d4471b16fa121f9335118686868686604051610862959493929190610cc2565b60405180910390a1505050505050565b82805461087e90610e6b565b90600052602060002090601f0160209004810192826108a057600085556108e7565b82601f106108b957805160ff19168380011785556108e7565b828001600101855582156108e7579182015b828111156108e65782518255916020019190600101906108cb565b5b5090506108f491906109c5565b5090565b82805461090490610e6b565b90600052602060002090601f0160209004810192826109265760008555610974565b82601f106109375780548555610974565b8280016001018555821561097457600052602060002091601f016020900482015b82811115610973578254825591600101919060010190610958565b5b50905061098191906109c5565b5090565b50805461099190610e6b565b6000825580601f106109a357506109c2565b601f0160209004906000526020600020908101906109c191906109c5565b5b50565b5b808211156109de5760008160009055506001016109c6565b5090565b60006109f56109f084610d48565b610d23565b905082815260208101848484011115610a1157610a10611036565b5b610a1c848285610e29565b509392505050565b600082601f830112610a3957610a38611031565b5b8135610a498482602086016109e2565b91505092915050565b600081359050610a6181611056565b92915050565b60008060008060808587031215610a8157610a80611040565b5b6000610a8f87828801610a52565b9450506020610aa087828801610a52565b935050604085013567ffffffffffffffff811115610ac157610ac061103b565b5b610acd87828801610a24565b925050606085013567ffffffffffffffff811115610aee57610aed61103b565b5b610afa87828801610a24565b91505092959194509250565b600080600060608486031215610b1f57610b1e611040565b5b6000610b2d86828701610a52565b9350506020610b3e86828701610a52565b9250506040610b4f86828701610a52565b9150509250925092565b600080600080600060a08688031215610b7557610b74611040565b5b6000610b8388828901610a52565b9550506020610b9488828901610a52565b9450506040610ba588828901610a52565b935050606086013567ffffffffffffffff811115610bc657610bc561103b565b5b610bd288828901610a24565b925050608086013567ffffffffffffffff811115610bf357610bf261103b565b5b610bff88828901610a24565b9150509295509295909350565b6000610c1782610d79565b610c218185610d84565b9350610c31818560208601610e38565b610c3a81611045565b840191505092915050565b610c4e81610e1f565b82525050565b60006040820190508181036000830152610c6e8185610c0c565b90508181036020830152610c828184610c0c565b90509392505050565b6000606082019050610ca06000830186610c45565b610cad6020830185610c45565b610cba6040830184610c45565b949350505050565b600060a082019050610cd76000830188610c45565b610ce46020830187610c45565b610cf16040830186610c45565b8181036060830152610d038185610c0c565b90508181036080830152610d178184610c0c565b90509695505050505050565b6000610d2d610d3e565b9050610d398282610e9d565b919050565b6000604051905090565b600067ffffffffffffffff821115610d6357610d62611002565b5b610d6c82611045565b9050602081019050919050565b600081519050919050565b600082825260208201905092915050565b6000610da082610e1f565b9150610dab83610e1f565b9250827fffffffffffffffffffffffffffffffffffffffffffffffffffffffffffffffff03821115610de057610ddf610f17565b5b828201905092915050565b6000610df682610e1f565b9150610e0183610e1f565b925082821015610e1457610e13610f17565b5b828203905092915050565b6000819050919050565b82818337600083830152505050565b60005b83811015610e56578082015181840152602081019050610e3b565b83811115610e65576000848401525b50505050565b60006002820490506001821680610e8357607f821691505b60208210811415610e9757610e96610f75565b5b50919050565b610ea682611045565b810181811067ffffffffffffffff82111715610ec557610ec4611002565b5b80604052505050565b6000610ed982610e1f565b91507fffffffffffffffffffffffffffffffffffffffffffffffffffffffffffffffff821415610f0c57610f0b610f17565b5b600182019050919050565b7f4e487b7100000000000000000000000000000000000000000000000000000000600052601160045260246000fd5b7f4e487b7100000000000000000000000000000000000000000000000000000000600052602160045260246000fd5b7f4e487b7100000000000000000000000000000000000000000000000000000000600052602260045260246000fd5b7f4e487b7100000000000000000000000000000000000000000000000000000000600052603160045260246000fd5b7f4e487b7100000000000000000000000000000000000000000000000000000000600052603260045260246000fd5b7f4e487b7100000000000000000000000000000000000000000000000000000000600052604160045260246000fd5b600080fd5b600080fd5b600080fd5b600080fd5b6000601f19601f8301169050919050565b61105f81610e1f565b811461106a57600080fd5b5056fea2646970667358221220f821815e5908ab65b8daca35b69a48d3b1347229e45e989cd8592ddecb64100764736f6c63430008070033",
			"opcodes": "PUSH1 0x80 PUSH1 0x40 MSTORE CALLVALUE DUP1 ISZERO PUSH3 0x11 JUMPI PUSH1 0x0 DUP1 REVERT JUMPDEST POP PUSH1 0x40 MLOAD PUSH3 0x11E1 CODESIZE SUB DUP1 PUSH3 0x11E1 DUP4 CODECOPY DUP2 DUP2 ADD PUSH1 0x40 MSTORE DUP2 ADD SWAP1 PUSH3 0x37 SWAP2 SWAP1 PUSH3 0x95 JUMP JUMPDEST DUP1 PUSH1 0x0 DUP1 PUSH2 0x100 EXP DUP2 SLOAD DUP2 PUSH20 0xFFFFFFFFFFFFFFFFFFFFFFFFFFFFFFFFFFFFFFFF MUL NOT AND SWAP1 DUP4 PUSH20 0xFFFFFFFFFFFFFFFFFFFFFFFFFFFFFFFFFFFFFFFF AND MUL OR SWAP1 SSTORE POP POP PUSH3 0x12E JUMP JUMPDEST PUSH1 0x0 DUP2 MLOAD SWAP1 POP PUSH3 0x8F DUP2 PUSH3 0x114 JUMP JUMPDEST SWAP3 SWAP2 POP POP JUMP JUMPDEST PUSH1 0x0 PUSH1 0x20 DUP3 DUP5 SUB SLT ISZERO PUSH3 0xAE JUMPI PUSH3 0xAD PUSH3 0x10F JUMP JUMPDEST JUMPDEST PUSH1 0x0 PUSH3 0xBE DUP5 DUP3 DUP6 ADD PUSH3 0x7E JUMP JUMPDEST SWAP2 POP POP SWAP3 SWAP2 POP POP JUMP JUMPDEST PUSH1 0x0 PUSH3 0xD4 DUP3 PUSH3 0xEF JUMP JUMPDEST SWAP1 POP SWAP2 SWAP1 POP JUMP JUMPDEST PUSH1 0x0 PUSH3 0xE8 DUP3 PUSH3 0xC7 JUMP JUMPDEST SWAP1 POP SWAP2 SWAP1 POP JUMP JUMPDEST PUSH1 0x0 PUSH20 0xFFFFFFFFFFFFFFFFFFFFFFFFFFFFFFFFFFFFFFFF DUP3 AND SWAP1 POP SWAP2 SWAP1 POP JUMP JUMPDEST PUSH1 0x0 DUP1 REVERT JUMPDEST PUSH3 0x11F DUP2 PUSH3 0xDB JUMP JUMPDEST DUP2 EQ PUSH3 0x12B JUMPI PUSH1 0x0 DUP1 REVERT JUMPDEST POP JUMP JUMPDEST PUSH2 0x10A3 DUP1 PUSH3 0x13E PUSH1 0x0 CODECOPY PUSH1 0x0 RETURN INVALID PUSH1 0x80 PUSH1 0x40 MSTORE CALLVALUE DUP1 ISZERO PUSH2 0x10 JUMPI PUSH1 0x0 DUP1 REVERT JUMPDEST POP PUSH1 0x4 CALLDATASIZE LT PUSH2 0x4C JUMPI PUSH1 0x0 CALLDATALOAD PUSH1 0xE0 SHR DUP1 PUSH4 0x49428A62 EQ PUSH2 0x51 JUMPI DUP1 PUSH4 0x63EF8A50 EQ PUSH2 0x82 JUMPI DUP1 PUSH4 0xB9B6C5D4 EQ PUSH2 0x9E JUMPI DUP1 PUSH4 0xFD23C4BB EQ PUSH2 0xBA JUMPI JUMPDEST PUSH1 0x0 DUP1 REVERT JUMPDEST PUSH2 0x6B PUSH1 0x4 DUP1 CALLDATASIZE SUB DUP2 ADD SWAP1 PUSH2 0x66 SWAP2 SWAP1 PUSH2 0xB06 JUMP JUMPDEST PUSH2 0xD6 JUMP JUMPDEST PUSH1 0x40 MLOAD PUSH2 0x79 SWAP3 SWAP2 SWAP1 PUSH2 0xC54 JUMP JUMPDEST PUSH1 0x40 MLOAD DUP1 SWAP2 SUB SWAP1 RETURN JUMPDEST PUSH2 0x9C PUSH1 0x4 DUP1 CALLDATASIZE SUB DUP2 ADD SWAP1 PUSH2 0x97 SWAP2 SWAP1 PUSH2 0xA67 JUMP JUMPDEST PUSH2 0x28B JUMP JUMPDEST STOP JUMPDEST PUSH2 0xB8 PUSH1 0x4 DUP1 CALLDATASIZE SUB DUP2 ADD SWAP1 PUSH2 0xB3 SWAP2 SWAP1 PUSH2 0xB06 JUMP JUMPDEST PUSH2 0x44E JUMP JUMPDEST STOP JUMPDEST PUSH2 0xD4 PUSH1 0x4 DUP1 CALLDATASIZE SUB DUP2 ADD SWAP1 PUSH2 0xCF SWAP2 SWAP1 PUSH2 0xB59 JUMP JUMPDEST PUSH2 0x6EE JUMP JUMPDEST STOP JUMPDEST PUSH1 0x60 DUP1 PUSH1 0x1 PUSH1 0x0 DUP7 DUP2 MSTORE PUSH1 0x20 ADD SWAP1 DUP2 MSTORE PUSH1 0x20 ADD PUSH1 0x0 KECCAK256 PUSH1 0x0 DUP6 DUP2 MSTORE PUSH1 0x20 ADD SWAP1 DUP2 MSTORE PUSH1 0x20 ADD PUSH1 0x0 KECCAK256 DUP4 DUP2 SLOAD DUP2 LT PUSH2 0x10F JUMPI PUSH2 0x10E PUSH2 0xFD3 JUMP JUMPDEST JUMPDEST SWAP1 PUSH1 0x0 MSTORE PUSH1 0x20 PUSH1 0x0 KECCAK256 SWAP1 PUSH1 0x6 MUL ADD PUSH1 0x3 ADD PUSH1 0x1 PUSH1 0x0 DUP8 DUP2 MSTORE PUSH1 0x20 ADD SWAP1 DUP2 MSTORE PUSH1 0x20 ADD PUSH1 0x0 KECCAK256 PUSH1 0x0 DUP7 DUP2 MSTORE PUSH1 0x20 ADD SWAP1 DUP2 MSTORE PUSH1 0x20 ADD PUSH1 0x0 KECCAK256 DUP5 DUP2 SLOAD DUP2 LT PUSH2 0x156 JUMPI PUSH2 0x155 PUSH2 0xFD3 JUMP JUMPDEST JUMPDEST SWAP1 PUSH1 0x0 MSTORE PUSH1 0x20 PUSH1 0x0 KECCAK256 SWAP1 PUSH1 0x6 MUL ADD PUSH1 0x4 ADD DUP2 DUP1 SLOAD PUSH2 0x173 SWAP1 PUSH2 0xE6B JUMP JUMPDEST DUP1 PUSH1 0x1F ADD PUSH1 0x20 DUP1 SWAP2 DIV MUL PUSH1 0x20 ADD PUSH1 0x40 MLOAD SWAP1 DUP2 ADD PUSH1 0x40 MSTORE DUP1 SWAP3 SWAP2 SWAP1 DUP2 DUP2 MSTORE PUSH1 0x20 ADD DUP3 DUP1 SLOAD PUSH2 0x19F SWAP1 PUSH2 0xE6B JUMP JUMPDEST DUP1 ISZERO PUSH2 0x1EC JUMPI DUP1 PUSH1 0x1F LT PUSH2 0x1C1 JUMPI PUSH2 0x100 DUP1 DUP4 SLOAD DIV MUL DUP4 MSTORE SWAP2 PUSH1 0x20 ADD SWAP2 PUSH2 0x1EC JUMP JUMPDEST DUP3 ADD SWAP2 SWAP1 PUSH1 0x0 MSTORE PUSH1 0x20 PUSH1 0x0 KECCAK256 SWAP1 JUMPDEST DUP2 SLOAD DUP2 MSTORE SWAP1 PUSH1 0x1 ADD SWAP1 PUSH1 0x20 ADD DUP1 DUP4 GT PUSH2 0x1CF JUMPI DUP3 SWAP1 SUB PUSH1 0x1F AND DUP3 ADD SWAP2 JUMPDEST POP POP POP POP POP SWAP2 POP DUP1 DUP1 SLOAD PUSH2 0x1FF SWAP1 PUSH2 0xE6B JUMP JUMPDEST DUP1 PUSH1 0x1F ADD PUSH1 0x20 DUP1 SWAP2 DIV MUL PUSH1 0x20 ADD PUSH1 0x40 MLOAD SWAP1 DUP2 ADD PUSH1 0x40 MSTORE DUP1 SWAP3 SWAP2 SWAP1 DUP2 DUP2 MSTORE PUSH1 0x20 ADD DUP3 DUP1 SLOAD PUSH2 0x22B SWAP1 PUSH2 0xE6B JUMP JUMPDEST DUP1 ISZERO PUSH2 0x278 JUMPI DUP1 PUSH1 0x1F LT PUSH2 0x24D JUMPI PUSH2 0x100 DUP1 DUP4 SLOAD DIV MUL DUP4 MSTORE SWAP2 PUSH1 0x20 ADD SWAP2 PUSH2 0x278 JUMP JUMPDEST DUP3 ADD SWAP2 SWAP1 PUSH1 0x0 MSTORE PUSH1 0x20 PUSH1 0x0 KECCAK256 SWAP1 JUMPDEST DUP2 SLOAD DUP2 MSTORE SWAP1 PUSH1 0x1 ADD SWAP1 PUSH1 0x20 ADD DUP1 DUP4 GT PUSH2 0x25B JUMPI DUP3 SWAP1 SUB PUSH1 0x1F AND DUP3 ADD SWAP2 JUMPDEST POP POP POP POP POP SWAP1 POP SWAP2 POP SWAP2 POP SWAP4 POP SWAP4 SWAP2 POP POP JUMP JUMPDEST PUSH1 0x0 PUSH1 0x1 DUP1 PUSH1 0x0 DUP8 DUP2 MSTORE PUSH1 0x20 ADD SWAP1 DUP2 MSTORE PUSH1 0x20 ADD PUSH1 0x0 KECCAK256 PUSH1 0x0 DUP7 DUP2 MSTORE PUSH1 0x20 ADD SWAP1 DUP2 MSTORE PUSH1 0x20 ADD PUSH1 0x0 KECCAK256 DUP1 SLOAD SWAP1 POP PUSH2 0x2C0 SWAP2 SWAP1 PUSH2 0xD95 JUMP JUMPDEST SWAP1 POP PUSH1 0x0 PUSH1 0x40 MLOAD DUP1 PUSH1 0xE0 ADD PUSH1 0x40 MSTORE DUP1 DUP8 DUP2 MSTORE PUSH1 0x20 ADD DUP7 DUP2 MSTORE PUSH1 0x20 ADD DUP4 DUP2 MSTORE PUSH1 0x20 ADD DUP6 DUP2 MSTORE PUSH1 0x20 ADD DUP5 DUP2 MSTORE PUSH1 0x20 ADD PUSH1 0x1 ISZERO ISZERO DUP2 MSTORE PUSH1 0x20 ADD PUSH1 0x1 PUSH1 0x6 DUP2 GT ISZERO PUSH2 0x30A JUMPI PUSH2 0x309 PUSH2 0xF46 JUMP JUMPDEST JUMPDEST DUP2 MSTORE POP SWAP1 POP PUSH1 0x1 PUSH1 0x0 DUP8 DUP2 MSTORE PUSH1 0x20 ADD SWAP1 DUP2 MSTORE PUSH1 0x20 ADD PUSH1 0x0 KECCAK256 PUSH1 0x0 DUP7 DUP2 MSTORE PUSH1 0x20 ADD SWAP1 DUP2 MSTORE PUSH1 0x20 ADD PUSH1 0x0 KECCAK256 DUP2 SWAP1 DUP1 PUSH1 0x1 DUP2 SLOAD ADD DUP1 DUP3 SSTORE DUP1 SWAP2 POP POP PUSH1 0x1 SWAP1 SUB SWAP1 PUSH1 0x0 MSTORE PUSH1 0x20 PUSH1 0x0 KECCAK256 SWAP1 PUSH1 0x6 MUL ADD PUSH1 0x0 SWAP1 SWAP2 SWAP1 SWAP2 SWAP1 SWAP2 POP PUSH1 0x0 DUP3 ADD MLOAD DUP2 PUSH1 0x0 ADD SSTORE PUSH1 0x20 DUP3 ADD MLOAD DUP2 PUSH1 0x1 ADD SSTORE PUSH1 0x40 DUP3 ADD MLOAD DUP2 PUSH1 0x2 ADD SSTORE PUSH1 0x60 DUP3 ADD MLOAD DUP2 PUSH1 0x3 ADD SWAP1 DUP1 MLOAD SWAP1 PUSH1 0x20 ADD SWAP1 PUSH2 0x397 SWAP3 SWAP2 SWAP1 PUSH2 0x872 JUMP JUMPDEST POP PUSH1 0x80 DUP3 ADD MLOAD DUP2 PUSH1 0x4 ADD SWAP1 DUP1 MLOAD SWAP1 PUSH1 0x20 ADD SWAP1 PUSH2 0x3B4 SWAP3 SWAP2 SWAP1 PUSH2 0x872 JUMP JUMPDEST POP PUSH1 0xA0 DUP3 ADD MLOAD DUP2 PUSH1 0x5 ADD PUSH1 0x0 PUSH2 0x100 EXP DUP2 SLOAD DUP2 PUSH1 0xFF MUL NOT AND SWAP1 DUP4 ISZERO ISZERO MUL OR SWAP1 SSTORE POP PUSH1 0xC0 DUP3 ADD MLOAD DUP2 PUSH1 0x5 ADD PUSH1 0x1 PUSH2 0x100 EXP DUP2 SLOAD DUP2 PUSH1 0xFF MUL NOT AND SWAP1 DUP4 PUSH1 0x6 DUP2 GT ISZERO PUSH2 0x400 JUMPI PUSH2 0x3FF PUSH2 0xF46 JUMP JUMPDEST JUMPDEST MUL OR SWAP1 SSTORE POP POP POP PUSH32 0x70D8B12D438DD130D28072C77C8047D9697B630B8DCD969123645998AD67D561 DUP7 DUP7 DUP5 DUP8 DUP8 PUSH1 0x40 MLOAD PUSH2 0x43E SWAP6 SWAP5 SWAP4 SWAP3 SWAP2 SWAP1 PUSH2 0xCC2 JUMP JUMPDEST PUSH1 0x40 MLOAD DUP1 SWAP2 SUB SWAP1 LOG1 POP POP POP POP POP POP JUMP JUMPDEST PUSH1 0x0 DUP2 SWAP1 POP JUMPDEST PUSH1 0x1 DUP1 PUSH1 0x0 DUP7 DUP2 MSTORE PUSH1 0x20 ADD SWAP1 DUP2 MSTORE PUSH1 0x20 ADD PUSH1 0x0 KECCAK256 PUSH1 0x0 DUP6 DUP2 MSTORE PUSH1 0x20 ADD SWAP1 DUP2 MSTORE PUSH1 0x20 ADD PUSH1 0x0 KECCAK256 DUP1 SLOAD SWAP1 POP PUSH2 0x487 SWAP2 SWAP1 PUSH2 0xDEB JUMP JUMPDEST DUP2 LT ISZERO PUSH2 0x600 JUMPI PUSH1 0x1 PUSH1 0x0 DUP6 DUP2 MSTORE PUSH1 0x20 ADD SWAP1 DUP2 MSTORE PUSH1 0x20 ADD PUSH1 0x0 KECCAK256 PUSH1 0x0 DUP5 DUP2 MSTORE PUSH1 0x20 ADD SWAP1 DUP2 MSTORE PUSH1 0x20 ADD PUSH1 0x0 KECCAK256 PUSH1 0x1 DUP3 PUSH2 0x4BF SWAP2 SWAP1 PUSH2 0xD95 JUMP JUMPDEST DUP2 SLOAD DUP2 LT PUSH2 0x4D0 JUMPI PUSH2 0x4CF PUSH2 0xFD3 JUMP JUMPDEST JUMPDEST SWAP1 PUSH1 0x0 MSTORE PUSH1 0x20 PUSH1 0x0 KECCAK256 SWAP1 PUSH1 0x6 MUL ADD PUSH1 0x1 PUSH1 0x0 DUP7 DUP2 MSTORE PUSH1 0x20 ADD SWAP1 DUP2 MSTORE PUSH1 0x20 ADD PUSH1 0x0 KECCAK256 PUSH1 0x0 DUP6 DUP2 MSTORE PUSH1 0x20 ADD SWAP1 DUP2 MSTORE PUSH1 0x20 ADD PUSH1 0x0 KECCAK256 DUP3 DUP2 SLOAD DUP2 LT PUSH2 0x514 JUMPI PUSH2 0x513 PUSH2 0xFD3 JUMP JUMPDEST JUMPDEST SWAP1 PUSH1 0x0 MSTORE PUSH1 0x20 PUSH1 0x0 KECCAK256 SWAP1 PUSH1 0x6 MUL ADD PUSH1 0x0 DUP3 ADD SLOAD DUP2 PUSH1 0x0 ADD SSTORE PUSH1 0x1 DUP3 ADD SLOAD DUP2 PUSH1 0x1 ADD SSTORE PUSH1 0x2 DUP3 ADD SLOAD DUP2 PUSH1 0x2 ADD SSTORE PUSH1 0x3 DUP3 ADD DUP2 PUSH1 0x3 ADD SWAP1 DUP1 SLOAD PUSH2 0x554 SWAP1 PUSH2 0xE6B JUMP JUMPDEST PUSH2 0x55F SWAP3 SWAP2 SWAP1 PUSH2 0x8F8 JUMP JUMPDEST POP PUSH1 0x4 DUP3 ADD DUP2 PUSH1 0x4 ADD SWAP1 DUP1 SLOAD PUSH2 0x574 SWAP1 PUSH2 0xE6B JUMP JUMPDEST PUSH2 0x57F SWAP3 SWAP2 SWAP1 PUSH2 0x8F8 JUMP JUMPDEST POP PUSH1 0x5 DUP3 ADD PUSH1 0x0 SWAP1 SLOAD SWAP1 PUSH2 0x100 EXP SWAP1 DIV PUSH1 0xFF AND DUP2 PUSH1 0x5 ADD PUSH1 0x0 PUSH2 0x100 EXP DUP2 SLOAD DUP2 PUSH1 0xFF MUL NOT AND SWAP1 DUP4 ISZERO ISZERO MUL OR SWAP1 SSTORE POP PUSH1 0x5 DUP3 ADD PUSH1 0x1 SWAP1 SLOAD SWAP1 PUSH2 0x100 EXP SWAP1 DIV PUSH1 0xFF AND DUP2 PUSH1 0x5 ADD PUSH1 0x1 PUSH2 0x100 EXP DUP2 SLOAD DUP2 PUSH1 0xFF MUL NOT AND SWAP1 DUP4 PUSH1 0x6 DUP2 GT ISZERO PUSH2 0x5E5 JUMPI PUSH2 0x5E4 PUSH2 0xF46 JUMP JUMPDEST JUMPDEST MUL OR SWAP1 SSTORE POP SWAP1 POP POP DUP1 DUP1 PUSH2 0x5F8 SWAP1 PUSH2 0xECE JUMP JUMPDEST SWAP2 POP POP PUSH2 0x454 JUMP JUMPDEST POP PUSH1 0x1 PUSH1 0x0 DUP5 DUP2 MSTORE PUSH1 0x20 ADD SWAP1 DUP2 MSTORE PUSH1 0x20 ADD PUSH1 0x0 KECCAK256 PUSH1 0x0 DUP4 DUP2 MSTORE PUSH1 0x20 ADD SWAP1 DUP2 MSTORE PUSH1 0x20 ADD PUSH1 0x0 KECCAK256 DUP1 SLOAD DUP1 PUSH2 0x635 JUMPI PUSH2 0x634 PUSH2 0xFA4 JUMP JUMPDEST JUMPDEST PUSH1 0x1 SWAP1 SUB DUP2 DUP2 SWAP1 PUSH1 0x0 MSTORE PUSH1 0x20 PUSH1 0x0 KECCAK256 SWAP1 PUSH1 0x6 MUL ADD PUSH1 0x0 DUP1 DUP3 ADD PUSH1 0x0 SWAP1 SSTORE PUSH1 0x1 DUP3 ADD PUSH1 0x0 SWAP1 SSTORE PUSH1 0x2 DUP3 ADD PUSH1 0x0 SWAP1 SSTORE PUSH1 0x3 DUP3 ADD PUSH1 0x0 PUSH2 0x672 SWAP2 SWAP1 PUSH2 0x985 JUMP JUMPDEST PUSH1 0x4 DUP3 ADD PUSH1 0x0 PUSH2 0x682 SWAP2 SWAP1 PUSH2 0x985 JUMP JUMPDEST PUSH1 0x5 DUP3 ADD PUSH1 0x0 PUSH2 0x100 EXP DUP2 SLOAD SWAP1 PUSH1 0xFF MUL NOT AND SWAP1 SSTORE PUSH1 0x5 DUP3 ADD PUSH1 0x1 PUSH2 0x100 EXP DUP2 SLOAD SWAP1 PUSH1 0xFF MUL NOT AND SWAP1 SSTORE POP POP SWAP1 SSTORE PUSH32 0x2B2605EE52ACE237F72E6005EEE79180EA3B6151BD8848A6BE5E3C224B8A6EC6 DUP4 DUP4 DUP4 PUSH1 0x40 MLOAD PUSH2 0x6E1 SWAP4 SWAP3 SWAP2 SWAP1 PUSH2 0xC8B JUMP JUMPDEST PUSH1 0x40 MLOAD DUP1 SWAP2 SUB SWAP1 LOG1 POP POP POP JUMP JUMPDEST PUSH1 0x0 PUSH1 0x40 MLOAD DUP1 PUSH1 0xE0 ADD PUSH1 0x40 MSTORE DUP1 DUP8 DUP2 MSTORE PUSH1 0x20 ADD DUP7 DUP2 MSTORE PUSH1 0x20 ADD DUP6 DUP2 MSTORE PUSH1 0x20 ADD DUP5 DUP2 MSTORE PUSH1 0x20 ADD DUP4 DUP2 MSTORE PUSH1 0x20 ADD PUSH1 0x1 ISZERO ISZERO DUP2 MSTORE PUSH1 0x20 ADD PUSH1 0x1 PUSH1 0x6 DUP2 GT ISZERO PUSH2 0x736 JUMPI PUSH2 0x735 PUSH2 0xF46 JUMP JUMPDEST JUMPDEST DUP2 MSTORE POP SWAP1 POP DUP1 PUSH1 0x1 PUSH1 0x0 DUP9 DUP2 MSTORE PUSH1 0x20 ADD SWAP1 DUP2 MSTORE PUSH1 0x20 ADD PUSH1 0x0 KECCAK256 PUSH1 0x0 DUP8 DUP2 MSTORE PUSH1 0x20 ADD SWAP1 DUP2 MSTORE PUSH1 0x20 ADD PUSH1 0x0 KECCAK256 DUP6 DUP2 SLOAD DUP2 LT PUSH2 0x772 JUMPI PUSH2 0x771 PUSH2 0xFD3 JUMP JUMPDEST JUMPDEST SWAP1 PUSH1 0x0 MSTORE PUSH1 0x20 PUSH1 0x0 KECCAK256 SWAP1 PUSH1 0x6 MUL ADD PUSH1 0x0 DUP3 ADD MLOAD DUP2 PUSH1 0x0 ADD SSTORE PUSH1 0x20 DUP3 ADD MLOAD DUP2 PUSH1 0x1 ADD SSTORE PUSH1 0x40 DUP3 ADD MLOAD DUP2 PUSH1 0x2 ADD SSTORE PUSH1 0x60 DUP3 ADD MLOAD DUP2 PUSH1 0x3 ADD SWAP1 DUP1 MLOAD SWAP1 PUSH1 0x20 ADD SWAP1 PUSH2 0x7BA SWAP3 SWAP2 SWAP1 PUSH2 0x872 JUMP JUMPDEST POP PUSH1 0x80 DUP3 ADD MLOAD DUP2 PUSH1 0x4 ADD SWAP1 DUP1 MLOAD SWAP1 PUSH1 0x20 ADD SWAP1 PUSH2 0x7D7 SWAP3 SWAP2 SWAP1 PUSH2 0x872 JUMP JUMPDEST POP PUSH1 0xA0 DUP3 ADD MLOAD DUP2 PUSH1 0x5 ADD PUSH1 0x0 PUSH2 0x100 EXP DUP2 SLOAD DUP2 PUSH1 0xFF MUL NOT AND SWAP1 DUP4 ISZERO ISZERO MUL OR SWAP1 SSTORE POP PUSH1 0xC0 DUP3 ADD MLOAD DUP2 PUSH1 0x5 ADD PUSH1 0x1 PUSH2 0x100 EXP DUP2 SLOAD DUP2 PUSH1 0xFF MUL NOT AND SWAP1 DUP4 PUSH1 0x6 DUP2 GT ISZERO PUSH2 0x823 JUMPI PUSH2 0x822 PUSH2 0xF46 JUMP JUMPDEST JUMPDEST MUL OR SWAP1 SSTORE POP SWAP1 POP POP PUSH32 0x8C0D6FF1212C3FBF79BBE6DC1E26CC40C4E137EC5711D4471B16FA121F933511 DUP7 DUP7 DUP7 DUP7 DUP7 PUSH1 0x40 MLOAD PUSH2 0x862 SWAP6 SWAP5 SWAP4 SWAP3 SWAP2 SWAP1 PUSH2 0xCC2 JUMP JUMPDEST PUSH1 0x40 MLOAD DUP1 SWAP2 SUB SWAP1 LOG1 POP POP POP POP POP POP JUMP JUMPDEST DUP3 DUP1 SLOAD PUSH2 0x87E SWAP1 PUSH2 0xE6B JUMP JUMPDEST SWAP1 PUSH1 0x0 MSTORE PUSH1 0x20 PUSH1 0x0 KECCAK256 SWAP1 PUSH1 0x1F ADD PUSH1 0x20 SWAP1 DIV DUP2 ADD SWAP3 DUP3 PUSH2 0x8A0 JUMPI PUSH1 0x0 DUP6 SSTORE PUSH2 0x8E7 JUMP JUMPDEST DUP3 PUSH1 0x1F LT PUSH2 0x8B9 JUMPI DUP1 MLOAD PUSH1 0xFF NOT AND DUP4 DUP1 ADD OR DUP6 SSTORE PUSH2 0x8E7 JUMP JUMPDEST DUP3 DUP1 ADD PUSH1 0x1 ADD DUP6 SSTORE DUP3 ISZERO PUSH2 0x8E7 JUMPI SWAP2 DUP3 ADD JUMPDEST DUP3 DUP2 GT ISZERO PUSH2 0x8E6 JUMPI DUP3 MLOAD DUP3 SSTORE SWAP2 PUSH1 0x20 ADD SWAP2 SWAP1 PUSH1 0x1 ADD SWAP1 PUSH2 0x8CB JUMP JUMPDEST JUMPDEST POP SWAP1 POP PUSH2 0x8F4 SWAP2 SWAP1 PUSH2 0x9C5 JUMP JUMPDEST POP SWAP1 JUMP JUMPDEST DUP3 DUP1 SLOAD PUSH2 0x904 SWAP1 PUSH2 0xE6B JUMP JUMPDEST SWAP1 PUSH1 0x0 MSTORE PUSH1 0x20 PUSH1 0x0 KECCAK256 SWAP1 PUSH1 0x1F ADD PUSH1 0x20 SWAP1 DIV DUP2 ADD SWAP3 DUP3 PUSH2 0x926 JUMPI PUSH1 0x0 DUP6 SSTORE PUSH2 0x974 JUMP JUMPDEST DUP3 PUSH1 0x1F LT PUSH2 0x937 JUMPI DUP1 SLOAD DUP6 SSTORE PUSH2 0x974 JUMP JUMPDEST DUP3 DUP1 ADD PUSH1 0x1 ADD DUP6 SSTORE DUP3 ISZERO PUSH2 0x974 JUMPI PUSH1 0x0 MSTORE PUSH1 0x20 PUSH1 0x0 KECCAK256 SWAP2 PUSH1 0x1F ADD PUSH1 0x20 SWAP1 DIV DUP3 ADD JUMPDEST DUP3 DUP2 GT ISZERO PUSH2 0x973 JUMPI DUP3 SLOAD DUP3 SSTORE SWAP2 PUSH1 0x1 ADD SWAP2 SWAP1 PUSH1 0x1 ADD SWAP1 PUSH2 0x958 JUMP JUMPDEST JUMPDEST POP SWAP1 POP PUSH2 0x981 SWAP2 SWAP1 PUSH2 0x9C5 JUMP JUMPDEST POP SWAP1 JUMP JUMPDEST POP DUP1 SLOAD PUSH2 0x991 SWAP1 PUSH2 0xE6B JUMP JUMPDEST PUSH1 0x0 DUP3 SSTORE DUP1 PUSH1 0x1F LT PUSH2 0x9A3 JUMPI POP PUSH2 0x9C2 JUMP JUMPDEST PUSH1 0x1F ADD PUSH1 0x20 SWAP1 DIV SWAP1 PUSH1 0x0 MSTORE PUSH1 0x20 PUSH1 0x0 KECCAK256 SWAP1 DUP2 ADD SWAP1 PUSH2 0x9C1 SWAP2 SWAP1 PUSH2 0x9C5 JUMP JUMPDEST JUMPDEST POP JUMP JUMPDEST JUMPDEST DUP1 DUP3 GT ISZERO PUSH2 0x9DE JUMPI PUSH1 0x0 DUP2 PUSH1 0x0 SWAP1 SSTORE POP PUSH1 0x1 ADD PUSH2 0x9C6 JUMP JUMPDEST POP SWAP1 JUMP JUMPDEST PUSH1 0x0 PUSH2 0x9F5 PUSH2 0x9F0 DUP5 PUSH2 0xD48 JUMP JUMPDEST PUSH2 0xD23 JUMP JUMPDEST SWAP1 POP DUP3 DUP2 MSTORE PUSH1 0x20 DUP2 ADD DUP5 DUP5 DUP5 ADD GT ISZERO PUSH2 0xA11 JUMPI PUSH2 0xA10 PUSH2 0x1036 JUMP JUMPDEST JUMPDEST PUSH2 0xA1C DUP5 DUP3 DUP6 PUSH2 0xE29 JUMP JUMPDEST POP SWAP4 SWAP3 POP POP POP JUMP JUMPDEST PUSH1 0x0 DUP3 PUSH1 0x1F DUP4 ADD SLT PUSH2 0xA39 JUMPI PUSH2 0xA38 PUSH2 0x1031 JUMP JUMPDEST JUMPDEST DUP2 CALLDATALOAD PUSH2 0xA49 DUP5 DUP3 PUSH1 0x20 DUP7 ADD PUSH2 0x9E2 JUMP JUMPDEST SWAP2 POP POP SWAP3 SWAP2 POP POP JUMP JUMPDEST PUSH1 0x0 DUP2 CALLDATALOAD SWAP1 POP PUSH2 0xA61 DUP2 PUSH2 0x1056 JUMP JUMPDEST SWAP3 SWAP2 POP POP JUMP JUMPDEST PUSH1 0x0 DUP1 PUSH1 0x0 DUP1 PUSH1 0x80 DUP6 DUP8 SUB SLT ISZERO PUSH2 0xA81 JUMPI PUSH2 0xA80 PUSH2 0x1040 JUMP JUMPDEST JUMPDEST PUSH1 0x0 PUSH2 0xA8F DUP8 DUP3 DUP9 ADD PUSH2 0xA52 JUMP JUMPDEST SWAP5 POP POP PUSH1 0x20 PUSH2 0xAA0 DUP8 DUP3 DUP9 ADD PUSH2 0xA52 JUMP JUMPDEST SWAP4 POP POP PUSH1 0x40 DUP6 ADD CALLDATALOAD PUSH8 0xFFFFFFFFFFFFFFFF DUP2 GT ISZERO PUSH2 0xAC1 JUMPI PUSH2 0xAC0 PUSH2 0x103B JUMP JUMPDEST JUMPDEST PUSH2 0xACD DUP8 DUP3 DUP9 ADD PUSH2 0xA24 JUMP JUMPDEST SWAP3 POP POP PUSH1 0x60 DUP6 ADD CALLDATALOAD PUSH8 0xFFFFFFFFFFFFFFFF DUP2 GT ISZERO PUSH2 0xAEE JUMPI PUSH2 0xAED PUSH2 0x103B JUMP JUMPDEST JUMPDEST PUSH2 0xAFA DUP8 DUP3 DUP9 ADD PUSH2 0xA24 JUMP JUMPDEST SWAP2 POP POP SWAP3 SWAP6 SWAP2 SWAP5 POP SWAP3 POP JUMP JUMPDEST PUSH1 0x0 DUP1 PUSH1 0x0 PUSH1 0x60 DUP5 DUP7 SUB SLT ISZERO PUSH2 0xB1F JUMPI PUSH2 0xB1E PUSH2 0x1040 JUMP JUMPDEST JUMPDEST PUSH1 0x0 PUSH2 0xB2D DUP7 DUP3 DUP8 ADD PUSH2 0xA52 JUMP JUMPDEST SWAP4 POP POP PUSH1 0x20 PUSH2 0xB3E DUP7 DUP3 DUP8 ADD PUSH2 0xA52 JUMP JUMPDEST SWAP3 POP POP PUSH1 0x40 PUSH2 0xB4F DUP7 DUP3 DUP8 ADD PUSH2 0xA52 JUMP JUMPDEST SWAP2 POP POP SWAP3 POP SWAP3 POP SWAP3 JUMP JUMPDEST PUSH1 0x0 DUP1 PUSH1 0x0 DUP1 PUSH1 0x0 PUSH1 0xA0 DUP7 DUP9 SUB SLT ISZERO PUSH2 0xB75 JUMPI PUSH2 0xB74 PUSH2 0x1040 JUMP JUMPDEST JUMPDEST PUSH1 0x0 PUSH2 0xB83 DUP9 DUP3 DUP10 ADD PUSH2 0xA52 JUMP JUMPDEST SWAP6 POP POP PUSH1 0x20 PUSH2 0xB94 DUP9 DUP3 DUP10 ADD PUSH2 0xA52 JUMP JUMPDEST SWAP5 POP POP PUSH1 0x40 PUSH2 0xBA5 DUP9 DUP3 DUP10 ADD PUSH2 0xA52 JUMP JUMPDEST SWAP4 POP POP PUSH1 0x60 DUP7 ADD CALLDATALOAD PUSH8 0xFFFFFFFFFFFFFFFF DUP2 GT ISZERO PUSH2 0xBC6 JUMPI PUSH2 0xBC5 PUSH2 0x103B JUMP JUMPDEST JUMPDEST PUSH2 0xBD2 DUP9 DUP3 DUP10 ADD PUSH2 0xA24 JUMP JUMPDEST SWAP3 POP POP PUSH1 0x80 DUP7 ADD CALLDATALOAD PUSH8 0xFFFFFFFFFFFFFFFF DUP2 GT ISZERO PUSH2 0xBF3 JUMPI PUSH2 0xBF2 PUSH2 0x103B JUMP JUMPDEST JUMPDEST PUSH2 0xBFF DUP9 DUP3 DUP10 ADD PUSH2 0xA24 JUMP JUMPDEST SWAP2 POP POP SWAP3 SWAP6 POP SWAP3 SWAP6 SWAP1 SWAP4 POP JUMP JUMPDEST PUSH1 0x0 PUSH2 0xC17 DUP3 PUSH2 0xD79 JUMP JUMPDEST PUSH2 0xC21 DUP2 DUP6 PUSH2 0xD84 JUMP JUMPDEST SWAP4 POP PUSH2 0xC31 DUP2 DUP6 PUSH1 0x20 DUP7 ADD PUSH2 0xE38 JUMP JUMPDEST PUSH2 0xC3A DUP2 PUSH2 0x1045 JUMP JUMPDEST DUP5 ADD SWAP2 POP POP SWAP3 SWAP2 POP POP JUMP JUMPDEST PUSH2 0xC4E DUP2 PUSH2 0xE1F JUMP JUMPDEST DUP3 MSTORE POP POP JUMP JUMPDEST PUSH1 0x0 PUSH1 0x40 DUP3 ADD SWAP1 POP DUP2 DUP2 SUB PUSH1 0x0 DUP4 ADD MSTORE PUSH2 0xC6E DUP2 DUP6 PUSH2 0xC0C JUMP JUMPDEST SWAP1 POP DUP2 DUP2 SUB PUSH1 0x20 DUP4 ADD MSTORE PUSH2 0xC82 DUP2 DUP5 PUSH2 0xC0C JUMP JUMPDEST SWAP1 POP SWAP4 SWAP3 POP POP POP JUMP JUMPDEST PUSH1 0x0 PUSH1 0x60 DUP3 ADD SWAP1 POP PUSH2 0xCA0 PUSH1 0x0 DUP4 ADD DUP7 PUSH2 0xC45 JUMP JUMPDEST PUSH2 0xCAD PUSH1 0x20 DUP4 ADD DUP6 PUSH2 0xC45 JUMP JUMPDEST PUSH2 0xCBA PUSH1 0x40 DUP4 ADD DUP5 PUSH2 0xC45 JUMP JUMPDEST SWAP5 SWAP4 POP POP POP POP JUMP JUMPDEST PUSH1 0x0 PUSH1 0xA0 DUP3 ADD SWAP1 POP PUSH2 0xCD7 PUSH1 0x0 DUP4 ADD DUP9 PUSH2 0xC45 JUMP JUMPDEST PUSH2 0xCE4 PUSH1 0x20 DUP4 ADD DUP8 PUSH2 0xC45 JUMP JUMPDEST PUSH2 0xCF1 PUSH1 0x40 DUP4 ADD DUP7 PUSH2 0xC45 JUMP JUMPDEST DUP2 DUP2 SUB PUSH1 0x60 DUP4 ADD MSTORE PUSH2 0xD03 DUP2 DUP6 PUSH2 0xC0C JUMP JUMPDEST SWAP1 POP DUP2 DUP2 SUB PUSH1 0x80 DUP4 ADD MSTORE PUSH2 0xD17 DUP2 DUP5 PUSH2 0xC0C JUMP JUMPDEST SWAP1 POP SWAP7 SWAP6 POP POP POP POP POP POP JUMP JUMPDEST PUSH1 0x0 PUSH2 0xD2D PUSH2 0xD3E JUMP JUMPDEST SWAP1 POP PUSH2 0xD39 DUP3 DUP3 PUSH2 0xE9D JUMP JUMPDEST SWAP2 SWAP1 POP JUMP JUMPDEST PUSH1 0x0 PUSH1 0x40 MLOAD SWAP1 POP SWAP1 JUMP JUMPDEST PUSH1 0x0 PUSH8 0xFFFFFFFFFFFFFFFF DUP3 GT ISZERO PUSH2 0xD63 JUMPI PUSH2 0xD62 PUSH2 0x1002 JUMP JUMPDEST JUMPDEST PUSH2 0xD6C DUP3 PUSH2 0x1045 JUMP JUMPDEST SWAP1 POP PUSH1 0x20 DUP2 ADD SWAP1 POP SWAP2 SWAP1 POP JUMP JUMPDEST PUSH1 0x0 DUP2 MLOAD SWAP1 POP SWAP2 SWAP1 POP JUMP JUMPDEST PUSH1 0x0 DUP3 DUP3 MSTORE PUSH1 0x20 DUP3 ADD SWAP1 POP SWAP3 SWAP2 POP POP JUMP JUMPDEST PUSH1 0x0 PUSH2 0xDA0 DUP3 PUSH2 0xE1F JUMP JUMPDEST SWAP2 POP PUSH2 0xDAB DUP4 PUSH2 0xE1F JUMP JUMPDEST SWAP3 POP DUP3 PUSH32 0xFFFFFFFFFFFFFFFFFFFFFFFFFFFFFFFFFFFFFFFFFFFFFFFFFFFFFFFFFFFFFFFF SUB DUP3 GT ISZERO PUSH2 0xDE0 JUMPI PUSH2 0xDDF PUSH2 0xF17 JUMP JUMPDEST JUMPDEST DUP3 DUP3 ADD SWAP1 POP SWAP3 SWAP2 POP POP JUMP JUMPDEST PUSH1 0x0 PUSH2 0xDF6 DUP3 PUSH2 0xE1F JUMP JUMPDEST SWAP2 POP PUSH2 0xE01 DUP4 PUSH2 0xE1F JUMP JUMPDEST SWAP3 POP DUP3 DUP3 LT ISZERO PUSH2 0xE14 JUMPI PUSH2 0xE13 PUSH2 0xF17 JUMP JUMPDEST JUMPDEST DUP3 DUP3 SUB SWAP1 POP SWAP3 SWAP2 POP POP JUMP JUMPDEST PUSH1 0x0 DUP2 SWAP1 POP SWAP2 SWAP1 POP JUMP JUMPDEST DUP3 DUP2 DUP4 CALLDATACOPY PUSH1 0x0 DUP4 DUP4 ADD MSTORE POP POP POP JUMP JUMPDEST PUSH1 0x0 JUMPDEST DUP4 DUP2 LT ISZERO PUSH2 0xE56 JUMPI DUP1 DUP3 ADD MLOAD DUP2 DUP5 ADD MSTORE PUSH1 0x20 DUP2 ADD SWAP1 POP PUSH2 0xE3B JUMP JUMPDEST DUP4 DUP2 GT ISZERO PUSH2 0xE65 JUMPI PUSH1 0x0 DUP5 DUP5 ADD MSTORE JUMPDEST POP POP POP POP JUMP JUMPDEST PUSH1 0x0 PUSH1 0x2 DUP3 DIV SWAP1 POP PUSH1 0x1 DUP3 AND DUP1 PUSH2 0xE83 JUMPI PUSH1 0x7F DUP3 AND SWAP2 POP JUMPDEST PUSH1 0x20 DUP3 LT DUP2 EQ ISZERO PUSH2 0xE97 JUMPI PUSH2 0xE96 PUSH2 0xF75 JUMP JUMPDEST JUMPDEST POP SWAP2 SWAP1 POP JUMP JUMPDEST PUSH2 0xEA6 DUP3 PUSH2 0x1045 JUMP JUMPDEST DUP2 ADD DUP2 DUP2 LT PUSH8 0xFFFFFFFFFFFFFFFF DUP3 GT OR ISZERO PUSH2 0xEC5 JUMPI PUSH2 0xEC4 PUSH2 0x1002 JUMP JUMPDEST JUMPDEST DUP1 PUSH1 0x40 MSTORE POP POP POP JUMP JUMPDEST PUSH1 0x0 PUSH2 0xED9 DUP3 PUSH2 0xE1F JUMP JUMPDEST SWAP2 POP PUSH32 0xFFFFFFFFFFFFFFFFFFFFFFFFFFFFFFFFFFFFFFFFFFFFFFFFFFFFFFFFFFFFFFFF DUP3 EQ ISZERO PUSH2 0xF0C JUMPI PUSH2 0xF0B PUSH2 0xF17 JUMP JUMPDEST JUMPDEST PUSH1 0x1 DUP3 ADD SWAP1 POP SWAP2 SWAP1 POP JUMP JUMPDEST PUSH32 0x4E487B7100000000000000000000000000000000000000000000000000000000 PUSH1 0x0 MSTORE PUSH1 0x11 PUSH1 0x4 MSTORE PUSH1 0x24 PUSH1 0x0 REVERT JUMPDEST PUSH32 0x4E487B7100000000000000000000000000000000000000000000000000000000 PUSH1 0x0 MSTORE PUSH1 0x21 PUSH1 0x4 MSTORE PUSH1 0x24 PUSH1 0x0 REVERT JUMPDEST PUSH32 0x4E487B7100000000000000000000000000000000000000000000000000000000 PUSH1 0x0 MSTORE PUSH1 0x22 PUSH1 0x4 MSTORE PUSH1 0x24 PUSH1 0x0 REVERT JUMPDEST PUSH32 0x4E487B7100000000000000000000000000000000000000000000000000000000 PUSH1 0x0 MSTORE PUSH1 0x31 PUSH1 0x4 MSTORE PUSH1 0x24 PUSH1 0x0 REVERT JUMPDEST PUSH32 0x4E487B7100000000000000000000000000000000000000000000000000000000 PUSH1 0x0 MSTORE PUSH1 0x32 PUSH1 0x4 MSTORE PUSH1 0x24 PUSH1 0x0 REVERT JUMPDEST PUSH32 0x4E487B7100000000000000000000000000000000000000000000000000000000 PUSH1 0x0 MSTORE PUSH1 0x41 PUSH1 0x4 MSTORE PUSH1 0x24 PUSH1 0x0 REVERT JUMPDEST PUSH1 0x0 DUP1 REVERT JUMPDEST PUSH1 0x0 DUP1 REVERT JUMPDEST PUSH1 0x0 DUP1 REVERT JUMPDEST PUSH1 0x0 DUP1 REVERT JUMPDEST PUSH1 0x0 PUSH1 0x1F NOT PUSH1 0x1F DUP4 ADD AND SWAP1 POP SWAP2 SWAP1 POP JUMP JUMPDEST PUSH2 0x105F DUP2 PUSH2 0xE1F JUMP JUMPDEST DUP2 EQ PUSH2 0x106A JUMPI PUSH1 0x0 DUP1 REVERT JUMPDEST POP JUMP INVALID LOG2 PUSH5 0x6970667358 0x22 SLT KECCAK256 0xF8 0x21 DUP2 0x5E MSIZE ADDMOD 0xAB PUSH6 0xB8DACA35B69A BASEFEE 0xD3 0xB1 CALLVALUE PUSH19 0x29E45E989CD8592DDECB64100764736F6C6343 STOP ADDMOD SMOD STOP CALLER "
		},
		"gasEstimates": {
			"creation": {
				"codeDepositCost": "851800",
				"executionCost": "infinite",
				"totalCost": "infinite"
			},
			"external": {
				"createMilestone(uint256,uint256,string,string)": "infinite",
				"deleteMilestone(uint256,uint256,uint256)": "infinite",
				"readMilestone(uint256,uint256,uint256)": "infinite",
				"updateMilestone(uint256,uint256,uint256,string,string)": "infinite"
			}
		},
		"methodIdentifiers": {
			"createMilestone(uint256,uint256,string,string)": "63ef8a50",
			"deleteMilestone(uint256,uint256,uint256)": "b9b6c5d4",
			"readMilestone(uint256,uint256,uint256)": "49428a62",
			"updateMilestone(uint256,uint256,uint256,string,string)": "fd23c4bb"
		}
	},
	"abi": [
		{
			"inputs": [
				{
					"internalType": "contract Conflict",
					"name": "conflictContract",
					"type": "address"
				}
			],
			"stateMutability": "nonpayable",
			"type": "constructor"
		},
		{
			"anonymous": false,
			"inputs": [
				{
					"indexed": false,
					"internalType": "uint256",
					"name": "projectNumber",
					"type": "uint256"
				},
				{
					"indexed": false,
					"internalType": "uint256",
					"name": "serviceNumber",
					"type": "uint256"
				},
				{
					"indexed": false,
					"internalType": "uint256",
					"name": "milestoneNumber",
					"type": "uint256"
				},
				{
					"indexed": false,
					"internalType": "string",
					"name": "title",
					"type": "string"
				},
				{
					"indexed": false,
					"internalType": "string",
					"name": "description",
					"type": "string"
				}
			],
			"name": "milestoneCreated",
			"type": "event"
		},
		{
			"anonymous": false,
			"inputs": [
				{
					"indexed": false,
					"internalType": "uint256",
					"name": "projectNumber",
					"type": "uint256"
				},
				{
					"indexed": false,
					"internalType": "uint256",
					"name": "serviceNumber",
					"type": "uint256"
				},
				{
					"indexed": false,
					"internalType": "uint256",
					"name": "milestoneNumber",
					"type": "uint256"
				}
			],
			"name": "milestoneDeleted",
			"type": "event"
		},
		{
			"anonymous": false,
			"inputs": [
				{
					"indexed": false,
					"internalType": "uint256",
					"name": "projectNumber",
					"type": "uint256"
				},
				{
					"indexed": false,
					"internalType": "uint256",
					"name": "serviceNumber",
					"type": "uint256"
				},
				{
					"indexed": false,
					"internalType": "uint256",
					"name": "milestoneNumber",
					"type": "uint256"
				},
				{
					"indexed": false,
					"internalType": "string",
					"name": "title",
					"type": "string"
				},
				{
					"indexed": false,
					"internalType": "string",
					"name": "description",
					"type": "string"
				}
			],
			"name": "milestoneUpdated",
			"type": "event"
		},
		{
			"inputs": [
				{
					"internalType": "uint256",
					"name": "projectNumber",
					"type": "uint256"
				},
				{
					"internalType": "uint256",
					"name": "serviceNumber",
					"type": "uint256"
				},
				{
					"internalType": "string",
					"name": "title",
					"type": "string"
				},
				{
					"internalType": "string",
					"name": "description",
					"type": "string"
				}
			],
			"name": "createMilestone",
			"outputs": [],
			"stateMutability": "nonpayable",
			"type": "function"
		},
		{
			"inputs": [
				{
					"internalType": "uint256",
					"name": "projectNumber",
					"type": "uint256"
				},
				{
					"internalType": "uint256",
					"name": "serviceNumber",
					"type": "uint256"
				},
				{
					"internalType": "uint256",
					"name": "milestoneNumber",
					"type": "uint256"
				}
			],
			"name": "deleteMilestone",
			"outputs": [],
			"stateMutability": "nonpayable",
			"type": "function"
		},
		{
			"inputs": [
				{
					"internalType": "uint256",
					"name": "projectNumber",
					"type": "uint256"
				},
				{
					"internalType": "uint256",
					"name": "serviceNumber",
					"type": "uint256"
				},
				{
					"internalType": "uint256",
					"name": "milestoneNumber",
					"type": "uint256"
				}
			],
			"name": "readMilestone",
			"outputs": [
				{
					"internalType": "string",
					"name": "",
					"type": "string"
				},
				{
					"internalType": "string",
					"name": "",
					"type": "string"
				}
			],
			"stateMutability": "view",
			"type": "function"
		},
		{
			"inputs": [
				{
					"internalType": "uint256",
					"name": "projectNumber",
					"type": "uint256"
				},
				{
					"internalType": "uint256",
					"name": "serviceNumber",
					"type": "uint256"
				},
				{
					"internalType": "uint256",
					"name": "milestoneNumber",
					"type": "uint256"
				},
				{
					"internalType": "string",
					"name": "title",
					"type": "string"
				},
				{
					"internalType": "string",
					"name": "description",
					"type": "string"
				}
			],
			"name": "updateMilestone",
			"outputs": [],
			"stateMutability": "nonpayable",
			"type": "function"
		}
	]
}