{
	"data": {
		"bytecode": {
			"linkReferences": {},
			"object": "6080604052600060015560006002553480156200001b57600080fd5b50604051620043f1380380620043f183398181016040528101906200004191906200009f565b806000806101000a81548173ffffffffffffffffffffffffffffffffffffffff021916908373ffffffffffffffffffffffffffffffffffffffff1602179055505062000138565b60008151905062000099816200011e565b92915050565b600060208284031215620000b857620000b762000119565b5b6000620000c88482850162000088565b91505092915050565b6000620000de82620000f9565b9050919050565b6000620000f282620000d1565b9050919050565b600073ffffffffffffffffffffffffffffffffffffffff82169050919050565b600080fd5b6200012981620000e5565b81146200013557600080fd5b50565b6142a980620001486000396000f3fe608060405234801561001057600080fd5b50600436106101e45760003560e01c806392256aec1161010f578063c77e8ec5116100a2578063ddb2ff1f11610071578063ddb2ff1f14610572578063e0d2b4bb1461058e578063e731ac45146105aa578063fd23c4bb146105c6576101e4565b8063c77e8ec5146104ee578063ccee835b1461050a578063d1e992a71461053a578063d3b491e214610556576101e4565b8063bba93c0b116100de578063bba93c0b1461046a578063c171bdf714610486578063c304ccdc146104a2578063c3b9e304146104d2576101e4565b806392256aec146103d05780639c87a5e914610400578063a0b5d6c81461041c578063ace731bd1461043a576101e4565b806353c400e1116101875780637d3ebecd116101565780637d3ebecd1461036057806381f509f01461037c5780638c4c1347146103985780638c749c74146103b4576101e4565b806353c400e1146102dc57806353c49c64146102f857806360ae1e9214610314578063664fc0cd14610330576101e4565b806312327a66116101c357806312327a661461025657806346c1966a146102865780634cd0cb28146102a4578063529884e7146102c0576101e4565b80623f489f146101e9578063010dfd9314610205578063107046bd14610221575b600080fd5b61020360048036038101906101fe91906132b8565b6105e2565b005b61021f600480360381019061021a91906131f3565b610703565b005b61023b60048036038101906102369190612efc565b6108d2565b60405161024d96959493929190613907565b60405180910390f35b610270600480360381019061026b9190612efc565b610a58565b60405161027d919061377b565b60405180910390f35b61028e610c7d565b60405161029b919061381d565b60405180910390f35b6102be60048036038101906102b99190612efc565b610c83565b005b6102da60048036038101906102d59190613074565b610f36565b005b6102f660048036038101906102f1919061342f565b611058565b005b610312600480360381019061030d9190612fe1565b61117d565b005b61032e60048036038101906103299190612e71565b611344565b005b61034a60048036038101906103459190612fe1565b61149c565b604051610357919061381d565b60405180910390f35b61037a60048036038101906103759190612f56565b611552565b005b6103966004803603810190610391919061342f565b611676565b005b6103b260048036038101906103ad9190612f56565b61170d565b005b6103ce60048036038101906103c99190613021565b6119ca565b005b6103ea60048036038101906103e59190612efc565b611aec565b6040516103f79190613760565b60405180910390f35b61041a600480360381019061041591906132b8565b611b15565b005b610424611c37565b604051610431919061381d565b60405180910390f35b610454600480360381019061044f91906132b8565b611c3d565b604051610461919061377b565b60405180910390f35b610484600480360381019061047f919061330b565b611d87565b005b6104a0600480360381019061049b91906133b4565b611e24565b005b6104bc60048036038101906104b79190612fe1565b611f4c565b6040516104c9919061377b565b60405180910390f35b6104ec60048036038101906104e791906132b8565b612093565b005b61050860048036038101906105039190613021565b6121b5565b005b610524600480360381019061051f9190612fe1565b6122d7565b604051610531919061381d565b60405180910390f35b610554600480360381019061054f9190613496565b61238d565b005b610570600480360381019061056b919061342f565b6124b5565b005b61058c600480360381019061058791906130c7565b6125da565b005b6105a860048036038101906105a3919061312e565b6126ff565b005b6105c460048036038101906105bf9190613549565b6128d2565b005b6105e060048036038101906105db9190613496565b612a00565b005b8260008060028111156105f8576105f7613fc8565b5b6003600084815260200190815260200160002060030160159054906101000a900460ff16600281111561062e5761062d613fc8565b5b1461066e576040517f08c379a0000000000000000000000000000000000000000000000000000000008152600401610665906137bd565b60405180910390fd5b60008054906101000a900473ffffffffffffffffffffffffffffffffffffffff1673ffffffffffffffffffffffffffffffffffffffff16623f489f8686866040518463ffffffff1660e01b81526004016106ca93929190613b14565b600060405180830381600087803b1580156106e457600080fd5b505af11580156106f8573d6000803e3d6000fd5b505050505050505050565b85338073ffffffffffffffffffffffffffffffffffffffff166003600084815260200190815260200160002060030160009054906101000a900473ffffffffffffffffffffffffffffffffffffffff1673ffffffffffffffffffffffffffffffffffffffff16146107a9576040517f08c379a00000000000000000000000000000000000000000000000000000000081526004016107a0906137dd565b60405180910390fd5b8760008060028111156107bf576107be613fc8565b5b6003600084815260200190815260200160002060030160159054906101000a900460ff1660028111156107f5576107f4613fc8565b5b14610835576040517f08c379a000000000000000000000000000000000000000000000000000000000815260040161082c906137bd565b60405180910390fd5b60008054906101000a900473ffffffffffffffffffffffffffffffffffffffff1673ffffffffffffffffffffffffffffffffffffffff16631c746e668b8b8b8b6040518563ffffffff1660e01b81526004016108949493929190613a52565b600060405180830381600087803b1580156108ae57600080fd5b505af11580156108c2573d6000803e3d6000fd5b5050505050505050505050505050565b60036020528060005260406000206000915090508060000154908060010180546108fb90613eed565b80601f016020809104026020016040519081016040528092919081815260200182805461092790613eed565b80156109745780601f1061094957610100808354040283529160200191610974565b820191906000526020600020905b81548152906001019060200180831161095757829003601f168201915b50505050509080600201805461098990613eed565b80601f01602080910402602001604051908101604052809291908181526020018280546109b590613eed565b8015610a025780601f106109d757610100808354040283529160200191610a02565b820191906000526020600020905b8154815290600101906020018083116109e557829003601f168201915b5050505050908060030160009054906101000a900473ffffffffffffffffffffffffffffffffffffffff16908060030160149054906101000a900460ff16908060030160159054906101000a900460ff16905086565b6060816003600082815260200190815260200160002060030160149054906101000a900460ff16610abe576040517f08c379a0000000000000000000000000000000000000000000000000000000008152600401610ab5906137fd565b60405180910390fd5b60006002811115610ad257610ad1613fc8565b5b6003600083815260200190815260200160002060030160159054906101000a900460ff166002811115610b0857610b07613fc8565b5b14610b48576040517f08c379a0000000000000000000000000000000000000000000000000000000008152600401610b3f9061379d565b60405180910390fd5b826000806002811115610b5e57610b5d613fc8565b5b6003600084815260200190815260200160002060030160159054906101000a900460ff166002811115610b9457610b93613fc8565b5b14610bd4576040517f08c379a0000000000000000000000000000000000000000000000000000000008152600401610bcb906137bd565b60405180910390fd5b600360008681526020019081526020016000206001018054610bf590613eed565b80601f0160208091040260200160405190810160405280929190818152602001828054610c2190613eed565b8015610c6e5780601f10610c4357610100808354040283529160200191610c6e565b820191906000526020600020905b815481529060010190602001808311610c5157829003601f168201915b50505050509350505050919050565b60015481565b806003600082815260200190815260200160002060030160149054906101000a900460ff16610ce7576040517f08c379a0000000000000000000000000000000000000000000000000000000008152600401610cde906137fd565b60405180910390fd5b60006002811115610cfb57610cfa613fc8565b5b6003600083815260200190815260200160002060030160159054906101000a900460ff166002811115610d3157610d30613fc8565b5b14610d71576040517f08c379a0000000000000000000000000000000000000000000000000000000008152600401610d689061379d565b60405180910390fd5b81338073ffffffffffffffffffffffffffffffffffffffff166003600084815260200190815260200160002060030160009054906101000a900473ffffffffffffffffffffffffffffffffffffffff1673ffffffffffffffffffffffffffffffffffffffff1614610e17576040517f08c379a0000000000000000000000000000000000000000000000000000000008152600401610e0e906137dd565b60405180910390fd5b836000806002811115610e2d57610e2c613fc8565b5b6003600084815260200190815260200160002060030160159054906101000a900460ff166002811115610e6357610e62613fc8565b5b14610ea3576040517f08c379a0000000000000000000000000000000000000000000000000000000008152600401610e9a906137bd565b60405180910390fd5b60006003600088815260200190815260200160002060030160146101000a81548160ff02191690831515021790555060016000815480929190610ee590613ec3565b9190505550610ef5866001612bd0565b7fbc32a4d12940b4c2b257f4f9fb0d3d970f3c1ecab860aadbc59f95f58d9a02f28633604051610f26929190613838565b60405180910390a1505050505050565b826000806002811115610f4c57610f4b613fc8565b5b6003600084815260200190815260200160002060030160159054906101000a900460ff166002811115610f8257610f81613fc8565b5b14610fc2576040517f08c379a0000000000000000000000000000000000000000000000000000000008152600401610fb9906137bd565b60405180910390fd5b60008054906101000a900473ffffffffffffffffffffffffffffffffffffffff1673ffffffffffffffffffffffffffffffffffffffff1663529884e78686866040518463ffffffff1660e01b815260040161101f939291906139d6565b600060405180830381600087803b15801561103957600080fd5b505af115801561104d573d6000803e3d6000fd5b505050505050505050565b83600080600281111561106e5761106d613fc8565b5b6003600084815260200190815260200160002060030160159054906101000a900460ff1660028111156110a4576110a3613fc8565b5b146110e4576040517f08c379a00000000000000000000000000000000000000000000000000000000081526004016110db906137bd565b60405180910390fd5b60008054906101000a900473ffffffffffffffffffffffffffffffffffffffff1673ffffffffffffffffffffffffffffffffffffffff166353c400e1878787876040518563ffffffff1660e01b81526004016111439493929190613c06565b600060405180830381600087803b15801561115d57600080fd5b505af1158015611171573d6000803e3d6000fd5b50505050505050505050565b81338073ffffffffffffffffffffffffffffffffffffffff166003600084815260200190815260200160002060030160009054906101000a900473ffffffffffffffffffffffffffffffffffffffff1673ffffffffffffffffffffffffffffffffffffffff1614611223576040517f08c379a000000000000000000000000000000000000000000000000000000000815260040161121a906137dd565b60405180910390fd5b83600080600281111561123957611238613fc8565b5b6003600084815260200190815260200160002060030160159054906101000a900460ff16600281111561126f5761126e613fc8565b5b146112af576040517f08c379a00000000000000000000000000000000000000000000000000000000081526004016112a6906137bd565b60405180910390fd5b60008054906101000a900473ffffffffffffffffffffffffffffffffffffffff1673ffffffffffffffffffffffffffffffffffffffff166353c49c6487876040518363ffffffff1660e01b815260040161130a929190613976565b600060405180830381600087803b15801561132457600080fd5b505af1158015611338573d6000803e3d6000fd5b50505050505050505050565b60006003600060025481526020019081526020016000209050600254816000018190555083816001019080519060200190611380929190612c12565b5082816002019080519060200190611399929190612c12565b50818160030160006101000a81548173ffffffffffffffffffffffffffffffffffffffff021916908373ffffffffffffffffffffffffffffffffffffffff16021790555060018160030160146101000a81548160ff02191690831515021790555060008160030160156101000a81548160ff0219169083600281111561142257611421613fc8565b5b02179055507f7a3b5d8db9438bf836c0fb30607ce953914da2c67fc74fc21ed59a788ec7bd4d60025485858560405161145e9493929190613861565b60405180910390a16001600081548092919061147990613f50565b91905055506002600081548092919061149190613f50565b919050555050505050565b60008060009054906101000a900473ffffffffffffffffffffffffffffffffffffffff1673ffffffffffffffffffffffffffffffffffffffff1663664fc0cd84846040518363ffffffff1660e01b81526004016114fa929190613976565b60206040518083038186803b15801561151257600080fd5b505afa158015611526573d6000803e3d6000fd5b505050506040513d601f19601f8201168201806040525081019061154a9190612f29565b905092915050565b82600080600281111561156857611567613fc8565b5b6003600084815260200190815260200160002060030160159054906101000a900460ff16600281111561159e5761159d613fc8565b5b146115de576040517f08c379a00000000000000000000000000000000000000000000000000000000081526004016115d5906137bd565b60405180910390fd5b60008054906101000a900473ffffffffffffffffffffffffffffffffffffffff1673ffffffffffffffffffffffffffffffffffffffff1663a19bffbe868686336040518563ffffffff1660e01b815260040161163d94939291906138b4565b600060405180830381600087803b15801561165757600080fd5b505af115801561166b573d6000803e3d6000fd5b505050505050505050565b60008054906101000a900473ffffffffffffffffffffffffffffffffffffffff1673ffffffffffffffffffffffffffffffffffffffff166381f509f0858585856040518563ffffffff1660e01b81526004016116d59493929190613c06565b600060405180830381600087803b1580156116ef57600080fd5b505af1158015611703573d6000803e3d6000fd5b5050505050505050565b826003600082815260200190815260200160002060030160149054906101000a900460ff16611771576040517f08c379a0000000000000000000000000000000000000000000000000000000008152600401611768906137fd565b60405180910390fd5b6000600281111561178557611784613fc8565b5b6003600083815260200190815260200160002060030160159054906101000a900460ff1660028111156117bb576117ba613fc8565b5b146117fb576040517f08c379a00000000000000000000000000000000000000000000000000000000081526004016117f29061379d565b60405180910390fd5b83338073ffffffffffffffffffffffffffffffffffffffff166003600084815260200190815260200160002060030160009054906101000a900473ffffffffffffffffffffffffffffffffffffffff1673ffffffffffffffffffffffffffffffffffffffff16146118a1576040517f08c379a0000000000000000000000000000000000000000000000000000000008152600401611898906137dd565b60405180910390fd5b8560008060028111156118b7576118b6613fc8565b5b6003600084815260200190815260200160002060030160159054906101000a900460ff1660028111156118ed576118ec613fc8565b5b1461192d576040517f08c379a0000000000000000000000000000000000000000000000000000000008152600401611924906137bd565b60405180910390fd5b86600360008a81526020019081526020016000206001019080519060200190611957929190612c12565b5085600360008a81526020019081526020016000206002019080519060200190611982929190612c12565b507f852cf61204784de3e6ae76789a9350f086aeabac7957c2b16d22d683c56e2c1c888888336040516119b89493929190613861565b60405180910390a15050505050505050565b8260008060028111156119e0576119df613fc8565b5b6003600084815260200190815260200160002060030160159054906101000a900460ff166002811115611a1657611a15613fc8565b5b14611a56576040517f08c379a0000000000000000000000000000000000000000000000000000000008152600401611a4d906137bd565b60405180910390fd5b60008054906101000a900473ffffffffffffffffffffffffffffffffffffffff1673ffffffffffffffffffffffffffffffffffffffff16638c749c748686866040518463ffffffff1660e01b8152600401611ab39392919061399f565b600060405180830381600087803b158015611acd57600080fd5b505af1158015611ae1573d6000803e3d6000fd5b505050505050505050565b60006003600083815260200190815260200160002060030160009054906101000a905050919050565b826000806002811115611b2b57611b2a613fc8565b5b6003600084815260200190815260200160002060030160159054906101000a900460ff166002811115611b6157611b60613fc8565b5b14611ba1576040517f08c379a0000000000000000000000000000000000000000000000000000000008152600401611b98906137bd565b60405180910390fd5b60008054906101000a900473ffffffffffffffffffffffffffffffffffffffff1673ffffffffffffffffffffffffffffffffffffffff16639c87a5e98686866040518463ffffffff1660e01b8152600401611bfe93929190613b14565b600060405180830381600087803b158015611c1857600080fd5b505af1158015611c2c573d6000803e3d6000fd5b505050505050505050565b60025481565b6060836000806002811115611c5557611c54613fc8565b5b6003600084815260200190815260200160002060030160159054906101000a900460ff166002811115611c8b57611c8a613fc8565b5b14611ccb576040517f08c379a0000000000000000000000000000000000000000000000000000000008152600401611cc2906137bd565b60405180910390fd5b60008054906101000a900473ffffffffffffffffffffffffffffffffffffffff1673ffffffffffffffffffffffffffffffffffffffff1663ace731bd8787876040518463ffffffff1660e01b8152600401611d2893929190613b14565b60006040518083038186803b158015611d4057600080fd5b505afa158015611d54573d6000803e3d6000fd5b505050506040513d6000823e3d601f19601f82011682018060405250810190611d7d9190612e28565b5050509392505050565b60008054906101000a900473ffffffffffffffffffffffffffffffffffffffff1673ffffffffffffffffffffffffffffffffffffffff1663bba93c0b8787878787876040518763ffffffff1660e01b8152600401611dea96959493929190613b4b565b600060405180830381600087803b158015611e0457600080fd5b505af1158015611e18573d6000803e3d6000fd5b50505050505050505050565b846000806002811115611e3a57611e39613fc8565b5b6003600084815260200190815260200160002060030160159054906101000a900460ff166002811115611e7057611e6f613fc8565b5b14611eb0576040517f08c379a0000000000000000000000000000000000000000000000000000000008152600401611ea7906137bd565b60405180910390fd5b60008054906101000a900473ffffffffffffffffffffffffffffffffffffffff1673ffffffffffffffffffffffffffffffffffffffff1663c171bdf788888888886040518663ffffffff1660e01b8152600401611f11959493929190613bb3565b600060405180830381600087803b158015611f2b57600080fd5b505af1158015611f3f573d6000803e3d6000fd5b5050505050505050505050565b6060826000806002811115611f6457611f63613fc8565b5b6003600084815260200190815260200160002060030160159054906101000a900460ff166002811115611f9a57611f99613fc8565b5b14611fda576040517f08c379a0000000000000000000000000000000000000000000000000000000008152600401611fd1906137bd565b60405180910390fd5b60008054906101000a900473ffffffffffffffffffffffffffffffffffffffff1673ffffffffffffffffffffffffffffffffffffffff1663c304ccdc86866040518363ffffffff1660e01b8152600401612035929190613976565b60006040518083038186803b15801561204d57600080fd5b505afa158015612061573d6000803e3d6000fd5b505050506040513d6000823e3d601f19601f8201168201806040525081019061208a9190612e28565b50505092915050565b8260008060028111156120a9576120a8613fc8565b5b6003600084815260200190815260200160002060030160159054906101000a900460ff1660028111156120df576120de613fc8565b5b1461211f576040517f08c379a0000000000000000000000000000000000000000000000000000000008152600401612116906137bd565b60405180910390fd5b60008054906101000a900473ffffffffffffffffffffffffffffffffffffffff1673ffffffffffffffffffffffffffffffffffffffff1663c3b9e3048686866040518463ffffffff1660e01b815260040161217c93929190613b14565b600060405180830381600087803b15801561219657600080fd5b505af11580156121aa573d6000803e3d6000fd5b505050505050505050565b8260008060028111156121cb576121ca613fc8565b5b6003600084815260200190815260200160002060030160159054906101000a900460ff16600281111561220157612200613fc8565b5b14612241576040517f08c379a0000000000000000000000000000000000000000000000000000000008152600401612238906137bd565b60405180910390fd5b60008054906101000a900473ffffffffffffffffffffffffffffffffffffffff1673ffffffffffffffffffffffffffffffffffffffff1663c77e8ec58686866040518463ffffffff1660e01b815260040161229e9392919061399f565b600060405180830381600087803b1580156122b857600080fd5b505af11580156122cc573d6000803e3d6000fd5b505050505050505050565b60008060009054906101000a900473ffffffffffffffffffffffffffffffffffffffff1673ffffffffffffffffffffffffffffffffffffffff1663ccee835b84846040518363ffffffff1660e01b8152600401612335929190613976565b60206040518083038186803b15801561234d57600080fd5b505afa158015612361573d6000803e3d6000fd5b505050506040513d601f19601f820116820180604052508101906123859190612f29565b905092915050565b8460008060028111156123a3576123a2613fc8565b5b6003600084815260200190815260200160002060030160159054906101000a900460ff1660028111156123d9576123d8613fc8565b5b14612419576040517f08c379a0000000000000000000000000000000000000000000000000000000008152600401612410906137bd565b60405180910390fd5b60008054906101000a900473ffffffffffffffffffffffffffffffffffffffff1673ffffffffffffffffffffffffffffffffffffffff1663d1e992a788888888886040518663ffffffff1660e01b815260040161247a959493929190613c4b565b600060405180830381600087803b15801561249457600080fd5b505af11580156124a8573d6000803e3d6000fd5b5050505050505050505050565b8360008060028111156124cb576124ca613fc8565b5b6003600084815260200190815260200160002060030160159054906101000a900460ff16600281111561250157612500613fc8565b5b14612541576040517f08c379a0000000000000000000000000000000000000000000000000000000008152600401612538906137bd565b60405180910390fd5b60008054906101000a900473ffffffffffffffffffffffffffffffffffffffff1673ffffffffffffffffffffffffffffffffffffffff1663d3b491e2878787876040518563ffffffff1660e01b81526004016125a09493929190613c06565b600060405180830381600087803b1580156125ba57600080fd5b505af11580156125ce573d6000803e3d6000fd5b50505050505050505050565b8360008060028111156125f0576125ef613fc8565b5b6003600084815260200190815260200160002060030160159054906101000a900460ff16600281111561262657612625613fc8565b5b14612666576040517f08c379a000000000000000000000000000000000000000000000000000000000815260040161265d906137bd565b60405180910390fd5b60008054906101000a900473ffffffffffffffffffffffffffffffffffffffff1673ffffffffffffffffffffffffffffffffffffffff1663ddb2ff1f878787876040518563ffffffff1660e01b81526004016126c59493929190613a0d565b600060405180830381600087803b1580156126df57600080fd5b505af11580156126f3573d6000803e3d6000fd5b50505050505050505050565b85818073ffffffffffffffffffffffffffffffffffffffff166003600084815260200190815260200160002060030160009054906101000a900473ffffffffffffffffffffffffffffffffffffffff1673ffffffffffffffffffffffffffffffffffffffff16146127a5576040517f08c379a000000000000000000000000000000000000000000000000000000000815260040161279c906137dd565b60405180910390fd5b8760008060028111156127bb576127ba613fc8565b5b6003600084815260200190815260200160002060030160159054906101000a900460ff1660028111156127f1576127f0613fc8565b5b14612831576040517f08c379a0000000000000000000000000000000000000000000000000000000008152600401612828906137bd565b60405180910390fd5b60008054906101000a900473ffffffffffffffffffffffffffffffffffffffff1673ffffffffffffffffffffffffffffffffffffffff1663e0d2b4bb8b8b8b8b8b8b6040518763ffffffff1660e01b815260040161289496959493929190613aa5565b600060405180830381600087803b1580156128ae57600080fd5b505af11580156128c2573d6000803e3d6000fd5b5050505050505050505050505050565b8660008060028111156128e8576128e7613fc8565b5b6003600084815260200190815260200160002060030160159054906101000a900460ff16600281111561291e5761291d613fc8565b5b1461295e576040517f08c379a0000000000000000000000000000000000000000000000000000000008152600401612955906137bd565b60405180910390fd5b60008054906101000a900473ffffffffffffffffffffffffffffffffffffffff1673ffffffffffffffffffffffffffffffffffffffff1663e731ac458a8a8a8a8a8a8a6040518863ffffffff1660e01b81526004016129c39796959493929190613cac565b600060405180830381600087803b1580156129dd57600080fd5b505af11580156129f1573d6000803e3d6000fd5b50505050505050505050505050565b84338073ffffffffffffffffffffffffffffffffffffffff166003600084815260200190815260200160002060030160009054906101000a900473ffffffffffffffffffffffffffffffffffffffff1673ffffffffffffffffffffffffffffffffffffffff1614612aa6576040517f08c379a0000000000000000000000000000000000000000000000000000000008152600401612a9d906137dd565b60405180910390fd5b866000806002811115612abc57612abb613fc8565b5b6003600084815260200190815260200160002060030160159054906101000a900460ff166002811115612af257612af1613fc8565b5b14612b32576040517f08c379a0000000000000000000000000000000000000000000000000000000008152600401612b29906137bd565b60405180910390fd5b60008054906101000a900473ffffffffffffffffffffffffffffffffffffffff1673ffffffffffffffffffffffffffffffffffffffff1663fd23c4bb8a8a8a8a8a6040518663ffffffff1660e01b8152600401612b93959493929190613c4b565b600060405180830381600087803b158015612bad57600080fd5b505af1158015612bc1573d6000803e3d6000fd5b50505050505050505050505050565b806003600084815260200190815260200160002060030160156101000a81548160ff02191690836002811115612c0957612c08613fc8565b5b02179055505050565b828054612c1e90613eed565b90600052602060002090601f016020900481019282612c405760008555612c87565b82601f10612c5957805160ff1916838001178555612c87565b82800160010185558215612c87579182015b82811115612c86578251825591602001919060010190612c6b565b5b509050612c949190612c98565b5090565b5b80821115612cb1576000816000905550600101612c99565b5090565b6000612cc8612cc384613d4e565b613d29565b905082815260208101848484011115612ce457612ce361405a565b5b612cef848285613e81565b509392505050565b6000612d0a612d0584613d4e565b613d29565b905082815260208101848484011115612d2657612d2561405a565b5b612d31848285613e90565b509392505050565b600081359050612d48816141f0565b92915050565b600081359050612d5d81614207565b92915050565b600081359050612d728161421e565b92915050565b600081359050612d8781614235565b92915050565b600082601f830112612da257612da1614055565b5b8135612db2848260208601612cb5565b91505092915050565b600082601f830112612dd057612dcf614055565b5b8151612de0848260208601612cf7565b91505092915050565b600081359050612df881614245565b92915050565b600081519050612e0d81614245565b92915050565b600081359050612e228161425c565b92915050565b600060208284031215612e3e57612e3d614064565b5b600082015167ffffffffffffffff811115612e5c57612e5b61405f565b5b612e6884828501612dbb565b91505092915050565b600080600060608486031215612e8a57612e89614064565b5b600084013567ffffffffffffffff811115612ea857612ea761405f565b5b612eb486828701612d8d565b935050602084013567ffffffffffffffff811115612ed557612ed461405f565b5b612ee186828701612d8d565b9250506040612ef286828701612d39565b9150509250925092565b600060208284031215612f1257612f11614064565b5b6000612f2084828501612de9565b91505092915050565b600060208284031215612f3f57612f3e614064565b5b6000612f4d84828501612dfe565b91505092915050565b600080600060608486031215612f6f57612f6e614064565b5b6000612f7d86828701612de9565b935050602084013567ffffffffffffffff811115612f9e57612f9d61405f565b5b612faa86828701612d8d565b925050604084013567ffffffffffffffff811115612fcb57612fca61405f565b5b612fd786828701612d8d565b9150509250925092565b60008060408385031215612ff857612ff7614064565b5b600061300685828601612de9565b925050602061301785828601612de9565b9150509250929050565b60008060006060848603121561303a57613039614064565b5b600061304886828701612de9565b935050602061305986828701612de9565b925050604061306a86828701612d39565b9150509250925092565b60008060006060848603121561308d5761308c614064565b5b600061309b86828701612de9565b93505060206130ac86828701612de9565b92505060406130bd86828701612d4e565b9150509250925092565b600080600080608085870312156130e1576130e0614064565b5b60006130ef87828801612de9565b945050602061310087828801612de9565b935050604061311187828801612d39565b925050606061312287828801612d39565b91505092959194509250565b60008060008060008060c0878903121561314b5761314a614064565b5b600061315989828a01612de9565b965050602061316a89828a01612de9565b955050604087013567ffffffffffffffff81111561318b5761318a61405f565b5b61319789828a01612d8d565b945050606087013567ffffffffffffffff8111156131b8576131b761405f565b5b6131c489828a01612d8d565b93505060806131d589828a01612de9565b92505060a06131e689828a01612d4e565b9150509295509295509295565b60008060008060008060c087890312156132105761320f614064565b5b600061321e89828a01612de9565b965050602061322f89828a01612de9565b955050604087013567ffffffffffffffff8111156132505761324f61405f565b5b61325c89828a01612d8d565b945050606087013567ffffffffffffffff81111561327d5761327c61405f565b5b61328989828a01612d8d565b935050608061329a89828a01612de9565b92505060a06132ab89828a01612d78565b9150509295509295509295565b6000806000606084860312156132d1576132d0614064565b5b60006132df86828701612de9565b93505060206132f086828701612de9565b925050604061330186828701612de9565b9150509250925092565b60008060008060008060c0878903121561332857613327614064565b5b600061333689828a01612de9565b965050602061334789828a01612de9565b955050604061335889828a01612de9565b945050606061336989828a01612d39565b935050608087013567ffffffffffffffff81111561338a5761338961405f565b5b61339689828a01612d8d565b92505060a06133a789828a01612de9565b9150509295509295509295565b600080600080600060a086880312156133d0576133cf614064565b5b60006133de88828901612de9565b95505060206133ef88828901612de9565b945050604061340088828901612de9565b935050606061341188828901612d39565b925050608061342288828901612e13565b9150509295509295909350565b6000806000806080858703121561344957613448614064565b5b600061345787828801612de9565b945050602061346887828801612de9565b935050604061347987828801612de9565b925050606061348a87828801612d63565b91505092959194509250565b600080600080600060a086880312156134b2576134b1614064565b5b60006134c088828901612de9565b95505060206134d188828901612de9565b94505060406134e288828901612de9565b935050606086013567ffffffffffffffff8111156135035761350261405f565b5b61350f88828901612d8d565b925050608086013567ffffffffffffffff8111156135305761352f61405f565b5b61353c88828901612d8d565b9150509295509295909350565b600080600080600080600060e0888a03121561356857613567614064565b5b60006135768a828b01612de9565b97505060206135878a828b01612de9565b96505060406135988a828b01612de9565b955050606088013567ffffffffffffffff8111156135b9576135b861405f565b5b6135c58a828b01612d8d565b945050608088013567ffffffffffffffff8111156135e6576135e561405f565b5b6135f28a828b01612d8d565b93505060a06136038a828b01612d39565b92505060c06136148a828b01612de9565b91505092959891949750929550565b61362c81613e27565b82525050565b61363b81613dad565b82525050565b61364a81613d9b565b82525050565b61365981613dbf565b82525050565b61366881613e39565b82525050565b61367781613e4b565b82525050565b600061368882613d7f565b6136928185613d8a565b93506136a2818560208601613e90565b6136ab81614069565b840191505092915050565b60006136c3602183613d8a565b91506136ce8261407a565b604082019050919050565b60006136e6602083613d8a565b91506136f1826140c9565b602082019050919050565b6000613709604683613d8a565b9150613714826140f2565b606082019050919050565b600061372c604283613d8a565b915061373782614167565b606082019050919050565b61374b81613e10565b82525050565b61375a81613e1a565b82525050565b60006020820190506137756000830184613641565b92915050565b60006020820190508181036000830152613795818461367d565b905092915050565b600060208201905081810360008301526137b6816136b6565b9050919050565b600060208201905081810360008301526137d6816136d9565b9050919050565b600060208201905081810360008301526137f6816136fc565b9050919050565b600060208201905081810360008301526138168161371f565b9050919050565b60006020820190506138326000830184613742565b92915050565b600060408201905061384d6000830185613742565b61385a6020830184613641565b9392505050565b60006080820190506138766000830187613742565b8181036020830152613888818661367d565b9050818103604083015261389c818561367d565b90506138ab6060830184613641565b95945050505050565b60006080820190506138c96000830187613742565b81810360208301526138db818661367d565b905081810360408301526138ef818561367d565b90506138fe6060830184613632565b95945050505050565b600060c08201905061391c6000830189613742565b818103602083015261392e818861367d565b90508181036040830152613942818761367d565b90506139516060830186613641565b61395e6080830185613650565b61396b60a083018461366e565b979650505050505050565b600060408201905061398b6000830185613742565b6139986020830184613742565b9392505050565b60006060820190506139b46000830186613742565b6139c16020830185613742565b6139ce6040830184613641565b949350505050565b60006060820190506139eb6000830186613742565b6139f86020830185613742565b613a056040830184613623565b949350505050565b6000608082019050613a226000830187613742565b613a2f6020830186613742565b613a3c6040830185613641565b613a496060830184613632565b95945050505050565b6000608082019050613a676000830187613742565b613a746020830186613742565b8181036040830152613a86818561367d565b90508181036060830152613a9a818461367d565b905095945050505050565b600060c082019050613aba6000830189613742565b613ac76020830188613742565b8181036040830152613ad9818761367d565b90508181036060830152613aed818661367d565b9050613afc6080830185613742565b613b0960a0830184613632565b979650505050505050565b6000606082019050613b296000830186613742565b613b366020830185613742565b613b436040830184613742565b949350505050565b600060c082019050613b606000830189613742565b613b6d6020830188613742565b613b7a6040830187613742565b613b876060830186613641565b8181036080830152613b99818561367d565b9050613ba860a0830184613742565b979650505050505050565b600060a082019050613bc86000830188613742565b613bd56020830187613742565b613be26040830186613742565b613bef6060830185613641565b613bfc6080830184613751565b9695505050505050565b6000608082019050613c1b6000830187613742565b613c286020830186613742565b613c356040830185613742565b613c42606083018461365f565b95945050505050565b600060a082019050613c606000830188613742565b613c6d6020830187613742565b613c7a6040830186613742565b8181036060830152613c8c818561367d565b90508181036080830152613ca0818461367d565b90509695505050505050565b600060e082019050613cc1600083018a613742565b613cce6020830189613742565b613cdb6040830188613742565b8181036060830152613ced818761367d565b90508181036080830152613d01818661367d565b9050613d1060a0830185613641565b613d1d60c0830184613742565b98975050505050505050565b6000613d33613d44565b9050613d3f8282613f1f565b919050565b6000604051905090565b600067ffffffffffffffff821115613d6957613d68614026565b5b613d7282614069565b9050602081019050919050565b600081519050919050565b600082825260208201905092915050565b6000613da682613df0565b9050919050565b6000613db882613df0565b9050919050565b60008115159050919050565b6000613dd682613d9b565b9050919050565b6000819050613deb826141dc565b919050565b600073ffffffffffffffffffffffffffffffffffffffff82169050919050565b6000819050919050565b600060ff82169050919050565b6000613e3282613e5d565b9050919050565b6000613e4482613e5d565b9050919050565b6000613e5682613ddd565b9050919050565b6000613e6882613e6f565b9050919050565b6000613e7a82613df0565b9050919050565b82818337600083830152505050565b60005b83811015613eae578082015181840152602081019050613e93565b83811115613ebd576000848401525b50505050565b6000613ece82613e10565b91506000821415613ee257613ee1613f99565b5b600182039050919050565b60006002820490506001821680613f0557607f821691505b60208210811415613f1957613f18613ff7565b5b50919050565b613f2882614069565b810181811067ffffffffffffffff82111715613f4757613f46614026565b5b80604052505050565b6000613f5b82613e10565b91507fffffffffffffffffffffffffffffffffffffffffffffffffffffffffffffffff821415613f8e57613f8d613f99565b5b600182019050919050565b7f4e487b7100000000000000000000000000000000000000000000000000000000600052601160045260246000fd5b7f4e487b7100000000000000000000000000000000000000000000000000000000600052602160045260246000fd5b7f4e487b7100000000000000000000000000000000000000000000000000000000600052602260045260246000fd5b7f4e487b7100000000000000000000000000000000000000000000000000000000600052604160045260246000fd5b600080fd5b600080fd5b600080fd5b600080fd5b6000601f19601f8301169050919050565b7f546869732070726f6a656374206973206e6f206c6f6e6765722061637469766560008201527f2e00000000000000000000000000000000000000000000000000000000000000602082015250565b7f43616e6e6f74206361727279206f75742074686973206f7065726174696f6e21600082015250565b7f596f7520617265206e6f7420617574686f72697a656420746f2065646974207460008201527f6869732070726f6a65637420617320796f7520617265206e6f7420746865206360208201527f726561746f720000000000000000000000000000000000000000000000000000604082015250565b7f546869732070726f6a65637420686173206e6f74206265656e2063726561746560008201527f64207965742e20506c65617365206372656174652070726f6a6563742066697260208201527f7374000000000000000000000000000000000000000000000000000000000000604082015250565b600381106141ed576141ec613fc8565b5b50565b6141f981613d9b565b811461420457600080fd5b50565b61421081613dad565b811461421b57600080fd5b50565b61422781613dcb565b811461423257600080fd5b50565b6006811061424257600080fd5b50565b61424e81613e10565b811461425957600080fd5b50565b61426581613e1a565b811461427057600080fd5b5056fea2646970667358221220b7f4d193a9623261a0fc4badf5f4492e771ec114a56fcc0a090c4e2a9f5fbcff64736f6c63430008070033",
			"opcodes": "PUSH1 0x80 PUSH1 0x40 MSTORE PUSH1 0x0 PUSH1 0x1 SSTORE PUSH1 0x0 PUSH1 0x2 SSTORE CALLVALUE DUP1 ISZERO PUSH3 0x1B JUMPI PUSH1 0x0 DUP1 REVERT JUMPDEST POP PUSH1 0x40 MLOAD PUSH3 0x43F1 CODESIZE SUB DUP1 PUSH3 0x43F1 DUP4 CODECOPY DUP2 DUP2 ADD PUSH1 0x40 MSTORE DUP2 ADD SWAP1 PUSH3 0x41 SWAP2 SWAP1 PUSH3 0x9F JUMP JUMPDEST DUP1 PUSH1 0x0 DUP1 PUSH2 0x100 EXP DUP2 SLOAD DUP2 PUSH20 0xFFFFFFFFFFFFFFFFFFFFFFFFFFFFFFFFFFFFFFFF MUL NOT AND SWAP1 DUP4 PUSH20 0xFFFFFFFFFFFFFFFFFFFFFFFFFFFFFFFFFFFFFFFF AND MUL OR SWAP1 SSTORE POP POP PUSH3 0x138 JUMP JUMPDEST PUSH1 0x0 DUP2 MLOAD SWAP1 POP PUSH3 0x99 DUP2 PUSH3 0x11E JUMP JUMPDEST SWAP3 SWAP2 POP POP JUMP JUMPDEST PUSH1 0x0 PUSH1 0x20 DUP3 DUP5 SUB SLT ISZERO PUSH3 0xB8 JUMPI PUSH3 0xB7 PUSH3 0x119 JUMP JUMPDEST JUMPDEST PUSH1 0x0 PUSH3 0xC8 DUP5 DUP3 DUP6 ADD PUSH3 0x88 JUMP JUMPDEST SWAP2 POP POP SWAP3 SWAP2 POP POP JUMP JUMPDEST PUSH1 0x0 PUSH3 0xDE DUP3 PUSH3 0xF9 JUMP JUMPDEST SWAP1 POP SWAP2 SWAP1 POP JUMP JUMPDEST PUSH1 0x0 PUSH3 0xF2 DUP3 PUSH3 0xD1 JUMP JUMPDEST SWAP1 POP SWAP2 SWAP1 POP JUMP JUMPDEST PUSH1 0x0 PUSH20 0xFFFFFFFFFFFFFFFFFFFFFFFFFFFFFFFFFFFFFFFF DUP3 AND SWAP1 POP SWAP2 SWAP1 POP JUMP JUMPDEST PUSH1 0x0 DUP1 REVERT JUMPDEST PUSH3 0x129 DUP2 PUSH3 0xE5 JUMP JUMPDEST DUP2 EQ PUSH3 0x135 JUMPI PUSH1 0x0 DUP1 REVERT JUMPDEST POP JUMP JUMPDEST PUSH2 0x42A9 DUP1 PUSH3 0x148 PUSH1 0x0 CODECOPY PUSH1 0x0 RETURN INVALID PUSH1 0x80 PUSH1 0x40 MSTORE CALLVALUE DUP1 ISZERO PUSH2 0x10 JUMPI PUSH1 0x0 DUP1 REVERT JUMPDEST POP PUSH1 0x4 CALLDATASIZE LT PUSH2 0x1E4 JUMPI PUSH1 0x0 CALLDATALOAD PUSH1 0xE0 SHR DUP1 PUSH4 0x92256AEC GT PUSH2 0x10F JUMPI DUP1 PUSH4 0xC77E8EC5 GT PUSH2 0xA2 JUMPI DUP1 PUSH4 0xDDB2FF1F GT PUSH2 0x71 JUMPI DUP1 PUSH4 0xDDB2FF1F EQ PUSH2 0x572 JUMPI DUP1 PUSH4 0xE0D2B4BB EQ PUSH2 0x58E JUMPI DUP1 PUSH4 0xE731AC45 EQ PUSH2 0x5AA JUMPI DUP1 PUSH4 0xFD23C4BB EQ PUSH2 0x5C6 JUMPI PUSH2 0x1E4 JUMP JUMPDEST DUP1 PUSH4 0xC77E8EC5 EQ PUSH2 0x4EE JUMPI DUP1 PUSH4 0xCCEE835B EQ PUSH2 0x50A JUMPI DUP1 PUSH4 0xD1E992A7 EQ PUSH2 0x53A JUMPI DUP1 PUSH4 0xD3B491E2 EQ PUSH2 0x556 JUMPI PUSH2 0x1E4 JUMP JUMPDEST DUP1 PUSH4 0xBBA93C0B GT PUSH2 0xDE JUMPI DUP1 PUSH4 0xBBA93C0B EQ PUSH2 0x46A JUMPI DUP1 PUSH4 0xC171BDF7 EQ PUSH2 0x486 JUMPI DUP1 PUSH4 0xC304CCDC EQ PUSH2 0x4A2 JUMPI DUP1 PUSH4 0xC3B9E304 EQ PUSH2 0x4D2 JUMPI PUSH2 0x1E4 JUMP JUMPDEST DUP1 PUSH4 0x92256AEC EQ PUSH2 0x3D0 JUMPI DUP1 PUSH4 0x9C87A5E9 EQ PUSH2 0x400 JUMPI DUP1 PUSH4 0xA0B5D6C8 EQ PUSH2 0x41C JUMPI DUP1 PUSH4 0xACE731BD EQ PUSH2 0x43A JUMPI PUSH2 0x1E4 JUMP JUMPDEST DUP1 PUSH4 0x53C400E1 GT PUSH2 0x187 JUMPI DUP1 PUSH4 0x7D3EBECD GT PUSH2 0x156 JUMPI DUP1 PUSH4 0x7D3EBECD EQ PUSH2 0x360 JUMPI DUP1 PUSH4 0x81F509F0 EQ PUSH2 0x37C JUMPI DUP1 PUSH4 0x8C4C1347 EQ PUSH2 0x398 JUMPI DUP1 PUSH4 0x8C749C74 EQ PUSH2 0x3B4 JUMPI PUSH2 0x1E4 JUMP JUMPDEST DUP1 PUSH4 0x53C400E1 EQ PUSH2 0x2DC JUMPI DUP1 PUSH4 0x53C49C64 EQ PUSH2 0x2F8 JUMPI DUP1 PUSH4 0x60AE1E92 EQ PUSH2 0x314 JUMPI DUP1 PUSH4 0x664FC0CD EQ PUSH2 0x330 JUMPI PUSH2 0x1E4 JUMP JUMPDEST DUP1 PUSH4 0x12327A66 GT PUSH2 0x1C3 JUMPI DUP1 PUSH4 0x12327A66 EQ PUSH2 0x256 JUMPI DUP1 PUSH4 0x46C1966A EQ PUSH2 0x286 JUMPI DUP1 PUSH4 0x4CD0CB28 EQ PUSH2 0x2A4 JUMPI DUP1 PUSH4 0x529884E7 EQ PUSH2 0x2C0 JUMPI PUSH2 0x1E4 JUMP JUMPDEST DUP1 PUSH3 0x3F489F EQ PUSH2 0x1E9 JUMPI DUP1 PUSH4 0x10DFD93 EQ PUSH2 0x205 JUMPI DUP1 PUSH4 0x107046BD EQ PUSH2 0x221 JUMPI JUMPDEST PUSH1 0x0 DUP1 REVERT JUMPDEST PUSH2 0x203 PUSH1 0x4 DUP1 CALLDATASIZE SUB DUP2 ADD SWAP1 PUSH2 0x1FE SWAP2 SWAP1 PUSH2 0x32B8 JUMP JUMPDEST PUSH2 0x5E2 JUMP JUMPDEST STOP JUMPDEST PUSH2 0x21F PUSH1 0x4 DUP1 CALLDATASIZE SUB DUP2 ADD SWAP1 PUSH2 0x21A SWAP2 SWAP1 PUSH2 0x31F3 JUMP JUMPDEST PUSH2 0x703 JUMP JUMPDEST STOP JUMPDEST PUSH2 0x23B PUSH1 0x4 DUP1 CALLDATASIZE SUB DUP2 ADD SWAP1 PUSH2 0x236 SWAP2 SWAP1 PUSH2 0x2EFC JUMP JUMPDEST PUSH2 0x8D2 JUMP JUMPDEST PUSH1 0x40 MLOAD PUSH2 0x24D SWAP7 SWAP6 SWAP5 SWAP4 SWAP3 SWAP2 SWAP1 PUSH2 0x3907 JUMP JUMPDEST PUSH1 0x40 MLOAD DUP1 SWAP2 SUB SWAP1 RETURN JUMPDEST PUSH2 0x270 PUSH1 0x4 DUP1 CALLDATASIZE SUB DUP2 ADD SWAP1 PUSH2 0x26B SWAP2 SWAP1 PUSH2 0x2EFC JUMP JUMPDEST PUSH2 0xA58 JUMP JUMPDEST PUSH1 0x40 MLOAD PUSH2 0x27D SWAP2 SWAP1 PUSH2 0x377B JUMP JUMPDEST PUSH1 0x40 MLOAD DUP1 SWAP2 SUB SWAP1 RETURN JUMPDEST PUSH2 0x28E PUSH2 0xC7D JUMP JUMPDEST PUSH1 0x40 MLOAD PUSH2 0x29B SWAP2 SWAP1 PUSH2 0x381D JUMP JUMPDEST PUSH1 0x40 MLOAD DUP1 SWAP2 SUB SWAP1 RETURN JUMPDEST PUSH2 0x2BE PUSH1 0x4 DUP1 CALLDATASIZE SUB DUP2 ADD SWAP1 PUSH2 0x2B9 SWAP2 SWAP1 PUSH2 0x2EFC JUMP JUMPDEST PUSH2 0xC83 JUMP JUMPDEST STOP JUMPDEST PUSH2 0x2DA PUSH1 0x4 DUP1 CALLDATASIZE SUB DUP2 ADD SWAP1 PUSH2 0x2D5 SWAP2 SWAP1 PUSH2 0x3074 JUMP JUMPDEST PUSH2 0xF36 JUMP JUMPDEST STOP JUMPDEST PUSH2 0x2F6 PUSH1 0x4 DUP1 CALLDATASIZE SUB DUP2 ADD SWAP1 PUSH2 0x2F1 SWAP2 SWAP1 PUSH2 0x342F JUMP JUMPDEST PUSH2 0x1058 JUMP JUMPDEST STOP JUMPDEST PUSH2 0x312 PUSH1 0x4 DUP1 CALLDATASIZE SUB DUP2 ADD SWAP1 PUSH2 0x30D SWAP2 SWAP1 PUSH2 0x2FE1 JUMP JUMPDEST PUSH2 0x117D JUMP JUMPDEST STOP JUMPDEST PUSH2 0x32E PUSH1 0x4 DUP1 CALLDATASIZE SUB DUP2 ADD SWAP1 PUSH2 0x329 SWAP2 SWAP1 PUSH2 0x2E71 JUMP JUMPDEST PUSH2 0x1344 JUMP JUMPDEST STOP JUMPDEST PUSH2 0x34A PUSH1 0x4 DUP1 CALLDATASIZE SUB DUP2 ADD SWAP1 PUSH2 0x345 SWAP2 SWAP1 PUSH2 0x2FE1 JUMP JUMPDEST PUSH2 0x149C JUMP JUMPDEST PUSH1 0x40 MLOAD PUSH2 0x357 SWAP2 SWAP1 PUSH2 0x381D JUMP JUMPDEST PUSH1 0x40 MLOAD DUP1 SWAP2 SUB SWAP1 RETURN JUMPDEST PUSH2 0x37A PUSH1 0x4 DUP1 CALLDATASIZE SUB DUP2 ADD SWAP1 PUSH2 0x375 SWAP2 SWAP1 PUSH2 0x2F56 JUMP JUMPDEST PUSH2 0x1552 JUMP JUMPDEST STOP JUMPDEST PUSH2 0x396 PUSH1 0x4 DUP1 CALLDATASIZE SUB DUP2 ADD SWAP1 PUSH2 0x391 SWAP2 SWAP1 PUSH2 0x342F JUMP JUMPDEST PUSH2 0x1676 JUMP JUMPDEST STOP JUMPDEST PUSH2 0x3B2 PUSH1 0x4 DUP1 CALLDATASIZE SUB DUP2 ADD SWAP1 PUSH2 0x3AD SWAP2 SWAP1 PUSH2 0x2F56 JUMP JUMPDEST PUSH2 0x170D JUMP JUMPDEST STOP JUMPDEST PUSH2 0x3CE PUSH1 0x4 DUP1 CALLDATASIZE SUB DUP2 ADD SWAP1 PUSH2 0x3C9 SWAP2 SWAP1 PUSH2 0x3021 JUMP JUMPDEST PUSH2 0x19CA JUMP JUMPDEST STOP JUMPDEST PUSH2 0x3EA PUSH1 0x4 DUP1 CALLDATASIZE SUB DUP2 ADD SWAP1 PUSH2 0x3E5 SWAP2 SWAP1 PUSH2 0x2EFC JUMP JUMPDEST PUSH2 0x1AEC JUMP JUMPDEST PUSH1 0x40 MLOAD PUSH2 0x3F7 SWAP2 SWAP1 PUSH2 0x3760 JUMP JUMPDEST PUSH1 0x40 MLOAD DUP1 SWAP2 SUB SWAP1 RETURN JUMPDEST PUSH2 0x41A PUSH1 0x4 DUP1 CALLDATASIZE SUB DUP2 ADD SWAP1 PUSH2 0x415 SWAP2 SWAP1 PUSH2 0x32B8 JUMP JUMPDEST PUSH2 0x1B15 JUMP JUMPDEST STOP JUMPDEST PUSH2 0x424 PUSH2 0x1C37 JUMP JUMPDEST PUSH1 0x40 MLOAD PUSH2 0x431 SWAP2 SWAP1 PUSH2 0x381D JUMP JUMPDEST PUSH1 0x40 MLOAD DUP1 SWAP2 SUB SWAP1 RETURN JUMPDEST PUSH2 0x454 PUSH1 0x4 DUP1 CALLDATASIZE SUB DUP2 ADD SWAP1 PUSH2 0x44F SWAP2 SWAP1 PUSH2 0x32B8 JUMP JUMPDEST PUSH2 0x1C3D JUMP JUMPDEST PUSH1 0x40 MLOAD PUSH2 0x461 SWAP2 SWAP1 PUSH2 0x377B JUMP JUMPDEST PUSH1 0x40 MLOAD DUP1 SWAP2 SUB SWAP1 RETURN JUMPDEST PUSH2 0x484 PUSH1 0x4 DUP1 CALLDATASIZE SUB DUP2 ADD SWAP1 PUSH2 0x47F SWAP2 SWAP1 PUSH2 0x330B JUMP JUMPDEST PUSH2 0x1D87 JUMP JUMPDEST STOP JUMPDEST PUSH2 0x4A0 PUSH1 0x4 DUP1 CALLDATASIZE SUB DUP2 ADD SWAP1 PUSH2 0x49B SWAP2 SWAP1 PUSH2 0x33B4 JUMP JUMPDEST PUSH2 0x1E24 JUMP JUMPDEST STOP JUMPDEST PUSH2 0x4BC PUSH1 0x4 DUP1 CALLDATASIZE SUB DUP2 ADD SWAP1 PUSH2 0x4B7 SWAP2 SWAP1 PUSH2 0x2FE1 JUMP JUMPDEST PUSH2 0x1F4C JUMP JUMPDEST PUSH1 0x40 MLOAD PUSH2 0x4C9 SWAP2 SWAP1 PUSH2 0x377B JUMP JUMPDEST PUSH1 0x40 MLOAD DUP1 SWAP2 SUB SWAP1 RETURN JUMPDEST PUSH2 0x4EC PUSH1 0x4 DUP1 CALLDATASIZE SUB DUP2 ADD SWAP1 PUSH2 0x4E7 SWAP2 SWAP1 PUSH2 0x32B8 JUMP JUMPDEST PUSH2 0x2093 JUMP JUMPDEST STOP JUMPDEST PUSH2 0x508 PUSH1 0x4 DUP1 CALLDATASIZE SUB DUP2 ADD SWAP1 PUSH2 0x503 SWAP2 SWAP1 PUSH2 0x3021 JUMP JUMPDEST PUSH2 0x21B5 JUMP JUMPDEST STOP JUMPDEST PUSH2 0x524 PUSH1 0x4 DUP1 CALLDATASIZE SUB DUP2 ADD SWAP1 PUSH2 0x51F SWAP2 SWAP1 PUSH2 0x2FE1 JUMP JUMPDEST PUSH2 0x22D7 JUMP JUMPDEST PUSH1 0x40 MLOAD PUSH2 0x531 SWAP2 SWAP1 PUSH2 0x381D JUMP JUMPDEST PUSH1 0x40 MLOAD DUP1 SWAP2 SUB SWAP1 RETURN JUMPDEST PUSH2 0x554 PUSH1 0x4 DUP1 CALLDATASIZE SUB DUP2 ADD SWAP1 PUSH2 0x54F SWAP2 SWAP1 PUSH2 0x3496 JUMP JUMPDEST PUSH2 0x238D JUMP JUMPDEST STOP JUMPDEST PUSH2 0x570 PUSH1 0x4 DUP1 CALLDATASIZE SUB DUP2 ADD SWAP1 PUSH2 0x56B SWAP2 SWAP1 PUSH2 0x342F JUMP JUMPDEST PUSH2 0x24B5 JUMP JUMPDEST STOP JUMPDEST PUSH2 0x58C PUSH1 0x4 DUP1 CALLDATASIZE SUB DUP2 ADD SWAP1 PUSH2 0x587 SWAP2 SWAP1 PUSH2 0x30C7 JUMP JUMPDEST PUSH2 0x25DA JUMP JUMPDEST STOP JUMPDEST PUSH2 0x5A8 PUSH1 0x4 DUP1 CALLDATASIZE SUB DUP2 ADD SWAP1 PUSH2 0x5A3 SWAP2 SWAP1 PUSH2 0x312E JUMP JUMPDEST PUSH2 0x26FF JUMP JUMPDEST STOP JUMPDEST PUSH2 0x5C4 PUSH1 0x4 DUP1 CALLDATASIZE SUB DUP2 ADD SWAP1 PUSH2 0x5BF SWAP2 SWAP1 PUSH2 0x3549 JUMP JUMPDEST PUSH2 0x28D2 JUMP JUMPDEST STOP JUMPDEST PUSH2 0x5E0 PUSH1 0x4 DUP1 CALLDATASIZE SUB DUP2 ADD SWAP1 PUSH2 0x5DB SWAP2 SWAP1 PUSH2 0x3496 JUMP JUMPDEST PUSH2 0x2A00 JUMP JUMPDEST STOP JUMPDEST DUP3 PUSH1 0x0 DUP1 PUSH1 0x2 DUP2 GT ISZERO PUSH2 0x5F8 JUMPI PUSH2 0x5F7 PUSH2 0x3FC8 JUMP JUMPDEST JUMPDEST PUSH1 0x3 PUSH1 0x0 DUP5 DUP2 MSTORE PUSH1 0x20 ADD SWAP1 DUP2 MSTORE PUSH1 0x20 ADD PUSH1 0x0 KECCAK256 PUSH1 0x3 ADD PUSH1 0x15 SWAP1 SLOAD SWAP1 PUSH2 0x100 EXP SWAP1 DIV PUSH1 0xFF AND PUSH1 0x2 DUP2 GT ISZERO PUSH2 0x62E JUMPI PUSH2 0x62D PUSH2 0x3FC8 JUMP JUMPDEST JUMPDEST EQ PUSH2 0x66E JUMPI PUSH1 0x40 MLOAD PUSH32 0x8C379A000000000000000000000000000000000000000000000000000000000 DUP2 MSTORE PUSH1 0x4 ADD PUSH2 0x665 SWAP1 PUSH2 0x37BD JUMP JUMPDEST PUSH1 0x40 MLOAD DUP1 SWAP2 SUB SWAP1 REVERT JUMPDEST PUSH1 0x0 DUP1 SLOAD SWAP1 PUSH2 0x100 EXP SWAP1 DIV PUSH20 0xFFFFFFFFFFFFFFFFFFFFFFFFFFFFFFFFFFFFFFFF AND PUSH20 0xFFFFFFFFFFFFFFFFFFFFFFFFFFFFFFFFFFFFFFFF AND PUSH3 0x3F489F DUP7 DUP7 DUP7 PUSH1 0x40 MLOAD DUP5 PUSH4 0xFFFFFFFF AND PUSH1 0xE0 SHL DUP2 MSTORE PUSH1 0x4 ADD PUSH2 0x6CA SWAP4 SWAP3 SWAP2 SWAP1 PUSH2 0x3B14 JUMP JUMPDEST PUSH1 0x0 PUSH1 0x40 MLOAD DUP1 DUP4 SUB DUP2 PUSH1 0x0 DUP8 DUP1 EXTCODESIZE ISZERO DUP1 ISZERO PUSH2 0x6E4 JUMPI PUSH1 0x0 DUP1 REVERT JUMPDEST POP GAS CALL ISZERO DUP1 ISZERO PUSH2 0x6F8 JUMPI RETURNDATASIZE PUSH1 0x0 DUP1 RETURNDATACOPY RETURNDATASIZE PUSH1 0x0 REVERT JUMPDEST POP POP POP POP POP POP POP POP POP JUMP JUMPDEST DUP6 CALLER DUP1 PUSH20 0xFFFFFFFFFFFFFFFFFFFFFFFFFFFFFFFFFFFFFFFF AND PUSH1 0x3 PUSH1 0x0 DUP5 DUP2 MSTORE PUSH1 0x20 ADD SWAP1 DUP2 MSTORE PUSH1 0x20 ADD PUSH1 0x0 KECCAK256 PUSH1 0x3 ADD PUSH1 0x0 SWAP1 SLOAD SWAP1 PUSH2 0x100 EXP SWAP1 DIV PUSH20 0xFFFFFFFFFFFFFFFFFFFFFFFFFFFFFFFFFFFFFFFF AND PUSH20 0xFFFFFFFFFFFFFFFFFFFFFFFFFFFFFFFFFFFFFFFF AND EQ PUSH2 0x7A9 JUMPI PUSH1 0x40 MLOAD PUSH32 0x8C379A000000000000000000000000000000000000000000000000000000000 DUP2 MSTORE PUSH1 0x4 ADD PUSH2 0x7A0 SWAP1 PUSH2 0x37DD JUMP JUMPDEST PUSH1 0x40 MLOAD DUP1 SWAP2 SUB SWAP1 REVERT JUMPDEST DUP8 PUSH1 0x0 DUP1 PUSH1 0x2 DUP2 GT ISZERO PUSH2 0x7BF JUMPI PUSH2 0x7BE PUSH2 0x3FC8 JUMP JUMPDEST JUMPDEST PUSH1 0x3 PUSH1 0x0 DUP5 DUP2 MSTORE PUSH1 0x20 ADD SWAP1 DUP2 MSTORE PUSH1 0x20 ADD PUSH1 0x0 KECCAK256 PUSH1 0x3 ADD PUSH1 0x15 SWAP1 SLOAD SWAP1 PUSH2 0x100 EXP SWAP1 DIV PUSH1 0xFF AND PUSH1 0x2 DUP2 GT ISZERO PUSH2 0x7F5 JUMPI PUSH2 0x7F4 PUSH2 0x3FC8 JUMP JUMPDEST JUMPDEST EQ PUSH2 0x835 JUMPI PUSH1 0x40 MLOAD PUSH32 0x8C379A000000000000000000000000000000000000000000000000000000000 DUP2 MSTORE PUSH1 0x4 ADD PUSH2 0x82C SWAP1 PUSH2 0x37BD JUMP JUMPDEST PUSH1 0x40 MLOAD DUP1 SWAP2 SUB SWAP1 REVERT JUMPDEST PUSH1 0x0 DUP1 SLOAD SWAP1 PUSH2 0x100 EXP SWAP1 DIV PUSH20 0xFFFFFFFFFFFFFFFFFFFFFFFFFFFFFFFFFFFFFFFF AND PUSH20 0xFFFFFFFFFFFFFFFFFFFFFFFFFFFFFFFFFFFFFFFF AND PUSH4 0x1C746E66 DUP12 DUP12 DUP12 DUP12 PUSH1 0x40 MLOAD DUP6 PUSH4 0xFFFFFFFF AND PUSH1 0xE0 SHL DUP2 MSTORE PUSH1 0x4 ADD PUSH2 0x894 SWAP5 SWAP4 SWAP3 SWAP2 SWAP1 PUSH2 0x3A52 JUMP JUMPDEST PUSH1 0x0 PUSH1 0x40 MLOAD DUP1 DUP4 SUB DUP2 PUSH1 0x0 DUP8 DUP1 EXTCODESIZE ISZERO DUP1 ISZERO PUSH2 0x8AE JUMPI PUSH1 0x0 DUP1 REVERT JUMPDEST POP GAS CALL ISZERO DUP1 ISZERO PUSH2 0x8C2 JUMPI RETURNDATASIZE PUSH1 0x0 DUP1 RETURNDATACOPY RETURNDATASIZE PUSH1 0x0 REVERT JUMPDEST POP POP POP POP POP POP POP POP POP POP POP POP POP POP JUMP JUMPDEST PUSH1 0x3 PUSH1 0x20 MSTORE DUP1 PUSH1 0x0 MSTORE PUSH1 0x40 PUSH1 0x0 KECCAK256 PUSH1 0x0 SWAP2 POP SWAP1 POP DUP1 PUSH1 0x0 ADD SLOAD SWAP1 DUP1 PUSH1 0x1 ADD DUP1 SLOAD PUSH2 0x8FB SWAP1 PUSH2 0x3EED JUMP JUMPDEST DUP1 PUSH1 0x1F ADD PUSH1 0x20 DUP1 SWAP2 DIV MUL PUSH1 0x20 ADD PUSH1 0x40 MLOAD SWAP1 DUP2 ADD PUSH1 0x40 MSTORE DUP1 SWAP3 SWAP2 SWAP1 DUP2 DUP2 MSTORE PUSH1 0x20 ADD DUP3 DUP1 SLOAD PUSH2 0x927 SWAP1 PUSH2 0x3EED JUMP JUMPDEST DUP1 ISZERO PUSH2 0x974 JUMPI DUP1 PUSH1 0x1F LT PUSH2 0x949 JUMPI PUSH2 0x100 DUP1 DUP4 SLOAD DIV MUL DUP4 MSTORE SWAP2 PUSH1 0x20 ADD SWAP2 PUSH2 0x974 JUMP JUMPDEST DUP3 ADD SWAP2 SWAP1 PUSH1 0x0 MSTORE PUSH1 0x20 PUSH1 0x0 KECCAK256 SWAP1 JUMPDEST DUP2 SLOAD DUP2 MSTORE SWAP1 PUSH1 0x1 ADD SWAP1 PUSH1 0x20 ADD DUP1 DUP4 GT PUSH2 0x957 JUMPI DUP3 SWAP1 SUB PUSH1 0x1F AND DUP3 ADD SWAP2 JUMPDEST POP POP POP POP POP SWAP1 DUP1 PUSH1 0x2 ADD DUP1 SLOAD PUSH2 0x989 SWAP1 PUSH2 0x3EED JUMP JUMPDEST DUP1 PUSH1 0x1F ADD PUSH1 0x20 DUP1 SWAP2 DIV MUL PUSH1 0x20 ADD PUSH1 0x40 MLOAD SWAP1 DUP2 ADD PUSH1 0x40 MSTORE DUP1 SWAP3 SWAP2 SWAP1 DUP2 DUP2 MSTORE PUSH1 0x20 ADD DUP3 DUP1 SLOAD PUSH2 0x9B5 SWAP1 PUSH2 0x3EED JUMP JUMPDEST DUP1 ISZERO PUSH2 0xA02 JUMPI DUP1 PUSH1 0x1F LT PUSH2 0x9D7 JUMPI PUSH2 0x100 DUP1 DUP4 SLOAD DIV MUL DUP4 MSTORE SWAP2 PUSH1 0x20 ADD SWAP2 PUSH2 0xA02 JUMP JUMPDEST DUP3 ADD SWAP2 SWAP1 PUSH1 0x0 MSTORE PUSH1 0x20 PUSH1 0x0 KECCAK256 SWAP1 JUMPDEST DUP2 SLOAD DUP2 MSTORE SWAP1 PUSH1 0x1 ADD SWAP1 PUSH1 0x20 ADD DUP1 DUP4 GT PUSH2 0x9E5 JUMPI DUP3 SWAP1 SUB PUSH1 0x1F AND DUP3 ADD SWAP2 JUMPDEST POP POP POP POP POP SWAP1 DUP1 PUSH1 0x3 ADD PUSH1 0x0 SWAP1 SLOAD SWAP1 PUSH2 0x100 EXP SWAP1 DIV PUSH20 0xFFFFFFFFFFFFFFFFFFFFFFFFFFFFFFFFFFFFFFFF AND SWAP1 DUP1 PUSH1 0x3 ADD PUSH1 0x14 SWAP1 SLOAD SWAP1 PUSH2 0x100 EXP SWAP1 DIV PUSH1 0xFF AND SWAP1 DUP1 PUSH1 0x3 ADD PUSH1 0x15 SWAP1 SLOAD SWAP1 PUSH2 0x100 EXP SWAP1 DIV PUSH1 0xFF AND SWAP1 POP DUP7 JUMP JUMPDEST PUSH1 0x60 DUP2 PUSH1 0x3 PUSH1 0x0 DUP3 DUP2 MSTORE PUSH1 0x20 ADD SWAP1 DUP2 MSTORE PUSH1 0x20 ADD PUSH1 0x0 KECCAK256 PUSH1 0x3 ADD PUSH1 0x14 SWAP1 SLOAD SWAP1 PUSH2 0x100 EXP SWAP1 DIV PUSH1 0xFF AND PUSH2 0xABE JUMPI PUSH1 0x40 MLOAD PUSH32 0x8C379A000000000000000000000000000000000000000000000000000000000 DUP2 MSTORE PUSH1 0x4 ADD PUSH2 0xAB5 SWAP1 PUSH2 0x37FD JUMP JUMPDEST PUSH1 0x40 MLOAD DUP1 SWAP2 SUB SWAP1 REVERT JUMPDEST PUSH1 0x0 PUSH1 0x2 DUP2 GT ISZERO PUSH2 0xAD2 JUMPI PUSH2 0xAD1 PUSH2 0x3FC8 JUMP JUMPDEST JUMPDEST PUSH1 0x3 PUSH1 0x0 DUP4 DUP2 MSTORE PUSH1 0x20 ADD SWAP1 DUP2 MSTORE PUSH1 0x20 ADD PUSH1 0x0 KECCAK256 PUSH1 0x3 ADD PUSH1 0x15 SWAP1 SLOAD SWAP1 PUSH2 0x100 EXP SWAP1 DIV PUSH1 0xFF AND PUSH1 0x2 DUP2 GT ISZERO PUSH2 0xB08 JUMPI PUSH2 0xB07 PUSH2 0x3FC8 JUMP JUMPDEST JUMPDEST EQ PUSH2 0xB48 JUMPI PUSH1 0x40 MLOAD PUSH32 0x8C379A000000000000000000000000000000000000000000000000000000000 DUP2 MSTORE PUSH1 0x4 ADD PUSH2 0xB3F SWAP1 PUSH2 0x379D JUMP JUMPDEST PUSH1 0x40 MLOAD DUP1 SWAP2 SUB SWAP1 REVERT JUMPDEST DUP3 PUSH1 0x0 DUP1 PUSH1 0x2 DUP2 GT ISZERO PUSH2 0xB5E JUMPI PUSH2 0xB5D PUSH2 0x3FC8 JUMP JUMPDEST JUMPDEST PUSH1 0x3 PUSH1 0x0 DUP5 DUP2 MSTORE PUSH1 0x20 ADD SWAP1 DUP2 MSTORE PUSH1 0x20 ADD PUSH1 0x0 KECCAK256 PUSH1 0x3 ADD PUSH1 0x15 SWAP1 SLOAD SWAP1 PUSH2 0x100 EXP SWAP1 DIV PUSH1 0xFF AND PUSH1 0x2 DUP2 GT ISZERO PUSH2 0xB94 JUMPI PUSH2 0xB93 PUSH2 0x3FC8 JUMP JUMPDEST JUMPDEST EQ PUSH2 0xBD4 JUMPI PUSH1 0x40 MLOAD PUSH32 0x8C379A000000000000000000000000000000000000000000000000000000000 DUP2 MSTORE PUSH1 0x4 ADD PUSH2 0xBCB SWAP1 PUSH2 0x37BD JUMP JUMPDEST PUSH1 0x40 MLOAD DUP1 SWAP2 SUB SWAP1 REVERT JUMPDEST PUSH1 0x3 PUSH1 0x0 DUP7 DUP2 MSTORE PUSH1 0x20 ADD SWAP1 DUP2 MSTORE PUSH1 0x20 ADD PUSH1 0x0 KECCAK256 PUSH1 0x1 ADD DUP1 SLOAD PUSH2 0xBF5 SWAP1 PUSH2 0x3EED JUMP JUMPDEST DUP1 PUSH1 0x1F ADD PUSH1 0x20 DUP1 SWAP2 DIV MUL PUSH1 0x20 ADD PUSH1 0x40 MLOAD SWAP1 DUP2 ADD PUSH1 0x40 MSTORE DUP1 SWAP3 SWAP2 SWAP1 DUP2 DUP2 MSTORE PUSH1 0x20 ADD DUP3 DUP1 SLOAD PUSH2 0xC21 SWAP1 PUSH2 0x3EED JUMP JUMPDEST DUP1 ISZERO PUSH2 0xC6E JUMPI DUP1 PUSH1 0x1F LT PUSH2 0xC43 JUMPI PUSH2 0x100 DUP1 DUP4 SLOAD DIV MUL DUP4 MSTORE SWAP2 PUSH1 0x20 ADD SWAP2 PUSH2 0xC6E JUMP JUMPDEST DUP3 ADD SWAP2 SWAP1 PUSH1 0x0 MSTORE PUSH1 0x20 PUSH1 0x0 KECCAK256 SWAP1 JUMPDEST DUP2 SLOAD DUP2 MSTORE SWAP1 PUSH1 0x1 ADD SWAP1 PUSH1 0x20 ADD DUP1 DUP4 GT PUSH2 0xC51 JUMPI DUP3 SWAP1 SUB PUSH1 0x1F AND DUP3 ADD SWAP2 JUMPDEST POP POP POP POP POP SWAP4 POP POP POP POP SWAP2 SWAP1 POP JUMP JUMPDEST PUSH1 0x1 SLOAD DUP2 JUMP JUMPDEST DUP1 PUSH1 0x3 PUSH1 0x0 DUP3 DUP2 MSTORE PUSH1 0x20 ADD SWAP1 DUP2 MSTORE PUSH1 0x20 ADD PUSH1 0x0 KECCAK256 PUSH1 0x3 ADD PUSH1 0x14 SWAP1 SLOAD SWAP1 PUSH2 0x100 EXP SWAP1 DIV PUSH1 0xFF AND PUSH2 0xCE7 JUMPI PUSH1 0x40 MLOAD PUSH32 0x8C379A000000000000000000000000000000000000000000000000000000000 DUP2 MSTORE PUSH1 0x4 ADD PUSH2 0xCDE SWAP1 PUSH2 0x37FD JUMP JUMPDEST PUSH1 0x40 MLOAD DUP1 SWAP2 SUB SWAP1 REVERT JUMPDEST PUSH1 0x0 PUSH1 0x2 DUP2 GT ISZERO PUSH2 0xCFB JUMPI PUSH2 0xCFA PUSH2 0x3FC8 JUMP JUMPDEST JUMPDEST PUSH1 0x3 PUSH1 0x0 DUP4 DUP2 MSTORE PUSH1 0x20 ADD SWAP1 DUP2 MSTORE PUSH1 0x20 ADD PUSH1 0x0 KECCAK256 PUSH1 0x3 ADD PUSH1 0x15 SWAP1 SLOAD SWAP1 PUSH2 0x100 EXP SWAP1 DIV PUSH1 0xFF AND PUSH1 0x2 DUP2 GT ISZERO PUSH2 0xD31 JUMPI PUSH2 0xD30 PUSH2 0x3FC8 JUMP JUMPDEST JUMPDEST EQ PUSH2 0xD71 JUMPI PUSH1 0x40 MLOAD PUSH32 0x8C379A000000000000000000000000000000000000000000000000000000000 DUP2 MSTORE PUSH1 0x4 ADD PUSH2 0xD68 SWAP1 PUSH2 0x379D JUMP JUMPDEST PUSH1 0x40 MLOAD DUP1 SWAP2 SUB SWAP1 REVERT JUMPDEST DUP2 CALLER DUP1 PUSH20 0xFFFFFFFFFFFFFFFFFFFFFFFFFFFFFFFFFFFFFFFF AND PUSH1 0x3 PUSH1 0x0 DUP5 DUP2 MSTORE PUSH1 0x20 ADD SWAP1 DUP2 MSTORE PUSH1 0x20 ADD PUSH1 0x0 KECCAK256 PUSH1 0x3 ADD PUSH1 0x0 SWAP1 SLOAD SWAP1 PUSH2 0x100 EXP SWAP1 DIV PUSH20 0xFFFFFFFFFFFFFFFFFFFFFFFFFFFFFFFFFFFFFFFF AND PUSH20 0xFFFFFFFFFFFFFFFFFFFFFFFFFFFFFFFFFFFFFFFF AND EQ PUSH2 0xE17 JUMPI PUSH1 0x40 MLOAD PUSH32 0x8C379A000000000000000000000000000000000000000000000000000000000 DUP2 MSTORE PUSH1 0x4 ADD PUSH2 0xE0E SWAP1 PUSH2 0x37DD JUMP JUMPDEST PUSH1 0x40 MLOAD DUP1 SWAP2 SUB SWAP1 REVERT JUMPDEST DUP4 PUSH1 0x0 DUP1 PUSH1 0x2 DUP2 GT ISZERO PUSH2 0xE2D JUMPI PUSH2 0xE2C PUSH2 0x3FC8 JUMP JUMPDEST JUMPDEST PUSH1 0x3 PUSH1 0x0 DUP5 DUP2 MSTORE PUSH1 0x20 ADD SWAP1 DUP2 MSTORE PUSH1 0x20 ADD PUSH1 0x0 KECCAK256 PUSH1 0x3 ADD PUSH1 0x15 SWAP1 SLOAD SWAP1 PUSH2 0x100 EXP SWAP1 DIV PUSH1 0xFF AND PUSH1 0x2 DUP2 GT ISZERO PUSH2 0xE63 JUMPI PUSH2 0xE62 PUSH2 0x3FC8 JUMP JUMPDEST JUMPDEST EQ PUSH2 0xEA3 JUMPI PUSH1 0x40 MLOAD PUSH32 0x8C379A000000000000000000000000000000000000000000000000000000000 DUP2 MSTORE PUSH1 0x4 ADD PUSH2 0xE9A SWAP1 PUSH2 0x37BD JUMP JUMPDEST PUSH1 0x40 MLOAD DUP1 SWAP2 SUB SWAP1 REVERT JUMPDEST PUSH1 0x0 PUSH1 0x3 PUSH1 0x0 DUP9 DUP2 MSTORE PUSH1 0x20 ADD SWAP1 DUP2 MSTORE PUSH1 0x20 ADD PUSH1 0x0 KECCAK256 PUSH1 0x3 ADD PUSH1 0x14 PUSH2 0x100 EXP DUP2 SLOAD DUP2 PUSH1 0xFF MUL NOT AND SWAP1 DUP4 ISZERO ISZERO MUL OR SWAP1 SSTORE POP PUSH1 0x1 PUSH1 0x0 DUP2 SLOAD DUP1 SWAP3 SWAP2 SWAP1 PUSH2 0xEE5 SWAP1 PUSH2 0x3EC3 JUMP JUMPDEST SWAP2 SWAP1 POP SSTORE POP PUSH2 0xEF5 DUP7 PUSH1 0x1 PUSH2 0x2BD0 JUMP JUMPDEST PUSH32 0xBC32A4D12940B4C2B257F4F9FB0D3D970F3C1ECAB860AADBC59F95F58D9A02F2 DUP7 CALLER PUSH1 0x40 MLOAD PUSH2 0xF26 SWAP3 SWAP2 SWAP1 PUSH2 0x3838 JUMP JUMPDEST PUSH1 0x40 MLOAD DUP1 SWAP2 SUB SWAP1 LOG1 POP POP POP POP POP POP JUMP JUMPDEST DUP3 PUSH1 0x0 DUP1 PUSH1 0x2 DUP2 GT ISZERO PUSH2 0xF4C JUMPI PUSH2 0xF4B PUSH2 0x3FC8 JUMP JUMPDEST JUMPDEST PUSH1 0x3 PUSH1 0x0 DUP5 DUP2 MSTORE PUSH1 0x20 ADD SWAP1 DUP2 MSTORE PUSH1 0x20 ADD PUSH1 0x0 KECCAK256 PUSH1 0x3 ADD PUSH1 0x15 SWAP1 SLOAD SWAP1 PUSH2 0x100 EXP SWAP1 DIV PUSH1 0xFF AND PUSH1 0x2 DUP2 GT ISZERO PUSH2 0xF82 JUMPI PUSH2 0xF81 PUSH2 0x3FC8 JUMP JUMPDEST JUMPDEST EQ PUSH2 0xFC2 JUMPI PUSH1 0x40 MLOAD PUSH32 0x8C379A000000000000000000000000000000000000000000000000000000000 DUP2 MSTORE PUSH1 0x4 ADD PUSH2 0xFB9 SWAP1 PUSH2 0x37BD JUMP JUMPDEST PUSH1 0x40 MLOAD DUP1 SWAP2 SUB SWAP1 REVERT JUMPDEST PUSH1 0x0 DUP1 SLOAD SWAP1 PUSH2 0x100 EXP SWAP1 DIV PUSH20 0xFFFFFFFFFFFFFFFFFFFFFFFFFFFFFFFFFFFFFFFF AND PUSH20 0xFFFFFFFFFFFFFFFFFFFFFFFFFFFFFFFFFFFFFFFF AND PUSH4 0x529884E7 DUP7 DUP7 DUP7 PUSH1 0x40 MLOAD DUP5 PUSH4 0xFFFFFFFF AND PUSH1 0xE0 SHL DUP2 MSTORE PUSH1 0x4 ADD PUSH2 0x101F SWAP4 SWAP3 SWAP2 SWAP1 PUSH2 0x39D6 JUMP JUMPDEST PUSH1 0x0 PUSH1 0x40 MLOAD DUP1 DUP4 SUB DUP2 PUSH1 0x0 DUP8 DUP1 EXTCODESIZE ISZERO DUP1 ISZERO PUSH2 0x1039 JUMPI PUSH1 0x0 DUP1 REVERT JUMPDEST POP GAS CALL ISZERO DUP1 ISZERO PUSH2 0x104D JUMPI RETURNDATASIZE PUSH1 0x0 DUP1 RETURNDATACOPY RETURNDATASIZE PUSH1 0x0 REVERT JUMPDEST POP POP POP POP POP POP POP POP POP JUMP JUMPDEST DUP4 PUSH1 0x0 DUP1 PUSH1 0x2 DUP2 GT ISZERO PUSH2 0x106E JUMPI PUSH2 0x106D PUSH2 0x3FC8 JUMP JUMPDEST JUMPDEST PUSH1 0x3 PUSH1 0x0 DUP5 DUP2 MSTORE PUSH1 0x20 ADD SWAP1 DUP2 MSTORE PUSH1 0x20 ADD PUSH1 0x0 KECCAK256 PUSH1 0x3 ADD PUSH1 0x15 SWAP1 SLOAD SWAP1 PUSH2 0x100 EXP SWAP1 DIV PUSH1 0xFF AND PUSH1 0x2 DUP2 GT ISZERO PUSH2 0x10A4 JUMPI PUSH2 0x10A3 PUSH2 0x3FC8 JUMP JUMPDEST JUMPDEST EQ PUSH2 0x10E4 JUMPI PUSH1 0x40 MLOAD PUSH32 0x8C379A000000000000000000000000000000000000000000000000000000000 DUP2 MSTORE PUSH1 0x4 ADD PUSH2 0x10DB SWAP1 PUSH2 0x37BD JUMP JUMPDEST PUSH1 0x40 MLOAD DUP1 SWAP2 SUB SWAP1 REVERT JUMPDEST PUSH1 0x0 DUP1 SLOAD SWAP1 PUSH2 0x100 EXP SWAP1 DIV PUSH20 0xFFFFFFFFFFFFFFFFFFFFFFFFFFFFFFFFFFFFFFFF AND PUSH20 0xFFFFFFFFFFFFFFFFFFFFFFFFFFFFFFFFFFFFFFFF AND PUSH4 0x53C400E1 DUP8 DUP8 DUP8 DUP8 PUSH1 0x40 MLOAD DUP6 PUSH4 0xFFFFFFFF AND PUSH1 0xE0 SHL DUP2 MSTORE PUSH1 0x4 ADD PUSH2 0x1143 SWAP5 SWAP4 SWAP3 SWAP2 SWAP1 PUSH2 0x3C06 JUMP JUMPDEST PUSH1 0x0 PUSH1 0x40 MLOAD DUP1 DUP4 SUB DUP2 PUSH1 0x0 DUP8 DUP1 EXTCODESIZE ISZERO DUP1 ISZERO PUSH2 0x115D JUMPI PUSH1 0x0 DUP1 REVERT JUMPDEST POP GAS CALL ISZERO DUP1 ISZERO PUSH2 0x1171 JUMPI RETURNDATASIZE PUSH1 0x0 DUP1 RETURNDATACOPY RETURNDATASIZE PUSH1 0x0 REVERT JUMPDEST POP POP POP POP POP POP POP POP POP POP JUMP JUMPDEST DUP2 CALLER DUP1 PUSH20 0xFFFFFFFFFFFFFFFFFFFFFFFFFFFFFFFFFFFFFFFF AND PUSH1 0x3 PUSH1 0x0 DUP5 DUP2 MSTORE PUSH1 0x20 ADD SWAP1 DUP2 MSTORE PUSH1 0x20 ADD PUSH1 0x0 KECCAK256 PUSH1 0x3 ADD PUSH1 0x0 SWAP1 SLOAD SWAP1 PUSH2 0x100 EXP SWAP1 DIV PUSH20 0xFFFFFFFFFFFFFFFFFFFFFFFFFFFFFFFFFFFFFFFF AND PUSH20 0xFFFFFFFFFFFFFFFFFFFFFFFFFFFFFFFFFFFFFFFF AND EQ PUSH2 0x1223 JUMPI PUSH1 0x40 MLOAD PUSH32 0x8C379A000000000000000000000000000000000000000000000000000000000 DUP2 MSTORE PUSH1 0x4 ADD PUSH2 0x121A SWAP1 PUSH2 0x37DD JUMP JUMPDEST PUSH1 0x40 MLOAD DUP1 SWAP2 SUB SWAP1 REVERT JUMPDEST DUP4 PUSH1 0x0 DUP1 PUSH1 0x2 DUP2 GT ISZERO PUSH2 0x1239 JUMPI PUSH2 0x1238 PUSH2 0x3FC8 JUMP JUMPDEST JUMPDEST PUSH1 0x3 PUSH1 0x0 DUP5 DUP2 MSTORE PUSH1 0x20 ADD SWAP1 DUP2 MSTORE PUSH1 0x20 ADD PUSH1 0x0 KECCAK256 PUSH1 0x3 ADD PUSH1 0x15 SWAP1 SLOAD SWAP1 PUSH2 0x100 EXP SWAP1 DIV PUSH1 0xFF AND PUSH1 0x2 DUP2 GT ISZERO PUSH2 0x126F JUMPI PUSH2 0x126E PUSH2 0x3FC8 JUMP JUMPDEST JUMPDEST EQ PUSH2 0x12AF JUMPI PUSH1 0x40 MLOAD PUSH32 0x8C379A000000000000000000000000000000000000000000000000000000000 DUP2 MSTORE PUSH1 0x4 ADD PUSH2 0x12A6 SWAP1 PUSH2 0x37BD JUMP JUMPDEST PUSH1 0x40 MLOAD DUP1 SWAP2 SUB SWAP1 REVERT JUMPDEST PUSH1 0x0 DUP1 SLOAD SWAP1 PUSH2 0x100 EXP SWAP1 DIV PUSH20 0xFFFFFFFFFFFFFFFFFFFFFFFFFFFFFFFFFFFFFFFF AND PUSH20 0xFFFFFFFFFFFFFFFFFFFFFFFFFFFFFFFFFFFFFFFF AND PUSH4 0x53C49C64 DUP8 DUP8 PUSH1 0x40 MLOAD DUP4 PUSH4 0xFFFFFFFF AND PUSH1 0xE0 SHL DUP2 MSTORE PUSH1 0x4 ADD PUSH2 0x130A SWAP3 SWAP2 SWAP1 PUSH2 0x3976 JUMP JUMPDEST PUSH1 0x0 PUSH1 0x40 MLOAD DUP1 DUP4 SUB DUP2 PUSH1 0x0 DUP8 DUP1 EXTCODESIZE ISZERO DUP1 ISZERO PUSH2 0x1324 JUMPI PUSH1 0x0 DUP1 REVERT JUMPDEST POP GAS CALL ISZERO DUP1 ISZERO PUSH2 0x1338 JUMPI RETURNDATASIZE PUSH1 0x0 DUP1 RETURNDATACOPY RETURNDATASIZE PUSH1 0x0 REVERT JUMPDEST POP POP POP POP POP POP POP POP POP POP JUMP JUMPDEST PUSH1 0x0 PUSH1 0x3 PUSH1 0x0 PUSH1 0x2 SLOAD DUP2 MSTORE PUSH1 0x20 ADD SWAP1 DUP2 MSTORE PUSH1 0x20 ADD PUSH1 0x0 KECCAK256 SWAP1 POP PUSH1 0x2 SLOAD DUP2 PUSH1 0x0 ADD DUP2 SWAP1 SSTORE POP DUP4 DUP2 PUSH1 0x1 ADD SWAP1 DUP1 MLOAD SWAP1 PUSH1 0x20 ADD SWAP1 PUSH2 0x1380 SWAP3 SWAP2 SWAP1 PUSH2 0x2C12 JUMP JUMPDEST POP DUP3 DUP2 PUSH1 0x2 ADD SWAP1 DUP1 MLOAD SWAP1 PUSH1 0x20 ADD SWAP1 PUSH2 0x1399 SWAP3 SWAP2 SWAP1 PUSH2 0x2C12 JUMP JUMPDEST POP DUP2 DUP2 PUSH1 0x3 ADD PUSH1 0x0 PUSH2 0x100 EXP DUP2 SLOAD DUP2 PUSH20 0xFFFFFFFFFFFFFFFFFFFFFFFFFFFFFFFFFFFFFFFF MUL NOT AND SWAP1 DUP4 PUSH20 0xFFFFFFFFFFFFFFFFFFFFFFFFFFFFFFFFFFFFFFFF AND MUL OR SWAP1 SSTORE POP PUSH1 0x1 DUP2 PUSH1 0x3 ADD PUSH1 0x14 PUSH2 0x100 EXP DUP2 SLOAD DUP2 PUSH1 0xFF MUL NOT AND SWAP1 DUP4 ISZERO ISZERO MUL OR SWAP1 SSTORE POP PUSH1 0x0 DUP2 PUSH1 0x3 ADD PUSH1 0x15 PUSH2 0x100 EXP DUP2 SLOAD DUP2 PUSH1 0xFF MUL NOT AND SWAP1 DUP4 PUSH1 0x2 DUP2 GT ISZERO PUSH2 0x1422 JUMPI PUSH2 0x1421 PUSH2 0x3FC8 JUMP JUMPDEST JUMPDEST MUL OR SWAP1 SSTORE POP PUSH32 0x7A3B5D8DB9438BF836C0FB30607CE953914DA2C67FC74FC21ED59A788EC7BD4D PUSH1 0x2 SLOAD DUP6 DUP6 DUP6 PUSH1 0x40 MLOAD PUSH2 0x145E SWAP5 SWAP4 SWAP3 SWAP2 SWAP1 PUSH2 0x3861 JUMP JUMPDEST PUSH1 0x40 MLOAD DUP1 SWAP2 SUB SWAP1 LOG1 PUSH1 0x1 PUSH1 0x0 DUP2 SLOAD DUP1 SWAP3 SWAP2 SWAP1 PUSH2 0x1479 SWAP1 PUSH2 0x3F50 JUMP JUMPDEST SWAP2 SWAP1 POP SSTORE POP PUSH1 0x2 PUSH1 0x0 DUP2 SLOAD DUP1 SWAP3 SWAP2 SWAP1 PUSH2 0x1491 SWAP1 PUSH2 0x3F50 JUMP JUMPDEST SWAP2 SWAP1 POP SSTORE POP POP POP POP POP JUMP JUMPDEST PUSH1 0x0 DUP1 PUSH1 0x0 SWAP1 SLOAD SWAP1 PUSH2 0x100 EXP SWAP1 DIV PUSH20 0xFFFFFFFFFFFFFFFFFFFFFFFFFFFFFFFFFFFFFFFF AND PUSH20 0xFFFFFFFFFFFFFFFFFFFFFFFFFFFFFFFFFFFFFFFF AND PUSH4 0x664FC0CD DUP5 DUP5 PUSH1 0x40 MLOAD DUP4 PUSH4 0xFFFFFFFF AND PUSH1 0xE0 SHL DUP2 MSTORE PUSH1 0x4 ADD PUSH2 0x14FA SWAP3 SWAP2 SWAP1 PUSH2 0x3976 JUMP JUMPDEST PUSH1 0x20 PUSH1 0x40 MLOAD DUP1 DUP4 SUB DUP2 DUP7 DUP1 EXTCODESIZE ISZERO DUP1 ISZERO PUSH2 0x1512 JUMPI PUSH1 0x0 DUP1 REVERT JUMPDEST POP GAS STATICCALL ISZERO DUP1 ISZERO PUSH2 0x1526 JUMPI RETURNDATASIZE PUSH1 0x0 DUP1 RETURNDATACOPY RETURNDATASIZE PUSH1 0x0 REVERT JUMPDEST POP POP POP POP PUSH1 0x40 MLOAD RETURNDATASIZE PUSH1 0x1F NOT PUSH1 0x1F DUP3 ADD AND DUP3 ADD DUP1 PUSH1 0x40 MSTORE POP DUP2 ADD SWAP1 PUSH2 0x154A SWAP2 SWAP1 PUSH2 0x2F29 JUMP JUMPDEST SWAP1 POP SWAP3 SWAP2 POP POP JUMP JUMPDEST DUP3 PUSH1 0x0 DUP1 PUSH1 0x2 DUP2 GT ISZERO PUSH2 0x1568 JUMPI PUSH2 0x1567 PUSH2 0x3FC8 JUMP JUMPDEST JUMPDEST PUSH1 0x3 PUSH1 0x0 DUP5 DUP2 MSTORE PUSH1 0x20 ADD SWAP1 DUP2 MSTORE PUSH1 0x20 ADD PUSH1 0x0 KECCAK256 PUSH1 0x3 ADD PUSH1 0x15 SWAP1 SLOAD SWAP1 PUSH2 0x100 EXP SWAP1 DIV PUSH1 0xFF AND PUSH1 0x2 DUP2 GT ISZERO PUSH2 0x159E JUMPI PUSH2 0x159D PUSH2 0x3FC8 JUMP JUMPDEST JUMPDEST EQ PUSH2 0x15DE JUMPI PUSH1 0x40 MLOAD PUSH32 0x8C379A000000000000000000000000000000000000000000000000000000000 DUP2 MSTORE PUSH1 0x4 ADD PUSH2 0x15D5 SWAP1 PUSH2 0x37BD JUMP JUMPDEST PUSH1 0x40 MLOAD DUP1 SWAP2 SUB SWAP1 REVERT JUMPDEST PUSH1 0x0 DUP1 SLOAD SWAP1 PUSH2 0x100 EXP SWAP1 DIV PUSH20 0xFFFFFFFFFFFFFFFFFFFFFFFFFFFFFFFFFFFFFFFF AND PUSH20 0xFFFFFFFFFFFFFFFFFFFFFFFFFFFFFFFFFFFFFFFF AND PUSH4 0xA19BFFBE DUP7 DUP7 DUP7 CALLER PUSH1 0x40 MLOAD DUP6 PUSH4 0xFFFFFFFF AND PUSH1 0xE0 SHL DUP2 MSTORE PUSH1 0x4 ADD PUSH2 0x163D SWAP5 SWAP4 SWAP3 SWAP2 SWAP1 PUSH2 0x38B4 JUMP JUMPDEST PUSH1 0x0 PUSH1 0x40 MLOAD DUP1 DUP4 SUB DUP2 PUSH1 0x0 DUP8 DUP1 EXTCODESIZE ISZERO DUP1 ISZERO PUSH2 0x1657 JUMPI PUSH1 0x0 DUP1 REVERT JUMPDEST POP GAS CALL ISZERO DUP1 ISZERO PUSH2 0x166B JUMPI RETURNDATASIZE PUSH1 0x0 DUP1 RETURNDATACOPY RETURNDATASIZE PUSH1 0x0 REVERT JUMPDEST POP POP POP POP POP POP POP POP POP JUMP JUMPDEST PUSH1 0x0 DUP1 SLOAD SWAP1 PUSH2 0x100 EXP SWAP1 DIV PUSH20 0xFFFFFFFFFFFFFFFFFFFFFFFFFFFFFFFFFFFFFFFF AND PUSH20 0xFFFFFFFFFFFFFFFFFFFFFFFFFFFFFFFFFFFFFFFF AND PUSH4 0x81F509F0 DUP6 DUP6 DUP6 DUP6 PUSH1 0x40 MLOAD DUP6 PUSH4 0xFFFFFFFF AND PUSH1 0xE0 SHL DUP2 MSTORE PUSH1 0x4 ADD PUSH2 0x16D5 SWAP5 SWAP4 SWAP3 SWAP2 SWAP1 PUSH2 0x3C06 JUMP JUMPDEST PUSH1 0x0 PUSH1 0x40 MLOAD DUP1 DUP4 SUB DUP2 PUSH1 0x0 DUP8 DUP1 EXTCODESIZE ISZERO DUP1 ISZERO PUSH2 0x16EF JUMPI PUSH1 0x0 DUP1 REVERT JUMPDEST POP GAS CALL ISZERO DUP1 ISZERO PUSH2 0x1703 JUMPI RETURNDATASIZE PUSH1 0x0 DUP1 RETURNDATACOPY RETURNDATASIZE PUSH1 0x0 REVERT JUMPDEST POP POP POP POP POP POP POP POP JUMP JUMPDEST DUP3 PUSH1 0x3 PUSH1 0x0 DUP3 DUP2 MSTORE PUSH1 0x20 ADD SWAP1 DUP2 MSTORE PUSH1 0x20 ADD PUSH1 0x0 KECCAK256 PUSH1 0x3 ADD PUSH1 0x14 SWAP1 SLOAD SWAP1 PUSH2 0x100 EXP SWAP1 DIV PUSH1 0xFF AND PUSH2 0x1771 JUMPI PUSH1 0x40 MLOAD PUSH32 0x8C379A000000000000000000000000000000000000000000000000000000000 DUP2 MSTORE PUSH1 0x4 ADD PUSH2 0x1768 SWAP1 PUSH2 0x37FD JUMP JUMPDEST PUSH1 0x40 MLOAD DUP1 SWAP2 SUB SWAP1 REVERT JUMPDEST PUSH1 0x0 PUSH1 0x2 DUP2 GT ISZERO PUSH2 0x1785 JUMPI PUSH2 0x1784 PUSH2 0x3FC8 JUMP JUMPDEST JUMPDEST PUSH1 0x3 PUSH1 0x0 DUP4 DUP2 MSTORE PUSH1 0x20 ADD SWAP1 DUP2 MSTORE PUSH1 0x20 ADD PUSH1 0x0 KECCAK256 PUSH1 0x3 ADD PUSH1 0x15 SWAP1 SLOAD SWAP1 PUSH2 0x100 EXP SWAP1 DIV PUSH1 0xFF AND PUSH1 0x2 DUP2 GT ISZERO PUSH2 0x17BB JUMPI PUSH2 0x17BA PUSH2 0x3FC8 JUMP JUMPDEST JUMPDEST EQ PUSH2 0x17FB JUMPI PUSH1 0x40 MLOAD PUSH32 0x8C379A000000000000000000000000000000000000000000000000000000000 DUP2 MSTORE PUSH1 0x4 ADD PUSH2 0x17F2 SWAP1 PUSH2 0x379D JUMP JUMPDEST PUSH1 0x40 MLOAD DUP1 SWAP2 SUB SWAP1 REVERT JUMPDEST DUP4 CALLER DUP1 PUSH20 0xFFFFFFFFFFFFFFFFFFFFFFFFFFFFFFFFFFFFFFFF AND PUSH1 0x3 PUSH1 0x0 DUP5 DUP2 MSTORE PUSH1 0x20 ADD SWAP1 DUP2 MSTORE PUSH1 0x20 ADD PUSH1 0x0 KECCAK256 PUSH1 0x3 ADD PUSH1 0x0 SWAP1 SLOAD SWAP1 PUSH2 0x100 EXP SWAP1 DIV PUSH20 0xFFFFFFFFFFFFFFFFFFFFFFFFFFFFFFFFFFFFFFFF AND PUSH20 0xFFFFFFFFFFFFFFFFFFFFFFFFFFFFFFFFFFFFFFFF AND EQ PUSH2 0x18A1 JUMPI PUSH1 0x40 MLOAD PUSH32 0x8C379A000000000000000000000000000000000000000000000000000000000 DUP2 MSTORE PUSH1 0x4 ADD PUSH2 0x1898 SWAP1 PUSH2 0x37DD JUMP JUMPDEST PUSH1 0x40 MLOAD DUP1 SWAP2 SUB SWAP1 REVERT JUMPDEST DUP6 PUSH1 0x0 DUP1 PUSH1 0x2 DUP2 GT ISZERO PUSH2 0x18B7 JUMPI PUSH2 0x18B6 PUSH2 0x3FC8 JUMP JUMPDEST JUMPDEST PUSH1 0x3 PUSH1 0x0 DUP5 DUP2 MSTORE PUSH1 0x20 ADD SWAP1 DUP2 MSTORE PUSH1 0x20 ADD PUSH1 0x0 KECCAK256 PUSH1 0x3 ADD PUSH1 0x15 SWAP1 SLOAD SWAP1 PUSH2 0x100 EXP SWAP1 DIV PUSH1 0xFF AND PUSH1 0x2 DUP2 GT ISZERO PUSH2 0x18ED JUMPI PUSH2 0x18EC PUSH2 0x3FC8 JUMP JUMPDEST JUMPDEST EQ PUSH2 0x192D JUMPI PUSH1 0x40 MLOAD PUSH32 0x8C379A000000000000000000000000000000000000000000000000000000000 DUP2 MSTORE PUSH1 0x4 ADD PUSH2 0x1924 SWAP1 PUSH2 0x37BD JUMP JUMPDEST PUSH1 0x40 MLOAD DUP1 SWAP2 SUB SWAP1 REVERT JUMPDEST DUP7 PUSH1 0x3 PUSH1 0x0 DUP11 DUP2 MSTORE PUSH1 0x20 ADD SWAP1 DUP2 MSTORE PUSH1 0x20 ADD PUSH1 0x0 KECCAK256 PUSH1 0x1 ADD SWAP1 DUP1 MLOAD SWAP1 PUSH1 0x20 ADD SWAP1 PUSH2 0x1957 SWAP3 SWAP2 SWAP1 PUSH2 0x2C12 JUMP JUMPDEST POP DUP6 PUSH1 0x3 PUSH1 0x0 DUP11 DUP2 MSTORE PUSH1 0x20 ADD SWAP1 DUP2 MSTORE PUSH1 0x20 ADD PUSH1 0x0 KECCAK256 PUSH1 0x2 ADD SWAP1 DUP1 MLOAD SWAP1 PUSH1 0x20 ADD SWAP1 PUSH2 0x1982 SWAP3 SWAP2 SWAP1 PUSH2 0x2C12 JUMP JUMPDEST POP PUSH32 0x852CF61204784DE3E6AE76789A9350F086AEABAC7957C2B16D22D683C56E2C1C DUP9 DUP9 DUP9 CALLER PUSH1 0x40 MLOAD PUSH2 0x19B8 SWAP5 SWAP4 SWAP3 SWAP2 SWAP1 PUSH2 0x3861 JUMP JUMPDEST PUSH1 0x40 MLOAD DUP1 SWAP2 SUB SWAP1 LOG1 POP POP POP POP POP POP POP POP JUMP JUMPDEST DUP3 PUSH1 0x0 DUP1 PUSH1 0x2 DUP2 GT ISZERO PUSH2 0x19E0 JUMPI PUSH2 0x19DF PUSH2 0x3FC8 JUMP JUMPDEST JUMPDEST PUSH1 0x3 PUSH1 0x0 DUP5 DUP2 MSTORE PUSH1 0x20 ADD SWAP1 DUP2 MSTORE PUSH1 0x20 ADD PUSH1 0x0 KECCAK256 PUSH1 0x3 ADD PUSH1 0x15 SWAP1 SLOAD SWAP1 PUSH2 0x100 EXP SWAP1 DIV PUSH1 0xFF AND PUSH1 0x2 DUP2 GT ISZERO PUSH2 0x1A16 JUMPI PUSH2 0x1A15 PUSH2 0x3FC8 JUMP JUMPDEST JUMPDEST EQ PUSH2 0x1A56 JUMPI PUSH1 0x40 MLOAD PUSH32 0x8C379A000000000000000000000000000000000000000000000000000000000 DUP2 MSTORE PUSH1 0x4 ADD PUSH2 0x1A4D SWAP1 PUSH2 0x37BD JUMP JUMPDEST PUSH1 0x40 MLOAD DUP1 SWAP2 SUB SWAP1 REVERT JUMPDEST PUSH1 0x0 DUP1 SLOAD SWAP1 PUSH2 0x100 EXP SWAP1 DIV PUSH20 0xFFFFFFFFFFFFFFFFFFFFFFFFFFFFFFFFFFFFFFFF AND PUSH20 0xFFFFFFFFFFFFFFFFFFFFFFFFFFFFFFFFFFFFFFFF AND PUSH4 0x8C749C74 DUP7 DUP7 DUP7 PUSH1 0x40 MLOAD DUP5 PUSH4 0xFFFFFFFF AND PUSH1 0xE0 SHL DUP2 MSTORE PUSH1 0x4 ADD PUSH2 0x1AB3 SWAP4 SWAP3 SWAP2 SWAP1 PUSH2 0x399F JUMP JUMPDEST PUSH1 0x0 PUSH1 0x40 MLOAD DUP1 DUP4 SUB DUP2 PUSH1 0x0 DUP8 DUP1 EXTCODESIZE ISZERO DUP1 ISZERO PUSH2 0x1ACD JUMPI PUSH1 0x0 DUP1 REVERT JUMPDEST POP GAS CALL ISZERO DUP1 ISZERO PUSH2 0x1AE1 JUMPI RETURNDATASIZE PUSH1 0x0 DUP1 RETURNDATACOPY RETURNDATASIZE PUSH1 0x0 REVERT JUMPDEST POP POP POP POP POP POP POP POP POP JUMP JUMPDEST PUSH1 0x0 PUSH1 0x3 PUSH1 0x0 DUP4 DUP2 MSTORE PUSH1 0x20 ADD SWAP1 DUP2 MSTORE PUSH1 0x20 ADD PUSH1 0x0 KECCAK256 PUSH1 0x3 ADD PUSH1 0x0 SWAP1 SLOAD SWAP1 PUSH2 0x100 EXP SWAP1 POP POP SWAP2 SWAP1 POP JUMP JUMPDEST DUP3 PUSH1 0x0 DUP1 PUSH1 0x2 DUP2 GT ISZERO PUSH2 0x1B2B JUMPI PUSH2 0x1B2A PUSH2 0x3FC8 JUMP JUMPDEST JUMPDEST PUSH1 0x3 PUSH1 0x0 DUP5 DUP2 MSTORE PUSH1 0x20 ADD SWAP1 DUP2 MSTORE PUSH1 0x20 ADD PUSH1 0x0 KECCAK256 PUSH1 0x3 ADD PUSH1 0x15 SWAP1 SLOAD SWAP1 PUSH2 0x100 EXP SWAP1 DIV PUSH1 0xFF AND PUSH1 0x2 DUP2 GT ISZERO PUSH2 0x1B61 JUMPI PUSH2 0x1B60 PUSH2 0x3FC8 JUMP JUMPDEST JUMPDEST EQ PUSH2 0x1BA1 JUMPI PUSH1 0x40 MLOAD PUSH32 0x8C379A000000000000000000000000000000000000000000000000000000000 DUP2 MSTORE PUSH1 0x4 ADD PUSH2 0x1B98 SWAP1 PUSH2 0x37BD JUMP JUMPDEST PUSH1 0x40 MLOAD DUP1 SWAP2 SUB SWAP1 REVERT JUMPDEST PUSH1 0x0 DUP1 SLOAD SWAP1 PUSH2 0x100 EXP SWAP1 DIV PUSH20 0xFFFFFFFFFFFFFFFFFFFFFFFFFFFFFFFFFFFFFFFF AND PUSH20 0xFFFFFFFFFFFFFFFFFFFFFFFFFFFFFFFFFFFFFFFF AND PUSH4 0x9C87A5E9 DUP7 DUP7 DUP7 PUSH1 0x40 MLOAD DUP5 PUSH4 0xFFFFFFFF AND PUSH1 0xE0 SHL DUP2 MSTORE PUSH1 0x4 ADD PUSH2 0x1BFE SWAP4 SWAP3 SWAP2 SWAP1 PUSH2 0x3B14 JUMP JUMPDEST PUSH1 0x0 PUSH1 0x40 MLOAD DUP1 DUP4 SUB DUP2 PUSH1 0x0 DUP8 DUP1 EXTCODESIZE ISZERO DUP1 ISZERO PUSH2 0x1C18 JUMPI PUSH1 0x0 DUP1 REVERT JUMPDEST POP GAS CALL ISZERO DUP1 ISZERO PUSH2 0x1C2C JUMPI RETURNDATASIZE PUSH1 0x0 DUP1 RETURNDATACOPY RETURNDATASIZE PUSH1 0x0 REVERT JUMPDEST POP POP POP POP POP POP POP POP POP JUMP JUMPDEST PUSH1 0x2 SLOAD DUP2 JUMP JUMPDEST PUSH1 0x60 DUP4 PUSH1 0x0 DUP1 PUSH1 0x2 DUP2 GT ISZERO PUSH2 0x1C55 JUMPI PUSH2 0x1C54 PUSH2 0x3FC8 JUMP JUMPDEST JUMPDEST PUSH1 0x3 PUSH1 0x0 DUP5 DUP2 MSTORE PUSH1 0x20 ADD SWAP1 DUP2 MSTORE PUSH1 0x20 ADD PUSH1 0x0 KECCAK256 PUSH1 0x3 ADD PUSH1 0x15 SWAP1 SLOAD SWAP1 PUSH2 0x100 EXP SWAP1 DIV PUSH1 0xFF AND PUSH1 0x2 DUP2 GT ISZERO PUSH2 0x1C8B JUMPI PUSH2 0x1C8A PUSH2 0x3FC8 JUMP JUMPDEST JUMPDEST EQ PUSH2 0x1CCB JUMPI PUSH1 0x40 MLOAD PUSH32 0x8C379A000000000000000000000000000000000000000000000000000000000 DUP2 MSTORE PUSH1 0x4 ADD PUSH2 0x1CC2 SWAP1 PUSH2 0x37BD JUMP JUMPDEST PUSH1 0x40 MLOAD DUP1 SWAP2 SUB SWAP1 REVERT JUMPDEST PUSH1 0x0 DUP1 SLOAD SWAP1 PUSH2 0x100 EXP SWAP1 DIV PUSH20 0xFFFFFFFFFFFFFFFFFFFFFFFFFFFFFFFFFFFFFFFF AND PUSH20 0xFFFFFFFFFFFFFFFFFFFFFFFFFFFFFFFFFFFFFFFF AND PUSH4 0xACE731BD DUP8 DUP8 DUP8 PUSH1 0x40 MLOAD DUP5 PUSH4 0xFFFFFFFF AND PUSH1 0xE0 SHL DUP2 MSTORE PUSH1 0x4 ADD PUSH2 0x1D28 SWAP4 SWAP3 SWAP2 SWAP1 PUSH2 0x3B14 JUMP JUMPDEST PUSH1 0x0 PUSH1 0x40 MLOAD DUP1 DUP4 SUB DUP2 DUP7 DUP1 EXTCODESIZE ISZERO DUP1 ISZERO PUSH2 0x1D40 JUMPI PUSH1 0x0 DUP1 REVERT JUMPDEST POP GAS STATICCALL ISZERO DUP1 ISZERO PUSH2 0x1D54 JUMPI RETURNDATASIZE PUSH1 0x0 DUP1 RETURNDATACOPY RETURNDATASIZE PUSH1 0x0 REVERT JUMPDEST POP POP POP POP PUSH1 0x40 MLOAD RETURNDATASIZE PUSH1 0x0 DUP3 RETURNDATACOPY RETURNDATASIZE PUSH1 0x1F NOT PUSH1 0x1F DUP3 ADD AND DUP3 ADD DUP1 PUSH1 0x40 MSTORE POP DUP2 ADD SWAP1 PUSH2 0x1D7D SWAP2 SWAP1 PUSH2 0x2E28 JUMP JUMPDEST POP POP POP SWAP4 SWAP3 POP POP POP JUMP JUMPDEST PUSH1 0x0 DUP1 SLOAD SWAP1 PUSH2 0x100 EXP SWAP1 DIV PUSH20 0xFFFFFFFFFFFFFFFFFFFFFFFFFFFFFFFFFFFFFFFF AND PUSH20 0xFFFFFFFFFFFFFFFFFFFFFFFFFFFFFFFFFFFFFFFF AND PUSH4 0xBBA93C0B DUP8 DUP8 DUP8 DUP8 DUP8 DUP8 PUSH1 0x40 MLOAD DUP8 PUSH4 0xFFFFFFFF AND PUSH1 0xE0 SHL DUP2 MSTORE PUSH1 0x4 ADD PUSH2 0x1DEA SWAP7 SWAP6 SWAP5 SWAP4 SWAP3 SWAP2 SWAP1 PUSH2 0x3B4B JUMP JUMPDEST PUSH1 0x0 PUSH1 0x40 MLOAD DUP1 DUP4 SUB DUP2 PUSH1 0x0 DUP8 DUP1 EXTCODESIZE ISZERO DUP1 ISZERO PUSH2 0x1E04 JUMPI PUSH1 0x0 DUP1 REVERT JUMPDEST POP GAS CALL ISZERO DUP1 ISZERO PUSH2 0x1E18 JUMPI RETURNDATASIZE PUSH1 0x0 DUP1 RETURNDATACOPY RETURNDATASIZE PUSH1 0x0 REVERT JUMPDEST POP POP POP POP POP POP POP POP POP POP JUMP JUMPDEST DUP5 PUSH1 0x0 DUP1 PUSH1 0x2 DUP2 GT ISZERO PUSH2 0x1E3A JUMPI PUSH2 0x1E39 PUSH2 0x3FC8 JUMP JUMPDEST JUMPDEST PUSH1 0x3 PUSH1 0x0 DUP5 DUP2 MSTORE PUSH1 0x20 ADD SWAP1 DUP2 MSTORE PUSH1 0x20 ADD PUSH1 0x0 KECCAK256 PUSH1 0x3 ADD PUSH1 0x15 SWAP1 SLOAD SWAP1 PUSH2 0x100 EXP SWAP1 DIV PUSH1 0xFF AND PUSH1 0x2 DUP2 GT ISZERO PUSH2 0x1E70 JUMPI PUSH2 0x1E6F PUSH2 0x3FC8 JUMP JUMPDEST JUMPDEST EQ PUSH2 0x1EB0 JUMPI PUSH1 0x40 MLOAD PUSH32 0x8C379A000000000000000000000000000000000000000000000000000000000 DUP2 MSTORE PUSH1 0x4 ADD PUSH2 0x1EA7 SWAP1 PUSH2 0x37BD JUMP JUMPDEST PUSH1 0x40 MLOAD DUP1 SWAP2 SUB SWAP1 REVERT JUMPDEST PUSH1 0x0 DUP1 SLOAD SWAP1 PUSH2 0x100 EXP SWAP1 DIV PUSH20 0xFFFFFFFFFFFFFFFFFFFFFFFFFFFFFFFFFFFFFFFF AND PUSH20 0xFFFFFFFFFFFFFFFFFFFFFFFFFFFFFFFFFFFFFFFF AND PUSH4 0xC171BDF7 DUP9 DUP9 DUP9 DUP9 DUP9 PUSH1 0x40 MLOAD DUP7 PUSH4 0xFFFFFFFF AND PUSH1 0xE0 SHL DUP2 MSTORE PUSH1 0x4 ADD PUSH2 0x1F11 SWAP6 SWAP5 SWAP4 SWAP3 SWAP2 SWAP1 PUSH2 0x3BB3 JUMP JUMPDEST PUSH1 0x0 PUSH1 0x40 MLOAD DUP1 DUP4 SUB DUP2 PUSH1 0x0 DUP8 DUP1 EXTCODESIZE ISZERO DUP1 ISZERO PUSH2 0x1F2B JUMPI PUSH1 0x0 DUP1 REVERT JUMPDEST POP GAS CALL ISZERO DUP1 ISZERO PUSH2 0x1F3F JUMPI RETURNDATASIZE PUSH1 0x0 DUP1 RETURNDATACOPY RETURNDATASIZE PUSH1 0x0 REVERT JUMPDEST POP POP POP POP POP POP POP POP POP POP POP JUMP JUMPDEST PUSH1 0x60 DUP3 PUSH1 0x0 DUP1 PUSH1 0x2 DUP2 GT ISZERO PUSH2 0x1F64 JUMPI PUSH2 0x1F63 PUSH2 0x3FC8 JUMP JUMPDEST JUMPDEST PUSH1 0x3 PUSH1 0x0 DUP5 DUP2 MSTORE PUSH1 0x20 ADD SWAP1 DUP2 MSTORE PUSH1 0x20 ADD PUSH1 0x0 KECCAK256 PUSH1 0x3 ADD PUSH1 0x15 SWAP1 SLOAD SWAP1 PUSH2 0x100 EXP SWAP1 DIV PUSH1 0xFF AND PUSH1 0x2 DUP2 GT ISZERO PUSH2 0x1F9A JUMPI PUSH2 0x1F99 PUSH2 0x3FC8 JUMP JUMPDEST JUMPDEST EQ PUSH2 0x1FDA JUMPI PUSH1 0x40 MLOAD PUSH32 0x8C379A000000000000000000000000000000000000000000000000000000000 DUP2 MSTORE PUSH1 0x4 ADD PUSH2 0x1FD1 SWAP1 PUSH2 0x37BD JUMP JUMPDEST PUSH1 0x40 MLOAD DUP1 SWAP2 SUB SWAP1 REVERT JUMPDEST PUSH1 0x0 DUP1 SLOAD SWAP1 PUSH2 0x100 EXP SWAP1 DIV PUSH20 0xFFFFFFFFFFFFFFFFFFFFFFFFFFFFFFFFFFFFFFFF AND PUSH20 0xFFFFFFFFFFFFFFFFFFFFFFFFFFFFFFFFFFFFFFFF AND PUSH4 0xC304CCDC DUP7 DUP7 PUSH1 0x40 MLOAD DUP4 PUSH4 0xFFFFFFFF AND PUSH1 0xE0 SHL DUP2 MSTORE PUSH1 0x4 ADD PUSH2 0x2035 SWAP3 SWAP2 SWAP1 PUSH2 0x3976 JUMP JUMPDEST PUSH1 0x0 PUSH1 0x40 MLOAD DUP1 DUP4 SUB DUP2 DUP7 DUP1 EXTCODESIZE ISZERO DUP1 ISZERO PUSH2 0x204D JUMPI PUSH1 0x0 DUP1 REVERT JUMPDEST POP GAS STATICCALL ISZERO DUP1 ISZERO PUSH2 0x2061 JUMPI RETURNDATASIZE PUSH1 0x0 DUP1 RETURNDATACOPY RETURNDATASIZE PUSH1 0x0 REVERT JUMPDEST POP POP POP POP PUSH1 0x40 MLOAD RETURNDATASIZE PUSH1 0x0 DUP3 RETURNDATACOPY RETURNDATASIZE PUSH1 0x1F NOT PUSH1 0x1F DUP3 ADD AND DUP3 ADD DUP1 PUSH1 0x40 MSTORE POP DUP2 ADD SWAP1 PUSH2 0x208A SWAP2 SWAP1 PUSH2 0x2E28 JUMP JUMPDEST POP POP POP SWAP3 SWAP2 POP POP JUMP JUMPDEST DUP3 PUSH1 0x0 DUP1 PUSH1 0x2 DUP2 GT ISZERO PUSH2 0x20A9 JUMPI PUSH2 0x20A8 PUSH2 0x3FC8 JUMP JUMPDEST JUMPDEST PUSH1 0x3 PUSH1 0x0 DUP5 DUP2 MSTORE PUSH1 0x20 ADD SWAP1 DUP2 MSTORE PUSH1 0x20 ADD PUSH1 0x0 KECCAK256 PUSH1 0x3 ADD PUSH1 0x15 SWAP1 SLOAD SWAP1 PUSH2 0x100 EXP SWAP1 DIV PUSH1 0xFF AND PUSH1 0x2 DUP2 GT ISZERO PUSH2 0x20DF JUMPI PUSH2 0x20DE PUSH2 0x3FC8 JUMP JUMPDEST JUMPDEST EQ PUSH2 0x211F JUMPI PUSH1 0x40 MLOAD PUSH32 0x8C379A000000000000000000000000000000000000000000000000000000000 DUP2 MSTORE PUSH1 0x4 ADD PUSH2 0x2116 SWAP1 PUSH2 0x37BD JUMP JUMPDEST PUSH1 0x40 MLOAD DUP1 SWAP2 SUB SWAP1 REVERT JUMPDEST PUSH1 0x0 DUP1 SLOAD SWAP1 PUSH2 0x100 EXP SWAP1 DIV PUSH20 0xFFFFFFFFFFFFFFFFFFFFFFFFFFFFFFFFFFFFFFFF AND PUSH20 0xFFFFFFFFFFFFFFFFFFFFFFFFFFFFFFFFFFFFFFFF AND PUSH4 0xC3B9E304 DUP7 DUP7 DUP7 PUSH1 0x40 MLOAD DUP5 PUSH4 0xFFFFFFFF AND PUSH1 0xE0 SHL DUP2 MSTORE PUSH1 0x4 ADD PUSH2 0x217C SWAP4 SWAP3 SWAP2 SWAP1 PUSH2 0x3B14 JUMP JUMPDEST PUSH1 0x0 PUSH1 0x40 MLOAD DUP1 DUP4 SUB DUP2 PUSH1 0x0 DUP8 DUP1 EXTCODESIZE ISZERO DUP1 ISZERO PUSH2 0x2196 JUMPI PUSH1 0x0 DUP1 REVERT JUMPDEST POP GAS CALL ISZERO DUP1 ISZERO PUSH2 0x21AA JUMPI RETURNDATASIZE PUSH1 0x0 DUP1 RETURNDATACOPY RETURNDATASIZE PUSH1 0x0 REVERT JUMPDEST POP POP POP POP POP POP POP POP POP JUMP JUMPDEST DUP3 PUSH1 0x0 DUP1 PUSH1 0x2 DUP2 GT ISZERO PUSH2 0x21CB JUMPI PUSH2 0x21CA PUSH2 0x3FC8 JUMP JUMPDEST JUMPDEST PUSH1 0x3 PUSH1 0x0 DUP5 DUP2 MSTORE PUSH1 0x20 ADD SWAP1 DUP2 MSTORE PUSH1 0x20 ADD PUSH1 0x0 KECCAK256 PUSH1 0x3 ADD PUSH1 0x15 SWAP1 SLOAD SWAP1 PUSH2 0x100 EXP SWAP1 DIV PUSH1 0xFF AND PUSH1 0x2 DUP2 GT ISZERO PUSH2 0x2201 JUMPI PUSH2 0x2200 PUSH2 0x3FC8 JUMP JUMPDEST JUMPDEST EQ PUSH2 0x2241 JUMPI PUSH1 0x40 MLOAD PUSH32 0x8C379A000000000000000000000000000000000000000000000000000000000 DUP2 MSTORE PUSH1 0x4 ADD PUSH2 0x2238 SWAP1 PUSH2 0x37BD JUMP JUMPDEST PUSH1 0x40 MLOAD DUP1 SWAP2 SUB SWAP1 REVERT JUMPDEST PUSH1 0x0 DUP1 SLOAD SWAP1 PUSH2 0x100 EXP SWAP1 DIV PUSH20 0xFFFFFFFFFFFFFFFFFFFFFFFFFFFFFFFFFFFFFFFF AND PUSH20 0xFFFFFFFFFFFFFFFFFFFFFFFFFFFFFFFFFFFFFFFF AND PUSH4 0xC77E8EC5 DUP7 DUP7 DUP7 PUSH1 0x40 MLOAD DUP5 PUSH4 0xFFFFFFFF AND PUSH1 0xE0 SHL DUP2 MSTORE PUSH1 0x4 ADD PUSH2 0x229E SWAP4 SWAP3 SWAP2 SWAP1 PUSH2 0x399F JUMP JUMPDEST PUSH1 0x0 PUSH1 0x40 MLOAD DUP1 DUP4 SUB DUP2 PUSH1 0x0 DUP8 DUP1 EXTCODESIZE ISZERO DUP1 ISZERO PUSH2 0x22B8 JUMPI PUSH1 0x0 DUP1 REVERT JUMPDEST POP GAS CALL ISZERO DUP1 ISZERO PUSH2 0x22CC JUMPI RETURNDATASIZE PUSH1 0x0 DUP1 RETURNDATACOPY RETURNDATASIZE PUSH1 0x0 REVERT JUMPDEST POP POP POP POP POP POP POP POP POP JUMP JUMPDEST PUSH1 0x0 DUP1 PUSH1 0x0 SWAP1 SLOAD SWAP1 PUSH2 0x100 EXP SWAP1 DIV PUSH20 0xFFFFFFFFFFFFFFFFFFFFFFFFFFFFFFFFFFFFFFFF AND PUSH20 0xFFFFFFFFFFFFFFFFFFFFFFFFFFFFFFFFFFFFFFFF AND PUSH4 0xCCEE835B DUP5 DUP5 PUSH1 0x40 MLOAD DUP4 PUSH4 0xFFFFFFFF AND PUSH1 0xE0 SHL DUP2 MSTORE PUSH1 0x4 ADD PUSH2 0x2335 SWAP3 SWAP2 SWAP1 PUSH2 0x3976 JUMP JUMPDEST PUSH1 0x20 PUSH1 0x40 MLOAD DUP1 DUP4 SUB DUP2 DUP7 DUP1 EXTCODESIZE ISZERO DUP1 ISZERO PUSH2 0x234D JUMPI PUSH1 0x0 DUP1 REVERT JUMPDEST POP GAS STATICCALL ISZERO DUP1 ISZERO PUSH2 0x2361 JUMPI RETURNDATASIZE PUSH1 0x0 DUP1 RETURNDATACOPY RETURNDATASIZE PUSH1 0x0 REVERT JUMPDEST POP POP POP POP PUSH1 0x40 MLOAD RETURNDATASIZE PUSH1 0x1F NOT PUSH1 0x1F DUP3 ADD AND DUP3 ADD DUP1 PUSH1 0x40 MSTORE POP DUP2 ADD SWAP1 PUSH2 0x2385 SWAP2 SWAP1 PUSH2 0x2F29 JUMP JUMPDEST SWAP1 POP SWAP3 SWAP2 POP POP JUMP JUMPDEST DUP5 PUSH1 0x0 DUP1 PUSH1 0x2 DUP2 GT ISZERO PUSH2 0x23A3 JUMPI PUSH2 0x23A2 PUSH2 0x3FC8 JUMP JUMPDEST JUMPDEST PUSH1 0x3 PUSH1 0x0 DUP5 DUP2 MSTORE PUSH1 0x20 ADD SWAP1 DUP2 MSTORE PUSH1 0x20 ADD PUSH1 0x0 KECCAK256 PUSH1 0x3 ADD PUSH1 0x15 SWAP1 SLOAD SWAP1 PUSH2 0x100 EXP SWAP1 DIV PUSH1 0xFF AND PUSH1 0x2 DUP2 GT ISZERO PUSH2 0x23D9 JUMPI PUSH2 0x23D8 PUSH2 0x3FC8 JUMP JUMPDEST JUMPDEST EQ PUSH2 0x2419 JUMPI PUSH1 0x40 MLOAD PUSH32 0x8C379A000000000000000000000000000000000000000000000000000000000 DUP2 MSTORE PUSH1 0x4 ADD PUSH2 0x2410 SWAP1 PUSH2 0x37BD JUMP JUMPDEST PUSH1 0x40 MLOAD DUP1 SWAP2 SUB SWAP1 REVERT JUMPDEST PUSH1 0x0 DUP1 SLOAD SWAP1 PUSH2 0x100 EXP SWAP1 DIV PUSH20 0xFFFFFFFFFFFFFFFFFFFFFFFFFFFFFFFFFFFFFFFF AND PUSH20 0xFFFFFFFFFFFFFFFFFFFFFFFFFFFFFFFFFFFFFFFF AND PUSH4 0xD1E992A7 DUP9 DUP9 DUP9 DUP9 DUP9 PUSH1 0x40 MLOAD DUP7 PUSH4 0xFFFFFFFF AND PUSH1 0xE0 SHL DUP2 MSTORE PUSH1 0x4 ADD PUSH2 0x247A SWAP6 SWAP5 SWAP4 SWAP3 SWAP2 SWAP1 PUSH2 0x3C4B JUMP JUMPDEST PUSH1 0x0 PUSH1 0x40 MLOAD DUP1 DUP4 SUB DUP2 PUSH1 0x0 DUP8 DUP1 EXTCODESIZE ISZERO DUP1 ISZERO PUSH2 0x2494 JUMPI PUSH1 0x0 DUP1 REVERT JUMPDEST POP GAS CALL ISZERO DUP1 ISZERO PUSH2 0x24A8 JUMPI RETURNDATASIZE PUSH1 0x0 DUP1 RETURNDATACOPY RETURNDATASIZE PUSH1 0x0 REVERT JUMPDEST POP POP POP POP POP POP POP POP POP POP POP JUMP JUMPDEST DUP4 PUSH1 0x0 DUP1 PUSH1 0x2 DUP2 GT ISZERO PUSH2 0x24CB JUMPI PUSH2 0x24CA PUSH2 0x3FC8 JUMP JUMPDEST JUMPDEST PUSH1 0x3 PUSH1 0x0 DUP5 DUP2 MSTORE PUSH1 0x20 ADD SWAP1 DUP2 MSTORE PUSH1 0x20 ADD PUSH1 0x0 KECCAK256 PUSH1 0x3 ADD PUSH1 0x15 SWAP1 SLOAD SWAP1 PUSH2 0x100 EXP SWAP1 DIV PUSH1 0xFF AND PUSH1 0x2 DUP2 GT ISZERO PUSH2 0x2501 JUMPI PUSH2 0x2500 PUSH2 0x3FC8 JUMP JUMPDEST JUMPDEST EQ PUSH2 0x2541 JUMPI PUSH1 0x40 MLOAD PUSH32 0x8C379A000000000000000000000000000000000000000000000000000000000 DUP2 MSTORE PUSH1 0x4 ADD PUSH2 0x2538 SWAP1 PUSH2 0x37BD JUMP JUMPDEST PUSH1 0x40 MLOAD DUP1 SWAP2 SUB SWAP1 REVERT JUMPDEST PUSH1 0x0 DUP1 SLOAD SWAP1 PUSH2 0x100 EXP SWAP1 DIV PUSH20 0xFFFFFFFFFFFFFFFFFFFFFFFFFFFFFFFFFFFFFFFF AND PUSH20 0xFFFFFFFFFFFFFFFFFFFFFFFFFFFFFFFFFFFFFFFF AND PUSH4 0xD3B491E2 DUP8 DUP8 DUP8 DUP8 PUSH1 0x40 MLOAD DUP6 PUSH4 0xFFFFFFFF AND PUSH1 0xE0 SHL DUP2 MSTORE PUSH1 0x4 ADD PUSH2 0x25A0 SWAP5 SWAP4 SWAP3 SWAP2 SWAP1 PUSH2 0x3C06 JUMP JUMPDEST PUSH1 0x0 PUSH1 0x40 MLOAD DUP1 DUP4 SUB DUP2 PUSH1 0x0 DUP8 DUP1 EXTCODESIZE ISZERO DUP1 ISZERO PUSH2 0x25BA JUMPI PUSH1 0x0 DUP1 REVERT JUMPDEST POP GAS CALL ISZERO DUP1 ISZERO PUSH2 0x25CE JUMPI RETURNDATASIZE PUSH1 0x0 DUP1 RETURNDATACOPY RETURNDATASIZE PUSH1 0x0 REVERT JUMPDEST POP POP POP POP POP POP POP POP POP POP JUMP JUMPDEST DUP4 PUSH1 0x0 DUP1 PUSH1 0x2 DUP2 GT ISZERO PUSH2 0x25F0 JUMPI PUSH2 0x25EF PUSH2 0x3FC8 JUMP JUMPDEST JUMPDEST PUSH1 0x3 PUSH1 0x0 DUP5 DUP2 MSTORE PUSH1 0x20 ADD SWAP1 DUP2 MSTORE PUSH1 0x20 ADD PUSH1 0x0 KECCAK256 PUSH1 0x3 ADD PUSH1 0x15 SWAP1 SLOAD SWAP1 PUSH2 0x100 EXP SWAP1 DIV PUSH1 0xFF AND PUSH1 0x2 DUP2 GT ISZERO PUSH2 0x2626 JUMPI PUSH2 0x2625 PUSH2 0x3FC8 JUMP JUMPDEST JUMPDEST EQ PUSH2 0x2666 JUMPI PUSH1 0x40 MLOAD PUSH32 0x8C379A000000000000000000000000000000000000000000000000000000000 DUP2 MSTORE PUSH1 0x4 ADD PUSH2 0x265D SWAP1 PUSH2 0x37BD JUMP JUMPDEST PUSH1 0x40 MLOAD DUP1 SWAP2 SUB SWAP1 REVERT JUMPDEST PUSH1 0x0 DUP1 SLOAD SWAP1 PUSH2 0x100 EXP SWAP1 DIV PUSH20 0xFFFFFFFFFFFFFFFFFFFFFFFFFFFFFFFFFFFFFFFF AND PUSH20 0xFFFFFFFFFFFFFFFFFFFFFFFFFFFFFFFFFFFFFFFF AND PUSH4 0xDDB2FF1F DUP8 DUP8 DUP8 DUP8 PUSH1 0x40 MLOAD DUP6 PUSH4 0xFFFFFFFF AND PUSH1 0xE0 SHL DUP2 MSTORE PUSH1 0x4 ADD PUSH2 0x26C5 SWAP5 SWAP4 SWAP3 SWAP2 SWAP1 PUSH2 0x3A0D JUMP JUMPDEST PUSH1 0x0 PUSH1 0x40 MLOAD DUP1 DUP4 SUB DUP2 PUSH1 0x0 DUP8 DUP1 EXTCODESIZE ISZERO DUP1 ISZERO PUSH2 0x26DF JUMPI PUSH1 0x0 DUP1 REVERT JUMPDEST POP GAS CALL ISZERO DUP1 ISZERO PUSH2 0x26F3 JUMPI RETURNDATASIZE PUSH1 0x0 DUP1 RETURNDATACOPY RETURNDATASIZE PUSH1 0x0 REVERT JUMPDEST POP POP POP POP POP POP POP POP POP POP JUMP JUMPDEST DUP6 DUP2 DUP1 PUSH20 0xFFFFFFFFFFFFFFFFFFFFFFFFFFFFFFFFFFFFFFFF AND PUSH1 0x3 PUSH1 0x0 DUP5 DUP2 MSTORE PUSH1 0x20 ADD SWAP1 DUP2 MSTORE PUSH1 0x20 ADD PUSH1 0x0 KECCAK256 PUSH1 0x3 ADD PUSH1 0x0 SWAP1 SLOAD SWAP1 PUSH2 0x100 EXP SWAP1 DIV PUSH20 0xFFFFFFFFFFFFFFFFFFFFFFFFFFFFFFFFFFFFFFFF AND PUSH20 0xFFFFFFFFFFFFFFFFFFFFFFFFFFFFFFFFFFFFFFFF AND EQ PUSH2 0x27A5 JUMPI PUSH1 0x40 MLOAD PUSH32 0x8C379A000000000000000000000000000000000000000000000000000000000 DUP2 MSTORE PUSH1 0x4 ADD PUSH2 0x279C SWAP1 PUSH2 0x37DD JUMP JUMPDEST PUSH1 0x40 MLOAD DUP1 SWAP2 SUB SWAP1 REVERT JUMPDEST DUP8 PUSH1 0x0 DUP1 PUSH1 0x2 DUP2 GT ISZERO PUSH2 0x27BB JUMPI PUSH2 0x27BA PUSH2 0x3FC8 JUMP JUMPDEST JUMPDEST PUSH1 0x3 PUSH1 0x0 DUP5 DUP2 MSTORE PUSH1 0x20 ADD SWAP1 DUP2 MSTORE PUSH1 0x20 ADD PUSH1 0x0 KECCAK256 PUSH1 0x3 ADD PUSH1 0x15 SWAP1 SLOAD SWAP1 PUSH2 0x100 EXP SWAP1 DIV PUSH1 0xFF AND PUSH1 0x2 DUP2 GT ISZERO PUSH2 0x27F1 JUMPI PUSH2 0x27F0 PUSH2 0x3FC8 JUMP JUMPDEST JUMPDEST EQ PUSH2 0x2831 JUMPI PUSH1 0x40 MLOAD PUSH32 0x8C379A000000000000000000000000000000000000000000000000000000000 DUP2 MSTORE PUSH1 0x4 ADD PUSH2 0x2828 SWAP1 PUSH2 0x37BD JUMP JUMPDEST PUSH1 0x40 MLOAD DUP1 SWAP2 SUB SWAP1 REVERT JUMPDEST PUSH1 0x0 DUP1 SLOAD SWAP1 PUSH2 0x100 EXP SWAP1 DIV PUSH20 0xFFFFFFFFFFFFFFFFFFFFFFFFFFFFFFFFFFFFFFFF AND PUSH20 0xFFFFFFFFFFFFFFFFFFFFFFFFFFFFFFFFFFFFFFFF AND PUSH4 0xE0D2B4BB DUP12 DUP12 DUP12 DUP12 DUP12 DUP12 PUSH1 0x40 MLOAD DUP8 PUSH4 0xFFFFFFFF AND PUSH1 0xE0 SHL DUP2 MSTORE PUSH1 0x4 ADD PUSH2 0x2894 SWAP7 SWAP6 SWAP5 SWAP4 SWAP3 SWAP2 SWAP1 PUSH2 0x3AA5 JUMP JUMPDEST PUSH1 0x0 PUSH1 0x40 MLOAD DUP1 DUP4 SUB DUP2 PUSH1 0x0 DUP8 DUP1 EXTCODESIZE ISZERO DUP1 ISZERO PUSH2 0x28AE JUMPI PUSH1 0x0 DUP1 REVERT JUMPDEST POP GAS CALL ISZERO DUP1 ISZERO PUSH2 0x28C2 JUMPI RETURNDATASIZE PUSH1 0x0 DUP1 RETURNDATACOPY RETURNDATASIZE PUSH1 0x0 REVERT JUMPDEST POP POP POP POP POP POP POP POP POP POP POP POP POP POP JUMP JUMPDEST DUP7 PUSH1 0x0 DUP1 PUSH1 0x2 DUP2 GT ISZERO PUSH2 0x28E8 JUMPI PUSH2 0x28E7 PUSH2 0x3FC8 JUMP JUMPDEST JUMPDEST PUSH1 0x3 PUSH1 0x0 DUP5 DUP2 MSTORE PUSH1 0x20 ADD SWAP1 DUP2 MSTORE PUSH1 0x20 ADD PUSH1 0x0 KECCAK256 PUSH1 0x3 ADD PUSH1 0x15 SWAP1 SLOAD SWAP1 PUSH2 0x100 EXP SWAP1 DIV PUSH1 0xFF AND PUSH1 0x2 DUP2 GT ISZERO PUSH2 0x291E JUMPI PUSH2 0x291D PUSH2 0x3FC8 JUMP JUMPDEST JUMPDEST EQ PUSH2 0x295E JUMPI PUSH1 0x40 MLOAD PUSH32 0x8C379A000000000000000000000000000000000000000000000000000000000 DUP2 MSTORE PUSH1 0x4 ADD PUSH2 0x2955 SWAP1 PUSH2 0x37BD JUMP JUMPDEST PUSH1 0x40 MLOAD DUP1 SWAP2 SUB SWAP1 REVERT JUMPDEST PUSH1 0x0 DUP1 SLOAD SWAP1 PUSH2 0x100 EXP SWAP1 DIV PUSH20 0xFFFFFFFFFFFFFFFFFFFFFFFFFFFFFFFFFFFFFFFF AND PUSH20 0xFFFFFFFFFFFFFFFFFFFFFFFFFFFFFFFFFFFFFFFF AND PUSH4 0xE731AC45 DUP11 DUP11 DUP11 DUP11 DUP11 DUP11 DUP11 PUSH1 0x40 MLOAD DUP9 PUSH4 0xFFFFFFFF AND PUSH1 0xE0 SHL DUP2 MSTORE PUSH1 0x4 ADD PUSH2 0x29C3 SWAP8 SWAP7 SWAP6 SWAP5 SWAP4 SWAP3 SWAP2 SWAP1 PUSH2 0x3CAC JUMP JUMPDEST PUSH1 0x0 PUSH1 0x40 MLOAD DUP1 DUP4 SUB DUP2 PUSH1 0x0 DUP8 DUP1 EXTCODESIZE ISZERO DUP1 ISZERO PUSH2 0x29DD JUMPI PUSH1 0x0 DUP1 REVERT JUMPDEST POP GAS CALL ISZERO DUP1 ISZERO PUSH2 0x29F1 JUMPI RETURNDATASIZE PUSH1 0x0 DUP1 RETURNDATACOPY RETURNDATASIZE PUSH1 0x0 REVERT JUMPDEST POP POP POP POP POP POP POP POP POP POP POP POP POP JUMP JUMPDEST DUP5 CALLER DUP1 PUSH20 0xFFFFFFFFFFFFFFFFFFFFFFFFFFFFFFFFFFFFFFFF AND PUSH1 0x3 PUSH1 0x0 DUP5 DUP2 MSTORE PUSH1 0x20 ADD SWAP1 DUP2 MSTORE PUSH1 0x20 ADD PUSH1 0x0 KECCAK256 PUSH1 0x3 ADD PUSH1 0x0 SWAP1 SLOAD SWAP1 PUSH2 0x100 EXP SWAP1 DIV PUSH20 0xFFFFFFFFFFFFFFFFFFFFFFFFFFFFFFFFFFFFFFFF AND PUSH20 0xFFFFFFFFFFFFFFFFFFFFFFFFFFFFFFFFFFFFFFFF AND EQ PUSH2 0x2AA6 JUMPI PUSH1 0x40 MLOAD PUSH32 0x8C379A000000000000000000000000000000000000000000000000000000000 DUP2 MSTORE PUSH1 0x4 ADD PUSH2 0x2A9D SWAP1 PUSH2 0x37DD JUMP JUMPDEST PUSH1 0x40 MLOAD DUP1 SWAP2 SUB SWAP1 REVERT JUMPDEST DUP7 PUSH1 0x0 DUP1 PUSH1 0x2 DUP2 GT ISZERO PUSH2 0x2ABC JUMPI PUSH2 0x2ABB PUSH2 0x3FC8 JUMP JUMPDEST JUMPDEST PUSH1 0x3 PUSH1 0x0 DUP5 DUP2 MSTORE PUSH1 0x20 ADD SWAP1 DUP2 MSTORE PUSH1 0x20 ADD PUSH1 0x0 KECCAK256 PUSH1 0x3 ADD PUSH1 0x15 SWAP1 SLOAD SWAP1 PUSH2 0x100 EXP SWAP1 DIV PUSH1 0xFF AND PUSH1 0x2 DUP2 GT ISZERO PUSH2 0x2AF2 JUMPI PUSH2 0x2AF1 PUSH2 0x3FC8 JUMP JUMPDEST JUMPDEST EQ PUSH2 0x2B32 JUMPI PUSH1 0x40 MLOAD PUSH32 0x8C379A000000000000000000000000000000000000000000000000000000000 DUP2 MSTORE PUSH1 0x4 ADD PUSH2 0x2B29 SWAP1 PUSH2 0x37BD JUMP JUMPDEST PUSH1 0x40 MLOAD DUP1 SWAP2 SUB SWAP1 REVERT JUMPDEST PUSH1 0x0 DUP1 SLOAD SWAP1 PUSH2 0x100 EXP SWAP1 DIV PUSH20 0xFFFFFFFFFFFFFFFFFFFFFFFFFFFFFFFFFFFFFFFF AND PUSH20 0xFFFFFFFFFFFFFFFFFFFFFFFFFFFFFFFFFFFFFFFF AND PUSH4 0xFD23C4BB DUP11 DUP11 DUP11 DUP11 DUP11 PUSH1 0x40 MLOAD DUP7 PUSH4 0xFFFFFFFF AND PUSH1 0xE0 SHL DUP2 MSTORE PUSH1 0x4 ADD PUSH2 0x2B93 SWAP6 SWAP5 SWAP4 SWAP3 SWAP2 SWAP1 PUSH2 0x3C4B JUMP JUMPDEST PUSH1 0x0 PUSH1 0x40 MLOAD DUP1 DUP4 SUB DUP2 PUSH1 0x0 DUP8 DUP1 EXTCODESIZE ISZERO DUP1 ISZERO PUSH2 0x2BAD JUMPI PUSH1 0x0 DUP1 REVERT JUMPDEST POP GAS CALL ISZERO DUP1 ISZERO PUSH2 0x2BC1 JUMPI RETURNDATASIZE PUSH1 0x0 DUP1 RETURNDATACOPY RETURNDATASIZE PUSH1 0x0 REVERT JUMPDEST POP POP POP POP POP POP POP POP POP POP POP POP POP JUMP JUMPDEST DUP1 PUSH1 0x3 PUSH1 0x0 DUP5 DUP2 MSTORE PUSH1 0x20 ADD SWAP1 DUP2 MSTORE PUSH1 0x20 ADD PUSH1 0x0 KECCAK256 PUSH1 0x3 ADD PUSH1 0x15 PUSH2 0x100 EXP DUP2 SLOAD DUP2 PUSH1 0xFF MUL NOT AND SWAP1 DUP4 PUSH1 0x2 DUP2 GT ISZERO PUSH2 0x2C09 JUMPI PUSH2 0x2C08 PUSH2 0x3FC8 JUMP JUMPDEST JUMPDEST MUL OR SWAP1 SSTORE POP POP POP JUMP JUMPDEST DUP3 DUP1 SLOAD PUSH2 0x2C1E SWAP1 PUSH2 0x3EED JUMP JUMPDEST SWAP1 PUSH1 0x0 MSTORE PUSH1 0x20 PUSH1 0x0 KECCAK256 SWAP1 PUSH1 0x1F ADD PUSH1 0x20 SWAP1 DIV DUP2 ADD SWAP3 DUP3 PUSH2 0x2C40 JUMPI PUSH1 0x0 DUP6 SSTORE PUSH2 0x2C87 JUMP JUMPDEST DUP3 PUSH1 0x1F LT PUSH2 0x2C59 JUMPI DUP1 MLOAD PUSH1 0xFF NOT AND DUP4 DUP1 ADD OR DUP6 SSTORE PUSH2 0x2C87 JUMP JUMPDEST DUP3 DUP1 ADD PUSH1 0x1 ADD DUP6 SSTORE DUP3 ISZERO PUSH2 0x2C87 JUMPI SWAP2 DUP3 ADD JUMPDEST DUP3 DUP2 GT ISZERO PUSH2 0x2C86 JUMPI DUP3 MLOAD DUP3 SSTORE SWAP2 PUSH1 0x20 ADD SWAP2 SWAP1 PUSH1 0x1 ADD SWAP1 PUSH2 0x2C6B JUMP JUMPDEST JUMPDEST POP SWAP1 POP PUSH2 0x2C94 SWAP2 SWAP1 PUSH2 0x2C98 JUMP JUMPDEST POP SWAP1 JUMP JUMPDEST JUMPDEST DUP1 DUP3 GT ISZERO PUSH2 0x2CB1 JUMPI PUSH1 0x0 DUP2 PUSH1 0x0 SWAP1 SSTORE POP PUSH1 0x1 ADD PUSH2 0x2C99 JUMP JUMPDEST POP SWAP1 JUMP JUMPDEST PUSH1 0x0 PUSH2 0x2CC8 PUSH2 0x2CC3 DUP5 PUSH2 0x3D4E JUMP JUMPDEST PUSH2 0x3D29 JUMP JUMPDEST SWAP1 POP DUP3 DUP2 MSTORE PUSH1 0x20 DUP2 ADD DUP5 DUP5 DUP5 ADD GT ISZERO PUSH2 0x2CE4 JUMPI PUSH2 0x2CE3 PUSH2 0x405A JUMP JUMPDEST JUMPDEST PUSH2 0x2CEF DUP5 DUP3 DUP6 PUSH2 0x3E81 JUMP JUMPDEST POP SWAP4 SWAP3 POP POP POP JUMP JUMPDEST PUSH1 0x0 PUSH2 0x2D0A PUSH2 0x2D05 DUP5 PUSH2 0x3D4E JUMP JUMPDEST PUSH2 0x3D29 JUMP JUMPDEST SWAP1 POP DUP3 DUP2 MSTORE PUSH1 0x20 DUP2 ADD DUP5 DUP5 DUP5 ADD GT ISZERO PUSH2 0x2D26 JUMPI PUSH2 0x2D25 PUSH2 0x405A JUMP JUMPDEST JUMPDEST PUSH2 0x2D31 DUP5 DUP3 DUP6 PUSH2 0x3E90 JUMP JUMPDEST POP SWAP4 SWAP3 POP POP POP JUMP JUMPDEST PUSH1 0x0 DUP2 CALLDATALOAD SWAP1 POP PUSH2 0x2D48 DUP2 PUSH2 0x41F0 JUMP JUMPDEST SWAP3 SWAP2 POP POP JUMP JUMPDEST PUSH1 0x0 DUP2 CALLDATALOAD SWAP1 POP PUSH2 0x2D5D DUP2 PUSH2 0x4207 JUMP JUMPDEST SWAP3 SWAP2 POP POP JUMP JUMPDEST PUSH1 0x0 DUP2 CALLDATALOAD SWAP1 POP PUSH2 0x2D72 DUP2 PUSH2 0x421E JUMP JUMPDEST SWAP3 SWAP2 POP POP JUMP JUMPDEST PUSH1 0x0 DUP2 CALLDATALOAD SWAP1 POP PUSH2 0x2D87 DUP2 PUSH2 0x4235 JUMP JUMPDEST SWAP3 SWAP2 POP POP JUMP JUMPDEST PUSH1 0x0 DUP3 PUSH1 0x1F DUP4 ADD SLT PUSH2 0x2DA2 JUMPI PUSH2 0x2DA1 PUSH2 0x4055 JUMP JUMPDEST JUMPDEST DUP2 CALLDATALOAD PUSH2 0x2DB2 DUP5 DUP3 PUSH1 0x20 DUP7 ADD PUSH2 0x2CB5 JUMP JUMPDEST SWAP2 POP POP SWAP3 SWAP2 POP POP JUMP JUMPDEST PUSH1 0x0 DUP3 PUSH1 0x1F DUP4 ADD SLT PUSH2 0x2DD0 JUMPI PUSH2 0x2DCF PUSH2 0x4055 JUMP JUMPDEST JUMPDEST DUP2 MLOAD PUSH2 0x2DE0 DUP5 DUP3 PUSH1 0x20 DUP7 ADD PUSH2 0x2CF7 JUMP JUMPDEST SWAP2 POP POP SWAP3 SWAP2 POP POP JUMP JUMPDEST PUSH1 0x0 DUP2 CALLDATALOAD SWAP1 POP PUSH2 0x2DF8 DUP2 PUSH2 0x4245 JUMP JUMPDEST SWAP3 SWAP2 POP POP JUMP JUMPDEST PUSH1 0x0 DUP2 MLOAD SWAP1 POP PUSH2 0x2E0D DUP2 PUSH2 0x4245 JUMP JUMPDEST SWAP3 SWAP2 POP POP JUMP JUMPDEST PUSH1 0x0 DUP2 CALLDATALOAD SWAP1 POP PUSH2 0x2E22 DUP2 PUSH2 0x425C JUMP JUMPDEST SWAP3 SWAP2 POP POP JUMP JUMPDEST PUSH1 0x0 PUSH1 0x20 DUP3 DUP5 SUB SLT ISZERO PUSH2 0x2E3E JUMPI PUSH2 0x2E3D PUSH2 0x4064 JUMP JUMPDEST JUMPDEST PUSH1 0x0 DUP3 ADD MLOAD PUSH8 0xFFFFFFFFFFFFFFFF DUP2 GT ISZERO PUSH2 0x2E5C JUMPI PUSH2 0x2E5B PUSH2 0x405F JUMP JUMPDEST JUMPDEST PUSH2 0x2E68 DUP5 DUP3 DUP6 ADD PUSH2 0x2DBB JUMP JUMPDEST SWAP2 POP POP SWAP3 SWAP2 POP POP JUMP JUMPDEST PUSH1 0x0 DUP1 PUSH1 0x0 PUSH1 0x60 DUP5 DUP7 SUB SLT ISZERO PUSH2 0x2E8A JUMPI PUSH2 0x2E89 PUSH2 0x4064 JUMP JUMPDEST JUMPDEST PUSH1 0x0 DUP5 ADD CALLDATALOAD PUSH8 0xFFFFFFFFFFFFFFFF DUP2 GT ISZERO PUSH2 0x2EA8 JUMPI PUSH2 0x2EA7 PUSH2 0x405F JUMP JUMPDEST JUMPDEST PUSH2 0x2EB4 DUP7 DUP3 DUP8 ADD PUSH2 0x2D8D JUMP JUMPDEST SWAP4 POP POP PUSH1 0x20 DUP5 ADD CALLDATALOAD PUSH8 0xFFFFFFFFFFFFFFFF DUP2 GT ISZERO PUSH2 0x2ED5 JUMPI PUSH2 0x2ED4 PUSH2 0x405F JUMP JUMPDEST JUMPDEST PUSH2 0x2EE1 DUP7 DUP3 DUP8 ADD PUSH2 0x2D8D JUMP JUMPDEST SWAP3 POP POP PUSH1 0x40 PUSH2 0x2EF2 DUP7 DUP3 DUP8 ADD PUSH2 0x2D39 JUMP JUMPDEST SWAP2 POP POP SWAP3 POP SWAP3 POP SWAP3 JUMP JUMPDEST PUSH1 0x0 PUSH1 0x20 DUP3 DUP5 SUB SLT ISZERO PUSH2 0x2F12 JUMPI PUSH2 0x2F11 PUSH2 0x4064 JUMP JUMPDEST JUMPDEST PUSH1 0x0 PUSH2 0x2F20 DUP5 DUP3 DUP6 ADD PUSH2 0x2DE9 JUMP JUMPDEST SWAP2 POP POP SWAP3 SWAP2 POP POP JUMP JUMPDEST PUSH1 0x0 PUSH1 0x20 DUP3 DUP5 SUB SLT ISZERO PUSH2 0x2F3F JUMPI PUSH2 0x2F3E PUSH2 0x4064 JUMP JUMPDEST JUMPDEST PUSH1 0x0 PUSH2 0x2F4D DUP5 DUP3 DUP6 ADD PUSH2 0x2DFE JUMP JUMPDEST SWAP2 POP POP SWAP3 SWAP2 POP POP JUMP JUMPDEST PUSH1 0x0 DUP1 PUSH1 0x0 PUSH1 0x60 DUP5 DUP7 SUB SLT ISZERO PUSH2 0x2F6F JUMPI PUSH2 0x2F6E PUSH2 0x4064 JUMP JUMPDEST JUMPDEST PUSH1 0x0 PUSH2 0x2F7D DUP7 DUP3 DUP8 ADD PUSH2 0x2DE9 JUMP JUMPDEST SWAP4 POP POP PUSH1 0x20 DUP5 ADD CALLDATALOAD PUSH8 0xFFFFFFFFFFFFFFFF DUP2 GT ISZERO PUSH2 0x2F9E JUMPI PUSH2 0x2F9D PUSH2 0x405F JUMP JUMPDEST JUMPDEST PUSH2 0x2FAA DUP7 DUP3 DUP8 ADD PUSH2 0x2D8D JUMP JUMPDEST SWAP3 POP POP PUSH1 0x40 DUP5 ADD CALLDATALOAD PUSH8 0xFFFFFFFFFFFFFFFF DUP2 GT ISZERO PUSH2 0x2FCB JUMPI PUSH2 0x2FCA PUSH2 0x405F JUMP JUMPDEST JUMPDEST PUSH2 0x2FD7 DUP7 DUP3 DUP8 ADD PUSH2 0x2D8D JUMP JUMPDEST SWAP2 POP POP SWAP3 POP SWAP3 POP SWAP3 JUMP JUMPDEST PUSH1 0x0 DUP1 PUSH1 0x40 DUP4 DUP6 SUB SLT ISZERO PUSH2 0x2FF8 JUMPI PUSH2 0x2FF7 PUSH2 0x4064 JUMP JUMPDEST JUMPDEST PUSH1 0x0 PUSH2 0x3006 DUP6 DUP3 DUP7 ADD PUSH2 0x2DE9 JUMP JUMPDEST SWAP3 POP POP PUSH1 0x20 PUSH2 0x3017 DUP6 DUP3 DUP7 ADD PUSH2 0x2DE9 JUMP JUMPDEST SWAP2 POP POP SWAP3 POP SWAP3 SWAP1 POP JUMP JUMPDEST PUSH1 0x0 DUP1 PUSH1 0x0 PUSH1 0x60 DUP5 DUP7 SUB SLT ISZERO PUSH2 0x303A JUMPI PUSH2 0x3039 PUSH2 0x4064 JUMP JUMPDEST JUMPDEST PUSH1 0x0 PUSH2 0x3048 DUP7 DUP3 DUP8 ADD PUSH2 0x2DE9 JUMP JUMPDEST SWAP4 POP POP PUSH1 0x20 PUSH2 0x3059 DUP7 DUP3 DUP8 ADD PUSH2 0x2DE9 JUMP JUMPDEST SWAP3 POP POP PUSH1 0x40 PUSH2 0x306A DUP7 DUP3 DUP8 ADD PUSH2 0x2D39 JUMP JUMPDEST SWAP2 POP POP SWAP3 POP SWAP3 POP SWAP3 JUMP JUMPDEST PUSH1 0x0 DUP1 PUSH1 0x0 PUSH1 0x60 DUP5 DUP7 SUB SLT ISZERO PUSH2 0x308D JUMPI PUSH2 0x308C PUSH2 0x4064 JUMP JUMPDEST JUMPDEST PUSH1 0x0 PUSH2 0x309B DUP7 DUP3 DUP8 ADD PUSH2 0x2DE9 JUMP JUMPDEST SWAP4 POP POP PUSH1 0x20 PUSH2 0x30AC DUP7 DUP3 DUP8 ADD PUSH2 0x2DE9 JUMP JUMPDEST SWAP3 POP POP PUSH1 0x40 PUSH2 0x30BD DUP7 DUP3 DUP8 ADD PUSH2 0x2D4E JUMP JUMPDEST SWAP2 POP POP SWAP3 POP SWAP3 POP SWAP3 JUMP JUMPDEST PUSH1 0x0 DUP1 PUSH1 0x0 DUP1 PUSH1 0x80 DUP6 DUP8 SUB SLT ISZERO PUSH2 0x30E1 JUMPI PUSH2 0x30E0 PUSH2 0x4064 JUMP JUMPDEST JUMPDEST PUSH1 0x0 PUSH2 0x30EF DUP8 DUP3 DUP9 ADD PUSH2 0x2DE9 JUMP JUMPDEST SWAP5 POP POP PUSH1 0x20 PUSH2 0x3100 DUP8 DUP3 DUP9 ADD PUSH2 0x2DE9 JUMP JUMPDEST SWAP4 POP POP PUSH1 0x40 PUSH2 0x3111 DUP8 DUP3 DUP9 ADD PUSH2 0x2D39 JUMP JUMPDEST SWAP3 POP POP PUSH1 0x60 PUSH2 0x3122 DUP8 DUP3 DUP9 ADD PUSH2 0x2D39 JUMP JUMPDEST SWAP2 POP POP SWAP3 SWAP6 SWAP2 SWAP5 POP SWAP3 POP JUMP JUMPDEST PUSH1 0x0 DUP1 PUSH1 0x0 DUP1 PUSH1 0x0 DUP1 PUSH1 0xC0 DUP8 DUP10 SUB SLT ISZERO PUSH2 0x314B JUMPI PUSH2 0x314A PUSH2 0x4064 JUMP JUMPDEST JUMPDEST PUSH1 0x0 PUSH2 0x3159 DUP10 DUP3 DUP11 ADD PUSH2 0x2DE9 JUMP JUMPDEST SWAP7 POP POP PUSH1 0x20 PUSH2 0x316A DUP10 DUP3 DUP11 ADD PUSH2 0x2DE9 JUMP JUMPDEST SWAP6 POP POP PUSH1 0x40 DUP8 ADD CALLDATALOAD PUSH8 0xFFFFFFFFFFFFFFFF DUP2 GT ISZERO PUSH2 0x318B JUMPI PUSH2 0x318A PUSH2 0x405F JUMP JUMPDEST JUMPDEST PUSH2 0x3197 DUP10 DUP3 DUP11 ADD PUSH2 0x2D8D JUMP JUMPDEST SWAP5 POP POP PUSH1 0x60 DUP8 ADD CALLDATALOAD PUSH8 0xFFFFFFFFFFFFFFFF DUP2 GT ISZERO PUSH2 0x31B8 JUMPI PUSH2 0x31B7 PUSH2 0x405F JUMP JUMPDEST JUMPDEST PUSH2 0x31C4 DUP10 DUP3 DUP11 ADD PUSH2 0x2D8D JUMP JUMPDEST SWAP4 POP POP PUSH1 0x80 PUSH2 0x31D5 DUP10 DUP3 DUP11 ADD PUSH2 0x2DE9 JUMP JUMPDEST SWAP3 POP POP PUSH1 0xA0 PUSH2 0x31E6 DUP10 DUP3 DUP11 ADD PUSH2 0x2D4E JUMP JUMPDEST SWAP2 POP POP SWAP3 SWAP6 POP SWAP3 SWAP6 POP SWAP3 SWAP6 JUMP JUMPDEST PUSH1 0x0 DUP1 PUSH1 0x0 DUP1 PUSH1 0x0 DUP1 PUSH1 0xC0 DUP8 DUP10 SUB SLT ISZERO PUSH2 0x3210 JUMPI PUSH2 0x320F PUSH2 0x4064 JUMP JUMPDEST JUMPDEST PUSH1 0x0 PUSH2 0x321E DUP10 DUP3 DUP11 ADD PUSH2 0x2DE9 JUMP JUMPDEST SWAP7 POP POP PUSH1 0x20 PUSH2 0x322F DUP10 DUP3 DUP11 ADD PUSH2 0x2DE9 JUMP JUMPDEST SWAP6 POP POP PUSH1 0x40 DUP8 ADD CALLDATALOAD PUSH8 0xFFFFFFFFFFFFFFFF DUP2 GT ISZERO PUSH2 0x3250 JUMPI PUSH2 0x324F PUSH2 0x405F JUMP JUMPDEST JUMPDEST PUSH2 0x325C DUP10 DUP3 DUP11 ADD PUSH2 0x2D8D JUMP JUMPDEST SWAP5 POP POP PUSH1 0x60 DUP8 ADD CALLDATALOAD PUSH8 0xFFFFFFFFFFFFFFFF DUP2 GT ISZERO PUSH2 0x327D JUMPI PUSH2 0x327C PUSH2 0x405F JUMP JUMPDEST JUMPDEST PUSH2 0x3289 DUP10 DUP3 DUP11 ADD PUSH2 0x2D8D JUMP JUMPDEST SWAP4 POP POP PUSH1 0x80 PUSH2 0x329A DUP10 DUP3 DUP11 ADD PUSH2 0x2DE9 JUMP JUMPDEST SWAP3 POP POP PUSH1 0xA0 PUSH2 0x32AB DUP10 DUP3 DUP11 ADD PUSH2 0x2D78 JUMP JUMPDEST SWAP2 POP POP SWAP3 SWAP6 POP SWAP3 SWAP6 POP SWAP3 SWAP6 JUMP JUMPDEST PUSH1 0x0 DUP1 PUSH1 0x0 PUSH1 0x60 DUP5 DUP7 SUB SLT ISZERO PUSH2 0x32D1 JUMPI PUSH2 0x32D0 PUSH2 0x4064 JUMP JUMPDEST JUMPDEST PUSH1 0x0 PUSH2 0x32DF DUP7 DUP3 DUP8 ADD PUSH2 0x2DE9 JUMP JUMPDEST SWAP4 POP POP PUSH1 0x20 PUSH2 0x32F0 DUP7 DUP3 DUP8 ADD PUSH2 0x2DE9 JUMP JUMPDEST SWAP3 POP POP PUSH1 0x40 PUSH2 0x3301 DUP7 DUP3 DUP8 ADD PUSH2 0x2DE9 JUMP JUMPDEST SWAP2 POP POP SWAP3 POP SWAP3 POP SWAP3 JUMP JUMPDEST PUSH1 0x0 DUP1 PUSH1 0x0 DUP1 PUSH1 0x0 DUP1 PUSH1 0xC0 DUP8 DUP10 SUB SLT ISZERO PUSH2 0x3328 JUMPI PUSH2 0x3327 PUSH2 0x4064 JUMP JUMPDEST JUMPDEST PUSH1 0x0 PUSH2 0x3336 DUP10 DUP3 DUP11 ADD PUSH2 0x2DE9 JUMP JUMPDEST SWAP7 POP POP PUSH1 0x20 PUSH2 0x3347 DUP10 DUP3 DUP11 ADD PUSH2 0x2DE9 JUMP JUMPDEST SWAP6 POP POP PUSH1 0x40 PUSH2 0x3358 DUP10 DUP3 DUP11 ADD PUSH2 0x2DE9 JUMP JUMPDEST SWAP5 POP POP PUSH1 0x60 PUSH2 0x3369 DUP10 DUP3 DUP11 ADD PUSH2 0x2D39 JUMP JUMPDEST SWAP4 POP POP PUSH1 0x80 DUP8 ADD CALLDATALOAD PUSH8 0xFFFFFFFFFFFFFFFF DUP2 GT ISZERO PUSH2 0x338A JUMPI PUSH2 0x3389 PUSH2 0x405F JUMP JUMPDEST JUMPDEST PUSH2 0x3396 DUP10 DUP3 DUP11 ADD PUSH2 0x2D8D JUMP JUMPDEST SWAP3 POP POP PUSH1 0xA0 PUSH2 0x33A7 DUP10 DUP3 DUP11 ADD PUSH2 0x2DE9 JUMP JUMPDEST SWAP2 POP POP SWAP3 SWAP6 POP SWAP3 SWAP6 POP SWAP3 SWAP6 JUMP JUMPDEST PUSH1 0x0 DUP1 PUSH1 0x0 DUP1 PUSH1 0x0 PUSH1 0xA0 DUP7 DUP9 SUB SLT ISZERO PUSH2 0x33D0 JUMPI PUSH2 0x33CF PUSH2 0x4064 JUMP JUMPDEST JUMPDEST PUSH1 0x0 PUSH2 0x33DE DUP9 DUP3 DUP10 ADD PUSH2 0x2DE9 JUMP JUMPDEST SWAP6 POP POP PUSH1 0x20 PUSH2 0x33EF DUP9 DUP3 DUP10 ADD PUSH2 0x2DE9 JUMP JUMPDEST SWAP5 POP POP PUSH1 0x40 PUSH2 0x3400 DUP9 DUP3 DUP10 ADD PUSH2 0x2DE9 JUMP JUMPDEST SWAP4 POP POP PUSH1 0x60 PUSH2 0x3411 DUP9 DUP3 DUP10 ADD PUSH2 0x2D39 JUMP JUMPDEST SWAP3 POP POP PUSH1 0x80 PUSH2 0x3422 DUP9 DUP3 DUP10 ADD PUSH2 0x2E13 JUMP JUMPDEST SWAP2 POP POP SWAP3 SWAP6 POP SWAP3 SWAP6 SWAP1 SWAP4 POP JUMP JUMPDEST PUSH1 0x0 DUP1 PUSH1 0x0 DUP1 PUSH1 0x80 DUP6 DUP8 SUB SLT ISZERO PUSH2 0x3449 JUMPI PUSH2 0x3448 PUSH2 0x4064 JUMP JUMPDEST JUMPDEST PUSH1 0x0 PUSH2 0x3457 DUP8 DUP3 DUP9 ADD PUSH2 0x2DE9 JUMP JUMPDEST SWAP5 POP POP PUSH1 0x20 PUSH2 0x3468 DUP8 DUP3 DUP9 ADD PUSH2 0x2DE9 JUMP JUMPDEST SWAP4 POP POP PUSH1 0x40 PUSH2 0x3479 DUP8 DUP3 DUP9 ADD PUSH2 0x2DE9 JUMP JUMPDEST SWAP3 POP POP PUSH1 0x60 PUSH2 0x348A DUP8 DUP3 DUP9 ADD PUSH2 0x2D63 JUMP JUMPDEST SWAP2 POP POP SWAP3 SWAP6 SWAP2 SWAP5 POP SWAP3 POP JUMP JUMPDEST PUSH1 0x0 DUP1 PUSH1 0x0 DUP1 PUSH1 0x0 PUSH1 0xA0 DUP7 DUP9 SUB SLT ISZERO PUSH2 0x34B2 JUMPI PUSH2 0x34B1 PUSH2 0x4064 JUMP JUMPDEST JUMPDEST PUSH1 0x0 PUSH2 0x34C0 DUP9 DUP3 DUP10 ADD PUSH2 0x2DE9 JUMP JUMPDEST SWAP6 POP POP PUSH1 0x20 PUSH2 0x34D1 DUP9 DUP3 DUP10 ADD PUSH2 0x2DE9 JUMP JUMPDEST SWAP5 POP POP PUSH1 0x40 PUSH2 0x34E2 DUP9 DUP3 DUP10 ADD PUSH2 0x2DE9 JUMP JUMPDEST SWAP4 POP POP PUSH1 0x60 DUP7 ADD CALLDATALOAD PUSH8 0xFFFFFFFFFFFFFFFF DUP2 GT ISZERO PUSH2 0x3503 JUMPI PUSH2 0x3502 PUSH2 0x405F JUMP JUMPDEST JUMPDEST PUSH2 0x350F DUP9 DUP3 DUP10 ADD PUSH2 0x2D8D JUMP JUMPDEST SWAP3 POP POP PUSH1 0x80 DUP7 ADD CALLDATALOAD PUSH8 0xFFFFFFFFFFFFFFFF DUP2 GT ISZERO PUSH2 0x3530 JUMPI PUSH2 0x352F PUSH2 0x405F JUMP JUMPDEST JUMPDEST PUSH2 0x353C DUP9 DUP3 DUP10 ADD PUSH2 0x2D8D JUMP JUMPDEST SWAP2 POP POP SWAP3 SWAP6 POP SWAP3 SWAP6 SWAP1 SWAP4 POP JUMP JUMPDEST PUSH1 0x0 DUP1 PUSH1 0x0 DUP1 PUSH1 0x0 DUP1 PUSH1 0x0 PUSH1 0xE0 DUP9 DUP11 SUB SLT ISZERO PUSH2 0x3568 JUMPI PUSH2 0x3567 PUSH2 0x4064 JUMP JUMPDEST JUMPDEST PUSH1 0x0 PUSH2 0x3576 DUP11 DUP3 DUP12 ADD PUSH2 0x2DE9 JUMP JUMPDEST SWAP8 POP POP PUSH1 0x20 PUSH2 0x3587 DUP11 DUP3 DUP12 ADD PUSH2 0x2DE9 JUMP JUMPDEST SWAP7 POP POP PUSH1 0x40 PUSH2 0x3598 DUP11 DUP3 DUP12 ADD PUSH2 0x2DE9 JUMP JUMPDEST SWAP6 POP POP PUSH1 0x60 DUP9 ADD CALLDATALOAD PUSH8 0xFFFFFFFFFFFFFFFF DUP2 GT ISZERO PUSH2 0x35B9 JUMPI PUSH2 0x35B8 PUSH2 0x405F JUMP JUMPDEST JUMPDEST PUSH2 0x35C5 DUP11 DUP3 DUP12 ADD PUSH2 0x2D8D JUMP JUMPDEST SWAP5 POP POP PUSH1 0x80 DUP9 ADD CALLDATALOAD PUSH8 0xFFFFFFFFFFFFFFFF DUP2 GT ISZERO PUSH2 0x35E6 JUMPI PUSH2 0x35E5 PUSH2 0x405F JUMP JUMPDEST JUMPDEST PUSH2 0x35F2 DUP11 DUP3 DUP12 ADD PUSH2 0x2D8D JUMP JUMPDEST SWAP4 POP POP PUSH1 0xA0 PUSH2 0x3603 DUP11 DUP3 DUP12 ADD PUSH2 0x2D39 JUMP JUMPDEST SWAP3 POP POP PUSH1 0xC0 PUSH2 0x3614 DUP11 DUP3 DUP12 ADD PUSH2 0x2DE9 JUMP JUMPDEST SWAP2 POP POP SWAP3 SWAP6 SWAP9 SWAP2 SWAP5 SWAP8 POP SWAP3 SWAP6 POP JUMP JUMPDEST PUSH2 0x362C DUP2 PUSH2 0x3E27 JUMP JUMPDEST DUP3 MSTORE POP POP JUMP JUMPDEST PUSH2 0x363B DUP2 PUSH2 0x3DAD JUMP JUMPDEST DUP3 MSTORE POP POP JUMP JUMPDEST PUSH2 0x364A DUP2 PUSH2 0x3D9B JUMP JUMPDEST DUP3 MSTORE POP POP JUMP JUMPDEST PUSH2 0x3659 DUP2 PUSH2 0x3DBF JUMP JUMPDEST DUP3 MSTORE POP POP JUMP JUMPDEST PUSH2 0x3668 DUP2 PUSH2 0x3E39 JUMP JUMPDEST DUP3 MSTORE POP POP JUMP JUMPDEST PUSH2 0x3677 DUP2 PUSH2 0x3E4B JUMP JUMPDEST DUP3 MSTORE POP POP JUMP JUMPDEST PUSH1 0x0 PUSH2 0x3688 DUP3 PUSH2 0x3D7F JUMP JUMPDEST PUSH2 0x3692 DUP2 DUP6 PUSH2 0x3D8A JUMP JUMPDEST SWAP4 POP PUSH2 0x36A2 DUP2 DUP6 PUSH1 0x20 DUP7 ADD PUSH2 0x3E90 JUMP JUMPDEST PUSH2 0x36AB DUP2 PUSH2 0x4069 JUMP JUMPDEST DUP5 ADD SWAP2 POP POP SWAP3 SWAP2 POP POP JUMP JUMPDEST PUSH1 0x0 PUSH2 0x36C3 PUSH1 0x21 DUP4 PUSH2 0x3D8A JUMP JUMPDEST SWAP2 POP PUSH2 0x36CE DUP3 PUSH2 0x407A JUMP JUMPDEST PUSH1 0x40 DUP3 ADD SWAP1 POP SWAP2 SWAP1 POP JUMP JUMPDEST PUSH1 0x0 PUSH2 0x36E6 PUSH1 0x20 DUP4 PUSH2 0x3D8A JUMP JUMPDEST SWAP2 POP PUSH2 0x36F1 DUP3 PUSH2 0x40C9 JUMP JUMPDEST PUSH1 0x20 DUP3 ADD SWAP1 POP SWAP2 SWAP1 POP JUMP JUMPDEST PUSH1 0x0 PUSH2 0x3709 PUSH1 0x46 DUP4 PUSH2 0x3D8A JUMP JUMPDEST SWAP2 POP PUSH2 0x3714 DUP3 PUSH2 0x40F2 JUMP JUMPDEST PUSH1 0x60 DUP3 ADD SWAP1 POP SWAP2 SWAP1 POP JUMP JUMPDEST PUSH1 0x0 PUSH2 0x372C PUSH1 0x42 DUP4 PUSH2 0x3D8A JUMP JUMPDEST SWAP2 POP PUSH2 0x3737 DUP3 PUSH2 0x4167 JUMP JUMPDEST PUSH1 0x60 DUP3 ADD SWAP1 POP SWAP2 SWAP1 POP JUMP JUMPDEST PUSH2 0x374B DUP2 PUSH2 0x3E10 JUMP JUMPDEST DUP3 MSTORE POP POP JUMP JUMPDEST PUSH2 0x375A DUP2 PUSH2 0x3E1A JUMP JUMPDEST DUP3 MSTORE POP POP JUMP JUMPDEST PUSH1 0x0 PUSH1 0x20 DUP3 ADD SWAP1 POP PUSH2 0x3775 PUSH1 0x0 DUP4 ADD DUP5 PUSH2 0x3641 JUMP JUMPDEST SWAP3 SWAP2 POP POP JUMP JUMPDEST PUSH1 0x0 PUSH1 0x20 DUP3 ADD SWAP1 POP DUP2 DUP2 SUB PUSH1 0x0 DUP4 ADD MSTORE PUSH2 0x3795 DUP2 DUP5 PUSH2 0x367D JUMP JUMPDEST SWAP1 POP SWAP3 SWAP2 POP POP JUMP JUMPDEST PUSH1 0x0 PUSH1 0x20 DUP3 ADD SWAP1 POP DUP2 DUP2 SUB PUSH1 0x0 DUP4 ADD MSTORE PUSH2 0x37B6 DUP2 PUSH2 0x36B6 JUMP JUMPDEST SWAP1 POP SWAP2 SWAP1 POP JUMP JUMPDEST PUSH1 0x0 PUSH1 0x20 DUP3 ADD SWAP1 POP DUP2 DUP2 SUB PUSH1 0x0 DUP4 ADD MSTORE PUSH2 0x37D6 DUP2 PUSH2 0x36D9 JUMP JUMPDEST SWAP1 POP SWAP2 SWAP1 POP JUMP JUMPDEST PUSH1 0x0 PUSH1 0x20 DUP3 ADD SWAP1 POP DUP2 DUP2 SUB PUSH1 0x0 DUP4 ADD MSTORE PUSH2 0x37F6 DUP2 PUSH2 0x36FC JUMP JUMPDEST SWAP1 POP SWAP2 SWAP1 POP JUMP JUMPDEST PUSH1 0x0 PUSH1 0x20 DUP3 ADD SWAP1 POP DUP2 DUP2 SUB PUSH1 0x0 DUP4 ADD MSTORE PUSH2 0x3816 DUP2 PUSH2 0x371F JUMP JUMPDEST SWAP1 POP SWAP2 SWAP1 POP JUMP JUMPDEST PUSH1 0x0 PUSH1 0x20 DUP3 ADD SWAP1 POP PUSH2 0x3832 PUSH1 0x0 DUP4 ADD DUP5 PUSH2 0x3742 JUMP JUMPDEST SWAP3 SWAP2 POP POP JUMP JUMPDEST PUSH1 0x0 PUSH1 0x40 DUP3 ADD SWAP1 POP PUSH2 0x384D PUSH1 0x0 DUP4 ADD DUP6 PUSH2 0x3742 JUMP JUMPDEST PUSH2 0x385A PUSH1 0x20 DUP4 ADD DUP5 PUSH2 0x3641 JUMP JUMPDEST SWAP4 SWAP3 POP POP POP JUMP JUMPDEST PUSH1 0x0 PUSH1 0x80 DUP3 ADD SWAP1 POP PUSH2 0x3876 PUSH1 0x0 DUP4 ADD DUP8 PUSH2 0x3742 JUMP JUMPDEST DUP2 DUP2 SUB PUSH1 0x20 DUP4 ADD MSTORE PUSH2 0x3888 DUP2 DUP7 PUSH2 0x367D JUMP JUMPDEST SWAP1 POP DUP2 DUP2 SUB PUSH1 0x40 DUP4 ADD MSTORE PUSH2 0x389C DUP2 DUP6 PUSH2 0x367D JUMP JUMPDEST SWAP1 POP PUSH2 0x38AB PUSH1 0x60 DUP4 ADD DUP5 PUSH2 0x3641 JUMP JUMPDEST SWAP6 SWAP5 POP POP POP POP POP JUMP JUMPDEST PUSH1 0x0 PUSH1 0x80 DUP3 ADD SWAP1 POP PUSH2 0x38C9 PUSH1 0x0 DUP4 ADD DUP8 PUSH2 0x3742 JUMP JUMPDEST DUP2 DUP2 SUB PUSH1 0x20 DUP4 ADD MSTORE PUSH2 0x38DB DUP2 DUP7 PUSH2 0x367D JUMP JUMPDEST SWAP1 POP DUP2 DUP2 SUB PUSH1 0x40 DUP4 ADD MSTORE PUSH2 0x38EF DUP2 DUP6 PUSH2 0x367D JUMP JUMPDEST SWAP1 POP PUSH2 0x38FE PUSH1 0x60 DUP4 ADD DUP5 PUSH2 0x3632 JUMP JUMPDEST SWAP6 SWAP5 POP POP POP POP POP JUMP JUMPDEST PUSH1 0x0 PUSH1 0xC0 DUP3 ADD SWAP1 POP PUSH2 0x391C PUSH1 0x0 DUP4 ADD DUP10 PUSH2 0x3742 JUMP JUMPDEST DUP2 DUP2 SUB PUSH1 0x20 DUP4 ADD MSTORE PUSH2 0x392E DUP2 DUP9 PUSH2 0x367D JUMP JUMPDEST SWAP1 POP DUP2 DUP2 SUB PUSH1 0x40 DUP4 ADD MSTORE PUSH2 0x3942 DUP2 DUP8 PUSH2 0x367D JUMP JUMPDEST SWAP1 POP PUSH2 0x3951 PUSH1 0x60 DUP4 ADD DUP7 PUSH2 0x3641 JUMP JUMPDEST PUSH2 0x395E PUSH1 0x80 DUP4 ADD DUP6 PUSH2 0x3650 JUMP JUMPDEST PUSH2 0x396B PUSH1 0xA0 DUP4 ADD DUP5 PUSH2 0x366E JUMP JUMPDEST SWAP8 SWAP7 POP POP POP POP POP POP POP JUMP JUMPDEST PUSH1 0x0 PUSH1 0x40 DUP3 ADD SWAP1 POP PUSH2 0x398B PUSH1 0x0 DUP4 ADD DUP6 PUSH2 0x3742 JUMP JUMPDEST PUSH2 0x3998 PUSH1 0x20 DUP4 ADD DUP5 PUSH2 0x3742 JUMP JUMPDEST SWAP4 SWAP3 POP POP POP JUMP JUMPDEST PUSH1 0x0 PUSH1 0x60 DUP3 ADD SWAP1 POP PUSH2 0x39B4 PUSH1 0x0 DUP4 ADD DUP7 PUSH2 0x3742 JUMP JUMPDEST PUSH2 0x39C1 PUSH1 0x20 DUP4 ADD DUP6 PUSH2 0x3742 JUMP JUMPDEST PUSH2 0x39CE PUSH1 0x40 DUP4 ADD DUP5 PUSH2 0x3641 JUMP JUMPDEST SWAP5 SWAP4 POP POP POP POP JUMP JUMPDEST PUSH1 0x0 PUSH1 0x60 DUP3 ADD SWAP1 POP PUSH2 0x39EB PUSH1 0x0 DUP4 ADD DUP7 PUSH2 0x3742 JUMP JUMPDEST PUSH2 0x39F8 PUSH1 0x20 DUP4 ADD DUP6 PUSH2 0x3742 JUMP JUMPDEST PUSH2 0x3A05 PUSH1 0x40 DUP4 ADD DUP5 PUSH2 0x3623 JUMP JUMPDEST SWAP5 SWAP4 POP POP POP POP JUMP JUMPDEST PUSH1 0x0 PUSH1 0x80 DUP3 ADD SWAP1 POP PUSH2 0x3A22 PUSH1 0x0 DUP4 ADD DUP8 PUSH2 0x3742 JUMP JUMPDEST PUSH2 0x3A2F PUSH1 0x20 DUP4 ADD DUP7 PUSH2 0x3742 JUMP JUMPDEST PUSH2 0x3A3C PUSH1 0x40 DUP4 ADD DUP6 PUSH2 0x3641 JUMP JUMPDEST PUSH2 0x3A49 PUSH1 0x60 DUP4 ADD DUP5 PUSH2 0x3632 JUMP JUMPDEST SWAP6 SWAP5 POP POP POP POP POP JUMP JUMPDEST PUSH1 0x0 PUSH1 0x80 DUP3 ADD SWAP1 POP PUSH2 0x3A67 PUSH1 0x0 DUP4 ADD DUP8 PUSH2 0x3742 JUMP JUMPDEST PUSH2 0x3A74 PUSH1 0x20 DUP4 ADD DUP7 PUSH2 0x3742 JUMP JUMPDEST DUP2 DUP2 SUB PUSH1 0x40 DUP4 ADD MSTORE PUSH2 0x3A86 DUP2 DUP6 PUSH2 0x367D JUMP JUMPDEST SWAP1 POP DUP2 DUP2 SUB PUSH1 0x60 DUP4 ADD MSTORE PUSH2 0x3A9A DUP2 DUP5 PUSH2 0x367D JUMP JUMPDEST SWAP1 POP SWAP6 SWAP5 POP POP POP POP POP JUMP JUMPDEST PUSH1 0x0 PUSH1 0xC0 DUP3 ADD SWAP1 POP PUSH2 0x3ABA PUSH1 0x0 DUP4 ADD DUP10 PUSH2 0x3742 JUMP JUMPDEST PUSH2 0x3AC7 PUSH1 0x20 DUP4 ADD DUP9 PUSH2 0x3742 JUMP JUMPDEST DUP2 DUP2 SUB PUSH1 0x40 DUP4 ADD MSTORE PUSH2 0x3AD9 DUP2 DUP8 PUSH2 0x367D JUMP JUMPDEST SWAP1 POP DUP2 DUP2 SUB PUSH1 0x60 DUP4 ADD MSTORE PUSH2 0x3AED DUP2 DUP7 PUSH2 0x367D JUMP JUMPDEST SWAP1 POP PUSH2 0x3AFC PUSH1 0x80 DUP4 ADD DUP6 PUSH2 0x3742 JUMP JUMPDEST PUSH2 0x3B09 PUSH1 0xA0 DUP4 ADD DUP5 PUSH2 0x3632 JUMP JUMPDEST SWAP8 SWAP7 POP POP POP POP POP POP POP JUMP JUMPDEST PUSH1 0x0 PUSH1 0x60 DUP3 ADD SWAP1 POP PUSH2 0x3B29 PUSH1 0x0 DUP4 ADD DUP7 PUSH2 0x3742 JUMP JUMPDEST PUSH2 0x3B36 PUSH1 0x20 DUP4 ADD DUP6 PUSH2 0x3742 JUMP JUMPDEST PUSH2 0x3B43 PUSH1 0x40 DUP4 ADD DUP5 PUSH2 0x3742 JUMP JUMPDEST SWAP5 SWAP4 POP POP POP POP JUMP JUMPDEST PUSH1 0x0 PUSH1 0xC0 DUP3 ADD SWAP1 POP PUSH2 0x3B60 PUSH1 0x0 DUP4 ADD DUP10 PUSH2 0x3742 JUMP JUMPDEST PUSH2 0x3B6D PUSH1 0x20 DUP4 ADD DUP9 PUSH2 0x3742 JUMP JUMPDEST PUSH2 0x3B7A PUSH1 0x40 DUP4 ADD DUP8 PUSH2 0x3742 JUMP JUMPDEST PUSH2 0x3B87 PUSH1 0x60 DUP4 ADD DUP7 PUSH2 0x3641 JUMP JUMPDEST DUP2 DUP2 SUB PUSH1 0x80 DUP4 ADD MSTORE PUSH2 0x3B99 DUP2 DUP6 PUSH2 0x367D JUMP JUMPDEST SWAP1 POP PUSH2 0x3BA8 PUSH1 0xA0 DUP4 ADD DUP5 PUSH2 0x3742 JUMP JUMPDEST SWAP8 SWAP7 POP POP POP POP POP POP POP JUMP JUMPDEST PUSH1 0x0 PUSH1 0xA0 DUP3 ADD SWAP1 POP PUSH2 0x3BC8 PUSH1 0x0 DUP4 ADD DUP9 PUSH2 0x3742 JUMP JUMPDEST PUSH2 0x3BD5 PUSH1 0x20 DUP4 ADD DUP8 PUSH2 0x3742 JUMP JUMPDEST PUSH2 0x3BE2 PUSH1 0x40 DUP4 ADD DUP7 PUSH2 0x3742 JUMP JUMPDEST PUSH2 0x3BEF PUSH1 0x60 DUP4 ADD DUP6 PUSH2 0x3641 JUMP JUMPDEST PUSH2 0x3BFC PUSH1 0x80 DUP4 ADD DUP5 PUSH2 0x3751 JUMP JUMPDEST SWAP7 SWAP6 POP POP POP POP POP POP JUMP JUMPDEST PUSH1 0x0 PUSH1 0x80 DUP3 ADD SWAP1 POP PUSH2 0x3C1B PUSH1 0x0 DUP4 ADD DUP8 PUSH2 0x3742 JUMP JUMPDEST PUSH2 0x3C28 PUSH1 0x20 DUP4 ADD DUP7 PUSH2 0x3742 JUMP JUMPDEST PUSH2 0x3C35 PUSH1 0x40 DUP4 ADD DUP6 PUSH2 0x3742 JUMP JUMPDEST PUSH2 0x3C42 PUSH1 0x60 DUP4 ADD DUP5 PUSH2 0x365F JUMP JUMPDEST SWAP6 SWAP5 POP POP POP POP POP JUMP JUMPDEST PUSH1 0x0 PUSH1 0xA0 DUP3 ADD SWAP1 POP PUSH2 0x3C60 PUSH1 0x0 DUP4 ADD DUP9 PUSH2 0x3742 JUMP JUMPDEST PUSH2 0x3C6D PUSH1 0x20 DUP4 ADD DUP8 PUSH2 0x3742 JUMP JUMPDEST PUSH2 0x3C7A PUSH1 0x40 DUP4 ADD DUP7 PUSH2 0x3742 JUMP JUMPDEST DUP2 DUP2 SUB PUSH1 0x60 DUP4 ADD MSTORE PUSH2 0x3C8C DUP2 DUP6 PUSH2 0x367D JUMP JUMPDEST SWAP1 POP DUP2 DUP2 SUB PUSH1 0x80 DUP4 ADD MSTORE PUSH2 0x3CA0 DUP2 DUP5 PUSH2 0x367D JUMP JUMPDEST SWAP1 POP SWAP7 SWAP6 POP POP POP POP POP POP JUMP JUMPDEST PUSH1 0x0 PUSH1 0xE0 DUP3 ADD SWAP1 POP PUSH2 0x3CC1 PUSH1 0x0 DUP4 ADD DUP11 PUSH2 0x3742 JUMP JUMPDEST PUSH2 0x3CCE PUSH1 0x20 DUP4 ADD DUP10 PUSH2 0x3742 JUMP JUMPDEST PUSH2 0x3CDB PUSH1 0x40 DUP4 ADD DUP9 PUSH2 0x3742 JUMP JUMPDEST DUP2 DUP2 SUB PUSH1 0x60 DUP4 ADD MSTORE PUSH2 0x3CED DUP2 DUP8 PUSH2 0x367D JUMP JUMPDEST SWAP1 POP DUP2 DUP2 SUB PUSH1 0x80 DUP4 ADD MSTORE PUSH2 0x3D01 DUP2 DUP7 PUSH2 0x367D JUMP JUMPDEST SWAP1 POP PUSH2 0x3D10 PUSH1 0xA0 DUP4 ADD DUP6 PUSH2 0x3641 JUMP JUMPDEST PUSH2 0x3D1D PUSH1 0xC0 DUP4 ADD DUP5 PUSH2 0x3742 JUMP JUMPDEST SWAP9 SWAP8 POP POP POP POP POP POP POP POP JUMP JUMPDEST PUSH1 0x0 PUSH2 0x3D33 PUSH2 0x3D44 JUMP JUMPDEST SWAP1 POP PUSH2 0x3D3F DUP3 DUP3 PUSH2 0x3F1F JUMP JUMPDEST SWAP2 SWAP1 POP JUMP JUMPDEST PUSH1 0x0 PUSH1 0x40 MLOAD SWAP1 POP SWAP1 JUMP JUMPDEST PUSH1 0x0 PUSH8 0xFFFFFFFFFFFFFFFF DUP3 GT ISZERO PUSH2 0x3D69 JUMPI PUSH2 0x3D68 PUSH2 0x4026 JUMP JUMPDEST JUMPDEST PUSH2 0x3D72 DUP3 PUSH2 0x4069 JUMP JUMPDEST SWAP1 POP PUSH1 0x20 DUP2 ADD SWAP1 POP SWAP2 SWAP1 POP JUMP JUMPDEST PUSH1 0x0 DUP2 MLOAD SWAP1 POP SWAP2 SWAP1 POP JUMP JUMPDEST PUSH1 0x0 DUP3 DUP3 MSTORE PUSH1 0x20 DUP3 ADD SWAP1 POP SWAP3 SWAP2 POP POP JUMP JUMPDEST PUSH1 0x0 PUSH2 0x3DA6 DUP3 PUSH2 0x3DF0 JUMP JUMPDEST SWAP1 POP SWAP2 SWAP1 POP JUMP JUMPDEST PUSH1 0x0 PUSH2 0x3DB8 DUP3 PUSH2 0x3DF0 JUMP JUMPDEST SWAP1 POP SWAP2 SWAP1 POP JUMP JUMPDEST PUSH1 0x0 DUP2 ISZERO ISZERO SWAP1 POP SWAP2 SWAP1 POP JUMP JUMPDEST PUSH1 0x0 PUSH2 0x3DD6 DUP3 PUSH2 0x3D9B JUMP JUMPDEST SWAP1 POP SWAP2 SWAP1 POP JUMP JUMPDEST PUSH1 0x0 DUP2 SWAP1 POP PUSH2 0x3DEB DUP3 PUSH2 0x41DC JUMP JUMPDEST SWAP2 SWAP1 POP JUMP JUMPDEST PUSH1 0x0 PUSH20 0xFFFFFFFFFFFFFFFFFFFFFFFFFFFFFFFFFFFFFFFF DUP3 AND SWAP1 POP SWAP2 SWAP1 POP JUMP JUMPDEST PUSH1 0x0 DUP2 SWAP1 POP SWAP2 SWAP1 POP JUMP JUMPDEST PUSH1 0x0 PUSH1 0xFF DUP3 AND SWAP1 POP SWAP2 SWAP1 POP JUMP JUMPDEST PUSH1 0x0 PUSH2 0x3E32 DUP3 PUSH2 0x3E5D JUMP JUMPDEST SWAP1 POP SWAP2 SWAP1 POP JUMP JUMPDEST PUSH1 0x0 PUSH2 0x3E44 DUP3 PUSH2 0x3E5D JUMP JUMPDEST SWAP1 POP SWAP2 SWAP1 POP JUMP JUMPDEST PUSH1 0x0 PUSH2 0x3E56 DUP3 PUSH2 0x3DDD JUMP JUMPDEST SWAP1 POP SWAP2 SWAP1 POP JUMP JUMPDEST PUSH1 0x0 PUSH2 0x3E68 DUP3 PUSH2 0x3E6F JUMP JUMPDEST SWAP1 POP SWAP2 SWAP1 POP JUMP JUMPDEST PUSH1 0x0 PUSH2 0x3E7A DUP3 PUSH2 0x3DF0 JUMP JUMPDEST SWAP1 POP SWAP2 SWAP1 POP JUMP JUMPDEST DUP3 DUP2 DUP4 CALLDATACOPY PUSH1 0x0 DUP4 DUP4 ADD MSTORE POP POP POP JUMP JUMPDEST PUSH1 0x0 JUMPDEST DUP4 DUP2 LT ISZERO PUSH2 0x3EAE JUMPI DUP1 DUP3 ADD MLOAD DUP2 DUP5 ADD MSTORE PUSH1 0x20 DUP2 ADD SWAP1 POP PUSH2 0x3E93 JUMP JUMPDEST DUP4 DUP2 GT ISZERO PUSH2 0x3EBD JUMPI PUSH1 0x0 DUP5 DUP5 ADD MSTORE JUMPDEST POP POP POP POP JUMP JUMPDEST PUSH1 0x0 PUSH2 0x3ECE DUP3 PUSH2 0x3E10 JUMP JUMPDEST SWAP2 POP PUSH1 0x0 DUP3 EQ ISZERO PUSH2 0x3EE2 JUMPI PUSH2 0x3EE1 PUSH2 0x3F99 JUMP JUMPDEST JUMPDEST PUSH1 0x1 DUP3 SUB SWAP1 POP SWAP2 SWAP1 POP JUMP JUMPDEST PUSH1 0x0 PUSH1 0x2 DUP3 DIV SWAP1 POP PUSH1 0x1 DUP3 AND DUP1 PUSH2 0x3F05 JUMPI PUSH1 0x7F DUP3 AND SWAP2 POP JUMPDEST PUSH1 0x20 DUP3 LT DUP2 EQ ISZERO PUSH2 0x3F19 JUMPI PUSH2 0x3F18 PUSH2 0x3FF7 JUMP JUMPDEST JUMPDEST POP SWAP2 SWAP1 POP JUMP JUMPDEST PUSH2 0x3F28 DUP3 PUSH2 0x4069 JUMP JUMPDEST DUP2 ADD DUP2 DUP2 LT PUSH8 0xFFFFFFFFFFFFFFFF DUP3 GT OR ISZERO PUSH2 0x3F47 JUMPI PUSH2 0x3F46 PUSH2 0x4026 JUMP JUMPDEST JUMPDEST DUP1 PUSH1 0x40 MSTORE POP POP POP JUMP JUMPDEST PUSH1 0x0 PUSH2 0x3F5B DUP3 PUSH2 0x3E10 JUMP JUMPDEST SWAP2 POP PUSH32 0xFFFFFFFFFFFFFFFFFFFFFFFFFFFFFFFFFFFFFFFFFFFFFFFFFFFFFFFFFFFFFFFF DUP3 EQ ISZERO PUSH2 0x3F8E JUMPI PUSH2 0x3F8D PUSH2 0x3F99 JUMP JUMPDEST JUMPDEST PUSH1 0x1 DUP3 ADD SWAP1 POP SWAP2 SWAP1 POP JUMP JUMPDEST PUSH32 0x4E487B7100000000000000000000000000000000000000000000000000000000 PUSH1 0x0 MSTORE PUSH1 0x11 PUSH1 0x4 MSTORE PUSH1 0x24 PUSH1 0x0 REVERT JUMPDEST PUSH32 0x4E487B7100000000000000000000000000000000000000000000000000000000 PUSH1 0x0 MSTORE PUSH1 0x21 PUSH1 0x4 MSTORE PUSH1 0x24 PUSH1 0x0 REVERT JUMPDEST PUSH32 0x4E487B7100000000000000000000000000000000000000000000000000000000 PUSH1 0x0 MSTORE PUSH1 0x22 PUSH1 0x4 MSTORE PUSH1 0x24 PUSH1 0x0 REVERT JUMPDEST PUSH32 0x4E487B7100000000000000000000000000000000000000000000000000000000 PUSH1 0x0 MSTORE PUSH1 0x41 PUSH1 0x4 MSTORE PUSH1 0x24 PUSH1 0x0 REVERT JUMPDEST PUSH1 0x0 DUP1 REVERT JUMPDEST PUSH1 0x0 DUP1 REVERT JUMPDEST PUSH1 0x0 DUP1 REVERT JUMPDEST PUSH1 0x0 DUP1 REVERT JUMPDEST PUSH1 0x0 PUSH1 0x1F NOT PUSH1 0x1F DUP4 ADD AND SWAP1 POP SWAP2 SWAP1 POP JUMP JUMPDEST PUSH32 0x546869732070726F6A656374206973206E6F206C6F6E67657220616374697665 PUSH1 0x0 DUP3 ADD MSTORE PUSH32 0x2E00000000000000000000000000000000000000000000000000000000000000 PUSH1 0x20 DUP3 ADD MSTORE POP JUMP JUMPDEST PUSH32 0x43616E6E6F74206361727279206F75742074686973206F7065726174696F6E21 PUSH1 0x0 DUP3 ADD MSTORE POP JUMP JUMPDEST PUSH32 0x596F7520617265206E6F7420617574686F72697A656420746F20656469742074 PUSH1 0x0 DUP3 ADD MSTORE PUSH32 0x6869732070726F6A65637420617320796F7520617265206E6F74207468652063 PUSH1 0x20 DUP3 ADD MSTORE PUSH32 0x726561746F720000000000000000000000000000000000000000000000000000 PUSH1 0x40 DUP3 ADD MSTORE POP JUMP JUMPDEST PUSH32 0x546869732070726F6A65637420686173206E6F74206265656E20637265617465 PUSH1 0x0 DUP3 ADD MSTORE PUSH32 0x64207965742E20506C65617365206372656174652070726F6A65637420666972 PUSH1 0x20 DUP3 ADD MSTORE PUSH32 0x7374000000000000000000000000000000000000000000000000000000000000 PUSH1 0x40 DUP3 ADD MSTORE POP JUMP JUMPDEST PUSH1 0x3 DUP2 LT PUSH2 0x41ED JUMPI PUSH2 0x41EC PUSH2 0x3FC8 JUMP JUMPDEST JUMPDEST POP JUMP JUMPDEST PUSH2 0x41F9 DUP2 PUSH2 0x3D9B JUMP JUMPDEST DUP2 EQ PUSH2 0x4204 JUMPI PUSH1 0x0 DUP1 REVERT JUMPDEST POP JUMP JUMPDEST PUSH2 0x4210 DUP2 PUSH2 0x3DAD JUMP JUMPDEST DUP2 EQ PUSH2 0x421B JUMPI PUSH1 0x0 DUP1 REVERT JUMPDEST POP JUMP JUMPDEST PUSH2 0x4227 DUP2 PUSH2 0x3DCB JUMP JUMPDEST DUP2 EQ PUSH2 0x4232 JUMPI PUSH1 0x0 DUP1 REVERT JUMPDEST POP JUMP JUMPDEST PUSH1 0x6 DUP2 LT PUSH2 0x4242 JUMPI PUSH1 0x0 DUP1 REVERT JUMPDEST POP JUMP JUMPDEST PUSH2 0x424E DUP2 PUSH2 0x3E10 JUMP JUMPDEST DUP2 EQ PUSH2 0x4259 JUMPI PUSH1 0x0 DUP1 REVERT JUMPDEST POP JUMP JUMPDEST PUSH2 0x4265 DUP2 PUSH2 0x3E1A JUMP JUMPDEST DUP2 EQ PUSH2 0x4270 JUMPI PUSH1 0x0 DUP1 REVERT JUMPDEST POP JUMP INVALID LOG2 PUSH5 0x6970667358 0x22 SLT KECCAK256 0xB7 DELEGATECALL 0xD1 SWAP4 0xA9 PUSH3 0x3261A0 0xFC 0x4B 0xAD CREATE2 DELEGATECALL 0x49 0x2E PUSH24 0x1EC114A56FCC0A090C4E2A9F5FBCFF64736F6C6343000807 STOP CALLER "
		},
		"gasEstimates": {
			"creation": {
				"codeDepositCost": "3413000",
				"executionCost": "infinite",
				"totalCost": "infinite"
			},
			"external": {
				"acceptServiceRequest(uint256,uint256,address,address)": "infinite",
				"completeMilestone(uint256,uint256,uint256)": "infinite",
				"completeServiceRequest(uint256,uint256,address)": "infinite",
				"createConflict(uint256,uint256,uint256,string,string,address,uint256)": "infinite",
				"createMilestone(uint256,uint256,string,string,uint256,address)": "infinite",
				"createProject(string,string,address)": "infinite",
				"createService(uint256,string,string)": "infinite",
				"createServiceRequest(uint256,uint256,address)": "infinite",
				"deleteConflict(uint256,uint256,uint256)": "infinite",
				"deleteMilestone(uint256,uint256,uint256,address)": "infinite",
				"deleteProject(uint256)": "infinite",
				"deleteService(uint256,uint256)": "infinite",
				"getAvgServiceProviderStarRating(uint256,uint256)": "infinite",
				"getAvgServiceRequesterStarRating(uint256,uint256)": "infinite",
				"getProjectOwner(uint256)": "2905",
				"makeMilestonePayment(uint256,uint256,uint256,address)": "infinite",
				"projectNum()": "2519",
				"projectTotal()": "2497",
				"projects(uint256)": "infinite",
				"readMilestoneTitle(uint256,uint256,uint256)": "infinite",
				"readProjectTitle(uint256)": "infinite",
				"readServiceTitle(uint256,uint256)": "infinite",
				"rejectServiceRequest(uint256,uint256,address)": "infinite",
				"resolveConflictPayment(uint256,uint256,uint256,address)": "infinite",
				"reviewMilestone(uint256,uint256,uint256,address,string,uint256)": "infinite",
				"startVote(uint256,uint256,uint256)": "infinite",
				"updateConflict(uint256,uint256,uint256,string,string)": "infinite",
				"updateMilestone(uint256,uint256,uint256,string,string)": "infinite",
				"updateProject(uint256,string,string)": "infinite",
				"updateService(uint256,uint256,string,string,uint256,uint8)": "infinite",
				"voteConflict(uint256,uint256,uint256,address,uint8)": "infinite"
			},
			"internal": {
				"setState(uint256,enum States.ProjectStatus)": "24440"
			}
		},
		"methodIdentifiers": {
			"acceptServiceRequest(uint256,uint256,address,address)": "ddb2ff1f",
			"completeMilestone(uint256,uint256,uint256)": "c3b9e304",
			"completeServiceRequest(uint256,uint256,address)": "8c749c74",
			"createConflict(uint256,uint256,uint256,string,string,address,uint256)": "e731ac45",
			"createMilestone(uint256,uint256,string,string,uint256,address)": "e0d2b4bb",
			"createProject(string,string,address)": "60ae1e92",
			"createService(uint256,string,string)": "7d3ebecd",
			"createServiceRequest(uint256,uint256,address)": "c77e8ec5",
			"deleteConflict(uint256,uint256,uint256)": "003f489f",
			"deleteMilestone(uint256,uint256,uint256,address)": "53c400e1",
			"deleteProject(uint256)": "4cd0cb28",
			"deleteService(uint256,uint256)": "53c49c64",
			"getAvgServiceProviderStarRating(uint256,uint256)": "ccee835b",
			"getAvgServiceRequesterStarRating(uint256,uint256)": "664fc0cd",
			"getProjectOwner(uint256)": "92256aec",
			"makeMilestonePayment(uint256,uint256,uint256,address)": "d3b491e2",
			"projectNum()": "a0b5d6c8",
			"projectTotal()": "46c1966a",
			"projects(uint256)": "107046bd",
			"readMilestoneTitle(uint256,uint256,uint256)": "ace731bd",
			"readProjectTitle(uint256)": "12327a66",
			"readServiceTitle(uint256,uint256)": "c304ccdc",
			"rejectServiceRequest(uint256,uint256,address)": "529884e7",
			"resolveConflictPayment(uint256,uint256,uint256,address)": "81f509f0",
			"reviewMilestone(uint256,uint256,uint256,address,string,uint256)": "bba93c0b",
			"startVote(uint256,uint256,uint256)": "9c87a5e9",
			"updateConflict(uint256,uint256,uint256,string,string)": "d1e992a7",
			"updateMilestone(uint256,uint256,uint256,string,string)": "fd23c4bb",
			"updateProject(uint256,string,string)": "8c4c1347",
			"updateService(uint256,uint256,string,string,uint256,uint8)": "010dfd93",
			"voteConflict(uint256,uint256,uint256,address,uint8)": "c171bdf7"
		}
	},
	"abi": [
		{
			"inputs": [
				{
					"internalType": "contract Service",
					"name": "serviceContract",
					"type": "address"
				}
			],
			"stateMutability": "nonpayable",
			"type": "constructor"
		},
		{
			"anonymous": false,
			"inputs": [
				{
					"indexed": false,
					"internalType": "uint256",
					"name": "projectNumber",
					"type": "uint256"
				},
				{
					"indexed": false,
					"internalType": "string",
					"name": "title",
					"type": "string"
				},
				{
					"indexed": false,
					"internalType": "string",
					"name": "description",
					"type": "string"
				},
				{
					"indexed": false,
					"internalType": "address",
					"name": "projectOwner",
					"type": "address"
				}
			],
			"name": "projectCreated",
			"type": "event"
		},
		{
			"anonymous": false,
			"inputs": [
				{
					"indexed": false,
					"internalType": "uint256",
					"name": "projectNumber",
					"type": "uint256"
				},
				{
					"indexed": false,
					"internalType": "address",
					"name": "projectOwner",
					"type": "address"
				}
			],
			"name": "projectDeleted",
			"type": "event"
		},
		{
			"anonymous": false,
			"inputs": [
				{
					"indexed": false,
					"internalType": "uint256",
					"name": "projectNumber",
					"type": "uint256"
				},
				{
					"indexed": false,
					"internalType": "string",
					"name": "title",
					"type": "string"
				},
				{
					"indexed": false,
					"internalType": "string",
					"name": "description",
					"type": "string"
				},
				{
					"indexed": false,
					"internalType": "address",
					"name": "projectOwner",
					"type": "address"
				}
			],
			"name": "projectUpdated",
			"type": "event"
		},
		{
			"inputs": [
				{
					"internalType": "uint256",
					"name": "projectNumber",
					"type": "uint256"
				},
				{
					"internalType": "uint256",
					"name": "serviceNumber",
					"type": "uint256"
				},
				{
					"internalType": "address",
					"name": "serviceRequester",
					"type": "address"
				},
				{
					"internalType": "address",
					"name": "serviceProvider",
					"type": "address"
				}
			],
			"name": "acceptServiceRequest",
			"outputs": [],
			"stateMutability": "nonpayable",
			"type": "function"
		},
		{
			"inputs": [
				{
					"internalType": "uint256",
					"name": "projectNumber",
					"type": "uint256"
				},
				{
					"internalType": "uint256",
					"name": "serviceNumber",
					"type": "uint256"
				},
				{
					"internalType": "uint256",
					"name": "milestoneNumber",
					"type": "uint256"
				}
			],
			"name": "completeMilestone",
			"outputs": [],
			"stateMutability": "nonpayable",
			"type": "function"
		},
		{
			"inputs": [
				{
					"internalType": "uint256",
					"name": "projectNumber",
					"type": "uint256"
				},
				{
					"internalType": "uint256",
					"name": "serviceNumber",
					"type": "uint256"
				},
				{
					"internalType": "address",
					"name": "serviceProvider",
					"type": "address"
				}
			],
			"name": "completeServiceRequest",
			"outputs": [],
			"stateMutability": "nonpayable",
			"type": "function"
		},
		{
			"inputs": [
				{
					"internalType": "uint256",
					"name": "projectNumber",
					"type": "uint256"
				},
				{
					"internalType": "uint256",
					"name": "serviceNumber",
					"type": "uint256"
				},
				{
					"internalType": "uint256",
					"name": "milestoneNumber",
					"type": "uint256"
				},
				{
					"internalType": "string",
					"name": "title",
					"type": "string"
				},
				{
					"internalType": "string",
					"name": "description",
					"type": "string"
				},
				{
					"internalType": "address",
					"name": "serviceRequester",
					"type": "address"
				},
				{
					"internalType": "uint256",
					"name": "totalVoters",
					"type": "uint256"
				}
			],
			"name": "createConflict",
			"outputs": [],
			"stateMutability": "nonpayable",
			"type": "function"
		},
		{
			"inputs": [
				{
					"internalType": "uint256",
					"name": "projectNumber",
					"type": "uint256"
				},
				{
					"internalType": "uint256",
					"name": "serviceNumber",
					"type": "uint256"
				},
				{
					"internalType": "string",
					"name": "titleMilestone",
					"type": "string"
				},
				{
					"internalType": "string",
					"name": "descriptionMilestone",
					"type": "string"
				},
				{
					"internalType": "uint256",
					"name": "price",
					"type": "uint256"
				},
				{
					"internalType": "address payable",
					"name": "_from",
					"type": "address"
				}
			],
			"name": "createMilestone",
			"outputs": [],
			"stateMutability": "nonpayable",
			"type": "function"
		},
		{
			"inputs": [
				{
					"internalType": "string",
					"name": "title",
					"type": "string"
				},
				{
					"internalType": "string",
					"name": "description",
					"type": "string"
				},
				{
					"internalType": "address",
					"name": "_from",
					"type": "address"
				}
			],
			"name": "createProject",
			"outputs": [],
			"stateMutability": "nonpayable",
			"type": "function"
		},
		{
			"inputs": [
				{
					"internalType": "uint256",
					"name": "projectNumber",
					"type": "uint256"
				},
				{
					"internalType": "string",
					"name": "title",
					"type": "string"
				},
				{
					"internalType": "string",
					"name": "description",
					"type": "string"
				}
			],
			"name": "createService",
			"outputs": [],
			"stateMutability": "nonpayable",
			"type": "function"
		},
		{
			"inputs": [
				{
					"internalType": "uint256",
					"name": "projectNumber",
					"type": "uint256"
				},
				{
					"internalType": "uint256",
					"name": "serviceNumber",
					"type": "uint256"
				},
				{
					"internalType": "address",
					"name": "serviceProvider",
					"type": "address"
				}
			],
			"name": "createServiceRequest",
			"outputs": [],
			"stateMutability": "nonpayable",
			"type": "function"
		},
		{
			"inputs": [
				{
					"internalType": "uint256",
					"name": "projectNumber",
					"type": "uint256"
				},
				{
					"internalType": "uint256",
					"name": "serviceNumber",
					"type": "uint256"
				},
				{
					"internalType": "uint256",
					"name": "milestoneNumber",
					"type": "uint256"
				}
			],
			"name": "deleteConflict",
			"outputs": [],
			"stateMutability": "nonpayable",
			"type": "function"
		},
		{
			"inputs": [
				{
					"internalType": "uint256",
					"name": "projectNumber",
					"type": "uint256"
				},
				{
					"internalType": "uint256",
					"name": "serviceNumber",
					"type": "uint256"
				},
				{
					"internalType": "uint256",
					"name": "milestoneNumber",
					"type": "uint256"
				},
				{
					"internalType": "contract ERC20",
					"name": "erc20",
					"type": "address"
				}
			],
			"name": "deleteMilestone",
			"outputs": [],
			"stateMutability": "nonpayable",
			"type": "function"
		},
		{
			"inputs": [
				{
					"internalType": "uint256",
					"name": "projectNumber",
					"type": "uint256"
				}
			],
			"name": "deleteProject",
			"outputs": [],
			"stateMutability": "nonpayable",
			"type": "function"
		},
		{
			"inputs": [
				{
					"internalType": "uint256",
					"name": "projectNumber",
					"type": "uint256"
				},
				{
					"internalType": "uint256",
					"name": "serviceNumber",
					"type": "uint256"
				}
			],
			"name": "deleteService",
			"outputs": [],
			"stateMutability": "nonpayable",
			"type": "function"
		},
		{
			"inputs": [
				{
					"internalType": "uint256",
					"name": "projectNumber",
					"type": "uint256"
				},
				{
					"internalType": "uint256",
					"name": "serviceNumber",
					"type": "uint256"
				}
			],
			"name": "getAvgServiceProviderStarRating",
			"outputs": [
				{
					"internalType": "uint256",
					"name": "",
					"type": "uint256"
				}
			],
			"stateMutability": "view",
			"type": "function"
		},
		{
			"inputs": [
				{
					"internalType": "uint256",
					"name": "projectNumber",
					"type": "uint256"
				},
				{
					"internalType": "uint256",
					"name": "serviceNumber",
					"type": "uint256"
				}
			],
			"name": "getAvgServiceRequesterStarRating",
			"outputs": [
				{
					"internalType": "uint256",
					"name": "",
					"type": "uint256"
				}
			],
			"stateMutability": "view",
			"type": "function"
		},
		{
			"inputs": [
				{
					"internalType": "uint256",
					"name": "projectId",
					"type": "uint256"
				}
			],
			"name": "getProjectOwner",
			"outputs": [
				{
					"internalType": "address",
					"name": "",
					"type": "address"
				}
			],
			"stateMutability": "view",
			"type": "function"
		},
		{
			"inputs": [
				{
					"internalType": "uint256",
					"name": "projectNumber",
					"type": "uint256"
				},
				{
					"internalType": "uint256",
					"name": "serviceNumber",
					"type": "uint256"
				},
				{
					"internalType": "uint256",
					"name": "milestoneNumber",
					"type": "uint256"
				},
				{
					"internalType": "contract ERC20",
					"name": "ecr20",
					"type": "address"
				}
			],
			"name": "makeMilestonePayment",
			"outputs": [],
			"stateMutability": "nonpayable",
			"type": "function"
		},
		{
			"inputs": [],
			"name": "projectNum",
			"outputs": [
				{
					"internalType": "uint256",
					"name": "",
					"type": "uint256"
				}
			],
			"stateMutability": "view",
			"type": "function"
		},
		{
			"inputs": [],
			"name": "projectTotal",
			"outputs": [
				{
					"internalType": "uint256",
					"name": "",
					"type": "uint256"
				}
			],
			"stateMutability": "view",
			"type": "function"
		},
		{
			"inputs": [
				{
					"internalType": "uint256",
					"name": "",
					"type": "uint256"
				}
			],
			"name": "projects",
			"outputs": [
				{
					"internalType": "uint256",
					"name": "projectNumber",
					"type": "uint256"
				},
				{
					"internalType": "string",
					"name": "title",
					"type": "string"
				},
				{
					"internalType": "string",
					"name": "description",
					"type": "string"
				},
				{
					"internalType": "address",
					"name": "projectOwner",
					"type": "address"
				},
				{
					"internalType": "bool",
					"name": "exist",
					"type": "bool"
				},
				{
					"internalType": "enum States.ProjectStatus",
					"name": "projectstatus",
					"type": "uint8"
				}
			],
			"stateMutability": "view",
			"type": "function"
		},
		{
			"inputs": [
				{
					"internalType": "uint256",
					"name": "projectNumber",
					"type": "uint256"
				},
				{
					"internalType": "uint256",
					"name": "serviceNumber",
					"type": "uint256"
				},
				{
					"internalType": "uint256",
					"name": "milestoneNumber",
					"type": "uint256"
				}
			],
			"name": "readMilestoneTitle",
			"outputs": [
				{
					"internalType": "string",
					"name": "",
					"type": "string"
				}
			],
			"stateMutability": "view",
			"type": "function"
		},
		{
			"inputs": [
				{
					"internalType": "uint256",
					"name": "projectNumber",
					"type": "uint256"
				}
			],
			"name": "readProjectTitle",
			"outputs": [
				{
					"internalType": "string",
					"name": "",
					"type": "string"
				}
			],
			"stateMutability": "view",
			"type": "function"
		},
		{
			"inputs": [
				{
					"internalType": "uint256",
					"name": "projectNumber",
					"type": "uint256"
				},
				{
					"internalType": "uint256",
					"name": "serviceNumber",
					"type": "uint256"
				}
			],
			"name": "readServiceTitle",
			"outputs": [
				{
					"internalType": "string",
					"name": "",
					"type": "string"
				}
			],
			"stateMutability": "view",
			"type": "function"
		},
		{
			"inputs": [
				{
					"internalType": "uint256",
					"name": "projectNumber",
					"type": "uint256"
				},
				{
					"internalType": "uint256",
					"name": "serviceNumber",
					"type": "uint256"
				},
				{
					"internalType": "address payable",
					"name": "serviceRequester",
					"type": "address"
				}
			],
			"name": "rejectServiceRequest",
			"outputs": [],
			"stateMutability": "nonpayable",
			"type": "function"
		},
		{
			"inputs": [
				{
					"internalType": "uint256",
					"name": "projectNumber",
					"type": "uint256"
				},
				{
					"internalType": "uint256",
					"name": "serviceNumber",
					"type": "uint256"
				},
				{
					"internalType": "uint256",
					"name": "milestoneNumber",
					"type": "uint256"
				},
				{
					"internalType": "contract ERC20",
					"name": "erc20",
					"type": "address"
				}
			],
			"name": "resolveConflictPayment",
			"outputs": [],
			"stateMutability": "nonpayable",
			"type": "function"
		},
		{
			"inputs": [
				{
					"internalType": "uint256",
					"name": "projectNumber",
					"type": "uint256"
				},
				{
					"internalType": "uint256",
					"name": "serviceNumber",
					"type": "uint256"
				},
				{
					"internalType": "uint256",
					"name": "milestoneNumber",
					"type": "uint256"
				},
				{
					"internalType": "address",
					"name": "_from",
					"type": "address"
				},
				{
					"internalType": "string",
					"name": "review_input",
					"type": "string"
				},
				{
					"internalType": "uint256",
					"name": "star_rating",
					"type": "uint256"
				}
			],
			"name": "reviewMilestone",
			"outputs": [],
			"stateMutability": "nonpayable",
			"type": "function"
		},
		{
			"inputs": [
				{
					"internalType": "uint256",
					"name": "projectNumber",
					"type": "uint256"
				},
				{
					"internalType": "uint256",
					"name": "serviceNumber",
					"type": "uint256"
				},
				{
					"internalType": "uint256",
					"name": "milestoneNumber",
					"type": "uint256"
				}
			],
			"name": "startVote",
			"outputs": [],
			"stateMutability": "nonpayable",
			"type": "function"
		},
		{
			"inputs": [
				{
					"internalType": "uint256",
					"name": "projectNumber",
					"type": "uint256"
				},
				{
					"internalType": "uint256",
					"name": "serviceNumber",
					"type": "uint256"
				},
				{
					"internalType": "uint256",
					"name": "milestoneNumber",
					"type": "uint256"
				},
				{
					"internalType": "string",
					"name": "title",
					"type": "string"
				},
				{
					"internalType": "string",
					"name": "description",
					"type": "string"
				}
			],
			"name": "updateConflict",
			"outputs": [],
			"stateMutability": "nonpayable",
			"type": "function"
		},
		{
			"inputs": [
				{
					"internalType": "uint256",
					"name": "projectNumber",
					"type": "uint256"
				},
				{
					"internalType": "uint256",
					"name": "serviceNumber",
					"type": "uint256"
				},
				{
					"internalType": "uint256",
					"name": "milestoneNumber",
					"type": "uint256"
				},
				{
					"internalType": "string",
					"name": "titleMilestone",
					"type": "string"
				},
				{
					"internalType": "string",
					"name": "descriptionMilestone",
					"type": "string"
				}
			],
			"name": "updateMilestone",
			"outputs": [],
			"stateMutability": "nonpayable",
			"type": "function"
		},
		{
			"inputs": [
				{
					"internalType": "uint256",
					"name": "projectNumber",
					"type": "uint256"
				},
				{
					"internalType": "string",
					"name": "title",
					"type": "string"
				},
				{
					"internalType": "string",
					"name": "description",
					"type": "string"
				}
			],
			"name": "updateProject",
			"outputs": [],
			"stateMutability": "nonpayable",
			"type": "function"
		},
		{
			"inputs": [
				{
					"internalType": "uint256",
					"name": "projectNumber",
					"type": "uint256"
				},
				{
					"internalType": "uint256",
					"name": "serviceNumber",
					"type": "uint256"
				},
				{
					"internalType": "string",
					"name": "title",
					"type": "string"
				},
				{
					"internalType": "string",
					"name": "description",
					"type": "string"
				},
				{
					"internalType": "uint256",
					"name": "price",
					"type": "uint256"
				},
				{
					"internalType": "enum States.ServiceStatus",
					"name": "status",
					"type": "uint8"
				}
			],
			"name": "updateService",
			"outputs": [],
			"stateMutability": "nonpayable",
			"type": "function"
		},
		{
			"inputs": [
				{
					"internalType": "uint256",
					"name": "projectNumber",
					"type": "uint256"
				},
				{
					"internalType": "uint256",
					"name": "serviceNumber",
					"type": "uint256"
				},
				{
					"internalType": "uint256",
					"name": "milestoneNumber",
					"type": "uint256"
				},
				{
					"internalType": "address",
					"name": "sender",
					"type": "address"
				},
				{
					"internalType": "uint8",
					"name": "vote",
					"type": "uint8"
				}
			],
			"name": "voteConflict",
			"outputs": [],
			"stateMutability": "nonpayable",
			"type": "function"
		}
	]
}