{
	"data": {
		"bytecode": {
			"linkReferences": {},
			"object": "6080604052600060015560006002553480156200001b57600080fd5b506040516200425b3803806200425b83398181016040528101906200004191906200009f565b806000806101000a81548173ffffffffffffffffffffffffffffffffffffffff021916908373ffffffffffffffffffffffffffffffffffffffff1602179055505062000138565b60008151905062000099816200011e565b92915050565b600060208284031215620000b857620000b762000119565b5b6000620000c88482850162000088565b91505092915050565b6000620000de82620000f9565b9050919050565b6000620000f282620000d1565b9050919050565b600073ffffffffffffffffffffffffffffffffffffffff82169050919050565b600080fd5b6200012981620000e5565b81146200013557600080fd5b50565b61411380620001486000396000f3fe608060405234801561001057600080fd5b50600436106101d95760003560e01c80638c749c7411610104578063c171bdf7116100a2578063d1e992a711610071578063d1e992a71461054b578063e731ac4514610567578063f0f238ce14610583578063fd23c4bb1461059f576101d9565b8063c171bdf7146104b3578063c304ccdc146104cf578063c3b9e304146104ff578063ccee835b1461051b576101d9565b8063a0b5d6c8116100de578063a0b5d6c81461042d578063ace731bd1461044b578063b9b6c5d41461047b578063bba93c0b14610497576101d9565b80638c749c74146103c557806392256aec146103e15780639c87a5e914610411576101d9565b80634cd0cb281161017c578063664fc0cd1161014b578063664fc0cd146103415780636bd06204146103715780637d3ebecd1461038d5780638c4c1347146103a9576101d9565b80634cd0cb28146102d1578063529884e7146102ed57806353c49c641461030957806363ef8a5014610325576101d9565b8063107046bd116101b8578063107046bd1461023257806312327a661461026757806314da947b1461029757806346c1966a146102b3576101d9565b80623f489f146101de578063010dfd93146101fa57806308c6f4ab14610216575b600080fd5b6101f860048036038101906101f39190613287565b6105bb565b005b610214600480360381019061020f91906131c2565b6106dc565b005b610230600480360381019061022b9190613287565b6108ab565b005b61024c60048036038101906102479190612f58565b6109cd565b60405161025e96959493929190613860565b60405180910390f35b610281600480360381019061027c9190612f58565b610b53565b60405161028e91906136d4565b60405180910390f35b6102b160048036038101906102ac91906130d0565b610d78565b005b6102bb610e9c565b6040516102c89190613776565b60405180910390f35b6102eb60048036038101906102e69190612f58565b610ea2565b005b610307600480360381019061030291906130d0565b611155565b005b610323600480360381019061031e919061303d565b611277565b005b61033f600480360381019061033a9190613123565b61143e565b005b61035b6004803603810190610356919061303d565b61160b565b6040516103689190613776565b60405180910390f35b61038b60048036038101906103869190612ee0565b6116c1565b005b6103a760048036038101906103a29190612fb2565b611818565b005b6103c360048036038101906103be9190612fb2565b6119e4565b005b6103df60048036038101906103da919061307d565b611ca1565b005b6103fb60048036038101906103f69190612f58565b611dc3565b60405161040891906136b9565b60405180910390f35b61042b60048036038101906104269190613287565b611dec565b005b610435611f0e565b6040516104429190613776565b60405180910390f35b61046560048036038101906104609190613287565b611f14565b60405161047291906136d4565b60405180910390f35b61049560048036038101906104909190613287565b61205e565b005b6104b160048036038101906104ac91906132da565b612228565b005b6104cd60048036038101906104c89190613383565b6122c5565b005b6104e960048036038101906104e4919061303d565b6123ed565b6040516104f691906136d4565b60405180910390f35b61051960048036038101906105149190613287565b612534565b005b6105356004803603810190610530919061303d565b612656565b6040516105429190613776565b60405180910390f35b610565600480360381019061056091906133fe565b61270c565b005b610581600480360381019061057c91906134b1565b612834565b005b61059d6004803603810190610598919061307d565b612962565b005b6105b960048036038101906105b491906133fe565b612a84565b005b8260008060028111156105d1576105d0613e49565b5b6003600084815260200190815260200160002060030160159054906101000a900460ff16600281111561060757610606613e49565b5b14610647576040517f08c379a000000000000000000000000000000000000000000000000000000000815260040161063e90613716565b60405180910390fd5b60008054906101000a900473ffffffffffffffffffffffffffffffffffffffff1673ffffffffffffffffffffffffffffffffffffffff16623f489f8686866040518463ffffffff1660e01b81526004016106a3939291906139fe565b600060405180830381600087803b1580156106bd57600080fd5b505af11580156106d1573d6000803e3d6000fd5b505050505050505050565b85338073ffffffffffffffffffffffffffffffffffffffff166003600084815260200190815260200160002060030160009054906101000a900473ffffffffffffffffffffffffffffffffffffffff1673ffffffffffffffffffffffffffffffffffffffff1614610782576040517f08c379a000000000000000000000000000000000000000000000000000000000815260040161077990613736565b60405180910390fd5b87600080600281111561079857610797613e49565b5b6003600084815260200190815260200160002060030160159054906101000a900460ff1660028111156107ce576107cd613e49565b5b1461080e576040517f08c379a000000000000000000000000000000000000000000000000000000000815260040161080590613716565b60405180910390fd5b60008054906101000a900473ffffffffffffffffffffffffffffffffffffffff1673ffffffffffffffffffffffffffffffffffffffff16631c746e668b8b8b8b6040518563ffffffff1660e01b815260040161086d94939291906139ab565b600060405180830381600087803b15801561088757600080fd5b505af115801561089b573d6000803e3d6000fd5b5050505050505050505050505050565b8260008060028111156108c1576108c0613e49565b5b6003600084815260200190815260200160002060030160159054906101000a900460ff1660028111156108f7576108f6613e49565b5b14610937576040517f08c379a000000000000000000000000000000000000000000000000000000000815260040161092e90613716565b60405180910390fd5b60008054906101000a900473ffffffffffffffffffffffffffffffffffffffff1673ffffffffffffffffffffffffffffffffffffffff166308c6f4ab8686866040518463ffffffff1660e01b8152600401610994939291906139fe565b600060405180830381600087803b1580156109ae57600080fd5b505af11580156109c2573d6000803e3d6000fd5b505050505050505050565b60036020528060005260406000206000915090508060000154908060010180546109f690613d6e565b80601f0160208091040260200160405190810160405280929190818152602001828054610a2290613d6e565b8015610a6f5780601f10610a4457610100808354040283529160200191610a6f565b820191906000526020600020905b815481529060010190602001808311610a5257829003601f168201915b505050505090806002018054610a8490613d6e565b80601f0160208091040260200160405190810160405280929190818152602001828054610ab090613d6e565b8015610afd5780601f10610ad257610100808354040283529160200191610afd565b820191906000526020600020905b815481529060010190602001808311610ae057829003601f168201915b5050505050908060030160009054906101000a900473ffffffffffffffffffffffffffffffffffffffff16908060030160149054906101000a900460ff16908060030160159054906101000a900460ff16905086565b6060816003600082815260200190815260200160002060030160149054906101000a900460ff16610bb9576040517f08c379a0000000000000000000000000000000000000000000000000000000008152600401610bb090613756565b60405180910390fd5b60006002811115610bcd57610bcc613e49565b5b6003600083815260200190815260200160002060030160159054906101000a900460ff166002811115610c0357610c02613e49565b5b14610c43576040517f08c379a0000000000000000000000000000000000000000000000000000000008152600401610c3a906136f6565b60405180910390fd5b826000806002811115610c5957610c58613e49565b5b6003600084815260200190815260200160002060030160159054906101000a900460ff166002811115610c8f57610c8e613e49565b5b14610ccf576040517f08c379a0000000000000000000000000000000000000000000000000000000008152600401610cc690613716565b60405180910390fd5b600360008681526020019081526020016000206001018054610cf090613d6e565b80601f0160208091040260200160405190810160405280929190818152602001828054610d1c90613d6e565b8015610d695780601f10610d3e57610100808354040283529160200191610d69565b820191906000526020600020905b815481529060010190602001808311610d4c57829003601f168201915b50505050509350505050919050565b826000806002811115610d8e57610d8d613e49565b5b6003600084815260200190815260200160002060030160159054906101000a900460ff166002811115610dc457610dc3613e49565b5b14610e04576040517f08c379a0000000000000000000000000000000000000000000000000000000008152600401610dfb90613716565b60405180910390fd5b60008054906101000a900473ffffffffffffffffffffffffffffffffffffffff1673ffffffffffffffffffffffffffffffffffffffff1663ddb2ff1f868633876040518563ffffffff1660e01b8152600401610e639493929190613966565b600060405180830381600087803b158015610e7d57600080fd5b505af1158015610e91573d6000803e3d6000fd5b505050505050505050565b60015481565b806003600082815260200190815260200160002060030160149054906101000a900460ff16610f06576040517f08c379a0000000000000000000000000000000000000000000000000000000008152600401610efd90613756565b60405180910390fd5b60006002811115610f1a57610f19613e49565b5b6003600083815260200190815260200160002060030160159054906101000a900460ff166002811115610f5057610f4f613e49565b5b14610f90576040517f08c379a0000000000000000000000000000000000000000000000000000000008152600401610f87906136f6565b60405180910390fd5b81338073ffffffffffffffffffffffffffffffffffffffff166003600084815260200190815260200160002060030160009054906101000a900473ffffffffffffffffffffffffffffffffffffffff1673ffffffffffffffffffffffffffffffffffffffff1614611036576040517f08c379a000000000000000000000000000000000000000000000000000000000815260040161102d90613736565b60405180910390fd5b83600080600281111561104c5761104b613e49565b5b6003600084815260200190815260200160002060030160159054906101000a900460ff16600281111561108257611081613e49565b5b146110c2576040517f08c379a00000000000000000000000000000000000000000000000000000000081526004016110b990613716565b60405180910390fd5b60006003600088815260200190815260200160002060030160146101000a81548160ff0219169083151502179055506001600081548092919061110490613d44565b9190505550611114866001612c54565b7fbc32a4d12940b4c2b257f4f9fb0d3d970f3c1ecab860aadbc59f95f58d9a02f28633604051611145929190613791565b60405180910390a1505050505050565b82600080600281111561116b5761116a613e49565b5b6003600084815260200190815260200160002060030160159054906101000a900460ff1660028111156111a1576111a0613e49565b5b146111e1576040517f08c379a00000000000000000000000000000000000000000000000000000000081526004016111d890613716565b60405180910390fd5b60008054906101000a900473ffffffffffffffffffffffffffffffffffffffff1673ffffffffffffffffffffffffffffffffffffffff1663529884e78686866040518463ffffffff1660e01b815260040161123e9392919061392f565b600060405180830381600087803b15801561125857600080fd5b505af115801561126c573d6000803e3d6000fd5b505050505050505050565b81338073ffffffffffffffffffffffffffffffffffffffff166003600084815260200190815260200160002060030160009054906101000a900473ffffffffffffffffffffffffffffffffffffffff1673ffffffffffffffffffffffffffffffffffffffff161461131d576040517f08c379a000000000000000000000000000000000000000000000000000000000815260040161131490613736565b60405180910390fd5b83600080600281111561133357611332613e49565b5b6003600084815260200190815260200160002060030160159054906101000a900460ff16600281111561136957611368613e49565b5b146113a9576040517f08c379a00000000000000000000000000000000000000000000000000000000081526004016113a090613716565b60405180910390fd5b60008054906101000a900473ffffffffffffffffffffffffffffffffffffffff1673ffffffffffffffffffffffffffffffffffffffff166353c49c6487876040518363ffffffff1660e01b81526004016114049291906138cf565b600060405180830381600087803b15801561141e57600080fd5b505af1158015611432573d6000803e3d6000fd5b50505050505050505050565b83338073ffffffffffffffffffffffffffffffffffffffff166003600084815260200190815260200160002060030160009054906101000a900473ffffffffffffffffffffffffffffffffffffffff1673ffffffffffffffffffffffffffffffffffffffff16146114e4576040517f08c379a00000000000000000000000000000000000000000000000000000000081526004016114db90613736565b60405180910390fd5b8560008060028111156114fa576114f9613e49565b5b6003600084815260200190815260200160002060030160159054906101000a900460ff1660028111156115305761152f613e49565b5b14611570576040517f08c379a000000000000000000000000000000000000000000000000000000000815260040161156790613716565b60405180910390fd5b60008054906101000a900473ffffffffffffffffffffffffffffffffffffffff1673ffffffffffffffffffffffffffffffffffffffff166363ef8a50898989896040518563ffffffff1660e01b81526004016115cf94939291906139ab565b600060405180830381600087803b1580156115e957600080fd5b505af11580156115fd573d6000803e3d6000fd5b505050505050505050505050565b60008060009054906101000a900473ffffffffffffffffffffffffffffffffffffffff1673ffffffffffffffffffffffffffffffffffffffff1663664fc0cd84846040518363ffffffff1660e01b81526004016116699291906138cf565b60206040518083038186803b15801561168157600080fd5b505afa158015611695573d6000803e3d6000fd5b505050506040513d601f19601f820116820180604052508101906116b99190612f85565b905092915050565b600060036000600254815260200190815260200160002090506002548160000181905550828160010190805190602001906116fd929190612c96565b5081816002019080519060200190611716929190612c96565b50338160030160006101000a81548173ffffffffffffffffffffffffffffffffffffffff021916908373ffffffffffffffffffffffffffffffffffffffff16021790555060018160030160146101000a81548160ff02191690831515021790555060008160030160156101000a81548160ff0219169083600281111561179f5761179e613e49565b5b02179055507f7a3b5d8db9438bf836c0fb30607ce953914da2c67fc74fc21ed59a788ec7bd4d6002548484336040516117db94939291906137ba565b60405180910390a1600160008154809291906117f690613dd1565b91905055506002600081548092919061180e90613dd1565b9190505550505050565b82338073ffffffffffffffffffffffffffffffffffffffff166003600084815260200190815260200160002060030160009054906101000a900473ffffffffffffffffffffffffffffffffffffffff1673ffffffffffffffffffffffffffffffffffffffff16146118be576040517f08c379a00000000000000000000000000000000000000000000000000000000081526004016118b590613736565b60405180910390fd5b8460008060028111156118d4576118d3613e49565b5b6003600084815260200190815260200160002060030160159054906101000a900460ff16600281111561190a57611909613e49565b5b1461194a576040517f08c379a000000000000000000000000000000000000000000000000000000000815260040161194190613716565b60405180910390fd5b60008054906101000a900473ffffffffffffffffffffffffffffffffffffffff1673ffffffffffffffffffffffffffffffffffffffff1663a19bffbe888888336040518563ffffffff1660e01b81526004016119a9949392919061380d565b600060405180830381600087803b1580156119c357600080fd5b505af11580156119d7573d6000803e3d6000fd5b5050505050505050505050565b826003600082815260200190815260200160002060030160149054906101000a900460ff16611a48576040517f08c379a0000000000000000000000000000000000000000000000000000000008152600401611a3f90613756565b60405180910390fd5b60006002811115611a5c57611a5b613e49565b5b6003600083815260200190815260200160002060030160159054906101000a900460ff166002811115611a9257611a91613e49565b5b14611ad2576040517f08c379a0000000000000000000000000000000000000000000000000000000008152600401611ac9906136f6565b60405180910390fd5b83338073ffffffffffffffffffffffffffffffffffffffff166003600084815260200190815260200160002060030160009054906101000a900473ffffffffffffffffffffffffffffffffffffffff1673ffffffffffffffffffffffffffffffffffffffff1614611b78576040517f08c379a0000000000000000000000000000000000000000000000000000000008152600401611b6f90613736565b60405180910390fd5b856000806002811115611b8e57611b8d613e49565b5b6003600084815260200190815260200160002060030160159054906101000a900460ff166002811115611bc457611bc3613e49565b5b14611c04576040517f08c379a0000000000000000000000000000000000000000000000000000000008152600401611bfb90613716565b60405180910390fd5b86600360008a81526020019081526020016000206001019080519060200190611c2e929190612c96565b5085600360008a81526020019081526020016000206002019080519060200190611c59929190612c96565b507f852cf61204784de3e6ae76789a9350f086aeabac7957c2b16d22d683c56e2c1c88888833604051611c8f94939291906137ba565b60405180910390a15050505050505050565b826000806002811115611cb757611cb6613e49565b5b6003600084815260200190815260200160002060030160159054906101000a900460ff166002811115611ced57611cec613e49565b5b14611d2d576040517f08c379a0000000000000000000000000000000000000000000000000000000008152600401611d2490613716565b60405180910390fd5b60008054906101000a900473ffffffffffffffffffffffffffffffffffffffff1673ffffffffffffffffffffffffffffffffffffffff16638c749c748686866040518463ffffffff1660e01b8152600401611d8a939291906138f8565b600060405180830381600087803b158015611da457600080fd5b505af1158015611db8573d6000803e3d6000fd5b505050505050505050565b60006003600083815260200190815260200160002060030160009054906101000a905050919050565b826000806002811115611e0257611e01613e49565b5b6003600084815260200190815260200160002060030160159054906101000a900460ff166002811115611e3857611e37613e49565b5b14611e78576040517f08c379a0000000000000000000000000000000000000000000000000000000008152600401611e6f90613716565b60405180910390fd5b60008054906101000a900473ffffffffffffffffffffffffffffffffffffffff1673ffffffffffffffffffffffffffffffffffffffff16639c87a5e98686866040518463ffffffff1660e01b8152600401611ed5939291906139fe565b600060405180830381600087803b158015611eef57600080fd5b505af1158015611f03573d6000803e3d6000fd5b505050505050505050565b60025481565b6060836000806002811115611f2c57611f2b613e49565b5b6003600084815260200190815260200160002060030160159054906101000a900460ff166002811115611f6257611f61613e49565b5b14611fa2576040517f08c379a0000000000000000000000000000000000000000000000000000000008152600401611f9990613716565b60405180910390fd5b60008054906101000a900473ffffffffffffffffffffffffffffffffffffffff1673ffffffffffffffffffffffffffffffffffffffff1663ace731bd8787876040518463ffffffff1660e01b8152600401611fff939291906139fe565b60006040518083038186803b15801561201757600080fd5b505afa15801561202b573d6000803e3d6000fd5b505050506040513d6000823e3d601f19601f820116820180604052508101906120549190612e97565b5050509392505050565b82338073ffffffffffffffffffffffffffffffffffffffff166003600084815260200190815260200160002060030160009054906101000a900473ffffffffffffffffffffffffffffffffffffffff1673ffffffffffffffffffffffffffffffffffffffff1614612104576040517f08c379a00000000000000000000000000000000000000000000000000000000081526004016120fb90613736565b60405180910390fd5b84600080600281111561211a57612119613e49565b5b6003600084815260200190815260200160002060030160159054906101000a900460ff1660028111156121505761214f613e49565b5b14612190576040517f08c379a000000000000000000000000000000000000000000000000000000000815260040161218790613716565b60405180910390fd5b60008054906101000a900473ffffffffffffffffffffffffffffffffffffffff1673ffffffffffffffffffffffffffffffffffffffff1663b9b6c5d48888886040518463ffffffff1660e01b81526004016121ed939291906139fe565b600060405180830381600087803b15801561220757600080fd5b505af115801561221b573d6000803e3d6000fd5b5050505050505050505050565b60008054906101000a900473ffffffffffffffffffffffffffffffffffffffff1673ffffffffffffffffffffffffffffffffffffffff1663bba93c0b8787878787876040518763ffffffff1660e01b815260040161228b96959493929190613a35565b600060405180830381600087803b1580156122a557600080fd5b505af11580156122b9573d6000803e3d6000fd5b50505050505050505050565b8460008060028111156122db576122da613e49565b5b6003600084815260200190815260200160002060030160159054906101000a900460ff16600281111561231157612310613e49565b5b14612351576040517f08c379a000000000000000000000000000000000000000000000000000000000815260040161234890613716565b60405180910390fd5b60008054906101000a900473ffffffffffffffffffffffffffffffffffffffff1673ffffffffffffffffffffffffffffffffffffffff1663c171bdf788888888886040518663ffffffff1660e01b81526004016123b2959493929190613a9d565b600060405180830381600087803b1580156123cc57600080fd5b505af11580156123e0573d6000803e3d6000fd5b5050505050505050505050565b606082600080600281111561240557612404613e49565b5b6003600084815260200190815260200160002060030160159054906101000a900460ff16600281111561243b5761243a613e49565b5b1461247b576040517f08c379a000000000000000000000000000000000000000000000000000000000815260040161247290613716565b60405180910390fd5b60008054906101000a900473ffffffffffffffffffffffffffffffffffffffff1673ffffffffffffffffffffffffffffffffffffffff1663c304ccdc86866040518363ffffffff1660e01b81526004016124d69291906138cf565b60006040518083038186803b1580156124ee57600080fd5b505afa158015612502573d6000803e3d6000fd5b505050506040513d6000823e3d601f19601f8201168201806040525081019061252b9190612e97565b50505092915050565b82600080600281111561254a57612549613e49565b5b6003600084815260200190815260200160002060030160159054906101000a900460ff1660028111156125805761257f613e49565b5b146125c0576040517f08c379a00000000000000000000000000000000000000000000000000000000081526004016125b790613716565b60405180910390fd5b60008054906101000a900473ffffffffffffffffffffffffffffffffffffffff1673ffffffffffffffffffffffffffffffffffffffff1663c3b9e3048686866040518463ffffffff1660e01b815260040161261d939291906139fe565b600060405180830381600087803b15801561263757600080fd5b505af115801561264b573d6000803e3d6000fd5b505050505050505050565b60008060009054906101000a900473ffffffffffffffffffffffffffffffffffffffff1673ffffffffffffffffffffffffffffffffffffffff1663ccee835b84846040518363ffffffff1660e01b81526004016126b49291906138cf565b60206040518083038186803b1580156126cc57600080fd5b505afa1580156126e0573d6000803e3d6000fd5b505050506040513d601f19601f820116820180604052508101906127049190612f85565b905092915050565b84600080600281111561272257612721613e49565b5b6003600084815260200190815260200160002060030160159054906101000a900460ff16600281111561275857612757613e49565b5b14612798576040517f08c379a000000000000000000000000000000000000000000000000000000000815260040161278f90613716565b60405180910390fd5b60008054906101000a900473ffffffffffffffffffffffffffffffffffffffff1673ffffffffffffffffffffffffffffffffffffffff1663d1e992a788888888886040518663ffffffff1660e01b81526004016127f9959493929190613af0565b600060405180830381600087803b15801561281357600080fd5b505af1158015612827573d6000803e3d6000fd5b5050505050505050505050565b86600080600281111561284a57612849613e49565b5b6003600084815260200190815260200160002060030160159054906101000a900460ff1660028111156128805761287f613e49565b5b146128c0576040517f08c379a00000000000000000000000000000000000000000000000000000000081526004016128b790613716565b60405180910390fd5b60008054906101000a900473ffffffffffffffffffffffffffffffffffffffff1673ffffffffffffffffffffffffffffffffffffffff1663e731ac458a8a8a8a8a8a8a6040518863ffffffff1660e01b81526004016129259796959493929190613b51565b600060405180830381600087803b15801561293f57600080fd5b505af1158015612953573d6000803e3d6000fd5b50505050505050505050505050565b82600080600281111561297857612977613e49565b5b6003600084815260200190815260200160002060030160159054906101000a900460ff1660028111156129ae576129ad613e49565b5b146129ee576040517f08c379a00000000000000000000000000000000000000000000000000000000081526004016129e590613716565b60405180910390fd5b60008054906101000a900473ffffffffffffffffffffffffffffffffffffffff1673ffffffffffffffffffffffffffffffffffffffff1663f0f238ce8686866040518463ffffffff1660e01b8152600401612a4b939291906138f8565b600060405180830381600087803b158015612a6557600080fd5b505af1158015612a79573d6000803e3d6000fd5b505050505050505050565b84338073ffffffffffffffffffffffffffffffffffffffff166003600084815260200190815260200160002060030160009054906101000a900473ffffffffffffffffffffffffffffffffffffffff1673ffffffffffffffffffffffffffffffffffffffff1614612b2a576040517f08c379a0000000000000000000000000000000000000000000000000000000008152600401612b2190613736565b60405180910390fd5b866000806002811115612b4057612b3f613e49565b5b6003600084815260200190815260200160002060030160159054906101000a900460ff166002811115612b7657612b75613e49565b5b14612bb6576040517f08c379a0000000000000000000000000000000000000000000000000000000008152600401612bad90613716565b60405180910390fd5b60008054906101000a900473ffffffffffffffffffffffffffffffffffffffff1673ffffffffffffffffffffffffffffffffffffffff1663fd23c4bb8a8a8a8a8a6040518663ffffffff1660e01b8152600401612c17959493929190613af0565b600060405180830381600087803b158015612c3157600080fd5b505af1158015612c45573d6000803e3d6000fd5b50505050505050505050505050565b806003600084815260200190815260200160002060030160156101000a81548160ff02191690836002811115612c8d57612c8c613e49565b5b02179055505050565b828054612ca290613d6e565b90600052602060002090601f016020900481019282612cc45760008555612d0b565b82601f10612cdd57805160ff1916838001178555612d0b565b82800160010185558215612d0b579182015b82811115612d0a578251825591602001919060010190612cef565b5b509050612d189190612d1c565b5090565b5b80821115612d35576000816000905550600101612d1d565b5090565b6000612d4c612d4784613bf3565b613bce565b905082815260208101848484011115612d6857612d67613edb565b5b612d73848285613d02565b509392505050565b6000612d8e612d8984613bf3565b613bce565b905082815260208101848484011115612daa57612da9613edb565b5b612db5848285613d11565b509392505050565b600081359050612dcc81614071565b92915050565b600081359050612de181614088565b92915050565b600081359050612df68161409f565b92915050565b600082601f830112612e1157612e10613ed6565b5b8135612e21848260208601612d39565b91505092915050565b600082601f830112612e3f57612e3e613ed6565b5b8151612e4f848260208601612d7b565b91505092915050565b600081359050612e67816140af565b92915050565b600081519050612e7c816140af565b92915050565b600081359050612e91816140c6565b92915050565b600060208284031215612ead57612eac613ee5565b5b600082015167ffffffffffffffff811115612ecb57612eca613ee0565b5b612ed784828501612e2a565b91505092915050565b60008060408385031215612ef757612ef6613ee5565b5b600083013567ffffffffffffffff811115612f1557612f14613ee0565b5b612f2185828601612dfc565b925050602083013567ffffffffffffffff811115612f4257612f41613ee0565b5b612f4e85828601612dfc565b9150509250929050565b600060208284031215612f6e57612f6d613ee5565b5b6000612f7c84828501612e58565b91505092915050565b600060208284031215612f9b57612f9a613ee5565b5b6000612fa984828501612e6d565b91505092915050565b600080600060608486031215612fcb57612fca613ee5565b5b6000612fd986828701612e58565b935050602084013567ffffffffffffffff811115612ffa57612ff9613ee0565b5b61300686828701612dfc565b925050604084013567ffffffffffffffff81111561302757613026613ee0565b5b61303386828701612dfc565b9150509250925092565b6000806040838503121561305457613053613ee5565b5b600061306285828601612e58565b925050602061307385828601612e58565b9150509250929050565b60008060006060848603121561309657613095613ee5565b5b60006130a486828701612e58565b93505060206130b586828701612e58565b92505060406130c686828701612dbd565b9150509250925092565b6000806000606084860312156130e9576130e8613ee5565b5b60006130f786828701612e58565b935050602061310886828701612e58565b925050604061311986828701612dd2565b9150509250925092565b6000806000806080858703121561313d5761313c613ee5565b5b600061314b87828801612e58565b945050602061315c87828801612e58565b935050604085013567ffffffffffffffff81111561317d5761317c613ee0565b5b61318987828801612dfc565b925050606085013567ffffffffffffffff8111156131aa576131a9613ee0565b5b6131b687828801612dfc565b91505092959194509250565b60008060008060008060c087890312156131df576131de613ee5565b5b60006131ed89828a01612e58565b96505060206131fe89828a01612e58565b955050604087013567ffffffffffffffff81111561321f5761321e613ee0565b5b61322b89828a01612dfc565b945050606087013567ffffffffffffffff81111561324c5761324b613ee0565b5b61325889828a01612dfc565b935050608061326989828a01612e58565b92505060a061327a89828a01612de7565b9150509295509295509295565b6000806000606084860312156132a05761329f613ee5565b5b60006132ae86828701612e58565b93505060206132bf86828701612e58565b92505060406132d086828701612e58565b9150509250925092565b60008060008060008060c087890312156132f7576132f6613ee5565b5b600061330589828a01612e58565b965050602061331689828a01612e58565b955050604061332789828a01612e58565b945050606061333889828a01612dbd565b935050608087013567ffffffffffffffff81111561335957613358613ee0565b5b61336589828a01612dfc565b92505060a061337689828a01612e58565b9150509295509295509295565b600080600080600060a0868803121561339f5761339e613ee5565b5b60006133ad88828901612e58565b95505060206133be88828901612e58565b94505060406133cf88828901612e58565b93505060606133e088828901612dbd565b92505060806133f188828901612e82565b9150509295509295909350565b600080600080600060a0868803121561341a57613419613ee5565b5b600061342888828901612e58565b955050602061343988828901612e58565b945050604061344a88828901612e58565b935050606086013567ffffffffffffffff81111561346b5761346a613ee0565b5b61347788828901612dfc565b925050608086013567ffffffffffffffff81111561349857613497613ee0565b5b6134a488828901612dfc565b9150509295509295909350565b600080600080600080600060e0888a0312156134d0576134cf613ee5565b5b60006134de8a828b01612e58565b97505060206134ef8a828b01612e58565b96505060406135008a828b01612e58565b955050606088013567ffffffffffffffff81111561352157613520613ee0565b5b61352d8a828b01612dfc565b945050608088013567ffffffffffffffff81111561354e5761354d613ee0565b5b61355a8a828b01612dfc565b93505060a061356b8a828b01612dbd565b92505060c061357c8a828b01612e58565b91505092959891949750929550565b61359481613cba565b82525050565b6135a381613c52565b82525050565b6135b281613c40565b82525050565b6135c181613c64565b82525050565b6135d081613ccc565b82525050565b60006135e182613c24565b6135eb8185613c2f565b93506135fb818560208601613d11565b61360481613eea565b840191505092915050565b600061361c602183613c2f565b915061362782613efb565b604082019050919050565b600061363f602083613c2f565b915061364a82613f4a565b602082019050919050565b6000613662604683613c2f565b915061366d82613f73565b606082019050919050565b6000613685604283613c2f565b915061369082613fe8565b606082019050919050565b6136a481613ca3565b82525050565b6136b381613cad565b82525050565b60006020820190506136ce60008301846135a9565b92915050565b600060208201905081810360008301526136ee81846135d6565b905092915050565b6000602082019050818103600083015261370f8161360f565b9050919050565b6000602082019050818103600083015261372f81613632565b9050919050565b6000602082019050818103600083015261374f81613655565b9050919050565b6000602082019050818103600083015261376f81613678565b9050919050565b600060208201905061378b600083018461369b565b92915050565b60006040820190506137a6600083018561369b565b6137b360208301846135a9565b9392505050565b60006080820190506137cf600083018761369b565b81810360208301526137e181866135d6565b905081810360408301526137f581856135d6565b905061380460608301846135a9565b95945050505050565b6000608082019050613822600083018761369b565b818103602083015261383481866135d6565b9050818103604083015261384881856135d6565b9050613857606083018461359a565b95945050505050565b600060c082019050613875600083018961369b565b818103602083015261388781886135d6565b9050818103604083015261389b81876135d6565b90506138aa60608301866135a9565b6138b760808301856135b8565b6138c460a08301846135c7565b979650505050505050565b60006040820190506138e4600083018561369b565b6138f1602083018461369b565b9392505050565b600060608201905061390d600083018661369b565b61391a602083018561369b565b61392760408301846135a9565b949350505050565b6000606082019050613944600083018661369b565b613951602083018561369b565b61395e604083018461358b565b949350505050565b600060808201905061397b600083018761369b565b613988602083018661369b565b61399560408301856135a9565b6139a2606083018461359a565b95945050505050565b60006080820190506139c0600083018761369b565b6139cd602083018661369b565b81810360408301526139df81856135d6565b905081810360608301526139f381846135d6565b905095945050505050565b6000606082019050613a13600083018661369b565b613a20602083018561369b565b613a2d604083018461369b565b949350505050565b600060c082019050613a4a600083018961369b565b613a57602083018861369b565b613a64604083018761369b565b613a7160608301866135a9565b8181036080830152613a8381856135d6565b9050613a9260a083018461369b565b979650505050505050565b600060a082019050613ab2600083018861369b565b613abf602083018761369b565b613acc604083018661369b565b613ad960608301856135a9565b613ae660808301846136aa565b9695505050505050565b600060a082019050613b05600083018861369b565b613b12602083018761369b565b613b1f604083018661369b565b8181036060830152613b3181856135d6565b90508181036080830152613b4581846135d6565b90509695505050505050565b600060e082019050613b66600083018a61369b565b613b73602083018961369b565b613b80604083018861369b565b8181036060830152613b9281876135d6565b90508181036080830152613ba681866135d6565b9050613bb560a08301856135a9565b613bc260c083018461369b565b98975050505050505050565b6000613bd8613be9565b9050613be48282613da0565b919050565b6000604051905090565b600067ffffffffffffffff821115613c0e57613c0d613ea7565b5b613c1782613eea565b9050602081019050919050565b600081519050919050565b600082825260208201905092915050565b6000613c4b82613c83565b9050919050565b6000613c5d82613c83565b9050919050565b60008115159050919050565b6000819050613c7e8261405d565b919050565b600073ffffffffffffffffffffffffffffffffffffffff82169050919050565b6000819050919050565b600060ff82169050919050565b6000613cc582613cde565b9050919050565b6000613cd782613c70565b9050919050565b6000613ce982613cf0565b9050919050565b6000613cfb82613c83565b9050919050565b82818337600083830152505050565b60005b83811015613d2f578082015181840152602081019050613d14565b83811115613d3e576000848401525b50505050565b6000613d4f82613ca3565b91506000821415613d6357613d62613e1a565b5b600182039050919050565b60006002820490506001821680613d8657607f821691505b60208210811415613d9a57613d99613e78565b5b50919050565b613da982613eea565b810181811067ffffffffffffffff82111715613dc857613dc7613ea7565b5b80604052505050565b6000613ddc82613ca3565b91507fffffffffffffffffffffffffffffffffffffffffffffffffffffffffffffffff821415613e0f57613e0e613e1a565b5b600182019050919050565b7f4e487b7100000000000000000000000000000000000000000000000000000000600052601160045260246000fd5b7f4e487b7100000000000000000000000000000000000000000000000000000000600052602160045260246000fd5b7f4e487b7100000000000000000000000000000000000000000000000000000000600052602260045260246000fd5b7f4e487b7100000000000000000000000000000000000000000000000000000000600052604160045260246000fd5b600080fd5b600080fd5b600080fd5b600080fd5b6000601f19601f8301169050919050565b7f546869732070726f6a656374206973206e6f206c6f6e6765722061637469766560008201527f2e00000000000000000000000000000000000000000000000000000000000000602082015250565b7f43616e6e6f74206361727279206f75742074686973206f7065726174696f6e21600082015250565b7f596f7520617265206e6f7420617574686f72697a656420746f2065646974207460008201527f6869732070726f6a65637420617320796f7520617265206e6f7420746865206360208201527f726561746f720000000000000000000000000000000000000000000000000000604082015250565b7f546869732070726f6a65637420686173206e6f74206265656e2063726561746560008201527f64207965742e20506c65617365206372656174652070726f6a6563742066697260208201527f7374000000000000000000000000000000000000000000000000000000000000604082015250565b6003811061406e5761406d613e49565b5b50565b61407a81613c40565b811461408557600080fd5b50565b61409181613c52565b811461409c57600080fd5b50565b600681106140ac57600080fd5b50565b6140b881613ca3565b81146140c357600080fd5b50565b6140cf81613cad565b81146140da57600080fd5b5056fea2646970667358221220ed811ac531305efd6c56af03b60924beb48072b85728e221e1a66a511c0dba9e64736f6c63430008070033",
			"opcodes": "PUSH1 0x80 PUSH1 0x40 MSTORE PUSH1 0x0 PUSH1 0x1 SSTORE PUSH1 0x0 PUSH1 0x2 SSTORE CALLVALUE DUP1 ISZERO PUSH3 0x1B JUMPI PUSH1 0x0 DUP1 REVERT JUMPDEST POP PUSH1 0x40 MLOAD PUSH3 0x425B CODESIZE SUB DUP1 PUSH3 0x425B DUP4 CODECOPY DUP2 DUP2 ADD PUSH1 0x40 MSTORE DUP2 ADD SWAP1 PUSH3 0x41 SWAP2 SWAP1 PUSH3 0x9F JUMP JUMPDEST DUP1 PUSH1 0x0 DUP1 PUSH2 0x100 EXP DUP2 SLOAD DUP2 PUSH20 0xFFFFFFFFFFFFFFFFFFFFFFFFFFFFFFFFFFFFFFFF MUL NOT AND SWAP1 DUP4 PUSH20 0xFFFFFFFFFFFFFFFFFFFFFFFFFFFFFFFFFFFFFFFF AND MUL OR SWAP1 SSTORE POP POP PUSH3 0x138 JUMP JUMPDEST PUSH1 0x0 DUP2 MLOAD SWAP1 POP PUSH3 0x99 DUP2 PUSH3 0x11E JUMP JUMPDEST SWAP3 SWAP2 POP POP JUMP JUMPDEST PUSH1 0x0 PUSH1 0x20 DUP3 DUP5 SUB SLT ISZERO PUSH3 0xB8 JUMPI PUSH3 0xB7 PUSH3 0x119 JUMP JUMPDEST JUMPDEST PUSH1 0x0 PUSH3 0xC8 DUP5 DUP3 DUP6 ADD PUSH3 0x88 JUMP JUMPDEST SWAP2 POP POP SWAP3 SWAP2 POP POP JUMP JUMPDEST PUSH1 0x0 PUSH3 0xDE DUP3 PUSH3 0xF9 JUMP JUMPDEST SWAP1 POP SWAP2 SWAP1 POP JUMP JUMPDEST PUSH1 0x0 PUSH3 0xF2 DUP3 PUSH3 0xD1 JUMP JUMPDEST SWAP1 POP SWAP2 SWAP1 POP JUMP JUMPDEST PUSH1 0x0 PUSH20 0xFFFFFFFFFFFFFFFFFFFFFFFFFFFFFFFFFFFFFFFF DUP3 AND SWAP1 POP SWAP2 SWAP1 POP JUMP JUMPDEST PUSH1 0x0 DUP1 REVERT JUMPDEST PUSH3 0x129 DUP2 PUSH3 0xE5 JUMP JUMPDEST DUP2 EQ PUSH3 0x135 JUMPI PUSH1 0x0 DUP1 REVERT JUMPDEST POP JUMP JUMPDEST PUSH2 0x4113 DUP1 PUSH3 0x148 PUSH1 0x0 CODECOPY PUSH1 0x0 RETURN INVALID PUSH1 0x80 PUSH1 0x40 MSTORE CALLVALUE DUP1 ISZERO PUSH2 0x10 JUMPI PUSH1 0x0 DUP1 REVERT JUMPDEST POP PUSH1 0x4 CALLDATASIZE LT PUSH2 0x1D9 JUMPI PUSH1 0x0 CALLDATALOAD PUSH1 0xE0 SHR DUP1 PUSH4 0x8C749C74 GT PUSH2 0x104 JUMPI DUP1 PUSH4 0xC171BDF7 GT PUSH2 0xA2 JUMPI DUP1 PUSH4 0xD1E992A7 GT PUSH2 0x71 JUMPI DUP1 PUSH4 0xD1E992A7 EQ PUSH2 0x54B JUMPI DUP1 PUSH4 0xE731AC45 EQ PUSH2 0x567 JUMPI DUP1 PUSH4 0xF0F238CE EQ PUSH2 0x583 JUMPI DUP1 PUSH4 0xFD23C4BB EQ PUSH2 0x59F JUMPI PUSH2 0x1D9 JUMP JUMPDEST DUP1 PUSH4 0xC171BDF7 EQ PUSH2 0x4B3 JUMPI DUP1 PUSH4 0xC304CCDC EQ PUSH2 0x4CF JUMPI DUP1 PUSH4 0xC3B9E304 EQ PUSH2 0x4FF JUMPI DUP1 PUSH4 0xCCEE835B EQ PUSH2 0x51B JUMPI PUSH2 0x1D9 JUMP JUMPDEST DUP1 PUSH4 0xA0B5D6C8 GT PUSH2 0xDE JUMPI DUP1 PUSH4 0xA0B5D6C8 EQ PUSH2 0x42D JUMPI DUP1 PUSH4 0xACE731BD EQ PUSH2 0x44B JUMPI DUP1 PUSH4 0xB9B6C5D4 EQ PUSH2 0x47B JUMPI DUP1 PUSH4 0xBBA93C0B EQ PUSH2 0x497 JUMPI PUSH2 0x1D9 JUMP JUMPDEST DUP1 PUSH4 0x8C749C74 EQ PUSH2 0x3C5 JUMPI DUP1 PUSH4 0x92256AEC EQ PUSH2 0x3E1 JUMPI DUP1 PUSH4 0x9C87A5E9 EQ PUSH2 0x411 JUMPI PUSH2 0x1D9 JUMP JUMPDEST DUP1 PUSH4 0x4CD0CB28 GT PUSH2 0x17C JUMPI DUP1 PUSH4 0x664FC0CD GT PUSH2 0x14B JUMPI DUP1 PUSH4 0x664FC0CD EQ PUSH2 0x341 JUMPI DUP1 PUSH4 0x6BD06204 EQ PUSH2 0x371 JUMPI DUP1 PUSH4 0x7D3EBECD EQ PUSH2 0x38D JUMPI DUP1 PUSH4 0x8C4C1347 EQ PUSH2 0x3A9 JUMPI PUSH2 0x1D9 JUMP JUMPDEST DUP1 PUSH4 0x4CD0CB28 EQ PUSH2 0x2D1 JUMPI DUP1 PUSH4 0x529884E7 EQ PUSH2 0x2ED JUMPI DUP1 PUSH4 0x53C49C64 EQ PUSH2 0x309 JUMPI DUP1 PUSH4 0x63EF8A50 EQ PUSH2 0x325 JUMPI PUSH2 0x1D9 JUMP JUMPDEST DUP1 PUSH4 0x107046BD GT PUSH2 0x1B8 JUMPI DUP1 PUSH4 0x107046BD EQ PUSH2 0x232 JUMPI DUP1 PUSH4 0x12327A66 EQ PUSH2 0x267 JUMPI DUP1 PUSH4 0x14DA947B EQ PUSH2 0x297 JUMPI DUP1 PUSH4 0x46C1966A EQ PUSH2 0x2B3 JUMPI PUSH2 0x1D9 JUMP JUMPDEST DUP1 PUSH3 0x3F489F EQ PUSH2 0x1DE JUMPI DUP1 PUSH4 0x10DFD93 EQ PUSH2 0x1FA JUMPI DUP1 PUSH4 0x8C6F4AB EQ PUSH2 0x216 JUMPI JUMPDEST PUSH1 0x0 DUP1 REVERT JUMPDEST PUSH2 0x1F8 PUSH1 0x4 DUP1 CALLDATASIZE SUB DUP2 ADD SWAP1 PUSH2 0x1F3 SWAP2 SWAP1 PUSH2 0x3287 JUMP JUMPDEST PUSH2 0x5BB JUMP JUMPDEST STOP JUMPDEST PUSH2 0x214 PUSH1 0x4 DUP1 CALLDATASIZE SUB DUP2 ADD SWAP1 PUSH2 0x20F SWAP2 SWAP1 PUSH2 0x31C2 JUMP JUMPDEST PUSH2 0x6DC JUMP JUMPDEST STOP JUMPDEST PUSH2 0x230 PUSH1 0x4 DUP1 CALLDATASIZE SUB DUP2 ADD SWAP1 PUSH2 0x22B SWAP2 SWAP1 PUSH2 0x3287 JUMP JUMPDEST PUSH2 0x8AB JUMP JUMPDEST STOP JUMPDEST PUSH2 0x24C PUSH1 0x4 DUP1 CALLDATASIZE SUB DUP2 ADD SWAP1 PUSH2 0x247 SWAP2 SWAP1 PUSH2 0x2F58 JUMP JUMPDEST PUSH2 0x9CD JUMP JUMPDEST PUSH1 0x40 MLOAD PUSH2 0x25E SWAP7 SWAP6 SWAP5 SWAP4 SWAP3 SWAP2 SWAP1 PUSH2 0x3860 JUMP JUMPDEST PUSH1 0x40 MLOAD DUP1 SWAP2 SUB SWAP1 RETURN JUMPDEST PUSH2 0x281 PUSH1 0x4 DUP1 CALLDATASIZE SUB DUP2 ADD SWAP1 PUSH2 0x27C SWAP2 SWAP1 PUSH2 0x2F58 JUMP JUMPDEST PUSH2 0xB53 JUMP JUMPDEST PUSH1 0x40 MLOAD PUSH2 0x28E SWAP2 SWAP1 PUSH2 0x36D4 JUMP JUMPDEST PUSH1 0x40 MLOAD DUP1 SWAP2 SUB SWAP1 RETURN JUMPDEST PUSH2 0x2B1 PUSH1 0x4 DUP1 CALLDATASIZE SUB DUP2 ADD SWAP1 PUSH2 0x2AC SWAP2 SWAP1 PUSH2 0x30D0 JUMP JUMPDEST PUSH2 0xD78 JUMP JUMPDEST STOP JUMPDEST PUSH2 0x2BB PUSH2 0xE9C JUMP JUMPDEST PUSH1 0x40 MLOAD PUSH2 0x2C8 SWAP2 SWAP1 PUSH2 0x3776 JUMP JUMPDEST PUSH1 0x40 MLOAD DUP1 SWAP2 SUB SWAP1 RETURN JUMPDEST PUSH2 0x2EB PUSH1 0x4 DUP1 CALLDATASIZE SUB DUP2 ADD SWAP1 PUSH2 0x2E6 SWAP2 SWAP1 PUSH2 0x2F58 JUMP JUMPDEST PUSH2 0xEA2 JUMP JUMPDEST STOP JUMPDEST PUSH2 0x307 PUSH1 0x4 DUP1 CALLDATASIZE SUB DUP2 ADD SWAP1 PUSH2 0x302 SWAP2 SWAP1 PUSH2 0x30D0 JUMP JUMPDEST PUSH2 0x1155 JUMP JUMPDEST STOP JUMPDEST PUSH2 0x323 PUSH1 0x4 DUP1 CALLDATASIZE SUB DUP2 ADD SWAP1 PUSH2 0x31E SWAP2 SWAP1 PUSH2 0x303D JUMP JUMPDEST PUSH2 0x1277 JUMP JUMPDEST STOP JUMPDEST PUSH2 0x33F PUSH1 0x4 DUP1 CALLDATASIZE SUB DUP2 ADD SWAP1 PUSH2 0x33A SWAP2 SWAP1 PUSH2 0x3123 JUMP JUMPDEST PUSH2 0x143E JUMP JUMPDEST STOP JUMPDEST PUSH2 0x35B PUSH1 0x4 DUP1 CALLDATASIZE SUB DUP2 ADD SWAP1 PUSH2 0x356 SWAP2 SWAP1 PUSH2 0x303D JUMP JUMPDEST PUSH2 0x160B JUMP JUMPDEST PUSH1 0x40 MLOAD PUSH2 0x368 SWAP2 SWAP1 PUSH2 0x3776 JUMP JUMPDEST PUSH1 0x40 MLOAD DUP1 SWAP2 SUB SWAP1 RETURN JUMPDEST PUSH2 0x38B PUSH1 0x4 DUP1 CALLDATASIZE SUB DUP2 ADD SWAP1 PUSH2 0x386 SWAP2 SWAP1 PUSH2 0x2EE0 JUMP JUMPDEST PUSH2 0x16C1 JUMP JUMPDEST STOP JUMPDEST PUSH2 0x3A7 PUSH1 0x4 DUP1 CALLDATASIZE SUB DUP2 ADD SWAP1 PUSH2 0x3A2 SWAP2 SWAP1 PUSH2 0x2FB2 JUMP JUMPDEST PUSH2 0x1818 JUMP JUMPDEST STOP JUMPDEST PUSH2 0x3C3 PUSH1 0x4 DUP1 CALLDATASIZE SUB DUP2 ADD SWAP1 PUSH2 0x3BE SWAP2 SWAP1 PUSH2 0x2FB2 JUMP JUMPDEST PUSH2 0x19E4 JUMP JUMPDEST STOP JUMPDEST PUSH2 0x3DF PUSH1 0x4 DUP1 CALLDATASIZE SUB DUP2 ADD SWAP1 PUSH2 0x3DA SWAP2 SWAP1 PUSH2 0x307D JUMP JUMPDEST PUSH2 0x1CA1 JUMP JUMPDEST STOP JUMPDEST PUSH2 0x3FB PUSH1 0x4 DUP1 CALLDATASIZE SUB DUP2 ADD SWAP1 PUSH2 0x3F6 SWAP2 SWAP1 PUSH2 0x2F58 JUMP JUMPDEST PUSH2 0x1DC3 JUMP JUMPDEST PUSH1 0x40 MLOAD PUSH2 0x408 SWAP2 SWAP1 PUSH2 0x36B9 JUMP JUMPDEST PUSH1 0x40 MLOAD DUP1 SWAP2 SUB SWAP1 RETURN JUMPDEST PUSH2 0x42B PUSH1 0x4 DUP1 CALLDATASIZE SUB DUP2 ADD SWAP1 PUSH2 0x426 SWAP2 SWAP1 PUSH2 0x3287 JUMP JUMPDEST PUSH2 0x1DEC JUMP JUMPDEST STOP JUMPDEST PUSH2 0x435 PUSH2 0x1F0E JUMP JUMPDEST PUSH1 0x40 MLOAD PUSH2 0x442 SWAP2 SWAP1 PUSH2 0x3776 JUMP JUMPDEST PUSH1 0x40 MLOAD DUP1 SWAP2 SUB SWAP1 RETURN JUMPDEST PUSH2 0x465 PUSH1 0x4 DUP1 CALLDATASIZE SUB DUP2 ADD SWAP1 PUSH2 0x460 SWAP2 SWAP1 PUSH2 0x3287 JUMP JUMPDEST PUSH2 0x1F14 JUMP JUMPDEST PUSH1 0x40 MLOAD PUSH2 0x472 SWAP2 SWAP1 PUSH2 0x36D4 JUMP JUMPDEST PUSH1 0x40 MLOAD DUP1 SWAP2 SUB SWAP1 RETURN JUMPDEST PUSH2 0x495 PUSH1 0x4 DUP1 CALLDATASIZE SUB DUP2 ADD SWAP1 PUSH2 0x490 SWAP2 SWAP1 PUSH2 0x3287 JUMP JUMPDEST PUSH2 0x205E JUMP JUMPDEST STOP JUMPDEST PUSH2 0x4B1 PUSH1 0x4 DUP1 CALLDATASIZE SUB DUP2 ADD SWAP1 PUSH2 0x4AC SWAP2 SWAP1 PUSH2 0x32DA JUMP JUMPDEST PUSH2 0x2228 JUMP JUMPDEST STOP JUMPDEST PUSH2 0x4CD PUSH1 0x4 DUP1 CALLDATASIZE SUB DUP2 ADD SWAP1 PUSH2 0x4C8 SWAP2 SWAP1 PUSH2 0x3383 JUMP JUMPDEST PUSH2 0x22C5 JUMP JUMPDEST STOP JUMPDEST PUSH2 0x4E9 PUSH1 0x4 DUP1 CALLDATASIZE SUB DUP2 ADD SWAP1 PUSH2 0x4E4 SWAP2 SWAP1 PUSH2 0x303D JUMP JUMPDEST PUSH2 0x23ED JUMP JUMPDEST PUSH1 0x40 MLOAD PUSH2 0x4F6 SWAP2 SWAP1 PUSH2 0x36D4 JUMP JUMPDEST PUSH1 0x40 MLOAD DUP1 SWAP2 SUB SWAP1 RETURN JUMPDEST PUSH2 0x519 PUSH1 0x4 DUP1 CALLDATASIZE SUB DUP2 ADD SWAP1 PUSH2 0x514 SWAP2 SWAP1 PUSH2 0x3287 JUMP JUMPDEST PUSH2 0x2534 JUMP JUMPDEST STOP JUMPDEST PUSH2 0x535 PUSH1 0x4 DUP1 CALLDATASIZE SUB DUP2 ADD SWAP1 PUSH2 0x530 SWAP2 SWAP1 PUSH2 0x303D JUMP JUMPDEST PUSH2 0x2656 JUMP JUMPDEST PUSH1 0x40 MLOAD PUSH2 0x542 SWAP2 SWAP1 PUSH2 0x3776 JUMP JUMPDEST PUSH1 0x40 MLOAD DUP1 SWAP2 SUB SWAP1 RETURN JUMPDEST PUSH2 0x565 PUSH1 0x4 DUP1 CALLDATASIZE SUB DUP2 ADD SWAP1 PUSH2 0x560 SWAP2 SWAP1 PUSH2 0x33FE JUMP JUMPDEST PUSH2 0x270C JUMP JUMPDEST STOP JUMPDEST PUSH2 0x581 PUSH1 0x4 DUP1 CALLDATASIZE SUB DUP2 ADD SWAP1 PUSH2 0x57C SWAP2 SWAP1 PUSH2 0x34B1 JUMP JUMPDEST PUSH2 0x2834 JUMP JUMPDEST STOP JUMPDEST PUSH2 0x59D PUSH1 0x4 DUP1 CALLDATASIZE SUB DUP2 ADD SWAP1 PUSH2 0x598 SWAP2 SWAP1 PUSH2 0x307D JUMP JUMPDEST PUSH2 0x2962 JUMP JUMPDEST STOP JUMPDEST PUSH2 0x5B9 PUSH1 0x4 DUP1 CALLDATASIZE SUB DUP2 ADD SWAP1 PUSH2 0x5B4 SWAP2 SWAP1 PUSH2 0x33FE JUMP JUMPDEST PUSH2 0x2A84 JUMP JUMPDEST STOP JUMPDEST DUP3 PUSH1 0x0 DUP1 PUSH1 0x2 DUP2 GT ISZERO PUSH2 0x5D1 JUMPI PUSH2 0x5D0 PUSH2 0x3E49 JUMP JUMPDEST JUMPDEST PUSH1 0x3 PUSH1 0x0 DUP5 DUP2 MSTORE PUSH1 0x20 ADD SWAP1 DUP2 MSTORE PUSH1 0x20 ADD PUSH1 0x0 KECCAK256 PUSH1 0x3 ADD PUSH1 0x15 SWAP1 SLOAD SWAP1 PUSH2 0x100 EXP SWAP1 DIV PUSH1 0xFF AND PUSH1 0x2 DUP2 GT ISZERO PUSH2 0x607 JUMPI PUSH2 0x606 PUSH2 0x3E49 JUMP JUMPDEST JUMPDEST EQ PUSH2 0x647 JUMPI PUSH1 0x40 MLOAD PUSH32 0x8C379A000000000000000000000000000000000000000000000000000000000 DUP2 MSTORE PUSH1 0x4 ADD PUSH2 0x63E SWAP1 PUSH2 0x3716 JUMP JUMPDEST PUSH1 0x40 MLOAD DUP1 SWAP2 SUB SWAP1 REVERT JUMPDEST PUSH1 0x0 DUP1 SLOAD SWAP1 PUSH2 0x100 EXP SWAP1 DIV PUSH20 0xFFFFFFFFFFFFFFFFFFFFFFFFFFFFFFFFFFFFFFFF AND PUSH20 0xFFFFFFFFFFFFFFFFFFFFFFFFFFFFFFFFFFFFFFFF AND PUSH3 0x3F489F DUP7 DUP7 DUP7 PUSH1 0x40 MLOAD DUP5 PUSH4 0xFFFFFFFF AND PUSH1 0xE0 SHL DUP2 MSTORE PUSH1 0x4 ADD PUSH2 0x6A3 SWAP4 SWAP3 SWAP2 SWAP1 PUSH2 0x39FE JUMP JUMPDEST PUSH1 0x0 PUSH1 0x40 MLOAD DUP1 DUP4 SUB DUP2 PUSH1 0x0 DUP8 DUP1 EXTCODESIZE ISZERO DUP1 ISZERO PUSH2 0x6BD JUMPI PUSH1 0x0 DUP1 REVERT JUMPDEST POP GAS CALL ISZERO DUP1 ISZERO PUSH2 0x6D1 JUMPI RETURNDATASIZE PUSH1 0x0 DUP1 RETURNDATACOPY RETURNDATASIZE PUSH1 0x0 REVERT JUMPDEST POP POP POP POP POP POP POP POP POP JUMP JUMPDEST DUP6 CALLER DUP1 PUSH20 0xFFFFFFFFFFFFFFFFFFFFFFFFFFFFFFFFFFFFFFFF AND PUSH1 0x3 PUSH1 0x0 DUP5 DUP2 MSTORE PUSH1 0x20 ADD SWAP1 DUP2 MSTORE PUSH1 0x20 ADD PUSH1 0x0 KECCAK256 PUSH1 0x3 ADD PUSH1 0x0 SWAP1 SLOAD SWAP1 PUSH2 0x100 EXP SWAP1 DIV PUSH20 0xFFFFFFFFFFFFFFFFFFFFFFFFFFFFFFFFFFFFFFFF AND PUSH20 0xFFFFFFFFFFFFFFFFFFFFFFFFFFFFFFFFFFFFFFFF AND EQ PUSH2 0x782 JUMPI PUSH1 0x40 MLOAD PUSH32 0x8C379A000000000000000000000000000000000000000000000000000000000 DUP2 MSTORE PUSH1 0x4 ADD PUSH2 0x779 SWAP1 PUSH2 0x3736 JUMP JUMPDEST PUSH1 0x40 MLOAD DUP1 SWAP2 SUB SWAP1 REVERT JUMPDEST DUP8 PUSH1 0x0 DUP1 PUSH1 0x2 DUP2 GT ISZERO PUSH2 0x798 JUMPI PUSH2 0x797 PUSH2 0x3E49 JUMP JUMPDEST JUMPDEST PUSH1 0x3 PUSH1 0x0 DUP5 DUP2 MSTORE PUSH1 0x20 ADD SWAP1 DUP2 MSTORE PUSH1 0x20 ADD PUSH1 0x0 KECCAK256 PUSH1 0x3 ADD PUSH1 0x15 SWAP1 SLOAD SWAP1 PUSH2 0x100 EXP SWAP1 DIV PUSH1 0xFF AND PUSH1 0x2 DUP2 GT ISZERO PUSH2 0x7CE JUMPI PUSH2 0x7CD PUSH2 0x3E49 JUMP JUMPDEST JUMPDEST EQ PUSH2 0x80E JUMPI PUSH1 0x40 MLOAD PUSH32 0x8C379A000000000000000000000000000000000000000000000000000000000 DUP2 MSTORE PUSH1 0x4 ADD PUSH2 0x805 SWAP1 PUSH2 0x3716 JUMP JUMPDEST PUSH1 0x40 MLOAD DUP1 SWAP2 SUB SWAP1 REVERT JUMPDEST PUSH1 0x0 DUP1 SLOAD SWAP1 PUSH2 0x100 EXP SWAP1 DIV PUSH20 0xFFFFFFFFFFFFFFFFFFFFFFFFFFFFFFFFFFFFFFFF AND PUSH20 0xFFFFFFFFFFFFFFFFFFFFFFFFFFFFFFFFFFFFFFFF AND PUSH4 0x1C746E66 DUP12 DUP12 DUP12 DUP12 PUSH1 0x40 MLOAD DUP6 PUSH4 0xFFFFFFFF AND PUSH1 0xE0 SHL DUP2 MSTORE PUSH1 0x4 ADD PUSH2 0x86D SWAP5 SWAP4 SWAP3 SWAP2 SWAP1 PUSH2 0x39AB JUMP JUMPDEST PUSH1 0x0 PUSH1 0x40 MLOAD DUP1 DUP4 SUB DUP2 PUSH1 0x0 DUP8 DUP1 EXTCODESIZE ISZERO DUP1 ISZERO PUSH2 0x887 JUMPI PUSH1 0x0 DUP1 REVERT JUMPDEST POP GAS CALL ISZERO DUP1 ISZERO PUSH2 0x89B JUMPI RETURNDATASIZE PUSH1 0x0 DUP1 RETURNDATACOPY RETURNDATASIZE PUSH1 0x0 REVERT JUMPDEST POP POP POP POP POP POP POP POP POP POP POP POP POP POP JUMP JUMPDEST DUP3 PUSH1 0x0 DUP1 PUSH1 0x2 DUP2 GT ISZERO PUSH2 0x8C1 JUMPI PUSH2 0x8C0 PUSH2 0x3E49 JUMP JUMPDEST JUMPDEST PUSH1 0x3 PUSH1 0x0 DUP5 DUP2 MSTORE PUSH1 0x20 ADD SWAP1 DUP2 MSTORE PUSH1 0x20 ADD PUSH1 0x0 KECCAK256 PUSH1 0x3 ADD PUSH1 0x15 SWAP1 SLOAD SWAP1 PUSH2 0x100 EXP SWAP1 DIV PUSH1 0xFF AND PUSH1 0x2 DUP2 GT ISZERO PUSH2 0x8F7 JUMPI PUSH2 0x8F6 PUSH2 0x3E49 JUMP JUMPDEST JUMPDEST EQ PUSH2 0x937 JUMPI PUSH1 0x40 MLOAD PUSH32 0x8C379A000000000000000000000000000000000000000000000000000000000 DUP2 MSTORE PUSH1 0x4 ADD PUSH2 0x92E SWAP1 PUSH2 0x3716 JUMP JUMPDEST PUSH1 0x40 MLOAD DUP1 SWAP2 SUB SWAP1 REVERT JUMPDEST PUSH1 0x0 DUP1 SLOAD SWAP1 PUSH2 0x100 EXP SWAP1 DIV PUSH20 0xFFFFFFFFFFFFFFFFFFFFFFFFFFFFFFFFFFFFFFFF AND PUSH20 0xFFFFFFFFFFFFFFFFFFFFFFFFFFFFFFFFFFFFFFFF AND PUSH4 0x8C6F4AB DUP7 DUP7 DUP7 PUSH1 0x40 MLOAD DUP5 PUSH4 0xFFFFFFFF AND PUSH1 0xE0 SHL DUP2 MSTORE PUSH1 0x4 ADD PUSH2 0x994 SWAP4 SWAP3 SWAP2 SWAP1 PUSH2 0x39FE JUMP JUMPDEST PUSH1 0x0 PUSH1 0x40 MLOAD DUP1 DUP4 SUB DUP2 PUSH1 0x0 DUP8 DUP1 EXTCODESIZE ISZERO DUP1 ISZERO PUSH2 0x9AE JUMPI PUSH1 0x0 DUP1 REVERT JUMPDEST POP GAS CALL ISZERO DUP1 ISZERO PUSH2 0x9C2 JUMPI RETURNDATASIZE PUSH1 0x0 DUP1 RETURNDATACOPY RETURNDATASIZE PUSH1 0x0 REVERT JUMPDEST POP POP POP POP POP POP POP POP POP JUMP JUMPDEST PUSH1 0x3 PUSH1 0x20 MSTORE DUP1 PUSH1 0x0 MSTORE PUSH1 0x40 PUSH1 0x0 KECCAK256 PUSH1 0x0 SWAP2 POP SWAP1 POP DUP1 PUSH1 0x0 ADD SLOAD SWAP1 DUP1 PUSH1 0x1 ADD DUP1 SLOAD PUSH2 0x9F6 SWAP1 PUSH2 0x3D6E JUMP JUMPDEST DUP1 PUSH1 0x1F ADD PUSH1 0x20 DUP1 SWAP2 DIV MUL PUSH1 0x20 ADD PUSH1 0x40 MLOAD SWAP1 DUP2 ADD PUSH1 0x40 MSTORE DUP1 SWAP3 SWAP2 SWAP1 DUP2 DUP2 MSTORE PUSH1 0x20 ADD DUP3 DUP1 SLOAD PUSH2 0xA22 SWAP1 PUSH2 0x3D6E JUMP JUMPDEST DUP1 ISZERO PUSH2 0xA6F JUMPI DUP1 PUSH1 0x1F LT PUSH2 0xA44 JUMPI PUSH2 0x100 DUP1 DUP4 SLOAD DIV MUL DUP4 MSTORE SWAP2 PUSH1 0x20 ADD SWAP2 PUSH2 0xA6F JUMP JUMPDEST DUP3 ADD SWAP2 SWAP1 PUSH1 0x0 MSTORE PUSH1 0x20 PUSH1 0x0 KECCAK256 SWAP1 JUMPDEST DUP2 SLOAD DUP2 MSTORE SWAP1 PUSH1 0x1 ADD SWAP1 PUSH1 0x20 ADD DUP1 DUP4 GT PUSH2 0xA52 JUMPI DUP3 SWAP1 SUB PUSH1 0x1F AND DUP3 ADD SWAP2 JUMPDEST POP POP POP POP POP SWAP1 DUP1 PUSH1 0x2 ADD DUP1 SLOAD PUSH2 0xA84 SWAP1 PUSH2 0x3D6E JUMP JUMPDEST DUP1 PUSH1 0x1F ADD PUSH1 0x20 DUP1 SWAP2 DIV MUL PUSH1 0x20 ADD PUSH1 0x40 MLOAD SWAP1 DUP2 ADD PUSH1 0x40 MSTORE DUP1 SWAP3 SWAP2 SWAP1 DUP2 DUP2 MSTORE PUSH1 0x20 ADD DUP3 DUP1 SLOAD PUSH2 0xAB0 SWAP1 PUSH2 0x3D6E JUMP JUMPDEST DUP1 ISZERO PUSH2 0xAFD JUMPI DUP1 PUSH1 0x1F LT PUSH2 0xAD2 JUMPI PUSH2 0x100 DUP1 DUP4 SLOAD DIV MUL DUP4 MSTORE SWAP2 PUSH1 0x20 ADD SWAP2 PUSH2 0xAFD JUMP JUMPDEST DUP3 ADD SWAP2 SWAP1 PUSH1 0x0 MSTORE PUSH1 0x20 PUSH1 0x0 KECCAK256 SWAP1 JUMPDEST DUP2 SLOAD DUP2 MSTORE SWAP1 PUSH1 0x1 ADD SWAP1 PUSH1 0x20 ADD DUP1 DUP4 GT PUSH2 0xAE0 JUMPI DUP3 SWAP1 SUB PUSH1 0x1F AND DUP3 ADD SWAP2 JUMPDEST POP POP POP POP POP SWAP1 DUP1 PUSH1 0x3 ADD PUSH1 0x0 SWAP1 SLOAD SWAP1 PUSH2 0x100 EXP SWAP1 DIV PUSH20 0xFFFFFFFFFFFFFFFFFFFFFFFFFFFFFFFFFFFFFFFF AND SWAP1 DUP1 PUSH1 0x3 ADD PUSH1 0x14 SWAP1 SLOAD SWAP1 PUSH2 0x100 EXP SWAP1 DIV PUSH1 0xFF AND SWAP1 DUP1 PUSH1 0x3 ADD PUSH1 0x15 SWAP1 SLOAD SWAP1 PUSH2 0x100 EXP SWAP1 DIV PUSH1 0xFF AND SWAP1 POP DUP7 JUMP JUMPDEST PUSH1 0x60 DUP2 PUSH1 0x3 PUSH1 0x0 DUP3 DUP2 MSTORE PUSH1 0x20 ADD SWAP1 DUP2 MSTORE PUSH1 0x20 ADD PUSH1 0x0 KECCAK256 PUSH1 0x3 ADD PUSH1 0x14 SWAP1 SLOAD SWAP1 PUSH2 0x100 EXP SWAP1 DIV PUSH1 0xFF AND PUSH2 0xBB9 JUMPI PUSH1 0x40 MLOAD PUSH32 0x8C379A000000000000000000000000000000000000000000000000000000000 DUP2 MSTORE PUSH1 0x4 ADD PUSH2 0xBB0 SWAP1 PUSH2 0x3756 JUMP JUMPDEST PUSH1 0x40 MLOAD DUP1 SWAP2 SUB SWAP1 REVERT JUMPDEST PUSH1 0x0 PUSH1 0x2 DUP2 GT ISZERO PUSH2 0xBCD JUMPI PUSH2 0xBCC PUSH2 0x3E49 JUMP JUMPDEST JUMPDEST PUSH1 0x3 PUSH1 0x0 DUP4 DUP2 MSTORE PUSH1 0x20 ADD SWAP1 DUP2 MSTORE PUSH1 0x20 ADD PUSH1 0x0 KECCAK256 PUSH1 0x3 ADD PUSH1 0x15 SWAP1 SLOAD SWAP1 PUSH2 0x100 EXP SWAP1 DIV PUSH1 0xFF AND PUSH1 0x2 DUP2 GT ISZERO PUSH2 0xC03 JUMPI PUSH2 0xC02 PUSH2 0x3E49 JUMP JUMPDEST JUMPDEST EQ PUSH2 0xC43 JUMPI PUSH1 0x40 MLOAD PUSH32 0x8C379A000000000000000000000000000000000000000000000000000000000 DUP2 MSTORE PUSH1 0x4 ADD PUSH2 0xC3A SWAP1 PUSH2 0x36F6 JUMP JUMPDEST PUSH1 0x40 MLOAD DUP1 SWAP2 SUB SWAP1 REVERT JUMPDEST DUP3 PUSH1 0x0 DUP1 PUSH1 0x2 DUP2 GT ISZERO PUSH2 0xC59 JUMPI PUSH2 0xC58 PUSH2 0x3E49 JUMP JUMPDEST JUMPDEST PUSH1 0x3 PUSH1 0x0 DUP5 DUP2 MSTORE PUSH1 0x20 ADD SWAP1 DUP2 MSTORE PUSH1 0x20 ADD PUSH1 0x0 KECCAK256 PUSH1 0x3 ADD PUSH1 0x15 SWAP1 SLOAD SWAP1 PUSH2 0x100 EXP SWAP1 DIV PUSH1 0xFF AND PUSH1 0x2 DUP2 GT ISZERO PUSH2 0xC8F JUMPI PUSH2 0xC8E PUSH2 0x3E49 JUMP JUMPDEST JUMPDEST EQ PUSH2 0xCCF JUMPI PUSH1 0x40 MLOAD PUSH32 0x8C379A000000000000000000000000000000000000000000000000000000000 DUP2 MSTORE PUSH1 0x4 ADD PUSH2 0xCC6 SWAP1 PUSH2 0x3716 JUMP JUMPDEST PUSH1 0x40 MLOAD DUP1 SWAP2 SUB SWAP1 REVERT JUMPDEST PUSH1 0x3 PUSH1 0x0 DUP7 DUP2 MSTORE PUSH1 0x20 ADD SWAP1 DUP2 MSTORE PUSH1 0x20 ADD PUSH1 0x0 KECCAK256 PUSH1 0x1 ADD DUP1 SLOAD PUSH2 0xCF0 SWAP1 PUSH2 0x3D6E JUMP JUMPDEST DUP1 PUSH1 0x1F ADD PUSH1 0x20 DUP1 SWAP2 DIV MUL PUSH1 0x20 ADD PUSH1 0x40 MLOAD SWAP1 DUP2 ADD PUSH1 0x40 MSTORE DUP1 SWAP3 SWAP2 SWAP1 DUP2 DUP2 MSTORE PUSH1 0x20 ADD DUP3 DUP1 SLOAD PUSH2 0xD1C SWAP1 PUSH2 0x3D6E JUMP JUMPDEST DUP1 ISZERO PUSH2 0xD69 JUMPI DUP1 PUSH1 0x1F LT PUSH2 0xD3E JUMPI PUSH2 0x100 DUP1 DUP4 SLOAD DIV MUL DUP4 MSTORE SWAP2 PUSH1 0x20 ADD SWAP2 PUSH2 0xD69 JUMP JUMPDEST DUP3 ADD SWAP2 SWAP1 PUSH1 0x0 MSTORE PUSH1 0x20 PUSH1 0x0 KECCAK256 SWAP1 JUMPDEST DUP2 SLOAD DUP2 MSTORE SWAP1 PUSH1 0x1 ADD SWAP1 PUSH1 0x20 ADD DUP1 DUP4 GT PUSH2 0xD4C JUMPI DUP3 SWAP1 SUB PUSH1 0x1F AND DUP3 ADD SWAP2 JUMPDEST POP POP POP POP POP SWAP4 POP POP POP POP SWAP2 SWAP1 POP JUMP JUMPDEST DUP3 PUSH1 0x0 DUP1 PUSH1 0x2 DUP2 GT ISZERO PUSH2 0xD8E JUMPI PUSH2 0xD8D PUSH2 0x3E49 JUMP JUMPDEST JUMPDEST PUSH1 0x3 PUSH1 0x0 DUP5 DUP2 MSTORE PUSH1 0x20 ADD SWAP1 DUP2 MSTORE PUSH1 0x20 ADD PUSH1 0x0 KECCAK256 PUSH1 0x3 ADD PUSH1 0x15 SWAP1 SLOAD SWAP1 PUSH2 0x100 EXP SWAP1 DIV PUSH1 0xFF AND PUSH1 0x2 DUP2 GT ISZERO PUSH2 0xDC4 JUMPI PUSH2 0xDC3 PUSH2 0x3E49 JUMP JUMPDEST JUMPDEST EQ PUSH2 0xE04 JUMPI PUSH1 0x40 MLOAD PUSH32 0x8C379A000000000000000000000000000000000000000000000000000000000 DUP2 MSTORE PUSH1 0x4 ADD PUSH2 0xDFB SWAP1 PUSH2 0x3716 JUMP JUMPDEST PUSH1 0x40 MLOAD DUP1 SWAP2 SUB SWAP1 REVERT JUMPDEST PUSH1 0x0 DUP1 SLOAD SWAP1 PUSH2 0x100 EXP SWAP1 DIV PUSH20 0xFFFFFFFFFFFFFFFFFFFFFFFFFFFFFFFFFFFFFFFF AND PUSH20 0xFFFFFFFFFFFFFFFFFFFFFFFFFFFFFFFFFFFFFFFF AND PUSH4 0xDDB2FF1F DUP7 DUP7 CALLER DUP8 PUSH1 0x40 MLOAD DUP6 PUSH4 0xFFFFFFFF AND PUSH1 0xE0 SHL DUP2 MSTORE PUSH1 0x4 ADD PUSH2 0xE63 SWAP5 SWAP4 SWAP3 SWAP2 SWAP1 PUSH2 0x3966 JUMP JUMPDEST PUSH1 0x0 PUSH1 0x40 MLOAD DUP1 DUP4 SUB DUP2 PUSH1 0x0 DUP8 DUP1 EXTCODESIZE ISZERO DUP1 ISZERO PUSH2 0xE7D JUMPI PUSH1 0x0 DUP1 REVERT JUMPDEST POP GAS CALL ISZERO DUP1 ISZERO PUSH2 0xE91 JUMPI RETURNDATASIZE PUSH1 0x0 DUP1 RETURNDATACOPY RETURNDATASIZE PUSH1 0x0 REVERT JUMPDEST POP POP POP POP POP POP POP POP POP JUMP JUMPDEST PUSH1 0x1 SLOAD DUP2 JUMP JUMPDEST DUP1 PUSH1 0x3 PUSH1 0x0 DUP3 DUP2 MSTORE PUSH1 0x20 ADD SWAP1 DUP2 MSTORE PUSH1 0x20 ADD PUSH1 0x0 KECCAK256 PUSH1 0x3 ADD PUSH1 0x14 SWAP1 SLOAD SWAP1 PUSH2 0x100 EXP SWAP1 DIV PUSH1 0xFF AND PUSH2 0xF06 JUMPI PUSH1 0x40 MLOAD PUSH32 0x8C379A000000000000000000000000000000000000000000000000000000000 DUP2 MSTORE PUSH1 0x4 ADD PUSH2 0xEFD SWAP1 PUSH2 0x3756 JUMP JUMPDEST PUSH1 0x40 MLOAD DUP1 SWAP2 SUB SWAP1 REVERT JUMPDEST PUSH1 0x0 PUSH1 0x2 DUP2 GT ISZERO PUSH2 0xF1A JUMPI PUSH2 0xF19 PUSH2 0x3E49 JUMP JUMPDEST JUMPDEST PUSH1 0x3 PUSH1 0x0 DUP4 DUP2 MSTORE PUSH1 0x20 ADD SWAP1 DUP2 MSTORE PUSH1 0x20 ADD PUSH1 0x0 KECCAK256 PUSH1 0x3 ADD PUSH1 0x15 SWAP1 SLOAD SWAP1 PUSH2 0x100 EXP SWAP1 DIV PUSH1 0xFF AND PUSH1 0x2 DUP2 GT ISZERO PUSH2 0xF50 JUMPI PUSH2 0xF4F PUSH2 0x3E49 JUMP JUMPDEST JUMPDEST EQ PUSH2 0xF90 JUMPI PUSH1 0x40 MLOAD PUSH32 0x8C379A000000000000000000000000000000000000000000000000000000000 DUP2 MSTORE PUSH1 0x4 ADD PUSH2 0xF87 SWAP1 PUSH2 0x36F6 JUMP JUMPDEST PUSH1 0x40 MLOAD DUP1 SWAP2 SUB SWAP1 REVERT JUMPDEST DUP2 CALLER DUP1 PUSH20 0xFFFFFFFFFFFFFFFFFFFFFFFFFFFFFFFFFFFFFFFF AND PUSH1 0x3 PUSH1 0x0 DUP5 DUP2 MSTORE PUSH1 0x20 ADD SWAP1 DUP2 MSTORE PUSH1 0x20 ADD PUSH1 0x0 KECCAK256 PUSH1 0x3 ADD PUSH1 0x0 SWAP1 SLOAD SWAP1 PUSH2 0x100 EXP SWAP1 DIV PUSH20 0xFFFFFFFFFFFFFFFFFFFFFFFFFFFFFFFFFFFFFFFF AND PUSH20 0xFFFFFFFFFFFFFFFFFFFFFFFFFFFFFFFFFFFFFFFF AND EQ PUSH2 0x1036 JUMPI PUSH1 0x40 MLOAD PUSH32 0x8C379A000000000000000000000000000000000000000000000000000000000 DUP2 MSTORE PUSH1 0x4 ADD PUSH2 0x102D SWAP1 PUSH2 0x3736 JUMP JUMPDEST PUSH1 0x40 MLOAD DUP1 SWAP2 SUB SWAP1 REVERT JUMPDEST DUP4 PUSH1 0x0 DUP1 PUSH1 0x2 DUP2 GT ISZERO PUSH2 0x104C JUMPI PUSH2 0x104B PUSH2 0x3E49 JUMP JUMPDEST JUMPDEST PUSH1 0x3 PUSH1 0x0 DUP5 DUP2 MSTORE PUSH1 0x20 ADD SWAP1 DUP2 MSTORE PUSH1 0x20 ADD PUSH1 0x0 KECCAK256 PUSH1 0x3 ADD PUSH1 0x15 SWAP1 SLOAD SWAP1 PUSH2 0x100 EXP SWAP1 DIV PUSH1 0xFF AND PUSH1 0x2 DUP2 GT ISZERO PUSH2 0x1082 JUMPI PUSH2 0x1081 PUSH2 0x3E49 JUMP JUMPDEST JUMPDEST EQ PUSH2 0x10C2 JUMPI PUSH1 0x40 MLOAD PUSH32 0x8C379A000000000000000000000000000000000000000000000000000000000 DUP2 MSTORE PUSH1 0x4 ADD PUSH2 0x10B9 SWAP1 PUSH2 0x3716 JUMP JUMPDEST PUSH1 0x40 MLOAD DUP1 SWAP2 SUB SWAP1 REVERT JUMPDEST PUSH1 0x0 PUSH1 0x3 PUSH1 0x0 DUP9 DUP2 MSTORE PUSH1 0x20 ADD SWAP1 DUP2 MSTORE PUSH1 0x20 ADD PUSH1 0x0 KECCAK256 PUSH1 0x3 ADD PUSH1 0x14 PUSH2 0x100 EXP DUP2 SLOAD DUP2 PUSH1 0xFF MUL NOT AND SWAP1 DUP4 ISZERO ISZERO MUL OR SWAP1 SSTORE POP PUSH1 0x1 PUSH1 0x0 DUP2 SLOAD DUP1 SWAP3 SWAP2 SWAP1 PUSH2 0x1104 SWAP1 PUSH2 0x3D44 JUMP JUMPDEST SWAP2 SWAP1 POP SSTORE POP PUSH2 0x1114 DUP7 PUSH1 0x1 PUSH2 0x2C54 JUMP JUMPDEST PUSH32 0xBC32A4D12940B4C2B257F4F9FB0D3D970F3C1ECAB860AADBC59F95F58D9A02F2 DUP7 CALLER PUSH1 0x40 MLOAD PUSH2 0x1145 SWAP3 SWAP2 SWAP1 PUSH2 0x3791 JUMP JUMPDEST PUSH1 0x40 MLOAD DUP1 SWAP2 SUB SWAP1 LOG1 POP POP POP POP POP POP JUMP JUMPDEST DUP3 PUSH1 0x0 DUP1 PUSH1 0x2 DUP2 GT ISZERO PUSH2 0x116B JUMPI PUSH2 0x116A PUSH2 0x3E49 JUMP JUMPDEST JUMPDEST PUSH1 0x3 PUSH1 0x0 DUP5 DUP2 MSTORE PUSH1 0x20 ADD SWAP1 DUP2 MSTORE PUSH1 0x20 ADD PUSH1 0x0 KECCAK256 PUSH1 0x3 ADD PUSH1 0x15 SWAP1 SLOAD SWAP1 PUSH2 0x100 EXP SWAP1 DIV PUSH1 0xFF AND PUSH1 0x2 DUP2 GT ISZERO PUSH2 0x11A1 JUMPI PUSH2 0x11A0 PUSH2 0x3E49 JUMP JUMPDEST JUMPDEST EQ PUSH2 0x11E1 JUMPI PUSH1 0x40 MLOAD PUSH32 0x8C379A000000000000000000000000000000000000000000000000000000000 DUP2 MSTORE PUSH1 0x4 ADD PUSH2 0x11D8 SWAP1 PUSH2 0x3716 JUMP JUMPDEST PUSH1 0x40 MLOAD DUP1 SWAP2 SUB SWAP1 REVERT JUMPDEST PUSH1 0x0 DUP1 SLOAD SWAP1 PUSH2 0x100 EXP SWAP1 DIV PUSH20 0xFFFFFFFFFFFFFFFFFFFFFFFFFFFFFFFFFFFFFFFF AND PUSH20 0xFFFFFFFFFFFFFFFFFFFFFFFFFFFFFFFFFFFFFFFF AND PUSH4 0x529884E7 DUP7 DUP7 DUP7 PUSH1 0x40 MLOAD DUP5 PUSH4 0xFFFFFFFF AND PUSH1 0xE0 SHL DUP2 MSTORE PUSH1 0x4 ADD PUSH2 0x123E SWAP4 SWAP3 SWAP2 SWAP1 PUSH2 0x392F JUMP JUMPDEST PUSH1 0x0 PUSH1 0x40 MLOAD DUP1 DUP4 SUB DUP2 PUSH1 0x0 DUP8 DUP1 EXTCODESIZE ISZERO DUP1 ISZERO PUSH2 0x1258 JUMPI PUSH1 0x0 DUP1 REVERT JUMPDEST POP GAS CALL ISZERO DUP1 ISZERO PUSH2 0x126C JUMPI RETURNDATASIZE PUSH1 0x0 DUP1 RETURNDATACOPY RETURNDATASIZE PUSH1 0x0 REVERT JUMPDEST POP POP POP POP POP POP POP POP POP JUMP JUMPDEST DUP2 CALLER DUP1 PUSH20 0xFFFFFFFFFFFFFFFFFFFFFFFFFFFFFFFFFFFFFFFF AND PUSH1 0x3 PUSH1 0x0 DUP5 DUP2 MSTORE PUSH1 0x20 ADD SWAP1 DUP2 MSTORE PUSH1 0x20 ADD PUSH1 0x0 KECCAK256 PUSH1 0x3 ADD PUSH1 0x0 SWAP1 SLOAD SWAP1 PUSH2 0x100 EXP SWAP1 DIV PUSH20 0xFFFFFFFFFFFFFFFFFFFFFFFFFFFFFFFFFFFFFFFF AND PUSH20 0xFFFFFFFFFFFFFFFFFFFFFFFFFFFFFFFFFFFFFFFF AND EQ PUSH2 0x131D JUMPI PUSH1 0x40 MLOAD PUSH32 0x8C379A000000000000000000000000000000000000000000000000000000000 DUP2 MSTORE PUSH1 0x4 ADD PUSH2 0x1314 SWAP1 PUSH2 0x3736 JUMP JUMPDEST PUSH1 0x40 MLOAD DUP1 SWAP2 SUB SWAP1 REVERT JUMPDEST DUP4 PUSH1 0x0 DUP1 PUSH1 0x2 DUP2 GT ISZERO PUSH2 0x1333 JUMPI PUSH2 0x1332 PUSH2 0x3E49 JUMP JUMPDEST JUMPDEST PUSH1 0x3 PUSH1 0x0 DUP5 DUP2 MSTORE PUSH1 0x20 ADD SWAP1 DUP2 MSTORE PUSH1 0x20 ADD PUSH1 0x0 KECCAK256 PUSH1 0x3 ADD PUSH1 0x15 SWAP1 SLOAD SWAP1 PUSH2 0x100 EXP SWAP1 DIV PUSH1 0xFF AND PUSH1 0x2 DUP2 GT ISZERO PUSH2 0x1369 JUMPI PUSH2 0x1368 PUSH2 0x3E49 JUMP JUMPDEST JUMPDEST EQ PUSH2 0x13A9 JUMPI PUSH1 0x40 MLOAD PUSH32 0x8C379A000000000000000000000000000000000000000000000000000000000 DUP2 MSTORE PUSH1 0x4 ADD PUSH2 0x13A0 SWAP1 PUSH2 0x3716 JUMP JUMPDEST PUSH1 0x40 MLOAD DUP1 SWAP2 SUB SWAP1 REVERT JUMPDEST PUSH1 0x0 DUP1 SLOAD SWAP1 PUSH2 0x100 EXP SWAP1 DIV PUSH20 0xFFFFFFFFFFFFFFFFFFFFFFFFFFFFFFFFFFFFFFFF AND PUSH20 0xFFFFFFFFFFFFFFFFFFFFFFFFFFFFFFFFFFFFFFFF AND PUSH4 0x53C49C64 DUP8 DUP8 PUSH1 0x40 MLOAD DUP4 PUSH4 0xFFFFFFFF AND PUSH1 0xE0 SHL DUP2 MSTORE PUSH1 0x4 ADD PUSH2 0x1404 SWAP3 SWAP2 SWAP1 PUSH2 0x38CF JUMP JUMPDEST PUSH1 0x0 PUSH1 0x40 MLOAD DUP1 DUP4 SUB DUP2 PUSH1 0x0 DUP8 DUP1 EXTCODESIZE ISZERO DUP1 ISZERO PUSH2 0x141E JUMPI PUSH1 0x0 DUP1 REVERT JUMPDEST POP GAS CALL ISZERO DUP1 ISZERO PUSH2 0x1432 JUMPI RETURNDATASIZE PUSH1 0x0 DUP1 RETURNDATACOPY RETURNDATASIZE PUSH1 0x0 REVERT JUMPDEST POP POP POP POP POP POP POP POP POP POP JUMP JUMPDEST DUP4 CALLER DUP1 PUSH20 0xFFFFFFFFFFFFFFFFFFFFFFFFFFFFFFFFFFFFFFFF AND PUSH1 0x3 PUSH1 0x0 DUP5 DUP2 MSTORE PUSH1 0x20 ADD SWAP1 DUP2 MSTORE PUSH1 0x20 ADD PUSH1 0x0 KECCAK256 PUSH1 0x3 ADD PUSH1 0x0 SWAP1 SLOAD SWAP1 PUSH2 0x100 EXP SWAP1 DIV PUSH20 0xFFFFFFFFFFFFFFFFFFFFFFFFFFFFFFFFFFFFFFFF AND PUSH20 0xFFFFFFFFFFFFFFFFFFFFFFFFFFFFFFFFFFFFFFFF AND EQ PUSH2 0x14E4 JUMPI PUSH1 0x40 MLOAD PUSH32 0x8C379A000000000000000000000000000000000000000000000000000000000 DUP2 MSTORE PUSH1 0x4 ADD PUSH2 0x14DB SWAP1 PUSH2 0x3736 JUMP JUMPDEST PUSH1 0x40 MLOAD DUP1 SWAP2 SUB SWAP1 REVERT JUMPDEST DUP6 PUSH1 0x0 DUP1 PUSH1 0x2 DUP2 GT ISZERO PUSH2 0x14FA JUMPI PUSH2 0x14F9 PUSH2 0x3E49 JUMP JUMPDEST JUMPDEST PUSH1 0x3 PUSH1 0x0 DUP5 DUP2 MSTORE PUSH1 0x20 ADD SWAP1 DUP2 MSTORE PUSH1 0x20 ADD PUSH1 0x0 KECCAK256 PUSH1 0x3 ADD PUSH1 0x15 SWAP1 SLOAD SWAP1 PUSH2 0x100 EXP SWAP1 DIV PUSH1 0xFF AND PUSH1 0x2 DUP2 GT ISZERO PUSH2 0x1530 JUMPI PUSH2 0x152F PUSH2 0x3E49 JUMP JUMPDEST JUMPDEST EQ PUSH2 0x1570 JUMPI PUSH1 0x40 MLOAD PUSH32 0x8C379A000000000000000000000000000000000000000000000000000000000 DUP2 MSTORE PUSH1 0x4 ADD PUSH2 0x1567 SWAP1 PUSH2 0x3716 JUMP JUMPDEST PUSH1 0x40 MLOAD DUP1 SWAP2 SUB SWAP1 REVERT JUMPDEST PUSH1 0x0 DUP1 SLOAD SWAP1 PUSH2 0x100 EXP SWAP1 DIV PUSH20 0xFFFFFFFFFFFFFFFFFFFFFFFFFFFFFFFFFFFFFFFF AND PUSH20 0xFFFFFFFFFFFFFFFFFFFFFFFFFFFFFFFFFFFFFFFF AND PUSH4 0x63EF8A50 DUP10 DUP10 DUP10 DUP10 PUSH1 0x40 MLOAD DUP6 PUSH4 0xFFFFFFFF AND PUSH1 0xE0 SHL DUP2 MSTORE PUSH1 0x4 ADD PUSH2 0x15CF SWAP5 SWAP4 SWAP3 SWAP2 SWAP1 PUSH2 0x39AB JUMP JUMPDEST PUSH1 0x0 PUSH1 0x40 MLOAD DUP1 DUP4 SUB DUP2 PUSH1 0x0 DUP8 DUP1 EXTCODESIZE ISZERO DUP1 ISZERO PUSH2 0x15E9 JUMPI PUSH1 0x0 DUP1 REVERT JUMPDEST POP GAS CALL ISZERO DUP1 ISZERO PUSH2 0x15FD JUMPI RETURNDATASIZE PUSH1 0x0 DUP1 RETURNDATACOPY RETURNDATASIZE PUSH1 0x0 REVERT JUMPDEST POP POP POP POP POP POP POP POP POP POP POP POP JUMP JUMPDEST PUSH1 0x0 DUP1 PUSH1 0x0 SWAP1 SLOAD SWAP1 PUSH2 0x100 EXP SWAP1 DIV PUSH20 0xFFFFFFFFFFFFFFFFFFFFFFFFFFFFFFFFFFFFFFFF AND PUSH20 0xFFFFFFFFFFFFFFFFFFFFFFFFFFFFFFFFFFFFFFFF AND PUSH4 0x664FC0CD DUP5 DUP5 PUSH1 0x40 MLOAD DUP4 PUSH4 0xFFFFFFFF AND PUSH1 0xE0 SHL DUP2 MSTORE PUSH1 0x4 ADD PUSH2 0x1669 SWAP3 SWAP2 SWAP1 PUSH2 0x38CF JUMP JUMPDEST PUSH1 0x20 PUSH1 0x40 MLOAD DUP1 DUP4 SUB DUP2 DUP7 DUP1 EXTCODESIZE ISZERO DUP1 ISZERO PUSH2 0x1681 JUMPI PUSH1 0x0 DUP1 REVERT JUMPDEST POP GAS STATICCALL ISZERO DUP1 ISZERO PUSH2 0x1695 JUMPI RETURNDATASIZE PUSH1 0x0 DUP1 RETURNDATACOPY RETURNDATASIZE PUSH1 0x0 REVERT JUMPDEST POP POP POP POP PUSH1 0x40 MLOAD RETURNDATASIZE PUSH1 0x1F NOT PUSH1 0x1F DUP3 ADD AND DUP3 ADD DUP1 PUSH1 0x40 MSTORE POP DUP2 ADD SWAP1 PUSH2 0x16B9 SWAP2 SWAP1 PUSH2 0x2F85 JUMP JUMPDEST SWAP1 POP SWAP3 SWAP2 POP POP JUMP JUMPDEST PUSH1 0x0 PUSH1 0x3 PUSH1 0x0 PUSH1 0x2 SLOAD DUP2 MSTORE PUSH1 0x20 ADD SWAP1 DUP2 MSTORE PUSH1 0x20 ADD PUSH1 0x0 KECCAK256 SWAP1 POP PUSH1 0x2 SLOAD DUP2 PUSH1 0x0 ADD DUP2 SWAP1 SSTORE POP DUP3 DUP2 PUSH1 0x1 ADD SWAP1 DUP1 MLOAD SWAP1 PUSH1 0x20 ADD SWAP1 PUSH2 0x16FD SWAP3 SWAP2 SWAP1 PUSH2 0x2C96 JUMP JUMPDEST POP DUP2 DUP2 PUSH1 0x2 ADD SWAP1 DUP1 MLOAD SWAP1 PUSH1 0x20 ADD SWAP1 PUSH2 0x1716 SWAP3 SWAP2 SWAP1 PUSH2 0x2C96 JUMP JUMPDEST POP CALLER DUP2 PUSH1 0x3 ADD PUSH1 0x0 PUSH2 0x100 EXP DUP2 SLOAD DUP2 PUSH20 0xFFFFFFFFFFFFFFFFFFFFFFFFFFFFFFFFFFFFFFFF MUL NOT AND SWAP1 DUP4 PUSH20 0xFFFFFFFFFFFFFFFFFFFFFFFFFFFFFFFFFFFFFFFF AND MUL OR SWAP1 SSTORE POP PUSH1 0x1 DUP2 PUSH1 0x3 ADD PUSH1 0x14 PUSH2 0x100 EXP DUP2 SLOAD DUP2 PUSH1 0xFF MUL NOT AND SWAP1 DUP4 ISZERO ISZERO MUL OR SWAP1 SSTORE POP PUSH1 0x0 DUP2 PUSH1 0x3 ADD PUSH1 0x15 PUSH2 0x100 EXP DUP2 SLOAD DUP2 PUSH1 0xFF MUL NOT AND SWAP1 DUP4 PUSH1 0x2 DUP2 GT ISZERO PUSH2 0x179F JUMPI PUSH2 0x179E PUSH2 0x3E49 JUMP JUMPDEST JUMPDEST MUL OR SWAP1 SSTORE POP PUSH32 0x7A3B5D8DB9438BF836C0FB30607CE953914DA2C67FC74FC21ED59A788EC7BD4D PUSH1 0x2 SLOAD DUP5 DUP5 CALLER PUSH1 0x40 MLOAD PUSH2 0x17DB SWAP5 SWAP4 SWAP3 SWAP2 SWAP1 PUSH2 0x37BA JUMP JUMPDEST PUSH1 0x40 MLOAD DUP1 SWAP2 SUB SWAP1 LOG1 PUSH1 0x1 PUSH1 0x0 DUP2 SLOAD DUP1 SWAP3 SWAP2 SWAP1 PUSH2 0x17F6 SWAP1 PUSH2 0x3DD1 JUMP JUMPDEST SWAP2 SWAP1 POP SSTORE POP PUSH1 0x2 PUSH1 0x0 DUP2 SLOAD DUP1 SWAP3 SWAP2 SWAP1 PUSH2 0x180E SWAP1 PUSH2 0x3DD1 JUMP JUMPDEST SWAP2 SWAP1 POP SSTORE POP POP POP POP JUMP JUMPDEST DUP3 CALLER DUP1 PUSH20 0xFFFFFFFFFFFFFFFFFFFFFFFFFFFFFFFFFFFFFFFF AND PUSH1 0x3 PUSH1 0x0 DUP5 DUP2 MSTORE PUSH1 0x20 ADD SWAP1 DUP2 MSTORE PUSH1 0x20 ADD PUSH1 0x0 KECCAK256 PUSH1 0x3 ADD PUSH1 0x0 SWAP1 SLOAD SWAP1 PUSH2 0x100 EXP SWAP1 DIV PUSH20 0xFFFFFFFFFFFFFFFFFFFFFFFFFFFFFFFFFFFFFFFF AND PUSH20 0xFFFFFFFFFFFFFFFFFFFFFFFFFFFFFFFFFFFFFFFF AND EQ PUSH2 0x18BE JUMPI PUSH1 0x40 MLOAD PUSH32 0x8C379A000000000000000000000000000000000000000000000000000000000 DUP2 MSTORE PUSH1 0x4 ADD PUSH2 0x18B5 SWAP1 PUSH2 0x3736 JUMP JUMPDEST PUSH1 0x40 MLOAD DUP1 SWAP2 SUB SWAP1 REVERT JUMPDEST DUP5 PUSH1 0x0 DUP1 PUSH1 0x2 DUP2 GT ISZERO PUSH2 0x18D4 JUMPI PUSH2 0x18D3 PUSH2 0x3E49 JUMP JUMPDEST JUMPDEST PUSH1 0x3 PUSH1 0x0 DUP5 DUP2 MSTORE PUSH1 0x20 ADD SWAP1 DUP2 MSTORE PUSH1 0x20 ADD PUSH1 0x0 KECCAK256 PUSH1 0x3 ADD PUSH1 0x15 SWAP1 SLOAD SWAP1 PUSH2 0x100 EXP SWAP1 DIV PUSH1 0xFF AND PUSH1 0x2 DUP2 GT ISZERO PUSH2 0x190A JUMPI PUSH2 0x1909 PUSH2 0x3E49 JUMP JUMPDEST JUMPDEST EQ PUSH2 0x194A JUMPI PUSH1 0x40 MLOAD PUSH32 0x8C379A000000000000000000000000000000000000000000000000000000000 DUP2 MSTORE PUSH1 0x4 ADD PUSH2 0x1941 SWAP1 PUSH2 0x3716 JUMP JUMPDEST PUSH1 0x40 MLOAD DUP1 SWAP2 SUB SWAP1 REVERT JUMPDEST PUSH1 0x0 DUP1 SLOAD SWAP1 PUSH2 0x100 EXP SWAP1 DIV PUSH20 0xFFFFFFFFFFFFFFFFFFFFFFFFFFFFFFFFFFFFFFFF AND PUSH20 0xFFFFFFFFFFFFFFFFFFFFFFFFFFFFFFFFFFFFFFFF AND PUSH4 0xA19BFFBE DUP9 DUP9 DUP9 CALLER PUSH1 0x40 MLOAD DUP6 PUSH4 0xFFFFFFFF AND PUSH1 0xE0 SHL DUP2 MSTORE PUSH1 0x4 ADD PUSH2 0x19A9 SWAP5 SWAP4 SWAP3 SWAP2 SWAP1 PUSH2 0x380D JUMP JUMPDEST PUSH1 0x0 PUSH1 0x40 MLOAD DUP1 DUP4 SUB DUP2 PUSH1 0x0 DUP8 DUP1 EXTCODESIZE ISZERO DUP1 ISZERO PUSH2 0x19C3 JUMPI PUSH1 0x0 DUP1 REVERT JUMPDEST POP GAS CALL ISZERO DUP1 ISZERO PUSH2 0x19D7 JUMPI RETURNDATASIZE PUSH1 0x0 DUP1 RETURNDATACOPY RETURNDATASIZE PUSH1 0x0 REVERT JUMPDEST POP POP POP POP POP POP POP POP POP POP POP JUMP JUMPDEST DUP3 PUSH1 0x3 PUSH1 0x0 DUP3 DUP2 MSTORE PUSH1 0x20 ADD SWAP1 DUP2 MSTORE PUSH1 0x20 ADD PUSH1 0x0 KECCAK256 PUSH1 0x3 ADD PUSH1 0x14 SWAP1 SLOAD SWAP1 PUSH2 0x100 EXP SWAP1 DIV PUSH1 0xFF AND PUSH2 0x1A48 JUMPI PUSH1 0x40 MLOAD PUSH32 0x8C379A000000000000000000000000000000000000000000000000000000000 DUP2 MSTORE PUSH1 0x4 ADD PUSH2 0x1A3F SWAP1 PUSH2 0x3756 JUMP JUMPDEST PUSH1 0x40 MLOAD DUP1 SWAP2 SUB SWAP1 REVERT JUMPDEST PUSH1 0x0 PUSH1 0x2 DUP2 GT ISZERO PUSH2 0x1A5C JUMPI PUSH2 0x1A5B PUSH2 0x3E49 JUMP JUMPDEST JUMPDEST PUSH1 0x3 PUSH1 0x0 DUP4 DUP2 MSTORE PUSH1 0x20 ADD SWAP1 DUP2 MSTORE PUSH1 0x20 ADD PUSH1 0x0 KECCAK256 PUSH1 0x3 ADD PUSH1 0x15 SWAP1 SLOAD SWAP1 PUSH2 0x100 EXP SWAP1 DIV PUSH1 0xFF AND PUSH1 0x2 DUP2 GT ISZERO PUSH2 0x1A92 JUMPI PUSH2 0x1A91 PUSH2 0x3E49 JUMP JUMPDEST JUMPDEST EQ PUSH2 0x1AD2 JUMPI PUSH1 0x40 MLOAD PUSH32 0x8C379A000000000000000000000000000000000000000000000000000000000 DUP2 MSTORE PUSH1 0x4 ADD PUSH2 0x1AC9 SWAP1 PUSH2 0x36F6 JUMP JUMPDEST PUSH1 0x40 MLOAD DUP1 SWAP2 SUB SWAP1 REVERT JUMPDEST DUP4 CALLER DUP1 PUSH20 0xFFFFFFFFFFFFFFFFFFFFFFFFFFFFFFFFFFFFFFFF AND PUSH1 0x3 PUSH1 0x0 DUP5 DUP2 MSTORE PUSH1 0x20 ADD SWAP1 DUP2 MSTORE PUSH1 0x20 ADD PUSH1 0x0 KECCAK256 PUSH1 0x3 ADD PUSH1 0x0 SWAP1 SLOAD SWAP1 PUSH2 0x100 EXP SWAP1 DIV PUSH20 0xFFFFFFFFFFFFFFFFFFFFFFFFFFFFFFFFFFFFFFFF AND PUSH20 0xFFFFFFFFFFFFFFFFFFFFFFFFFFFFFFFFFFFFFFFF AND EQ PUSH2 0x1B78 JUMPI PUSH1 0x40 MLOAD PUSH32 0x8C379A000000000000000000000000000000000000000000000000000000000 DUP2 MSTORE PUSH1 0x4 ADD PUSH2 0x1B6F SWAP1 PUSH2 0x3736 JUMP JUMPDEST PUSH1 0x40 MLOAD DUP1 SWAP2 SUB SWAP1 REVERT JUMPDEST DUP6 PUSH1 0x0 DUP1 PUSH1 0x2 DUP2 GT ISZERO PUSH2 0x1B8E JUMPI PUSH2 0x1B8D PUSH2 0x3E49 JUMP JUMPDEST JUMPDEST PUSH1 0x3 PUSH1 0x0 DUP5 DUP2 MSTORE PUSH1 0x20 ADD SWAP1 DUP2 MSTORE PUSH1 0x20 ADD PUSH1 0x0 KECCAK256 PUSH1 0x3 ADD PUSH1 0x15 SWAP1 SLOAD SWAP1 PUSH2 0x100 EXP SWAP1 DIV PUSH1 0xFF AND PUSH1 0x2 DUP2 GT ISZERO PUSH2 0x1BC4 JUMPI PUSH2 0x1BC3 PUSH2 0x3E49 JUMP JUMPDEST JUMPDEST EQ PUSH2 0x1C04 JUMPI PUSH1 0x40 MLOAD PUSH32 0x8C379A000000000000000000000000000000000000000000000000000000000 DUP2 MSTORE PUSH1 0x4 ADD PUSH2 0x1BFB SWAP1 PUSH2 0x3716 JUMP JUMPDEST PUSH1 0x40 MLOAD DUP1 SWAP2 SUB SWAP1 REVERT JUMPDEST DUP7 PUSH1 0x3 PUSH1 0x0 DUP11 DUP2 MSTORE PUSH1 0x20 ADD SWAP1 DUP2 MSTORE PUSH1 0x20 ADD PUSH1 0x0 KECCAK256 PUSH1 0x1 ADD SWAP1 DUP1 MLOAD SWAP1 PUSH1 0x20 ADD SWAP1 PUSH2 0x1C2E SWAP3 SWAP2 SWAP1 PUSH2 0x2C96 JUMP JUMPDEST POP DUP6 PUSH1 0x3 PUSH1 0x0 DUP11 DUP2 MSTORE PUSH1 0x20 ADD SWAP1 DUP2 MSTORE PUSH1 0x20 ADD PUSH1 0x0 KECCAK256 PUSH1 0x2 ADD SWAP1 DUP1 MLOAD SWAP1 PUSH1 0x20 ADD SWAP1 PUSH2 0x1C59 SWAP3 SWAP2 SWAP1 PUSH2 0x2C96 JUMP JUMPDEST POP PUSH32 0x852CF61204784DE3E6AE76789A9350F086AEABAC7957C2B16D22D683C56E2C1C DUP9 DUP9 DUP9 CALLER PUSH1 0x40 MLOAD PUSH2 0x1C8F SWAP5 SWAP4 SWAP3 SWAP2 SWAP1 PUSH2 0x37BA JUMP JUMPDEST PUSH1 0x40 MLOAD DUP1 SWAP2 SUB SWAP1 LOG1 POP POP POP POP POP POP POP POP JUMP JUMPDEST DUP3 PUSH1 0x0 DUP1 PUSH1 0x2 DUP2 GT ISZERO PUSH2 0x1CB7 JUMPI PUSH2 0x1CB6 PUSH2 0x3E49 JUMP JUMPDEST JUMPDEST PUSH1 0x3 PUSH1 0x0 DUP5 DUP2 MSTORE PUSH1 0x20 ADD SWAP1 DUP2 MSTORE PUSH1 0x20 ADD PUSH1 0x0 KECCAK256 PUSH1 0x3 ADD PUSH1 0x15 SWAP1 SLOAD SWAP1 PUSH2 0x100 EXP SWAP1 DIV PUSH1 0xFF AND PUSH1 0x2 DUP2 GT ISZERO PUSH2 0x1CED JUMPI PUSH2 0x1CEC PUSH2 0x3E49 JUMP JUMPDEST JUMPDEST EQ PUSH2 0x1D2D JUMPI PUSH1 0x40 MLOAD PUSH32 0x8C379A000000000000000000000000000000000000000000000000000000000 DUP2 MSTORE PUSH1 0x4 ADD PUSH2 0x1D24 SWAP1 PUSH2 0x3716 JUMP JUMPDEST PUSH1 0x40 MLOAD DUP1 SWAP2 SUB SWAP1 REVERT JUMPDEST PUSH1 0x0 DUP1 SLOAD SWAP1 PUSH2 0x100 EXP SWAP1 DIV PUSH20 0xFFFFFFFFFFFFFFFFFFFFFFFFFFFFFFFFFFFFFFFF AND PUSH20 0xFFFFFFFFFFFFFFFFFFFFFFFFFFFFFFFFFFFFFFFF AND PUSH4 0x8C749C74 DUP7 DUP7 DUP7 PUSH1 0x40 MLOAD DUP5 PUSH4 0xFFFFFFFF AND PUSH1 0xE0 SHL DUP2 MSTORE PUSH1 0x4 ADD PUSH2 0x1D8A SWAP4 SWAP3 SWAP2 SWAP1 PUSH2 0x38F8 JUMP JUMPDEST PUSH1 0x0 PUSH1 0x40 MLOAD DUP1 DUP4 SUB DUP2 PUSH1 0x0 DUP8 DUP1 EXTCODESIZE ISZERO DUP1 ISZERO PUSH2 0x1DA4 JUMPI PUSH1 0x0 DUP1 REVERT JUMPDEST POP GAS CALL ISZERO DUP1 ISZERO PUSH2 0x1DB8 JUMPI RETURNDATASIZE PUSH1 0x0 DUP1 RETURNDATACOPY RETURNDATASIZE PUSH1 0x0 REVERT JUMPDEST POP POP POP POP POP POP POP POP POP JUMP JUMPDEST PUSH1 0x0 PUSH1 0x3 PUSH1 0x0 DUP4 DUP2 MSTORE PUSH1 0x20 ADD SWAP1 DUP2 MSTORE PUSH1 0x20 ADD PUSH1 0x0 KECCAK256 PUSH1 0x3 ADD PUSH1 0x0 SWAP1 SLOAD SWAP1 PUSH2 0x100 EXP SWAP1 POP POP SWAP2 SWAP1 POP JUMP JUMPDEST DUP3 PUSH1 0x0 DUP1 PUSH1 0x2 DUP2 GT ISZERO PUSH2 0x1E02 JUMPI PUSH2 0x1E01 PUSH2 0x3E49 JUMP JUMPDEST JUMPDEST PUSH1 0x3 PUSH1 0x0 DUP5 DUP2 MSTORE PUSH1 0x20 ADD SWAP1 DUP2 MSTORE PUSH1 0x20 ADD PUSH1 0x0 KECCAK256 PUSH1 0x3 ADD PUSH1 0x15 SWAP1 SLOAD SWAP1 PUSH2 0x100 EXP SWAP1 DIV PUSH1 0xFF AND PUSH1 0x2 DUP2 GT ISZERO PUSH2 0x1E38 JUMPI PUSH2 0x1E37 PUSH2 0x3E49 JUMP JUMPDEST JUMPDEST EQ PUSH2 0x1E78 JUMPI PUSH1 0x40 MLOAD PUSH32 0x8C379A000000000000000000000000000000000000000000000000000000000 DUP2 MSTORE PUSH1 0x4 ADD PUSH2 0x1E6F SWAP1 PUSH2 0x3716 JUMP JUMPDEST PUSH1 0x40 MLOAD DUP1 SWAP2 SUB SWAP1 REVERT JUMPDEST PUSH1 0x0 DUP1 SLOAD SWAP1 PUSH2 0x100 EXP SWAP1 DIV PUSH20 0xFFFFFFFFFFFFFFFFFFFFFFFFFFFFFFFFFFFFFFFF AND PUSH20 0xFFFFFFFFFFFFFFFFFFFFFFFFFFFFFFFFFFFFFFFF AND PUSH4 0x9C87A5E9 DUP7 DUP7 DUP7 PUSH1 0x40 MLOAD DUP5 PUSH4 0xFFFFFFFF AND PUSH1 0xE0 SHL DUP2 MSTORE PUSH1 0x4 ADD PUSH2 0x1ED5 SWAP4 SWAP3 SWAP2 SWAP1 PUSH2 0x39FE JUMP JUMPDEST PUSH1 0x0 PUSH1 0x40 MLOAD DUP1 DUP4 SUB DUP2 PUSH1 0x0 DUP8 DUP1 EXTCODESIZE ISZERO DUP1 ISZERO PUSH2 0x1EEF JUMPI PUSH1 0x0 DUP1 REVERT JUMPDEST POP GAS CALL ISZERO DUP1 ISZERO PUSH2 0x1F03 JUMPI RETURNDATASIZE PUSH1 0x0 DUP1 RETURNDATACOPY RETURNDATASIZE PUSH1 0x0 REVERT JUMPDEST POP POP POP POP POP POP POP POP POP JUMP JUMPDEST PUSH1 0x2 SLOAD DUP2 JUMP JUMPDEST PUSH1 0x60 DUP4 PUSH1 0x0 DUP1 PUSH1 0x2 DUP2 GT ISZERO PUSH2 0x1F2C JUMPI PUSH2 0x1F2B PUSH2 0x3E49 JUMP JUMPDEST JUMPDEST PUSH1 0x3 PUSH1 0x0 DUP5 DUP2 MSTORE PUSH1 0x20 ADD SWAP1 DUP2 MSTORE PUSH1 0x20 ADD PUSH1 0x0 KECCAK256 PUSH1 0x3 ADD PUSH1 0x15 SWAP1 SLOAD SWAP1 PUSH2 0x100 EXP SWAP1 DIV PUSH1 0xFF AND PUSH1 0x2 DUP2 GT ISZERO PUSH2 0x1F62 JUMPI PUSH2 0x1F61 PUSH2 0x3E49 JUMP JUMPDEST JUMPDEST EQ PUSH2 0x1FA2 JUMPI PUSH1 0x40 MLOAD PUSH32 0x8C379A000000000000000000000000000000000000000000000000000000000 DUP2 MSTORE PUSH1 0x4 ADD PUSH2 0x1F99 SWAP1 PUSH2 0x3716 JUMP JUMPDEST PUSH1 0x40 MLOAD DUP1 SWAP2 SUB SWAP1 REVERT JUMPDEST PUSH1 0x0 DUP1 SLOAD SWAP1 PUSH2 0x100 EXP SWAP1 DIV PUSH20 0xFFFFFFFFFFFFFFFFFFFFFFFFFFFFFFFFFFFFFFFF AND PUSH20 0xFFFFFFFFFFFFFFFFFFFFFFFFFFFFFFFFFFFFFFFF AND PUSH4 0xACE731BD DUP8 DUP8 DUP8 PUSH1 0x40 MLOAD DUP5 PUSH4 0xFFFFFFFF AND PUSH1 0xE0 SHL DUP2 MSTORE PUSH1 0x4 ADD PUSH2 0x1FFF SWAP4 SWAP3 SWAP2 SWAP1 PUSH2 0x39FE JUMP JUMPDEST PUSH1 0x0 PUSH1 0x40 MLOAD DUP1 DUP4 SUB DUP2 DUP7 DUP1 EXTCODESIZE ISZERO DUP1 ISZERO PUSH2 0x2017 JUMPI PUSH1 0x0 DUP1 REVERT JUMPDEST POP GAS STATICCALL ISZERO DUP1 ISZERO PUSH2 0x202B JUMPI RETURNDATASIZE PUSH1 0x0 DUP1 RETURNDATACOPY RETURNDATASIZE PUSH1 0x0 REVERT JUMPDEST POP POP POP POP PUSH1 0x40 MLOAD RETURNDATASIZE PUSH1 0x0 DUP3 RETURNDATACOPY RETURNDATASIZE PUSH1 0x1F NOT PUSH1 0x1F DUP3 ADD AND DUP3 ADD DUP1 PUSH1 0x40 MSTORE POP DUP2 ADD SWAP1 PUSH2 0x2054 SWAP2 SWAP1 PUSH2 0x2E97 JUMP JUMPDEST POP POP POP SWAP4 SWAP3 POP POP POP JUMP JUMPDEST DUP3 CALLER DUP1 PUSH20 0xFFFFFFFFFFFFFFFFFFFFFFFFFFFFFFFFFFFFFFFF AND PUSH1 0x3 PUSH1 0x0 DUP5 DUP2 MSTORE PUSH1 0x20 ADD SWAP1 DUP2 MSTORE PUSH1 0x20 ADD PUSH1 0x0 KECCAK256 PUSH1 0x3 ADD PUSH1 0x0 SWAP1 SLOAD SWAP1 PUSH2 0x100 EXP SWAP1 DIV PUSH20 0xFFFFFFFFFFFFFFFFFFFFFFFFFFFFFFFFFFFFFFFF AND PUSH20 0xFFFFFFFFFFFFFFFFFFFFFFFFFFFFFFFFFFFFFFFF AND EQ PUSH2 0x2104 JUMPI PUSH1 0x40 MLOAD PUSH32 0x8C379A000000000000000000000000000000000000000000000000000000000 DUP2 MSTORE PUSH1 0x4 ADD PUSH2 0x20FB SWAP1 PUSH2 0x3736 JUMP JUMPDEST PUSH1 0x40 MLOAD DUP1 SWAP2 SUB SWAP1 REVERT JUMPDEST DUP5 PUSH1 0x0 DUP1 PUSH1 0x2 DUP2 GT ISZERO PUSH2 0x211A JUMPI PUSH2 0x2119 PUSH2 0x3E49 JUMP JUMPDEST JUMPDEST PUSH1 0x3 PUSH1 0x0 DUP5 DUP2 MSTORE PUSH1 0x20 ADD SWAP1 DUP2 MSTORE PUSH1 0x20 ADD PUSH1 0x0 KECCAK256 PUSH1 0x3 ADD PUSH1 0x15 SWAP1 SLOAD SWAP1 PUSH2 0x100 EXP SWAP1 DIV PUSH1 0xFF AND PUSH1 0x2 DUP2 GT ISZERO PUSH2 0x2150 JUMPI PUSH2 0x214F PUSH2 0x3E49 JUMP JUMPDEST JUMPDEST EQ PUSH2 0x2190 JUMPI PUSH1 0x40 MLOAD PUSH32 0x8C379A000000000000000000000000000000000000000000000000000000000 DUP2 MSTORE PUSH1 0x4 ADD PUSH2 0x2187 SWAP1 PUSH2 0x3716 JUMP JUMPDEST PUSH1 0x40 MLOAD DUP1 SWAP2 SUB SWAP1 REVERT JUMPDEST PUSH1 0x0 DUP1 SLOAD SWAP1 PUSH2 0x100 EXP SWAP1 DIV PUSH20 0xFFFFFFFFFFFFFFFFFFFFFFFFFFFFFFFFFFFFFFFF AND PUSH20 0xFFFFFFFFFFFFFFFFFFFFFFFFFFFFFFFFFFFFFFFF AND PUSH4 0xB9B6C5D4 DUP9 DUP9 DUP9 PUSH1 0x40 MLOAD DUP5 PUSH4 0xFFFFFFFF AND PUSH1 0xE0 SHL DUP2 MSTORE PUSH1 0x4 ADD PUSH2 0x21ED SWAP4 SWAP3 SWAP2 SWAP1 PUSH2 0x39FE JUMP JUMPDEST PUSH1 0x0 PUSH1 0x40 MLOAD DUP1 DUP4 SUB DUP2 PUSH1 0x0 DUP8 DUP1 EXTCODESIZE ISZERO DUP1 ISZERO PUSH2 0x2207 JUMPI PUSH1 0x0 DUP1 REVERT JUMPDEST POP GAS CALL ISZERO DUP1 ISZERO PUSH2 0x221B JUMPI RETURNDATASIZE PUSH1 0x0 DUP1 RETURNDATACOPY RETURNDATASIZE PUSH1 0x0 REVERT JUMPDEST POP POP POP POP POP POP POP POP POP POP POP JUMP JUMPDEST PUSH1 0x0 DUP1 SLOAD SWAP1 PUSH2 0x100 EXP SWAP1 DIV PUSH20 0xFFFFFFFFFFFFFFFFFFFFFFFFFFFFFFFFFFFFFFFF AND PUSH20 0xFFFFFFFFFFFFFFFFFFFFFFFFFFFFFFFFFFFFFFFF AND PUSH4 0xBBA93C0B DUP8 DUP8 DUP8 DUP8 DUP8 DUP8 PUSH1 0x40 MLOAD DUP8 PUSH4 0xFFFFFFFF AND PUSH1 0xE0 SHL DUP2 MSTORE PUSH1 0x4 ADD PUSH2 0x228B SWAP7 SWAP6 SWAP5 SWAP4 SWAP3 SWAP2 SWAP1 PUSH2 0x3A35 JUMP JUMPDEST PUSH1 0x0 PUSH1 0x40 MLOAD DUP1 DUP4 SUB DUP2 PUSH1 0x0 DUP8 DUP1 EXTCODESIZE ISZERO DUP1 ISZERO PUSH2 0x22A5 JUMPI PUSH1 0x0 DUP1 REVERT JUMPDEST POP GAS CALL ISZERO DUP1 ISZERO PUSH2 0x22B9 JUMPI RETURNDATASIZE PUSH1 0x0 DUP1 RETURNDATACOPY RETURNDATASIZE PUSH1 0x0 REVERT JUMPDEST POP POP POP POP POP POP POP POP POP POP JUMP JUMPDEST DUP5 PUSH1 0x0 DUP1 PUSH1 0x2 DUP2 GT ISZERO PUSH2 0x22DB JUMPI PUSH2 0x22DA PUSH2 0x3E49 JUMP JUMPDEST JUMPDEST PUSH1 0x3 PUSH1 0x0 DUP5 DUP2 MSTORE PUSH1 0x20 ADD SWAP1 DUP2 MSTORE PUSH1 0x20 ADD PUSH1 0x0 KECCAK256 PUSH1 0x3 ADD PUSH1 0x15 SWAP1 SLOAD SWAP1 PUSH2 0x100 EXP SWAP1 DIV PUSH1 0xFF AND PUSH1 0x2 DUP2 GT ISZERO PUSH2 0x2311 JUMPI PUSH2 0x2310 PUSH2 0x3E49 JUMP JUMPDEST JUMPDEST EQ PUSH2 0x2351 JUMPI PUSH1 0x40 MLOAD PUSH32 0x8C379A000000000000000000000000000000000000000000000000000000000 DUP2 MSTORE PUSH1 0x4 ADD PUSH2 0x2348 SWAP1 PUSH2 0x3716 JUMP JUMPDEST PUSH1 0x40 MLOAD DUP1 SWAP2 SUB SWAP1 REVERT JUMPDEST PUSH1 0x0 DUP1 SLOAD SWAP1 PUSH2 0x100 EXP SWAP1 DIV PUSH20 0xFFFFFFFFFFFFFFFFFFFFFFFFFFFFFFFFFFFFFFFF AND PUSH20 0xFFFFFFFFFFFFFFFFFFFFFFFFFFFFFFFFFFFFFFFF AND PUSH4 0xC171BDF7 DUP9 DUP9 DUP9 DUP9 DUP9 PUSH1 0x40 MLOAD DUP7 PUSH4 0xFFFFFFFF AND PUSH1 0xE0 SHL DUP2 MSTORE PUSH1 0x4 ADD PUSH2 0x23B2 SWAP6 SWAP5 SWAP4 SWAP3 SWAP2 SWAP1 PUSH2 0x3A9D JUMP JUMPDEST PUSH1 0x0 PUSH1 0x40 MLOAD DUP1 DUP4 SUB DUP2 PUSH1 0x0 DUP8 DUP1 EXTCODESIZE ISZERO DUP1 ISZERO PUSH2 0x23CC JUMPI PUSH1 0x0 DUP1 REVERT JUMPDEST POP GAS CALL ISZERO DUP1 ISZERO PUSH2 0x23E0 JUMPI RETURNDATASIZE PUSH1 0x0 DUP1 RETURNDATACOPY RETURNDATASIZE PUSH1 0x0 REVERT JUMPDEST POP POP POP POP POP POP POP POP POP POP POP JUMP JUMPDEST PUSH1 0x60 DUP3 PUSH1 0x0 DUP1 PUSH1 0x2 DUP2 GT ISZERO PUSH2 0x2405 JUMPI PUSH2 0x2404 PUSH2 0x3E49 JUMP JUMPDEST JUMPDEST PUSH1 0x3 PUSH1 0x0 DUP5 DUP2 MSTORE PUSH1 0x20 ADD SWAP1 DUP2 MSTORE PUSH1 0x20 ADD PUSH1 0x0 KECCAK256 PUSH1 0x3 ADD PUSH1 0x15 SWAP1 SLOAD SWAP1 PUSH2 0x100 EXP SWAP1 DIV PUSH1 0xFF AND PUSH1 0x2 DUP2 GT ISZERO PUSH2 0x243B JUMPI PUSH2 0x243A PUSH2 0x3E49 JUMP JUMPDEST JUMPDEST EQ PUSH2 0x247B JUMPI PUSH1 0x40 MLOAD PUSH32 0x8C379A000000000000000000000000000000000000000000000000000000000 DUP2 MSTORE PUSH1 0x4 ADD PUSH2 0x2472 SWAP1 PUSH2 0x3716 JUMP JUMPDEST PUSH1 0x40 MLOAD DUP1 SWAP2 SUB SWAP1 REVERT JUMPDEST PUSH1 0x0 DUP1 SLOAD SWAP1 PUSH2 0x100 EXP SWAP1 DIV PUSH20 0xFFFFFFFFFFFFFFFFFFFFFFFFFFFFFFFFFFFFFFFF AND PUSH20 0xFFFFFFFFFFFFFFFFFFFFFFFFFFFFFFFFFFFFFFFF AND PUSH4 0xC304CCDC DUP7 DUP7 PUSH1 0x40 MLOAD DUP4 PUSH4 0xFFFFFFFF AND PUSH1 0xE0 SHL DUP2 MSTORE PUSH1 0x4 ADD PUSH2 0x24D6 SWAP3 SWAP2 SWAP1 PUSH2 0x38CF JUMP JUMPDEST PUSH1 0x0 PUSH1 0x40 MLOAD DUP1 DUP4 SUB DUP2 DUP7 DUP1 EXTCODESIZE ISZERO DUP1 ISZERO PUSH2 0x24EE JUMPI PUSH1 0x0 DUP1 REVERT JUMPDEST POP GAS STATICCALL ISZERO DUP1 ISZERO PUSH2 0x2502 JUMPI RETURNDATASIZE PUSH1 0x0 DUP1 RETURNDATACOPY RETURNDATASIZE PUSH1 0x0 REVERT JUMPDEST POP POP POP POP PUSH1 0x40 MLOAD RETURNDATASIZE PUSH1 0x0 DUP3 RETURNDATACOPY RETURNDATASIZE PUSH1 0x1F NOT PUSH1 0x1F DUP3 ADD AND DUP3 ADD DUP1 PUSH1 0x40 MSTORE POP DUP2 ADD SWAP1 PUSH2 0x252B SWAP2 SWAP1 PUSH2 0x2E97 JUMP JUMPDEST POP POP POP SWAP3 SWAP2 POP POP JUMP JUMPDEST DUP3 PUSH1 0x0 DUP1 PUSH1 0x2 DUP2 GT ISZERO PUSH2 0x254A JUMPI PUSH2 0x2549 PUSH2 0x3E49 JUMP JUMPDEST JUMPDEST PUSH1 0x3 PUSH1 0x0 DUP5 DUP2 MSTORE PUSH1 0x20 ADD SWAP1 DUP2 MSTORE PUSH1 0x20 ADD PUSH1 0x0 KECCAK256 PUSH1 0x3 ADD PUSH1 0x15 SWAP1 SLOAD SWAP1 PUSH2 0x100 EXP SWAP1 DIV PUSH1 0xFF AND PUSH1 0x2 DUP2 GT ISZERO PUSH2 0x2580 JUMPI PUSH2 0x257F PUSH2 0x3E49 JUMP JUMPDEST JUMPDEST EQ PUSH2 0x25C0 JUMPI PUSH1 0x40 MLOAD PUSH32 0x8C379A000000000000000000000000000000000000000000000000000000000 DUP2 MSTORE PUSH1 0x4 ADD PUSH2 0x25B7 SWAP1 PUSH2 0x3716 JUMP JUMPDEST PUSH1 0x40 MLOAD DUP1 SWAP2 SUB SWAP1 REVERT JUMPDEST PUSH1 0x0 DUP1 SLOAD SWAP1 PUSH2 0x100 EXP SWAP1 DIV PUSH20 0xFFFFFFFFFFFFFFFFFFFFFFFFFFFFFFFFFFFFFFFF AND PUSH20 0xFFFFFFFFFFFFFFFFFFFFFFFFFFFFFFFFFFFFFFFF AND PUSH4 0xC3B9E304 DUP7 DUP7 DUP7 PUSH1 0x40 MLOAD DUP5 PUSH4 0xFFFFFFFF AND PUSH1 0xE0 SHL DUP2 MSTORE PUSH1 0x4 ADD PUSH2 0x261D SWAP4 SWAP3 SWAP2 SWAP1 PUSH2 0x39FE JUMP JUMPDEST PUSH1 0x0 PUSH1 0x40 MLOAD DUP1 DUP4 SUB DUP2 PUSH1 0x0 DUP8 DUP1 EXTCODESIZE ISZERO DUP1 ISZERO PUSH2 0x2637 JUMPI PUSH1 0x0 DUP1 REVERT JUMPDEST POP GAS CALL ISZERO DUP1 ISZERO PUSH2 0x264B JUMPI RETURNDATASIZE PUSH1 0x0 DUP1 RETURNDATACOPY RETURNDATASIZE PUSH1 0x0 REVERT JUMPDEST POP POP POP POP POP POP POP POP POP JUMP JUMPDEST PUSH1 0x0 DUP1 PUSH1 0x0 SWAP1 SLOAD SWAP1 PUSH2 0x100 EXP SWAP1 DIV PUSH20 0xFFFFFFFFFFFFFFFFFFFFFFFFFFFFFFFFFFFFFFFF AND PUSH20 0xFFFFFFFFFFFFFFFFFFFFFFFFFFFFFFFFFFFFFFFF AND PUSH4 0xCCEE835B DUP5 DUP5 PUSH1 0x40 MLOAD DUP4 PUSH4 0xFFFFFFFF AND PUSH1 0xE0 SHL DUP2 MSTORE PUSH1 0x4 ADD PUSH2 0x26B4 SWAP3 SWAP2 SWAP1 PUSH2 0x38CF JUMP JUMPDEST PUSH1 0x20 PUSH1 0x40 MLOAD DUP1 DUP4 SUB DUP2 DUP7 DUP1 EXTCODESIZE ISZERO DUP1 ISZERO PUSH2 0x26CC JUMPI PUSH1 0x0 DUP1 REVERT JUMPDEST POP GAS STATICCALL ISZERO DUP1 ISZERO PUSH2 0x26E0 JUMPI RETURNDATASIZE PUSH1 0x0 DUP1 RETURNDATACOPY RETURNDATASIZE PUSH1 0x0 REVERT JUMPDEST POP POP POP POP PUSH1 0x40 MLOAD RETURNDATASIZE PUSH1 0x1F NOT PUSH1 0x1F DUP3 ADD AND DUP3 ADD DUP1 PUSH1 0x40 MSTORE POP DUP2 ADD SWAP1 PUSH2 0x2704 SWAP2 SWAP1 PUSH2 0x2F85 JUMP JUMPDEST SWAP1 POP SWAP3 SWAP2 POP POP JUMP JUMPDEST DUP5 PUSH1 0x0 DUP1 PUSH1 0x2 DUP2 GT ISZERO PUSH2 0x2722 JUMPI PUSH2 0x2721 PUSH2 0x3E49 JUMP JUMPDEST JUMPDEST PUSH1 0x3 PUSH1 0x0 DUP5 DUP2 MSTORE PUSH1 0x20 ADD SWAP1 DUP2 MSTORE PUSH1 0x20 ADD PUSH1 0x0 KECCAK256 PUSH1 0x3 ADD PUSH1 0x15 SWAP1 SLOAD SWAP1 PUSH2 0x100 EXP SWAP1 DIV PUSH1 0xFF AND PUSH1 0x2 DUP2 GT ISZERO PUSH2 0x2758 JUMPI PUSH2 0x2757 PUSH2 0x3E49 JUMP JUMPDEST JUMPDEST EQ PUSH2 0x2798 JUMPI PUSH1 0x40 MLOAD PUSH32 0x8C379A000000000000000000000000000000000000000000000000000000000 DUP2 MSTORE PUSH1 0x4 ADD PUSH2 0x278F SWAP1 PUSH2 0x3716 JUMP JUMPDEST PUSH1 0x40 MLOAD DUP1 SWAP2 SUB SWAP1 REVERT JUMPDEST PUSH1 0x0 DUP1 SLOAD SWAP1 PUSH2 0x100 EXP SWAP1 DIV PUSH20 0xFFFFFFFFFFFFFFFFFFFFFFFFFFFFFFFFFFFFFFFF AND PUSH20 0xFFFFFFFFFFFFFFFFFFFFFFFFFFFFFFFFFFFFFFFF AND PUSH4 0xD1E992A7 DUP9 DUP9 DUP9 DUP9 DUP9 PUSH1 0x40 MLOAD DUP7 PUSH4 0xFFFFFFFF AND PUSH1 0xE0 SHL DUP2 MSTORE PUSH1 0x4 ADD PUSH2 0x27F9 SWAP6 SWAP5 SWAP4 SWAP3 SWAP2 SWAP1 PUSH2 0x3AF0 JUMP JUMPDEST PUSH1 0x0 PUSH1 0x40 MLOAD DUP1 DUP4 SUB DUP2 PUSH1 0x0 DUP8 DUP1 EXTCODESIZE ISZERO DUP1 ISZERO PUSH2 0x2813 JUMPI PUSH1 0x0 DUP1 REVERT JUMPDEST POP GAS CALL ISZERO DUP1 ISZERO PUSH2 0x2827 JUMPI RETURNDATASIZE PUSH1 0x0 DUP1 RETURNDATACOPY RETURNDATASIZE PUSH1 0x0 REVERT JUMPDEST POP POP POP POP POP POP POP POP POP POP POP JUMP JUMPDEST DUP7 PUSH1 0x0 DUP1 PUSH1 0x2 DUP2 GT ISZERO PUSH2 0x284A JUMPI PUSH2 0x2849 PUSH2 0x3E49 JUMP JUMPDEST JUMPDEST PUSH1 0x3 PUSH1 0x0 DUP5 DUP2 MSTORE PUSH1 0x20 ADD SWAP1 DUP2 MSTORE PUSH1 0x20 ADD PUSH1 0x0 KECCAK256 PUSH1 0x3 ADD PUSH1 0x15 SWAP1 SLOAD SWAP1 PUSH2 0x100 EXP SWAP1 DIV PUSH1 0xFF AND PUSH1 0x2 DUP2 GT ISZERO PUSH2 0x2880 JUMPI PUSH2 0x287F PUSH2 0x3E49 JUMP JUMPDEST JUMPDEST EQ PUSH2 0x28C0 JUMPI PUSH1 0x40 MLOAD PUSH32 0x8C379A000000000000000000000000000000000000000000000000000000000 DUP2 MSTORE PUSH1 0x4 ADD PUSH2 0x28B7 SWAP1 PUSH2 0x3716 JUMP JUMPDEST PUSH1 0x40 MLOAD DUP1 SWAP2 SUB SWAP1 REVERT JUMPDEST PUSH1 0x0 DUP1 SLOAD SWAP1 PUSH2 0x100 EXP SWAP1 DIV PUSH20 0xFFFFFFFFFFFFFFFFFFFFFFFFFFFFFFFFFFFFFFFF AND PUSH20 0xFFFFFFFFFFFFFFFFFFFFFFFFFFFFFFFFFFFFFFFF AND PUSH4 0xE731AC45 DUP11 DUP11 DUP11 DUP11 DUP11 DUP11 DUP11 PUSH1 0x40 MLOAD DUP9 PUSH4 0xFFFFFFFF AND PUSH1 0xE0 SHL DUP2 MSTORE PUSH1 0x4 ADD PUSH2 0x2925 SWAP8 SWAP7 SWAP6 SWAP5 SWAP4 SWAP3 SWAP2 SWAP1 PUSH2 0x3B51 JUMP JUMPDEST PUSH1 0x0 PUSH1 0x40 MLOAD DUP1 DUP4 SUB DUP2 PUSH1 0x0 DUP8 DUP1 EXTCODESIZE ISZERO DUP1 ISZERO PUSH2 0x293F JUMPI PUSH1 0x0 DUP1 REVERT JUMPDEST POP GAS CALL ISZERO DUP1 ISZERO PUSH2 0x2953 JUMPI RETURNDATASIZE PUSH1 0x0 DUP1 RETURNDATACOPY RETURNDATASIZE PUSH1 0x0 REVERT JUMPDEST POP POP POP POP POP POP POP POP POP POP POP POP POP JUMP JUMPDEST DUP3 PUSH1 0x0 DUP1 PUSH1 0x2 DUP2 GT ISZERO PUSH2 0x2978 JUMPI PUSH2 0x2977 PUSH2 0x3E49 JUMP JUMPDEST JUMPDEST PUSH1 0x3 PUSH1 0x0 DUP5 DUP2 MSTORE PUSH1 0x20 ADD SWAP1 DUP2 MSTORE PUSH1 0x20 ADD PUSH1 0x0 KECCAK256 PUSH1 0x3 ADD PUSH1 0x15 SWAP1 SLOAD SWAP1 PUSH2 0x100 EXP SWAP1 DIV PUSH1 0xFF AND PUSH1 0x2 DUP2 GT ISZERO PUSH2 0x29AE JUMPI PUSH2 0x29AD PUSH2 0x3E49 JUMP JUMPDEST JUMPDEST EQ PUSH2 0x29EE JUMPI PUSH1 0x40 MLOAD PUSH32 0x8C379A000000000000000000000000000000000000000000000000000000000 DUP2 MSTORE PUSH1 0x4 ADD PUSH2 0x29E5 SWAP1 PUSH2 0x3716 JUMP JUMPDEST PUSH1 0x40 MLOAD DUP1 SWAP2 SUB SWAP1 REVERT JUMPDEST PUSH1 0x0 DUP1 SLOAD SWAP1 PUSH2 0x100 EXP SWAP1 DIV PUSH20 0xFFFFFFFFFFFFFFFFFFFFFFFFFFFFFFFFFFFFFFFF AND PUSH20 0xFFFFFFFFFFFFFFFFFFFFFFFFFFFFFFFFFFFFFFFF AND PUSH4 0xF0F238CE DUP7 DUP7 DUP7 PUSH1 0x40 MLOAD DUP5 PUSH4 0xFFFFFFFF AND PUSH1 0xE0 SHL DUP2 MSTORE PUSH1 0x4 ADD PUSH2 0x2A4B SWAP4 SWAP3 SWAP2 SWAP1 PUSH2 0x38F8 JUMP JUMPDEST PUSH1 0x0 PUSH1 0x40 MLOAD DUP1 DUP4 SUB DUP2 PUSH1 0x0 DUP8 DUP1 EXTCODESIZE ISZERO DUP1 ISZERO PUSH2 0x2A65 JUMPI PUSH1 0x0 DUP1 REVERT JUMPDEST POP GAS CALL ISZERO DUP1 ISZERO PUSH2 0x2A79 JUMPI RETURNDATASIZE PUSH1 0x0 DUP1 RETURNDATACOPY RETURNDATASIZE PUSH1 0x0 REVERT JUMPDEST POP POP POP POP POP POP POP POP POP JUMP JUMPDEST DUP5 CALLER DUP1 PUSH20 0xFFFFFFFFFFFFFFFFFFFFFFFFFFFFFFFFFFFFFFFF AND PUSH1 0x3 PUSH1 0x0 DUP5 DUP2 MSTORE PUSH1 0x20 ADD SWAP1 DUP2 MSTORE PUSH1 0x20 ADD PUSH1 0x0 KECCAK256 PUSH1 0x3 ADD PUSH1 0x0 SWAP1 SLOAD SWAP1 PUSH2 0x100 EXP SWAP1 DIV PUSH20 0xFFFFFFFFFFFFFFFFFFFFFFFFFFFFFFFFFFFFFFFF AND PUSH20 0xFFFFFFFFFFFFFFFFFFFFFFFFFFFFFFFFFFFFFFFF AND EQ PUSH2 0x2B2A JUMPI PUSH1 0x40 MLOAD PUSH32 0x8C379A000000000000000000000000000000000000000000000000000000000 DUP2 MSTORE PUSH1 0x4 ADD PUSH2 0x2B21 SWAP1 PUSH2 0x3736 JUMP JUMPDEST PUSH1 0x40 MLOAD DUP1 SWAP2 SUB SWAP1 REVERT JUMPDEST DUP7 PUSH1 0x0 DUP1 PUSH1 0x2 DUP2 GT ISZERO PUSH2 0x2B40 JUMPI PUSH2 0x2B3F PUSH2 0x3E49 JUMP JUMPDEST JUMPDEST PUSH1 0x3 PUSH1 0x0 DUP5 DUP2 MSTORE PUSH1 0x20 ADD SWAP1 DUP2 MSTORE PUSH1 0x20 ADD PUSH1 0x0 KECCAK256 PUSH1 0x3 ADD PUSH1 0x15 SWAP1 SLOAD SWAP1 PUSH2 0x100 EXP SWAP1 DIV PUSH1 0xFF AND PUSH1 0x2 DUP2 GT ISZERO PUSH2 0x2B76 JUMPI PUSH2 0x2B75 PUSH2 0x3E49 JUMP JUMPDEST JUMPDEST EQ PUSH2 0x2BB6 JUMPI PUSH1 0x40 MLOAD PUSH32 0x8C379A000000000000000000000000000000000000000000000000000000000 DUP2 MSTORE PUSH1 0x4 ADD PUSH2 0x2BAD SWAP1 PUSH2 0x3716 JUMP JUMPDEST PUSH1 0x40 MLOAD DUP1 SWAP2 SUB SWAP1 REVERT JUMPDEST PUSH1 0x0 DUP1 SLOAD SWAP1 PUSH2 0x100 EXP SWAP1 DIV PUSH20 0xFFFFFFFFFFFFFFFFFFFFFFFFFFFFFFFFFFFFFFFF AND PUSH20 0xFFFFFFFFFFFFFFFFFFFFFFFFFFFFFFFFFFFFFFFF AND PUSH4 0xFD23C4BB DUP11 DUP11 DUP11 DUP11 DUP11 PUSH1 0x40 MLOAD DUP7 PUSH4 0xFFFFFFFF AND PUSH1 0xE0 SHL DUP2 MSTORE PUSH1 0x4 ADD PUSH2 0x2C17 SWAP6 SWAP5 SWAP4 SWAP3 SWAP2 SWAP1 PUSH2 0x3AF0 JUMP JUMPDEST PUSH1 0x0 PUSH1 0x40 MLOAD DUP1 DUP4 SUB DUP2 PUSH1 0x0 DUP8 DUP1 EXTCODESIZE ISZERO DUP1 ISZERO PUSH2 0x2C31 JUMPI PUSH1 0x0 DUP1 REVERT JUMPDEST POP GAS CALL ISZERO DUP1 ISZERO PUSH2 0x2C45 JUMPI RETURNDATASIZE PUSH1 0x0 DUP1 RETURNDATACOPY RETURNDATASIZE PUSH1 0x0 REVERT JUMPDEST POP POP POP POP POP POP POP POP POP POP POP POP POP JUMP JUMPDEST DUP1 PUSH1 0x3 PUSH1 0x0 DUP5 DUP2 MSTORE PUSH1 0x20 ADD SWAP1 DUP2 MSTORE PUSH1 0x20 ADD PUSH1 0x0 KECCAK256 PUSH1 0x3 ADD PUSH1 0x15 PUSH2 0x100 EXP DUP2 SLOAD DUP2 PUSH1 0xFF MUL NOT AND SWAP1 DUP4 PUSH1 0x2 DUP2 GT ISZERO PUSH2 0x2C8D JUMPI PUSH2 0x2C8C PUSH2 0x3E49 JUMP JUMPDEST JUMPDEST MUL OR SWAP1 SSTORE POP POP POP JUMP JUMPDEST DUP3 DUP1 SLOAD PUSH2 0x2CA2 SWAP1 PUSH2 0x3D6E JUMP JUMPDEST SWAP1 PUSH1 0x0 MSTORE PUSH1 0x20 PUSH1 0x0 KECCAK256 SWAP1 PUSH1 0x1F ADD PUSH1 0x20 SWAP1 DIV DUP2 ADD SWAP3 DUP3 PUSH2 0x2CC4 JUMPI PUSH1 0x0 DUP6 SSTORE PUSH2 0x2D0B JUMP JUMPDEST DUP3 PUSH1 0x1F LT PUSH2 0x2CDD JUMPI DUP1 MLOAD PUSH1 0xFF NOT AND DUP4 DUP1 ADD OR DUP6 SSTORE PUSH2 0x2D0B JUMP JUMPDEST DUP3 DUP1 ADD PUSH1 0x1 ADD DUP6 SSTORE DUP3 ISZERO PUSH2 0x2D0B JUMPI SWAP2 DUP3 ADD JUMPDEST DUP3 DUP2 GT ISZERO PUSH2 0x2D0A JUMPI DUP3 MLOAD DUP3 SSTORE SWAP2 PUSH1 0x20 ADD SWAP2 SWAP1 PUSH1 0x1 ADD SWAP1 PUSH2 0x2CEF JUMP JUMPDEST JUMPDEST POP SWAP1 POP PUSH2 0x2D18 SWAP2 SWAP1 PUSH2 0x2D1C JUMP JUMPDEST POP SWAP1 JUMP JUMPDEST JUMPDEST DUP1 DUP3 GT ISZERO PUSH2 0x2D35 JUMPI PUSH1 0x0 DUP2 PUSH1 0x0 SWAP1 SSTORE POP PUSH1 0x1 ADD PUSH2 0x2D1D JUMP JUMPDEST POP SWAP1 JUMP JUMPDEST PUSH1 0x0 PUSH2 0x2D4C PUSH2 0x2D47 DUP5 PUSH2 0x3BF3 JUMP JUMPDEST PUSH2 0x3BCE JUMP JUMPDEST SWAP1 POP DUP3 DUP2 MSTORE PUSH1 0x20 DUP2 ADD DUP5 DUP5 DUP5 ADD GT ISZERO PUSH2 0x2D68 JUMPI PUSH2 0x2D67 PUSH2 0x3EDB JUMP JUMPDEST JUMPDEST PUSH2 0x2D73 DUP5 DUP3 DUP6 PUSH2 0x3D02 JUMP JUMPDEST POP SWAP4 SWAP3 POP POP POP JUMP JUMPDEST PUSH1 0x0 PUSH2 0x2D8E PUSH2 0x2D89 DUP5 PUSH2 0x3BF3 JUMP JUMPDEST PUSH2 0x3BCE JUMP JUMPDEST SWAP1 POP DUP3 DUP2 MSTORE PUSH1 0x20 DUP2 ADD DUP5 DUP5 DUP5 ADD GT ISZERO PUSH2 0x2DAA JUMPI PUSH2 0x2DA9 PUSH2 0x3EDB JUMP JUMPDEST JUMPDEST PUSH2 0x2DB5 DUP5 DUP3 DUP6 PUSH2 0x3D11 JUMP JUMPDEST POP SWAP4 SWAP3 POP POP POP JUMP JUMPDEST PUSH1 0x0 DUP2 CALLDATALOAD SWAP1 POP PUSH2 0x2DCC DUP2 PUSH2 0x4071 JUMP JUMPDEST SWAP3 SWAP2 POP POP JUMP JUMPDEST PUSH1 0x0 DUP2 CALLDATALOAD SWAP1 POP PUSH2 0x2DE1 DUP2 PUSH2 0x4088 JUMP JUMPDEST SWAP3 SWAP2 POP POP JUMP JUMPDEST PUSH1 0x0 DUP2 CALLDATALOAD SWAP1 POP PUSH2 0x2DF6 DUP2 PUSH2 0x409F JUMP JUMPDEST SWAP3 SWAP2 POP POP JUMP JUMPDEST PUSH1 0x0 DUP3 PUSH1 0x1F DUP4 ADD SLT PUSH2 0x2E11 JUMPI PUSH2 0x2E10 PUSH2 0x3ED6 JUMP JUMPDEST JUMPDEST DUP2 CALLDATALOAD PUSH2 0x2E21 DUP5 DUP3 PUSH1 0x20 DUP7 ADD PUSH2 0x2D39 JUMP JUMPDEST SWAP2 POP POP SWAP3 SWAP2 POP POP JUMP JUMPDEST PUSH1 0x0 DUP3 PUSH1 0x1F DUP4 ADD SLT PUSH2 0x2E3F JUMPI PUSH2 0x2E3E PUSH2 0x3ED6 JUMP JUMPDEST JUMPDEST DUP2 MLOAD PUSH2 0x2E4F DUP5 DUP3 PUSH1 0x20 DUP7 ADD PUSH2 0x2D7B JUMP JUMPDEST SWAP2 POP POP SWAP3 SWAP2 POP POP JUMP JUMPDEST PUSH1 0x0 DUP2 CALLDATALOAD SWAP1 POP PUSH2 0x2E67 DUP2 PUSH2 0x40AF JUMP JUMPDEST SWAP3 SWAP2 POP POP JUMP JUMPDEST PUSH1 0x0 DUP2 MLOAD SWAP1 POP PUSH2 0x2E7C DUP2 PUSH2 0x40AF JUMP JUMPDEST SWAP3 SWAP2 POP POP JUMP JUMPDEST PUSH1 0x0 DUP2 CALLDATALOAD SWAP1 POP PUSH2 0x2E91 DUP2 PUSH2 0x40C6 JUMP JUMPDEST SWAP3 SWAP2 POP POP JUMP JUMPDEST PUSH1 0x0 PUSH1 0x20 DUP3 DUP5 SUB SLT ISZERO PUSH2 0x2EAD JUMPI PUSH2 0x2EAC PUSH2 0x3EE5 JUMP JUMPDEST JUMPDEST PUSH1 0x0 DUP3 ADD MLOAD PUSH8 0xFFFFFFFFFFFFFFFF DUP2 GT ISZERO PUSH2 0x2ECB JUMPI PUSH2 0x2ECA PUSH2 0x3EE0 JUMP JUMPDEST JUMPDEST PUSH2 0x2ED7 DUP5 DUP3 DUP6 ADD PUSH2 0x2E2A JUMP JUMPDEST SWAP2 POP POP SWAP3 SWAP2 POP POP JUMP JUMPDEST PUSH1 0x0 DUP1 PUSH1 0x40 DUP4 DUP6 SUB SLT ISZERO PUSH2 0x2EF7 JUMPI PUSH2 0x2EF6 PUSH2 0x3EE5 JUMP JUMPDEST JUMPDEST PUSH1 0x0 DUP4 ADD CALLDATALOAD PUSH8 0xFFFFFFFFFFFFFFFF DUP2 GT ISZERO PUSH2 0x2F15 JUMPI PUSH2 0x2F14 PUSH2 0x3EE0 JUMP JUMPDEST JUMPDEST PUSH2 0x2F21 DUP6 DUP3 DUP7 ADD PUSH2 0x2DFC JUMP JUMPDEST SWAP3 POP POP PUSH1 0x20 DUP4 ADD CALLDATALOAD PUSH8 0xFFFFFFFFFFFFFFFF DUP2 GT ISZERO PUSH2 0x2F42 JUMPI PUSH2 0x2F41 PUSH2 0x3EE0 JUMP JUMPDEST JUMPDEST PUSH2 0x2F4E DUP6 DUP3 DUP7 ADD PUSH2 0x2DFC JUMP JUMPDEST SWAP2 POP POP SWAP3 POP SWAP3 SWAP1 POP JUMP JUMPDEST PUSH1 0x0 PUSH1 0x20 DUP3 DUP5 SUB SLT ISZERO PUSH2 0x2F6E JUMPI PUSH2 0x2F6D PUSH2 0x3EE5 JUMP JUMPDEST JUMPDEST PUSH1 0x0 PUSH2 0x2F7C DUP5 DUP3 DUP6 ADD PUSH2 0x2E58 JUMP JUMPDEST SWAP2 POP POP SWAP3 SWAP2 POP POP JUMP JUMPDEST PUSH1 0x0 PUSH1 0x20 DUP3 DUP5 SUB SLT ISZERO PUSH2 0x2F9B JUMPI PUSH2 0x2F9A PUSH2 0x3EE5 JUMP JUMPDEST JUMPDEST PUSH1 0x0 PUSH2 0x2FA9 DUP5 DUP3 DUP6 ADD PUSH2 0x2E6D JUMP JUMPDEST SWAP2 POP POP SWAP3 SWAP2 POP POP JUMP JUMPDEST PUSH1 0x0 DUP1 PUSH1 0x0 PUSH1 0x60 DUP5 DUP7 SUB SLT ISZERO PUSH2 0x2FCB JUMPI PUSH2 0x2FCA PUSH2 0x3EE5 JUMP JUMPDEST JUMPDEST PUSH1 0x0 PUSH2 0x2FD9 DUP7 DUP3 DUP8 ADD PUSH2 0x2E58 JUMP JUMPDEST SWAP4 POP POP PUSH1 0x20 DUP5 ADD CALLDATALOAD PUSH8 0xFFFFFFFFFFFFFFFF DUP2 GT ISZERO PUSH2 0x2FFA JUMPI PUSH2 0x2FF9 PUSH2 0x3EE0 JUMP JUMPDEST JUMPDEST PUSH2 0x3006 DUP7 DUP3 DUP8 ADD PUSH2 0x2DFC JUMP JUMPDEST SWAP3 POP POP PUSH1 0x40 DUP5 ADD CALLDATALOAD PUSH8 0xFFFFFFFFFFFFFFFF DUP2 GT ISZERO PUSH2 0x3027 JUMPI PUSH2 0x3026 PUSH2 0x3EE0 JUMP JUMPDEST JUMPDEST PUSH2 0x3033 DUP7 DUP3 DUP8 ADD PUSH2 0x2DFC JUMP JUMPDEST SWAP2 POP POP SWAP3 POP SWAP3 POP SWAP3 JUMP JUMPDEST PUSH1 0x0 DUP1 PUSH1 0x40 DUP4 DUP6 SUB SLT ISZERO PUSH2 0x3054 JUMPI PUSH2 0x3053 PUSH2 0x3EE5 JUMP JUMPDEST JUMPDEST PUSH1 0x0 PUSH2 0x3062 DUP6 DUP3 DUP7 ADD PUSH2 0x2E58 JUMP JUMPDEST SWAP3 POP POP PUSH1 0x20 PUSH2 0x3073 DUP6 DUP3 DUP7 ADD PUSH2 0x2E58 JUMP JUMPDEST SWAP2 POP POP SWAP3 POP SWAP3 SWAP1 POP JUMP JUMPDEST PUSH1 0x0 DUP1 PUSH1 0x0 PUSH1 0x60 DUP5 DUP7 SUB SLT ISZERO PUSH2 0x3096 JUMPI PUSH2 0x3095 PUSH2 0x3EE5 JUMP JUMPDEST JUMPDEST PUSH1 0x0 PUSH2 0x30A4 DUP7 DUP3 DUP8 ADD PUSH2 0x2E58 JUMP JUMPDEST SWAP4 POP POP PUSH1 0x20 PUSH2 0x30B5 DUP7 DUP3 DUP8 ADD PUSH2 0x2E58 JUMP JUMPDEST SWAP3 POP POP PUSH1 0x40 PUSH2 0x30C6 DUP7 DUP3 DUP8 ADD PUSH2 0x2DBD JUMP JUMPDEST SWAP2 POP POP SWAP3 POP SWAP3 POP SWAP3 JUMP JUMPDEST PUSH1 0x0 DUP1 PUSH1 0x0 PUSH1 0x60 DUP5 DUP7 SUB SLT ISZERO PUSH2 0x30E9 JUMPI PUSH2 0x30E8 PUSH2 0x3EE5 JUMP JUMPDEST JUMPDEST PUSH1 0x0 PUSH2 0x30F7 DUP7 DUP3 DUP8 ADD PUSH2 0x2E58 JUMP JUMPDEST SWAP4 POP POP PUSH1 0x20 PUSH2 0x3108 DUP7 DUP3 DUP8 ADD PUSH2 0x2E58 JUMP JUMPDEST SWAP3 POP POP PUSH1 0x40 PUSH2 0x3119 DUP7 DUP3 DUP8 ADD PUSH2 0x2DD2 JUMP JUMPDEST SWAP2 POP POP SWAP3 POP SWAP3 POP SWAP3 JUMP JUMPDEST PUSH1 0x0 DUP1 PUSH1 0x0 DUP1 PUSH1 0x80 DUP6 DUP8 SUB SLT ISZERO PUSH2 0x313D JUMPI PUSH2 0x313C PUSH2 0x3EE5 JUMP JUMPDEST JUMPDEST PUSH1 0x0 PUSH2 0x314B DUP8 DUP3 DUP9 ADD PUSH2 0x2E58 JUMP JUMPDEST SWAP5 POP POP PUSH1 0x20 PUSH2 0x315C DUP8 DUP3 DUP9 ADD PUSH2 0x2E58 JUMP JUMPDEST SWAP4 POP POP PUSH1 0x40 DUP6 ADD CALLDATALOAD PUSH8 0xFFFFFFFFFFFFFFFF DUP2 GT ISZERO PUSH2 0x317D JUMPI PUSH2 0x317C PUSH2 0x3EE0 JUMP JUMPDEST JUMPDEST PUSH2 0x3189 DUP8 DUP3 DUP9 ADD PUSH2 0x2DFC JUMP JUMPDEST SWAP3 POP POP PUSH1 0x60 DUP6 ADD CALLDATALOAD PUSH8 0xFFFFFFFFFFFFFFFF DUP2 GT ISZERO PUSH2 0x31AA JUMPI PUSH2 0x31A9 PUSH2 0x3EE0 JUMP JUMPDEST JUMPDEST PUSH2 0x31B6 DUP8 DUP3 DUP9 ADD PUSH2 0x2DFC JUMP JUMPDEST SWAP2 POP POP SWAP3 SWAP6 SWAP2 SWAP5 POP SWAP3 POP JUMP JUMPDEST PUSH1 0x0 DUP1 PUSH1 0x0 DUP1 PUSH1 0x0 DUP1 PUSH1 0xC0 DUP8 DUP10 SUB SLT ISZERO PUSH2 0x31DF JUMPI PUSH2 0x31DE PUSH2 0x3EE5 JUMP JUMPDEST JUMPDEST PUSH1 0x0 PUSH2 0x31ED DUP10 DUP3 DUP11 ADD PUSH2 0x2E58 JUMP JUMPDEST SWAP7 POP POP PUSH1 0x20 PUSH2 0x31FE DUP10 DUP3 DUP11 ADD PUSH2 0x2E58 JUMP JUMPDEST SWAP6 POP POP PUSH1 0x40 DUP8 ADD CALLDATALOAD PUSH8 0xFFFFFFFFFFFFFFFF DUP2 GT ISZERO PUSH2 0x321F JUMPI PUSH2 0x321E PUSH2 0x3EE0 JUMP JUMPDEST JUMPDEST PUSH2 0x322B DUP10 DUP3 DUP11 ADD PUSH2 0x2DFC JUMP JUMPDEST SWAP5 POP POP PUSH1 0x60 DUP8 ADD CALLDATALOAD PUSH8 0xFFFFFFFFFFFFFFFF DUP2 GT ISZERO PUSH2 0x324C JUMPI PUSH2 0x324B PUSH2 0x3EE0 JUMP JUMPDEST JUMPDEST PUSH2 0x3258 DUP10 DUP3 DUP11 ADD PUSH2 0x2DFC JUMP JUMPDEST SWAP4 POP POP PUSH1 0x80 PUSH2 0x3269 DUP10 DUP3 DUP11 ADD PUSH2 0x2E58 JUMP JUMPDEST SWAP3 POP POP PUSH1 0xA0 PUSH2 0x327A DUP10 DUP3 DUP11 ADD PUSH2 0x2DE7 JUMP JUMPDEST SWAP2 POP POP SWAP3 SWAP6 POP SWAP3 SWAP6 POP SWAP3 SWAP6 JUMP JUMPDEST PUSH1 0x0 DUP1 PUSH1 0x0 PUSH1 0x60 DUP5 DUP7 SUB SLT ISZERO PUSH2 0x32A0 JUMPI PUSH2 0x329F PUSH2 0x3EE5 JUMP JUMPDEST JUMPDEST PUSH1 0x0 PUSH2 0x32AE DUP7 DUP3 DUP8 ADD PUSH2 0x2E58 JUMP JUMPDEST SWAP4 POP POP PUSH1 0x20 PUSH2 0x32BF DUP7 DUP3 DUP8 ADD PUSH2 0x2E58 JUMP JUMPDEST SWAP3 POP POP PUSH1 0x40 PUSH2 0x32D0 DUP7 DUP3 DUP8 ADD PUSH2 0x2E58 JUMP JUMPDEST SWAP2 POP POP SWAP3 POP SWAP3 POP SWAP3 JUMP JUMPDEST PUSH1 0x0 DUP1 PUSH1 0x0 DUP1 PUSH1 0x0 DUP1 PUSH1 0xC0 DUP8 DUP10 SUB SLT ISZERO PUSH2 0x32F7 JUMPI PUSH2 0x32F6 PUSH2 0x3EE5 JUMP JUMPDEST JUMPDEST PUSH1 0x0 PUSH2 0x3305 DUP10 DUP3 DUP11 ADD PUSH2 0x2E58 JUMP JUMPDEST SWAP7 POP POP PUSH1 0x20 PUSH2 0x3316 DUP10 DUP3 DUP11 ADD PUSH2 0x2E58 JUMP JUMPDEST SWAP6 POP POP PUSH1 0x40 PUSH2 0x3327 DUP10 DUP3 DUP11 ADD PUSH2 0x2E58 JUMP JUMPDEST SWAP5 POP POP PUSH1 0x60 PUSH2 0x3338 DUP10 DUP3 DUP11 ADD PUSH2 0x2DBD JUMP JUMPDEST SWAP4 POP POP PUSH1 0x80 DUP8 ADD CALLDATALOAD PUSH8 0xFFFFFFFFFFFFFFFF DUP2 GT ISZERO PUSH2 0x3359 JUMPI PUSH2 0x3358 PUSH2 0x3EE0 JUMP JUMPDEST JUMPDEST PUSH2 0x3365 DUP10 DUP3 DUP11 ADD PUSH2 0x2DFC JUMP JUMPDEST SWAP3 POP POP PUSH1 0xA0 PUSH2 0x3376 DUP10 DUP3 DUP11 ADD PUSH2 0x2E58 JUMP JUMPDEST SWAP2 POP POP SWAP3 SWAP6 POP SWAP3 SWAP6 POP SWAP3 SWAP6 JUMP JUMPDEST PUSH1 0x0 DUP1 PUSH1 0x0 DUP1 PUSH1 0x0 PUSH1 0xA0 DUP7 DUP9 SUB SLT ISZERO PUSH2 0x339F JUMPI PUSH2 0x339E PUSH2 0x3EE5 JUMP JUMPDEST JUMPDEST PUSH1 0x0 PUSH2 0x33AD DUP9 DUP3 DUP10 ADD PUSH2 0x2E58 JUMP JUMPDEST SWAP6 POP POP PUSH1 0x20 PUSH2 0x33BE DUP9 DUP3 DUP10 ADD PUSH2 0x2E58 JUMP JUMPDEST SWAP5 POP POP PUSH1 0x40 PUSH2 0x33CF DUP9 DUP3 DUP10 ADD PUSH2 0x2E58 JUMP JUMPDEST SWAP4 POP POP PUSH1 0x60 PUSH2 0x33E0 DUP9 DUP3 DUP10 ADD PUSH2 0x2DBD JUMP JUMPDEST SWAP3 POP POP PUSH1 0x80 PUSH2 0x33F1 DUP9 DUP3 DUP10 ADD PUSH2 0x2E82 JUMP JUMPDEST SWAP2 POP POP SWAP3 SWAP6 POP SWAP3 SWAP6 SWAP1 SWAP4 POP JUMP JUMPDEST PUSH1 0x0 DUP1 PUSH1 0x0 DUP1 PUSH1 0x0 PUSH1 0xA0 DUP7 DUP9 SUB SLT ISZERO PUSH2 0x341A JUMPI PUSH2 0x3419 PUSH2 0x3EE5 JUMP JUMPDEST JUMPDEST PUSH1 0x0 PUSH2 0x3428 DUP9 DUP3 DUP10 ADD PUSH2 0x2E58 JUMP JUMPDEST SWAP6 POP POP PUSH1 0x20 PUSH2 0x3439 DUP9 DUP3 DUP10 ADD PUSH2 0x2E58 JUMP JUMPDEST SWAP5 POP POP PUSH1 0x40 PUSH2 0x344A DUP9 DUP3 DUP10 ADD PUSH2 0x2E58 JUMP JUMPDEST SWAP4 POP POP PUSH1 0x60 DUP7 ADD CALLDATALOAD PUSH8 0xFFFFFFFFFFFFFFFF DUP2 GT ISZERO PUSH2 0x346B JUMPI PUSH2 0x346A PUSH2 0x3EE0 JUMP JUMPDEST JUMPDEST PUSH2 0x3477 DUP9 DUP3 DUP10 ADD PUSH2 0x2DFC JUMP JUMPDEST SWAP3 POP POP PUSH1 0x80 DUP7 ADD CALLDATALOAD PUSH8 0xFFFFFFFFFFFFFFFF DUP2 GT ISZERO PUSH2 0x3498 JUMPI PUSH2 0x3497 PUSH2 0x3EE0 JUMP JUMPDEST JUMPDEST PUSH2 0x34A4 DUP9 DUP3 DUP10 ADD PUSH2 0x2DFC JUMP JUMPDEST SWAP2 POP POP SWAP3 SWAP6 POP SWAP3 SWAP6 SWAP1 SWAP4 POP JUMP JUMPDEST PUSH1 0x0 DUP1 PUSH1 0x0 DUP1 PUSH1 0x0 DUP1 PUSH1 0x0 PUSH1 0xE0 DUP9 DUP11 SUB SLT ISZERO PUSH2 0x34D0 JUMPI PUSH2 0x34CF PUSH2 0x3EE5 JUMP JUMPDEST JUMPDEST PUSH1 0x0 PUSH2 0x34DE DUP11 DUP3 DUP12 ADD PUSH2 0x2E58 JUMP JUMPDEST SWAP8 POP POP PUSH1 0x20 PUSH2 0x34EF DUP11 DUP3 DUP12 ADD PUSH2 0x2E58 JUMP JUMPDEST SWAP7 POP POP PUSH1 0x40 PUSH2 0x3500 DUP11 DUP3 DUP12 ADD PUSH2 0x2E58 JUMP JUMPDEST SWAP6 POP POP PUSH1 0x60 DUP9 ADD CALLDATALOAD PUSH8 0xFFFFFFFFFFFFFFFF DUP2 GT ISZERO PUSH2 0x3521 JUMPI PUSH2 0x3520 PUSH2 0x3EE0 JUMP JUMPDEST JUMPDEST PUSH2 0x352D DUP11 DUP3 DUP12 ADD PUSH2 0x2DFC JUMP JUMPDEST SWAP5 POP POP PUSH1 0x80 DUP9 ADD CALLDATALOAD PUSH8 0xFFFFFFFFFFFFFFFF DUP2 GT ISZERO PUSH2 0x354E JUMPI PUSH2 0x354D PUSH2 0x3EE0 JUMP JUMPDEST JUMPDEST PUSH2 0x355A DUP11 DUP3 DUP12 ADD PUSH2 0x2DFC JUMP JUMPDEST SWAP4 POP POP PUSH1 0xA0 PUSH2 0x356B DUP11 DUP3 DUP12 ADD PUSH2 0x2DBD JUMP JUMPDEST SWAP3 POP POP PUSH1 0xC0 PUSH2 0x357C DUP11 DUP3 DUP12 ADD PUSH2 0x2E58 JUMP JUMPDEST SWAP2 POP POP SWAP3 SWAP6 SWAP9 SWAP2 SWAP5 SWAP8 POP SWAP3 SWAP6 POP JUMP JUMPDEST PUSH2 0x3594 DUP2 PUSH2 0x3CBA JUMP JUMPDEST DUP3 MSTORE POP POP JUMP JUMPDEST PUSH2 0x35A3 DUP2 PUSH2 0x3C52 JUMP JUMPDEST DUP3 MSTORE POP POP JUMP JUMPDEST PUSH2 0x35B2 DUP2 PUSH2 0x3C40 JUMP JUMPDEST DUP3 MSTORE POP POP JUMP JUMPDEST PUSH2 0x35C1 DUP2 PUSH2 0x3C64 JUMP JUMPDEST DUP3 MSTORE POP POP JUMP JUMPDEST PUSH2 0x35D0 DUP2 PUSH2 0x3CCC JUMP JUMPDEST DUP3 MSTORE POP POP JUMP JUMPDEST PUSH1 0x0 PUSH2 0x35E1 DUP3 PUSH2 0x3C24 JUMP JUMPDEST PUSH2 0x35EB DUP2 DUP6 PUSH2 0x3C2F JUMP JUMPDEST SWAP4 POP PUSH2 0x35FB DUP2 DUP6 PUSH1 0x20 DUP7 ADD PUSH2 0x3D11 JUMP JUMPDEST PUSH2 0x3604 DUP2 PUSH2 0x3EEA JUMP JUMPDEST DUP5 ADD SWAP2 POP POP SWAP3 SWAP2 POP POP JUMP JUMPDEST PUSH1 0x0 PUSH2 0x361C PUSH1 0x21 DUP4 PUSH2 0x3C2F JUMP JUMPDEST SWAP2 POP PUSH2 0x3627 DUP3 PUSH2 0x3EFB JUMP JUMPDEST PUSH1 0x40 DUP3 ADD SWAP1 POP SWAP2 SWAP1 POP JUMP JUMPDEST PUSH1 0x0 PUSH2 0x363F PUSH1 0x20 DUP4 PUSH2 0x3C2F JUMP JUMPDEST SWAP2 POP PUSH2 0x364A DUP3 PUSH2 0x3F4A JUMP JUMPDEST PUSH1 0x20 DUP3 ADD SWAP1 POP SWAP2 SWAP1 POP JUMP JUMPDEST PUSH1 0x0 PUSH2 0x3662 PUSH1 0x46 DUP4 PUSH2 0x3C2F JUMP JUMPDEST SWAP2 POP PUSH2 0x366D DUP3 PUSH2 0x3F73 JUMP JUMPDEST PUSH1 0x60 DUP3 ADD SWAP1 POP SWAP2 SWAP1 POP JUMP JUMPDEST PUSH1 0x0 PUSH2 0x3685 PUSH1 0x42 DUP4 PUSH2 0x3C2F JUMP JUMPDEST SWAP2 POP PUSH2 0x3690 DUP3 PUSH2 0x3FE8 JUMP JUMPDEST PUSH1 0x60 DUP3 ADD SWAP1 POP SWAP2 SWAP1 POP JUMP JUMPDEST PUSH2 0x36A4 DUP2 PUSH2 0x3CA3 JUMP JUMPDEST DUP3 MSTORE POP POP JUMP JUMPDEST PUSH2 0x36B3 DUP2 PUSH2 0x3CAD JUMP JUMPDEST DUP3 MSTORE POP POP JUMP JUMPDEST PUSH1 0x0 PUSH1 0x20 DUP3 ADD SWAP1 POP PUSH2 0x36CE PUSH1 0x0 DUP4 ADD DUP5 PUSH2 0x35A9 JUMP JUMPDEST SWAP3 SWAP2 POP POP JUMP JUMPDEST PUSH1 0x0 PUSH1 0x20 DUP3 ADD SWAP1 POP DUP2 DUP2 SUB PUSH1 0x0 DUP4 ADD MSTORE PUSH2 0x36EE DUP2 DUP5 PUSH2 0x35D6 JUMP JUMPDEST SWAP1 POP SWAP3 SWAP2 POP POP JUMP JUMPDEST PUSH1 0x0 PUSH1 0x20 DUP3 ADD SWAP1 POP DUP2 DUP2 SUB PUSH1 0x0 DUP4 ADD MSTORE PUSH2 0x370F DUP2 PUSH2 0x360F JUMP JUMPDEST SWAP1 POP SWAP2 SWAP1 POP JUMP JUMPDEST PUSH1 0x0 PUSH1 0x20 DUP3 ADD SWAP1 POP DUP2 DUP2 SUB PUSH1 0x0 DUP4 ADD MSTORE PUSH2 0x372F DUP2 PUSH2 0x3632 JUMP JUMPDEST SWAP1 POP SWAP2 SWAP1 POP JUMP JUMPDEST PUSH1 0x0 PUSH1 0x20 DUP3 ADD SWAP1 POP DUP2 DUP2 SUB PUSH1 0x0 DUP4 ADD MSTORE PUSH2 0x374F DUP2 PUSH2 0x3655 JUMP JUMPDEST SWAP1 POP SWAP2 SWAP1 POP JUMP JUMPDEST PUSH1 0x0 PUSH1 0x20 DUP3 ADD SWAP1 POP DUP2 DUP2 SUB PUSH1 0x0 DUP4 ADD MSTORE PUSH2 0x376F DUP2 PUSH2 0x3678 JUMP JUMPDEST SWAP1 POP SWAP2 SWAP1 POP JUMP JUMPDEST PUSH1 0x0 PUSH1 0x20 DUP3 ADD SWAP1 POP PUSH2 0x378B PUSH1 0x0 DUP4 ADD DUP5 PUSH2 0x369B JUMP JUMPDEST SWAP3 SWAP2 POP POP JUMP JUMPDEST PUSH1 0x0 PUSH1 0x40 DUP3 ADD SWAP1 POP PUSH2 0x37A6 PUSH1 0x0 DUP4 ADD DUP6 PUSH2 0x369B JUMP JUMPDEST PUSH2 0x37B3 PUSH1 0x20 DUP4 ADD DUP5 PUSH2 0x35A9 JUMP JUMPDEST SWAP4 SWAP3 POP POP POP JUMP JUMPDEST PUSH1 0x0 PUSH1 0x80 DUP3 ADD SWAP1 POP PUSH2 0x37CF PUSH1 0x0 DUP4 ADD DUP8 PUSH2 0x369B JUMP JUMPDEST DUP2 DUP2 SUB PUSH1 0x20 DUP4 ADD MSTORE PUSH2 0x37E1 DUP2 DUP7 PUSH2 0x35D6 JUMP JUMPDEST SWAP1 POP DUP2 DUP2 SUB PUSH1 0x40 DUP4 ADD MSTORE PUSH2 0x37F5 DUP2 DUP6 PUSH2 0x35D6 JUMP JUMPDEST SWAP1 POP PUSH2 0x3804 PUSH1 0x60 DUP4 ADD DUP5 PUSH2 0x35A9 JUMP JUMPDEST SWAP6 SWAP5 POP POP POP POP POP JUMP JUMPDEST PUSH1 0x0 PUSH1 0x80 DUP3 ADD SWAP1 POP PUSH2 0x3822 PUSH1 0x0 DUP4 ADD DUP8 PUSH2 0x369B JUMP JUMPDEST DUP2 DUP2 SUB PUSH1 0x20 DUP4 ADD MSTORE PUSH2 0x3834 DUP2 DUP7 PUSH2 0x35D6 JUMP JUMPDEST SWAP1 POP DUP2 DUP2 SUB PUSH1 0x40 DUP4 ADD MSTORE PUSH2 0x3848 DUP2 DUP6 PUSH2 0x35D6 JUMP JUMPDEST SWAP1 POP PUSH2 0x3857 PUSH1 0x60 DUP4 ADD DUP5 PUSH2 0x359A JUMP JUMPDEST SWAP6 SWAP5 POP POP POP POP POP JUMP JUMPDEST PUSH1 0x0 PUSH1 0xC0 DUP3 ADD SWAP1 POP PUSH2 0x3875 PUSH1 0x0 DUP4 ADD DUP10 PUSH2 0x369B JUMP JUMPDEST DUP2 DUP2 SUB PUSH1 0x20 DUP4 ADD MSTORE PUSH2 0x3887 DUP2 DUP9 PUSH2 0x35D6 JUMP JUMPDEST SWAP1 POP DUP2 DUP2 SUB PUSH1 0x40 DUP4 ADD MSTORE PUSH2 0x389B DUP2 DUP8 PUSH2 0x35D6 JUMP JUMPDEST SWAP1 POP PUSH2 0x38AA PUSH1 0x60 DUP4 ADD DUP7 PUSH2 0x35A9 JUMP JUMPDEST PUSH2 0x38B7 PUSH1 0x80 DUP4 ADD DUP6 PUSH2 0x35B8 JUMP JUMPDEST PUSH2 0x38C4 PUSH1 0xA0 DUP4 ADD DUP5 PUSH2 0x35C7 JUMP JUMPDEST SWAP8 SWAP7 POP POP POP POP POP POP POP JUMP JUMPDEST PUSH1 0x0 PUSH1 0x40 DUP3 ADD SWAP1 POP PUSH2 0x38E4 PUSH1 0x0 DUP4 ADD DUP6 PUSH2 0x369B JUMP JUMPDEST PUSH2 0x38F1 PUSH1 0x20 DUP4 ADD DUP5 PUSH2 0x369B JUMP JUMPDEST SWAP4 SWAP3 POP POP POP JUMP JUMPDEST PUSH1 0x0 PUSH1 0x60 DUP3 ADD SWAP1 POP PUSH2 0x390D PUSH1 0x0 DUP4 ADD DUP7 PUSH2 0x369B JUMP JUMPDEST PUSH2 0x391A PUSH1 0x20 DUP4 ADD DUP6 PUSH2 0x369B JUMP JUMPDEST PUSH2 0x3927 PUSH1 0x40 DUP4 ADD DUP5 PUSH2 0x35A9 JUMP JUMPDEST SWAP5 SWAP4 POP POP POP POP JUMP JUMPDEST PUSH1 0x0 PUSH1 0x60 DUP3 ADD SWAP1 POP PUSH2 0x3944 PUSH1 0x0 DUP4 ADD DUP7 PUSH2 0x369B JUMP JUMPDEST PUSH2 0x3951 PUSH1 0x20 DUP4 ADD DUP6 PUSH2 0x369B JUMP JUMPDEST PUSH2 0x395E PUSH1 0x40 DUP4 ADD DUP5 PUSH2 0x358B JUMP JUMPDEST SWAP5 SWAP4 POP POP POP POP JUMP JUMPDEST PUSH1 0x0 PUSH1 0x80 DUP3 ADD SWAP1 POP PUSH2 0x397B PUSH1 0x0 DUP4 ADD DUP8 PUSH2 0x369B JUMP JUMPDEST PUSH2 0x3988 PUSH1 0x20 DUP4 ADD DUP7 PUSH2 0x369B JUMP JUMPDEST PUSH2 0x3995 PUSH1 0x40 DUP4 ADD DUP6 PUSH2 0x35A9 JUMP JUMPDEST PUSH2 0x39A2 PUSH1 0x60 DUP4 ADD DUP5 PUSH2 0x359A JUMP JUMPDEST SWAP6 SWAP5 POP POP POP POP POP JUMP JUMPDEST PUSH1 0x0 PUSH1 0x80 DUP3 ADD SWAP1 POP PUSH2 0x39C0 PUSH1 0x0 DUP4 ADD DUP8 PUSH2 0x369B JUMP JUMPDEST PUSH2 0x39CD PUSH1 0x20 DUP4 ADD DUP7 PUSH2 0x369B JUMP JUMPDEST DUP2 DUP2 SUB PUSH1 0x40 DUP4 ADD MSTORE PUSH2 0x39DF DUP2 DUP6 PUSH2 0x35D6 JUMP JUMPDEST SWAP1 POP DUP2 DUP2 SUB PUSH1 0x60 DUP4 ADD MSTORE PUSH2 0x39F3 DUP2 DUP5 PUSH2 0x35D6 JUMP JUMPDEST SWAP1 POP SWAP6 SWAP5 POP POP POP POP POP JUMP JUMPDEST PUSH1 0x0 PUSH1 0x60 DUP3 ADD SWAP1 POP PUSH2 0x3A13 PUSH1 0x0 DUP4 ADD DUP7 PUSH2 0x369B JUMP JUMPDEST PUSH2 0x3A20 PUSH1 0x20 DUP4 ADD DUP6 PUSH2 0x369B JUMP JUMPDEST PUSH2 0x3A2D PUSH1 0x40 DUP4 ADD DUP5 PUSH2 0x369B JUMP JUMPDEST SWAP5 SWAP4 POP POP POP POP JUMP JUMPDEST PUSH1 0x0 PUSH1 0xC0 DUP3 ADD SWAP1 POP PUSH2 0x3A4A PUSH1 0x0 DUP4 ADD DUP10 PUSH2 0x369B JUMP JUMPDEST PUSH2 0x3A57 PUSH1 0x20 DUP4 ADD DUP9 PUSH2 0x369B JUMP JUMPDEST PUSH2 0x3A64 PUSH1 0x40 DUP4 ADD DUP8 PUSH2 0x369B JUMP JUMPDEST PUSH2 0x3A71 PUSH1 0x60 DUP4 ADD DUP7 PUSH2 0x35A9 JUMP JUMPDEST DUP2 DUP2 SUB PUSH1 0x80 DUP4 ADD MSTORE PUSH2 0x3A83 DUP2 DUP6 PUSH2 0x35D6 JUMP JUMPDEST SWAP1 POP PUSH2 0x3A92 PUSH1 0xA0 DUP4 ADD DUP5 PUSH2 0x369B JUMP JUMPDEST SWAP8 SWAP7 POP POP POP POP POP POP POP JUMP JUMPDEST PUSH1 0x0 PUSH1 0xA0 DUP3 ADD SWAP1 POP PUSH2 0x3AB2 PUSH1 0x0 DUP4 ADD DUP9 PUSH2 0x369B JUMP JUMPDEST PUSH2 0x3ABF PUSH1 0x20 DUP4 ADD DUP8 PUSH2 0x369B JUMP JUMPDEST PUSH2 0x3ACC PUSH1 0x40 DUP4 ADD DUP7 PUSH2 0x369B JUMP JUMPDEST PUSH2 0x3AD9 PUSH1 0x60 DUP4 ADD DUP6 PUSH2 0x35A9 JUMP JUMPDEST PUSH2 0x3AE6 PUSH1 0x80 DUP4 ADD DUP5 PUSH2 0x36AA JUMP JUMPDEST SWAP7 SWAP6 POP POP POP POP POP POP JUMP JUMPDEST PUSH1 0x0 PUSH1 0xA0 DUP3 ADD SWAP1 POP PUSH2 0x3B05 PUSH1 0x0 DUP4 ADD DUP9 PUSH2 0x369B JUMP JUMPDEST PUSH2 0x3B12 PUSH1 0x20 DUP4 ADD DUP8 PUSH2 0x369B JUMP JUMPDEST PUSH2 0x3B1F PUSH1 0x40 DUP4 ADD DUP7 PUSH2 0x369B JUMP JUMPDEST DUP2 DUP2 SUB PUSH1 0x60 DUP4 ADD MSTORE PUSH2 0x3B31 DUP2 DUP6 PUSH2 0x35D6 JUMP JUMPDEST SWAP1 POP DUP2 DUP2 SUB PUSH1 0x80 DUP4 ADD MSTORE PUSH2 0x3B45 DUP2 DUP5 PUSH2 0x35D6 JUMP JUMPDEST SWAP1 POP SWAP7 SWAP6 POP POP POP POP POP POP JUMP JUMPDEST PUSH1 0x0 PUSH1 0xE0 DUP3 ADD SWAP1 POP PUSH2 0x3B66 PUSH1 0x0 DUP4 ADD DUP11 PUSH2 0x369B JUMP JUMPDEST PUSH2 0x3B73 PUSH1 0x20 DUP4 ADD DUP10 PUSH2 0x369B JUMP JUMPDEST PUSH2 0x3B80 PUSH1 0x40 DUP4 ADD DUP9 PUSH2 0x369B JUMP JUMPDEST DUP2 DUP2 SUB PUSH1 0x60 DUP4 ADD MSTORE PUSH2 0x3B92 DUP2 DUP8 PUSH2 0x35D6 JUMP JUMPDEST SWAP1 POP DUP2 DUP2 SUB PUSH1 0x80 DUP4 ADD MSTORE PUSH2 0x3BA6 DUP2 DUP7 PUSH2 0x35D6 JUMP JUMPDEST SWAP1 POP PUSH2 0x3BB5 PUSH1 0xA0 DUP4 ADD DUP6 PUSH2 0x35A9 JUMP JUMPDEST PUSH2 0x3BC2 PUSH1 0xC0 DUP4 ADD DUP5 PUSH2 0x369B JUMP JUMPDEST SWAP9 SWAP8 POP POP POP POP POP POP POP POP JUMP JUMPDEST PUSH1 0x0 PUSH2 0x3BD8 PUSH2 0x3BE9 JUMP JUMPDEST SWAP1 POP PUSH2 0x3BE4 DUP3 DUP3 PUSH2 0x3DA0 JUMP JUMPDEST SWAP2 SWAP1 POP JUMP JUMPDEST PUSH1 0x0 PUSH1 0x40 MLOAD SWAP1 POP SWAP1 JUMP JUMPDEST PUSH1 0x0 PUSH8 0xFFFFFFFFFFFFFFFF DUP3 GT ISZERO PUSH2 0x3C0E JUMPI PUSH2 0x3C0D PUSH2 0x3EA7 JUMP JUMPDEST JUMPDEST PUSH2 0x3C17 DUP3 PUSH2 0x3EEA JUMP JUMPDEST SWAP1 POP PUSH1 0x20 DUP2 ADD SWAP1 POP SWAP2 SWAP1 POP JUMP JUMPDEST PUSH1 0x0 DUP2 MLOAD SWAP1 POP SWAP2 SWAP1 POP JUMP JUMPDEST PUSH1 0x0 DUP3 DUP3 MSTORE PUSH1 0x20 DUP3 ADD SWAP1 POP SWAP3 SWAP2 POP POP JUMP JUMPDEST PUSH1 0x0 PUSH2 0x3C4B DUP3 PUSH2 0x3C83 JUMP JUMPDEST SWAP1 POP SWAP2 SWAP1 POP JUMP JUMPDEST PUSH1 0x0 PUSH2 0x3C5D DUP3 PUSH2 0x3C83 JUMP JUMPDEST SWAP1 POP SWAP2 SWAP1 POP JUMP JUMPDEST PUSH1 0x0 DUP2 ISZERO ISZERO SWAP1 POP SWAP2 SWAP1 POP JUMP JUMPDEST PUSH1 0x0 DUP2 SWAP1 POP PUSH2 0x3C7E DUP3 PUSH2 0x405D JUMP JUMPDEST SWAP2 SWAP1 POP JUMP JUMPDEST PUSH1 0x0 PUSH20 0xFFFFFFFFFFFFFFFFFFFFFFFFFFFFFFFFFFFFFFFF DUP3 AND SWAP1 POP SWAP2 SWAP1 POP JUMP JUMPDEST PUSH1 0x0 DUP2 SWAP1 POP SWAP2 SWAP1 POP JUMP JUMPDEST PUSH1 0x0 PUSH1 0xFF DUP3 AND SWAP1 POP SWAP2 SWAP1 POP JUMP JUMPDEST PUSH1 0x0 PUSH2 0x3CC5 DUP3 PUSH2 0x3CDE JUMP JUMPDEST SWAP1 POP SWAP2 SWAP1 POP JUMP JUMPDEST PUSH1 0x0 PUSH2 0x3CD7 DUP3 PUSH2 0x3C70 JUMP JUMPDEST SWAP1 POP SWAP2 SWAP1 POP JUMP JUMPDEST PUSH1 0x0 PUSH2 0x3CE9 DUP3 PUSH2 0x3CF0 JUMP JUMPDEST SWAP1 POP SWAP2 SWAP1 POP JUMP JUMPDEST PUSH1 0x0 PUSH2 0x3CFB DUP3 PUSH2 0x3C83 JUMP JUMPDEST SWAP1 POP SWAP2 SWAP1 POP JUMP JUMPDEST DUP3 DUP2 DUP4 CALLDATACOPY PUSH1 0x0 DUP4 DUP4 ADD MSTORE POP POP POP JUMP JUMPDEST PUSH1 0x0 JUMPDEST DUP4 DUP2 LT ISZERO PUSH2 0x3D2F JUMPI DUP1 DUP3 ADD MLOAD DUP2 DUP5 ADD MSTORE PUSH1 0x20 DUP2 ADD SWAP1 POP PUSH2 0x3D14 JUMP JUMPDEST DUP4 DUP2 GT ISZERO PUSH2 0x3D3E JUMPI PUSH1 0x0 DUP5 DUP5 ADD MSTORE JUMPDEST POP POP POP POP JUMP JUMPDEST PUSH1 0x0 PUSH2 0x3D4F DUP3 PUSH2 0x3CA3 JUMP JUMPDEST SWAP2 POP PUSH1 0x0 DUP3 EQ ISZERO PUSH2 0x3D63 JUMPI PUSH2 0x3D62 PUSH2 0x3E1A JUMP JUMPDEST JUMPDEST PUSH1 0x1 DUP3 SUB SWAP1 POP SWAP2 SWAP1 POP JUMP JUMPDEST PUSH1 0x0 PUSH1 0x2 DUP3 DIV SWAP1 POP PUSH1 0x1 DUP3 AND DUP1 PUSH2 0x3D86 JUMPI PUSH1 0x7F DUP3 AND SWAP2 POP JUMPDEST PUSH1 0x20 DUP3 LT DUP2 EQ ISZERO PUSH2 0x3D9A JUMPI PUSH2 0x3D99 PUSH2 0x3E78 JUMP JUMPDEST JUMPDEST POP SWAP2 SWAP1 POP JUMP JUMPDEST PUSH2 0x3DA9 DUP3 PUSH2 0x3EEA JUMP JUMPDEST DUP2 ADD DUP2 DUP2 LT PUSH8 0xFFFFFFFFFFFFFFFF DUP3 GT OR ISZERO PUSH2 0x3DC8 JUMPI PUSH2 0x3DC7 PUSH2 0x3EA7 JUMP JUMPDEST JUMPDEST DUP1 PUSH1 0x40 MSTORE POP POP POP JUMP JUMPDEST PUSH1 0x0 PUSH2 0x3DDC DUP3 PUSH2 0x3CA3 JUMP JUMPDEST SWAP2 POP PUSH32 0xFFFFFFFFFFFFFFFFFFFFFFFFFFFFFFFFFFFFFFFFFFFFFFFFFFFFFFFFFFFFFFFF DUP3 EQ ISZERO PUSH2 0x3E0F JUMPI PUSH2 0x3E0E PUSH2 0x3E1A JUMP JUMPDEST JUMPDEST PUSH1 0x1 DUP3 ADD SWAP1 POP SWAP2 SWAP1 POP JUMP JUMPDEST PUSH32 0x4E487B7100000000000000000000000000000000000000000000000000000000 PUSH1 0x0 MSTORE PUSH1 0x11 PUSH1 0x4 MSTORE PUSH1 0x24 PUSH1 0x0 REVERT JUMPDEST PUSH32 0x4E487B7100000000000000000000000000000000000000000000000000000000 PUSH1 0x0 MSTORE PUSH1 0x21 PUSH1 0x4 MSTORE PUSH1 0x24 PUSH1 0x0 REVERT JUMPDEST PUSH32 0x4E487B7100000000000000000000000000000000000000000000000000000000 PUSH1 0x0 MSTORE PUSH1 0x22 PUSH1 0x4 MSTORE PUSH1 0x24 PUSH1 0x0 REVERT JUMPDEST PUSH32 0x4E487B7100000000000000000000000000000000000000000000000000000000 PUSH1 0x0 MSTORE PUSH1 0x41 PUSH1 0x4 MSTORE PUSH1 0x24 PUSH1 0x0 REVERT JUMPDEST PUSH1 0x0 DUP1 REVERT JUMPDEST PUSH1 0x0 DUP1 REVERT JUMPDEST PUSH1 0x0 DUP1 REVERT JUMPDEST PUSH1 0x0 DUP1 REVERT JUMPDEST PUSH1 0x0 PUSH1 0x1F NOT PUSH1 0x1F DUP4 ADD AND SWAP1 POP SWAP2 SWAP1 POP JUMP JUMPDEST PUSH32 0x546869732070726F6A656374206973206E6F206C6F6E67657220616374697665 PUSH1 0x0 DUP3 ADD MSTORE PUSH32 0x2E00000000000000000000000000000000000000000000000000000000000000 PUSH1 0x20 DUP3 ADD MSTORE POP JUMP JUMPDEST PUSH32 0x43616E6E6F74206361727279206F75742074686973206F7065726174696F6E21 PUSH1 0x0 DUP3 ADD MSTORE POP JUMP JUMPDEST PUSH32 0x596F7520617265206E6F7420617574686F72697A656420746F20656469742074 PUSH1 0x0 DUP3 ADD MSTORE PUSH32 0x6869732070726F6A65637420617320796F7520617265206E6F74207468652063 PUSH1 0x20 DUP3 ADD MSTORE PUSH32 0x726561746F720000000000000000000000000000000000000000000000000000 PUSH1 0x40 DUP3 ADD MSTORE POP JUMP JUMPDEST PUSH32 0x546869732070726F6A65637420686173206E6F74206265656E20637265617465 PUSH1 0x0 DUP3 ADD MSTORE PUSH32 0x64207965742E20506C65617365206372656174652070726F6A65637420666972 PUSH1 0x20 DUP3 ADD MSTORE PUSH32 0x7374000000000000000000000000000000000000000000000000000000000000 PUSH1 0x40 DUP3 ADD MSTORE POP JUMP JUMPDEST PUSH1 0x3 DUP2 LT PUSH2 0x406E JUMPI PUSH2 0x406D PUSH2 0x3E49 JUMP JUMPDEST JUMPDEST POP JUMP JUMPDEST PUSH2 0x407A DUP2 PUSH2 0x3C40 JUMP JUMPDEST DUP2 EQ PUSH2 0x4085 JUMPI PUSH1 0x0 DUP1 REVERT JUMPDEST POP JUMP JUMPDEST PUSH2 0x4091 DUP2 PUSH2 0x3C52 JUMP JUMPDEST DUP2 EQ PUSH2 0x409C JUMPI PUSH1 0x0 DUP1 REVERT JUMPDEST POP JUMP JUMPDEST PUSH1 0x6 DUP2 LT PUSH2 0x40AC JUMPI PUSH1 0x0 DUP1 REVERT JUMPDEST POP JUMP JUMPDEST PUSH2 0x40B8 DUP2 PUSH2 0x3CA3 JUMP JUMPDEST DUP2 EQ PUSH2 0x40C3 JUMPI PUSH1 0x0 DUP1 REVERT JUMPDEST POP JUMP JUMPDEST PUSH2 0x40CF DUP2 PUSH2 0x3CAD JUMP JUMPDEST DUP2 EQ PUSH2 0x40DA JUMPI PUSH1 0x0 DUP1 REVERT JUMPDEST POP JUMP INVALID LOG2 PUSH5 0x6970667358 0x22 SLT KECCAK256 0xED DUP2 BYTE 0xC5 BALANCE ADDRESS 0x5E REVERT PUSH13 0x56AF03B60924BEB48072B85728 0xE2 0x21 0xE1 0xA6 PUSH11 0x511C0DBA9E64736F6C6343 STOP ADDMOD SMOD STOP CALLER "
		},
		"gasEstimates": {
			"creation": {
				"codeDepositCost": "3331800",
				"executionCost": "infinite",
				"totalCost": "infinite"
			},
			"external": {
				"acceptServiceRequest(uint256,uint256,address)": "infinite",
				"completeMilestone(uint256,uint256,uint256)": "infinite",
				"completeServiceRequest(uint256,uint256,address)": "infinite",
				"createConflict(uint256,uint256,uint256,string,string,address,uint256)": "infinite",
				"createMilestone(uint256,uint256,string,string)": "infinite",
				"createProject(string,string)": "infinite",
				"createService(uint256,string,string)": "infinite",
				"deleteConflict(uint256,uint256,uint256)": "infinite",
				"deleteMilestone(uint256,uint256,uint256)": "infinite",
				"deleteProject(uint256)": "infinite",
				"deleteService(uint256,uint256)": "infinite",
				"getAvgServiceProviderStarRating(uint256,uint256)": "infinite",
				"getAvgServiceRequesterStarRating(uint256,uint256)": "infinite",
				"getProjectOwner(uint256)": "2927",
				"projectNum()": "2474",
				"projectTotal()": "2541",
				"projects(uint256)": "infinite",
				"readMilestoneTitle(uint256,uint256,uint256)": "infinite",
				"readProjectTitle(uint256)": "infinite",
				"readServiceTitle(uint256,uint256)": "infinite",
				"rejectServiceRequest(uint256,uint256,address)": "infinite",
				"reviewMilestone(uint256,uint256,uint256,address,string,uint256)": "infinite",
				"startVote(uint256,uint256,uint256)": "infinite",
				"takeServiceRequest(uint256,uint256,address)": "infinite",
				"updateConflict(uint256,uint256,uint256,string,string)": "infinite",
				"updateMilestone(uint256,uint256,uint256,string,string)": "infinite",
				"updateProject(uint256,string,string)": "infinite",
				"updateService(uint256,uint256,string,string,uint256,uint8)": "infinite",
				"verifyMilestone(uint256,uint256,uint256)": "infinite",
				"voteConflict(uint256,uint256,uint256,address,uint8)": "infinite"
			},
			"internal": {
				"setState(uint256,enum States.ProjectStatus)": "24440"
			}
		},
		"methodIdentifiers": {
			"acceptServiceRequest(uint256,uint256,address)": "14da947b",
			"completeMilestone(uint256,uint256,uint256)": "c3b9e304",
			"completeServiceRequest(uint256,uint256,address)": "8c749c74",
			"createConflict(uint256,uint256,uint256,string,string,address,uint256)": "e731ac45",
			"createMilestone(uint256,uint256,string,string)": "63ef8a50",
			"createProject(string,string)": "6bd06204",
			"createService(uint256,string,string)": "7d3ebecd",
			"deleteConflict(uint256,uint256,uint256)": "003f489f",
			"deleteMilestone(uint256,uint256,uint256)": "b9b6c5d4",
			"deleteProject(uint256)": "4cd0cb28",
			"deleteService(uint256,uint256)": "53c49c64",
			"getAvgServiceProviderStarRating(uint256,uint256)": "ccee835b",
			"getAvgServiceRequesterStarRating(uint256,uint256)": "664fc0cd",
			"getProjectOwner(uint256)": "92256aec",
			"projectNum()": "a0b5d6c8",
			"projectTotal()": "46c1966a",
			"projects(uint256)": "107046bd",
			"readMilestoneTitle(uint256,uint256,uint256)": "ace731bd",
			"readProjectTitle(uint256)": "12327a66",
			"readServiceTitle(uint256,uint256)": "c304ccdc",
			"rejectServiceRequest(uint256,uint256,address)": "529884e7",
			"reviewMilestone(uint256,uint256,uint256,address,string,uint256)": "bba93c0b",
			"startVote(uint256,uint256,uint256)": "9c87a5e9",
			"takeServiceRequest(uint256,uint256,address)": "f0f238ce",
			"updateConflict(uint256,uint256,uint256,string,string)": "d1e992a7",
			"updateMilestone(uint256,uint256,uint256,string,string)": "fd23c4bb",
			"updateProject(uint256,string,string)": "8c4c1347",
			"updateService(uint256,uint256,string,string,uint256,uint8)": "010dfd93",
			"verifyMilestone(uint256,uint256,uint256)": "08c6f4ab",
			"voteConflict(uint256,uint256,uint256,address,uint8)": "c171bdf7"
		}
	},
	"abi": [
		{
			"inputs": [
				{
					"internalType": "contract Service",
					"name": "serviceContract",
					"type": "address"
				}
			],
			"stateMutability": "nonpayable",
			"type": "constructor"
		},
		{
			"anonymous": false,
			"inputs": [
				{
					"indexed": false,
					"internalType": "uint256",
					"name": "projectNumber",
					"type": "uint256"
				},
				{
					"indexed": false,
					"internalType": "string",
					"name": "title",
					"type": "string"
				},
				{
					"indexed": false,
					"internalType": "string",
					"name": "description",
					"type": "string"
				},
				{
					"indexed": false,
					"internalType": "address",
					"name": "projectOwner",
					"type": "address"
				}
			],
			"name": "projectCreated",
			"type": "event"
		},
		{
			"anonymous": false,
			"inputs": [
				{
					"indexed": false,
					"internalType": "uint256",
					"name": "projectNumber",
					"type": "uint256"
				},
				{
					"indexed": false,
					"internalType": "address",
					"name": "projectOwner",
					"type": "address"
				}
			],
			"name": "projectDeleted",
			"type": "event"
		},
		{
			"anonymous": false,
			"inputs": [
				{
					"indexed": false,
					"internalType": "uint256",
					"name": "projectNumber",
					"type": "uint256"
				},
				{
					"indexed": false,
					"internalType": "string",
					"name": "title",
					"type": "string"
				},
				{
					"indexed": false,
					"internalType": "string",
					"name": "description",
					"type": "string"
				},
				{
					"indexed": false,
					"internalType": "address",
					"name": "projectOwner",
					"type": "address"
				}
			],
			"name": "projectUpdated",
			"type": "event"
		},
		{
			"inputs": [
				{
					"internalType": "uint256",
					"name": "projectNumber",
					"type": "uint256"
				},
				{
					"internalType": "uint256",
					"name": "serviceNumber",
					"type": "uint256"
				},
				{
					"internalType": "address payable",
					"name": "serviceRequester",
					"type": "address"
				}
			],
			"name": "acceptServiceRequest",
			"outputs": [],
			"stateMutability": "nonpayable",
			"type": "function"
		},
		{
			"inputs": [
				{
					"internalType": "uint256",
					"name": "projectNumber",
					"type": "uint256"
				},
				{
					"internalType": "uint256",
					"name": "serviceNumber",
					"type": "uint256"
				},
				{
					"internalType": "uint256",
					"name": "milestoneNumber",
					"type": "uint256"
				}
			],
			"name": "completeMilestone",
			"outputs": [],
			"stateMutability": "nonpayable",
			"type": "function"
		},
		{
			"inputs": [
				{
					"internalType": "uint256",
					"name": "projectNumber",
					"type": "uint256"
				},
				{
					"internalType": "uint256",
					"name": "serviceNumber",
					"type": "uint256"
				},
				{
					"internalType": "address",
					"name": "serviceProvider",
					"type": "address"
				}
			],
			"name": "completeServiceRequest",
			"outputs": [],
			"stateMutability": "nonpayable",
			"type": "function"
		},
		{
			"inputs": [
				{
					"internalType": "uint256",
					"name": "projectNumber",
					"type": "uint256"
				},
				{
					"internalType": "uint256",
					"name": "serviceNumber",
					"type": "uint256"
				},
				{
					"internalType": "uint256",
					"name": "milestoneNumber",
					"type": "uint256"
				},
				{
					"internalType": "string",
					"name": "title",
					"type": "string"
				},
				{
					"internalType": "string",
					"name": "description",
					"type": "string"
				},
				{
					"internalType": "address",
					"name": "serviceRequester",
					"type": "address"
				},
				{
					"internalType": "uint256",
					"name": "totalVoters",
					"type": "uint256"
				}
			],
			"name": "createConflict",
			"outputs": [],
			"stateMutability": "nonpayable",
			"type": "function"
		},
		{
			"inputs": [
				{
					"internalType": "uint256",
					"name": "projectNumber",
					"type": "uint256"
				},
				{
					"internalType": "uint256",
					"name": "serviceNumber",
					"type": "uint256"
				},
				{
					"internalType": "string",
					"name": "titleMilestone",
					"type": "string"
				},
				{
					"internalType": "string",
					"name": "descriptionMilestone",
					"type": "string"
				}
			],
			"name": "createMilestone",
			"outputs": [],
			"stateMutability": "nonpayable",
			"type": "function"
		},
		{
			"inputs": [
				{
					"internalType": "string",
					"name": "title",
					"type": "string"
				},
				{
					"internalType": "string",
					"name": "description",
					"type": "string"
				}
			],
			"name": "createProject",
			"outputs": [],
			"stateMutability": "nonpayable",
			"type": "function"
		},
		{
			"inputs": [
				{
					"internalType": "uint256",
					"name": "projectNumber",
					"type": "uint256"
				},
				{
					"internalType": "string",
					"name": "title",
					"type": "string"
				},
				{
					"internalType": "string",
					"name": "description",
					"type": "string"
				}
			],
			"name": "createService",
			"outputs": [],
			"stateMutability": "nonpayable",
			"type": "function"
		},
		{
			"inputs": [
				{
					"internalType": "uint256",
					"name": "projectNumber",
					"type": "uint256"
				},
				{
					"internalType": "uint256",
					"name": "serviceNumber",
					"type": "uint256"
				},
				{
					"internalType": "uint256",
					"name": "milestoneNumber",
					"type": "uint256"
				}
			],
			"name": "deleteConflict",
			"outputs": [],
			"stateMutability": "nonpayable",
			"type": "function"
		},
		{
			"inputs": [
				{
					"internalType": "uint256",
					"name": "projectNumber",
					"type": "uint256"
				},
				{
					"internalType": "uint256",
					"name": "serviceNumber",
					"type": "uint256"
				},
				{
					"internalType": "uint256",
					"name": "milestoneNumber",
					"type": "uint256"
				}
			],
			"name": "deleteMilestone",
			"outputs": [],
			"stateMutability": "nonpayable",
			"type": "function"
		},
		{
			"inputs": [
				{
					"internalType": "uint256",
					"name": "projectNumber",
					"type": "uint256"
				}
			],
			"name": "deleteProject",
			"outputs": [],
			"stateMutability": "nonpayable",
			"type": "function"
		},
		{
			"inputs": [
				{
					"internalType": "uint256",
					"name": "projectNumber",
					"type": "uint256"
				},
				{
					"internalType": "uint256",
					"name": "serviceNumber",
					"type": "uint256"
				}
			],
			"name": "deleteService",
			"outputs": [],
			"stateMutability": "nonpayable",
			"type": "function"
		},
		{
			"inputs": [
				{
					"internalType": "uint256",
					"name": "projectNumber",
					"type": "uint256"
				},
				{
					"internalType": "uint256",
					"name": "serviceNumber",
					"type": "uint256"
				}
			],
			"name": "getAvgServiceProviderStarRating",
			"outputs": [
				{
					"internalType": "uint256",
					"name": "",
					"type": "uint256"
				}
			],
			"stateMutability": "view",
			"type": "function"
		},
		{
			"inputs": [
				{
					"internalType": "uint256",
					"name": "projectNumber",
					"type": "uint256"
				},
				{
					"internalType": "uint256",
					"name": "serviceNumber",
					"type": "uint256"
				}
			],
			"name": "getAvgServiceRequesterStarRating",
			"outputs": [
				{
					"internalType": "uint256",
					"name": "",
					"type": "uint256"
				}
			],
			"stateMutability": "view",
			"type": "function"
		},
		{
			"inputs": [
				{
					"internalType": "uint256",
					"name": "projectId",
					"type": "uint256"
				}
			],
			"name": "getProjectOwner",
			"outputs": [
				{
					"internalType": "address",
					"name": "",
					"type": "address"
				}
			],
			"stateMutability": "view",
			"type": "function"
		},
		{
			"inputs": [],
			"name": "projectNum",
			"outputs": [
				{
					"internalType": "uint256",
					"name": "",
					"type": "uint256"
				}
			],
			"stateMutability": "view",
			"type": "function"
		},
		{
			"inputs": [],
			"name": "projectTotal",
			"outputs": [
				{
					"internalType": "uint256",
					"name": "",
					"type": "uint256"
				}
			],
			"stateMutability": "view",
			"type": "function"
		},
		{
			"inputs": [
				{
					"internalType": "uint256",
					"name": "",
					"type": "uint256"
				}
			],
			"name": "projects",
			"outputs": [
				{
					"internalType": "uint256",
					"name": "projectNumber",
					"type": "uint256"
				},
				{
					"internalType": "string",
					"name": "title",
					"type": "string"
				},
				{
					"internalType": "string",
					"name": "description",
					"type": "string"
				},
				{
					"internalType": "address",
					"name": "projectOwner",
					"type": "address"
				},
				{
					"internalType": "bool",
					"name": "exist",
					"type": "bool"
				},
				{
					"internalType": "enum States.ProjectStatus",
					"name": "projectstatus",
					"type": "uint8"
				}
			],
			"stateMutability": "view",
			"type": "function"
		},
		{
			"inputs": [
				{
					"internalType": "uint256",
					"name": "projectNumber",
					"type": "uint256"
				},
				{
					"internalType": "uint256",
					"name": "serviceNumber",
					"type": "uint256"
				},
				{
					"internalType": "uint256",
					"name": "milestoneNumber",
					"type": "uint256"
				}
			],
			"name": "readMilestoneTitle",
			"outputs": [
				{
					"internalType": "string",
					"name": "",
					"type": "string"
				}
			],
			"stateMutability": "view",
			"type": "function"
		},
		{
			"inputs": [
				{
					"internalType": "uint256",
					"name": "projectNumber",
					"type": "uint256"
				}
			],
			"name": "readProjectTitle",
			"outputs": [
				{
					"internalType": "string",
					"name": "",
					"type": "string"
				}
			],
			"stateMutability": "view",
			"type": "function"
		},
		{
			"inputs": [
				{
					"internalType": "uint256",
					"name": "projectNumber",
					"type": "uint256"
				},
				{
					"internalType": "uint256",
					"name": "serviceNumber",
					"type": "uint256"
				}
			],
			"name": "readServiceTitle",
			"outputs": [
				{
					"internalType": "string",
					"name": "",
					"type": "string"
				}
			],
			"stateMutability": "view",
			"type": "function"
		},
		{
			"inputs": [
				{
					"internalType": "uint256",
					"name": "projectNumber",
					"type": "uint256"
				},
				{
					"internalType": "uint256",
					"name": "serviceNumber",
					"type": "uint256"
				},
				{
					"internalType": "address payable",
					"name": "serviceRequester",
					"type": "address"
				}
			],
			"name": "rejectServiceRequest",
			"outputs": [],
			"stateMutability": "nonpayable",
			"type": "function"
		},
		{
			"inputs": [
				{
					"internalType": "uint256",
					"name": "projectNumber",
					"type": "uint256"
				},
				{
					"internalType": "uint256",
					"name": "serviceNumber",
					"type": "uint256"
				},
				{
					"internalType": "uint256",
					"name": "milestoneNumber",
					"type": "uint256"
				},
				{
					"internalType": "address",
					"name": "_from",
					"type": "address"
				},
				{
					"internalType": "string",
					"name": "review_input",
					"type": "string"
				},
				{
					"internalType": "uint256",
					"name": "star_rating",
					"type": "uint256"
				}
			],
			"name": "reviewMilestone",
			"outputs": [],
			"stateMutability": "nonpayable",
			"type": "function"
		},
		{
			"inputs": [
				{
					"internalType": "uint256",
					"name": "projectNumber",
					"type": "uint256"
				},
				{
					"internalType": "uint256",
					"name": "serviceNumber",
					"type": "uint256"
				},
				{
					"internalType": "uint256",
					"name": "milestoneNumber",
					"type": "uint256"
				}
			],
			"name": "startVote",
			"outputs": [],
			"stateMutability": "nonpayable",
			"type": "function"
		},
		{
			"inputs": [
				{
					"internalType": "uint256",
					"name": "projectNumber",
					"type": "uint256"
				},
				{
					"internalType": "uint256",
					"name": "serviceNumber",
					"type": "uint256"
				},
				{
					"internalType": "address",
					"name": "serviceProvider",
					"type": "address"
				}
			],
			"name": "takeServiceRequest",
			"outputs": [],
			"stateMutability": "nonpayable",
			"type": "function"
		},
		{
			"inputs": [
				{
					"internalType": "uint256",
					"name": "projectNumber",
					"type": "uint256"
				},
				{
					"internalType": "uint256",
					"name": "serviceNumber",
					"type": "uint256"
				},
				{
					"internalType": "uint256",
					"name": "milestoneNumber",
					"type": "uint256"
				},
				{
					"internalType": "string",
					"name": "title",
					"type": "string"
				},
				{
					"internalType": "string",
					"name": "description",
					"type": "string"
				}
			],
			"name": "updateConflict",
			"outputs": [],
			"stateMutability": "nonpayable",
			"type": "function"
		},
		{
			"inputs": [
				{
					"internalType": "uint256",
					"name": "projectNumber",
					"type": "uint256"
				},
				{
					"internalType": "uint256",
					"name": "serviceNumber",
					"type": "uint256"
				},
				{
					"internalType": "uint256",
					"name": "milestoneNumber",
					"type": "uint256"
				},
				{
					"internalType": "string",
					"name": "titleMilestone",
					"type": "string"
				},
				{
					"internalType": "string",
					"name": "descriptionMilestone",
					"type": "string"
				}
			],
			"name": "updateMilestone",
			"outputs": [],
			"stateMutability": "nonpayable",
			"type": "function"
		},
		{
			"inputs": [
				{
					"internalType": "uint256",
					"name": "projectNumber",
					"type": "uint256"
				},
				{
					"internalType": "string",
					"name": "title",
					"type": "string"
				},
				{
					"internalType": "string",
					"name": "description",
					"type": "string"
				}
			],
			"name": "updateProject",
			"outputs": [],
			"stateMutability": "nonpayable",
			"type": "function"
		},
		{
			"inputs": [
				{
					"internalType": "uint256",
					"name": "projectNumber",
					"type": "uint256"
				},
				{
					"internalType": "uint256",
					"name": "serviceNumber",
					"type": "uint256"
				},
				{
					"internalType": "string",
					"name": "title",
					"type": "string"
				},
				{
					"internalType": "string",
					"name": "description",
					"type": "string"
				},
				{
					"internalType": "uint256",
					"name": "price",
					"type": "uint256"
				},
				{
					"internalType": "enum States.ServiceStatus",
					"name": "status",
					"type": "uint8"
				}
			],
			"name": "updateService",
			"outputs": [],
			"stateMutability": "nonpayable",
			"type": "function"
		},
		{
			"inputs": [
				{
					"internalType": "uint256",
					"name": "projectNumber",
					"type": "uint256"
				},
				{
					"internalType": "uint256",
					"name": "serviceNumber",
					"type": "uint256"
				},
				{
					"internalType": "uint256",
					"name": "milestoneNumber",
					"type": "uint256"
				}
			],
			"name": "verifyMilestone",
			"outputs": [],
			"stateMutability": "nonpayable",
			"type": "function"
		},
		{
			"inputs": [
				{
					"internalType": "uint256",
					"name": "projectNumber",
					"type": "uint256"
				},
				{
					"internalType": "uint256",
					"name": "serviceNumber",
					"type": "uint256"
				},
				{
					"internalType": "uint256",
					"name": "milestoneNumber",
					"type": "uint256"
				},
				{
					"internalType": "address",
					"name": "sender",
					"type": "address"
				},
				{
					"internalType": "uint8",
					"name": "vote",
					"type": "uint8"
				}
			],
			"name": "voteConflict",
			"outputs": [],
			"stateMutability": "nonpayable",
			"type": "function"
		}
	]
}