{
	"data": {
		"bytecode": {
			"linkReferences": {},
			"object": "6080604052600060015560006002553480156200001b57600080fd5b506040516200288b3803806200288b83398181016040528101906200004191906200009f565b806000806101000a81548173ffffffffffffffffffffffffffffffffffffffff021916908373ffffffffffffffffffffffffffffffffffffffff1602179055505062000138565b60008151905062000099816200011e565b92915050565b600060208284031215620000b857620000b762000119565b5b6000620000c88482850162000088565b91505092915050565b6000620000de82620000f9565b9050919050565b6000620000f282620000d1565b9050919050565b600073ffffffffffffffffffffffffffffffffffffffff82169050919050565b600080fd5b6200012981620000e5565b81146200013557600080fd5b50565b61274380620001486000396000f3fe608060405234801561001057600080fd5b50600436106101205760003560e01c806363ef8a50116100ad578063c304ccdc11610071578063c304ccdc146102e2578063d1e992a714610312578063e731ac451461032e578063f0f238ce1461034a578063fd23c4bb1461036657610120565b806363ef8a50146102425780638c749c741461025e578063ace731bd1461027a578063b9b6c5d4146102aa578063c171bdf7146102c657610120565b8063256da4e3116100f4578063256da4e3146101b257806330f73051146101ce578063352d28fd146101ec578063529884e71461020a57806353c49c641461022657610120565b80623f489f14610125578063010dfd931461014157806314da947b1461015d5780631c82ead914610179575b600080fd5b61013f600480360381019061013a91906119fe565b610382565b005b61015b60048036038101906101569190611939565b610415565b005b61017760048036038101906101729190611847565b610551565b005b610193600480360381019061018e9190611807565b610661565b6040516101a99a99989796959493929190611fc4565b60405180910390f35b6101cc60048036038101906101c79190611754565b61082c565b005b6101d6610ac8565b6040516101e39190611e5d565b60405180910390f35b6101f4610ace565b6040516102019190611e5d565b60405180910390f35b610224600480360381019061021f9190611847565b610ad4565b005b610240600480360381019061023b9190611807565b610c4b565b005b61025c6004803603810190610257919061189a565b610ce0565b005b61027860048036038101906102739190611847565b610d77565b005b610294600480360381019061028f91906119fe565b610e87565b6040516102a19190611d9b565b60405180910390f35b6102c460048036038101906102bf91906119fe565b610f43565b005b6102e060048036038101906102db9190611a51565b610fd7565b005b6102fc60048036038101906102f79190611807565b611071565b6040516103099190611d9b565b60405180910390f35b61032c60048036038101906103279190611acc565b61112b565b005b61034860048036038101906103439190611b7f565b6111c5565b005b610364600480360381019061035f9190611847565b61136f565b005b610380600480360381019061037b9190611acc565b611485565b005b60008054906101000a900473ffffffffffffffffffffffffffffffffffffffff1673ffffffffffffffffffffffffffffffffffffffff16623f489f8484846040518463ffffffff1660e01b81526004016103de9392919061206e565b600060405180830381600087803b1580156103f857600080fd5b505af115801561040c573d6000803e3d6000fd5b50505050505050565b83600360008881526020019081526020016000206000878152602001908152602001600020600201908051906020019061045092919061151f565b5082600360008881526020019081526020016000206000878152602001908152602001600020600301908051906020019061048c92919061151f565b5081600360008881526020019081526020016000206000878152602001908152602001600020600401819055508060036000888152602001908152602001600020600087815260200190815260200160002060070160156101000a81548160ff021916908360058111156105035761050261242a565b5b02179055507fb9394e42612196ad38a0ca64aa7da6530eadc007b8e67d6a649b19332e99645186868686868660405161054196959493929190611f55565b60405180910390a1505050505050565b82828260036000848152602001908152602001600020600083815260200190815260200160002060060160009054906101000a900473ffffffffffffffffffffffffffffffffffffffff1673ffffffffffffffffffffffffffffffffffffffff168173ffffffffffffffffffffffffffffffffffffffff1614610609576040517f08c379a000000000000000000000000000000000000000000000000000000000815260040161060090611e3d565b60405180910390fd5b600260036000888152602001908152602001600020600087815260200190815260200160002060070160156101000a81548160ff021916908360058111156106545761065361242a565b5b0217905550505050505050565b60036020528160005260406000206020528060005260406000206000915091505080600001549080600101549080600201805461069d9061234f565b80601f01602080910402602001604051908101604052809291908181526020018280546106c99061234f565b80156107165780601f106106eb57610100808354040283529160200191610716565b820191906000526020600020905b8154815290600101906020018083116106f957829003601f168201915b50505050509080600301805461072b9061234f565b80601f01602080910402602001604051908101604052809291908181526020018280546107579061234f565b80156107a45780601f10610779576101008083540402835291602001916107a4565b820191906000526020600020905b81548152906001019060200180831161078757829003601f168201915b5050505050908060040154908060050154908060060160009054906101000a900473ffffffffffffffffffffffffffffffffffffffff16908060070160009054906101000a900473ffffffffffffffffffffffffffffffffffffffff16908060070160149054906101000a900460ff16908060070160159054906101000a900460ff1690508a565b836000815111610871576040517f08c379a000000000000000000000000000000000000000000000000000000000815260040161086890611e1d565b60405180910390fd5b8360008151116108b6576040517f08c379a00000000000000000000000000000000000000000000000000000000081526004016108ad90611e1d565b60405180910390fd5b600084116108f9576040517f08c379a00000000000000000000000000000000000000000000000000000000081526004016108f090611dbd565b60405180910390fd5b60006003600089815260200190815260200160002060006002548152602001908152602001600020905087816000018190555060025481600101819055508681600201908051906020019061094f92919061151f565b508581600301908051906020019061096892919061151f565b5084816004018190555060008160050181905550838160060160006101000a81548173ffffffffffffffffffffffffffffffffffffffff021916908373ffffffffffffffffffffffffffffffffffffffff16021790555060008160070160006101000a81548173ffffffffffffffffffffffffffffffffffffffff021916908373ffffffffffffffffffffffffffffffffffffffff16021790555060018160070160146101000a81548160ff02191690831515021790555060008160070160156101000a81548160ff02191690836005811115610a4857610a4761242a565b5b02179055507fe8bc23dadb6cac9147246af11cc9afe29b7f5f524a2e539da4486da2196a78f188600254898989604051610a86959493929190611ef4565b60405180910390a160016000815480929190610aa1906123b2565b919050555060026000815480929190610ab9906123b2565b91905055505050505050505050565b60015481565b60025481565b82828260036000848152602001908152602001600020600083815260200190815260200160002060060160009054906101000a900473ffffffffffffffffffffffffffffffffffffffff1673ffffffffffffffffffffffffffffffffffffffff168173ffffffffffffffffffffffffffffffffffffffff1614610b8c576040517f08c379a0000000000000000000000000000000000000000000000000000000008152600401610b8390611e3d565b60405180910390fd5b600060036000888152602001908152602001600020600087815260200190815260200160002060070160156101000a81548160ff02191690836005811115610bd757610bd661242a565b5b0217905550600060036000888152602001908152602001600020600087815260200190815260200160002060070160006101000a81548173ffffffffffffffffffffffffffffffffffffffff021916908373ffffffffffffffffffffffffffffffffffffffff160217905550505050505050565b600060036000848152602001908152602001600020600083815260200190815260200160002060070160146101000a81548160ff02191690831515021790555060016000815480929190610c9e90612325565b91905055507f04579b03ce378bfed31ee6443865880dab0b281efac453deb39233352189863f8282604051610cd4929190611e78565b60405180910390a15050565b60008054906101000a900473ffffffffffffffffffffffffffffffffffffffff1673ffffffffffffffffffffffffffffffffffffffff166363ef8a50858585856040518563ffffffff1660e01b8152600401610d3f9493929190611ea1565b600060405180830381600087803b158015610d5957600080fd5b505af1158015610d6d573d6000803e3d6000fd5b5050505050505050565b82828260036000848152602001908152602001600020600083815260200190815260200160002060070160009054906101000a900473ffffffffffffffffffffffffffffffffffffffff1673ffffffffffffffffffffffffffffffffffffffff168173ffffffffffffffffffffffffffffffffffffffff1614610e2f576040517f08c379a0000000000000000000000000000000000000000000000000000000008152600401610e2690611ddd565b60405180910390fd5b600460036000888152602001908152602001600020600087815260200190815260200160002060070160156101000a81548160ff02191690836005811115610e7a57610e7961242a565b5b0217905550505050505050565b606060008054906101000a900473ffffffffffffffffffffffffffffffffffffffff1673ffffffffffffffffffffffffffffffffffffffff1663ace731bd8585856040518463ffffffff1660e01b8152600401610ee69392919061206e565b60006040518083038186803b158015610efe57600080fd5b505afa158015610f12573d6000803e3d6000fd5b505050506040513d6000823e3d601f19601f82011682018060405250810190610f3b919061170b565b509392505050565b60008054906101000a900473ffffffffffffffffffffffffffffffffffffffff1673ffffffffffffffffffffffffffffffffffffffff1663b9b6c5d48484846040518463ffffffff1660e01b8152600401610fa09392919061206e565b600060405180830381600087803b158015610fba57600080fd5b505af1158015610fce573d6000803e3d6000fd5b50505050505050565b60008054906101000a900473ffffffffffffffffffffffffffffffffffffffff1673ffffffffffffffffffffffffffffffffffffffff1663c171bdf786868686866040518663ffffffff1660e01b81526004016110389594939291906120a5565b600060405180830381600087803b15801561105257600080fd5b505af1158015611066573d6000803e3d6000fd5b505050505050505050565b606060036000848152602001908152602001600020600083815260200190815260200160002060020180546110a59061234f565b80601f01602080910402602001604051908101604052809291908181526020018280546110d19061234f565b801561111e5780601f106110f35761010080835404028352916020019161111e565b820191906000526020600020905b81548152906001019060200180831161110157829003601f168201915b5050505050905092915050565b60008054906101000a900473ffffffffffffffffffffffffffffffffffffffff1673ffffffffffffffffffffffffffffffffffffffff1663d1e992a786868686866040518663ffffffff1660e01b815260040161118c9594939291906120f8565b600060405180830381600087803b1580156111a657600080fd5b505af11580156111ba573d6000803e3d6000fd5b505050505050505050565b86868360036000848152602001908152602001600020600083815260200190815260200160002060060160009054906101000a900473ffffffffffffffffffffffffffffffffffffffff1673ffffffffffffffffffffffffffffffffffffffff168173ffffffffffffffffffffffffffffffffffffffff161461127d576040517f08c379a000000000000000000000000000000000000000000000000000000000815260040161127490611e3d565b60405180910390fd5b6000600360008c815260200190815260200160002060008b815260200190815260200160002060070160009054906101000a900473ffffffffffffffffffffffffffffffffffffffff16905060008054906101000a900473ffffffffffffffffffffffffffffffffffffffff1673ffffffffffffffffffffffffffffffffffffffff1663e62fac278c8c8c8c8c8c888d6040518963ffffffff1660e01b8152600401611330989796959493929190612159565b600060405180830381600087803b15801561134a57600080fd5b505af115801561135e573d6000803e3d6000fd5b505050505050505050505050505050565b60006003600085815260200190815260200160002060008481526020019081526020016000209050600060058111156113ab576113aa61242a565b5b8160070160159054906101000a900460ff1660058111156113cf576113ce61242a565b5b1461140f576040517f08c379a000000000000000000000000000000000000000000000000000000000815260040161140690611dfd565b60405180910390fd5b60018160070160156101000a81548160ff021916908360058111156114375761143661242a565b5b0217905550818160070160006101000a81548173ffffffffffffffffffffffffffffffffffffffff021916908373ffffffffffffffffffffffffffffffffffffffff16021790555050505050565b60008054906101000a900473ffffffffffffffffffffffffffffffffffffffff1673ffffffffffffffffffffffffffffffffffffffff1663fd23c4bb86868686866040518663ffffffff1660e01b81526004016114e69594939291906120f8565b600060405180830381600087803b15801561150057600080fd5b505af1158015611514573d6000803e3d6000fd5b505050505050505050565b82805461152b9061234f565b90600052602060002090601f01602090048101928261154d5760008555611594565b82601f1061156657805160ff1916838001178555611594565b82800160010185558215611594579182015b82811115611593578251825591602001919060010190611578565b5b5090506115a191906115a5565b5090565b5b808211156115be5760008160009055506001016115a6565b5090565b60006115d56115d08461220a565b6121e5565b9050828152602081018484840111156115f1576115f06124bc565b5b6115fc8482856122e3565b509392505050565b60006116176116128461220a565b6121e5565b905082815260208101848484011115611633576116326124bc565b5b61163e8482856122f2565b509392505050565b600081359050611655816126a1565b92915050565b60008135905061166a816126b8565b92915050565b60008135905061167f816126cf565b92915050565b600082601f83011261169a576116996124b7565b5b81356116aa8482602086016115c2565b91505092915050565b600082601f8301126116c8576116c76124b7565b5b81516116d8848260208601611604565b91505092915050565b6000813590506116f0816126df565b92915050565b600081359050611705816126f6565b92915050565b600060208284031215611721576117206124c6565b5b600082015167ffffffffffffffff81111561173f5761173e6124c1565b5b61174b848285016116b3565b91505092915050565b600080600080600060a086880312156117705761176f6124c6565b5b600061177e888289016116e1565b955050602086013567ffffffffffffffff81111561179f5761179e6124c1565b5b6117ab88828901611685565b945050604086013567ffffffffffffffff8111156117cc576117cb6124c1565b5b6117d888828901611685565b93505060606117e9888289016116e1565b92505060806117fa8882890161165b565b9150509295509295909350565b6000806040838503121561181e5761181d6124c6565b5b600061182c858286016116e1565b925050602061183d858286016116e1565b9150509250929050565b6000806000606084860312156118605761185f6124c6565b5b600061186e868287016116e1565b935050602061187f868287016116e1565b925050604061189086828701611646565b9150509250925092565b600080600080608085870312156118b4576118b36124c6565b5b60006118c2878288016116e1565b94505060206118d3878288016116e1565b935050604085013567ffffffffffffffff8111156118f4576118f36124c1565b5b61190087828801611685565b925050606085013567ffffffffffffffff811115611921576119206124c1565b5b61192d87828801611685565b91505092959194509250565b60008060008060008060c08789031215611956576119556124c6565b5b600061196489828a016116e1565b965050602061197589828a016116e1565b955050604087013567ffffffffffffffff811115611996576119956124c1565b5b6119a289828a01611685565b945050606087013567ffffffffffffffff8111156119c3576119c26124c1565b5b6119cf89828a01611685565b93505060806119e089828a016116e1565b92505060a06119f189828a01611670565b9150509295509295509295565b600080600060608486031215611a1757611a166124c6565b5b6000611a25868287016116e1565b9350506020611a36868287016116e1565b9250506040611a47868287016116e1565b9150509250925092565b600080600080600060a08688031215611a6d57611a6c6124c6565b5b6000611a7b888289016116e1565b9550506020611a8c888289016116e1565b9450506040611a9d888289016116e1565b9350506060611aae88828901611646565b9250506080611abf888289016116f6565b9150509295509295909350565b600080600080600060a08688031215611ae857611ae76124c6565b5b6000611af6888289016116e1565b9550506020611b07888289016116e1565b9450506040611b18888289016116e1565b935050606086013567ffffffffffffffff811115611b3957611b386124c1565b5b611b4588828901611685565b925050608086013567ffffffffffffffff811115611b6657611b656124c1565b5b611b7288828901611685565b9150509295509295909350565b600080600080600080600060e0888a031215611b9e57611b9d6124c6565b5b6000611bac8a828b016116e1565b9750506020611bbd8a828b016116e1565b9650506040611bce8a828b016116e1565b955050606088013567ffffffffffffffff811115611bef57611bee6124c1565b5b611bfb8a828b01611685565b945050608088013567ffffffffffffffff811115611c1c57611c1b6124c1565b5b611c288a828b01611685565b93505060a0611c398a828b01611646565b92505060c0611c4a8a828b016116e1565b91505092959891949750929550565b611c6281612269565b82525050565b611c7181612257565b82525050565b611c808161227b565b82525050565b611c8f816122d1565b82525050565b6000611ca08261223b565b611caa8185612246565b9350611cba8185602086016122f2565b611cc3816124cb565b840191505092915050565b6000611cdb602183612246565b9150611ce6826124dc565b604082019050919050565b6000611cfe604783612246565b9150611d098261252b565b606082019050919050565b6000611d21603583612246565b9150611d2c826125a0565b604082019050919050565b6000611d44601583612246565b9150611d4f826125ef565b602082019050919050565b6000611d67604183612246565b9150611d7282612618565b606082019050919050565b611d86816122ba565b82525050565b611d95816122c4565b82525050565b60006020820190508181036000830152611db58184611c95565b905092915050565b60006020820190508181036000830152611dd681611cce565b9050919050565b60006020820190508181036000830152611df681611cf1565b9050919050565b60006020820190508181036000830152611e1681611d14565b9050919050565b60006020820190508181036000830152611e3681611d37565b9050919050565b60006020820190508181036000830152611e5681611d5a565b9050919050565b6000602082019050611e726000830184611d7d565b92915050565b6000604082019050611e8d6000830185611d7d565b611e9a6020830184611d7d565b9392505050565b6000608082019050611eb66000830187611d7d565b611ec36020830186611d7d565b8181036040830152611ed58185611c95565b90508181036060830152611ee98184611c95565b905095945050505050565b600060a082019050611f096000830188611d7d565b611f166020830187611d7d565b8181036040830152611f288186611c95565b90508181036060830152611f3c8185611c95565b9050611f4b6080830184611d7d565b9695505050505050565b600060c082019050611f6a6000830189611d7d565b611f776020830188611d7d565b8181036040830152611f898187611c95565b90508181036060830152611f9d8186611c95565b9050611fac6080830185611d7d565b611fb960a0830184611c86565b979650505050505050565b600061014082019050611fda600083018d611d7d565b611fe7602083018c611d7d565b8181036040830152611ff9818b611c95565b9050818103606083015261200d818a611c95565b905061201c6080830189611d7d565b61202960a0830188611d7d565b61203660c0830187611c59565b61204360e0830186611c59565b612051610100830185611c77565b61205f610120830184611c86565b9b9a5050505050505050505050565b60006060820190506120836000830186611d7d565b6120906020830185611d7d565b61209d6040830184611d7d565b949350505050565b600060a0820190506120ba6000830188611d7d565b6120c76020830187611d7d565b6120d46040830186611d7d565b6120e16060830185611c68565b6120ee6080830184611d8c565b9695505050505050565b600060a08201905061210d6000830188611d7d565b61211a6020830187611d7d565b6121276040830186611d7d565b81810360608301526121398185611c95565b9050818103608083015261214d8184611c95565b90509695505050505050565b60006101008201905061216f600083018b611d7d565b61217c602083018a611d7d565b6121896040830189611d7d565b818103606083015261219b8188611c95565b905081810360808301526121af8187611c95565b90506121be60a0830186611c68565b6121cb60c0830185611c68565b6121d860e0830184611d7d565b9998505050505050505050565b60006121ef612200565b90506121fb8282612381565b919050565b6000604051905090565b600067ffffffffffffffff82111561222557612224612488565b5b61222e826124cb565b9050602081019050919050565b600081519050919050565b600082825260208201905092915050565b60006122628261229a565b9050919050565b60006122748261229a565b9050919050565b60008115159050919050565b60008190506122958261268d565b919050565b600073ffffffffffffffffffffffffffffffffffffffff82169050919050565b6000819050919050565b600060ff82169050919050565b60006122dc82612287565b9050919050565b82818337600083830152505050565b60005b838110156123105780820151818401526020810190506122f5565b8381111561231f576000848401525b50505050565b6000612330826122ba565b91506000821415612344576123436123fb565b5b600182039050919050565b6000600282049050600182168061236757607f821691505b6020821081141561237b5761237a612459565b5b50919050565b61238a826124cb565b810181811067ffffffffffffffff821117156123a9576123a8612488565b5b80604052505050565b60006123bd826122ba565b91507fffffffffffffffffffffffffffffffffffffffffffffffffffffffffffffffff8214156123f0576123ef6123fb565b5b600182019050919050565b7f4e487b7100000000000000000000000000000000000000000000000000000000600052601160045260246000fd5b7f4e487b7100000000000000000000000000000000000000000000000000000000600052602160045260246000fd5b7f4e487b7100000000000000000000000000000000000000000000000000000000600052602260045260246000fd5b7f4e487b7100000000000000000000000000000000000000000000000000000000600052604160045260246000fd5b600080fd5b600080fd5b600080fd5b600080fd5b6000601f19601f8301169050919050565b7f412053657276696365205072696365206d75737420626520737065636966696560008201527f6400000000000000000000000000000000000000000000000000000000000000602082015250565b7f556e617574686f72697365642061636365737320746f20736572766963652c2060008201527f6f6e6c792073657276696365207365727669636550726f76696465722063616e60208201527f2061636365737300000000000000000000000000000000000000000000000000604082015250565b7f596f75206172652063757272656e746c79206e6f7420616c6c6f77656420746f60008201527f20776f726b206f6e207468697320736572766963650000000000000000000000602082015250565b7f4120737472696e67206973207265717569726564210000000000000000000000600082015250565b7f556e617574686f72697365642061636365737320746f20736572766963652c2060008201527f6f6e6c792073657276696365207265717565737465722063616e20616363657360208201527f7300000000000000000000000000000000000000000000000000000000000000604082015250565b6006811061269e5761269d61242a565b5b50565b6126aa81612257565b81146126b557600080fd5b50565b6126c181612269565b81146126cc57600080fd5b50565b600681106126dc57600080fd5b50565b6126e8816122ba565b81146126f357600080fd5b50565b6126ff816122c4565b811461270a57600080fd5b5056fea26469706673582212200a74acf8de657e406de9c58277f3853570f362e0b6263e27f1782cb49e293cec64736f6c63430008070033",
			"opcodes": "PUSH1 0x80 PUSH1 0x40 MSTORE PUSH1 0x0 PUSH1 0x1 SSTORE PUSH1 0x0 PUSH1 0x2 SSTORE CALLVALUE DUP1 ISZERO PUSH3 0x1B JUMPI PUSH1 0x0 DUP1 REVERT JUMPDEST POP PUSH1 0x40 MLOAD PUSH3 0x288B CODESIZE SUB DUP1 PUSH3 0x288B DUP4 CODECOPY DUP2 DUP2 ADD PUSH1 0x40 MSTORE DUP2 ADD SWAP1 PUSH3 0x41 SWAP2 SWAP1 PUSH3 0x9F JUMP JUMPDEST DUP1 PUSH1 0x0 DUP1 PUSH2 0x100 EXP DUP2 SLOAD DUP2 PUSH20 0xFFFFFFFFFFFFFFFFFFFFFFFFFFFFFFFFFFFFFFFF MUL NOT AND SWAP1 DUP4 PUSH20 0xFFFFFFFFFFFFFFFFFFFFFFFFFFFFFFFFFFFFFFFF AND MUL OR SWAP1 SSTORE POP POP PUSH3 0x138 JUMP JUMPDEST PUSH1 0x0 DUP2 MLOAD SWAP1 POP PUSH3 0x99 DUP2 PUSH3 0x11E JUMP JUMPDEST SWAP3 SWAP2 POP POP JUMP JUMPDEST PUSH1 0x0 PUSH1 0x20 DUP3 DUP5 SUB SLT ISZERO PUSH3 0xB8 JUMPI PUSH3 0xB7 PUSH3 0x119 JUMP JUMPDEST JUMPDEST PUSH1 0x0 PUSH3 0xC8 DUP5 DUP3 DUP6 ADD PUSH3 0x88 JUMP JUMPDEST SWAP2 POP POP SWAP3 SWAP2 POP POP JUMP JUMPDEST PUSH1 0x0 PUSH3 0xDE DUP3 PUSH3 0xF9 JUMP JUMPDEST SWAP1 POP SWAP2 SWAP1 POP JUMP JUMPDEST PUSH1 0x0 PUSH3 0xF2 DUP3 PUSH3 0xD1 JUMP JUMPDEST SWAP1 POP SWAP2 SWAP1 POP JUMP JUMPDEST PUSH1 0x0 PUSH20 0xFFFFFFFFFFFFFFFFFFFFFFFFFFFFFFFFFFFFFFFF DUP3 AND SWAP1 POP SWAP2 SWAP1 POP JUMP JUMPDEST PUSH1 0x0 DUP1 REVERT JUMPDEST PUSH3 0x129 DUP2 PUSH3 0xE5 JUMP JUMPDEST DUP2 EQ PUSH3 0x135 JUMPI PUSH1 0x0 DUP1 REVERT JUMPDEST POP JUMP JUMPDEST PUSH2 0x2743 DUP1 PUSH3 0x148 PUSH1 0x0 CODECOPY PUSH1 0x0 RETURN INVALID PUSH1 0x80 PUSH1 0x40 MSTORE CALLVALUE DUP1 ISZERO PUSH2 0x10 JUMPI PUSH1 0x0 DUP1 REVERT JUMPDEST POP PUSH1 0x4 CALLDATASIZE LT PUSH2 0x120 JUMPI PUSH1 0x0 CALLDATALOAD PUSH1 0xE0 SHR DUP1 PUSH4 0x63EF8A50 GT PUSH2 0xAD JUMPI DUP1 PUSH4 0xC304CCDC GT PUSH2 0x71 JUMPI DUP1 PUSH4 0xC304CCDC EQ PUSH2 0x2E2 JUMPI DUP1 PUSH4 0xD1E992A7 EQ PUSH2 0x312 JUMPI DUP1 PUSH4 0xE731AC45 EQ PUSH2 0x32E JUMPI DUP1 PUSH4 0xF0F238CE EQ PUSH2 0x34A JUMPI DUP1 PUSH4 0xFD23C4BB EQ PUSH2 0x366 JUMPI PUSH2 0x120 JUMP JUMPDEST DUP1 PUSH4 0x63EF8A50 EQ PUSH2 0x242 JUMPI DUP1 PUSH4 0x8C749C74 EQ PUSH2 0x25E JUMPI DUP1 PUSH4 0xACE731BD EQ PUSH2 0x27A JUMPI DUP1 PUSH4 0xB9B6C5D4 EQ PUSH2 0x2AA JUMPI DUP1 PUSH4 0xC171BDF7 EQ PUSH2 0x2C6 JUMPI PUSH2 0x120 JUMP JUMPDEST DUP1 PUSH4 0x256DA4E3 GT PUSH2 0xF4 JUMPI DUP1 PUSH4 0x256DA4E3 EQ PUSH2 0x1B2 JUMPI DUP1 PUSH4 0x30F73051 EQ PUSH2 0x1CE JUMPI DUP1 PUSH4 0x352D28FD EQ PUSH2 0x1EC JUMPI DUP1 PUSH4 0x529884E7 EQ PUSH2 0x20A JUMPI DUP1 PUSH4 0x53C49C64 EQ PUSH2 0x226 JUMPI PUSH2 0x120 JUMP JUMPDEST DUP1 PUSH3 0x3F489F EQ PUSH2 0x125 JUMPI DUP1 PUSH4 0x10DFD93 EQ PUSH2 0x141 JUMPI DUP1 PUSH4 0x14DA947B EQ PUSH2 0x15D JUMPI DUP1 PUSH4 0x1C82EAD9 EQ PUSH2 0x179 JUMPI JUMPDEST PUSH1 0x0 DUP1 REVERT JUMPDEST PUSH2 0x13F PUSH1 0x4 DUP1 CALLDATASIZE SUB DUP2 ADD SWAP1 PUSH2 0x13A SWAP2 SWAP1 PUSH2 0x19FE JUMP JUMPDEST PUSH2 0x382 JUMP JUMPDEST STOP JUMPDEST PUSH2 0x15B PUSH1 0x4 DUP1 CALLDATASIZE SUB DUP2 ADD SWAP1 PUSH2 0x156 SWAP2 SWAP1 PUSH2 0x1939 JUMP JUMPDEST PUSH2 0x415 JUMP JUMPDEST STOP JUMPDEST PUSH2 0x177 PUSH1 0x4 DUP1 CALLDATASIZE SUB DUP2 ADD SWAP1 PUSH2 0x172 SWAP2 SWAP1 PUSH2 0x1847 JUMP JUMPDEST PUSH2 0x551 JUMP JUMPDEST STOP JUMPDEST PUSH2 0x193 PUSH1 0x4 DUP1 CALLDATASIZE SUB DUP2 ADD SWAP1 PUSH2 0x18E SWAP2 SWAP1 PUSH2 0x1807 JUMP JUMPDEST PUSH2 0x661 JUMP JUMPDEST PUSH1 0x40 MLOAD PUSH2 0x1A9 SWAP11 SWAP10 SWAP9 SWAP8 SWAP7 SWAP6 SWAP5 SWAP4 SWAP3 SWAP2 SWAP1 PUSH2 0x1FC4 JUMP JUMPDEST PUSH1 0x40 MLOAD DUP1 SWAP2 SUB SWAP1 RETURN JUMPDEST PUSH2 0x1CC PUSH1 0x4 DUP1 CALLDATASIZE SUB DUP2 ADD SWAP1 PUSH2 0x1C7 SWAP2 SWAP1 PUSH2 0x1754 JUMP JUMPDEST PUSH2 0x82C JUMP JUMPDEST STOP JUMPDEST PUSH2 0x1D6 PUSH2 0xAC8 JUMP JUMPDEST PUSH1 0x40 MLOAD PUSH2 0x1E3 SWAP2 SWAP1 PUSH2 0x1E5D JUMP JUMPDEST PUSH1 0x40 MLOAD DUP1 SWAP2 SUB SWAP1 RETURN JUMPDEST PUSH2 0x1F4 PUSH2 0xACE JUMP JUMPDEST PUSH1 0x40 MLOAD PUSH2 0x201 SWAP2 SWAP1 PUSH2 0x1E5D JUMP JUMPDEST PUSH1 0x40 MLOAD DUP1 SWAP2 SUB SWAP1 RETURN JUMPDEST PUSH2 0x224 PUSH1 0x4 DUP1 CALLDATASIZE SUB DUP2 ADD SWAP1 PUSH2 0x21F SWAP2 SWAP1 PUSH2 0x1847 JUMP JUMPDEST PUSH2 0xAD4 JUMP JUMPDEST STOP JUMPDEST PUSH2 0x240 PUSH1 0x4 DUP1 CALLDATASIZE SUB DUP2 ADD SWAP1 PUSH2 0x23B SWAP2 SWAP1 PUSH2 0x1807 JUMP JUMPDEST PUSH2 0xC4B JUMP JUMPDEST STOP JUMPDEST PUSH2 0x25C PUSH1 0x4 DUP1 CALLDATASIZE SUB DUP2 ADD SWAP1 PUSH2 0x257 SWAP2 SWAP1 PUSH2 0x189A JUMP JUMPDEST PUSH2 0xCE0 JUMP JUMPDEST STOP JUMPDEST PUSH2 0x278 PUSH1 0x4 DUP1 CALLDATASIZE SUB DUP2 ADD SWAP1 PUSH2 0x273 SWAP2 SWAP1 PUSH2 0x1847 JUMP JUMPDEST PUSH2 0xD77 JUMP JUMPDEST STOP JUMPDEST PUSH2 0x294 PUSH1 0x4 DUP1 CALLDATASIZE SUB DUP2 ADD SWAP1 PUSH2 0x28F SWAP2 SWAP1 PUSH2 0x19FE JUMP JUMPDEST PUSH2 0xE87 JUMP JUMPDEST PUSH1 0x40 MLOAD PUSH2 0x2A1 SWAP2 SWAP1 PUSH2 0x1D9B JUMP JUMPDEST PUSH1 0x40 MLOAD DUP1 SWAP2 SUB SWAP1 RETURN JUMPDEST PUSH2 0x2C4 PUSH1 0x4 DUP1 CALLDATASIZE SUB DUP2 ADD SWAP1 PUSH2 0x2BF SWAP2 SWAP1 PUSH2 0x19FE JUMP JUMPDEST PUSH2 0xF43 JUMP JUMPDEST STOP JUMPDEST PUSH2 0x2E0 PUSH1 0x4 DUP1 CALLDATASIZE SUB DUP2 ADD SWAP1 PUSH2 0x2DB SWAP2 SWAP1 PUSH2 0x1A51 JUMP JUMPDEST PUSH2 0xFD7 JUMP JUMPDEST STOP JUMPDEST PUSH2 0x2FC PUSH1 0x4 DUP1 CALLDATASIZE SUB DUP2 ADD SWAP1 PUSH2 0x2F7 SWAP2 SWAP1 PUSH2 0x1807 JUMP JUMPDEST PUSH2 0x1071 JUMP JUMPDEST PUSH1 0x40 MLOAD PUSH2 0x309 SWAP2 SWAP1 PUSH2 0x1D9B JUMP JUMPDEST PUSH1 0x40 MLOAD DUP1 SWAP2 SUB SWAP1 RETURN JUMPDEST PUSH2 0x32C PUSH1 0x4 DUP1 CALLDATASIZE SUB DUP2 ADD SWAP1 PUSH2 0x327 SWAP2 SWAP1 PUSH2 0x1ACC JUMP JUMPDEST PUSH2 0x112B JUMP JUMPDEST STOP JUMPDEST PUSH2 0x348 PUSH1 0x4 DUP1 CALLDATASIZE SUB DUP2 ADD SWAP1 PUSH2 0x343 SWAP2 SWAP1 PUSH2 0x1B7F JUMP JUMPDEST PUSH2 0x11C5 JUMP JUMPDEST STOP JUMPDEST PUSH2 0x364 PUSH1 0x4 DUP1 CALLDATASIZE SUB DUP2 ADD SWAP1 PUSH2 0x35F SWAP2 SWAP1 PUSH2 0x1847 JUMP JUMPDEST PUSH2 0x136F JUMP JUMPDEST STOP JUMPDEST PUSH2 0x380 PUSH1 0x4 DUP1 CALLDATASIZE SUB DUP2 ADD SWAP1 PUSH2 0x37B SWAP2 SWAP1 PUSH2 0x1ACC JUMP JUMPDEST PUSH2 0x1485 JUMP JUMPDEST STOP JUMPDEST PUSH1 0x0 DUP1 SLOAD SWAP1 PUSH2 0x100 EXP SWAP1 DIV PUSH20 0xFFFFFFFFFFFFFFFFFFFFFFFFFFFFFFFFFFFFFFFF AND PUSH20 0xFFFFFFFFFFFFFFFFFFFFFFFFFFFFFFFFFFFFFFFF AND PUSH3 0x3F489F DUP5 DUP5 DUP5 PUSH1 0x40 MLOAD DUP5 PUSH4 0xFFFFFFFF AND PUSH1 0xE0 SHL DUP2 MSTORE PUSH1 0x4 ADD PUSH2 0x3DE SWAP4 SWAP3 SWAP2 SWAP1 PUSH2 0x206E JUMP JUMPDEST PUSH1 0x0 PUSH1 0x40 MLOAD DUP1 DUP4 SUB DUP2 PUSH1 0x0 DUP8 DUP1 EXTCODESIZE ISZERO DUP1 ISZERO PUSH2 0x3F8 JUMPI PUSH1 0x0 DUP1 REVERT JUMPDEST POP GAS CALL ISZERO DUP1 ISZERO PUSH2 0x40C JUMPI RETURNDATASIZE PUSH1 0x0 DUP1 RETURNDATACOPY RETURNDATASIZE PUSH1 0x0 REVERT JUMPDEST POP POP POP POP POP POP POP JUMP JUMPDEST DUP4 PUSH1 0x3 PUSH1 0x0 DUP9 DUP2 MSTORE PUSH1 0x20 ADD SWAP1 DUP2 MSTORE PUSH1 0x20 ADD PUSH1 0x0 KECCAK256 PUSH1 0x0 DUP8 DUP2 MSTORE PUSH1 0x20 ADD SWAP1 DUP2 MSTORE PUSH1 0x20 ADD PUSH1 0x0 KECCAK256 PUSH1 0x2 ADD SWAP1 DUP1 MLOAD SWAP1 PUSH1 0x20 ADD SWAP1 PUSH2 0x450 SWAP3 SWAP2 SWAP1 PUSH2 0x151F JUMP JUMPDEST POP DUP3 PUSH1 0x3 PUSH1 0x0 DUP9 DUP2 MSTORE PUSH1 0x20 ADD SWAP1 DUP2 MSTORE PUSH1 0x20 ADD PUSH1 0x0 KECCAK256 PUSH1 0x0 DUP8 DUP2 MSTORE PUSH1 0x20 ADD SWAP1 DUP2 MSTORE PUSH1 0x20 ADD PUSH1 0x0 KECCAK256 PUSH1 0x3 ADD SWAP1 DUP1 MLOAD SWAP1 PUSH1 0x20 ADD SWAP1 PUSH2 0x48C SWAP3 SWAP2 SWAP1 PUSH2 0x151F JUMP JUMPDEST POP DUP2 PUSH1 0x3 PUSH1 0x0 DUP9 DUP2 MSTORE PUSH1 0x20 ADD SWAP1 DUP2 MSTORE PUSH1 0x20 ADD PUSH1 0x0 KECCAK256 PUSH1 0x0 DUP8 DUP2 MSTORE PUSH1 0x20 ADD SWAP1 DUP2 MSTORE PUSH1 0x20 ADD PUSH1 0x0 KECCAK256 PUSH1 0x4 ADD DUP2 SWAP1 SSTORE POP DUP1 PUSH1 0x3 PUSH1 0x0 DUP9 DUP2 MSTORE PUSH1 0x20 ADD SWAP1 DUP2 MSTORE PUSH1 0x20 ADD PUSH1 0x0 KECCAK256 PUSH1 0x0 DUP8 DUP2 MSTORE PUSH1 0x20 ADD SWAP1 DUP2 MSTORE PUSH1 0x20 ADD PUSH1 0x0 KECCAK256 PUSH1 0x7 ADD PUSH1 0x15 PUSH2 0x100 EXP DUP2 SLOAD DUP2 PUSH1 0xFF MUL NOT AND SWAP1 DUP4 PUSH1 0x5 DUP2 GT ISZERO PUSH2 0x503 JUMPI PUSH2 0x502 PUSH2 0x242A JUMP JUMPDEST JUMPDEST MUL OR SWAP1 SSTORE POP PUSH32 0xB9394E42612196AD38A0CA64AA7DA6530EADC007B8E67D6A649B19332E996451 DUP7 DUP7 DUP7 DUP7 DUP7 DUP7 PUSH1 0x40 MLOAD PUSH2 0x541 SWAP7 SWAP6 SWAP5 SWAP4 SWAP3 SWAP2 SWAP1 PUSH2 0x1F55 JUMP JUMPDEST PUSH1 0x40 MLOAD DUP1 SWAP2 SUB SWAP1 LOG1 POP POP POP POP POP POP JUMP JUMPDEST DUP3 DUP3 DUP3 PUSH1 0x3 PUSH1 0x0 DUP5 DUP2 MSTORE PUSH1 0x20 ADD SWAP1 DUP2 MSTORE PUSH1 0x20 ADD PUSH1 0x0 KECCAK256 PUSH1 0x0 DUP4 DUP2 MSTORE PUSH1 0x20 ADD SWAP1 DUP2 MSTORE PUSH1 0x20 ADD PUSH1 0x0 KECCAK256 PUSH1 0x6 ADD PUSH1 0x0 SWAP1 SLOAD SWAP1 PUSH2 0x100 EXP SWAP1 DIV PUSH20 0xFFFFFFFFFFFFFFFFFFFFFFFFFFFFFFFFFFFFFFFF AND PUSH20 0xFFFFFFFFFFFFFFFFFFFFFFFFFFFFFFFFFFFFFFFF AND DUP2 PUSH20 0xFFFFFFFFFFFFFFFFFFFFFFFFFFFFFFFFFFFFFFFF AND EQ PUSH2 0x609 JUMPI PUSH1 0x40 MLOAD PUSH32 0x8C379A000000000000000000000000000000000000000000000000000000000 DUP2 MSTORE PUSH1 0x4 ADD PUSH2 0x600 SWAP1 PUSH2 0x1E3D JUMP JUMPDEST PUSH1 0x40 MLOAD DUP1 SWAP2 SUB SWAP1 REVERT JUMPDEST PUSH1 0x2 PUSH1 0x3 PUSH1 0x0 DUP9 DUP2 MSTORE PUSH1 0x20 ADD SWAP1 DUP2 MSTORE PUSH1 0x20 ADD PUSH1 0x0 KECCAK256 PUSH1 0x0 DUP8 DUP2 MSTORE PUSH1 0x20 ADD SWAP1 DUP2 MSTORE PUSH1 0x20 ADD PUSH1 0x0 KECCAK256 PUSH1 0x7 ADD PUSH1 0x15 PUSH2 0x100 EXP DUP2 SLOAD DUP2 PUSH1 0xFF MUL NOT AND SWAP1 DUP4 PUSH1 0x5 DUP2 GT ISZERO PUSH2 0x654 JUMPI PUSH2 0x653 PUSH2 0x242A JUMP JUMPDEST JUMPDEST MUL OR SWAP1 SSTORE POP POP POP POP POP POP POP JUMP JUMPDEST PUSH1 0x3 PUSH1 0x20 MSTORE DUP2 PUSH1 0x0 MSTORE PUSH1 0x40 PUSH1 0x0 KECCAK256 PUSH1 0x20 MSTORE DUP1 PUSH1 0x0 MSTORE PUSH1 0x40 PUSH1 0x0 KECCAK256 PUSH1 0x0 SWAP2 POP SWAP2 POP POP DUP1 PUSH1 0x0 ADD SLOAD SWAP1 DUP1 PUSH1 0x1 ADD SLOAD SWAP1 DUP1 PUSH1 0x2 ADD DUP1 SLOAD PUSH2 0x69D SWAP1 PUSH2 0x234F JUMP JUMPDEST DUP1 PUSH1 0x1F ADD PUSH1 0x20 DUP1 SWAP2 DIV MUL PUSH1 0x20 ADD PUSH1 0x40 MLOAD SWAP1 DUP2 ADD PUSH1 0x40 MSTORE DUP1 SWAP3 SWAP2 SWAP1 DUP2 DUP2 MSTORE PUSH1 0x20 ADD DUP3 DUP1 SLOAD PUSH2 0x6C9 SWAP1 PUSH2 0x234F JUMP JUMPDEST DUP1 ISZERO PUSH2 0x716 JUMPI DUP1 PUSH1 0x1F LT PUSH2 0x6EB JUMPI PUSH2 0x100 DUP1 DUP4 SLOAD DIV MUL DUP4 MSTORE SWAP2 PUSH1 0x20 ADD SWAP2 PUSH2 0x716 JUMP JUMPDEST DUP3 ADD SWAP2 SWAP1 PUSH1 0x0 MSTORE PUSH1 0x20 PUSH1 0x0 KECCAK256 SWAP1 JUMPDEST DUP2 SLOAD DUP2 MSTORE SWAP1 PUSH1 0x1 ADD SWAP1 PUSH1 0x20 ADD DUP1 DUP4 GT PUSH2 0x6F9 JUMPI DUP3 SWAP1 SUB PUSH1 0x1F AND DUP3 ADD SWAP2 JUMPDEST POP POP POP POP POP SWAP1 DUP1 PUSH1 0x3 ADD DUP1 SLOAD PUSH2 0x72B SWAP1 PUSH2 0x234F JUMP JUMPDEST DUP1 PUSH1 0x1F ADD PUSH1 0x20 DUP1 SWAP2 DIV MUL PUSH1 0x20 ADD PUSH1 0x40 MLOAD SWAP1 DUP2 ADD PUSH1 0x40 MSTORE DUP1 SWAP3 SWAP2 SWAP1 DUP2 DUP2 MSTORE PUSH1 0x20 ADD DUP3 DUP1 SLOAD PUSH2 0x757 SWAP1 PUSH2 0x234F JUMP JUMPDEST DUP1 ISZERO PUSH2 0x7A4 JUMPI DUP1 PUSH1 0x1F LT PUSH2 0x779 JUMPI PUSH2 0x100 DUP1 DUP4 SLOAD DIV MUL DUP4 MSTORE SWAP2 PUSH1 0x20 ADD SWAP2 PUSH2 0x7A4 JUMP JUMPDEST DUP3 ADD SWAP2 SWAP1 PUSH1 0x0 MSTORE PUSH1 0x20 PUSH1 0x0 KECCAK256 SWAP1 JUMPDEST DUP2 SLOAD DUP2 MSTORE SWAP1 PUSH1 0x1 ADD SWAP1 PUSH1 0x20 ADD DUP1 DUP4 GT PUSH2 0x787 JUMPI DUP3 SWAP1 SUB PUSH1 0x1F AND DUP3 ADD SWAP2 JUMPDEST POP POP POP POP POP SWAP1 DUP1 PUSH1 0x4 ADD SLOAD SWAP1 DUP1 PUSH1 0x5 ADD SLOAD SWAP1 DUP1 PUSH1 0x6 ADD PUSH1 0x0 SWAP1 SLOAD SWAP1 PUSH2 0x100 EXP SWAP1 DIV PUSH20 0xFFFFFFFFFFFFFFFFFFFFFFFFFFFFFFFFFFFFFFFF AND SWAP1 DUP1 PUSH1 0x7 ADD PUSH1 0x0 SWAP1 SLOAD SWAP1 PUSH2 0x100 EXP SWAP1 DIV PUSH20 0xFFFFFFFFFFFFFFFFFFFFFFFFFFFFFFFFFFFFFFFF AND SWAP1 DUP1 PUSH1 0x7 ADD PUSH1 0x14 SWAP1 SLOAD SWAP1 PUSH2 0x100 EXP SWAP1 DIV PUSH1 0xFF AND SWAP1 DUP1 PUSH1 0x7 ADD PUSH1 0x15 SWAP1 SLOAD SWAP1 PUSH2 0x100 EXP SWAP1 DIV PUSH1 0xFF AND SWAP1 POP DUP11 JUMP JUMPDEST DUP4 PUSH1 0x0 DUP2 MLOAD GT PUSH2 0x871 JUMPI PUSH1 0x40 MLOAD PUSH32 0x8C379A000000000000000000000000000000000000000000000000000000000 DUP2 MSTORE PUSH1 0x4 ADD PUSH2 0x868 SWAP1 PUSH2 0x1E1D JUMP JUMPDEST PUSH1 0x40 MLOAD DUP1 SWAP2 SUB SWAP1 REVERT JUMPDEST DUP4 PUSH1 0x0 DUP2 MLOAD GT PUSH2 0x8B6 JUMPI PUSH1 0x40 MLOAD PUSH32 0x8C379A000000000000000000000000000000000000000000000000000000000 DUP2 MSTORE PUSH1 0x4 ADD PUSH2 0x8AD SWAP1 PUSH2 0x1E1D JUMP JUMPDEST PUSH1 0x40 MLOAD DUP1 SWAP2 SUB SWAP1 REVERT JUMPDEST PUSH1 0x0 DUP5 GT PUSH2 0x8F9 JUMPI PUSH1 0x40 MLOAD PUSH32 0x8C379A000000000000000000000000000000000000000000000000000000000 DUP2 MSTORE PUSH1 0x4 ADD PUSH2 0x8F0 SWAP1 PUSH2 0x1DBD JUMP JUMPDEST PUSH1 0x40 MLOAD DUP1 SWAP2 SUB SWAP1 REVERT JUMPDEST PUSH1 0x0 PUSH1 0x3 PUSH1 0x0 DUP10 DUP2 MSTORE PUSH1 0x20 ADD SWAP1 DUP2 MSTORE PUSH1 0x20 ADD PUSH1 0x0 KECCAK256 PUSH1 0x0 PUSH1 0x2 SLOAD DUP2 MSTORE PUSH1 0x20 ADD SWAP1 DUP2 MSTORE PUSH1 0x20 ADD PUSH1 0x0 KECCAK256 SWAP1 POP DUP8 DUP2 PUSH1 0x0 ADD DUP2 SWAP1 SSTORE POP PUSH1 0x2 SLOAD DUP2 PUSH1 0x1 ADD DUP2 SWAP1 SSTORE POP DUP7 DUP2 PUSH1 0x2 ADD SWAP1 DUP1 MLOAD SWAP1 PUSH1 0x20 ADD SWAP1 PUSH2 0x94F SWAP3 SWAP2 SWAP1 PUSH2 0x151F JUMP JUMPDEST POP DUP6 DUP2 PUSH1 0x3 ADD SWAP1 DUP1 MLOAD SWAP1 PUSH1 0x20 ADD SWAP1 PUSH2 0x968 SWAP3 SWAP2 SWAP1 PUSH2 0x151F JUMP JUMPDEST POP DUP5 DUP2 PUSH1 0x4 ADD DUP2 SWAP1 SSTORE POP PUSH1 0x0 DUP2 PUSH1 0x5 ADD DUP2 SWAP1 SSTORE POP DUP4 DUP2 PUSH1 0x6 ADD PUSH1 0x0 PUSH2 0x100 EXP DUP2 SLOAD DUP2 PUSH20 0xFFFFFFFFFFFFFFFFFFFFFFFFFFFFFFFFFFFFFFFF MUL NOT AND SWAP1 DUP4 PUSH20 0xFFFFFFFFFFFFFFFFFFFFFFFFFFFFFFFFFFFFFFFF AND MUL OR SWAP1 SSTORE POP PUSH1 0x0 DUP2 PUSH1 0x7 ADD PUSH1 0x0 PUSH2 0x100 EXP DUP2 SLOAD DUP2 PUSH20 0xFFFFFFFFFFFFFFFFFFFFFFFFFFFFFFFFFFFFFFFF MUL NOT AND SWAP1 DUP4 PUSH20 0xFFFFFFFFFFFFFFFFFFFFFFFFFFFFFFFFFFFFFFFF AND MUL OR SWAP1 SSTORE POP PUSH1 0x1 DUP2 PUSH1 0x7 ADD PUSH1 0x14 PUSH2 0x100 EXP DUP2 SLOAD DUP2 PUSH1 0xFF MUL NOT AND SWAP1 DUP4 ISZERO ISZERO MUL OR SWAP1 SSTORE POP PUSH1 0x0 DUP2 PUSH1 0x7 ADD PUSH1 0x15 PUSH2 0x100 EXP DUP2 SLOAD DUP2 PUSH1 0xFF MUL NOT AND SWAP1 DUP4 PUSH1 0x5 DUP2 GT ISZERO PUSH2 0xA48 JUMPI PUSH2 0xA47 PUSH2 0x242A JUMP JUMPDEST JUMPDEST MUL OR SWAP1 SSTORE POP PUSH32 0xE8BC23DADB6CAC9147246AF11CC9AFE29B7F5F524A2E539DA4486DA2196A78F1 DUP9 PUSH1 0x2 SLOAD DUP10 DUP10 DUP10 PUSH1 0x40 MLOAD PUSH2 0xA86 SWAP6 SWAP5 SWAP4 SWAP3 SWAP2 SWAP1 PUSH2 0x1EF4 JUMP JUMPDEST PUSH1 0x40 MLOAD DUP1 SWAP2 SUB SWAP1 LOG1 PUSH1 0x1 PUSH1 0x0 DUP2 SLOAD DUP1 SWAP3 SWAP2 SWAP1 PUSH2 0xAA1 SWAP1 PUSH2 0x23B2 JUMP JUMPDEST SWAP2 SWAP1 POP SSTORE POP PUSH1 0x2 PUSH1 0x0 DUP2 SLOAD DUP1 SWAP3 SWAP2 SWAP1 PUSH2 0xAB9 SWAP1 PUSH2 0x23B2 JUMP JUMPDEST SWAP2 SWAP1 POP SSTORE POP POP POP POP POP POP POP POP POP JUMP JUMPDEST PUSH1 0x1 SLOAD DUP2 JUMP JUMPDEST PUSH1 0x2 SLOAD DUP2 JUMP JUMPDEST DUP3 DUP3 DUP3 PUSH1 0x3 PUSH1 0x0 DUP5 DUP2 MSTORE PUSH1 0x20 ADD SWAP1 DUP2 MSTORE PUSH1 0x20 ADD PUSH1 0x0 KECCAK256 PUSH1 0x0 DUP4 DUP2 MSTORE PUSH1 0x20 ADD SWAP1 DUP2 MSTORE PUSH1 0x20 ADD PUSH1 0x0 KECCAK256 PUSH1 0x6 ADD PUSH1 0x0 SWAP1 SLOAD SWAP1 PUSH2 0x100 EXP SWAP1 DIV PUSH20 0xFFFFFFFFFFFFFFFFFFFFFFFFFFFFFFFFFFFFFFFF AND PUSH20 0xFFFFFFFFFFFFFFFFFFFFFFFFFFFFFFFFFFFFFFFF AND DUP2 PUSH20 0xFFFFFFFFFFFFFFFFFFFFFFFFFFFFFFFFFFFFFFFF AND EQ PUSH2 0xB8C JUMPI PUSH1 0x40 MLOAD PUSH32 0x8C379A000000000000000000000000000000000000000000000000000000000 DUP2 MSTORE PUSH1 0x4 ADD PUSH2 0xB83 SWAP1 PUSH2 0x1E3D JUMP JUMPDEST PUSH1 0x40 MLOAD DUP1 SWAP2 SUB SWAP1 REVERT JUMPDEST PUSH1 0x0 PUSH1 0x3 PUSH1 0x0 DUP9 DUP2 MSTORE PUSH1 0x20 ADD SWAP1 DUP2 MSTORE PUSH1 0x20 ADD PUSH1 0x0 KECCAK256 PUSH1 0x0 DUP8 DUP2 MSTORE PUSH1 0x20 ADD SWAP1 DUP2 MSTORE PUSH1 0x20 ADD PUSH1 0x0 KECCAK256 PUSH1 0x7 ADD PUSH1 0x15 PUSH2 0x100 EXP DUP2 SLOAD DUP2 PUSH1 0xFF MUL NOT AND SWAP1 DUP4 PUSH1 0x5 DUP2 GT ISZERO PUSH2 0xBD7 JUMPI PUSH2 0xBD6 PUSH2 0x242A JUMP JUMPDEST JUMPDEST MUL OR SWAP1 SSTORE POP PUSH1 0x0 PUSH1 0x3 PUSH1 0x0 DUP9 DUP2 MSTORE PUSH1 0x20 ADD SWAP1 DUP2 MSTORE PUSH1 0x20 ADD PUSH1 0x0 KECCAK256 PUSH1 0x0 DUP8 DUP2 MSTORE PUSH1 0x20 ADD SWAP1 DUP2 MSTORE PUSH1 0x20 ADD PUSH1 0x0 KECCAK256 PUSH1 0x7 ADD PUSH1 0x0 PUSH2 0x100 EXP DUP2 SLOAD DUP2 PUSH20 0xFFFFFFFFFFFFFFFFFFFFFFFFFFFFFFFFFFFFFFFF MUL NOT AND SWAP1 DUP4 PUSH20 0xFFFFFFFFFFFFFFFFFFFFFFFFFFFFFFFFFFFFFFFF AND MUL OR SWAP1 SSTORE POP POP POP POP POP POP POP JUMP JUMPDEST PUSH1 0x0 PUSH1 0x3 PUSH1 0x0 DUP5 DUP2 MSTORE PUSH1 0x20 ADD SWAP1 DUP2 MSTORE PUSH1 0x20 ADD PUSH1 0x0 KECCAK256 PUSH1 0x0 DUP4 DUP2 MSTORE PUSH1 0x20 ADD SWAP1 DUP2 MSTORE PUSH1 0x20 ADD PUSH1 0x0 KECCAK256 PUSH1 0x7 ADD PUSH1 0x14 PUSH2 0x100 EXP DUP2 SLOAD DUP2 PUSH1 0xFF MUL NOT AND SWAP1 DUP4 ISZERO ISZERO MUL OR SWAP1 SSTORE POP PUSH1 0x1 PUSH1 0x0 DUP2 SLOAD DUP1 SWAP3 SWAP2 SWAP1 PUSH2 0xC9E SWAP1 PUSH2 0x2325 JUMP JUMPDEST SWAP2 SWAP1 POP SSTORE POP PUSH32 0x4579B03CE378BFED31EE6443865880DAB0B281EFAC453DEB39233352189863F DUP3 DUP3 PUSH1 0x40 MLOAD PUSH2 0xCD4 SWAP3 SWAP2 SWAP1 PUSH2 0x1E78 JUMP JUMPDEST PUSH1 0x40 MLOAD DUP1 SWAP2 SUB SWAP1 LOG1 POP POP JUMP JUMPDEST PUSH1 0x0 DUP1 SLOAD SWAP1 PUSH2 0x100 EXP SWAP1 DIV PUSH20 0xFFFFFFFFFFFFFFFFFFFFFFFFFFFFFFFFFFFFFFFF AND PUSH20 0xFFFFFFFFFFFFFFFFFFFFFFFFFFFFFFFFFFFFFFFF AND PUSH4 0x63EF8A50 DUP6 DUP6 DUP6 DUP6 PUSH1 0x40 MLOAD DUP6 PUSH4 0xFFFFFFFF AND PUSH1 0xE0 SHL DUP2 MSTORE PUSH1 0x4 ADD PUSH2 0xD3F SWAP5 SWAP4 SWAP3 SWAP2 SWAP1 PUSH2 0x1EA1 JUMP JUMPDEST PUSH1 0x0 PUSH1 0x40 MLOAD DUP1 DUP4 SUB DUP2 PUSH1 0x0 DUP8 DUP1 EXTCODESIZE ISZERO DUP1 ISZERO PUSH2 0xD59 JUMPI PUSH1 0x0 DUP1 REVERT JUMPDEST POP GAS CALL ISZERO DUP1 ISZERO PUSH2 0xD6D JUMPI RETURNDATASIZE PUSH1 0x0 DUP1 RETURNDATACOPY RETURNDATASIZE PUSH1 0x0 REVERT JUMPDEST POP POP POP POP POP POP POP POP JUMP JUMPDEST DUP3 DUP3 DUP3 PUSH1 0x3 PUSH1 0x0 DUP5 DUP2 MSTORE PUSH1 0x20 ADD SWAP1 DUP2 MSTORE PUSH1 0x20 ADD PUSH1 0x0 KECCAK256 PUSH1 0x0 DUP4 DUP2 MSTORE PUSH1 0x20 ADD SWAP1 DUP2 MSTORE PUSH1 0x20 ADD PUSH1 0x0 KECCAK256 PUSH1 0x7 ADD PUSH1 0x0 SWAP1 SLOAD SWAP1 PUSH2 0x100 EXP SWAP1 DIV PUSH20 0xFFFFFFFFFFFFFFFFFFFFFFFFFFFFFFFFFFFFFFFF AND PUSH20 0xFFFFFFFFFFFFFFFFFFFFFFFFFFFFFFFFFFFFFFFF AND DUP2 PUSH20 0xFFFFFFFFFFFFFFFFFFFFFFFFFFFFFFFFFFFFFFFF AND EQ PUSH2 0xE2F JUMPI PUSH1 0x40 MLOAD PUSH32 0x8C379A000000000000000000000000000000000000000000000000000000000 DUP2 MSTORE PUSH1 0x4 ADD PUSH2 0xE26 SWAP1 PUSH2 0x1DDD JUMP JUMPDEST PUSH1 0x40 MLOAD DUP1 SWAP2 SUB SWAP1 REVERT JUMPDEST PUSH1 0x4 PUSH1 0x3 PUSH1 0x0 DUP9 DUP2 MSTORE PUSH1 0x20 ADD SWAP1 DUP2 MSTORE PUSH1 0x20 ADD PUSH1 0x0 KECCAK256 PUSH1 0x0 DUP8 DUP2 MSTORE PUSH1 0x20 ADD SWAP1 DUP2 MSTORE PUSH1 0x20 ADD PUSH1 0x0 KECCAK256 PUSH1 0x7 ADD PUSH1 0x15 PUSH2 0x100 EXP DUP2 SLOAD DUP2 PUSH1 0xFF MUL NOT AND SWAP1 DUP4 PUSH1 0x5 DUP2 GT ISZERO PUSH2 0xE7A JUMPI PUSH2 0xE79 PUSH2 0x242A JUMP JUMPDEST JUMPDEST MUL OR SWAP1 SSTORE POP POP POP POP POP POP POP JUMP JUMPDEST PUSH1 0x60 PUSH1 0x0 DUP1 SLOAD SWAP1 PUSH2 0x100 EXP SWAP1 DIV PUSH20 0xFFFFFFFFFFFFFFFFFFFFFFFFFFFFFFFFFFFFFFFF AND PUSH20 0xFFFFFFFFFFFFFFFFFFFFFFFFFFFFFFFFFFFFFFFF AND PUSH4 0xACE731BD DUP6 DUP6 DUP6 PUSH1 0x40 MLOAD DUP5 PUSH4 0xFFFFFFFF AND PUSH1 0xE0 SHL DUP2 MSTORE PUSH1 0x4 ADD PUSH2 0xEE6 SWAP4 SWAP3 SWAP2 SWAP1 PUSH2 0x206E JUMP JUMPDEST PUSH1 0x0 PUSH1 0x40 MLOAD DUP1 DUP4 SUB DUP2 DUP7 DUP1 EXTCODESIZE ISZERO DUP1 ISZERO PUSH2 0xEFE JUMPI PUSH1 0x0 DUP1 REVERT JUMPDEST POP GAS STATICCALL ISZERO DUP1 ISZERO PUSH2 0xF12 JUMPI RETURNDATASIZE PUSH1 0x0 DUP1 RETURNDATACOPY RETURNDATASIZE PUSH1 0x0 REVERT JUMPDEST POP POP POP POP PUSH1 0x40 MLOAD RETURNDATASIZE PUSH1 0x0 DUP3 RETURNDATACOPY RETURNDATASIZE PUSH1 0x1F NOT PUSH1 0x1F DUP3 ADD AND DUP3 ADD DUP1 PUSH1 0x40 MSTORE POP DUP2 ADD SWAP1 PUSH2 0xF3B SWAP2 SWAP1 PUSH2 0x170B JUMP JUMPDEST POP SWAP4 SWAP3 POP POP POP JUMP JUMPDEST PUSH1 0x0 DUP1 SLOAD SWAP1 PUSH2 0x100 EXP SWAP1 DIV PUSH20 0xFFFFFFFFFFFFFFFFFFFFFFFFFFFFFFFFFFFFFFFF AND PUSH20 0xFFFFFFFFFFFFFFFFFFFFFFFFFFFFFFFFFFFFFFFF AND PUSH4 0xB9B6C5D4 DUP5 DUP5 DUP5 PUSH1 0x40 MLOAD DUP5 PUSH4 0xFFFFFFFF AND PUSH1 0xE0 SHL DUP2 MSTORE PUSH1 0x4 ADD PUSH2 0xFA0 SWAP4 SWAP3 SWAP2 SWAP1 PUSH2 0x206E JUMP JUMPDEST PUSH1 0x0 PUSH1 0x40 MLOAD DUP1 DUP4 SUB DUP2 PUSH1 0x0 DUP8 DUP1 EXTCODESIZE ISZERO DUP1 ISZERO PUSH2 0xFBA JUMPI PUSH1 0x0 DUP1 REVERT JUMPDEST POP GAS CALL ISZERO DUP1 ISZERO PUSH2 0xFCE JUMPI RETURNDATASIZE PUSH1 0x0 DUP1 RETURNDATACOPY RETURNDATASIZE PUSH1 0x0 REVERT JUMPDEST POP POP POP POP POP POP POP JUMP JUMPDEST PUSH1 0x0 DUP1 SLOAD SWAP1 PUSH2 0x100 EXP SWAP1 DIV PUSH20 0xFFFFFFFFFFFFFFFFFFFFFFFFFFFFFFFFFFFFFFFF AND PUSH20 0xFFFFFFFFFFFFFFFFFFFFFFFFFFFFFFFFFFFFFFFF AND PUSH4 0xC171BDF7 DUP7 DUP7 DUP7 DUP7 DUP7 PUSH1 0x40 MLOAD DUP7 PUSH4 0xFFFFFFFF AND PUSH1 0xE0 SHL DUP2 MSTORE PUSH1 0x4 ADD PUSH2 0x1038 SWAP6 SWAP5 SWAP4 SWAP3 SWAP2 SWAP1 PUSH2 0x20A5 JUMP JUMPDEST PUSH1 0x0 PUSH1 0x40 MLOAD DUP1 DUP4 SUB DUP2 PUSH1 0x0 DUP8 DUP1 EXTCODESIZE ISZERO DUP1 ISZERO PUSH2 0x1052 JUMPI PUSH1 0x0 DUP1 REVERT JUMPDEST POP GAS CALL ISZERO DUP1 ISZERO PUSH2 0x1066 JUMPI RETURNDATASIZE PUSH1 0x0 DUP1 RETURNDATACOPY RETURNDATASIZE PUSH1 0x0 REVERT JUMPDEST POP POP POP POP POP POP POP POP POP JUMP JUMPDEST PUSH1 0x60 PUSH1 0x3 PUSH1 0x0 DUP5 DUP2 MSTORE PUSH1 0x20 ADD SWAP1 DUP2 MSTORE PUSH1 0x20 ADD PUSH1 0x0 KECCAK256 PUSH1 0x0 DUP4 DUP2 MSTORE PUSH1 0x20 ADD SWAP1 DUP2 MSTORE PUSH1 0x20 ADD PUSH1 0x0 KECCAK256 PUSH1 0x2 ADD DUP1 SLOAD PUSH2 0x10A5 SWAP1 PUSH2 0x234F JUMP JUMPDEST DUP1 PUSH1 0x1F ADD PUSH1 0x20 DUP1 SWAP2 DIV MUL PUSH1 0x20 ADD PUSH1 0x40 MLOAD SWAP1 DUP2 ADD PUSH1 0x40 MSTORE DUP1 SWAP3 SWAP2 SWAP1 DUP2 DUP2 MSTORE PUSH1 0x20 ADD DUP3 DUP1 SLOAD PUSH2 0x10D1 SWAP1 PUSH2 0x234F JUMP JUMPDEST DUP1 ISZERO PUSH2 0x111E JUMPI DUP1 PUSH1 0x1F LT PUSH2 0x10F3 JUMPI PUSH2 0x100 DUP1 DUP4 SLOAD DIV MUL DUP4 MSTORE SWAP2 PUSH1 0x20 ADD SWAP2 PUSH2 0x111E JUMP JUMPDEST DUP3 ADD SWAP2 SWAP1 PUSH1 0x0 MSTORE PUSH1 0x20 PUSH1 0x0 KECCAK256 SWAP1 JUMPDEST DUP2 SLOAD DUP2 MSTORE SWAP1 PUSH1 0x1 ADD SWAP1 PUSH1 0x20 ADD DUP1 DUP4 GT PUSH2 0x1101 JUMPI DUP3 SWAP1 SUB PUSH1 0x1F AND DUP3 ADD SWAP2 JUMPDEST POP POP POP POP POP SWAP1 POP SWAP3 SWAP2 POP POP JUMP JUMPDEST PUSH1 0x0 DUP1 SLOAD SWAP1 PUSH2 0x100 EXP SWAP1 DIV PUSH20 0xFFFFFFFFFFFFFFFFFFFFFFFFFFFFFFFFFFFFFFFF AND PUSH20 0xFFFFFFFFFFFFFFFFFFFFFFFFFFFFFFFFFFFFFFFF AND PUSH4 0xD1E992A7 DUP7 DUP7 DUP7 DUP7 DUP7 PUSH1 0x40 MLOAD DUP7 PUSH4 0xFFFFFFFF AND PUSH1 0xE0 SHL DUP2 MSTORE PUSH1 0x4 ADD PUSH2 0x118C SWAP6 SWAP5 SWAP4 SWAP3 SWAP2 SWAP1 PUSH2 0x20F8 JUMP JUMPDEST PUSH1 0x0 PUSH1 0x40 MLOAD DUP1 DUP4 SUB DUP2 PUSH1 0x0 DUP8 DUP1 EXTCODESIZE ISZERO DUP1 ISZERO PUSH2 0x11A6 JUMPI PUSH1 0x0 DUP1 REVERT JUMPDEST POP GAS CALL ISZERO DUP1 ISZERO PUSH2 0x11BA JUMPI RETURNDATASIZE PUSH1 0x0 DUP1 RETURNDATACOPY RETURNDATASIZE PUSH1 0x0 REVERT JUMPDEST POP POP POP POP POP POP POP POP POP JUMP JUMPDEST DUP7 DUP7 DUP4 PUSH1 0x3 PUSH1 0x0 DUP5 DUP2 MSTORE PUSH1 0x20 ADD SWAP1 DUP2 MSTORE PUSH1 0x20 ADD PUSH1 0x0 KECCAK256 PUSH1 0x0 DUP4 DUP2 MSTORE PUSH1 0x20 ADD SWAP1 DUP2 MSTORE PUSH1 0x20 ADD PUSH1 0x0 KECCAK256 PUSH1 0x6 ADD PUSH1 0x0 SWAP1 SLOAD SWAP1 PUSH2 0x100 EXP SWAP1 DIV PUSH20 0xFFFFFFFFFFFFFFFFFFFFFFFFFFFFFFFFFFFFFFFF AND PUSH20 0xFFFFFFFFFFFFFFFFFFFFFFFFFFFFFFFFFFFFFFFF AND DUP2 PUSH20 0xFFFFFFFFFFFFFFFFFFFFFFFFFFFFFFFFFFFFFFFF AND EQ PUSH2 0x127D JUMPI PUSH1 0x40 MLOAD PUSH32 0x8C379A000000000000000000000000000000000000000000000000000000000 DUP2 MSTORE PUSH1 0x4 ADD PUSH2 0x1274 SWAP1 PUSH2 0x1E3D JUMP JUMPDEST PUSH1 0x40 MLOAD DUP1 SWAP2 SUB SWAP1 REVERT JUMPDEST PUSH1 0x0 PUSH1 0x3 PUSH1 0x0 DUP13 DUP2 MSTORE PUSH1 0x20 ADD SWAP1 DUP2 MSTORE PUSH1 0x20 ADD PUSH1 0x0 KECCAK256 PUSH1 0x0 DUP12 DUP2 MSTORE PUSH1 0x20 ADD SWAP1 DUP2 MSTORE PUSH1 0x20 ADD PUSH1 0x0 KECCAK256 PUSH1 0x7 ADD PUSH1 0x0 SWAP1 SLOAD SWAP1 PUSH2 0x100 EXP SWAP1 DIV PUSH20 0xFFFFFFFFFFFFFFFFFFFFFFFFFFFFFFFFFFFFFFFF AND SWAP1 POP PUSH1 0x0 DUP1 SLOAD SWAP1 PUSH2 0x100 EXP SWAP1 DIV PUSH20 0xFFFFFFFFFFFFFFFFFFFFFFFFFFFFFFFFFFFFFFFF AND PUSH20 0xFFFFFFFFFFFFFFFFFFFFFFFFFFFFFFFFFFFFFFFF AND PUSH4 0xE62FAC27 DUP13 DUP13 DUP13 DUP13 DUP13 DUP13 DUP9 DUP14 PUSH1 0x40 MLOAD DUP10 PUSH4 0xFFFFFFFF AND PUSH1 0xE0 SHL DUP2 MSTORE PUSH1 0x4 ADD PUSH2 0x1330 SWAP9 SWAP8 SWAP7 SWAP6 SWAP5 SWAP4 SWAP3 SWAP2 SWAP1 PUSH2 0x2159 JUMP JUMPDEST PUSH1 0x0 PUSH1 0x40 MLOAD DUP1 DUP4 SUB DUP2 PUSH1 0x0 DUP8 DUP1 EXTCODESIZE ISZERO DUP1 ISZERO PUSH2 0x134A JUMPI PUSH1 0x0 DUP1 REVERT JUMPDEST POP GAS CALL ISZERO DUP1 ISZERO PUSH2 0x135E JUMPI RETURNDATASIZE PUSH1 0x0 DUP1 RETURNDATACOPY RETURNDATASIZE PUSH1 0x0 REVERT JUMPDEST POP POP POP POP POP POP POP POP POP POP POP POP POP POP POP JUMP JUMPDEST PUSH1 0x0 PUSH1 0x3 PUSH1 0x0 DUP6 DUP2 MSTORE PUSH1 0x20 ADD SWAP1 DUP2 MSTORE PUSH1 0x20 ADD PUSH1 0x0 KECCAK256 PUSH1 0x0 DUP5 DUP2 MSTORE PUSH1 0x20 ADD SWAP1 DUP2 MSTORE PUSH1 0x20 ADD PUSH1 0x0 KECCAK256 SWAP1 POP PUSH1 0x0 PUSH1 0x5 DUP2 GT ISZERO PUSH2 0x13AB JUMPI PUSH2 0x13AA PUSH2 0x242A JUMP JUMPDEST JUMPDEST DUP2 PUSH1 0x7 ADD PUSH1 0x15 SWAP1 SLOAD SWAP1 PUSH2 0x100 EXP SWAP1 DIV PUSH1 0xFF AND PUSH1 0x5 DUP2 GT ISZERO PUSH2 0x13CF JUMPI PUSH2 0x13CE PUSH2 0x242A JUMP JUMPDEST JUMPDEST EQ PUSH2 0x140F JUMPI PUSH1 0x40 MLOAD PUSH32 0x8C379A000000000000000000000000000000000000000000000000000000000 DUP2 MSTORE PUSH1 0x4 ADD PUSH2 0x1406 SWAP1 PUSH2 0x1DFD JUMP JUMPDEST PUSH1 0x40 MLOAD DUP1 SWAP2 SUB SWAP1 REVERT JUMPDEST PUSH1 0x1 DUP2 PUSH1 0x7 ADD PUSH1 0x15 PUSH2 0x100 EXP DUP2 SLOAD DUP2 PUSH1 0xFF MUL NOT AND SWAP1 DUP4 PUSH1 0x5 DUP2 GT ISZERO PUSH2 0x1437 JUMPI PUSH2 0x1436 PUSH2 0x242A JUMP JUMPDEST JUMPDEST MUL OR SWAP1 SSTORE POP DUP2 DUP2 PUSH1 0x7 ADD PUSH1 0x0 PUSH2 0x100 EXP DUP2 SLOAD DUP2 PUSH20 0xFFFFFFFFFFFFFFFFFFFFFFFFFFFFFFFFFFFFFFFF MUL NOT AND SWAP1 DUP4 PUSH20 0xFFFFFFFFFFFFFFFFFFFFFFFFFFFFFFFFFFFFFFFF AND MUL OR SWAP1 SSTORE POP POP POP POP POP JUMP JUMPDEST PUSH1 0x0 DUP1 SLOAD SWAP1 PUSH2 0x100 EXP SWAP1 DIV PUSH20 0xFFFFFFFFFFFFFFFFFFFFFFFFFFFFFFFFFFFFFFFF AND PUSH20 0xFFFFFFFFFFFFFFFFFFFFFFFFFFFFFFFFFFFFFFFF AND PUSH4 0xFD23C4BB DUP7 DUP7 DUP7 DUP7 DUP7 PUSH1 0x40 MLOAD DUP7 PUSH4 0xFFFFFFFF AND PUSH1 0xE0 SHL DUP2 MSTORE PUSH1 0x4 ADD PUSH2 0x14E6 SWAP6 SWAP5 SWAP4 SWAP3 SWAP2 SWAP1 PUSH2 0x20F8 JUMP JUMPDEST PUSH1 0x0 PUSH1 0x40 MLOAD DUP1 DUP4 SUB DUP2 PUSH1 0x0 DUP8 DUP1 EXTCODESIZE ISZERO DUP1 ISZERO PUSH2 0x1500 JUMPI PUSH1 0x0 DUP1 REVERT JUMPDEST POP GAS CALL ISZERO DUP1 ISZERO PUSH2 0x1514 JUMPI RETURNDATASIZE PUSH1 0x0 DUP1 RETURNDATACOPY RETURNDATASIZE PUSH1 0x0 REVERT JUMPDEST POP POP POP POP POP POP POP POP POP JUMP JUMPDEST DUP3 DUP1 SLOAD PUSH2 0x152B SWAP1 PUSH2 0x234F JUMP JUMPDEST SWAP1 PUSH1 0x0 MSTORE PUSH1 0x20 PUSH1 0x0 KECCAK256 SWAP1 PUSH1 0x1F ADD PUSH1 0x20 SWAP1 DIV DUP2 ADD SWAP3 DUP3 PUSH2 0x154D JUMPI PUSH1 0x0 DUP6 SSTORE PUSH2 0x1594 JUMP JUMPDEST DUP3 PUSH1 0x1F LT PUSH2 0x1566 JUMPI DUP1 MLOAD PUSH1 0xFF NOT AND DUP4 DUP1 ADD OR DUP6 SSTORE PUSH2 0x1594 JUMP JUMPDEST DUP3 DUP1 ADD PUSH1 0x1 ADD DUP6 SSTORE DUP3 ISZERO PUSH2 0x1594 JUMPI SWAP2 DUP3 ADD JUMPDEST DUP3 DUP2 GT ISZERO PUSH2 0x1593 JUMPI DUP3 MLOAD DUP3 SSTORE SWAP2 PUSH1 0x20 ADD SWAP2 SWAP1 PUSH1 0x1 ADD SWAP1 PUSH2 0x1578 JUMP JUMPDEST JUMPDEST POP SWAP1 POP PUSH2 0x15A1 SWAP2 SWAP1 PUSH2 0x15A5 JUMP JUMPDEST POP SWAP1 JUMP JUMPDEST JUMPDEST DUP1 DUP3 GT ISZERO PUSH2 0x15BE JUMPI PUSH1 0x0 DUP2 PUSH1 0x0 SWAP1 SSTORE POP PUSH1 0x1 ADD PUSH2 0x15A6 JUMP JUMPDEST POP SWAP1 JUMP JUMPDEST PUSH1 0x0 PUSH2 0x15D5 PUSH2 0x15D0 DUP5 PUSH2 0x220A JUMP JUMPDEST PUSH2 0x21E5 JUMP JUMPDEST SWAP1 POP DUP3 DUP2 MSTORE PUSH1 0x20 DUP2 ADD DUP5 DUP5 DUP5 ADD GT ISZERO PUSH2 0x15F1 JUMPI PUSH2 0x15F0 PUSH2 0x24BC JUMP JUMPDEST JUMPDEST PUSH2 0x15FC DUP5 DUP3 DUP6 PUSH2 0x22E3 JUMP JUMPDEST POP SWAP4 SWAP3 POP POP POP JUMP JUMPDEST PUSH1 0x0 PUSH2 0x1617 PUSH2 0x1612 DUP5 PUSH2 0x220A JUMP JUMPDEST PUSH2 0x21E5 JUMP JUMPDEST SWAP1 POP DUP3 DUP2 MSTORE PUSH1 0x20 DUP2 ADD DUP5 DUP5 DUP5 ADD GT ISZERO PUSH2 0x1633 JUMPI PUSH2 0x1632 PUSH2 0x24BC JUMP JUMPDEST JUMPDEST PUSH2 0x163E DUP5 DUP3 DUP6 PUSH2 0x22F2 JUMP JUMPDEST POP SWAP4 SWAP3 POP POP POP JUMP JUMPDEST PUSH1 0x0 DUP2 CALLDATALOAD SWAP1 POP PUSH2 0x1655 DUP2 PUSH2 0x26A1 JUMP JUMPDEST SWAP3 SWAP2 POP POP JUMP JUMPDEST PUSH1 0x0 DUP2 CALLDATALOAD SWAP1 POP PUSH2 0x166A DUP2 PUSH2 0x26B8 JUMP JUMPDEST SWAP3 SWAP2 POP POP JUMP JUMPDEST PUSH1 0x0 DUP2 CALLDATALOAD SWAP1 POP PUSH2 0x167F DUP2 PUSH2 0x26CF JUMP JUMPDEST SWAP3 SWAP2 POP POP JUMP JUMPDEST PUSH1 0x0 DUP3 PUSH1 0x1F DUP4 ADD SLT PUSH2 0x169A JUMPI PUSH2 0x1699 PUSH2 0x24B7 JUMP JUMPDEST JUMPDEST DUP2 CALLDATALOAD PUSH2 0x16AA DUP5 DUP3 PUSH1 0x20 DUP7 ADD PUSH2 0x15C2 JUMP JUMPDEST SWAP2 POP POP SWAP3 SWAP2 POP POP JUMP JUMPDEST PUSH1 0x0 DUP3 PUSH1 0x1F DUP4 ADD SLT PUSH2 0x16C8 JUMPI PUSH2 0x16C7 PUSH2 0x24B7 JUMP JUMPDEST JUMPDEST DUP2 MLOAD PUSH2 0x16D8 DUP5 DUP3 PUSH1 0x20 DUP7 ADD PUSH2 0x1604 JUMP JUMPDEST SWAP2 POP POP SWAP3 SWAP2 POP POP JUMP JUMPDEST PUSH1 0x0 DUP2 CALLDATALOAD SWAP1 POP PUSH2 0x16F0 DUP2 PUSH2 0x26DF JUMP JUMPDEST SWAP3 SWAP2 POP POP JUMP JUMPDEST PUSH1 0x0 DUP2 CALLDATALOAD SWAP1 POP PUSH2 0x1705 DUP2 PUSH2 0x26F6 JUMP JUMPDEST SWAP3 SWAP2 POP POP JUMP JUMPDEST PUSH1 0x0 PUSH1 0x20 DUP3 DUP5 SUB SLT ISZERO PUSH2 0x1721 JUMPI PUSH2 0x1720 PUSH2 0x24C6 JUMP JUMPDEST JUMPDEST PUSH1 0x0 DUP3 ADD MLOAD PUSH8 0xFFFFFFFFFFFFFFFF DUP2 GT ISZERO PUSH2 0x173F JUMPI PUSH2 0x173E PUSH2 0x24C1 JUMP JUMPDEST JUMPDEST PUSH2 0x174B DUP5 DUP3 DUP6 ADD PUSH2 0x16B3 JUMP JUMPDEST SWAP2 POP POP SWAP3 SWAP2 POP POP JUMP JUMPDEST PUSH1 0x0 DUP1 PUSH1 0x0 DUP1 PUSH1 0x0 PUSH1 0xA0 DUP7 DUP9 SUB SLT ISZERO PUSH2 0x1770 JUMPI PUSH2 0x176F PUSH2 0x24C6 JUMP JUMPDEST JUMPDEST PUSH1 0x0 PUSH2 0x177E DUP9 DUP3 DUP10 ADD PUSH2 0x16E1 JUMP JUMPDEST SWAP6 POP POP PUSH1 0x20 DUP7 ADD CALLDATALOAD PUSH8 0xFFFFFFFFFFFFFFFF DUP2 GT ISZERO PUSH2 0x179F JUMPI PUSH2 0x179E PUSH2 0x24C1 JUMP JUMPDEST JUMPDEST PUSH2 0x17AB DUP9 DUP3 DUP10 ADD PUSH2 0x1685 JUMP JUMPDEST SWAP5 POP POP PUSH1 0x40 DUP7 ADD CALLDATALOAD PUSH8 0xFFFFFFFFFFFFFFFF DUP2 GT ISZERO PUSH2 0x17CC JUMPI PUSH2 0x17CB PUSH2 0x24C1 JUMP JUMPDEST JUMPDEST PUSH2 0x17D8 DUP9 DUP3 DUP10 ADD PUSH2 0x1685 JUMP JUMPDEST SWAP4 POP POP PUSH1 0x60 PUSH2 0x17E9 DUP9 DUP3 DUP10 ADD PUSH2 0x16E1 JUMP JUMPDEST SWAP3 POP POP PUSH1 0x80 PUSH2 0x17FA DUP9 DUP3 DUP10 ADD PUSH2 0x165B JUMP JUMPDEST SWAP2 POP POP SWAP3 SWAP6 POP SWAP3 SWAP6 SWAP1 SWAP4 POP JUMP JUMPDEST PUSH1 0x0 DUP1 PUSH1 0x40 DUP4 DUP6 SUB SLT ISZERO PUSH2 0x181E JUMPI PUSH2 0x181D PUSH2 0x24C6 JUMP JUMPDEST JUMPDEST PUSH1 0x0 PUSH2 0x182C DUP6 DUP3 DUP7 ADD PUSH2 0x16E1 JUMP JUMPDEST SWAP3 POP POP PUSH1 0x20 PUSH2 0x183D DUP6 DUP3 DUP7 ADD PUSH2 0x16E1 JUMP JUMPDEST SWAP2 POP POP SWAP3 POP SWAP3 SWAP1 POP JUMP JUMPDEST PUSH1 0x0 DUP1 PUSH1 0x0 PUSH1 0x60 DUP5 DUP7 SUB SLT ISZERO PUSH2 0x1860 JUMPI PUSH2 0x185F PUSH2 0x24C6 JUMP JUMPDEST JUMPDEST PUSH1 0x0 PUSH2 0x186E DUP7 DUP3 DUP8 ADD PUSH2 0x16E1 JUMP JUMPDEST SWAP4 POP POP PUSH1 0x20 PUSH2 0x187F DUP7 DUP3 DUP8 ADD PUSH2 0x16E1 JUMP JUMPDEST SWAP3 POP POP PUSH1 0x40 PUSH2 0x1890 DUP7 DUP3 DUP8 ADD PUSH2 0x1646 JUMP JUMPDEST SWAP2 POP POP SWAP3 POP SWAP3 POP SWAP3 JUMP JUMPDEST PUSH1 0x0 DUP1 PUSH1 0x0 DUP1 PUSH1 0x80 DUP6 DUP8 SUB SLT ISZERO PUSH2 0x18B4 JUMPI PUSH2 0x18B3 PUSH2 0x24C6 JUMP JUMPDEST JUMPDEST PUSH1 0x0 PUSH2 0x18C2 DUP8 DUP3 DUP9 ADD PUSH2 0x16E1 JUMP JUMPDEST SWAP5 POP POP PUSH1 0x20 PUSH2 0x18D3 DUP8 DUP3 DUP9 ADD PUSH2 0x16E1 JUMP JUMPDEST SWAP4 POP POP PUSH1 0x40 DUP6 ADD CALLDATALOAD PUSH8 0xFFFFFFFFFFFFFFFF DUP2 GT ISZERO PUSH2 0x18F4 JUMPI PUSH2 0x18F3 PUSH2 0x24C1 JUMP JUMPDEST JUMPDEST PUSH2 0x1900 DUP8 DUP3 DUP9 ADD PUSH2 0x1685 JUMP JUMPDEST SWAP3 POP POP PUSH1 0x60 DUP6 ADD CALLDATALOAD PUSH8 0xFFFFFFFFFFFFFFFF DUP2 GT ISZERO PUSH2 0x1921 JUMPI PUSH2 0x1920 PUSH2 0x24C1 JUMP JUMPDEST JUMPDEST PUSH2 0x192D DUP8 DUP3 DUP9 ADD PUSH2 0x1685 JUMP JUMPDEST SWAP2 POP POP SWAP3 SWAP6 SWAP2 SWAP5 POP SWAP3 POP JUMP JUMPDEST PUSH1 0x0 DUP1 PUSH1 0x0 DUP1 PUSH1 0x0 DUP1 PUSH1 0xC0 DUP8 DUP10 SUB SLT ISZERO PUSH2 0x1956 JUMPI PUSH2 0x1955 PUSH2 0x24C6 JUMP JUMPDEST JUMPDEST PUSH1 0x0 PUSH2 0x1964 DUP10 DUP3 DUP11 ADD PUSH2 0x16E1 JUMP JUMPDEST SWAP7 POP POP PUSH1 0x20 PUSH2 0x1975 DUP10 DUP3 DUP11 ADD PUSH2 0x16E1 JUMP JUMPDEST SWAP6 POP POP PUSH1 0x40 DUP8 ADD CALLDATALOAD PUSH8 0xFFFFFFFFFFFFFFFF DUP2 GT ISZERO PUSH2 0x1996 JUMPI PUSH2 0x1995 PUSH2 0x24C1 JUMP JUMPDEST JUMPDEST PUSH2 0x19A2 DUP10 DUP3 DUP11 ADD PUSH2 0x1685 JUMP JUMPDEST SWAP5 POP POP PUSH1 0x60 DUP8 ADD CALLDATALOAD PUSH8 0xFFFFFFFFFFFFFFFF DUP2 GT ISZERO PUSH2 0x19C3 JUMPI PUSH2 0x19C2 PUSH2 0x24C1 JUMP JUMPDEST JUMPDEST PUSH2 0x19CF DUP10 DUP3 DUP11 ADD PUSH2 0x1685 JUMP JUMPDEST SWAP4 POP POP PUSH1 0x80 PUSH2 0x19E0 DUP10 DUP3 DUP11 ADD PUSH2 0x16E1 JUMP JUMPDEST SWAP3 POP POP PUSH1 0xA0 PUSH2 0x19F1 DUP10 DUP3 DUP11 ADD PUSH2 0x1670 JUMP JUMPDEST SWAP2 POP POP SWAP3 SWAP6 POP SWAP3 SWAP6 POP SWAP3 SWAP6 JUMP JUMPDEST PUSH1 0x0 DUP1 PUSH1 0x0 PUSH1 0x60 DUP5 DUP7 SUB SLT ISZERO PUSH2 0x1A17 JUMPI PUSH2 0x1A16 PUSH2 0x24C6 JUMP JUMPDEST JUMPDEST PUSH1 0x0 PUSH2 0x1A25 DUP7 DUP3 DUP8 ADD PUSH2 0x16E1 JUMP JUMPDEST SWAP4 POP POP PUSH1 0x20 PUSH2 0x1A36 DUP7 DUP3 DUP8 ADD PUSH2 0x16E1 JUMP JUMPDEST SWAP3 POP POP PUSH1 0x40 PUSH2 0x1A47 DUP7 DUP3 DUP8 ADD PUSH2 0x16E1 JUMP JUMPDEST SWAP2 POP POP SWAP3 POP SWAP3 POP SWAP3 JUMP JUMPDEST PUSH1 0x0 DUP1 PUSH1 0x0 DUP1 PUSH1 0x0 PUSH1 0xA0 DUP7 DUP9 SUB SLT ISZERO PUSH2 0x1A6D JUMPI PUSH2 0x1A6C PUSH2 0x24C6 JUMP JUMPDEST JUMPDEST PUSH1 0x0 PUSH2 0x1A7B DUP9 DUP3 DUP10 ADD PUSH2 0x16E1 JUMP JUMPDEST SWAP6 POP POP PUSH1 0x20 PUSH2 0x1A8C DUP9 DUP3 DUP10 ADD PUSH2 0x16E1 JUMP JUMPDEST SWAP5 POP POP PUSH1 0x40 PUSH2 0x1A9D DUP9 DUP3 DUP10 ADD PUSH2 0x16E1 JUMP JUMPDEST SWAP4 POP POP PUSH1 0x60 PUSH2 0x1AAE DUP9 DUP3 DUP10 ADD PUSH2 0x1646 JUMP JUMPDEST SWAP3 POP POP PUSH1 0x80 PUSH2 0x1ABF DUP9 DUP3 DUP10 ADD PUSH2 0x16F6 JUMP JUMPDEST SWAP2 POP POP SWAP3 SWAP6 POP SWAP3 SWAP6 SWAP1 SWAP4 POP JUMP JUMPDEST PUSH1 0x0 DUP1 PUSH1 0x0 DUP1 PUSH1 0x0 PUSH1 0xA0 DUP7 DUP9 SUB SLT ISZERO PUSH2 0x1AE8 JUMPI PUSH2 0x1AE7 PUSH2 0x24C6 JUMP JUMPDEST JUMPDEST PUSH1 0x0 PUSH2 0x1AF6 DUP9 DUP3 DUP10 ADD PUSH2 0x16E1 JUMP JUMPDEST SWAP6 POP POP PUSH1 0x20 PUSH2 0x1B07 DUP9 DUP3 DUP10 ADD PUSH2 0x16E1 JUMP JUMPDEST SWAP5 POP POP PUSH1 0x40 PUSH2 0x1B18 DUP9 DUP3 DUP10 ADD PUSH2 0x16E1 JUMP JUMPDEST SWAP4 POP POP PUSH1 0x60 DUP7 ADD CALLDATALOAD PUSH8 0xFFFFFFFFFFFFFFFF DUP2 GT ISZERO PUSH2 0x1B39 JUMPI PUSH2 0x1B38 PUSH2 0x24C1 JUMP JUMPDEST JUMPDEST PUSH2 0x1B45 DUP9 DUP3 DUP10 ADD PUSH2 0x1685 JUMP JUMPDEST SWAP3 POP POP PUSH1 0x80 DUP7 ADD CALLDATALOAD PUSH8 0xFFFFFFFFFFFFFFFF DUP2 GT ISZERO PUSH2 0x1B66 JUMPI PUSH2 0x1B65 PUSH2 0x24C1 JUMP JUMPDEST JUMPDEST PUSH2 0x1B72 DUP9 DUP3 DUP10 ADD PUSH2 0x1685 JUMP JUMPDEST SWAP2 POP POP SWAP3 SWAP6 POP SWAP3 SWAP6 SWAP1 SWAP4 POP JUMP JUMPDEST PUSH1 0x0 DUP1 PUSH1 0x0 DUP1 PUSH1 0x0 DUP1 PUSH1 0x0 PUSH1 0xE0 DUP9 DUP11 SUB SLT ISZERO PUSH2 0x1B9E JUMPI PUSH2 0x1B9D PUSH2 0x24C6 JUMP JUMPDEST JUMPDEST PUSH1 0x0 PUSH2 0x1BAC DUP11 DUP3 DUP12 ADD PUSH2 0x16E1 JUMP JUMPDEST SWAP8 POP POP PUSH1 0x20 PUSH2 0x1BBD DUP11 DUP3 DUP12 ADD PUSH2 0x16E1 JUMP JUMPDEST SWAP7 POP POP PUSH1 0x40 PUSH2 0x1BCE DUP11 DUP3 DUP12 ADD PUSH2 0x16E1 JUMP JUMPDEST SWAP6 POP POP PUSH1 0x60 DUP9 ADD CALLDATALOAD PUSH8 0xFFFFFFFFFFFFFFFF DUP2 GT ISZERO PUSH2 0x1BEF JUMPI PUSH2 0x1BEE PUSH2 0x24C1 JUMP JUMPDEST JUMPDEST PUSH2 0x1BFB DUP11 DUP3 DUP12 ADD PUSH2 0x1685 JUMP JUMPDEST SWAP5 POP POP PUSH1 0x80 DUP9 ADD CALLDATALOAD PUSH8 0xFFFFFFFFFFFFFFFF DUP2 GT ISZERO PUSH2 0x1C1C JUMPI PUSH2 0x1C1B PUSH2 0x24C1 JUMP JUMPDEST JUMPDEST PUSH2 0x1C28 DUP11 DUP3 DUP12 ADD PUSH2 0x1685 JUMP JUMPDEST SWAP4 POP POP PUSH1 0xA0 PUSH2 0x1C39 DUP11 DUP3 DUP12 ADD PUSH2 0x1646 JUMP JUMPDEST SWAP3 POP POP PUSH1 0xC0 PUSH2 0x1C4A DUP11 DUP3 DUP12 ADD PUSH2 0x16E1 JUMP JUMPDEST SWAP2 POP POP SWAP3 SWAP6 SWAP9 SWAP2 SWAP5 SWAP8 POP SWAP3 SWAP6 POP JUMP JUMPDEST PUSH2 0x1C62 DUP2 PUSH2 0x2269 JUMP JUMPDEST DUP3 MSTORE POP POP JUMP JUMPDEST PUSH2 0x1C71 DUP2 PUSH2 0x2257 JUMP JUMPDEST DUP3 MSTORE POP POP JUMP JUMPDEST PUSH2 0x1C80 DUP2 PUSH2 0x227B JUMP JUMPDEST DUP3 MSTORE POP POP JUMP JUMPDEST PUSH2 0x1C8F DUP2 PUSH2 0x22D1 JUMP JUMPDEST DUP3 MSTORE POP POP JUMP JUMPDEST PUSH1 0x0 PUSH2 0x1CA0 DUP3 PUSH2 0x223B JUMP JUMPDEST PUSH2 0x1CAA DUP2 DUP6 PUSH2 0x2246 JUMP JUMPDEST SWAP4 POP PUSH2 0x1CBA DUP2 DUP6 PUSH1 0x20 DUP7 ADD PUSH2 0x22F2 JUMP JUMPDEST PUSH2 0x1CC3 DUP2 PUSH2 0x24CB JUMP JUMPDEST DUP5 ADD SWAP2 POP POP SWAP3 SWAP2 POP POP JUMP JUMPDEST PUSH1 0x0 PUSH2 0x1CDB PUSH1 0x21 DUP4 PUSH2 0x2246 JUMP JUMPDEST SWAP2 POP PUSH2 0x1CE6 DUP3 PUSH2 0x24DC JUMP JUMPDEST PUSH1 0x40 DUP3 ADD SWAP1 POP SWAP2 SWAP1 POP JUMP JUMPDEST PUSH1 0x0 PUSH2 0x1CFE PUSH1 0x47 DUP4 PUSH2 0x2246 JUMP JUMPDEST SWAP2 POP PUSH2 0x1D09 DUP3 PUSH2 0x252B JUMP JUMPDEST PUSH1 0x60 DUP3 ADD SWAP1 POP SWAP2 SWAP1 POP JUMP JUMPDEST PUSH1 0x0 PUSH2 0x1D21 PUSH1 0x35 DUP4 PUSH2 0x2246 JUMP JUMPDEST SWAP2 POP PUSH2 0x1D2C DUP3 PUSH2 0x25A0 JUMP JUMPDEST PUSH1 0x40 DUP3 ADD SWAP1 POP SWAP2 SWAP1 POP JUMP JUMPDEST PUSH1 0x0 PUSH2 0x1D44 PUSH1 0x15 DUP4 PUSH2 0x2246 JUMP JUMPDEST SWAP2 POP PUSH2 0x1D4F DUP3 PUSH2 0x25EF JUMP JUMPDEST PUSH1 0x20 DUP3 ADD SWAP1 POP SWAP2 SWAP1 POP JUMP JUMPDEST PUSH1 0x0 PUSH2 0x1D67 PUSH1 0x41 DUP4 PUSH2 0x2246 JUMP JUMPDEST SWAP2 POP PUSH2 0x1D72 DUP3 PUSH2 0x2618 JUMP JUMPDEST PUSH1 0x60 DUP3 ADD SWAP1 POP SWAP2 SWAP1 POP JUMP JUMPDEST PUSH2 0x1D86 DUP2 PUSH2 0x22BA JUMP JUMPDEST DUP3 MSTORE POP POP JUMP JUMPDEST PUSH2 0x1D95 DUP2 PUSH2 0x22C4 JUMP JUMPDEST DUP3 MSTORE POP POP JUMP JUMPDEST PUSH1 0x0 PUSH1 0x20 DUP3 ADD SWAP1 POP DUP2 DUP2 SUB PUSH1 0x0 DUP4 ADD MSTORE PUSH2 0x1DB5 DUP2 DUP5 PUSH2 0x1C95 JUMP JUMPDEST SWAP1 POP SWAP3 SWAP2 POP POP JUMP JUMPDEST PUSH1 0x0 PUSH1 0x20 DUP3 ADD SWAP1 POP DUP2 DUP2 SUB PUSH1 0x0 DUP4 ADD MSTORE PUSH2 0x1DD6 DUP2 PUSH2 0x1CCE JUMP JUMPDEST SWAP1 POP SWAP2 SWAP1 POP JUMP JUMPDEST PUSH1 0x0 PUSH1 0x20 DUP3 ADD SWAP1 POP DUP2 DUP2 SUB PUSH1 0x0 DUP4 ADD MSTORE PUSH2 0x1DF6 DUP2 PUSH2 0x1CF1 JUMP JUMPDEST SWAP1 POP SWAP2 SWAP1 POP JUMP JUMPDEST PUSH1 0x0 PUSH1 0x20 DUP3 ADD SWAP1 POP DUP2 DUP2 SUB PUSH1 0x0 DUP4 ADD MSTORE PUSH2 0x1E16 DUP2 PUSH2 0x1D14 JUMP JUMPDEST SWAP1 POP SWAP2 SWAP1 POP JUMP JUMPDEST PUSH1 0x0 PUSH1 0x20 DUP3 ADD SWAP1 POP DUP2 DUP2 SUB PUSH1 0x0 DUP4 ADD MSTORE PUSH2 0x1E36 DUP2 PUSH2 0x1D37 JUMP JUMPDEST SWAP1 POP SWAP2 SWAP1 POP JUMP JUMPDEST PUSH1 0x0 PUSH1 0x20 DUP3 ADD SWAP1 POP DUP2 DUP2 SUB PUSH1 0x0 DUP4 ADD MSTORE PUSH2 0x1E56 DUP2 PUSH2 0x1D5A JUMP JUMPDEST SWAP1 POP SWAP2 SWAP1 POP JUMP JUMPDEST PUSH1 0x0 PUSH1 0x20 DUP3 ADD SWAP1 POP PUSH2 0x1E72 PUSH1 0x0 DUP4 ADD DUP5 PUSH2 0x1D7D JUMP JUMPDEST SWAP3 SWAP2 POP POP JUMP JUMPDEST PUSH1 0x0 PUSH1 0x40 DUP3 ADD SWAP1 POP PUSH2 0x1E8D PUSH1 0x0 DUP4 ADD DUP6 PUSH2 0x1D7D JUMP JUMPDEST PUSH2 0x1E9A PUSH1 0x20 DUP4 ADD DUP5 PUSH2 0x1D7D JUMP JUMPDEST SWAP4 SWAP3 POP POP POP JUMP JUMPDEST PUSH1 0x0 PUSH1 0x80 DUP3 ADD SWAP1 POP PUSH2 0x1EB6 PUSH1 0x0 DUP4 ADD DUP8 PUSH2 0x1D7D JUMP JUMPDEST PUSH2 0x1EC3 PUSH1 0x20 DUP4 ADD DUP7 PUSH2 0x1D7D JUMP JUMPDEST DUP2 DUP2 SUB PUSH1 0x40 DUP4 ADD MSTORE PUSH2 0x1ED5 DUP2 DUP6 PUSH2 0x1C95 JUMP JUMPDEST SWAP1 POP DUP2 DUP2 SUB PUSH1 0x60 DUP4 ADD MSTORE PUSH2 0x1EE9 DUP2 DUP5 PUSH2 0x1C95 JUMP JUMPDEST SWAP1 POP SWAP6 SWAP5 POP POP POP POP POP JUMP JUMPDEST PUSH1 0x0 PUSH1 0xA0 DUP3 ADD SWAP1 POP PUSH2 0x1F09 PUSH1 0x0 DUP4 ADD DUP9 PUSH2 0x1D7D JUMP JUMPDEST PUSH2 0x1F16 PUSH1 0x20 DUP4 ADD DUP8 PUSH2 0x1D7D JUMP JUMPDEST DUP2 DUP2 SUB PUSH1 0x40 DUP4 ADD MSTORE PUSH2 0x1F28 DUP2 DUP7 PUSH2 0x1C95 JUMP JUMPDEST SWAP1 POP DUP2 DUP2 SUB PUSH1 0x60 DUP4 ADD MSTORE PUSH2 0x1F3C DUP2 DUP6 PUSH2 0x1C95 JUMP JUMPDEST SWAP1 POP PUSH2 0x1F4B PUSH1 0x80 DUP4 ADD DUP5 PUSH2 0x1D7D JUMP JUMPDEST SWAP7 SWAP6 POP POP POP POP POP POP JUMP JUMPDEST PUSH1 0x0 PUSH1 0xC0 DUP3 ADD SWAP1 POP PUSH2 0x1F6A PUSH1 0x0 DUP4 ADD DUP10 PUSH2 0x1D7D JUMP JUMPDEST PUSH2 0x1F77 PUSH1 0x20 DUP4 ADD DUP9 PUSH2 0x1D7D JUMP JUMPDEST DUP2 DUP2 SUB PUSH1 0x40 DUP4 ADD MSTORE PUSH2 0x1F89 DUP2 DUP8 PUSH2 0x1C95 JUMP JUMPDEST SWAP1 POP DUP2 DUP2 SUB PUSH1 0x60 DUP4 ADD MSTORE PUSH2 0x1F9D DUP2 DUP7 PUSH2 0x1C95 JUMP JUMPDEST SWAP1 POP PUSH2 0x1FAC PUSH1 0x80 DUP4 ADD DUP6 PUSH2 0x1D7D JUMP JUMPDEST PUSH2 0x1FB9 PUSH1 0xA0 DUP4 ADD DUP5 PUSH2 0x1C86 JUMP JUMPDEST SWAP8 SWAP7 POP POP POP POP POP POP POP JUMP JUMPDEST PUSH1 0x0 PUSH2 0x140 DUP3 ADD SWAP1 POP PUSH2 0x1FDA PUSH1 0x0 DUP4 ADD DUP14 PUSH2 0x1D7D JUMP JUMPDEST PUSH2 0x1FE7 PUSH1 0x20 DUP4 ADD DUP13 PUSH2 0x1D7D JUMP JUMPDEST DUP2 DUP2 SUB PUSH1 0x40 DUP4 ADD MSTORE PUSH2 0x1FF9 DUP2 DUP12 PUSH2 0x1C95 JUMP JUMPDEST SWAP1 POP DUP2 DUP2 SUB PUSH1 0x60 DUP4 ADD MSTORE PUSH2 0x200D DUP2 DUP11 PUSH2 0x1C95 JUMP JUMPDEST SWAP1 POP PUSH2 0x201C PUSH1 0x80 DUP4 ADD DUP10 PUSH2 0x1D7D JUMP JUMPDEST PUSH2 0x2029 PUSH1 0xA0 DUP4 ADD DUP9 PUSH2 0x1D7D JUMP JUMPDEST PUSH2 0x2036 PUSH1 0xC0 DUP4 ADD DUP8 PUSH2 0x1C59 JUMP JUMPDEST PUSH2 0x2043 PUSH1 0xE0 DUP4 ADD DUP7 PUSH2 0x1C59 JUMP JUMPDEST PUSH2 0x2051 PUSH2 0x100 DUP4 ADD DUP6 PUSH2 0x1C77 JUMP JUMPDEST PUSH2 0x205F PUSH2 0x120 DUP4 ADD DUP5 PUSH2 0x1C86 JUMP JUMPDEST SWAP12 SWAP11 POP POP POP POP POP POP POP POP POP POP POP JUMP JUMPDEST PUSH1 0x0 PUSH1 0x60 DUP3 ADD SWAP1 POP PUSH2 0x2083 PUSH1 0x0 DUP4 ADD DUP7 PUSH2 0x1D7D JUMP JUMPDEST PUSH2 0x2090 PUSH1 0x20 DUP4 ADD DUP6 PUSH2 0x1D7D JUMP JUMPDEST PUSH2 0x209D PUSH1 0x40 DUP4 ADD DUP5 PUSH2 0x1D7D JUMP JUMPDEST SWAP5 SWAP4 POP POP POP POP JUMP JUMPDEST PUSH1 0x0 PUSH1 0xA0 DUP3 ADD SWAP1 POP PUSH2 0x20BA PUSH1 0x0 DUP4 ADD DUP9 PUSH2 0x1D7D JUMP JUMPDEST PUSH2 0x20C7 PUSH1 0x20 DUP4 ADD DUP8 PUSH2 0x1D7D JUMP JUMPDEST PUSH2 0x20D4 PUSH1 0x40 DUP4 ADD DUP7 PUSH2 0x1D7D JUMP JUMPDEST PUSH2 0x20E1 PUSH1 0x60 DUP4 ADD DUP6 PUSH2 0x1C68 JUMP JUMPDEST PUSH2 0x20EE PUSH1 0x80 DUP4 ADD DUP5 PUSH2 0x1D8C JUMP JUMPDEST SWAP7 SWAP6 POP POP POP POP POP POP JUMP JUMPDEST PUSH1 0x0 PUSH1 0xA0 DUP3 ADD SWAP1 POP PUSH2 0x210D PUSH1 0x0 DUP4 ADD DUP9 PUSH2 0x1D7D JUMP JUMPDEST PUSH2 0x211A PUSH1 0x20 DUP4 ADD DUP8 PUSH2 0x1D7D JUMP JUMPDEST PUSH2 0x2127 PUSH1 0x40 DUP4 ADD DUP7 PUSH2 0x1D7D JUMP JUMPDEST DUP2 DUP2 SUB PUSH1 0x60 DUP4 ADD MSTORE PUSH2 0x2139 DUP2 DUP6 PUSH2 0x1C95 JUMP JUMPDEST SWAP1 POP DUP2 DUP2 SUB PUSH1 0x80 DUP4 ADD MSTORE PUSH2 0x214D DUP2 DUP5 PUSH2 0x1C95 JUMP JUMPDEST SWAP1 POP SWAP7 SWAP6 POP POP POP POP POP POP JUMP JUMPDEST PUSH1 0x0 PUSH2 0x100 DUP3 ADD SWAP1 POP PUSH2 0x216F PUSH1 0x0 DUP4 ADD DUP12 PUSH2 0x1D7D JUMP JUMPDEST PUSH2 0x217C PUSH1 0x20 DUP4 ADD DUP11 PUSH2 0x1D7D JUMP JUMPDEST PUSH2 0x2189 PUSH1 0x40 DUP4 ADD DUP10 PUSH2 0x1D7D JUMP JUMPDEST DUP2 DUP2 SUB PUSH1 0x60 DUP4 ADD MSTORE PUSH2 0x219B DUP2 DUP9 PUSH2 0x1C95 JUMP JUMPDEST SWAP1 POP DUP2 DUP2 SUB PUSH1 0x80 DUP4 ADD MSTORE PUSH2 0x21AF DUP2 DUP8 PUSH2 0x1C95 JUMP JUMPDEST SWAP1 POP PUSH2 0x21BE PUSH1 0xA0 DUP4 ADD DUP7 PUSH2 0x1C68 JUMP JUMPDEST PUSH2 0x21CB PUSH1 0xC0 DUP4 ADD DUP6 PUSH2 0x1C68 JUMP JUMPDEST PUSH2 0x21D8 PUSH1 0xE0 DUP4 ADD DUP5 PUSH2 0x1D7D JUMP JUMPDEST SWAP10 SWAP9 POP POP POP POP POP POP POP POP POP JUMP JUMPDEST PUSH1 0x0 PUSH2 0x21EF PUSH2 0x2200 JUMP JUMPDEST SWAP1 POP PUSH2 0x21FB DUP3 DUP3 PUSH2 0x2381 JUMP JUMPDEST SWAP2 SWAP1 POP JUMP JUMPDEST PUSH1 0x0 PUSH1 0x40 MLOAD SWAP1 POP SWAP1 JUMP JUMPDEST PUSH1 0x0 PUSH8 0xFFFFFFFFFFFFFFFF DUP3 GT ISZERO PUSH2 0x2225 JUMPI PUSH2 0x2224 PUSH2 0x2488 JUMP JUMPDEST JUMPDEST PUSH2 0x222E DUP3 PUSH2 0x24CB JUMP JUMPDEST SWAP1 POP PUSH1 0x20 DUP2 ADD SWAP1 POP SWAP2 SWAP1 POP JUMP JUMPDEST PUSH1 0x0 DUP2 MLOAD SWAP1 POP SWAP2 SWAP1 POP JUMP JUMPDEST PUSH1 0x0 DUP3 DUP3 MSTORE PUSH1 0x20 DUP3 ADD SWAP1 POP SWAP3 SWAP2 POP POP JUMP JUMPDEST PUSH1 0x0 PUSH2 0x2262 DUP3 PUSH2 0x229A JUMP JUMPDEST SWAP1 POP SWAP2 SWAP1 POP JUMP JUMPDEST PUSH1 0x0 PUSH2 0x2274 DUP3 PUSH2 0x229A JUMP JUMPDEST SWAP1 POP SWAP2 SWAP1 POP JUMP JUMPDEST PUSH1 0x0 DUP2 ISZERO ISZERO SWAP1 POP SWAP2 SWAP1 POP JUMP JUMPDEST PUSH1 0x0 DUP2 SWAP1 POP PUSH2 0x2295 DUP3 PUSH2 0x268D JUMP JUMPDEST SWAP2 SWAP1 POP JUMP JUMPDEST PUSH1 0x0 PUSH20 0xFFFFFFFFFFFFFFFFFFFFFFFFFFFFFFFFFFFFFFFF DUP3 AND SWAP1 POP SWAP2 SWAP1 POP JUMP JUMPDEST PUSH1 0x0 DUP2 SWAP1 POP SWAP2 SWAP1 POP JUMP JUMPDEST PUSH1 0x0 PUSH1 0xFF DUP3 AND SWAP1 POP SWAP2 SWAP1 POP JUMP JUMPDEST PUSH1 0x0 PUSH2 0x22DC DUP3 PUSH2 0x2287 JUMP JUMPDEST SWAP1 POP SWAP2 SWAP1 POP JUMP JUMPDEST DUP3 DUP2 DUP4 CALLDATACOPY PUSH1 0x0 DUP4 DUP4 ADD MSTORE POP POP POP JUMP JUMPDEST PUSH1 0x0 JUMPDEST DUP4 DUP2 LT ISZERO PUSH2 0x2310 JUMPI DUP1 DUP3 ADD MLOAD DUP2 DUP5 ADD MSTORE PUSH1 0x20 DUP2 ADD SWAP1 POP PUSH2 0x22F5 JUMP JUMPDEST DUP4 DUP2 GT ISZERO PUSH2 0x231F JUMPI PUSH1 0x0 DUP5 DUP5 ADD MSTORE JUMPDEST POP POP POP POP JUMP JUMPDEST PUSH1 0x0 PUSH2 0x2330 DUP3 PUSH2 0x22BA JUMP JUMPDEST SWAP2 POP PUSH1 0x0 DUP3 EQ ISZERO PUSH2 0x2344 JUMPI PUSH2 0x2343 PUSH2 0x23FB JUMP JUMPDEST JUMPDEST PUSH1 0x1 DUP3 SUB SWAP1 POP SWAP2 SWAP1 POP JUMP JUMPDEST PUSH1 0x0 PUSH1 0x2 DUP3 DIV SWAP1 POP PUSH1 0x1 DUP3 AND DUP1 PUSH2 0x2367 JUMPI PUSH1 0x7F DUP3 AND SWAP2 POP JUMPDEST PUSH1 0x20 DUP3 LT DUP2 EQ ISZERO PUSH2 0x237B JUMPI PUSH2 0x237A PUSH2 0x2459 JUMP JUMPDEST JUMPDEST POP SWAP2 SWAP1 POP JUMP JUMPDEST PUSH2 0x238A DUP3 PUSH2 0x24CB JUMP JUMPDEST DUP2 ADD DUP2 DUP2 LT PUSH8 0xFFFFFFFFFFFFFFFF DUP3 GT OR ISZERO PUSH2 0x23A9 JUMPI PUSH2 0x23A8 PUSH2 0x2488 JUMP JUMPDEST JUMPDEST DUP1 PUSH1 0x40 MSTORE POP POP POP JUMP JUMPDEST PUSH1 0x0 PUSH2 0x23BD DUP3 PUSH2 0x22BA JUMP JUMPDEST SWAP2 POP PUSH32 0xFFFFFFFFFFFFFFFFFFFFFFFFFFFFFFFFFFFFFFFFFFFFFFFFFFFFFFFFFFFFFFFF DUP3 EQ ISZERO PUSH2 0x23F0 JUMPI PUSH2 0x23EF PUSH2 0x23FB JUMP JUMPDEST JUMPDEST PUSH1 0x1 DUP3 ADD SWAP1 POP SWAP2 SWAP1 POP JUMP JUMPDEST PUSH32 0x4E487B7100000000000000000000000000000000000000000000000000000000 PUSH1 0x0 MSTORE PUSH1 0x11 PUSH1 0x4 MSTORE PUSH1 0x24 PUSH1 0x0 REVERT JUMPDEST PUSH32 0x4E487B7100000000000000000000000000000000000000000000000000000000 PUSH1 0x0 MSTORE PUSH1 0x21 PUSH1 0x4 MSTORE PUSH1 0x24 PUSH1 0x0 REVERT JUMPDEST PUSH32 0x4E487B7100000000000000000000000000000000000000000000000000000000 PUSH1 0x0 MSTORE PUSH1 0x22 PUSH1 0x4 MSTORE PUSH1 0x24 PUSH1 0x0 REVERT JUMPDEST PUSH32 0x4E487B7100000000000000000000000000000000000000000000000000000000 PUSH1 0x0 MSTORE PUSH1 0x41 PUSH1 0x4 MSTORE PUSH1 0x24 PUSH1 0x0 REVERT JUMPDEST PUSH1 0x0 DUP1 REVERT JUMPDEST PUSH1 0x0 DUP1 REVERT JUMPDEST PUSH1 0x0 DUP1 REVERT JUMPDEST PUSH1 0x0 DUP1 REVERT JUMPDEST PUSH1 0x0 PUSH1 0x1F NOT PUSH1 0x1F DUP4 ADD AND SWAP1 POP SWAP2 SWAP1 POP JUMP JUMPDEST PUSH32 0x412053657276696365205072696365206D757374206265207370656369666965 PUSH1 0x0 DUP3 ADD MSTORE PUSH32 0x6400000000000000000000000000000000000000000000000000000000000000 PUSH1 0x20 DUP3 ADD MSTORE POP JUMP JUMPDEST PUSH32 0x556E617574686F72697365642061636365737320746F20736572766963652C20 PUSH1 0x0 DUP3 ADD MSTORE PUSH32 0x6F6E6C792073657276696365207365727669636550726F76696465722063616E PUSH1 0x20 DUP3 ADD MSTORE PUSH32 0x2061636365737300000000000000000000000000000000000000000000000000 PUSH1 0x40 DUP3 ADD MSTORE POP JUMP JUMPDEST PUSH32 0x596F75206172652063757272656E746C79206E6F7420616C6C6F77656420746F PUSH1 0x0 DUP3 ADD MSTORE PUSH32 0x20776F726B206F6E207468697320736572766963650000000000000000000000 PUSH1 0x20 DUP3 ADD MSTORE POP JUMP JUMPDEST PUSH32 0x4120737472696E67206973207265717569726564210000000000000000000000 PUSH1 0x0 DUP3 ADD MSTORE POP JUMP JUMPDEST PUSH32 0x556E617574686F72697365642061636365737320746F20736572766963652C20 PUSH1 0x0 DUP3 ADD MSTORE PUSH32 0x6F6E6C792073657276696365207265717565737465722063616E206163636573 PUSH1 0x20 DUP3 ADD MSTORE PUSH32 0x7300000000000000000000000000000000000000000000000000000000000000 PUSH1 0x40 DUP3 ADD MSTORE POP JUMP JUMPDEST PUSH1 0x6 DUP2 LT PUSH2 0x269E JUMPI PUSH2 0x269D PUSH2 0x242A JUMP JUMPDEST JUMPDEST POP JUMP JUMPDEST PUSH2 0x26AA DUP2 PUSH2 0x2257 JUMP JUMPDEST DUP2 EQ PUSH2 0x26B5 JUMPI PUSH1 0x0 DUP1 REVERT JUMPDEST POP JUMP JUMPDEST PUSH2 0x26C1 DUP2 PUSH2 0x2269 JUMP JUMPDEST DUP2 EQ PUSH2 0x26CC JUMPI PUSH1 0x0 DUP1 REVERT JUMPDEST POP JUMP JUMPDEST PUSH1 0x6 DUP2 LT PUSH2 0x26DC JUMPI PUSH1 0x0 DUP1 REVERT JUMPDEST POP JUMP JUMPDEST PUSH2 0x26E8 DUP2 PUSH2 0x22BA JUMP JUMPDEST DUP2 EQ PUSH2 0x26F3 JUMPI PUSH1 0x0 DUP1 REVERT JUMPDEST POP JUMP JUMPDEST PUSH2 0x26FF DUP2 PUSH2 0x22C4 JUMP JUMPDEST DUP2 EQ PUSH2 0x270A JUMPI PUSH1 0x0 DUP1 REVERT JUMPDEST POP JUMP INVALID LOG2 PUSH5 0x6970667358 0x22 SLT KECCAK256 EXP PUSH21 0xACF8DE657E406DE9C58277F3853570F362E0B6263E 0x27 CALL PUSH25 0x2CB49E293CEC64736F6C634300080700330000000000000000 "
		},
		"gasEstimates": {
			"creation": {
				"codeDepositCost": "2010200",
				"executionCost": "infinite",
				"totalCost": "infinite"
			},
			"external": {
				"acceptServiceRequest(uint256,uint256,address)": "infinite",
				"completeServiceRequest(uint256,uint256,address)": "infinite",
				"createConflict(uint256,uint256,uint256,string,string,address,uint256)": "infinite",
				"createMilestone(uint256,uint256,string,string)": "infinite",
				"createService(uint256,string,string,uint256,address)": "infinite",
				"deleteConflict(uint256,uint256,uint256)": "infinite",
				"deleteMilestone(uint256,uint256,uint256)": "infinite",
				"deleteService(uint256,uint256)": "infinite",
				"projectServices(uint256,uint256)": "infinite",
				"readMilestoneTitle(uint256,uint256,uint256)": "infinite",
				"readServiceTitle(uint256,uint256)": "infinite",
				"rejectServiceRequest(uint256,uint256,address)": "infinite",
				"serviceNum()": "2496",
				"serviceTotal()": "2474",
				"takeServiceRequest(uint256,uint256,address)": "infinite",
				"updateConflict(uint256,uint256,uint256,string,string)": "infinite",
				"updateMilestone(uint256,uint256,uint256,string,string)": "infinite",
				"updateService(uint256,uint256,string,string,uint256,uint8)": "infinite",
				"voteConflict(uint256,uint256,uint256,address,uint8)": "infinite"
			}
		},
		"methodIdentifiers": {
			"acceptServiceRequest(uint256,uint256,address)": "14da947b",
			"completeServiceRequest(uint256,uint256,address)": "8c749c74",
			"createConflict(uint256,uint256,uint256,string,string,address,uint256)": "e731ac45",
			"createMilestone(uint256,uint256,string,string)": "63ef8a50",
			"createService(uint256,string,string,uint256,address)": "256da4e3",
			"deleteConflict(uint256,uint256,uint256)": "003f489f",
			"deleteMilestone(uint256,uint256,uint256)": "b9b6c5d4",
			"deleteService(uint256,uint256)": "53c49c64",
			"projectServices(uint256,uint256)": "1c82ead9",
			"readMilestoneTitle(uint256,uint256,uint256)": "ace731bd",
			"readServiceTitle(uint256,uint256)": "c304ccdc",
			"rejectServiceRequest(uint256,uint256,address)": "529884e7",
			"serviceNum()": "352d28fd",
			"serviceTotal()": "30f73051",
			"takeServiceRequest(uint256,uint256,address)": "f0f238ce",
			"updateConflict(uint256,uint256,uint256,string,string)": "d1e992a7",
			"updateMilestone(uint256,uint256,uint256,string,string)": "fd23c4bb",
			"updateService(uint256,uint256,string,string,uint256,uint8)": "010dfd93",
			"voteConflict(uint256,uint256,uint256,address,uint8)": "c171bdf7"
		}
	},
	"abi": [
		{
			"inputs": [
				{
					"internalType": "contract Milestone",
					"name": "milestoneContract",
					"type": "address"
				}
			],
			"stateMutability": "nonpayable",
			"type": "constructor"
		},
		{
			"anonymous": false,
			"inputs": [
				{
					"indexed": false,
					"internalType": "uint256",
					"name": "projectNumber",
					"type": "uint256"
				},
				{
					"indexed": false,
					"internalType": "uint256",
					"name": "serviceNumber",
					"type": "uint256"
				},
				{
					"indexed": false,
					"internalType": "string",
					"name": "title",
					"type": "string"
				},
				{
					"indexed": false,
					"internalType": "string",
					"name": "description",
					"type": "string"
				},
				{
					"indexed": false,
					"internalType": "uint256",
					"name": "price",
					"type": "uint256"
				}
			],
			"name": "serviceCreated",
			"type": "event"
		},
		{
			"anonymous": false,
			"inputs": [
				{
					"indexed": false,
					"internalType": "uint256",
					"name": "projectNumber",
					"type": "uint256"
				},
				{
					"indexed": false,
					"internalType": "uint256",
					"name": "serviceNumber",
					"type": "uint256"
				}
			],
			"name": "serviceDeleted",
			"type": "event"
		},
		{
			"anonymous": false,
			"inputs": [
				{
					"indexed": false,
					"internalType": "uint256",
					"name": "projectNumber",
					"type": "uint256"
				},
				{
					"indexed": false,
					"internalType": "uint256",
					"name": "serviceNumber",
					"type": "uint256"
				},
				{
					"indexed": false,
					"internalType": "string",
					"name": "title",
					"type": "string"
				},
				{
					"indexed": false,
					"internalType": "string",
					"name": "description",
					"type": "string"
				},
				{
					"indexed": false,
					"internalType": "uint256",
					"name": "price",
					"type": "uint256"
				},
				{
					"indexed": false,
					"internalType": "enum States.ServiceStatus",
					"name": "status",
					"type": "uint8"
				}
			],
			"name": "serviceUpdated",
			"type": "event"
		},
		{
			"inputs": [
				{
					"internalType": "uint256",
					"name": "projectNumber",
					"type": "uint256"
				},
				{
					"internalType": "uint256",
					"name": "serviceNumber",
					"type": "uint256"
				},
				{
					"internalType": "address",
					"name": "serviceRequester",
					"type": "address"
				}
			],
			"name": "acceptServiceRequest",
			"outputs": [],
			"stateMutability": "nonpayable",
			"type": "function"
		},
		{
			"inputs": [
				{
					"internalType": "uint256",
					"name": "projectNumber",
					"type": "uint256"
				},
				{
					"internalType": "uint256",
					"name": "serviceNumber",
					"type": "uint256"
				},
				{
					"internalType": "address",
					"name": "serviceProvider",
					"type": "address"
				}
			],
			"name": "completeServiceRequest",
			"outputs": [],
			"stateMutability": "nonpayable",
			"type": "function"
		},
		{
			"inputs": [
				{
					"internalType": "uint256",
					"name": "projectNumber",
					"type": "uint256"
				},
				{
					"internalType": "uint256",
					"name": "serviceNumber",
					"type": "uint256"
				},
				{
					"internalType": "uint256",
					"name": "milestoneNumber",
					"type": "uint256"
				},
				{
					"internalType": "string",
					"name": "title",
					"type": "string"
				},
				{
					"internalType": "string",
					"name": "description",
					"type": "string"
				},
				{
					"internalType": "address",
					"name": "serviceRequester",
					"type": "address"
				},
				{
					"internalType": "uint256",
					"name": "totalVoters",
					"type": "uint256"
				}
			],
			"name": "createConflict",
			"outputs": [],
			"stateMutability": "nonpayable",
			"type": "function"
		},
		{
			"inputs": [
				{
					"internalType": "uint256",
					"name": "projectNumber",
					"type": "uint256"
				},
				{
					"internalType": "uint256",
					"name": "serviceNumber",
					"type": "uint256"
				},
				{
					"internalType": "string",
					"name": "titleMilestone",
					"type": "string"
				},
				{
					"internalType": "string",
					"name": "descriptionMilestone",
					"type": "string"
				}
			],
			"name": "createMilestone",
			"outputs": [],
			"stateMutability": "nonpayable",
			"type": "function"
		},
		{
			"inputs": [
				{
					"internalType": "uint256",
					"name": "projectNumber",
					"type": "uint256"
				},
				{
					"internalType": "string",
					"name": "title",
					"type": "string"
				},
				{
					"internalType": "string",
					"name": "description",
					"type": "string"
				},
				{
					"internalType": "uint256",
					"name": "price",
					"type": "uint256"
				},
				{
					"internalType": "address payable",
					"name": "projectOwner",
					"type": "address"
				}
			],
			"name": "createService",
			"outputs": [],
			"stateMutability": "nonpayable",
			"type": "function"
		},
		{
			"inputs": [
				{
					"internalType": "uint256",
					"name": "projectNumber",
					"type": "uint256"
				},
				{
					"internalType": "uint256",
					"name": "serviceNumber",
					"type": "uint256"
				},
				{
					"internalType": "uint256",
					"name": "milestoneNumber",
					"type": "uint256"
				}
			],
			"name": "deleteConflict",
			"outputs": [],
			"stateMutability": "nonpayable",
			"type": "function"
		},
		{
			"inputs": [
				{
					"internalType": "uint256",
					"name": "projectNumber",
					"type": "uint256"
				},
				{
					"internalType": "uint256",
					"name": "serviceNumber",
					"type": "uint256"
				},
				{
					"internalType": "uint256",
					"name": "milestoneNumber",
					"type": "uint256"
				}
			],
			"name": "deleteMilestone",
			"outputs": [],
			"stateMutability": "nonpayable",
			"type": "function"
		},
		{
			"inputs": [
				{
					"internalType": "uint256",
					"name": "projectNumber",
					"type": "uint256"
				},
				{
					"internalType": "uint256",
					"name": "serviceNumber",
					"type": "uint256"
				}
			],
			"name": "deleteService",
			"outputs": [],
			"stateMutability": "nonpayable",
			"type": "function"
		},
		{
			"inputs": [
				{
					"internalType": "uint256",
					"name": "",
					"type": "uint256"
				},
				{
					"internalType": "uint256",
					"name": "",
					"type": "uint256"
				}
			],
			"name": "projectServices",
			"outputs": [
				{
					"internalType": "uint256",
					"name": "projectNumber",
					"type": "uint256"
				},
				{
					"internalType": "uint256",
					"name": "serviceNumber",
					"type": "uint256"
				},
				{
					"internalType": "string",
					"name": "title",
					"type": "string"
				},
				{
					"internalType": "string",
					"name": "description",
					"type": "string"
				},
				{
					"internalType": "uint256",
					"name": "price",
					"type": "uint256"
				},
				{
					"internalType": "uint256",
					"name": "currentMilestone",
					"type": "uint256"
				},
				{
					"internalType": "address payable",
					"name": "serviceRequester",
					"type": "address"
				},
				{
					"internalType": "address payable",
					"name": "serviceProvider",
					"type": "address"
				},
				{
					"internalType": "bool",
					"name": "exist",
					"type": "bool"
				},
				{
					"internalType": "enum States.ServiceStatus",
					"name": "status",
					"type": "uint8"
				}
			],
			"stateMutability": "view",
			"type": "function"
		},
		{
			"inputs": [
				{
					"internalType": "uint256",
					"name": "projectNumber",
					"type": "uint256"
				},
				{
					"internalType": "uint256",
					"name": "serviceNumber",
					"type": "uint256"
				},
				{
					"internalType": "uint256",
					"name": "milestoneNumber",
					"type": "uint256"
				}
			],
			"name": "readMilestoneTitle",
			"outputs": [
				{
					"internalType": "string",
					"name": "",
					"type": "string"
				}
			],
			"stateMutability": "view",
			"type": "function"
		},
		{
			"inputs": [
				{
					"internalType": "uint256",
					"name": "projectNumber",
					"type": "uint256"
				},
				{
					"internalType": "uint256",
					"name": "serviceNumber",
					"type": "uint256"
				}
			],
			"name": "readServiceTitle",
			"outputs": [
				{
					"internalType": "string",
					"name": "",
					"type": "string"
				}
			],
			"stateMutability": "view",
			"type": "function"
		},
		{
			"inputs": [
				{
					"internalType": "uint256",
					"name": "projectNumber",
					"type": "uint256"
				},
				{
					"internalType": "uint256",
					"name": "serviceNumber",
					"type": "uint256"
				},
				{
					"internalType": "address",
					"name": "serviceRequester",
					"type": "address"
				}
			],
			"name": "rejectServiceRequest",
			"outputs": [],
			"stateMutability": "nonpayable",
			"type": "function"
		},
		{
			"inputs": [],
			"name": "serviceNum",
			"outputs": [
				{
					"internalType": "uint256",
					"name": "",
					"type": "uint256"
				}
			],
			"stateMutability": "view",
			"type": "function"
		},
		{
			"inputs": [],
			"name": "serviceTotal",
			"outputs": [
				{
					"internalType": "uint256",
					"name": "",
					"type": "uint256"
				}
			],
			"stateMutability": "view",
			"type": "function"
		},
		{
			"inputs": [
				{
					"internalType": "uint256",
					"name": "projectNumber",
					"type": "uint256"
				},
				{
					"internalType": "uint256",
					"name": "serviceNumber",
					"type": "uint256"
				},
				{
					"internalType": "address",
					"name": "serviceProvider",
					"type": "address"
				}
			],
			"name": "takeServiceRequest",
			"outputs": [],
			"stateMutability": "nonpayable",
			"type": "function"
		},
		{
			"inputs": [
				{
					"internalType": "uint256",
					"name": "projectNumber",
					"type": "uint256"
				},
				{
					"internalType": "uint256",
					"name": "serviceNumber",
					"type": "uint256"
				},
				{
					"internalType": "uint256",
					"name": "milestoneNumber",
					"type": "uint256"
				},
				{
					"internalType": "string",
					"name": "title",
					"type": "string"
				},
				{
					"internalType": "string",
					"name": "description",
					"type": "string"
				}
			],
			"name": "updateConflict",
			"outputs": [],
			"stateMutability": "nonpayable",
			"type": "function"
		},
		{
			"inputs": [
				{
					"internalType": "uint256",
					"name": "projectNumber",
					"type": "uint256"
				},
				{
					"internalType": "uint256",
					"name": "serviceNumber",
					"type": "uint256"
				},
				{
					"internalType": "uint256",
					"name": "milestoneNumber",
					"type": "uint256"
				},
				{
					"internalType": "string",
					"name": "titleMilestone",
					"type": "string"
				},
				{
					"internalType": "string",
					"name": "descriptionMilestone",
					"type": "string"
				}
			],
			"name": "updateMilestone",
			"outputs": [],
			"stateMutability": "nonpayable",
			"type": "function"
		},
		{
			"inputs": [
				{
					"internalType": "uint256",
					"name": "projectNumber",
					"type": "uint256"
				},
				{
					"internalType": "uint256",
					"name": "serviceNumber",
					"type": "uint256"
				},
				{
					"internalType": "string",
					"name": "title",
					"type": "string"
				},
				{
					"internalType": "string",
					"name": "description",
					"type": "string"
				},
				{
					"internalType": "uint256",
					"name": "price",
					"type": "uint256"
				},
				{
					"internalType": "enum States.ServiceStatus",
					"name": "status",
					"type": "uint8"
				}
			],
			"name": "updateService",
			"outputs": [],
			"stateMutability": "nonpayable",
			"type": "function"
		},
		{
			"inputs": [
				{
					"internalType": "uint256",
					"name": "projectNumber",
					"type": "uint256"
				},
				{
					"internalType": "uint256",
					"name": "serviceNumber",
					"type": "uint256"
				},
				{
					"internalType": "uint256",
					"name": "milestoneNumber",
					"type": "uint256"
				},
				{
					"internalType": "address",
					"name": "sender",
					"type": "address"
				},
				{
					"internalType": "uint8",
					"name": "vote",
					"type": "uint8"
				}
			],
			"name": "voteConflict",
			"outputs": [],
			"stateMutability": "nonpayable",
			"type": "function"
		}
	]
}