{
  "contractName": "Blocktractor",
  "abi": [
    {
      "inputs": [
        {
          "internalType": "contract Profile",
          "name": "profileAddress",
          "type": "address"
        },
        {
          "internalType": "contract Service",
          "name": "serviceAddress",
          "type": "address"
        },
        {
          "internalType": "uint256",
          "name": "fee",
          "type": "uint256"
        }
      ],
      "stateMutability": "nonpayable",
      "type": "constructor"
    },
    {
      "inputs": [],
      "name": "comissionFee",
      "outputs": [
        {
          "internalType": "uint256",
          "name": "",
          "type": "uint256"
        }
      ],
      "stateMutability": "view",
      "type": "function"
    },
    {
      "inputs": [
        {
          "internalType": "string",
          "name": "title",
          "type": "string"
        },
        {
          "internalType": "string",
          "name": "description",
          "type": "string"
        },
        {
          "internalType": "uint256",
          "name": "price",
          "type": "uint256"
        }
      ],
      "name": "createService",
      "outputs": [],
      "stateMutability": "payable",
      "type": "function"
    },
    {
      "inputs": [
        {
          "internalType": "uint256",
          "name": "serviceNumber",
          "type": "uint256"
        }
      ],
      "name": "listService",
      "outputs": [],
      "stateMutability": "nonpayable",
      "type": "function"
    },
    {
      "inputs": [
        {
          "internalType": "uint256",
          "name": "serviceNumber",
          "type": "uint256"
        }
      ],
      "name": "delistService",
      "outputs": [],
      "stateMutability": "nonpayable",
      "type": "function"
    },
    {
      "inputs": [
        {
          "internalType": "uint256",
          "name": "serviceNumber",
          "type": "uint256"
        }
      ],
      "name": "requestService",
      "outputs": [],
      "stateMutability": "nonpayable",
      "type": "function"
    },
    {
      "inputs": [
        {
          "internalType": "uint256",
          "name": "serviceNumber",
          "type": "uint256"
        }
      ],
      "name": "cancelRequestService",
      "outputs": [],
      "stateMutability": "nonpayable",
      "type": "function"
    },
    {
      "inputs": [
        {
          "internalType": "uint256",
          "name": "serviceNumber",
          "type": "uint256"
        }
      ],
      "name": "approveService",
      "outputs": [],
      "stateMutability": "nonpayable",
      "type": "function"
    },
    {
      "inputs": [
        {
          "internalType": "uint256",
          "name": "serviceNumber",
          "type": "uint256"
        }
      ],
      "name": "rejectService",
      "outputs": [],
      "stateMutability": "nonpayable",
      "type": "function"
    },
    {
      "inputs": [
        {
          "internalType": "uint256",
          "name": "serviceNumber",
          "type": "uint256"
        }
      ],
      "name": "startRequestedService",
      "outputs": [],
      "stateMutability": "payable",
      "type": "function"
    },
    {
      "inputs": [
        {
          "internalType": "uint256",
          "name": "serviceNumber",
          "type": "uint256"
        }
      ],
      "name": "completeService",
      "outputs": [],
      "stateMutability": "nonpayable",
      "type": "function"
    },
    {
      "inputs": [],
      "name": "statusService",
      "outputs": [],
      "stateMutability": "nonpayable",
      "type": "function"
    },
    {
      "inputs": [],
      "name": "registerProfile",
      "outputs": [],
      "stateMutability": "nonpayable",
      "type": "function"
    },
    {
      "inputs": [],
      "name": "removeProfile",
      "outputs": [],
      "stateMutability": "nonpayable",
      "type": "function"
    }
  ],
  "bytecode": "0x60806040523480156200001157600080fd5b506040516200127a3803806200127a83398181016040528101906200003791906200018f565b80600481905550826000806101000a81548173ffffffffffffffffffffffffffffffffffffffff021916908373ffffffffffffffffffffffffffffffffffffffff16021790555081600160006101000a81548173ffffffffffffffffffffffffffffffffffffffff021916908373ffffffffffffffffffffffffffffffffffffffff16021790555033600260006101000a81548173ffffffffffffffffffffffffffffffffffffffff021916908373ffffffffffffffffffffffffffffffffffffffff16021790555033600360006101000a81548173ffffffffffffffffffffffffffffffffffffffff021916908373ffffffffffffffffffffffffffffffffffffffff16021790555050505062000299565b6000815190506200015b816200024b565b92915050565b600081519050620001728162000265565b92915050565b60008151905062000189816200027f565b92915050565b600080600060608486031215620001a557600080fd5b6000620001b5868287016200014a565b9350506020620001c88682870162000161565b9250506040620001db8682870162000178565b9150509250925092565b6000620001f28262000221565b9050919050565b60006200020682620001e5565b9050919050565b60006200021a82620001e5565b9050919050565b600073ffffffffffffffffffffffffffffffffffffffff82169050919050565b6000819050919050565b6200025681620001f9565b81146200026257600080fd5b50565b62000270816200020d565b81146200027c57600080fd5b50565b6200028a8162000241565b81146200029657600080fd5b50565b610fd180620002a96000396000f3fe6080604052600436106100c25760003560e01c8063741a75911161007f578063b254871311610059578063b25487131461021b578063c0d9223714610244578063eab6af7814610260578063ec4a8a3814610277576100c2565b8063741a7591146101ab5780637b15f1b6146101d65780638ce0ed08146101f2576100c2565b8063019fcdea146100c75780630554dae2146100f057806308c6c8751461011957806321c8bafe146101425780632b64b66e1461016b5780632f3ccebd14610182575b600080fd5b3480156100d357600080fd5b506100ee60048036038101906100e99190610be5565b61028e565b005b3480156100fc57600080fd5b5061011760048036038101906101129190610be5565b61031e565b005b34801561012557600080fd5b50610140600480360381019061013b9190610be5565b6103ae565b005b34801561014e57600080fd5b5061016960048036038101906101649190610be5565b61043e565b005b34801561017757600080fd5b506101806104ce565b005b34801561018e57600080fd5b506101a960048036038101906101a49190610be5565b6104d0565b005b3480156101b757600080fd5b506101c0610560565b6040516101cd9190610d84565b60405180910390f35b6101f060048036038101906101eb9190610b66565b610566565b005b3480156101fe57600080fd5b5061021960048036038101906102149190610be5565b61061d565b005b34801561022757600080fd5b50610242600480360381019061023d9190610be5565b6106ad565b005b61025e60048036038101906102599190610be5565b61073d565b005b34801561026c57600080fd5b50610275610a92565b005b34801561028357600080fd5b5061028c610a94565b005b600160009054906101000a900473ffffffffffffffffffffffffffffffffffffffff1673ffffffffffffffffffffffffffffffffffffffff1663019fcdea826040518263ffffffff1660e01b81526004016102e99190610d84565b600060405180830381600087803b15801561030357600080fd5b505af1158015610317573d6000803e3d6000fd5b5050505050565b600160009054906101000a900473ffffffffffffffffffffffffffffffffffffffff1673ffffffffffffffffffffffffffffffffffffffff16630554dae2826040518263ffffffff1660e01b81526004016103799190610d84565b600060405180830381600087803b15801561039357600080fd5b505af11580156103a7573d6000803e3d6000fd5b5050505050565b600160009054906101000a900473ffffffffffffffffffffffffffffffffffffffff1673ffffffffffffffffffffffffffffffffffffffff166308c6c875826040518263ffffffff1660e01b81526004016104099190610d84565b600060405180830381600087803b15801561042357600080fd5b505af1158015610437573d6000803e3d6000fd5b5050505050565b600160009054906101000a900473ffffffffffffffffffffffffffffffffffffffff1673ffffffffffffffffffffffffffffffffffffffff16632138f0a3826040518263ffffffff1660e01b81526004016104999190610d84565b600060405180830381600087803b1580156104b357600080fd5b505af11580156104c7573d6000803e3d6000fd5b5050505050565b565b600160009054906101000a900473ffffffffffffffffffffffffffffffffffffffff1673ffffffffffffffffffffffffffffffffffffffff16632f3ccebd826040518263ffffffff1660e01b815260040161052b9190610d84565b600060405180830381600087803b15801561054557600080fd5b505af1158015610559573d6000803e3d6000fd5b5050505050565b60045481565b600160009054906101000a900473ffffffffffffffffffffffffffffffffffffffff1673ffffffffffffffffffffffffffffffffffffffff16633ca6d1008484846040518463ffffffff1660e01b81526004016105c593929190610cff565b602060405180830381600087803b1580156105df57600080fd5b505af11580156105f3573d6000803e3d6000fd5b505050506040513d601f19601f820116820180604052508101906106179190610c0e565b50505050565b600160009054906101000a900473ffffffffffffffffffffffffffffffffffffffff1673ffffffffffffffffffffffffffffffffffffffff16638ce0ed08826040518263ffffffff1660e01b81526004016106789190610d84565b600060405180830381600087803b15801561069257600080fd5b505af11580156106a6573d6000803e3d6000fd5b5050505050565b600160009054906101000a900473ffffffffffffffffffffffffffffffffffffffff1673ffffffffffffffffffffffffffffffffffffffff16638d658d54826040518263ffffffff1660e01b81526004016107089190610d84565b600060405180830381600087803b15801561072257600080fd5b505af1158015610736573d6000803e3d6000fd5b5050505050565b600454600160009054906101000a900473ffffffffffffffffffffffffffffffffffffffff1673ffffffffffffffffffffffffffffffffffffffff1663c03f9b44836040518263ffffffff1660e01b815260040161079b9190610d84565b60206040518083038186803b1580156107b357600080fd5b505afa1580156107c7573d6000803e3d6000fd5b505050506040513d601f19601f820116820180604052508101906107eb9190610c0e565b6107f59190610e1c565b341015610837576040517f08c379a000000000000000000000000000000000000000000000000000000000815260040161082e90610d64565b60405180910390fd5b600160009054906101000a900473ffffffffffffffffffffffffffffffffffffffff1673ffffffffffffffffffffffffffffffffffffffff1663e4fb7bd5826040518263ffffffff1660e01b81526004016108929190610d84565b60206040518083038186803b1580156108aa57600080fd5b505afa1580156108be573d6000803e3d6000fd5b505050506040513d601f19601f820116820180604052508101906108e29190610b3d565b610921576040517f08c379a000000000000000000000000000000000000000000000000000000000815260040161091890610d44565b60405180910390fd5b600360009054906101000a900473ffffffffffffffffffffffffffffffffffffffff1673ffffffffffffffffffffffffffffffffffffffff166108fc6004549081150290604051600060405180830381858888f1935050505015801561098b573d6000803e3d6000fd5b50600260009054906101000a900473ffffffffffffffffffffffffffffffffffffffff1673ffffffffffffffffffffffffffffffffffffffff166108fc600454346109d69190610e72565b9081150290604051600060405180830381858888f19350505050158015610a01573d6000803e3d6000fd5b50600160009054906101000a900473ffffffffffffffffffffffffffffffffffffffff1673ffffffffffffffffffffffffffffffffffffffff1663c0d92237826040518263ffffffff1660e01b8152600401610a5d9190610d84565b600060405180830381600087803b158015610a7757600080fd5b505af1158015610a8b573d6000803e3d6000fd5b5050505050565b565b565b6000610aa9610aa484610dd0565b610d9f565b905082815260208101848484011115610ac157600080fd5b610acc848285610ebc565b509392505050565b600081519050610ae381610f6d565b92915050565b600082601f830112610afa57600080fd5b8135610b0a848260208601610a96565b91505092915050565b600081359050610b2281610f84565b92915050565b600081519050610b3781610f84565b92915050565b600060208284031215610b4f57600080fd5b6000610b5d84828501610ad4565b91505092915050565b600080600060608486031215610b7b57600080fd5b600084013567ffffffffffffffff811115610b9557600080fd5b610ba186828701610ae9565b935050602084013567ffffffffffffffff811115610bbe57600080fd5b610bca86828701610ae9565b9250506040610bdb86828701610b13565b9150509250925092565b600060208284031215610bf757600080fd5b6000610c0584828501610b13565b91505092915050565b600060208284031215610c2057600080fd5b6000610c2e84828501610b28565b91505092915050565b6000610c4282610e00565b610c4c8185610e0b565b9350610c5c818560208601610ecb565b610c6581610f5c565b840191505092915050565b6000610c7d601783610e0b565b91507f53657276696365206973206e6f7420617070726f7665640000000000000000006000830152602082019050919050565b6000610cbd601983610e0b565b91507f496e73756666696369656e74206761732070726f7669646564000000000000006000830152602082019050919050565b610cf981610eb2565b82525050565b60006060820190508181036000830152610d198186610c37565b90508181036020830152610d2d8185610c37565b9050610d3c6040830184610cf0565b949350505050565b60006020820190508181036000830152610d5d81610c70565b9050919050565b60006020820190508181036000830152610d7d81610cb0565b9050919050565b6000602082019050610d996000830184610cf0565b92915050565b6000604051905081810181811067ffffffffffffffff82111715610dc657610dc5610f2d565b5b8060405250919050565b600067ffffffffffffffff821115610deb57610dea610f2d565b5b601f19601f8301169050602081019050919050565b600081519050919050565b600082825260208201905092915050565b6000610e2782610eb2565b9150610e3283610eb2565b9250827fffffffffffffffffffffffffffffffffffffffffffffffffffffffffffffffff03821115610e6757610e66610efe565b5b828201905092915050565b6000610e7d82610eb2565b9150610e8883610eb2565b925082821015610e9b57610e9a610efe565b5b828203905092915050565b60008115159050919050565b6000819050919050565b82818337600083830152505050565b60005b83811015610ee9578082015181840152602081019050610ece565b83811115610ef8576000848401525b50505050565b7f4e487b7100000000000000000000000000000000000000000000000000000000600052601160045260246000fd5b7f4e487b7100000000000000000000000000000000000000000000000000000000600052604160045260246000fd5b6000601f19601f8301169050919050565b610f7681610ea6565b8114610f8157600080fd5b50565b610f8d81610eb2565b8114610f9857600080fd5b5056fea264697066735822122036a3e9a83901e8d0a76792ad90c564920608068408f294a1291e253ec47e608164736f6c63430008000033",
  "immutableReferences": {},
  "source": "// SPDX-License-Identifier: MIT\r\npragma solidity >=0.4.22 <0.9.0;\r\nimport \"./Profile.sol\";\r\nimport \"./Service.sol\";\r\n\r\ncontract Blocktractor {\r\n\r\n    Profile profileContract;\r\n    Service serviceContract;\r\n\r\n    address payable escrow_wallet; // = payable(msg.sender);\r\n    address payable revenue_wallet; // = payable(msg.sender);\r\n    uint256 public comissionFee;\r\n\r\n    constructor(Profile profileAddress, Service serviceAddress, uint256 fee) public {\r\n        comissionFee = fee;\r\n        profileContract = profileAddress;\r\n        serviceContract = serviceAddress;\r\n        escrow_wallet = payable(msg.sender);\r\n        revenue_wallet = payable(msg.sender);\r\n    }\r\n\r\n    // Verified Profiles are allowed to create service\r\n    function createService(string memory title, string memory description, uint256 price) public payable { \r\n        serviceContract.create(title,description,price);\r\n    }\r\n\r\n    // Verified Profiles are allowed to list service\r\n    function listService(uint256 serviceNumber) public {\r\n        serviceContract.listService(serviceNumber);\r\n    }\r\n\r\n    // Verified Profiles are allowed to delist service\r\n    function delistService(uint256 serviceNumber) public {\r\n        serviceContract.delistService(serviceNumber);\r\n    } \r\n    \r\n    // Requesting for a service\r\n    function requestService(uint256 serviceNumber) public {\r\n        serviceContract.requestService(serviceNumber);\r\n    }\r\n\r\n    // Cancelling requested service\r\n    function cancelRequestService(uint256 serviceNumber) public {\r\n        serviceContract.cancelRequestService(serviceNumber);\r\n    }\r\n\r\n    // Approving requested service request\r\n    function approveService(uint256 serviceNumber) public {\r\n        serviceContract.approveServiceRequest(serviceNumber);\r\n    }\r\n\r\n    // Reject requested service request\r\n    function rejectService(uint256 serviceNumber) public {\r\n        serviceContract.rejectServiceRequest(serviceNumber);\r\n    }\r\n\r\n    // \r\n    function startRequestedService(uint256 serviceNumber) public payable {\r\n        require(msg.value >= (serviceContract.getServicePrice(serviceNumber) + comissionFee), \"Insufficient gas provided\");\r\n        require(serviceContract.isServiceApproved(serviceNumber),\"Service is not approved\");\r\n        revenue_wallet.transfer(comissionFee);\r\n        escrow_wallet.transfer(msg.value-comissionFee);\r\n        serviceContract.startRequestedService(serviceNumber);\r\n    }\r\n\r\n    // Function that completes listed Service\r\n    function completeService(uint256 serviceNumber) public {\r\n        // Service provider completes service\r\n        serviceContract.completeService(serviceNumber);\r\n    }\r\n\r\n    // Getter for service status\r\n    function statusService() public {\r\n        \r\n    }\r\n    // Registering user profile on marketplace\r\n    function registerProfile() public {\r\n\r\n    }\r\n\r\n    // Removing user profile on marketplace\r\n    function removeProfile() public {\r\n\r\n    }\r\n\r\n\r\n}",
  "sourcePath": "C:\\Users\\joobi\\Desktop\\IS4302\\Project\\IS4302\\contracts\\Blocktractor.sol",
  "compiler": {
    "name": "solc",
    "version": "0.8.0+commit.c7dfd78e.Emscripten.clang"
  },
  "schemaVersion": "3.4.4",
  "updatedAt": "2022-03-14T09:35:34.789Z",
  "devdoc": {
    "kind": "dev",
    "methods": {},
    "version": 1
  },
  "userdoc": {
    "kind": "user",
    "methods": {},
    "version": 1
  }
}