{
  "contractName": "Blocktractor",
  "abi": [
    {
      "inputs": [
        {
          "internalType": "contract Profile",
          "name": "profileAddress",
          "type": "address"
        },
        {
          "internalType": "contract Service",
          "name": "serviceAddress",
          "type": "address"
        },
        {
          "internalType": "uint256",
          "name": "fee",
          "type": "uint256"
        }
      ],
      "stateMutability": "nonpayable",
      "type": "constructor"
    },
    {
      "anonymous": false,
      "inputs": [
        {
          "indexed": false,
          "internalType": "uint256",
          "name": "serviceNumber",
          "type": "uint256"
        }
      ],
      "name": "serviceDelisted",
      "type": "event"
    },
    {
      "anonymous": false,
      "inputs": [
        {
          "indexed": false,
          "internalType": "uint256",
          "name": "serviceNumber",
          "type": "uint256"
        }
      ],
      "name": "serviceListed",
      "type": "event"
    },
    {
      "inputs": [],
      "name": "comissionFee",
      "outputs": [
        {
          "internalType": "uint256",
          "name": "",
          "type": "uint256"
        }
      ],
      "stateMutability": "view",
      "type": "function"
    },
    {
      "inputs": [
        {
          "internalType": "uint256",
          "name": "serviceNumber",
          "type": "uint256"
        }
      ],
      "name": "listService",
      "outputs": [],
      "stateMutability": "nonpayable",
      "type": "function"
    },
    {
      "inputs": [
        {
          "internalType": "uint256",
          "name": "serviceNumber",
          "type": "uint256"
        }
      ],
      "name": "delistService",
      "outputs": [],
      "stateMutability": "nonpayable",
      "type": "function"
    },
    {
      "inputs": [
        {
          "internalType": "uint256",
          "name": "serviceNumber",
          "type": "uint256"
        }
      ],
      "name": "requestService",
      "outputs": [],
      "stateMutability": "nonpayable",
      "type": "function"
    },
    {
      "inputs": [
        {
          "internalType": "uint256",
          "name": "serviceNumber",
          "type": "uint256"
        }
      ],
      "name": "cancelRequestService",
      "outputs": [],
      "stateMutability": "nonpayable",
      "type": "function"
    },
    {
      "inputs": [
        {
          "internalType": "uint256",
          "name": "serviceNumber",
          "type": "uint256"
        }
      ],
      "name": "approveService",
      "outputs": [],
      "stateMutability": "nonpayable",
      "type": "function"
    },
    {
      "inputs": [
        {
          "internalType": "uint256",
          "name": "serviceNumber",
          "type": "uint256"
        }
      ],
      "name": "rejectService",
      "outputs": [],
      "stateMutability": "nonpayable",
      "type": "function"
    },
    {
      "inputs": [
        {
          "internalType": "uint256",
          "name": "serviceNumber",
          "type": "uint256"
        }
      ],
      "name": "startRequestedService",
      "outputs": [],
      "stateMutability": "payable",
      "type": "function"
    },
    {
      "inputs": [
        {
          "internalType": "uint256",
          "name": "serviceNumber",
          "type": "uint256"
        }
      ],
      "name": "completeService",
      "outputs": [],
      "stateMutability": "nonpayable",
      "type": "function"
    },
    {
      "inputs": [],
      "name": "statusService",
      "outputs": [],
      "stateMutability": "nonpayable",
      "type": "function"
    },
    {
      "inputs": [],
      "name": "registerProfile",
      "outputs": [],
      "stateMutability": "nonpayable",
      "type": "function"
    },
    {
      "inputs": [],
      "name": "removeProfile",
      "outputs": [],
      "stateMutability": "nonpayable",
      "type": "function"
    },
    {
      "inputs": [
        {
          "internalType": "uint256",
          "name": "serviceNumber",
          "type": "uint256"
        }
      ],
      "name": "isListed",
      "outputs": [
        {
          "internalType": "bool",
          "name": "",
          "type": "bool"
        }
      ],
      "stateMutability": "view",
      "type": "function"
    }
  ],
  "bytecode": "0x608060405233600360006101000a81548173ffffffffffffffffffffffffffffffffffffffff021916908373ffffffffffffffffffffffffffffffffffffffff16021790555033600460006101000a81548173ffffffffffffffffffffffffffffffffffffffff021916908373ffffffffffffffffffffffffffffffffffffffff1602179055503480156200009357600080fd5b506040516200163c3803806200163c8339818101604052810190620000b991906200018f565b80600581905550826000806101000a81548173ffffffffffffffffffffffffffffffffffffffff021916908373ffffffffffffffffffffffffffffffffffffffff16021790555081600160006101000a81548173ffffffffffffffffffffffffffffffffffffffff021916908373ffffffffffffffffffffffffffffffffffffffff16021790555050505062000299565b6000815190506200015b816200024b565b92915050565b600081519050620001728162000265565b92915050565b60008151905062000189816200027f565b92915050565b600080600060608486031215620001a557600080fd5b6000620001b5868287016200014a565b9350506020620001c88682870162000161565b9250506040620001db8682870162000178565b9150509250925092565b6000620001f28262000221565b9050919050565b60006200020682620001e5565b9050919050565b60006200021a82620001e5565b9050919050565b600073ffffffffffffffffffffffffffffffffffffffff82169050919050565b6000819050919050565b6200025681620001f9565b81146200026257600080fd5b50565b62000270816200020d565b81146200027c57600080fd5b50565b6200028a8162000241565b81146200029657600080fd5b50565b61139380620002a96000396000f3fe6080604052600436106100c25760003560e01c8063741a75911161007f578063c0d9223711610059578063c0d9223714610228578063eab6af7814610244578063ec4a8a381461025b578063fcce488314610272576100c2565b8063741a7591146101ab5780638ce0ed08146101d6578063b2548713146101ff576100c2565b8063019fcdea146100c75780630554dae2146100f057806308c6c8751461011957806321c8bafe146101425780632b64b66e1461016b5780632f3ccebd14610182575b600080fd5b3480156100d357600080fd5b506100ee60048036038101906100e99190610f11565b6102af565b005b3480156100fc57600080fd5b5061011760048036038101906101129190610f11565b61033f565b005b34801561012557600080fd5b50610140600480360381019061013b9190610f11565b61050d565b005b34801561014e57600080fd5b5061016960048036038101906101649190610f11565b610841565b005b34801561017757600080fd5b506101806108d1565b005b34801561018e57600080fd5b506101a960048036038101906101a49190610f11565b6108d3565b005b3480156101b757600080fd5b506101c0610963565b6040516101cd91906111a2565b60405180910390f35b3480156101e257600080fd5b506101fd60048036038101906101f89190610f11565b610969565b005b34801561020b57600080fd5b5061022660048036038101906102219190610f11565b6109f9565b005b610242600480360381019061023d9190610f11565b610a89565b005b34801561025057600080fd5b50610259610dde565b005b34801561026757600080fd5b50610270610de0565b005b34801561027e57600080fd5b5061029960048036038101906102949190610f11565b610de2565b6040516102a691906110e7565b60405180910390f35b600160009054906101000a900473ffffffffffffffffffffffffffffffffffffffff1673ffffffffffffffffffffffffffffffffffffffff1663019fcdea826040518263ffffffff1660e01b815260040161030a91906111a2565b600060405180830381600087803b15801561032457600080fd5b505af1158015610338573d6000803e3d6000fd5b5050505050565b80600160009054906101000a900473ffffffffffffffffffffffffffffffffffffffff1673ffffffffffffffffffffffffffffffffffffffff1663802ffb45826040518263ffffffff1660e01b815260040161039b91906111a2565b60206040518083038186803b1580156103b357600080fd5b505afa1580156103c7573d6000803e3d6000fd5b505050506040513d601f19601f820116820180604052508101906103eb9190610ebf565b73ffffffffffffffffffffffffffffffffffffffff163373ffffffffffffffffffffffffffffffffffffffff1614610458576040517f08c379a000000000000000000000000000000000000000000000000000000000815260040161044f90611122565b60405180910390fd5b816000151561046682610de2565b1515146104a8576040517f08c379a000000000000000000000000000000000000000000000000000000000815260040161049f90611182565b60405180910390fd5b60028390806001815401808255809150506001900390600052602060002001600090919091909150557f8aa5acfb9de7384cc70cf85e35784fbb0d540d8168e39448a0ea9ec7b5e38e7e8360405161050091906111a2565b60405180910390a1505050565b80600160009054906101000a900473ffffffffffffffffffffffffffffffffffffffff1673ffffffffffffffffffffffffffffffffffffffff1663802ffb45826040518263ffffffff1660e01b815260040161056991906111a2565b60206040518083038186803b15801561058157600080fd5b505afa158015610595573d6000803e3d6000fd5b505050506040513d601f19601f820116820180604052508101906105b99190610ebf565b73ffffffffffffffffffffffffffffffffffffffff163373ffffffffffffffffffffffffffffffffffffffff1614610626576040517f08c379a000000000000000000000000000000000000000000000000000000000815260040161061d90611122565b60405180910390fd5b816001151561063482610de2565b151514610676576040517f08c379a000000000000000000000000000000000000000000000000000000000815260040161066d90611142565b60405180910390fd5b60005b6002805490508110156106ea5783600282815481106106c1577f4e487b7100000000000000000000000000000000000000000000000000000000600052603260045260246000fd5b906000526020600020015414156106d7576106ea565b80806106e2906112a0565b915050610679565b60008190505b60016002805490506107029190611224565b8110156107b557600260018261071891906111ce565b8154811061074f577f4e487b7100000000000000000000000000000000000000000000000000000000600052603260045260246000fd5b906000526020600020015460028281548110610794577f4e487b7100000000000000000000000000000000000000000000000000000000600052603260045260246000fd5b906000526020600020018190555080806107ad906112a0565b9150506106f0565b5060028054806107ee577f4e487b7100000000000000000000000000000000000000000000000000000000600052603160045260246000fd5b600190038181906000526020600020016000905590557f84392f121798d8821a50a433c1596c4009368833cfde4af38b3e6e54c77828568460405161083391906111a2565b60405180910390a150505050565b600160009054906101000a900473ffffffffffffffffffffffffffffffffffffffff1673ffffffffffffffffffffffffffffffffffffffff16632138f0a3826040518263ffffffff1660e01b815260040161089c91906111a2565b600060405180830381600087803b1580156108b657600080fd5b505af11580156108ca573d6000803e3d6000fd5b5050505050565b565b600160009054906101000a900473ffffffffffffffffffffffffffffffffffffffff1673ffffffffffffffffffffffffffffffffffffffff16632f3ccebd826040518263ffffffff1660e01b815260040161092e91906111a2565b600060405180830381600087803b15801561094857600080fd5b505af115801561095c573d6000803e3d6000fd5b5050505050565b60055481565b600160009054906101000a900473ffffffffffffffffffffffffffffffffffffffff1673ffffffffffffffffffffffffffffffffffffffff16638ce0ed08826040518263ffffffff1660e01b81526004016109c491906111a2565b600060405180830381600087803b1580156109de57600080fd5b505af11580156109f2573d6000803e3d6000fd5b5050505050565b600160009054906101000a900473ffffffffffffffffffffffffffffffffffffffff1673ffffffffffffffffffffffffffffffffffffffff16638d658d54826040518263ffffffff1660e01b8152600401610a5491906111a2565b600060405180830381600087803b158015610a6e57600080fd5b505af1158015610a82573d6000803e3d6000fd5b5050505050565b600554600160009054906101000a900473ffffffffffffffffffffffffffffffffffffffff1673ffffffffffffffffffffffffffffffffffffffff1663c03f9b44836040518263ffffffff1660e01b8152600401610ae791906111a2565b60206040518083038186803b158015610aff57600080fd5b505afa158015610b13573d6000803e3d6000fd5b505050506040513d601f19601f82011682018060405250810190610b379190610f3a565b610b4191906111ce565b341015610b83576040517f08c379a0000000000000000000000000000000000000000000000000000000008152600401610b7a90611162565b60405180910390fd5b600160009054906101000a900473ffffffffffffffffffffffffffffffffffffffff1673ffffffffffffffffffffffffffffffffffffffff1663e4fb7bd5826040518263ffffffff1660e01b8152600401610bde91906111a2565b60206040518083038186803b158015610bf657600080fd5b505afa158015610c0a573d6000803e3d6000fd5b505050506040513d601f19601f82011682018060405250810190610c2e9190610ee8565b610c6d576040517f08c379a0000000000000000000000000000000000000000000000000000000008152600401610c6490611102565b60405180910390fd5b600460009054906101000a900473ffffffffffffffffffffffffffffffffffffffff1673ffffffffffffffffffffffffffffffffffffffff166108fc6005549081150290604051600060405180830381858888f19350505050158015610cd7573d6000803e3d6000fd5b50600360009054906101000a900473ffffffffffffffffffffffffffffffffffffffff1673ffffffffffffffffffffffffffffffffffffffff166108fc60055434610d229190611224565b9081150290604051600060405180830381858888f19350505050158015610d4d573d6000803e3d6000fd5b50600160009054906101000a900473ffffffffffffffffffffffffffffffffffffffff1673ffffffffffffffffffffffffffffffffffffffff1663c0d92237826040518263ffffffff1660e01b8152600401610da991906111a2565b600060405180830381600087803b158015610dc357600080fd5b505af1158015610dd7573d6000803e3d6000fd5b5050505050565b565b565b6000806000905060005b600280549050811015610e61578360028281548110610e34577f4e487b7100000000000000000000000000000000000000000000000000000000600052603260045260246000fd5b90600052602060002001541415610e4e5760019150610e61565b8080610e59906112a0565b915050610dec565b5080915050919050565b600081519050610e7a81611318565b92915050565b600081519050610e8f8161132f565b92915050565b600081359050610ea481611346565b92915050565b600081519050610eb981611346565b92915050565b600060208284031215610ed157600080fd5b6000610edf84828501610e6b565b91505092915050565b600060208284031215610efa57600080fd5b6000610f0884828501610e80565b91505092915050565b600060208284031215610f2357600080fd5b6000610f3184828501610e95565b91505092915050565b600060208284031215610f4c57600080fd5b6000610f5a84828501610eaa565b91505092915050565b610f6c8161126a565b82525050565b6000610f7f6017836111bd565b91507f53657276696365206973206e6f7420617070726f7665640000000000000000006000830152602082019050919050565b6000610fbf602e836111bd565b91507f4f6e6c7920536572766963652050726f7669646572732063616e20706572666f60008301527f726d207468697320616374696f6e0000000000000000000000000000000000006020830152604082019050919050565b60006110256015836111bd565b91507f53657276696365206973206e6f74206c697374656400000000000000000000006000830152602082019050919050565b60006110656019836111bd565b91507f496e73756666696369656e74206761732070726f7669646564000000000000006000830152602082019050919050565b60006110a56019836111bd565b91507f5365727669636520697320616c7265616479206c6973746564000000000000006000830152602082019050919050565b6110e181611296565b82525050565b60006020820190506110fc6000830184610f63565b92915050565b6000602082019050818103600083015261111b81610f72565b9050919050565b6000602082019050818103600083015261113b81610fb2565b9050919050565b6000602082019050818103600083015261115b81611018565b9050919050565b6000602082019050818103600083015261117b81611058565b9050919050565b6000602082019050818103600083015261119b81611098565b9050919050565b60006020820190506111b760008301846110d8565b92915050565b600082825260208201905092915050565b60006111d982611296565b91506111e483611296565b9250827fffffffffffffffffffffffffffffffffffffffffffffffffffffffffffffffff03821115611219576112186112e9565b5b828201905092915050565b600061122f82611296565b915061123a83611296565b92508282101561124d5761124c6112e9565b5b828203905092915050565b600061126382611276565b9050919050565b60008115159050919050565b600073ffffffffffffffffffffffffffffffffffffffff82169050919050565b6000819050919050565b60006112ab82611296565b91507fffffffffffffffffffffffffffffffffffffffffffffffffffffffffffffffff8214156112de576112dd6112e9565b5b600182019050919050565b7f4e487b7100000000000000000000000000000000000000000000000000000000600052601160045260246000fd5b61132181611258565b811461132c57600080fd5b50565b6113388161126a565b811461134357600080fd5b50565b61134f81611296565b811461135a57600080fd5b5056fea26469706673582212205df20a0008fa6faaae162902c7e2f8b8656398fa60dac595179799c63283f47064736f6c63430008000033",
  "immutableReferences": {},
  "source": "// SPDX-License-Identifier: MIT\npragma solidity >=0.4.22 <0.9.0;\nimport \"./Profile.sol\";\nimport \"./Service.sol\";\n\ncontract Blocktractor {\n\n    event serviceListed(uint256 serviceNumber);\n    event serviceDelisted(uint256 serviceNumber);\n\n    Profile profileContract;\n    Service serviceContract;\n\n    uint256[] listedServices; // list of listed services (by serviceNumber)\n\n    address payable escrow_wallet = payable(msg.sender);\n    address payable revenue_wallet = payable(msg.sender);\n    uint256 public comissionFee;\n\n    constructor(Profile profileAddress, Service serviceAddress, uint256 fee) {\n        comissionFee = fee;\n        profileContract = profileAddress;\n        serviceContract = serviceAddress;\n    }\n\n    modifier onlyServiceProvider(uint256 serviceNumber){\n        // only allow service providers to perform the action\n        require(msg.sender == serviceContract.getServiceProvider(serviceNumber), \"Only Service Providers can perform this action\");\n        _;\n    }\n\n    modifier listedService(uint256 serviceNumber){\n        require(isListed(serviceNumber) == true,\"Service is not listed\");\n        _;\n    }\n\n    modifier notListedService(uint256 serviceNumber){\n        require(isListed(serviceNumber) == false,\"Service is already listed\");\n        _;\n    }\n\n    // Verified Profiles are allowed to create service\n    /*function createService(string memory title, string memory description, uint256 price) public payable { \n        serviceContract.createService(title,description,price);\n    }\n\n    function deleteService(uint256 serviceNumber) public{\n        serviceContract.deleteService(serviceNumber);\n    }*/\n\n    // Verified Profiles are allowed to list service\n    function listService(uint256 serviceNumber) public onlyServiceProvider(serviceNumber) notListedService(serviceNumber) {\n        //serviceContract.listService(serviceNumber);\n\n        listedServices.push(serviceNumber);\n        emit serviceListed(serviceNumber);\n    }\n\n    // Verified Profiles are allowed to delist service\n    function delistService(uint256 serviceNumber) public onlyServiceProvider(serviceNumber) listedService(serviceNumber) {\n        //serviceContract.delistService(serviceNumber);\n        // Ensure that service is listed\n        uint256 i;\n        for(i = 0; i < listedServices.length; i++){\n            if (listedServices[i] == serviceNumber){\n                break;\n            }\n        }\n\n        // Remove element from listedServices array\n        for(uint256 j = i; j < listedServices.length-1; j++){\n            listedServices[j] = listedServices[j+1]; //decrement the index\n        }\n        listedServices.pop(); // the last element is not supposed to be there\n\n        emit serviceDelisted(serviceNumber);\n    } \n    \n    // Requesting for a service\n    function requestService(uint256 serviceNumber) public {\n        serviceContract.requestService(serviceNumber);\n    }\n\n    // Cancelling requested service\n    function cancelRequestService(uint256 serviceNumber) public {\n        serviceContract.cancelRequestService(serviceNumber);\n    }\n\n    // Approving requested service request\n    function approveService(uint256 serviceNumber) public {\n        serviceContract.approveServiceRequest(serviceNumber);\n    }\n\n    // Reject requested service request\n    function rejectService(uint256 serviceNumber) public {\n        serviceContract.rejectServiceRequest(serviceNumber);\n    }\n\n    // \n    function startRequestedService(uint256 serviceNumber) public payable {\n        require(msg.value >= (serviceContract.getServicePrice(serviceNumber) + comissionFee), \"Insufficient gas provided\");\n        require(serviceContract.isServiceApproved(serviceNumber),\"Service is not approved\");\n        revenue_wallet.transfer(comissionFee);\n        escrow_wallet.transfer(msg.value-comissionFee);\n        serviceContract.startRequestedService(serviceNumber);\n    }\n\n    // Function that completes listed Service\n    function completeService(uint256 serviceNumber) public {\n        // Service provider completes service\n        serviceContract.completeService(serviceNumber);\n    }\n\n    // Getter for service status\n    function statusService() public {\n        \n    }\n    // Registering user profile on marketplace\n    function registerProfile() public {\n\n    }\n\n    // Removing user profile on marketplace\n    function removeProfile() public {\n\n    }\n\n    /* Getter Functions */\n\n    function isListed(uint256 serviceNumber) public view returns (bool){\n        bool listed = false;\n        for(uint256 i = 0; i < listedServices.length; i++){\n            if (listedServices[i] == serviceNumber){\n                listed=true;\n                break;\n            }\n        }\n        return listed;\n    }\n\n}",
  "sourcePath": "/mnt/c/Users/Lenovo/OneDrive/Documents/github/IS4302/contracts/Blocktractor.sol",
  "compiler": {
    "name": "solc",
    "version": "0.8.0+commit.c7dfd78e.Emscripten.clang"
  },
  "schemaVersion": "3.4.4",
  "updatedAt": "2022-03-25T12:38:15.190Z",
  "networkType": "ethereum",
  "devdoc": {
    "kind": "dev",
    "methods": {},
    "version": 1
  },
  "userdoc": {
    "kind": "user",
    "methods": {},
    "version": 1
  }
}