{
  "contractName": "Blocktractor",
  "abi": [
    {
      "inputs": [
        {
          "internalType": "contract Profile",
          "name": "profileAddress",
          "type": "address"
        },
        {
          "internalType": "contract Service",
          "name": "serviceAddress",
          "type": "address"
        },
        {
          "internalType": "uint256",
          "name": "fee",
          "type": "uint256"
        }
      ],
      "stateMutability": "nonpayable",
      "type": "constructor"
    },
    {
      "anonymous": false,
      "inputs": [
        {
          "indexed": false,
          "internalType": "uint256",
          "name": "serviceNumber",
          "type": "uint256"
        }
      ],
      "name": "serviceDelisted",
      "type": "event"
    },
    {
      "anonymous": false,
      "inputs": [
        {
          "indexed": false,
          "internalType": "uint256",
          "name": "serviceNumber",
          "type": "uint256"
        }
      ],
      "name": "serviceListed",
      "type": "event"
    },
    {
      "inputs": [],
      "name": "comissionFee",
      "outputs": [
        {
          "internalType": "uint256",
          "name": "",
          "type": "uint256"
        }
      ],
      "stateMutability": "view",
      "type": "function"
    },
    {
      "inputs": [
        {
          "internalType": "uint256",
          "name": "serviceNumber",
          "type": "uint256"
        }
      ],
      "name": "listService",
      "outputs": [],
      "stateMutability": "nonpayable",
      "type": "function"
    },
    {
      "inputs": [
        {
          "internalType": "uint256",
          "name": "serviceNumber",
          "type": "uint256"
        }
      ],
      "name": "delistService",
      "outputs": [],
      "stateMutability": "nonpayable",
      "type": "function"
    },
    {
      "inputs": [
        {
          "internalType": "uint256",
          "name": "serviceNumber",
          "type": "uint256"
        }
      ],
      "name": "requestService",
      "outputs": [],
      "stateMutability": "nonpayable",
      "type": "function"
    },
    {
      "inputs": [
        {
          "internalType": "uint256",
          "name": "serviceNumber",
          "type": "uint256"
        }
      ],
      "name": "cancelRequestService",
      "outputs": [],
      "stateMutability": "nonpayable",
      "type": "function"
    },
    {
      "inputs": [
        {
          "internalType": "uint256",
          "name": "serviceNumber",
          "type": "uint256"
        }
      ],
      "name": "approveService",
      "outputs": [],
      "stateMutability": "nonpayable",
      "type": "function"
    },
    {
      "inputs": [
        {
          "internalType": "uint256",
          "name": "serviceNumber",
          "type": "uint256"
        }
      ],
      "name": "rejectService",
      "outputs": [],
      "stateMutability": "nonpayable",
      "type": "function"
    },
    {
      "inputs": [
        {
          "internalType": "uint256",
          "name": "serviceNumber",
          "type": "uint256"
        }
      ],
      "name": "startRequestedService",
      "outputs": [],
      "stateMutability": "payable",
      "type": "function"
    },
    {
      "inputs": [
        {
          "internalType": "uint256",
          "name": "serviceNumber",
          "type": "uint256"
        }
      ],
      "name": "completeService",
      "outputs": [],
      "stateMutability": "nonpayable",
      "type": "function"
    },
    {
      "inputs": [],
      "name": "statusService",
      "outputs": [],
      "stateMutability": "nonpayable",
      "type": "function"
    },
    {
      "inputs": [],
      "name": "registerProfile",
      "outputs": [],
      "stateMutability": "nonpayable",
      "type": "function"
    },
    {
      "inputs": [],
      "name": "removeProfile",
      "outputs": [],
      "stateMutability": "nonpayable",
      "type": "function"
    }
  ],
  "bytecode": "0x608060405233600360006101000a81548173ffffffffffffffffffffffffffffffffffffffff021916908373ffffffffffffffffffffffffffffffffffffffff16021790555033600460006101000a81548173ffffffffffffffffffffffffffffffffffffffff021916908373ffffffffffffffffffffffffffffffffffffffff1602179055503480156200009357600080fd5b50604051620014ee380380620014ee8339818101604052810190620000b991906200018f565b80600581905550826000806101000a81548173ffffffffffffffffffffffffffffffffffffffff021916908373ffffffffffffffffffffffffffffffffffffffff16021790555081600160006101000a81548173ffffffffffffffffffffffffffffffffffffffff021916908373ffffffffffffffffffffffffffffffffffffffff16021790555050505062000299565b6000815190506200015b816200024b565b92915050565b600081519050620001728162000265565b92915050565b60008151905062000189816200027f565b92915050565b600080600060608486031215620001a557600080fd5b6000620001b5868287016200014a565b9350506020620001c88682870162000161565b9250506040620001db8682870162000178565b9150509250925092565b6000620001f28262000221565b9050919050565b60006200020682620001e5565b9050919050565b60006200021a82620001e5565b9050919050565b600073ffffffffffffffffffffffffffffffffffffffff82169050919050565b6000819050919050565b6200025681620001f9565b81146200026257600080fd5b50565b62000270816200020d565b81146200027c57600080fd5b50565b6200028a8162000241565b81146200029657600080fd5b50565b61124580620002a96000396000f3fe6080604052600436106100a75760003560e01c8063741a759111610064578063741a7591146101905780638ce0ed08146101bb578063b2548713146101e4578063c0d922371461020d578063eab6af7814610229578063ec4a8a3814610240576100a7565b8063019fcdea146100ac5780630554dae2146100d557806308c6c875146100fe57806321c8bafe146101275780632b64b66e146101505780632f3ccebd14610167575b600080fd5b3480156100b857600080fd5b506100d360048036038101906100ce9190610e73565b610257565b005b3480156100e157600080fd5b506100fc60048036038101906100f79190610e73565b6102e7565b005b34801561010a57600080fd5b5061012560048036038101906101209190610e73565b6104f2565b005b34801561013357600080fd5b5061014e60048036038101906101499190610e73565b61082c565b005b34801561015c57600080fd5b506101656108bc565b005b34801561017357600080fd5b5061018e60048036038101906101899190610e73565b6108be565b005b34801561019c57600080fd5b506101a561094e565b6040516101b29190611054565b60405180910390f35b3480156101c757600080fd5b506101e260048036038101906101dd9190610e73565b610954565b005b3480156101f057600080fd5b5061020b60048036038101906102069190610e73565b6109e4565b005b61022760048036038101906102229190610e73565b610a74565b005b34801561023557600080fd5b5061023e610dc9565b005b34801561024c57600080fd5b50610255610dcb565b005b600160009054906101000a900473ffffffffffffffffffffffffffffffffffffffff1673ffffffffffffffffffffffffffffffffffffffff1663019fcdea826040518263ffffffff1660e01b81526004016102b29190611054565b600060405180830381600087803b1580156102cc57600080fd5b505af11580156102e0573d6000803e3d6000fd5b5050505050565b80600160009054906101000a900473ffffffffffffffffffffffffffffffffffffffff1673ffffffffffffffffffffffffffffffffffffffff1663802ffb45826040518263ffffffff1660e01b81526004016103439190611054565b60206040518083038186803b15801561035b57600080fd5b505afa15801561036f573d6000803e3d6000fd5b505050506040513d601f19601f820116820180604052508101906103939190610e21565b73ffffffffffffffffffffffffffffffffffffffff163373ffffffffffffffffffffffffffffffffffffffff16146103ca57600080fd5b816000805b600280549050811015610444578260028281548110610417577f4e487b7100000000000000000000000000000000000000000000000000000000600052603260045260246000fd5b906000526020600020015414156104315760019150610444565b808061043c90611152565b9150506103cf565b50600115158115151461048c576040517f08c379a000000000000000000000000000000000000000000000000000000000815260040161048390611034565b60405180910390fd5b60028490806001815401808255809150506001900390600052602060002001600090919091909150557f8aa5acfb9de7384cc70cf85e35784fbb0d540d8168e39448a0ea9ec7b5e38e7e846040516104e49190611054565b60405180910390a150505050565b80600160009054906101000a900473ffffffffffffffffffffffffffffffffffffffff1673ffffffffffffffffffffffffffffffffffffffff1663802ffb45826040518263ffffffff1660e01b815260040161054e9190611054565b60206040518083038186803b15801561056657600080fd5b505afa15801561057a573d6000803e3d6000fd5b505050506040513d601f19601f8201168201806040525081019061059e9190610e21565b73ffffffffffffffffffffffffffffffffffffffff163373ffffffffffffffffffffffffffffffffffffffff16146105d557600080fd5b816000805b60028054905081101561064f578260028281548110610622577f4e487b7100000000000000000000000000000000000000000000000000000000600052603260045260246000fd5b9060005260206000200154141561063c576001915061064f565b808061064790611152565b9150506105da565b506000151581151514610697576040517f08c379a000000000000000000000000000000000000000000000000000000000815260040161068e90610ff4565b60405180910390fd5b60005b60028054905081101561070b5784600282815481106106e2577f4e487b7100000000000000000000000000000000000000000000000000000000600052603260045260246000fd5b906000526020600020015414156106f85761070b565b808061070390611152565b91505061069a565b60008190505b600160028054905061072391906110d6565b8110156107d65760026001826107399190611080565b81548110610770577f4e487b7100000000000000000000000000000000000000000000000000000000600052603260045260246000fd5b9060005260206000200154600282815481106107b5577f4e487b7100000000000000000000000000000000000000000000000000000000600052603260045260246000fd5b906000526020600020018190555080806107ce90611152565b915050610711565b50600280548061080f577f4e487b7100000000000000000000000000000000000000000000000000000000600052603160045260246000fd5b600190038181906000526020600020016000905590555050505050565b600160009054906101000a900473ffffffffffffffffffffffffffffffffffffffff1673ffffffffffffffffffffffffffffffffffffffff16632138f0a3826040518263ffffffff1660e01b81526004016108879190611054565b600060405180830381600087803b1580156108a157600080fd5b505af11580156108b5573d6000803e3d6000fd5b5050505050565b565b600160009054906101000a900473ffffffffffffffffffffffffffffffffffffffff1673ffffffffffffffffffffffffffffffffffffffff16632f3ccebd826040518263ffffffff1660e01b81526004016109199190611054565b600060405180830381600087803b15801561093357600080fd5b505af1158015610947573d6000803e3d6000fd5b5050505050565b60055481565b600160009054906101000a900473ffffffffffffffffffffffffffffffffffffffff1673ffffffffffffffffffffffffffffffffffffffff16638ce0ed08826040518263ffffffff1660e01b81526004016109af9190611054565b600060405180830381600087803b1580156109c957600080fd5b505af11580156109dd573d6000803e3d6000fd5b5050505050565b600160009054906101000a900473ffffffffffffffffffffffffffffffffffffffff1673ffffffffffffffffffffffffffffffffffffffff16638d658d54826040518263ffffffff1660e01b8152600401610a3f9190611054565b600060405180830381600087803b158015610a5957600080fd5b505af1158015610a6d573d6000803e3d6000fd5b5050505050565b600554600160009054906101000a900473ffffffffffffffffffffffffffffffffffffffff1673ffffffffffffffffffffffffffffffffffffffff1663c03f9b44836040518263ffffffff1660e01b8152600401610ad29190611054565b60206040518083038186803b158015610aea57600080fd5b505afa158015610afe573d6000803e3d6000fd5b505050506040513d601f19601f82011682018060405250810190610b229190610e9c565b610b2c9190611080565b341015610b6e576040517f08c379a0000000000000000000000000000000000000000000000000000000008152600401610b6590611014565b60405180910390fd5b600160009054906101000a900473ffffffffffffffffffffffffffffffffffffffff1673ffffffffffffffffffffffffffffffffffffffff1663e4fb7bd5826040518263ffffffff1660e01b8152600401610bc99190611054565b60206040518083038186803b158015610be157600080fd5b505afa158015610bf5573d6000803e3d6000fd5b505050506040513d601f19601f82011682018060405250810190610c199190610e4a565b610c58576040517f08c379a0000000000000000000000000000000000000000000000000000000008152600401610c4f90610fd4565b60405180910390fd5b600460009054906101000a900473ffffffffffffffffffffffffffffffffffffffff1673ffffffffffffffffffffffffffffffffffffffff166108fc6005549081150290604051600060405180830381858888f19350505050158015610cc2573d6000803e3d6000fd5b50600360009054906101000a900473ffffffffffffffffffffffffffffffffffffffff1673ffffffffffffffffffffffffffffffffffffffff166108fc60055434610d0d91906110d6565b9081150290604051600060405180830381858888f19350505050158015610d38573d6000803e3d6000fd5b50600160009054906101000a900473ffffffffffffffffffffffffffffffffffffffff1673ffffffffffffffffffffffffffffffffffffffff1663c0d92237826040518263ffffffff1660e01b8152600401610d949190611054565b600060405180830381600087803b158015610dae57600080fd5b505af1158015610dc2573d6000803e3d6000fd5b5050505050565b565b565b600081519050610ddc816111ca565b92915050565b600081519050610df1816111e1565b92915050565b600081359050610e06816111f8565b92915050565b600081519050610e1b816111f8565b92915050565b600060208284031215610e3357600080fd5b6000610e4184828501610dcd565b91505092915050565b600060208284031215610e5c57600080fd5b6000610e6a84828501610de2565b91505092915050565b600060208284031215610e8557600080fd5b6000610e9384828501610df7565b91505092915050565b600060208284031215610eae57600080fd5b6000610ebc84828501610e0c565b91505092915050565b6000610ed260178361106f565b91507f53657276696365206973206e6f7420617070726f7665640000000000000000006000830152602082019050919050565b6000610f1260158361106f565b91507f53657276696365206973206e6f74206c697374656400000000000000000000006000830152602082019050919050565b6000610f5260198361106f565b91507f496e73756666696369656e74206761732070726f7669646564000000000000006000830152602082019050919050565b6000610f9260198361106f565b91507f5365727669636520697320616c7265616479206c6973746564000000000000006000830152602082019050919050565b610fce81611148565b82525050565b60006020820190508181036000830152610fed81610ec5565b9050919050565b6000602082019050818103600083015261100d81610f05565b9050919050565b6000602082019050818103600083015261102d81610f45565b9050919050565b6000602082019050818103600083015261104d81610f85565b9050919050565b60006020820190506110696000830184610fc5565b92915050565b600082825260208201905092915050565b600061108b82611148565b915061109683611148565b9250827fffffffffffffffffffffffffffffffffffffffffffffffffffffffffffffffff038211156110cb576110ca61119b565b5b828201905092915050565b60006110e182611148565b91506110ec83611148565b9250828210156110ff576110fe61119b565b5b828203905092915050565b600061111582611128565b9050919050565b60008115159050919050565b600073ffffffffffffffffffffffffffffffffffffffff82169050919050565b6000819050919050565b600061115d82611148565b91507fffffffffffffffffffffffffffffffffffffffffffffffffffffffffffffffff8214156111905761118f61119b565b5b600182019050919050565b7f4e487b7100000000000000000000000000000000000000000000000000000000600052601160045260246000fd5b6111d38161110a565b81146111de57600080fd5b50565b6111ea8161111c565b81146111f557600080fd5b50565b61120181611148565b811461120c57600080fd5b5056fea26469706673582212209f911c5478bf1be0f4ce56169cdc0f1bdefd00c677d8529f1eef3002cfc5d50164736f6c63430008000033",
  "immutableReferences": {},
  "source": "// SPDX-License-Identifier: MIT\r\npragma solidity >=0.4.22 <0.9.0;\r\nimport \"./Profile.sol\";\r\nimport \"./Service.sol\";\r\n\r\ncontract Blocktractor {\r\n\r\n    event serviceListed(uint256 serviceNumber);\r\n    event serviceDelisted(uint256 serviceNumber);\r\n\r\n    Profile profileContract;\r\n    Service serviceContract;\r\n\r\n    uint256[] listedServices; // list of listed services (by serviceNumber)\r\n\r\n    address payable escrow_wallet = payable(msg.sender);\r\n    address payable revenue_wallet = payable(msg.sender);\r\n    uint256 public comissionFee;\r\n\r\n    constructor(Profile profileAddress, Service serviceAddress, uint256 fee) public {\r\n        comissionFee = fee;\r\n        profileContract = profileAddress;\r\n        serviceContract = serviceAddress;\r\n    }\r\n\r\n    modifier onlyServiceProvider(uint256 serviceNumber){\r\n        // only allow service providers to perform the action\r\n        require(msg.sender == serviceContract.getServiceProvider(serviceNumber));\r\n        _;\r\n    }\r\n\r\n    modifier listedService(uint256 serviceNumber){\r\n        bool listed = false;\r\n        for(uint256 i = 0; i < listedServices.length; i++){\r\n            if (listedServices[i] == serviceNumber){\r\n                listed=true;\r\n                break;\r\n            }\r\n        }\r\n        require(listed == false,\"Service is not listed\");\r\n        _;\r\n    }\r\n\r\n    modifier notListedService(uint256 serviceNumber){\r\n        bool listed = false;\r\n        for(uint256 i = 0; i < listedServices.length; i++){\r\n            if (listedServices[i] == serviceNumber){\r\n                listed=true;\r\n                break;\r\n            }\r\n        }\r\n        require(listed == true,\"Service is already listed\");\r\n        _;\r\n    }\r\n\r\n    // Verified Profiles are allowed to create service\r\n    /*function createService(string memory title, string memory description, uint256 price) public payable { \r\n        serviceContract.createService(title,description,price);\r\n    }\r\n\r\n    function deleteService(uint256 serviceNumber) public{\r\n        serviceContract.deleteService(serviceNumber);\r\n    }*/\r\n\r\n    // Verified Profiles are allowed to list service\r\n    function listService(uint256 serviceNumber) public onlyServiceProvider(serviceNumber) notListedService(serviceNumber) {\r\n        //serviceContract.listService(serviceNumber);\r\n\r\n        listedServices.push(serviceNumber);\r\n        emit serviceListed(serviceNumber);\r\n    }\r\n\r\n    // Verified Profiles are allowed to delist service\r\n    function delistService(uint256 serviceNumber) public onlyServiceProvider(serviceNumber) listedService(serviceNumber) {\r\n        //serviceContract.delistService(serviceNumber);\r\n        // Ensure that service is listed\r\n        uint256 i;\r\n        for(i = 0; i < listedServices.length; i++){\r\n            if (listedServices[i] == serviceNumber){\r\n                break;\r\n            }\r\n        }\r\n\r\n        // Remove element from listedServices array\r\n        for(uint256 j = i; j < listedServices.length-1; j++){\r\n            listedServices[j] = listedServices[j+1]; //decrement the index\r\n        }\r\n        listedServices.pop(); // the last element is not supposed to be there\r\n\r\n    } \r\n    \r\n    // Requesting for a service\r\n    function requestService(uint256 serviceNumber) public {\r\n        serviceContract.requestService(serviceNumber);\r\n    }\r\n\r\n    // Cancelling requested service\r\n    function cancelRequestService(uint256 serviceNumber) public {\r\n        serviceContract.cancelRequestService(serviceNumber);\r\n    }\r\n\r\n    // Approving requested service request\r\n    function approveService(uint256 serviceNumber) public {\r\n        serviceContract.approveServiceRequest(serviceNumber);\r\n    }\r\n\r\n    // Reject requested service request\r\n    function rejectService(uint256 serviceNumber) public {\r\n        serviceContract.rejectServiceRequest(serviceNumber);\r\n    }\r\n\r\n    // \r\n    function startRequestedService(uint256 serviceNumber) public payable {\r\n        require(msg.value >= (serviceContract.getServicePrice(serviceNumber) + comissionFee), \"Insufficient gas provided\");\r\n        require(serviceContract.isServiceApproved(serviceNumber),\"Service is not approved\");\r\n        revenue_wallet.transfer(comissionFee);\r\n        escrow_wallet.transfer(msg.value-comissionFee);\r\n        serviceContract.startRequestedService(serviceNumber);\r\n    }\r\n\r\n    // Function that completes listed Service\r\n    function completeService(uint256 serviceNumber) public {\r\n        // Service provider completes service\r\n        serviceContract.completeService(serviceNumber);\r\n    }\r\n\r\n    // Getter for service status\r\n    function statusService() public {\r\n        \r\n    }\r\n    // Registering user profile on marketplace\r\n    function registerProfile() public {\r\n\r\n    }\r\n\r\n    // Removing user profile on marketplace\r\n    function removeProfile() public {\r\n\r\n    }\r\n\r\n\r\n}",
  "sourcePath": "C:\\Users\\joobi\\Desktop\\IS4302\\Project\\IS4302\\contracts\\Blocktractor.sol",
  "compiler": {
    "name": "solc",
    "version": "0.8.0+commit.c7dfd78e.Emscripten.clang"
  },
  "schemaVersion": "3.4.4",
  "updatedAt": "2022-03-14T13:42:48.849Z",
  "devdoc": {
    "kind": "dev",
    "methods": {},
    "version": 1
  },
  "userdoc": {
    "kind": "user",
    "methods": {},
    "version": 1
  }
}