{
  "contractName": "Blocktractor",
  "abi": [
    {
      "constant": true,
      "inputs": [],
      "name": "comissionFee",
      "outputs": [
        {
          "name": "",
          "type": "uint256"
        }
      ],
      "payable": false,
      "stateMutability": "view",
      "type": "function"
    },
    {
      "inputs": [
        {
          "name": "profileAddress",
          "type": "address"
        },
        {
          "name": "serviceAddress",
          "type": "address"
        },
        {
          "name": "fee",
          "type": "uint256"
        }
      ],
      "payable": false,
      "stateMutability": "nonpayable",
      "type": "constructor"
    },
    {
      "constant": false,
      "inputs": [
        {
          "name": "title",
          "type": "string"
        },
        {
          "name": "description",
          "type": "string"
        },
        {
          "name": "price",
          "type": "uint256"
        }
      ],
      "name": "createService",
      "outputs": [],
      "payable": true,
      "stateMutability": "payable",
      "type": "function"
    },
    {
      "constant": false,
      "inputs": [],
      "name": "listService",
      "outputs": [],
      "payable": false,
      "stateMutability": "nonpayable",
      "type": "function"
    },
    {
      "constant": false,
      "inputs": [],
      "name": "delistService",
      "outputs": [],
      "payable": false,
      "stateMutability": "nonpayable",
      "type": "function"
    },
    {
      "constant": false,
      "inputs": [],
      "name": "requestService",
      "outputs": [],
      "payable": false,
      "stateMutability": "nonpayable",
      "type": "function"
    },
    {
      "constant": false,
      "inputs": [],
      "name": "approveService",
      "outputs": [],
      "payable": false,
      "stateMutability": "nonpayable",
      "type": "function"
    },
    {
      "constant": false,
      "inputs": [],
      "name": "rejectService",
      "outputs": [],
      "payable": false,
      "stateMutability": "nonpayable",
      "type": "function"
    },
    {
      "constant": false,
      "inputs": [],
      "name": "completeService",
      "outputs": [],
      "payable": false,
      "stateMutability": "nonpayable",
      "type": "function"
    },
    {
      "constant": false,
      "inputs": [],
      "name": "statusService",
      "outputs": [],
      "payable": false,
      "stateMutability": "nonpayable",
      "type": "function"
    },
    {
      "constant": false,
      "inputs": [],
      "name": "registerProfile",
      "outputs": [],
      "payable": false,
      "stateMutability": "nonpayable",
      "type": "function"
    },
    {
      "constant": false,
      "inputs": [],
      "name": "removeProfile",
      "outputs": [],
      "payable": false,
      "stateMutability": "nonpayable",
      "type": "function"
    }
  ],
  "bytecode": "0x608060405233600260006101000a81548173ffffffffffffffffffffffffffffffffffffffff021916908373ffffffffffffffffffffffffffffffffffffffff16021790555034801561005157600080fd5b5060405160608061062a8339810180604052606081101561007157600080fd5b8101908080519060200190929190805190602001909291908051906020019092919050505080600381905550826000806101000a81548173ffffffffffffffffffffffffffffffffffffffff021916908373ffffffffffffffffffffffffffffffffffffffff16021790555081600160006101000a81548173ffffffffffffffffffffffffffffffffffffffff021916908373ffffffffffffffffffffffffffffffffffffffff1602179055505050506104fa806101306000396000f3fe6080604052600436106100af576000357c0100000000000000000000000000000000000000000000000000000000900463ffffffff1680630d73f010146100b457806327415838146100cb5780632b64b66e146100e257806331297ac1146100f95780635de5bc791461011057806362e9877c14610127578063741a75911461013e5780637b15f1b614610169578063bc754ef5146102c5578063eab6af78146102dc578063ec4a8a38146102f3575b600080fd5b3480156100c057600080fd5b506100c961030a565b005b3480156100d757600080fd5b506100e061030c565b005b3480156100ee57600080fd5b506100f761030e565b005b34801561010557600080fd5b5061010e610310565b005b34801561011c57600080fd5b50610125610312565b005b34801561013357600080fd5b5061013c610314565b005b34801561014a57600080fd5b50610153610316565b6040518082815260200191505060405180910390f35b6102c36004803603606081101561017f57600080fd5b810190808035906020019064010000000081111561019c57600080fd5b8201836020820111156101ae57600080fd5b803590602001918460018302840111640100000000831117156101d057600080fd5b91908080601f016020809104026020016040519081016040528093929190818152602001838380828437600081840152601f19601f8201169050808301925050505050505091929192908035906020019064010000000081111561023357600080fd5b82018360208201111561024557600080fd5b8035906020019184600183028401116401000000008311171561026757600080fd5b91908080601f016020809104026020016040519081016040528093929190818152602001838380828437600081840152601f19601f8201169050808301925050505050505091929192908035906020019092919050505061031c565b005b3480156102d157600080fd5b506102da6104c8565b005b3480156102e857600080fd5b506102f16104ca565b005b3480156102ff57600080fd5b506103086104cc565b005b565b565b565b565b565b565b60035481565b600160009054906101000a900473ffffffffffffffffffffffffffffffffffffffff1673ffffffffffffffffffffffffffffffffffffffff16637b15f1b68484846040518463ffffffff167c0100000000000000000000000000000000000000000000000000000000028152600401808060200180602001848152602001838103835286818151815260200191508051906020019080838360005b838110156103d25780820151818401526020810190506103b7565b50505050905090810190601f1680156103ff5780820380516001836020036101000a031916815260200191505b50838103825285818151815260200191508051906020019080838360005b8381101561043857808201518184015260208101905061041d565b50505050905090810190601f1680156104655780820380516001836020036101000a031916815260200191505b5095505050505050602060405180830381600087803b15801561048757600080fd5b505af115801561049b573d6000803e3d6000fd5b505050506040513d60208110156104b157600080fd5b810190808051906020019092919050505050505050565b565b565b56fea165627a7a723058203905e7cdf35c6ec894c9514c4860281d16b4fa3ab10cc6c0bd3d13f00d341eac0029",
  "source": "// SPDX-License-Identifier: MIT\npragma solidity >=0.4.22 <0.9.0;\nimport \"./Profile.sol\";\nimport \"./Service.sol\";\n\ncontract Blocktractor {\n\n    Profile profileContract;\n    Service serviceContract;\n\n    address _owner = msg.sender;\n    uint256 public comissionFee;\n\n    constructor(Profile profileAddress, Service serviceAddress, uint256 fee) public {\n        comissionFee = fee;\n        profileContract = profileAddress;\n        serviceContract = serviceAddress;\n    }\n\n    // Verified Profiles are allowed to create service\n    function createService(string memory title, string memory description, uint256 price) public payable { \n        serviceContract.createService(title,description,price);\n    }\n\n    // Verified Profiles are allowed to list service\n    function listService() public {\n\n    }\n\n    // Verified Profiles are allowed to delist service\n    function delistService() public {\n\n    } \n    \n    // Function that request listed Service\n    function requestService() public {\n\n    }\n\n    // Function that approves requested listed service\n    function approveService() public {\n\n    }\n\n    // Function that rejects requested listed service\n    function rejectService() public {\n\n    }\n\n    // Function that completes listed Service\n    function completeService() public {\n\n    }\n\n    // Getter for service status\n    function statusService() public {\n        \n    }\n    // Registering user profile on marketplace\n    function registerProfile() public {\n\n    }\n\n    // Removing user profile on marketplace\n    function removeProfile() public {\n\n    }\n\n\n}",
  "sourcePath": "/Users/eltontay/Desktop/IS4302/project/contracts/Blocktractor.sol",
  "compiler": {
    "name": "solc",
    "version": "0.5.0+commit.1d4f565a.Emscripten.clang"
  },
  "schemaVersion": "3.4.4",
  "updatedAt": "2022-03-08T01:18:03.263Z",
  "networkType": "ethereum",
  "devdoc": {
    "methods": {}
  },
  "userdoc": {
    "methods": {}
  }
}