{
  "contractName": "Profile",
  "abi": [
    {
      "anonymous": false,
      "inputs": [
        {
          "indexed": false,
          "internalType": "bool",
          "name": "successful",
          "type": "bool"
        }
      ],
      "name": "serviceCreated",
      "type": "event"
    },
    {
      "inputs": [],
      "name": "numProfile",
      "outputs": [
        {
          "internalType": "uint256",
          "name": "",
          "type": "uint256"
        }
      ],
      "stateMutability": "view",
      "type": "function"
    },
    {
      "inputs": [
        {
          "internalType": "string",
          "name": "name",
          "type": "string"
        },
        {
          "internalType": "string",
          "name": "username",
          "type": "string"
        },
        {
          "internalType": "string",
          "name": "password",
          "type": "string"
        }
      ],
      "name": "createProfile",
      "outputs": [],
      "stateMutability": "nonpayable",
      "type": "function"
    },
    {
      "inputs": [],
      "name": "getName",
      "outputs": [
        {
          "internalType": "string",
          "name": "",
          "type": "string"
        }
      ],
      "stateMutability": "view",
      "type": "function"
    },
    {
      "inputs": [],
      "name": "checkValidProfile",
      "outputs": [
        {
          "internalType": "bool",
          "name": "",
          "type": "bool"
        }
      ],
      "stateMutability": "view",
      "type": "function"
    },
    {
      "inputs": [
        {
          "internalType": "uint256",
          "name": "serviceNumber",
          "type": "uint256"
        }
      ],
      "name": "putService",
      "outputs": [],
      "stateMutability": "nonpayable",
      "type": "function"
    }
  ],
  "bytecode": "0x6080604052600060035534801561001557600080fd5b506109fd806100256000396000f3fe608060405234801561001057600080fd5b50600436106100575760003560e01c8063169134691461005c57806317d7de7c1461007a5780633ae7dc1a146100985780635544f6b4146100b65780639841c82c146100d2575b600080fd5b6100646100ee565b60405161007191906107a7565b60405180910390f35b6100826100f4565b60405161008f9190610785565b60405180910390f35b6100a061021d565b6040516100ad919061076a565b60405180910390f35b6100d060048036038101906100cb91906106ea565b610281565b005b6100ec60048036038101906100e79190610653565b6103cc565b005b60035481565b60606000803373ffffffffffffffffffffffffffffffffffffffff1673ffffffffffffffffffffffffffffffffffffffff16815260200190815260200160002060030160149054906101000a900460ff1661014e57600080fd5b6000803373ffffffffffffffffffffffffffffffffffffffff1673ffffffffffffffffffffffffffffffffffffffff168152602001908152602001600020600001805461019a90610897565b80601f01602080910402602001604051908101604052809291908181526020018280546101c690610897565b80156102135780601f106101e857610100808354040283529160200191610213565b820191906000526020600020905b8154815290600101906020018083116101f657829003601f168201915b5050505050905090565b60008060003373ffffffffffffffffffffffffffffffffffffffff1673ffffffffffffffffffffffffffffffffffffffff16815260200190815260200160002060030160149054906101000a900460ff1661027957600061027c565b60015b905090565b60001515600160003373ffffffffffffffffffffffffffffffffffffffff1673ffffffffffffffffffffffffffffffffffffffff168152602001908152602001600020600083815260200190815260200160002060009054906101000a900460ff16151514156103905760018060003373ffffffffffffffffffffffffffffffffffffffff1673ffffffffffffffffffffffffffffffffffffffff168152602001908152602001600020600083815260200190815260200160002060006101000a81548160ff0219169083151502179055507f141f0f98191bb867d14e65d7d6496cba0add11cde65dc83f66c03f1dc876c5f16001604051610383919061076a565b60405180910390a16103c9565b7f141f0f98191bb867d14e65d7d6496cba0add11cde65dc83f66c03f1dc876c5f160006040516103c0919061076a565b60405180910390a15b50565b60006040518060a001604052808581526020018481526020018381526020013373ffffffffffffffffffffffffffffffffffffffff168152602001600115158152509050806000803373ffffffffffffffffffffffffffffffffffffffff1673ffffffffffffffffffffffffffffffffffffffff168152602001908152602001600020600082015181600001908051906020019061046b929190610533565b506020820151816001019080519060200190610488929190610533565b5060408201518160020190805190602001906104a5929190610533565b5060608201518160030160006101000a81548173ffffffffffffffffffffffffffffffffffffffff021916908373ffffffffffffffffffffffffffffffffffffffff16021790555060808201518160030160146101000a81548160ff02191690831515021790555090505060036000815480929190610523906108c9565b9190505560038190555050505050565b82805461053f90610897565b90600052602060002090601f01602090048101928261056157600085556105a8565b82601f1061057a57805160ff19168380011785556105a8565b828001600101855582156105a8579182015b828111156105a757825182559160200191906001019061058c565b5b5090506105b591906105b9565b5090565b5b808211156105d25760008160009055506001016105ba565b5090565b60006105e96105e4846107f3565b6107c2565b90508281526020810184848401111561060157600080fd5b61060c848285610855565b509392505050565b600082601f83011261062557600080fd5b81356106358482602086016105d6565b91505092915050565b60008135905061064d816109b0565b92915050565b60008060006060848603121561066857600080fd5b600084013567ffffffffffffffff81111561068257600080fd5b61068e86828701610614565b935050602084013567ffffffffffffffff8111156106ab57600080fd5b6106b786828701610614565b925050604084013567ffffffffffffffff8111156106d457600080fd5b6106e086828701610614565b9150509250925092565b6000602082840312156106fc57600080fd5b600061070a8482850161063e565b91505092915050565b61071c8161083f565b82525050565b600061072d82610823565b610737818561082e565b9350610747818560208601610864565b6107508161099f565b840191505092915050565b6107648161084b565b82525050565b600060208201905061077f6000830184610713565b92915050565b6000602082019050818103600083015261079f8184610722565b905092915050565b60006020820190506107bc600083018461075b565b92915050565b6000604051905081810181811067ffffffffffffffff821117156107e9576107e8610970565b5b8060405250919050565b600067ffffffffffffffff82111561080e5761080d610970565b5b601f19601f8301169050602081019050919050565b600081519050919050565b600082825260208201905092915050565b60008115159050919050565b6000819050919050565b82818337600083830152505050565b60005b83811015610882578082015181840152602081019050610867565b83811115610891576000848401525b50505050565b600060028204905060018216806108af57607f821691505b602082108114156108c3576108c2610941565b5b50919050565b60006108d48261084b565b91507fffffffffffffffffffffffffffffffffffffffffffffffffffffffffffffffff82141561090757610906610912565b5b600182019050919050565b7f4e487b7100000000000000000000000000000000000000000000000000000000600052601160045260246000fd5b7f4e487b7100000000000000000000000000000000000000000000000000000000600052602260045260246000fd5b7f4e487b7100000000000000000000000000000000000000000000000000000000600052604160045260246000fd5b6000601f19601f8301169050919050565b6109b98161084b565b81146109c457600080fd5b5056fea26469706673582212203f6568a6c02ed1c88153a34dc923e9eb78be6e54880c2720581aa7d03fd0c9cc64736f6c63430008000033",
  "immutableReferences": {},
  "source": "// SPDX-License-Identifier: MIT\npragma solidity >=0.4.22 <0.9.0;\n\ncontract Profile {\n\n    // The main structure of the profile\n    struct profile {\n        string name;\n        string username;\n        string password;\n        address owner;\n        bool created;\n    }\n\n    event serviceCreated(bool successful);\n\n    mapping (address => profile) profileList; // list of profiles created in profile smart contract\n    mapping (address => mapping(uint256 => bool)) services; // list of profile addresses that contains a list of services provided\n    mapping (address => mapping(uint256 => uint256)) servicesRequested; // list of profile addresses that contains a list of services requested\n\n    uint256 public numProfile = 0; // To keep count of the number of profiles existing\n\n    function createProfile(string memory name, string memory username, string memory password) public {\n        profile memory newProfile = profile(name,username,password,msg.sender,true);\n        profileList[msg.sender] = newProfile;\n        numProfile = numProfile ++;\n    }\n\n    modifier validProfile() {\n        require(profileList[msg.sender].created);\n        _;\n    }\n\n    // Getter for name of profile given that it is valid\n    function getName() public validProfile() view returns ( string memory) {\n        return profileList[msg.sender].name;\n    }\n\n    // Boolean function to check validity of profile\n    function checkValidProfile() public view returns (bool) {\n        return profileList[msg.sender].created ? true : false;\n    }\n\n    // Storing a created service\n    function putService(uint256 serviceNumber) public {\n        if (services[msg.sender][serviceNumber] == false) {\n            services[msg.sender][serviceNumber] = true;\n            emit serviceCreated(true);\n        } else {\n            emit serviceCreated(false);\n        }\n    }\n\n\n}",
  "sourcePath": "/mnt/c/Users/Lenovo/OneDrive/Documents/github/IS4302/contracts/Profile.sol",
  "compiler": {
    "name": "solc",
    "version": "0.8.0+commit.c7dfd78e.Emscripten.clang"
  },
  "schemaVersion": "3.4.4",
  "updatedAt": "2022-03-25T12:23:42.378Z",
  "devdoc": {
    "kind": "dev",
    "methods": {},
    "version": 1
  },
  "userdoc": {
    "kind": "user",
    "methods": {},
    "version": 1
  }
}