{
  "contractName": "Service",
  "abi": [
    {
      "anonymous": false,
      "inputs": [
        {
          "indexed": false,
          "internalType": "uint256",
          "name": "serviceNumber",
          "type": "uint256"
        },
        {
          "indexed": false,
          "internalType": "uint256",
          "name": "milestoneNumber",
          "type": "uint256"
        },
        {
          "indexed": false,
          "internalType": "string",
          "name": "milestoneTitle",
          "type": "string"
        },
        {
          "indexed": false,
          "internalType": "string",
          "name": "milestoneDescription",
          "type": "string"
        }
      ],
      "name": "milestoneAdded",
      "type": "event"
    },
    {
      "anonymous": false,
      "inputs": [
        {
          "indexed": false,
          "internalType": "uint256",
          "name": "serviceNumber",
          "type": "uint256"
        },
        {
          "indexed": false,
          "internalType": "uint256",
          "name": "milestoneNumber",
          "type": "uint256"
        }
      ],
      "name": "milestoneCompleted",
      "type": "event"
    },
    {
      "anonymous": false,
      "inputs": [
        {
          "indexed": false,
          "internalType": "uint256",
          "name": "serviceNumber",
          "type": "uint256"
        },
        {
          "indexed": false,
          "internalType": "uint256",
          "name": "milestoneNumber",
          "type": "uint256"
        }
      ],
      "name": "milestoneDeleted",
      "type": "event"
    },
    {
      "anonymous": false,
      "inputs": [
        {
          "indexed": false,
          "internalType": "enum Service.Review",
          "name": "review",
          "type": "uint8"
        }
      ],
      "name": "milestoneReview",
      "type": "event"
    },
    {
      "anonymous": false,
      "inputs": [
        {
          "indexed": false,
          "internalType": "enum Service.Status",
          "name": "status",
          "type": "uint8"
        }
      ],
      "name": "serviceApproved",
      "type": "event"
    },
    {
      "anonymous": false,
      "inputs": [
        {
          "indexed": false,
          "internalType": "enum Service.Status",
          "name": "status",
          "type": "uint8"
        }
      ],
      "name": "serviceCancelRequest",
      "type": "event"
    },
    {
      "anonymous": false,
      "inputs": [
        {
          "indexed": false,
          "internalType": "enum Service.Status",
          "name": "status",
          "type": "uint8"
        }
      ],
      "name": "serviceCompleted",
      "type": "event"
    },
    {
      "anonymous": false,
      "inputs": [
        {
          "indexed": false,
          "internalType": "uint256",
          "name": "serviceNumber",
          "type": "uint256"
        }
      ],
      "name": "serviceCreated",
      "type": "event"
    },
    {
      "anonymous": false,
      "inputs": [
        {
          "indexed": false,
          "internalType": "uint256",
          "name": "serviceNumber",
          "type": "uint256"
        }
      ],
      "name": "serviceDeleted",
      "type": "event"
    },
    {
      "anonymous": false,
      "inputs": [
        {
          "indexed": false,
          "internalType": "enum Service.Status",
          "name": "status",
          "type": "uint8"
        }
      ],
      "name": "serviceRejected",
      "type": "event"
    },
    {
      "anonymous": false,
      "inputs": [
        {
          "indexed": false,
          "internalType": "enum Service.Status",
          "name": "status",
          "type": "uint8"
        }
      ],
      "name": "serviceRequested",
      "type": "event"
    },
    {
      "anonymous": false,
      "inputs": [
        {
          "indexed": false,
          "internalType": "enum Service.Review",
          "name": "review",
          "type": "uint8"
        }
      ],
      "name": "serviceReview",
      "type": "event"
    },
    {
      "anonymous": false,
      "inputs": [
        {
          "indexed": false,
          "internalType": "enum Service.Status",
          "name": "status",
          "type": "uint8"
        }
      ],
      "name": "serviceStarted",
      "type": "event"
    },
    {
      "inputs": [],
      "name": "numService",
      "outputs": [
        {
          "internalType": "uint256",
          "name": "",
          "type": "uint256"
        }
      ],
      "stateMutability": "view",
      "type": "function"
    },
    {
      "inputs": [
        {
          "internalType": "string",
          "name": "title",
          "type": "string"
        },
        {
          "internalType": "string",
          "name": "description",
          "type": "string"
        },
        {
          "internalType": "uint256",
          "name": "price",
          "type": "uint256"
        }
      ],
      "name": "createService",
      "outputs": [
        {
          "internalType": "uint256",
          "name": "",
          "type": "uint256"
        }
      ],
      "stateMutability": "nonpayable",
      "type": "function"
    },
    {
      "inputs": [
        {
          "internalType": "uint256",
          "name": "serviceNumber",
          "type": "uint256"
        }
      ],
      "name": "deleteService",
      "outputs": [],
      "stateMutability": "nonpayable",
      "type": "function"
    },
    {
      "inputs": [
        {
          "internalType": "uint256",
          "name": "serviceNumber",
          "type": "uint256"
        },
        {
          "internalType": "string",
          "name": "milestoneTitle",
          "type": "string"
        },
        {
          "internalType": "string",
          "name": "milestoneDescription",
          "type": "string"
        }
      ],
      "name": "addMilestone",
      "outputs": [],
      "stateMutability": "nonpayable",
      "type": "function"
    },
    {
      "inputs": [
        {
          "internalType": "uint256",
          "name": "serviceNumber",
          "type": "uint256"
        },
        {
          "internalType": "uint256",
          "name": "milestoneNumber",
          "type": "uint256"
        }
      ],
      "name": "deleteMilestone",
      "outputs": [],
      "stateMutability": "nonpayable",
      "type": "function"
    },
    {
      "inputs": [
        {
          "internalType": "uint256",
          "name": "serviceNumber",
          "type": "uint256"
        }
      ],
      "name": "approveServiceRequest",
      "outputs": [],
      "stateMutability": "nonpayable",
      "type": "function"
    },
    {
      "inputs": [
        {
          "internalType": "uint256",
          "name": "serviceNumber",
          "type": "uint256"
        }
      ],
      "name": "rejectServiceRequest",
      "outputs": [],
      "stateMutability": "nonpayable",
      "type": "function"
    },
    {
      "inputs": [
        {
          "internalType": "uint256",
          "name": "serviceNumber",
          "type": "uint256"
        },
        {
          "internalType": "uint256",
          "name": "milestoneNumber",
          "type": "uint256"
        }
      ],
      "name": "completeMilestone",
      "outputs": [],
      "stateMutability": "nonpayable",
      "type": "function"
    },
    {
      "inputs": [
        {
          "internalType": "uint256",
          "name": "serviceNumber",
          "type": "uint256"
        }
      ],
      "name": "completeService",
      "outputs": [],
      "stateMutability": "nonpayable",
      "type": "function"
    },
    {
      "inputs": [
        {
          "internalType": "uint256",
          "name": "serviceNumber",
          "type": "uint256"
        }
      ],
      "name": "requestService",
      "outputs": [],
      "stateMutability": "nonpayable",
      "type": "function"
    },
    {
      "inputs": [
        {
          "internalType": "uint256",
          "name": "serviceNumber",
          "type": "uint256"
        }
      ],
      "name": "cancelRequestService",
      "outputs": [],
      "stateMutability": "nonpayable",
      "type": "function"
    },
    {
      "inputs": [
        {
          "internalType": "uint256",
          "name": "serviceNumber",
          "type": "uint256"
        }
      ],
      "name": "startRequestedService",
      "outputs": [],
      "stateMutability": "nonpayable",
      "type": "function"
    },
    {
      "inputs": [
        {
          "internalType": "uint256",
          "name": "serviceNumber",
          "type": "uint256"
        },
        {
          "internalType": "uint256",
          "name": "milestoneNumber",
          "type": "uint256"
        },
        {
          "internalType": "bool",
          "name": "satisfied",
          "type": "bool"
        }
      ],
      "name": "reviewMilestone",
      "outputs": [],
      "stateMutability": "nonpayable",
      "type": "function"
    },
    {
      "inputs": [
        {
          "internalType": "uint256",
          "name": "serviceNumber",
          "type": "uint256"
        },
        {
          "internalType": "bool",
          "name": "satisfied",
          "type": "bool"
        }
      ],
      "name": "reviewService",
      "outputs": [],
      "stateMutability": "nonpayable",
      "type": "function"
    },
    {
      "inputs": [],
      "name": "viewMyServices",
      "outputs": [
        {
          "internalType": "string",
          "name": "",
          "type": "string"
        }
      ],
      "stateMutability": "view",
      "type": "function"
    },
    {
      "inputs": [
        {
          "internalType": "uint256",
          "name": "serviceNumber",
          "type": "uint256"
        }
      ],
      "name": "getMilestones",
      "outputs": [
        {
          "internalType": "string",
          "name": "",
          "type": "string"
        }
      ],
      "stateMutability": "view",
      "type": "function"
    },
    {
      "inputs": [
        {
          "internalType": "uint256",
          "name": "serviceNumber",
          "type": "uint256"
        }
      ],
      "name": "getTotalMilestones",
      "outputs": [
        {
          "internalType": "uint256",
          "name": "",
          "type": "uint256"
        }
      ],
      "stateMutability": "view",
      "type": "function"
    },
    {
      "inputs": [],
      "name": "getNumServices",
      "outputs": [
        {
          "internalType": "uint256",
          "name": "",
          "type": "uint256"
        }
      ],
      "stateMutability": "view",
      "type": "function"
    },
    {
      "inputs": [
        {
          "internalType": "uint256",
          "name": "serviceNumber",
          "type": "uint256"
        }
      ],
      "name": "getServiceDetails",
      "outputs": [
        {
          "components": [
            {
              "internalType": "string",
              "name": "title",
              "type": "string"
            },
            {
              "internalType": "string",
              "name": "description",
              "type": "string"
            },
            {
              "internalType": "uint256",
              "name": "price",
              "type": "uint256"
            },
            {
              "internalType": "uint256",
              "name": "totalMilestones",
              "type": "uint256"
            },
            {
              "internalType": "uint256",
              "name": "currentMilestone",
              "type": "uint256"
            },
            {
              "internalType": "uint256",
              "name": "milestoneCounter",
              "type": "uint256"
            },
            {
              "internalType": "uint256",
              "name": "serviceNumber",
              "type": "uint256"
            },
            {
              "internalType": "address",
              "name": "serviceProvider",
              "type": "address"
            },
            {
              "internalType": "address",
              "name": "serviceRequester",
              "type": "address"
            },
            {
              "internalType": "bool",
              "name": "exist",
              "type": "bool"
            },
            {
              "internalType": "enum Service.Status",
              "name": "status",
              "type": "uint8"
            },
            {
              "internalType": "enum Service.Review",
              "name": "review",
              "type": "uint8"
            }
          ],
          "internalType": "struct Service.service",
          "name": "",
          "type": "tuple"
        }
      ],
      "stateMutability": "view",
      "type": "function"
    },
    {
      "inputs": [
        {
          "internalType": "uint256",
          "name": "serviceNumber",
          "type": "uint256"
        }
      ],
      "name": "getServicePrice",
      "outputs": [
        {
          "internalType": "uint256",
          "name": "",
          "type": "uint256"
        }
      ],
      "stateMutability": "view",
      "type": "function"
    },
    {
      "inputs": [
        {
          "internalType": "uint256",
          "name": "serviceNumber",
          "type": "uint256"
        }
      ],
      "name": "isServiceApproved",
      "outputs": [
        {
          "internalType": "bool",
          "name": "",
          "type": "bool"
        }
      ],
      "stateMutability": "view",
      "type": "function"
    },
    {
      "inputs": [
        {
          "internalType": "uint256",
          "name": "serviceNumber",
          "type": "uint256"
        }
      ],
      "name": "doesServiceExist",
      "outputs": [
        {
          "internalType": "bool",
          "name": "",
          "type": "bool"
        }
      ],
      "stateMutability": "view",
      "type": "function"
    },
    {
      "inputs": [
        {
          "internalType": "uint256",
          "name": "serviceNumber",
          "type": "uint256"
        }
      ],
      "name": "getServiceProvider",
      "outputs": [
        {
          "internalType": "address",
          "name": "",
          "type": "address"
        }
      ],
      "stateMutability": "view",
      "type": "function"
    },
    {
      "inputs": [
        {
          "internalType": "uint256",
          "name": "serviceNumber",
          "type": "uint256"
        }
      ],
      "name": "getServiceRequester",
      "outputs": [
        {
          "internalType": "address",
          "name": "",
          "type": "address"
        }
      ],
      "stateMutability": "view",
      "type": "function"
    }
  ],
  "bytecode": "0x6080604052600060025534801561001557600080fd5b506134f8806100256000396000f3fe608060405234801561001057600080fd5b50600436106101585760003560e01c8063854c4707116100c3578063c0d922371161007c578063c0d92237146103bf578063c2698c84146103db578063c71af8e81461040b578063e2e5384d1461043b578063e4fb7bd51461046b578063f326206b1461049b57610158565b8063854c4707146102ed5780638ce0ed081461030b5780638d658d5414610327578063a1a56bae14610343578063bfe7d4621461035f578063c03f9b441461038f57610158565b80634e046986116101155780634e0469861461021b57806362873f8a146102375780636c273d341461025557806374e29ee6146102715780637b15f1b61461028d578063802ffb45146102bd57610158565b8063019fcdea1461015d57806302297d8b146101795780632138f0a3146101955780632961b3ba146101b15780632f3ccebd146101cf57806342c549c0146101eb575b600080fd5b6101776004803603810190610172919061274f565b6104b7565b005b610193600480360381019061018e9190612778565b610650565b005b6101af60048036038101906101aa919061274f565b6107cb565b005b6101b9610911565b6040516101c69190613005565b60405180910390f35b6101e960048036038101906101e4919061274f565b610996565b005b6102056004803603810190610200919061274f565b610b11565b6040516102129190612ec1565b60405180910390f35b6102356004803603810190610230919061286f565b610bd2565b005b61023f610de1565b60405161024c9190612ec1565b60405180910390f35b61026f600480360381019061026a91906127b4565b610eb6565b005b61028b6004803603810190610286919061274f565b6111dc565b005b6102a760048036038101906102a291906126d0565b6112eb565b6040516102b49190613005565b60405180910390f35b6102d760048036038101906102d2919061274f565b611702565b6040516102e49190612e55565b60405180910390f35b6102f5611742565b6040516103029190613005565b60405180910390f35b6103256004803603810190610320919061274f565b611748565b005b610341600480360381019061033c919061274f565b6118e2565b005b61035d60048036038101906103589190612833565b611a28565b005b6103796004803603810190610374919061274f565b611b77565b6040516103869190612e70565b60405180910390f35b6103a960048036038101906103a4919061274f565b611ba4565b6040516103b69190613005565b60405180910390f35b6103d960048036038101906103d4919061274f565b611bc4565b005b6103f560048036038101906103f0919061274f565b611d08565b6040516104029190612fe3565b60405180910390f35b6104256004803603810190610420919061274f565b612061565b6040516104329190612e55565b60405180910390f35b6104556004803603810190610450919061274f565b6120a1565b6040516104629190613005565b60405180910390f35b6104856004803603810190610480919061274f565b6120c1565b6040516104929190612e70565b60405180910390f35b6104b560048036038101906104b09190612833565b612161565b005b600073ffffffffffffffffffffffffffffffffffffffff166001600083815260200190815260200160002060080160009054906101000a900473ffffffffffffffffffffffffffffffffffffffff1673ffffffffffffffffffffffffffffffffffffffff161461055c576040517f08c379a000000000000000000000000000000000000000000000000000000000815260040161055390612f23565b60405180910390fd5b336001600083815260200190815260200160002060080160006101000a81548173ffffffffffffffffffffffffffffffffffffffff021916908373ffffffffffffffffffffffffffffffffffffffff160217905550600180600083815260200190815260200160002060080160156101000a81548160ff02191690836004811115610610577f4e487b7100000000000000000000000000000000000000000000000000000000600052602160045260246000fd5b02179055507fa26efaf36b92bafb8d85feb8a18fa8c8f4fd90222d2551fc7898bf59f9fe428160016040516106459190612ea6565b60405180910390a150565b3373ffffffffffffffffffffffffffffffffffffffff166001600084815260200190815260200160002060080160009054906101000a900473ffffffffffffffffffffffffffffffffffffffff1673ffffffffffffffffffffffffffffffffffffffff16146106f4576040517f08c379a00000000000000000000000000000000000000000000000000000000081526004016106eb90612fa3565b60405180910390fd5b806107625760026001600084815260200190815260200160002060080160166101000a81548160ff02191690836002811115610759577f4e487b7100000000000000000000000000000000000000000000000000000000600052602160045260246000fd5b021790556107c6565b600180600084815260200190815260200160002060080160166101000a81548160ff021916908360028111156107c1577f4e487b7100000000000000000000000000000000000000000000000000000000600052602160045260246000fd5b021790555b505050565b806001600082815260200190815260200160002060070160009054906101000a900473ffffffffffffffffffffffffffffffffffffffff1673ffffffffffffffffffffffffffffffffffffffff163373ffffffffffffffffffffffffffffffffffffffff1614610870576040517f08c379a000000000000000000000000000000000000000000000000000000000815260040161086790612f63565b60405180910390fd5b60026001600084815260200190815260200160002060080160156101000a81548160ff021916908360048111156108d0577f4e487b7100000000000000000000000000000000000000000000000000000000600052602160045260246000fd5b02179055507fad0f557686a3cabe97a4e152af50e1bebdec1b90344a0b79e8abd66ca6e85eae60026040516109059190612ea6565b60405180910390a15050565b6000806000905060005b60025481101561098e57600115156001600083815260200190815260200160002060080160149054906101000a900460ff16151514610969576000826109619190613135565b91508161097a565b6001826109769190613135565b9150815b508080610986906132f6565b91505061091b565b508091505090565b806001600082815260200190815260200160002060070160009054906101000a900473ffffffffffffffffffffffffffffffffffffffff1673ffffffffffffffffffffffffffffffffffffffff163373ffffffffffffffffffffffffffffffffffffffff1614610a3b576040517f08c379a0000000000000000000000000000000000000000000000000000000008152600401610a3290612f63565b60405180910390fd5b600160008381526020019081526020016000206003015460016000848152602001908152602001600020600401541415610b0d5760046001600084815260200190815260200160002060080160156101000a81548160ff02191690836004811115610acf577f4e487b7100000000000000000000000000000000000000000000000000000000600052602160045260246000fd5b02179055507fb5352b1c3e7a23c27c04ae6923311b8061f99ee4a95e1229d33c7d55b907f7456004604051610b049190612ea6565b60405180910390a15b5050565b6060600060405180602001604052806000815250905060005b6001600085815260200190815260200160002060050154811015610bc85760011515600080868152602001908152602001600020600083815260200190815260200160002060020160009054906101000a900460ff1615151415610bb55781610b92826122ef565b604051602001610ba3929190612e26565b60405160208183030381529060405291505b8080610bc0906132f6565b915050610b2a565b5080915050919050565b3373ffffffffffffffffffffffffffffffffffffffff166001600085815260200190815260200160002060080160009054906101000a900473ffffffffffffffffffffffffffffffffffffffff1673ffffffffffffffffffffffffffffffffffffffff1614610c76576040517f08c379a0000000000000000000000000000000000000000000000000000000008152600401610c6d90612fa3565b60405180910390fd5b8015610d2e576001600080858152602001908152602001600020600084815260200190815260200160002060020160026101000a81548160ff02191690836002811115610cec577f4e487b7100000000000000000000000000000000000000000000000000000000600052602160045260246000fd5b02179055507f2e228b70e6cc8fc93d3d02f1a59e459419260f3310bc34ce2362aa0c1c1ce7a36001604051610d219190612e8b565b60405180910390a1610ddc565b6002600080858152602001908152602001600020600084815260200190815260200160002060020160026101000a81548160ff02191690836002811115610d9e577f4e487b7100000000000000000000000000000000000000000000000000000000600052602160045260246000fd5b02179055507f2e228b70e6cc8fc93d3d02f1a59e459419260f3310bc34ce2362aa0c1c1ce7a36002604051610dd39190612e8b565b60405180910390a15b505050565b6060600060405180602001604052806000815250905060005b600254811015610eae573373ffffffffffffffffffffffffffffffffffffffff166001600083815260200190815260200160002060070160009054906101000a900473ffffffffffffffffffffffffffffffffffffffff1673ffffffffffffffffffffffffffffffffffffffff161415610e9b5781610e78826122ef565b604051602001610e89929190612e26565b60405160208183030381529060405291505b8080610ea6906132f6565b915050610dfa565b508091505090565b826001600082815260200190815260200160002060070160009054906101000a900473ffffffffffffffffffffffffffffffffffffffff1673ffffffffffffffffffffffffffffffffffffffff163373ffffffffffffffffffffffffffffffffffffffff1614610f5b576040517f08c379a0000000000000000000000000000000000000000000000000000000008152600401610f5290612f63565b60405180910390fd5b60018060008681526020019081526020016000206003016000828254610f819190613135565b9250508190555060018060008681526020019081526020016000206005016000828254610fae9190613135565b925050819055506000600160008681526020019081526020016000206003015490506040518060a001604052808581526020018481526020016001151581526020016000600481111561102a577f4e487b7100000000000000000000000000000000000000000000000000000000600052602160045260246000fd5b815260200160006002811115611069577f4e487b7100000000000000000000000000000000000000000000000000000000600052602160045260246000fd5b815250600080878152602001908152602001600020600083815260200190815260200160002060008201518160000190805190602001906110ab92919061249c565b5060208201518160010190805190602001906110c892919061249c565b5060408201518160020160006101000a81548160ff02191690831515021790555060608201518160020160016101000a81548160ff0219169083600481111561113a577f4e487b7100000000000000000000000000000000000000000000000000000000600052602160045260246000fd5b021790555060808201518160020160026101000a81548160ff02191690836002811115611190577f4e487b7100000000000000000000000000000000000000000000000000000000600052602160045260246000fd5b02179055509050507fafb9651915b93e2d736434d595813593866af361b0f395d93fceb19020b38fc1858286866040516111cd9493929190613049565b60405180910390a15050505050565b806001600082815260200190815260200160002060070160009054906101000a900473ffffffffffffffffffffffffffffffffffffffff1673ffffffffffffffffffffffffffffffffffffffff163373ffffffffffffffffffffffffffffffffffffffff1614611281576040517f08c379a000000000000000000000000000000000000000000000000000000000815260040161127890612f63565b60405180910390fd5b60006001600084815260200190815260200160002060080160146101000a81548160ff0219169083151502179055507f6694ca203a0738585d2b2d17b211195dfb43e09eb19ac1f2c3a59c168e135872826040516112df9190613005565b60405180910390a15050565b600080845111611330576040517f08c379a000000000000000000000000000000000000000000000000000000000815260040161132790612fc3565b60405180910390fd5b6000835111611374576040517f08c379a000000000000000000000000000000000000000000000000000000000815260040161136b90612ee3565b60405180910390fd5b600082116113b7576040517f08c379a00000000000000000000000000000000000000000000000000000000081526004016113ae90612f03565b60405180910390fd5b600060405180610180016040528086815260200185815260200184815260200160008152602001600081526020016000815260200160025481526020013373ffffffffffffffffffffffffffffffffffffffff168152602001600073ffffffffffffffffffffffffffffffffffffffff16815260200160011515815260200160006004811115611470577f4e487b7100000000000000000000000000000000000000000000000000000000600052602160045260246000fd5b8152602001600060028111156114af577f4e487b7100000000000000000000000000000000000000000000000000000000600052602160045260246000fd5b81525090508060016000600254815260200190815260200160002060008201518160000190805190602001906114e692919061249c565b50602082015181600101908051906020019061150392919061249c565b5060408201518160020155606082015181600301556080820151816004015560a0820151816005015560c0820151816006015560e08201518160070160006101000a81548173ffffffffffffffffffffffffffffffffffffffff021916908373ffffffffffffffffffffffffffffffffffffffff1602179055506101008201518160080160006101000a81548173ffffffffffffffffffffffffffffffffffffffff021916908373ffffffffffffffffffffffffffffffffffffffff1602179055506101208201518160080160146101000a81548160ff0219169083151502179055506101408201518160080160156101000a81548160ff02191690836004811115611638577f4e487b7100000000000000000000000000000000000000000000000000000000600052602160045260246000fd5b02179055506101608201518160080160166101000a81548160ff0219169083600281111561168f577f4e487b7100000000000000000000000000000000000000000000000000000000600052602160045260246000fd5b02179055509050506116a46002548686610eb6565b7f8662c275bf41730ad7b20c271d144f4c0d0cf030e70c1b88faa76a5daa876b516002546040516116d59190613005565b60405180910390a1600260008154809291906116f0906132f6565b91905055506002549150509392505050565b60006001600083815260200190815260200160002060070160009054906101000a900473ffffffffffffffffffffffffffffffffffffffff169050919050565b60025481565b3373ffffffffffffffffffffffffffffffffffffffff166001600083815260200190815260200160002060080160009054906101000a900473ffffffffffffffffffffffffffffffffffffffff1673ffffffffffffffffffffffffffffffffffffffff16146117ec576040517f08c379a00000000000000000000000000000000000000000000000000000000081526004016117e390612f83565b60405180910390fd5b60006001600083815260200190815260200160002060080160006101000a81548173ffffffffffffffffffffffffffffffffffffffff021916908373ffffffffffffffffffffffffffffffffffffffff16021790555060006001600083815260200190815260200160002060080160156101000a81548160ff021916908360048111156118a2577f4e487b7100000000000000000000000000000000000000000000000000000000600052602160045260246000fd5b02179055507f3b9856122d73e21a1b9f00b1837005190b8b411632c72ccc730f2e2cccbf4d6360006040516118d79190612ea6565b60405180910390a150565b806001600082815260200190815260200160002060070160009054906101000a900473ffffffffffffffffffffffffffffffffffffffff1673ffffffffffffffffffffffffffffffffffffffff163373ffffffffffffffffffffffffffffffffffffffff1614611987576040517f08c379a000000000000000000000000000000000000000000000000000000000815260040161197e90612f63565b60405180910390fd5b60006001600084815260200190815260200160002060080160156101000a81548160ff021916908360048111156119e7577f4e487b7100000000000000000000000000000000000000000000000000000000600052602160045260246000fd5b02179055507f793a2995b0e4491e97cf326ffe94a272e0e986452f3700ad898e1f806c91d7da6000604051611a1c9190612ea6565b60405180910390a15050565b816001600082815260200190815260200160002060070160009054906101000a900473ffffffffffffffffffffffffffffffffffffffff1673ffffffffffffffffffffffffffffffffffffffff163373ffffffffffffffffffffffffffffffffffffffff1614611acd576040517f08c379a0000000000000000000000000000000000000000000000000000000008152600401611ac490612f63565b60405180910390fd5b6000806000858152602001908152602001600020600084815260200190815260200160002060020160006101000a81548160ff02191690831515021790555060018060008581526020019081526020016000206003016000828254611b3291906131bc565b925050819055507f370a65b418bb520a42373d9bebd98e13bccff25176cc1b0eb603dd64e3620b4c8383604051611b6a929190613020565b60405180910390a1505050565b60006001600083815260200190815260200160002060080160149054906101000a900460ff169050919050565b600060016000838152602001908152602001600020600201549050919050565b3373ffffffffffffffffffffffffffffffffffffffff166001600083815260200190815260200160002060080160009054906101000a900473ffffffffffffffffffffffffffffffffffffffff1673ffffffffffffffffffffffffffffffffffffffff1614611c68576040517f08c379a0000000000000000000000000000000000000000000000000000000008152600401611c5f90612f43565b60405180910390fd5b60036001600083815260200190815260200160002060080160156101000a81548160ff02191690836004811115611cc8577f4e487b7100000000000000000000000000000000000000000000000000000000600052602160045260246000fd5b02179055507fe5aaf15edc88e98419bca4176a6a48eaf7ebf6a7c29ad6ade96269029bd5ed8d6003604051611cfd9190612ea6565b60405180910390a150565b611d10612522565b6001600083815260200190815260200160002060405180610180016040529081600082018054611d3f906132c4565b80601f0160208091040260200160405190810160405280929190818152602001828054611d6b906132c4565b8015611db85780601f10611d8d57610100808354040283529160200191611db8565b820191906000526020600020905b815481529060010190602001808311611d9b57829003601f168201915b50505050508152602001600182018054611dd1906132c4565b80601f0160208091040260200160405190810160405280929190818152602001828054611dfd906132c4565b8015611e4a5780601f10611e1f57610100808354040283529160200191611e4a565b820191906000526020600020905b815481529060010190602001808311611e2d57829003601f168201915b5050505050815260200160028201548152602001600382015481526020016004820154815260200160058201548152602001600682015481526020016007820160009054906101000a900473ffffffffffffffffffffffffffffffffffffffff1673ffffffffffffffffffffffffffffffffffffffff1673ffffffffffffffffffffffffffffffffffffffff1681526020016008820160009054906101000a900473ffffffffffffffffffffffffffffffffffffffff1673ffffffffffffffffffffffffffffffffffffffff1673ffffffffffffffffffffffffffffffffffffffff1681526020016008820160149054906101000a900460ff161515151581526020016008820160159054906101000a900460ff166004811115611f97577f4e487b7100000000000000000000000000000000000000000000000000000000600052602160045260246000fd5b6004811115611fcf577f4e487b7100000000000000000000000000000000000000000000000000000000600052602160045260246000fd5b81526020016008820160169054906101000a900460ff16600281111561201e577f4e487b7100000000000000000000000000000000000000000000000000000000600052602160045260246000fd5b6002811115612056577f4e487b7100000000000000000000000000000000000000000000000000000000600052602160045260246000fd5b815250509050919050565b60006001600083815260200190815260200160002060080160009054906101000a900473ffffffffffffffffffffffffffffffffffffffff169050919050565b600060016000838152602001908152602001600020600301549050919050565b6000600260048111156120fd577f4e487b7100000000000000000000000000000000000000000000000000000000600052602160045260246000fd5b6001600084815260200190815260200160002060080160159054906101000a900460ff166004811115612159577f4e487b7100000000000000000000000000000000000000000000000000000000600052602160045260246000fd5b149050919050565b816001600082815260200190815260200160002060070160009054906101000a900473ffffffffffffffffffffffffffffffffffffffff1673ffffffffffffffffffffffffffffffffffffffff163373ffffffffffffffffffffffffffffffffffffffff1614612206576040517f08c379a00000000000000000000000000000000000000000000000000000000081526004016121fd90612f63565b60405180910390fd5b6004600080858152602001908152602001600020600084815260200190815260200160002060020160016101000a81548160ff02191690836004811115612276577f4e487b7100000000000000000000000000000000000000000000000000000000600052602160045260246000fd5b02179055507f077a4138c78dee06a65cb09ab97fa14e00336cd9338d939b5b1018b1cc374a5883836040516122ac929190613020565b60405180910390a1600180600085815260200190815260200160002060040160008282546122da9190613135565b925050819055506122ea83610996565b505050565b60606000821415612337576040518060400160405280600181526020017f30000000000000000000000000000000000000000000000000000000000000008152509050612497565b600082905060005b60008214612369578080612352906132f6565b915050600a82612362919061318b565b915061233f565b60008167ffffffffffffffff8111156123ab577f4e487b7100000000000000000000000000000000000000000000000000000000600052604160045260246000fd5b6040519080825280601f01601f1916602001820160405280156123dd5781602001600182028036833780820191505090505b5090505b60008514612490576001826123f691906131bc565b9150600a85612405919061333f565b60306124119190613135565b60f81b81838151811061244d577f4e487b7100000000000000000000000000000000000000000000000000000000600052603260045260246000fd5b60200101907effffffffffffffffffffffffffffffffffffffffffffffffffffffffffffff1916908160001a905350600a85612489919061318b565b94506123e1565b8093505050505b919050565b8280546124a8906132c4565b90600052602060002090601f0160209004810192826124ca5760008555612511565b82601f106124e357805160ff1916838001178555612511565b82800160010185558215612511579182015b828111156125105782518255916020019190600101906124f5565b5b50905061251e9190612621565b5090565b60405180610180016040528060608152602001606081526020016000815260200160008152602001600081526020016000815260200160008152602001600073ffffffffffffffffffffffffffffffffffffffff168152602001600073ffffffffffffffffffffffffffffffffffffffff168152602001600015158152602001600060048111156125dc577f4e487b7100000000000000000000000000000000000000000000000000000000600052602160045260246000fd5b81526020016000600281111561261b577f4e487b7100000000000000000000000000000000000000000000000000000000600052602160045260246000fd5b81525090565b5b8082111561263a576000816000905550600101612622565b5090565b600061265161264c846130cd565b61309c565b90508281526020810184848401111561266957600080fd5b612674848285613282565b509392505050565b60008135905061268b81613494565b92915050565b600082601f8301126126a257600080fd5b81356126b284826020860161263e565b91505092915050565b6000813590506126ca816134ab565b92915050565b6000806000606084860312156126e557600080fd5b600084013567ffffffffffffffff8111156126ff57600080fd5b61270b86828701612691565b935050602084013567ffffffffffffffff81111561272857600080fd5b61273486828701612691565b9250506040612745868287016126bb565b9150509250925092565b60006020828403121561276157600080fd5b600061276f848285016126bb565b91505092915050565b6000806040838503121561278b57600080fd5b6000612799858286016126bb565b92505060206127aa8582860161267c565b9150509250929050565b6000806000606084860312156127c957600080fd5b60006127d7868287016126bb565b935050602084013567ffffffffffffffff8111156127f457600080fd5b61280086828701612691565b925050604084013567ffffffffffffffff81111561281d57600080fd5b61282986828701612691565b9150509250925092565b6000806040838503121561284657600080fd5b6000612854858286016126bb565b9250506020612865858286016126bb565b9150509250929050565b60008060006060848603121561288457600080fd5b6000612892868287016126bb565b93505060206128a3868287016126bb565b92505060406128b48682870161267c565b9150509250925092565b6128c7816131f0565b82525050565b6128d6816131f0565b82525050565b6128e581613202565b82525050565b6128f481613202565b82525050565b6129038161325e565b82525050565b6129128161325e565b82525050565b61292181613270565b82525050565b61293081613270565b82525050565b6000612941826130fd565b61294b8185613108565b935061295b818560208601613291565b6129648161345b565b840191505092915050565b600061297a826130fd565b6129848185613119565b9350612994818560208601613291565b61299d8161345b565b840191505092915050565b60006129b3826130fd565b6129bd818561312a565b93506129cd818560208601613291565b80840191505092915050565b60006129e6602183613119565b91507f412053657276696365204465736372697074696f6e206973207265717569726560008301527f64000000000000000000000000000000000000000000000000000000000000006020830152604082019050919050565b6000612a4c602183613119565b91507f412053657276696365205072696365206d75737420626520737065636966696560008301527f64000000000000000000000000000000000000000000000000000000000000006020830152604082019050919050565b6000612ab2602883613119565b91507f54686973207365727669636520686173206265656e207265717565737465642060008301527f616c72656164792e0000000000000000000000000000000000000000000000006020830152604082019050919050565b6000612b18602883613119565b91507f556e617574686f7269736564207374617274696e67206f66207365727669636560008301527f20726571756573740000000000000000000000000000000000000000000000006020830152604082019050919050565b6000612b7e60018361312a565b91507f20000000000000000000000000000000000000000000000000000000000000006000830152600182019050919050565b6000612bbe604083613119565b91507f556e617574686f72697365642061636365737320746f20736572766963652c2060008301527f6f6e6c7920736572766963652070726f76696465722063616e206163636573736020830152604082019050919050565b6000612c24602683613119565b91507f556e617574686f72697365642063616e63656c206f662073657276696365207260008301527f65717565737400000000000000000000000000000000000000000000000000006020830152604082019050919050565b6000612c8a601e83613119565b91507f556e617574686f726973656420726576696577206f66207365727669636500006000830152602082019050919050565b6000612cca601b83613119565b91507f412053657276696365205469746c6520697320726571756972656400000000006000830152602082019050919050565b6000610180830160008301518482036000860152612d1b8282612936565b91505060208301518482036020860152612d358282612936565b9150506040830151612d4a6040860182612e08565b506060830151612d5d6060860182612e08565b506080830151612d706080860182612e08565b5060a0830151612d8360a0860182612e08565b5060c0830151612d9660c0860182612e08565b5060e0830151612da960e08601826128be565b50610100830151612dbe6101008601826128be565b50610120830151612dd36101208601826128dc565b50610140830151612de8610140860182612918565b50610160830151612dfd6101608601826128fa565b508091505092915050565b612e1181613254565b82525050565b612e2081613254565b82525050565b6000612e3282856129a8565b9150612e3d82612b71565b9150612e4982846129a8565b91508190509392505050565b6000602082019050612e6a60008301846128cd565b92915050565b6000602082019050612e8560008301846128eb565b92915050565b6000602082019050612ea06000830184612909565b92915050565b6000602082019050612ebb6000830184612927565b92915050565b60006020820190508181036000830152612edb818461296f565b905092915050565b60006020820190508181036000830152612efc816129d9565b9050919050565b60006020820190508181036000830152612f1c81612a3f565b9050919050565b60006020820190508181036000830152612f3c81612aa5565b9050919050565b60006020820190508181036000830152612f5c81612b0b565b9050919050565b60006020820190508181036000830152612f7c81612bb1565b9050919050565b60006020820190508181036000830152612f9c81612c17565b9050919050565b60006020820190508181036000830152612fbc81612c7d565b9050919050565b60006020820190508181036000830152612fdc81612cbd565b9050919050565b60006020820190508181036000830152612ffd8184612cfd565b905092915050565b600060208201905061301a6000830184612e17565b92915050565b60006040820190506130356000830185612e17565b6130426020830184612e17565b9392505050565b600060808201905061305e6000830187612e17565b61306b6020830186612e17565b818103604083015261307d818561296f565b90508181036060830152613091818461296f565b905095945050505050565b6000604051905081810181811067ffffffffffffffff821117156130c3576130c261342c565b5b8060405250919050565b600067ffffffffffffffff8211156130e8576130e761342c565b5b601f19601f8301169050602081019050919050565b600081519050919050565b600082825260208201905092915050565b600082825260208201905092915050565b600081905092915050565b600061314082613254565b915061314b83613254565b9250827fffffffffffffffffffffffffffffffffffffffffffffffffffffffffffffffff038211156131805761317f613370565b5b828201905092915050565b600061319682613254565b91506131a183613254565b9250826131b1576131b061339f565b5b828204905092915050565b60006131c782613254565b91506131d283613254565b9250828210156131e5576131e4613370565b5b828203905092915050565b60006131fb82613234565b9050919050565b60008115159050919050565b600081905061321c8261346c565b919050565b600081905061322f82613480565b919050565b600073ffffffffffffffffffffffffffffffffffffffff82169050919050565b6000819050919050565b60006132698261320e565b9050919050565b600061327b82613221565b9050919050565b82818337600083830152505050565b60005b838110156132af578082015181840152602081019050613294565b838111156132be576000848401525b50505050565b600060028204905060018216806132dc57607f821691505b602082108114156132f0576132ef6133fd565b5b50919050565b600061330182613254565b91507fffffffffffffffffffffffffffffffffffffffffffffffffffffffffffffffff82141561333457613333613370565b5b600182019050919050565b600061334a82613254565b915061335583613254565b9250826133655761336461339f565b5b828206905092915050565b7f4e487b7100000000000000000000000000000000000000000000000000000000600052601160045260246000fd5b7f4e487b7100000000000000000000000000000000000000000000000000000000600052601260045260246000fd5b7f4e487b7100000000000000000000000000000000000000000000000000000000600052602160045260246000fd5b7f4e487b7100000000000000000000000000000000000000000000000000000000600052602260045260246000fd5b7f4e487b7100000000000000000000000000000000000000000000000000000000600052604160045260246000fd5b6000601f19601f8301169050919050565b6003811061347d5761347c6133ce565b5b50565b60058110613491576134906133ce565b5b50565b61349d81613202565b81146134a857600080fd5b50565b6134b481613254565b81146134bf57600080fd5b5056fea26469706673582212207c14a09ed66bc02c2986fd59fd0209cb3fe02cec61df24971a44d883186beb3864736f6c63430008000033",
  "immutableReferences": {},
  "source": "// SPDX-License-Identifier: MIT\npragma solidity >=0.4.22 <0.9.0;\n\nimport \"@openzeppelin/contracts/utils/Strings.sol\";\n\ncontract Service {\n\n    enum Status { none, pending, approved, started, completed }\n    enum Review { none, satisfied, disatisfied }\n\n    struct milestone {\n        string milestoneTitle;\n        string milestoneDescription;\n        bool exist; // allowing updates such as soft delete of milestone   \n        Status status; // Defaults at none\n        Review review; // Defaults at none\n    }\n    \n    struct service {\n        string title;\n        string description;\n        uint256 price;\n        uint256 totalMilestones; // Defaults to 1 milestone\n        uint256 currentMilestone; // Defaults to 0 milestone\n        uint256 milestoneCounter; // Counter to keep track of milestones that exist\n        uint256 serviceNumber; // index number of the service\n        address serviceProvider; // msg.sender\n        address serviceRequester; // defaults to address(0)\n        //bool listed;  // Defaults at false\n        bool exist; // allowing update such as soft delete of service\n        Status status; // Defaults at none\n        Review review; // Overall review of services, defaults at none\n    }\n\n    event serviceCreated(uint256 serviceNumber);\n    event serviceDeleted(uint256 serviceNumber);\n    //event serviceListed(uint256 serviceNumber);\n    //event serviceDelisted(uint256 serviceNumber);\n    event serviceRequested(Status status);\n    event serviceCancelRequest(Status status);\n    event serviceApproved(Status status);\n    event serviceRejected(Status status);\n    event serviceStarted(Status status);\n    event serviceCompleted(Status status);\n    event serviceReview(Review review);\n    event milestoneAdded(uint256 serviceNumber, uint256 milestoneNumber, string milestoneTitle, string milestoneDescription);\n    event milestoneDeleted(uint256 serviceNumber, uint256 milestoneNumber);\n    event milestoneCompleted(uint256 serviceNumber, uint256 milestoneNumber);\n    event milestoneReview(Review review);\n\n    mapping (uint256 => mapping(uint256 => milestone)) milestones; // indexed mapping of services to multiple milestones\n    mapping (uint256 => service) services; // indexed mapping of all services \n    \n    uint256 public numService = 0;\n\n\n/*\n    Service Provider Functions\n*/\n    modifier onlyServiceProvider(uint256 serviceNumber){\n        // Only allow ServiceProviders to access these functions\n        require(msg.sender == services[serviceNumber].serviceProvider, \n                \"Unauthorised access to service, only service provider can access\");\n        _;\n    }\n\n    // Creation of service , defaults at 1 milestone. To add more milestones, use AddMilestones function\n    function createService(string memory title, string memory description, uint256 price) public returns (uint256) {\n        require(bytes(title).length > 0, \"A Service Title is required\");\n        require(bytes(description).length > 0, \"A Service Description is required\");\n        require(price > 0, \"A Service Price must be specified\");\n        \n        service memory newService = service(title,description,price,0,0,0,numService,msg.sender,address(0),true,Status.none,Review.none);\n        services[numService] = newService;\n        addMilestone(numService, title, description); // Defaults first milestone to equivalent to original title and description\n        emit serviceCreated(numService);\n        numService++;\n        \n        return numService;\n    }\n\n    // Deletion of service (soft deletion)\n    function deleteService(uint256 serviceNumber) public onlyServiceProvider(serviceNumber) {\n        //require(msg.sender == services[serviceNumber].serviceProvider, \"Unauthorised service provider\");\n        services[serviceNumber].exist = false;\n        emit serviceDeleted(serviceNumber);\n    }\n\n    // Adding milestone , starts from 2nd milestone (index 2)\n    function addMilestone (uint256 serviceNumber, string memory milestoneTitle, string memory milestoneDescription ) public onlyServiceProvider(serviceNumber){\n        // require(msg.sender == services[serviceNumber].serviceProvider, \"Unauthorised service provider\");\n        services[serviceNumber].totalMilestones += 1; // Real tally of total milestones\n        services[serviceNumber].milestoneCounter += 1; // A counter that only increments\n        uint256 serviceMilestone = services[serviceNumber].totalMilestones;\n        milestones[serviceNumber][serviceMilestone] = milestone(milestoneTitle,milestoneDescription,true,Status.none,Review.none);\n        emit milestoneAdded(serviceNumber, serviceMilestone, milestoneTitle, milestoneDescription);\n    }\n\n    // Deleting milestone , soft delete with a boolean function\n    function deleteMilestone (uint256 serviceNumber, uint256 milestoneNumber) public onlyServiceProvider(serviceNumber){\n        // require(msg.sender == services[serviceNumber].serviceProvider, \"Unauthorised service provider\"); \n        milestones[serviceNumber][milestoneNumber].exist = false;\n        services[serviceNumber].totalMilestones -= 1; // Real tally of total milestones\n        emit milestoneDeleted(serviceNumber, milestoneNumber);\n    }\n\n    // Service provider listing created service\n    /*function listService (uint256 serviceNumber) public onlyServiceProvider(serviceNumber){\n        // require(msg.sender == services[serviceNumber].serviceProvider, \"Unauthorised service provider\");\n        services[serviceNumber].listed = true;\n        emit serviceListed(serviceNumber);\n    }\n\n    // Service provider delisting created service\n    function delistService (uint256 serviceNumber) public onlyServiceProvider(serviceNumber){\n        // require(msg.sender == services[serviceNumber].serviceProvider, \"Unauthorised service provider\");\n        services[serviceNumber].listed = false; \n        emit serviceDelisted(serviceNumber);\n    }*/\n\n    // Service provider approving pending service request\n    function approveServiceRequest(uint256 serviceNumber) public onlyServiceProvider(serviceNumber){\n        // require(services[serviceNumber].serviceProvider == msg.sender, \"Unauthorised approval of service request\");\n        services[serviceNumber].status = Status.approved; // Changing state to accepted\n        emit serviceApproved(Status.approved);\n    }\n\n    // Service provider rejecting pending service request\n    function rejectServiceRequest(uint256 serviceNumber) public onlyServiceProvider(serviceNumber){\n        // require(services[serviceNumber].serviceProvider == msg.sender, \"Unauthorised rejection of service request\");\n        services[serviceNumber].status = Status.none; // reverting back to original status state\n        emit serviceRejected(Status.none);\n    }\n\n    function completeMilestone(uint256 serviceNumber, uint256 milestoneNumber) public onlyServiceProvider(serviceNumber){\n        // require(services[serviceNumber].serviceProvider == msg.sender, \"Unauthorised starting of service request\");\n        milestones[serviceNumber][milestoneNumber].status = Status.completed;\n        emit milestoneCompleted(serviceNumber, milestoneNumber);\n        services[serviceNumber].currentMilestone += 1;\n        completeService(serviceNumber); // complete service if all milestones are finished\n    }\n\n    function completeService(uint256 serviceNumber) public onlyServiceProvider(serviceNumber){\n        // require(services[serviceNumber].serviceProvider == msg.sender, \"Unauthorised starting of service request\");\n        if (services[serviceNumber].currentMilestone == services[serviceNumber].totalMilestones) {\n            services[serviceNumber].status = Status.completed;\n            emit serviceCompleted(Status.completed);\n        }      \n    }\n\n/*\n    Service Requester Functions\n*/\n\n    // Service requester requesting service\n    function requestService (uint256 serviceNumber) public {\n        require(services[serviceNumber].serviceRequester == address(0), \"This service has been requested already.\");\n        services[serviceNumber].serviceRequester = msg.sender;\n        services[serviceNumber].status = Status.pending; // signify pending service request\n        emit serviceRequested(Status.pending);\n    }\n\n    // Service requester cancelling service request\n    function cancelRequestService (uint256 serviceNumber) public {\n        require(services[serviceNumber].serviceRequester == msg.sender, \"Unauthorised cancel of service request\");\n        services[serviceNumber].serviceRequester = address(0);\n        services[serviceNumber].status = Status.none; // reverting back to original status state\n        emit serviceCancelRequest(Status.none);\n    }\n\n    // Service requester can now start the requested service\n    function startRequestedService(uint256 serviceNumber) public {\n        require(services[serviceNumber].serviceRequester == msg.sender, \"Unauthorised starting of service request\");\n        services[serviceNumber].status = Status.started;\n        emit serviceStarted(Status.started);\n    }\n\n    // Review of service takes in a a boolean, true = satisfied, false = dissatisfied\n    function reviewMilestone(uint256 serviceNumber, uint256 milestoneNumber, bool satisfied) public {\n        require(services[serviceNumber].serviceRequester == msg.sender, \"Unauthorised review of service\");\n        if (satisfied) {\n            milestones[serviceNumber][milestoneNumber].review = Review.satisfied;\n            emit milestoneReview(Review.satisfied);\n        } else {\n            milestones[serviceNumber][milestoneNumber].review = Review.disatisfied;\n            emit milestoneReview(Review.disatisfied);\n        }\n    }\n\n    // Review of service takes in a boolean, true = satisfied , false = dissatisfied\n    function reviewService(uint256 serviceNumber, bool satisfied) public {\n        require(services[serviceNumber].serviceRequester == msg.sender, \"Unauthorised review of service\");\n        satisfied ? services[serviceNumber].review = Review.satisfied : services[serviceNumber].review = Review.disatisfied;\n    }\n\n/*\n    Getter Helper Functions\n*/\n\n    // Getter for services created by service provider\n    function viewMyServices() public view returns (string memory) {\n        string memory s = \"\";\n        for (uint i = 0; i < numService; i++) {\n            if (services[i].serviceProvider == msg.sender) {\n                s = string(abi.encodePacked(s, ' ', Strings.toString(i)));\n            }\n        }\n        return s;\n    }\n\n    // Getter for index milestones in the service\n    function getMilestones(uint256 serviceNumber) public view returns (string memory) {\n        string memory s = \"\";\n        for (uint i = 0; i < services[serviceNumber].milestoneCounter; i++) {\n            if (milestones[serviceNumber][i].exist == true) {\n                s = string(abi.encodePacked(s,' ', Strings.toString(i)));\n            }\n        }\n        return s;\n    }\n\n    // Getter for total milestones in the service\n    function getTotalMilestones(uint256 serviceNumber) public view returns (uint256) {\n        return services[serviceNumber].totalMilestones;\n    }\n    \n    // Getter for total number of services listed\n    function getNumServices() public view returns (uint256) {\n        uint sum = 0;\n        for (uint i = 0 ; i < numService; i ++) {\n            services[i].exist == true ? sum += 1 : sum += 0;\n        }\n        return sum;\n    }\n\n    // Getter for service details\n    function getServiceDetails(uint256 serviceNumber) public view returns (service memory) {\n        return services[serviceNumber];\n    }\n\n    // Getter for service price\n    function getServicePrice(uint256 serviceNumber) public view returns (uint256) {\n        return services[serviceNumber].price;\n    }\n\n    // Getter for boolean if service is approved\n    function isServiceApproved(uint256 serviceNumber) public view returns (bool) {\n        return services[serviceNumber].status == Status.approved;\n    }\n\n    // Getter for boolean if service exists\n    function doesServiceExist(uint256 serviceNumber) public view returns (bool){\n        return services[serviceNumber].exist;\n    }\n\n    // Getter for Service provider\n    function getServiceProvider(uint256 serviceNumber) public view returns (address){\n        return services[serviceNumber].serviceProvider;\n    }\n\n    // Getter for Service requester\n    function getServiceRequester(uint256 serviceNumber) public view returns (address){\n        return services[serviceNumber].serviceRequester;\n    }\n}",
  "sourcePath": "/mnt/c/Users/Lenovo/OneDrive/Documents/github/IS4302/contracts/Service.sol",
  "compiler": {
    "name": "solc",
    "version": "0.8.0+commit.c7dfd78e.Emscripten.clang"
  },
  "schemaVersion": "3.4.4",
  "updatedAt": "2022-03-25T12:30:10.187Z",
  "devdoc": {
    "kind": "dev",
    "methods": {},
    "version": 1
  },
  "userdoc": {
    "kind": "user",
    "methods": {},
    "version": 1
  }
}