{
  "contractName": "Service",
  "abi": [
    {
      "inputs": [
        {
          "internalType": "contract Milestones",
          "name": "milestoneAddress",
          "type": "address"
        }
      ],
      "stateMutability": "nonpayable",
      "type": "constructor"
    },
    {
      "anonymous": false,
      "inputs": [
        {
          "indexed": false,
          "internalType": "enum Service.Status",
          "name": "status",
          "type": "uint8"
        }
      ],
      "name": "serviceApproved",
      "type": "event"
    },
    {
      "anonymous": false,
      "inputs": [
        {
          "indexed": false,
          "internalType": "enum Service.Status",
          "name": "status",
          "type": "uint8"
        }
      ],
      "name": "serviceCancelRequest",
      "type": "event"
    },
    {
      "anonymous": false,
      "inputs": [
        {
          "indexed": false,
          "internalType": "enum Service.Status",
          "name": "status",
          "type": "uint8"
        }
      ],
      "name": "serviceCompleted",
      "type": "event"
    },
    {
      "anonymous": false,
      "inputs": [
        {
          "indexed": false,
          "internalType": "uint256",
          "name": "serviceNumber",
          "type": "uint256"
        },
        {
          "components": [
            {
              "internalType": "string",
              "name": "title",
              "type": "string"
            },
            {
              "internalType": "string",
              "name": "description",
              "type": "string"
            },
            {
              "internalType": "uint256",
              "name": "price",
              "type": "uint256"
            },
            {
              "internalType": "uint256",
              "name": "currentMilestone",
              "type": "uint256"
            },
            {
              "internalType": "uint256",
              "name": "serviceNumber",
              "type": "uint256"
            },
            {
              "internalType": "address",
              "name": "serviceProvider",
              "type": "address"
            },
            {
              "internalType": "address",
              "name": "serviceRequester",
              "type": "address"
            },
            {
              "internalType": "bool",
              "name": "exist",
              "type": "bool"
            },
            {
              "internalType": "enum Service.Status",
              "name": "status",
              "type": "uint8"
            }
          ],
          "indexed": false,
          "internalType": "struct Service.service",
          "name": "newService",
          "type": "tuple"
        }
      ],
      "name": "serviceCreated",
      "type": "event"
    },
    {
      "anonymous": false,
      "inputs": [
        {
          "indexed": false,
          "internalType": "uint256",
          "name": "serviceNumber",
          "type": "uint256"
        }
      ],
      "name": "serviceDeleted",
      "type": "event"
    },
    {
      "anonymous": false,
      "inputs": [
        {
          "indexed": false,
          "internalType": "enum Service.Status",
          "name": "status",
          "type": "uint8"
        }
      ],
      "name": "serviceRejected",
      "type": "event"
    },
    {
      "anonymous": false,
      "inputs": [
        {
          "indexed": false,
          "internalType": "enum Service.Status",
          "name": "status",
          "type": "uint8"
        },
        {
          "indexed": false,
          "internalType": "uint256",
          "name": "serviceNumber",
          "type": "uint256"
        }
      ],
      "name": "serviceRequested",
      "type": "event"
    },
    {
      "anonymous": false,
      "inputs": [
        {
          "indexed": false,
          "internalType": "enum Service.Review",
          "name": "review",
          "type": "uint8"
        }
      ],
      "name": "serviceReview",
      "type": "event"
    },
    {
      "anonymous": false,
      "inputs": [
        {
          "indexed": false,
          "internalType": "enum Service.Status",
          "name": "status",
          "type": "uint8"
        }
      ],
      "name": "serviceStarted",
      "type": "event"
    },
    {
      "anonymous": false,
      "inputs": [
        {
          "indexed": false,
          "internalType": "uint256",
          "name": "serviceNumber",
          "type": "uint256"
        },
        {
          "indexed": false,
          "internalType": "enum Service.Status",
          "name": "statusBefore",
          "type": "uint8"
        },
        {
          "indexed": false,
          "internalType": "enum Service.Status",
          "name": "statusAfter",
          "type": "uint8"
        }
      ],
      "name": "serviceStatusChanged",
      "type": "event"
    },
    {
      "inputs": [],
      "name": "numService",
      "outputs": [
        {
          "internalType": "uint256",
          "name": "",
          "type": "uint256"
        }
      ],
      "stateMutability": "view",
      "type": "function"
    },
    {
      "inputs": [
        {
          "internalType": "string",
          "name": "title",
          "type": "string"
        },
        {
          "internalType": "string",
          "name": "description",
          "type": "string"
        },
        {
          "internalType": "uint256",
          "name": "price",
          "type": "uint256"
        }
      ],
      "name": "createService",
      "outputs": [
        {
          "internalType": "uint256",
          "name": "",
          "type": "uint256"
        }
      ],
      "stateMutability": "nonpayable",
      "type": "function"
    },
    {
      "inputs": [
        {
          "internalType": "uint256",
          "name": "serviceNumber",
          "type": "uint256"
        }
      ],
      "name": "deleteService",
      "outputs": [],
      "stateMutability": "nonpayable",
      "type": "function"
    },
    {
      "inputs": [
        {
          "internalType": "uint256",
          "name": "serviceNumber",
          "type": "uint256"
        },
        {
          "internalType": "string",
          "name": "milestoneTitle",
          "type": "string"
        },
        {
          "internalType": "string",
          "name": "milestoneDescription",
          "type": "string"
        }
      ],
      "name": "addMilestone",
      "outputs": [],
      "stateMutability": "nonpayable",
      "type": "function"
    },
    {
      "inputs": [
        {
          "internalType": "uint256",
          "name": "serviceNumber",
          "type": "uint256"
        },
        {
          "internalType": "uint256",
          "name": "milestoneNumber",
          "type": "uint256"
        },
        {
          "internalType": "string",
          "name": "milestoneTitle",
          "type": "string"
        },
        {
          "internalType": "string",
          "name": "milestoneDescription",
          "type": "string"
        }
      ],
      "name": "updateMilestone",
      "outputs": [],
      "stateMutability": "nonpayable",
      "type": "function"
    },
    {
      "inputs": [
        {
          "internalType": "uint256",
          "name": "serviceNumber",
          "type": "uint256"
        },
        {
          "internalType": "uint256",
          "name": "milestoneNumber",
          "type": "uint256"
        }
      ],
      "name": "deleteMilestone",
      "outputs": [],
      "stateMutability": "nonpayable",
      "type": "function"
    },
    {
      "inputs": [
        {
          "internalType": "uint256",
          "name": "serviceNumber",
          "type": "uint256"
        }
      ],
      "name": "approveServiceRequest",
      "outputs": [],
      "stateMutability": "nonpayable",
      "type": "function"
    },
    {
      "inputs": [
        {
          "internalType": "uint256",
          "name": "serviceNumber",
          "type": "uint256"
        }
      ],
      "name": "rejectServiceRequest",
      "outputs": [],
      "stateMutability": "nonpayable",
      "type": "function"
    },
    {
      "inputs": [
        {
          "internalType": "uint256",
          "name": "serviceNumber",
          "type": "uint256"
        }
      ],
      "name": "startRequestedService",
      "outputs": [],
      "stateMutability": "nonpayable",
      "type": "function"
    },
    {
      "inputs": [
        {
          "internalType": "uint256",
          "name": "serviceNumber",
          "type": "uint256"
        }
      ],
      "name": "completeCurrMilestone",
      "outputs": [],
      "stateMutability": "nonpayable",
      "type": "function"
    },
    {
      "inputs": [
        {
          "internalType": "uint256",
          "name": "serviceNumber",
          "type": "uint256"
        }
      ],
      "name": "completeService",
      "outputs": [],
      "stateMutability": "nonpayable",
      "type": "function"
    },
    {
      "inputs": [
        {
          "internalType": "uint256",
          "name": "serviceNumber",
          "type": "uint256"
        }
      ],
      "name": "requestService",
      "outputs": [],
      "stateMutability": "nonpayable",
      "type": "function"
    },
    {
      "inputs": [
        {
          "internalType": "uint256",
          "name": "serviceNumber",
          "type": "uint256"
        }
      ],
      "name": "cancelRequestService",
      "outputs": [],
      "stateMutability": "nonpayable",
      "type": "function"
    },
    {
      "inputs": [
        {
          "internalType": "uint256",
          "name": "serviceNumber",
          "type": "uint256"
        }
      ],
      "name": "interruptService",
      "outputs": [],
      "stateMutability": "nonpayable",
      "type": "function"
    },
    {
      "inputs": [
        {
          "internalType": "uint256",
          "name": "serviceNumber",
          "type": "uint256"
        },
        {
          "internalType": "uint256",
          "name": "milestoneNumber",
          "type": "uint256"
        }
      ],
      "name": "approveMilestone",
      "outputs": [],
      "stateMutability": "nonpayable",
      "type": "function"
    },
    {
      "inputs": [
        {
          "internalType": "uint256",
          "name": "serviceNumber",
          "type": "uint256"
        },
        {
          "internalType": "uint256",
          "name": "milestoneNumber",
          "type": "uint256"
        }
      ],
      "name": "verifyMilestone",
      "outputs": [],
      "stateMutability": "nonpayable",
      "type": "function"
    },
    {
      "inputs": [],
      "name": "viewMyServices",
      "outputs": [
        {
          "internalType": "string",
          "name": "",
          "type": "string"
        }
      ],
      "stateMutability": "view",
      "type": "function"
    },
    {
      "inputs": [
        {
          "internalType": "uint256",
          "name": "serviceNumber",
          "type": "uint256"
        }
      ],
      "name": "getAllMilestonesVerified",
      "outputs": [
        {
          "internalType": "bool",
          "name": "",
          "type": "bool"
        }
      ],
      "stateMutability": "view",
      "type": "function"
    },
    {
      "inputs": [],
      "name": "getNumServices",
      "outputs": [
        {
          "internalType": "uint256",
          "name": "",
          "type": "uint256"
        }
      ],
      "stateMutability": "view",
      "type": "function"
    },
    {
      "inputs": [
        {
          "internalType": "uint256",
          "name": "serviceNumber",
          "type": "uint256"
        }
      ],
      "name": "getServiceDetails",
      "outputs": [
        {
          "components": [
            {
              "internalType": "string",
              "name": "title",
              "type": "string"
            },
            {
              "internalType": "string",
              "name": "description",
              "type": "string"
            },
            {
              "internalType": "uint256",
              "name": "price",
              "type": "uint256"
            },
            {
              "internalType": "uint256",
              "name": "currentMilestone",
              "type": "uint256"
            },
            {
              "internalType": "uint256",
              "name": "serviceNumber",
              "type": "uint256"
            },
            {
              "internalType": "address",
              "name": "serviceProvider",
              "type": "address"
            },
            {
              "internalType": "address",
              "name": "serviceRequester",
              "type": "address"
            },
            {
              "internalType": "bool",
              "name": "exist",
              "type": "bool"
            },
            {
              "internalType": "enum Service.Status",
              "name": "status",
              "type": "uint8"
            }
          ],
          "internalType": "struct Service.service",
          "name": "",
          "type": "tuple"
        }
      ],
      "stateMutability": "view",
      "type": "function"
    },
    {
      "inputs": [
        {
          "internalType": "uint256",
          "name": "serviceNumber",
          "type": "uint256"
        }
      ],
      "name": "getServicePrice",
      "outputs": [
        {
          "internalType": "uint256",
          "name": "",
          "type": "uint256"
        }
      ],
      "stateMutability": "view",
      "type": "function"
    },
    {
      "inputs": [
        {
          "internalType": "uint256",
          "name": "serviceNumber",
          "type": "uint256"
        }
      ],
      "name": "isServiceApproved",
      "outputs": [
        {
          "internalType": "bool",
          "name": "",
          "type": "bool"
        }
      ],
      "stateMutability": "view",
      "type": "function"
    },
    {
      "inputs": [
        {
          "internalType": "uint256",
          "name": "serviceNumber",
          "type": "uint256"
        }
      ],
      "name": "doesServiceExist",
      "outputs": [
        {
          "internalType": "bool",
          "name": "",
          "type": "bool"
        }
      ],
      "stateMutability": "view",
      "type": "function"
    },
    {
      "inputs": [
        {
          "internalType": "uint256",
          "name": "serviceNumber",
          "type": "uint256"
        }
      ],
      "name": "getServiceProvider",
      "outputs": [
        {
          "internalType": "address",
          "name": "",
          "type": "address"
        }
      ],
      "stateMutability": "view",
      "type": "function"
    },
    {
      "inputs": [
        {
          "internalType": "uint256",
          "name": "serviceNumber",
          "type": "uint256"
        }
      ],
      "name": "getServiceRequester",
      "outputs": [
        {
          "internalType": "address",
          "name": "",
          "type": "address"
        }
      ],
      "stateMutability": "view",
      "type": "function"
    },
    {
      "inputs": [
        {
          "internalType": "uint256",
          "name": "serviceNumber",
          "type": "uint256"
        }
      ],
      "name": "isServiceStatusCompleted",
      "outputs": [
        {
          "internalType": "bool",
          "name": "",
          "type": "bool"
        }
      ],
      "stateMutability": "view",
      "type": "function"
    },
    {
      "inputs": [
        {
          "internalType": "uint256",
          "name": "serviceNumber",
          "type": "uint256"
        }
      ],
      "name": "getCurrentMilestone",
      "outputs": [
        {
          "internalType": "uint256",
          "name": "",
          "type": "uint256"
        }
      ],
      "stateMutability": "view",
      "type": "function"
    },
    {
      "inputs": [
        {
          "internalType": "uint256",
          "name": "serviceNumber",
          "type": "uint256"
        }
      ],
      "name": "getCurrentMilestoneStatus",
      "outputs": [
        {
          "internalType": "enum Milestones.Status",
          "name": "",
          "type": "uint8"
        }
      ],
      "stateMutability": "view",
      "type": "function"
    }
  ],
  "bytecode": "0x608060405260006002553480156200001657600080fd5b50604051620054963803806200549683398181016040528101906200003c91906200009a565b806000806101000a81548173ffffffffffffffffffffffffffffffffffffffff021916908373ffffffffffffffffffffffffffffffffffffffff1602179055505062000128565b60008151905062000094816200010e565b92915050565b600060208284031215620000ad57600080fd5b6000620000bd8482850162000083565b91505092915050565b6000620000d382620000ee565b9050919050565b6000620000e782620000c6565b9050919050565b600073ffffffffffffffffffffffffffffffffffffffff82169050919050565b6200011981620000da565b81146200012557600080fd5b50565b61535e80620001386000396000f3fe608060405234801561001057600080fd5b50600436106101c45760003560e01c8063802ffb45116100f9578063c03f9b4411610097578063c5ff59c311610071578063c5ff59c3146104fb578063c71af8e81461052b578063e4fb7bd51461055b578063e76efc001461058b576101c4565b8063c03f9b441461047f578063c0d92237146104af578063c2698c84146104cb576101c4565b80638d658d54116100d35780638d658d54146103fb57806392f9d4c314610417578063a1a56bae14610433578063bfe7d4621461044f576101c4565b8063802ffb4514610391578063854c4707146103c15780638ce0ed08146103df576101c4565b806352c927591161016657806374d592821161014057806374d59282146102e557806374e29ee61461031557806376f371f5146103315780637b15f1b614610361576101c4565b806352c927591461028f57806362873f8a146102ab5780636c273d34146102c9576101c4565b80632138f0a3116101a25780632138f0a31461021d5780632961b3ba146102395780632dd03f93146102575780632f3ccebd14610273576101c4565b8063019fcdea146101c9578063095674aa146101e557806320913da514610201575b600080fd5b6101e360048036038101906101de919061409b565b6105bb565b005b6101ff60048036038101906101fa919061417f565b61096e565b005b61021b60048036038101906102169190614143565b610d05565b005b6102376004803603810190610232919061409b565b611041565b005b6102416112fa565b60405161024e9190614cd9565b60405180910390f35b610271600480360381019061026c9190614143565b61137f565b005b61028d6004803603810190610288919061409b565b611693565b005b6102a960048036038101906102a4919061409b565b6119ca565b005b6102b36119cd565b6040516102c09190614ad5565b60405180910390f35b6102e360048036038101906102de91906140c4565b611aa2565b005b6102ff60048036038101906102fa919061409b565b611d0b565b60405161030c9190614aba565b60405180910390f35b61032f600480360381019061032a919061409b565b611dc8565b005b61034b6004803603810190610346919061409b565b61201d565b6040516103589190614a9f565b60405180910390f35b61037b6004803603810190610376919061401c565b6120d0565b6040516103889190614cd9565b60405180910390f35b6103ab60048036038101906103a6919061409b565b612427565b6040516103b89190614a84565b60405180910390f35b6103c9612467565b6040516103d69190614cd9565b60405180910390f35b6103f960048036038101906103f4919061409b565b61246d565b005b6104156004803603810190610410919061409b565b612807565b005b610431600480360381019061042c919061409b565b612ac0565b005b61044d60048036038101906104489190614143565b612f44565b005b6104696004803603810190610464919061409b565b613249565b6040516104769190614a9f565b60405180910390f35b6104996004803603810190610494919061409b565b613276565b6040516104a69190614cd9565b60405180910390f35b6104c960048036038101906104c4919061409b565b613296565b005b6104e560048036038101906104e0919061409b565b6137c4565b6040516104f29190614cb7565b60405180910390f35b6105156004803603810190610510919061409b565b613a82565b6040516105229190614a9f565b60405180910390f35b6105456004803603810190610540919061409b565b613b21565b6040516105529190614a84565b60405180910390f35b6105756004803603810190610570919061409b565b613b61565b6040516105829190614a9f565b60405180910390f35b6105a560048036038101906105a0919061409b565b613c01565b6040516105b29190614cd9565b60405180910390f35b806001600082815260200190815260200160002060050160009054906101000a900473ffffffffffffffffffffffffffffffffffffffff1673ffffffffffffffffffffffffffffffffffffffff163373ffffffffffffffffffffffffffffffffffffffff161415610661576040517f08c379a000000000000000000000000000000000000000000000000000000000815260040161065890614c57565b60405180910390fd5b81600080600481111561069d577f4e487b7100000000000000000000000000000000000000000000000000000000600052602160045260246000fd5b6001600084815260200190815260200160002060060160159054906101000a900460ff1660048111156106f9577f4e487b7100000000000000000000000000000000000000000000000000000000600052602160045260246000fd5b14610739576040517f08c379a000000000000000000000000000000000000000000000000000000000815260040161073090614bd7565b60405180910390fd5b83600115156001600083815260200190815260200160002060060160149054906101000a900460ff161515146107a4576040517f08c379a000000000000000000000000000000000000000000000000000000000815260040161079b90614c37565b60405180910390fd5b600073ffffffffffffffffffffffffffffffffffffffff166001600087815260200190815260200160002060060160009054906101000a900473ffffffffffffffffffffffffffffffffffffffff1673ffffffffffffffffffffffffffffffffffffffff1614610849576040517f08c379a000000000000000000000000000000000000000000000000000000000815260040161084090614b77565b60405180910390fd5b336001600087815260200190815260200160002060060160006101000a81548173ffffffffffffffffffffffffffffffffffffffff021916908373ffffffffffffffffffffffffffffffffffffffff16021790555060006001600087815260200190815260200160002060060160159054906101000a900460ff169050600180600088815260200190815260200160002060060160156101000a81548160ff02191690836004811115610925577f4e487b7100000000000000000000000000000000000000000000000000000000600052602160045260246000fd5b02179055507ffac99f2b52ce8852278c4c5b1a970878838c6a0d32976deffb9630cc469703538682600160405161095e93929190614cf4565b60405180910390a1505050505050565b836001600082815260200190815260200160002060050160009054906101000a900473ffffffffffffffffffffffffffffffffffffffff1673ffffffffffffffffffffffffffffffffffffffff163373ffffffffffffffffffffffffffffffffffffffff1614610a13576040517f08c379a0000000000000000000000000000000000000000000000000000000008152600401610a0a90614b97565b60405180910390fd5b8460036001600083815260200190815260200160002060060160159054906101000a900460ff166004811115610a72577f4e487b7100000000000000000000000000000000000000000000000000000000600052602160045260246000fd5b60ff1610610ab5576040517f08c379a0000000000000000000000000000000000000000000000000000000008152600401610aac90614bf7565b60405180910390fd5b8585600160008054906101000a900473ffffffffffffffffffffffffffffffffffffffff1673ffffffffffffffffffffffffffffffffffffffff16632611954f8484846004811115610b30577f4e487b7100000000000000000000000000000000000000000000000000000000600052602160045260246000fd5b6040518463ffffffff1660e01b8152600401610b4e93929190614e8a565b60206040518083038186803b158015610b6657600080fd5b505afa158015610b7a573d6000803e3d6000fd5b505050506040513d601f19601f82011682018060405250810190610b9e9190613fca565b610bdd576040517f08c379a0000000000000000000000000000000000000000000000000000000008152600401610bd490614b17565b60405180910390fd5b866000815111610c22576040517f08c379a0000000000000000000000000000000000000000000000000000000008152600401610c1990614c17565b60405180910390fd5b866000815111610c67576040517f08c379a0000000000000000000000000000000000000000000000000000000008152600401610c5e90614c17565b60405180910390fd5b60008054906101000a900473ffffffffffffffffffffffffffffffffffffffff1673ffffffffffffffffffffffffffffffffffffffff1663095674aa8c8c8c8c6040518563ffffffff1660e01b8152600401610cc69493929190614e37565b600060405180830381600087803b158015610ce057600080fd5b505af1158015610cf4573d6000803e3d6000fd5b505050505050505050505050505050565b816001600082815260200190815260200160002060060160009054906101000a900473ffffffffffffffffffffffffffffffffffffffff1673ffffffffffffffffffffffffffffffffffffffff163373ffffffffffffffffffffffffffffffffffffffff1614610daa576040517f08c379a0000000000000000000000000000000000000000000000000000000008152600401610da190614c57565b60405180910390fd5b826002806004811115610de6577f4e487b7100000000000000000000000000000000000000000000000000000000600052602160045260246000fd5b6001600084815260200190815260200160002060060160159054906101000a900460ff166004811115610e42577f4e487b7100000000000000000000000000000000000000000000000000000000600052602160045260246000fd5b14610e82576040517f08c379a0000000000000000000000000000000000000000000000000000000008152600401610e7990614bd7565b60405180910390fd5b8484600160008054906101000a900473ffffffffffffffffffffffffffffffffffffffff1673ffffffffffffffffffffffffffffffffffffffff16632611954f8484846004811115610efd577f4e487b7100000000000000000000000000000000000000000000000000000000600052602160045260246000fd5b6040518463ffffffff1660e01b8152600401610f1b93929190614e8a565b60206040518083038186803b158015610f3357600080fd5b505afa158015610f47573d6000803e3d6000fd5b505050506040513d601f19601f82011682018060405250810190610f6b9190613fca565b610faa576040517f08c379a0000000000000000000000000000000000000000000000000000000008152600401610fa190614b17565b60405180910390fd5b60008054906101000a900473ffffffffffffffffffffffffffffffffffffffff1673ffffffffffffffffffffffffffffffffffffffff166379a6544e89896040518363ffffffff1660e01b8152600401611005929190614da0565b600060405180830381600087803b15801561101f57600080fd5b505af1158015611033573d6000803e3d6000fd5b505050505050505050505050565b806001600082815260200190815260200160002060050160009054906101000a900473ffffffffffffffffffffffffffffffffffffffff1673ffffffffffffffffffffffffffffffffffffffff163373ffffffffffffffffffffffffffffffffffffffff16146110e6576040517f08c379a00000000000000000000000000000000000000000000000000000000081526004016110dd90614b97565b60405180910390fd5b81600115156001600083815260200190815260200160002060060160149054906101000a900460ff16151514611151576040517f08c379a000000000000000000000000000000000000000000000000000000000815260040161114890614c37565b60405180910390fd5b82600180600481111561118d577f4e487b7100000000000000000000000000000000000000000000000000000000600052602160045260246000fd5b6001600084815260200190815260200160002060060160159054906101000a900460ff1660048111156111e9577f4e487b7100000000000000000000000000000000000000000000000000000000600052602160045260246000fd5b14611229576040517f08c379a000000000000000000000000000000000000000000000000000000000815260040161122090614bd7565b60405180910390fd5b60006001600087815260200190815260200160002060060160159054906101000a900460ff16905060026001600088815260200190815260200160002060060160156101000a81548160ff021916908360048111156112b1577f4e487b7100000000000000000000000000000000000000000000000000000000600052602160045260246000fd5b02179055507ffac99f2b52ce8852278c4c5b1a970878838c6a0d32976deffb9630cc46970353868260026040516112ea93929190614cf4565b60405180910390a1505050505050565b6000806000905060005b60025481101561137757600115156001600083815260200190815260200160002060060160149054906101000a900460ff161515146113525760008261134a9190614f5a565b915081611363565b60018261135f9190614f5a565b9150815b50808061136f9061514c565b915050611304565b508091505090565b816001600082815260200190815260200160002060060160009054906101000a900473ffffffffffffffffffffffffffffffffffffffff1673ffffffffffffffffffffffffffffffffffffffff163373ffffffffffffffffffffffffffffffffffffffff1614611424576040517f08c379a000000000000000000000000000000000000000000000000000000000815260040161141b90614c57565b60405180910390fd5b828260008054906101000a900473ffffffffffffffffffffffffffffffffffffffff1673ffffffffffffffffffffffffffffffffffffffff16632611954f838360046040518463ffffffff1660e01b815260040161148493929190614dc9565b60206040518083038186803b15801561149c57600080fd5b505afa1580156114b0573d6000803e3d6000fd5b505050506040513d601f19601f820116820180604052508101906114d49190613fca565b611513576040517f08c379a000000000000000000000000000000000000000000000000000000000815260040161150a90614c97565b60405180910390fd5b60008054906101000a900473ffffffffffffffffffffffffffffffffffffffff1673ffffffffffffffffffffffffffffffffffffffff1663275a645c86866040518363ffffffff1660e01b815260040161156e929190614da0565b600060405180830381600087803b15801561158857600080fd5b505af115801561159c573d6000803e3d6000fd5b505050506115a98561201d565b156115bc576115b785611693565b61168c565b6001600086815260200190815260200160002060030160008154809291906115e39061514c565b919050555060008054906101000a900473ffffffffffffffffffffffffffffffffffffffff1673ffffffffffffffffffffffffffffffffffffffff1663ab7db0038660016000898152602001908152602001600020600301546040518363ffffffff1660e01b8152600401611659929190614da0565b600060405180830381600087803b15801561167357600080fd5b505af1158015611687573d6000803e3d6000fd5b505050505b5050505050565b806001600082815260200190815260200160002060060160009054906101000a900473ffffffffffffffffffffffffffffffffffffffff1673ffffffffffffffffffffffffffffffffffffffff163373ffffffffffffffffffffffffffffffffffffffff1614611738576040517f08c379a000000000000000000000000000000000000000000000000000000000815260040161172f90614c57565b60405180910390fd5b816003806004811115611774577f4e487b7100000000000000000000000000000000000000000000000000000000600052602160045260246000fd5b6001600084815260200190815260200160002060060160159054906101000a900460ff1660048111156117d0577f4e487b7100000000000000000000000000000000000000000000000000000000600052602160045260246000fd5b14611810576040517f08c379a000000000000000000000000000000000000000000000000000000000815260040161180790614bd7565b60405180910390fd5b8360008054906101000a900473ffffffffffffffffffffffffffffffffffffffff1673ffffffffffffffffffffffffffffffffffffffff16631e0f2a46826040518263ffffffff1660e01b815260040161186a9190614cd9565b60206040518083038186803b15801561188257600080fd5b505afa158015611896573d6000803e3d6000fd5b505050506040513d601f19601f820116820180604052508101906118ba9190613fca565b6118f9576040517f08c379a00000000000000000000000000000000000000000000000000000000081526004016118f090614b37565b60405180910390fd5b60006001600087815260200190815260200160002060060160159054906101000a900460ff16905060046001600088815260200190815260200160002060060160156101000a81548160ff02191690836004811115611981577f4e487b7100000000000000000000000000000000000000000000000000000000600052602160045260246000fd5b02179055507ffac99f2b52ce8852278c4c5b1a970878838c6a0d32976deffb9630cc46970353868260046040516119ba93929190614cf4565b60405180910390a1505050505050565b50565b6060600060405180602001604052806000815250905060005b600254811015611a9a573373ffffffffffffffffffffffffffffffffffffffff166001600083815260200190815260200160002060050160009054906101000a900473ffffffffffffffffffffffffffffffffffffffff1673ffffffffffffffffffffffffffffffffffffffff161415611a875781611a6482613c21565b604051602001611a75929190614a55565b60405160208183030381529060405291505b8080611a929061514c565b9150506119e6565b508091505090565b826001600082815260200190815260200160002060050160009054906101000a900473ffffffffffffffffffffffffffffffffffffffff1673ffffffffffffffffffffffffffffffffffffffff163373ffffffffffffffffffffffffffffffffffffffff1614611b47576040517f08c379a0000000000000000000000000000000000000000000000000000000008152600401611b3e90614b97565b60405180910390fd5b8360036001600083815260200190815260200160002060060160159054906101000a900460ff166004811115611ba6577f4e487b7100000000000000000000000000000000000000000000000000000000600052602160045260246000fd5b60ff1610611be9576040517f08c379a0000000000000000000000000000000000000000000000000000000008152600401611be090614bf7565b60405180910390fd5b836000815111611c2e576040517f08c379a0000000000000000000000000000000000000000000000000000000008152600401611c2590614c17565b60405180910390fd5b836000815111611c73576040517f08c379a0000000000000000000000000000000000000000000000000000000008152600401611c6a90614c17565b60405180910390fd5b60008054906101000a900473ffffffffffffffffffffffffffffffffffffffff1673ffffffffffffffffffffffffffffffffffffffff1663b5015d118888886040518463ffffffff1660e01b8152600401611cd093929190614d2b565b600060405180830381600087803b158015611cea57600080fd5b505af1158015611cfe573d6000803e3d6000fd5b5050505050505050505050565b60008060009054906101000a900473ffffffffffffffffffffffffffffffffffffffff1673ffffffffffffffffffffffffffffffffffffffff1663e8049da183611d5485613c01565b6040518363ffffffff1660e01b8152600401611d71929190614da0565b60206040518083038186803b158015611d8957600080fd5b505afa158015611d9d573d6000803e3d6000fd5b505050506040513d601f19601f82011682018060405250810190611dc19190613ff3565b9050919050565b806001600082815260200190815260200160002060050160009054906101000a900473ffffffffffffffffffffffffffffffffffffffff1673ffffffffffffffffffffffffffffffffffffffff163373ffffffffffffffffffffffffffffffffffffffff1614611e6d576040517f08c379a0000000000000000000000000000000000000000000000000000000008152600401611e6490614b97565b60405180910390fd5b81600115156001600083815260200190815260200160002060060160149054906101000a900460ff16151514611ed8576040517f08c379a0000000000000000000000000000000000000000000000000000000008152600401611ecf90614c37565b60405180910390fd5b826000806004811115611f14577f4e487b7100000000000000000000000000000000000000000000000000000000600052602160045260246000fd5b6001600084815260200190815260200160002060060160159054906101000a900460ff166004811115611f70577f4e487b7100000000000000000000000000000000000000000000000000000000600052602160045260246000fd5b14611fb0576040517f08c379a0000000000000000000000000000000000000000000000000000000008152600401611fa790614bd7565b60405180910390fd5b60006001600087815260200190815260200160002060060160146101000a81548160ff0219169083151502179055507f6694ca203a0738585d2b2d17b211195dfb43e09eb19ac1f2c3a59c168e1358728560405161200e9190614cd9565b60405180910390a15050505050565b60008060009054906101000a900473ffffffffffffffffffffffffffffffffffffffff1673ffffffffffffffffffffffffffffffffffffffff16631e0f2a46836040518263ffffffff1660e01b81526004016120799190614cd9565b60206040518083038186803b15801561209157600080fd5b505afa1580156120a5573d6000803e3d6000fd5b505050506040513d601f19601f820116820180604052508101906120c99190613fca565b9050919050565b6000836000815111612117576040517f08c379a000000000000000000000000000000000000000000000000000000000815260040161210e90614c17565b60405180910390fd5b83600081511161215c576040517f08c379a000000000000000000000000000000000000000000000000000000000815260040161215390614c17565b60405180910390fd5b6000841161219f576040517f08c379a000000000000000000000000000000000000000000000000000000000815260040161219690614b57565b60405180910390fd5b60006040518061012001604052808881526020018781526020018681526020016000815260200160025481526020013373ffffffffffffffffffffffffffffffffffffffff168152602001600073ffffffffffffffffffffffffffffffffffffffff1681526020016001151581526020016000600481111561224a577f4e487b7100000000000000000000000000000000000000000000000000000000600052602160045260246000fd5b8152509050806001600060025481526020019081526020016000206000820151816000019080519060200190612281929190613dce565b50602082015181600101908051906020019061229e929190613dce565b5060408201518160020155606082015181600301556080820151816004015560a08201518160050160006101000a81548173ffffffffffffffffffffffffffffffffffffffff021916908373ffffffffffffffffffffffffffffffffffffffff16021790555060c08201518160060160006101000a81548173ffffffffffffffffffffffffffffffffffffffff021916908373ffffffffffffffffffffffffffffffffffffffff16021790555060e08201518160060160146101000a81548160ff0219169083151502179055506101008201518160060160156101000a81548160ff021916908360048111156123bd577f4e487b7100000000000000000000000000000000000000000000000000000000600052602160045260246000fd5b02179055509050507fa27e3ccace02231d4134bc179cc357fc6904e1bdc5b73b32bce2065e165efc90600254826040516123f8929190614d70565b60405180910390a1600260008154809291906124139061514c565b919050555060025493505050509392505050565b60006001600083815260200190815260200160002060050160009054906101000a900473ffffffffffffffffffffffffffffffffffffffff169050919050565b60025481565b806001600082815260200190815260200160002060060160009054906101000a900473ffffffffffffffffffffffffffffffffffffffff1673ffffffffffffffffffffffffffffffffffffffff163373ffffffffffffffffffffffffffffffffffffffff1614612512576040517f08c379a000000000000000000000000000000000000000000000000000000000815260040161250990614c57565b60405180910390fd5b81600180600481111561254e577f4e487b7100000000000000000000000000000000000000000000000000000000600052602160045260246000fd5b6001600084815260200190815260200160002060060160159054906101000a900460ff1660048111156125aa577f4e487b7100000000000000000000000000000000000000000000000000000000600052602160045260246000fd5b146125ea576040517f08c379a00000000000000000000000000000000000000000000000000000000081526004016125e190614bd7565b60405180910390fd5b83600115156001600083815260200190815260200160002060060160149054906101000a900460ff16151514612655576040517f08c379a000000000000000000000000000000000000000000000000000000000815260040161264c90614c37565b60405180910390fd5b60008054906101000a900473ffffffffffffffffffffffffffffffffffffffff1673ffffffffffffffffffffffffffffffffffffffff1663cc590e6f866040518263ffffffff1660e01b81526004016126ae9190614cd9565b600060405180830381600087803b1580156126c857600080fd5b505af11580156126dc573d6000803e3d6000fd5b5050505060006001600087815260200190815260200160002060060160006101000a81548173ffffffffffffffffffffffffffffffffffffffff021916908373ffffffffffffffffffffffffffffffffffffffff16021790555060006001600087815260200190815260200160002060060160159054906101000a900460ff16905060006001600088815260200190815260200160002060060160156101000a81548160ff021916908360048111156127be577f4e487b7100000000000000000000000000000000000000000000000000000000600052602160045260246000fd5b02179055507ffac99f2b52ce8852278c4c5b1a970878838c6a0d32976deffb9630cc46970353868260006040516127f793929190614cf4565b60405180910390a1505050505050565b806001600082815260200190815260200160002060050160009054906101000a900473ffffffffffffffffffffffffffffffffffffffff1673ffffffffffffffffffffffffffffffffffffffff163373ffffffffffffffffffffffffffffffffffffffff16146128ac576040517f08c379a00000000000000000000000000000000000000000000000000000000081526004016128a390614b97565b60405180910390fd5b81600115156001600083815260200190815260200160002060060160149054906101000a900460ff16151514612917576040517f08c379a000000000000000000000000000000000000000000000000000000000815260040161290e90614c37565b60405180910390fd5b826001806004811115612953577f4e487b7100000000000000000000000000000000000000000000000000000000600052602160045260246000fd5b6001600084815260200190815260200160002060060160159054906101000a900460ff1660048111156129af577f4e487b7100000000000000000000000000000000000000000000000000000000600052602160045260246000fd5b146129ef576040517f08c379a00000000000000000000000000000000000000000000000000000000081526004016129e690614bd7565b60405180910390fd5b60006001600087815260200190815260200160002060060160159054906101000a900460ff16905060006001600088815260200190815260200160002060060160156101000a81548160ff02191690836004811115612a77577f4e487b7100000000000000000000000000000000000000000000000000000000600052602160045260246000fd5b02179055507ffac99f2b52ce8852278c4c5b1a970878838c6a0d32976deffb9630cc4697035386826000604051612ab093929190614cf4565b60405180910390a1505050505050565b806001600082815260200190815260200160002060050160009054906101000a900473ffffffffffffffffffffffffffffffffffffffff1673ffffffffffffffffffffffffffffffffffffffff163373ffffffffffffffffffffffffffffffffffffffff1614612b65576040517f08c379a0000000000000000000000000000000000000000000000000000000008152600401612b5c90614b97565b60405180910390fd5b816003806004811115612ba1577f4e487b7100000000000000000000000000000000000000000000000000000000600052602160045260246000fd5b6001600084815260200190815260200160002060060160159054906101000a900460ff166004811115612bfd577f4e487b7100000000000000000000000000000000000000000000000000000000600052602160045260246000fd5b14612c3d576040517f08c379a0000000000000000000000000000000000000000000000000000000008152600401612c3490614bd7565b60405180910390fd5b8360016000868152602001908152602001600020600301546000811115612d585760008054906101000a900473ffffffffffffffffffffffffffffffffffffffff1673ffffffffffffffffffffffffffffffffffffffff16632611954f83600184612ca89190614fe1565b60056040518463ffffffff1660e01b8152600401612cc893929190614e00565b60206040518083038186803b158015612ce057600080fd5b505afa158015612cf4573d6000803e3d6000fd5b505050506040513d601f19601f82011682018060405250810190612d189190613fca565b612d57576040517f08c379a0000000000000000000000000000000000000000000000000000000008152600401612d4e90614c77565b60405180910390fd5b5b856001600088815260200190815260200160002060030154600360008054906101000a900473ffffffffffffffffffffffffffffffffffffffff1673ffffffffffffffffffffffffffffffffffffffff16632611954f8484846004811115612de9577f4e487b7100000000000000000000000000000000000000000000000000000000600052602160045260246000fd5b6040518463ffffffff1660e01b8152600401612e0793929190614e8a565b60206040518083038186803b158015612e1f57600080fd5b505afa158015612e33573d6000803e3d6000fd5b505050506040513d601f19601f82011682018060405250810190612e579190613fca565b612e96576040517f08c379a0000000000000000000000000000000000000000000000000000000008152600401612e8d90614b17565b60405180910390fd5b60008054906101000a900473ffffffffffffffffffffffffffffffffffffffff1673ffffffffffffffffffffffffffffffffffffffff166346d6e88e8a600160008d8152602001908152602001600020600301546040518363ffffffff1660e01b8152600401612f07929190614da0565b600060405180830381600087803b158015612f2157600080fd5b505af1158015612f35573d6000803e3d6000fd5b50505050505050505050505050565b816001600082815260200190815260200160002060050160009054906101000a900473ffffffffffffffffffffffffffffffffffffffff1673ffffffffffffffffffffffffffffffffffffffff163373ffffffffffffffffffffffffffffffffffffffff1614612fe9576040517f08c379a0000000000000000000000000000000000000000000000000000000008152600401612fe090614b97565b60405180910390fd5b8260036001600083815260200190815260200160002060060160159054906101000a900460ff166004811115613048577f4e487b7100000000000000000000000000000000000000000000000000000000600052602160045260246000fd5b60ff161061308b576040517f08c379a000000000000000000000000000000000000000000000000000000000815260040161308290614bf7565b60405180910390fd5b8383600160008054906101000a900473ffffffffffffffffffffffffffffffffffffffff1673ffffffffffffffffffffffffffffffffffffffff16632611954f8484846004811115613106577f4e487b7100000000000000000000000000000000000000000000000000000000600052602160045260246000fd5b6040518463ffffffff1660e01b815260040161312493929190614e8a565b60206040518083038186803b15801561313c57600080fd5b505afa158015613150573d6000803e3d6000fd5b505050506040513d601f19601f820116820180604052508101906131749190613fca565b6131b3576040517f08c379a00000000000000000000000000000000000000000000000000000000081526004016131aa90614b17565b60405180910390fd5b60008054906101000a900473ffffffffffffffffffffffffffffffffffffffff1673ffffffffffffffffffffffffffffffffffffffff1663a1a56bae88886040518363ffffffff1660e01b815260040161320e929190614da0565b600060405180830381600087803b15801561322857600080fd5b505af115801561323c573d6000803e3d6000fd5b5050505050505050505050565b60006001600083815260200190815260200160002060060160149054906101000a900460ff169050919050565b600060016000838152602001908152602001600020600201549050919050565b806001600082815260200190815260200160002060050160009054906101000a900473ffffffffffffffffffffffffffffffffffffffff1673ffffffffffffffffffffffffffffffffffffffff163373ffffffffffffffffffffffffffffffffffffffff161461333b576040517f08c379a000000000000000000000000000000000000000000000000000000000815260040161333290614b97565b60405180910390fd5b81600115156001600083815260200190815260200160002060060160149054906101000a900460ff161515146133a6576040517f08c379a000000000000000000000000000000000000000000000000000000000815260040161339d90614c37565b60405180910390fd5b8260028060048111156133e2577f4e487b7100000000000000000000000000000000000000000000000000000000600052602160045260246000fd5b6001600084815260200190815260200160002060060160159054906101000a900460ff16600481111561343e577f4e487b7100000000000000000000000000000000000000000000000000000000600052602160045260246000fd5b1461347e576040517f08c379a000000000000000000000000000000000000000000000000000000000815260040161347590614bd7565b60405180910390fd5b8460008054906101000a900473ffffffffffffffffffffffffffffffffffffffff1673ffffffffffffffffffffffffffffffffffffffff1663863ccc08826040518263ffffffff1660e01b81526004016134d89190614cd9565b60206040518083038186803b1580156134f057600080fd5b505afa158015613504573d6000803e3d6000fd5b505050506040513d601f19601f820116820180604052508101906135289190613fca565b613567576040517f08c379a000000000000000000000000000000000000000000000000000000000815260040161355e90614af7565b60405180910390fd5b60008054906101000a900473ffffffffffffffffffffffffffffffffffffffff1673ffffffffffffffffffffffffffffffffffffffff1663261ea724826040518263ffffffff1660e01b81526004016135c09190614cd9565b60206040518083038186803b1580156135d857600080fd5b505afa1580156135ec573d6000803e3d6000fd5b505050506040513d601f19601f820116820180604052508101906136109190613fca565b61364f576040517f08c379a000000000000000000000000000000000000000000000000000000000815260040161364690614bb7565b60405180910390fd5b60006001600088815260200190815260200160002060060160159054906101000a900460ff16905060036001600089815260200190815260200160002060060160156101000a81548160ff021916908360048111156136d7577f4e487b7100000000000000000000000000000000000000000000000000000000600052602160045260246000fd5b02179055507ffac99f2b52ce8852278c4c5b1a970878838c6a0d32976deffb9630cc469703538782600360405161371093929190614cf4565b60405180910390a160008054906101000a900473ffffffffffffffffffffffffffffffffffffffff1673ffffffffffffffffffffffffffffffffffffffff1663ab7db00388600160008b8152602001908152602001600020600301546040518363ffffffff1660e01b8152600401613789929190614da0565b600060405180830381600087803b1580156137a357600080fd5b505af11580156137b7573d6000803e3d6000fd5b5050505050505050505050565b6137cc613e54565b60016000838152602001908152602001600020604051806101200160405290816000820180546137fb9061511a565b80601f01602080910402602001604051908101604052809291908181526020018280546138279061511a565b80156138745780601f1061384957610100808354040283529160200191613874565b820191906000526020600020905b81548152906001019060200180831161385757829003601f168201915b5050505050815260200160018201805461388d9061511a565b80601f01602080910402602001604051908101604052809291908181526020018280546138b99061511a565b80156139065780601f106138db57610100808354040283529160200191613906565b820191906000526020600020905b8154815290600101906020018083116138e957829003601f168201915b505050505081526020016002820154815260200160038201548152602001600482015481526020016005820160009054906101000a900473ffffffffffffffffffffffffffffffffffffffff1673ffffffffffffffffffffffffffffffffffffffff1673ffffffffffffffffffffffffffffffffffffffff1681526020016006820160009054906101000a900473ffffffffffffffffffffffffffffffffffffffff1673ffffffffffffffffffffffffffffffffffffffff1673ffffffffffffffffffffffffffffffffffffffff1681526020016006820160149054906101000a900460ff161515151581526020016006820160159054906101000a900460ff166004811115613a3f577f4e487b7100000000000000000000000000000000000000000000000000000000600052602160045260246000fd5b6004811115613a77577f4e487b7100000000000000000000000000000000000000000000000000000000600052602160045260246000fd5b815250509050919050565b6000600480811115613abd577f4e487b7100000000000000000000000000000000000000000000000000000000600052602160045260246000fd5b6001600084815260200190815260200160002060060160159054906101000a900460ff166004811115613b19577f4e487b7100000000000000000000000000000000000000000000000000000000600052602160045260246000fd5b149050919050565b60006001600083815260200190815260200160002060060160009054906101000a900473ffffffffffffffffffffffffffffffffffffffff169050919050565b600060026004811115613b9d577f4e487b7100000000000000000000000000000000000000000000000000000000600052602160045260246000fd5b6001600084815260200190815260200160002060060160159054906101000a900460ff166004811115613bf9577f4e487b7100000000000000000000000000000000000000000000000000000000600052602160045260246000fd5b149050919050565b600060016000838152602001908152602001600020600301549050919050565b60606000821415613c69576040518060400160405280600181526020017f30000000000000000000000000000000000000000000000000000000000000008152509050613dc9565b600082905060005b60008214613c9b578080613c849061514c565b915050600a82613c949190614fb0565b9150613c71565b60008167ffffffffffffffff811115613cdd577f4e487b7100000000000000000000000000000000000000000000000000000000600052604160045260246000fd5b6040519080825280601f01601f191660200182016040528015613d0f5781602001600182028036833780820191505090505b5090505b60008514613dc257600182613d289190614fe1565b9150600a85613d379190615195565b6030613d439190614f5a565b60f81b818381518110613d7f577f4e487b7100000000000000000000000000000000000000000000000000000000600052603260045260246000fd5b60200101907effffffffffffffffffffffffffffffffffffffffffffffffffffffffffffff1916908160001a905350600a85613dbb9190614fb0565b9450613d13565b8093505050505b919050565b828054613dda9061511a565b90600052602060002090601f016020900481019282613dfc5760008555613e43565b82601f10613e1557805160ff1916838001178555613e43565b82800160010185558215613e43579182015b82811115613e42578251825591602001919060010190613e27565b5b509050613e509190613f06565b5090565b6040518061012001604052806060815260200160608152602001600081526020016000815260200160008152602001600073ffffffffffffffffffffffffffffffffffffffff168152602001600073ffffffffffffffffffffffffffffffffffffffff16815260200160001515815260200160006004811115613f00577f4e487b7100000000000000000000000000000000000000000000000000000000600052602160045260246000fd5b81525090565b5b80821115613f1f576000816000905550600101613f07565b5090565b6000613f36613f3184614ef2565b614ec1565b905082815260208101848484011115613f4e57600080fd5b613f598482856150d8565b509392505050565b600081519050613f70816152ea565b92915050565b600081519050613f8581615301565b92915050565b600082601f830112613f9c57600080fd5b8135613fac848260208601613f23565b91505092915050565b600081359050613fc481615311565b92915050565b600060208284031215613fdc57600080fd5b6000613fea84828501613f61565b91505092915050565b60006020828403121561400557600080fd5b600061401384828501613f76565b91505092915050565b60008060006060848603121561403157600080fd5b600084013567ffffffffffffffff81111561404b57600080fd5b61405786828701613f8b565b935050602084013567ffffffffffffffff81111561407457600080fd5b61408086828701613f8b565b925050604061409186828701613fb5565b9150509250925092565b6000602082840312156140ad57600080fd5b60006140bb84828501613fb5565b91505092915050565b6000806000606084860312156140d957600080fd5b60006140e786828701613fb5565b935050602084013567ffffffffffffffff81111561410457600080fd5b61411086828701613f8b565b925050604084013567ffffffffffffffff81111561412d57600080fd5b61413986828701613f8b565b9150509250925092565b6000806040838503121561415657600080fd5b600061416485828601613fb5565b925050602061417585828601613fb5565b9150509250929050565b6000806000806080858703121561419557600080fd5b60006141a387828801613fb5565b94505060206141b487828801613fb5565b935050604085013567ffffffffffffffff8111156141d157600080fd5b6141dd87828801613f8b565b925050606085013567ffffffffffffffff8111156141fa57600080fd5b61420687828801613f8b565b91505092959194509250565b61421b81615015565b82525050565b61422a81615015565b82525050565b61423981615027565b82525050565b61424881615027565b82525050565b61425781615090565b82525050565b61426681615090565b82525050565b614275816150a2565b82525050565b614284816150b4565b82525050565b614293816150c6565b82525050565b60006142a482614f22565b6142ae8185614f2d565b93506142be8185602086016150e7565b6142c7816152b1565b840191505092915050565b60006142dd82614f22565b6142e78185614f3e565b93506142f78185602086016150e7565b614300816152b1565b840191505092915050565b600061431682614f22565b6143208185614f4f565b93506143308185602086016150e7565b80840191505092915050565b6000614349602d83614f3e565b91507f456e737572652074686174206174206c65617374206f6e65206d696c6573746f60008301527f6e652069732063726561746564000000000000000000000000000000000000006020830152604082019050919050565b60006143af602083614f3e565b91507f4d696c6573746f6e652073746174757320646f6573206e6f74206d617463682e6000830152602082019050919050565b60006143ef602683614f3e565b91507f416c6c206d696c6573746f6e6573206d7573742062652076657269666965642060008301527f66697273742100000000000000000000000000000000000000000000000000006020830152604082019050919050565b6000614455602183614f3e565b91507f412053657276696365205072696365206d75737420626520737065636966696560008301527f64000000000000000000000000000000000000000000000000000000000000006020830152604082019050919050565b60006144bb603083614f3e565b91507f54686973207365727669636520686173206265656e207265717565737465642060008301527f627920616e6f7468657220757365722e000000000000000000000000000000006020830152604082019050919050565b6000614521600183614f4f565b91507f20000000000000000000000000000000000000000000000000000000000000006000830152600182019050919050565b6000614561604083614f3e565b91507f556e617574686f72697365642061636365737320746f20736572766963652c2060008301527f6f6e6c7920736572766963652070726f76696465722063616e206163636573736020830152604082019050919050565b60006145c7602683614f3e565b91507f416c6c206d696c6573746f6e6573206d75737420626520617070726f7665642060008301527f66697273742100000000000000000000000000000000000000000000000000006020830152604082019050919050565b600061462d603e83614f3e565b91507f54686520737461747573206f662074686973207365727669636520646f65732060008301527f6e6f74206d617463682074686520696e74656e646564207374617475732e00006020830152604082019050919050565b6000614693605683614f3e565b91507f5468697320736572766963652068617320616c7265616479207374617274656460008301527f2e204e6f206368616e6765732073686f756c64206265206d61646520746f206d60208301527f696c6573746f6e6573206f722073657276696365732e000000000000000000006040830152606082019050919050565b600061471f601583614f3e565b91507f4120737472696e672069732072657175697265642100000000000000000000006000830152602082019050919050565b600061475f603883614f3e565b91507f54686973207365727669636520686173206265656e2064656c6574656420616e60008301527f6420646f6573206e6f7420657869737420616e796d6f726500000000000000006020830152604082019050919050565b60006147c5604183614f3e565b91507f556e617574686f72697365642061636365737320746f20736572766963652c2060008301527f6f6e6c792073657276696365207265717565737465722063616e20616363657360208301527f73000000000000000000000000000000000000000000000000000000000000006040830152606082019050919050565b6000614851603983614f3e565b91507f4d696c6573746f6e6520686173206e6f74206265656e2076657269666965642060008301527f6279205365727669636520526571756573746572207965742e000000000000006020830152604082019050919050565b60006148b7606883614f3e565b91507f4d696c6573746f6e6520686173206e6f74206265656e20636f6d706c6574656460008301527f20627920536572766963652050726f7669646572207965742e20506c6561736560208301527f20646f206e6f742076657269667920616e20756e636f6d706c65746564206d6960408301527f6c6573746f6e652e0000000000000000000000000000000000000000000000006060830152608082019050919050565b600061012083016000830151848203600086015261497a8282614299565b915050602083015184820360208601526149948282614299565b91505060408301516149a96040860182614a28565b5060608301516149bc6060860182614a28565b5060808301516149cf6080860182614a28565b5060a08301516149e260a0860182614212565b5060c08301516149f560c0860182614212565b5060e0830151614a0860e0860182614230565b50610100830151614a1d61010086018261424e565b508091505092915050565b614a3181615079565b82525050565b614a4081615079565b82525050565b614a4f81615083565b82525050565b6000614a61828561430b565b9150614a6c82614514565b9150614a78828461430b565b91508190509392505050565b6000602082019050614a996000830184614221565b92915050565b6000602082019050614ab4600083018461423f565b92915050565b6000602082019050614acf600083018461426c565b92915050565b60006020820190508181036000830152614aef81846142d2565b905092915050565b60006020820190508181036000830152614b108161433c565b9050919050565b60006020820190508181036000830152614b30816143a2565b9050919050565b60006020820190508181036000830152614b50816143e2565b9050919050565b60006020820190508181036000830152614b7081614448565b9050919050565b60006020820190508181036000830152614b90816144ae565b9050919050565b60006020820190508181036000830152614bb081614554565b9050919050565b60006020820190508181036000830152614bd0816145ba565b9050919050565b60006020820190508181036000830152614bf081614620565b9050919050565b60006020820190508181036000830152614c1081614686565b9050919050565b60006020820190508181036000830152614c3081614712565b9050919050565b60006020820190508181036000830152614c5081614752565b9050919050565b60006020820190508181036000830152614c70816147b8565b9050919050565b60006020820190508181036000830152614c9081614844565b9050919050565b60006020820190508181036000830152614cb0816148aa565b9050919050565b60006020820190508181036000830152614cd1818461495c565b905092915050565b6000602082019050614cee6000830184614a37565b92915050565b6000606082019050614d096000830186614a37565b614d16602083018561425d565b614d23604083018461425d565b949350505050565b6000606082019050614d406000830186614a37565b8181036020830152614d5281856142d2565b90508181036040830152614d6681846142d2565b9050949350505050565b6000604082019050614d856000830185614a37565b8181036020830152614d97818461495c565b90509392505050565b6000604082019050614db56000830185614a37565b614dc26020830184614a37565b9392505050565b6000606082019050614dde6000830186614a37565b614deb6020830185614a37565b614df8604083018461427b565b949350505050565b6000606082019050614e156000830186614a37565b614e226020830185614a37565b614e2f604083018461428a565b949350505050565b6000608082019050614e4c6000830187614a37565b614e596020830186614a37565b8181036040830152614e6b81856142d2565b90508181036060830152614e7f81846142d2565b905095945050505050565b6000606082019050614e9f6000830186614a37565b614eac6020830185614a37565b614eb96040830184614a46565b949350505050565b6000604051905081810181811067ffffffffffffffff82111715614ee857614ee7615282565b5b8060405250919050565b600067ffffffffffffffff821115614f0d57614f0c615282565b5b601f19601f8301169050602081019050919050565b600081519050919050565b600082825260208201905092915050565b600082825260208201905092915050565b600081905092915050565b6000614f6582615079565b9150614f7083615079565b9250827fffffffffffffffffffffffffffffffffffffffffffffffffffffffffffffffff03821115614fa557614fa46151c6565b5b828201905092915050565b6000614fbb82615079565b9150614fc683615079565b925082614fd657614fd56151f5565b5b828204905092915050565b6000614fec82615079565b9150614ff783615079565b92508282101561500a576150096151c6565b5b828203905092915050565b600061502082615059565b9050919050565b60008115159050919050565b6000819050615041826152c2565b919050565b6000819050615054826152d6565b919050565b600073ffffffffffffffffffffffffffffffffffffffff82169050919050565b6000819050919050565b600060ff82169050919050565b600061509b82615033565b9050919050565b60006150ad82615046565b9050919050565b60006150bf82615083565b9050919050565b60006150d182615083565b9050919050565b82818337600083830152505050565b60005b838110156151055780820151818401526020810190506150ea565b83811115615114576000848401525b50505050565b6000600282049050600182168061513257607f821691505b6020821081141561514657615145615253565b5b50919050565b600061515782615079565b91507fffffffffffffffffffffffffffffffffffffffffffffffffffffffffffffffff82141561518a576151896151c6565b5b600182019050919050565b60006151a082615079565b91506151ab83615079565b9250826151bb576151ba6151f5565b5b828206905092915050565b7f4e487b7100000000000000000000000000000000000000000000000000000000600052601160045260246000fd5b7f4e487b7100000000000000000000000000000000000000000000000000000000600052601260045260246000fd5b7f4e487b7100000000000000000000000000000000000000000000000000000000600052602160045260246000fd5b7f4e487b7100000000000000000000000000000000000000000000000000000000600052602260045260246000fd5b7f4e487b7100000000000000000000000000000000000000000000000000000000600052604160045260246000fd5b6000601f19601f8301169050919050565b600581106152d3576152d2615224565b5b50565b600681106152e7576152e6615224565b5b50565b6152f381615027565b81146152fe57600080fd5b50565b6006811061530e57600080fd5b50565b61531a81615079565b811461532557600080fd5b5056fea26469706673582212202bbb90c19097152c2c9c73dc53c76ef1e3f93f54b1ae5830f115087d2053d0d364736f6c63430008000033",
  "immutableReferences": {},
  "source": "// SPDX-License-Identifier: MIT\npragma solidity >=0.4.22 <0.9.0;\nimport \"./Milestone.sol\";\n\nimport \"@openzeppelin/contracts/utils/Strings.sol\";\n\ncontract Service {\n    \n    Milestones milestoneContract;    \n\n    constructor(Milestones milestoneAddress) {\n        milestoneContract = milestoneAddress;\n    }\n\n    /**\n    State diagram for Status\n    None -> pending -> approved -> started -> completed\n     ^         |\n     |_________|\n    */\n\n    enum Status { none, pending, approved, started, completed }\n    enum Review { none, satisfied, disatisfied }\n\n    // struct milestone {\n    //     string milestoneTitle;\n    //     string milestoneDescription;\n    //     bool exist; // allowing updates such as soft delete of milestone   \n    //     Status status; // Defaults at none\n    //     Review review; // Defaults at none\n    // }\n    \n    struct service {\n        string title;\n        string description;\n        uint256 price;\n        // uint256 totalMilestones; // Defaults to 1 milestone\n        uint256 currentMilestone; // Defaults to 0 milestone\n        // uint256 milestoneCounter; // Counter to keep track of milestones that exist\n        uint256 serviceNumber; // index number of the service\n        address serviceProvider; // msg.sender\n        address serviceRequester; // defaults to address(0)\n        //bool listed;  // Defaults at false\n        bool exist; // allowing update such as soft delete of service\n        Status status; // Defaults at none\n        // Review review; // Overall review of services, defaults at none\n    }\n\n    event serviceCreated(uint256 serviceNumber, service newService);\n    event serviceDeleted(uint256 serviceNumber);\n    //event serviceListed(uint256 serviceNumber);\n    //event serviceDelisted(uint256 serviceNumber);\n    event serviceStatusChanged(uint256 serviceNumber, Status statusBefore, Status statusAfter);\n\n    event serviceRequested(Status status, uint256 serviceNumber);\n    event serviceCancelRequest(Status status);\n    event serviceApproved(Status status);\n    event serviceRejected(Status status);\n    event serviceStarted(Status status);\n    event serviceCompleted(Status status);\n    event serviceReview(Review review);\n    // event milestoneStatusChanged(uint256 serviceNumber, uint256 milestoneNumber, Status statusBefore, Status statusAfter);\n    // event milestoneCreated(milestone newMilestone);\n    // event milestoneAdded(uint256 serviceNumber, uint256 milestoneNumber, milestone newMilestone);\n    // event milestoneDeleted(uint256 serviceNumber, uint256 milestoneNumber);\n    // event milestoneCompleted(uint256 serviceNumber, uint256 milestoneNumber);\n    // event milestoneReview(Review review);\n\n    // mapping (uint256 => mapping(uint256 => milestone)) milestones; // indexed mapping of services to multiple milestones\n    mapping (uint256 => service) services; // indexed mapping of all services   \n\n    uint256 public numService = 0;\n\n\n/*\n    Modifiers\n*/\n\n    modifier requiredString(string memory str){\n        require(bytes(str).length > 0, \"A string is required!\");\n        _;\n    }\n\n    modifier onlyServiceProvider(uint256 serviceNumber){ // Only allow ServiceProviders to access these functions\n        require(msg.sender == services[serviceNumber].serviceProvider, \"Unauthorised access to service, only service provider can access\");\n        _;\n    }\n\n    modifier onlyServiceRequester(uint256 serviceNumber){ // Only allow Service Requesters to access these functions\n        require(msg.sender == services[serviceNumber].serviceRequester, \"Unauthorised access to service, only service requester can access\");\n        _;\n    }\n\n    modifier onlyNonServiceProvider(uint256 serviceNumber){ // Only allow None Service Providers to access these functions\n        require(msg.sender != services[serviceNumber].serviceProvider, \"Unauthorised access to service, only service requester can access\");\n        _;\n    }\n\n    modifier hasServiceStatus(uint256 serviceNumber, Status state) {\n        require(services[serviceNumber].status == state, \"The status of this service does not match the intended status.\");\n        _;\n    }\n\n    modifier hasServiceStatuses(uint256 serviceNumber, Status state1, Status state2) { // for multiple states\n        require(services[serviceNumber].status == state1 ||services[serviceNumber].status == state2, \"This service is currently active and underway. No changes should be made to milestones or services.\");\n        _;\n    }\n\n    modifier hasServiceStatusBeforeStarted(uint256 serviceNumber) { \n        require(uint8(services[serviceNumber].status) < 3 , \"This service has already started. No changes should be made to milestones or services.\");\n        _;\n    }\n\n    modifier activeService(uint256 serviceNumber) {\n        require(services[serviceNumber].exist == true, \"This service has been deleted and does not exist anymore\");\n        _;\n    }\n\n    modifier hasMilestoneStatus(uint256 serviceNumber, uint256 milestoneNumber, Status state){\n        require(milestoneContract.checkMilestoneStatus(serviceNumber, milestoneNumber, uint8(state)), \"Milestone status does not match.\");\n        _;\n    }\n\n    modifier hasMilestoneStatusCompleted(uint256 serviceNumber, uint256 milestoneNumber){\n        require(milestoneContract.checkMilestoneStatus(serviceNumber, milestoneNumber, 4), \"Milestone has not been completed by Service Provider yet. Please do not verify an uncompleted milestone.\");\n        _;\n    }\n\n    modifier hasMileStoneStatusVerified(uint256 serviceNumber, uint256 milestoneNumber) {\n        if (milestoneNumber > 0) {\n            require(milestoneContract.checkMilestoneStatus(serviceNumber, milestoneNumber -1, 5), \"Milestone has not been verified by Service Requester yet.\");\n        }\n        _;\n    }\n\n    modifier allMilestonesApproved(uint256 serviceNumber){\n        require(milestoneContract.checkMinMilestoneCreated(serviceNumber), \"Ensure that at least one milestone is created\");\n        require(milestoneContract.checkAllMilestoneApproved(serviceNumber), \"All milestones must be approved first!\");\n        _;\n    }\n\n    modifier allMilestonesComplete(uint256 serviceNumber){\n        require(milestoneContract.checkAllMilestoneCompleted(serviceNumber), \"All milestones must be completed first!\");\n        _;\n    }\n\n    modifier allMilestonesVerified(uint256 serviceNumber){\n        require(milestoneContract.checkAllMilestoneVerified(serviceNumber), \"All milestones must be verified first!\");\n        _;\n    }\n    \n/*\n    Service Provider Service Functions\n*/\n    // Creation of service , defaults at 1 milestone. To add more milestones, use AddMilestones function\n    function createService(string memory title, string memory description, uint256 price) public requiredString(title) requiredString(description) returns (uint256) {        \n        require(price > 0, \"A Service Price must be specified\");\n        \n        service memory newService = service(title,description,price,0,numService,msg.sender,address(0),true,Status.none);\n        services[numService] = newService;\n\n        emit serviceCreated(numService, newService);\n        numService++;\n        \n        return numService;\n    }\n\n    // Deletion of service (soft deletion)\n    function deleteService(uint256 serviceNumber) public \n            onlyServiceProvider(serviceNumber)             /// Only Service Providers can approve service request \n            activeService(serviceNumber)                   /// Only existing services can be deleted\n            hasServiceStatus(serviceNumber, Status.none)   /// Only Services that are  None can be deleted\n        {\n        services[serviceNumber].exist = false;\n        emit serviceDeleted(serviceNumber);\n    }\n\n\n\n/*\n    Service Provider Milestone Functions\n*/\n    // Adding milestone\n    function addMilestone (uint256 serviceNumber, string memory milestoneTitle, string memory milestoneDescription ) public \n            onlyServiceProvider(serviceNumber)                             /// Only Service Providers can add milestone\n            hasServiceStatusBeforeStarted(serviceNumber)                   /// Only Services that are not started yet can have milestones added\n            requiredString(milestoneTitle)                                 /// Milestone Title can  not be empty.\n            requiredString(milestoneDescription)                           /// Milestone Description cannot be empty.\n        {\n        milestoneContract.createMilestone(serviceNumber, milestoneTitle, milestoneDescription);\n    }\n\n    // Updating milestone\n    function updateMilestone (uint256 serviceNumber, uint256 milestoneNumber, string memory milestoneTitle, string memory milestoneDescription ) public \n            onlyServiceProvider(serviceNumber)                             /// Only Service Providers can add milestone\n            hasServiceStatusBeforeStarted(serviceNumber)                   /// Only Services that are not started yet can have milestones added\n            hasMilestoneStatus(serviceNumber, milestoneNumber, Status.pending)  /// Only milestones that are pending can be deleted\n            requiredString(milestoneTitle)                                 /// Milestone Title can  not be empty.\n            requiredString(milestoneDescription)                           /// Milestone Description cannot be empty.\n        {\n        milestoneContract.updateMilestone(serviceNumber, milestoneNumber, milestoneTitle, milestoneDescription);\n    }\n\n    // Deleting milestone \n    function deleteMilestone (uint256 serviceNumber, uint256 milestoneNumber) public \n            onlyServiceProvider(serviceNumber)                                  /// Only Service Providers can delete milestone\n            hasServiceStatusBeforeStarted(serviceNumber)                        /// Only Services that are not started yet can have milestones added\n            hasMilestoneStatus(serviceNumber, milestoneNumber, Status.pending)  /// Only milestones that are pending can be deleted\n        {        \n        milestoneContract.deleteMilestone(serviceNumber, milestoneNumber);\n    }\n\n\n\n    // Service provider listing created service\n    /*function listService (uint256 serviceNumber) public onlyServiceProvider(serviceNumber){\n        // require(msg.sender == services[serviceNumber].serviceProvider, \"Unauthorised service provider\");\n        services[serviceNumber].listed = true;\n        emit serviceListed(serviceNumber);\n    }\n\n    // Service provider delisting created service\n    function delistService (uint256 serviceNumber) public onlyServiceProvider(serviceNumber){\n        // require(msg.sender == services[serviceNumber].serviceProvider, \"Unauthorised service provider\");\n        services[serviceNumber].listed = false; \n        emit serviceDelisted(serviceNumber);\n    }*/\n\n\n/*\n    Service Provider Acceptance Functions\n*/    \n    // Approving pending service request done by Service Provider \n    function approveServiceRequest(uint256 serviceNumber) public \n            onlyServiceProvider(serviceNumber)              /// Only Service Providers can approve service request\n            activeService(serviceNumber)                    /// Only existing services can be approved\n            hasServiceStatus(serviceNumber, Status.pending) /// Only Services that are Pending can be approved\n        {\n        Status before = services[serviceNumber].status;\n        services[serviceNumber].status = Status.approved;   // Changing state to accepted\n        emit serviceStatusChanged(serviceNumber, before, Status.approved);\n    }\n\n    // Rejecting pending service request done by Service Provider\n    function rejectServiceRequest(uint256 serviceNumber) public \n            onlyServiceProvider(serviceNumber)              /// Only Service Providers can Reject Service Request\n            activeService(serviceNumber)                    /// Only existing services can be rejected\n            hasServiceStatus(serviceNumber, Status.pending) /// Only Services that are Pending can be Rejected\n        {\n        Status before = services[serviceNumber].status;\n        services[serviceNumber].status = Status.none; // reverting back to original status state\n        emit serviceStatusChanged(serviceNumber, before, Status.none);\n    }\n\n    // Starting the requested service done by Service Provider only if all milestones are approved and service is approved\n    function startRequestedService(uint256 serviceNumber) public \n            onlyServiceProvider(serviceNumber)               /// Only Service Provider can Start Service            \n            activeService(serviceNumber)                     /// Only existing services can be started\n            hasServiceStatus(serviceNumber, Status.approved) /// Only Services that are Approved can be Started\n            allMilestonesApproved(serviceNumber)             /// Service can only be approved once all milestones are approved and at least 1 milestone is created\n        {            \n        Status before = services[serviceNumber].status;\n        services[serviceNumber].status = Status.started;\n        emit serviceStatusChanged(serviceNumber, before, Status.started);\n\n        // Find the first milestone and change the status to started\n        milestoneContract.updateMilestoneStarted(serviceNumber, services[serviceNumber].currentMilestone);\n    }\n\n\n    // Completion of Milestone done by Service Provider\n    function completeCurrMilestone(uint256 serviceNumber) public \n            onlyServiceProvider(serviceNumber)                                 /// Only Service Providers can Complete Milestone\n            hasServiceStatus(serviceNumber, Status.started)                    /// Only Services that have Started can Complete Milestone\n            hasMileStoneStatusVerified(serviceNumber, services[serviceNumber].currentMilestone) /// Only if previous milestone is verified then can complete next milestone\n            hasMilestoneStatus(serviceNumber, services[serviceNumber].currentMilestone, Status.started) /// Only Milestones that have Started can be Completed\n        {  \n        milestoneContract.updateMilestoneCompleted(serviceNumber, services[serviceNumber].currentMilestone);\n        // wait for milestone to be verified before completing next milestone\n    }\n\n    // Only Services that have been started can be completed and only if all milestones are verified\n    function completeService(uint256 serviceNumber) public \n            onlyServiceRequester(serviceNumber)              /// Only Service Providers can Complete Service\n            hasServiceStatus(serviceNumber, Status.started) /// Only Services that have Started can Complete\n            allMilestonesVerified(serviceNumber)            /// Service can only be completed once all milestones are completed\n        {\n        Status before = services[serviceNumber].status;\n        services[serviceNumber].status = Status.completed;\n        emit serviceStatusChanged(serviceNumber, before, Status.completed);\n    }\n\n\n\n\n/*\n    Service Requester Pre Start Functions\n*/\n    // Service requester requesting service. Service must have a status of none\n    function requestService (uint256 serviceNumber) public \n            onlyNonServiceProvider(serviceNumber)                 /// Only Service Requesters can request for service\n            hasServiceStatus(serviceNumber, Status.none)        /// Only Services that are newly created can be requested. i.e not approved by any other provider.           \n            activeService(serviceNumber)                        /// Only existing services can be requested\n        {\n        require(services[serviceNumber].serviceRequester == address(0), \"This service has been requested by another user.\");\n        \n        // Change the serviceRequester to the sender\n        services[serviceNumber].serviceRequester = msg.sender;\n\n        //  Change the service status to pending\n        Status before = services[serviceNumber].status;\n        services[serviceNumber].status = Status.pending; // signify pending service request\n        emit serviceStatusChanged(serviceNumber, before, Status.pending);\n    }\n\n    // Service requester cancelling service request. \n    // Only pending statuses can be cancelled this way. If approved, started, completed, will have dispute.\n    // All if any milestones will revert back to pending\n    function cancelRequestService (uint256 serviceNumber) public \n            onlyServiceRequester(serviceNumber)                 /// Only Service Requesters can cancel Request Service\n            hasServiceStatus(serviceNumber, Status.pending)     /// Only Services that are Pending can be Cancelled                       \n            activeService(serviceNumber)                        /// Only existing services can be cancelled\n        {\n        milestoneContract.updateAllMilestonePending(serviceNumber);\n\n        services[serviceNumber].serviceRequester = address(0);\n        Status before = services[serviceNumber].status;\n        services[serviceNumber].status = Status.none; // reverting back to original status state\n        emit serviceStatusChanged(serviceNumber, before, Status.none);\n    }\n\n    function interruptService(uint256 serviceNumber) public {\n        // TODO: service provider/requester interrupting the service any time after it has been approved.\n        // This leads to a dispute.\n        // Should this be in blocktractor.sol?\n        // the function here should only have the logic where the service is concerned. change of service state? \n        // the dispute resolution shall be done in blocktractor.sol\n    }\n\n    // Service requester to approve milestones set by service provider. \n    function approveMilestone(uint256 serviceNumber, uint256 milestoneNumber) public \n            onlyServiceRequester(serviceNumber)                                /// Only Service Requesters can approve Milestones\n            hasServiceStatus(serviceNumber, Status.approved)\n            hasMilestoneStatus(serviceNumber, milestoneNumber, Status.pending) /// Only milestones that are pending can be approved\n        {\n        milestoneContract.updateMilestoneApproved(serviceNumber, milestoneNumber);\n    }\n\n\n\n\n/*\n    Service Requester Post Start Functions\n*/\n    // Verify milestone marked completed by Service Provider\n    function verifyMilestone(uint256 serviceNumber, uint256 milestoneNumber) public \n            onlyServiceRequester(serviceNumber)                             /// Only Service Requesters can verify milestone\n            hasMilestoneStatusCompleted(serviceNumber, milestoneNumber)     /// Only completed milestones can be verified\n        {\n\n        milestoneContract.updateMilestoneVerified(serviceNumber, milestoneNumber);\n        \n        if(getAllMilestonesVerified(serviceNumber)){\n            // complete service if all milestones are verified\n            completeService(serviceNumber);\n        } else {\n            // Start the next milestone\n            services[serviceNumber].currentMilestone++;\n            milestoneContract.updateMilestoneStarted(serviceNumber, services[serviceNumber].currentMilestone);\n        }\n\n    }\n\n\n/*\n    Getter Helper Functions\n*/\n    // Getter for services created by service provider\n    function viewMyServices() public view returns (string memory) {\n        string memory s = \"\";\n        for (uint i = 0; i < numService; i++) {\n            if (services[i].serviceProvider == msg.sender) {\n                s = string(abi.encodePacked(s, ' ', Strings.toString(i)));\n            }\n        }\n        return s;\n    }\n    \n    // Getter to check if all milestones have been completed.\n    function getAllMilestonesVerified(uint256 serviceNumber) public view returns (bool){\n        return milestoneContract.checkAllMilestoneVerified(serviceNumber);\n    }\n    \n    // Getter for total number of services listed\n    function getNumServices() public view returns (uint256) {\n        uint sum = 0;\n        for (uint i = 0 ; i < numService; i ++) {\n            services[i].exist == true ? sum += 1 : sum += 0;\n        }\n        return sum;\n    }\n\n    // Getter for service details\n    function getServiceDetails(uint256 serviceNumber) public view returns (service memory) {\n        return services[serviceNumber];\n    }\n\n    // Getter for service price\n    function getServicePrice(uint256 serviceNumber) public view returns (uint256) {\n        return services[serviceNumber].price;\n    }\n\n    // Getter for boolean if service is approved\n    function isServiceApproved(uint256 serviceNumber) public view returns (bool) {\n        return services[serviceNumber].status == Status.approved;\n    }\n\n    // Getter for boolean if service exists\n    function doesServiceExist(uint256 serviceNumber) public view returns (bool){\n        return services[serviceNumber].exist;\n    }\n\n    // Getter for Service provider\n    function getServiceProvider(uint256 serviceNumber) public view returns (address){\n        return services[serviceNumber].serviceProvider;\n    }\n\n    // Getter for Service requester\n    function getServiceRequester(uint256 serviceNumber) public view returns (address){\n        return services[serviceNumber].serviceRequester;\n    }\n\n    // Check if Service status is completed\n    function isServiceStatusCompleted(uint256 serviceNumber) public view returns (bool) {\n        return services[serviceNumber].status == Status.completed;\n    }\n\n    // Getter for current milestone\n    function getCurrentMilestone(uint256 serviceNumber) public view returns (uint256){\n        return services[serviceNumber].currentMilestone;\n    }\n\n    // Getter for current milestone status\n    function getCurrentMilestoneStatus(uint256 serviceNumber) public view returns (Milestones.Status){\n        return milestoneContract.getMilestoneStatus(serviceNumber, getCurrentMilestone(serviceNumber));\n    }\n}",
  "sourcePath": "/mnt/c/Users/Lenovo/OneDrive/Documents/github/IS4302/contracts/Service.sol",
  "compiler": {
    "name": "solc",
    "version": "0.8.0+commit.c7dfd78e.Emscripten.clang"
  },
  "schemaVersion": "3.4.4",
  "updatedAt": "2022-03-25T12:24:52.737Z",
  "devdoc": {
    "kind": "dev",
    "methods": {},
    "version": 1
  },
  "userdoc": {
    "kind": "user",
    "methods": {},
    "version": 1
  }
}