{
  "contractName": "Service",
  "abi": [
    {
      "anonymous": false,
      "inputs": [
        {
          "indexed": false,
          "internalType": "uint256",
          "name": "serviceNumber",
          "type": "uint256"
        },
        {
          "indexed": false,
          "internalType": "uint256",
          "name": "milestoneNumber",
          "type": "uint256"
        },
        {
          "indexed": false,
          "internalType": "string",
          "name": "milestoneTitle",
          "type": "string"
        },
        {
          "indexed": false,
          "internalType": "string",
          "name": "milestoneDescription",
          "type": "string"
        }
      ],
      "name": "milestoneAdded",
      "type": "event"
    },
    {
      "anonymous": false,
      "inputs": [
        {
          "indexed": false,
          "internalType": "uint256",
          "name": "serviceNumber",
          "type": "uint256"
        },
        {
          "indexed": false,
          "internalType": "uint256",
          "name": "milestoneNumber",
          "type": "uint256"
        }
      ],
      "name": "milestoneCompleted",
      "type": "event"
    },
    {
      "anonymous": false,
      "inputs": [
        {
          "indexed": false,
          "internalType": "uint256",
          "name": "serviceNumber",
          "type": "uint256"
        },
        {
          "indexed": false,
          "internalType": "uint256",
          "name": "milestoneNumber",
          "type": "uint256"
        }
      ],
      "name": "milestoneDeleted",
      "type": "event"
    },
    {
      "anonymous": false,
      "inputs": [
        {
          "indexed": false,
          "internalType": "enum Service.Review",
          "name": "review",
          "type": "uint8"
        }
      ],
      "name": "milestoneReview",
      "type": "event"
    },
    {
      "anonymous": false,
      "inputs": [
        {
          "indexed": false,
          "internalType": "enum Service.Status",
          "name": "status",
          "type": "uint8"
        }
      ],
      "name": "serviceApproved",
      "type": "event"
    },
    {
      "anonymous": false,
      "inputs": [
        {
          "indexed": false,
          "internalType": "enum Service.Status",
          "name": "status",
          "type": "uint8"
        }
      ],
      "name": "serviceCancelRequest",
      "type": "event"
    },
    {
      "anonymous": false,
      "inputs": [
        {
          "indexed": false,
          "internalType": "enum Service.Status",
          "name": "status",
          "type": "uint8"
        }
      ],
      "name": "serviceCompleted",
      "type": "event"
    },
    {
      "anonymous": false,
      "inputs": [
        {
          "indexed": false,
          "internalType": "uint256",
          "name": "serviceNumber",
          "type": "uint256"
        }
      ],
      "name": "serviceCreated",
      "type": "event"
    },
    {
      "anonymous": false,
      "inputs": [
        {
          "indexed": false,
          "internalType": "uint256",
          "name": "serviceNumber",
          "type": "uint256"
        }
      ],
      "name": "serviceDeleted",
      "type": "event"
    },
    {
      "anonymous": false,
      "inputs": [
        {
          "indexed": false,
          "internalType": "uint256",
          "name": "serviceNumber",
          "type": "uint256"
        }
      ],
      "name": "serviceDelisted",
      "type": "event"
    },
    {
      "anonymous": false,
      "inputs": [
        {
          "indexed": false,
          "internalType": "uint256",
          "name": "serviceNumber",
          "type": "uint256"
        }
      ],
      "name": "serviceListed",
      "type": "event"
    },
    {
      "anonymous": false,
      "inputs": [
        {
          "indexed": false,
          "internalType": "enum Service.Status",
          "name": "status",
          "type": "uint8"
        }
      ],
      "name": "serviceRejected",
      "type": "event"
    },
    {
      "anonymous": false,
      "inputs": [
        {
          "indexed": false,
          "internalType": "enum Service.Status",
          "name": "status",
          "type": "uint8"
        }
      ],
      "name": "serviceRequested",
      "type": "event"
    },
    {
      "anonymous": false,
      "inputs": [
        {
          "indexed": false,
          "internalType": "enum Service.Review",
          "name": "review",
          "type": "uint8"
        }
      ],
      "name": "serviceReview",
      "type": "event"
    },
    {
      "anonymous": false,
      "inputs": [
        {
          "indexed": false,
          "internalType": "enum Service.Status",
          "name": "status",
          "type": "uint8"
        }
      ],
      "name": "serviceStarted",
      "type": "event"
    },
    {
      "inputs": [],
      "name": "numService",
      "outputs": [
        {
          "internalType": "uint256",
          "name": "",
          "type": "uint256"
        }
      ],
      "stateMutability": "view",
      "type": "function"
    },
    {
      "inputs": [
        {
          "internalType": "string",
          "name": "title",
          "type": "string"
        },
        {
          "internalType": "string",
          "name": "description",
          "type": "string"
        },
        {
          "internalType": "uint256",
          "name": "price",
          "type": "uint256"
        }
      ],
      "name": "create",
      "outputs": [
        {
          "internalType": "uint256",
          "name": "",
          "type": "uint256"
        }
      ],
      "stateMutability": "nonpayable",
      "type": "function"
    },
    {
      "inputs": [
        {
          "internalType": "uint256",
          "name": "serviceNumber",
          "type": "uint256"
        }
      ],
      "name": "deleteService",
      "outputs": [],
      "stateMutability": "nonpayable",
      "type": "function"
    },
    {
      "inputs": [
        {
          "internalType": "uint256",
          "name": "serviceNumber",
          "type": "uint256"
        },
        {
          "internalType": "string",
          "name": "milestoneTitle",
          "type": "string"
        },
        {
          "internalType": "string",
          "name": "milestoneDescription",
          "type": "string"
        }
      ],
      "name": "addMilestone",
      "outputs": [],
      "stateMutability": "nonpayable",
      "type": "function"
    },
    {
      "inputs": [
        {
          "internalType": "uint256",
          "name": "serviceNumber",
          "type": "uint256"
        },
        {
          "internalType": "uint256",
          "name": "milestoneNumber",
          "type": "uint256"
        }
      ],
      "name": "deleteMilestone",
      "outputs": [],
      "stateMutability": "nonpayable",
      "type": "function"
    },
    {
      "inputs": [
        {
          "internalType": "uint256",
          "name": "serviceNumber",
          "type": "uint256"
        }
      ],
      "name": "listService",
      "outputs": [],
      "stateMutability": "nonpayable",
      "type": "function"
    },
    {
      "inputs": [
        {
          "internalType": "uint256",
          "name": "serviceNumber",
          "type": "uint256"
        }
      ],
      "name": "delistService",
      "outputs": [],
      "stateMutability": "nonpayable",
      "type": "function"
    },
    {
      "inputs": [
        {
          "internalType": "uint256",
          "name": "serviceNumber",
          "type": "uint256"
        }
      ],
      "name": "approveServiceRequest",
      "outputs": [],
      "stateMutability": "nonpayable",
      "type": "function"
    },
    {
      "inputs": [
        {
          "internalType": "uint256",
          "name": "serviceNumber",
          "type": "uint256"
        }
      ],
      "name": "rejectServiceRequest",
      "outputs": [],
      "stateMutability": "nonpayable",
      "type": "function"
    },
    {
      "inputs": [
        {
          "internalType": "uint256",
          "name": "serviceNumber",
          "type": "uint256"
        },
        {
          "internalType": "uint256",
          "name": "milestoneNumber",
          "type": "uint256"
        }
      ],
      "name": "completeMilestone",
      "outputs": [],
      "stateMutability": "nonpayable",
      "type": "function"
    },
    {
      "inputs": [
        {
          "internalType": "uint256",
          "name": "serviceNumber",
          "type": "uint256"
        }
      ],
      "name": "completeService",
      "outputs": [],
      "stateMutability": "nonpayable",
      "type": "function"
    },
    {
      "inputs": [
        {
          "internalType": "uint256",
          "name": "serviceNumber",
          "type": "uint256"
        }
      ],
      "name": "requestService",
      "outputs": [],
      "stateMutability": "nonpayable",
      "type": "function"
    },
    {
      "inputs": [
        {
          "internalType": "uint256",
          "name": "serviceNumber",
          "type": "uint256"
        }
      ],
      "name": "cancelRequestService",
      "outputs": [],
      "stateMutability": "nonpayable",
      "type": "function"
    },
    {
      "inputs": [
        {
          "internalType": "uint256",
          "name": "serviceNumber",
          "type": "uint256"
        }
      ],
      "name": "startRequestedService",
      "outputs": [],
      "stateMutability": "nonpayable",
      "type": "function"
    },
    {
      "inputs": [
        {
          "internalType": "uint256",
          "name": "serviceNumber",
          "type": "uint256"
        },
        {
          "internalType": "uint256",
          "name": "milestoneNumber",
          "type": "uint256"
        },
        {
          "internalType": "bool",
          "name": "satisfied",
          "type": "bool"
        }
      ],
      "name": "reviewMilestone",
      "outputs": [],
      "stateMutability": "nonpayable",
      "type": "function"
    },
    {
      "inputs": [
        {
          "internalType": "uint256",
          "name": "serviceNumber",
          "type": "uint256"
        },
        {
          "internalType": "bool",
          "name": "satisfied",
          "type": "bool"
        }
      ],
      "name": "reviewService",
      "outputs": [],
      "stateMutability": "nonpayable",
      "type": "function"
    },
    {
      "inputs": [],
      "name": "viewMyServices",
      "outputs": [
        {
          "internalType": "string",
          "name": "",
          "type": "string"
        }
      ],
      "stateMutability": "view",
      "type": "function"
    },
    {
      "inputs": [
        {
          "internalType": "uint256",
          "name": "serviceNumber",
          "type": "uint256"
        }
      ],
      "name": "getMilestones",
      "outputs": [
        {
          "internalType": "string",
          "name": "",
          "type": "string"
        }
      ],
      "stateMutability": "view",
      "type": "function"
    },
    {
      "inputs": [
        {
          "internalType": "uint256",
          "name": "serviceNumber",
          "type": "uint256"
        }
      ],
      "name": "getTotalMilestones",
      "outputs": [
        {
          "internalType": "uint256",
          "name": "",
          "type": "uint256"
        }
      ],
      "stateMutability": "view",
      "type": "function"
    },
    {
      "inputs": [],
      "name": "getNumServices",
      "outputs": [
        {
          "internalType": "uint256",
          "name": "",
          "type": "uint256"
        }
      ],
      "stateMutability": "view",
      "type": "function"
    },
    {
      "inputs": [
        {
          "internalType": "uint256",
          "name": "serviceNumber",
          "type": "uint256"
        }
      ],
      "name": "getServiceDetails",
      "outputs": [
        {
          "components": [
            {
              "internalType": "string",
              "name": "title",
              "type": "string"
            },
            {
              "internalType": "string",
              "name": "description",
              "type": "string"
            },
            {
              "internalType": "uint256",
              "name": "price",
              "type": "uint256"
            },
            {
              "internalType": "uint256",
              "name": "totalMilestones",
              "type": "uint256"
            },
            {
              "internalType": "uint256",
              "name": "currentMilestone",
              "type": "uint256"
            },
            {
              "internalType": "uint256",
              "name": "milestoneCounter",
              "type": "uint256"
            },
            {
              "internalType": "uint256",
              "name": "serviceNumber",
              "type": "uint256"
            },
            {
              "internalType": "address",
              "name": "serviceProvider",
              "type": "address"
            },
            {
              "internalType": "address",
              "name": "serviceRequester",
              "type": "address"
            },
            {
              "internalType": "bool",
              "name": "listed",
              "type": "bool"
            },
            {
              "internalType": "bool",
              "name": "exist",
              "type": "bool"
            },
            {
              "internalType": "enum Service.Status",
              "name": "status",
              "type": "uint8"
            },
            {
              "internalType": "enum Service.Review",
              "name": "review",
              "type": "uint8"
            }
          ],
          "internalType": "struct Service.service",
          "name": "",
          "type": "tuple"
        }
      ],
      "stateMutability": "view",
      "type": "function"
    },
    {
      "inputs": [
        {
          "internalType": "uint256",
          "name": "serviceNumber",
          "type": "uint256"
        }
      ],
      "name": "getServicePrice",
      "outputs": [
        {
          "internalType": "uint256",
          "name": "",
          "type": "uint256"
        }
      ],
      "stateMutability": "view",
      "type": "function"
    },
    {
      "inputs": [
        {
          "internalType": "uint256",
          "name": "serviceNumber",
          "type": "uint256"
        }
      ],
      "name": "isServiceApproved",
      "outputs": [
        {
          "internalType": "bool",
          "name": "",
          "type": "bool"
        }
      ],
      "stateMutability": "view",
      "type": "function"
    }
  ],
  "bytecode": "0x6080604052600060025534801561001557600080fd5b50613643806100256000396000f3fe608060405234801561001057600080fd5b506004361061014d5760003560e01c80636c273d34116100c3578063c03f9b441161007c578063c03f9b441461035c578063c0d922371461038c578063c2698c84146103a8578063e2e5384d146103d8578063e4fb7bd514610408578063f326206b146104385761014d565b80636c273d34146102b257806374e29ee6146102ce578063854c4707146102ea5780638ce0ed08146103085780638d658d5414610324578063a1a56bae146103405761014d565b80632961b3ba116101155780632961b3ba146101de5780632f3ccebd146101fc5780633ca6d1001461021857806342c549c0146102485780634e0469861461027857806362873f8a146102945761014d565b8063019fcdea1461015257806302297d8b1461016e5780630554dae21461018a57806308c6c875146101a65780632138f0a3146101c2575b600080fd5b61016c600480360381019061016791906128af565b610454565b005b610188600480360381019061018391906128d8565b6105ed565b005b6101a4600480360381019061019f91906128af565b610768565b005b6101c060048036038101906101bb91906128af565b610876565b005b6101dc60048036038101906101d791906128af565b610985565b005b6101e6610acb565b6040516101f39190613150565b60405180910390f35b610216600480360381019061021191906128af565b610b50565b005b610232600480360381019061022d9190612830565b610ccb565b60405161023f9190613150565b60405180910390f35b610262600480360381019061025d91906128af565b611111565b60405161026f919061300c565b60405180910390f35b610292600480360381019061028d91906129cf565b6111d2565b005b61029c6113e1565b6040516102a9919061300c565b60405180910390f35b6102cc60048036038101906102c79190612914565b6114b6565b005b6102e860048036038101906102e391906128af565b6117dc565b005b6102f26118eb565b6040516102ff9190613150565b60405180910390f35b610322600480360381019061031d91906128af565b6118f1565b005b61033e600480360381019061033991906128af565b611a8b565b005b61035a60048036038101906103559190612993565b611bd1565b005b610376600480360381019061037191906128af565b611d20565b6040516103839190613150565b60405180910390f35b6103a660048036038101906103a191906128af565b611d40565b005b6103c260048036038101906103bd91906128af565b611e84565b6040516103cf919061312e565b60405180910390f35b6103f260048036038101906103ed91906128af565b6121f8565b6040516103ff9190613150565b60405180910390f35b610422600480360381019061041d91906128af565b612218565b60405161042f9190612fbb565b60405180910390f35b610452600480360381019061044d9190612993565b6122b8565b005b600073ffffffffffffffffffffffffffffffffffffffff166001600083815260200190815260200160002060080160009054906101000a900473ffffffffffffffffffffffffffffffffffffffff1673ffffffffffffffffffffffffffffffffffffffff16146104f9576040517f08c379a00000000000000000000000000000000000000000000000000000000081526004016104f09061306e565b60405180910390fd5b336001600083815260200190815260200160002060080160006101000a81548173ffffffffffffffffffffffffffffffffffffffff021916908373ffffffffffffffffffffffffffffffffffffffff160217905550600180600083815260200190815260200160002060080160166101000a81548160ff021916908360048111156105ad577f4e487b7100000000000000000000000000000000000000000000000000000000600052602160045260246000fd5b02179055507fa26efaf36b92bafb8d85feb8a18fa8c8f4fd90222d2551fc7898bf59f9fe428160016040516105e29190612ff1565b60405180910390a150565b3373ffffffffffffffffffffffffffffffffffffffff166001600084815260200190815260200160002060080160009054906101000a900473ffffffffffffffffffffffffffffffffffffffff1673ffffffffffffffffffffffffffffffffffffffff1614610691576040517f08c379a0000000000000000000000000000000000000000000000000000000008152600401610688906130ee565b60405180910390fd5b806106ff5760026001600084815260200190815260200160002060080160176101000a81548160ff021916908360028111156106f6577f4e487b7100000000000000000000000000000000000000000000000000000000600052602160045260246000fd5b02179055610763565b600180600084815260200190815260200160002060080160176101000a81548160ff0219169083600281111561075e577f4e487b7100000000000000000000000000000000000000000000000000000000600052602160045260246000fd5b021790555b505050565b806001600082815260200190815260200160002060070160009054906101000a900473ffffffffffffffffffffffffffffffffffffffff1673ffffffffffffffffffffffffffffffffffffffff163373ffffffffffffffffffffffffffffffffffffffff161461080d576040517f08c379a0000000000000000000000000000000000000000000000000000000008152600401610804906130ae565b60405180910390fd5b600180600084815260200190815260200160002060080160146101000a81548160ff0219169083151502179055507f8aa5acfb9de7384cc70cf85e35784fbb0d540d8168e39448a0ea9ec7b5e38e7e8260405161086a9190613150565b60405180910390a15050565b806001600082815260200190815260200160002060070160009054906101000a900473ffffffffffffffffffffffffffffffffffffffff1673ffffffffffffffffffffffffffffffffffffffff163373ffffffffffffffffffffffffffffffffffffffff161461091b576040517f08c379a0000000000000000000000000000000000000000000000000000000008152600401610912906130ae565b60405180910390fd5b60006001600084815260200190815260200160002060080160146101000a81548160ff0219169083151502179055507f84392f121798d8821a50a433c1596c4009368833cfde4af38b3e6e54c7782856826040516109799190613150565b60405180910390a15050565b806001600082815260200190815260200160002060070160009054906101000a900473ffffffffffffffffffffffffffffffffffffffff1673ffffffffffffffffffffffffffffffffffffffff163373ffffffffffffffffffffffffffffffffffffffff1614610a2a576040517f08c379a0000000000000000000000000000000000000000000000000000000008152600401610a21906130ae565b60405180910390fd5b60026001600084815260200190815260200160002060080160166101000a81548160ff02191690836004811115610a8a577f4e487b7100000000000000000000000000000000000000000000000000000000600052602160045260246000fd5b02179055507fad0f557686a3cabe97a4e152af50e1bebdec1b90344a0b79e8abd66ca6e85eae6002604051610abf9190612ff1565b60405180910390a15050565b6000806000905060005b600254811015610b4857600115156001600083815260200190815260200160002060080160159054906101000a900460ff16151514610b2357600082610b1b9190613280565b915081610b34565b600182610b309190613280565b9150815b508080610b4090613441565b915050610ad5565b508091505090565b806001600082815260200190815260200160002060070160009054906101000a900473ffffffffffffffffffffffffffffffffffffffff1673ffffffffffffffffffffffffffffffffffffffff163373ffffffffffffffffffffffffffffffffffffffff1614610bf5576040517f08c379a0000000000000000000000000000000000000000000000000000000008152600401610bec906130ae565b60405180910390fd5b600160008381526020019081526020016000206003015460016000848152602001908152602001600020600401541415610cc75760046001600084815260200190815260200160002060080160166101000a81548160ff02191690836004811115610c89577f4e487b7100000000000000000000000000000000000000000000000000000000600052602160045260246000fd5b02179055507fb5352b1c3e7a23c27c04ae6923311b8061f99ee4a95e1229d33c7d55b907f7456004604051610cbe9190612ff1565b60405180910390a15b5050565b600080845111610d10576040517f08c379a0000000000000000000000000000000000000000000000000000000008152600401610d079061310e565b60405180910390fd5b6000835111610d54576040517f08c379a0000000000000000000000000000000000000000000000000000000008152600401610d4b9061302e565b60405180910390fd5b60008211610d97576040517f08c379a0000000000000000000000000000000000000000000000000000000008152600401610d8e9061304e565b60405180910390fd5b6000604051806101a0016040528086815260200185815260200184815260200160008152602001600081526020016000815260200160025481526020013373ffffffffffffffffffffffffffffffffffffffff168152602001600073ffffffffffffffffffffffffffffffffffffffff16815260200160001515815260200160011515815260200160006004811115610e59577f4e487b7100000000000000000000000000000000000000000000000000000000600052602160045260246000fd5b815260200160006002811115610e98577f4e487b7100000000000000000000000000000000000000000000000000000000600052602160045260246000fd5b8152509050806001600060025481526020019081526020016000206000820151816000019080519060200190610ecf9291906125f3565b506020820151816001019080519060200190610eec9291906125f3565b5060408201518160020155606082015181600301556080820151816004015560a0820151816005015560c0820151816006015560e08201518160070160006101000a81548173ffffffffffffffffffffffffffffffffffffffff021916908373ffffffffffffffffffffffffffffffffffffffff1602179055506101008201518160080160006101000a81548173ffffffffffffffffffffffffffffffffffffffff021916908373ffffffffffffffffffffffffffffffffffffffff1602179055506101208201518160080160146101000a81548160ff0219169083151502179055506101408201518160080160156101000a81548160ff0219169083151502179055506101608201518160080160166101000a81548160ff02191690836004811115611042577f4e487b7100000000000000000000000000000000000000000000000000000000600052602160045260246000fd5b02179055506101808201518160080160176101000a81548160ff02191690836002811115611099577f4e487b7100000000000000000000000000000000000000000000000000000000600052602160045260246000fd5b02179055509050506110ae60025486866114b6565b7f8662c275bf41730ad7b20c271d144f4c0d0cf030e70c1b88faa76a5daa876b516002546040516110df9190613150565b60405180910390a1600260008154809291906110fa90613441565b919050556002819055506002549150509392505050565b6060600060405180602001604052806000815250905060005b60016000858152602001908152602001600020600501548110156111c85760011515600080868152602001908152602001600020600083815260200190815260200160002060020160009054906101000a900460ff16151514156111b5578161119282612446565b6040516020016111a3929190612f8c565b60405160208183030381529060405291505b80806111c090613441565b91505061112a565b5080915050919050565b3373ffffffffffffffffffffffffffffffffffffffff166001600085815260200190815260200160002060080160009054906101000a900473ffffffffffffffffffffffffffffffffffffffff1673ffffffffffffffffffffffffffffffffffffffff1614611276576040517f08c379a000000000000000000000000000000000000000000000000000000000815260040161126d906130ee565b60405180910390fd5b801561132e576001600080858152602001908152602001600020600084815260200190815260200160002060020160026101000a81548160ff021916908360028111156112ec577f4e487b7100000000000000000000000000000000000000000000000000000000600052602160045260246000fd5b02179055507f2e228b70e6cc8fc93d3d02f1a59e459419260f3310bc34ce2362aa0c1c1ce7a360016040516113219190612fd6565b60405180910390a16113dc565b6002600080858152602001908152602001600020600084815260200190815260200160002060020160026101000a81548160ff0219169083600281111561139e577f4e487b7100000000000000000000000000000000000000000000000000000000600052602160045260246000fd5b02179055507f2e228b70e6cc8fc93d3d02f1a59e459419260f3310bc34ce2362aa0c1c1ce7a360026040516113d39190612fd6565b60405180910390a15b505050565b6060600060405180602001604052806000815250905060005b6002548110156114ae573373ffffffffffffffffffffffffffffffffffffffff166001600083815260200190815260200160002060070160009054906101000a900473ffffffffffffffffffffffffffffffffffffffff1673ffffffffffffffffffffffffffffffffffffffff16141561149b578161147882612446565b604051602001611489929190612f8c565b60405160208183030381529060405291505b80806114a690613441565b9150506113fa565b508091505090565b826001600082815260200190815260200160002060070160009054906101000a900473ffffffffffffffffffffffffffffffffffffffff1673ffffffffffffffffffffffffffffffffffffffff163373ffffffffffffffffffffffffffffffffffffffff161461155b576040517f08c379a0000000000000000000000000000000000000000000000000000000008152600401611552906130ae565b60405180910390fd5b600180600086815260200190815260200160002060030160008282546115819190613280565b92505081905550600180600086815260200190815260200160002060050160008282546115ae9190613280565b925050819055506000600160008681526020019081526020016000206003015490506040518060a001604052808581526020018481526020016001151581526020016000600481111561162a577f4e487b7100000000000000000000000000000000000000000000000000000000600052602160045260246000fd5b815260200160006002811115611669577f4e487b7100000000000000000000000000000000000000000000000000000000600052602160045260246000fd5b815250600080878152602001908152602001600020600083815260200190815260200160002060008201518160000190805190602001906116ab9291906125f3565b5060208201518160010190805190602001906116c89291906125f3565b5060408201518160020160006101000a81548160ff02191690831515021790555060608201518160020160016101000a81548160ff0219169083600481111561173a577f4e487b7100000000000000000000000000000000000000000000000000000000600052602160045260246000fd5b021790555060808201518160020160026101000a81548160ff02191690836002811115611790577f4e487b7100000000000000000000000000000000000000000000000000000000600052602160045260246000fd5b02179055509050507fafb9651915b93e2d736434d595813593866af361b0f395d93fceb19020b38fc1858286866040516117cd9493929190613194565b60405180910390a15050505050565b806001600082815260200190815260200160002060070160009054906101000a900473ffffffffffffffffffffffffffffffffffffffff1673ffffffffffffffffffffffffffffffffffffffff163373ffffffffffffffffffffffffffffffffffffffff1614611881576040517f08c379a0000000000000000000000000000000000000000000000000000000008152600401611878906130ae565b60405180910390fd5b60006001600084815260200190815260200160002060080160156101000a81548160ff0219169083151502179055507f6694ca203a0738585d2b2d17b211195dfb43e09eb19ac1f2c3a59c168e135872826040516118df9190613150565b60405180910390a15050565b60025481565b3373ffffffffffffffffffffffffffffffffffffffff166001600083815260200190815260200160002060080160009054906101000a900473ffffffffffffffffffffffffffffffffffffffff1673ffffffffffffffffffffffffffffffffffffffff1614611995576040517f08c379a000000000000000000000000000000000000000000000000000000000815260040161198c906130ce565b60405180910390fd5b60006001600083815260200190815260200160002060080160006101000a81548173ffffffffffffffffffffffffffffffffffffffff021916908373ffffffffffffffffffffffffffffffffffffffff16021790555060006001600083815260200190815260200160002060080160166101000a81548160ff02191690836004811115611a4b577f4e487b7100000000000000000000000000000000000000000000000000000000600052602160045260246000fd5b02179055507f3b9856122d73e21a1b9f00b1837005190b8b411632c72ccc730f2e2cccbf4d636000604051611a809190612ff1565b60405180910390a150565b806001600082815260200190815260200160002060070160009054906101000a900473ffffffffffffffffffffffffffffffffffffffff1673ffffffffffffffffffffffffffffffffffffffff163373ffffffffffffffffffffffffffffffffffffffff1614611b30576040517f08c379a0000000000000000000000000000000000000000000000000000000008152600401611b27906130ae565b60405180910390fd5b60006001600084815260200190815260200160002060080160166101000a81548160ff02191690836004811115611b90577f4e487b7100000000000000000000000000000000000000000000000000000000600052602160045260246000fd5b02179055507f793a2995b0e4491e97cf326ffe94a272e0e986452f3700ad898e1f806c91d7da6000604051611bc59190612ff1565b60405180910390a15050565b816001600082815260200190815260200160002060070160009054906101000a900473ffffffffffffffffffffffffffffffffffffffff1673ffffffffffffffffffffffffffffffffffffffff163373ffffffffffffffffffffffffffffffffffffffff1614611c76576040517f08c379a0000000000000000000000000000000000000000000000000000000008152600401611c6d906130ae565b60405180910390fd5b6000806000858152602001908152602001600020600084815260200190815260200160002060020160006101000a81548160ff02191690831515021790555060018060008581526020019081526020016000206003016000828254611cdb9190613307565b925050819055507f370a65b418bb520a42373d9bebd98e13bccff25176cc1b0eb603dd64e3620b4c8383604051611d1392919061316b565b60405180910390a1505050565b600060016000838152602001908152602001600020600201549050919050565b3373ffffffffffffffffffffffffffffffffffffffff166001600083815260200190815260200160002060080160009054906101000a900473ffffffffffffffffffffffffffffffffffffffff1673ffffffffffffffffffffffffffffffffffffffff1614611de4576040517f08c379a0000000000000000000000000000000000000000000000000000000008152600401611ddb9061308e565b60405180910390fd5b60036001600083815260200190815260200160002060080160166101000a81548160ff02191690836004811115611e44577f4e487b7100000000000000000000000000000000000000000000000000000000600052602160045260246000fd5b02179055507fe5aaf15edc88e98419bca4176a6a48eaf7ebf6a7c29ad6ade96269029bd5ed8d6003604051611e799190612ff1565b60405180910390a150565b611e8c612679565b60016000838152602001908152602001600020604051806101a0016040529081600082018054611ebb9061340f565b80601f0160208091040260200160405190810160405280929190818152602001828054611ee79061340f565b8015611f345780601f10611f0957610100808354040283529160200191611f34565b820191906000526020600020905b815481529060010190602001808311611f1757829003601f168201915b50505050508152602001600182018054611f4d9061340f565b80601f0160208091040260200160405190810160405280929190818152602001828054611f799061340f565b8015611fc65780601f10611f9b57610100808354040283529160200191611fc6565b820191906000526020600020905b815481529060010190602001808311611fa957829003601f168201915b5050505050815260200160028201548152602001600382015481526020016004820154815260200160058201548152602001600682015481526020016007820160009054906101000a900473ffffffffffffffffffffffffffffffffffffffff1673ffffffffffffffffffffffffffffffffffffffff1673ffffffffffffffffffffffffffffffffffffffff1681526020016008820160009054906101000a900473ffffffffffffffffffffffffffffffffffffffff1673ffffffffffffffffffffffffffffffffffffffff1673ffffffffffffffffffffffffffffffffffffffff1681526020016008820160149054906101000a900460ff161515151581526020016008820160159054906101000a900460ff161515151581526020016008820160169054906101000a900460ff16600481111561212e577f4e487b7100000000000000000000000000000000000000000000000000000000600052602160045260246000fd5b6004811115612166577f4e487b7100000000000000000000000000000000000000000000000000000000600052602160045260246000fd5b81526020016008820160179054906101000a900460ff1660028111156121b5577f4e487b7100000000000000000000000000000000000000000000000000000000600052602160045260246000fd5b60028111156121ed577f4e487b7100000000000000000000000000000000000000000000000000000000600052602160045260246000fd5b815250509050919050565b600060016000838152602001908152602001600020600301549050919050565b600060026004811115612254577f4e487b7100000000000000000000000000000000000000000000000000000000600052602160045260246000fd5b6001600084815260200190815260200160002060080160169054906101000a900460ff1660048111156122b0577f4e487b7100000000000000000000000000000000000000000000000000000000600052602160045260246000fd5b149050919050565b816001600082815260200190815260200160002060070160009054906101000a900473ffffffffffffffffffffffffffffffffffffffff1673ffffffffffffffffffffffffffffffffffffffff163373ffffffffffffffffffffffffffffffffffffffff161461235d576040517f08c379a0000000000000000000000000000000000000000000000000000000008152600401612354906130ae565b60405180910390fd5b6004600080858152602001908152602001600020600084815260200190815260200160002060020160016101000a81548160ff021916908360048111156123cd577f4e487b7100000000000000000000000000000000000000000000000000000000600052602160045260246000fd5b02179055507f077a4138c78dee06a65cb09ab97fa14e00336cd9338d939b5b1018b1cc374a58838360405161240392919061316b565b60405180910390a1600180600085815260200190815260200160002060040160008282546124319190613280565b9250508190555061244183610b50565b505050565b6060600082141561248e576040518060400160405280600181526020017f300000000000000000000000000000000000000000000000000000000000000081525090506125ee565b600082905060005b600082146124c05780806124a990613441565b915050600a826124b991906132d6565b9150612496565b60008167ffffffffffffffff811115612502577f4e487b7100000000000000000000000000000000000000000000000000000000600052604160045260246000fd5b6040519080825280601f01601f1916602001820160405280156125345781602001600182028036833780820191505090505b5090505b600085146125e75760018261254d9190613307565b9150600a8561255c919061348a565b60306125689190613280565b60f81b8183815181106125a4577f4e487b7100000000000000000000000000000000000000000000000000000000600052603260045260246000fd5b60200101907effffffffffffffffffffffffffffffffffffffffffffffffffffffffffffff1916908160001a905350600a856125e091906132d6565b9450612538565b8093505050505b919050565b8280546125ff9061340f565b90600052602060002090601f0160209004810192826126215760008555612668565b82601f1061263a57805160ff1916838001178555612668565b82800160010185558215612668579182015b8281111561266757825182559160200191906001019061264c565b5b5090506126759190612781565b5090565b604051806101a0016040528060608152602001606081526020016000815260200160008152602001600081526020016000815260200160008152602001600073ffffffffffffffffffffffffffffffffffffffff168152602001600073ffffffffffffffffffffffffffffffffffffffff1681526020016000151581526020016000151581526020016000600481111561273c577f4e487b7100000000000000000000000000000000000000000000000000000000600052602160045260246000fd5b81526020016000600281111561277b577f4e487b7100000000000000000000000000000000000000000000000000000000600052602160045260246000fd5b81525090565b5b8082111561279a576000816000905550600101612782565b5090565b60006127b16127ac84613218565b6131e7565b9050828152602081018484840111156127c957600080fd5b6127d48482856133cd565b509392505050565b6000813590506127eb816135df565b92915050565b600082601f83011261280257600080fd5b813561281284826020860161279e565b91505092915050565b60008135905061282a816135f6565b92915050565b60008060006060848603121561284557600080fd5b600084013567ffffffffffffffff81111561285f57600080fd5b61286b868287016127f1565b935050602084013567ffffffffffffffff81111561288857600080fd5b612894868287016127f1565b92505060406128a58682870161281b565b9150509250925092565b6000602082840312156128c157600080fd5b60006128cf8482850161281b565b91505092915050565b600080604083850312156128eb57600080fd5b60006128f98582860161281b565b925050602061290a858286016127dc565b9150509250929050565b60008060006060848603121561292957600080fd5b60006129378682870161281b565b935050602084013567ffffffffffffffff81111561295457600080fd5b612960868287016127f1565b925050604084013567ffffffffffffffff81111561297d57600080fd5b612989868287016127f1565b9150509250925092565b600080604083850312156129a657600080fd5b60006129b48582860161281b565b92505060206129c58582860161281b565b9150509250929050565b6000806000606084860312156129e457600080fd5b60006129f28682870161281b565b9350506020612a038682870161281b565b9250506040612a14868287016127dc565b9150509250925092565b612a278161333b565b82525050565b612a368161334d565b82525050565b612a458161334d565b82525050565b612a54816133a9565b82525050565b612a63816133a9565b82525050565b612a72816133bb565b82525050565b612a81816133bb565b82525050565b6000612a9282613248565b612a9c8185613253565b9350612aac8185602086016133dc565b612ab5816135a6565b840191505092915050565b6000612acb82613248565b612ad58185613264565b9350612ae58185602086016133dc565b612aee816135a6565b840191505092915050565b6000612b0482613248565b612b0e8185613275565b9350612b1e8185602086016133dc565b80840191505092915050565b6000612b37602183613264565b91507f412053657276696365204465736372697074696f6e206973207265717569726560008301527f64000000000000000000000000000000000000000000000000000000000000006020830152604082019050919050565b6000612b9d602183613264565b91507f412053657276696365205072696365206d75737420626520737065636966696560008301527f64000000000000000000000000000000000000000000000000000000000000006020830152604082019050919050565b6000612c03602883613264565b91507f54686973207365727669636520686173206265656e207265717565737465642060008301527f616c72656164792e0000000000000000000000000000000000000000000000006020830152604082019050919050565b6000612c69602883613264565b91507f556e617574686f7269736564207374617274696e67206f66207365727669636560008301527f20726571756573740000000000000000000000000000000000000000000000006020830152604082019050919050565b6000612ccf600183613275565b91507f20000000000000000000000000000000000000000000000000000000000000006000830152600182019050919050565b6000612d0f604083613264565b91507f556e617574686f72697365642061636365737320746f20736572766963652c2060008301527f6f6e6c7920736572766963652070726f76696465722063616e206163636573736020830152604082019050919050565b6000612d75602683613264565b91507f556e617574686f72697365642063616e63656c206f662073657276696365207260008301527f65717565737400000000000000000000000000000000000000000000000000006020830152604082019050919050565b6000612ddb601e83613264565b91507f556e617574686f726973656420726576696577206f66207365727669636500006000830152602082019050919050565b6000612e1b601b83613264565b91507f412053657276696365205469746c6520697320726571756972656400000000006000830152602082019050919050565b60006101a0830160008301518482036000860152612e6c8282612a87565b91505060208301518482036020860152612e868282612a87565b9150506040830151612e9b6040860182612f6e565b506060830151612eae6060860182612f6e565b506080830151612ec16080860182612f6e565b5060a0830151612ed460a0860182612f6e565b5060c0830151612ee760c0860182612f6e565b5060e0830151612efa60e0860182612a1e565b50610100830151612f0f610100860182612a1e565b50610120830151612f24610120860182612a2d565b50610140830151612f39610140860182612a2d565b50610160830151612f4e610160860182612a69565b50610180830151612f63610180860182612a4b565b508091505092915050565b612f778161339f565b82525050565b612f868161339f565b82525050565b6000612f988285612af9565b9150612fa382612cc2565b9150612faf8284612af9565b91508190509392505050565b6000602082019050612fd06000830184612a3c565b92915050565b6000602082019050612feb6000830184612a5a565b92915050565b60006020820190506130066000830184612a78565b92915050565b600060208201905081810360008301526130268184612ac0565b905092915050565b6000602082019050818103600083015261304781612b2a565b9050919050565b6000602082019050818103600083015261306781612b90565b9050919050565b6000602082019050818103600083015261308781612bf6565b9050919050565b600060208201905081810360008301526130a781612c5c565b9050919050565b600060208201905081810360008301526130c781612d02565b9050919050565b600060208201905081810360008301526130e781612d68565b9050919050565b6000602082019050818103600083015261310781612dce565b9050919050565b6000602082019050818103600083015261312781612e0e565b9050919050565b600060208201905081810360008301526131488184612e4e565b905092915050565b60006020820190506131656000830184612f7d565b92915050565b60006040820190506131806000830185612f7d565b61318d6020830184612f7d565b9392505050565b60006080820190506131a96000830187612f7d565b6131b66020830186612f7d565b81810360408301526131c88185612ac0565b905081810360608301526131dc8184612ac0565b905095945050505050565b6000604051905081810181811067ffffffffffffffff8211171561320e5761320d613577565b5b8060405250919050565b600067ffffffffffffffff82111561323357613232613577565b5b601f19601f8301169050602081019050919050565b600081519050919050565b600082825260208201905092915050565b600082825260208201905092915050565b600081905092915050565b600061328b8261339f565b91506132968361339f565b9250827fffffffffffffffffffffffffffffffffffffffffffffffffffffffffffffffff038211156132cb576132ca6134bb565b5b828201905092915050565b60006132e18261339f565b91506132ec8361339f565b9250826132fc576132fb6134ea565b5b828204905092915050565b60006133128261339f565b915061331d8361339f565b9250828210156133305761332f6134bb565b5b828203905092915050565b60006133468261337f565b9050919050565b60008115159050919050565b6000819050613367826135b7565b919050565b600081905061337a826135cb565b919050565b600073ffffffffffffffffffffffffffffffffffffffff82169050919050565b6000819050919050565b60006133b482613359565b9050919050565b60006133c68261336c565b9050919050565b82818337600083830152505050565b60005b838110156133fa5780820151818401526020810190506133df565b83811115613409576000848401525b50505050565b6000600282049050600182168061342757607f821691505b6020821081141561343b5761343a613548565b5b50919050565b600061344c8261339f565b91507fffffffffffffffffffffffffffffffffffffffffffffffffffffffffffffffff82141561347f5761347e6134bb565b5b600182019050919050565b60006134958261339f565b91506134a08361339f565b9250826134b0576134af6134ea565b5b828206905092915050565b7f4e487b7100000000000000000000000000000000000000000000000000000000600052601160045260246000fd5b7f4e487b7100000000000000000000000000000000000000000000000000000000600052601260045260246000fd5b7f4e487b7100000000000000000000000000000000000000000000000000000000600052602160045260246000fd5b7f4e487b7100000000000000000000000000000000000000000000000000000000600052602260045260246000fd5b7f4e487b7100000000000000000000000000000000000000000000000000000000600052604160045260246000fd5b6000601f19601f8301169050919050565b600381106135c8576135c7613519565b5b50565b600581106135dc576135db613519565b5b50565b6135e88161334d565b81146135f357600080fd5b50565b6135ff8161339f565b811461360a57600080fd5b5056fea264697066735822122006e0930e47879e7a6c9ccbd46234f015bb0192d046d0a6e6f62b63bf278a1ff864736f6c63430008000033",
  "immutableReferences": {},
  "source": "// SPDX-License-Identifier: MIT\r\npragma solidity >=0.4.22 <0.9.0;\r\n\r\nimport \"@openzeppelin/contracts/utils/Strings.sol\";\r\n\r\ncontract Service {\r\n\r\n    enum Status { none, pending, approved, started, completed }\r\n    enum Review { none, satisfied, disatisfied }\r\n\r\n    struct milestone {\r\n        string milestoneTitle;\r\n        string milestoneDescription;\r\n        bool exist; // allowing updates such as soft delete of milestone   \r\n        Status status; // Defaults at none\r\n        Review review; // Defaults at none\r\n    }\r\n    \r\n    struct service {\r\n        string title;\r\n        string description;\r\n        uint256 price;\r\n        uint256 totalMilestones; // Defaults to 1 milestone\r\n        uint256 currentMilestone; // Defaults to 0 milestone\r\n        uint256 milestoneCounter; // Counter to keep track of milestones that exist\r\n        uint256 serviceNumber; // index number of the service\r\n        address serviceProvider; // msg.sender\r\n        address serviceRequester; // defaults to address(0)\r\n        bool listed;  // Defaults at false\r\n        bool exist; // allowing update such as soft delete of service\r\n        Status status; // Defaults at none\r\n        Review review; // Overall review of services, defaults at none\r\n    }\r\n\r\n    event serviceCreated(uint256 serviceNumber);\r\n    event serviceDeleted(uint256 serviceNumber);\r\n    event serviceListed(uint256 serviceNumber);\r\n    event serviceDelisted(uint256 serviceNumber);\r\n    event serviceRequested(Status status);\r\n    event serviceCancelRequest(Status status);\r\n    event serviceApproved(Status status);\r\n    event serviceRejected(Status status);\r\n    event serviceStarted(Status status);\r\n    event serviceCompleted(Status status);\r\n    event serviceReview(Review review);\r\n    event milestoneAdded(uint256 serviceNumber, uint256 milestoneNumber, string milestoneTitle, string milestoneDescription);\r\n    event milestoneDeleted(uint256 serviceNumber, uint256 milestoneNumber);\r\n    event milestoneCompleted(uint256 serviceNumber, uint256 milestoneNumber);\r\n    event milestoneReview(Review review);\r\n\r\n    mapping (uint256 => mapping(uint256 => milestone)) milestones; // indexed mapping of services to multiple milestones\r\n    mapping (uint256 => service) services; // indexed mapping of all services \r\n    \r\n    uint256 public numService = 0;\r\n\r\n\r\n/*\r\n    Service Provider Functions\r\n*/\r\n    modifier onlyServiceProvider(uint256 serviceNumber){\r\n        // Only allow ServiceProviders to access these functions\r\n        require(msg.sender == services[serviceNumber].serviceProvider, \r\n                \"Unauthorised access to service, only service provider can access\");\r\n        _;\r\n    }\r\n\r\n    // Creation of service , defaults at 1 milestone. To add more milestones, use AddMilestones function\r\n    function create(string memory title, string memory description, uint256 price) public returns (uint256) {\r\n        require(bytes(title).length > 0, \"A Service Title is required\");\r\n        require(bytes(description).length > 0, \"A Service Description is required\");\r\n        require(price > 0, \"A Service Price must be specified\");\r\n        \r\n        service memory newService = service(title,description,price,0,0,0,numService,msg.sender,address(0),false,true,Status.none,Review.none);\r\n        services[numService] = newService;\r\n        addMilestone(numService, title, description); // Defaults first milestone to equivalent to original title and description\r\n        emit serviceCreated(numService);\r\n        numService = numService++;\r\n        \r\n        return numService;\r\n    }\r\n\r\n    // Deletion of service\r\n    function deleteService (uint256 serviceNumber) public onlyServiceProvider(serviceNumber) {\r\n        // require(msg.sender == services[serviceNumber].serviceProvider, \"Unauthorised service provider\");\r\n        services[serviceNumber].exist = false;\r\n        emit serviceDeleted(serviceNumber);\r\n    }\r\n\r\n    // Adding milestone , starts from 2nd milestone (index 2)\r\n    function addMilestone (uint256 serviceNumber, string memory milestoneTitle, string memory milestoneDescription ) public onlyServiceProvider(serviceNumber){\r\n        // require(msg.sender == services[serviceNumber].serviceProvider, \"Unauthorised service provider\");\r\n        services[serviceNumber].totalMilestones += 1; // Real tally of total milestones\r\n        services[serviceNumber].milestoneCounter += 1; // A counter that only increments\r\n        uint256 serviceMilestone = services[serviceNumber].totalMilestones;\r\n        milestones[serviceNumber][serviceMilestone] = milestone(milestoneTitle,milestoneDescription,true,Status.none,Review.none);\r\n        emit milestoneAdded(serviceNumber, serviceMilestone, milestoneTitle, milestoneDescription);\r\n    }\r\n\r\n    // Deleting milestone , soft delete with a boolean function\r\n    function deleteMilestone (uint256 serviceNumber, uint256 milestoneNumber) public onlyServiceProvider(serviceNumber){\r\n        // require(msg.sender == services[serviceNumber].serviceProvider, \"Unauthorised service provider\"); \r\n        milestones[serviceNumber][milestoneNumber].exist = false;\r\n        services[serviceNumber].totalMilestones -= 1; // Real tally of total milestones\r\n        emit milestoneDeleted(serviceNumber, milestoneNumber);\r\n    }\r\n\r\n    // Service provider listing created service\r\n    function listService (uint256 serviceNumber) public onlyServiceProvider(serviceNumber){\r\n        // require(msg.sender == services[serviceNumber].serviceProvider, \"Unauthorised service provider\");\r\n        services[serviceNumber].listed = true;\r\n        emit serviceListed(serviceNumber);\r\n    }\r\n\r\n    // Service provider delisting created service\r\n    function delistService (uint256 serviceNumber) public onlyServiceProvider(serviceNumber){\r\n        // require(msg.sender == services[serviceNumber].serviceProvider, \"Unauthorised service provider\");\r\n        services[serviceNumber].listed = false; \r\n        emit serviceDelisted(serviceNumber);\r\n    }\r\n\r\n    // Service provider approving pending service request\r\n    function approveServiceRequest(uint256 serviceNumber) public onlyServiceProvider(serviceNumber){\r\n        // require(services[serviceNumber].serviceProvider == msg.sender, \"Unauthorised approval of service request\");\r\n        services[serviceNumber].status = Status.approved; // Changing state to accepted\r\n        emit serviceApproved(Status.approved);\r\n    }\r\n\r\n    // Service provider rejecting pending service request\r\n    function rejectServiceRequest(uint256 serviceNumber) public onlyServiceProvider(serviceNumber){\r\n        // require(services[serviceNumber].serviceProvider == msg.sender, \"Unauthorised rejection of service request\");\r\n        services[serviceNumber].status = Status.none; // reverting back to original status state\r\n        emit serviceRejected(Status.none);\r\n    }\r\n\r\n    function completeMilestone(uint256 serviceNumber, uint256 milestoneNumber) public onlyServiceProvider(serviceNumber){\r\n        // require(services[serviceNumber].serviceProvider == msg.sender, \"Unauthorised starting of service request\");\r\n        milestones[serviceNumber][milestoneNumber].status = Status.completed;\r\n        emit milestoneCompleted(serviceNumber, milestoneNumber);\r\n        services[serviceNumber].currentMilestone += 1;\r\n        completeService(serviceNumber); // complete service if all milestones are finished\r\n    }\r\n\r\n    function completeService(uint256 serviceNumber) public onlyServiceProvider(serviceNumber){\r\n        // require(services[serviceNumber].serviceProvider == msg.sender, \"Unauthorised starting of service request\");\r\n        if (services[serviceNumber].currentMilestone == services[serviceNumber].totalMilestones) {\r\n            services[serviceNumber].status = Status.completed;\r\n            emit serviceCompleted(Status.completed);\r\n        }      \r\n    }\r\n\r\n/*\r\n    Service Requester Functions\r\n*/\r\n\r\n    // Service requester requesting service\r\n    function requestService (uint256 serviceNumber) public {\r\n        require(services[serviceNumber].serviceRequester == address(0), \"This service has been requested already.\");\r\n        services[serviceNumber].serviceRequester = msg.sender;\r\n        services[serviceNumber].status = Status.pending; // signify pending service request\r\n        emit serviceRequested(Status.pending);\r\n    }\r\n\r\n    // Service requester cancelling service request\r\n    function cancelRequestService (uint256 serviceNumber) public {\r\n        require(services[serviceNumber].serviceRequester == msg.sender, \"Unauthorised cancel of service request\");\r\n        services[serviceNumber].serviceRequester = address(0);\r\n        services[serviceNumber].status = Status.none; // reverting back to original status state\r\n        emit serviceCancelRequest(Status.none);\r\n    }\r\n\r\n    // Service requester can now start the requested service\r\n    function startRequestedService(uint256 serviceNumber) public {\r\n        require(services[serviceNumber].serviceRequester == msg.sender, \"Unauthorised starting of service request\");\r\n        services[serviceNumber].status = Status.started;\r\n        emit serviceStarted(Status.started);\r\n    }\r\n\r\n    // Review of service takes in a a boolean, true = satisfied, false = dissatisfied\r\n    function reviewMilestone(uint256 serviceNumber, uint256 milestoneNumber, bool satisfied) public {\r\n        require(services[serviceNumber].serviceRequester == msg.sender, \"Unauthorised review of service\");\r\n        if (satisfied) {\r\n            milestones[serviceNumber][milestoneNumber].review = Review.satisfied;\r\n            emit milestoneReview(Review.satisfied);\r\n        } else {\r\n            milestones[serviceNumber][milestoneNumber].review = Review.disatisfied;\r\n            emit milestoneReview(Review.disatisfied);\r\n        }\r\n    }\r\n\r\n    // Review of service takes in a boolean, true = satisfied , false = dissatisfied\r\n    function reviewService(uint256 serviceNumber, bool satisfied) public {\r\n        require(services[serviceNumber].serviceRequester == msg.sender, \"Unauthorised review of service\");\r\n        satisfied ? services[serviceNumber].review = Review.satisfied : services[serviceNumber].review = Review.disatisfied;\r\n    }\r\n\r\n/*\r\n    Getter Helper Functions\r\n*/\r\n\r\n    // Getter for services created by service provider\r\n    function viewMyServices() public view returns (string memory) {\r\n        string memory s = \"\";\r\n        for (uint i = 0; i < numService; i++) {\r\n            if (services[i].serviceProvider == msg.sender) {\r\n                s = string(abi.encodePacked(s, ' ', Strings.toString(i)));\r\n            }\r\n        }\r\n        return s;\r\n    }\r\n\r\n    // Getter for index milestones in the service\r\n    function getMilestones(uint256 serviceNumber) public view returns (string memory) {\r\n        string memory s = \"\";\r\n        for (uint i = 0; i < services[serviceNumber].milestoneCounter; i++) {\r\n            if (milestones[serviceNumber][i].exist == true) {\r\n                s = string(abi.encodePacked(s,' ', Strings.toString(i)));\r\n            }\r\n        }\r\n        return s;\r\n    }\r\n\r\n    // Getter for total milestones in the service\r\n    function getTotalMilestones(uint256 serviceNumber) public view returns (uint256) {\r\n        return services[serviceNumber].totalMilestones;\r\n    }\r\n    \r\n    // Getter for total number of services listed\r\n    function getNumServices() public view returns (uint256) {\r\n        uint sum = 0;\r\n        for (uint i = 0 ; i < numService; i ++) {\r\n            services[i].exist == true ? sum += 1 : sum += 0;\r\n        }\r\n        return sum;\r\n    }\r\n\r\n    // Getter for service details\r\n    function getServiceDetails(uint256 serviceNumber) public view returns (service memory) {\r\n        return services[serviceNumber];\r\n    }\r\n\r\n    // Getter for service price\r\n    function getServicePrice(uint256 serviceNumber) public view returns (uint256) {\r\n        return services[serviceNumber].price;\r\n    }\r\n\r\n    // Getter for boolean if service is approved\r\n    function isServiceApproved(uint256 serviceNumber) public view returns (bool) {\r\n        return services[serviceNumber].status == Status.approved;\r\n    }\r\n}",
  "sourcePath": "C:\\Users\\joobi\\Desktop\\IS4302\\Project\\IS4302\\contracts\\Service.sol",
  "compiler": {
    "name": "solc",
    "version": "0.8.0+commit.c7dfd78e.Emscripten.clang"
  },
  "schemaVersion": "3.4.4",
  "updatedAt": "2022-03-14T09:35:34.815Z",
  "devdoc": {
    "kind": "dev",
    "methods": {},
    "version": 1
  },
  "userdoc": {
    "kind": "user",
    "methods": {},
    "version": 1
  }
}