{
  "contractName": "Service",
  "abi": [
    {
      "constant": true,
      "inputs": [],
      "name": "numServiceProvider",
      "outputs": [
        {
          "name": "",
          "type": "uint256"
        }
      ],
      "payable": false,
      "stateMutability": "view",
      "type": "function"
    },
    {
      "constant": false,
      "inputs": [
        {
          "name": "title",
          "type": "string"
        },
        {
          "name": "description",
          "type": "string"
        },
        {
          "name": "price",
          "type": "uint256"
        }
      ],
      "name": "createService",
      "outputs": [
        {
          "name": "",
          "type": "uint256"
        }
      ],
      "payable": true,
      "stateMutability": "payable",
      "type": "function"
    }
  ],
  "bytecode": "0x6080604052600060025534801561001557600080fd5b50610627806100256000396000f3fe60806040526004361061004c576000357c0100000000000000000000000000000000000000000000000000000000900463ffffffff16806360e3c6c6146100515780637b15f1b61461007c575b600080fd5b34801561005d57600080fd5b506100666101ec565b6040518082815260200191505060405180910390f35b6101d66004803603606081101561009257600080fd5b81019080803590602001906401000000008111156100af57600080fd5b8201836020820111156100c157600080fd5b803590602001918460018302840111640100000000831117156100e357600080fd5b91908080601f016020809104026020016040519081016040528093929190818152602001838380828437600081840152601f19601f8201169050808301925050505050505091929192908035906020019064010000000081111561014657600080fd5b82018360208201111561015857600080fd5b8035906020019184600183028401116401000000008311171561017a57600080fd5b91908080601f016020809104026020016040519081016040528093929190818152602001838380828437600081840152601f19601f820116905080830192505050505050509192919290803590602001909291905050506101f2565b6040518082815260200191505060405180910390f35b60025481565b600080845111151561026c576040517f08c379a000000000000000000000000000000000000000000000000000000000815260040180806020018281038252601b8152602001807f412053657276696365205469746c65206973207265717569726564000000000081525060200191505060405180910390fd5b6000835111151561030b576040517f08c379a00000000000000000000000000000000000000000000000000000000081526004018080602001828103825260218152602001807f412053657276696365204465736372697074696f6e206973207265717569726581526020017f640000000000000000000000000000000000000000000000000000000000000081525060400191505060405180910390fd5b6000821115156103a9576040517f08c379a00000000000000000000000000000000000000000000000000000000081526004018080602001828103825260218152602001807f412053657276696365205072696365206d75737420626520737065636966696581526020017f640000000000000000000000000000000000000000000000000000000000000081525060400191505060405180910390fd5b6103b16104fe565b60c0604051908101604052808681526020018581526020018481526020013373ffffffffffffffffffffffffffffffffffffffff168152602001348152602001600060068111156103fe57fe5b8152509050806001600060025481526020019081526020016000206000820151816000019080519060200190610435929190610556565b506020820151816001019080519060200190610452929190610556565b506040820151816002015560608201518160030160006101000a81548173ffffffffffffffffffffffffffffffffffffffff021916908373ffffffffffffffffffffffffffffffffffffffff1602179055506080820151816004015560a08201518160050160006101000a81548160ff021916908360068111156104d257fe5b021790555090505060026000815480929190600101919050556002819055506002549150509392505050565b60c060405190810160405280606081526020016060815260200160008152602001600073ffffffffffffffffffffffffffffffffffffffff168152602001600081526020016000600681111561055057fe5b81525090565b828054600181600116156101000203166002900490600052602060002090601f016020900481019282601f1061059757805160ff19168380011785556105c5565b828001600101855582156105c5579182015b828111156105c45782518255916020019190600101906105a9565b5b5090506105d291906105d6565b5090565b6105f891905b808211156105f45760008160009055506001016105dc565b5090565b9056fea165627a7a7230582012a7db032be9cbabe40be0557cd233e831bb209ab40899594aeb1fd69de5cba30029",
  "source": "// SPDX-License-Identifier: MIT\npragma solidity >=0.4.22 <0.9.0;\n\ncontract Service {\n\n    enum Status { none, pending, rejected, accepted, started, completd, incomplete}\n\n    struct service {\n        string title;\n        string description;\n        uint256 price;     \n        address serviceProvider;\n        uint256 creationValue;\n        Status status;\n    }\n\n    mapping (address => address) serviceRequesterList;\n    mapping (uint256 => service) serviceProviderList;\n    uint256 public numServiceProvider = 0;\n    \n    function createService (string memory title, string memory description, uint256 price) public payable returns (uint256) {\n        require(bytes(title).length > 0, \"A Service Title is required\");\n        require(bytes(description).length > 0, \"A Service Description is required\");\n        require(price > 0, \"A Service Price must be specified\");\n        // require(msg.value > 0.01 ether, \"A minimum of 0.01 ETH is needed to create a Service\");\n        \n        service memory newService = service(title,description,price,msg.sender,msg.value,Status.none);\n        serviceProviderList[numServiceProvider] = newService;\n        numServiceProvider = numServiceProvider++;\n        return numServiceProvider;\n    }\n\n}",
  "sourcePath": "/Users/eltontay/Desktop/IS4302/project/contracts/Service.sol",
  "compiler": {
    "name": "solc",
    "version": "0.5.0+commit.1d4f565a.Emscripten.clang"
  },
  "schemaVersion": "3.4.4",
  "updatedAt": "2022-03-08T01:56:53.694Z",
  "devdoc": {
    "methods": {}
  },
  "userdoc": {
    "methods": {}
  }
}